{
  "_format": "hh-sol-artifact-1",
  "contractName": "IPFSTextSubmitter",
  "sourceName": "contracts/modules/IPFSTextSubmitter.sol",
  "abi": [
    {
      "inputs": [],
      "stateMutability": "nonpayable",
      "type": "constructor"
    },
    {
      "anonymous": false,
      "inputs": [
        {
          "indexed": true,
          "internalType": "address",
          "name": "module",
          "type": "address"
        },
        {
          "indexed": true,
          "internalType": "address",
          "name": "solver",
          "type": "address"
        }
      ],
      "name": "LoadedModule",
      "type": "event"
    },
    {
      "anonymous": false,
      "inputs": [
        {
          "indexed": false,
          "internalType": "string",
          "name": "cid",
          "type": "string"
        },
        {
          "indexed": false,
          "internalType": "address",
          "name": "submitter",
          "type": "address"
        },
        {
          "indexed": true,
          "internalType": "bytes32",
          "name": "conditionId",
          "type": "bytes32"
        }
      ],
      "name": "SubmittedWork",
      "type": "event"
    },
    {
      "inputs": [],
      "name": "SUBMITTER_SLOT_STATE_KEY",
      "outputs": [
        {
          "internalType": "bytes32",
          "name": "",
          "type": "bytes32"
        }
      ],
      "stateMutability": "view",
      "type": "function"
    },
    {
      "inputs": [
        {
          "internalType": "bytes4",
          "name": "selector",
          "type": "bytes4"
        }
      ],
      "name": "isPermitted",
      "outputs": [
        {
          "internalType": "bool",
          "name": "",
          "type": "bool"
        }
      ],
      "stateMutability": "view",
      "type": "function"
    },
    {
      "inputs": [
        {
          "internalType": "bytes",
          "name": "data",
          "type": "bytes"
        }
      ],
      "name": "load",
      "outputs": [],
      "stateMutability": "nonpayable",
      "type": "function"
    },
    {
      "inputs": [
        {
          "internalType": "contract ISolver",
          "name": "solver",
          "type": "address"
        },
        {
          "internalType": "string",
          "name": "cid",
          "type": "string"
        },
        {
          "internalType": "uint256",
          "name": "conditionIndex",
          "type": "uint256"
        }
      ],
      "name": "submit",
      "outputs": [],
      "stateMutability": "nonpayable",
      "type": "function"
    },
    {
      "inputs": [
        {
          "internalType": "contract ISolver",
          "name": "solver",
          "type": "address"
        }
      ],
      "name": "submitter",
      "outputs": [
        {
          "internalType": "address",
          "name": "",
          "type": "address"
        }
      ],
      "stateMutability": "view",
      "type": "function"
    },
    {
      "inputs": [
        {
          "internalType": "bytes4",
          "name": "interfaceId",
          "type": "bytes4"
        }
      ],
      "name": "supportsInterface",
      "outputs": [
        {
          "internalType": "bool",
          "name": "",
          "type": "bool"
        }
      ],
      "stateMutability": "view",
      "type": "function"
    },
    {
      "inputs": [],
      "name": "viewPermits",
      "outputs": [
        {
          "internalType": "bytes4[]",
          "name": "",
          "type": "bytes4[]"
        }
      ],
      "stateMutability": "view",
      "type": "function"
    }
  ],
  "bytecode": "0x60c06040526381296f6f60e01b60a090815261001f90600090600161008e565b5034801561002c57600080fd5b506040805130602082015280820191909152601860608201527f5355424d49545445525f534c4f545f53544154455f4b45590000000000000000608082015260a00160408051601f19818403018152919052805160209091012060805261014f565b8280548282559060005260206000209060070160089004810192821561012a5791602002820160005b838211156100f857835183826101000a81548163ffffffff021916908360e01c021790555092602001926004016020816003010492830192600103026100b7565b80156101285782816101000a81549063ffffffff02191690556004016020816003010492830192600103026100f8565b505b5061013692915061013a565b5090565b5b80821115610136576000815560010161013b565b608051610b146101776000396000818160c70152818161021e015261033e0152610b146000f3fe608060405234801561001057600080fd5b506004361061006d5760003560e01c806301ffc9a7146100725780632248fd9e1461009a5780633cef64cc146100ad5780634b070853146100c25780638677fc14146100f7578063956fa8321461010c578063f451f46914610137575b600080fd5b6100856100803660046105ad565b61014a565b60405190151581526020015b60405180910390f35b6100856100a83660046105ad565b610181565b6100c06100bb366004610673565b610203565b005b6100e97f000000000000000000000000000000000000000000000000000000000000000081565b604051908152602001610091565b6100ff6102aa565b60405161009191906106f2565b61011f61011a366004610758565b61032f565b6040516001600160a01b039091168152602001610091565b6100c0610145366004610775565b610445565b60006001600160e01b0319821663992face160e01b148061017b57506001600160e01b031982166301ffc9a760e01b145b92915050565b6000805b6000548110156101fa57826001600160e01b031916600082815481106101ad576101ad6107ff565b90600052602060002090600891828204019190066004029054906101000a900460e01b6001600160e01b031916036101e85750600192915050565b806101f281610815565b915050610185565b50600092915050565b6040516381296f6f60e01b815233906381296f6f90610248907f000000000000000000000000000000000000000000000000000000000000000090859060040161086c565b600060405180830381600087803b15801561026257600080fd5b505af1158015610276573d6000803e3d6000fd5b50506040513392503091507f5bd541bf918ba603897a3903b1092b774c2e889c3d883bd57202244669be124e90600090a350565b6060600080548060200260200160405190810160405280929190818152602001828054801561032557602002820191906000526020600020906000905b82829054906101000a900460e01b6001600160e01b031916815260200190600401906020826003010492830192600103820291508084116102e75790505b5050505050905090565b6040516309648a9d60e01b81527f000000000000000000000000000000000000000000000000000000000000000060048201526000906001600160a01b038316906354f6127f9082906309648a9d90602401600060405180830381865afa15801561039e573d6000803e3d6000fd5b505050506040513d6000823e601f3d908101601f191682016040526103c691908101906108a6565b6103cf9061091c565b6040518263ffffffff1660e01b81526004016103ed91815260200190565b600060405180830381865afa15801561040a573d6000803e3d6000fd5b505050506040513d6000823e601f3d908101601f1916820160405261043291908101906108a6565b80602001905181019061017b9190610943565b61044e8461032f565b6001600160a01b0316336001600160a01b0316146104a45760405162461bcd60e51b815260206004820152600e60248201526d27b7363c9029bab136b4ba3a32b960911b60448201526064015b60405180910390fd5b60405163f24fc90360e01b8152600481018290526000906001600160a01b0386169063f24fc90390602401600060405180830381865afa1580156104ec573d6000803e3d6000fd5b505050506040513d6000823e601f3d908101601f191682016040526105149190810190610974565b905060018160a00151600581111561052e5761052e610a87565b146105665760405162461bcd60e51b8152602060048201526008602482015267111a5cd8589b195960c21b604482015260640161049b565b80606001517f7399fd48fdfaf111111c20e282a8837c6803b6631b3b7b5e30b3b97d682d21b685853360405161059e93929190610a9d565b60405180910390a25050505050565b6000602082840312156105bf57600080fd5b81356001600160e01b0319811681146105d757600080fd5b9392505050565b634e487b7160e01b600052604160045260246000fd5b60405160c081016001600160401b0381118282101715610616576106166105de565b60405290565b604051601f8201601f191681016001600160401b0381118282101715610644576106446105de565b604052919050565b60006001600160401b03821115610665576106656105de565b50601f01601f191660200190565b60006020828403121561068557600080fd5b81356001600160401b0381111561069b57600080fd5b8201601f810184136106ac57600080fd5b80356106bf6106ba8261064c565b61061c565b8181528560208385010111156106d457600080fd5b81602084016020830137600091810160200191909152949350505050565b6020808252825182820181905260009190848201906040850190845b818110156107345783516001600160e01b0319168352928401929184019160010161070e565b50909695505050505050565b6001600160a01b038116811461075557600080fd5b50565b60006020828403121561076a57600080fd5b81356105d781610740565b6000806000806060858703121561078b57600080fd5b843561079681610740565b935060208501356001600160401b03808211156107b257600080fd5b818701915087601f8301126107c657600080fd5b8135818111156107d557600080fd5b8860208285010111156107e757600080fd5b95986020929092019750949560400135945092505050565b634e487b7160e01b600052603260045260246000fd5b60006001820161083557634e487b7160e01b600052601160045260246000fd5b5060010190565b60005b8381101561085757818101518382015260200161083f565b83811115610866576000848401525b50505050565b828152604060208201526000825180604084015261089181606085016020870161083c565b601f01601f1916919091016060019392505050565b6000602082840312156108b857600080fd5b81516001600160401b038111156108ce57600080fd5b8201601f810184136108df57600080fd5b80516108ed6106ba8261064c565b81815285602083850101111561090257600080fd5b61091382602083016020860161083c565b95945050505050565b8051602080830151919081101561093d576000198160200360031b1b821691505b50919050565b60006020828403121561095557600080fd5b81516105d781610740565b80516006811061096f57600080fd5b919050565b6000602080838503121561098757600080fd5b82516001600160401b038082111561099e57600080fd5b9084019060c082870312156109b257600080fd5b6109ba6105f4565b82516109c581610740565b80825250838301518482015260408301516040820152606083015160608201526080830151828111156109f757600080fd5b8301601f81018813610a0857600080fd5b805183811115610a1a57610a1a6105de565b8060051b9350610a2b86850161061c565b818152938201860193868101908a861115610a4557600080fd5b928701925b85841015610a6357835182529287019290870190610a4a565b608085015250610a7891505060a08401610960565b60a08201529695505050505050565b634e487b7160e01b600052602160045260246000fd5b6040815282604082015282846060830137600060608483018101919091526001600160a01b03929092166020820152601f909201601f19169091010191905056fea2646970667358221220c7352a0b35f603716213880adf65eceed67101c1de3d79a3fbe28de9af3295d264736f6c634300080d0033",
  "linkReferences": {},
  "deployedLinkReferences": {}
}