{
  "_format": "hh-sol-artifact-1",
  "contractName": "IPFSTextSubmitter",
  "sourceName": "contracts/modules/IPFSTextSubmitter.sol",
  "abi": [
    {
      "anonymous": false,
      "inputs": [
        {
          "indexed": true,
          "internalType": "address",
          "name": "module",
          "type": "address"
        },
        {
          "indexed": true,
          "internalType": "address",
          "name": "solver",
          "type": "address"
        }
      ],
      "name": "LoadedModule",
      "type": "event"
    },
    {
      "anonymous": false,
      "inputs": [
        {
          "indexed": false,
          "internalType": "string",
          "name": "cid",
          "type": "string"
        },
        {
          "indexed": false,
          "internalType": "address",
          "name": "submitter",
          "type": "address"
        },
        {
          "indexed": true,
          "internalType": "bytes32",
          "name": "conditionId",
          "type": "bytes32"
        }
      ],
      "name": "SubmittedWork",
      "type": "event"
    },
    {
      "inputs": [],
      "name": "fetchPermits",
      "outputs": [
        {
          "internalType": "bytes4[]",
          "name": "",
          "type": "bytes4[]"
        }
      ],
      "stateMutability": "view",
      "type": "function"
    },
    {
      "inputs": [
        {
          "internalType": "bytes4",
          "name": "selector",
          "type": "bytes4"
        }
      ],
      "name": "isPermitted",
      "outputs": [
        {
          "internalType": "bool",
          "name": "",
          "type": "bool"
        }
      ],
      "stateMutability": "view",
      "type": "function"
    },
    {
      "inputs": [
        {
          "internalType": "bytes",
          "name": "data",
          "type": "bytes"
        }
      ],
      "name": "load",
      "outputs": [],
      "stateMutability": "nonpayable",
      "type": "function"
    },
    {
      "inputs": [
        {
          "internalType": "contract ISolver",
          "name": "solver",
          "type": "address"
        },
        {
          "internalType": "string",
          "name": "cid",
          "type": "string"
        },
        {
          "internalType": "uint256",
          "name": "conditionIndex",
          "type": "uint256"
        }
      ],
      "name": "submit",
      "outputs": [],
      "stateMutability": "nonpayable",
      "type": "function"
    },
    {
      "inputs": [
        {
          "internalType": "contract ISolver",
          "name": "solver",
          "type": "address"
        }
      ],
      "name": "submitter",
      "outputs": [
        {
          "internalType": "address",
          "name": "",
          "type": "address"
        }
      ],
      "stateMutability": "view",
      "type": "function"
    },
    {
      "inputs": [
        {
          "internalType": "bytes4",
          "name": "interfaceId",
          "type": "bytes4"
        }
      ],
      "name": "supportsInterface",
      "outputs": [
        {
          "internalType": "bool",
          "name": "",
          "type": "bool"
        }
      ],
      "stateMutability": "view",
      "type": "function"
    }
  ],
  "bytecode": "0x3060c0908152602060a081905260e0604052902060805234801561002257600080fd5b50600080546001810182559080527f290decd9548b62a8d60345a988386fc84ba6bc95484008f6362f93160ef3e5636008820401805463ffffffff60079093166004026101000a92830219166381296f6f909202919091179055608051610ad461009e600039600081816101de01526102790152610ad46000f3fe608060405234801561001057600080fd5b50600436106100625760003560e01c806301ffc9a7146100675780632248fd9e1461008f5780633cef64cc146100a2578063956fa832146100b7578063e1979ef4146100e2578063f451f469146100f7575b600080fd5b61007a61007536600461056d565b61010a565b60405190151581526020015b60405180910390f35b61007a61009d36600461056d565b610141565b6100b56100b0366004610633565b6101c3565b005b6100ca6100c53660046106ca565b61026a565b6040516001600160a01b039091168152602001610086565b6100ea610380565b60405161008691906106e7565b6100b5610105366004610735565b610405565b60006001600160e01b0319821663fecfce0160e01b148061013b57506001600160e01b031982166301ffc9a760e01b145b92915050565b6000805b6000548110156101ba57826001600160e01b0319166000828154811061016d5761016d6107bf565b90600052602060002090600891828204019190066004029054906101000a900460e01b6001600160e01b031916036101a85750600192915050565b806101b2816107d5565b915050610145565b50600092915050565b6040516381296f6f60e01b815233906381296f6f90610208907f000000000000000000000000000000000000000000000000000000000000000090859060040161082c565b600060405180830381600087803b15801561022257600080fd5b505af1158015610236573d6000803e3d6000fd5b50506040513392503091507f5bd541bf918ba603897a3903b1092b774c2e889c3d883bd57202244669be124e90600090a350565b6040516309648a9d60e01b81527f000000000000000000000000000000000000000000000000000000000000000060048201526000906001600160a01b038316906354f6127f9082906309648a9d90602401600060405180830381865afa1580156102d9573d6000803e3d6000fd5b505050506040513d6000823e601f3d908101601f191682016040526103019190810190610866565b61030a906108dc565b6040518263ffffffff1660e01b815260040161032891815260200190565b600060405180830381865afa158015610345573d6000803e3d6000fd5b505050506040513d6000823e601f3d908101601f1916820160405261036d9190810190610866565b80602001905181019061013b9190610903565b606060008054806020026020016040519081016040528092919081815260200182805480156103fb57602002820191906000526020600020906000905b82829054906101000a900460e01b6001600160e01b031916815260200190600401906020826003010492830192600103820291508084116103bd5790505b5050505050905090565b61040e8461026a565b6001600160a01b0316336001600160a01b0316146104645760405162461bcd60e51b815260206004820152600e60248201526d27b7363c9029bab136b4ba3a32b960911b60448201526064015b60405180910390fd5b60405163f24fc90360e01b8152600481018290526000906001600160a01b0386169063f24fc90390602401600060405180830381865afa1580156104ac573d6000803e3d6000fd5b505050506040513d6000823e601f3d908101601f191682016040526104d49190810190610934565b905060018160a0015160058111156104ee576104ee610a47565b146105265760405162461bcd60e51b8152602060048201526008602482015267111a5cd8589b195960c21b604482015260640161045b565b80606001517f7399fd48fdfaf111111c20e282a8837c6803b6631b3b7b5e30b3b97d682d21b685853360405161055e93929190610a5d565b60405180910390a25050505050565b60006020828403121561057f57600080fd5b81356001600160e01b03198116811461059757600080fd5b9392505050565b634e487b7160e01b600052604160045260246000fd5b60405160c081016001600160401b03811182821017156105d6576105d661059e565b60405290565b604051601f8201601f191681016001600160401b03811182821017156106045761060461059e565b604052919050565b60006001600160401b038211156106255761062561059e565b50601f01601f191660200190565b60006020828403121561064557600080fd5b81356001600160401b0381111561065b57600080fd5b8201601f8101841361066c57600080fd5b803561067f61067a8261060c565b6105dc565b81815285602083850101111561069457600080fd5b81602084016020830137600091810160200191909152949350505050565b6001600160a01b03811681146106c757600080fd5b50565b6000602082840312156106dc57600080fd5b8135610597816106b2565b6020808252825182820181905260009190848201906040850190845b818110156107295783516001600160e01b03191683529284019291840191600101610703565b50909695505050505050565b6000806000806060858703121561074b57600080fd5b8435610756816106b2565b935060208501356001600160401b038082111561077257600080fd5b818701915087601f83011261078657600080fd5b81358181111561079557600080fd5b8860208285010111156107a757600080fd5b95986020929092019750949560400135945092505050565b634e487b7160e01b600052603260045260246000fd5b6000600182016107f557634e487b7160e01b600052601160045260246000fd5b5060010190565b60005b838110156108175781810151838201526020016107ff565b83811115610826576000848401525b50505050565b82815260406020820152600082518060408401526108518160608501602087016107fc565b601f01601f1916919091016060019392505050565b60006020828403121561087857600080fd5b81516001600160401b0381111561088e57600080fd5b8201601f8101841361089f57600080fd5b80516108ad61067a8261060c565b8181528560208385010111156108c257600080fd5b6108d38260208301602086016107fc565b95945050505050565b805160208083015191908110156108fd576000198160200360031b1b821691505b50919050565b60006020828403121561091557600080fd5b8151610597816106b2565b80516006811061092f57600080fd5b919050565b6000602080838503121561094757600080fd5b82516001600160401b038082111561095e57600080fd5b9084019060c0828703121561097257600080fd5b61097a6105b4565b8251610985816106b2565b80825250838301518482015260408301516040820152606083015160608201526080830151828111156109b757600080fd5b8301601f810188136109c857600080fd5b8051838111156109da576109da61059e565b8060051b93506109eb8685016105dc565b818152938201860193868101908a861115610a0557600080fd5b928701925b85841015610a2357835182529287019290870190610a0a565b608085015250610a3891505060a08401610920565b60a08201529695505050505050565b634e487b7160e01b600052602160045260246000fd5b6040815282604082015282846060830137600060608483018101919091526001600160a01b03929092166020820152601f909201601f19169091010191905056fea2646970667358221220942f07f7e803c4b38e519ec04761140844f8b34d9bd42639168e4d40650147f064736f6c634300080d0033",
  "linkReferences": {},
  "deployedLinkReferences": {}
}