{
  "_format": "hh-sol-artifact-1",
  "contractName": "IPFSTextSubmitter",
  "sourceName": "contracts/modules/IPFSTextSubmitter.sol",
  "abi": [
    {
      "anonymous": false,
      "inputs": [
        {
          "indexed": true,
          "internalType": "address",
          "name": "module",
          "type": "address"
        },
        {
          "indexed": true,
          "internalType": "address",
          "name": "solver",
          "type": "address"
        }
      ],
      "name": "LoadedModule",
      "type": "event"
    },
    {
      "anonymous": false,
      "inputs": [
        {
          "indexed": true,
          "internalType": "address",
          "name": "solver",
          "type": "address"
        },
        {
          "indexed": false,
          "internalType": "string",
          "name": "cid",
          "type": "string"
        },
        {
          "indexed": false,
          "internalType": "address",
          "name": "submitter",
          "type": "address"
        },
        {
          "indexed": true,
          "internalType": "bytes32",
          "name": "conditionId",
          "type": "bytes32"
        }
      ],
      "name": "SubmittedWork",
      "type": "event"
    },
    {
      "inputs": [],
      "name": "fetchPermits",
      "outputs": [
        {
          "internalType": "bytes4[]",
          "name": "",
          "type": "bytes4[]"
        }
      ],
      "stateMutability": "view",
      "type": "function"
    },
    {
      "inputs": [
        {
          "internalType": "bytes4",
          "name": "selector",
          "type": "bytes4"
        }
      ],
      "name": "isPermitted",
      "outputs": [
        {
          "internalType": "bool",
          "name": "",
          "type": "bool"
        }
      ],
      "stateMutability": "view",
      "type": "function"
    },
    {
      "inputs": [
        {
          "internalType": "bytes",
          "name": "data",
          "type": "bytes"
        }
      ],
      "name": "load",
      "outputs": [],
      "stateMutability": "nonpayable",
      "type": "function"
    },
    {
      "inputs": [
        {
          "internalType": "contract ISolver",
          "name": "solver",
          "type": "address"
        },
        {
          "internalType": "string",
          "name": "cid",
          "type": "string"
        },
        {
          "internalType": "uint256",
          "name": "conditionIndex",
          "type": "uint256"
        }
      ],
      "name": "submit",
      "outputs": [],
      "stateMutability": "nonpayable",
      "type": "function"
    },
    {
      "inputs": [
        {
          "internalType": "contract ISolver",
          "name": "solver",
          "type": "address"
        }
      ],
      "name": "submitter",
      "outputs": [
        {
          "internalType": "address",
          "name": "",
          "type": "address"
        }
      ],
      "stateMutability": "view",
      "type": "function"
    },
    {
      "inputs": [
        {
          "internalType": "bytes4",
          "name": "interfaceId",
          "type": "bytes4"
        }
      ],
      "name": "supportsInterface",
      "outputs": [
        {
          "internalType": "bool",
          "name": "",
          "type": "bool"
        }
      ],
      "stateMutability": "view",
      "type": "function"
    }
  ],
  "bytecode": "0x3060c0908152602060a081905260e0604052902060805234801561002257600080fd5b50600080546001810182559080527f290decd9548b62a8d60345a988386fc84ba6bc95484008f6362f93160ef3e5636008820401805463ffffffff60079093166004026101000a92830219166381296f6f909202919091179055608051610add61009e600039600081816101de01526102790152610add6000f3fe608060405234801561001057600080fd5b50600436106100625760003560e01c806301ffc9a7146100675780632248fd9e1461008f5780633cef64cc146100a2578063956fa832146100b7578063e1979ef4146100e2578063f451f469146100f7575b600080fd5b61007a610075366004610576565b61010a565b60405190151581526020015b60405180910390f35b61007a61009d366004610576565b610141565b6100b56100b036600461063c565b6101c3565b005b6100ca6100c53660046106d3565b61026a565b6040516001600160a01b039091168152602001610086565b6100ea610380565b60405161008691906106f0565b6100b561010536600461073e565b610405565b60006001600160e01b0319821663fecfce0160e01b148061013b57506001600160e01b031982166301ffc9a760e01b145b92915050565b6000805b6000548110156101ba57826001600160e01b0319166000828154811061016d5761016d6107c8565b90600052602060002090600891828204019190066004029054906101000a900460e01b6001600160e01b031916036101a85750600192915050565b806101b2816107de565b915050610145565b50600092915050565b6040516381296f6f60e01b815233906381296f6f90610208907f0000000000000000000000000000000000000000000000000000000000000000908590600401610835565b600060405180830381600087803b15801561022257600080fd5b505af1158015610236573d6000803e3d6000fd5b50506040513392503091507f5bd541bf918ba603897a3903b1092b774c2e889c3d883bd57202244669be124e90600090a350565b6040516309648a9d60e01b81527f000000000000000000000000000000000000000000000000000000000000000060048201526000906001600160a01b038316906354f6127f9082906309648a9d90602401600060405180830381865afa1580156102d9573d6000803e3d6000fd5b505050506040513d6000823e601f3d908101601f19168201604052610301919081019061086f565b61030a906108e5565b6040518263ffffffff1660e01b815260040161032891815260200190565b600060405180830381865afa158015610345573d6000803e3d6000fd5b505050506040513d6000823e601f3d908101601f1916820160405261036d919081019061086f565b80602001905181019061013b919061090c565b606060008054806020026020016040519081016040528092919081815260200182805480156103fb57602002820191906000526020600020906000905b82829054906101000a900460e01b6001600160e01b031916815260200190600401906020826003010492830192600103820291508084116103bd5790505b5050505050905090565b61040e8461026a565b6001600160a01b0316336001600160a01b0316146104645760405162461bcd60e51b815260206004820152600e60248201526d27b7363c9029bab136b4ba3a32b960911b60448201526064015b60405180910390fd5b60405163f24fc90360e01b8152600481018290526000906001600160a01b0386169063f24fc90390602401600060405180830381865afa1580156104ac573d6000803e3d6000fd5b505050506040513d6000823e601f3d908101601f191682016040526104d4919081019061093d565b905060018160a0015160058111156104ee576104ee610a50565b146105265760405162461bcd60e51b8152602060048201526008602482015267111a5cd8589b195960c21b604482015260640161045b565b8060600151856001600160a01b03167ef6f98d2826a235f682ca776ca1e29596580cbe447ca78067ed570b1791aa6786863360405161056793929190610a66565b60405180910390a35050505050565b60006020828403121561058857600080fd5b81356001600160e01b0319811681146105a057600080fd5b9392505050565b634e487b7160e01b600052604160045260246000fd5b60405160c081016001600160401b03811182821017156105df576105df6105a7565b60405290565b604051601f8201601f191681016001600160401b038111828210171561060d5761060d6105a7565b604052919050565b60006001600160401b0382111561062e5761062e6105a7565b50601f01601f191660200190565b60006020828403121561064e57600080fd5b81356001600160401b0381111561066457600080fd5b8201601f8101841361067557600080fd5b803561068861068382610615565b6105e5565b81815285602083850101111561069d57600080fd5b81602084016020830137600091810160200191909152949350505050565b6001600160a01b03811681146106d057600080fd5b50565b6000602082840312156106e557600080fd5b81356105a0816106bb565b6020808252825182820181905260009190848201906040850190845b818110156107325783516001600160e01b0319168352928401929184019160010161070c565b50909695505050505050565b6000806000806060858703121561075457600080fd5b843561075f816106bb565b935060208501356001600160401b038082111561077b57600080fd5b818701915087601f83011261078f57600080fd5b81358181111561079e57600080fd5b8860208285010111156107b057600080fd5b95986020929092019750949560400135945092505050565b634e487b7160e01b600052603260045260246000fd5b6000600182016107fe57634e487b7160e01b600052601160045260246000fd5b5060010190565b60005b83811015610820578181015183820152602001610808565b8381111561082f576000848401525b50505050565b828152604060208201526000825180604084015261085a816060850160208701610805565b601f01601f1916919091016060019392505050565b60006020828403121561088157600080fd5b81516001600160401b0381111561089757600080fd5b8201601f810184136108a857600080fd5b80516108b661068382610615565b8181528560208385010111156108cb57600080fd5b6108dc826020830160208601610805565b95945050505050565b80516020808301519190811015610906576000198160200360031b1b821691505b50919050565b60006020828403121561091e57600080fd5b81516105a0816106bb565b80516006811061093857600080fd5b919050565b6000602080838503121561095057600080fd5b82516001600160401b038082111561096757600080fd5b9084019060c0828703121561097b57600080fd5b6109836105bd565b825161098e816106bb565b80825250838301518482015260408301516040820152606083015160608201526080830151828111156109c057600080fd5b8301601f810188136109d157600080fd5b8051838111156109e3576109e36105a7565b8060051b93506109f48685016105e5565b818152938201860193868101908a861115610a0e57600080fd5b928701925b85841015610a2c57835182529287019290870190610a13565b608085015250610a4191505060a08401610929565b60a08201529695505050505050565b634e487b7160e01b600052602160045260246000fd5b6040815282604082015282846060830137600060608483018101919091526001600160a01b03929092166020820152601f909201601f19169091010191905056fea26469706673582212205a24e135c9c322f830151c5191a80820d102264b982e6af0431f12dab981543a64736f6c634300080d0033",
  "linkReferences": {},
  "deployedLinkReferences": {}
}