{
  "_format": "hh-sol-artifact-1",
  "contractName": "IPFSTextSubmitter",
  "sourceName": "contracts/modules/IPFSTextSubmitter.sol",
  "abi": [
    {
      "inputs": [],
      "stateMutability": "nonpayable",
      "type": "constructor"
    },
    {
      "anonymous": false,
      "inputs": [
        {
          "indexed": false,
          "internalType": "address",
          "name": "module",
          "type": "address"
        },
        {
          "indexed": false,
          "internalType": "address",
          "name": "solver",
          "type": "address"
        }
      ],
      "name": "LoadedModule",
      "type": "event"
    },
    {
      "anonymous": false,
      "inputs": [
        {
          "indexed": false,
          "internalType": "string",
          "name": "cid",
          "type": "string"
        },
        {
          "indexed": false,
          "internalType": "address",
          "name": "submitter",
          "type": "address"
        },
        {
          "indexed": false,
          "internalType": "bytes32",
          "name": "conditionId",
          "type": "bytes32"
        }
      ],
      "name": "SubmittedWork",
      "type": "event"
    },
    {
      "inputs": [],
      "name": "SUBMITTER_SLOT_STATE_KEY",
      "outputs": [
        {
          "internalType": "bytes32",
          "name": "",
          "type": "bytes32"
        }
      ],
      "stateMutability": "view",
      "type": "function"
    },
    {
      "inputs": [
        {
          "internalType": "bytes",
          "name": "data",
          "type": "bytes"
        }
      ],
      "name": "load",
      "outputs": [],
      "stateMutability": "nonpayable",
      "type": "function"
    },
    {
      "inputs": [],
      "name": "roles",
      "outputs": [
        {
          "internalType": "bytes32[]",
          "name": "requestedRoles",
          "type": "bytes32[]"
        }
      ],
      "stateMutability": "pure",
      "type": "function"
    },
    {
      "inputs": [
        {
          "internalType": "contract ISolver",
          "name": "solver",
          "type": "address"
        },
        {
          "internalType": "string",
          "name": "cid",
          "type": "string"
        },
        {
          "internalType": "uint256",
          "name": "conditionIndex",
          "type": "uint256"
        }
      ],
      "name": "submit",
      "outputs": [],
      "stateMutability": "nonpayable",
      "type": "function"
    },
    {
      "inputs": [
        {
          "internalType": "contract ISolver",
          "name": "solver",
          "type": "address"
        }
      ],
      "name": "submitter",
      "outputs": [
        {
          "internalType": "address",
          "name": "",
          "type": "address"
        }
      ],
      "stateMutability": "view",
      "type": "function"
    },
    {
      "inputs": [
        {
          "internalType": "bytes4",
          "name": "interfaceId",
          "type": "bytes4"
        }
      ],
      "name": "supportsInterface",
      "outputs": [
        {
          "internalType": "bool",
          "name": "",
          "type": "bool"
        }
      ],
      "stateMutability": "view",
      "type": "function"
    }
  ],
  "bytecode": "0x60a060405234801561001057600080fd5b506040805130602082015280820191909152601860608201527f5355424d49545445525f534c4f545f53544154455f4b45590000000000000000608082015260a00160408051601f198184030181529190528051602090910120608052608051610a386100956000396000818160be015281816101e3015261028a0152610a386000f3fe608060405234801561001057600080fd5b50600436106100625760003560e01c806301ffc9a714610067578063392f5f641461008f5780633cef64cc146100a45780634b070853146100b9578063956fa832146100ee578063f451f46914610119575b600080fd5b61007a6100753660046104fa565b61012c565b60405190151581526020015b60405180910390f35b610097610163565b604051610086919061052b565b6100b76100b2366004610604565b6101c8565b005b6100e07f000000000000000000000000000000000000000000000000000000000000000081565b604051908152602001610086565b6101016100fc36600461069b565b61027b565b6040516001600160a01b039091168152602001610086565b6100b76101273660046106b8565b610391565b60006001600160e01b0319821663043ff20f60e01b148061015d57506301ffc9a760e01b6001600160e01b03198316145b92915050565b604080516001808252818301909252606091602080830190803683370190505090507f0ca87275d169c8ebebebf4aab9c6c710c7681b39422556e90b16a44c68ee4e46816000815181106101b9576101b9610742565b60200260200101818152505090565b6040516381296f6f60e01b815233906381296f6f9061020d907f0000000000000000000000000000000000000000000000000000000000000000908590600401610788565b600060405180830381600087803b15801561022757600080fd5b505af115801561023b573d6000803e3d6000fd5b5050604080513081523360208201527f5bd541bf918ba603897a3903b1092b774c2e889c3d883bd57202244669be124e935001905060405180910390a150565b6040516309648a9d60e01b81527f000000000000000000000000000000000000000000000000000000000000000060048201526000906001600160a01b038316906354f6127f9082906309648a9d90602401600060405180830381865afa1580156102ea573d6000803e3d6000fd5b505050506040513d6000823e601f3d908101601f1916820160405261031291908101906107c2565b61031b90610838565b6040518263ffffffff1660e01b815260040161033991815260200190565b600060405180830381865afa158015610356573d6000803e3d6000fd5b505050506040513d6000823e601f3d908101601f1916820160405261037e91908101906107c2565b80602001905181019061015d919061085f565b61039a8461027b565b6001600160a01b0316336001600160a01b0316146103f05760405162461bcd60e51b815260206004820152600e60248201526d27b7363c9029bab136b4ba3a32b960911b60448201526064015b60405180910390fd5b60405163f24fc90360e01b8152600481018290526000906001600160a01b0386169063f24fc90390602401600060405180830381865afa158015610438573d6000803e3d6000fd5b505050506040513d6000823e601f3d908101601f191682016040526104609190810190610890565b905060018160a00151600581111561047a5761047a6109a3565b146104b25760405162461bcd60e51b8152602060048201526008602482015267111a5cd8589b195960c21b60448201526064016103e7565b7f7399fd48fdfaf111111c20e282a8837c6803b6631b3b7b5e30b3b97d682d21b684843384606001516040516104eb94939291906109b9565b60405180910390a15050505050565b60006020828403121561050c57600080fd5b81356001600160e01b03198116811461052457600080fd5b9392505050565b6020808252825182820181905260009190848201906040850190845b8181101561056357835183529284019291840191600101610547565b50909695505050505050565b634e487b7160e01b600052604160045260246000fd5b60405160c081016001600160401b03811182821017156105a7576105a761056f565b60405290565b604051601f8201601f191681016001600160401b03811182821017156105d5576105d561056f565b604052919050565b60006001600160401b038211156105f6576105f661056f565b50601f01601f191660200190565b60006020828403121561061657600080fd5b81356001600160401b0381111561062c57600080fd5b8201601f8101841361063d57600080fd5b803561065061064b826105dd565b6105ad565b81815285602083850101111561066557600080fd5b81602084016020830137600091810160200191909152949350505050565b6001600160a01b038116811461069857600080fd5b50565b6000602082840312156106ad57600080fd5b813561052481610683565b600080600080606085870312156106ce57600080fd5b84356106d981610683565b935060208501356001600160401b03808211156106f557600080fd5b818701915087601f83011261070957600080fd5b81358181111561071857600080fd5b88602082850101111561072a57600080fd5b95986020929092019750949560400135945092505050565b634e487b7160e01b600052603260045260246000fd5b60005b8381101561077357818101518382015260200161075b565b83811115610782576000848401525b50505050565b82815260406020820152600082518060408401526107ad816060850160208701610758565b601f01601f1916919091016060019392505050565b6000602082840312156107d457600080fd5b81516001600160401b038111156107ea57600080fd5b8201601f810184136107fb57600080fd5b805161080961064b826105dd565b81815285602083850101111561081e57600080fd5b61082f826020830160208601610758565b95945050505050565b80516020808301519190811015610859576000198160200360031b1b821691505b50919050565b60006020828403121561087157600080fd5b815161052481610683565b80516006811061088b57600080fd5b919050565b600060208083850312156108a357600080fd5b82516001600160401b03808211156108ba57600080fd5b9084019060c082870312156108ce57600080fd5b6108d6610585565b82516108e181610683565b808252508383015184820152604083015160408201526060830151606082015260808301518281111561091357600080fd5b8301601f8101881361092457600080fd5b8051838111156109365761093661056f565b8060051b93506109478685016105ad565b818152938201860193868101908a86111561096157600080fd5b928701925b8584101561097f57835182529287019290870190610966565b60808501525061099491505060a0840161087c565b60a08201529695505050505050565b634e487b7160e01b600052602160045260246000fd5b6060815283606082015283856080830137600060808583018101919091526001600160a01b039390931660208201526040810191909152601f909201601f19169091010191905056fea2646970667358221220dc318513a098b42be7990edf703fb751798ff6f7df34dffa4f243d2c0317af9a64736f6c634300080d0033",
  "linkReferences": {},
  "deployedLinkReferences": {}
}