{
  "_format": "hh-sol-artifact-1",
  "contractName": "ArbitrationDispatch",
  "sourceName": "contracts/ArbitrationDispatch.sol",
  "abi": [
    {
      "anonymous": false,
      "inputs": [
        {
          "indexed": true,
          "internalType": "address",
          "name": "solver",
          "type": "address"
        },
        {
          "indexed": true,
          "internalType": "address",
          "name": "arbitrator",
          "type": "address"
        },
        {
          "indexed": false,
          "internalType": "address",
          "name": "requester",
          "type": "address"
        },
        {
          "indexed": false,
          "internalType": "uint256",
          "name": "conditionIndex",
          "type": "uint256"
        },
        {
          "indexed": false,
          "internalType": "uint256",
          "name": "value",
          "type": "uint256"
        },
        {
          "indexed": false,
          "internalType": "bytes",
          "name": "retData",
          "type": "bytes"
        }
      ],
      "name": "RequestedArbitration",
      "type": "event"
    },
    {
      "inputs": [
        {
          "internalType": "contract ISolver",
          "name": "solver",
          "type": "address"
        },
        {
          "internalType": "uint256",
          "name": "conditionIndex",
          "type": "uint256"
        }
      ],
      "name": "requestArbitration",
      "outputs": [],
      "stateMutability": "payable",
      "type": "function"
    }
  ],
  "bytecode": "0x608060405234801561001057600080fd5b5061056d806100206000396000f3fe60806040526004361061001e5760003560e01c806347d4a24414610023575b600080fd5b610036610031366004610359565b610038565b005b60005460ff16156100645760405162461bcd60e51b815260040161005b906104bd565b60405180910390fd5b6000805460ff1916600117815560408051636cc6cde160e01b815290516001600160a01b03851691636cc6cde1916004808301926020929190829003018186803b1580156100b157600080fd5b505afa1580156100c5573d6000803e3d6000fd5b505050506040513d601f19601f820116820180604052508101906100e991906102da565b90506001600160a01b0381166101115760405162461bcd60e51b815260040161005b90610488565b6000806000806000876001600160a01b03166326c50007886040518263ffffffff1660e01b815260040161014591906104e6565b60a06040518083038186803b15801561015d57600080fd5b505afa158015610171573d6000803e3d6000fd5b505050506040513d601f19601f8201168201806040525081019061019591906102fd565b93985091965094509250905060ff8116600214806101b6575060ff81166003145b6101d25760405162461bcd60e51b815260040161005b90610440565b600080876001600160a01b0316348b8b336040516020016101f5939291906103a0565b60408051601f198184030181529082905261020f91610384565b60006040518083038185875af1925050503d806000811461024c576040519150601f19603f3d011682016040523d82523d6000602084013e610251565b606091505b5091509150816102735760405162461bcd60e51b815260040161005b90610413565b876001600160a01b03168a6001600160a01b03167fd345f135a30e3a371a4963a7cdd88efec4c48f185d8656a879ad6f40b7f76610338c34866040516102bc94939291906103c3565b60405180910390a350506000805460ff191690555050505050505050565b6000602082840312156102eb578081fd5b81516102f68161051f565b9392505050565b600080600080600060a08688031215610314578081fd5b855161031f8161051f565b80955050602086015193506040860151925060608601519150608086015160ff8116811461034b578182fd5b809150509295509295909350565b6000806040838503121561036b578182fd5b82356103768161051f565b946020939093013593505050565b600082516103968184602087016104ef565b9190910192915050565b6001600160a01b0393841681526020810192909252909116604082015260600190565b600060018060a01b03861682528460208301528360408301526080606083015282518060808401526103fc8160a08501602087016104ef565b601f01601f19169190910160a00195945050505050565b602080825260139082015272105c989a5d1c985d1bdc881c995d995c9d1959606a1b604082015260600190565b60208082526028908201527f436f6e646974696f6e2073746174757320696e76616c696420666f722061726260408201526734ba3930ba34b7b760c11b606082015260800190565b6020808252818101527f41726269747261746f722063616e2774206265207a65726f2061646472657373604082015260600190565b6020808252600f908201526e1c99595b9d1c985b98de51dd585c99608a1b604082015260600190565b90815260200190565b60005b8381101561050a5781810151838201526020016104f2565b83811115610519576000848401525b50505050565b6001600160a01b038116811461053457600080fd5b5056fea2646970667358221220107f126c8ab3f6dfd086258235b3b833d547cd3bbbbad337b359cf6b0cb3285e64736f6c63430008000033",
  "linkReferences": {},
  "deployedLinkReferences": {}
}