{
  "_format": "hh-sol-artifact-1",
  "contractName": "WriterSolverV1",
  "sourceName": "contracts/WriterSolverV1.sol",
  "abi": [
    {
      "anonymous": false,
      "inputs": [
        {
          "indexed": false,
          "internalType": "bytes32",
          "name": "conditionId",
          "type": "bytes32"
        }
      ],
      "name": "ChangedStatus",
      "type": "event"
    },
    {
      "anonymous": false,
      "inputs": [
        {
          "indexed": false,
          "internalType": "bytes32",
          "name": "conditionId",
          "type": "bytes32"
        }
      ],
      "name": "DeliveredNullArbitration",
      "type": "event"
    },
    {
      "anonymous": false,
      "inputs": [
        {
          "indexed": false,
          "internalType": "address",
          "name": "child",
          "type": "address"
        }
      ],
      "name": "DeployedChild",
      "type": "event"
    },
    {
      "anonymous": false,
      "inputs": [],
      "name": "IngestedData",
      "type": "event"
    },
    {
      "anonymous": false,
      "inputs": [
        {
          "indexed": false,
          "internalType": "address",
          "name": "solver",
          "type": "address"
        },
        {
          "indexed": false,
          "internalType": "uint256",
          "name": "solveIndex",
          "type": "uint256"
        }
      ],
      "name": "PreparedSolve",
      "type": "event"
    },
    {
      "anonymous": false,
      "inputs": [
        {
          "indexed": false,
          "internalType": "string",
          "name": "cid",
          "type": "string"
        },
        {
          "indexed": false,
          "internalType": "address",
          "name": "sender",
          "type": "address"
        },
        {
          "indexed": false,
          "internalType": "bytes32",
          "name": "conditionId",
          "type": "bytes32"
        }
      ],
      "name": "SentMessage",
      "type": "event"
    },
    {
      "anonymous": false,
      "inputs": [
        {
          "indexed": false,
          "internalType": "string",
          "name": "cid",
          "type": "string"
        },
        {
          "indexed": false,
          "internalType": "address",
          "name": "submitter",
          "type": "address"
        },
        {
          "indexed": false,
          "internalType": "bytes32",
          "name": "conditionId",
          "type": "bytes32"
        }
      ],
      "name": "SubmittedWork",
      "type": "event"
    },
    {
      "inputs": [
        {
          "internalType": "bytes32",
          "name": "_slot",
          "type": "bytes32"
        },
        {
          "internalType": "bytes",
          "name": "_data",
          "type": "bytes"
        }
      ],
      "name": "addData",
      "outputs": [],
      "stateMutability": "nonpayable",
      "type": "function"
    },
    {
      "inputs": [
        {
          "internalType": "uint256",
          "name": "_index",
          "type": "uint256"
        }
      ],
      "name": "addressFromChainIndex",
      "outputs": [
        {
          "internalType": "address",
          "name": "_address",
          "type": "address"
        }
      ],
      "stateMutability": "view",
      "type": "function"
    },
    {
      "inputs": [
        {
          "internalType": "uint256",
          "name": "_index",
          "type": "uint256"
        }
      ],
      "name": "allocationsValid",
      "outputs": [
        {
          "internalType": "bool",
          "name": "",
          "type": "bool"
        }
      ],
      "stateMutability": "view",
      "type": "function"
    },
    {
      "inputs": [
        {
          "internalType": "uint256",
          "name": "_index",
          "type": "uint256"
        },
        {
          "internalType": "uint256[]",
          "name": "payouts",
          "type": "uint256[]"
        }
      ],
      "name": "arbitrate",
      "outputs": [],
      "stateMutability": "nonpayable",
      "type": "function"
    },
    {
      "inputs": [
        {
          "internalType": "uint256",
          "name": "_index",
          "type": "uint256"
        }
      ],
      "name": "arbitrateNull",
      "outputs": [],
      "stateMutability": "nonpayable",
      "type": "function"
    },
    {
      "inputs": [
        {
          "internalType": "uint256",
          "name": "_index",
          "type": "uint256"
        }
      ],
      "name": "arbitrationPending",
      "outputs": [],
      "stateMutability": "nonpayable",
      "type": "function"
    },
    {
      "inputs": [
        {
          "internalType": "uint256",
          "name": "_index",
          "type": "uint256"
        }
      ],
      "name": "arbitrationRequested",
      "outputs": [],
      "stateMutability": "nonpayable",
      "type": "function"
    },
    {
      "inputs": [],
      "name": "arbitrator",
      "outputs": [
        {
          "internalType": "address",
          "name": "",
          "type": "address"
        }
      ],
      "stateMutability": "view",
      "type": "function"
    },
    {
      "inputs": [],
      "name": "buyer",
      "outputs": [
        {
          "internalType": "address",
          "name": "",
          "type": "address"
        }
      ],
      "stateMutability": "view",
      "type": "function"
    },
    {
      "inputs": [],
      "name": "chainChild",
      "outputs": [
        {
          "internalType": "address",
          "name": "",
          "type": "address"
        }
      ],
      "stateMutability": "view",
      "type": "function"
    },
    {
      "inputs": [],
      "name": "chainIndex",
      "outputs": [
        {
          "internalType": "uint256",
          "name": "",
          "type": "uint256"
        }
      ],
      "stateMutability": "view",
      "type": "function"
    },
    {
      "inputs": [],
      "name": "chainParent",
      "outputs": [
        {
          "internalType": "address",
          "name": "",
          "type": "address"
        }
      ],
      "stateMutability": "view",
      "type": "function"
    },
    {
      "inputs": [],
      "name": "collateralBalance",
      "outputs": [
        {
          "internalType": "uint256",
          "name": "balance",
          "type": "uint256"
        }
      ],
      "stateMutability": "view",
      "type": "function"
    },
    {
      "inputs": [
        {
          "internalType": "uint256",
          "name": "",
          "type": "uint256"
        }
      ],
      "name": "conditions",
      "outputs": [
        {
          "internalType": "contract IERC20",
          "name": "collateralToken",
          "type": "address"
        },
        {
          "internalType": "bytes32",
          "name": "questionId",
          "type": "bytes32"
        },
        {
          "internalType": "bytes32",
          "name": "parentCollectionId",
          "type": "bytes32"
        },
        {
          "internalType": "bytes32",
          "name": "conditionId",
          "type": "bytes32"
        },
        {
          "internalType": "enum SolverLib.Status",
          "name": "status",
          "type": "uint8"
        }
      ],
      "stateMutability": "view",
      "type": "function"
    },
    {
      "inputs": [],
      "name": "config",
      "outputs": [
        {
          "internalType": "contract Solver",
          "name": "implementation",
          "type": "address"
        },
        {
          "internalType": "address",
          "name": "keeper",
          "type": "address"
        },
        {
          "internalType": "address",
          "name": "arbitrator",
          "type": "address"
        },
        {
          "internalType": "uint256",
          "name": "timelockSeconds",
          "type": "uint256"
        },
        {
          "internalType": "bytes",
          "name": "data",
          "type": "bytes"
        },
        {
          "components": [
            {
              "internalType": "contract IERC20",
              "name": "collateralToken",
              "type": "address"
            },
            {
              "internalType": "uint256",
              "name": "outcomeSlots",
              "type": "uint256"
            },
            {
              "internalType": "uint256",
              "name": "parentCollectionIndexSet",
              "type": "uint256"
            },
            {
              "internalType": "bytes32",
              "name": "amountSlot",
              "type": "bytes32"
            },
            {
              "internalType": "uint256[]",
              "name": "partition",
              "type": "uint256[]"
            },
            {
              "components": [
                {
                  "internalType": "bytes32",
                  "name": "recipientAddressSlot",
                  "type": "bytes32"
                },
                {
                  "internalType": "bytes32[]",
                  "name": "recipientAmountSlots",
                  "type": "bytes32[]"
                }
              ],
              "internalType": "struct SolverLib.Allocation[]",
              "name": "allocations",
              "type": "tuple[]"
            },
            {
              "components": [
                {
                  "internalType": "bytes32",
                  "name": "digest",
                  "type": "bytes32"
                },
                {
                  "internalType": "uint8",
                  "name": "hashFunction",
                  "type": "uint8"
                },
                {
                  "internalType": "uint8",
                  "name": "size",
                  "type": "uint8"
                }
              ],
              "internalType": "struct SolverLib.Multihash[]",
              "name": "outcomeURIs",
              "type": "tuple[]"
            }
          ],
          "internalType": "struct SolverLib.ConditionBase",
          "name": "conditionBase",
          "type": "tuple"
        }
      ],
      "stateMutability": "view",
      "type": "function"
    },
    {
      "inputs": [
        {
          "internalType": "uint256",
          "name": "_index",
          "type": "uint256"
        }
      ],
      "name": "confirmPayouts",
      "outputs": [],
      "stateMutability": "nonpayable",
      "type": "function"
    },
    {
      "inputs": [
        {
          "components": [
            {
              "internalType": "contract Solver",
              "name": "implementation",
              "type": "address"
            },
            {
              "internalType": "address",
              "name": "keeper",
              "type": "address"
            },
            {
              "internalType": "address",
              "name": "arbitrator",
              "type": "address"
            },
            {
              "internalType": "uint256",
              "name": "timelockSeconds",
              "type": "uint256"
            },
            {
              "internalType": "bytes",
              "name": "data",
              "type": "bytes"
            },
            {
              "components": [
                {
                  "internalType": "uint256",
                  "name": "executions",
                  "type": "uint256"
                },
                {
                  "internalType": "enum SolverLib.IngestType",
                  "name": "ingestType",
                  "type": "uint8"
                },
                {
                  "internalType": "bytes32",
                  "name": "slot",
                  "type": "bytes32"
                },
                {
                  "internalType": "uint256",
                  "name": "solverIndex",
                  "type": "uint256"
                },
                {
                  "internalType": "bytes",
                  "name": "data",
                  "type": "bytes"
                }
              ],
              "internalType": "struct SolverLib.Ingest[]",
              "name": "ingests",
              "type": "tuple[]"
            },
            {
              "components": [
                {
                  "internalType": "contract IERC20",
                  "name": "collateralToken",
                  "type": "address"
                },
                {
                  "internalType": "uint256",
                  "name": "outcomeSlots",
                  "type": "uint256"
                },
                {
                  "internalType": "uint256",
                  "name": "parentCollectionIndexSet",
                  "type": "uint256"
                },
                {
                  "internalType": "bytes32",
                  "name": "amountSlot",
                  "type": "bytes32"
                },
                {
                  "internalType": "uint256[]",
                  "name": "partition",
                  "type": "uint256[]"
                },
                {
                  "components": [
                    {
                      "internalType": "bytes32",
                      "name": "recipientAddressSlot",
                      "type": "bytes32"
                    },
                    {
                      "internalType": "bytes32[]",
                      "name": "recipientAmountSlots",
                      "type": "bytes32[]"
                    }
                  ],
                  "internalType": "struct SolverLib.Allocation[]",
                  "name": "allocations",
                  "type": "tuple[]"
                },
                {
                  "components": [
                    {
                      "internalType": "bytes32",
                      "name": "digest",
                      "type": "bytes32"
                    },
                    {
                      "internalType": "uint8",
                      "name": "hashFunction",
                      "type": "uint8"
                    },
                    {
                      "internalType": "uint8",
                      "name": "size",
                      "type": "uint8"
                    }
                  ],
                  "internalType": "struct SolverLib.Multihash[]",
                  "name": "outcomeURIs",
                  "type": "tuple[]"
                }
              ],
              "internalType": "struct SolverLib.ConditionBase",
              "name": "conditionBase",
              "type": "tuple"
            }
          ],
          "internalType": "struct SolverLib.Config",
          "name": "_config",
          "type": "tuple"
        }
      ],
      "name": "deployChild",
      "outputs": [
        {
          "internalType": "address",
          "name": "",
          "type": "address"
        }
      ],
      "stateMutability": "nonpayable",
      "type": "function"
    },
    {
      "inputs": [
        {
          "internalType": "uint256",
          "name": "_index",
          "type": "uint256"
        }
      ],
      "name": "executeSolve",
      "outputs": [],
      "stateMutability": "nonpayable",
      "type": "function"
    },
    {
      "inputs": [
        {
          "internalType": "bytes32",
          "name": "_slot",
          "type": "bytes32"
        }
      ],
      "name": "getAllData",
      "outputs": [
        {
          "internalType": "bytes[]",
          "name": "data",
          "type": "bytes[]"
        }
      ],
      "stateMutability": "view",
      "type": "function"
    },
    {
      "inputs": [
        {
          "internalType": "bytes32",
          "name": "_slot",
          "type": "bytes32"
        }
      ],
      "name": "getCallbackOutput",
      "outputs": [
        {
          "internalType": "bytes",
          "name": "data",
          "type": "bytes"
        }
      ],
      "stateMutability": "view",
      "type": "function"
    },
    {
      "inputs": [],
      "name": "getConditions",
      "outputs": [
        {
          "components": [
            {
              "internalType": "contract IERC20",
              "name": "collateralToken",
              "type": "address"
            },
            {
              "internalType": "bytes32",
              "name": "questionId",
              "type": "bytes32"
            },
            {
              "internalType": "bytes32",
              "name": "parentCollectionId",
              "type": "bytes32"
            },
            {
              "internalType": "bytes32",
              "name": "conditionId",
              "type": "bytes32"
            },
            {
              "internalType": "uint256[]",
              "name": "payouts",
              "type": "uint256[]"
            },
            {
              "internalType": "enum SolverLib.Status",
              "name": "status",
              "type": "uint8"
            }
          ],
          "internalType": "struct SolverLib.Condition[]",
          "name": "",
          "type": "tuple[]"
        }
      ],
      "stateMutability": "view",
      "type": "function"
    },
    {
      "inputs": [],
      "name": "getConfig",
      "outputs": [
        {
          "components": [
            {
              "internalType": "contract Solver",
              "name": "implementation",
              "type": "address"
            },
            {
              "internalType": "address",
              "name": "keeper",
              "type": "address"
            },
            {
              "internalType": "address",
              "name": "arbitrator",
              "type": "address"
            },
            {
              "internalType": "uint256",
              "name": "timelockSeconds",
              "type": "uint256"
            },
            {
              "internalType": "bytes",
              "name": "data",
              "type": "bytes"
            },
            {
              "components": [
                {
                  "internalType": "uint256",
                  "name": "executions",
                  "type": "uint256"
                },
                {
                  "internalType": "enum SolverLib.IngestType",
                  "name": "ingestType",
                  "type": "uint8"
                },
                {
                  "internalType": "bytes32",
                  "name": "slot",
                  "type": "bytes32"
                },
                {
                  "internalType": "uint256",
                  "name": "solverIndex",
                  "type": "uint256"
                },
                {
                  "internalType": "bytes",
                  "name": "data",
                  "type": "bytes"
                }
              ],
              "internalType": "struct SolverLib.Ingest[]",
              "name": "ingests",
              "type": "tuple[]"
            },
            {
              "components": [
                {
                  "internalType": "contract IERC20",
                  "name": "collateralToken",
                  "type": "address"
                },
                {
                  "internalType": "uint256",
                  "name": "outcomeSlots",
                  "type": "uint256"
                },
                {
                  "internalType": "uint256",
                  "name": "parentCollectionIndexSet",
                  "type": "uint256"
                },
                {
                  "internalType": "bytes32",
                  "name": "amountSlot",
                  "type": "bytes32"
                },
                {
                  "internalType": "uint256[]",
                  "name": "partition",
                  "type": "uint256[]"
                },
                {
                  "components": [
                    {
                      "internalType": "bytes32",
                      "name": "recipientAddressSlot",
                      "type": "bytes32"
                    },
                    {
                      "internalType": "bytes32[]",
                      "name": "recipientAmountSlots",
                      "type": "bytes32[]"
                    }
                  ],
                  "internalType": "struct SolverLib.Allocation[]",
                  "name": "allocations",
                  "type": "tuple[]"
                },
                {
                  "components": [
                    {
                      "internalType": "bytes32",
                      "name": "digest",
                      "type": "bytes32"
                    },
                    {
                      "internalType": "uint8",
                      "name": "hashFunction",
                      "type": "uint8"
                    },
                    {
                      "internalType": "uint8",
                      "name": "size",
                      "type": "uint8"
                    }
                  ],
                  "internalType": "struct SolverLib.Multihash[]",
                  "name": "outcomeURIs",
                  "type": "tuple[]"
                }
              ],
              "internalType": "struct SolverLib.ConditionBase",
              "name": "conditionBase",
              "type": "tuple"
            }
          ],
          "internalType": "struct SolverLib.Config",
          "name": "",
          "type": "tuple"
        }
      ],
      "stateMutability": "view",
      "type": "function"
    },
    {
      "inputs": [
        {
          "internalType": "bytes32",
          "name": "_slot",
          "type": "bytes32"
        }
      ],
      "name": "getData",
      "outputs": [
        {
          "internalType": "bytes",
          "name": "data",
          "type": "bytes"
        }
      ],
      "stateMutability": "view",
      "type": "function"
    },
    {
      "inputs": [
        {
          "internalType": "bytes32",
          "name": "slot",
          "type": "bytes32"
        }
      ],
      "name": "getOutgoingCallbacks",
      "outputs": [
        {
          "internalType": "address[]",
          "name": "",
          "type": "address[]"
        }
      ],
      "stateMutability": "view",
      "type": "function"
    },
    {
      "inputs": [
        {
          "internalType": "bytes32",
          "name": "_slot",
          "type": "bytes32"
        }
      ],
      "name": "handleCallback",
      "outputs": [],
      "stateMutability": "nonpayable",
      "type": "function"
    },
    {
      "inputs": [],
      "name": "ingestsValid",
      "outputs": [
        {
          "internalType": "bool",
          "name": "",
          "type": "bool"
        }
      ],
      "stateMutability": "view",
      "type": "function"
    },
    {
      "inputs": [
        {
          "internalType": "address",
          "name": "_deployer",
          "type": "address"
        },
        {
          "internalType": "address",
          "name": "_ctfAddress",
          "type": "address"
        },
        {
          "internalType": "address",
          "name": "_chainParent",
          "type": "address"
        },
        {
          "internalType": "uint256",
          "name": "_chainIndex",
          "type": "uint256"
        },
        {
          "components": [
            {
              "internalType": "contract Solver",
              "name": "implementation",
              "type": "address"
            },
            {
              "internalType": "address",
              "name": "keeper",
              "type": "address"
            },
            {
              "internalType": "address",
              "name": "arbitrator",
              "type": "address"
            },
            {
              "internalType": "uint256",
              "name": "timelockSeconds",
              "type": "uint256"
            },
            {
              "internalType": "bytes",
              "name": "data",
              "type": "bytes"
            },
            {
              "components": [
                {
                  "internalType": "uint256",
                  "name": "executions",
                  "type": "uint256"
                },
                {
                  "internalType": "enum SolverLib.IngestType",
                  "name": "ingestType",
                  "type": "uint8"
                },
                {
                  "internalType": "bytes32",
                  "name": "slot",
                  "type": "bytes32"
                },
                {
                  "internalType": "uint256",
                  "name": "solverIndex",
                  "type": "uint256"
                },
                {
                  "internalType": "bytes",
                  "name": "data",
                  "type": "bytes"
                }
              ],
              "internalType": "struct SolverLib.Ingest[]",
              "name": "ingests",
              "type": "tuple[]"
            },
            {
              "components": [
                {
                  "internalType": "contract IERC20",
                  "name": "collateralToken",
                  "type": "address"
                },
                {
                  "internalType": "uint256",
                  "name": "outcomeSlots",
                  "type": "uint256"
                },
                {
                  "internalType": "uint256",
                  "name": "parentCollectionIndexSet",
                  "type": "uint256"
                },
                {
                  "internalType": "bytes32",
                  "name": "amountSlot",
                  "type": "bytes32"
                },
                {
                  "internalType": "uint256[]",
                  "name": "partition",
                  "type": "uint256[]"
                },
                {
                  "components": [
                    {
                      "internalType": "bytes32",
                      "name": "recipientAddressSlot",
                      "type": "bytes32"
                    },
                    {
                      "internalType": "bytes32[]",
                      "name": "recipientAmountSlots",
                      "type": "bytes32[]"
                    }
                  ],
                  "internalType": "struct SolverLib.Allocation[]",
                  "name": "allocations",
                  "type": "tuple[]"
                },
                {
                  "components": [
                    {
                      "internalType": "bytes32",
                      "name": "digest",
                      "type": "bytes32"
                    },
                    {
                      "internalType": "uint8",
                      "name": "hashFunction",
                      "type": "uint8"
                    },
                    {
                      "internalType": "uint8",
                      "name": "size",
                      "type": "uint8"
                    }
                  ],
                  "internalType": "struct SolverLib.Multihash[]",
                  "name": "outcomeURIs",
                  "type": "tuple[]"
                }
              ],
              "internalType": "struct SolverLib.ConditionBase",
              "name": "conditionBase",
              "type": "tuple"
            }
          ],
          "internalType": "struct SolverLib.Config",
          "name": "_solverConfig",
          "type": "tuple"
        }
      ],
      "name": "init",
      "outputs": [],
      "stateMutability": "nonpayable",
      "type": "function"
    },
    {
      "inputs": [
        {
          "internalType": "address",
          "name": "operator",
          "type": "address"
        },
        {
          "internalType": "address",
          "name": "from",
          "type": "address"
        },
        {
          "internalType": "uint256[]",
          "name": "ids",
          "type": "uint256[]"
        },
        {
          "internalType": "uint256[]",
          "name": "values",
          "type": "uint256[]"
        },
        {
          "internalType": "bytes",
          "name": "data",
          "type": "bytes"
        }
      ],
      "name": "onERC1155BatchReceived",
      "outputs": [
        {
          "internalType": "bytes4",
          "name": "",
          "type": "bytes4"
        }
      ],
      "stateMutability": "nonpayable",
      "type": "function"
    },
    {
      "inputs": [
        {
          "internalType": "address",
          "name": "operator",
          "type": "address"
        },
        {
          "internalType": "address",
          "name": "from",
          "type": "address"
        },
        {
          "internalType": "uint256",
          "name": "id",
          "type": "uint256"
        },
        {
          "internalType": "uint256",
          "name": "value",
          "type": "uint256"
        },
        {
          "internalType": "bytes",
          "name": "data",
          "type": "bytes"
        }
      ],
      "name": "onERC1155Received",
      "outputs": [
        {
          "internalType": "bytes4",
          "name": "",
          "type": "bytes4"
        }
      ],
      "stateMutability": "nonpayable",
      "type": "function"
    },
    {
      "inputs": [
        {
          "internalType": "uint256",
          "name": "_index",
          "type": "uint256"
        }
      ],
      "name": "prepareSolve",
      "outputs": [],
      "stateMutability": "nonpayable",
      "type": "function"
    },
    {
      "inputs": [
        {
          "internalType": "uint256",
          "name": "_index",
          "type": "uint256"
        },
        {
          "internalType": "uint256[]",
          "name": "_payouts",
          "type": "uint256[]"
        }
      ],
      "name": "proposePayouts",
      "outputs": [],
      "stateMutability": "nonpayable",
      "type": "function"
    },
    {
      "inputs": [
        {
          "internalType": "contract IERC20",
          "name": "_collateralToken",
          "type": "address"
        },
        {
          "internalType": "bytes32",
          "name": "_parentCollectionId",
          "type": "bytes32"
        },
        {
          "internalType": "bytes32",
          "name": "_conditionId",
          "type": "bytes32"
        },
        {
          "internalType": "uint256[]",
          "name": "_indexSets",
          "type": "uint256[]"
        }
      ],
      "name": "redeemPosition",
      "outputs": [],
      "stateMutability": "nonpayable",
      "type": "function"
    },
    {
      "inputs": [
        {
          "internalType": "bytes32",
          "name": "_slot",
          "type": "bytes32"
        },
        {
          "internalType": "uint256",
          "name": "_chainIndex",
          "type": "uint256"
        }
      ],
      "name": "registerOutgoingCallback",
      "outputs": [],
      "stateMutability": "nonpayable",
      "type": "function"
    },
    {
      "inputs": [
        {
          "internalType": "string",
          "name": "cid",
          "type": "string"
        },
        {
          "internalType": "bytes32",
          "name": "conditionId",
          "type": "bytes32"
        }
      ],
      "name": "sendMessage",
      "outputs": [],
      "stateMutability": "nonpayable",
      "type": "function"
    },
    {
      "inputs": [
        {
          "internalType": "bytes32",
          "name": "_trackingId",
          "type": "bytes32"
        }
      ],
      "name": "setTrackingId",
      "outputs": [],
      "stateMutability": "nonpayable",
      "type": "function"
    },
    {
      "inputs": [
        {
          "internalType": "string",
          "name": "cid",
          "type": "string"
        },
        {
          "internalType": "bytes32",
          "name": "conditionId",
          "type": "bytes32"
        }
      ],
      "name": "submitWork",
      "outputs": [],
      "stateMutability": "nonpayable",
      "type": "function"
    },
    {
      "inputs": [
        {
          "internalType": "bytes4",
          "name": "interfaceId",
          "type": "bytes4"
        }
      ],
      "name": "supportsInterface",
      "outputs": [
        {
          "internalType": "bool",
          "name": "",
          "type": "bool"
        }
      ],
      "stateMutability": "view",
      "type": "function"
    },
    {
      "inputs": [
        {
          "internalType": "uint256",
          "name": "",
          "type": "uint256"
        }
      ],
      "name": "timelocks",
      "outputs": [
        {
          "internalType": "uint256",
          "name": "",
          "type": "uint256"
        }
      ],
      "stateMutability": "view",
      "type": "function"
    },
    {
      "inputs": [],
      "name": "trackingId",
      "outputs": [
        {
          "internalType": "bytes32",
          "name": "",
          "type": "bytes32"
        }
      ],
      "stateMutability": "view",
      "type": "function"
    },
    {
      "inputs": [],
      "name": "writer",
      "outputs": [
        {
          "internalType": "address",
          "name": "",
          "type": "address"
        }
      ],
      "stateMutability": "view",
      "type": "function"
    }
  ],
  "bytecode": "0x608060405234801561001057600080fd5b50615bea80620000216000396000f3fe608060405234801561001057600080fd5b50600436106101d85760003560e01c806301ffc9a7146101dd57806307c068b6146102065780630944e26e1461021b578063098b37f71461023b5780630d06101a1461025b5780630d7e149f1461026e5780630d8d39751461028e57806318782559146102a157806326c50007146102b45780633837b05e146102d85780633cd07f41146102eb5780633f4fb5aa146102fe57806344c3b6071461031e578063453a2abc1461033157806348cbb2fc146103395780634a77234e146103415780634dab5e69146103545780634e46f2231461036757806354f6127f1461037a57806355dd978b1461038d5780636cc6cde1146103955780637150d8ae1461039d57806379502c55146103a55780637c123627146103bf57806380b204b7146103d457806380c2dde2146103e75780638602ce1b146103ef57806387dfee57146104025780638bc3a08f146104155780639999250614610428578063b992db0f14610430578063bc197c8114610443578063c05bc73114610463578063c08d6f0114610476578063c3f909d414610496578063c98c05b7146104ab578063de3a23c5146104b3578063df33cc51146104c6578063ea8221a9146104d9578063f23a6e61146104e1575b600080fd5b6101f06101eb366004613a79565b6104f4565b6040516101fd919061483a565b60405180910390f35b610219610214366004613987565b610521565b005b61022e610229366004613c81565b61066a565b6040516101fd91906143a6565b61024e610249366004613987565b610787565b6040516101fd91906145dc565b610219610269366004613987565b6107f3565b61028161027c366004613987565b61082f565b6040516101fd9190614845565b61021961029c366004613987565b610850565b6102196102af366004613b13565b6109ba565b6102c76102c2366004613987565b610a54565b6040516101fd9594939291906148bd565b61022e6102e6366004613987565b610aa2565b6102196102f9366004613b7a565b610bd0565b61031161030c366004613987565b610c68565b6040516101fd9190614871565b6101f061032c366004613987565b610d64565b61022e610df4565b610281610e03565b61021961034f366004613987565b610e09565b610219610362366004613987565b6110e2565b610219610375366004613987565b6111bc565b610311610388366004613987565b611296565b61022e6112b6565b61022e6112c5565b61022e6112d4565b6103ad6112e3565b6040516101fd969594939291906148ef565b6103c761156e565b6040516101fd9190614689565b6102196103e2366004613cbb565b61169d565b61022e611804565b6102196103fd3660046139da565b611813565b610219610410366004613d04565b6118e8565b6102196104233660046137b8565b611aa1565b6101f0611c42565b61021961043e366004613987565b611cd6565b610456610451366004613834565b611eb6565b6040516101fd919061485c565b610219610471366004613b7a565b611eca565b610489610484366004613987565b611fab565b6040516101fd9190614629565b61049e612090565b6040516101fd9190614e9d565b6102816124a9565b6102196104c1366004613987565b61252a565b6102196104d4366004613a58565b61289c565b6102816129a7565b6104566104ef3660046138ee565b6129ad565b60006001600160e01b03198216630271189760e51b14806105195750610519826129c0565b90505b919050565b6005546001600160a01b031633146105545760405162461bcd60e51b815260040161054b90614c74565b60405180910390fd5b60036010828154811061057757634e487b7160e01b600052603260045260246000fd5b600091825260209091206006918202016005015460ff16908111156105ac57634e487b7160e01b600052602160045260246000fd5b146105c95760405162461bcd60e51b815260040161054b90614bc9565b73__$94d7d2f22770e4b0d1a2b99fb2812308e2$__63ec7ac2f06010838154811061060457634e487b7160e01b600052603260045260246000fd5b90600052602060002090600602016040518263ffffffff1660e01b815260040161062e9190614845565b60006040518083038186803b15801561064657600080fd5b505af415801561065a573d6000803e3d6000fd5b50505050610667816129d9565b50565b6004546000906001600160a01b031633146106975760405162461bcd60e51b815260040161054b90614dba565b6012546001600160a01b0316156106c05760405162461bcd60e51b815260040161054b906149fa565b6000546013546015546040516386a2d22760e01b815273__$94d7d2f22770e4b0d1a2b99fb2812308e2$__936386a2d2279361071293620100009092046001600160a01b0316928892906004016144e6565b60206040518083038186803b15801561072a57600080fd5b505af415801561073e573d6000803e3d6000fd5b505050506040513d601f19601f82011682018060405250810190610762919061379c565b601280546001600160a01b0319166001600160a01b0392831617908190551692915050565b6000818152601860209081526040918290208054835181840281018401909452808452606093928301828280156107e757602002820191906000526020600020905b81546001600160a01b031681526001909101906020018083116107c9575b50505050509050919050565b601554156108135760405162461bcd60e51b815260040161054b90614e0b565b6002546001600160a01b0316331461082a57600080fd5b601555565b6014818154811061083f57600080fd5b600091825260209091200154905081565b6014818154811061087157634e487b7160e01b600052603260045260246000fd5b9060005260206000200154421161089a5760405162461bcd60e51b815260040161054b90614b45565b6002601082815481106108bd57634e487b7160e01b600052603260045260246000fd5b600091825260209091206006918202016005015460ff16908111156108f257634e487b7160e01b600052602160045260246000fd5b1461090f5760405162461bcd60e51b815260040161054b90614cc5565b6001546010805473__$94d7d2f22770e4b0d1a2b99fb2812308e2$__926385c92867926001600160a01b03909116918590811061095c57634e487b7160e01b600052603260045260246000fd5b90600052602060002090600602016040518363ffffffff1660e01b8152600401610987929190614470565b60006040518083038186803b15801561099f57600080fd5b505af41580156109b3573d6000803e3d6000fd5b5050505050565b6004546001600160a01b031633146109e45760405162461bcd60e51b815260040161054b90614b20565b600154604051626dc0df60e21b81526001600160a01b03909116906301b7037c90610a1b9088908890889088908890600401614884565b600060405180830381600087803b158015610a3557600080fd5b505af1158015610a49573d6000803e3d6000fd5b505050505050505050565b60108181548110610a6457600080fd5b6000918252602090912060069091020180546001820154600283015460038401546005909401546001600160a01b0390931694509092909160ff1685565b6000601354821415610ab557503061051c565b601354821015610b4657601154604051631c1bd82f60e11b81526001600160a01b0390911690633837b05e90610aef908590600401614845565b60206040518083038186803b158015610b0757600080fd5b505afa158015610b1b573d6000803e3d6000fd5b505050506040513d601f19601f82011682018060405250810190610b3f919061379c565b905061051c565b60135482111561051c57601254604051631c1bd82f60e11b81526001600160a01b0390911690633837b05e90610b80908590600401614845565b60206040518083038186803b158015610b9857600080fd5b505afa158015610bac573d6000803e3d6000fd5b505050506040513d601f19601f82011682018060405250810190610519919061379c565b6004546001600160a01b0316331480610bf357506005546001600160a01b031633145b80610c085750601c546001600160a01b031633145b80610c1d5750601d546001600160a01b031633145b610c2657600080fd5b7f0a68dfc3d2deb2d1042207bd18d04cd94b7ae50b8dd6735129aff86f18bfa8cd83833384604051610c5b9493929190614949565b60405180910390a1505050565b6010546000828152601a602052604090205460609114610c9a5760405162461bcd60e51b815260040161054b90614c49565b6000828152601a602052604090208054610cb6906001906152f1565b81548110610cd457634e487b7160e01b600052603260045260246000fd5b906000526020600020018054610ce990615615565b80601f0160208091040260200160405190810160405280929190818152602001828054610d1590615615565b80156107e75780601f10610d37576101008083540402835291602001916107e7565b820191906000526020600020905b815481529060010190602001808311610d455750939695505050505050565b6040516336d39c6160e11b815260009073__$94d7d2f22770e4b0d1a2b99fb2812308e2$__90636da738c290610da4908590601a90600990600401614f77565b60206040518083038186803b158015610dbc57600080fd5b505af4158015610dd0573d6000803e3d6000fd5b505050506040513d601f19601f820116820180604052508101906105199190613967565b601c546001600160a01b031681565b60155481565b60105415610e50576004546001600160a01b0316331480610e3457506011546001600160a01b031633145b610e505760405162461bcd60e51b815260040161054b90614ddf565b6010548114610e715760405162461bcd60e51b815260040161054b90614ac9565b60175415610e915760405162461bcd60e51b815260040161054b90614d20565b60165415610eb15760405162461bcd60e51b815260040161054b90614d55565b6001546011546010805460405163699e0add60e01b8152919373__$94d7d2f22770e4b0d1a2b99fb2812308e2$__9363699e0add93610f03936001600160a01b039384169360099316916004016143ba565b60006040518083038186803b158015610f1b57600080fd5b505af4158015610f2f573d6000803e3d6000fd5b505050506040513d6000823e601f3d908101601f19168201604052610f579190810190613bc3565b8154600180820184556000938452602093849020835160069093020180546001600160a01b0319166001600160a01b03909316929092178255828401519082015560408201516002820155606082015160038201556080820151805192939192610fc792600485019201906134d1565b5060a082015160058201805460ff19166001836006811115610ff957634e487b7160e01b600052602160045260246000fd5b0217905550506014805460018101825560009182527fce6d7b5282bd9a3661ae061feed1dbda4e52ab073b1f9285be6e155d9c38d4ec01555061103a612a21565b7f152ec8ae15d347b2d2a8f0858caa29bcaaa0906749a1f43e08bfe79983460240308260405161106b929190614470565b60405180910390a16012546001600160a01b0316156106675760125460405163253b91a760e11b81526001600160a01b0390911690634a77234e906110b4908490600401614845565b600060405180830381600087803b1580156110ce57600080fd5b505af11580156109b3573d6000803e3d6000fd5b6005546001600160a01b0316331461110c5760405162461bcd60e51b815260040161054b90614c74565b60026010828154811061112f57634e487b7160e01b600052603260045260246000fd5b600091825260209091206006918202016005015460ff169081111561116457634e487b7160e01b600052602160045260246000fd5b146111815760405162461bcd60e51b815260040161054b90614cf3565b73__$94d7d2f22770e4b0d1a2b99fb2812308e2$__6324b286026010838154811061060457634e487b7160e01b600052603260045260246000fd5b6005546001600160a01b031633146111e65760405162461bcd60e51b815260040161054b90614c74565b60046010828154811061120957634e487b7160e01b600052603260045260246000fd5b600091825260209091206006918202016005015460ff169081111561123e57634e487b7160e01b600052602160045260246000fd5b1461125b5760405162461bcd60e51b815260040161054b90614d8a565b73__$94d7d2f22770e4b0d1a2b99fb2812308e2$__6359111fb56010838154811061060457634e487b7160e01b600052603260045260246000fd5b6000818152601a60205260409020805460609190610cb6906001906152f1565b6012546001600160a01b031681565b6005546001600160a01b031690565b601d546001600160a01b031681565b60038054600454600554600654600780546001600160a01b03958616969486169590931693919261131390615615565b80601f016020809104026020016040519081016040528092919081815260200182805461133f90615615565b801561138c5780601f106113615761010080835404028352916020019161138c565b820191906000526020600020905b81548152906001019060200180831161136f57829003601f168201915b50506040805160e0810182526006870180546001600160a01b03168252600788015460208084019190915260088901548385015260098901546060840152600a8901805485518184028101840190965280865298999893975091955060808701945090919083018282801561142057602002820191906000526020600020905b81548152602001906001019080831161140c575b5050505050815260200160058201805480602002602001604051908101604052809291908181526020016000905b828210156114e2578382906000526020600020906002020160405180604001604052908160008201548152602001600182018054806020026020016040519081016040528092919081815260200182805480156114ca57602002820191906000526020600020905b8154815260200190600101908083116114b6575b5050505050815250508152602001906001019061144e565b50505050815260200160068201805480602002602001604051908101604052809291908181526020016000905b8282101561156157600084815260209081902060408051606081018252600286029092018054835260019081015460ff808216858701526101009091041691830191909152908352909201910161150f565b5050505081525050905086565b60606010805480602002602001604051908101604052809291908181526020016000905b828210156116945760008481526020908190206040805160c0810182526006860290920180546001600160a01b03168352600181015483850152600281015483830152600381015460608401526004810180548351818702810187019094528084529394919360808601939283018282801561162d57602002820191906000526020600020905b815481526020019060010190808311611619575b5050509183525050600582015460209091019060ff16600681111561166257634e487b7160e01b600052602160045260246000fd5b600681111561168157634e487b7160e01b600052602160045260246000fd5b8152505081526020019060010190611592565b50505050905090565b6004546001600160a01b031633146116c75760405162461bcd60e51b815260040161054b90614b20565b600a5481146116e85760405162461bcd60e51b815260040161054b90614a24565b60016010848154811061170b57634e487b7160e01b600052603260045260246000fd5b600091825260209091206006918202016005015460ff169081111561174057634e487b7160e01b600052602160045260246000fd5b1461175d5760405162461bcd60e51b815260040161054b90614a6a565b73__$94d7d2f22770e4b0d1a2b99fb2812308e2$__636a0a24f16010858154811061179857634e487b7160e01b600052603260045260246000fd5b906000526020600020906006020184846040518463ffffffff1660e01b81526004016117c693929190614e83565b60006040518083038186803b1580156117de57600080fd5b505af41580156117f2573d6000803e3d6000fd5b505050506117ff836129d9565b505050565b6011546001600160a01b031681565b6004546001600160a01b0316331461183d5760405162461bcd60e51b815260040161054b906149a9565b6000828152601b60205260409020546008805460039290811061187057634e487b7160e01b600052603260045260246000fd5b600091825260209091206001600590920201015460ff1660038111156118a657634e487b7160e01b600052602160045260246000fd5b146118c35760405162461bcd60e51b815260040161054b90614979565b6118cd8282612ceb565b604051600080516020615b9583398151915290600090a15050565b6005546001600160a01b031633146119125760405162461bcd60e51b815260040161054b90614c74565b60046010838154811061193557634e487b7160e01b600052603260045260246000fd5b600091825260209091206006918202016005015460ff169081111561196a57634e487b7160e01b600052602160045260246000fd5b146119875760405162461bcd60e51b815260040161054b90614d8a565b601482815481106119a857634e487b7160e01b600052603260045260246000fd5b906000526020600020015442116119d15760405162461bcd60e51b815260040161054b90614b45565b600a548151146119f35760405162461bcd60e51b815260040161054b90614a24565b6001546010805473__$94d7d2f22770e4b0d1a2b99fb2812308e2$__92631b948e49926001600160a01b039091169186908110611a4057634e487b7160e01b600052603260045260246000fd5b9060005260206000209060060201846040518463ffffffff1660e01b8152600401611a6d93929190614489565b60006040518083038186803b158015611a8557600080fd5b505af4158015611a99573d6000803e3d6000fd5b505050505050565b600054610100900460ff1680611aba575060005460ff16155b611ad65760405162461bcd60e51b815260040161054b90614bfb565b600054610100900460ff16158015611b01576000805460ff1961ff0019909116610100171660011790555b6000611b136040840160208501613779565b6001600160a01b03161415611b3a5760405162461bcd60e51b815260040161054b90614c9d565b600280546001600160a01b03199081166001600160a01b03898116919091179092556000805462010000600160b01b031916336201000002179055600180548216888416179055601180549091169186169190911790556013839055816003611ba38282615866565b90505060005b611bb660a0840184614f8d565b9050811015611c285780601b6000611bd160a0870187614f8d565b85818110611bef57634e487b7160e01b600052603260045260246000fd5b9050602002810190611c019190615091565b60409081013582526020820192909252016000205580611c208161565d565b915050611ba9565b508015611a99576000805461ff0019169055505050505050565b601054604051635cc1f6b560e01b815260009173__$94d7d2f22770e4b0d1a2b99fb2812308e2$__91635cc1f6b591611c81916008919060040161472f565b60206040518083038186803b158015611c9957600080fd5b505af4158015611cad573d6000803e3d6000fd5b505050506040513d601f19601f82011682018060405250810190611cd19190613967565b905090565b611cde611c42565b1515600114611cff5760405162461bcd60e51b815260040161054b90614b74565b73__$94d7d2f22770e4b0d1a2b99fb2812308e2$__632dd4082482600160009054906101000a90046001600160a01b031660108581548110611d5157634e487b7160e01b600052603260045260246000fd5b60009182526020808320601554601154600c548652601a938490526040909520805460069095029092019460099491926001600160a01b03909116918b908110611dab57634e487b7160e01b600052603260045260246000fd5b906000526020600020018054611dc090615615565b80601f0160208091040260200160405190810160405280929190818152602001828054611dec90615615565b8015611e395780601f10611e0e57610100808354040283529160200191611e39565b820191906000526020600020905b815481529060010190602001808311611e1c57829003601f168201915b5050505050806020019051810190611e51919061399f565b6040518963ffffffff1660e01b8152600401611e74989796959493929190614f33565b60006040518083038186803b158015611e8c57600080fd5b505af4158015611ea0573d6000803e3d6000fd5b50505050611ead81612d62565b61066781612ffa565b63bc197c8160e01b98975050505050505050565b601c546001600160a01b03163314611ef45760405162461bcd60e51b815260040161054b90614afb565b600160108054611f06906001906152f1565b81548110611f2457634e487b7160e01b600052603260045260246000fd5b600091825260209091206006918202016005015460ff1690811115611f5957634e487b7160e01b600052602160045260246000fd5b14611f765760405162461bcd60e51b815260040161054b90614e61565b7f7399fd48fdfaf111111c20e282a8837c6803b6631b3b7b5e30b3b97d682d21b683833384604051610c5b9493929190614949565b6000818152601a60209081526040808320805482518185028101850190935280835260609492939192909184015b82821015612085578382906000526020600020018054611ff890615615565b80601f016020809104026020016040519081016040528092919081815260200182805461202490615615565b80156120715780601f1061204657610100808354040283529160200191612071565b820191906000526020600020905b81548152906001019060200180831161205457829003601f168201915b505050505081526020019060010190611fd9565b505050509050919050565b61209861351c565b6040805160e081018252600380546001600160a01b0390811683526004548116602084015260055416928201929092526006546060820152600780549192916080840191906120e690615615565b80601f016020809104026020016040519081016040528092919081815260200182805461211290615615565b801561215f5780601f106121345761010080835404028352916020019161215f565b820191906000526020600020905b81548152906001019060200180831161214257829003601f168201915b5050505050815260200160058201805480602002602001604051908101604052809291908181526020016000905b828210156122c457838290600052602060002090600502016040518060a0016040529081600082015481526020016001820160009054906101000a900460ff1660038111156121ec57634e487b7160e01b600052602160045260246000fd5b600381111561220b57634e487b7160e01b600052602160045260246000fd5b8152602001600282015481526020016003820154815260200160048201805461223390615615565b80601f016020809104026020016040519081016040528092919081815260200182805461225f90615615565b80156122ac5780601f10612281576101008083540402835291602001916122ac565b820191906000526020600020905b81548152906001019060200180831161228f57829003601f168201915b5050505050815250508152602001906001019061218d565b505050908252506040805160e0810182526006840180546001600160a01b03168252600785015460208381019190915260088601548385015260098601546060840152600a86018054855181840281018401909652808652958201959394929360808601939283018282801561235957602002820191906000526020600020905b815481526020019060010190808311612345575b5050505050815260200160058201805480602002602001604051908101604052809291908181526020016000905b8282101561241b5783829060005260206000209060020201604051806040016040529081600082015481526020016001820180548060200260200160405190810160405280929190818152602001828054801561240357602002820191906000526020600020905b8154815260200190600101908083116123ef575b50505050508152505081526020019060010190612387565b50505050815260200160068201805480602002602001604051908101604052809291908181526020016000905b8282101561249a57600084815260209081902060408051606081018252600286029092018054835260019081015460ff8082168587015261010090910416918301919091529083529092019101612448565b50505091525050905250905090565b6009546040516370a0823160e01b81526000916001600160a01b0316906370a08231906124da9030906004016143a6565b60206040518083038186803b1580156124f257600080fd5b505afa158015612506573d6000803e3d6000fd5b505050506040513d601f19601f82011682018060405250810190611cd1919061399f565b6000338260405160200161253f929190614389565b60408051601f19818403018152918152815160209283012060008181526019909352912054600880549293506125a592909190811061258e57634e487b7160e01b600052603260045260246000fd5b906000526020600020906005020160030154610aa2565b6001600160a01b0316336001600160a01b0316146125d55760405162461bcd60e51b815260040161054b90614a9a565b60008181526019602052604081205460088054909190811061260757634e487b7160e01b600052603260045260246000fd5b600091825260209091206001600590920201015460ff16600381111561263d57634e487b7160e01b600052602160045260246000fd5b1461265a5760405162461bcd60e51b815260040161054b906149cd565b60008181526019602052604090205460088054909190811061268c57634e487b7160e01b600052603260045260246000fd5b6000918252602082206005909102018054916126a78361565d565b90915550506000818152601960205260409020546008805461285d929081106126e057634e487b7160e01b600052603260045260246000fd5b906000526020600020906005020160020154336001600160a01b0316633f4fb5aa600360050160166003016000878152602001908152602001600020548154811061273b57634e487b7160e01b600052603260045260246000fd5b9060005260206000209060050201600401805461275790615615565b80601f016020809104026020016040519081016040528092919081815260200182805461278390615615565b80156127d05780601f106127a5576101008083540402835291602001916127d0565b820191906000526020600020905b8154815290600101906020018083116127b357829003601f168201915b50505050508060200190518101906127e8919061399f565b6040518263ffffffff1660e01b81526004016128049190614845565b60006040518083038186803b15801561281c57600080fd5b505afa158015612830573d6000803e3d6000fd5b505050506040513d6000823e601f3d908101601f191682016040526128589190810190613aa1565b612ceb565b6000818152601960205260408120819055601680549161287c836155fe565b9091555050604051600080516020615b9583398151915290600090a15050565b6128a581610aa2565b6001600160a01b0316336001600160a01b0316146128d55760405162461bcd60e51b815260040161054b90614a9a565b6000828152601a60205260409020541580159061290157506010546000838152601a6020526040902054145b156129605760405163de3a23c560e01b8152339063de3a23c590612929908590600401614845565b600060405180830381600087803b15801561294357600080fd5b505af1158015612957573d6000803e3d6000fd5b505050506129a3565b6000828152601860209081526040822080546001810182559083529082200180546001600160a01b03191633179055601780549161299d8361565d565b91905055505b5050565b60135481565b63f23a6e6160e01b5b9695505050505050565b6001600160e01b031981166301ffc9a760e01b14919050565b6006546129e79060016152d2565b6129f190426152ba565b60148281548110612a1257634e487b7160e01b600052603260045260246000fd5b60009182526020909120015550565b60005b600854811015612cd15760006008805483908110612a5257634e487b7160e01b600052603260045260246000fd5b600091825260209091206001600590920201015460ff166003811115612a8857634e487b7160e01b600052602160045260246000fd5b14612acc57612ac760036005018281548110612ab457634e487b7160e01b600052603260045260246000fd5b9060005260206000209060050201613151565b612cbf565b6000306001600160a01b0316633837b05e60036005018481548110612b0157634e487b7160e01b600052603260045260246000fd5b9060005260206000209060050201600301546040518263ffffffff1660e01b8152600401612b2f9190614845565b60206040518083038186803b158015612b4757600080fd5b505afa158015612b5b573d6000803e3d6000fd5b505050506040513d601f19601f82011682018060405250810190612b7f919061379c565b9050612b8b8183613245565b806001600160a01b031663df33cc5160036005018481548110612bbe57634e487b7160e01b600052603260045260246000fd5b90600052602060002090600502016004018054612bda90615615565b80601f0160208091040260200160405190810160405280929190818152602001828054612c0690615615565b8015612c535780601f10612c2857610100808354040283529160200191612c53565b820191906000526020600020905b815481529060010190602001808311612c3657829003601f168201915b5050505050806020019051810190612c6b919061399f565b6013546040518363ffffffff1660e01b8152600401612c8b92919061484e565b600060405180830381600087803b158015612ca557600080fd5b505af1158015612cb9573d6000803e3d6000fd5b50505050505b80612cc98161565d565b915050612a24565b50604051600080516020615b9583398151915290600090a1565b601054612cfa906001906152f1565b6000838152601a602052604090205414612d265760405162461bcd60e51b815260040161054b90614e33565b6000828152601a6020908152604082208054600181018255908352918190208351612d58939190910191840190613579565b506129a382613369565b60008060036004018054612d7590615615565b80601f0160208091040260200160405190810160405280929190818152602001828054612da190615615565b8015612dee5780601f10612dc357610100808354040283529160200191612dee565b820191906000526020600020905b815481529060010190602001808311612dd157829003601f168201915b5050505050806020019051810190612e0691906139b7565b6000828152601a6020526040902080549294509092509084908110612e3b57634e487b7160e01b600052603260045260246000fd5b906000526020600020018054612e5090615615565b80601f0160208091040260200160405190810160405280929190818152602001828054612e7c90615615565b8015612ec95780601f10612e9e57610100808354040283529160200191612ec9565b820191906000526020600020905b815481529060010190602001808311612eac57829003601f168201915b5050505050806020019051810190612ee1919061379c565b601c80546001600160a01b0319166001600160a01b03929092169190911790556000818152601a60205260409020805484908110612f2f57634e487b7160e01b600052603260045260246000fd5b906000526020600020018054612f4490615615565b80601f0160208091040260200160405190810160405280929190818152602001828054612f7090615615565b8015612fbd5780601f10612f9257610100808354040283529160200191612fbd565b820191906000526020600020905b815481529060010190602001808311612fa057829003601f168201915b5050505050806020019051810190612fd5919061379c565b601d80546001600160a01b0319166001600160a01b0392909216919091179055505050565b6012546001600160a01b0316158015906130955750601260009054906101000a90046001600160a01b03166001600160a01b031663999925066040518163ffffffff1660e01b815260040160206040518083038186803b15801561305d57600080fd5b505afa158015613071573d6000803e3d6000fd5b505050506040513d601f19601f820116820180604052508101906130959190613967565b801561311c57506012546040516344c3b60760e01b81526001600160a01b03909116906344c3b607906130cc908490600401614845565b60206040518083038186803b1580156130e457600080fd5b505afa1580156130f8573d6000803e3d6000fd5b505050506040513d601f19601f8201168201806040525081019061311c9190613967565b156106675760125460405163b992db0f60e01b81526001600160a01b039091169063b992db0f906110b4908490600401614845565b600181015460039060ff168181111561317a57634e487b7160e01b600052602160045260246000fd5b11156131985760405162461bcd60e51b815260040161054b90614b9d565b80548160006131a68361565d565b9091555060039050600182015460ff1660038111156131d557634e487b7160e01b600052602160045260246000fd5b1461066757610667816002015473__$94d7d2f22770e4b0d1a2b99fb2812308e2$__63b3d73707846040518263ffffffff1660e01b81526004016132199190614845565b60006040518083038186803b15801561323157600080fd5b505af4158015612830573d6000803e3d6000fd5b8060166003016000846003600501858154811061327257634e487b7160e01b600052603260045260246000fd5b9060005260206000209060050201600401805461328e90615615565b80601f01602080910402602001604051908101604052809291908181526020018280546132ba90615615565b80156133075780601f106132dc57610100808354040283529160200191613307565b820191906000526020600020905b8154815290600101906020018083116132ea57829003601f168201915b505050505080602001905181019061331f919061399f565b604051602001613330929190614389565b60408051601f19818403018152918152815160209283012083529082019290925201600090812091909155601680549161299d8361565d565b60005b6000828152601860205260409020548110156129a35760008281526018602052604081208054839081106133b057634e487b7160e01b600052603260045260246000fd5b6000918252602090912001546001600160a01b0316146134bf5760008281526018602052604090208054829081106133f857634e487b7160e01b600052603260045260246000fd5b60009182526020909120015460405163de3a23c560e01b81526001600160a01b039091169063de3a23c590613431908590600401614845565b600060405180830381600087803b15801561344b57600080fd5b505af115801561345f573d6000803e3d6000fd5b505050600083815260186020526040902080549091508290811061349357634e487b7160e01b600052603260045260246000fd5b6000918252602082200180546001600160a01b031916905560178054916134b9836155fe565b91905055505b806134c98161565d565b91505061336c565b82805482825590600052602060002090810192821561350c579160200282015b8281111561350c5782518255916020019190600101906134f1565b506135189291506135ec565b5090565b6040518060e0016040528060006001600160a01b0316815260200160006001600160a01b0316815260200160006001600160a01b03168152602001600081526020016060815260200160608152602001613574613601565b905290565b82805461358590615615565b90600052602060002090601f0160209004810192826135a7576000855561350c565b82601f106135c057805160ff191683800117855561350c565b8280016001018555821561350c579182018281111561350c5782518255916020019190600101906134f1565b5b8082111561351857600081556001016135ed565b6040518060e0016040528060006001600160a01b031681526020016000815260200160008152602001600080191681526020016060815260200160608152602001606081525090565b803561051c81615b63565b60008083601f840112613666578182fd5b5081356001600160401b0381111561367c578182fd5b602083019150836020808302850101111561369657600080fd5b9250929050565b600082601f8301126136ad578081fd5b815160206136c26136bd836150cf565b6150a6565b82815281810190858301838502870184018810156136de578586fd5b855b858110156136fc578151845292840192908401906001016136e0565b5090979650505050505050565b60008083601f84011261371a578182fd5b5081356001600160401b03811115613730578182fd5b60208301915083602082850101111561369657600080fd5b805161051c81615b63565b80516007811061051c57600080fd5b600060e08284031215613773578081fd5b50919050565b60006020828403121561378a578081fd5b813561379581615b63565b9392505050565b6000602082840312156137ad578081fd5b815161379581615b63565b600080600080600060a086880312156137cf578081fd5b85356137da81615b63565b945060208601356137ea81615b63565b935060408601356137fa81615b63565b92506060860135915060808601356001600160401b0381111561381b578182fd5b61382788828901613762565b9150509295509295909350565b60008060008060008060008060a0898b03121561384f578586fd5b883561385a81615b63565b9750602089013561386a81615b63565b965060408901356001600160401b0380821115613885578788fd5b6138918c838d01613655565b909850965060608b01359150808211156138a9578485fd5b6138b58c838d01613655565b909650945060808b01359150808211156138cd578384fd5b506138da8b828c01613709565b999c989b5096995094979396929594505050565b60008060008060008060a08789031215613906578384fd5b863561391181615b63565b9550602087013561392181615b63565b9450604087013593506060870135925060808701356001600160401b03811115613949578283fd5b61395589828a01613709565b979a9699509497509295939492505050565b600060208284031215613978578081fd5b81518015158114613795578182fd5b600060208284031215613998578081fd5b5035919050565b6000602082840312156139b0578081fd5b5051919050565b600080604083850312156139c9578182fd5b505080516020909101519092909150565b600080604083850312156139ec578182fd5b8235915060208301356001600160401b03811115613a08578182fd5b8301601f81018513613a18578182fd5b8035613a266136bd826150f2565b818152866020838501011115613a3a578384fd5b81602084016020830137908101602001929092525090939092509050565b60008060408385031215613a6a578182fd5b50508035926020909101359150565b600060208284031215613a8a578081fd5b81356001600160e01b031981168114613795578182fd5b600060208284031215613ab2578081fd5b81516001600160401b03811115613ac7578182fd5b8201601f81018413613ad7578182fd5b8051613ae56136bd826150f2565b818152856020838501011115613af9578384fd5b613b0a8260208301602086016155ce565b95945050505050565b600080600080600060808688031215613b2a578283fd5b8535613b3581615b63565b9450602086013593506040860135925060608601356001600160401b03811115613b5d578182fd5b613b6988828901613655565b969995985093965092949392505050565b600080600060408486031215613b8e578081fd5b83356001600160401b03811115613ba3578182fd5b613baf86828701613709565b909790965060209590950135949350505050565b600060208284031215613bd4578081fd5b81516001600160401b0380821115613bea578283fd5b9083019060c08286031215613bfd578283fd5b60405160c081018181108382111715613c1857613c186156ba565b604052613c2483613748565b8152602083015160208201526040830151604082015260608301516060820152608083015182811115613c55578485fd5b613c618782860161369d565b608083015250613c7360a08401613753565b60a082015295945050505050565b600060208284031215613c92578081fd5b81356001600160401b03811115613ca7578182fd5b613cb384828501613762565b949350505050565b600080600060408486031215613ccf578081fd5b8335925060208401356001600160401b03811115613ceb578182fd5b613cf786828701613655565b9497909650939450505050565b60008060408385031215613d16578182fd5b823591506020808401356001600160401b03811115613d33578283fd5b8401601f81018613613d43578283fd5b8035613d516136bd826150cf565b81815283810190838501858402850186018a1015613d6d578687fd5b8694505b83851015613d8f578035835260019490940193918501918501613d71565b5080955050505050509250929050565b6001600160a01b03169052565b81835260006001600160fb1b03831115613dc4578081fd5b6020830280836020870137939093016020019283525090919050565b6000815480845260208085018081965082840281019150858552828520855b85811015613e6b57828403895281548452604085850181905260018084018054928701839052895286892060608701929091908a905b80821015613e525783548552938901939282019290820190613e35565b5050509986019950935060029190910190600101613dff565b5091979650505050505050565b818352602080840193600091908185020181018584845b87811015613e6b5782840389528135609e19883603018112613eaf578687fd5b87018035855260a086820135613ec481615b78565b613ed088880182614154565b5060408281013590870152606080830135908701526080613ef381840184615258565b93508282890152613f0783890185836140fe565b9c89019c97505050928601925050600101613e8f565b6000815180845260208085018081965082840281019150828601855b85811015613e6b578284038952815160a08151865286820151613f5e88880182614154565b506040828101519087015260608083015190870152608091820151918601819052613f8b81870183614128565b9a87019a9550505090840190600101613f39565b60008284526020808501945082825b85811015613ff8578135875282820135613fc781615b85565b60ff9081168885015260409083820135613fe081615b85565b16908801526060968701969190910190600101613fae565b509495945050505050565b6000815180845260208085019450808401835b83811015613ff8578151805188528381015160ff908116858a0152604091820151169088015260609096019590820190600101614016565b6000815480845260208085019450838352808320835b83811015613ff8578154875260018083015460ff808216868b015260089190911c16604089015260609097019660029092019101614064565b6000815180845260208085019450808401835b83811015613ff8578151875295820195908201906001016140b0565b6000815480845260208085019450838352808320835b83811015613ff8578154875295820195600191820191016140e2565b60008284528282602086013780602084860101526020601f19601f85011685010190509392505050565b600081518084526141408160208601602086016155ce565b601f01601f19169290920160200192915050565b60048110614164576141646156a4565b9052565b60078110614164576141646156a4565b6000813561418581615b63565b6001600160a01b031683526020828101358185015260408084013581860152606080850135908601526141bb60808501856151ca565b60e060808801526141d060e088018284613dac565b9150506141e060a08601866151ca565b87830360a08901528083528483018582028401860183885b8481101561425757868303601f19018452813536879003603e1901811261421d578a8bfd5b86018035845261422f8a8201826151ca565b9150898b8601526142438a86018383613dac565b958b019594505050908801906001016141f8565b505061426660c08a018a615211565b9750955089810360c08b015261427d818888613f9f565b9a9950505050505050505050565b600060018060a01b038251168352602080830151818501526040808401518186015260608085015181870152608085015160e060808801526142d060e088018261409d565b905060a086015187820360a08901528181518084528684019150868782028501018784019350885b8281101561436057858203601f190184528451805183528901518983018990528051898401819052908a01908b90898501905b8083101561434b5783518252928c019260019290920191908c019061432b565b50968b0196958b0195935050506001016142f8565b5060c08a015197508a810360c08c015261437a8189614003565b9b9a5050505050505050505050565b60609290921b6001600160601b0319168252601482015260340190565b6001600160a01b0391909116815260200190565b600060018060a01b0386168252608060208301526143e4608083016143df8754615308565b613d9f565b600185015460a0830152600285015460c0830152600385015460e083015260e061010083015261441b6101608301600487016140cc565b607f1980848303016101208501526144368260058901613de0565b9150808483030161014085015250614451816006880161404e565b9150506144616040830185613d9f565b82606083015295945050505050565b6001600160a01b03929092168252602082015260400190565b6001600160a01b038416815260208082018490526060604083018190528351908301819052600091848101916080850190845b818110156144d8578451835293830193918301916001016144bc565b509098975050505050505050565b6001600160a01b0385168152608060208201526000843561450681615b63565b6145136080840182613d9f565b506145206020860161364a565b61452d60a0840182613d9f565b5061453a6040860161364a565b61454760c0840182613d9f565b50606085013560e083015261455f6080860186615258565b60e0610100850152614576610160850182846140fe565b91505061458660a08701876151ca565b607f19808685030161012087015261459f848385613e78565b93506145ae60c08a018a61529c565b9250808685030161014087015250506145c78282614178565b60408501969096525050506060015292915050565b6020808252825182820181905260009190848201906040850190845b8181101561461d5783516001600160a01b0316835292840192918401916001016145f8565b50909695505050505050565b6000602080830181845280855180835260408601915060408482028701019250838701855b8281101561467c57603f1988860301845261466a858351614128565b9450928501929085019060010161464e565b5092979650505050505050565b60208082528251828201819052600091906040908185019080840286018301878501865b838110156144d857888303603f19018552815180516001600160a01b03168452878101518885015286810151878501526060808201519085015260808082015160c082870181905291906147038388018261409d565b9250505060a080830151925061471b81870184614168565b5095880195935050908601906001016146ad565b60006040820160408352808554808352606092508285019150602083818302870101888652818620865b8481101561482857605f1989840301865260a082548452600160ff818501541661478587870182614154565b5060028401546040860152600384015489860152600484018260808701528a81546147af81615615565b94880185905260c09481851680156147ce57600181146147e25761480d565b60ff1983168a88015260e08a01935061480d565b848f528a8f208f5b838110156148055781548c82018a0152908701908c016147ea565b8b0188019450505b50505098870198955050506005929092019150600101614759565b50509501959095525091949350505050565b901515815260200190565b90815260200190565b918252602082015260400190565b6001600160e01b031991909116815260200190565b6000602082526137956020830184614128565b600060018060a01b0387168252856020830152846040830152608060608301526148b2608083018486613dac565b979650505050505050565b6001600160a01b038616815260208101859052604081018490526060810183905260a081016129b66080830184614168565b6001600160a01b0387811682528681166020830152851660408201526060810184905260c06080820181905260009061492a90830185614128565b82810360a084015261493c818561428b565b9998505050505050505050565b60006060825261495d6060830186886140fe565b6001600160a01b03949094166020830152506040015292915050565b6020808252601690820152751bdb9b1e48125b99d95cdd151e5c194b93585b9d585b60521b604082015260600190565b6020808252600a908201526927b7363ca5b2b2b832b960b11b604082015260600190565b602080825260139082015272496e67657374206e6f742043616c6c6261636b60681b604082015260600190565b60208082526010908201526f14dbdb1d995c881a185cc818da1a5b1960821b604082015260600190565b60208082526026908201527f7061796f7574732e6c656e677468206d757374206d61746368206f7574636f6d60408201526565536c6f747360d01b606082015260800190565b60208082526016908201527510dbdb991a5d1a5bdb881b9bdd08115e1958dd5d195960521b604082015260600190565b60208082526015908201527436b9b39739b2b73232b9103737ba1039b7b63b32b960591b604082015260600190565b602080825260189082015277496e76616c696420696e64657820746f207072657061726560401b604082015260600190565b6020808252600b908201526a27b7363c902bb934ba32b960a91b604082015260600190565b6020808252600b908201526a27b7363c9025b2b2b832b960a91b604082015260600190565b602080825260159082015274151a5b595b1bd8dac81cdd1a5b1b081b1bd8dad959605a1b604082015260600190565b6020808252600f908201526e1a5b99d95cdd1cc81a5b9d985b1a59608a1b604082015260600190565b602080825260129082015271496e76616c696420696e676573745479706560701b604082015260600190565b602080825260189082015277139bdd08105c989a5d1c985d1a5bdb94995c5d595cdd195960421b604082015260600190565b6020808252602e908201527f496e697469616c697a61626c653a20636f6e747261637420697320616c72656160408201526d191e481a5b9a5d1a585b1a5e995960921b606082015260800190565b60208082526011908201527029b637ba1034b73b30b634b2103b32b91760791b604082015260600190565b6020808252600f908201526e27b7363c9030b93134ba3930ba37b960891b604082015260600190565b6020808252600e908201526d12d9595c195c881a5b9d985b1a5960921b604082015260600190565b60208082526014908201527313dd5d18dbdb59481b9bdd081c1c9bdc1bdcd95960621b604082015260600190565b602080825260139082015272139bdd0813dd5d18dbdb59541c9bdc1bdcd959606a1b604082015260600190565b6020808252818101527f46756c66696c6c206f7574676f696e672063616c6c6261636b73206669727374604082015260600190565b6020808252818101527f46756c66696c6c20696e636f6d696e672063616c6c6261636b73206669727374604082015260600190565b6020808252601690820152754e6f74204172626974726174696f6e50656e64696e6760501b604082015260600190565b6020808252600b908201526a27b7363c9035b2b2b832b960a91b604082015260600190565b60208082526012908201527113db9b1e481ad9595c195c8bdc185c995b9d60721b604082015260600190565b6020808252600e908201526d151c9858dada5b99d259081cd95d60921b604082015260600190565b60208082526014908201527314db1bdd081d995c9cda5bdb881a5b9d985b1a5960621b604082015260600190565b602080825260089082015267111a5cd8589b195960c21b604082015260600190565b600084825260406020830152613b0a604083018486613dac565b60006020825260018060a01b03808451166020840152806020850151166040840152506040830151614ed26060840182613d9f565b5060608301516080830152608083015160e060a0840152614ef7610100840182614128565b905060a0840151601f19808584030160c0860152614f158383613f1d565b925060c08601519150808584030160e086015250613b0a828261428b565b9788526001600160a01b03968716602089015260408801959095526060870193909352608086019190915260a085015290911660c083015260e08201526101000190565b9283526020830191909152604082015260600190565b6000808335601e19843603018112614fa3578283fd5b8301803591506001600160401b03821115614fbc578283fd5b602090810192508102360382131561369657600080fd5b6000808335601e19843603018112614fe9578283fd5b8301803591506001600160401b03821115615002578283fd5b602001915060608102360382131561369657600080fd5b6000808335601e1984360301811261502f578283fd5b8301803591506001600160401b03821115615048578283fd5b60200191503681900382131561369657600080fd5b60008235603e19833603018112615072578182fd5b9190910192915050565b6000823560de19833603018112615072578182fd5b60008235609e19833603018112615072578182fd5b6040518181016001600160401b03811182821017156150c7576150c76156ba565b604052919050565b60006001600160401b038211156150e8576150e86156ba565b5060209081020190565b60006001600160401b0382111561510b5761510b6156ba565b50601f01601f191660200190565b60009081526020902090565b60208410801561517b57601f84116001811461514c57615145868561564a565b8355615175565b61515583615119565b61516a6020601f880104820160018301615314565b50615175868461572b565b506109b3565b8160005260206000206020601f8701048101601f871680156151a5576151a58160001984016156d0565b506151b86020601f880104830182615314565b50506001856002021782555050505050565b6000808335601e198436030181126151e0578283fd5b83016020810192503590506001600160401b038111156151ff57600080fd5b60208102360383131561369657600080fd5b6000808335601e19843603018112615227578283fd5b83016020810192503590506001600160401b0381111561524657600080fd5b60608102360383131561369657600080fd5b6000808335601e1984360301811261526e578283fd5b83016020810192503590506001600160401b0381111561528d57600080fd5b80360383131561369657600080fd5b6000823560de198336030181126152b1578182fd5b90910192915050565b600082198211156152cd576152cd61568e565b500190565b60008160001904831182151516156152ec576152ec61568e565b500290565b6000828210156153035761530361568e565b500390565b6001600160a01b031690565b5b818110156129a35760008155600101615315565b600160401b83111561533d5761533d6156ba565b8054838255808410156153c2576001600160ff1b0360018183118116156153665761536661568e565b600282871182161561537a5761537a61568e565b600085815260208120909350878202810190828602015b808210156153bc576153a585868454615749565b82556153b3858584016156e4565b90820190615391565b50505050505b50816153cd82615119565b6000805b86811015615403576153ed6153e6858861505d565b8385615a40565b60209390930192600292909201916001016153d1565b50505050505050565b600160401b831115615420576154206156ba565b80548382558084101561549f576001600160ff1b0360018183118116156154495761544961568e565b600282871182161561545d5761545d61568e565b600085815260208120909350878202810190828602015b808210156154995761548885868454615749565b825584848301558282019150615474565b50505050505b50816154aa82615119565b6000805b86811015615403576154c1848385615b08565b60609390930192600292909201916001016154ae565b6001600160401b038311156154ee576154ee6156ba565b6154f88154615615565b600080601f8611601f8411818117156155175761551486615119565b92505b8015615546576020601f890104830160208910156155325750825b6155446020601f880104850182615314565b505b50806001811461557257600094508715615561578387013594505b61556b888661564a565b86556155c4565b601f198816945082845b8681101561559c578886013582556020958601956001909201910161557c565b50888610156155b957878501356000196008601f8c16021c191681555b506001600289020186555b5050505050505050565b60005b838110156155e95781810151838201526020016155d1565b838111156155f8576000848401525b50505050565b60008161560d5761560d61568e565b506000190190565b60028104600182168061562957607f821691505b6020821081141561377357634e487b7160e01b600052602260045260246000fd5b600019600883021c191660029091021790565b60006000198214156156715761567161568e565b5060010190565b634e487b7160e01b600052600060045260246000fd5b634e487b7160e01b600052601160045260246000fd5b634e487b7160e01b600052602160045260246000fd5b634e487b7160e01b600052604160045260246000fd5b8054600019836020036008021c1681555050565b600160401b8211156156f8576156f86156ba565b8054828255808310156117ff576000828152602081208481019083015b80821015611a9957828255600182019150615715565b80600052602060002061573f83825461564a565b9091556000905550565b60089190910291821b60001990921b9182169119161790565b80546001600160a01b0319166001600160a01b0392909216919091179055565b813561578d81615b63565b6157978183615762565b506001602080840135828401556040840135600284015560608401356003840155600483016157c96080860186614f8d565b600160401b8111156157dd576157dd6156ba565b825481845580821015615802578360005284600020615800828201848301615314565b505b506000928352838320925b8181101561582857823584559285019291840191850161580d565b50505050505061583b60a0830183614f8d565b615849818360058601615329565b505061585860c0830183614fd3565b6155f881836006860161540c565b813561587181615b63565b61587b8183615762565b50600160208084013561588d81615b63565b61589981848601615762565b50600260408501356158aa81615b63565b6158b681838701615762565b50600360608601358186015560046158d16080880188615019565b6158de8183858b016154d7565b505060058087016158f260a08a018a614f8d565b600160401b811115615906576159066156ba565b8254818455808210156159da577f33333333333333333333333333333333333333333333333333333333333333338082118b16156159465761594661568e565b8083118b16156159585761595861568e565b506000848152898120838702810190878402015b808210156159d65761598083848454615749565b8255828d8301558a820161599684858354615749565b8155508982016159a884858354615749565b905581890180546159b881615615565b80156159ca576159ca86828486615125565b5050509087019061596c565b5050505b508196506159e783615119565b9550600094508492505b80831015615a1e57615a0d615a068884615091565b8688615a94565b9587019594830194918801916159f1565b5050505050505050506129a3615a3760c084018461507c565b60068301615782565b8115615a4e57615a4e615678565b8235815560018082016020615a6581870187614f8d565b615a6f81856156e4565b6000938452828420935b81811015610a49578235855593850193918301918501615a79565b8115615aa257615aa2615678565b82358155600181016020840135615ab881615b78565b60048110615ac857615ac86156a4565b60ff1982541660ff8216811783555050506040830135600282015560608301356003820155615afa6080840184615019565b6109b38183600486016154d7565b8115615b1657615b16615678565b82358155600181016020840135615b2c81615b85565b815460ff191660ff91909116178082556040850135615b4a81615b85565b61ff008160081b1661ff00198316178355505050505050565b6001600160a01b038116811461066757600080fd5b6004811061066757600080fd5b60ff8116811461066757600080fdfe71bd81ebe1d98a2944767394e76a9aff18724b2cf04e1db71254f804544b35c7a264697066735822122035593bb61337503eb9241c1a6dae58d1c9964a218e5e0606e03f2c18a8acfa9864736f6c63430008000033",
  "linkReferences": {
    "contracts/SolverLib.sol": {
      "SolverLib": [
        {
          "length": 20,
          "start": 1516
        },
        {
          "length": 20,
          "start": 1785
        },
        {
          "length": 20,
          "start": 2361
        },
        {
          "length": 20,
          "start": 3479
        },
        {
          "length": 20,
          "start": 3821
        },
        {
          "length": 20,
          "start": 4516
        },
        {
          "length": 20,
          "start": 4734
        },
        {
          "length": 20,
          "start": 6016
        },
        {
          "length": 20,
          "start": 6685
        },
        {
          "length": 20,
          "start": 7288
        },
        {
          "length": 20,
          "start": 7458
        },
        {
          "length": 20,
          "start": 12805
        }
      ]
    }
  },
  "deployedLinkReferences": {
    "contracts/SolverLib.sol": {
      "SolverLib": [
        {
          "length": 20,
          "start": 1483
        },
        {
          "length": 20,
          "start": 1752
        },
        {
          "length": 20,
          "start": 2328
        },
        {
          "length": 20,
          "start": 3446
        },
        {
          "length": 20,
          "start": 3788
        },
        {
          "length": 20,
          "start": 4483
        },
        {
          "length": 20,
          "start": 4701
        },
        {
          "length": 20,
          "start": 5983
        },
        {
          "length": 20,
          "start": 6652
        },
        {
          "length": 20,
          "start": 7255
        },
        {
          "length": 20,
          "start": 7425
        },
        {
          "length": 20,
          "start": 12772
        }
      ]
    }
  }
}