{
  "address": "0xeFaeb74654689F2C138D8bEDbAb8480Dbd0e69C3",
  "abi": [
    {
      "inputs": [],
      "stateMutability": "nonpayable",
      "type": "constructor"
    },
    {
      "anonymous": false,
      "inputs": [
        {
          "indexed": true,
          "internalType": "address",
          "name": "module",
          "type": "address"
        },
        {
          "indexed": true,
          "internalType": "address",
          "name": "solver",
          "type": "address"
        }
      ],
      "name": "LoadedModule",
      "type": "event"
    },
    {
      "inputs": [
        {
          "internalType": "contract ISolver",
          "name": "solver",
          "type": "address"
        },
        {
          "internalType": "uint256",
          "name": "conditionIndex",
          "type": "uint256"
        }
      ],
      "name": "approveOutcome",
      "outputs": [
        {
          "internalType": "address[]",
          "name": "approved",
          "type": "address[]"
        }
      ],
      "stateMutability": "nonpayable",
      "type": "function"
    },
    {
      "inputs": [],
      "name": "fetchPermits",
      "outputs": [
        {
          "internalType": "bytes4[]",
          "name": "",
          "type": "bytes4[]"
        }
      ],
      "stateMutability": "view",
      "type": "function"
    },
    {
      "inputs": [
        {
          "internalType": "contract ISolver",
          "name": "solver",
          "type": "address"
        }
      ],
      "name": "getNumUniqueRecipients",
      "outputs": [
        {
          "internalType": "uint256",
          "name": "",
          "type": "uint256"
        }
      ],
      "stateMutability": "view",
      "type": "function"
    },
    {
      "inputs": [
        {
          "internalType": "bytes4",
          "name": "selector",
          "type": "bytes4"
        }
      ],
      "name": "isPermitted",
      "outputs": [
        {
          "internalType": "bool",
          "name": "",
          "type": "bool"
        }
      ],
      "stateMutability": "view",
      "type": "function"
    },
    {
      "inputs": [
        {
          "internalType": "bytes",
          "name": "data",
          "type": "bytes"
        }
      ],
      "name": "load",
      "outputs": [],
      "stateMutability": "nonpayable",
      "type": "function"
    },
    {
      "inputs": [
        {
          "internalType": "bytes4",
          "name": "interfaceId",
          "type": "bytes4"
        }
      ],
      "name": "supportsInterface",
      "outputs": [
        {
          "internalType": "bool",
          "name": "",
          "type": "bool"
        }
      ],
      "stateMutability": "view",
      "type": "function"
    }
  ],
  "transactionHash": "0x5120bfca2b0133290b3986a9646450663abbe21238d0aa6798d2a04ca402f850",
  "args": [],
  "numDeployments": 2,
  "solcInputHash": "33354247c16047509b325c318c8ec1d5",
  "bytecode": "0x3060c0908152602060a081905260e0604052902060805234801561002257600080fd5b50600080546001818101835582805260088083047f290decd9548b62a8d60345a988386fc84ba6bc95484008f6362f93160ef3e563908101805460046007968716810261010090810a6381296f6f810263ffffffff9182021990941693909317909355875495860190975592840490910180549390941690940290930a63c8abf6da8102930219169190911790556080516115b16100d960003960008181610342015281816103db01526107c501526115b16000f3fe608060405234801561001057600080fd5b50600436106100625760003560e01c806301ffc9a7146100675780632248fd9e1461008f5780632c076950146100a25780633cef64cc146100c2578063a2c49e8c146100d7578063e1979ef4146100f8575b600080fd5b61007a610075366004610add565b61010d565b60405190151581526020015b60405180910390f35b61007a61009d366004610add565b610144565b6100b56100b0366004610b26565b6101c6565b6040516100869190610b52565b6100d56100d0366004610b9f565b6107bd565b005b6100ea6100e5366004610c10565b61088e565b604051908152602001610086565b610100610a58565b6040516100869190610c2d565b60006001600160e01b0319821663fecfce0160e01b148061013e57506001600160e01b031982166301ffc9a760e01b145b92915050565b6000805b6000548110156101bd57826001600160e01b0319166000828154811061017057610170610c6f565b90600052602060002090600891828204019190066004029054906101000a900460e01b6001600160e01b031916036101ab5750600192915050565b806101b581610c9b565b915050610148565b50600092915050565b604051630a0db41760e31b8152336004820152602481018290526060906001600160a01b0384169063506da0b890604401602060405180830381865afa158015610214573d6000803e3d6000fd5b505050506040513d601f19601f820116820180604052508101906102389190610cb4565b61027b5760405162461bcd60e51b815260206004820152600f60248201526e4f6e6c7920726563697069656e747360881b60448201526064015b60405180910390fd5b6002604051632e31150760e11b8152600481018490526001600160a01b03851690635c622a0e90602401602060405180830381865afa1580156102c2573d6000803e3d6000fd5b505050506040513d601f19601f820116820180604052508101906102e69190610cec565b60058111156102f7576102f7610cd6565b146103335760405162461bcd60e51b815260206004820152600c60248201526b4e6f742070726f706f73657360a01b6044820152606401610272565b6040516309648a9d60e01b81527f000000000000000000000000000000000000000000000000000000000000000060048201526000906001600160a01b038516906309648a9d90602401600060405180830381865afa15801561039a573d6000803e3d6000fd5b505050506040513d6000823e601f3d908101601f191682016040526103c29190810190610e5d565b8060200190518101906103d59190610e99565b604080517f0000000000000000000000000000000000000000000000000000000000000000602082015260609181018290526012608082015271415050524f564552535f53544154454b455960701b60a082015290810185905290915060009060c00160405160208183030381529060405280519060200120905060606000866001600160a01b03166309648a9d846040518263ffffffff1660e01b815260040161048291815260200190565b600060405180830381865afa15801561049f573d6000803e3d6000fd5b505050506040513d6000823e601f3d908101601f191682016040526104c79190810190610e5d565b8051909150156104e857808060200190518101906104e59190610ee5565b91505b60005b82518110156105735782818151811061050657610506610c6f565b60200260200101516001600160a01b0316336001600160a01b0316036105615760405162461bcd60e51b815260206004820152601060248201526f105b1c9958591e48185c1c1c9bdd995960821b6044820152606401610272565b8061056b81610c9b565b9150506104eb565b5083825160016105839190610f83565b0361064857604051636455fb6d60e11b815260048101879052600060248201526001600160a01b0388169063c8abf6da90604401600060405180830381600087803b1580156105d157600080fd5b505af11580156105e5573d6000803e3d6000fd5b5050604051630d8d397560e01b8152600481018990526001600160a01b038a169250630d8d39759150602401600060405180830381600087803b15801561062b57600080fd5b505af115801561063f573d6000803e3d6000fd5b505050506107b3565b6000825160016106589190610f83565b6001600160401b0381111561066f5761066f610d0d565b604051908082528060200260200182016040528015610698578160200160208202803683370190505b50905060005b83518110156106fd578381815181106106b9576106b9610c6f565b60200260200101518282815181106106d3576106d3610c6f565b6001600160a01b0390921660209283029190910190910152806106f581610c9b565b91505061069e565b50338184518151811061071257610712610c6f565b60200260200101906001600160a01b031690816001600160a01b031681525050876001600160a01b03166381296f6f85836040516020016107539190610b52565b6040516020818303038152906040526040518363ffffffff1660e01b815260040161077f929190610f9b565b600060405180830381600087803b15801561079957600080fd5b505af11580156107ad573d6000803e3d6000fd5b50505050505b5095945050505050565b336381296f6f7f00000000000000000000000000000000000000000000000000000000000000006107ed8361088e565b6040516020016107ff91815260200190565b6040516020818303038152906040526040518363ffffffff1660e01b815260040161082b929190610f9b565b600060405180830381600087803b15801561084557600080fd5b505af1158015610859573d6000803e3d6000fd5b50506040513392503091507f5bd541bf918ba603897a3903b1092b774c2e889c3d883bd57202244669be124e90600090a35050565b600080826001600160a01b031663c3f909d46040518163ffffffff1660e01b8152600401600060405180830381865afa1580156108cf573d6000803e3d6000fd5b505050506040513d6000823e601f3d908101601f191682016040526108f79190810190611473565b905060008160c0015160a00151516001600160401b0381111561091c5761091c610d0d565b604051908082528060200260200182016040528015610945578160200160208202803683370190505b5090506000805b8360c0015160a0015151811015610a41576000805b84518110156109c6578560c0015160a00151838151811061098457610984610c6f565b6020026020010151600001518582815181106109a2576109a2610c6f565b6020026020010151036109b457600191505b806109be81610c9b565b915050610961565b5080610a20578460c0015160a0015182815181106109e6576109e6610c6f565b6020026020010151600001518484846109ff9190611564565b81518110610a0f57610a0f610c6f565b602002602001018181525050610a2e565b82610a2a81610c9b565b9350505b5080610a3981610c9b565b91505061094c565b50808251610a4f9190611564565b95945050505050565b60606000805480602002602001604051908101604052809291908181526020018280548015610ad357602002820191906000526020600020906000905b82829054906101000a900460e01b6001600160e01b03191681526020019060040190602082600301049283019260010382029150808411610a955790505b5050505050905090565b600060208284031215610aef57600080fd5b81356001600160e01b031981168114610b0757600080fd5b9392505050565b6001600160a01b0381168114610b2357600080fd5b50565b60008060408385031215610b3957600080fd5b8235610b4481610b0e565b946020939093013593505050565b6020808252825182820181905260009190848201906040850190845b81811015610b935783516001600160a01b031683529284019291840191600101610b6e565b50909695505050505050565b60008060208385031215610bb257600080fd5b82356001600160401b0380821115610bc957600080fd5b818501915085601f830112610bdd57600080fd5b813581811115610bec57600080fd5b866020828501011115610bfe57600080fd5b60209290920196919550909350505050565b600060208284031215610c2257600080fd5b8135610b0781610b0e565b6020808252825182820181905260009190848201906040850190845b81811015610b935783516001600160e01b03191683529284019291840191600101610c49565b634e487b7160e01b600052603260045260246000fd5b634e487b7160e01b600052601160045260246000fd5b600060018201610cad57610cad610c85565b5060010190565b600060208284031215610cc657600080fd5b81518015158114610b0757600080fd5b634e487b7160e01b600052602160045260246000fd5b600060208284031215610cfe57600080fd5b815160068110610b0757600080fd5b634e487b7160e01b600052604160045260246000fd5b604080519081016001600160401b0381118282101715610d4557610d45610d0d565b60405290565b60405160a081016001600160401b0381118282101715610d4557610d45610d0d565b60405160e081016001600160401b0381118282101715610d4557610d45610d0d565b604051601f8201601f191681016001600160401b0381118282101715610db757610db7610d0d565b604052919050565b60005b83811015610dda578181015183820152602001610dc2565b83811115610de9576000848401525b50505050565b60006001600160401b03831115610e0857610e08610d0d565b610e1b601f8401601f1916602001610d8f565b9050828152838383011115610e2f57600080fd5b610b07836020830184610dbf565b600082601f830112610e4e57600080fd5b610b0783835160208501610def565b600060208284031215610e6f57600080fd5b81516001600160401b03811115610e8557600080fd5b610e9184828501610e3d565b949350505050565b600060208284031215610eab57600080fd5b5051919050565b60006001600160401b03821115610ecb57610ecb610d0d565b5060051b60200190565b8051610ee081610b0e565b919050565b60006020808385031215610ef857600080fd5b82516001600160401b03811115610f0e57600080fd5b8301601f81018513610f1f57600080fd5b8051610f32610f2d82610eb2565b610d8f565b81815260059190911b82018301908381019087831115610f5157600080fd5b928401925b82841015610f78578351610f6981610b0e565b82529284019290840190610f56565b979650505050505050565b60008219821115610f9657610f96610c85565b500190565b8281526040602082015260008251806040840152610fc0816060850160208701610dbf565b601f01601f1916919091016060019392505050565b600082601f830112610fe657600080fd5b81516020610ff6610f2d83610eb2565b82815260059290921b8401810191818101908684111561101557600080fd5b8286015b8481101561109f5780516001600160401b03808211156110395760008081fd5b908801906040828b03601f19018113156110535760008081fd5b61105b610d23565b8784015161106881610b0e565b815290830151908282111561107d5760008081fd5b61108b8c8984870101610e3d565b818901528652505050918301918301611019565b509695505050505050565b600082601f8301126110bb57600080fd5b815160206110cb610f2d83610eb2565b82815260059290921b840181019181810190868411156110ea57600080fd5b8286015b8481101561109f5780516001600160401b038082111561110e5760008081fd5b9088019060a0828b03601f19018113156111285760008081fd5b611130610d4b565b8784015181526040808501516004811061114a5760008081fd5b808a8401525060608086015182840152608091508186015181840152508285015192508383111561117b5760008081fd5b6111898d8a85880101610e3d565b9082015286525050509183019183016110ee565b600082601f8301126111ae57600080fd5b815160206111be610f2d83610eb2565b82815260059290921b840181019181810190868411156111dd57600080fd5b8286015b8481101561109f57805183529183019183016111e1565b600082601f83011261120957600080fd5b81516020611219610f2d83610eb2565b828152600592831b850182019282820191908785111561123857600080fd5b8387015b858110156113105780516001600160401b038082111561125c5760008081fd5b908901906040828c03601f19018113156112765760008081fd5b61127e610d23565b88840151815281840151838111156112965760008081fd5b8085019450508c603f8501126112ae57600092508283fd5b8884015192506112c0610f2d84610eb2565b83815292861b8401820192898101908e8511156112dd5760008081fd5b948301945b848610156112fb5785518252948a0194908a01906112e2565b828b015250875250505092840192840161123c565b5090979650505050505050565b600082601f83011261132e57600080fd5b8151602061133e610f2d83610eb2565b82815260059290921b8401810191818101908684111561135d57600080fd5b8286015b8481101561109f5780516001600160401b038111156113805760008081fd5b8701603f810189136113925760008081fd5b6113a3898683015160408401610def565b845250918301918301611361565b600060e082840312156113c357600080fd5b6113cb610d6d565b90506113d682610ed5565b815260208281015190820152604080830151908201526060808301519082015260808201516001600160401b038082111561141057600080fd5b61141c8583860161119d565b608084015260a084015191508082111561143557600080fd5b611441858386016111f8565b60a084015260c084015191508082111561145a57600080fd5b506114678482850161131d565b60c08301525092915050565b60006020828403121561148557600080fd5b81516001600160401b038082111561149c57600080fd5b9083019060e082860312156114b057600080fd5b6114b8610d6d565b6114c183610ed5565b81526114cf60208401610ed5565b60208201526114e060408401610ed5565b60408201526060830151606082015260808301518281111561150157600080fd5b61150d87828601610fd5565b60808301525060a08301518281111561152557600080fd5b611531878286016110aa565b60a08301525060c08301518281111561154957600080fd5b611555878286016113b1565b60c08301525095945050505050565b60008282101561157657611576610c85565b50039056fea264697066735822122007bb21a798c3807512e2b6ec244a131130277d98e079832ce97f55317974947a64736f6c634300080e0033",
  "devdoc": {
    "kind": "dev",
    "methods": {
      "supportsInterface(bytes4)": {
        "details": "Returns true if this contract implements the interface defined by `interfaceId`. See the corresponding https://eips.ethereum.org/EIPS/eip-165#how-interfaces-are-identified[EIP section] to learn more about how these ids are created. This function call must use less than 30 000 gas."
      }
    },
    "version": 1
  },
  "userdoc": {
    "kind": "user",
    "methods": {},
    "version": 1
  },
  "storageLayout": {
    "storage": [
      {
        "astId": 8782,
        "contract": "contracts/modules/keepers/Unanimity.sol:Unanimity",
        "label": "permits",
        "offset": 0,
        "slot": "0",
        "type": "t_array(t_bytes4)dyn_storage"
      }
    ],
    "types": {
      "t_array(t_bytes4)dyn_storage": {
        "base": "t_bytes4",
        "encoding": "dynamic_array",
        "label": "bytes4[]",
        "numberOfBytes": "32"
      },
      "t_bytes4": {
        "encoding": "inplace",
        "label": "bytes4",
        "numberOfBytes": "4"
      }
    }
  }
}