{
  "_format": "hh-sol-artifact-1",
  "contractName": "Unanimity",
  "sourceName": "contracts/modules/keepers/Unanimity.sol",
  "abi": [
    {
      "inputs": [],
      "stateMutability": "nonpayable",
      "type": "constructor"
    },
    {
      "anonymous": false,
      "inputs": [
        {
          "indexed": true,
          "internalType": "address",
          "name": "module",
          "type": "address"
        },
        {
          "indexed": true,
          "internalType": "address",
          "name": "solver",
          "type": "address"
        }
      ],
      "name": "LoadedModule",
      "type": "event"
    },
    {
      "inputs": [
        {
          "internalType": "contract ISolver",
          "name": "solver",
          "type": "address"
        },
        {
          "internalType": "uint256",
          "name": "conditionIndex",
          "type": "uint256"
        }
      ],
      "name": "approveOutcome",
      "outputs": [
        {
          "internalType": "address[]",
          "name": "approved",
          "type": "address[]"
        }
      ],
      "stateMutability": "nonpayable",
      "type": "function"
    },
    {
      "inputs": [],
      "name": "fetchPermits",
      "outputs": [
        {
          "internalType": "bytes4[]",
          "name": "",
          "type": "bytes4[]"
        }
      ],
      "stateMutability": "view",
      "type": "function"
    },
    {
      "inputs": [
        {
          "internalType": "contract ISolver",
          "name": "solver",
          "type": "address"
        }
      ],
      "name": "getNumUniqueRecipients",
      "outputs": [
        {
          "internalType": "uint256",
          "name": "",
          "type": "uint256"
        }
      ],
      "stateMutability": "view",
      "type": "function"
    },
    {
      "inputs": [
        {
          "internalType": "bytes4",
          "name": "selector",
          "type": "bytes4"
        }
      ],
      "name": "isPermitted",
      "outputs": [
        {
          "internalType": "bool",
          "name": "",
          "type": "bool"
        }
      ],
      "stateMutability": "view",
      "type": "function"
    },
    {
      "inputs": [
        {
          "internalType": "bytes",
          "name": "data",
          "type": "bytes"
        }
      ],
      "name": "load",
      "outputs": [],
      "stateMutability": "nonpayable",
      "type": "function"
    },
    {
      "inputs": [
        {
          "internalType": "bytes4",
          "name": "interfaceId",
          "type": "bytes4"
        }
      ],
      "name": "supportsInterface",
      "outputs": [
        {
          "internalType": "bool",
          "name": "",
          "type": "bool"
        }
      ],
      "stateMutability": "view",
      "type": "function"
    }
  ],
  "bytecode": "0x3060c0908152602060a081905260e0604052902060805234801561002257600080fd5b50600080546001818101835582805260088083047f290decd9548b62a8d60345a988386fc84ba6bc95484008f6362f93160ef3e563908101805460046007968716810261010090810a6381296f6f810263ffffffff9182021990941693909317909355875495860190975592840490910180549390941690940290930a63c8abf6da8102930219169190911790556080516115da6100d960003960008181610342015281816103db01526107c501526115da6000f3fe608060405234801561001057600080fd5b50600436106100625760003560e01c806301ffc9a7146100675780632248fd9e1461008f5780632c076950146100a25780633cef64cc146100c2578063a2c49e8c146100d7578063e1979ef4146100f8575b600080fd5b61007a610075366004610add565b61010d565b60405190151581526020015b60405180910390f35b61007a61009d366004610add565b610144565b6100b56100b0366004610b26565b6101c6565b6040516100869190610b52565b6100d56100d0366004610b9f565b6107bd565b005b6100ea6100e5366004610c10565b61088e565b604051908152602001610086565b610100610a58565b6040516100869190610c2d565b60006001600160e01b0319821663fecfce0160e01b148061013e57506001600160e01b031982166301ffc9a760e01b145b92915050565b6000805b6000548110156101bd57826001600160e01b0319166000828154811061017057610170610c6f565b90600052602060002090600891828204019190066004029054906101000a900460e01b6001600160e01b031916036101ab5750600192915050565b806101b581610c9b565b915050610148565b50600092915050565b604051630a0db41760e31b8152336004820152602481018290526060906001600160a01b0384169063506da0b890604401602060405180830381865afa158015610214573d6000803e3d6000fd5b505050506040513d601f19601f820116820180604052508101906102389190610cb4565b61027b5760405162461bcd60e51b815260206004820152600f60248201526e4f6e6c7920726563697069656e747360881b60448201526064015b60405180910390fd5b6002604051632e31150760e11b8152600481018490526001600160a01b03851690635c622a0e90602401602060405180830381865afa1580156102c2573d6000803e3d6000fd5b505050506040513d601f19601f820116820180604052508101906102e69190610cec565b60058111156102f7576102f7610cd6565b146103335760405162461bcd60e51b815260206004820152600c60248201526b4e6f742070726f706f73657360a01b6044820152606401610272565b6040516309648a9d60e01b81527f000000000000000000000000000000000000000000000000000000000000000060048201526000906001600160a01b038516906309648a9d90602401600060405180830381865afa15801561039a573d6000803e3d6000fd5b505050506040513d6000823e601f3d908101601f191682016040526103c29190810190610e7c565b8060200190518101906103d59190610eb0565b604080517f0000000000000000000000000000000000000000000000000000000000000000602082015260609181018290526012608082015271415050524f564552535f53544154454b455960701b60a082015290810185905290915060009060c00160405160208183030381529060405280519060200120905060606000866001600160a01b03166309648a9d846040518263ffffffff1660e01b815260040161048291815260200190565b600060405180830381865afa15801561049f573d6000803e3d6000fd5b505050506040513d6000823e601f3d908101601f191682016040526104c79190810190610e7c565b8051909150156104e857808060200190518101906104e59190610efc565b91505b60005b82518110156105735782818151811061050657610506610c6f565b60200260200101516001600160a01b0316336001600160a01b0316036105615760405162461bcd60e51b815260206004820152601060248201526f105b1c9958591e48185c1c1c9bdd995960821b6044820152606401610272565b8061056b81610c9b565b9150506104eb565b5083825160016105839190610f9a565b0361064857604051636455fb6d60e11b815260048101879052600060248201526001600160a01b0388169063c8abf6da90604401600060405180830381600087803b1580156105d157600080fd5b505af11580156105e5573d6000803e3d6000fd5b5050604051630d8d397560e01b8152600481018990526001600160a01b038a169250630d8d39759150602401600060405180830381600087803b15801561062b57600080fd5b505af115801561063f573d6000803e3d6000fd5b505050506107b3565b6000825160016106589190610f9a565b6001600160401b0381111561066f5761066f610d0d565b604051908082528060200260200182016040528015610698578160200160208202803683370190505b50905060005b83518110156106fd578381815181106106b9576106b9610c6f565b60200260200101518282815181106106d3576106d3610c6f565b6001600160a01b0390921660209283029190910190910152806106f581610c9b565b91505061069e565b50338184518151811061071257610712610c6f565b60200260200101906001600160a01b031690816001600160a01b031681525050876001600160a01b03166381296f6f85836040516020016107539190610b52565b6040516020818303038152906040526040518363ffffffff1660e01b815260040161077f929190610fb2565b600060405180830381600087803b15801561079957600080fd5b505af11580156107ad573d6000803e3d6000fd5b50505050505b5095945050505050565b336381296f6f7f00000000000000000000000000000000000000000000000000000000000000006107ed8361088e565b6040516020016107ff91815260200190565b6040516020818303038152906040526040518363ffffffff1660e01b815260040161082b929190610fb2565b600060405180830381600087803b15801561084557600080fd5b505af1158015610859573d6000803e3d6000fd5b50506040513392503091507f5bd541bf918ba603897a3903b1092b774c2e889c3d883bd57202244669be124e90600090a35050565b600080826001600160a01b031663c3f909d46040518163ffffffff1660e01b8152600401600060405180830381865afa1580156108cf573d6000803e3d6000fd5b505050506040513d6000823e601f3d908101601f191682016040526108f7919081019061149c565b905060008160c0015160a00151516001600160401b0381111561091c5761091c610d0d565b604051908082528060200260200182016040528015610945578160200160208202803683370190505b5090506000805b8360c0015160a0015151811015610a41576000805b84518110156109c6578560c0015160a00151838151811061098457610984610c6f565b6020026020010151600001518582815181106109a2576109a2610c6f565b6020026020010151036109b457600191505b806109be81610c9b565b915050610961565b5080610a20578460c0015160a0015182815181106109e6576109e6610c6f565b6020026020010151600001518484846109ff919061158d565b81518110610a0f57610a0f610c6f565b602002602001018181525050610a2e565b82610a2a81610c9b565b9350505b5080610a3981610c9b565b91505061094c565b50808251610a4f919061158d565b95945050505050565b60606000805480602002602001604051908101604052809291908181526020018280548015610ad357602002820191906000526020600020906000905b82829054906101000a900460e01b6001600160e01b03191681526020019060040190602082600301049283019260010382029150808411610a955790505b5050505050905090565b600060208284031215610aef57600080fd5b81356001600160e01b031981168114610b0757600080fd5b9392505050565b6001600160a01b0381168114610b2357600080fd5b50565b60008060408385031215610b3957600080fd5b8235610b4481610b0e565b946020939093013593505050565b6020808252825182820181905260009190848201906040850190845b81811015610b935783516001600160a01b031683529284019291840191600101610b6e565b50909695505050505050565b60008060208385031215610bb257600080fd5b82356001600160401b0380821115610bc957600080fd5b818501915085601f830112610bdd57600080fd5b813581811115610bec57600080fd5b866020828501011115610bfe57600080fd5b60209290920196919550909350505050565b600060208284031215610c2257600080fd5b8135610b0781610b0e565b6020808252825182820181905260009190848201906040850190845b81811015610b935783516001600160e01b03191683529284019291840191600101610c49565b634e487b7160e01b600052603260045260246000fd5b634e487b7160e01b600052601160045260246000fd5b600060018201610cad57610cad610c85565b5060010190565b600060208284031215610cc657600080fd5b81518015158114610b0757600080fd5b634e487b7160e01b600052602160045260246000fd5b600060208284031215610cfe57600080fd5b815160068110610b0757600080fd5b634e487b7160e01b600052604160045260246000fd5b604080519081016001600160401b0381118282101715610d4557610d45610d0d565b60405290565b60405160a081016001600160401b0381118282101715610d4557610d45610d0d565b604051606081016001600160401b0381118282101715610d4557610d45610d0d565b60405160e081016001600160401b0381118282101715610d4557610d45610d0d565b604051601f8201601f191681016001600160401b0381118282101715610dd957610dd9610d0d565b604052919050565b60005b83811015610dfc578181015183820152602001610de4565b83811115610e0b576000848401525b50505050565b600082601f830112610e2257600080fd5b81516001600160401b03811115610e3b57610e3b610d0d565b610e4e601f8201601f1916602001610db1565b818152846020838601011115610e6357600080fd5b610e74826020830160208701610de1565b949350505050565b600060208284031215610e8e57600080fd5b81516001600160401b03811115610ea457600080fd5b610e7484828501610e11565b600060208284031215610ec257600080fd5b5051919050565b60006001600160401b03821115610ee257610ee2610d0d565b5060051b60200190565b8051610ef781610b0e565b919050565b60006020808385031215610f0f57600080fd5b82516001600160401b03811115610f2557600080fd5b8301601f81018513610f3657600080fd5b8051610f49610f4482610ec9565b610db1565b81815260059190911b82018301908381019087831115610f6857600080fd5b928401925b82841015610f8f578351610f8081610b0e565b82529284019290840190610f6d565b979650505050505050565b60008219821115610fad57610fad610c85565b500190565b8281526040602082015260008251806040840152610fd7816060850160208701610de1565b601f01601f1916919091016060019392505050565b600082601f830112610ffd57600080fd5b8151602061100d610f4483610ec9565b82815260059290921b8401810191818101908684111561102c57600080fd5b8286015b848110156110b65780516001600160401b03808211156110505760008081fd5b908801906040828b03601f190181131561106a5760008081fd5b611072610d23565b8784015161107f81610b0e565b81529083015190828211156110945760008081fd5b6110a28c8984870101610e11565b818901528652505050918301918301611030565b509695505050505050565b600082601f8301126110d257600080fd5b815160206110e2610f4483610ec9565b82815260059290921b8401810191818101908684111561110157600080fd5b8286015b848110156110b65780516001600160401b03808211156111255760008081fd5b9088019060a0828b03601f190181131561113f5760008081fd5b611147610d4b565b878401518152604080850151600481106111615760008081fd5b808a840152506060808601518284015260809150818601518184015250828501519250838311156111925760008081fd5b6111a08d8a85880101610e11565b908201528652505050918301918301611105565b600082601f8301126111c557600080fd5b815160206111d5610f4483610ec9565b82815260059290921b840181019181810190868411156111f457600080fd5b8286015b848110156110b657805183529183019183016111f8565b600082601f83011261122057600080fd5b81516020611230610f4483610ec9565b828152600592831b850182019282820191908785111561124f57600080fd5b8387015b858110156113275780516001600160401b03808211156112735760008081fd5b908901906040828c03601f190181131561128d5760008081fd5b611295610d23565b88840151815281840151838111156112ad5760008081fd5b8085019450508c603f8501126112c557600092508283fd5b8884015192506112d7610f4484610ec9565b83815292861b8401820192898101908e8511156112f45760008081fd5b948301945b848610156113125785518252948a0194908a01906112f9565b828b0152508752505050928401928401611253565b5090979650505050505050565b805160ff81168114610ef757600080fd5b600082601f83011261135657600080fd5b81516020611366610f4483610ec9565b8281526060928302850182019282820191908785111561138557600080fd5b8387015b858110156113275781818a0312156113a15760008081fd5b6113a9610d6d565b815181526113b8868301611334565b8682015260406113c9818401611334565b908201528452928401928101611389565b600060e082840312156113ec57600080fd5b6113f4610d8f565b90506113ff82610eec565b815260208281015190820152604080830151908201526060808301519082015260808201516001600160401b038082111561143957600080fd5b611445858386016111b4565b608084015260a084015191508082111561145e57600080fd5b61146a8583860161120f565b60a084015260c084015191508082111561148357600080fd5b5061149084828501611345565b60c08301525092915050565b6000602082840312156114ae57600080fd5b81516001600160401b03808211156114c557600080fd5b9083019060e082860312156114d957600080fd5b6114e1610d8f565b6114ea83610eec565b81526114f860208401610eec565b602082015261150960408401610eec565b60408201526060830151606082015260808301518281111561152a57600080fd5b61153687828601610fec565b60808301525060a08301518281111561154e57600080fd5b61155a878286016110c1565b60a08301525060c08301518281111561157257600080fd5b61157e878286016113da565b60c08301525095945050505050565b60008282101561159f5761159f610c85565b50039056fea2646970667358221220e15fe50010a4b916d8290253b9a4323da4253e8374ae4adcfc75411795c9e95964736f6c634300080d0033",
  "linkReferences": {},
  "deployedLinkReferences": {}
}