{
  "_format": "hh-sol-artifact-1",
  "contractName": "SolutionsHub",
  "sourceName": "contracts/SolutionsHub.sol",
  "abi": [
    {
      "inputs": [],
      "name": "createSolution",
      "outputs": [
        {
          "internalType": "bytes32",
          "name": "_solutionId",
          "type": "bytes32"
        }
      ],
      "stateMutability": "nonpayable",
      "type": "function"
    },
    {
      "inputs": [
        {
          "internalType": "bytes32",
          "name": "_proposalId",
          "type": "bytes32"
        },
        {
          "internalType": "bytes32",
          "name": "_solutionId",
          "type": "bytes32"
        }
      ],
      "name": "executeSolution",
      "outputs": [],
      "stateMutability": "nonpayable",
      "type": "function"
    },
    {
      "inputs": [
        {
          "internalType": "bytes32",
          "name": "_solutionId",
          "type": "bytes32"
        },
        {
          "components": [
            {
              "internalType": "contract SolverFactory",
              "name": "factory",
              "type": "address"
            },
            {
              "internalType": "address",
              "name": "keeper",
              "type": "address"
            },
            {
              "internalType": "address",
              "name": "arbiter",
              "type": "address"
            },
            {
              "internalType": "address",
              "name": "parentCollectionId",
              "type": "address"
            },
            {
              "internalType": "uint256",
              "name": "outcomeSlots",
              "type": "uint256"
            },
            {
              "internalType": "uint256",
              "name": "amount",
              "type": "uint256"
            },
            {
              "internalType": "uint256",
              "name": "timelockHours",
              "type": "uint256"
            },
            {
              "internalType": "bytes",
              "name": "data",
              "type": "bytes"
            },
            {
              "components": [
                {
                  "internalType": "uint256",
                  "name": "value",
                  "type": "uint256"
                },
                {
                  "internalType": "address",
                  "name": "to",
                  "type": "address"
                },
                {
                  "internalType": "bool",
                  "name": "executed",
                  "type": "bool"
                },
                {
                  "internalType": "bytes",
                  "name": "data",
                  "type": "bytes"
                }
              ],
              "internalType": "struct Minion.Action[]",
              "name": "actions",
              "type": "tuple[]"
            }
          ],
          "internalType": "struct SolutionsHub.SolverConfig[]",
          "name": "_solverConfigs",
          "type": "tuple[]"
        }
      ],
      "name": "setSolverConfigs",
      "outputs": [],
      "stateMutability": "nonpayable",
      "type": "function"
    },
    {
      "inputs": [
        {
          "internalType": "bytes32",
          "name": "_solutionId",
          "type": "bytes32"
        },
        {
          "internalType": "uint256",
          "name": "_index",
          "type": "uint256"
        }
      ],
      "name": "solverFromIndex",
      "outputs": [
        {
          "internalType": "address",
          "name": "solver",
          "type": "address"
        }
      ],
      "stateMutability": "view",
      "type": "function"
    }
  ],
  "bytecode": "0x608060405234801561001057600080fd5b50612689806100206000396000f3fe608060405234801561001057600080fd5b506004361061004c5760003560e01c8063191481a01461005157806360bbb92814610081578063f57574211461009d578063f697e565146100bb575b600080fd5b61006b60048036038101906100669190611314565b6100d7565b60405161007891906116ca565b60405180910390f35b61009b600480360381019061009691906112d8565b61015a565b005b6100a5610891565b6040516100b29190611746565b60405180910390f35b6100d560048036038101906100d09190611280565b610a0f565b005b6000600160008481526020019081526020016000206003018281548110610127577f4e487b7100000000000000000000000000000000000000000000000000000000600052603260045260246000fd5b9060005260206000200160009054906101000a900473ffffffffffffffffffffffffffffffffffffffff16905092915050565b600015156001600083815260200190815260200160002060000160009054906101000a900460ff161515146101c4576040517f08c379a00000000000000000000000000000000000000000000000000000000081526004016101bb906117aa565b60405180910390fd5b600180600083815260200190815260200160002060000160006101000a81548160ff02191690831515021790555060005b600160008381526020019081526020016000206002018054905081101561068a576000600160008481526020019081526020016000206002018281548110610266577f4e487b7100000000000000000000000000000000000000000000000000000000600052603260045260246000fd5b906000526020600020906009020160000160009054906101000a900473ffffffffffffffffffffffffffffffffffffffff16905060008173ffffffffffffffffffffffffffffffffffffffff16631c6cd6c2600160008781526020019081526020016000206002018581548110610306577f4e487b7100000000000000000000000000000000000000000000000000000000600052603260045260246000fd5b906000526020600020906009020160010160009054906101000a900473ffffffffffffffffffffffffffffffffffffffff16600160008881526020019081526020016000206002018681548110610386577f4e487b7100000000000000000000000000000000000000000000000000000000600052603260045260246000fd5b906000526020600020906009020160020160009054906101000a900473ffffffffffffffffffffffffffffffffffffffff16600160008981526020019081526020016000206002018781548110610406577f4e487b7100000000000000000000000000000000000000000000000000000000600052603260045260246000fd5b906000526020600020906009020160060154600160008a81526020019081526020016000206002018881548110610466577f4e487b7100000000000000000000000000000000000000000000000000000000600052603260045260246000fd5b9060005260206000209060090201600801600160008b815260200190815260200160002060020189815481106104c5577f4e487b7100000000000000000000000000000000000000000000000000000000600052603260045260246000fd5b90600052602060002090600902016007016040518663ffffffff1660e01b81526004016104f69594939291906116e5565b602060405180830381600087803b15801561051057600080fd5b505af1158015610524573d6000803e3d6000fd5b505050506040513d601f19601f820116820180604052508101906105489190611257565b9050600073ffffffffffffffffffffffffffffffffffffffff168173ffffffffffffffffffffffffffffffffffffffff1614156105ba576040517f08c379a00000000000000000000000000000000000000000000000000000000081526004016105b19061178a565b60405180910390fd5b60016000858152602001908152602001600020600301819080600181540180825580915050600190039060005260206000200160009091909190916101000a81548173ffffffffffffffffffffffffffffffffffffffff021916908373ffffffffffffffffffffffffffffffffffffffff16021790555083600260008373ffffffffffffffffffffffffffffffffffffffff1673ffffffffffffffffffffffffffffffffffffffff168152602001908152602001600020819055505050808061068290611eb0565b9150506101f5565b5060003390508073ffffffffffffffffffffffffffffffffffffffff1663c13784f784600160008681526020019081526020016000206003016000815481106106fc577f4e487b7100000000000000000000000000000000000000000000000000000000600052603260045260246000fd5b9060005260206000200160009054906101000a900473ffffffffffffffffffffffffffffffffffffffff166040518363ffffffff1660e01b8152600401610744929190611761565b600060405180830381600087803b15801561075e57600080fd5b505af1158015610772573d6000803e3d6000fd5b5050505060005b600160008481526020019081526020016000206002018054905081101561088b5760006001600085815260200190815260200160002060030182815481106107ea577f4e487b7100000000000000000000000000000000000000000000000000000000600052603260045260246000fd5b9060005260206000200160009054906101000a900473ffffffffffffffffffffffffffffffffffffffff1690508073ffffffffffffffffffffffffffffffffffffffff16635a7e68986040518163ffffffff1660e01b8152600401600060405180830381600087803b15801561085f57600080fd5b505af1158015610873573d6000803e3d6000fd5b5050505050808061088390611eb0565b915050610779565b50505050565b600080336000546040516020016108a992919061169e565b6040516020818303038152906040528051906020012090506000600160008381526020019081526020016000209050818160010181905550338160000160016101000a81548173ffffffffffffffffffffffffffffffffffffffff021916908373ffffffffffffffffffffffffffffffffffffffff16021790555080600160008481526020019081526020016000206000820160009054906101000a900460ff168160000160006101000a81548160ff0219169083151502179055506000820160019054906101000a900473ffffffffffffffffffffffffffffffffffffffff168160000160016101000a81548173ffffffffffffffffffffffffffffffffffffffff021916908373ffffffffffffffffffffffffffffffffffffffff1602179055506001820154816001015560028201816002019080546109ec929190610b96565b506003820181600301908054610a03929190610ddf565b50905050819250505090565b826001600082815260200190815260200160002060000160019054906101000a900473ffffffffffffffffffffffffffffffffffffffff1673ffffffffffffffffffffffffffffffffffffffff163373ffffffffffffffffffffffffffffffffffffffff1614610ab4576040517f08c379a0000000000000000000000000000000000000000000000000000000008152600401610aab906117ca565b60405180910390fd5b600160008581526020019081526020016000206002016000610ad69190610e31565b60005b83839050811015610b8f5760016000868152602001908152602001600020600201848483818110610b33577f4e487b7100000000000000000000000000000000000000000000000000000000600052603260045260246000fd5b9050602002810190610b4591906118bc565b90806001815401808255809150506001900390600052602060002090600902016000909190919091508181610b7a91906123aa565b50508080610b8790611eb0565b915050610ad9565b5050505050565b828054828255906000526020600020906009028101928215610dce5760005260206000209160090282015b82811115610dcd5782826000820160009054906101000a900473ffffffffffffffffffffffffffffffffffffffff168160000160006101000a81548173ffffffffffffffffffffffffffffffffffffffff021916908373ffffffffffffffffffffffffffffffffffffffff1602179055506001820160009054906101000a900473ffffffffffffffffffffffffffffffffffffffff168160010160006101000a81548173ffffffffffffffffffffffffffffffffffffffff021916908373ffffffffffffffffffffffffffffffffffffffff1602179055506002820160009054906101000a900473ffffffffffffffffffffffffffffffffffffffff168160020160006101000a81548173ffffffffffffffffffffffffffffffffffffffff021916908373ffffffffffffffffffffffffffffffffffffffff1602179055506003820160009054906101000a900473ffffffffffffffffffffffffffffffffffffffff168160030160006101000a81548173ffffffffffffffffffffffffffffffffffffffff021916908373ffffffffffffffffffffffffffffffffffffffff1602179055506004820154816004015560058201548160050155600682015481600601556007820181600701908054610d9990611e14565b610da4929190610e55565b506008820181600801908054610dbb929190610ee2565b50505091600901919060090190610bc1565b5b509050610ddb9190610ff8565b5090565b828054828255906000526020600020908101928215610e205760005260206000209182015b82811115610e1f578254825591600101919060010190610e04565b5b509050610e2d91906110e3565b5090565b5080546000825560090290600052602060002090810190610e529190610ff8565b50565b828054610e6190611e14565b90600052602060002090601f016020900481019282610e835760008555610ed1565b82601f10610e945780548555610ed1565b82800160010185558215610ed157600052602060002091601f016020900482015b82811115610ed0578254825591600101919060010190610eb5565b5b509050610ede91906110e3565b5090565b828054828255906000526020600020906003028101928215610fe75760005260206000209160030282015b82811115610fe6578282600082015481600001556001820160009054906101000a900473ffffffffffffffffffffffffffffffffffffffff168160010160006101000a81548173ffffffffffffffffffffffffffffffffffffffff021916908373ffffffffffffffffffffffffffffffffffffffff1602179055506001820160149054906101000a900460ff168160010160146101000a81548160ff0219169083151502179055506002820181600201908054610fc990611e14565b610fd4929190610e55565b50505091600301919060030190610f0d565b5b509050610ff49190611100565b5090565b5b808211156110df57600080820160006101000a81549073ffffffffffffffffffffffffffffffffffffffff02191690556001820160006101000a81549073ffffffffffffffffffffffffffffffffffffffff02191690556002820160006101000a81549073ffffffffffffffffffffffffffffffffffffffff02191690556003820160006101000a81549073ffffffffffffffffffffffffffffffffffffffff02191690556004820160009055600582016000905560068201600090556007820160006110c6919061116a565b6008820160006110d691906111aa565b50600901610ff9565b5090565b5b808211156110fc5760008160009055506001016110e4565b5090565b5b80821115611166576000808201600090556001820160006101000a81549073ffffffffffffffffffffffffffffffffffffffff02191690556001820160146101000a81549060ff021916905560028201600061115d919061116a565b50600301611101565b5090565b50805461117690611e14565b6000825580601f1061118857506111a7565b601f0160209004906000526020600020908101906111a691906110e3565b5b50565b50805460008255600302906000526020600020908101906111cb9190611100565b50565b6000815190506111dd816125db565b92915050565b60008083601f8401126111f557600080fd5b8235905067ffffffffffffffff81111561120e57600080fd5b60208301915083602082028301111561122657600080fd5b9250929050565b60008135905061123c81612609565b92915050565b60008135905061125181612637565b92915050565b60006020828403121561126957600080fd5b6000611277848285016111ce565b91505092915050565b60008060006040848603121561129557600080fd5b60006112a38682870161122d565b935050602084013567ffffffffffffffff8111156112c057600080fd5b6112cc868287016111e3565b92509250509250925092565b600080604083850312156112eb57600080fd5b60006112f98582860161122d565b925050602061130a8582860161122d565b9150509250929050565b6000806040838503121561132757600080fd5b60006113358582860161122d565b925050602061134685828601611242565b9150509250929050565b600061135c83836115eb565b905092915050565b61136d81611b34565b82525050565b61137c81611b34565b82525050565b61139361138e82611b34565b611ef9565b82525050565b60006113a482611937565b6113ae818561195a565b9350836020820285016113c085611902565b8060005b858110156113fb578484038952816113dc8582611350565b94506113e78361194d565b925060208a019950506001810190506113c4565b50829750879550505050505092915050565b61141681611b46565b82525050565b61142581611b52565b82525050565b6000815461143881611e14565b611442818661196b565b9450600182166000811461145d576001811461146f576114a2565b60ff19831686526020860193506114a2565b61147885611917565b60005b8381101561149a5781548189015260018201915060208101905061147b565b808801955050505b50505092915050565b600081546114b881611e14565b6114c2818661197c565b945060018216600081146114dd57600181146114ef57611522565b60ff1983168652602086019350611522565b6114f885611917565b60005b8381101561151a578154818901526001820191506020810190506114fb565b808801955050505b50505092915050565b6000611538600f8361198d565b91507f496e76616c6964206164647265737300000000000000000000000000000000006000830152602082019050919050565b600061157860198361198d565b91507f536f6c7574696f6e20616c7265616479206578656375746564000000000000006000830152602082019050919050565b60006115b860188361198d565b91507f536f6c7574696f6e734875623a206f6e6c794b656570657200000000000000006000830152602082019050919050565b600060808301600080840154905061160281611e60565b61160f6000870182611669565b506001840154905061162081611e46565b61162d6020870182611364565b5061163781611e7a565b611644604087018261140d565b5060028401858303606087015261165b838261142b565b925050819250505092915050565b61167281611b8e565b82525050565b61168181611b8e565b82525050565b61169861169382611b8e565b611f1d565b82525050565b60006116aa8285611382565b6014820191506116ba8284611687565b6020820191508190509392505050565b60006020820190506116df6000830184611373565b92915050565b600060a0820190506116fa6000830188611373565b6117076020830187611373565b6117146040830186611678565b81810360608301526117268185611399565b9050818103608083015261173a81846114ab565b90509695505050505050565b600060208201905061175b600083018461141c565b92915050565b6000604082019050611776600083018561141c565b6117836020830184611373565b9392505050565b600060208201905081810360008301526117a38161152b565b9050919050565b600060208201905081810360008301526117c38161156b565b9050919050565b600060208201905081810360008301526117e3816115ab565b9050919050565b6000808335600160200384360303811261180357600080fd5b80840192508235915067ffffffffffffffff82111561182157600080fd5b60208301925060208202360383131561183957600080fd5b509250929050565b6000808335600160200384360303811261185a57600080fd5b80840192508235915067ffffffffffffffff82111561187857600080fd5b60208301925060018202360383131561189057600080fd5b509250929050565b6000823560016080038336030381126118b057600080fd5b80830191505092915050565b600082356001610120038336030381126118d557600080fd5b80830191505092915050565b60008190506118f1826003611aa3565b9050919050565b6000819050919050565b60008190508160005260206000209050919050565b60008190508160005260206000209050919050565b600082905092915050565b600081549050919050565b600082905092915050565b6000600382019050919050565b600082825260208201905092915050565b600082825260208201905092915050565b600082825260208201905092915050565b600082825260208201905092915050565b60208410600081146119f757601f8411600181146119c7576119c08685611e94565b83556119f1565b6119d083611917565b6119e56020601f880104820160018301611ba6565b6119ef8785612222565b505b50611a40565b611a0082611917565b6020601f8701048101601f87168015611a2157611a208160018403612001565b5b611a336020601f890104840183611ba6565b6001886002021785555050505b5050505050565b6020831060008114611a92576020851060008114611a7057611a698685611e94565b8355611a8c565b8360ff1916935083611a8184611917565b556001866002020183555b50611a9c565b6001856002020182555b5050505050565b6000611aae82611b8e565b9150611ab983611b8e565b9250817fffffffffffffffffffffffffffffffffffffffffffffffffffffffffffffffff0483118215151615611af257611af1611f74565b5b828202905092915050565b600073ffffffffffffffffffffffffffffffffffffffff82169050919050565b600060ff82169050919050565b6000819050919050565b6000611b3f82611b6e565b9050919050565b60008115159050919050565b6000819050919050565b6000611b6782611b34565b9050919050565b600073ffffffffffffffffffffffffffffffffffffffff82169050919050565b6000819050919050565b611ba3600082612120565b50565b5b81811015611bc557611bba60008261220c565b600181019050611ba7565b5050565b5b81811015611be857611bdd6000826121ee565b600381019050611bca565b5050565b81811015611c0a57611bff60008261220c565b600181019050611bec565b5050565b611c1b600080830161220c565b60006001820155611c306000600283016121d0565b50565b6000611c3e82611c69565b9050919050565b6000611c5082611b46565b9050919050565b6000611c6282611b6e565b9050919050565b6000611c7482611c7b565b9050919050565b6000611c8682611b6e565b9050919050565b6000611c9882611b8e565b9050919050565b611ca9838361192c565b611cb381836120bc565b611cbc836118f8565b611cc583611902565b6000805b84811015611cfe57611cdb8488611898565b611ce681848661251e565b60208501945060038401935050600181019050611cc9565b5050505050505050565b611d128383611942565b67ffffffffffffffff811115611d2b57611d2a611fd2565b5b611d358254611e14565b600080601f8411601f84111715611d5257611d4f85611917565b90505b601f831115611d85576020601f85010481016020851015611d71578190505b611d836020601f860104830182611ba6565b505b601f841160018114611db25760008515611da0578388013590505b611daa8682611e94565b875550611e0a565b601f1985168260005b82811015611de057858a01358255600182019150602086019550602081019050611dbb565b87831015611dfd57858a0135611df9601f8a1682611f27565b8355505b6001600289020189555050505b5050505050505050565b60006002820490506001821680611e2c57607f821691505b60208210811415611e4057611e3f611fa3565b5b50919050565b6000611e59611e54836121a9565b611afd565b9050919050565b6000611e73611e6e836121a9565b611b2a565b9050919050565b6000611e8d611e88836121b6565b611b1d565b9050919050565b6000611ea08383611f27565b9150826002028217905092915050565b6000611ebb82611b8e565b91507fffffffffffffffffffffffffffffffffffffffffffffffffffffffffffffffff821415611eee57611eed611f74565b5b600182019050919050565b6000611f0482611f0b565b9050919050565b6000611f168261218f565b9050919050565b6000819050919050565b6000611f38600019846008026121c3565b1980831691505092915050565b7f4e487b7100000000000000000000000000000000000000000000000000000000600052600060045260246000fd5b7f4e487b7100000000000000000000000000000000000000000000000000000000600052601160045260246000fd5b7f4e487b7100000000000000000000000000000000000000000000000000000000600052602260045260246000fd5b7f4e487b7100000000000000000000000000000000000000000000000000000000600052604160045260246000fd5b6120317fffffffffffffffffffffffffffffffffffffffffffffffffffffffffffffffff836020036008026121c3565b815481168255505050565b6000819050919050565b6000819050919050565b6000819050919050565b6000819050919050565b60008135612071816125db565b80915050919050565b60008135612087816125f2565b80915050919050565b6000813561209d81612620565b80915050919050565b600081356120b381612637565b80915050919050565b680100000000000000008211156120d6576120d5611fd2565b5b6120df81611937565b8282558083101561211b576120f3816118e1565b6120fc846118e1565b61210584611902565b8181018382016121158183611bc9565b50505050505b505050565b6801000000000000000082111561213a57612139611fd2565b5b805461214581611e14565b8084111561215a5761215984828486611a47565b5b8084101561216f5761216e8482848661199e565b5b50505050565b60008160001b9050919050565b60008160a01b9050919050565b60008160601b9050919050565b600082821b905092915050565b60008160001c9050919050565b60008160a01c9050919050565b600082821c905092915050565b600082146121e1576121e0611f45565b5b6121ea81611b98565b5050565b600082146121ff576121fe611f45565b5b61220881611c0e565b5050565b61221e61221761264e565b83836125b6565b5050565b61222b81611917565b612236838254611e94565b8083556000825550505050565b600074ff000000000000000000000000000000000000000061226484612182565b9350801983169250808416831791505092915050565b600073ffffffffffffffffffffffffffffffffffffffff61229a84612175565b9350801983169250808416831791505092915050565b60007fffffffffffffffffffffffffffffffffffffffffffffffffffffffffffffffff6122dc84612175565b9350801983169250808416831791505092915050565b6000600883026123227fffffffffffffffffffffffffffffffffffffffffffffffffffffffffffffffff8261219c565b61232c868361219c565b95508019841693508086168417925050509392505050565b61234d82611c33565b6123606123598261203c565b835461227a565b8255505050565b612372838383611c9f565b505050565b612382838383611d08565b505050565b61239082611c57565b6123a361239c82612050565b835461227a565b8255505050565b6000810160008301806123bc81612090565b90506123c88184612387565b5050506001810160208301806123dd81612064565b90506123e98184612344565b5050506002810160408301806123fe81612064565b905061240a8184612344565b50505060038101606083018061241f81612064565b905061242b8184612344565b505050600481016080830180612440816120a6565b905061244c81846124d8565b5050506005810160a0830180612461816120a6565b905061246d81846124d8565b5050506006810160c0830180612482816120a6565b905061248e81846124d8565b5050506007810160e083016124a38185611841565b6124ae818386612377565b505050506008810161010083016124c581856117ea565b6124d0818386612367565b505050505050565b6124e182611c8d565b6124f46124ed8261205a565b83546122b0565b8255505050565b61250482611c45565b61251761251082612046565b8354612243565b8255505050565b811561252d5761252c611f45565b5b60008101600084018061253f816120a6565b905061254b81846124d8565b50505060018101602084018061256081612064565b905061256c8184612344565b5050506001810160408401806125818161207a565b905061258d81846124fb565b50505060028101606084016125a28186611841565b6125ad818386612377565b50505050505050565b6125bf83611c8d565b6125d36125cb8261205a565b8484546122f2565b825550505050565b6125e481611b34565b81146125ef57600080fd5b50565b6125fb81611b46565b811461260657600080fd5b50565b61261281611b52565b811461261d57600080fd5b50565b61262981611b5c565b811461263457600080fd5b50565b61264081611b8e565b811461264b57600080fd5b50565b60009056fea26469706673582212204b2de069209ce71c40b33add3f4571c709fb5f7c03fc63fcf627e083c85fd9e764736f6c63430008000033",
  "linkReferences": {},
  "deployedLinkReferences": {}
}