{
  "_format": "hh-sol-artifact-1",
  "contractName": "SolutionsHub",
  "sourceName": "contracts/SolutionsHub.sol",
  "abi": [
    {
      "inputs": [
        {
          "internalType": "contract ConditionalTokens",
          "name": "_conditionalTokens",
          "type": "address"
        }
      ],
      "stateMutability": "nonpayable",
      "type": "constructor"
    },
    {
      "anonymous": false,
      "inputs": [
        {
          "indexed": false,
          "internalType": "bytes32",
          "name": "id",
          "type": "bytes32"
        }
      ],
      "name": "CreateSolution",
      "type": "event"
    },
    {
      "inputs": [],
      "name": "conditionalTokens",
      "outputs": [
        {
          "internalType": "contract ConditionalTokens",
          "name": "",
          "type": "address"
        }
      ],
      "stateMutability": "view",
      "type": "function"
    },
    {
      "inputs": [
        {
          "internalType": "bytes32",
          "name": "_id",
          "type": "bytes32"
        },
        {
          "internalType": "contract IERC20",
          "name": "_collateralToken",
          "type": "address"
        },
        {
          "components": [
            {
              "internalType": "contract SolverFactory",
              "name": "factory",
              "type": "address"
            },
            {
              "internalType": "address",
              "name": "keeper",
              "type": "address"
            },
            {
              "internalType": "address",
              "name": "arbiter",
              "type": "address"
            },
            {
              "internalType": "uint256",
              "name": "timelockSeconds",
              "type": "uint256"
            },
            {
              "internalType": "bytes",
              "name": "data",
              "type": "bytes"
            },
            {
              "components": [
                {
                  "internalType": "bool",
                  "name": "executed",
                  "type": "bool"
                },
                {
                  "internalType": "bool",
                  "name": "isConstant",
                  "type": "bool"
                },
                {
                  "internalType": "uint8",
                  "name": "port",
                  "type": "uint8"
                },
                {
                  "internalType": "uint256",
                  "name": "key",
                  "type": "uint256"
                },
                {
                  "internalType": "uint256",
                  "name": "solverIndex",
                  "type": "uint256"
                },
                {
                  "internalType": "bytes",
                  "name": "data",
                  "type": "bytes"
                }
              ],
              "internalType": "struct Solver.Ingest[]",
              "name": "ingests",
              "type": "tuple[]"
            },
            {
              "components": [
                {
                  "internalType": "bool",
                  "name": "executed",
                  "type": "bool"
                },
                {
                  "internalType": "bool",
                  "name": "isPort",
                  "type": "bool"
                },
                {
                  "internalType": "address",
                  "name": "to",
                  "type": "address"
                },
                {
                  "internalType": "uint256",
                  "name": "portIndex",
                  "type": "uint256"
                },
                {
                  "internalType": "uint256",
                  "name": "value",
                  "type": "uint256"
                },
                {
                  "internalType": "bytes",
                  "name": "data",
                  "type": "bytes"
                }
              ],
              "internalType": "struct Solver.Action[]",
              "name": "actions",
              "type": "tuple[]"
            },
            {
              "components": [
                {
                  "internalType": "uint256",
                  "name": "outcomeSlots",
                  "type": "uint256"
                },
                {
                  "internalType": "uint256",
                  "name": "parentCollectionIdPort",
                  "type": "uint256"
                },
                {
                  "internalType": "uint256",
                  "name": "amount",
                  "type": "uint256"
                },
                {
                  "internalType": "uint256[]",
                  "name": "partition",
                  "type": "uint256[]"
                },
                {
                  "internalType": "uint256[][]",
                  "name": "recipientAddressPorts",
                  "type": "uint256[][]"
                },
                {
                  "internalType": "uint256[][]",
                  "name": "recipientAmounts",
                  "type": "uint256[][]"
                },
                {
                  "internalType": "string",
                  "name": "metadata",
                  "type": "string"
                }
              ],
              "internalType": "struct Solver.ConditionExecutor",
              "name": "canonConditionExecutor",
              "type": "tuple"
            }
          ],
          "internalType": "struct Solver.Config[]",
          "name": "_solverConfigs",
          "type": "tuple[]"
        }
      ],
      "name": "createSolution",
      "outputs": [
        {
          "internalType": "bytes32",
          "name": "_solutionId",
          "type": "bytes32"
        }
      ],
      "stateMutability": "nonpayable",
      "type": "function"
    },
    {
      "inputs": [
        {
          "internalType": "bytes32",
          "name": "_proposalId",
          "type": "bytes32"
        },
        {
          "internalType": "bytes32",
          "name": "_solutionId",
          "type": "bytes32"
        }
      ],
      "name": "executeSolution",
      "outputs": [],
      "stateMutability": "nonpayable",
      "type": "function"
    },
    {
      "inputs": [
        {
          "internalType": "bytes32",
          "name": "_id",
          "type": "bytes32"
        }
      ],
      "name": "getSolution",
      "outputs": [
        {
          "components": [
            {
              "internalType": "bool",
              "name": "executed",
              "type": "bool"
            },
            {
              "internalType": "contract IERC20",
              "name": "collateralToken",
              "type": "address"
            },
            {
              "internalType": "address",
              "name": "keeper",
              "type": "address"
            },
            {
              "internalType": "address",
              "name": "proposalHub",
              "type": "address"
            },
            {
              "internalType": "bytes32",
              "name": "proposalId",
              "type": "bytes32"
            },
            {
              "internalType": "bytes32",
              "name": "id",
              "type": "bytes32"
            },
            {
              "components": [
                {
                  "internalType": "contract SolverFactory",
                  "name": "factory",
                  "type": "address"
                },
                {
                  "internalType": "address",
                  "name": "keeper",
                  "type": "address"
                },
                {
                  "internalType": "address",
                  "name": "arbiter",
                  "type": "address"
                },
                {
                  "internalType": "uint256",
                  "name": "timelockSeconds",
                  "type": "uint256"
                },
                {
                  "internalType": "bytes",
                  "name": "data",
                  "type": "bytes"
                },
                {
                  "components": [
                    {
                      "internalType": "bool",
                      "name": "executed",
                      "type": "bool"
                    },
                    {
                      "internalType": "bool",
                      "name": "isConstant",
                      "type": "bool"
                    },
                    {
                      "internalType": "uint8",
                      "name": "port",
                      "type": "uint8"
                    },
                    {
                      "internalType": "uint256",
                      "name": "key",
                      "type": "uint256"
                    },
                    {
                      "internalType": "uint256",
                      "name": "solverIndex",
                      "type": "uint256"
                    },
                    {
                      "internalType": "bytes",
                      "name": "data",
                      "type": "bytes"
                    }
                  ],
                  "internalType": "struct Solver.Ingest[]",
                  "name": "ingests",
                  "type": "tuple[]"
                },
                {
                  "components": [
                    {
                      "internalType": "bool",
                      "name": "executed",
                      "type": "bool"
                    },
                    {
                      "internalType": "bool",
                      "name": "isPort",
                      "type": "bool"
                    },
                    {
                      "internalType": "address",
                      "name": "to",
                      "type": "address"
                    },
                    {
                      "internalType": "uint256",
                      "name": "portIndex",
                      "type": "uint256"
                    },
                    {
                      "internalType": "uint256",
                      "name": "value",
                      "type": "uint256"
                    },
                    {
                      "internalType": "bytes",
                      "name": "data",
                      "type": "bytes"
                    }
                  ],
                  "internalType": "struct Solver.Action[]",
                  "name": "actions",
                  "type": "tuple[]"
                },
                {
                  "components": [
                    {
                      "internalType": "uint256",
                      "name": "outcomeSlots",
                      "type": "uint256"
                    },
                    {
                      "internalType": "uint256",
                      "name": "parentCollectionIdPort",
                      "type": "uint256"
                    },
                    {
                      "internalType": "uint256",
                      "name": "amount",
                      "type": "uint256"
                    },
                    {
                      "internalType": "uint256[]",
                      "name": "partition",
                      "type": "uint256[]"
                    },
                    {
                      "internalType": "uint256[][]",
                      "name": "recipientAddressPorts",
                      "type": "uint256[][]"
                    },
                    {
                      "internalType": "uint256[][]",
                      "name": "recipientAmounts",
                      "type": "uint256[][]"
                    },
                    {
                      "internalType": "string",
                      "name": "metadata",
                      "type": "string"
                    }
                  ],
                  "internalType": "struct Solver.ConditionExecutor",
                  "name": "canonConditionExecutor",
                  "type": "tuple"
                }
              ],
              "internalType": "struct Solver.Config[]",
              "name": "solverConfigs",
              "type": "tuple[]"
            },
            {
              "internalType": "address[]",
              "name": "solverAddresses",
              "type": "address[]"
            }
          ],
          "internalType": "struct SolutionsHub.Solution",
          "name": "solution",
          "type": "tuple"
        }
      ],
      "stateMutability": "view",
      "type": "function"
    },
    {
      "inputs": [
        {
          "internalType": "bytes32",
          "name": "_proposalId",
          "type": "bytes32"
        },
        {
          "internalType": "bytes32",
          "name": "_solutionId",
          "type": "bytes32"
        }
      ],
      "name": "linkToProposal",
      "outputs": [],
      "stateMutability": "nonpayable",
      "type": "function"
    },
    {
      "inputs": [
        {
          "internalType": "bytes32",
          "name": "_solutionId",
          "type": "bytes32"
        },
        {
          "components": [
            {
              "internalType": "contract SolverFactory",
              "name": "factory",
              "type": "address"
            },
            {
              "internalType": "address",
              "name": "keeper",
              "type": "address"
            },
            {
              "internalType": "address",
              "name": "arbiter",
              "type": "address"
            },
            {
              "internalType": "uint256",
              "name": "timelockSeconds",
              "type": "uint256"
            },
            {
              "internalType": "bytes",
              "name": "data",
              "type": "bytes"
            },
            {
              "components": [
                {
                  "internalType": "bool",
                  "name": "executed",
                  "type": "bool"
                },
                {
                  "internalType": "bool",
                  "name": "isConstant",
                  "type": "bool"
                },
                {
                  "internalType": "uint8",
                  "name": "port",
                  "type": "uint8"
                },
                {
                  "internalType": "uint256",
                  "name": "key",
                  "type": "uint256"
                },
                {
                  "internalType": "uint256",
                  "name": "solverIndex",
                  "type": "uint256"
                },
                {
                  "internalType": "bytes",
                  "name": "data",
                  "type": "bytes"
                }
              ],
              "internalType": "struct Solver.Ingest[]",
              "name": "ingests",
              "type": "tuple[]"
            },
            {
              "components": [
                {
                  "internalType": "bool",
                  "name": "executed",
                  "type": "bool"
                },
                {
                  "internalType": "bool",
                  "name": "isPort",
                  "type": "bool"
                },
                {
                  "internalType": "address",
                  "name": "to",
                  "type": "address"
                },
                {
                  "internalType": "uint256",
                  "name": "portIndex",
                  "type": "uint256"
                },
                {
                  "internalType": "uint256",
                  "name": "value",
                  "type": "uint256"
                },
                {
                  "internalType": "bytes",
                  "name": "data",
                  "type": "bytes"
                }
              ],
              "internalType": "struct Solver.Action[]",
              "name": "actions",
              "type": "tuple[]"
            },
            {
              "components": [
                {
                  "internalType": "uint256",
                  "name": "outcomeSlots",
                  "type": "uint256"
                },
                {
                  "internalType": "uint256",
                  "name": "parentCollectionIdPort",
                  "type": "uint256"
                },
                {
                  "internalType": "uint256",
                  "name": "amount",
                  "type": "uint256"
                },
                {
                  "internalType": "uint256[]",
                  "name": "partition",
                  "type": "uint256[]"
                },
                {
                  "internalType": "uint256[][]",
                  "name": "recipientAddressPorts",
                  "type": "uint256[][]"
                },
                {
                  "internalType": "uint256[][]",
                  "name": "recipientAmounts",
                  "type": "uint256[][]"
                },
                {
                  "internalType": "string",
                  "name": "metadata",
                  "type": "string"
                }
              ],
              "internalType": "struct Solver.ConditionExecutor",
              "name": "canonConditionExecutor",
              "type": "tuple"
            }
          ],
          "internalType": "struct Solver.Config[]",
          "name": "_solverConfigs",
          "type": "tuple[]"
        }
      ],
      "name": "setSolverConfigs",
      "outputs": [],
      "stateMutability": "nonpayable",
      "type": "function"
    },
    {
      "inputs": [
        {
          "internalType": "bytes32",
          "name": "_solutionId",
          "type": "bytes32"
        },
        {
          "internalType": "uint256",
          "name": "_index",
          "type": "uint256"
        }
      ],
      "name": "solverFromIndex",
      "outputs": [
        {
          "internalType": "address",
          "name": "solver",
          "type": "address"
        }
      ],
      "stateMutability": "view",
      "type": "function"
    }
  ],
  "bytecode": "0x60806040523480156200001157600080fd5b50604051620029273803806200292783398101604081905262000034916200005a565b600080546001600160a01b0319166001600160a01b03929092169190911790556200008a565b6000602082840312156200006c578081fd5b81516001600160a01b038116811462000083578182fd5b9392505050565b61288d806200009a6000396000f3fe608060405234801561001057600080fd5b506004361061007d5760003560e01c80636e4e841f1161005b5780636e4e841f146100c857806373c587f5146100db578063a9be1f91146100ee578063ddc02e031461010e5761007d565b8063191481a0146100825780635bd9e299146100ab57806360bbb928146100b3575b600080fd5b6100956100903660046113c1565b61012e565b6040516100a29190611ab4565b60405180910390f35b61009561017b565b6100c66100c13660046113c1565b61018a565b005b6100c66100d6366004611377565b6105e7565b6100c66100e93660046113c1565b6106cc565b6101016100fc3660046113e2565b61079c565b6040516100a29190611ac8565b61012161011c36600461135f565b6108e7565b6040516100a29190611db0565b600082815260016020526040812060060180548390811061015f57634e487b7160e01b600052603260045260246000fd5b6000918252602090912001546001600160a01b03169392505050565b6000546001600160a01b031681565b6000818152600160205260409020600201546001600160a01b031633146101cc5760405162461bcd60e51b81526004016101c390611d42565b60405180910390fd5b60008181526001602052604090206003015482146101fc5760405162461bcd60e51b81526004016101c390611c51565b60008181526001602052604090205460ff161561022b5760405162461bcd60e51b81526004016101c390611c1a565b60008181526001602081905260408220805460ff191690911790555b60008281526001602052604090206005015481101561040957600082815260016020526040812060050180548390811061029157634e487b7160e01b600052603260045260246000fd5b60009182526020808320600e9092029091015485835260019091526040822080546002820154600590920180546001600160a01b039485169650869463fd8cc50c946101009094048116938a939116913091908a90811061030257634e487b7160e01b600052603260045260246000fd5b90600052602060002090600e02016040518663ffffffff1660e01b8152600401610330959493929190611ae8565b602060405180830381600087803b15801561034a57600080fd5b505af115801561035e573d6000803e3d6000fd5b505050506040513d601f19601f820116820180604052508101906103829190611320565b90506001600160a01b0381166103aa5760405162461bcd60e51b81526004016101c390611be3565b600084815260016020818152604080842060060180549384018155845281842090920180546001600160a01b039095166001600160a01b0319909516851790559282526002909252208390555080610401816123a1565b915050610247565b5060008181526001602052604081206006018054339263c13784f792869290919061044457634e487b7160e01b600052603260045260246000fd5b6000918252602090912001546040517fffffffff0000000000000000000000000000000000000000000000000000000060e085901b16815261049392916001600160a01b031690600401611ad1565b600060405180830381600087803b1580156104ad57600080fd5b505af11580156104c1573d6000803e3d6000fd5b5050505060005b6000828152600160205260409020600501548110156105e257600082815260016020526040812060060180548390811061051257634e487b7160e01b600052603260045260246000fd5b60009182526020808320909101548583526001909152604090912060060180546001600160a01b03909216925061057b918490811061056157634e487b7160e01b600052603260045260246000fd5b6000918252602090912001546001600160a01b0316610fa6565b806001600160a01b0316633a275fa26040518163ffffffff1660e01b8152600401600060405180830381600087803b1580156105b657600080fd5b505af11580156105ca573d6000803e3d6000fd5b505050505080806105da906123a1565b9150506104c8565b505050565b6000838152600160208190526040909120015483906001600160a01b031633146106235760405162461bcd60e51b81526004016101c390611d79565b60008481526001602052604081206106409160059091019061103b565b60005b828110156106c557600085815260016020526040902060050184848381811061067c57634e487b7160e01b600052603260045260246000fd5b905060200281019061068e9190611f0e565b8154600181018355600092835260209092209091600e02016106b082826125f7565b505080806106bd906123a1565b915050610643565b5050505050565b6040517fd3f79a05000000000000000000000000000000000000000000000000000000008152339063d3f79a0590610708908590600401611ac8565b60206040518083038186803b15801561072057600080fd5b505afa158015610734573d6000803e3d6000fd5b505050506040513d601f19601f820116820180604052508101906107589190611343565b6107745760405162461bcd60e51b81526004016101c390611ce5565b60009081526001602052604090206002810180546001600160a01b0319163317905560030155565b6000848152600160205260408120600401548514156107cd5760405162461bcd60e51b81526004016101c390611c88565b600085815260016020819052604082206004810188905590810180546001600160a01b0319163317905580546001600160a01b038716610100027fffffffffffffffffffffff0000000000000000000000000000000000000000ff909116178155905b838110156108a5578160050185858381811061085c57634e487b7160e01b600052603260045260246000fd5b905060200281019061086e9190611f0e565b8154600181018355600092835260209092209091600e020161089082826125f7565b5050808061089d906123a1565b915050610830565b507faf58c2d61bce90c15ecad6e5142ecbbb0b542b557388df7578e0162b098999a3866040516108d59190611ac8565b60405180910390a15093949350505050565b6108ef61105c565b600082815260016020818152604080842081516101008082018452825460ff811615158352046001600160a01b0390811682860152948201548516818401526002820154909416606085015260038101546080850152600481015460a08501526005810180548351818602810186019094528084529495919460c08701949192909184015b82821015610f355760008481526020908190206040805161010081018252600e860290920180546001600160a01b0390811684526001820154811694840194909452600281015490931690820152600382015460608201526004820180549192916080840191906109e490612353565b80601f0160208091040260200160405190810160405280929190818152602001828054610a1090612353565b8015610a5d5780601f10610a3257610100808354040283529160200191610a5d565b820191906000526020600020905b815481529060010190602001808311610a4057829003601f168201915b5050505050815260200160058201805480602002602001604051908101604052809291908181526020016000905b82821015610b945760008481526020908190206040805160c08101825260048602909201805460ff808216151585526101008204811615159585019590955262010000900490931690820152600182015460608201526002820154608082015260038201805491929160a084019190610b0390612353565b80601f0160208091040260200160405190810160405280929190818152602001828054610b2f90612353565b8015610b7c5780601f10610b5157610100808354040283529160200191610b7c565b820191906000526020600020905b815481529060010190602001808311610b5f57829003601f168201915b50505050508152505081526020019060010190610a8b565b50505050815260200160068201805480602002602001604051908101604052809291908181526020016000905b82821015610cd05760008481526020908190206040805160c08101825260048602909201805460ff80821615158552610100820416151594840194909452620100009093046001600160a01b031690820152600182015460608201526002820154608082015260038201805491929160a084019190610c3f90612353565b80601f0160208091040260200160405190810160405280929190818152602001828054610c6b90612353565b8015610cb85780601f10610c8d57610100808354040283529160200191610cb8565b820191906000526020600020905b815481529060010190602001808311610c9b57829003601f168201915b50505050508152505081526020019060010190610bc1565b505050508152602001600782016040518060e001604052908160008201548152602001600182015481526020016002820154815260200160038201805480602002602001604051908101604052809291908181526020018280548015610d5557602002820191906000526020600020905b815481526020019060010190808311610d41575b5050505050815260200160048201805480602002602001604051908101604052809291908181526020016000905b82821015610def57600084815260209081902083018054604080518285028101850190915281815292830182828015610ddb57602002820191906000526020600020905b815481526020019060010190808311610dc7575b505050505081526020019060010190610d83565b50505050815260200160058201805480602002602001604051908101604052809291908181526020016000905b82821015610e8857600084815260209081902083018054604080518285028101850190915281815292830182828015610e7457602002820191906000526020600020905b815481526020019060010190808311610e60575b505050505081526020019060010190610e1c565b505050508152602001600682018054610ea090612353565b80601f0160208091040260200160405190810160405280929190818152602001828054610ecc90612353565b8015610f195780601f10610eee57610100808354040283529160200191610f19565b820191906000526020600020905b815481529060010190602001808311610efc57829003601f168201915b5050505050815250508152505081526020019060010190610974565b50505050815260200160068201805480602002602001604051908101604052809291908181526020018280548015610f9657602002820191906000526020600020905b81546001600160a01b03168152600190910190602001808311610f78575b5050505050815250509050919050565b61101781604051602401610fba9190611ab4565b60408051601f198184030181529190526020810180517bffffffffffffffffffffffffffffffffffffffffffffffffffffffff167f2c2ecbc20000000000000000000000000000000000000000000000000000000017905261101a565b50565b80516a636f6e736f6c652e6c6f67602083016000808483855afa5050505050565b50805460008255600e029060005260206000209081019061101791906110a2565b604080516101008101825260008082526020820181905291810182905260608082018390526080820183905260a082019290925260c0810182905260e081019190915290565b8082111561115b5780546001600160a01b031990811682556001820180548216905560028201805490911690556000600382018190556110e5600483018261115f565b6110f360058301600061119b565b6111016006830160006111bc565b600060078301818155600884018290556009840182905590611126600a8501826111dd565b6111346004830160006111fb565b6111426005830160006111fb565b61115060068301600061115f565b505050600e016110a2565b5090565b50805461116b90612353565b6000825580601f1061117d5750611017565b601f0160209004906000526020600020908101906110179190611219565b5080546000825560040290600052602060002090810190611017919061122e565b50805460008255600402906000526020600020908101906110179190611266565b50805460008255906000526020600020908101906110179190611219565b508054600082559060005260206000209081019061101791906112ba565b5b8082111561115b576000815560010161121a565b8082111561115b57805462ffffff191681556000600182018190556002820181905561125d600383018261115f565b5060040161122e565b8082111561115b5780547fffffffffffffffffffff00000000000000000000000000000000000000000000168155600060018201819055600282018190556112b1600383018261115f565b50600401611266565b8082111561115b5760006112ce82826111dd565b506001016112ba565b60008083601f8401126112e8578182fd5b50813567ffffffffffffffff8111156112ff578182fd5b602083019150836020808302850101111561131957600080fd5b9250929050565b600060208284031215611331578081fd5b815161133c81612834565b9392505050565b600060208284031215611354578081fd5b815161133c81612849565b600060208284031215611370578081fd5b5035919050565b60008060006040848603121561138b578182fd5b83359250602084013567ffffffffffffffff8111156113a8578283fd5b6113b4868287016112d7565b9497909650939450505050565b600080604083850312156113d3578182fd5b50508035926020909101359150565b600080600080606085870312156113f7578081fd5b84359350602085013561140981612834565b9250604085013567ffffffffffffffff811115611424578182fd5b611430878288016112d7565b95989497509550505050565b6001600160a01b03169052565b6000815180845260208085019450808401835b838110156114815781516001600160a01b03168752958201959082019060010161145c565b509495945050505050565b60008282518085526020808601955080818302840101818601855b848110156114d557601f198684030189526114c383835161187f565b988401989250908301906001016114a7565b5090979650505050505050565b60008282548085526020808601955080818302840101858552818520855b848110156114d557858303601f1901895261151b83836118ae565b98840198925060019182019101611500565b6000815180845260208085018081965082840281019150828601855b858110156115be5782840389528151805115158552858101511515868601526040808201516001600160a01b031690860152606080820151908601526080808201519086015260a09081015160c0918601829052906115aa818701836118e6565b9a87019a9550505090840190600101611549565b5091979650505050505050565b6000815480845260208085018081965082840281019150858552828520855b858110156115be57828403895260c0825460ff80821615158752611615888801828460081c166118e0565b5061162f604087016001600160a01b038360101c1661143c565b5060018301546060860152600283015460808601528060a086015261165981860160038501611931565b99860199945050600491909101906001016115ea565b6000815180845260208085018081965082840281019150828601855b858110156115be57828403895281516101006116a886835161143c565b868201516116b88888018261143c565b506040808301516116cb8289018261143c565b5050606080830151818801525060808083015182828901526116ef838901826118e6565b9250505060a0808301518783038289015261170a8382611757565b9250505060c08083015187830382890152611725838261152d565b9250505060e0808301519250868203818801525061174381836119a8565b9a87019a955050509084019060010161168b565b6000815180845260208085018081965082840281019150828601855b858110156115be57828403895281518051151585528581015115158686015260408082015160ff1690860152606080820151908601526080808201519086015260a09081015160c0918601829052906117ce818701836118e6565b9a87019a9550505090840190600101611773565b6000815480845260208085018081965082840281019150858552828520855b858110156115be57828403895260c0825460ff8082161515875261182c888801828460081c166118e0565b61183e60408801828460101c16611aad565b505060018301546060860152600283015460808601528060a086015261186981860160038501611931565b9986019994505060049190910190600101611801565b6000815180845260208085019450808401835b8381101561148157815187529582019590820190600101611892565b6000815480845260208085019450838352808320835b83811015611481578154875295820195600191820191016118c4565b15159052565b60008151808452815b8181101561190b576020818501810151868301820152016118ef565b8181111561191c5782602083870101525b50601f01601f19169290920160200192915050565b6000815461193e81612353565b80855260206001838116801561195b576001811461196f5761199d565b60ff1985168884015260408801955061199d565b866000528260002060005b858110156119955781548a820186015290830190840161197a565b890184019650505b505050505092915050565b6000815183526020820151602084015260408201516040840152606082015160e060608501526119db60e085018261187f565b9050608083015184820360808601526119f4828261148c565b91505060a083015184820360a0860152611a0e828261148c565b91505060c083015184820360c0860152611a2882826118e6565b95945050505050565b600081548352600182015460208401526002820154604084015260e06060840152611a6260e08401600384016118ae565b8381036080850152611a7781600485016114e2565b905083810360a0850152611a8e81600585016114e2565b905083810360c0850152611aa58160068501611931565b949350505050565b60ff169052565b6001600160a01b0391909116815260200190565b90815260200190565b9182526001600160a01b0316602082015260400190565b60006001600160a01b038088168352866020840152808616604084015280851660608401525060a06080830152611b2b60a08301611b268554611f2f565b61143c565b611b386001840154611f2f565b611b4560c084018261143c565b50611b536002840154611f2f565b611b6060e084018261143c565b50600383015461010083810191909152610120830152611b876101a0830160048501611931565b609f198084830301610140850152611ba282600587016117e2565b91508084830301610160850152611bbc82600687016115cb565b9150808483030161018085015250611bd78160078601611a31565b98975050505050505050565b6020808252600f908201527f496e76616c696420616464726573730000000000000000000000000000000000604082015260600190565b60208082526019908201527f536f6c7574696f6e20616c726561647920657865637574656400000000000000604082015260600190565b60208082526010908201527f57726f6e672070726f706f73616c496400000000000000000000000000000000604082015260600190565b60208082526024908201527f536f6c7574696f6e734875623a3a5468697320494420616c726561647920657860408201527f6973747300000000000000000000000000000000000000000000000000000000606082015260800190565b60208082526024908201527f50726f706f73616c206973206e6f742076616c69642061742070726f706f736160408201527f6c48756200000000000000000000000000000000000000000000000000000000606082015260800190565b60208082526017908201527f4e6f7420636f72726563742070726f706f73616c487562000000000000000000604082015260600190565b60208082526018908201527f536f6c7574696f6e734875623a206f6e6c794b65657065720000000000000000604082015260600190565b6000602082528251151560208301526020830151611dd1604084018261143c565b506040830151611de4606084018261143c565b506060830151611df7608084018261143c565b50608083015160a083015260a083015160c083015260c08301516101008060e0850152611e2861012085018361166f565b915060e0850151601f198584030182860152611e448382611449565b9695505050505050565b6000808335601e19843603018112611e64578283fd5b83018035915067ffffffffffffffff821115611e7e578283fd5b602090810192508102360382131561131957600080fd5b6000808335601e19843603018112611eab578283fd5b83018035915067ffffffffffffffff821115611ec5578283fd5b60200191503681900382131561131957600080fd5b6000823560be19833603018112611eef578182fd5b9190910192915050565b6000823560de19833603018112611eef578182fd5b6000823560fe19833603018112611eef578182fd5b60009081526020902090565b6001600160a01b031690565b5b81811015611f505760008155600101611f3c565b5050565b600080825580600183015580600283015560038201611f738154612353565b8015611fb957601f811160018114611f8d578383556106c5565b82845260208420611fa96020601f850104820160018301611f3b565b5082845260208420848455849055505b50505050565b68010000000000000000831115611fd857611fd86123e8565b805483825580841015612016576000828152602081208581019083015b80821015612012576120078383612411565b600182019150611ff5565b5050505b508161202182611f23565b6000805b86811015612058576120378487611e4e565b612043818386886126d4565b50506020939093019260019283019201612025565b50505050505050565b6801000000000000000083111561207a5761207a6123e8565b805483825580841015612103577f3fffffffffffffffffffffffffffffffffffffffffffffffffffffffffffffff808211600116156120bb576120bb6123d2565b6004818611600116156120d0576120d06123d2565b60008481526020902086820281019250818402015b808310156120ff576120f683611f54565b918101916120e5565b5050505b508161210e82611f23565b6000805b868110156120585761212e6121278588611eda565b83856126ed565b6020939093019260049290920191600101612112565b6801000000000000000083111561215d5761215d6123e8565b8054838255808410156121e6577f3fffffffffffffffffffffffffffffffffffffffffffffffffffffffffffffff8082116001161561219e5761219e6123d2565b6004818611600116156121b3576121b36123d2565b60008481526020902086820281019250818402015b808310156121e2576121d983611f54565b918101916121c8565b5050505b50816121f182611f23565b6000805b868110156120585761221161220a8588611eda565b83856127ac565b60209390930192600492909201916001016121f5565b6122318382612411565b818160005260208060002060005b868110156120585783358255928201926001918201910161223f565b67ffffffffffffffff831115612273576122736123e8565b61227d8154612353565b600080601f8611601f84118181171561229c5761229986611f23565b92505b80156122cb576020601f890104830160208910156122b75750825b6122c96020601f880104850182611f3b565b505b5080600181146122f7576000945087156122e6578387013594505b6122f0888661238e565b8655612349565b601f198816945082845b868110156123215788860135825560209586019560019092019101612301565b508886101561233e57878501356000196008601f8c16021c191681555b506001600289020186555b5050505050505050565b60028104600182168061236757607f821691505b6020821081141561238857634e487b7160e01b600052602260045260246000fd5b50919050565b600019600883021c191660029091021790565b60006000198214156123b5576123b56123d2565b5060010190565b634e487b7160e01b600052600060045260246000fd5b634e487b7160e01b600052601160045260246000fd5b634e487b7160e01b600052604160045260246000fd5b6000813561240b81612834565b92915050565b6801000000000000000082111561242a5761242a6123e8565b8054828255808310156105e257816000526020600020611fb9828201858301611f3b565b6001600160a01b0382166001600160a01b03198254161781555050565b60ff1981541660ff8315151681178255505050565b81358155600160208084013582840155604084013560028401556124a76060850185611e4e565b6124b5818360038801612227565b50506124c46080850185611e4e565b6124d2818360048801611fbf565b50506124e160a0850185611e4e565b6124ef818360058801611fbf565b50506006830161250260c0860186611e95565b67ffffffffffffffff81111561251a5761251a6123e8565b6125248354612353565b600080601f8411601f8411818117156125435761254088611f23565b92505b801561256f5788601f87010483018987101561255c5750825b61256d8a601f880104850182611f3b565b505b50806001811461259b5760009450851561258a578387013594505b612594868661238e565b88556125e9565b601f198616945082845b868110156125c257888601358255948a0194908b01908a016125a5565b50868610156125df57878501356000196008601f8a16021c191681555b5089600287020188555b505050505050505050505050565b813561260281612834565b61260c818361244e565b50602082013561261b81612834565b612628816001840161244e565b50612641612638604084016123fe565b6002830161244e565b606082013560038201556126586080830183611e95565b61266681836004860161225b565b505061267560a0830183611e4e565b612683818360058601612144565b505061269260c0830183611e4e565b6126a0818360068601612061565b5050611f506126b260e0840184611ef9565b60078301612480565b805461ff00191691151560081b61ff0016919091179055565b81156126e2576126e26123bc565b611fb9848483612227565b81156126fb576126fb6123bc565b823561270681612849565b612710818361246b565b50602083013561271f81612849565b61272981836126bb565b50604083013561273881612834565b81547fffffffffffffffffffff0000000000000000000000000000000000000000ffff1660109190911b75ffffffffffffffffffffffffffffffffffffffff000016178155606083013560018201556080830135600282015561279e60a0840184611e95565b6106c581836003860161225b565b81156127ba576127ba6123bc565b82356127c581612849565b6127cf818361246b565b5060208301356127de81612849565b6127e881836126bb565b50604083013560ff811681146127fd57600080fd5b815462ff0000191660109190911b62ff000016178155606083013560018201556080830135600282015561279e60a0840184611e95565b6001600160a01b038116811461101757600080fd5b801515811461101757600080fdfea26469706673582212208c2ca991e8f4f8312f29cd5364b6af56929a97106262d2483f4eb94ff116436764736f6c63430008000033",
  "linkReferences": {},
  "deployedLinkReferences": {}
}