{
  "_format": "hh-sol-artifact-1",
  "contractName": "SolutionsHub",
  "sourceName": "contracts/SolutionsHub.sol",
  "abi": [
    {
      "inputs": [
        {
          "internalType": "contract ConditionalTokens",
          "name": "_conditionalTokens",
          "type": "address"
        }
      ],
      "stateMutability": "nonpayable",
      "type": "constructor"
    },
    {
      "anonymous": false,
      "inputs": [
        {
          "indexed": false,
          "internalType": "bytes32",
          "name": "id",
          "type": "bytes32"
        }
      ],
      "name": "CreateSolution",
      "type": "event"
    },
    {
      "inputs": [
        {
          "internalType": "bytes32",
          "name": "_solutionId",
          "type": "bytes32"
        }
      ],
      "name": "childSolver",
      "outputs": [
        {
          "internalType": "address",
          "name": "solver",
          "type": "address"
        }
      ],
      "stateMutability": "view",
      "type": "function"
    },
    {
      "inputs": [],
      "name": "conditionalTokens",
      "outputs": [
        {
          "internalType": "contract ConditionalTokens",
          "name": "",
          "type": "address"
        }
      ],
      "stateMutability": "view",
      "type": "function"
    },
    {
      "inputs": [
        {
          "internalType": "bytes32",
          "name": "_id",
          "type": "bytes32"
        },
        {
          "internalType": "contract IERC20",
          "name": "_collateralToken",
          "type": "address"
        },
        {
          "components": [
            {
              "internalType": "contract SolverFactory",
              "name": "factory",
              "type": "address"
            },
            {
              "internalType": "address",
              "name": "keeper",
              "type": "address"
            },
            {
              "internalType": "address",
              "name": "arbiter",
              "type": "address"
            },
            {
              "internalType": "uint256",
              "name": "timelockSeconds",
              "type": "uint256"
            },
            {
              "internalType": "bytes",
              "name": "data",
              "type": "bytes"
            },
            {
              "components": [
                {
                  "internalType": "uint256",
                  "name": "executions",
                  "type": "uint256"
                },
                {
                  "internalType": "bool",
                  "name": "isDeferred",
                  "type": "bool"
                },
                {
                  "internalType": "bool",
                  "name": "isConstant",
                  "type": "bool"
                },
                {
                  "internalType": "uint8",
                  "name": "port",
                  "type": "uint8"
                },
                {
                  "internalType": "uint256",
                  "name": "key",
                  "type": "uint256"
                },
                {
                  "internalType": "uint256",
                  "name": "solverIndex",
                  "type": "uint256"
                },
                {
                  "internalType": "bytes",
                  "name": "data",
                  "type": "bytes"
                }
              ],
              "internalType": "struct Solver.Ingest[]",
              "name": "ingests",
              "type": "tuple[]"
            },
            {
              "components": [
                {
                  "internalType": "bool",
                  "name": "executed",
                  "type": "bool"
                },
                {
                  "internalType": "bool",
                  "name": "isPort",
                  "type": "bool"
                },
                {
                  "internalType": "address",
                  "name": "to",
                  "type": "address"
                },
                {
                  "internalType": "uint256",
                  "name": "portIndex",
                  "type": "uint256"
                },
                {
                  "internalType": "uint256",
                  "name": "value",
                  "type": "uint256"
                },
                {
                  "internalType": "bytes",
                  "name": "data",
                  "type": "bytes"
                }
              ],
              "internalType": "struct Solver.Action[]",
              "name": "actions",
              "type": "tuple[]"
            },
            {
              "components": [
                {
                  "internalType": "uint256",
                  "name": "outcomeSlots",
                  "type": "uint256"
                },
                {
                  "internalType": "uint256",
                  "name": "parentCollectionPartitionIndex",
                  "type": "uint256"
                },
                {
                  "internalType": "uint256",
                  "name": "amount",
                  "type": "uint256"
                },
                {
                  "internalType": "uint256[]",
                  "name": "partition",
                  "type": "uint256[]"
                },
                {
                  "internalType": "uint256[][]",
                  "name": "recipientAddressPorts",
                  "type": "uint256[][]"
                },
                {
                  "internalType": "uint256[][]",
                  "name": "recipientAmounts",
                  "type": "uint256[][]"
                },
                {
                  "internalType": "string",
                  "name": "metadata",
                  "type": "string"
                }
              ],
              "internalType": "struct Solver.ConditionBase",
              "name": "conditionBase",
              "type": "tuple"
            }
          ],
          "internalType": "struct Solver.Config[]",
          "name": "_solverConfigs",
          "type": "tuple[]"
        }
      ],
      "name": "createSolution",
      "outputs": [
        {
          "internalType": "bytes32",
          "name": "_solutionId",
          "type": "bytes32"
        }
      ],
      "stateMutability": "nonpayable",
      "type": "function"
    },
    {
      "inputs": [
        {
          "internalType": "bytes32",
          "name": "_proposalId",
          "type": "bytes32"
        },
        {
          "internalType": "bytes32",
          "name": "_solutionId",
          "type": "bytes32"
        }
      ],
      "name": "executeSolution",
      "outputs": [],
      "stateMutability": "nonpayable",
      "type": "function"
    },
    {
      "inputs": [
        {
          "internalType": "bytes32",
          "name": "_id",
          "type": "bytes32"
        }
      ],
      "name": "getSolution",
      "outputs": [
        {
          "components": [
            {
              "internalType": "bool",
              "name": "executed",
              "type": "bool"
            },
            {
              "internalType": "contract IERC20",
              "name": "collateralToken",
              "type": "address"
            },
            {
              "internalType": "address",
              "name": "keeper",
              "type": "address"
            },
            {
              "internalType": "address",
              "name": "proposalHub",
              "type": "address"
            },
            {
              "internalType": "bytes32",
              "name": "proposalId",
              "type": "bytes32"
            },
            {
              "internalType": "bytes32",
              "name": "id",
              "type": "bytes32"
            },
            {
              "components": [
                {
                  "internalType": "contract SolverFactory",
                  "name": "factory",
                  "type": "address"
                },
                {
                  "internalType": "address",
                  "name": "keeper",
                  "type": "address"
                },
                {
                  "internalType": "address",
                  "name": "arbiter",
                  "type": "address"
                },
                {
                  "internalType": "uint256",
                  "name": "timelockSeconds",
                  "type": "uint256"
                },
                {
                  "internalType": "bytes",
                  "name": "data",
                  "type": "bytes"
                },
                {
                  "components": [
                    {
                      "internalType": "uint256",
                      "name": "executions",
                      "type": "uint256"
                    },
                    {
                      "internalType": "bool",
                      "name": "isDeferred",
                      "type": "bool"
                    },
                    {
                      "internalType": "bool",
                      "name": "isConstant",
                      "type": "bool"
                    },
                    {
                      "internalType": "uint8",
                      "name": "port",
                      "type": "uint8"
                    },
                    {
                      "internalType": "uint256",
                      "name": "key",
                      "type": "uint256"
                    },
                    {
                      "internalType": "uint256",
                      "name": "solverIndex",
                      "type": "uint256"
                    },
                    {
                      "internalType": "bytes",
                      "name": "data",
                      "type": "bytes"
                    }
                  ],
                  "internalType": "struct Solver.Ingest[]",
                  "name": "ingests",
                  "type": "tuple[]"
                },
                {
                  "components": [
                    {
                      "internalType": "bool",
                      "name": "executed",
                      "type": "bool"
                    },
                    {
                      "internalType": "bool",
                      "name": "isPort",
                      "type": "bool"
                    },
                    {
                      "internalType": "address",
                      "name": "to",
                      "type": "address"
                    },
                    {
                      "internalType": "uint256",
                      "name": "portIndex",
                      "type": "uint256"
                    },
                    {
                      "internalType": "uint256",
                      "name": "value",
                      "type": "uint256"
                    },
                    {
                      "internalType": "bytes",
                      "name": "data",
                      "type": "bytes"
                    }
                  ],
                  "internalType": "struct Solver.Action[]",
                  "name": "actions",
                  "type": "tuple[]"
                },
                {
                  "components": [
                    {
                      "internalType": "uint256",
                      "name": "outcomeSlots",
                      "type": "uint256"
                    },
                    {
                      "internalType": "uint256",
                      "name": "parentCollectionPartitionIndex",
                      "type": "uint256"
                    },
                    {
                      "internalType": "uint256",
                      "name": "amount",
                      "type": "uint256"
                    },
                    {
                      "internalType": "uint256[]",
                      "name": "partition",
                      "type": "uint256[]"
                    },
                    {
                      "internalType": "uint256[][]",
                      "name": "recipientAddressPorts",
                      "type": "uint256[][]"
                    },
                    {
                      "internalType": "uint256[][]",
                      "name": "recipientAmounts",
                      "type": "uint256[][]"
                    },
                    {
                      "internalType": "string",
                      "name": "metadata",
                      "type": "string"
                    }
                  ],
                  "internalType": "struct Solver.ConditionBase",
                  "name": "conditionBase",
                  "type": "tuple"
                }
              ],
              "internalType": "struct Solver.Config[]",
              "name": "solverConfigs",
              "type": "tuple[]"
            },
            {
              "internalType": "address[]",
              "name": "solverAddresses",
              "type": "address[]"
            }
          ],
          "internalType": "struct SolutionsHub.Solution",
          "name": "solution",
          "type": "tuple"
        }
      ],
      "stateMutability": "view",
      "type": "function"
    },
    {
      "inputs": [
        {
          "internalType": "bytes32",
          "name": "_id",
          "type": "bytes32"
        }
      ],
      "name": "getSolutionSolverAddresses",
      "outputs": [
        {
          "internalType": "address[]",
          "name": "_addresses",
          "type": "address[]"
        }
      ],
      "stateMutability": "view",
      "type": "function"
    },
    {
      "inputs": [
        {
          "internalType": "bytes32",
          "name": "_proposalId",
          "type": "bytes32"
        },
        {
          "internalType": "bytes32",
          "name": "_solutionId",
          "type": "bytes32"
        }
      ],
      "name": "linkToProposal",
      "outputs": [],
      "stateMutability": "nonpayable",
      "type": "function"
    },
    {
      "inputs": [
        {
          "internalType": "bytes32",
          "name": "_solutionId",
          "type": "bytes32"
        }
      ],
      "name": "parentSolver",
      "outputs": [
        {
          "internalType": "address",
          "name": "solver",
          "type": "address"
        }
      ],
      "stateMutability": "view",
      "type": "function"
    },
    {
      "inputs": [
        {
          "internalType": "bytes32",
          "name": "_solutionId",
          "type": "bytes32"
        },
        {
          "components": [
            {
              "internalType": "contract SolverFactory",
              "name": "factory",
              "type": "address"
            },
            {
              "internalType": "address",
              "name": "keeper",
              "type": "address"
            },
            {
              "internalType": "address",
              "name": "arbiter",
              "type": "address"
            },
            {
              "internalType": "uint256",
              "name": "timelockSeconds",
              "type": "uint256"
            },
            {
              "internalType": "bytes",
              "name": "data",
              "type": "bytes"
            },
            {
              "components": [
                {
                  "internalType": "uint256",
                  "name": "executions",
                  "type": "uint256"
                },
                {
                  "internalType": "bool",
                  "name": "isDeferred",
                  "type": "bool"
                },
                {
                  "internalType": "bool",
                  "name": "isConstant",
                  "type": "bool"
                },
                {
                  "internalType": "uint8",
                  "name": "port",
                  "type": "uint8"
                },
                {
                  "internalType": "uint256",
                  "name": "key",
                  "type": "uint256"
                },
                {
                  "internalType": "uint256",
                  "name": "solverIndex",
                  "type": "uint256"
                },
                {
                  "internalType": "bytes",
                  "name": "data",
                  "type": "bytes"
                }
              ],
              "internalType": "struct Solver.Ingest[]",
              "name": "ingests",
              "type": "tuple[]"
            },
            {
              "components": [
                {
                  "internalType": "bool",
                  "name": "executed",
                  "type": "bool"
                },
                {
                  "internalType": "bool",
                  "name": "isPort",
                  "type": "bool"
                },
                {
                  "internalType": "address",
                  "name": "to",
                  "type": "address"
                },
                {
                  "internalType": "uint256",
                  "name": "portIndex",
                  "type": "uint256"
                },
                {
                  "internalType": "uint256",
                  "name": "value",
                  "type": "uint256"
                },
                {
                  "internalType": "bytes",
                  "name": "data",
                  "type": "bytes"
                }
              ],
              "internalType": "struct Solver.Action[]",
              "name": "actions",
              "type": "tuple[]"
            },
            {
              "components": [
                {
                  "internalType": "uint256",
                  "name": "outcomeSlots",
                  "type": "uint256"
                },
                {
                  "internalType": "uint256",
                  "name": "parentCollectionPartitionIndex",
                  "type": "uint256"
                },
                {
                  "internalType": "uint256",
                  "name": "amount",
                  "type": "uint256"
                },
                {
                  "internalType": "uint256[]",
                  "name": "partition",
                  "type": "uint256[]"
                },
                {
                  "internalType": "uint256[][]",
                  "name": "recipientAddressPorts",
                  "type": "uint256[][]"
                },
                {
                  "internalType": "uint256[][]",
                  "name": "recipientAmounts",
                  "type": "uint256[][]"
                },
                {
                  "internalType": "string",
                  "name": "metadata",
                  "type": "string"
                }
              ],
              "internalType": "struct Solver.ConditionBase",
              "name": "conditionBase",
              "type": "tuple"
            }
          ],
          "internalType": "struct Solver.Config[]",
          "name": "_solverConfigs",
          "type": "tuple[]"
        }
      ],
      "name": "setSolverConfigs",
      "outputs": [],
      "stateMutability": "nonpayable",
      "type": "function"
    },
    {
      "inputs": [
        {
          "internalType": "bytes32",
          "name": "_solutionId",
          "type": "bytes32"
        },
        {
          "internalType": "uint256",
          "name": "_index",
          "type": "uint256"
        }
      ],
      "name": "solverFromIndex",
      "outputs": [
        {
          "internalType": "address",
          "name": "solver",
          "type": "address"
        }
      ],
      "stateMutability": "view",
      "type": "function"
    }
  ],
  "bytecode": "0x60806040523480156200001157600080fd5b5060405162002ce838038062002ce883398101604081905262000034916200005a565b600080546001600160a01b0319166001600160a01b03929092169190911790556200008a565b6000602082840312156200006c578081fd5b81516001600160a01b038116811462000083578182fd5b9392505050565b612c4e806200009a6000396000f3fe608060405234801561001057600080fd5b50600436106100be5760003560e01c806373c587f5116100765780638d823d731161005b5780638d823d7314610162578063d4301a3c14610175578063ddc02e0314610195576100be565b806373c587f51461013c578063882175661461014f576100be565b80635bd9e299116100a75780635bd9e2991461010c5780635f67db1e1461011457806360bbb92814610127576100be565b8063191481a0146100c3578063237f27f0146100ec575b600080fd5b6100d66100d1366004611640565b6101b5565b6040516100e39190611d49565b60405180910390f35b6100ff6100fa3660046115de565b610202565b6040516100e39190611d5d565b6100d6610272565b6100d66101223660046115de565b610281565b61013a610135366004611640565b61036f565b005b61013a61014a366004611640565b610839565b6100d661015d3660046115de565b610909565b61013a6101703660046115f6565b6109b3565b610188610183366004611661565b610a98565b6040516100e39190611daa565b6101a86101a33660046115de565b610be3565b6040516100e39190612097565b60008281526001602052604081206006018054839081106101e657634e487b7160e01b600052603260045260246000fd5b6000918252602090912001546001600160a01b03169392505050565b60008181526001602090815260409182902060060180548351818402810184019094528084526060939283018282801561026557602002820191906000526020600020905b81546001600160a01b03168152600190910190602001808311610247575b505050505090505b919050565b6000546001600160a01b031681565b6000805b6000838152600160208190526040909120600601546102a4919061222e565b8110156103665760008381526001602052604090206006018054829081106102dc57634e487b7160e01b600052603260045260246000fd5b6000918252602090912001546001600160a01b031633141561035457600083815260016020819052604090912060060190610318908390612216565b8154811061033657634e487b7160e01b600052603260045260246000fd5b6000918252602090912001546001600160a01b0316915061026d9050565b8061035e816126a6565b915050610285565b50600092915050565b6000818152600160205260409020600201546001600160a01b031633146103b15760405162461bcd60e51b81526004016103a890612029565b60405180910390fd5b60008181526001602052604090206003015482146103e15760405162461bcd60e51b81526004016103a890611f38565b60008181526001602052604090205460ff16156104105760405162461bcd60e51b81526004016103a890611f01565b60008181526001602081905260408220805460ff191690911790555b6000828152600160205260409020600501548110156105f257600082815260016020526040812060050180548390811061047657634e487b7160e01b600052603260045260246000fd5b60009182526020808320600e9092029091015485835260019091526040822080546002820154600590920180546001600160a01b0394851696508694630efd68ad946101009094048116938a938c93919092169130918b9081106104ea57634e487b7160e01b600052603260045260246000fd5b90600052602060002090600e02016040518763ffffffff1660e01b815260040161051996959493929190611dca565b602060405180830381600087803b15801561053357600080fd5b505af1158015610547573d6000803e3d6000fd5b505050506040513d601f19601f8201168201806040525081019061056b919061159f565b90506001600160a01b0381166105935760405162461bcd60e51b81526004016103a890611eca565b600084815260016020818152604080842060060180549384018155845281842090920180546001600160a01b039095166001600160a01b03199095168517905592825260029092522083905550806105ea816126a6565b91505061042c565b5060008181526001602052604081206006018054339263c13784f792869290919061062d57634e487b7160e01b600052603260045260246000fd5b6000918252602090912001546040517fffffffff0000000000000000000000000000000000000000000000000000000060e085901b16815261067c92916001600160a01b031690600401611db3565b600060405180830381600087803b15801561069657600080fd5b505af11580156106aa573d6000803e3d6000fd5b5050505060005b60008281526001602052604090206005015481101561078b5760008281526001602052604081206006018054839081106106fb57634e487b7160e01b600052603260045260246000fd5b6000918252602082200154604080517f2c17b91e00000000000000000000000000000000000000000000000000000000815290516001600160a01b0390921693508392632c17b91e9260048084019382900301818387803b15801561075f57600080fd5b505af1158015610773573d6000803e3d6000fd5b50505050508080610783906126a6565b9150506106b1565b50600081815260016020526040812060060180549091906107bc57634e487b7160e01b600052603260045260246000fd5b6000918252602082200154604080517f3a275fa200000000000000000000000000000000000000000000000000000000815290516001600160a01b0390921692633a275fa29260048084019382900301818387803b15801561081d57600080fd5b505af1158015610831573d6000803e3d6000fd5b505050505050565b6040517fd3f79a05000000000000000000000000000000000000000000000000000000008152339063d3f79a0590610875908590600401611daa565b60206040518083038186803b15801561088d57600080fd5b505afa1580156108a1573d6000803e3d6000fd5b505050506040513d601f19601f820116820180604052508101906108c591906115c2565b6108e15760405162461bcd60e51b81526004016103a890611fcc565b60009081526001602052604090206002810180546001600160a01b0319163317905560030155565b6000805b60008381526001602052604090206006015481101561036657600083815260016020526040902060060180548290811061095757634e487b7160e01b600052603260045260246000fd5b6000918252602090912001546001600160a01b03163314156109a1578061098257600091505061026d565b600083815260016020819052604090912060060190610318908361222e565b806109ab816126a6565b91505061090d565b6000838152600160208190526040909120015483906001600160a01b031633146109ef5760405162461bcd60e51b81526004016103a890612060565b6000848152600160205260408120610a0c916005909101906112b0565b60005b82811015610a91576000858152600160205260409020600501848483818110610a4857634e487b7160e01b600052603260045260246000fd5b9050602002810190610a5a91906121f5565b8154600181018355600092835260209092209091600e0201610a7c8282612970565b50508080610a89906126a6565b915050610a0f565b5050505050565b600084815260016020526040812060040154851415610ac95760405162461bcd60e51b81526004016103a890611f6f565b600085815260016020819052604082206004810188905590810180546001600160a01b0319163317905580546001600160a01b038716610100027fffffffffffffffffffffff0000000000000000000000000000000000000000ff909116178155905b83811015610ba15781600501858583818110610b5857634e487b7160e01b600052603260045260246000fd5b9050602002810190610b6a91906121f5565b8154600181018355600092835260209092209091600e0201610b8c8282612970565b50508080610b99906126a6565b915050610b2c565b507faf58c2d61bce90c15ecad6e5142ecbbb0b542b557388df7578e0162b098999a386604051610bd19190611daa565b60405180910390a15093949350505050565b610beb6112d4565b600082815260016020818152604080842081516101008082018452825460ff811615158352046001600160a01b0390811682860152948201548516818401526002820154909416606085015260038101546080850152600481015460a08501526005810180548351818602810186019094528084529495919460c08701949192909184015b8282101561123f5760008481526020908190206040805161010081018252600e860290920180546001600160a01b039081168452600182015481169484019490945260028101549093169082015260038201546060820152600482018054919291608084019190610ce090612658565b80601f0160208091040260200160405190810160405280929190818152602001828054610d0c90612658565b8015610d595780601f10610d2e57610100808354040283529160200191610d59565b820191906000526020600020905b815481529060010190602001808311610d3c57829003601f168201915b5050505050815260200160058201805480602002602001604051908101604052809291908181526020016000905b82821015610e9e5760008481526020908190206040805160e0810182526005860290920180548352600181015460ff8082161515958501959095526101008104851615159284019290925262010000909104909216606082015260028201546080820152600382015460a082015260048201805491929160c084019190610e0d90612658565b80601f0160208091040260200160405190810160405280929190818152602001828054610e3990612658565b8015610e865780601f10610e5b57610100808354040283529160200191610e86565b820191906000526020600020905b815481529060010190602001808311610e6957829003601f168201915b50505050508152505081526020019060010190610d87565b50505050815260200160068201805480602002602001604051908101604052809291908181526020016000905b82821015610fda5760008481526020908190206040805160c08101825260048602909201805460ff80821615158552610100820416151594840194909452620100009093046001600160a01b031690820152600182015460608201526002820154608082015260038201805491929160a084019190610f4990612658565b80601f0160208091040260200160405190810160405280929190818152602001828054610f7590612658565b8015610fc25780601f10610f9757610100808354040283529160200191610fc2565b820191906000526020600020905b815481529060010190602001808311610fa557829003601f168201915b50505050508152505081526020019060010190610ecb565b505050508152602001600782016040518060e00160405290816000820154815260200160018201548152602001600282015481526020016003820180548060200260200160405190810160405280929190818152602001828054801561105f57602002820191906000526020600020905b81548152602001906001019080831161104b575b5050505050815260200160048201805480602002602001604051908101604052809291908181526020016000905b828210156110f9576000848152602090819020830180546040805182850281018501909152818152928301828280156110e557602002820191906000526020600020905b8154815260200190600101908083116110d1575b50505050508152602001906001019061108d565b50505050815260200160058201805480602002602001604051908101604052809291908181526020016000905b828210156111925760008481526020908190208301805460408051828502810185019091528181529283018282801561117e57602002820191906000526020600020905b81548152602001906001019080831161116a575b505050505081526020019060010190611126565b5050505081526020016006820180546111aa90612658565b80601f01602080910402602001604051908101604052809291908181526020018280546111d690612658565b80156112235780601f106111f857610100808354040283529160200191611223565b820191906000526020600020905b81548152906001019060200180831161120657829003601f168201915b5050505050815250508152505081526020019060010190610c70565b505050508152602001600682018054806020026020016040519081016040528092919081815260200182805480156112a057602002820191906000526020600020905b81546001600160a01b03168152600190910190602001808311611282575b5050505050815250509050919050565b50805460008255600e02906000526020600020908101906112d1919061131a565b50565b604080516101008101825260008082526020820181905291810182905260608082018390526080820183905260a082019290925260c0810182905260e081019190915290565b808211156113d35780546001600160a01b0319908116825560018201805482169055600282018054909116905560006003820181905561135d60048301826113d7565b61136b600583016000611413565b611379600683016000611434565b60006007830181815560088401829055600984018290559061139e600a850182611455565b6113ac600483016000611473565b6113ba600583016000611473565b6113c86006830160006113d7565b505050600e0161131a565b5090565b5080546113e390612658565b6000825580601f106113f557506112d1565b601f0160209004906000526020600020908101906112d19190611491565b50805460008255600502906000526020600020908101906112d191906114a6565b50805460008255600402906000526020600020908101906112d191906114e5565b50805460008255906000526020600020908101906112d19190611491565b50805460008255906000526020600020908101906112d19190611539565b5b808211156113d35760008155600101611492565b808211156113d357600080825560018201805462ffffff1916905560028201819055600382018190556114dc60048301826113d7565b506005016114a6565b808211156113d35780547fffffffffffffffffffff000000000000000000000000000000000000000000001681556000600182018190556002820181905561153060038301826113d7565b506004016114e5565b808211156113d357600061154d8282611455565b50600101611539565b60008083601f840112611567578182fd5b50813567ffffffffffffffff81111561157e578182fd5b602083019150836020808302850101111561159857600080fd5b9250929050565b6000602082840312156115b0578081fd5b81516115bb81612bf5565b9392505050565b6000602082840312156115d3578081fd5b81516115bb81612c0a565b6000602082840312156115ef578081fd5b5035919050565b60008060006040848603121561160a578182fd5b83359250602084013567ffffffffffffffff811115611627578283fd5b61163386828701611556565b9497909650939450505050565b60008060408385031215611652578182fd5b50508035926020909101359150565b60008060008060608587031215611676578081fd5b84359350602085013561168881612bf5565b9250604085013567ffffffffffffffff8111156116a3578182fd5b6116af87828801611556565b95989497509550505050565b6001600160a01b03169052565b6000815180845260208085019450808401835b838110156117005781516001600160a01b0316875295820195908201906001016116db565b509495945050505050565b60008282518085526020808601955080818302840101818601855b8481101561175457601f19868403018952611742838351611b14565b98840198925090830190600101611726565b5090979650505050505050565b6000815480845260208085018081965082840281019150858552828520855b858110156117a95782840389526117978483611b43565b98850198935060019182019101611780565b5091979650505050505050565b6000815180845260208085018081965082840281019150828601855b858110156117a95782840389528151805115158552858101511515868601526040808201516001600160a01b031690860152606080820151908601526080808201519086015260a09081015160c09186018290529061183381870183611b7b565b9a87019a95505050908401906001016117d2565b6000815480845260208085018081965082840281019150858552828520855b858110156117a957828403895260c0825460ff80821615158752611891888801828460081c16611b75565b506118ab604087016001600160a01b038360101c166116bb565b5060018301546060860152600283015460808601528060a08601526118d581860160038501611bc6565b9986019994505060049190910190600101611866565b6000815180845260208085018081965082840281019150828601855b858110156117a957828403895281516101006119248683516116bb565b86820151611934888801826116bb565b50604080830151611947828901826116bb565b50506060808301518188015250608080830151828289015261196b83890182611b7b565b9250505060a0808301518783038289015261198683826119d3565b9250505060c080830151878303828901526119a183826117b6565b9250505060e080830151925086820381880152506119bf8183611c3d565b9a87019a9550505090840190600101611907565b6000815180845260208085018081965082840281019150828601855b858110156117a95782840389528151805185528581015115158686015260408082015115159086015260608082015160ff16908601526080808201519086015260a0808201519086015260c09081015160e091860182905290611a5481870183611b7b565b9a87019a95505050908401906001016119ef565b6000815480845260208085018081965082840281019150858552828520855b858110156117a957828403895260e082548552600183015460ff611aaf888801828416611b75565b611ac160408801828460081c16611b75565b611ad360608801828460101c16611d42565b505060028301546080860152600383015460a08601528060c0860152611afe81860160048501611bc6565b9986019994505060059190910190600101611a87565b6000815180845260208085019450808401835b8381101561170057815187529582019590820190600101611b27565b6000815480845260208085019450838352808320835b8381101561170057815487529582019560019182019101611b59565b15159052565b60008151808452815b81811015611ba057602081850181015186830182015201611b84565b81811115611bb15782602083870101525b50601f01601f19169290920160200192915050565b60008154611bd381612658565b808552602060018381168015611bf05760018114611c0457611c32565b60ff19851688840152604088019550611c32565b866000528260002060005b85811015611c2a5781548a8201860152908301908401611c0f565b890184019650505b505050505092915050565b6000815183526020820151602084015260408201516040840152606082015160e06060850152611c7060e0850182611b14565b905060808301518482036080860152611c89828261170b565b91505060a083015184820360a0860152611ca3828261170b565b91505060c083015184820360c0860152611cbd8282611b7b565b95945050505050565b600081548352600182015460208401526002820154604084015260e06060840152611cf760e0840160038401611b43565b8381036080850152611d0c8160048501611761565b905083810360a0850152611d238160058501611761565b905083810360c0850152611d3a8160068501611bc6565b949350505050565b60ff169052565b6001600160a01b0391909116815260200190565b6020808252825182820181905260009190848201906040850190845b81811015611d9e5783516001600160a01b031683529284019291840191600101611d79565b50909695505050505050565b90815260200190565b9182526001600160a01b0316602082015260400190565b60006001600160a01b038089168352876020840152866040840152808616606084015280851660808401525060c060a0830152611e1360c08301611e0e8554612245565b6116bb565b611e206001840154612245565b611e2d60e08401826116bb565b50611e3b6002840154612245565b610100611e4a818501836116bb565b600385015461012085015261014084015250611e6d6101c0830160048501611bc6565b60bf198084830301610160850152611e888260058701611a68565b91508084830301610180850152611ea28260068701611847565b915080848303016101a085015250611ebd8160078601611cc6565b9998505050505050505050565b6020808252600f908201527f496e76616c696420616464726573730000000000000000000000000000000000604082015260600190565b60208082526019908201527f536f6c7574696f6e20616c726561647920657865637574656400000000000000604082015260600190565b60208082526010908201527f57726f6e672070726f706f73616c496400000000000000000000000000000000604082015260600190565b60208082526024908201527f536f6c7574696f6e734875623a3a5468697320494420616c726561647920657860408201527f6973747300000000000000000000000000000000000000000000000000000000606082015260800190565b60208082526024908201527f50726f706f73616c206973206e6f742076616c69642061742070726f706f736160408201527f6c48756200000000000000000000000000000000000000000000000000000000606082015260800190565b60208082526017908201527f4e6f7420636f72726563742070726f706f73616c487562000000000000000000604082015260600190565b60208082526018908201527f536f6c7574696f6e734875623a206f6e6c794b65657065720000000000000000604082015260600190565b60006020825282511515602083015260208301516120b860408401826116bb565b5060408301516120cb60608401826116bb565b5060608301516120de60808401826116bb565b50608083015160a083015260a083015160c083015260c08301516101008060e085015261210f6101208501836118eb565b915060e0850151601f19858403018286015261212b83826116c8565b9695505050505050565b6000808335601e1984360301811261214b578283fd5b83018035915067ffffffffffffffff821115612165578283fd5b602090810192508102360382131561159857600080fd5b6000808335601e19843603018112612192578283fd5b83018035915067ffffffffffffffff8211156121ac578283fd5b60200191503681900382131561159857600080fd5b6000823560be198336030181126121d6578182fd5b9190910192915050565b6000823560de198336030181126121d6578182fd5b6000823560fe198336030181126121d6578182fd5b60009081526020902090565b60008219821115612229576122296126d7565b500190565b600082821015612240576122406126d7565b500390565b6001600160a01b031690565b5b818110156122665760008155600101612252565b5050565b68010000000000000000831115612283576122836126ed565b8054838255808410156122c1576000828152602081208581019083015b808210156122bd576122b28383612716565b6001820191506122a0565b5050505b50816122cc8261220a565b6000805b86811015612303576122e28487612135565b6122ee81838688612a67565b505060209390930192600192830192016122d0565b50505050505050565b68010000000000000000831115612325576123256126ed565b8054838255808410156123d4577f3fffffffffffffffffffffffffffffffffffffffffffffffffffffffffffffff6001818311811615612367576123676126d7565b600482871182161561237b5761237b6126d7565b600085815260208120909350878202810190828602015b808210156123ce578482556123aa8586868501612bd6565b6123b8858660028501612bd6565b6123c5856003840161275a565b90820190612392565b50505050505b50816123df8261220a565b6000805b86811015612303576123ff6123f885886121c1565b8385612a80565b60209390930192600492909201916001016123e3565b6801000000000000000083111561242e5761242e6126ed565b8054838255808410156124eb577f33333333333333333333333333333333333333333333333333333333333333336001818311811615612470576124706126d7565b6005828711821615612484576124846126d7565b600085815260208120909350878202810190828602015b808210156124e5576124ae858684612bd6565b84848301556124c1858660028501612bd6565b6124cf858660038501612bd6565b6124dc856004840161275a565b9082019061249b565b50505050505b50816124f68261220a565b6000805b868110156123035761251661250f85886121e0565b8385612b3f565b60209390930192600592909201916001016124fa565b6125368382612716565b818160005260208060002060005b8681101561230357833582559282019260019182019101612544565b67ffffffffffffffff831115612578576125786126ed565b6125828154612658565b600080601f8611601f8411818117156125a15761259e8661220a565b92505b80156125d0576020601f890104830160208910156125bc5750825b6125ce6020601f880104850182612251565b505b5080600181146125fc576000945087156125eb578387013594505b6125f58886612693565b865561264e565b601f198816945082845b868110156126265788860135825560209586019560019092019101612606565b508886101561264357878501356000196008601f8c16021c191681555b506001600289020186555b5050505050505050565b60028104600182168061266c57607f821691505b6020821081141561268d57634e487b7160e01b600052602260045260246000fd5b50919050565b600019600883021c191660029091021790565b60006000198214156126ba576126ba6126d7565b5060010190565b634e487b7160e01b600052600060045260246000fd5b634e487b7160e01b600052601160045260246000fd5b634e487b7160e01b600052604160045260246000fd5b6000813561271081612bf5565b92915050565b6801000000000000000082111561272f5761272f6126ed565b80548282558083101561275557816000526020600020612753828201858301612251565b505b505050565b8115612768576127686126c1565b6127728154612658565b801561275557601f81116001811461278d5760008355612753565b6000838152602081206127ab6020601f860104820160018301612251565b50838152602081206127be828254612693565b85555550505050565b6001600160a01b0382166001600160a01b03198254161781555050565b60ff1981541660ff8315151681178255505050565b81358155600160208084013582840155604084013560028401556128206060850185612135565b61282e81836003880161252c565b505061283d6080850185612135565b61284b81836004880161226a565b505061285a60a0850185612135565b61286881836005880161226a565b50506006830161287b60c086018661217c565b67ffffffffffffffff811115612893576128936126ed565b61289d8354612658565b600080601f8411601f8411818117156128bc576128b98861220a565b92505b80156128e85788601f8701048301898710156128d55750825b6128e68a601f880104850182612251565b505b50806001811461291457600094508515612903578387013594505b61290d8686612693565b8855612962565b601f198616945082845b8681101561293b57888601358255948a0194908b01908a0161291e565b508686101561295857878501356000196008601f8a16021c191681555b5089600287020188555b505050505050505050505050565b813561297b81612bf5565b61298581836127c7565b50602082013561299481612bf5565b6129a181600184016127c7565b506129ba6129b160408401612703565b600283016127c7565b606082013560038201556129d1608083018361217c565b6129df818360048601612560565b50506129ee60a0830183612135565b6129fc818360058601612415565b5050612a0b60c0830183612135565b612a1981836006860161230c565b5050612266612a2b60e08401846121e0565b600783016127f9565b805461ff00191691151560081b61ff0016919091179055565b805462ff00008360101b1662ff0000198216178255505050565b8115612a7557612a756126c1565b61275384848361252c565b8115612a8e57612a8e6126c1565b8235612a9981612c0a565b612aa381836127e4565b506020830135612ab281612c0a565b612abc8183612a34565b506040830135612acb81612bf5565b81547fffffffffffffffffffff0000000000000000000000000000000000000000ffff1660109190911b75ffffffffffffffffffffffffffffffffffffffff0000161781556060830135600182015560808301356002820155612b3160a084018461217c565b610a91818360038601612560565b8115612b4d57612b4d6126c1565b82358155600181016020840135612b6381612c0a565b612b6d81836127e4565b506040840135612b7c81612c0a565b612b868183612a34565b50606084013560ff81168114612b9b57600080fd5b612ba58183612a4d565b50506080830135600282015560a08301356003820155612bc860c084018461217c565b610a91818360048601612560565b805460088302600019811b8086831b1681198416178455505050505050565b6001600160a01b03811681146112d157600080fd5b80151581146112d157600080fdfea2646970667358221220764e9bb3b82aaf6412eb1a4d418f86cb9737298d01b95a8a7842f13f2209754764736f6c63430008000033",
  "linkReferences": {},
  "deployedLinkReferences": {}
}