{
  "_format": "hh-sol-artifact-1",
  "contractName": "SolutionsHub",
  "sourceName": "contracts/SolutionsHub.sol",
  "abi": [
    {
      "inputs": [
        {
          "internalType": "bytes32",
          "name": "_solutionId",
          "type": "bytes32"
        }
      ],
      "name": "executeSolution",
      "outputs": [],
      "stateMutability": "nonpayable",
      "type": "function"
    }
  ],
  "bytecode": "0x608060405234801561001057600080fd5b50610975806100206000396000f3fe608060405234801561001057600080fd5b506004361061002b5760003560e01c8063a51853c414610030575b600080fd5b61004a600480360381019061004591906106c6565b61004c565b005b60008060008381526020019081526020016000206040518060400160405290816000820154815260200160018201805480602002602001604051908101604052809291908181526020016000905b828210156104415783829060005260206000209060090201604051806101200160405290816000820160009054906101000a900473ffffffffffffffffffffffffffffffffffffffff1673ffffffffffffffffffffffffffffffffffffffff1673ffffffffffffffffffffffffffffffffffffffff1681526020016001820160009054906101000a900473ffffffffffffffffffffffffffffffffffffffff1673ffffffffffffffffffffffffffffffffffffffff1673ffffffffffffffffffffffffffffffffffffffff1681526020016002820160009054906101000a900473ffffffffffffffffffffffffffffffffffffffff1673ffffffffffffffffffffffffffffffffffffffff1673ffffffffffffffffffffffffffffffffffffffff1681526020016003820160009054906101000a900473ffffffffffffffffffffffffffffffffffffffff1673ffffffffffffffffffffffffffffffffffffffff1673ffffffffffffffffffffffffffffffffffffffff16815260200160048201548152602001600582015481526020016006820154815260200160078201805461024490610827565b80601f016020809104026020016040519081016040528092919081815260200182805461027090610827565b80156102bd5780601f10610292576101008083540402835291602001916102bd565b820191906000526020600020905b8154815290600101906020018083116102a057829003601f168201915b5050505050815260200160088201805480602002602001604051908101604052809291908181526020016000905b8282101561042a5783829060005260206000209060030201604051806080016040529081600082015481526020016001820160009054906101000a900473ffffffffffffffffffffffffffffffffffffffff1673ffffffffffffffffffffffffffffffffffffffff1673ffffffffffffffffffffffffffffffffffffffff1681526020016001820160149054906101000a900460ff1615151515815260200160028201805461039990610827565b80601f01602080910402602001604051908101604052809291908181526020018280546103c590610827565b80156104125780601f106103e757610100808354040283529160200191610412565b820191906000526020600020905b8154815290600101906020018083116103f557829003601f168201915b505050505081525050815260200190600101906102eb565b50505050815250508152602001906001019061009a565b5050505081525050905060005b81602001515181101561066e5760008260200151828151811061049a577f4e487b7100000000000000000000000000000000000000000000000000000000600052603260045260246000fd5b60200260200101516000015190508073ffffffffffffffffffffffffffffffffffffffff16639dd3080e84602001518481518110610501577f4e487b7100000000000000000000000000000000000000000000000000000000600052603260045260246000fd5b6020026020010151602001518560200151858151811061054a577f4e487b7100000000000000000000000000000000000000000000000000000000600052603260045260246000fd5b60200260200101516040015186602001518681518110610593577f4e487b7100000000000000000000000000000000000000000000000000000000600052603260045260246000fd5b602002602001015160c00151876020015187815181106105dc577f4e487b7100000000000000000000000000000000000000000000000000000000600052603260045260246000fd5b602002602001015160e001516040518563ffffffff1660e01b81526004016106079493929190610746565b602060405180830381600087803b15801561062157600080fd5b505af1158015610635573d6000803e3d6000fd5b505050506040513d601f19601f82011682018060405250810190610659919061069d565b5050808061066690610859565b91505061044e565b505050565b60008151905061068281610911565b92915050565b60008135905061069781610928565b92915050565b6000602082840312156106af57600080fd5b60006106bd84828501610673565b91505092915050565b6000602082840312156106d857600080fd5b60006106e684828501610688565b91505092915050565b6106f8816107ae565b82525050565b600061070982610792565b610713818561079d565b93506107238185602086016107f4565b61072c81610900565b840191505092915050565b610740816107ea565b82525050565b600060808201905061075b60008301876106ef565b61076860208301866106ef565b6107756040830185610737565b818103606083015261078781846106fe565b905095945050505050565b600081519050919050565b600082825260208201905092915050565b60006107b9826107ca565b9050919050565b6000819050919050565b600073ffffffffffffffffffffffffffffffffffffffff82169050919050565b6000819050919050565b60005b838110156108125780820151818401526020810190506107f7565b83811115610821576000848401525b50505050565b6000600282049050600182168061083f57607f821691505b60208210811415610853576108526108d1565b5b50919050565b6000610864826107ea565b91507fffffffffffffffffffffffffffffffffffffffffffffffffffffffffffffffff821415610897576108966108a2565b5b600182019050919050565b7f4e487b7100000000000000000000000000000000000000000000000000000000600052601160045260246000fd5b7f4e487b7100000000000000000000000000000000000000000000000000000000600052602260045260246000fd5b6000601f19601f8301169050919050565b61091a816107ae565b811461092557600080fd5b50565b610931816107c0565b811461093c57600080fd5b5056fea2646970667358221220202b0f3b091b64a1046a6dfb589899432948de5858c7d9c1d3441efc08820ca664736f6c63430008000033",
  "linkReferences": {},
  "deployedLinkReferences": {}
}