{
  "_format": "hh-sol-artifact-1",
  "contractName": "SolutionsHub",
  "sourceName": "contracts/SolutionsHub.sol",
  "abi": [
    {
      "anonymous": false,
      "inputs": [
        {
          "indexed": false,
          "internalType": "bytes32",
          "name": "id",
          "type": "bytes32"
        }
      ],
      "name": "CreateSolution",
      "type": "event"
    },
    {
      "inputs": [],
      "name": "conditionalTokens",
      "outputs": [
        {
          "internalType": "contract ConditionalTokens",
          "name": "",
          "type": "address"
        }
      ],
      "stateMutability": "view",
      "type": "function"
    },
    {
      "inputs": [
        {
          "internalType": "bytes32",
          "name": "_id",
          "type": "bytes32"
        },
        {
          "internalType": "contract IERC20",
          "name": "_collateralToken",
          "type": "address"
        },
        {
          "components": [
            {
              "internalType": "contract Solver",
              "name": "implementation",
              "type": "address"
            },
            {
              "internalType": "address",
              "name": "keeper",
              "type": "address"
            },
            {
              "internalType": "address",
              "name": "arbitrator",
              "type": "address"
            },
            {
              "internalType": "uint256",
              "name": "timelockSeconds",
              "type": "uint256"
            },
            {
              "internalType": "bytes",
              "name": "data",
              "type": "bytes"
            },
            {
              "components": [
                {
                  "internalType": "uint256",
                  "name": "executions",
                  "type": "uint256"
                },
                {
                  "internalType": "bool",
                  "name": "isDeferred",
                  "type": "bool"
                },
                {
                  "internalType": "bool",
                  "name": "isConstant",
                  "type": "bool"
                },
                {
                  "internalType": "uint8",
                  "name": "port",
                  "type": "uint8"
                },
                {
                  "internalType": "uint256",
                  "name": "key",
                  "type": "uint256"
                },
                {
                  "internalType": "uint256",
                  "name": "solverIndex",
                  "type": "uint256"
                },
                {
                  "internalType": "bytes",
                  "name": "data",
                  "type": "bytes"
                }
              ],
              "internalType": "struct SolverLib.Ingest[]",
              "name": "ingests",
              "type": "tuple[]"
            },
            {
              "components": [
                {
                  "internalType": "bool",
                  "name": "executed",
                  "type": "bool"
                },
                {
                  "internalType": "bool",
                  "name": "isPort",
                  "type": "bool"
                },
                {
                  "internalType": "address",
                  "name": "to",
                  "type": "address"
                },
                {
                  "internalType": "uint256",
                  "name": "portIndex",
                  "type": "uint256"
                },
                {
                  "internalType": "uint256",
                  "name": "value",
                  "type": "uint256"
                },
                {
                  "internalType": "bytes",
                  "name": "data",
                  "type": "bytes"
                }
              ],
              "internalType": "struct SolverLib.Action[]",
              "name": "actions",
              "type": "tuple[]"
            },
            {
              "components": [
                {
                  "internalType": "uint256",
                  "name": "outcomeSlots",
                  "type": "uint256"
                },
                {
                  "internalType": "uint256",
                  "name": "parentCollectionPartitionIndex",
                  "type": "uint256"
                },
                {
                  "internalType": "uint256",
                  "name": "amount",
                  "type": "uint256"
                },
                {
                  "internalType": "uint256[]",
                  "name": "partition",
                  "type": "uint256[]"
                },
                {
                  "internalType": "uint256[][]",
                  "name": "recipientAddressPorts",
                  "type": "uint256[][]"
                },
                {
                  "internalType": "uint256[][]",
                  "name": "recipientAmounts",
                  "type": "uint256[][]"
                },
                {
                  "internalType": "string",
                  "name": "metadata",
                  "type": "string"
                }
              ],
              "internalType": "struct SolverLib.ConditionBase",
              "name": "conditionBase",
              "type": "tuple"
            }
          ],
          "internalType": "struct SolverLib.Config[]",
          "name": "_solverConfigs",
          "type": "tuple[]"
        }
      ],
      "name": "createSolution",
      "outputs": [
        {
          "internalType": "bytes32",
          "name": "_solutionId",
          "type": "bytes32"
        }
      ],
      "stateMutability": "nonpayable",
      "type": "function"
    },
    {
      "inputs": [
        {
          "internalType": "bytes32",
          "name": "_proposalId",
          "type": "bytes32"
        },
        {
          "internalType": "bytes32",
          "name": "_solutionId",
          "type": "bytes32"
        }
      ],
      "name": "executeSolution",
      "outputs": [],
      "stateMutability": "nonpayable",
      "type": "function"
    },
    {
      "inputs": [
        {
          "internalType": "bytes32",
          "name": "_proposalId",
          "type": "bytes32"
        },
        {
          "internalType": "bytes32",
          "name": "_solutionId",
          "type": "bytes32"
        }
      ],
      "name": "linkToProposal",
      "outputs": [],
      "stateMutability": "nonpayable",
      "type": "function"
    },
    {
      "inputs": [
        {
          "internalType": "bytes32",
          "name": "_solutionId",
          "type": "bytes32"
        },
        {
          "components": [
            {
              "internalType": "contract Solver",
              "name": "implementation",
              "type": "address"
            },
            {
              "internalType": "address",
              "name": "keeper",
              "type": "address"
            },
            {
              "internalType": "address",
              "name": "arbitrator",
              "type": "address"
            },
            {
              "internalType": "uint256",
              "name": "timelockSeconds",
              "type": "uint256"
            },
            {
              "internalType": "bytes",
              "name": "data",
              "type": "bytes"
            },
            {
              "components": [
                {
                  "internalType": "uint256",
                  "name": "executions",
                  "type": "uint256"
                },
                {
                  "internalType": "bool",
                  "name": "isDeferred",
                  "type": "bool"
                },
                {
                  "internalType": "bool",
                  "name": "isConstant",
                  "type": "bool"
                },
                {
                  "internalType": "uint8",
                  "name": "port",
                  "type": "uint8"
                },
                {
                  "internalType": "uint256",
                  "name": "key",
                  "type": "uint256"
                },
                {
                  "internalType": "uint256",
                  "name": "solverIndex",
                  "type": "uint256"
                },
                {
                  "internalType": "bytes",
                  "name": "data",
                  "type": "bytes"
                }
              ],
              "internalType": "struct SolverLib.Ingest[]",
              "name": "ingests",
              "type": "tuple[]"
            },
            {
              "components": [
                {
                  "internalType": "bool",
                  "name": "executed",
                  "type": "bool"
                },
                {
                  "internalType": "bool",
                  "name": "isPort",
                  "type": "bool"
                },
                {
                  "internalType": "address",
                  "name": "to",
                  "type": "address"
                },
                {
                  "internalType": "uint256",
                  "name": "portIndex",
                  "type": "uint256"
                },
                {
                  "internalType": "uint256",
                  "name": "value",
                  "type": "uint256"
                },
                {
                  "internalType": "bytes",
                  "name": "data",
                  "type": "bytes"
                }
              ],
              "internalType": "struct SolverLib.Action[]",
              "name": "actions",
              "type": "tuple[]"
            },
            {
              "components": [
                {
                  "internalType": "uint256",
                  "name": "outcomeSlots",
                  "type": "uint256"
                },
                {
                  "internalType": "uint256",
                  "name": "parentCollectionPartitionIndex",
                  "type": "uint256"
                },
                {
                  "internalType": "uint256",
                  "name": "amount",
                  "type": "uint256"
                },
                {
                  "internalType": "uint256[]",
                  "name": "partition",
                  "type": "uint256[]"
                },
                {
                  "internalType": "uint256[][]",
                  "name": "recipientAddressPorts",
                  "type": "uint256[][]"
                },
                {
                  "internalType": "uint256[][]",
                  "name": "recipientAmounts",
                  "type": "uint256[][]"
                },
                {
                  "internalType": "string",
                  "name": "metadata",
                  "type": "string"
                }
              ],
              "internalType": "struct SolverLib.ConditionBase",
              "name": "conditionBase",
              "type": "tuple"
            }
          ],
          "internalType": "struct SolverLib.Config[]",
          "name": "_solverConfigs",
          "type": "tuple[]"
        }
      ],
      "name": "setSolverConfigs",
      "outputs": [],
      "stateMutability": "nonpayable",
      "type": "function"
    },
    {
      "inputs": [
        {
          "internalType": "bytes32",
          "name": "_solutionId",
          "type": "bytes32"
        },
        {
          "internalType": "uint256",
          "name": "_index",
          "type": "uint256"
        }
      ],
      "name": "solverFromIndex",
      "outputs": [
        {
          "internalType": "address",
          "name": "_address",
          "type": "address"
        }
      ],
      "stateMutability": "view",
      "type": "function"
    }
  ],
  "bytecode": "0x60a06040527f5fbdb2315678afecb367f032d93f642f64180aa300000000000000000000000060805234801561003457600080fd5b5060805160601c611e6261005360003960006101520152611e626000f3fe608060405234801561001057600080fd5b50600436106100725760003560e01c806373c587f51161005057806373c587f5146100bd5780638d823d73146100d0578063d4301a3c146100e357610072565b8063191481a0146100775780635bd9e299146100a057806360bbb928146100a8575b600080fd5b61008a610085366004610d45565b610103565b604051610097919061116a565b60405180910390f35b61008a610150565b6100bb6100b6366004610d45565b610174565b005b6100bb6100cb366004610d45565b6104f7565b6100bb6100de366004610cfb565b6105c7565b6100f66100f1366004610d66565b6106ab565b604051610097919061117e565b600082815260208190526040812060060180548390811061013457634e487b7160e01b600052603260045260246000fd5b6000918252602090912001546001600160a01b03169392505050565b7f000000000000000000000000000000000000000000000000000000000000000081565b6000818152602081905260409020600201546001600160a01b031633146101b65760405162461bcd60e51b81526004016101ad90611302565b60405180910390fd5b60008181526020819052604090206003015482146101e65760405162461bcd60e51b81526004016101ad90611211565b60008181526020819052604090205460ff16156102155760405162461bcd60e51b81526004016101ad906111da565b6000818152602081905260409020805460ff19166001179055610237816107f5565b336001600160a01b0316631918063f8360008085815260200190815260200160002060060160008154811061027c57634e487b7160e01b600052603260045260246000fd5b6000918252602090912001546040517fffffffff0000000000000000000000000000000000000000000000000000000060e085901b1681526102cb92916001600160a01b031690600401611187565b600060405180830381600087803b1580156102e557600080fd5b505af11580156102f9573d6000803e3d6000fd5b5050505060005b60008281526020819052604090206005015481101561044957600082815260208190526040812060060180548390811061034a57634e487b7160e01b600052603260045260246000fd5b6000918252602080832090910154858352908290526040918290206003015491517f0d06101a0000000000000000000000000000000000000000000000000000000081526001600160a01b0390911692508291630d06101a916103b0919060040161117e565b600060405180830381600087803b1580156103ca57600080fd5b505af11580156103de573d6000803e3d6000fd5b50505050806001600160a01b0316632c17b91e6040518163ffffffff1660e01b8152600401600060405180830381600087803b15801561041d57600080fd5b505af1158015610431573d6000803e3d6000fd5b50505050508080610441906118c5565b915050610300565b506000818152602081905260408120600601805490919061047a57634e487b7160e01b600052603260045260246000fd5b6000918252602082200154604080517f3a275fa200000000000000000000000000000000000000000000000000000000815290516001600160a01b0390921692633a275fa29260048084019382900301818387803b1580156104db57600080fd5b505af11580156104ef573d6000803e3d6000fd5b505050505050565b6040517fd3f79a05000000000000000000000000000000000000000000000000000000008152339063d3f79a059061053390859060040161117e565b60206040518083038186803b15801561054b57600080fd5b505afa15801561055f573d6000803e3d6000fd5b505050506040513d601f19601f820116820180604052508101906105839190610cdf565b61059f5760405162461bcd60e51b81526004016101ad906112a5565b60009081526020819052604090206002810180546001600160a01b0319163317905560030155565b60008381526020819052604090206001015483906001600160a01b031633146106025760405162461bcd60e51b81526004016101ad90611339565b600084815260208190526040812061061f91600590910190610a13565b60005b828110156106a457600085815260208190526040902060050184848381811061065b57634e487b7160e01b600052603260045260246000fd5b905060200281019061066d9190611443565b8154600181018355600092835260209092209091600e020161068f8282611b84565b5050808061069c906118c5565b915050610622565b5050505050565b6000848152602081905260408120600401548514156106dc5760405162461bcd60e51b81526004016101ad90611248565b6000858152602081905260408120600481018790556001810180546001600160a01b0319163317905580546001600160a01b038716610100027fffffffffffffffffffffff0000000000000000000000000000000000000000ff909116178155905b838110156107b3578160050185858381811061076a57634e487b7160e01b600052603260045260246000fd5b905060200281019061077c9190611443565b8154600181018355600092835260209092209091600e020161079e8282611b84565b505080806107ab906118c5565b91505061073e565b507faf58c2d61bce90c15ecad6e5142ecbbb0b542b557388df7578e0162b098999a3866040516107e3919061117e565b60405180910390a15093949350505050565b6000805b600083815260208190526040902060050154811015610a0e578061090257600083815260208190526040812080546005909101805473e7f1725e7734ce288f8367e1bb143e90bb3f0512936340e260d39361010090046001600160a01b03169290918691908290811061087c57634e487b7160e01b600052603260045260246000fd5b90600052602060002090600e02016040518563ffffffff1660e01b81526004016108a9949392919061119e565b602060405180830381600087803b1580156108c357600080fd5b505af11580156108d7573d6000803e3d6000fd5b505050506040513d601f19601f820116820180604052508101906108fb9190610cbc565b91506109c4565b816001600160a01b0316639f1cf268600080868152602001908152602001600020600501838154811061094557634e487b7160e01b600052603260045260246000fd5b90600052602060002090600e02016040518263ffffffff1660e01b815260040161096f9190611370565b602060405180830381600087803b15801561098957600080fd5b505af115801561099d573d6000803e3d6000fd5b505050506040513d601f19601f820116820180604052508101906109c19190610cbc565b91505b6000838152602081815260408220600601805460018101825590835291200180546001600160a01b0319166001600160a01b03841617905580610a06816118c5565b9150506107f9565b505050565b50805460008255600e0290600052602060002090810190610a349190610a37565b50565b80821115610af05780546001600160a01b03199081168255600182018054821690556002820180549091169055600060038201819055610a7a6004830182610af4565b610a88600583016000610b30565b610a96600683016000610b51565b600060078301818155600884018290556009840182905590610abb600a850182610b72565b610ac9600483016000610b90565b610ad7600583016000610b90565b610ae5600683016000610af4565b505050600e01610a37565b5090565b508054610b0090611877565b6000825580601f10610b125750610a34565b601f016020900490600052602060002090810190610a349190610bae565b5080546000825560050290600052602060002090810190610a349190610bc3565b5080546000825560040290600052602060002090810190610a349190610c02565b5080546000825590600052602060002090810190610a349190610bae565b5080546000825590600052602060002090810190610a349190610c56565b5b80821115610af05760008155600101610baf565b80821115610af057600080825560018201805462ffffff191690556002820181905560038201819055610bf96004830182610af4565b50600501610bc3565b80821115610af05780547fffffffffffffffffffff0000000000000000000000000000000000000000000016815560006001820181905560028201819055610c4d6003830182610af4565b50600401610c02565b80821115610af0576000610c6a8282610b72565b50600101610c56565b60008083601f840112610c84578182fd5b50813567ffffffffffffffff811115610c9b578182fd5b6020830191508360208083028501011115610cb557600080fd5b9250929050565b600060208284031215610ccd578081fd5b8151610cd881611e09565b9392505050565b600060208284031215610cf0578081fd5b8151610cd881611e1e565b600080600060408486031215610d0f578182fd5b83359250602084013567ffffffffffffffff811115610d2c578283fd5b610d3886828701610c73565b9497909650939450505050565b60008060408385031215610d57578182fd5b50508035926020909101359150565b60008060008060608587031215610d7b578081fd5b843593506020850135610d8d81611e09565b9250604085013567ffffffffffffffff811115610da8578182fd5b610db487828801610c73565b95989497509550505050565b6001600160a01b03169052565b60008282548085526020808601955080818302840101858552818520855b84811015610e1857858303601f19018952610e068383610f7b565b98840198925060019182019101610deb565b5090979650505050505050565b60008282548085526020808601955080818302840101858552818520855b84811015610e1857601f1986840301895260c0825460ff80821615158652610e72878701828460081c16610fb8565b50610e8c604086016001600160a01b038360101c16610dc0565b5060018301546060850152600283015460808501528060a0850152610eb681850160038501610fbe565b9985019993505060049190910190600101610e43565b60008282548085526020808601955080818302840101858552818520855b84811015610e1857601f1986840301895260e082548452600183015460ff610f16878701828416610fb8565b610f2860408701828460081c16610fb8565b610f3a60608701828460101c16611163565b505060028301546080850152600383015460a08501528060c0850152610f6581850160048501610fbe565b9985019993505060059190910190600101610eea565b6000815480845260208085019450838352808320835b83811015610fad57815487529582019560019182019101610f91565b509495945050505050565b15159052565b60008154610fcb81611877565b808552602060018381168015610fe85760018114610ffc5761102a565b60ff1985168884015260408801955061102a565b866000528260002060005b858110156110225781548a8201860152908301908401611007565b890184019650505b505050505092915050565b600081548352600182015460208401526002820154604084015260e0606084015261106660e0840160038401610f7b565b838103608085015261107b8160048501610dcd565b905083810360a08501526110928160058501610dcd565b905083810360c08501526110a98160068501610fbe565b949350505050565b60006101006110c9846110c48554611464565b610dc0565b6110d66001840154611464565b6110e36020860182610dc0565b506110f16002840154611464565b6110fe6040860182610dc0565b506003830154606085015280608085015261111e81850160048501610fbe565b905083810360a08501526111358160058501610ecc565b905083810360c085015261114c8160068501610e25565b905083810360e08501526110a98160078501611035565b60ff169052565b6001600160a01b0391909116815260200190565b90815260200190565b9182526001600160a01b0316602082015260400190565b60006001600160a01b038087168352808616602084015250836040830152608060608301526111d060808301846110b1565b9695505050505050565b60208082526019908201527f536f6c7574696f6e20616c726561647920657865637574656400000000000000604082015260600190565b60208082526010908201527f57726f6e672070726f706f73616c496400000000000000000000000000000000604082015260600190565b60208082526024908201527f536f6c7574696f6e734875623a3a5468697320494420616c726561647920657860408201527f6973747300000000000000000000000000000000000000000000000000000000606082015260800190565b60208082526024908201527f50726f706f73616c206973206e6f742076616c69642061742070726f706f736160408201527f6c48756200000000000000000000000000000000000000000000000000000000606082015260800190565b60208082526017908201527f4e6f7420636f72726563742070726f706f73616c487562000000000000000000604082015260600190565b60208082526018908201527f536f6c7574696f6e734875623a206f6e6c794b65657065720000000000000000604082015260600190565b600060208252610cd860208301846110b1565b6000808335601e19843603018112611399578283fd5b83018035915067ffffffffffffffff8211156113b3578283fd5b6020908101925081023603821315610cb557600080fd5b6000808335601e198436030181126113e0578182fd5b83018035915067ffffffffffffffff8211156113fa578283fd5b602001915036819003821315610cb557600080fd5b6000823560be19833603018112611424578182fd5b9190910192915050565b6000823560de19833603018112611424578182fd5b6000823560fe19833603018112611424578182fd5b60009081526020902090565b6001600160a01b031690565b5b818110156114855760008155600101611471565b5050565b680100000000000000008311156114a2576114a261190c565b8054838255808410156114e0576000828152602081208581019083015b808210156114dc576114d18383611935565b6001820191506114bf565b5050505b50816114eb82611458565b6000805b86811015611522576115018487611383565b61150d81838688611c7b565b505060209390930192600192830192016114ef565b50505050505050565b680100000000000000008311156115445761154461190c565b8054838255808410156115f3577f3fffffffffffffffffffffffffffffffffffffffffffffffffffffffffffffff6001818311811615611586576115866118f6565b600482871182161561159a5761159a6118f6565b600085815260208120909350878202810190828602015b808210156115ed578482556115c98586868501611dea565b6115d7858660028501611dea565b6115e48560038401611978565b908201906115b1565b50505050505b50816115fe82611458565b6000805b868110156115225761161e611617858861140f565b8385611c94565b6020939093019260049290920191600101611602565b6801000000000000000083111561164d5761164d61190c565b80548382558084101561170a577f3333333333333333333333333333333333333333333333333333333333333333600181831181161561168f5761168f6118f6565b60058287118216156116a3576116a36118f6565b600085815260208120909350878202810190828602015b80821015611704576116cd858684611dea565b84848301556116e0858660028501611dea565b6116ee858660038501611dea565b6116fb8560048401611978565b908201906116ba565b50505050505b508161171582611458565b6000805b868110156115225761173561172e858861142e565b8385611d53565b6020939093019260059290920191600101611719565b6117558382611935565b818160005260208060002060005b8681101561152257833582559282019260019182019101611763565b67ffffffffffffffff8311156117975761179761190c565b6117a18154611877565b600080601f8611601f8411818117156117c0576117bd86611458565b92505b80156117ef576020601f890104830160208910156117db5750825b6117ed6020601f880104850182611470565b505b50806001811461181b5760009450871561180a578387013594505b61181488866118b2565b865561186d565b601f198816945082845b868110156118455788860135825560209586019560019092019101611825565b508886101561186257878501356000196008601f8c16021c191681555b506001600289020186555b5050505050505050565b60028104600182168061188b57607f821691505b602082108114156118ac57634e487b7160e01b600052602260045260246000fd5b50919050565b600019600883021c191660029091021790565b60006000198214156118d9576118d96118f6565b5060010190565b634e487b7160e01b600052600060045260246000fd5b634e487b7160e01b600052601160045260246000fd5b634e487b7160e01b600052604160045260246000fd5b6000813561192f81611e09565b92915050565b6801000000000000000082111561194e5761194e61190c565b805482825580831015610a0e57816000526020600020611972828201858301611470565b50505050565b8115611986576119866118e0565b6119908154611877565b8015610a0e57601f8111600181146119ab5760008355611972565b6000838152602081206119c96020601f860104820160018301611470565b50838152602081208185555550505050565b6001600160a01b0382166001600160a01b03198254161781555050565b60ff1981541660ff8315151681178255505050565b8135815560016020808401358284015560408401356002840155611a346060850185611383565b611a4281836003880161174b565b5050611a516080850185611383565b611a5f818360048801611489565b5050611a6e60a0850185611383565b611a7c818360058801611489565b505060068301611a8f60c08601866113ca565b67ffffffffffffffff811115611aa757611aa761190c565b611ab18354611877565b600080601f8411601f841181811715611ad057611acd88611458565b92505b8015611afc5788601f870104830189871015611ae95750825b611afa8a601f880104850182611470565b505b508060018114611b2857600094508515611b17578387013594505b611b2186866118b2565b8855611b76565b601f198616945082845b86811015611b4f57888601358255948a0194908b01908a01611b32565b5086861015611b6c57878501356000196008601f8a16021c191681555b5089600287020188555b505050505050505050505050565b8135611b8f81611e09565b611b9981836119db565b506020820135611ba881611e09565b611bb581600184016119db565b50611bce611bc560408401611922565b600283016119db565b60608201356003820155611be560808301836113ca565b611bf381836004860161177f565b5050611c0260a0830183611383565b611c10818360058601611634565b5050611c1f60c0830183611383565b611c2d81836006860161152b565b5050611485611c3f60e084018461142e565b60078301611a0d565b805461ff00191691151560081b61ff0016919091179055565b805462ff00008360101b1662ff0000198216178255505050565b8115611c8957611c896118e0565b61197284848361174b565b8115611ca257611ca26118e0565b8235611cad81611e1e565b611cb781836119f8565b506020830135611cc681611e1e565b611cd08183611c48565b506040830135611cdf81611e09565b81547fffffffffffffffffffff0000000000000000000000000000000000000000ffff1660109190911b75ffffffffffffffffffffffffffffffffffffffff0000161781556060830135600182015560808301356002820155611d4560a08401846113ca565b6106a481836003860161177f565b8115611d6157611d616118e0565b82358155600181016020840135611d7781611e1e565b611d8181836119f8565b506040840135611d9081611e1e565b611d9a8183611c48565b50606084013560ff81168114611daf57600080fd5b611db98183611c61565b50506080830135600282015560a08301356003820155611ddc60c08401846113ca565b6106a481836004860161177f565b805460088302600019811b8086831b1681198416178455505050505050565b6001600160a01b0381168114610a3457600080fd5b8015158114610a3457600080fdfea2646970667358221220f0720a4d026a4f86a2cd28b83fb4c23ae62aacab1189de83786ae2d82009f27264736f6c63430008000033",
  "linkReferences": {},
  "deployedLinkReferences": {}
}