{
  "_format": "hh-sol-artifact-1",
  "contractName": "SolutionsHub",
  "sourceName": "contracts/SolutionsHub.sol",
  "abi": [
    {
      "inputs": [
        {
          "internalType": "contract ConditionalTokens",
          "name": "_conditionalTokens",
          "type": "address"
        }
      ],
      "stateMutability": "nonpayable",
      "type": "constructor"
    },
    {
      "anonymous": false,
      "inputs": [
        {
          "indexed": false,
          "internalType": "bytes32",
          "name": "id",
          "type": "bytes32"
        }
      ],
      "name": "CreateSolution",
      "type": "event"
    },
    {
      "inputs": [],
      "name": "conditionalTokens",
      "outputs": [
        {
          "internalType": "contract ConditionalTokens",
          "name": "",
          "type": "address"
        }
      ],
      "stateMutability": "view",
      "type": "function"
    },
    {
      "inputs": [
        {
          "internalType": "bytes32",
          "name": "_id",
          "type": "bytes32"
        },
        {
          "internalType": "contract IERC20",
          "name": "_collateralToken",
          "type": "address"
        },
        {
          "components": [
            {
              "internalType": "contract SolverFactory",
              "name": "factory",
              "type": "address"
            },
            {
              "internalType": "address",
              "name": "keeper",
              "type": "address"
            },
            {
              "internalType": "address",
              "name": "arbiter",
              "type": "address"
            },
            {
              "internalType": "uint256",
              "name": "timelockSeconds",
              "type": "uint256"
            },
            {
              "internalType": "bytes",
              "name": "data",
              "type": "bytes"
            },
            {
              "components": [
                {
                  "internalType": "uint256",
                  "name": "executions",
                  "type": "uint256"
                },
                {
                  "internalType": "bool",
                  "name": "deferred",
                  "type": "bool"
                },
                {
                  "internalType": "bool",
                  "name": "isConstant",
                  "type": "bool"
                },
                {
                  "internalType": "uint8",
                  "name": "port",
                  "type": "uint8"
                },
                {
                  "internalType": "uint256",
                  "name": "key",
                  "type": "uint256"
                },
                {
                  "internalType": "uint256",
                  "name": "solverIndex",
                  "type": "uint256"
                },
                {
                  "internalType": "bytes",
                  "name": "data",
                  "type": "bytes"
                }
              ],
              "internalType": "struct Solver.Ingest[]",
              "name": "ingests",
              "type": "tuple[]"
            },
            {
              "components": [
                {
                  "internalType": "bool",
                  "name": "executed",
                  "type": "bool"
                },
                {
                  "internalType": "bool",
                  "name": "isPort",
                  "type": "bool"
                },
                {
                  "internalType": "address",
                  "name": "to",
                  "type": "address"
                },
                {
                  "internalType": "uint256",
                  "name": "portIndex",
                  "type": "uint256"
                },
                {
                  "internalType": "uint256",
                  "name": "value",
                  "type": "uint256"
                },
                {
                  "internalType": "bytes",
                  "name": "data",
                  "type": "bytes"
                }
              ],
              "internalType": "struct Solver.Action[]",
              "name": "actions",
              "type": "tuple[]"
            },
            {
              "components": [
                {
                  "internalType": "uint256",
                  "name": "outcomeSlots",
                  "type": "uint256"
                },
                {
                  "internalType": "uint256",
                  "name": "parentCollectionIdPort",
                  "type": "uint256"
                },
                {
                  "internalType": "uint256",
                  "name": "amount",
                  "type": "uint256"
                },
                {
                  "internalType": "uint256[]",
                  "name": "partition",
                  "type": "uint256[]"
                },
                {
                  "internalType": "uint256[][]",
                  "name": "recipientAddressPorts",
                  "type": "uint256[][]"
                },
                {
                  "internalType": "uint256[][]",
                  "name": "recipientAmounts",
                  "type": "uint256[][]"
                },
                {
                  "internalType": "string",
                  "name": "metadata",
                  "type": "string"
                }
              ],
              "internalType": "struct Solver.ConditionBase",
              "name": "conditionBase",
              "type": "tuple"
            }
          ],
          "internalType": "struct Solver.Config[]",
          "name": "_solverConfigs",
          "type": "tuple[]"
        }
      ],
      "name": "createSolution",
      "outputs": [
        {
          "internalType": "bytes32",
          "name": "_solutionId",
          "type": "bytes32"
        }
      ],
      "stateMutability": "nonpayable",
      "type": "function"
    },
    {
      "inputs": [
        {
          "internalType": "bytes32",
          "name": "_proposalId",
          "type": "bytes32"
        },
        {
          "internalType": "bytes32",
          "name": "_solutionId",
          "type": "bytes32"
        }
      ],
      "name": "executeSolution",
      "outputs": [],
      "stateMutability": "nonpayable",
      "type": "function"
    },
    {
      "inputs": [
        {
          "internalType": "bytes32",
          "name": "_id",
          "type": "bytes32"
        }
      ],
      "name": "getSolution",
      "outputs": [
        {
          "components": [
            {
              "internalType": "bool",
              "name": "executed",
              "type": "bool"
            },
            {
              "internalType": "contract IERC20",
              "name": "collateralToken",
              "type": "address"
            },
            {
              "internalType": "address",
              "name": "keeper",
              "type": "address"
            },
            {
              "internalType": "address",
              "name": "proposalHub",
              "type": "address"
            },
            {
              "internalType": "bytes32",
              "name": "proposalId",
              "type": "bytes32"
            },
            {
              "internalType": "bytes32",
              "name": "id",
              "type": "bytes32"
            },
            {
              "components": [
                {
                  "internalType": "contract SolverFactory",
                  "name": "factory",
                  "type": "address"
                },
                {
                  "internalType": "address",
                  "name": "keeper",
                  "type": "address"
                },
                {
                  "internalType": "address",
                  "name": "arbiter",
                  "type": "address"
                },
                {
                  "internalType": "uint256",
                  "name": "timelockSeconds",
                  "type": "uint256"
                },
                {
                  "internalType": "bytes",
                  "name": "data",
                  "type": "bytes"
                },
                {
                  "components": [
                    {
                      "internalType": "uint256",
                      "name": "executions",
                      "type": "uint256"
                    },
                    {
                      "internalType": "bool",
                      "name": "deferred",
                      "type": "bool"
                    },
                    {
                      "internalType": "bool",
                      "name": "isConstant",
                      "type": "bool"
                    },
                    {
                      "internalType": "uint8",
                      "name": "port",
                      "type": "uint8"
                    },
                    {
                      "internalType": "uint256",
                      "name": "key",
                      "type": "uint256"
                    },
                    {
                      "internalType": "uint256",
                      "name": "solverIndex",
                      "type": "uint256"
                    },
                    {
                      "internalType": "bytes",
                      "name": "data",
                      "type": "bytes"
                    }
                  ],
                  "internalType": "struct Solver.Ingest[]",
                  "name": "ingests",
                  "type": "tuple[]"
                },
                {
                  "components": [
                    {
                      "internalType": "bool",
                      "name": "executed",
                      "type": "bool"
                    },
                    {
                      "internalType": "bool",
                      "name": "isPort",
                      "type": "bool"
                    },
                    {
                      "internalType": "address",
                      "name": "to",
                      "type": "address"
                    },
                    {
                      "internalType": "uint256",
                      "name": "portIndex",
                      "type": "uint256"
                    },
                    {
                      "internalType": "uint256",
                      "name": "value",
                      "type": "uint256"
                    },
                    {
                      "internalType": "bytes",
                      "name": "data",
                      "type": "bytes"
                    }
                  ],
                  "internalType": "struct Solver.Action[]",
                  "name": "actions",
                  "type": "tuple[]"
                },
                {
                  "components": [
                    {
                      "internalType": "uint256",
                      "name": "outcomeSlots",
                      "type": "uint256"
                    },
                    {
                      "internalType": "uint256",
                      "name": "parentCollectionIdPort",
                      "type": "uint256"
                    },
                    {
                      "internalType": "uint256",
                      "name": "amount",
                      "type": "uint256"
                    },
                    {
                      "internalType": "uint256[]",
                      "name": "partition",
                      "type": "uint256[]"
                    },
                    {
                      "internalType": "uint256[][]",
                      "name": "recipientAddressPorts",
                      "type": "uint256[][]"
                    },
                    {
                      "internalType": "uint256[][]",
                      "name": "recipientAmounts",
                      "type": "uint256[][]"
                    },
                    {
                      "internalType": "string",
                      "name": "metadata",
                      "type": "string"
                    }
                  ],
                  "internalType": "struct Solver.ConditionBase",
                  "name": "conditionBase",
                  "type": "tuple"
                }
              ],
              "internalType": "struct Solver.Config[]",
              "name": "solverConfigs",
              "type": "tuple[]"
            },
            {
              "internalType": "address[]",
              "name": "solverAddresses",
              "type": "address[]"
            }
          ],
          "internalType": "struct SolutionsHub.Solution",
          "name": "solution",
          "type": "tuple"
        }
      ],
      "stateMutability": "view",
      "type": "function"
    },
    {
      "inputs": [
        {
          "internalType": "bytes32",
          "name": "_proposalId",
          "type": "bytes32"
        },
        {
          "internalType": "bytes32",
          "name": "_solutionId",
          "type": "bytes32"
        }
      ],
      "name": "linkToProposal",
      "outputs": [],
      "stateMutability": "nonpayable",
      "type": "function"
    },
    {
      "inputs": [
        {
          "internalType": "bytes32",
          "name": "_solutionId",
          "type": "bytes32"
        }
      ],
      "name": "nextSolver",
      "outputs": [
        {
          "internalType": "address",
          "name": "solver",
          "type": "address"
        }
      ],
      "stateMutability": "view",
      "type": "function"
    },
    {
      "inputs": [
        {
          "internalType": "bytes32",
          "name": "_solutionId",
          "type": "bytes32"
        },
        {
          "components": [
            {
              "internalType": "contract SolverFactory",
              "name": "factory",
              "type": "address"
            },
            {
              "internalType": "address",
              "name": "keeper",
              "type": "address"
            },
            {
              "internalType": "address",
              "name": "arbiter",
              "type": "address"
            },
            {
              "internalType": "uint256",
              "name": "timelockSeconds",
              "type": "uint256"
            },
            {
              "internalType": "bytes",
              "name": "data",
              "type": "bytes"
            },
            {
              "components": [
                {
                  "internalType": "uint256",
                  "name": "executions",
                  "type": "uint256"
                },
                {
                  "internalType": "bool",
                  "name": "deferred",
                  "type": "bool"
                },
                {
                  "internalType": "bool",
                  "name": "isConstant",
                  "type": "bool"
                },
                {
                  "internalType": "uint8",
                  "name": "port",
                  "type": "uint8"
                },
                {
                  "internalType": "uint256",
                  "name": "key",
                  "type": "uint256"
                },
                {
                  "internalType": "uint256",
                  "name": "solverIndex",
                  "type": "uint256"
                },
                {
                  "internalType": "bytes",
                  "name": "data",
                  "type": "bytes"
                }
              ],
              "internalType": "struct Solver.Ingest[]",
              "name": "ingests",
              "type": "tuple[]"
            },
            {
              "components": [
                {
                  "internalType": "bool",
                  "name": "executed",
                  "type": "bool"
                },
                {
                  "internalType": "bool",
                  "name": "isPort",
                  "type": "bool"
                },
                {
                  "internalType": "address",
                  "name": "to",
                  "type": "address"
                },
                {
                  "internalType": "uint256",
                  "name": "portIndex",
                  "type": "uint256"
                },
                {
                  "internalType": "uint256",
                  "name": "value",
                  "type": "uint256"
                },
                {
                  "internalType": "bytes",
                  "name": "data",
                  "type": "bytes"
                }
              ],
              "internalType": "struct Solver.Action[]",
              "name": "actions",
              "type": "tuple[]"
            },
            {
              "components": [
                {
                  "internalType": "uint256",
                  "name": "outcomeSlots",
                  "type": "uint256"
                },
                {
                  "internalType": "uint256",
                  "name": "parentCollectionIdPort",
                  "type": "uint256"
                },
                {
                  "internalType": "uint256",
                  "name": "amount",
                  "type": "uint256"
                },
                {
                  "internalType": "uint256[]",
                  "name": "partition",
                  "type": "uint256[]"
                },
                {
                  "internalType": "uint256[][]",
                  "name": "recipientAddressPorts",
                  "type": "uint256[][]"
                },
                {
                  "internalType": "uint256[][]",
                  "name": "recipientAmounts",
                  "type": "uint256[][]"
                },
                {
                  "internalType": "string",
                  "name": "metadata",
                  "type": "string"
                }
              ],
              "internalType": "struct Solver.ConditionBase",
              "name": "conditionBase",
              "type": "tuple"
            }
          ],
          "internalType": "struct Solver.Config[]",
          "name": "_solverConfigs",
          "type": "tuple[]"
        }
      ],
      "name": "setSolverConfigs",
      "outputs": [],
      "stateMutability": "nonpayable",
      "type": "function"
    },
    {
      "inputs": [
        {
          "internalType": "bytes32",
          "name": "_solutionId",
          "type": "bytes32"
        },
        {
          "internalType": "uint256",
          "name": "_index",
          "type": "uint256"
        }
      ],
      "name": "solverFromIndex",
      "outputs": [
        {
          "internalType": "address",
          "name": "solver",
          "type": "address"
        }
      ],
      "stateMutability": "view",
      "type": "function"
    }
  ],
  "bytecode": "0x60806040523480156200001157600080fd5b5060405162002b1438038062002b1483398101604081905262000034916200005a565b600080546001600160a01b0319166001600160a01b03929092169190911790556200008a565b6000602082840312156200006c578081fd5b81516001600160a01b038116811462000083578182fd5b9392505050565b612a7a806200009a6000396000f3fe608060405234801561001057600080fd5b50600436106100885760003560e01c806373c587f51161005b57806373c587f5146100e65780638d823d73146100f9578063d4301a3c1461010c578063ddc02e031461012c57610088565b8063191481a01461008d5780635bd9e299146100b657806360bbb928146100be578063652fcd73146100d3575b600080fd5b6100a061009b3660046114bb565b61014c565b6040516100ad9190611bc7565b60405180910390f35b6100a0610199565b6100d16100cc3660046114bb565b6101a8565b005b6100a06100e1366004611459565b61066e565b6100d16100f43660046114bb565b61075e565b6100d1610107366004611471565b61082e565b61011f61011a3660046114dc565b610913565b6040516100ad9190611bdb565b61013f61013a366004611459565b610a5e565b6040516100ad9190611ec3565b600082815260016020526040812060060180548390811061017d57634e487b7160e01b600052603260045260246000fd5b6000918252602090912001546001600160a01b03169392505050565b6000546001600160a01b031681565b6000818152600160205260409020600201546001600160a01b031633146101ea5760405162461bcd60e51b81526004016101e190611e55565b60405180910390fd5b600081815260016020526040902060030154821461021a5760405162461bcd60e51b81526004016101e190611d64565b60008181526001602052604090205460ff16156102495760405162461bcd60e51b81526004016101e190611d2d565b60008181526001602081905260408220805460ff191690911790555b6000828152600160205260409020600501548110156104275760008281526001602052604081206005018054839081106102af57634e487b7160e01b600052603260045260246000fd5b60009182526020808320600e9092029091015485835260019091526040822080546002820154600590920180546001600160a01b03948516965086946326ea6128946101009094048116938a939116913091908a90811061032057634e487b7160e01b600052603260045260246000fd5b90600052602060002090600e02016040518663ffffffff1660e01b815260040161034e959493929190611bfb565b602060405180830381600087803b15801561036857600080fd5b505af115801561037c573d6000803e3d6000fd5b505050506040513d601f19601f820116820180604052508101906103a0919061141a565b90506001600160a01b0381166103c85760405162461bcd60e51b81526004016101e190611cf6565b600084815260016020818152604080842060060180549384018155845281842090920180546001600160a01b039095166001600160a01b031990951685179055928252600290925220839055508061041f816124d2565b915050610265565b5060008181526001602052604081206006018054339263c13784f792869290919061046257634e487b7160e01b600052603260045260246000fd5b6000918252602090912001546040517fffffffff0000000000000000000000000000000000000000000000000000000060e085901b1681526104b192916001600160a01b031690600401611be4565b600060405180830381600087803b1580156104cb57600080fd5b505af11580156104df573d6000803e3d6000fd5b5050505060005b6000828152600160205260409020600501548110156105c057600082815260016020526040812060060180548390811061053057634e487b7160e01b600052603260045260246000fd5b6000918252602082200154604080517f2c17b91e00000000000000000000000000000000000000000000000000000000815290516001600160a01b0390921693508392632c17b91e9260048084019382900301818387803b15801561059457600080fd5b505af11580156105a8573d6000803e3d6000fd5b505050505080806105b8906124d2565b9150506104e6565b50600081815260016020526040812060060180549091906105f157634e487b7160e01b600052603260045260246000fd5b6000918252602082200154604080517f3a275fa200000000000000000000000000000000000000000000000000000000815290516001600160a01b0390921692633a275fa29260048084019382900301818387803b15801561065257600080fd5b505af1158015610666573d6000803e3d6000fd5b505050505050565b6000805b600083815260016020819052604090912060060154610691919061205a565b8110156107535760008381526001602052604090206006018054829081106106c957634e487b7160e01b600052603260045260246000fd5b6000918252602090912001546001600160a01b031633141561074157600083815260016020819052604090912060060190610705908390612042565b8154811061072357634e487b7160e01b600052603260045260246000fd5b6000918252602090912001546001600160a01b031691506107599050565b8061074b816124d2565b915050610672565b50600090505b919050565b6040517fd3f79a05000000000000000000000000000000000000000000000000000000008152339063d3f79a059061079a908590600401611bdb565b60206040518083038186803b1580156107b257600080fd5b505afa1580156107c6573d6000803e3d6000fd5b505050506040513d601f19601f820116820180604052508101906107ea919061143d565b6108065760405162461bcd60e51b81526004016101e190611df8565b60009081526001602052604090206002810180546001600160a01b0319163317905560030155565b6000838152600160208190526040909120015483906001600160a01b0316331461086a5760405162461bcd60e51b81526004016101e190611e8c565b60008481526001602052604081206108879160059091019061112b565b60005b8281101561090c5760008581526001602052604090206005018484838181106108c357634e487b7160e01b600052603260045260246000fd5b90506020028101906108d59190612021565b8154600181018355600092835260209092209091600e02016108f7828261279c565b50508080610904906124d2565b91505061088a565b5050505050565b6000848152600160205260408120600401548514156109445760405162461bcd60e51b81526004016101e190611d9b565b600085815260016020819052604082206004810188905590810180546001600160a01b0319163317905580546001600160a01b038716610100027fffffffffffffffffffffff0000000000000000000000000000000000000000ff909116178155905b83811015610a1c57816005018585838181106109d357634e487b7160e01b600052603260045260246000fd5b90506020028101906109e59190612021565b8154600181018355600092835260209092209091600e0201610a07828261279c565b50508080610a14906124d2565b9150506109a7565b507faf58c2d61bce90c15ecad6e5142ecbbb0b542b557388df7578e0162b098999a386604051610a4c9190611bdb565b60405180910390a15093949350505050565b610a6661114f565b600082815260016020818152604080842081516101008082018452825460ff811615158352046001600160a01b0390811682860152948201548516818401526002820154909416606085015260038101546080850152600481015460a08501526005810180548351818602810186019094528084529495919460c08701949192909184015b828210156110ba5760008481526020908190206040805161010081018252600e860290920180546001600160a01b039081168452600182015481169484019490945260028101549093169082015260038201546060820152600482018054919291608084019190610b5b90612484565b80601f0160208091040260200160405190810160405280929190818152602001828054610b8790612484565b8015610bd45780601f10610ba957610100808354040283529160200191610bd4565b820191906000526020600020905b815481529060010190602001808311610bb757829003601f168201915b5050505050815260200160058201805480602002602001604051908101604052809291908181526020016000905b82821015610d195760008481526020908190206040805160e0810182526005860290920180548352600181015460ff8082161515958501959095526101008104851615159284019290925262010000909104909216606082015260028201546080820152600382015460a082015260048201805491929160c084019190610c8890612484565b80601f0160208091040260200160405190810160405280929190818152602001828054610cb490612484565b8015610d015780601f10610cd657610100808354040283529160200191610d01565b820191906000526020600020905b815481529060010190602001808311610ce457829003601f168201915b50505050508152505081526020019060010190610c02565b50505050815260200160068201805480602002602001604051908101604052809291908181526020016000905b82821015610e555760008481526020908190206040805160c08101825260048602909201805460ff80821615158552610100820416151594840194909452620100009093046001600160a01b031690820152600182015460608201526002820154608082015260038201805491929160a084019190610dc490612484565b80601f0160208091040260200160405190810160405280929190818152602001828054610df090612484565b8015610e3d5780601f10610e1257610100808354040283529160200191610e3d565b820191906000526020600020905b815481529060010190602001808311610e2057829003601f168201915b50505050508152505081526020019060010190610d46565b505050508152602001600782016040518060e001604052908160008201548152602001600182015481526020016002820154815260200160038201805480602002602001604051908101604052809291908181526020018280548015610eda57602002820191906000526020600020905b815481526020019060010190808311610ec6575b5050505050815260200160048201805480602002602001604051908101604052809291908181526020016000905b82821015610f7457600084815260209081902083018054604080518285028101850190915281815292830182828015610f6057602002820191906000526020600020905b815481526020019060010190808311610f4c575b505050505081526020019060010190610f08565b50505050815260200160058201805480602002602001604051908101604052809291908181526020016000905b8282101561100d57600084815260209081902083018054604080518285028101850190915281815292830182828015610ff957602002820191906000526020600020905b815481526020019060010190808311610fe5575b505050505081526020019060010190610fa1565b50505050815260200160068201805461102590612484565b80601f016020809104026020016040519081016040528092919081815260200182805461105190612484565b801561109e5780601f106110735761010080835404028352916020019161109e565b820191906000526020600020905b81548152906001019060200180831161108157829003601f168201915b5050505050815250508152505081526020019060010190610aeb565b5050505081526020016006820180548060200260200160405190810160405280929190818152602001828054801561111b57602002820191906000526020600020905b81546001600160a01b031681526001909101906020018083116110fd575b5050505050815250509050919050565b50805460008255600e029060005260206000209081019061114c9190611195565b50565b604080516101008101825260008082526020820181905291810182905260608082018390526080820183905260a082019290925260c0810182905260e081019190915290565b8082111561124e5780546001600160a01b031990811682556001820180548216905560028201805490911690556000600382018190556111d86004830182611252565b6111e660058301600061128e565b6111f46006830160006112af565b600060078301818155600884018290556009840182905590611219600a8501826112d0565b6112276004830160006112ee565b6112356005830160006112ee565b611243600683016000611252565b505050600e01611195565b5090565b50805461125e90612484565b6000825580601f10611270575061114c565b601f01602090049060005260206000209081019061114c919061130c565b508054600082556005029060005260206000209081019061114c9190611321565b508054600082556004029060005260206000209081019061114c9190611360565b508054600082559060005260206000209081019061114c919061130c565b508054600082559060005260206000209081019061114c91906113b4565b5b8082111561124e576000815560010161130d565b8082111561124e57600080825560018201805462ffffff1916905560028201819055600382018190556113576004830182611252565b50600501611321565b8082111561124e5780547fffffffffffffffffffff00000000000000000000000000000000000000000000168155600060018201819055600282018190556113ab6003830182611252565b50600401611360565b8082111561124e5760006113c882826112d0565b506001016113b4565b60008083601f8401126113e2578182fd5b50813567ffffffffffffffff8111156113f9578182fd5b602083019150836020808302850101111561141357600080fd5b9250929050565b60006020828403121561142b578081fd5b815161143681612a21565b9392505050565b60006020828403121561144e578081fd5b815161143681612a36565b60006020828403121561146a578081fd5b5035919050565b600080600060408486031215611485578182fd5b83359250602084013567ffffffffffffffff8111156114a2578283fd5b6114ae868287016113d1565b9497909650939450505050565b600080604083850312156114cd578182fd5b50508035926020909101359150565b600080600080606085870312156114f1578081fd5b84359350602085013561150381612a21565b9250604085013567ffffffffffffffff81111561151e578182fd5b61152a878288016113d1565b95989497509550505050565b6001600160a01b03169052565b6000815180845260208085019450808401835b8381101561157b5781516001600160a01b031687529582019590820190600101611556565b509495945050505050565b60008282518085526020808601955080818302840101818601855b848110156115cf57601f198684030189526115bd838351611992565b988401989250908301906001016115a1565b5090979650505050505050565b60008282548085526020808601955080818302840101858552818520855b848110156115cf57858303601f1901895261161583836119c1565b988401989250600191820191016115fa565b6000815180845260208085018081965082840281019150828601855b858110156116b85782840389528151805115158552858101511515868601526040808201516001600160a01b031690860152606080820151908601526080808201519086015260a09081015160c0918601829052906116a4818701836119f9565b9a87019a9550505090840190600101611643565b5091979650505050505050565b6000815480845260208085018081965082840281019150858552828520855b858110156116b857828403895260c0825460ff8082161515875261170f888801828460081c166119f3565b50611729604087016001600160a01b038360101c16611536565b5060018301546060860152600283015460808601528060a086015261175381860160038501611a44565b99860199945050600491909101906001016116e4565b6000815180845260208085018081965082840281019150828601855b858110156116b857828403895281516101006117a2868351611536565b868201516117b288880182611536565b506040808301516117c582890182611536565b5050606080830151818801525060808083015182828901526117e9838901826119f9565b9250505060a080830151878303828901526118048382611851565b9250505060c0808301518783038289015261181f8382611627565b9250505060e0808301519250868203818801525061183d8183611abb565b9a87019a9550505090840190600101611785565b6000815180845260208085018081965082840281019150828601855b858110156116b85782840389528151805185528581015115158686015260408082015115159086015260608082015160ff16908601526080808201519086015260a0808201519086015260c09081015160e0918601829052906118d2818701836119f9565b9a87019a955050509084019060010161186d565b6000815480845260208085018081965082840281019150858552828520855b858110156116b857828403895260e082548552600183015460ff61192d8888018284166119f3565b61193f60408801828460081c166119f3565b61195160608801828460101c16611bc0565b505060028301546080860152600383015460a08601528060c086015261197c81860160048501611a44565b9986019994505060059190910190600101611905565b6000815180845260208085019450808401835b8381101561157b578151875295820195908201906001016119a5565b6000815480845260208085019450838352808320835b8381101561157b578154875295820195600191820191016119d7565b15159052565b60008151808452815b81811015611a1e57602081850181015186830182015201611a02565b81811115611a2f5782602083870101525b50601f01601f19169290920160200192915050565b60008154611a5181612484565b808552602060018381168015611a6e5760018114611a8257611ab0565b60ff19851688840152604088019550611ab0565b866000528260002060005b85811015611aa85781548a8201860152908301908401611a8d565b890184019650505b505050505092915050565b6000815183526020820151602084015260408201516040840152606082015160e06060850152611aee60e0850182611992565b905060808301518482036080860152611b078282611586565b91505060a083015184820360a0860152611b218282611586565b91505060c083015184820360c0860152611b3b82826119f9565b95945050505050565b600081548352600182015460208401526002820154604084015260e06060840152611b7560e08401600384016119c1565b8381036080850152611b8a81600485016115dc565b905083810360a0850152611ba181600585016115dc565b905083810360c0850152611bb88160068501611a44565b949350505050565b60ff169052565b6001600160a01b0391909116815260200190565b90815260200190565b9182526001600160a01b0316602082015260400190565b60006001600160a01b038088168352866020840152808616604084015280851660608401525060a06080830152611c3e60a08301611c398554612071565b611536565b611c4b6001840154612071565b611c5860c0840182611536565b50611c666002840154612071565b611c7360e0840182611536565b50600383015461010083810191909152610120830152611c9a6101a0830160048501611a44565b609f198084830301610140850152611cb582600587016118e6565b91508084830301610160850152611ccf82600687016116c5565b9150808483030161018085015250611cea8160078601611b44565b98975050505050505050565b6020808252600f908201527f496e76616c696420616464726573730000000000000000000000000000000000604082015260600190565b60208082526019908201527f536f6c7574696f6e20616c726561647920657865637574656400000000000000604082015260600190565b60208082526010908201527f57726f6e672070726f706f73616c496400000000000000000000000000000000604082015260600190565b60208082526024908201527f536f6c7574696f6e734875623a3a5468697320494420616c726561647920657860408201527f6973747300000000000000000000000000000000000000000000000000000000606082015260800190565b60208082526024908201527f50726f706f73616c206973206e6f742076616c69642061742070726f706f736160408201527f6c48756200000000000000000000000000000000000000000000000000000000606082015260800190565b60208082526017908201527f4e6f7420636f72726563742070726f706f73616c487562000000000000000000604082015260600190565b60208082526018908201527f536f6c7574696f6e734875623a206f6e6c794b65657065720000000000000000604082015260600190565b6000602082528251151560208301526020830151611ee46040840182611536565b506040830151611ef76060840182611536565b506060830151611f0a6080840182611536565b50608083015160a083015260a083015160c083015260c08301516101008060e0850152611f3b610120850183611769565b915060e0850151601f198584030182860152611f578382611543565b9695505050505050565b6000808335601e19843603018112611f77578283fd5b83018035915067ffffffffffffffff821115611f91578283fd5b602090810192508102360382131561141357600080fd5b6000808335601e19843603018112611fbe578283fd5b83018035915067ffffffffffffffff821115611fd8578283fd5b60200191503681900382131561141357600080fd5b6000823560be19833603018112612002578182fd5b9190910192915050565b6000823560de19833603018112612002578182fd5b6000823560fe19833603018112612002578182fd5b60009081526020902090565b6000821982111561205557612055612503565b500190565b60008282101561206c5761206c612503565b500390565b6001600160a01b031690565b5b81811015612092576000815560010161207e565b5050565b680100000000000000008311156120af576120af612519565b8054838255808410156120ed576000828152602081208581019083015b808210156120e9576120de8383612542565b6001820191506120cc565b5050505b50816120f882612036565b6000805b8681101561212f5761210e8487611f61565b61211a81838688612893565b505060209390930192600192830192016120fc565b50505050505050565b6801000000000000000083111561215157612151612519565b805483825580841015612200577f3fffffffffffffffffffffffffffffffffffffffffffffffffffffffffffffff600181831181161561219357612193612503565b60048287118216156121a7576121a7612503565b600085815260208120909350878202810190828602015b808210156121fa578482556121d68586868501612a02565b6121e4858660028501612a02565b6121f18560038401612586565b908201906121be565b50505050505b508161220b82612036565b6000805b8681101561212f5761222b6122248588611fed565b83856128ac565b602093909301926004929092019160010161220f565b6801000000000000000083111561225a5761225a612519565b805483825580841015612317577f3333333333333333333333333333333333333333333333333333333333333333600181831181161561229c5761229c612503565b60058287118216156122b0576122b0612503565b600085815260208120909350878202810190828602015b80821015612311576122da858684612a02565b84848301556122ed858660028501612a02565b6122fb858660038501612a02565b6123088560048401612586565b908201906122c7565b50505050505b508161232282612036565b6000805b8681101561212f5761234261233b858861200c565b838561296b565b6020939093019260059290920191600101612326565b6123628382612542565b818160005260208060002060005b8681101561212f57833582559282019260019182019101612370565b67ffffffffffffffff8311156123a4576123a4612519565b6123ae8154612484565b600080601f8611601f8411818117156123cd576123ca86612036565b92505b80156123fc576020601f890104830160208910156123e85750825b6123fa6020601f88010485018261207d565b505b50806001811461242857600094508715612417578387013594505b61242188866124bf565b865561247a565b601f198816945082845b868110156124525788860135825560209586019560019092019101612432565b508886101561246f57878501356000196008601f8c16021c191681555b506001600289020186555b5050505050505050565b60028104600182168061249857607f821691505b602082108114156124b957634e487b7160e01b600052602260045260246000fd5b50919050565b600019600883021c191660029091021790565b60006000198214156124e6576124e6612503565b5060010190565b634e487b7160e01b600052600060045260246000fd5b634e487b7160e01b600052601160045260246000fd5b634e487b7160e01b600052604160045260246000fd5b6000813561253c81612a21565b92915050565b6801000000000000000082111561255b5761255b612519565b8054828255808310156125815781600052602060002061257f82820185830161207d565b505b505050565b8115612594576125946124ed565b61259e8154612484565b801561258157601f8111600181146125b9576000835561257f565b6000838152602081206125d76020601f86010482016001830161207d565b50838152602081206125ea8282546124bf565b85555550505050565b6001600160a01b0382166001600160a01b03198254161781555050565b60ff1981541660ff8315151681178255505050565b813581556001602080840135828401556040840135600284015561264c6060850185611f61565b61265a818360038801612358565b50506126696080850185611f61565b612677818360048801612096565b505061268660a0850185611f61565b612694818360058801612096565b5050600683016126a760c0860186611fa8565b67ffffffffffffffff8111156126bf576126bf612519565b6126c98354612484565b600080601f8411601f8411818117156126e8576126e588612036565b92505b80156127145788601f8701048301898710156127015750825b6127128a601f88010485018261207d565b505b5080600181146127405760009450851561272f578387013594505b61273986866124bf565b885561278e565b601f198616945082845b8681101561276757888601358255948a0194908b01908a0161274a565b508686101561278457878501356000196008601f8a16021c191681555b5089600287020188555b505050505050505050505050565b81356127a781612a21565b6127b181836125f3565b5060208201356127c081612a21565b6127cd81600184016125f3565b506127e66127dd6040840161252f565b600283016125f3565b606082013560038201556127fd6080830183611fa8565b61280b81836004860161238c565b505061281a60a0830183611f61565b612828818360058601612241565b505061283760c0830183611f61565b612845818360068601612138565b505061209261285760e084018461200c565b60078301612625565b805461ff00191691151560081b61ff0016919091179055565b805462ff00008360101b1662ff0000198216178255505050565b81156128a1576128a16124ed565b61257f848483612358565b81156128ba576128ba6124ed565b82356128c581612a36565b6128cf8183612610565b5060208301356128de81612a36565b6128e88183612860565b5060408301356128f781612a21565b81547fffffffffffffffffffff0000000000000000000000000000000000000000ffff1660109190911b75ffffffffffffffffffffffffffffffffffffffff000016178155606083013560018201556080830135600282015561295d60a0840184611fa8565b61090c81836003860161238c565b8115612979576129796124ed565b8235815560018101602084013561298f81612a36565b6129998183612610565b5060408401356129a881612a36565b6129b28183612860565b50606084013560ff811681146129c757600080fd5b6129d18183612879565b50506080830135600282015560a083013560038201556129f460c0840184611fa8565b61090c81836004860161238c565b805460088302600019811b8086831b1681198416178455505050505050565b6001600160a01b038116811461114c57600080fd5b801515811461114c57600080fdfea2646970667358221220b9c742a006906f2a7572befe0b36c59270023c8368d87732cb773db84c9b7c4064736f6c63430008000033",
  "linkReferences": {},
  "deployedLinkReferences": {}
}