{
  "_format": "hh-sol-artifact-1",
  "contractName": "SolutionsHub",
  "sourceName": "contracts/SolutionsHub.sol",
  "abi": [
    {
      "inputs": [
        {
          "internalType": "contract ConditionalTokens",
          "name": "_conditionalTokens",
          "type": "address"
        }
      ],
      "stateMutability": "nonpayable",
      "type": "constructor"
    },
    {
      "anonymous": false,
      "inputs": [
        {
          "indexed": false,
          "internalType": "bytes32",
          "name": "id",
          "type": "bytes32"
        }
      ],
      "name": "CreateSolution",
      "type": "event"
    },
    {
      "inputs": [],
      "name": "conditionalTokens",
      "outputs": [
        {
          "internalType": "contract ConditionalTokens",
          "name": "",
          "type": "address"
        }
      ],
      "stateMutability": "view",
      "type": "function"
    },
    {
      "inputs": [
        {
          "internalType": "contract IERC20",
          "name": "_collateralToken",
          "type": "address"
        },
        {
          "components": [
            {
              "internalType": "contract SolverFactory",
              "name": "factory",
              "type": "address"
            },
            {
              "internalType": "address",
              "name": "keeper",
              "type": "address"
            },
            {
              "internalType": "address",
              "name": "arbiter",
              "type": "address"
            },
            {
              "internalType": "uint256",
              "name": "timelockSeconds",
              "type": "uint256"
            },
            {
              "internalType": "bytes",
              "name": "data",
              "type": "bytes"
            },
            {
              "components": [
                {
                  "internalType": "address",
                  "name": "to",
                  "type": "address"
                },
                {
                  "internalType": "bool",
                  "name": "executed",
                  "type": "bool"
                },
                {
                  "internalType": "bool",
                  "name": "useSolverIdx",
                  "type": "bool"
                },
                {
                  "internalType": "uint256",
                  "name": "solverIdx",
                  "type": "uint256"
                },
                {
                  "internalType": "uint256",
                  "name": "value",
                  "type": "uint256"
                },
                {
                  "internalType": "bytes",
                  "name": "data",
                  "type": "bytes"
                }
              ],
              "internalType": "struct Minion.Action[]",
              "name": "actions",
              "type": "tuple[]"
            }
          ],
          "internalType": "struct Solver.Config[]",
          "name": "_solverConfigs",
          "type": "tuple[]"
        }
      ],
      "name": "createSolution",
      "outputs": [
        {
          "internalType": "bytes32",
          "name": "_solutionId",
          "type": "bytes32"
        }
      ],
      "stateMutability": "nonpayable",
      "type": "function"
    },
    {
      "inputs": [
        {
          "internalType": "bytes32",
          "name": "_proposalId",
          "type": "bytes32"
        },
        {
          "internalType": "bytes32",
          "name": "_solutionId",
          "type": "bytes32"
        }
      ],
      "name": "executeSolution",
      "outputs": [],
      "stateMutability": "nonpayable",
      "type": "function"
    },
    {
      "inputs": [
        {
          "internalType": "bytes32",
          "name": "_id",
          "type": "bytes32"
        }
      ],
      "name": "getSolution",
      "outputs": [
        {
          "components": [
            {
              "internalType": "bool",
              "name": "executed",
              "type": "bool"
            },
            {
              "internalType": "contract IERC20",
              "name": "collateralToken",
              "type": "address"
            },
            {
              "internalType": "address",
              "name": "keeper",
              "type": "address"
            },
            {
              "internalType": "address",
              "name": "proposalHub",
              "type": "address"
            },
            {
              "internalType": "bytes32",
              "name": "proposalId",
              "type": "bytes32"
            },
            {
              "internalType": "bytes32",
              "name": "id",
              "type": "bytes32"
            },
            {
              "components": [
                {
                  "internalType": "contract SolverFactory",
                  "name": "factory",
                  "type": "address"
                },
                {
                  "internalType": "address",
                  "name": "keeper",
                  "type": "address"
                },
                {
                  "internalType": "address",
                  "name": "arbiter",
                  "type": "address"
                },
                {
                  "internalType": "uint256",
                  "name": "timelockSeconds",
                  "type": "uint256"
                },
                {
                  "internalType": "bytes",
                  "name": "data",
                  "type": "bytes"
                },
                {
                  "components": [
                    {
                      "internalType": "address",
                      "name": "to",
                      "type": "address"
                    },
                    {
                      "internalType": "bool",
                      "name": "executed",
                      "type": "bool"
                    },
                    {
                      "internalType": "bool",
                      "name": "useSolverIdx",
                      "type": "bool"
                    },
                    {
                      "internalType": "uint256",
                      "name": "solverIdx",
                      "type": "uint256"
                    },
                    {
                      "internalType": "uint256",
                      "name": "value",
                      "type": "uint256"
                    },
                    {
                      "internalType": "bytes",
                      "name": "data",
                      "type": "bytes"
                    }
                  ],
                  "internalType": "struct Minion.Action[]",
                  "name": "actions",
                  "type": "tuple[]"
                }
              ],
              "internalType": "struct Solver.Config[]",
              "name": "solverConfigs",
              "type": "tuple[]"
            },
            {
              "internalType": "address[]",
              "name": "solverAddresses",
              "type": "address[]"
            }
          ],
          "internalType": "struct SolutionsHub.Solution",
          "name": "solution",
          "type": "tuple"
        }
      ],
      "stateMutability": "view",
      "type": "function"
    },
    {
      "inputs": [
        {
          "internalType": "bytes32",
          "name": "_proposalId",
          "type": "bytes32"
        },
        {
          "internalType": "bytes32",
          "name": "_solutionId",
          "type": "bytes32"
        }
      ],
      "name": "linkToProposal",
      "outputs": [],
      "stateMutability": "nonpayable",
      "type": "function"
    },
    {
      "inputs": [
        {
          "internalType": "bytes32",
          "name": "_solutionId",
          "type": "bytes32"
        },
        {
          "components": [
            {
              "internalType": "contract SolverFactory",
              "name": "factory",
              "type": "address"
            },
            {
              "internalType": "address",
              "name": "keeper",
              "type": "address"
            },
            {
              "internalType": "address",
              "name": "arbiter",
              "type": "address"
            },
            {
              "internalType": "uint256",
              "name": "timelockSeconds",
              "type": "uint256"
            },
            {
              "internalType": "bytes",
              "name": "data",
              "type": "bytes"
            },
            {
              "components": [
                {
                  "internalType": "address",
                  "name": "to",
                  "type": "address"
                },
                {
                  "internalType": "bool",
                  "name": "executed",
                  "type": "bool"
                },
                {
                  "internalType": "bool",
                  "name": "useSolverIdx",
                  "type": "bool"
                },
                {
                  "internalType": "uint256",
                  "name": "solverIdx",
                  "type": "uint256"
                },
                {
                  "internalType": "uint256",
                  "name": "value",
                  "type": "uint256"
                },
                {
                  "internalType": "bytes",
                  "name": "data",
                  "type": "bytes"
                }
              ],
              "internalType": "struct Minion.Action[]",
              "name": "actions",
              "type": "tuple[]"
            }
          ],
          "internalType": "struct Solver.Config[]",
          "name": "_solverConfigs",
          "type": "tuple[]"
        }
      ],
      "name": "setSolverConfigs",
      "outputs": [],
      "stateMutability": "nonpayable",
      "type": "function"
    },
    {
      "inputs": [
        {
          "internalType": "bytes32",
          "name": "_solutionId",
          "type": "bytes32"
        },
        {
          "internalType": "uint256",
          "name": "_index",
          "type": "uint256"
        }
      ],
      "name": "solverFromIndex",
      "outputs": [
        {
          "internalType": "address",
          "name": "solver",
          "type": "address"
        }
      ],
      "stateMutability": "view",
      "type": "function"
    }
  ],
  "bytecode": "0x608060405234801561001057600080fd5b50604051611d1d380380611d1d83398101604081905261002f91610054565b600180546001600160a01b0319166001600160a01b0392909216919091179055610082565b600060208284031215610065578081fd5b81516001600160a01b038116811461007b578182fd5b9392505050565b611c8c806100916000396000f3fe608060405234801561001057600080fd5b506004361061007d5760003560e01c806360bbb9281161005b57806360bbb928146100d357806373c587f5146100e8578063d8e4844e146100fb578063ddc02e031461010e5761007d565b8063191481a0146100825780634a2b487f146100ab5780635bd9e299146100cb575b600080fd5b610095610090366004610f6a565b61012e565b6040516100a291906112e7565b60405180910390f35b6100be6100b9366004610f8b565b61017b565b6040516100a291906112fb565b6100956102d6565b6100e66100e1366004610f6a565b6102e5565b005b6100e66100f6366004610f6a565b610749565b6100e6610109366004610f20565b61081b565b61012161011c366004610f08565b6108ff565b6040516100a29190611541565b600082815260026020526040812060060180548390811061015f57634e487b7160e01b600052603260045260246000fd5b6000918252602090912001546001600160a01b03169392505050565b60008054818061018a83611986565b9091555050600080546040516101a49133916020016112c5565b60408051601f19818403018152918152815160209283012060008181526002909352908220600481018290556001810180546001600160a01b0319163317905580546001600160a01b038916610100027fffffffffffffffffffffff0000000000000000000000000000000000000000ff909116178155909250905b84811015610295578160050186868381811061024c57634e487b7160e01b600052603260045260246000fd5b905060200281019061025e9190611624565b8154600181018355600092835260209092209091600602016102808282611a43565b5050808061028d90611986565b915050610220565b507faf58c2d61bce90c15ecad6e5142ecbbb0b542b557388df7578e0162b098999a3826040516102c591906112fb565b60405180910390a150949350505050565b6001546001600160a01b031681565b600081815260026020819052604090912001546001600160a01b031633146103285760405162461bcd60e51b815260040161031f906114d3565b60405180910390fd5b60008181526002602052604090206003015482146103585760405162461bcd60e51b815260040161031f9061143f565b60008181526002602052604090205460ff16156103875760405162461bcd60e51b815260040161031f90611408565b6000818152600260205260408120805460ff191660011790555b60008281526002602052604090206005015481101561056b5760008281526002602052604081206005018054839081106103eb57634e487b7160e01b600052603260045260246000fd5b6000918252602080832060069092029091015485835260029182905260408320805492810154600590910180546001600160a01b0393841696508694631b0bf1be946101009091048116938a939116913091908a90811061045c57634e487b7160e01b600052603260045260246000fd5b90600052602060002090600602016040518663ffffffff1660e01b815260040161048a95949392919061131b565b602060405180830381600087803b1580156104a457600080fd5b505af11580156104b8573d6000803e3d6000fd5b505050506040513d601f19601f820116820180604052508101906104dc9190610ec9565b90506104e781610c60565b6001600160a01b03811661050d5760405162461bcd60e51b815260040161031f906113d1565b600084815260026020908152604080832060060180546001810182559084528284200180546001600160a01b039095166001600160a01b0319909516851790559282526003905220839055508061056381611986565b9150506103a1565b5060008181526002602052604081206006018054339263c13784f79286929091906105a657634e487b7160e01b600052603260045260246000fd5b6000918252602090912001546040517fffffffff0000000000000000000000000000000000000000000000000000000060e085901b1681526105f592916001600160a01b031690600401611304565b600060405180830381600087803b15801561060f57600080fd5b505af1158015610623573d6000803e3d6000fd5b5050505060005b60008281526002602052604090206005015481101561074457600082815260026020526040812060060180548390811061067457634e487b7160e01b600052603260045260246000fd5b60009182526020808320909101548583526002909152604090912060060180546001600160a01b0390921692506106dd91849081106106c357634e487b7160e01b600052603260045260246000fd5b6000918252602090912001546001600160a01b0316610c60565b806001600160a01b0316633a275fa26040518163ffffffff1660e01b8152600401600060405180830381600087803b15801561071857600080fd5b505af115801561072c573d6000803e3d6000fd5b5050505050808061073c90611986565b91505061062a565b505050565b6040517fd3f79a05000000000000000000000000000000000000000000000000000000008152339063d3f79a05906107859085906004016112fb565b60206040518083038186803b15801561079d57600080fd5b505afa1580156107b1573d6000803e3d6000fd5b505050506040513d601f19601f820116820180604052508101906107d59190610eec565b6107f15760405162461bcd60e51b815260040161031f90611476565b600090815260026020819052604090912090810180546001600160a01b0319163317905560030155565b60008381526002602052604090206001015483906001600160a01b031633146108565760405162461bcd60e51b815260040161031f9061150a565b600084815260026020526040812061087391600590910190610cf5565b60005b828110156108f85760008581526002602052604090206005018484838181106108af57634e487b7160e01b600052603260045260246000fd5b90506020028101906108c19190611624565b8154600181018355600092835260209092209091600602016108e38282611a43565b505080806108f090611986565b915050610876565b5050505050565b610907610d16565b600082815260026020818152604080842081516101008082018452825460ff811615158352046001600160a01b0390811682860152600183015481168285015294820154909416606085015260038101546080850152600481015460a08501526005810180548351818602810186019094528084529495919460c08701949192909184015b82821015610bef5760008481526020908190206040805160c0810182526006860290920180546001600160a01b0390811684526001820154811694840194909452600281015490931690820152600382015460608201526004820180549192916080840191906109fb90611938565b80601f0160208091040260200160405190810160405280929190818152602001828054610a2790611938565b8015610a745780601f10610a4957610100808354040283529160200191610a74565b820191906000526020600020905b815481529060010190602001808311610a5757829003601f168201915b5050505050815260200160058201805480602002602001604051908101604052809291908181526020016000905b82821015610bd85760008481526020908190206040805160c0810182526004860290920180546001600160a01b038116845260ff740100000000000000000000000000000000000000008204811615159585019590955275010000000000000000000000000000000000000000009004909316151590820152600182015460608201526002820154608082015260038201805491929160a084019190610b4790611938565b80601f0160208091040260200160405190810160405280929190818152602001828054610b7390611938565b8015610bc05780601f10610b9557610100808354040283529160200191610bc0565b820191906000526020600020905b815481529060010190602001808311610ba357829003601f168201915b50505050508152505081526020019060010190610aa2565b50505050815250508152602001906001019061098c565b50505050815260200160068201805480602002602001604051908101604052809291908181526020018280548015610c5057602002820191906000526020600020905b81546001600160a01b03168152600190910190602001808311610c32575b5050505050815250509050919050565b610cd181604051602401610c7491906112e7565b60408051601f198184030181529190526020810180517bffffffffffffffffffffffffffffffffffffffffffffffffffffffff167f2c2ecbc200000000000000000000000000000000000000000000000000000000179052610cd4565b50565b80516a636f6e736f6c652e6c6f67602083016000808483855afa5050505050565b5080546000825560060290600052602060002090810190610cd19190610d5c565b604080516101008101825260008082526020820181905291810182905260608082018390526080820183905260a082019290925260c0810182905260e081019190915290565b80821115610db65780546001600160a01b03199081168255600182018054821690556002820180549091169055600060038201819055610d9f6004830182610dba565b610dad600583016000610df6565b50600601610d5c565b5090565b508054610dc690611938565b6000825580601f10610dd85750610cd1565b601f016020900490600052602060002090810190610cd19190610e17565b5080546000825560040290600052602060002090810190610cd19190610e2c565b5b80821115610db65760008155600101610e18565b80821115610db65780547fffffffffffffffffffff0000000000000000000000000000000000000000000016815560006001820181905560028201819055610e776003830182610dba565b50600401610e2c565b60008083601f840112610e91578182fd5b50813567ffffffffffffffff811115610ea8578182fd5b6020830191508360208083028501011115610ec257600080fd5b9250929050565b600060208284031215610eda578081fd5b8151610ee581611c33565b9392505050565b600060208284031215610efd578081fd5b8151610ee581611c48565b600060208284031215610f19578081fd5b5035919050565b600080600060408486031215610f34578182fd5b83359250602084013567ffffffffffffffff811115610f51578283fd5b610f5d86828701610e80565b9497909650939450505050565b60008060408385031215610f7c578182fd5b50508035926020909101359150565b600080600060408486031215610f9f578283fd5b8335610faa81611c33565b9250602084013567ffffffffffffffff811115610f51578283fd5b6001600160a01b03169052565b6000815180845260208085019450808401835b8381101561100a5781516001600160a01b031687529582019590820190600101610fe5565b509495945050505050565b6000815180845260208085018081965082840281019150828601855b858110156110a6578284038952815180516001600160a01b0316855285810151151586860152604080820151151590860152606080820151908601526080808201519086015260a09081015160c09186018290529061109281870183611203565b9a87019a9550505090840190600101611031565b5091979650505050505050565b6000815480845260208085018081965082840281019150858552828520855b858110156110a657828403895260c082546001600160a01b038116865260ff60a06111038989018385841c166111fd565b61111560408901838560a81c166111fd565b600186015460608901526002860154608089015283818901525050506111408186016003850161124e565b99860199945050600491909101906001016110d2565b6000815180845260208085018081965082840281019150828601855b858110156110a6578284038952815160c06001600160a01b03808351168752808884015116888801526040818185015116818901525050606080830151818801525060808083015182828901526111cb83890182611203565b9250505060a080830151925086820381880152506111e98183611015565b9a87019a9550505090840190600101611172565b15159052565b60008151808452815b818110156112285760208185018101518683018201520161120c565b818111156112395782602083870101525b50601f01601f19169290920160200192915050565b6000815461125b81611938565b808552602060018381168015611278576001811461128c576112ba565b60ff198516888401526040880195506112ba565b866000528260002060005b858110156112b25781548a8201860152908301908401611297565b890184019650505b505050505092915050565b60609290921b6bffffffffffffffffffffffff19168252601482015260340190565b6001600160a01b0391909116815260200190565b90815260200190565b9182526001600160a01b0316602082015260400190565b60006001600160a01b0380881683528660208401528086166040840152808516606084015260a060808401528084541660a08401525061135e60018401546116f4565b61136b60c0840182610fc5565b5061137960028401546116f4565b61138660e0840182610fc5565b50600383015461010083015260c06101208301526113ab61016083016004850161124e565b828103609f19016101408401526113c581600586016110b3565b98975050505050505050565b6020808252600f908201527f496e76616c696420616464726573730000000000000000000000000000000000604082015260600190565b60208082526019908201527f536f6c7574696f6e20616c726561647920657865637574656400000000000000604082015260600190565b60208082526010908201527f57726f6e672070726f706f73616c496400000000000000000000000000000000604082015260600190565b60208082526024908201527f50726f706f73616c206973206e6f742076616c69642061742070726f706f736160408201527f6c48756200000000000000000000000000000000000000000000000000000000606082015260800190565b60208082526017908201527f4e6f7420636f72726563742070726f706f73616c487562000000000000000000604082015260600190565b60208082526018908201527f536f6c7574696f6e734875623a206f6e6c794b65657065720000000000000000604082015260600190565b60006020825282511515602083015260208301516115626040840182610fc5565b5060408301516115756060840182610fc5565b5060608301516115886080840182610fc5565b50608083015160a083015260a083015160c083015260c08301516101008060e08501526115b9610120850183611156565b915060e0850151601f1985840301828601526115d58382610fd2565b9695505050505050565b6000808335601e198436030181126115f5578182fd5b83018035915067ffffffffffffffff82111561160f578283fd5b602001915036819003821315610ec257600080fd5b6000823560be19833603018112611639578182fd5b9190910192915050565b60009081526020902090565b6020841080156116a557601f8411600181146116765761166f8685611973565b835561169f565b61167f83611643565b6116946020601f880104820160018301611700565b5061169f8684611a08565b506108f8565b8160005260206000206020601f8701048101601f871680156116cf576116cf8160001984016119cd565b506116e26020601f880104830182611700565b50506001856002021782555050505050565b6001600160a01b031690565b5b818110156117155760008155600101611701565b5050565b68010000000000000000831115611732576117326119b7565b8054838255808410156117f6577f3fffffffffffffffffffffffffffffffffffffffffffffffffffffffffffffff6001818311811615611774576117746119a1565b6004828711821615611788576117886119a1565b600085815260208120909350878202810190828602015b808210156117f0578482556117b6858584016119f4565b6117c385600284016119f4565b6003820180546117d281611938565b80156117e4576117e48882848661164f565b5050509082019061179f565b50505050505b508161180182611643565b6000805b868110156118375761182161181a8588611624565b8385611b6b565b6020939093019260049290920191600101611805565b50505050505050565b67ffffffffffffffff831115611858576118586119b7565b6118628154611938565b600080601f8611601f8411818117156118815761187e86611643565b92505b80156118b0576020601f8901048301602089101561189c5750825b6118ae6020601f880104850182611700565b505b5080600181146118dc576000945087156118cb578387013594505b6118d58886611973565b865561192e565b601f198816945082845b8681101561190657888601358255602095860195600190920191016118e6565b508886101561192357878501356000196008601f8c16021c191681555b506001600289020186555b5050505050505050565b60028104600182168061194c57607f821691505b6020821081141561196d57634e487b7160e01b600052602260045260246000fd5b50919050565b600019600883021c191660029091021790565b600060001982141561199a5761199a6119a1565b5060010190565b634e487b7160e01b600052601160045260246000fd5b634e487b7160e01b600052604160045260246000fd5b8054600019836020036008021c1681555050565b600081356119ee81611c48565b92915050565b8054600019600884021b1981168255505050565b806000526020600020611a1c838254611973565b9091556000905550565b6001600160a01b0382166001600160a01b03198254161781555050565b8135611a4e81611c33565b6001600160a01b0381166001600160a01b0319835416178255506020820135611a7681611c33565b611a838160018401611a26565b506040820135611a9281611c33565b611a9f8160028401611a26565b5060608201356003820155611ab760808301836115df565b611ac5818360048601611840565b505060a0820135601e19833603018112611ade57600080fd5b8201803567ffffffffffffffff811115611af757600080fd5b60209182019181023603821315611b0d57600080fd5b611b1b818360058601611719565b50505050565b80547fffffffffffffffffffff00ffffffffffffffffffffffffffffffffffffffffff1691151560a81b75ff00000000000000000000000000000000000000000016919091179055565b8115611b8757634e487b7160e01b600052600060045260246000fd5b8235611b9281611c33565b611b9c8183611a26565b506020830135611bab81611c48565b81547fffffffffffffffffffffff00ffffffffffffffffffffffffffffffffffffffff1690151560a01b74ff000000000000000000000000000000000000000016178155611c04611bfe604085016119e1565b82611b21565b6060830135600182015560808301356002820155611c2560a08401846115df565b6108f8818360038601611840565b6001600160a01b0381168114610cd157600080fd5b8015158114610cd157600080fdfea26469706673582212209a38308220c8c73e8959702a848a00eddfe9c7b9f3d1f63814bb5a1bbf8d840a64736f6c63430008000033",
  "linkReferences": {},
  "deployedLinkReferences": {}
}