{
  "_format": "hh-sol-artifact-1",
  "contractName": "SolutionsHub",
  "sourceName": "contracts/SolutionsHub.sol",
  "abi": [
    {
      "inputs": [
        {
          "internalType": "bytes32",
          "name": "_solutionId",
          "type": "bytes32"
        }
      ],
      "name": "executeSolution",
      "outputs": [],
      "stateMutability": "nonpayable",
      "type": "function"
    }
  ],
  "bytecode": "0x608060405234801561001057600080fd5b50610b7d806100206000396000f3fe608060405234801561001057600080fd5b506004361061002b5760003560e01c8063a51853c414610030575b600080fd5b61004a60048036038101906100459190610711565b61004c565b005b60008060008381526020019081526020016000206040518060400160405290816000820154815260200160018201805480602002602001604051908101604052809291908181526020016000905b828210156104415783829060005260206000209060090201604051806101200160405290816000820160009054906101000a900473ffffffffffffffffffffffffffffffffffffffff1673ffffffffffffffffffffffffffffffffffffffff1673ffffffffffffffffffffffffffffffffffffffff1681526020016001820160009054906101000a900473ffffffffffffffffffffffffffffffffffffffff1673ffffffffffffffffffffffffffffffffffffffff1673ffffffffffffffffffffffffffffffffffffffff1681526020016002820160009054906101000a900473ffffffffffffffffffffffffffffffffffffffff1673ffffffffffffffffffffffffffffffffffffffff1673ffffffffffffffffffffffffffffffffffffffff1681526020016003820160009054906101000a900473ffffffffffffffffffffffffffffffffffffffff1673ffffffffffffffffffffffffffffffffffffffff1673ffffffffffffffffffffffffffffffffffffffff16815260200160048201548152602001600582015481526020016006820154815260200160078201805461024490610a2f565b80601f016020809104026020016040519081016040528092919081815260200182805461027090610a2f565b80156102bd5780601f10610292576101008083540402835291602001916102bd565b820191906000526020600020905b8154815290600101906020018083116102a057829003601f168201915b5050505050815260200160088201805480602002602001604051908101604052809291908181526020016000905b8282101561042a5783829060005260206000209060030201604051806080016040529081600082015481526020016001820160009054906101000a900473ffffffffffffffffffffffffffffffffffffffff1673ffffffffffffffffffffffffffffffffffffffff1673ffffffffffffffffffffffffffffffffffffffff1681526020016001820160149054906101000a900460ff1615151515815260200160028201805461039990610a2f565b80601f01602080910402602001604051908101604052809291908181526020018280546103c590610a2f565b80156104125780601f106103e757610100808354040283529160200191610412565b820191906000526020600020905b8154815290600101906020018083116103f557829003601f168201915b505050505081525050815260200190600101906102eb565b50505050815250508152602001906001019061009a565b5050505081525050905060005b8160200151518110156106b95760008260200151828151811061049a577f4e487b7100000000000000000000000000000000000000000000000000000000600052603260045260246000fd5b60200260200101516000015190508073ffffffffffffffffffffffffffffffffffffffff16631c6cd6c284602001518481518110610501577f4e487b7100000000000000000000000000000000000000000000000000000000600052603260045260246000fd5b6020026020010151602001518560200151858151811061054a577f4e487b7100000000000000000000000000000000000000000000000000000000600052603260045260246000fd5b60200260200101516040015186602001518681518110610593577f4e487b7100000000000000000000000000000000000000000000000000000000600052603260045260246000fd5b602002602001015160c00151876020015187815181106105dc577f4e487b7100000000000000000000000000000000000000000000000000000000600052603260045260246000fd5b6020026020010151610100015188602001518881518110610626577f4e487b7100000000000000000000000000000000000000000000000000000000600052603260045260246000fd5b602002602001015160e001516040518663ffffffff1660e01b81526004016106529594939291906108e3565b602060405180830381600087803b15801561066c57600080fd5b505af1158015610680573d6000803e3d6000fd5b505050506040513d601f19601f820116820180604052508101906106a491906106e8565b505080806106b190610a61565b91505061044e565b505050565b6000815190506106cd81610b19565b92915050565b6000813590506106e281610b30565b92915050565b6000602082840312156106fa57600080fd5b6000610708848285016106be565b91505092915050565b60006020828403121561072357600080fd5b6000610731848285016106d3565b91505092915050565b60006107468383610862565b905092915050565b610757816109aa565b82525050565b610766816109aa565b82525050565b600061077782610954565b6107818185610977565b93508360208202850161079385610944565b8060005b858110156107cf57848403895281516107b0858261073a565b94506107bb8361096a565b925060208a01995050600181019050610797565b50829750879550505050505092915050565b6107ea816109bc565b82525050565b60006107fb8261095f565b6108058185610988565b93506108158185602086016109fc565b61081e81610b08565b840191505092915050565b60006108348261095f565b61083e8185610999565b935061084e8185602086016109fc565b61085781610b08565b840191505092915050565b600060808301600083015161087a60008601826108c5565b50602083015161088d602086018261074e565b5060408301516108a060408601826107e1565b50606083015184820360608601526108b882826107f0565b9150508091505092915050565b6108ce816109f2565b82525050565b6108dd816109f2565b82525050565b600060a0820190506108f8600083018861075d565b610905602083018761075d565b61091260408301866108d4565b8181036060830152610924818561076c565b905081810360808301526109388184610829565b90509695505050505050565b6000819050602082019050919050565b600081519050919050565b600081519050919050565b6000602082019050919050565b600082825260208201905092915050565b600082825260208201905092915050565b600082825260208201905092915050565b60006109b5826109d2565b9050919050565b60008115159050919050565b6000819050919050565b600073ffffffffffffffffffffffffffffffffffffffff82169050919050565b6000819050919050565b60005b83811015610a1a5780820151818401526020810190506109ff565b83811115610a29576000848401525b50505050565b60006002820490506001821680610a4757607f821691505b60208210811415610a5b57610a5a610ad9565b5b50919050565b6000610a6c826109f2565b91507fffffffffffffffffffffffffffffffffffffffffffffffffffffffffffffffff821415610a9f57610a9e610aaa565b5b600182019050919050565b7f4e487b7100000000000000000000000000000000000000000000000000000000600052601160045260246000fd5b7f4e487b7100000000000000000000000000000000000000000000000000000000600052602260045260246000fd5b6000601f19601f8301169050919050565b610b22816109aa565b8114610b2d57600080fd5b50565b610b39816109c8565b8114610b4457600080fd5b5056fea2646970667358221220942068eda339ae4ac9b59b7de8f36c86bef9bb6a543a7b8f6adada6bf34e914f64736f6c63430008000033",
  "linkReferences": {},
  "deployedLinkReferences": {}
}