{
  "_format": "hh-sol-artifact-1",
  "contractName": "SolutionsHub",
  "sourceName": "contracts/SolutionsHub.sol",
  "abi": [
    {
      "anonymous": false,
      "inputs": [
        {
          "indexed": false,
          "internalType": "bytes32",
          "name": "id",
          "type": "bytes32"
        }
      ],
      "name": "CreateSolution",
      "type": "event"
    },
    {
      "inputs": [],
      "name": "conditionalTokens",
      "outputs": [
        {
          "internalType": "contract ConditionalTokens",
          "name": "",
          "type": "address"
        }
      ],
      "stateMutability": "view",
      "type": "function"
    },
    {
      "inputs": [
        {
          "internalType": "bytes32",
          "name": "_id",
          "type": "bytes32"
        },
        {
          "internalType": "contract IERC20",
          "name": "_collateralToken",
          "type": "address"
        },
        {
          "components": [
            {
              "internalType": "contract Solver",
              "name": "implementation",
              "type": "address"
            },
            {
              "internalType": "address",
              "name": "keeper",
              "type": "address"
            },
            {
              "internalType": "address",
              "name": "arbitrator",
              "type": "address"
            },
            {
              "internalType": "uint256",
              "name": "timelockSeconds",
              "type": "uint256"
            },
            {
              "internalType": "bytes",
              "name": "data",
              "type": "bytes"
            },
            {
              "components": [
                {
                  "internalType": "uint256",
                  "name": "executions",
                  "type": "uint256"
                },
                {
                  "internalType": "enum SolverLib.IngestType",
                  "name": "ingestType",
                  "type": "uint8"
                },
                {
                  "internalType": "uint8",
                  "name": "dataType",
                  "type": "uint8"
                },
                {
                  "internalType": "uint256",
                  "name": "key",
                  "type": "uint256"
                },
                {
                  "internalType": "uint256",
                  "name": "solverIndex",
                  "type": "uint256"
                },
                {
                  "internalType": "bytes",
                  "name": "data",
                  "type": "bytes"
                }
              ],
              "internalType": "struct SolverLib.Ingest[]",
              "name": "ingests",
              "type": "tuple[]"
            },
            {
              "components": [
                {
                  "internalType": "contract IERC20",
                  "name": "collateralToken",
                  "type": "address"
                },
                {
                  "internalType": "uint256",
                  "name": "outcomeSlots",
                  "type": "uint256"
                },
                {
                  "internalType": "uint256",
                  "name": "parentCollectionIndexSet",
                  "type": "uint256"
                },
                {
                  "internalType": "uint256",
                  "name": "amountSlot",
                  "type": "uint256"
                },
                {
                  "internalType": "uint256[]",
                  "name": "partition",
                  "type": "uint256[]"
                },
                {
                  "internalType": "uint256[]",
                  "name": "recipientAddressSlots",
                  "type": "uint256[]"
                },
                {
                  "internalType": "uint256[][]",
                  "name": "recipientAmountSlots",
                  "type": "uint256[][]"
                },
                {
                  "internalType": "string",
                  "name": "conditionURI",
                  "type": "string"
                }
              ],
              "internalType": "struct SolverLib.ConditionBase",
              "name": "conditionBase",
              "type": "tuple"
            }
          ],
          "internalType": "struct SolverLib.Config[]",
          "name": "_solverConfigs",
          "type": "tuple[]"
        }
      ],
      "name": "createSolution",
      "outputs": [
        {
          "internalType": "bytes32",
          "name": "_solutionId",
          "type": "bytes32"
        }
      ],
      "stateMutability": "nonpayable",
      "type": "function"
    },
    {
      "inputs": [
        {
          "internalType": "bytes32",
          "name": "_proposalId",
          "type": "bytes32"
        },
        {
          "internalType": "bytes32",
          "name": "_solutionId",
          "type": "bytes32"
        }
      ],
      "name": "executeSolution",
      "outputs": [],
      "stateMutability": "nonpayable",
      "type": "function"
    },
    {
      "inputs": [
        {
          "internalType": "bytes32",
          "name": "_proposalId",
          "type": "bytes32"
        },
        {
          "internalType": "bytes32",
          "name": "_solutionId",
          "type": "bytes32"
        }
      ],
      "name": "linkToProposal",
      "outputs": [],
      "stateMutability": "nonpayable",
      "type": "function"
    },
    {
      "inputs": [
        {
          "internalType": "bytes32",
          "name": "_solutionId",
          "type": "bytes32"
        },
        {
          "components": [
            {
              "internalType": "contract Solver",
              "name": "implementation",
              "type": "address"
            },
            {
              "internalType": "address",
              "name": "keeper",
              "type": "address"
            },
            {
              "internalType": "address",
              "name": "arbitrator",
              "type": "address"
            },
            {
              "internalType": "uint256",
              "name": "timelockSeconds",
              "type": "uint256"
            },
            {
              "internalType": "bytes",
              "name": "data",
              "type": "bytes"
            },
            {
              "components": [
                {
                  "internalType": "uint256",
                  "name": "executions",
                  "type": "uint256"
                },
                {
                  "internalType": "enum SolverLib.IngestType",
                  "name": "ingestType",
                  "type": "uint8"
                },
                {
                  "internalType": "uint8",
                  "name": "dataType",
                  "type": "uint8"
                },
                {
                  "internalType": "uint256",
                  "name": "key",
                  "type": "uint256"
                },
                {
                  "internalType": "uint256",
                  "name": "solverIndex",
                  "type": "uint256"
                },
                {
                  "internalType": "bytes",
                  "name": "data",
                  "type": "bytes"
                }
              ],
              "internalType": "struct SolverLib.Ingest[]",
              "name": "ingests",
              "type": "tuple[]"
            },
            {
              "components": [
                {
                  "internalType": "contract IERC20",
                  "name": "collateralToken",
                  "type": "address"
                },
                {
                  "internalType": "uint256",
                  "name": "outcomeSlots",
                  "type": "uint256"
                },
                {
                  "internalType": "uint256",
                  "name": "parentCollectionIndexSet",
                  "type": "uint256"
                },
                {
                  "internalType": "uint256",
                  "name": "amountSlot",
                  "type": "uint256"
                },
                {
                  "internalType": "uint256[]",
                  "name": "partition",
                  "type": "uint256[]"
                },
                {
                  "internalType": "uint256[]",
                  "name": "recipientAddressSlots",
                  "type": "uint256[]"
                },
                {
                  "internalType": "uint256[][]",
                  "name": "recipientAmountSlots",
                  "type": "uint256[][]"
                },
                {
                  "internalType": "string",
                  "name": "conditionURI",
                  "type": "string"
                }
              ],
              "internalType": "struct SolverLib.ConditionBase",
              "name": "conditionBase",
              "type": "tuple"
            }
          ],
          "internalType": "struct SolverLib.Config[]",
          "name": "_solverConfigs",
          "type": "tuple[]"
        }
      ],
      "name": "setSolverConfigs",
      "outputs": [],
      "stateMutability": "nonpayable",
      "type": "function"
    },
    {
      "inputs": [
        {
          "internalType": "bytes32",
          "name": "_solutionId",
          "type": "bytes32"
        },
        {
          "internalType": "uint256",
          "name": "_index",
          "type": "uint256"
        }
      ],
      "name": "solverFromIndex",
      "outputs": [
        {
          "internalType": "address",
          "name": "_address",
          "type": "address"
        }
      ],
      "stateMutability": "view",
      "type": "function"
    }
  ],
  "bytecode": "0x60a06040527f5fbdb2315678afecb367f032d93f642f64180aa300000000000000000000000060805234801561003457600080fd5b5060805160601c611b13610053600039600061023f0152611b136000f3fe608060405234801561001057600080fd5b50600436106100725760003560e01c806360bbb9281161005057806360bbb928146100bd57806373c587f5146100d057806391f938fa146100e357610072565b8063191481a0146100775780632c5dd4e5146100a05780635bd9e299146100b5575b600080fd5b61008a610085366004610d31565b610103565b60405161009791906110bb565b60405180910390f35b6100b36100ae366004610ce7565b610150565b005b61008a61023d565b6100b36100cb366004610d31565b610261565b6100b36100de366004610d31565b610642565b6100f66100f1366004610d52565b610712565b6040516100979190611100565b600082815260208190526040812060060180548390811061013457634e487b7160e01b600052603260045260246000fd5b6000918252602090912001546001600160a01b03169392505050565b60008381526020819052604090206001015483906001600160a01b031633146101945760405162461bcd60e51b815260040161018b9061127f565b60405180910390fd5b60008481526020819052604081206101b191600590910190610a6e565b60005b828110156102365760008581526020819052604090206005018484838181106101ed57634e487b7160e01b600052603260045260246000fd5b90506020028101906101ff9190611374565b8154600181018355600092835260209092209091600e0201610221828261181e565b5050808061022e906115f7565b9150506101b4565b5050505050565b7f000000000000000000000000000000000000000000000000000000000000000081565b6000818152602081905260409020600201546001600160a01b0316331461029a5760405162461bcd60e51b815260040161018b90611248565b60008181526020819052604090206003015482146102ca5760405162461bcd60e51b815260040161018b90611157565b60008181526020819052604090205460ff16156102f95760405162461bcd60e51b815260040161018b90611120565b6000818152602081905260409020805460ff1916600117905561031b8161085c565b336001600160a01b0316631918063f8360008085815260200190815260200160002060060160008154811061036057634e487b7160e01b600052603260045260246000fd5b6000918252602090912001546040517fffffffff0000000000000000000000000000000000000000000000000000000060e085901b1681526103af92916001600160a01b031690600401611109565b600060405180830381600087803b1580156103c957600080fd5b505af11580156103dd573d6000803e3d6000fd5b5050505060005b6000828152602081905260409020600501548110156104da57600082815260208190526040812060060180548390811061042e57634e487b7160e01b600052603260045260246000fd5b6000918252602080832090910154858352908290526040918290206003015491517f0d06101a0000000000000000000000000000000000000000000000000000000081526001600160a01b0390911692508291630d06101a916104949190600401611100565b600060405180830381600087803b1580156104ae57600080fd5b505af11580156104c2573d6000803e3d6000fd5b505050505080806104d2906115f7565b9150506103e4565b506000818152602081905260408120600601805490919061050b57634e487b7160e01b600052603260045260246000fd5b60009182526020822001546040517f4a77234e0000000000000000000000000000000000000000000000000000000081526001600160a01b0390911691634a77234e9161055b9190600401611100565b600060405180830381600087803b15801561057557600080fd5b505af1158015610589573d6000803e3d6000fd5b505050600082815260208190526040812060060180549092506105bc57634e487b7160e01b600052603260045260246000fd5b60009182526020822001546040517fb992db0f0000000000000000000000000000000000000000000000000000000081526001600160a01b039091169163b992db0f9161060c9190600401611100565b600060405180830381600087803b15801561062657600080fd5b505af115801561063a573d6000803e3d6000fd5b505050505050565b6040517fd3f79a05000000000000000000000000000000000000000000000000000000008152339063d3f79a059061067e908590600401611100565b60206040518083038186803b15801561069657600080fd5b505afa1580156106aa573d6000803e3d6000fd5b505050506040513d601f19601f820116820180604052508101906106ce9190610cc7565b6106ea5760405162461bcd60e51b815260040161018b906111eb565b60009081526020819052604090206002810180546001600160a01b0319163317905560030155565b6000848152602081905260408120600401548514156107435760405162461bcd60e51b815260040161018b9061118e565b6000858152602081905260408120600481018790556001810180546001600160a01b0319163317905580546001600160a01b038716610100027fffffffffffffffffffffff0000000000000000000000000000000000000000ff909116178155905b8381101561081a57816005018585838181106107d157634e487b7160e01b600052603260045260246000fd5b90506020028101906107e39190611374565b8154600181018355600092835260209092209091600e0201610805828261181e565b50508080610812906115f7565b9150506107a5565b507faf58c2d61bce90c15ecad6e5142ecbbb0b542b557388df7578e0162b098999a38660405161084a9190611100565b60405180910390a15093949350505050565b6000805b600083815260208190526040902060050154811015610a69578061095d5773e7f1725e7734ce288f8367e1bb143e90bb3f05126001600160a01b03166346dc67ad60008360008088815260200190815260200160002060050185815481106108d857634e487b7160e01b600052603260045260246000fd5b90600052602060002090600e02016040518463ffffffff1660e01b8152600401610904939291906110cf565b602060405180830381600087803b15801561091e57600080fd5b505af1158015610932573d6000803e3d6000fd5b505050506040513d601f19601f820116820180604052508101906109569190610ca4565b9150610a1f565b816001600160a01b03166376a3d61d60008086815260200190815260200160002060050183815481106109a057634e487b7160e01b600052603260045260246000fd5b90600052602060002090600e02016040518263ffffffff1660e01b81526004016109ca91906112b6565b602060405180830381600087803b1580156109e457600080fd5b505af11580156109f8573d6000803e3d6000fd5b505050506040513d601f19601f82011682018060405250810190610a1c9190610ca4565b91505b6000838152602081815260408220600601805460018101825590835291200180546001600160a01b0319166001600160a01b03841617905580610a61816115f7565b915050610860565b505050565b50805460008255600e0290600052602060002090810190610a8f9190610a92565b50565b80821115610b4e5780546001600160a01b03199081168255600182018054821690556002820180549091169055600060038201819055610ad56004830182610b52565b610ae3600583016000610b8e565b6006820180546001600160a01b03191681556000600784018190556008840181905560098401819055610b19600a850182610baf565b610b27600583016000610baf565b610b35600683016000610bcd565b610b43600783016000610b52565b505050600e01610a92565b5090565b508054610b5e906115a9565b6000825580601f10610b705750610a8f565b601f016020900490600052602060002090810190610a8f9190610beb565b5080546000825560050290600052602060002090810190610a8f9190610c00565b5080546000825590600052602060002090810190610a8f9190610beb565b5080546000825590600052602060002090810190610a8f9190610c3e565b5b80821115610b4e5760008155600101610bec565b80821115610b4e57600080825560018201805461ffff191690556002820181905560038201819055610c356004830182610b52565b50600501610c00565b80821115610b4e576000610c528282610baf565b50600101610c3e565b60008083601f840112610c6c578182fd5b50813567ffffffffffffffff811115610c83578182fd5b6020830191508360208083028501011115610c9d57600080fd5b9250929050565b600060208284031215610cb5578081fd5b8151610cc081611ac8565b9392505050565b600060208284031215610cd8578081fd5b81518015158114610cc0578182fd5b600080600060408486031215610cfb578182fd5b83359250602084013567ffffffffffffffff811115610d18578283fd5b610d2486828701610c5b565b9497909650939450505050565b60008060408385031215610d43578182fd5b50508035926020909101359150565b60008060008060608587031215610d67578081fd5b843593506020850135610d7981611ac8565b9250604085013567ffffffffffffffff811115610d94578182fd5b610da087828801610c5b565b95989497509550505050565b6001600160a01b03169052565b60008282548085526020808601955080818302840101858552818520855b84811015610e0457858303601f19018952610df28383610ecf565b98840198925060019182019101610dd7565b5090979650505050505050565b6000815480845260208085018081965082840281019150858552828520855b85811015610ec257828403895260c082548552600183015460ff8082166003808210610e6a57634e487b7160e01b8c52602160045260248cfd5b818a8a0152610e8160408a01848660081c166110b4565b600287015460608a0152860154608089015250505060a08501819052610eac81860160048501610f0c565b9986019994505060059190910190600101610e30565b5091979650505050505050565b6000815480845260208085019450838352808320835b83811015610f0157815487529582019560019182019101610ee5565b509495945050505050565b60008154610f19816115a9565b808552602060018381168015610f365760018114610f4a57610f78565b60ff19851688840152604088019550610f78565b866000528260002060005b85811015610f705781548a8201860152908301908401610f55565b890184019650505b505050505092915050565b6000610100610f9b84610f96855461144f565b610dac565b600183015460208501526002830154604085015260038301546060850152806080850152610fce81850160048501610ecf565b905083810360a0850152610fe58160058501610ecf565b905083810360c0850152610ffc8160068501610db9565b905083810360e08501526110138160078501610f0c565b949350505050565b6000611031836001600160a01b03845416610dac565b61103e600183015461144f565b61104b6020850182610dac565b50611059600283015461144f565b6110666040850182610dac565b506003820154606084015260e0608084015261108860e0840160048401610f0c565b83810360a085015261109d8160058501610e11565b905083810360c08501526110138160068501610f83565b60ff169052565b6001600160a01b0391909116815260200190565b60006001600160a01b0385168252836020830152606060408301526110f7606083018461101b565b95945050505050565b90815260200190565b9182526001600160a01b0316602082015260400190565b60208082526019908201527f536f6c7574696f6e20616c726561647920657865637574656400000000000000604082015260600190565b60208082526010908201527f57726f6e672070726f706f73616c496400000000000000000000000000000000604082015260600190565b60208082526024908201527f536f6c7574696f6e734875623a3a5468697320494420616c726561647920657860408201527f6973747300000000000000000000000000000000000000000000000000000000606082015260800190565b60208082526024908201527f50726f706f73616c206973206e6f742076616c69642061742070726f706f736160408201527f6c48756200000000000000000000000000000000000000000000000000000000606082015260800190565b60208082526017908201527f4e6f7420636f72726563742070726f706f73616c487562000000000000000000604082015260600190565b60208082526018908201527f536f6c7574696f6e734875623a206f6e6c794b65657065720000000000000000604082015260600190565b600060208252610cc0602083018461101b565b6000808335601e198436030181126112df578283fd5b83018035915067ffffffffffffffff8211156112f9578283fd5b6020908101925081023603821315610c9d57600080fd5b6000808335601e19843603018112611326578182fd5b83018035915067ffffffffffffffff821115611340578283fd5b602001915036819003821315610c9d57600080fd5b6000823560fe1983360301811261136a578182fd5b9190910192915050565b6000823560de1983360301811261136a578182fd5b6000823560be1983360301811261136a578182fd5b60009081526020902090565b60208410801561140057601f8411600181146113d1576113ca86856115e4565b83556113fa565b6113da8361139e565b6113ef6020601f88010482016001830161145b565b506113fa86846116ab565b50610236565b8160005260206000206020601f8701048101601f8716801561142a5761142a816000198401611654565b5061143d6020601f88010483018261145b565b50506001856002021782555050505050565b6001600160a01b031690565b5b81811015611470576000815560010161145c565b5050565b61147e8382611668565b818160005260208060002060005b868110156114a85783358255928201926001918201910161148c565b50505050505050565b67ffffffffffffffff8311156114c9576114c961163e565b6114d381546115a9565b600080601f8611601f8411818117156114f2576114ef8661139e565b92505b8015611521576020601f8901048301602089101561150d5750825b61151f6020601f88010485018261145b565b505b50806001811461154d5760009450871561153c578387013594505b61154688866115e4565b865561159f565b601f198816945082845b868110156115775788860135825560209586019560019092019101611557565b508886101561159457878501356000196008601f8c16021c191681555b506001600289020186555b5050505050505050565b6002810460018216806115bd57607f821691505b602082108114156115de57634e487b7160e01b600052602260045260246000fd5b50919050565b600019600883021c191660029091021790565b600060001982141561160b5761160b611628565b5060010190565b634e487b7160e01b600052600060045260246000fd5b634e487b7160e01b600052601160045260246000fd5b634e487b7160e01b600052604160045260246000fd5b8054600019836020036008021c1681555050565b680100000000000000008211156116815761168161163e565b805482825580831015610a69578160005260206000206116a582820185830161145b565b50505050565b8060005260206000206116bf8382546115e4565b9091556000905550565b6001600160a01b0382166001600160a01b03198254161781555050565b81356116f181611ac8565b6116fb81836116c9565b50600160208084013582840155604084013560028401556060840135600384015561172960808501856112c9565b611737818360048801611474565b505061174660a08501856112c9565b611754818360058801611474565b50506006830161176760c08601866112c9565b680100000000000000008111156117805761178061163e565b8254818455808210156117bb5760008481528581208381019083015b808210156117b7576117ae8383611668565b9088019061179c565b5050505b50816117c68461139e565b93506000805b838110156117fb576117de83866112c9565b6117ea8183868b611a09565b5050948701949186019187016117cc565b505050505050505061181060e0830183611310565b6116a58183600786016114b1565b813561182981611ac8565b61183381836116c9565b50600160208084013561184581611ac8565b611851818486016116c9565b506002604085013561186281611ac8565b61186e818387016116c9565b50600360608601358186015560046118896080880188611310565b6118968183858b016114b1565b505060058087016118aa60a08a018a6112c9565b680100000000000000008111156118c3576118c361163e565b82548184558082101561198b577f33333333333333333333333333333333333333333333333333333333333333338082118b161561190357611903611628565b8083118b161561191557611915611628565b506000848152898120838702810190878402015b808210156119875761193c838484611aa9565b828d83015561194e83848d8501611aa9565b61195b83848c8501611aa9565b8882018054611969816115a9565b801561197b5761197b868284866113aa565b50505090870190611929565b5050505b508196506119988361139e565b9550600094508492505b808310156119cf576119be6119b78884611389565b8688611a22565b9587019594830194918801916119a2565b5050505050505050506114706119e860c0840184611355565b600683016116e6565b805461ff008360081b1661ff00198216178255505050565b8115611a1757611a17611612565b6116a5848483611474565b8115611a3057611a30611612565b8235815560018101602084013560038110611a4a57600080fd5b60ff1982541660ff8216811783555050604084013560ff81168114611a6e57600080fd5b611a7881836119f1565b50506060830135600282015560808301356003820155611a9b60a0840184611310565b6102368183600486016114b1565b805460088302600019811b8086831b1681198416178455505050505050565b6001600160a01b0381168114610a8f57600080fdfea2646970667358221220ea6a865e7d46d7f32b933e61549dd55362f5bd62f7cb1906a958d2e3643ddbbd64736f6c63430008000033",
  "linkReferences": {},
  "deployedLinkReferences": {}
}