{
  "_format": "hh-sol-artifact-1",
  "contractName": "ConditionalTokens",
  "sourceName": "contracts/ConditionalTokens.sol",
  "abi": [
    {
      "inputs": [],
      "stateMutability": "nonpayable",
      "type": "constructor"
    },
    {
      "anonymous": false,
      "inputs": [
        {
          "indexed": true,
          "internalType": "address",
          "name": "account",
          "type": "address"
        },
        {
          "indexed": true,
          "internalType": "address",
          "name": "operator",
          "type": "address"
        },
        {
          "indexed": false,
          "internalType": "bool",
          "name": "approved",
          "type": "bool"
        }
      ],
      "name": "ApprovalForAll",
      "type": "event"
    },
    {
      "anonymous": false,
      "inputs": [
        {
          "indexed": true,
          "internalType": "bytes32",
          "name": "conditionId",
          "type": "bytes32"
        },
        {
          "indexed": true,
          "internalType": "address",
          "name": "oracle",
          "type": "address"
        },
        {
          "indexed": true,
          "internalType": "bytes32",
          "name": "questionId",
          "type": "bytes32"
        },
        {
          "indexed": false,
          "internalType": "uint256",
          "name": "outcomeSlotCount",
          "type": "uint256"
        }
      ],
      "name": "ConditionPreparation",
      "type": "event"
    },
    {
      "anonymous": false,
      "inputs": [
        {
          "indexed": true,
          "internalType": "bytes32",
          "name": "conditionId",
          "type": "bytes32"
        },
        {
          "indexed": true,
          "internalType": "address",
          "name": "oracle",
          "type": "address"
        },
        {
          "indexed": true,
          "internalType": "bytes32",
          "name": "questionId",
          "type": "bytes32"
        },
        {
          "indexed": false,
          "internalType": "uint256",
          "name": "outcomeSlotCount",
          "type": "uint256"
        },
        {
          "indexed": false,
          "internalType": "uint256[]",
          "name": "payoutNumerators",
          "type": "uint256[]"
        }
      ],
      "name": "ConditionResolution",
      "type": "event"
    },
    {
      "anonymous": false,
      "inputs": [
        {
          "indexed": true,
          "internalType": "address",
          "name": "redeemer",
          "type": "address"
        },
        {
          "indexed": true,
          "internalType": "contract IERC20",
          "name": "collateralToken",
          "type": "address"
        },
        {
          "indexed": true,
          "internalType": "bytes32",
          "name": "parentCollectionId",
          "type": "bytes32"
        },
        {
          "indexed": false,
          "internalType": "bytes32",
          "name": "conditionId",
          "type": "bytes32"
        },
        {
          "indexed": false,
          "internalType": "uint256[]",
          "name": "indexSets",
          "type": "uint256[]"
        },
        {
          "indexed": false,
          "internalType": "uint256",
          "name": "payout",
          "type": "uint256"
        }
      ],
      "name": "PayoutRedemption",
      "type": "event"
    },
    {
      "anonymous": false,
      "inputs": [
        {
          "indexed": true,
          "internalType": "address",
          "name": "stakeholder",
          "type": "address"
        },
        {
          "indexed": false,
          "internalType": "contract IERC20",
          "name": "collateralToken",
          "type": "address"
        },
        {
          "indexed": true,
          "internalType": "bytes32",
          "name": "parentCollectionId",
          "type": "bytes32"
        },
        {
          "indexed": true,
          "internalType": "bytes32",
          "name": "conditionId",
          "type": "bytes32"
        },
        {
          "indexed": false,
          "internalType": "uint256[]",
          "name": "partition",
          "type": "uint256[]"
        },
        {
          "indexed": false,
          "internalType": "uint256",
          "name": "amount",
          "type": "uint256"
        }
      ],
      "name": "PositionSplit",
      "type": "event"
    },
    {
      "anonymous": false,
      "inputs": [
        {
          "indexed": true,
          "internalType": "address",
          "name": "stakeholder",
          "type": "address"
        },
        {
          "indexed": false,
          "internalType": "contract IERC20",
          "name": "collateralToken",
          "type": "address"
        },
        {
          "indexed": true,
          "internalType": "bytes32",
          "name": "parentCollectionId",
          "type": "bytes32"
        },
        {
          "indexed": true,
          "internalType": "bytes32",
          "name": "conditionId",
          "type": "bytes32"
        },
        {
          "indexed": false,
          "internalType": "uint256[]",
          "name": "partition",
          "type": "uint256[]"
        },
        {
          "indexed": false,
          "internalType": "uint256",
          "name": "amount",
          "type": "uint256"
        }
      ],
      "name": "PositionsMerge",
      "type": "event"
    },
    {
      "anonymous": false,
      "inputs": [
        {
          "indexed": true,
          "internalType": "address",
          "name": "operator",
          "type": "address"
        },
        {
          "indexed": true,
          "internalType": "address",
          "name": "from",
          "type": "address"
        },
        {
          "indexed": true,
          "internalType": "address",
          "name": "to",
          "type": "address"
        },
        {
          "indexed": false,
          "internalType": "uint256[]",
          "name": "ids",
          "type": "uint256[]"
        },
        {
          "indexed": false,
          "internalType": "uint256[]",
          "name": "values",
          "type": "uint256[]"
        }
      ],
      "name": "TransferBatch",
      "type": "event"
    },
    {
      "anonymous": false,
      "inputs": [
        {
          "indexed": true,
          "internalType": "address",
          "name": "operator",
          "type": "address"
        },
        {
          "indexed": true,
          "internalType": "address",
          "name": "from",
          "type": "address"
        },
        {
          "indexed": true,
          "internalType": "address",
          "name": "to",
          "type": "address"
        },
        {
          "indexed": false,
          "internalType": "uint256",
          "name": "id",
          "type": "uint256"
        },
        {
          "indexed": false,
          "internalType": "uint256",
          "name": "value",
          "type": "uint256"
        }
      ],
      "name": "TransferSingle",
      "type": "event"
    },
    {
      "anonymous": false,
      "inputs": [
        {
          "indexed": false,
          "internalType": "string",
          "name": "value",
          "type": "string"
        },
        {
          "indexed": true,
          "internalType": "uint256",
          "name": "id",
          "type": "uint256"
        }
      ],
      "name": "URI",
      "type": "event"
    },
    {
      "inputs": [
        {
          "internalType": "address",
          "name": "account",
          "type": "address"
        },
        {
          "internalType": "uint256",
          "name": "id",
          "type": "uint256"
        }
      ],
      "name": "balanceOf",
      "outputs": [
        {
          "internalType": "uint256",
          "name": "",
          "type": "uint256"
        }
      ],
      "stateMutability": "view",
      "type": "function"
    },
    {
      "inputs": [
        {
          "internalType": "address[]",
          "name": "accounts",
          "type": "address[]"
        },
        {
          "internalType": "uint256[]",
          "name": "ids",
          "type": "uint256[]"
        }
      ],
      "name": "balanceOfBatch",
      "outputs": [
        {
          "internalType": "uint256[]",
          "name": "",
          "type": "uint256[]"
        }
      ],
      "stateMutability": "view",
      "type": "function"
    },
    {
      "inputs": [
        {
          "internalType": "bytes32",
          "name": "parentCollectionId",
          "type": "bytes32"
        },
        {
          "internalType": "bytes32",
          "name": "conditionId",
          "type": "bytes32"
        },
        {
          "internalType": "uint256",
          "name": "indexSet",
          "type": "uint256"
        }
      ],
      "name": "getCollectionId",
      "outputs": [
        {
          "internalType": "bytes32",
          "name": "",
          "type": "bytes32"
        }
      ],
      "stateMutability": "view",
      "type": "function"
    },
    {
      "inputs": [
        {
          "internalType": "address",
          "name": "oracle",
          "type": "address"
        },
        {
          "internalType": "bytes32",
          "name": "questionId",
          "type": "bytes32"
        },
        {
          "internalType": "uint256",
          "name": "outcomeSlotCount",
          "type": "uint256"
        }
      ],
      "name": "getConditionId",
      "outputs": [
        {
          "internalType": "bytes32",
          "name": "",
          "type": "bytes32"
        }
      ],
      "stateMutability": "pure",
      "type": "function"
    },
    {
      "inputs": [
        {
          "internalType": "bytes32",
          "name": "conditionId",
          "type": "bytes32"
        }
      ],
      "name": "getOutcomeSlotCount",
      "outputs": [
        {
          "internalType": "uint256",
          "name": "",
          "type": "uint256"
        }
      ],
      "stateMutability": "view",
      "type": "function"
    },
    {
      "inputs": [
        {
          "internalType": "contract IERC20",
          "name": "collateralToken",
          "type": "address"
        },
        {
          "internalType": "bytes32",
          "name": "collectionId",
          "type": "bytes32"
        }
      ],
      "name": "getPositionId",
      "outputs": [
        {
          "internalType": "uint256",
          "name": "",
          "type": "uint256"
        }
      ],
      "stateMutability": "pure",
      "type": "function"
    },
    {
      "inputs": [
        {
          "internalType": "address",
          "name": "account",
          "type": "address"
        },
        {
          "internalType": "address",
          "name": "operator",
          "type": "address"
        }
      ],
      "name": "isApprovedForAll",
      "outputs": [
        {
          "internalType": "bool",
          "name": "",
          "type": "bool"
        }
      ],
      "stateMutability": "view",
      "type": "function"
    },
    {
      "inputs": [
        {
          "internalType": "contract IERC20",
          "name": "collateralToken",
          "type": "address"
        },
        {
          "internalType": "bytes32",
          "name": "parentCollectionId",
          "type": "bytes32"
        },
        {
          "internalType": "bytes32",
          "name": "conditionId",
          "type": "bytes32"
        },
        {
          "internalType": "uint256[]",
          "name": "partition",
          "type": "uint256[]"
        },
        {
          "internalType": "uint256",
          "name": "amount",
          "type": "uint256"
        }
      ],
      "name": "mergePositions",
      "outputs": [],
      "stateMutability": "nonpayable",
      "type": "function"
    },
    {
      "inputs": [
        {
          "internalType": "bytes32",
          "name": "",
          "type": "bytes32"
        }
      ],
      "name": "payoutDenominator",
      "outputs": [
        {
          "internalType": "uint256",
          "name": "",
          "type": "uint256"
        }
      ],
      "stateMutability": "view",
      "type": "function"
    },
    {
      "inputs": [
        {
          "internalType": "bytes32",
          "name": "",
          "type": "bytes32"
        },
        {
          "internalType": "uint256",
          "name": "",
          "type": "uint256"
        }
      ],
      "name": "payoutNumerators",
      "outputs": [
        {
          "internalType": "uint256",
          "name": "",
          "type": "uint256"
        }
      ],
      "stateMutability": "view",
      "type": "function"
    },
    {
      "inputs": [
        {
          "internalType": "address",
          "name": "oracle",
          "type": "address"
        },
        {
          "internalType": "bytes32",
          "name": "questionId",
          "type": "bytes32"
        },
        {
          "internalType": "uint256",
          "name": "outcomeSlotCount",
          "type": "uint256"
        }
      ],
      "name": "prepareCondition",
      "outputs": [],
      "stateMutability": "nonpayable",
      "type": "function"
    },
    {
      "inputs": [
        {
          "internalType": "contract IERC20",
          "name": "collateralToken",
          "type": "address"
        },
        {
          "internalType": "bytes32",
          "name": "parentCollectionId",
          "type": "bytes32"
        },
        {
          "internalType": "bytes32",
          "name": "conditionId",
          "type": "bytes32"
        },
        {
          "internalType": "uint256[]",
          "name": "indexSets",
          "type": "uint256[]"
        }
      ],
      "name": "redeemPositions",
      "outputs": [],
      "stateMutability": "nonpayable",
      "type": "function"
    },
    {
      "inputs": [
        {
          "internalType": "bytes32",
          "name": "questionId",
          "type": "bytes32"
        },
        {
          "internalType": "uint256[]",
          "name": "payouts",
          "type": "uint256[]"
        }
      ],
      "name": "reportPayouts",
      "outputs": [],
      "stateMutability": "nonpayable",
      "type": "function"
    },
    {
      "inputs": [
        {
          "internalType": "address",
          "name": "from",
          "type": "address"
        },
        {
          "internalType": "address",
          "name": "to",
          "type": "address"
        },
        {
          "internalType": "uint256[]",
          "name": "ids",
          "type": "uint256[]"
        },
        {
          "internalType": "uint256[]",
          "name": "amounts",
          "type": "uint256[]"
        },
        {
          "internalType": "bytes",
          "name": "data",
          "type": "bytes"
        }
      ],
      "name": "safeBatchTransferFrom",
      "outputs": [],
      "stateMutability": "nonpayable",
      "type": "function"
    },
    {
      "inputs": [
        {
          "internalType": "address",
          "name": "from",
          "type": "address"
        },
        {
          "internalType": "address",
          "name": "to",
          "type": "address"
        },
        {
          "internalType": "uint256",
          "name": "id",
          "type": "uint256"
        },
        {
          "internalType": "uint256",
          "name": "amount",
          "type": "uint256"
        },
        {
          "internalType": "bytes",
          "name": "data",
          "type": "bytes"
        }
      ],
      "name": "safeTransferFrom",
      "outputs": [],
      "stateMutability": "nonpayable",
      "type": "function"
    },
    {
      "inputs": [
        {
          "internalType": "address",
          "name": "operator",
          "type": "address"
        },
        {
          "internalType": "bool",
          "name": "approved",
          "type": "bool"
        }
      ],
      "name": "setApprovalForAll",
      "outputs": [],
      "stateMutability": "nonpayable",
      "type": "function"
    },
    {
      "inputs": [
        {
          "internalType": "contract IERC20",
          "name": "collateralToken",
          "type": "address"
        },
        {
          "internalType": "bytes32",
          "name": "parentCollectionId",
          "type": "bytes32"
        },
        {
          "internalType": "bytes32",
          "name": "conditionId",
          "type": "bytes32"
        },
        {
          "internalType": "uint256[]",
          "name": "partition",
          "type": "uint256[]"
        },
        {
          "internalType": "uint256",
          "name": "amount",
          "type": "uint256"
        }
      ],
      "name": "splitPosition",
      "outputs": [],
      "stateMutability": "nonpayable",
      "type": "function"
    },
    {
      "inputs": [
        {
          "internalType": "bytes4",
          "name": "interfaceId",
          "type": "bytes4"
        }
      ],
      "name": "supportsInterface",
      "outputs": [
        {
          "internalType": "bool",
          "name": "",
          "type": "bool"
        }
      ],
      "stateMutability": "view",
      "type": "function"
    },
    {
      "inputs": [
        {
          "internalType": "uint256",
          "name": "",
          "type": "uint256"
        }
      ],
      "name": "uri",
      "outputs": [
        {
          "internalType": "string",
          "name": "",
          "type": "string"
        }
      ],
      "stateMutability": "view",
      "type": "function"
    }
  ],
  "bytecode": "0x60806040523480156200001157600080fd5b506040805160208101909152600081526200002c8162000033565b506200012f565b8051620000489060029060208401906200004c565b5050565b8280546200005a90620000f2565b90600052602060002090601f0160209004810192826200007e5760008555620000c9565b82601f106200009957805160ff1916838001178555620000c9565b82800160010185558215620000c9579182015b82811115620000c9578251825591602001919060010190620000ac565b50620000d7929150620000db565b5090565b5b80821115620000d75760008155600101620000dc565b6002810460018216806200010757607f821691505b602082108114156200012957634e487b7160e01b600052602260045260246000fd5b50919050565b613f80806200013f6000396000f3fe608060405234801561001057600080fd5b50600436106101505760003560e01c8063852c6ae2116100cd578063d42dc0c211610081578063dd34de6711610066578063dd34de67146102c4578063e985e9c5146102d7578063f242432a146102ea57610150565b8063d42dc0c21461029e578063d96ee754146102b157610150565b80639e7212ad116100b25780639e7212ad14610265578063a22cb46514610278578063c49298ac1461028b57610150565b8063852c6ae21461023f578063856296f71461025257610150565b80630e89341c1161012457806339dd75301161010957806339dd7530146101f95780634e1273f41461020c57806372ce42751461022c57610150565b80630e89341c146101c65780632eb2c2d6146101e657610150565b8062fdd58e1461015557806301b7037c1461017e57806301ffc9a7146101935780630504c814146101b3575b600080fd5b610168610163366004612de0565b6102fd565b604051610175919061331b565b60405180910390f35b61019161018c366004612fcd565b610354565b005b6101a66101a1366004612f95565b61062d565b6040516101759190613310565b6101686101c1366004612f74565b6106a5565b6101d96101d4366004612ee7565b6106d6565b6040516101759190613372565b6101916101f4366004612c6e565b61076a565b610168610207366004612de0565b6107c8565b61021f61021a366004612e0b565b6107db565b60405161017591906132cf565b61019161023a366004613035565b6108fb565b61016861024d366004612dac565b610c69565b610168610260366004612f49565b610c7e565b610191610273366004613035565b610c8b565b610191610286366004612d7f565b610fc9565b610191610299366004612eff565b611097565b6101686102ac366004612ee7565b611293565b6101916102bf366004612dac565b6112a5565b6101686102d2366004612ee7565b6113e1565b6101a66102e5366004612c36565b6113f3565b6101916102f8366004612d18565b611421565b60006001600160a01b03831661032e5760405162461bcd60e51b8152600401610325906134d3565b60405180910390fd5b506000908152602081815260408083206001600160a01b03949094168352929052205490565b600083815260046020526040902054806103805760405162461bcd60e51b815260040161032590613476565b600084815260036020526040902054806103ac5760405162461bcd60e51b815260040161032590613af4565b6000806103bc600180851b613d70565b905060005b858110156104ff5760008787838181106103eb57634e487b7160e01b600052603260045260246000fd5b90506020020135905060008111801561040357508281105b61041f5760405162461bcd60e51b8152600401610325906136ec565b60006104358c6104308d8d86611478565b6117f9565b90506000805b878110156104a7576001811b8416156104955760008c815260036020526040902080548290811061047c57634e487b7160e01b600052603260045260246000fd5b9060005260206000200154826104929190613d25565b91505b8061049f81613df2565b91505061043b565b5060006104b433846102fd565b905080156104e857886104c78383613d51565b6104d19190613d3d565b6104db9088613d25565b96506104e833848361182d565b5050505080806104f790613df2565b9150506103c1565b5081156105d057876105ac5760405163a9059cbb60e01b81526001600160a01b038a169063a9059cbb9061053990339086906004016132b6565b602060405180830381600087803b15801561055357600080fd5b505af1158015610567573d6000803e3d6000fd5b505050506040513d601f19601f8201168201806040525081019061058b9190612ecb565b6105a75760405162461bcd60e51b815260040161032590613530565b6105d0565b6105d0336105ba8b8b6117f9565b846040518060200160405280600081525061193c565b87896001600160a01b0316336001600160a01b03167f2682012a4a4f1973119f1c9b90745d1bd91fa2bab387344f044cb3586864d18d8a8a8a8860405161061a9493929190613324565b60405180910390a4505050505050505050565b60006001600160e01b031982167fd9b67a2600000000000000000000000000000000000000000000000000000000148061069057506001600160e01b031982167f0e89341c00000000000000000000000000000000000000000000000000000000145b8061069f575061069f82611a2b565b92915050565b600360205281600052604060002081815481106106c157600080fd5b90600052602060002001600091509150505481565b6060600280546106e590613db7565b80601f016020809104026020016040519081016040528092919081815260200182805461071190613db7565b801561075e5780601f106107335761010080835404028352916020019161075e565b820191906000526020600020905b81548152906001019060200180831161074157829003601f168201915b50505050509050919050565b610772611a5d565b6001600160a01b0316856001600160a01b031614806107985750610798856102e5611a5d565b6107b45760405162461bcd60e51b8152600401610325906137b7565b6107c18585858585611a62565b5050505050565b60006107d483836117f9565b9392505050565b606081518351146107fe5760405162461bcd60e51b815260040161032590613b2b565b6000835167ffffffffffffffff81111561082857634e487b7160e01b600052604160045260246000fd5b604051908082528060200260200182016040528015610851578160200160208202803683370190505b50905060005b84518110156108f3576108b885828151811061088357634e487b7160e01b600052603260045260246000fd5b60200260200101518583815181106108ab57634e487b7160e01b600052603260045260246000fd5b60200260200101516102fd565b8282815181106108d857634e487b7160e01b600052603260045260246000fd5b60209081029190910101526108ec81613df2565b9050610857565b509392505050565b6001821161091b5760405162461bcd60e51b81526004016103259061392b565b600084815260036020526040902054806109475760405162461bcd60e51b815260040161032590613af4565b6000610956600180841b613d70565b90508060008567ffffffffffffffff81111561098257634e487b7160e01b600052604160045260246000fd5b6040519080825280602002602001820160405280156109ab578160200160208202803683370190505b50905060008667ffffffffffffffff8111156109d757634e487b7160e01b600052604160045260246000fd5b604051908082528060200260200182016040528015610a00578160200160208202803683370190505b50905060005b87811015610b03576000898983818110610a3057634e487b7160e01b600052603260045260246000fd5b905060200201359050600081118015610a4857508581105b610a645760405162461bcd60e51b8152600401610325906136ec565b8085821614610a855760405162461bcd60e51b815260040161032590613960565b93841893610a988d6104308e8e85611478565b848381518110610ab857634e487b7160e01b600052603260045260246000fd5b60200260200101818152505087838381518110610ae557634e487b7160e01b600052603260045260246000fd5b60209081029190910101525080610afb81613df2565b915050610a06565b5082610be35789610bca576040517f23b872dd0000000000000000000000000000000000000000000000000000000081526001600160a01b038c16906323b872dd90610b5790339030908b9060040161324f565b602060405180830381600087803b158015610b7157600080fd5b505af1158015610b85573d6000803e3d6000fd5b505050506040513d601f19601f82011682018060405250810190610ba99190612ecb565b610bc55760405162461bcd60e51b815260040161032590613814565b610bde565b610bde33610bd88d8d6117f9565b8861182d565b610bf8565b610bf833610bd88d6104308e8e898b18611478565b610c1333838360405180602001604052806000815250611c33565b888a336001600160a01b03167f2e6bb91f8cbcda0c93623c54d0403a43514fabc40084ec96b6d5379a747862988e8c8c8c604051610c54949392919061334f565b60405180910390a45050505050505050505050565b6000610c76848484611db4565b949350505050565b6000610c76848484611478565b60018211610cab5760405162461bcd60e51b81526004016103259061392b565b60008481526003602052604090205480610cd75760405162461bcd60e51b815260040161032590613af4565b6000610ce6600180841b613d70565b90508060008567ffffffffffffffff811115610d1257634e487b7160e01b600052604160045260246000fd5b604051908082528060200260200182016040528015610d3b578160200160208202803683370190505b50905060008667ffffffffffffffff811115610d6757634e487b7160e01b600052604160045260246000fd5b604051908082528060200260200182016040528015610d90578160200160208202803683370190505b50905060005b87811015610e93576000898983818110610dc057634e487b7160e01b600052603260045260246000fd5b905060200201359050600081118015610dd857508581105b610df45760405162461bcd60e51b8152600401610325906136ec565b8085821614610e155760405162461bcd60e51b815260040161032590613960565b93841893610e288d6104308e8e85611478565b848381518110610e4857634e487b7160e01b600052603260045260246000fd5b60200260200101818152505087838381518110610e7557634e487b7160e01b600052603260045260246000fd5b60209081029190910101525080610e8b81613df2565b915050610d96565b50610e9f338383611dea565b82610f735789610f4a5760405163a9059cbb60e01b81526001600160a01b038c169063a9059cbb90610ed79033908a906004016132b6565b602060405180830381600087803b158015610ef157600080fd5b505af1158015610f05573d6000803e3d6000fd5b505050506040513d601f19601f82011682018060405250810190610f299190612ecb565b610f455760405162461bcd60e51b815260040161032590613a05565b610f6e565b610f6e33610f588d8d6117f9565b886040518060200160405280600081525061193c565b610f88565b610f8833610f588d6104308e8e898b18611478565b888a336001600160a01b03167f6f13ca62553fcc2bcd2372180a43949c1e4cebba603901ede2f4e14f36b282ca8e8c8c8c604051610c54949392919061334f565b816001600160a01b0316610fdb611a5d565b6001600160a01b031614156110025760405162461bcd60e51b815260040161032590613a97565b806001600061100f611a5d565b6001600160a01b03908116825260208083019390935260409182016000908120918716808252919093529120805460ff191692151592909217909155611053611a5d565b6001600160a01b03167f17307eab39ab6107e8899845ad3d59bd9653f200f220920489ca2b5937696c318360405161108b9190613310565b60405180910390a35050565b80600181116110b85760405162461bcd60e51b815260040161032590613a3a565b60006110c5338684611db4565b60008181526003602052604090205490915082146110f55760405162461bcd60e51b8152600401610325906135ea565b600081815260046020526040902054156111215760405162461bcd60e51b815260040161032590613723565b6000805b8381101561121057600086868381811061114f57634e487b7160e01b600052603260045260246000fd5b90506020020135905080836111649190613d25565b60008581526003602052604090208054919450908390811061119657634e487b7160e01b600052603260045260246000fd5b90600052602060002001546000146111c05760405162461bcd60e51b81526004016103259061367e565b60008481526003602052604090208054829190849081106111f157634e487b7160e01b600052603260045260246000fd5b600091825260209091200155508061120881613df2565b915050611125565b50600081116112315760405162461bcd60e51b815260040161032590613c42565b600082815260046020908152604080832084905560039091529081902090518791339185917fb44d84d3289691f71497564b85d4233648d9dbae8cbdbb4329f301c3a018589491611283918991613c79565b60405180910390a4505050505050565b60009081526003602052604090205490565b6101008111156112c75760405162461bcd60e51b8152600401610325906136b5565b600181116112e75760405162461bcd60e51b815260040161032590613a3a565b60006112f4848484611db4565b600081815260036020526040902054909150156113235760405162461bcd60e51b81526004016103259061343f565b8167ffffffffffffffff81111561134a57634e487b7160e01b600052604160045260246000fd5b604051908082528060200260200182016040528015611373578160200160208202803683370190505b50600082815260036020908152604090912082516113979391929190910190612ab6565b5082846001600160a01b0316827fab3760c3bd2bb38b5bcf54dc79802ed67338b4cf29f3054ded67ed24661e4177856040516113d3919061331b565b60405180910390a450505050565b60046020526000908152604090205481565b6001600160a01b03918216600090815260016020908152604080832093909416825291909152205460ff1690565b611429611a5d565b6001600160a01b0316856001600160a01b0316148061144f575061144f856102e5611a5d565b61146b5760405162461bcd60e51b815260040161032590613621565b6107c18585858585611f8d565b600080838360405160200161148e9291906131a5565b60408051601f198184030181529190528051602090910120905060ff81901c15156000805b7f30644e72e131a029b85045b68181585d97816a916871ca8d3c208c16d87cfd476001850893507f30644e72e131a029b85045b68181585d97816a916871ca8d3c208c16d87cfd4760037f30644e72e131a029b85045b68181585d97816a916871ca8d3c208c16d87cfd47808788098709089050611530816120c1565b9150807f30644e72e131a029b85045b68181585d97816a916871ca8d3c208c16d87cfd4783840914156114b3578280156115725750611570600283613e0d565b155b80611590575082158015611590575061158c600283613e0d565b6001145b156115c2576115bf827f30644e72e131a029b85045b68181585d97816a916871ca8d3c208c16d87cfd47613d70565b91505b8780156117b35760fe81901c151593507f3fffffffffffffffffffffffffffffffffffffffffffffffffffffffffffffff167f30644e72e131a029b85045b68181585d97816a916871ca8d3c208c16d87cfd4760037f30644e72e131a029b85045b68181585d97816a916871ca8d3c208c16d87cfd47808485098409089150600061164c836120c1565b90508480156116635750611661600282613e0d565b155b80611681575084158015611681575061167d600282613e0d565b6001145b156116b3576116b0817f30644e72e131a029b85045b68181585d97816a916871ca8d3c208c16d87cfd47613d70565b90505b827f30644e72e131a029b85045b68181585d97816a916871ca8d3c208c16d87cfd47828309146116f55760405162461bcd60e51b8152600401610325906139ce565b60008060066001600160a01b03168887868660405160200161171a9493929190613cbc565b60408051601f1981840301815290829052611734916131b3565b600060405180830381855afa9150503d806000811461176f576040519150601f19603f3d011682016040523d82523d6000602084013e611774565b606091505b5091509150816117965760405162461bcd60e51b815260040161032590613997565b808060200190518101906117aa91906130a5565b90985095505050505b6117be600284613e0d565b600114156117ec577f4000000000000000000000000000000000000000000000000000000000000000851894505b5092979650505050505050565b6000828260405160200161180e9291906131cf565b60408051601f1981840301815291905280516020909101209392505050565b6001600160a01b0383166118535760405162461bcd60e51b815260040161032590613871565b600061185d611a5d565b905061188d8185600061186f87612878565b61187887612878565b60405180602001604052806000815250611c2b565b6000838152602081815260408083206001600160a01b0388168452909152902054828110156118ce5760405162461bcd60e51b81526004016103259061358d565b6000848152602081815260408083206001600160a01b03808a16808652919093528184208786039055905190918516907fc3d58168c5ae7397731d063d5bbf3d657854427343f4c083240f7aacaa2d0f629061192d90899089906131a5565b60405180910390a45050505050565b6001600160a01b0384166119625760405162461bcd60e51b815260040161032590613be5565b600061196c611a5d565b905061198d8160008761197e88612878565b61198788612878565b87611c2b565b6000848152602081815260408083206001600160a01b0389168452909152812080548592906119bd908490613d25565b92505081905550846001600160a01b031660006001600160a01b0316826001600160a01b03167fc3d58168c5ae7397731d063d5bbf3d657854427343f4c083240f7aacaa2d0f628787604051611a149291906131a5565b60405180910390a46107c1816000878787876128d1565b6001600160e01b031981167f01ffc9a70000000000000000000000000000000000000000000000000000000014919050565b335b90565b8151835114611a835760405162461bcd60e51b815260040161032590613b88565b6001600160a01b038416611aa95760405162461bcd60e51b81526004016103259061375a565b6000611ab3611a5d565b9050611ac3818787878787611c2b565b60005b8451811015611bc5576000858281518110611af157634e487b7160e01b600052603260045260246000fd5b602002602001015190506000858381518110611b1d57634e487b7160e01b600052603260045260246000fd5b602090810291909101810151600084815280835260408082206001600160a01b038e168352909352919091205490915081811015611b6d5760405162461bcd60e51b8152600401610325906138ce565b6000838152602081815260408083206001600160a01b038e8116855292528083208585039055908b16825281208054849290611baa908490613d25565b9250508190555050505080611bbe90613df2565b9050611ac6565b50846001600160a01b0316866001600160a01b0316826001600160a01b03167f4a39dc06d4c0dbc64b70af90fd698a233a518aa5d07e595d983b8c0526c8f7fb8787604051611c159291906132e2565b60405180910390a4611c2b8187878787876129df565b505050505050565b6001600160a01b038416611c595760405162461bcd60e51b815260040161032590613be5565b8151835114611c7a5760405162461bcd60e51b815260040161032590613b88565b6000611c84611a5d565b9050611c9581600087878787611c2b565b60005b8451811015611d4c57838181518110611cc157634e487b7160e01b600052603260045260246000fd5b6020026020010151600080878481518110611cec57634e487b7160e01b600052603260045260246000fd5b602002602001015181526020019081526020016000206000886001600160a01b03166001600160a01b031681526020019081526020016000206000828254611d349190613d25565b90915550819050611d4481613df2565b915050611c98565b50846001600160a01b031660006001600160a01b0316826001600160a01b03167f4a39dc06d4c0dbc64b70af90fd698a233a518aa5d07e595d983b8c0526c8f7fb8787604051611d9d9291906132e2565b60405180910390a46107c1816000878787876129df565b6000838383604051602001611dcb9392919061317b565b6040516020818303038152906040528051906020012090509392505050565b6001600160a01b038316611e105760405162461bcd60e51b815260040161032590613871565b8051825114611e315760405162461bcd60e51b815260040161032590613b88565b6000611e3b611a5d565b9050611e5b81856000868660405180602001604052806000815250611c2b565b60005b8351811015611f3c576000848281518110611e8957634e487b7160e01b600052603260045260246000fd5b602002602001015190506000848381518110611eb557634e487b7160e01b600052603260045260246000fd5b602090810291909101810151600084815280835260408082206001600160a01b038c168352909352919091205490915081811015611f055760405162461bcd60e51b81526004016103259061358d565b6000928352602083815260408085206001600160a01b038b1686529091529092209103905580611f3481613df2565b915050611e5e565b5060006001600160a01b0316846001600160a01b0316826001600160a01b03167f4a39dc06d4c0dbc64b70af90fd698a233a518aa5d07e595d983b8c0526c8f7fb86866040516113d39291906132e2565b6001600160a01b038416611fb35760405162461bcd60e51b81526004016103259061375a565b6000611fbd611a5d565b9050611fce81878761197e88612878565b6000848152602081815260408083206001600160a01b038a1684529091529020548381101561200f5760405162461bcd60e51b8152600401610325906138ce565b6000858152602081815260408083206001600160a01b038b811685529252808320878503905590881682528120805486929061204c908490613d25565b92505081905550856001600160a01b0316876001600160a01b0316836001600160a01b03167fc3d58168c5ae7397731d063d5bbf3d657854427343f4c083240f7aacaa2d0f6288886040516120a29291906131a5565b60405180910390a46120b88288888888886128d1565b50505050505050565b60007f30644e72e131a029b85045b68181585d97816a916871ca8d3c208c16d87cfd47808380099150808283098181820990508181840992508183850993508184840992508183840990508181820982818309905082818209905082818209905082818309915082828609945082858609915082828309915082828509935082848509915082828309915082828309915082828509915082828609945082858609915082828309915082828309915082828609915082828509935082848609945082858609915082828309915082828509935082848509915082828309905082818209905082818209905082818309915082828609945082858509935082848509915082828309915082828309915082828609945082858609915082828309915082828609915082828309915082828309915082828609915082828509935082848509915082828309905082818209905082818309905082818509905082818209905082818209905082818209905082818209905082818309915082828609945082858609915082828609915082828509935082848509915082828509915082828309915082828309905082818309905082818209838182099050838182099050838182099050838182099050838183099150508281830991508282860994508285850993508284850991508282860994508285850993508284860994508285850993508284860994508285860991508282860991508282830991508282850993508284850991508282830991508282860994508285850993508284850991508282850991508282860994508285850993508284860994508285850993508284850991508282830991508282850991508282860994508285860991508282860991508282850993508284860994508285850993508284860994508285850993508284850991508282850991508282830991508282860994508285850993508284850991508282850991508282830991508282860994508285860991508282830990508281820990508281830990508281860990508281820990508281820990508281820990508281820990508281830991508282850993508284860994508285850993508284860994508285860991508282860991508282830991508282830991508282830991508282860991508282850993508284850991508282850991508282830991508282860994508285860991508282860991508282850993508284860994508285860991508282830991508282850993508284860994508285860991508282850993508284860994508285850993508284850991508282850991508282860994508285850993508284850991508282850991508282830991508282830991508282860994508285860991508282830991508282830991508282860991508282850993508284860994508285860991508282860990508281820990508281820990508281830991508282850993508284850991508282860994508285850993508284860994508285850993508284860994508285850993508284850991508282850990508281850991508282830991508282830991508282820991505081818509935081848409925081838509935081848409925081838509935081848509905081818509905081818409925050808284099250808384099250808384099250808384099250808384099250808384099250808384099250808384099250808384099250808384099250808384099250808384099250808384099250808384099250808384099250808384099250808384099250808384099250808384099250808384099250808384099250808384099250808384099250808384099250808384099250808384099250808384099250808384099250808384099250808384099250808384099250808384099250808384099250808384099250808384099250808384099250808384099250808384099250808384099250808384099250808384099250808384099250808384099250808384099250808384099250808384099250808384099250808384099250808384099250808384099250808384099250808384099250808384099250808384099250808384099250808384099250808384099250808384099250808384099250808384099250808384099250808384099250808384099250808384099250808384099250808384099250808384099250808384099250808384099250808384099250808384099250808384099250808384099250808384099250808384099250808384099250808384099250808384099250808384099250808384099250808384099250808384099250808384099250808384099250808384099250808384099250808384099250808384099250808384099250808384099250808384099250808384099250808384099250808384099250808384099250808384099250808384099250808384099250808384099250808384099250808384099250808384099250808384099250808384099250808384099250808384099250808384099250808384099250808384099250808384099250808384099250808384099250808384099250808384099250808384099250808384099250808384099250808384099250808384099250808384099250808384099250808384099250808384099250808384099250808384099250808384099250808384099250808383099392505050565b604080516001808252818301909252606091600091906020808301908036833701905050905082816000815181106128c057634e487b7160e01b600052603260045260246000fd5b602090810291909101015292915050565b6128e3846001600160a01b0316612ab0565b15611c2b5760405163f23a6e6160e01b81526001600160a01b0385169063f23a6e619061291c9089908990889088908890600401613273565b602060405180830381600087803b15801561293657600080fd5b505af1925050508015612966575060408051601f3d908101601f1916820190925261296391810190612fb1565b60015b6129af57612972613e69565b8061297d5750612997565b8060405162461bcd60e51b81526004016103259190613372565b60405162461bcd60e51b815260040161032590613385565b6001600160e01b0319811663f23a6e6160e01b146120b85760405162461bcd60e51b8152600401610325906133e2565b6129f1846001600160a01b0316612ab0565b15611c2b5760405163bc197c8160e01b81526001600160a01b0385169063bc197c8190612a2a90899089908890889088906004016131f1565b602060405180830381600087803b158015612a4457600080fd5b505af1925050508015612a74575060408051601f3d908101601f19168201909252612a7191810190612fb1565b60015b612a8057612972613e69565b6001600160e01b0319811663bc197c8160e01b146120b85760405162461bcd60e51b8152600401610325906133e2565b3b151590565b828054828255906000526020600020908101928215612af1579160200282015b82811115612af1578251825591602001919060010190612ad6565b50612afd929150612b01565b5090565b5b80821115612afd5760008155600101612b02565b60008083601f840112612b27578182fd5b50813567ffffffffffffffff811115612b3e578182fd5b6020830191508360208083028501011115612b5857600080fd5b9250929050565b600082601f830112612b6f578081fd5b81356020612b84612b7f83613d01565b613cd7565b8281528181019085830183850287018401881015612ba0578586fd5b855b85811015612bbe57813584529284019290840190600101612ba2565b5090979650505050505050565b600082601f830112612bdb578081fd5b813567ffffffffffffffff811115612bf557612bf5613e4d565b612c08601f8201601f1916602001613cd7565b818152846020838601011115612c1c578283fd5b816020850160208301379081016020019190915292915050565b60008060408385031215612c48578182fd5b8235612c5381613f0e565b91506020830135612c6381613f0e565b809150509250929050565b600080600080600060a08688031215612c85578081fd5b8535612c9081613f0e565b94506020860135612ca081613f0e565b9350604086013567ffffffffffffffff80821115612cbc578283fd5b612cc889838a01612b5f565b94506060880135915080821115612cdd578283fd5b612ce989838a01612b5f565b93506080880135915080821115612cfe578283fd5b50612d0b88828901612bcb565b9150509295509295909350565b600080600080600060a08688031215612d2f578081fd5b8535612d3a81613f0e565b94506020860135612d4a81613f0e565b93506040860135925060608601359150608086013567ffffffffffffffff811115612d73578182fd5b612d0b88828901612bcb565b60008060408385031215612d91578182fd5b8235612d9c81613f0e565b91506020830135612c6381613f26565b600080600060608486031215612dc0578283fd5b8335612dcb81613f0e565b95602085013595506040909401359392505050565b60008060408385031215612df2578182fd5b8235612dfd81613f0e565b946020939093013593505050565b60008060408385031215612e1d578182fd5b823567ffffffffffffffff80821115612e34578384fd5b818501915085601f830112612e47578384fd5b81356020612e57612b7f83613d01565b82815281810190858301838502870184018b1015612e73578889fd5b8896505b84871015612e9e578035612e8a81613f0e565b835260019690960195918301918301612e77565b5096505086013592505080821115612eb4578283fd5b50612ec185828601612b5f565b9150509250929050565b600060208284031215612edc578081fd5b81516107d481613f26565b600060208284031215612ef8578081fd5b5035919050565b600080600060408486031215612f13578081fd5b83359250602084013567ffffffffffffffff811115612f30578182fd5b612f3c86828701612b16565b9497909650939450505050565b600080600060608486031215612f5d578081fd5b505081359360208301359350604090920135919050565b60008060408385031215612f86578182fd5b50508035926020909101359150565b600060208284031215612fa6578081fd5b81356107d481613f34565b600060208284031215612fc2578081fd5b81516107d481613f34565b600080600080600060808688031215612fe4578283fd5b8535612fef81613f0e565b94506020860135935060408601359250606086013567ffffffffffffffff811115613018578182fd5b61302488828901612b16565b969995985093965092949392505050565b60008060008060008060a0878903121561304d578384fd5b863561305881613f0e565b95506020870135945060408701359350606087013567ffffffffffffffff811115613081578182fd5b61308d89828a01612b16565b979a9699509497949695608090950135949350505050565b600080604083850312156130b7578182fd5b505080516020909101519092909150565b60008284527f07ffffffffffffffffffffffffffffffffffffffffffffffffffffffffffffff8311156130f9578081fd5b6020830280836020870137939093016020019283525090919050565b6000815180845260208085019450808401835b8381101561314457815187529582019590820190600101613128565b509495945050505050565b60008151808452613167816020860160208601613d87565b601f01601f19169290920160200192915050565b60609390931b6bffffffffffffffffffffffff191683526014830191909152603482015260540190565b918252602082015260400190565b600082516131c5818460208701613d87565b9190910192915050565b60609290921b6bffffffffffffffffffffffff19168252601482015260340190565b60006001600160a01b03808816835280871660208401525060a0604083015261321d60a0830186613115565b828103606084015261322f8186613115565b90508281036080840152613243818561314f565b98975050505050505050565b6001600160a01b039384168152919092166020820152604081019190915260600190565b60006001600160a01b03808816835280871660208401525084604083015283606083015260a060808301526132ab60a083018461314f565b979650505050505050565b6001600160a01b03929092168252602082015260400190565b6000602082526107d46020830184613115565b6000604082526132f56040830185613115565b82810360208401526133078185613115565b95945050505050565b901515815260200190565b90815260200190565b60008582526060602083015261333e6060830185876130c8565b905082604083015295945050505050565b60006001600160a01b03861682526060602083015261333e6060830185876130c8565b6000602082526107d4602083018461314f565b60208082526034908201527f455243313135353a207472616e7366657220746f206e6f6e204552433131353560408201527f526563656976657220696d706c656d656e746572000000000000000000000000606082015260800190565b60208082526028908201527f455243313135353a204552433131353552656365697665722072656a6563746560408201527f6420746f6b656e73000000000000000000000000000000000000000000000000606082015260800190565b6020808252601a908201527f636f6e646974696f6e20616c7265616479207072657061726564000000000000604082015260600190565b60208082526025908201527f726573756c7420666f7220636f6e646974696f6e206e6f74207265636569766560408201527f6420796574000000000000000000000000000000000000000000000000000000606082015260800190565b6020808252602b908201527f455243313135353a2062616c616e636520717565727920666f7220746865207a60408201527f65726f2061646472657373000000000000000000000000000000000000000000606082015260800190565b6020808252602b908201527f636f756c64206e6f74207472616e73666572207061796f757420746f206d657360408201527f736167652073656e646572000000000000000000000000000000000000000000606082015260800190565b60208082526024908201527f455243313135353a206275726e20616d6f756e7420657863656564732062616c60408201527f616e636500000000000000000000000000000000000000000000000000000000606082015260800190565b6020808252601f908201527f636f6e646974696f6e206e6f74207072657061726564206f7220666f756e6400604082015260600190565b60208082526029908201527f455243313135353a2063616c6c6572206973206e6f74206f776e6572206e6f7260408201527f20617070726f7665640000000000000000000000000000000000000000000000606082015260800190565b6020808252601c908201527f7061796f7574206e756d657261746f7220616c72656164792073657400000000604082015260600190565b60208082526016908201527f746f6f206d616e79206f7574636f6d6520736c6f747300000000000000000000604082015260600190565b60208082526015908201527f676f7420696e76616c696420696e646578207365740000000000000000000000604082015260600190565b6020808252601e908201527f7061796f75742064656e6f6d696e61746f7220616c7265616479207365740000604082015260600190565b60208082526025908201527f455243313135353a207472616e7366657220746f20746865207a65726f20616460408201527f6472657373000000000000000000000000000000000000000000000000000000606082015260800190565b60208082526032908201527f455243313135353a207472616e736665722063616c6c6572206973206e6f742060408201527f6f776e6572206e6f7220617070726f7665640000000000000000000000000000606082015260800190565b60208082526023908201527f636f756c64206e6f74207265636569766520636f6c6c61746572616c20746f6b60408201527f656e730000000000000000000000000000000000000000000000000000000000606082015260800190565b60208082526023908201527f455243313135353a206275726e2066726f6d20746865207a65726f206164647260408201527f6573730000000000000000000000000000000000000000000000000000000000606082015260800190565b6020808252602a908201527f455243313135353a20696e73756666696369656e742062616c616e636520666f60408201527f72207472616e7366657200000000000000000000000000000000000000000000606082015260800190565b6020808252818101527f676f7420656d707479206f722073696e676c65746f6e20706172746974696f6e604082015260600190565b60208082526016908201527f706172746974696f6e206e6f74206469736a6f696e7400000000000000000000604082015260600190565b6020808252600c908201527f6563616464206661696c65640000000000000000000000000000000000000000604082015260600190565b60208082526010908201527f696e76616c696420706172656e74494400000000000000000000000000000000604082015260600190565b6020808252818101527f636f756c64206e6f742073656e6420636f6c6c61746572616c20746f6b656e73604082015260600190565b6020808252602a908201527f74686572652073686f756c64206265206d6f7265207468616e206f6e65206f7560408201527f74636f6d6520736c6f7400000000000000000000000000000000000000000000606082015260800190565b60208082526029908201527f455243313135353a2073657474696e6720617070726f76616c2073746174757360408201527f20666f722073656c660000000000000000000000000000000000000000000000606082015260800190565b6020808252601a908201527f636f6e646974696f6e206e6f7420707265706172656420796574000000000000604082015260600190565b60208082526029908201527f455243313135353a206163636f756e747320616e6420696473206c656e67746860408201527f206d69736d617463680000000000000000000000000000000000000000000000606082015260800190565b60208082526028908201527f455243313135353a2069647320616e6420616d6f756e7473206c656e6774682060408201527f6d69736d61746368000000000000000000000000000000000000000000000000606082015260800190565b60208082526021908201527f455243313135353a206d696e7420746f20746865207a65726f2061646472657360408201527f7300000000000000000000000000000000000000000000000000000000000000606082015260800190565b60208082526014908201527f7061796f757420697320616c6c207a65726f6573000000000000000000000000604082015260600190565b60006040820184835260206040818501528185548084526060860191508685528285209350845b81811015612bbe57845483526001948501949284019201613ca0565b93845260208401929092526040830152606082015260800190565b60405181810167ffffffffffffffff81118282101715613cf957613cf9613e4d565b604052919050565b600067ffffffffffffffff821115613d1b57613d1b613e4d565b5060209081020190565b60008219821115613d3857613d38613e21565b500190565b600082613d4c57613d4c613e37565b500490565b6000816000190483118215151615613d6b57613d6b613e21565b500290565b600082821015613d8257613d82613e21565b500390565b60005b83811015613da2578181015183820152602001613d8a565b83811115613db1576000848401525b50505050565b600281046001821680613dcb57607f821691505b60208210811415613dec57634e487b7160e01b600052602260045260246000fd5b50919050565b6000600019821415613e0657613e06613e21565b5060010190565b600082613e1c57613e1c613e37565b500690565b634e487b7160e01b600052601160045260246000fd5b634e487b7160e01b600052601260045260246000fd5b634e487b7160e01b600052604160045260246000fd5b60e01c90565b600060443d1015613e7957611a5f565b600481823e6308c379a0613e8d8251613e63565b14613e9757611a5f565b6040513d600319016004823e80513d67ffffffffffffffff8160248401118184111715613ec75750505050611a5f565b82840192508251915080821115613ee15750505050611a5f565b503d83016020828401011115613ef957505050611a5f565b601f01601f1916810160200160405291505090565b6001600160a01b0381168114613f2357600080fd5b50565b8015158114613f2357600080fd5b6001600160e01b031981168114613f2357600080fdfea2646970667358221220c7cfcb2618bcdf077a3d5c2c3302af4501a8e9e12a3326b641f907647839f03d64736f6c63430008000033",
  "linkReferences": {},
  "deployedLinkReferences": {}
}