{
  "_format": "hh-sol-artifact-1",
  "contractName": "ArbitratorFactory",
  "sourceName": "contracts/arbitration/ArbitratorFactory.sol",
  "abi": [
    {
      "anonymous": false,
      "inputs": [
        {
          "indexed": true,
          "internalType": "address",
          "name": "arbitrator",
          "type": "address"
        },
        {
          "indexed": true,
          "internalType": "address",
          "name": "implementation",
          "type": "address"
        }
      ],
      "name": "CreatedArbitrator",
      "type": "event"
    },
    {
      "anonymous": false,
      "inputs": [
        {
          "indexed": true,
          "internalType": "address",
          "name": "previousOwner",
          "type": "address"
        },
        {
          "indexed": true,
          "internalType": "address",
          "name": "newOwner",
          "type": "address"
        }
      ],
      "name": "OwnershipTransferred",
      "type": "event"
    },
    {
      "inputs": [
        {
          "internalType": "address",
          "name": "",
          "type": "address"
        }
      ],
      "name": "address_to_arbitrator",
      "outputs": [
        {
          "internalType": "uint256",
          "name": "index",
          "type": "uint256"
        },
        {
          "internalType": "address",
          "name": "arbitrator",
          "type": "address"
        },
        {
          "internalType": "address",
          "name": "implementation",
          "type": "address"
        }
      ],
      "stateMutability": "view",
      "type": "function"
    },
    {
      "inputs": [
        {
          "internalType": "uint256",
          "name": "",
          "type": "uint256"
        }
      ],
      "name": "arbitrators",
      "outputs": [
        {
          "internalType": "uint256",
          "name": "index",
          "type": "uint256"
        },
        {
          "internalType": "address",
          "name": "arbitrator",
          "type": "address"
        },
        {
          "internalType": "address",
          "name": "implementation",
          "type": "address"
        }
      ],
      "stateMutability": "view",
      "type": "function"
    },
    {
      "inputs": [
        {
          "internalType": "address",
          "name": "implementation",
          "type": "address"
        },
        {
          "internalType": "bytes",
          "name": "initParams",
          "type": "bytes"
        }
      ],
      "name": "createArbitrator",
      "outputs": [
        {
          "internalType": "address",
          "name": "",
          "type": "address"
        }
      ],
      "stateMutability": "nonpayable",
      "type": "function"
    },
    {
      "inputs": [
        {
          "internalType": "uint256",
          "name": "",
          "type": "uint256"
        }
      ],
      "name": "implementations",
      "outputs": [
        {
          "internalType": "address",
          "name": "",
          "type": "address"
        }
      ],
      "stateMutability": "view",
      "type": "function"
    },
    {
      "inputs": [],
      "name": "owner",
      "outputs": [
        {
          "internalType": "address",
          "name": "",
          "type": "address"
        }
      ],
      "stateMutability": "view",
      "type": "function"
    },
    {
      "inputs": [],
      "name": "renounceOwnership",
      "outputs": [],
      "stateMutability": "nonpayable",
      "type": "function"
    },
    {
      "inputs": [
        {
          "internalType": "address",
          "name": "newOwner",
          "type": "address"
        }
      ],
      "name": "transferOwnership",
      "outputs": [],
      "stateMutability": "nonpayable",
      "type": "function"
    }
  ],
  "bytecode": "0x608060405234801561001057600080fd5b5061001a3361001f565b61006f565b600080546001600160a01b038381166001600160a01b0319831681178455604051919092169283917f8be0079c531659141344cd1fd0a4f28419497f9722a3daafe3b4186f6b6457e09190a35050565b6107aa8061007e6000396000f3fe608060405234801561001057600080fd5b506004361061006d5760003560e01c80635a67446314610072578063715018a6146100d7578063845affc8146100e15780638da5cb5b1461010c5780639353c18914610114578063a6430cc014610127578063f2fde38b1461013a575b600080fd5b6100ad610080366004610618565b60036020526000908152604090208054600182015460029092015490916001600160a01b03908116911683565b604080519384526001600160a01b0392831660208501529116908201526060015b60405180910390f35b6100df61014d565b005b6100f46100ef36600461063a565b610191565b6040516001600160a01b0390911681526020016100ce565b6100f46101bb565b6100f4610122366004610653565b6101ca565b6100ad61013536600461063a565b610434565b6100df610148366004610618565b610474565b336101566101bb565b6001600160a01b0316146101855760405162461bcd60e51b815260040161017c906106d5565b60405180910390fd5b61018f6000610514565b565b600281815481106101a157600080fd5b6000918252602090912001546001600160a01b0316905081565b6000546001600160a01b031690565b6000806101d685610564565b905060007f4ddf47d42b0805152162d9c7d618efff08ffcd16086dd0bb57ec336c014a9948858560405160240161020e92919061070a565b604051602081830303815290604052906001600160e01b0319166020820180516001600160e01b0383818316178352505050509050600080836001600160a01b03166000846040516102609190610739565b60006040518083038185875af1925050503d806000811461029d576040519150601f19603f3d011682016040523d82523d6000602084013e6102a2565b606091505b5091509150816102f15760405162461bcd60e51b815260206004820152601a602482015279125b9a5d1a585b1a5e985d1a5bdb8818d85b1b0819985a5b195960321b604482015260640161017c565b604080516060810182526001600160a01b0386811660208084018281528d84168587018181526001805480895280820182556000828152895160039283027fb10e2d527612073b26eecdfd717e6a320cf44b4afac2b0732d9fcbe2b7fa0cf681019190915586517fb10e2d527612073b26eecdfd717e6a320cf44b4afac2b0732d9fcbe2b7fa0cf782018054918c166001600160a01b031992831617905585517fb10e2d527612073b26eecdfd717e6a320cf44b4afac2b0732d9fcbe2b7fa0cf89092018054928c1692821692909217909155888252919096528986208951815594519185018054928916928216929092179091559051600290930180549390961692169190911790935593519293919290917f4f8840854068f3df6fda9ea1b48b84044ff6d8773dc07916aec5d6eb8d16cbf291a35092979650505050505050565b6001818154811061044457600080fd5b60009182526020909120600390910201805460018201546002909201549092506001600160a01b03918216911683565b3361047d6101bb565b6001600160a01b0316146104a35760405162461bcd60e51b815260040161017c906106d5565b6001600160a01b0381166105085760405162461bcd60e51b815260206004820152602660248201527f4f776e61626c653a206e6577206f776e657220697320746865207a65726f206160448201526564647265737360d01b606482015260840161017c565b61051181610514565b50565b600080546001600160a01b038381166001600160a01b0319831681178455604051919092169283917f8be0079c531659141344cd1fd0a4f28419497f9722a3daafe3b4186f6b6457e09190a35050565b6000604051733d602d80600a3d3981f3363d3d373d3d3d363d7360601b81528260601b60148201526e5af43d82803e903d91602b57fd5bf360881b60288201526037816000f09150506001600160a01b0381166105fc5760405162461bcd60e51b8152602060048201526016602482015275115490cc4c4d8dce8818dc99585d194819985a5b195960521b604482015260640161017c565b919050565b80356001600160a01b03811681146105fc57600080fd5b60006020828403121561062a57600080fd5b61063382610601565b9392505050565b60006020828403121561064c57600080fd5b5035919050565b60008060006040848603121561066857600080fd5b61067184610601565b925060208401356001600160401b038082111561068d57600080fd5b818601915086601f8301126106a157600080fd5b8135818111156106b057600080fd5b8760208285010111156106c257600080fd5b6020830194508093505050509250925092565b6020808252818101527f4f776e61626c653a2063616c6c6572206973206e6f7420746865206f776e6572604082015260600190565b60208152816020820152818360408301376000818301604090810191909152601f909201601f19160101919050565b6000825160005b8181101561075a5760208186018101518583015201610740565b81811115610769576000828501525b50919091019291505056fea26469706673582212209e62d33262674deace94bd435c95a2354a048cac89621bd3e672869992719f7064736f6c634300080e0033",
  "linkReferences": {},
  "deployedLinkReferences": {}
}