{
  "_format": "hh-sol-artifact-1",
  "contractName": "ArbitratorFactory",
  "sourceName": "contracts/arbitration/ArbitratorFactory.sol",
  "abi": [
    {
      "anonymous": false,
      "inputs": [
        {
          "indexed": true,
          "internalType": "address",
          "name": "arbitrator",
          "type": "address"
        },
        {
          "indexed": true,
          "internalType": "address",
          "name": "implementation",
          "type": "address"
        }
      ],
      "name": "CreatedArbitrator",
      "type": "event"
    },
    {
      "anonymous": false,
      "inputs": [
        {
          "indexed": true,
          "internalType": "address",
          "name": "implementation",
          "type": "address"
        }
      ],
      "name": "DisabledImplementation",
      "type": "event"
    },
    {
      "anonymous": false,
      "inputs": [
        {
          "indexed": true,
          "internalType": "address",
          "name": "implementation",
          "type": "address"
        }
      ],
      "name": "EnabledImplementation",
      "type": "event"
    },
    {
      "anonymous": false,
      "inputs": [
        {
          "indexed": true,
          "internalType": "address",
          "name": "arbitrator",
          "type": "address"
        }
      ],
      "name": "HidArbitrator",
      "type": "event"
    },
    {
      "anonymous": false,
      "inputs": [
        {
          "indexed": true,
          "internalType": "address",
          "name": "previousOwner",
          "type": "address"
        },
        {
          "indexed": true,
          "internalType": "address",
          "name": "newOwner",
          "type": "address"
        }
      ],
      "name": "OwnershipTransferred",
      "type": "event"
    },
    {
      "anonymous": false,
      "inputs": [
        {
          "indexed": true,
          "internalType": "address",
          "name": "arbitrator",
          "type": "address"
        }
      ],
      "name": "UnhidArbitrator",
      "type": "event"
    },
    {
      "inputs": [
        {
          "internalType": "address",
          "name": "",
          "type": "address"
        }
      ],
      "name": "address_to_arbitrator",
      "outputs": [
        {
          "internalType": "uint256",
          "name": "index",
          "type": "uint256"
        },
        {
          "internalType": "bool",
          "name": "visible",
          "type": "bool"
        },
        {
          "internalType": "address",
          "name": "arbitrator",
          "type": "address"
        },
        {
          "internalType": "address",
          "name": "implementation",
          "type": "address"
        }
      ],
      "stateMutability": "view",
      "type": "function"
    },
    {
      "inputs": [
        {
          "internalType": "uint256",
          "name": "",
          "type": "uint256"
        }
      ],
      "name": "arbitrators",
      "outputs": [
        {
          "internalType": "uint256",
          "name": "index",
          "type": "uint256"
        },
        {
          "internalType": "bool",
          "name": "visible",
          "type": "bool"
        },
        {
          "internalType": "address",
          "name": "arbitrator",
          "type": "address"
        },
        {
          "internalType": "address",
          "name": "implementation",
          "type": "address"
        }
      ],
      "stateMutability": "view",
      "type": "function"
    },
    {
      "inputs": [
        {
          "internalType": "address",
          "name": "implementation",
          "type": "address"
        },
        {
          "internalType": "bytes",
          "name": "initParams",
          "type": "bytes"
        }
      ],
      "name": "createArbitrator",
      "outputs": [
        {
          "internalType": "address",
          "name": "",
          "type": "address"
        }
      ],
      "stateMutability": "nonpayable",
      "type": "function"
    },
    {
      "inputs": [
        {
          "internalType": "address",
          "name": "",
          "type": "address"
        }
      ],
      "name": "deployable",
      "outputs": [
        {
          "internalType": "enum ArbitratorFactory.Deployability",
          "name": "",
          "type": "uint8"
        }
      ],
      "stateMutability": "view",
      "type": "function"
    },
    {
      "inputs": [
        {
          "internalType": "address",
          "name": "implementation",
          "type": "address"
        }
      ],
      "name": "disableImplementation",
      "outputs": [],
      "stateMutability": "nonpayable",
      "type": "function"
    },
    {
      "inputs": [
        {
          "internalType": "address",
          "name": "implementation",
          "type": "address"
        }
      ],
      "name": "enableImplementation",
      "outputs": [],
      "stateMutability": "nonpayable",
      "type": "function"
    },
    {
      "inputs": [],
      "name": "hideArbitrator",
      "outputs": [],
      "stateMutability": "nonpayable",
      "type": "function"
    },
    {
      "inputs": [
        {
          "internalType": "uint256",
          "name": "",
          "type": "uint256"
        }
      ],
      "name": "implementations",
      "outputs": [
        {
          "internalType": "address",
          "name": "",
          "type": "address"
        }
      ],
      "stateMutability": "view",
      "type": "function"
    },
    {
      "inputs": [],
      "name": "owner",
      "outputs": [
        {
          "internalType": "address",
          "name": "",
          "type": "address"
        }
      ],
      "stateMutability": "view",
      "type": "function"
    },
    {
      "inputs": [],
      "name": "renounceOwnership",
      "outputs": [],
      "stateMutability": "nonpayable",
      "type": "function"
    },
    {
      "inputs": [
        {
          "internalType": "address",
          "name": "newOwner",
          "type": "address"
        }
      ],
      "name": "transferOwnership",
      "outputs": [],
      "stateMutability": "nonpayable",
      "type": "function"
    },
    {
      "inputs": [],
      "name": "unhideArbitrator",
      "outputs": [],
      "stateMutability": "nonpayable",
      "type": "function"
    }
  ],
  "bytecode": "0x608060405234801561001057600080fd5b5061001a3361001f565b61006f565b600080546001600160a01b038381166001600160a01b0319831681178455604051919092169283917f8be0079c531659141344cd1fd0a4f28419497f9722a3daafe3b4186f6b6457e09190a35050565b610c8e8061007e6000396000f3fe608060405234801561001057600080fd5b50600436106100a45760003560e01c80635a674463146100a95780636777eee914610122578063715018a614610152578063845affc81461015c5780638da5cb5b146101875780639353c1891461018f578063a6430cc0146101a2578063ae098efd146101b5578063b6592927146101c8578063bb7dd2fc146101db578063c5c102ac146101e3578063f2fde38b146101eb575b600080fd5b6100ee6100b7366004610a7f565b600360205260009081526040902080546001820154600290920154909160ff8116916001600160a01b036101009092048216911684565b6040805194855292151560208501526001600160a01b03918216928401929092521660608201526080015b60405180910390f35b610145610130366004610a7f565b60046020526000908152604090205460ff1681565b6040516101199190610ab7565b61015a6101fe565b005b61016f61016a366004610adf565b610242565b6040516001600160a01b039091168152602001610119565b61016f61026c565b61016f61019d366004610af8565b61027b565b6100ee6101b0366004610adf565b6105a6565b61015a6101c3366004610a7f565b6105f0565b61015a6101d6366004610a7f565b6106e9565b61015a610764565b61015a610822565b61015a6101f9366004610a7f565b6108db565b3361020761026c565b6001600160a01b0316146102365760405162461bcd60e51b815260040161022d90610b7a565b60405180910390fd5b610240600061097b565b565b6002818154811061025257600080fd5b6000918252602090912001546001600160a01b0316905081565b6000546001600160a01b031690565b600060016001600160a01b03851660009081526004602052604090205460ff1660028111156102ac576102ac610aa1565b1461030e5760405162461bcd60e51b815260206004820152602c60248201527f50726f7879466163746f72793a3a496e76616c696420696d706c656d656e746160448201526b74696f6e206164647265737360a01b606482015260840161022d565b6000610319856109cb565b905060007f4ddf47d42b0805152162d9c7d618efff08ffcd16086dd0bb57ec336c014a99488585604051602401610351929190610baf565b604051602081830303815290604052906001600160e01b0319166020820180516001600160e01b0383818316178352505050509050600080836001600160a01b03166000846040516103a39190610bde565b60006040518083038185875af1925050503d80600081146103e0576040519150601f19603f3d011682016040523d82523d6000602084013e6103e5565b606091505b5091509150816104345760405162461bcd60e51b815260206004820152601a602482015279125b9a5d1a585b1a5e985d1a5bdb8818d85b1b0819985a5b195960321b604482015260640161022d565b604080516080810182526001600160a01b038087168284018181528c831660608501818152600160208088018281528254808a52808401845560008481528a5160039283027fb10e2d527612073b26eecdfd717e6a320cf44b4afac2b0732d9fcbe2b7fa0cf681019190915583517fb10e2d527612073b26eecdfd717e6a320cf44b4afac2b0732d9fcbe2b7fa0cf7820180548b518e16610100908102610100600160a81b031994151585166001600160a81b0319938416171790925589517fb10e2d527612073b26eecdfd717e6a320cf44b4afac2b0732d9fcbe2b7fa0cf89094018054948f166001600160a01b03199586161790558c8552949096528d83208d518155945196850180549a518d1690960296151516989092169790971793909317909155915160029290920180549290961691161790935593519293919290917f4f8840854068f3df6fda9ea1b48b84044ff6d8773dc07916aec5d6eb8d16cbf291a35092979650505050505050565b600181815481106105b657600080fd5b600091825260209091206003909102018054600182015460029092015490925060ff8216916001600160a01b036101009091048116911684565b336105f961026c565b6001600160a01b03161461061f5760405162461bcd60e51b815260040161022d90610b7a565b6001600160a01b03811660009081526004602052604081205460ff16600281111561064c5761064c610aa1565b0361069d57600280546001810182556000919091527f405787fa12a823e0f2b7631cc41b3ba8828b3321ca811111fa75cd3aa3bb5ace0180546001600160a01b0319166001600160a01b0383161790555b6001600160a01b038116600081815260046020526040808220805460ff19166001179055517fcb9000c1ce52d3b408c6a8a4fb65c3a32ccf8de95e7f6d5d72db20a16cee7ecf9190a250565b336106f261026c565b6001600160a01b0316146107185760405162461bcd60e51b815260040161022d90610b7a565b6001600160a01b038116600081815260046020526040808220805460ff19166002179055517f5f620bebaa471aba3cc75e9861b371616ddb51e02b4728f7c4721f7b8c5379069190a250565b3360008181526003602052604090206001015461010090046001600160a01b0316146107a25760405162461bcd60e51b815260040161022d90610c19565b3360009081526003602052604090206001818101805460ff1916821790559054815482919081106107d5576107d5610c42565b60009182526020822060039190910201600101805460ff19169215159290921790915560405133917f2fb367172b4fb465905fee973c083bd8e0de611b1667547c69380da1e066959c91a2565b3360008181526003602052604090206001015461010090046001600160a01b0316146108605760405162461bcd60e51b815260040161022d90610c19565b3360009081526003602052604081206001808201805460ff1916905590548154811061088e5761088e610c42565b60009182526020822060039190910201600101805460ff19169215159290921790915560405133917fd43a98d50fa7468a556327957d3efa3cdc25165a1384bc1547c73b8e04ca6de191a2565b336108e461026c565b6001600160a01b03161461090a5760405162461bcd60e51b815260040161022d90610b7a565b6001600160a01b03811661096f5760405162461bcd60e51b815260206004820152602660248201527f4f776e61626c653a206e6577206f776e657220697320746865207a65726f206160448201526564647265737360d01b606482015260840161022d565b6109788161097b565b50565b600080546001600160a01b038381166001600160a01b0319831681178455604051919092169283917f8be0079c531659141344cd1fd0a4f28419497f9722a3daafe3b4186f6b6457e09190a35050565b6000604051733d602d80600a3d3981f3363d3d373d3d3d363d7360601b81528260601b60148201526e5af43d82803e903d91602b57fd5bf360881b60288201526037816000f09150506001600160a01b038116610a635760405162461bcd60e51b8152602060048201526016602482015275115490cc4c4d8dce8818dc99585d194819985a5b195960521b604482015260640161022d565b919050565b80356001600160a01b0381168114610a6357600080fd5b600060208284031215610a9157600080fd5b610a9a82610a68565b9392505050565b634e487b7160e01b600052602160045260246000fd5b6020810160038310610ad957634e487b7160e01b600052602160045260246000fd5b91905290565b600060208284031215610af157600080fd5b5035919050565b600080600060408486031215610b0d57600080fd5b610b1684610a68565b925060208401356001600160401b0380821115610b3257600080fd5b818601915086601f830112610b4657600080fd5b813581811115610b5557600080fd5b876020828501011115610b6757600080fd5b6020830194508093505050509250925092565b6020808252818101527f4f776e61626c653a2063616c6c6572206973206e6f7420746865206f776e6572604082015260600190565b60208152816020820152818360408301376000818301604090810191909152601f909201601f19160101919050565b6000825160005b81811015610bff5760208186018101518583015201610be5565b81811115610c0e576000828501525b509190910192915050565b6020808252600f908201526e27b7363c9030b93134ba3930ba37b960891b604082015260600190565b634e487b7160e01b600052603260045260246000fdfea2646970667358221220aadcd666d6fcab09be37601e80d1569d726cabd0970e0da888897f20bc0d768e64736f6c634300080d0033",
  "linkReferences": {},
  "deployedLinkReferences": {}
}