{
  "_format": "hh-sol-artifact-1",
  "contractName": "SolverLib",
  "sourceName": "contracts/SolverLib.sol",
  "abi": [
    {
      "inputs": [
        {
          "internalType": "uint256",
          "name": "index",
          "type": "uint256"
        },
        {
          "internalType": "address",
          "name": "_this",
          "type": "address"
        },
        {
          "internalType": "address",
          "name": "chainParent",
          "type": "address"
        },
        {
          "internalType": "address",
          "name": "chainChild",
          "type": "address"
        },
        {
          "internalType": "uint256",
          "name": "chainIndex",
          "type": "uint256"
        }
      ],
      "name": "addressFromChainIndex",
      "outputs": [
        {
          "internalType": "address",
          "name": "_address",
          "type": "address"
        }
      ],
      "stateMutability": "view",
      "type": "function"
    },
    {
      "inputs": [
        {
          "components": [
            {
              "internalType": "contract IERC20",
              "name": "collateralToken",
              "type": "IERC20"
            },
            {
              "internalType": "bytes32",
              "name": "questionId",
              "type": "bytes32"
            },
            {
              "internalType": "bytes32",
              "name": "parentCollectionId",
              "type": "bytes32"
            },
            {
              "internalType": "bytes32",
              "name": "conditionId",
              "type": "bytes32"
            },
            {
              "internalType": "uint256[]",
              "name": "payouts",
              "type": "uint256[]"
            },
            {
              "internalType": "enum SolverLib.Status",
              "name": "status",
              "type": "SolverLib.Status"
            }
          ],
          "internalType": "struct SolverLib.Condition",
          "name": "condition",
          "type": "tuple"
        },
        {
          "internalType": "uint256",
          "name": "partition",
          "type": "uint256"
        }
      ],
      "name": "getCollectionId",
      "outputs": [
        {
          "internalType": "bytes32",
          "name": "collectionId",
          "type": "bytes32"
        }
      ],
      "stateMutability": "view",
      "type": "function"
    },
    {
      "inputs": [
        {
          "components": [
            {
              "internalType": "contract IERC20",
              "name": "collateralToken",
              "type": "IERC20"
            },
            {
              "internalType": "bytes32",
              "name": "questionId",
              "type": "bytes32"
            },
            {
              "internalType": "bytes32",
              "name": "parentCollectionId",
              "type": "bytes32"
            },
            {
              "internalType": "bytes32",
              "name": "conditionId",
              "type": "bytes32"
            },
            {
              "internalType": "uint256[]",
              "name": "payouts",
              "type": "uint256[]"
            },
            {
              "internalType": "enum SolverLib.Status",
              "name": "status",
              "type": "SolverLib.Status"
            }
          ],
          "internalType": "struct SolverLib.Condition",
          "name": "condition",
          "type": "tuple"
        },
        {
          "internalType": "contract IERC20",
          "name": "collateralToken",
          "type": "IERC20"
        },
        {
          "internalType": "uint256",
          "name": "partition",
          "type": "uint256"
        }
      ],
      "name": "getPositionId",
      "outputs": [
        {
          "internalType": "uint256",
          "name": "positionId",
          "type": "uint256"
        }
      ],
      "stateMutability": "view",
      "type": "function"
    },
    {
      "inputs": [
        {
          "components": [
            {
              "internalType": "uint256",
              "name": "executions",
              "type": "uint256"
            },
            {
              "internalType": "bool",
              "name": "isDeferred",
              "type": "bool"
            },
            {
              "internalType": "bool",
              "name": "isConstant",
              "type": "bool"
            },
            {
              "internalType": "uint8",
              "name": "dataType",
              "type": "uint8"
            },
            {
              "internalType": "uint256",
              "name": "key",
              "type": "uint256"
            },
            {
              "internalType": "uint256",
              "name": "solverIndex",
              "type": "uint256"
            },
            {
              "internalType": "bytes",
              "name": "data",
              "type": "bytes"
            }
          ],
          "internalType": "struct SolverLib.Ingest[]",
          "name": "ingests",
          "type": "tuple[]"
        },
        {
          "internalType": "uint256",
          "name": "conditionVer",
          "type": "uint256"
        }
      ],
      "name": "ingestsValid",
      "outputs": [
        {
          "internalType": "bool",
          "name": "",
          "type": "bool"
        }
      ],
      "stateMutability": "pure",
      "type": "function"
    }
  ],
  "bytecode": "0x6125c361003a600b82828239805160001a60731461002d57634e487b7160e01b600052600060045260246000fd5b30600052607381538281f3fe73000000000000000000000000000000000000000030146080604052600436106101255760003560e01c806366662585116100bc5780639fa61fa31161008b578063b89c10e711610070578063b89c10e714610303578063ec7ac2f014610323578063f060d0b61461034357610125565b80639fa61fa3146102d0578063b1adb6f6146102f057610125565b80636666258514610250578063696d4661146102705780636a0a24f114610290578063764d6736146102b057610125565b80634dd0aa49116100f85780634dd0aa49146101ac5780635069a07c146101e357806359111fb5146102105780635cc1f6b51461023057610125565b806311ca1ac01461012a57806324b286021461014c578063366968281461016c57806348cc49d51461018c575b600080fd5b81801561013657600080fd5b5061014a610145366004611ae4565b610370565b005b81801561015857600080fd5b5061014a610167366004611a82565b61038e565b81801561017857600080fd5b5061014a610187366004611962565b6103a8565b81801561019857600080fd5b5061014a6101a7366004611ae4565b6109e9565b8180156101b857600080fd5b506101cc6101c7366004611b29565b610a5c565b6040516101da92919061209d565b60405180910390f35b8180156101ef57600080fd5b506102036101fe3660046118fa565b610b01565b6040516101da91906122da565b81801561021c57600080fd5b5061014a61022b366004611a82565b610d5a565b61024361023e366004611844565b610d70565b6040516101da91906121c0565b81801561025c57600080fd5b5061014a61026b3660046117d1565b610e2b565b81801561027c57600080fd5b5061014a61028b366004611a82565b610f7a565b81801561029c57600080fd5b5061014a6102ab366004611a9a565b610f95565b6102c36102be366004611a2a565b610fb8565b6040516101da91906121cb565b6102e36102de366004611ba3565b6110cf565b6040516101da919061200a565b6102c36102fe3660046119e7565b61119f565b81801561030f57600080fd5b5061014a61031e366004611a82565b611235565b81801561032f57600080fd5b5061014a61033e366004611a82565b6112a9565b81801561034f57600080fd5b5061036361035e366004611b74565b6112bf565b6040516101da919061224e565b6005828101805460ff1916909117905561038a82826109e9565b5050565b6005810180546003919060ff19166001835b021790555050565b60006103b76080860186612368565b905067ffffffffffffffff8111156103df57634e487b7160e01b600052604160045260246000fd5b604051908082528060200260200182016040528015610408578160200160208202803683370190505b509050600061041a60a0870187612368565b905067ffffffffffffffff81111561044257634e487b7160e01b600052604160045260246000fd5b60405190808252806020026020018201604052801561047557816020015b60608152602001906001900390816104605790505b50905060005b6104886080880188612368565b905081101561051e576104e161049d896124e2565b6104aa60208a018a6118de565b6104b760808b018b612368565b858181106104d557634e487b7160e01b600052603260045260246000fd5b90506020020135610fb8565b83828151811061050157634e487b7160e01b600052603260045260246000fd5b60209081029190910101528061051681612523565b91505061047b565b5060005b61052f60a0880188612368565b9050811015610761576105456080880188612368565b905067ffffffffffffffff81111561056d57634e487b7160e01b600052604160045260246000fd5b604051908082528060200260200182016040528015610596578160200160208202803683370190505b508282815181106105b757634e487b7160e01b600052603260045260246000fd5b602002602001018190525060005b6105d26080890189612368565b905081101561074e578560006105eb60c08b018b612368565b8481811061060957634e487b7160e01b600052603260045260246000fd5b905060200281019061061b9190612368565b8581811061063957634e487b7160e01b600052603260045260246000fd5b9050602002013581526020019081526020016000208054610659906124ee565b80601f0160208091040260200160405190810160405280929190818152602001828054610685906124ee565b80156106d25780601f106106a7576101008083540402835291602001916106d2565b820191906000526020600020905b8154815290600101906020018083116106b557829003601f168201915b50505050508060200190518101906106ea91906118c6565b83838151811061070a57634e487b7160e01b600052603260045260246000fd5b6020026020010151828151811061073157634e487b7160e01b600052603260045260246000fd5b60209081029190910101528061074681612523565b9150506105c5565b508061075981612523565b915050610522565b5060005b815181101561081d5760005b82828151811061079157634e487b7160e01b600052603260045260246000fd5b60200260200101515181101561080a576107f88383815181106107c457634e487b7160e01b600052603260045260246000fd5b602002602001015182815181106107eb57634e487b7160e01b600052603260045260246000fd5b60200260200101516114ad565b8061080281612523565b915050610771565b508061081581612523565b915050610765565b5060005b61082e60a0880188612368565b90508110156109df57735fbdb2315678afecb367f032d93f642f64180aa3632eb2c2d68787600061086260a08d018d612368565b8781811061088057634e487b7160e01b600052603260045260246000fd5b90506020020135815260200190815260200160002080546108a0906124ee565b80601f01602080910402602001604051908101604052809291908181526020018280546108cc906124ee565b80156109195780601f106108ee57610100808354040283529160200191610919565b820191906000526020600020905b8154815290600101906020018083116108fc57829003601f168201915b505050505080602001905181019061093191906117b5565b8686868151811061095257634e487b7160e01b600052603260045260246000fd5b60200260200101518960405160200161096b91906121cb565b6040516020818303038152906040526040518663ffffffff1660e01b815260040161099a95949392919061201e565b600060405180830381600087803b1580156109b457600080fd5b505af11580156109c8573d6000803e3d6000fd5b5050505080806109d790612523565b915050610821565b5050505050505050565b6001820154604051633124a62b60e21b8152735fbdb2315678afecb367f032d93f642f64180aa39163c49298ac91610a26919085906004016121d4565b600060405180830381600087803b158015610a4057600080fd5b505af1158015610a54573d6000803e3d6000fd5b505050505050565b60008073e7f1725e7734ce288f8367e1bb143e90bb3f051263e4445ce685610a858660016124ca565b886040518463ffffffff1660e01b8152600401610aa4939291906120d0565b602060405180830381600087803b158015610abe57600080fd5b505af1158015610ad2573d6000803e3d6000fd5b505050506040513d601f19601f82011682018060405250810190610af691906117b5565b958695509350505050565b610b0961153a565b610b1660e08601866123af565b8484604051602001610b2b9493929190611fd7565b60408051601f198184030181529190528051602091820120908201526001600160a01b038416610b615760006040820152610bff565b604080517f68e014c50000000000000000000000000000000000000000000000000000000081526001600160a01b038616916368e014c591610ba991890135906004016121cb565b60206040518083038186803b158015610bc157600080fd5b505afa158015610bd5573d6000803e3d6000fd5b505050506040513d601f19601f82011682018060405250810190610bf991906118c6565b60408201525b6020808201516040517f852c6ae2000000000000000000000000000000000000000000000000000000008152735fbdb2315678afecb367f032d93f642f64180aa39263852c6ae292610c599288928b01359060040161207c565b60206040518083038186803b158015610c7157600080fd5b505afa158015610c85573d6000803e3d6000fd5b505050506040513d601f19601f82011682018060405250810190610ca991906118c6565b6060820152610cbb60208601866118de565b6001600160a01b031681526020808201516040517fd96ee754000000000000000000000000000000000000000000000000000000008152735fbdb2315678afecb367f032d93f642f64180aa39263d96ee75492610d209288928b01359060040161207c565b600060405180830381600087803b158015610d3a57600080fd5b505af1158015610d4e573d6000803e3d6000fd5b50505050949350505050565b6005810180546002919060ff19166001836103a0565b6000805b83811015610e1e57848482818110610d9c57634e487b7160e01b600052603260045260246000fd5b9050602002810190610dae91906123f4565b610dbf90604081019060200161188e565b8015610dfd575082858583818110610de757634e487b7160e01b600052603260045260246000fd5b9050602002810190610df991906123f4565b3514155b15610e0c576000915050610e24565b80610e1681612523565b915050610d74565b50600190505b9392505050565b6001600160a01b038316610edf57610e4660208301836118de565b6001600160a01b031663095ea7b3735fbdb2315678afecb367f032d93f642f64180aa384606001356040518363ffffffff1660e01b8152600401610e8b9291906120b7565b602060405180830381600087803b158015610ea557600080fd5b505af1158015610eb9573d6000803e3d6000fd5b505050506040513d601f19601f82011682018060405250810190610edd91906118aa565b505b735fbdb2315678afecb367f032d93f642f64180aa36372ce4275610f0660208501856118de565b60408401356060850135610f1d6080880188612368565b88606001356040518763ffffffff1660e01b8152600401610f4396959493929190612261565b600060405180830381600087803b158015610f5d57600080fd5b505af1158015610f71573d6000803e3d6000fd5b50505050505050565b60058101805460ff19166006179055610f9281611235565b50565b60058301805460ff19166002179055610fb260048401838361156c565b50505050565b6040808401516060850151915163856296f760e01b8152600092735fbdb2315678afecb367f032d93f642f64180aa39283926339dd7530928892859263856296f79261100992918b90600401612238565b60206040518083038186803b15801561102157600080fd5b505afa158015611035573d6000803e3d6000fd5b505050506040513d601f19601f8201168201806040525081019061105991906118c6565b6040518363ffffffff1660e01b81526004016110769291906120b7565b60206040518083038186803b15801561108e57600080fd5b505afa1580156110a2573d6000803e3d6000fd5b505050506040513d601f19601f820116820180604052508101906110c691906118c6565b95945050505050565b6000818614156110e05750836110c6565b8186101561116b57604051631c1bd82f60e11b81526001600160a01b03851690633837b05e906111149089906004016121cb565b60206040518083038186803b15801561112c57600080fd5b505afa158015611140573d6000803e3d6000fd5b505050506040513d601f19601f8201168201806040525081019061116491906117b5565b90506110c6565b818611156110c657604051631c1bd82f60e11b81526001600160a01b03841690633837b05e906111149089906004016121cb565b6040805163856296f760e01b8152600091735fbdb2315678afecb367f032d93f642f64180aa39163856296f7916111e59190870135906060880135908790600401612238565b60206040518083038186803b1580156111fd57600080fd5b505afa158015611211573d6000803e3d6000fd5b505050506040513d601f19601f82011682018060405250810190610e2491906118c6565b6001810154604051633124a62b60e21b8152735fbdb2315678afecb367f032d93f642f64180aa39163c49298ac916112749190600480870191016121f5565b600060405180830381600087803b15801561128e57600080fd5b505af11580156112a2573d6000803e3d6000fd5b5050505050565b6005810180546004919060ff19166001836103a0565b81546060908360006112d083612523565b90915550506001830154610100900460ff16611417576003830154604051631c1bd82f60e11b81526000916001600160a01b03851691633837b05e91611318916004016121cb565b60206040518083038186803b15801561133057600080fd5b505afa158015611344573d6000803e3d6000fd5b505050506040513d601f19601f8201168201806040525081019061136891906117b5565b9050600080826001600160a01b0316866004016040516113889190611f3c565b600060405180830381855afa9150503d80600081146113c3576040519150601f19603f3d011682016040523d82523d6000602084013e6113c8565b606091505b50915091508161140d576040517f08c379a0000000000000000000000000000000000000000000000000000000008152600401611404906122a3565b60405180910390fd5b92506114a7915050565b826004018054611426906124ee565b80601f0160208091040260200160405190810160405280929190818152602001828054611452906124ee565b801561149f5780601f106114745761010080835404028352916020019161149f565b820191906000526020600020905b81548152906001019060200180831161148257829003601f168201915b505050505090505b92915050565b610f92816040516024016114c191906121cb565b60408051601f198184030181529190526020810180517bffffffffffffffffffffffffffffffffffffffffffffffffffffffff167ff5b1bba90000000000000000000000000000000000000000000000000000000017905280516a636f6e736f6c652e6c6f67602083016000808483855afa5050505050565b6040805160c081018252600080825260208201819052918101829052606080820183905260808201529060a082015290565b8280548282559060005260206000209081019282156115a7579160200282015b828111156115a757823582559160200191906001019061158c565b506115b39291506115b7565b5090565b5b808211156115b357600081556001016115b8565b80356115d78161256a565b919050565b60008083601f8401126115ed578182fd5b50813567ffffffffffffffff811115611604578182fd5b602083019150836020808302850101111561161e57600080fd5b9250929050565b600082601f830112611635578081fd5b8135602067ffffffffffffffff8083111561165257611652612554565b8183026040518382820101818110848211171561167157611671612554565b6040528481528381019250868401828801850189101561168f578687fd5b8692505b858310156116b1578035845292840192600192909201918401611693565b50979650505050505050565b80356115d78161257f565b8035600781106115d757600080fd5b600061010082840312156116e9578081fd5b50919050565b600060c082840312156116e9578081fd5b600060c08284031215611711578081fd5b60405160c0810167ffffffffffffffff828210818311171561173557611735612554565b81604052829350611745856115cc565b8352602085013560208401526040850135604084015260608501356060840152608085013591508082111561177957600080fd5b5061178685828601611625565b60808301525061179860a084016116c8565b60a08201525092915050565b803560ff811681146115d757600080fd5b6000602082840312156117c6578081fd5b8151610e248161256a565b6000806000606084860312156117e5578182fd5b83356117f08161256a565b9250602084013567ffffffffffffffff8082111561180c578384fd5b611818878388016116d7565b9350604086013591508082111561182d578283fd5b5061183a868287016116ef565b9150509250925092565b600080600060408486031215611858578283fd5b833567ffffffffffffffff81111561186e578384fd5b61187a868287016115dc565b909790965060209590950135949350505050565b60006020828403121561189f578081fd5b8135610e248161257f565b6000602082840312156118bb578081fd5b8151610e248161257f565b6000602082840312156118d7578081fd5b5051919050565b6000602082840312156118ef578081fd5b8135610e248161256a565b6000806000806080858703121561190f578182fd5b843567ffffffffffffffff811115611925578283fd5b611931878288016116d7565b94505060208501356119428161256a565b925060408501356119528161256a565b9396929550929360600135925050565b600080600080600060a08688031215611979578283fd5b853567ffffffffffffffff80821115611990578485fd5b61199c89838a016116ef565b965060208801359150808211156119b1578485fd5b506119be888289016116d7565b94505060408601356119cf8161256a565b94979396509394606081013594506080013592915050565b600080604083850312156119f9578182fd5b823567ffffffffffffffff811115611a0f578283fd5b611a1b858286016116ef565b95602094909401359450505050565b600080600060608486031215611a3e578081fd5b833567ffffffffffffffff811115611a54578182fd5b611a6086828701611700565b9350506020840135611a718161256a565b929592945050506040919091013590565b600060208284031215611a93578081fd5b5035919050565b600080600060408486031215611aae578081fd5b83359250602084013567ffffffffffffffff811115611acb578182fd5b611ad7868287016115dc565b9497909650939450505050565b60008060408385031215611af6578182fd5b82359150602083013567ffffffffffffffff811115611b13578182fd5b611b1f85828601611625565b9150509250929050565b600080600060608486031215611b3d578081fd5b833567ffffffffffffffff811115611b53578182fd5b840160e08187031215611b64578182fd5b92506020840135611a718161256a565b60008060408385031215611b86578182fd5b823591506020830135611b988161256a565b809150509250929050565b600080600080600060a08688031215611bba578283fd5b853594506020860135611bcc8161256a565b93506040860135611bdc8161256a565b92506060860135611bec8161256a565b949793965091946080013592915050565b6001600160a01b03169052565b8183526020808401936000918085028201810184845b87811015611c5a57848303601f19018952611c3b828861241f565b611c46858284611d46565b9a86019a9450505090830190600101611c20565b5090979650505050505050565b8183526020808401936000918085028201810184845b87811015611c5a57848303601f1901895281353688900360de19018112611ca2578687fd5b87018035845260e085820135611cb78161257f565b611cc387870182611dcd565b506040611cd18184016116bd565b611cdd82880182611dcd565b50506060611cec8184016117a4565b611cf882880182611f35565b50506080828101359086015260a0808301359086015260c0611d1c81840184612467565b93508282880152611d308388018583611dd3565b9c88019c96505050928501925050600101611c7d565b60008284527f07ffffffffffffffffffffffffffffffffffffffffffffffffffffffffffffff831115611d77578081fd5b6020830280836020870137939093016020019283525090919050565b6000815180845260208085019450808401835b83811015611dc257815187529582019590820190600101611da6565b509495945050505050565b15159052565b60008284528282602086013780602084860101526020601f19601f85011685010190509392505050565b60008151808452815b81811015611e2257602081850181015186830182015201611e06565b81811115611e335782602083870101525b50601f01601f19169290920160200192915050565b60078110611e6657634e487b7160e01b600052602160045260246000fd5b9052565b6000610100611e8184611e7c856115cc565b611bfd565b602083013560208501526040830135604085015260608301356060850152611eac608084018461241f565b826080870152611ebf8387018284611d46565b92505050611ed060a084018461241f565b85830360a0870152611ee3838284611d46565b92505050611ef460c084018461241f565b85830360c0870152611f07838284611c0a565b92505050611f1860e0840184612467565b85830360e0870152611f2b838284611dd3565b9695505050505050565b60ff169052565b8154600090819060028104600180831680611f5857607f831692505b6020808410821415611f7857634e487b7160e01b87526022600452602487fd5b818015611f8c5760018114611f9d57611fc9565b60ff19861689528489019650611fc9565b611fa68a612413565b885b86811015611fc15781548b820152908501908301611fa8565b505084890196505b509498975050505050505050565b6000848683375060609290921b6bffffffffffffffffffffffff1916919092019081526014810191909152603401919050565b6001600160a01b0391909116815260200190565b60006001600160a01b03808816835280871660208401525060a0604083015261204a60a0830186611d93565b828103606084015261205c8186611d93565b905082810360808401526120708185611dfd565b98975050505050505050565b6001600160a01b039390931683526020830191909152604082015260600190565b6001600160a01b0392831681529116602082015260400190565b6001600160a01b03929092168252602082015260400190565b60006001600160a01b03851682528360208301526060604083015282356120f68161256a565b6121036060840182611bfd565b50612110602084016115cc565b61211d6080840182611bfd565b5061212a604084016115cc565b61213760a0840182611bfd565b50606083013560c083015261214f6080840184612467565b60e08085015261216461014085018284611dd3565b91505061217460a085018561241f565b605f19808685030161010087015261218d848385611c67565b935061219c60c08801886124ac565b9250808685030161012087015250506121b58282611e6a565b979650505050505050565b901515815260200190565b90815260200190565b6000838252604060208301526121ed6040830184611d93565b949350505050565b60006040820184835260206040818501528185548084526060860191508685528285209350845b81811015611c5a5784548352600194850194928401920161221c565b9283526020830191909152604082015260600190565b600060208252610e246020830184611dfd565b60006001600160a01b038816825286602083015285604083015260a0606083015261229060a083018587611d46565b9050826080830152979650505050505050565b60208082526018908201527f496e676573742073746174696363616c6c206661696c65640000000000000000604082015260600190565b6000602080835260e083016001600160a01b03855116828501528185015160408501526040850151606085015260608501516080850152608085015160c060a08601528181518084526101008701915084830193508592505b808310156123535783518252928401926001929092019190840190612333565b5060a08701519350611f2b60c0870185611e48565b6000808335601e1984360301811261237e578283fd5b83018035915067ffffffffffffffff821115612398578283fd5b602090810192508102360382131561161e57600080fd5b6000808335601e198436030181126123c5578283fd5b83018035915067ffffffffffffffff8211156123df578283fd5b60200191503681900382131561161e57600080fd5b6000823560de19833603018112612409578182fd5b9190910192915050565b60009081526020902090565b6000808335601e19843603018112612435578283fd5b830160208101925035905067ffffffffffffffff81111561245557600080fd5b60208102360383131561161e57600080fd5b6000808335601e1984360301811261247d578283fd5b830160208101925035905067ffffffffffffffff81111561249d57600080fd5b80360383131561161e57600080fd5b6000823560fe198336030181126124c1578182fd5b90910192915050565b600082198211156124dd576124dd61253e565b500190565b60006114a73683611700565b60028104600182168061250257607f821691505b602082108114156116e957634e487b7160e01b600052602260045260246000fd5b60006000198214156125375761253761253e565b5060010190565b634e487b7160e01b600052601160045260246000fd5b634e487b7160e01b600052604160045260246000fd5b6001600160a01b0381168114610f9257600080fd5b8015158114610f9257600080fdfea26469706673582212201911ef4ee04156263f139071a4d3065a2c3b6702d00567f873866595eb02124864736f6c63430008000033",
  "linkReferences": {},
  "deployedLinkReferences": {}
}