{
  "_format": "hh-sol-artifact-1",
  "contractName": "SolverLib",
  "sourceName": "contracts/SolverLib.sol",
  "abi": [
    {
      "inputs": [
        {
          "internalType": "uint256",
          "name": "index",
          "type": "uint256"
        },
        {
          "internalType": "address",
          "name": "_this",
          "type": "address"
        },
        {
          "internalType": "address",
          "name": "chainParent",
          "type": "address"
        },
        {
          "internalType": "address",
          "name": "chainChild",
          "type": "address"
        },
        {
          "internalType": "uint256",
          "name": "chainIndex",
          "type": "uint256"
        }
      ],
      "name": "addressFromChainIndex",
      "outputs": [
        {
          "internalType": "address",
          "name": "_address",
          "type": "address"
        }
      ],
      "stateMutability": "view",
      "type": "function"
    },
    {
      "inputs": [
        {
          "components": [
            {
              "internalType": "contract IERC20",
              "name": "collateralToken",
              "type": "IERC20"
            },
            {
              "internalType": "bytes32",
              "name": "questionId",
              "type": "bytes32"
            },
            {
              "internalType": "bytes32",
              "name": "parentCollectionId",
              "type": "bytes32"
            },
            {
              "internalType": "bytes32",
              "name": "conditionId",
              "type": "bytes32"
            },
            {
              "internalType": "uint256[]",
              "name": "payouts",
              "type": "uint256[]"
            },
            {
              "internalType": "enum SolverLib.Status",
              "name": "status",
              "type": "SolverLib.Status"
            }
          ],
          "internalType": "struct SolverLib.Condition",
          "name": "condition",
          "type": "tuple"
        },
        {
          "internalType": "uint256",
          "name": "partition",
          "type": "uint256"
        }
      ],
      "name": "getCollectionId",
      "outputs": [
        {
          "internalType": "bytes32",
          "name": "collectionId",
          "type": "bytes32"
        }
      ],
      "stateMutability": "view",
      "type": "function"
    },
    {
      "inputs": [
        {
          "components": [
            {
              "internalType": "contract IERC20",
              "name": "collateralToken",
              "type": "IERC20"
            },
            {
              "internalType": "bytes32",
              "name": "questionId",
              "type": "bytes32"
            },
            {
              "internalType": "bytes32",
              "name": "parentCollectionId",
              "type": "bytes32"
            },
            {
              "internalType": "bytes32",
              "name": "conditionId",
              "type": "bytes32"
            },
            {
              "internalType": "uint256[]",
              "name": "payouts",
              "type": "uint256[]"
            },
            {
              "internalType": "enum SolverLib.Status",
              "name": "status",
              "type": "SolverLib.Status"
            }
          ],
          "internalType": "struct SolverLib.Condition",
          "name": "condition",
          "type": "tuple"
        },
        {
          "internalType": "contract IERC20",
          "name": "collateralToken",
          "type": "IERC20"
        },
        {
          "internalType": "uint256",
          "name": "partition",
          "type": "uint256"
        }
      ],
      "name": "getPositionId",
      "outputs": [
        {
          "internalType": "uint256",
          "name": "positionId",
          "type": "uint256"
        }
      ],
      "stateMutability": "view",
      "type": "function"
    },
    {
      "inputs": [
        {
          "components": [
            {
              "internalType": "uint256",
              "name": "executions",
              "type": "uint256"
            },
            {
              "internalType": "enum SolverLib.IngestType",
              "name": "ingestType",
              "type": "SolverLib.IngestType"
            },
            {
              "internalType": "uint8",
              "name": "dataType",
              "type": "uint8"
            },
            {
              "internalType": "uint256",
              "name": "key",
              "type": "uint256"
            },
            {
              "internalType": "uint256",
              "name": "solverIndex",
              "type": "uint256"
            },
            {
              "internalType": "bytes",
              "name": "data",
              "type": "bytes"
            }
          ],
          "internalType": "struct SolverLib.Ingest[]",
          "name": "ingests",
          "type": "tuple[]"
        },
        {
          "internalType": "uint256",
          "name": "conditionVer",
          "type": "uint256"
        }
      ],
      "name": "ingestsValid",
      "outputs": [
        {
          "internalType": "bool",
          "name": "",
          "type": "bool"
        }
      ],
      "stateMutability": "pure",
      "type": "function"
    }
  ],
  "bytecode": "0x6125c261003a600b82828239805160001a60731461002d57634e487b7160e01b600052600060045260246000fd5b30600052607381538281f3fe73000000000000000000000000000000000000000030146080604052600436106101255760003560e01c80635cc1f6b5116100bc5780639fa61fa31161008b578063b89c10e711610070578063b89c10e714610303578063ec7ac2f014610323578063f060d0b61461034357610125565b80639fa61fa3146102d0578063b1adb6f6146102f057610125565b80635cc1f6b514610250578063696d4661146102705780636a0a24f114610290578063764d6736146102b057610125565b806348cc49d5116100f857806348cc49d5146101ac5780634dd0aa49146101cc5780635069a07c1461020357806359111fb51461023057610125565b806311ca1ac01461012a5780631e85323f1461014c57806324b286021461016c578063366968281461018c575b600080fd5b81801561013657600080fd5b5061014a610145366004611aa3565b610370565b005b81801561015857600080fd5b5061014a61016736600461168b565b61038e565b81801561017857600080fd5b5061014a610187366004611a41565b6104d6565b81801561019857600080fd5b5061014a6101a7366004611921565b6104f0565b8180156101b857600080fd5b5061014a6101c7366004611aa3565b610a6b565b8180156101d857600080fd5b506101ec6101e7366004611ae8565b610ade565b6040516101fa929190612039565b60405180910390f35b81801561020f57600080fd5b5061022361021e3660046118b9565b610b83565b6040516101fa9190612276565b81801561023c57600080fd5b5061014a61024b366004611a41565b610ded565b61026361025e36600461181b565b610e03565b6040516101fa919061215c565b81801561027c57600080fd5b5061014a61028b366004611a41565b610e71565b81801561029c57600080fd5b5061014a6102ab366004611a59565b610e8c565b6102c36102be3660046119a6565b610eaf565b6040516101fa9190612167565b6102e36102de366004611b62565b610fc6565b6040516101fa9190611fa6565b6102c36102fe3660046119fe565b611096565b81801561030f57600080fd5b5061014a61031e366004611a41565b61112b565b81801561032f57600080fd5b5061014a61033e366004611a41565b61119f565b81801561034f57600080fd5b5061036361035e366004611b33565b6111b5565b6040516101fa91906121ea565b6005828101805460ff1916909117905561038a8282610a6b565b5050565b6001600160a01b03841661043e576103a9602084018461189d565b6001600160a01b031663095ea7b3735fbdb2315678afecb367f032d93f642f64180aa3836040518363ffffffff1660e01b81526004016103ea929190612053565b602060405180830381600087803b15801561040457600080fd5b505af1158015610418573d6000803e3d6000fd5b505050506040513d601f19601f8201168201806040525081019061043c9190611865565b505b735fbdb2315678afecb367f032d93f642f64180aa36372ce4275610465602086018661189d565b6040850135606086013561047c6080890189612304565b876040518763ffffffff1660e01b815260040161049e969594939291906121fd565b600060405180830381600087803b1580156104b857600080fd5b505af11580156104cc573d6000803e3d6000fd5b5050505050505050565b6005810180546003919060ff19166001835b021790555050565b60006104ff6080860186612304565b905067ffffffffffffffff81111561052757634e487b7160e01b600052604160045260246000fd5b604051908082528060200260200182016040528015610550578160200160208202803683370190505b509050600061056260a0870187612304565b905067ffffffffffffffff81111561058a57634e487b7160e01b600052604160045260246000fd5b6040519080825280602002602001820160405280156105bd57816020015b60608152602001906001900390816105a85790505b50905060005b6105d06080880188612304565b9050811015610666576106296105e5896124cc565b6105f260208a018a61189d565b6105ff60808b018b612304565b8581811061061d57634e487b7160e01b600052603260045260246000fd5b90506020020135610eaf565b83828151811061064957634e487b7160e01b600052603260045260246000fd5b60209081029190910101528061065e8161250d565b9150506105c3565b5060005b61067760a0880188612304565b90508110156108a95761068d6080880188612304565b905067ffffffffffffffff8111156106b557634e487b7160e01b600052604160045260246000fd5b6040519080825280602002602001820160405280156106de578160200160208202803683370190505b508282815181106106ff57634e487b7160e01b600052603260045260246000fd5b602002602001018190525060005b61071a6080890189612304565b90508110156108965785600061073360c08b018b612304565b8481811061075157634e487b7160e01b600052603260045260246000fd5b90506020028101906107639190612304565b8581811061078157634e487b7160e01b600052603260045260246000fd5b90506020020135815260200190815260200160002080546107a1906124d8565b80601f01602080910402602001604051908101604052809291908181526020018280546107cd906124d8565b801561081a5780601f106107ef5761010080835404028352916020019161081a565b820191906000526020600020905b8154815290600101906020018083116107fd57829003601f168201915b50505050508060200190518101906108329190611885565b83838151811061085257634e487b7160e01b600052603260045260246000fd5b6020026020010151828151811061087957634e487b7160e01b600052603260045260246000fd5b60209081029190910101528061088e8161250d565b91505061070d565b50806108a18161250d565b91505061066a565b5060005b6108ba60a0880188612304565b90508110156104cc57735fbdb2315678afecb367f032d93f642f64180aa3632eb2c2d6878760006108ee60a08d018d612304565b8781811061090c57634e487b7160e01b600052603260045260246000fd5b905060200201358152602001908152602001600020805461092c906124d8565b80601f0160208091040260200160405190810160405280929190818152602001828054610958906124d8565b80156109a55780601f1061097a576101008083540402835291602001916109a5565b820191906000526020600020905b81548152906001019060200180831161098857829003601f168201915b50505050508060200190518101906109bd919061166f565b868686815181106109de57634e487b7160e01b600052603260045260246000fd5b6020026020010151896040516020016109f79190612167565b6040516020818303038152906040526040518663ffffffff1660e01b8152600401610a26959493929190611fba565b600060405180830381600087803b158015610a4057600080fd5b505af1158015610a54573d6000803e3d6000fd5b505050508080610a639061250d565b9150506108ad565b6001820154604051633124a62b60e21b8152735fbdb2315678afecb367f032d93f642f64180aa39163c49298ac91610aa891908590600401612170565b600060405180830381600087803b158015610ac257600080fd5b505af1158015610ad6573d6000803e3d6000fd5b505050505050565b60008073e7f1725e7734ce288f8367e1bb143e90bb3f05126346dc67ad85610b078660016124b4565b886040518463ffffffff1660e01b8152600401610b269392919061206c565b602060405180830381600087803b158015610b4057600080fd5b505af1158015610b54573d6000803e3d6000fd5b505050506040513d601f19601f82011682018060405250810190610b78919061166f565b958695509350505050565b610b8b6113bf565b610b9860e086018661234b565b8484604051602001610bad9493929190611f73565b60408051601f198184030181529190528051602091820120908201526001600160a01b038416610be35760006040820152610c92565b610c8c846001600160a01b0316637c1236276040518163ffffffff1660e01b815260040160006040518083038186803b158015610c1f57600080fd5b505afa158015610c33573d6000803e3d6000fd5b505050506040513d6000823e601f3d908101601f19168201604052610c5b9190810190611706565b8381518110610c7a57634e487b7160e01b600052603260045260246000fd5b60200260200101518660400135611096565b60408201525b6020808201516040517f852c6ae2000000000000000000000000000000000000000000000000000000008152735fbdb2315678afecb367f032d93f642f64180aa39263852c6ae292610cec9288928b013590600401612018565b60206040518083038186803b158015610d0457600080fd5b505afa158015610d18573d6000803e3d6000fd5b505050506040513d601f19601f82011682018060405250810190610d3c9190611885565b6060820152610d4e602086018661189d565b6001600160a01b031681526020808201516040517fd96ee754000000000000000000000000000000000000000000000000000000008152735fbdb2315678afecb367f032d93f642f64180aa39263d96ee75492610db39288928b013590600401612018565b600060405180830381600087803b158015610dcd57600080fd5b505af1158015610de1573d6000803e3d6000fd5b50505050949350505050565b6005810180546002919060ff19166001836104e8565b6000805b83811015610e645782858583818110610e3057634e487b7160e01b600052603260045260246000fd5b9050602002810190610e429190612390565b3514610e52576000915050610e6a565b80610e5c8161250d565b915050610e07565b50600190505b9392505050565b60058101805460ff19166006179055610e898161112b565b50565b60058301805460ff19166002179055610ea96004840183836113f1565b50505050565b6040808401516060850151915163856296f760e01b8152600092735fbdb2315678afecb367f032d93f642f64180aa39283926339dd7530928892859263856296f792610f0092918b906004016121d4565b60206040518083038186803b158015610f1857600080fd5b505afa158015610f2c573d6000803e3d6000fd5b505050506040513d601f19601f82011682018060405250810190610f509190611885565b6040518363ffffffff1660e01b8152600401610f6d929190612053565b60206040518083038186803b158015610f8557600080fd5b505afa158015610f99573d6000803e3d6000fd5b505050506040513d601f19601f82011682018060405250810190610fbd9190611885565b95945050505050565b600081861415610fd7575083610fbd565b8186101561106257604051631c1bd82f60e11b81526001600160a01b03851690633837b05e9061100b908990600401612167565b60206040518083038186803b15801561102357600080fd5b505afa158015611037573d6000803e3d6000fd5b505050506040513d601f19601f8201168201806040525081019061105b919061166f565b9050610fbd565b81861115610fbd57604051631c1bd82f60e11b81526001600160a01b03841690633837b05e9061100b908990600401612167565b6040808301516060840151915163856296f760e01b8152600092735fbdb2315678afecb367f032d93f642f64180aa39263856296f7926110db929087906004016121d4565b60206040518083038186803b1580156110f357600080fd5b505afa158015611107573d6000803e3d6000fd5b505050506040513d601f19601f82011682018060405250810190610e6a9190611885565b6001810154604051633124a62b60e21b8152735fbdb2315678afecb367f032d93f642f64180aa39163c49298ac9161116a919060048087019101612191565b600060405180830381600087803b15801561118457600080fd5b505af1158015611198573d6000803e3d6000fd5b5050505050565b6005810180546004919060ff19166001836104e8565b81546060908360006111c68361250d565b909155505060018381015460ff1660028111156111f357634e487b7160e01b600052602160045260246000fd5b14611329576003830154604051631c1bd82f60e11b81526000916001600160a01b03851691633837b05e9161122a91600401612167565b60206040518083038186803b15801561124257600080fd5b505afa158015611256573d6000803e3d6000fd5b505050506040513d601f19601f8201168201806040525081019061127a919061166f565b9050600080826001600160a01b03168660040160405161129a9190611ed8565b600060405180830381855afa9150503d80600081146112d5576040519150601f19603f3d011682016040523d82523d6000602084013e6112da565b606091505b50915091508161131f576040517f08c379a00000000000000000000000000000000000000000000000000000000081526004016113169061223f565b60405180910390fd5b92506113b9915050565b826004018054611338906124d8565b80601f0160208091040260200160405190810160405280929190818152602001828054611364906124d8565b80156113b15780601f10611386576101008083540402835291602001916113b1565b820191906000526020600020905b81548152906001019060200180831161139457829003601f168201915b505050505090505b92915050565b6040805160c081018252600080825260208201819052918101829052606080820183905260808201529060a082015290565b82805482825590600052602060002090810192821561142c579160200282015b8281111561142c578235825591602001919060010190611411565b5061143892915061143c565b5090565b5b80821115611438576000815560010161143d565b803561145c8161256a565b919050565b60008083601f840112611472578182fd5b50813567ffffffffffffffff811115611489578182fd5b60208301915083602080830285010111156114a357600080fd5b9250929050565b600082601f8301126114ba578081fd5b813560206114cf6114ca836123d9565b6123af565b82815281810190858301838502870184018810156114eb578586fd5b855b85811015611509578135845292840192908401906001016114ed565b5090979650505050505050565b600082601f830112611526578081fd5b815160206115366114ca836123d9565b8281528181019085830183850287018401881015611552578586fd5b855b8581101561150957815184529284019290840190600101611554565b805161145c8161256a565b803561145c8161257f565b805161145c8161257f565b600061010082840312156115a3578081fd5b50919050565b600060c082840312156115a3578081fd5b600060c082840312156115cb578081fd5b60405160c0810167ffffffffffffffff82821081831117156115ef576115ef612554565b816040528293506115ff85611451565b8352602085013560208401526040850135604084015260608501356060840152608085013591508082111561163357600080fd5b50611640858286016114aa565b60808301525061165260a0840161157b565b60a08201525092915050565b803560ff8116811461145c57600080fd5b600060208284031215611680578081fd5b8151610e6a8161256a565b600080600080608085870312156116a0578283fd5b84356116ab8161256a565b9350602085013567ffffffffffffffff808211156116c7578485fd5b6116d388838901611591565b945060408701359150808211156116e8578384fd5b506116f5878288016115a9565b949793965093946060013593505050565b60006020808385031215611718578182fd5b825167ffffffffffffffff8082111561172f578384fd5b818501915085601f830112611742578384fd5b81516117506114ca826123d9565b81815284810190848601875b8481101561180c578151870160c080601f19838f0301121561177c578a8bfd5b604080518281018181108b8211171561179757611797612554565b82526117a4848d01611570565b8152818401518c8201526060840151828201526080840151606082015260a08401519150898211156117d4578c8dfd5b6117e28f8d84870101611516565b60808201526117f2838501611586565b60a08201528752505050928701929087019060010161175c565b50909998505050505050505050565b60008060006040848603121561182f578081fd5b833567ffffffffffffffff811115611845578182fd5b61185186828701611461565b909790965060209590950135949350505050565b600060208284031215611876578081fd5b81518015158114610e6a578182fd5b600060208284031215611896578081fd5b5051919050565b6000602082840312156118ae578081fd5b8135610e6a8161256a565b600080600080608085870312156118ce578182fd5b843567ffffffffffffffff8111156118e4578283fd5b6118f087828801611591565b94505060208501356119018161256a565b925060408501356119118161256a565b9396929550929360600135925050565b600080600080600060a08688031215611938578283fd5b853567ffffffffffffffff8082111561194f578485fd5b61195b89838a016115a9565b96506020880135915080821115611970578485fd5b5061197d88828901611591565b945050604086013561198e8161256a565b94979396509394606081013594506080013592915050565b6000806000606084860312156119ba578081fd5b833567ffffffffffffffff8111156119d0578182fd5b6119dc868287016115ba565b93505060208401356119ed8161256a565b929592945050506040919091013590565b60008060408385031215611a10578182fd5b823567ffffffffffffffff811115611a26578283fd5b611a32858286016115ba565b95602094909401359450505050565b600060208284031215611a52578081fd5b5035919050565b600080600060408486031215611a6d578081fd5b83359250602084013567ffffffffffffffff811115611a8a578182fd5b611a9686828701611461565b9497909650939450505050565b60008060408385031215611ab5578182fd5b82359150602083013567ffffffffffffffff811115611ad2578182fd5b611ade858286016114aa565b9150509250929050565b600080600060608486031215611afc578081fd5b833567ffffffffffffffff811115611b12578182fd5b840160e08187031215611b23578182fd5b925060208401356119ed8161256a565b60008060408385031215611b45578182fd5b823591506020830135611b578161256a565b809150509250929050565b600080600080600060a08688031215611b79578283fd5b853594506020860135611b8b8161256a565b93506040860135611b9b8161256a565b92506060860135611bab8161256a565b949793965091946080013592915050565b6001600160a01b03169052565b818352602080840193600091908185020181018584845b87811015611c16578284038952611bf78288612409565b611c02868284611ce6565b9a87019a9550505090840190600101611be0565b5091979650505050505050565b818352602080840193600091908185020181018584845b87811015611c16578284038952813560be19883603018112611c5a578687fd5b87018035855260c08682013560038110611c72578889fd5b611c7e88880182611de2565b506040611c8c81840161165e565b611c9882890182611ed1565b5050606082810135908701526080808301359087015260a0611cbc81840184612451565b93508282890152611cd08389018583611d6d565b9c89019c97505050928601925050600101611c3a565b60008284527f07ffffffffffffffffffffffffffffffffffffffffffffffffffffffffffffff831115611d17578081fd5b6020830280836020870137939093016020019283525090919050565b6000815180845260208085019450808401835b83811015611d6257815187529582019590820190600101611d46565b509495945050505050565b60008284528282602086013780602084860101526020601f19601f85011685010190509392505050565b60008151808452815b81811015611dbc57602081850181015186830182015201611da0565b81811115611dcd5782602083870101525b50601f01601f19169290920160200192915050565b60038110611df257611df261253e565b9052565b60078110611df257611df261253e565b6000610100611e1d84611e1885611451565b611bbc565b602083013560208501526040830135604085015260608301356060850152611e486080840184612409565b826080870152611e5b8387018284611ce6565b92505050611e6c60a0840184612409565b85830360a0870152611e7f838284611ce6565b92505050611e9060c0840184612409565b85830360c0870152611ea3838284611bc9565b92505050611eb460e0840184612451565b85830360e0870152611ec7838284611d6d565b9695505050505050565b60ff169052565b8154600090819060028104600180831680611ef457607f831692505b6020808410821415611f1457634e487b7160e01b87526022600452602487fd5b818015611f285760018114611f3957611f65565b60ff19861689528489019650611f65565b611f428a6123fd565b885b86811015611f5d5781548b820152908501908301611f44565b505084890196505b509498975050505050505050565b6000848683375060609290921b6bffffffffffffffffffffffff1916919092019081526014810191909152603401919050565b6001600160a01b0391909116815260200190565b60006001600160a01b03808816835280871660208401525060a06040830152611fe660a0830186611d33565b8281036060840152611ff88186611d33565b9050828103608084015261200c8185611d97565b98975050505050505050565b6001600160a01b039390931683526020830191909152604082015260600190565b6001600160a01b0392831681529116602082015260400190565b6001600160a01b03929092168252602082015260400190565b60006001600160a01b03851682528360208301526060604083015282356120928161256a565b61209f6060840182611bbc565b506120ac60208401611451565b6120b96080840182611bbc565b506120c660408401611451565b6120d360a0840182611bbc565b50606083013560c08301526120eb6080840184612451565b60e08085015261210061014085018284611d6d565b91505061211060a0850185612409565b605f198086850301610100870152612129848385611c23565b935061213860c0880188612496565b9250808685030161012087015250506121518282611e06565b979650505050505050565b901515815260200190565b90815260200190565b6000838252604060208301526121896040830184611d33565b949350505050565b60006040820184835260206040818501528185548084526060860191508685528285209350845b81811015611509578454835260019485019492840192016121b8565b9283526020830191909152604082015260600190565b600060208252610e6a6020830184611d97565b60006001600160a01b038816825286602083015285604083015260a0606083015261222c60a083018587611ce6565b9050826080830152979650505050505050565b60208082526018908201527f496e676573742073746174696363616c6c206661696c65640000000000000000604082015260600190565b6000602080835260e083016001600160a01b03855116828501528185015160408501526040850151606085015260608501516080850152608085015160c060a08601528181518084526101008701915084830193508592505b808310156122ef57835182529284019260019290920191908401906122cf565b5060a08701519350611ec760c0870185611df6565b6000808335601e1984360301811261231a578283fd5b83018035915067ffffffffffffffff821115612334578283fd5b60209081019250810236038213156114a357600080fd5b6000808335601e19843603018112612361578283fd5b83018035915067ffffffffffffffff82111561237b578283fd5b6020019150368190038213156114a357600080fd5b6000823560be198336030181126123a5578182fd5b9190910192915050565b60405181810167ffffffffffffffff811182821017156123d1576123d1612554565b604052919050565b600067ffffffffffffffff8211156123f3576123f3612554565b5060209081020190565b60009081526020902090565b6000808335601e1984360301811261241f578283fd5b830160208101925035905067ffffffffffffffff81111561243f57600080fd5b6020810236038313156114a357600080fd5b6000808335601e19843603018112612467578283fd5b830160208101925035905067ffffffffffffffff81111561248757600080fd5b8036038313156114a357600080fd5b6000823560fe198336030181126124ab578182fd5b90910192915050565b600082198211156124c7576124c7612528565b500190565b60006113b936836115ba565b6002810460018216806124ec57607f821691505b602082108114156115a357634e487b7160e01b600052602260045260246000fd5b600060001982141561252157612521612528565b5060010190565b634e487b7160e01b600052601160045260246000fd5b634e487b7160e01b600052602160045260246000fd5b634e487b7160e01b600052604160045260246000fd5b6001600160a01b0381168114610e8957600080fd5b60078110610e8957600080fdfea264697066735822122057947e2bb2c847ba26cec6b8d726f687a6682f3eb6eadc6f0adc761d10aefb5b64736f6c63430008000033",
  "linkReferences": {},
  "deployedLinkReferences": {}
}