{
  "_format": "hh-sol-artifact-1",
  "contractName": "SolverLib",
  "sourceName": "contracts/SolverLib.sol",
  "abi": [
    {
      "inputs": [
        {
          "internalType": "uint256",
          "name": "index",
          "type": "uint256"
        },
        {
          "internalType": "address",
          "name": "_this",
          "type": "address"
        },
        {
          "internalType": "address",
          "name": "chainParent",
          "type": "address"
        },
        {
          "internalType": "address",
          "name": "chainChild",
          "type": "address"
        },
        {
          "internalType": "uint256",
          "name": "chainIndex",
          "type": "uint256"
        }
      ],
      "name": "addressFromChainIndex",
      "outputs": [
        {
          "internalType": "address",
          "name": "_address",
          "type": "address"
        }
      ],
      "stateMutability": "view",
      "type": "function"
    },
    {
      "inputs": [
        {
          "components": [
            {
              "internalType": "contract IERC20",
              "name": "collateralToken",
              "type": "IERC20"
            },
            {
              "internalType": "bytes32",
              "name": "questionId",
              "type": "bytes32"
            },
            {
              "internalType": "bytes32",
              "name": "parentCollectionId",
              "type": "bytes32"
            },
            {
              "internalType": "bytes32",
              "name": "conditionId",
              "type": "bytes32"
            },
            {
              "internalType": "uint256[]",
              "name": "payouts",
              "type": "uint256[]"
            },
            {
              "internalType": "enum SolverLib.Status",
              "name": "status",
              "type": "SolverLib.Status"
            }
          ],
          "internalType": "struct SolverLib.Condition",
          "name": "condition",
          "type": "tuple"
        },
        {
          "internalType": "uint256",
          "name": "partition",
          "type": "uint256"
        }
      ],
      "name": "getCanonCollectionId",
      "outputs": [
        {
          "internalType": "bytes32",
          "name": "collectionId",
          "type": "bytes32"
        }
      ],
      "stateMutability": "view",
      "type": "function"
    },
    {
      "inputs": [
        {
          "components": [
            {
              "internalType": "contract IERC20",
              "name": "collateralToken",
              "type": "IERC20"
            },
            {
              "internalType": "bytes32",
              "name": "questionId",
              "type": "bytes32"
            },
            {
              "internalType": "bytes32",
              "name": "parentCollectionId",
              "type": "bytes32"
            },
            {
              "internalType": "bytes32",
              "name": "conditionId",
              "type": "bytes32"
            },
            {
              "internalType": "uint256[]",
              "name": "payouts",
              "type": "uint256[]"
            },
            {
              "internalType": "enum SolverLib.Status",
              "name": "status",
              "type": "SolverLib.Status"
            }
          ],
          "internalType": "struct SolverLib.Condition",
          "name": "condition",
          "type": "tuple"
        },
        {
          "internalType": "contract IERC20",
          "name": "collateralToken",
          "type": "IERC20"
        },
        {
          "internalType": "uint256",
          "name": "partition",
          "type": "uint256"
        }
      ],
      "name": "getPositionId",
      "outputs": [
        {
          "internalType": "uint256",
          "name": "positionId",
          "type": "uint256"
        }
      ],
      "stateMutability": "view",
      "type": "function"
    },
    {
      "inputs": [
        {
          "components": [
            {
              "internalType": "uint256",
              "name": "executions",
              "type": "uint256"
            },
            {
              "internalType": "bool",
              "name": "isDeferred",
              "type": "bool"
            },
            {
              "internalType": "bool",
              "name": "isConstant",
              "type": "bool"
            },
            {
              "internalType": "uint8",
              "name": "port",
              "type": "uint8"
            },
            {
              "internalType": "uint256",
              "name": "key",
              "type": "uint256"
            },
            {
              "internalType": "uint256",
              "name": "solverIndex",
              "type": "uint256"
            },
            {
              "internalType": "bytes",
              "name": "data",
              "type": "bytes"
            }
          ],
          "internalType": "struct SolverLib.Ingest[]",
          "name": "ingests",
          "type": "tuple[]"
        },
        {
          "internalType": "uint256",
          "name": "conditionVer",
          "type": "uint256"
        }
      ],
      "name": "ingestsValid",
      "outputs": [
        {
          "internalType": "bool",
          "name": "",
          "type": "bool"
        }
      ],
      "stateMutability": "pure",
      "type": "function"
    }
  ],
  "bytecode": "0x61261461003a600b82828239805160001a60731461002d57634e487b7160e01b600052600060045260246000fd5b30600052607381538281f3fe730000000000000000000000000000000000000000301460806040526004361061015b5760003560e01c80635cc1f6b5116100d75780637a00026d1161008b578063b89c10e711610070578063b89c10e714610386578063ec7ac2f0146103a6578063f060d0b6146103c65761015b565b80637a00026d146103465780639fa61fa3146103665761015b565b8063696d4661116100bc578063696d4661146102f35780636a0a24f114610313578063764d6736146103335761015b565b80635cc1f6b5146102b357806366662585146102d35761015b565b8063443112931161012e5780634dd0aa49116101135780634dd0aa49146102385780635069a07c1461026657806359111fb5146102935761015b565b806344311293146101eb57806348cc49d5146102185761015b565b80630bc1c42a1461016057806311ca1ac01461018957806324b28602146101ab57806336696828146101cb575b600080fd5b61017361016e36600461194f565b6103e6565b60405161018091906121a4565b60405180910390f35b81801561019557600080fd5b506101a96101a4366004611a4c565b610483565b005b8180156101b757600080fd5b506101a96101c63660046119ea565b6104a1565b8180156101d757600080fd5b506101a96101e63660046118ca565b6104bb565b8180156101f757600080fd5b5061020b61020636600461178b565b6107da565b6040516101809190612246565b81801561022457600080fd5b506101a9610233366004611a4c565b610a3e565b81801561024457600080fd5b50610258610253366004611a91565b610aa9565b60405161018092919061205e565b81801561027257600080fd5b50610286610281366004611862565b610b4e565b6040516101809190612309565b81801561029f57600080fd5b506101a96102ae3660046119ea565b610d8f565b6102c66102c13660046117ac565b610da5565b6040516101809190612199565b8180156102df57600080fd5b506101a96102ee366004611718565b610e5e565b8180156102ff57600080fd5b506101a961030e3660046119ea565b610fad565b81801561031f57600080fd5b506101a961032e366004611a02565b610fc8565b610173610341366004611992565b610feb565b81801561035257600080fd5b506101a961036136600461178b565b611102565b610379610374366004611af6565b61115d565b6040516101809190611fe6565b81801561039257600080fd5b506101a96103a13660046119ea565b61122d565b8180156103b257600080fd5b506101a96103c13660046119ea565b6112a1565b8180156103d257600080fd5b5061020b6103e1366004611ac7565b6112b7565b6040805163856296f760e01b8152600091735fbdb2315678afecb367f032d93f642f64180aa39163856296f79161042c9190870135906060880135908790600401612230565b60206040518083038186803b15801561044457600080fd5b505afa158015610458573d6000803e3d6000fd5b505050506040513d601f19601f8201168201806040525081019061047c919061182e565b9392505050565b6005828101805460ff1916909117905561049d8282610a3e565b5050565b6005810180546003919060ff19166001835b021790555050565b60005b6104cb6080860186612397565b90508110156107d25760006105266104e288612507565b6104ef6020890189611846565b6104fc60808a018a612397565b8681811061051a57634e487b7160e01b600052603260045260246000fd5b90506020020135610feb565b905060005b61053860a0880188612397565b90508110156107bd57600061055060c0890189612397565b8581811061056e57634e487b7160e01b600052603260045260246000fd5b90506020028101906105809190612397565b8381811061059e57634e487b7160e01b600052603260045260246000fd5b9050602002013511156107ab57735fbdb2315678afecb367f032d93f642f64180aa363f242432a878760006105d660a08d018d612397565b898181106105f457634e487b7160e01b600052603260045260246000fd5b90506020028101906106069190612397565b8781811061062457634e487b7160e01b600052603260045260246000fd5b90506020020135815260200190815260200160002080546106449061253f565b80601f01602080910402602001604051908101604052809291908181526020018280546106709061253f565b80156106bd5780601f10610692576101008083540402835291602001916106bd565b820191906000526020600020905b8154815290600101906020018083116106a057829003601f168201915b50505050508060200190518101906106d591906116fc565b856106e360c08d018d612397565b8981811061070157634e487b7160e01b600052603260045260246000fd5b90506020028101906107139190612397565b8781811061073157634e487b7160e01b600052603260045260246000fd5b905060200201358960405160200161074991906121a4565b6040516020818303038152906040526040518663ffffffff1660e01b8152600401610778959493929190611ffa565b600060405180830381600087803b15801561079257600080fd5b505af11580156107a6573d6000803e3d6000fd5b505050505b806107b581612574565b91505061052b565b505080806107ca90612574565b9150506104be565b505050505050565b8154600160ff1990911681178084556040805160c08101825260ff8084161515825261010084041615156020820152620100009092046001600160a01b031690820152908301546060808301919091526002840154608083015260038401805491926000929091869160a0840191906108529061253f565b80601f016020809104026020016040519081016040528092919081815260200182805461087e9061253f565b80156108cb5780601f106108a0576101008083540402835291602001916108cb565b820191906000526020600020905b8154815290600101906020018083116108ae57829003601f168201915b505050505081525050905080602001511561099e576060810151600090815260208490526040902080546108fe9061253f565b80601f016020809104026020016040519081016040528092919081815260200182805461092a9061253f565b80156109775780601f1061094c57610100808354040283529160200191610977565b820191906000526020600020905b81548152906001019060200180831161095a57829003601f168201915b505050505080602001905181019061098f91906116fc565b6001600160a01b031660408201525b60008082604001516001600160a01b031683608001518460a001516040516109c69190611efc565b60006040518083038185875af1925050503d8060008114610a03576040519150601f19603f3d011682016040523d82523d6000602084013e610a08565b606091505b509150915081610a335760405162461bcd60e51b8152600401610a2a9061229b565b60405180910390fd5b925050505b92915050565b6001820154604051633124a62b60e21b8152735fbdb2315678afecb367f032d93f642f64180aa39163c49298ac91610a7b919085906004016121ad565b600060405180830381600087803b158015610a9557600080fd5b505af11580156107d2573d6000803e3d6000fd5b60008073e7f1725e7734ce288f8367e1bb143e90bb3f051263a4bc29c885610ad28660016124ef565b886040518463ffffffff1660e01b8152600401610af193929190612091565b602060405180830381600087803b158015610b0b57600080fd5b505af1158015610b1f573d6000803e3d6000fd5b505050506040513d601f19601f82011682018060405250810190610b4391906116fc565b958695509350505050565b610b56611481565b610b6360e08601866123de565b8484604051602001610b789493929190611fb3565b60408051601f198184030181529190528051602091820120908201526001600160a01b038416610bae5760006040820152610c4c565b604080517f84dbd3910000000000000000000000000000000000000000000000000000000081526001600160a01b038616916384dbd39191610bf691890135906004016121a4565b60206040518083038186803b158015610c0e57600080fd5b505afa158015610c22573d6000803e3d6000fd5b505050506040513d601f19601f82011682018060405250810190610c46919061182e565b60408201525b6020808201516040517f852c6ae2000000000000000000000000000000000000000000000000000000008152735fbdb2315678afecb367f032d93f642f64180aa39263852c6ae292610ca69288928b01359060040161203d565b60206040518083038186803b158015610cbe57600080fd5b505afa158015610cd2573d6000803e3d6000fd5b505050506040513d601f19601f82011682018060405250810190610cf6919061182e565b60608201526020808201516040517fd96ee754000000000000000000000000000000000000000000000000000000008152735fbdb2315678afecb367f032d93f642f64180aa39263d96ee75492610d559288928b01359060040161203d565b600060405180830381600087803b158015610d6f57600080fd5b505af1158015610d83573d6000803e3d6000fd5b50505050949350505050565b6005810180546002919060ff19166001836104b3565b6000805b83811015610e5357848482818110610dd157634e487b7160e01b600052603260045260246000fd5b9050602002810190610de39190612423565b610df49060408101906020016117f6565b8015610e32575082858583818110610e1c57634e487b7160e01b600052603260045260246000fd5b9050602002810190610e2e9190612423565b3514155b15610e4157600091505061047c565b80610e4b81612574565b915050610da9565b506001949350505050565b6001600160a01b038316610f1257610e796020830183611846565b6001600160a01b031663095ea7b3735fbdb2315678afecb367f032d93f642f64180aa384606001356040518363ffffffff1660e01b8152600401610ebe929190612078565b602060405180830381600087803b158015610ed857600080fd5b505af1158015610eec573d6000803e3d6000fd5b505050506040513d601f19601f82011682018060405250810190610f109190611812565b505b735fbdb2315678afecb367f032d93f642f64180aa36372ce4275610f396020850185611846565b60408401356060850135610f506080880188612397565b88606001356040518763ffffffff1660e01b8152600401610f7696959493929190612259565b600060405180830381600087803b158015610f9057600080fd5b505af1158015610fa4573d6000803e3d6000fd5b50505050505050565b60058101805460ff19166006179055610fc58161122d565b50565b60058301805460ff19166002179055610fe56004840183836114b3565b50505050565b6040808401516060850151915163856296f760e01b8152600092735fbdb2315678afecb367f032d93f642f64180aa39283926339dd7530928892859263856296f79261103c92918b90600401612230565b60206040518083038186803b15801561105457600080fd5b505afa158015611068573d6000803e3d6000fd5b505050506040513d601f19601f8201168201806040525081019061108c919061182e565b6040518363ffffffff1660e01b81526004016110a9929190612078565b60206040518083038186803b1580156110c157600080fd5b505afa1580156110d5573d6000803e3d6000fd5b505050506040513d601f19601f820116820180604052508101906110f9919061182e565b95945050505050565b60005b82548110156111585761114583828154811061113157634e487b7160e01b600052603260045260246000fd5b9060005260206000209060040201836107da565b508061115081612574565b915050611105565b505050565b60008186141561116e5750836110f9565b818610156111f957604051631c1bd82f60e11b81526001600160a01b03851690633837b05e906111a29089906004016121a4565b60206040518083038186803b1580156111ba57600080fd5b505afa1580156111ce573d6000803e3d6000fd5b505050506040513d601f19601f820116820180604052508101906111f291906116fc565b90506110f9565b818611156110f957604051631c1bd82f60e11b81526001600160a01b03841690633837b05e906111a29089906004016121a4565b6001810154604051633124a62b60e21b8152735fbdb2315678afecb367f032d93f642f64180aa39163c49298ac9161126c9190600480870191016121ed565b600060405180830381600087803b15801561128657600080fd5b505af115801561129a573d6000803e3d6000fd5b5050505050565b6005810180546004919060ff19166001836104b3565b81546060908360006112c883612574565b90915550506001830154610100900460ff166113ec576003830154604051631c1bd82f60e11b81526000916001600160a01b03851691633837b05e91611310916004016121a4565b60206040518083038186803b15801561132857600080fd5b505afa15801561133c573d6000803e3d6000fd5b505050506040513d601f19601f8201168201806040525081019061136091906116fc565b9050600080826001600160a01b0316866004016040516113809190611f18565b600060405180830381855afa9150503d80600081146113bb576040519150601f19603f3d011682016040523d82523d6000602084013e6113c0565b606091505b5091509150816113e25760405162461bcd60e51b8152600401610a2a906122d2565b9250610a38915050565b8260040180546113fb9061253f565b80601f01602080910402602001604051908101604052809291908181526020018280546114279061253f565b80156114745780601f1061144957610100808354040283529160200191611474565b820191906000526020600020905b81548152906001019060200180831161145757829003601f168201915b5050505050905092915050565b6040805160c081018252600080825260208201819052918101829052606080820183905260808201529060a082015290565b8280548282559060005260206000209081019282156114ee579160200282015b828111156114ee5782358255916020019190600101906114d3565b506114fa9291506114fe565b5090565b5b808211156114fa57600081556001016114ff565b803561151e816125bb565b919050565b60008083601f840112611534578182fd5b50813567ffffffffffffffff81111561154b578182fd5b602083019150836020808302850101111561156557600080fd5b9250929050565b600082601f83011261157c578081fd5b8135602067ffffffffffffffff80831115611599576115996125a5565b818302604051838282010181811084821117156115b8576115b86125a5565b604052848152838101925086840182880185018910156115d6578687fd5b8692505b858310156115f85780358452928401926001929092019184016115da565b50979650505050505050565b803561151e816125d0565b80356007811061151e57600080fd5b60006101008284031215611630578081fd5b50919050565b600060c08284031215611630578081fd5b600060c08284031215611658578081fd5b60405160c0810167ffffffffffffffff828210818311171561167c5761167c6125a5565b8160405282935061168c85611513565b835260208501356020840152604085013560408401526060850135606084015260808501359150808211156116c057600080fd5b506116cd8582860161156c565b6080830152506116df60a0840161160f565b60a08201525092915050565b803560ff8116811461151e57600080fd5b60006020828403121561170d578081fd5b815161047c816125bb565b60008060006060848603121561172c578182fd5b8335611737816125bb565b9250602084013567ffffffffffffffff80821115611753578384fd5b61175f8783880161161e565b93506040860135915080821115611774578283fd5b5061178186828701611636565b9150509250925092565b6000806040838503121561179d578182fd5b50508035926020909101359150565b6000806000604084860312156117c0578081fd5b833567ffffffffffffffff8111156117d6578182fd5b6117e286828701611523565b909790965060209590950135949350505050565b600060208284031215611807578081fd5b813561047c816125d0565b600060208284031215611823578081fd5b815161047c816125d0565b60006020828403121561183f578081fd5b5051919050565b600060208284031215611857578081fd5b813561047c816125bb565b60008060008060808587031215611877578182fd5b843567ffffffffffffffff81111561188d578283fd5b6118998782880161161e565b94505060208501356118aa816125bb565b925060408501356118ba816125bb565b9396929550929360600135925050565b600080600080600060a086880312156118e1578283fd5b853567ffffffffffffffff808211156118f8578485fd5b61190489838a01611636565b96506020880135915080821115611919578485fd5b506119268882890161161e565b9450506040860135611937816125bb565b94979396509394606081013594506080013592915050565b60008060408385031215611961578182fd5b823567ffffffffffffffff811115611977578283fd5b61198385828601611636565b95602094909401359450505050565b6000806000606084860312156119a6578081fd5b833567ffffffffffffffff8111156119bc578182fd5b6119c886828701611647565b93505060208401356119d9816125bb565b929592945050506040919091013590565b6000602082840312156119fb578081fd5b5035919050565b600080600060408486031215611a16578081fd5b83359250602084013567ffffffffffffffff811115611a33578182fd5b611a3f86828701611523565b9497909650939450505050565b60008060408385031215611a5e578182fd5b82359150602083013567ffffffffffffffff811115611a7b578182fd5b611a878582860161156c565b9150509250929050565b600080600060608486031215611aa5578081fd5b833567ffffffffffffffff811115611abb578182fd5b6119c88682870161161e565b60008060408385031215611ad9578182fd5b823591506020830135611aeb816125bb565b809150509250929050565b600080600080600060a08688031215611b0d578283fd5b853594506020860135611b1f816125bb565b93506040860135611b2f816125bb565b92506060860135611b3f816125bb565b949793965091946080013592915050565b6001600160a01b03169052565b818352602080840193600091908185020181018584845b87811015611baa578284038952611b8b8288612444565b611b96868284611d5f565b9a87019a9550505090840190600101611b74565b5091979650505050505050565b60008284526020808501945084818502860184845b87811015611c79578383038952813560be19883603018112611bec578687fd5b870160c08135611bfb816125d0565b1515855281870135611c0c816125d0565b1515858801526040611c1f838201611513565b611c2b82880182611b50565b5050606082810135908601526080808301359086015260a0611c4f8184018461248c565b93508282880152611c638388018583611db2565b9c89019c96505050928601925050600101611bcc565b5090979650505050505050565b60008284526020808501945084818502860184845b87811015611c79578383038952813560de19883603018112611cbb578687fd5b87018035845260e086820135611cd0816125d0565b611cdc88870182611dac565b506040611cea818401611604565b611cf682880182611dac565b50506060611d058184016116eb565b611d1182880182611ef5565b50506080828101359086015260a0808301359086015260c0611d358184018461248c565b93508282880152611d498388018583611db2565b9c89019c96505050928601925050600101611c9b565b60008284527f07ffffffffffffffffffffffffffffffffffffffffffffffffffffffffffffff831115611d90578081fd5b6020830280836020870137939093016020019283525090919050565b15159052565b60008284528282602086013780602084860101526020601f19601f85011685010190509392505050565b60008151808452611df4816020860160208601612513565b601f01601f19169290920160200192915050565b60078110611e2657634e487b7160e01b600052602160045260246000fd5b9052565b6000610100611e4184611e3c85611513565b611b50565b602083013560208501526040830135604085015260608301356060850152611e6c6080840184612444565b826080870152611e7f8387018284611d5f565b92505050611e9060a0840184612444565b85830360a0870152611ea3838284611b5d565b92505050611eb460c0840184612444565b85830360c0870152611ec7838284611b5d565b92505050611ed860e084018461248c565b85830360e0870152611eeb838284611db2565b9695505050505050565b60ff169052565b60008251611f0e818460208701612513565b9190910192915050565b8154600090819060028104600180831680611f3457607f831692505b6020808410821415611f5457634e487b7160e01b87526022600452602487fd5b818015611f685760018114611f7957611fa5565b60ff19861689528489019650611fa5565b611f828a612438565b885b86811015611f9d5781548b820152908501908301611f84565b505084890196505b509498975050505050505050565b6000848683375060609290921b6bffffffffffffffffffffffff1916919092019081526014810191909152603401919050565b6001600160a01b0391909116815260200190565b60006001600160a01b03808816835280871660208401525084604083015283606083015260a0608083015261203260a0830184611ddc565b979650505050505050565b6001600160a01b039390931683526020830191909152604082015260600190565b6001600160a01b0392831681529116602082015260400190565b6001600160a01b03929092168252602082015260400190565b60006001600160a01b0385168252836020830152606060408301526120bc60608301611e3c85611513565b6120c860208401611513565b6120d56080840182611b50565b506120e260408401611513565b6120ef60a0840182611b50565b50606083013560c0830152612107608084018461248c565b6101008060e086015261211f61016086018385611db2565b925061212e60a0870187612444565b9250605f19808786030183880152612147858584611c86565b945061215660c0890189612444565b945092508087860301610120880152612170858585611bb7565b945061217f60e08901896124d1565b935080878603016101408801525050506120328282611e2a565b901515815260200190565b90815260200190565b60006040820184835260206040818501528185518084526060860191508287019350845b81811015611c79578451835293830193918301916001016121d1565b60006040820184835260206040818501528185548084526060860191508685528285209350845b81811015611c7957845483526001948501949284019201612214565b9283526020830191909152604082015260600190565b60006020825261047c6020830184611ddc565b60006001600160a01b038816825286602083015285604083015260a0606083015261228860a083018587611d5f565b9050826080830152979650505050505050565b6020808252600c908201527f63616c6c206661696c7572650000000000000000000000000000000000000000604082015260600190565b60208082526018908201527f496e676573742073746174696363616c6c206661696c65640000000000000000604082015260600190565b6000602080835260e083016001600160a01b03855116828501528185015160408501526040850151606085015260608501516080850152608085015160c060a08601528181518084526101008701915084830193508592505b808310156123825783518252928401926001929092019190840190612362565b5060a08701519350611eeb60c0870185611e08565b6000808335601e198436030181126123ad578283fd5b83018035915067ffffffffffffffff8211156123c7578283fd5b602090810192508102360382131561156557600080fd5b6000808335601e198436030181126123f4578283fd5b83018035915067ffffffffffffffff82111561240e578283fd5b60200191503681900382131561156557600080fd5b6000823560de19833603018112611f0e578182fd5b60009081526020902090565b6000808335601e1984360301811261245a578283fd5b830160208101925035905067ffffffffffffffff81111561247a57600080fd5b60208102360383131561156557600080fd5b6000808335601e198436030181126124a2578283fd5b830160208101925035905067ffffffffffffffff8111156124c257600080fd5b80360383131561156557600080fd5b6000823560fe198336030181126124e6578182fd5b90910192915050565b600082198211156125025761250261258f565b500190565b6000610a383683611647565b60005b8381101561252e578181015183820152602001612516565b83811115610fe55750506000910152565b60028104600182168061255357607f821691505b6020821081141561163057634e487b7160e01b600052602260045260246000fd5b60006000198214156125885761258861258f565b5060010190565b634e487b7160e01b600052601160045260246000fd5b634e487b7160e01b600052604160045260246000fd5b6001600160a01b0381168114610fc557600080fd5b8015158114610fc557600080fdfea2646970667358221220fbdee13e6637319f16db24df645764c5d6869ab1bb9f2b1225db47c23b2ef6a864736f6c63430008000033",
  "linkReferences": {},
  "deployedLinkReferences": {}
}