{
  "_format": "hh-sol-artifact-1",
  "contractName": "SolverLib",
  "sourceName": "contracts/SolverLib.sol",
  "abi": [
    {
      "inputs": [
        {
          "components": [
            {
              "internalType": "contract IERC20",
              "name": "collateralToken",
              "type": "IERC20"
            },
            {
              "internalType": "bytes32",
              "name": "questionId",
              "type": "bytes32"
            },
            {
              "internalType": "bytes32",
              "name": "parentCollectionId",
              "type": "bytes32"
            },
            {
              "internalType": "bytes32",
              "name": "conditionId",
              "type": "bytes32"
            },
            {
              "internalType": "uint256[]",
              "name": "payouts",
              "type": "uint256[]"
            },
            {
              "internalType": "enum SolverLib.Status",
              "name": "status",
              "type": "SolverLib.Status"
            }
          ],
          "internalType": "struct SolverLib.Condition",
          "name": "condition",
          "type": "tuple"
        },
        {
          "internalType": "uint256",
          "name": "partition",
          "type": "uint256"
        }
      ],
      "name": "getCollectionId",
      "outputs": [
        {
          "internalType": "bytes32",
          "name": "collectionId",
          "type": "bytes32"
        }
      ],
      "stateMutability": "view",
      "type": "function"
    },
    {
      "inputs": [
        {
          "components": [
            {
              "internalType": "contract IERC20",
              "name": "collateralToken",
              "type": "IERC20"
            },
            {
              "internalType": "bytes32",
              "name": "questionId",
              "type": "bytes32"
            },
            {
              "internalType": "bytes32",
              "name": "parentCollectionId",
              "type": "bytes32"
            },
            {
              "internalType": "bytes32",
              "name": "conditionId",
              "type": "bytes32"
            },
            {
              "internalType": "uint256[]",
              "name": "payouts",
              "type": "uint256[]"
            },
            {
              "internalType": "enum SolverLib.Status",
              "name": "status",
              "type": "SolverLib.Status"
            }
          ],
          "internalType": "struct SolverLib.Condition",
          "name": "condition",
          "type": "tuple"
        },
        {
          "internalType": "contract IERC20",
          "name": "collateralToken",
          "type": "IERC20"
        },
        {
          "internalType": "uint256",
          "name": "partition",
          "type": "uint256"
        }
      ],
      "name": "getPositionId",
      "outputs": [
        {
          "internalType": "uint256",
          "name": "positionId",
          "type": "uint256"
        }
      ],
      "stateMutability": "view",
      "type": "function"
    },
    {
      "inputs": [
        {
          "components": [
            {
              "internalType": "uint256",
              "name": "executions",
              "type": "uint256"
            },
            {
              "internalType": "enum SolverLib.IngestType",
              "name": "ingestType",
              "type": "SolverLib.IngestType"
            },
            {
              "internalType": "uint256",
              "name": "slot",
              "type": "uint256"
            },
            {
              "internalType": "uint256",
              "name": "solverIndex",
              "type": "uint256"
            },
            {
              "internalType": "bytes",
              "name": "data",
              "type": "bytes"
            }
          ],
          "internalType": "struct SolverLib.Ingest[]",
          "name": "ingests",
          "type": "tuple[]"
        },
        {
          "internalType": "uint256",
          "name": "conditionVer",
          "type": "uint256"
        }
      ],
      "name": "ingestsValid",
      "outputs": [
        {
          "internalType": "bool",
          "name": "",
          "type": "bool"
        }
      ],
      "stateMutability": "pure",
      "type": "function"
    },
    {
      "inputs": [
        {
          "internalType": "uint256",
          "name": "x",
          "type": "uint256"
        },
        {
          "internalType": "uint256",
          "name": "y",
          "type": "uint256"
        },
        {
          "internalType": "uint128",
          "name": "scale",
          "type": "uint128"
        }
      ],
      "name": "mulScale",
      "outputs": [
        {
          "internalType": "uint256",
          "name": "",
          "type": "uint256"
        }
      ],
      "stateMutability": "pure",
      "type": "function"
    }
  ],
  "bytecode": "0x61264d61003a600b82828239805160001a60731461002d57634e487b7160e01b600052600060045260246000fd5b30600052607381538281f3fe73000000000000000000000000000000000000000030146080604052600436106101255760003560e01c806362dae736116100bc578063b1adb6f61161008b578063b89c10e711610070578063b89c10e714610310578063ddc2f15514610330578063ec7ac2f01461034357610125565b8063b1adb6f6146102d0578063b3d73707146102e357610125565b806362dae73614610243578063696d4661146102705780636a0a24f114610290578063764d6736146102b057610125565b806348cc49d5116100f857806348cc49d5146101ac5780634dd0aa49146101cc57806359111fb5146102035780635cc1f6b51461022357610125565b806311ca1ac01461012a5780631e85323f1461014c57806324b286021461016c578063366968281461018c575b600080fd5b81801561013657600080fd5b5061014a610145366004611a7d565b610363565b005b81801561015857600080fd5b5061014a610167366004611697565b610381565b81801561017857600080fd5b5061014a610187366004611a1b565b6104c9565b81801561019857600080fd5b5061014a6101a736600461191d565b6104e3565b8180156101b857600080fd5b5061014a6101c7366004611a7d565b610a5e565b8180156101d857600080fd5b506101ec6101e7366004611ac2565b610ad1565b6040516101fa929190611faf565b60405180910390f35b81801561020f57600080fd5b5061014a61021e366004611a1b565b610b76565b610236610231366004611827565b610b8c565b6040516101fa9190612102565b81801561024f57600080fd5b5061026361025e3660046118c5565b610bfa565b6040516101fa9190612253565b81801561027c57600080fd5b5061014a61028b366004611a1b565b610ea0565b81801561029c57600080fd5b5061014a6102ab366004611a33565b610ebb565b6102c36102be3660046119a2565b610ede565b6040516101fa919061210d565b6102c36102de3660046119d8565b610ff5565b8180156102ef57600080fd5b506103036102fe366004611a1b565b61108a565b6040516101fa9190612190565b81801561031c57600080fd5b5061014a61032b366004611a1b565b611280565b6102c361033e366004611b0d565b6112f4565b81801561034f57600080fd5b5061014a61035e366004611a1b565b6113cb565b6005828101805460ff1916909117905561037d8282610a5e565b5050565b6001600160a01b0384166104315761039c60208401846118a9565b6001600160a01b031663095ea7b3735fbdb2315678afecb367f032d93f642f64180aa3836040518363ffffffff1660e01b81526004016103dd929190611fc9565b602060405180830381600087803b1580156103f757600080fd5b505af115801561040b573d6000803e3d6000fd5b505050506040513d601f19601f8201168201806040525081019061042f9190611871565b505b735fbdb2315678afecb367f032d93f642f64180aa36372ce427561045860208601866118a9565b6040850135606086013561046f60808901896122e1565b876040518763ffffffff1660e01b8152600401610491969594939291906121a3565b600060405180830381600087803b1580156104ab57600080fd5b505af11580156104bf573d6000803e3d6000fd5b5050505050505050565b6005810180546003919060ff19166001835b021790555050565b60006104f260808601866122e1565b905067ffffffffffffffff81111561051a57634e487b7160e01b600052604160045260246000fd5b604051908082528060200260200182016040528015610543578160200160208202803683370190505b509050600061055560a08701876122e1565b905067ffffffffffffffff81111561057d57634e487b7160e01b600052604160045260246000fd5b6040519080825280602002602001820160405280156105b057816020015b606081526020019060019003908161059b5790505b50905060005b6105c360808801886122e1565b90508110156106595761061c6105d88961253d565b6105e560208a018a6118a9565b6105f260808b018b6122e1565b8581811061061057634e487b7160e01b600052603260045260246000fd5b90506020020135610ede565b83828151811061063c57634e487b7160e01b600052603260045260246000fd5b60209081029190910101528061065181612584565b9150506105b6565b5060005b61066a60a08801886122e1565b905081101561089c5761068060808801886122e1565b905067ffffffffffffffff8111156106a857634e487b7160e01b600052604160045260246000fd5b6040519080825280602002602001820160405280156106d1578160200160208202803683370190505b508282815181106106f257634e487b7160e01b600052603260045260246000fd5b602002602001018190525060005b61070d60808901896122e1565b90508110156108895785600061072660c08b018b6122e1565b8481811061074457634e487b7160e01b600052603260045260246000fd5b905060200281019061075691906122e1565b8581811061077457634e487b7160e01b600052603260045260246000fd5b90506020020135815260200190815260200160002080546107949061254f565b80601f01602080910402602001604051908101604052809291908181526020018280546107c09061254f565b801561080d5780601f106107e25761010080835404028352916020019161080d565b820191906000526020600020905b8154815290600101906020018083116107f057829003601f168201915b50505050508060200190518101906108259190611891565b83838151811061084557634e487b7160e01b600052603260045260246000fd5b6020026020010151828151811061086c57634e487b7160e01b600052603260045260246000fd5b60209081029190910101528061088181612584565b915050610700565b508061089481612584565b91505061065d565b5060005b6108ad60a08801886122e1565b90508110156104bf57735fbdb2315678afecb367f032d93f642f64180aa3632eb2c2d6878760006108e160a08d018d6122e1565b878181106108ff57634e487b7160e01b600052603260045260246000fd5b905060200201358152602001908152602001600020805461091f9061254f565b80601f016020809104026020016040519081016040528092919081815260200182805461094b9061254f565b80156109985780601f1061096d57610100808354040283529160200191610998565b820191906000526020600020905b81548152906001019060200180831161097b57829003601f168201915b50505050508060200190518101906109b0919061167b565b868686815181106109d157634e487b7160e01b600052603260045260246000fd5b6020026020010151896040516020016109ea919061210d565b6040516020818303038152906040526040518663ffffffff1660e01b8152600401610a19959493929190611f3c565b600060405180830381600087803b158015610a3357600080fd5b505af1158015610a47573d6000803e3d6000fd5b505050508080610a5690612584565b9150506108a0565b6001820154604051633124a62b60e21b8152735fbdb2315678afecb367f032d93f642f64180aa39163c49298ac91610a9b91908590600401612116565b600060405180830381600087803b158015610ab557600080fd5b505af1158015610ac9573d6000803e3d6000fd5b505050505050565b60008073e7f1725e7734ce288f8367e1bb143e90bb3f0512630df362b485610afa8660016124db565b886040518463ffffffff1660e01b8152600401610b1993929190611fe2565b602060405180830381600087803b158015610b3357600080fd5b505af1158015610b47573d6000803e3d6000fd5b505050506040513d601f19601f82011682018060405250810190610b6b919061167b565b958695509350505050565b6005810180546002919060ff19166001836104db565b6000805b83811015610bed5782858583818110610bb957634e487b7160e01b600052603260045260246000fd5b9050602002810190610bcb919061236f565b3514610bdb576000915050610bf3565b80610be581612584565b915050610b90565b50600190505b9392505050565b610c026113e1565b610c0f60e0850185612328565b3084604051602001610c2494939291906120d2565b60408051601f198184030181529190528051602091820120908201526001600160a01b038316610c5a5760006040820152610d46565b6000836001600160a01b0316637c1236276040518163ffffffff1660e01b815260040160006040518083038186803b158015610c9557600080fd5b505afa158015610ca9573d6000803e3d6000fd5b505050506040513d6000823e601f3d908101601f19168201604052610cd19190810190611712565b90506000815111610cfd5760405162461bcd60e51b8152600401610cf4906121e5565b60405180910390fd5b610d3f8160018351610d0f9190612526565b81518110610d2d57634e487b7160e01b600052603260045260246000fd5b60200260200101518660400135610ff5565b6040830152505b6020808201516040517f852c6ae2000000000000000000000000000000000000000000000000000000008152735fbdb2315678afecb367f032d93f642f64180aa39263852c6ae292610da09230928a013590600401611f8e565b60206040518083038186803b158015610db857600080fd5b505afa158015610dcc573d6000803e3d6000fd5b505050506040513d601f19601f82011682018060405250810190610df09190611891565b6060820152610e0260208501856118a9565b6001600160a01b031681526020808201516040517fd96ee754000000000000000000000000000000000000000000000000000000008152735fbdb2315678afecb367f032d93f642f64180aa39263d96ee75492610e679230928a013590600401611f8e565b600060405180830381600087803b158015610e8157600080fd5b505af1158015610e95573d6000803e3d6000fd5b505050509392505050565b60058101805460ff19166006179055610eb881611280565b50565b60058301805460ff19166002179055610ed8600484018383611413565b50505050565b6040808401516060850151915163856296f760e01b8152600092735fbdb2315678afecb367f032d93f642f64180aa39283926339dd7530928892859263856296f792610f2f92918b9060040161217a565b60206040518083038186803b158015610f4757600080fd5b505afa158015610f5b573d6000803e3d6000fd5b505050506040513d601f19601f82011682018060405250810190610f7f9190611891565b6040518363ffffffff1660e01b8152600401610f9c929190611fc9565b60206040518083038186803b158015610fb457600080fd5b505afa158015610fc8573d6000803e3d6000fd5b505050506040513d601f19601f82011682018060405250810190610fec9190611891565b95945050505050565b6040808301516060840151915163856296f760e01b8152600092735fbdb2315678afecb367f032d93f642f64180aa39263856296f79261103a9290879060040161217a565b60206040518083038186803b15801561105257600080fd5b505afa158015611066573d6000803e3d6000fd5b505050506040513d601f19601f82011682018060405250810190610bf39190611891565b805460609082600061109b83612584565b909155505060018281015460ff1660028111156110c857634e487b7160e01b600052602160045260246000fd5b146111eb5760038201546040517f3837b05e0000000000000000000000000000000000000000000000000000000081526000913091633837b05e9161110f9160040161210d565b60206040518083038186803b15801561112757600080fd5b505afa15801561113b573d6000803e3d6000fd5b505050506040513d601f19601f8201168201806040525081019061115f919061167b565b9050600080826001600160a01b03168560040160405161117f9190611ea1565b600060405180830381855afa9150503d80600081146111ba576040519150601f19603f3d011682016040523d82523d6000602084013e6111bf565b606091505b5091509150816111e15760405162461bcd60e51b8152600401610cf49061221c565b925061127b915050565b8160040180546111fa9061254f565b80601f01602080910402602001604051908101604052809291908181526020018280546112269061254f565b80156112735780601f1061124857610100808354040283529160200191611273565b820191906000526020600020905b81548152906001019060200180831161125657829003601f168201915b505050505090505b919050565b6001810154604051633124a62b60e21b8152735fbdb2315678afecb367f032d93f642f64180aa39163c49298ac916112bf919060048087019101612137565b600060405180830381600087803b1580156112d957600080fd5b505af11580156112ed573d6000803e3d6000fd5b5050505050565b60008061130a6001600160801b038416866124f3565b905060006113216001600160801b0385168761259f565b905060006113386001600160801b038616876124f3565b9050600061134f6001600160801b0387168861259f565b90506001600160801b0386166113658285612507565b61136f91906124f3565b6113798385612507565b6113838387612507565b6001600160801b0389166113978689612507565b6113a19190612507565b6113ab91906124db565b6113b591906124db565b6113bf91906124db565b98975050505050505050565b6005810180546004919060ff19166001836104db565b6040805160c081018252600080825260208201819052918101829052606080820183905260808201529060a082015290565b82805482825590600052602060002090810192821561144e579160200282015b8281111561144e578235825591602001919060010190611433565b5061145a92915061145e565b5090565b5b8082111561145a576000815560010161145f565b803561127b816125f5565b60008083601f84011261148f578182fd5b50813567ffffffffffffffff8111156114a6578182fd5b60208301915083602080830285010111156114c057600080fd5b9250929050565b600082601f8301126114d7578081fd5b813560206114ec6114e7836123b8565b61238e565b8281528181019085830183850287018401881015611508578586fd5b855b858110156115265781358452928401929084019060010161150a565b5090979650505050505050565b600082601f830112611543578081fd5b815160206115536114e7836123b8565b828152818101908583018385028701840188101561156f578586fd5b855b8581101561152657815184529284019290840190600101611571565b805161127b816125f5565b803561127b8161260a565b805161127b8161260a565b600061010082840312156115c0578081fd5b50919050565b600060c082840312156115c0578081fd5b600060c082840312156115e8578081fd5b60405160c0810167ffffffffffffffff828210818311171561160c5761160c6125df565b8160405282935061161c85611473565b8352602085013560208401526040850135604084015260608501356060840152608085013591508082111561165057600080fd5b5061165d858286016114c7565b60808301525061166f60a08401611598565b60a08201525092915050565b60006020828403121561168c578081fd5b8151610bf3816125f5565b600080600080608085870312156116ac578283fd5b84356116b7816125f5565b9350602085013567ffffffffffffffff808211156116d3578485fd5b6116df888389016115ae565b945060408701359150808211156116f4578384fd5b50611701878288016115c6565b949793965093946060013593505050565b60006020808385031215611724578182fd5b825167ffffffffffffffff8082111561173b578384fd5b818501915085601f83011261174e578384fd5b815161175c6114e7826123b8565b81815284810190848601875b84811015611818578151870160c080601f19838f03011215611788578a8bfd5b604080518281018181108b821117156117a3576117a36125df565b82526117b0848d0161158d565b8152818401518c8201526060840151828201526080840151606082015260a08401519150898211156117e0578c8dfd5b6117ee8f8d84870101611533565b60808201526117fe8385016115a3565b60a082015287525050509287019290870190600101611768565b50909998505050505050505050565b60008060006040848603121561183b578081fd5b833567ffffffffffffffff811115611851578182fd5b61185d8682870161147e565b909790965060209590950135949350505050565b600060208284031215611882578081fd5b81518015158114610bf3578182fd5b6000602082840312156118a2578081fd5b5051919050565b6000602082840312156118ba578081fd5b8135610bf3816125f5565b6000806000606084860312156118d9578081fd5b833567ffffffffffffffff8111156118ef578182fd5b6118fb868287016115ae565b935050602084013561190c816125f5565b929592945050506040919091013590565b600080600080600060a08688031215611934578283fd5b853567ffffffffffffffff8082111561194b578485fd5b61195789838a016115c6565b9650602088013591508082111561196c578485fd5b50611979888289016115ae565b945050604086013561198a816125f5565b94979396509394606081013594506080013592915050565b6000806000606084860312156119b6578081fd5b833567ffffffffffffffff8111156119cc578182fd5b6118fb868287016115d7565b600080604083850312156119ea578182fd5b823567ffffffffffffffff811115611a00578283fd5b611a0c858286016115d7565b95602094909401359450505050565b600060208284031215611a2c578081fd5b5035919050565b600080600060408486031215611a47578081fd5b83359250602084013567ffffffffffffffff811115611a64578182fd5b611a708682870161147e565b9497909650939450505050565b60008060408385031215611a8f578182fd5b82359150602083013567ffffffffffffffff811115611aac578182fd5b611ab8858286016114c7565b9150509250929050565b600080600060608486031215611ad6578081fd5b833567ffffffffffffffff811115611aec578182fd5b840160e08187031215611afd578182fd5b9250602084013561190c816125f5565b600080600060608486031215611b21578081fd5b833592506020840135915060408401356001600160801b0381168114611b45578182fd5b809150509250925092565b6001600160a01b03169052565b818352602080840193600091908185020181018584845b87811015611baa578284038952611b8b82886123e8565b611b96868284611cc3565b9a87019a9550505090840190600101611b74565b5091979650505050505050565b818352602080840193600091908185020181018584845b87811015611baa5782840389528135609e19883603018112611bee578687fd5b87018035855260a08682013560038110611c06578889fd5b8688015260408281013590870152606080830135908701526080611c2c81840184612478565b93508282890152611c408389018583611d3f565b9c89019c97505050928601925050600101611bce565b60008284526020808501945082825b85811015611cb857813587528282013560ff808216808314611c85578687fd5b89860152604091508382013590811690818114611ca0578687fd5b50908801526060968701969190910190600101611c65565b509495945050505050565b60008284527f07ffffffffffffffffffffffffffffffffffffffffffffffffffffffffffffff831115611cf4578081fd5b6020830280836020870137939093016020019283525090919050565b6000815180845260208085019450808401835b83811015611cb857815187529582019590820190600101611d23565b60008284528282602086013780602084860101526020601f19601f85011685010190509392505050565b60008151808452815b81811015611d8e57602081850181015186830182015201611d72565b81811115611d9f5782602083870101525b50601f01601f19169290920160200192915050565b60078110611dd257634e487b7160e01b600052602160045260246000fd5b9052565b6000610100611ded84611de885611473565b611b50565b602083013560208501526040830135604085015260608301356060850152611e1860808401846123e8565b826080870152611e2b8387018284611cc3565b92505050611e3c60a08401846123e8565b85830360a0870152611e4f838284611cc3565b92505050611e6060c08401846123e8565b85830360c0870152611e73838284611b5d565b92505050611e8460e0840184612430565b85830360e0870152611e97838284611c56565b9695505050505050565b8154600090819060028104600180831680611ebd57607f831692505b6020808410821415611edd57634e487b7160e01b87526022600452602487fd5b818015611ef15760018114611f0257611f2e565b60ff19861689528489019650611f2e565b611f0b8a6123dc565b885b86811015611f265781548b820152908501908301611f0d565b505084890196505b509498975050505050505050565b60006001600160a01b03808816835280871660208401525060a06040830152611f6860a0830186611d10565b8281036060840152611f7a8186611d10565b905082810360808401526113bf8185611d69565b6001600160a01b039390931683526020830191909152604082015260600190565b6001600160a01b0392831681529116602082015260400190565b6001600160a01b03929092168252602082015260400190565b60006001600160a01b0385168252836020830152606060408301528235612008816125f5565b6120156060840182611b50565b5061202260208401611473565b61202f6080840182611b50565b5061203c60408401611473565b61204960a0840182611b50565b50606083013560c08301526120616080840184612478565b60e08085015261207661014085018284611d3f565b91505061208660a08501856123e8565b605f19808685030161010087015261209f848385611bb7565b93506120ae60c08801886124bd565b9250808685030161012087015250506120c78282611dd6565b979650505050505050565b6000606082526120e6606083018688611c56565b6001600160a01b03949094166020830152506040015292915050565b901515815260200190565b90815260200190565b60008382526040602083015261212f6040830184611d10565b949350505050565b60006040820184835260206040818501528185548084526060860191508685528285209350845b818110156115265784548352600194850194928401920161215e565b9283526020830191909152604082015260600190565b600060208252610bf36020830184611d69565b60006001600160a01b038816825286602083015285604083015260a060608301526121d260a083018587611cc3565b9050826080830152979650505050505050565b60208082526018908201527f506172656e7420686173206e6f20636f6e646974696f6e730000000000000000604082015260600190565b60208082526018908201527f496e676573742073746174696363616c6c206661696c65640000000000000000604082015260600190565b6000602080835260e083016001600160a01b03855116828501528185015160408501526040850151606085015260608501516080850152608085015160c060a08601528181518084526101008701915084830193508592505b808310156122cc57835182529284019260019290920191908401906122ac565b5060a08701519350611e9760c0870185611db4565b6000808335601e198436030181126122f7578283fd5b83018035915067ffffffffffffffff821115612311578283fd5b60209081019250810236038213156114c057600080fd5b6000808335601e1984360301811261233e578283fd5b83018035915067ffffffffffffffff821115612358578283fd5b60200191506060810236038213156114c057600080fd5b60008235609e19833603018112612384578182fd5b9190910192915050565b60405181810167ffffffffffffffff811182821017156123b0576123b06125df565b604052919050565b600067ffffffffffffffff8211156123d2576123d26125df565b5060209081020190565b60009081526020902090565b6000808335601e198436030181126123fe578283fd5b830160208101925035905067ffffffffffffffff81111561241e57600080fd5b6020810236038313156114c057600080fd5b6000808335601e19843603018112612446578283fd5b830160208101925035905067ffffffffffffffff81111561246657600080fd5b6060810236038313156114c057600080fd5b6000808335601e1984360301811261248e578283fd5b830160208101925035905067ffffffffffffffff8111156124ae57600080fd5b8036038313156114c057600080fd5b6000823560fe198336030181126124d2578182fd5b90910192915050565b600082198211156124ee576124ee6125b3565b500190565b600082612502576125026125c9565b500490565b6000816000190483118215151615612521576125216125b3565b500290565b600082821015612538576125386125b3565b500390565b600061254936836115d7565b92915050565b60028104600182168061256357607f821691505b602082108114156115c057634e487b7160e01b600052602260045260246000fd5b6000600019821415612598576125986125b3565b5060010190565b6000826125ae576125ae6125c9565b500690565b634e487b7160e01b600052601160045260246000fd5b634e487b7160e01b600052601260045260246000fd5b634e487b7160e01b600052604160045260246000fd5b6001600160a01b0381168114610eb857600080fd5b60078110610eb857600080fdfea2646970667358221220e5708f09a3eb9b58ba9de1b784f08858cdfcb38a98b9951275718b74ce228b0464736f6c63430008000033",
  "linkReferences": {},
  "deployedLinkReferences": {}
}