{
  "_format": "hh-sol-artifact-1",
  "contractName": "SolverLib",
  "sourceName": "contracts/SolverLib.sol",
  "abi": [
    {
      "inputs": [
        {
          "internalType": "uint256",
          "name": "index",
          "type": "uint256"
        },
        {
          "internalType": "address",
          "name": "_this",
          "type": "address"
        },
        {
          "internalType": "address",
          "name": "chainParent",
          "type": "address"
        },
        {
          "internalType": "address",
          "name": "chainChild",
          "type": "address"
        },
        {
          "internalType": "uint256",
          "name": "chainIndex",
          "type": "uint256"
        }
      ],
      "name": "addressFromChainIndex",
      "outputs": [
        {
          "internalType": "address",
          "name": "_address",
          "type": "address"
        }
      ],
      "stateMutability": "view",
      "type": "function"
    },
    {
      "inputs": [
        {
          "components": [
            {
              "internalType": "contract IERC20",
              "name": "collateralToken",
              "type": "IERC20"
            },
            {
              "internalType": "bytes32",
              "name": "questionId",
              "type": "bytes32"
            },
            {
              "internalType": "bytes32",
              "name": "parentCollectionId",
              "type": "bytes32"
            },
            {
              "internalType": "bytes32",
              "name": "conditionId",
              "type": "bytes32"
            },
            {
              "internalType": "uint256[]",
              "name": "payouts",
              "type": "uint256[]"
            },
            {
              "internalType": "enum SolverLib.Status",
              "name": "status",
              "type": "SolverLib.Status"
            }
          ],
          "internalType": "struct SolverLib.Condition",
          "name": "condition",
          "type": "tuple"
        },
        {
          "internalType": "uint256",
          "name": "partition",
          "type": "uint256"
        }
      ],
      "name": "getCanonCollectionId",
      "outputs": [
        {
          "internalType": "bytes32",
          "name": "collectionId",
          "type": "bytes32"
        }
      ],
      "stateMutability": "view",
      "type": "function"
    },
    {
      "inputs": [
        {
          "components": [
            {
              "internalType": "contract IERC20",
              "name": "collateralToken",
              "type": "IERC20"
            },
            {
              "internalType": "bytes32",
              "name": "questionId",
              "type": "bytes32"
            },
            {
              "internalType": "bytes32",
              "name": "parentCollectionId",
              "type": "bytes32"
            },
            {
              "internalType": "bytes32",
              "name": "conditionId",
              "type": "bytes32"
            },
            {
              "internalType": "uint256[]",
              "name": "payouts",
              "type": "uint256[]"
            },
            {
              "internalType": "enum SolverLib.Status",
              "name": "status",
              "type": "SolverLib.Status"
            }
          ],
          "internalType": "struct SolverLib.Condition",
          "name": "condition",
          "type": "tuple"
        },
        {
          "internalType": "contract IERC20",
          "name": "collateralToken",
          "type": "IERC20"
        },
        {
          "internalType": "uint256",
          "name": "partition",
          "type": "uint256"
        }
      ],
      "name": "getPositionId",
      "outputs": [
        {
          "internalType": "uint256",
          "name": "positionId",
          "type": "uint256"
        }
      ],
      "stateMutability": "view",
      "type": "function"
    },
    {
      "inputs": [
        {
          "components": [
            {
              "internalType": "uint256",
              "name": "executions",
              "type": "uint256"
            },
            {
              "internalType": "bool",
              "name": "isDeferred",
              "type": "bool"
            },
            {
              "internalType": "bool",
              "name": "isConstant",
              "type": "bool"
            },
            {
              "internalType": "uint8",
              "name": "dataType",
              "type": "uint8"
            },
            {
              "internalType": "uint256",
              "name": "key",
              "type": "uint256"
            },
            {
              "internalType": "uint256",
              "name": "solverIndex",
              "type": "uint256"
            },
            {
              "internalType": "bytes",
              "name": "data",
              "type": "bytes"
            }
          ],
          "internalType": "struct SolverLib.Ingest[]",
          "name": "ingests",
          "type": "tuple[]"
        },
        {
          "internalType": "uint256",
          "name": "conditionVer",
          "type": "uint256"
        }
      ],
      "name": "ingestsValid",
      "outputs": [
        {
          "internalType": "bool",
          "name": "",
          "type": "bool"
        }
      ],
      "stateMutability": "pure",
      "type": "function"
    }
  ],
  "bytecode": "0x6126a361003a600b82828239805160001a60731461002d57634e487b7160e01b600052600060045260246000fd5b30600052607381538281f3fe73000000000000000000000000000000000000000030146080604052600436106101255760003560e01c80635cc1f6b5116100bc578063764d67361161008b578063b89c10e711610070578063b89c10e714610303578063ec7ac2f014610323578063f060d0b61461034357610125565b8063764d6736146102d05780639fa61fa3146102e357610125565b80635cc1f6b5146102505780636666258514610270578063696d4661146102905780636a0a24f1146102b057610125565b806348cc49d5116100f857806348cc49d5146101b55780634dd0aa49146101d55780635069a07c1461020357806359111fb51461023057610125565b80630bc1c42a1461012a57806311ca1ac01461015357806324b28602146101755780633669682814610195575b600080fd5b61013d610138366004611a9f565b610370565b60405161014a919061227c565b60405180910390f35b81801561015f57600080fd5b5061017361016e366004611b9c565b61040d565b005b81801561018157600080fd5b50610173610190366004611b3a565b61042b565b8180156101a157600080fd5b506101736101b0366004611a1a565b610445565b8180156101c157600080fd5b506101736101d0366004611b9c565b610ac5565b8180156101e157600080fd5b506101f56101f0366004611be1565b610b38565b60405161014a92919061214e565b81801561020f57600080fd5b5061022361021e3660046119b2565b610bdd565b60405161014a91906123ba565b81801561023c57600080fd5b5061017361024b366004611b3a565b610e36565b61026361025e3660046118fc565b610e4c565b60405161014a9190612271565b81801561027c57600080fd5b5061017361028b366004611889565b610f05565b81801561029c57600080fd5b506101736102ab366004611b3a565b611054565b8180156102bc57600080fd5b506101736102cb366004611b52565b61106f565b61013d6102de366004611ae2565b611092565b6102f66102f1366004611c5b565b6111a9565b60405161014a91906120bb565b81801561030f57600080fd5b5061017361031e366004611b3a565b611279565b81801561032f57600080fd5b5061017361033e366004611b3a565b6112ed565b81801561034f57600080fd5b5061036361035e366004611c2c565b611303565b60405161014a919061230c565b6040805163856296f760e01b8152600091735fbdb2315678afecb367f032d93f642f64180aa39163856296f7916103b691908701359060608801359087906004016122f6565b60206040518083038186803b1580156103ce57600080fd5b505afa1580156103e2573d6000803e3d6000fd5b505050506040513d601f19601f82011682018060405250810190610406919061197e565b9392505050565b6005828101805460ff191690911790556104278282610ac5565b5050565b6005810180546003919060ff19166001835b021790555050565b60006104546080860186612448565b905067ffffffffffffffff81111561047c57634e487b7160e01b600052604160045260246000fd5b6040519080825280602002602001820160405280156104a5578160200160208202803683370190505b50905060006104b760a0870187612448565b905067ffffffffffffffff8111156104df57634e487b7160e01b600052604160045260246000fd5b60405190808252806020026020018201604052801561051257816020015b60608152602001906001900390816104fd5790505b50905060005b6105256080880188612448565b90508110156105bb5761057e61053a896125c2565b61054760208a018a611996565b61055460808b018b612448565b8581811061057257634e487b7160e01b600052603260045260246000fd5b90506020020135611092565b83828151811061059e57634e487b7160e01b600052603260045260246000fd5b6020908102919091010152806105b381612603565b915050610518565b5060005b6105cc60a0880188612448565b90508110156107fe576105e26080880188612448565b905067ffffffffffffffff81111561060a57634e487b7160e01b600052604160045260246000fd5b604051908082528060200260200182016040528015610633578160200160208202803683370190505b5082828151811061065457634e487b7160e01b600052603260045260246000fd5b602002602001018190525060005b61066f6080890189612448565b90508110156107eb5785600061068860c08b018b612448565b848181106106a657634e487b7160e01b600052603260045260246000fd5b90506020028101906106b89190612448565b858181106106d657634e487b7160e01b600052603260045260246000fd5b90506020020135815260200190815260200160002080546106f6906125ce565b80601f0160208091040260200160405190810160405280929190818152602001828054610722906125ce565b801561076f5780601f106107445761010080835404028352916020019161076f565b820191906000526020600020905b81548152906001019060200180831161075257829003601f168201915b5050505050806020019051810190610787919061197e565b8383815181106107a757634e487b7160e01b600052603260045260246000fd5b602002602001015182815181106107ce57634e487b7160e01b600052603260045260246000fd5b6020908102919091010152806107e381612603565b915050610662565b50806107f681612603565b9150506105bf565b5060005b81518110156108f95761084a6040518060400160405280600881526020017f616d6f756e743a20000000000000000000000000000000000000000000000000815250826114f1565b60005b82828151811061086d57634e487b7160e01b600052603260045260246000fd5b6020026020010151518110156108e6576108d48383815181106108a057634e487b7160e01b600052603260045260246000fd5b602002602001015182815181106108c757634e487b7160e01b600052603260045260246000fd5b6020026020010151611564565b806108de81612603565b91505061084d565b50806108f181612603565b915050610802565b5060005b61090a60a0880188612448565b9050811015610abb57735fbdb2315678afecb367f032d93f642f64180aa3632eb2c2d68787600061093e60a08d018d612448565b8781811061095c57634e487b7160e01b600052603260045260246000fd5b905060200201358152602001908152602001600020805461097c906125ce565b80601f01602080910402602001604051908101604052809291908181526020018280546109a8906125ce565b80156109f55780601f106109ca576101008083540402835291602001916109f5565b820191906000526020600020905b8154815290600101906020018083116109d857829003601f168201915b5050505050806020019051810190610a0d919061186d565b86868681518110610a2e57634e487b7160e01b600052603260045260246000fd5b602002602001015189604051602001610a47919061227c565b6040516020818303038152906040526040518663ffffffff1660e01b8152600401610a769594939291906120cf565b600060405180830381600087803b158015610a9057600080fd5b505af1158015610aa4573d6000803e3d6000fd5b505050508080610ab390612603565b9150506108fd565b5050505050505050565b6001820154604051633124a62b60e21b8152735fbdb2315678afecb367f032d93f642f64180aa39163c49298ac91610b0291908590600401612285565b600060405180830381600087803b158015610b1c57600080fd5b505af1158015610b30573d6000803e3d6000fd5b505050505050565b60008073e7f1725e7734ce288f8367e1bb143e90bb3f051263e4445ce685610b618660016125aa565b886040518463ffffffff1660e01b8152600401610b8093929190612181565b602060405180830381600087803b158015610b9a57600080fd5b505af1158015610bae573d6000803e3d6000fd5b505050506040513d601f19601f82011682018060405250810190610bd2919061186d565b958695509350505050565b610be56115f2565b610bf260e086018661248f565b8484604051602001610c079493929190612088565b60408051601f198184030181529190528051602091820120908201526001600160a01b038416610c3d5760006040820152610cdb565b604080517f84dbd3910000000000000000000000000000000000000000000000000000000081526001600160a01b038616916384dbd39191610c85918901359060040161227c565b60206040518083038186803b158015610c9d57600080fd5b505afa158015610cb1573d6000803e3d6000fd5b505050506040513d601f19601f82011682018060405250810190610cd5919061197e565b60408201525b6020808201516040517f852c6ae2000000000000000000000000000000000000000000000000000000008152735fbdb2315678afecb367f032d93f642f64180aa39263852c6ae292610d359288928b01359060040161212d565b60206040518083038186803b158015610d4d57600080fd5b505afa158015610d61573d6000803e3d6000fd5b505050506040513d601f19601f82011682018060405250810190610d85919061197e565b6060820152610d976020860186611996565b6001600160a01b031681526020808201516040517fd96ee754000000000000000000000000000000000000000000000000000000008152735fbdb2315678afecb367f032d93f642f64180aa39263d96ee75492610dfc9288928b01359060040161212d565b600060405180830381600087803b158015610e1657600080fd5b505af1158015610e2a573d6000803e3d6000fd5b50505050949350505050565b6005810180546002919060ff191660018361043d565b6000805b83811015610efa57848482818110610e7857634e487b7160e01b600052603260045260246000fd5b9050602002810190610e8a91906124d4565b610e9b906040810190602001611946565b8015610ed9575082858583818110610ec357634e487b7160e01b600052603260045260246000fd5b9050602002810190610ed591906124d4565b3514155b15610ee8576000915050610406565b80610ef281612603565b915050610e50565b506001949350505050565b6001600160a01b038316610fb957610f206020830183611996565b6001600160a01b031663095ea7b3735fbdb2315678afecb367f032d93f642f64180aa384606001356040518363ffffffff1660e01b8152600401610f65929190612168565b602060405180830381600087803b158015610f7f57600080fd5b505af1158015610f93573d6000803e3d6000fd5b505050506040513d601f19601f82011682018060405250810190610fb79190611962565b505b735fbdb2315678afecb367f032d93f642f64180aa36372ce4275610fe06020850185611996565b60408401356060850135610ff76080880188612448565b88606001356040518763ffffffff1660e01b815260040161101d9695949392919061231f565b600060405180830381600087803b15801561103757600080fd5b505af115801561104b573d6000803e3d6000fd5b50505050505050565b60058101805460ff1916600617905561106c81611279565b50565b60058301805460ff1916600217905561108c600484018383611624565b50505050565b6040808401516060850151915163856296f760e01b8152600092735fbdb2315678afecb367f032d93f642f64180aa39283926339dd7530928892859263856296f7926110e392918b906004016122f6565b60206040518083038186803b1580156110fb57600080fd5b505afa15801561110f573d6000803e3d6000fd5b505050506040513d601f19601f82011682018060405250810190611133919061197e565b6040518363ffffffff1660e01b8152600401611150929190612168565b60206040518083038186803b15801561116857600080fd5b505afa15801561117c573d6000803e3d6000fd5b505050506040513d601f19601f820116820180604052508101906111a0919061197e565b95945050505050565b6000818614156111ba5750836111a0565b8186101561124557604051631c1bd82f60e11b81526001600160a01b03851690633837b05e906111ee90899060040161227c565b60206040518083038186803b15801561120657600080fd5b505afa15801561121a573d6000803e3d6000fd5b505050506040513d601f19601f8201168201806040525081019061123e919061186d565b90506111a0565b818611156111a057604051631c1bd82f60e11b81526001600160a01b03841690633837b05e906111ee90899060040161227c565b6001810154604051633124a62b60e21b8152735fbdb2315678afecb367f032d93f642f64180aa39163c49298ac916112b89190600480870191016122a6565b600060405180830381600087803b1580156112d257600080fd5b505af11580156112e6573d6000803e3d6000fd5b5050505050565b6005810180546004919060ff191660018361043d565b815460609083600061131483612603565b90915550506001830154610100900460ff1661145b576003830154604051631c1bd82f60e11b81526000916001600160a01b03851691633837b05e9161135c9160040161227c565b60206040518083038186803b15801561137457600080fd5b505afa158015611388573d6000803e3d6000fd5b505050506040513d601f19601f820116820180604052508101906113ac919061186d565b9050600080826001600160a01b0316866004016040516113cc9190611fed565b600060405180830381855afa9150503d8060008114611407576040519150601f19603f3d011682016040523d82523d6000602084013e61140c565b606091505b509150915081611451576040517f08c379a000000000000000000000000000000000000000000000000000000000815260040161144890612383565b60405180910390fd5b92506114eb915050565b82600401805461146a906125ce565b80601f0160208091040260200160405190810160405280929190818152602001828054611496906125ce565b80156114e35780601f106114b8576101008083540402835291602001916114e3565b820191906000526020600020905b8154815290600101906020018083116114c657829003601f168201915b505050505090505b92915050565b6104278282604051602401611507929190612361565b60408051601f198184030181529190526020810180517bffffffffffffffffffffffffffffffffffffffffffffffffffffffff167f9710a9d0000000000000000000000000000000000000000000000000000000001790526115d1565b61106c81604051602401611578919061227c565b60408051601f198184030181529190526020810180517bffffffffffffffffffffffffffffffffffffffffffffffffffffffff167ff5b1bba9000000000000000000000000000000000000000000000000000000001790525b80516a636f6e736f6c652e6c6f67602083016000808483855afa5050505050565b6040805160c081018252600080825260208201819052918101829052606080820183905260808201529060a082015290565b82805482825590600052602060002090810192821561165f579160200282015b8281111561165f578235825591602001919060010190611644565b5061166b92915061166f565b5090565b5b8082111561166b5760008155600101611670565b803561168f8161264a565b919050565b60008083601f8401126116a5578182fd5b50813567ffffffffffffffff8111156116bc578182fd5b60208301915083602080830285010111156116d657600080fd5b9250929050565b600082601f8301126116ed578081fd5b8135602067ffffffffffffffff8083111561170a5761170a612634565b8183026040518382820101818110848211171561172957611729612634565b60405284815283810192508684018288018501891015611747578687fd5b8692505b8583101561176957803584529284019260019290920191840161174b565b50979650505050505050565b803561168f8161265f565b80356007811061168f57600080fd5b600061010082840312156117a1578081fd5b50919050565b600060c082840312156117a1578081fd5b600060c082840312156117c9578081fd5b60405160c0810167ffffffffffffffff82821081831117156117ed576117ed612634565b816040528293506117fd85611684565b8352602085013560208401526040850135604084015260608501356060840152608085013591508082111561183157600080fd5b5061183e858286016116dd565b60808301525061185060a08401611780565b60a08201525092915050565b803560ff8116811461168f57600080fd5b60006020828403121561187e578081fd5b81516104068161264a565b60008060006060848603121561189d578182fd5b83356118a88161264a565b9250602084013567ffffffffffffffff808211156118c4578384fd5b6118d08783880161178f565b935060408601359150808211156118e5578283fd5b506118f2868287016117a7565b9150509250925092565b600080600060408486031215611910578283fd5b833567ffffffffffffffff811115611926578384fd5b61193286828701611694565b909790965060209590950135949350505050565b600060208284031215611957578081fd5b81356104068161265f565b600060208284031215611973578081fd5b81516104068161265f565b60006020828403121561198f578081fd5b5051919050565b6000602082840312156119a7578081fd5b81356104068161264a565b600080600080608085870312156119c7578182fd5b843567ffffffffffffffff8111156119dd578283fd5b6119e98782880161178f565b94505060208501356119fa8161264a565b92506040850135611a0a8161264a565b9396929550929360600135925050565b600080600080600060a08688031215611a31578283fd5b853567ffffffffffffffff80821115611a48578485fd5b611a5489838a016117a7565b96506020880135915080821115611a69578485fd5b50611a768882890161178f565b9450506040860135611a878161264a565b94979396509394606081013594506080013592915050565b60008060408385031215611ab1578182fd5b823567ffffffffffffffff811115611ac7578283fd5b611ad3858286016117a7565b95602094909401359450505050565b600080600060608486031215611af6578081fd5b833567ffffffffffffffff811115611b0c578182fd5b611b18868287016117b8565b9350506020840135611b298161264a565b929592945050506040919091013590565b600060208284031215611b4b578081fd5b5035919050565b600080600060408486031215611b66578081fd5b83359250602084013567ffffffffffffffff811115611b83578182fd5b611b8f86828701611694565b9497909650939450505050565b60008060408385031215611bae578182fd5b82359150602083013567ffffffffffffffff811115611bcb578182fd5b611bd7858286016116dd565b9150509250929050565b600080600060608486031215611bf5578081fd5b833567ffffffffffffffff811115611c0b578182fd5b840160e08187031215611c1c578182fd5b92506020840135611b298161264a565b60008060408385031215611c3e578182fd5b823591506020830135611c508161264a565b809150509250929050565b600080600080600060a08688031215611c72578283fd5b853594506020860135611c848161264a565b93506040860135611c948161264a565b92506060860135611ca48161264a565b949793965091946080013592915050565b6001600160a01b03169052565b818352602080840193600091908185020181018584845b87811015611d0f578284038952611cf082886124ff565b611cfb868284611df7565b9a87019a9550505090840190600101611cd9565b5091979650505050505050565b818352602080840193600091908185020181018584845b87811015611d0f578284038952813560de19883603018112611d53578687fd5b87018035855260e086820135611d688161265f565b611d7488880182611e7e565b506040611d82818401611775565b611d8e82890182611e7e565b50506060611d9d81840161185c565b611da982890182611fe6565b50506080828101359087015260a0808301359087015260c0611dcd81840184612547565b93508282890152611de18389018583611e84565b9c89019c97505050928601925050600101611d33565b60008284527f07ffffffffffffffffffffffffffffffffffffffffffffffffffffffffffffff831115611e28578081fd5b6020830280836020870137939093016020019283525090919050565b6000815180845260208085019450808401835b83811015611e7357815187529582019590820190600101611e57565b509495945050505050565b15159052565b60008284528282602086013780602084860101526020601f19601f85011685010190509392505050565b60008151808452815b81811015611ed357602081850181015186830182015201611eb7565b81811115611ee45782602083870101525b50601f01601f19169290920160200192915050565b60078110611f1757634e487b7160e01b600052602160045260246000fd5b9052565b6000610100611f3284611f2d85611684565b611cb5565b602083013560208501526040830135604085015260608301356060850152611f5d60808401846124ff565b826080870152611f708387018284611df7565b92505050611f8160a08401846124ff565b85830360a0870152611f94838284611df7565b92505050611fa560c08401846124ff565b85830360c0870152611fb8838284611cc2565b92505050611fc960e0840184612547565b85830360e0870152611fdc838284611e84565b9695505050505050565b60ff169052565b815460009081906002810460018083168061200957607f831692505b602080841082141561202957634e487b7160e01b87526022600452602487fd5b81801561203d576001811461204e5761207a565b60ff1986168952848901965061207a565b6120578a6124f3565b885b868110156120725781548b820152908501908301612059565b505084890196505b509498975050505050505050565b6000848683375060609290921b6bffffffffffffffffffffffff1916919092019081526014810191909152603401919050565b6001600160a01b0391909116815260200190565b60006001600160a01b03808816835280871660208401525060a060408301526120fb60a0830186611e44565b828103606084015261210d8186611e44565b905082810360808401526121218185611eae565b98975050505050505050565b6001600160a01b039390931683526020830191909152604082015260600190565b6001600160a01b0392831681529116602082015260400190565b6001600160a01b03929092168252602082015260400190565b60006001600160a01b03851682528360208301526060604083015282356121a78161264a565b6121b46060840182611cb5565b506121c160208401611684565b6121ce6080840182611cb5565b506121db60408401611684565b6121e860a0840182611cb5565b50606083013560c08301526122006080840184612547565b60e08085015261221561014085018284611e84565b91505061222560a08501856124ff565b605f19808685030161010087015261223e848385611d1c565b935061224d60c088018861258c565b9250808685030161012087015250506122668282611f1b565b979650505050505050565b901515815260200190565b90815260200190565b60008382526040602083015261229e6040830184611e44565b949350505050565b60006040820184835260206040818501528185548084526060860191508685528285209350845b818110156122e9578454835260019485019492840192016122cd565b5090979650505050505050565b9283526020830191909152604082015260600190565b6000602082526104066020830184611eae565b60006001600160a01b038816825286602083015285604083015260a0606083015261234e60a083018587611df7565b9050826080830152979650505050505050565b6000604082526123746040830185611eae565b90508260208301529392505050565b60208082526018908201527f496e676573742073746174696363616c6c206661696c65640000000000000000604082015260600190565b6000602080835260e083016001600160a01b03855116828501528185015160408501526040850151606085015260608501516080850152608085015160c060a08601528181518084526101008701915084830193508592505b808310156124335783518252928401926001929092019190840190612413565b5060a08701519350611fdc60c0870185611ef9565b6000808335601e1984360301811261245e578283fd5b83018035915067ffffffffffffffff821115612478578283fd5b60209081019250810236038213156116d657600080fd5b6000808335601e198436030181126124a5578283fd5b83018035915067ffffffffffffffff8211156124bf578283fd5b6020019150368190038213156116d657600080fd5b6000823560de198336030181126124e9578182fd5b9190910192915050565b60009081526020902090565b6000808335601e19843603018112612515578283fd5b830160208101925035905067ffffffffffffffff81111561253557600080fd5b6020810236038313156116d657600080fd5b6000808335601e1984360301811261255d578283fd5b830160208101925035905067ffffffffffffffff81111561257d57600080fd5b8036038313156116d657600080fd5b6000823560fe198336030181126125a1578182fd5b90910192915050565b600082198211156125bd576125bd61261e565b500190565b60006114eb36836117b8565b6002810460018216806125e257607f821691505b602082108114156117a157634e487b7160e01b600052602260045260246000fd5b60006000198214156126175761261761261e565b5060010190565b634e487b7160e01b600052601160045260246000fd5b634e487b7160e01b600052604160045260246000fd5b6001600160a01b038116811461106c57600080fd5b801515811461106c57600080fdfea2646970667358221220bee31dac315e02d73496e6d5ecb756e0fe6ac68ad89eddcda8cff5f03e95dcfa64736f6c63430008000033",
  "linkReferences": {},
  "deployedLinkReferences": {}
}