{
  "_format": "hh-sol-artifact-1",
  "contractName": "WriterSolverV1",
  "sourceName": "contracts/WriterSolverV1.sol",
  "abi": [
    {
      "anonymous": false,
      "inputs": [
        {
          "indexed": false,
          "internalType": "bytes32",
          "name": "conditionId",
          "type": "bytes32"
        }
      ],
      "name": "ChangedStatus",
      "type": "event"
    },
    {
      "anonymous": false,
      "inputs": [
        {
          "indexed": false,
          "internalType": "bytes32",
          "name": "conditionId",
          "type": "bytes32"
        }
      ],
      "name": "DeliveredNullArbitration",
      "type": "event"
    },
    {
      "anonymous": false,
      "inputs": [
        {
          "indexed": false,
          "internalType": "address",
          "name": "child",
          "type": "address"
        }
      ],
      "name": "DeployedChild",
      "type": "event"
    },
    {
      "anonymous": false,
      "inputs": [],
      "name": "IngestedData",
      "type": "event"
    },
    {
      "anonymous": false,
      "inputs": [
        {
          "indexed": false,
          "internalType": "address",
          "name": "solver",
          "type": "address"
        },
        {
          "indexed": false,
          "internalType": "uint256",
          "name": "solveIndex",
          "type": "uint256"
        }
      ],
      "name": "PreparedSolve",
      "type": "event"
    },
    {
      "anonymous": false,
      "inputs": [
        {
          "indexed": false,
          "internalType": "string",
          "name": "cid",
          "type": "string"
        },
        {
          "indexed": false,
          "internalType": "address",
          "name": "sender",
          "type": "address"
        },
        {
          "indexed": false,
          "internalType": "bytes32",
          "name": "conditionId",
          "type": "bytes32"
        }
      ],
      "name": "SentMessage",
      "type": "event"
    },
    {
      "anonymous": false,
      "inputs": [
        {
          "indexed": false,
          "internalType": "string",
          "name": "cid",
          "type": "string"
        },
        {
          "indexed": false,
          "internalType": "address",
          "name": "submitter",
          "type": "address"
        },
        {
          "indexed": false,
          "internalType": "bytes32",
          "name": "conditionId",
          "type": "bytes32"
        }
      ],
      "name": "SubmittedWork",
      "type": "event"
    },
    {
      "inputs": [
        {
          "internalType": "bytes32",
          "name": "_slot",
          "type": "bytes32"
        },
        {
          "internalType": "bytes",
          "name": "_data",
          "type": "bytes"
        }
      ],
      "name": "addData",
      "outputs": [],
      "stateMutability": "nonpayable",
      "type": "function"
    },
    {
      "inputs": [
        {
          "internalType": "uint256",
          "name": "_index",
          "type": "uint256"
        }
      ],
      "name": "addressFromChainIndex",
      "outputs": [
        {
          "internalType": "address",
          "name": "_address",
          "type": "address"
        }
      ],
      "stateMutability": "view",
      "type": "function"
    },
    {
      "inputs": [
        {
          "internalType": "uint256",
          "name": "_index",
          "type": "uint256"
        }
      ],
      "name": "allocationsValid",
      "outputs": [
        {
          "internalType": "bool",
          "name": "",
          "type": "bool"
        }
      ],
      "stateMutability": "view",
      "type": "function"
    },
    {
      "inputs": [
        {
          "internalType": "uint256",
          "name": "_index",
          "type": "uint256"
        },
        {
          "internalType": "uint256[]",
          "name": "payouts",
          "type": "uint256[]"
        }
      ],
      "name": "arbitrate",
      "outputs": [],
      "stateMutability": "nonpayable",
      "type": "function"
    },
    {
      "inputs": [
        {
          "internalType": "uint256",
          "name": "_index",
          "type": "uint256"
        }
      ],
      "name": "arbitrateNull",
      "outputs": [],
      "stateMutability": "nonpayable",
      "type": "function"
    },
    {
      "inputs": [
        {
          "internalType": "uint256",
          "name": "_index",
          "type": "uint256"
        }
      ],
      "name": "arbitrationRequested",
      "outputs": [],
      "stateMutability": "nonpayable",
      "type": "function"
    },
    {
      "inputs": [],
      "name": "arbitrator",
      "outputs": [
        {
          "internalType": "address",
          "name": "",
          "type": "address"
        }
      ],
      "stateMutability": "view",
      "type": "function"
    },
    {
      "inputs": [],
      "name": "buyer",
      "outputs": [
        {
          "internalType": "address",
          "name": "",
          "type": "address"
        }
      ],
      "stateMutability": "view",
      "type": "function"
    },
    {
      "inputs": [],
      "name": "chainChild",
      "outputs": [
        {
          "internalType": "address",
          "name": "",
          "type": "address"
        }
      ],
      "stateMutability": "view",
      "type": "function"
    },
    {
      "inputs": [],
      "name": "chainIndex",
      "outputs": [
        {
          "internalType": "uint256",
          "name": "",
          "type": "uint256"
        }
      ],
      "stateMutability": "view",
      "type": "function"
    },
    {
      "inputs": [],
      "name": "chainParent",
      "outputs": [
        {
          "internalType": "address",
          "name": "",
          "type": "address"
        }
      ],
      "stateMutability": "view",
      "type": "function"
    },
    {
      "inputs": [],
      "name": "collateralBalance",
      "outputs": [
        {
          "internalType": "uint256",
          "name": "balance",
          "type": "uint256"
        }
      ],
      "stateMutability": "view",
      "type": "function"
    },
    {
      "inputs": [
        {
          "internalType": "uint256",
          "name": "",
          "type": "uint256"
        }
      ],
      "name": "conditions",
      "outputs": [
        {
          "internalType": "contract IERC20",
          "name": "collateralToken",
          "type": "address"
        },
        {
          "internalType": "bytes32",
          "name": "questionId",
          "type": "bytes32"
        },
        {
          "internalType": "bytes32",
          "name": "parentCollectionId",
          "type": "bytes32"
        },
        {
          "internalType": "bytes32",
          "name": "conditionId",
          "type": "bytes32"
        },
        {
          "internalType": "enum SolverLib.Status",
          "name": "status",
          "type": "uint8"
        }
      ],
      "stateMutability": "view",
      "type": "function"
    },
    {
      "inputs": [],
      "name": "config",
      "outputs": [
        {
          "internalType": "contract Solver",
          "name": "implementation",
          "type": "address"
        },
        {
          "internalType": "address",
          "name": "keeper",
          "type": "address"
        },
        {
          "internalType": "address",
          "name": "arbitrator",
          "type": "address"
        },
        {
          "internalType": "uint256",
          "name": "timelockSeconds",
          "type": "uint256"
        },
        {
          "internalType": "bytes",
          "name": "data",
          "type": "bytes"
        },
        {
          "components": [
            {
              "internalType": "contract IERC20",
              "name": "collateralToken",
              "type": "address"
            },
            {
              "internalType": "uint256",
              "name": "outcomeSlots",
              "type": "uint256"
            },
            {
              "internalType": "uint256",
              "name": "parentCollectionIndexSet",
              "type": "uint256"
            },
            {
              "internalType": "bytes32",
              "name": "amountSlot",
              "type": "bytes32"
            },
            {
              "internalType": "uint256[]",
              "name": "partition",
              "type": "uint256[]"
            },
            {
              "components": [
                {
                  "internalType": "bytes32",
                  "name": "recipientAddressSlot",
                  "type": "bytes32"
                },
                {
                  "internalType": "bytes32[]",
                  "name": "recipientAmountSlots",
                  "type": "bytes32[]"
                }
              ],
              "internalType": "struct SolverLib.Allocation[]",
              "name": "allocations",
              "type": "tuple[]"
            },
            {
              "components": [
                {
                  "internalType": "bytes32",
                  "name": "digest",
                  "type": "bytes32"
                },
                {
                  "internalType": "uint8",
                  "name": "hashFunction",
                  "type": "uint8"
                },
                {
                  "internalType": "uint8",
                  "name": "size",
                  "type": "uint8"
                }
              ],
              "internalType": "struct SolverLib.Multihash[]",
              "name": "outcomeURIs",
              "type": "tuple[]"
            }
          ],
          "internalType": "struct SolverLib.ConditionBase",
          "name": "conditionBase",
          "type": "tuple"
        }
      ],
      "stateMutability": "view",
      "type": "function"
    },
    {
      "inputs": [
        {
          "internalType": "uint256",
          "name": "_index",
          "type": "uint256"
        }
      ],
      "name": "confirmPayouts",
      "outputs": [],
      "stateMutability": "nonpayable",
      "type": "function"
    },
    {
      "inputs": [
        {
          "components": [
            {
              "internalType": "contract Solver",
              "name": "implementation",
              "type": "address"
            },
            {
              "internalType": "address",
              "name": "keeper",
              "type": "address"
            },
            {
              "internalType": "address",
              "name": "arbitrator",
              "type": "address"
            },
            {
              "internalType": "uint256",
              "name": "timelockSeconds",
              "type": "uint256"
            },
            {
              "internalType": "bytes",
              "name": "data",
              "type": "bytes"
            },
            {
              "components": [
                {
                  "internalType": "uint256",
                  "name": "executions",
                  "type": "uint256"
                },
                {
                  "internalType": "enum SolverLib.IngestType",
                  "name": "ingestType",
                  "type": "uint8"
                },
                {
                  "internalType": "bytes32",
                  "name": "slot",
                  "type": "bytes32"
                },
                {
                  "internalType": "uint256",
                  "name": "solverIndex",
                  "type": "uint256"
                },
                {
                  "internalType": "bytes",
                  "name": "data",
                  "type": "bytes"
                }
              ],
              "internalType": "struct SolverLib.Ingest[]",
              "name": "ingests",
              "type": "tuple[]"
            },
            {
              "components": [
                {
                  "internalType": "contract IERC20",
                  "name": "collateralToken",
                  "type": "address"
                },
                {
                  "internalType": "uint256",
                  "name": "outcomeSlots",
                  "type": "uint256"
                },
                {
                  "internalType": "uint256",
                  "name": "parentCollectionIndexSet",
                  "type": "uint256"
                },
                {
                  "internalType": "bytes32",
                  "name": "amountSlot",
                  "type": "bytes32"
                },
                {
                  "internalType": "uint256[]",
                  "name": "partition",
                  "type": "uint256[]"
                },
                {
                  "components": [
                    {
                      "internalType": "bytes32",
                      "name": "recipientAddressSlot",
                      "type": "bytes32"
                    },
                    {
                      "internalType": "bytes32[]",
                      "name": "recipientAmountSlots",
                      "type": "bytes32[]"
                    }
                  ],
                  "internalType": "struct SolverLib.Allocation[]",
                  "name": "allocations",
                  "type": "tuple[]"
                },
                {
                  "components": [
                    {
                      "internalType": "bytes32",
                      "name": "digest",
                      "type": "bytes32"
                    },
                    {
                      "internalType": "uint8",
                      "name": "hashFunction",
                      "type": "uint8"
                    },
                    {
                      "internalType": "uint8",
                      "name": "size",
                      "type": "uint8"
                    }
                  ],
                  "internalType": "struct SolverLib.Multihash[]",
                  "name": "outcomeURIs",
                  "type": "tuple[]"
                }
              ],
              "internalType": "struct SolverLib.ConditionBase",
              "name": "conditionBase",
              "type": "tuple"
            }
          ],
          "internalType": "struct SolverLib.Config",
          "name": "_config",
          "type": "tuple"
        }
      ],
      "name": "deployChild",
      "outputs": [
        {
          "internalType": "address",
          "name": "",
          "type": "address"
        }
      ],
      "stateMutability": "nonpayable",
      "type": "function"
    },
    {
      "inputs": [
        {
          "internalType": "uint256",
          "name": "_index",
          "type": "uint256"
        }
      ],
      "name": "executeSolve",
      "outputs": [],
      "stateMutability": "nonpayable",
      "type": "function"
    },
    {
      "inputs": [
        {
          "internalType": "bytes32",
          "name": "_slot",
          "type": "bytes32"
        }
      ],
      "name": "getAllData",
      "outputs": [
        {
          "internalType": "bytes[]",
          "name": "data",
          "type": "bytes[]"
        }
      ],
      "stateMutability": "view",
      "type": "function"
    },
    {
      "inputs": [
        {
          "internalType": "bytes32",
          "name": "_slot",
          "type": "bytes32"
        }
      ],
      "name": "getCallbackOutput",
      "outputs": [
        {
          "internalType": "bytes",
          "name": "data",
          "type": "bytes"
        }
      ],
      "stateMutability": "view",
      "type": "function"
    },
    {
      "inputs": [],
      "name": "getConditions",
      "outputs": [
        {
          "components": [
            {
              "internalType": "contract IERC20",
              "name": "collateralToken",
              "type": "address"
            },
            {
              "internalType": "bytes32",
              "name": "questionId",
              "type": "bytes32"
            },
            {
              "internalType": "bytes32",
              "name": "parentCollectionId",
              "type": "bytes32"
            },
            {
              "internalType": "bytes32",
              "name": "conditionId",
              "type": "bytes32"
            },
            {
              "internalType": "uint256[]",
              "name": "payouts",
              "type": "uint256[]"
            },
            {
              "internalType": "enum SolverLib.Status",
              "name": "status",
              "type": "uint8"
            }
          ],
          "internalType": "struct SolverLib.Condition[]",
          "name": "",
          "type": "tuple[]"
        }
      ],
      "stateMutability": "view",
      "type": "function"
    },
    {
      "inputs": [],
      "name": "getConfig",
      "outputs": [
        {
          "components": [
            {
              "internalType": "contract Solver",
              "name": "implementation",
              "type": "address"
            },
            {
              "internalType": "address",
              "name": "keeper",
              "type": "address"
            },
            {
              "internalType": "address",
              "name": "arbitrator",
              "type": "address"
            },
            {
              "internalType": "uint256",
              "name": "timelockSeconds",
              "type": "uint256"
            },
            {
              "internalType": "bytes",
              "name": "data",
              "type": "bytes"
            },
            {
              "components": [
                {
                  "internalType": "uint256",
                  "name": "executions",
                  "type": "uint256"
                },
                {
                  "internalType": "enum SolverLib.IngestType",
                  "name": "ingestType",
                  "type": "uint8"
                },
                {
                  "internalType": "bytes32",
                  "name": "slot",
                  "type": "bytes32"
                },
                {
                  "internalType": "uint256",
                  "name": "solverIndex",
                  "type": "uint256"
                },
                {
                  "internalType": "bytes",
                  "name": "data",
                  "type": "bytes"
                }
              ],
              "internalType": "struct SolverLib.Ingest[]",
              "name": "ingests",
              "type": "tuple[]"
            },
            {
              "components": [
                {
                  "internalType": "contract IERC20",
                  "name": "collateralToken",
                  "type": "address"
                },
                {
                  "internalType": "uint256",
                  "name": "outcomeSlots",
                  "type": "uint256"
                },
                {
                  "internalType": "uint256",
                  "name": "parentCollectionIndexSet",
                  "type": "uint256"
                },
                {
                  "internalType": "bytes32",
                  "name": "amountSlot",
                  "type": "bytes32"
                },
                {
                  "internalType": "uint256[]",
                  "name": "partition",
                  "type": "uint256[]"
                },
                {
                  "components": [
                    {
                      "internalType": "bytes32",
                      "name": "recipientAddressSlot",
                      "type": "bytes32"
                    },
                    {
                      "internalType": "bytes32[]",
                      "name": "recipientAmountSlots",
                      "type": "bytes32[]"
                    }
                  ],
                  "internalType": "struct SolverLib.Allocation[]",
                  "name": "allocations",
                  "type": "tuple[]"
                },
                {
                  "components": [
                    {
                      "internalType": "bytes32",
                      "name": "digest",
                      "type": "bytes32"
                    },
                    {
                      "internalType": "uint8",
                      "name": "hashFunction",
                      "type": "uint8"
                    },
                    {
                      "internalType": "uint8",
                      "name": "size",
                      "type": "uint8"
                    }
                  ],
                  "internalType": "struct SolverLib.Multihash[]",
                  "name": "outcomeURIs",
                  "type": "tuple[]"
                }
              ],
              "internalType": "struct SolverLib.ConditionBase",
              "name": "conditionBase",
              "type": "tuple"
            }
          ],
          "internalType": "struct SolverLib.Config",
          "name": "",
          "type": "tuple"
        }
      ],
      "stateMutability": "view",
      "type": "function"
    },
    {
      "inputs": [
        {
          "internalType": "bytes32",
          "name": "_slot",
          "type": "bytes32"
        }
      ],
      "name": "getData",
      "outputs": [
        {
          "internalType": "bytes",
          "name": "data",
          "type": "bytes"
        }
      ],
      "stateMutability": "view",
      "type": "function"
    },
    {
      "inputs": [
        {
          "internalType": "bytes32",
          "name": "slot",
          "type": "bytes32"
        }
      ],
      "name": "getOutgoingCallbacks",
      "outputs": [
        {
          "internalType": "address[]",
          "name": "",
          "type": "address[]"
        }
      ],
      "stateMutability": "view",
      "type": "function"
    },
    {
      "inputs": [
        {
          "internalType": "uint256",
          "name": "conditionIndex",
          "type": "uint256"
        }
      ],
      "name": "getStatus",
      "outputs": [
        {
          "internalType": "enum SolverLib.Status",
          "name": "status",
          "type": "uint8"
        }
      ],
      "stateMutability": "view",
      "type": "function"
    },
    {
      "inputs": [
        {
          "internalType": "bytes32",
          "name": "_slot",
          "type": "bytes32"
        }
      ],
      "name": "handleCallback",
      "outputs": [],
      "stateMutability": "nonpayable",
      "type": "function"
    },
    {
      "inputs": [],
      "name": "ingestsValid",
      "outputs": [
        {
          "internalType": "bool",
          "name": "",
          "type": "bool"
        }
      ],
      "stateMutability": "view",
      "type": "function"
    },
    {
      "inputs": [
        {
          "internalType": "address",
          "name": "_deployer",
          "type": "address"
        },
        {
          "internalType": "address",
          "name": "_ctfAddress",
          "type": "address"
        },
        {
          "internalType": "address",
          "name": "_chainParent",
          "type": "address"
        },
        {
          "internalType": "uint256",
          "name": "_chainIndex",
          "type": "uint256"
        },
        {
          "components": [
            {
              "internalType": "contract Solver",
              "name": "implementation",
              "type": "address"
            },
            {
              "internalType": "address",
              "name": "keeper",
              "type": "address"
            },
            {
              "internalType": "address",
              "name": "arbitrator",
              "type": "address"
            },
            {
              "internalType": "uint256",
              "name": "timelockSeconds",
              "type": "uint256"
            },
            {
              "internalType": "bytes",
              "name": "data",
              "type": "bytes"
            },
            {
              "components": [
                {
                  "internalType": "uint256",
                  "name": "executions",
                  "type": "uint256"
                },
                {
                  "internalType": "enum SolverLib.IngestType",
                  "name": "ingestType",
                  "type": "uint8"
                },
                {
                  "internalType": "bytes32",
                  "name": "slot",
                  "type": "bytes32"
                },
                {
                  "internalType": "uint256",
                  "name": "solverIndex",
                  "type": "uint256"
                },
                {
                  "internalType": "bytes",
                  "name": "data",
                  "type": "bytes"
                }
              ],
              "internalType": "struct SolverLib.Ingest[]",
              "name": "ingests",
              "type": "tuple[]"
            },
            {
              "components": [
                {
                  "internalType": "contract IERC20",
                  "name": "collateralToken",
                  "type": "address"
                },
                {
                  "internalType": "uint256",
                  "name": "outcomeSlots",
                  "type": "uint256"
                },
                {
                  "internalType": "uint256",
                  "name": "parentCollectionIndexSet",
                  "type": "uint256"
                },
                {
                  "internalType": "bytes32",
                  "name": "amountSlot",
                  "type": "bytes32"
                },
                {
                  "internalType": "uint256[]",
                  "name": "partition",
                  "type": "uint256[]"
                },
                {
                  "components": [
                    {
                      "internalType": "bytes32",
                      "name": "recipientAddressSlot",
                      "type": "bytes32"
                    },
                    {
                      "internalType": "bytes32[]",
                      "name": "recipientAmountSlots",
                      "type": "bytes32[]"
                    }
                  ],
                  "internalType": "struct SolverLib.Allocation[]",
                  "name": "allocations",
                  "type": "tuple[]"
                },
                {
                  "components": [
                    {
                      "internalType": "bytes32",
                      "name": "digest",
                      "type": "bytes32"
                    },
                    {
                      "internalType": "uint8",
                      "name": "hashFunction",
                      "type": "uint8"
                    },
                    {
                      "internalType": "uint8",
                      "name": "size",
                      "type": "uint8"
                    }
                  ],
                  "internalType": "struct SolverLib.Multihash[]",
                  "name": "outcomeURIs",
                  "type": "tuple[]"
                }
              ],
              "internalType": "struct SolverLib.ConditionBase",
              "name": "conditionBase",
              "type": "tuple"
            }
          ],
          "internalType": "struct SolverLib.Config",
          "name": "_solverConfig",
          "type": "tuple"
        }
      ],
      "name": "init",
      "outputs": [],
      "stateMutability": "nonpayable",
      "type": "function"
    },
    {
      "inputs": [
        {
          "internalType": "address",
          "name": "account",
          "type": "address"
        },
        {
          "internalType": "uint256",
          "name": "conditionIndex",
          "type": "uint256"
        }
      ],
      "name": "isRecipient",
      "outputs": [
        {
          "internalType": "bool",
          "name": "",
          "type": "bool"
        }
      ],
      "stateMutability": "view",
      "type": "function"
    },
    {
      "inputs": [],
      "name": "keeper",
      "outputs": [
        {
          "internalType": "address",
          "name": "",
          "type": "address"
        }
      ],
      "stateMutability": "view",
      "type": "function"
    },
    {
      "inputs": [
        {
          "internalType": "address",
          "name": "operator",
          "type": "address"
        },
        {
          "internalType": "address",
          "name": "from",
          "type": "address"
        },
        {
          "internalType": "uint256[]",
          "name": "ids",
          "type": "uint256[]"
        },
        {
          "internalType": "uint256[]",
          "name": "values",
          "type": "uint256[]"
        },
        {
          "internalType": "bytes",
          "name": "data",
          "type": "bytes"
        }
      ],
      "name": "onERC1155BatchReceived",
      "outputs": [
        {
          "internalType": "bytes4",
          "name": "",
          "type": "bytes4"
        }
      ],
      "stateMutability": "nonpayable",
      "type": "function"
    },
    {
      "inputs": [
        {
          "internalType": "address",
          "name": "operator",
          "type": "address"
        },
        {
          "internalType": "address",
          "name": "from",
          "type": "address"
        },
        {
          "internalType": "uint256",
          "name": "id",
          "type": "uint256"
        },
        {
          "internalType": "uint256",
          "name": "value",
          "type": "uint256"
        },
        {
          "internalType": "bytes",
          "name": "data",
          "type": "bytes"
        }
      ],
      "name": "onERC1155Received",
      "outputs": [
        {
          "internalType": "bytes4",
          "name": "",
          "type": "bytes4"
        }
      ],
      "stateMutability": "nonpayable",
      "type": "function"
    },
    {
      "inputs": [
        {
          "internalType": "uint256",
          "name": "_index",
          "type": "uint256"
        }
      ],
      "name": "prepareSolve",
      "outputs": [],
      "stateMutability": "nonpayable",
      "type": "function"
    },
    {
      "inputs": [
        {
          "internalType": "uint256",
          "name": "_index",
          "type": "uint256"
        },
        {
          "internalType": "uint256[]",
          "name": "_payouts",
          "type": "uint256[]"
        }
      ],
      "name": "proposePayouts",
      "outputs": [],
      "stateMutability": "nonpayable",
      "type": "function"
    },
    {
      "inputs": [
        {
          "internalType": "contract IERC20",
          "name": "_collateralToken",
          "type": "address"
        },
        {
          "internalType": "bytes32",
          "name": "_parentCollectionId",
          "type": "bytes32"
        },
        {
          "internalType": "bytes32",
          "name": "_conditionId",
          "type": "bytes32"
        },
        {
          "internalType": "uint256[]",
          "name": "_indexSets",
          "type": "uint256[]"
        }
      ],
      "name": "redeemPosition",
      "outputs": [],
      "stateMutability": "nonpayable",
      "type": "function"
    },
    {
      "inputs": [
        {
          "internalType": "bytes32",
          "name": "_slot",
          "type": "bytes32"
        },
        {
          "internalType": "uint256",
          "name": "_chainIndex",
          "type": "uint256"
        }
      ],
      "name": "registerOutgoingCallback",
      "outputs": [],
      "stateMutability": "nonpayable",
      "type": "function"
    },
    {
      "inputs": [
        {
          "internalType": "string",
          "name": "cid",
          "type": "string"
        },
        {
          "internalType": "bytes32",
          "name": "conditionId",
          "type": "bytes32"
        }
      ],
      "name": "sendMessage",
      "outputs": [],
      "stateMutability": "nonpayable",
      "type": "function"
    },
    {
      "inputs": [
        {
          "internalType": "bytes32",
          "name": "_trackingId",
          "type": "bytes32"
        }
      ],
      "name": "setTrackingId",
      "outputs": [],
      "stateMutability": "nonpayable",
      "type": "function"
    },
    {
      "inputs": [
        {
          "internalType": "string",
          "name": "cid",
          "type": "string"
        },
        {
          "internalType": "bytes32",
          "name": "conditionId",
          "type": "bytes32"
        }
      ],
      "name": "submitWork",
      "outputs": [],
      "stateMutability": "nonpayable",
      "type": "function"
    },
    {
      "inputs": [
        {
          "internalType": "bytes4",
          "name": "interfaceId",
          "type": "bytes4"
        }
      ],
      "name": "supportsInterface",
      "outputs": [
        {
          "internalType": "bool",
          "name": "",
          "type": "bool"
        }
      ],
      "stateMutability": "view",
      "type": "function"
    },
    {
      "inputs": [
        {
          "internalType": "uint256",
          "name": "",
          "type": "uint256"
        }
      ],
      "name": "timelocks",
      "outputs": [
        {
          "internalType": "uint256",
          "name": "",
          "type": "uint256"
        }
      ],
      "stateMutability": "view",
      "type": "function"
    },
    {
      "inputs": [],
      "name": "trackingId",
      "outputs": [
        {
          "internalType": "bytes32",
          "name": "",
          "type": "bytes32"
        }
      ],
      "stateMutability": "view",
      "type": "function"
    },
    {
      "inputs": [],
      "name": "writer",
      "outputs": [
        {
          "internalType": "address",
          "name": "",
          "type": "address"
        }
      ],
      "stateMutability": "view",
      "type": "function"
    }
  ],
  "bytecode": "0x608060405234801561001057600080fd5b50615d7480620000216000396000f3fe608060405234801561001057600080fd5b50600436106101ee5760003560e01c806301ffc9a7146101f35780630944e26e1461021c578063098b37f71461023c5780630d06101a1461025c5780630d7e149f146102715780630d8d39751461029157806318782559146102a457806326c50007146102b75780633837b05e146102db5780633cd07f41146102ee5780633f4fb5aa1461030157806344c3b60714610321578063453a2abc1461033457806348cbb2fc1461033c5780634a77234e146103445780634dab5e69146103575780634e46f2231461036a578063506da0b81461037d57806354f6127f1461039057806355dd978b146103a35780635c622a0e146103ab5780636cc6cde1146103cb5780637150d8ae146103d357806379502c55146103db5780637c123627146103f557806380b204b71461040a57806380c2dde21461041d5780638602ce1b1461042557806387dfee57146104385780638bc3a08f1461044b578063999925061461045e578063aced166114610466578063b992db0f1461046e578063bc197c8114610481578063c05bc731146104a1578063c08d6f01146104b4578063c3f909d4146104d4578063c98c05b7146104e9578063de3a23c5146104f1578063df33cc5114610504578063ea8221a914610517578063f23a6e611461051f575b600080fd5b610206610201366004613c29565b610532565b60405161021391906149eb565b60405180910390f35b61022f61022a366004613e31565b61055f565b6040516102139190614556565b61024f61024a366004613b37565b610685565b604051610213919061478c565b61026f61026a366004613b37565b6106f1565b005b61028461027f366004613b37565b61072d565b60405161021391906149f6565b61026f61029f366004613b37565b61074e565b61026f6102b2366004613cc3565b6108b9565b6102ca6102c5366004613b37565b610953565b604051610213959493929190614a6e565b61022f6102e9366004613b37565b6109a1565b61026f6102fc366004613d2a565b610acf565b61031461030f366004613b37565b610b67565b6040516102139190614a22565b61020661032f366004613b37565b610c63565b61022f610cf3565b610284610d02565b61026f610352366004613b37565b610d08565b61026f610365366004613b37565b610feb565b61026f610378366004613b37565b61118a565b61020661038b366004613aec565b611265565b61031461039e366004613b37565b6113c9565b61022f6113e9565b6103be6103b9366004613b37565b6113f8565b6040516102139190614afa565b61022f611438565b61022f611447565b6103e3611456565b60405161021396959493929190614aa0565b6103fd6116e1565b6040516102139190614839565b61026f610418366004613e6b565b611810565b61022f611978565b61026f610433366004613b8a565b611987565b61026f610446366004613eb4565b611a5c565b61026f61045936600461393d565b611c16565b610206611db7565b61022f611e4b565b61026f61047c366004613b37565b611e5a565b61049461048f3660046139b9565b61203a565b6040516102139190614a0d565b61026f6104af366004613d2a565b61204e565b6104c76104c2366004613b37565b612130565b60405161021391906147d9565b6104dc612215565b6040516102139190615027565b61028461262e565b61026f6104ff366004613b37565b6126af565b61026f610512366004613c08565b612a21565b610284612b2c565b61049461052d366004613a73565b612b32565b60006001600160e01b03198216630271189760e51b1480610557575061055782612b45565b90505b919050565b6004546000906001600160a01b031633146105955760405162461bcd60e51b815260040161058c90614f44565b60405180910390fd5b6012546001600160a01b0316156105be5760405162461bcd60e51b815260040161058c90614bb9565b6000546013546015546040516386a2d22760e01b815273__$94d7d2f22770e4b0d1a2b99fb2812308e2$__936386a2d2279361061093620100009092046001600160a01b031692889290600401614696565b60206040518083038186803b15801561062857600080fd5b505af415801561063c573d6000803e3d6000fd5b505050506040513d601f19601f820116820180604052508101906106609190613921565b601280546001600160a01b0319166001600160a01b0392831617908190551692915050565b6000818152601860209081526040918290208054835181840281018401909452808452606093928301828280156106e557602002820191906000526020600020905b81546001600160a01b031681526001909101906020018083116106c7575b50505050509050919050565b601554156107115760405162461bcd60e51b815260040161058c90614f95565b6002546001600160a01b0316331461072857600080fd5b601555565b6014818154811061073d57600080fd5b600091825260209091200154905081565b6014818154811061076f57634e487b7160e01b600052603260045260246000fd5b906000526020600020015442116107985760405162461bcd60e51b815260040161058c90614d04565b6002601082815481106107bb57634e487b7160e01b600052603260045260246000fd5b60009182526020909120600560069092020181015460ff16908111156107f157634e487b7160e01b600052602160045260246000fd5b1461080e5760405162461bcd60e51b815260040161058c90614e84565b6001546010805473__$94d7d2f22770e4b0d1a2b99fb2812308e2$__926385c92867926001600160a01b03909116918590811061085b57634e487b7160e01b600052603260045260246000fd5b90600052602060002090600602016040518363ffffffff1660e01b8152600401610886929190614620565b60006040518083038186803b15801561089e57600080fd5b505af41580156108b2573d6000803e3d6000fd5b5050505050565b6004546001600160a01b031633146108e35760405162461bcd60e51b815260040161058c90614cdf565b600154604051626dc0df60e21b81526001600160a01b03909116906301b7037c9061091a9088908890889088908890600401614a35565b600060405180830381600087803b15801561093457600080fd5b505af1158015610948573d6000803e3d6000fd5b505050505050505050565b6010818154811061096357600080fd5b6000918252602090912060069091020180546001820154600283015460038401546005909401546001600160a01b0390931694509092909160ff1685565b60006013548214156109b457503061055a565b601354821015610a4557601154604051631c1bd82f60e11b81526001600160a01b0390911690633837b05e906109ee9085906004016149f6565b60206040518083038186803b158015610a0657600080fd5b505afa158015610a1a573d6000803e3d6000fd5b505050506040513d601f19601f82011682018060405250810190610a3e9190613921565b905061055a565b60135482111561055a57601254604051631c1bd82f60e11b81526001600160a01b0390911690633837b05e90610a7f9085906004016149f6565b60206040518083038186803b158015610a9757600080fd5b505afa158015610aab573d6000803e3d6000fd5b505050506040513d601f19601f820116820180604052508101906105579190613921565b6004546001600160a01b0316331480610af257506005546001600160a01b031633145b80610b075750601c546001600160a01b031633145b80610b1c5750601d546001600160a01b031633145b610b2557600080fd5b7f0a68dfc3d2deb2d1042207bd18d04cd94b7ae50b8dd6735129aff86f18bfa8cd83833384604051610b5a9493929190614b08565b60405180910390a1505050565b6010546000828152601a602052604090205460609114610b995760405162461bcd60e51b815260040161058c90614e08565b6000828152601a602052604090208054610bb59060019061547b565b81548110610bd357634e487b7160e01b600052603260045260246000fd5b906000526020600020018054610be89061579f565b80601f0160208091040260200160405190810160405280929190818152602001828054610c149061579f565b80156106e55780601f10610c36576101008083540402835291602001916106e5565b820191906000526020600020905b815481529060010190602001808311610c445750939695505050505050565b6040516336d39c6160e11b815260009073__$94d7d2f22770e4b0d1a2b99fb2812308e2$__90636da738c290610ca3908590601a90600990600401615101565b60206040518083038186803b158015610cbb57600080fd5b505af4158015610ccf573d6000803e3d6000fd5b505050506040513d601f19601f820116820180604052508101906105579190613b17565b601c546001600160a01b031681565b60155481565b60105415610d4f576004546001600160a01b0316331480610d3357506011546001600160a01b031633145b610d4f5760405162461bcd60e51b815260040161058c90614f69565b6010548114610d705760405162461bcd60e51b815260040161058c90614c88565b60175415610d905760405162461bcd60e51b815260040161058c90614eb2565b60165415610db05760405162461bcd60e51b815260040161058c90614ee7565b6001546011546010805460405163699e0add60e01b8152919373__$94d7d2f22770e4b0d1a2b99fb2812308e2$__9363699e0add93610e02936001600160a01b0393841693600993169160040161456a565b60006040518083038186803b158015610e1a57600080fd5b505af4158015610e2e573d6000803e3d6000fd5b505050506040513d6000823e601f3d908101601f19168201604052610e569190810190613d73565b8154600180820184556000938452602093849020835160069093020180546001600160a01b0319166001600160a01b03909316929092178255828401519082015560408201516002820155606082015160038201556080820151805192939192610ec69260048501920190613656565b5060a08201518160050160006101000a81548160ff02191690836005811115610eff57634e487b7160e01b600052602160045260246000fd5b0217905550506014805460018101825560009182527fce6d7b5282bd9a3661ae061feed1dbda4e52ab073b1f9285be6e155d9c38d4ec015550610f40612b5e565b7f152ec8ae15d347b2d2a8f0858caa29bcaaa0906749a1f43e08bfe799834602403082604051610f71929190614620565b60405180910390a16012546001600160a01b031615610fe85760125460405163253b91a760e11b81526001600160a01b0390911690634a77234e90610fba9084906004016149f6565b600060405180830381600087803b158015610fd457600080fd5b505af11580156108b2573d6000803e3d6000fd5b50565b6005546001600160a01b031633146110155760405162461bcd60e51b815260040161058c90614e33565b60026010828154811061103857634e487b7160e01b600052603260045260246000fd5b60009182526020909120600560069092020181015460ff169081111561106e57634e487b7160e01b600052602160045260246000fd5b14806110d0575060036010828154811061109857634e487b7160e01b600052603260045260246000fd5b60009182526020909120600560069092020181015460ff16908111156110ce57634e487b7160e01b600052602160045260246000fd5b145b6110ec5760405162461bcd60e51b815260040161058c90614f1c565b73__$94d7d2f22770e4b0d1a2b99fb2812308e2$__6324b286026010838154811061112757634e487b7160e01b600052603260045260246000fd5b90600052602060002090600602016040518263ffffffff1660e01b815260040161115191906149f6565b60006040518083038186803b15801561116957600080fd5b505af415801561117d573d6000803e3d6000fd5b50505050610fe881612e28565b6005546001600160a01b031633146111b45760405162461bcd60e51b815260040161058c90614e33565b6003601082815481106111d757634e487b7160e01b600052603260045260246000fd5b60009182526020909120600560069092020181015460ff169081111561120d57634e487b7160e01b600052602160045260246000fd5b1461122a5760405162461bcd60e51b815260040161058c90614d88565b73__$94d7d2f22770e4b0d1a2b99fb2812308e2$__6359111fb56010838154811061112757634e487b7160e01b600052603260045260246000fd5b6000805b600e548110156113bd57600e8054600091601a918391908590811061129e57634e487b7160e01b600052603260045260246000fd5b906000526020600020906002020160000154815260200190815260200160002084815481106112dd57634e487b7160e01b600052603260045260246000fd5b9060005260206000200180546112f29061579f565b80601f016020809104026020016040519081016040528092919081815260200182805461131e9061579f565b801561136b5780601f106113405761010080835404028352916020019161136b565b820191906000526020600020905b81548152906001019060200180831161134e57829003601f168201915b50505050508060200190518101906113839190613921565b9050806001600160a01b0316856001600160a01b031614156113aa576001925050506113c3565b50806113b5816157e7565b915050611269565b50600090505b92915050565b6000818152601a60205260409020805460609190610bb59060019061547b565b6012546001600160a01b031681565b60006010828154811061141b57634e487b7160e01b600052603260045260246000fd5b600091825260209091206005600690920201015460ff1692915050565b6005546001600160a01b031690565b601d546001600160a01b031681565b60038054600454600554600654600780546001600160a01b0395861696948616959093169391926114869061579f565b80601f01602080910402602001604051908101604052809291908181526020018280546114b29061579f565b80156114ff5780601f106114d4576101008083540402835291602001916114ff565b820191906000526020600020905b8154815290600101906020018083116114e257829003601f168201915b50506040805160e0810182526006870180546001600160a01b03168252600788015460208084019190915260088901548385015260098901546060840152600a8901805485518184028101840190965280865298999893975091955060808701945090919083018282801561159357602002820191906000526020600020905b81548152602001906001019080831161157f575b5050505050815260200160058201805480602002602001604051908101604052809291908181526020016000905b828210156116555783829060005260206000209060020201604051806040016040529081600082015481526020016001820180548060200260200160405190810160405280929190818152602001828054801561163d57602002820191906000526020600020905b815481526020019060010190808311611629575b505050505081525050815260200190600101906115c1565b50505050815260200160068201805480602002602001604051908101604052809291908181526020016000905b828210156116d457600084815260209081902060408051606081018252600286029092018054835260019081015460ff8082168587015261010090910416918301919091529083529092019101611682565b5050505081525050905086565b60606010805480602002602001604051908101604052809291908181526020016000905b828210156118075760008481526020908190206040805160c0810182526006860290920180546001600160a01b0316835260018101548385015260028101548383015260038101546060840152600481018054835181870281018701909452808452939491936080860193928301828280156117a057602002820191906000526020600020905b81548152602001906001019080831161178c575b505050918352505060058281015460209092019160ff16908111156117d557634e487b7160e01b600052602160045260246000fd5b60058111156117f457634e487b7160e01b600052602160045260246000fd5b8152505081526020019060010190611705565b50505050905090565b6004546001600160a01b0316331461183a5760405162461bcd60e51b815260040161058c90614cdf565b600a54811461185b5760405162461bcd60e51b815260040161058c90614be3565b60016010848154811061187e57634e487b7160e01b600052603260045260246000fd5b60009182526020909120600560069092020181015460ff16908111156118b457634e487b7160e01b600052602160045260246000fd5b146118d15760405162461bcd60e51b815260040161058c90614c29565b73__$94d7d2f22770e4b0d1a2b99fb2812308e2$__636a0a24f16010858154811061190c57634e487b7160e01b600052603260045260246000fd5b906000526020600020906006020184846040518463ffffffff1660e01b815260040161193a9392919061500d565b60006040518083038186803b15801561195257600080fd5b505af4158015611966573d6000803e3d6000fd5b5050505061197383612e28565b505050565b6011546001600160a01b031681565b6004546001600160a01b031633146119b15760405162461bcd60e51b815260040161058c90614b68565b6000828152601b6020526040902054600880546003929081106119e457634e487b7160e01b600052603260045260246000fd5b600091825260209091206001600590920201015460ff166003811115611a1a57634e487b7160e01b600052602160045260246000fd5b14611a375760405162461bcd60e51b815260040161058c90614b38565b611a418282612e70565b604051600080516020615d1f83398151915290600090a15050565b6005546001600160a01b03163314611a865760405162461bcd60e51b815260040161058c90614e33565b600360108381548110611aa957634e487b7160e01b600052603260045260246000fd5b60009182526020909120600560069092020181015460ff1690811115611adf57634e487b7160e01b600052602160045260246000fd5b14611afc5760405162461bcd60e51b815260040161058c90614d88565b60148281548110611b1d57634e487b7160e01b600052603260045260246000fd5b90600052602060002001544211611b465760405162461bcd60e51b815260040161058c90614d04565b600a54815114611b685760405162461bcd60e51b815260040161058c90614be3565b6001546010805473__$94d7d2f22770e4b0d1a2b99fb2812308e2$__92631b948e49926001600160a01b039091169186908110611bb557634e487b7160e01b600052603260045260246000fd5b9060005260206000209060060201846040518463ffffffff1660e01b8152600401611be293929190614639565b60006040518083038186803b158015611bfa57600080fd5b505af4158015611c0e573d6000803e3d6000fd5b505050505050565b600054610100900460ff1680611c2f575060005460ff16155b611c4b5760405162461bcd60e51b815260040161058c90614dba565b600054610100900460ff16158015611c76576000805460ff1961ff0019909116610100171660011790555b6000611c8860408401602085016138fe565b6001600160a01b03161415611caf5760405162461bcd60e51b815260040161058c90614e5c565b600280546001600160a01b03199081166001600160a01b03898116919091179092556000805462010000600160b01b031916336201000002179055600180548216888416179055601180549091169186169190911790556013839055816003611d1882826159f0565b90505060005b611d2b60a0840184615117565b9050811015611d9d5780601b6000611d4660a0870187615117565b85818110611d6457634e487b7160e01b600052603260045260246000fd5b9050602002810190611d76919061521b565b60409081013582526020820192909252016000205580611d95816157e7565b915050611d1e565b508015611c0e576000805461ff0019169055505050505050565b601054604051635cc1f6b560e01b815260009173__$94d7d2f22770e4b0d1a2b99fb2812308e2$__91635cc1f6b591611df691600891906004016148df565b60206040518083038186803b158015611e0e57600080fd5b505af4158015611e22573d6000803e3d6000fd5b505050506040513d601f19601f82011682018060405250810190611e469190613b17565b905090565b6004546001600160a01b031690565b611e62611db7565b1515600114611e835760405162461bcd60e51b815260040161058c90614d33565b73__$94d7d2f22770e4b0d1a2b99fb2812308e2$__632dd4082482600160009054906101000a90046001600160a01b031660108581548110611ed557634e487b7160e01b600052603260045260246000fd5b60009182526020808320601554601154600c548652601a938490526040909520805460069095029092019460099491926001600160a01b03909116918b908110611f2f57634e487b7160e01b600052603260045260246000fd5b906000526020600020018054611f449061579f565b80601f0160208091040260200160405190810160405280929190818152602001828054611f709061579f565b8015611fbd5780601f10611f9257610100808354040283529160200191611fbd565b820191906000526020600020905b815481529060010190602001808311611fa057829003601f168201915b5050505050806020019051810190611fd59190613b4f565b6040518963ffffffff1660e01b8152600401611ff89897969594939291906150bd565b60006040518083038186803b15801561201057600080fd5b505af4158015612024573d6000803e3d6000fd5b5050505061203181612ee7565b610fe88161317f565b63bc197c8160e01b98975050505050505050565b601c546001600160a01b031633146120785760405162461bcd60e51b815260040161058c90614cba565b60016010805461208a9060019061547b565b815481106120a857634e487b7160e01b600052603260045260246000fd5b60009182526020909120600560069092020181015460ff16908111156120de57634e487b7160e01b600052602160045260246000fd5b146120fb5760405162461bcd60e51b815260040161058c90614feb565b7f7399fd48fdfaf111111c20e282a8837c6803b6631b3b7b5e30b3b97d682d21b683833384604051610b5a9493929190614b08565b6000818152601a60209081526040808320805482518185028101850190935280835260609492939192909184015b8282101561220a57838290600052602060002001805461217d9061579f565b80601f01602080910402602001604051908101604052809291908181526020018280546121a99061579f565b80156121f65780601f106121cb576101008083540402835291602001916121f6565b820191906000526020600020905b8154815290600101906020018083116121d957829003601f168201915b50505050508152602001906001019061215e565b505050509050919050565b61221d6136a1565b6040805160e081018252600380546001600160a01b03908116835260045481166020840152600554169282019290925260065460608201526007805491929160808401919061226b9061579f565b80601f01602080910402602001604051908101604052809291908181526020018280546122979061579f565b80156122e45780601f106122b9576101008083540402835291602001916122e4565b820191906000526020600020905b8154815290600101906020018083116122c757829003601f168201915b5050505050815260200160058201805480602002602001604051908101604052809291908181526020016000905b8282101561244957838290600052602060002090600502016040518060a0016040529081600082015481526020016001820160009054906101000a900460ff16600381111561237157634e487b7160e01b600052602160045260246000fd5b600381111561239057634e487b7160e01b600052602160045260246000fd5b815260200160028201548152602001600382015481526020016004820180546123b89061579f565b80601f01602080910402602001604051908101604052809291908181526020018280546123e49061579f565b80156124315780601f1061240657610100808354040283529160200191612431565b820191906000526020600020905b81548152906001019060200180831161241457829003601f168201915b50505050508152505081526020019060010190612312565b505050908252506040805160e0810182526006840180546001600160a01b03168252600785015460208381019190915260088601548385015260098601546060840152600a8601805485518184028101840190965280865295820195939492936080860193928301828280156124de57602002820191906000526020600020905b8154815260200190600101908083116124ca575b5050505050815260200160058201805480602002602001604051908101604052809291908181526020016000905b828210156125a05783829060005260206000209060020201604051806040016040529081600082015481526020016001820180548060200260200160405190810160405280929190818152602001828054801561258857602002820191906000526020600020905b815481526020019060010190808311612574575b5050505050815250508152602001906001019061250c565b50505050815260200160068201805480602002602001604051908101604052809291908181526020016000905b8282101561261f57600084815260209081902060408051606081018252600286029092018054835260019081015460ff80821685870152610100909104169183019190915290835290920191016125cd565b50505091525050905250905090565b6009546040516370a0823160e01b81526000916001600160a01b0316906370a082319061265f903090600401614556565b60206040518083038186803b15801561267757600080fd5b505afa15801561268b573d6000803e3d6000fd5b505050506040513d601f19601f82011682018060405250810190611e469190613b4f565b600033826040516020016126c4929190614539565b60408051601f198184030181529181528151602092830120600081815260199093529120546008805492935061272a92909190811061271357634e487b7160e01b600052603260045260246000fd5b9060005260206000209060050201600301546109a1565b6001600160a01b0316336001600160a01b03161461275a5760405162461bcd60e51b815260040161058c90614c59565b60008181526019602052604081205460088054909190811061278c57634e487b7160e01b600052603260045260246000fd5b600091825260209091206001600590920201015460ff1660038111156127c257634e487b7160e01b600052602160045260246000fd5b146127df5760405162461bcd60e51b815260040161058c90614b8c565b60008181526019602052604090205460088054909190811061281157634e487b7160e01b600052603260045260246000fd5b60009182526020822060059091020180549161282c836157e7565b9091555050600081815260196020526040902054600880546129e29290811061286557634e487b7160e01b600052603260045260246000fd5b906000526020600020906005020160020154336001600160a01b0316633f4fb5aa60036005016016600301600087815260200190815260200160002054815481106128c057634e487b7160e01b600052603260045260246000fd5b906000526020600020906005020160040180546128dc9061579f565b80601f01602080910402602001604051908101604052809291908181526020018280546129089061579f565b80156129555780601f1061292a57610100808354040283529160200191612955565b820191906000526020600020905b81548152906001019060200180831161293857829003601f168201915b505050505080602001905181019061296d9190613b4f565b6040518263ffffffff1660e01b815260040161298991906149f6565b60006040518083038186803b1580156129a157600080fd5b505afa1580156129b5573d6000803e3d6000fd5b505050506040513d6000823e601f3d908101601f191682016040526129dd9190810190613c51565b612e70565b60008181526019602052604081208190556016805491612a0183615788565b9091555050604051600080516020615d1f83398151915290600090a15050565b612a2a816109a1565b6001600160a01b0316336001600160a01b031614612a5a5760405162461bcd60e51b815260040161058c90614c59565b6000828152601a602052604090205415801590612a8657506010546000838152601a6020526040902054145b15612ae55760405163de3a23c560e01b8152339063de3a23c590612aae9085906004016149f6565b600060405180830381600087803b158015612ac857600080fd5b505af1158015612adc573d6000803e3d6000fd5b50505050612b28565b6000828152601860209081526040822080546001810182559083529082200180546001600160a01b031916331790556017805491612b22836157e7565b91905055505b5050565b60135481565b63f23a6e6160e01b5b9695505050505050565b6001600160e01b031981166301ffc9a760e01b14919050565b60005b600854811015612e0e5760006008805483908110612b8f57634e487b7160e01b600052603260045260246000fd5b600091825260209091206001600590920201015460ff166003811115612bc557634e487b7160e01b600052602160045260246000fd5b14612c0957612c0460036005018281548110612bf157634e487b7160e01b600052603260045260246000fd5b90600052602060002090600502016132d6565b612dfc565b6000306001600160a01b0316633837b05e60036005018481548110612c3e57634e487b7160e01b600052603260045260246000fd5b9060005260206000209060050201600301546040518263ffffffff1660e01b8152600401612c6c91906149f6565b60206040518083038186803b158015612c8457600080fd5b505afa158015612c98573d6000803e3d6000fd5b505050506040513d601f19601f82011682018060405250810190612cbc9190613921565b9050612cc881836133ca565b806001600160a01b031663df33cc5160036005018481548110612cfb57634e487b7160e01b600052603260045260246000fd5b90600052602060002090600502016004018054612d179061579f565b80601f0160208091040260200160405190810160405280929190818152602001828054612d439061579f565b8015612d905780601f10612d6557610100808354040283529160200191612d90565b820191906000526020600020905b815481529060010190602001808311612d7357829003601f168201915b5050505050806020019051810190612da89190613b4f565b6013546040518363ffffffff1660e01b8152600401612dc89291906149ff565b600060405180830381600087803b158015612de257600080fd5b505af1158015612df6573d6000803e3d6000fd5b50505050505b80612e06816157e7565b915050612b61565b50604051600080516020615d1f83398151915290600090a1565b600654612e3690600161545c565b612e409042615444565b60148281548110612e6157634e487b7160e01b600052603260045260246000fd5b60009182526020909120015550565b601054612e7f9060019061547b565b6000838152601a602052604090205414612eab5760405162461bcd60e51b815260040161058c90614fbd565b6000828152601a6020908152604082208054600181018255908352918190208351612edd9391909101918401906136fe565b50612b28826134ee565b60008060036004018054612efa9061579f565b80601f0160208091040260200160405190810160405280929190818152602001828054612f269061579f565b8015612f735780601f10612f4857610100808354040283529160200191612f73565b820191906000526020600020905b815481529060010190602001808311612f5657829003601f168201915b5050505050806020019051810190612f8b9190613b67565b6000828152601a6020526040902080549294509092509084908110612fc057634e487b7160e01b600052603260045260246000fd5b906000526020600020018054612fd59061579f565b80601f01602080910402602001604051908101604052809291908181526020018280546130019061579f565b801561304e5780601f106130235761010080835404028352916020019161304e565b820191906000526020600020905b81548152906001019060200180831161303157829003601f168201915b50505050508060200190518101906130669190613921565b601c80546001600160a01b0319166001600160a01b03929092169190911790556000818152601a602052604090208054849081106130b457634e487b7160e01b600052603260045260246000fd5b9060005260206000200180546130c99061579f565b80601f01602080910402602001604051908101604052809291908181526020018280546130f59061579f565b80156131425780601f1061311757610100808354040283529160200191613142565b820191906000526020600020905b81548152906001019060200180831161312557829003601f168201915b505050505080602001905181019061315a9190613921565b601d80546001600160a01b0319166001600160a01b0392909216919091179055505050565b6012546001600160a01b03161580159061321a5750601260009054906101000a90046001600160a01b03166001600160a01b031663999925066040518163ffffffff1660e01b815260040160206040518083038186803b1580156131e257600080fd5b505afa1580156131f6573d6000803e3d6000fd5b505050506040513d601f19601f8201168201806040525081019061321a9190613b17565b80156132a157506012546040516344c3b60760e01b81526001600160a01b03909116906344c3b607906132519084906004016149f6565b60206040518083038186803b15801561326957600080fd5b505afa15801561327d573d6000803e3d6000fd5b505050506040513d601f19601f820116820180604052508101906132a19190613b17565b15610fe85760125460405163b992db0f60e01b81526001600160a01b039091169063b992db0f90610fba9084906004016149f6565b600181015460039060ff16818111156132ff57634e487b7160e01b600052602160045260246000fd5b111561331d5760405162461bcd60e51b815260040161058c90614d5c565b805481600061332b836157e7565b9091555060039050600182015460ff16600381111561335a57634e487b7160e01b600052602160045260246000fd5b14610fe857610fe8816002015473__$94d7d2f22770e4b0d1a2b99fb2812308e2$__63b3d73707846040518263ffffffff1660e01b815260040161339e91906149f6565b60006040518083038186803b1580156133b657600080fd5b505af41580156129b5573d6000803e3d6000fd5b806016600301600084600360050185815481106133f757634e487b7160e01b600052603260045260246000fd5b906000526020600020906005020160040180546134139061579f565b80601f016020809104026020016040519081016040528092919081815260200182805461343f9061579f565b801561348c5780601f106134615761010080835404028352916020019161348c565b820191906000526020600020905b81548152906001019060200180831161346f57829003601f168201915b50505050508060200190518101906134a49190613b4f565b6040516020016134b5929190614539565b60408051601f198184030181529181528151602092830120835290820192909252016000908120919091556016805491612b22836157e7565b60005b600082815260186020526040902054811015612b2857600082815260186020526040812080548390811061353557634e487b7160e01b600052603260045260246000fd5b6000918252602090912001546001600160a01b03161461364457600082815260186020526040902080548290811061357d57634e487b7160e01b600052603260045260246000fd5b60009182526020909120015460405163de3a23c560e01b81526001600160a01b039091169063de3a23c5906135b69085906004016149f6565b600060405180830381600087803b1580156135d057600080fd5b505af11580156135e4573d6000803e3d6000fd5b505050600083815260186020526040902080549091508290811061361857634e487b7160e01b600052603260045260246000fd5b6000918252602082200180546001600160a01b0319169055601780549161363e83615788565b91905055505b8061364e816157e7565b9150506134f1565b828054828255906000526020600020908101928215613691579160200282015b82811115613691578251825591602001919060010190613676565b5061369d929150613771565b5090565b6040518060e0016040528060006001600160a01b0316815260200160006001600160a01b0316815260200160006001600160a01b031681526020016000815260200160608152602001606081526020016136f9613786565b905290565b82805461370a9061579f565b90600052602060002090601f01602090048101928261372c5760008555613691565b82601f1061374557805160ff1916838001178555613691565b828001600101855582156136915791820182811115613691578251825591602001919060010190613676565b5b8082111561369d5760008155600101613772565b6040518060e0016040528060006001600160a01b031681526020016000815260200160008152602001600080191681526020016060815260200160608152602001606081525090565b803561055a81615ced565b60008083601f8401126137eb578182fd5b5081356001600160401b03811115613801578182fd5b602083019150836020808302850101111561381b57600080fd5b9250929050565b600082601f830112613832578081fd5b8151602061384761384283615259565b615230565b8281528181019085830183850287018401881015613863578586fd5b855b8581101561388157815184529284019290840190600101613865565b5090979650505050505050565b60008083601f84011261389f578182fd5b5081356001600160401b038111156138b5578182fd5b60208301915083602082850101111561381b57600080fd5b805161055a81615ced565b80516006811061055a57600080fd5b600060e082840312156138f8578081fd5b50919050565b60006020828403121561390f578081fd5b813561391a81615ced565b9392505050565b600060208284031215613932578081fd5b815161391a81615ced565b600080600080600060a08688031215613954578081fd5b853561395f81615ced565b9450602086013561396f81615ced565b9350604086013561397f81615ced565b92506060860135915060808601356001600160401b038111156139a0578182fd5b6139ac888289016138e7565b9150509295509295909350565b60008060008060008060008060a0898b0312156139d4578586fd5b88356139df81615ced565b975060208901356139ef81615ced565b965060408901356001600160401b0380821115613a0a578788fd5b613a168c838d016137da565b909850965060608b0135915080821115613a2e578485fd5b613a3a8c838d016137da565b909650945060808b0135915080821115613a52578384fd5b50613a5f8b828c0161388e565b999c989b5096995094979396929594505050565b60008060008060008060a08789031215613a8b578384fd5b8635613a9681615ced565b95506020870135613aa681615ced565b9450604087013593506060870135925060808701356001600160401b03811115613ace578283fd5b613ada89828a0161388e565b979a9699509497509295939492505050565b60008060408385031215613afe578182fd5b8235613b0981615ced565b946020939093013593505050565b600060208284031215613b28578081fd5b8151801515811461391a578182fd5b600060208284031215613b48578081fd5b5035919050565b600060208284031215613b60578081fd5b5051919050565b60008060408385031215613b79578182fd5b505080516020909101519092909150565b60008060408385031215613b9c578182fd5b8235915060208301356001600160401b03811115613bb8578182fd5b8301601f81018513613bc8578182fd5b8035613bd66138428261527c565b818152866020838501011115613bea578384fd5b81602084016020830137908101602001929092525090939092509050565b60008060408385031215613c1a578182fd5b50508035926020909101359150565b600060208284031215613c3a578081fd5b81356001600160e01b03198116811461391a578182fd5b600060208284031215613c62578081fd5b81516001600160401b03811115613c77578182fd5b8201601f81018413613c87578182fd5b8051613c956138428261527c565b818152856020838501011115613ca9578384fd5b613cba826020830160208601615758565b95945050505050565b600080600080600060808688031215613cda578283fd5b8535613ce581615ced565b9450602086013593506040860135925060608601356001600160401b03811115613d0d578182fd5b613d19888289016137da565b969995985093965092949392505050565b600080600060408486031215613d3e578081fd5b83356001600160401b03811115613d53578182fd5b613d5f8682870161388e565b909790965060209590950135949350505050565b600060208284031215613d84578081fd5b81516001600160401b0380821115613d9a578283fd5b9083019060c08286031215613dad578283fd5b60405160c081018181108382111715613dc857613dc8615844565b604052613dd4836138cd565b8152602083015160208201526040830151604082015260608301516060820152608083015182811115613e05578485fd5b613e1187828601613822565b608083015250613e2360a084016138d8565b60a082015295945050505050565b600060208284031215613e42578081fd5b81356001600160401b03811115613e57578182fd5b613e63848285016138e7565b949350505050565b600080600060408486031215613e7f578081fd5b8335925060208401356001600160401b03811115613e9b578182fd5b613ea7868287016137da565b9497909650939450505050565b60008060408385031215613ec6578182fd5b823591506020808401356001600160401b03811115613ee3578283fd5b8401601f81018613613ef3578283fd5b8035613f0161384282615259565b81815283810190838501858402850186018a1015613f1d578687fd5b8694505b83851015613f3f578035835260019490940193918501918501613f21565b5080955050505050509250929050565b6001600160a01b03169052565b81835260006001600160fb1b03831115613f74578081fd5b6020830280836020870137939093016020019283525090919050565b6000815480845260208085018081965082840281019150858552828520855b8581101561401b57828403895281548452604085850181905260018084018054928701839052895286892060608701929091908a905b808210156140025783548552938901939282019290820190613fe5565b5050509986019950935060029190910190600101613faf565b5091979650505050505050565b818352602080840193600091908185020181018584845b8781101561401b5782840389528135609e1988360301811261405f578687fd5b87018035855260a08682013561407481615d02565b61408088880182614304565b50604082810135908701526060808301359087015260806140a3818401846153e2565b935082828901526140b783890185836142ae565b9c89019c9750505092860192505060010161403f565b6000815180845260208085018081965082840281019150828601855b8581101561401b578284038952815160a0815186528682015161410e88880182614304565b50604082810151908701526060808301519087015260809182015191860181905261413b818701836142d8565b9a87019a95505050908401906001016140e9565b60008284526020808501945082825b858110156141a857813587528282013561417781615d0f565b60ff908116888501526040908382013561419081615d0f565b1690880152606096870196919091019060010161415e565b509495945050505050565b6000815180845260208085019450808401835b838110156141a8578151805188528381015160ff908116858a01526040918201511690880152606090960195908201906001016141c6565b6000815480845260208085019450838352808320835b838110156141a8578154875260018083015460ff808216868b015260089190911c16604089015260609097019660029092019101614214565b6000815180845260208085019450808401835b838110156141a857815187529582019590820190600101614260565b6000815480845260208085019450838352808320835b838110156141a857815487529582019560019182019101614292565b60008284528282602086013780602084860101526020601f19601f85011685010190509392505050565b600081518084526142f0816020860160208601615758565b601f01601f19169290920160200192915050565b600481106143145761431461582e565b9052565b600681106143145761431461582e565b6000813561433581615ced565b6001600160a01b0316835260208281013581850152604080840135818601526060808501359086015261436b6080850185615354565b60e0608088015261438060e088018284613f5c565b91505061439060a0860186615354565b87830360a08901528083528483018582028401860183885b8481101561440757868303601f19018452813536879003603e190181126143cd578a8bfd5b8601803584526143df8a820182615354565b9150898b8601526143f38a86018383613f5c565b958b019594505050908801906001016143a8565b505061441660c08a018a61539b565b9750955089810360c08b015261442d81888861414f565b9a9950505050505050505050565b600060018060a01b038251168352602080830151818501526040808401518186015260608085015181870152608085015160e0608088015261448060e088018261424d565b905060a086015187820360a08901528181518084528684019150868782028501018784019350885b8281101561451057858203601f190184528451805183528901518983018990528051898401819052908a01908b90898501905b808310156144fb5783518252928c019260019290920191908c01906144db565b50968b0196958b0195935050506001016144a8565b5060c08a015197508a810360c08c015261452a81896141b3565b9b9a5050505050505050505050565b60609290921b6001600160601b0319168252601482015260340190565b6001600160a01b0391909116815260200190565b600060018060a01b0386168252608060208301526145946080830161458f8754615492565b613f4f565b600185015460a0830152600285015460c0830152600385015460e083015260e06101008301526145cb61016083016004870161427c565b607f1980848303016101208501526145e68260058901613f90565b915080848303016101408501525061460181600688016141fe565b9150506146116040830185613f4f565b82606083015295945050505050565b6001600160a01b03929092168252602082015260400190565b6001600160a01b038416815260208082018490526060604083018190528351908301819052600091848101916080850190845b818110156146885784518352938301939183019160010161466c565b509098975050505050505050565b6001600160a01b038516815260806020820152600084356146b681615ced565b6146c36080840182613f4f565b506146d0602086016137cf565b6146dd60a0840182613f4f565b506146ea604086016137cf565b6146f760c0840182613f4f565b50606085013560e083015261470f60808601866153e2565b60e0610100850152614726610160850182846142ae565b91505061473660a0870187615354565b607f19808685030161012087015261474f848385614028565b935061475e60c08a018a615426565b9250808685030161014087015250506147778282614328565b60408501969096525050506060015292915050565b6020808252825182820181905260009190848201906040850190845b818110156147cd5783516001600160a01b0316835292840192918401916001016147a8565b50909695505050505050565b6000602080830181845280855180835260408601915060408482028701019250838701855b8281101561482c57603f1988860301845261481a8583516142d8565b945092850192908501906001016147fe565b5092979650505050505050565b60208082528251828201819052600091906040908185019080840286018301878501865b8381101561468857888303603f19018552815180516001600160a01b03168452878101518885015286810151878501526060808201519085015260808082015160c082870181905291906148b38388018261424d565b9250505060a08083015192506148cb81870184614318565b50958801959350509086019060010161485d565b60006040808301818452808654808352606086019150602092506060838202870101888652838620865b838110156149d857605f1989840301855260a082548452600160ff818501541661493589870182614304565b5060028401548986015260038401546060860152600484018260808701528a815461495f8161579f565b94880185905260c094818516801561497e5760018114614992576149bd565b60ff1983168a88015260e08a0193506149bd565b848f528c8f208f5b838110156149b55781548c82018a0152908701908e0161499a565b8b0188019450505b50505097890197955050506005929092019150600101614909565b5050929095019590955295945050505050565b901515815260200190565b90815260200190565b918252602082015260400190565b6001600160e01b031991909116815260200190565b60006020825261391a60208301846142d8565b600060018060a01b038716825285602083015284604083015260806060830152614a63608083018486613f5c565b979650505050505050565b6001600160a01b038616815260208101859052604081018490526060810183905260a08101612b3b6080830184614318565b6001600160a01b0387811682528681166020830152851660408201526060810184905260c060808201819052600090614adb908301856142d8565b82810360a0840152614aed818561443b565b9998505050505050505050565b602081016113c38284614318565b600060608252614b1c6060830186886142ae565b6001600160a01b03949094166020830152506040015292915050565b6020808252601690820152751bdb9b1e48125b99d95cdd151e5c194b93585b9d585b60521b604082015260600190565b6020808252600a908201526927b7363ca5b2b2b832b960b11b604082015260600190565b602080825260139082015272496e67657374206e6f742043616c6c6261636b60681b604082015260600190565b60208082526010908201526f14dbdb1d995c881a185cc818da1a5b1960821b604082015260600190565b60208082526026908201527f7061796f7574732e6c656e677468206d757374206d61746368206f7574636f6d60408201526565536c6f747360d01b606082015260800190565b60208082526016908201527510dbdb991a5d1a5bdb881b9bdd08115e1958dd5d195960521b604082015260600190565b60208082526015908201527436b9b39739b2b73232b9103737ba1039b7b63b32b960591b604082015260600190565b602080825260189082015277496e76616c696420696e64657820746f207072657061726560401b604082015260600190565b6020808252600b908201526a27b7363c902bb934ba32b960a91b604082015260600190565b6020808252600b908201526a27b7363c9025b2b2b832b960a91b604082015260600190565b602080825260159082015274151a5b595b1bd8dac81cdd1a5b1b081b1bd8dad959605a1b604082015260600190565b6020808252600f908201526e1a5b99d95cdd1cc81a5b9d985b1a59608a1b604082015260600190565b602080825260129082015271496e76616c696420696e676573745479706560701b604082015260600190565b602080825260189082015277139bdd08105c989a5d1c985d1a5bdb94995c5d595cdd195960421b604082015260600190565b6020808252602e908201527f496e697469616c697a61626c653a20636f6e747261637420697320616c72656160408201526d191e481a5b9a5d1a585b1a5e995960921b606082015260800190565b60208082526011908201527029b637ba1034b73b30b634b2103b32b91760791b604082015260600190565b6020808252600f908201526e27b7363c9030b93134ba3930ba37b960891b604082015260600190565b6020808252600e908201526d12d9595c195c881a5b9d985b1a5960921b604082015260600190565b60208082526014908201527313dd5d18dbdb59481b9bdd081c1c9bdc1bdcd95960621b604082015260600190565b6020808252818101527f46756c66696c6c206f7574676f696e672063616c6c6261636b73206669727374604082015260600190565b6020808252818101527f46756c66696c6c20696e636f6d696e672063616c6c6261636b73206669727374604082015260600190565b6020808252600e908201526d10d85b9b9bdd081c995c5d595cdd60921b604082015260600190565b6020808252600b908201526a27b7363c9035b2b2b832b960a91b604082015260600190565b60208082526012908201527113db9b1e481ad9595c195c8bdc185c995b9d60721b604082015260600190565b6020808252600e908201526d151c9858dada5b99d259081cd95d60921b604082015260600190565b60208082526014908201527314db1bdd081d995c9cda5bdb881a5b9d985b1a5960621b604082015260600190565b602080825260089082015267111a5cd8589b195960c21b604082015260600190565b600084825260406020830152613cba604083018486613f5c565b60006020825260018060a01b0380845116602084015280602085015116604084015250604083015161505c6060840182613f4f565b5060608301516080830152608083015160e060a08401526150816101008401826142d8565b905060a0840151601f19808584030160c086015261509f83836140cd565b925060c08601519150808584030160e086015250613cba828261443b565b9788526001600160a01b03968716602089015260408801959095526060870193909352608086019190915260a085015290911660c083015260e08201526101000190565b9283526020830191909152604082015260600190565b6000808335601e1984360301811261512d578283fd5b8301803591506001600160401b03821115615146578283fd5b602090810192508102360382131561381b57600080fd5b6000808335601e19843603018112615173578283fd5b8301803591506001600160401b0382111561518c578283fd5b602001915060608102360382131561381b57600080fd5b6000808335601e198436030181126151b9578283fd5b8301803591506001600160401b038211156151d2578283fd5b60200191503681900382131561381b57600080fd5b60008235603e198336030181126151fc578182fd5b9190910192915050565b6000823560de198336030181126151fc578182fd5b60008235609e198336030181126151fc578182fd5b6040518181016001600160401b038111828210171561525157615251615844565b604052919050565b60006001600160401b0382111561527257615272615844565b5060209081020190565b60006001600160401b0382111561529557615295615844565b50601f01601f191660200190565b60009081526020902090565b60208410801561530557601f8411600181146152d6576152cf86856157d4565b83556152ff565b6152df836152a3565b6152f46020601f88010482016001830161549e565b506152ff86846158b5565b506108b2565b8160005260206000206020601f8701048101601f8716801561532f5761532f81600019840161585a565b506153426020601f88010483018261549e565b50506001856002021782555050505050565b6000808335601e1984360301811261536a578283fd5b83016020810192503590506001600160401b0381111561538957600080fd5b60208102360383131561381b57600080fd5b6000808335601e198436030181126153b1578283fd5b83016020810192503590506001600160401b038111156153d057600080fd5b60608102360383131561381b57600080fd5b6000808335601e198436030181126153f8578283fd5b83016020810192503590506001600160401b0381111561541757600080fd5b80360383131561381b57600080fd5b6000823560de1983360301811261543b578182fd5b90910192915050565b6000821982111561545757615457615818565b500190565b600081600019048311821515161561547657615476615818565b500290565b60008282101561548d5761548d615818565b500390565b6001600160a01b031690565b5b81811015612b28576000815560010161549f565b600160401b8311156154c7576154c7615844565b80548382558084101561554c576001600160ff1b0360018183118116156154f0576154f0615818565b600282871182161561550457615504615818565b600085815260208120909350878202810190828602015b808210156155465761552f858684546158d3565b825561553d8585840161586e565b9082019061551b565b50505050505b5081615557826152a3565b6000805b8681101561558d5761557761557085886151e7565b8385615bca565b602093909301926002929092019160010161555b565b50505050505050565b600160401b8311156155aa576155aa615844565b805483825580841015615629576001600160ff1b0360018183118116156155d3576155d3615818565b60028287118216156155e7576155e7615818565b600085815260208120909350878202810190828602015b8082101561562357615612858684546158d3565b8255848483015582820191506155fe565b50505050505b5081615634826152a3565b6000805b8681101561558d5761564b848385615c92565b6060939093019260029290920191600101615638565b6001600160401b0383111561567857615678615844565b615682815461579f565b600080601f8611601f8411818117156156a15761569e866152a3565b92505b80156156d0576020601f890104830160208910156156bc5750825b6156ce6020601f88010485018261549e565b505b5080600181146156fc576000945087156156eb578387013594505b6156f588866157d4565b865561574e565b601f198816945082845b868110156157265788860135825560209586019560019092019101615706565b508886101561574357878501356000196008601f8c16021c191681555b506001600289020186555b5050505050505050565b60005b8381101561577357818101518382015260200161575b565b83811115615782576000848401525b50505050565b60008161579757615797615818565b506000190190565b6002810460018216806157b357607f821691505b602082108114156138f857634e487b7160e01b600052602260045260246000fd5b600019600883021c191660029091021790565b60006000198214156157fb576157fb615818565b5060010190565b634e487b7160e01b600052600060045260246000fd5b634e487b7160e01b600052601160045260246000fd5b634e487b7160e01b600052602160045260246000fd5b634e487b7160e01b600052604160045260246000fd5b8054600019836020036008021c1681555050565b600160401b82111561588257615882615844565b805482825580831015611973576000828152602081208481019083015b80821015611c0e5782825560018201915061589f565b8060005260206000206158c98382546157d4565b9091556000905550565b60089190910291821b60001990921b9182169119161790565b80546001600160a01b0319166001600160a01b0392909216919091179055565b813561591781615ced565b61592181836158ec565b506001602080840135828401556040840135600284015560608401356003840155600483016159536080860186615117565b600160401b81111561596757615967615844565b82548184558082101561598c57836000528460002061598a82820184830161549e565b505b506000928352838320925b818110156159b2578235845592850192918401918501615997565b5050505050506159c560a0830183615117565b6159d38183600586016154b3565b50506159e260c083018361515d565b615782818360068601615596565b81356159fb81615ced565b615a0581836158ec565b506001602080840135615a1781615ced565b615a23818486016158ec565b5060026040850135615a3481615ced565b615a40818387016158ec565b5060036060860135818601556004615a5b60808801886151a3565b615a688183858b01615661565b50506005808701615a7c60a08a018a615117565b600160401b811115615a9057615a90615844565b825481845580821015615b64577f33333333333333333333333333333333333333333333333333333333333333338082118b1615615ad057615ad0615818565b8083118b1615615ae257615ae2615818565b506000848152898120838702810190878402015b80821015615b6057615b0a838484546158d3565b8255828d8301558a8201615b20848583546158d3565b815550898201615b32848583546158d3565b90558189018054615b428161579f565b8015615b5457615b54868284866152af565b50505090870190615af6565b5050505b50819650615b71836152a3565b9550600094508492505b80831015615ba857615b97615b90888461521b565b8688615c1e565b958701959483019491880191615b7b565b505050505050505050612b28615bc160c0840184615206565b6006830161590c565b8115615bd857615bd8615802565b8235815560018082016020615bef81870187615117565b615bf9818561586e565b6000938452828420935b81811015610948578235855593850193918301918501615c03565b8115615c2c57615c2c615802565b82358155600181016020840135615c4281615d02565b60048110615c5257615c5261582e565b60ff1982541660ff8216811783555050506040830135600282015560608301356003820155615c8460808401846151a3565b6108b2818360048601615661565b8115615ca057615ca0615802565b82358155600181016020840135615cb681615d0f565b815460ff191660ff91909116178082556040850135615cd481615d0f565b61ff008160081b1661ff00198316178355505050505050565b6001600160a01b0381168114610fe857600080fd5b60048110610fe857600080fd5b60ff81168114610fe857600080fdfe71bd81ebe1d98a2944767394e76a9aff18724b2cf04e1db71254f804544b35c7a2646970667358221220d6c4a94819aece7fd5ddcfff6cda5b81a4b8d35e6c815b9bfab08255c965a9c964736f6c63430008000033",
  "linkReferences": {
    "contracts/SolverLib.sol": {
      "SolverLib": [
        {
          "length": 20,
          "start": 1527
        },
        {
          "length": 20,
          "start": 2104
        },
        {
          "length": 20,
          "start": 3222
        },
        {
          "length": 20,
          "start": 3564
        },
        {
          "length": 20,
          "start": 4367
        },
        {
          "length": 20,
          "start": 4685
        },
        {
          "length": 20,
          "start": 6388
        },
        {
          "length": 20,
          "start": 7058
        },
        {
          "length": 20,
          "start": 7661
        },
        {
          "length": 20,
          "start": 7846
        },
        {
          "length": 20,
          "start": 13194
        }
      ]
    }
  },
  "deployedLinkReferences": {
    "contracts/SolverLib.sol": {
      "SolverLib": [
        {
          "length": 20,
          "start": 1494
        },
        {
          "length": 20,
          "start": 2071
        },
        {
          "length": 20,
          "start": 3189
        },
        {
          "length": 20,
          "start": 3531
        },
        {
          "length": 20,
          "start": 4334
        },
        {
          "length": 20,
          "start": 4652
        },
        {
          "length": 20,
          "start": 6355
        },
        {
          "length": 20,
          "start": 7025
        },
        {
          "length": 20,
          "start": 7628
        },
        {
          "length": 20,
          "start": 7813
        },
        {
          "length": 20,
          "start": 13161
        }
      ]
    }
  }
}