{
  "_format": "hh-sol-artifact-1",
  "contractName": "SolverLib",
  "sourceName": "contracts/SolverLib.sol",
  "abi": [
    {
      "anonymous": false,
      "inputs": [
        {
          "indexed": false,
          "internalType": "bytes32",
          "name": "conditionId",
          "type": "bytes32"
        }
      ],
      "name": "ChangedStatus",
      "type": "event"
    },
    {
      "anonymous": false,
      "inputs": [
        {
          "indexed": false,
          "internalType": "bytes32",
          "name": "conditionId",
          "type": "bytes32"
        }
      ],
      "name": "DeliveredNullArbitration",
      "type": "event"
    },
    {
      "anonymous": false,
      "inputs": [
        {
          "indexed": false,
          "internalType": "address",
          "name": "child",
          "type": "address"
        }
      ],
      "name": "DeployedChild",
      "type": "event"
    },
    {
      "inputs": [
        {
          "internalType": "uint256",
          "name": "bp",
          "type": "uint256"
        },
        {
          "internalType": "uint256",
          "name": "num",
          "type": "uint256"
        }
      ],
      "name": "bpToNum",
      "outputs": [
        {
          "internalType": "uint256",
          "name": "",
          "type": "uint256"
        }
      ],
      "stateMutability": "pure",
      "type": "function"
    },
    {
      "inputs": [
        {
          "internalType": "address",
          "name": "ctfAddress",
          "type": "address"
        },
        {
          "components": [
            {
              "internalType": "contract IERC20",
              "name": "collateralToken",
              "type": "IERC20"
            },
            {
              "internalType": "bytes32",
              "name": "questionId",
              "type": "bytes32"
            },
            {
              "internalType": "bytes32",
              "name": "parentCollectionId",
              "type": "bytes32"
            },
            {
              "internalType": "bytes32",
              "name": "conditionId",
              "type": "bytes32"
            },
            {
              "internalType": "uint256[]",
              "name": "payouts",
              "type": "uint256[]"
            },
            {
              "internalType": "enum SolverLib.Status",
              "name": "status",
              "type": "SolverLib.Status"
            }
          ],
          "internalType": "struct SolverLib.Condition",
          "name": "condition",
          "type": "tuple"
        },
        {
          "internalType": "uint256",
          "name": "partition",
          "type": "uint256"
        }
      ],
      "name": "getCollectionId",
      "outputs": [
        {
          "internalType": "bytes32",
          "name": "collectionId",
          "type": "bytes32"
        }
      ],
      "stateMutability": "view",
      "type": "function"
    },
    {
      "inputs": [
        {
          "internalType": "address",
          "name": "ctfAddress",
          "type": "address"
        },
        {
          "components": [
            {
              "internalType": "contract IERC20",
              "name": "collateralToken",
              "type": "IERC20"
            },
            {
              "internalType": "bytes32",
              "name": "questionId",
              "type": "bytes32"
            },
            {
              "internalType": "bytes32",
              "name": "parentCollectionId",
              "type": "bytes32"
            },
            {
              "internalType": "bytes32",
              "name": "conditionId",
              "type": "bytes32"
            },
            {
              "internalType": "uint256[]",
              "name": "payouts",
              "type": "uint256[]"
            },
            {
              "internalType": "enum SolverLib.Status",
              "name": "status",
              "type": "SolverLib.Status"
            }
          ],
          "internalType": "struct SolverLib.Condition",
          "name": "condition",
          "type": "tuple"
        },
        {
          "internalType": "contract IERC20",
          "name": "collateralToken",
          "type": "IERC20"
        },
        {
          "internalType": "uint256",
          "name": "partition",
          "type": "uint256"
        }
      ],
      "name": "getPositionId",
      "outputs": [
        {
          "internalType": "uint256",
          "name": "positionId",
          "type": "uint256"
        }
      ],
      "stateMutability": "view",
      "type": "function"
    },
    {
      "inputs": [
        {
          "components": [
            {
              "internalType": "uint256",
              "name": "executions",
              "type": "uint256"
            },
            {
              "internalType": "enum SolverLib.IngestType",
              "name": "ingestType",
              "type": "SolverLib.IngestType"
            },
            {
              "internalType": "bytes32",
              "name": "slot",
              "type": "bytes32"
            },
            {
              "internalType": "uint256",
              "name": "solverIndex",
              "type": "uint256"
            },
            {
              "internalType": "bytes",
              "name": "data",
              "type": "bytes"
            }
          ],
          "internalType": "struct SolverLib.Ingest[]",
          "name": "ingests",
          "type": "tuple[]"
        },
        {
          "internalType": "uint256",
          "name": "conditionVer",
          "type": "uint256"
        }
      ],
      "name": "ingestsValid",
      "outputs": [
        {
          "internalType": "bool",
          "name": "",
          "type": "bool"
        }
      ],
      "stateMutability": "pure",
      "type": "function"
    }
  ],
  "bytecode": "0x612f8161003a600b82828239805160001a60731461002d57634e487b7160e01b600052600060045260246000fd5b30600052607381538281f3fe73000000000000000000000000000000000000000030146080604052600436106100fb5760003560e01c80630e70114e146101005780631b948e49146101225780632233a0171461014257806324b286021461016b5780632dd408241461018b57806333b2a9ee146101ab57806338188cf7146101be578063546253c0146101d157806359111fb5146101f15780635cc1f6b5146102115780635fceaefa14610231578063699e0add1461025e5780636a0a24f11461028b5780636da738c2146102ab57806385c92867146102be578063b0d05fbd146102de578063b3d73707146102fe578063dd28f0e51461031e578063ec7ac2f01461033e575b600080fd5b81801561010c57600080fd5b5061012061011b366004611fb2565b61035e565b005b81801561012e57600080fd5b5061012061013d366004611fdd565b6103f1565b610155610150366004611f5c565b61043a565b6040516101629190612a52565b60405180910390f35b81801561017757600080fd5b50610120610186366004612291565b6104cc565b81801561019757600080fd5b506101206101a6366004612341565b61050f565b6101556101b9366004611f16565b6105e2565b6101556101cc3660046123de565b6106ef565b8180156101dd57600080fd5b506101206101ec366004611e5f565b610707565b8180156101fd57600080fd5b5061012061020c366004612291565b6109b2565b61022461021f3660046121c2565b610a1d565b6040516101629190612a47565b81801561023d57600080fd5b5061025161024c366004612033565b610a8b565b6040516101629190612824565b81801561026a57600080fd5b5061027e610279366004611eaf565b610c3a565b6040516101629190612bf7565b81801561029757600080fd5b506101206102a63660046122a9565b610e8e565b6102246102b93660046123b3565b610ecd565b8180156102ca57600080fd5b506101206102d9366004611fb2565b610f5a565b8180156102ea57600080fd5b506101206102f93660046122f2565b610f77565b61031161030c366004612291565b611724565b6040516101629190612aa3565b81801561032a57600080fd5b50610120610339366004611fdd565b611934565b81801561034a57600080fd5b50610120610359366004612291565b6119b9565b6001810154604051633124a62b60e21b81526001600160a01b0384169163c49298ac91610392919060048087019101612a74565b600060405180830381600087803b1580156103ac57600080fd5b505af11580156103c0573d6000803e3d6000fd5b50505050600080516020612f2c83398151915281600301546040516103e59190612a52565b60405180910390a15050565b6005828101805460ff1916909117905561040c838383611934565b600080516020612f2c833981519152826003015460405161042d9190612a52565b60405180910390a1505050565b6040808301516060840151915163856296f760e01b81526000926001600160a01b0387169263856296f79261047492908790600401612a8d565b60206040518083038186803b15801561048c57600080fd5b505afa1580156104a0573d6000803e3d6000fd5b505050506040513d601f19601f820116820180604052508101906104c4919061225d565b949350505050565b6005810180546003919060ff19166001835b0217905550600080516020612f2c83398151915281600301546040516105049190612a52565b60405180910390a150565b6000600587015460ff16600681111561053857634e487b7160e01b600052602160045260246000fd5b1461055e5760405162461bcd60e51b815260040161055590612b9e565b60405180910390fd5b610569888587610ecd565b6105855760405162461bcd60e51b815260040161055590612b69565b60058601805460ff191660011790556003860154604051600080516020612f2c833981519152916105b591612a52565b60405180910390a16105ca8783878985610707565b6105d8888888888888610f77565b5050505050505050565b6040808401516060850151915163856296f760e01b815260009287926001600160a01b038416926339dd7530928892859263856296f79261062892918b90600401612a8d565b60206040518083038186803b15801561064057600080fd5b505afa158015610654573d6000803e3d6000fd5b505050506040513d601f19601f82011682018060405250810190610678919061225d565b6040518363ffffffff1660e01b81526004016106959291906128b7565b60206040518083038186803b1580156106ad57600080fd5b505afa1580156106c1573d6000803e3d6000fd5b505050506040513d601f19601f820116820180604052508101906106e5919061225d565b9695505050505050565b60006106fe83836127106119cf565b90505b92915050565b6000856001600160a01b03861661082a5784546040516370a0823160e01b81526001600160a01b03909116906370a0823190610747903090600401612824565b60206040518083038186803b15801561075f57600080fd5b505afa158015610773573d6000803e3d6000fd5b505050506040513d601f19601f82011682018060405250810190610797919061225d565b85549092506001600160a01b031663095ea7b3886107b586866106ef565b6040518363ffffffff1660e01b81526004016107d29291906128b7565b602060405180830381600087803b1580156107ec57600080fd5b505af1158015610800573d6000803e3d6000fd5b505050506040513d601f19601f82011682018060405250810190610824919061223d565b50610928565b8454600285015460405163039dd75360e41b81526001600160a01b038085169362fdd58e93309386936339dd753093610868939116916004016128b7565b60206040518083038186803b15801561088057600080fd5b505afa158015610894573d6000803e3d6000fd5b505050506040513d601f19601f820116820180604052508101906108b8919061225d565b6040518363ffffffff1660e01b81526004016108d59291906128b7565b60206040518083038186803b1580156108ed57600080fd5b505afa158015610901573d6000803e3d6000fd5b505050506040513d601f19601f82011682018060405250810190610925919061225d565b91505b8454600285015460038601546001600160a01b03808516936372ce42759391169160048a0161095789896106ef565b6040518663ffffffff1660e01b8152600401610977959493929190612ab6565b600060405180830381600087803b15801561099157600080fd5b505af11580156109a5573d6000803e3d6000fd5b5050505050505050505050565b60058101805460ff191660021790556003810154604051600080516020612f2c833981519152916109e291612a52565b60405180910390a17f719794c12f19a9d50fc8ea826eb688e6d9bce288d100032e00a93994d636658981600301546040516105049190612a52565b6000805b83811015610a7e5782858583818110610a4a57634e487b7160e01b600052603260045260246000fd5b9050602002810190610a5c9190612cd8565b3514610a6c576000915050610a84565b80610a7681612ec2565b915050610a21565b50600190505b9392505050565b60006001600160a01b038616637bdf862330610aa8876001612e3f565b886040518463ffffffff1660e01b8152600401610ac7939291906128d0565b602060405180830381600087803b158015610ae157600080fd5b505af1158015610af5573d6000803e3d6000fd5b505050506040513d601f19601f82011682018060405250810190610b199190611e43565b90508215610b8057604051630683080d60e11b81526001600160a01b03821690630d06101a90610b4d908690600401612a52565b600060405180830381600087803b158015610b6757600080fd5b505af1158015610b7b573d6000803e3d6000fd5b505050505b6000610b9260608401604085016123ff565b60ff161115610bfa576040516354fb4c5b60e11b81526001600160a01b0382169063a9f698b690610bc7908590600401612c84565b600060405180830381600087803b158015610be157600080fd5b505af1158015610bf5573d6000803e3d6000fd5b505050505b7fbd2e7fbdc9b1c19997e58c63e6ea1b5a02acd8dd9fd5d76f4bb18634f7155e8081604051610c299190612824565b60405180910390a195945050505050565b610c42611bac565b610c4f60c0850185612c92565b3084604051602001610c649493929190612a17565b60408051601f198184030181529190528051602091820120908201526001600160a01b038316610c9a5760006040820152610d7e565b6000836001600160a01b0316637c1236276040518163ffffffff1660e01b815260040160006040518083038186803b158015610cd557600080fd5b505afa158015610ce9573d6000803e3d6000fd5b505050506040513d6000823e601f3d908101601f19168201604052610d1191908101906120ae565b90506000815111610d345760405162461bcd60e51b815260040161055590612b37565b610d77868260018451610d479190612e76565b81518110610d6557634e487b7160e01b600052603260045260246000fd5b6020026020010151876040013561043a565b6040830152505b602080820151604051634296357160e11b81526001600160a01b0388169263852c6ae292610db49230928a013590600401612896565b60206040518083038186803b158015610dcc57600080fd5b505afa158015610de0573d6000803e3d6000fd5b505050506040513d601f19601f82011682018060405250810190610e04919061225d565b6060820152610e166020850185612275565b6001600160a01b03908116825260208083015160405163365bb9d560e21b81529288169263d96ee75492610e5492309290918a013590600401612896565b600060405180830381600087803b158015610e6e57600080fd5b505af1158015610e82573d6000803e3d6000fd5b50505050949350505050565b60058301805460ff19166002179055610eab600484018383611bde565b50600080516020612f2c833981519152836003015460405161042d9190612a52565b600160005b6005830154811015610f5257610ee9856001612e3f565b846000016000856005018481548110610f1257634e487b7160e01b600052603260045260246000fd5b90600052602060002090600202016000015481526020019081526020016000208054905014610f4057600091505b80610f4a81612ec2565b915050610ed2565b509392505050565b60058101805460ff19166006179055610f73828261035e565b5050565b60048301546000906001600160401b03811115610fa457634e487b7160e01b600052604160045260246000fd5b604051908082528060200260200182016040528015610fcd578160200160208202803683370190505b5060048501549091506000906001600160401b03811115610ffe57634e487b7160e01b600052604160045260246000fd5b604051908082528060200260200182016040528015611027578160200160208202803683370190505b5060048601549091506000906001600160401b0381111561105857634e487b7160e01b600052604160045260246000fd5b604051908082528060200260200182016040528015611081578160200160208202803683370190505b50905060005b600487015481101561122f576040805160c08101825289546001600160a01b0316815260018a015460208083019190915260028b01548284015260038b0154606083015260048b0180548451818402810184019095528085526111b8948e94938e936080860193909183018282801561111f57602002820191906000526020600020905b81548152602001906001019080831161110b575b5050509183525050600582015460209091019060ff16600681111561115457634e487b7160e01b600052602160045260246000fd5b600681111561117357634e487b7160e01b600052602160045260246000fd5b905250895460048b0180546001600160a01b0390921691869081106111a857634e487b7160e01b600052603260045260246000fd5b90600052602060002001546105e2565b8482815181106111d857634e487b7160e01b600052603260045260246000fd5b6020026020010181815250503082828151811061120557634e487b7160e01b600052603260045260246000fd5b6001600160a01b03909216602092830291909101909101528061122781612ec2565b915050611087565b506040516313849cfd60e21b81526001600160a01b03891690634e1273f49061125e90849087906004016129c1565b60006040518083038186803b15801561127657600080fd5b505afa15801561128a573d6000803e3d6000fd5b505050506040513d6000823e601f3d908101601f191682016040526112b2919081019061220b565b915060005b60058701548110156117185760048701546000906001600160401b038111156112f057634e487b7160e01b600052604160045260246000fd5b604051908082528060200260200182016040528015611319578160200160208202803683370190505b50905060005b88600501838154811061134257634e487b7160e01b600052603260045260246000fd5b9060005260206000209060020201600101805490508110156115715760008860000160008b600501868154811061138957634e487b7160e01b600052603260045260246000fd5b906000526020600020906002020160010184815481106113b957634e487b7160e01b600052603260045260246000fd5b906000526020600020015481526020019081526020016000208d815481106113f157634e487b7160e01b600052603260045260246000fd5b90600052602060002001805461140690612e8d565b80601f016020809104026020016040519081016040528092919081815260200182805461143290612e8d565b801561147f5780601f106114545761010080835404028352916020019161147f565b820191906000526020600020905b81548152906001019060200180831161146257829003601f168201915b5050505050806020019051810190611497919061225d565b9050806114d15760008383815181106114c057634e487b7160e01b600052603260045260246000fd5b60200260200101818152505061155e565b611502818784815181106114f557634e487b7160e01b600052603260045260246000fd5b60200260200101516106ef565b83838151811061152257634e487b7160e01b600052603260045260246000fd5b60200260200101818152505061155e83838151811061155157634e487b7160e01b600052603260045260246000fd5b6020026020010151611b45565b508061156981612ec2565b91505061131f565b50896001600160a01b0316632eb2c2d6308960000160008c60050187815481106115ab57634e487b7160e01b600052603260045260246000fd5b90600052602060002090600202016000015481526020019081526020016000208e815481106115ea57634e487b7160e01b600052603260045260246000fd5b9060005260206000200180546115ff90612e8d565b80601f016020809104026020016040519081016040528092919081815260200182805461162b90612e8d565b80156116785780601f1061164d57610100808354040283529160200191611678565b820191906000526020600020905b81548152906001019060200180831161165b57829003601f168201915b50505050508060200190518101906116909190611e43565b88858b6040516020016116a39190612a52565b6040516020818303038152906040526040518663ffffffff1660e01b81526004016116d2959493929190612838565b600060405180830381600087803b1580156116ec57600080fd5b505af1158015611700573d6000803e3d6000fd5b5050505050808061171090612ec2565b9150506112b7565b50505050505050505050565b60606003600183015460ff16600381111561174f57634e487b7160e01b600052602160045260246000fd5b141561176d5760405162461bcd60e51b815260040161055590612af5565b60018083015460ff16600381111561179557634e487b7160e01b600052602160045260246000fd5b141561182f578160040180546117aa90612e8d565b80601f01602080910402602001604051908101604052809291908181526020018280546117d690612e8d565b80156118235780601f106117f857610100808354040283529160200191611823565b820191906000526020600020905b81548152906001019060200180831161180657829003601f168201915b5050505050905061192f565b6003820154604051631c1bd82f60e11b81526000913091633837b05e9161185891600401612a52565b60206040518083038186803b15801561187057600080fd5b505afa158015611884573d6000803e3d6000fd5b505050506040513d601f19601f820116820180604052508101906118a89190611e43565b9050600080826001600160a01b0316856004016040516118c89190612789565b600060405180830381855afa9150503d8060008114611903576040519150601f19603f3d011682016040523d82523d6000602084013e611908565b606091505b50915091508161192a5760405162461bcd60e51b815260040161055590612bc5565b925050505b919050565b6001820154604051633124a62b60e21b81526001600160a01b0385169163c49298ac9161196691908590600401612a5b565b600060405180830381600087803b15801561198057600080fd5b505af1158015611994573d6000803e3d6000fd5b50505050600080516020612f2c833981519152826003015460405161042d9190612a52565b6005810180546004919060ff19166001836104de565b6000808060001985870986860292508281109083900303905080611a0557600084116119fa57600080fd5b508290049050610a84565b808411611a1157600080fd5b6000848688098084039381119092039190506000611a3186196001612e3f565b8616958690049593849004936000819003046001019050611a528184612e57565b909317926000611a63876003612e57565b6002189050611a728188612e57565b611a7d906002612e76565b611a879082612e57565b9050611a938188612e57565b611a9e906002612e76565b611aa89082612e57565b9050611ab48188612e57565b611abf906002612e76565b611ac99082612e57565b9050611ad58188612e57565b611ae0906002612e76565b611aea9082612e57565b9050611af68188612e57565b611b01906002612e76565b611b0b9082612e57565b9050611b178188612e57565b611b22906002612e76565b611b2c9082612e57565b9050611b388186612e57565b9998505050505050505050565b611b8881604051602401611b599190612a52565b60408051601f198184030181529190526020810180516001600160e01b031663f5b1bba960e01b179052611b8b565b50565b80516a636f6e736f6c652e6c6f67602083016000808483855afa5050505050565b6040805160c081018252600080825260208201819052918101829052606080820183905260808201529060a082015290565b828054828255906000526020600020908101928215611c19579160200282015b82811115611c19578235825591602001919060010190611bfe565b50611c25929150611c29565b5090565b5b80821115611c255760008155600101611c2a565b803561192f81612f09565b60008083601f840112611c5a578182fd5b5081356001600160401b03811115611c70578182fd5b6020830191508360208083028501011115611c8a57600080fd5b9250929050565b600082601f830112611ca1578081fd5b81356020611cb6611cb183612d20565b612cf7565b8281528181019085830183850287018401881015611cd2578586fd5b855b85811015611cf057813584529284019290840190600101611cd4565b5090979650505050505050565b600082601f830112611d0d578081fd5b81516020611d1d611cb183612d20565b8281528181019085830183850287018401881015611d39578586fd5b855b85811015611cf057815184529284019290840190600101611d3b565b805161192f81612f09565b803561192f81612f1e565b805161192f81612f1e565b600060e08284031215611d89578081fd5b50919050565b600060c08284031215611da0578081fd5b60405160c081016001600160401b038082118383101715611dc357611dc3612ef3565b81604052829350611dd385611c3e565b83526020850135602084015260408501356040840152606085013560608401526080850135915080821115611e0757600080fd5b50611e1485828601611c91565b608083015250611e2660a08401611d62565b60a08201525092915050565b803560ff8116811461192f57600080fd5b600060208284031215611e54578081fd5b8151610a8481612f09565b600080600080600060a08688031215611e76578081fd5b8535611e8181612f09565b94506020860135611e9181612f09565b94979496505050506040830135926060810135926080909101359150565b60008060008060808587031215611ec4578182fd5b8435611ecf81612f09565b935060208501356001600160401b03811115611ee9578283fd5b611ef587828801611d78565b9350506040850135611f0681612f09565b9396929550929360600135925050565b60008060008060808587031215611f2b578182fd5b8435611f3681612f09565b935060208501356001600160401b03811115611f50578283fd5b611ef587828801611d8f565b600080600060608486031215611f70578081fd5b8335611f7b81612f09565b925060208401356001600160401b03811115611f95578182fd5b611fa186828701611d8f565b925050604084013590509250925092565b60008060408385031215611fc4578182fd5b8235611fcf81612f09565b946020939093013593505050565b600080600060608486031215611ff1578081fd5b8335611ffc81612f09565b92506020840135915060408401356001600160401b0381111561201d578182fd5b61202986828701611c91565b9150509250925092565b600080600080600085870360e081121561204b578384fd5b863561205681612f09565b955060208701356001600160401b03811115612070578485fd5b61207c89828a01611d78565b955050604087013593506060808801359350607f198201121561209d578182fd5b506080860190509295509295909350565b600060208083850312156120c0578182fd5b82516001600160401b03808211156120d6578384fd5b818501915085601f8301126120e9578384fd5b81516120f7611cb182612d20565b81815284810190848601875b848110156121b3578151870160c080601f19838f03011215612123578a8bfd5b604080518281018181108b8211171561213e5761213e612ef3565b825261214b848d01611d57565b8152818401518c8201526060840151828201526080840151606082015260a084015191508982111561217b578c8dfd5b6121898f8d84870101611cfd565b6080820152612199838501611d6d565b60a082015287525050509287019290870190600101612103565b50909998505050505050505050565b6000806000604084860312156121d6578081fd5b83356001600160401b038111156121eb578182fd5b6121f786828701611c49565b909790965060209590950135949350505050565b60006020828403121561221c578081fd5b81516001600160401b03811115612231578182fd5b6104c484828501611cfd565b60006020828403121561224e578081fd5b81518015158114610a84578182fd5b60006020828403121561226e578081fd5b5051919050565b600060208284031215612286578081fd5b8135610a8481612f09565b6000602082840312156122a2578081fd5b5035919050565b6000806000604084860312156122bd578081fd5b8335925060208401356001600160401b038111156122d9578182fd5b6122e586828701611c49565b9497909650939450505050565b60008060008060008060c0878903121561230a578384fd5b86359550602087013561231c81612f09565b95989597505050506040840135936060810135936080820135935060a0909101359150565b600080600080600080600080610100898b03121561235d578586fd5b88359750602089013561236f81612f09565b965060408901359550606089013594506080890135935060a0890135925060c089013561239b81612f09565b8092505060e089013590509295985092959890939650565b6000806000606084860312156123c7578081fd5b505081359360208301359350604090920135919050565b600080604083850312156123f0578182fd5b50508035926020909101359150565b600060208284031215612410578081fd5b6106fe82611e32565b6001600160a01b03169052565b81835260006001600160fb1b0383111561243e578081fd5b6020830280836020870137939093016020019283525090919050565b818352602080840193600091908185020181018584845b878110156124f95782840389528135609e19883603018112612491578687fd5b87018035855260a086820135600481106124a9578889fd5b86880152604082810135908701526060808301359087015260806124cf81840184612ddd565b935082828901526124e383890185836125af565b9c89019c97505050928601925050600101612471565b5091979650505050505050565b600082845260208401935081815b84811015612539576125268683612759565b6060958601959190910190600101612514565b5093949350505050565b6000815180845260208085019450808401835b8381101561257257815187529582019590820190600101612556565b509495945050505050565b6000815480845260208085019450838352808320835b8381101561257257815487529582019560019182019101612593565b60008284528282602086013780602084860101526020601f19601f85011685010190509392505050565b60008151808452815b818110156125fe576020818501810151868301820152016125e2565b8181111561260f5782602083870101525b50601f01601f19169290920160200192915050565b6007811061264257634e487b7160e01b600052602160045260246000fd5b9052565b6000813561265381612f09565b6001600160a01b031683526020828101358185015260408084013581860152606080850135908601526126896080850185612d4f565b60e0608088015261269e60e088018284612426565b9150506126ae60a0860186612d4f565b87830360a08901528083528483018582028401860183885b8481101561272557868303601f19018452813536879003603e190181126126eb578a8bfd5b8601803584526126fd8a820182612d4f565b9150898b8601526127118a86018383612426565b958b019594505050908801906001016126c6565b505061273460c08a018a612d96565b9750955089810360c08b015261274b818888612506565b9a9950505050505050505050565b8035825260ff61276b60208301611e32565b16602083015260ff61277f60408301611e32565b1660408301525050565b81546000908190600281046001808316806127a557607f831692505b60208084108214156127c557634e487b7160e01b87526022600452602487fd5b8180156127d957600181146127ea57612816565b60ff19861689528489019650612816565b6127f38a612d43565b885b8681101561280e5781548b8201529085019083016127f5565b505084890196505b509498975050505050505050565b6001600160a01b0391909116815260200190565b6001600160a01b0386811682528516602082015260a06040820181905260009061286490830186612543565b82810360608401526128768186612543565b9050828103608084015261288a81856125d9565b98975050505050505050565b6001600160a01b039390931683526020830191909152604082015260600190565b6001600160a01b03929092168252602082015260400190565b6001600160a01b03841681526020810183905260606040820152600082356128f781612f09565b6129046060840182612419565b5061291160208401611c3e565b61291e6080840182612419565b5061292b60408401611c3e565b61293860a0840182612419565b50606083013560c08301526129506080840184612ddd565b60e080850152612965610140850182846125af565b91505061297560a0850185612d4f565b605f19808685030161010087015261298e84838561245a565b935061299d60c0880188612e21565b9250808685030161012087015250506129b68282612646565b979650505050505050565b604080825283519082018190526000906020906060840190828701845b82811015612a035781516001600160a01b0316845292840192908401906001016129de565b505050838103828501526106e58186612543565b600060608252612a2b606083018688612506565b6001600160a01b03949094166020830152506040015292915050565b901515815260200190565b90815260200190565b6000838252604060208301526104c46040830184612543565b6000838252604060208301526104c4604083018461257d565b9283526020830191909152604082015260600190565b6000602082526106fe60208301846125d9565b600060018060a01b038716825285602083015284604083015260a06060830152612ae360a083018561257d565b90508260808301529695505050505050565b60208082526022908201527f4d616e75616c20696e67657374732073686f756c64206e6f7420676574206865604082015261726560f01b606082015260800190565b602080825260189082015277506172656e7420686173206e6f20636f6e646974696f6e7360401b604082015260600190565b6020808252818101527f526563697069656e7420736c6f74207265717569726573207570646174696e67604082015260600190565b6020808252600d908201526c1b9bdd08125b9a5d1a585d1959609a1b604082015260600190565b602080825260189082015277125b99d95cdd081cdd185d1a58d8d85b1b0819985a5b195960421b604082015260600190565b6000602080835260e0830160018060a01b03855116828501528185015160408501526040850151606085015260608501516080850152608085015160c060a08601528181518084526101008701915084830193508592505b80831015612c6f5783518252928401926001929092019190840190612c4f565b5060a087015193506106e560c0870185612624565b606081016107018284612759565b6000808335601e19843603018112612ca8578283fd5b8301803591506001600160401b03821115612cc1578283fd5b6020019150606081023603821315611c8a57600080fd5b60008235609e19833603018112612ced578182fd5b9190910192915050565b6040518181016001600160401b0381118282101715612d1857612d18612ef3565b604052919050565b60006001600160401b03821115612d3957612d39612ef3565b5060209081020190565b60009081526020902090565b6000808335601e19843603018112612d65578283fd5b83016020810192503590506001600160401b03811115612d8457600080fd5b602081023603831315611c8a57600080fd5b6000808335601e19843603018112612dac578283fd5b83016020810192503590506001600160401b03811115612dcb57600080fd5b606081023603831315611c8a57600080fd5b6000808335601e19843603018112612df3578283fd5b83016020810192503590506001600160401b03811115612e1257600080fd5b803603831315611c8a57600080fd5b6000823560de19833603018112612e36578182fd5b90910192915050565b60008219821115612e5257612e52612edd565b500190565b6000816000190483118215151615612e7157612e71612edd565b500290565b600082821015612e8857612e88612edd565b500390565b600281046001821680612ea157607f821691505b60208210811415611d8957634e487b7160e01b600052602260045260246000fd5b6000600019821415612ed657612ed6612edd565b5060010190565b634e487b7160e01b600052601160045260246000fd5b634e487b7160e01b600052604160045260246000fd5b6001600160a01b0381168114611b8857600080fd5b60078110611b8857600080fdfe7db9ada3378b3a6a74f048087eb2d2373425684df8f2d06ab2a2c2283b87375fa26469706673582212208476bfc35911bc015fd88f406b3227e94961e42cd1d08d3ba227c78039e521a264736f6c63430008000033",
  "linkReferences": {},
  "deployedLinkReferences": {}
}