{
  "_format": "hh-sol-artifact-1",
  "contractName": "SolverLib",
  "sourceName": "contracts/SolverLib.sol",
  "abi": [
    {
      "inputs": [
        {
          "internalType": "uint256",
          "name": "bp",
          "type": "uint256"
        },
        {
          "internalType": "uint256",
          "name": "num",
          "type": "uint256"
        }
      ],
      "name": "bpToNum",
      "outputs": [
        {
          "internalType": "uint256",
          "name": "",
          "type": "uint256"
        }
      ],
      "stateMutability": "pure",
      "type": "function"
    },
    {
      "inputs": [
        {
          "internalType": "address",
          "name": "ctfAddress",
          "type": "address"
        },
        {
          "components": [
            {
              "internalType": "contract IERC20",
              "name": "collateralToken",
              "type": "IERC20"
            },
            {
              "internalType": "bytes32",
              "name": "questionId",
              "type": "bytes32"
            },
            {
              "internalType": "bytes32",
              "name": "parentCollectionId",
              "type": "bytes32"
            },
            {
              "internalType": "bytes32",
              "name": "conditionId",
              "type": "bytes32"
            },
            {
              "internalType": "uint256[]",
              "name": "payouts",
              "type": "uint256[]"
            },
            {
              "internalType": "enum SolverLib.Status",
              "name": "status",
              "type": "SolverLib.Status"
            }
          ],
          "internalType": "struct SolverLib.Condition",
          "name": "condition",
          "type": "tuple"
        },
        {
          "internalType": "uint256",
          "name": "partition",
          "type": "uint256"
        }
      ],
      "name": "getCollectionId",
      "outputs": [
        {
          "internalType": "bytes32",
          "name": "collectionId",
          "type": "bytes32"
        }
      ],
      "stateMutability": "view",
      "type": "function"
    },
    {
      "inputs": [
        {
          "internalType": "address",
          "name": "ctfAddress",
          "type": "address"
        },
        {
          "components": [
            {
              "internalType": "contract IERC20",
              "name": "collateralToken",
              "type": "IERC20"
            },
            {
              "internalType": "bytes32",
              "name": "questionId",
              "type": "bytes32"
            },
            {
              "internalType": "bytes32",
              "name": "parentCollectionId",
              "type": "bytes32"
            },
            {
              "internalType": "bytes32",
              "name": "conditionId",
              "type": "bytes32"
            },
            {
              "internalType": "uint256[]",
              "name": "payouts",
              "type": "uint256[]"
            },
            {
              "internalType": "enum SolverLib.Status",
              "name": "status",
              "type": "SolverLib.Status"
            }
          ],
          "internalType": "struct SolverLib.Condition",
          "name": "condition",
          "type": "tuple"
        },
        {
          "internalType": "contract IERC20",
          "name": "collateralToken",
          "type": "IERC20"
        },
        {
          "internalType": "uint256",
          "name": "partition",
          "type": "uint256"
        }
      ],
      "name": "getPositionId",
      "outputs": [
        {
          "internalType": "uint256",
          "name": "positionId",
          "type": "uint256"
        }
      ],
      "stateMutability": "view",
      "type": "function"
    },
    {
      "inputs": [
        {
          "components": [
            {
              "internalType": "uint256",
              "name": "executions",
              "type": "uint256"
            },
            {
              "internalType": "enum SolverLib.IngestType",
              "name": "ingestType",
              "type": "SolverLib.IngestType"
            },
            {
              "internalType": "bytes32",
              "name": "slot",
              "type": "bytes32"
            },
            {
              "internalType": "uint256",
              "name": "solverIndex",
              "type": "uint256"
            },
            {
              "internalType": "bytes",
              "name": "data",
              "type": "bytes"
            }
          ],
          "internalType": "struct SolverLib.Ingest[]",
          "name": "ingests",
          "type": "tuple[]"
        },
        {
          "internalType": "uint256",
          "name": "conditionVer",
          "type": "uint256"
        }
      ],
      "name": "ingestsValid",
      "outputs": [
        {
          "internalType": "bool",
          "name": "",
          "type": "bool"
        }
      ],
      "stateMutability": "pure",
      "type": "function"
    }
  ],
  "bytecode": "0x612c4061003a600b82828239805160001a60731461002d57634e487b7160e01b600052600060045260246000fd5b30600052607381538281f3fe73000000000000000000000000000000000000000030146080604052600436106101405760003560e01c806359111fb5116100bc57806385c928671161008b578063d6b3ad8d11610070578063d6b3ad8d14610316578063dd28f0e514610344578063ec7ac2f01461036457610140565b806385c92867146102d6578063b3d73707146102f657610140565b806359111fb5146102565780635cc1f6b514610276578063699e0add146102895780636a0a24f1146102b657610140565b80631b948e491161011357806324b28602116100f857806324b286021461021057806333b2a9ee1461023057806338188cf71461024357610140565b80631b948e49146101d05780632233a017146101f057610140565b80630c5190e2146101455780630e23b7ca146101675780630e70114e146101905780630fa8790b146101b0575b600080fd5b81801561015157600080fd5b50610165610160366004611b24565b610384565b005b61017a610175366004612057565b610657565b60405161018791906126c6565b60405180910390f35b81801561019c57600080fd5b506101656101ab366004611cb8565b6106e4565b8180156101bc57600080fd5b506101656101cb366004611fc8565b61074e565b8180156101dc57600080fd5b506101656101eb366004611ce3565b610e77565b6102036101fe366004611c61565b610e97565b60405161018791906126d1565b81801561021c57600080fd5b5061016561022b366004611f66565b610f29565b61020361023e366004611c1a565b610f43565b610203610251366004612082565b611050565b81801561026257600080fd5b50610165610271366004611f66565b611066565b61017a610284366004611e95565b61107c565b81801561029557600080fd5b506102a96102a4366004611bb2565b6110e8565b604051610187919061286c565b8180156102c257600080fd5b506101656102d1366004611f7e565b611377565b8180156102e257600080fd5b506101656102f1366004611cb8565b61139a565b610309610304366004611f66565b6113b7565b604051610187919061274c565b81801561032257600080fd5b50610336610331366004611d3a565b6115e0565b60405161018792919061251d565b81801561035057600080fd5b5061016561035f366004611ce3565b61167a565b81801561037057600080fd5b5061016561037f366004611f66565b6116e3565b6000856001600160a01b0386166104ba576103a26020860186611f4a565b6001600160a01b03166370a08231306040518263ffffffff1660e01b81526004016103cd919061248a565b60206040518083038186803b1580156103e557600080fd5b505afa1580156103f9573d6000803e3d6000fd5b505050506040513d601f19601f8201168201806040525081019061041d9190611f32565b915061042c6020860186611f4a565b6001600160a01b031663095ea7b3886104458686611050565b6040518363ffffffff1660e01b8152600401610462929190612537565b602060405180830381600087803b15801561047c57600080fd5b505af1158015610490573d6000803e3d6000fd5b505050506040513d601f19601f820116820180604052508101906104b49190611f12565b506105be565b6001600160a01b03811662fdd58e30826339dd75306104dc60208b018b611f4a565b89604001356040518363ffffffff1660e01b81526004016104fe929190612537565b60206040518083038186803b15801561051657600080fd5b505afa15801561052a573d6000803e3d6000fd5b505050506040513d601f19601f8201168201806040525081019061054e9190611f32565b6040518363ffffffff1660e01b815260040161056b929190612537565b60206040518083038186803b15801561058357600080fd5b505afa158015610597573d6000803e3d6000fd5b505050506040513d601f19601f820116820180604052508101906105bb9190611f32565b91505b6001600160a01b0381166372ce42756105da6020880188611f4a565b604087013560608801356105f160808b018b6128fa565b6105fb8a8a611050565b6040518763ffffffff1660e01b815260040161061c9695949392919061275f565b600060405180830381600087803b15801561063657600080fd5b505af115801561064a573d6000803e3d6000fd5b5050505050505050505050565b600160005b60058301548110156106dc57610673856001612b09565b84600001600085600501848154811061069c57634e487b7160e01b600052603260045260246000fd5b906000526020600020906002020160000154815260200190815260200160002080549050146106ca57600091505b806106d481612b9e565b91505061065c565b509392505050565b6001810154604051633124a62b60e21b81526001600160a01b0384169163c49298ac916107189190600480870191016126f3565b600060405180830381600087803b15801561073257600080fd5b505af1158015610746573d6000803e3d6000fd5b505050505050565b600061075d60808501856128fa565b905067ffffffffffffffff81111561078557634e487b7160e01b600052604160045260246000fd5b6040519080825280602002602001820160405280156107ae578160200160208202803683370190505b50905060006107c060808601866128fa565b905067ffffffffffffffff8111156107e857634e487b7160e01b600052604160045260246000fd5b604051908082528060200260200182016040528015610811578160200160208202803683370190505b509050600061082360808701876128fa565b905067ffffffffffffffff81111561084b57634e487b7160e01b600052604160045260246000fd5b604051908082528060200260200182016040528015610874578160200160208202803683370190505b50905060005b61088760808801886128fa565b9050811015610958576108e18961089d8a612b57565b6108aa60208b018b611f4a565b6108b760808c018c6128fa565b868181106108d557634e487b7160e01b600052603260045260246000fd5b90506020020135610f43565b84828151811061090157634e487b7160e01b600052603260045260246000fd5b6020026020010181815250503082828151811061092e57634e487b7160e01b600052603260045260246000fd5b6001600160a01b03909216602092830291909101909101528061095081612b9e565b91505061087a565b506040517f4e1273f40000000000000000000000000000000000000000000000000000000081526001600160a01b03891690634e1273f4906109a09084908790600401612640565b60006040518083038186803b1580156109b857600080fd5b505afa1580156109cc573d6000803e3d6000fd5b505050506040513d6000823e601f3d908101601f191682016040526109f49190810190611edf565b915060005b610a0660a08801886128fa565b9050811015610e6b576000610a1e60808901896128fa565b905067ffffffffffffffff811115610a4657634e487b7160e01b600052604160045260246000fd5b604051908082528060200260200182016040528015610a6f578160200160208202803683370190505b50905060005b610a8260a08a018a6128fa565b84818110610aa057634e487b7160e01b600052603260045260246000fd5b9050602002810190610ab29190612988565b610ac09060208101906128fa565b9050811015610cbb5760008881610ada60a08d018d6128fa565b87818110610af857634e487b7160e01b600052603260045260246000fd5b9050602002810190610b0a9190612988565b610b189060208101906128fa565b85818110610b3657634e487b7160e01b600052603260045260246000fd5b9050602002013581526020019081526020016000208d81548110610b6a57634e487b7160e01b600052603260045260246000fd5b906000526020600020018054610b7f90612b69565b80601f0160208091040260200160405190810160405280929190818152602001828054610bab90612b69565b8015610bf85780601f10610bcd57610100808354040283529160200191610bf8565b820191906000526020600020905b815481529060010190602001808311610bdb57829003601f168201915b5050505050806020019051810190610c109190611f32565b905080610c4a576000838381518110610c3957634e487b7160e01b600052603260045260246000fd5b602002602001018181525050610ca8565b610c7b81878481518110610c6e57634e487b7160e01b600052603260045260246000fd5b6020026020010151611050565b838381518110610c9b57634e487b7160e01b600052603260045260246000fd5b6020026020010181815250505b5080610cb381612b9e565b915050610a75565b506001600160a01b038a16632eb2c2d630896000610cdc60a08e018e6128fa565b88818110610cfa57634e487b7160e01b600052603260045260246000fd5b9050602002810190610d0c9190612988565b6000013581526020019081526020016000208e81548110610d3d57634e487b7160e01b600052603260045260246000fd5b906000526020600020018054610d5290612b69565b80601f0160208091040260200160405190810160405280929190818152602001828054610d7e90612b69565b8015610dcb5780601f10610da057610100808354040283529160200191610dcb565b820191906000526020600020905b815481529060010190602001808311610dae57829003601f168201915b5050505050806020019051810190610de39190611b08565b88858b604051602001610df691906126d1565b6040516020818303038152906040526040518663ffffffff1660e01b8152600401610e2595949392919061249e565b600060405180830381600087803b158015610e3f57600080fd5b505af1158015610e53573d6000803e3d6000fd5b50505050508080610e6390612b9e565b9150506109f9565b50505050505050505050565b6005828101805460ff19169091179055610e9283838361167a565b505050565b6040808301516060840151915163856296f760e01b81526000926001600160a01b0387169263856296f792610ed192908790600401612736565b60206040518083038186803b158015610ee957600080fd5b505afa158015610efd573d6000803e3d6000fd5b505050506040513d601f19601f82011682018060405250810190610f219190611f32565b949350505050565b6005810180546003919060ff19166001835b021790555050565b6040808401516060850151915163856296f760e01b815260009287926001600160a01b038416926339dd7530928892859263856296f792610f8992918b90600401612736565b60206040518083038186803b158015610fa157600080fd5b505afa158015610fb5573d6000803e3d6000fd5b505050506040513d601f19601f82011682018060405250810190610fd99190611f32565b6040518363ffffffff1660e01b8152600401610ff6929190612537565b60206040518083038186803b15801561100e57600080fd5b505afa158015611022573d6000803e3d6000fd5b505050506040513d601f19601f820116820180604052508101906110469190611f32565b9695505050505050565b600061105f83836127106116f9565b9392505050565b6005810180546002919060ff1916600183610f3b565b6000805b838110156110dd57828585838181106110a957634e487b7160e01b600052603260045260246000fd5b90506020028101906110bb91906129a7565b35146110cb57600091505061105f565b806110d581612b9e565b915050611080565b506001949350505050565b6110f061186f565b6110fd60c0850185612941565b30846040516020016111129493929190612696565b60408051601f198184030181529190528051602091820120908201526001600160a01b0383166111485760006040820152611235565b6000836001600160a01b0316637c1236276040518163ffffffff1660e01b815260040160006040518083038186803b15801561118357600080fd5b505afa158015611197573d6000803e3d6000fd5b505050506040513d6000823e601f3d908101601f191682016040526111bf9190810190611d80565b905060008151116111eb5760405162461bcd60e51b81526004016111e2906127fe565b60405180910390fd5b61122e8682600184516111fe9190612b40565b8151811061121c57634e487b7160e01b600052603260045260246000fd5b60200260200101518760400135610e97565b6040830152505b6020808201516040517f852c6ae20000000000000000000000000000000000000000000000000000000081526001600160a01b0388169263852c6ae2926112849230928a0135906004016124fc565b60206040518083038186803b15801561129c57600080fd5b505afa1580156112b0573d6000803e3d6000fd5b505050506040513d601f19601f820116820180604052508101906112d49190611f32565b60608201526112e66020850185611f4a565b6001600160a01b0390811682526020808301516040517fd96ee7540000000000000000000000000000000000000000000000000000000081529288169263d96ee7549261133d92309290918a0135906004016124fc565b600060405180830381600087803b15801561135757600080fd5b505af115801561136b573d6000803e3d6000fd5b50505050949350505050565b60058301805460ff191660021790556113946004840183836118a1565b50505050565b60058101805460ff191660061790556113b382826106e4565b5050565b60606003600183015460ff1660038111156113e257634e487b7160e01b600052602160045260246000fd5b14156114005760405162461bcd60e51b81526004016111e2906127a1565b60018083015460ff16600381111561142857634e487b7160e01b600052602160045260246000fd5b14156114c25781600401805461143d90612b69565b80601f016020809104026020016040519081016040528092919081815260200182805461146990612b69565b80156114b65780601f1061148b576101008083540402835291602001916114b6565b820191906000526020600020905b81548152906001019060200180831161149957829003601f168201915b505050505090506115db565b60038201546040517f3837b05e0000000000000000000000000000000000000000000000000000000081526000913091633837b05e91611504916004016126d1565b60206040518083038186803b15801561151c57600080fd5b505afa158015611530573d6000803e3d6000fd5b505050506040513d601f19601f820116820180604052508101906115549190611b08565b9050600080826001600160a01b03168560040160405161157491906123ef565b600060405180830381855afa9150503d80600081146115af576040519150601f19603f3d011682016040523d82523d6000602084013e6115b4565b606091505b5091509150816115d65760405162461bcd60e51b81526004016111e290612835565b925050505b919050565b6000806001600160a01b038516637bdf8623306115fe866001612b09565b876040518463ffffffff1660e01b815260040161161d93929190612550565b602060405180830381600087803b15801561163757600080fd5b505af115801561164b573d6000803e3d6000fd5b505050506040513d601f19601f8201168201806040525081019061166f9190611b08565b958695509350505050565b6001820154604051633124a62b60e21b81526001600160a01b0385169163c49298ac916116ac919085906004016126da565b600060405180830381600087803b1580156116c657600080fd5b505af11580156116da573d6000803e3d6000fd5b50505050505050565b6005810180546004919060ff1916600183610f3b565b600080806000198587098686029250828110908390030390508061172f576000841161172457600080fd5b50829004905061105f565b80841161173b57600080fd5b600084868809808403938111909203919050600061175b86196001612b09565b861695869004959384900493600081900304600101905061177c8184612b21565b90931792600061178d876003612b21565b600218905061179c8188612b21565b6117a7906002612b40565b6117b19082612b21565b90506117bd8188612b21565b6117c8906002612b40565b6117d29082612b21565b90506117de8188612b21565b6117e9906002612b40565b6117f39082612b21565b90506117ff8188612b21565b61180a906002612b40565b6118149082612b21565b90506118208188612b21565b61182b906002612b40565b6118359082612b21565b90506118418188612b21565b61184c906002612b40565b6118569082612b21565b90506118628186612b21565b9998505050505050505050565b6040805160c081018252600080825260208201819052918101829052606080820183905260808201529060a082015290565b8280548282559060005260206000209081019282156118dc579160200282015b828111156118dc5782358255916020019190600101906118c1565b506118e89291506118ec565b5090565b5b808211156118e857600081556001016118ed565b80356115db81612be5565b60008083601f84011261191d578182fd5b50813567ffffffffffffffff811115611934578182fd5b602083019150836020808302850101111561194e57600080fd5b9250929050565b600082601f830112611965578081fd5b8135602061197a611975836129e6565b6129bc565b8281528181019085830183850287018401881015611996578586fd5b855b858110156119b457813584529284019290840190600101611998565b5090979650505050505050565b600082601f8301126119d1578081fd5b815160206119e1611975836129e6565b82815281810190858301838502870184018810156119fd578586fd5b855b858110156119b4578151845292840192908401906001016119ff565b80516115db81612be5565b80356115db81612bfd565b80516115db81612bfd565b600060e08284031215611a4d578081fd5b50919050565b600060c08284031215611a4d578081fd5b600060c08284031215611a75578081fd5b60405160c0810167ffffffffffffffff8282108183111715611a9957611a99612bcf565b81604052829350611aa985611901565b83526020850135602084015260408501356040840152606085013560608401526080850135915080821115611add57600080fd5b50611aea85828601611955565b608083015250611afc60a08401611a26565b60a08201525092915050565b600060208284031215611b19578081fd5b815161105f81612be5565b600080600080600060a08688031215611b3b578081fd5b8535611b4681612be5565b94506020860135611b5681612be5565b9350604086013567ffffffffffffffff80821115611b72578283fd5b611b7e89838a01611a3c565b94506060880135915080821115611b93578283fd5b50611ba088828901611a53565b95989497509295608001359392505050565b60008060008060808587031215611bc7578182fd5b8435611bd281612be5565b9350602085013567ffffffffffffffff811115611bed578283fd5b611bf987828801611a3c565b9350506040850135611c0a81612be5565b9396929550929360600135925050565b60008060008060808587031215611c2f578182fd5b8435611c3a81612be5565b9350602085013567ffffffffffffffff811115611c55578283fd5b611bf987828801611a64565b600080600060608486031215611c75578081fd5b8335611c8081612be5565b9250602084013567ffffffffffffffff811115611c9b578182fd5b611ca786828701611a64565b925050604084013590509250925092565b60008060408385031215611cca578182fd5b8235611cd581612be5565b946020939093013593505050565b600080600060608486031215611cf7578081fd5b8335611d0281612be5565b925060208401359150604084013567ffffffffffffffff811115611d24578182fd5b611d3086828701611955565b9150509250925092565b600080600060608486031215611d4e578081fd5b8335611d5981612be5565b9250602084013567ffffffffffffffff811115611d74578182fd5b611ca786828701611a3c565b60006020808385031215611d92578182fd5b825167ffffffffffffffff80821115611da9578384fd5b818501915085601f830112611dbc578384fd5b8151611dca611975826129e6565b81815284810190848601875b84811015611e86578151870160c080601f19838f03011215611df6578a8bfd5b604080518281018181108b82111715611e1157611e11612bcf565b8252611e1e848d01611a1b565b8152818401518c8201526060840151828201526080840151606082015260a0840151915089821115611e4e578c8dfd5b611e5c8f8d848701016119c1565b6080820152611e6c838501611a31565b60a082015287525050509287019290870190600101611dd6565b50909998505050505050505050565b600080600060408486031215611ea9578081fd5b833567ffffffffffffffff811115611ebf578182fd5b611ecb8682870161190c565b909790965060209590950135949350505050565b600060208284031215611ef0578081fd5b815167ffffffffffffffff811115611f06578182fd5b610f21848285016119c1565b600060208284031215611f23578081fd5b8151801515811461105f578182fd5b600060208284031215611f43578081fd5b5051919050565b600060208284031215611f5b578081fd5b813561105f81612be5565b600060208284031215611f77578081fd5b5035919050565b600080600060408486031215611f92578081fd5b83359250602084013567ffffffffffffffff811115611faf578182fd5b611fbb8682870161190c565b9497909650939450505050565b60008060008060008060c08789031215611fe0578384fd5b863595506020870135611ff281612be5565b9450604087013567ffffffffffffffff8082111561200e578586fd5b61201a8a838b01611a53565b9550606089013591508082111561202f578283fd5b5061203c89828a01611a3c565b9350506080870135915060a087013590509295509295509295565b60008060006060848603121561206b578081fd5b505081359360208301359350604090920135919050565b60008060408385031215612094578182fd5b50508035926020909101359150565b6001600160a01b03169052565b60008284527f07ffffffffffffffffffffffffffffffffffffffffffffffffffffffffffffff8311156120e1578081fd5b6020830280836020870137939093016020019283525090919050565b818352602080840193600091908185020181018584845b8781101561219c5782840389528135609e19883603018112612134578687fd5b87018035855260a0868201356004811061214c578889fd5b868801526040828101359087015260608083013590870152608061217281840184612aa6565b935082828901526121868389018583612245565b9c89019c97505050928601925050600101612114565b5091979650505050505050565b60008284526020808501945082825b8581101561220b57813587528282013560ff8082168083146121d8578687fd5b898601526040915083820135908116908181146121f3578687fd5b509088015260609687019691909101906001016121b8565b509495945050505050565b6000815180845260208085019450808401835b8381101561220b57815187529582019590820190600101612229565b60008284528282602086013780602084860101526020601f19601f85011685010190509392505050565b60008151808452815b8181101561229457602081850181015186830182015201612278565b818111156122a55782602083870101525b50601f01601f19169290920160200192915050565b600781106122d857634e487b7160e01b600052602160045260246000fd5b9052565b600081356122e981612be5565b6001600160a01b0316835260208281013581850152604080840135818601526060808501359086015261231f6080850185612a16565b60e0608088015261233460e0880182846120b0565b91505061234460a0860186612a16565b87830360a08901528083528483018582028401860183885b848110156123bb57868303601f19018452813536879003603e19018112612381578a8bfd5b8601803584526123938a820182612a16565b9150898b8601526123a78a860183836120b0565b958b0195945050509088019060010161235c565b50506123ca60c08a018a612a5e565b9750955089810360c08b01526123e18188886121a9565b9a9950505050505050505050565b815460009081906002810460018083168061240b57607f831692505b602080841082141561242b57634e487b7160e01b87526022600452602487fd5b81801561243f57600181146124505761247c565b60ff1986168952848901965061247c565b6124598a612a0a565b885b868110156124745781548b82015290850190830161245b565b505084890196505b509498975050505050505050565b6001600160a01b0391909116815260200190565b60006001600160a01b03808816835280871660208401525060a060408301526124ca60a0830186612216565b82810360608401526124dc8186612216565b905082810360808401526124f0818561226f565b98975050505050505050565b6001600160a01b039390931683526020830191909152604082015260600190565b6001600160a01b0392831681529116602082015260400190565b6001600160a01b03929092168252602082015260400190565b60006001600160a01b038516825283602083015260606040830152823561257681612be5565b61258360608401826120a3565b5061259060208401611901565b61259d60808401826120a3565b506125aa60408401611901565b6125b760a08401826120a3565b50606083013560c08301526125cf6080840184612aa6565b60e0808501526125e461014085018284612245565b9150506125f460a0850185612a16565b605f19808685030161010087015261260d8483856120fd565b935061261c60c0880188612aeb565b92508086850301610120870152505061263582826122dc565b979650505050505050565b604080825283519082018190526000906020906060840190828701845b828110156126825781516001600160a01b03168452928401929084019060010161265d565b505050838103828501526110468186612216565b6000606082526126aa6060830186886121a9565b6001600160a01b03949094166020830152506040015292915050565b901515815260200190565b90815260200190565b600083825260406020830152610f216040830184612216565b60006040820184835260206040818501528185548084526060860191508685528285209350845b818110156119b45784548352600194850194928401920161271a565b9283526020830191909152604082015260600190565b60006020825261105f602083018461226f565b60006001600160a01b038816825286602083015285604083015260a0606083015261278e60a0830185876120b0565b9050826080830152979650505050505050565b60208082526022908201527f4d616e75616c20696e67657374732073686f756c64206e6f742067657420686560408201527f7265000000000000000000000000000000000000000000000000000000000000606082015260800190565b60208082526018908201527f506172656e7420686173206e6f20636f6e646974696f6e730000000000000000604082015260600190565b60208082526018908201527f496e676573742073746174696363616c6c206661696c65640000000000000000604082015260600190565b6000602080835260e083016001600160a01b03855116828501528185015160408501526040850151606085015260608501516080850152608085015160c060a08601528181518084526101008701915084830193508592505b808310156128e557835182529284019260019290920191908401906128c5565b5060a0870151935061104660c08701856122ba565b6000808335601e19843603018112612910578283fd5b83018035915067ffffffffffffffff82111561292a578283fd5b602090810192508102360382131561194e57600080fd5b6000808335601e19843603018112612957578283fd5b83018035915067ffffffffffffffff821115612971578283fd5b602001915060608102360382131561194e57600080fd5b60008235603e1983360301811261299d578182fd5b9190910192915050565b60008235609e1983360301811261299d578182fd5b60405181810167ffffffffffffffff811182821017156129de576129de612bcf565b604052919050565b600067ffffffffffffffff821115612a0057612a00612bcf565b5060209081020190565b60009081526020902090565b6000808335601e19843603018112612a2c578283fd5b830160208101925035905067ffffffffffffffff811115612a4c57600080fd5b60208102360383131561194e57600080fd5b6000808335601e19843603018112612a74578283fd5b830160208101925035905067ffffffffffffffff811115612a9457600080fd5b60608102360383131561194e57600080fd5b6000808335601e19843603018112612abc578283fd5b830160208101925035905067ffffffffffffffff811115612adc57600080fd5b80360383131561194e57600080fd5b6000823560de19833603018112612b00578182fd5b90910192915050565b60008219821115612b1c57612b1c612bb9565b500190565b6000816000190483118215151615612b3b57612b3b612bb9565b500290565b600082821015612b5257612b52612bb9565b500390565b6000612b633683611a64565b92915050565b600281046001821680612b7d57607f821691505b60208210811415611a4d57634e487b7160e01b600052602260045260246000fd5b6000600019821415612bb257612bb2612bb9565b5060010190565b634e487b7160e01b600052601160045260246000fd5b634e487b7160e01b600052604160045260246000fd5b6001600160a01b0381168114612bfa57600080fd5b50565b60078110612bfa57600080fdfea264697066735822122026fdfece3e2fd9ccc398eb9309170e27fef553970c79b276058a1d0ec77523a664736f6c63430008000033",
  "linkReferences": {},
  "deployedLinkReferences": {}
}