{
  "_format": "hh-sol-artifact-1",
  "contractName": "SolutionsHub",
  "sourceName": "contracts/SolutionsHub.sol",
  "abi": [
    {
      "inputs": [
        {
          "internalType": "address",
          "name": "_factoryAddress",
          "type": "address"
        }
      ],
      "stateMutability": "nonpayable",
      "type": "constructor"
    },
    {
      "anonymous": false,
      "inputs": [
        {
          "indexed": false,
          "internalType": "bytes32",
          "name": "id",
          "type": "bytes32"
        }
      ],
      "name": "CreateSolution",
      "type": "event"
    },
    {
      "anonymous": false,
      "inputs": [
        {
          "indexed": false,
          "internalType": "bytes32",
          "name": "id",
          "type": "bytes32"
        }
      ],
      "name": "ExecuteSolution",
      "type": "event"
    },
    {
      "inputs": [
        {
          "internalType": "bytes32",
          "name": "_id",
          "type": "bytes32"
        },
        {
          "internalType": "contract IERC20",
          "name": "_collateralToken",
          "type": "address"
        },
        {
          "components": [
            {
              "internalType": "contract Solver",
              "name": "implementation",
              "type": "address"
            },
            {
              "internalType": "address",
              "name": "keeper",
              "type": "address"
            },
            {
              "internalType": "address",
              "name": "arbitrator",
              "type": "address"
            },
            {
              "internalType": "uint256",
              "name": "timelockSeconds",
              "type": "uint256"
            },
            {
              "internalType": "bytes",
              "name": "data",
              "type": "bytes"
            },
            {
              "components": [
                {
                  "internalType": "uint256",
                  "name": "executions",
                  "type": "uint256"
                },
                {
                  "internalType": "enum SolverLib.IngestType",
                  "name": "ingestType",
                  "type": "uint8"
                },
                {
                  "internalType": "bytes32",
                  "name": "slot",
                  "type": "bytes32"
                },
                {
                  "internalType": "uint256",
                  "name": "solverIndex",
                  "type": "uint256"
                },
                {
                  "internalType": "bytes",
                  "name": "data",
                  "type": "bytes"
                }
              ],
              "internalType": "struct SolverLib.Ingest[]",
              "name": "ingests",
              "type": "tuple[]"
            },
            {
              "components": [
                {
                  "internalType": "contract IERC20",
                  "name": "collateralToken",
                  "type": "address"
                },
                {
                  "internalType": "uint256",
                  "name": "outcomeSlots",
                  "type": "uint256"
                },
                {
                  "internalType": "uint256",
                  "name": "parentCollectionIndexSet",
                  "type": "uint256"
                },
                {
                  "internalType": "bytes32",
                  "name": "amountSlot",
                  "type": "bytes32"
                },
                {
                  "internalType": "uint256[]",
                  "name": "partition",
                  "type": "uint256[]"
                },
                {
                  "components": [
                    {
                      "internalType": "bytes32",
                      "name": "recipientAddressSlot",
                      "type": "bytes32"
                    },
                    {
                      "internalType": "bytes32[]",
                      "name": "recipientAmountSlots",
                      "type": "bytes32[]"
                    }
                  ],
                  "internalType": "struct SolverLib.Allocation[]",
                  "name": "allocations",
                  "type": "tuple[]"
                },
                {
                  "components": [
                    {
                      "internalType": "bytes32",
                      "name": "digest",
                      "type": "bytes32"
                    },
                    {
                      "internalType": "uint8",
                      "name": "hashFunction",
                      "type": "uint8"
                    },
                    {
                      "internalType": "uint8",
                      "name": "size",
                      "type": "uint8"
                    }
                  ],
                  "internalType": "struct SolverLib.Multihash[]",
                  "name": "outcomeURIs",
                  "type": "tuple[]"
                }
              ],
              "internalType": "struct SolverLib.ConditionBase",
              "name": "conditionBase",
              "type": "tuple"
            }
          ],
          "internalType": "struct SolverLib.Config[]",
          "name": "_solverConfigs",
          "type": "tuple[]"
        }
      ],
      "name": "createSolution",
      "outputs": [
        {
          "internalType": "bytes32",
          "name": "_solutionId",
          "type": "bytes32"
        }
      ],
      "stateMutability": "nonpayable",
      "type": "function"
    },
    {
      "inputs": [
        {
          "internalType": "bytes32",
          "name": "_proposalId",
          "type": "bytes32"
        },
        {
          "internalType": "bytes32",
          "name": "_solutionId",
          "type": "bytes32"
        }
      ],
      "name": "executeSolution",
      "outputs": [],
      "stateMutability": "nonpayable",
      "type": "function"
    },
    {
      "inputs": [
        {
          "internalType": "bytes32",
          "name": "solutionId",
          "type": "bytes32"
        }
      ],
      "name": "getSolution",
      "outputs": [
        {
          "components": [
            {
              "internalType": "bool",
              "name": "executed",
              "type": "bool"
            },
            {
              "internalType": "contract IERC20",
              "name": "collateralToken",
              "type": "address"
            },
            {
              "internalType": "address",
              "name": "proposalHub",
              "type": "address"
            },
            {
              "internalType": "bytes32",
              "name": "proposalId",
              "type": "bytes32"
            },
            {
              "internalType": "bytes32",
              "name": "id",
              "type": "bytes32"
            },
            {
              "components": [
                {
                  "internalType": "contract Solver",
                  "name": "implementation",
                  "type": "address"
                },
                {
                  "internalType": "address",
                  "name": "keeper",
                  "type": "address"
                },
                {
                  "internalType": "address",
                  "name": "arbitrator",
                  "type": "address"
                },
                {
                  "internalType": "uint256",
                  "name": "timelockSeconds",
                  "type": "uint256"
                },
                {
                  "internalType": "bytes",
                  "name": "data",
                  "type": "bytes"
                },
                {
                  "components": [
                    {
                      "internalType": "uint256",
                      "name": "executions",
                      "type": "uint256"
                    },
                    {
                      "internalType": "enum SolverLib.IngestType",
                      "name": "ingestType",
                      "type": "uint8"
                    },
                    {
                      "internalType": "bytes32",
                      "name": "slot",
                      "type": "bytes32"
                    },
                    {
                      "internalType": "uint256",
                      "name": "solverIndex",
                      "type": "uint256"
                    },
                    {
                      "internalType": "bytes",
                      "name": "data",
                      "type": "bytes"
                    }
                  ],
                  "internalType": "struct SolverLib.Ingest[]",
                  "name": "ingests",
                  "type": "tuple[]"
                },
                {
                  "components": [
                    {
                      "internalType": "contract IERC20",
                      "name": "collateralToken",
                      "type": "address"
                    },
                    {
                      "internalType": "uint256",
                      "name": "outcomeSlots",
                      "type": "uint256"
                    },
                    {
                      "internalType": "uint256",
                      "name": "parentCollectionIndexSet",
                      "type": "uint256"
                    },
                    {
                      "internalType": "bytes32",
                      "name": "amountSlot",
                      "type": "bytes32"
                    },
                    {
                      "internalType": "uint256[]",
                      "name": "partition",
                      "type": "uint256[]"
                    },
                    {
                      "components": [
                        {
                          "internalType": "bytes32",
                          "name": "recipientAddressSlot",
                          "type": "bytes32"
                        },
                        {
                          "internalType": "bytes32[]",
                          "name": "recipientAmountSlots",
                          "type": "bytes32[]"
                        }
                      ],
                      "internalType": "struct SolverLib.Allocation[]",
                      "name": "allocations",
                      "type": "tuple[]"
                    },
                    {
                      "components": [
                        {
                          "internalType": "bytes32",
                          "name": "digest",
                          "type": "bytes32"
                        },
                        {
                          "internalType": "uint8",
                          "name": "hashFunction",
                          "type": "uint8"
                        },
                        {
                          "internalType": "uint8",
                          "name": "size",
                          "type": "uint8"
                        }
                      ],
                      "internalType": "struct SolverLib.Multihash[]",
                      "name": "outcomeURIs",
                      "type": "tuple[]"
                    }
                  ],
                  "internalType": "struct SolverLib.ConditionBase",
                  "name": "conditionBase",
                  "type": "tuple"
                }
              ],
              "internalType": "struct SolverLib.Config[]",
              "name": "solverConfigs",
              "type": "tuple[]"
            },
            {
              "internalType": "address[]",
              "name": "solverAddresses",
              "type": "address[]"
            }
          ],
          "internalType": "struct SolutionsHub.Solution",
          "name": "solution",
          "type": "tuple"
        }
      ],
      "stateMutability": "view",
      "type": "function"
    },
    {
      "inputs": [
        {
          "internalType": "bytes32",
          "name": "_solutionId",
          "type": "bytes32"
        }
      ],
      "name": "getSolvers",
      "outputs": [
        {
          "internalType": "address[]",
          "name": "solvers",
          "type": "address[]"
        }
      ],
      "stateMutability": "view",
      "type": "function"
    },
    {
      "inputs": [
        {
          "internalType": "bytes32",
          "name": "_proposalId",
          "type": "bytes32"
        },
        {
          "internalType": "bytes32",
          "name": "_solutionId",
          "type": "bytes32"
        },
        {
          "internalType": "contract IERC20",
          "name": "collateralToken",
          "type": "address"
        }
      ],
      "name": "linkToProposal",
      "outputs": [],
      "stateMutability": "nonpayable",
      "type": "function"
    },
    {
      "inputs": [
        {
          "internalType": "bytes32",
          "name": "_solutionId",
          "type": "bytes32"
        },
        {
          "internalType": "uint256",
          "name": "_index",
          "type": "uint256"
        }
      ],
      "name": "solverFromIndex",
      "outputs": [
        {
          "internalType": "address",
          "name": "_address",
          "type": "address"
        }
      ],
      "stateMutability": "view",
      "type": "function"
    }
  ],
  "bytecode": "0x60a060405234801561001057600080fd5b50604051620024483803806200244883398101604081905261003191610046565b60601b6001600160601b031916608052610074565b600060208284031215610057578081fd5b81516001600160a01b038116811461006d578182fd5b9392505050565b60805160601c6123b5620000936000396000610c5e01526123b56000f3fe608060405234801561001057600080fd5b50600436106100625760003560e01c8063191481a0146100675780631e855b3f14610090578063307d6cb6146100b057806360bbb928146100d0578063a2440b9d146100e5578063ddc02e03146100f8575b600080fd5b61007a610075366004610ff5565b610118565b60405161008791906116bd565b60405180910390f35b6100a361009e366004610f70565b610165565b6040516100879190611745565b6100c36100be366004610eff565b61028b565b60405161008791906116f8565b6100e36100de366004610f17565b6102f8565b005b6100e36100f3366004610f38565b610615565b61010b610106366004610eff565b61070b565b60405161008791906118f2565b600082815260208190526040812060050180548390811061014957634e487b7160e01b600052603260045260246000fd5b6000918252602090912001546001600160a01b03169392505050565b60008481526020819052604081206003015485141561019f5760405162461bcd60e51b815260040161019690611826565b60405180910390fd5b6000858152602081905260408120600381018790558054610100600160a81b0319166101006001600160a01b03881602178155905b83811015610249578160040185858381811061020057634e487b7160e01b600052603260045260246000fd5b90506020028101906102129190611a67565b8154600181018355600092835260209092209091600d02016102348282612074565b5050808061024190611e5b565b9150506101d4565b507faf58c2d61bce90c15ecad6e5142ecbbb0b542b557388df7578e0162b098999a3866040516102799190611745565b60405180910390a15093949350505050565b600081815260208181526040918290206005018054835181840281018401909452808452606093928301828280156102ec57602002820191906000526020600020905b81546001600160a01b031681526001909101906020018083116102ce575b50505050509050919050565b6000818152602081905260409020600101546001600160a01b031633146103315760405162461bcd60e51b8152600401610196906118ae565b60008181526020819052604090206002015482146103615760405162461bcd60e51b8152600401610196906117fc565b60008181526020819052604090205460ff16156103905760405162461bcd60e51b8152600401610196906117c9565b6000818152602081905260409020805460ff191660011790556103b281610c3a565b336001600160a01b0316631918063f836000808581526020019081526020016000206005016000815481106103f757634e487b7160e01b600052603260045260246000fd5b6000918252602090912001546040516001600160e01b031960e085901b16815261042e92916001600160a01b03169060040161174e565b600060405180830381600087803b15801561044857600080fd5b505af115801561045c573d6000803e3d6000fd5b5050505060005b6000828152602081905260409020600501548110156105405760008281526020819052604081206005018054839081106104ad57634e487b7160e01b600052603260045260246000fd5b600091825260208083209091015485835290829052604091829020600201549151630683080d60e11b81526001600160a01b0390911692508291630d06101a916104fa9190600401611745565b600060405180830381600087803b15801561051457600080fd5b505af1158015610528573d6000803e3d6000fd5b5050505050808061053890611e5b565b915050610463565b506000818152602081905260408120600501805490919061057157634e487b7160e01b600052603260045260246000fd5b600091825260208220015460405163253b91a760e11b81526001600160a01b0390911691634a77234e916105a89190600401611745565b600060405180830381600087803b1580156105c257600080fd5b505af11580156105d6573d6000803e3d6000fd5b505050507fabe14211ae2537ee6b7aa77dde5785f740f88443cc6f3a4a4b68bb0e6a5652fa816040516106099190611745565b60405180910390a15050565b60405163d3f79a0560e01b8152339063d3f79a0590610638908690600401611745565b60206040518083038186803b15801561065057600080fd5b505afa158015610664573d6000803e3d6000fd5b505050506040513d601f19601f820116820180604052508101906106889190610edf565b6106a45760405162461bcd60e51b81526004016101969061186a565b6000828152602081905260409020546001600160a01b0382811661010090920416146106e25760405162461bcd60e51b815260040161019690611765565b5060009081526020819052604090206001810180546001600160a01b0319163317905560020155565b610713610e7e565b600082815260208181526040808320815160e081018352815460ff8116151582526001600160a01b036101009091048116828601526001830154168184015260028201546060820152600382015460808201526004820180548451818702810187019095528085529195929460a0870194939192919084015b82821015610bc95760008481526020908190206040805160e081018252600d860290920180546001600160a01b0390811684526001820154811694840194909452600281015490931690820152600382015460608201526004820180549192916080840191906107fb90611e0d565b80601f016020809104026020016040519081016040528092919081815260200182805461082790611e0d565b80156108745780601f1061084957610100808354040283529160200191610874565b820191906000526020600020905b81548152906001019060200180831161085757829003601f168201915b5050505050815260200160058201805480602002602001604051908101604052809291908181526020016000905b828210156109d957838290600052602060002090600502016040518060a0016040529081600082015481526020016001820160009054906101000a900460ff16600381111561090157634e487b7160e01b600052602160045260246000fd5b600381111561092057634e487b7160e01b600052602160045260246000fd5b8152602001600282015481526020016003820154815260200160048201805461094890611e0d565b80601f016020809104026020016040519081016040528092919081815260200182805461097490611e0d565b80156109c15780601f10610996576101008083540402835291602001916109c1565b820191906000526020600020905b8154815290600101906020018083116109a457829003601f168201915b505050505081525050815260200190600101906108a2565b505050908252506040805160e0810182526006840180546001600160a01b03168252600785015460208381019190915260088601548385015260098601546060840152600a860180548551818402810184019096528086529582019593949293608086019392830182828015610a6e57602002820191906000526020600020905b815481526020019060010190808311610a5a575b5050505050815260200160058201805480602002602001604051908101604052809291908181526020016000905b82821015610b3057838290600052602060002090600202016040518060400160405290816000820154815260200160018201805480602002602001604051908101604052809291908181526020018280548015610b1857602002820191906000526020600020905b815481526020019060010190808311610b04575b50505050508152505081526020019060010190610a9c565b50505050815260200160068201805480602002602001604051908101604052809291908181526020016000905b82821015610baf57600084815260209081902060408051606081018252600286029092018054835260019081015460ff8082168587015261010090910416918301919091529083529092019101610b5d565b50505091525050905250815260019091019060200161078c565b50505050815260200160058201805480602002602001604051908101604052809291908181526020018280548015610c2a57602002820191906000526020600020905b81546001600160a01b03168152600190910190602001808311610c0c575b5050505050815250509050919050565b6000805b600083815260208190526040902060040154811015610e795780610d6d577f00000000000000000000000000000000000000000000000000000000000000006001600160a01b0316637bdf86236000836000808881526020019081526020016000206004018581548110610cc257634e487b7160e01b600052603260045260246000fd5b90600052602060002090600d02016040518463ffffffff1660e01b8152600401610cee939291906116d1565b602060405180830381600087803b158015610d0857600080fd5b505af1158015610d1c573d6000803e3d6000fd5b505050506040513d601f19601f82011682018060405250810190610d409190610ebc565b91506001600160a01b038216610d685760405162461bcd60e51b815260040161019690611795565b610e2f565b816001600160a01b0316630944e26e6000808681526020019081526020016000206004018381548110610db057634e487b7160e01b600052603260045260246000fd5b90600052602060002090600d02016040518263ffffffff1660e01b8152600401610dda91906118df565b602060405180830381600087803b158015610df457600080fd5b505af1158015610e08573d6000803e3d6000fd5b505050506040513d601f19601f82011682018060405250810190610e2c9190610ebc565b91505b6000838152602081815260408220600501805460018101825590835291200180546001600160a01b0319166001600160a01b03841617905580610e7181611e5b565b915050610c3e565b505050565b6040805160e0810182526000808252602082018190529181018290526060808201839052608082019290925260a0810182905260c081019190915290565b600060208284031215610ecd578081fd5b8151610ed881612367565b9392505050565b600060208284031215610ef0578081fd5b81518015158114610ed8578182fd5b600060208284031215610f10578081fd5b5035919050565b60008060408385031215610f29578081fd5b50508035926020909101359150565b600080600060608486031215610f4c578081fd5b83359250602084013591506040840135610f6581612367565b809150509250925092565b60008060008060608587031215610f85578081fd5b843593506020850135610f9781612367565b925060408501356001600160401b0380821115610fb2578283fd5b818701915087601f830112610fc5578283fd5b813581811115610fd3578384fd5b8860208083028501011115610fe6578384fd5b95989497505060200194505050565b60008060408385031215610f29578182fd5b6001600160a01b03169052565b6000815180845260208085019450808401835b8381101561104c5781516001600160a01b031687529582019590820190600101611027565b509495945050505050565b6000815180845260208085018081965082840281019150828601855b858110156110da5782840389528151805185528501516040868601819052815190860181905290860190606086019089905b808210156110c557835183529288019291880191600191909101906110a5565b50509986019994505090840190600101611073565b5091979650505050505050565b6000815480845260208085018081965082840281019150858552828520855b858110156110da57828403895281548452604085850181905260018084018054928701839052895286892060608701929091908a905b80821015611159578354855293890193928201929082019061113c565b5050509986019950935060029190910190600101611106565b6000815180845260208085018081965082840281019150828601855b858110156110da578284038952815180516001600160a01b03908116865286820151168686015260408082015160e091906111cb82890182611007565b5050606080830151818801525060808083015182828901526111ef838901826113de565b9250505060a0808301518783038289015261120a838261123c565b9250505060c0808301519250868203818801525061122881836114c2565b9a87019a955050509084019060010161118e565b6000815180845260208085018081965082840281019150828601855b858110156110da578284038952815160a0815186528682015161127d888801826114a0565b5060408281015190870152606080830151908701526080918201519186018190526112aa818701836113de565b9a87019a9550505090840190600101611258565b6000815480845260208085018081965082840281019150858552828520855b858110156110da57828403895260a08254855260ff600184015416611304878701826114a0565b50600283015460408601526003830154606086015280608086015261132e81860160048501611429565b99860199945050600591909101906001016112dd565b6000815180845260208085019450808401835b8381101561104c578151805188528381015160ff908116858a0152604091820151169088015260609096019590820190600101611357565b6000815480845260208085019450838352808320835b8381101561104c578154875260018083015460ff808216868b015260089190911c166040890152606090970196600290920191016113a5565b60008151808452815b81811015611403576020818501810151868301820152016113e7565b818111156114145782602083870101525b50601f01601f19169290920160200192915050565b6000815461143681611e0d565b808552602060018381168015611453576001811461146757611495565b60ff19851688840152604088019550611495565b866000528260002060005b8581101561148d5781548a8201860152908301908401611472565b890184019650505b505050505092915050565b600481106114be57634e487b7160e01b600052602160045260246000fd5b9052565b80516001600160a01b0316825260208082015181840152604080830151908401526060808301519084015260808083015160e091850182905280519185018290526000929081019183906101008701905b808310156115335784518252938301936001929092019190830190611513565b5060a0860151935086810360a088015261154d8185611057565b935050505060c083015184820360c08601526115698282611344565b95945050505050565b600060e0830160018060a01b03835416845260018084015460208181880152600286015460408801526003860154606088015260048601915060e060808801528382548086526101008901915083875282872095508693505b808410156115e857855482529484019492840192908201906115cb565b5087810360a08901526115fe81600589016110e7565b94505050505083810360c0850152611619816006850161138f565b949350505050565b805460009061163a9084906001600160a01b0316611007565b6116476001830154611b43565b6116546020850182611007565b506116626002830154611b43565b61166f6040850182611007565b506003820154606084015260e0608084015261169160e0840160048401611429565b83810360a08501526116a681600585016112be565b905083810360c08501526116198160068501611572565b6001600160a01b0391909116815260200190565b600060018060a01b0385168252836020830152606060408301526115696060830184611621565b6020808252825182820181905260009190848201906040850190845b818110156117395783516001600160a01b031683529284019291840191600101611714565b50909695505050505050565b90815260200190565b9182526001600160a01b0316602082015260400190565b6020808252601690820152752bb937b7339031b7b63630ba32b930b6103a37b5b2b760511b604082015260600190565b6020808252601a908201527924b73b30b634b21030b2323932b9b9903337b91029b7b63b32b960311b604082015260600190565b60208082526019908201527814dbdb1d5d1a5bdb88185b1c9958591e48195e1958dd5d1959603a1b604082015260600190565b60208082526010908201526f15dc9bdb99c81c1c9bdc1bdcd85b125960821b604082015260600190565b60208082526024908201527f536f6c7574696f6e734875623a3a5468697320494420616c72656164792065786040820152636973747360e01b606082015260800190565b60208082526024908201527f50726f706f73616c206973206e6f742076616c69642061742070726f706f736160408201526336243ab160e11b606082015260800190565b6020808252601790820152762737ba1031b7b93932b1ba10383937b837b9b0b6243ab160491b604082015260600190565b600060208252610ed86020830184611621565b60006020825282511515602083015260018060a01b03602084015116604083015260408301516119256060840182611007565b5060608301516080830152608083015160a083015260a083015160e060c0840152611954610100840182611172565b905060c0840151601f198483030160e08501526115698282611014565b6000808335601e19843603018112611987578283fd5b8301803591506001600160401b038211156119a0578283fd5b60209081019250810236038213156119b757600080fd5b9250929050565b6000808335601e198436030181126119d4578283fd5b8301803591506001600160401b038211156119ed578283fd5b60200191506060810236038213156119b757600080fd5b6000808335601e19843603018112611a1a578283fd5b8301803591506001600160401b03821115611a33578283fd5b6020019150368190038213156119b757600080fd5b60008235603e19833603018112611a5d578182fd5b9190910192915050565b6000823560de19833603018112611a5d578182fd5b60008235609e19833603018112611a5d578182fd5b60009081526020902090565b602084108015611af357601f841160018114611ac457611abd8685611e48565b8355611aed565b611acd83611a91565b611ae26020601f880104820160018301611b4f565b50611aed8684611f33565b50611b3c565b8160005260206000206020601f8701048101601f87168015611b1d57611b1d816000198401611eb8565b50611b306020601f880104830182611b4f565b50506001856002021782555b5050505050565b6001600160a01b031690565b5b81811015611b645760008155600101611b50565b5050565b600160401b831115611b7c57611b7c611ea2565b805483825580841015611c01576001600160ff1b036001818311811615611ba557611ba5611e8c565b6002828711821615611bb957611bb9611e8c565b600085815260208120909350878202810190828602015b80821015611bfb57611be485868454611f51565b8255611bf285858401611ee4565b90820190611bd0565b50505050505b5081611c0c82611a91565b6000805b86811015611c4257611c2c611c258588611a48565b838561224e565b6020939093019260029290920191600101611c10565b50505050505050565b600160401b831115611c5f57611c5f611ea2565b805483825580841015611cde576001600160ff1b036001818311811615611c8857611c88611e8c565b6002828711821615611c9c57611c9c611e8c565b600085815260208120909350878202810190828602015b80821015611cd857611cc785868454611f51565b825584848301558282019150611cb3565b50505050505b5081611ce982611a91565b6000805b86811015611c4257611d00848385612315565b6060939093019260029290920191600101611ced565b6001600160401b03831115611d2d57611d2d611ea2565b611d378154611e0d565b600080601f8611601f841181811715611d5657611d5386611a91565b92505b8015611d85576020601f89010483016020891015611d715750825b611d836020601f880104850182611b4f565b505b508060018114611db157600094508715611da0578387013594505b611daa8886611e48565b8655611e03565b601f198816945082845b86811015611ddb5788860135825560209586019560019092019101611dbb565b5088861015611df857878501356000196008601f8c16021c191681555b506001600289020186555b5050505050505050565b600281046001821680611e2157607f821691505b60208210811415611e4257634e487b7160e01b600052602260045260246000fd5b50919050565b600019600883021c191660029091021790565b6000600019821415611e6f57611e6f611e8c565b5060010190565b634e487b7160e01b600052600060045260246000fd5b634e487b7160e01b600052601160045260246000fd5b634e487b7160e01b600052604160045260246000fd5b8054600019836020036008021c1681555050565b6000813560ff81168114611ede578182fd5b92915050565b600160401b821115611ef857611ef8611ea2565b805482825580831015610e79576000828152602081208481019083015b80821015611f2b57828255600182019150611f15565b505050505050565b806000526020600020611f47838254611e48565b9091556000905550565b60089190910291821b60001990921b9182169119161790565b80546001600160a01b0319166001600160a01b0392909216919091179055565b8135611f9581612367565b611f9f8183611f6a565b50600160208084013582840155604084013560028401556060840135600384015560048301611fd16080860186611971565b600160401b811115611fe557611fe5611ea2565b82548184558082101561200a578360005284600020612008828201848301611b4f565b505b506000928352838320925b81811015612030578235845592850192918401918501612015565b50505050505061204360a0830183611971565b612051818360058601611b68565b505061206060c08301836119be565b61206e818360068601611c4b565b50505050565b813561207f81612367565b6120898183611f6a565b50600160208084013561209b81612367565b6120a781848601611f6a565b50600260408501356120b881612367565b6120c481838701611f6a565b50600360608601358186015560046120df6080880188611a04565b6120ec8183858b01611d16565b5050600580870161210060a08a018a611971565b600160401b81111561211457612114611ea2565b8254818455808210156121e8577f33333333333333333333333333333333333333333333333333333333333333338082118b161561215457612154611e8c565b8083118b161561216657612166611e8c565b506000848152898120838702810190878402015b808210156121e45761218e83848454611f51565b8255828d8301558a82016121a484858354611f51565b8155508982016121b684858354611f51565b905581890180546121c681611e0d565b80156121d8576121d886828486611a9d565b5050509087019061217a565b5050505b508196506121f583611a91565b9550600094508492505b8083101561222c5761221b6122148884611a7c565b86886122ad565b9587019594830194918801916121ff565b505050505050505050611b6461224560c0840184611a67565b60068301611f8a565b811561225c5761225c611e76565b823581556001808201602061227381870187611971565b61227d8185611ee4565b6000938452828420935b818110156122a2578235855593850193918301918501612287565b505050505050505050565b81156122bb576122bb611e76565b82358155600181016020840135600481106122d557600080fd5b60ff1982541660ff82168117835550505060408301356002820155606083013560038201556123076080840184611a04565b611b3c818360048601611d16565b811561232357612323611e76565b823581556001810160ff61233960208601611ecc565b1660ff198254161780825561ff0061235360408701611ecc565b60081b1661ff001982161782555050505050565b6001600160a01b038116811461237c57600080fd5b5056fea264697066735822122077cf55cc7c7e6e6160051d1596d535a0d5b33a33bff43b08090c38f47f5ff32d64736f6c63430008000033",
  "linkReferences": {},
  "deployedLinkReferences": {}
}