{
  "_format": "hh-sol-artifact-1",
  "contractName": "SolutionsHub",
  "sourceName": "contracts/SolutionsHub.sol",
  "abi": [
    {
      "inputs": [
        {
          "internalType": "address",
          "name": "_factoryAddress",
          "type": "address"
        }
      ],
      "stateMutability": "nonpayable",
      "type": "constructor"
    },
    {
      "anonymous": false,
      "inputs": [
        {
          "indexed": false,
          "internalType": "bytes32",
          "name": "id",
          "type": "bytes32"
        }
      ],
      "name": "CreateSolution",
      "type": "event"
    },
    {
      "anonymous": false,
      "inputs": [
        {
          "indexed": false,
          "internalType": "bytes32",
          "name": "id",
          "type": "bytes32"
        }
      ],
      "name": "ExecuteSolution",
      "type": "event"
    },
    {
      "inputs": [
        {
          "internalType": "bytes32",
          "name": "_id",
          "type": "bytes32"
        },
        {
          "internalType": "contract IERC20",
          "name": "_collateralToken",
          "type": "address"
        },
        {
          "components": [
            {
              "internalType": "contract Solver",
              "name": "implementation",
              "type": "address"
            },
            {
              "internalType": "address",
              "name": "keeper",
              "type": "address"
            },
            {
              "internalType": "address",
              "name": "arbitrator",
              "type": "address"
            },
            {
              "internalType": "uint256",
              "name": "timelockSeconds",
              "type": "uint256"
            },
            {
              "internalType": "bytes",
              "name": "data",
              "type": "bytes"
            },
            {
              "components": [
                {
                  "internalType": "uint256",
                  "name": "executions",
                  "type": "uint256"
                },
                {
                  "internalType": "enum SolverLib.IngestType",
                  "name": "ingestType",
                  "type": "uint8"
                },
                {
                  "internalType": "uint256",
                  "name": "slot",
                  "type": "uint256"
                },
                {
                  "internalType": "uint256",
                  "name": "solverIndex",
                  "type": "uint256"
                },
                {
                  "internalType": "bytes",
                  "name": "data",
                  "type": "bytes"
                }
              ],
              "internalType": "struct SolverLib.Ingest[]",
              "name": "ingests",
              "type": "tuple[]"
            },
            {
              "components": [
                {
                  "internalType": "contract IERC20",
                  "name": "collateralToken",
                  "type": "address"
                },
                {
                  "internalType": "uint256",
                  "name": "outcomeSlots",
                  "type": "uint256"
                },
                {
                  "internalType": "uint256",
                  "name": "parentCollectionIndexSet",
                  "type": "uint256"
                },
                {
                  "internalType": "uint256",
                  "name": "amountSlot",
                  "type": "uint256"
                },
                {
                  "internalType": "uint256[]",
                  "name": "partition",
                  "type": "uint256[]"
                },
                {
                  "components": [
                    {
                      "internalType": "uint256",
                      "name": "recipientAddressSlot",
                      "type": "uint256"
                    },
                    {
                      "internalType": "uint256[]",
                      "name": "recipientAmountSlots",
                      "type": "uint256[]"
                    }
                  ],
                  "internalType": "struct SolverLib.Allocation[]",
                  "name": "allocations",
                  "type": "tuple[]"
                },
                {
                  "components": [
                    {
                      "internalType": "bytes32",
                      "name": "digest",
                      "type": "bytes32"
                    },
                    {
                      "internalType": "uint8",
                      "name": "hashFunction",
                      "type": "uint8"
                    },
                    {
                      "internalType": "uint8",
                      "name": "size",
                      "type": "uint8"
                    }
                  ],
                  "internalType": "struct SolverLib.Multihash[]",
                  "name": "outcomeURIs",
                  "type": "tuple[]"
                }
              ],
              "internalType": "struct SolverLib.ConditionBase",
              "name": "conditionBase",
              "type": "tuple"
            }
          ],
          "internalType": "struct SolverLib.Config[]",
          "name": "_solverConfigs",
          "type": "tuple[]"
        }
      ],
      "name": "createSolution",
      "outputs": [
        {
          "internalType": "bytes32",
          "name": "_solutionId",
          "type": "bytes32"
        }
      ],
      "stateMutability": "nonpayable",
      "type": "function"
    },
    {
      "inputs": [
        {
          "internalType": "bytes32",
          "name": "_proposalId",
          "type": "bytes32"
        },
        {
          "internalType": "bytes32",
          "name": "_solutionId",
          "type": "bytes32"
        }
      ],
      "name": "executeSolution",
      "outputs": [],
      "stateMutability": "nonpayable",
      "type": "function"
    },
    {
      "inputs": [
        {
          "internalType": "bytes32",
          "name": "_proposalId",
          "type": "bytes32"
        },
        {
          "internalType": "bytes32",
          "name": "_solutionId",
          "type": "bytes32"
        }
      ],
      "name": "linkToProposal",
      "outputs": [],
      "stateMutability": "nonpayable",
      "type": "function"
    },
    {
      "inputs": [
        {
          "internalType": "bytes32",
          "name": "_solutionId",
          "type": "bytes32"
        },
        {
          "internalType": "uint256",
          "name": "_index",
          "type": "uint256"
        }
      ],
      "name": "solverFromIndex",
      "outputs": [
        {
          "internalType": "address",
          "name": "_address",
          "type": "address"
        }
      ],
      "stateMutability": "view",
      "type": "function"
    }
  ],
  "bytecode": "0x60a060405234801561001057600080fd5b50604051611a71380380611a7183398101604081905261002f91610044565b60601b6001600160601b031916608052610072565b600060208284031215610055578081fd5b81516001600160a01b038116811461006b578182fd5b9392505050565b60805160601c6119e1610090600039600061078801526119e16000f3fe608060405234801561001057600080fd5b506004361061004c5760003560e01c8063191481a01461005157806360bbb9281461007a57806373c587f51461008f578063791c3eaa146100a2575b600080fd5b61006461005f366004610a79565b6100c2565b6040516100719190610db9565b60405180910390f35b61008d6100883660046109d2565b61010f565b005b61008d61009d3660046109d2565b610530565b6100b56100b03660046109f3565b61060d565b6040516100719190610dfe565b60008281526020819052604081206006018054839081106100f357634e487b7160e01b600052603260045260246000fd5b6000918252602090912001546001600160a01b03169392505050565b6000818152602081905260409020600201546001600160a01b031633146101515760405162461bcd60e51b815260040161014890610f46565b60405180910390fd5b60008181526020819052604090206003015482146101815760405162461bcd60e51b815260040161014890610e55565b60008181526020819052604090205460ff16156101b05760405162461bcd60e51b815260040161014890610e1e565b6000818152602081905260409020805460ff191660011790556101d281610764565b336001600160a01b0316631918063f8360008085815260200190815260200160002060060160008154811061021757634e487b7160e01b600052603260045260246000fd5b6000918252602090912001546040517fffffffff0000000000000000000000000000000000000000000000000000000060e085901b16815261026692916001600160a01b031690600401610e07565b600060405180830381600087803b15801561028057600080fd5b505af1158015610294573d6000803e3d6000fd5b5050505060005b6000828152602081905260409020600501548110156103915760008281526020819052604081206006018054839081106102e557634e487b7160e01b600052603260045260246000fd5b6000918252602080832090910154858352908290526040918290206003015491517f0d06101a0000000000000000000000000000000000000000000000000000000081526001600160a01b0390911692508291630d06101a9161034b9190600401610dfe565b600060405180830381600087803b15801561036557600080fd5b505af1158015610379573d6000803e3d6000fd5b50505050508080610389906114ba565b91505061029b565b50600081815260208190526040812060060180549091906103c257634e487b7160e01b600052603260045260246000fd5b60009182526020822001546040517f4a77234e0000000000000000000000000000000000000000000000000000000081526001600160a01b0390911691634a77234e916104129190600401610dfe565b600060405180830381600087803b15801561042c57600080fd5b505af1158015610440573d6000803e3d6000fd5b5050506000828152602081905260408120600601805490925061047357634e487b7160e01b600052603260045260246000fd5b60009182526020822001546040517fb992db0f0000000000000000000000000000000000000000000000000000000081526001600160a01b039091169163b992db0f916104c39190600401610dfe565b600060405180830381600087803b1580156104dd57600080fd5b505af11580156104f1573d6000803e3d6000fd5b505050507fabe14211ae2537ee6b7aa77dde5785f740f88443cc6f3a4a4b68bb0e6a5652fa816040516105249190610dfe565b60405180910390a15050565b6040517fd3f79a05000000000000000000000000000000000000000000000000000000008152339063d3f79a059061056c908590600401610dfe565b60206040518083038186803b15801561058457600080fd5b505afa158015610598573d6000803e3d6000fd5b505050506040513d601f19601f820116820180604052508101906105bc91906109b2565b6105d85760405162461bcd60e51b815260040161014890610ee9565b600090815260208190526040902060028101805473ffffffffffffffffffffffffffffffffffffffff19163317905560030155565b60008481526020819052604081206004015485141561063e5760405162461bcd60e51b815260040161014890610e8c565b60008581526020819052604081206004810187905560018101805473ffffffffffffffffffffffffffffffffffffffff19163317905580546001600160a01b038716610100027fffffffffffffffffffffff0000000000000000000000000000000000000000ff909116178155905b8381101561072257816005018585838181106106d957634e487b7160e01b600052603260045260246000fd5b90506020028101906106eb9190611089565b8154600181018355600092835260209092209091600d020161070d828261169b565b5050808061071a906114ba565b9150506106ad565b507faf58c2d61bce90c15ecad6e5142ecbbb0b542b557388df7578e0162b098999a3866040516107529190610dfe565b60405180910390a15093949350505050565b6000805b60008381526020819052604090206005015481101561098a5780610871577f00000000000000000000000000000000000000000000000000000000000000006001600160a01b031663cbcf4a4360008360008088815260200190815260200160002060050185815481106107ec57634e487b7160e01b600052603260045260246000fd5b90600052602060002090600d02016040518463ffffffff1660e01b815260040161081893929190610dcd565b602060405180830381600087803b15801561083257600080fd5b505af1158015610846573d6000803e3d6000fd5b505050506040513d601f19601f8201168201806040525081019061086a919061098f565b9150610933565b816001600160a01b031663fa6a2c7c60008086815260200190815260200160002060050183815481106108b457634e487b7160e01b600052603260045260246000fd5b90600052602060002090600d02016040518263ffffffff1660e01b81526004016108de9190610f7d565b602060405180830381600087803b1580156108f857600080fd5b505af115801561090c573d6000803e3d6000fd5b505050506040513d601f19601f82011682018060405250810190610930919061098f565b91505b60008381526020818152604082206006018054600181018255908352912001805473ffffffffffffffffffffffffffffffffffffffff19166001600160a01b03841617905580610982816114ba565b915050610768565b505050565b6000602082840312156109a0578081fd5b81516109ab81611993565b9392505050565b6000602082840312156109c3578081fd5b815180151581146109ab578182fd5b600080604083850312156109e4578081fd5b50508035926020909101359150565b60008060008060608587031215610a08578182fd5b843593506020850135610a1a81611993565b9250604085013567ffffffffffffffff80821115610a36578384fd5b818701915087601f830112610a49578384fd5b813581811115610a57578485fd5b8860208083028501011115610a6a578485fd5b95989497505060200194505050565b600080604083850312156109e4578182fd5b6001600160a01b03169052565b60008282548085526020808601955080818302840101858552818520855b84811015610b3657601f1986840301895260a08254845260ff6001840154166004808210610af157634e487b7160e01b8a526021815260248afd5b81878701526002850154604087015260038501546060870152826080870152610b1e838701828701610bcf565b9b87019b955050506005929092019150600101610ab6565b5090979650505050505050565b6000815480845260208085019450838352808320835b83811015610b92578154875260018083015460ff808216868b015260089190911c16604089015260609097019660029092019101610b59565b509495945050505050565b6000815480845260208085019450838352808320835b83811015610b9257815487529582019560019182019101610bb3565b60008154610bdc8161146c565b808552602060018381168015610bf95760018114610c0d57610c3b565b60ff19851688840152604088019550610c3b565b866000528260002060005b85811015610c335781548a8201860152908301908401610c18565b890184019650505b505050505092915050565b60006001600160a01b038254168352600180830154602081818701526002915081850154604081818901526003870154606089015260e06080890152610c9260e0890160048901610b9d565b88810360a08a01526005880180548083529088528488209193508484019085810285018601895b82811015610cf257601f19878303018452845482528588830152610ce18683018b8701610b9d565b948901949388019391508901610cb9565b508b810360c08d0152610d088160068d01610b43565b9c9b505050505050505050505050565b6000610d2e836001600160a01b03845416610a8b565b610d3b6001830154611165565b610d486020850182610a8b565b50610d566002830154611165565b610d636040850182610a8b565b506003820154606084015260e06080840152610d8560e0840160048401610bcf565b83810360a0850152610d9a8160058501610a98565b905083810360c0850152610db18160068501610c46565b949350505050565b6001600160a01b0391909116815260200190565b60006001600160a01b038516825283602083015260606040830152610df56060830184610d18565b95945050505050565b90815260200190565b9182526001600160a01b0316602082015260400190565b60208082526019908201527f536f6c7574696f6e20616c726561647920657865637574656400000000000000604082015260600190565b60208082526010908201527f57726f6e672070726f706f73616c496400000000000000000000000000000000604082015260600190565b60208082526024908201527f536f6c7574696f6e734875623a3a5468697320494420616c726561647920657860408201527f6973747300000000000000000000000000000000000000000000000000000000606082015260800190565b60208082526024908201527f50726f706f73616c206973206e6f742076616c69642061742070726f706f736160408201527f6c48756200000000000000000000000000000000000000000000000000000000606082015260800190565b60208082526017908201527f4e6f7420636f72726563742070726f706f73616c487562000000000000000000604082015260600190565b6000602082526109ab6020830184610d18565b6000808335601e19843603018112610fa6578283fd5b83018035915067ffffffffffffffff821115610fc0578283fd5b6020908101925081023603821315610fd757600080fd5b9250929050565b6000808335601e19843603018112610ff4578182fd5b83018035915067ffffffffffffffff82111561100e578283fd5b6020019150606081023603821315610fd757600080fd5b6000808335601e1984360301811261103b578182fd5b83018035915067ffffffffffffffff821115611055578283fd5b602001915036819003821315610fd757600080fd5b60008235603e1983360301811261107f578182fd5b9190910192915050565b6000823560de1983360301811261107f578182fd5b60008235609e1983360301811261107f578182fd5b60009081526020902090565b60208410801561111557601f8411600181146110e6576110df86856114a7565b835561110f565b6110ef836110b3565b6111046020601f880104820160018301611171565b5061110f8684611586565b5061115e565b8160005260206000206020601f8701048101601f8716801561113f5761113f816000198401611517565b506111526020601f880104830182611171565b50506001856002021782555b5050505050565b6001600160a01b031690565b5b818110156111865760008155600101611172565b5050565b680100000000000000008311156111a3576111a3611501565b805483825580841015611241577f7fffffffffffffffffffffffffffffffffffffffffffffffffffffffffffffff60018183118116156111e5576111e56114eb565b60028287118216156111f9576111f96114eb565b600085815260208120909350878202810190828602015b8082101561123b57611224858684546115a4565b825561123285858401611543565b90820190611210565b50505050505b508161124c826110b3565b6000805b868110156112825761126c611265858861106a565b838561187a565b6020939093019260029290920191600101611250565b50505050505050565b680100000000000000008311156112a4576112a4611501565b80548382558084101561133c577f7fffffffffffffffffffffffffffffffffffffffffffffffffffffffffffffff60018183118116156112e6576112e66114eb565b60028287118216156112fa576112fa6114eb565b600085815260208120909350878202810190828602015b8082101561133657611325858684546115a4565b825584848301558282019150611311565b50505050505b5081611347826110b3565b6000805b868110156112825761135e848385611941565b606093909301926002929092019160010161134b565b67ffffffffffffffff83111561138c5761138c611501565b611396815461146c565b600080601f8611601f8411818117156113b5576113b2866110b3565b92505b80156113e4576020601f890104830160208910156113d05750825b6113e26020601f880104850182611171565b505b508060018114611410576000945087156113ff578387013594505b61140988866114a7565b8655611462565b601f198816945082845b8681101561143a578886013582556020958601956001909201910161141a565b508886101561145757878501356000196008601f8c16021c191681555b506001600289020186555b5050505050505050565b60028104600182168061148057607f821691505b602082108114156114a157634e487b7160e01b600052602260045260246000fd5b50919050565b600019600883021c191660029091021790565b60006000198214156114ce576114ce6114eb565b5060010190565b634e487b7160e01b600052600060045260246000fd5b634e487b7160e01b600052601160045260246000fd5b634e487b7160e01b600052604160045260246000fd5b8054600019836020036008021c1681555050565b6000813560ff8116811461153d578182fd5b92915050565b6801000000000000000082111561155c5761155c611501565b80548282558083101561098a57816000526020600020611580828201858301611171565b50505050565b80600052602060002061159a8382546114a7565b9091556000905550565b60089190910291821b60001990921b9182169119161790565b6001600160a01b03821673ffffffffffffffffffffffffffffffffffffffff198254161781555050565b81356115f281611993565b6115fc81836115bd565b5060016020808401358284015560408401356002840155606084013560038401556004830161162e6080860186610f90565b6116388184611543565b6000928352838320925b8181101561165d578235845592850192918401918501611642565b50505050505061167060a0830183610f90565b61167e81836005860161118a565b505061168d60c0830183610fde565b61158081836006860161128b565b81356116a681611993565b6116b081836115bd565b5060016020808401356116c281611993565b6116ce818486016115bd565b50600260408501356116df81611993565b6116eb818387016115bd565b50600360608601358186015560046117066080880188611025565b6117138183858b01611374565b5050600580870161172760a08a018a610f90565b6801000000000000000081111561174057611740611501565b825481845580821015611814577f33333333333333333333333333333333333333333333333333333333333333338082118b1615611780576117806114eb565b8083118b1615611792576117926114eb565b506000848152898120838702810190878402015b80821015611810576117ba838484546115a4565b8255828d8301558a82016117d0848583546115a4565b8155508982016117e2848583546115a4565b905581890180546117f28161146c565b801561180457611804868284866110bf565b505050908701906117a6565b5050505b50819650611821836110b3565b9550600094508492505b8083101561185857611847611840888461109e565b86886118d9565b95870195948301949188019161182b565b50505050505050505061118661187160c0840184611089565b600683016115e7565b8115611888576118886114d5565b823581556001808201602061189f81870187610f90565b6118a98185611543565b6000938452828420935b818110156118ce5782358555938501939183019185016118b3565b505050505050505050565b81156118e7576118e76114d5565b823581556001810160208401356004811061190157600080fd5b60ff1982541660ff82168117835550505060408301356002820155606083013560038201556119336080840184611025565b61115e818360048601611374565b811561194f5761194f6114d5565b823581556001810160ff6119656020860161152b565b1660ff198254161780825561ff0061197f6040870161152b565b60081b1661ff001982161782555050505050565b6001600160a01b03811681146119a857600080fd5b5056fea26469706673582212203619d4162c4ef189db2c92f22cf95195bb5c11e56645c87453c8897747a20c5b64736f6c63430008000033",
  "linkReferences": {},
  "deployedLinkReferences": {}
}