{
  "_format": "hh-sol-artifact-1",
  "contractName": "SolutionsHub",
  "sourceName": "contracts/SolutionsHub.sol",
  "abi": [
    {
      "inputs": [
        {
          "internalType": "address",
          "name": "_factoryAddress",
          "type": "address"
        }
      ],
      "stateMutability": "nonpayable",
      "type": "constructor"
    },
    {
      "anonymous": false,
      "inputs": [
        {
          "indexed": false,
          "internalType": "bytes32",
          "name": "id",
          "type": "bytes32"
        }
      ],
      "name": "CreateSolution",
      "type": "event"
    },
    {
      "anonymous": false,
      "inputs": [
        {
          "indexed": false,
          "internalType": "bytes32",
          "name": "id",
          "type": "bytes32"
        }
      ],
      "name": "ExecuteSolution",
      "type": "event"
    },
    {
      "inputs": [
        {
          "internalType": "bytes32",
          "name": "_id",
          "type": "bytes32"
        },
        {
          "internalType": "contract IERC20",
          "name": "_collateralToken",
          "type": "address"
        },
        {
          "components": [
            {
              "internalType": "contract Solver",
              "name": "implementation",
              "type": "address"
            },
            {
              "internalType": "address",
              "name": "keeper",
              "type": "address"
            },
            {
              "internalType": "address",
              "name": "arbitrator",
              "type": "address"
            },
            {
              "internalType": "uint256",
              "name": "timelockSeconds",
              "type": "uint256"
            },
            {
              "internalType": "bytes",
              "name": "data",
              "type": "bytes"
            },
            {
              "components": [
                {
                  "internalType": "uint256",
                  "name": "executions",
                  "type": "uint256"
                },
                {
                  "internalType": "enum SolverLib.IngestType",
                  "name": "ingestType",
                  "type": "uint8"
                },
                {
                  "internalType": "bytes32",
                  "name": "slot",
                  "type": "bytes32"
                },
                {
                  "internalType": "uint256",
                  "name": "solverIndex",
                  "type": "uint256"
                },
                {
                  "internalType": "bytes",
                  "name": "data",
                  "type": "bytes"
                }
              ],
              "internalType": "struct SolverLib.Ingest[]",
              "name": "ingests",
              "type": "tuple[]"
            },
            {
              "components": [
                {
                  "internalType": "contract IERC20",
                  "name": "collateralToken",
                  "type": "address"
                },
                {
                  "internalType": "uint256",
                  "name": "outcomeSlots",
                  "type": "uint256"
                },
                {
                  "internalType": "uint256",
                  "name": "parentCollectionIndexSet",
                  "type": "uint256"
                },
                {
                  "internalType": "bytes32",
                  "name": "amountSlot",
                  "type": "bytes32"
                },
                {
                  "internalType": "uint256[]",
                  "name": "partition",
                  "type": "uint256[]"
                },
                {
                  "components": [
                    {
                      "internalType": "bytes32",
                      "name": "recipientAddressSlot",
                      "type": "bytes32"
                    },
                    {
                      "internalType": "bytes32[]",
                      "name": "recipientAmountSlots",
                      "type": "bytes32[]"
                    }
                  ],
                  "internalType": "struct SolverLib.Allocation[]",
                  "name": "allocations",
                  "type": "tuple[]"
                },
                {
                  "components": [
                    {
                      "internalType": "bytes32",
                      "name": "digest",
                      "type": "bytes32"
                    },
                    {
                      "internalType": "uint8",
                      "name": "hashFunction",
                      "type": "uint8"
                    },
                    {
                      "internalType": "uint8",
                      "name": "size",
                      "type": "uint8"
                    }
                  ],
                  "internalType": "struct SolverLib.Multihash[]",
                  "name": "outcomeURIs",
                  "type": "tuple[]"
                }
              ],
              "internalType": "struct SolverLib.ConditionBase",
              "name": "conditionBase",
              "type": "tuple"
            }
          ],
          "internalType": "struct SolverLib.Config[]",
          "name": "_solverConfigs",
          "type": "tuple[]"
        }
      ],
      "name": "createSolution",
      "outputs": [
        {
          "internalType": "bytes32",
          "name": "_solutionId",
          "type": "bytes32"
        }
      ],
      "stateMutability": "nonpayable",
      "type": "function"
    },
    {
      "inputs": [
        {
          "internalType": "bytes32",
          "name": "_proposalId",
          "type": "bytes32"
        },
        {
          "internalType": "bytes32",
          "name": "_solutionId",
          "type": "bytes32"
        }
      ],
      "name": "executeSolution",
      "outputs": [],
      "stateMutability": "nonpayable",
      "type": "function"
    },
    {
      "inputs": [
        {
          "internalType": "bytes32",
          "name": "_solutionId",
          "type": "bytes32"
        }
      ],
      "name": "getSolvers",
      "outputs": [
        {
          "internalType": "address[]",
          "name": "solvers",
          "type": "address[]"
        }
      ],
      "stateMutability": "view",
      "type": "function"
    },
    {
      "inputs": [
        {
          "internalType": "bytes32",
          "name": "_proposalId",
          "type": "bytes32"
        },
        {
          "internalType": "bytes32",
          "name": "_solutionId",
          "type": "bytes32"
        }
      ],
      "name": "linkToProposal",
      "outputs": [],
      "stateMutability": "nonpayable",
      "type": "function"
    },
    {
      "inputs": [
        {
          "internalType": "bytes32",
          "name": "_solutionId",
          "type": "bytes32"
        },
        {
          "internalType": "uint256",
          "name": "_index",
          "type": "uint256"
        }
      ],
      "name": "solverFromIndex",
      "outputs": [
        {
          "internalType": "address",
          "name": "_address",
          "type": "address"
        }
      ],
      "stateMutability": "view",
      "type": "function"
    }
  ],
  "bytecode": "0x60a060405234801561001057600080fd5b50604051611ba1380380611ba183398101604081905261002f91610044565b60601b6001600160601b031916608052610072565b600060208284031215610055578081fd5b81516001600160a01b038116811461006b578182fd5b9392505050565b60805160601c611b1461008d60003960005050611b146000f3fe608060405234801561001057600080fd5b50600436106100575760003560e01c8063191481a01461005c5780631e855b3f14610085578063307d6cb6146100a557806360bbb928146100c557806373c587f5146100da575b600080fd5b61006f61006a366004610ab1565b6100ed565b60405161007c9190610e96565b60405180910390f35b610098610093366004610a2c565b61013a565b60405161007c9190610f27565b6100b86100b33660046109f3565b610260565b60405161007c9190610eda565b6100d86100d3366004610a0b565b6102cd565b005b6100d86100e8366004610a0b565b6106c1565b600082815260208190526040812060050180548390811061011e57634e487b7160e01b600052603260045260246000fd5b6000918252602090912001546001600160a01b03169392505050565b6000848152602081905260408120600301548514156101745760405162461bcd60e51b815260040161016b90610fd8565b60405180910390fd5b6000858152602081905260408120600381018790558054610100600160a81b0319166101006001600160a01b03881602178155905b8381101561021e57816004018585838181106101d557634e487b7160e01b600052603260045260246000fd5b90506020028101906101e791906111c6565b8154600181018355600092835260209092209091600d020161020982826117bb565b50508080610216906115ba565b9150506101a9565b507faf58c2d61bce90c15ecad6e5142ecbbb0b542b557388df7578e0162b098999a38660405161024e9190610f27565b60405180910390a15093949350505050565b600081815260208181526040918290206005018054835181840281018401909452808452606093928301828280156102c157602002820191906000526020600020905b81546001600160a01b031681526001909101906020018083116102a3575b50505050509050919050565b6000818152602081905260409020600101546001600160a01b031633146103065760405162461bcd60e51b815260040161016b90611060565b60008181526020819052604090206002015482146103365760405162461bcd60e51b815260040161016b90610fae565b60008181526020819052604090205460ff16156103655760405162461bcd60e51b815260040161016b90610f7b565b6000818152602081905260409020805460ff1916600117905561038781610778565b336001600160a01b0316631918063f836000808581526020019081526020016000206005016000815481106103cc57634e487b7160e01b600052603260045260246000fd5b6000918252602090912001546040516001600160e01b031960e085901b16815261040392916001600160a01b031690600401610f30565b600060405180830381600087803b15801561041d57600080fd5b505af1158015610431573d6000803e3d6000fd5b50506040516329b2be0160e01b8152600092503391506329b2be019061045b908690600401610f27565b60606040518083038186803b15801561047357600080fd5b505afa158015610487573d6000803e3d6000fd5b505050506040513d601f19601f820116820180604052508101906104ab9190610ac3565b905060005b6000838152602081905260409020600501548110156105eb5760008381526020819052604081206005018054839081106104fa57634e487b7160e01b600052603260045260246000fd5b600091825260208083209091015486835290829052604091829020600201549151630683080d60e11b81526001600160a01b0390911692508291630d06101a916105479190600401610f27565b600060405180830381600087803b15801561056157600080fd5b505af1158015610575573d6000803e3d6000fd5b50506040516354fb4c5b60e11b81526001600160a01b038416925063a9f698b691506105a59086906004016110a4565b600060405180830381600087803b1580156105bf57600080fd5b505af11580156105d3573d6000803e3d6000fd5b505050505080806105e3906115ba565b9150506104b0565b506000828152602081905260408120600501805490919061061c57634e487b7160e01b600052603260045260246000fd5b600091825260208220015460405163253b91a760e11b81526001600160a01b0390911691634a77234e916106539190600401610f27565b600060405180830381600087803b15801561066d57600080fd5b505af1158015610681573d6000803e3d6000fd5b505050507fabe14211ae2537ee6b7aa77dde5785f740f88443cc6f3a4a4b68bb0e6a5652fa826040516106b49190610f27565b60405180910390a1505050565b60405163d3f79a0560e01b8152339063d3f79a05906106e4908590600401610f27565b60206040518083038186803b1580156106fc57600080fd5b505afa158015610710573d6000803e3d6000fd5b505050506040513d601f19601f8201168201806040525081019061073491906109d3565b6107505760405162461bcd60e51b815260040161016b9061101c565b60009081526020819052604090206001810180546001600160a01b0319163317905560020155565b6000805b6000838152602081905260409020600401548110156109ab578061089f5773e7f1725e7734ce288f8367e1bb143e90bb3f05126001600160a01b0316637bdf862360008360008088815260200190815260200160002060040185815481106107f457634e487b7160e01b600052603260045260246000fd5b90600052602060002090600d02016040518463ffffffff1660e01b815260040161082093929190610eaa565b602060405180830381600087803b15801561083a57600080fd5b505af115801561084e573d6000803e3d6000fd5b505050506040513d601f19601f8201168201806040525081019061087291906109b0565b91506001600160a01b03821661089a5760405162461bcd60e51b815260040161016b90610f47565b610961565b816001600160a01b0316630944e26e60008086815260200190815260200160002060040183815481106108e257634e487b7160e01b600052603260045260246000fd5b90600052602060002090600d02016040518263ffffffff1660e01b815260040161090c9190611091565b602060405180830381600087803b15801561092657600080fd5b505af115801561093a573d6000803e3d6000fd5b505050506040513d601f19601f8201168201806040525081019061095e91906109b0565b91505b6000838152602081815260408220600501805460018101825590835291200180546001600160a01b0319166001600160a01b038416179055806109a3816115ba565b91505061077c565b505050565b6000602082840312156109c1578081fd5b81516109cc81611ab7565b9392505050565b6000602082840312156109e4578081fd5b815180151581146109cc578182fd5b600060208284031215610a04578081fd5b5035919050565b60008060408385031215610a1d578081fd5b50508035926020909101359150565b60008060008060608587031215610a41578182fd5b843593506020850135610a5381611ab7565b925060408501356001600160401b0380821115610a6e578384fd5b818701915087601f830112610a81578384fd5b813581811115610a8f578485fd5b8860208083028501011115610aa2578485fd5b95989497505060200194505050565b60008060408385031215610a1d578182fd5b600060608284031215610ad4578081fd5b604051606081016001600160401b0381118282101715610af657610af6611601565b604052825181526020830151610b0b81611acf565b60208201526040830151610b1e81611acf565b60408201529392505050565b6001600160a01b03169052565b60008282548085526020808601955080818302840101858552818520855b84811015610bc557858303601f1901895281548352604084840181905260018084018054928601839052895285892060608601929091908a905b80821015610bac5783548552938801939282019290820190610b8f565b5050509985019950925060029190910190600101610b55565b5090979650505050505050565b6000815480845260208085018081965082840281019150858552828520855b85811015610c6d57828403895260a08254855260ff6001840154166004808210610c2857634e487b7160e01b8a526021815260248afd5b81888801526002850154604088015260038501546060880152826080880152610c55838801828701610cd4565b9b88019b965050506005929092019150600101610bf1565b5091979650505050505050565b6000815480845260208085019450838352808320835b83811015610cc9578154875260018083015460ff808216868b015260089190911c16604089015260609097019660029092019101610c90565b509495945050505050565b60008154610ce18161156c565b808552602060018381168015610cfe5760018114610d1257610d40565b60ff19851688840152604088019550610d40565b866000528260002060005b85811015610d385781548a8201860152908301908401610d1d565b890184019650505b505050505092915050565b600060e0830160018060a01b03835416845260018084015460208181880152600286015460408801526003860154606088015260048601915060e060808801528382548086526101008901915083875282872095508693505b80841015610dc15785548252948401949284019290820190610da4565b5087810360a0890152610dd78160058901610b37565b94505050505083810360c0850152610df28160068501610c7a565b949350505050565b8054600090610e139084906001600160a01b0316610b2a565b610e2060018301546112a2565b610e2d6020850182610b2a565b50610e3b60028301546112a2565b610e486040850182610b2a565b506003820154606084015260e06080840152610e6a60e0840160048401610cd4565b83810360a0850152610e7f8160058501610bd2565b905083810360c0850152610df28160068501610d4b565b6001600160a01b0391909116815260200190565b600060018060a01b038516825283602083015260606040830152610ed16060830184610dfa565b95945050505050565b6020808252825182820181905260009190848201906040850190845b81811015610f1b5783516001600160a01b031683529284019291840191600101610ef6565b50909695505050505050565b90815260200190565b9182526001600160a01b0316602082015260400190565b6020808252601a908201527924b73b30b634b21030b2323932b9b9903337b91029b7b63b32b960311b604082015260600190565b60208082526019908201527814dbdb1d5d1a5bdb88185b1c9958591e48195e1958dd5d1959603a1b604082015260600190565b60208082526010908201526f15dc9bdb99c81c1c9bdc1bdcd85b125960821b604082015260600190565b60208082526024908201527f536f6c7574696f6e734875623a3a5468697320494420616c72656164792065786040820152636973747360e01b606082015260800190565b60208082526024908201527f50726f706f73616c206973206e6f742076616c69642061742070726f706f736160408201526336243ab160e11b606082015260800190565b6020808252601790820152762737ba1031b7b93932b1ba10383937b837b9b0b6243ab160491b604082015260600190565b6000602082526109cc6020830184610dfa565b60006060820190508251825260ff602084015116602083015260ff604084015116604083015292915050565b6000808335601e198436030181126110e6578283fd5b8301803591506001600160401b038211156110ff578283fd5b602090810192508102360382131561111657600080fd5b9250929050565b6000808335601e19843603018112611133578182fd5b8301803591506001600160401b0382111561114c578283fd5b602001915060608102360382131561111657600080fd5b6000808335601e19843603018112611179578182fd5b8301803591506001600160401b03821115611192578283fd5b60200191503681900382131561111657600080fd5b60008235603e198336030181126111bc578182fd5b9190910192915050565b6000823560de198336030181126111bc578182fd5b60008235609e198336030181126111bc578182fd5b60009081526020902090565b60208410801561125257601f8411600181146112235761121c86856115a7565b835561124c565b61122c836111f0565b6112416020601f8801048201600183016112ae565b5061124c868461167a565b5061129b565b8160005260206000206020601f8701048101601f8716801561127c5761127c816000198401611617565b5061128f6020601f8801048301826112ae565b50506001856002021782555b5050505050565b6001600160a01b031690565b5b818110156112c357600081556001016112af565b5050565b600160401b8311156112db576112db611601565b805483825580841015611360576001600160ff1b036001818311811615611304576113046115eb565b6002828711821615611318576113186115eb565b600085815260208120909350878202810190828602015b8082101561135a5761134385868454611698565b82556113518585840161162b565b9082019061132f565b50505050505b508161136b826111f0565b6000805b868110156113a15761138b61138485886111a7565b8385611995565b602093909301926002929092019160010161136f565b50505050505050565b600160401b8311156113be576113be611601565b80548382558084101561143d576001600160ff1b0360018183118116156113e7576113e76115eb565b60028287118216156113fb576113fb6115eb565b600085815260208120909350878202810190828602015b808210156114375761142685868454611698565b825584848301558282019150611412565b50505050505b5081611448826111f0565b6000805b868110156113a15761145f848385611a5c565b606093909301926002929092019160010161144c565b6001600160401b0383111561148c5761148c611601565b611496815461156c565b600080601f8611601f8411818117156114b5576114b2866111f0565b92505b80156114e4576020601f890104830160208910156114d05750825b6114e26020601f8801048501826112ae565b505b508060018114611510576000945087156114ff578387013594505b61150988866115a7565b8655611562565b601f198816945082845b8681101561153a578886013582556020958601956001909201910161151a565b508886101561155757878501356000196008601f8c16021c191681555b506001600289020186555b5050505050505050565b60028104600182168061158057607f821691505b602082108114156115a157634e487b7160e01b600052602260045260246000fd5b50919050565b600019600883021c191660029091021790565b60006000198214156115ce576115ce6115eb565b5060010190565b634e487b7160e01b600052600060045260246000fd5b634e487b7160e01b600052601160045260246000fd5b634e487b7160e01b600052604160045260246000fd5b8054600019836020036008021c1681555050565b600160401b82111561163f5761163f611601565b8054828255808310156109ab576000828152602081208481019083015b808210156116725782825560018201915061165c565b505050505050565b80600052602060002061168e8382546115a7565b9091556000905550565b60089190910291821b60001990921b9182169119161790565b80546001600160a01b0319166001600160a01b0392909216919091179055565b81356116dc81611ab7565b6116e681836116b1565b5060016020808401358284015560408401356002840155606084013560038401556004830161171860808601866110d0565b600160401b81111561172c5761172c611601565b82548184558082101561175157836000528460002061174f8282018483016112ae565b505b506000928352838320925b8181101561177757823584559285019291840191850161175c565b50505050505061178a60a08301836110d0565b6117988183600586016112c7565b50506117a760c083018361111d565b6117b58183600686016113aa565b50505050565b81356117c681611ab7565b6117d081836116b1565b5060016020808401356117e281611ab7565b6117ee818486016116b1565b50600260408501356117ff81611ab7565b61180b818387016116b1565b50600360608601358186015560046118266080880188611163565b6118338183858b01611475565b5050600580870161184760a08a018a6110d0565b600160401b81111561185b5761185b611601565b82548184558082101561192f577f33333333333333333333333333333333333333333333333333333333333333338082118b161561189b5761189b6115eb565b8083118b16156118ad576118ad6115eb565b506000848152898120838702810190878402015b8082101561192b576118d583848454611698565b8255828d8301558a82016118eb84858354611698565b8155508982016118fd84858354611698565b9055818901805461190d8161156c565b801561191f5761191f868284866111fc565b505050908701906118c1565b5050505b5081965061193c836111f0565b9550600094508492505b808310156119735761196261195b88846111db565b86886119f4565b958701959483019491880191611946565b5050505050505050506112c361198c60c08401846111c6565b600683016116d1565b81156119a3576119a36115d5565b82358155600180820160206119ba818701876110d0565b6119c4818561162b565b6000938452828420935b818110156119e95782358555938501939183019185016119ce565b505050505050505050565b8115611a0257611a026115d5565b8235815560018101602084013560048110611a1c57600080fd5b60ff1982541660ff8216811783555050506040830135600282015560608301356003820155611a4e6080840184611163565b61129b818360048601611475565b8115611a6a57611a6a6115d5565b82358155600181016020840135611a8081611acf565b815460ff191660ff91909116178082556040850135611a9e81611acf565b61ff008160081b1661ff00198316178355505050505050565b6001600160a01b0381168114611acc57600080fd5b50565b60ff81168114611acc57600080fdfea2646970667358221220fef9ff7e0531a0284abab2fcbae7082ad583cd7743c29f094761632c11fd1be764736f6c63430008000033",
  "linkReferences": {},
  "deployedLinkReferences": {}
}