{
  "_format": "hh-sol-artifact-1",
  "contractName": "SolutionsHub",
  "sourceName": "contracts/SolutionsHub.sol",
  "abi": [
    {
      "inputs": [
        {
          "internalType": "address",
          "name": "_factoryAddress",
          "type": "address"
        }
      ],
      "stateMutability": "nonpayable",
      "type": "constructor"
    },
    {
      "anonymous": false,
      "inputs": [
        {
          "indexed": false,
          "internalType": "bytes32",
          "name": "id",
          "type": "bytes32"
        }
      ],
      "name": "CreateSolution",
      "type": "event"
    },
    {
      "anonymous": false,
      "inputs": [
        {
          "indexed": false,
          "internalType": "bytes32",
          "name": "id",
          "type": "bytes32"
        }
      ],
      "name": "ExecuteSolution",
      "type": "event"
    },
    {
      "inputs": [
        {
          "internalType": "bytes32",
          "name": "_id",
          "type": "bytes32"
        },
        {
          "internalType": "contract IERC20",
          "name": "_collateralToken",
          "type": "address"
        },
        {
          "components": [
            {
              "internalType": "contract Solver",
              "name": "implementation",
              "type": "address"
            },
            {
              "internalType": "address",
              "name": "keeper",
              "type": "address"
            },
            {
              "internalType": "address",
              "name": "arbitrator",
              "type": "address"
            },
            {
              "internalType": "uint256",
              "name": "timelockSeconds",
              "type": "uint256"
            },
            {
              "internalType": "bytes",
              "name": "data",
              "type": "bytes"
            },
            {
              "components": [
                {
                  "internalType": "uint256",
                  "name": "executions",
                  "type": "uint256"
                },
                {
                  "internalType": "enum SolverLib.IngestType",
                  "name": "ingestType",
                  "type": "uint8"
                },
                {
                  "internalType": "bytes32",
                  "name": "slot",
                  "type": "bytes32"
                },
                {
                  "internalType": "uint256",
                  "name": "solverIndex",
                  "type": "uint256"
                },
                {
                  "internalType": "bytes",
                  "name": "data",
                  "type": "bytes"
                }
              ],
              "internalType": "struct SolverLib.Ingest[]",
              "name": "ingests",
              "type": "tuple[]"
            },
            {
              "components": [
                {
                  "internalType": "contract IERC20",
                  "name": "collateralToken",
                  "type": "address"
                },
                {
                  "internalType": "uint256",
                  "name": "outcomeSlots",
                  "type": "uint256"
                },
                {
                  "internalType": "uint256",
                  "name": "parentCollectionIndexSet",
                  "type": "uint256"
                },
                {
                  "internalType": "bytes32",
                  "name": "amountSlot",
                  "type": "bytes32"
                },
                {
                  "internalType": "uint256[]",
                  "name": "partition",
                  "type": "uint256[]"
                },
                {
                  "components": [
                    {
                      "internalType": "bytes32",
                      "name": "recipientAddressSlot",
                      "type": "bytes32"
                    },
                    {
                      "internalType": "bytes32[]",
                      "name": "recipientAmountSlots",
                      "type": "bytes32[]"
                    }
                  ],
                  "internalType": "struct SolverLib.Allocation[]",
                  "name": "allocations",
                  "type": "tuple[]"
                },
                {
                  "components": [
                    {
                      "internalType": "bytes32",
                      "name": "digest",
                      "type": "bytes32"
                    },
                    {
                      "internalType": "uint8",
                      "name": "hashFunction",
                      "type": "uint8"
                    },
                    {
                      "internalType": "uint8",
                      "name": "size",
                      "type": "uint8"
                    }
                  ],
                  "internalType": "struct SolverLib.Multihash[]",
                  "name": "outcomeURIs",
                  "type": "tuple[]"
                }
              ],
              "internalType": "struct SolverLib.ConditionBase",
              "name": "conditionBase",
              "type": "tuple"
            }
          ],
          "internalType": "struct SolverLib.Config[]",
          "name": "_solverConfigs",
          "type": "tuple[]"
        }
      ],
      "name": "createSolution",
      "outputs": [
        {
          "internalType": "bytes32",
          "name": "_solutionId",
          "type": "bytes32"
        }
      ],
      "stateMutability": "nonpayable",
      "type": "function"
    },
    {
      "inputs": [
        {
          "internalType": "bytes32",
          "name": "_proposalId",
          "type": "bytes32"
        },
        {
          "internalType": "bytes32",
          "name": "_solutionId",
          "type": "bytes32"
        }
      ],
      "name": "executeSolution",
      "outputs": [],
      "stateMutability": "nonpayable",
      "type": "function"
    },
    {
      "inputs": [
        {
          "internalType": "bytes32",
          "name": "_solutionId",
          "type": "bytes32"
        }
      ],
      "name": "getSolvers",
      "outputs": [
        {
          "internalType": "address[]",
          "name": "solvers",
          "type": "address[]"
        }
      ],
      "stateMutability": "view",
      "type": "function"
    },
    {
      "inputs": [
        {
          "internalType": "bytes32",
          "name": "_proposalId",
          "type": "bytes32"
        },
        {
          "internalType": "bytes32",
          "name": "_solutionId",
          "type": "bytes32"
        }
      ],
      "name": "linkToProposal",
      "outputs": [],
      "stateMutability": "nonpayable",
      "type": "function"
    },
    {
      "inputs": [
        {
          "internalType": "bytes32",
          "name": "_solutionId",
          "type": "bytes32"
        },
        {
          "internalType": "uint256",
          "name": "_index",
          "type": "uint256"
        }
      ],
      "name": "solverFromIndex",
      "outputs": [
        {
          "internalType": "address",
          "name": "_address",
          "type": "address"
        }
      ],
      "stateMutability": "view",
      "type": "function"
    }
  ],
  "bytecode": "0x60a060405234801561001057600080fd5b50604051611a2d380380611a2d83398101604081905261002f91610044565b60601b6001600160601b031916608052610072565b600060208284031215610055578081fd5b81516001600160a01b038116811461006b578182fd5b9392505050565b60805160601c6119a061008d600039600050506119a06000f3fe608060405234801561001057600080fd5b50600436106100575760003560e01c8063191481a01461005c5780631e855b3f14610085578063307d6cb6146100a557806360bbb928146100c557806373c587f5146100da575b600080fd5b61006f61006a3660046109da565b6100ed565b60405161007c9190610d4e565b60405180910390f35b610098610093366004610955565b61013a565b60405161007c9190610ddf565b6100b86100b336600461091c565b610260565b60405161007c9190610d92565b6100d86100d3366004610934565b6102cd565b005b6100d86100e8366004610934565b6105ea565b600082815260208190526040812060050180548390811061011e57634e487b7160e01b600052603260045260246000fd5b6000918252602090912001546001600160a01b03169392505050565b6000848152602081905260408120600301548514156101745760405162461bcd60e51b815260040161016b90610e90565b60405180910390fd5b6000858152602081905260408120600381018790558054610100600160a81b0319166101006001600160a01b03881602178155905b8381101561021e57816004018585838181106101d557634e487b7160e01b600052603260045260246000fd5b90506020028101906101e79190611052565b8154600181018355600092835260209092209091600d0201610209828261165f565b5050808061021690611446565b9150506101a9565b507faf58c2d61bce90c15ecad6e5142ecbbb0b542b557388df7578e0162b098999a38660405161024e9190610ddf565b60405180910390a15093949350505050565b600081815260208181526040918290206005018054835181840281018401909452808452606093928301828280156102c157602002820191906000526020600020905b81546001600160a01b031681526001909101906020018083116102a3575b50505050509050919050565b6000818152602081905260409020600101546001600160a01b031633146103065760405162461bcd60e51b815260040161016b90610f18565b60008181526020819052604090206002015482146103365760405162461bcd60e51b815260040161016b90610e66565b60008181526020819052604090205460ff16156103655760405162461bcd60e51b815260040161016b90610e33565b6000818152602081905260409020805460ff19166001179055610387816106a1565b336001600160a01b0316631918063f836000808581526020019081526020016000206005016000815481106103cc57634e487b7160e01b600052603260045260246000fd5b6000918252602090912001546040516001600160e01b031960e085901b16815261040392916001600160a01b031690600401610de8565b600060405180830381600087803b15801561041d57600080fd5b505af1158015610431573d6000803e3d6000fd5b5050505060005b60008281526020819052604090206005015481101561051557600082815260208190526040812060050180548390811061048257634e487b7160e01b600052603260045260246000fd5b600091825260208083209091015485835290829052604091829020600201549151630683080d60e11b81526001600160a01b0390911692508291630d06101a916104cf9190600401610ddf565b600060405180830381600087803b1580156104e957600080fd5b505af11580156104fd573d6000803e3d6000fd5b5050505050808061050d90611446565b915050610438565b506000818152602081905260408120600501805490919061054657634e487b7160e01b600052603260045260246000fd5b600091825260208220015460405163253b91a760e11b81526001600160a01b0390911691634a77234e9161057d9190600401610ddf565b600060405180830381600087803b15801561059757600080fd5b505af11580156105ab573d6000803e3d6000fd5b505050507fabe14211ae2537ee6b7aa77dde5785f740f88443cc6f3a4a4b68bb0e6a5652fa816040516105de9190610ddf565b60405180910390a15050565b60405163d3f79a0560e01b8152339063d3f79a059061060d908590600401610ddf565b60206040518083038186803b15801561062557600080fd5b505afa158015610639573d6000803e3d6000fd5b505050506040513d601f19601f8201168201806040525081019061065d91906108fc565b6106795760405162461bcd60e51b815260040161016b90610ed4565b60009081526020819052604090206001810180546001600160a01b0319163317905560020155565b6000805b6000838152602081905260409020600401548110156108d457806107c85773e7f1725e7734ce288f8367e1bb143e90bb3f05126001600160a01b0316637bdf8623600083600080888152602001908152602001600020600401858154811061071d57634e487b7160e01b600052603260045260246000fd5b90600052602060002090600d02016040518463ffffffff1660e01b815260040161074993929190610d62565b602060405180830381600087803b15801561076357600080fd5b505af1158015610777573d6000803e3d6000fd5b505050506040513d601f19601f8201168201806040525081019061079b91906108d9565b91506001600160a01b0382166107c35760405162461bcd60e51b815260040161016b90610dff565b61088a565b816001600160a01b0316630944e26e600080868152602001908152602001600020600401838154811061080b57634e487b7160e01b600052603260045260246000fd5b90600052602060002090600d02016040518263ffffffff1660e01b81526004016108359190610f49565b602060405180830381600087803b15801561084f57600080fd5b505af1158015610863573d6000803e3d6000fd5b505050506040513d601f19601f8201168201806040525081019061088791906108d9565b91505b6000838152602081815260408220600501805460018101825590835291200180546001600160a01b0319166001600160a01b038416179055806108cc81611446565b9150506106a5565b505050565b6000602082840312156108ea578081fd5b81516108f581611952565b9392505050565b60006020828403121561090d578081fd5b815180151581146108f5578182fd5b60006020828403121561092d578081fd5b5035919050565b60008060408385031215610946578081fd5b50508035926020909101359150565b6000806000806060858703121561096a578182fd5b84359350602085013561097c81611952565b925060408501356001600160401b0380821115610997578384fd5b818701915087601f8301126109aa578384fd5b8135818111156109b8578485fd5b88602080830285010111156109cb578485fd5b95989497505060200194505050565b60008060408385031215610946578182fd5b6001600160a01b03169052565b60008282548085526020808601955080818302840101858552818520855b84811015610a8757858303601f1901895281548352604084840181905260018084018054928601839052895285892060608601929091908a905b80821015610a6e5783548552938801939282019290820190610a51565b5050509985019950925060029190910190600101610a17565b5090979650505050505050565b60008282548085526020808601955080818302840101858552818520855b84811015610a8757601f1986840301895260a08254845260ff6001840154166004808210610aed57634e487b7160e01b8a526021815260248afd5b81878701526002850154604087015260038501546060870152826080870152610b1a838701828701610b8c565b9b87019b955050506005929092019150600101610ab2565b6000815480845260208085019450838352808320835b83811015610b81578154875260018083015460ff808216868b015260089190911c16604089015260609097019660029092019101610b48565b509495945050505050565b60008154610b99816113f8565b808552602060018381168015610bb65760018114610bca57610bf8565b60ff19851688840152604088019550610bf8565b866000528260002060005b85811015610bf05781548a8201860152908301908401610bd5565b890184019650505b505050505092915050565b600060e0830160018060a01b03835416845260018084015460208181880152600286015460408801526003860154606088015260048601915060e060808801528382548086526101008901915083875282872095508693505b80841015610c795785548252948401949284019290820190610c5c565b5087810360a0890152610c8f81600589016109f9565b94505050505083810360c0850152610caa8160068501610b32565b949350505050565b8054600090610ccb9084906001600160a01b03166109ec565b610cd8600183015461112e565b610ce560208501826109ec565b50610cf3600283015461112e565b610d0060408501826109ec565b506003820154606084015260e06080840152610d2260e0840160048401610b8c565b83810360a0850152610d378160058501610a94565b905083810360c0850152610caa8160068501610c03565b6001600160a01b0391909116815260200190565b600060018060a01b038516825283602083015260606040830152610d896060830184610cb2565b95945050505050565b6020808252825182820181905260009190848201906040850190845b81811015610dd35783516001600160a01b031683529284019291840191600101610dae565b50909695505050505050565b90815260200190565b9182526001600160a01b0316602082015260400190565b6020808252601a908201527924b73b30b634b21030b2323932b9b9903337b91029b7b63b32b960311b604082015260600190565b60208082526019908201527814dbdb1d5d1a5bdb88185b1c9958591e48195e1958dd5d1959603a1b604082015260600190565b60208082526010908201526f15dc9bdb99c81c1c9bdc1bdcd85b125960821b604082015260600190565b60208082526024908201527f536f6c7574696f6e734875623a3a5468697320494420616c72656164792065786040820152636973747360e01b606082015260800190565b60208082526024908201527f50726f706f73616c206973206e6f742076616c69642061742070726f706f736160408201526336243ab160e11b606082015260800190565b6020808252601790820152762737ba1031b7b93932b1ba10383937b837b9b0b6243ab160491b604082015260600190565b6000602082526108f56020830184610cb2565b6000808335601e19843603018112610f72578283fd5b8301803591506001600160401b03821115610f8b578283fd5b6020908101925081023603821315610fa257600080fd5b9250929050565b6000808335601e19843603018112610fbf578182fd5b8301803591506001600160401b03821115610fd8578283fd5b6020019150606081023603821315610fa257600080fd5b6000808335601e19843603018112611005578182fd5b8301803591506001600160401b0382111561101e578283fd5b602001915036819003821315610fa257600080fd5b60008235603e19833603018112611048578182fd5b9190910192915050565b6000823560de19833603018112611048578182fd5b60008235609e19833603018112611048578182fd5b60009081526020902090565b6020841080156110de57601f8411600181146110af576110a88685611433565b83556110d8565b6110b88361107c565b6110cd6020601f88010482016001830161113a565b506110d8868461151e565b50611127565b8160005260206000206020601f8701048101601f87168015611108576111088160001984016114a3565b5061111b6020601f88010483018261113a565b50506001856002021782555b5050505050565b6001600160a01b031690565b5b8181101561114f576000815560010161113b565b5050565b600160401b8311156111675761116761148d565b8054838255808410156111ec576001600160ff1b03600181831181161561119057611190611477565b60028287118216156111a4576111a4611477565b600085815260208120909350878202810190828602015b808210156111e6576111cf8586845461153c565b82556111dd858584016114cf565b908201906111bb565b50505050505b50816111f78261107c565b6000805b8681101561122d576112176112108588611033565b8385611839565b60209390930192600292909201916001016111fb565b50505050505050565b600160401b83111561124a5761124a61148d565b8054838255808410156112c9576001600160ff1b03600181831181161561127357611273611477565b600282871182161561128757611287611477565b600085815260208120909350878202810190828602015b808210156112c3576112b28586845461153c565b82558484830155828201915061129e565b50505050505b50816112d48261107c565b6000805b8681101561122d576112eb848385611900565b60609390930192600292909201916001016112d8565b6001600160401b038311156113185761131861148d565b61132281546113f8565b600080601f8611601f8411818117156113415761133e8661107c565b92505b8015611370576020601f8901048301602089101561135c5750825b61136e6020601f88010485018261113a565b505b50806001811461139c5760009450871561138b578387013594505b6113958886611433565b86556113ee565b601f198816945082845b868110156113c657888601358255602095860195600190920191016113a6565b50888610156113e357878501356000196008601f8c16021c191681555b506001600289020186555b5050505050505050565b60028104600182168061140c57607f821691505b6020821081141561142d57634e487b7160e01b600052602260045260246000fd5b50919050565b600019600883021c191660029091021790565b600060001982141561145a5761145a611477565b5060010190565b634e487b7160e01b600052600060045260246000fd5b634e487b7160e01b600052601160045260246000fd5b634e487b7160e01b600052604160045260246000fd5b8054600019836020036008021c1681555050565b6000813560ff811681146114c9578182fd5b92915050565b600160401b8211156114e3576114e361148d565b8054828255808310156108d4576000828152602081208481019083015b8082101561151657828255600182019150611500565b505050505050565b806000526020600020611532838254611433565b9091556000905550565b60089190910291821b60001990921b9182169119161790565b80546001600160a01b0319166001600160a01b0392909216919091179055565b813561158081611952565b61158a8183611555565b506001602080840135828401556040840135600284015560608401356003840155600483016115bc6080860186610f5c565b600160401b8111156115d0576115d061148d565b8254818455808210156115f55783600052846000206115f382820184830161113a565b505b506000928352838320925b8181101561161b578235845592850192918401918501611600565b50505050505061162e60a0830183610f5c565b61163c818360058601611153565b505061164b60c0830183610fa9565b611659818360068601611236565b50505050565b813561166a81611952565b6116748183611555565b50600160208084013561168681611952565b61169281848601611555565b50600260408501356116a381611952565b6116af81838701611555565b50600360608601358186015560046116ca6080880188610fef565b6116d78183858b01611301565b505060058087016116eb60a08a018a610f5c565b600160401b8111156116ff576116ff61148d565b8254818455808210156117d3577f33333333333333333333333333333333333333333333333333333333333333338082118b161561173f5761173f611477565b8083118b161561175157611751611477565b506000848152898120838702810190878402015b808210156117cf576117798384845461153c565b8255828d8301558a820161178f8485835461153c565b8155508982016117a18485835461153c565b905581890180546117b1816113f8565b80156117c3576117c386828486611088565b50505090870190611765565b5050505b508196506117e08361107c565b9550600094508492505b80831015611817576118066117ff8884611067565b8688611898565b9587019594830194918801916117ea565b50505050505050505061114f61183060c0840184611052565b60068301611575565b811561184757611847611461565b823581556001808201602061185e81870187610f5c565b61186881856114cf565b6000938452828420935b8181101561188d578235855593850193918301918501611872565b505050505050505050565b81156118a6576118a6611461565b82358155600181016020840135600481106118c057600080fd5b60ff1982541660ff82168117835550505060408301356002820155606083013560038201556118f26080840184610fef565b611127818360048601611301565b811561190e5761190e611461565b823581556001810160ff611924602086016114b7565b1660ff198254161780825561ff0061193e604087016114b7565b60081b1661ff001982161782555050505050565b6001600160a01b038116811461196757600080fd5b5056fea2646970667358221220bca4cfe3786d9609d406901cc6c5443b923a64c10eeb4cd489f42f51ce02195464736f6c63430008000033",
  "linkReferences": {},
  "deployedLinkReferences": {}
}