{
  "_format": "hh-sol-artifact-1",
  "contractName": "ProposalRepeater",
  "sourceName": "contracts/ProposalRepeater.sol",
  "abi": [
    {
      "inputs": [
        {
          "internalType": "contract IProposalsHub",
          "name": "_proposalsHub",
          "type": "address"
        }
      ],
      "stateMutability": "nonpayable",
      "type": "constructor"
    },
    {
      "anonymous": false,
      "inputs": [
        {
          "indexed": true,
          "internalType": "bytes32",
          "name": "repeaterId",
          "type": "bytes32"
        },
        {
          "indexed": false,
          "internalType": "bytes32",
          "name": "baseProposalId",
          "type": "bytes32"
        }
      ],
      "name": "AddedRepeater",
      "type": "event"
    },
    {
      "anonymous": false,
      "inputs": [
        {
          "indexed": true,
          "internalType": "bytes32",
          "name": "repeaterId",
          "type": "bytes32"
        },
        {
          "indexed": false,
          "internalType": "uint256",
          "name": "amount",
          "type": "uint256"
        },
        {
          "indexed": false,
          "internalType": "address",
          "name": "to",
          "type": "address"
        }
      ],
      "name": "DefundedRepeater",
      "type": "event"
    },
    {
      "anonymous": false,
      "inputs": [
        {
          "indexed": true,
          "internalType": "bytes32",
          "name": "repeaterId",
          "type": "bytes32"
        },
        {
          "indexed": false,
          "internalType": "uint256",
          "name": "amount",
          "type": "uint256"
        },
        {
          "indexed": false,
          "internalType": "address",
          "name": "from",
          "type": "address"
        }
      ],
      "name": "FundedRepeater",
      "type": "event"
    },
    {
      "inputs": [
        {
          "internalType": "bytes32",
          "name": "baseProposalId",
          "type": "bytes32"
        },
        {
          "internalType": "uint256",
          "name": "interval",
          "type": "uint256"
        },
        {
          "internalType": "uint256",
          "name": "maxRepeats",
          "type": "uint256"
        },
        {
          "internalType": "bool",
          "name": "allowImmediately",
          "type": "bool"
        }
      ],
      "name": "addRepeater",
      "outputs": [
        {
          "internalType": "bytes32",
          "name": "",
          "type": "bytes32"
        }
      ],
      "stateMutability": "nonpayable",
      "type": "function"
    },
    {
      "inputs": [
        {
          "internalType": "bytes32",
          "name": "repeaterId",
          "type": "bytes32"
        },
        {
          "internalType": "contract IERC20",
          "name": "token",
          "type": "address"
        },
        {
          "internalType": "uint256",
          "name": "amount",
          "type": "uint256"
        }
      ],
      "name": "defundRepeater",
      "outputs": [],
      "stateMutability": "nonpayable",
      "type": "function"
    },
    {
      "inputs": [
        {
          "internalType": "bytes32",
          "name": "repeaterId",
          "type": "bytes32"
        },
        {
          "components": [
            {
              "internalType": "contract Solver",
              "name": "implementation",
              "type": "address"
            },
            {
              "internalType": "address",
              "name": "keeper",
              "type": "address"
            },
            {
              "internalType": "address",
              "name": "arbitrator",
              "type": "address"
            },
            {
              "internalType": "uint256",
              "name": "timelockSeconds",
              "type": "uint256"
            },
            {
              "internalType": "bytes",
              "name": "data",
              "type": "bytes"
            },
            {
              "components": [
                {
                  "internalType": "uint256",
                  "name": "executions",
                  "type": "uint256"
                },
                {
                  "internalType": "enum SolverLib.IngestType",
                  "name": "ingestType",
                  "type": "uint8"
                },
                {
                  "internalType": "bytes32",
                  "name": "slot",
                  "type": "bytes32"
                },
                {
                  "internalType": "uint256",
                  "name": "solverIndex",
                  "type": "uint256"
                },
                {
                  "internalType": "bytes",
                  "name": "data",
                  "type": "bytes"
                }
              ],
              "internalType": "struct SolverLib.Ingest[]",
              "name": "ingests",
              "type": "tuple[]"
            },
            {
              "components": [
                {
                  "internalType": "contract IERC20",
                  "name": "collateralToken",
                  "type": "address"
                },
                {
                  "internalType": "uint256",
                  "name": "outcomeSlots",
                  "type": "uint256"
                },
                {
                  "internalType": "uint256",
                  "name": "parentCollectionIndexSet",
                  "type": "uint256"
                },
                {
                  "internalType": "bytes32",
                  "name": "amountSlot",
                  "type": "bytes32"
                },
                {
                  "internalType": "uint256[]",
                  "name": "partition",
                  "type": "uint256[]"
                },
                {
                  "components": [
                    {
                      "internalType": "bytes32",
                      "name": "recipientAddressSlot",
                      "type": "bytes32"
                    },
                    {
                      "internalType": "bytes32[]",
                      "name": "recipientAmountSlots",
                      "type": "bytes32[]"
                    }
                  ],
                  "internalType": "struct SolverLib.Allocation[]",
                  "name": "allocations",
                  "type": "tuple[]"
                },
                {
                  "components": [
                    {
                      "internalType": "bytes32",
                      "name": "digest",
                      "type": "bytes32"
                    },
                    {
                      "internalType": "uint8",
                      "name": "hashFunction",
                      "type": "uint8"
                    },
                    {
                      "internalType": "uint8",
                      "name": "size",
                      "type": "uint8"
                    }
                  ],
                  "internalType": "struct SolverLib.Multihash[]",
                  "name": "outcomeURIs",
                  "type": "tuple[]"
                }
              ],
              "internalType": "struct SolverLib.ConditionBase",
              "name": "conditionBase",
              "type": "tuple"
            }
          ],
          "internalType": "struct SolverLib.Config[]",
          "name": "solverConfigs",
          "type": "tuple[]"
        }
      ],
      "name": "executeIPFSRepeater",
      "outputs": [
        {
          "internalType": "bytes32",
          "name": "solutionId",
          "type": "bytes32"
        },
        {
          "internalType": "bytes32",
          "name": "proposalId",
          "type": "bytes32"
        }
      ],
      "stateMutability": "nonpayable",
      "type": "function"
    },
    {
      "inputs": [
        {
          "internalType": "bytes32",
          "name": "repeaterId",
          "type": "bytes32"
        },
        {
          "internalType": "contract IERC20",
          "name": "token",
          "type": "address"
        },
        {
          "internalType": "uint256",
          "name": "amount",
          "type": "uint256"
        }
      ],
      "name": "fundRepeater",
      "outputs": [],
      "stateMutability": "nonpayable",
      "type": "function"
    },
    {
      "inputs": [
        {
          "internalType": "bytes32",
          "name": "",
          "type": "bytes32"
        },
        {
          "internalType": "address",
          "name": "",
          "type": "address"
        }
      ],
      "name": "funderAmountMap",
      "outputs": [
        {
          "internalType": "uint256",
          "name": "",
          "type": "uint256"
        }
      ],
      "stateMutability": "view",
      "type": "function"
    },
    {
      "inputs": [],
      "name": "proposalsHub",
      "outputs": [
        {
          "internalType": "contract IProposalsHub",
          "name": "",
          "type": "address"
        }
      ],
      "stateMutability": "view",
      "type": "function"
    },
    {
      "inputs": [
        {
          "internalType": "bytes32",
          "name": "",
          "type": "bytes32"
        }
      ],
      "name": "repeaters",
      "outputs": [
        {
          "internalType": "bool",
          "name": "enabled",
          "type": "bool"
        },
        {
          "internalType": "address",
          "name": "controller",
          "type": "address"
        },
        {
          "internalType": "bytes32",
          "name": "id",
          "type": "bytes32"
        },
        {
          "internalType": "bytes32",
          "name": "baseProposalId",
          "type": "bytes32"
        },
        {
          "internalType": "uint256",
          "name": "funding",
          "type": "uint256"
        },
        {
          "internalType": "uint256",
          "name": "interval",
          "type": "uint256"
        },
        {
          "internalType": "uint256",
          "name": "maxRepeats",
          "type": "uint256"
        }
      ],
      "stateMutability": "view",
      "type": "function"
    }
  ],
  "bytecode": "0x60a060405234801561001057600080fd5b5060405161158a38038061158a83398101604081905261002f91610044565b60601b6001600160601b031916608052610072565b600060208284031215610055578081fd5b81516001600160a01b038116811461006b578182fd5b9392505050565b60805160601c6114de6100ac600039600081816101e4015281816105be015281816106ca015281816109450152610a0d01526114de6000f3fe608060405234801561001057600080fd5b506004361061006d5760003560e01c806311cb93801461007257806335e39eaf1461008757806383460ba8146100b15780638679eaf7146100d1578063a2b14e6f146100e4578063c463647e146100f9578063cdce4b841461010c575b600080fd5b610085610080366004610f6e565b610132565b005b61009a610095366004610ef6565b6104fc565b6040516100a892919061109a565b60405180910390f35b6100c46100bf366004610ec7565b610684565b6040516100a89190611134565b6100c46100df366004610fa5565b6106a1565b6100ec610943565b6040516100a891906110a8565b610085610107366004610f6e565b610967565b61011f61011a366004610eaf565b610d16565b6040516100a897969594939291906110f9565b6000838152600160208190526040909120015461016a5760405162461bcd60e51b815260040161016190611191565b60405180910390fd5b6000811161018a5760405162461bcd60e51b815260040161016190611267565b6000838152600160205260409020600301548111156101bb5760405162461bcd60e51b81526004016101619061137c565b60008381526001602052604080822060020154905163430694cf60e01b81526001600160a01b037f0000000000000000000000000000000000000000000000000000000000000000169163430694cf916102189190600401611134565b6101606040518083038186803b15801561023157600080fd5b505afa158015610245573d6000803e3d6000fd5b505050506040513d601f19601f820116820180604052508101906102699190610fe5565b905080602001516001600160a01b0316836001600160a01b0316146102a05760405162461bcd60e51b8152600401610161906112f0565b6040516370a0823160e01b81526000906001600160a01b038516906370a08231906102cf9030906004016110a8565b60206040518083038186803b1580156102e757600080fd5b505afa1580156102fb573d6000803e3d6000fd5b505050506040513d601f19601f8201168201806040525081019061031f9190611082565b9050826001600087815260200190815260200160002060030160008282546103479190611455565b9091555050600085815260026020908152604080832033845290915281208054859290610375908490611455565b909155505060405163a9059cbb60e01b81526001600160a01b0385169063a9059cbb906103a890339087906004016110e0565b602060405180830381600087803b1580156103c257600080fd5b505af11580156103d6573d6000803e3d6000fd5b505050506040513d601f19601f820116820180604052508101906103fa9190610e8c565b6104165760405162461bcd60e51b81526004016101619061113d565b6040516370a0823160e01b815283906001600160a01b038616906370a08231906104449030906004016110a8565b60206040518083038186803b15801561045c57600080fd5b505afa158015610470573d6000803e3d6000fd5b505050506040513d601f19601f820116820180604052508101906104949190611082565b61049e9083611455565b146104bb5760405162461bcd60e51b815260040161016190611345565b847ffac75813a7417e2b4304af9ff339743d1068a28b5a3d1d6913cb1da1dca6da0084336040516104ed9291906113ef565b60405180910390a25050505050565b600083815260016020819052604082200154819061052c5760405162461bcd60e51b815260040161016190611191565b60008581526001602081905260409091206006018054909161054d91611455565b8154811061056b57634e487b7160e01b600052603260045260246000fd5b90600052602060002001544210156105955760405162461bcd60e51b815260040161016190611166565b60008581526001602052604080822060020154905163430694cf60e01b81526001600160a01b037f0000000000000000000000000000000000000000000000000000000000000000169163430694cf916105f29190600401611134565b6101606040518083038186803b15801561060b57600080fd5b505afa15801561061f573d6000803e3d6000fd5b505050506040513d601f19601f820116820180604052508101906106439190610fe5565b60e0810151600088815260016020526040902060030154919250111561067b5760405162461bcd60e51b815260040161016190611319565b50935093915050565b600260209081526000928352604080842090915290825290205481565b600080546106b090600161143d565b60005560405163d3f79a0560e01b81526001600160a01b037f0000000000000000000000000000000000000000000000000000000000000000169063d3f79a05906106ff908890600401611134565b60206040518083038186803b15801561071757600080fd5b505afa15801561072b573d6000803e3d6000fd5b505050506040513d601f19601f8201168201806040525081019061074f9190610e8c565b61076b5760405162461bcd60e51b8152600401610161906112c8565b6000841161078b5760405162461bcd60e51b8152600401610161906113c1565b610793610d5a565b6000546040516107a791889160200161109a565b60408051601f19818403018152918152815160209283012083820181905260009081526001928390522001546107ef5760405162461bcd60e51b815260040161016190611296565b6001815260a081018590526060810186905260c08101849052336020820152821561084757428160e0015160008151811061083a57634e487b7160e01b600052603260045260246000fd5b6020026020010181815250505b604080820180516000908152600160208181529390912084518154858701516001600160a01b031661010002610100600160a81b031992151560ff199092169190911791909116178155915190820155606083015160028201556080830151600382015560a0830151600482015560c0830151600582015560e0830151805184936108d9926006850192910190610db7565b5061010082015180516108f6916007840191602090910190610db7565b5090505080604001517fbf24caeffab0cc6656bfb213da476f3946a40411f9da1a16f912f7388f27afe48760405161092e9190611134565b60405180910390a26040015195945050505050565b7f000000000000000000000000000000000000000000000000000000000000000081565b600083815260016020819052604090912001546109965760405162461bcd60e51b815260040161016190611191565b60008381526001602052604090205460ff166109c45760405162461bcd60e51b815260040161016190611239565b600081116109e45760405162461bcd60e51b815260040161016190611267565b60008381526001602052604080822060020154905163430694cf60e01b81526001600160a01b037f0000000000000000000000000000000000000000000000000000000000000000169163430694cf91610a419190600401611134565b6101606040518083038186803b158015610a5a57600080fd5b505afa158015610a6e573d6000803e3d6000fd5b505050506040513d601f19601f82011682018060405250810190610a929190610fe5565b905080602001516001600160a01b0316836001600160a01b031614610ac95760405162461bcd60e51b8152600401610161906112f0565b6040516370a0823160e01b81526000906001600160a01b038516906370a0823190610af89030906004016110a8565b60206040518083038186803b158015610b1057600080fd5b505afa158015610b24573d6000803e3d6000fd5b505050506040513d601f19601f82011682018060405250810190610b489190611082565b6040516323b872dd60e01b81529091506001600160a01b038516906323b872dd90610b7b903390309088906004016110bc565b602060405180830381600087803b158015610b9557600080fd5b505af1158015610ba9573d6000803e3d6000fd5b505050506040513d601f19601f82011682018060405250810190610bcd9190610e8c565b610be95760405162461bcd60e51b8152600401610161906111f7565b8281856001600160a01b03166370a08231306040518263ffffffff1660e01b8152600401610c1791906110a8565b60206040518083038186803b158015610c2f57600080fd5b505afa158015610c43573d6000803e3d6000fd5b505050506040513d601f19601f82011682018060405250810190610c679190611082565b610c719190611455565b14610c8e5760405162461bcd60e51b8152600401610161906111c2565b60008581526001602052604081206003018054859290610caf90849061143d565b9091555050600085815260026020908152604080832033845290915281208054859290610cdd90849061143d565b92505081905550847f3e60be47909dbe92b17a5806dc2a9f7fa2b0f8771891ce66ba3eaec03bb2c48484336040516104ed9291906113ef565b600160208190526000918252604090912080549181015460028201546003830154600484015460059094015460ff86169561010090046001600160a01b0316949087565b60405180610120016040528060001515815260200160006001600160a01b03168152602001600080191681526020016000801916815260200160008152602001600081526020016000815260200160608152602001606081525090565b828054828255906000526020600020908101928215610df2579160200282015b82811115610df2578251825591602001919060010190610dd7565b50610dfe929150610e02565b5090565b5b80821115610dfe5760008155600101610e03565b8051610e2281611482565b919050565b8051610e228161149a565b600060608284031215610e43578081fd5b610e4d6060611406565b905081518152610e5f60208301610e7b565b6020820152610e7060408301610e7b565b604082015292915050565b805160ff81168114610e2257600080fd5b600060208284031215610e9d578081fd5b8151610ea88161149a565b9392505050565b600060208284031215610ec0578081fd5b5035919050565b60008060408385031215610ed9578081fd5b823591506020830135610eeb81611482565b809150509250929050565b600080600060408486031215610f0a578081fd5b8335925060208401356001600160401b0380821115610f27578283fd5b818601915086601f830112610f3a578283fd5b813581811115610f48578384fd5b8760208083028501011115610f5b578384fd5b6020830194508093505050509250925092565b600080600060608486031215610f82578283fd5b833592506020840135610f9481611482565b929592945050506040919091013590565b60008060008060808587031215610fba578081fd5b8435935060208501359250604085013591506060850135610fda8161149a565b939692955090935050565b60006101608284031215610ff7578081fd5b611002610120611406565b61100b83610e27565b815261101960208401610e17565b602082015261102a60408401610e17565b604082015261103b60608401610e17565b60608201526080830151608082015260a083015160a082015260c083015160c082015260e083015160e082015261010061107785828601610e32565b908201529392505050565b600060208284031215611093578081fd5b5051919050565b918252602082015260400190565b6001600160a01b0391909116815260200190565b6001600160a01b039384168152919092166020820152604081019190915260600190565b6001600160a01b03929092168252602082015260400190565b96151587526001600160a01b0395909516602087015260408601939093526060850191909152608084015260a083015260c082015260e00190565b90815260200190565b6020808252600f908201526e151c985b9cd9995c8819985a5b1959608a1b604082015260600190565b60208082526011908201527010d85b9b9bdd081c995c19585d081e595d607a1b604082015260600190565b60208082526017908201527614995c19585d195c88191bd95cc81b9bdd08195e1a5cdd604a1b604082015260600190565b6020808252818101527f496e636f72726563742062616c616e6365206166746572207472616e73666572604082015260600190565b60208082526022908201527f436f756c64206e6f74207472616e736665722066726f6d206d73672e73656e6460408201526132b960f11b606082015260800190565b60208082526014908201527314995c19585d195c881a5cc8191a5cd8589b195960621b604082015260600190565b602080825260159082015274416d6f756e742063616e6e6f74206265207a65726f60581b604082015260600190565b6020808252601890820152772932b832b0ba32b91030b63932b0b23c9032bc34b9ba399760411b604082015260600190565b6020808252600e908201526d139bdd0818481c1c9bdc1bdcd85b60921b604082015260600190565b6020808252600f908201526e24b731b7b93932b1ba103a37b5b2b760891b604082015260600190565b6020808252601290820152714e6f7420656e6f7567682066756e64696e6760701b604082015260600190565b6020808252601e908201527f4265666f726520616e642061667465722062616c616e63652077726f6e670000604082015260600190565b60208082526025908201527f43616e6e6f7420646566756e64206d6f7265207468616e20746f74616c2066756040820152646e64696e6760d81b606082015260800190565b6020808252601490820152730496e74657276616c2063616e6e6f7420626520360641b604082015260600190565b9182526001600160a01b0316602082015260400190565b6040518181016001600160401b038111828210171561143557634e487b7160e01b600052604160045260246000fd5b604052919050565b600082198211156114505761145061146c565b500190565b6000828210156114675761146761146c565b500390565b634e487b7160e01b600052601160045260246000fd5b6001600160a01b038116811461149757600080fd5b50565b801515811461149757600080fdfea26469706673582212206c5dcd9ff6fdeb45795c8f2e5b165066413e39019b7a63f49d8817fdef4a230f64736f6c63430008000033",
  "linkReferences": {},
  "deployedLinkReferences": {}
}