{
  "_format": "hh-sol-artifact-1",
  "contractName": "SolverFactory",
  "sourceName": "contracts/solvers/SolverFactory.sol",
  "abi": [
    {
      "inputs": [
        {
          "internalType": "address",
          "name": "_ctf",
          "type": "address"
        },
        {
          "internalType": "address",
          "name": "_erc1155Rescue",
          "type": "address"
        }
      ],
      "stateMutability": "nonpayable",
      "type": "constructor"
    },
    {
      "anonymous": false,
      "inputs": [
        {
          "indexed": false,
          "internalType": "address",
          "name": "newSolverAddress",
          "type": "address"
        }
      ],
      "name": "SolverCreated",
      "type": "event"
    },
    {
      "inputs": [
        {
          "internalType": "address",
          "name": "chainParent",
          "type": "address"
        },
        {
          "internalType": "uint256",
          "name": "chainIndex",
          "type": "uint256"
        },
        {
          "components": [
            {
              "internalType": "contract Solver",
              "name": "implementation",
              "type": "address"
            },
            {
              "internalType": "address",
              "name": "keeper",
              "type": "address"
            },
            {
              "internalType": "address",
              "name": "arbitrator",
              "type": "address"
            },
            {
              "internalType": "uint256",
              "name": "timelockSeconds",
              "type": "uint256"
            },
            {
              "components": [
                {
                  "internalType": "contract IModule",
                  "name": "module",
                  "type": "address"
                },
                {
                  "internalType": "bytes",
                  "name": "data",
                  "type": "bytes"
                }
              ],
              "internalType": "struct Modulated.Loader[]",
              "name": "moduleLoaders",
              "type": "tuple[]"
            },
            {
              "components": [
                {
                  "internalType": "uint256",
                  "name": "executions",
                  "type": "uint256"
                },
                {
                  "internalType": "enum SolverLib.IngestType",
                  "name": "ingestType",
                  "type": "uint8"
                },
                {
                  "internalType": "bytes32",
                  "name": "slot",
                  "type": "bytes32"
                },
                {
                  "internalType": "uint256",
                  "name": "solverIndex",
                  "type": "uint256"
                },
                {
                  "internalType": "bytes",
                  "name": "data",
                  "type": "bytes"
                }
              ],
              "internalType": "struct SolverLib.Ingest[]",
              "name": "ingests",
              "type": "tuple[]"
            },
            {
              "components": [
                {
                  "internalType": "contract IERC20",
                  "name": "collateralToken",
                  "type": "address"
                },
                {
                  "internalType": "uint256",
                  "name": "outcomeSlots",
                  "type": "uint256"
                },
                {
                  "internalType": "uint256",
                  "name": "parentCollectionIndexSet",
                  "type": "uint256"
                },
                {
                  "internalType": "bytes32",
                  "name": "amountSlot",
                  "type": "bytes32"
                },
                {
                  "internalType": "uint256[]",
                  "name": "partition",
                  "type": "uint256[]"
                },
                {
                  "components": [
                    {
                      "internalType": "bytes32",
                      "name": "recipientAddressSlot",
                      "type": "bytes32"
                    },
                    {
                      "internalType": "bytes32[]",
                      "name": "recipientAmountSlots",
                      "type": "bytes32[]"
                    }
                  ],
                  "internalType": "struct SolverLib.Allocation[]",
                  "name": "allocations",
                  "type": "tuple[]"
                },
                {
                  "internalType": "string[]",
                  "name": "outcomeURIs",
                  "type": "string[]"
                }
              ],
              "internalType": "struct SolverLib.ConditionBase",
              "name": "conditionBase",
              "type": "tuple"
            }
          ],
          "internalType": "struct SolverLib.Config",
          "name": "solverConfig",
          "type": "tuple"
        }
      ],
      "name": "createSolver",
      "outputs": [
        {
          "internalType": "address",
          "name": "",
          "type": "address"
        }
      ],
      "stateMutability": "nonpayable",
      "type": "function"
    },
    {
      "inputs": [],
      "name": "ctf",
      "outputs": [
        {
          "internalType": "address",
          "name": "",
          "type": "address"
        }
      ],
      "stateMutability": "view",
      "type": "function"
    },
    {
      "inputs": [],
      "name": "erc1155Rescue",
      "outputs": [
        {
          "internalType": "address",
          "name": "",
          "type": "address"
        }
      ],
      "stateMutability": "view",
      "type": "function"
    },
    {
      "inputs": [
        {
          "internalType": "uint256",
          "name": "",
          "type": "uint256"
        }
      ],
      "name": "solvers",
      "outputs": [
        {
          "internalType": "address",
          "name": "",
          "type": "address"
        }
      ],
      "stateMutability": "view",
      "type": "function"
    }
  ],
  "bytecode": "0x60c060405234801561001057600080fd5b50604051610a2f380380610a2f83398101604081905261002f91610062565b6001600160a01b039182166080521660a052610095565b80516001600160a01b038116811461005d57600080fd5b919050565b6000806040838503121561007557600080fd5b61007e83610046565b915061008c60208401610046565b90509250929050565b60805160a0516109776100b8600039600060b901526000607f01526109776000f3fe608060405234801561001057600080fd5b506004361061004c5760003560e01c80630ed163f01461005157806322a9339f1461007a57806392ce765e146100a157806396d46637146100b4575b600080fd5b61006461005f3660046103dd565b6100db565b6040516100719190610449565b60405180910390f35b6100647f000000000000000000000000000000000000000000000000000000000000000081565b6100646100af36600461045d565b6102f3565b6100647f000000000000000000000000000000000000000000000000000000000000000081565b6000806100eb6020840184610476565b6001600160a01b03160361015c5760405162461bcd60e51b815260206004820152602d60248201527f536f6c766572466163746f72793a3a496e76616c696420696d706c656d656e7460448201526c6174696f6e206164647265737360981b60648201526084015b60405180910390fd5b6001600160a01b038416158015610171575082155b8061018f57506001600160a01b0384161580159061018f5750600083115b6101ed5760405162461bcd60e51b815260206004820152602960248201527f536f6c766572466163746f72793a3a496e76616c696420636861696e207061726044820152680cadce85ed2dcc8caf60bb1b6064820152608401610153565b60006102046101ff6020850185610476565b61031d565b604051636577cbd360e01b81529091506001600160a01b03821690636577cbd39061023990339089908990899060040161084b565b600060405180830381600087803b15801561025357600080fd5b505af1158015610267573d6000803e3d6000fd5b5050600080546001810182559080527f290decd9548b62a8d60345a988386fc84ba6bc95484008f6362f93160ef3e5630180546001600160a01b0319166001600160a01b03851617905550506040517ff209a592917f50f3a35587a0febcddc6d39633e81c51e5a8e4c0a4b1da853285906102e3908390610449565b60405180910390a1949350505050565b6000818154811061030357600080fd5b6000918252602090912001546001600160a01b0316905081565b6000604051733d602d80600a3d3981f3363d3d373d3d3d363d7360601b81528260601b60148201526e5af43d82803e903d91602b57fd5bf360881b60288201526037816000f09150506001600160a01b0381166103b55760405162461bcd60e51b8152602060048201526016602482015275115490cc4c4d8dce8818dc99585d194819985a5b195960521b6044820152606401610153565b919050565b6001600160a01b03811681146103cf57600080fd5b50565b80356103b5816103ba565b6000806000606084860312156103f257600080fd5b83356103fd816103ba565b92506020840135915060408401356001600160401b0381111561041f57600080fd5b840160e0818703121561043157600080fd5b809150509250925092565b6001600160a01b03169052565b6001600160a01b0391909116815260200190565b60006020828403121561046f57600080fd5b5035919050565b60006020828403121561048857600080fd5b8135610493816103ba565b9392505050565b6000808335601e198436030181126104b157600080fd5b83016020810192503590506001600160401b038111156104d057600080fd5b8060051b36038213156104e257600080fd5b9250929050565b6000808335601e1984360301811261050057600080fd5b83016020810192503590506001600160401b0381111561051f57600080fd5b8036038213156104e257600080fd5b81835281816020850137506000828201602090810191909152601f909101601f19169091010190565b60008235603e1983360301811261056d57600080fd5b90910192915050565b81835260006020808501808196508560051b810191508460005b878110156105f45782840389526105a78288610557565b604081356105b4816103ba565b6001600160a01b031686526105cb828801836104e9565b925081888801526105df828801848361052e565b9b88019b965050509185019150600101610590565b5091979650505050505050565b81835260006020808501808196508560051b810191508460005b878110156105f45782840389528135609e1988360301811261063c57600080fd5b87018035855260a0868201356004811061065557600080fd5b868801526040828101359087015260608083013590870152608061067b818401846104e9565b9350828289015261068f838901858361052e565b9c89019c9750505092860192505060010161061b565b6000823560de1983360301811261056d57600080fd5b81835260006001600160fb1b038311156106d457600080fd5b8260051b8083602087013760009401602001938452509192915050565b81835260006020808501808196508560051b810191508460005b878110156105f457828403895261072282886104e9565b61072d86828461052e565b9a87019a955050509084019060010161070b565b6000813561074e816103ba565b6001600160a01b03168352602082810135818501526040808401358186015260608085013590860152610784608085018561049a565b60e0608088015261079960e0880182846106bb565b9150506107a960a086018661049a565b87830360a0890152808352848301600582901b840186018360005b8481101561081757868303601f190184526107df8287610557565b803584526107ef8a82018261049a565b9150898b8601526108038a860183836106bb565b958b019594505050908801906001016107c4565b505061082660c08a018a61049a565b9750955089810360c08b015261083d8188886106f1565b9a9950505050505050505050565b6001600160a01b03858116825284811660208301526040820184905260806060830152600090833561087c816103ba565b16608083015261088e602084016103d2565b61089b60a084018261043c565b506108a8604084016103d2565b6108b560c084018261043c565b50606083013560e08301526108cd608084018461049a565b60e06101008501526108e461016085018284610576565b9150506108f460a085018561049a565b607f19808685030161012087015261090d848385610601565b935061091c60c08801886106a5565b9250808685030161014087015250506109358282610741565b9897505050505050505056fea264697066735822122014dd04852d89283eb8091534603938d651d9c5d1429238eb54297ae833557ab164736f6c634300080e0033",
  "linkReferences": {},
  "deployedLinkReferences": {}
}