{
  "_format": "hh-sol-artifact-1",
  "contractName": "IPFSSolutionsHub",
  "sourceName": "contracts/hubs/IPFSSolutionsHub.sol",
  "abi": [
    {
      "inputs": [
        {
          "internalType": "contract ISolverFactory",
          "name": "factoryAddress",
          "type": "address"
        },
        {
          "internalType": "contract IProposalsHub",
          "name": "proposalsHubAddress",
          "type": "address"
        }
      ],
      "stateMutability": "nonpayable",
      "type": "constructor"
    },
    {
      "anonymous": false,
      "inputs": [
        {
          "indexed": false,
          "internalType": "bytes32",
          "name": "id",
          "type": "bytes32"
        }
      ],
      "name": "CreateBase",
      "type": "event"
    },
    {
      "anonymous": false,
      "inputs": [
        {
          "indexed": false,
          "internalType": "bytes32",
          "name": "id",
          "type": "bytes32"
        }
      ],
      "name": "CreateSolution",
      "type": "event"
    },
    {
      "anonymous": false,
      "inputs": [
        {
          "indexed": false,
          "internalType": "bytes",
          "name": "reason",
          "type": "bytes"
        }
      ],
      "name": "ErrorNotHandled",
      "type": "event"
    },
    {
      "anonymous": false,
      "inputs": [
        {
          "indexed": false,
          "internalType": "bytes32",
          "name": "id",
          "type": "bytes32"
        }
      ],
      "name": "ExecuteSolution",
      "type": "event"
    },
    {
      "inputs": [
        {
          "internalType": "bytes32",
          "name": "",
          "type": "bytes32"
        }
      ],
      "name": "bases",
      "outputs": [
        {
          "internalType": "contract IERC20",
          "name": "collateralToken",
          "type": "address"
        },
        {
          "internalType": "bytes32",
          "name": "id",
          "type": "bytes32"
        },
        {
          "internalType": "bytes32",
          "name": "solverConfigsHash",
          "type": "bytes32"
        },
        {
          "internalType": "string",
          "name": "solverConfigsURI",
          "type": "string"
        }
      ],
      "stateMutability": "view",
      "type": "function"
    },
    {
      "inputs": [
        {
          "internalType": "bytes32",
          "name": "baseId",
          "type": "bytes32"
        },
        {
          "internalType": "contract IERC20",
          "name": "collateralToken",
          "type": "address"
        },
        {
          "components": [
            {
              "internalType": "contract Solver",
              "name": "implementation",
              "type": "address"
            },
            {
              "internalType": "address",
              "name": "keeper",
              "type": "address"
            },
            {
              "internalType": "address",
              "name": "arbitrator",
              "type": "address"
            },
            {
              "internalType": "uint256",
              "name": "timelockSeconds",
              "type": "uint256"
            },
            {
              "components": [
                {
                  "internalType": "contract IModule",
                  "name": "module",
                  "type": "address"
                },
                {
                  "internalType": "bytes",
                  "name": "data",
                  "type": "bytes"
                }
              ],
              "internalType": "struct Modulated.Loader[]",
              "name": "moduleLoaders",
              "type": "tuple[]"
            },
            {
              "components": [
                {
                  "internalType": "uint256",
                  "name": "executions",
                  "type": "uint256"
                },
                {
                  "internalType": "enum SolverLib.IngestType",
                  "name": "ingestType",
                  "type": "uint8"
                },
                {
                  "internalType": "bytes32",
                  "name": "slot",
                  "type": "bytes32"
                },
                {
                  "internalType": "uint256",
                  "name": "solverIndex",
                  "type": "uint256"
                },
                {
                  "internalType": "bytes",
                  "name": "data",
                  "type": "bytes"
                }
              ],
              "internalType": "struct SolverLib.Ingest[]",
              "name": "ingests",
              "type": "tuple[]"
            },
            {
              "components": [
                {
                  "internalType": "contract IERC20",
                  "name": "collateralToken",
                  "type": "address"
                },
                {
                  "internalType": "uint256",
                  "name": "outcomeSlots",
                  "type": "uint256"
                },
                {
                  "internalType": "uint256",
                  "name": "parentCollectionIndexSet",
                  "type": "uint256"
                },
                {
                  "internalType": "bytes32",
                  "name": "amountSlot",
                  "type": "bytes32"
                },
                {
                  "internalType": "uint256[]",
                  "name": "partition",
                  "type": "uint256[]"
                },
                {
                  "components": [
                    {
                      "internalType": "bytes32",
                      "name": "recipientAddressSlot",
                      "type": "bytes32"
                    },
                    {
                      "internalType": "bytes32[]",
                      "name": "recipientAmountSlots",
                      "type": "bytes32[]"
                    }
                  ],
                  "internalType": "struct SolverLib.Allocation[]",
                  "name": "allocations",
                  "type": "tuple[]"
                },
                {
                  "internalType": "string[]",
                  "name": "outcomeURIs",
                  "type": "string[]"
                }
              ],
              "internalType": "struct SolverLib.ConditionBase",
              "name": "conditionBase",
              "type": "tuple"
            }
          ],
          "internalType": "struct SolverLib.Config[]",
          "name": "solverConfigs",
          "type": "tuple[]"
        },
        {
          "internalType": "string",
          "name": "solverConfigsURI",
          "type": "string"
        }
      ],
      "name": "createBase",
      "outputs": [
        {
          "internalType": "bytes32",
          "name": "safeBaseId",
          "type": "bytes32"
        }
      ],
      "stateMutability": "nonpayable",
      "type": "function"
    },
    {
      "inputs": [
        {
          "internalType": "bytes32",
          "name": "baseId",
          "type": "bytes32"
        }
      ],
      "name": "createInstance",
      "outputs": [
        {
          "internalType": "bytes32",
          "name": "solutionId",
          "type": "bytes32"
        }
      ],
      "stateMutability": "nonpayable",
      "type": "function"
    },
    {
      "inputs": [
        {
          "internalType": "bytes32",
          "name": "baseId",
          "type": "bytes32"
        },
        {
          "internalType": "contract IERC20",
          "name": "collateralToken",
          "type": "address"
        },
        {
          "components": [
            {
              "internalType": "contract Solver",
              "name": "implementation",
              "type": "address"
            },
            {
              "internalType": "address",
              "name": "keeper",
              "type": "address"
            },
            {
              "internalType": "address",
              "name": "arbitrator",
              "type": "address"
            },
            {
              "internalType": "uint256",
              "name": "timelockSeconds",
              "type": "uint256"
            },
            {
              "components": [
                {
                  "internalType": "contract IModule",
                  "name": "module",
                  "type": "address"
                },
                {
                  "internalType": "bytes",
                  "name": "data",
                  "type": "bytes"
                }
              ],
              "internalType": "struct Modulated.Loader[]",
              "name": "moduleLoaders",
              "type": "tuple[]"
            },
            {
              "components": [
                {
                  "internalType": "uint256",
                  "name": "executions",
                  "type": "uint256"
                },
                {
                  "internalType": "enum SolverLib.IngestType",
                  "name": "ingestType",
                  "type": "uint8"
                },
                {
                  "internalType": "bytes32",
                  "name": "slot",
                  "type": "bytes32"
                },
                {
                  "internalType": "uint256",
                  "name": "solverIndex",
                  "type": "uint256"
                },
                {
                  "internalType": "bytes",
                  "name": "data",
                  "type": "bytes"
                }
              ],
              "internalType": "struct SolverLib.Ingest[]",
              "name": "ingests",
              "type": "tuple[]"
            },
            {
              "components": [
                {
                  "internalType": "contract IERC20",
                  "name": "collateralToken",
                  "type": "address"
                },
                {
                  "internalType": "uint256",
                  "name": "outcomeSlots",
                  "type": "uint256"
                },
                {
                  "internalType": "uint256",
                  "name": "parentCollectionIndexSet",
                  "type": "uint256"
                },
                {
                  "internalType": "bytes32",
                  "name": "amountSlot",
                  "type": "bytes32"
                },
                {
                  "internalType": "uint256[]",
                  "name": "partition",
                  "type": "uint256[]"
                },
                {
                  "components": [
                    {
                      "internalType": "bytes32",
                      "name": "recipientAddressSlot",
                      "type": "bytes32"
                    },
                    {
                      "internalType": "bytes32[]",
                      "name": "recipientAmountSlots",
                      "type": "bytes32[]"
                    }
                  ],
                  "internalType": "struct SolverLib.Allocation[]",
                  "name": "allocations",
                  "type": "tuple[]"
                },
                {
                  "internalType": "string[]",
                  "name": "outcomeURIs",
                  "type": "string[]"
                }
              ],
              "internalType": "struct SolverLib.ConditionBase",
              "name": "conditionBase",
              "type": "tuple"
            }
          ],
          "internalType": "struct SolverLib.Config[]",
          "name": "solverConfigs",
          "type": "tuple[]"
        },
        {
          "internalType": "string",
          "name": "solverConfigsURI",
          "type": "string"
        }
      ],
      "name": "createSolution",
      "outputs": [
        {
          "internalType": "bytes32",
          "name": "instanceId",
          "type": "bytes32"
        }
      ],
      "stateMutability": "nonpayable",
      "type": "function"
    },
    {
      "inputs": [
        {
          "internalType": "bytes32",
          "name": "proposalId",
          "type": "bytes32"
        },
        {
          "internalType": "bytes32",
          "name": "solutionId",
          "type": "bytes32"
        },
        {
          "components": [
            {
              "internalType": "contract Solver",
              "name": "implementation",
              "type": "address"
            },
            {
              "internalType": "address",
              "name": "keeper",
              "type": "address"
            },
            {
              "internalType": "address",
              "name": "arbitrator",
              "type": "address"
            },
            {
              "internalType": "uint256",
              "name": "timelockSeconds",
              "type": "uint256"
            },
            {
              "components": [
                {
                  "internalType": "contract IModule",
                  "name": "module",
                  "type": "address"
                },
                {
                  "internalType": "bytes",
                  "name": "data",
                  "type": "bytes"
                }
              ],
              "internalType": "struct Modulated.Loader[]",
              "name": "moduleLoaders",
              "type": "tuple[]"
            },
            {
              "components": [
                {
                  "internalType": "uint256",
                  "name": "executions",
                  "type": "uint256"
                },
                {
                  "internalType": "enum SolverLib.IngestType",
                  "name": "ingestType",
                  "type": "uint8"
                },
                {
                  "internalType": "bytes32",
                  "name": "slot",
                  "type": "bytes32"
                },
                {
                  "internalType": "uint256",
                  "name": "solverIndex",
                  "type": "uint256"
                },
                {
                  "internalType": "bytes",
                  "name": "data",
                  "type": "bytes"
                }
              ],
              "internalType": "struct SolverLib.Ingest[]",
              "name": "ingests",
              "type": "tuple[]"
            },
            {
              "components": [
                {
                  "internalType": "contract IERC20",
                  "name": "collateralToken",
                  "type": "address"
                },
                {
                  "internalType": "uint256",
                  "name": "outcomeSlots",
                  "type": "uint256"
                },
                {
                  "internalType": "uint256",
                  "name": "parentCollectionIndexSet",
                  "type": "uint256"
                },
                {
                  "internalType": "bytes32",
                  "name": "amountSlot",
                  "type": "bytes32"
                },
                {
                  "internalType": "uint256[]",
                  "name": "partition",
                  "type": "uint256[]"
                },
                {
                  "components": [
                    {
                      "internalType": "bytes32",
                      "name": "recipientAddressSlot",
                      "type": "bytes32"
                    },
                    {
                      "internalType": "bytes32[]",
                      "name": "recipientAmountSlots",
                      "type": "bytes32[]"
                    }
                  ],
                  "internalType": "struct SolverLib.Allocation[]",
                  "name": "allocations",
                  "type": "tuple[]"
                },
                {
                  "internalType": "string[]",
                  "name": "outcomeURIs",
                  "type": "string[]"
                }
              ],
              "internalType": "struct SolverLib.ConditionBase",
              "name": "conditionBase",
              "type": "tuple"
            }
          ],
          "internalType": "struct SolverLib.Config[]",
          "name": "solverConfigs",
          "type": "tuple[]"
        }
      ],
      "name": "executeSolution",
      "outputs": [],
      "stateMutability": "nonpayable",
      "type": "function"
    },
    {
      "inputs": [
        {
          "internalType": "bytes32",
          "name": "instanceId",
          "type": "bytes32"
        }
      ],
      "name": "getSolution",
      "outputs": [
        {
          "components": [
            {
              "internalType": "bool",
              "name": "executed",
              "type": "bool"
            },
            {
              "internalType": "contract IERC20",
              "name": "collateralToken",
              "type": "address"
            },
            {
              "internalType": "address",
              "name": "proposalsHub",
              "type": "address"
            },
            {
              "internalType": "bytes32",
              "name": "proposalId",
              "type": "bytes32"
            },
            {
              "internalType": "bytes32",
              "name": "id",
              "type": "bytes32"
            },
            {
              "internalType": "bytes32",
              "name": "solverConfigsHash",
              "type": "bytes32"
            },
            {
              "internalType": "string",
              "name": "solverConfigsURI",
              "type": "string"
            },
            {
              "internalType": "address[]",
              "name": "solverAddresses",
              "type": "address[]"
            }
          ],
          "internalType": "struct IPFSSolutionsHub.Solution",
          "name": "solution",
          "type": "tuple"
        }
      ],
      "stateMutability": "view",
      "type": "function"
    },
    {
      "inputs": [
        {
          "internalType": "bytes32",
          "name": "solutionId",
          "type": "bytes32"
        }
      ],
      "name": "getSolvers",
      "outputs": [
        {
          "internalType": "address[]",
          "name": "solvers",
          "type": "address[]"
        }
      ],
      "stateMutability": "view",
      "type": "function"
    },
    {
      "inputs": [
        {
          "internalType": "bytes32",
          "name": "",
          "type": "bytes32"
        }
      ],
      "name": "instanceId_to_ProposalId",
      "outputs": [
        {
          "internalType": "bytes32",
          "name": "",
          "type": "bytes32"
        }
      ],
      "stateMutability": "view",
      "type": "function"
    },
    {
      "inputs": [
        {
          "internalType": "bytes32",
          "name": "",
          "type": "bytes32"
        }
      ],
      "name": "instances",
      "outputs": [
        {
          "internalType": "bool",
          "name": "executed",
          "type": "bool"
        },
        {
          "internalType": "bytes32",
          "name": "id",
          "type": "bytes32"
        },
        {
          "internalType": "bytes32",
          "name": "baseId",
          "type": "bytes32"
        }
      ],
      "stateMutability": "view",
      "type": "function"
    },
    {
      "inputs": [
        {
          "internalType": "bytes32",
          "name": "proposalId",
          "type": "bytes32"
        },
        {
          "internalType": "bytes32",
          "name": "solutionId",
          "type": "bytes32"
        },
        {
          "internalType": "contract IERC20",
          "name": "collateralToken",
          "type": "address"
        }
      ],
      "name": "linkToProposal",
      "outputs": [],
      "stateMutability": "nonpayable",
      "type": "function"
    },
    {
      "inputs": [
        {
          "internalType": "bytes32",
          "name": "",
          "type": "bytes32"
        }
      ],
      "name": "nonces",
      "outputs": [
        {
          "internalType": "uint256",
          "name": "",
          "type": "uint256"
        }
      ],
      "stateMutability": "view",
      "type": "function"
    },
    {
      "inputs": [
        {
          "internalType": "bytes32",
          "name": "solutionId",
          "type": "bytes32"
        },
        {
          "internalType": "uint256",
          "name": "index",
          "type": "uint256"
        }
      ],
      "name": "solverFromIndex",
      "outputs": [
        {
          "internalType": "address",
          "name": "solverAddress",
          "type": "address"
        }
      ],
      "stateMutability": "view",
      "type": "function"
    },
    {
      "inputs": [
        {
          "internalType": "bytes32",
          "name": "baseId",
          "type": "bytes32"
        },
        {
          "components": [
            {
              "internalType": "contract Solver",
              "name": "implementation",
              "type": "address"
            },
            {
              "internalType": "address",
              "name": "keeper",
              "type": "address"
            },
            {
              "internalType": "address",
              "name": "arbitrator",
              "type": "address"
            },
            {
              "internalType": "uint256",
              "name": "timelockSeconds",
              "type": "uint256"
            },
            {
              "components": [
                {
                  "internalType": "contract IModule",
                  "name": "module",
                  "type": "address"
                },
                {
                  "internalType": "bytes",
                  "name": "data",
                  "type": "bytes"
                }
              ],
              "internalType": "struct Modulated.Loader[]",
              "name": "moduleLoaders",
              "type": "tuple[]"
            },
            {
              "components": [
                {
                  "internalType": "uint256",
                  "name": "executions",
                  "type": "uint256"
                },
                {
                  "internalType": "enum SolverLib.IngestType",
                  "name": "ingestType",
                  "type": "uint8"
                },
                {
                  "internalType": "bytes32",
                  "name": "slot",
                  "type": "bytes32"
                },
                {
                  "internalType": "uint256",
                  "name": "solverIndex",
                  "type": "uint256"
                },
                {
                  "internalType": "bytes",
                  "name": "data",
                  "type": "bytes"
                }
              ],
              "internalType": "struct SolverLib.Ingest[]",
              "name": "ingests",
              "type": "tuple[]"
            },
            {
              "components": [
                {
                  "internalType": "contract IERC20",
                  "name": "collateralToken",
                  "type": "address"
                },
                {
                  "internalType": "uint256",
                  "name": "outcomeSlots",
                  "type": "uint256"
                },
                {
                  "internalType": "uint256",
                  "name": "parentCollectionIndexSet",
                  "type": "uint256"
                },
                {
                  "internalType": "bytes32",
                  "name": "amountSlot",
                  "type": "bytes32"
                },
                {
                  "internalType": "uint256[]",
                  "name": "partition",
                  "type": "uint256[]"
                },
                {
                  "components": [
                    {
                      "internalType": "bytes32",
                      "name": "recipientAddressSlot",
                      "type": "bytes32"
                    },
                    {
                      "internalType": "bytes32[]",
                      "name": "recipientAmountSlots",
                      "type": "bytes32[]"
                    }
                  ],
                  "internalType": "struct SolverLib.Allocation[]",
                  "name": "allocations",
                  "type": "tuple[]"
                },
                {
                  "internalType": "string[]",
                  "name": "outcomeURIs",
                  "type": "string[]"
                }
              ],
              "internalType": "struct SolverLib.ConditionBase",
              "name": "conditionBase",
              "type": "tuple"
            }
          ],
          "internalType": "struct SolverLib.Config[]",
          "name": "solverConfigs",
          "type": "tuple[]"
        }
      ],
      "name": "verifyHash",
      "outputs": [
        {
          "internalType": "bool",
          "name": "",
          "type": "bool"
        }
      ],
      "stateMutability": "view",
      "type": "function"
    }
  ],
  "bytecode": "0x60c06040523480156200001157600080fd5b506040516200293138038062002931833981016040819052620000349162000065565b6001600160a01b039182166080521660a052620000a4565b6001600160a01b03811681146200006257600080fd5b50565b600080604083850312156200007957600080fd5b825162000086816200004c565b602084015190925062000099816200004c565b809150509250929050565b60805160a051612860620000d16000396000818161071501526108dd015260006110e801526128606000f3fe608060405234801561001057600080fd5b50600436106100af5760003560e01c8063191481a0146100b45780632711447f146100e4578063307d6cb6146101355780634f605f81146101555780634f730b9f146101785780639193e9cc1461019b57806398c52054146101bc5780639e317f12146101cf578063a2440b9d146101ef578063b199186114610204578063bceef19c14610217578063ddc02e0314610237578063fde1e84f14610257575b600080fd5b6100c76100c2366004611378565b61026a565b6040516001600160a01b0390911681526020015b60405180910390f35b6101186100f23660046113a7565b600260208190526000918252604090912080546001820154919092015460ff9092169183565b6040805193151584526020840192909252908201526060016100db565b6101486101433660046113a7565b6102ca565b6040516100db91906113c0565b6101686101633660046113a7565b610339565b6040516100db949392919061145a565b61018b610186366004611be4565b6103f7565b60405190151581526020016100db565b6101ae6101a9366004611c89565b61043b565b6040519081526020016100db565b6101ae6101ca3660046113a7565b610598565b6101ae6101dd3660046113a7565b60006020819052908152604090205481565b6102026101fd366004611d40565b6106ff565b005b610202610212366004611d79565b610865565b6101ae6102253660046113a7565b60036020526000908152604090205481565b61024a6102453660046113a7565b610df6565b6040516100db9190611e0f565b6101ae610265366004611c89565b610ffe565b600082815260026020526040812060030154156102c05760008381526002602052604090206003018054839081106102a4576102a4611e9a565b6000918252602090912001546001600160a01b031690506102c4565b5060005b92915050565b60008181526002602090815260409182902060030180548351818402810184019094528084526060939283018282801561032d57602002820191906000526020600020905b81546001600160a01b0316815260019091019060200180831161030f575b50505050509050919050565b600160208190526000918252604090912080549181015460028201546003830180546001600160a01b03909516949293919261037490611eb0565b80601f01602080910402602001604051908101604052809291908181526020018280546103a090611eb0565b80156103ed5780601f106103c2576101008083540402835291602001916103ed565b820191906000526020600020905b8154815290600101906020018083116103d057829003601f168201915b5050505050905084565b60008160405160200161040a919061218e565b60408051601f1981840301815291815281516020928301206000868152600190935291206002015414905092915050565b60008681526020819052604081208054908261045683612287565b9091555050506000868152602081815260408083205481518084018b90528083019190915281518082038301815260609091018252805190830120808452600192839052922001548190036104eb5760405162461bcd60e51b81526020600482015260166024820152754261736520494420616c72656164792065786973747360501b60448201526064015b60405180910390fd5b60008181526001602081815260409283902091820184905581546001600160a01b0319166001600160a01b038a161782559151909161052e9188918891016126f8565b60408051601f19818403018152919052805160209091012060028201556105596003820185856112df565b506040518281527fb2291843796c1f5585269aa9e4f472f2c5d0b4c74b5ce230c732c3278a313d899060200160405180910390a1509695505050505050565b6000818152602081905260408120805490826105b383612287565b909155505060008281526020819052604081205483906105d460014361274d565b604080516020810194909452830191909152406060820152608001604051602081830303815290604052805190602001209050806002600083815260200190815260200160002060010154036106695760405162461bcd60e51b815260206004820152601a602482015279496e7374616e636520494420616c72656164792065786973747360301b60448201526064016104e2565b600083815260016020819052604090912001546106b95760405162461bcd60e51b815260206004820152600e60248201526d10985cd9481b9bdd08199bdd5b9960921b60448201526064016104e2565b600081815260026020818152604092839020600181018590559182018690559151838152909160008051602061280b833981519152910160405180910390a15092915050565b60405163d3f79a0560e01b8152600481018490527f00000000000000000000000000000000000000000000000000000000000000006001600160a01b03169063d3f79a0590602401602060405180830381865afa158015610764573d6000803e3d6000fd5b505050506040513d601f19601f820116820180604052508101906107889190612764565b6107e25760405162461bcd60e51b815260206004820152602560248201527f50726f706f73616c206973206e6f742076616c69642061742070726f706f73616044820152643639a43ab160d91b60648201526084016104e2565b6000828152600260208181526040808420909201548352600190529020546001600160a01b038281169116146108535760405162461bcd60e51b81526020600482015260166024820152752bb937b7339031b7b63630ba32b930b6103a37b5b2b760511b60448201526064016104e2565b50600090815260036020526040902055565b60008381526002602081905260409091200154610886906101868385612786565b6108d25760405162461bcd60e51b815260206004820152601e60248201527f496e636f727265637420536f6c766572436f6e66696720636f6e74656e74000060448201526064016104e2565b336001600160a01b037f000000000000000000000000000000000000000000000000000000000000000016146109455760405162461bcd60e51b81526020600482015260186024820152772737ba1031b7b93932b1ba10383937b837b9b0b639a43ab160411b60448201526064016104e2565b60008381526003602052604090205484146109955760405162461bcd60e51b815260206004820152601060248201526f15dc9bdb99c81c1c9bdc1bdcd85b125960821b60448201526064016104e2565b60008381526002602052604090205460ff16156109f05760405162461bcd60e51b815260206004820152601960248201527814dbdb1d5d1a5bdb88185b1c9958591e48195e1958dd5d1959603a1b60448201526064016104e2565b6000838152600260205260409020805460ff19166001179055610a148383836110d2565b600083815260026020526040812060030180543392631918063f928892909190610a4057610a40611e9a565b60009182526020909120015460405160e084901b6001600160e01b031916815260048101929092526001600160a01b03166024820152604401600060405180830381600087803b158015610a9357600080fd5b505af1158015610aa7573d6000803e3d6000fd5b5050505060005b600084815260026020526040902060030154811015610b78576000848152600260205260408120600301805483908110610aea57610aea611e9a565b6000918252602080832091909101548783526003909152604091829020549151630683080d60e11b815260048101929092526001600160a01b031691508190630d06101a90602401600060405180830381600087803b158015610b4c57600080fd5b505af1158015610b60573d6000803e3d6000fd5b50505050508080610b7090612287565b915050610aae565b5060008381526002602052604081206003018054909190610b9b57610b9b611e9a565b600091825260208220015460405163253b91a760e11b815260048101929092526001600160a01b031690634a77234e90602401600060405180830381600087803b158015610be857600080fd5b505af1158015610bfc573d6000803e3d6000fd5b50505060008481526002602052604081206003018054909250610c2157610c21611e9a565b6000918252602091829020015460408051634ccc928360e11b815290516001600160a01b03909216926399992506926004808401938290030181865afa158015610c6f573d6000803e3d6000fd5b505050506040513d601f19601f82011682018060405250810190610c939190612764565b8015610d30575060008381526002602052604081206003018054909190610cbc57610cbc611e9a565b60009182526020822001546040516344c3b60760e01b815260048101929092526001600160a01b0316906344c3b60790602401602060405180830381865afa158015610d0c573d6000803e3d6000fd5b505050506040513d601f19601f82011682018060405250810190610d309190612764565b15610dbd5760008381526002602052604081206003018054909190610d5757610d57611e9a565b600091825260208220015460405163b992db0f60e01b815260048101929092526001600160a01b03169063b992db0f90602401600060405180830381600087803b158015610da457600080fd5b505af1158015610db8573d6000803e3d6000fd5b505050505b6040518381527fabe14211ae2537ee6b7aa77dde5785f740f88443cc6f3a4a4b68bb0e6a5652fa9060200160405180910390a150505050565b604080516101008101825260008082526020820181905291810182905260608082018390526080820183905260a082019290925260c0810182905260e081019190915260008281526002602081815260408084208151608081018352815460ff16151581526001820154818501529381015484830152600381018054835181860281018601909452808452919360608601939290830182828015610ec357602002820191906000526020600020905b81546001600160a01b03168152600190910190602001808311610ea5575b50505091909252505050604080820151600090815260016020818152838320845160808101865281546001600160a01b03168152928101549183019190915260028101549382019390935260038301805494955091939092916060840191610f2a90611eb0565b80601f0160208091040260200160405190810160405280929190818152602001828054610f5690611eb0565b8015610fa35780601f10610f7857610100808354040283529160200191610fa3565b820191906000526020600020905b815481529060010190602001808311610f8657829003601f168201915b50505091909252505050602080840151608086015292511515845280516001600160a01b0316848401526000948552600390925250604092839020546060808401919091529281015160a0830152919091015160c082015290565b600080805260026020527fac33ff75c19e70fe83507db0d683fd3465c996598dc972688b7ace676c89077c546110875760405162461bcd60e51b815260206004820152602860248201527f536f6c7574696f6e734875623a3a496e7374616e636520494420616c72656164604482015267792065786973747360c01b60648201526084016104e2565b61109587878787878761043b565b5061109f87610598565b905060008051602061280b833981519152816040516110c091815260200190565b60405180910390a19695505050505050565b6000805b828110156112d857806000036111f7577f00000000000000000000000000000000000000000000000000000000000000006001600160a01b0316630ed163f060008387878681811061112a5761112a611e9a565b905060200281019061113c9190612793565b6040518463ffffffff1660e01b815260040161115a939291906127b3565b6020604051808303816000875af1158015611179573d6000803e3d6000fd5b505050506040513d601f19601f8201168201806040525081019061119d91906127da565b91506001600160a01b0382166111f25760405162461bcd60e51b815260206004820152601a60248201527924b73b30b634b21030b2323932b9b9903337b91029b7b63b32b960311b60448201526064016104e2565b61128c565b816001600160a01b0316636463845b85858481811061121857611218611e9a565b905060200281019061122a9190612793565b6040518263ffffffff1660e01b815260040161124691906127f7565b6020604051808303816000875af1158015611265573d6000803e3d6000fd5b505050506040513d601f19601f8201168201806040525081019061128991906127da565b91505b60008581526002602090815260408220600301805460018101825590835291200180546001600160a01b0319166001600160a01b038416179055806112d081612287565b9150506110d6565b5050505050565b8280546112eb90611eb0565b90600052602060002090601f01602090048101928261130d5760008555611353565b82601f106113265782800160ff19823516178555611353565b82800160010185558215611353579182015b82811115611353578235825591602001919060010190611338565b5061135f929150611363565b5090565b5b8082111561135f5760008155600101611364565b6000806040838503121561138b57600080fd5b50508035926020909101359150565b6001600160a01b03169052565b6000602082840312156113b957600080fd5b5035919050565b6020808252825182820181905260009190848201906040850190845b818110156114015783516001600160a01b0316835292840192918401916001016113dc565b50909695505050505050565b6000815180845260005b8181101561143357602081850181015186830182015201611417565b81811115611445576000602083870101525b50601f01601f19169290920160200192915050565b60018060a01b0385168152836020820152826040820152608060608201526000611487608083018461140d565b9695505050505050565b634e487b7160e01b600052604160045260246000fd5b604080519081016001600160401b03811182821017156114c9576114c9611491565b60405290565b60405160a081016001600160401b03811182821017156114c9576114c9611491565b60405160e081016001600160401b03811182821017156114c9576114c9611491565b604051601f8201601f191681016001600160401b038111828210171561153b5761153b611491565b604052919050565b60006001600160401b0382111561155c5761155c611491565b5060051b60200190565b6001600160a01b038116811461157b57600080fd5b50565b803561158981611566565b919050565b60006001600160401b038311156115a7576115a7611491565b6115ba601f8401601f1916602001611513565b90508281528383830111156115ce57600080fd5b828260208301376000602084830101529392505050565b600082601f8301126115f657600080fd5b6116058383356020850161158e565b9392505050565b600082601f83011261161d57600080fd5b8135602061163261162d83611543565b611513565b82815260059290921b8401810191818101908684111561165157600080fd5b8286015b848110156116db5780356001600160401b03808211156116755760008081fd5b908801906040828b03601f190181131561168f5760008081fd5b6116976114a7565b878401356116a481611566565b81529083013590828211156116b95760008081fd5b6116c78c89848701016115e5565b818901528652505050918301918301611655565b509695505050505050565b80356004811061158957600080fd5b600082601f83011261170657600080fd5b8135602061171661162d83611543565b82815260059290921b8401810191818101908684111561173557600080fd5b8286015b848110156116db5780356001600160401b03808211156117595760008081fd5b9088019060a0828b03601f19018113156117735760008081fd5b61177b6114cf565b878401358152604061178e8186016116e6565b898301526060808601358284015260809150818601358184015250828501359250838311156117bd5760008081fd5b6117cb8d8a858801016115e5565b908201528652505050918301918301611739565b600082601f8301126117f057600080fd5b8135602061180061162d83611543565b82815260059290921b8401810191818101908684111561181f57600080fd5b8286015b848110156116db5780358352918301918301611823565b600082601f83011261184b57600080fd5b8135602061185b61162d83611543565b828152600592831b850182019282820191908785111561187a57600080fd5b8387015b858110156119525780356001600160401b038082111561189e5760008081fd5b908901906040828c03601f19018113156118b85760008081fd5b6118c06114a7565b88840135815281840135838111156118d85760008081fd5b8085019450508c603f8501126118f057600092508283fd5b88840135925061190261162d84611543565b83815292861b8401820192898101908e85111561191f5760008081fd5b948301945b8486101561193d5785358252948a0194908a0190611924565b828b015250875250505092840192840161187e565b5090979650505050505050565b600082601f83011261197057600080fd5b8135602061198061162d83611543565b82815260059290921b8401810191818101908684111561199f57600080fd5b8286015b848110156116db5780356001600160401b038111156119c25760008081fd5b8701603f810189136119d45760008081fd5b6119e589868301356040840161158e565b8452509183019183016119a3565b600060e08284031215611a0557600080fd5b611a0d6114f1565b9050611a188261157e565b815260208281013590820152604080830135908201526060808301359082015260808201356001600160401b0380821115611a5257600080fd5b611a5e858386016117df565b608084015260a0840135915080821115611a7757600080fd5b611a838583860161183a565b60a084015260c0840135915080821115611a9c57600080fd5b50611aa98482850161195f565b60c08301525092915050565b6000611ac361162d84611543565b8381529050602080820190600585901b840186811115611ae257600080fd5b845b81811015611bd95780356001600160401b0380821115611b045760008081fd5b9087019060e0828b031215611b195760008081fd5b611b216114f1565b611b2a8361157e565b8152611b3786840161157e565b868201526040611b4881850161157e565b908201526060838101359082015260808084013583811115611b6a5760008081fd5b611b768d82870161160c565b82840152505060a08084013583811115611b905760008081fd5b611b9c8d8287016116f5565b82840152505060c08084013583811115611bb65760008081fd5b611bc28d8287016119f3565b918301919091525086525050928201928201611ae4565b505050509392505050565b60008060408385031215611bf757600080fd5b8235915060208301356001600160401b03811115611c1457600080fd5b8301601f81018513611c2557600080fd5b611c3485823560208401611ab5565b9150509250929050565b60008083601f840112611c5057600080fd5b5081356001600160401b03811115611c6757600080fd5b6020830191508360208260051b8501011115611c8257600080fd5b9250929050565b60008060008060008060808789031215611ca257600080fd5b863595506020870135611cb481611566565b945060408701356001600160401b0380821115611cd057600080fd5b611cdc8a838b01611c3e565b90965094506060890135915080821115611cf557600080fd5b818901915089601f830112611d0957600080fd5b813581811115611d1857600080fd5b8a6020828501011115611d2a57600080fd5b6020830194508093505050509295509295509295565b600080600060608486031215611d5557600080fd5b83359250602084013591506040840135611d6e81611566565b809150509250925092565b60008060008060608587031215611d8f57600080fd5b843593506020850135925060408501356001600160401b03811115611db357600080fd5b611dbf87828801611c3e565b95989497509550505050565b600081518084526020808501945080840160005b83811015611e045781516001600160a01b031687529582019590820190600101611ddf565b509495945050505050565b6020815281511515602082015260006020830151611e30604084018261139a565b506040830151611e43606084018261139a565b5060608301516080830152608083015160a083015260a083015160c083015260c08301516101008060e0850152611e7e61012085018361140d565b915060e0850151601f1985840301828601526114878382611dcb565b634e487b7160e01b600052603260045260246000fd5b600181811c90821680611ec457607f821691505b602082108103611ee457634e487b7160e01b600052602260045260246000fd5b50919050565b600081518084526020808501808196508360051b8101915082860160005b85811015611f4f578284038952815180516001600160a01b031685528501516040868601819052611f3b8187018361140d565b9a87019a9550505090840190600101611f08565b5091979650505050505050565b60048110611f7a57634e487b7160e01b600052602160045260246000fd5b9052565b600081518084526020808501808196508360051b8101915082860160005b85811015611f4f578284038952815160a08151865286820151611fc188880182611f5c565b506040828101519087015260608083015190870152608091820151918601819052611fee8187018361140d565b9a87019a9550505090840190600101611f9c565b600081518084526020808501808196508360051b810191508286016000805b86811015612088578385038a528251805186528601516040878701819052815190870181905290870190606087019084905b808210156120735783518352928901929189019160019190910190612053565b50509a87019a95505091850191600101612021565b509298975050505050505050565b600081518084526020808501808196508360051b8101915082860160005b85811015611f4f5782840389526120cc84835161140d565b988501989350908401906001016120b4565b80516001600160a01b0316825260208082015181840152604080830151908401526060808301519084015260808083015160e091850182905280519185018290526000929081019183906101008701905b8083101561214f578451825293830193600192909201919083019061212f565b5060a0860151935086810360a08801526121698185612002565b935050505060c083015184820360c08601526121858282612096565b95945050505050565b60006020808301818452808551808352604092508286019150828160051b87010184880160005b8381101561226357888303603f19018552815180516001600160a01b0390811685528882015116888501528681015160e0906121f38987018261139a565b506060808301518187015250608080830151828288015261221683880182611eea565b9250505060a080830151868303828801526122318382611f7e565b9250505060c0808301519250858203818701525061224f81836120de565b9689019694505050908601906001016121b5565b509098975050505050505050565b634e487b7160e01b600052601160045260246000fd5b60006001820161229957612299612271565b5060010190565b6000808335601e198436030181126122b757600080fd5b83016020810192503590506001600160401b038111156122d657600080fd5b8060051b3603821315611c8257600080fd5b6000808335601e198436030181126122ff57600080fd5b83016020810192503590506001600160401b0381111561231e57600080fd5b803603821315611c8257600080fd5b81835281816020850137506000828201602090810191909152601f909101601f19169091010190565b60008235603e1983360301811261236c57600080fd5b90910192915050565b81835260006020808501808196508560051b810191508460005b87811015611f4f5782840389526123a68288612356565b604081356123b381611566565b6001600160a01b031686526123ca828801836122e8565b925081888801526123de828801848361232d565b9b88019b96505050918501915060010161238f565b81835260006020808501808196508560051b81019150846000805b88811015612088578385038a528235609e1989360301811261242e578283fd5b88018035865260a06124418883016116e6565b61244d89890182611f5c565b5060408281013590880152606080830135908801526080612470818401846122e8565b935082828a0152612484838a01858361232d565b9d8a019d9850505093870193505060010161240e565b6000823560de1983360301811261236c57600080fd5b81835260006001600160fb1b038311156124c957600080fd5b8260051b8083602087013760009401602001938452509192915050565b81835260006020808501808196508560051b810191508460005b87811015611f4f57828403895261251782886122e8565b61252286828461232d565b9a87019a9550505090840190600101612500565b6000813561254381611566565b6001600160a01b0316835260208281013581850152604080840135818601526060808501359086015261257960808501856122a0565b60e0608088015261258e60e0880182846124b0565b91505061259e60a08601866122a0565b87830360a0890152808352848301600582901b840186018360005b8481101561260c57868303601f190184526125d48287612356565b803584526125e48a8201826122a0565b9150898b8601526125f88a860183836124b0565b958b019594505050908801906001016125b9565b505061261b60c08a018a6122a0565b9750955089810360c08b01526126328188886124e6565b9a9950505050505050505050565b6000813561264d81611566565b6001600160a01b03908116845260208301359061266982611566565b908116602085015260408301359061268082611566565b1660408401526060828101359084015261269d60808301836122a0565b60e060808601526126b260e086018284612375565b9150506126c260a08401846122a0565b85830360a08701526126d58382846123f3565b925050506126e660c084018461249a565b84820360c08601526121858282612536565b60208082528181018390526000906040600585901b8401810190840186845b87811015611f4f57868403603f1901835261273b84612736848c61249a565b612640565b93509184019190840190600101612717565b60008282101561275f5761275f612271565b500390565b60006020828403121561277657600080fd5b8151801515811461160557600080fd5b6000611605368484611ab5565b6000823560de198336030181126127a957600080fd5b9190910192915050565b60018060a01b03841681528260208201526060604082015260006121856060830184612640565b6000602082840312156127ec57600080fd5b815161160581611566565b602081526000611605602083018461264056feaf58c2d61bce90c15ecad6e5142ecbbb0b542b557388df7578e0162b098999a3a264697066735822122074672679519d4b28438d7b94b9d0bf1fb776dd4b6d8f23dbea6c50bd302ec18864736f6c634300080e0033",
  "linkReferences": {},
  "deployedLinkReferences": {}
}