{
  "_format": "hh-sol-artifact-1",
  "contractName": "WriterSolverV1",
  "sourceName": "contracts/solvers/WriterSolverV1.sol",
  "abi": [
    {
      "anonymous": false,
      "inputs": [
        {
          "indexed": false,
          "internalType": "bytes32",
          "name": "conditionId",
          "type": "bytes32"
        }
      ],
      "name": "ChangedStatus",
      "type": "event"
    },
    {
      "anonymous": false,
      "inputs": [
        {
          "indexed": false,
          "internalType": "bytes32",
          "name": "conditionId",
          "type": "bytes32"
        }
      ],
      "name": "DeliveredNullArbitration",
      "type": "event"
    },
    {
      "anonymous": false,
      "inputs": [
        {
          "indexed": false,
          "internalType": "address",
          "name": "child",
          "type": "address"
        }
      ],
      "name": "DeployedChild",
      "type": "event"
    },
    {
      "anonymous": false,
      "inputs": [],
      "name": "IngestedData",
      "type": "event"
    },
    {
      "anonymous": false,
      "inputs": [
        {
          "indexed": false,
          "internalType": "uint8",
          "name": "version",
          "type": "uint8"
        }
      ],
      "name": "Initialized",
      "type": "event"
    },
    {
      "anonymous": false,
      "inputs": [
        {
          "indexed": false,
          "internalType": "address",
          "name": "module",
          "type": "address"
        },
        {
          "indexed": false,
          "internalType": "address",
          "name": "solver",
          "type": "address"
        }
      ],
      "name": "LoadedModule",
      "type": "event"
    },
    {
      "anonymous": false,
      "inputs": [
        {
          "indexed": false,
          "internalType": "address",
          "name": "solver",
          "type": "address"
        },
        {
          "indexed": false,
          "internalType": "uint256",
          "name": "solveIndex",
          "type": "uint256"
        }
      ],
      "name": "PreparedSolve",
      "type": "event"
    },
    {
      "anonymous": false,
      "inputs": [
        {
          "indexed": false,
          "internalType": "string",
          "name": "cid",
          "type": "string"
        },
        {
          "indexed": false,
          "internalType": "address",
          "name": "submitter",
          "type": "address"
        },
        {
          "indexed": false,
          "internalType": "bytes32",
          "name": "conditionId",
          "type": "bytes32"
        }
      ],
      "name": "SubmittedWork",
      "type": "event"
    },
    {
      "inputs": [],
      "name": "ARBITRATOR_ROLE",
      "outputs": [
        {
          "internalType": "bytes32",
          "name": "",
          "type": "bytes32"
        }
      ],
      "stateMutability": "view",
      "type": "function"
    },
    {
      "inputs": [],
      "name": "KEEPER_ROLE",
      "outputs": [
        {
          "internalType": "bytes32",
          "name": "",
          "type": "bytes32"
        }
      ],
      "stateMutability": "view",
      "type": "function"
    },
    {
      "inputs": [],
      "name": "SOLVER_ROLE",
      "outputs": [
        {
          "internalType": "bytes32",
          "name": "",
          "type": "bytes32"
        }
      ],
      "stateMutability": "view",
      "type": "function"
    },
    {
      "inputs": [
        {
          "internalType": "bytes32",
          "name": "_slot",
          "type": "bytes32"
        },
        {
          "internalType": "bytes",
          "name": "_data",
          "type": "bytes"
        }
      ],
      "name": "addData",
      "outputs": [],
      "stateMutability": "nonpayable",
      "type": "function"
    },
    {
      "inputs": [
        {
          "internalType": "uint256",
          "name": "_index",
          "type": "uint256"
        }
      ],
      "name": "addressFromChainIndex",
      "outputs": [
        {
          "internalType": "address",
          "name": "_address",
          "type": "address"
        }
      ],
      "stateMutability": "view",
      "type": "function"
    },
    {
      "inputs": [
        {
          "internalType": "uint256",
          "name": "_index",
          "type": "uint256"
        }
      ],
      "name": "allocationsValid",
      "outputs": [
        {
          "internalType": "bool",
          "name": "",
          "type": "bool"
        }
      ],
      "stateMutability": "view",
      "type": "function"
    },
    {
      "inputs": [
        {
          "internalType": "uint256",
          "name": "_index",
          "type": "uint256"
        },
        {
          "internalType": "uint256[]",
          "name": "payouts",
          "type": "uint256[]"
        }
      ],
      "name": "arbitrate",
      "outputs": [],
      "stateMutability": "nonpayable",
      "type": "function"
    },
    {
      "inputs": [
        {
          "internalType": "uint256",
          "name": "_index",
          "type": "uint256"
        }
      ],
      "name": "arbitrateNull",
      "outputs": [],
      "stateMutability": "nonpayable",
      "type": "function"
    },
    {
      "inputs": [
        {
          "internalType": "uint256",
          "name": "_index",
          "type": "uint256"
        }
      ],
      "name": "arbitrationRequested",
      "outputs": [],
      "stateMutability": "nonpayable",
      "type": "function"
    },
    {
      "inputs": [],
      "name": "arbitrator",
      "outputs": [
        {
          "internalType": "address",
          "name": "",
          "type": "address"
        }
      ],
      "stateMutability": "view",
      "type": "function"
    },
    {
      "inputs": [],
      "name": "chainChild",
      "outputs": [
        {
          "internalType": "address",
          "name": "",
          "type": "address"
        }
      ],
      "stateMutability": "view",
      "type": "function"
    },
    {
      "inputs": [],
      "name": "chainIndex",
      "outputs": [
        {
          "internalType": "uint256",
          "name": "",
          "type": "uint256"
        }
      ],
      "stateMutability": "view",
      "type": "function"
    },
    {
      "inputs": [],
      "name": "chainParent",
      "outputs": [
        {
          "internalType": "address",
          "name": "",
          "type": "address"
        }
      ],
      "stateMutability": "view",
      "type": "function"
    },
    {
      "inputs": [],
      "name": "collateralBalance",
      "outputs": [
        {
          "internalType": "uint256",
          "name": "balance",
          "type": "uint256"
        }
      ],
      "stateMutability": "view",
      "type": "function"
    },
    {
      "inputs": [
        {
          "internalType": "uint256",
          "name": "index",
          "type": "uint256"
        }
      ],
      "name": "condition",
      "outputs": [
        {
          "components": [
            {
              "internalType": "contract IERC20",
              "name": "collateralToken",
              "type": "address"
            },
            {
              "internalType": "bytes32",
              "name": "questionId",
              "type": "bytes32"
            },
            {
              "internalType": "bytes32",
              "name": "parentCollectionId",
              "type": "bytes32"
            },
            {
              "internalType": "bytes32",
              "name": "conditionId",
              "type": "bytes32"
            },
            {
              "internalType": "uint256[]",
              "name": "payouts",
              "type": "uint256[]"
            },
            {
              "internalType": "enum SolverLib.Status",
              "name": "status",
              "type": "uint8"
            }
          ],
          "internalType": "struct SolverLib.Condition",
          "name": "",
          "type": "tuple"
        }
      ],
      "stateMutability": "view",
      "type": "function"
    },
    {
      "inputs": [
        {
          "internalType": "uint256",
          "name": "",
          "type": "uint256"
        }
      ],
      "name": "conditions",
      "outputs": [
        {
          "internalType": "contract IERC20",
          "name": "collateralToken",
          "type": "address"
        },
        {
          "internalType": "bytes32",
          "name": "questionId",
          "type": "bytes32"
        },
        {
          "internalType": "bytes32",
          "name": "parentCollectionId",
          "type": "bytes32"
        },
        {
          "internalType": "bytes32",
          "name": "conditionId",
          "type": "bytes32"
        },
        {
          "internalType": "enum SolverLib.Status",
          "name": "status",
          "type": "uint8"
        }
      ],
      "stateMutability": "view",
      "type": "function"
    },
    {
      "inputs": [],
      "name": "config",
      "outputs": [
        {
          "internalType": "contract Solver",
          "name": "implementation",
          "type": "address"
        },
        {
          "internalType": "address",
          "name": "keeper",
          "type": "address"
        },
        {
          "internalType": "address",
          "name": "arbitrator",
          "type": "address"
        },
        {
          "internalType": "uint256",
          "name": "timelockSeconds",
          "type": "uint256"
        },
        {
          "components": [
            {
              "internalType": "contract IERC20",
              "name": "collateralToken",
              "type": "address"
            },
            {
              "internalType": "uint256",
              "name": "outcomeSlots",
              "type": "uint256"
            },
            {
              "internalType": "uint256",
              "name": "parentCollectionIndexSet",
              "type": "uint256"
            },
            {
              "internalType": "bytes32",
              "name": "amountSlot",
              "type": "bytes32"
            },
            {
              "internalType": "uint256[]",
              "name": "partition",
              "type": "uint256[]"
            },
            {
              "components": [
                {
                  "internalType": "bytes32",
                  "name": "recipientAddressSlot",
                  "type": "bytes32"
                },
                {
                  "internalType": "bytes32[]",
                  "name": "recipientAmountSlots",
                  "type": "bytes32[]"
                }
              ],
              "internalType": "struct SolverLib.Allocation[]",
              "name": "allocations",
              "type": "tuple[]"
            },
            {
              "components": [
                {
                  "internalType": "bytes32",
                  "name": "digest",
                  "type": "bytes32"
                },
                {
                  "internalType": "uint8",
                  "name": "hashFunction",
                  "type": "uint8"
                },
                {
                  "internalType": "uint8",
                  "name": "size",
                  "type": "uint8"
                }
              ],
              "internalType": "struct SolverLib.Multihash[]",
              "name": "outcomeURIs",
              "type": "tuple[]"
            }
          ],
          "internalType": "struct SolverLib.ConditionBase",
          "name": "conditionBase",
          "type": "tuple"
        }
      ],
      "stateMutability": "view",
      "type": "function"
    },
    {
      "inputs": [
        {
          "internalType": "uint256",
          "name": "_index",
          "type": "uint256"
        }
      ],
      "name": "confirmPayouts",
      "outputs": [],
      "stateMutability": "nonpayable",
      "type": "function"
    },
    {
      "inputs": [
        {
          "components": [
            {
              "internalType": "contract Solver",
              "name": "implementation",
              "type": "address"
            },
            {
              "internalType": "address",
              "name": "keeper",
              "type": "address"
            },
            {
              "internalType": "address",
              "name": "arbitrator",
              "type": "address"
            },
            {
              "internalType": "uint256",
              "name": "timelockSeconds",
              "type": "uint256"
            },
            {
              "components": [
                {
                  "internalType": "contract IModule",
                  "name": "module",
                  "type": "address"
                },
                {
                  "internalType": "bytes",
                  "name": "data",
                  "type": "bytes"
                }
              ],
              "internalType": "struct SolverLib.ModuleLoader[]",
              "name": "moduleLoaders",
              "type": "tuple[]"
            },
            {
              "components": [
                {
                  "internalType": "uint256",
                  "name": "executions",
                  "type": "uint256"
                },
                {
                  "internalType": "enum SolverLib.IngestType",
                  "name": "ingestType",
                  "type": "uint8"
                },
                {
                  "internalType": "bytes32",
                  "name": "slot",
                  "type": "bytes32"
                },
                {
                  "internalType": "uint256",
                  "name": "solverIndex",
                  "type": "uint256"
                },
                {
                  "internalType": "bytes",
                  "name": "data",
                  "type": "bytes"
                }
              ],
              "internalType": "struct SolverLib.Ingest[]",
              "name": "ingests",
              "type": "tuple[]"
            },
            {
              "components": [
                {
                  "internalType": "contract IERC20",
                  "name": "collateralToken",
                  "type": "address"
                },
                {
                  "internalType": "uint256",
                  "name": "outcomeSlots",
                  "type": "uint256"
                },
                {
                  "internalType": "uint256",
                  "name": "parentCollectionIndexSet",
                  "type": "uint256"
                },
                {
                  "internalType": "bytes32",
                  "name": "amountSlot",
                  "type": "bytes32"
                },
                {
                  "internalType": "uint256[]",
                  "name": "partition",
                  "type": "uint256[]"
                },
                {
                  "components": [
                    {
                      "internalType": "bytes32",
                      "name": "recipientAddressSlot",
                      "type": "bytes32"
                    },
                    {
                      "internalType": "bytes32[]",
                      "name": "recipientAmountSlots",
                      "type": "bytes32[]"
                    }
                  ],
                  "internalType": "struct SolverLib.Allocation[]",
                  "name": "allocations",
                  "type": "tuple[]"
                },
                {
                  "components": [
                    {
                      "internalType": "bytes32",
                      "name": "digest",
                      "type": "bytes32"
                    },
                    {
                      "internalType": "uint8",
                      "name": "hashFunction",
                      "type": "uint8"
                    },
                    {
                      "internalType": "uint8",
                      "name": "size",
                      "type": "uint8"
                    }
                  ],
                  "internalType": "struct SolverLib.Multihash[]",
                  "name": "outcomeURIs",
                  "type": "tuple[]"
                }
              ],
              "internalType": "struct SolverLib.ConditionBase",
              "name": "conditionBase",
              "type": "tuple"
            }
          ],
          "internalType": "struct SolverLib.Config",
          "name": "_config",
          "type": "tuple"
        }
      ],
      "name": "deployChild",
      "outputs": [
        {
          "internalType": "address",
          "name": "",
          "type": "address"
        }
      ],
      "stateMutability": "nonpayable",
      "type": "function"
    },
    {
      "inputs": [
        {
          "internalType": "uint256",
          "name": "_index",
          "type": "uint256"
        }
      ],
      "name": "executeSolve",
      "outputs": [],
      "stateMutability": "nonpayable",
      "type": "function"
    },
    {
      "inputs": [
        {
          "internalType": "bytes32",
          "name": "_slot",
          "type": "bytes32"
        }
      ],
      "name": "getAllData",
      "outputs": [
        {
          "internalType": "bytes[]",
          "name": "data",
          "type": "bytes[]"
        }
      ],
      "stateMutability": "view",
      "type": "function"
    },
    {
      "inputs": [
        {
          "internalType": "bytes32",
          "name": "_slot",
          "type": "bytes32"
        }
      ],
      "name": "getCallbackOutput",
      "outputs": [
        {
          "internalType": "bytes",
          "name": "data",
          "type": "bytes"
        }
      ],
      "stateMutability": "view",
      "type": "function"
    },
    {
      "inputs": [],
      "name": "getConditions",
      "outputs": [
        {
          "components": [
            {
              "internalType": "contract IERC20",
              "name": "collateralToken",
              "type": "address"
            },
            {
              "internalType": "bytes32",
              "name": "questionId",
              "type": "bytes32"
            },
            {
              "internalType": "bytes32",
              "name": "parentCollectionId",
              "type": "bytes32"
            },
            {
              "internalType": "bytes32",
              "name": "conditionId",
              "type": "bytes32"
            },
            {
              "internalType": "uint256[]",
              "name": "payouts",
              "type": "uint256[]"
            },
            {
              "internalType": "enum SolverLib.Status",
              "name": "status",
              "type": "uint8"
            }
          ],
          "internalType": "struct SolverLib.Condition[]",
          "name": "",
          "type": "tuple[]"
        }
      ],
      "stateMutability": "view",
      "type": "function"
    },
    {
      "inputs": [],
      "name": "getConfig",
      "outputs": [
        {
          "components": [
            {
              "internalType": "contract Solver",
              "name": "implementation",
              "type": "address"
            },
            {
              "internalType": "address",
              "name": "keeper",
              "type": "address"
            },
            {
              "internalType": "address",
              "name": "arbitrator",
              "type": "address"
            },
            {
              "internalType": "uint256",
              "name": "timelockSeconds",
              "type": "uint256"
            },
            {
              "components": [
                {
                  "internalType": "contract IModule",
                  "name": "module",
                  "type": "address"
                },
                {
                  "internalType": "bytes",
                  "name": "data",
                  "type": "bytes"
                }
              ],
              "internalType": "struct SolverLib.ModuleLoader[]",
              "name": "moduleLoaders",
              "type": "tuple[]"
            },
            {
              "components": [
                {
                  "internalType": "uint256",
                  "name": "executions",
                  "type": "uint256"
                },
                {
                  "internalType": "enum SolverLib.IngestType",
                  "name": "ingestType",
                  "type": "uint8"
                },
                {
                  "internalType": "bytes32",
                  "name": "slot",
                  "type": "bytes32"
                },
                {
                  "internalType": "uint256",
                  "name": "solverIndex",
                  "type": "uint256"
                },
                {
                  "internalType": "bytes",
                  "name": "data",
                  "type": "bytes"
                }
              ],
              "internalType": "struct SolverLib.Ingest[]",
              "name": "ingests",
              "type": "tuple[]"
            },
            {
              "components": [
                {
                  "internalType": "contract IERC20",
                  "name": "collateralToken",
                  "type": "address"
                },
                {
                  "internalType": "uint256",
                  "name": "outcomeSlots",
                  "type": "uint256"
                },
                {
                  "internalType": "uint256",
                  "name": "parentCollectionIndexSet",
                  "type": "uint256"
                },
                {
                  "internalType": "bytes32",
                  "name": "amountSlot",
                  "type": "bytes32"
                },
                {
                  "internalType": "uint256[]",
                  "name": "partition",
                  "type": "uint256[]"
                },
                {
                  "components": [
                    {
                      "internalType": "bytes32",
                      "name": "recipientAddressSlot",
                      "type": "bytes32"
                    },
                    {
                      "internalType": "bytes32[]",
                      "name": "recipientAmountSlots",
                      "type": "bytes32[]"
                    }
                  ],
                  "internalType": "struct SolverLib.Allocation[]",
                  "name": "allocations",
                  "type": "tuple[]"
                },
                {
                  "components": [
                    {
                      "internalType": "bytes32",
                      "name": "digest",
                      "type": "bytes32"
                    },
                    {
                      "internalType": "uint8",
                      "name": "hashFunction",
                      "type": "uint8"
                    },
                    {
                      "internalType": "uint8",
                      "name": "size",
                      "type": "uint8"
                    }
                  ],
                  "internalType": "struct SolverLib.Multihash[]",
                  "name": "outcomeURIs",
                  "type": "tuple[]"
                }
              ],
              "internalType": "struct SolverLib.ConditionBase",
              "name": "conditionBase",
              "type": "tuple"
            }
          ],
          "internalType": "struct SolverLib.Config",
          "name": "",
          "type": "tuple"
        }
      ],
      "stateMutability": "view",
      "type": "function"
    },
    {
      "inputs": [
        {
          "internalType": "bytes32",
          "name": "_slot",
          "type": "bytes32"
        }
      ],
      "name": "getData",
      "outputs": [
        {
          "internalType": "bytes",
          "name": "data",
          "type": "bytes"
        }
      ],
      "stateMutability": "view",
      "type": "function"
    },
    {
      "inputs": [
        {
          "internalType": "bytes32",
          "name": "key",
          "type": "bytes32"
        }
      ],
      "name": "getState",
      "outputs": [
        {
          "internalType": "bytes",
          "name": "data",
          "type": "bytes"
        }
      ],
      "stateMutability": "view",
      "type": "function"
    },
    {
      "inputs": [
        {
          "internalType": "uint256",
          "name": "conditionIndex",
          "type": "uint256"
        }
      ],
      "name": "getStatus",
      "outputs": [
        {
          "internalType": "enum SolverLib.Status",
          "name": "status",
          "type": "uint8"
        }
      ],
      "stateMutability": "view",
      "type": "function"
    },
    {
      "inputs": [
        {
          "internalType": "bytes32",
          "name": "_slot",
          "type": "bytes32"
        }
      ],
      "name": "handleCallback",
      "outputs": [],
      "stateMutability": "nonpayable",
      "type": "function"
    },
    {
      "inputs": [
        {
          "internalType": "bytes32",
          "name": "role",
          "type": "bytes32"
        },
        {
          "internalType": "address",
          "name": "account",
          "type": "address"
        }
      ],
      "name": "hasRole",
      "outputs": [
        {
          "internalType": "bool",
          "name": "",
          "type": "bool"
        }
      ],
      "stateMutability": "view",
      "type": "function"
    },
    {
      "inputs": [],
      "name": "ingestsValid",
      "outputs": [
        {
          "internalType": "bool",
          "name": "",
          "type": "bool"
        }
      ],
      "stateMutability": "view",
      "type": "function"
    },
    {
      "inputs": [
        {
          "internalType": "address",
          "name": "_deployer",
          "type": "address"
        },
        {
          "internalType": "address",
          "name": "_ctfAddress",
          "type": "address"
        },
        {
          "internalType": "address",
          "name": "_chainParent",
          "type": "address"
        },
        {
          "internalType": "uint256",
          "name": "_chainIndex",
          "type": "uint256"
        },
        {
          "components": [
            {
              "internalType": "contract Solver",
              "name": "implementation",
              "type": "address"
            },
            {
              "internalType": "address",
              "name": "keeper",
              "type": "address"
            },
            {
              "internalType": "address",
              "name": "arbitrator",
              "type": "address"
            },
            {
              "internalType": "uint256",
              "name": "timelockSeconds",
              "type": "uint256"
            },
            {
              "components": [
                {
                  "internalType": "contract IModule",
                  "name": "module",
                  "type": "address"
                },
                {
                  "internalType": "bytes",
                  "name": "data",
                  "type": "bytes"
                }
              ],
              "internalType": "struct SolverLib.ModuleLoader[]",
              "name": "moduleLoaders",
              "type": "tuple[]"
            },
            {
              "components": [
                {
                  "internalType": "uint256",
                  "name": "executions",
                  "type": "uint256"
                },
                {
                  "internalType": "enum SolverLib.IngestType",
                  "name": "ingestType",
                  "type": "uint8"
                },
                {
                  "internalType": "bytes32",
                  "name": "slot",
                  "type": "bytes32"
                },
                {
                  "internalType": "uint256",
                  "name": "solverIndex",
                  "type": "uint256"
                },
                {
                  "internalType": "bytes",
                  "name": "data",
                  "type": "bytes"
                }
              ],
              "internalType": "struct SolverLib.Ingest[]",
              "name": "ingests",
              "type": "tuple[]"
            },
            {
              "components": [
                {
                  "internalType": "contract IERC20",
                  "name": "collateralToken",
                  "type": "address"
                },
                {
                  "internalType": "uint256",
                  "name": "outcomeSlots",
                  "type": "uint256"
                },
                {
                  "internalType": "uint256",
                  "name": "parentCollectionIndexSet",
                  "type": "uint256"
                },
                {
                  "internalType": "bytes32",
                  "name": "amountSlot",
                  "type": "bytes32"
                },
                {
                  "internalType": "uint256[]",
                  "name": "partition",
                  "type": "uint256[]"
                },
                {
                  "components": [
                    {
                      "internalType": "bytes32",
                      "name": "recipientAddressSlot",
                      "type": "bytes32"
                    },
                    {
                      "internalType": "bytes32[]",
                      "name": "recipientAmountSlots",
                      "type": "bytes32[]"
                    }
                  ],
                  "internalType": "struct SolverLib.Allocation[]",
                  "name": "allocations",
                  "type": "tuple[]"
                },
                {
                  "components": [
                    {
                      "internalType": "bytes32",
                      "name": "digest",
                      "type": "bytes32"
                    },
                    {
                      "internalType": "uint8",
                      "name": "hashFunction",
                      "type": "uint8"
                    },
                    {
                      "internalType": "uint8",
                      "name": "size",
                      "type": "uint8"
                    }
                  ],
                  "internalType": "struct SolverLib.Multihash[]",
                  "name": "outcomeURIs",
                  "type": "tuple[]"
                }
              ],
              "internalType": "struct SolverLib.ConditionBase",
              "name": "conditionBase",
              "type": "tuple"
            }
          ],
          "internalType": "struct SolverLib.Config",
          "name": "_solverConfig",
          "type": "tuple"
        }
      ],
      "name": "init",
      "outputs": [],
      "stateMutability": "nonpayable",
      "type": "function"
    },
    {
      "inputs": [
        {
          "internalType": "address",
          "name": "account",
          "type": "address"
        },
        {
          "internalType": "uint256",
          "name": "conditionIndex",
          "type": "uint256"
        }
      ],
      "name": "isRecipient",
      "outputs": [
        {
          "internalType": "bool",
          "name": "",
          "type": "bool"
        }
      ],
      "stateMutability": "view",
      "type": "function"
    },
    {
      "inputs": [],
      "name": "keeper",
      "outputs": [
        {
          "internalType": "address",
          "name": "",
          "type": "address"
        }
      ],
      "stateMutability": "view",
      "type": "function"
    },
    {
      "inputs": [
        {
          "internalType": "bytes",
          "name": "data",
          "type": "bytes"
        }
      ],
      "name": "load",
      "outputs": [],
      "stateMutability": "nonpayable",
      "type": "function"
    },
    {
      "inputs": [
        {
          "internalType": "address",
          "name": "operator",
          "type": "address"
        },
        {
          "internalType": "address",
          "name": "from",
          "type": "address"
        },
        {
          "internalType": "uint256[]",
          "name": "ids",
          "type": "uint256[]"
        },
        {
          "internalType": "uint256[]",
          "name": "values",
          "type": "uint256[]"
        },
        {
          "internalType": "bytes",
          "name": "data",
          "type": "bytes"
        }
      ],
      "name": "onERC1155BatchReceived",
      "outputs": [
        {
          "internalType": "bytes4",
          "name": "",
          "type": "bytes4"
        }
      ],
      "stateMutability": "nonpayable",
      "type": "function"
    },
    {
      "inputs": [
        {
          "internalType": "address",
          "name": "operator",
          "type": "address"
        },
        {
          "internalType": "address",
          "name": "from",
          "type": "address"
        },
        {
          "internalType": "uint256",
          "name": "id",
          "type": "uint256"
        },
        {
          "internalType": "uint256",
          "name": "value",
          "type": "uint256"
        },
        {
          "internalType": "bytes",
          "name": "data",
          "type": "bytes"
        }
      ],
      "name": "onERC1155Received",
      "outputs": [
        {
          "internalType": "bytes4",
          "name": "",
          "type": "bytes4"
        }
      ],
      "stateMutability": "nonpayable",
      "type": "function"
    },
    {
      "inputs": [
        {
          "internalType": "uint256",
          "name": "_index",
          "type": "uint256"
        }
      ],
      "name": "prepareSolve",
      "outputs": [],
      "stateMutability": "nonpayable",
      "type": "function"
    },
    {
      "inputs": [
        {
          "internalType": "uint256",
          "name": "_index",
          "type": "uint256"
        },
        {
          "internalType": "uint256[]",
          "name": "_payouts",
          "type": "uint256[]"
        }
      ],
      "name": "proposePayouts",
      "outputs": [],
      "stateMutability": "nonpayable",
      "type": "function"
    },
    {
      "inputs": [
        {
          "internalType": "contract IERC20",
          "name": "_collateralToken",
          "type": "address"
        },
        {
          "internalType": "bytes32",
          "name": "_parentCollectionId",
          "type": "bytes32"
        },
        {
          "internalType": "bytes32",
          "name": "_conditionId",
          "type": "bytes32"
        },
        {
          "internalType": "uint256[]",
          "name": "_indexSets",
          "type": "uint256[]"
        }
      ],
      "name": "redeemPosition",
      "outputs": [],
      "stateMutability": "nonpayable",
      "type": "function"
    },
    {
      "inputs": [
        {
          "internalType": "bytes32",
          "name": "_slot",
          "type": "bytes32"
        },
        {
          "internalType": "uint256",
          "name": "_chainIndex",
          "type": "uint256"
        }
      ],
      "name": "registerOutgoingCallback",
      "outputs": [],
      "stateMutability": "nonpayable",
      "type": "function"
    },
    {
      "inputs": [],
      "name": "roles",
      "outputs": [
        {
          "internalType": "bytes32[]",
          "name": "requestedRoles",
          "type": "bytes32[]"
        }
      ],
      "stateMutability": "pure",
      "type": "function"
    },
    {
      "inputs": [
        {
          "internalType": "bytes32",
          "name": "key",
          "type": "bytes32"
        },
        {
          "internalType": "bytes",
          "name": "data",
          "type": "bytes"
        }
      ],
      "name": "setState",
      "outputs": [],
      "stateMutability": "nonpayable",
      "type": "function"
    },
    {
      "inputs": [
        {
          "internalType": "bytes32",
          "name": "_trackingId",
          "type": "bytes32"
        }
      ],
      "name": "setTrackingId",
      "outputs": [],
      "stateMutability": "nonpayable",
      "type": "function"
    },
    {
      "inputs": [
        {
          "internalType": "string",
          "name": "cid",
          "type": "string"
        },
        {
          "internalType": "bytes32",
          "name": "conditionId",
          "type": "bytes32"
        }
      ],
      "name": "submitWork",
      "outputs": [],
      "stateMutability": "nonpayable",
      "type": "function"
    },
    {
      "inputs": [
        {
          "internalType": "bytes4",
          "name": "interfaceId",
          "type": "bytes4"
        }
      ],
      "name": "supportsInterface",
      "outputs": [
        {
          "internalType": "bool",
          "name": "",
          "type": "bool"
        }
      ],
      "stateMutability": "view",
      "type": "function"
    },
    {
      "inputs": [
        {
          "internalType": "uint256",
          "name": "",
          "type": "uint256"
        }
      ],
      "name": "timelocks",
      "outputs": [
        {
          "internalType": "uint256",
          "name": "",
          "type": "uint256"
        }
      ],
      "stateMutability": "view",
      "type": "function"
    },
    {
      "inputs": [],
      "name": "trackingId",
      "outputs": [
        {
          "internalType": "bytes32",
          "name": "",
          "type": "bytes32"
        }
      ],
      "stateMutability": "view",
      "type": "function"
    },
    {
      "inputs": [
        {
          "internalType": "uint256",
          "name": "_index",
          "type": "uint256"
        },
        {
          "internalType": "uint256",
          "name": "_date",
          "type": "uint256"
        }
      ],
      "name": "updateTimelock",
      "outputs": [],
      "stateMutability": "nonpayable",
      "type": "function"
    },
    {
      "inputs": [],
      "name": "writer",
      "outputs": [
        {
          "internalType": "address",
          "name": "",
          "type": "address"
        }
      ],
      "stateMutability": "view",
      "type": "function"
    }
  ],
  "bytecode": "0x60806040523480156200001157600080fd5b506200001c62000022565b6200013b565b6200002e60ff62000031565b50565b60008054610100900460ff16156200009a578160ff1660011480156200006a57506200006830620000de60201b62002e2e1760201c565b155b620000925760405162461bcd60e51b81526004016200008990620000ed565b60405180910390fd5b506000919050565b60005460ff808416911610620000c45760405162461bcd60e51b81526004016200008990620000ed565b506000805460ff191660ff92909216919091179055600190565b6001600160a01b03163b151590565b6020808252602e908201527f496e697469616c697a61626c653a20636f6e747261637420697320616c72656160408201526d191e481a5b9a5d1a585b1a5e995960921b606082015260800190565b615def806200014b6000396000f3fe608060405234801561001057600080fd5b506004361061023b5760003560e01c806301ffc9a71461024057806309648a9d146102685780630d06101a146102885780630d7e149f1461029d5780630d8d3975146102be5780630ebe1bbd146102d157806318782559146102e457806326c50007146102f7578063364bc15a1461031b5780633837b05e14610330578063392f5f64146103505780633cef64cc1461035f5780633f4fb5aa1461037257806344c3b60714610385578063453a2abc1461039857806348cbb2fc146103a05780634a77234e146103a95780634dab5e69146103bc5780634e46f223146103cf578063506da0b8146103e257806354f6127f146103f557806355dd978b146104085780635c48a3421461041b5780635c622a0e146104305780636cc6cde11461045057806379502c55146104615780637c1236271461047a57806380b204b71461048f57806380c2dde2146104a257806381296f6f146104b55780638602ce1b146104c857806387dfee57146104db57806391d14854146104ee57806399992506146105015780639cea0787146105095780639f707c6c1461051e578063aced166114610531578063b992db0f14610542578063bc197c8114610555578063c05bc73114610590578063c08d6f01146105a3578063c3f909d4146105c3578063c98c05b7146105d8578063de3a23c5146105e0578063df33cc51146105f3578063ea8221a914610606578063ed25d1781461060f578063f23a6e6114610622578063f24fc90314610635575b600080fd5b61025361024e3660046139fe565b610655565b60405190151581526020015b60405180910390f35b61027b610276366004613a2f565b610675565b60405161025f9190613aa4565b61029b610296366004613a2f565b610717565b005b6102b06102ab366004613a2f565b610779565b60405190815260200161025f565b61029b6102cc366004613a2f565b61079a565b61029b6102df366004613aef565b6108ec565b61029b6102f2366004613bb8565b610b0c565b61030a610305366004613a2f565b610bf3565b60405161025f959493929190613c58565b6102b0600080516020615d7a83398151915281565b61034361033e366004613a2f565b610c41565b60405161025f9190613c8a565b606060405161025f9190613cd9565b61029b61036d366004613d2d565b610d52565b61027b610380366004613a2f565b610da0565b610253610393366004613a2f565b610e37565b610343610ebc565b6102b060155481565b61029b6103b7366004613a2f565b610ee1565b61029b6103ca366004613a2f565b611231565b61029b6103dd366004613a2f565b6113b7565b6102536103f0366004613d6e565b611472565b61027b610403366004613a2f565b6115b7565b601254610343906001600160a01b031681565b6102b0600080516020615d9a83398151915281565b61044361043e366004613a2f565b6115d7565b60405161025f9190613d9a565b6005546001600160a01b0316610343565b610469611609565b60405161025f959493929190613eca565b6104826117f6565b60405161025f9190613f71565b61029b61049d366004613fd3565b611909565b601154610343906001600160a01b031681565b61029b6104c3366004614109565b611a70565b61029b6104d6366004614109565b611ae1565b61029b6104e9366004614172565b611bcd565b6102536104fc36600461420e565b611d51565b610253611d7c565b6102b0600080516020615d5a83398151915281565b61029b61052c36600461423e565b611dfc565b6004546001600160a01b0316610343565b61029b610550366004613a2f565b611e4b565b610577610563366004614260565b63bc197c8160e01b98975050505050505050565b6040516001600160e01b0319909116815260200161025f565b61029b61059e36600461431e565b61205f565b6105b66105b1366004613a2f565b612179565b60405161025f9190614369565b6105cb61225e565b60405161025f91906144c4565b6102b06126ca565b61029b6105ee366004613a2f565b61273c565b61029b61060136600461423e565b612a66565b6102b060135481565b61034361061d366004614563565b612bad565b61057761063036600461459f565b612cfe565b610648610643366004613a2f565b612d11565b60405161025f919061461a565b600061066082612e3d565b8061066f575061066f82612e5e565b92915050565b6000818152601c602052604090208054606091906106929061462d565b80601f01602080910402602001604051908101604052809291908181526020018280546106be9061462d565b801561070b5780601f106106e05761010080835404028352916020019161070b565b820191906000526020600020905b8154815290600101906020018083116106ee57829003601f168201915b50505050509050919050565b6015541561075d5760405162461bcd60e51b815260206004820152600e60248201526d151c9858dada5b99d259081cd95d60921b60448201526064015b60405180910390fd5b6002546001600160a01b0316331461077457600080fd5b601555565b6014818154811061078957600080fd5b600091825260209091200154905081565b601481815481106107ad576107ad614661565b906000526020600020015442116107d65760405162461bcd60e51b815260040161075490614677565b6002601082815481106107eb576107eb614661565b60009182526020909120600560069092020181015460ff169081111561081357610813613c2e565b1461084f5760405162461bcd60e51b815260206004820152600c60248201526b139bdd081c1c9bdc1bdcd95960a21b6044820152606401610754565b6001546010805473__$3ec311f63f1cd166364ee887ad77eb9bd8$__926385c92867926001600160a01b03909116918590811061088e5761088e614661565b90600052602060002090600602016040518363ffffffff1660e01b81526004016108b992919061469b565b60006040518083038186803b1580156108d157600080fd5b505af41580156108e5573d6000803e3d6000fd5b5050505050565b60006108f86001612e93565b90508015610910576000805461ff0019166101001790555b600061092260408401602085016146b4565b6001600160a01b0316036109695760405162461bcd60e51b815260206004820152600e60248201526d12d9595c195c881a5b9d985b1a5960921b6044820152606401610754565b600280546001600160a01b03199081166001600160a01b03898116919091179092556000805462010000600160b01b0319163362010000021790556001805482168884161790556011805490911691861691909117905560138390558160036109d28282614eaa565b90505060005b6109e560a08401846146f1565b9050811015610a495780601b6000610a0060a08701876146f1565b85818110610a1057610a10614661565b9050602002810190610a22919061495b565b60409081013582526020820192909252016000205580610a4181615010565b9150506109d8565b50600454610a7190600080516020615d7a833981519152906001600160a01b03166001612f22565b6005546001600160a01b031615610aa957600554610aa990600080516020615d5a833981519152906001600160a01b03166001612f22565b610abe610ab960808401846146f1565b612f57565b8015610b04576000805461ff0019169055604051600181527f7f26b83ff96e1f2b6a682f133852f6798a09c465da95921460cefb38474024989060200160405180910390a15b505050505050565b610b24600080516020615d7a83398151915233611d51565b80610b425750610b42600080516020615d9a83398151915233611d51565b610b835760405162461bcd60e51b815260206004820152601260248201527127b7363c9025b2b2b832b917a9b7b63b32b960711b6044820152606401610754565b600154604051626dc0df60e21b81526001600160a01b03909116906301b7037c90610bba908890889088908890889060040161505f565b600060405180830381600087803b158015610bd457600080fd5b505af1158015610be8573d6000803e3d6000fd5b505050505050505050565b60108181548110610c0357600080fd5b6000918252602090912060069091020180546001820154600283015460038401546005909401546001600160a01b0390931694509092909160ff1685565b60006013548203610c53575030919050565b601354821015610ce2576011546001600160a01b0316610c7557506000919050565b601154604051631c1bd82f60e11b8152600481018490526001600160a01b0390911690633837b05e90602401602060405180830381865afa158015610cbe573d6000803e3d6000fd5b505050506040513d601f19601f8201168201806040525081019061066f919061508d565b601354821115610d4d576012546001600160a01b0316610d0457506000919050565b601254604051631c1bd82f60e11b8152600481018490526001600160a01b0390911690633837b05e90602401602060405180830381865afa158015610cbe573d6000803e3d6000fd5b919050565b333014610d8d5760405162461bcd60e51b81526020600482015260096024820152684f6e6c79207468697360b81b6044820152606401610754565b610d9981830183613a2f565b601e555050565b6010546000828152601a602052604090205460609114610df65760405162461bcd60e51b815260206004820152601160248201527029b637ba1034b73b30b634b2103b32b91760791b6044820152606401610754565b6000828152601a602052604090208054610e12906001906150aa565b81548110610e2257610e22614661565b9060005260206000200180546106929061462d565b6040516336d39c6160e11b815260048101829052601a60248201526009604482015260009073__$3ec311f63f1cd166364ee887ad77eb9bd8$__90636da738c290606401602060405180830381865af4158015610e98573d6000803e3d6000fd5b505050506040513d601f19601f8201168201806040525081019061066f91906150c1565b6000610ec9601e546115b7565b806020019051810190610edc919061508d565b905090565b60105415610f5757610f01600080516020615d7a83398151915233611d51565b80610f1657506011546001600160a01b031633145b610f575760405162461bcd60e51b815260206004820152601260248201527113db9b1e481ad9595c195c8bdc185c995b9d60721b6044820152606401610754565b6010548114610f985760405162461bcd60e51b815260206004820152600d60248201526c092dcecc2d8d2c840d2dcc8caf609b1b6044820152606401610754565b60175415610fd75760405162461bcd60e51b815260206004820152600c60248201526b6f7574676f696e672063627360a01b6044820152606401610754565b601654156110165760405162461bcd60e51b815260206004820152600c60248201526b696e636f6d696e672063627360a01b6044820152606401610754565b6001546011546010805460405163699e0add60e01b8152919373__$3ec311f63f1cd166364ee887ad77eb9bd8$__9363699e0add93611068936001600160a01b03938416936009931691600401615209565b600060405180830381865af4158015611085573d6000803e3d6000fd5b505050506040513d6000823e601f3d908101601f191682016040526110ad91908101906152ca565b8154600180820184556000938452602093849020835160069093020180546001600160a01b0319166001600160a01b0390931692909217825582840151908201556040820151600282015560608201516003820155608082015180519293919261111d926004850192019061388a565b5060a08201518160050160006101000a81548160ff0219169083600581111561114857611148613c2e565b0217905550506014805460018101825560009182527fce6d7b5282bd9a3661ae061feed1dbda4e52ab073b1f9285be6e155d9c38d4ec0155506111896130c2565b7f152ec8ae15d347b2d2a8f0858caa29bcaaa0906749a1f43e08bfe7998346024030826040516111ba92919061469b565b60405180910390a16012546001600160a01b03161561122e5760125460405163253b91a760e11b8152600481018390526001600160a01b0390911690634a77234e906024015b600060405180830381600087803b15801561121a57600080fd5b505af11580156108e5573d6000803e3d6000fd5b50565b611249600080516020615d5a83398151915233611d51565b6112655760405162461bcd60e51b8152600401610754906153ce565b60026010828154811061127a5761127a614661565b60009182526020909120600560069092020181015460ff16908111156112a2576112a2613c2e565b14806112e857506003601082815481106112be576112be614661565b60009182526020909120600560069092020181015460ff16908111156112e6576112e6613c2e565b145b6113255760405162461bcd60e51b815260206004820152600e60248201526d10d85b9b9bdd081c995c5d595cdd60921b6044820152606401610754565b73__$3ec311f63f1cd166364ee887ad77eb9bd8$__6324b286026010838154811061135257611352614661565b90600052602060002090600602016040518263ffffffff1660e01b815260040161137e91815260200190565b60006040518083038186803b15801561139657600080fd5b505af41580156113aa573d6000803e3d6000fd5b5050505061122e81613340565b6113cf600080516020615d5a83398151915233611d51565b6113eb5760405162461bcd60e51b8152600401610754906153ce565b60036010828154811061140057611400614661565b60009182526020909120600560069092020181015460ff169081111561142857611428613c2e565b146114455760405162461bcd60e51b8152600401610754906153f7565b73__$3ec311f63f1cd166364ee887ad77eb9bd8$__6359111fb56010838154811061135257611352614661565b6000805b600e548110156115ad57600e8054600091601a918391908590811061149d5761149d614661565b906000526020600020906002020160000154815260200190815260200160002084815481106114ce576114ce614661565b9060005260206000200180546114e39061462d565b80601f016020809104026020016040519081016040528092919081815260200182805461150f9061462d565b801561155c5780601f106115315761010080835404028352916020019161155c565b820191906000526020600020905b81548152906001019060200180831161153f57829003601f168201915b5050505050806020019051810190611574919061508d565b9050806001600160a01b0316856001600160a01b03160361159a5760019250505061066f565b50806115a581615010565b915050611476565b5060009392505050565b6000818152601a60205260409020805460609190610e12906001906150aa565b6000601082815481106115ec576115ec614661565b600091825260209091206005600690920201015460ff1692915050565b600380546004546005546006546040805160e081018252600980546001600160a01b039081168352600a54602080850191909152600b5484860152600c546060850152600d80548651818402810184019097528087529983169a988316999790921697959693949293608086019392918301828280156116a857602002820191906000526020600020905b815481526020019060010190808311611694575b5050505050815260200160058201805480602002602001604051908101604052809291908181526020016000905b8282101561176a5783829060005260206000209060020201604051806040016040529081600082015481526020016001820180548060200260200160405190810160405280929190818152602001828054801561175257602002820191906000526020600020905b81548152602001906001019080831161173e575b505050505081525050815260200190600101906116d6565b50505050815260200160068201805480602002602001604051908101604052809291908181526020016000905b828210156117e957600084815260209081902060408051606081018252600286029092018054835260019081015460ff8082168587015261010090910416918301919091529083529092019101611797565b5050505081525050905085565b60606010805480602002602001604051908101604052809291908181526020016000905b828210156119005760008481526020908190206040805160c0810182526006860290920180546001600160a01b0316835260018101548385015260028101548383015260038101546060840152600481018054835181870281018701909452808452939491936080860193928301828280156118b557602002820191906000526020600020905b8154815260200190600101908083116118a1575b505050918352505060058281015460209092019160ff16908111156118dc576118dc613c2e565b60058111156118ed576118ed613c2e565b815250508152602001906001019061181a565b50505050905090565b611921600080516020615d7a83398151915233611d51565b61193d5760405162461bcd60e51b815260040161075490615429565b600a54811461195e5760405162461bcd60e51b81526004016107549061544e565b60016010848154811061197357611973614661565b60009182526020909120600560069092020181015460ff169081111561199b5761199b613c2e565b146119d75760405162461bcd60e51b815260206004820152600c60248201526b139bdd08115e1958dd5d195960a21b6044820152606401610754565b73__$3ec311f63f1cd166364ee887ad77eb9bd8$__636a0a24f160108581548110611a0457611a04614661565b906000526020600020906006020184846040518463ffffffff1660e01b8152600401611a3293929190615485565b60006040518083038186803b158015611a4a57600080fd5b505af4158015611a5e573d6000803e3d6000fd5b50505050611a6b83613340565b505050565b611a88600080516020615d9a83398151915233611d51565b611ac25760405162461bcd60e51b815260206004820152600b60248201526a534f4c5645525f524f4c4560a81b6044820152606401610754565b6000828152601c602090815260409091208251611a6b928401906138d5565b611af9600080516020615d7a83398151915233611d51565b611b155760405162461bcd60e51b815260040161075490615429565b6000828152601b602052604090205460088054600392908110611b3a57611b3a614661565b600091825260209091206001600590920201015460ff166003811115611b6257611b62613c2e565b14611ba85760405162461bcd60e51b81526020600482015260166024820152751bdb9b1e48125b99d95cdd151e5c194b93585b9d585b60521b6044820152606401610754565b611bb2828261337a565b604051600080516020615d3a83398151915290600090a15050565b611be5600080516020615d5a83398151915233611d51565b611c015760405162461bcd60e51b8152600401610754906153ce565b600360108381548110611c1657611c16614661565b60009182526020909120600560069092020181015460ff1690811115611c3e57611c3e613c2e565b14611c5b5760405162461bcd60e51b8152600401610754906153f7565b60148281548110611c6e57611c6e614661565b90600052602060002001544211611c975760405162461bcd60e51b815260040161075490614677565b600a54815114611cb95760405162461bcd60e51b81526004016107549061544e565b6001546010805473__$3ec311f63f1cd166364ee887ad77eb9bd8$__92631b948e49926001600160a01b039091169186908110611cf857611cf8614661565b9060005260206000209060060201846040518463ffffffff1660e01b8152600401611d259392919061549f565b60006040518083038186803b158015611d3d57600080fd5b505af4158015610b04573d6000803e3d6000fd5b6000918252601d602090815260408084206001600160a01b0393909316845291905290205460ff1690565b601054604051635cc1f6b560e01b815260009173__$3ec311f63f1cd166364ee887ad77eb9bd8$__91635cc1f6b591611dbb91600891906004016154fc565b602060405180830381865af4158015611dd8573d6000803e3d6000fd5b505050506040513d601f19601f82011682018060405250810190610edc91906150c1565b611e14600080516020615d9a83398151915233611d51565b611e1d57600080fd5b611e28816001614770565b60148381548110611e3b57611e3b614661565b6000918252602090912001555050565b611e53611d7c565b1515600114611e965760405162461bcd60e51b815260206004820152600f60248201526e1a5b99d95cdd1cc81a5b9d985b1a59608a1b6044820152606401610754565b73__$3ec311f63f1cd166364ee887ad77eb9bd8$__632dd4082482600160009054906101000a90046001600160a01b031660108581548110611eda57611eda614661565b60009182526020808320601554601154600c548652601a938490526040909520805460069095029092019460099491926001600160a01b03909116918b908110611f2657611f26614661565b906000526020600020018054611f3b9061462d565b80601f0160208091040260200160405190810160405280929190818152602001828054611f679061462d565b8015611fb45780601f10611f8957610100808354040283529160200191611fb4565b820191906000526020600020905b815481529060010190602001808311611f9757829003601f168201915b5050505050806020019051810190611fcc9190615615565b60405160e08a901b6001600160e01b031916815260048101989098526001600160a01b03968716602489015260448801959095526064870193909352608486019190915260a485015290911660c483015260e48201526101040160006040518083038186803b15801561203e57600080fd5b505af4158015612052573d6000803e3d6000fd5b5050505061122e81613418565b612067610ebc565b6001600160a01b0316336001600160a01b0316146120b55760405162461bcd60e51b815260206004820152600b60248201526a27b7363c902bb934ba32b960a91b6044820152606401610754565b6001601080546120c7906001906150aa565b815481106120d7576120d7614661565b60009182526020909120600560069092020181015460ff16908111156120ff576120ff613c2e565b146121375760405162461bcd60e51b8152602060048201526008602482015267111a5cd8589b195960c21b6044820152606401610754565b7f7399fd48fdfaf111111c20e282a8837c6803b6631b3b7b5e30b3b97d682d21b68383338460405161216c9493929190615657565b60405180910390a1505050565b6000818152601a60209081526040808320805482518185028101850190935280835260609492939192909184015b828210156122535783829060005260206000200180546121c69061462d565b80601f01602080910402602001604051908101604052809291908181526020018280546121f29061462d565b801561223f5780601f106122145761010080835404028352916020019161223f565b820191906000526020600020905b81548152906001019060200180831161222257829003601f168201915b5050505050815260200190600101906121a7565b505050509050919050565b612266613948565b6040805160e081018252600380546001600160a01b0390811683526004548116602080850191909152600554909116838501526006546060840152600780548551818402810184019096528086529394929360808601939260009084015b8282101561239d576000848152602090819020604080518082019091526002850290910180546001600160a01b03168252600181018054929391929184019161230c9061462d565b80601f01602080910402602001604051908101604052809291908181526020018280546123389061462d565b80156123855780601f1061235a57610100808354040283529160200191612385565b820191906000526020600020905b81548152906001019060200180831161236857829003601f168201915b505050505081525050815260200190600101906122c4565b50505050815260200160058201805480602002602001604051908101604052809291908181526020016000905b828210156124e557838290600052602060002090600502016040518060a0016040529081600082015481526020016001820160009054906101000a900460ff16600381111561241b5761241b613c2e565b600381111561242c5761242c613c2e565b815260200160028201548152602001600382015481526020016004820180546124549061462d565b80601f01602080910402602001604051908101604052809291908181526020018280546124809061462d565b80156124cd5780601f106124a2576101008083540402835291602001916124cd565b820191906000526020600020905b8154815290600101906020018083116124b057829003601f168201915b505050505081525050815260200190600101906123ca565b505050908252506040805160e0810182526006840180546001600160a01b03168252600785015460208381019190915260088601548385015260098601546060840152600a86018054855181840281018401909652808652958201959394929360808601939283018282801561257a57602002820191906000526020600020905b815481526020019060010190808311612566575b5050505050815260200160058201805480602002602001604051908101604052809291908181526020016000905b8282101561263c5783829060005260206000209060020201604051806040016040529081600082015481526020016001820180548060200260200160405190810160405280929190818152602001828054801561262457602002820191906000526020600020905b815481526020019060010190808311612610575b505050505081525050815260200190600101906125a8565b50505050815260200160068201805480602002602001604051908101604052809291908181526020016000905b828210156126bb57600084815260209081902060408051606081018252600286029092018054835260019081015460ff8082168587015261010090910416918301919091529083529092019101612669565b50505091525050905250919050565b6009546040516370a0823160e01b81526000916001600160a01b0316906370a08231906126fb903090600401613c8a565b602060405180830381865afa158015612718573d6000803e3d6000fd5b505050506040513d601f19601f82011682018060405250810190610edc9190615615565b60003382604051602001612751929190615687565b60408051601f19818403018152918152815160209283012060008181526019909352912054600880549293506127a992909190811061279257612792614661565b906000526020600020906005020160030154610c41565b6001600160a01b0316336001600160a01b0316146127d95760405162461bcd60e51b8152600401610754906156a4565b6000818152601960205260408120546008805490919081106127fd576127fd614661565b600091825260209091206001600590920201015460ff16600381111561282557612825613c2e565b1461285b5760405162461bcd60e51b81526020600482015260066024820152653737ba1021b160d11b6044820152606401610754565b60008181526019602052604090205460088054909190811061287f5761287f614661565b60009182526020822060059091020180549161289a83615010565b909155505060008181526019602052604090205460088054612a27929081106128c5576128c5614661565b906000526020600020906005020160020154336001600160a01b0316633f4fb5aa600360050160166003016000878152602001908152602001600020548154811061291257612912614661565b9060005260206000209060050201600401805461292e9061462d565b80601f016020809104026020016040519081016040528092919081815260200182805461295a9061462d565b80156129a75780601f1061297c576101008083540402835291602001916129a7565b820191906000526020600020905b81548152906001019060200180831161298a57829003601f168201915b50505050508060200190518101906129bf9190615615565b6040518263ffffffff1660e01b81526004016129dd91815260200190565b600060405180830381865afa1580156129fa573d6000803e3d6000fd5b505050506040513d6000823e601f3d908101601f19168201604052612a2291908101906156d3565b61337a565b60008181526019602052604081208190556016805491612a4683615740565b9091555050604051600080516020615d3a83398151915290600090a15050565b6013548111612aaf5760405162461bcd60e51b8152602060048201526015602482015274736f6c766572206e6f7420646f776e73747265616d60581b6044820152606401610754565b612ab881610c41565b6001600160a01b0316336001600160a01b031614612ae85760405162461bcd60e51b8152600401610754906156a4565b6000828152601a602052604090205415801590612b1457506010546000838152601a6020526040902054145b15612b665760405163de3a23c560e01b815260048101839052339063de3a23c590602401600060405180830381600087803b158015612b5257600080fd5b505af1158015610b04573d6000803e3d6000fd5b6000828152601860209081526040822080546001810182559083529082200180546001600160a01b031916331790556017805491612ba383615010565b91905055505b5050565b6000612bc7600080516020615d7a83398151915233611d51565b612c015760405162461bcd60e51b815260206004820152600b60248201526a27b7363c9035b2b2b832b960a91b6044820152606401610754565b6012546001600160a01b031615612c465760405162461bcd60e51b815260206004820152600960248201526812185cc818da1a5b1960ba1b6044820152606401610754565b6000546013546015546040516386a2d22760e01b815273__$3ec311f63f1cd166364ee887ad77eb9bd8$__936386a2d22793612c9893620100009092046001600160a01b031692889290600401615ae9565b602060405180830381865af4158015612cb5573d6000803e3d6000fd5b505050506040513d601f19601f82011682018060405250810190612cd9919061508d565b601280546001600160a01b0319166001600160a01b0392909216918217905592915050565b63f23a6e6160e01b5b9695505050505050565b612d466040805160c081018252600080825260208201819052918101829052606080820183905260808201529060a082015290565b60108281548110612d5957612d59614661565b60009182526020918290206040805160c081018252600690930290910180546001600160a01b031683526001810154838501526002810154838301526003810154606084015260048101805483518187028101870190945280845293949193608086019392830182828015612ded57602002820191906000526020600020905b815481526020019060010190808311612dd9575b505050918352505060058281015460209092019160ff1690811115612e1457612e14613c2e565b6005811115612e2557612e25613c2e565b90525092915050565b6001600160a01b03163b151590565b60006001600160e01b0319821663043ff20f60e01b148061066f575061066f825b60006001600160e01b03198216630271189760e51b148061066f57506301ffc9a760e01b6001600160e01b031983161461066f565b60008054610100900460ff1615612ee1578160ff166001148015612ebd5750612ebb30612e2e565b155b612ed95760405162461bcd60e51b815260040161075490615bd9565b506000919050565b60005460ff808416911610612f085760405162461bcd60e51b815260040161075490615bd9565b506000805460ff191660ff92909216919091179055600190565b6000928352601d602090815260408085206001600160a01b039490941685529290529120805460ff1916911515919091179055565b60005b81811015611a6b576000838383818110612f7657612f76614661565b9050602002810190612f88919061473a565b612f9190615c27565b9050600081600001516001600160a01b031663392f5f646040518163ffffffff1660e01b8152600401600060405180830381865afa158015612fd7573d6000803e3d6000fd5b505050506040513d6000823e601f3d908101601f19168201604052612fff9190810190615c9c565b905060005b81518110156130485761303682858151811061302257613022614661565b602002602001015184600001516001612f22565b8061304081615010565b915050613004565b5081516020830151604051630f3bd93360e21b81526001600160a01b0390921691633cef64cc9161307b91600401613aa4565b600060405180830381600087803b15801561309557600080fd5b505af11580156130a9573d6000803e3d6000fd5b50505050505080806130ba90615010565b915050612f5a565b60005b60085481101561332657600060088054839081106130e5576130e5614661565b600091825260209091206001600590920201015460ff16600381111561310d5761310d613c2e565b146131435761313e6003600501828154811061312b5761312b614661565b906000526020600020906005020161354e565b613314565b6000306001600160a01b0316633837b05e6003600501848154811061316a5761316a614661565b9060005260206000209060050201600301546040518263ffffffff1660e01b815260040161319a91815260200190565b602060405180830381865afa1580156131b7573d6000803e3d6000fd5b505050506040513d601f19601f820116820180604052508101906131db919061508d565b90506131e7818361363a565b806001600160a01b031663df33cc516003600501848154811061320c5761320c614661565b906000526020600020906005020160040180546132289061462d565b80601f01602080910402602001604051908101604052809291908181526020018280546132549061462d565b80156132a15780601f10613276576101008083540402835291602001916132a1565b820191906000526020600020905b81548152906001019060200180831161328457829003601f168201915b50505050508060200190518101906132b99190615615565b6013546040516001600160e01b031960e085901b16815260048101929092526024820152604401600060405180830381600087803b1580156132fa57600080fd5b505af115801561330e573d6000803e3d6000fd5b50505050505b8061331e81615010565b9150506130c5565b50604051600080516020615d3a83398151915290600090a1565b60065461334e906001614770565b6133589042615d21565b6014828154811061336b5761336b614661565b60009182526020909120015550565b601054613389906001906150aa565b6000838152601a6020526040902054146133dc5760405162461bcd60e51b815260206004820152601460248201527314db1bdd081d995c9cda5bdb881a5b9d985b1a5960621b6044820152606401610754565b6000828152601a602090815260408220805460018101825590835291819020835161340e9391909101918401906138d5565b50612ba982613750565b6012546001600160a01b0316158015906134a45750601260009054906101000a90046001600160a01b03166001600160a01b031663999925066040518163ffffffff1660e01b8152600401602060405180830381865afa158015613480573d6000803e3d6000fd5b505050506040513d601f19601f820116820180604052508101906134a491906150c1565b801561351857506012546040516344c3b60760e01b8152600481018390526001600160a01b03909116906344c3b60790602401602060405180830381865afa1580156134f4573d6000803e3d6000fd5b505050506040513d601f19601f8201168201806040525081019061351891906150c1565b1561122e5760125460405163b992db0f60e01b8152600481018390526001600160a01b039091169063b992db0f90602401611200565b600181015460039060ff168181111561356957613569613c2e565b11156135ac5760405162461bcd60e51b8152602060048201526012602482015271496e76616c696420696e676573745479706560701b6044820152606401610754565b80548160006135ba83615010565b9091555060039050600182015460ff1660038111156135db576135db613c2e565b1461122e57600281015460405163b3d7370760e01b81526004810183905261122e919073__$3ec311f63f1cd166364ee887ad77eb9bd8$__9063b3d7370790602401600060405180830381865af41580156129fa573d6000803e3d6000fd5b8060166003016000846003600501858154811061365957613659614661565b906000526020600020906005020160040180546136759061462d565b80601f01602080910402602001604051908101604052809291908181526020018280546136a19061462d565b80156136ee5780601f106136c3576101008083540402835291602001916136ee565b820191906000526020600020905b8154815290600101906020018083116136d157829003601f168201915b50505050508060200190518101906137069190615615565b604051602001613717929190615687565b60408051601f198184030181529181528151602092830120835290820192909252016000908120919091556016805491612ba383615010565b60005b600082815260186020526040902054811015612ba957600082815260186020526040812080548390811061378957613789614661565b6000918252602090912001546001600160a01b0316146138785760008281526018602052604090208054829081106137c3576137c3614661565b60009182526020909120015460405163de3a23c560e01b8152600481018490526001600160a01b039091169063de3a23c590602401600060405180830381600087803b15801561381257600080fd5b505af1158015613826573d6000803e3d6000fd5b505050600083815260186020526040902080549091508290811061384c5761384c614661565b6000918252602082200180546001600160a01b0319169055601780549161387283615740565b91905055505b8061388281615010565b915050613753565b8280548282559060005260206000209081019282156138c5579160200282015b828111156138c55782518255916020019190600101906138aa565b506138d19291506139e9565b5090565b8280546138e19061462d565b90600052602060002090601f01602090048101928261390357600085556138c5565b82601f1061391c57805160ff19168380011785556138c5565b828001600101855582156138c557918201828111156138c55782518255916020019190600101906138aa565b6040518060e0016040528060006001600160a01b0316815260200160006001600160a01b0316815260200160006001600160a01b031681526020016000815260200160608152602001606081526020016139e46040518060e0016040528060006001600160a01b031681526020016000815260200160008152602001600080191681526020016060815260200160608152602001606081525090565b905290565b5b808211156138d157600081556001016139ea565b600060208284031215613a1057600080fd5b81356001600160e01b031981168114613a2857600080fd5b9392505050565b600060208284031215613a4157600080fd5b5035919050565b60005b83811015613a63578181015183820152602001613a4b565b83811115613a72576000848401525b50505050565b60008151808452613a90816020860160208601613a48565b601f01601f19169290920160200192915050565b602081526000613a286020830184613a78565b6001600160a01b038116811461122e57600080fd5b8035610d4d81613ab7565b600060e08284031215613ae957600080fd5b50919050565b600080600080600060a08688031215613b0757600080fd5b8535613b1281613ab7565b94506020860135613b2281613ab7565b93506040860135613b3281613ab7565b92506060860135915060808601356001600160401b03811115613b5457600080fd5b613b6088828901613ad7565b9150509295509295909350565b60008083601f840112613b7f57600080fd5b5081356001600160401b03811115613b9657600080fd5b6020830191508360208260051b8501011115613bb157600080fd5b9250929050565b600080600080600060808688031215613bd057600080fd5b8535613bdb81613ab7565b9450602086013593506040860135925060608601356001600160401b03811115613c0457600080fd5b613c1088828901613b6d565b969995985093965092949392505050565b6001600160a01b03169052565b634e487b7160e01b600052602160045260246000fd5b60068110613c5457613c54613c2e565b9052565b6001600160a01b038616815260208101859052604081018490526060810183905260a08101612d076080830184613c44565b6001600160a01b0391909116815260200190565b600081518084526020808501945080840160005b83811015613cce57815187529582019590820190600101613cb2565b509495945050505050565b602081526000613a286020830184613c9e565b60008083601f840112613cfe57600080fd5b5081356001600160401b03811115613d1557600080fd5b602083019150836020828501011115613bb157600080fd5b60008060208385031215613d4057600080fd5b82356001600160401b03811115613d5657600080fd5b613d6285828601613cec565b90969095509350505050565b60008060408385031215613d8157600080fd5b8235613d8c81613ab7565b946020939093013593505050565b6020810161066f8284613c44565b600081518084526020808501945080840160005b83811015613cce578151805188528381015160ff908116858a0152604091820151169088015260609096019590820190600101613dbc565b60018060a01b0381511682526000602080830151818501526040808401518186015260608401516060860152608084015160e06080870152613e3960e0870182613c9e565b905060a085015186820360a08801528181518084528584019150858160051b850101868401935060005b82811015613ea257858203601f19018452845180518352880151888301889052613e8f88840182613c9e565b9589019594890194925050600101613e63565b5060c0890151965089810360c08b0152613ebc8188613da8565b9a9950505050505050505050565b6001600160a01b0386811682528581166020830152841660408201526060810183905260a060808201819052600090613f0590830184613df4565b979650505050505050565b60018060a01b0381511682526020810151602083015260408101516040830152606081015160608301526000608082015160c06080850152613f5560c0850182613c9e565b905060a0830151613f6960a0860182613c44565b509392505050565b6000602080830181845280855180835260408601915060408160051b870101925083870160005b82811015613fc657603f19888603018452613fb4858351613f10565b94509285019290850190600101613f98565b5092979650505050505050565b600080600060408486031215613fe857600080fd5b8335925060208401356001600160401b0381111561400557600080fd5b61401186828701613b6d565b9497909650939450505050565b634e487b7160e01b600052604160045260246000fd5b60405160c081016001600160401b03811182821017156140565761405661401e565b60405290565b604051601f8201601f191681016001600160401b03811182821017156140845761408461401e565b604052919050565b60006001600160401b038211156140a5576140a561401e565b50601f01601f191660200190565b600082601f8301126140c457600080fd5b81356140d76140d28261408c565b61405c565b8181528460208386010111156140ec57600080fd5b816020850160208301376000918101602001919091529392505050565b6000806040838503121561411c57600080fd5b8235915060208301356001600160401b0381111561413957600080fd5b614145858286016140b3565b9150509250929050565b60006001600160401b038211156141685761416861401e565b5060051b60200190565b6000806040838503121561418557600080fd5b823591506020808401356001600160401b038111156141a357600080fd5b8401601f810186136141b457600080fd5b80356141c26140d28261414f565b81815260059190911b820183019083810190888311156141e157600080fd5b928401925b828410156141ff578335825292840192908401906141e6565b80955050505050509250929050565b6000806040838503121561422157600080fd5b82359150602083013561423381613ab7565b809150509250929050565b6000806040838503121561425157600080fd5b50508035926020909101359150565b60008060008060008060008060a0898b03121561427c57600080fd5b883561428781613ab7565b9750602089013561429781613ab7565b965060408901356001600160401b03808211156142b357600080fd5b6142bf8c838d01613b6d565b909850965060608b01359150808211156142d857600080fd5b6142e48c838d01613b6d565b909650945060808b01359150808211156142fd57600080fd5b5061430a8b828c01613cec565b999c989b5096995094979396929594505050565b60008060006040848603121561433357600080fd5b83356001600160401b0381111561434957600080fd5b61435586828701613cec565b909790965060209590950135949350505050565b6000602080830181845280855180835260408601915060408160051b870101925083870160005b82811015613fc657603f198886030184526143ac858351613a78565b94509285019290850190600101614390565b600082825180855260208086019550808260051b84010181860160005b8481101561442657858303601f19018952815180516001600160a01b03168452840151604085850181905261441281860183613a78565b9a86019a94505050908301906001016143db565b5090979650505050505050565b60048110613c5457613c54613c2e565b6000815180845260208085019450848260051b860182860160005b85811015614426578383038952815160a0815185528682015161448388870182614433565b5060408281015190860152606080830151908601526080918201519185018190526144b081860183613a78565b9a87019a945050509084019060010161445e565b60208152600060018060a01b038084511660208401528060208501511660408401525060408301516144f96060840182613c21565b5060608301516080830152608083015160e060a084015261451e6101008401826143be565b905060a0840151601f19808584030160c086015261453c8383614443565b925060c08601519150808584030160e08601525061455a8282613df4565b95945050505050565b60006020828403121561457557600080fd5b81356001600160401b0381111561458b57600080fd5b61459784828501613ad7565b949350505050565b60008060008060008060a087890312156145b857600080fd5b86356145c381613ab7565b955060208701356145d381613ab7565b9450604087013593506060870135925060808701356001600160401b038111156145fc57600080fd5b61460889828a01613cec565b979a9699509497509295939492505050565b602081526000613a286020830184613f10565b600181811c9082168061464157607f821691505b602082108103613ae957634e487b7160e01b600052602260045260246000fd5b634e487b7160e01b600052603260045260246000fd5b6020808252600a9082015269151a5b595b1bd8dad95960b21b604082015260600190565b6001600160a01b03929092168252602082015260400190565b6000602082840312156146c657600080fd5b8135613a2881613ab7565b80546001600160a01b0319166001600160a01b0392909216919091179055565b6000808335601e1984360301811261470857600080fd5b8301803591506001600160401b0382111561472257600080fd5b6020019150600581901b3603821315613bb157600080fd5b60008235603e1983360301811261475057600080fd5b9190910192915050565b634e487b7160e01b600052601160045260246000fd5b600081600019048311821515161561478a5761478a61475a565b500290565b5b81811015612ba95760008155600101614790565b6147ae815461462d565b8015612ba957601f8111600181146147c857505060009055565b8260005260206000206147e6601f840160051c82016001830161478f565b506020600090812081855555505050565b6000808335601e1984360301811261480e57600080fd5b8301803591506001600160401b0382111561482857600080fd5b602001915036819003821315613bb157600080fd5b601f821115611a6b57806000526020600020601f840160051c810160208510156148645750805b6108e5601f850160051c83018261478f565b813561488181613ab7565b61488b81836146d1565b506001808201602061489f818601866147f7565b6001600160401b038111156148b6576148b661401e565b6148ca816148c4865461462d565b8661483d565b6000601f8211600181146148fe57600083156148e65750838201355b600019600385901b1c1916600184901b178655610be8565b600086815260209020601f19841690835b8281101561492c578685013582559387019390890190870161490f565b50848210156149495760001960f88660031b161c19848701351681555b50505050841b90930190915550505050565b60008235609e1983360301811261475057600080fd5b6004811061122e57600080fd5b81358155600180820160208085013561499681614971565b600481106149a6576149a6613c2e565b60ff1983541660ff8216811784555050604085013560028501556060850135600385015560048401915061489f60808601866147f7565b600160401b8311156149f1576149f161401e565b805483825580841015614a95577f33333333333333333333333333333333333333333333333333333333333333336001818311811615614a3357614a3361475a565b6005828711821615614a4757614a4761475a565b600085815260208120909350878202810190828602015b80821015614a8f578482558484830155846002830155846003830155614a86600483016147a4565b90820190614a5e565b50505050505b5060008181526020812083915b85811015610b0457614abd614ab7848761495b565b8361497e565b6020929092019160059190910190600101614aa2565b6000823560de1983360301811261475057600080fd5b805460008083558115611a6b57828152602081208281015b808210156108e557828255600182019150614b01565b8135815560018082016020614b2e818601866146f1565b600160401b811115614b4257614b4261401e565b835481855580821015614b765760008581528481208381019083015b80821015614b725782825590880190614b5e565b5050505b506000938452828420935b81811015614b9c578235855593850193918301918501614b81565b5050505050505050565b600160401b831115614bba57614bba61401e565b805483825580841015614c32576001600160ff1b036001818311811615614be357614be361475a565b818611811615614bf557614bf561475a565b60008481526020812090925086821b81019084831b015b80821015614c2d57838255614c22838301614ae9565b600282019150614c0c565b505050505b5060008181526020812083915b85811015610b0457614c5a614c54848761473a565b83614b17565b6020929092019160029190910190600101614c3f565b6000808335601e19843603018112614c8757600080fd5b8301803591506001600160401b03821115614ca157600080fd5b6020019150606081023603821315613bb157600080fd5b60ff8116811461122e57600080fd5b81358155600181016020830135614cdd81614cb8565b81546040850135614ced81614cb8565b61ff008160081b1660ff841661ffff19841617178455505050505050565b600160401b831115614d1f57614d1f61401e565b805483825580841015614d91576001600160ff1b036001818311811615614d4857614d4861475a565b818611811615614d5a57614d5a61475a565b60008481526020812090925086821b81019084831b015b80821015614d8c578382558383830155600282019150614d71565b505050505b5060008181526020812083915b85811015610b0457614db08383614cc7565b6060929092019160029190910190600101614d9e565b8135614dd181613ab7565b614ddb81836146d1565b50600160208084013582840155604084013560028401556060840135600384015560048301614e0d60808601866146f1565b600160401b811115614e2157614e2161401e565b825481845580821015614e46578360005284600020614e4482820184830161478f565b505b506000928352838320925b81811015614e6c578235845592850192918401918501614e51565b505050505050614e7f60a08301836146f1565b614e8d818360058601614ba6565b5050614e9c60c0830183614c70565b613a72818360068601614d0b565b8135614eb581613ab7565b614ebf81836146d1565b506001602080840135614ed181613ab7565b614edd818486016146d1565b5060026040850135614eee81613ab7565b614efa818387016146d1565b506060850135600385015560048401614f1660808701876146f1565b600160401b811115614f2a57614f2a61401e565b825481845580821015614f9a576001600160ff1b03808211881615614f5157614f5161475a565b808311881615614f6357614f6361475a565b50600084815286812083891b810190838a1b015b80821015614f9657828255614f8d8a83016147a4565b90870190614f77565b5050505b506000928352602083209282905b82811015614fd257614fc3614fbd838661473a565b86614876565b93850193908601908701614fa8565b5050505050505050614fe760a08301836146f1565b614ff58183600586016149dd565b5050612ba961500760c0840184614ad3565b60068301614dc6565b6000600182016150225761502261475a565b5060010190565b81835260006001600160fb1b0383111561504257600080fd5b8260051b8083602087013760009401602001938452509192915050565b60018060a01b0386168152846020820152836040820152608060608201526000613f05608083018486615029565b60006020828403121561509f57600080fd5b8151613a2881613ab7565b6000828210156150bc576150bc61475a565b500390565b6000602082840312156150d357600080fd5b81518015158114613a2857600080fd5b6000815480845260208085019450836000528060002060005b83811015613cce578154875295820195600191820191016150fc565b600082825480855260208086019550808260051b8401016000868152828120815b858110156151a957868403601f19018a52815484526040858501819052600180840180549287018390528552868520606087019290919086905b808210156151905783548552938901939282019290820190615173565b5050509a86019a50935060029190910190600101615139565b509198975050505050505050565b6000815480845260208085019450836000528060002060005b83811015613cce578154875260018083015460ff808216868b015260089190911c166040890152606090970196600290920191016151d0565b600060018060a01b0380871683526080602084015261522e6080840182885416613c21565b50600185015460a0830152600285015460c0830152600385015460e083015260e06101008301526152666101608301600487016150e3565b607f1980848303016101208501526152818260058901615118565b915080848303016101408501525061529c81600688016151b7565b9150506152ac6040830185613c21565b82606083015295945050505050565b805160068110610d4d57600080fd5b600060208083850312156152dd57600080fd5b82516001600160401b03808211156152f457600080fd5b9084019060c0828703121561530857600080fd5b615310614034565b825161531b81613ab7565b808252508383015184820152604083015160408201526060830151606082015260808301518281111561534d57600080fd5b83019150601f8201871361536057600080fd5b815161536e6140d28261414f565b81815260059190911b8301850190858101908983111561538d57600080fd5b938601935b828510156153ab57845182529386019390860190615392565b6080840152506153bf905060a084016152bb565b60a08201529695505050505050565b6020808252600f908201526e27b7363c9030b93134ba3930ba37b960891b604082015260600190565b602080825260189082015277139bdd08105c989a5d1c985d1a5bdb94995c5d595cdd195960421b604082015260600190565b6020808252600b908201526a27b7363c9025b2b2b832b960a91b604082015260600190565b6020808252601e908201527f6c656e677468206d757374206d61746368206f7574636f6d65536c6f74730000604082015260600190565b83815260406020820152600061455a604083018486615029565b6001600160a01b038416815260208082018490526060604083018190528351908301819052600091848101916080850190845b818110156154ee578451835293830193918301916001016154d2565b509098975050505050505050565b6000604082016040835280855480835260608501915060608160051b8601019250600087815260208120815b8381101561560057878603605f1901855281548652600182015460ff166155526020880182614433565b5060028201546040870152600382015460608701526004820160a0608088015283815461557e8161462d565b8060a08b0152600182166000811461559d57600181146155b2576155e3565b60ff19831660c08c015260e08b0193506155e3565b84885260208820885b838110156155da5781548d820160c001526001909101906020016155bb565b8c0160c0019450505b509198505050602095909501945060059190910190600101615528565b50505050506020929092019290925292915050565b60006020828403121561562757600080fd5b5051919050565b81835281816020850137506000828201602090810191909152601f909101601f19169091010190565b60608152600061566b60608301868861562e565b6001600160a01b03949094166020830152506040015292915050565b60609290921b6001600160601b0319168252601482015260340190565b60208082526015908201527436b9b39739b2b73232b9103737ba1039b7b63b32b960591b604082015260600190565b6000602082840312156156e557600080fd5b81516001600160401b038111156156fb57600080fd5b8201601f8101841361570c57600080fd5b805161571a6140d28261408c565b81815285602083850101111561572f57600080fd5b61455a826020830160208601613a48565b60008161574f5761574f61475a565b506000190190565b6000808335601e1984360301811261576e57600080fd5b83016020810192503590506001600160401b0381111561578d57600080fd5b8060051b3603831315613bb157600080fd5b6000808335601e198436030181126157b657600080fd5b83016020810192503590506001600160401b038111156157d557600080fd5b803603831315613bb157600080fd5b60008235603e198336030181126157fa57600080fd5b90910192915050565b818352600060208085019450848460051b86018460005b8781101561442657838303895261583182886157e4565b6040813561583e81613ab7565b6001600160a01b031685526158558288018361579f565b92508188870152615869828701848361562e565b9b88019b95505050918501915060010161581a565b81835260006020808501808196508560051b81019150846000805b88811015615927578385038a528235609e198936030181126158b9578283fd5b88018035865260a0878201356158ce81614971565b6158da89890182614433565b50604082810135908801526060808301359088015260806158fd8184018461579f565b935082828a0152615911838a01858361562e565b9d8a019d98505050938701935050600101615899565b509298975050505050505050565b6000823560de198336030181126157fa57600080fd5b6000808335601e1984360301811261596257600080fd5b83016020810192503590506001600160401b0381111561598157600080fd5b606081023603831315613bb157600080fd5b8183526000602080850194508260005b85811015613cce5781358752828201356159bc81614cb8565b60ff90811688850152604090838201356159d581614cb8565b169088015260609687019691909101906001016159a3565b600081356159fa81613ab7565b6001600160a01b03168352602082810135818501526040808401358186015260608085013590860152615a306080850185615757565b60e06080880152615a4560e088018284615029565b915050615a5560a0860186615757565b87830360a0890152808352848301600582901b840186018360005b84811015615ac357868303601f19018452615a8b82876157e4565b80358452615a9b8a820182615757565b9150898b860152615aaf8a86018383615029565b958b01959450505090880190600101615a70565b5050615ad260c08a018a61594b565b9750955089810360c08b0152613ebc818888615993565b6001600160a01b038581168252608060208301526000908535615b0b81613ab7565b166080830152615b1d60208601613acc565b615b2a60a0840182613c21565b50615b3760408601613acc565b615b4460c0840182613c21565b50606085013560e0830152615b5c6080860186615757565b60e0610100850152615b7361016085018284615803565b915050615b8360a0870187615757565b607f198086850301610120870152615b9c84838561587e565b9350615bab60c08a018a615935565b925080868503016101408701525050615bc482826159ed565b60408501969096525050506060015292915050565b6020808252602e908201527f496e697469616c697a61626c653a20636f6e747261637420697320616c72656160408201526d191e481a5b9a5d1a585b1a5e995960921b606082015260800190565b600060408236031215615c3957600080fd5b604080519081016001600160401b038082118383101715615c5c57615c5c61401e565b8160405284359150615c6d82613ab7565b90825260208401359080821115615c8357600080fd5b50615c90368286016140b3565b60208301525092915050565b60006020808385031215615caf57600080fd5b82516001600160401b03811115615cc557600080fd5b8301601f81018513615cd657600080fd5b8051615ce46140d28261414f565b81815260059190911b82018301908381019087831115615d0357600080fd5b928401925b82841015613f0557835182529284019290840190615d08565b60008219821115615d3457615d3461475a565b50019056fe71bd81ebe1d98a2944767394e76a9aff18724b2cf04e1db71254f804544b35c716ceee8289685dd2a02b9c8ae81d2df373176ce53519e6284e2a2950d6546ffafc8737ab85eb45125971625a9ebdb75cc78e01d5c1fa80c4c6e5203f47bc4fab0ca87275d169c8ebebebf4aab9c6c710c7681b39422556e90b16a44c68ee4e46a264697066735822122067ef59c4307e73c73b64983e4d85f8cf3f9158e5fa0fb56b9fa63301f60ce1f464736f6c634300080d0033",
  "linkReferences": {
    "contracts/solvers/SolverLib.sol": {
      "SolverLib": [
        {
          "length": 20,
          "start": 2467
        },
        {
          "length": 20,
          "start": 4009
        },
        {
          "length": 20,
          "start": 4476
        },
        {
          "length": 20,
          "start": 5234
        },
        {
          "length": 20,
          "start": 5522
        },
        {
          "length": 20,
          "start": 6948
        },
        {
          "length": 20,
          "start": 7693
        },
        {
          "length": 20,
          "start": 7900
        },
        {
          "length": 20,
          "start": 8163
        },
        {
          "length": 20,
          "start": 11689
        },
        {
          "length": 20,
          "start": 14155
        }
      ]
    }
  },
  "deployedLinkReferences": {
    "contracts/solvers/SolverLib.sol": {
      "SolverLib": [
        {
          "length": 20,
          "start": 2136
        },
        {
          "length": 20,
          "start": 3678
        },
        {
          "length": 20,
          "start": 4145
        },
        {
          "length": 20,
          "start": 4903
        },
        {
          "length": 20,
          "start": 5191
        },
        {
          "length": 20,
          "start": 6617
        },
        {
          "length": 20,
          "start": 7362
        },
        {
          "length": 20,
          "start": 7569
        },
        {
          "length": 20,
          "start": 7832
        },
        {
          "length": 20,
          "start": 11358
        },
        {
          "length": 20,
          "start": 13824
        }
      ]
    }
  }
}