{
  "_format": "hh-sol-artifact-1",
  "contractName": "WriterSolverV1",
  "sourceName": "contracts/solvers/WriterSolverV1.sol",
  "abi": [
    {
      "anonymous": false,
      "inputs": [
        {
          "indexed": false,
          "internalType": "bytes32",
          "name": "conditionId",
          "type": "bytes32"
        }
      ],
      "name": "ChangedStatus",
      "type": "event"
    },
    {
      "anonymous": false,
      "inputs": [
        {
          "indexed": false,
          "internalType": "bytes32",
          "name": "conditionId",
          "type": "bytes32"
        }
      ],
      "name": "DeliveredNullArbitration",
      "type": "event"
    },
    {
      "anonymous": false,
      "inputs": [
        {
          "indexed": false,
          "internalType": "address",
          "name": "child",
          "type": "address"
        }
      ],
      "name": "DeployedChild",
      "type": "event"
    },
    {
      "anonymous": false,
      "inputs": [],
      "name": "IngestedData",
      "type": "event"
    },
    {
      "anonymous": false,
      "inputs": [
        {
          "indexed": false,
          "internalType": "uint8",
          "name": "version",
          "type": "uint8"
        }
      ],
      "name": "Initialized",
      "type": "event"
    },
    {
      "anonymous": false,
      "inputs": [
        {
          "indexed": true,
          "internalType": "address",
          "name": "module",
          "type": "address"
        },
        {
          "indexed": true,
          "internalType": "address",
          "name": "solver",
          "type": "address"
        }
      ],
      "name": "LoadedModule",
      "type": "event"
    },
    {
      "anonymous": false,
      "inputs": [
        {
          "indexed": false,
          "internalType": "address",
          "name": "solver",
          "type": "address"
        },
        {
          "indexed": false,
          "internalType": "uint256",
          "name": "solveIndex",
          "type": "uint256"
        }
      ],
      "name": "PreparedSolve",
      "type": "event"
    },
    {
      "anonymous": false,
      "inputs": [
        {
          "indexed": false,
          "internalType": "string",
          "name": "cid",
          "type": "string"
        },
        {
          "indexed": false,
          "internalType": "address",
          "name": "submitter",
          "type": "address"
        },
        {
          "indexed": false,
          "internalType": "bytes32",
          "name": "conditionId",
          "type": "bytes32"
        }
      ],
      "name": "SubmittedWork",
      "type": "event"
    },
    {
      "inputs": [
        {
          "internalType": "bytes32",
          "name": "_slot",
          "type": "bytes32"
        },
        {
          "internalType": "bytes",
          "name": "_data",
          "type": "bytes"
        }
      ],
      "name": "addData",
      "outputs": [],
      "stateMutability": "nonpayable",
      "type": "function"
    },
    {
      "inputs": [
        {
          "internalType": "uint256",
          "name": "_index",
          "type": "uint256"
        }
      ],
      "name": "addressFromChainIndex",
      "outputs": [
        {
          "internalType": "address",
          "name": "_address",
          "type": "address"
        }
      ],
      "stateMutability": "view",
      "type": "function"
    },
    {
      "inputs": [
        {
          "internalType": "uint256",
          "name": "_index",
          "type": "uint256"
        }
      ],
      "name": "allocationsValid",
      "outputs": [
        {
          "internalType": "bool",
          "name": "",
          "type": "bool"
        }
      ],
      "stateMutability": "view",
      "type": "function"
    },
    {
      "inputs": [
        {
          "internalType": "uint256",
          "name": "_index",
          "type": "uint256"
        },
        {
          "internalType": "uint256[]",
          "name": "payouts",
          "type": "uint256[]"
        }
      ],
      "name": "arbitrate",
      "outputs": [],
      "stateMutability": "nonpayable",
      "type": "function"
    },
    {
      "inputs": [
        {
          "internalType": "uint256",
          "name": "_index",
          "type": "uint256"
        }
      ],
      "name": "arbitrateNull",
      "outputs": [],
      "stateMutability": "nonpayable",
      "type": "function"
    },
    {
      "inputs": [],
      "name": "arbitrator",
      "outputs": [
        {
          "internalType": "address",
          "name": "",
          "type": "address"
        }
      ],
      "stateMutability": "view",
      "type": "function"
    },
    {
      "inputs": [],
      "name": "chainChild",
      "outputs": [
        {
          "internalType": "address",
          "name": "",
          "type": "address"
        }
      ],
      "stateMutability": "view",
      "type": "function"
    },
    {
      "inputs": [],
      "name": "chainIndex",
      "outputs": [
        {
          "internalType": "uint256",
          "name": "",
          "type": "uint256"
        }
      ],
      "stateMutability": "view",
      "type": "function"
    },
    {
      "inputs": [],
      "name": "chainParent",
      "outputs": [
        {
          "internalType": "address",
          "name": "",
          "type": "address"
        }
      ],
      "stateMutability": "view",
      "type": "function"
    },
    {
      "inputs": [],
      "name": "collateralBalance",
      "outputs": [
        {
          "internalType": "uint256",
          "name": "balance",
          "type": "uint256"
        }
      ],
      "stateMutability": "view",
      "type": "function"
    },
    {
      "inputs": [
        {
          "internalType": "uint256",
          "name": "index",
          "type": "uint256"
        }
      ],
      "name": "condition",
      "outputs": [
        {
          "components": [
            {
              "internalType": "contract IERC20",
              "name": "collateralToken",
              "type": "address"
            },
            {
              "internalType": "bytes32",
              "name": "questionId",
              "type": "bytes32"
            },
            {
              "internalType": "bytes32",
              "name": "parentCollectionId",
              "type": "bytes32"
            },
            {
              "internalType": "bytes32",
              "name": "conditionId",
              "type": "bytes32"
            },
            {
              "internalType": "uint256[]",
              "name": "payouts",
              "type": "uint256[]"
            },
            {
              "internalType": "enum SolverLib.Status",
              "name": "status",
              "type": "uint8"
            }
          ],
          "internalType": "struct SolverLib.Condition",
          "name": "",
          "type": "tuple"
        }
      ],
      "stateMutability": "view",
      "type": "function"
    },
    {
      "inputs": [
        {
          "internalType": "uint256",
          "name": "",
          "type": "uint256"
        }
      ],
      "name": "conditions",
      "outputs": [
        {
          "internalType": "contract IERC20",
          "name": "collateralToken",
          "type": "address"
        },
        {
          "internalType": "bytes32",
          "name": "questionId",
          "type": "bytes32"
        },
        {
          "internalType": "bytes32",
          "name": "parentCollectionId",
          "type": "bytes32"
        },
        {
          "internalType": "bytes32",
          "name": "conditionId",
          "type": "bytes32"
        },
        {
          "internalType": "enum SolverLib.Status",
          "name": "status",
          "type": "uint8"
        }
      ],
      "stateMutability": "view",
      "type": "function"
    },
    {
      "inputs": [],
      "name": "config",
      "outputs": [
        {
          "internalType": "contract Solver",
          "name": "implementation",
          "type": "address"
        },
        {
          "internalType": "address",
          "name": "keeper",
          "type": "address"
        },
        {
          "internalType": "address",
          "name": "arbitrator",
          "type": "address"
        },
        {
          "internalType": "uint256",
          "name": "timelockSeconds",
          "type": "uint256"
        },
        {
          "components": [
            {
              "internalType": "contract IERC20",
              "name": "collateralToken",
              "type": "address"
            },
            {
              "internalType": "uint256",
              "name": "outcomeSlots",
              "type": "uint256"
            },
            {
              "internalType": "uint256",
              "name": "parentCollectionIndexSet",
              "type": "uint256"
            },
            {
              "internalType": "bytes32",
              "name": "amountSlot",
              "type": "bytes32"
            },
            {
              "internalType": "uint256[]",
              "name": "partition",
              "type": "uint256[]"
            },
            {
              "components": [
                {
                  "internalType": "bytes32",
                  "name": "recipientAddressSlot",
                  "type": "bytes32"
                },
                {
                  "internalType": "bytes32[]",
                  "name": "recipientAmountSlots",
                  "type": "bytes32[]"
                }
              ],
              "internalType": "struct SolverLib.Allocation[]",
              "name": "allocations",
              "type": "tuple[]"
            },
            {
              "components": [
                {
                  "internalType": "bytes32",
                  "name": "digest",
                  "type": "bytes32"
                },
                {
                  "internalType": "uint8",
                  "name": "hashFunction",
                  "type": "uint8"
                },
                {
                  "internalType": "uint8",
                  "name": "size",
                  "type": "uint8"
                }
              ],
              "internalType": "struct SolverLib.Multihash[]",
              "name": "outcomeURIs",
              "type": "tuple[]"
            }
          ],
          "internalType": "struct SolverLib.ConditionBase",
          "name": "conditionBase",
          "type": "tuple"
        }
      ],
      "stateMutability": "view",
      "type": "function"
    },
    {
      "inputs": [
        {
          "internalType": "uint256",
          "name": "_index",
          "type": "uint256"
        }
      ],
      "name": "confirmPayouts",
      "outputs": [],
      "stateMutability": "nonpayable",
      "type": "function"
    },
    {
      "inputs": [
        {
          "components": [
            {
              "internalType": "contract Solver",
              "name": "implementation",
              "type": "address"
            },
            {
              "internalType": "address",
              "name": "keeper",
              "type": "address"
            },
            {
              "internalType": "address",
              "name": "arbitrator",
              "type": "address"
            },
            {
              "internalType": "uint256",
              "name": "timelockSeconds",
              "type": "uint256"
            },
            {
              "components": [
                {
                  "internalType": "contract IModule",
                  "name": "module",
                  "type": "address"
                },
                {
                  "internalType": "bytes",
                  "name": "data",
                  "type": "bytes"
                }
              ],
              "internalType": "struct Modulated.Loader[]",
              "name": "moduleLoaders",
              "type": "tuple[]"
            },
            {
              "components": [
                {
                  "internalType": "uint256",
                  "name": "executions",
                  "type": "uint256"
                },
                {
                  "internalType": "enum SolverLib.IngestType",
                  "name": "ingestType",
                  "type": "uint8"
                },
                {
                  "internalType": "bytes32",
                  "name": "slot",
                  "type": "bytes32"
                },
                {
                  "internalType": "uint256",
                  "name": "solverIndex",
                  "type": "uint256"
                },
                {
                  "internalType": "bytes",
                  "name": "data",
                  "type": "bytes"
                }
              ],
              "internalType": "struct SolverLib.Ingest[]",
              "name": "ingests",
              "type": "tuple[]"
            },
            {
              "components": [
                {
                  "internalType": "contract IERC20",
                  "name": "collateralToken",
                  "type": "address"
                },
                {
                  "internalType": "uint256",
                  "name": "outcomeSlots",
                  "type": "uint256"
                },
                {
                  "internalType": "uint256",
                  "name": "parentCollectionIndexSet",
                  "type": "uint256"
                },
                {
                  "internalType": "bytes32",
                  "name": "amountSlot",
                  "type": "bytes32"
                },
                {
                  "internalType": "uint256[]",
                  "name": "partition",
                  "type": "uint256[]"
                },
                {
                  "components": [
                    {
                      "internalType": "bytes32",
                      "name": "recipientAddressSlot",
                      "type": "bytes32"
                    },
                    {
                      "internalType": "bytes32[]",
                      "name": "recipientAmountSlots",
                      "type": "bytes32[]"
                    }
                  ],
                  "internalType": "struct SolverLib.Allocation[]",
                  "name": "allocations",
                  "type": "tuple[]"
                },
                {
                  "components": [
                    {
                      "internalType": "bytes32",
                      "name": "digest",
                      "type": "bytes32"
                    },
                    {
                      "internalType": "uint8",
                      "name": "hashFunction",
                      "type": "uint8"
                    },
                    {
                      "internalType": "uint8",
                      "name": "size",
                      "type": "uint8"
                    }
                  ],
                  "internalType": "struct SolverLib.Multihash[]",
                  "name": "outcomeURIs",
                  "type": "tuple[]"
                }
              ],
              "internalType": "struct SolverLib.ConditionBase",
              "name": "conditionBase",
              "type": "tuple"
            }
          ],
          "internalType": "struct SolverLib.Config",
          "name": "_config",
          "type": "tuple"
        }
      ],
      "name": "deployChild",
      "outputs": [
        {
          "internalType": "address",
          "name": "",
          "type": "address"
        }
      ],
      "stateMutability": "nonpayable",
      "type": "function"
    },
    {
      "inputs": [
        {
          "internalType": "uint256",
          "name": "_index",
          "type": "uint256"
        }
      ],
      "name": "executeSolve",
      "outputs": [],
      "stateMutability": "nonpayable",
      "type": "function"
    },
    {
      "inputs": [],
      "name": "fetchPermits",
      "outputs": [
        {
          "internalType": "bytes4[]",
          "name": "",
          "type": "bytes4[]"
        }
      ],
      "stateMutability": "view",
      "type": "function"
    },
    {
      "inputs": [
        {
          "internalType": "bytes32",
          "name": "_slot",
          "type": "bytes32"
        }
      ],
      "name": "getAllData",
      "outputs": [
        {
          "internalType": "bytes[]",
          "name": "data",
          "type": "bytes[]"
        }
      ],
      "stateMutability": "view",
      "type": "function"
    },
    {
      "inputs": [
        {
          "internalType": "bytes32",
          "name": "_slot",
          "type": "bytes32"
        }
      ],
      "name": "getCallbackOutput",
      "outputs": [
        {
          "internalType": "bytes",
          "name": "data",
          "type": "bytes"
        }
      ],
      "stateMutability": "view",
      "type": "function"
    },
    {
      "inputs": [],
      "name": "getConditions",
      "outputs": [
        {
          "components": [
            {
              "internalType": "contract IERC20",
              "name": "collateralToken",
              "type": "address"
            },
            {
              "internalType": "bytes32",
              "name": "questionId",
              "type": "bytes32"
            },
            {
              "internalType": "bytes32",
              "name": "parentCollectionId",
              "type": "bytes32"
            },
            {
              "internalType": "bytes32",
              "name": "conditionId",
              "type": "bytes32"
            },
            {
              "internalType": "uint256[]",
              "name": "payouts",
              "type": "uint256[]"
            },
            {
              "internalType": "enum SolverLib.Status",
              "name": "status",
              "type": "uint8"
            }
          ],
          "internalType": "struct SolverLib.Condition[]",
          "name": "",
          "type": "tuple[]"
        }
      ],
      "stateMutability": "view",
      "type": "function"
    },
    {
      "inputs": [],
      "name": "getConfig",
      "outputs": [
        {
          "components": [
            {
              "internalType": "contract Solver",
              "name": "implementation",
              "type": "address"
            },
            {
              "internalType": "address",
              "name": "keeper",
              "type": "address"
            },
            {
              "internalType": "address",
              "name": "arbitrator",
              "type": "address"
            },
            {
              "internalType": "uint256",
              "name": "timelockSeconds",
              "type": "uint256"
            },
            {
              "components": [
                {
                  "internalType": "contract IModule",
                  "name": "module",
                  "type": "address"
                },
                {
                  "internalType": "bytes",
                  "name": "data",
                  "type": "bytes"
                }
              ],
              "internalType": "struct Modulated.Loader[]",
              "name": "moduleLoaders",
              "type": "tuple[]"
            },
            {
              "components": [
                {
                  "internalType": "uint256",
                  "name": "executions",
                  "type": "uint256"
                },
                {
                  "internalType": "enum SolverLib.IngestType",
                  "name": "ingestType",
                  "type": "uint8"
                },
                {
                  "internalType": "bytes32",
                  "name": "slot",
                  "type": "bytes32"
                },
                {
                  "internalType": "uint256",
                  "name": "solverIndex",
                  "type": "uint256"
                },
                {
                  "internalType": "bytes",
                  "name": "data",
                  "type": "bytes"
                }
              ],
              "internalType": "struct SolverLib.Ingest[]",
              "name": "ingests",
              "type": "tuple[]"
            },
            {
              "components": [
                {
                  "internalType": "contract IERC20",
                  "name": "collateralToken",
                  "type": "address"
                },
                {
                  "internalType": "uint256",
                  "name": "outcomeSlots",
                  "type": "uint256"
                },
                {
                  "internalType": "uint256",
                  "name": "parentCollectionIndexSet",
                  "type": "uint256"
                },
                {
                  "internalType": "bytes32",
                  "name": "amountSlot",
                  "type": "bytes32"
                },
                {
                  "internalType": "uint256[]",
                  "name": "partition",
                  "type": "uint256[]"
                },
                {
                  "components": [
                    {
                      "internalType": "bytes32",
                      "name": "recipientAddressSlot",
                      "type": "bytes32"
                    },
                    {
                      "internalType": "bytes32[]",
                      "name": "recipientAmountSlots",
                      "type": "bytes32[]"
                    }
                  ],
                  "internalType": "struct SolverLib.Allocation[]",
                  "name": "allocations",
                  "type": "tuple[]"
                },
                {
                  "components": [
                    {
                      "internalType": "bytes32",
                      "name": "digest",
                      "type": "bytes32"
                    },
                    {
                      "internalType": "uint8",
                      "name": "hashFunction",
                      "type": "uint8"
                    },
                    {
                      "internalType": "uint8",
                      "name": "size",
                      "type": "uint8"
                    }
                  ],
                  "internalType": "struct SolverLib.Multihash[]",
                  "name": "outcomeURIs",
                  "type": "tuple[]"
                }
              ],
              "internalType": "struct SolverLib.ConditionBase",
              "name": "conditionBase",
              "type": "tuple"
            }
          ],
          "internalType": "struct SolverLib.Config",
          "name": "",
          "type": "tuple"
        }
      ],
      "stateMutability": "view",
      "type": "function"
    },
    {
      "inputs": [
        {
          "internalType": "bytes32",
          "name": "_slot",
          "type": "bytes32"
        }
      ],
      "name": "getData",
      "outputs": [
        {
          "internalType": "bytes",
          "name": "data",
          "type": "bytes"
        }
      ],
      "stateMutability": "view",
      "type": "function"
    },
    {
      "inputs": [
        {
          "internalType": "bytes32",
          "name": "key",
          "type": "bytes32"
        }
      ],
      "name": "getState",
      "outputs": [
        {
          "internalType": "bytes",
          "name": "data",
          "type": "bytes"
        }
      ],
      "stateMutability": "view",
      "type": "function"
    },
    {
      "inputs": [
        {
          "internalType": "uint256",
          "name": "conditionIndex",
          "type": "uint256"
        }
      ],
      "name": "getStatus",
      "outputs": [
        {
          "internalType": "enum SolverLib.Status",
          "name": "status",
          "type": "uint8"
        }
      ],
      "stateMutability": "view",
      "type": "function"
    },
    {
      "inputs": [
        {
          "internalType": "bytes32",
          "name": "_slot",
          "type": "bytes32"
        }
      ],
      "name": "handleCallback",
      "outputs": [],
      "stateMutability": "nonpayable",
      "type": "function"
    },
    {
      "inputs": [],
      "name": "ingestsValid",
      "outputs": [
        {
          "internalType": "bool",
          "name": "",
          "type": "bool"
        }
      ],
      "stateMutability": "view",
      "type": "function"
    },
    {
      "inputs": [
        {
          "internalType": "address",
          "name": "_deployer",
          "type": "address"
        },
        {
          "internalType": "address",
          "name": "_ctfAddress",
          "type": "address"
        },
        {
          "internalType": "address",
          "name": "_chainParent",
          "type": "address"
        },
        {
          "internalType": "uint256",
          "name": "_chainIndex",
          "type": "uint256"
        },
        {
          "components": [
            {
              "internalType": "contract Solver",
              "name": "implementation",
              "type": "address"
            },
            {
              "internalType": "address",
              "name": "keeper",
              "type": "address"
            },
            {
              "internalType": "address",
              "name": "arbitrator",
              "type": "address"
            },
            {
              "internalType": "uint256",
              "name": "timelockSeconds",
              "type": "uint256"
            },
            {
              "components": [
                {
                  "internalType": "contract IModule",
                  "name": "module",
                  "type": "address"
                },
                {
                  "internalType": "bytes",
                  "name": "data",
                  "type": "bytes"
                }
              ],
              "internalType": "struct Modulated.Loader[]",
              "name": "moduleLoaders",
              "type": "tuple[]"
            },
            {
              "components": [
                {
                  "internalType": "uint256",
                  "name": "executions",
                  "type": "uint256"
                },
                {
                  "internalType": "enum SolverLib.IngestType",
                  "name": "ingestType",
                  "type": "uint8"
                },
                {
                  "internalType": "bytes32",
                  "name": "slot",
                  "type": "bytes32"
                },
                {
                  "internalType": "uint256",
                  "name": "solverIndex",
                  "type": "uint256"
                },
                {
                  "internalType": "bytes",
                  "name": "data",
                  "type": "bytes"
                }
              ],
              "internalType": "struct SolverLib.Ingest[]",
              "name": "ingests",
              "type": "tuple[]"
            },
            {
              "components": [
                {
                  "internalType": "contract IERC20",
                  "name": "collateralToken",
                  "type": "address"
                },
                {
                  "internalType": "uint256",
                  "name": "outcomeSlots",
                  "type": "uint256"
                },
                {
                  "internalType": "uint256",
                  "name": "parentCollectionIndexSet",
                  "type": "uint256"
                },
                {
                  "internalType": "bytes32",
                  "name": "amountSlot",
                  "type": "bytes32"
                },
                {
                  "internalType": "uint256[]",
                  "name": "partition",
                  "type": "uint256[]"
                },
                {
                  "components": [
                    {
                      "internalType": "bytes32",
                      "name": "recipientAddressSlot",
                      "type": "bytes32"
                    },
                    {
                      "internalType": "bytes32[]",
                      "name": "recipientAmountSlots",
                      "type": "bytes32[]"
                    }
                  ],
                  "internalType": "struct SolverLib.Allocation[]",
                  "name": "allocations",
                  "type": "tuple[]"
                },
                {
                  "components": [
                    {
                      "internalType": "bytes32",
                      "name": "digest",
                      "type": "bytes32"
                    },
                    {
                      "internalType": "uint8",
                      "name": "hashFunction",
                      "type": "uint8"
                    },
                    {
                      "internalType": "uint8",
                      "name": "size",
                      "type": "uint8"
                    }
                  ],
                  "internalType": "struct SolverLib.Multihash[]",
                  "name": "outcomeURIs",
                  "type": "tuple[]"
                }
              ],
              "internalType": "struct SolverLib.ConditionBase",
              "name": "conditionBase",
              "type": "tuple"
            }
          ],
          "internalType": "struct SolverLib.Config",
          "name": "_solverConfig",
          "type": "tuple"
        }
      ],
      "name": "init",
      "outputs": [],
      "stateMutability": "nonpayable",
      "type": "function"
    },
    {
      "inputs": [
        {
          "internalType": "bytes4",
          "name": "selector",
          "type": "bytes4"
        }
      ],
      "name": "isPermitted",
      "outputs": [
        {
          "internalType": "bool",
          "name": "",
          "type": "bool"
        }
      ],
      "stateMutability": "view",
      "type": "function"
    },
    {
      "inputs": [
        {
          "internalType": "bytes4",
          "name": "selector",
          "type": "bytes4"
        }
      ],
      "name": "isPermittedModule",
      "outputs": [
        {
          "internalType": "bool",
          "name": "",
          "type": "bool"
        }
      ],
      "stateMutability": "view",
      "type": "function"
    },
    {
      "inputs": [
        {
          "internalType": "address",
          "name": "account",
          "type": "address"
        },
        {
          "internalType": "uint256",
          "name": "conditionIndex",
          "type": "uint256"
        }
      ],
      "name": "isRecipient",
      "outputs": [
        {
          "internalType": "bool",
          "name": "",
          "type": "bool"
        }
      ],
      "stateMutability": "view",
      "type": "function"
    },
    {
      "inputs": [],
      "name": "keeper",
      "outputs": [
        {
          "internalType": "address",
          "name": "",
          "type": "address"
        }
      ],
      "stateMutability": "view",
      "type": "function"
    },
    {
      "inputs": [
        {
          "internalType": "bytes",
          "name": "data",
          "type": "bytes"
        }
      ],
      "name": "load",
      "outputs": [],
      "stateMutability": "nonpayable",
      "type": "function"
    },
    {
      "inputs": [
        {
          "internalType": "address",
          "name": "operator",
          "type": "address"
        },
        {
          "internalType": "address",
          "name": "from",
          "type": "address"
        },
        {
          "internalType": "uint256[]",
          "name": "ids",
          "type": "uint256[]"
        },
        {
          "internalType": "uint256[]",
          "name": "values",
          "type": "uint256[]"
        },
        {
          "internalType": "bytes",
          "name": "data",
          "type": "bytes"
        }
      ],
      "name": "onERC1155BatchReceived",
      "outputs": [
        {
          "internalType": "bytes4",
          "name": "",
          "type": "bytes4"
        }
      ],
      "stateMutability": "nonpayable",
      "type": "function"
    },
    {
      "inputs": [
        {
          "internalType": "address",
          "name": "operator",
          "type": "address"
        },
        {
          "internalType": "address",
          "name": "from",
          "type": "address"
        },
        {
          "internalType": "uint256",
          "name": "id",
          "type": "uint256"
        },
        {
          "internalType": "uint256",
          "name": "value",
          "type": "uint256"
        },
        {
          "internalType": "bytes",
          "name": "data",
          "type": "bytes"
        }
      ],
      "name": "onERC1155Received",
      "outputs": [
        {
          "internalType": "bytes4",
          "name": "",
          "type": "bytes4"
        }
      ],
      "stateMutability": "nonpayable",
      "type": "function"
    },
    {
      "inputs": [
        {
          "internalType": "uint256",
          "name": "_index",
          "type": "uint256"
        }
      ],
      "name": "prepareSolve",
      "outputs": [],
      "stateMutability": "nonpayable",
      "type": "function"
    },
    {
      "inputs": [
        {
          "internalType": "uint256",
          "name": "_index",
          "type": "uint256"
        },
        {
          "internalType": "uint256[]",
          "name": "_payouts",
          "type": "uint256[]"
        }
      ],
      "name": "proposePayouts",
      "outputs": [],
      "stateMutability": "nonpayable",
      "type": "function"
    },
    {
      "inputs": [
        {
          "internalType": "contract IERC20",
          "name": "_collateralToken",
          "type": "address"
        },
        {
          "internalType": "bytes32",
          "name": "_parentCollectionId",
          "type": "bytes32"
        },
        {
          "internalType": "bytes32",
          "name": "_conditionId",
          "type": "bytes32"
        },
        {
          "internalType": "uint256[]",
          "name": "_indexSets",
          "type": "uint256[]"
        }
      ],
      "name": "redeemPosition",
      "outputs": [],
      "stateMutability": "nonpayable",
      "type": "function"
    },
    {
      "inputs": [
        {
          "internalType": "bytes32",
          "name": "_slot",
          "type": "bytes32"
        },
        {
          "internalType": "uint256",
          "name": "_chainIndex",
          "type": "uint256"
        }
      ],
      "name": "registerOutgoingCallback",
      "outputs": [],
      "stateMutability": "nonpayable",
      "type": "function"
    },
    {
      "inputs": [
        {
          "internalType": "uint256",
          "name": "_index",
          "type": "uint256"
        }
      ],
      "name": "requestArbitration",
      "outputs": [],
      "stateMutability": "nonpayable",
      "type": "function"
    },
    {
      "inputs": [
        {
          "internalType": "bytes32",
          "name": "key",
          "type": "bytes32"
        },
        {
          "internalType": "bytes",
          "name": "data",
          "type": "bytes"
        }
      ],
      "name": "setState",
      "outputs": [],
      "stateMutability": "nonpayable",
      "type": "function"
    },
    {
      "inputs": [
        {
          "internalType": "uint256",
          "name": "_index",
          "type": "uint256"
        },
        {
          "internalType": "uint256",
          "name": "_date",
          "type": "uint256"
        }
      ],
      "name": "setTimelock",
      "outputs": [],
      "stateMutability": "nonpayable",
      "type": "function"
    },
    {
      "inputs": [
        {
          "internalType": "bytes32",
          "name": "_trackingId",
          "type": "bytes32"
        }
      ],
      "name": "setTrackingId",
      "outputs": [],
      "stateMutability": "nonpayable",
      "type": "function"
    },
    {
      "inputs": [
        {
          "internalType": "string",
          "name": "cid",
          "type": "string"
        },
        {
          "internalType": "bytes32",
          "name": "conditionId",
          "type": "bytes32"
        }
      ],
      "name": "submitWork",
      "outputs": [],
      "stateMutability": "nonpayable",
      "type": "function"
    },
    {
      "inputs": [
        {
          "internalType": "bytes4",
          "name": "interfaceId",
          "type": "bytes4"
        }
      ],
      "name": "supportsInterface",
      "outputs": [
        {
          "internalType": "bool",
          "name": "",
          "type": "bool"
        }
      ],
      "stateMutability": "view",
      "type": "function"
    },
    {
      "inputs": [
        {
          "internalType": "uint256",
          "name": "",
          "type": "uint256"
        }
      ],
      "name": "timelocks",
      "outputs": [
        {
          "internalType": "uint256",
          "name": "",
          "type": "uint256"
        }
      ],
      "stateMutability": "view",
      "type": "function"
    },
    {
      "inputs": [],
      "name": "trackingId",
      "outputs": [
        {
          "internalType": "bytes32",
          "name": "",
          "type": "bytes32"
        }
      ],
      "stateMutability": "view",
      "type": "function"
    },
    {
      "inputs": [],
      "name": "writer",
      "outputs": [
        {
          "internalType": "address",
          "name": "",
          "type": "address"
        }
      ],
      "stateMutability": "view",
      "type": "function"
    }
  ],
  "bytecode": "0x3060c0908152602060a081905260e060405290206080523480156200002357600080fd5b506200002e62000090565b601f80546001810182556000919091527fa03837a25210ee280c2113ff4b77ca23440b19d4866cca721c801278fd08d8076008820401805463ffffffff60079093166004026101000a92830219166381296f6f909202919091179055620001ab565b6200009c60ff6200009f565b50565b600354600090610100900460ff16156200010a578160ff166001148015620000da5750620000d8306200014e60201b62002ef51760201c565b155b620001025760405162461bcd60e51b8152600401620000f9906200015d565b60405180910390fd5b506000919050565b60035460ff808416911610620001345760405162461bcd60e51b8152600401620000f9906200015d565b506003805460ff191660ff92909216919091179055600190565b6001600160a01b03163b151590565b6020808252602e908201527f496e697469616c697a61626c653a20636f6e747261637420697320616c72656160408201526d191e481a5b9a5d1a585b1a5e995960921b606082015260800190565b608051615d76620001c460003960005050615d766000f3fe608060405234801561001057600080fd5b50600436106102255760003560e01c806301ffc9a71461022a57806309648a9d146102525780630d06101a146102725780630d7e149f146102875780630d8d3975146102a85780630ebe1bbd146102bb57806318782559146102ce5780632248fd9e146102e157806326c50007146102f457806331402a57146103185780633837b05e1461032b5780633cef64cc1461034b5780633f4fb5aa1461035e57806344c3b60714610371578063453a2abc1461038457806348cbb2fc1461038c5780634a77234e146103955780634e46f223146103a8578063506da0b8146103bb57806354f6127f146103ce57806355dd978b146103e15780635c622a0e146103f45780636cc6cde11461041457806379502c55146104255780637c1236271461043e57806380b204b71461045357806380c2dde21461046657806381296f6f146104795780638602ce1b1461048c57806387dfee571461049f57806399992506146104b2578063a272ebcf146104ba578063aced1661146104cd578063b992db0f146104de578063bc197c81146104f1578063c05bc73114610520578063c08d6f0114610533578063c3f909d414610553578063c8abf6da14610568578063c98c05b71461057b578063de3a23c514610583578063df33cc5114610596578063e1979ef4146105a9578063ea8221a9146105be578063ed25d178146105c7578063f23a6e61146105da578063f24fc903146105ed575b600080fd5b61023d610238366004613a72565b61060d565b60405190151581526020015b60405180910390f35b610265610260366004613a9c565b61062d565b6040516102499190613b11565b610285610280366004613a9c565b6106cf565b005b61029a610295366004613a9c565b610731565b604051908152602001610249565b6102856102b6366004613a9c565b610752565b6102856102c9366004613b5c565b6108a4565b6102856102dc366004613c25565b610a65565b61023d6102ef366004613a72565b610b14565b610307610302366004613a9c565b610b96565b604051610249959493929190613cc5565b610285610326366004613a9c565b610be4565b61033e610339366004613a9c565b610d79565b6040516102499190613cf7565b610285610359366004613d4c565b610e8a565b61026561036c366004613a9c565b610ed8565b61023d61037f366004613a9c565b610f6f565b61033e610ff4565b61029a60185481565b6102856103a3366004613a9c565b611019565b6102856103b6366004613a9c565b611374565b61023d6103c9366004613d8d565b61143b565b6102656103dc366004613a9c565b611580565b60155461033e906001600160a01b031681565b610407610402366004613a9c565b6115a0565b6040516102499190613db9565b6008546001600160a01b031661033e565b61042d6115d2565b604051610249959493929190613f50565b6104466117bf565b6040516102499190613ff7565b610285610461366004614059565b6118d2565b60145461033e906001600160a01b031681565b610285610487366004614139565b611a45565b61028561049a366004614139565b611a90565b6102856104ad3660046141e5565b611b88565b61023d611d18565b61023d6104c8366004613a72565b611d98565b6007546001600160a01b031661033e565b6102856104ec366004613a9c565b611e26565b6105136104ff366004614281565b63bc197c8160e01b98975050505050505050565b604051610249919061433f565b61028561052e366004614354565b61203a565b610546610541366004613a9c565b612154565b604051610249919061439f565b61055b612239565b60405161024991906144fa565b610285610576366004614599565b6126a5565b61029a6126ff565b610285610591366004613a9c565b612771565b6102856105a4366004614599565b612a9b565b6105b1612be2565b60405161024991906145bb565b61029a60165481565b61033e6105d5366004614609565b612c67565b6105136105e8366004614645565b612dc5565b6106006105fb366004613a9c565b612dd8565b60405161024991906146c0565b600061061882612f04565b80610627575061062782612f3a565b92915050565b600081815260026020526040902080546060919061064a906146d3565b80601f0160208091040260200160405190810160405280929190818152602001828054610676906146d3565b80156106c35780601f10610698576101008083540402835291602001916106c3565b820191906000526020600020905b8154815290600101906020018083116106a657829003601f168201915b50505050509050919050565b601854156107155760405162461bcd60e51b815260206004820152600e60248201526d151c9858dada5b99d259081cd95d60921b60448201526064015b60405180910390fd5b6005546001600160a01b0316331461072c57600080fd5b601855565b6017818154811061074157600080fd5b600091825260209091200154905081565b6017818154811061076557610765614707565b9060005260206000200154421161078e5760405162461bcd60e51b815260040161070c9061471d565b6002601382815481106107a3576107a3614707565b60009182526020909120600560069092020181015460ff16908111156107cb576107cb613c9b565b146108075760405162461bcd60e51b815260206004820152600c60248201526b139bdd081c1c9bdc1bdcd95960a21b604482015260640161070c565b6004546013805473__$3ec311f63f1cd166364ee887ad77eb9bd8$__926385c92867926001600160a01b03909116918590811061084657610846614707565b90600052602060002090600602016040518363ffffffff1660e01b8152600401610871929190614741565b60006040518083038186803b15801561088957600080fd5b505af415801561089d573d6000803e3d6000fd5b5050505050565b60006108b06001612f6f565b905080156108c8576003805461ff0019166101001790555b60006108da604084016020850161475a565b6001600160a01b0316036109215760405162461bcd60e51b815260206004820152600e60248201526d12d9595c195c881a5b9d985b1a5960921b604482015260640161070c565b600580546001600160a01b03199081166001600160a01b03898116919091179092556003805462010000600160b01b03191633620100000217905560048054821688841617905560148054909116918616919091179055601683905581600661098a8282614f50565b90505060005b61099d60a0840184614797565b9050811015610a015780601e60006109b860a0870187614797565b858181106109c8576109c8614707565b90506020028101906109da9190614a01565b604090810135825260208201929092520160002055806109f9816150b6565b915050610990565b50610a17610a126080840184614797565b612ff8565b8015610a5d576003805461ff0019169055604051600181527f7f26b83ff96e1f2b6a682f133852f6798a09c465da95921460cefb38474024989060200160405180910390a15b505050505050565b6007546001600160a01b0316331480610a895750610a89631878255960e01b611d98565b610aa55760405162461bcd60e51b815260040161070c906150cf565b60048054604051626dc0df60e21b81526001600160a01b03909116916301b7037c91610adb91899189918991899189910161512a565b600060405180830381600087803b158015610af557600080fd5b505af1158015610b09573d6000803e3d6000fd5b505050505050505050565b6000805b601f54811015610b8d57826001600160e01b031916601f8281548110610b4057610b40614707565b90600052602060002090600891828204019190066004029054906101000a900460e01b6001600160e01b03191603610b7b5750600192915050565b80610b85816150b6565b915050610b18565b50600092915050565b60138181548110610ba657600080fd5b6000918252602090912060069091020180546001820154600283015460038401546005909401546001600160a01b0390931694509092909160ff1685565b6008546001600160a01b0316331480610c085750610c086331402a5760e01b611d98565b610c245760405162461bcd60e51b815260040161070c90615158565b600260138281548110610c3957610c39614707565b60009182526020909120600560069092020181015460ff1690811115610c6157610c61613c9b565b1480610ca75750600360138281548110610c7d57610c7d614707565b60009182526020909120600560069092020181015460ff1690811115610ca557610ca5613c9b565b145b610ce45760405162461bcd60e51b815260206004820152600e60248201526d10d85b9b9bdd081c995c5d595cdd60921b604482015260640161070c565b73__$3ec311f63f1cd166364ee887ad77eb9bd8$__633bdce6e660138381548110610d1157610d11614707565b90600052602060002090600602016040518263ffffffff1660e01b8152600401610d3d91815260200190565b60006040518083038186803b158015610d5557600080fd5b505af4158015610d69573d6000803e3d6000fd5b50505050610d7681613136565b50565b60006016548203610d8b575030919050565b601654821015610e1a576014546001600160a01b0316610dad57506000919050565b601454604051631c1bd82f60e11b8152600481018490526001600160a01b0390911690633837b05e90602401602060405180830381865afa158015610df6573d6000803e3d6000fd5b505050506040513d601f19601f820116820180604052508101906106279190615181565b601654821115610e85576015546001600160a01b0316610e3c57506000919050565b601554604051631c1bd82f60e11b8152600481018490526001600160a01b0390911690633837b05e90602401602060405180830381865afa158015610df6573d6000803e3d6000fd5b919050565b333014610ec55760405162461bcd60e51b81526020600482015260096024820152684f6e6c79207468697360b81b604482015260640161070c565b610ed181830183613a9c565b6020555050565b6013546000828152601d602052604090205460609114610f2e5760405162461bcd60e51b815260206004820152601160248201527029b637ba1034b73b30b634b2103b32b91760791b604482015260640161070c565b6000828152601d602052604090208054610f4a9060019061519e565b81548110610f5a57610f5a614707565b90600052602060002001805461064a906146d3565b6040516336d39c6160e11b815260048101829052601d6024820152600c604482015260009073__$3ec311f63f1cd166364ee887ad77eb9bd8$__90636da738c290606401602060405180830381865af4158015610fd0573d6000803e3d6000fd5b505050506040513d601f19601f8201168201806040525081019061062791906151b5565b6000611001602054611580565b8060200190518101906110149190615181565b905090565b6013541561109b576007546001600160a01b031633148061104457506014546001600160a01b031633145b8061105a575061105a63253b91a760e11b611d98565b61109b5760405162461bcd60e51b815260206004820152601260248201527113db9b1e481ad9595c195c8bdc185c995b9d60721b604482015260640161070c565b60135481146110dc5760405162461bcd60e51b815260206004820152600d60248201526c092dcecc2d8d2c840d2dcc8caf609b1b604482015260640161070c565b601a541561111b5760405162461bcd60e51b815260206004820152600c60248201526b6f7574676f696e672063627360a01b604482015260640161070c565b6019541561115a5760405162461bcd60e51b815260206004820152600c60248201526b696e636f6d696e672063627360a01b604482015260640161070c565b600480546014546013805460405163699e0add60e01b8152919473__$3ec311f63f1cd166364ee887ad77eb9bd8$__9463699e0add946111ae946001600160a01b0392831694600c949390921692016152fa565b600060405180830381865af41580156111cb573d6000803e3d6000fd5b505050506040513d6000823e601f3d908101601f191682016040526111f391908101906153bb565b8154600180820184556000938452602093849020835160069093020180546001600160a01b0319166001600160a01b0390931692909217825582840151908201556040820151600282015560608201516003820155608082015180519293919261126392600485019201906138fe565b5060a08201518160050160006101000a81548160ff0219169083600581111561128e5761128e613c9b565b0217905550506017805460018101825560009182527fc624b66cc0138b8fabc209247f72d758e1cf3343756d543badbf24212bed8c150155506112cf613170565b7f152ec8ae15d347b2d2a8f0858caa29bcaaa0906749a1f43e08bfe799834602403082604051611300929190614741565b60405180910390a16015546001600160a01b031615610d765760155460405163253b91a760e11b8152600481018390526001600160a01b0390911690634a77234e906024015b600060405180830381600087803b15801561136057600080fd5b505af115801561089d573d6000803e3d6000fd5b6008546001600160a01b03163314806113985750611398634e46f22360e01b611d98565b6113b45760405162461bcd60e51b815260040161070c90615158565b6003601382815481106113c9576113c9614707565b60009182526020909120600560069092020181015460ff16908111156113f1576113f1613c9b565b1461140e5760405162461bcd60e51b815260040161070c906154bf565b73__$3ec311f63f1cd166364ee887ad77eb9bd8$__6359111fb560138381548110610d1157610d11614707565b6000805b6011548110156115765760118054600091601d918391908590811061146657611466614707565b9060005260206000209060020201600001548152602001908152602001600020848154811061149757611497614707565b9060005260206000200180546114ac906146d3565b80601f01602080910402602001604051908101604052809291908181526020018280546114d8906146d3565b80156115255780601f106114fa57610100808354040283529160200191611525565b820191906000526020600020905b81548152906001019060200180831161150857829003601f168201915b505050505080602001905181019061153d9190615181565b9050806001600160a01b0316856001600160a01b03160361156357600192505050610627565b508061156e816150b6565b91505061143f565b5060009392505050565b6000818152601d60205260409020805460609190610f4a9060019061519e565b6000601382815481106115b5576115b5614707565b600091825260209091206005600690920201015460ff1692915050565b600680546007546008546009546040805160e081018252600c80546001600160a01b039081168352600d54602080850191909152600e5484860152600f546060850152601080548651818402810184019097528087529983169a9883169997909216979596939492936080860193929183018282801561167157602002820191906000526020600020905b81548152602001906001019080831161165d575b5050505050815260200160058201805480602002602001604051908101604052809291908181526020016000905b828210156117335783829060005260206000209060020201604051806040016040529081600082015481526020016001820180548060200260200160405190810160405280929190818152602001828054801561171b57602002820191906000526020600020905b815481526020019060010190808311611707575b5050505050815250508152602001906001019061169f565b50505050815260200160068201805480602002602001604051908101604052809291908181526020016000905b828210156117b257600084815260209081902060408051606081018252600286029092018054835260019081015460ff8082168587015261010090910416918301919091529083529092019101611760565b5050505081525050905085565b60606013805480602002602001604051908101604052809291908181526020016000905b828210156118c95760008481526020908190206040805160c0810182526006860290920180546001600160a01b03168352600181015483850152600281015483830152600381015460608401526004810180548351818702810187019094528084529394919360808601939283018282801561187e57602002820191906000526020600020905b81548152602001906001019080831161186a575b505050918352505060058281015460209092019160ff16908111156118a5576118a5613c9b565b60058111156118b6576118b6613c9b565b81525050815260200190600101906117e3565b50505050905090565b6007546001600160a01b03163314806118f657506118f66380b204b760e01b611d98565b6119125760405162461bcd60e51b815260040161070c906150cf565b600d5481146119335760405162461bcd60e51b815260040161070c906154f1565b60016013848154811061194857611948614707565b60009182526020909120600560069092020181015460ff169081111561197057611970613c9b565b146119ac5760405162461bcd60e51b815260206004820152600c60248201526b139bdd08115e1958dd5d195960a21b604482015260640161070c565b73__$3ec311f63f1cd166364ee887ad77eb9bd8$__636a0a24f1601385815481106119d9576119d9614707565b906000526020600020906006020184846040518463ffffffff1660e01b8152600401611a0793929190615528565b60006040518083038186803b158015611a1f57600080fd5b505af4158015611a33573d6000803e3d6000fd5b50505050611a4083613136565b505050565b611a556381296f6f60e01b611d98565b611a715760405162461bcd60e51b815260040161070c90615542565b60008281526002602090815260409091208251611a4092840190613949565b6007546001600160a01b0316331480611ab45750611ab4638602ce1b60e01b611d98565b611ad05760405162461bcd60e51b815260040161070c906150cf565b6000828152601e6020526040902054600b8054600392908110611af557611af5614707565b600091825260209091206001600590920201015460ff166003811115611b1d57611b1d613c9b565b14611b635760405162461bcd60e51b81526020600482015260166024820152751bdb9b1e48125b99d95cdd151e5c194b93585b9d585b60521b604482015260640161070c565b611b6d82826133ee565b604051600080516020615d2183398151915290600090a15050565b6008546001600160a01b0316331480611bac5750611bac6387dfee5760e01b611d98565b611bc85760405162461bcd60e51b815260040161070c90615158565b600360138381548110611bdd57611bdd614707565b60009182526020909120600560069092020181015460ff1690811115611c0557611c05613c9b565b14611c225760405162461bcd60e51b815260040161070c906154bf565b60178281548110611c3557611c35614707565b90600052602060002001544211611c5e5760405162461bcd60e51b815260040161070c9061471d565b600d54815114611c805760405162461bcd60e51b815260040161070c906154f1565b6004546013805473__$3ec311f63f1cd166364ee887ad77eb9bd8$__92631b948e49926001600160a01b039091169186908110611cbf57611cbf614707565b9060005260206000209060060201846040518463ffffffff1660e01b8152600401611cec93929190615569565b60006040518083038186803b158015611d0457600080fd5b505af4158015610a5d573d6000803e3d6000fd5b601354604051635cc1f6b560e01b815260009173__$3ec311f63f1cd166364ee887ad77eb9bd8$__91635cc1f6b591611d5791600b91906004016155c6565b602060405180830381865af4158015611d74573d6000803e3d6000fd5b505050506040513d601f19601f8201168201806040525081019061101491906151b5565b3360009081526001602052604081205460ff1615611e1e576040516311247ecf60e11b81526000903390632248fd9e90611dd690869060040161433f565b602060405180830381865afa158015611df3573d6000803e3d6000fd5b505050506040513d601f19601f82011682018060405250810190611e1791906151b5565b9392505050565b506000919050565b611e2e611d18565b1515600114611e715760405162461bcd60e51b815260206004820152600f60248201526e1a5b99d95cdd1cc81a5b9d985b1a59608a1b604482015260640161070c565b73__$3ec311f63f1cd166364ee887ad77eb9bd8$__632dd4082482600460009054906101000a90046001600160a01b031660138581548110611eb557611eb5614707565b60009182526020808320601854601454600f548652601d9384905260409095208054600690950290920194600c9491926001600160a01b03909116918b908110611f0157611f01614707565b906000526020600020018054611f16906146d3565b80601f0160208091040260200160405190810160405280929190818152602001828054611f42906146d3565b8015611f8f5780601f10611f6457610100808354040283529160200191611f8f565b820191906000526020600020905b815481529060010190602001808311611f7257829003601f168201915b5050505050806020019051810190611fa791906156df565b60405160e08a901b6001600160e01b031916815260048101989098526001600160a01b03968716602489015260448801959095526064870193909352608486019190915260a485015290911660c483015260e48201526101040160006040518083038186803b15801561201957600080fd5b505af415801561202d573d6000803e3d6000fd5b50505050610d768161348c565b612042610ff4565b6001600160a01b0316336001600160a01b0316146120905760405162461bcd60e51b815260206004820152600b60248201526a27b7363c902bb934ba32b960a91b604482015260640161070c565b6001601380546120a29060019061519e565b815481106120b2576120b2614707565b60009182526020909120600560069092020181015460ff16908111156120da576120da613c9b565b146121125760405162461bcd60e51b8152602060048201526008602482015267111a5cd8589b195960c21b604482015260640161070c565b7f7399fd48fdfaf111111c20e282a8837c6803b6631b3b7b5e30b3b97d682d21b6838333846040516121479493929190615721565b60405180910390a1505050565b6000818152601d60209081526040808320805482518185028101850190935280835260609492939192909184015b8282101561222e5783829060005260206000200180546121a1906146d3565b80601f01602080910402602001604051908101604052809291908181526020018280546121cd906146d3565b801561221a5780601f106121ef5761010080835404028352916020019161221a565b820191906000526020600020905b8154815290600101906020018083116121fd57829003601f168201915b505050505081526020019060010190612182565b505050509050919050565b6122416139bc565b6040805160e081018252600680546001600160a01b0390811683526007548116602080850191909152600854909116838501526009546060840152600a80548551818402810184019096528086529394929360808601939260009084015b82821015612378576000848152602090819020604080518082019091526002850290910180546001600160a01b0316825260018101805492939192918401916122e7906146d3565b80601f0160208091040260200160405190810160405280929190818152602001828054612313906146d3565b80156123605780601f1061233557610100808354040283529160200191612360565b820191906000526020600020905b81548152906001019060200180831161234357829003601f168201915b5050505050815250508152602001906001019061229f565b50505050815260200160058201805480602002602001604051908101604052809291908181526020016000905b828210156124c057838290600052602060002090600502016040518060a0016040529081600082015481526020016001820160009054906101000a900460ff1660038111156123f6576123f6613c9b565b600381111561240757612407613c9b565b8152602001600282015481526020016003820154815260200160048201805461242f906146d3565b80601f016020809104026020016040519081016040528092919081815260200182805461245b906146d3565b80156124a85780601f1061247d576101008083540402835291602001916124a8565b820191906000526020600020905b81548152906001019060200180831161248b57829003601f168201915b505050505081525050815260200190600101906123a5565b505050908252506040805160e0810182526006840180546001600160a01b03168252600785015460208381019190915260088601548385015260098601546060840152600a86018054855181840281018401909652808652958201959394929360808601939283018282801561255557602002820191906000526020600020905b815481526020019060010190808311612541575b5050505050815260200160058201805480602002602001604051908101604052809291908181526020016000905b82821015612617578382906000526020600020906002020160405180604001604052908160008201548152602001600182018054806020026020016040519081016040528092919081815260200182805480156125ff57602002820191906000526020600020905b8154815260200190600101908083116125eb575b50505050508152505081526020019060010190612583565b50505050815260200160068201805480602002602001604051908101604052809291908181526020016000905b8282101561269657600084815260209081902060408051606081018252600286029092018054835260019081015460ff8082168587015261010090910416918301919091529083529092019101612644565b50505091525050905250919050565b6126b5636455fb6d60e11b611d98565b6126d15760405162461bcd60e51b815260040161070c90615542565b6126dc816001614816565b601783815481106126ef576126ef614707565b6000918252602090912001555050565b600c546040516370a0823160e01b81526000916001600160a01b0316906370a0823190612730903090600401613cf7565b602060405180830381865afa15801561274d573d6000803e3d6000fd5b505050506040513d601f19601f8201168201806040525081019061101491906156df565b60003382604051602001612786929190615751565b60408051601f1981840301815291815281516020928301206000818152601c909352912054600b80549293506127de9290919081106127c7576127c7614707565b906000526020600020906005020160030154610d79565b6001600160a01b0316336001600160a01b03161461280e5760405162461bcd60e51b815260040161070c9061576e565b6000818152601c6020526040812054600b8054909190811061283257612832614707565b600091825260209091206001600590920201015460ff16600381111561285a5761285a613c9b565b146128905760405162461bcd60e51b81526020600482015260066024820152653737ba1021b160d11b604482015260640161070c565b6000818152601c6020526040902054600b805490919081106128b4576128b4614707565b6000918252602082206005909102018054916128cf836150b6565b90915550506000818152601c6020526040902054600b8054612a5c929081106128fa576128fa614707565b906000526020600020906005020160020154336001600160a01b0316633f4fb5aa600660050160196003016000878152602001908152602001600020548154811061294757612947614707565b90600052602060002090600502016004018054612963906146d3565b80601f016020809104026020016040519081016040528092919081815260200182805461298f906146d3565b80156129dc5780601f106129b1576101008083540402835291602001916129dc565b820191906000526020600020905b8154815290600101906020018083116129bf57829003601f168201915b50505050508060200190518101906129f491906156df565b6040518263ffffffff1660e01b8152600401612a1291815260200190565b600060405180830381865afa158015612a2f573d6000803e3d6000fd5b505050506040513d6000823e601f3d908101601f19168201604052612a57919081019061579d565b6133ee565b6000818152601c602052604081208190556019805491612a7b8361580a565b9091555050604051600080516020615d2183398151915290600090a15050565b6016548111612ae45760405162461bcd60e51b8152602060048201526015602482015274736f6c766572206e6f7420646f776e73747265616d60581b604482015260640161070c565b612aed81610d79565b6001600160a01b0316336001600160a01b031614612b1d5760405162461bcd60e51b815260040161070c9061576e565b6000828152601d602052604090205415801590612b4957506013546000838152601d6020526040902054145b15612b9b5760405163de3a23c560e01b815260048101839052339063de3a23c590602401600060405180830381600087803b158015612b8757600080fd5b505af1158015610a5d573d6000803e3d6000fd5b6000828152601b60209081526040822080546001810182559083529082200180546001600160a01b03191633179055601a805491612bd8836150b6565b91905055505b5050565b6060601f805480602002602001604051908101604052809291908181526020018280548015612c5d57602002820191906000526020600020906000905b82829054906101000a900460e01b6001600160e01b03191681526020019060040190602082600301049283019260010382029150808411612c1f5790505b5050505050905090565b6007546000906001600160a01b0316331480612c8e5750612c8e631da4ba2f60e31b611d98565b612cc85760405162461bcd60e51b815260206004820152600b60248201526a27b7363c9035b2b2b832b960a91b604482015260640161070c565b6015546001600160a01b031615612d0d5760405162461bcd60e51b815260206004820152600960248201526812185cc818da1a5b1960ba1b604482015260640161070c565b6003546016546018546040516386a2d22760e01b815273__$3ec311f63f1cd166364ee887ad77eb9bd8$__936386a2d22793612d5f93620100009092046001600160a01b031692889290600401615bb6565b602060405180830381865af4158015612d7c573d6000803e3d6000fd5b505050506040513d601f19601f82011682018060405250810190612da09190615181565b601580546001600160a01b0319166001600160a01b0392909216918217905592915050565b63f23a6e6160e01b5b9695505050505050565b612e0d6040805160c081018252600080825260208201819052918101829052606080820183905260808201529060a082015290565b60138281548110612e2057612e20614707565b60009182526020918290206040805160c081018252600690930290910180546001600160a01b031683526001810154838501526002810154838301526003810154606084015260048101805483518187028101870190945280845293949193608086019392830182828015612eb457602002820191906000526020600020905b815481526020019060010190808311612ea0575b505050918352505060058281015460209092019160ff1690811115612edb57612edb613c9b565b6005811115612eec57612eec613c9b565b90525092915050565b6001600160a01b03163b151590565b60006001600160e01b0319821663fecfce0160e01b148061062757506001600160e01b031982166301ffc9a760e01b1492915050565b60006001600160e01b03198216630271189760e51b148061062757506301ffc9a760e01b6001600160e01b0319831614610627565b600354600090610100900460ff1615612fb7578160ff166001148015612f9b5750612f9930612ef5565b155b611e1e5760405162461bcd60e51b815260040161070c90615ca6565b60035460ff808416911610612fde5760405162461bcd60e51b815260040161070c90615ca6565b506003805460ff191660ff92909216919091179055600190565b60005b81811015611a4057600180600085858581811061301a5761301a614707565b905060200281019061302c91906147e0565b61303a90602081019061475a565b6001600160a01b031681526020810191909152604001600020805460ff191691151591909117905582828281811061307457613074614707565b905060200281019061308691906147e0565b61309490602081019061475a565b6001600160a01b0316633cef64cc8484848181106130b4576130b4614707565b90506020028101906130c691906147e0565b6130d490602081019061489d565b6040518363ffffffff1660e01b81526004016130f1929190615cf4565b600060405180830381600087803b15801561310b57600080fd5b505af115801561311f573d6000803e3d6000fd5b50505050808061312e906150b6565b915050612ffb565b600954613144906001614816565b61314e9042615d08565b6017828154811061316157613161614707565b60009182526020909120015550565b60005b600b548110156133d4576000600b80548390811061319357613193614707565b600091825260209091206001600590920201015460ff1660038111156131bb576131bb613c9b565b146131f1576131ec600660050182815481106131d9576131d9614707565b90600052602060002090600502016135c2565b6133c2565b6000306001600160a01b0316633837b05e6006600501848154811061321857613218614707565b9060005260206000209060050201600301546040518263ffffffff1660e01b815260040161324891815260200190565b602060405180830381865afa158015613265573d6000803e3d6000fd5b505050506040513d601f19601f820116820180604052508101906132899190615181565b905061329581836136ae565b806001600160a01b031663df33cc51600660050184815481106132ba576132ba614707565b906000526020600020906005020160040180546132d6906146d3565b80601f0160208091040260200160405190810160405280929190818152602001828054613302906146d3565b801561334f5780601f106133245761010080835404028352916020019161334f565b820191906000526020600020905b81548152906001019060200180831161333257829003601f168201915b505050505080602001905181019061336791906156df565b6016546040516001600160e01b031960e085901b16815260048101929092526024820152604401600060405180830381600087803b1580156133a857600080fd5b505af11580156133bc573d6000803e3d6000fd5b50505050505b806133cc816150b6565b915050613173565b50604051600080516020615d2183398151915290600090a1565b6013546133fd9060019061519e565b6000838152601d6020526040902054146134505760405162461bcd60e51b815260206004820152601460248201527314db1bdd081d995c9cda5bdb881a5b9d985b1a5960621b604482015260640161070c565b6000828152601d6020908152604082208054600181018255908352918190208351613482939190910191840190613949565b50612bde826137c4565b6015546001600160a01b0316158015906135185750601560009054906101000a90046001600160a01b03166001600160a01b031663999925066040518163ffffffff1660e01b8152600401602060405180830381865afa1580156134f4573d6000803e3d6000fd5b505050506040513d601f19601f8201168201806040525081019061351891906151b5565b801561358c57506015546040516344c3b60760e01b8152600481018390526001600160a01b03909116906344c3b60790602401602060405180830381865afa158015613568573d6000803e3d6000fd5b505050506040513d601f19601f8201168201806040525081019061358c91906151b5565b15610d765760155460405163b992db0f60e01b8152600481018390526001600160a01b039091169063b992db0f90602401611346565b600181015460039060ff16818111156135dd576135dd613c9b565b11156136205760405162461bcd60e51b8152602060048201526012602482015271496e76616c696420696e676573745479706560701b604482015260640161070c565b805481600061362e836150b6565b9091555060039050600182015460ff16600381111561364f5761364f613c9b565b14610d7657600281015460405163b3d7370760e01b815260048101839052610d76919073__$3ec311f63f1cd166364ee887ad77eb9bd8$__9063b3d7370790602401600060405180830381865af4158015612a2f573d6000803e3d6000fd5b806019600301600084600660050185815481106136cd576136cd614707565b906000526020600020906005020160040180546136e9906146d3565b80601f0160208091040260200160405190810160405280929190818152602001828054613715906146d3565b80156137625780601f1061373757610100808354040283529160200191613762565b820191906000526020600020905b81548152906001019060200180831161374557829003601f168201915b505050505080602001905181019061377a91906156df565b60405160200161378b929190615751565b60408051601f198184030181529181528151602092830120835290820192909252016000908120919091556019805491612bd8836150b6565b60005b6000828152601b6020526040902054811015612bde576000828152601b602052604081208054839081106137fd576137fd614707565b6000918252602090912001546001600160a01b0316146138ec576000828152601b6020526040902080548290811061383757613837614707565b60009182526020909120015460405163de3a23c560e01b8152600481018490526001600160a01b039091169063de3a23c590602401600060405180830381600087803b15801561388657600080fd5b505af115801561389a573d6000803e3d6000fd5b5050506000838152601b602052604090208054909150829081106138c0576138c0614707565b6000918252602082200180546001600160a01b0319169055601a8054916138e68361580a565b91905055505b806138f6816150b6565b9150506137c7565b828054828255906000526020600020908101928215613939579160200282015b8281111561393957825182559160200191906001019061391e565b50613945929150613a5d565b5090565b828054613955906146d3565b90600052602060002090601f0160209004810192826139775760008555613939565b82601f1061399057805160ff1916838001178555613939565b82800160010185558215613939579182018281111561393957825182559160200191906001019061391e565b6040518060e0016040528060006001600160a01b0316815260200160006001600160a01b0316815260200160006001600160a01b03168152602001600081526020016060815260200160608152602001613a586040518060e0016040528060006001600160a01b031681526020016000815260200160008152602001600080191681526020016060815260200160608152602001606081525090565b905290565b5b808211156139455760008155600101613a5e565b600060208284031215613a8457600080fd5b81356001600160e01b031981168114611e1757600080fd5b600060208284031215613aae57600080fd5b5035919050565b60005b83811015613ad0578181015183820152602001613ab8565b83811115613adf576000848401525b50505050565b60008151808452613afd816020860160208601613ab5565b601f01601f19169290920160200192915050565b602081526000611e176020830184613ae5565b6001600160a01b0381168114610d7657600080fd5b8035610e8581613b24565b600060e08284031215613b5657600080fd5b50919050565b600080600080600060a08688031215613b7457600080fd5b8535613b7f81613b24565b94506020860135613b8f81613b24565b93506040860135613b9f81613b24565b92506060860135915060808601356001600160401b03811115613bc157600080fd5b613bcd88828901613b44565b9150509295509295909350565b60008083601f840112613bec57600080fd5b5081356001600160401b03811115613c0357600080fd5b6020830191508360208260051b8501011115613c1e57600080fd5b9250929050565b600080600080600060808688031215613c3d57600080fd5b8535613c4881613b24565b9450602086013593506040860135925060608601356001600160401b03811115613c7157600080fd5b613c7d88828901613bda565b969995985093965092949392505050565b6001600160a01b03169052565b634e487b7160e01b600052602160045260246000fd5b60068110613cc157613cc1613c9b565b9052565b6001600160a01b038616815260208101859052604081018490526060810183905260a08101612dce6080830184613cb1565b6001600160a01b0391909116815260200190565b60008083601f840112613d1d57600080fd5b5081356001600160401b03811115613d3457600080fd5b602083019150836020828501011115613c1e57600080fd5b60008060208385031215613d5f57600080fd5b82356001600160401b03811115613d7557600080fd5b613d8185828601613d0b565b90969095509350505050565b60008060408385031215613da057600080fd5b8235613dab81613b24565b946020939093013593505050565b602081016106278284613cb1565b600081518084526020808501945080840160005b83811015613df757815187529582019590820190600101613ddb565b509495945050505050565b600081518084526020808501945080840160005b83811015613df7578151805188528381015160ff908116858a0152604091820151169088015260609096019590820190600101613e16565b60018060a01b0381511682526000602080830151818501526040808401518186015260608085015181870152608085015160e06080880152613e9360e0880182613dc7565b905060a086015187820360a08901528181518084528684019150868160051b85010187840193506000805b83811015613f2657868303601f190185528551805184528a01518a84018a905280518a8501819052908b019083908a8601905b80831015613f115783518252928d019260019290920191908d0190613ef1565b50978c0197968c019694505050600101613ebe565b505060c08a015197508a810360c08c0152613f418189613e02565b9b9a5050505050505050505050565b6001600160a01b0386811682528581166020830152841660408201526060810183905260a060808201819052600090613f8b90830184613e4e565b979650505050505050565b60018060a01b0381511682526020810151602083015260408101516040830152606081015160608301526000608082015160c06080850152613fdb60c0850182613dc7565b905060a0830151613fef60a0860182613cb1565b509392505050565b6000602080830181845280855180835260408601915060408160051b870101925083870160005b8281101561404c57603f1988860301845261403a858351613f96565b9450928501929085019060010161401e565b5092979650505050505050565b60008060006040848603121561406e57600080fd5b8335925060208401356001600160401b0381111561408b57600080fd5b61409786828701613bda565b9497909650939450505050565b634e487b7160e01b600052604160045260246000fd5b60405160c081016001600160401b03811182821017156140dc576140dc6140a4565b60405290565b604051601f8201601f191681016001600160401b038111828210171561410a5761410a6140a4565b604052919050565b60006001600160401b0382111561412b5761412b6140a4565b50601f01601f191660200190565b6000806040838503121561414c57600080fd5b8235915060208301356001600160401b0381111561416957600080fd5b8301601f8101851361417a57600080fd5b803561418d61418882614112565b6140e2565b8181528660208385010111156141a257600080fd5b816020840160208301376000602083830101528093505050509250929050565b60006001600160401b038211156141db576141db6140a4565b5060051b60200190565b600080604083850312156141f857600080fd5b823591506020808401356001600160401b0381111561421657600080fd5b8401601f8101861361422757600080fd5b8035614235614188826141c2565b81815260059190911b8201830190838101908883111561425457600080fd5b928401925b8284101561427257833582529284019290840190614259565b80955050505050509250929050565b60008060008060008060008060a0898b03121561429d57600080fd5b88356142a881613b24565b975060208901356142b881613b24565b965060408901356001600160401b03808211156142d457600080fd5b6142e08c838d01613bda565b909850965060608b01359150808211156142f957600080fd5b6143058c838d01613bda565b909650945060808b013591508082111561431e57600080fd5b5061432b8b828c01613d0b565b999c989b5096995094979396929594505050565b6001600160e01b031991909116815260200190565b60008060006040848603121561436957600080fd5b83356001600160401b0381111561437f57600080fd5b61438b86828701613d0b565b909790965060209590950135949350505050565b6000602080830181845280855180835260408601915060408160051b870101925083870160005b8281101561404c57603f198886030184526143e2858351613ae5565b945092850192908501906001016143c6565b600081518084526020808501808196508360051b8101915082860160005b85811015614459578284038952815180516001600160a01b03168552850151604086860181905261444581870183613ae5565b9a87019a9550505090840190600101614412565b5091979650505050505050565b60048110613cc157613cc1613c9b565b600081518084526020808501808196508360051b8101915082860160005b85811015614459578284038952815160a081518652868201516144b988880182614466565b5060408281015190870152606080830151908701526080918201519186018190526144e681870183613ae5565b9a87019a9550505090840190600101614494565b60208152600060018060a01b0380845116602084015280602085015116604084015250604083015161452f6060840182613c8e565b5060608301516080830152608083015160e060a08401526145546101008401826143f4565b905060a0840151601f19808584030160c08601526145728383614476565b925060c08601519150808584030160e0860152506145908282613e4e565b95945050505050565b600080604083850312156145ac57600080fd5b50508035926020909101359150565b6020808252825182820181905260009190848201906040850190845b818110156145fd5783516001600160e01b031916835292840192918401916001016145d7565b50909695505050505050565b60006020828403121561461b57600080fd5b81356001600160401b0381111561463157600080fd5b61463d84828501613b44565b949350505050565b60008060008060008060a0878903121561465e57600080fd5b863561466981613b24565b9550602087013561467981613b24565b9450604087013593506060870135925060808701356001600160401b038111156146a257600080fd5b6146ae89828a01613d0b565b979a9699509497509295939492505050565b602081526000611e176020830184613f96565b600181811c908216806146e757607f821691505b602082108103613b5657634e487b7160e01b600052602260045260246000fd5b634e487b7160e01b600052603260045260246000fd5b6020808252600a9082015269151a5b595b1bd8dad95960b21b604082015260600190565b6001600160a01b03929092168252602082015260400190565b60006020828403121561476c57600080fd5b8135611e1781613b24565b80546001600160a01b0319166001600160a01b0392909216919091179055565b6000808335601e198436030181126147ae57600080fd5b8301803591506001600160401b038211156147c857600080fd5b6020019150600581901b3603821315613c1e57600080fd5b60008235603e198336030181126147f657600080fd5b9190910192915050565b634e487b7160e01b600052601160045260246000fd5b600081600019048311821515161561483057614830614800565b500290565b5b81811015612bde5760008155600101614836565b61485481546146d3565b8015612bde57601f81116001811461486e57505060009055565b82600052602060002061488c601f840160051c820160018301614835565b506020600090812081855555505050565b6000808335601e198436030181126148b457600080fd5b8301803591506001600160401b038211156148ce57600080fd5b602001915036819003821315613c1e57600080fd5b601f821115611a4057806000526020600020601f840160051c8101602085101561490a5750805b61089d601f850160051c830182614835565b813561492781613b24565b6149318183614777565b50600180820160206149458186018661489d565b6001600160401b0381111561495c5761495c6140a4565b6149708161496a86546146d3565b866148e3565b6000601f8211600181146149a4576000831561498c5750838201355b600019600385901b1c1916600184901b178655610b09565b600086815260209020601f19841690835b828110156149d257868501358255938701939089019087016149b5565b50848210156149ef5760001960f88660031b161c19848701351681555b50505050841b90930190915550505050565b60008235609e198336030181126147f657600080fd5b60048110610d7657600080fd5b813581556001808201602080850135614a3c81614a17565b60048110614a4c57614a4c613c9b565b60ff1983541660ff82168117845550506040850135600285015560608501356003850155600484019150614945608086018661489d565b600160401b831115614a9757614a976140a4565b805483825580841015614b3b577f33333333333333333333333333333333333333333333333333333333333333336001818311811615614ad957614ad9614800565b6005828711821615614aed57614aed614800565b600085815260208120909350878202810190828602015b80821015614b35578482558484830155846002830155846003830155614b2c6004830161484a565b90820190614b04565b50505050505b5060008181526020812083915b85811015610a5d57614b63614b5d8487614a01565b83614a24565b6020929092019160059190910190600101614b48565b6000823560de198336030181126147f657600080fd5b805460008083558115611a4057828152602081208281015b8082101561089d57828255600182019150614ba7565b8135815560018082016020614bd481860186614797565b600160401b811115614be857614be86140a4565b835481855580821015614c1c5760008581528481208381019083015b80821015614c185782825590880190614c04565b5050505b506000938452828420935b81811015614c42578235855593850193918301918501614c27565b5050505050505050565b600160401b831115614c6057614c606140a4565b805483825580841015614cd8576001600160ff1b036001818311811615614c8957614c89614800565b818611811615614c9b57614c9b614800565b60008481526020812090925086821b81019084831b015b80821015614cd357838255614cc8838301614b8f565b600282019150614cb2565b505050505b5060008181526020812083915b85811015610a5d57614d00614cfa84876147e0565b83614bbd565b6020929092019160029190910190600101614ce5565b6000808335601e19843603018112614d2d57600080fd5b8301803591506001600160401b03821115614d4757600080fd5b6020019150606081023603821315613c1e57600080fd5b60ff81168114610d7657600080fd5b81358155600181016020830135614d8381614d5e565b81546040850135614d9381614d5e565b61ff008160081b1660ff841661ffff19841617178455505050505050565b600160401b831115614dc557614dc56140a4565b805483825580841015614e37576001600160ff1b036001818311811615614dee57614dee614800565b818611811615614e0057614e00614800565b60008481526020812090925086821b81019084831b015b80821015614e32578382558383830155600282019150614e17565b505050505b5060008181526020812083915b85811015610a5d57614e568383614d6d565b6060929092019160029190910190600101614e44565b8135614e7781613b24565b614e818183614777565b50600160208084013582840155604084013560028401556060840135600384015560048301614eb36080860186614797565b600160401b811115614ec757614ec76140a4565b825481845580821015614eec578360005284600020614eea828201848301614835565b505b506000928352838320925b81811015614f12578235845592850192918401918501614ef7565b505050505050614f2560a0830183614797565b614f33818360058601614c4c565b5050614f4260c0830183614d16565b613adf818360068601614db1565b8135614f5b81613b24565b614f658183614777565b506001602080840135614f7781613b24565b614f8381848601614777565b5060026040850135614f9481613b24565b614fa081838701614777565b506060850135600385015560048401614fbc6080870187614797565b600160401b811115614fd057614fd06140a4565b825481845580821015615040576001600160ff1b03808211881615614ff757614ff7614800565b80831188161561500957615009614800565b50600084815286812083891b810190838a1b015b8082101561503c578282556150338a830161484a565b9087019061501d565b5050505b506000928352602083209282905b828110156150785761506961506383866147e0565b8661491c565b9385019390860190870161504e565b505050505050505061508d60a0830183614797565b61509b818360058601614a83565b5050612bde6150ad60c0840184614b79565b60068301614e6c565b6000600182016150c8576150c8614800565b5060010190565b6020808252600b908201526a27b7363c9025b2b2b832b960a91b604082015260600190565b81835260006001600160fb1b0383111561510d57600080fd5b8260051b8083602087013760009401602001938452509192915050565b60018060a01b0386168152846020820152836040820152608060608201526000613f8b6080830184866150f4565b6020808252600f908201526e27b7363c9030b93134ba3930ba37b960891b604082015260600190565b60006020828403121561519357600080fd5b8151611e1781613b24565b6000828210156151b0576151b0614800565b500390565b6000602082840312156151c757600080fd5b81518015158114611e1757600080fd5b6000815480845260208085019450836000528060002060005b83811015613df7578154875295820195600191820191016151f0565b600081548084526020808501808196508360051b810191506000868152838120815b8681101561529a578385038a52815485526040868601819052600180840180549288018390528552878520606088019290919086905b808210156152815783548552938a01939282019290820190615264565b5050509a87019a5094506002919091019060010161522e565b509298975050505050505050565b6000815480845260208085019450836000528060002060005b83811015613df7578154875260018083015460ff808216868b015260089190911c166040890152606090970196600290920191016152c1565b600060018060a01b0380871683526080602084015261531f6080840182885416613c8e565b50600185015460a0830152600285015460c0830152600385015460e083015260e06101008301526153576101608301600487016151d7565b607f198084830301610120850152615372826005890161520c565b915080848303016101408501525061538d81600688016152a8565b91505061539d6040830185613c8e565b82606083015295945050505050565b805160068110610e8557600080fd5b600060208083850312156153ce57600080fd5b82516001600160401b03808211156153e557600080fd5b9084019060c082870312156153f957600080fd5b6154016140ba565b825161540c81613b24565b808252508383015184820152604083015160408201526060830151606082015260808301518281111561543e57600080fd5b83019150601f8201871361545157600080fd5b815161545f614188826141c2565b81815260059190911b8301850190858101908983111561547e57600080fd5b938601935b8285101561549c57845182529386019390860190615483565b6080840152506154b0905060a084016153ac565b60a08201529695505050505050565b602080825260189082015277139bdd08105c989a5d1c985d1a5bdb94995c5d595cdd195960421b604082015260600190565b6020808252601e908201527f6c656e677468206d757374206d61746368206f7574636f6d65536c6f74730000604082015260600190565b8381526040602082015260006145906040830184866150f4565b6020808252600d908201526c139bdd081c195c9b5a5d1d1959609a1b604082015260600190565b6001600160a01b038416815260208082018490526060604083018190528351908301819052600091848101916080850190845b818110156155b85784518352938301939183019160010161559c565b509098975050505050505050565b6000604082016040835280855480835260608501915060608160051b8601019250600087815260208120815b838110156156ca57878603605f1901855281548652600182015460ff1661561c6020880182614466565b5060028201546040870152600382015460608701526004820160a06080880152838154615648816146d3565b8060a08b01526001821660008114615667576001811461567c576156ad565b60ff19831660c08c015260e08b0193506156ad565b84885260208820885b838110156156a45781548d820160c00152600190910190602001615685565b8c0160c0019450505b5091985050506020959095019450600591909101906001016155f2565b50505050506020929092019290925292915050565b6000602082840312156156f157600080fd5b5051919050565b81835281816020850137506000828201602090810191909152601f909101601f19169091010190565b6060815260006157356060830186886156f8565b6001600160a01b03949094166020830152506040015292915050565b60609290921b6001600160601b0319168252601482015260340190565b60208082526015908201527436b9b39739b2b73232b9103737ba1039b7b63b32b960591b604082015260600190565b6000602082840312156157af57600080fd5b81516001600160401b038111156157c557600080fd5b8201601f810184136157d657600080fd5b80516157e461418882614112565b8181528560208385010111156157f957600080fd5b614590826020830160208601613ab5565b60008161581957615819614800565b506000190190565b6000808335601e1984360301811261583857600080fd5b83016020810192503590506001600160401b0381111561585757600080fd5b8060051b3603831315613c1e57600080fd5b6000808335601e1984360301811261588057600080fd5b83016020810192503590506001600160401b0381111561589f57600080fd5b803603831315613c1e57600080fd5b60008235603e198336030181126158c457600080fd5b90910192915050565b81835260006020808501808196508560051b810191508460005b878110156144595782840389526158fe82886158ae565b6040813561590b81613b24565b6001600160a01b0316865261592282880183615869565b9250818888015261593682880184836156f8565b9b88019b9650505091850191506001016158e7565b81835260006020808501808196508560051b81019150846000805b8881101561529a578385038a528235609e19893603018112615986578283fd5b88018035865260a08782013561599b81614a17565b6159a789890182614466565b50604082810135908801526060808301359088015260806159ca81840184615869565b935082828a01526159de838a0185836156f8565b9d8a019d98505050938701935050600101615966565b6000823560de198336030181126158c457600080fd5b6000808335601e19843603018112615a2157600080fd5b83016020810192503590506001600160401b03811115615a4057600080fd5b606081023603831315613c1e57600080fd5b8183526000602080850194508260005b85811015613df7578135875282820135615a7b81614d5e565b60ff9081168885015260409083820135615a9481614d5e565b16908801526060968701969190910190600101615a62565b60008135615ab981613b24565b6001600160a01b03168352602082810135818501526040808401358186015260608085013590860152615aef6080850185615821565b60e06080880152615b0460e0880182846150f4565b915050615b1460a0860186615821565b87830360a0890152808352848301600582901b840186018360005b84811015615b8257868303601f19018452615b4a82876158ae565b80358452615b5a8a820182615821565b9150898b860152615b6e8a860183836150f4565b958b01959450505090880190600101615b2f565b5050615b9160c08a018a615a0a565b9750955089810360c08b0152615ba8818888615a52565b9a9950505050505050505050565b6001600160a01b038581168252608060208301526000908535615bd881613b24565b166080830152615bea60208601613b39565b615bf760a0840182613c8e565b50615c0460408601613b39565b615c1160c0840182613c8e565b50606085013560e0830152615c296080860186615821565b60e0610100850152615c40610160850182846158cd565b915050615c5060a0870187615821565b607f198086850301610120870152615c6984838561594b565b9350615c7860c08a018a6159f4565b925080868503016101408701525050615c918282615aac565b60408501969096525050506060015292915050565b6020808252602e908201527f496e697469616c697a61626c653a20636f6e747261637420697320616c72656160408201526d191e481a5b9a5d1a585b1a5e995960921b606082015260800190565b60208152600061463d6020830184866156f8565b60008219821115615d1b57615d1b614800565b50019056fe71bd81ebe1d98a2944767394e76a9aff18724b2cf04e1db71254f804544b35c7a264697066735822122039e7a90e15fb41dfadbfb792a3dcd6aeb4b0195c98a6daa1fa12b84daed7000c64736f6c634300080d0033",
  "linkReferences": {
    "contracts/solvers/SolverLib.sol": {
      "SolverLib": [
        {
          "length": 20,
          "start": 2516
        },
        {
          "length": 20,
          "start": 3754
        },
        {
          "length": 20,
          "start": 4442
        },
        {
          "length": 20,
          "start": 4922
        },
        {
          "length": 20,
          "start": 5588
        },
        {
          "length": 20,
          "start": 7026
        },
        {
          "length": 20,
          "start": 7757
        },
        {
          "length": 20,
          "start": 7921
        },
        {
          "length": 20,
          "start": 8247
        },
        {
          "length": 20,
          "start": 12009
        },
        {
          "length": 20,
          "start": 14392
        }
      ]
    }
  },
  "deployedLinkReferences": {
    "contracts/solvers/SolverLib.sol": {
      "SolverLib": [
        {
          "length": 20,
          "start": 2064
        },
        {
          "length": 20,
          "start": 3302
        },
        {
          "length": 20,
          "start": 3990
        },
        {
          "length": 20,
          "start": 4470
        },
        {
          "length": 20,
          "start": 5136
        },
        {
          "length": 20,
          "start": 6574
        },
        {
          "length": 20,
          "start": 7305
        },
        {
          "length": 20,
          "start": 7469
        },
        {
          "length": 20,
          "start": 7795
        },
        {
          "length": 20,
          "start": 11557
        },
        {
          "length": 20,
          "start": 13940
        }
      ]
    }
  }
}