{
  "_format": "hh-sol-artifact-1",
  "contractName": "WriterSolverV1",
  "sourceName": "contracts/solvers/WriterSolverV1.sol",
  "abi": [
    {
      "anonymous": false,
      "inputs": [
        {
          "indexed": false,
          "internalType": "bytes32",
          "name": "conditionId",
          "type": "bytes32"
        }
      ],
      "name": "ChangedStatus",
      "type": "event"
    },
    {
      "anonymous": false,
      "inputs": [
        {
          "indexed": false,
          "internalType": "bytes32",
          "name": "conditionId",
          "type": "bytes32"
        }
      ],
      "name": "DeliveredNullArbitration",
      "type": "event"
    },
    {
      "anonymous": false,
      "inputs": [
        {
          "indexed": false,
          "internalType": "address",
          "name": "child",
          "type": "address"
        }
      ],
      "name": "DeployedChild",
      "type": "event"
    },
    {
      "anonymous": false,
      "inputs": [],
      "name": "IngestedData",
      "type": "event"
    },
    {
      "anonymous": false,
      "inputs": [
        {
          "indexed": false,
          "internalType": "uint8",
          "name": "version",
          "type": "uint8"
        }
      ],
      "name": "Initialized",
      "type": "event"
    },
    {
      "anonymous": false,
      "inputs": [
        {
          "indexed": true,
          "internalType": "address",
          "name": "module",
          "type": "address"
        },
        {
          "indexed": true,
          "internalType": "address",
          "name": "solver",
          "type": "address"
        }
      ],
      "name": "LoadedModule",
      "type": "event"
    },
    {
      "anonymous": false,
      "inputs": [
        {
          "indexed": false,
          "internalType": "address",
          "name": "solver",
          "type": "address"
        },
        {
          "indexed": false,
          "internalType": "uint256",
          "name": "solveIndex",
          "type": "uint256"
        }
      ],
      "name": "PreparedSolve",
      "type": "event"
    },
    {
      "anonymous": false,
      "inputs": [
        {
          "indexed": false,
          "internalType": "string",
          "name": "cid",
          "type": "string"
        },
        {
          "indexed": false,
          "internalType": "address",
          "name": "submitter",
          "type": "address"
        },
        {
          "indexed": false,
          "internalType": "bytes32",
          "name": "conditionId",
          "type": "bytes32"
        }
      ],
      "name": "SubmittedWork",
      "type": "event"
    },
    {
      "inputs": [
        {
          "internalType": "bytes32",
          "name": "_slot",
          "type": "bytes32"
        },
        {
          "internalType": "bytes",
          "name": "_data",
          "type": "bytes"
        }
      ],
      "name": "addData",
      "outputs": [],
      "stateMutability": "nonpayable",
      "type": "function"
    },
    {
      "inputs": [
        {
          "internalType": "uint256",
          "name": "_index",
          "type": "uint256"
        }
      ],
      "name": "addressFromChainIndex",
      "outputs": [
        {
          "internalType": "address",
          "name": "_address",
          "type": "address"
        }
      ],
      "stateMutability": "view",
      "type": "function"
    },
    {
      "inputs": [
        {
          "internalType": "uint256",
          "name": "_index",
          "type": "uint256"
        }
      ],
      "name": "allocationsValid",
      "outputs": [
        {
          "internalType": "bool",
          "name": "",
          "type": "bool"
        }
      ],
      "stateMutability": "view",
      "type": "function"
    },
    {
      "inputs": [
        {
          "internalType": "uint256",
          "name": "_index",
          "type": "uint256"
        },
        {
          "internalType": "uint256[]",
          "name": "payouts",
          "type": "uint256[]"
        }
      ],
      "name": "arbitrate",
      "outputs": [],
      "stateMutability": "nonpayable",
      "type": "function"
    },
    {
      "inputs": [
        {
          "internalType": "uint256",
          "name": "_index",
          "type": "uint256"
        }
      ],
      "name": "arbitrateNull",
      "outputs": [],
      "stateMutability": "nonpayable",
      "type": "function"
    },
    {
      "inputs": [],
      "name": "arbitrator",
      "outputs": [
        {
          "internalType": "address",
          "name": "",
          "type": "address"
        }
      ],
      "stateMutability": "view",
      "type": "function"
    },
    {
      "inputs": [],
      "name": "chainChild",
      "outputs": [
        {
          "internalType": "address",
          "name": "",
          "type": "address"
        }
      ],
      "stateMutability": "view",
      "type": "function"
    },
    {
      "inputs": [],
      "name": "chainIndex",
      "outputs": [
        {
          "internalType": "uint256",
          "name": "",
          "type": "uint256"
        }
      ],
      "stateMutability": "view",
      "type": "function"
    },
    {
      "inputs": [],
      "name": "chainParent",
      "outputs": [
        {
          "internalType": "address",
          "name": "",
          "type": "address"
        }
      ],
      "stateMutability": "view",
      "type": "function"
    },
    {
      "inputs": [],
      "name": "collateralBalance",
      "outputs": [
        {
          "internalType": "uint256",
          "name": "balance",
          "type": "uint256"
        }
      ],
      "stateMutability": "view",
      "type": "function"
    },
    {
      "inputs": [
        {
          "internalType": "uint256",
          "name": "index",
          "type": "uint256"
        }
      ],
      "name": "condition",
      "outputs": [
        {
          "components": [
            {
              "internalType": "contract IERC20",
              "name": "collateralToken",
              "type": "address"
            },
            {
              "internalType": "bytes32",
              "name": "questionId",
              "type": "bytes32"
            },
            {
              "internalType": "bytes32",
              "name": "parentCollectionId",
              "type": "bytes32"
            },
            {
              "internalType": "bytes32",
              "name": "conditionId",
              "type": "bytes32"
            },
            {
              "internalType": "uint256[]",
              "name": "payouts",
              "type": "uint256[]"
            },
            {
              "internalType": "enum SolverLib.Status",
              "name": "status",
              "type": "uint8"
            }
          ],
          "internalType": "struct SolverLib.Condition",
          "name": "",
          "type": "tuple"
        }
      ],
      "stateMutability": "view",
      "type": "function"
    },
    {
      "inputs": [
        {
          "internalType": "uint256",
          "name": "",
          "type": "uint256"
        }
      ],
      "name": "conditions",
      "outputs": [
        {
          "internalType": "contract IERC20",
          "name": "collateralToken",
          "type": "address"
        },
        {
          "internalType": "bytes32",
          "name": "questionId",
          "type": "bytes32"
        },
        {
          "internalType": "bytes32",
          "name": "parentCollectionId",
          "type": "bytes32"
        },
        {
          "internalType": "bytes32",
          "name": "conditionId",
          "type": "bytes32"
        },
        {
          "internalType": "enum SolverLib.Status",
          "name": "status",
          "type": "uint8"
        }
      ],
      "stateMutability": "view",
      "type": "function"
    },
    {
      "inputs": [],
      "name": "config",
      "outputs": [
        {
          "internalType": "contract Solver",
          "name": "implementation",
          "type": "address"
        },
        {
          "internalType": "address",
          "name": "keeper",
          "type": "address"
        },
        {
          "internalType": "address",
          "name": "arbitrator",
          "type": "address"
        },
        {
          "internalType": "uint256",
          "name": "timelockSeconds",
          "type": "uint256"
        },
        {
          "components": [
            {
              "internalType": "contract IERC20",
              "name": "collateralToken",
              "type": "address"
            },
            {
              "internalType": "uint256",
              "name": "outcomeSlots",
              "type": "uint256"
            },
            {
              "internalType": "uint256",
              "name": "parentCollectionIndexSet",
              "type": "uint256"
            },
            {
              "internalType": "bytes32",
              "name": "amountSlot",
              "type": "bytes32"
            },
            {
              "internalType": "uint256[]",
              "name": "partition",
              "type": "uint256[]"
            },
            {
              "components": [
                {
                  "internalType": "bytes32",
                  "name": "recipientAddressSlot",
                  "type": "bytes32"
                },
                {
                  "internalType": "bytes32[]",
                  "name": "recipientAmountSlots",
                  "type": "bytes32[]"
                }
              ],
              "internalType": "struct SolverLib.Allocation[]",
              "name": "allocations",
              "type": "tuple[]"
            },
            {
              "internalType": "string[]",
              "name": "outcomeURIs",
              "type": "string[]"
            }
          ],
          "internalType": "struct SolverLib.ConditionBase",
          "name": "conditionBase",
          "type": "tuple"
        }
      ],
      "stateMutability": "view",
      "type": "function"
    },
    {
      "inputs": [
        {
          "internalType": "uint256",
          "name": "_index",
          "type": "uint256"
        }
      ],
      "name": "confirmPayouts",
      "outputs": [],
      "stateMutability": "nonpayable",
      "type": "function"
    },
    {
      "inputs": [
        {
          "components": [
            {
              "internalType": "contract Solver",
              "name": "implementation",
              "type": "address"
            },
            {
              "internalType": "address",
              "name": "keeper",
              "type": "address"
            },
            {
              "internalType": "address",
              "name": "arbitrator",
              "type": "address"
            },
            {
              "internalType": "uint256",
              "name": "timelockSeconds",
              "type": "uint256"
            },
            {
              "components": [
                {
                  "internalType": "contract IModule",
                  "name": "module",
                  "type": "address"
                },
                {
                  "internalType": "bytes",
                  "name": "data",
                  "type": "bytes"
                }
              ],
              "internalType": "struct Modulated.Loader[]",
              "name": "moduleLoaders",
              "type": "tuple[]"
            },
            {
              "components": [
                {
                  "internalType": "uint256",
                  "name": "executions",
                  "type": "uint256"
                },
                {
                  "internalType": "enum SolverLib.IngestType",
                  "name": "ingestType",
                  "type": "uint8"
                },
                {
                  "internalType": "bytes32",
                  "name": "slot",
                  "type": "bytes32"
                },
                {
                  "internalType": "uint256",
                  "name": "solverIndex",
                  "type": "uint256"
                },
                {
                  "internalType": "bytes",
                  "name": "data",
                  "type": "bytes"
                }
              ],
              "internalType": "struct SolverLib.Ingest[]",
              "name": "ingests",
              "type": "tuple[]"
            },
            {
              "components": [
                {
                  "internalType": "contract IERC20",
                  "name": "collateralToken",
                  "type": "address"
                },
                {
                  "internalType": "uint256",
                  "name": "outcomeSlots",
                  "type": "uint256"
                },
                {
                  "internalType": "uint256",
                  "name": "parentCollectionIndexSet",
                  "type": "uint256"
                },
                {
                  "internalType": "bytes32",
                  "name": "amountSlot",
                  "type": "bytes32"
                },
                {
                  "internalType": "uint256[]",
                  "name": "partition",
                  "type": "uint256[]"
                },
                {
                  "components": [
                    {
                      "internalType": "bytes32",
                      "name": "recipientAddressSlot",
                      "type": "bytes32"
                    },
                    {
                      "internalType": "bytes32[]",
                      "name": "recipientAmountSlots",
                      "type": "bytes32[]"
                    }
                  ],
                  "internalType": "struct SolverLib.Allocation[]",
                  "name": "allocations",
                  "type": "tuple[]"
                },
                {
                  "internalType": "string[]",
                  "name": "outcomeURIs",
                  "type": "string[]"
                }
              ],
              "internalType": "struct SolverLib.ConditionBase",
              "name": "conditionBase",
              "type": "tuple"
            }
          ],
          "internalType": "struct SolverLib.Config",
          "name": "_config",
          "type": "tuple"
        }
      ],
      "name": "deployChild",
      "outputs": [
        {
          "internalType": "address",
          "name": "",
          "type": "address"
        }
      ],
      "stateMutability": "nonpayable",
      "type": "function"
    },
    {
      "inputs": [],
      "name": "deployerAddress",
      "outputs": [
        {
          "internalType": "address",
          "name": "",
          "type": "address"
        }
      ],
      "stateMutability": "view",
      "type": "function"
    },
    {
      "inputs": [
        {
          "internalType": "uint256",
          "name": "_index",
          "type": "uint256"
        }
      ],
      "name": "executeSolve",
      "outputs": [],
      "stateMutability": "nonpayable",
      "type": "function"
    },
    {
      "inputs": [],
      "name": "fetchPermits",
      "outputs": [
        {
          "internalType": "bytes4[]",
          "name": "",
          "type": "bytes4[]"
        }
      ],
      "stateMutability": "view",
      "type": "function"
    },
    {
      "inputs": [
        {
          "internalType": "bytes32",
          "name": "_slot",
          "type": "bytes32"
        }
      ],
      "name": "getAllData",
      "outputs": [
        {
          "internalType": "bytes[]",
          "name": "data",
          "type": "bytes[]"
        }
      ],
      "stateMutability": "view",
      "type": "function"
    },
    {
      "inputs": [
        {
          "internalType": "bytes32",
          "name": "_slot",
          "type": "bytes32"
        }
      ],
      "name": "getCallbackOutput",
      "outputs": [
        {
          "internalType": "bytes",
          "name": "data",
          "type": "bytes"
        }
      ],
      "stateMutability": "view",
      "type": "function"
    },
    {
      "inputs": [],
      "name": "getConditions",
      "outputs": [
        {
          "components": [
            {
              "internalType": "contract IERC20",
              "name": "collateralToken",
              "type": "address"
            },
            {
              "internalType": "bytes32",
              "name": "questionId",
              "type": "bytes32"
            },
            {
              "internalType": "bytes32",
              "name": "parentCollectionId",
              "type": "bytes32"
            },
            {
              "internalType": "bytes32",
              "name": "conditionId",
              "type": "bytes32"
            },
            {
              "internalType": "uint256[]",
              "name": "payouts",
              "type": "uint256[]"
            },
            {
              "internalType": "enum SolverLib.Status",
              "name": "status",
              "type": "uint8"
            }
          ],
          "internalType": "struct SolverLib.Condition[]",
          "name": "",
          "type": "tuple[]"
        }
      ],
      "stateMutability": "view",
      "type": "function"
    },
    {
      "inputs": [],
      "name": "getConfig",
      "outputs": [
        {
          "components": [
            {
              "internalType": "contract Solver",
              "name": "implementation",
              "type": "address"
            },
            {
              "internalType": "address",
              "name": "keeper",
              "type": "address"
            },
            {
              "internalType": "address",
              "name": "arbitrator",
              "type": "address"
            },
            {
              "internalType": "uint256",
              "name": "timelockSeconds",
              "type": "uint256"
            },
            {
              "components": [
                {
                  "internalType": "contract IModule",
                  "name": "module",
                  "type": "address"
                },
                {
                  "internalType": "bytes",
                  "name": "data",
                  "type": "bytes"
                }
              ],
              "internalType": "struct Modulated.Loader[]",
              "name": "moduleLoaders",
              "type": "tuple[]"
            },
            {
              "components": [
                {
                  "internalType": "uint256",
                  "name": "executions",
                  "type": "uint256"
                },
                {
                  "internalType": "enum SolverLib.IngestType",
                  "name": "ingestType",
                  "type": "uint8"
                },
                {
                  "internalType": "bytes32",
                  "name": "slot",
                  "type": "bytes32"
                },
                {
                  "internalType": "uint256",
                  "name": "solverIndex",
                  "type": "uint256"
                },
                {
                  "internalType": "bytes",
                  "name": "data",
                  "type": "bytes"
                }
              ],
              "internalType": "struct SolverLib.Ingest[]",
              "name": "ingests",
              "type": "tuple[]"
            },
            {
              "components": [
                {
                  "internalType": "contract IERC20",
                  "name": "collateralToken",
                  "type": "address"
                },
                {
                  "internalType": "uint256",
                  "name": "outcomeSlots",
                  "type": "uint256"
                },
                {
                  "internalType": "uint256",
                  "name": "parentCollectionIndexSet",
                  "type": "uint256"
                },
                {
                  "internalType": "bytes32",
                  "name": "amountSlot",
                  "type": "bytes32"
                },
                {
                  "internalType": "uint256[]",
                  "name": "partition",
                  "type": "uint256[]"
                },
                {
                  "components": [
                    {
                      "internalType": "bytes32",
                      "name": "recipientAddressSlot",
                      "type": "bytes32"
                    },
                    {
                      "internalType": "bytes32[]",
                      "name": "recipientAmountSlots",
                      "type": "bytes32[]"
                    }
                  ],
                  "internalType": "struct SolverLib.Allocation[]",
                  "name": "allocations",
                  "type": "tuple[]"
                },
                {
                  "internalType": "string[]",
                  "name": "outcomeURIs",
                  "type": "string[]"
                }
              ],
              "internalType": "struct SolverLib.ConditionBase",
              "name": "conditionBase",
              "type": "tuple"
            }
          ],
          "internalType": "struct SolverLib.Config",
          "name": "",
          "type": "tuple"
        }
      ],
      "stateMutability": "view",
      "type": "function"
    },
    {
      "inputs": [
        {
          "internalType": "bytes32",
          "name": "_slot",
          "type": "bytes32"
        }
      ],
      "name": "getData",
      "outputs": [
        {
          "internalType": "bytes",
          "name": "data",
          "type": "bytes"
        }
      ],
      "stateMutability": "view",
      "type": "function"
    },
    {
      "inputs": [
        {
          "internalType": "bytes32",
          "name": "key",
          "type": "bytes32"
        }
      ],
      "name": "getState",
      "outputs": [
        {
          "internalType": "bytes",
          "name": "data",
          "type": "bytes"
        }
      ],
      "stateMutability": "view",
      "type": "function"
    },
    {
      "inputs": [
        {
          "internalType": "uint256",
          "name": "conditionIndex",
          "type": "uint256"
        }
      ],
      "name": "getStatus",
      "outputs": [
        {
          "internalType": "enum SolverLib.Status",
          "name": "status",
          "type": "uint8"
        }
      ],
      "stateMutability": "view",
      "type": "function"
    },
    {
      "inputs": [
        {
          "internalType": "bytes32",
          "name": "_slot",
          "type": "bytes32"
        }
      ],
      "name": "handleCallback",
      "outputs": [],
      "stateMutability": "nonpayable",
      "type": "function"
    },
    {
      "inputs": [],
      "name": "ingestsValid",
      "outputs": [
        {
          "internalType": "bool",
          "name": "",
          "type": "bool"
        }
      ],
      "stateMutability": "view",
      "type": "function"
    },
    {
      "inputs": [
        {
          "internalType": "address",
          "name": "_deployer",
          "type": "address"
        },
        {
          "internalType": "address",
          "name": "_chainParent",
          "type": "address"
        },
        {
          "internalType": "uint256",
          "name": "_chainIndex",
          "type": "uint256"
        },
        {
          "components": [
            {
              "internalType": "contract Solver",
              "name": "implementation",
              "type": "address"
            },
            {
              "internalType": "address",
              "name": "keeper",
              "type": "address"
            },
            {
              "internalType": "address",
              "name": "arbitrator",
              "type": "address"
            },
            {
              "internalType": "uint256",
              "name": "timelockSeconds",
              "type": "uint256"
            },
            {
              "components": [
                {
                  "internalType": "contract IModule",
                  "name": "module",
                  "type": "address"
                },
                {
                  "internalType": "bytes",
                  "name": "data",
                  "type": "bytes"
                }
              ],
              "internalType": "struct Modulated.Loader[]",
              "name": "moduleLoaders",
              "type": "tuple[]"
            },
            {
              "components": [
                {
                  "internalType": "uint256",
                  "name": "executions",
                  "type": "uint256"
                },
                {
                  "internalType": "enum SolverLib.IngestType",
                  "name": "ingestType",
                  "type": "uint8"
                },
                {
                  "internalType": "bytes32",
                  "name": "slot",
                  "type": "bytes32"
                },
                {
                  "internalType": "uint256",
                  "name": "solverIndex",
                  "type": "uint256"
                },
                {
                  "internalType": "bytes",
                  "name": "data",
                  "type": "bytes"
                }
              ],
              "internalType": "struct SolverLib.Ingest[]",
              "name": "ingests",
              "type": "tuple[]"
            },
            {
              "components": [
                {
                  "internalType": "contract IERC20",
                  "name": "collateralToken",
                  "type": "address"
                },
                {
                  "internalType": "uint256",
                  "name": "outcomeSlots",
                  "type": "uint256"
                },
                {
                  "internalType": "uint256",
                  "name": "parentCollectionIndexSet",
                  "type": "uint256"
                },
                {
                  "internalType": "bytes32",
                  "name": "amountSlot",
                  "type": "bytes32"
                },
                {
                  "internalType": "uint256[]",
                  "name": "partition",
                  "type": "uint256[]"
                },
                {
                  "components": [
                    {
                      "internalType": "bytes32",
                      "name": "recipientAddressSlot",
                      "type": "bytes32"
                    },
                    {
                      "internalType": "bytes32[]",
                      "name": "recipientAmountSlots",
                      "type": "bytes32[]"
                    }
                  ],
                  "internalType": "struct SolverLib.Allocation[]",
                  "name": "allocations",
                  "type": "tuple[]"
                },
                {
                  "internalType": "string[]",
                  "name": "outcomeURIs",
                  "type": "string[]"
                }
              ],
              "internalType": "struct SolverLib.ConditionBase",
              "name": "conditionBase",
              "type": "tuple"
            }
          ],
          "internalType": "struct SolverLib.Config",
          "name": "_solverConfig",
          "type": "tuple"
        }
      ],
      "name": "init",
      "outputs": [],
      "stateMutability": "nonpayable",
      "type": "function"
    },
    {
      "inputs": [
        {
          "internalType": "bytes4",
          "name": "selector",
          "type": "bytes4"
        }
      ],
      "name": "isPermitted",
      "outputs": [
        {
          "internalType": "bool",
          "name": "",
          "type": "bool"
        }
      ],
      "stateMutability": "view",
      "type": "function"
    },
    {
      "inputs": [
        {
          "internalType": "bytes4",
          "name": "selector",
          "type": "bytes4"
        }
      ],
      "name": "isPermittedModule",
      "outputs": [
        {
          "internalType": "bool",
          "name": "",
          "type": "bool"
        }
      ],
      "stateMutability": "view",
      "type": "function"
    },
    {
      "inputs": [
        {
          "internalType": "address",
          "name": "account",
          "type": "address"
        },
        {
          "internalType": "uint256",
          "name": "conditionIndex",
          "type": "uint256"
        }
      ],
      "name": "isRecipient",
      "outputs": [
        {
          "internalType": "bool",
          "name": "",
          "type": "bool"
        }
      ],
      "stateMutability": "view",
      "type": "function"
    },
    {
      "inputs": [],
      "name": "keeper",
      "outputs": [
        {
          "internalType": "address",
          "name": "",
          "type": "address"
        }
      ],
      "stateMutability": "view",
      "type": "function"
    },
    {
      "inputs": [
        {
          "internalType": "bytes",
          "name": "data",
          "type": "bytes"
        }
      ],
      "name": "load",
      "outputs": [],
      "stateMutability": "nonpayable",
      "type": "function"
    },
    {
      "inputs": [
        {
          "internalType": "address",
          "name": "operator",
          "type": "address"
        },
        {
          "internalType": "address",
          "name": "from",
          "type": "address"
        },
        {
          "internalType": "uint256[]",
          "name": "ids",
          "type": "uint256[]"
        },
        {
          "internalType": "uint256[]",
          "name": "values",
          "type": "uint256[]"
        },
        {
          "internalType": "bytes",
          "name": "data",
          "type": "bytes"
        }
      ],
      "name": "onERC1155BatchReceived",
      "outputs": [
        {
          "internalType": "bytes4",
          "name": "",
          "type": "bytes4"
        }
      ],
      "stateMutability": "nonpayable",
      "type": "function"
    },
    {
      "inputs": [
        {
          "internalType": "address",
          "name": "operator",
          "type": "address"
        },
        {
          "internalType": "address",
          "name": "from",
          "type": "address"
        },
        {
          "internalType": "uint256",
          "name": "id",
          "type": "uint256"
        },
        {
          "internalType": "uint256",
          "name": "value",
          "type": "uint256"
        },
        {
          "internalType": "bytes",
          "name": "data",
          "type": "bytes"
        }
      ],
      "name": "onERC1155Received",
      "outputs": [
        {
          "internalType": "bytes4",
          "name": "",
          "type": "bytes4"
        }
      ],
      "stateMutability": "nonpayable",
      "type": "function"
    },
    {
      "inputs": [
        {
          "internalType": "uint256",
          "name": "_index",
          "type": "uint256"
        }
      ],
      "name": "prepareSolve",
      "outputs": [],
      "stateMutability": "nonpayable",
      "type": "function"
    },
    {
      "inputs": [
        {
          "internalType": "uint256",
          "name": "_index",
          "type": "uint256"
        },
        {
          "internalType": "uint256[]",
          "name": "_payouts",
          "type": "uint256[]"
        }
      ],
      "name": "proposePayouts",
      "outputs": [],
      "stateMutability": "nonpayable",
      "type": "function"
    },
    {
      "inputs": [
        {
          "internalType": "contract IERC20",
          "name": "_collateralToken",
          "type": "address"
        },
        {
          "internalType": "bytes32",
          "name": "_parentCollectionId",
          "type": "bytes32"
        },
        {
          "internalType": "bytes32",
          "name": "_conditionId",
          "type": "bytes32"
        },
        {
          "internalType": "uint256[]",
          "name": "_indexSets",
          "type": "uint256[]"
        }
      ],
      "name": "redeemPosition",
      "outputs": [],
      "stateMutability": "nonpayable",
      "type": "function"
    },
    {
      "inputs": [
        {
          "internalType": "bytes32",
          "name": "_slot",
          "type": "bytes32"
        },
        {
          "internalType": "uint256",
          "name": "_chainIndex",
          "type": "uint256"
        }
      ],
      "name": "registerOutgoingCallback",
      "outputs": [],
      "stateMutability": "nonpayable",
      "type": "function"
    },
    {
      "inputs": [
        {
          "internalType": "uint256",
          "name": "_index",
          "type": "uint256"
        }
      ],
      "name": "requestArbitration",
      "outputs": [],
      "stateMutability": "nonpayable",
      "type": "function"
    },
    {
      "inputs": [
        {
          "internalType": "bytes32",
          "name": "key",
          "type": "bytes32"
        },
        {
          "internalType": "bytes",
          "name": "data",
          "type": "bytes"
        }
      ],
      "name": "setState",
      "outputs": [],
      "stateMutability": "nonpayable",
      "type": "function"
    },
    {
      "inputs": [
        {
          "internalType": "uint256",
          "name": "_index",
          "type": "uint256"
        },
        {
          "internalType": "uint256",
          "name": "_date",
          "type": "uint256"
        }
      ],
      "name": "setTimelock",
      "outputs": [],
      "stateMutability": "nonpayable",
      "type": "function"
    },
    {
      "inputs": [
        {
          "internalType": "bytes32",
          "name": "_trackingId",
          "type": "bytes32"
        }
      ],
      "name": "setTrackingId",
      "outputs": [],
      "stateMutability": "nonpayable",
      "type": "function"
    },
    {
      "inputs": [],
      "name": "solverFactory",
      "outputs": [
        {
          "internalType": "contract ISolverFactory",
          "name": "",
          "type": "address"
        }
      ],
      "stateMutability": "view",
      "type": "function"
    },
    {
      "inputs": [
        {
          "internalType": "string",
          "name": "cid",
          "type": "string"
        },
        {
          "internalType": "bytes32",
          "name": "conditionId",
          "type": "bytes32"
        }
      ],
      "name": "submitWork",
      "outputs": [],
      "stateMutability": "nonpayable",
      "type": "function"
    },
    {
      "inputs": [
        {
          "internalType": "bytes4",
          "name": "interfaceId",
          "type": "bytes4"
        }
      ],
      "name": "supportsInterface",
      "outputs": [
        {
          "internalType": "bool",
          "name": "",
          "type": "bool"
        }
      ],
      "stateMutability": "view",
      "type": "function"
    },
    {
      "inputs": [
        {
          "internalType": "uint256",
          "name": "",
          "type": "uint256"
        }
      ],
      "name": "timelocks",
      "outputs": [
        {
          "internalType": "uint256",
          "name": "",
          "type": "uint256"
        }
      ],
      "stateMutability": "view",
      "type": "function"
    },
    {
      "inputs": [],
      "name": "trackingId",
      "outputs": [
        {
          "internalType": "bytes32",
          "name": "",
          "type": "bytes32"
        }
      ],
      "stateMutability": "view",
      "type": "function"
    },
    {
      "inputs": [
        {
          "internalType": "contract IERC20",
          "name": "token",
          "type": "address"
        },
        {
          "internalType": "address",
          "name": "recipient",
          "type": "address"
        },
        {
          "internalType": "uint256",
          "name": "amount",
          "type": "uint256"
        }
      ],
      "name": "transferERC20",
      "outputs": [],
      "stateMutability": "nonpayable",
      "type": "function"
    },
    {
      "inputs": [],
      "name": "writer",
      "outputs": [
        {
          "internalType": "address",
          "name": "",
          "type": "address"
        }
      ],
      "stateMutability": "view",
      "type": "function"
    }
  ],
  "bytecode": "0x3060c0908152602060a081905260e060405290206080523480156200002357600080fd5b506200002e62000090565b601e80546001810182556000919091527f50bb669a95c7b50b7e8a6f09454034b2b14cf2b85c730dca9a539ca82cb6e3506008820401805463ffffffff60079093166004026101000a92830219166381296f6f909202919091179055620001ab565b6200009c60ff6200009f565b50565b600354600090610100900460ff16156200010a578160ff166001148015620000da5750620000d8306200014e60201b620032cc1760201c565b155b620001025760405162461bcd60e51b8152600401620000f9906200015d565b60405180910390fd5b506000919050565b60035460ff808416911610620001345760405162461bcd60e51b8152600401620000f9906200015d565b506003805460ff191660ff92909216919091179055600190565b6001600160a01b03163b151590565b6020808252602e908201527f496e697469616c697a61626c653a20636f6e747261637420697320616c72656160408201526d191e481a5b9a5d1a585b1a5e995960921b606082015260800190565b608051616427620001c4600039600050506164276000f3fe608060405234801561001057600080fd5b50600436106102465760003560e01c806301ffc9a71461024b57806309648a9d146102735780630d06101a146102935780630d7e149f146102a85780630d8d3975146102c957806318782559146102dc5780632248fd9e146102ef57806326c500071461030257806331402a57146103265780633837b05e146103395780633cef64cc146103595780633f4fb5aa1461036c57806344c3b6071461037f578063453a2abc1461039257806348cbb2fc1461039a5780634a77234e146103a35780634e46f223146103b6578063506da0b8146103c957806354f6127f146103dc57806355dd978b146103ef5780635c622a0e146104025780636463845b146104225780636577cbd3146104355780636cc6cde11461044857806379502c55146104595780637c1236271461047257806380b204b71461048757806380c2dde21461049a57806381296f6f146104ad5780638602ce1b146104c057806387dfee57146104d357806399992506146104e65780639db5dbe4146104ee578063a272ebcf14610501578063aced166114610514578063b992db0f14610525578063bc197c8114610538578063c05bc73114610567578063c08d6f011461057a578063c3f909d41461059a578063c8abf6da146105af578063c98c05b7146105c2578063d4fe6a4c146105ca578063de3a23c5146105e3578063df33cc51146105f6578063e1979ef414610609578063ea8221a91461061e578063efdee94f14610627578063f23a6e611461063a578063f24fc9031461064d575b600080fd5b61025e6102593660046140e5565b61066d565b60405190151581526020015b60405180910390f35b61028661028136600461410f565b61068d565b60405161026a9190614184565b6102a66102a136600461410f565b61072f565b005b6102bb6102b636600461410f565b610791565b60405190815260200161026a565b6102a66102d736600461410f565b6107b2565b6102a66102ea3660046141f7565b610969565b61025e6102fd3660046140e5565b610a8c565b61031561031036600461410f565b610b0e565b60405161026a959493929190614297565b6102a661033436600461410f565b610b5c565b61034c61034736600461410f565b610cf1565b60405161026a91906142c9565b6102a661036736600461431e565b610e02565b61028661037a36600461410f565b610e50565b61025e61038d36600461410f565b610ee7565b61034c610f6c565b6102bb60175481565b6102a66103b136600461410f565b610f91565b6102a66103c436600461410f565b61133c565b61025e6103d736600461436a565b611403565b6102866103ea36600461410f565b611548565b60145461034c906001600160a01b031681565b61041561041036600461410f565b611568565b60405161026a9190614396565b61034c6104303660046143bc565b61159a565b6102a66104433660046143f0565b6116f8565b6007546001600160a01b031661034c565b6104616118ab565b60405161026a9594939291906145ed565b61047a611af2565b60405161026a9190614689565b6102a66104953660046146eb565b611c05565b60135461034c906001600160a01b031681565b6102a66104bb3660046147cb565b611d78565b6102a66104ce3660046147cb565b611dc3565b6102a66104e1366004614877565b611ebb565b61025e6120b8565b6102a66104fc366004614913565b612138565b61025e61050f3660046140e5565b612196565b6006546001600160a01b031661034c565b6102a661053336600461410f565b612224565b61055a610546366004614954565b63bc197c8160e01b98975050505050505050565b60405161026a9190614a12565b6102a6610575366004614a27565b612516565b61058d61058836600461410f565b612630565b60405161026a9190614a72565b6105a2612715565b60405161026a9190614bc0565b6102a66105bd366004614c5f565b612bdb565b6102bb612c35565b60035461034c906201000090046001600160a01b031681565b6102a66105f136600461410f565b612ca7565b6102a6610604366004614c5f565b612fd0565b610611613117565b60405161026a9190614c81565b6102bb60155481565b60045461034c906001600160a01b031681565b61055a610648366004614ccf565b61319c565b61066061065b36600461410f565b6131af565b60405161026a9190614d4a565b6000610678826132db565b80610687575061068782613311565b92915050565b60008181526002602052604090208054606091906106aa90614d5d565b80601f01602080910402602001604051908101604052809291908181526020018280546106d690614d5d565b80156107235780601f106106f857610100808354040283529160200191610723565b820191906000526020600020905b81548152906001019060200180831161070657829003601f168201915b50505050509050919050565b601754156107755760405162461bcd60e51b815260206004820152600e60248201526d151c9858dada5b99d259081cd95d60921b60448201526064015b60405180910390fd5b6004546001600160a01b0316331461078c57600080fd5b601755565b601681815481106107a157600080fd5b600091825260209091200154905081565b601681815481106107c5576107c5614d91565b906000526020600020015442116107ee5760405162461bcd60e51b815260040161076c90614da7565b60026012828154811061080357610803614d91565b60009182526020909120600560069092020181015460ff169081111561082b5761082b61426d565b146108675760405162461bcd60e51b815260206004820152600c60248201526b139bdd081c1c9bdc1bdcd95960a21b604482015260640161076c565b73__$3ec311f63f1cd166364ee887ad77eb9bd8$__6385c92867600360029054906101000a90046001600160a01b03166001600160a01b03166322a9339f6040518163ffffffff1660e01b8152600401602060405180830381865afa1580156108d4573d6000803e3d6000fd5b505050506040513d601f19601f820116820180604052508101906108f89190614dcb565b6012848154811061090b5761090b614d91565b90600052602060002090600602016040518363ffffffff1660e01b8152600401610936929190614de8565b60006040518083038186803b15801561094e57600080fd5b505af4158015610962573d6000803e3d6000fd5b5050505050565b6006546001600160a01b031633148061098d575061098d631878255960e01b612196565b6109a95760405162461bcd60e51b815260040161076c90614e01565b600360029054906101000a90046001600160a01b03166001600160a01b03166322a9339f6040518163ffffffff1660e01b8152600401602060405180830381865afa1580156109fc573d6000803e3d6000fd5b505050506040513d601f19601f82011682018060405250810190610a209190614dcb565b6001600160a01b03166301b7037c86868686866040518663ffffffff1660e01b8152600401610a53959493929190614e5c565b600060405180830381600087803b158015610a6d57600080fd5b505af1158015610a81573d6000803e3d6000fd5b505050505050505050565b6000805b601e54811015610b0557826001600160e01b031916601e8281548110610ab857610ab8614d91565b90600052602060002090600891828204019190066004029054906101000a900460e01b6001600160e01b03191603610af35750600192915050565b80610afd81614ea0565b915050610a90565b50600092915050565b60128181548110610b1e57600080fd5b6000918252602090912060069091020180546001820154600283015460038401546005909401546001600160a01b0390931694509092909160ff1685565b6007546001600160a01b0316331480610b805750610b806331402a5760e01b612196565b610b9c5760405162461bcd60e51b815260040161076c90614eb9565b600260128281548110610bb157610bb1614d91565b60009182526020909120600560069092020181015460ff1690811115610bd957610bd961426d565b1480610c1f5750600360128281548110610bf557610bf5614d91565b60009182526020909120600560069092020181015460ff1690811115610c1d57610c1d61426d565b145b610c5c5760405162461bcd60e51b815260206004820152600e60248201526d10d85b9b9bdd081c995c5d595cdd60921b604482015260640161076c565b73__$3ec311f63f1cd166364ee887ad77eb9bd8$__633bdce6e660128381548110610c8957610c89614d91565b90600052602060002090600602016040518263ffffffff1660e01b8152600401610cb591815260200190565b60006040518083038186803b158015610ccd57600080fd5b505af4158015610ce1573d6000803e3d6000fd5b50505050610cee81613346565b50565b60006015548203610d03575030919050565b601554821015610d92576013546001600160a01b0316610d2557506000919050565b601354604051631c1bd82f60e11b8152600481018490526001600160a01b0390911690633837b05e90602401602060405180830381865afa158015610d6e573d6000803e3d6000fd5b505050506040513d601f19601f820116820180604052508101906106879190614dcb565b601554821115610dfd576014546001600160a01b0316610db457506000919050565b601454604051631c1bd82f60e11b8152600481018490526001600160a01b0390911690633837b05e90602401602060405180830381865afa158015610d6e573d6000803e3d6000fd5b919050565b333014610e3d5760405162461bcd60e51b81526020600482015260096024820152684f6e6c79207468697360b81b604482015260640161076c565b610e498183018361410f565b601f555050565b6012546000828152601c602052604090205460609114610ea65760405162461bcd60e51b815260206004820152601160248201527029b637ba1034b73b30b634b2103b32b91760791b604482015260640161076c565b6000828152601c602052604090208054610ec290600190614ee2565b81548110610ed257610ed2614d91565b9060005260206000200180546106aa90614d5d565b6040516336d39c6160e11b815260048101829052601c6024820152600b604482015260009073__$3ec311f63f1cd166364ee887ad77eb9bd8$__90636da738c290606401602060405180830381865af4158015610f48573d6000803e3d6000fd5b505050506040513d601f19601f820116820180604052508101906106879190614ef9565b6000610f79601f54611548565b806020019051810190610f8c9190614dcb565b905090565b60125415610fee576006546001600160a01b0316331480610fbc57506013546001600160a01b031633145b80610fd25750610fd263253b91a760e11b612196565b610fee5760405162461bcd60e51b815260040161076c90614f1b565b601254811461102f5760405162461bcd60e51b815260206004820152600d60248201526c092dcecc2d8d2c840d2dcc8caf609b1b604482015260640161076c565b6019541561106e5760405162461bcd60e51b815260206004820152600c60248201526b6f7574676f696e672063627360a01b604482015260640161076c565b601854156110ad5760405162461bcd60e51b815260206004820152600c60248201526b696e636f6d696e672063627360a01b604482015260640161076c565b601273__$3ec311f63f1cd166364ee887ad77eb9bd8$__63699e0add600360029054906101000a90046001600160a01b03166001600160a01b03166322a9339f6040518163ffffffff1660e01b8152600401602060405180830381865afa15801561111c573d6000803e3d6000fd5b505050506040513d601f19601f820116820180604052508101906111409190614dcb565b6013546012546040516001600160e01b031960e086901b1681526111769392600b926001600160a01b03909116916004016150e2565b600060405180830381865af4158015611193573d6000803e3d6000fd5b505050506040513d6000823e601f3d908101601f191682016040526111bb91908101906151a3565b8154600180820184556000938452602093849020835160069093020180546001600160a01b0319166001600160a01b0390931692909217825582840151908201556040820151600282015560608201516003820155608082015180519293919261122b9260048501920190613f71565b5060a08201518160050160006101000a81548160ff021916908360058111156112565761125661426d565b0217905550506016805460018101825560009182527fd833147d7dc355ba459fc788f669e58cfaf9dc25ddcd0702e87d69c7b5124289015550611297613380565b7f152ec8ae15d347b2d2a8f0858caa29bcaaa0906749a1f43e08bfe7998346024030826040516112c8929190614de8565b60405180910390a16014546001600160a01b031615610cee5760145460405163253b91a760e11b8152600481018390526001600160a01b0390911690634a77234e906024015b600060405180830381600087803b15801561132857600080fd5b505af1158015610962573d6000803e3d6000fd5b6007546001600160a01b03163314806113605750611360634e46f22360e01b612196565b61137c5760405162461bcd60e51b815260040161076c90614eb9565b60036012828154811061139157611391614d91565b60009182526020909120600560069092020181015460ff16908111156113b9576113b961426d565b146113d65760405162461bcd60e51b815260040161076c906152a7565b73__$3ec311f63f1cd166364ee887ad77eb9bd8$__6359111fb560128381548110610c8957610c89614d91565b6000805b60105481101561153e5760108054600091601c918391908590811061142e5761142e614d91565b9060005260206000209060020201600001548152602001908152602001600020848154811061145f5761145f614d91565b90600052602060002001805461147490614d5d565b80601f01602080910402602001604051908101604052809291908181526020018280546114a090614d5d565b80156114ed5780601f106114c2576101008083540402835291602001916114ed565b820191906000526020600020905b8154815290600101906020018083116114d057829003601f168201915b50505050508060200190518101906115059190614dcb565b9050806001600160a01b0316856001600160a01b03160361152b57600192505050610687565b508061153681614ea0565b915050611407565b5060009392505050565b6000818152601c60205260409020805460609190610ec290600190614ee2565b60006012828154811061157d5761157d614d91565b600091825260209091206005600690920201015460ff1692915050565b6006546000906001600160a01b03163314806115c157506115c1636463845b60e01b612196565b6115fb5760405162461bcd60e51b815260206004820152600b60248201526a27b7363c9035b2b2b832b960a91b604482015260640161076c565b6014546001600160a01b0316156116405760405162461bcd60e51b815260206004820152600960248201526812185cc818da1a5b1960ba1b604482015260640161076c565b6003546015546017546040516302949eed60e61b815273__$3ec311f63f1cd166364ee887ad77eb9bd8$__9363a527bb409361169293620100009092046001600160a01b031692889290600401615652565b602060405180830381865af41580156116af573d6000803e3d6000fd5b505050506040513d601f19601f820116820180604052508101906116d39190614dcb565b601480546001600160a01b0319166001600160a01b0392909216918217905592915050565b600061170460016135fb565b9050801561171c576003805461ff0019166101001790555b600061172e6040840160208501615742565b6001600160a01b0316036117755760405162461bcd60e51b815260206004820152600e60248201526d12d9595c195c881a5b9d985b1a5960921b604482015260640161076c565b600480546001600160a01b038088166001600160a01b0319928316179092556003805462010000330262010000600160b01b0319909116179055601380549287169290911691909117905560158390558160056117d28282615f6b565b90505060005b6117e560a084018461577f565b90508110156118495780601d600061180060a087018761577f565b8581811061181057611810614d91565b90506020028101906118229190615a99565b6040908101358252602082019290925201600020558061184181614ea0565b9150506117d8565b5061185f61185a608084018461577f565b613684565b8015610962576003805461ff0019169055604051600181527f7f26b83ff96e1f2b6a682f133852f6798a09c465da95921460cefb38474024989060200160405180910390a15050505050565b600580546006546007546008546040805160e081018252600b80546001600160a01b039081168352600c54602080850191909152600d5484860152600e546060850152600f80548651818402810184019097528087529983169a9883169997909216979596939492936080860193929183018282801561194a57602002820191906000526020600020905b815481526020019060010190808311611936575b5050505050815260200160058201805480602002602001604051908101604052809291908181526020016000905b82821015611a0c578382906000526020600020906002020160405180604001604052908160008201548152602001600182018054806020026020016040519081016040528092919081815260200182805480156119f457602002820191906000526020600020905b8154815260200190600101908083116119e0575b50505050508152505081526020019060010190611978565b50505050815260200160068201805480602002602001604051908101604052809291908181526020016000905b82821015611ae5578382906000526020600020018054611a5890614d5d565b80601f0160208091040260200160405190810160405280929190818152602001828054611a8490614d5d565b8015611ad15780601f10611aa657610100808354040283529160200191611ad1565b820191906000526020600020905b815481529060010190602001808311611ab457829003601f168201915b505050505081526020019060010190611a39565b5050505081525050905085565b60606012805480602002602001604051908101604052809291908181526020016000905b82821015611bfc5760008481526020908190206040805160c0810182526006860290920180546001600160a01b031683526001810154838501526002810154838301526003810154606084015260048101805483518187028101870190945280845293949193608086019392830182828015611bb157602002820191906000526020600020905b815481526020019060010190808311611b9d575b505050918352505060058281015460209092019160ff1690811115611bd857611bd861426d565b6005811115611be957611be961426d565b8152505081526020019060010190611b16565b50505050905090565b6006546001600160a01b0316331480611c295750611c296380b204b760e01b612196565b611c455760405162461bcd60e51b815260040161076c90614e01565b600c548114611c665760405162461bcd60e51b815260040161076c906160d3565b600160128481548110611c7b57611c7b614d91565b60009182526020909120600560069092020181015460ff1690811115611ca357611ca361426d565b14611cdf5760405162461bcd60e51b815260206004820152600c60248201526b139bdd08115e1958dd5d195960a21b604482015260640161076c565b73__$3ec311f63f1cd166364ee887ad77eb9bd8$__636a0a24f160128581548110611d0c57611d0c614d91565b906000526020600020906006020184846040518463ffffffff1660e01b8152600401611d3a9392919061610a565b60006040518083038186803b158015611d5257600080fd5b505af4158015611d66573d6000803e3d6000fd5b50505050611d7383613346565b505050565b611d886381296f6f60e01b612196565b611da45760405162461bcd60e51b815260040161076c90614f1b565b60008281526002602090815260409091208251611d7392840190613fbc565b6006546001600160a01b0316331480611de75750611de7638602ce1b60e01b612196565b611e035760405162461bcd60e51b815260040161076c90614e01565b6000828152601d6020526040902054600a8054600392908110611e2857611e28614d91565b600091825260209091206001600590920201015460ff166003811115611e5057611e5061426d565b14611e965760405162461bcd60e51b81526020600482015260166024820152751bdb9b1e48125b99d95cdd151e5c194b93585b9d585b60521b604482015260640161076c565b611ea082826137c2565b6040516000805160206163d283398151915290600090a15050565b6007546001600160a01b0316331480611edf5750611edf6387dfee5760e01b612196565b611efb5760405162461bcd60e51b815260040161076c90614eb9565b600360128381548110611f1057611f10614d91565b60009182526020909120600560069092020181015460ff1690811115611f3857611f3861426d565b14611f555760405162461bcd60e51b815260040161076c906152a7565b60168281548110611f6857611f68614d91565b90600052602060002001544211611f915760405162461bcd60e51b815260040161076c90614da7565b600c54815114611fb35760405162461bcd60e51b815260040161076c906160d3565b73__$3ec311f63f1cd166364ee887ad77eb9bd8$__631b948e49600360029054906101000a90046001600160a01b03166001600160a01b03166322a9339f6040518163ffffffff1660e01b8152600401602060405180830381865afa158015612020573d6000803e3d6000fd5b505050506040513d601f19601f820116820180604052508101906120449190614dcb565b6012858154811061205757612057614d91565b9060005260206000209060060201846040518463ffffffff1660e01b815260040161208493929190616124565b60006040518083038186803b15801561209c57600080fd5b505af41580156120b0573d6000803e3d6000fd5b505050505050565b601254604051635cc1f6b560e01b815260009173__$3ec311f63f1cd166364ee887ad77eb9bd8$__91635cc1f6b5916120f791600a9190600401616181565b602060405180830381865af4158015612114573d6000803e3d6000fd5b505050506040513d601f19601f82011682018060405250810190610f8c9190614ef9565b61214863276d76f960e21b612196565b6121825760405162461bcd60e51b815260206004820152600b60248201526a4f6e6c79206d6f64756c6560a81b604482015260640161076c565b611d736001600160a01b0384168383613860565b3360009081526001602052604081205460ff161561221c576040516311247ecf60e11b81526000903390632248fd9e906121d4908690600401614a12565b602060405180830381865afa1580156121f1573d6000803e3d6000fd5b505050506040513d601f19601f820116820180604052508101906122159190614ef9565b9392505050565b506000919050565b61222c6120b8565b151560011461226f5760405162461bcd60e51b815260206004820152600f60248201526e1a5b99d95cdd1cc81a5b9d985b1a59608a1b604482015260640161076c565b73__$3ec311f63f1cd166364ee887ad77eb9bd8$__63c7def1de82600360029054906101000a90046001600160a01b03166001600160a01b03166322a9339f6040518163ffffffff1660e01b8152600401602060405180830381865afa1580156122dd573d6000803e3d6000fd5b505050506040513d601f19601f820116820180604052508101906123019190614dcb565b600360029054906101000a90046001600160a01b03166001600160a01b03166396d466376040518163ffffffff1660e01b8152600401602060405180830381865afa158015612354573d6000803e3d6000fd5b505050506040513d601f19601f820116820180604052508101906123789190614dcb565b6012868154811061238b5761238b614d91565b60009182526020808320601754601354600e548652601c9384905260409095208054600690950290920194600b9491926001600160a01b03909116918c9081106123d7576123d7614d91565b9060005260206000200180546123ec90614d5d565b80601f016020809104026020016040519081016040528092919081815260200182805461241890614d5d565b80156124655780601f1061243a57610100808354040283529160200191612465565b820191906000526020600020905b81548152906001019060200180831161244857829003601f168201915b505050505080602001905181019061247d919061622c565b60405160e08b901b6001600160e01b031916815260048101999099526001600160a01b0397881660248a015295871660448901526064880194909452608487019290925260a486015260c485015290911660e48301526101048201526101240160006040518083038186803b1580156124f557600080fd5b505af4158015612509573d6000803e3d6000fd5b50505050610cee816138b6565b61251e610f6c565b6001600160a01b0316336001600160a01b03161461256c5760405162461bcd60e51b815260206004820152600b60248201526a27b7363c902bb934ba32b960a91b604482015260640161076c565b60016012805461257e90600190614ee2565b8154811061258e5761258e614d91565b60009182526020909120600560069092020181015460ff16908111156125b6576125b661426d565b146125ee5760405162461bcd60e51b8152602060048201526008602482015267111a5cd8589b195960c21b604482015260640161076c565b7f7399fd48fdfaf111111c20e282a8837c6803b6631b3b7b5e30b3b97d682d21b6838333846040516126239493929190616245565b60405180910390a1505050565b6000818152601c60209081526040808320805482518185028101850190935280835260609492939192909184015b8282101561270a57838290600052602060002001805461267d90614d5d565b80601f01602080910402602001604051908101604052809291908181526020018280546126a990614d5d565b80156126f65780601f106126cb576101008083540402835291602001916126f6565b820191906000526020600020905b8154815290600101906020018083116126d957829003601f168201915b50505050508152602001906001019061265e565b505050509050919050565b61271d61402f565b6040805160e081018252600580546001600160a01b0390811683526006548116602080850191909152600754909116838501526008546060840152600980548551818402810184019096528086529394929360808601939260009084015b82821015612854576000848152602090819020604080518082019091526002850290910180546001600160a01b0316825260018101805492939192918401916127c390614d5d565b80601f01602080910402602001604051908101604052809291908181526020018280546127ef90614d5d565b801561283c5780601f106128115761010080835404028352916020019161283c565b820191906000526020600020905b81548152906001019060200180831161281f57829003601f168201915b5050505050815250508152602001906001019061277b565b50505050815260200160058201805480602002602001604051908101604052809291908181526020016000905b8282101561299c57838290600052602060002090600502016040518060a0016040529081600082015481526020016001820160009054906101000a900460ff1660038111156128d2576128d261426d565b60038111156128e3576128e361426d565b8152602001600282015481526020016003820154815260200160048201805461290b90614d5d565b80601f016020809104026020016040519081016040528092919081815260200182805461293790614d5d565b80156129845780601f1061295957610100808354040283529160200191612984565b820191906000526020600020905b81548152906001019060200180831161296757829003601f168201915b50505050508152505081526020019060010190612881565b505050908252506040805160e0810182526006840180546001600160a01b03168252600785015460208381019190915260088601548385015260098601546060840152600a860180548551818402810184019096528086529582019593949293608086019392830182828015612a3157602002820191906000526020600020905b815481526020019060010190808311612a1d575b5050505050815260200160058201805480602002602001604051908101604052809291908181526020016000905b82821015612af357838290600052602060002090600202016040518060400160405290816000820154815260200160018201805480602002602001604051908101604052809291908181526020018280548015612adb57602002820191906000526020600020905b815481526020019060010190808311612ac7575b50505050508152505081526020019060010190612a5f565b50505050815260200160068201805480602002602001604051908101604052809291908181526020016000905b82821015612bcc578382906000526020600020018054612b3f90614d5d565b80601f0160208091040260200160405190810160405280929190818152602001828054612b6b90614d5d565b8015612bb85780601f10612b8d57610100808354040283529160200191612bb8565b820191906000526020600020905b815481529060010190602001808311612b9b57829003601f168201915b505050505081526020019060010190612b20565b50505091525050905250919050565b612beb636455fb6d60e11b612196565b612c075760405162461bcd60e51b815260040161076c90614f1b565b612c128160016157e8565b60168381548110612c2557612c25614d91565b6000918252602090912001555050565b600b546040516370a0823160e01b81526000916001600160a01b0316906370a0823190612c669030906004016142c9565b602060405180830381865afa158015612c83573d6000803e3d6000fd5b505050506040513d601f19601f82011682018060405250810190610f8c919061622c565b60003382604051602001612cbc929190616275565b60408051601f1981840301815291815281516020928301206000818152601b909352912054600a8054929350612d14929091908110612cfd57612cfd614d91565b906000526020600020906005020160030154610cf1565b6001600160a01b0316336001600160a01b031614612d445760405162461bcd60e51b815260040161076c90616292565b6000818152601b6020526040812054600a80549091908110612d6857612d68614d91565b600091825260209091206001600590920201015460ff166003811115612d9057612d9061426d565b14612dc65760405162461bcd60e51b81526020600482015260066024820152653737ba1021b160d11b604482015260640161076c565b6000818152601b6020526040902054600a80549091908110612dea57612dea614d91565b600091825260208220600590910201805491612e0583614ea0565b90915550506000818152601b6020526040902054600a8054612f9192908110612e3057612e30614d91565b906000526020600020906005020160020154336001600160a01b0316633f4fb5aa60058001601860030160008781526020019081526020016000205481548110612e7c57612e7c614d91565b90600052602060002090600502016004018054612e9890614d5d565b80601f0160208091040260200160405190810160405280929190818152602001828054612ec490614d5d565b8015612f115780601f10612ee657610100808354040283529160200191612f11565b820191906000526020600020905b815481529060010190602001808311612ef457829003601f168201915b5050505050806020019051810190612f29919061622c565b6040518263ffffffff1660e01b8152600401612f4791815260200190565b600060405180830381865afa158015612f64573d6000803e3d6000fd5b505050506040513d6000823e601f3d908101601f19168201604052612f8c91908101906162c1565b6137c2565b6000818152601b602052604081208190556018805491612fb08361632e565b90915550506040516000805160206163d283398151915290600090a15050565b60155481116130195760405162461bcd60e51b8152602060048201526015602482015274736f6c766572206e6f7420646f776e73747265616d60581b604482015260640161076c565b61302281610cf1565b6001600160a01b0316336001600160a01b0316146130525760405162461bcd60e51b815260040161076c90616292565b6000828152601c60205260409020541580159061307e57506012546000838152601c6020526040902054145b156130d05760405163de3a23c560e01b815260048101839052339063de3a23c590602401600060405180830381600087803b1580156130bc57600080fd5b505af11580156120b0573d6000803e3d6000fd5b6000828152601a60209081526040822080546001810182559083529082200180546001600160a01b03191633179055601980549161310d83614ea0565b91905055505b5050565b6060601e80548060200260200160405190810160405280929190818152602001828054801561319257602002820191906000526020600020906000905b82829054906101000a900460e01b6001600160e01b031916815260200190600401906020826003010492830192600103820291508084116131545790505b5050505050905090565b63f23a6e6160e01b5b9695505050505050565b6131e46040805160c081018252600080825260208201819052918101829052606080820183905260808201529060a082015290565b601282815481106131f7576131f7614d91565b60009182526020918290206040805160c081018252600690930290910180546001600160a01b03168352600181015483850152600281015483830152600381015460608401526004810180548351818702810187019094528084529394919360808601939283018282801561328b57602002820191906000526020600020905b815481526020019060010190808311613277575b505050918352505060058281015460209092019160ff16908111156132b2576132b261426d565b60058111156132c3576132c361426d565b90525092915050565b6001600160a01b03163b151590565b60006001600160e01b0319821663fecfce0160e01b148061068757506001600160e01b031982166301ffc9a760e01b1492915050565b60006001600160e01b03198216630271189760e51b148061068757506301ffc9a760e01b6001600160e01b0319831614610687565b6008546133549060016157e8565b61335e9042616345565b6016828154811061337157613371614d91565b60009182526020909120015550565b60005b600a548110156135e1576000600a8054839081106133a3576133a3614d91565b600091825260209091206001600590920201015460ff1660038111156133cb576133cb61426d565b14613400576133fb6005800182815481106133e8576133e8614d91565b90600052602060002090600502016139ec565b6135cf565b6000306001600160a01b0316633837b05e60058001848154811061342657613426614d91565b9060005260206000209060050201600301546040518263ffffffff1660e01b815260040161345691815260200190565b602060405180830381865afa158015613473573d6000803e3d6000fd5b505050506040513d601f19601f820116820180604052508101906134979190614dcb565b90506134a38183613ad8565b806001600160a01b031663df33cc516005800184815481106134c7576134c7614d91565b906000526020600020906005020160040180546134e390614d5d565b80601f016020809104026020016040519081016040528092919081815260200182805461350f90614d5d565b801561355c5780601f106135315761010080835404028352916020019161355c565b820191906000526020600020905b81548152906001019060200180831161353f57829003601f168201915b5050505050806020019051810190613574919061622c565b6015546040516001600160e01b031960e085901b16815260048101929092526024820152604401600060405180830381600087803b1580156135b557600080fd5b505af11580156135c9573d6000803e3d6000fd5b50505050505b806135d981614ea0565b915050613383565b506040516000805160206163d283398151915290600090a1565b600354600090610100900460ff1615613643578160ff1660011480156136275750613625306132cc565b155b61221c5760405162461bcd60e51b815260040161076c9061635d565b60035460ff80841691161061366a5760405162461bcd60e51b815260040161076c9061635d565b506003805460ff191660ff92909216919091179055600190565b60005b81811015611d735760018060008585858181106136a6576136a6614d91565b90506020028101906136b891906157c8565b6136c6906020810190615742565b6001600160a01b031681526020810191909152604001600020805460ff191691151591909117905582828281811061370057613700614d91565b905060200281019061371291906157c8565b613720906020810190615742565b6001600160a01b0316633cef64cc84848481811061374057613740614d91565b905060200281019061375291906157c8565b613760906020810190615884565b6040518363ffffffff1660e01b815260040161377d9291906163ab565b600060405180830381600087803b15801561379757600080fd5b505af11580156137ab573d6000803e3d6000fd5b5050505080806137ba90614ea0565b915050613687565b6012546137d190600190614ee2565b6000838152601c6020526040902054146138245760405162461bcd60e51b815260206004820152601460248201527314db1bdd081d995c9cda5bdb881a5b9d985b1a5960621b604482015260640161076c565b6000828152601c6020908152604082208054600181018255908352918190208351613856939190910191840190613fbc565b5061311382613bed565b611d738363a9059cbb60e01b848460405160240161387f929190614de8565b60408051601f198184030181529190526020810180516001600160e01b03166001600160e01b031990931692909217909152613d27565b6014546001600160a01b0316158015906139425750601460009054906101000a90046001600160a01b03166001600160a01b031663999925066040518163ffffffff1660e01b8152600401602060405180830381865afa15801561391e573d6000803e3d6000fd5b505050506040513d601f19601f820116820180604052508101906139429190614ef9565b80156139b657506014546040516344c3b60760e01b8152600481018390526001600160a01b03909116906344c3b60790602401602060405180830381865afa158015613992573d6000803e3d6000fd5b505050506040513d601f19601f820116820180604052508101906139b69190614ef9565b15610cee5760145460405163b992db0f60e01b8152600481018390526001600160a01b039091169063b992db0f9060240161130e565b600181015460039060ff1681811115613a0757613a0761426d565b1115613a4a5760405162461bcd60e51b8152602060048201526012602482015271496e76616c696420696e676573745479706560701b604482015260640161076c565b8054816000613a5883614ea0565b9091555060039050600182015460ff166003811115613a7957613a7961426d565b14610cee57600281015460405163b3d7370760e01b815260048101839052610cee919073__$3ec311f63f1cd166364ee887ad77eb9bd8$__9063b3d7370790602401600060405180830381865af4158015612f64573d6000803e3d6000fd5b806018600301600084600580018581548110613af657613af6614d91565b90600052602060002090600502016004018054613b1290614d5d565b80601f0160208091040260200160405190810160405280929190818152602001828054613b3e90614d5d565b8015613b8b5780601f10613b6057610100808354040283529160200191613b8b565b820191906000526020600020905b815481529060010190602001808311613b6e57829003601f168201915b5050505050806020019051810190613ba3919061622c565b604051602001613bb4929190616275565b60408051601f19818403018152918152815160209283012083529082019290925201600090812091909155601880549161310d83614ea0565b60005b6000828152601a6020526040902054811015613113576000828152601a60205260408120805483908110613c2657613c26614d91565b6000918252602090912001546001600160a01b031614613d15576000828152601a60205260409020805482908110613c6057613c60614d91565b60009182526020909120015460405163de3a23c560e01b8152600481018490526001600160a01b039091169063de3a23c590602401600060405180830381600087803b158015613caf57600080fd5b505af1158015613cc3573d6000803e3d6000fd5b5050506000838152601a60205260409020805490915082908110613ce957613ce9614d91565b6000918252602082200180546001600160a01b03191690556019805491613d0f8361632e565b91905055505b80613d1f81614ea0565b915050613bf0565b6000613d7c826040518060400160405280602081526020017f5361666545524332303a206c6f772d6c6576656c2063616c6c206661696c6564815250856001600160a01b0316613df99092919063ffffffff16565b805190915015611d735780806020019051810190613d9a9190614ef9565b611d735760405162461bcd60e51b815260206004820152602a60248201527f5361666545524332303a204552433230206f7065726174696f6e20646964206e6044820152691bdd081cdd58d8d9595960b21b606482015260840161076c565b6060613e088484600085613e10565b949350505050565b606082471015613e715760405162461bcd60e51b815260206004820152602660248201527f416464726573733a20696e73756666696369656e742062616c616e636520666f6044820152651c8818d85b1b60d21b606482015260840161076c565b843b613ebf5760405162461bcd60e51b815260206004820152601d60248201527f416464726573733a2063616c6c20746f206e6f6e2d636f6e7472616374000000604482015260640161076c565b600080866001600160a01b03168587604051613edb91906163bf565b60006040518083038185875af1925050503d8060008114613f18576040519150601f19603f3d011682016040523d82523d6000602084013e613f1d565b606091505b5091509150613f2d828286613f38565b979650505050505050565b60608315613f47575081612215565b825115613f575782518084602001fd5b8160405162461bcd60e51b815260040161076c9190614184565b828054828255906000526020600020908101928215613fac579160200282015b82811115613fac578251825591602001919060010190613f91565b50613fb89291506140d0565b5090565b828054613fc890614d5d565b90600052602060002090601f016020900481019282613fea5760008555613fac565b82601f1061400357805160ff1916838001178555613fac565b82800160010185558215613fac5791820182811115613fac578251825591602001919060010190613f91565b6040518060e0016040528060006001600160a01b0316815260200160006001600160a01b0316815260200160006001600160a01b031681526020016000815260200160608152602001606081526020016140cb6040518060e0016040528060006001600160a01b031681526020016000815260200160008152602001600080191681526020016060815260200160608152602001606081525090565b905290565b5b80821115613fb857600081556001016140d1565b6000602082840312156140f757600080fd5b81356001600160e01b03198116811461221557600080fd5b60006020828403121561412157600080fd5b5035919050565b60005b8381101561414357818101518382015260200161412b565b83811115614152576000848401525b50505050565b60008151808452614170816020860160208601614128565b601f01601f19169290920160200192915050565b6020815260006122156020830184614158565b6001600160a01b0381168114610cee57600080fd5b60008083601f8401126141be57600080fd5b5081356001600160401b038111156141d557600080fd5b6020830191508360208260051b85010111156141f057600080fd5b9250929050565b60008060008060006080868803121561420f57600080fd5b853561421a81614197565b9450602086013593506040860135925060608601356001600160401b0381111561424357600080fd5b61424f888289016141ac565b969995985093965092949392505050565b6001600160a01b03169052565b634e487b7160e01b600052602160045260246000fd5b600681106142935761429361426d565b9052565b6001600160a01b038616815260208101859052604081018490526060810183905260a081016131a56080830184614283565b6001600160a01b0391909116815260200190565b60008083601f8401126142ef57600080fd5b5081356001600160401b0381111561430657600080fd5b6020830191508360208285010111156141f057600080fd5b6000806020838503121561433157600080fd5b82356001600160401b0381111561434757600080fd5b614353858286016142dd565b90969095509350505050565b8035610dfd81614197565b6000806040838503121561437d57600080fd5b823561438881614197565b946020939093013593505050565b602081016106878284614283565b600060e082840312156143b657600080fd5b50919050565b6000602082840312156143ce57600080fd5b81356001600160401b038111156143e457600080fd5b613e08848285016143a4565b6000806000806080858703121561440657600080fd5b843561441181614197565b9350602085013561442181614197565b92506040850135915060608501356001600160401b0381111561444357600080fd5b61444f878288016143a4565b91505092959194509250565b600081518084526020808501945080840160005b8381101561448b5781518752958201959082019060010161446f565b509495945050505050565b600081518084526020808501808196508360051b8101915082860160005b858110156144de5782840389526144cc848351614158565b988501989350908401906001016144b4565b5091979650505050505050565b60018060a01b0381511682526000602080830151818501526040808401518186015260608085015181870152608085015160e0608088015261453060e088018261445b565b905060a086015187820360a08901528181518084528684019150868160051b85010187840193506000805b838110156145c357868303601f190185528551805184528a01518a84018a905280518a8501819052908b019083908a8601905b808310156145ae5783518252928d019260019290920191908d019061458e565b50978c0197968c01969450505060010161455b565b505060c08a015197508a810360c08c01526145de8189614496565b9b9a5050505050505050505050565b6001600160a01b0386811682528581166020830152841660408201526060810183905260a060808201819052600090613f2d908301846144eb565b60018060a01b0381511682526020810151602083015260408101516040830152606081015160608301526000608082015160c0608085015261466d60c085018261445b565b905060a083015161468160a0860182614283565b509392505050565b6000602080830181845280855180835260408601915060408160051b870101925083870160005b828110156146de57603f198886030184526146cc858351614628565b945092850192908501906001016146b0565b5092979650505050505050565b60008060006040848603121561470057600080fd5b8335925060208401356001600160401b0381111561471d57600080fd5b614729868287016141ac565b9497909650939450505050565b634e487b7160e01b600052604160045260246000fd5b60405160c081016001600160401b038111828210171561476e5761476e614736565b60405290565b604051601f8201601f191681016001600160401b038111828210171561479c5761479c614736565b604052919050565b60006001600160401b038211156147bd576147bd614736565b50601f01601f191660200190565b600080604083850312156147de57600080fd5b8235915060208301356001600160401b038111156147fb57600080fd5b8301601f8101851361480c57600080fd5b803561481f61481a826147a4565b614774565b81815286602083850101111561483457600080fd5b816020840160208301376000602083830101528093505050509250929050565b60006001600160401b0382111561486d5761486d614736565b5060051b60200190565b6000806040838503121561488a57600080fd5b823591506020808401356001600160401b038111156148a857600080fd5b8401601f810186136148b957600080fd5b80356148c761481a82614854565b81815260059190911b820183019083810190888311156148e657600080fd5b928401925b82841015614904578335825292840192908401906148eb565b80955050505050509250929050565b60008060006060848603121561492857600080fd5b833561493381614197565b9250602084013561494381614197565b929592945050506040919091013590565b60008060008060008060008060a0898b03121561497057600080fd5b883561497b81614197565b9750602089013561498b81614197565b965060408901356001600160401b03808211156149a757600080fd5b6149b38c838d016141ac565b909850965060608b01359150808211156149cc57600080fd5b6149d88c838d016141ac565b909650945060808b01359150808211156149f157600080fd5b506149fe8b828c016142dd565b999c989b5096995094979396929594505050565b6001600160e01b031991909116815260200190565b600080600060408486031215614a3c57600080fd5b83356001600160401b03811115614a5257600080fd5b614a5e868287016142dd565b909790965060209590950135949350505050565b6000602080830181845280855180835260408601915060408160051b870101925083870160005b828110156146de57603f19888603018452614ab5858351614158565b94509285019290850190600101614a99565b600081518084526020808501808196508360051b8101915082860160005b858110156144de578284038952815180516001600160a01b031685528501516040868601819052614b1881870183614158565b9a87019a9550505090840190600101614ae5565b600481106142935761429361426d565b600081518084526020808501808196508360051b8101915082860160005b858110156144de578284038952815160a08151865286820151614b7f88880182614b2c565b506040828101519087015260608083015190870152608091820151918601819052614bac81870183614158565b9a87019a9550505090840190600101614b5a565b60208152600060018060a01b03808451166020840152806020850151166040840152506040830151614bf56060840182614260565b5060608301516080830152608083015160e060a0840152614c1a610100840182614ac7565b905060a0840151601f19808584030160c0860152614c388383614b3c565b925060c08601519150808584030160e086015250614c5682826144eb565b95945050505050565b60008060408385031215614c7257600080fd5b50508035926020909101359150565b6020808252825182820181905260009190848201906040850190845b81811015614cc35783516001600160e01b03191683529284019291840191600101614c9d565b50909695505050505050565b60008060008060008060a08789031215614ce857600080fd5b8635614cf381614197565b95506020870135614d0381614197565b9450604087013593506060870135925060808701356001600160401b03811115614d2c57600080fd5b614d3889828a016142dd565b979a9699509497509295939492505050565b6020815260006122156020830184614628565b600181811c90821680614d7157607f821691505b6020821081036143b657634e487b7160e01b600052602260045260246000fd5b634e487b7160e01b600052603260045260246000fd5b6020808252600a9082015269151a5b595b1bd8dad95960b21b604082015260600190565b600060208284031215614ddd57600080fd5b815161221581614197565b6001600160a01b03929092168252602082015260400190565b6020808252600b908201526a27b7363c9025b2b2b832b960a91b604082015260600190565b81835260006001600160fb1b03831115614e3f57600080fd5b8260051b8083602087013760009401602001938452509192915050565b60018060a01b0386168152846020820152836040820152608060608201526000613f2d608083018486614e26565b634e487b7160e01b600052601160045260246000fd5b600060018201614eb257614eb2614e8a565b5060010190565b6020808252600f908201526e27b7363c9030b93134ba3930ba37b960891b604082015260600190565b600082821015614ef457614ef4614e8a565b500390565b600060208284031215614f0b57600080fd5b8151801515811461221557600080fd5b6020808252600d908201526c139bdd081c195c9b5a5d1d1959609a1b604082015260600190565b60009081526020902090565b6000815480845260208085019450836000528060002060005b8381101561448b57815487529582019560019182019101614f67565b600081548084526020808501808196508360051b810191506000868152838120815b86811015615011578385038a52815485526040868601819052600180840180549288018390528552878520606088019290919086905b80821015614ff85783548552938a01939282019290820190614fdb565b5050509a87019a50945060029190910190600101614fa5565b509298975050505050505050565b6000815461502c81614d5d565b808552602060018381168015615049576001811461505d5761508b565b60ff1985168884015260408801955061508b565b866000528260002060005b858110156150835781548a8201860152908301908401615068565b890184019650505b505050505092915050565b600081548084526020808501808196508360051b81019150856000528260002060005b858110156144de5782840389526150d0848361501f565b988501989350600191820191016150b9565b600060018060a01b038087168352608060208401526151076080840182885416614260565b50600185015460a0830152600285015460c0830152600385015460e083015260e061010083015261513f610160830160048701614f4e565b607f19808483030161012085015261515a8260058901614f83565b91508084830301610140850152506151758160068801615096565b9150506151856040830185614260565b82606083015295945050505050565b805160068110610dfd57600080fd5b600060208083850312156151b657600080fd5b82516001600160401b03808211156151cd57600080fd5b9084019060c082870312156151e157600080fd5b6151e961474c565b82516151f481614197565b808252508383015184820152604083015160408201526060830151606082015260808301518281111561522657600080fd5b83019150601f8201871361523957600080fd5b815161524761481a82614854565b81815260059190911b8301850190858101908983111561526657600080fd5b938601935b828510156152845784518252938601939086019061526b565b608084015250615298905060a08401615194565b60a08201529695505050505050565b602080825260189082015277139bdd08105c989a5d1c985d1a5bdb94995c5d595cdd195960421b604082015260600190565b6000808335601e198436030181126152f057600080fd5b83016020810192503590506001600160401b0381111561530f57600080fd5b8060051b36038213156141f057600080fd5b6000808335601e1984360301811261533857600080fd5b83016020810192503590506001600160401b0381111561535757600080fd5b8036038213156141f057600080fd5b81835281816020850137506000828201602090810191909152601f909101601f19169091010190565b60008235603e198336030181126153a557600080fd5b90910192915050565b81835260006020808501808196508560051b810191508460005b878110156144de5782840389526153df828861538f565b604081356153ec81614197565b6001600160a01b0316865261540382880183615321565b925081888801526154178288018483615366565b9b88019b9650505091850191506001016153c8565b60048110610cee57600080fd5b81835260006020808501808196508560051b81019150846000805b88811015615011578385038a528235609e19893603018112615474578283fd5b88018035865260a0878201356154898161542c565b61549589890182614b2c565b50604082810135908801526060808301359088015260806154b881840184615321565b935082828a01526154cc838a018583615366565b9d8a019d98505050938701935050600101615454565b6000823560de198336030181126153a557600080fd5b81835260006020808501808196508560051b810191508460005b878110156144de5782840389526155298288615321565b615534868284615366565b9a87019a9550505090840190600101615512565b6000813561555581614197565b6001600160a01b0316835260208281013581850152604080840135818601526060808501359086015261558b60808501856152d9565b60e060808801526155a060e088018284614e26565b9150506155b060a08601866152d9565b87830360a0890152808352848301600582901b840186018360005b8481101561561e57868303601f190184526155e6828761538f565b803584526155f68a8201826152d9565b9150898b86015261560a8a86018383614e26565b958b019594505050908801906001016155cb565b505061562d60c08a018a6152d9565b9750955089810360c08b01526156448188886154f8565b9a9950505050505050505050565b6001600160a01b03858116825260806020830152600090853561567481614197565b1660808301526156866020860161435f565b61569360a0840182614260565b506156a06040860161435f565b6156ad60c0840182614260565b50606085013560e08301526156c560808601866152d9565b60e06101008501526156dc610160850182846153ae565b9150506156ec60a08701876152d9565b607f198086850301610120870152615705848385615439565b935061571460c08a018a6154e2565b92508086850301610140870152505061572d8282615548565b60408501969096525050506060015292915050565b60006020828403121561575457600080fd5b813561221581614197565b80546001600160a01b0319166001600160a01b0392909216919091179055565b6000808335601e1984360301811261579657600080fd5b8301803591506001600160401b038211156157b057600080fd5b6020019150600581901b36038213156141f057600080fd5b60008235603e198336030181126157de57600080fd5b9190910192915050565b600081600019048311821515161561580257615802614e8a565b500290565b5b818110156131135760008155600101615808565b600019600383901b1c191660019190911b1790565b61583b8154614d5d565b801561311357601f81116001811461585557505060009055565b826000526020600020615873601f840160051c820160018301615807565b506020600090812081855555505050565b6000808335601e1984360301811261589b57600080fd5b8301803591506001600160401b038211156158b557600080fd5b6020019150368190038213156141f057600080fd5b601f821115611d7357806000526020600020601f840160051c810160208510156158f15750805b610962601f850160051c830182615807565b6001600160401b0383111561591a5761591a614736565b61592e836159288354614d5d565b836158ca565b6000601f84116001811461595c576000851561594a5750838201355b615954868261581c565b845550610962565b601f19851661596a84614f42565b835b8281101561598c578685013582556020948501946001909201910161596c565b50868210156159a95760001960f88860031b161c19848701351681555b505060018560011b0183555050505050565b81356159c681614197565b6159d0818361575f565b50600180820160206159e481860186615884565b6001600160401b038111156159fb576159fb614736565b615a0f81615a098654614d5d565b866158ca565b6000601f821160018114615a3d5760008315615a2b5750838201355b615a35848261581c565b875550610a81565b601f198316615a4b87614f42565b835b82811015615a6a5786850135825593870193908901908701615a4d565b5084821015615a875760001960f88660031b161c19848701351681555b50505050841b90930190915550505050565b60008235609e198336030181126157de57600080fd5b81358155600181016020830135615ac58161542c565b60048110615ad557615ad561426d565b60ff1982541660ff8216811783555050506040820135600282015560608201356003820155615b076080830183615884565b614152818360048601615903565b600160401b831115615b2957615b29614736565b805483825580841015615bcd577f33333333333333333333333333333333333333333333333333333333333333336001818311811615615b6b57615b6b614e8a565b6005828711821615615b7f57615b7f614e8a565b600085815260208120909350878202810190828602015b80821015615bc7578482558484830155846002830155846003830155615bbe60048301615831565b90820190615b96565b50505050505b5081615bd882614f42565b60005b858110156120b057615bf6615bf08487615a99565b83615aaf565b6020929092019160059190910190600101615bdb565b6000823560de198336030181126157de57600080fd5b805460008083558115611d7357828152602081208281015b8082101561096257828255600182019150615c3a565b8135815560018082016020615c678186018661577f565b600160401b811115615c7b57615c7b614736565b835481855580821015615caf5760008581528481208381019083015b80821015615cab5782825590880190615c97565b5050505b506000938452828420935b81811015615cd5578235855593850193918301918501615cba565b5050505050505050565b600160401b831115615cf357615cf3614736565b805483825580841015615d6b576001600160ff1b036001818311811615615d1c57615d1c614e8a565b818611811615615d2e57615d2e614e8a565b60008481526020812090925086821b81019084831b015b80821015615d6657838255615d5b838301615c22565b600282019150615d45565b505050505b5081615d7682614f42565b60005b858110156120b057615d94615d8e84876157c8565b83615c50565b6020929092019160029190910190600101615d79565b600160401b831115615dbe57615dbe614736565b805483825580841015615e47576000828152602081208581019083015b80821015615e4357615ded8254614d5d565b8015615e3757601f80821160018114615e0857858555615e34565b615e1185614f42565b615e2583850160051c820160018301615807565b50600085815260208120818755555b50505b50600182019150615ddb565b5050505b5081615e5282614f42565b60005b858110156120b057615e678386615884565b615e72818386615903565b50506020929092019160019182019101615e55565b8135615e9281614197565b615e9c818361575f565b50600160208084013582840155604084013560028401556060840135600384015560048301615ece608086018661577f565b600160401b811115615ee257615ee2614736565b825481845580821015615f07578360005284600020615f05828201848301615807565b505b506000928352838320925b81811015615f2d578235845592850192918401918501615f12565b505050505050615f4060a083018361577f565b615f4e818360058601615cdf565b5050615f5d60c083018361577f565b614152818360068601615daa565b8135615f7681614197565b615f80818361575f565b506001602080840135615f9281614197565b615f9e8184860161575f565b5060026040850135615faf81614197565b615fbb8183870161575f565b506060850135600385015560048401615fd7608087018761577f565b600160401b811115615feb57615feb614736565b82548184558082101561605b576001600160ff1b0380821188161561601257616012614e8a565b80831188161561602457616024614e8a565b50600084815286812083891b810190838a1b015b808210156160575782825561604e8a8301615831565b90870190616038565b5050505b508161606684614f42565b935060005b828110156160955761608661608083866157c8565b866159bb565b9385019390860190870161606b565b50505050505050506160aa60a083018361577f565b6160b8818360058601615b15565b50506131136160ca60c0840184615c0c565b60068301615e87565b6020808252601e908201527f6c656e677468206d757374206d61746368206f7574636f6d65536c6f74730000604082015260600190565b838152604060208201526000614c56604083018486614e26565b6001600160a01b038416815260208082018490526060604083018190528351908301819052600091848101916080850190845b8181101561617357845183529383019391830191600101616157565b509098975050505050505050565b6000604080830181845280865480835260609250828601915060058382821b8801018960005260208060002060005b8581101561621657605f198b850301875260a08254855260ff6001840154166161db85870182614b2c565b5060028301548a8601526003830154898601528060808601526162038186016004850161501f565b97840197945050908401906001016161b0565b5050979097019790975250939695505050505050565b60006020828403121561623e57600080fd5b5051919050565b606081526000616259606083018688615366565b6001600160a01b03949094166020830152506040015292915050565b60609290921b6001600160601b0319168252601482015260340190565b60208082526015908201527436b9b39739b2b73232b9103737ba1039b7b63b32b960591b604082015260600190565b6000602082840312156162d357600080fd5b81516001600160401b038111156162e957600080fd5b8201601f810184136162fa57600080fd5b805161630861481a826147a4565b81815285602083850101111561631d57600080fd5b614c56826020830160208601614128565b60008161633d5761633d614e8a565b506000190190565b6000821982111561635857616358614e8a565b500190565b6020808252602e908201527f496e697469616c697a61626c653a20636f6e747261637420697320616c72656160408201526d191e481a5b9a5d1a585b1a5e995960921b606082015260800190565b602081526000613e08602083018486615366565b600082516157de81846020870161412856fe71bd81ebe1d98a2944767394e76a9aff18724b2cf04e1db71254f804544b35c7a26469706673582212200bedb712033c235c4ecf2052a97e89620226bfd20548d8267f31f1a2e56f1ae664736f6c634300080e0033",
  "linkReferences": {
    "contracts/solvers/SolverLib.sol": {
      "SolverLib": [
        {
          "length": 20,
          "start": 2605
        },
        {
          "length": 20,
          "start": 3618
        },
        {
          "length": 20,
          "start": 4306
        },
        {
          "length": 20,
          "start": 4725
        },
        {
          "length": 20,
          "start": 5532
        },
        {
          "length": 20,
          "start": 6172
        },
        {
          "length": 20,
          "start": 7845
        },
        {
          "length": 20,
          "start": 8569
        },
        {
          "length": 20,
          "start": 8849
        },
        {
          "length": 20,
          "start": 9269
        },
        {
          "length": 20,
          "start": 15458
        }
      ]
    }
  },
  "deployedLinkReferences": {
    "contracts/solvers/SolverLib.sol": {
      "SolverLib": [
        {
          "length": 20,
          "start": 2153
        },
        {
          "length": 20,
          "start": 3166
        },
        {
          "length": 20,
          "start": 3854
        },
        {
          "length": 20,
          "start": 4273
        },
        {
          "length": 20,
          "start": 5080
        },
        {
          "length": 20,
          "start": 5720
        },
        {
          "length": 20,
          "start": 7393
        },
        {
          "length": 20,
          "start": 8117
        },
        {
          "length": 20,
          "start": 8397
        },
        {
          "length": 20,
          "start": 8817
        },
        {
          "length": 20,
          "start": 15006
        }
      ]
    }
  }
}