{
  "_format": "hh-sol-artifact-1",
  "contractName": "WriterSolverV1",
  "sourceName": "contracts/solvers/WriterSolverV1.sol",
  "abi": [
    {
      "anonymous": false,
      "inputs": [
        {
          "indexed": false,
          "internalType": "bytes32",
          "name": "conditionId",
          "type": "bytes32"
        }
      ],
      "name": "ChangedStatus",
      "type": "event"
    },
    {
      "anonymous": false,
      "inputs": [
        {
          "indexed": false,
          "internalType": "bytes32",
          "name": "conditionId",
          "type": "bytes32"
        }
      ],
      "name": "DeliveredNullArbitration",
      "type": "event"
    },
    {
      "anonymous": false,
      "inputs": [
        {
          "indexed": false,
          "internalType": "address",
          "name": "child",
          "type": "address"
        }
      ],
      "name": "DeployedChild",
      "type": "event"
    },
    {
      "anonymous": false,
      "inputs": [],
      "name": "IngestedData",
      "type": "event"
    },
    {
      "anonymous": false,
      "inputs": [
        {
          "indexed": false,
          "internalType": "uint8",
          "name": "version",
          "type": "uint8"
        }
      ],
      "name": "Initialized",
      "type": "event"
    },
    {
      "anonymous": false,
      "inputs": [
        {
          "indexed": true,
          "internalType": "address",
          "name": "module",
          "type": "address"
        },
        {
          "indexed": true,
          "internalType": "address",
          "name": "solver",
          "type": "address"
        }
      ],
      "name": "LoadedModule",
      "type": "event"
    },
    {
      "anonymous": false,
      "inputs": [
        {
          "indexed": false,
          "internalType": "address",
          "name": "solver",
          "type": "address"
        },
        {
          "indexed": false,
          "internalType": "uint256",
          "name": "solveIndex",
          "type": "uint256"
        }
      ],
      "name": "PreparedSolve",
      "type": "event"
    },
    {
      "anonymous": false,
      "inputs": [
        {
          "indexed": false,
          "internalType": "string",
          "name": "cid",
          "type": "string"
        },
        {
          "indexed": false,
          "internalType": "address",
          "name": "submitter",
          "type": "address"
        },
        {
          "indexed": false,
          "internalType": "bytes32",
          "name": "conditionId",
          "type": "bytes32"
        }
      ],
      "name": "SubmittedWork",
      "type": "event"
    },
    {
      "inputs": [
        {
          "internalType": "bytes32",
          "name": "_slot",
          "type": "bytes32"
        },
        {
          "internalType": "bytes",
          "name": "_data",
          "type": "bytes"
        }
      ],
      "name": "addData",
      "outputs": [],
      "stateMutability": "nonpayable",
      "type": "function"
    },
    {
      "inputs": [
        {
          "internalType": "uint256",
          "name": "_index",
          "type": "uint256"
        }
      ],
      "name": "addressFromChainIndex",
      "outputs": [
        {
          "internalType": "address",
          "name": "_address",
          "type": "address"
        }
      ],
      "stateMutability": "view",
      "type": "function"
    },
    {
      "inputs": [
        {
          "internalType": "uint256",
          "name": "_index",
          "type": "uint256"
        }
      ],
      "name": "allocationsValid",
      "outputs": [
        {
          "internalType": "bool",
          "name": "",
          "type": "bool"
        }
      ],
      "stateMutability": "view",
      "type": "function"
    },
    {
      "inputs": [
        {
          "internalType": "uint256",
          "name": "_index",
          "type": "uint256"
        },
        {
          "internalType": "uint256[]",
          "name": "payouts",
          "type": "uint256[]"
        }
      ],
      "name": "arbitrate",
      "outputs": [],
      "stateMutability": "nonpayable",
      "type": "function"
    },
    {
      "inputs": [
        {
          "internalType": "uint256",
          "name": "_index",
          "type": "uint256"
        }
      ],
      "name": "arbitrateNull",
      "outputs": [],
      "stateMutability": "nonpayable",
      "type": "function"
    },
    {
      "inputs": [
        {
          "internalType": "uint256",
          "name": "_index",
          "type": "uint256"
        }
      ],
      "name": "arbitrationRequested",
      "outputs": [],
      "stateMutability": "nonpayable",
      "type": "function"
    },
    {
      "inputs": [],
      "name": "arbitrator",
      "outputs": [
        {
          "internalType": "address",
          "name": "",
          "type": "address"
        }
      ],
      "stateMutability": "view",
      "type": "function"
    },
    {
      "inputs": [],
      "name": "chainChild",
      "outputs": [
        {
          "internalType": "address",
          "name": "",
          "type": "address"
        }
      ],
      "stateMutability": "view",
      "type": "function"
    },
    {
      "inputs": [],
      "name": "chainIndex",
      "outputs": [
        {
          "internalType": "uint256",
          "name": "",
          "type": "uint256"
        }
      ],
      "stateMutability": "view",
      "type": "function"
    },
    {
      "inputs": [],
      "name": "chainParent",
      "outputs": [
        {
          "internalType": "address",
          "name": "",
          "type": "address"
        }
      ],
      "stateMutability": "view",
      "type": "function"
    },
    {
      "inputs": [],
      "name": "collateralBalance",
      "outputs": [
        {
          "internalType": "uint256",
          "name": "balance",
          "type": "uint256"
        }
      ],
      "stateMutability": "view",
      "type": "function"
    },
    {
      "inputs": [
        {
          "internalType": "uint256",
          "name": "index",
          "type": "uint256"
        }
      ],
      "name": "condition",
      "outputs": [
        {
          "components": [
            {
              "internalType": "contract IERC20",
              "name": "collateralToken",
              "type": "address"
            },
            {
              "internalType": "bytes32",
              "name": "questionId",
              "type": "bytes32"
            },
            {
              "internalType": "bytes32",
              "name": "parentCollectionId",
              "type": "bytes32"
            },
            {
              "internalType": "bytes32",
              "name": "conditionId",
              "type": "bytes32"
            },
            {
              "internalType": "uint256[]",
              "name": "payouts",
              "type": "uint256[]"
            },
            {
              "internalType": "enum SolverLib.Status",
              "name": "status",
              "type": "uint8"
            }
          ],
          "internalType": "struct SolverLib.Condition",
          "name": "",
          "type": "tuple"
        }
      ],
      "stateMutability": "view",
      "type": "function"
    },
    {
      "inputs": [
        {
          "internalType": "uint256",
          "name": "",
          "type": "uint256"
        }
      ],
      "name": "conditions",
      "outputs": [
        {
          "internalType": "contract IERC20",
          "name": "collateralToken",
          "type": "address"
        },
        {
          "internalType": "bytes32",
          "name": "questionId",
          "type": "bytes32"
        },
        {
          "internalType": "bytes32",
          "name": "parentCollectionId",
          "type": "bytes32"
        },
        {
          "internalType": "bytes32",
          "name": "conditionId",
          "type": "bytes32"
        },
        {
          "internalType": "enum SolverLib.Status",
          "name": "status",
          "type": "uint8"
        }
      ],
      "stateMutability": "view",
      "type": "function"
    },
    {
      "inputs": [],
      "name": "config",
      "outputs": [
        {
          "internalType": "contract Solver",
          "name": "implementation",
          "type": "address"
        },
        {
          "internalType": "address",
          "name": "keeper",
          "type": "address"
        },
        {
          "internalType": "address",
          "name": "arbitrator",
          "type": "address"
        },
        {
          "internalType": "uint256",
          "name": "timelockSeconds",
          "type": "uint256"
        },
        {
          "components": [
            {
              "internalType": "contract IERC20",
              "name": "collateralToken",
              "type": "address"
            },
            {
              "internalType": "uint256",
              "name": "outcomeSlots",
              "type": "uint256"
            },
            {
              "internalType": "uint256",
              "name": "parentCollectionIndexSet",
              "type": "uint256"
            },
            {
              "internalType": "bytes32",
              "name": "amountSlot",
              "type": "bytes32"
            },
            {
              "internalType": "uint256[]",
              "name": "partition",
              "type": "uint256[]"
            },
            {
              "components": [
                {
                  "internalType": "bytes32",
                  "name": "recipientAddressSlot",
                  "type": "bytes32"
                },
                {
                  "internalType": "bytes32[]",
                  "name": "recipientAmountSlots",
                  "type": "bytes32[]"
                }
              ],
              "internalType": "struct SolverLib.Allocation[]",
              "name": "allocations",
              "type": "tuple[]"
            },
            {
              "components": [
                {
                  "internalType": "bytes32",
                  "name": "digest",
                  "type": "bytes32"
                },
                {
                  "internalType": "uint8",
                  "name": "hashFunction",
                  "type": "uint8"
                },
                {
                  "internalType": "uint8",
                  "name": "size",
                  "type": "uint8"
                }
              ],
              "internalType": "struct SolverLib.Multihash[]",
              "name": "outcomeURIs",
              "type": "tuple[]"
            }
          ],
          "internalType": "struct SolverLib.ConditionBase",
          "name": "conditionBase",
          "type": "tuple"
        }
      ],
      "stateMutability": "view",
      "type": "function"
    },
    {
      "inputs": [
        {
          "internalType": "uint256",
          "name": "_index",
          "type": "uint256"
        }
      ],
      "name": "confirmPayouts",
      "outputs": [],
      "stateMutability": "nonpayable",
      "type": "function"
    },
    {
      "inputs": [
        {
          "components": [
            {
              "internalType": "contract Solver",
              "name": "implementation",
              "type": "address"
            },
            {
              "internalType": "address",
              "name": "keeper",
              "type": "address"
            },
            {
              "internalType": "address",
              "name": "arbitrator",
              "type": "address"
            },
            {
              "internalType": "uint256",
              "name": "timelockSeconds",
              "type": "uint256"
            },
            {
              "components": [
                {
                  "internalType": "contract IModule",
                  "name": "module",
                  "type": "address"
                },
                {
                  "internalType": "bytes",
                  "name": "data",
                  "type": "bytes"
                }
              ],
              "internalType": "struct SolverLib.ModuleLoader[]",
              "name": "moduleLoaders",
              "type": "tuple[]"
            },
            {
              "components": [
                {
                  "internalType": "uint256",
                  "name": "executions",
                  "type": "uint256"
                },
                {
                  "internalType": "enum SolverLib.IngestType",
                  "name": "ingestType",
                  "type": "uint8"
                },
                {
                  "internalType": "bytes32",
                  "name": "slot",
                  "type": "bytes32"
                },
                {
                  "internalType": "uint256",
                  "name": "solverIndex",
                  "type": "uint256"
                },
                {
                  "internalType": "bytes",
                  "name": "data",
                  "type": "bytes"
                }
              ],
              "internalType": "struct SolverLib.Ingest[]",
              "name": "ingests",
              "type": "tuple[]"
            },
            {
              "components": [
                {
                  "internalType": "contract IERC20",
                  "name": "collateralToken",
                  "type": "address"
                },
                {
                  "internalType": "uint256",
                  "name": "outcomeSlots",
                  "type": "uint256"
                },
                {
                  "internalType": "uint256",
                  "name": "parentCollectionIndexSet",
                  "type": "uint256"
                },
                {
                  "internalType": "bytes32",
                  "name": "amountSlot",
                  "type": "bytes32"
                },
                {
                  "internalType": "uint256[]",
                  "name": "partition",
                  "type": "uint256[]"
                },
                {
                  "components": [
                    {
                      "internalType": "bytes32",
                      "name": "recipientAddressSlot",
                      "type": "bytes32"
                    },
                    {
                      "internalType": "bytes32[]",
                      "name": "recipientAmountSlots",
                      "type": "bytes32[]"
                    }
                  ],
                  "internalType": "struct SolverLib.Allocation[]",
                  "name": "allocations",
                  "type": "tuple[]"
                },
                {
                  "components": [
                    {
                      "internalType": "bytes32",
                      "name": "digest",
                      "type": "bytes32"
                    },
                    {
                      "internalType": "uint8",
                      "name": "hashFunction",
                      "type": "uint8"
                    },
                    {
                      "internalType": "uint8",
                      "name": "size",
                      "type": "uint8"
                    }
                  ],
                  "internalType": "struct SolverLib.Multihash[]",
                  "name": "outcomeURIs",
                  "type": "tuple[]"
                }
              ],
              "internalType": "struct SolverLib.ConditionBase",
              "name": "conditionBase",
              "type": "tuple"
            }
          ],
          "internalType": "struct SolverLib.Config",
          "name": "_config",
          "type": "tuple"
        }
      ],
      "name": "deployChild",
      "outputs": [
        {
          "internalType": "address",
          "name": "",
          "type": "address"
        }
      ],
      "stateMutability": "nonpayable",
      "type": "function"
    },
    {
      "inputs": [
        {
          "internalType": "uint256",
          "name": "_index",
          "type": "uint256"
        }
      ],
      "name": "executeSolve",
      "outputs": [],
      "stateMutability": "nonpayable",
      "type": "function"
    },
    {
      "inputs": [
        {
          "internalType": "bytes32",
          "name": "_slot",
          "type": "bytes32"
        }
      ],
      "name": "getAllData",
      "outputs": [
        {
          "internalType": "bytes[]",
          "name": "data",
          "type": "bytes[]"
        }
      ],
      "stateMutability": "view",
      "type": "function"
    },
    {
      "inputs": [
        {
          "internalType": "bytes32",
          "name": "_slot",
          "type": "bytes32"
        }
      ],
      "name": "getCallbackOutput",
      "outputs": [
        {
          "internalType": "bytes",
          "name": "data",
          "type": "bytes"
        }
      ],
      "stateMutability": "view",
      "type": "function"
    },
    {
      "inputs": [],
      "name": "getConditions",
      "outputs": [
        {
          "components": [
            {
              "internalType": "contract IERC20",
              "name": "collateralToken",
              "type": "address"
            },
            {
              "internalType": "bytes32",
              "name": "questionId",
              "type": "bytes32"
            },
            {
              "internalType": "bytes32",
              "name": "parentCollectionId",
              "type": "bytes32"
            },
            {
              "internalType": "bytes32",
              "name": "conditionId",
              "type": "bytes32"
            },
            {
              "internalType": "uint256[]",
              "name": "payouts",
              "type": "uint256[]"
            },
            {
              "internalType": "enum SolverLib.Status",
              "name": "status",
              "type": "uint8"
            }
          ],
          "internalType": "struct SolverLib.Condition[]",
          "name": "",
          "type": "tuple[]"
        }
      ],
      "stateMutability": "view",
      "type": "function"
    },
    {
      "inputs": [],
      "name": "getConfig",
      "outputs": [
        {
          "components": [
            {
              "internalType": "contract Solver",
              "name": "implementation",
              "type": "address"
            },
            {
              "internalType": "address",
              "name": "keeper",
              "type": "address"
            },
            {
              "internalType": "address",
              "name": "arbitrator",
              "type": "address"
            },
            {
              "internalType": "uint256",
              "name": "timelockSeconds",
              "type": "uint256"
            },
            {
              "components": [
                {
                  "internalType": "contract IModule",
                  "name": "module",
                  "type": "address"
                },
                {
                  "internalType": "bytes",
                  "name": "data",
                  "type": "bytes"
                }
              ],
              "internalType": "struct SolverLib.ModuleLoader[]",
              "name": "moduleLoaders",
              "type": "tuple[]"
            },
            {
              "components": [
                {
                  "internalType": "uint256",
                  "name": "executions",
                  "type": "uint256"
                },
                {
                  "internalType": "enum SolverLib.IngestType",
                  "name": "ingestType",
                  "type": "uint8"
                },
                {
                  "internalType": "bytes32",
                  "name": "slot",
                  "type": "bytes32"
                },
                {
                  "internalType": "uint256",
                  "name": "solverIndex",
                  "type": "uint256"
                },
                {
                  "internalType": "bytes",
                  "name": "data",
                  "type": "bytes"
                }
              ],
              "internalType": "struct SolverLib.Ingest[]",
              "name": "ingests",
              "type": "tuple[]"
            },
            {
              "components": [
                {
                  "internalType": "contract IERC20",
                  "name": "collateralToken",
                  "type": "address"
                },
                {
                  "internalType": "uint256",
                  "name": "outcomeSlots",
                  "type": "uint256"
                },
                {
                  "internalType": "uint256",
                  "name": "parentCollectionIndexSet",
                  "type": "uint256"
                },
                {
                  "internalType": "bytes32",
                  "name": "amountSlot",
                  "type": "bytes32"
                },
                {
                  "internalType": "uint256[]",
                  "name": "partition",
                  "type": "uint256[]"
                },
                {
                  "components": [
                    {
                      "internalType": "bytes32",
                      "name": "recipientAddressSlot",
                      "type": "bytes32"
                    },
                    {
                      "internalType": "bytes32[]",
                      "name": "recipientAmountSlots",
                      "type": "bytes32[]"
                    }
                  ],
                  "internalType": "struct SolverLib.Allocation[]",
                  "name": "allocations",
                  "type": "tuple[]"
                },
                {
                  "components": [
                    {
                      "internalType": "bytes32",
                      "name": "digest",
                      "type": "bytes32"
                    },
                    {
                      "internalType": "uint8",
                      "name": "hashFunction",
                      "type": "uint8"
                    },
                    {
                      "internalType": "uint8",
                      "name": "size",
                      "type": "uint8"
                    }
                  ],
                  "internalType": "struct SolverLib.Multihash[]",
                  "name": "outcomeURIs",
                  "type": "tuple[]"
                }
              ],
              "internalType": "struct SolverLib.ConditionBase",
              "name": "conditionBase",
              "type": "tuple"
            }
          ],
          "internalType": "struct SolverLib.Config",
          "name": "",
          "type": "tuple"
        }
      ],
      "stateMutability": "view",
      "type": "function"
    },
    {
      "inputs": [
        {
          "internalType": "bytes32",
          "name": "_slot",
          "type": "bytes32"
        }
      ],
      "name": "getData",
      "outputs": [
        {
          "internalType": "bytes",
          "name": "data",
          "type": "bytes"
        }
      ],
      "stateMutability": "view",
      "type": "function"
    },
    {
      "inputs": [
        {
          "internalType": "bytes32",
          "name": "key",
          "type": "bytes32"
        }
      ],
      "name": "getState",
      "outputs": [
        {
          "internalType": "bytes",
          "name": "data",
          "type": "bytes"
        }
      ],
      "stateMutability": "view",
      "type": "function"
    },
    {
      "inputs": [
        {
          "internalType": "uint256",
          "name": "conditionIndex",
          "type": "uint256"
        }
      ],
      "name": "getStatus",
      "outputs": [
        {
          "internalType": "enum SolverLib.Status",
          "name": "status",
          "type": "uint8"
        }
      ],
      "stateMutability": "view",
      "type": "function"
    },
    {
      "inputs": [
        {
          "internalType": "bytes32",
          "name": "_slot",
          "type": "bytes32"
        }
      ],
      "name": "handleCallback",
      "outputs": [],
      "stateMutability": "nonpayable",
      "type": "function"
    },
    {
      "inputs": [],
      "name": "ingestsValid",
      "outputs": [
        {
          "internalType": "bool",
          "name": "",
          "type": "bool"
        }
      ],
      "stateMutability": "view",
      "type": "function"
    },
    {
      "inputs": [
        {
          "internalType": "address",
          "name": "_deployer",
          "type": "address"
        },
        {
          "internalType": "address",
          "name": "_ctfAddress",
          "type": "address"
        },
        {
          "internalType": "address",
          "name": "_chainParent",
          "type": "address"
        },
        {
          "internalType": "uint256",
          "name": "_chainIndex",
          "type": "uint256"
        },
        {
          "components": [
            {
              "internalType": "contract Solver",
              "name": "implementation",
              "type": "address"
            },
            {
              "internalType": "address",
              "name": "keeper",
              "type": "address"
            },
            {
              "internalType": "address",
              "name": "arbitrator",
              "type": "address"
            },
            {
              "internalType": "uint256",
              "name": "timelockSeconds",
              "type": "uint256"
            },
            {
              "components": [
                {
                  "internalType": "contract IModule",
                  "name": "module",
                  "type": "address"
                },
                {
                  "internalType": "bytes",
                  "name": "data",
                  "type": "bytes"
                }
              ],
              "internalType": "struct SolverLib.ModuleLoader[]",
              "name": "moduleLoaders",
              "type": "tuple[]"
            },
            {
              "components": [
                {
                  "internalType": "uint256",
                  "name": "executions",
                  "type": "uint256"
                },
                {
                  "internalType": "enum SolverLib.IngestType",
                  "name": "ingestType",
                  "type": "uint8"
                },
                {
                  "internalType": "bytes32",
                  "name": "slot",
                  "type": "bytes32"
                },
                {
                  "internalType": "uint256",
                  "name": "solverIndex",
                  "type": "uint256"
                },
                {
                  "internalType": "bytes",
                  "name": "data",
                  "type": "bytes"
                }
              ],
              "internalType": "struct SolverLib.Ingest[]",
              "name": "ingests",
              "type": "tuple[]"
            },
            {
              "components": [
                {
                  "internalType": "contract IERC20",
                  "name": "collateralToken",
                  "type": "address"
                },
                {
                  "internalType": "uint256",
                  "name": "outcomeSlots",
                  "type": "uint256"
                },
                {
                  "internalType": "uint256",
                  "name": "parentCollectionIndexSet",
                  "type": "uint256"
                },
                {
                  "internalType": "bytes32",
                  "name": "amountSlot",
                  "type": "bytes32"
                },
                {
                  "internalType": "uint256[]",
                  "name": "partition",
                  "type": "uint256[]"
                },
                {
                  "components": [
                    {
                      "internalType": "bytes32",
                      "name": "recipientAddressSlot",
                      "type": "bytes32"
                    },
                    {
                      "internalType": "bytes32[]",
                      "name": "recipientAmountSlots",
                      "type": "bytes32[]"
                    }
                  ],
                  "internalType": "struct SolverLib.Allocation[]",
                  "name": "allocations",
                  "type": "tuple[]"
                },
                {
                  "components": [
                    {
                      "internalType": "bytes32",
                      "name": "digest",
                      "type": "bytes32"
                    },
                    {
                      "internalType": "uint8",
                      "name": "hashFunction",
                      "type": "uint8"
                    },
                    {
                      "internalType": "uint8",
                      "name": "size",
                      "type": "uint8"
                    }
                  ],
                  "internalType": "struct SolverLib.Multihash[]",
                  "name": "outcomeURIs",
                  "type": "tuple[]"
                }
              ],
              "internalType": "struct SolverLib.ConditionBase",
              "name": "conditionBase",
              "type": "tuple"
            }
          ],
          "internalType": "struct SolverLib.Config",
          "name": "_solverConfig",
          "type": "tuple"
        }
      ],
      "name": "init",
      "outputs": [],
      "stateMutability": "nonpayable",
      "type": "function"
    },
    {
      "inputs": [
        {
          "internalType": "bytes4",
          "name": "selector",
          "type": "bytes4"
        }
      ],
      "name": "isPermitted",
      "outputs": [
        {
          "internalType": "bool",
          "name": "",
          "type": "bool"
        }
      ],
      "stateMutability": "view",
      "type": "function"
    },
    {
      "inputs": [
        {
          "internalType": "bytes4",
          "name": "selector",
          "type": "bytes4"
        }
      ],
      "name": "isPermittedModule",
      "outputs": [
        {
          "internalType": "bool",
          "name": "",
          "type": "bool"
        }
      ],
      "stateMutability": "view",
      "type": "function"
    },
    {
      "inputs": [
        {
          "internalType": "address",
          "name": "account",
          "type": "address"
        },
        {
          "internalType": "uint256",
          "name": "conditionIndex",
          "type": "uint256"
        }
      ],
      "name": "isRecipient",
      "outputs": [
        {
          "internalType": "bool",
          "name": "",
          "type": "bool"
        }
      ],
      "stateMutability": "view",
      "type": "function"
    },
    {
      "inputs": [],
      "name": "keeper",
      "outputs": [
        {
          "internalType": "address",
          "name": "",
          "type": "address"
        }
      ],
      "stateMutability": "view",
      "type": "function"
    },
    {
      "inputs": [
        {
          "internalType": "bytes",
          "name": "data",
          "type": "bytes"
        }
      ],
      "name": "load",
      "outputs": [],
      "stateMutability": "nonpayable",
      "type": "function"
    },
    {
      "inputs": [
        {
          "internalType": "address",
          "name": "operator",
          "type": "address"
        },
        {
          "internalType": "address",
          "name": "from",
          "type": "address"
        },
        {
          "internalType": "uint256[]",
          "name": "ids",
          "type": "uint256[]"
        },
        {
          "internalType": "uint256[]",
          "name": "values",
          "type": "uint256[]"
        },
        {
          "internalType": "bytes",
          "name": "data",
          "type": "bytes"
        }
      ],
      "name": "onERC1155BatchReceived",
      "outputs": [
        {
          "internalType": "bytes4",
          "name": "",
          "type": "bytes4"
        }
      ],
      "stateMutability": "nonpayable",
      "type": "function"
    },
    {
      "inputs": [
        {
          "internalType": "address",
          "name": "operator",
          "type": "address"
        },
        {
          "internalType": "address",
          "name": "from",
          "type": "address"
        },
        {
          "internalType": "uint256",
          "name": "id",
          "type": "uint256"
        },
        {
          "internalType": "uint256",
          "name": "value",
          "type": "uint256"
        },
        {
          "internalType": "bytes",
          "name": "data",
          "type": "bytes"
        }
      ],
      "name": "onERC1155Received",
      "outputs": [
        {
          "internalType": "bytes4",
          "name": "",
          "type": "bytes4"
        }
      ],
      "stateMutability": "nonpayable",
      "type": "function"
    },
    {
      "inputs": [
        {
          "internalType": "uint256",
          "name": "_index",
          "type": "uint256"
        }
      ],
      "name": "prepareSolve",
      "outputs": [],
      "stateMutability": "nonpayable",
      "type": "function"
    },
    {
      "inputs": [
        {
          "internalType": "uint256",
          "name": "_index",
          "type": "uint256"
        },
        {
          "internalType": "uint256[]",
          "name": "_payouts",
          "type": "uint256[]"
        }
      ],
      "name": "proposePayouts",
      "outputs": [],
      "stateMutability": "nonpayable",
      "type": "function"
    },
    {
      "inputs": [
        {
          "internalType": "contract IERC20",
          "name": "_collateralToken",
          "type": "address"
        },
        {
          "internalType": "bytes32",
          "name": "_parentCollectionId",
          "type": "bytes32"
        },
        {
          "internalType": "bytes32",
          "name": "_conditionId",
          "type": "bytes32"
        },
        {
          "internalType": "uint256[]",
          "name": "_indexSets",
          "type": "uint256[]"
        }
      ],
      "name": "redeemPosition",
      "outputs": [],
      "stateMutability": "nonpayable",
      "type": "function"
    },
    {
      "inputs": [
        {
          "internalType": "bytes32",
          "name": "_slot",
          "type": "bytes32"
        },
        {
          "internalType": "uint256",
          "name": "_chainIndex",
          "type": "uint256"
        }
      ],
      "name": "registerOutgoingCallback",
      "outputs": [],
      "stateMutability": "nonpayable",
      "type": "function"
    },
    {
      "inputs": [
        {
          "internalType": "bytes32",
          "name": "key",
          "type": "bytes32"
        },
        {
          "internalType": "bytes",
          "name": "data",
          "type": "bytes"
        }
      ],
      "name": "setState",
      "outputs": [],
      "stateMutability": "nonpayable",
      "type": "function"
    },
    {
      "inputs": [
        {
          "internalType": "uint256",
          "name": "_index",
          "type": "uint256"
        },
        {
          "internalType": "uint256",
          "name": "_date",
          "type": "uint256"
        }
      ],
      "name": "setTimelock",
      "outputs": [],
      "stateMutability": "nonpayable",
      "type": "function"
    },
    {
      "inputs": [
        {
          "internalType": "bytes32",
          "name": "_trackingId",
          "type": "bytes32"
        }
      ],
      "name": "setTrackingId",
      "outputs": [],
      "stateMutability": "nonpayable",
      "type": "function"
    },
    {
      "inputs": [
        {
          "internalType": "string",
          "name": "cid",
          "type": "string"
        },
        {
          "internalType": "bytes32",
          "name": "conditionId",
          "type": "bytes32"
        }
      ],
      "name": "submitWork",
      "outputs": [],
      "stateMutability": "nonpayable",
      "type": "function"
    },
    {
      "inputs": [
        {
          "internalType": "bytes4",
          "name": "interfaceId",
          "type": "bytes4"
        }
      ],
      "name": "supportsInterface",
      "outputs": [
        {
          "internalType": "bool",
          "name": "",
          "type": "bool"
        }
      ],
      "stateMutability": "view",
      "type": "function"
    },
    {
      "inputs": [
        {
          "internalType": "uint256",
          "name": "",
          "type": "uint256"
        }
      ],
      "name": "timelocks",
      "outputs": [
        {
          "internalType": "uint256",
          "name": "",
          "type": "uint256"
        }
      ],
      "stateMutability": "view",
      "type": "function"
    },
    {
      "inputs": [],
      "name": "trackingId",
      "outputs": [
        {
          "internalType": "bytes32",
          "name": "",
          "type": "bytes32"
        }
      ],
      "stateMutability": "view",
      "type": "function"
    },
    {
      "inputs": [],
      "name": "viewPermits",
      "outputs": [
        {
          "internalType": "bytes4[]",
          "name": "allPermits",
          "type": "bytes4[]"
        }
      ],
      "stateMutability": "view",
      "type": "function"
    },
    {
      "inputs": [],
      "name": "writer",
      "outputs": [
        {
          "internalType": "address",
          "name": "",
          "type": "address"
        }
      ],
      "stateMutability": "view",
      "type": "function"
    }
  ],
  "bytecode": "0x60806040523480156200001157600080fd5b506200001c62000022565b6200013b565b6200002e60ff62000031565b50565b60008054610100900460ff16156200009a578160ff1660011480156200006a57506200006830620000de60201b62002e2f1760201c565b155b620000925760405162461bcd60e51b81526004016200008990620000ed565b60405180910390fd5b506000919050565b60005460ff808416911610620000c45760405162461bcd60e51b81526004016200008990620000ed565b506000805460ff191660ff92909216919091179055600190565b6001600160a01b03163b151590565b6020808252602e908201527f496e697469616c697a61626c653a20636f6e747261637420697320616c72656160408201526d191e481a5b9a5d1a585b1a5e995960921b606082015260800190565b615c92806200014b6000396000f3fe608060405234801561001057600080fd5b50600436106102255760003560e01c806301ffc9a71461022a57806309648a9d146102525780630d06101a146102725780630d7e149f146102875780630d8d3975146102a85780630ebe1bbd146102bb57806318782559146102ce5780632248fd9e146102e157806326c50007146102f55780633837b05e146103195780633cef64cc146103395780633f4fb5aa1461034c57806344c3b6071461035f578063453a2abc1461037257806348cbb2fc1461037a5780634a77234e146103835780634dab5e69146103965780634e46f223146103a9578063506da0b8146103bc57806354f6127f146103cf57806355dd978b146103e25780635c622a0e146103f55780636cc6cde11461041557806379502c55146104265780637c1236271461043f57806380b204b71461045457806380c2dde21461046757806381296f6f1461047a5780638602ce1b1461048d5780638677fc14146104a057806387dfee57146104af57806399992506146104c2578063a272ebcf146104ca578063aced1661146104dd578063b992db0f146104ee578063bc197c8114610501578063c05bc73114610530578063c08d6f0114610543578063c3f909d414610563578063c8abf6da14610578578063c98c05b71461058b578063de3a23c514610593578063df33cc51146105a6578063ea8221a9146105b9578063ed25d178146105c2578063f23a6e61146105d5578063f24fc903146105e8575b600080fd5b61023d610238366004613941565b610608565b60405190151581526020015b60405180910390f35b61026561026036600461396b565b610628565b60405161024991906139e0565b61028561028036600461396b565b6106ca565b005b61029a61029536600461396b565b61072c565b604051908152602001610249565b6102856102b636600461396b565b61074d565b6102856102c9366004613a2b565b61089f565b6102856102dc366004613af4565b610a60565b61023d6102ef366004613941565b50600090565b61030861030336600461396b565b610b10565b604051610249959493929190613b94565b61032c61032736600461396b565b610b5e565b6040516102499190613bc6565b610285610347366004613c1b565b610c6f565b61026561035a36600461396b565b610cbd565b61023d61036d36600461396b565b610d54565b61032c610dd9565b61029a60155481565b61028561039136600461396b565b610dfe565b6102856103a436600461396b565b61115a565b6102856103b736600461396b565b6112ec565b61023d6103ca366004613c5c565b6113b3565b6102656103dd36600461396b565b6114f8565b60125461032c906001600160a01b031681565b61040861040336600461396b565b611518565b6040516102499190613c88565b6005546001600160a01b031661032c565b61042e61154a565b604051610249959493929190613e1f565b610447611737565b6040516102499190613ec6565b610285610462366004613f28565b61184a565b60115461032c906001600160a01b031681565b61028561048836600461405e565b6119bd565b61028561049b36600461405e565b611a28565b606060405161024991906140a4565b6102856104bd366004614115565b611b20565b61023d611cb0565b61023d6104d8366004613941565b611d30565b6004546001600160a01b031661032c565b6102856104fc36600461396b565b611dc2565b61052361050f3660046141b1565b63bc197c8160e01b98975050505050505050565b604051610249919061426f565b61028561053e366004614284565b611fd6565b61055661055136600461396b565b6120f0565b60405161024991906142cf565b61056b6121d5565b604051610249919061442a565b6102856105863660046144c9565b612641565b61029a6126be565b6102856105a136600461396b565b612730565b6102856105b43660046144c9565b612a5a565b61029a60135481565b61032c6105d03660046144eb565b612ba1565b6105236105e3366004614527565b612cff565b6105fb6105f636600461396b565b612d12565b60405161024991906145a2565b600061061382612e3e565b80610622575061062282612e74565b92915050565b6000818152601c60205260409020805460609190610645906145b5565b80601f0160208091040260200160405190810160405280929190818152602001828054610671906145b5565b80156106be5780601f10610693576101008083540402835291602001916106be565b820191906000526020600020905b8154815290600101906020018083116106a157829003601f168201915b50505050509050919050565b601554156107105760405162461bcd60e51b815260206004820152600e60248201526d151c9858dada5b99d259081cd95d60921b60448201526064015b60405180910390fd5b6002546001600160a01b0316331461072757600080fd5b601555565b6014818154811061073c57600080fd5b600091825260209091200154905081565b60148181548110610760576107606145e9565b906000526020600020015442116107895760405162461bcd60e51b8152600401610707906145ff565b60026010828154811061079e5761079e6145e9565b60009182526020909120600560069092020181015460ff16908111156107c6576107c6613b6a565b146108025760405162461bcd60e51b815260206004820152600c60248201526b139bdd081c1c9bdc1bdcd95960a21b6044820152606401610707565b6001546010805473__$3ec311f63f1cd166364ee887ad77eb9bd8$__926385c92867926001600160a01b039091169185908110610841576108416145e9565b90600052602060002090600602016040518363ffffffff1660e01b815260040161086c929190614623565b60006040518083038186803b15801561088457600080fd5b505af4158015610898573d6000803e3d6000fd5b5050505050565b60006108ab6001612ea9565b905080156108c3576000805461ff0019166101001790555b60006108d5604084016020850161463c565b6001600160a01b03160361091c5760405162461bcd60e51b815260206004820152600e60248201526d12d9595c195c881a5b9d985b1a5960921b6044820152606401610707565b600280546001600160a01b03199081166001600160a01b03898116919091179092556000805462010000600160b01b0319163362010000021790556001805482168884161790556011805490911691861691909117905560138390558160036109858282614e32565b90505060005b61099860a0840184614679565b90508110156109fc5780601b60006109b360a0870187614679565b858181106109c3576109c36145e9565b90506020028101906109d591906148e3565b604090810135825260208201929092520160002055806109f481614f98565b91505061098b565b50610a12610a0d6080840184614679565b612f30565b8015610a58576000805461ff0019169055604051600181527f7f26b83ff96e1f2b6a682f133852f6798a09c465da95921460cefb38474024989060200160405180910390a15b505050505050565b6004546001600160a01b0316331480610a845750610a84631878255960e01b611d30565b610aa05760405162461bcd60e51b815260040161070790614fb1565b600154604051626dc0df60e21b81526001600160a01b03909116906301b7037c90610ad7908890889088908890889060040161500c565b600060405180830381600087803b158015610af157600080fd5b505af1158015610b05573d6000803e3d6000fd5b505050505050505050565b60108181548110610b2057600080fd5b6000918252602090912060069091020180546001820154600283015460038401546005909401546001600160a01b0390931694509092909160ff1685565b60006013548203610b70575030919050565b601354821015610bff576011546001600160a01b0316610b9257506000919050565b601154604051631c1bd82f60e11b8152600481018490526001600160a01b0390911690633837b05e90602401602060405180830381865afa158015610bdb573d6000803e3d6000fd5b505050506040513d601f19601f82011682018060405250810190610622919061503a565b601354821115610c6a576012546001600160a01b0316610c2157506000919050565b601254604051631c1bd82f60e11b8152600481018490526001600160a01b0390911690633837b05e90602401602060405180830381865afa158015610bdb573d6000803e3d6000fd5b919050565b333014610caa5760405162461bcd60e51b81526020600482015260096024820152684f6e6c79207468697360b81b6044820152606401610707565b610cb68183018361396b565b601e555050565b6010546000828152601a602052604090205460609114610d135760405162461bcd60e51b815260206004820152601160248201527029b637ba1034b73b30b634b2103b32b91760791b6044820152606401610707565b6000828152601a602052604090208054610d2f90600190615057565b81548110610d3f57610d3f6145e9565b906000526020600020018054610645906145b5565b6040516336d39c6160e11b815260048101829052601a60248201526009604482015260009073__$3ec311f63f1cd166364ee887ad77eb9bd8$__90636da738c290606401602060405180830381865af4158015610db5573d6000803e3d6000fd5b505050506040513d601f19601f82011682018060405250810190610622919061506e565b6000610de6601e546114f8565b806020019051810190610df9919061503a565b905090565b60105415610e80576004546001600160a01b0316331480610e2957506011546001600160a01b031633145b80610e3f5750610e3f63253b91a760e11b611d30565b610e805760405162461bcd60e51b815260206004820152601260248201527113db9b1e481ad9595c195c8bdc185c995b9d60721b6044820152606401610707565b6010548114610ec15760405162461bcd60e51b815260206004820152600d60248201526c092dcecc2d8d2c840d2dcc8caf609b1b6044820152606401610707565b60175415610f005760405162461bcd60e51b815260206004820152600c60248201526b6f7574676f696e672063627360a01b6044820152606401610707565b60165415610f3f5760405162461bcd60e51b815260206004820152600c60248201526b696e636f6d696e672063627360a01b6044820152606401610707565b6001546011546010805460405163699e0add60e01b8152919373__$3ec311f63f1cd166364ee887ad77eb9bd8$__9363699e0add93610f91936001600160a01b039384169360099316916004016151b3565b600060405180830381865af4158015610fae573d6000803e3d6000fd5b505050506040513d6000823e601f3d908101601f19168201604052610fd69190810190615274565b8154600180820184556000938452602093849020835160069093020180546001600160a01b0319166001600160a01b0390931692909217825582840151908201556040820151600282015560608201516003820155608082015180519293919261104692600485019201906137cd565b5060a08201518160050160006101000a81548160ff0219169083600581111561107157611071613b6a565b0217905550506014805460018101825560009182527fce6d7b5282bd9a3661ae061feed1dbda4e52ab073b1f9285be6e155d9c38d4ec0155506110b2613005565b7f152ec8ae15d347b2d2a8f0858caa29bcaaa0906749a1f43e08bfe7998346024030826040516110e3929190614623565b60405180910390a16012546001600160a01b0316156111575760125460405163253b91a760e11b8152600481018390526001600160a01b0390911690634a77234e906024015b600060405180830381600087803b15801561114357600080fd5b505af1158015610898573d6000803e3d6000fd5b50565b6005546001600160a01b031633148061117e575061117e634dab5e6960e01b611d30565b61119a5760405162461bcd60e51b815260040161070790615378565b6002601082815481106111af576111af6145e9565b60009182526020909120600560069092020181015460ff16908111156111d7576111d7613b6a565b148061121d57506003601082815481106111f3576111f36145e9565b60009182526020909120600560069092020181015460ff169081111561121b5761121b613b6a565b145b61125a5760405162461bcd60e51b815260206004820152600e60248201526d10d85b9b9bdd081c995c5d595cdd60921b6044820152606401610707565b73__$3ec311f63f1cd166364ee887ad77eb9bd8$__6324b2860260108381548110611287576112876145e9565b90600052602060002090600602016040518263ffffffff1660e01b81526004016112b391815260200190565b60006040518083038186803b1580156112cb57600080fd5b505af41580156112df573d6000803e3d6000fd5b5050505061115781613283565b6005546001600160a01b03163314806113105750611310634e46f22360e01b611d30565b61132c5760405162461bcd60e51b815260040161070790615378565b600360108281548110611341576113416145e9565b60009182526020909120600560069092020181015460ff169081111561136957611369613b6a565b146113865760405162461bcd60e51b8152600401610707906153a1565b73__$3ec311f63f1cd166364ee887ad77eb9bd8$__6359111fb560108381548110611287576112876145e9565b6000805b600e548110156114ee57600e8054600091601a91839190859081106113de576113de6145e9565b9060005260206000209060020201600001548152602001908152602001600020848154811061140f5761140f6145e9565b906000526020600020018054611424906145b5565b80601f0160208091040260200160405190810160405280929190818152602001828054611450906145b5565b801561149d5780601f106114725761010080835404028352916020019161149d565b820191906000526020600020905b81548152906001019060200180831161148057829003601f168201915b50505050508060200190518101906114b5919061503a565b9050806001600160a01b0316856001600160a01b0316036114db57600192505050610622565b50806114e681614f98565b9150506113b7565b5060009392505050565b6000818152601a60205260409020805460609190610d2f90600190615057565b60006010828154811061152d5761152d6145e9565b600091825260209091206005600690920201015460ff1692915050565b600380546004546005546006546040805160e081018252600980546001600160a01b039081168352600a54602080850191909152600b5484860152600c546060850152600d80548651818402810184019097528087529983169a988316999790921697959693949293608086019392918301828280156115e957602002820191906000526020600020905b8154815260200190600101908083116115d5575b5050505050815260200160058201805480602002602001604051908101604052809291908181526020016000905b828210156116ab5783829060005260206000209060020201604051806040016040529081600082015481526020016001820180548060200260200160405190810160405280929190818152602001828054801561169357602002820191906000526020600020905b81548152602001906001019080831161167f575b50505050508152505081526020019060010190611617565b50505050815260200160068201805480602002602001604051908101604052809291908181526020016000905b8282101561172a57600084815260209081902060408051606081018252600286029092018054835260019081015460ff80821685870152610100909104169183019190915290835290920191016116d8565b5050505081525050905085565b60606010805480602002602001604051908101604052809291908181526020016000905b828210156118415760008481526020908190206040805160c0810182526006860290920180546001600160a01b0316835260018101548385015260028101548383015260038101546060840152600481018054835181870281018701909452808452939491936080860193928301828280156117f657602002820191906000526020600020905b8154815260200190600101908083116117e2575b505050918352505060058281015460209092019160ff169081111561181d5761181d613b6a565b600581111561182e5761182e613b6a565b815250508152602001906001019061175b565b50505050905090565b6004546001600160a01b031633148061186e575061186e6380b204b760e01b611d30565b61188a5760405162461bcd60e51b815260040161070790614fb1565b600a5481146118ab5760405162461bcd60e51b8152600401610707906153d3565b6001601084815481106118c0576118c06145e9565b60009182526020909120600560069092020181015460ff16908111156118e8576118e8613b6a565b146119245760405162461bcd60e51b815260206004820152600c60248201526b139bdd08115e1958dd5d195960a21b6044820152606401610707565b73__$3ec311f63f1cd166364ee887ad77eb9bd8$__636a0a24f160108581548110611951576119516145e9565b906000526020600020906006020184846040518463ffffffff1660e01b815260040161197f9392919061540a565b60006040518083038186803b15801561199757600080fd5b505af41580156119ab573d6000803e3d6000fd5b505050506119b883613283565b505050565b6119cd6381296f6f60e01b611d30565b611a095760405162461bcd60e51b815260206004820152600d60248201526c139bdd081c195c9b5a5d1d1959609a1b6044820152606401610707565b6000828152601c6020908152604090912082516119b892840190613818565b6004546001600160a01b0316331480611a4c5750611a4c638602ce1b60e01b611d30565b611a685760405162461bcd60e51b815260040161070790614fb1565b6000828152601b602052604090205460088054600392908110611a8d57611a8d6145e9565b600091825260209091206001600590920201015460ff166003811115611ab557611ab5613b6a565b14611afb5760405162461bcd60e51b81526020600482015260166024820152751bdb9b1e48125b99d95cdd151e5c194b93585b9d585b60521b6044820152606401610707565b611b0582826132bd565b604051600080516020615c3d83398151915290600090a15050565b6005546001600160a01b0316331480611b445750611b446387dfee5760e01b611d30565b611b605760405162461bcd60e51b815260040161070790615378565b600360108381548110611b7557611b756145e9565b60009182526020909120600560069092020181015460ff1690811115611b9d57611b9d613b6a565b14611bba5760405162461bcd60e51b8152600401610707906153a1565b60148281548110611bcd57611bcd6145e9565b90600052602060002001544211611bf65760405162461bcd60e51b8152600401610707906145ff565b600a54815114611c185760405162461bcd60e51b8152600401610707906153d3565b6001546010805473__$3ec311f63f1cd166364ee887ad77eb9bd8$__92631b948e49926001600160a01b039091169186908110611c5757611c576145e9565b9060005260206000209060060201846040518463ffffffff1660e01b8152600401611c8493929190615424565b60006040518083038186803b158015611c9c57600080fd5b505af4158015610a58573d6000803e3d6000fd5b601054604051635cc1f6b560e01b815260009173__$3ec311f63f1cd166364ee887ad77eb9bd8$__91635cc1f6b591611cef9160089190600401615481565b602060405180830381865af4158015611d0c573d6000803e3d6000fd5b505050506040513d601f19601f82011682018060405250810190610df9919061506e565b336000908152601d602052604081205460ff161515600103611dba576040516311247ecf60e11b81526000903390632248fd9e90611d7290869060040161426f565b602060405180830381865afa158015611d8f573d6000803e3d6000fd5b505050506040513d601f19601f82011682018060405250810190611db3919061506e565b9392505050565b506000919050565b611dca611cb0565b1515600114611e0d5760405162461bcd60e51b815260206004820152600f60248201526e1a5b99d95cdd1cc81a5b9d985b1a59608a1b6044820152606401610707565b73__$3ec311f63f1cd166364ee887ad77eb9bd8$__632dd4082482600160009054906101000a90046001600160a01b031660108581548110611e5157611e516145e9565b60009182526020808320601554601154600c548652601a938490526040909520805460069095029092019460099491926001600160a01b03909116918b908110611e9d57611e9d6145e9565b906000526020600020018054611eb2906145b5565b80601f0160208091040260200160405190810160405280929190818152602001828054611ede906145b5565b8015611f2b5780601f10611f0057610100808354040283529160200191611f2b565b820191906000526020600020905b815481529060010190602001808311611f0e57829003601f168201915b5050505050806020019051810190611f43919061559a565b60405160e08a901b6001600160e01b031916815260048101989098526001600160a01b03968716602489015260448801959095526064870193909352608486019190915260a485015290911660c483015260e48201526101040160006040518083038186803b158015611fb557600080fd5b505af4158015611fc9573d6000803e3d6000fd5b505050506111578161335b565b611fde610dd9565b6001600160a01b0316336001600160a01b03161461202c5760405162461bcd60e51b815260206004820152600b60248201526a27b7363c902bb934ba32b960a91b6044820152606401610707565b60016010805461203e90600190615057565b8154811061204e5761204e6145e9565b60009182526020909120600560069092020181015460ff169081111561207657612076613b6a565b146120ae5760405162461bcd60e51b8152602060048201526008602482015267111a5cd8589b195960c21b6044820152606401610707565b7f7399fd48fdfaf111111c20e282a8837c6803b6631b3b7b5e30b3b97d682d21b6838333846040516120e394939291906155dc565b60405180910390a1505050565b6000818152601a60209081526040808320805482518185028101850190935280835260609492939192909184015b828210156121ca57838290600052602060002001805461213d906145b5565b80601f0160208091040260200160405190810160405280929190818152602001828054612169906145b5565b80156121b65780601f1061218b576101008083540402835291602001916121b6565b820191906000526020600020905b81548152906001019060200180831161219957829003601f168201915b50505050508152602001906001019061211e565b505050509050919050565b6121dd61388b565b6040805160e081018252600380546001600160a01b0390811683526004548116602080850191909152600554909116838501526006546060840152600780548551818402810184019096528086529394929360808601939260009084015b82821015612314576000848152602090819020604080518082019091526002850290910180546001600160a01b031682526001810180549293919291840191612283906145b5565b80601f01602080910402602001604051908101604052809291908181526020018280546122af906145b5565b80156122fc5780601f106122d1576101008083540402835291602001916122fc565b820191906000526020600020905b8154815290600101906020018083116122df57829003601f168201915b5050505050815250508152602001906001019061223b565b50505050815260200160058201805480602002602001604051908101604052809291908181526020016000905b8282101561245c57838290600052602060002090600502016040518060a0016040529081600082015481526020016001820160009054906101000a900460ff16600381111561239257612392613b6a565b60038111156123a3576123a3613b6a565b815260200160028201548152602001600382015481526020016004820180546123cb906145b5565b80601f01602080910402602001604051908101604052809291908181526020018280546123f7906145b5565b80156124445780601f1061241957610100808354040283529160200191612444565b820191906000526020600020905b81548152906001019060200180831161242757829003601f168201915b50505050508152505081526020019060010190612341565b505050908252506040805160e0810182526006840180546001600160a01b03168252600785015460208381019190915260088601548385015260098601546060840152600a8601805485518184028101840190965280865295820195939492936080860193928301828280156124f157602002820191906000526020600020905b8154815260200190600101908083116124dd575b5050505050815260200160058201805480602002602001604051908101604052809291908181526020016000905b828210156125b35783829060005260206000209060020201604051806040016040529081600082015481526020016001820180548060200260200160405190810160405280929190818152602001828054801561259b57602002820191906000526020600020905b815481526020019060010190808311612587575b5050505050815250508152602001906001019061251f565b50505050815260200160068201805480602002602001604051908101604052809291908181526020016000905b8282101561263257600084815260209081902060408051606081018252600286029092018054835260019081015460ff80821685870152610100909104169183019190915290835290920191016125e0565b50505091525050905250919050565b612651636455fb6d60e11b611d30565b6126905760405162461bcd60e51b815260206004820152601060248201526f13db9b1e48151a5b594815da5e985c9960821b6044820152606401610707565b61269b8160016146f8565b601483815481106126ae576126ae6145e9565b6000918252602090912001555050565b6009546040516370a0823160e01b81526000916001600160a01b0316906370a08231906126ef903090600401613bc6565b602060405180830381865afa15801561270c573d6000803e3d6000fd5b505050506040513d601f19601f82011682018060405250810190610df9919061559a565b6000338260405160200161274592919061560c565b60408051601f198184030181529181528151602092830120600081815260199093529120546008805492935061279d929091908110612786576127866145e9565b906000526020600020906005020160030154610b5e565b6001600160a01b0316336001600160a01b0316146127cd5760405162461bcd60e51b815260040161070790615629565b6000818152601960205260408120546008805490919081106127f1576127f16145e9565b600091825260209091206001600590920201015460ff16600381111561281957612819613b6a565b1461284f5760405162461bcd60e51b81526020600482015260066024820152653737ba1021b160d11b6044820152606401610707565b600081815260196020526040902054600880549091908110612873576128736145e9565b60009182526020822060059091020180549161288e83614f98565b909155505060008181526019602052604090205460088054612a1b929081106128b9576128b96145e9565b906000526020600020906005020160020154336001600160a01b0316633f4fb5aa6003600501601660030160008781526020019081526020016000205481548110612906576129066145e9565b90600052602060002090600502016004018054612922906145b5565b80601f016020809104026020016040519081016040528092919081815260200182805461294e906145b5565b801561299b5780601f106129705761010080835404028352916020019161299b565b820191906000526020600020905b81548152906001019060200180831161297e57829003601f168201915b50505050508060200190518101906129b3919061559a565b6040518263ffffffff1660e01b81526004016129d191815260200190565b600060405180830381865afa1580156129ee573d6000803e3d6000fd5b505050506040513d6000823e601f3d908101601f19168201604052612a169190810190615658565b6132bd565b60008181526019602052604081208190556016805491612a3a836156c5565b9091555050604051600080516020615c3d83398151915290600090a15050565b6013548111612aa35760405162461bcd60e51b8152602060048201526015602482015274736f6c766572206e6f7420646f776e73747265616d60581b6044820152606401610707565b612aac81610b5e565b6001600160a01b0316336001600160a01b031614612adc5760405162461bcd60e51b815260040161070790615629565b6000828152601a602052604090205415801590612b0857506010546000838152601a6020526040902054145b15612b5a5760405163de3a23c560e01b815260048101839052339063de3a23c590602401600060405180830381600087803b158015612b4657600080fd5b505af1158015610a58573d6000803e3d6000fd5b6000828152601860209081526040822080546001810182559083529082200180546001600160a01b031916331790556017805491612b9783614f98565b91905055505b5050565b6004546000906001600160a01b0316331480612bc85750612bc8631da4ba2f60e31b611d30565b612c025760405162461bcd60e51b815260206004820152600b60248201526a27b7363c9035b2b2b832b960a91b6044820152606401610707565b6012546001600160a01b031615612c475760405162461bcd60e51b815260206004820152600960248201526812185cc818da1a5b1960ba1b6044820152606401610707565b6000546013546015546040516386a2d22760e01b815273__$3ec311f63f1cd166364ee887ad77eb9bd8$__936386a2d22793612c9993620100009092046001600160a01b031692889290600401615a71565b602060405180830381865af4158015612cb6573d6000803e3d6000fd5b505050506040513d601f19601f82011682018060405250810190612cda919061503a565b601280546001600160a01b0319166001600160a01b0392909216918217905592915050565b63f23a6e6160e01b5b9695505050505050565b612d476040805160c081018252600080825260208201819052918101829052606080820183905260808201529060a082015290565b60108281548110612d5a57612d5a6145e9565b60009182526020918290206040805160c081018252600690930290910180546001600160a01b031683526001810154838501526002810154838301526003810154606084015260048101805483518187028101870190945280845293949193608086019392830182828015612dee57602002820191906000526020600020905b815481526020019060010190808311612dda575b505050918352505060058281015460209092019160ff1690811115612e1557612e15613b6a565b6005811115612e2657612e26613b6a565b90525092915050565b6001600160a01b03163b151590565b60006001600160e01b0319821663992face160e01b148061062257506001600160e01b031982166301ffc9a760e01b1492915050565b60006001600160e01b03198216630271189760e51b148061062257506301ffc9a760e01b6001600160e01b0319831614610622565b60008054610100900460ff1615612eef578160ff166001148015612ed35750612ed130612e2f565b155b611dba5760405162461bcd60e51b815260040161070790615b61565b60005460ff808416911610612f165760405162461bcd60e51b815260040161070790615b61565b506000805460ff191660ff92909216919091179055600190565b60005b818110156119b8576000838383818110612f4f57612f4f6145e9565b9050602002810190612f6191906146c2565b612f6a90615baf565b80516001600160a01b039081166000908152601d6020908152604091829020805460ff191660011790558351908401519151630f3bd93360e21b815293945090911691633cef64cc91612fbf916004016139e0565b600060405180830381600087803b158015612fd957600080fd5b505af1158015612fed573d6000803e3d6000fd5b50505050508080612ffd90614f98565b915050612f33565b60005b6008548110156132695760006008805483908110613028576130286145e9565b600091825260209091206001600590920201015460ff16600381111561305057613050613b6a565b14613086576130816003600501828154811061306e5761306e6145e9565b9060005260206000209060050201613491565b613257565b6000306001600160a01b0316633837b05e600360050184815481106130ad576130ad6145e9565b9060005260206000209060050201600301546040518263ffffffff1660e01b81526004016130dd91815260200190565b602060405180830381865afa1580156130fa573d6000803e3d6000fd5b505050506040513d601f19601f8201168201806040525081019061311e919061503a565b905061312a818361357d565b806001600160a01b031663df33cc516003600501848154811061314f5761314f6145e9565b9060005260206000209060050201600401805461316b906145b5565b80601f0160208091040260200160405190810160405280929190818152602001828054613197906145b5565b80156131e45780601f106131b9576101008083540402835291602001916131e4565b820191906000526020600020905b8154815290600101906020018083116131c757829003601f168201915b50505050508060200190518101906131fc919061559a565b6013546040516001600160e01b031960e085901b16815260048101929092526024820152604401600060405180830381600087803b15801561323d57600080fd5b505af1158015613251573d6000803e3d6000fd5b50505050505b8061326181614f98565b915050613008565b50604051600080516020615c3d83398151915290600090a1565b6006546132919060016146f8565b61329b9042615c24565b601482815481106132ae576132ae6145e9565b60009182526020909120015550565b6010546132cc90600190615057565b6000838152601a60205260409020541461331f5760405162461bcd60e51b815260206004820152601460248201527314db1bdd081d995c9cda5bdb881a5b9d985b1a5960621b6044820152606401610707565b6000828152601a6020908152604082208054600181018255908352918190208351613351939190910191840190613818565b50612b9d82613693565b6012546001600160a01b0316158015906133e75750601260009054906101000a90046001600160a01b03166001600160a01b031663999925066040518163ffffffff1660e01b8152600401602060405180830381865afa1580156133c3573d6000803e3d6000fd5b505050506040513d601f19601f820116820180604052508101906133e7919061506e565b801561345b57506012546040516344c3b60760e01b8152600481018390526001600160a01b03909116906344c3b60790602401602060405180830381865afa158015613437573d6000803e3d6000fd5b505050506040513d601f19601f8201168201806040525081019061345b919061506e565b156111575760125460405163b992db0f60e01b8152600481018390526001600160a01b039091169063b992db0f90602401611129565b600181015460039060ff16818111156134ac576134ac613b6a565b11156134ef5760405162461bcd60e51b8152602060048201526012602482015271496e76616c696420696e676573745479706560701b6044820152606401610707565b80548160006134fd83614f98565b9091555060039050600182015460ff16600381111561351e5761351e613b6a565b1461115757600281015460405163b3d7370760e01b815260048101839052611157919073__$3ec311f63f1cd166364ee887ad77eb9bd8$__9063b3d7370790602401600060405180830381865af41580156129ee573d6000803e3d6000fd5b8060166003016000846003600501858154811061359c5761359c6145e9565b906000526020600020906005020160040180546135b8906145b5565b80601f01602080910402602001604051908101604052809291908181526020018280546135e4906145b5565b80156136315780601f1061360657610100808354040283529160200191613631565b820191906000526020600020905b81548152906001019060200180831161361457829003601f168201915b5050505050806020019051810190613649919061559a565b60405160200161365a92919061560c565b60408051601f198184030181529181528151602092830120835290820192909252016000908120919091556016805491612b9783614f98565b60005b600082815260186020526040902054811015612b9d5760008281526018602052604081208054839081106136cc576136cc6145e9565b6000918252602090912001546001600160a01b0316146137bb576000828152601860205260409020805482908110613706576137066145e9565b60009182526020909120015460405163de3a23c560e01b8152600481018490526001600160a01b039091169063de3a23c590602401600060405180830381600087803b15801561375557600080fd5b505af1158015613769573d6000803e3d6000fd5b505050600083815260186020526040902080549091508290811061378f5761378f6145e9565b6000918252602082200180546001600160a01b031916905560178054916137b5836156c5565b91905055505b806137c581614f98565b915050613696565b828054828255906000526020600020908101928215613808579160200282015b828111156138085782518255916020019190600101906137ed565b5061381492915061392c565b5090565b828054613824906145b5565b90600052602060002090601f0160209004810192826138465760008555613808565b82601f1061385f57805160ff1916838001178555613808565b8280016001018555821561380857918201828111156138085782518255916020019190600101906137ed565b6040518060e0016040528060006001600160a01b0316815260200160006001600160a01b0316815260200160006001600160a01b031681526020016000815260200160608152602001606081526020016139276040518060e0016040528060006001600160a01b031681526020016000815260200160008152602001600080191681526020016060815260200160608152602001606081525090565b905290565b5b80821115613814576000815560010161392d565b60006020828403121561395357600080fd5b81356001600160e01b031981168114611db357600080fd5b60006020828403121561397d57600080fd5b5035919050565b60005b8381101561399f578181015183820152602001613987565b838111156139ae576000848401525b50505050565b600081518084526139cc816020860160208601613984565b601f01601f19169290920160200192915050565b602081526000611db360208301846139b4565b6001600160a01b038116811461115757600080fd5b8035610c6a816139f3565b600060e08284031215613a2557600080fd5b50919050565b600080600080600060a08688031215613a4357600080fd5b8535613a4e816139f3565b94506020860135613a5e816139f3565b93506040860135613a6e816139f3565b92506060860135915060808601356001600160401b03811115613a9057600080fd5b613a9c88828901613a13565b9150509295509295909350565b60008083601f840112613abb57600080fd5b5081356001600160401b03811115613ad257600080fd5b6020830191508360208260051b8501011115613aed57600080fd5b9250929050565b600080600080600060808688031215613b0c57600080fd5b8535613b17816139f3565b9450602086013593506040860135925060608601356001600160401b03811115613b4057600080fd5b613b4c88828901613aa9565b969995985093965092949392505050565b6001600160a01b03169052565b634e487b7160e01b600052602160045260246000fd5b60068110613b9057613b90613b6a565b9052565b6001600160a01b038616815260208101859052604081018490526060810183905260a08101612d086080830184613b80565b6001600160a01b0391909116815260200190565b60008083601f840112613bec57600080fd5b5081356001600160401b03811115613c0357600080fd5b602083019150836020828501011115613aed57600080fd5b60008060208385031215613c2e57600080fd5b82356001600160401b03811115613c4457600080fd5b613c5085828601613bda565b90969095509350505050565b60008060408385031215613c6f57600080fd5b8235613c7a816139f3565b946020939093013593505050565b602081016106228284613b80565b600081518084526020808501945080840160005b83811015613cc657815187529582019590820190600101613caa565b509495945050505050565b600081518084526020808501945080840160005b83811015613cc6578151805188528381015160ff908116858a0152604091820151169088015260609096019590820190600101613ce5565b60018060a01b0381511682526000602080830151818501526040808401518186015260608085015181870152608085015160e06080880152613d6260e0880182613c96565b905060a086015187820360a08901528181518084528684019150868160051b85010187840193506000805b83811015613df557868303601f190185528551805184528a01518a84018a905280518a8501819052908b019083908a8601905b80831015613de05783518252928d019260019290920191908d0190613dc0565b50978c0197968c019694505050600101613d8d565b505060c08a015197508a810360c08c0152613e108189613cd1565b9b9a5050505050505050505050565b6001600160a01b0386811682528581166020830152841660408201526060810183905260a060808201819052600090613e5a90830184613d1d565b979650505050505050565b60018060a01b0381511682526020810151602083015260408101516040830152606081015160608301526000608082015160c06080850152613eaa60c0850182613c96565b905060a0830151613ebe60a0860182613b80565b509392505050565b6000602080830181845280855180835260408601915060408160051b870101925083870160005b82811015613f1b57603f19888603018452613f09858351613e65565b94509285019290850190600101613eed565b5092979650505050505050565b600080600060408486031215613f3d57600080fd5b8335925060208401356001600160401b03811115613f5a57600080fd5b613f6686828701613aa9565b9497909650939450505050565b634e487b7160e01b600052604160045260246000fd5b60405160c081016001600160401b0381118282101715613fab57613fab613f73565b60405290565b604051601f8201601f191681016001600160401b0381118282101715613fd957613fd9613f73565b604052919050565b60006001600160401b03821115613ffa57613ffa613f73565b50601f01601f191660200190565b600082601f83011261401957600080fd5b813561402c61402782613fe1565b613fb1565b81815284602083860101111561404157600080fd5b816020850160208301376000918101602001919091529392505050565b6000806040838503121561407157600080fd5b8235915060208301356001600160401b0381111561408e57600080fd5b61409a85828601614008565b9150509250929050565b6020808252825182820181905260009190848201906040850190845b818110156140e65783516001600160e01b031916835292840192918401916001016140c0565b50909695505050505050565b60006001600160401b0382111561410b5761410b613f73565b5060051b60200190565b6000806040838503121561412857600080fd5b823591506020808401356001600160401b0381111561414657600080fd5b8401601f8101861361415757600080fd5b8035614165614027826140f2565b81815260059190911b8201830190838101908883111561418457600080fd5b928401925b828410156141a257833582529284019290840190614189565b80955050505050509250929050565b60008060008060008060008060a0898b0312156141cd57600080fd5b88356141d8816139f3565b975060208901356141e8816139f3565b965060408901356001600160401b038082111561420457600080fd5b6142108c838d01613aa9565b909850965060608b013591508082111561422957600080fd5b6142358c838d01613aa9565b909650945060808b013591508082111561424e57600080fd5b5061425b8b828c01613bda565b999c989b5096995094979396929594505050565b6001600160e01b031991909116815260200190565b60008060006040848603121561429957600080fd5b83356001600160401b038111156142af57600080fd5b6142bb86828701613bda565b909790965060209590950135949350505050565b6000602080830181845280855180835260408601915060408160051b870101925083870160005b82811015613f1b57603f198886030184526143128583516139b4565b945092850192908501906001016142f6565b600081518084526020808501808196508360051b8101915082860160005b85811015614389578284038952815180516001600160a01b031685528501516040868601819052614375818701836139b4565b9a87019a9550505090840190600101614342565b5091979650505050505050565b60048110613b9057613b90613b6a565b600081518084526020808501808196508360051b8101915082860160005b85811015614389578284038952815160a081518652868201516143e988880182614396565b506040828101519087015260608083015190870152608091820151918601819052614416818701836139b4565b9a87019a95505050908401906001016143c4565b60208152600060018060a01b0380845116602084015280602085015116604084015250604083015161445f6060840182613b5d565b5060608301516080830152608083015160e060a0840152614484610100840182614324565b905060a0840151601f19808584030160c08601526144a283836143a6565b925060c08601519150808584030160e0860152506144c08282613d1d565b95945050505050565b600080604083850312156144dc57600080fd5b50508035926020909101359150565b6000602082840312156144fd57600080fd5b81356001600160401b0381111561451357600080fd5b61451f84828501613a13565b949350505050565b60008060008060008060a0878903121561454057600080fd5b863561454b816139f3565b9550602087013561455b816139f3565b9450604087013593506060870135925060808701356001600160401b0381111561458457600080fd5b61459089828a01613bda565b979a9699509497509295939492505050565b602081526000611db36020830184613e65565b600181811c908216806145c957607f821691505b602082108103613a2557634e487b7160e01b600052602260045260246000fd5b634e487b7160e01b600052603260045260246000fd5b6020808252600a9082015269151a5b595b1bd8dad95960b21b604082015260600190565b6001600160a01b03929092168252602082015260400190565b60006020828403121561464e57600080fd5b8135611db3816139f3565b80546001600160a01b0319166001600160a01b0392909216919091179055565b6000808335601e1984360301811261469057600080fd5b8301803591506001600160401b038211156146aa57600080fd5b6020019150600581901b3603821315613aed57600080fd5b60008235603e198336030181126146d857600080fd5b9190910192915050565b634e487b7160e01b600052601160045260246000fd5b6000816000190483118215151615614712576147126146e2565b500290565b5b81811015612b9d5760008155600101614718565b61473681546145b5565b8015612b9d57601f81116001811461475057505060009055565b82600052602060002061476e601f840160051c820160018301614717565b506020600090812081855555505050565b6000808335601e1984360301811261479657600080fd5b8301803591506001600160401b038211156147b057600080fd5b602001915036819003821315613aed57600080fd5b601f8211156119b857806000526020600020601f840160051c810160208510156147ec5750805b610898601f850160051c830182614717565b8135614809816139f3565b6148138183614659565b50600180820160206148278186018661477f565b6001600160401b0381111561483e5761483e613f73565b6148528161484c86546145b5565b866147c5565b6000601f821160018114614886576000831561486e5750838201355b600019600385901b1c1916600184901b178655610b05565b600086815260209020601f19841690835b828110156148b45786850135825593870193908901908701614897565b50848210156148d15760001960f88660031b161c19848701351681555b50505050841b90930190915550505050565b60008235609e198336030181126146d857600080fd5b6004811061115757600080fd5b81358155600180820160208085013561491e816148f9565b6004811061492e5761492e613b6a565b60ff1983541660ff82168117845550506040850135600285015560608501356003850155600484019150614827608086018661477f565b600160401b83111561497957614979613f73565b805483825580841015614a1d577f333333333333333333333333333333333333333333333333333333333333333360018183118116156149bb576149bb6146e2565b60058287118216156149cf576149cf6146e2565b600085815260208120909350878202810190828602015b80821015614a17578482558484830155846002830155846003830155614a0e6004830161472c565b908201906149e6565b50505050505b5060008181526020812083915b85811015610a5857614a45614a3f84876148e3565b83614906565b6020929092019160059190910190600101614a2a565b6000823560de198336030181126146d857600080fd5b8054600080835581156119b857828152602081208281015b8082101561089857828255600182019150614a89565b8135815560018082016020614ab681860186614679565b600160401b811115614aca57614aca613f73565b835481855580821015614afe5760008581528481208381019083015b80821015614afa5782825590880190614ae6565b5050505b506000938452828420935b81811015614b24578235855593850193918301918501614b09565b5050505050505050565b600160401b831115614b4257614b42613f73565b805483825580841015614bba576001600160ff1b036001818311811615614b6b57614b6b6146e2565b818611811615614b7d57614b7d6146e2565b60008481526020812090925086821b81019084831b015b80821015614bb557838255614baa838301614a71565b600282019150614b94565b505050505b5060008181526020812083915b85811015610a5857614be2614bdc84876146c2565b83614a9f565b6020929092019160029190910190600101614bc7565b6000808335601e19843603018112614c0f57600080fd5b8301803591506001600160401b03821115614c2957600080fd5b6020019150606081023603821315613aed57600080fd5b60ff8116811461115757600080fd5b81358155600181016020830135614c6581614c40565b81546040850135614c7581614c40565b61ff008160081b1660ff841661ffff19841617178455505050505050565b600160401b831115614ca757614ca7613f73565b805483825580841015614d19576001600160ff1b036001818311811615614cd057614cd06146e2565b818611811615614ce257614ce26146e2565b60008481526020812090925086821b81019084831b015b80821015614d14578382558383830155600282019150614cf9565b505050505b5060008181526020812083915b85811015610a5857614d388383614c4f565b6060929092019160029190910190600101614d26565b8135614d59816139f3565b614d638183614659565b50600160208084013582840155604084013560028401556060840135600384015560048301614d956080860186614679565b600160401b811115614da957614da9613f73565b825481845580821015614dce578360005284600020614dcc828201848301614717565b505b506000928352838320925b81811015614df4578235845592850192918401918501614dd9565b505050505050614e0760a0830183614679565b614e15818360058601614b2e565b5050614e2460c0830183614bf8565b6139ae818360068601614c93565b8135614e3d816139f3565b614e478183614659565b506001602080840135614e59816139f3565b614e6581848601614659565b5060026040850135614e76816139f3565b614e8281838701614659565b506060850135600385015560048401614e9e6080870187614679565b600160401b811115614eb257614eb2613f73565b825481845580821015614f22576001600160ff1b03808211881615614ed957614ed96146e2565b808311881615614eeb57614eeb6146e2565b50600084815286812083891b810190838a1b015b80821015614f1e57828255614f158a830161472c565b90870190614eff565b5050505b506000928352602083209282905b82811015614f5a57614f4b614f4583866146c2565b866147fe565b93850193908601908701614f30565b5050505050505050614f6f60a0830183614679565b614f7d818360058601614965565b5050612b9d614f8f60c0840184614a5b565b60068301614d4e565b600060018201614faa57614faa6146e2565b5060010190565b6020808252600b908201526a27b7363c9025b2b2b832b960a91b604082015260600190565b81835260006001600160fb1b03831115614fef57600080fd5b8260051b8083602087013760009401602001938452509192915050565b60018060a01b0386168152846020820152836040820152608060608201526000613e5a608083018486614fd6565b60006020828403121561504c57600080fd5b8151611db3816139f3565b600082821015615069576150696146e2565b500390565b60006020828403121561508057600080fd5b81518015158114611db357600080fd5b6000815480845260208085019450836000528060002060005b83811015613cc6578154875295820195600191820191016150a9565b600081548084526020808501808196508360051b810191506000868152838120815b86811015615153578385038a52815485526040868601819052600180840180549288018390528552878520606088019290919086905b8082101561513a5783548552938a0193928201929082019061511d565b5050509a87019a509450600291909101906001016150e7565b509298975050505050505050565b6000815480845260208085019450836000528060002060005b83811015613cc6578154875260018083015460ff808216868b015260089190911c1660408901526060909701966002909201910161517a565b600060018060a01b038087168352608060208401526151d86080840182885416613b5d565b50600185015460a0830152600285015460c0830152600385015460e083015260e0610100830152615210610160830160048701615090565b607f19808483030161012085015261522b82600589016150c5565b91508084830301610140850152506152468160068801615161565b9150506152566040830185613b5d565b82606083015295945050505050565b805160068110610c6a57600080fd5b6000602080838503121561528757600080fd5b82516001600160401b038082111561529e57600080fd5b9084019060c082870312156152b257600080fd5b6152ba613f89565b82516152c5816139f3565b80825250838301518482015260408301516040820152606083015160608201526080830151828111156152f757600080fd5b83019150601f8201871361530a57600080fd5b8151615318614027826140f2565b81815260059190911b8301850190858101908983111561533757600080fd5b938601935b828510156153555784518252938601939086019061533c565b608084015250615369905060a08401615265565b60a08201529695505050505050565b6020808252600f908201526e27b7363c9030b93134ba3930ba37b960891b604082015260600190565b602080825260189082015277139bdd08105c989a5d1c985d1a5bdb94995c5d595cdd195960421b604082015260600190565b6020808252601e908201527f6c656e677468206d757374206d61746368206f7574636f6d65536c6f74730000604082015260600190565b8381526040602082015260006144c0604083018486614fd6565b6001600160a01b038416815260208082018490526060604083018190528351908301819052600091848101916080850190845b8181101561547357845183529383019391830191600101615457565b509098975050505050505050565b6000604082016040835280855480835260608501915060608160051b8601019250600087815260208120815b8381101561558557878603605f1901855281548652600182015460ff166154d76020880182614396565b5060028201546040870152600382015460608701526004820160a06080880152838154615503816145b5565b8060a08b01526001821660008114615522576001811461553757615568565b60ff19831660c08c015260e08b019350615568565b84885260208820885b8381101561555f5781548d820160c00152600190910190602001615540565b8c0160c0019450505b5091985050506020959095019450600591909101906001016154ad565b50505050506020929092019290925292915050565b6000602082840312156155ac57600080fd5b5051919050565b81835281816020850137506000828201602090810191909152601f909101601f19169091010190565b6060815260006155f06060830186886155b3565b6001600160a01b03949094166020830152506040015292915050565b60609290921b6001600160601b0319168252601482015260340190565b60208082526015908201527436b9b39739b2b73232b9103737ba1039b7b63b32b960591b604082015260600190565b60006020828403121561566a57600080fd5b81516001600160401b0381111561568057600080fd5b8201601f8101841361569157600080fd5b805161569f61402782613fe1565b8181528560208385010111156156b457600080fd5b6144c0826020830160208601613984565b6000816156d4576156d46146e2565b506000190190565b6000808335601e198436030181126156f357600080fd5b83016020810192503590506001600160401b0381111561571257600080fd5b8060051b3603831315613aed57600080fd5b6000808335601e1984360301811261573b57600080fd5b83016020810192503590506001600160401b0381111561575a57600080fd5b803603831315613aed57600080fd5b60008235603e1983360301811261577f57600080fd5b90910192915050565b81835260006020808501808196508560051b810191508460005b878110156143895782840389526157b98288615769565b604081356157c6816139f3565b6001600160a01b031686526157dd82880183615724565b925081888801526157f182880184836155b3565b9b88019b9650505091850191506001016157a2565b81835260006020808501808196508560051b81019150846000805b88811015615153578385038a528235609e19893603018112615841578283fd5b88018035865260a087820135615856816148f9565b61586289890182614396565b506040828101359088015260608083013590880152608061588581840184615724565b935082828a0152615899838a0185836155b3565b9d8a019d98505050938701935050600101615821565b6000823560de1983360301811261577f57600080fd5b6000808335601e198436030181126158dc57600080fd5b83016020810192503590506001600160401b038111156158fb57600080fd5b606081023603831315613aed57600080fd5b8183526000602080850194508260005b85811015613cc657813587528282013561593681614c40565b60ff908116888501526040908382013561594f81614c40565b1690880152606096870196919091019060010161591d565b60008135615974816139f3565b6001600160a01b031683526020828101358185015260408084013581860152606080850135908601526159aa60808501856156dc565b60e060808801526159bf60e088018284614fd6565b9150506159cf60a08601866156dc565b87830360a0890152808352848301600582901b840186018360005b84811015615a3d57868303601f19018452615a058287615769565b80358452615a158a8201826156dc565b9150898b860152615a298a86018383614fd6565b958b019594505050908801906001016159ea565b5050615a4c60c08a018a6158c5565b9750955089810360c08b0152615a6381888861590d565b9a9950505050505050505050565b6001600160a01b038581168252608060208301526000908535615a93816139f3565b166080830152615aa560208601613a08565b615ab260a0840182613b5d565b50615abf60408601613a08565b615acc60c0840182613b5d565b50606085013560e0830152615ae460808601866156dc565b60e0610100850152615afb61016085018284615788565b915050615b0b60a08701876156dc565b607f198086850301610120870152615b24848385615806565b9350615b3360c08a018a6158af565b925080868503016101408701525050615b4c8282615967565b60408501969096525050506060015292915050565b6020808252602e908201527f496e697469616c697a61626c653a20636f6e747261637420697320616c72656160408201526d191e481a5b9a5d1a585b1a5e995960921b606082015260800190565b600060408236031215615bc157600080fd5b604080519081016001600160401b038082118383101715615be457615be4613f73565b8160405284359150615bf5826139f3565b90825260208401359080821115615c0b57600080fd5b50615c1836828601614008565b60208301525092915050565b60008219821115615c3757615c376146e2565b50019056fe71bd81ebe1d98a2944767394e76a9aff18724b2cf04e1db71254f804544b35c7a2646970667358221220f88bd8166f3bdec125dca0c66ba0677ddb97f3eefc9095dddcd080b31f88072f64736f6c634300080d0033",
  "linkReferences": {
    "contracts/solvers/SolverLib.sol": {
      "SolverLib": [
        {
          "length": 20,
          "start": 2390
        },
        {
          "length": 20,
          "start": 3782
        },
        {
          "length": 20,
          "start": 4261
        },
        {
          "length": 20,
          "start": 5031
        },
        {
          "length": 20,
          "start": 5331
        },
        {
          "length": 20,
          "start": 6769
        },
        {
          "length": 20,
          "start": 7532
        },
        {
          "length": 20,
          "start": 7696
        },
        {
          "length": 20,
          "start": 8026
        },
        {
          "length": 20,
          "start": 11690
        },
        {
          "length": 20,
          "start": 13966
        }
      ]
    }
  },
  "deployedLinkReferences": {
    "contracts/solvers/SolverLib.sol": {
      "SolverLib": [
        {
          "length": 20,
          "start": 2059
        },
        {
          "length": 20,
          "start": 3451
        },
        {
          "length": 20,
          "start": 3930
        },
        {
          "length": 20,
          "start": 4700
        },
        {
          "length": 20,
          "start": 5000
        },
        {
          "length": 20,
          "start": 6438
        },
        {
          "length": 20,
          "start": 7201
        },
        {
          "length": 20,
          "start": 7365
        },
        {
          "length": 20,
          "start": 7695
        },
        {
          "length": 20,
          "start": 11359
        },
        {
          "length": 20,
          "start": 13635
        }
      ]
    }
  }
}