{
  "_format": "hh-sol-artifact-1",
  "contractName": "WriterSolverV1",
  "sourceName": "contracts/solvers/WriterSolverV1.sol",
  "abi": [
    {
      "anonymous": false,
      "inputs": [
        {
          "indexed": false,
          "internalType": "bytes32",
          "name": "conditionId",
          "type": "bytes32"
        }
      ],
      "name": "ChangedStatus",
      "type": "event"
    },
    {
      "anonymous": false,
      "inputs": [
        {
          "indexed": false,
          "internalType": "bytes32",
          "name": "conditionId",
          "type": "bytes32"
        }
      ],
      "name": "DeliveredNullArbitration",
      "type": "event"
    },
    {
      "anonymous": false,
      "inputs": [
        {
          "indexed": false,
          "internalType": "address",
          "name": "child",
          "type": "address"
        }
      ],
      "name": "DeployedChild",
      "type": "event"
    },
    {
      "anonymous": false,
      "inputs": [],
      "name": "IngestedData",
      "type": "event"
    },
    {
      "anonymous": false,
      "inputs": [
        {
          "indexed": false,
          "internalType": "uint8",
          "name": "version",
          "type": "uint8"
        }
      ],
      "name": "Initialized",
      "type": "event"
    },
    {
      "anonymous": false,
      "inputs": [
        {
          "indexed": false,
          "internalType": "address",
          "name": "solver",
          "type": "address"
        },
        {
          "indexed": false,
          "internalType": "uint256",
          "name": "solveIndex",
          "type": "uint256"
        }
      ],
      "name": "PreparedSolve",
      "type": "event"
    },
    {
      "anonymous": false,
      "inputs": [
        {
          "indexed": false,
          "internalType": "string",
          "name": "cid",
          "type": "string"
        },
        {
          "indexed": false,
          "internalType": "address",
          "name": "submitter",
          "type": "address"
        },
        {
          "indexed": false,
          "internalType": "bytes32",
          "name": "conditionId",
          "type": "bytes32"
        }
      ],
      "name": "SubmittedWork",
      "type": "event"
    },
    {
      "inputs": [],
      "name": "ARBITRATOR_ROLE",
      "outputs": [
        {
          "internalType": "bytes32",
          "name": "",
          "type": "bytes32"
        }
      ],
      "stateMutability": "view",
      "type": "function"
    },
    {
      "inputs": [],
      "name": "KEEPER_ROLE",
      "outputs": [
        {
          "internalType": "bytes32",
          "name": "",
          "type": "bytes32"
        }
      ],
      "stateMutability": "view",
      "type": "function"
    },
    {
      "inputs": [
        {
          "internalType": "bytes32",
          "name": "_slot",
          "type": "bytes32"
        },
        {
          "internalType": "bytes",
          "name": "_data",
          "type": "bytes"
        }
      ],
      "name": "addData",
      "outputs": [],
      "stateMutability": "nonpayable",
      "type": "function"
    },
    {
      "inputs": [
        {
          "internalType": "uint256",
          "name": "_index",
          "type": "uint256"
        }
      ],
      "name": "addressFromChainIndex",
      "outputs": [
        {
          "internalType": "address",
          "name": "_address",
          "type": "address"
        }
      ],
      "stateMutability": "view",
      "type": "function"
    },
    {
      "inputs": [
        {
          "internalType": "uint256",
          "name": "_index",
          "type": "uint256"
        }
      ],
      "name": "allocationsValid",
      "outputs": [
        {
          "internalType": "bool",
          "name": "",
          "type": "bool"
        }
      ],
      "stateMutability": "view",
      "type": "function"
    },
    {
      "inputs": [
        {
          "internalType": "uint256",
          "name": "_index",
          "type": "uint256"
        },
        {
          "internalType": "uint256[]",
          "name": "payouts",
          "type": "uint256[]"
        }
      ],
      "name": "arbitrate",
      "outputs": [],
      "stateMutability": "nonpayable",
      "type": "function"
    },
    {
      "inputs": [
        {
          "internalType": "uint256",
          "name": "_index",
          "type": "uint256"
        }
      ],
      "name": "arbitrateNull",
      "outputs": [],
      "stateMutability": "nonpayable",
      "type": "function"
    },
    {
      "inputs": [
        {
          "internalType": "uint256",
          "name": "_index",
          "type": "uint256"
        }
      ],
      "name": "arbitrationRequested",
      "outputs": [],
      "stateMutability": "nonpayable",
      "type": "function"
    },
    {
      "inputs": [],
      "name": "arbitrator",
      "outputs": [
        {
          "internalType": "address",
          "name": "",
          "type": "address"
        }
      ],
      "stateMutability": "view",
      "type": "function"
    },
    {
      "inputs": [],
      "name": "chainChild",
      "outputs": [
        {
          "internalType": "address",
          "name": "",
          "type": "address"
        }
      ],
      "stateMutability": "view",
      "type": "function"
    },
    {
      "inputs": [],
      "name": "chainIndex",
      "outputs": [
        {
          "internalType": "uint256",
          "name": "",
          "type": "uint256"
        }
      ],
      "stateMutability": "view",
      "type": "function"
    },
    {
      "inputs": [],
      "name": "chainParent",
      "outputs": [
        {
          "internalType": "address",
          "name": "",
          "type": "address"
        }
      ],
      "stateMutability": "view",
      "type": "function"
    },
    {
      "inputs": [],
      "name": "collateralBalance",
      "outputs": [
        {
          "internalType": "uint256",
          "name": "balance",
          "type": "uint256"
        }
      ],
      "stateMutability": "view",
      "type": "function"
    },
    {
      "inputs": [
        {
          "internalType": "uint256",
          "name": "index",
          "type": "uint256"
        }
      ],
      "name": "condition",
      "outputs": [
        {
          "components": [
            {
              "internalType": "contract IERC20",
              "name": "collateralToken",
              "type": "address"
            },
            {
              "internalType": "bytes32",
              "name": "questionId",
              "type": "bytes32"
            },
            {
              "internalType": "bytes32",
              "name": "parentCollectionId",
              "type": "bytes32"
            },
            {
              "internalType": "bytes32",
              "name": "conditionId",
              "type": "bytes32"
            },
            {
              "internalType": "uint256[]",
              "name": "payouts",
              "type": "uint256[]"
            },
            {
              "internalType": "enum SolverLib.Status",
              "name": "status",
              "type": "uint8"
            }
          ],
          "internalType": "struct SolverLib.Condition",
          "name": "",
          "type": "tuple"
        }
      ],
      "stateMutability": "view",
      "type": "function"
    },
    {
      "inputs": [
        {
          "internalType": "uint256",
          "name": "",
          "type": "uint256"
        }
      ],
      "name": "conditions",
      "outputs": [
        {
          "internalType": "contract IERC20",
          "name": "collateralToken",
          "type": "address"
        },
        {
          "internalType": "bytes32",
          "name": "questionId",
          "type": "bytes32"
        },
        {
          "internalType": "bytes32",
          "name": "parentCollectionId",
          "type": "bytes32"
        },
        {
          "internalType": "bytes32",
          "name": "conditionId",
          "type": "bytes32"
        },
        {
          "internalType": "enum SolverLib.Status",
          "name": "status",
          "type": "uint8"
        }
      ],
      "stateMutability": "view",
      "type": "function"
    },
    {
      "inputs": [],
      "name": "config",
      "outputs": [
        {
          "internalType": "contract Solver",
          "name": "implementation",
          "type": "address"
        },
        {
          "internalType": "address",
          "name": "keeper",
          "type": "address"
        },
        {
          "internalType": "address",
          "name": "arbitrator",
          "type": "address"
        },
        {
          "internalType": "uint256",
          "name": "timelockSeconds",
          "type": "uint256"
        },
        {
          "components": [
            {
              "internalType": "contract IERC20",
              "name": "collateralToken",
              "type": "address"
            },
            {
              "internalType": "uint256",
              "name": "outcomeSlots",
              "type": "uint256"
            },
            {
              "internalType": "uint256",
              "name": "parentCollectionIndexSet",
              "type": "uint256"
            },
            {
              "internalType": "bytes32",
              "name": "amountSlot",
              "type": "bytes32"
            },
            {
              "internalType": "uint256[]",
              "name": "partition",
              "type": "uint256[]"
            },
            {
              "components": [
                {
                  "internalType": "bytes32",
                  "name": "recipientAddressSlot",
                  "type": "bytes32"
                },
                {
                  "internalType": "bytes32[]",
                  "name": "recipientAmountSlots",
                  "type": "bytes32[]"
                }
              ],
              "internalType": "struct SolverLib.Allocation[]",
              "name": "allocations",
              "type": "tuple[]"
            },
            {
              "components": [
                {
                  "internalType": "bytes32",
                  "name": "digest",
                  "type": "bytes32"
                },
                {
                  "internalType": "uint8",
                  "name": "hashFunction",
                  "type": "uint8"
                },
                {
                  "internalType": "uint8",
                  "name": "size",
                  "type": "uint8"
                }
              ],
              "internalType": "struct SolverLib.Multihash[]",
              "name": "outcomeURIs",
              "type": "tuple[]"
            }
          ],
          "internalType": "struct SolverLib.ConditionBase",
          "name": "conditionBase",
          "type": "tuple"
        }
      ],
      "stateMutability": "view",
      "type": "function"
    },
    {
      "inputs": [
        {
          "internalType": "uint256",
          "name": "_index",
          "type": "uint256"
        }
      ],
      "name": "confirmPayouts",
      "outputs": [],
      "stateMutability": "nonpayable",
      "type": "function"
    },
    {
      "inputs": [
        {
          "components": [
            {
              "internalType": "contract Solver",
              "name": "implementation",
              "type": "address"
            },
            {
              "internalType": "address",
              "name": "keeper",
              "type": "address"
            },
            {
              "internalType": "address",
              "name": "arbitrator",
              "type": "address"
            },
            {
              "internalType": "uint256",
              "name": "timelockSeconds",
              "type": "uint256"
            },
            {
              "components": [
                {
                  "internalType": "address",
                  "name": "module",
                  "type": "address"
                },
                {
                  "internalType": "bytes",
                  "name": "data",
                  "type": "bytes"
                }
              ],
              "internalType": "struct SolverLib.ModuleLoader[]",
              "name": "moduleLoaders",
              "type": "tuple[]"
            },
            {
              "components": [
                {
                  "internalType": "uint256",
                  "name": "executions",
                  "type": "uint256"
                },
                {
                  "internalType": "enum SolverLib.IngestType",
                  "name": "ingestType",
                  "type": "uint8"
                },
                {
                  "internalType": "bytes32",
                  "name": "slot",
                  "type": "bytes32"
                },
                {
                  "internalType": "uint256",
                  "name": "solverIndex",
                  "type": "uint256"
                },
                {
                  "internalType": "bytes",
                  "name": "data",
                  "type": "bytes"
                }
              ],
              "internalType": "struct SolverLib.Ingest[]",
              "name": "ingests",
              "type": "tuple[]"
            },
            {
              "components": [
                {
                  "internalType": "contract IERC20",
                  "name": "collateralToken",
                  "type": "address"
                },
                {
                  "internalType": "uint256",
                  "name": "outcomeSlots",
                  "type": "uint256"
                },
                {
                  "internalType": "uint256",
                  "name": "parentCollectionIndexSet",
                  "type": "uint256"
                },
                {
                  "internalType": "bytes32",
                  "name": "amountSlot",
                  "type": "bytes32"
                },
                {
                  "internalType": "uint256[]",
                  "name": "partition",
                  "type": "uint256[]"
                },
                {
                  "components": [
                    {
                      "internalType": "bytes32",
                      "name": "recipientAddressSlot",
                      "type": "bytes32"
                    },
                    {
                      "internalType": "bytes32[]",
                      "name": "recipientAmountSlots",
                      "type": "bytes32[]"
                    }
                  ],
                  "internalType": "struct SolverLib.Allocation[]",
                  "name": "allocations",
                  "type": "tuple[]"
                },
                {
                  "components": [
                    {
                      "internalType": "bytes32",
                      "name": "digest",
                      "type": "bytes32"
                    },
                    {
                      "internalType": "uint8",
                      "name": "hashFunction",
                      "type": "uint8"
                    },
                    {
                      "internalType": "uint8",
                      "name": "size",
                      "type": "uint8"
                    }
                  ],
                  "internalType": "struct SolverLib.Multihash[]",
                  "name": "outcomeURIs",
                  "type": "tuple[]"
                }
              ],
              "internalType": "struct SolverLib.ConditionBase",
              "name": "conditionBase",
              "type": "tuple"
            }
          ],
          "internalType": "struct SolverLib.Config",
          "name": "_config",
          "type": "tuple"
        }
      ],
      "name": "deployChild",
      "outputs": [
        {
          "internalType": "address",
          "name": "",
          "type": "address"
        }
      ],
      "stateMutability": "nonpayable",
      "type": "function"
    },
    {
      "inputs": [
        {
          "internalType": "uint256",
          "name": "_index",
          "type": "uint256"
        }
      ],
      "name": "executeSolve",
      "outputs": [],
      "stateMutability": "nonpayable",
      "type": "function"
    },
    {
      "inputs": [
        {
          "internalType": "bytes32",
          "name": "_slot",
          "type": "bytes32"
        }
      ],
      "name": "getAllData",
      "outputs": [
        {
          "internalType": "bytes[]",
          "name": "data",
          "type": "bytes[]"
        }
      ],
      "stateMutability": "view",
      "type": "function"
    },
    {
      "inputs": [
        {
          "internalType": "bytes32",
          "name": "_slot",
          "type": "bytes32"
        }
      ],
      "name": "getCallbackOutput",
      "outputs": [
        {
          "internalType": "bytes",
          "name": "data",
          "type": "bytes"
        }
      ],
      "stateMutability": "view",
      "type": "function"
    },
    {
      "inputs": [],
      "name": "getConditions",
      "outputs": [
        {
          "components": [
            {
              "internalType": "contract IERC20",
              "name": "collateralToken",
              "type": "address"
            },
            {
              "internalType": "bytes32",
              "name": "questionId",
              "type": "bytes32"
            },
            {
              "internalType": "bytes32",
              "name": "parentCollectionId",
              "type": "bytes32"
            },
            {
              "internalType": "bytes32",
              "name": "conditionId",
              "type": "bytes32"
            },
            {
              "internalType": "uint256[]",
              "name": "payouts",
              "type": "uint256[]"
            },
            {
              "internalType": "enum SolverLib.Status",
              "name": "status",
              "type": "uint8"
            }
          ],
          "internalType": "struct SolverLib.Condition[]",
          "name": "",
          "type": "tuple[]"
        }
      ],
      "stateMutability": "view",
      "type": "function"
    },
    {
      "inputs": [],
      "name": "getConfig",
      "outputs": [
        {
          "components": [
            {
              "internalType": "contract Solver",
              "name": "implementation",
              "type": "address"
            },
            {
              "internalType": "address",
              "name": "keeper",
              "type": "address"
            },
            {
              "internalType": "address",
              "name": "arbitrator",
              "type": "address"
            },
            {
              "internalType": "uint256",
              "name": "timelockSeconds",
              "type": "uint256"
            },
            {
              "components": [
                {
                  "internalType": "address",
                  "name": "module",
                  "type": "address"
                },
                {
                  "internalType": "bytes",
                  "name": "data",
                  "type": "bytes"
                }
              ],
              "internalType": "struct SolverLib.ModuleLoader[]",
              "name": "moduleLoaders",
              "type": "tuple[]"
            },
            {
              "components": [
                {
                  "internalType": "uint256",
                  "name": "executions",
                  "type": "uint256"
                },
                {
                  "internalType": "enum SolverLib.IngestType",
                  "name": "ingestType",
                  "type": "uint8"
                },
                {
                  "internalType": "bytes32",
                  "name": "slot",
                  "type": "bytes32"
                },
                {
                  "internalType": "uint256",
                  "name": "solverIndex",
                  "type": "uint256"
                },
                {
                  "internalType": "bytes",
                  "name": "data",
                  "type": "bytes"
                }
              ],
              "internalType": "struct SolverLib.Ingest[]",
              "name": "ingests",
              "type": "tuple[]"
            },
            {
              "components": [
                {
                  "internalType": "contract IERC20",
                  "name": "collateralToken",
                  "type": "address"
                },
                {
                  "internalType": "uint256",
                  "name": "outcomeSlots",
                  "type": "uint256"
                },
                {
                  "internalType": "uint256",
                  "name": "parentCollectionIndexSet",
                  "type": "uint256"
                },
                {
                  "internalType": "bytes32",
                  "name": "amountSlot",
                  "type": "bytes32"
                },
                {
                  "internalType": "uint256[]",
                  "name": "partition",
                  "type": "uint256[]"
                },
                {
                  "components": [
                    {
                      "internalType": "bytes32",
                      "name": "recipientAddressSlot",
                      "type": "bytes32"
                    },
                    {
                      "internalType": "bytes32[]",
                      "name": "recipientAmountSlots",
                      "type": "bytes32[]"
                    }
                  ],
                  "internalType": "struct SolverLib.Allocation[]",
                  "name": "allocations",
                  "type": "tuple[]"
                },
                {
                  "components": [
                    {
                      "internalType": "bytes32",
                      "name": "digest",
                      "type": "bytes32"
                    },
                    {
                      "internalType": "uint8",
                      "name": "hashFunction",
                      "type": "uint8"
                    },
                    {
                      "internalType": "uint8",
                      "name": "size",
                      "type": "uint8"
                    }
                  ],
                  "internalType": "struct SolverLib.Multihash[]",
                  "name": "outcomeURIs",
                  "type": "tuple[]"
                }
              ],
              "internalType": "struct SolverLib.ConditionBase",
              "name": "conditionBase",
              "type": "tuple"
            }
          ],
          "internalType": "struct SolverLib.Config",
          "name": "",
          "type": "tuple"
        }
      ],
      "stateMutability": "view",
      "type": "function"
    },
    {
      "inputs": [
        {
          "internalType": "bytes32",
          "name": "_slot",
          "type": "bytes32"
        }
      ],
      "name": "getData",
      "outputs": [
        {
          "internalType": "bytes",
          "name": "data",
          "type": "bytes"
        }
      ],
      "stateMutability": "view",
      "type": "function"
    },
    {
      "inputs": [
        {
          "internalType": "uint256",
          "name": "conditionIndex",
          "type": "uint256"
        }
      ],
      "name": "getStatus",
      "outputs": [
        {
          "internalType": "enum SolverLib.Status",
          "name": "status",
          "type": "uint8"
        }
      ],
      "stateMutability": "view",
      "type": "function"
    },
    {
      "inputs": [
        {
          "internalType": "bytes32",
          "name": "_slot",
          "type": "bytes32"
        }
      ],
      "name": "handleCallback",
      "outputs": [],
      "stateMutability": "nonpayable",
      "type": "function"
    },
    {
      "inputs": [
        {
          "internalType": "bytes32",
          "name": "role",
          "type": "bytes32"
        },
        {
          "internalType": "address",
          "name": "account",
          "type": "address"
        }
      ],
      "name": "hasRole",
      "outputs": [
        {
          "internalType": "bool",
          "name": "",
          "type": "bool"
        }
      ],
      "stateMutability": "view",
      "type": "function"
    },
    {
      "inputs": [],
      "name": "ingestsValid",
      "outputs": [
        {
          "internalType": "bool",
          "name": "",
          "type": "bool"
        }
      ],
      "stateMutability": "view",
      "type": "function"
    },
    {
      "inputs": [
        {
          "internalType": "address",
          "name": "_deployer",
          "type": "address"
        },
        {
          "internalType": "address",
          "name": "_ctfAddress",
          "type": "address"
        },
        {
          "internalType": "address",
          "name": "_chainParent",
          "type": "address"
        },
        {
          "internalType": "uint256",
          "name": "_chainIndex",
          "type": "uint256"
        },
        {
          "components": [
            {
              "internalType": "contract Solver",
              "name": "implementation",
              "type": "address"
            },
            {
              "internalType": "address",
              "name": "keeper",
              "type": "address"
            },
            {
              "internalType": "address",
              "name": "arbitrator",
              "type": "address"
            },
            {
              "internalType": "uint256",
              "name": "timelockSeconds",
              "type": "uint256"
            },
            {
              "components": [
                {
                  "internalType": "address",
                  "name": "module",
                  "type": "address"
                },
                {
                  "internalType": "bytes",
                  "name": "data",
                  "type": "bytes"
                }
              ],
              "internalType": "struct SolverLib.ModuleLoader[]",
              "name": "moduleLoaders",
              "type": "tuple[]"
            },
            {
              "components": [
                {
                  "internalType": "uint256",
                  "name": "executions",
                  "type": "uint256"
                },
                {
                  "internalType": "enum SolverLib.IngestType",
                  "name": "ingestType",
                  "type": "uint8"
                },
                {
                  "internalType": "bytes32",
                  "name": "slot",
                  "type": "bytes32"
                },
                {
                  "internalType": "uint256",
                  "name": "solverIndex",
                  "type": "uint256"
                },
                {
                  "internalType": "bytes",
                  "name": "data",
                  "type": "bytes"
                }
              ],
              "internalType": "struct SolverLib.Ingest[]",
              "name": "ingests",
              "type": "tuple[]"
            },
            {
              "components": [
                {
                  "internalType": "contract IERC20",
                  "name": "collateralToken",
                  "type": "address"
                },
                {
                  "internalType": "uint256",
                  "name": "outcomeSlots",
                  "type": "uint256"
                },
                {
                  "internalType": "uint256",
                  "name": "parentCollectionIndexSet",
                  "type": "uint256"
                },
                {
                  "internalType": "bytes32",
                  "name": "amountSlot",
                  "type": "bytes32"
                },
                {
                  "internalType": "uint256[]",
                  "name": "partition",
                  "type": "uint256[]"
                },
                {
                  "components": [
                    {
                      "internalType": "bytes32",
                      "name": "recipientAddressSlot",
                      "type": "bytes32"
                    },
                    {
                      "internalType": "bytes32[]",
                      "name": "recipientAmountSlots",
                      "type": "bytes32[]"
                    }
                  ],
                  "internalType": "struct SolverLib.Allocation[]",
                  "name": "allocations",
                  "type": "tuple[]"
                },
                {
                  "components": [
                    {
                      "internalType": "bytes32",
                      "name": "digest",
                      "type": "bytes32"
                    },
                    {
                      "internalType": "uint8",
                      "name": "hashFunction",
                      "type": "uint8"
                    },
                    {
                      "internalType": "uint8",
                      "name": "size",
                      "type": "uint8"
                    }
                  ],
                  "internalType": "struct SolverLib.Multihash[]",
                  "name": "outcomeURIs",
                  "type": "tuple[]"
                }
              ],
              "internalType": "struct SolverLib.ConditionBase",
              "name": "conditionBase",
              "type": "tuple"
            }
          ],
          "internalType": "struct SolverLib.Config",
          "name": "_solverConfig",
          "type": "tuple"
        }
      ],
      "name": "init",
      "outputs": [],
      "stateMutability": "nonpayable",
      "type": "function"
    },
    {
      "inputs": [
        {
          "internalType": "address",
          "name": "account",
          "type": "address"
        },
        {
          "internalType": "uint256",
          "name": "conditionIndex",
          "type": "uint256"
        }
      ],
      "name": "isRecipient",
      "outputs": [
        {
          "internalType": "bool",
          "name": "",
          "type": "bool"
        }
      ],
      "stateMutability": "view",
      "type": "function"
    },
    {
      "inputs": [],
      "name": "keeper",
      "outputs": [
        {
          "internalType": "address",
          "name": "",
          "type": "address"
        }
      ],
      "stateMutability": "view",
      "type": "function"
    },
    {
      "inputs": [
        {
          "internalType": "bytes",
          "name": "data",
          "type": "bytes"
        }
      ],
      "name": "load",
      "outputs": [],
      "stateMutability": "nonpayable",
      "type": "function"
    },
    {
      "inputs": [
        {
          "internalType": "address",
          "name": "operator",
          "type": "address"
        },
        {
          "internalType": "address",
          "name": "from",
          "type": "address"
        },
        {
          "internalType": "uint256[]",
          "name": "ids",
          "type": "uint256[]"
        },
        {
          "internalType": "uint256[]",
          "name": "values",
          "type": "uint256[]"
        },
        {
          "internalType": "bytes",
          "name": "data",
          "type": "bytes"
        }
      ],
      "name": "onERC1155BatchReceived",
      "outputs": [
        {
          "internalType": "bytes4",
          "name": "",
          "type": "bytes4"
        }
      ],
      "stateMutability": "nonpayable",
      "type": "function"
    },
    {
      "inputs": [
        {
          "internalType": "address",
          "name": "operator",
          "type": "address"
        },
        {
          "internalType": "address",
          "name": "from",
          "type": "address"
        },
        {
          "internalType": "uint256",
          "name": "id",
          "type": "uint256"
        },
        {
          "internalType": "uint256",
          "name": "value",
          "type": "uint256"
        },
        {
          "internalType": "bytes",
          "name": "data",
          "type": "bytes"
        }
      ],
      "name": "onERC1155Received",
      "outputs": [
        {
          "internalType": "bytes4",
          "name": "",
          "type": "bytes4"
        }
      ],
      "stateMutability": "nonpayable",
      "type": "function"
    },
    {
      "inputs": [
        {
          "internalType": "uint256",
          "name": "_index",
          "type": "uint256"
        }
      ],
      "name": "prepareSolve",
      "outputs": [],
      "stateMutability": "nonpayable",
      "type": "function"
    },
    {
      "inputs": [
        {
          "internalType": "uint256",
          "name": "_index",
          "type": "uint256"
        },
        {
          "internalType": "uint256[]",
          "name": "_payouts",
          "type": "uint256[]"
        }
      ],
      "name": "proposePayouts",
      "outputs": [],
      "stateMutability": "nonpayable",
      "type": "function"
    },
    {
      "inputs": [
        {
          "internalType": "contract IERC20",
          "name": "_collateralToken",
          "type": "address"
        },
        {
          "internalType": "bytes32",
          "name": "_parentCollectionId",
          "type": "bytes32"
        },
        {
          "internalType": "bytes32",
          "name": "_conditionId",
          "type": "bytes32"
        },
        {
          "internalType": "uint256[]",
          "name": "_indexSets",
          "type": "uint256[]"
        }
      ],
      "name": "redeemPosition",
      "outputs": [],
      "stateMutability": "nonpayable",
      "type": "function"
    },
    {
      "inputs": [
        {
          "internalType": "bytes32",
          "name": "_slot",
          "type": "bytes32"
        },
        {
          "internalType": "uint256",
          "name": "_chainIndex",
          "type": "uint256"
        }
      ],
      "name": "registerOutgoingCallback",
      "outputs": [],
      "stateMutability": "nonpayable",
      "type": "function"
    },
    {
      "inputs": [],
      "name": "roles",
      "outputs": [
        {
          "internalType": "bytes32[]",
          "name": "requestedRoles",
          "type": "bytes32[]"
        }
      ],
      "stateMutability": "pure",
      "type": "function"
    },
    {
      "inputs": [
        {
          "internalType": "bytes32",
          "name": "_trackingId",
          "type": "bytes32"
        }
      ],
      "name": "setTrackingId",
      "outputs": [],
      "stateMutability": "nonpayable",
      "type": "function"
    },
    {
      "inputs": [
        {
          "internalType": "string",
          "name": "cid",
          "type": "string"
        },
        {
          "internalType": "bytes32",
          "name": "conditionId",
          "type": "bytes32"
        }
      ],
      "name": "submitWork",
      "outputs": [],
      "stateMutability": "nonpayable",
      "type": "function"
    },
    {
      "inputs": [
        {
          "internalType": "bytes4",
          "name": "interfaceId",
          "type": "bytes4"
        }
      ],
      "name": "supportsInterface",
      "outputs": [
        {
          "internalType": "bool",
          "name": "",
          "type": "bool"
        }
      ],
      "stateMutability": "view",
      "type": "function"
    },
    {
      "inputs": [
        {
          "internalType": "uint256",
          "name": "",
          "type": "uint256"
        }
      ],
      "name": "timelocks",
      "outputs": [
        {
          "internalType": "uint256",
          "name": "",
          "type": "uint256"
        }
      ],
      "stateMutability": "view",
      "type": "function"
    },
    {
      "inputs": [],
      "name": "trackingId",
      "outputs": [
        {
          "internalType": "bytes32",
          "name": "",
          "type": "bytes32"
        }
      ],
      "stateMutability": "view",
      "type": "function"
    },
    {
      "inputs": [],
      "name": "writer",
      "outputs": [
        {
          "internalType": "address",
          "name": "",
          "type": "address"
        }
      ],
      "stateMutability": "view",
      "type": "function"
    }
  ],
  "bytecode": "0x60806040523480156200001157600080fd5b506200001c62000022565b6200013b565b6200002e60ff62000031565b50565b60008054610100900460ff16156200009a578160ff1660011480156200006a57506200006830620000de60201b62002c951760201c565b155b620000925760405162461bcd60e51b81526004016200008990620000ed565b60405180910390fd5b506000919050565b60005460ff808416911610620000c45760405162461bcd60e51b81526004016200008990620000ed565b506000805460ff191660ff92909216919091179055600190565b6001600160a01b03163b151590565b6020808252602e908201527f496e697469616c697a61626c653a20636f6e747261637420697320616c72656160408201526d191e481a5b9a5d1a585b1a5e995960921b606082015260800190565b615caf806200014b6000396000f3fe608060405234801561001057600080fd5b506004361061020f5760003560e01c806301ffc9a7146102145780630d06101a1461023c5780630d7e149f146102515780630d8d3975146102725780630ebe1bbd14610285578063187825591461029857806326c50007146102ab578063364bc15a146102cf5780633837b05e146102e4578063392f5f64146103045780633cef64cc146103135780633f4fb5aa1461032657806344c3b60714610346578063453a2abc1461035957806348cbb2fc146103615780634a77234e1461036a5780634dab5e691461037d5780634e46f22314610390578063506da0b8146103a357806354f6127f146103b657806355dd978b146103c95780635c622a0e146103dc5780636cc6cde1146103fc57806379502c551461040d5780637c1236271461042657806380b204b71461043b57806380c2dde21461044e5780638602ce1b1461046157806387dfee571461047457806391d1485414610487578063999925061461049a5780639cea0787146104a2578063aced1661146104b7578063b992db0f146104c8578063bc197c81146104db578063c05bc73114610516578063c08d6f0114610529578063c3f909d414610549578063c98c05b71461055e578063de3a23c514610566578063df33cc5114610579578063ea8221a91461058c578063ed25d17814610595578063f23a6e61146105a8578063f24fc903146105bb575b600080fd5b61022761022236600461386f565b6105db565b60405190151581526020015b60405180910390f35b61024f61024a3660046138a0565b6105fb565b005b61026461025f3660046138a0565b61065d565b604051908152602001610233565b61024f6102803660046138a0565b61067e565b61024f6102933660046138f1565b6107d0565b61024f6102a63660046139ba565b6109f0565b6102be6102b93660046138a0565b610a94565b604051610233959493929190613a5a565b610264600080516020615c5a83398151915281565b6102f76102f23660046138a0565b610ae2565b6040516102339190613a8c565b60606040516102339190613aa0565b61024f610321366004613b25565b610bf3565b6103396103343660046138a0565b610c41565b6040516102339190613bc2565b6102276103543660046138a0565b610d5d565b6102f7610de2565b61026460155481565b61024f6103783660046138a0565b610e07565b61024f61038b3660046138a0565b611157565b61024f61039e3660046138a0565b6112dd565b6102276103b1366004613bd5565b611398565b6103396103c43660046138a0565b6114dd565b6012546102f7906001600160a01b031681565b6103ef6103ea3660046138a0565b6114fd565b6040516102339190613c01565b6005546001600160a01b03166102f7565b61041561152f565b604051610233959493929190613d98565b61042e61171c565b6040516102339190613e3f565b61024f610449366004613ea1565b61182f565b6011546102f7906001600160a01b031681565b61024f61046f366004613fd7565b611997565b61024f610482366004614040565b611a83565b6102276104953660046140dc565b611c07565b610227611c32565b610264600080516020615c3a83398151915281565b6004546001600160a01b03166102f7565b61024f6104d63660046138a0565b611cb2565b6104fd6104e936600461410c565b63bc197c8160e01b98975050505050505050565b6040516001600160e01b03199091168152602001610233565b61024f6105243660046141ca565b611ec6565b61053c6105373660046138a0565b611fe0565b6040516102339190614215565b6105516120c5565b6040516102339190614370565b610264612531565b61024f6105743660046138a0565b6125a3565b61024f61058736600461440f565b6128cd565b61026460135481565b6102f76105a3366004614431565b612a14565b6104fd6105b636600461446d565b612b65565b6105ce6105c93660046138a0565b612b78565b60405161023391906144e8565b60006105e682612ca4565b806105f557506105f582612cc5565b92915050565b601554156106415760405162461bcd60e51b815260206004820152600e60248201526d151c9858dada5b99d259081cd95d60921b60448201526064015b60405180910390fd5b6002546001600160a01b0316331461065857600080fd5b601555565b6014818154811061066d57600080fd5b600091825260209091200154905081565b60148181548110610691576106916144fb565b906000526020600020015442116106ba5760405162461bcd60e51b815260040161063890614511565b6002601082815481106106cf576106cf6144fb565b60009182526020909120600560069092020181015460ff16908111156106f7576106f7613a30565b146107335760405162461bcd60e51b815260206004820152600c60248201526b139bdd081c1c9bdc1bdcd95960a21b6044820152606401610638565b6001546010805473__$3ec311f63f1cd166364ee887ad77eb9bd8$__926385c92867926001600160a01b039091169185908110610772576107726144fb565b90600052602060002090600602016040518363ffffffff1660e01b815260040161079d929190614535565b60006040518083038186803b1580156107b557600080fd5b505af41580156107c9573d6000803e3d6000fd5b5050505050565b60006107dc6001612cfa565b905080156107f4576000805461ff0019166101001790555b6000610806604084016020850161454e565b6001600160a01b03160361084d5760405162461bcd60e51b815260206004820152600e60248201526d12d9595c195c881a5b9d985b1a5960921b6044820152606401610638565b600280546001600160a01b03199081166001600160a01b03898116919091179092556000805462010000600160b01b0319163362010000021790556001805482168884161790556011805490911691861691909117905560138390558160036108b68282614d78565b90505060005b6108c960a084018461458b565b905081101561092d5780601b60006108e460a087018761458b565b858181106108f4576108f46144fb565b90506020028101906109069190614829565b6040908101358252602082019290925201600020558061092581614ede565b9150506108bc565b5060045461095590600080516020615c5a833981519152906001600160a01b03166001612d89565b6005546001600160a01b03161561098d5760055461098d90600080516020615c3a833981519152906001600160a01b03166001612d89565b6109a261099d608084018461458b565b612dbe565b80156109e8576000805461ff0019169055604051600181527f7f26b83ff96e1f2b6a682f133852f6798a09c465da95921460cefb38474024989060200160405180910390a15b505050505050565b610a08600080516020615c5a83398151915233611c07565b610a245760405162461bcd60e51b815260040161063890614ef7565b600154604051626dc0df60e21b81526001600160a01b03909116906301b7037c90610a5b9088908890889088908890600401614f52565b600060405180830381600087803b158015610a7557600080fd5b505af1158015610a89573d6000803e3d6000fd5b505050505050505050565b60108181548110610aa457600080fd5b6000918252602090912060069091020180546001820154600283015460038401546005909401546001600160a01b0390931694509092909160ff1685565b60006013548203610af4575030919050565b601354821015610b83576011546001600160a01b0316610b1657506000919050565b601154604051631c1bd82f60e11b8152600481018490526001600160a01b0390911690633837b05e90602401602060405180830381865afa158015610b5f573d6000803e3d6000fd5b505050506040513d601f19601f820116820180604052508101906105f59190614f80565b601354821115610bee576012546001600160a01b0316610ba557506000919050565b601254604051631c1bd82f60e11b8152600481018490526001600160a01b0390911690633837b05e90602401602060405180830381865afa158015610b5f573d6000803e3d6000fd5b919050565b333014610c2e5760405162461bcd60e51b81526020600482015260096024820152684f6e6c79207468697360b81b6044820152606401610638565b610c3a818301836138a0565b601d555050565b6010546000828152601a602052604090205460609114610c975760405162461bcd60e51b815260206004820152601160248201527029b637ba1034b73b30b634b2103b32b91760791b6044820152606401610638565b6000828152601a602052604090208054610cb390600190614f9d565b81548110610cc357610cc36144fb565b906000526020600020018054610cd890614629565b80601f0160208091040260200160405190810160405280929190818152602001828054610d0490614629565b8015610d515780601f10610d2657610100808354040283529160200191610d51565b820191906000526020600020905b815481529060010190602001808311610d3457829003601f168201915b50505050509050919050565b6040516336d39c6160e11b815260048101829052601a60248201526009604482015260009073__$3ec311f63f1cd166364ee887ad77eb9bd8$__90636da738c290606401602060405180830381865af4158015610dbe573d6000803e3d6000fd5b505050506040513d601f19601f820116820180604052508101906105f59190614fb4565b6000610def601d546114dd565b806020019051810190610e029190614f80565b905090565b60105415610e7d57610e27600080516020615c5a83398151915233611c07565b80610e3c57506011546001600160a01b031633145b610e7d5760405162461bcd60e51b815260206004820152601260248201527113db9b1e481ad9595c195c8bdc185c995b9d60721b6044820152606401610638565b6010548114610ebe5760405162461bcd60e51b815260206004820152600d60248201526c092dcecc2d8d2c840d2dcc8caf609b1b6044820152606401610638565b60175415610efd5760405162461bcd60e51b815260206004820152600c60248201526b6f7574676f696e672063627360a01b6044820152606401610638565b60165415610f3c5760405162461bcd60e51b815260206004820152600c60248201526b696e636f6d696e672063627360a01b6044820152606401610638565b6001546011546010805460405163699e0add60e01b8152919373__$3ec311f63f1cd166364ee887ad77eb9bd8$__9363699e0add93610f8e936001600160a01b039384169360099316916004016150f9565b600060405180830381865af4158015610fab573d6000803e3d6000fd5b505050506040513d6000823e601f3d908101601f19168201604052610fd391908101906151ba565b8154600180820184556000938452602093849020835160069093020180546001600160a01b0319166001600160a01b0390931692909217825582840151908201556040820151600282015560608201516003820155608082015180519293919261104392600485019201906136fb565b5060a08201518160050160006101000a81548160ff0219169083600581111561106e5761106e613a30565b0217905550506014805460018101825560009182527fce6d7b5282bd9a3661ae061feed1dbda4e52ab073b1f9285be6e155d9c38d4ec0155506110af612f33565b7f152ec8ae15d347b2d2a8f0858caa29bcaaa0906749a1f43e08bfe7998346024030826040516110e0929190614535565b60405180910390a16012546001600160a01b0316156111545760125460405163253b91a760e11b8152600481018390526001600160a01b0390911690634a77234e906024015b600060405180830381600087803b15801561114057600080fd5b505af11580156107c9573d6000803e3d6000fd5b50565b61116f600080516020615c3a83398151915233611c07565b61118b5760405162461bcd60e51b8152600401610638906152be565b6002601082815481106111a0576111a06144fb565b60009182526020909120600560069092020181015460ff16908111156111c8576111c8613a30565b148061120e57506003601082815481106111e4576111e46144fb565b60009182526020909120600560069092020181015460ff169081111561120c5761120c613a30565b145b61124b5760405162461bcd60e51b815260206004820152600e60248201526d10d85b9b9bdd081c995c5d595cdd60921b6044820152606401610638565b73__$3ec311f63f1cd166364ee887ad77eb9bd8$__6324b2860260108381548110611278576112786144fb565b90600052602060002090600602016040518263ffffffff1660e01b81526004016112a491815260200190565b60006040518083038186803b1580156112bc57600080fd5b505af41580156112d0573d6000803e3d6000fd5b50505050611154816131b1565b6112f5600080516020615c3a83398151915233611c07565b6113115760405162461bcd60e51b8152600401610638906152be565b600360108281548110611326576113266144fb565b60009182526020909120600560069092020181015460ff169081111561134e5761134e613a30565b1461136b5760405162461bcd60e51b8152600401610638906152e7565b73__$3ec311f63f1cd166364ee887ad77eb9bd8$__6359111fb560108381548110611278576112786144fb565b6000805b600e548110156114d357600e8054600091601a91839190859081106113c3576113c36144fb565b906000526020600020906002020160000154815260200190815260200160002084815481106113f4576113f46144fb565b90600052602060002001805461140990614629565b80601f016020809104026020016040519081016040528092919081815260200182805461143590614629565b80156114825780601f1061145757610100808354040283529160200191611482565b820191906000526020600020905b81548152906001019060200180831161146557829003601f168201915b505050505080602001905181019061149a9190614f80565b9050806001600160a01b0316856001600160a01b0316036114c0576001925050506105f5565b50806114cb81614ede565b91505061139c565b5060009392505050565b6000818152601a60205260409020805460609190610cb390600190614f9d565b600060108281548110611512576115126144fb565b600091825260209091206005600690920201015460ff1692915050565b600380546004546005546006546040805160e081018252600980546001600160a01b039081168352600a54602080850191909152600b5484860152600c546060850152600d80548651818402810184019097528087529983169a988316999790921697959693949293608086019392918301828280156115ce57602002820191906000526020600020905b8154815260200190600101908083116115ba575b5050505050815260200160058201805480602002602001604051908101604052809291908181526020016000905b828210156116905783829060005260206000209060020201604051806040016040529081600082015481526020016001820180548060200260200160405190810160405280929190818152602001828054801561167857602002820191906000526020600020905b815481526020019060010190808311611664575b505050505081525050815260200190600101906115fc565b50505050815260200160068201805480602002602001604051908101604052809291908181526020016000905b8282101561170f57600084815260209081902060408051606081018252600286029092018054835260019081015460ff80821685870152610100909104169183019190915290835290920191016116bd565b5050505081525050905085565b60606010805480602002602001604051908101604052809291908181526020016000905b828210156118265760008481526020908190206040805160c0810182526006860290920180546001600160a01b0316835260018101548385015260028101548383015260038101546060840152600481018054835181870281018701909452808452939491936080860193928301828280156117db57602002820191906000526020600020905b8154815260200190600101908083116117c7575b505050918352505060058281015460209092019160ff169081111561180257611802613a30565b600581111561181357611813613a30565b8152505081526020019060010190611740565b50505050905090565b611847600080516020615c5a83398151915233611c07565b6118635760405162461bcd60e51b815260040161063890614ef7565b600a5481146118845760405162461bcd60e51b815260040161063890615319565b600160108481548110611899576118996144fb565b60009182526020909120600560069092020181015460ff16908111156118c1576118c1613a30565b146118fe5760405162461bcd60e51b815260206004820152600d60248201526c10db9bdd08115e1958dd5d1959609a1b6044820152606401610638565b73__$3ec311f63f1cd166364ee887ad77eb9bd8$__636a0a24f16010858154811061192b5761192b6144fb565b906000526020600020906006020184846040518463ffffffff1660e01b815260040161195993929190615350565b60006040518083038186803b15801561197157600080fd5b505af4158015611985573d6000803e3d6000fd5b50505050611992836131b1565b505050565b6119af600080516020615c5a83398151915233611c07565b6119cb5760405162461bcd60e51b815260040161063890614ef7565b6000828152601b6020526040902054600880546003929081106119f0576119f06144fb565b600091825260209091206001600590920201015460ff166003811115611a1857611a18613a30565b14611a5e5760405162461bcd60e51b81526020600482015260166024820152751bdb9b1e48125b99d95cdd151e5c194b93585b9d585b60521b6044820152606401610638565b611a6882826131eb565b604051600080516020615c1a83398151915290600090a15050565b611a9b600080516020615c3a83398151915233611c07565b611ab75760405162461bcd60e51b8152600401610638906152be565b600360108381548110611acc57611acc6144fb565b60009182526020909120600560069092020181015460ff1690811115611af457611af4613a30565b14611b115760405162461bcd60e51b8152600401610638906152e7565b60148281548110611b2457611b246144fb565b90600052602060002001544211611b4d5760405162461bcd60e51b815260040161063890614511565b600a54815114611b6f5760405162461bcd60e51b815260040161063890615319565b6001546010805473__$3ec311f63f1cd166364ee887ad77eb9bd8$__92631b948e49926001600160a01b039091169186908110611bae57611bae6144fb565b9060005260206000209060060201846040518463ffffffff1660e01b8152600401611bdb9392919061536a565b60006040518083038186803b158015611bf357600080fd5b505af41580156109e8573d6000803e3d6000fd5b6000918252601c602090815260408084206001600160a01b0393909316845291905290205460ff1690565b601054604051635cc1f6b560e01b815260009173__$3ec311f63f1cd166364ee887ad77eb9bd8$__91635cc1f6b591611c7191600891906004016153c7565b602060405180830381865af4158015611c8e573d6000803e3d6000fd5b505050506040513d601f19601f82011682018060405250810190610e029190614fb4565b611cba611c32565b1515600114611cfd5760405162461bcd60e51b815260206004820152600f60248201526e1a5b99d95cdd1cc81a5b9d985b1a59608a1b6044820152606401610638565b73__$3ec311f63f1cd166364ee887ad77eb9bd8$__632dd4082482600160009054906101000a90046001600160a01b031660108581548110611d4157611d416144fb565b60009182526020808320601554601154600c548652601a938490526040909520805460069095029092019460099491926001600160a01b03909116918b908110611d8d57611d8d6144fb565b906000526020600020018054611da290614629565b80601f0160208091040260200160405190810160405280929190818152602001828054611dce90614629565b8015611e1b5780601f10611df057610100808354040283529160200191611e1b565b820191906000526020600020905b815481529060010190602001808311611dfe57829003601f168201915b5050505050806020019051810190611e3391906154e0565b60405160e08a901b6001600160e01b031916815260048101989098526001600160a01b03968716602489015260448801959095526064870193909352608486019190915260a485015290911660c483015260e48201526101040160006040518083038186803b158015611ea557600080fd5b505af4158015611eb9573d6000803e3d6000fd5b5050505061115481613289565b611ece610de2565b6001600160a01b0316336001600160a01b031614611f1c5760405162461bcd60e51b815260206004820152600b60248201526a27b7363c902bb934ba32b960a91b6044820152606401610638565b600160108054611f2e90600190614f9d565b81548110611f3e57611f3e6144fb565b60009182526020909120600560069092020181015460ff1690811115611f6657611f66613a30565b14611f9e5760405162461bcd60e51b8152602060048201526008602482015267111a5cd8589b195960c21b6044820152606401610638565b7f7399fd48fdfaf111111c20e282a8837c6803b6631b3b7b5e30b3b97d682d21b683833384604051611fd39493929190615522565b60405180910390a1505050565b6000818152601a60209081526040808320805482518185028101850190935280835260609492939192909184015b828210156120ba57838290600052602060002001805461202d90614629565b80601f016020809104026020016040519081016040528092919081815260200182805461205990614629565b80156120a65780601f1061207b576101008083540402835291602001916120a6565b820191906000526020600020905b81548152906001019060200180831161208957829003601f168201915b50505050508152602001906001019061200e565b505050509050919050565b6120cd613746565b6040805160e081018252600380546001600160a01b0390811683526004548116602080850191909152600554909116838501526006546060840152600780548551818402810184019096528086529394929360808601939260009084015b82821015612204576000848152602090819020604080518082019091526002850290910180546001600160a01b03168252600181018054929391929184019161217390614629565b80601f016020809104026020016040519081016040528092919081815260200182805461219f90614629565b80156121ec5780601f106121c1576101008083540402835291602001916121ec565b820191906000526020600020905b8154815290600101906020018083116121cf57829003601f168201915b5050505050815250508152602001906001019061212b565b50505050815260200160058201805480602002602001604051908101604052809291908181526020016000905b8282101561234c57838290600052602060002090600502016040518060a0016040529081600082015481526020016001820160009054906101000a900460ff16600381111561228257612282613a30565b600381111561229357612293613a30565b815260200160028201548152602001600382015481526020016004820180546122bb90614629565b80601f01602080910402602001604051908101604052809291908181526020018280546122e790614629565b80156123345780601f1061230957610100808354040283529160200191612334565b820191906000526020600020905b81548152906001019060200180831161231757829003601f168201915b50505050508152505081526020019060010190612231565b505050908252506040805160e0810182526006840180546001600160a01b03168252600785015460208381019190915260088601548385015260098601546060840152600a8601805485518184028101840190965280865295820195939492936080860193928301828280156123e157602002820191906000526020600020905b8154815260200190600101908083116123cd575b5050505050815260200160058201805480602002602001604051908101604052809291908181526020016000905b828210156124a35783829060005260206000209060020201604051806040016040529081600082015481526020016001820180548060200260200160405190810160405280929190818152602001828054801561248b57602002820191906000526020600020905b815481526020019060010190808311612477575b5050505050815250508152602001906001019061240f565b50505050815260200160068201805480602002602001604051908101604052809291908181526020016000905b8282101561252257600084815260209081902060408051606081018252600286029092018054835260019081015460ff80821685870152610100909104169183019190915290835290920191016124d0565b50505091525050905250919050565b6009546040516370a0823160e01b81526000916001600160a01b0316906370a0823190612562903090600401613a8c565b602060405180830381865afa15801561257f573d6000803e3d6000fd5b505050506040513d601f19601f82011682018060405250810190610e0291906154e0565b600033826040516020016125b8929190615552565b60408051601f19818403018152918152815160209283012060008181526019909352912054600880549293506126109290919081106125f9576125f96144fb565b906000526020600020906005020160030154610ae2565b6001600160a01b0316336001600160a01b0316146126405760405162461bcd60e51b81526004016106389061556f565b600081815260196020526040812054600880549091908110612664576126646144fb565b600091825260209091206001600590920201015460ff16600381111561268c5761268c613a30565b146126c25760405162461bcd60e51b81526020600482015260066024820152653737ba1021b160d11b6044820152606401610638565b6000818152601960205260409020546008805490919081106126e6576126e66144fb565b60009182526020822060059091020180549161270183614ede565b90915550506000818152601960205260409020546008805461288e9290811061272c5761272c6144fb565b906000526020600020906005020160020154336001600160a01b0316633f4fb5aa6003600501601660030160008781526020019081526020016000205481548110612779576127796144fb565b9060005260206000209060050201600401805461279590614629565b80601f01602080910402602001604051908101604052809291908181526020018280546127c190614629565b801561280e5780601f106127e35761010080835404028352916020019161280e565b820191906000526020600020905b8154815290600101906020018083116127f157829003601f168201915b505050505080602001905181019061282691906154e0565b6040518263ffffffff1660e01b815260040161284491815260200190565b600060405180830381865afa158015612861573d6000803e3d6000fd5b505050506040513d6000823e601f3d908101601f19168201604052612889919081019061559e565b6131eb565b600081815260196020526040812081905560168054916128ad8361560b565b9091555050604051600080516020615c1a83398151915290600090a15050565b60135481116129165760405162461bcd60e51b8152602060048201526015602482015274736f6c766572206e6f7420646f776e73747265616d60581b6044820152606401610638565b61291f81610ae2565b6001600160a01b0316336001600160a01b03161461294f5760405162461bcd60e51b81526004016106389061556f565b6000828152601a60205260409020541580159061297b57506010546000838152601a6020526040902054145b156129cd5760405163de3a23c560e01b815260048101839052339063de3a23c590602401600060405180830381600087803b1580156129b957600080fd5b505af11580156109e8573d6000803e3d6000fd5b6000828152601860209081526040822080546001810182559083529082200180546001600160a01b031916331790556017805491612a0a83614ede565b91905055505b5050565b6000612a2e600080516020615c5a83398151915233611c07565b612a685760405162461bcd60e51b815260206004820152600b60248201526a27b7363c9035b2b2b832b960a91b6044820152606401610638565b6012546001600160a01b031615612aad5760405162461bcd60e51b815260206004820152600960248201526812185cc818da1a5b1960ba1b6044820152606401610638565b6000546013546015546040516386a2d22760e01b815273__$3ec311f63f1cd166364ee887ad77eb9bd8$__936386a2d22793612aff93620100009092046001600160a01b0316928892906004016159b7565b602060405180830381865af4158015612b1c573d6000803e3d6000fd5b505050506040513d601f19601f82011682018060405250810190612b409190614f80565b601280546001600160a01b0319166001600160a01b0392909216918217905592915050565b63f23a6e6160e01b5b9695505050505050565b612bad6040805160c081018252600080825260208201819052918101829052606080820183905260808201529060a082015290565b60108281548110612bc057612bc06144fb565b60009182526020918290206040805160c081018252600690930290910180546001600160a01b031683526001810154838501526002810154838301526003810154606084015260048101805483518187028101870190945280845293949193608086019392830182828015612c5457602002820191906000526020600020905b815481526020019060010190808311612c40575b505050918352505060058281015460209092019160ff1690811115612c7b57612c7b613a30565b6005811115612c8c57612c8c613a30565b90525092915050565b6001600160a01b03163b151590565b60006001600160e01b0319821663043ff20f60e01b14806105f557506105f5825b60006001600160e01b03198216630271189760e51b14806105f557506301ffc9a760e01b6001600160e01b03198316146105f5565b60008054610100900460ff1615612d48578160ff166001148015612d245750612d2230612c95565b155b612d405760405162461bcd60e51b815260040161063890615aa7565b506000919050565b60005460ff808416911610612d6f5760405162461bcd60e51b815260040161063890615aa7565b506000805460ff191660ff92909216919091179055600190565b6000928352601c602090815260408085206001600160a01b039490941685529290529120805460ff1916911515919091179055565b60005b81811015611992576000838383818110612ddd57612ddd6144fb565b9050602002810190612def91906145d4565b612df890615af5565b80519091506001600160a01b0316612e0e573081525b60008082600001516001600160a01b031660008460200151604051612e339190615b6a565b60006040518083038185875af1925050503d8060008114612e70576040519150601f19603f3d011682016040523d82523d6000602084013e612e75565b606091505b5091509150600081806020019051810190612e909190615b7c565b905060005b8151811015612ed957612ec7828781518110612eb357612eb36144fb565b602002602001015186600001516001612d89565b80612ed181614ede565b915050612e95565b5082612f1c5760405162461bcd60e51b81526020600482015260126024820152711b1bd859135bd91d5b195cc819985a5b195960721b6044820152606401610638565b505050508080612f2b90614ede565b915050612dc1565b60005b6008548110156131975760006008805483908110612f5657612f566144fb565b600091825260209091206001600590920201015460ff166003811115612f7e57612f7e613a30565b14612fb457612faf60036005018281548110612f9c57612f9c6144fb565b90600052602060002090600502016133bf565b613185565b6000306001600160a01b0316633837b05e60036005018481548110612fdb57612fdb6144fb565b9060005260206000209060050201600301546040518263ffffffff1660e01b815260040161300b91815260200190565b602060405180830381865afa158015613028573d6000803e3d6000fd5b505050506040513d601f19601f8201168201806040525081019061304c9190614f80565b905061305881836134ab565b806001600160a01b031663df33cc516003600501848154811061307d5761307d6144fb565b9060005260206000209060050201600401805461309990614629565b80601f01602080910402602001604051908101604052809291908181526020018280546130c590614629565b80156131125780601f106130e757610100808354040283529160200191613112565b820191906000526020600020905b8154815290600101906020018083116130f557829003601f168201915b505050505080602001905181019061312a91906154e0565b6013546040516001600160e01b031960e085901b16815260048101929092526024820152604401600060405180830381600087803b15801561316b57600080fd5b505af115801561317f573d6000803e3d6000fd5b50505050505b8061318f81614ede565b915050612f36565b50604051600080516020615c1a83398151915290600090a1565b6006546131bf90600161460a565b6131c99042615c01565b601482815481106131dc576131dc6144fb565b60009182526020909120015550565b6010546131fa90600190614f9d565b6000838152601a60205260409020541461324d5760405162461bcd60e51b815260206004820152601460248201527314db1bdd081d995c9cda5bdb881a5b9d985b1a5960621b6044820152606401610638565b6000828152601a602090815260408220805460018101825590835291819020835161327f9391909101918401906137e7565b50612a10826135c1565b6012546001600160a01b0316158015906133155750601260009054906101000a90046001600160a01b03166001600160a01b031663999925066040518163ffffffff1660e01b8152600401602060405180830381865afa1580156132f1573d6000803e3d6000fd5b505050506040513d601f19601f820116820180604052508101906133159190614fb4565b801561338957506012546040516344c3b60760e01b8152600481018390526001600160a01b03909116906344c3b60790602401602060405180830381865afa158015613365573d6000803e3d6000fd5b505050506040513d601f19601f820116820180604052508101906133899190614fb4565b156111545760125460405163b992db0f60e01b8152600481018390526001600160a01b039091169063b992db0f90602401611126565b600181015460039060ff16818111156133da576133da613a30565b111561341d5760405162461bcd60e51b8152602060048201526012602482015271496e76616c696420696e676573745479706560701b6044820152606401610638565b805481600061342b83614ede565b9091555060039050600182015460ff16600381111561344c5761344c613a30565b1461115457600281015460405163b3d7370760e01b815260048101839052611154919073__$3ec311f63f1cd166364ee887ad77eb9bd8$__9063b3d7370790602401600060405180830381865af4158015612861573d6000803e3d6000fd5b806016600301600084600360050185815481106134ca576134ca6144fb565b906000526020600020906005020160040180546134e690614629565b80601f016020809104026020016040519081016040528092919081815260200182805461351290614629565b801561355f5780601f106135345761010080835404028352916020019161355f565b820191906000526020600020905b81548152906001019060200180831161354257829003601f168201915b505050505080602001905181019061357791906154e0565b604051602001613588929190615552565b60408051601f198184030181529181528151602092830120835290820192909252016000908120919091556016805491612a0a83614ede565b60005b600082815260186020526040902054811015612a105760008281526018602052604081208054839081106135fa576135fa6144fb565b6000918252602090912001546001600160a01b0316146136e9576000828152601860205260409020805482908110613634576136346144fb565b60009182526020909120015460405163de3a23c560e01b8152600481018490526001600160a01b039091169063de3a23c590602401600060405180830381600087803b15801561368357600080fd5b505af1158015613697573d6000803e3d6000fd5b50505060008381526018602052604090208054909150829081106136bd576136bd6144fb565b6000918252602082200180546001600160a01b031916905560178054916136e38361560b565b91905055505b806136f381614ede565b9150506135c4565b828054828255906000526020600020908101928215613736579160200282015b8281111561373657825182559160200191906001019061371b565b5061374292915061385a565b5090565b6040518060e0016040528060006001600160a01b0316815260200160006001600160a01b0316815260200160006001600160a01b031681526020016000815260200160608152602001606081526020016137e26040518060e0016040528060006001600160a01b031681526020016000815260200160008152602001600080191681526020016060815260200160608152602001606081525090565b905290565b8280546137f390614629565b90600052602060002090601f0160209004810192826138155760008555613736565b82601f1061382e57805160ff1916838001178555613736565b82800160010185558215613736579182018281111561373657825182559160200191906001019061371b565b5b80821115613742576000815560010161385b565b60006020828403121561388157600080fd5b81356001600160e01b03198116811461389957600080fd5b9392505050565b6000602082840312156138b257600080fd5b5035919050565b6001600160a01b038116811461115457600080fd5b8035610bee816138b9565b600060e082840312156138eb57600080fd5b50919050565b600080600080600060a0868803121561390957600080fd5b8535613914816138b9565b94506020860135613924816138b9565b93506040860135613934816138b9565b92506060860135915060808601356001600160401b0381111561395657600080fd5b613962888289016138d9565b9150509295509295909350565b60008083601f84011261398157600080fd5b5081356001600160401b0381111561399857600080fd5b6020830191508360208260051b85010111156139b357600080fd5b9250929050565b6000806000806000608086880312156139d257600080fd5b85356139dd816138b9565b9450602086013593506040860135925060608601356001600160401b03811115613a0657600080fd5b613a128882890161396f565b969995985093965092949392505050565b6001600160a01b03169052565b634e487b7160e01b600052602160045260246000fd5b60068110613a5657613a56613a30565b9052565b6001600160a01b038616815260208101859052604081018490526060810183905260a08101612b6e6080830184613a46565b6001600160a01b0391909116815260200190565b6020808252825182820181905260009190848201906040850190845b81811015613ad857835183529284019291840191600101613abc565b50909695505050505050565b60008083601f840112613af657600080fd5b5081356001600160401b03811115613b0d57600080fd5b6020830191508360208285010111156139b357600080fd5b60008060208385031215613b3857600080fd5b82356001600160401b03811115613b4e57600080fd5b613b5a85828601613ae4565b90969095509350505050565b60005b83811015613b81578181015183820152602001613b69565b83811115613b90576000848401525b50505050565b60008151808452613bae816020860160208601613b66565b601f01601f19169290920160200192915050565b6020815260006138996020830184613b96565b60008060408385031215613be857600080fd5b8235613bf3816138b9565b946020939093013593505050565b602081016105f58284613a46565b600081518084526020808501945080840160005b83811015613c3f57815187529582019590820190600101613c23565b509495945050505050565b600081518084526020808501945080840160005b83811015613c3f578151805188528381015160ff908116858a0152604091820151169088015260609096019590820190600101613c5e565b60018060a01b0381511682526000602080830151818501526040808401518186015260608085015181870152608085015160e06080880152613cdb60e0880182613c0f565b905060a086015187820360a08901528181518084528684019150868160051b85010187840193506000805b83811015613d6e57868303601f190185528551805184528a01518a84018a905280518a8501819052908b019083908a8601905b80831015613d595783518252928d019260019290920191908d0190613d39565b50978c0197968c019694505050600101613d06565b505060c08a015197508a810360c08c0152613d898189613c4a565b9b9a5050505050505050505050565b6001600160a01b0386811682528581166020830152841660408201526060810183905260a060808201819052600090613dd390830184613c96565b979650505050505050565b60018060a01b0381511682526020810151602083015260408101516040830152606081015160608301526000608082015160c06080850152613e2360c0850182613c0f565b905060a0830151613e3760a0860182613a46565b509392505050565b6000602080830181845280855180835260408601915060408160051b870101925083870160005b82811015613e9457603f19888603018452613e82858351613dde565b94509285019290850190600101613e66565b5092979650505050505050565b600080600060408486031215613eb657600080fd5b8335925060208401356001600160401b03811115613ed357600080fd5b613edf8682870161396f565b9497909650939450505050565b634e487b7160e01b600052604160045260246000fd5b60405160c081016001600160401b0381118282101715613f2457613f24613eec565b60405290565b604051601f8201601f191681016001600160401b0381118282101715613f5257613f52613eec565b604052919050565b60006001600160401b03821115613f7357613f73613eec565b50601f01601f191660200190565b600082601f830112613f9257600080fd5b8135613fa5613fa082613f5a565b613f2a565b818152846020838601011115613fba57600080fd5b816020850160208301376000918101602001919091529392505050565b60008060408385031215613fea57600080fd5b8235915060208301356001600160401b0381111561400757600080fd5b61401385828601613f81565b9150509250929050565b60006001600160401b0382111561403657614036613eec565b5060051b60200190565b6000806040838503121561405357600080fd5b823591506020808401356001600160401b0381111561407157600080fd5b8401601f8101861361408257600080fd5b8035614090613fa08261401d565b81815260059190911b820183019083810190888311156140af57600080fd5b928401925b828410156140cd578335825292840192908401906140b4565b80955050505050509250929050565b600080604083850312156140ef57600080fd5b823591506020830135614101816138b9565b809150509250929050565b60008060008060008060008060a0898b03121561412857600080fd5b8835614133816138b9565b97506020890135614143816138b9565b965060408901356001600160401b038082111561415f57600080fd5b61416b8c838d0161396f565b909850965060608b013591508082111561418457600080fd5b6141908c838d0161396f565b909650945060808b01359150808211156141a957600080fd5b506141b68b828c01613ae4565b999c989b5096995094979396929594505050565b6000806000604084860312156141df57600080fd5b83356001600160401b038111156141f557600080fd5b61420186828701613ae4565b909790965060209590950135949350505050565b6000602080830181845280855180835260408601915060408160051b870101925083870160005b82811015613e9457603f19888603018452614258858351613b96565b9450928501929085019060010161423c565b600081518084526020808501808196508360051b8101915082860160005b858110156142cf578284038952815180516001600160a01b0316855285015160408686018190526142bb81870183613b96565b9a87019a9550505090840190600101614288565b5091979650505050505050565b60048110613a5657613a56613a30565b600081518084526020808501808196508360051b8101915082860160005b858110156142cf578284038952815160a0815186528682015161432f888801826142dc565b50604082810151908701526060808301519087015260809182015191860181905261435c81870183613b96565b9a87019a955050509084019060010161430a565b60208152600060018060a01b038084511660208401528060208501511660408401525060408301516143a56060840182613a23565b5060608301516080830152608083015160e060a08401526143ca61010084018261426a565b905060a0840151601f19808584030160c08601526143e883836142ec565b925060c08601519150808584030160e0860152506144068282613c96565b95945050505050565b6000806040838503121561442257600080fd5b50508035926020909101359150565b60006020828403121561444357600080fd5b81356001600160401b0381111561445957600080fd5b614465848285016138d9565b949350505050565b60008060008060008060a0878903121561448657600080fd5b8635614491816138b9565b955060208701356144a1816138b9565b9450604087013593506060870135925060808701356001600160401b038111156144ca57600080fd5b6144d689828a01613ae4565b979a9699509497509295939492505050565b6020815260006138996020830184613dde565b634e487b7160e01b600052603260045260246000fd5b6020808252600a9082015269151a5b595b1bd8dad95960b21b604082015260600190565b6001600160a01b03929092168252602082015260400190565b60006020828403121561456057600080fd5b8135613899816138b9565b80546001600160a01b0319166001600160a01b0392909216919091179055565b6000808335601e198436030181126145a257600080fd5b8301803591506001600160401b038211156145bc57600080fd5b6020019150600581901b36038213156139b357600080fd5b60008235603e198336030181126145ea57600080fd5b9190910192915050565b634e487b7160e01b600052601160045260246000fd5b6000816000190483118215151615614624576146246145f4565b500290565b600181811c9082168061463d57607f821691505b6020821081036138eb57634e487b7160e01b600052602260045260246000fd5b5b81811015612a10576000815560010161465e565b61467c8154614629565b8015612a1057601f81116001811461469657505060009055565b8260005260206000206146b4601f840160051c82016001830161465d565b506020600090812081855555505050565b6000808335601e198436030181126146dc57600080fd5b8301803591506001600160401b038211156146f657600080fd5b6020019150368190038213156139b357600080fd5b601f82111561199257806000526020600020601f840160051c810160208510156147325750805b6107c9601f850160051c83018261465d565b813561474f816138b9565b614759818361456b565b506001808201602061476d818601866146c5565b6001600160401b0381111561478457614784613eec565b614798816147928654614629565b8661470b565b6000601f8211600181146147cc57600083156147b45750838201355b600019600385901b1c1916600184901b178655610a89565b600086815260209020601f19841690835b828110156147fa57868501358255938701939089019087016147dd565b50848210156148175760001960f88660031b161c19848701351681555b50505050841b90930190915550505050565b60008235609e198336030181126145ea57600080fd5b6004811061115457600080fd5b8135815560018082016020808501356148648161483f565b6004811061487457614874613a30565b60ff1983541660ff8216811784555050604085013560028501556060850135600385015560048401915061476d60808601866146c5565b600160401b8311156148bf576148bf613eec565b805483825580841015614963577f33333333333333333333333333333333333333333333333333333333333333336001818311811615614901576149016145f4565b6005828711821615614915576149156145f4565b600085815260208120909350878202810190828602015b8082101561495d57848255848483015584600283015584600383015561495460048301614672565b9082019061492c565b50505050505b5060008181526020812083915b858110156109e85761498b6149858487614829565b8361484c565b6020929092019160059190910190600101614970565b6000823560de198336030181126145ea57600080fd5b80546000808355811561199257828152602081208281015b808210156107c9578282556001820191506149cf565b81358155600180820160206149fc8186018661458b565b600160401b811115614a1057614a10613eec565b835481855580821015614a445760008581528481208381019083015b80821015614a405782825590880190614a2c565b5050505b506000938452828420935b81811015614a6a578235855593850193918301918501614a4f565b5050505050505050565b600160401b831115614a8857614a88613eec565b805483825580841015614b00576001600160ff1b036001818311811615614ab157614ab16145f4565b818611811615614ac357614ac36145f4565b60008481526020812090925086821b81019084831b015b80821015614afb57838255614af08383016149b7565b600282019150614ada565b505050505b5060008181526020812083915b858110156109e857614b28614b2284876145d4565b836149e5565b6020929092019160029190910190600101614b0d565b6000808335601e19843603018112614b5557600080fd5b8301803591506001600160401b03821115614b6f57600080fd5b60200191506060810236038213156139b357600080fd5b60ff8116811461115457600080fd5b81358155600181016020830135614bab81614b86565b81546040850135614bbb81614b86565b61ff008160081b1660ff841661ffff19841617178455505050505050565b600160401b831115614bed57614bed613eec565b805483825580841015614c5f576001600160ff1b036001818311811615614c1657614c166145f4565b818611811615614c2857614c286145f4565b60008481526020812090925086821b81019084831b015b80821015614c5a578382558383830155600282019150614c3f565b505050505b5060008181526020812083915b858110156109e857614c7e8383614b95565b6060929092019160029190910190600101614c6c565b8135614c9f816138b9565b614ca9818361456b565b50600160208084013582840155604084013560028401556060840135600384015560048301614cdb608086018661458b565b600160401b811115614cef57614cef613eec565b825481845580821015614d14578360005284600020614d1282820184830161465d565b505b506000928352838320925b81811015614d3a578235845592850192918401918501614d1f565b505050505050614d4d60a083018361458b565b614d5b818360058601614a74565b5050614d6a60c0830183614b3e565b613b90818360068601614bd9565b8135614d83816138b9565b614d8d818361456b565b506001602080840135614d9f816138b9565b614dab8184860161456b565b5060026040850135614dbc816138b9565b614dc88183870161456b565b506060850135600385015560048401614de4608087018761458b565b600160401b811115614df857614df8613eec565b825481845580821015614e68576001600160ff1b03808211881615614e1f57614e1f6145f4565b808311881615614e3157614e316145f4565b50600084815286812083891b810190838a1b015b80821015614e6457828255614e5b8a8301614672565b90870190614e45565b5050505b506000928352602083209282905b82811015614ea057614e91614e8b83866145d4565b86614744565b93850193908601908701614e76565b5050505050505050614eb560a083018361458b565b614ec38183600586016148ab565b5050612a10614ed560c08401846149a1565b60068301614c94565b600060018201614ef057614ef06145f4565b5060010190565b6020808252600b908201526a27b7363c9025b2b2b832b960a91b604082015260600190565b81835260006001600160fb1b03831115614f3557600080fd5b8260051b8083602087013760009401602001938452509192915050565b60018060a01b0386168152846020820152836040820152608060608201526000613dd3608083018486614f1c565b600060208284031215614f9257600080fd5b8151613899816138b9565b600082821015614faf57614faf6145f4565b500390565b600060208284031215614fc657600080fd5b8151801515811461389957600080fd5b6000815480845260208085019450836000528060002060005b83811015613c3f57815487529582019560019182019101614fef565b600081548084526020808501808196508360051b810191506000868152838120815b86811015615099578385038a52815485526040868601819052600180840180549288018390528552878520606088019290919086905b808210156150805783548552938a01939282019290820190615063565b5050509a87019a5094506002919091019060010161502d565b509298975050505050505050565b6000815480845260208085019450836000528060002060005b83811015613c3f578154875260018083015460ff808216868b015260089190911c166040890152606090970196600290920191016150c0565b600060018060a01b0380871683526080602084015261511e6080840182885416613a23565b50600185015460a0830152600285015460c0830152600385015460e083015260e0610100830152615156610160830160048701614fd6565b607f198084830301610120850152615171826005890161500b565b915080848303016101408501525061518c81600688016150a7565b91505061519c6040830185613a23565b82606083015295945050505050565b805160068110610bee57600080fd5b600060208083850312156151cd57600080fd5b82516001600160401b03808211156151e457600080fd5b9084019060c082870312156151f857600080fd5b615200613f02565b825161520b816138b9565b808252508383015184820152604083015160408201526060830151606082015260808301518281111561523d57600080fd5b83019150601f8201871361525057600080fd5b815161525e613fa08261401d565b81815260059190911b8301850190858101908983111561527d57600080fd5b938601935b8285101561529b57845182529386019390860190615282565b6080840152506152af905060a084016151ab565b60a08201529695505050505050565b6020808252600f908201526e27b7363c9030b93134ba3930ba37b960891b604082015260600190565b602080825260189082015277139bdd08105c989a5d1c985d1a5bdb94995c5d595cdd195960421b604082015260600190565b6020808252601e908201527f6c656e677468206d757374206d61746368206f7574636f6d65536c6f74730000604082015260600190565b838152604060208201526000614406604083018486614f1c565b6001600160a01b038416815260208082018490526060604083018190528351908301819052600091848101916080850190845b818110156153b95784518352938301939183019160010161539d565b509098975050505050505050565b6000604082016040835280855480835260608501915060608160051b8601019250600087815260208120815b838110156154cb57878603605f1901855281548652600182015460ff1661541d60208801826142dc565b5060028201546040870152600382015460608701526004820160a0608088015283815461544981614629565b8060a08b01526001821660008114615468576001811461547d576154ae565b60ff19831660c08c015260e08b0193506154ae565b84885260208820885b838110156154a55781548d820160c00152600190910190602001615486565b8c0160c0019450505b5091985050506020959095019450600591909101906001016153f3565b50505050506020929092019290925292915050565b6000602082840312156154f257600080fd5b5051919050565b81835281816020850137506000828201602090810191909152601f909101601f19169091010190565b6060815260006155366060830186886154f9565b6001600160a01b03949094166020830152506040015292915050565b60609290921b6001600160601b0319168252601482015260340190565b60208082526015908201527436b9b39739b2b73232b9103737ba1039b7b63b32b960591b604082015260600190565b6000602082840312156155b057600080fd5b81516001600160401b038111156155c657600080fd5b8201601f810184136155d757600080fd5b80516155e5613fa082613f5a565b8181528560208385010111156155fa57600080fd5b614406826020830160208601613b66565b60008161561a5761561a6145f4565b506000190190565b6000808335601e1984360301811261563957600080fd5b83016020810192503590506001600160401b0381111561565857600080fd5b8060051b36038313156139b357600080fd5b6000808335601e1984360301811261568157600080fd5b83016020810192503590506001600160401b038111156156a057600080fd5b8036038313156139b357600080fd5b60008235603e198336030181126156c557600080fd5b90910192915050565b81835260006020808501808196508560051b810191508460005b878110156142cf5782840389526156ff82886156af565b6040813561570c816138b9565b6001600160a01b031686526157238288018361566a565b9250818888015261573782880184836154f9565b9b88019b9650505091850191506001016156e8565b81835260006020808501808196508560051b81019150846000805b88811015615099578385038a528235609e19893603018112615787578283fd5b88018035865260a08782013561579c8161483f565b6157a8898901826142dc565b50604082810135908801526060808301359088015260806157cb8184018461566a565b935082828a01526157df838a0185836154f9565b9d8a019d98505050938701935050600101615767565b6000823560de198336030181126156c557600080fd5b6000808335601e1984360301811261582257600080fd5b83016020810192503590506001600160401b0381111561584157600080fd5b6060810236038313156139b357600080fd5b8183526000602080850194508260005b85811015613c3f57813587528282013561587c81614b86565b60ff908116888501526040908382013561589581614b86565b16908801526060968701969190910190600101615863565b600081356158ba816138b9565b6001600160a01b031683526020828101358185015260408084013581860152606080850135908601526158f06080850185615622565b60e0608088015261590560e088018284614f1c565b91505061591560a0860186615622565b87830360a0890152808352848301600582901b840186018360005b8481101561598357868303601f1901845261594b82876156af565b8035845261595b8a820182615622565b9150898b86015261596f8a86018383614f1c565b958b01959450505090880190600101615930565b505061599260c08a018a61580b565b9750955089810360c08b01526159a9818888615853565b9a9950505050505050505050565b6001600160a01b0385811682526080602083015260009085356159d9816138b9565b1660808301526159eb602086016138ce565b6159f860a0840182613a23565b50615a05604086016138ce565b615a1260c0840182613a23565b50606085013560e0830152615a2a6080860186615622565b60e0610100850152615a41610160850182846156ce565b915050615a5160a0870187615622565b607f198086850301610120870152615a6a84838561574c565b9350615a7960c08a018a6157f5565b925080868503016101408701525050615a9282826158ad565b60408501969096525050506060015292915050565b6020808252602e908201527f496e697469616c697a61626c653a20636f6e747261637420697320616c72656160408201526d191e481a5b9a5d1a585b1a5e995960921b606082015260800190565b600060408236031215615b0757600080fd5b604080519081016001600160401b038082118383101715615b2a57615b2a613eec565b8160405284359150615b3b826138b9565b90825260208401359080821115615b5157600080fd5b50615b5e36828601613f81565b60208301525092915050565b600082516145ea818460208701613b66565b60006020808385031215615b8f57600080fd5b82516001600160401b03811115615ba557600080fd5b8301601f81018513615bb657600080fd5b8051615bc4613fa08261401d565b81815260059190911b82018301908381019087831115615be357600080fd5b928401925b82841015613dd357835182529284019290840190615be8565b60008219821115615c1457615c146145f4565b50019056fe71bd81ebe1d98a2944767394e76a9aff18724b2cf04e1db71254f804544b35c716ceee8289685dd2a02b9c8ae81d2df373176ce53519e6284e2a2950d6546ffafc8737ab85eb45125971625a9ebdb75cc78e01d5c1fa80c4c6e5203f47bc4faba2646970667358221220b2c7730c9cefd44fd7dbf9a408ce4683838781eeb70c8c5d0acb08d4fc23fe5264736f6c634300080d0033",
  "linkReferences": {
    "contracts/solvers/SolverLib.sol": {
      "SolverLib": [
        {
          "length": 20,
          "start": 2183
        },
        {
          "length": 20,
          "start": 3791
        },
        {
          "length": 20,
          "start": 4258
        },
        {
          "length": 20,
          "start": 5016
        },
        {
          "length": 20,
          "start": 5304
        },
        {
          "length": 20,
          "start": 6731
        },
        {
          "length": 20,
          "start": 7363
        },
        {
          "length": 20,
          "start": 7570
        },
        {
          "length": 20,
          "start": 7754
        },
        {
          "length": 20,
          "start": 11280
        },
        {
          "length": 20,
          "start": 13756
        }
      ]
    }
  },
  "deployedLinkReferences": {
    "contracts/solvers/SolverLib.sol": {
      "SolverLib": [
        {
          "length": 20,
          "start": 1852
        },
        {
          "length": 20,
          "start": 3460
        },
        {
          "length": 20,
          "start": 3927
        },
        {
          "length": 20,
          "start": 4685
        },
        {
          "length": 20,
          "start": 4973
        },
        {
          "length": 20,
          "start": 6400
        },
        {
          "length": 20,
          "start": 7032
        },
        {
          "length": 20,
          "start": 7239
        },
        {
          "length": 20,
          "start": 7423
        },
        {
          "length": 20,
          "start": 10949
        },
        {
          "length": 20,
          "start": 13425
        }
      ]
    }
  }
}