{
  "_format": "hh-sol-artifact-1",
  "contractName": "WriterSolverV1",
  "sourceName": "contracts/solvers/WriterSolverV1.sol",
  "abi": [
    {
      "anonymous": false,
      "inputs": [
        {
          "indexed": false,
          "internalType": "bytes32",
          "name": "conditionId",
          "type": "bytes32"
        }
      ],
      "name": "ChangedStatus",
      "type": "event"
    },
    {
      "anonymous": false,
      "inputs": [
        {
          "indexed": false,
          "internalType": "bytes32",
          "name": "conditionId",
          "type": "bytes32"
        }
      ],
      "name": "DeliveredNullArbitration",
      "type": "event"
    },
    {
      "anonymous": false,
      "inputs": [
        {
          "indexed": false,
          "internalType": "address",
          "name": "child",
          "type": "address"
        }
      ],
      "name": "DeployedChild",
      "type": "event"
    },
    {
      "anonymous": false,
      "inputs": [],
      "name": "IngestedData",
      "type": "event"
    },
    {
      "anonymous": false,
      "inputs": [
        {
          "indexed": false,
          "internalType": "uint8",
          "name": "version",
          "type": "uint8"
        }
      ],
      "name": "Initialized",
      "type": "event"
    },
    {
      "anonymous": false,
      "inputs": [
        {
          "indexed": false,
          "internalType": "address",
          "name": "solver",
          "type": "address"
        },
        {
          "indexed": false,
          "internalType": "uint256",
          "name": "solveIndex",
          "type": "uint256"
        }
      ],
      "name": "PreparedSolve",
      "type": "event"
    },
    {
      "anonymous": false,
      "inputs": [
        {
          "indexed": false,
          "internalType": "string",
          "name": "cid",
          "type": "string"
        },
        {
          "indexed": false,
          "internalType": "address",
          "name": "submitter",
          "type": "address"
        },
        {
          "indexed": false,
          "internalType": "bytes32",
          "name": "conditionId",
          "type": "bytes32"
        }
      ],
      "name": "SubmittedWork",
      "type": "event"
    },
    {
      "inputs": [],
      "name": "ARBITRATOR_ROLE",
      "outputs": [
        {
          "internalType": "bytes32",
          "name": "",
          "type": "bytes32"
        }
      ],
      "stateMutability": "view",
      "type": "function"
    },
    {
      "inputs": [],
      "name": "KEEPER_ROLE",
      "outputs": [
        {
          "internalType": "bytes32",
          "name": "",
          "type": "bytes32"
        }
      ],
      "stateMutability": "view",
      "type": "function"
    },
    {
      "inputs": [],
      "name": "SOLVER_ROLE",
      "outputs": [
        {
          "internalType": "bytes32",
          "name": "",
          "type": "bytes32"
        }
      ],
      "stateMutability": "view",
      "type": "function"
    },
    {
      "inputs": [
        {
          "internalType": "bytes32",
          "name": "_slot",
          "type": "bytes32"
        },
        {
          "internalType": "bytes",
          "name": "_data",
          "type": "bytes"
        }
      ],
      "name": "addData",
      "outputs": [],
      "stateMutability": "nonpayable",
      "type": "function"
    },
    {
      "inputs": [
        {
          "internalType": "uint256",
          "name": "_index",
          "type": "uint256"
        }
      ],
      "name": "addressFromChainIndex",
      "outputs": [
        {
          "internalType": "address",
          "name": "_address",
          "type": "address"
        }
      ],
      "stateMutability": "view",
      "type": "function"
    },
    {
      "inputs": [
        {
          "internalType": "uint256",
          "name": "_index",
          "type": "uint256"
        }
      ],
      "name": "allocationsValid",
      "outputs": [
        {
          "internalType": "bool",
          "name": "",
          "type": "bool"
        }
      ],
      "stateMutability": "view",
      "type": "function"
    },
    {
      "inputs": [
        {
          "internalType": "uint256",
          "name": "_index",
          "type": "uint256"
        },
        {
          "internalType": "uint256[]",
          "name": "payouts",
          "type": "uint256[]"
        }
      ],
      "name": "arbitrate",
      "outputs": [],
      "stateMutability": "nonpayable",
      "type": "function"
    },
    {
      "inputs": [
        {
          "internalType": "uint256",
          "name": "_index",
          "type": "uint256"
        }
      ],
      "name": "arbitrateNull",
      "outputs": [],
      "stateMutability": "nonpayable",
      "type": "function"
    },
    {
      "inputs": [
        {
          "internalType": "uint256",
          "name": "_index",
          "type": "uint256"
        }
      ],
      "name": "arbitrationRequested",
      "outputs": [],
      "stateMutability": "nonpayable",
      "type": "function"
    },
    {
      "inputs": [],
      "name": "arbitrator",
      "outputs": [
        {
          "internalType": "address",
          "name": "",
          "type": "address"
        }
      ],
      "stateMutability": "view",
      "type": "function"
    },
    {
      "inputs": [],
      "name": "chainChild",
      "outputs": [
        {
          "internalType": "address",
          "name": "",
          "type": "address"
        }
      ],
      "stateMutability": "view",
      "type": "function"
    },
    {
      "inputs": [],
      "name": "chainIndex",
      "outputs": [
        {
          "internalType": "uint256",
          "name": "",
          "type": "uint256"
        }
      ],
      "stateMutability": "view",
      "type": "function"
    },
    {
      "inputs": [],
      "name": "chainParent",
      "outputs": [
        {
          "internalType": "address",
          "name": "",
          "type": "address"
        }
      ],
      "stateMutability": "view",
      "type": "function"
    },
    {
      "inputs": [],
      "name": "collateralBalance",
      "outputs": [
        {
          "internalType": "uint256",
          "name": "balance",
          "type": "uint256"
        }
      ],
      "stateMutability": "view",
      "type": "function"
    },
    {
      "inputs": [
        {
          "internalType": "uint256",
          "name": "index",
          "type": "uint256"
        }
      ],
      "name": "condition",
      "outputs": [
        {
          "components": [
            {
              "internalType": "contract IERC20",
              "name": "collateralToken",
              "type": "address"
            },
            {
              "internalType": "bytes32",
              "name": "questionId",
              "type": "bytes32"
            },
            {
              "internalType": "bytes32",
              "name": "parentCollectionId",
              "type": "bytes32"
            },
            {
              "internalType": "bytes32",
              "name": "conditionId",
              "type": "bytes32"
            },
            {
              "internalType": "uint256[]",
              "name": "payouts",
              "type": "uint256[]"
            },
            {
              "internalType": "enum SolverLib.Status",
              "name": "status",
              "type": "uint8"
            }
          ],
          "internalType": "struct SolverLib.Condition",
          "name": "",
          "type": "tuple"
        }
      ],
      "stateMutability": "view",
      "type": "function"
    },
    {
      "inputs": [
        {
          "internalType": "uint256",
          "name": "",
          "type": "uint256"
        }
      ],
      "name": "conditions",
      "outputs": [
        {
          "internalType": "contract IERC20",
          "name": "collateralToken",
          "type": "address"
        },
        {
          "internalType": "bytes32",
          "name": "questionId",
          "type": "bytes32"
        },
        {
          "internalType": "bytes32",
          "name": "parentCollectionId",
          "type": "bytes32"
        },
        {
          "internalType": "bytes32",
          "name": "conditionId",
          "type": "bytes32"
        },
        {
          "internalType": "enum SolverLib.Status",
          "name": "status",
          "type": "uint8"
        }
      ],
      "stateMutability": "view",
      "type": "function"
    },
    {
      "inputs": [],
      "name": "config",
      "outputs": [
        {
          "internalType": "contract Solver",
          "name": "implementation",
          "type": "address"
        },
        {
          "internalType": "address",
          "name": "keeper",
          "type": "address"
        },
        {
          "internalType": "address",
          "name": "arbitrator",
          "type": "address"
        },
        {
          "internalType": "uint256",
          "name": "timelockSeconds",
          "type": "uint256"
        },
        {
          "components": [
            {
              "internalType": "contract IERC20",
              "name": "collateralToken",
              "type": "address"
            },
            {
              "internalType": "uint256",
              "name": "outcomeSlots",
              "type": "uint256"
            },
            {
              "internalType": "uint256",
              "name": "parentCollectionIndexSet",
              "type": "uint256"
            },
            {
              "internalType": "bytes32",
              "name": "amountSlot",
              "type": "bytes32"
            },
            {
              "internalType": "uint256[]",
              "name": "partition",
              "type": "uint256[]"
            },
            {
              "components": [
                {
                  "internalType": "bytes32",
                  "name": "recipientAddressSlot",
                  "type": "bytes32"
                },
                {
                  "internalType": "bytes32[]",
                  "name": "recipientAmountSlots",
                  "type": "bytes32[]"
                }
              ],
              "internalType": "struct SolverLib.Allocation[]",
              "name": "allocations",
              "type": "tuple[]"
            },
            {
              "components": [
                {
                  "internalType": "bytes32",
                  "name": "digest",
                  "type": "bytes32"
                },
                {
                  "internalType": "uint8",
                  "name": "hashFunction",
                  "type": "uint8"
                },
                {
                  "internalType": "uint8",
                  "name": "size",
                  "type": "uint8"
                }
              ],
              "internalType": "struct SolverLib.Multihash[]",
              "name": "outcomeURIs",
              "type": "tuple[]"
            }
          ],
          "internalType": "struct SolverLib.ConditionBase",
          "name": "conditionBase",
          "type": "tuple"
        }
      ],
      "stateMutability": "view",
      "type": "function"
    },
    {
      "inputs": [
        {
          "internalType": "uint256",
          "name": "_index",
          "type": "uint256"
        }
      ],
      "name": "confirmPayouts",
      "outputs": [],
      "stateMutability": "nonpayable",
      "type": "function"
    },
    {
      "inputs": [
        {
          "components": [
            {
              "internalType": "contract Solver",
              "name": "implementation",
              "type": "address"
            },
            {
              "internalType": "address",
              "name": "keeper",
              "type": "address"
            },
            {
              "internalType": "address",
              "name": "arbitrator",
              "type": "address"
            },
            {
              "internalType": "uint256",
              "name": "timelockSeconds",
              "type": "uint256"
            },
            {
              "components": [
                {
                  "internalType": "address",
                  "name": "module",
                  "type": "address"
                },
                {
                  "internalType": "bytes",
                  "name": "data",
                  "type": "bytes"
                }
              ],
              "internalType": "struct SolverLib.ModuleLoader[]",
              "name": "moduleLoaders",
              "type": "tuple[]"
            },
            {
              "components": [
                {
                  "internalType": "uint256",
                  "name": "executions",
                  "type": "uint256"
                },
                {
                  "internalType": "enum SolverLib.IngestType",
                  "name": "ingestType",
                  "type": "uint8"
                },
                {
                  "internalType": "bytes32",
                  "name": "slot",
                  "type": "bytes32"
                },
                {
                  "internalType": "uint256",
                  "name": "solverIndex",
                  "type": "uint256"
                },
                {
                  "internalType": "bytes",
                  "name": "data",
                  "type": "bytes"
                }
              ],
              "internalType": "struct SolverLib.Ingest[]",
              "name": "ingests",
              "type": "tuple[]"
            },
            {
              "components": [
                {
                  "internalType": "contract IERC20",
                  "name": "collateralToken",
                  "type": "address"
                },
                {
                  "internalType": "uint256",
                  "name": "outcomeSlots",
                  "type": "uint256"
                },
                {
                  "internalType": "uint256",
                  "name": "parentCollectionIndexSet",
                  "type": "uint256"
                },
                {
                  "internalType": "bytes32",
                  "name": "amountSlot",
                  "type": "bytes32"
                },
                {
                  "internalType": "uint256[]",
                  "name": "partition",
                  "type": "uint256[]"
                },
                {
                  "components": [
                    {
                      "internalType": "bytes32",
                      "name": "recipientAddressSlot",
                      "type": "bytes32"
                    },
                    {
                      "internalType": "bytes32[]",
                      "name": "recipientAmountSlots",
                      "type": "bytes32[]"
                    }
                  ],
                  "internalType": "struct SolverLib.Allocation[]",
                  "name": "allocations",
                  "type": "tuple[]"
                },
                {
                  "components": [
                    {
                      "internalType": "bytes32",
                      "name": "digest",
                      "type": "bytes32"
                    },
                    {
                      "internalType": "uint8",
                      "name": "hashFunction",
                      "type": "uint8"
                    },
                    {
                      "internalType": "uint8",
                      "name": "size",
                      "type": "uint8"
                    }
                  ],
                  "internalType": "struct SolverLib.Multihash[]",
                  "name": "outcomeURIs",
                  "type": "tuple[]"
                }
              ],
              "internalType": "struct SolverLib.ConditionBase",
              "name": "conditionBase",
              "type": "tuple"
            }
          ],
          "internalType": "struct SolverLib.Config",
          "name": "_config",
          "type": "tuple"
        }
      ],
      "name": "deployChild",
      "outputs": [
        {
          "internalType": "address",
          "name": "",
          "type": "address"
        }
      ],
      "stateMutability": "nonpayable",
      "type": "function"
    },
    {
      "inputs": [
        {
          "internalType": "uint256",
          "name": "_index",
          "type": "uint256"
        }
      ],
      "name": "executeSolve",
      "outputs": [],
      "stateMutability": "nonpayable",
      "type": "function"
    },
    {
      "inputs": [
        {
          "internalType": "bytes32",
          "name": "_slot",
          "type": "bytes32"
        }
      ],
      "name": "getAllData",
      "outputs": [
        {
          "internalType": "bytes[]",
          "name": "data",
          "type": "bytes[]"
        }
      ],
      "stateMutability": "view",
      "type": "function"
    },
    {
      "inputs": [
        {
          "internalType": "bytes32",
          "name": "_slot",
          "type": "bytes32"
        }
      ],
      "name": "getCallbackOutput",
      "outputs": [
        {
          "internalType": "bytes",
          "name": "data",
          "type": "bytes"
        }
      ],
      "stateMutability": "view",
      "type": "function"
    },
    {
      "inputs": [],
      "name": "getConditions",
      "outputs": [
        {
          "components": [
            {
              "internalType": "contract IERC20",
              "name": "collateralToken",
              "type": "address"
            },
            {
              "internalType": "bytes32",
              "name": "questionId",
              "type": "bytes32"
            },
            {
              "internalType": "bytes32",
              "name": "parentCollectionId",
              "type": "bytes32"
            },
            {
              "internalType": "bytes32",
              "name": "conditionId",
              "type": "bytes32"
            },
            {
              "internalType": "uint256[]",
              "name": "payouts",
              "type": "uint256[]"
            },
            {
              "internalType": "enum SolverLib.Status",
              "name": "status",
              "type": "uint8"
            }
          ],
          "internalType": "struct SolverLib.Condition[]",
          "name": "",
          "type": "tuple[]"
        }
      ],
      "stateMutability": "view",
      "type": "function"
    },
    {
      "inputs": [],
      "name": "getConfig",
      "outputs": [
        {
          "components": [
            {
              "internalType": "contract Solver",
              "name": "implementation",
              "type": "address"
            },
            {
              "internalType": "address",
              "name": "keeper",
              "type": "address"
            },
            {
              "internalType": "address",
              "name": "arbitrator",
              "type": "address"
            },
            {
              "internalType": "uint256",
              "name": "timelockSeconds",
              "type": "uint256"
            },
            {
              "components": [
                {
                  "internalType": "address",
                  "name": "module",
                  "type": "address"
                },
                {
                  "internalType": "bytes",
                  "name": "data",
                  "type": "bytes"
                }
              ],
              "internalType": "struct SolverLib.ModuleLoader[]",
              "name": "moduleLoaders",
              "type": "tuple[]"
            },
            {
              "components": [
                {
                  "internalType": "uint256",
                  "name": "executions",
                  "type": "uint256"
                },
                {
                  "internalType": "enum SolverLib.IngestType",
                  "name": "ingestType",
                  "type": "uint8"
                },
                {
                  "internalType": "bytes32",
                  "name": "slot",
                  "type": "bytes32"
                },
                {
                  "internalType": "uint256",
                  "name": "solverIndex",
                  "type": "uint256"
                },
                {
                  "internalType": "bytes",
                  "name": "data",
                  "type": "bytes"
                }
              ],
              "internalType": "struct SolverLib.Ingest[]",
              "name": "ingests",
              "type": "tuple[]"
            },
            {
              "components": [
                {
                  "internalType": "contract IERC20",
                  "name": "collateralToken",
                  "type": "address"
                },
                {
                  "internalType": "uint256",
                  "name": "outcomeSlots",
                  "type": "uint256"
                },
                {
                  "internalType": "uint256",
                  "name": "parentCollectionIndexSet",
                  "type": "uint256"
                },
                {
                  "internalType": "bytes32",
                  "name": "amountSlot",
                  "type": "bytes32"
                },
                {
                  "internalType": "uint256[]",
                  "name": "partition",
                  "type": "uint256[]"
                },
                {
                  "components": [
                    {
                      "internalType": "bytes32",
                      "name": "recipientAddressSlot",
                      "type": "bytes32"
                    },
                    {
                      "internalType": "bytes32[]",
                      "name": "recipientAmountSlots",
                      "type": "bytes32[]"
                    }
                  ],
                  "internalType": "struct SolverLib.Allocation[]",
                  "name": "allocations",
                  "type": "tuple[]"
                },
                {
                  "components": [
                    {
                      "internalType": "bytes32",
                      "name": "digest",
                      "type": "bytes32"
                    },
                    {
                      "internalType": "uint8",
                      "name": "hashFunction",
                      "type": "uint8"
                    },
                    {
                      "internalType": "uint8",
                      "name": "size",
                      "type": "uint8"
                    }
                  ],
                  "internalType": "struct SolverLib.Multihash[]",
                  "name": "outcomeURIs",
                  "type": "tuple[]"
                }
              ],
              "internalType": "struct SolverLib.ConditionBase",
              "name": "conditionBase",
              "type": "tuple"
            }
          ],
          "internalType": "struct SolverLib.Config",
          "name": "",
          "type": "tuple"
        }
      ],
      "stateMutability": "view",
      "type": "function"
    },
    {
      "inputs": [
        {
          "internalType": "bytes32",
          "name": "_slot",
          "type": "bytes32"
        }
      ],
      "name": "getData",
      "outputs": [
        {
          "internalType": "bytes",
          "name": "data",
          "type": "bytes"
        }
      ],
      "stateMutability": "view",
      "type": "function"
    },
    {
      "inputs": [
        {
          "internalType": "bytes32",
          "name": "key",
          "type": "bytes32"
        }
      ],
      "name": "getState",
      "outputs": [
        {
          "internalType": "bytes",
          "name": "data",
          "type": "bytes"
        }
      ],
      "stateMutability": "view",
      "type": "function"
    },
    {
      "inputs": [
        {
          "internalType": "uint256",
          "name": "conditionIndex",
          "type": "uint256"
        }
      ],
      "name": "getStatus",
      "outputs": [
        {
          "internalType": "enum SolverLib.Status",
          "name": "status",
          "type": "uint8"
        }
      ],
      "stateMutability": "view",
      "type": "function"
    },
    {
      "inputs": [
        {
          "internalType": "bytes32",
          "name": "_slot",
          "type": "bytes32"
        }
      ],
      "name": "handleCallback",
      "outputs": [],
      "stateMutability": "nonpayable",
      "type": "function"
    },
    {
      "inputs": [
        {
          "internalType": "bytes32",
          "name": "role",
          "type": "bytes32"
        },
        {
          "internalType": "address",
          "name": "account",
          "type": "address"
        }
      ],
      "name": "hasRole",
      "outputs": [
        {
          "internalType": "bool",
          "name": "",
          "type": "bool"
        }
      ],
      "stateMutability": "view",
      "type": "function"
    },
    {
      "inputs": [],
      "name": "ingestsValid",
      "outputs": [
        {
          "internalType": "bool",
          "name": "",
          "type": "bool"
        }
      ],
      "stateMutability": "view",
      "type": "function"
    },
    {
      "inputs": [
        {
          "internalType": "address",
          "name": "_deployer",
          "type": "address"
        },
        {
          "internalType": "address",
          "name": "_ctfAddress",
          "type": "address"
        },
        {
          "internalType": "address",
          "name": "_chainParent",
          "type": "address"
        },
        {
          "internalType": "uint256",
          "name": "_chainIndex",
          "type": "uint256"
        },
        {
          "components": [
            {
              "internalType": "contract Solver",
              "name": "implementation",
              "type": "address"
            },
            {
              "internalType": "address",
              "name": "keeper",
              "type": "address"
            },
            {
              "internalType": "address",
              "name": "arbitrator",
              "type": "address"
            },
            {
              "internalType": "uint256",
              "name": "timelockSeconds",
              "type": "uint256"
            },
            {
              "components": [
                {
                  "internalType": "address",
                  "name": "module",
                  "type": "address"
                },
                {
                  "internalType": "bytes",
                  "name": "data",
                  "type": "bytes"
                }
              ],
              "internalType": "struct SolverLib.ModuleLoader[]",
              "name": "moduleLoaders",
              "type": "tuple[]"
            },
            {
              "components": [
                {
                  "internalType": "uint256",
                  "name": "executions",
                  "type": "uint256"
                },
                {
                  "internalType": "enum SolverLib.IngestType",
                  "name": "ingestType",
                  "type": "uint8"
                },
                {
                  "internalType": "bytes32",
                  "name": "slot",
                  "type": "bytes32"
                },
                {
                  "internalType": "uint256",
                  "name": "solverIndex",
                  "type": "uint256"
                },
                {
                  "internalType": "bytes",
                  "name": "data",
                  "type": "bytes"
                }
              ],
              "internalType": "struct SolverLib.Ingest[]",
              "name": "ingests",
              "type": "tuple[]"
            },
            {
              "components": [
                {
                  "internalType": "contract IERC20",
                  "name": "collateralToken",
                  "type": "address"
                },
                {
                  "internalType": "uint256",
                  "name": "outcomeSlots",
                  "type": "uint256"
                },
                {
                  "internalType": "uint256",
                  "name": "parentCollectionIndexSet",
                  "type": "uint256"
                },
                {
                  "internalType": "bytes32",
                  "name": "amountSlot",
                  "type": "bytes32"
                },
                {
                  "internalType": "uint256[]",
                  "name": "partition",
                  "type": "uint256[]"
                },
                {
                  "components": [
                    {
                      "internalType": "bytes32",
                      "name": "recipientAddressSlot",
                      "type": "bytes32"
                    },
                    {
                      "internalType": "bytes32[]",
                      "name": "recipientAmountSlots",
                      "type": "bytes32[]"
                    }
                  ],
                  "internalType": "struct SolverLib.Allocation[]",
                  "name": "allocations",
                  "type": "tuple[]"
                },
                {
                  "components": [
                    {
                      "internalType": "bytes32",
                      "name": "digest",
                      "type": "bytes32"
                    },
                    {
                      "internalType": "uint8",
                      "name": "hashFunction",
                      "type": "uint8"
                    },
                    {
                      "internalType": "uint8",
                      "name": "size",
                      "type": "uint8"
                    }
                  ],
                  "internalType": "struct SolverLib.Multihash[]",
                  "name": "outcomeURIs",
                  "type": "tuple[]"
                }
              ],
              "internalType": "struct SolverLib.ConditionBase",
              "name": "conditionBase",
              "type": "tuple"
            }
          ],
          "internalType": "struct SolverLib.Config",
          "name": "_solverConfig",
          "type": "tuple"
        }
      ],
      "name": "init",
      "outputs": [],
      "stateMutability": "nonpayable",
      "type": "function"
    },
    {
      "inputs": [
        {
          "internalType": "address",
          "name": "account",
          "type": "address"
        },
        {
          "internalType": "uint256",
          "name": "conditionIndex",
          "type": "uint256"
        }
      ],
      "name": "isRecipient",
      "outputs": [
        {
          "internalType": "bool",
          "name": "",
          "type": "bool"
        }
      ],
      "stateMutability": "view",
      "type": "function"
    },
    {
      "inputs": [],
      "name": "keeper",
      "outputs": [
        {
          "internalType": "address",
          "name": "",
          "type": "address"
        }
      ],
      "stateMutability": "view",
      "type": "function"
    },
    {
      "inputs": [
        {
          "internalType": "bytes",
          "name": "data",
          "type": "bytes"
        }
      ],
      "name": "load",
      "outputs": [],
      "stateMutability": "nonpayable",
      "type": "function"
    },
    {
      "inputs": [
        {
          "internalType": "address",
          "name": "operator",
          "type": "address"
        },
        {
          "internalType": "address",
          "name": "from",
          "type": "address"
        },
        {
          "internalType": "uint256[]",
          "name": "ids",
          "type": "uint256[]"
        },
        {
          "internalType": "uint256[]",
          "name": "values",
          "type": "uint256[]"
        },
        {
          "internalType": "bytes",
          "name": "data",
          "type": "bytes"
        }
      ],
      "name": "onERC1155BatchReceived",
      "outputs": [
        {
          "internalType": "bytes4",
          "name": "",
          "type": "bytes4"
        }
      ],
      "stateMutability": "nonpayable",
      "type": "function"
    },
    {
      "inputs": [
        {
          "internalType": "address",
          "name": "operator",
          "type": "address"
        },
        {
          "internalType": "address",
          "name": "from",
          "type": "address"
        },
        {
          "internalType": "uint256",
          "name": "id",
          "type": "uint256"
        },
        {
          "internalType": "uint256",
          "name": "value",
          "type": "uint256"
        },
        {
          "internalType": "bytes",
          "name": "data",
          "type": "bytes"
        }
      ],
      "name": "onERC1155Received",
      "outputs": [
        {
          "internalType": "bytes4",
          "name": "",
          "type": "bytes4"
        }
      ],
      "stateMutability": "nonpayable",
      "type": "function"
    },
    {
      "inputs": [
        {
          "internalType": "uint256",
          "name": "_index",
          "type": "uint256"
        }
      ],
      "name": "prepareSolve",
      "outputs": [],
      "stateMutability": "nonpayable",
      "type": "function"
    },
    {
      "inputs": [
        {
          "internalType": "uint256",
          "name": "_index",
          "type": "uint256"
        },
        {
          "internalType": "uint256[]",
          "name": "_payouts",
          "type": "uint256[]"
        }
      ],
      "name": "proposePayouts",
      "outputs": [],
      "stateMutability": "nonpayable",
      "type": "function"
    },
    {
      "inputs": [
        {
          "internalType": "contract IERC20",
          "name": "_collateralToken",
          "type": "address"
        },
        {
          "internalType": "bytes32",
          "name": "_parentCollectionId",
          "type": "bytes32"
        },
        {
          "internalType": "bytes32",
          "name": "_conditionId",
          "type": "bytes32"
        },
        {
          "internalType": "uint256[]",
          "name": "_indexSets",
          "type": "uint256[]"
        }
      ],
      "name": "redeemPosition",
      "outputs": [],
      "stateMutability": "nonpayable",
      "type": "function"
    },
    {
      "inputs": [
        {
          "internalType": "bytes32",
          "name": "_slot",
          "type": "bytes32"
        },
        {
          "internalType": "uint256",
          "name": "_chainIndex",
          "type": "uint256"
        }
      ],
      "name": "registerOutgoingCallback",
      "outputs": [],
      "stateMutability": "nonpayable",
      "type": "function"
    },
    {
      "inputs": [],
      "name": "roles",
      "outputs": [
        {
          "internalType": "bytes32[]",
          "name": "requestedRoles",
          "type": "bytes32[]"
        }
      ],
      "stateMutability": "pure",
      "type": "function"
    },
    {
      "inputs": [
        {
          "internalType": "bytes32",
          "name": "key",
          "type": "bytes32"
        },
        {
          "internalType": "bytes",
          "name": "data",
          "type": "bytes"
        }
      ],
      "name": "setState",
      "outputs": [],
      "stateMutability": "nonpayable",
      "type": "function"
    },
    {
      "inputs": [
        {
          "internalType": "bytes32",
          "name": "_trackingId",
          "type": "bytes32"
        }
      ],
      "name": "setTrackingId",
      "outputs": [],
      "stateMutability": "nonpayable",
      "type": "function"
    },
    {
      "inputs": [
        {
          "internalType": "string",
          "name": "cid",
          "type": "string"
        },
        {
          "internalType": "bytes32",
          "name": "conditionId",
          "type": "bytes32"
        }
      ],
      "name": "submitWork",
      "outputs": [],
      "stateMutability": "nonpayable",
      "type": "function"
    },
    {
      "inputs": [
        {
          "internalType": "bytes4",
          "name": "interfaceId",
          "type": "bytes4"
        }
      ],
      "name": "supportsInterface",
      "outputs": [
        {
          "internalType": "bool",
          "name": "",
          "type": "bool"
        }
      ],
      "stateMutability": "view",
      "type": "function"
    },
    {
      "inputs": [
        {
          "internalType": "uint256",
          "name": "",
          "type": "uint256"
        }
      ],
      "name": "timelocks",
      "outputs": [
        {
          "internalType": "uint256",
          "name": "",
          "type": "uint256"
        }
      ],
      "stateMutability": "view",
      "type": "function"
    },
    {
      "inputs": [],
      "name": "trackingId",
      "outputs": [
        {
          "internalType": "bytes32",
          "name": "",
          "type": "bytes32"
        }
      ],
      "stateMutability": "view",
      "type": "function"
    },
    {
      "inputs": [
        {
          "internalType": "uint256",
          "name": "_index",
          "type": "uint256"
        },
        {
          "internalType": "uint256",
          "name": "_date",
          "type": "uint256"
        }
      ],
      "name": "updateTimelock",
      "outputs": [],
      "stateMutability": "nonpayable",
      "type": "function"
    },
    {
      "inputs": [],
      "name": "writer",
      "outputs": [
        {
          "internalType": "address",
          "name": "",
          "type": "address"
        }
      ],
      "stateMutability": "view",
      "type": "function"
    }
  ],
  "bytecode": "0x60806040523480156200001157600080fd5b506200001c62000022565b6200013b565b6200002e60ff62000031565b50565b60008054610100900460ff16156200009a578160ff1660011480156200006a57506200006830620000de60201b62002e2e1760201c565b155b620000925760405162461bcd60e51b81526004016200008990620000ed565b60405180910390fd5b506000919050565b60005460ff808416911610620000c45760405162461bcd60e51b81526004016200008990620000ed565b506000805460ff191660ff92909216919091179055600190565b6001600160a01b03163b151590565b6020808252602e908201527f496e697469616c697a61626c653a20636f6e747261637420697320616c72656160408201526d191e481a5b9a5d1a585b1a5e995960921b606082015260800190565b615eab806200014b6000396000f3fe608060405234801561001057600080fd5b506004361061023b5760003560e01c806301ffc9a71461024057806309648a9d146102685780630d06101a146102885780630d7e149f1461029d5780630d8d3975146102be5780630ebe1bbd146102d157806318782559146102e457806326c50007146102f7578063364bc15a1461031b5780633837b05e14610330578063392f5f64146103505780633cef64cc1461035f5780633f4fb5aa1461037257806344c3b60714610385578063453a2abc1461039857806348cbb2fc146103a05780634a77234e146103a95780634dab5e69146103bc5780634e46f223146103cf578063506da0b8146103e257806354f6127f146103f557806355dd978b146104085780635c48a3421461041b5780635c622a0e146104305780636cc6cde11461045057806379502c55146104615780637c1236271461047a57806380b204b71461048f57806380c2dde2146104a257806381296f6f146104b55780638602ce1b146104c857806387dfee57146104db57806391d14854146104ee57806399992506146105015780639cea0787146105095780639f707c6c1461051e578063aced166114610531578063b992db0f14610542578063bc197c8114610555578063c05bc73114610590578063c08d6f01146105a3578063c3f909d4146105c3578063c98c05b7146105d8578063de3a23c5146105e0578063df33cc51146105f3578063ea8221a914610606578063ed25d1781461060f578063f23a6e6114610622578063f24fc90314610635575b600080fd5b61025361024e366004613a7c565b610655565b60405190151581526020015b60405180910390f35b61027b610276366004613aad565b610675565b60405161025f9190613b1e565b61029b610296366004613aad565b610717565b005b6102b06102ab366004613aad565b610779565b60405190815260200161025f565b61029b6102cc366004613aad565b61079a565b61029b6102df366004613b69565b6108ec565b61029b6102f2366004613c32565b610b0c565b61030a610305366004613aad565b610bf3565b60405161025f959493929190613cd2565b6102b0600080516020615e3683398151915281565b61034361033e366004613aad565b610c41565b60405161025f9190613d04565b606060405161025f9190613d53565b61029b61036d366004613da7565b610d52565b61027b610380366004613aad565b610da0565b610253610393366004613aad565b610e37565b610343610ebc565b6102b060155481565b61029b6103b7366004613aad565b610ee1565b61029b6103ca366004613aad565b611231565b61029b6103dd366004613aad565b6113b7565b6102536103f0366004613de8565b611472565b61027b610403366004613aad565b6115b7565b601254610343906001600160a01b031681565b6102b0600080516020615e5683398151915281565b61044361043e366004613aad565b6115d7565b60405161025f9190613e14565b6005546001600160a01b0316610343565b610469611609565b60405161025f959493929190613f44565b6104826117f6565b60405161025f9190613feb565b61029b61049d36600461404d565b611909565b601154610343906001600160a01b031681565b61029b6104c3366004614098565b611a70565b61029b6104d63660046141c1565b611ae1565b61029b6104e936600461422a565b611bcd565b6102536104fc3660046142c6565b611d51565b610253611d7c565b6102b0600080516020615e1683398151915281565b61029b61052c3660046142f6565b611dfc565b6004546001600160a01b0316610343565b61029b610550366004613aad565b611e4b565b610577610563366004614318565b63bc197c8160e01b98975050505050505050565b6040516001600160e01b0319909116815260200161025f565b61029b61059e3660046143d6565b61205f565b6105b66105b1366004613aad565b612179565b60405161025f9190614421565b6105cb61225e565b60405161025f919061457c565b6102b06126ca565b61029b6105ee366004613aad565b61273c565b61029b6106013660046142f6565b612a66565b6102b060135481565b61034361061d36600461461b565b612bad565b610577610630366004614657565b612cfe565b610648610643366004613aad565b612d11565b60405161025f91906146d2565b600061066082612e3d565b8061066f575061066f82612e5e565b92915050565b6000818152601c60205260409020805460609190610692906146e5565b80601f01602080910402602001604051908101604052809291908181526020018280546106be906146e5565b801561070b5780601f106106e05761010080835404028352916020019161070b565b820191906000526020600020905b8154815290600101906020018083116106ee57829003601f168201915b50505050509050919050565b6015541561075d5760405162461bcd60e51b815260206004820152600e60248201526d151c9858dada5b99d259081cd95d60921b60448201526064015b60405180910390fd5b6002546001600160a01b0316331461077457600080fd5b601555565b6014818154811061078957600080fd5b600091825260209091200154905081565b601481815481106107ad576107ad614719565b906000526020600020015442116107d65760405162461bcd60e51b81526004016107549061472f565b6002601082815481106107eb576107eb614719565b60009182526020909120600560069092020181015460ff169081111561081357610813613ca8565b1461084f5760405162461bcd60e51b815260206004820152600c60248201526b139bdd081c1c9bdc1bdcd95960a21b6044820152606401610754565b6001546010805473__$3ec311f63f1cd166364ee887ad77eb9bd8$__926385c92867926001600160a01b03909116918590811061088e5761088e614719565b90600052602060002090600602016040518363ffffffff1660e01b81526004016108b9929190614753565b60006040518083038186803b1580156108d157600080fd5b505af41580156108e5573d6000803e3d6000fd5b5050505050565b60006108f86001612e93565b90508015610910576000805461ff0019166101001790555b6000610922604084016020850161476c565b6001600160a01b0316036109695760405162461bcd60e51b815260206004820152600e60248201526d12d9595c195c881a5b9d985b1a5960921b6044820152606401610754565b600280546001600160a01b03199081166001600160a01b03898116919091179092556000805462010000600160b01b0319163362010000021790556001805482168884161790556011805490911691861691909117905560138390558160036109d28282614f62565b90505060005b6109e560a08401846147a9565b9050811015610a495780601b6000610a0060a08701876147a9565b85818110610a1057610a10614719565b9050602002810190610a229190614a13565b60409081013582526020820192909252016000205580610a41816150c8565b9150506109d8565b50600454610a7190600080516020615e36833981519152906001600160a01b03166001612f22565b6005546001600160a01b031615610aa957600554610aa990600080516020615e16833981519152906001600160a01b03166001612f22565b610abe610ab960808401846147a9565b612f57565b8015610b04576000805461ff0019169055604051600181527f7f26b83ff96e1f2b6a682f133852f6798a09c465da95921460cefb38474024989060200160405180910390a15b505050505050565b610b24600080516020615e3683398151915233611d51565b80610b425750610b42600080516020615e5683398151915233611d51565b610b835760405162461bcd60e51b815260206004820152601260248201527127b7363c9025b2b2b832b917a9b7b63b32b960711b6044820152606401610754565b600154604051626dc0df60e21b81526001600160a01b03909116906301b7037c90610bba9088908890889088908890600401615117565b600060405180830381600087803b158015610bd457600080fd5b505af1158015610be8573d6000803e3d6000fd5b505050505050505050565b60108181548110610c0357600080fd5b6000918252602090912060069091020180546001820154600283015460038401546005909401546001600160a01b0390931694509092909160ff1685565b60006013548203610c53575030919050565b601354821015610ce2576011546001600160a01b0316610c7557506000919050565b601154604051631c1bd82f60e11b8152600481018490526001600160a01b0390911690633837b05e90602401602060405180830381865afa158015610cbe573d6000803e3d6000fd5b505050506040513d601f19601f8201168201806040525081019061066f9190615145565b601354821115610d4d576012546001600160a01b0316610d0457506000919050565b601254604051631c1bd82f60e11b8152600481018490526001600160a01b0390911690633837b05e90602401602060405180830381865afa158015610cbe573d6000803e3d6000fd5b919050565b333014610d8d5760405162461bcd60e51b81526020600482015260096024820152684f6e6c79207468697360b81b6044820152606401610754565b610d9981830183613aad565b601e555050565b6010546000828152601a602052604090205460609114610df65760405162461bcd60e51b815260206004820152601160248201527029b637ba1034b73b30b634b2103b32b91760791b6044820152606401610754565b6000828152601a602052604090208054610e1290600190615162565b81548110610e2257610e22614719565b906000526020600020018054610692906146e5565b6040516336d39c6160e11b815260048101829052601a60248201526009604482015260009073__$3ec311f63f1cd166364ee887ad77eb9bd8$__90636da738c290606401602060405180830381865af4158015610e98573d6000803e3d6000fd5b505050506040513d601f19601f8201168201806040525081019061066f9190615179565b6000610ec9601e546115b7565b806020019051810190610edc9190615145565b905090565b60105415610f5757610f01600080516020615e3683398151915233611d51565b80610f1657506011546001600160a01b031633145b610f575760405162461bcd60e51b815260206004820152601260248201527113db9b1e481ad9595c195c8bdc185c995b9d60721b6044820152606401610754565b6010548114610f985760405162461bcd60e51b815260206004820152600d60248201526c092dcecc2d8d2c840d2dcc8caf609b1b6044820152606401610754565b60175415610fd75760405162461bcd60e51b815260206004820152600c60248201526b6f7574676f696e672063627360a01b6044820152606401610754565b601654156110165760405162461bcd60e51b815260206004820152600c60248201526b696e636f6d696e672063627360a01b6044820152606401610754565b6001546011546010805460405163699e0add60e01b8152919373__$3ec311f63f1cd166364ee887ad77eb9bd8$__9363699e0add93611068936001600160a01b039384169360099316916004016152be565b600060405180830381865af4158015611085573d6000803e3d6000fd5b505050506040513d6000823e601f3d908101601f191682016040526110ad919081019061537f565b8154600180820184556000938452602093849020835160069093020180546001600160a01b0319166001600160a01b0390931692909217825582840151908201556040820151600282015560608201516003820155608082015180519293919261111d9260048501920190613894565b5060a08201518160050160006101000a81548160ff0219169083600581111561114857611148613ca8565b0217905550506014805460018101825560009182527fce6d7b5282bd9a3661ae061feed1dbda4e52ab073b1f9285be6e155d9c38d4ec0155506111896130cc565b7f152ec8ae15d347b2d2a8f0858caa29bcaaa0906749a1f43e08bfe7998346024030826040516111ba929190614753565b60405180910390a16012546001600160a01b03161561122e5760125460405163253b91a760e11b8152600481018390526001600160a01b0390911690634a77234e906024015b600060405180830381600087803b15801561121a57600080fd5b505af11580156108e5573d6000803e3d6000fd5b50565b611249600080516020615e1683398151915233611d51565b6112655760405162461bcd60e51b815260040161075490615483565b60026010828154811061127a5761127a614719565b60009182526020909120600560069092020181015460ff16908111156112a2576112a2613ca8565b14806112e857506003601082815481106112be576112be614719565b60009182526020909120600560069092020181015460ff16908111156112e6576112e6613ca8565b145b6113255760405162461bcd60e51b815260206004820152600e60248201526d10d85b9b9bdd081c995c5d595cdd60921b6044820152606401610754565b73__$3ec311f63f1cd166364ee887ad77eb9bd8$__6324b286026010838154811061135257611352614719565b90600052602060002090600602016040518263ffffffff1660e01b815260040161137e91815260200190565b60006040518083038186803b15801561139657600080fd5b505af41580156113aa573d6000803e3d6000fd5b5050505061122e8161334a565b6113cf600080516020615e1683398151915233611d51565b6113eb5760405162461bcd60e51b815260040161075490615483565b60036010828154811061140057611400614719565b60009182526020909120600560069092020181015460ff169081111561142857611428613ca8565b146114455760405162461bcd60e51b8152600401610754906154ac565b73__$3ec311f63f1cd166364ee887ad77eb9bd8$__6359111fb56010838154811061135257611352614719565b6000805b600e548110156115ad57600e8054600091601a918391908590811061149d5761149d614719565b906000526020600020906002020160000154815260200190815260200160002084815481106114ce576114ce614719565b9060005260206000200180546114e3906146e5565b80601f016020809104026020016040519081016040528092919081815260200182805461150f906146e5565b801561155c5780601f106115315761010080835404028352916020019161155c565b820191906000526020600020905b81548152906001019060200180831161153f57829003601f168201915b50505050508060200190518101906115749190615145565b9050806001600160a01b0316856001600160a01b03160361159a5760019250505061066f565b50806115a5816150c8565b915050611476565b5060009392505050565b6000818152601a60205260409020805460609190610e1290600190615162565b6000601082815481106115ec576115ec614719565b600091825260209091206005600690920201015460ff1692915050565b600380546004546005546006546040805160e081018252600980546001600160a01b039081168352600a54602080850191909152600b5484860152600c546060850152600d80548651818402810184019097528087529983169a988316999790921697959693949293608086019392918301828280156116a857602002820191906000526020600020905b815481526020019060010190808311611694575b5050505050815260200160058201805480602002602001604051908101604052809291908181526020016000905b8282101561176a5783829060005260206000209060020201604051806040016040529081600082015481526020016001820180548060200260200160405190810160405280929190818152602001828054801561175257602002820191906000526020600020905b81548152602001906001019080831161173e575b505050505081525050815260200190600101906116d6565b50505050815260200160068201805480602002602001604051908101604052809291908181526020016000905b828210156117e957600084815260209081902060408051606081018252600286029092018054835260019081015460ff8082168587015261010090910416918301919091529083529092019101611797565b5050505081525050905085565b60606010805480602002602001604051908101604052809291908181526020016000905b828210156119005760008481526020908190206040805160c0810182526006860290920180546001600160a01b0316835260018101548385015260028101548383015260038101546060840152600481018054835181870281018701909452808452939491936080860193928301828280156118b557602002820191906000526020600020905b8154815260200190600101908083116118a1575b505050918352505060058281015460209092019160ff16908111156118dc576118dc613ca8565b60058111156118ed576118ed613ca8565b815250508152602001906001019061181a565b50505050905090565b611921600080516020615e3683398151915233611d51565b61193d5760405162461bcd60e51b8152600401610754906154de565b600a54811461195e5760405162461bcd60e51b815260040161075490615503565b60016010848154811061197357611973614719565b60009182526020909120600560069092020181015460ff169081111561199b5761199b613ca8565b146119d75760405162461bcd60e51b815260206004820152600c60248201526b139bdd08115e1958dd5d195960a21b6044820152606401610754565b73__$3ec311f63f1cd166364ee887ad77eb9bd8$__636a0a24f160108581548110611a0457611a04614719565b906000526020600020906006020184846040518463ffffffff1660e01b8152600401611a329392919061553a565b60006040518083038186803b158015611a4a57600080fd5b505af4158015611a5e573d6000803e3d6000fd5b50505050611a6b8361334a565b505050565b611a886a534f4c5645525f524f4c4560a81b33611d51565b611ac25760405162461bcd60e51b815260206004820152600b60248201526a534f4c5645525f524f4c4560a81b6044820152606401610754565b6000838152601c60205260409020611adb9083836138df565b50505050565b611af9600080516020615e3683398151915233611d51565b611b155760405162461bcd60e51b8152600401610754906154de565b6000828152601b602052604090205460088054600392908110611b3a57611b3a614719565b600091825260209091206001600590920201015460ff166003811115611b6257611b62613ca8565b14611ba85760405162461bcd60e51b81526020600482015260166024820152751bdb9b1e48125b99d95cdd151e5c194b93585b9d585b60521b6044820152606401610754565b611bb28282613384565b604051600080516020615df683398151915290600090a15050565b611be5600080516020615e1683398151915233611d51565b611c015760405162461bcd60e51b815260040161075490615483565b600360108381548110611c1657611c16614719565b60009182526020909120600560069092020181015460ff1690811115611c3e57611c3e613ca8565b14611c5b5760405162461bcd60e51b8152600401610754906154ac565b60148281548110611c6e57611c6e614719565b90600052602060002001544211611c975760405162461bcd60e51b81526004016107549061472f565b600a54815114611cb95760405162461bcd60e51b815260040161075490615503565b6001546010805473__$3ec311f63f1cd166364ee887ad77eb9bd8$__92631b948e49926001600160a01b039091169186908110611cf857611cf8614719565b9060005260206000209060060201846040518463ffffffff1660e01b8152600401611d2593929190615554565b60006040518083038186803b158015611d3d57600080fd5b505af4158015610b04573d6000803e3d6000fd5b6000918252601d602090815260408084206001600160a01b0393909316845291905290205460ff1690565b601054604051635cc1f6b560e01b815260009173__$3ec311f63f1cd166364ee887ad77eb9bd8$__91635cc1f6b591611dbb91600891906004016155b1565b602060405180830381865af4158015611dd8573d6000803e3d6000fd5b505050506040513d601f19601f82011682018060405250810190610edc9190615179565b611e146a534f4c5645525f524f4c4560a81b33611d51565b611e1d57600080fd5b611e28816001614828565b60148381548110611e3b57611e3b614719565b6000918252602090912001555050565b611e53611d7c565b1515600114611e965760405162461bcd60e51b815260206004820152600f60248201526e1a5b99d95cdd1cc81a5b9d985b1a59608a1b6044820152606401610754565b73__$3ec311f63f1cd166364ee887ad77eb9bd8$__632dd4082482600160009054906101000a90046001600160a01b031660108581548110611eda57611eda614719565b60009182526020808320601554601154600c548652601a938490526040909520805460069095029092019460099491926001600160a01b03909116918b908110611f2657611f26614719565b906000526020600020018054611f3b906146e5565b80601f0160208091040260200160405190810160405280929190818152602001828054611f67906146e5565b8015611fb45780601f10611f8957610100808354040283529160200191611fb4565b820191906000526020600020905b815481529060010190602001808311611f9757829003601f168201915b5050505050806020019051810190611fcc91906156ca565b60405160e08a901b6001600160e01b031916815260048101989098526001600160a01b03968716602489015260448801959095526064870193909352608486019190915260a485015290911660c483015260e48201526101040160006040518083038186803b15801561203e57600080fd5b505af4158015612052573d6000803e3d6000fd5b5050505061122e81613422565b612067610ebc565b6001600160a01b0316336001600160a01b0316146120b55760405162461bcd60e51b815260206004820152600b60248201526a27b7363c902bb934ba32b960a91b6044820152606401610754565b6001601080546120c790600190615162565b815481106120d7576120d7614719565b60009182526020909120600560069092020181015460ff16908111156120ff576120ff613ca8565b146121375760405162461bcd60e51b8152602060048201526008602482015267111a5cd8589b195960c21b6044820152606401610754565b7f7399fd48fdfaf111111c20e282a8837c6803b6631b3b7b5e30b3b97d682d21b68383338460405161216c949392919061570c565b60405180910390a1505050565b6000818152601a60209081526040808320805482518185028101850190935280835260609492939192909184015b828210156122535783829060005260206000200180546121c6906146e5565b80601f01602080910402602001604051908101604052809291908181526020018280546121f2906146e5565b801561223f5780601f106122145761010080835404028352916020019161223f565b820191906000526020600020905b81548152906001019060200180831161222257829003601f168201915b5050505050815260200190600101906121a7565b505050509050919050565b612266613953565b6040805160e081018252600380546001600160a01b0390811683526004548116602080850191909152600554909116838501526006546060840152600780548551818402810184019096528086529394929360808601939260009084015b8282101561239d576000848152602090819020604080518082019091526002850290910180546001600160a01b03168252600181018054929391929184019161230c906146e5565b80601f0160208091040260200160405190810160405280929190818152602001828054612338906146e5565b80156123855780601f1061235a57610100808354040283529160200191612385565b820191906000526020600020905b81548152906001019060200180831161236857829003601f168201915b505050505081525050815260200190600101906122c4565b50505050815260200160058201805480602002602001604051908101604052809291908181526020016000905b828210156124e557838290600052602060002090600502016040518060a0016040529081600082015481526020016001820160009054906101000a900460ff16600381111561241b5761241b613ca8565b600381111561242c5761242c613ca8565b81526020016002820154815260200160038201548152602001600482018054612454906146e5565b80601f0160208091040260200160405190810160405280929190818152602001828054612480906146e5565b80156124cd5780601f106124a2576101008083540402835291602001916124cd565b820191906000526020600020905b8154815290600101906020018083116124b057829003601f168201915b505050505081525050815260200190600101906123ca565b505050908252506040805160e0810182526006840180546001600160a01b03168252600785015460208381019190915260088601548385015260098601546060840152600a86018054855181840281018401909652808652958201959394929360808601939283018282801561257a57602002820191906000526020600020905b815481526020019060010190808311612566575b5050505050815260200160058201805480602002602001604051908101604052809291908181526020016000905b8282101561263c5783829060005260206000209060020201604051806040016040529081600082015481526020016001820180548060200260200160405190810160405280929190818152602001828054801561262457602002820191906000526020600020905b815481526020019060010190808311612610575b505050505081525050815260200190600101906125a8565b50505050815260200160068201805480602002602001604051908101604052809291908181526020016000905b828210156126bb57600084815260209081902060408051606081018252600286029092018054835260019081015460ff8082168587015261010090910416918301919091529083529092019101612669565b50505091525050905250919050565b6009546040516370a0823160e01b81526000916001600160a01b0316906370a08231906126fb903090600401613d04565b602060405180830381865afa158015612718573d6000803e3d6000fd5b505050506040513d601f19601f82011682018060405250810190610edc91906156ca565b6000338260405160200161275192919061573c565b60408051601f19818403018152918152815160209283012060008181526019909352912054600880549293506127a992909190811061279257612792614719565b906000526020600020906005020160030154610c41565b6001600160a01b0316336001600160a01b0316146127d95760405162461bcd60e51b815260040161075490615759565b6000818152601960205260408120546008805490919081106127fd576127fd614719565b600091825260209091206001600590920201015460ff16600381111561282557612825613ca8565b1461285b5760405162461bcd60e51b81526020600482015260066024820152653737ba1021b160d11b6044820152606401610754565b60008181526019602052604090205460088054909190811061287f5761287f614719565b60009182526020822060059091020180549161289a836150c8565b909155505060008181526019602052604090205460088054612a27929081106128c5576128c5614719565b906000526020600020906005020160020154336001600160a01b0316633f4fb5aa600360050160166003016000878152602001908152602001600020548154811061291257612912614719565b9060005260206000209060050201600401805461292e906146e5565b80601f016020809104026020016040519081016040528092919081815260200182805461295a906146e5565b80156129a75780601f1061297c576101008083540402835291602001916129a7565b820191906000526020600020905b81548152906001019060200180831161298a57829003601f168201915b50505050508060200190518101906129bf91906156ca565b6040518263ffffffff1660e01b81526004016129dd91815260200190565b600060405180830381865afa1580156129fa573d6000803e3d6000fd5b505050506040513d6000823e601f3d908101601f19168201604052612a229190810190615788565b613384565b60008181526019602052604081208190556016805491612a46836157f5565b9091555050604051600080516020615df683398151915290600090a15050565b6013548111612aaf5760405162461bcd60e51b8152602060048201526015602482015274736f6c766572206e6f7420646f776e73747265616d60581b6044820152606401610754565b612ab881610c41565b6001600160a01b0316336001600160a01b031614612ae85760405162461bcd60e51b815260040161075490615759565b6000828152601a602052604090205415801590612b1457506010546000838152601a6020526040902054145b15612b665760405163de3a23c560e01b815260048101839052339063de3a23c590602401600060405180830381600087803b158015612b5257600080fd5b505af1158015610b04573d6000803e3d6000fd5b6000828152601860209081526040822080546001810182559083529082200180546001600160a01b031916331790556017805491612ba3836150c8565b91905055505b5050565b6000612bc7600080516020615e3683398151915233611d51565b612c015760405162461bcd60e51b815260206004820152600b60248201526a27b7363c9035b2b2b832b960a91b6044820152606401610754565b6012546001600160a01b031615612c465760405162461bcd60e51b815260206004820152600960248201526812185cc818da1a5b1960ba1b6044820152606401610754565b6000546013546015546040516386a2d22760e01b815273__$3ec311f63f1cd166364ee887ad77eb9bd8$__936386a2d22793612c9893620100009092046001600160a01b031692889290600401615b93565b602060405180830381865af4158015612cb5573d6000803e3d6000fd5b505050506040513d601f19601f82011682018060405250810190612cd99190615145565b601280546001600160a01b0319166001600160a01b0392909216918217905592915050565b63f23a6e6160e01b5b9695505050505050565b612d466040805160c081018252600080825260208201819052918101829052606080820183905260808201529060a082015290565b60108281548110612d5957612d59614719565b60009182526020918290206040805160c081018252600690930290910180546001600160a01b031683526001810154838501526002810154838301526003810154606084015260048101805483518187028101870190945280845293949193608086019392830182828015612ded57602002820191906000526020600020905b815481526020019060010190808311612dd9575b505050918352505060058281015460209092019160ff1690811115612e1457612e14613ca8565b6005811115612e2557612e25613ca8565b90525092915050565b6001600160a01b03163b151590565b60006001600160e01b0319821663043ff20f60e01b148061066f575061066f825b60006001600160e01b03198216630271189760e51b148061066f57506301ffc9a760e01b6001600160e01b031983161461066f565b60008054610100900460ff1615612ee1578160ff166001148015612ebd5750612ebb30612e2e565b155b612ed95760405162461bcd60e51b815260040161075490615c83565b506000919050565b60005460ff808416911610612f085760405162461bcd60e51b815260040161075490615c83565b506000805460ff191660ff92909216919091179055600190565b6000928352601d602090815260408085206001600160a01b039490941685529290529120805460ff1916911515919091179055565b60005b81811015611a6b576000838383818110612f7657612f76614719565b9050602002810190612f8891906147f2565b612f9190615cd1565b80519091506001600160a01b0316612fa7573081525b60008082600001516001600160a01b031660008460200151604051612fcc9190615d46565b60006040518083038185875af1925050503d8060008114613009576040519150601f19603f3d011682016040523d82523d6000602084013e61300e565b606091505b50915091506000818060200190518101906130299190615d58565b905060005b81518110156130725761306082878151811061304c5761304c614719565b602002602001015186600001516001612f22565b8061306a816150c8565b91505061302e565b50826130b55760405162461bcd60e51b81526020600482015260126024820152711b1bd859135bd91d5b195cc819985a5b195960721b6044820152606401610754565b5050505080806130c4906150c8565b915050612f5a565b60005b60085481101561333057600060088054839081106130ef576130ef614719565b600091825260209091206001600590920201015460ff16600381111561311757613117613ca8565b1461314d576131486003600501828154811061313557613135614719565b9060005260206000209060050201613558565b61331e565b6000306001600160a01b0316633837b05e6003600501848154811061317457613174614719565b9060005260206000209060050201600301546040518263ffffffff1660e01b81526004016131a491815260200190565b602060405180830381865afa1580156131c1573d6000803e3d6000fd5b505050506040513d601f19601f820116820180604052508101906131e59190615145565b90506131f18183613644565b806001600160a01b031663df33cc516003600501848154811061321657613216614719565b90600052602060002090600502016004018054613232906146e5565b80601f016020809104026020016040519081016040528092919081815260200182805461325e906146e5565b80156132ab5780601f10613280576101008083540402835291602001916132ab565b820191906000526020600020905b81548152906001019060200180831161328e57829003601f168201915b50505050508060200190518101906132c391906156ca565b6013546040516001600160e01b031960e085901b16815260048101929092526024820152604401600060405180830381600087803b15801561330457600080fd5b505af1158015613318573d6000803e3d6000fd5b50505050505b80613328816150c8565b9150506130cf565b50604051600080516020615df683398151915290600090a1565b600654613358906001614828565b6133629042615ddd565b6014828154811061337557613375614719565b60009182526020909120015550565b60105461339390600190615162565b6000838152601a6020526040902054146133e65760405162461bcd60e51b815260206004820152601460248201527314db1bdd081d995c9cda5bdb881a5b9d985b1a5960621b6044820152606401610754565b6000828152601a60209081526040822080546001810182559083529181902083516134189391909101918401906139f4565b50612ba98261375a565b6012546001600160a01b0316158015906134ae5750601260009054906101000a90046001600160a01b03166001600160a01b031663999925066040518163ffffffff1660e01b8152600401602060405180830381865afa15801561348a573d6000803e3d6000fd5b505050506040513d601f19601f820116820180604052508101906134ae9190615179565b801561352257506012546040516344c3b60760e01b8152600481018390526001600160a01b03909116906344c3b60790602401602060405180830381865afa1580156134fe573d6000803e3d6000fd5b505050506040513d601f19601f820116820180604052508101906135229190615179565b1561122e5760125460405163b992db0f60e01b8152600481018390526001600160a01b039091169063b992db0f90602401611200565b600181015460039060ff168181111561357357613573613ca8565b11156135b65760405162461bcd60e51b8152602060048201526012602482015271496e76616c696420696e676573745479706560701b6044820152606401610754565b80548160006135c4836150c8565b9091555060039050600182015460ff1660038111156135e5576135e5613ca8565b1461122e57600281015460405163b3d7370760e01b81526004810183905261122e919073__$3ec311f63f1cd166364ee887ad77eb9bd8$__9063b3d7370790602401600060405180830381865af41580156129fa573d6000803e3d6000fd5b8060166003016000846003600501858154811061366357613663614719565b9060005260206000209060050201600401805461367f906146e5565b80601f01602080910402602001604051908101604052809291908181526020018280546136ab906146e5565b80156136f85780601f106136cd576101008083540402835291602001916136f8565b820191906000526020600020905b8154815290600101906020018083116136db57829003601f168201915b505050505080602001905181019061371091906156ca565b60405160200161372192919061573c565b60408051601f198184030181529181528151602092830120835290820192909252016000908120919091556016805491612ba3836150c8565b60005b600082815260186020526040902054811015612ba957600082815260186020526040812080548390811061379357613793614719565b6000918252602090912001546001600160a01b0316146138825760008281526018602052604090208054829081106137cd576137cd614719565b60009182526020909120015460405163de3a23c560e01b8152600481018490526001600160a01b039091169063de3a23c590602401600060405180830381600087803b15801561381c57600080fd5b505af1158015613830573d6000803e3d6000fd5b505050600083815260186020526040902080549091508290811061385657613856614719565b6000918252602082200180546001600160a01b0319169055601780549161387c836157f5565b91905055505b8061388c816150c8565b91505061375d565b8280548282559060005260206000209081019282156138cf579160200282015b828111156138cf5782518255916020019190600101906138b4565b506138db929150613a67565b5090565b8280546138eb906146e5565b90600052602060002090601f01602090048101928261390d57600085556138cf565b82601f106139265782800160ff198235161785556138cf565b828001600101855582156138cf579182015b828111156138cf578235825591602001919060010190613938565b6040518060e0016040528060006001600160a01b0316815260200160006001600160a01b0316815260200160006001600160a01b031681526020016000815260200160608152602001606081526020016139ef6040518060e0016040528060006001600160a01b031681526020016000815260200160008152602001600080191681526020016060815260200160608152602001606081525090565b905290565b828054613a00906146e5565b90600052602060002090601f016020900481019282613a2257600085556138cf565b82601f10613a3b57805160ff19168380011785556138cf565b828001600101855582156138cf57918201828111156138cf5782518255916020019190600101906138b4565b5b808211156138db5760008155600101613a68565b600060208284031215613a8e57600080fd5b81356001600160e01b031981168114613aa657600080fd5b9392505050565b600060208284031215613abf57600080fd5b5035919050565b60005b83811015613ae1578181015183820152602001613ac9565b83811115611adb5750506000910152565b60008151808452613b0a816020860160208601613ac6565b601f01601f19169290920160200192915050565b602081526000613aa66020830184613af2565b6001600160a01b038116811461122e57600080fd5b8035610d4d81613b31565b600060e08284031215613b6357600080fd5b50919050565b600080600080600060a08688031215613b8157600080fd5b8535613b8c81613b31565b94506020860135613b9c81613b31565b93506040860135613bac81613b31565b92506060860135915060808601356001600160401b03811115613bce57600080fd5b613bda88828901613b51565b9150509295509295909350565b60008083601f840112613bf957600080fd5b5081356001600160401b03811115613c1057600080fd5b6020830191508360208260051b8501011115613c2b57600080fd5b9250929050565b600080600080600060808688031215613c4a57600080fd5b8535613c5581613b31565b9450602086013593506040860135925060608601356001600160401b03811115613c7e57600080fd5b613c8a88828901613be7565b969995985093965092949392505050565b6001600160a01b03169052565b634e487b7160e01b600052602160045260246000fd5b60068110613cce57613cce613ca8565b9052565b6001600160a01b038616815260208101859052604081018490526060810183905260a08101612d076080830184613cbe565b6001600160a01b0391909116815260200190565b600081518084526020808501945080840160005b83811015613d4857815187529582019590820190600101613d2c565b509495945050505050565b602081526000613aa66020830184613d18565b60008083601f840112613d7857600080fd5b5081356001600160401b03811115613d8f57600080fd5b602083019150836020828501011115613c2b57600080fd5b60008060208385031215613dba57600080fd5b82356001600160401b03811115613dd057600080fd5b613ddc85828601613d66565b90969095509350505050565b60008060408385031215613dfb57600080fd5b8235613e0681613b31565b946020939093013593505050565b6020810161066f8284613cbe565b600081518084526020808501945080840160005b83811015613d48578151805188528381015160ff908116858a0152604091820151169088015260609096019590820190600101613e36565b60018060a01b0381511682526000602080830151818501526040808401518186015260608401516060860152608084015160e06080870152613eb360e0870182613d18565b905060a085015186820360a08801528181518084528584019150858160051b850101868401935060005b82811015613f1c57858203601f19018452845180518352880151888301889052613f0988840182613d18565b9589019594890194925050600101613edd565b5060c0890151965089810360c08b0152613f368188613e22565b9a9950505050505050505050565b6001600160a01b0386811682528581166020830152841660408201526060810183905260a060808201819052600090613f7f90830184613e6e565b979650505050505050565b60018060a01b0381511682526020810151602083015260408101516040830152606081015160608301526000608082015160c06080850152613fcf60c0850182613d18565b905060a0830151613fe360a0860182613cbe565b509392505050565b6000602080830181845280855180835260408601915060408160051b870101925083870160005b8281101561404057603f1988860301845261402e858351613f8a565b94509285019290850190600101614012565b5092979650505050505050565b60008060006040848603121561406257600080fd5b8335925060208401356001600160401b0381111561407f57600080fd5b61408b86828701613be7565b9497909650939450505050565b6000806000604084860312156140ad57600080fd5b8335925060208401356001600160401b038111156140ca57600080fd5b61408b86828701613d66565b634e487b7160e01b600052604160045260246000fd5b60405160c081016001600160401b038111828210171561410e5761410e6140d6565b60405290565b604051601f8201601f191681016001600160401b038111828210171561413c5761413c6140d6565b604052919050565b60006001600160401b0382111561415d5761415d6140d6565b50601f01601f191660200190565b600082601f83011261417c57600080fd5b813561418f61418a82614144565b614114565b8181528460208386010111156141a457600080fd5b816020850160208301376000918101602001919091529392505050565b600080604083850312156141d457600080fd5b8235915060208301356001600160401b038111156141f157600080fd5b6141fd8582860161416b565b9150509250929050565b60006001600160401b03821115614220576142206140d6565b5060051b60200190565b6000806040838503121561423d57600080fd5b823591506020808401356001600160401b0381111561425b57600080fd5b8401601f8101861361426c57600080fd5b803561427a61418a82614207565b81815260059190911b8201830190838101908883111561429957600080fd5b928401925b828410156142b75783358252928401929084019061429e565b80955050505050509250929050565b600080604083850312156142d957600080fd5b8235915060208301356142eb81613b31565b809150509250929050565b6000806040838503121561430957600080fd5b50508035926020909101359150565b60008060008060008060008060a0898b03121561433457600080fd5b883561433f81613b31565b9750602089013561434f81613b31565b965060408901356001600160401b038082111561436b57600080fd5b6143778c838d01613be7565b909850965060608b013591508082111561439057600080fd5b61439c8c838d01613be7565b909650945060808b01359150808211156143b557600080fd5b506143c28b828c01613d66565b999c989b5096995094979396929594505050565b6000806000604084860312156143eb57600080fd5b83356001600160401b0381111561440157600080fd5b61440d86828701613d66565b909790965060209590950135949350505050565b6000602080830181845280855180835260408601915060408160051b870101925083870160005b8281101561404057603f19888603018452614464858351613af2565b94509285019290850190600101614448565b600081518084526020808501808196508360051b8101915082860160005b858110156144db578284038952815180516001600160a01b0316855285015160408686018190526144c781870183613af2565b9a87019a9550505090840190600101614494565b5091979650505050505050565b60048110613cce57613cce613ca8565b600081518084526020808501808196508360051b8101915082860160005b858110156144db578284038952815160a0815186528682015161453b888801826144e8565b50604082810151908701526060808301519087015260809182015191860181905261456881870183613af2565b9a87019a9550505090840190600101614516565b60208152600060018060a01b038084511660208401528060208501511660408401525060408301516145b16060840182613c9b565b5060608301516080830152608083015160e060a08401526145d6610100840182614476565b905060a0840151601f19808584030160c08601526145f483836144f8565b925060c08601519150808584030160e0860152506146128282613e6e565b95945050505050565b60006020828403121561462d57600080fd5b81356001600160401b0381111561464357600080fd5b61464f84828501613b51565b949350505050565b60008060008060008060a0878903121561467057600080fd5b863561467b81613b31565b9550602087013561468b81613b31565b9450604087013593506060870135925060808701356001600160401b038111156146b457600080fd5b6146c089828a01613d66565b979a9699509497509295939492505050565b602081526000613aa66020830184613f8a565b600181811c908216806146f957607f821691505b602082108103613b6357634e487b7160e01b600052602260045260246000fd5b634e487b7160e01b600052603260045260246000fd5b6020808252600a9082015269151a5b595b1bd8dad95960b21b604082015260600190565b6001600160a01b03929092168252602082015260400190565b60006020828403121561477e57600080fd5b8135613aa681613b31565b80546001600160a01b0319166001600160a01b0392909216919091179055565b6000808335601e198436030181126147c057600080fd5b8301803591506001600160401b038211156147da57600080fd5b6020019150600581901b3603821315613c2b57600080fd5b60008235603e1983360301811261480857600080fd5b9190910192915050565b634e487b7160e01b600052601160045260246000fd5b600081600019048311821515161561484257614842614812565b500290565b5b81811015612ba95760008155600101614848565b61486681546146e5565b8015612ba957601f81116001811461488057505060009055565b82600052602060002061489e601f840160051c820160018301614847565b506020600090812081855555505050565b6000808335601e198436030181126148c657600080fd5b8301803591506001600160401b038211156148e057600080fd5b602001915036819003821315613c2b57600080fd5b601f821115611a6b57806000526020600020601f840160051c8101602085101561491c5750805b6108e5601f850160051c830182614847565b813561493981613b31565b6149438183614789565b5060018082016020614957818601866148af565b6001600160401b0381111561496e5761496e6140d6565b6149828161497c86546146e5565b866148f5565b6000601f8211600181146149b6576000831561499e5750838201355b600019600385901b1c1916600184901b178655610be8565b600086815260209020601f19841690835b828110156149e457868501358255938701939089019087016149c7565b5084821015614a015760001960f88660031b161c19848701351681555b50505050841b90930190915550505050565b60008235609e1983360301811261480857600080fd5b6004811061122e57600080fd5b813581556001808201602080850135614a4e81614a29565b60048110614a5e57614a5e613ca8565b60ff1983541660ff8216811784555050604085013560028501556060850135600385015560048401915061495760808601866148af565b600160401b831115614aa957614aa96140d6565b805483825580841015614b4d577f33333333333333333333333333333333333333333333333333333333333333336001818311811615614aeb57614aeb614812565b6005828711821615614aff57614aff614812565b600085815260208120909350878202810190828602015b80821015614b47578482558484830155846002830155846003830155614b3e6004830161485c565b90820190614b16565b50505050505b5060008181526020812083915b85811015610b0457614b75614b6f8487614a13565b83614a36565b6020929092019160059190910190600101614b5a565b6000823560de1983360301811261480857600080fd5b805460008083558115611a6b57828152602081208281015b808210156108e557828255600182019150614bb9565b8135815560018082016020614be6818601866147a9565b600160401b811115614bfa57614bfa6140d6565b835481855580821015614c2e5760008581528481208381019083015b80821015614c2a5782825590880190614c16565b5050505b506000938452828420935b81811015614c54578235855593850193918301918501614c39565b5050505050505050565b600160401b831115614c7257614c726140d6565b805483825580841015614cea576001600160ff1b036001818311811615614c9b57614c9b614812565b818611811615614cad57614cad614812565b60008481526020812090925086821b81019084831b015b80821015614ce557838255614cda838301614ba1565b600282019150614cc4565b505050505b5060008181526020812083915b85811015610b0457614d12614d0c84876147f2565b83614bcf565b6020929092019160029190910190600101614cf7565b6000808335601e19843603018112614d3f57600080fd5b8301803591506001600160401b03821115614d5957600080fd5b6020019150606081023603821315613c2b57600080fd5b60ff8116811461122e57600080fd5b81358155600181016020830135614d9581614d70565b81546040850135614da581614d70565b61ff008160081b1660ff841661ffff19841617178455505050505050565b600160401b831115614dd757614dd76140d6565b805483825580841015614e49576001600160ff1b036001818311811615614e0057614e00614812565b818611811615614e1257614e12614812565b60008481526020812090925086821b81019084831b015b80821015614e44578382558383830155600282019150614e29565b505050505b5060008181526020812083915b85811015610b0457614e688383614d7f565b6060929092019160029190910190600101614e56565b8135614e8981613b31565b614e938183614789565b50600160208084013582840155604084013560028401556060840135600384015560048301614ec560808601866147a9565b600160401b811115614ed957614ed96140d6565b825481845580821015614efe578360005284600020614efc828201848301614847565b505b506000928352838320925b81811015614f24578235845592850192918401918501614f09565b505050505050614f3760a08301836147a9565b614f45818360058601614c5e565b5050614f5460c0830183614d28565b611adb818360068601614dc3565b8135614f6d81613b31565b614f778183614789565b506001602080840135614f8981613b31565b614f9581848601614789565b5060026040850135614fa681613b31565b614fb281838701614789565b506060850135600385015560048401614fce60808701876147a9565b600160401b811115614fe257614fe26140d6565b825481845580821015615052576001600160ff1b0380821188161561500957615009614812565b80831188161561501b5761501b614812565b50600084815286812083891b810190838a1b015b8082101561504e578282556150458a830161485c565b9087019061502f565b5050505b506000928352602083209282905b8281101561508a5761507b61507583866147f2565b8661492e565b93850193908601908701615060565b505050505050505061509f60a08301836147a9565b6150ad818360058601614a95565b5050612ba96150bf60c0840184614b8b565b60068301614e7e565b6000600182016150da576150da614812565b5060010190565b81835260006001600160fb1b038311156150fa57600080fd5b8260051b8083602087013760009401602001938452509192915050565b60018060a01b0386168152846020820152836040820152608060608201526000613f7f6080830184866150e1565b60006020828403121561515757600080fd5b8151613aa681613b31565b60008282101561517457615174614812565b500390565b60006020828403121561518b57600080fd5b81518015158114613aa657600080fd5b6000815480845260208085019450836000528060002060005b83811015613d48578154875295820195600191820191016151b4565b600081548084526020808501808196508360051b810191506000868152838120815b8681101561525e578385038a52815485526040868601819052600180840180549288018390528552878520606088019290919086905b808210156152455783548552938a01939282019290820190615228565b5050509a87019a509450600291909101906001016151f2565b509298975050505050505050565b6000815480845260208085019450836000528060002060005b83811015613d48578154875260018083015460ff808216868b015260089190911c16604089015260609097019660029092019101615285565b600060018060a01b038087168352608060208401526152e36080840182885416613c9b565b50600185015460a0830152600285015460c0830152600385015460e083015260e061010083015261531b61016083016004870161519b565b607f19808483030161012085015261533682600589016151d0565b9150808483030161014085015250615351816006880161526c565b9150506153616040830185613c9b565b82606083015295945050505050565b805160068110610d4d57600080fd5b6000602080838503121561539257600080fd5b82516001600160401b03808211156153a957600080fd5b9084019060c082870312156153bd57600080fd5b6153c56140ec565b82516153d081613b31565b808252508383015184820152604083015160408201526060830151606082015260808301518281111561540257600080fd5b83019150601f8201871361541557600080fd5b815161542361418a82614207565b81815260059190911b8301850190858101908983111561544257600080fd5b938601935b8285101561546057845182529386019390860190615447565b608084015250615474905060a08401615370565b60a08201529695505050505050565b6020808252600f908201526e27b7363c9030b93134ba3930ba37b960891b604082015260600190565b602080825260189082015277139bdd08105c989a5d1c985d1a5bdb94995c5d595cdd195960421b604082015260600190565b6020808252600b908201526a27b7363c9025b2b2b832b960a91b604082015260600190565b6020808252601e908201527f6c656e677468206d757374206d61746368206f7574636f6d65536c6f74730000604082015260600190565b8381526040602082015260006146126040830184866150e1565b6001600160a01b038416815260208082018490526060604083018190528351908301819052600091848101916080850190845b818110156155a357845183529383019391830191600101615587565b509098975050505050505050565b6000604082016040835280855480835260608501915060608160051b8601019250600087815260208120815b838110156156b557878603605f1901855281548652600182015460ff1661560760208801826144e8565b5060028201546040870152600382015460608701526004820160a06080880152838154615633816146e5565b8060a08b01526001821660008114615652576001811461566757615698565b60ff19831660c08c015260e08b019350615698565b84885260208820885b8381101561568f5781548d820160c00152600190910190602001615670565b8c0160c0019450505b5091985050506020959095019450600591909101906001016155dd565b50505050506020929092019290925292915050565b6000602082840312156156dc57600080fd5b5051919050565b81835281816020850137506000828201602090810191909152601f909101601f19169091010190565b6060815260006157206060830186886156e3565b6001600160a01b03949094166020830152506040015292915050565b60609290921b6001600160601b0319168252601482015260340190565b60208082526015908201527436b9b39739b2b73232b9103737ba1039b7b63b32b960591b604082015260600190565b60006020828403121561579a57600080fd5b81516001600160401b038111156157b057600080fd5b8201601f810184136157c157600080fd5b80516157cf61418a82614144565b8181528560208385010111156157e457600080fd5b614612826020830160208601613ac6565b60008161580457615804614812565b506000190190565b6000808335601e1984360301811261582357600080fd5b83016020810192503590506001600160401b0381111561584257600080fd5b8060051b3603831315613c2b57600080fd5b6000808335601e1984360301811261586b57600080fd5b83016020810192503590506001600160401b0381111561588a57600080fd5b803603831315613c2b57600080fd5b60008235603e198336030181126158af57600080fd5b90910192915050565b81835260006020808501808196508560051b810191508460005b878110156144db5782840389526158e98288615899565b604081356158f681613b31565b6001600160a01b0316865261590d82880183615854565b9250818888015261592182880184836156e3565b9b88019b9650505091850191506001016158d2565b81835260006020808501808196508560051b81019150846000805b8881101561525e578385038a528235609e19893603018112615971578283fd5b88018035865260a08782013561598681614a29565b615992898901826144e8565b50604082810135908801526060808301359088015260806159b581840184615854565b935082828a01526159c9838a0185836156e3565b9d8a019d98505050938701935050600101615951565b6000823560de198336030181126158af57600080fd5b6000808335601e19843603018112615a0c57600080fd5b83016020810192503590506001600160401b03811115615a2b57600080fd5b606081023603831315613c2b57600080fd5b8183526000602080850194508260005b85811015613d48578135875282820135615a6681614d70565b60ff9081168885015260409083820135615a7f81614d70565b16908801526060968701969190910190600101615a4d565b60008135615aa481613b31565b6001600160a01b03168352602082810135818501526040808401358186015260608085013590860152615ada608085018561580c565b60e06080880152615aef60e0880182846150e1565b915050615aff60a086018661580c565b87830360a0890152808352848301600582901b840186018360005b84811015615b6d57868303601f19018452615b358287615899565b80358452615b458a82018261580c565b9150898b860152615b598a860183836150e1565b958b01959450505090880190600101615b1a565b5050615b7c60c08a018a6159f5565b9750955089810360c08b0152613f36818888615a3d565b6001600160a01b038581168252608060208301526000908535615bb581613b31565b166080830152615bc760208601613b46565b615bd460a0840182613c9b565b50615be160408601613b46565b615bee60c0840182613c9b565b50606085013560e0830152615c06608086018661580c565b60e0610100850152615c1d610160850182846158b8565b915050615c2d60a087018761580c565b607f198086850301610120870152615c46848385615936565b9350615c5560c08a018a6159df565b925080868503016101408701525050615c6e8282615a97565b60408501969096525050506060015292915050565b6020808252602e908201527f496e697469616c697a61626c653a20636f6e747261637420697320616c72656160408201526d191e481a5b9a5d1a585b1a5e995960921b606082015260800190565b600060408236031215615ce357600080fd5b604080519081016001600160401b038082118383101715615d0657615d066140d6565b8160405284359150615d1782613b31565b90825260208401359080821115615d2d57600080fd5b50615d3a3682860161416b565b60208301525092915050565b60008251614808818460208701613ac6565b60006020808385031215615d6b57600080fd5b82516001600160401b03811115615d8157600080fd5b8301601f81018513615d9257600080fd5b8051615da061418a82614207565b81815260059190911b82018301908381019087831115615dbf57600080fd5b928401925b82841015613f7f57835182529284019290840190615dc4565b60008219821115615df057615df0614812565b50019056fe71bd81ebe1d98a2944767394e76a9aff18724b2cf04e1db71254f804544b35c716ceee8289685dd2a02b9c8ae81d2df373176ce53519e6284e2a2950d6546ffafc8737ab85eb45125971625a9ebdb75cc78e01d5c1fa80c4c6e5203f47bc4fab0ca87275d169c8ebebebf4aab9c6c710c7681b39422556e90b16a44c68ee4e46a26469706673582212207110b05425aff500f5130083699f3a0e51a19dbd147344c36cf9db0f6cca1a6364736f6c634300080d0033",
  "linkReferences": {
    "contracts/solvers/SolverLib.sol": {
      "SolverLib": [
        {
          "length": 20,
          "start": 2467
        },
        {
          "length": 20,
          "start": 4009
        },
        {
          "length": 20,
          "start": 4476
        },
        {
          "length": 20,
          "start": 5234
        },
        {
          "length": 20,
          "start": 5522
        },
        {
          "length": 20,
          "start": 6948
        },
        {
          "length": 20,
          "start": 7693
        },
        {
          "length": 20,
          "start": 7900
        },
        {
          "length": 20,
          "start": 8163
        },
        {
          "length": 20,
          "start": 11689
        },
        {
          "length": 20,
          "start": 14165
        }
      ]
    }
  },
  "deployedLinkReferences": {
    "contracts/solvers/SolverLib.sol": {
      "SolverLib": [
        {
          "length": 20,
          "start": 2136
        },
        {
          "length": 20,
          "start": 3678
        },
        {
          "length": 20,
          "start": 4145
        },
        {
          "length": 20,
          "start": 4903
        },
        {
          "length": 20,
          "start": 5191
        },
        {
          "length": 20,
          "start": 6617
        },
        {
          "length": 20,
          "start": 7362
        },
        {
          "length": 20,
          "start": 7569
        },
        {
          "length": 20,
          "start": 7832
        },
        {
          "length": 20,
          "start": 11358
        },
        {
          "length": 20,
          "start": 13834
        }
      ]
    }
  }
}