{
  "_format": "hh-sol-artifact-1",
  "contractName": "SimpleSolver",
  "sourceName": "contracts/SimpleSolver.sol",
  "abi": [
    {
      "inputs": [],
      "stateMutability": "nonpayable",
      "type": "constructor"
    },
    {
      "inputs": [
        {
          "internalType": "address",
          "name": "operator",
          "type": "address"
        },
        {
          "internalType": "address",
          "name": "from",
          "type": "address"
        },
        {
          "internalType": "uint256[]",
          "name": "ids",
          "type": "uint256[]"
        },
        {
          "internalType": "uint256[]",
          "name": "values",
          "type": "uint256[]"
        },
        {
          "internalType": "bytes",
          "name": "data",
          "type": "bytes"
        }
      ],
      "name": "onERC1155BatchReceived",
      "outputs": [
        {
          "internalType": "bytes4",
          "name": "",
          "type": "bytes4"
        }
      ],
      "stateMutability": "nonpayable",
      "type": "function"
    },
    {
      "inputs": [
        {
          "internalType": "address",
          "name": "operator",
          "type": "address"
        },
        {
          "internalType": "address",
          "name": "from",
          "type": "address"
        },
        {
          "internalType": "uint256",
          "name": "id",
          "type": "uint256"
        },
        {
          "internalType": "uint256",
          "name": "value",
          "type": "uint256"
        },
        {
          "internalType": "bytes",
          "name": "data",
          "type": "bytes"
        }
      ],
      "name": "onERC1155Received",
      "outputs": [
        {
          "internalType": "bytes4",
          "name": "",
          "type": "bytes4"
        }
      ],
      "stateMutability": "nonpayable",
      "type": "function"
    },
    {
      "inputs": [
        {
          "internalType": "bytes32",
          "name": "solvableId",
          "type": "bytes32"
        },
        {
          "internalType": "address",
          "name": "keeper",
          "type": "address"
        },
        {
          "internalType": "bytes32[]",
          "name": "questionIds",
          "type": "bytes32[]"
        },
        {
          "internalType": "uint256[]",
          "name": "positionSlotCounts",
          "type": "uint256[]"
        }
      ],
      "name": "receiveCommission",
      "outputs": [],
      "stateMutability": "nonpayable",
      "type": "function"
    },
    {
      "inputs": [
        {
          "internalType": "bytes32",
          "name": "solvableId",
          "type": "bytes32"
        },
        {
          "internalType": "bytes32",
          "name": "questionId",
          "type": "bytes32"
        },
        {
          "internalType": "uint256[]",
          "name": "outcomes",
          "type": "uint256[]"
        }
      ],
      "name": "reportOutcomes",
      "outputs": [],
      "stateMutability": "nonpayable",
      "type": "function"
    },
    {
      "inputs": [
        {
          "internalType": "bytes32",
          "name": "",
          "type": "bytes32"
        }
      ],
      "name": "solvables",
      "outputs": [
        {
          "internalType": "bytes32",
          "name": "id",
          "type": "bytes32"
        },
        {
          "internalType": "address",
          "name": "keeper",
          "type": "address"
        }
      ],
      "stateMutability": "view",
      "type": "function"
    }
  ],
  "bytecode": "0x608060405234801561001057600080fd5b50610982806100206000396000f3fe608060405234801561001057600080fd5b50600436106100575760003560e01c80638aaa43a41461005c578063bc197c8114610078578063bcabeae4146100a8578063c0db09cf146100c4578063f23a6e61146100f5575b600080fd5b6100766004803603810190610071919061071d565b610125565b005b610092600480360381019061008d9190610596565b61028c565b60405161009f919061087a565b60405180910390f35b6100c260048036038101906100bd91906107b8565b6102bd565b005b6100de60048036038101906100d991906106f4565b610332565b6040516100ec929190610851565b60405180910390f35b61010f600480360381019061010a9190610662565b610376565b60405161011c919061087a565b60405180910390f35b600060405180608001604052808881526020018773ffffffffffffffffffffffffffffffffffffffff168152602001868680806020026020016040519081016040528093929190818152602001838360200280828437600081840152601f19601f820116905080830192505050505050508152602001848480806020026020016040519081016040528093929190818152602001838360200280828437600081840152601f19601f820116905080830192505050505050508152509050806000808981526020019081526020016000206000820151816000015560208201518160010160006101000a81548173ffffffffffffffffffffffffffffffffffffffff021916908373ffffffffffffffffffffffffffffffffffffffff16021790555060408201518160020190805190602001906102629291906103a5565b50606082015181600301908051906020019061027f9291906103f2565b5090505050505050505050565b60007fbc197c819b3e337a6f9652dd10becd7eef83032af3b9d958d3d42f6694146621905098975050505050505050565b60008085815260200190815260200160002060010160009054906101000a900473ffffffffffffffffffffffffffffffffffffffff168073ffffffffffffffffffffffffffffffffffffffff163373ffffffffffffffffffffffffffffffffffffffff161461032b57600080fd5b5050505050565b60006020528060005260406000206000915090508060000154908060010160009054906101000a900473ffffffffffffffffffffffffffffffffffffffff16905082565b60007ff23a6e612e1ff4830e658fe43f4e3cb4a5f8170bd5d9e69fb5d7a7fa9e4fdf9790509695505050505050565b8280548282559060005260206000209081019282156103e1579160200282015b828111156103e05782518255916020019190600101906103c5565b5b5090506103ee919061043f565b5090565b82805482825590600052602060002090810192821561042e579160200282015b8281111561042d578251825591602001919060010190610412565b5b50905061043b919061045c565b5090565b5b80821115610458576000816000905550600101610440565b5090565b5b8082111561047557600081600090555060010161045d565b5090565b60008135905061048881610907565b92915050565b60008083601f8401126104a057600080fd5b8235905067ffffffffffffffff8111156104b957600080fd5b6020830191508360208202830111156104d157600080fd5b9250929050565b60008083601f8401126104ea57600080fd5b8235905067ffffffffffffffff81111561050357600080fd5b60208301915083602082028301111561051b57600080fd5b9250929050565b6000813590506105318161091e565b92915050565b60008083601f84011261054957600080fd5b8235905067ffffffffffffffff81111561056257600080fd5b60208301915083600182028301111561057a57600080fd5b9250929050565b60008135905061059081610935565b92915050565b60008060008060008060008060a0898b0312156105b257600080fd5b60006105c08b828c01610479565b98505060206105d18b828c01610479565b975050604089013567ffffffffffffffff8111156105ee57600080fd5b6105fa8b828c016104d8565b9650965050606089013567ffffffffffffffff81111561061957600080fd5b6106258b828c016104d8565b9450945050608089013567ffffffffffffffff81111561064457600080fd5b6106508b828c01610537565b92509250509295985092959890939650565b60008060008060008060a0878903121561067b57600080fd5b600061068989828a01610479565b965050602061069a89828a01610479565b95505060406106ab89828a01610581565b94505060606106bc89828a01610581565b935050608087013567ffffffffffffffff8111156106d957600080fd5b6106e589828a01610537565b92509250509295509295509295565b60006020828403121561070657600080fd5b600061071484828501610522565b91505092915050565b6000806000806000806080878903121561073657600080fd5b600061074489828a01610522565b965050602061075589828a01610479565b955050604087013567ffffffffffffffff81111561077257600080fd5b61077e89828a0161048e565b9450945050606087013567ffffffffffffffff81111561079d57600080fd5b6107a989828a016104d8565b92509250509295509295509295565b600080600080606085870312156107ce57600080fd5b60006107dc87828801610522565b94505060206107ed87828801610522565b935050604085013567ffffffffffffffff81111561080a57600080fd5b610816878288016104d8565b925092505092959194509250565b61082d81610895565b82525050565b61083c816108a7565b82525050565b61084b816108b1565b82525050565b60006040820190506108666000830185610833565b6108736020830184610824565b9392505050565b600060208201905061088f6000830184610842565b92915050565b60006108a0826108dd565b9050919050565b6000819050919050565b60007fffffffff0000000000000000000000000000000000000000000000000000000082169050919050565b600073ffffffffffffffffffffffffffffffffffffffff82169050919050565b6000819050919050565b61091081610895565b811461091b57600080fd5b50565b610927816108a7565b811461093257600080fd5b50565b61093e816108fd565b811461094957600080fd5b5056fea26469706673582212209047a46818d12d4a3b17a21fda8f9c50171eda4c678ebdc0c49ffbfca77986f164736f6c63430008000033",
  "linkReferences": {},
  "deployedLinkReferences": {}
}