{
  "_format": "hh-sol-artifact-1",
  "contractName": "SimpleSolver",
  "sourceName": "contracts/SimpleSolver.sol",
  "abi": [
    {
      "inputs": [],
      "stateMutability": "nonpayable",
      "type": "constructor"
    },
    {
      "inputs": [],
      "name": "conditionalTokens",
      "outputs": [
        {
          "internalType": "contract ConditionalTokens",
          "name": "",
          "type": "address"
        }
      ],
      "stateMutability": "view",
      "type": "function"
    },
    {
      "inputs": [
        {
          "internalType": "address",
          "name": "operator",
          "type": "address"
        },
        {
          "internalType": "address",
          "name": "from",
          "type": "address"
        },
        {
          "internalType": "uint256[]",
          "name": "ids",
          "type": "uint256[]"
        },
        {
          "internalType": "uint256[]",
          "name": "values",
          "type": "uint256[]"
        },
        {
          "internalType": "bytes",
          "name": "data",
          "type": "bytes"
        }
      ],
      "name": "onERC1155BatchReceived",
      "outputs": [
        {
          "internalType": "bytes4",
          "name": "",
          "type": "bytes4"
        }
      ],
      "stateMutability": "nonpayable",
      "type": "function"
    },
    {
      "inputs": [
        {
          "internalType": "address",
          "name": "operator",
          "type": "address"
        },
        {
          "internalType": "address",
          "name": "from",
          "type": "address"
        },
        {
          "internalType": "uint256",
          "name": "id",
          "type": "uint256"
        },
        {
          "internalType": "uint256",
          "name": "value",
          "type": "uint256"
        },
        {
          "internalType": "bytes",
          "name": "data",
          "type": "bytes"
        }
      ],
      "name": "onERC1155Received",
      "outputs": [
        {
          "internalType": "bytes4",
          "name": "",
          "type": "bytes4"
        }
      ],
      "stateMutability": "nonpayable",
      "type": "function"
    },
    {
      "inputs": [
        {
          "internalType": "bytes32",
          "name": "solvableId",
          "type": "bytes32"
        },
        {
          "internalType": "address",
          "name": "keeper",
          "type": "address"
        },
        {
          "internalType": "bytes32[]",
          "name": "questionIds",
          "type": "bytes32[]"
        },
        {
          "internalType": "uint256[]",
          "name": "positionSlotCounts",
          "type": "uint256[]"
        }
      ],
      "name": "receiveCommission",
      "outputs": [],
      "stateMutability": "nonpayable",
      "type": "function"
    },
    {
      "inputs": [
        {
          "internalType": "bytes32",
          "name": "solvableId",
          "type": "bytes32"
        },
        {
          "internalType": "bytes32",
          "name": "questionId",
          "type": "bytes32"
        },
        {
          "internalType": "uint256[]",
          "name": "outcomes",
          "type": "uint256[]"
        }
      ],
      "name": "reportOutcomes",
      "outputs": [],
      "stateMutability": "nonpayable",
      "type": "function"
    },
    {
      "inputs": [
        {
          "internalType": "bytes32",
          "name": "",
          "type": "bytes32"
        }
      ],
      "name": "solvables",
      "outputs": [
        {
          "internalType": "bytes32",
          "name": "id",
          "type": "bytes32"
        },
        {
          "internalType": "address",
          "name": "keeper",
          "type": "address"
        }
      ],
      "stateMutability": "view",
      "type": "function"
    }
  ],
  "bytecode": "0x608060405234801561001057600080fd5b50610a1f806100206000396000f3fe608060405234801561001057600080fd5b50600436106100625760003560e01c80635bd9e299146100675780638aaa43a414610085578063bc197c81146100a1578063bcabeae4146100d1578063c0db09cf146100ed578063f23a6e611461011e575b600080fd5b61006f61014e565b60405161007c91906108f3565b60405180910390f35b61009f600480360381019061009a919061076c565b610172565b005b6100bb60048036038101906100b691906105e5565b6102da565b6040516100c891906108d8565b60405180910390f35b6100eb60048036038101906100e69190610807565b61030b565b005b61010760048036038101906101029190610743565b610381565b6040516101159291906108af565b60405180910390f35b610138600480360381019061013391906106b1565b6103c5565b60405161014591906108d8565b60405180910390f35b60008054906101000a900473ffffffffffffffffffffffffffffffffffffffff1681565b600060405180608001604052808881526020018773ffffffffffffffffffffffffffffffffffffffff168152602001868680806020026020016040519081016040528093929190818152602001838360200280828437600081840152601f19601f820116905080830192505050505050508152602001848480806020026020016040519081016040528093929190818152602001838360200280828437600081840152601f19601f82011690508083019250505050505050815250905080600160008981526020019081526020016000206000820151816000015560208201518160010160006101000a81548173ffffffffffffffffffffffffffffffffffffffff021916908373ffffffffffffffffffffffffffffffffffffffff16021790555060408201518160020190805190602001906102b09291906103f4565b5060608201518160030190805190602001906102cd929190610441565b5090505050505050505050565b60007fbc197c819b3e337a6f9652dd10becd7eef83032af3b9d958d3d42f6694146621905098975050505050505050565b6001600085815260200190815260200160002060010160009054906101000a900473ffffffffffffffffffffffffffffffffffffffff168073ffffffffffffffffffffffffffffffffffffffff163373ffffffffffffffffffffffffffffffffffffffff161461037a57600080fd5b5050505050565b60016020528060005260406000206000915090508060000154908060010160009054906101000a900473ffffffffffffffffffffffffffffffffffffffff16905082565b60007ff23a6e612e1ff4830e658fe43f4e3cb4a5f8170bd5d9e69fb5d7a7fa9e4fdf9790509695505050505050565b828054828255906000526020600020908101928215610430579160200282015b8281111561042f578251825591602001919060010190610414565b5b50905061043d919061048e565b5090565b82805482825590600052602060002090810192821561047d579160200282015b8281111561047c578251825591602001919060010190610461565b5b50905061048a91906104ab565b5090565b5b808211156104a757600081600090555060010161048f565b5090565b5b808211156104c45760008160009055506001016104ac565b5090565b6000813590506104d7816109a4565b92915050565b60008083601f8401126104ef57600080fd5b8235905067ffffffffffffffff81111561050857600080fd5b60208301915083602082028301111561052057600080fd5b9250929050565b60008083601f84011261053957600080fd5b8235905067ffffffffffffffff81111561055257600080fd5b60208301915083602082028301111561056a57600080fd5b9250929050565b600081359050610580816109bb565b92915050565b60008083601f84011261059857600080fd5b8235905067ffffffffffffffff8111156105b157600080fd5b6020830191508360018202830111156105c957600080fd5b9250929050565b6000813590506105df816109d2565b92915050565b60008060008060008060008060a0898b03121561060157600080fd5b600061060f8b828c016104c8565b98505060206106208b828c016104c8565b975050604089013567ffffffffffffffff81111561063d57600080fd5b6106498b828c01610527565b9650965050606089013567ffffffffffffffff81111561066857600080fd5b6106748b828c01610527565b9450945050608089013567ffffffffffffffff81111561069357600080fd5b61069f8b828c01610586565b92509250509295985092959890939650565b60008060008060008060a087890312156106ca57600080fd5b60006106d889828a016104c8565b96505060206106e989828a016104c8565b95505060406106fa89828a016105d0565b945050606061070b89828a016105d0565b935050608087013567ffffffffffffffff81111561072857600080fd5b61073489828a01610586565b92509250509295509295509295565b60006020828403121561075557600080fd5b600061076384828501610571565b91505092915050565b6000806000806000806080878903121561078557600080fd5b600061079389828a01610571565b96505060206107a489828a016104c8565b955050604087013567ffffffffffffffff8111156107c157600080fd5b6107cd89828a016104dd565b9450945050606087013567ffffffffffffffff8111156107ec57600080fd5b6107f889828a01610527565b92509250509295509295509295565b6000806000806060858703121561081d57600080fd5b600061082b87828801610571565b945050602061083c87828801610571565b935050604085013567ffffffffffffffff81111561085957600080fd5b61086587828801610527565b925092505092959194509250565b61087c8161090e565b82525050565b61088b81610920565b82525050565b61089a8161092a565b82525050565b6108a981610980565b82525050565b60006040820190506108c46000830185610882565b6108d16020830184610873565b9392505050565b60006020820190506108ed6000830184610891565b92915050565b600060208201905061090860008301846108a0565b92915050565b600061091982610956565b9050919050565b6000819050919050565b60007fffffffff0000000000000000000000000000000000000000000000000000000082169050919050565b600073ffffffffffffffffffffffffffffffffffffffff82169050919050565b6000819050919050565b600061098b82610992565b9050919050565b600061099d82610956565b9050919050565b6109ad8161090e565b81146109b857600080fd5b50565b6109c481610920565b81146109cf57600080fd5b50565b6109db81610976565b81146109e657600080fd5b5056fea264697066735822122069554ec8266d7d588cc2d6941a04f36a225b2c4c781b9530bec13654b942697d64736f6c63430008000033",
  "linkReferences": {},
  "deployedLinkReferences": {}
}