{
  "_format": "hh-sol-artifact-1",
  "contractName": "BasicSolverV1",
  "sourceName": "contracts/solvers/BasicSolverV1.sol",
  "abi": [
    {
      "anonymous": false,
      "inputs": [
        {
          "indexed": false,
          "internalType": "bytes32",
          "name": "conditionId",
          "type": "bytes32"
        }
      ],
      "name": "ChangedStatus",
      "type": "event"
    },
    {
      "anonymous": false,
      "inputs": [
        {
          "indexed": false,
          "internalType": "bytes32",
          "name": "conditionId",
          "type": "bytes32"
        }
      ],
      "name": "DeliveredNullArbitration",
      "type": "event"
    },
    {
      "anonymous": false,
      "inputs": [
        {
          "indexed": false,
          "internalType": "address",
          "name": "child",
          "type": "address"
        }
      ],
      "name": "DeployedChild",
      "type": "event"
    },
    {
      "anonymous": false,
      "inputs": [],
      "name": "IngestedData",
      "type": "event"
    },
    {
      "anonymous": false,
      "inputs": [
        {
          "indexed": false,
          "internalType": "uint8",
          "name": "version",
          "type": "uint8"
        }
      ],
      "name": "Initialized",
      "type": "event"
    },
    {
      "anonymous": false,
      "inputs": [
        {
          "indexed": false,
          "internalType": "address",
          "name": "solver",
          "type": "address"
        },
        {
          "indexed": false,
          "internalType": "uint256",
          "name": "solveIndex",
          "type": "uint256"
        }
      ],
      "name": "PreparedSolve",
      "type": "event"
    },
    {
      "inputs": [
        {
          "internalType": "bytes32",
          "name": "_slot",
          "type": "bytes32"
        },
        {
          "internalType": "bytes",
          "name": "_data",
          "type": "bytes"
        }
      ],
      "name": "addData",
      "outputs": [],
      "stateMutability": "nonpayable",
      "type": "function"
    },
    {
      "inputs": [
        {
          "internalType": "uint256",
          "name": "_index",
          "type": "uint256"
        }
      ],
      "name": "addressFromChainIndex",
      "outputs": [
        {
          "internalType": "address",
          "name": "_address",
          "type": "address"
        }
      ],
      "stateMutability": "view",
      "type": "function"
    },
    {
      "inputs": [
        {
          "internalType": "uint256",
          "name": "_index",
          "type": "uint256"
        }
      ],
      "name": "allocationsValid",
      "outputs": [
        {
          "internalType": "bool",
          "name": "",
          "type": "bool"
        }
      ],
      "stateMutability": "view",
      "type": "function"
    },
    {
      "inputs": [
        {
          "internalType": "uint256",
          "name": "_index",
          "type": "uint256"
        },
        {
          "internalType": "uint256[]",
          "name": "payouts",
          "type": "uint256[]"
        }
      ],
      "name": "arbitrate",
      "outputs": [],
      "stateMutability": "nonpayable",
      "type": "function"
    },
    {
      "inputs": [
        {
          "internalType": "uint256",
          "name": "_index",
          "type": "uint256"
        }
      ],
      "name": "arbitrateNull",
      "outputs": [],
      "stateMutability": "nonpayable",
      "type": "function"
    },
    {
      "inputs": [
        {
          "internalType": "uint256",
          "name": "_index",
          "type": "uint256"
        }
      ],
      "name": "arbitrationRequested",
      "outputs": [],
      "stateMutability": "nonpayable",
      "type": "function"
    },
    {
      "inputs": [],
      "name": "arbitrator",
      "outputs": [
        {
          "internalType": "address",
          "name": "",
          "type": "address"
        }
      ],
      "stateMutability": "view",
      "type": "function"
    },
    {
      "inputs": [],
      "name": "chainChild",
      "outputs": [
        {
          "internalType": "address",
          "name": "",
          "type": "address"
        }
      ],
      "stateMutability": "view",
      "type": "function"
    },
    {
      "inputs": [],
      "name": "chainIndex",
      "outputs": [
        {
          "internalType": "uint256",
          "name": "",
          "type": "uint256"
        }
      ],
      "stateMutability": "view",
      "type": "function"
    },
    {
      "inputs": [],
      "name": "chainParent",
      "outputs": [
        {
          "internalType": "address",
          "name": "",
          "type": "address"
        }
      ],
      "stateMutability": "view",
      "type": "function"
    },
    {
      "inputs": [],
      "name": "collateralBalance",
      "outputs": [
        {
          "internalType": "uint256",
          "name": "balance",
          "type": "uint256"
        }
      ],
      "stateMutability": "view",
      "type": "function"
    },
    {
      "inputs": [
        {
          "internalType": "uint256",
          "name": "index",
          "type": "uint256"
        }
      ],
      "name": "condition",
      "outputs": [
        {
          "components": [
            {
              "internalType": "contract IERC20",
              "name": "collateralToken",
              "type": "address"
            },
            {
              "internalType": "bytes32",
              "name": "questionId",
              "type": "bytes32"
            },
            {
              "internalType": "bytes32",
              "name": "parentCollectionId",
              "type": "bytes32"
            },
            {
              "internalType": "bytes32",
              "name": "conditionId",
              "type": "bytes32"
            },
            {
              "internalType": "uint256[]",
              "name": "payouts",
              "type": "uint256[]"
            },
            {
              "internalType": "enum SolverLib.Status",
              "name": "status",
              "type": "uint8"
            }
          ],
          "internalType": "struct SolverLib.Condition",
          "name": "",
          "type": "tuple"
        }
      ],
      "stateMutability": "view",
      "type": "function"
    },
    {
      "inputs": [
        {
          "internalType": "uint256",
          "name": "",
          "type": "uint256"
        }
      ],
      "name": "conditions",
      "outputs": [
        {
          "internalType": "contract IERC20",
          "name": "collateralToken",
          "type": "address"
        },
        {
          "internalType": "bytes32",
          "name": "questionId",
          "type": "bytes32"
        },
        {
          "internalType": "bytes32",
          "name": "parentCollectionId",
          "type": "bytes32"
        },
        {
          "internalType": "bytes32",
          "name": "conditionId",
          "type": "bytes32"
        },
        {
          "internalType": "enum SolverLib.Status",
          "name": "status",
          "type": "uint8"
        }
      ],
      "stateMutability": "view",
      "type": "function"
    },
    {
      "inputs": [],
      "name": "config",
      "outputs": [
        {
          "internalType": "contract Solver",
          "name": "implementation",
          "type": "address"
        },
        {
          "internalType": "address",
          "name": "keeper",
          "type": "address"
        },
        {
          "internalType": "address",
          "name": "arbitrator",
          "type": "address"
        },
        {
          "internalType": "uint256",
          "name": "timelockSeconds",
          "type": "uint256"
        },
        {
          "components": [
            {
              "internalType": "contract IERC20",
              "name": "collateralToken",
              "type": "address"
            },
            {
              "internalType": "uint256",
              "name": "outcomeSlots",
              "type": "uint256"
            },
            {
              "internalType": "uint256",
              "name": "parentCollectionIndexSet",
              "type": "uint256"
            },
            {
              "internalType": "bytes32",
              "name": "amountSlot",
              "type": "bytes32"
            },
            {
              "internalType": "uint256[]",
              "name": "partition",
              "type": "uint256[]"
            },
            {
              "components": [
                {
                  "internalType": "bytes32",
                  "name": "recipientAddressSlot",
                  "type": "bytes32"
                },
                {
                  "internalType": "bytes32[]",
                  "name": "recipientAmountSlots",
                  "type": "bytes32[]"
                }
              ],
              "internalType": "struct SolverLib.Allocation[]",
              "name": "allocations",
              "type": "tuple[]"
            },
            {
              "components": [
                {
                  "internalType": "bytes32",
                  "name": "digest",
                  "type": "bytes32"
                },
                {
                  "internalType": "uint8",
                  "name": "hashFunction",
                  "type": "uint8"
                },
                {
                  "internalType": "uint8",
                  "name": "size",
                  "type": "uint8"
                }
              ],
              "internalType": "struct SolverLib.Multihash[]",
              "name": "outcomeURIs",
              "type": "tuple[]"
            }
          ],
          "internalType": "struct SolverLib.ConditionBase",
          "name": "conditionBase",
          "type": "tuple"
        }
      ],
      "stateMutability": "view",
      "type": "function"
    },
    {
      "inputs": [
        {
          "internalType": "uint256",
          "name": "_index",
          "type": "uint256"
        }
      ],
      "name": "confirmPayouts",
      "outputs": [],
      "stateMutability": "nonpayable",
      "type": "function"
    },
    {
      "inputs": [
        {
          "components": [
            {
              "internalType": "contract Solver",
              "name": "implementation",
              "type": "address"
            },
            {
              "internalType": "address",
              "name": "keeper",
              "type": "address"
            },
            {
              "internalType": "address",
              "name": "arbitrator",
              "type": "address"
            },
            {
              "internalType": "uint256",
              "name": "timelockSeconds",
              "type": "uint256"
            },
            {
              "components": [
                {
                  "internalType": "contract IModule",
                  "name": "module",
                  "type": "address"
                },
                {
                  "internalType": "bytes",
                  "name": "data",
                  "type": "bytes"
                }
              ],
              "internalType": "struct SolverLib.ModuleLoader[]",
              "name": "moduleLoaders",
              "type": "tuple[]"
            },
            {
              "components": [
                {
                  "internalType": "uint256",
                  "name": "executions",
                  "type": "uint256"
                },
                {
                  "internalType": "enum SolverLib.IngestType",
                  "name": "ingestType",
                  "type": "uint8"
                },
                {
                  "internalType": "bytes32",
                  "name": "slot",
                  "type": "bytes32"
                },
                {
                  "internalType": "uint256",
                  "name": "solverIndex",
                  "type": "uint256"
                },
                {
                  "internalType": "bytes",
                  "name": "data",
                  "type": "bytes"
                }
              ],
              "internalType": "struct SolverLib.Ingest[]",
              "name": "ingests",
              "type": "tuple[]"
            },
            {
              "components": [
                {
                  "internalType": "contract IERC20",
                  "name": "collateralToken",
                  "type": "address"
                },
                {
                  "internalType": "uint256",
                  "name": "outcomeSlots",
                  "type": "uint256"
                },
                {
                  "internalType": "uint256",
                  "name": "parentCollectionIndexSet",
                  "type": "uint256"
                },
                {
                  "internalType": "bytes32",
                  "name": "amountSlot",
                  "type": "bytes32"
                },
                {
                  "internalType": "uint256[]",
                  "name": "partition",
                  "type": "uint256[]"
                },
                {
                  "components": [
                    {
                      "internalType": "bytes32",
                      "name": "recipientAddressSlot",
                      "type": "bytes32"
                    },
                    {
                      "internalType": "bytes32[]",
                      "name": "recipientAmountSlots",
                      "type": "bytes32[]"
                    }
                  ],
                  "internalType": "struct SolverLib.Allocation[]",
                  "name": "allocations",
                  "type": "tuple[]"
                },
                {
                  "components": [
                    {
                      "internalType": "bytes32",
                      "name": "digest",
                      "type": "bytes32"
                    },
                    {
                      "internalType": "uint8",
                      "name": "hashFunction",
                      "type": "uint8"
                    },
                    {
                      "internalType": "uint8",
                      "name": "size",
                      "type": "uint8"
                    }
                  ],
                  "internalType": "struct SolverLib.Multihash[]",
                  "name": "outcomeURIs",
                  "type": "tuple[]"
                }
              ],
              "internalType": "struct SolverLib.ConditionBase",
              "name": "conditionBase",
              "type": "tuple"
            }
          ],
          "internalType": "struct SolverLib.Config",
          "name": "_config",
          "type": "tuple"
        }
      ],
      "name": "deployChild",
      "outputs": [
        {
          "internalType": "address",
          "name": "",
          "type": "address"
        }
      ],
      "stateMutability": "nonpayable",
      "type": "function"
    },
    {
      "inputs": [
        {
          "internalType": "uint256",
          "name": "_index",
          "type": "uint256"
        }
      ],
      "name": "executeSolve",
      "outputs": [],
      "stateMutability": "nonpayable",
      "type": "function"
    },
    {
      "inputs": [
        {
          "internalType": "bytes32",
          "name": "_slot",
          "type": "bytes32"
        }
      ],
      "name": "getAllData",
      "outputs": [
        {
          "internalType": "bytes[]",
          "name": "data",
          "type": "bytes[]"
        }
      ],
      "stateMutability": "view",
      "type": "function"
    },
    {
      "inputs": [
        {
          "internalType": "bytes32",
          "name": "_slot",
          "type": "bytes32"
        }
      ],
      "name": "getCallbackOutput",
      "outputs": [
        {
          "internalType": "bytes",
          "name": "data",
          "type": "bytes"
        }
      ],
      "stateMutability": "view",
      "type": "function"
    },
    {
      "inputs": [],
      "name": "getConditions",
      "outputs": [
        {
          "components": [
            {
              "internalType": "contract IERC20",
              "name": "collateralToken",
              "type": "address"
            },
            {
              "internalType": "bytes32",
              "name": "questionId",
              "type": "bytes32"
            },
            {
              "internalType": "bytes32",
              "name": "parentCollectionId",
              "type": "bytes32"
            },
            {
              "internalType": "bytes32",
              "name": "conditionId",
              "type": "bytes32"
            },
            {
              "internalType": "uint256[]",
              "name": "payouts",
              "type": "uint256[]"
            },
            {
              "internalType": "enum SolverLib.Status",
              "name": "status",
              "type": "uint8"
            }
          ],
          "internalType": "struct SolverLib.Condition[]",
          "name": "",
          "type": "tuple[]"
        }
      ],
      "stateMutability": "view",
      "type": "function"
    },
    {
      "inputs": [],
      "name": "getConfig",
      "outputs": [
        {
          "components": [
            {
              "internalType": "contract Solver",
              "name": "implementation",
              "type": "address"
            },
            {
              "internalType": "address",
              "name": "keeper",
              "type": "address"
            },
            {
              "internalType": "address",
              "name": "arbitrator",
              "type": "address"
            },
            {
              "internalType": "uint256",
              "name": "timelockSeconds",
              "type": "uint256"
            },
            {
              "components": [
                {
                  "internalType": "contract IModule",
                  "name": "module",
                  "type": "address"
                },
                {
                  "internalType": "bytes",
                  "name": "data",
                  "type": "bytes"
                }
              ],
              "internalType": "struct SolverLib.ModuleLoader[]",
              "name": "moduleLoaders",
              "type": "tuple[]"
            },
            {
              "components": [
                {
                  "internalType": "uint256",
                  "name": "executions",
                  "type": "uint256"
                },
                {
                  "internalType": "enum SolverLib.IngestType",
                  "name": "ingestType",
                  "type": "uint8"
                },
                {
                  "internalType": "bytes32",
                  "name": "slot",
                  "type": "bytes32"
                },
                {
                  "internalType": "uint256",
                  "name": "solverIndex",
                  "type": "uint256"
                },
                {
                  "internalType": "bytes",
                  "name": "data",
                  "type": "bytes"
                }
              ],
              "internalType": "struct SolverLib.Ingest[]",
              "name": "ingests",
              "type": "tuple[]"
            },
            {
              "components": [
                {
                  "internalType": "contract IERC20",
                  "name": "collateralToken",
                  "type": "address"
                },
                {
                  "internalType": "uint256",
                  "name": "outcomeSlots",
                  "type": "uint256"
                },
                {
                  "internalType": "uint256",
                  "name": "parentCollectionIndexSet",
                  "type": "uint256"
                },
                {
                  "internalType": "bytes32",
                  "name": "amountSlot",
                  "type": "bytes32"
                },
                {
                  "internalType": "uint256[]",
                  "name": "partition",
                  "type": "uint256[]"
                },
                {
                  "components": [
                    {
                      "internalType": "bytes32",
                      "name": "recipientAddressSlot",
                      "type": "bytes32"
                    },
                    {
                      "internalType": "bytes32[]",
                      "name": "recipientAmountSlots",
                      "type": "bytes32[]"
                    }
                  ],
                  "internalType": "struct SolverLib.Allocation[]",
                  "name": "allocations",
                  "type": "tuple[]"
                },
                {
                  "components": [
                    {
                      "internalType": "bytes32",
                      "name": "digest",
                      "type": "bytes32"
                    },
                    {
                      "internalType": "uint8",
                      "name": "hashFunction",
                      "type": "uint8"
                    },
                    {
                      "internalType": "uint8",
                      "name": "size",
                      "type": "uint8"
                    }
                  ],
                  "internalType": "struct SolverLib.Multihash[]",
                  "name": "outcomeURIs",
                  "type": "tuple[]"
                }
              ],
              "internalType": "struct SolverLib.ConditionBase",
              "name": "conditionBase",
              "type": "tuple"
            }
          ],
          "internalType": "struct SolverLib.Config",
          "name": "",
          "type": "tuple"
        }
      ],
      "stateMutability": "view",
      "type": "function"
    },
    {
      "inputs": [
        {
          "internalType": "bytes32",
          "name": "_slot",
          "type": "bytes32"
        }
      ],
      "name": "getData",
      "outputs": [
        {
          "internalType": "bytes",
          "name": "data",
          "type": "bytes"
        }
      ],
      "stateMutability": "view",
      "type": "function"
    },
    {
      "inputs": [
        {
          "internalType": "bytes32",
          "name": "key",
          "type": "bytes32"
        }
      ],
      "name": "getState",
      "outputs": [
        {
          "internalType": "bytes",
          "name": "data",
          "type": "bytes"
        }
      ],
      "stateMutability": "view",
      "type": "function"
    },
    {
      "inputs": [
        {
          "internalType": "uint256",
          "name": "conditionIndex",
          "type": "uint256"
        }
      ],
      "name": "getStatus",
      "outputs": [
        {
          "internalType": "enum SolverLib.Status",
          "name": "status",
          "type": "uint8"
        }
      ],
      "stateMutability": "view",
      "type": "function"
    },
    {
      "inputs": [
        {
          "internalType": "bytes32",
          "name": "_slot",
          "type": "bytes32"
        }
      ],
      "name": "handleCallback",
      "outputs": [],
      "stateMutability": "nonpayable",
      "type": "function"
    },
    {
      "inputs": [],
      "name": "ingestsValid",
      "outputs": [
        {
          "internalType": "bool",
          "name": "",
          "type": "bool"
        }
      ],
      "stateMutability": "view",
      "type": "function"
    },
    {
      "inputs": [
        {
          "internalType": "address",
          "name": "_deployer",
          "type": "address"
        },
        {
          "internalType": "address",
          "name": "_ctfAddress",
          "type": "address"
        },
        {
          "internalType": "address",
          "name": "_chainParent",
          "type": "address"
        },
        {
          "internalType": "uint256",
          "name": "_chainIndex",
          "type": "uint256"
        },
        {
          "components": [
            {
              "internalType": "contract Solver",
              "name": "implementation",
              "type": "address"
            },
            {
              "internalType": "address",
              "name": "keeper",
              "type": "address"
            },
            {
              "internalType": "address",
              "name": "arbitrator",
              "type": "address"
            },
            {
              "internalType": "uint256",
              "name": "timelockSeconds",
              "type": "uint256"
            },
            {
              "components": [
                {
                  "internalType": "contract IModule",
                  "name": "module",
                  "type": "address"
                },
                {
                  "internalType": "bytes",
                  "name": "data",
                  "type": "bytes"
                }
              ],
              "internalType": "struct SolverLib.ModuleLoader[]",
              "name": "moduleLoaders",
              "type": "tuple[]"
            },
            {
              "components": [
                {
                  "internalType": "uint256",
                  "name": "executions",
                  "type": "uint256"
                },
                {
                  "internalType": "enum SolverLib.IngestType",
                  "name": "ingestType",
                  "type": "uint8"
                },
                {
                  "internalType": "bytes32",
                  "name": "slot",
                  "type": "bytes32"
                },
                {
                  "internalType": "uint256",
                  "name": "solverIndex",
                  "type": "uint256"
                },
                {
                  "internalType": "bytes",
                  "name": "data",
                  "type": "bytes"
                }
              ],
              "internalType": "struct SolverLib.Ingest[]",
              "name": "ingests",
              "type": "tuple[]"
            },
            {
              "components": [
                {
                  "internalType": "contract IERC20",
                  "name": "collateralToken",
                  "type": "address"
                },
                {
                  "internalType": "uint256",
                  "name": "outcomeSlots",
                  "type": "uint256"
                },
                {
                  "internalType": "uint256",
                  "name": "parentCollectionIndexSet",
                  "type": "uint256"
                },
                {
                  "internalType": "bytes32",
                  "name": "amountSlot",
                  "type": "bytes32"
                },
                {
                  "internalType": "uint256[]",
                  "name": "partition",
                  "type": "uint256[]"
                },
                {
                  "components": [
                    {
                      "internalType": "bytes32",
                      "name": "recipientAddressSlot",
                      "type": "bytes32"
                    },
                    {
                      "internalType": "bytes32[]",
                      "name": "recipientAmountSlots",
                      "type": "bytes32[]"
                    }
                  ],
                  "internalType": "struct SolverLib.Allocation[]",
                  "name": "allocations",
                  "type": "tuple[]"
                },
                {
                  "components": [
                    {
                      "internalType": "bytes32",
                      "name": "digest",
                      "type": "bytes32"
                    },
                    {
                      "internalType": "uint8",
                      "name": "hashFunction",
                      "type": "uint8"
                    },
                    {
                      "internalType": "uint8",
                      "name": "size",
                      "type": "uint8"
                    }
                  ],
                  "internalType": "struct SolverLib.Multihash[]",
                  "name": "outcomeURIs",
                  "type": "tuple[]"
                }
              ],
              "internalType": "struct SolverLib.ConditionBase",
              "name": "conditionBase",
              "type": "tuple"
            }
          ],
          "internalType": "struct SolverLib.Config",
          "name": "_solverConfig",
          "type": "tuple"
        }
      ],
      "name": "init",
      "outputs": [],
      "stateMutability": "nonpayable",
      "type": "function"
    },
    {
      "inputs": [
        {
          "internalType": "bytes4",
          "name": "selector",
          "type": "bytes4"
        }
      ],
      "name": "isPermittedModule",
      "outputs": [
        {
          "internalType": "bool",
          "name": "",
          "type": "bool"
        }
      ],
      "stateMutability": "view",
      "type": "function"
    },
    {
      "inputs": [
        {
          "internalType": "address",
          "name": "account",
          "type": "address"
        },
        {
          "internalType": "uint256",
          "name": "conditionIndex",
          "type": "uint256"
        }
      ],
      "name": "isRecipient",
      "outputs": [
        {
          "internalType": "bool",
          "name": "",
          "type": "bool"
        }
      ],
      "stateMutability": "view",
      "type": "function"
    },
    {
      "inputs": [],
      "name": "keeper",
      "outputs": [
        {
          "internalType": "address",
          "name": "",
          "type": "address"
        }
      ],
      "stateMutability": "view",
      "type": "function"
    },
    {
      "inputs": [
        {
          "internalType": "address",
          "name": "operator",
          "type": "address"
        },
        {
          "internalType": "address",
          "name": "from",
          "type": "address"
        },
        {
          "internalType": "uint256[]",
          "name": "ids",
          "type": "uint256[]"
        },
        {
          "internalType": "uint256[]",
          "name": "values",
          "type": "uint256[]"
        },
        {
          "internalType": "bytes",
          "name": "data",
          "type": "bytes"
        }
      ],
      "name": "onERC1155BatchReceived",
      "outputs": [
        {
          "internalType": "bytes4",
          "name": "",
          "type": "bytes4"
        }
      ],
      "stateMutability": "nonpayable",
      "type": "function"
    },
    {
      "inputs": [
        {
          "internalType": "address",
          "name": "operator",
          "type": "address"
        },
        {
          "internalType": "address",
          "name": "from",
          "type": "address"
        },
        {
          "internalType": "uint256",
          "name": "id",
          "type": "uint256"
        },
        {
          "internalType": "uint256",
          "name": "value",
          "type": "uint256"
        },
        {
          "internalType": "bytes",
          "name": "data",
          "type": "bytes"
        }
      ],
      "name": "onERC1155Received",
      "outputs": [
        {
          "internalType": "bytes4",
          "name": "",
          "type": "bytes4"
        }
      ],
      "stateMutability": "nonpayable",
      "type": "function"
    },
    {
      "inputs": [
        {
          "internalType": "uint256",
          "name": "_index",
          "type": "uint256"
        }
      ],
      "name": "prepareSolve",
      "outputs": [],
      "stateMutability": "nonpayable",
      "type": "function"
    },
    {
      "inputs": [
        {
          "internalType": "uint256",
          "name": "_index",
          "type": "uint256"
        },
        {
          "internalType": "uint256[]",
          "name": "_payouts",
          "type": "uint256[]"
        }
      ],
      "name": "proposePayouts",
      "outputs": [],
      "stateMutability": "nonpayable",
      "type": "function"
    },
    {
      "inputs": [
        {
          "internalType": "contract IERC20",
          "name": "_collateralToken",
          "type": "address"
        },
        {
          "internalType": "bytes32",
          "name": "_parentCollectionId",
          "type": "bytes32"
        },
        {
          "internalType": "bytes32",
          "name": "_conditionId",
          "type": "bytes32"
        },
        {
          "internalType": "uint256[]",
          "name": "_indexSets",
          "type": "uint256[]"
        }
      ],
      "name": "redeemPosition",
      "outputs": [],
      "stateMutability": "nonpayable",
      "type": "function"
    },
    {
      "inputs": [
        {
          "internalType": "bytes32",
          "name": "_slot",
          "type": "bytes32"
        },
        {
          "internalType": "uint256",
          "name": "_chainIndex",
          "type": "uint256"
        }
      ],
      "name": "registerOutgoingCallback",
      "outputs": [],
      "stateMutability": "nonpayable",
      "type": "function"
    },
    {
      "inputs": [
        {
          "internalType": "bytes32",
          "name": "key",
          "type": "bytes32"
        },
        {
          "internalType": "bytes",
          "name": "data",
          "type": "bytes"
        }
      ],
      "name": "setState",
      "outputs": [],
      "stateMutability": "nonpayable",
      "type": "function"
    },
    {
      "inputs": [
        {
          "internalType": "uint256",
          "name": "_index",
          "type": "uint256"
        },
        {
          "internalType": "uint256",
          "name": "_date",
          "type": "uint256"
        }
      ],
      "name": "setTimelock",
      "outputs": [],
      "stateMutability": "nonpayable",
      "type": "function"
    },
    {
      "inputs": [
        {
          "internalType": "bytes32",
          "name": "_trackingId",
          "type": "bytes32"
        }
      ],
      "name": "setTrackingId",
      "outputs": [],
      "stateMutability": "nonpayable",
      "type": "function"
    },
    {
      "inputs": [
        {
          "internalType": "bytes4",
          "name": "interfaceId",
          "type": "bytes4"
        }
      ],
      "name": "supportsInterface",
      "outputs": [
        {
          "internalType": "bool",
          "name": "",
          "type": "bool"
        }
      ],
      "stateMutability": "view",
      "type": "function"
    },
    {
      "inputs": [
        {
          "internalType": "uint256",
          "name": "",
          "type": "uint256"
        }
      ],
      "name": "timelocks",
      "outputs": [
        {
          "internalType": "uint256",
          "name": "",
          "type": "uint256"
        }
      ],
      "stateMutability": "view",
      "type": "function"
    },
    {
      "inputs": [],
      "name": "trackingId",
      "outputs": [
        {
          "internalType": "bytes32",
          "name": "",
          "type": "bytes32"
        }
      ],
      "stateMutability": "view",
      "type": "function"
    }
  ],
  "bytecode": "0x60806040523480156200001157600080fd5b506200001c62000022565b6200013b565b6200002e60ff62000031565b50565b60008054610100900460ff16156200009a578160ff1660011480156200006a57506200006830620000de60201b62002c361760201c565b155b620000925760405162461bcd60e51b81526004016200008990620000ed565b60405180910390fd5b506000919050565b60005460ff808416911610620000c45760405162461bcd60e51b81526004016200008990620000ed565b506000805460ff191660ff92909216919091179055600190565b6001600160a01b03163b151590565b6020808252602e908201527f496e697469616c697a61626c653a20636f6e747261637420697320616c72656160408201526d191e481a5b9a5d1a585b1a5e995960921b606082015260800190565b615924806200014b6000396000f3fe608060405234801561001057600080fd5b50600436106101ee5760003560e01c806301ffc9a7146101f357806309648a9d1461021b5780630d06101a1461023b5780630d7e149f146102505780630d8d3975146102715780630ebe1bbd14610284578063187825591461029757806326c50007146102aa5780633837b05e146102ce5780633f4fb5aa146102ee57806344c3b6071461030157806348cbb2fc146103145780634a77234e1461031d5780634dab5e69146103305780634e46f22314610343578063506da0b81461035657806354f6127f1461036957806355dd978b1461037c5780635c622a0e1461038f5780636cc6cde1146103af57806379502c55146103c05780637c123627146103d957806380b204b7146103ee57806380c2dde21461040157806381296f6f146104145780638602ce1b1461042757806387dfee571461043a578063999925061461044d578063a272ebcf14610455578063aced166114610468578063b992db0f14610479578063bc197c811461048c578063c08d6f01146104bb578063c3f909d4146104db578063c8abf6da146104f0578063c98c05b714610503578063de3a23c51461050b578063df33cc511461051e578063ea8221a914610531578063ed25d1781461053a578063f23a6e611461054d578063f24fc90314610560575b600080fd5b6102066102013660046136dd565b610580565b60405190151581526020015b60405180910390f35b61022e610229366004613707565b6105b7565b604051610212919061377c565b61024e610249366004613707565b610659565b005b61026361025e366004613707565b6106bb565b604051908152602001610212565b61024e61027f366004613707565b6106dc565b61024e6102923660046137c7565b61082e565b61024e6102a5366004613890565b6109ef565b6102bd6102b8366004613707565b610a9f565b604051610212959493929190613930565b6102e16102dc366004613707565b610aed565b6040516102129190613962565b61022e6102fc366004613707565b610bfe565b61020661030f366004613707565b610c95565b61026360155481565b61024e61032b366004613707565b610d1a565b61024e61033e366004613707565b611076565b61024e610351366004613707565b611208565b610206610364366004613976565b6112cf565b61022e610377366004613707565b611414565b6012546102e1906001600160a01b031681565b6103a261039d366004613707565b611434565b60405161021291906139a2565b6005546001600160a01b03166102e1565b6103c8611466565b604051610212959493929190613b39565b6103e1611653565b6040516102129190613be0565b61024e6103fc366004613c42565b611766565b6011546102e1906001600160a01b031681565b61024e610422366004613d78565b6118d9565b61024e610435366004613d78565b611944565b61024e610448366004613de1565b611a3c565b610206611bcc565b6102066104633660046136dd565b611c51565b6004546001600160a01b03166102e1565b61024e610487366004613707565b611ce3565b6104ae61049a366004613ebe565b63bc197c8160e01b98975050505050505050565b6040516102129190613f7c565b6104ce6104c9366004613707565b611ef7565b6040516102129190613f91565b6104e3611fdc565b60405161021291906140ec565b61024e6104fe36600461418b565b612448565b6102636124c5565b61024e610519366004613707565b612537565b61024e61052c36600461418b565b612861565b61026360135481565b6102e16105483660046141ad565b6129a8565b6104ae61055b3660046141e9565b612b06565b61057361056e366004613707565b612b19565b6040516102129190614264565b60006001600160e01b03198216630271189760e51b14806105b157506301ffc9a760e01b6001600160e01b03198316145b92915050565b6000818152601c602052604090208054606091906105d490614277565b80601f016020809104026020016040519081016040528092919081815260200182805461060090614277565b801561064d5780601f106106225761010080835404028352916020019161064d565b820191906000526020600020905b81548152906001019060200180831161063057829003601f168201915b50505050509050919050565b6015541561069f5760405162461bcd60e51b815260206004820152600e60248201526d151c9858dada5b99d259081cd95d60921b60448201526064015b60405180910390fd5b6002546001600160a01b031633146106b657600080fd5b601555565b601481815481106106cb57600080fd5b600091825260209091200154905081565b601481815481106106ef576106ef6142ab565b906000526020600020015442116107185760405162461bcd60e51b8152600401610696906142c1565b60026010828154811061072d5761072d6142ab565b60009182526020909120600560069092020181015460ff169081111561075557610755613906565b146107915760405162461bcd60e51b815260206004820152600c60248201526b139bdd081c1c9bdc1bdcd95960a21b6044820152606401610696565b6001546010805473__$3ec311f63f1cd166364ee887ad77eb9bd8$__926385c92867926001600160a01b0390911691859081106107d0576107d06142ab565b90600052602060002090600602016040518363ffffffff1660e01b81526004016107fb9291906142e5565b60006040518083038186803b15801561081357600080fd5b505af4158015610827573d6000803e3d6000fd5b5050505050565b600061083a6001612c45565b90508015610852576000805461ff0019166101001790555b600061086460408401602085016142fe565b6001600160a01b0316036108ab5760405162461bcd60e51b815260206004820152600e60248201526d12d9595c195c881a5b9d985b1a5960921b6044820152606401610696565b600280546001600160a01b03199081166001600160a01b03898116919091179092556000805462010000600160b01b0319163362010000021790556001805482168884161790556011805490911691861691909117905560138390558160036109148282614af4565b90505060005b61092760a084018461433b565b905081101561098b5780601b600061094260a087018761433b565b85818110610952576109526142ab565b905060200281019061096491906145a5565b6040908101358252602082019290925201600020558061098381614c5a565b91505061091a565b506109a161099c608084018461433b565b612ccc565b80156109e7576000805461ff0019169055604051600181527f7f26b83ff96e1f2b6a682f133852f6798a09c465da95921460cefb38474024989060200160405180910390a15b505050505050565b6004546001600160a01b0316331480610a135750610a13631878255960e01b611c51565b610a2f5760405162461bcd60e51b815260040161069690614c73565b600154604051626dc0df60e21b81526001600160a01b03909116906301b7037c90610a669088908890889088908890600401614cce565b600060405180830381600087803b158015610a8057600080fd5b505af1158015610a94573d6000803e3d6000fd5b505050505050505050565b60108181548110610aaf57600080fd5b6000918252602090912060069091020180546001820154600283015460038401546005909401546001600160a01b0390931694509092909160ff1685565b60006013548203610aff575030919050565b601354821015610b8e576011546001600160a01b0316610b2157506000919050565b601154604051631c1bd82f60e11b8152600481018490526001600160a01b0390911690633837b05e90602401602060405180830381865afa158015610b6a573d6000803e3d6000fd5b505050506040513d601f19601f820116820180604052508101906105b19190614cfc565b601354821115610bf9576012546001600160a01b0316610bb057506000919050565b601254604051631c1bd82f60e11b8152600481018490526001600160a01b0390911690633837b05e90602401602060405180830381865afa158015610b6a573d6000803e3d6000fd5b919050565b6010546000828152601a602052604090205460609114610c545760405162461bcd60e51b815260206004820152601160248201527029b637ba1034b73b30b634b2103b32b91760791b6044820152606401610696565b6000828152601a602052604090208054610c7090600190614d19565b81548110610c8057610c806142ab565b9060005260206000200180546105d490614277565b6040516336d39c6160e11b815260048101829052601a60248201526009604482015260009073__$3ec311f63f1cd166364ee887ad77eb9bd8$__90636da738c290606401602060405180830381865af4158015610cf6573d6000803e3d6000fd5b505050506040513d601f19601f820116820180604052508101906105b19190614d30565b60105415610d9c576004546001600160a01b0316331480610d4557506011546001600160a01b031633145b80610d5b5750610d5b63253b91a760e11b611c51565b610d9c5760405162461bcd60e51b815260206004820152601260248201527113db9b1e481ad9595c195c8bdc185c995b9d60721b6044820152606401610696565b6010548114610ddd5760405162461bcd60e51b815260206004820152600d60248201526c092dcecc2d8d2c840d2dcc8caf609b1b6044820152606401610696565b60175415610e1c5760405162461bcd60e51b815260206004820152600c60248201526b6f7574676f696e672063627360a01b6044820152606401610696565b60165415610e5b5760405162461bcd60e51b815260206004820152600c60248201526b696e636f6d696e672063627360a01b6044820152606401610696565b6001546011546010805460405163699e0add60e01b8152919373__$3ec311f63f1cd166364ee887ad77eb9bd8$__9363699e0add93610ead936001600160a01b03938416936009931691600401614e75565b600060405180830381865af4158015610eca573d6000803e3d6000fd5b505050506040513d6000823e601f3d908101601f19168201604052610ef29190810190614f36565b8154600180820184556000938452602093849020835160069093020180546001600160a01b0319166001600160a01b03909316929092178255828401519082015560408201516002820155606082015160038201556080820151805192939192610f629260048501920190613569565b5060a08201518160050160006101000a81548160ff02191690836005811115610f8d57610f8d613906565b0217905550506014805460018101825560009182527fce6d7b5282bd9a3661ae061feed1dbda4e52ab073b1f9285be6e155d9c38d4ec015550610fce612da1565b7f152ec8ae15d347b2d2a8f0858caa29bcaaa0906749a1f43e08bfe799834602403082604051610fff9291906142e5565b60405180910390a16012546001600160a01b0316156110735760125460405163253b91a760e11b8152600481018390526001600160a01b0390911690634a77234e906024015b600060405180830381600087803b15801561105f57600080fd5b505af1158015610827573d6000803e3d6000fd5b50565b6005546001600160a01b031633148061109a575061109a634dab5e6960e01b611c51565b6110b65760405162461bcd60e51b81526004016106969061503a565b6002601082815481106110cb576110cb6142ab565b60009182526020909120600560069092020181015460ff16908111156110f3576110f3613906565b1480611139575060036010828154811061110f5761110f6142ab565b60009182526020909120600560069092020181015460ff169081111561113757611137613906565b145b6111765760405162461bcd60e51b815260206004820152600e60248201526d10d85b9b9bdd081c995c5d595cdd60921b6044820152606401610696565b73__$3ec311f63f1cd166364ee887ad77eb9bd8$__6324b28602601083815481106111a3576111a36142ab565b90600052602060002090600602016040518263ffffffff1660e01b81526004016111cf91815260200190565b60006040518083038186803b1580156111e757600080fd5b505af41580156111fb573d6000803e3d6000fd5b505050506110738161301f565b6005546001600160a01b031633148061122c575061122c634e46f22360e01b611c51565b6112485760405162461bcd60e51b81526004016106969061503a565b60036010828154811061125d5761125d6142ab565b60009182526020909120600560069092020181015460ff169081111561128557611285613906565b146112a25760405162461bcd60e51b815260040161069690615063565b73__$3ec311f63f1cd166364ee887ad77eb9bd8$__6359111fb5601083815481106111a3576111a36142ab565b6000805b600e5481101561140a57600e8054600091601a91839190859081106112fa576112fa6142ab565b9060005260206000209060020201600001548152602001908152602001600020848154811061132b5761132b6142ab565b90600052602060002001805461134090614277565b80601f016020809104026020016040519081016040528092919081815260200182805461136c90614277565b80156113b95780601f1061138e576101008083540402835291602001916113b9565b820191906000526020600020905b81548152906001019060200180831161139c57829003601f168201915b50505050508060200190518101906113d19190614cfc565b9050806001600160a01b0316856001600160a01b0316036113f7576001925050506105b1565b508061140281614c5a565b9150506112d3565b5060009392505050565b6000818152601a60205260409020805460609190610c7090600190614d19565b600060108281548110611449576114496142ab565b600091825260209091206005600690920201015460ff1692915050565b600380546004546005546006546040805160e081018252600980546001600160a01b039081168352600a54602080850191909152600b5484860152600c546060850152600d80548651818402810184019097528087529983169a9883169997909216979596939492936080860193929183018282801561150557602002820191906000526020600020905b8154815260200190600101908083116114f1575b5050505050815260200160058201805480602002602001604051908101604052809291908181526020016000905b828210156115c7578382906000526020600020906002020160405180604001604052908160008201548152602001600182018054806020026020016040519081016040528092919081815260200182805480156115af57602002820191906000526020600020905b81548152602001906001019080831161159b575b50505050508152505081526020019060010190611533565b50505050815260200160068201805480602002602001604051908101604052809291908181526020016000905b8282101561164657600084815260209081902060408051606081018252600286029092018054835260019081015460ff80821685870152610100909104169183019190915290835290920191016115f4565b5050505081525050905085565b60606010805480602002602001604051908101604052809291908181526020016000905b8282101561175d5760008481526020908190206040805160c0810182526006860290920180546001600160a01b03168352600181015483850152600281015483830152600381015460608401526004810180548351818702810187019094528084529394919360808601939283018282801561171257602002820191906000526020600020905b8154815260200190600101908083116116fe575b505050918352505060058281015460209092019160ff169081111561173957611739613906565b600581111561174a5761174a613906565b8152505081526020019060010190611677565b50505050905090565b6004546001600160a01b031633148061178a575061178a6380b204b760e01b611c51565b6117a65760405162461bcd60e51b815260040161069690614c73565b600a5481146117c75760405162461bcd60e51b815260040161069690615095565b6001601084815481106117dc576117dc6142ab565b60009182526020909120600560069092020181015460ff169081111561180457611804613906565b146118405760405162461bcd60e51b815260206004820152600c60248201526b139bdd08115e1958dd5d195960a21b6044820152606401610696565b73__$3ec311f63f1cd166364ee887ad77eb9bd8$__636a0a24f16010858154811061186d5761186d6142ab565b906000526020600020906006020184846040518463ffffffff1660e01b815260040161189b939291906150cc565b60006040518083038186803b1580156118b357600080fd5b505af41580156118c7573d6000803e3d6000fd5b505050506118d48361301f565b505050565b6118e96381296f6f60e01b611c51565b6119255760405162461bcd60e51b815260206004820152600d60248201526c139bdd081c195c9b5a5d1d1959609a1b6044820152606401610696565b6000828152601c6020908152604090912082516118d4928401906135b4565b6004546001600160a01b03163314806119685750611968638602ce1b60e01b611c51565b6119845760405162461bcd60e51b815260040161069690614c73565b6000828152601b6020526040902054600880546003929081106119a9576119a96142ab565b600091825260209091206001600590920201015460ff1660038111156119d1576119d1613906565b14611a175760405162461bcd60e51b81526020600482015260166024820152751bdb9b1e48125b99d95cdd151e5c194b93585b9d585b60521b6044820152606401610696565b611a218282613059565b6040516000805160206158cf83398151915290600090a15050565b6005546001600160a01b0316331480611a605750611a606387dfee5760e01b611c51565b611a7c5760405162461bcd60e51b81526004016106969061503a565b600360108381548110611a9157611a916142ab565b60009182526020909120600560069092020181015460ff1690811115611ab957611ab9613906565b14611ad65760405162461bcd60e51b815260040161069690615063565b60148281548110611ae957611ae96142ab565b90600052602060002001544211611b125760405162461bcd60e51b8152600401610696906142c1565b600a54815114611b345760405162461bcd60e51b815260040161069690615095565b6001546010805473__$3ec311f63f1cd166364ee887ad77eb9bd8$__92631b948e49926001600160a01b039091169186908110611b7357611b736142ab565b9060005260206000209060060201846040518463ffffffff1660e01b8152600401611ba0939291906150e6565b60006040518083038186803b158015611bb857600080fd5b505af41580156109e7573d6000803e3d6000fd5b601054604051635cc1f6b560e01b815260009173__$3ec311f63f1cd166364ee887ad77eb9bd8$__91635cc1f6b591611c0b9160089190600401615143565b602060405180830381865af4158015611c28573d6000803e3d6000fd5b505050506040513d601f19601f82011682018060405250810190611c4c9190614d30565b905090565b336000908152601d602052604081205460ff161515600103611cdb576040516311247ecf60e11b81526000903390632248fd9e90611c93908690600401613f7c565b602060405180830381865afa158015611cb0573d6000803e3d6000fd5b505050506040513d601f19601f82011682018060405250810190611cd49190614d30565b9392505050565b506000919050565b611ceb611bcc565b1515600114611d2e5760405162461bcd60e51b815260206004820152600f60248201526e1a5b99d95cdd1cc81a5b9d985b1a59608a1b6044820152606401610696565b73__$3ec311f63f1cd166364ee887ad77eb9bd8$__632dd4082482600160009054906101000a90046001600160a01b031660108581548110611d7257611d726142ab565b60009182526020808320601554601154600c548652601a938490526040909520805460069095029092019460099491926001600160a01b03909116918b908110611dbe57611dbe6142ab565b906000526020600020018054611dd390614277565b80601f0160208091040260200160405190810160405280929190818152602001828054611dff90614277565b8015611e4c5780601f10611e2157610100808354040283529160200191611e4c565b820191906000526020600020905b815481529060010190602001808311611e2f57829003601f168201915b5050505050806020019051810190611e64919061525c565b60405160e08a901b6001600160e01b031916815260048101989098526001600160a01b03968716602489015260448801959095526064870193909352608486019190915260a485015290911660c483015260e48201526101040160006040518083038186803b158015611ed657600080fd5b505af4158015611eea573d6000803e3d6000fd5b50505050611073816130f7565b6000818152601a60209081526040808320805482518185028101850190935280835260609492939192909184015b82821015611fd1578382906000526020600020018054611f4490614277565b80601f0160208091040260200160405190810160405280929190818152602001828054611f7090614277565b8015611fbd5780601f10611f9257610100808354040283529160200191611fbd565b820191906000526020600020905b815481529060010190602001808311611fa057829003601f168201915b505050505081526020019060010190611f25565b505050509050919050565b611fe4613627565b6040805160e081018252600380546001600160a01b0390811683526004548116602080850191909152600554909116838501526006546060840152600780548551818402810184019096528086529394929360808601939260009084015b8282101561211b576000848152602090819020604080518082019091526002850290910180546001600160a01b03168252600181018054929391929184019161208a90614277565b80601f01602080910402602001604051908101604052809291908181526020018280546120b690614277565b80156121035780601f106120d857610100808354040283529160200191612103565b820191906000526020600020905b8154815290600101906020018083116120e657829003601f168201915b50505050508152505081526020019060010190612042565b50505050815260200160058201805480602002602001604051908101604052809291908181526020016000905b8282101561226357838290600052602060002090600502016040518060a0016040529081600082015481526020016001820160009054906101000a900460ff16600381111561219957612199613906565b60038111156121aa576121aa613906565b815260200160028201548152602001600382015481526020016004820180546121d290614277565b80601f01602080910402602001604051908101604052809291908181526020018280546121fe90614277565b801561224b5780601f106122205761010080835404028352916020019161224b565b820191906000526020600020905b81548152906001019060200180831161222e57829003601f168201915b50505050508152505081526020019060010190612148565b505050908252506040805160e0810182526006840180546001600160a01b03168252600785015460208381019190915260088601548385015260098601546060840152600a8601805485518184028101840190965280865295820195939492936080860193928301828280156122f857602002820191906000526020600020905b8154815260200190600101908083116122e4575b5050505050815260200160058201805480602002602001604051908101604052809291908181526020016000905b828210156123ba578382906000526020600020906002020160405180604001604052908160008201548152602001600182018054806020026020016040519081016040528092919081815260200182805480156123a257602002820191906000526020600020905b81548152602001906001019080831161238e575b50505050508152505081526020019060010190612326565b50505050815260200160068201805480602002602001604051908101604052809291908181526020016000905b8282101561243957600084815260209081902060408051606081018252600286029092018054835260019081015460ff80821685870152610100909104169183019190915290835290920191016123e7565b50505091525050905250919050565b612458636455fb6d60e11b611c51565b6124975760405162461bcd60e51b815260206004820152601060248201526f13db9b1e48151a5b594815da5e985c9960821b6044820152606401610696565b6124a28160016143ba565b601483815481106124b5576124b56142ab565b6000918252602090912001555050565b6009546040516370a0823160e01b81526000916001600160a01b0316906370a08231906124f6903090600401613962565b602060405180830381865afa158015612513573d6000803e3d6000fd5b505050506040513d601f19601f82011682018060405250810190611c4c919061525c565b6000338260405160200161254c929190615275565b60408051601f19818403018152918152815160209283012060008181526019909352912054600880549293506125a492909190811061258d5761258d6142ab565b906000526020600020906005020160030154610aed565b6001600160a01b0316336001600160a01b0316146125d45760405162461bcd60e51b815260040161069690615292565b6000818152601960205260408120546008805490919081106125f8576125f86142ab565b600091825260209091206001600590920201015460ff16600381111561262057612620613906565b146126565760405162461bcd60e51b81526020600482015260066024820152653737ba1021b160d11b6044820152606401610696565b60008181526019602052604090205460088054909190811061267a5761267a6142ab565b60009182526020822060059091020180549161269583614c5a565b909155505060008181526019602052604090205460088054612822929081106126c0576126c06142ab565b906000526020600020906005020160020154336001600160a01b0316633f4fb5aa600360050160166003016000878152602001908152602001600020548154811061270d5761270d6142ab565b9060005260206000209060050201600401805461272990614277565b80601f016020809104026020016040519081016040528092919081815260200182805461275590614277565b80156127a25780601f10612777576101008083540402835291602001916127a2565b820191906000526020600020905b81548152906001019060200180831161278557829003601f168201915b50505050508060200190518101906127ba919061525c565b6040518263ffffffff1660e01b81526004016127d891815260200190565b600060405180830381865afa1580156127f5573d6000803e3d6000fd5b505050506040513d6000823e601f3d908101601f1916820160405261281d91908101906152c1565b613059565b600081815260196020526040812081905560168054916128418361532e565b90915550506040516000805160206158cf83398151915290600090a15050565b60135481116128aa5760405162461bcd60e51b8152602060048201526015602482015274736f6c766572206e6f7420646f776e73747265616d60581b6044820152606401610696565b6128b381610aed565b6001600160a01b0316336001600160a01b0316146128e35760405162461bcd60e51b815260040161069690615292565b6000828152601a60205260409020541580159061290f57506010546000838152601a6020526040902054145b156129615760405163de3a23c560e01b815260048101839052339063de3a23c590602401600060405180830381600087803b15801561294d57600080fd5b505af11580156109e7573d6000803e3d6000fd5b6000828152601860209081526040822080546001810182559083529082200180546001600160a01b03191633179055601780549161299e83614c5a565b91905055505b5050565b6004546000906001600160a01b03163314806129cf57506129cf631da4ba2f60e31b611c51565b612a095760405162461bcd60e51b815260206004820152600b60248201526a27b7363c9035b2b2b832b960a91b6044820152606401610696565b6012546001600160a01b031615612a4e5760405162461bcd60e51b815260206004820152600960248201526812185cc818da1a5b1960ba1b6044820152606401610696565b6000546013546015546040516386a2d22760e01b815273__$3ec311f63f1cd166364ee887ad77eb9bd8$__936386a2d22793612aa093620100009092046001600160a01b031692889290600401615703565b602060405180830381865af4158015612abd573d6000803e3d6000fd5b505050506040513d601f19601f82011682018060405250810190612ae19190614cfc565b601280546001600160a01b0319166001600160a01b0392909216918217905592915050565b63f23a6e6160e01b5b9695505050505050565b612b4e6040805160c081018252600080825260208201819052918101829052606080820183905260808201529060a082015290565b60108281548110612b6157612b616142ab565b60009182526020918290206040805160c081018252600690930290910180546001600160a01b031683526001810154838501526002810154838301526003810154606084015260048101805483518187028101870190945280845293949193608086019392830182828015612bf557602002820191906000526020600020905b815481526020019060010190808311612be1575b505050918352505060058281015460209092019160ff1690811115612c1c57612c1c613906565b6005811115612c2d57612c2d613906565b90525092915050565b6001600160a01b03163b151590565b60008054610100900460ff1615612c8b578160ff166001148015612c6f5750612c6d30612c36565b155b611cdb5760405162461bcd60e51b8152600401610696906157f3565b60005460ff808416911610612cb25760405162461bcd60e51b8152600401610696906157f3565b506000805460ff191660ff92909216919091179055600190565b60005b818110156118d4576000838383818110612ceb57612ceb6142ab565b9050602002810190612cfd9190614384565b612d0690615841565b80516001600160a01b039081166000908152601d6020908152604091829020805460ff191660011790558351908401519151630f3bd93360e21b815293945090911691633cef64cc91612d5b9160040161377c565b600060405180830381600087803b158015612d7557600080fd5b505af1158015612d89573d6000803e3d6000fd5b50505050508080612d9990614c5a565b915050612ccf565b60005b6008548110156130055760006008805483908110612dc457612dc46142ab565b600091825260209091206001600590920201015460ff166003811115612dec57612dec613906565b14612e2257612e1d60036005018281548110612e0a57612e0a6142ab565b906000526020600020906005020161322d565b612ff3565b6000306001600160a01b0316633837b05e60036005018481548110612e4957612e496142ab565b9060005260206000209060050201600301546040518263ffffffff1660e01b8152600401612e7991815260200190565b602060405180830381865afa158015612e96573d6000803e3d6000fd5b505050506040513d601f19601f82011682018060405250810190612eba9190614cfc565b9050612ec68183613319565b806001600160a01b031663df33cc5160036005018481548110612eeb57612eeb6142ab565b90600052602060002090600502016004018054612f0790614277565b80601f0160208091040260200160405190810160405280929190818152602001828054612f3390614277565b8015612f805780601f10612f5557610100808354040283529160200191612f80565b820191906000526020600020905b815481529060010190602001808311612f6357829003601f168201915b5050505050806020019051810190612f98919061525c565b6013546040516001600160e01b031960e085901b16815260048101929092526024820152604401600060405180830381600087803b158015612fd957600080fd5b505af1158015612fed573d6000803e3d6000fd5b50505050505b80612ffd81614c5a565b915050612da4565b506040516000805160206158cf83398151915290600090a1565b60065461302d9060016143ba565b61303790426158b6565b6014828154811061304a5761304a6142ab565b60009182526020909120015550565b60105461306890600190614d19565b6000838152601a6020526040902054146130bb5760405162461bcd60e51b815260206004820152601460248201527314db1bdd081d995c9cda5bdb881a5b9d985b1a5960621b6044820152606401610696565b6000828152601a60209081526040822080546001810182559083529181902083516130ed9391909101918401906135b4565b506129a48261342f565b6012546001600160a01b0316158015906131835750601260009054906101000a90046001600160a01b03166001600160a01b031663999925066040518163ffffffff1660e01b8152600401602060405180830381865afa15801561315f573d6000803e3d6000fd5b505050506040513d601f19601f820116820180604052508101906131839190614d30565b80156131f757506012546040516344c3b60760e01b8152600481018390526001600160a01b03909116906344c3b60790602401602060405180830381865afa1580156131d3573d6000803e3d6000fd5b505050506040513d601f19601f820116820180604052508101906131f79190614d30565b156110735760125460405163b992db0f60e01b8152600481018390526001600160a01b039091169063b992db0f90602401611045565b600181015460039060ff168181111561324857613248613906565b111561328b5760405162461bcd60e51b8152602060048201526012602482015271496e76616c696420696e676573745479706560701b6044820152606401610696565b805481600061329983614c5a565b9091555060039050600182015460ff1660038111156132ba576132ba613906565b1461107357600281015460405163b3d7370760e01b815260048101839052611073919073__$3ec311f63f1cd166364ee887ad77eb9bd8$__9063b3d7370790602401600060405180830381865af41580156127f5573d6000803e3d6000fd5b80601660030160008460036005018581548110613338576133386142ab565b9060005260206000209060050201600401805461335490614277565b80601f016020809104026020016040519081016040528092919081815260200182805461338090614277565b80156133cd5780601f106133a2576101008083540402835291602001916133cd565b820191906000526020600020905b8154815290600101906020018083116133b057829003601f168201915b50505050508060200190518101906133e5919061525c565b6040516020016133f6929190615275565b60408051601f19818403018152918152815160209283012083529082019290925201600090812091909155601680549161299e83614c5a565b60005b6000828152601860205260409020548110156129a4576000828152601860205260408120805483908110613468576134686142ab565b6000918252602090912001546001600160a01b0316146135575760008281526018602052604090208054829081106134a2576134a26142ab565b60009182526020909120015460405163de3a23c560e01b8152600481018490526001600160a01b039091169063de3a23c590602401600060405180830381600087803b1580156134f157600080fd5b505af1158015613505573d6000803e3d6000fd5b505050600083815260186020526040902080549091508290811061352b5761352b6142ab565b6000918252602082200180546001600160a01b031916905560178054916135518361532e565b91905055505b8061356181614c5a565b915050613432565b8280548282559060005260206000209081019282156135a4579160200282015b828111156135a4578251825591602001919060010190613589565b506135b09291506136c8565b5090565b8280546135c090614277565b90600052602060002090601f0160209004810192826135e257600085556135a4565b82601f106135fb57805160ff19168380011785556135a4565b828001600101855582156135a457918201828111156135a4578251825591602001919060010190613589565b6040518060e0016040528060006001600160a01b0316815260200160006001600160a01b0316815260200160006001600160a01b031681526020016000815260200160608152602001606081526020016136c36040518060e0016040528060006001600160a01b031681526020016000815260200160008152602001600080191681526020016060815260200160608152602001606081525090565b905290565b5b808211156135b057600081556001016136c9565b6000602082840312156136ef57600080fd5b81356001600160e01b031981168114611cd457600080fd5b60006020828403121561371957600080fd5b5035919050565b60005b8381101561373b578181015183820152602001613723565b8381111561374a576000848401525b50505050565b60008151808452613768816020860160208601613720565b601f01601f19169290920160200192915050565b602081526000611cd46020830184613750565b6001600160a01b038116811461107357600080fd5b8035610bf98161378f565b600060e082840312156137c157600080fd5b50919050565b600080600080600060a086880312156137df57600080fd5b85356137ea8161378f565b945060208601356137fa8161378f565b9350604086013561380a8161378f565b92506060860135915060808601356001600160401b0381111561382c57600080fd5b613838888289016137af565b9150509295509295909350565b60008083601f84011261385757600080fd5b5081356001600160401b0381111561386e57600080fd5b6020830191508360208260051b850101111561388957600080fd5b9250929050565b6000806000806000608086880312156138a857600080fd5b85356138b38161378f565b9450602086013593506040860135925060608601356001600160401b038111156138dc57600080fd5b6138e888828901613845565b969995985093965092949392505050565b6001600160a01b03169052565b634e487b7160e01b600052602160045260246000fd5b6006811061392c5761392c613906565b9052565b6001600160a01b038616815260208101859052604081018490526060810183905260a08101612b0f608083018461391c565b6001600160a01b0391909116815260200190565b6000806040838503121561398957600080fd5b82356139948161378f565b946020939093013593505050565b602081016105b1828461391c565b600081518084526020808501945080840160005b838110156139e0578151875295820195908201906001016139c4565b509495945050505050565b600081518084526020808501945080840160005b838110156139e0578151805188528381015160ff908116858a01526040918201511690880152606090960195908201906001016139ff565b60018060a01b0381511682526000602080830151818501526040808401518186015260608085015181870152608085015160e06080880152613a7c60e08801826139b0565b905060a086015187820360a08901528181518084528684019150868160051b85010187840193506000805b83811015613b0f57868303601f190185528551805184528a01518a84018a905280518a8501819052908b019083908a8601905b80831015613afa5783518252928d019260019290920191908d0190613ada565b50978c0197968c019694505050600101613aa7565b505060c08a015197508a810360c08c0152613b2a81896139eb565b9b9a5050505050505050505050565b6001600160a01b0386811682528581166020830152841660408201526060810183905260a060808201819052600090613b7490830184613a37565b979650505050505050565b60018060a01b0381511682526020810151602083015260408101516040830152606081015160608301526000608082015160c06080850152613bc460c08501826139b0565b905060a0830151613bd860a086018261391c565b509392505050565b6000602080830181845280855180835260408601915060408160051b870101925083870160005b82811015613c3557603f19888603018452613c23858351613b7f565b94509285019290850190600101613c07565b5092979650505050505050565b600080600060408486031215613c5757600080fd5b8335925060208401356001600160401b03811115613c7457600080fd5b613c8086828701613845565b9497909650939450505050565b634e487b7160e01b600052604160045260246000fd5b60405160c081016001600160401b0381118282101715613cc557613cc5613c8d565b60405290565b604051601f8201601f191681016001600160401b0381118282101715613cf357613cf3613c8d565b604052919050565b60006001600160401b03821115613d1457613d14613c8d565b50601f01601f191660200190565b600082601f830112613d3357600080fd5b8135613d46613d4182613cfb565b613ccb565b818152846020838601011115613d5b57600080fd5b816020850160208301376000918101602001919091529392505050565b60008060408385031215613d8b57600080fd5b8235915060208301356001600160401b03811115613da857600080fd5b613db485828601613d22565b9150509250929050565b60006001600160401b03821115613dd757613dd7613c8d565b5060051b60200190565b60008060408385031215613df457600080fd5b823591506020808401356001600160401b03811115613e1257600080fd5b8401601f81018613613e2357600080fd5b8035613e31613d4182613dbe565b81815260059190911b82018301908381019088831115613e5057600080fd5b928401925b82841015613e6e57833582529284019290840190613e55565b80955050505050509250929050565b60008083601f840112613e8f57600080fd5b5081356001600160401b03811115613ea657600080fd5b60208301915083602082850101111561388957600080fd5b60008060008060008060008060a0898b031215613eda57600080fd5b8835613ee58161378f565b97506020890135613ef58161378f565b965060408901356001600160401b0380821115613f1157600080fd5b613f1d8c838d01613845565b909850965060608b0135915080821115613f3657600080fd5b613f428c838d01613845565b909650945060808b0135915080821115613f5b57600080fd5b50613f688b828c01613e7d565b999c989b5096995094979396929594505050565b6001600160e01b031991909116815260200190565b6000602080830181845280855180835260408601915060408160051b870101925083870160005b82811015613c3557603f19888603018452613fd4858351613750565b94509285019290850190600101613fb8565b600081518084526020808501808196508360051b8101915082860160005b8581101561404b578284038952815180516001600160a01b03168552850151604086860181905261403781870183613750565b9a87019a9550505090840190600101614004565b5091979650505050505050565b6004811061392c5761392c613906565b600081518084526020808501808196508360051b8101915082860160005b8581101561404b578284038952815160a081518652868201516140ab88880182614058565b5060408281015190870152606080830151908701526080918201519186018190526140d881870183613750565b9a87019a9550505090840190600101614086565b60208152600060018060a01b0380845116602084015280602085015116604084015250604083015161412160608401826138f9565b5060608301516080830152608083015160e060a0840152614146610100840182613fe6565b905060a0840151601f19808584030160c08601526141648383614068565b925060c08601519150808584030160e0860152506141828282613a37565b95945050505050565b6000806040838503121561419e57600080fd5b50508035926020909101359150565b6000602082840312156141bf57600080fd5b81356001600160401b038111156141d557600080fd5b6141e1848285016137af565b949350505050565b60008060008060008060a0878903121561420257600080fd5b863561420d8161378f565b9550602087013561421d8161378f565b9450604087013593506060870135925060808701356001600160401b0381111561424657600080fd5b61425289828a01613e7d565b979a9699509497509295939492505050565b602081526000611cd46020830184613b7f565b600181811c9082168061428b57607f821691505b6020821081036137c157634e487b7160e01b600052602260045260246000fd5b634e487b7160e01b600052603260045260246000fd5b6020808252600a9082015269151a5b595b1bd8dad95960b21b604082015260600190565b6001600160a01b03929092168252602082015260400190565b60006020828403121561431057600080fd5b8135611cd48161378f565b80546001600160a01b0319166001600160a01b0392909216919091179055565b6000808335601e1984360301811261435257600080fd5b8301803591506001600160401b0382111561436c57600080fd5b6020019150600581901b360382131561388957600080fd5b60008235603e1983360301811261439a57600080fd5b9190910192915050565b634e487b7160e01b600052601160045260246000fd5b60008160001904831182151516156143d4576143d46143a4565b500290565b5b818110156129a457600081556001016143da565b6143f88154614277565b80156129a457601f81116001811461441257505060009055565b826000526020600020614430601f840160051c8201600183016143d9565b506020600090812081855555505050565b6000808335601e1984360301811261445857600080fd5b8301803591506001600160401b0382111561447257600080fd5b60200191503681900382131561388957600080fd5b601f8211156118d457806000526020600020601f840160051c810160208510156144ae5750805b610827601f850160051c8301826143d9565b81356144cb8161378f565b6144d5818361431b565b50600180820160206144e981860186614441565b6001600160401b0381111561450057614500613c8d565b6145148161450e8654614277565b86614487565b6000601f82116001811461454857600083156145305750838201355b600019600385901b1c1916600184901b178655610a94565b600086815260209020601f19841690835b828110156145765786850135825593870193908901908701614559565b50848210156145935760001960f88660031b161c19848701351681555b50505050841b90930190915550505050565b60008235609e1983360301811261439a57600080fd5b6004811061107357600080fd5b8135815560018082016020808501356145e0816145bb565b600481106145f0576145f0613906565b60ff1983541660ff821681178455505060408501356002850155606085013560038501556004840191506144e96080860186614441565b600160401b83111561463b5761463b613c8d565b8054838255808410156146df577f3333333333333333333333333333333333333333333333333333333333333333600181831181161561467d5761467d6143a4565b6005828711821615614691576146916143a4565b600085815260208120909350878202810190828602015b808210156146d95784825584848301558460028301558460038301556146d0600483016143ee565b908201906146a8565b50505050505b5060008181526020812083915b858110156109e75761470761470184876145a5565b836145c8565b60209290920191600591909101906001016146ec565b6000823560de1983360301811261439a57600080fd5b8054600080835581156118d457828152602081208281015b808210156108275782825560018201915061474b565b81358155600180820160206147788186018661433b565b600160401b81111561478c5761478c613c8d565b8354818555808210156147c05760008581528481208381019083015b808210156147bc57828255908801906147a8565b5050505b506000938452828420935b818110156147e65782358555938501939183019185016147cb565b5050505050505050565b600160401b83111561480457614804613c8d565b80548382558084101561487c576001600160ff1b03600181831181161561482d5761482d6143a4565b81861181161561483f5761483f6143a4565b60008481526020812090925086821b81019084831b015b808210156148775783825561486c838301614733565b600282019150614856565b505050505b5060008181526020812083915b858110156109e7576148a461489e8487614384565b83614761565b6020929092019160029190910190600101614889565b6000808335601e198436030181126148d157600080fd5b8301803591506001600160401b038211156148eb57600080fd5b602001915060608102360382131561388957600080fd5b60ff8116811461107357600080fd5b8135815560018101602083013561492781614902565b8154604085013561493781614902565b61ff008160081b1660ff841661ffff19841617178455505050505050565b600160401b83111561496957614969613c8d565b8054838255808410156149db576001600160ff1b036001818311811615614992576149926143a4565b8186118116156149a4576149a46143a4565b60008481526020812090925086821b81019084831b015b808210156149d65783825583838301556002820191506149bb565b505050505b5060008181526020812083915b858110156109e7576149fa8383614911565b60609290920191600291909101906001016149e8565b8135614a1b8161378f565b614a25818361431b565b50600160208084013582840155604084013560028401556060840135600384015560048301614a57608086018661433b565b600160401b811115614a6b57614a6b613c8d565b825481845580821015614a90578360005284600020614a8e8282018483016143d9565b505b506000928352838320925b81811015614ab6578235845592850192918401918501614a9b565b505050505050614ac960a083018361433b565b614ad78183600586016147f0565b5050614ae660c08301836148ba565b61374a818360068601614955565b8135614aff8161378f565b614b09818361431b565b506001602080840135614b1b8161378f565b614b278184860161431b565b5060026040850135614b388161378f565b614b448183870161431b565b506060850135600385015560048401614b60608087018761433b565b600160401b811115614b7457614b74613c8d565b825481845580821015614be4576001600160ff1b03808211881615614b9b57614b9b6143a4565b808311881615614bad57614bad6143a4565b50600084815286812083891b810190838a1b015b80821015614be057828255614bd78a83016143ee565b90870190614bc1565b5050505b506000928352602083209282905b82811015614c1c57614c0d614c078386614384565b866144c0565b93850193908601908701614bf2565b5050505050505050614c3160a083018361433b565b614c3f818360058601614627565b50506129a4614c5160c084018461471d565b60068301614a10565b600060018201614c6c57614c6c6143a4565b5060010190565b6020808252600b908201526a27b7363c9025b2b2b832b960a91b604082015260600190565b81835260006001600160fb1b03831115614cb157600080fd5b8260051b8083602087013760009401602001938452509192915050565b60018060a01b0386168152846020820152836040820152608060608201526000613b74608083018486614c98565b600060208284031215614d0e57600080fd5b8151611cd48161378f565b600082821015614d2b57614d2b6143a4565b500390565b600060208284031215614d4257600080fd5b81518015158114611cd457600080fd5b6000815480845260208085019450836000528060002060005b838110156139e057815487529582019560019182019101614d6b565b600081548084526020808501808196508360051b810191506000868152838120815b86811015614e15578385038a52815485526040868601819052600180840180549288018390528552878520606088019290919086905b80821015614dfc5783548552938a01939282019290820190614ddf565b5050509a87019a50945060029190910190600101614da9565b509298975050505050505050565b6000815480845260208085019450836000528060002060005b838110156139e0578154875260018083015460ff808216868b015260089190911c16604089015260609097019660029092019101614e3c565b600060018060a01b03808716835260806020840152614e9a60808401828854166138f9565b50600185015460a0830152600285015460c0830152600385015460e083015260e0610100830152614ed2610160830160048701614d52565b607f198084830301610120850152614eed8260058901614d87565b9150808483030161014085015250614f088160068801614e23565b915050614f1860408301856138f9565b82606083015295945050505050565b805160068110610bf957600080fd5b60006020808385031215614f4957600080fd5b82516001600160401b0380821115614f6057600080fd5b9084019060c08287031215614f7457600080fd5b614f7c613ca3565b8251614f878161378f565b8082525083830151848201526040830151604082015260608301516060820152608083015182811115614fb957600080fd5b83019150601f82018713614fcc57600080fd5b8151614fda613d4182613dbe565b81815260059190911b83018501908581019089831115614ff957600080fd5b938601935b8285101561501757845182529386019390860190614ffe565b60808401525061502b905060a08401614f27565b60a08201529695505050505050565b6020808252600f908201526e27b7363c9030b93134ba3930ba37b960891b604082015260600190565b602080825260189082015277139bdd08105c989a5d1c985d1a5bdb94995c5d595cdd195960421b604082015260600190565b6020808252601e908201527f6c656e677468206d757374206d61746368206f7574636f6d65536c6f74730000604082015260600190565b838152604060208201526000614182604083018486614c98565b6001600160a01b038416815260208082018490526060604083018190528351908301819052600091848101916080850190845b8181101561513557845183529383019391830191600101615119565b509098975050505050505050565b6000604082016040835280855480835260608501915060608160051b8601019250600087815260208120815b8381101561524757878603605f1901855281548652600182015460ff166151996020880182614058565b5060028201546040870152600382015460608701526004820160a060808801528381546151c581614277565b8060a08b015260018216600081146151e457600181146151f95761522a565b60ff19831660c08c015260e08b01935061522a565b84885260208820885b838110156152215781548d820160c00152600190910190602001615202565b8c0160c0019450505b50919850505060209590950194506005919091019060010161516f565b50505050506020929092019290925292915050565b60006020828403121561526e57600080fd5b5051919050565b60609290921b6001600160601b0319168252601482015260340190565b60208082526015908201527436b9b39739b2b73232b9103737ba1039b7b63b32b960591b604082015260600190565b6000602082840312156152d357600080fd5b81516001600160401b038111156152e957600080fd5b8201601f810184136152fa57600080fd5b8051615308613d4182613cfb565b81815285602083850101111561531d57600080fd5b614182826020830160208601613720565b60008161533d5761533d6143a4565b506000190190565b6000808335601e1984360301811261535c57600080fd5b83016020810192503590506001600160401b0381111561537b57600080fd5b8060051b360383131561388957600080fd5b6000808335601e198436030181126153a457600080fd5b83016020810192503590506001600160401b038111156153c357600080fd5b80360383131561388957600080fd5b81835281816020850137506000828201602090810191909152601f909101601f19169091010190565b60008235603e1983360301811261541157600080fd5b90910192915050565b81835260006020808501808196508560051b810191508460005b8781101561404b57828403895261544b82886153fb565b604081356154588161378f565b6001600160a01b0316865261546f8288018361538d565b9250818888015261548382880184836153d2565b9b88019b965050509185019150600101615434565b81835260006020808501808196508560051b81019150846000805b88811015614e15578385038a528235609e198936030181126154d3578283fd5b88018035865260a0878201356154e8816145bb565b6154f489890182614058565b50604082810135908801526060808301359088015260806155178184018461538d565b935082828a015261552b838a0185836153d2565b9d8a019d985050509387019350506001016154b3565b6000823560de1983360301811261541157600080fd5b6000808335601e1984360301811261556e57600080fd5b83016020810192503590506001600160401b0381111561558d57600080fd5b60608102360383131561388957600080fd5b8183526000602080850194508260005b858110156139e05781358752828201356155c881614902565b60ff90811688850152604090838201356155e181614902565b169088015260609687019691909101906001016155af565b600081356156068161378f565b6001600160a01b0316835260208281013581850152604080840135818601526060808501359086015261563c6080850185615345565b60e0608088015261565160e088018284614c98565b91505061566160a0860186615345565b87830360a0890152808352848301600582901b840186018360005b848110156156cf57868303601f1901845261569782876153fb565b803584526156a78a820182615345565b9150898b8601526156bb8a86018383614c98565b958b0195945050509088019060010161567c565b50506156de60c08a018a615557565b9750955089810360c08b01526156f581888861559f565b9a9950505050505050505050565b6001600160a01b0385811682526080602083015260009085356157258161378f565b166080830152615737602086016137a4565b61574460a08401826138f9565b50615751604086016137a4565b61575e60c08401826138f9565b50606085013560e08301526157766080860186615345565b60e061010085015261578d6101608501828461541a565b91505061579d60a0870187615345565b607f1980868503016101208701526157b6848385615498565b93506157c560c08a018a615541565b9250808685030161014087015250506157de82826155f9565b60408501969096525050506060015292915050565b6020808252602e908201527f496e697469616c697a61626c653a20636f6e747261637420697320616c72656160408201526d191e481a5b9a5d1a585b1a5e995960921b606082015260800190565b60006040823603121561585357600080fd5b604080519081016001600160401b03808211838310171561587657615876613c8d565b81604052843591506158878261378f565b9082526020840135908082111561589d57600080fd5b506158aa36828601613d22565b60208301525092915050565b600082198211156158c9576158c96143a4565b50019056fe71bd81ebe1d98a2944767394e76a9aff18724b2cf04e1db71254f804544b35c7a264697066735822122066b3b2467dee2b8d70cdade62f19800f14a9cec14cc823157684076fc4daed3a64736f6c634300080d0033",
  "linkReferences": {
    "contracts/solvers/SolverLib.sol": {
      "SolverLib": [
        {
          "length": 20,
          "start": 2277
        },
        {
          "length": 20,
          "start": 3591
        },
        {
          "length": 20,
          "start": 4033
        },
        {
          "length": 20,
          "start": 4803
        },
        {
          "length": 20,
          "start": 5103
        },
        {
          "length": 20,
          "start": 6541
        },
        {
          "length": 20,
          "start": 7304
        },
        {
          "length": 20,
          "start": 7468
        },
        {
          "length": 20,
          "start": 7803
        },
        {
          "length": 20,
          "start": 11185
        },
        {
          "length": 20,
          "start": 13354
        }
      ]
    }
  },
  "deployedLinkReferences": {
    "contracts/solvers/SolverLib.sol": {
      "SolverLib": [
        {
          "length": 20,
          "start": 1946
        },
        {
          "length": 20,
          "start": 3260
        },
        {
          "length": 20,
          "start": 3702
        },
        {
          "length": 20,
          "start": 4472
        },
        {
          "length": 20,
          "start": 4772
        },
        {
          "length": 20,
          "start": 6210
        },
        {
          "length": 20,
          "start": 6973
        },
        {
          "length": 20,
          "start": 7137
        },
        {
          "length": 20,
          "start": 7472
        },
        {
          "length": 20,
          "start": 10854
        },
        {
          "length": 20,
          "start": 13023
        }
      ]
    }
  }
}