{
  "_format": "hh-sol-artifact-1",
  "contractName": "BasicSolverV1",
  "sourceName": "contracts/solvers/BasicSolverV1.sol",
  "abi": [
    {
      "anonymous": false,
      "inputs": [
        {
          "indexed": false,
          "internalType": "bytes32",
          "name": "conditionId",
          "type": "bytes32"
        }
      ],
      "name": "ChangedStatus",
      "type": "event"
    },
    {
      "anonymous": false,
      "inputs": [
        {
          "indexed": false,
          "internalType": "bytes32",
          "name": "conditionId",
          "type": "bytes32"
        }
      ],
      "name": "DeliveredNullArbitration",
      "type": "event"
    },
    {
      "anonymous": false,
      "inputs": [
        {
          "indexed": false,
          "internalType": "address",
          "name": "child",
          "type": "address"
        }
      ],
      "name": "DeployedChild",
      "type": "event"
    },
    {
      "anonymous": false,
      "inputs": [],
      "name": "IngestedData",
      "type": "event"
    },
    {
      "anonymous": false,
      "inputs": [
        {
          "indexed": false,
          "internalType": "uint8",
          "name": "version",
          "type": "uint8"
        }
      ],
      "name": "Initialized",
      "type": "event"
    },
    {
      "anonymous": false,
      "inputs": [
        {
          "indexed": false,
          "internalType": "address",
          "name": "solver",
          "type": "address"
        },
        {
          "indexed": false,
          "internalType": "uint256",
          "name": "solveIndex",
          "type": "uint256"
        }
      ],
      "name": "PreparedSolve",
      "type": "event"
    },
    {
      "inputs": [],
      "name": "ARBITRATOR_ROLE",
      "outputs": [
        {
          "internalType": "bytes32",
          "name": "",
          "type": "bytes32"
        }
      ],
      "stateMutability": "view",
      "type": "function"
    },
    {
      "inputs": [],
      "name": "KEEPER_ROLE",
      "outputs": [
        {
          "internalType": "bytes32",
          "name": "",
          "type": "bytes32"
        }
      ],
      "stateMutability": "view",
      "type": "function"
    },
    {
      "inputs": [],
      "name": "SOLVER_ROLE",
      "outputs": [
        {
          "internalType": "bytes32",
          "name": "",
          "type": "bytes32"
        }
      ],
      "stateMutability": "view",
      "type": "function"
    },
    {
      "inputs": [
        {
          "internalType": "bytes32",
          "name": "_slot",
          "type": "bytes32"
        },
        {
          "internalType": "bytes",
          "name": "_data",
          "type": "bytes"
        }
      ],
      "name": "addData",
      "outputs": [],
      "stateMutability": "nonpayable",
      "type": "function"
    },
    {
      "inputs": [
        {
          "internalType": "uint256",
          "name": "_index",
          "type": "uint256"
        }
      ],
      "name": "addressFromChainIndex",
      "outputs": [
        {
          "internalType": "address",
          "name": "_address",
          "type": "address"
        }
      ],
      "stateMutability": "view",
      "type": "function"
    },
    {
      "inputs": [
        {
          "internalType": "uint256",
          "name": "_index",
          "type": "uint256"
        }
      ],
      "name": "allocationsValid",
      "outputs": [
        {
          "internalType": "bool",
          "name": "",
          "type": "bool"
        }
      ],
      "stateMutability": "view",
      "type": "function"
    },
    {
      "inputs": [
        {
          "internalType": "uint256",
          "name": "_index",
          "type": "uint256"
        },
        {
          "internalType": "uint256[]",
          "name": "payouts",
          "type": "uint256[]"
        }
      ],
      "name": "arbitrate",
      "outputs": [],
      "stateMutability": "nonpayable",
      "type": "function"
    },
    {
      "inputs": [
        {
          "internalType": "uint256",
          "name": "_index",
          "type": "uint256"
        }
      ],
      "name": "arbitrateNull",
      "outputs": [],
      "stateMutability": "nonpayable",
      "type": "function"
    },
    {
      "inputs": [
        {
          "internalType": "uint256",
          "name": "_index",
          "type": "uint256"
        }
      ],
      "name": "arbitrationRequested",
      "outputs": [],
      "stateMutability": "nonpayable",
      "type": "function"
    },
    {
      "inputs": [],
      "name": "arbitrator",
      "outputs": [
        {
          "internalType": "address",
          "name": "",
          "type": "address"
        }
      ],
      "stateMutability": "view",
      "type": "function"
    },
    {
      "inputs": [],
      "name": "chainChild",
      "outputs": [
        {
          "internalType": "address",
          "name": "",
          "type": "address"
        }
      ],
      "stateMutability": "view",
      "type": "function"
    },
    {
      "inputs": [],
      "name": "chainIndex",
      "outputs": [
        {
          "internalType": "uint256",
          "name": "",
          "type": "uint256"
        }
      ],
      "stateMutability": "view",
      "type": "function"
    },
    {
      "inputs": [],
      "name": "chainParent",
      "outputs": [
        {
          "internalType": "address",
          "name": "",
          "type": "address"
        }
      ],
      "stateMutability": "view",
      "type": "function"
    },
    {
      "inputs": [],
      "name": "collateralBalance",
      "outputs": [
        {
          "internalType": "uint256",
          "name": "balance",
          "type": "uint256"
        }
      ],
      "stateMutability": "view",
      "type": "function"
    },
    {
      "inputs": [
        {
          "internalType": "uint256",
          "name": "index",
          "type": "uint256"
        }
      ],
      "name": "condition",
      "outputs": [
        {
          "components": [
            {
              "internalType": "contract IERC20",
              "name": "collateralToken",
              "type": "address"
            },
            {
              "internalType": "bytes32",
              "name": "questionId",
              "type": "bytes32"
            },
            {
              "internalType": "bytes32",
              "name": "parentCollectionId",
              "type": "bytes32"
            },
            {
              "internalType": "bytes32",
              "name": "conditionId",
              "type": "bytes32"
            },
            {
              "internalType": "uint256[]",
              "name": "payouts",
              "type": "uint256[]"
            },
            {
              "internalType": "enum SolverLib.Status",
              "name": "status",
              "type": "uint8"
            }
          ],
          "internalType": "struct SolverLib.Condition",
          "name": "",
          "type": "tuple"
        }
      ],
      "stateMutability": "view",
      "type": "function"
    },
    {
      "inputs": [
        {
          "internalType": "uint256",
          "name": "",
          "type": "uint256"
        }
      ],
      "name": "conditions",
      "outputs": [
        {
          "internalType": "contract IERC20",
          "name": "collateralToken",
          "type": "address"
        },
        {
          "internalType": "bytes32",
          "name": "questionId",
          "type": "bytes32"
        },
        {
          "internalType": "bytes32",
          "name": "parentCollectionId",
          "type": "bytes32"
        },
        {
          "internalType": "bytes32",
          "name": "conditionId",
          "type": "bytes32"
        },
        {
          "internalType": "enum SolverLib.Status",
          "name": "status",
          "type": "uint8"
        }
      ],
      "stateMutability": "view",
      "type": "function"
    },
    {
      "inputs": [],
      "name": "config",
      "outputs": [
        {
          "internalType": "contract Solver",
          "name": "implementation",
          "type": "address"
        },
        {
          "internalType": "address",
          "name": "keeper",
          "type": "address"
        },
        {
          "internalType": "address",
          "name": "arbitrator",
          "type": "address"
        },
        {
          "internalType": "uint256",
          "name": "timelockSeconds",
          "type": "uint256"
        },
        {
          "components": [
            {
              "internalType": "contract IERC20",
              "name": "collateralToken",
              "type": "address"
            },
            {
              "internalType": "uint256",
              "name": "outcomeSlots",
              "type": "uint256"
            },
            {
              "internalType": "uint256",
              "name": "parentCollectionIndexSet",
              "type": "uint256"
            },
            {
              "internalType": "bytes32",
              "name": "amountSlot",
              "type": "bytes32"
            },
            {
              "internalType": "uint256[]",
              "name": "partition",
              "type": "uint256[]"
            },
            {
              "components": [
                {
                  "internalType": "bytes32",
                  "name": "recipientAddressSlot",
                  "type": "bytes32"
                },
                {
                  "internalType": "bytes32[]",
                  "name": "recipientAmountSlots",
                  "type": "bytes32[]"
                }
              ],
              "internalType": "struct SolverLib.Allocation[]",
              "name": "allocations",
              "type": "tuple[]"
            },
            {
              "components": [
                {
                  "internalType": "bytes32",
                  "name": "digest",
                  "type": "bytes32"
                },
                {
                  "internalType": "uint8",
                  "name": "hashFunction",
                  "type": "uint8"
                },
                {
                  "internalType": "uint8",
                  "name": "size",
                  "type": "uint8"
                }
              ],
              "internalType": "struct SolverLib.Multihash[]",
              "name": "outcomeURIs",
              "type": "tuple[]"
            }
          ],
          "internalType": "struct SolverLib.ConditionBase",
          "name": "conditionBase",
          "type": "tuple"
        }
      ],
      "stateMutability": "view",
      "type": "function"
    },
    {
      "inputs": [
        {
          "internalType": "uint256",
          "name": "_index",
          "type": "uint256"
        }
      ],
      "name": "confirmPayouts",
      "outputs": [],
      "stateMutability": "nonpayable",
      "type": "function"
    },
    {
      "inputs": [
        {
          "components": [
            {
              "internalType": "contract Solver",
              "name": "implementation",
              "type": "address"
            },
            {
              "internalType": "address",
              "name": "keeper",
              "type": "address"
            },
            {
              "internalType": "address",
              "name": "arbitrator",
              "type": "address"
            },
            {
              "internalType": "uint256",
              "name": "timelockSeconds",
              "type": "uint256"
            },
            {
              "components": [
                {
                  "internalType": "contract IModule",
                  "name": "module",
                  "type": "address"
                },
                {
                  "internalType": "bytes",
                  "name": "data",
                  "type": "bytes"
                }
              ],
              "internalType": "struct SolverLib.ModuleLoader[]",
              "name": "moduleLoaders",
              "type": "tuple[]"
            },
            {
              "components": [
                {
                  "internalType": "uint256",
                  "name": "executions",
                  "type": "uint256"
                },
                {
                  "internalType": "enum SolverLib.IngestType",
                  "name": "ingestType",
                  "type": "uint8"
                },
                {
                  "internalType": "bytes32",
                  "name": "slot",
                  "type": "bytes32"
                },
                {
                  "internalType": "uint256",
                  "name": "solverIndex",
                  "type": "uint256"
                },
                {
                  "internalType": "bytes",
                  "name": "data",
                  "type": "bytes"
                }
              ],
              "internalType": "struct SolverLib.Ingest[]",
              "name": "ingests",
              "type": "tuple[]"
            },
            {
              "components": [
                {
                  "internalType": "contract IERC20",
                  "name": "collateralToken",
                  "type": "address"
                },
                {
                  "internalType": "uint256",
                  "name": "outcomeSlots",
                  "type": "uint256"
                },
                {
                  "internalType": "uint256",
                  "name": "parentCollectionIndexSet",
                  "type": "uint256"
                },
                {
                  "internalType": "bytes32",
                  "name": "amountSlot",
                  "type": "bytes32"
                },
                {
                  "internalType": "uint256[]",
                  "name": "partition",
                  "type": "uint256[]"
                },
                {
                  "components": [
                    {
                      "internalType": "bytes32",
                      "name": "recipientAddressSlot",
                      "type": "bytes32"
                    },
                    {
                      "internalType": "bytes32[]",
                      "name": "recipientAmountSlots",
                      "type": "bytes32[]"
                    }
                  ],
                  "internalType": "struct SolverLib.Allocation[]",
                  "name": "allocations",
                  "type": "tuple[]"
                },
                {
                  "components": [
                    {
                      "internalType": "bytes32",
                      "name": "digest",
                      "type": "bytes32"
                    },
                    {
                      "internalType": "uint8",
                      "name": "hashFunction",
                      "type": "uint8"
                    },
                    {
                      "internalType": "uint8",
                      "name": "size",
                      "type": "uint8"
                    }
                  ],
                  "internalType": "struct SolverLib.Multihash[]",
                  "name": "outcomeURIs",
                  "type": "tuple[]"
                }
              ],
              "internalType": "struct SolverLib.ConditionBase",
              "name": "conditionBase",
              "type": "tuple"
            }
          ],
          "internalType": "struct SolverLib.Config",
          "name": "_config",
          "type": "tuple"
        }
      ],
      "name": "deployChild",
      "outputs": [
        {
          "internalType": "address",
          "name": "",
          "type": "address"
        }
      ],
      "stateMutability": "nonpayable",
      "type": "function"
    },
    {
      "inputs": [
        {
          "internalType": "uint256",
          "name": "_index",
          "type": "uint256"
        }
      ],
      "name": "executeSolve",
      "outputs": [],
      "stateMutability": "nonpayable",
      "type": "function"
    },
    {
      "inputs": [
        {
          "internalType": "bytes32",
          "name": "_slot",
          "type": "bytes32"
        }
      ],
      "name": "getAllData",
      "outputs": [
        {
          "internalType": "bytes[]",
          "name": "data",
          "type": "bytes[]"
        }
      ],
      "stateMutability": "view",
      "type": "function"
    },
    {
      "inputs": [
        {
          "internalType": "bytes32",
          "name": "_slot",
          "type": "bytes32"
        }
      ],
      "name": "getCallbackOutput",
      "outputs": [
        {
          "internalType": "bytes",
          "name": "data",
          "type": "bytes"
        }
      ],
      "stateMutability": "view",
      "type": "function"
    },
    {
      "inputs": [],
      "name": "getConditions",
      "outputs": [
        {
          "components": [
            {
              "internalType": "contract IERC20",
              "name": "collateralToken",
              "type": "address"
            },
            {
              "internalType": "bytes32",
              "name": "questionId",
              "type": "bytes32"
            },
            {
              "internalType": "bytes32",
              "name": "parentCollectionId",
              "type": "bytes32"
            },
            {
              "internalType": "bytes32",
              "name": "conditionId",
              "type": "bytes32"
            },
            {
              "internalType": "uint256[]",
              "name": "payouts",
              "type": "uint256[]"
            },
            {
              "internalType": "enum SolverLib.Status",
              "name": "status",
              "type": "uint8"
            }
          ],
          "internalType": "struct SolverLib.Condition[]",
          "name": "",
          "type": "tuple[]"
        }
      ],
      "stateMutability": "view",
      "type": "function"
    },
    {
      "inputs": [],
      "name": "getConfig",
      "outputs": [
        {
          "components": [
            {
              "internalType": "contract Solver",
              "name": "implementation",
              "type": "address"
            },
            {
              "internalType": "address",
              "name": "keeper",
              "type": "address"
            },
            {
              "internalType": "address",
              "name": "arbitrator",
              "type": "address"
            },
            {
              "internalType": "uint256",
              "name": "timelockSeconds",
              "type": "uint256"
            },
            {
              "components": [
                {
                  "internalType": "contract IModule",
                  "name": "module",
                  "type": "address"
                },
                {
                  "internalType": "bytes",
                  "name": "data",
                  "type": "bytes"
                }
              ],
              "internalType": "struct SolverLib.ModuleLoader[]",
              "name": "moduleLoaders",
              "type": "tuple[]"
            },
            {
              "components": [
                {
                  "internalType": "uint256",
                  "name": "executions",
                  "type": "uint256"
                },
                {
                  "internalType": "enum SolverLib.IngestType",
                  "name": "ingestType",
                  "type": "uint8"
                },
                {
                  "internalType": "bytes32",
                  "name": "slot",
                  "type": "bytes32"
                },
                {
                  "internalType": "uint256",
                  "name": "solverIndex",
                  "type": "uint256"
                },
                {
                  "internalType": "bytes",
                  "name": "data",
                  "type": "bytes"
                }
              ],
              "internalType": "struct SolverLib.Ingest[]",
              "name": "ingests",
              "type": "tuple[]"
            },
            {
              "components": [
                {
                  "internalType": "contract IERC20",
                  "name": "collateralToken",
                  "type": "address"
                },
                {
                  "internalType": "uint256",
                  "name": "outcomeSlots",
                  "type": "uint256"
                },
                {
                  "internalType": "uint256",
                  "name": "parentCollectionIndexSet",
                  "type": "uint256"
                },
                {
                  "internalType": "bytes32",
                  "name": "amountSlot",
                  "type": "bytes32"
                },
                {
                  "internalType": "uint256[]",
                  "name": "partition",
                  "type": "uint256[]"
                },
                {
                  "components": [
                    {
                      "internalType": "bytes32",
                      "name": "recipientAddressSlot",
                      "type": "bytes32"
                    },
                    {
                      "internalType": "bytes32[]",
                      "name": "recipientAmountSlots",
                      "type": "bytes32[]"
                    }
                  ],
                  "internalType": "struct SolverLib.Allocation[]",
                  "name": "allocations",
                  "type": "tuple[]"
                },
                {
                  "components": [
                    {
                      "internalType": "bytes32",
                      "name": "digest",
                      "type": "bytes32"
                    },
                    {
                      "internalType": "uint8",
                      "name": "hashFunction",
                      "type": "uint8"
                    },
                    {
                      "internalType": "uint8",
                      "name": "size",
                      "type": "uint8"
                    }
                  ],
                  "internalType": "struct SolverLib.Multihash[]",
                  "name": "outcomeURIs",
                  "type": "tuple[]"
                }
              ],
              "internalType": "struct SolverLib.ConditionBase",
              "name": "conditionBase",
              "type": "tuple"
            }
          ],
          "internalType": "struct SolverLib.Config",
          "name": "",
          "type": "tuple"
        }
      ],
      "stateMutability": "view",
      "type": "function"
    },
    {
      "inputs": [
        {
          "internalType": "bytes32",
          "name": "_slot",
          "type": "bytes32"
        }
      ],
      "name": "getData",
      "outputs": [
        {
          "internalType": "bytes",
          "name": "data",
          "type": "bytes"
        }
      ],
      "stateMutability": "view",
      "type": "function"
    },
    {
      "inputs": [
        {
          "internalType": "bytes32",
          "name": "key",
          "type": "bytes32"
        }
      ],
      "name": "getState",
      "outputs": [
        {
          "internalType": "bytes",
          "name": "data",
          "type": "bytes"
        }
      ],
      "stateMutability": "view",
      "type": "function"
    },
    {
      "inputs": [
        {
          "internalType": "uint256",
          "name": "conditionIndex",
          "type": "uint256"
        }
      ],
      "name": "getStatus",
      "outputs": [
        {
          "internalType": "enum SolverLib.Status",
          "name": "status",
          "type": "uint8"
        }
      ],
      "stateMutability": "view",
      "type": "function"
    },
    {
      "inputs": [
        {
          "internalType": "bytes32",
          "name": "_slot",
          "type": "bytes32"
        }
      ],
      "name": "handleCallback",
      "outputs": [],
      "stateMutability": "nonpayable",
      "type": "function"
    },
    {
      "inputs": [
        {
          "internalType": "bytes32",
          "name": "role",
          "type": "bytes32"
        },
        {
          "internalType": "address",
          "name": "account",
          "type": "address"
        }
      ],
      "name": "hasRole",
      "outputs": [
        {
          "internalType": "bool",
          "name": "",
          "type": "bool"
        }
      ],
      "stateMutability": "view",
      "type": "function"
    },
    {
      "inputs": [],
      "name": "ingestsValid",
      "outputs": [
        {
          "internalType": "bool",
          "name": "",
          "type": "bool"
        }
      ],
      "stateMutability": "view",
      "type": "function"
    },
    {
      "inputs": [
        {
          "internalType": "address",
          "name": "_deployer",
          "type": "address"
        },
        {
          "internalType": "address",
          "name": "_ctfAddress",
          "type": "address"
        },
        {
          "internalType": "address",
          "name": "_chainParent",
          "type": "address"
        },
        {
          "internalType": "uint256",
          "name": "_chainIndex",
          "type": "uint256"
        },
        {
          "components": [
            {
              "internalType": "contract Solver",
              "name": "implementation",
              "type": "address"
            },
            {
              "internalType": "address",
              "name": "keeper",
              "type": "address"
            },
            {
              "internalType": "address",
              "name": "arbitrator",
              "type": "address"
            },
            {
              "internalType": "uint256",
              "name": "timelockSeconds",
              "type": "uint256"
            },
            {
              "components": [
                {
                  "internalType": "contract IModule",
                  "name": "module",
                  "type": "address"
                },
                {
                  "internalType": "bytes",
                  "name": "data",
                  "type": "bytes"
                }
              ],
              "internalType": "struct SolverLib.ModuleLoader[]",
              "name": "moduleLoaders",
              "type": "tuple[]"
            },
            {
              "components": [
                {
                  "internalType": "uint256",
                  "name": "executions",
                  "type": "uint256"
                },
                {
                  "internalType": "enum SolverLib.IngestType",
                  "name": "ingestType",
                  "type": "uint8"
                },
                {
                  "internalType": "bytes32",
                  "name": "slot",
                  "type": "bytes32"
                },
                {
                  "internalType": "uint256",
                  "name": "solverIndex",
                  "type": "uint256"
                },
                {
                  "internalType": "bytes",
                  "name": "data",
                  "type": "bytes"
                }
              ],
              "internalType": "struct SolverLib.Ingest[]",
              "name": "ingests",
              "type": "tuple[]"
            },
            {
              "components": [
                {
                  "internalType": "contract IERC20",
                  "name": "collateralToken",
                  "type": "address"
                },
                {
                  "internalType": "uint256",
                  "name": "outcomeSlots",
                  "type": "uint256"
                },
                {
                  "internalType": "uint256",
                  "name": "parentCollectionIndexSet",
                  "type": "uint256"
                },
                {
                  "internalType": "bytes32",
                  "name": "amountSlot",
                  "type": "bytes32"
                },
                {
                  "internalType": "uint256[]",
                  "name": "partition",
                  "type": "uint256[]"
                },
                {
                  "components": [
                    {
                      "internalType": "bytes32",
                      "name": "recipientAddressSlot",
                      "type": "bytes32"
                    },
                    {
                      "internalType": "bytes32[]",
                      "name": "recipientAmountSlots",
                      "type": "bytes32[]"
                    }
                  ],
                  "internalType": "struct SolverLib.Allocation[]",
                  "name": "allocations",
                  "type": "tuple[]"
                },
                {
                  "components": [
                    {
                      "internalType": "bytes32",
                      "name": "digest",
                      "type": "bytes32"
                    },
                    {
                      "internalType": "uint8",
                      "name": "hashFunction",
                      "type": "uint8"
                    },
                    {
                      "internalType": "uint8",
                      "name": "size",
                      "type": "uint8"
                    }
                  ],
                  "internalType": "struct SolverLib.Multihash[]",
                  "name": "outcomeURIs",
                  "type": "tuple[]"
                }
              ],
              "internalType": "struct SolverLib.ConditionBase",
              "name": "conditionBase",
              "type": "tuple"
            }
          ],
          "internalType": "struct SolverLib.Config",
          "name": "_solverConfig",
          "type": "tuple"
        }
      ],
      "name": "init",
      "outputs": [],
      "stateMutability": "nonpayable",
      "type": "function"
    },
    {
      "inputs": [
        {
          "internalType": "address",
          "name": "account",
          "type": "address"
        },
        {
          "internalType": "uint256",
          "name": "conditionIndex",
          "type": "uint256"
        }
      ],
      "name": "isRecipient",
      "outputs": [
        {
          "internalType": "bool",
          "name": "",
          "type": "bool"
        }
      ],
      "stateMutability": "view",
      "type": "function"
    },
    {
      "inputs": [],
      "name": "keeper",
      "outputs": [
        {
          "internalType": "address",
          "name": "",
          "type": "address"
        }
      ],
      "stateMutability": "view",
      "type": "function"
    },
    {
      "inputs": [
        {
          "internalType": "address",
          "name": "operator",
          "type": "address"
        },
        {
          "internalType": "address",
          "name": "from",
          "type": "address"
        },
        {
          "internalType": "uint256[]",
          "name": "ids",
          "type": "uint256[]"
        },
        {
          "internalType": "uint256[]",
          "name": "values",
          "type": "uint256[]"
        },
        {
          "internalType": "bytes",
          "name": "data",
          "type": "bytes"
        }
      ],
      "name": "onERC1155BatchReceived",
      "outputs": [
        {
          "internalType": "bytes4",
          "name": "",
          "type": "bytes4"
        }
      ],
      "stateMutability": "nonpayable",
      "type": "function"
    },
    {
      "inputs": [
        {
          "internalType": "address",
          "name": "operator",
          "type": "address"
        },
        {
          "internalType": "address",
          "name": "from",
          "type": "address"
        },
        {
          "internalType": "uint256",
          "name": "id",
          "type": "uint256"
        },
        {
          "internalType": "uint256",
          "name": "value",
          "type": "uint256"
        },
        {
          "internalType": "bytes",
          "name": "data",
          "type": "bytes"
        }
      ],
      "name": "onERC1155Received",
      "outputs": [
        {
          "internalType": "bytes4",
          "name": "",
          "type": "bytes4"
        }
      ],
      "stateMutability": "nonpayable",
      "type": "function"
    },
    {
      "inputs": [
        {
          "internalType": "uint256",
          "name": "_index",
          "type": "uint256"
        }
      ],
      "name": "prepareSolve",
      "outputs": [],
      "stateMutability": "nonpayable",
      "type": "function"
    },
    {
      "inputs": [
        {
          "internalType": "uint256",
          "name": "_index",
          "type": "uint256"
        },
        {
          "internalType": "uint256[]",
          "name": "_payouts",
          "type": "uint256[]"
        }
      ],
      "name": "proposePayouts",
      "outputs": [],
      "stateMutability": "nonpayable",
      "type": "function"
    },
    {
      "inputs": [
        {
          "internalType": "contract IERC20",
          "name": "_collateralToken",
          "type": "address"
        },
        {
          "internalType": "bytes32",
          "name": "_parentCollectionId",
          "type": "bytes32"
        },
        {
          "internalType": "bytes32",
          "name": "_conditionId",
          "type": "bytes32"
        },
        {
          "internalType": "uint256[]",
          "name": "_indexSets",
          "type": "uint256[]"
        }
      ],
      "name": "redeemPosition",
      "outputs": [],
      "stateMutability": "nonpayable",
      "type": "function"
    },
    {
      "inputs": [
        {
          "internalType": "bytes32",
          "name": "_slot",
          "type": "bytes32"
        },
        {
          "internalType": "uint256",
          "name": "_chainIndex",
          "type": "uint256"
        }
      ],
      "name": "registerOutgoingCallback",
      "outputs": [],
      "stateMutability": "nonpayable",
      "type": "function"
    },
    {
      "inputs": [
        {
          "internalType": "bytes32",
          "name": "key",
          "type": "bytes32"
        },
        {
          "internalType": "bytes",
          "name": "data",
          "type": "bytes"
        }
      ],
      "name": "setState",
      "outputs": [],
      "stateMutability": "nonpayable",
      "type": "function"
    },
    {
      "inputs": [
        {
          "internalType": "bytes32",
          "name": "_trackingId",
          "type": "bytes32"
        }
      ],
      "name": "setTrackingId",
      "outputs": [],
      "stateMutability": "nonpayable",
      "type": "function"
    },
    {
      "inputs": [
        {
          "internalType": "bytes4",
          "name": "interfaceId",
          "type": "bytes4"
        }
      ],
      "name": "supportsInterface",
      "outputs": [
        {
          "internalType": "bool",
          "name": "",
          "type": "bool"
        }
      ],
      "stateMutability": "view",
      "type": "function"
    },
    {
      "inputs": [
        {
          "internalType": "uint256",
          "name": "",
          "type": "uint256"
        }
      ],
      "name": "timelocks",
      "outputs": [
        {
          "internalType": "uint256",
          "name": "",
          "type": "uint256"
        }
      ],
      "stateMutability": "view",
      "type": "function"
    },
    {
      "inputs": [],
      "name": "trackingId",
      "outputs": [
        {
          "internalType": "bytes32",
          "name": "",
          "type": "bytes32"
        }
      ],
      "stateMutability": "view",
      "type": "function"
    },
    {
      "inputs": [
        {
          "internalType": "uint256",
          "name": "_index",
          "type": "uint256"
        },
        {
          "internalType": "uint256",
          "name": "_date",
          "type": "uint256"
        }
      ],
      "name": "updateTimelock",
      "outputs": [],
      "stateMutability": "nonpayable",
      "type": "function"
    }
  ],
  "bytecode": "0x60806040523480156200001157600080fd5b506200001c62000022565b6200013b565b6200002e60ff62000031565b50565b60008054610100900460ff16156200009a578160ff1660011480156200006a57506200006830620000de60201b62002c541760201c565b155b620000925760405162461bcd60e51b81526004016200008990620000ed565b60405180910390fd5b506000919050565b60005460ff808416911610620000c45760405162461bcd60e51b81526004016200008990620000ed565b506000805460ff191660ff92909216919091179055600190565b6001600160a01b03163b151590565b6020808252602e908201527f496e697469616c697a61626c653a20636f6e747261637420697320616c72656160408201526d191e481a5b9a5d1a585b1a5e995960921b606082015260800190565b615b1c806200014b6000396000f3fe608060405234801561001057600080fd5b506004361061020f5760003560e01c806301ffc9a71461021457806309648a9d1461023c5780630d06101a1461025c5780630d7e149f146102715780630d8d3975146102925780630ebe1bbd146102a557806318782559146102b857806326c50007146102cb578063364bc15a146102ef5780633837b05e146103045780633f4fb5aa1461032457806344c3b6071461033757806348cbb2fc1461034a5780634a77234e146103535780634dab5e69146103665780634e46f22314610379578063506da0b81461038c57806354f6127f1461039f57806355dd978b146103b25780635c48a342146103c55780635c622a0e146103da5780636cc6cde1146103fa57806379502c551461040b5780637c1236271461042457806380b204b71461043957806380c2dde21461044c57806381296f6f1461045f5780638602ce1b1461047257806387dfee571461048557806391d148541461049857806399992506146104ab5780639cea0787146104b35780639f707c6c146104c8578063aced1661146104db578063b992db0f146104ec578063bc197c81146104ff578063c08d6f011461053a578063c3f909d41461055a578063c98c05b71461056f578063de3a23c514610577578063df33cc511461058a578063ea8221a91461059d578063ed25d178146105a6578063f23a6e61146105b9578063f24fc903146105cc575b600080fd5b6102276102223660046137ce565b6105ec565b60405190151581526020015b60405180910390f35b61024f61024a3660046137ff565b610623565b6040516102339190613874565b61026f61026a3660046137ff565b6106c5565b005b61028461027f3660046137ff565b610727565b604051908152602001610233565b61026f6102a03660046137ff565b610748565b61026f6102b33660046138bf565b61089a565b61026f6102c6366004613988565b610aba565b6102de6102d93660046137ff565b610ba1565b604051610233959493929190613a28565b610284600080516020615aa783398151915281565b6103176103123660046137ff565b610bef565b6040516102339190613a5a565b61024f6103323660046137ff565b610d00565b6102276103453660046137ff565b610d97565b61028460155481565b61026f6103613660046137ff565b610e1c565b61026f6103743660046137ff565b61116c565b61026f6103873660046137ff565b6112f2565b61022761039a366004613a6e565b6113ad565b61024f6103ad3660046137ff565b6114f2565b601254610317906001600160a01b031681565b610284600080516020615ac783398151915281565b6103ed6103e83660046137ff565b611512565b6040516102339190613a9a565b6005546001600160a01b0316610317565b610413611544565b604051610233959493929190613c31565b61042c611731565b6040516102339190613cd8565b61026f610447366004613d3a565b611844565b601154610317906001600160a01b031681565b61026f61046d366004613e70565b6119ab565b61026f610480366004613e70565b611a1c565b61026f610493366004613ed9565b611b08565b6102276104a6366004613f75565b611c8c565b610227611cb7565b610284600080516020615a8783398151915281565b61026f6104d6366004613fa5565b611d3c565b6004546001600160a01b0316610317565b61026f6104fa3660046137ff565b611d8b565b61052161050d366004614008565b63bc197c8160e01b98975050505050505050565b6040516001600160e01b03199091168152602001610233565b61054d6105483660046137ff565b611f9f565b60405161023391906140c6565b610562612084565b6040516102339190614221565b6102846124f0565b61026f6105853660046137ff565b612562565b61026f610598366004613fa5565b61288c565b61028460135481565b6103176105b43660046142c0565b6129d3565b6105216105c73660046142fc565b612b24565b6105df6105da3660046137ff565b612b37565b6040516102339190614377565b60006001600160e01b03198216630271189760e51b148061061d57506301ffc9a760e01b6001600160e01b03198316145b92915050565b6000818152601c602052604090208054606091906106409061438a565b80601f016020809104026020016040519081016040528092919081815260200182805461066c9061438a565b80156106b95780601f1061068e576101008083540402835291602001916106b9565b820191906000526020600020905b81548152906001019060200180831161069c57829003601f168201915b50505050509050919050565b6015541561070b5760405162461bcd60e51b815260206004820152600e60248201526d151c9858dada5b99d259081cd95d60921b60448201526064015b60405180910390fd5b6002546001600160a01b0316331461072257600080fd5b601555565b6014818154811061073757600080fd5b600091825260209091200154905081565b6014818154811061075b5761075b6143be565b906000526020600020015442116107845760405162461bcd60e51b8152600401610702906143d4565b600260108281548110610799576107996143be565b60009182526020909120600560069092020181015460ff16908111156107c1576107c16139fe565b146107fd5760405162461bcd60e51b815260206004820152600c60248201526b139bdd081c1c9bdc1bdcd95960a21b6044820152606401610702565b6001546010805473__$3ec311f63f1cd166364ee887ad77eb9bd8$__926385c92867926001600160a01b03909116918590811061083c5761083c6143be565b90600052602060002090600602016040518363ffffffff1660e01b81526004016108679291906143f8565b60006040518083038186803b15801561087f57600080fd5b505af4158015610893573d6000803e3d6000fd5b5050505050565b60006108a66001612c63565b905080156108be576000805461ff0019166101001790555b60006108d06040840160208501614411565b6001600160a01b0316036109175760405162461bcd60e51b815260206004820152600e60248201526d12d9595c195c881a5b9d985b1a5960921b6044820152606401610702565b600280546001600160a01b03199081166001600160a01b03898116919091179092556000805462010000600160b01b0319163362010000021790556001805482168884161790556011805490911691861691909117905560138390558160036109808282614c07565b90505060005b61099360a084018461444e565b90508110156109f75780601b60006109ae60a087018761444e565b858181106109be576109be6143be565b90506020028101906109d091906146b8565b604090810135825260208201929092520160002055806109ef81614d6d565b915050610986565b50600454610a1f90600080516020615aa7833981519152906001600160a01b03166001612cf2565b6005546001600160a01b031615610a5757600554610a5790600080516020615a87833981519152906001600160a01b03166001612cf2565b610a6c610a67608084018461444e565b612d27565b8015610ab2576000805461ff0019169055604051600181527f7f26b83ff96e1f2b6a682f133852f6798a09c465da95921460cefb38474024989060200160405180910390a15b505050505050565b610ad2600080516020615aa783398151915233611c8c565b80610af05750610af0600080516020615ac783398151915233611c8c565b610b315760405162461bcd60e51b815260206004820152601260248201527127b7363c9025b2b2b832b917a9b7b63b32b960711b6044820152606401610702565b600154604051626dc0df60e21b81526001600160a01b03909116906301b7037c90610b689088908890889088908890600401614dbc565b600060405180830381600087803b158015610b8257600080fd5b505af1158015610b96573d6000803e3d6000fd5b505050505050505050565b60108181548110610bb157600080fd5b6000918252602090912060069091020180546001820154600283015460038401546005909401546001600160a01b0390931694509092909160ff1685565b60006013548203610c01575030919050565b601354821015610c90576011546001600160a01b0316610c2357506000919050565b601154604051631c1bd82f60e11b8152600481018490526001600160a01b0390911690633837b05e90602401602060405180830381865afa158015610c6c573d6000803e3d6000fd5b505050506040513d601f19601f8201168201806040525081019061061d9190614dea565b601354821115610cfb576012546001600160a01b0316610cb257506000919050565b601254604051631c1bd82f60e11b8152600481018490526001600160a01b0390911690633837b05e90602401602060405180830381865afa158015610c6c573d6000803e3d6000fd5b919050565b6010546000828152601a602052604090205460609114610d565760405162461bcd60e51b815260206004820152601160248201527029b637ba1034b73b30b634b2103b32b91760791b6044820152606401610702565b6000828152601a602052604090208054610d7290600190614e07565b81548110610d8257610d826143be565b9060005260206000200180546106409061438a565b6040516336d39c6160e11b815260048101829052601a60248201526009604482015260009073__$3ec311f63f1cd166364ee887ad77eb9bd8$__90636da738c290606401602060405180830381865af4158015610df8573d6000803e3d6000fd5b505050506040513d601f19601f8201168201806040525081019061061d9190614e1e565b60105415610e9257610e3c600080516020615aa783398151915233611c8c565b80610e5157506011546001600160a01b031633145b610e925760405162461bcd60e51b815260206004820152601260248201527113db9b1e481ad9595c195c8bdc185c995b9d60721b6044820152606401610702565b6010548114610ed35760405162461bcd60e51b815260206004820152600d60248201526c092dcecc2d8d2c840d2dcc8caf609b1b6044820152606401610702565b60175415610f125760405162461bcd60e51b815260206004820152600c60248201526b6f7574676f696e672063627360a01b6044820152606401610702565b60165415610f515760405162461bcd60e51b815260206004820152600c60248201526b696e636f6d696e672063627360a01b6044820152606401610702565b6001546011546010805460405163699e0add60e01b8152919373__$3ec311f63f1cd166364ee887ad77eb9bd8$__9363699e0add93610fa3936001600160a01b03938416936009931691600401614f63565b600060405180830381865af4158015610fc0573d6000803e3d6000fd5b505050506040513d6000823e601f3d908101601f19168201604052610fe89190810190615024565b8154600180820184556000938452602093849020835160069093020180546001600160a01b0319166001600160a01b03909316929092178255828401519082015560408201516002820155606082015160038201556080820151805192939192611058926004850192019061365a565b5060a08201518160050160006101000a81548160ff02191690836005811115611083576110836139fe565b0217905550506014805460018101825560009182527fce6d7b5282bd9a3661ae061feed1dbda4e52ab073b1f9285be6e155d9c38d4ec0155506110c4612e92565b7f152ec8ae15d347b2d2a8f0858caa29bcaaa0906749a1f43e08bfe7998346024030826040516110f59291906143f8565b60405180910390a16012546001600160a01b0316156111695760125460405163253b91a760e11b8152600481018390526001600160a01b0390911690634a77234e906024015b600060405180830381600087803b15801561115557600080fd5b505af1158015610893573d6000803e3d6000fd5b50565b611184600080516020615a8783398151915233611c8c565b6111a05760405162461bcd60e51b815260040161070290615128565b6002601082815481106111b5576111b56143be565b60009182526020909120600560069092020181015460ff16908111156111dd576111dd6139fe565b148061122357506003601082815481106111f9576111f96143be565b60009182526020909120600560069092020181015460ff1690811115611221576112216139fe565b145b6112605760405162461bcd60e51b815260206004820152600e60248201526d10d85b9b9bdd081c995c5d595cdd60921b6044820152606401610702565b73__$3ec311f63f1cd166364ee887ad77eb9bd8$__6324b286026010838154811061128d5761128d6143be565b90600052602060002090600602016040518263ffffffff1660e01b81526004016112b991815260200190565b60006040518083038186803b1580156112d157600080fd5b505af41580156112e5573d6000803e3d6000fd5b5050505061116981613110565b61130a600080516020615a8783398151915233611c8c565b6113265760405162461bcd60e51b815260040161070290615128565b60036010828154811061133b5761133b6143be565b60009182526020909120600560069092020181015460ff1690811115611363576113636139fe565b146113805760405162461bcd60e51b815260040161070290615151565b73__$3ec311f63f1cd166364ee887ad77eb9bd8$__6359111fb56010838154811061128d5761128d6143be565b6000805b600e548110156114e857600e8054600091601a91839190859081106113d8576113d86143be565b90600052602060002090600202016000015481526020019081526020016000208481548110611409576114096143be565b90600052602060002001805461141e9061438a565b80601f016020809104026020016040519081016040528092919081815260200182805461144a9061438a565b80156114975780601f1061146c57610100808354040283529160200191611497565b820191906000526020600020905b81548152906001019060200180831161147a57829003601f168201915b50505050508060200190518101906114af9190614dea565b9050806001600160a01b0316856001600160a01b0316036114d55760019250505061061d565b50806114e081614d6d565b9150506113b1565b5060009392505050565b6000818152601a60205260409020805460609190610d7290600190614e07565b600060108281548110611527576115276143be565b600091825260209091206005600690920201015460ff1692915050565b600380546004546005546006546040805160e081018252600980546001600160a01b039081168352600a54602080850191909152600b5484860152600c546060850152600d80548651818402810184019097528087529983169a988316999790921697959693949293608086019392918301828280156115e357602002820191906000526020600020905b8154815260200190600101908083116115cf575b5050505050815260200160058201805480602002602001604051908101604052809291908181526020016000905b828210156116a55783829060005260206000209060020201604051806040016040529081600082015481526020016001820180548060200260200160405190810160405280929190818152602001828054801561168d57602002820191906000526020600020905b815481526020019060010190808311611679575b50505050508152505081526020019060010190611611565b50505050815260200160068201805480602002602001604051908101604052809291908181526020016000905b8282101561172457600084815260209081902060408051606081018252600286029092018054835260019081015460ff80821685870152610100909104169183019190915290835290920191016116d2565b5050505081525050905085565b60606010805480602002602001604051908101604052809291908181526020016000905b8282101561183b5760008481526020908190206040805160c0810182526006860290920180546001600160a01b0316835260018101548385015260028101548383015260038101546060840152600481018054835181870281018701909452808452939491936080860193928301828280156117f057602002820191906000526020600020905b8154815260200190600101908083116117dc575b505050918352505060058281015460209092019160ff1690811115611817576118176139fe565b6005811115611828576118286139fe565b8152505081526020019060010190611755565b50505050905090565b61185c600080516020615aa783398151915233611c8c565b6118785760405162461bcd60e51b815260040161070290615183565b600a5481146118995760405162461bcd60e51b8152600401610702906151a8565b6001601084815481106118ae576118ae6143be565b60009182526020909120600560069092020181015460ff16908111156118d6576118d66139fe565b146119125760405162461bcd60e51b815260206004820152600c60248201526b139bdd08115e1958dd5d195960a21b6044820152606401610702565b73__$3ec311f63f1cd166364ee887ad77eb9bd8$__636a0a24f16010858154811061193f5761193f6143be565b906000526020600020906006020184846040518463ffffffff1660e01b815260040161196d939291906151df565b60006040518083038186803b15801561198557600080fd5b505af4158015611999573d6000803e3d6000fd5b505050506119a683613110565b505050565b6119c3600080516020615ac783398151915233611c8c565b6119fd5760405162461bcd60e51b815260206004820152600b60248201526a534f4c5645525f524f4c4560a81b6044820152606401610702565b6000828152601c6020908152604090912082516119a6928401906136a5565b611a34600080516020615aa783398151915233611c8c565b611a505760405162461bcd60e51b815260040161070290615183565b6000828152601b602052604090205460088054600392908110611a7557611a756143be565b600091825260209091206001600590920201015460ff166003811115611a9d57611a9d6139fe565b14611ae35760405162461bcd60e51b81526020600482015260166024820152751bdb9b1e48125b99d95cdd151e5c194b93585b9d585b60521b6044820152606401610702565b611aed828261314a565b604051600080516020615a6783398151915290600090a15050565b611b20600080516020615a8783398151915233611c8c565b611b3c5760405162461bcd60e51b815260040161070290615128565b600360108381548110611b5157611b516143be565b60009182526020909120600560069092020181015460ff1690811115611b7957611b796139fe565b14611b965760405162461bcd60e51b815260040161070290615151565b60148281548110611ba957611ba96143be565b90600052602060002001544211611bd25760405162461bcd60e51b8152600401610702906143d4565b600a54815114611bf45760405162461bcd60e51b8152600401610702906151a8565b6001546010805473__$3ec311f63f1cd166364ee887ad77eb9bd8$__92631b948e49926001600160a01b039091169186908110611c3357611c336143be565b9060005260206000209060060201846040518463ffffffff1660e01b8152600401611c60939291906151f9565b60006040518083038186803b158015611c7857600080fd5b505af4158015610ab2573d6000803e3d6000fd5b6000918252601d602090815260408084206001600160a01b0393909316845291905290205460ff1690565b601054604051635cc1f6b560e01b815260009173__$3ec311f63f1cd166364ee887ad77eb9bd8$__91635cc1f6b591611cf69160089190600401615256565b602060405180830381865af4158015611d13573d6000803e3d6000fd5b505050506040513d601f19601f82011682018060405250810190611d379190614e1e565b905090565b611d54600080516020615ac783398151915233611c8c565b611d5d57600080fd5b611d688160016144cd565b60148381548110611d7b57611d7b6143be565b6000918252602090912001555050565b611d93611cb7565b1515600114611dd65760405162461bcd60e51b815260206004820152600f60248201526e1a5b99d95cdd1cc81a5b9d985b1a59608a1b6044820152606401610702565b73__$3ec311f63f1cd166364ee887ad77eb9bd8$__632dd4082482600160009054906101000a90046001600160a01b031660108581548110611e1a57611e1a6143be565b60009182526020808320601554601154600c548652601a938490526040909520805460069095029092019460099491926001600160a01b03909116918b908110611e6657611e666143be565b906000526020600020018054611e7b9061438a565b80601f0160208091040260200160405190810160405280929190818152602001828054611ea79061438a565b8015611ef45780601f10611ec957610100808354040283529160200191611ef4565b820191906000526020600020905b815481529060010190602001808311611ed757829003601f168201915b5050505050806020019051810190611f0c919061536f565b60405160e08a901b6001600160e01b031916815260048101989098526001600160a01b03968716602489015260448801959095526064870193909352608486019190915260a485015290911660c483015260e48201526101040160006040518083038186803b158015611f7e57600080fd5b505af4158015611f92573d6000803e3d6000fd5b50505050611169816131e8565b6000818152601a60209081526040808320805482518185028101850190935280835260609492939192909184015b82821015612079578382906000526020600020018054611fec9061438a565b80601f01602080910402602001604051908101604052809291908181526020018280546120189061438a565b80156120655780601f1061203a57610100808354040283529160200191612065565b820191906000526020600020905b81548152906001019060200180831161204857829003601f168201915b505050505081526020019060010190611fcd565b505050509050919050565b61208c613718565b6040805160e081018252600380546001600160a01b0390811683526004548116602080850191909152600554909116838501526006546060840152600780548551818402810184019096528086529394929360808601939260009084015b828210156121c3576000848152602090819020604080518082019091526002850290910180546001600160a01b0316825260018101805492939192918401916121329061438a565b80601f016020809104026020016040519081016040528092919081815260200182805461215e9061438a565b80156121ab5780601f10612180576101008083540402835291602001916121ab565b820191906000526020600020905b81548152906001019060200180831161218e57829003601f168201915b505050505081525050815260200190600101906120ea565b50505050815260200160058201805480602002602001604051908101604052809291908181526020016000905b8282101561230b57838290600052602060002090600502016040518060a0016040529081600082015481526020016001820160009054906101000a900460ff166003811115612241576122416139fe565b6003811115612252576122526139fe565b8152602001600282015481526020016003820154815260200160048201805461227a9061438a565b80601f01602080910402602001604051908101604052809291908181526020018280546122a69061438a565b80156122f35780601f106122c8576101008083540402835291602001916122f3565b820191906000526020600020905b8154815290600101906020018083116122d657829003601f168201915b505050505081525050815260200190600101906121f0565b505050908252506040805160e0810182526006840180546001600160a01b03168252600785015460208381019190915260088601548385015260098601546060840152600a8601805485518184028101840190965280865295820195939492936080860193928301828280156123a057602002820191906000526020600020905b81548152602001906001019080831161238c575b5050505050815260200160058201805480602002602001604051908101604052809291908181526020016000905b828210156124625783829060005260206000209060020201604051806040016040529081600082015481526020016001820180548060200260200160405190810160405280929190818152602001828054801561244a57602002820191906000526020600020905b815481526020019060010190808311612436575b505050505081525050815260200190600101906123ce565b50505050815260200160068201805480602002602001604051908101604052809291908181526020016000905b828210156124e157600084815260209081902060408051606081018252600286029092018054835260019081015460ff808216858701526101009091041691830191909152908352909201910161248f565b50505091525050905250919050565b6009546040516370a0823160e01b81526000916001600160a01b0316906370a0823190612521903090600401613a5a565b602060405180830381865afa15801561253e573d6000803e3d6000fd5b505050506040513d601f19601f82011682018060405250810190611d37919061536f565b60003382604051602001612577929190615388565b60408051601f19818403018152918152815160209283012060008181526019909352912054600880549293506125cf9290919081106125b8576125b86143be565b906000526020600020906005020160030154610bef565b6001600160a01b0316336001600160a01b0316146125ff5760405162461bcd60e51b8152600401610702906153a5565b600081815260196020526040812054600880549091908110612623576126236143be565b600091825260209091206001600590920201015460ff16600381111561264b5761264b6139fe565b146126815760405162461bcd60e51b81526020600482015260066024820152653737ba1021b160d11b6044820152606401610702565b6000818152601960205260409020546008805490919081106126a5576126a56143be565b6000918252602082206005909102018054916126c083614d6d565b90915550506000818152601960205260409020546008805461284d929081106126eb576126eb6143be565b906000526020600020906005020160020154336001600160a01b0316633f4fb5aa6003600501601660030160008781526020019081526020016000205481548110612738576127386143be565b906000526020600020906005020160040180546127549061438a565b80601f01602080910402602001604051908101604052809291908181526020018280546127809061438a565b80156127cd5780601f106127a2576101008083540402835291602001916127cd565b820191906000526020600020905b8154815290600101906020018083116127b057829003601f168201915b50505050508060200190518101906127e5919061536f565b6040518263ffffffff1660e01b815260040161280391815260200190565b600060405180830381865afa158015612820573d6000803e3d6000fd5b505050506040513d6000823e601f3d908101601f1916820160405261284891908101906153d4565b61314a565b6000818152601960205260408120819055601680549161286c83615441565b9091555050604051600080516020615a6783398151915290600090a15050565b60135481116128d55760405162461bcd60e51b8152602060048201526015602482015274736f6c766572206e6f7420646f776e73747265616d60581b6044820152606401610702565b6128de81610bef565b6001600160a01b0316336001600160a01b03161461290e5760405162461bcd60e51b8152600401610702906153a5565b6000828152601a60205260409020541580159061293a57506010546000838152601a6020526040902054145b1561298c5760405163de3a23c560e01b815260048101839052339063de3a23c590602401600060405180830381600087803b15801561297857600080fd5b505af1158015610ab2573d6000803e3d6000fd5b6000828152601860209081526040822080546001810182559083529082200180546001600160a01b0319163317905560178054916129c983614d6d565b91905055505b5050565b60006129ed600080516020615aa783398151915233611c8c565b612a275760405162461bcd60e51b815260206004820152600b60248201526a27b7363c9035b2b2b832b960a91b6044820152606401610702565b6012546001600160a01b031615612a6c5760405162461bcd60e51b815260206004820152600960248201526812185cc818da1a5b1960ba1b6044820152606401610702565b6000546013546015546040516386a2d22760e01b815273__$3ec311f63f1cd166364ee887ad77eb9bd8$__936386a2d22793612abe93620100009092046001600160a01b031692889290600401615816565b602060405180830381865af4158015612adb573d6000803e3d6000fd5b505050506040513d601f19601f82011682018060405250810190612aff9190614dea565b601280546001600160a01b0319166001600160a01b0392909216918217905592915050565b63f23a6e6160e01b5b9695505050505050565b612b6c6040805160c081018252600080825260208201819052918101829052606080820183905260808201529060a082015290565b60108281548110612b7f57612b7f6143be565b60009182526020918290206040805160c081018252600690930290910180546001600160a01b031683526001810154838501526002810154838301526003810154606084015260048101805483518187028101870190945280845293949193608086019392830182828015612c1357602002820191906000526020600020905b815481526020019060010190808311612bff575b505050918352505060058281015460209092019160ff1690811115612c3a57612c3a6139fe565b6005811115612c4b57612c4b6139fe565b90525092915050565b6001600160a01b03163b151590565b60008054610100900460ff1615612cb1578160ff166001148015612c8d5750612c8b30612c54565b155b612ca95760405162461bcd60e51b815260040161070290615906565b506000919050565b60005460ff808416911610612cd85760405162461bcd60e51b815260040161070290615906565b506000805460ff191660ff92909216919091179055600190565b6000928352601d602090815260408085206001600160a01b039490941685529290529120805460ff1916911515919091179055565b60005b818110156119a6576000838383818110612d4657612d466143be565b9050602002810190612d589190614497565b612d6190615954565b9050600081600001516001600160a01b031663392f5f646040518163ffffffff1660e01b8152600401600060405180830381865afa158015612da7573d6000803e3d6000fd5b505050506040513d6000823e601f3d908101601f19168201604052612dcf91908101906159c9565b905060005b8151811015612e1857612e06828581518110612df257612df26143be565b602002602001015184600001516001612cf2565b80612e1081614d6d565b915050612dd4565b5081516020830151604051630f3bd93360e21b81526001600160a01b0390921691633cef64cc91612e4b91600401613874565b600060405180830381600087803b158015612e6557600080fd5b505af1158015612e79573d6000803e3d6000fd5b5050505050508080612e8a90614d6d565b915050612d2a565b60005b6008548110156130f65760006008805483908110612eb557612eb56143be565b600091825260209091206001600590920201015460ff166003811115612edd57612edd6139fe565b14612f1357612f0e60036005018281548110612efb57612efb6143be565b906000526020600020906005020161331e565b6130e4565b6000306001600160a01b0316633837b05e60036005018481548110612f3a57612f3a6143be565b9060005260206000209060050201600301546040518263ffffffff1660e01b8152600401612f6a91815260200190565b602060405180830381865afa158015612f87573d6000803e3d6000fd5b505050506040513d601f19601f82011682018060405250810190612fab9190614dea565b9050612fb7818361340a565b806001600160a01b031663df33cc5160036005018481548110612fdc57612fdc6143be565b90600052602060002090600502016004018054612ff89061438a565b80601f01602080910402602001604051908101604052809291908181526020018280546130249061438a565b80156130715780601f1061304657610100808354040283529160200191613071565b820191906000526020600020905b81548152906001019060200180831161305457829003601f168201915b5050505050806020019051810190613089919061536f565b6013546040516001600160e01b031960e085901b16815260048101929092526024820152604401600060405180830381600087803b1580156130ca57600080fd5b505af11580156130de573d6000803e3d6000fd5b50505050505b806130ee81614d6d565b915050612e95565b50604051600080516020615a6783398151915290600090a1565b60065461311e9060016144cd565b6131289042615a4e565b6014828154811061313b5761313b6143be565b60009182526020909120015550565b60105461315990600190614e07565b6000838152601a6020526040902054146131ac5760405162461bcd60e51b815260206004820152601460248201527314db1bdd081d995c9cda5bdb881a5b9d985b1a5960621b6044820152606401610702565b6000828152601a60209081526040822080546001810182559083529181902083516131de9391909101918401906136a5565b506129cf82613520565b6012546001600160a01b0316158015906132745750601260009054906101000a90046001600160a01b03166001600160a01b031663999925066040518163ffffffff1660e01b8152600401602060405180830381865afa158015613250573d6000803e3d6000fd5b505050506040513d601f19601f820116820180604052508101906132749190614e1e565b80156132e857506012546040516344c3b60760e01b8152600481018390526001600160a01b03909116906344c3b60790602401602060405180830381865afa1580156132c4573d6000803e3d6000fd5b505050506040513d601f19601f820116820180604052508101906132e89190614e1e565b156111695760125460405163b992db0f60e01b8152600481018390526001600160a01b039091169063b992db0f9060240161113b565b600181015460039060ff1681811115613339576133396139fe565b111561337c5760405162461bcd60e51b8152602060048201526012602482015271496e76616c696420696e676573745479706560701b6044820152606401610702565b805481600061338a83614d6d565b9091555060039050600182015460ff1660038111156133ab576133ab6139fe565b1461116957600281015460405163b3d7370760e01b815260048101839052611169919073__$3ec311f63f1cd166364ee887ad77eb9bd8$__9063b3d7370790602401600060405180830381865af4158015612820573d6000803e3d6000fd5b80601660030160008460036005018581548110613429576134296143be565b906000526020600020906005020160040180546134459061438a565b80601f01602080910402602001604051908101604052809291908181526020018280546134719061438a565b80156134be5780601f10613493576101008083540402835291602001916134be565b820191906000526020600020905b8154815290600101906020018083116134a157829003601f168201915b50505050508060200190518101906134d6919061536f565b6040516020016134e7929190615388565b60408051601f1981840301815291815281516020928301208352908201929092520160009081209190915560168054916129c983614d6d565b60005b6000828152601860205260409020548110156129cf576000828152601860205260408120805483908110613559576135596143be565b6000918252602090912001546001600160a01b031614613648576000828152601860205260409020805482908110613593576135936143be565b60009182526020909120015460405163de3a23c560e01b8152600481018490526001600160a01b039091169063de3a23c590602401600060405180830381600087803b1580156135e257600080fd5b505af11580156135f6573d6000803e3d6000fd5b505050600083815260186020526040902080549091508290811061361c5761361c6143be565b6000918252602082200180546001600160a01b0319169055601780549161364283615441565b91905055505b8061365281614d6d565b915050613523565b828054828255906000526020600020908101928215613695579160200282015b8281111561369557825182559160200191906001019061367a565b506136a19291506137b9565b5090565b8280546136b19061438a565b90600052602060002090601f0160209004810192826136d35760008555613695565b82601f106136ec57805160ff1916838001178555613695565b82800160010185558215613695579182018281111561369557825182559160200191906001019061367a565b6040518060e0016040528060006001600160a01b0316815260200160006001600160a01b0316815260200160006001600160a01b031681526020016000815260200160608152602001606081526020016137b46040518060e0016040528060006001600160a01b031681526020016000815260200160008152602001600080191681526020016060815260200160608152602001606081525090565b905290565b5b808211156136a157600081556001016137ba565b6000602082840312156137e057600080fd5b81356001600160e01b0319811681146137f857600080fd5b9392505050565b60006020828403121561381157600080fd5b5035919050565b60005b8381101561383357818101518382015260200161381b565b83811115613842576000848401525b50505050565b60008151808452613860816020860160208601613818565b601f01601f19169290920160200192915050565b6020815260006137f86020830184613848565b6001600160a01b038116811461116957600080fd5b8035610cfb81613887565b600060e082840312156138b957600080fd5b50919050565b600080600080600060a086880312156138d757600080fd5b85356138e281613887565b945060208601356138f281613887565b9350604086013561390281613887565b92506060860135915060808601356001600160401b0381111561392457600080fd5b613930888289016138a7565b9150509295509295909350565b60008083601f84011261394f57600080fd5b5081356001600160401b0381111561396657600080fd5b6020830191508360208260051b850101111561398157600080fd5b9250929050565b6000806000806000608086880312156139a057600080fd5b85356139ab81613887565b9450602086013593506040860135925060608601356001600160401b038111156139d457600080fd5b6139e08882890161393d565b969995985093965092949392505050565b6001600160a01b03169052565b634e487b7160e01b600052602160045260246000fd5b60068110613a2457613a246139fe565b9052565b6001600160a01b038616815260208101859052604081018490526060810183905260a08101612b2d6080830184613a14565b6001600160a01b0391909116815260200190565b60008060408385031215613a8157600080fd5b8235613a8c81613887565b946020939093013593505050565b6020810161061d8284613a14565b600081518084526020808501945080840160005b83811015613ad857815187529582019590820190600101613abc565b509495945050505050565b600081518084526020808501945080840160005b83811015613ad8578151805188528381015160ff908116858a0152604091820151169088015260609096019590820190600101613af7565b60018060a01b0381511682526000602080830151818501526040808401518186015260608085015181870152608085015160e06080880152613b7460e0880182613aa8565b905060a086015187820360a08901528181518084528684019150868160051b85010187840193506000805b83811015613c0757868303601f190185528551805184528a01518a84018a905280518a8501819052908b019083908a8601905b80831015613bf25783518252928d019260019290920191908d0190613bd2565b50978c0197968c019694505050600101613b9f565b505060c08a015197508a810360c08c0152613c228189613ae3565b9b9a5050505050505050505050565b6001600160a01b0386811682528581166020830152841660408201526060810183905260a060808201819052600090613c6c90830184613b2f565b979650505050505050565b60018060a01b0381511682526020810151602083015260408101516040830152606081015160608301526000608082015160c06080850152613cbc60c0850182613aa8565b905060a0830151613cd060a0860182613a14565b509392505050565b6000602080830181845280855180835260408601915060408160051b870101925083870160005b82811015613d2d57603f19888603018452613d1b858351613c77565b94509285019290850190600101613cff565b5092979650505050505050565b600080600060408486031215613d4f57600080fd5b8335925060208401356001600160401b03811115613d6c57600080fd5b613d788682870161393d565b9497909650939450505050565b634e487b7160e01b600052604160045260246000fd5b60405160c081016001600160401b0381118282101715613dbd57613dbd613d85565b60405290565b604051601f8201601f191681016001600160401b0381118282101715613deb57613deb613d85565b604052919050565b60006001600160401b03821115613e0c57613e0c613d85565b50601f01601f191660200190565b600082601f830112613e2b57600080fd5b8135613e3e613e3982613df3565b613dc3565b818152846020838601011115613e5357600080fd5b816020850160208301376000918101602001919091529392505050565b60008060408385031215613e8357600080fd5b8235915060208301356001600160401b03811115613ea057600080fd5b613eac85828601613e1a565b9150509250929050565b60006001600160401b03821115613ecf57613ecf613d85565b5060051b60200190565b60008060408385031215613eec57600080fd5b823591506020808401356001600160401b03811115613f0a57600080fd5b8401601f81018613613f1b57600080fd5b8035613f29613e3982613eb6565b81815260059190911b82018301908381019088831115613f4857600080fd5b928401925b82841015613f6657833582529284019290840190613f4d565b80955050505050509250929050565b60008060408385031215613f8857600080fd5b823591506020830135613f9a81613887565b809150509250929050565b60008060408385031215613fb857600080fd5b50508035926020909101359150565b60008083601f840112613fd957600080fd5b5081356001600160401b03811115613ff057600080fd5b60208301915083602082850101111561398157600080fd5b60008060008060008060008060a0898b03121561402457600080fd5b883561402f81613887565b9750602089013561403f81613887565b965060408901356001600160401b038082111561405b57600080fd5b6140678c838d0161393d565b909850965060608b013591508082111561408057600080fd5b61408c8c838d0161393d565b909650945060808b01359150808211156140a557600080fd5b506140b28b828c01613fc7565b999c989b5096995094979396929594505050565b6000602080830181845280855180835260408601915060408160051b870101925083870160005b82811015613d2d57603f19888603018452614109858351613848565b945092850192908501906001016140ed565b600081518084526020808501808196508360051b8101915082860160005b85811015614180578284038952815180516001600160a01b03168552850151604086860181905261416c81870183613848565b9a87019a9550505090840190600101614139565b5091979650505050505050565b60048110613a2457613a246139fe565b600081518084526020808501808196508360051b8101915082860160005b85811015614180578284038952815160a081518652868201516141e08888018261418d565b50604082810151908701526060808301519087015260809182015191860181905261420d81870183613848565b9a87019a95505050908401906001016141bb565b60208152600060018060a01b0380845116602084015280602085015116604084015250604083015161425660608401826139f1565b5060608301516080830152608083015160e060a084015261427b61010084018261411b565b905060a0840151601f19808584030160c0860152614299838361419d565b925060c08601519150808584030160e0860152506142b78282613b2f565b95945050505050565b6000602082840312156142d257600080fd5b81356001600160401b038111156142e857600080fd5b6142f4848285016138a7565b949350505050565b60008060008060008060a0878903121561431557600080fd5b863561432081613887565b9550602087013561433081613887565b9450604087013593506060870135925060808701356001600160401b0381111561435957600080fd5b61436589828a01613fc7565b979a9699509497509295939492505050565b6020815260006137f86020830184613c77565b600181811c9082168061439e57607f821691505b6020821081036138b957634e487b7160e01b600052602260045260246000fd5b634e487b7160e01b600052603260045260246000fd5b6020808252600a9082015269151a5b595b1bd8dad95960b21b604082015260600190565b6001600160a01b03929092168252602082015260400190565b60006020828403121561442357600080fd5b81356137f881613887565b80546001600160a01b0319166001600160a01b0392909216919091179055565b6000808335601e1984360301811261446557600080fd5b8301803591506001600160401b0382111561447f57600080fd5b6020019150600581901b360382131561398157600080fd5b60008235603e198336030181126144ad57600080fd5b9190910192915050565b634e487b7160e01b600052601160045260246000fd5b60008160001904831182151516156144e7576144e76144b7565b500290565b5b818110156129cf57600081556001016144ed565b61450b815461438a565b80156129cf57601f81116001811461452557505060009055565b826000526020600020614543601f840160051c8201600183016144ec565b506020600090812081855555505050565b6000808335601e1984360301811261456b57600080fd5b8301803591506001600160401b0382111561458557600080fd5b60200191503681900382131561398157600080fd5b601f8211156119a657806000526020600020601f840160051c810160208510156145c15750805b610893601f850160051c8301826144ec565b81356145de81613887565b6145e8818361442e565b50600180820160206145fc81860186614554565b6001600160401b0381111561461357614613613d85565b61462781614621865461438a565b8661459a565b6000601f82116001811461465b57600083156146435750838201355b600019600385901b1c1916600184901b178655610b96565b600086815260209020601f19841690835b82811015614689578685013582559387019390890190870161466c565b50848210156146a65760001960f88660031b161c19848701351681555b50505050841b90930190915550505050565b60008235609e198336030181126144ad57600080fd5b6004811061116957600080fd5b8135815560018082016020808501356146f3816146ce565b60048110614703576147036139fe565b60ff1983541660ff821681178455505060408501356002850155606085013560038501556004840191506145fc6080860186614554565b600160401b83111561474e5761474e613d85565b8054838255808410156147f2577f33333333333333333333333333333333333333333333333333333333333333336001818311811615614790576147906144b7565b60058287118216156147a4576147a46144b7565b600085815260208120909350878202810190828602015b808210156147ec5784825584848301558460028301558460038301556147e360048301614501565b908201906147bb565b50505050505b5060008181526020812083915b85811015610ab25761481a61481484876146b8565b836146db565b60209290920191600591909101906001016147ff565b6000823560de198336030181126144ad57600080fd5b8054600080835581156119a657828152602081208281015b808210156108935782825560018201915061485e565b813581556001808201602061488b8186018661444e565b600160401b81111561489f5761489f613d85565b8354818555808210156148d35760008581528481208381019083015b808210156148cf57828255908801906148bb565b5050505b506000938452828420935b818110156148f95782358555938501939183019185016148de565b5050505050505050565b600160401b83111561491757614917613d85565b80548382558084101561498f576001600160ff1b036001818311811615614940576149406144b7565b818611811615614952576149526144b7565b60008481526020812090925086821b81019084831b015b8082101561498a5783825561497f838301614846565b600282019150614969565b505050505b5060008181526020812083915b85811015610ab2576149b76149b18487614497565b83614874565b602092909201916002919091019060010161499c565b6000808335601e198436030181126149e457600080fd5b8301803591506001600160401b038211156149fe57600080fd5b602001915060608102360382131561398157600080fd5b60ff8116811461116957600080fd5b81358155600181016020830135614a3a81614a15565b81546040850135614a4a81614a15565b61ff008160081b1660ff841661ffff19841617178455505050505050565b600160401b831115614a7c57614a7c613d85565b805483825580841015614aee576001600160ff1b036001818311811615614aa557614aa56144b7565b818611811615614ab757614ab76144b7565b60008481526020812090925086821b81019084831b015b80821015614ae9578382558383830155600282019150614ace565b505050505b5060008181526020812083915b85811015610ab257614b0d8383614a24565b6060929092019160029190910190600101614afb565b8135614b2e81613887565b614b38818361442e565b50600160208084013582840155604084013560028401556060840135600384015560048301614b6a608086018661444e565b600160401b811115614b7e57614b7e613d85565b825481845580821015614ba3578360005284600020614ba18282018483016144ec565b505b506000928352838320925b81811015614bc9578235845592850192918401918501614bae565b505050505050614bdc60a083018361444e565b614bea818360058601614903565b5050614bf960c08301836149cd565b613842818360068601614a68565b8135614c1281613887565b614c1c818361442e565b506001602080840135614c2e81613887565b614c3a8184860161442e565b5060026040850135614c4b81613887565b614c578183870161442e565b506060850135600385015560048401614c73608087018761444e565b600160401b811115614c8757614c87613d85565b825481845580821015614cf7576001600160ff1b03808211881615614cae57614cae6144b7565b808311881615614cc057614cc06144b7565b50600084815286812083891b810190838a1b015b80821015614cf357828255614cea8a8301614501565b90870190614cd4565b5050505b506000928352602083209282905b82811015614d2f57614d20614d1a8386614497565b866145d3565b93850193908601908701614d05565b5050505050505050614d4460a083018361444e565b614d5281836005860161473a565b50506129cf614d6460c0840184614830565b60068301614b23565b600060018201614d7f57614d7f6144b7565b5060010190565b81835260006001600160fb1b03831115614d9f57600080fd5b8260051b8083602087013760009401602001938452509192915050565b60018060a01b0386168152846020820152836040820152608060608201526000613c6c608083018486614d86565b600060208284031215614dfc57600080fd5b81516137f881613887565b600082821015614e1957614e196144b7565b500390565b600060208284031215614e3057600080fd5b815180151581146137f857600080fd5b6000815480845260208085019450836000528060002060005b83811015613ad857815487529582019560019182019101614e59565b600081548084526020808501808196508360051b810191506000868152838120815b86811015614f03578385038a52815485526040868601819052600180840180549288018390528552878520606088019290919086905b80821015614eea5783548552938a01939282019290820190614ecd565b5050509a87019a50945060029190910190600101614e97565b509298975050505050505050565b6000815480845260208085019450836000528060002060005b83811015613ad8578154875260018083015460ff808216868b015260089190911c16604089015260609097019660029092019101614f2a565b600060018060a01b03808716835260806020840152614f8860808401828854166139f1565b50600185015460a0830152600285015460c0830152600385015460e083015260e0610100830152614fc0610160830160048701614e40565b607f198084830301610120850152614fdb8260058901614e75565b9150808483030161014085015250614ff68160068801614f11565b91505061500660408301856139f1565b82606083015295945050505050565b805160068110610cfb57600080fd5b6000602080838503121561503757600080fd5b82516001600160401b038082111561504e57600080fd5b9084019060c0828703121561506257600080fd5b61506a613d9b565b825161507581613887565b80825250838301518482015260408301516040820152606083015160608201526080830151828111156150a757600080fd5b83019150601f820187136150ba57600080fd5b81516150c8613e3982613eb6565b81815260059190911b830185019085810190898311156150e757600080fd5b938601935b82851015615105578451825293860193908601906150ec565b608084015250615119905060a08401615015565b60a08201529695505050505050565b6020808252600f908201526e27b7363c9030b93134ba3930ba37b960891b604082015260600190565b602080825260189082015277139bdd08105c989a5d1c985d1a5bdb94995c5d595cdd195960421b604082015260600190565b6020808252600b908201526a27b7363c9025b2b2b832b960a91b604082015260600190565b6020808252601e908201527f6c656e677468206d757374206d61746368206f7574636f6d65536c6f74730000604082015260600190565b8381526040602082015260006142b7604083018486614d86565b6001600160a01b038416815260208082018490526060604083018190528351908301819052600091848101916080850190845b818110156152485784518352938301939183019160010161522c565b509098975050505050505050565b6000604082016040835280855480835260608501915060608160051b8601019250600087815260208120815b8381101561535a57878603605f1901855281548652600182015460ff166152ac602088018261418d565b5060028201546040870152600382015460608701526004820160a060808801528381546152d88161438a565b8060a08b015260018216600081146152f7576001811461530c5761533d565b60ff19831660c08c015260e08b01935061533d565b84885260208820885b838110156153345781548d820160c00152600190910190602001615315565b8c0160c0019450505b509198505050602095909501945060059190910190600101615282565b50505050506020929092019290925292915050565b60006020828403121561538157600080fd5b5051919050565b60609290921b6001600160601b0319168252601482015260340190565b60208082526015908201527436b9b39739b2b73232b9103737ba1039b7b63b32b960591b604082015260600190565b6000602082840312156153e657600080fd5b81516001600160401b038111156153fc57600080fd5b8201601f8101841361540d57600080fd5b805161541b613e3982613df3565b81815285602083850101111561543057600080fd5b6142b7826020830160208601613818565b600081615450576154506144b7565b506000190190565b6000808335601e1984360301811261546f57600080fd5b83016020810192503590506001600160401b0381111561548e57600080fd5b8060051b360383131561398157600080fd5b6000808335601e198436030181126154b757600080fd5b83016020810192503590506001600160401b038111156154d657600080fd5b80360383131561398157600080fd5b81835281816020850137506000828201602090810191909152601f909101601f19169091010190565b60008235603e1983360301811261552457600080fd5b90910192915050565b81835260006020808501808196508560051b810191508460005b8781101561418057828403895261555e828861550e565b6040813561556b81613887565b6001600160a01b03168652615582828801836154a0565b9250818888015261559682880184836154e5565b9b88019b965050509185019150600101615547565b81835260006020808501808196508560051b81019150846000805b88811015614f03578385038a528235609e198936030181126155e6578283fd5b88018035865260a0878201356155fb816146ce565b6156078989018261418d565b506040828101359088015260608083013590880152608061562a818401846154a0565b935082828a015261563e838a0185836154e5565b9d8a019d985050509387019350506001016155c6565b6000823560de1983360301811261552457600080fd5b6000808335601e1984360301811261568157600080fd5b83016020810192503590506001600160401b038111156156a057600080fd5b60608102360383131561398157600080fd5b8183526000602080850194508260005b85811015613ad85781358752828201356156db81614a15565b60ff90811688850152604090838201356156f481614a15565b169088015260609687019691909101906001016156c2565b6000813561571981613887565b6001600160a01b0316835260208281013581850152604080840135818601526060808501359086015261574f6080850185615458565b60e0608088015261576460e088018284614d86565b91505061577460a0860186615458565b87830360a0890152808352848301600582901b840186018360005b848110156157e257868303601f190184526157aa828761550e565b803584526157ba8a820182615458565b9150898b8601526157ce8a86018383614d86565b958b0195945050509088019060010161578f565b50506157f160c08a018a61566a565b9750955089810360c08b01526158088188886156b2565b9a9950505050505050505050565b6001600160a01b03858116825260806020830152600090853561583881613887565b16608083015261584a6020860161389c565b61585760a08401826139f1565b506158646040860161389c565b61587160c08401826139f1565b50606085013560e08301526158896080860186615458565b60e06101008501526158a06101608501828461552d565b9150506158b060a0870187615458565b607f1980868503016101208701526158c98483856155ab565b93506158d860c08a018a615654565b9250808685030161014087015250506158f1828261570c565b60408501969096525050506060015292915050565b6020808252602e908201527f496e697469616c697a61626c653a20636f6e747261637420697320616c72656160408201526d191e481a5b9a5d1a585b1a5e995960921b606082015260800190565b60006040823603121561596657600080fd5b604080519081016001600160401b03808211838310171561598957615989613d85565b816040528435915061599a82613887565b908252602084013590808211156159b057600080fd5b506159bd36828601613e1a565b60208301525092915050565b600060208083850312156159dc57600080fd5b82516001600160401b038111156159f257600080fd5b8301601f81018513615a0357600080fd5b8051615a11613e3982613eb6565b81815260059190911b82018301908381019087831115615a3057600080fd5b928401925b82841015613c6c57835182529284019290840190615a35565b60008219821115615a6157615a616144b7565b50019056fe71bd81ebe1d98a2944767394e76a9aff18724b2cf04e1db71254f804544b35c716ceee8289685dd2a02b9c8ae81d2df373176ce53519e6284e2a2950d6546ffafc8737ab85eb45125971625a9ebdb75cc78e01d5c1fa80c4c6e5203f47bc4fab0ca87275d169c8ebebebf4aab9c6c710c7681b39422556e90b16a44c68ee4e46a2646970667358221220ee1c4e742e3c9f408f6fd62fcf567cdb654af4d6b489abdd21950b52e8d8718d64736f6c634300080d0033",
  "linkReferences": {
    "contracts/solvers/SolverLib.sol": {
      "SolverLib": [
        {
          "length": 20,
          "start": 2385
        },
        {
          "length": 20,
          "start": 3849
        },
        {
          "length": 20,
          "start": 4279
        },
        {
          "length": 20,
          "start": 5037
        },
        {
          "length": 20,
          "start": 5325
        },
        {
          "length": 20,
          "start": 6751
        },
        {
          "length": 20,
          "start": 7496
        },
        {
          "length": 20,
          "start": 7703
        },
        {
          "length": 20,
          "start": 7971
        },
        {
          "length": 20,
          "start": 11215
        },
        {
          "length": 20,
          "start": 13595
        }
      ]
    }
  },
  "deployedLinkReferences": {
    "contracts/solvers/SolverLib.sol": {
      "SolverLib": [
        {
          "length": 20,
          "start": 2054
        },
        {
          "length": 20,
          "start": 3518
        },
        {
          "length": 20,
          "start": 3948
        },
        {
          "length": 20,
          "start": 4706
        },
        {
          "length": 20,
          "start": 4994
        },
        {
          "length": 20,
          "start": 6420
        },
        {
          "length": 20,
          "start": 7165
        },
        {
          "length": 20,
          "start": 7372
        },
        {
          "length": 20,
          "start": 7640
        },
        {
          "length": 20,
          "start": 10884
        },
        {
          "length": 20,
          "start": 13264
        }
      ]
    }
  }
}