{
  "_format": "hh-sol-artifact-1",
  "contractName": "BasicSolverV1",
  "sourceName": "contracts/solvers/BasicSolverV1.sol",
  "abi": [
    {
      "anonymous": false,
      "inputs": [
        {
          "indexed": false,
          "internalType": "bytes32",
          "name": "conditionId",
          "type": "bytes32"
        }
      ],
      "name": "ChangedStatus",
      "type": "event"
    },
    {
      "anonymous": false,
      "inputs": [
        {
          "indexed": false,
          "internalType": "bytes32",
          "name": "conditionId",
          "type": "bytes32"
        }
      ],
      "name": "DeliveredNullArbitration",
      "type": "event"
    },
    {
      "anonymous": false,
      "inputs": [
        {
          "indexed": false,
          "internalType": "address",
          "name": "child",
          "type": "address"
        }
      ],
      "name": "DeployedChild",
      "type": "event"
    },
    {
      "anonymous": false,
      "inputs": [],
      "name": "IngestedData",
      "type": "event"
    },
    {
      "anonymous": false,
      "inputs": [
        {
          "indexed": false,
          "internalType": "uint8",
          "name": "version",
          "type": "uint8"
        }
      ],
      "name": "Initialized",
      "type": "event"
    },
    {
      "anonymous": false,
      "inputs": [
        {
          "indexed": false,
          "internalType": "address",
          "name": "solver",
          "type": "address"
        },
        {
          "indexed": false,
          "internalType": "uint256",
          "name": "solveIndex",
          "type": "uint256"
        }
      ],
      "name": "PreparedSolve",
      "type": "event"
    },
    {
      "inputs": [],
      "name": "ARBITRATOR_ROLE",
      "outputs": [
        {
          "internalType": "bytes32",
          "name": "",
          "type": "bytes32"
        }
      ],
      "stateMutability": "view",
      "type": "function"
    },
    {
      "inputs": [],
      "name": "KEEPER_ROLE",
      "outputs": [
        {
          "internalType": "bytes32",
          "name": "",
          "type": "bytes32"
        }
      ],
      "stateMutability": "view",
      "type": "function"
    },
    {
      "inputs": [
        {
          "internalType": "bytes32",
          "name": "_slot",
          "type": "bytes32"
        },
        {
          "internalType": "bytes",
          "name": "_data",
          "type": "bytes"
        }
      ],
      "name": "addData",
      "outputs": [],
      "stateMutability": "nonpayable",
      "type": "function"
    },
    {
      "inputs": [
        {
          "internalType": "uint256",
          "name": "_index",
          "type": "uint256"
        }
      ],
      "name": "addressFromChainIndex",
      "outputs": [
        {
          "internalType": "address",
          "name": "_address",
          "type": "address"
        }
      ],
      "stateMutability": "view",
      "type": "function"
    },
    {
      "inputs": [
        {
          "internalType": "uint256",
          "name": "_index",
          "type": "uint256"
        }
      ],
      "name": "allocationsValid",
      "outputs": [
        {
          "internalType": "bool",
          "name": "",
          "type": "bool"
        }
      ],
      "stateMutability": "view",
      "type": "function"
    },
    {
      "inputs": [
        {
          "internalType": "uint256",
          "name": "_index",
          "type": "uint256"
        },
        {
          "internalType": "uint256[]",
          "name": "payouts",
          "type": "uint256[]"
        }
      ],
      "name": "arbitrate",
      "outputs": [],
      "stateMutability": "nonpayable",
      "type": "function"
    },
    {
      "inputs": [
        {
          "internalType": "uint256",
          "name": "_index",
          "type": "uint256"
        }
      ],
      "name": "arbitrateNull",
      "outputs": [],
      "stateMutability": "nonpayable",
      "type": "function"
    },
    {
      "inputs": [
        {
          "internalType": "uint256",
          "name": "_index",
          "type": "uint256"
        }
      ],
      "name": "arbitrationRequested",
      "outputs": [],
      "stateMutability": "nonpayable",
      "type": "function"
    },
    {
      "inputs": [],
      "name": "arbitrator",
      "outputs": [
        {
          "internalType": "address",
          "name": "",
          "type": "address"
        }
      ],
      "stateMutability": "view",
      "type": "function"
    },
    {
      "inputs": [],
      "name": "chainChild",
      "outputs": [
        {
          "internalType": "address",
          "name": "",
          "type": "address"
        }
      ],
      "stateMutability": "view",
      "type": "function"
    },
    {
      "inputs": [],
      "name": "chainIndex",
      "outputs": [
        {
          "internalType": "uint256",
          "name": "",
          "type": "uint256"
        }
      ],
      "stateMutability": "view",
      "type": "function"
    },
    {
      "inputs": [],
      "name": "chainParent",
      "outputs": [
        {
          "internalType": "address",
          "name": "",
          "type": "address"
        }
      ],
      "stateMutability": "view",
      "type": "function"
    },
    {
      "inputs": [],
      "name": "collateralBalance",
      "outputs": [
        {
          "internalType": "uint256",
          "name": "balance",
          "type": "uint256"
        }
      ],
      "stateMutability": "view",
      "type": "function"
    },
    {
      "inputs": [
        {
          "internalType": "uint256",
          "name": "index",
          "type": "uint256"
        }
      ],
      "name": "condition",
      "outputs": [
        {
          "components": [
            {
              "internalType": "contract IERC20",
              "name": "collateralToken",
              "type": "address"
            },
            {
              "internalType": "bytes32",
              "name": "questionId",
              "type": "bytes32"
            },
            {
              "internalType": "bytes32",
              "name": "parentCollectionId",
              "type": "bytes32"
            },
            {
              "internalType": "bytes32",
              "name": "conditionId",
              "type": "bytes32"
            },
            {
              "internalType": "uint256[]",
              "name": "payouts",
              "type": "uint256[]"
            },
            {
              "internalType": "enum SolverLib.Status",
              "name": "status",
              "type": "uint8"
            }
          ],
          "internalType": "struct SolverLib.Condition",
          "name": "",
          "type": "tuple"
        }
      ],
      "stateMutability": "view",
      "type": "function"
    },
    {
      "inputs": [
        {
          "internalType": "uint256",
          "name": "",
          "type": "uint256"
        }
      ],
      "name": "conditions",
      "outputs": [
        {
          "internalType": "contract IERC20",
          "name": "collateralToken",
          "type": "address"
        },
        {
          "internalType": "bytes32",
          "name": "questionId",
          "type": "bytes32"
        },
        {
          "internalType": "bytes32",
          "name": "parentCollectionId",
          "type": "bytes32"
        },
        {
          "internalType": "bytes32",
          "name": "conditionId",
          "type": "bytes32"
        },
        {
          "internalType": "enum SolverLib.Status",
          "name": "status",
          "type": "uint8"
        }
      ],
      "stateMutability": "view",
      "type": "function"
    },
    {
      "inputs": [],
      "name": "config",
      "outputs": [
        {
          "internalType": "contract Solver",
          "name": "implementation",
          "type": "address"
        },
        {
          "internalType": "address",
          "name": "keeper",
          "type": "address"
        },
        {
          "internalType": "address",
          "name": "arbitrator",
          "type": "address"
        },
        {
          "internalType": "uint256",
          "name": "timelockSeconds",
          "type": "uint256"
        },
        {
          "components": [
            {
              "internalType": "contract IERC20",
              "name": "collateralToken",
              "type": "address"
            },
            {
              "internalType": "uint256",
              "name": "outcomeSlots",
              "type": "uint256"
            },
            {
              "internalType": "uint256",
              "name": "parentCollectionIndexSet",
              "type": "uint256"
            },
            {
              "internalType": "bytes32",
              "name": "amountSlot",
              "type": "bytes32"
            },
            {
              "internalType": "uint256[]",
              "name": "partition",
              "type": "uint256[]"
            },
            {
              "components": [
                {
                  "internalType": "bytes32",
                  "name": "recipientAddressSlot",
                  "type": "bytes32"
                },
                {
                  "internalType": "bytes32[]",
                  "name": "recipientAmountSlots",
                  "type": "bytes32[]"
                }
              ],
              "internalType": "struct SolverLib.Allocation[]",
              "name": "allocations",
              "type": "tuple[]"
            },
            {
              "components": [
                {
                  "internalType": "bytes32",
                  "name": "digest",
                  "type": "bytes32"
                },
                {
                  "internalType": "uint8",
                  "name": "hashFunction",
                  "type": "uint8"
                },
                {
                  "internalType": "uint8",
                  "name": "size",
                  "type": "uint8"
                }
              ],
              "internalType": "struct SolverLib.Multihash[]",
              "name": "outcomeURIs",
              "type": "tuple[]"
            }
          ],
          "internalType": "struct SolverLib.ConditionBase",
          "name": "conditionBase",
          "type": "tuple"
        }
      ],
      "stateMutability": "view",
      "type": "function"
    },
    {
      "inputs": [
        {
          "internalType": "uint256",
          "name": "_index",
          "type": "uint256"
        }
      ],
      "name": "confirmPayouts",
      "outputs": [],
      "stateMutability": "nonpayable",
      "type": "function"
    },
    {
      "inputs": [
        {
          "components": [
            {
              "internalType": "contract Solver",
              "name": "implementation",
              "type": "address"
            },
            {
              "internalType": "address",
              "name": "keeper",
              "type": "address"
            },
            {
              "internalType": "address",
              "name": "arbitrator",
              "type": "address"
            },
            {
              "internalType": "uint256",
              "name": "timelockSeconds",
              "type": "uint256"
            },
            {
              "components": [
                {
                  "internalType": "address",
                  "name": "module",
                  "type": "address"
                },
                {
                  "internalType": "bytes",
                  "name": "data",
                  "type": "bytes"
                }
              ],
              "internalType": "struct SolverLib.ModuleLoader[]",
              "name": "moduleLoaders",
              "type": "tuple[]"
            },
            {
              "components": [
                {
                  "internalType": "uint256",
                  "name": "executions",
                  "type": "uint256"
                },
                {
                  "internalType": "enum SolverLib.IngestType",
                  "name": "ingestType",
                  "type": "uint8"
                },
                {
                  "internalType": "bytes32",
                  "name": "slot",
                  "type": "bytes32"
                },
                {
                  "internalType": "uint256",
                  "name": "solverIndex",
                  "type": "uint256"
                },
                {
                  "internalType": "bytes",
                  "name": "data",
                  "type": "bytes"
                }
              ],
              "internalType": "struct SolverLib.Ingest[]",
              "name": "ingests",
              "type": "tuple[]"
            },
            {
              "components": [
                {
                  "internalType": "contract IERC20",
                  "name": "collateralToken",
                  "type": "address"
                },
                {
                  "internalType": "uint256",
                  "name": "outcomeSlots",
                  "type": "uint256"
                },
                {
                  "internalType": "uint256",
                  "name": "parentCollectionIndexSet",
                  "type": "uint256"
                },
                {
                  "internalType": "bytes32",
                  "name": "amountSlot",
                  "type": "bytes32"
                },
                {
                  "internalType": "uint256[]",
                  "name": "partition",
                  "type": "uint256[]"
                },
                {
                  "components": [
                    {
                      "internalType": "bytes32",
                      "name": "recipientAddressSlot",
                      "type": "bytes32"
                    },
                    {
                      "internalType": "bytes32[]",
                      "name": "recipientAmountSlots",
                      "type": "bytes32[]"
                    }
                  ],
                  "internalType": "struct SolverLib.Allocation[]",
                  "name": "allocations",
                  "type": "tuple[]"
                },
                {
                  "components": [
                    {
                      "internalType": "bytes32",
                      "name": "digest",
                      "type": "bytes32"
                    },
                    {
                      "internalType": "uint8",
                      "name": "hashFunction",
                      "type": "uint8"
                    },
                    {
                      "internalType": "uint8",
                      "name": "size",
                      "type": "uint8"
                    }
                  ],
                  "internalType": "struct SolverLib.Multihash[]",
                  "name": "outcomeURIs",
                  "type": "tuple[]"
                }
              ],
              "internalType": "struct SolverLib.ConditionBase",
              "name": "conditionBase",
              "type": "tuple"
            }
          ],
          "internalType": "struct SolverLib.Config",
          "name": "_config",
          "type": "tuple"
        }
      ],
      "name": "deployChild",
      "outputs": [
        {
          "internalType": "address",
          "name": "",
          "type": "address"
        }
      ],
      "stateMutability": "nonpayable",
      "type": "function"
    },
    {
      "inputs": [
        {
          "internalType": "uint256",
          "name": "_index",
          "type": "uint256"
        }
      ],
      "name": "executeSolve",
      "outputs": [],
      "stateMutability": "nonpayable",
      "type": "function"
    },
    {
      "inputs": [
        {
          "internalType": "bytes32",
          "name": "_slot",
          "type": "bytes32"
        }
      ],
      "name": "getAllData",
      "outputs": [
        {
          "internalType": "bytes[]",
          "name": "data",
          "type": "bytes[]"
        }
      ],
      "stateMutability": "view",
      "type": "function"
    },
    {
      "inputs": [
        {
          "internalType": "bytes32",
          "name": "_slot",
          "type": "bytes32"
        }
      ],
      "name": "getCallbackOutput",
      "outputs": [
        {
          "internalType": "bytes",
          "name": "data",
          "type": "bytes"
        }
      ],
      "stateMutability": "view",
      "type": "function"
    },
    {
      "inputs": [],
      "name": "getConditions",
      "outputs": [
        {
          "components": [
            {
              "internalType": "contract IERC20",
              "name": "collateralToken",
              "type": "address"
            },
            {
              "internalType": "bytes32",
              "name": "questionId",
              "type": "bytes32"
            },
            {
              "internalType": "bytes32",
              "name": "parentCollectionId",
              "type": "bytes32"
            },
            {
              "internalType": "bytes32",
              "name": "conditionId",
              "type": "bytes32"
            },
            {
              "internalType": "uint256[]",
              "name": "payouts",
              "type": "uint256[]"
            },
            {
              "internalType": "enum SolverLib.Status",
              "name": "status",
              "type": "uint8"
            }
          ],
          "internalType": "struct SolverLib.Condition[]",
          "name": "",
          "type": "tuple[]"
        }
      ],
      "stateMutability": "view",
      "type": "function"
    },
    {
      "inputs": [],
      "name": "getConfig",
      "outputs": [
        {
          "components": [
            {
              "internalType": "contract Solver",
              "name": "implementation",
              "type": "address"
            },
            {
              "internalType": "address",
              "name": "keeper",
              "type": "address"
            },
            {
              "internalType": "address",
              "name": "arbitrator",
              "type": "address"
            },
            {
              "internalType": "uint256",
              "name": "timelockSeconds",
              "type": "uint256"
            },
            {
              "components": [
                {
                  "internalType": "address",
                  "name": "module",
                  "type": "address"
                },
                {
                  "internalType": "bytes",
                  "name": "data",
                  "type": "bytes"
                }
              ],
              "internalType": "struct SolverLib.ModuleLoader[]",
              "name": "moduleLoaders",
              "type": "tuple[]"
            },
            {
              "components": [
                {
                  "internalType": "uint256",
                  "name": "executions",
                  "type": "uint256"
                },
                {
                  "internalType": "enum SolverLib.IngestType",
                  "name": "ingestType",
                  "type": "uint8"
                },
                {
                  "internalType": "bytes32",
                  "name": "slot",
                  "type": "bytes32"
                },
                {
                  "internalType": "uint256",
                  "name": "solverIndex",
                  "type": "uint256"
                },
                {
                  "internalType": "bytes",
                  "name": "data",
                  "type": "bytes"
                }
              ],
              "internalType": "struct SolverLib.Ingest[]",
              "name": "ingests",
              "type": "tuple[]"
            },
            {
              "components": [
                {
                  "internalType": "contract IERC20",
                  "name": "collateralToken",
                  "type": "address"
                },
                {
                  "internalType": "uint256",
                  "name": "outcomeSlots",
                  "type": "uint256"
                },
                {
                  "internalType": "uint256",
                  "name": "parentCollectionIndexSet",
                  "type": "uint256"
                },
                {
                  "internalType": "bytes32",
                  "name": "amountSlot",
                  "type": "bytes32"
                },
                {
                  "internalType": "uint256[]",
                  "name": "partition",
                  "type": "uint256[]"
                },
                {
                  "components": [
                    {
                      "internalType": "bytes32",
                      "name": "recipientAddressSlot",
                      "type": "bytes32"
                    },
                    {
                      "internalType": "bytes32[]",
                      "name": "recipientAmountSlots",
                      "type": "bytes32[]"
                    }
                  ],
                  "internalType": "struct SolverLib.Allocation[]",
                  "name": "allocations",
                  "type": "tuple[]"
                },
                {
                  "components": [
                    {
                      "internalType": "bytes32",
                      "name": "digest",
                      "type": "bytes32"
                    },
                    {
                      "internalType": "uint8",
                      "name": "hashFunction",
                      "type": "uint8"
                    },
                    {
                      "internalType": "uint8",
                      "name": "size",
                      "type": "uint8"
                    }
                  ],
                  "internalType": "struct SolverLib.Multihash[]",
                  "name": "outcomeURIs",
                  "type": "tuple[]"
                }
              ],
              "internalType": "struct SolverLib.ConditionBase",
              "name": "conditionBase",
              "type": "tuple"
            }
          ],
          "internalType": "struct SolverLib.Config",
          "name": "",
          "type": "tuple"
        }
      ],
      "stateMutability": "view",
      "type": "function"
    },
    {
      "inputs": [
        {
          "internalType": "bytes32",
          "name": "_slot",
          "type": "bytes32"
        }
      ],
      "name": "getData",
      "outputs": [
        {
          "internalType": "bytes",
          "name": "data",
          "type": "bytes"
        }
      ],
      "stateMutability": "view",
      "type": "function"
    },
    {
      "inputs": [
        {
          "internalType": "uint256",
          "name": "conditionIndex",
          "type": "uint256"
        }
      ],
      "name": "getStatus",
      "outputs": [
        {
          "internalType": "enum SolverLib.Status",
          "name": "status",
          "type": "uint8"
        }
      ],
      "stateMutability": "view",
      "type": "function"
    },
    {
      "inputs": [
        {
          "internalType": "bytes32",
          "name": "_slot",
          "type": "bytes32"
        }
      ],
      "name": "handleCallback",
      "outputs": [],
      "stateMutability": "nonpayable",
      "type": "function"
    },
    {
      "inputs": [
        {
          "internalType": "bytes32",
          "name": "role",
          "type": "bytes32"
        },
        {
          "internalType": "address",
          "name": "account",
          "type": "address"
        }
      ],
      "name": "hasRole",
      "outputs": [
        {
          "internalType": "bool",
          "name": "",
          "type": "bool"
        }
      ],
      "stateMutability": "view",
      "type": "function"
    },
    {
      "inputs": [],
      "name": "ingestsValid",
      "outputs": [
        {
          "internalType": "bool",
          "name": "",
          "type": "bool"
        }
      ],
      "stateMutability": "view",
      "type": "function"
    },
    {
      "inputs": [
        {
          "internalType": "address",
          "name": "_deployer",
          "type": "address"
        },
        {
          "internalType": "address",
          "name": "_ctfAddress",
          "type": "address"
        },
        {
          "internalType": "address",
          "name": "_chainParent",
          "type": "address"
        },
        {
          "internalType": "uint256",
          "name": "_chainIndex",
          "type": "uint256"
        },
        {
          "components": [
            {
              "internalType": "contract Solver",
              "name": "implementation",
              "type": "address"
            },
            {
              "internalType": "address",
              "name": "keeper",
              "type": "address"
            },
            {
              "internalType": "address",
              "name": "arbitrator",
              "type": "address"
            },
            {
              "internalType": "uint256",
              "name": "timelockSeconds",
              "type": "uint256"
            },
            {
              "components": [
                {
                  "internalType": "address",
                  "name": "module",
                  "type": "address"
                },
                {
                  "internalType": "bytes",
                  "name": "data",
                  "type": "bytes"
                }
              ],
              "internalType": "struct SolverLib.ModuleLoader[]",
              "name": "moduleLoaders",
              "type": "tuple[]"
            },
            {
              "components": [
                {
                  "internalType": "uint256",
                  "name": "executions",
                  "type": "uint256"
                },
                {
                  "internalType": "enum SolverLib.IngestType",
                  "name": "ingestType",
                  "type": "uint8"
                },
                {
                  "internalType": "bytes32",
                  "name": "slot",
                  "type": "bytes32"
                },
                {
                  "internalType": "uint256",
                  "name": "solverIndex",
                  "type": "uint256"
                },
                {
                  "internalType": "bytes",
                  "name": "data",
                  "type": "bytes"
                }
              ],
              "internalType": "struct SolverLib.Ingest[]",
              "name": "ingests",
              "type": "tuple[]"
            },
            {
              "components": [
                {
                  "internalType": "contract IERC20",
                  "name": "collateralToken",
                  "type": "address"
                },
                {
                  "internalType": "uint256",
                  "name": "outcomeSlots",
                  "type": "uint256"
                },
                {
                  "internalType": "uint256",
                  "name": "parentCollectionIndexSet",
                  "type": "uint256"
                },
                {
                  "internalType": "bytes32",
                  "name": "amountSlot",
                  "type": "bytes32"
                },
                {
                  "internalType": "uint256[]",
                  "name": "partition",
                  "type": "uint256[]"
                },
                {
                  "components": [
                    {
                      "internalType": "bytes32",
                      "name": "recipientAddressSlot",
                      "type": "bytes32"
                    },
                    {
                      "internalType": "bytes32[]",
                      "name": "recipientAmountSlots",
                      "type": "bytes32[]"
                    }
                  ],
                  "internalType": "struct SolverLib.Allocation[]",
                  "name": "allocations",
                  "type": "tuple[]"
                },
                {
                  "components": [
                    {
                      "internalType": "bytes32",
                      "name": "digest",
                      "type": "bytes32"
                    },
                    {
                      "internalType": "uint8",
                      "name": "hashFunction",
                      "type": "uint8"
                    },
                    {
                      "internalType": "uint8",
                      "name": "size",
                      "type": "uint8"
                    }
                  ],
                  "internalType": "struct SolverLib.Multihash[]",
                  "name": "outcomeURIs",
                  "type": "tuple[]"
                }
              ],
              "internalType": "struct SolverLib.ConditionBase",
              "name": "conditionBase",
              "type": "tuple"
            }
          ],
          "internalType": "struct SolverLib.Config",
          "name": "_solverConfig",
          "type": "tuple"
        }
      ],
      "name": "init",
      "outputs": [],
      "stateMutability": "nonpayable",
      "type": "function"
    },
    {
      "inputs": [
        {
          "internalType": "address",
          "name": "account",
          "type": "address"
        },
        {
          "internalType": "uint256",
          "name": "conditionIndex",
          "type": "uint256"
        }
      ],
      "name": "isRecipient",
      "outputs": [
        {
          "internalType": "bool",
          "name": "",
          "type": "bool"
        }
      ],
      "stateMutability": "view",
      "type": "function"
    },
    {
      "inputs": [],
      "name": "keeper",
      "outputs": [
        {
          "internalType": "address",
          "name": "",
          "type": "address"
        }
      ],
      "stateMutability": "view",
      "type": "function"
    },
    {
      "inputs": [
        {
          "internalType": "address",
          "name": "operator",
          "type": "address"
        },
        {
          "internalType": "address",
          "name": "from",
          "type": "address"
        },
        {
          "internalType": "uint256[]",
          "name": "ids",
          "type": "uint256[]"
        },
        {
          "internalType": "uint256[]",
          "name": "values",
          "type": "uint256[]"
        },
        {
          "internalType": "bytes",
          "name": "data",
          "type": "bytes"
        }
      ],
      "name": "onERC1155BatchReceived",
      "outputs": [
        {
          "internalType": "bytes4",
          "name": "",
          "type": "bytes4"
        }
      ],
      "stateMutability": "nonpayable",
      "type": "function"
    },
    {
      "inputs": [
        {
          "internalType": "address",
          "name": "operator",
          "type": "address"
        },
        {
          "internalType": "address",
          "name": "from",
          "type": "address"
        },
        {
          "internalType": "uint256",
          "name": "id",
          "type": "uint256"
        },
        {
          "internalType": "uint256",
          "name": "value",
          "type": "uint256"
        },
        {
          "internalType": "bytes",
          "name": "data",
          "type": "bytes"
        }
      ],
      "name": "onERC1155Received",
      "outputs": [
        {
          "internalType": "bytes4",
          "name": "",
          "type": "bytes4"
        }
      ],
      "stateMutability": "nonpayable",
      "type": "function"
    },
    {
      "inputs": [
        {
          "internalType": "uint256",
          "name": "_index",
          "type": "uint256"
        }
      ],
      "name": "prepareSolve",
      "outputs": [],
      "stateMutability": "nonpayable",
      "type": "function"
    },
    {
      "inputs": [
        {
          "internalType": "uint256",
          "name": "_index",
          "type": "uint256"
        },
        {
          "internalType": "uint256[]",
          "name": "_payouts",
          "type": "uint256[]"
        }
      ],
      "name": "proposePayouts",
      "outputs": [],
      "stateMutability": "nonpayable",
      "type": "function"
    },
    {
      "inputs": [
        {
          "internalType": "contract IERC20",
          "name": "_collateralToken",
          "type": "address"
        },
        {
          "internalType": "bytes32",
          "name": "_parentCollectionId",
          "type": "bytes32"
        },
        {
          "internalType": "bytes32",
          "name": "_conditionId",
          "type": "bytes32"
        },
        {
          "internalType": "uint256[]",
          "name": "_indexSets",
          "type": "uint256[]"
        }
      ],
      "name": "redeemPosition",
      "outputs": [],
      "stateMutability": "nonpayable",
      "type": "function"
    },
    {
      "inputs": [
        {
          "internalType": "bytes32",
          "name": "_slot",
          "type": "bytes32"
        },
        {
          "internalType": "uint256",
          "name": "_chainIndex",
          "type": "uint256"
        }
      ],
      "name": "registerOutgoingCallback",
      "outputs": [],
      "stateMutability": "nonpayable",
      "type": "function"
    },
    {
      "inputs": [
        {
          "internalType": "bytes32",
          "name": "_trackingId",
          "type": "bytes32"
        }
      ],
      "name": "setTrackingId",
      "outputs": [],
      "stateMutability": "nonpayable",
      "type": "function"
    },
    {
      "inputs": [
        {
          "internalType": "bytes4",
          "name": "interfaceId",
          "type": "bytes4"
        }
      ],
      "name": "supportsInterface",
      "outputs": [
        {
          "internalType": "bool",
          "name": "",
          "type": "bool"
        }
      ],
      "stateMutability": "view",
      "type": "function"
    },
    {
      "inputs": [
        {
          "internalType": "uint256",
          "name": "",
          "type": "uint256"
        }
      ],
      "name": "timelocks",
      "outputs": [
        {
          "internalType": "uint256",
          "name": "",
          "type": "uint256"
        }
      ],
      "stateMutability": "view",
      "type": "function"
    },
    {
      "inputs": [],
      "name": "trackingId",
      "outputs": [
        {
          "internalType": "bytes32",
          "name": "",
          "type": "bytes32"
        }
      ],
      "stateMutability": "view",
      "type": "function"
    }
  ],
  "bytecode": "0x60806040523480156200001157600080fd5b506200001c62000022565b6200013b565b6200002e60ff62000031565b50565b60008054610100900460ff16156200009a578160ff1660011480156200006a57506200006830620000de60201b62002abb1760201c565b155b620000925760405162461bcd60e51b81526004016200008990620000ed565b60405180910390fd5b506000919050565b60005460ff808416911610620000c45760405162461bcd60e51b81526004016200008990620000ed565b506000805460ff191660ff92909216919091179055600190565b6001600160a01b03163b151590565b6020808252602e908201527f496e697469616c697a61626c653a20636f6e747261637420697320616c72656160408201526d191e481a5b9a5d1a585b1a5e995960921b606082015260800190565b61597f806200014b6000396000f3fe608060405234801561001057600080fd5b50600436106101e35760003560e01c806301ffc9a7146101e85780630d06101a146102105780630d7e149f146102255780630d8d3975146102465780630ebe1bbd14610259578063187825591461026c57806326c500071461027f578063364bc15a146102a35780633837b05e146102b85780633f4fb5aa146102d857806344c3b607146102f857806348cbb2fc1461030b5780634a77234e146103145780634dab5e69146103275780634e46f2231461033a578063506da0b81461034d57806354f6127f1461036057806355dd978b146103735780635c622a0e146103865780636cc6cde1146103a657806379502c55146103b75780637c123627146103d057806380b204b7146103e557806380c2dde2146103f85780638602ce1b1461040b57806387dfee571461041e57806391d148541461043157806399992506146104445780639cea07871461044c578063aced166114610461578063b992db0f14610472578063bc197c8114610485578063c08d6f01146104c0578063c3f909d4146104e0578063c98c05b7146104f5578063de3a23c5146104fd578063df33cc5114610510578063ea8221a914610523578063ed25d1781461052c578063f23a6e611461053f578063f24fc90314610552575b600080fd5b6101fb6101f636600461363f565b610572565b60405190151581526020015b60405180910390f35b61022361021e366004613670565b6105a9565b005b610238610233366004613670565b61060b565b604051908152602001610207565b610223610254366004613670565b61062c565b6102236102673660046136c1565b61077e565b61022361027a36600461378a565b61099e565b61029261028d366004613670565b610a42565b60405161020795949392919061382a565b61023860008051602061592a83398151915281565b6102cb6102c6366004613670565b610a90565b604051610207919061385c565b6102eb6102e6366004613670565b610ba1565b60405161020791906138cc565b6101fb610306366004613670565b610cbd565b61023860155481565b610223610322366004613670565b610d42565b610223610335366004613670565b611092565b610223610348366004613670565b611218565b6101fb61035b3660046138df565b6112d3565b6102eb61036e366004613670565b611418565b6012546102cb906001600160a01b031681565b610399610394366004613670565b611438565b604051610207919061390b565b6005546001600160a01b03166102cb565b6103bf61146a565b604051610207959493929190613aa2565b6103d8611657565b6040516102079190613b49565b6102236103f3366004613bab565b61176a565b6011546102cb906001600160a01b031681565b610223610419366004613ce1565b6118d2565b61022361042c366004613d4a565b6119be565b6101fb61043f366004613de6565b611b42565b6101fb611b6d565b61023860008051602061590a83398151915281565b6004546001600160a01b03166102cb565b610223610480366004613670565b611bf2565b6104a7610493366004613e57565b63bc197c8160e01b98975050505050505050565b6040516001600160e01b03199091168152602001610207565b6104d36104ce366004613670565b611e06565b6040516102079190613f15565b6104e8611eeb565b6040516102079190614070565b610238612357565b61022361050b366004613670565b6123c9565b61022361051e36600461410f565b6126f3565b61023860135481565b6102cb61053a366004614131565b61283a565b6104a761054d36600461416d565b61298b565b610565610560366004613670565b61299e565b60405161020791906141e8565b60006001600160e01b03198216630271189760e51b14806105a357506301ffc9a760e01b6001600160e01b03198316145b92915050565b601554156105ef5760405162461bcd60e51b815260206004820152600e60248201526d151c9858dada5b99d259081cd95d60921b60448201526064015b60405180910390fd5b6002546001600160a01b0316331461060657600080fd5b601555565b6014818154811061061b57600080fd5b600091825260209091200154905081565b6014818154811061063f5761063f6141fb565b906000526020600020015442116106685760405162461bcd60e51b81526004016105e690614211565b60026010828154811061067d5761067d6141fb565b60009182526020909120600560069092020181015460ff16908111156106a5576106a5613800565b146106e15760405162461bcd60e51b815260206004820152600c60248201526b139bdd081c1c9bdc1bdcd95960a21b60448201526064016105e6565b6001546010805473__$3ec311f63f1cd166364ee887ad77eb9bd8$__926385c92867926001600160a01b039091169185908110610720576107206141fb565b90600052602060002090600602016040518363ffffffff1660e01b815260040161074b929190614235565b60006040518083038186803b15801561076357600080fd5b505af4158015610777573d6000803e3d6000fd5b5050505050565b600061078a6001612aca565b905080156107a2576000805461ff0019166101001790555b60006107b4604084016020850161424e565b6001600160a01b0316036107fb5760405162461bcd60e51b815260206004820152600e60248201526d12d9595c195c881a5b9d985b1a5960921b60448201526064016105e6565b600280546001600160a01b03199081166001600160a01b03898116919091179092556000805462010000600160b01b0319163362010000021790556001805482168884161790556011805490911691861691909117905560138390558160036108648282614a78565b90505060005b61087760a084018461428b565b90508110156108db5780601b600061089260a087018761428b565b858181106108a2576108a26141fb565b90506020028101906108b49190614529565b604090810135825260208201929092520160002055806108d381614bde565b91505061086a565b506004546109039060008051602061592a833981519152906001600160a01b03166001612b59565b6005546001600160a01b03161561093b5760055461093b9060008051602061590a833981519152906001600160a01b03166001612b59565b61095061094b608084018461428b565b612b8e565b8015610996576000805461ff0019169055604051600181527f7f26b83ff96e1f2b6a682f133852f6798a09c465da95921460cefb38474024989060200160405180910390a15b505050505050565b6109b660008051602061592a83398151915233611b42565b6109d25760405162461bcd60e51b81526004016105e690614bf7565b600154604051626dc0df60e21b81526001600160a01b03909116906301b7037c90610a099088908890889088908890600401614c52565b600060405180830381600087803b158015610a2357600080fd5b505af1158015610a37573d6000803e3d6000fd5b505050505050505050565b60108181548110610a5257600080fd5b6000918252602090912060069091020180546001820154600283015460038401546005909401546001600160a01b0390931694509092909160ff1685565b60006013548203610aa2575030919050565b601354821015610b31576011546001600160a01b0316610ac457506000919050565b601154604051631c1bd82f60e11b8152600481018490526001600160a01b0390911690633837b05e90602401602060405180830381865afa158015610b0d573d6000803e3d6000fd5b505050506040513d601f19601f820116820180604052508101906105a39190614c80565b601354821115610b9c576012546001600160a01b0316610b5357506000919050565b601254604051631c1bd82f60e11b8152600481018490526001600160a01b0390911690633837b05e90602401602060405180830381865afa158015610b0d573d6000803e3d6000fd5b919050565b6010546000828152601a602052604090205460609114610bf75760405162461bcd60e51b815260206004820152601160248201527029b637ba1034b73b30b634b2103b32b91760791b60448201526064016105e6565b6000828152601a602052604090208054610c1390600190614c9d565b81548110610c2357610c236141fb565b906000526020600020018054610c3890614329565b80601f0160208091040260200160405190810160405280929190818152602001828054610c6490614329565b8015610cb15780601f10610c8657610100808354040283529160200191610cb1565b820191906000526020600020905b815481529060010190602001808311610c9457829003601f168201915b50505050509050919050565b6040516336d39c6160e11b815260048101829052601a60248201526009604482015260009073__$3ec311f63f1cd166364ee887ad77eb9bd8$__90636da738c290606401602060405180830381865af4158015610d1e573d6000803e3d6000fd5b505050506040513d601f19601f820116820180604052508101906105a39190614cb4565b60105415610db857610d6260008051602061592a83398151915233611b42565b80610d7757506011546001600160a01b031633145b610db85760405162461bcd60e51b815260206004820152601260248201527113db9b1e481ad9595c195c8bdc185c995b9d60721b60448201526064016105e6565b6010548114610df95760405162461bcd60e51b815260206004820152600d60248201526c092dcecc2d8d2c840d2dcc8caf609b1b60448201526064016105e6565b60175415610e385760405162461bcd60e51b815260206004820152600c60248201526b6f7574676f696e672063627360a01b60448201526064016105e6565b60165415610e775760405162461bcd60e51b815260206004820152600c60248201526b696e636f6d696e672063627360a01b60448201526064016105e6565b6001546011546010805460405163699e0add60e01b8152919373__$3ec311f63f1cd166364ee887ad77eb9bd8$__9363699e0add93610ec9936001600160a01b03938416936009931691600401614df9565b600060405180830381865af4158015610ee6573d6000803e3d6000fd5b505050506040513d6000823e601f3d908101601f19168201604052610f0e9190810190614eba565b8154600180820184556000938452602093849020835160069093020180546001600160a01b0319166001600160a01b03909316929092178255828401519082015560408201516002820155606082015160038201556080820151805192939192610f7e92600485019201906134cb565b5060a08201518160050160006101000a81548160ff02191690836005811115610fa957610fa9613800565b0217905550506014805460018101825560009182527fce6d7b5282bd9a3661ae061feed1dbda4e52ab073b1f9285be6e155d9c38d4ec015550610fea612d03565b7f152ec8ae15d347b2d2a8f0858caa29bcaaa0906749a1f43e08bfe79983460240308260405161101b929190614235565b60405180910390a16012546001600160a01b03161561108f5760125460405163253b91a760e11b8152600481018390526001600160a01b0390911690634a77234e906024015b600060405180830381600087803b15801561107b57600080fd5b505af1158015610777573d6000803e3d6000fd5b50565b6110aa60008051602061590a83398151915233611b42565b6110c65760405162461bcd60e51b81526004016105e690614fbe565b6002601082815481106110db576110db6141fb565b60009182526020909120600560069092020181015460ff169081111561110357611103613800565b1480611149575060036010828154811061111f5761111f6141fb565b60009182526020909120600560069092020181015460ff169081111561114757611147613800565b145b6111865760405162461bcd60e51b815260206004820152600e60248201526d10d85b9b9bdd081c995c5d595cdd60921b60448201526064016105e6565b73__$3ec311f63f1cd166364ee887ad77eb9bd8$__6324b28602601083815481106111b3576111b36141fb565b90600052602060002090600602016040518263ffffffff1660e01b81526004016111df91815260200190565b60006040518083038186803b1580156111f757600080fd5b505af415801561120b573d6000803e3d6000fd5b5050505061108f81612f81565b61123060008051602061590a83398151915233611b42565b61124c5760405162461bcd60e51b81526004016105e690614fbe565b600360108281548110611261576112616141fb565b60009182526020909120600560069092020181015460ff169081111561128957611289613800565b146112a65760405162461bcd60e51b81526004016105e690614fe7565b73__$3ec311f63f1cd166364ee887ad77eb9bd8$__6359111fb5601083815481106111b3576111b36141fb565b6000805b600e5481101561140e57600e8054600091601a91839190859081106112fe576112fe6141fb565b9060005260206000209060020201600001548152602001908152602001600020848154811061132f5761132f6141fb565b90600052602060002001805461134490614329565b80601f016020809104026020016040519081016040528092919081815260200182805461137090614329565b80156113bd5780601f10611392576101008083540402835291602001916113bd565b820191906000526020600020905b8154815290600101906020018083116113a057829003601f168201915b50505050508060200190518101906113d59190614c80565b9050806001600160a01b0316856001600160a01b0316036113fb576001925050506105a3565b508061140681614bde565b9150506112d7565b5060009392505050565b6000818152601a60205260409020805460609190610c1390600190614c9d565b60006010828154811061144d5761144d6141fb565b600091825260209091206005600690920201015460ff1692915050565b600380546004546005546006546040805160e081018252600980546001600160a01b039081168352600a54602080850191909152600b5484860152600c546060850152600d80548651818402810184019097528087529983169a9883169997909216979596939492936080860193929183018282801561150957602002820191906000526020600020905b8154815260200190600101908083116114f5575b5050505050815260200160058201805480602002602001604051908101604052809291908181526020016000905b828210156115cb578382906000526020600020906002020160405180604001604052908160008201548152602001600182018054806020026020016040519081016040528092919081815260200182805480156115b357602002820191906000526020600020905b81548152602001906001019080831161159f575b50505050508152505081526020019060010190611537565b50505050815260200160068201805480602002602001604051908101604052809291908181526020016000905b8282101561164a57600084815260209081902060408051606081018252600286029092018054835260019081015460ff80821685870152610100909104169183019190915290835290920191016115f8565b5050505081525050905085565b60606010805480602002602001604051908101604052809291908181526020016000905b828210156117615760008481526020908190206040805160c0810182526006860290920180546001600160a01b03168352600181015483850152600281015483830152600381015460608401526004810180548351818702810187019094528084529394919360808601939283018282801561171657602002820191906000526020600020905b815481526020019060010190808311611702575b505050918352505060058281015460209092019160ff169081111561173d5761173d613800565b600581111561174e5761174e613800565b815250508152602001906001019061167b565b50505050905090565b61178260008051602061592a83398151915233611b42565b61179e5760405162461bcd60e51b81526004016105e690614bf7565b600a5481146117bf5760405162461bcd60e51b81526004016105e690615019565b6001601084815481106117d4576117d46141fb565b60009182526020909120600560069092020181015460ff16908111156117fc576117fc613800565b146118395760405162461bcd60e51b815260206004820152600d60248201526c10db9bdd08115e1958dd5d1959609a1b60448201526064016105e6565b73__$3ec311f63f1cd166364ee887ad77eb9bd8$__636a0a24f160108581548110611866576118666141fb565b906000526020600020906006020184846040518463ffffffff1660e01b815260040161189493929190615050565b60006040518083038186803b1580156118ac57600080fd5b505af41580156118c0573d6000803e3d6000fd5b505050506118cd83612f81565b505050565b6118ea60008051602061592a83398151915233611b42565b6119065760405162461bcd60e51b81526004016105e690614bf7565b6000828152601b60205260409020546008805460039290811061192b5761192b6141fb565b600091825260209091206001600590920201015460ff16600381111561195357611953613800565b146119995760405162461bcd60e51b81526020600482015260166024820152751bdb9b1e48125b99d95cdd151e5c194b93585b9d585b60521b60448201526064016105e6565b6119a38282612fbb565b6040516000805160206158ea83398151915290600090a15050565b6119d660008051602061590a83398151915233611b42565b6119f25760405162461bcd60e51b81526004016105e690614fbe565b600360108381548110611a0757611a076141fb565b60009182526020909120600560069092020181015460ff1690811115611a2f57611a2f613800565b14611a4c5760405162461bcd60e51b81526004016105e690614fe7565b60148281548110611a5f57611a5f6141fb565b90600052602060002001544211611a885760405162461bcd60e51b81526004016105e690614211565b600a54815114611aaa5760405162461bcd60e51b81526004016105e690615019565b6001546010805473__$3ec311f63f1cd166364ee887ad77eb9bd8$__92631b948e49926001600160a01b039091169186908110611ae957611ae96141fb565b9060005260206000209060060201846040518463ffffffff1660e01b8152600401611b169392919061506a565b60006040518083038186803b158015611b2e57600080fd5b505af4158015610996573d6000803e3d6000fd5b6000918252601c602090815260408084206001600160a01b0393909316845291905290205460ff1690565b601054604051635cc1f6b560e01b815260009173__$3ec311f63f1cd166364ee887ad77eb9bd8$__91635cc1f6b591611bac91600891906004016150c7565b602060405180830381865af4158015611bc9573d6000803e3d6000fd5b505050506040513d601f19601f82011682018060405250810190611bed9190614cb4565b905090565b611bfa611b6d565b1515600114611c3d5760405162461bcd60e51b815260206004820152600f60248201526e1a5b99d95cdd1cc81a5b9d985b1a59608a1b60448201526064016105e6565b73__$3ec311f63f1cd166364ee887ad77eb9bd8$__632dd4082482600160009054906101000a90046001600160a01b031660108581548110611c8157611c816141fb565b60009182526020808320601554601154600c548652601a938490526040909520805460069095029092019460099491926001600160a01b03909116918b908110611ccd57611ccd6141fb565b906000526020600020018054611ce290614329565b80601f0160208091040260200160405190810160405280929190818152602001828054611d0e90614329565b8015611d5b5780601f10611d3057610100808354040283529160200191611d5b565b820191906000526020600020905b815481529060010190602001808311611d3e57829003601f168201915b5050505050806020019051810190611d7391906151e0565b60405160e08a901b6001600160e01b031916815260048101989098526001600160a01b03968716602489015260448801959095526064870193909352608486019190915260a485015290911660c483015260e48201526101040160006040518083038186803b158015611de557600080fd5b505af4158015611df9573d6000803e3d6000fd5b5050505061108f81613059565b6000818152601a60209081526040808320805482518185028101850190935280835260609492939192909184015b82821015611ee0578382906000526020600020018054611e5390614329565b80601f0160208091040260200160405190810160405280929190818152602001828054611e7f90614329565b8015611ecc5780601f10611ea157610100808354040283529160200191611ecc565b820191906000526020600020905b815481529060010190602001808311611eaf57829003601f168201915b505050505081526020019060010190611e34565b505050509050919050565b611ef3613516565b6040805160e081018252600380546001600160a01b0390811683526004548116602080850191909152600554909116838501526006546060840152600780548551818402810184019096528086529394929360808601939260009084015b8282101561202a576000848152602090819020604080518082019091526002850290910180546001600160a01b031682526001810180549293919291840191611f9990614329565b80601f0160208091040260200160405190810160405280929190818152602001828054611fc590614329565b80156120125780601f10611fe757610100808354040283529160200191612012565b820191906000526020600020905b815481529060010190602001808311611ff557829003601f168201915b50505050508152505081526020019060010190611f51565b50505050815260200160058201805480602002602001604051908101604052809291908181526020016000905b8282101561217257838290600052602060002090600502016040518060a0016040529081600082015481526020016001820160009054906101000a900460ff1660038111156120a8576120a8613800565b60038111156120b9576120b9613800565b815260200160028201548152602001600382015481526020016004820180546120e190614329565b80601f016020809104026020016040519081016040528092919081815260200182805461210d90614329565b801561215a5780601f1061212f5761010080835404028352916020019161215a565b820191906000526020600020905b81548152906001019060200180831161213d57829003601f168201915b50505050508152505081526020019060010190612057565b505050908252506040805160e0810182526006840180546001600160a01b03168252600785015460208381019190915260088601548385015260098601546060840152600a86018054855181840281018401909652808652958201959394929360808601939283018282801561220757602002820191906000526020600020905b8154815260200190600101908083116121f3575b5050505050815260200160058201805480602002602001604051908101604052809291908181526020016000905b828210156122c9578382906000526020600020906002020160405180604001604052908160008201548152602001600182018054806020026020016040519081016040528092919081815260200182805480156122b157602002820191906000526020600020905b81548152602001906001019080831161229d575b50505050508152505081526020019060010190612235565b50505050815260200160068201805480602002602001604051908101604052809291908181526020016000905b8282101561234857600084815260209081902060408051606081018252600286029092018054835260019081015460ff80821685870152610100909104169183019190915290835290920191016122f6565b50505091525050905250919050565b6009546040516370a0823160e01b81526000916001600160a01b0316906370a082319061238890309060040161385c565b602060405180830381865afa1580156123a5573d6000803e3d6000fd5b505050506040513d601f19601f82011682018060405250810190611bed91906151e0565b600033826040516020016123de9291906151f9565b60408051601f198184030181529181528151602092830120600081815260199093529120546008805492935061243692909190811061241f5761241f6141fb565b906000526020600020906005020160030154610a90565b6001600160a01b0316336001600160a01b0316146124665760405162461bcd60e51b81526004016105e690615216565b60008181526019602052604081205460088054909190811061248a5761248a6141fb565b600091825260209091206001600590920201015460ff1660038111156124b2576124b2613800565b146124e85760405162461bcd60e51b81526020600482015260066024820152653737ba1021b160d11b60448201526064016105e6565b60008181526019602052604090205460088054909190811061250c5761250c6141fb565b60009182526020822060059091020180549161252783614bde565b9091555050600081815260196020526040902054600880546126b492908110612552576125526141fb565b906000526020600020906005020160020154336001600160a01b0316633f4fb5aa600360050160166003016000878152602001908152602001600020548154811061259f5761259f6141fb565b906000526020600020906005020160040180546125bb90614329565b80601f01602080910402602001604051908101604052809291908181526020018280546125e790614329565b80156126345780601f1061260957610100808354040283529160200191612634565b820191906000526020600020905b81548152906001019060200180831161261757829003601f168201915b505050505080602001905181019061264c91906151e0565b6040518263ffffffff1660e01b815260040161266a91815260200190565b600060405180830381865afa158015612687573d6000803e3d6000fd5b505050506040513d6000823e601f3d908101601f191682016040526126af9190810190615245565b612fbb565b600081815260196020526040812081905560168054916126d3836152b2565b90915550506040516000805160206158ea83398151915290600090a15050565b601354811161273c5760405162461bcd60e51b8152602060048201526015602482015274736f6c766572206e6f7420646f776e73747265616d60581b60448201526064016105e6565b61274581610a90565b6001600160a01b0316336001600160a01b0316146127755760405162461bcd60e51b81526004016105e690615216565b6000828152601a6020526040902054158015906127a157506010546000838152601a6020526040902054145b156127f35760405163de3a23c560e01b815260048101839052339063de3a23c590602401600060405180830381600087803b1580156127df57600080fd5b505af1158015610996573d6000803e3d6000fd5b6000828152601860209081526040822080546001810182559083529082200180546001600160a01b03191633179055601780549161283083614bde565b91905055505b5050565b600061285460008051602061592a83398151915233611b42565b61288e5760405162461bcd60e51b815260206004820152600b60248201526a27b7363c9035b2b2b832b960a91b60448201526064016105e6565b6012546001600160a01b0316156128d35760405162461bcd60e51b815260206004820152600960248201526812185cc818da1a5b1960ba1b60448201526064016105e6565b6000546013546015546040516386a2d22760e01b815273__$3ec311f63f1cd166364ee887ad77eb9bd8$__936386a2d2279361292593620100009092046001600160a01b031692889290600401615687565b602060405180830381865af4158015612942573d6000803e3d6000fd5b505050506040513d601f19601f820116820180604052508101906129669190614c80565b601280546001600160a01b0319166001600160a01b0392909216918217905592915050565b63f23a6e6160e01b5b9695505050505050565b6129d36040805160c081018252600080825260208201819052918101829052606080820183905260808201529060a082015290565b601082815481106129e6576129e66141fb565b60009182526020918290206040805160c081018252600690930290910180546001600160a01b031683526001810154838501526002810154838301526003810154606084015260048101805483518187028101870190945280845293949193608086019392830182828015612a7a57602002820191906000526020600020905b815481526020019060010190808311612a66575b505050918352505060058281015460209092019160ff1690811115612aa157612aa1613800565b6005811115612ab257612ab2613800565b90525092915050565b6001600160a01b03163b151590565b60008054610100900460ff1615612b18578160ff166001148015612af45750612af230612abb565b155b612b105760405162461bcd60e51b81526004016105e690615777565b506000919050565b60005460ff808416911610612b3f5760405162461bcd60e51b81526004016105e690615777565b506000805460ff191660ff92909216919091179055600190565b6000928352601c602090815260408085206001600160a01b039490941685529290529120805460ff1916911515919091179055565b60005b818110156118cd576000838383818110612bad57612bad6141fb565b9050602002810190612bbf91906142d4565b612bc8906157c5565b80519091506001600160a01b0316612bde573081525b60008082600001516001600160a01b031660008460200151604051612c03919061583a565b60006040518083038185875af1925050503d8060008114612c40576040519150601f19603f3d011682016040523d82523d6000602084013e612c45565b606091505b5091509150600081806020019051810190612c60919061584c565b905060005b8151811015612ca957612c97828781518110612c8357612c836141fb565b602002602001015186600001516001612b59565b80612ca181614bde565b915050612c65565b5082612cec5760405162461bcd60e51b81526020600482015260126024820152711b1bd859135bd91d5b195cc819985a5b195960721b60448201526064016105e6565b505050508080612cfb90614bde565b915050612b91565b60005b600854811015612f675760006008805483908110612d2657612d266141fb565b600091825260209091206001600590920201015460ff166003811115612d4e57612d4e613800565b14612d8457612d7f60036005018281548110612d6c57612d6c6141fb565b906000526020600020906005020161318f565b612f55565b6000306001600160a01b0316633837b05e60036005018481548110612dab57612dab6141fb565b9060005260206000209060050201600301546040518263ffffffff1660e01b8152600401612ddb91815260200190565b602060405180830381865afa158015612df8573d6000803e3d6000fd5b505050506040513d601f19601f82011682018060405250810190612e1c9190614c80565b9050612e28818361327b565b806001600160a01b031663df33cc5160036005018481548110612e4d57612e4d6141fb565b90600052602060002090600502016004018054612e6990614329565b80601f0160208091040260200160405190810160405280929190818152602001828054612e9590614329565b8015612ee25780601f10612eb757610100808354040283529160200191612ee2565b820191906000526020600020905b815481529060010190602001808311612ec557829003601f168201915b5050505050806020019051810190612efa91906151e0565b6013546040516001600160e01b031960e085901b16815260048101929092526024820152604401600060405180830381600087803b158015612f3b57600080fd5b505af1158015612f4f573d6000803e3d6000fd5b50505050505b80612f5f81614bde565b915050612d06565b506040516000805160206158ea83398151915290600090a1565b600654612f8f90600161430a565b612f9990426158d1565b60148281548110612fac57612fac6141fb565b60009182526020909120015550565b601054612fca90600190614c9d565b6000838152601a60205260409020541461301d5760405162461bcd60e51b815260206004820152601460248201527314db1bdd081d995c9cda5bdb881a5b9d985b1a5960621b60448201526064016105e6565b6000828152601a602090815260408220805460018101825590835291819020835161304f9391909101918401906135b7565b5061283682613391565b6012546001600160a01b0316158015906130e55750601260009054906101000a90046001600160a01b03166001600160a01b031663999925066040518163ffffffff1660e01b8152600401602060405180830381865afa1580156130c1573d6000803e3d6000fd5b505050506040513d601f19601f820116820180604052508101906130e59190614cb4565b801561315957506012546040516344c3b60760e01b8152600481018390526001600160a01b03909116906344c3b60790602401602060405180830381865afa158015613135573d6000803e3d6000fd5b505050506040513d601f19601f820116820180604052508101906131599190614cb4565b1561108f5760125460405163b992db0f60e01b8152600481018390526001600160a01b039091169063b992db0f90602401611061565b600181015460039060ff16818111156131aa576131aa613800565b11156131ed5760405162461bcd60e51b8152602060048201526012602482015271496e76616c696420696e676573745479706560701b60448201526064016105e6565b80548160006131fb83614bde565b9091555060039050600182015460ff16600381111561321c5761321c613800565b1461108f57600281015460405163b3d7370760e01b81526004810183905261108f919073__$3ec311f63f1cd166364ee887ad77eb9bd8$__9063b3d7370790602401600060405180830381865af4158015612687573d6000803e3d6000fd5b8060166003016000846003600501858154811061329a5761329a6141fb565b906000526020600020906005020160040180546132b690614329565b80601f01602080910402602001604051908101604052809291908181526020018280546132e290614329565b801561332f5780601f106133045761010080835404028352916020019161332f565b820191906000526020600020905b81548152906001019060200180831161331257829003601f168201915b505050505080602001905181019061334791906151e0565b6040516020016133589291906151f9565b60408051601f19818403018152918152815160209283012083529082019290925201600090812091909155601680549161283083614bde565b60005b6000828152601860205260409020548110156128365760008281526018602052604081208054839081106133ca576133ca6141fb565b6000918252602090912001546001600160a01b0316146134b9576000828152601860205260409020805482908110613404576134046141fb565b60009182526020909120015460405163de3a23c560e01b8152600481018490526001600160a01b039091169063de3a23c590602401600060405180830381600087803b15801561345357600080fd5b505af1158015613467573d6000803e3d6000fd5b505050600083815260186020526040902080549091508290811061348d5761348d6141fb565b6000918252602082200180546001600160a01b031916905560178054916134b3836152b2565b91905055505b806134c381614bde565b915050613394565b828054828255906000526020600020908101928215613506579160200282015b828111156135065782518255916020019190600101906134eb565b5061351292915061362a565b5090565b6040518060e0016040528060006001600160a01b0316815260200160006001600160a01b0316815260200160006001600160a01b031681526020016000815260200160608152602001606081526020016135b26040518060e0016040528060006001600160a01b031681526020016000815260200160008152602001600080191681526020016060815260200160608152602001606081525090565b905290565b8280546135c390614329565b90600052602060002090601f0160209004810192826135e55760008555613506565b82601f106135fe57805160ff1916838001178555613506565b8280016001018555821561350657918201828111156135065782518255916020019190600101906134eb565b5b80821115613512576000815560010161362b565b60006020828403121561365157600080fd5b81356001600160e01b03198116811461366957600080fd5b9392505050565b60006020828403121561368257600080fd5b5035919050565b6001600160a01b038116811461108f57600080fd5b8035610b9c81613689565b600060e082840312156136bb57600080fd5b50919050565b600080600080600060a086880312156136d957600080fd5b85356136e481613689565b945060208601356136f481613689565b9350604086013561370481613689565b92506060860135915060808601356001600160401b0381111561372657600080fd5b613732888289016136a9565b9150509295509295909350565b60008083601f84011261375157600080fd5b5081356001600160401b0381111561376857600080fd5b6020830191508360208260051b850101111561378357600080fd5b9250929050565b6000806000806000608086880312156137a257600080fd5b85356137ad81613689565b9450602086013593506040860135925060608601356001600160401b038111156137d657600080fd5b6137e28882890161373f565b969995985093965092949392505050565b6001600160a01b03169052565b634e487b7160e01b600052602160045260246000fd5b6006811061382657613826613800565b9052565b6001600160a01b038616815260208101859052604081018490526060810183905260a081016129946080830184613816565b6001600160a01b0391909116815260200190565b60005b8381101561388b578181015183820152602001613873565b8381111561389a576000848401525b50505050565b600081518084526138b8816020860160208601613870565b601f01601f19169290920160200192915050565b60208152600061366960208301846138a0565b600080604083850312156138f257600080fd5b82356138fd81613689565b946020939093013593505050565b602081016105a38284613816565b600081518084526020808501945080840160005b838110156139495781518752958201959082019060010161392d565b509495945050505050565b600081518084526020808501945080840160005b83811015613949578151805188528381015160ff908116858a0152604091820151169088015260609096019590820190600101613968565b60018060a01b0381511682526000602080830151818501526040808401518186015260608085015181870152608085015160e060808801526139e560e0880182613919565b905060a086015187820360a08901528181518084528684019150868160051b85010187840193506000805b83811015613a7857868303601f190185528551805184528a01518a84018a905280518a8501819052908b019083908a8601905b80831015613a635783518252928d019260019290920191908d0190613a43565b50978c0197968c019694505050600101613a10565b505060c08a015197508a810360c08c0152613a938189613954565b9b9a5050505050505050505050565b6001600160a01b0386811682528581166020830152841660408201526060810183905260a060808201819052600090613add908301846139a0565b979650505050505050565b60018060a01b0381511682526020810151602083015260408101516040830152606081015160608301526000608082015160c06080850152613b2d60c0850182613919565b905060a0830151613b4160a0860182613816565b509392505050565b6000602080830181845280855180835260408601915060408160051b870101925083870160005b82811015613b9e57603f19888603018452613b8c858351613ae8565b94509285019290850190600101613b70565b5092979650505050505050565b600080600060408486031215613bc057600080fd5b8335925060208401356001600160401b03811115613bdd57600080fd5b613be98682870161373f565b9497909650939450505050565b634e487b7160e01b600052604160045260246000fd5b60405160c081016001600160401b0381118282101715613c2e57613c2e613bf6565b60405290565b604051601f8201601f191681016001600160401b0381118282101715613c5c57613c5c613bf6565b604052919050565b60006001600160401b03821115613c7d57613c7d613bf6565b50601f01601f191660200190565b600082601f830112613c9c57600080fd5b8135613caf613caa82613c64565b613c34565b818152846020838601011115613cc457600080fd5b816020850160208301376000918101602001919091529392505050565b60008060408385031215613cf457600080fd5b8235915060208301356001600160401b03811115613d1157600080fd5b613d1d85828601613c8b565b9150509250929050565b60006001600160401b03821115613d4057613d40613bf6565b5060051b60200190565b60008060408385031215613d5d57600080fd5b823591506020808401356001600160401b03811115613d7b57600080fd5b8401601f81018613613d8c57600080fd5b8035613d9a613caa82613d27565b81815260059190911b82018301908381019088831115613db957600080fd5b928401925b82841015613dd757833582529284019290840190613dbe565b80955050505050509250929050565b60008060408385031215613df957600080fd5b823591506020830135613e0b81613689565b809150509250929050565b60008083601f840112613e2857600080fd5b5081356001600160401b03811115613e3f57600080fd5b60208301915083602082850101111561378357600080fd5b60008060008060008060008060a0898b031215613e7357600080fd5b8835613e7e81613689565b97506020890135613e8e81613689565b965060408901356001600160401b0380821115613eaa57600080fd5b613eb68c838d0161373f565b909850965060608b0135915080821115613ecf57600080fd5b613edb8c838d0161373f565b909650945060808b0135915080821115613ef457600080fd5b50613f018b828c01613e16565b999c989b5096995094979396929594505050565b6000602080830181845280855180835260408601915060408160051b870101925083870160005b82811015613b9e57603f19888603018452613f588583516138a0565b94509285019290850190600101613f3c565b600081518084526020808501808196508360051b8101915082860160005b85811015613fcf578284038952815180516001600160a01b031685528501516040868601819052613fbb818701836138a0565b9a87019a9550505090840190600101613f88565b5091979650505050505050565b6004811061382657613826613800565b600081518084526020808501808196508360051b8101915082860160005b85811015613fcf578284038952815160a0815186528682015161402f88880182613fdc565b50604082810151908701526060808301519087015260809182015191860181905261405c818701836138a0565b9a87019a955050509084019060010161400a565b60208152600060018060a01b038084511660208401528060208501511660408401525060408301516140a560608401826137f3565b5060608301516080830152608083015160e060a08401526140ca610100840182613f6a565b905060a0840151601f19808584030160c08601526140e88383613fec565b925060c08601519150808584030160e08601525061410682826139a0565b95945050505050565b6000806040838503121561412257600080fd5b50508035926020909101359150565b60006020828403121561414357600080fd5b81356001600160401b0381111561415957600080fd5b614165848285016136a9565b949350505050565b60008060008060008060a0878903121561418657600080fd5b863561419181613689565b955060208701356141a181613689565b9450604087013593506060870135925060808701356001600160401b038111156141ca57600080fd5b6141d689828a01613e16565b979a9699509497509295939492505050565b6020815260006136696020830184613ae8565b634e487b7160e01b600052603260045260246000fd5b6020808252600a9082015269151a5b595b1bd8dad95960b21b604082015260600190565b6001600160a01b03929092168252602082015260400190565b60006020828403121561426057600080fd5b813561366981613689565b80546001600160a01b0319166001600160a01b0392909216919091179055565b6000808335601e198436030181126142a257600080fd5b8301803591506001600160401b038211156142bc57600080fd5b6020019150600581901b360382131561378357600080fd5b60008235603e198336030181126142ea57600080fd5b9190910192915050565b634e487b7160e01b600052601160045260246000fd5b6000816000190483118215151615614324576143246142f4565b500290565b600181811c9082168061433d57607f821691505b6020821081036136bb57634e487b7160e01b600052602260045260246000fd5b5b81811015612836576000815560010161435e565b61437c8154614329565b801561283657601f81116001811461439657505060009055565b8260005260206000206143b4601f840160051c82016001830161435d565b506020600090812081855555505050565b6000808335601e198436030181126143dc57600080fd5b8301803591506001600160401b038211156143f657600080fd5b60200191503681900382131561378357600080fd5b601f8211156118cd57806000526020600020601f840160051c810160208510156144325750805b610777601f850160051c83018261435d565b813561444f81613689565b614459818361426b565b506001808201602061446d818601866143c5565b6001600160401b0381111561448457614484613bf6565b614498816144928654614329565b8661440b565b6000601f8211600181146144cc57600083156144b45750838201355b600019600385901b1c1916600184901b178655610a37565b600086815260209020601f19841690835b828110156144fa57868501358255938701939089019087016144dd565b50848210156145175760001960f88660031b161c19848701351681555b50505050841b90930190915550505050565b60008235609e198336030181126142ea57600080fd5b6004811061108f57600080fd5b8135815560018082016020808501356145648161453f565b6004811061457457614574613800565b60ff1983541660ff8216811784555050604085013560028501556060850135600385015560048401915061446d60808601866143c5565b600160401b8311156145bf576145bf613bf6565b805483825580841015614663577f33333333333333333333333333333333333333333333333333333333333333336001818311811615614601576146016142f4565b6005828711821615614615576146156142f4565b600085815260208120909350878202810190828602015b8082101561465d57848255848483015584600283015584600383015561465460048301614372565b9082019061462c565b50505050505b5060008181526020812083915b858110156109965761468b6146858487614529565b8361454c565b6020929092019160059190910190600101614670565b6000823560de198336030181126142ea57600080fd5b8054600080835581156118cd57828152602081208281015b80821015610777578282556001820191506146cf565b81358155600180820160206146fc8186018661428b565b600160401b81111561471057614710613bf6565b8354818555808210156147445760008581528481208381019083015b80821015614740578282559088019061472c565b5050505b506000938452828420935b8181101561476a57823585559385019391830191850161474f565b5050505050505050565b600160401b83111561478857614788613bf6565b805483825580841015614800576001600160ff1b0360018183118116156147b1576147b16142f4565b8186118116156147c3576147c36142f4565b60008481526020812090925086821b81019084831b015b808210156147fb578382556147f08383016146b7565b6002820191506147da565b505050505b5060008181526020812083915b858110156109965761482861482284876142d4565b836146e5565b602092909201916002919091019060010161480d565b6000808335601e1984360301811261485557600080fd5b8301803591506001600160401b0382111561486f57600080fd5b602001915060608102360382131561378357600080fd5b60ff8116811461108f57600080fd5b813581556001810160208301356148ab81614886565b815460408501356148bb81614886565b61ff008160081b1660ff841661ffff19841617178455505050505050565b600160401b8311156148ed576148ed613bf6565b80548382558084101561495f576001600160ff1b036001818311811615614916576149166142f4565b818611811615614928576149286142f4565b60008481526020812090925086821b81019084831b015b8082101561495a57838255838383015560028201915061493f565b505050505b5060008181526020812083915b858110156109965761497e8383614895565b606092909201916002919091019060010161496c565b813561499f81613689565b6149a9818361426b565b506001602080840135828401556040840135600284015560608401356003840155600483016149db608086018661428b565b600160401b8111156149ef576149ef613bf6565b825481845580821015614a14578360005284600020614a1282820184830161435d565b505b506000928352838320925b81811015614a3a578235845592850192918401918501614a1f565b505050505050614a4d60a083018361428b565b614a5b818360058601614774565b5050614a6a60c083018361483e565b61389a8183600686016148d9565b8135614a8381613689565b614a8d818361426b565b506001602080840135614a9f81613689565b614aab8184860161426b565b5060026040850135614abc81613689565b614ac88183870161426b565b506060850135600385015560048401614ae4608087018761428b565b600160401b811115614af857614af8613bf6565b825481845580821015614b68576001600160ff1b03808211881615614b1f57614b1f6142f4565b808311881615614b3157614b316142f4565b50600084815286812083891b810190838a1b015b80821015614b6457828255614b5b8a8301614372565b90870190614b45565b5050505b506000928352602083209282905b82811015614ba057614b91614b8b83866142d4565b86614444565b93850193908601908701614b76565b5050505050505050614bb560a083018361428b565b614bc38183600586016145ab565b5050612836614bd560c08401846146a1565b60068301614994565b600060018201614bf057614bf06142f4565b5060010190565b6020808252600b908201526a27b7363c9025b2b2b832b960a91b604082015260600190565b81835260006001600160fb1b03831115614c3557600080fd5b8260051b8083602087013760009401602001938452509192915050565b60018060a01b0386168152846020820152836040820152608060608201526000613add608083018486614c1c565b600060208284031215614c9257600080fd5b815161366981613689565b600082821015614caf57614caf6142f4565b500390565b600060208284031215614cc657600080fd5b8151801515811461366957600080fd5b6000815480845260208085019450836000528060002060005b8381101561394957815487529582019560019182019101614cef565b600081548084526020808501808196508360051b810191506000868152838120815b86811015614d99578385038a52815485526040868601819052600180840180549288018390528552878520606088019290919086905b80821015614d805783548552938a01939282019290820190614d63565b5050509a87019a50945060029190910190600101614d2d565b509298975050505050505050565b6000815480845260208085019450836000528060002060005b83811015613949578154875260018083015460ff808216868b015260089190911c16604089015260609097019660029092019101614dc0565b600060018060a01b03808716835260806020840152614e1e60808401828854166137f3565b50600185015460a0830152600285015460c0830152600385015460e083015260e0610100830152614e56610160830160048701614cd6565b607f198084830301610120850152614e718260058901614d0b565b9150808483030161014085015250614e8c8160068801614da7565b915050614e9c60408301856137f3565b82606083015295945050505050565b805160068110610b9c57600080fd5b60006020808385031215614ecd57600080fd5b82516001600160401b0380821115614ee457600080fd5b9084019060c08287031215614ef857600080fd5b614f00613c0c565b8251614f0b81613689565b8082525083830151848201526040830151604082015260608301516060820152608083015182811115614f3d57600080fd5b83019150601f82018713614f5057600080fd5b8151614f5e613caa82613d27565b81815260059190911b83018501908581019089831115614f7d57600080fd5b938601935b82851015614f9b57845182529386019390860190614f82565b608084015250614faf905060a08401614eab565b60a08201529695505050505050565b6020808252600f908201526e27b7363c9030b93134ba3930ba37b960891b604082015260600190565b602080825260189082015277139bdd08105c989a5d1c985d1a5bdb94995c5d595cdd195960421b604082015260600190565b6020808252601e908201527f6c656e677468206d757374206d61746368206f7574636f6d65536c6f74730000604082015260600190565b838152604060208201526000614106604083018486614c1c565b6001600160a01b038416815260208082018490526060604083018190528351908301819052600091848101916080850190845b818110156150b95784518352938301939183019160010161509d565b509098975050505050505050565b6000604082016040835280855480835260608501915060608160051b8601019250600087815260208120815b838110156151cb57878603605f1901855281548652600182015460ff1661511d6020880182613fdc565b5060028201546040870152600382015460608701526004820160a0608088015283815461514981614329565b8060a08b01526001821660008114615168576001811461517d576151ae565b60ff19831660c08c015260e08b0193506151ae565b84885260208820885b838110156151a55781548d820160c00152600190910190602001615186565b8c0160c0019450505b5091985050506020959095019450600591909101906001016150f3565b50505050506020929092019290925292915050565b6000602082840312156151f257600080fd5b5051919050565b60609290921b6001600160601b0319168252601482015260340190565b60208082526015908201527436b9b39739b2b73232b9103737ba1039b7b63b32b960591b604082015260600190565b60006020828403121561525757600080fd5b81516001600160401b0381111561526d57600080fd5b8201601f8101841361527e57600080fd5b805161528c613caa82613c64565b8181528560208385010111156152a157600080fd5b614106826020830160208601613870565b6000816152c1576152c16142f4565b506000190190565b6000808335601e198436030181126152e057600080fd5b83016020810192503590506001600160401b038111156152ff57600080fd5b8060051b360383131561378357600080fd5b6000808335601e1984360301811261532857600080fd5b83016020810192503590506001600160401b0381111561534757600080fd5b80360383131561378357600080fd5b81835281816020850137506000828201602090810191909152601f909101601f19169091010190565b60008235603e1983360301811261539557600080fd5b90910192915050565b81835260006020808501808196508560051b810191508460005b87811015613fcf5782840389526153cf828861537f565b604081356153dc81613689565b6001600160a01b031686526153f382880183615311565b925081888801526154078288018483615356565b9b88019b9650505091850191506001016153b8565b81835260006020808501808196508560051b81019150846000805b88811015614d99578385038a528235609e19893603018112615457578283fd5b88018035865260a08782013561546c8161453f565b61547889890182613fdc565b506040828101359088015260608083013590880152608061549b81840184615311565b935082828a01526154af838a018583615356565b9d8a019d98505050938701935050600101615437565b6000823560de1983360301811261539557600080fd5b6000808335601e198436030181126154f257600080fd5b83016020810192503590506001600160401b0381111561551157600080fd5b60608102360383131561378357600080fd5b8183526000602080850194508260005b8581101561394957813587528282013561554c81614886565b60ff908116888501526040908382013561556581614886565b16908801526060968701969190910190600101615533565b6000813561558a81613689565b6001600160a01b031683526020828101358185015260408084013581860152606080850135908601526155c060808501856152c9565b60e060808801526155d560e088018284614c1c565b9150506155e560a08601866152c9565b87830360a0890152808352848301600582901b840186018360005b8481101561565357868303601f1901845261561b828761537f565b8035845261562b8a8201826152c9565b9150898b86015261563f8a86018383614c1c565b958b01959450505090880190600101615600565b505061566260c08a018a6154db565b9750955089810360c08b0152615679818888615523565b9a9950505050505050505050565b6001600160a01b0385811682526080602083015260009085356156a981613689565b1660808301526156bb6020860161369e565b6156c860a08401826137f3565b506156d56040860161369e565b6156e260c08401826137f3565b50606085013560e08301526156fa60808601866152c9565b60e06101008501526157116101608501828461539e565b91505061572160a08701876152c9565b607f19808685030161012087015261573a84838561541c565b935061574960c08a018a6154c5565b925080868503016101408701525050615762828261557d565b60408501969096525050506060015292915050565b6020808252602e908201527f496e697469616c697a61626c653a20636f6e747261637420697320616c72656160408201526d191e481a5b9a5d1a585b1a5e995960921b606082015260800190565b6000604082360312156157d757600080fd5b604080519081016001600160401b0380821183831017156157fa576157fa613bf6565b816040528435915061580b82613689565b9082526020840135908082111561582157600080fd5b5061582e36828601613c8b565b60208301525092915050565b600082516142ea818460208701613870565b6000602080838503121561585f57600080fd5b82516001600160401b0381111561587557600080fd5b8301601f8101851361588657600080fd5b8051615894613caa82613d27565b81815260059190911b820183019083810190878311156158b357600080fd5b928401925b82841015613add578351825292840192908401906158b8565b600082198211156158e4576158e46142f4565b50019056fe71bd81ebe1d98a2944767394e76a9aff18724b2cf04e1db71254f804544b35c716ceee8289685dd2a02b9c8ae81d2df373176ce53519e6284e2a2950d6546ffafc8737ab85eb45125971625a9ebdb75cc78e01d5c1fa80c4c6e5203f47bc4faba26469706673582212204412ec281bfe0389d20fdc6d1bb57d011798b01cc858486676baf6c87310f38664736f6c634300080d0033",
  "linkReferences": {
    "contracts/solvers/SolverLib.sol": {
      "SolverLib": [
        {
          "length": 20,
          "start": 2101
        },
        {
          "length": 20,
          "start": 3631
        },
        {
          "length": 20,
          "start": 4061
        },
        {
          "length": 20,
          "start": 4819
        },
        {
          "length": 20,
          "start": 5107
        },
        {
          "length": 20,
          "start": 6534
        },
        {
          "length": 20,
          "start": 7166
        },
        {
          "length": 20,
          "start": 7373
        },
        {
          "length": 20,
          "start": 7562
        },
        {
          "length": 20,
          "start": 10806
        },
        {
          "length": 20,
          "start": 13196
        }
      ]
    }
  },
  "deployedLinkReferences": {
    "contracts/solvers/SolverLib.sol": {
      "SolverLib": [
        {
          "length": 20,
          "start": 1770
        },
        {
          "length": 20,
          "start": 3300
        },
        {
          "length": 20,
          "start": 3730
        },
        {
          "length": 20,
          "start": 4488
        },
        {
          "length": 20,
          "start": 4776
        },
        {
          "length": 20,
          "start": 6203
        },
        {
          "length": 20,
          "start": 6835
        },
        {
          "length": 20,
          "start": 7042
        },
        {
          "length": 20,
          "start": 7231
        },
        {
          "length": 20,
          "start": 10475
        },
        {
          "length": 20,
          "start": 12865
        }
      ]
    }
  }
}