{
  "_format": "hh-sol-artifact-1",
  "contractName": "BasicSolverV1",
  "sourceName": "contracts/solvers/BasicSolverV1.sol",
  "abi": [
    {
      "anonymous": false,
      "inputs": [
        {
          "indexed": false,
          "internalType": "bytes32",
          "name": "conditionId",
          "type": "bytes32"
        }
      ],
      "name": "ChangedStatus",
      "type": "event"
    },
    {
      "anonymous": false,
      "inputs": [
        {
          "indexed": false,
          "internalType": "bytes32",
          "name": "conditionId",
          "type": "bytes32"
        }
      ],
      "name": "DeliveredNullArbitration",
      "type": "event"
    },
    {
      "anonymous": false,
      "inputs": [
        {
          "indexed": false,
          "internalType": "address",
          "name": "child",
          "type": "address"
        }
      ],
      "name": "DeployedChild",
      "type": "event"
    },
    {
      "anonymous": false,
      "inputs": [],
      "name": "IngestedData",
      "type": "event"
    },
    {
      "anonymous": false,
      "inputs": [
        {
          "indexed": false,
          "internalType": "uint8",
          "name": "version",
          "type": "uint8"
        }
      ],
      "name": "Initialized",
      "type": "event"
    },
    {
      "anonymous": false,
      "inputs": [
        {
          "indexed": false,
          "internalType": "address",
          "name": "solver",
          "type": "address"
        },
        {
          "indexed": false,
          "internalType": "uint256",
          "name": "solveIndex",
          "type": "uint256"
        }
      ],
      "name": "PreparedSolve",
      "type": "event"
    },
    {
      "inputs": [],
      "name": "ARBITRATOR_ROLE",
      "outputs": [
        {
          "internalType": "bytes32",
          "name": "",
          "type": "bytes32"
        }
      ],
      "stateMutability": "view",
      "type": "function"
    },
    {
      "inputs": [],
      "name": "KEEPER_ROLE",
      "outputs": [
        {
          "internalType": "bytes32",
          "name": "",
          "type": "bytes32"
        }
      ],
      "stateMutability": "view",
      "type": "function"
    },
    {
      "inputs": [],
      "name": "SOLVER_ROLE",
      "outputs": [
        {
          "internalType": "bytes32",
          "name": "",
          "type": "bytes32"
        }
      ],
      "stateMutability": "view",
      "type": "function"
    },
    {
      "inputs": [
        {
          "internalType": "bytes32",
          "name": "_slot",
          "type": "bytes32"
        },
        {
          "internalType": "bytes",
          "name": "_data",
          "type": "bytes"
        }
      ],
      "name": "addData",
      "outputs": [],
      "stateMutability": "nonpayable",
      "type": "function"
    },
    {
      "inputs": [
        {
          "internalType": "uint256",
          "name": "_index",
          "type": "uint256"
        }
      ],
      "name": "addressFromChainIndex",
      "outputs": [
        {
          "internalType": "address",
          "name": "_address",
          "type": "address"
        }
      ],
      "stateMutability": "view",
      "type": "function"
    },
    {
      "inputs": [
        {
          "internalType": "uint256",
          "name": "_index",
          "type": "uint256"
        }
      ],
      "name": "allocationsValid",
      "outputs": [
        {
          "internalType": "bool",
          "name": "",
          "type": "bool"
        }
      ],
      "stateMutability": "view",
      "type": "function"
    },
    {
      "inputs": [
        {
          "internalType": "uint256",
          "name": "_index",
          "type": "uint256"
        },
        {
          "internalType": "uint256[]",
          "name": "payouts",
          "type": "uint256[]"
        }
      ],
      "name": "arbitrate",
      "outputs": [],
      "stateMutability": "nonpayable",
      "type": "function"
    },
    {
      "inputs": [
        {
          "internalType": "uint256",
          "name": "_index",
          "type": "uint256"
        }
      ],
      "name": "arbitrateNull",
      "outputs": [],
      "stateMutability": "nonpayable",
      "type": "function"
    },
    {
      "inputs": [
        {
          "internalType": "uint256",
          "name": "_index",
          "type": "uint256"
        }
      ],
      "name": "arbitrationRequested",
      "outputs": [],
      "stateMutability": "nonpayable",
      "type": "function"
    },
    {
      "inputs": [],
      "name": "arbitrator",
      "outputs": [
        {
          "internalType": "address",
          "name": "",
          "type": "address"
        }
      ],
      "stateMutability": "view",
      "type": "function"
    },
    {
      "inputs": [],
      "name": "chainChild",
      "outputs": [
        {
          "internalType": "address",
          "name": "",
          "type": "address"
        }
      ],
      "stateMutability": "view",
      "type": "function"
    },
    {
      "inputs": [],
      "name": "chainIndex",
      "outputs": [
        {
          "internalType": "uint256",
          "name": "",
          "type": "uint256"
        }
      ],
      "stateMutability": "view",
      "type": "function"
    },
    {
      "inputs": [],
      "name": "chainParent",
      "outputs": [
        {
          "internalType": "address",
          "name": "",
          "type": "address"
        }
      ],
      "stateMutability": "view",
      "type": "function"
    },
    {
      "inputs": [],
      "name": "collateralBalance",
      "outputs": [
        {
          "internalType": "uint256",
          "name": "balance",
          "type": "uint256"
        }
      ],
      "stateMutability": "view",
      "type": "function"
    },
    {
      "inputs": [
        {
          "internalType": "uint256",
          "name": "index",
          "type": "uint256"
        }
      ],
      "name": "condition",
      "outputs": [
        {
          "components": [
            {
              "internalType": "contract IERC20",
              "name": "collateralToken",
              "type": "address"
            },
            {
              "internalType": "bytes32",
              "name": "questionId",
              "type": "bytes32"
            },
            {
              "internalType": "bytes32",
              "name": "parentCollectionId",
              "type": "bytes32"
            },
            {
              "internalType": "bytes32",
              "name": "conditionId",
              "type": "bytes32"
            },
            {
              "internalType": "uint256[]",
              "name": "payouts",
              "type": "uint256[]"
            },
            {
              "internalType": "enum SolverLib.Status",
              "name": "status",
              "type": "uint8"
            }
          ],
          "internalType": "struct SolverLib.Condition",
          "name": "",
          "type": "tuple"
        }
      ],
      "stateMutability": "view",
      "type": "function"
    },
    {
      "inputs": [
        {
          "internalType": "uint256",
          "name": "",
          "type": "uint256"
        }
      ],
      "name": "conditions",
      "outputs": [
        {
          "internalType": "contract IERC20",
          "name": "collateralToken",
          "type": "address"
        },
        {
          "internalType": "bytes32",
          "name": "questionId",
          "type": "bytes32"
        },
        {
          "internalType": "bytes32",
          "name": "parentCollectionId",
          "type": "bytes32"
        },
        {
          "internalType": "bytes32",
          "name": "conditionId",
          "type": "bytes32"
        },
        {
          "internalType": "enum SolverLib.Status",
          "name": "status",
          "type": "uint8"
        }
      ],
      "stateMutability": "view",
      "type": "function"
    },
    {
      "inputs": [],
      "name": "config",
      "outputs": [
        {
          "internalType": "contract Solver",
          "name": "implementation",
          "type": "address"
        },
        {
          "internalType": "address",
          "name": "keeper",
          "type": "address"
        },
        {
          "internalType": "address",
          "name": "arbitrator",
          "type": "address"
        },
        {
          "internalType": "uint256",
          "name": "timelockSeconds",
          "type": "uint256"
        },
        {
          "components": [
            {
              "internalType": "contract IERC20",
              "name": "collateralToken",
              "type": "address"
            },
            {
              "internalType": "uint256",
              "name": "outcomeSlots",
              "type": "uint256"
            },
            {
              "internalType": "uint256",
              "name": "parentCollectionIndexSet",
              "type": "uint256"
            },
            {
              "internalType": "bytes32",
              "name": "amountSlot",
              "type": "bytes32"
            },
            {
              "internalType": "uint256[]",
              "name": "partition",
              "type": "uint256[]"
            },
            {
              "components": [
                {
                  "internalType": "bytes32",
                  "name": "recipientAddressSlot",
                  "type": "bytes32"
                },
                {
                  "internalType": "bytes32[]",
                  "name": "recipientAmountSlots",
                  "type": "bytes32[]"
                }
              ],
              "internalType": "struct SolverLib.Allocation[]",
              "name": "allocations",
              "type": "tuple[]"
            },
            {
              "components": [
                {
                  "internalType": "bytes32",
                  "name": "digest",
                  "type": "bytes32"
                },
                {
                  "internalType": "uint8",
                  "name": "hashFunction",
                  "type": "uint8"
                },
                {
                  "internalType": "uint8",
                  "name": "size",
                  "type": "uint8"
                }
              ],
              "internalType": "struct SolverLib.Multihash[]",
              "name": "outcomeURIs",
              "type": "tuple[]"
            }
          ],
          "internalType": "struct SolverLib.ConditionBase",
          "name": "conditionBase",
          "type": "tuple"
        }
      ],
      "stateMutability": "view",
      "type": "function"
    },
    {
      "inputs": [
        {
          "internalType": "uint256",
          "name": "_index",
          "type": "uint256"
        }
      ],
      "name": "confirmPayouts",
      "outputs": [],
      "stateMutability": "nonpayable",
      "type": "function"
    },
    {
      "inputs": [
        {
          "components": [
            {
              "internalType": "contract Solver",
              "name": "implementation",
              "type": "address"
            },
            {
              "internalType": "address",
              "name": "keeper",
              "type": "address"
            },
            {
              "internalType": "address",
              "name": "arbitrator",
              "type": "address"
            },
            {
              "internalType": "uint256",
              "name": "timelockSeconds",
              "type": "uint256"
            },
            {
              "components": [
                {
                  "internalType": "address",
                  "name": "module",
                  "type": "address"
                },
                {
                  "internalType": "bytes",
                  "name": "data",
                  "type": "bytes"
                }
              ],
              "internalType": "struct SolverLib.ModuleLoader[]",
              "name": "moduleLoaders",
              "type": "tuple[]"
            },
            {
              "components": [
                {
                  "internalType": "uint256",
                  "name": "executions",
                  "type": "uint256"
                },
                {
                  "internalType": "enum SolverLib.IngestType",
                  "name": "ingestType",
                  "type": "uint8"
                },
                {
                  "internalType": "bytes32",
                  "name": "slot",
                  "type": "bytes32"
                },
                {
                  "internalType": "uint256",
                  "name": "solverIndex",
                  "type": "uint256"
                },
                {
                  "internalType": "bytes",
                  "name": "data",
                  "type": "bytes"
                }
              ],
              "internalType": "struct SolverLib.Ingest[]",
              "name": "ingests",
              "type": "tuple[]"
            },
            {
              "components": [
                {
                  "internalType": "contract IERC20",
                  "name": "collateralToken",
                  "type": "address"
                },
                {
                  "internalType": "uint256",
                  "name": "outcomeSlots",
                  "type": "uint256"
                },
                {
                  "internalType": "uint256",
                  "name": "parentCollectionIndexSet",
                  "type": "uint256"
                },
                {
                  "internalType": "bytes32",
                  "name": "amountSlot",
                  "type": "bytes32"
                },
                {
                  "internalType": "uint256[]",
                  "name": "partition",
                  "type": "uint256[]"
                },
                {
                  "components": [
                    {
                      "internalType": "bytes32",
                      "name": "recipientAddressSlot",
                      "type": "bytes32"
                    },
                    {
                      "internalType": "bytes32[]",
                      "name": "recipientAmountSlots",
                      "type": "bytes32[]"
                    }
                  ],
                  "internalType": "struct SolverLib.Allocation[]",
                  "name": "allocations",
                  "type": "tuple[]"
                },
                {
                  "components": [
                    {
                      "internalType": "bytes32",
                      "name": "digest",
                      "type": "bytes32"
                    },
                    {
                      "internalType": "uint8",
                      "name": "hashFunction",
                      "type": "uint8"
                    },
                    {
                      "internalType": "uint8",
                      "name": "size",
                      "type": "uint8"
                    }
                  ],
                  "internalType": "struct SolverLib.Multihash[]",
                  "name": "outcomeURIs",
                  "type": "tuple[]"
                }
              ],
              "internalType": "struct SolverLib.ConditionBase",
              "name": "conditionBase",
              "type": "tuple"
            }
          ],
          "internalType": "struct SolverLib.Config",
          "name": "_config",
          "type": "tuple"
        }
      ],
      "name": "deployChild",
      "outputs": [
        {
          "internalType": "address",
          "name": "",
          "type": "address"
        }
      ],
      "stateMutability": "nonpayable",
      "type": "function"
    },
    {
      "inputs": [
        {
          "internalType": "uint256",
          "name": "_index",
          "type": "uint256"
        }
      ],
      "name": "executeSolve",
      "outputs": [],
      "stateMutability": "nonpayable",
      "type": "function"
    },
    {
      "inputs": [
        {
          "internalType": "bytes32",
          "name": "_slot",
          "type": "bytes32"
        }
      ],
      "name": "getAllData",
      "outputs": [
        {
          "internalType": "bytes[]",
          "name": "data",
          "type": "bytes[]"
        }
      ],
      "stateMutability": "view",
      "type": "function"
    },
    {
      "inputs": [
        {
          "internalType": "bytes32",
          "name": "_slot",
          "type": "bytes32"
        }
      ],
      "name": "getCallbackOutput",
      "outputs": [
        {
          "internalType": "bytes",
          "name": "data",
          "type": "bytes"
        }
      ],
      "stateMutability": "view",
      "type": "function"
    },
    {
      "inputs": [],
      "name": "getConditions",
      "outputs": [
        {
          "components": [
            {
              "internalType": "contract IERC20",
              "name": "collateralToken",
              "type": "address"
            },
            {
              "internalType": "bytes32",
              "name": "questionId",
              "type": "bytes32"
            },
            {
              "internalType": "bytes32",
              "name": "parentCollectionId",
              "type": "bytes32"
            },
            {
              "internalType": "bytes32",
              "name": "conditionId",
              "type": "bytes32"
            },
            {
              "internalType": "uint256[]",
              "name": "payouts",
              "type": "uint256[]"
            },
            {
              "internalType": "enum SolverLib.Status",
              "name": "status",
              "type": "uint8"
            }
          ],
          "internalType": "struct SolverLib.Condition[]",
          "name": "",
          "type": "tuple[]"
        }
      ],
      "stateMutability": "view",
      "type": "function"
    },
    {
      "inputs": [],
      "name": "getConfig",
      "outputs": [
        {
          "components": [
            {
              "internalType": "contract Solver",
              "name": "implementation",
              "type": "address"
            },
            {
              "internalType": "address",
              "name": "keeper",
              "type": "address"
            },
            {
              "internalType": "address",
              "name": "arbitrator",
              "type": "address"
            },
            {
              "internalType": "uint256",
              "name": "timelockSeconds",
              "type": "uint256"
            },
            {
              "components": [
                {
                  "internalType": "address",
                  "name": "module",
                  "type": "address"
                },
                {
                  "internalType": "bytes",
                  "name": "data",
                  "type": "bytes"
                }
              ],
              "internalType": "struct SolverLib.ModuleLoader[]",
              "name": "moduleLoaders",
              "type": "tuple[]"
            },
            {
              "components": [
                {
                  "internalType": "uint256",
                  "name": "executions",
                  "type": "uint256"
                },
                {
                  "internalType": "enum SolverLib.IngestType",
                  "name": "ingestType",
                  "type": "uint8"
                },
                {
                  "internalType": "bytes32",
                  "name": "slot",
                  "type": "bytes32"
                },
                {
                  "internalType": "uint256",
                  "name": "solverIndex",
                  "type": "uint256"
                },
                {
                  "internalType": "bytes",
                  "name": "data",
                  "type": "bytes"
                }
              ],
              "internalType": "struct SolverLib.Ingest[]",
              "name": "ingests",
              "type": "tuple[]"
            },
            {
              "components": [
                {
                  "internalType": "contract IERC20",
                  "name": "collateralToken",
                  "type": "address"
                },
                {
                  "internalType": "uint256",
                  "name": "outcomeSlots",
                  "type": "uint256"
                },
                {
                  "internalType": "uint256",
                  "name": "parentCollectionIndexSet",
                  "type": "uint256"
                },
                {
                  "internalType": "bytes32",
                  "name": "amountSlot",
                  "type": "bytes32"
                },
                {
                  "internalType": "uint256[]",
                  "name": "partition",
                  "type": "uint256[]"
                },
                {
                  "components": [
                    {
                      "internalType": "bytes32",
                      "name": "recipientAddressSlot",
                      "type": "bytes32"
                    },
                    {
                      "internalType": "bytes32[]",
                      "name": "recipientAmountSlots",
                      "type": "bytes32[]"
                    }
                  ],
                  "internalType": "struct SolverLib.Allocation[]",
                  "name": "allocations",
                  "type": "tuple[]"
                },
                {
                  "components": [
                    {
                      "internalType": "bytes32",
                      "name": "digest",
                      "type": "bytes32"
                    },
                    {
                      "internalType": "uint8",
                      "name": "hashFunction",
                      "type": "uint8"
                    },
                    {
                      "internalType": "uint8",
                      "name": "size",
                      "type": "uint8"
                    }
                  ],
                  "internalType": "struct SolverLib.Multihash[]",
                  "name": "outcomeURIs",
                  "type": "tuple[]"
                }
              ],
              "internalType": "struct SolverLib.ConditionBase",
              "name": "conditionBase",
              "type": "tuple"
            }
          ],
          "internalType": "struct SolverLib.Config",
          "name": "",
          "type": "tuple"
        }
      ],
      "stateMutability": "view",
      "type": "function"
    },
    {
      "inputs": [
        {
          "internalType": "bytes32",
          "name": "_slot",
          "type": "bytes32"
        }
      ],
      "name": "getData",
      "outputs": [
        {
          "internalType": "bytes",
          "name": "data",
          "type": "bytes"
        }
      ],
      "stateMutability": "view",
      "type": "function"
    },
    {
      "inputs": [
        {
          "internalType": "bytes32",
          "name": "key",
          "type": "bytes32"
        }
      ],
      "name": "getState",
      "outputs": [
        {
          "internalType": "bytes",
          "name": "data",
          "type": "bytes"
        }
      ],
      "stateMutability": "view",
      "type": "function"
    },
    {
      "inputs": [
        {
          "internalType": "uint256",
          "name": "conditionIndex",
          "type": "uint256"
        }
      ],
      "name": "getStatus",
      "outputs": [
        {
          "internalType": "enum SolverLib.Status",
          "name": "status",
          "type": "uint8"
        }
      ],
      "stateMutability": "view",
      "type": "function"
    },
    {
      "inputs": [
        {
          "internalType": "bytes32",
          "name": "_slot",
          "type": "bytes32"
        }
      ],
      "name": "handleCallback",
      "outputs": [],
      "stateMutability": "nonpayable",
      "type": "function"
    },
    {
      "inputs": [
        {
          "internalType": "bytes32",
          "name": "role",
          "type": "bytes32"
        },
        {
          "internalType": "address",
          "name": "account",
          "type": "address"
        }
      ],
      "name": "hasRole",
      "outputs": [
        {
          "internalType": "bool",
          "name": "",
          "type": "bool"
        }
      ],
      "stateMutability": "view",
      "type": "function"
    },
    {
      "inputs": [],
      "name": "ingestsValid",
      "outputs": [
        {
          "internalType": "bool",
          "name": "",
          "type": "bool"
        }
      ],
      "stateMutability": "view",
      "type": "function"
    },
    {
      "inputs": [
        {
          "internalType": "address",
          "name": "_deployer",
          "type": "address"
        },
        {
          "internalType": "address",
          "name": "_ctfAddress",
          "type": "address"
        },
        {
          "internalType": "address",
          "name": "_chainParent",
          "type": "address"
        },
        {
          "internalType": "uint256",
          "name": "_chainIndex",
          "type": "uint256"
        },
        {
          "components": [
            {
              "internalType": "contract Solver",
              "name": "implementation",
              "type": "address"
            },
            {
              "internalType": "address",
              "name": "keeper",
              "type": "address"
            },
            {
              "internalType": "address",
              "name": "arbitrator",
              "type": "address"
            },
            {
              "internalType": "uint256",
              "name": "timelockSeconds",
              "type": "uint256"
            },
            {
              "components": [
                {
                  "internalType": "address",
                  "name": "module",
                  "type": "address"
                },
                {
                  "internalType": "bytes",
                  "name": "data",
                  "type": "bytes"
                }
              ],
              "internalType": "struct SolverLib.ModuleLoader[]",
              "name": "moduleLoaders",
              "type": "tuple[]"
            },
            {
              "components": [
                {
                  "internalType": "uint256",
                  "name": "executions",
                  "type": "uint256"
                },
                {
                  "internalType": "enum SolverLib.IngestType",
                  "name": "ingestType",
                  "type": "uint8"
                },
                {
                  "internalType": "bytes32",
                  "name": "slot",
                  "type": "bytes32"
                },
                {
                  "internalType": "uint256",
                  "name": "solverIndex",
                  "type": "uint256"
                },
                {
                  "internalType": "bytes",
                  "name": "data",
                  "type": "bytes"
                }
              ],
              "internalType": "struct SolverLib.Ingest[]",
              "name": "ingests",
              "type": "tuple[]"
            },
            {
              "components": [
                {
                  "internalType": "contract IERC20",
                  "name": "collateralToken",
                  "type": "address"
                },
                {
                  "internalType": "uint256",
                  "name": "outcomeSlots",
                  "type": "uint256"
                },
                {
                  "internalType": "uint256",
                  "name": "parentCollectionIndexSet",
                  "type": "uint256"
                },
                {
                  "internalType": "bytes32",
                  "name": "amountSlot",
                  "type": "bytes32"
                },
                {
                  "internalType": "uint256[]",
                  "name": "partition",
                  "type": "uint256[]"
                },
                {
                  "components": [
                    {
                      "internalType": "bytes32",
                      "name": "recipientAddressSlot",
                      "type": "bytes32"
                    },
                    {
                      "internalType": "bytes32[]",
                      "name": "recipientAmountSlots",
                      "type": "bytes32[]"
                    }
                  ],
                  "internalType": "struct SolverLib.Allocation[]",
                  "name": "allocations",
                  "type": "tuple[]"
                },
                {
                  "components": [
                    {
                      "internalType": "bytes32",
                      "name": "digest",
                      "type": "bytes32"
                    },
                    {
                      "internalType": "uint8",
                      "name": "hashFunction",
                      "type": "uint8"
                    },
                    {
                      "internalType": "uint8",
                      "name": "size",
                      "type": "uint8"
                    }
                  ],
                  "internalType": "struct SolverLib.Multihash[]",
                  "name": "outcomeURIs",
                  "type": "tuple[]"
                }
              ],
              "internalType": "struct SolverLib.ConditionBase",
              "name": "conditionBase",
              "type": "tuple"
            }
          ],
          "internalType": "struct SolverLib.Config",
          "name": "_solverConfig",
          "type": "tuple"
        }
      ],
      "name": "init",
      "outputs": [],
      "stateMutability": "nonpayable",
      "type": "function"
    },
    {
      "inputs": [
        {
          "internalType": "address",
          "name": "account",
          "type": "address"
        },
        {
          "internalType": "uint256",
          "name": "conditionIndex",
          "type": "uint256"
        }
      ],
      "name": "isRecipient",
      "outputs": [
        {
          "internalType": "bool",
          "name": "",
          "type": "bool"
        }
      ],
      "stateMutability": "view",
      "type": "function"
    },
    {
      "inputs": [],
      "name": "keeper",
      "outputs": [
        {
          "internalType": "address",
          "name": "",
          "type": "address"
        }
      ],
      "stateMutability": "view",
      "type": "function"
    },
    {
      "inputs": [
        {
          "internalType": "address",
          "name": "operator",
          "type": "address"
        },
        {
          "internalType": "address",
          "name": "from",
          "type": "address"
        },
        {
          "internalType": "uint256[]",
          "name": "ids",
          "type": "uint256[]"
        },
        {
          "internalType": "uint256[]",
          "name": "values",
          "type": "uint256[]"
        },
        {
          "internalType": "bytes",
          "name": "data",
          "type": "bytes"
        }
      ],
      "name": "onERC1155BatchReceived",
      "outputs": [
        {
          "internalType": "bytes4",
          "name": "",
          "type": "bytes4"
        }
      ],
      "stateMutability": "nonpayable",
      "type": "function"
    },
    {
      "inputs": [
        {
          "internalType": "address",
          "name": "operator",
          "type": "address"
        },
        {
          "internalType": "address",
          "name": "from",
          "type": "address"
        },
        {
          "internalType": "uint256",
          "name": "id",
          "type": "uint256"
        },
        {
          "internalType": "uint256",
          "name": "value",
          "type": "uint256"
        },
        {
          "internalType": "bytes",
          "name": "data",
          "type": "bytes"
        }
      ],
      "name": "onERC1155Received",
      "outputs": [
        {
          "internalType": "bytes4",
          "name": "",
          "type": "bytes4"
        }
      ],
      "stateMutability": "nonpayable",
      "type": "function"
    },
    {
      "inputs": [
        {
          "internalType": "uint256",
          "name": "_index",
          "type": "uint256"
        }
      ],
      "name": "prepareSolve",
      "outputs": [],
      "stateMutability": "nonpayable",
      "type": "function"
    },
    {
      "inputs": [
        {
          "internalType": "uint256",
          "name": "_index",
          "type": "uint256"
        },
        {
          "internalType": "uint256[]",
          "name": "_payouts",
          "type": "uint256[]"
        }
      ],
      "name": "proposePayouts",
      "outputs": [],
      "stateMutability": "nonpayable",
      "type": "function"
    },
    {
      "inputs": [
        {
          "internalType": "contract IERC20",
          "name": "_collateralToken",
          "type": "address"
        },
        {
          "internalType": "bytes32",
          "name": "_parentCollectionId",
          "type": "bytes32"
        },
        {
          "internalType": "bytes32",
          "name": "_conditionId",
          "type": "bytes32"
        },
        {
          "internalType": "uint256[]",
          "name": "_indexSets",
          "type": "uint256[]"
        }
      ],
      "name": "redeemPosition",
      "outputs": [],
      "stateMutability": "nonpayable",
      "type": "function"
    },
    {
      "inputs": [
        {
          "internalType": "bytes32",
          "name": "_slot",
          "type": "bytes32"
        },
        {
          "internalType": "uint256",
          "name": "_chainIndex",
          "type": "uint256"
        }
      ],
      "name": "registerOutgoingCallback",
      "outputs": [],
      "stateMutability": "nonpayable",
      "type": "function"
    },
    {
      "inputs": [
        {
          "internalType": "bytes32",
          "name": "key",
          "type": "bytes32"
        },
        {
          "internalType": "bytes",
          "name": "data",
          "type": "bytes"
        }
      ],
      "name": "setState",
      "outputs": [],
      "stateMutability": "nonpayable",
      "type": "function"
    },
    {
      "inputs": [
        {
          "internalType": "bytes32",
          "name": "_trackingId",
          "type": "bytes32"
        }
      ],
      "name": "setTrackingId",
      "outputs": [],
      "stateMutability": "nonpayable",
      "type": "function"
    },
    {
      "inputs": [
        {
          "internalType": "bytes4",
          "name": "interfaceId",
          "type": "bytes4"
        }
      ],
      "name": "supportsInterface",
      "outputs": [
        {
          "internalType": "bool",
          "name": "",
          "type": "bool"
        }
      ],
      "stateMutability": "view",
      "type": "function"
    },
    {
      "inputs": [
        {
          "internalType": "uint256",
          "name": "",
          "type": "uint256"
        }
      ],
      "name": "timelocks",
      "outputs": [
        {
          "internalType": "uint256",
          "name": "",
          "type": "uint256"
        }
      ],
      "stateMutability": "view",
      "type": "function"
    },
    {
      "inputs": [],
      "name": "trackingId",
      "outputs": [
        {
          "internalType": "bytes32",
          "name": "",
          "type": "bytes32"
        }
      ],
      "stateMutability": "view",
      "type": "function"
    },
    {
      "inputs": [
        {
          "internalType": "uint256",
          "name": "_index",
          "type": "uint256"
        },
        {
          "internalType": "uint256",
          "name": "_date",
          "type": "uint256"
        }
      ],
      "name": "updateTimelock",
      "outputs": [],
      "stateMutability": "nonpayable",
      "type": "function"
    }
  ],
  "bytecode": "0x60806040523480156200001157600080fd5b506200001c62000022565b6200013b565b6200002e60ff62000031565b50565b60008054610100900460ff16156200009a578160ff1660011480156200006a57506200006830620000de60201b62002c541760201c565b155b620000925760405162461bcd60e51b81526004016200008990620000ed565b60405180910390fd5b506000919050565b60005460ff808416911610620000c45760405162461bcd60e51b81526004016200008990620000ed565b506000805460ff191660ff92909216919091179055600190565b6001600160a01b03163b151590565b6020808252602e908201527f496e697469616c697a61626c653a20636f6e747261637420697320616c72656160408201526d191e481a5b9a5d1a585b1a5e995960921b606082015260800190565b615be6806200014b6000396000f3fe608060405234801561001057600080fd5b506004361061020f5760003560e01c806301ffc9a71461021457806309648a9d1461023c5780630d06101a1461025c5780630d7e149f146102715780630d8d3975146102925780630ebe1bbd146102a557806318782559146102b857806326c50007146102cb578063364bc15a146102ef5780633837b05e146103045780633f4fb5aa1461032457806344c3b6071461033757806348cbb2fc1461034a5780634a77234e146103535780634dab5e69146103665780634e46f22314610379578063506da0b81461038c57806354f6127f1461039f57806355dd978b146103b25780635c48a342146103c55780635c622a0e146103da5780636cc6cde1146103fa57806379502c551461040b5780637c1236271461042457806380b204b71461043957806380c2dde21461044c57806381296f6f1461045f5780638602ce1b1461047257806387dfee571461048557806391d148541461049857806399992506146104ab5780639cea0787146104b35780639f707c6c146104c8578063aced1661146104db578063b992db0f146104ec578063bc197c81146104ff578063c08d6f011461053a578063c3f909d41461055a578063c98c05b71461056f578063de3a23c514610577578063df33cc511461058a578063ea8221a91461059d578063ed25d178146105a6578063f23a6e61146105b9578063f24fc903146105cc575b600080fd5b61022761022236600461384c565b6105ec565b60405190151581526020015b60405180910390f35b61024f61024a36600461387d565b610623565b60405161023391906138ee565b61026f61026a36600461387d565b6106c5565b005b61028461027f36600461387d565b610727565b604051908152602001610233565b61026f6102a036600461387d565b610748565b61026f6102b3366004613939565b61089a565b61026f6102c6366004613a02565b610aba565b6102de6102d936600461387d565b610ba1565b604051610233959493929190613aa2565b610284600080516020615b7183398151915281565b61031761031236600461387d565b610bef565b6040516102339190613ad4565b61024f61033236600461387d565b610d00565b61022761034536600461387d565b610d97565b61028460155481565b61026f61036136600461387d565b610e1c565b61026f61037436600461387d565b61116c565b61026f61038736600461387d565b6112f2565b61022761039a366004613ae8565b6113ad565b61024f6103ad36600461387d565b6114f2565b601254610317906001600160a01b031681565b610284600080516020615b9183398151915281565b6103ed6103e836600461387d565b611512565b6040516102339190613b14565b6005546001600160a01b0316610317565b610413611544565b604051610233959493929190613cab565b61042c611731565b6040516102339190613d52565b61026f610447366004613db4565b611844565b601154610317906001600160a01b031681565b61026f61046d366004613e40565b6119ab565b61026f610480366004613f69565b611a1c565b61026f610493366004613fd2565b611b08565b6102276104a636600461406e565b611c8c565b610227611cb7565b610284600080516020615b5183398151915281565b61026f6104d636600461409e565b611d3c565b6004546001600160a01b0316610317565b61026f6104fa36600461387d565b611d8b565b61052161050d3660046140c0565b63bc197c8160e01b98975050505050505050565b6040516001600160e01b03199091168152602001610233565b61054d61054836600461387d565b611f9f565b604051610233919061417e565b610562612084565b60405161023391906142d9565b6102846124f0565b61026f61058536600461387d565b612562565b61026f61059836600461409e565b61288c565b61028460135481565b6103176105b4366004614378565b6129d3565b6105216105c73660046143b4565b612b24565b6105df6105da36600461387d565b612b37565b604051610233919061442f565b60006001600160e01b03198216630271189760e51b148061061d57506301ffc9a760e01b6001600160e01b03198316145b92915050565b6000818152601c6020526040902080546060919061064090614442565b80601f016020809104026020016040519081016040528092919081815260200182805461066c90614442565b80156106b95780601f1061068e576101008083540402835291602001916106b9565b820191906000526020600020905b81548152906001019060200180831161069c57829003601f168201915b50505050509050919050565b6015541561070b5760405162461bcd60e51b815260206004820152600e60248201526d151c9858dada5b99d259081cd95d60921b60448201526064015b60405180910390fd5b6002546001600160a01b0316331461072257600080fd5b601555565b6014818154811061073757600080fd5b600091825260209091200154905081565b6014818154811061075b5761075b614476565b906000526020600020015442116107845760405162461bcd60e51b81526004016107029061448c565b60026010828154811061079957610799614476565b60009182526020909120600560069092020181015460ff16908111156107c1576107c1613a78565b146107fd5760405162461bcd60e51b815260206004820152600c60248201526b139bdd081c1c9bdc1bdcd95960a21b6044820152606401610702565b6001546010805473__$3ec311f63f1cd166364ee887ad77eb9bd8$__926385c92867926001600160a01b03909116918590811061083c5761083c614476565b90600052602060002090600602016040518363ffffffff1660e01b81526004016108679291906144b0565b60006040518083038186803b15801561087f57600080fd5b505af4158015610893573d6000803e3d6000fd5b5050505050565b60006108a66001612c63565b905080156108be576000805461ff0019166101001790555b60006108d060408401602085016144c9565b6001600160a01b0316036109175760405162461bcd60e51b815260206004820152600e60248201526d12d9595c195c881a5b9d985b1a5960921b6044820152606401610702565b600280546001600160a01b03199081166001600160a01b03898116919091179092556000805462010000600160b01b0319163362010000021790556001805482168884161790556011805490911691861691909117905560138390558160036109808282614cbf565b90505060005b61099360a0840184614506565b90508110156109f75780601b60006109ae60a0870187614506565b858181106109be576109be614476565b90506020028101906109d09190614770565b604090810135825260208201929092520160002055806109ef81614e25565b915050610986565b50600454610a1f90600080516020615b71833981519152906001600160a01b03166001612cf2565b6005546001600160a01b031615610a5757600554610a5790600080516020615b51833981519152906001600160a01b03166001612cf2565b610a6c610a676080840184614506565b612d27565b8015610ab2576000805461ff0019169055604051600181527f7f26b83ff96e1f2b6a682f133852f6798a09c465da95921460cefb38474024989060200160405180910390a15b505050505050565b610ad2600080516020615b7183398151915233611c8c565b80610af05750610af0600080516020615b9183398151915233611c8c565b610b315760405162461bcd60e51b815260206004820152601260248201527127b7363c9025b2b2b832b917a9b7b63b32b960711b6044820152606401610702565b600154604051626dc0df60e21b81526001600160a01b03909116906301b7037c90610b689088908890889088908890600401614e74565b600060405180830381600087803b158015610b8257600080fd5b505af1158015610b96573d6000803e3d6000fd5b505050505050505050565b60108181548110610bb157600080fd5b6000918252602090912060069091020180546001820154600283015460038401546005909401546001600160a01b0390931694509092909160ff1685565b60006013548203610c01575030919050565b601354821015610c90576011546001600160a01b0316610c2357506000919050565b601154604051631c1bd82f60e11b8152600481018490526001600160a01b0390911690633837b05e90602401602060405180830381865afa158015610c6c573d6000803e3d6000fd5b505050506040513d601f19601f8201168201806040525081019061061d9190614ea2565b601354821115610cfb576012546001600160a01b0316610cb257506000919050565b601254604051631c1bd82f60e11b8152600481018490526001600160a01b0390911690633837b05e90602401602060405180830381865afa158015610c6c573d6000803e3d6000fd5b919050565b6010546000828152601a602052604090205460609114610d565760405162461bcd60e51b815260206004820152601160248201527029b637ba1034b73b30b634b2103b32b91760791b6044820152606401610702565b6000828152601a602052604090208054610d7290600190614ebf565b81548110610d8257610d82614476565b90600052602060002001805461064090614442565b6040516336d39c6160e11b815260048101829052601a60248201526009604482015260009073__$3ec311f63f1cd166364ee887ad77eb9bd8$__90636da738c290606401602060405180830381865af4158015610df8573d6000803e3d6000fd5b505050506040513d601f19601f8201168201806040525081019061061d9190614ed6565b60105415610e9257610e3c600080516020615b7183398151915233611c8c565b80610e5157506011546001600160a01b031633145b610e925760405162461bcd60e51b815260206004820152601260248201527113db9b1e481ad9595c195c8bdc185c995b9d60721b6044820152606401610702565b6010548114610ed35760405162461bcd60e51b815260206004820152600d60248201526c092dcecc2d8d2c840d2dcc8caf609b1b6044820152606401610702565b60175415610f125760405162461bcd60e51b815260206004820152600c60248201526b6f7574676f696e672063627360a01b6044820152606401610702565b60165415610f515760405162461bcd60e51b815260206004820152600c60248201526b696e636f6d696e672063627360a01b6044820152606401610702565b6001546011546010805460405163699e0add60e01b8152919373__$3ec311f63f1cd166364ee887ad77eb9bd8$__9363699e0add93610fa3936001600160a01b0393841693600993169160040161501b565b600060405180830381865af4158015610fc0573d6000803e3d6000fd5b505050506040513d6000823e601f3d908101601f19168201604052610fe891908101906150dc565b8154600180820184556000938452602093849020835160069093020180546001600160a01b0319166001600160a01b039093169290921782558284015190820155604082015160028201556060820151600382015560808201518051929391926110589260048501920190613664565b5060a08201518160050160006101000a81548160ff0219169083600581111561108357611083613a78565b0217905550506014805460018101825560009182527fce6d7b5282bd9a3661ae061feed1dbda4e52ab073b1f9285be6e155d9c38d4ec0155506110c4612e9c565b7f152ec8ae15d347b2d2a8f0858caa29bcaaa0906749a1f43e08bfe7998346024030826040516110f59291906144b0565b60405180910390a16012546001600160a01b0316156111695760125460405163253b91a760e11b8152600481018390526001600160a01b0390911690634a77234e906024015b600060405180830381600087803b15801561115557600080fd5b505af1158015610893573d6000803e3d6000fd5b50565b611184600080516020615b5183398151915233611c8c565b6111a05760405162461bcd60e51b8152600401610702906151e0565b6002601082815481106111b5576111b5614476565b60009182526020909120600560069092020181015460ff16908111156111dd576111dd613a78565b148061122357506003601082815481106111f9576111f9614476565b60009182526020909120600560069092020181015460ff169081111561122157611221613a78565b145b6112605760405162461bcd60e51b815260206004820152600e60248201526d10d85b9b9bdd081c995c5d595cdd60921b6044820152606401610702565b73__$3ec311f63f1cd166364ee887ad77eb9bd8$__6324b286026010838154811061128d5761128d614476565b90600052602060002090600602016040518263ffffffff1660e01b81526004016112b991815260200190565b60006040518083038186803b1580156112d157600080fd5b505af41580156112e5573d6000803e3d6000fd5b505050506111698161311a565b61130a600080516020615b5183398151915233611c8c565b6113265760405162461bcd60e51b8152600401610702906151e0565b60036010828154811061133b5761133b614476565b60009182526020909120600560069092020181015460ff169081111561136357611363613a78565b146113805760405162461bcd60e51b815260040161070290615209565b73__$3ec311f63f1cd166364ee887ad77eb9bd8$__6359111fb56010838154811061128d5761128d614476565b6000805b600e548110156114e857600e8054600091601a91839190859081106113d8576113d8614476565b9060005260206000209060020201600001548152602001908152602001600020848154811061140957611409614476565b90600052602060002001805461141e90614442565b80601f016020809104026020016040519081016040528092919081815260200182805461144a90614442565b80156114975780601f1061146c57610100808354040283529160200191611497565b820191906000526020600020905b81548152906001019060200180831161147a57829003601f168201915b50505050508060200190518101906114af9190614ea2565b9050806001600160a01b0316856001600160a01b0316036114d55760019250505061061d565b50806114e081614e25565b9150506113b1565b5060009392505050565b6000818152601a60205260409020805460609190610d7290600190614ebf565b60006010828154811061152757611527614476565b600091825260209091206005600690920201015460ff1692915050565b600380546004546005546006546040805160e081018252600980546001600160a01b039081168352600a54602080850191909152600b5484860152600c546060850152600d80548651818402810184019097528087529983169a988316999790921697959693949293608086019392918301828280156115e357602002820191906000526020600020905b8154815260200190600101908083116115cf575b5050505050815260200160058201805480602002602001604051908101604052809291908181526020016000905b828210156116a55783829060005260206000209060020201604051806040016040529081600082015481526020016001820180548060200260200160405190810160405280929190818152602001828054801561168d57602002820191906000526020600020905b815481526020019060010190808311611679575b50505050508152505081526020019060010190611611565b50505050815260200160068201805480602002602001604051908101604052809291908181526020016000905b8282101561172457600084815260209081902060408051606081018252600286029092018054835260019081015460ff80821685870152610100909104169183019190915290835290920191016116d2565b5050505081525050905085565b60606010805480602002602001604051908101604052809291908181526020016000905b8282101561183b5760008481526020908190206040805160c0810182526006860290920180546001600160a01b0316835260018101548385015260028101548383015260038101546060840152600481018054835181870281018701909452808452939491936080860193928301828280156117f057602002820191906000526020600020905b8154815260200190600101908083116117dc575b505050918352505060058281015460209092019160ff169081111561181757611817613a78565b600581111561182857611828613a78565b8152505081526020019060010190611755565b50505050905090565b61185c600080516020615b7183398151915233611c8c565b6118785760405162461bcd60e51b81526004016107029061523b565b600a5481146118995760405162461bcd60e51b815260040161070290615260565b6001601084815481106118ae576118ae614476565b60009182526020909120600560069092020181015460ff16908111156118d6576118d6613a78565b146119125760405162461bcd60e51b815260206004820152600c60248201526b139bdd08115e1958dd5d195960a21b6044820152606401610702565b73__$3ec311f63f1cd166364ee887ad77eb9bd8$__636a0a24f16010858154811061193f5761193f614476565b906000526020600020906006020184846040518463ffffffff1660e01b815260040161196d93929190615297565b60006040518083038186803b15801561198557600080fd5b505af4158015611999573d6000803e3d6000fd5b505050506119a68361311a565b505050565b6119c36a534f4c5645525f524f4c4560a81b33611c8c565b6119fd5760405162461bcd60e51b815260206004820152600b60248201526a534f4c5645525f524f4c4560a81b6044820152606401610702565b6000838152601c60205260409020611a169083836136af565b50505050565b611a34600080516020615b7183398151915233611c8c565b611a505760405162461bcd60e51b81526004016107029061523b565b6000828152601b602052604090205460088054600392908110611a7557611a75614476565b600091825260209091206001600590920201015460ff166003811115611a9d57611a9d613a78565b14611ae35760405162461bcd60e51b81526020600482015260166024820152751bdb9b1e48125b99d95cdd151e5c194b93585b9d585b60521b6044820152606401610702565b611aed8282613154565b604051600080516020615b3183398151915290600090a15050565b611b20600080516020615b5183398151915233611c8c565b611b3c5760405162461bcd60e51b8152600401610702906151e0565b600360108381548110611b5157611b51614476565b60009182526020909120600560069092020181015460ff1690811115611b7957611b79613a78565b14611b965760405162461bcd60e51b815260040161070290615209565b60148281548110611ba957611ba9614476565b90600052602060002001544211611bd25760405162461bcd60e51b81526004016107029061448c565b600a54815114611bf45760405162461bcd60e51b815260040161070290615260565b6001546010805473__$3ec311f63f1cd166364ee887ad77eb9bd8$__92631b948e49926001600160a01b039091169186908110611c3357611c33614476565b9060005260206000209060060201846040518463ffffffff1660e01b8152600401611c60939291906152b1565b60006040518083038186803b158015611c7857600080fd5b505af4158015610ab2573d6000803e3d6000fd5b6000918252601d602090815260408084206001600160a01b0393909316845291905290205460ff1690565b601054604051635cc1f6b560e01b815260009173__$3ec311f63f1cd166364ee887ad77eb9bd8$__91635cc1f6b591611cf6916008919060040161530e565b602060405180830381865af4158015611d13573d6000803e3d6000fd5b505050506040513d601f19601f82011682018060405250810190611d379190614ed6565b905090565b611d546a534f4c5645525f524f4c4560a81b33611c8c565b611d5d57600080fd5b611d68816001614585565b60148381548110611d7b57611d7b614476565b6000918252602090912001555050565b611d93611cb7565b1515600114611dd65760405162461bcd60e51b815260206004820152600f60248201526e1a5b99d95cdd1cc81a5b9d985b1a59608a1b6044820152606401610702565b73__$3ec311f63f1cd166364ee887ad77eb9bd8$__632dd4082482600160009054906101000a90046001600160a01b031660108581548110611e1a57611e1a614476565b60009182526020808320601554601154600c548652601a938490526040909520805460069095029092019460099491926001600160a01b03909116918b908110611e6657611e66614476565b906000526020600020018054611e7b90614442565b80601f0160208091040260200160405190810160405280929190818152602001828054611ea790614442565b8015611ef45780601f10611ec957610100808354040283529160200191611ef4565b820191906000526020600020905b815481529060010190602001808311611ed757829003601f168201915b5050505050806020019051810190611f0c9190615427565b60405160e08a901b6001600160e01b031916815260048101989098526001600160a01b03968716602489015260448801959095526064870193909352608486019190915260a485015290911660c483015260e48201526101040160006040518083038186803b158015611f7e57600080fd5b505af4158015611f92573d6000803e3d6000fd5b50505050611169816131f2565b6000818152601a60209081526040808320805482518185028101850190935280835260609492939192909184015b82821015612079578382906000526020600020018054611fec90614442565b80601f016020809104026020016040519081016040528092919081815260200182805461201890614442565b80156120655780601f1061203a57610100808354040283529160200191612065565b820191906000526020600020905b81548152906001019060200180831161204857829003601f168201915b505050505081526020019060010190611fcd565b505050509050919050565b61208c613723565b6040805160e081018252600380546001600160a01b0390811683526004548116602080850191909152600554909116838501526006546060840152600780548551818402810184019096528086529394929360808601939260009084015b828210156121c3576000848152602090819020604080518082019091526002850290910180546001600160a01b03168252600181018054929391929184019161213290614442565b80601f016020809104026020016040519081016040528092919081815260200182805461215e90614442565b80156121ab5780601f10612180576101008083540402835291602001916121ab565b820191906000526020600020905b81548152906001019060200180831161218e57829003601f168201915b505050505081525050815260200190600101906120ea565b50505050815260200160058201805480602002602001604051908101604052809291908181526020016000905b8282101561230b57838290600052602060002090600502016040518060a0016040529081600082015481526020016001820160009054906101000a900460ff16600381111561224157612241613a78565b600381111561225257612252613a78565b8152602001600282015481526020016003820154815260200160048201805461227a90614442565b80601f01602080910402602001604051908101604052809291908181526020018280546122a690614442565b80156122f35780601f106122c8576101008083540402835291602001916122f3565b820191906000526020600020905b8154815290600101906020018083116122d657829003601f168201915b505050505081525050815260200190600101906121f0565b505050908252506040805160e0810182526006840180546001600160a01b03168252600785015460208381019190915260088601548385015260098601546060840152600a8601805485518184028101840190965280865295820195939492936080860193928301828280156123a057602002820191906000526020600020905b81548152602001906001019080831161238c575b5050505050815260200160058201805480602002602001604051908101604052809291908181526020016000905b828210156124625783829060005260206000209060020201604051806040016040529081600082015481526020016001820180548060200260200160405190810160405280929190818152602001828054801561244a57602002820191906000526020600020905b815481526020019060010190808311612436575b505050505081525050815260200190600101906123ce565b50505050815260200160068201805480602002602001604051908101604052809291908181526020016000905b828210156124e157600084815260209081902060408051606081018252600286029092018054835260019081015460ff808216858701526101009091041691830191909152908352909201910161248f565b50505091525050905250919050565b6009546040516370a0823160e01b81526000916001600160a01b0316906370a0823190612521903090600401613ad4565b602060405180830381865afa15801561253e573d6000803e3d6000fd5b505050506040513d601f19601f82011682018060405250810190611d379190615427565b60003382604051602001612577929190615440565b60408051601f19818403018152918152815160209283012060008181526019909352912054600880549293506125cf9290919081106125b8576125b8614476565b906000526020600020906005020160030154610bef565b6001600160a01b0316336001600160a01b0316146125ff5760405162461bcd60e51b81526004016107029061545d565b60008181526019602052604081205460088054909190811061262357612623614476565b600091825260209091206001600590920201015460ff16600381111561264b5761264b613a78565b146126815760405162461bcd60e51b81526020600482015260066024820152653737ba1021b160d11b6044820152606401610702565b6000818152601960205260409020546008805490919081106126a5576126a5614476565b6000918252602082206005909102018054916126c083614e25565b90915550506000818152601960205260409020546008805461284d929081106126eb576126eb614476565b906000526020600020906005020160020154336001600160a01b0316633f4fb5aa600360050160166003016000878152602001908152602001600020548154811061273857612738614476565b9060005260206000209060050201600401805461275490614442565b80601f016020809104026020016040519081016040528092919081815260200182805461278090614442565b80156127cd5780601f106127a2576101008083540402835291602001916127cd565b820191906000526020600020905b8154815290600101906020018083116127b057829003601f168201915b50505050508060200190518101906127e59190615427565b6040518263ffffffff1660e01b815260040161280391815260200190565b600060405180830381865afa158015612820573d6000803e3d6000fd5b505050506040513d6000823e601f3d908101601f19168201604052612848919081019061548c565b613154565b6000818152601960205260408120819055601680549161286c836154f9565b9091555050604051600080516020615b3183398151915290600090a15050565b60135481116128d55760405162461bcd60e51b8152602060048201526015602482015274736f6c766572206e6f7420646f776e73747265616d60581b6044820152606401610702565b6128de81610bef565b6001600160a01b0316336001600160a01b03161461290e5760405162461bcd60e51b81526004016107029061545d565b6000828152601a60205260409020541580159061293a57506010546000838152601a6020526040902054145b1561298c5760405163de3a23c560e01b815260048101839052339063de3a23c590602401600060405180830381600087803b15801561297857600080fd5b505af1158015610ab2573d6000803e3d6000fd5b6000828152601860209081526040822080546001810182559083529082200180546001600160a01b0319163317905560178054916129c983614e25565b91905055505b5050565b60006129ed600080516020615b7183398151915233611c8c565b612a275760405162461bcd60e51b815260206004820152600b60248201526a27b7363c9035b2b2b832b960a91b6044820152606401610702565b6012546001600160a01b031615612a6c5760405162461bcd60e51b815260206004820152600960248201526812185cc818da1a5b1960ba1b6044820152606401610702565b6000546013546015546040516386a2d22760e01b815273__$3ec311f63f1cd166364ee887ad77eb9bd8$__936386a2d22793612abe93620100009092046001600160a01b0316928892906004016158ce565b602060405180830381865af4158015612adb573d6000803e3d6000fd5b505050506040513d601f19601f82011682018060405250810190612aff9190614ea2565b601280546001600160a01b0319166001600160a01b0392909216918217905592915050565b63f23a6e6160e01b5b9695505050505050565b612b6c6040805160c081018252600080825260208201819052918101829052606080820183905260808201529060a082015290565b60108281548110612b7f57612b7f614476565b60009182526020918290206040805160c081018252600690930290910180546001600160a01b031683526001810154838501526002810154838301526003810154606084015260048101805483518187028101870190945280845293949193608086019392830182828015612c1357602002820191906000526020600020905b815481526020019060010190808311612bff575b505050918352505060058281015460209092019160ff1690811115612c3a57612c3a613a78565b6005811115612c4b57612c4b613a78565b90525092915050565b6001600160a01b03163b151590565b60008054610100900460ff1615612cb1578160ff166001148015612c8d5750612c8b30612c54565b155b612ca95760405162461bcd60e51b8152600401610702906159be565b506000919050565b60005460ff808416911610612cd85760405162461bcd60e51b8152600401610702906159be565b506000805460ff191660ff92909216919091179055600190565b6000928352601d602090815260408085206001600160a01b039490941685529290529120805460ff1916911515919091179055565b60005b818110156119a6576000838383818110612d4657612d46614476565b9050602002810190612d58919061454f565b612d6190615a0c565b80519091506001600160a01b0316612d77573081525b60008082600001516001600160a01b031660008460200151604051612d9c9190615a81565b60006040518083038185875af1925050503d8060008114612dd9576040519150601f19603f3d011682016040523d82523d6000602084013e612dde565b606091505b5091509150600081806020019051810190612df99190615a93565b905060005b8151811015612e4257612e30828781518110612e1c57612e1c614476565b602002602001015186600001516001612cf2565b80612e3a81614e25565b915050612dfe565b5082612e855760405162461bcd60e51b81526020600482015260126024820152711b1bd859135bd91d5b195cc819985a5b195960721b6044820152606401610702565b505050508080612e9490614e25565b915050612d2a565b60005b6008548110156131005760006008805483908110612ebf57612ebf614476565b600091825260209091206001600590920201015460ff166003811115612ee757612ee7613a78565b14612f1d57612f1860036005018281548110612f0557612f05614476565b9060005260206000209060050201613328565b6130ee565b6000306001600160a01b0316633837b05e60036005018481548110612f4457612f44614476565b9060005260206000209060050201600301546040518263ffffffff1660e01b8152600401612f7491815260200190565b602060405180830381865afa158015612f91573d6000803e3d6000fd5b505050506040513d601f19601f82011682018060405250810190612fb59190614ea2565b9050612fc18183613414565b806001600160a01b031663df33cc5160036005018481548110612fe657612fe6614476565b9060005260206000209060050201600401805461300290614442565b80601f016020809104026020016040519081016040528092919081815260200182805461302e90614442565b801561307b5780601f106130505761010080835404028352916020019161307b565b820191906000526020600020905b81548152906001019060200180831161305e57829003601f168201915b50505050508060200190518101906130939190615427565b6013546040516001600160e01b031960e085901b16815260048101929092526024820152604401600060405180830381600087803b1580156130d457600080fd5b505af11580156130e8573d6000803e3d6000fd5b50505050505b806130f881614e25565b915050612e9f565b50604051600080516020615b3183398151915290600090a1565b600654613128906001614585565b6131329042615b18565b6014828154811061314557613145614476565b60009182526020909120015550565b60105461316390600190614ebf565b6000838152601a6020526040902054146131b65760405162461bcd60e51b815260206004820152601460248201527314db1bdd081d995c9cda5bdb881a5b9d985b1a5960621b6044820152606401610702565b6000828152601a60209081526040822080546001810182559083529181902083516131e89391909101918401906137c4565b506129cf8261352a565b6012546001600160a01b03161580159061327e5750601260009054906101000a90046001600160a01b03166001600160a01b031663999925066040518163ffffffff1660e01b8152600401602060405180830381865afa15801561325a573d6000803e3d6000fd5b505050506040513d601f19601f8201168201806040525081019061327e9190614ed6565b80156132f257506012546040516344c3b60760e01b8152600481018390526001600160a01b03909116906344c3b60790602401602060405180830381865afa1580156132ce573d6000803e3d6000fd5b505050506040513d601f19601f820116820180604052508101906132f29190614ed6565b156111695760125460405163b992db0f60e01b8152600481018390526001600160a01b039091169063b992db0f9060240161113b565b600181015460039060ff168181111561334357613343613a78565b11156133865760405162461bcd60e51b8152602060048201526012602482015271496e76616c696420696e676573745479706560701b6044820152606401610702565b805481600061339483614e25565b9091555060039050600182015460ff1660038111156133b5576133b5613a78565b1461116957600281015460405163b3d7370760e01b815260048101839052611169919073__$3ec311f63f1cd166364ee887ad77eb9bd8$__9063b3d7370790602401600060405180830381865af4158015612820573d6000803e3d6000fd5b8060166003016000846003600501858154811061343357613433614476565b9060005260206000209060050201600401805461344f90614442565b80601f016020809104026020016040519081016040528092919081815260200182805461347b90614442565b80156134c85780601f1061349d576101008083540402835291602001916134c8565b820191906000526020600020905b8154815290600101906020018083116134ab57829003601f168201915b50505050508060200190518101906134e09190615427565b6040516020016134f1929190615440565b60408051601f1981840301815291815281516020928301208352908201929092520160009081209190915560168054916129c983614e25565b60005b6000828152601860205260409020548110156129cf57600082815260186020526040812080548390811061356357613563614476565b6000918252602090912001546001600160a01b03161461365257600082815260186020526040902080548290811061359d5761359d614476565b60009182526020909120015460405163de3a23c560e01b8152600481018490526001600160a01b039091169063de3a23c590602401600060405180830381600087803b1580156135ec57600080fd5b505af1158015613600573d6000803e3d6000fd5b505050600083815260186020526040902080549091508290811061362657613626614476565b6000918252602082200180546001600160a01b0319169055601780549161364c836154f9565b91905055505b8061365c81614e25565b91505061352d565b82805482825590600052602060002090810192821561369f579160200282015b8281111561369f578251825591602001919060010190613684565b506136ab929150613837565b5090565b8280546136bb90614442565b90600052602060002090601f0160209004810192826136dd576000855561369f565b82601f106136f65782800160ff1982351617855561369f565b8280016001018555821561369f579182015b8281111561369f578235825591602001919060010190613708565b6040518060e0016040528060006001600160a01b0316815260200160006001600160a01b0316815260200160006001600160a01b031681526020016000815260200160608152602001606081526020016137bf6040518060e0016040528060006001600160a01b031681526020016000815260200160008152602001600080191681526020016060815260200160608152602001606081525090565b905290565b8280546137d090614442565b90600052602060002090601f0160209004810192826137f2576000855561369f565b82601f1061380b57805160ff191683800117855561369f565b8280016001018555821561369f579182018281111561369f578251825591602001919060010190613684565b5b808211156136ab5760008155600101613838565b60006020828403121561385e57600080fd5b81356001600160e01b03198116811461387657600080fd5b9392505050565b60006020828403121561388f57600080fd5b5035919050565b60005b838110156138b1578181015183820152602001613899565b83811115611a165750506000910152565b600081518084526138da816020860160208601613896565b601f01601f19169290920160200192915050565b60208152600061387660208301846138c2565b6001600160a01b038116811461116957600080fd5b8035610cfb81613901565b600060e0828403121561393357600080fd5b50919050565b600080600080600060a0868803121561395157600080fd5b853561395c81613901565b9450602086013561396c81613901565b9350604086013561397c81613901565b92506060860135915060808601356001600160401b0381111561399e57600080fd5b6139aa88828901613921565b9150509295509295909350565b60008083601f8401126139c957600080fd5b5081356001600160401b038111156139e057600080fd5b6020830191508360208260051b85010111156139fb57600080fd5b9250929050565b600080600080600060808688031215613a1a57600080fd5b8535613a2581613901565b9450602086013593506040860135925060608601356001600160401b03811115613a4e57600080fd5b613a5a888289016139b7565b969995985093965092949392505050565b6001600160a01b03169052565b634e487b7160e01b600052602160045260246000fd5b60068110613a9e57613a9e613a78565b9052565b6001600160a01b038616815260208101859052604081018490526060810183905260a08101612b2d6080830184613a8e565b6001600160a01b0391909116815260200190565b60008060408385031215613afb57600080fd5b8235613b0681613901565b946020939093013593505050565b6020810161061d8284613a8e565b600081518084526020808501945080840160005b83811015613b5257815187529582019590820190600101613b36565b509495945050505050565b600081518084526020808501945080840160005b83811015613b52578151805188528381015160ff908116858a0152604091820151169088015260609096019590820190600101613b71565b60018060a01b0381511682526000602080830151818501526040808401518186015260608085015181870152608085015160e06080880152613bee60e0880182613b22565b905060a086015187820360a08901528181518084528684019150868160051b85010187840193506000805b83811015613c8157868303601f190185528551805184528a01518a84018a905280518a8501819052908b019083908a8601905b80831015613c6c5783518252928d019260019290920191908d0190613c4c565b50978c0197968c019694505050600101613c19565b505060c08a015197508a810360c08c0152613c9c8189613b5d565b9b9a5050505050505050505050565b6001600160a01b0386811682528581166020830152841660408201526060810183905260a060808201819052600090613ce690830184613ba9565b979650505050505050565b60018060a01b0381511682526020810151602083015260408101516040830152606081015160608301526000608082015160c06080850152613d3660c0850182613b22565b905060a0830151613d4a60a0860182613a8e565b509392505050565b6000602080830181845280855180835260408601915060408160051b870101925083870160005b82811015613da757603f19888603018452613d95858351613cf1565b94509285019290850190600101613d79565b5092979650505050505050565b600080600060408486031215613dc957600080fd5b8335925060208401356001600160401b03811115613de657600080fd5b613df2868287016139b7565b9497909650939450505050565b60008083601f840112613e1157600080fd5b5081356001600160401b03811115613e2857600080fd5b6020830191508360208285010111156139fb57600080fd5b600080600060408486031215613e5557600080fd5b8335925060208401356001600160401b03811115613e7257600080fd5b613df286828701613dff565b634e487b7160e01b600052604160045260246000fd5b60405160c081016001600160401b0381118282101715613eb657613eb6613e7e565b60405290565b604051601f8201601f191681016001600160401b0381118282101715613ee457613ee4613e7e565b604052919050565b60006001600160401b03821115613f0557613f05613e7e565b50601f01601f191660200190565b600082601f830112613f2457600080fd5b8135613f37613f3282613eec565b613ebc565b818152846020838601011115613f4c57600080fd5b816020850160208301376000918101602001919091529392505050565b60008060408385031215613f7c57600080fd5b8235915060208301356001600160401b03811115613f9957600080fd5b613fa585828601613f13565b9150509250929050565b60006001600160401b03821115613fc857613fc8613e7e565b5060051b60200190565b60008060408385031215613fe557600080fd5b823591506020808401356001600160401b0381111561400357600080fd5b8401601f8101861361401457600080fd5b8035614022613f3282613faf565b81815260059190911b8201830190838101908883111561404157600080fd5b928401925b8284101561405f57833582529284019290840190614046565b80955050505050509250929050565b6000806040838503121561408157600080fd5b82359150602083013561409381613901565b809150509250929050565b600080604083850312156140b157600080fd5b50508035926020909101359150565b60008060008060008060008060a0898b0312156140dc57600080fd5b88356140e781613901565b975060208901356140f781613901565b965060408901356001600160401b038082111561411357600080fd5b61411f8c838d016139b7565b909850965060608b013591508082111561413857600080fd5b6141448c838d016139b7565b909650945060808b013591508082111561415d57600080fd5b5061416a8b828c01613dff565b999c989b5096995094979396929594505050565b6000602080830181845280855180835260408601915060408160051b870101925083870160005b82811015613da757603f198886030184526141c18583516138c2565b945092850192908501906001016141a5565b600081518084526020808501808196508360051b8101915082860160005b85811015614238578284038952815180516001600160a01b031685528501516040868601819052614224818701836138c2565b9a87019a95505050908401906001016141f1565b5091979650505050505050565b60048110613a9e57613a9e613a78565b600081518084526020808501808196508360051b8101915082860160005b85811015614238578284038952815160a0815186528682015161429888880182614245565b5060408281015190870152606080830151908701526080918201519186018190526142c5818701836138c2565b9a87019a9550505090840190600101614273565b60208152600060018060a01b0380845116602084015280602085015116604084015250604083015161430e6060840182613a6b565b5060608301516080830152608083015160e060a08401526143336101008401826141d3565b905060a0840151601f19808584030160c08601526143518383614255565b925060c08601519150808584030160e08601525061436f8282613ba9565b95945050505050565b60006020828403121561438a57600080fd5b81356001600160401b038111156143a057600080fd5b6143ac84828501613921565b949350505050565b60008060008060008060a087890312156143cd57600080fd5b86356143d881613901565b955060208701356143e881613901565b9450604087013593506060870135925060808701356001600160401b0381111561441157600080fd5b61441d89828a01613dff565b979a9699509497509295939492505050565b6020815260006138766020830184613cf1565b600181811c9082168061445657607f821691505b60208210810361393357634e487b7160e01b600052602260045260246000fd5b634e487b7160e01b600052603260045260246000fd5b6020808252600a9082015269151a5b595b1bd8dad95960b21b604082015260600190565b6001600160a01b03929092168252602082015260400190565b6000602082840312156144db57600080fd5b813561387681613901565b80546001600160a01b0319166001600160a01b0392909216919091179055565b6000808335601e1984360301811261451d57600080fd5b8301803591506001600160401b0382111561453757600080fd5b6020019150600581901b36038213156139fb57600080fd5b60008235603e1983360301811261456557600080fd5b9190910192915050565b634e487b7160e01b600052601160045260246000fd5b600081600019048311821515161561459f5761459f61456f565b500290565b5b818110156129cf57600081556001016145a5565b6145c38154614442565b80156129cf57601f8111600181146145dd57505060009055565b8260005260206000206145fb601f840160051c8201600183016145a4565b506020600090812081855555505050565b6000808335601e1984360301811261462357600080fd5b8301803591506001600160401b0382111561463d57600080fd5b6020019150368190038213156139fb57600080fd5b601f8211156119a657806000526020600020601f840160051c810160208510156146795750805b610893601f850160051c8301826145a4565b813561469681613901565b6146a081836144e6565b50600180820160206146b48186018661460c565b6001600160401b038111156146cb576146cb613e7e565b6146df816146d98654614442565b86614652565b6000601f82116001811461471357600083156146fb5750838201355b600019600385901b1c1916600184901b178655610b96565b600086815260209020601f19841690835b828110156147415786850135825593870193908901908701614724565b508482101561475e5760001960f88660031b161c19848701351681555b50505050841b90930190915550505050565b60008235609e1983360301811261456557600080fd5b6004811061116957600080fd5b8135815560018082016020808501356147ab81614786565b600481106147bb576147bb613a78565b60ff1983541660ff821681178455505060408501356002850155606085013560038501556004840191506146b4608086018661460c565b600160401b83111561480657614806613e7e565b8054838255808410156148aa577f333333333333333333333333333333333333333333333333333333333333333360018183118116156148485761484861456f565b600582871182161561485c5761485c61456f565b600085815260208120909350878202810190828602015b808210156148a457848255848483015584600283015584600383015561489b600483016145b9565b90820190614873565b50505050505b5060008181526020812083915b85811015610ab2576148d26148cc8487614770565b83614793565b60209290920191600591909101906001016148b7565b6000823560de1983360301811261456557600080fd5b8054600080835581156119a657828152602081208281015b8082101561089357828255600182019150614916565b813581556001808201602061494381860186614506565b600160401b81111561495757614957613e7e565b83548185558082101561498b5760008581528481208381019083015b808210156149875782825590880190614973565b5050505b506000938452828420935b818110156149b1578235855593850193918301918501614996565b5050505050505050565b600160401b8311156149cf576149cf613e7e565b805483825580841015614a47576001600160ff1b0360018183118116156149f8576149f861456f565b818611811615614a0a57614a0a61456f565b60008481526020812090925086821b81019084831b015b80821015614a4257838255614a378383016148fe565b600282019150614a21565b505050505b5060008181526020812083915b85811015610ab257614a6f614a69848761454f565b8361492c565b6020929092019160029190910190600101614a54565b6000808335601e19843603018112614a9c57600080fd5b8301803591506001600160401b03821115614ab657600080fd5b60200191506060810236038213156139fb57600080fd5b60ff8116811461116957600080fd5b81358155600181016020830135614af281614acd565b81546040850135614b0281614acd565b61ff008160081b1660ff841661ffff19841617178455505050505050565b600160401b831115614b3457614b34613e7e565b805483825580841015614ba6576001600160ff1b036001818311811615614b5d57614b5d61456f565b818611811615614b6f57614b6f61456f565b60008481526020812090925086821b81019084831b015b80821015614ba1578382558383830155600282019150614b86565b505050505b5060008181526020812083915b85811015610ab257614bc58383614adc565b6060929092019160029190910190600101614bb3565b8135614be681613901565b614bf081836144e6565b50600160208084013582840155604084013560028401556060840135600384015560048301614c226080860186614506565b600160401b811115614c3657614c36613e7e565b825481845580821015614c5b578360005284600020614c598282018483016145a4565b505b506000928352838320925b81811015614c81578235845592850192918401918501614c66565b505050505050614c9460a0830183614506565b614ca28183600586016149bb565b5050614cb160c0830183614a85565b611a16818360068601614b20565b8135614cca81613901565b614cd481836144e6565b506001602080840135614ce681613901565b614cf2818486016144e6565b5060026040850135614d0381613901565b614d0f818387016144e6565b506060850135600385015560048401614d2b6080870187614506565b600160401b811115614d3f57614d3f613e7e565b825481845580821015614daf576001600160ff1b03808211881615614d6657614d6661456f565b808311881615614d7857614d7861456f565b50600084815286812083891b810190838a1b015b80821015614dab57828255614da28a83016145b9565b90870190614d8c565b5050505b506000928352602083209282905b82811015614de757614dd8614dd2838661454f565b8661468b565b93850193908601908701614dbd565b5050505050505050614dfc60a0830183614506565b614e0a8183600586016147f2565b50506129cf614e1c60c08401846148e8565b60068301614bdb565b600060018201614e3757614e3761456f565b5060010190565b81835260006001600160fb1b03831115614e5757600080fd5b8260051b8083602087013760009401602001938452509192915050565b60018060a01b0386168152846020820152836040820152608060608201526000613ce6608083018486614e3e565b600060208284031215614eb457600080fd5b815161387681613901565b600082821015614ed157614ed161456f565b500390565b600060208284031215614ee857600080fd5b8151801515811461387657600080fd5b6000815480845260208085019450836000528060002060005b83811015613b5257815487529582019560019182019101614f11565b600081548084526020808501808196508360051b810191506000868152838120815b86811015614fbb578385038a52815485526040868601819052600180840180549288018390528552878520606088019290919086905b80821015614fa25783548552938a01939282019290820190614f85565b5050509a87019a50945060029190910190600101614f4f565b509298975050505050505050565b6000815480845260208085019450836000528060002060005b83811015613b52578154875260018083015460ff808216868b015260089190911c16604089015260609097019660029092019101614fe2565b600060018060a01b038087168352608060208401526150406080840182885416613a6b565b50600185015460a0830152600285015460c0830152600385015460e083015260e0610100830152615078610160830160048701614ef8565b607f1980848303016101208501526150938260058901614f2d565b91508084830301610140850152506150ae8160068801614fc9565b9150506150be6040830185613a6b565b82606083015295945050505050565b805160068110610cfb57600080fd5b600060208083850312156150ef57600080fd5b82516001600160401b038082111561510657600080fd5b9084019060c0828703121561511a57600080fd5b615122613e94565b825161512d81613901565b808252508383015184820152604083015160408201526060830151606082015260808301518281111561515f57600080fd5b83019150601f8201871361517257600080fd5b8151615180613f3282613faf565b81815260059190911b8301850190858101908983111561519f57600080fd5b938601935b828510156151bd578451825293860193908601906151a4565b6080840152506151d1905060a084016150cd565b60a08201529695505050505050565b6020808252600f908201526e27b7363c9030b93134ba3930ba37b960891b604082015260600190565b602080825260189082015277139bdd08105c989a5d1c985d1a5bdb94995c5d595cdd195960421b604082015260600190565b6020808252600b908201526a27b7363c9025b2b2b832b960a91b604082015260600190565b6020808252601e908201527f6c656e677468206d757374206d61746368206f7574636f6d65536c6f74730000604082015260600190565b83815260406020820152600061436f604083018486614e3e565b6001600160a01b038416815260208082018490526060604083018190528351908301819052600091848101916080850190845b81811015615300578451835293830193918301916001016152e4565b509098975050505050505050565b6000604082016040835280855480835260608501915060608160051b8601019250600087815260208120815b8381101561541257878603605f1901855281548652600182015460ff166153646020880182614245565b5060028201546040870152600382015460608701526004820160a0608088015283815461539081614442565b8060a08b015260018216600081146153af57600181146153c4576153f5565b60ff19831660c08c015260e08b0193506153f5565b84885260208820885b838110156153ec5781548d820160c001526001909101906020016153cd565b8c0160c0019450505b50919850505060209590950194506005919091019060010161533a565b50505050506020929092019290925292915050565b60006020828403121561543957600080fd5b5051919050565b60609290921b6001600160601b0319168252601482015260340190565b60208082526015908201527436b9b39739b2b73232b9103737ba1039b7b63b32b960591b604082015260600190565b60006020828403121561549e57600080fd5b81516001600160401b038111156154b457600080fd5b8201601f810184136154c557600080fd5b80516154d3613f3282613eec565b8181528560208385010111156154e857600080fd5b61436f826020830160208601613896565b6000816155085761550861456f565b506000190190565b6000808335601e1984360301811261552757600080fd5b83016020810192503590506001600160401b0381111561554657600080fd5b8060051b36038313156139fb57600080fd5b6000808335601e1984360301811261556f57600080fd5b83016020810192503590506001600160401b0381111561558e57600080fd5b8036038313156139fb57600080fd5b81835281816020850137506000828201602090810191909152601f909101601f19169091010190565b60008235603e198336030181126155dc57600080fd5b90910192915050565b81835260006020808501808196508560051b810191508460005b8781101561423857828403895261561682886155c6565b6040813561562381613901565b6001600160a01b0316865261563a82880183615558565b9250818888015261564e828801848361559d565b9b88019b9650505091850191506001016155ff565b81835260006020808501808196508560051b81019150846000805b88811015614fbb578385038a528235609e1989360301811261569e578283fd5b88018035865260a0878201356156b381614786565b6156bf89890182614245565b50604082810135908801526060808301359088015260806156e281840184615558565b935082828a01526156f6838a01858361559d565b9d8a019d9850505093870193505060010161567e565b6000823560de198336030181126155dc57600080fd5b6000808335601e1984360301811261573957600080fd5b83016020810192503590506001600160401b0381111561575857600080fd5b6060810236038313156139fb57600080fd5b8183526000602080850194508260005b85811015613b5257813587528282013561579381614acd565b60ff90811688850152604090838201356157ac81614acd565b1690880152606096870196919091019060010161577a565b600081356157d181613901565b6001600160a01b031683526020828101358185015260408084013581860152606080850135908601526158076080850185615510565b60e0608088015261581c60e088018284614e3e565b91505061582c60a0860186615510565b87830360a0890152808352848301600582901b840186018360005b8481101561589a57868303601f1901845261586282876155c6565b803584526158728a820182615510565b9150898b8601526158868a86018383614e3e565b958b01959450505090880190600101615847565b50506158a960c08a018a615722565b9750955089810360c08b01526158c081888861576a565b9a9950505050505050505050565b6001600160a01b0385811682526080602083015260009085356158f081613901565b16608083015261590260208601613916565b61590f60a0840182613a6b565b5061591c60408601613916565b61592960c0840182613a6b565b50606085013560e08301526159416080860186615510565b60e0610100850152615958610160850182846155e5565b91505061596860a0870187615510565b607f198086850301610120870152615981848385615663565b935061599060c08a018a61570c565b9250808685030161014087015250506159a982826157c4565b60408501969096525050506060015292915050565b6020808252602e908201527f496e697469616c697a61626c653a20636f6e747261637420697320616c72656160408201526d191e481a5b9a5d1a585b1a5e995960921b606082015260800190565b600060408236031215615a1e57600080fd5b604080519081016001600160401b038082118383101715615a4157615a41613e7e565b8160405284359150615a5282613901565b90825260208401359080821115615a6857600080fd5b50615a7536828601613f13565b60208301525092915050565b60008251614565818460208701613896565b60006020808385031215615aa657600080fd5b82516001600160401b03811115615abc57600080fd5b8301601f81018513615acd57600080fd5b8051615adb613f3282613faf565b81815260059190911b82018301908381019087831115615afa57600080fd5b928401925b82841015613ce657835182529284019290840190615aff565b60008219821115615b2b57615b2b61456f565b50019056fe71bd81ebe1d98a2944767394e76a9aff18724b2cf04e1db71254f804544b35c716ceee8289685dd2a02b9c8ae81d2df373176ce53519e6284e2a2950d6546ffafc8737ab85eb45125971625a9ebdb75cc78e01d5c1fa80c4c6e5203f47bc4fab0ca87275d169c8ebebebf4aab9c6c710c7681b39422556e90b16a44c68ee4e46a2646970667358221220e8c744fae09ff60efade6c595812ab2cf6c5406071becb99b91281839cdaddb664736f6c634300080d0033",
  "linkReferences": {
    "contracts/solvers/SolverLib.sol": {
      "SolverLib": [
        {
          "length": 20,
          "start": 2385
        },
        {
          "length": 20,
          "start": 3849
        },
        {
          "length": 20,
          "start": 4279
        },
        {
          "length": 20,
          "start": 5037
        },
        {
          "length": 20,
          "start": 5325
        },
        {
          "length": 20,
          "start": 6751
        },
        {
          "length": 20,
          "start": 7496
        },
        {
          "length": 20,
          "start": 7703
        },
        {
          "length": 20,
          "start": 7971
        },
        {
          "length": 20,
          "start": 11215
        },
        {
          "length": 20,
          "start": 13605
        }
      ]
    }
  },
  "deployedLinkReferences": {
    "contracts/solvers/SolverLib.sol": {
      "SolverLib": [
        {
          "length": 20,
          "start": 2054
        },
        {
          "length": 20,
          "start": 3518
        },
        {
          "length": 20,
          "start": 3948
        },
        {
          "length": 20,
          "start": 4706
        },
        {
          "length": 20,
          "start": 4994
        },
        {
          "length": 20,
          "start": 6420
        },
        {
          "length": 20,
          "start": 7165
        },
        {
          "length": 20,
          "start": 7372
        },
        {
          "length": 20,
          "start": 7640
        },
        {
          "length": 20,
          "start": 10884
        },
        {
          "length": 20,
          "start": 13274
        }
      ]
    }
  }
}