{
  "_format": "hh-sol-artifact-1",
  "contractName": "BasicSolverV1",
  "sourceName": "contracts/solvers/BasicSolverV1.sol",
  "abi": [
    {
      "anonymous": false,
      "inputs": [
        {
          "indexed": false,
          "internalType": "bytes32",
          "name": "conditionId",
          "type": "bytes32"
        }
      ],
      "name": "ChangedStatus",
      "type": "event"
    },
    {
      "anonymous": false,
      "inputs": [
        {
          "indexed": false,
          "internalType": "bytes32",
          "name": "conditionId",
          "type": "bytes32"
        }
      ],
      "name": "DeliveredNullArbitration",
      "type": "event"
    },
    {
      "anonymous": false,
      "inputs": [
        {
          "indexed": false,
          "internalType": "address",
          "name": "child",
          "type": "address"
        }
      ],
      "name": "DeployedChild",
      "type": "event"
    },
    {
      "anonymous": false,
      "inputs": [],
      "name": "IngestedData",
      "type": "event"
    },
    {
      "anonymous": false,
      "inputs": [
        {
          "indexed": false,
          "internalType": "uint8",
          "name": "version",
          "type": "uint8"
        }
      ],
      "name": "Initialized",
      "type": "event"
    },
    {
      "anonymous": false,
      "inputs": [
        {
          "indexed": false,
          "internalType": "address",
          "name": "solver",
          "type": "address"
        },
        {
          "indexed": false,
          "internalType": "uint256",
          "name": "solveIndex",
          "type": "uint256"
        }
      ],
      "name": "PreparedSolve",
      "type": "event"
    },
    {
      "inputs": [
        {
          "internalType": "bytes32",
          "name": "_slot",
          "type": "bytes32"
        },
        {
          "internalType": "bytes",
          "name": "_data",
          "type": "bytes"
        }
      ],
      "name": "addData",
      "outputs": [],
      "stateMutability": "nonpayable",
      "type": "function"
    },
    {
      "inputs": [
        {
          "internalType": "uint256",
          "name": "_index",
          "type": "uint256"
        }
      ],
      "name": "addressFromChainIndex",
      "outputs": [
        {
          "internalType": "address",
          "name": "_address",
          "type": "address"
        }
      ],
      "stateMutability": "view",
      "type": "function"
    },
    {
      "inputs": [
        {
          "internalType": "uint256",
          "name": "_index",
          "type": "uint256"
        }
      ],
      "name": "allocationsValid",
      "outputs": [
        {
          "internalType": "bool",
          "name": "",
          "type": "bool"
        }
      ],
      "stateMutability": "view",
      "type": "function"
    },
    {
      "inputs": [
        {
          "internalType": "uint256",
          "name": "_index",
          "type": "uint256"
        },
        {
          "internalType": "uint256[]",
          "name": "payouts",
          "type": "uint256[]"
        }
      ],
      "name": "arbitrate",
      "outputs": [],
      "stateMutability": "nonpayable",
      "type": "function"
    },
    {
      "inputs": [
        {
          "internalType": "uint256",
          "name": "_index",
          "type": "uint256"
        }
      ],
      "name": "arbitrateNull",
      "outputs": [],
      "stateMutability": "nonpayable",
      "type": "function"
    },
    {
      "inputs": [],
      "name": "arbitrator",
      "outputs": [
        {
          "internalType": "address",
          "name": "",
          "type": "address"
        }
      ],
      "stateMutability": "view",
      "type": "function"
    },
    {
      "inputs": [],
      "name": "chainChild",
      "outputs": [
        {
          "internalType": "address",
          "name": "",
          "type": "address"
        }
      ],
      "stateMutability": "view",
      "type": "function"
    },
    {
      "inputs": [],
      "name": "chainIndex",
      "outputs": [
        {
          "internalType": "uint256",
          "name": "",
          "type": "uint256"
        }
      ],
      "stateMutability": "view",
      "type": "function"
    },
    {
      "inputs": [],
      "name": "chainParent",
      "outputs": [
        {
          "internalType": "address",
          "name": "",
          "type": "address"
        }
      ],
      "stateMutability": "view",
      "type": "function"
    },
    {
      "inputs": [],
      "name": "collateralBalance",
      "outputs": [
        {
          "internalType": "uint256",
          "name": "balance",
          "type": "uint256"
        }
      ],
      "stateMutability": "view",
      "type": "function"
    },
    {
      "inputs": [
        {
          "internalType": "uint256",
          "name": "index",
          "type": "uint256"
        }
      ],
      "name": "condition",
      "outputs": [
        {
          "components": [
            {
              "internalType": "contract IERC20",
              "name": "collateralToken",
              "type": "address"
            },
            {
              "internalType": "bytes32",
              "name": "questionId",
              "type": "bytes32"
            },
            {
              "internalType": "bytes32",
              "name": "parentCollectionId",
              "type": "bytes32"
            },
            {
              "internalType": "bytes32",
              "name": "conditionId",
              "type": "bytes32"
            },
            {
              "internalType": "uint256[]",
              "name": "payouts",
              "type": "uint256[]"
            },
            {
              "internalType": "enum SolverLib.Status",
              "name": "status",
              "type": "uint8"
            }
          ],
          "internalType": "struct SolverLib.Condition",
          "name": "",
          "type": "tuple"
        }
      ],
      "stateMutability": "view",
      "type": "function"
    },
    {
      "inputs": [
        {
          "internalType": "uint256",
          "name": "",
          "type": "uint256"
        }
      ],
      "name": "conditions",
      "outputs": [
        {
          "internalType": "contract IERC20",
          "name": "collateralToken",
          "type": "address"
        },
        {
          "internalType": "bytes32",
          "name": "questionId",
          "type": "bytes32"
        },
        {
          "internalType": "bytes32",
          "name": "parentCollectionId",
          "type": "bytes32"
        },
        {
          "internalType": "bytes32",
          "name": "conditionId",
          "type": "bytes32"
        },
        {
          "internalType": "enum SolverLib.Status",
          "name": "status",
          "type": "uint8"
        }
      ],
      "stateMutability": "view",
      "type": "function"
    },
    {
      "inputs": [],
      "name": "config",
      "outputs": [
        {
          "internalType": "contract Solver",
          "name": "implementation",
          "type": "address"
        },
        {
          "internalType": "address",
          "name": "keeper",
          "type": "address"
        },
        {
          "internalType": "address",
          "name": "arbitrator",
          "type": "address"
        },
        {
          "internalType": "uint256",
          "name": "timelockSeconds",
          "type": "uint256"
        },
        {
          "components": [
            {
              "internalType": "contract IERC20",
              "name": "collateralToken",
              "type": "address"
            },
            {
              "internalType": "uint256",
              "name": "outcomeSlots",
              "type": "uint256"
            },
            {
              "internalType": "uint256",
              "name": "parentCollectionIndexSet",
              "type": "uint256"
            },
            {
              "internalType": "bytes32",
              "name": "amountSlot",
              "type": "bytes32"
            },
            {
              "internalType": "uint256[]",
              "name": "partition",
              "type": "uint256[]"
            },
            {
              "components": [
                {
                  "internalType": "bytes32",
                  "name": "recipientAddressSlot",
                  "type": "bytes32"
                },
                {
                  "internalType": "bytes32[]",
                  "name": "recipientAmountSlots",
                  "type": "bytes32[]"
                }
              ],
              "internalType": "struct SolverLib.Allocation[]",
              "name": "allocations",
              "type": "tuple[]"
            },
            {
              "components": [
                {
                  "internalType": "bytes32",
                  "name": "digest",
                  "type": "bytes32"
                },
                {
                  "internalType": "uint8",
                  "name": "hashFunction",
                  "type": "uint8"
                },
                {
                  "internalType": "uint8",
                  "name": "size",
                  "type": "uint8"
                }
              ],
              "internalType": "struct SolverLib.Multihash[]",
              "name": "outcomeURIs",
              "type": "tuple[]"
            }
          ],
          "internalType": "struct SolverLib.ConditionBase",
          "name": "conditionBase",
          "type": "tuple"
        }
      ],
      "stateMutability": "view",
      "type": "function"
    },
    {
      "inputs": [
        {
          "internalType": "uint256",
          "name": "_index",
          "type": "uint256"
        }
      ],
      "name": "confirmPayouts",
      "outputs": [],
      "stateMutability": "nonpayable",
      "type": "function"
    },
    {
      "inputs": [
        {
          "components": [
            {
              "internalType": "contract Solver",
              "name": "implementation",
              "type": "address"
            },
            {
              "internalType": "address",
              "name": "keeper",
              "type": "address"
            },
            {
              "internalType": "address",
              "name": "arbitrator",
              "type": "address"
            },
            {
              "internalType": "uint256",
              "name": "timelockSeconds",
              "type": "uint256"
            },
            {
              "components": [
                {
                  "internalType": "contract IModule",
                  "name": "module",
                  "type": "address"
                },
                {
                  "internalType": "bytes",
                  "name": "data",
                  "type": "bytes"
                }
              ],
              "internalType": "struct Modulated.Loader[]",
              "name": "moduleLoaders",
              "type": "tuple[]"
            },
            {
              "components": [
                {
                  "internalType": "uint256",
                  "name": "executions",
                  "type": "uint256"
                },
                {
                  "internalType": "enum SolverLib.IngestType",
                  "name": "ingestType",
                  "type": "uint8"
                },
                {
                  "internalType": "bytes32",
                  "name": "slot",
                  "type": "bytes32"
                },
                {
                  "internalType": "uint256",
                  "name": "solverIndex",
                  "type": "uint256"
                },
                {
                  "internalType": "bytes",
                  "name": "data",
                  "type": "bytes"
                }
              ],
              "internalType": "struct SolverLib.Ingest[]",
              "name": "ingests",
              "type": "tuple[]"
            },
            {
              "components": [
                {
                  "internalType": "contract IERC20",
                  "name": "collateralToken",
                  "type": "address"
                },
                {
                  "internalType": "uint256",
                  "name": "outcomeSlots",
                  "type": "uint256"
                },
                {
                  "internalType": "uint256",
                  "name": "parentCollectionIndexSet",
                  "type": "uint256"
                },
                {
                  "internalType": "bytes32",
                  "name": "amountSlot",
                  "type": "bytes32"
                },
                {
                  "internalType": "uint256[]",
                  "name": "partition",
                  "type": "uint256[]"
                },
                {
                  "components": [
                    {
                      "internalType": "bytes32",
                      "name": "recipientAddressSlot",
                      "type": "bytes32"
                    },
                    {
                      "internalType": "bytes32[]",
                      "name": "recipientAmountSlots",
                      "type": "bytes32[]"
                    }
                  ],
                  "internalType": "struct SolverLib.Allocation[]",
                  "name": "allocations",
                  "type": "tuple[]"
                },
                {
                  "components": [
                    {
                      "internalType": "bytes32",
                      "name": "digest",
                      "type": "bytes32"
                    },
                    {
                      "internalType": "uint8",
                      "name": "hashFunction",
                      "type": "uint8"
                    },
                    {
                      "internalType": "uint8",
                      "name": "size",
                      "type": "uint8"
                    }
                  ],
                  "internalType": "struct SolverLib.Multihash[]",
                  "name": "outcomeURIs",
                  "type": "tuple[]"
                }
              ],
              "internalType": "struct SolverLib.ConditionBase",
              "name": "conditionBase",
              "type": "tuple"
            }
          ],
          "internalType": "struct SolverLib.Config",
          "name": "_config",
          "type": "tuple"
        }
      ],
      "name": "deployChild",
      "outputs": [
        {
          "internalType": "address",
          "name": "",
          "type": "address"
        }
      ],
      "stateMutability": "nonpayable",
      "type": "function"
    },
    {
      "inputs": [
        {
          "internalType": "uint256",
          "name": "_index",
          "type": "uint256"
        }
      ],
      "name": "executeSolve",
      "outputs": [],
      "stateMutability": "nonpayable",
      "type": "function"
    },
    {
      "inputs": [
        {
          "internalType": "bytes32",
          "name": "_slot",
          "type": "bytes32"
        }
      ],
      "name": "getAllData",
      "outputs": [
        {
          "internalType": "bytes[]",
          "name": "data",
          "type": "bytes[]"
        }
      ],
      "stateMutability": "view",
      "type": "function"
    },
    {
      "inputs": [
        {
          "internalType": "bytes32",
          "name": "_slot",
          "type": "bytes32"
        }
      ],
      "name": "getCallbackOutput",
      "outputs": [
        {
          "internalType": "bytes",
          "name": "data",
          "type": "bytes"
        }
      ],
      "stateMutability": "view",
      "type": "function"
    },
    {
      "inputs": [],
      "name": "getConditions",
      "outputs": [
        {
          "components": [
            {
              "internalType": "contract IERC20",
              "name": "collateralToken",
              "type": "address"
            },
            {
              "internalType": "bytes32",
              "name": "questionId",
              "type": "bytes32"
            },
            {
              "internalType": "bytes32",
              "name": "parentCollectionId",
              "type": "bytes32"
            },
            {
              "internalType": "bytes32",
              "name": "conditionId",
              "type": "bytes32"
            },
            {
              "internalType": "uint256[]",
              "name": "payouts",
              "type": "uint256[]"
            },
            {
              "internalType": "enum SolverLib.Status",
              "name": "status",
              "type": "uint8"
            }
          ],
          "internalType": "struct SolverLib.Condition[]",
          "name": "",
          "type": "tuple[]"
        }
      ],
      "stateMutability": "view",
      "type": "function"
    },
    {
      "inputs": [],
      "name": "getConfig",
      "outputs": [
        {
          "components": [
            {
              "internalType": "contract Solver",
              "name": "implementation",
              "type": "address"
            },
            {
              "internalType": "address",
              "name": "keeper",
              "type": "address"
            },
            {
              "internalType": "address",
              "name": "arbitrator",
              "type": "address"
            },
            {
              "internalType": "uint256",
              "name": "timelockSeconds",
              "type": "uint256"
            },
            {
              "components": [
                {
                  "internalType": "contract IModule",
                  "name": "module",
                  "type": "address"
                },
                {
                  "internalType": "bytes",
                  "name": "data",
                  "type": "bytes"
                }
              ],
              "internalType": "struct Modulated.Loader[]",
              "name": "moduleLoaders",
              "type": "tuple[]"
            },
            {
              "components": [
                {
                  "internalType": "uint256",
                  "name": "executions",
                  "type": "uint256"
                },
                {
                  "internalType": "enum SolverLib.IngestType",
                  "name": "ingestType",
                  "type": "uint8"
                },
                {
                  "internalType": "bytes32",
                  "name": "slot",
                  "type": "bytes32"
                },
                {
                  "internalType": "uint256",
                  "name": "solverIndex",
                  "type": "uint256"
                },
                {
                  "internalType": "bytes",
                  "name": "data",
                  "type": "bytes"
                }
              ],
              "internalType": "struct SolverLib.Ingest[]",
              "name": "ingests",
              "type": "tuple[]"
            },
            {
              "components": [
                {
                  "internalType": "contract IERC20",
                  "name": "collateralToken",
                  "type": "address"
                },
                {
                  "internalType": "uint256",
                  "name": "outcomeSlots",
                  "type": "uint256"
                },
                {
                  "internalType": "uint256",
                  "name": "parentCollectionIndexSet",
                  "type": "uint256"
                },
                {
                  "internalType": "bytes32",
                  "name": "amountSlot",
                  "type": "bytes32"
                },
                {
                  "internalType": "uint256[]",
                  "name": "partition",
                  "type": "uint256[]"
                },
                {
                  "components": [
                    {
                      "internalType": "bytes32",
                      "name": "recipientAddressSlot",
                      "type": "bytes32"
                    },
                    {
                      "internalType": "bytes32[]",
                      "name": "recipientAmountSlots",
                      "type": "bytes32[]"
                    }
                  ],
                  "internalType": "struct SolverLib.Allocation[]",
                  "name": "allocations",
                  "type": "tuple[]"
                },
                {
                  "components": [
                    {
                      "internalType": "bytes32",
                      "name": "digest",
                      "type": "bytes32"
                    },
                    {
                      "internalType": "uint8",
                      "name": "hashFunction",
                      "type": "uint8"
                    },
                    {
                      "internalType": "uint8",
                      "name": "size",
                      "type": "uint8"
                    }
                  ],
                  "internalType": "struct SolverLib.Multihash[]",
                  "name": "outcomeURIs",
                  "type": "tuple[]"
                }
              ],
              "internalType": "struct SolverLib.ConditionBase",
              "name": "conditionBase",
              "type": "tuple"
            }
          ],
          "internalType": "struct SolverLib.Config",
          "name": "",
          "type": "tuple"
        }
      ],
      "stateMutability": "view",
      "type": "function"
    },
    {
      "inputs": [
        {
          "internalType": "bytes32",
          "name": "_slot",
          "type": "bytes32"
        }
      ],
      "name": "getData",
      "outputs": [
        {
          "internalType": "bytes",
          "name": "data",
          "type": "bytes"
        }
      ],
      "stateMutability": "view",
      "type": "function"
    },
    {
      "inputs": [
        {
          "internalType": "bytes32",
          "name": "key",
          "type": "bytes32"
        }
      ],
      "name": "getState",
      "outputs": [
        {
          "internalType": "bytes",
          "name": "data",
          "type": "bytes"
        }
      ],
      "stateMutability": "view",
      "type": "function"
    },
    {
      "inputs": [
        {
          "internalType": "uint256",
          "name": "conditionIndex",
          "type": "uint256"
        }
      ],
      "name": "getStatus",
      "outputs": [
        {
          "internalType": "enum SolverLib.Status",
          "name": "status",
          "type": "uint8"
        }
      ],
      "stateMutability": "view",
      "type": "function"
    },
    {
      "inputs": [
        {
          "internalType": "bytes32",
          "name": "_slot",
          "type": "bytes32"
        }
      ],
      "name": "handleCallback",
      "outputs": [],
      "stateMutability": "nonpayable",
      "type": "function"
    },
    {
      "inputs": [],
      "name": "ingestsValid",
      "outputs": [
        {
          "internalType": "bool",
          "name": "",
          "type": "bool"
        }
      ],
      "stateMutability": "view",
      "type": "function"
    },
    {
      "inputs": [
        {
          "internalType": "address",
          "name": "_deployer",
          "type": "address"
        },
        {
          "internalType": "address",
          "name": "_ctfAddress",
          "type": "address"
        },
        {
          "internalType": "address",
          "name": "_chainParent",
          "type": "address"
        },
        {
          "internalType": "uint256",
          "name": "_chainIndex",
          "type": "uint256"
        },
        {
          "components": [
            {
              "internalType": "contract Solver",
              "name": "implementation",
              "type": "address"
            },
            {
              "internalType": "address",
              "name": "keeper",
              "type": "address"
            },
            {
              "internalType": "address",
              "name": "arbitrator",
              "type": "address"
            },
            {
              "internalType": "uint256",
              "name": "timelockSeconds",
              "type": "uint256"
            },
            {
              "components": [
                {
                  "internalType": "contract IModule",
                  "name": "module",
                  "type": "address"
                },
                {
                  "internalType": "bytes",
                  "name": "data",
                  "type": "bytes"
                }
              ],
              "internalType": "struct Modulated.Loader[]",
              "name": "moduleLoaders",
              "type": "tuple[]"
            },
            {
              "components": [
                {
                  "internalType": "uint256",
                  "name": "executions",
                  "type": "uint256"
                },
                {
                  "internalType": "enum SolverLib.IngestType",
                  "name": "ingestType",
                  "type": "uint8"
                },
                {
                  "internalType": "bytes32",
                  "name": "slot",
                  "type": "bytes32"
                },
                {
                  "internalType": "uint256",
                  "name": "solverIndex",
                  "type": "uint256"
                },
                {
                  "internalType": "bytes",
                  "name": "data",
                  "type": "bytes"
                }
              ],
              "internalType": "struct SolverLib.Ingest[]",
              "name": "ingests",
              "type": "tuple[]"
            },
            {
              "components": [
                {
                  "internalType": "contract IERC20",
                  "name": "collateralToken",
                  "type": "address"
                },
                {
                  "internalType": "uint256",
                  "name": "outcomeSlots",
                  "type": "uint256"
                },
                {
                  "internalType": "uint256",
                  "name": "parentCollectionIndexSet",
                  "type": "uint256"
                },
                {
                  "internalType": "bytes32",
                  "name": "amountSlot",
                  "type": "bytes32"
                },
                {
                  "internalType": "uint256[]",
                  "name": "partition",
                  "type": "uint256[]"
                },
                {
                  "components": [
                    {
                      "internalType": "bytes32",
                      "name": "recipientAddressSlot",
                      "type": "bytes32"
                    },
                    {
                      "internalType": "bytes32[]",
                      "name": "recipientAmountSlots",
                      "type": "bytes32[]"
                    }
                  ],
                  "internalType": "struct SolverLib.Allocation[]",
                  "name": "allocations",
                  "type": "tuple[]"
                },
                {
                  "components": [
                    {
                      "internalType": "bytes32",
                      "name": "digest",
                      "type": "bytes32"
                    },
                    {
                      "internalType": "uint8",
                      "name": "hashFunction",
                      "type": "uint8"
                    },
                    {
                      "internalType": "uint8",
                      "name": "size",
                      "type": "uint8"
                    }
                  ],
                  "internalType": "struct SolverLib.Multihash[]",
                  "name": "outcomeURIs",
                  "type": "tuple[]"
                }
              ],
              "internalType": "struct SolverLib.ConditionBase",
              "name": "conditionBase",
              "type": "tuple"
            }
          ],
          "internalType": "struct SolverLib.Config",
          "name": "_solverConfig",
          "type": "tuple"
        }
      ],
      "name": "init",
      "outputs": [],
      "stateMutability": "nonpayable",
      "type": "function"
    },
    {
      "inputs": [
        {
          "internalType": "bytes4",
          "name": "selector",
          "type": "bytes4"
        }
      ],
      "name": "isPermittedModule",
      "outputs": [
        {
          "internalType": "bool",
          "name": "",
          "type": "bool"
        }
      ],
      "stateMutability": "view",
      "type": "function"
    },
    {
      "inputs": [
        {
          "internalType": "address",
          "name": "account",
          "type": "address"
        },
        {
          "internalType": "uint256",
          "name": "conditionIndex",
          "type": "uint256"
        }
      ],
      "name": "isRecipient",
      "outputs": [
        {
          "internalType": "bool",
          "name": "",
          "type": "bool"
        }
      ],
      "stateMutability": "view",
      "type": "function"
    },
    {
      "inputs": [],
      "name": "keeper",
      "outputs": [
        {
          "internalType": "address",
          "name": "",
          "type": "address"
        }
      ],
      "stateMutability": "view",
      "type": "function"
    },
    {
      "inputs": [
        {
          "internalType": "address",
          "name": "operator",
          "type": "address"
        },
        {
          "internalType": "address",
          "name": "from",
          "type": "address"
        },
        {
          "internalType": "uint256[]",
          "name": "ids",
          "type": "uint256[]"
        },
        {
          "internalType": "uint256[]",
          "name": "values",
          "type": "uint256[]"
        },
        {
          "internalType": "bytes",
          "name": "data",
          "type": "bytes"
        }
      ],
      "name": "onERC1155BatchReceived",
      "outputs": [
        {
          "internalType": "bytes4",
          "name": "",
          "type": "bytes4"
        }
      ],
      "stateMutability": "nonpayable",
      "type": "function"
    },
    {
      "inputs": [
        {
          "internalType": "address",
          "name": "operator",
          "type": "address"
        },
        {
          "internalType": "address",
          "name": "from",
          "type": "address"
        },
        {
          "internalType": "uint256",
          "name": "id",
          "type": "uint256"
        },
        {
          "internalType": "uint256",
          "name": "value",
          "type": "uint256"
        },
        {
          "internalType": "bytes",
          "name": "data",
          "type": "bytes"
        }
      ],
      "name": "onERC1155Received",
      "outputs": [
        {
          "internalType": "bytes4",
          "name": "",
          "type": "bytes4"
        }
      ],
      "stateMutability": "nonpayable",
      "type": "function"
    },
    {
      "inputs": [
        {
          "internalType": "uint256",
          "name": "_index",
          "type": "uint256"
        }
      ],
      "name": "prepareSolve",
      "outputs": [],
      "stateMutability": "nonpayable",
      "type": "function"
    },
    {
      "inputs": [
        {
          "internalType": "uint256",
          "name": "_index",
          "type": "uint256"
        },
        {
          "internalType": "uint256[]",
          "name": "_payouts",
          "type": "uint256[]"
        }
      ],
      "name": "proposePayouts",
      "outputs": [],
      "stateMutability": "nonpayable",
      "type": "function"
    },
    {
      "inputs": [
        {
          "internalType": "contract IERC20",
          "name": "_collateralToken",
          "type": "address"
        },
        {
          "internalType": "bytes32",
          "name": "_parentCollectionId",
          "type": "bytes32"
        },
        {
          "internalType": "bytes32",
          "name": "_conditionId",
          "type": "bytes32"
        },
        {
          "internalType": "uint256[]",
          "name": "_indexSets",
          "type": "uint256[]"
        }
      ],
      "name": "redeemPosition",
      "outputs": [],
      "stateMutability": "nonpayable",
      "type": "function"
    },
    {
      "inputs": [
        {
          "internalType": "bytes32",
          "name": "_slot",
          "type": "bytes32"
        },
        {
          "internalType": "uint256",
          "name": "_chainIndex",
          "type": "uint256"
        }
      ],
      "name": "registerOutgoingCallback",
      "outputs": [],
      "stateMutability": "nonpayable",
      "type": "function"
    },
    {
      "inputs": [
        {
          "internalType": "uint256",
          "name": "_index",
          "type": "uint256"
        }
      ],
      "name": "requestArbitration",
      "outputs": [],
      "stateMutability": "nonpayable",
      "type": "function"
    },
    {
      "inputs": [
        {
          "internalType": "bytes32",
          "name": "key",
          "type": "bytes32"
        },
        {
          "internalType": "bytes",
          "name": "data",
          "type": "bytes"
        }
      ],
      "name": "setState",
      "outputs": [],
      "stateMutability": "nonpayable",
      "type": "function"
    },
    {
      "inputs": [
        {
          "internalType": "uint256",
          "name": "_index",
          "type": "uint256"
        },
        {
          "internalType": "uint256",
          "name": "_date",
          "type": "uint256"
        }
      ],
      "name": "setTimelock",
      "outputs": [],
      "stateMutability": "nonpayable",
      "type": "function"
    },
    {
      "inputs": [
        {
          "internalType": "bytes32",
          "name": "_trackingId",
          "type": "bytes32"
        }
      ],
      "name": "setTrackingId",
      "outputs": [],
      "stateMutability": "nonpayable",
      "type": "function"
    },
    {
      "inputs": [
        {
          "internalType": "bytes4",
          "name": "interfaceId",
          "type": "bytes4"
        }
      ],
      "name": "supportsInterface",
      "outputs": [
        {
          "internalType": "bool",
          "name": "",
          "type": "bool"
        }
      ],
      "stateMutability": "view",
      "type": "function"
    },
    {
      "inputs": [
        {
          "internalType": "uint256",
          "name": "",
          "type": "uint256"
        }
      ],
      "name": "timelocks",
      "outputs": [
        {
          "internalType": "uint256",
          "name": "",
          "type": "uint256"
        }
      ],
      "stateMutability": "view",
      "type": "function"
    },
    {
      "inputs": [],
      "name": "trackingId",
      "outputs": [
        {
          "internalType": "bytes32",
          "name": "",
          "type": "bytes32"
        }
      ],
      "stateMutability": "view",
      "type": "function"
    }
  ],
  "bytecode": "0x60806040523480156200001157600080fd5b506200001c62000022565b6200013d565b6200002e60ff62000031565b50565b600354600090610100900460ff16156200009c578160ff1660011480156200006c57506200006a30620000e060201b62002bf01760201c565b155b620000945760405162461bcd60e51b81526004016200008b90620000ef565b60405180910390fd5b506000919050565b60035460ff808416911610620000c65760405162461bcd60e51b81526004016200008b90620000ef565b506003805460ff191660ff92909216919091179055600190565b6001600160a01b03163b151590565b6020808252602e908201527f496e697469616c697a61626c653a20636f6e747261637420697320616c72656160408201526d191e481a5b9a5d1a585b1a5e995960921b606082015260800190565b6158fc806200014d6000396000f3fe608060405234801561001057600080fd5b50600436106101ee5760003560e01c806301ffc9a7146101f357806309648a9d1461021b5780630d06101a1461023b5780630d7e149f146102505780630d8d3975146102715780630ebe1bbd14610284578063187825591461029757806326c50007146102aa57806331402a57146102ce5780633837b05e146102e15780633f4fb5aa1461030157806344c3b6071461031457806348cbb2fc146103275780634a77234e146103305780634e46f22314610343578063506da0b81461035657806354f6127f1461036957806355dd978b1461037c5780635c622a0e1461038f5780636cc6cde1146103af57806379502c55146103c05780637c123627146103d957806380b204b7146103ee57806380c2dde21461040157806381296f6f146104145780638602ce1b1461042757806387dfee571461043a578063999925061461044d578063a272ebcf14610455578063aced166114610468578063b992db0f14610479578063bc197c811461048c578063c08d6f01146104bb578063c3f909d4146104db578063c8abf6da146104f0578063c98c05b714610503578063de3a23c51461050b578063df33cc511461051e578063ea8221a914610531578063ed25d1781461053a578063f23a6e611461054d578063f24fc90314610560575b600080fd5b610206610201366004613702565b610580565b60405190151581526020015b60405180910390f35b61022e61022936600461372c565b6105b7565b60405161021291906137a1565b61024e61024936600461372c565b610659565b005b61026361025e36600461372c565b6106bb565b604051908152602001610212565b61024e61027f36600461372c565b6106dc565b61024e6102923660046137ec565b61082e565b61024e6102a53660046138b5565b6109ef565b6102bd6102b836600461372c565b610a9e565b604051610212959493929190613955565b61024e6102dc36600461372c565b610aec565b6102f46102ef36600461372c565b610c81565b6040516102129190613987565b61022e61030f36600461372c565b610d92565b61020661032236600461372c565b610e29565b61026360185481565b61024e61033e36600461372c565b610eae565b61024e61035136600461372c565b611209565b61020661036436600461399b565b6112d0565b61022e61037736600461372c565b611415565b6015546102f4906001600160a01b031681565b6103a261039d36600461372c565b611435565b60405161021291906139c7565b6008546001600160a01b03166102f4565b6103c8611467565b604051610212959493929190613b5e565b6103e1611654565b6040516102129190613c05565b61024e6103fc366004613c67565b611767565b6014546102f4906001600160a01b031681565b61024e610422366004613d47565b6118da565b61024e610435366004613d47565b611925565b61024e610448366004613df3565b611a1d565b610206611bad565b610206610463366004613702565b611c32565b6007546001600160a01b03166102f4565b61024e61048736600461372c565b611cc0565b6104ae61049a366004613ed0565b63bc197c8160e01b98975050505050505050565b6040516102129190613f8e565b6104ce6104c936600461372c565b611ed4565b6040516102129190613fa3565b6104e3611fb9565b60405161021291906140fe565b61024e6104fe36600461419d565b612425565b61026361247f565b61024e61051936600461372c565b6124f1565b61024e61052c36600461419d565b61281b565b61026360165481565b6102f46105483660046141bf565b612962565b6104ae61055b3660046141fb565b612ac0565b61057361056e36600461372c565b612ad3565b6040516102129190614276565b60006001600160e01b03198216630271189760e51b14806105b157506301ffc9a760e01b6001600160e01b03198316145b92915050565b60008181526002602052604090208054606091906105d490614289565b80601f016020809104026020016040519081016040528092919081815260200182805461060090614289565b801561064d5780601f106106225761010080835404028352916020019161064d565b820191906000526020600020905b81548152906001019060200180831161063057829003601f168201915b50505050509050919050565b6018541561069f5760405162461bcd60e51b815260206004820152600e60248201526d151c9858dada5b99d259081cd95d60921b60448201526064015b60405180910390fd5b6005546001600160a01b031633146106b657600080fd5b601855565b601781815481106106cb57600080fd5b600091825260209091200154905081565b601781815481106106ef576106ef6142bd565b906000526020600020015442116107185760405162461bcd60e51b8152600401610696906142d3565b60026013828154811061072d5761072d6142bd565b60009182526020909120600560069092020181015460ff16908111156107555761075561392b565b146107915760405162461bcd60e51b815260206004820152600c60248201526b139bdd081c1c9bdc1bdcd95960a21b6044820152606401610696565b6004546013805473__$3ec311f63f1cd166364ee887ad77eb9bd8$__926385c92867926001600160a01b0390911691859081106107d0576107d06142bd565b90600052602060002090600602016040518363ffffffff1660e01b81526004016107fb9291906142f7565b60006040518083038186803b15801561081357600080fd5b505af4158015610827573d6000803e3d6000fd5b5050505050565b600061083a6001612bff565b90508015610852576003805461ff0019166101001790555b60006108646040840160208501614310565b6001600160a01b0316036108ab5760405162461bcd60e51b815260206004820152600e60248201526d12d9595c195c881a5b9d985b1a5960921b6044820152606401610696565b600580546001600160a01b03199081166001600160a01b03898116919091179092556003805462010000600160b01b0319163362010000021790556004805482168884161790556014805490911691861691909117905560168390558160066109148282614b06565b90505060005b61092760a084018461434d565b905081101561098b5780601e600061094260a087018761434d565b85818110610952576109526142bd565b905060200281019061096491906145b7565b6040908101358252602082019290925201600020558061098381614c6c565b91505061091a565b506109a161099c608084018461434d565b612c88565b80156109e7576003805461ff0019169055604051600181527f7f26b83ff96e1f2b6a682f133852f6798a09c465da95921460cefb38474024989060200160405180910390a15b505050505050565b6007546001600160a01b0316331480610a135750610a13631878255960e01b611c32565b610a2f5760405162461bcd60e51b815260040161069690614c85565b60048054604051626dc0df60e21b81526001600160a01b03909116916301b7037c91610a65918991899189918991899101614ce0565b600060405180830381600087803b158015610a7f57600080fd5b505af1158015610a93573d6000803e3d6000fd5b505050505050505050565b60138181548110610aae57600080fd5b6000918252602090912060069091020180546001820154600283015460038401546005909401546001600160a01b0390931694509092909160ff1685565b6008546001600160a01b0316331480610b105750610b106331402a5760e01b611c32565b610b2c5760405162461bcd60e51b815260040161069690614d0e565b600260138281548110610b4157610b416142bd565b60009182526020909120600560069092020181015460ff1690811115610b6957610b6961392b565b1480610baf5750600360138281548110610b8557610b856142bd565b60009182526020909120600560069092020181015460ff1690811115610bad57610bad61392b565b145b610bec5760405162461bcd60e51b815260206004820152600e60248201526d10d85b9b9bdd081c995c5d595cdd60921b6044820152606401610696565b73__$3ec311f63f1cd166364ee887ad77eb9bd8$__633bdce6e660138381548110610c1957610c196142bd565b90600052602060002090600602016040518263ffffffff1660e01b8152600401610c4591815260200190565b60006040518083038186803b158015610c5d57600080fd5b505af4158015610c71573d6000803e3d6000fd5b50505050610c7e81612dc6565b50565b60006016548203610c93575030919050565b601654821015610d22576014546001600160a01b0316610cb557506000919050565b601454604051631c1bd82f60e11b8152600481018490526001600160a01b0390911690633837b05e90602401602060405180830381865afa158015610cfe573d6000803e3d6000fd5b505050506040513d601f19601f820116820180604052508101906105b19190614d37565b601654821115610d8d576015546001600160a01b0316610d4457506000919050565b601554604051631c1bd82f60e11b8152600481018490526001600160a01b0390911690633837b05e90602401602060405180830381865afa158015610cfe573d6000803e3d6000fd5b919050565b6013546000828152601d602052604090205460609114610de85760405162461bcd60e51b815260206004820152601160248201527029b637ba1034b73b30b634b2103b32b91760791b6044820152606401610696565b6000828152601d602052604090208054610e0490600190614d54565b81548110610e1457610e146142bd565b9060005260206000200180546105d490614289565b6040516336d39c6160e11b815260048101829052601d6024820152600c604482015260009073__$3ec311f63f1cd166364ee887ad77eb9bd8$__90636da738c290606401602060405180830381865af4158015610e8a573d6000803e3d6000fd5b505050506040513d601f19601f820116820180604052508101906105b19190614d6b565b60135415610f30576007546001600160a01b0316331480610ed957506014546001600160a01b031633145b80610eef5750610eef63253b91a760e11b611c32565b610f305760405162461bcd60e51b815260206004820152601260248201527113db9b1e481ad9595c195c8bdc185c995b9d60721b6044820152606401610696565b6013548114610f715760405162461bcd60e51b815260206004820152600d60248201526c092dcecc2d8d2c840d2dcc8caf609b1b6044820152606401610696565b601a5415610fb05760405162461bcd60e51b815260206004820152600c60248201526b6f7574676f696e672063627360a01b6044820152606401610696565b60195415610fef5760405162461bcd60e51b815260206004820152600c60248201526b696e636f6d696e672063627360a01b6044820152606401610696565b600480546014546013805460405163699e0add60e01b8152919473__$3ec311f63f1cd166364ee887ad77eb9bd8$__9463699e0add94611043946001600160a01b0392831694600c94939092169201614eb0565b600060405180830381865af4158015611060573d6000803e3d6000fd5b505050506040513d6000823e601f3d908101601f191682016040526110889190810190614f71565b8154600180820184556000938452602093849020835160069093020180546001600160a01b0319166001600160a01b039093169290921782558284015190820155604082015160028201556060820151600382015560808201518051929391926110f8926004850192019061358e565b5060a08201518160050160006101000a81548160ff021916908360058111156111235761112361392b565b0217905550506017805460018101825560009182527fc624b66cc0138b8fabc209247f72d758e1cf3343756d543badbf24212bed8c15015550611164612e00565b7f152ec8ae15d347b2d2a8f0858caa29bcaaa0906749a1f43e08bfe7998346024030826040516111959291906142f7565b60405180910390a16015546001600160a01b031615610c7e5760155460405163253b91a760e11b8152600481018390526001600160a01b0390911690634a77234e906024015b600060405180830381600087803b1580156111f557600080fd5b505af1158015610827573d6000803e3d6000fd5b6008546001600160a01b031633148061122d575061122d634e46f22360e01b611c32565b6112495760405162461bcd60e51b815260040161069690614d0e565b60036013828154811061125e5761125e6142bd565b60009182526020909120600560069092020181015460ff16908111156112865761128661392b565b146112a35760405162461bcd60e51b815260040161069690615075565b73__$3ec311f63f1cd166364ee887ad77eb9bd8$__6359111fb560138381548110610c1957610c196142bd565b6000805b60115481101561140b5760118054600091601d91839190859081106112fb576112fb6142bd565b9060005260206000209060020201600001548152602001908152602001600020848154811061132c5761132c6142bd565b90600052602060002001805461134190614289565b80601f016020809104026020016040519081016040528092919081815260200182805461136d90614289565b80156113ba5780601f1061138f576101008083540402835291602001916113ba565b820191906000526020600020905b81548152906001019060200180831161139d57829003601f168201915b50505050508060200190518101906113d29190614d37565b9050806001600160a01b0316856001600160a01b0316036113f8576001925050506105b1565b508061140381614c6c565b9150506112d4565b5060009392505050565b6000818152601d60205260409020805460609190610e0490600190614d54565b60006013828154811061144a5761144a6142bd565b600091825260209091206005600690920201015460ff1692915050565b600680546007546008546009546040805160e081018252600c80546001600160a01b039081168352600d54602080850191909152600e5484860152600f546060850152601080548651818402810184019097528087529983169a9883169997909216979596939492936080860193929183018282801561150657602002820191906000526020600020905b8154815260200190600101908083116114f2575b5050505050815260200160058201805480602002602001604051908101604052809291908181526020016000905b828210156115c8578382906000526020600020906002020160405180604001604052908160008201548152602001600182018054806020026020016040519081016040528092919081815260200182805480156115b057602002820191906000526020600020905b81548152602001906001019080831161159c575b50505050508152505081526020019060010190611534565b50505050815260200160068201805480602002602001604051908101604052809291908181526020016000905b8282101561164757600084815260209081902060408051606081018252600286029092018054835260019081015460ff80821685870152610100909104169183019190915290835290920191016115f5565b5050505081525050905085565b60606013805480602002602001604051908101604052809291908181526020016000905b8282101561175e5760008481526020908190206040805160c0810182526006860290920180546001600160a01b03168352600181015483850152600281015483830152600381015460608401526004810180548351818702810187019094528084529394919360808601939283018282801561171357602002820191906000526020600020905b8154815260200190600101908083116116ff575b505050918352505060058281015460209092019160ff169081111561173a5761173a61392b565b600581111561174b5761174b61392b565b8152505081526020019060010190611678565b50505050905090565b6007546001600160a01b031633148061178b575061178b6380b204b760e01b611c32565b6117a75760405162461bcd60e51b815260040161069690614c85565b600d5481146117c85760405162461bcd60e51b8152600401610696906150a7565b6001601384815481106117dd576117dd6142bd565b60009182526020909120600560069092020181015460ff16908111156118055761180561392b565b146118415760405162461bcd60e51b815260206004820152600c60248201526b139bdd08115e1958dd5d195960a21b6044820152606401610696565b73__$3ec311f63f1cd166364ee887ad77eb9bd8$__636a0a24f16013858154811061186e5761186e6142bd565b906000526020600020906006020184846040518463ffffffff1660e01b815260040161189c939291906150de565b60006040518083038186803b1580156118b457600080fd5b505af41580156118c8573d6000803e3d6000fd5b505050506118d583612dc6565b505050565b6118ea6381296f6f60e01b611c32565b6119065760405162461bcd60e51b8152600401610696906150f8565b600082815260026020908152604090912082516118d5928401906135d9565b6007546001600160a01b03163314806119495750611949638602ce1b60e01b611c32565b6119655760405162461bcd60e51b815260040161069690614c85565b6000828152601e6020526040902054600b805460039290811061198a5761198a6142bd565b600091825260209091206001600590920201015460ff1660038111156119b2576119b261392b565b146119f85760405162461bcd60e51b81526020600482015260166024820152751bdb9b1e48125b99d95cdd151e5c194b93585b9d585b60521b6044820152606401610696565b611a02828261307e565b6040516000805160206158a783398151915290600090a15050565b6008546001600160a01b0316331480611a415750611a416387dfee5760e01b611c32565b611a5d5760405162461bcd60e51b815260040161069690614d0e565b600360138381548110611a7257611a726142bd565b60009182526020909120600560069092020181015460ff1690811115611a9a57611a9a61392b565b14611ab75760405162461bcd60e51b815260040161069690615075565b60178281548110611aca57611aca6142bd565b90600052602060002001544211611af35760405162461bcd60e51b8152600401610696906142d3565b600d54815114611b155760405162461bcd60e51b8152600401610696906150a7565b6004546013805473__$3ec311f63f1cd166364ee887ad77eb9bd8$__92631b948e49926001600160a01b039091169186908110611b5457611b546142bd565b9060005260206000209060060201846040518463ffffffff1660e01b8152600401611b819392919061511f565b60006040518083038186803b158015611b9957600080fd5b505af41580156109e7573d6000803e3d6000fd5b601354604051635cc1f6b560e01b815260009173__$3ec311f63f1cd166364ee887ad77eb9bd8$__91635cc1f6b591611bec91600b919060040161517c565b602060405180830381865af4158015611c09573d6000803e3d6000fd5b505050506040513d601f19601f82011682018060405250810190611c2d9190614d6b565b905090565b3360009081526001602052604081205460ff1615611cb8576040516311247ecf60e11b81526000903390632248fd9e90611c70908690600401613f8e565b602060405180830381865afa158015611c8d573d6000803e3d6000fd5b505050506040513d601f19601f82011682018060405250810190611cb19190614d6b565b9392505050565b506000919050565b611cc8611bad565b1515600114611d0b5760405162461bcd60e51b815260206004820152600f60248201526e1a5b99d95cdd1cc81a5b9d985b1a59608a1b6044820152606401610696565b73__$3ec311f63f1cd166364ee887ad77eb9bd8$__632dd4082482600460009054906101000a90046001600160a01b031660138581548110611d4f57611d4f6142bd565b60009182526020808320601854601454600f548652601d9384905260409095208054600690950290920194600c9491926001600160a01b03909116918b908110611d9b57611d9b6142bd565b906000526020600020018054611db090614289565b80601f0160208091040260200160405190810160405280929190818152602001828054611ddc90614289565b8015611e295780601f10611dfe57610100808354040283529160200191611e29565b820191906000526020600020905b815481529060010190602001808311611e0c57829003601f168201915b5050505050806020019051810190611e419190615295565b60405160e08a901b6001600160e01b031916815260048101989098526001600160a01b03968716602489015260448801959095526064870193909352608486019190915260a485015290911660c483015260e48201526101040160006040518083038186803b158015611eb357600080fd5b505af4158015611ec7573d6000803e3d6000fd5b50505050610c7e8161311c565b6000818152601d60209081526040808320805482518185028101850190935280835260609492939192909184015b82821015611fae578382906000526020600020018054611f2190614289565b80601f0160208091040260200160405190810160405280929190818152602001828054611f4d90614289565b8015611f9a5780601f10611f6f57610100808354040283529160200191611f9a565b820191906000526020600020905b815481529060010190602001808311611f7d57829003601f168201915b505050505081526020019060010190611f02565b505050509050919050565b611fc161364c565b6040805160e081018252600680546001600160a01b0390811683526007548116602080850191909152600854909116838501526009546060840152600a80548551818402810184019096528086529394929360808601939260009084015b828210156120f8576000848152602090819020604080518082019091526002850290910180546001600160a01b03168252600181018054929391929184019161206790614289565b80601f016020809104026020016040519081016040528092919081815260200182805461209390614289565b80156120e05780601f106120b5576101008083540402835291602001916120e0565b820191906000526020600020905b8154815290600101906020018083116120c357829003601f168201915b5050505050815250508152602001906001019061201f565b50505050815260200160058201805480602002602001604051908101604052809291908181526020016000905b8282101561224057838290600052602060002090600502016040518060a0016040529081600082015481526020016001820160009054906101000a900460ff1660038111156121765761217661392b565b60038111156121875761218761392b565b815260200160028201548152602001600382015481526020016004820180546121af90614289565b80601f01602080910402602001604051908101604052809291908181526020018280546121db90614289565b80156122285780601f106121fd57610100808354040283529160200191612228565b820191906000526020600020905b81548152906001019060200180831161220b57829003601f168201915b50505050508152505081526020019060010190612125565b505050908252506040805160e0810182526006840180546001600160a01b03168252600785015460208381019190915260088601548385015260098601546060840152600a8601805485518184028101840190965280865295820195939492936080860193928301828280156122d557602002820191906000526020600020905b8154815260200190600101908083116122c1575b5050505050815260200160058201805480602002602001604051908101604052809291908181526020016000905b828210156123975783829060005260206000209060020201604051806040016040529081600082015481526020016001820180548060200260200160405190810160405280929190818152602001828054801561237f57602002820191906000526020600020905b81548152602001906001019080831161236b575b50505050508152505081526020019060010190612303565b50505050815260200160068201805480602002602001604051908101604052809291908181526020016000905b8282101561241657600084815260209081902060408051606081018252600286029092018054835260019081015460ff80821685870152610100909104169183019190915290835290920191016123c4565b50505091525050905250919050565b612435636455fb6d60e11b611c32565b6124515760405162461bcd60e51b8152600401610696906150f8565b61245c8160016143cc565b6017838154811061246f5761246f6142bd565b6000918252602090912001555050565b600c546040516370a0823160e01b81526000916001600160a01b0316906370a08231906124b0903090600401613987565b602060405180830381865afa1580156124cd573d6000803e3d6000fd5b505050506040513d601f19601f82011682018060405250810190611c2d9190615295565b600033826040516020016125069291906152ae565b60408051601f1981840301815291815281516020928301206000818152601c909352912054600b805492935061255e929091908110612547576125476142bd565b906000526020600020906005020160030154610c81565b6001600160a01b0316336001600160a01b03161461258e5760405162461bcd60e51b8152600401610696906152cb565b6000818152601c6020526040812054600b805490919081106125b2576125b26142bd565b600091825260209091206001600590920201015460ff1660038111156125da576125da61392b565b146126105760405162461bcd60e51b81526020600482015260066024820152653737ba1021b160d11b6044820152606401610696565b6000818152601c6020526040902054600b80549091908110612634576126346142bd565b60009182526020822060059091020180549161264f83614c6c565b90915550506000818152601c6020526040902054600b80546127dc9290811061267a5761267a6142bd565b906000526020600020906005020160020154336001600160a01b0316633f4fb5aa60066005016019600301600087815260200190815260200160002054815481106126c7576126c76142bd565b906000526020600020906005020160040180546126e390614289565b80601f016020809104026020016040519081016040528092919081815260200182805461270f90614289565b801561275c5780601f106127315761010080835404028352916020019161275c565b820191906000526020600020905b81548152906001019060200180831161273f57829003601f168201915b50505050508060200190518101906127749190615295565b6040518263ffffffff1660e01b815260040161279291815260200190565b600060405180830381865afa1580156127af573d6000803e3d6000fd5b505050506040513d6000823e601f3d908101601f191682016040526127d791908101906152fa565b61307e565b6000818152601c6020526040812081905560198054916127fb83615367565b90915550506040516000805160206158a783398151915290600090a15050565b60165481116128645760405162461bcd60e51b8152602060048201526015602482015274736f6c766572206e6f7420646f776e73747265616d60581b6044820152606401610696565b61286d81610c81565b6001600160a01b0316336001600160a01b03161461289d5760405162461bcd60e51b8152600401610696906152cb565b6000828152601d6020526040902054158015906128c957506013546000838152601d6020526040902054145b1561291b5760405163de3a23c560e01b815260048101839052339063de3a23c590602401600060405180830381600087803b15801561290757600080fd5b505af11580156109e7573d6000803e3d6000fd5b6000828152601b60209081526040822080546001810182559083529082200180546001600160a01b03191633179055601a80549161295883614c6c565b91905055505b5050565b6007546000906001600160a01b03163314806129895750612989631da4ba2f60e31b611c32565b6129c35760405162461bcd60e51b815260206004820152600b60248201526a27b7363c9035b2b2b832b960a91b6044820152606401610696565b6015546001600160a01b031615612a085760405162461bcd60e51b815260206004820152600960248201526812185cc818da1a5b1960ba1b6044820152606401610696565b6003546016546018546040516386a2d22760e01b815273__$3ec311f63f1cd166364ee887ad77eb9bd8$__936386a2d22793612a5a93620100009092046001600160a01b03169288929060040161573c565b602060405180830381865af4158015612a77573d6000803e3d6000fd5b505050506040513d601f19601f82011682018060405250810190612a9b9190614d37565b601580546001600160a01b0319166001600160a01b0392909216918217905592915050565b63f23a6e6160e01b5b9695505050505050565b612b086040805160c081018252600080825260208201819052918101829052606080820183905260808201529060a082015290565b60138281548110612b1b57612b1b6142bd565b60009182526020918290206040805160c081018252600690930290910180546001600160a01b031683526001810154838501526002810154838301526003810154606084015260048101805483518187028101870190945280845293949193608086019392830182828015612baf57602002820191906000526020600020905b815481526020019060010190808311612b9b575b505050918352505060058281015460209092019160ff1690811115612bd657612bd661392b565b6005811115612be757612be761392b565b90525092915050565b6001600160a01b03163b151590565b600354600090610100900460ff1615612c47578160ff166001148015612c2b5750612c2930612bf0565b155b611cb85760405162461bcd60e51b81526004016106969061582c565b60035460ff808416911610612c6e5760405162461bcd60e51b81526004016106969061582c565b506003805460ff191660ff92909216919091179055600190565b60005b818110156118d5576001806000858585818110612caa57612caa6142bd565b9050602002810190612cbc9190614396565b612cca906020810190614310565b6001600160a01b031681526020810191909152604001600020805460ff1916911515919091179055828282818110612d0457612d046142bd565b9050602002810190612d169190614396565b612d24906020810190614310565b6001600160a01b0316633cef64cc848484818110612d4457612d446142bd565b9050602002810190612d569190614396565b612d64906020810190614453565b6040518363ffffffff1660e01b8152600401612d8192919061587a565b600060405180830381600087803b158015612d9b57600080fd5b505af1158015612daf573d6000803e3d6000fd5b505050508080612dbe90614c6c565b915050612c8b565b600954612dd49060016143cc565b612dde904261588e565b60178281548110612df157612df16142bd565b60009182526020909120015550565b60005b600b54811015613064576000600b805483908110612e2357612e236142bd565b600091825260209091206001600590920201015460ff166003811115612e4b57612e4b61392b565b14612e8157612e7c60066005018281548110612e6957612e696142bd565b9060005260206000209060050201613252565b613052565b6000306001600160a01b0316633837b05e60066005018481548110612ea857612ea86142bd565b9060005260206000209060050201600301546040518263ffffffff1660e01b8152600401612ed891815260200190565b602060405180830381865afa158015612ef5573d6000803e3d6000fd5b505050506040513d601f19601f82011682018060405250810190612f199190614d37565b9050612f25818361333e565b806001600160a01b031663df33cc5160066005018481548110612f4a57612f4a6142bd565b90600052602060002090600502016004018054612f6690614289565b80601f0160208091040260200160405190810160405280929190818152602001828054612f9290614289565b8015612fdf5780601f10612fb457610100808354040283529160200191612fdf565b820191906000526020600020905b815481529060010190602001808311612fc257829003601f168201915b5050505050806020019051810190612ff79190615295565b6016546040516001600160e01b031960e085901b16815260048101929092526024820152604401600060405180830381600087803b15801561303857600080fd5b505af115801561304c573d6000803e3d6000fd5b50505050505b8061305c81614c6c565b915050612e03565b506040516000805160206158a783398151915290600090a1565b60135461308d90600190614d54565b6000838152601d6020526040902054146130e05760405162461bcd60e51b815260206004820152601460248201527314db1bdd081d995c9cda5bdb881a5b9d985b1a5960621b6044820152606401610696565b6000828152601d60209081526040822080546001810182559083529181902083516131129391909101918401906135d9565b5061295e82613454565b6015546001600160a01b0316158015906131a85750601560009054906101000a90046001600160a01b03166001600160a01b031663999925066040518163ffffffff1660e01b8152600401602060405180830381865afa158015613184573d6000803e3d6000fd5b505050506040513d601f19601f820116820180604052508101906131a89190614d6b565b801561321c57506015546040516344c3b60760e01b8152600481018390526001600160a01b03909116906344c3b60790602401602060405180830381865afa1580156131f8573d6000803e3d6000fd5b505050506040513d601f19601f8201168201806040525081019061321c9190614d6b565b15610c7e5760155460405163b992db0f60e01b8152600481018390526001600160a01b039091169063b992db0f906024016111db565b600181015460039060ff168181111561326d5761326d61392b565b11156132b05760405162461bcd60e51b8152602060048201526012602482015271496e76616c696420696e676573745479706560701b6044820152606401610696565b80548160006132be83614c6c565b9091555060039050600182015460ff1660038111156132df576132df61392b565b14610c7e57600281015460405163b3d7370760e01b815260048101839052610c7e919073__$3ec311f63f1cd166364ee887ad77eb9bd8$__9063b3d7370790602401600060405180830381865af41580156127af573d6000803e3d6000fd5b8060196003016000846006600501858154811061335d5761335d6142bd565b9060005260206000209060050201600401805461337990614289565b80601f01602080910402602001604051908101604052809291908181526020018280546133a590614289565b80156133f25780601f106133c7576101008083540402835291602001916133f2565b820191906000526020600020905b8154815290600101906020018083116133d557829003601f168201915b505050505080602001905181019061340a9190615295565b60405160200161341b9291906152ae565b60408051601f19818403018152918152815160209283012083529082019290925201600090812091909155601980549161295883614c6c565b60005b6000828152601b602052604090205481101561295e576000828152601b6020526040812080548390811061348d5761348d6142bd565b6000918252602090912001546001600160a01b03161461357c576000828152601b602052604090208054829081106134c7576134c76142bd565b60009182526020909120015460405163de3a23c560e01b8152600481018490526001600160a01b039091169063de3a23c590602401600060405180830381600087803b15801561351657600080fd5b505af115801561352a573d6000803e3d6000fd5b5050506000838152601b60205260409020805490915082908110613550576135506142bd565b6000918252602082200180546001600160a01b0319169055601a80549161357683615367565b91905055505b8061358681614c6c565b915050613457565b8280548282559060005260206000209081019282156135c9579160200282015b828111156135c95782518255916020019190600101906135ae565b506135d59291506136ed565b5090565b8280546135e590614289565b90600052602060002090601f01602090048101928261360757600085556135c9565b82601f1061362057805160ff19168380011785556135c9565b828001600101855582156135c957918201828111156135c95782518255916020019190600101906135ae565b6040518060e0016040528060006001600160a01b0316815260200160006001600160a01b0316815260200160006001600160a01b031681526020016000815260200160608152602001606081526020016136e86040518060e0016040528060006001600160a01b031681526020016000815260200160008152602001600080191681526020016060815260200160608152602001606081525090565b905290565b5b808211156135d557600081556001016136ee565b60006020828403121561371457600080fd5b81356001600160e01b031981168114611cb157600080fd5b60006020828403121561373e57600080fd5b5035919050565b60005b83811015613760578181015183820152602001613748565b8381111561376f576000848401525b50505050565b6000815180845261378d816020860160208601613745565b601f01601f19169290920160200192915050565b602081526000611cb16020830184613775565b6001600160a01b0381168114610c7e57600080fd5b8035610d8d816137b4565b600060e082840312156137e657600080fd5b50919050565b600080600080600060a0868803121561380457600080fd5b853561380f816137b4565b9450602086013561381f816137b4565b9350604086013561382f816137b4565b92506060860135915060808601356001600160401b0381111561385157600080fd5b61385d888289016137d4565b9150509295509295909350565b60008083601f84011261387c57600080fd5b5081356001600160401b0381111561389357600080fd5b6020830191508360208260051b85010111156138ae57600080fd5b9250929050565b6000806000806000608086880312156138cd57600080fd5b85356138d8816137b4565b9450602086013593506040860135925060608601356001600160401b0381111561390157600080fd5b61390d8882890161386a565b969995985093965092949392505050565b6001600160a01b03169052565b634e487b7160e01b600052602160045260246000fd5b600681106139515761395161392b565b9052565b6001600160a01b038616815260208101859052604081018490526060810183905260a08101612ac96080830184613941565b6001600160a01b0391909116815260200190565b600080604083850312156139ae57600080fd5b82356139b9816137b4565b946020939093013593505050565b602081016105b18284613941565b600081518084526020808501945080840160005b83811015613a05578151875295820195908201906001016139e9565b509495945050505050565b600081518084526020808501945080840160005b83811015613a05578151805188528381015160ff908116858a0152604091820151169088015260609096019590820190600101613a24565b60018060a01b0381511682526000602080830151818501526040808401518186015260608085015181870152608085015160e06080880152613aa160e08801826139d5565b905060a086015187820360a08901528181518084528684019150868160051b85010187840193506000805b83811015613b3457868303601f190185528551805184528a01518a84018a905280518a8501819052908b019083908a8601905b80831015613b1f5783518252928d019260019290920191908d0190613aff565b50978c0197968c019694505050600101613acc565b505060c08a015197508a810360c08c0152613b4f8189613a10565b9b9a5050505050505050505050565b6001600160a01b0386811682528581166020830152841660408201526060810183905260a060808201819052600090613b9990830184613a5c565b979650505050505050565b60018060a01b0381511682526020810151602083015260408101516040830152606081015160608301526000608082015160c06080850152613be960c08501826139d5565b905060a0830151613bfd60a0860182613941565b509392505050565b6000602080830181845280855180835260408601915060408160051b870101925083870160005b82811015613c5a57603f19888603018452613c48858351613ba4565b94509285019290850190600101613c2c565b5092979650505050505050565b600080600060408486031215613c7c57600080fd5b8335925060208401356001600160401b03811115613c9957600080fd5b613ca58682870161386a565b9497909650939450505050565b634e487b7160e01b600052604160045260246000fd5b60405160c081016001600160401b0381118282101715613cea57613cea613cb2565b60405290565b604051601f8201601f191681016001600160401b0381118282101715613d1857613d18613cb2565b604052919050565b60006001600160401b03821115613d3957613d39613cb2565b50601f01601f191660200190565b60008060408385031215613d5a57600080fd5b8235915060208301356001600160401b03811115613d7757600080fd5b8301601f81018513613d8857600080fd5b8035613d9b613d9682613d20565b613cf0565b818152866020838501011115613db057600080fd5b816020840160208301376000602083830101528093505050509250929050565b60006001600160401b03821115613de957613de9613cb2565b5060051b60200190565b60008060408385031215613e0657600080fd5b823591506020808401356001600160401b03811115613e2457600080fd5b8401601f81018613613e3557600080fd5b8035613e43613d9682613dd0565b81815260059190911b82018301908381019088831115613e6257600080fd5b928401925b82841015613e8057833582529284019290840190613e67565b80955050505050509250929050565b60008083601f840112613ea157600080fd5b5081356001600160401b03811115613eb857600080fd5b6020830191508360208285010111156138ae57600080fd5b60008060008060008060008060a0898b031215613eec57600080fd5b8835613ef7816137b4565b97506020890135613f07816137b4565b965060408901356001600160401b0380821115613f2357600080fd5b613f2f8c838d0161386a565b909850965060608b0135915080821115613f4857600080fd5b613f548c838d0161386a565b909650945060808b0135915080821115613f6d57600080fd5b50613f7a8b828c01613e8f565b999c989b5096995094979396929594505050565b6001600160e01b031991909116815260200190565b6000602080830181845280855180835260408601915060408160051b870101925083870160005b82811015613c5a57603f19888603018452613fe6858351613775565b94509285019290850190600101613fca565b600081518084526020808501808196508360051b8101915082860160005b8581101561405d578284038952815180516001600160a01b03168552850151604086860181905261404981870183613775565b9a87019a9550505090840190600101614016565b5091979650505050505050565b600481106139515761395161392b565b600081518084526020808501808196508360051b8101915082860160005b8581101561405d578284038952815160a081518652868201516140bd8888018261406a565b5060408281015190870152606080830151908701526080918201519186018190526140ea81870183613775565b9a87019a9550505090840190600101614098565b60208152600060018060a01b03808451166020840152806020850151166040840152506040830151614133606084018261391e565b5060608301516080830152608083015160e060a0840152614158610100840182613ff8565b905060a0840151601f19808584030160c0860152614176838361407a565b925060c08601519150808584030160e0860152506141948282613a5c565b95945050505050565b600080604083850312156141b057600080fd5b50508035926020909101359150565b6000602082840312156141d157600080fd5b81356001600160401b038111156141e757600080fd5b6141f3848285016137d4565b949350505050565b60008060008060008060a0878903121561421457600080fd5b863561421f816137b4565b9550602087013561422f816137b4565b9450604087013593506060870135925060808701356001600160401b0381111561425857600080fd5b61426489828a01613e8f565b979a9699509497509295939492505050565b602081526000611cb16020830184613ba4565b600181811c9082168061429d57607f821691505b6020821081036137e657634e487b7160e01b600052602260045260246000fd5b634e487b7160e01b600052603260045260246000fd5b6020808252600a9082015269151a5b595b1bd8dad95960b21b604082015260600190565b6001600160a01b03929092168252602082015260400190565b60006020828403121561432257600080fd5b8135611cb1816137b4565b80546001600160a01b0319166001600160a01b0392909216919091179055565b6000808335601e1984360301811261436457600080fd5b8301803591506001600160401b0382111561437e57600080fd5b6020019150600581901b36038213156138ae57600080fd5b60008235603e198336030181126143ac57600080fd5b9190910192915050565b634e487b7160e01b600052601160045260246000fd5b60008160001904831182151516156143e6576143e66143b6565b500290565b5b8181101561295e57600081556001016143ec565b61440a8154614289565b801561295e57601f81116001811461442457505060009055565b826000526020600020614442601f840160051c8201600183016143eb565b506020600090812081855555505050565b6000808335601e1984360301811261446a57600080fd5b8301803591506001600160401b0382111561448457600080fd5b6020019150368190038213156138ae57600080fd5b601f8211156118d557806000526020600020601f840160051c810160208510156144c05750805b610827601f850160051c8301826143eb565b81356144dd816137b4565b6144e7818361432d565b50600180820160206144fb81860186614453565b6001600160401b0381111561451257614512613cb2565b614526816145208654614289565b86614499565b6000601f82116001811461455a57600083156145425750838201355b600019600385901b1c1916600184901b178655610a93565b600086815260209020601f19841690835b82811015614588578685013582559387019390890190870161456b565b50848210156145a55760001960f88660031b161c19848701351681555b50505050841b90930190915550505050565b60008235609e198336030181126143ac57600080fd5b60048110610c7e57600080fd5b8135815560018082016020808501356145f2816145cd565b600481106146025761460261392b565b60ff1983541660ff821681178455505060408501356002850155606085013560038501556004840191506144fb6080860186614453565b600160401b83111561464d5761464d613cb2565b8054838255808410156146f1577f3333333333333333333333333333333333333333333333333333333333333333600181831181161561468f5761468f6143b6565b60058287118216156146a3576146a36143b6565b600085815260208120909350878202810190828602015b808210156146eb5784825584848301558460028301558460038301556146e260048301614400565b908201906146ba565b50505050505b5060008181526020812083915b858110156109e75761471961471384876145b7565b836145da565b60209290920191600591909101906001016146fe565b6000823560de198336030181126143ac57600080fd5b8054600080835581156118d557828152602081208281015b808210156108275782825560018201915061475d565b813581556001808201602061478a8186018661434d565b600160401b81111561479e5761479e613cb2565b8354818555808210156147d25760008581528481208381019083015b808210156147ce57828255908801906147ba565b5050505b506000938452828420935b818110156147f85782358555938501939183019185016147dd565b5050505050505050565b600160401b83111561481657614816613cb2565b80548382558084101561488e576001600160ff1b03600181831181161561483f5761483f6143b6565b818611811615614851576148516143b6565b60008481526020812090925086821b81019084831b015b808210156148895783825561487e838301614745565b600282019150614868565b505050505b5060008181526020812083915b858110156109e7576148b66148b08487614396565b83614773565b602092909201916002919091019060010161489b565b6000808335601e198436030181126148e357600080fd5b8301803591506001600160401b038211156148fd57600080fd5b60200191506060810236038213156138ae57600080fd5b60ff81168114610c7e57600080fd5b8135815560018101602083013561493981614914565b8154604085013561494981614914565b61ff008160081b1660ff841661ffff19841617178455505050505050565b600160401b83111561497b5761497b613cb2565b8054838255808410156149ed576001600160ff1b0360018183118116156149a4576149a46143b6565b8186118116156149b6576149b66143b6565b60008481526020812090925086821b81019084831b015b808210156149e85783825583838301556002820191506149cd565b505050505b5060008181526020812083915b858110156109e757614a0c8383614923565b60609290920191600291909101906001016149fa565b8135614a2d816137b4565b614a37818361432d565b50600160208084013582840155604084013560028401556060840135600384015560048301614a69608086018661434d565b600160401b811115614a7d57614a7d613cb2565b825481845580821015614aa2578360005284600020614aa08282018483016143eb565b505b506000928352838320925b81811015614ac8578235845592850192918401918501614aad565b505050505050614adb60a083018361434d565b614ae9818360058601614802565b5050614af860c08301836148cc565b61376f818360068601614967565b8135614b11816137b4565b614b1b818361432d565b506001602080840135614b2d816137b4565b614b398184860161432d565b5060026040850135614b4a816137b4565b614b568183870161432d565b506060850135600385015560048401614b72608087018761434d565b600160401b811115614b8657614b86613cb2565b825481845580821015614bf6576001600160ff1b03808211881615614bad57614bad6143b6565b808311881615614bbf57614bbf6143b6565b50600084815286812083891b810190838a1b015b80821015614bf257828255614be98a8301614400565b90870190614bd3565b5050505b506000928352602083209282905b82811015614c2e57614c1f614c198386614396565b866144d2565b93850193908601908701614c04565b5050505050505050614c4360a083018361434d565b614c51818360058601614639565b505061295e614c6360c084018461472f565b60068301614a22565b600060018201614c7e57614c7e6143b6565b5060010190565b6020808252600b908201526a27b7363c9025b2b2b832b960a91b604082015260600190565b81835260006001600160fb1b03831115614cc357600080fd5b8260051b8083602087013760009401602001938452509192915050565b60018060a01b0386168152846020820152836040820152608060608201526000613b99608083018486614caa565b6020808252600f908201526e27b7363c9030b93134ba3930ba37b960891b604082015260600190565b600060208284031215614d4957600080fd5b8151611cb1816137b4565b600082821015614d6657614d666143b6565b500390565b600060208284031215614d7d57600080fd5b81518015158114611cb157600080fd5b6000815480845260208085019450836000528060002060005b83811015613a0557815487529582019560019182019101614da6565b600081548084526020808501808196508360051b810191506000868152838120815b86811015614e50578385038a52815485526040868601819052600180840180549288018390528552878520606088019290919086905b80821015614e375783548552938a01939282019290820190614e1a565b5050509a87019a50945060029190910190600101614de4565b509298975050505050505050565b6000815480845260208085019450836000528060002060005b83811015613a05578154875260018083015460ff808216868b015260089190911c16604089015260609097019660029092019101614e77565b600060018060a01b03808716835260806020840152614ed5608084018288541661391e565b50600185015460a0830152600285015460c0830152600385015460e083015260e0610100830152614f0d610160830160048701614d8d565b607f198084830301610120850152614f288260058901614dc2565b9150808483030161014085015250614f438160068801614e5e565b915050614f53604083018561391e565b82606083015295945050505050565b805160068110610d8d57600080fd5b60006020808385031215614f8457600080fd5b82516001600160401b0380821115614f9b57600080fd5b9084019060c08287031215614faf57600080fd5b614fb7613cc8565b8251614fc2816137b4565b8082525083830151848201526040830151604082015260608301516060820152608083015182811115614ff457600080fd5b83019150601f8201871361500757600080fd5b8151615015613d9682613dd0565b81815260059190911b8301850190858101908983111561503457600080fd5b938601935b8285101561505257845182529386019390860190615039565b608084015250615066905060a08401614f62565b60a08201529695505050505050565b602080825260189082015277139bdd08105c989a5d1c985d1a5bdb94995c5d595cdd195960421b604082015260600190565b6020808252601e908201527f6c656e677468206d757374206d61746368206f7574636f6d65536c6f74730000604082015260600190565b838152604060208201526000614194604083018486614caa565b6020808252600d908201526c139bdd081c195c9b5a5d1d1959609a1b604082015260600190565b6001600160a01b038416815260208082018490526060604083018190528351908301819052600091848101916080850190845b8181101561516e57845183529383019391830191600101615152565b509098975050505050505050565b6000604082016040835280855480835260608501915060608160051b8601019250600087815260208120815b8381101561528057878603605f1901855281548652600182015460ff166151d2602088018261406a565b5060028201546040870152600382015460608701526004820160a060808801528381546151fe81614289565b8060a08b0152600182166000811461521d576001811461523257615263565b60ff19831660c08c015260e08b019350615263565b84885260208820885b8381101561525a5781548d820160c0015260019091019060200161523b565b8c0160c0019450505b5091985050506020959095019450600591909101906001016151a8565b50505050506020929092019290925292915050565b6000602082840312156152a757600080fd5b5051919050565b60609290921b6001600160601b0319168252601482015260340190565b60208082526015908201527436b9b39739b2b73232b9103737ba1039b7b63b32b960591b604082015260600190565b60006020828403121561530c57600080fd5b81516001600160401b0381111561532257600080fd5b8201601f8101841361533357600080fd5b8051615341613d9682613d20565b81815285602083850101111561535657600080fd5b614194826020830160208601613745565b600081615376576153766143b6565b506000190190565b6000808335601e1984360301811261539557600080fd5b83016020810192503590506001600160401b038111156153b457600080fd5b8060051b36038313156138ae57600080fd5b6000808335601e198436030181126153dd57600080fd5b83016020810192503590506001600160401b038111156153fc57600080fd5b8036038313156138ae57600080fd5b81835281816020850137506000828201602090810191909152601f909101601f19169091010190565b60008235603e1983360301811261544a57600080fd5b90910192915050565b81835260006020808501808196508560051b810191508460005b8781101561405d5782840389526154848288615434565b60408135615491816137b4565b6001600160a01b031686526154a8828801836153c6565b925081888801526154bc828801848361540b565b9b88019b96505050918501915060010161546d565b81835260006020808501808196508560051b81019150846000805b88811015614e50578385038a528235609e1989360301811261550c578283fd5b88018035865260a087820135615521816145cd565b61552d8989018261406a565b5060408281013590880152606080830135908801526080615550818401846153c6565b935082828a0152615564838a01858361540b565b9d8a019d985050509387019350506001016154ec565b6000823560de1983360301811261544a57600080fd5b6000808335601e198436030181126155a757600080fd5b83016020810192503590506001600160401b038111156155c657600080fd5b6060810236038313156138ae57600080fd5b8183526000602080850194508260005b85811015613a0557813587528282013561560181614914565b60ff908116888501526040908382013561561a81614914565b169088015260609687019691909101906001016155e8565b6000813561563f816137b4565b6001600160a01b03168352602082810135818501526040808401358186015260608085013590860152615675608085018561537e565b60e0608088015261568a60e088018284614caa565b91505061569a60a086018661537e565b87830360a0890152808352848301600582901b840186018360005b8481101561570857868303601f190184526156d08287615434565b803584526156e08a82018261537e565b9150898b8601526156f48a86018383614caa565b958b019594505050908801906001016156b5565b505061571760c08a018a615590565b9750955089810360c08b015261572e8188886155d8565b9a9950505050505050505050565b6001600160a01b03858116825260806020830152600090853561575e816137b4565b166080830152615770602086016137c9565b61577d60a084018261391e565b5061578a604086016137c9565b61579760c084018261391e565b50606085013560e08301526157af608086018661537e565b60e06101008501526157c661016085018284615453565b9150506157d660a087018761537e565b607f1980868503016101208701526157ef8483856154d1565b93506157fe60c08a018a61557a565b9250808685030161014087015250506158178282615632565b60408501969096525050506060015292915050565b6020808252602e908201527f496e697469616c697a61626c653a20636f6e747261637420697320616c72656160408201526d191e481a5b9a5d1a585b1a5e995960921b606082015260800190565b6020815260006141f360208301848661540b565b600082198211156158a1576158a16143b6565b50019056fe71bd81ebe1d98a2944767394e76a9aff18724b2cf04e1db71254f804544b35c7a2646970667358221220708ecf0e97f00de739235bc035d09427699c70dd53bf9a330fc7942f088e29db64736f6c634300080d0033",
  "linkReferences": {
    "contracts/solvers/SolverLib.sol": {
      "SolverLib": [
        {
          "length": 20,
          "start": 2279
        },
        {
          "length": 20,
          "start": 3387
        },
        {
          "length": 20,
          "start": 3997
        },
        {
          "length": 20,
          "start": 4440
        },
        {
          "length": 20,
          "start": 5106
        },
        {
          "length": 20,
          "start": 6544
        },
        {
          "length": 20,
          "start": 7275
        },
        {
          "length": 20,
          "start": 7439
        },
        {
          "length": 20,
          "start": 7770
        },
        {
          "length": 20,
          "start": 11117
        },
        {
          "length": 20,
          "start": 13393
        }
      ]
    }
  },
  "deployedLinkReferences": {
    "contracts/solvers/SolverLib.sol": {
      "SolverLib": [
        {
          "length": 20,
          "start": 1946
        },
        {
          "length": 20,
          "start": 3054
        },
        {
          "length": 20,
          "start": 3664
        },
        {
          "length": 20,
          "start": 4107
        },
        {
          "length": 20,
          "start": 4773
        },
        {
          "length": 20,
          "start": 6211
        },
        {
          "length": 20,
          "start": 6942
        },
        {
          "length": 20,
          "start": 7106
        },
        {
          "length": 20,
          "start": 7437
        },
        {
          "length": 20,
          "start": 10784
        },
        {
          "length": 20,
          "start": 13060
        }
      ]
    }
  }
}