{
  "_format": "hh-sol-artifact-1",
  "contractName": "RepeatableProposal",
  "sourceName": "contracts/modules/RepeatableProposal.sol",
  "abi": [
    {
      "inputs": [
        {
          "internalType": "contract IProposalsHub",
          "name": "proposalsHub_",
          "type": "address"
        }
      ],
      "stateMutability": "nonpayable",
      "type": "constructor"
    },
    {
      "anonymous": false,
      "inputs": [
        {
          "indexed": true,
          "internalType": "address",
          "name": "solver",
          "type": "address"
        },
        {
          "indexed": true,
          "internalType": "bytes32",
          "name": "trackingId",
          "type": "bytes32"
        },
        {
          "indexed": false,
          "internalType": "uint256",
          "name": "amount",
          "type": "uint256"
        },
        {
          "indexed": false,
          "internalType": "address",
          "name": "to",
          "type": "address"
        }
      ],
      "name": "DefundedRepeater",
      "type": "event"
    },
    {
      "anonymous": false,
      "inputs": [
        {
          "indexed": true,
          "internalType": "address",
          "name": "solver",
          "type": "address"
        },
        {
          "indexed": true,
          "internalType": "bytes32",
          "name": "trackingId",
          "type": "bytes32"
        },
        {
          "indexed": false,
          "internalType": "uint256",
          "name": "amount",
          "type": "uint256"
        },
        {
          "indexed": false,
          "internalType": "address",
          "name": "from",
          "type": "address"
        }
      ],
      "name": "FundedRepeater",
      "type": "event"
    },
    {
      "anonymous": false,
      "inputs": [
        {
          "indexed": true,
          "internalType": "address",
          "name": "module",
          "type": "address"
        },
        {
          "indexed": true,
          "internalType": "address",
          "name": "solver",
          "type": "address"
        }
      ],
      "name": "LoadedModule",
      "type": "event"
    },
    {
      "anonymous": false,
      "inputs": [
        {
          "indexed": true,
          "internalType": "address",
          "name": "solver",
          "type": "address"
        },
        {
          "indexed": true,
          "internalType": "bytes32",
          "name": "trackingId",
          "type": "bytes32"
        },
        {
          "indexed": false,
          "internalType": "uint256",
          "name": "conditionIndex",
          "type": "uint256"
        }
      ],
      "name": "Repeated",
      "type": "event"
    },
    {
      "inputs": [
        {
          "internalType": "contract ISolver",
          "name": "solver",
          "type": "address"
        },
        {
          "internalType": "uint256",
          "name": "amount",
          "type": "uint256"
        }
      ],
      "name": "defund",
      "outputs": [],
      "stateMutability": "nonpayable",
      "type": "function"
    },
    {
      "inputs": [
        {
          "internalType": "contract ISolver",
          "name": "solver",
          "type": "address"
        }
      ],
      "name": "disable",
      "outputs": [],
      "stateMutability": "nonpayable",
      "type": "function"
    },
    {
      "inputs": [
        {
          "internalType": "contract ISolver",
          "name": "solver",
          "type": "address"
        }
      ],
      "name": "enable",
      "outputs": [],
      "stateMutability": "nonpayable",
      "type": "function"
    },
    {
      "inputs": [],
      "name": "fetchPermits",
      "outputs": [
        {
          "internalType": "bytes4[]",
          "name": "",
          "type": "bytes4[]"
        }
      ],
      "stateMutability": "view",
      "type": "function"
    },
    {
      "inputs": [
        {
          "internalType": "contract ISolver",
          "name": "solver",
          "type": "address"
        },
        {
          "internalType": "uint256",
          "name": "amount",
          "type": "uint256"
        }
      ],
      "name": "fund",
      "outputs": [],
      "stateMutability": "nonpayable",
      "type": "function"
    },
    {
      "inputs": [
        {
          "internalType": "address",
          "name": "solver",
          "type": "address"
        }
      ],
      "name": "getFunding",
      "outputs": [
        {
          "internalType": "uint256",
          "name": "sum",
          "type": "uint256"
        }
      ],
      "stateMutability": "view",
      "type": "function"
    },
    {
      "inputs": [
        {
          "internalType": "address",
          "name": "solver",
          "type": "address"
        },
        {
          "internalType": "address",
          "name": "account",
          "type": "address"
        }
      ],
      "name": "getFundingFrom",
      "outputs": [
        {
          "internalType": "uint256",
          "name": "sum",
          "type": "uint256"
        }
      ],
      "stateMutability": "view",
      "type": "function"
    },
    {
      "inputs": [
        {
          "internalType": "bytes4",
          "name": "selector",
          "type": "bytes4"
        }
      ],
      "name": "isPermitted",
      "outputs": [
        {
          "internalType": "bool",
          "name": "",
          "type": "bool"
        }
      ],
      "stateMutability": "view",
      "type": "function"
    },
    {
      "inputs": [
        {
          "internalType": "bytes",
          "name": "data",
          "type": "bytes"
        }
      ],
      "name": "load",
      "outputs": [],
      "stateMutability": "nonpayable",
      "type": "function"
    },
    {
      "inputs": [],
      "name": "proposalsHub",
      "outputs": [
        {
          "internalType": "contract IProposalsHub",
          "name": "",
          "type": "address"
        }
      ],
      "stateMutability": "view",
      "type": "function"
    },
    {
      "inputs": [
        {
          "internalType": "contract ISolver",
          "name": "solver",
          "type": "address"
        }
      ],
      "name": "repeat",
      "outputs": [],
      "stateMutability": "nonpayable",
      "type": "function"
    },
    {
      "inputs": [
        {
          "internalType": "address",
          "name": "",
          "type": "address"
        }
      ],
      "name": "repeaters",
      "outputs": [
        {
          "internalType": "bool",
          "name": "enabled",
          "type": "bool"
        }
      ],
      "stateMutability": "view",
      "type": "function"
    },
    {
      "inputs": [
        {
          "internalType": "bytes4",
          "name": "interfaceId",
          "type": "bytes4"
        }
      ],
      "name": "supportsInterface",
      "outputs": [
        {
          "internalType": "bool",
          "name": "",
          "type": "bool"
        }
      ],
      "stateMutability": "view",
      "type": "function"
    }
  ],
  "bytecode": "0x3060e0908152602060c0819052610100604052902060805234801561002357600080fd5b50604051611df2380380611df2833981016040819052610042916100df565b600080546001818101835582805260088083047f290decd9548b62a8d60345a988386fc84ba6bc95484008f6362f93160ef3e563908101805460046007968716810261010090810a6381296f6f810263ffffffff91820219909416939093179093556001600160a01b0390981660a05286549485019096559183040180549290931690940290930a634a77234e810292021990921617905561010f565b6000602082840312156100f157600080fd5b81516001600160a01b038116811461010857600080fd5b9392505050565b60805160a051611cac6101466000396000818161012f015281816104d101528181610ac80152610ece015260005050611cac6000f3fe608060405234801561001057600080fd5b50600436106100af5760003560e01c806301ffc9a7146100b45780632248fd9e146100dc5780633cef64cc146100ef5780635bfa1b68146101045780637b1837de14610117578063a2b14e6f1461012a578063ad0a4f321461015e578063b3c6326b1461017f578063c8bca7ba14610192578063c8bfee2e146101b5578063e1979ef4146101c8578063e312d025146101dd578063e6c09edf146101f0575b600080fd5b6100c76100c236600461157e565b610203565b60405190151581526020015b60405180910390f35b6100c76100ea36600461157e565b61023a565b6101026100fd366004611667565b6102bc565b005b6101026101123660046116fe565b610307565b61010261012536600461171b565b6103c9565b6101517f000000000000000000000000000000000000000000000000000000000000000081565b6040516100d39190611747565b61017161016c3660046116fe565b6107ed565b6040519081526020016100d3565b61010261018d36600461171b565b610873565b6100c76101a03660046116fe565b60016020526000908152604090205460ff1681565b6101026101c33660046116fe565b610d79565b6101d0611383565b6040516100d3919061175b565b6101716101eb3660046117a9565b611408565b6101026101fe3660046116fe565b6114cb565b60006001600160e01b0319821663fecfce0160e01b148061023457506001600160e01b031982166301ffc9a760e01b145b92915050565b6000805b6000548110156102b357826001600160e01b03191660008281548110610266576102666117e2565b90600052602060002090600891828204019190066004029054906101000a900460e01b6001600160e01b031916036102a15750600192915050565b806102ab8161180e565b91505061023e565b50600092915050565b336000818152600160208190526040808320805460ff191690921782555190929130917f5bd541bf918ba603897a3903b1092b774c2e889c3d883bd57202244669be124e9190a35050565b806001600160a01b031663aced16616040518163ffffffff1660e01b8152600401602060405180830381865afa158015610345573d6000803e3d6000fd5b505050506040513d601f19601f820116820180604052508101906103699190611837565b6001600160a01b0316336001600160a01b0316146103a25760405162461bcd60e51b815260040161039990611854565b60405180910390fd5b6001600160a01b03166000908152600160208190526040909120805460ff19169091179055565b6001600160a01b0382166000908152600160205260409020805460ff166104025760405162461bcd60e51b815260040161039990611879565b600082116104475760405162461bcd60e51b81526020600482015260126024820152710416d6f756e74206d757374206265203e20360741b6044820152606401610399565b6000836001600160a01b03166348cbb2fc6040518163ffffffff1660e01b81526004016020604051808303816000875af1158015610489573d6000803e3d6000fd5b505050506040513d601f19601f820116820180604052508101906104ad919061189b565b60405163430694cf60e01b8152600481018290529091506000906001600160a01b037f0000000000000000000000000000000000000000000000000000000000000000169063430694cf90602401600060405180830381865afa158015610518573d6000803e3d6000fd5b505050506040513d6000823e601f3d908101601f191682016040526105409190810190611933565b60208101516040516370a0823160e01b8152919250906000906001600160a01b038316906370a0823190610578903090600401611747565b602060405180830381865afa158015610595573d6000803e3d6000fd5b505050506040513d601f19601f820116820180604052508101906105b9919061189b565b6040516323b872dd60e01b8152336004820152306024820152604481018890529091506001600160a01b038316906323b872dd906064016020604051808303816000875af115801561060f573d6000803e3d6000fd5b505050506040513d601f19601f820116820180604052508101906106339190611a10565b61068a5760405162461bcd60e51b815260206004820152602260248201527f436f756c64206e6f74207472616e736665722066726f6d206d73672e73656e6460448201526132b960f11b6064820152608401610399565b8581836001600160a01b03166370a08231306040518263ffffffff1660e01b81526004016106b89190611747565b602060405180830381865afa1580156106d5573d6000803e3d6000fd5b505050506040513d601f19601f820116820180604052508101906106f9919061189b565b6107039190611a2b565b146107505760405162461bcd60e51b815260206004820181905260248201527f496e636f72726563742062616c616e6365206166746572207472616e736665726044820152606401610399565b600180860180548083018255600082815260208082209092018a905533815260028901909152604090209054909161078791611a2b565b8154600181018355600092835260209092209091015560405184906001600160a01b038916907ff5f311350ec206d1d012bcb891d2f4173215ddc5978f91fb7d54cc38e7a7261d906107dc908a903390611a42565b60405180910390a350505050505050565b6000805b6001600160a01b0383166000908152600160208190526040909120015481101561086d576001600160a01b038316600090815260016020819052604090912001805482908110610843576108436117e2565b9060005260206000200154826108599190611a59565b9150806108658161180e565b9150506107f1565b50919050565b6001600160a01b038216600090815260016020908152604080832033845260028101835281842080548351818602810186019094528084529194939091908301828280156108e057602002820191906000526020600020905b8154815260200190600101908083116108cc575b505050505090506000805b8251811015610a1e5784821015610a0c57600084600101848381518110610914576109146117e2565b60200260200101518154811061092c5761092c6117e2565b906000526020600020015490506000811115610a0a578561094d8285611a59565b1161099c5761095c8184611a59565b925084600101848381518110610974576109746117e2565b60200260200101518154811061098c5761098c6117e2565b6000918252602082200155610a0a565b6109a68387611a2b565b856001018584815181106109bc576109bc6117e2565b6020026020010151815481106109d4576109d46117e2565b9060005260206000200160008282546109ed9190611a2b565b909155506109fd90508387611a2b565b610a079084611a59565b92505b505b80610a168161180e565b9150506108eb565b50838114610a3e5760405162461bcd60e51b815260040161039990611a71565b6000856001600160a01b03166348cbb2fc6040518163ffffffff1660e01b81526004016020604051808303816000875af1158015610a80573d6000803e3d6000fd5b505050506040513d601f19601f82011682018060405250810190610aa4919061189b565b60405163430694cf60e01b8152600481018290529091506000906001600160a01b037f0000000000000000000000000000000000000000000000000000000000000000169063430694cf90602401600060405180830381865afa158015610b0f573d6000803e3d6000fd5b505050506040513d6000823e601f3d908101601f19168201604052610b379190810190611933565b9050600081602001516001600160a01b03166370a08231306040518263ffffffff1660e01b8152600401610b6b9190611747565b602060405180830381865afa158015610b88573d6000803e3d6000fd5b505050506040513d601f19601f82011682018060405250810190610bac919061189b565b602083015160405163a9059cbb60e01b81529192506001600160a01b03169063a9059cbb90610be19033908b90600401611a9b565b6020604051808303816000875af1158015610c00573d6000803e3d6000fd5b505050506040513d601f19601f82011682018060405250810190610c249190611a10565b610c625760405162461bcd60e51b815260206004820152600f60248201526e151c985b9cd9995c8819985a5b1959608a1b6044820152606401610399565b60208201516040516370a0823160e01b815288916001600160a01b0316906370a0823190610c94903090600401611747565b602060405180830381865afa158015610cb1573d6000803e3d6000fd5b505050506040513d601f19601f82011682018060405250810190610cd5919061189b565b610cdf9083611a2b565b14610d2c5760405162461bcd60e51b815260206004820152601e60248201527f4265666f726520616e642061667465722062616c616e63652077726f6e6700006044820152606401610399565b82886001600160a01b03167ef68a13bcd18afc12a6accfbfa4de6fd60fc89b7cf8415ebd0a32830f5ef8a98933604051610d67929190611a42565b60405180910390a35050505050505050565b806001600160a01b031663aced16616040518163ffffffff1660e01b8152600401602060405180830381865afa158015610db7573d6000803e3d6000fd5b505050506040513d601f19601f82011682018060405250810190610ddb9190611837565b6001600160a01b0316336001600160a01b031614610e0b5760405162461bcd60e51b815260040161039990611854565b6001600160a01b0381166000908152600160205260409020805460ff16610e445760405162461bcd60e51b815260040161039990611879565b6000826001600160a01b03166348cbb2fc6040518163ffffffff1660e01b81526004016020604051808303816000875af1158015610e86573d6000803e3d6000fd5b505050506040513d601f19601f82011682018060405250810190610eaa919061189b565b60405163430694cf60e01b8152600481018290529091506000906001600160a01b037f0000000000000000000000000000000000000000000000000000000000000000169063430694cf90602401600060405180830381865afa158015610f15573d6000803e3d6000fd5b505050506040513d6000823e601f3d908101601f19168201604052610f3d9190810190611933565b8051909150610f8e5760405162461bcd60e51b815260206004820152601d60248201527f496e697469616c2070726f706f73616c206e6f742065786563757465640000006044820152606401610399565b6000846001600160a01b0316637c1236276040518163ffffffff1660e01b8152600401600060405180830381865afa158015610fce573d6000803e3d6000fd5b505050506040513d6000823e601f3d908101601f19168201604052610ff69190810190611ae6565b9050600081600183516110099190611a2b565b81518110611019576110196117e2565b602002602001015190506004600581111561103657611036611c60565b8160a00151600581111561104c5761104c611c60565b148061106d575060058160a00151600581111561106b5761106b611c60565b145b6110af5760405162461bcd60e51b8152602060048201526013602482015272139bdd081c9958591e481d1bc81c995c19585d606a1b6044820152606401610399565b6000805b60018701548110156111b1578460e0015182101561119f5760008760010182815481106110e2576110e26117e2565b90600052602060002001549050600081111561119d5760e08601516111078285611a59565b1161113d576111168184611a59565b925087600101828154811061112d5761112d6117e2565b600091825260208220015561119d565b828660e0015161114d9190611a2b565b886001018381548110611162576111626117e2565b90600052602060002001600082825461117b9190611a2b565b909155505060e0860151611190908490611a2b565b61119a9084611a59565b92505b505b806111a98161180e565b9150506110b3565b508360e0015181146111d55760405162461bcd60e51b815260040161039990611a71565b83602001516001600160a01b031663a9059cbb888660e001516040518363ffffffff1660e01b815260040161120b929190611a9b565b6020604051808303816000875af115801561122a573d6000803e3d6000fd5b505050506040513d601f19601f8201168201806040525081019061124e9190611a10565b6112925760405162461bcd60e51b8152602060048201526015602482015274151bdad95b881d1c985b9cd9995c8819985a5b1959605a1b6044820152606401610399565b825160405163253b91a760e11b815260048101919091526001600160a01b03881690634a77234e90602401600060405180830381600087803b1580156112d757600080fd5b505af11580156112eb573d6000803e3d6000fd5b5050845160405163b992db0f60e01b815260048101919091526001600160a01b038a16925063b992db0f9150602401600060405180830381600087803b15801561133457600080fd5b505af1925050508015611345575060015b5084876001600160a01b03167fe236a39fd34e12988863d38406914acfc7bf962c9a9e1c6550002d85cdc4d6e885516040516107dc91815260200190565b606060008054806020026020016040519081016040528092919081815260200182805480156113fe57602002820191906000526020600020906000905b82829054906101000a900460e01b6001600160e01b031916815260200190600401906020826003010492830192600103820291508084116113c05790505b5050505050905090565b6000805b6001600160a01b03808516600090815260016020908152604080832093871683526002909301905220548110156114c4576001600160a01b038085166000908152600160208181526040808420948816845260028501909152909120805492909101918390811061147f5761147f6117e2565b90600052602060002001548154811061149a5761149a6117e2565b9060005260206000200154826114b09190611a59565b9150806114bc8161180e565b91505061140c565b5092915050565b806001600160a01b031663aced16616040518163ffffffff1660e01b8152600401602060405180830381865afa158015611509573d6000803e3d6000fd5b505050506040513d601f19601f8201168201806040525081019061152d9190611837565b6001600160a01b0316336001600160a01b03161461155d5760405162461bcd60e51b815260040161039990611854565b6001600160a01b03166000908152600160205260409020805460ff19169055565b60006020828403121561159057600080fd5b81356001600160e01b0319811681146115a857600080fd5b9392505050565b634e487b7160e01b600052604160045260246000fd5b60405161012081016001600160401b03811182821017156115e8576115e86115af565b60405290565b60405160c081016001600160401b03811182821017156115e8576115e86115af565b604051601f8201601f191681016001600160401b0381118282101715611638576116386115af565b604052919050565b60006001600160401b03821115611659576116596115af565b50601f01601f191660200190565b60006020828403121561167957600080fd5b81356001600160401b0381111561168f57600080fd5b8201601f810184136116a057600080fd5b80356116b36116ae82611640565b611610565b8181528560208385010111156116c857600080fd5b81602084016020830137600091810160200191909152949350505050565b6001600160a01b03811681146116fb57600080fd5b50565b60006020828403121561171057600080fd5b81356115a8816116e6565b6000806040838503121561172e57600080fd5b8235611739816116e6565b946020939093013593505050565b6001600160a01b0391909116815260200190565b6020808252825182820181905260009190848201906040850190845b8181101561179d5783516001600160e01b03191683529284019291840191600101611777565b50909695505050505050565b600080604083850312156117bc57600080fd5b82356117c7816116e6565b915060208301356117d7816116e6565b809150509250929050565b634e487b7160e01b600052603260045260246000fd5b634e487b7160e01b600052601160045260246000fd5b600060018201611820576118206117f8565b5060010190565b8051611832816116e6565b919050565b60006020828403121561184957600080fd5b81516115a8816116e6565b6020808252600b908201526a27b7363c9025b2b2b832b960a91b604082015260600190565b602080825260089082015267111a5cd8589b195960c21b604082015260600190565b6000602082840312156118ad57600080fd5b5051919050565b8051801515811461183257600080fd5b600082601f8301126118d557600080fd5b81516118e36116ae82611640565b818152602085818487010111156118f957600080fd5b60005b838110156119175785810182015183820183015281016118fc565b838111156119285760008285850101525b509095945050505050565b60006020828403121561194557600080fd5b81516001600160401b038082111561195c57600080fd5b90830190610120828603121561197157600080fd5b6119796115c5565b611982836118b4565b815261199060208401611827565b60208201526119a160408401611827565b60408201526119b260608401611827565b60608201526080830151608082015260a083015160a082015260c083015160c082015260e083015160e082015261010080840151838111156119f357600080fd5b6119ff888287016118c4565b918301919091525095945050505050565b600060208284031215611a2257600080fd5b6115a8826118b4565b600082821015611a3d57611a3d6117f8565b500390565b9182526001600160a01b0316602082015260400190565b60008219821115611a6c57611a6c6117f8565b500190565b60208082526010908201526f4e6f7420656e6f7567682066756e647360801b604082015260600190565b6001600160a01b03929092168252602082015260400190565b60006001600160401b03821115611acd57611acd6115af565b5060051b60200190565b80516006811061183257600080fd5b60006020808385031215611af957600080fd5b82516001600160401b0380821115611b1057600080fd5b818501915085601f830112611b2457600080fd5b8151611b326116ae82611ab4565b81815260059190911b83018401908481019088831115611b5157600080fd5b8585015b83811015611c5357805185811115611b6c57600080fd5b860160c0818c03601f19011215611b8257600080fd5b611b8a6115ee565b88820151611b97816116e6565b80825250604082015189820152606082015160408201526080820151606082015260a082015187811115611bca57600080fd5b8201603f81018d13611bdb57600080fd5b89810151611beb6116ae82611ab4565b81815260059190911b8201604001908b8101908f831115611c0b57600080fd5b6040840193505b82841015611c2b5783518252928c0192908c0190611c12565b608085015250611c4091505060c08301611ad7565b60a0820152845250918601918601611b55565b5098975050505050505050565b634e487b7160e01b600052602160045260246000fdfea2646970667358221220378eb3f11306dc4c3abcd6c7fae64aeb4a733946965e9d6bfb372b2e54510f6a64736f6c634300080e0033",
  "linkReferences": {},
  "deployedLinkReferences": {}
}