{
  "_format": "hh-sol-artifact-1",
  "contractName": "BasicArbitrator",
  "sourceName": "contracts/arbitration/BasicArbitrator.sol",
  "abi": [
    {
      "inputs": [],
      "stateMutability": "nonpayable",
      "type": "constructor"
    },
    {
      "anonymous": false,
      "inputs": [
        {
          "indexed": false,
          "internalType": "uint8",
          "name": "version",
          "type": "uint8"
        }
      ],
      "name": "Initialized",
      "type": "event"
    },
    {
      "anonymous": false,
      "inputs": [
        {
          "indexed": true,
          "internalType": "address",
          "name": "previousOwner",
          "type": "address"
        },
        {
          "indexed": true,
          "internalType": "address",
          "name": "newOwner",
          "type": "address"
        }
      ],
      "name": "OwnershipTransferred",
      "type": "event"
    },
    {
      "anonymous": false,
      "inputs": [
        {
          "indexed": true,
          "internalType": "address",
          "name": "to",
          "type": "address"
        },
        {
          "indexed": false,
          "internalType": "uint256",
          "name": "amount",
          "type": "uint256"
        }
      ],
      "name": "Withdrawal",
      "type": "event"
    },
    {
      "inputs": [
        {
          "internalType": "contract ISolver",
          "name": "solver",
          "type": "address"
        },
        {
          "internalType": "uint256",
          "name": "conditionIndex",
          "type": "uint256"
        },
        {
          "internalType": "uint256[]",
          "name": "outcomes",
          "type": "uint256[]"
        }
      ],
      "name": "arbitrate",
      "outputs": [],
      "stateMutability": "pure",
      "type": "function"
    },
    {
      "inputs": [
        {
          "internalType": "bytes32",
          "name": "disputeId",
          "type": "bytes32"
        },
        {
          "internalType": "uint256",
          "name": "choice",
          "type": "uint256"
        }
      ],
      "name": "arbitrate",
      "outputs": [],
      "stateMutability": "nonpayable",
      "type": "function"
    },
    {
      "inputs": [
        {
          "internalType": "contract ISolver",
          "name": "solver",
          "type": "address"
        },
        {
          "internalType": "uint256",
          "name": "conditionIndex",
          "type": "uint256"
        }
      ],
      "name": "arbitrateNull",
      "outputs": [],
      "stateMutability": "pure",
      "type": "function"
    },
    {
      "inputs": [
        {
          "internalType": "bytes32",
          "name": "disputeId",
          "type": "bytes32"
        }
      ],
      "name": "arbitrateNull",
      "outputs": [],
      "stateMutability": "nonpayable",
      "type": "function"
    },
    {
      "inputs": [
        {
          "internalType": "address",
          "name": "",
          "type": "address"
        }
      ],
      "name": "balances",
      "outputs": [
        {
          "internalType": "uint256",
          "name": "",
          "type": "uint256"
        }
      ],
      "stateMutability": "view",
      "type": "function"
    },
    {
      "inputs": [
        {
          "internalType": "bytes32",
          "name": "disputeId",
          "type": "bytes32"
        }
      ],
      "name": "claimLapse",
      "outputs": [],
      "stateMutability": "nonpayable",
      "type": "function"
    },
    {
      "inputs": [
        {
          "internalType": "bytes32",
          "name": "disputeId",
          "type": "bytes32"
        },
        {
          "internalType": "uint256",
          "name": "extraTime",
          "type": "uint256"
        }
      ],
      "name": "extendLapse",
      "outputs": [],
      "stateMutability": "nonpayable",
      "type": "function"
    },
    {
      "inputs": [],
      "name": "fee",
      "outputs": [
        {
          "internalType": "uint256",
          "name": "",
          "type": "uint256"
        }
      ],
      "stateMutability": "view",
      "type": "function"
    },
    {
      "inputs": [
        {
          "internalType": "bytes32",
          "name": "disputeId",
          "type": "bytes32"
        }
      ],
      "name": "getDispute",
      "outputs": [
        {
          "components": [
            {
              "internalType": "contract ISolver",
              "name": "solver",
              "type": "address"
            },
            {
              "internalType": "uint256",
              "name": "conditionIndex",
              "type": "uint256"
            },
            {
              "internalType": "uint256",
              "name": "fee",
              "type": "uint256"
            },
            {
              "internalType": "uint256",
              "name": "lapse",
              "type": "uint256"
            },
            {
              "internalType": "bytes32",
              "name": "id",
              "type": "bytes32"
            },
            {
              "internalType": "address[]",
              "name": "disputers",
              "type": "address[]"
            },
            {
              "internalType": "uint256[][]",
              "name": "choices",
              "type": "uint256[][]"
            }
          ],
          "internalType": "struct BasicArbitrator.Dispute",
          "name": "dispute",
          "type": "tuple"
        }
      ],
      "stateMutability": "view",
      "type": "function"
    },
    {
      "inputs": [
        {
          "internalType": "contract ISolver",
          "name": "solver",
          "type": "address"
        },
        {
          "internalType": "uint256",
          "name": "conditionIndex",
          "type": "uint256"
        }
      ],
      "name": "getFee",
      "outputs": [
        {
          "internalType": "uint256",
          "name": "",
          "type": "uint256"
        }
      ],
      "stateMutability": "view",
      "type": "function"
    },
    {
      "inputs": [
        {
          "internalType": "bytes32",
          "name": "disputeId",
          "type": "bytes32"
        }
      ],
      "name": "getTimelock",
      "outputs": [
        {
          "internalType": "uint256",
          "name": "timelock",
          "type": "uint256"
        }
      ],
      "stateMutability": "view",
      "type": "function"
    },
    {
      "inputs": [
        {
          "internalType": "bytes",
          "name": "initParams",
          "type": "bytes"
        }
      ],
      "name": "init",
      "outputs": [],
      "stateMutability": "nonpayable",
      "type": "function"
    },
    {
      "inputs": [
        {
          "internalType": "bytes32",
          "name": "disputeId",
          "type": "bytes32"
        }
      ],
      "name": "isLapsed",
      "outputs": [
        {
          "internalType": "bool",
          "name": "",
          "type": "bool"
        }
      ],
      "stateMutability": "view",
      "type": "function"
    },
    {
      "inputs": [],
      "name": "lapse",
      "outputs": [
        {
          "internalType": "uint256",
          "name": "",
          "type": "uint256"
        }
      ],
      "stateMutability": "view",
      "type": "function"
    },
    {
      "inputs": [],
      "name": "owner",
      "outputs": [
        {
          "internalType": "address",
          "name": "",
          "type": "address"
        }
      ],
      "stateMutability": "view",
      "type": "function"
    },
    {
      "inputs": [],
      "name": "renounceOwnership",
      "outputs": [],
      "stateMutability": "nonpayable",
      "type": "function"
    },
    {
      "inputs": [
        {
          "internalType": "contract ISolver",
          "name": "solver",
          "type": "address"
        },
        {
          "internalType": "uint256",
          "name": "conditionIndex",
          "type": "uint256"
        }
      ],
      "name": "requestArbitration",
      "outputs": [],
      "stateMutability": "payable",
      "type": "function"
    },
    {
      "inputs": [
        {
          "internalType": "contract ISolver",
          "name": "solver",
          "type": "address"
        },
        {
          "internalType": "uint256",
          "name": "conditionIndex",
          "type": "uint256"
        },
        {
          "internalType": "uint256[]",
          "name": "outcomes",
          "type": "uint256[]"
        }
      ],
      "name": "requestArbitration",
      "outputs": [],
      "stateMutability": "payable",
      "type": "function"
    },
    {
      "inputs": [
        {
          "internalType": "uint256",
          "name": "_fee",
          "type": "uint256"
        }
      ],
      "name": "setFee",
      "outputs": [],
      "stateMutability": "nonpayable",
      "type": "function"
    },
    {
      "inputs": [
        {
          "internalType": "uint256",
          "name": "_lapse",
          "type": "uint256"
        }
      ],
      "name": "setLapse",
      "outputs": [],
      "stateMutability": "nonpayable",
      "type": "function"
    },
    {
      "inputs": [
        {
          "internalType": "address",
          "name": "newOwner",
          "type": "address"
        }
      ],
      "name": "transferOwnership",
      "outputs": [],
      "stateMutability": "nonpayable",
      "type": "function"
    },
    {
      "inputs": [],
      "name": "withdraw",
      "outputs": [],
      "stateMutability": "nonpayable",
      "type": "function"
    },
    {
      "stateMutability": "payable",
      "type": "receive"
    }
  ],
  "bytecode": "0x60806040523480156200001157600080fd5b5060016065556200002162000027565b62000140565b6200003360ff62000036565b50565b60008054610100900460ff16156200009f578160ff1660011480156200006f57506200006d30620000e360201b6200185e1760201c565b155b620000975760405162461bcd60e51b81526004016200008e90620000f2565b60405180910390fd5b506000919050565b60005460ff808416911610620000c95760405162461bcd60e51b81526004016200008e90620000f2565b506000805460ff191660ff92909216919091179055600190565b6001600160a01b03163b151590565b6020808252602e908201527f496e697469616c697a61626c653a20636f6e747261637420697320616c72656160408201526d191e481a5b9a5d1a585b1a5e995960921b606082015260800190565b61261280620001506000396000f3fe6080604052600436106101095760003560e01c8063136ba6aa14610157578063222cdce11461018d57806327e235e3146101af578063355d4f76146101ea5780633ccfd60b1461020a57806347d4a2441461021f5780634ddf47d4146102325780634edeb834146102525780635746c24514610272578063634a4d2e1461029257806369fe0e2d146102b2578063715018a6146102d257806379a55806146102e75780637f6e7d2f146103075780638da5cb5b1461031d578063b126bd321461034a578063cb2e72121461036a578063ddca3f431461038a578063ed1b5b00146103a0578063f2fde38b146103d0578063f5e35bb8146103f0578063fb45d1341461040357600080fd5b3661015257346069600061011b610423565b6001600160a01b03166001600160a01b03168152602001908152602001600020600082825461014a9190611dc8565b925050819055005b600080fd5b34801561016357600080fd5b50610177610172366004611de0565b610432565b6040516101849190611e78565b60405180910390f35b34801561019957600080fd5b506101ad6101a8366004611f29565b6105cc565b005b3480156101bb57600080fd5b506101dc6101ca366004611f60565b60696020526000908152604090205481565b604051908152602001610184565b3480156101f657600080fd5b506101ad610205366004612015565b61067e565b34801561021657600080fd5b506101ad6106e8565b6101ad61022d3660046120c8565b610878565b34801561023e57600080fd5b506101ad61024d3660046120f4565b6108f1565b34801561025e57600080fd5b506101dc61026d3660046120c8565b6109a7565b34801561027e57600080fd5b506101ad61028d366004611de0565b610a12565b34801561029e57600080fd5b506101ad6102ad3660046120c8565b610a8f565b3480156102be57600080fd5b506101ad6102cd366004611de0565b610aed565b3480156102de57600080fd5b506101ad610b21565b3480156102f357600080fd5b506101dc610302366004611de0565b610b5c565b34801561031357600080fd5b506101dc60685481565b34801561032957600080fd5b50610332610423565b6040516001600160a01b039091168152602001610184565b34801561035657600080fd5b506101ad610365366004611de0565b610bdb565b34801561037657600080fd5b506101ad610385366004611f29565b610d30565b34801561039657600080fd5b506101dc60675481565b3480156103ac57600080fd5b506103c06103bb366004611de0565b610fb1565b6040519015158152602001610184565b3480156103dc57600080fd5b506101ad6103eb366004611f60565b610fe0565b6101ad6103fe366004612165565b611080565b34801561040f57600080fd5b506101ad61041e366004611de0565b611554565b6033546001600160a01b031690565b61047e6040518060e0016040528060006001600160a01b031681526020016000815260200160008152602001600081526020016000801916815260200160608152602001606081525090565b6000828152606a6020908152604091829020825160e08101845281546001600160a01b0316815260018201548184015260028201548185015260038201546060820152600482015460808201526005820180548551818602810186019096528086529194929360a0860193929083018282801561052457602002820191906000526020600020905b81546001600160a01b03168152600190910190602001808311610506575b5050505050815260200160068201805480602002602001604051908101604052809291908181526020016000905b828210156105be576000848152602090819020830180546040805182850281018501909152818152928301828280156105aa57602002820191906000526020600020905b815481526020019060010190808311610596575b505050505081526020019060010190610552565b505050915250909392505050565b336105d5610423565b6001600160a01b0316146106045760405162461bcd60e51b81526004016105fb906121f0565b60405180910390fd5b6000828152606a60205260409020600401546106545760405162461bcd60e51b815260206004820152600f60248201526e496e76616c6964206469737075746560881b60448201526064016105fb565b6000828152606a602052604081206003018054839290610675908490611dc8565b90915550505050565b60405162461bcd60e51b815260206004820152603960248201527f43616c6c206172626974726174652862797465733332206469737075746549646044820152780b081d5a5b9d0c8d4d8818da1bda58d94a481a5b9cdd195859603a1b60648201526084016105fb565b60026065540361073a5760405162461bcd60e51b815260206004820152601f60248201527f5265656e7472616e637947756172643a207265656e7472616e742063616c6c0060448201526064016105fb565b6002606555336000908152606960205260409020546107885760405162461bcd60e51b815260206004820152600a6024820152694e6f2062616c616e636560b01b60448201526064016105fb565b3360009081526069602052604081208054918291906107a78380612225565b90915550506040516000908190339084908381818185875af1925050503d80600081146107f0576040519150601f19603f3d011682016040523d82523d6000602084013e6107f5565b606091505b5091509150816108395760405162461bcd60e51b815260206004820152600f60248201526e151c985b9cd9995c8819985a5b1959608a1b60448201526064016105fb565b60405183815233907f7fcf532c15f0a6db0bd6d0e038bea71d30d808c7d98cb3bf7268a95bf5081b659060200160405180910390a25050600160655550565b60405162461bcd60e51b815260206004820152604260248201527f43616c6c20726571756573744172626974726174696f6e28627974657333322060448201527f6469737075746549642c2075696e743235362063686f6963652920696e737465606482015261185960f21b608482015260a4016105fb565b60006108fd600161186d565b90508015610915576000805461ff0019166101001790555b600080806109258587018761223c565b606680546001600160a01b031916331790556067829055606881905591945092509050610950611901565b61095983610fe0565b50505080156109a2576000805461ff0019169055604051600181527f7f26b83ff96e1f2b6a682f133852f6798a09c465da95921460cefb38474024989060200160405180910390a15b505050565b60008083836040516020016109bd929190612271565b60408051601f1981840301815291815281516020928301206000818152606a90935291206004015490915015610a06576000908152606a60205260409020600201549050610a0c565b50506067545b92915050565b33610a1b610423565b6001600160a01b031614610a415760405162461bcd60e51b81526004016105fb906121f0565b60008111610a8a5760405162461bcd60e51b81526020600482015260166024820152754c617073652063616e6e6f742062652030206461797360501b60448201526064016105fb565b606855565b60405162461bcd60e51b815260206004820152602d60248201527f43616c6c206172626974726174654e756c6c286279746573333220646973707560448201526c1d1952590a481a5b9cdd195859609a1b60648201526084016105fb565b33610af6610423565b6001600160a01b031614610b1c5760405162461bcd60e51b81526004016105fb906121f0565b606755565b33610b2a610423565b6001600160a01b031614610b505760405162461bcd60e51b81526004016105fb906121f0565b610b5a6000611930565b565b6000818152606a602052604080822080546001909101549151630d7e149f60e01b815260048101929092526001600160a01b031690630d7e149f90602401602060405180830381865afa158015610bb7573d6000803e3d6000fd5b505050506040513d601f19601f82011682018060405250810190610a0c919061228a565b33610be4610423565b6001600160a01b031614610c0a5760405162461bcd60e51b81526004016105fb906121f0565b6000818152606a602052604090206004810154829190610c3c5760405162461bcd60e51b81526004016105fb906122a3565b80546001820154604051632e31150760e11b815260048101919091526003916001600160a01b031690635c622a0e90602401602060405180830381865afa158015610c8b573d6000803e3d6000fd5b505050506040513d601f19601f82011682018060405250810190610caf91906122f1565b6005811115610cc057610cc06122cc565b14610cdd5760405162461bcd60e51b81526004016105fb9061230c565b6000838152606a6020526040902080546001820154610d05916001600160a01b031690611982565b610d0e846119e1565b610d1c600582016000611cbe565b610d2a600682016000611cdc565b50505050565b33610d39610423565b6001600160a01b031614610d5f5760405162461bcd60e51b81526004016105fb906121f0565b6000828152606a602052604090206004810154839190610d915760405162461bcd60e51b81526004016105fb906122a3565b80546001820154604051632e31150760e11b815260048101919091526003916001600160a01b031690635c622a0e90602401602060405180830381865afa158015610de0573d6000803e3d6000fd5b505050506040513d601f19601f82011682018060405250810190610e0491906122f1565b6005811115610e1557610e156122cc565b14610e325760405162461bcd60e51b81526004016105fb9061230c565b6000848152606a6020526040902060048101548514610e635760405162461bcd60e51b81526004016105fb906122a3565b80546001820154604051630d7e149f60e01b81526001600160a01b0390921691630d7e149f91610e999160040190815260200190565b602060405180830381865afa158015610eb6573d6000803e3d6000fd5b505050506040513d601f19601f82011682018060405250810190610eda919061228a565b4211610f155760405162461bcd60e51b815260206004820152600a602482015269151a5b595b1bd8dad95960b21b60448201526064016105fb565b80546001820154600683018054610fa0936001600160a01b031692919088908110610f4257610f4261233f565b90600052602060002001805480602002602001604051908101604052809291908181526020018280548015610f9657602002820191906000526020600020905b815481526020019060010190808311610f82575b5050505050611a68565b610faa8585611acd565b5050505050565b6000610fbc82610b5c565b6000838152606a6020526040902060030154610fd89190611dc8565b421192915050565b33610fe9610423565b6001600160a01b03161461100f5760405162461bcd60e51b81526004016105fb906121f0565b6001600160a01b0381166110745760405162461bcd60e51b815260206004820152602660248201527f4f776e61626c653a206e6577206f776e657220697320746865207a65726f206160448201526564647265737360d01b60648201526084016105fb565b61107d81611930565b50565b6000846001600160a01b0316636cc6cde16040518163ffffffff1660e01b8152600401602060405180830381865afa1580156110c0573d6000803e3d6000fd5b505050506040513d601f19601f820116820180604052508101906110e49190612355565b90506001600160a01b03811630146111315760405162461bcd60e51b815260206004820152601060248201526f2bb937b7339030b93134ba3930ba37b960811b60448201526064016105fb565b604051632e31150760e11b8152600481018590526000906001600160a01b03871690635c622a0e90602401602060405180830381865afa158015611179573d6000803e3d6000fd5b505050506040513d601f19601f8201168201806040525081019061119d91906122f1565b905060028160058111156111b3576111b36122cc565b14806111d0575060038160058111156111ce576111ce6122cc565b145b61122d5760405162461bcd60e51b815260206004820152602860248201527f436f6e646974696f6e2073746174757320696e76616c696420666f722061726260448201526734ba3930ba34b7b760c11b60648201526084016105fb565b604051630d7e149f60e01b8152600481018690526001600160a01b03871690630d7e149f90602401602060405180830381865afa158015611272573d6000803e3d6000fd5b505050506040513d601f19601f82011682018060405250810190611296919061228a565b42106112d75760405162461bcd60e51b815260206004820152601060248201526f151a5b595b1bd8dac8195b185c1cd95960821b60448201526064016105fb565b600086866040516020016112ec929190612271565b60405160208183030381529060405280519060200120905061130e87876109a7565b3410156113505760405162461bcd60e51b815260206004820152601060248201526f496e73756666696369656e742066656560801b60448201526064016105fb565b60675461135d9034612225565b336000908152606960205260408120805490919061137c908490611dc8565b90915550506000818152606a6020526040902060048101546114fa57600481810183905581546001600160a01b0319166001600160a01b038a16908117835560018301899055606754600284015560685460038401556040805163aced166160e01b81529051600585019363aced1661928082019260209290918290030181865afa15801561140f573d6000803e3d6000fd5b505050506040513d601f19601f820116820180604052508101906114339190612355565b81546001810183556000928352602083200180546001600160a01b0319166001600160a01b0392831617905560405163f24fc90360e01b8152600481018a9052908a169063f24fc90390602401600060405180830381865afa15801561149d573d6000803e3d6000fd5b505050506040513d6000823e601f3d908101601f191682016040526114c59190810190612372565b6080810151600684018054600181018255600091825260209182902083519495506114f7949101929190910190611cfa565b50505b600581018054600181810183556000928352602080842090920180546001600160a01b0319163317905560068401805491820181558352912061153f91018787611d45565b5061154a8888611c61565b5050505050505050565b6000818152606a6020526040902060048101548291906115865760405162461bcd60e51b81526004016105fb906122a3565b80546001820154604051632e31150760e11b815260048101919091526003916001600160a01b031690635c622a0e90602401602060405180830381865afa1580156115d5573d6000803e3d6000fd5b505050506040513d601f19601f820116820180604052508101906115f991906122f1565b600581111561160a5761160a6122cc565b146116275760405162461bcd60e51b81526004016105fb9061230c565b6000838152606a60209081526040808320815160e08101835281546001600160a01b0316815260018201548185015260028201548184015260038201546060820152600482015460808201526005820180548451818702810187019095528085529194929360a08601939092908301828280156116cd57602002820191906000526020600020905b81546001600160a01b031681526001909101906020018083116116af575b5050505050815260200160068201805480602002602001604051908101604052809291908181526020016000905b828210156117675760008481526020908190208301805460408051828502810185019091528181529283018282801561175357602002820191906000526020600020905b81548152602001906001019080831161173f575b5050505050815260200190600101906116fb565b5050505081525050905061177a84610fb1565b6117b35760405162461bcd60e51b815260206004820152600a602482015269139bdd081b185c1cd95960b21b60448201526064016105fb565b6000848152606a602090815260408083205491840151905163f24fc90360e01b81526001600160a01b039092169163f24fc903916117f79160040190815260200190565b600060405180830381865afa158015611814573d6000803e3d6000fd5b505050506040513d6000823e601f3d908101601f1916820160405261183c9190810190612372565b9050611855826000015183602001518360800151611a68565b610faa856119e1565b6001600160a01b03163b151590565b60008054610100900460ff16156118bb578160ff16600114801561189757506118953061185e565b155b6118b35760405162461bcd60e51b81526004016105fb90612476565b506000919050565b60005460ff8084169116106118e25760405162461bcd60e51b81526004016105fb90612476565b506000805460ff191660ff92909216919091179055600190565b919050565b600054610100900460ff166119285760405162461bcd60e51b81526004016105fb906124c4565b610b5a611c8e565b603380546001600160a01b038381166001600160a01b0319831681179093556040519116919082907f8be0079c531659141344cd1fd0a4f28419497f9722a3daafe3b4186f6b6457e090600090a35050565b604051634e46f22360e01b8152600481018290526001600160a01b03831690634e46f223906024015b600060405180830381600087803b1580156119c557600080fd5b505af11580156119d9573d6000803e3d6000fd5b505050505050565b6000818152606a6020526040902060015b60058201548110156109a257816002015460696000846005018481548110611a1c57611a1c61233f565b60009182526020808320909101546001600160a01b0316835282019290925260400181208054909190611a50908490611dc8565b90915550819050611a608161250f565b9150506119f2565b6040516387dfee5760e01b81526001600160a01b038416906387dfee5790611a969085908590600401612528565b600060405180830381600087803b158015611ab057600080fd5b505af1158015611ac4573d6000803e3d6000fd5b50505050505050565b6000828152606a602052604081206005810154909190611aef90600190612225565b8260020154611afe9190612576565b905060015b6005830154811015611c1957826006018481548110611b2457611b2461233f565b90600052602060002001604051602001611b3e9190612595565b60405160208183030381529060405280519060200120836006018281548110611b6957611b6961233f565b90600052602060002001604051602001611b839190612595565b6040516020818303038152906040528051906020012003611c0757826002015460696000856005018481548110611bbc57611bbc61233f565b60009182526020808320909101546001600160a01b0316835282019290925260400181208054909190611bf0908490611dc8565b90915550506002830154611c049083612225565b91505b80611c118161250f565b915050611b03565b508060696000611c27610423565b6001600160a01b03166001600160a01b031681526020019081526020016000206000828254611c569190611dc8565b909155505050505050565b6040516331402a5760e01b8152600481018290526001600160a01b038316906331402a57906024016119ab565b600054610100900460ff16611cb55760405162461bcd60e51b81526004016105fb906124c4565b610b5a33611930565b508054600082559060005260206000209081019061107d9190611d80565b508054600082559060005260206000209081019061107d9190611d95565b828054828255906000526020600020908101928215611d35579160200282015b82811115611d35578251825591602001919060010190611d1a565b50611d41929150611d80565b5090565b828054828255906000526020600020908101928215611d35579160200282015b82811115611d35578235825591602001919060010190611d65565b5b80821115611d415760008155600101611d81565b80821115611d41576000611da98282611cbe565b50600101611d95565b634e487b7160e01b600052601160045260246000fd5b60008219821115611ddb57611ddb611db2565b500190565b600060208284031215611df257600080fd5b5035919050565b600082825180855260208086019550808260051b8401018186016000805b85811015611e6a57868403601f19018a52825180518086529086019086860190845b81811015611e5557835183529288019291880191600101611e39565b50509a86019a94505091840191600101611e17565b509198975050505050505050565b60006020808352610100830160018060a01b0380865116838601528286015160408601526040860151606086015260608601516080860152608086015160a086015260a086015160e060c0870152828151808552610120880191508583019450600092505b80831015611eff57845184168252938501936001929092019190850190611edd565b5060c0880151878203601f190160e08901529450611f1d8186611df9565b98975050505050505050565b60008060408385031215611f3c57600080fd5b50508035926020909101359150565b6001600160a01b038116811461107d57600080fd5b600060208284031215611f7257600080fd5b8135611f7d81611f4b565b9392505050565b634e487b7160e01b600052604160045260246000fd5b60405160c081016001600160401b0381118282101715611fbc57611fbc611f84565b60405290565b604051601f8201601f191681016001600160401b0381118282101715611fea57611fea611f84565b604052919050565b60006001600160401b0382111561200b5761200b611f84565b5060051b60200190565b60008060006060848603121561202a57600080fd5b833561203581611f4b565b9250602084810135925060408501356001600160401b0381111561205857600080fd5b8501601f8101871361206957600080fd5b803561207c61207782611ff2565b611fc2565b81815260059190911b8201830190838101908983111561209b57600080fd5b928401925b828410156120b9578335825292840192908401906120a0565b80955050505050509250925092565b600080604083850312156120db57600080fd5b82356120e681611f4b565b946020939093013593505050565b6000806020838503121561210757600080fd5b82356001600160401b038082111561211e57600080fd5b818501915085601f83011261213257600080fd5b81358181111561214157600080fd5b86602082850101111561215357600080fd5b60209290920196919550909350505050565b6000806000806060858703121561217b57600080fd5b843561218681611f4b565b93506020850135925060408501356001600160401b03808211156121a957600080fd5b818701915087601f8301126121bd57600080fd5b8135818111156121cc57600080fd5b8860208260051b85010111156121e157600080fd5b95989497505060200194505050565b6020808252818101527f4f776e61626c653a2063616c6c6572206973206e6f7420746865206f776e6572604082015260600190565b60008282101561223757612237611db2565b500390565b60008060006060848603121561225157600080fd5b833561225c81611f4b565b95602085013595506040909401359392505050565b6001600160a01b03929092168252602082015260400190565b60006020828403121561229c57600080fd5b5051919050565b6020808252600f908201526e496e76616c6964204469737075746560881b604082015260600190565b634e487b7160e01b600052602160045260246000fd5b8051600681106118fc57600080fd5b60006020828403121561230357600080fd5b611f7d826122e2565b602080825260199082015278105c989a5d1c985d1a5bdb881b9bdd081c995c5d595cdd1959603a1b604082015260600190565b634e487b7160e01b600052603260045260246000fd5b60006020828403121561236757600080fd5b8151611f7d81611f4b565b6000602080838503121561238557600080fd5b82516001600160401b038082111561239c57600080fd5b9084019060c082870312156123b057600080fd5b6123b8611f9a565b82516123c381611f4b565b80825250838301518482015260408301516040820152606083015160608201526080830151828111156123f557600080fd5b83019150601f8201871361240857600080fd5b815161241661207782611ff2565b81815260059190911b8301850190858101908983111561243557600080fd5b938601935b828510156124535784518252938601939086019061243a565b608084015250612467905060a084016122e2565b60a08201529695505050505050565b6020808252602e908201527f496e697469616c697a61626c653a20636f6e747261637420697320616c72656160408201526d191e481a5b9a5d1a585b1a5e995960921b606082015260800190565b6020808252602b908201527f496e697469616c697a61626c653a20636f6e7472616374206973206e6f74206960408201526a6e697469616c697a696e6760a81b606082015260800190565b60006001820161252157612521611db2565b5060010190565b6000604082018483526020604081850152818551808452606086019150828701935060005b818110156125695784518352938301939183019160010161254d565b5090979650505050505050565b600081600019048311821515161561259057612590611db2565b500290565b6020808252825482820181905260008481528281209092916040850190845b818110156125d0578354835260019384019392850192016125b4565b5090969550505050505056fea26469706673582212201c67db9f422625876d47cbc870bb31bfffe4078af3f5f96db777e3d3e60d29be64736f6c634300080d0033",
  "linkReferences": {},
  "deployedLinkReferences": {}
}