{
  "_format": "hh-sol-artifact-1",
  "contractName": "BasicArbitrator",
  "sourceName": "contracts/arbitration/BasicArbitrator.sol",
  "abi": [
    {
      "inputs": [],
      "stateMutability": "nonpayable",
      "type": "constructor"
    },
    {
      "anonymous": false,
      "inputs": [
        {
          "indexed": false,
          "internalType": "uint8",
          "name": "version",
          "type": "uint8"
        }
      ],
      "name": "Initialized",
      "type": "event"
    },
    {
      "anonymous": false,
      "inputs": [
        {
          "indexed": true,
          "internalType": "address",
          "name": "previousOwner",
          "type": "address"
        },
        {
          "indexed": true,
          "internalType": "address",
          "name": "newOwner",
          "type": "address"
        }
      ],
      "name": "OwnershipTransferred",
      "type": "event"
    },
    {
      "anonymous": false,
      "inputs": [
        {
          "indexed": true,
          "internalType": "address",
          "name": "to",
          "type": "address"
        },
        {
          "indexed": false,
          "internalType": "uint256",
          "name": "amount",
          "type": "uint256"
        }
      ],
      "name": "Withdrawal",
      "type": "event"
    },
    {
      "inputs": [
        {
          "internalType": "contract ISolver",
          "name": "solver",
          "type": "address"
        },
        {
          "internalType": "uint256",
          "name": "conditionIndex",
          "type": "uint256"
        },
        {
          "internalType": "uint256[]",
          "name": "payouts",
          "type": "uint256[]"
        }
      ],
      "name": "arbitrate",
      "outputs": [],
      "stateMutability": "nonpayable",
      "type": "function"
    },
    {
      "inputs": [
        {
          "internalType": "bytes32",
          "name": "disputeId",
          "type": "bytes32"
        },
        {
          "internalType": "uint256",
          "name": "choice",
          "type": "uint256"
        }
      ],
      "name": "arbitrate",
      "outputs": [],
      "stateMutability": "nonpayable",
      "type": "function"
    },
    {
      "inputs": [
        {
          "internalType": "contract ISolver",
          "name": "solver",
          "type": "address"
        },
        {
          "internalType": "uint256",
          "name": "conditionIndex",
          "type": "uint256"
        }
      ],
      "name": "arbitrateNull",
      "outputs": [],
      "stateMutability": "nonpayable",
      "type": "function"
    },
    {
      "inputs": [
        {
          "internalType": "bytes32",
          "name": "disputeId",
          "type": "bytes32"
        }
      ],
      "name": "arbitrateNull",
      "outputs": [],
      "stateMutability": "nonpayable",
      "type": "function"
    },
    {
      "inputs": [
        {
          "internalType": "address",
          "name": "",
          "type": "address"
        }
      ],
      "name": "balances",
      "outputs": [
        {
          "internalType": "uint256",
          "name": "",
          "type": "uint256"
        }
      ],
      "stateMutability": "view",
      "type": "function"
    },
    {
      "inputs": [
        {
          "internalType": "bytes32",
          "name": "disputeId",
          "type": "bytes32"
        }
      ],
      "name": "claimLapse",
      "outputs": [],
      "stateMutability": "nonpayable",
      "type": "function"
    },
    {
      "inputs": [
        {
          "internalType": "bytes32",
          "name": "disputeId",
          "type": "bytes32"
        },
        {
          "internalType": "uint256",
          "name": "extraTime",
          "type": "uint256"
        }
      ],
      "name": "extendLapse",
      "outputs": [],
      "stateMutability": "nonpayable",
      "type": "function"
    },
    {
      "inputs": [],
      "name": "fee",
      "outputs": [
        {
          "internalType": "uint256",
          "name": "",
          "type": "uint256"
        }
      ],
      "stateMutability": "view",
      "type": "function"
    },
    {
      "inputs": [
        {
          "internalType": "bytes32",
          "name": "disputeId",
          "type": "bytes32"
        }
      ],
      "name": "getDispute",
      "outputs": [
        {
          "components": [
            {
              "internalType": "contract ISolver",
              "name": "solver",
              "type": "address"
            },
            {
              "internalType": "uint256",
              "name": "conditionIndex",
              "type": "uint256"
            },
            {
              "internalType": "uint256",
              "name": "fee",
              "type": "uint256"
            },
            {
              "internalType": "uint256",
              "name": "lapse",
              "type": "uint256"
            },
            {
              "internalType": "bytes32",
              "name": "id",
              "type": "bytes32"
            },
            {
              "internalType": "address[]",
              "name": "disputers",
              "type": "address[]"
            },
            {
              "internalType": "uint256[][]",
              "name": "choices",
              "type": "uint256[][]"
            }
          ],
          "internalType": "struct BasicArbitrator.Dispute",
          "name": "dispute",
          "type": "tuple"
        }
      ],
      "stateMutability": "view",
      "type": "function"
    },
    {
      "inputs": [
        {
          "internalType": "bytes32",
          "name": "disputeId",
          "type": "bytes32"
        }
      ],
      "name": "getFee",
      "outputs": [
        {
          "internalType": "uint256",
          "name": "",
          "type": "uint256"
        }
      ],
      "stateMutability": "view",
      "type": "function"
    },
    {
      "inputs": [
        {
          "internalType": "bytes32",
          "name": "disputeId",
          "type": "bytes32"
        }
      ],
      "name": "getTimelock",
      "outputs": [
        {
          "internalType": "uint256",
          "name": "timelock",
          "type": "uint256"
        }
      ],
      "stateMutability": "view",
      "type": "function"
    },
    {
      "inputs": [],
      "name": "hideArbitrator",
      "outputs": [],
      "stateMutability": "nonpayable",
      "type": "function"
    },
    {
      "inputs": [
        {
          "internalType": "bytes",
          "name": "initParams",
          "type": "bytes"
        }
      ],
      "name": "init",
      "outputs": [],
      "stateMutability": "nonpayable",
      "type": "function"
    },
    {
      "inputs": [
        {
          "internalType": "bytes32",
          "name": "disputeId",
          "type": "bytes32"
        }
      ],
      "name": "isLapsed",
      "outputs": [
        {
          "internalType": "bool",
          "name": "",
          "type": "bool"
        }
      ],
      "stateMutability": "view",
      "type": "function"
    },
    {
      "inputs": [],
      "name": "lapse",
      "outputs": [
        {
          "internalType": "uint256",
          "name": "",
          "type": "uint256"
        }
      ],
      "stateMutability": "view",
      "type": "function"
    },
    {
      "inputs": [],
      "name": "owner",
      "outputs": [
        {
          "internalType": "address",
          "name": "",
          "type": "address"
        }
      ],
      "stateMutability": "view",
      "type": "function"
    },
    {
      "inputs": [],
      "name": "renounceOwnership",
      "outputs": [],
      "stateMutability": "nonpayable",
      "type": "function"
    },
    {
      "inputs": [
        {
          "internalType": "contract ISolver",
          "name": "solver",
          "type": "address"
        },
        {
          "internalType": "uint256",
          "name": "conditionIndex",
          "type": "uint256"
        }
      ],
      "name": "requestArbitration",
      "outputs": [],
      "stateMutability": "nonpayable",
      "type": "function"
    },
    {
      "inputs": [
        {
          "internalType": "contract ISolver",
          "name": "solver",
          "type": "address"
        },
        {
          "internalType": "uint256",
          "name": "conditionIndex",
          "type": "uint256"
        },
        {
          "internalType": "uint256[]",
          "name": "desiredOutcome",
          "type": "uint256[]"
        }
      ],
      "name": "requestArbitration",
      "outputs": [],
      "stateMutability": "payable",
      "type": "function"
    },
    {
      "inputs": [
        {
          "internalType": "uint256",
          "name": "_fee",
          "type": "uint256"
        }
      ],
      "name": "setFee",
      "outputs": [],
      "stateMutability": "nonpayable",
      "type": "function"
    },
    {
      "inputs": [
        {
          "internalType": "uint256",
          "name": "_lapse",
          "type": "uint256"
        }
      ],
      "name": "setLapse",
      "outputs": [],
      "stateMutability": "nonpayable",
      "type": "function"
    },
    {
      "inputs": [
        {
          "internalType": "address",
          "name": "newOwner",
          "type": "address"
        }
      ],
      "name": "transferOwnership",
      "outputs": [],
      "stateMutability": "nonpayable",
      "type": "function"
    },
    {
      "inputs": [],
      "name": "unhideArbitrator",
      "outputs": [],
      "stateMutability": "nonpayable",
      "type": "function"
    },
    {
      "inputs": [],
      "name": "withdraw",
      "outputs": [],
      "stateMutability": "nonpayable",
      "type": "function"
    },
    {
      "stateMutability": "payable",
      "type": "receive"
    }
  ],
  "bytecode": "0x60806040523480156200001157600080fd5b5060016065556200002162000027565b62000140565b6200003360ff62000036565b50565b60008054610100900460ff16156200009f578160ff1660011480156200006f57506200006d30620000e360201b620019351760201c565b155b620000975760405162461bcd60e51b81526004016200008e90620000f2565b60405180910390fd5b506000919050565b60005460ff808416911610620000c95760405162461bcd60e51b81526004016200008e90620000f2565b506000805460ff191660ff92909216919091179055600190565b6001600160a01b03163b151590565b6020808252602e908201527f496e697469616c697a61626c653a20636f6e747261637420697320616c72656160408201526d191e481a5b9a5d1a585b1a5e995960921b606082015260800190565b61274880620001506000396000f3fe60806040526004361061011f5760003560e01c8063136ba6aa1461016d578063222cdce1146101a357806327e235e3146101c5578063355d4f76146102005780633ccfd60b1461022057806347d4a244146102355780634ddf47d4146102555780635746c24514610275578063634a4d2e1461029557806369fe0e2d146102b5578063715018a6146102d557806379a55806146102ea5780637f6e7d2f1461030a5780638da5cb5b14610320578063b126bd321461034d578063bb7dd2fc1461036d578063c5c102ac14610382578063cb2e721214610397578063ddca3f43146103b7578063e5f3d3a5146103cd578063ed1b5b00146103ed578063f2fde38b1461041d578063f5e35bb81461043d578063fb45d1341461045057600080fd5b36610168573460696000610131610470565b6001600160a01b03166001600160a01b0316815260200190815260200160002060008282546101609190611eea565b925050819055005b600080fd5b34801561017957600080fd5b5061018d610188366004611f02565b61047f565b60405161019a9190611f9a565b60405180910390f35b3480156101af57600080fd5b506101c36101be36600461204b565b610619565b005b3480156101d157600080fd5b506101f26101e0366004612082565b60696020526000908152604090205481565b60405190815260200161019a565b34801561020c57600080fd5b506101c361021b366004612137565b6106cb565b34801561022c57600080fd5b506101c36106db565b34801561024157600080fd5b506101c36102503660046121ea565b61086b565b34801561026157600080fd5b506101c3610270366004612216565b610879565b34801561028157600080fd5b506101c3610290366004611f02565b61092e565b3480156102a157600080fd5b506101c36102b03660046121ea565b6109ab565b3480156102c157600080fd5b506101c36102d0366004611f02565b6109b5565b3480156102e157600080fd5b506101c36109e9565b3480156102f657600080fd5b506101f2610305366004611f02565b610a24565b34801561031657600080fd5b506101f260685481565b34801561032c57600080fd5b50610335610470565b6040516001600160a01b03909116815260200161019a565b34801561035957600080fd5b506101c3610368366004611f02565b610aa9565b34801561037957600080fd5b506101c3610c4f565b34801561038e57600080fd5b506101c3610ce2565b3480156103a357600080fd5b506101c36103b236600461204b565b610d19565b3480156103c357600080fd5b506101f260675481565b3480156103d957600080fd5b506101f26103e8366004611f02565b610f99565b3480156103f957600080fd5b5061040d610408366004611f02565b610fd3565b604051901515815260200161019a565b34801561042957600080fd5b506101c3610438366004612082565b611002565b6101c361044b366004612287565b6110a2565b34801561045c57600080fd5b506101c361046b366004611f02565b6115cf565b6033546001600160a01b031690565b6104cb6040518060e0016040528060006001600160a01b031681526020016000815260200160008152602001600081526020016000801916815260200160608152602001606081525090565b6000828152606a6020908152604091829020825160e08101845281546001600160a01b0316815260018201548184015260028201548185015260038201546060820152600482015460808201526005820180548551818602810186019096528086529194929360a0860193929083018282801561057157602002820191906000526020600020905b81546001600160a01b03168152600190910190602001808311610553575b5050505050815260200160068201805480602002602001604051908101604052809291908181526020016000905b8282101561060b576000848152602090819020830180546040805182850281018501909152818152928301828280156105f757602002820191906000526020600020905b8154815260200190600101908083116105e3575b50505050508152602001906001019061059f565b505050915250909392505050565b33610622610470565b6001600160a01b0316146106515760405162461bcd60e51b815260040161064890612312565b60405180910390fd5b6000828152606a60205260409020600401546106a15760405162461bcd60e51b815260206004820152600f60248201526e496e76616c6964206469737075746560881b6044820152606401610648565b6000828152606a6020526040812060030180548392906106c2908490611eea565b90915550505050565b6106d6838383611944565b505050565b60026065540361072d5760405162461bcd60e51b815260206004820152601f60248201527f5265656e7472616e637947756172643a207265656e7472616e742063616c6c006044820152606401610648565b60026065553360009081526069602052604090205461077b5760405162461bcd60e51b815260206004820152600a6024820152694e6f2062616c616e636560b01b6044820152606401610648565b33600090815260696020526040812080549182919061079a8380612347565b90915550506040516000908190339084908381818185875af1925050503d80600081146107e3576040519150601f19603f3d011682016040523d82523d6000602084013e6107e8565b606091505b50915091508161082c5760405162461bcd60e51b815260206004820152600f60248201526e151c985b9cd9995c8819985a5b1959608a1b6044820152606401610648565b60405183815233907f7fcf532c15f0a6db0bd6d0e038bea71d30d808c7d98cb3bf7268a95bf5081b659060200160405180910390a25050600160655550565b61087582826119a9565b5050565b60006108856001611a08565b9050801561089d576000805461ff0019166101001790555b600080806108ad8587018761235e565b606680546001600160a01b0319163317905560678290556068819055919450925090506108d8611a97565b6108e183611002565b50505080156106d6576000805461ff0019169055604051600181527f7f26b83ff96e1f2b6a682f133852f6798a09c465da95921460cefb38474024989060200160405180910390a1505050565b33610937610470565b6001600160a01b03161461095d5760405162461bcd60e51b815260040161064890612312565b600081116109a65760405162461bcd60e51b81526020600482015260166024820152754c617073652063616e6e6f742062652030206461797360501b6044820152606401610648565b606855565b6108758282611ac6565b336109be610470565b6001600160a01b0316146109e45760405162461bcd60e51b815260040161064890612312565b606755565b336109f2610470565b6001600160a01b031614610a185760405162461bcd60e51b815260040161064890612312565b610a226000611af3565b565b6000818152606a602052604080822080546001909101549151630d7e149f60e01b815260048101929092526001600160a01b031690630d7e149f90602401602060405180830381865afa158015610a7f573d6000803e3d6000fd5b505050506040513d601f19601f82011682018060405250810190610aa39190612393565b92915050565b33610ab2610470565b6001600160a01b031614610ad85760405162461bcd60e51b815260040161064890612312565b6000818152606a602052604090206004810154829190610b0a5760405162461bcd60e51b8152600401610648906123ac565b80546001820154604051632e31150760e11b815260048101919091526003916001600160a01b031690635c622a0e90602401602060405180830381865afa158015610b59573d6000803e3d6000fd5b505050506040513d601f19601f82011682018060405250810190610b7d91906123fa565b6005811115610b8e57610b8e6123d5565b14610bab5760405162461bcd60e51b815260040161064890612415565b6000838152606a602052604090819020805460018201549251634e46f22360e01b815291926001600160a01b0390911691634e46f22391610bf29160040190815260200190565b600060405180830381600087803b158015610c0c57600080fd5b505af1158015610c20573d6000803e3d6000fd5b50505050610c2d84611b45565b610c3b600582016000611de0565b610c49600682016000611dfe565b50505050565b33610c58610470565b6001600160a01b031614610c7e5760405162461bcd60e51b815260040161064890612312565b606660009054906101000a90046001600160a01b03166001600160a01b031663bb7dd2fc6040518163ffffffff1660e01b8152600401600060405180830381600087803b158015610cce57600080fd5b505af1158015610c49573d6000803e3d6000fd5b33610ceb610470565b6001600160a01b031614610d115760405162461bcd60e51b815260040161064890612312565b610a22611bcc565b33610d22610470565b6001600160a01b031614610d485760405162461bcd60e51b815260040161064890612312565b6000828152606a602052604090206004810154839190610d7a5760405162461bcd60e51b8152600401610648906123ac565b80546001820154604051632e31150760e11b815260048101919091526003916001600160a01b031690635c622a0e90602401602060405180830381865afa158015610dc9573d6000803e3d6000fd5b505050506040513d601f19601f82011682018060405250810190610ded91906123fa565b6005811115610dfe57610dfe6123d5565b14610e1b5760405162461bcd60e51b815260040161064890612415565b6000848152606a6020526040902060048101548514610e4c5760405162461bcd60e51b8152600401610648906123ac565b80546001820154604051630d7e149f60e01b81526001600160a01b0390921691630d7e149f91610e829160040190815260200190565b602060405180830381865afa158015610e9f573d6000803e3d6000fd5b505050506040513d601f19601f82011682018060405250810190610ec39190612393565b4211610efe5760405162461bcd60e51b815260206004820152600a602482015269151a5b595b1bd8dad95960b21b6044820152606401610648565b805460018201546006830180546001600160a01b03909316926387dfee5792919088908110610f2f57610f2f612448565b906000526020600020016040518363ffffffff1660e01b8152600401610f5692919061249e565b600060405180830381600087803b158015610f7057600080fd5b505af1158015610f84573d6000803e3d6000fd5b50505050610f928585611c1c565b5050505050565b6000818152606a602052604081206004015415610fc657506000908152606a602052604090206002015490565b505060675490565b919050565b6000610fde82610a24565b6000838152606a6020526040902060030154610ffa9190611eea565b421192915050565b3361100b610470565b6001600160a01b0316146110315760405162461bcd60e51b815260040161064890612312565b6001600160a01b0381166110965760405162461bcd60e51b815260206004820152602660248201527f4f776e61626c653a206e6577206f776e657220697320746865207a65726f206160448201526564647265737360d01b6064820152608401610648565b61109f81611af3565b50565b6000846001600160a01b0316636cc6cde16040518163ffffffff1660e01b8152600401602060405180830381865afa1580156110e2573d6000803e3d6000fd5b505050506040513d601f19601f8201168201806040525081019061110691906124bf565b90506001600160a01b03811630146111535760405162461bcd60e51b815260206004820152601060248201526f2bb937b7339030b93134ba3930ba37b960811b6044820152606401610648565b604051632e31150760e11b8152600481018590526000906001600160a01b03871690635c622a0e90602401602060405180830381865afa15801561119b573d6000803e3d6000fd5b505050506040513d601f19601f820116820180604052508101906111bf91906123fa565b905060028160058111156111d5576111d56123d5565b14806111f2575060038160058111156111f0576111f06123d5565b145b61124f5760405162461bcd60e51b815260206004820152602860248201527f436f6e646974696f6e2073746174757320696e76616c696420666f722061726260448201526734ba3930ba34b7b760c11b6064820152608401610648565b604051630d7e149f60e01b8152600481018690526001600160a01b03871690630d7e149f90602401602060405180830381865afa158015611294573d6000803e3d6000fd5b505050506040513d601f19601f820116820180604052508101906112b89190612393565b42106112f95760405162461bcd60e51b815260206004820152601060248201526f151a5b595b1bd8dac8195b185c1cd95960821b6044820152606401610648565b604080516001600160a01b038816602082015290810186905260009060600160405160208183030381529060405280519060200120905061133981610f99565b34101561137b5760405162461bcd60e51b815260206004820152601060248201526f496e73756666696369656e742066656560801b6044820152606401610648565b6067546113889034612347565b33600090815260696020526040812080549091906113a7908490611eea565b90915550506000818152606a60205260409020600481015461152557600481810183905581546001600160a01b0319166001600160a01b038a16908117835560018301899055606754600284015560685460038401556040805163aced166160e01b81529051600585019363aced1661928082019260209290918290030181865afa15801561143a573d6000803e3d6000fd5b505050506040513d601f19601f8201168201806040525081019061145e91906124bf565b81546001810183556000928352602083200180546001600160a01b0319166001600160a01b0392831617905560405163f24fc90360e01b8152600481018a9052908a169063f24fc90390602401600060405180830381865afa1580156114c8573d6000803e3d6000fd5b505050506040513d6000823e601f3d908101601f191682016040526114f091908101906124dc565b608081015160068401805460018101825560009182526020918290208351949550611522949101929190910190611e1c565b50505b600581018054600181810183556000928352602080842090920180546001600160a01b0319163317905560068401805491820181558352912061156a91018787611e67565b506040516331402a5760e01b8152600481018890526001600160a01b038916906331402a5790602401600060405180830381600087803b1580156115ad57600080fd5b505af11580156115c1573d6000803e3d6000fd5b505050505050505050505050565b6000818152606a6020526040902060048101548291906116015760405162461bcd60e51b8152600401610648906123ac565b80546001820154604051632e31150760e11b815260048101919091526003916001600160a01b031690635c622a0e90602401602060405180830381865afa158015611650573d6000803e3d6000fd5b505050506040513d601f19601f8201168201806040525081019061167491906123fa565b6005811115611685576116856123d5565b146116a25760405162461bcd60e51b815260040161064890612415565b6000838152606a60209081526040808320815160e08101835281546001600160a01b0316815260018201548185015260028201548184015260038201546060820152600482015460808201526005820180548451818702810187019095528085529194929360a086019390929083018282801561174857602002820191906000526020600020905b81546001600160a01b0316815260019091019060200180831161172a575b5050505050815260200160068201805480602002602001604051908101604052809291908181526020016000905b828210156117e2576000848152602090819020830180546040805182850281018501909152818152928301828280156117ce57602002820191906000526020600020905b8154815260200190600101908083116117ba575b505050505081526020019060010190611776565b505050508152505090506117f584610fd3565b61182e5760405162461bcd60e51b815260206004820152600a602482015269139bdd081b185c1cd95960b21b6044820152606401610648565b6000848152606a602090815260408083205491840151905163f24fc90360e01b81526001600160a01b039092169163f24fc903916118729160040190815260200190565b600060405180830381865afa15801561188f573d6000803e3d6000fd5b505050506040513d6000823e601f3d908101601f191682016040526118b791908101906124dc565b8251602084015160808301516040516387dfee5760e01b81529394506001600160a01b03909216926387dfee57926118f292916004016125e0565b600060405180830381600087803b15801561190c57600080fd5b505af1158015611920573d6000803e3d6000fd5b5050505061192d85611b45565b610f92611bcc565b6001600160a01b03163b151590565b6040516387dfee5760e01b81526001600160a01b038416906387dfee579061197290859085906004016125e0565b600060405180830381600087803b15801561198c57600080fd5b505af11580156119a0573d6000803e3d6000fd5b50505050505050565b6040516331402a5760e01b8152600481018290526001600160a01b038316906331402a57906024015b600060405180830381600087803b1580156119ec57600080fd5b505af1158015611a00573d6000803e3d6000fd5b505050505050565b60008054610100900460ff1615611a56578160ff166001148015611a325750611a3030611935565b155b611a4e5760405162461bcd60e51b81526004016106489061262e565b506000919050565b60005460ff808416911610611a7d5760405162461bcd60e51b81526004016106489061262e565b506000805460ff191660ff92909216919091179055600190565b600054610100900460ff16611abe5760405162461bcd60e51b81526004016106489061267c565b610a22611db0565b604051634e46f22360e01b8152600481018290526001600160a01b03831690634e46f223906024016119d2565b603380546001600160a01b038381166001600160a01b0319831681179093556040519116919082907f8be0079c531659141344cd1fd0a4f28419497f9722a3daafe3b4186f6b6457e090600090a35050565b6000818152606a6020526040902060015b60058201548110156106d657816002015460696000846005018481548110611b8057611b80612448565b60009182526020808320909101546001600160a01b0316835282019290925260400181208054909190611bb4908490611eea565b90915550819050611bc4816126c7565b915050611b56565b606660009054906101000a90046001600160a01b03166001600160a01b031663c5c102ac6040518163ffffffff1660e01b8152600401600060405180830381600087803b158015610cce57600080fd5b6000828152606a602052604081206005810154909190611c3e90600190612347565b8260020154611c4d91906126e0565b905060015b6005830154811015611d6857826006018481548110611c7357611c73612448565b90600052602060002001604051602001611c8d91906126ff565b60405160208183030381529060405280519060200120836006018281548110611cb857611cb8612448565b90600052602060002001604051602001611cd291906126ff565b6040516020818303038152906040528051906020012003611d5657826002015460696000856005018481548110611d0b57611d0b612448565b60009182526020808320909101546001600160a01b0316835282019290925260400181208054909190611d3f908490611eea565b90915550506002830154611d539083612347565b91505b80611d60816126c7565b915050611c52565b508060696000611d76610470565b6001600160a01b03166001600160a01b031681526020019081526020016000206000828254611da59190611eea565b909155505050505050565b600054610100900460ff16611dd75760405162461bcd60e51b81526004016106489061267c565b610a2233611af3565b508054600082559060005260206000209081019061109f9190611ea2565b508054600082559060005260206000209081019061109f9190611eb7565b828054828255906000526020600020908101928215611e57579160200282015b82811115611e57578251825591602001919060010190611e3c565b50611e63929150611ea2565b5090565b828054828255906000526020600020908101928215611e57579160200282015b82811115611e57578235825591602001919060010190611e87565b5b80821115611e635760008155600101611ea3565b80821115611e63576000611ecb8282611de0565b50600101611eb7565b634e487b7160e01b600052601160045260246000fd5b60008219821115611efd57611efd611ed4565b500190565b600060208284031215611f1457600080fd5b5035919050565b600082825180855260208086019550808260051b8401018186016000805b85811015611f8c57868403601f19018a52825180518086529086019086860190845b81811015611f7757835183529288019291880191600101611f5b565b50509a86019a94505091840191600101611f39565b509198975050505050505050565b60006020808352610100830160018060a01b0380865116838601528286015160408601526040860151606086015260608601516080860152608086015160a086015260a086015160e060c0870152828151808552610120880191508583019450600092505b8083101561202157845184168252938501936001929092019190850190611fff565b5060c0880151878203601f190160e0890152945061203f8186611f1b565b98975050505050505050565b6000806040838503121561205e57600080fd5b50508035926020909101359150565b6001600160a01b038116811461109f57600080fd5b60006020828403121561209457600080fd5b813561209f8161206d565b9392505050565b634e487b7160e01b600052604160045260246000fd5b60405160c081016001600160401b03811182821017156120de576120de6120a6565b60405290565b604051601f8201601f191681016001600160401b038111828210171561210c5761210c6120a6565b604052919050565b60006001600160401b0382111561212d5761212d6120a6565b5060051b60200190565b60008060006060848603121561214c57600080fd5b83356121578161206d565b9250602084810135925060408501356001600160401b0381111561217a57600080fd5b8501601f8101871361218b57600080fd5b803561219e61219982612114565b6120e4565b81815260059190911b820183019083810190898311156121bd57600080fd5b928401925b828410156121db578335825292840192908401906121c2565b80955050505050509250925092565b600080604083850312156121fd57600080fd5b82356122088161206d565b946020939093013593505050565b6000806020838503121561222957600080fd5b82356001600160401b038082111561224057600080fd5b818501915085601f83011261225457600080fd5b81358181111561226357600080fd5b86602082850101111561227557600080fd5b60209290920196919550909350505050565b6000806000806060858703121561229d57600080fd5b84356122a88161206d565b93506020850135925060408501356001600160401b03808211156122cb57600080fd5b818701915087601f8301126122df57600080fd5b8135818111156122ee57600080fd5b8860208260051b850101111561230357600080fd5b95989497505060200194505050565b6020808252818101527f4f776e61626c653a2063616c6c6572206973206e6f7420746865206f776e6572604082015260600190565b60008282101561235957612359611ed4565b500390565b60008060006060848603121561237357600080fd5b833561237e8161206d565b95602085013595506040909401359392505050565b6000602082840312156123a557600080fd5b5051919050565b6020808252600f908201526e496e76616c6964204469737075746560881b604082015260600190565b634e487b7160e01b600052602160045260246000fd5b805160068110610fce57600080fd5b60006020828403121561240c57600080fd5b61209f826123eb565b602080825260199082015278105c989a5d1c985d1a5bdb881b9bdd081c995c5d595cdd1959603a1b604082015260600190565b634e487b7160e01b600052603260045260246000fd5b6000815480845260208085019450836000528060002060005b8381101561249357815487529582019560019182019101612477565b509495945050505050565b8281526040602082015260006124b7604083018461245e565b949350505050565b6000602082840312156124d157600080fd5b815161209f8161206d565b600060208083850312156124ef57600080fd5b82516001600160401b038082111561250657600080fd5b9084019060c0828703121561251a57600080fd5b6125226120bc565b825161252d8161206d565b808252508383015184820152604083015160408201526060830151606082015260808301518281111561255f57600080fd5b83019150601f8201871361257257600080fd5b815161258061219982612114565b81815260059190911b8301850190858101908983111561259f57600080fd5b938601935b828510156125bd578451825293860193908601906125a4565b6080840152506125d1905060a084016123eb565b60a08201529695505050505050565b6000604082018483526020604081850152818551808452606086019150828701935060005b8181101561262157845183529383019391830191600101612605565b5090979650505050505050565b6020808252602e908201527f496e697469616c697a61626c653a20636f6e747261637420697320616c72656160408201526d191e481a5b9a5d1a585b1a5e995960921b606082015260800190565b6020808252602b908201527f496e697469616c697a61626c653a20636f6e7472616374206973206e6f74206960408201526a6e697469616c697a696e6760a81b606082015260800190565b6000600182016126d9576126d9611ed4565b5060010190565b60008160001904831182151516156126fa576126fa611ed4565b500290565b60208152600061209f602083018461245e56fea26469706673582212207566871619787c6ea08f80716743f318a2f750d5ca97a9528b42304ce882a88c64736f6c634300080d0033",
  "linkReferences": {},
  "deployedLinkReferences": {}
}