{
  "_format": "hh-sol-artifact-1",
  "contractName": "BasicArbitrator",
  "sourceName": "contracts/arbitration/BasicArbitrator.sol",
  "abi": [
    {
      "inputs": [],
      "stateMutability": "nonpayable",
      "type": "constructor"
    },
    {
      "anonymous": false,
      "inputs": [
        {
          "indexed": false,
          "internalType": "uint8",
          "name": "version",
          "type": "uint8"
        }
      ],
      "name": "Initialized",
      "type": "event"
    },
    {
      "anonymous": false,
      "inputs": [
        {
          "indexed": true,
          "internalType": "address",
          "name": "previousOwner",
          "type": "address"
        },
        {
          "indexed": true,
          "internalType": "address",
          "name": "newOwner",
          "type": "address"
        }
      ],
      "name": "OwnershipTransferred",
      "type": "event"
    },
    {
      "anonymous": false,
      "inputs": [
        {
          "indexed": true,
          "internalType": "address",
          "name": "to",
          "type": "address"
        },
        {
          "indexed": false,
          "internalType": "uint256",
          "name": "amount",
          "type": "uint256"
        }
      ],
      "name": "Withdrawal",
      "type": "event"
    },
    {
      "inputs": [
        {
          "internalType": "bytes32",
          "name": "disputeId",
          "type": "bytes32"
        },
        {
          "internalType": "uint256",
          "name": "choice",
          "type": "uint256"
        }
      ],
      "name": "arbitrate",
      "outputs": [],
      "stateMutability": "nonpayable",
      "type": "function"
    },
    {
      "inputs": [
        {
          "internalType": "bytes32",
          "name": "disputeId",
          "type": "bytes32"
        }
      ],
      "name": "arbitrateNull",
      "outputs": [],
      "stateMutability": "nonpayable",
      "type": "function"
    },
    {
      "inputs": [
        {
          "internalType": "address",
          "name": "",
          "type": "address"
        }
      ],
      "name": "balances",
      "outputs": [
        {
          "internalType": "uint256",
          "name": "",
          "type": "uint256"
        }
      ],
      "stateMutability": "view",
      "type": "function"
    },
    {
      "inputs": [],
      "name": "calculateInterface",
      "outputs": [
        {
          "internalType": "bytes4",
          "name": "",
          "type": "bytes4"
        }
      ],
      "stateMutability": "pure",
      "type": "function"
    },
    {
      "inputs": [
        {
          "internalType": "bytes32",
          "name": "disputeId",
          "type": "bytes32"
        }
      ],
      "name": "claimLapse",
      "outputs": [],
      "stateMutability": "nonpayable",
      "type": "function"
    },
    {
      "inputs": [
        {
          "internalType": "bytes32",
          "name": "disputeId",
          "type": "bytes32"
        },
        {
          "internalType": "uint256",
          "name": "extraTime",
          "type": "uint256"
        }
      ],
      "name": "extendLapse",
      "outputs": [],
      "stateMutability": "nonpayable",
      "type": "function"
    },
    {
      "inputs": [],
      "name": "fee",
      "outputs": [
        {
          "internalType": "uint256",
          "name": "",
          "type": "uint256"
        }
      ],
      "stateMutability": "view",
      "type": "function"
    },
    {
      "inputs": [
        {
          "internalType": "bytes32",
          "name": "disputeId",
          "type": "bytes32"
        }
      ],
      "name": "getDispute",
      "outputs": [
        {
          "components": [
            {
              "internalType": "contract ISolver",
              "name": "solver",
              "type": "address"
            },
            {
              "internalType": "uint256",
              "name": "conditionIndex",
              "type": "uint256"
            },
            {
              "internalType": "uint256",
              "name": "fee",
              "type": "uint256"
            },
            {
              "internalType": "uint256",
              "name": "lapse",
              "type": "uint256"
            },
            {
              "internalType": "bytes32",
              "name": "id",
              "type": "bytes32"
            },
            {
              "internalType": "address[]",
              "name": "disputers",
              "type": "address[]"
            },
            {
              "internalType": "uint256[][]",
              "name": "choices",
              "type": "uint256[][]"
            }
          ],
          "internalType": "struct BasicArbitrator.Dispute",
          "name": "dispute",
          "type": "tuple"
        }
      ],
      "stateMutability": "view",
      "type": "function"
    },
    {
      "inputs": [
        {
          "internalType": "bytes32",
          "name": "disputeId",
          "type": "bytes32"
        }
      ],
      "name": "getFee",
      "outputs": [
        {
          "internalType": "uint256",
          "name": "",
          "type": "uint256"
        }
      ],
      "stateMutability": "view",
      "type": "function"
    },
    {
      "inputs": [
        {
          "internalType": "bytes32",
          "name": "disputeId",
          "type": "bytes32"
        }
      ],
      "name": "getTimelock",
      "outputs": [
        {
          "internalType": "uint256",
          "name": "timelock",
          "type": "uint256"
        }
      ],
      "stateMutability": "view",
      "type": "function"
    },
    {
      "inputs": [],
      "name": "hideArbitrator",
      "outputs": [],
      "stateMutability": "nonpayable",
      "type": "function"
    },
    {
      "inputs": [
        {
          "internalType": "bytes",
          "name": "initParams",
          "type": "bytes"
        }
      ],
      "name": "init",
      "outputs": [],
      "stateMutability": "nonpayable",
      "type": "function"
    },
    {
      "inputs": [
        {
          "internalType": "bytes32",
          "name": "disputeId",
          "type": "bytes32"
        }
      ],
      "name": "isLapsed",
      "outputs": [
        {
          "internalType": "bool",
          "name": "",
          "type": "bool"
        }
      ],
      "stateMutability": "view",
      "type": "function"
    },
    {
      "inputs": [],
      "name": "lapse",
      "outputs": [
        {
          "internalType": "uint256",
          "name": "",
          "type": "uint256"
        }
      ],
      "stateMutability": "view",
      "type": "function"
    },
    {
      "inputs": [],
      "name": "owner",
      "outputs": [
        {
          "internalType": "address",
          "name": "",
          "type": "address"
        }
      ],
      "stateMutability": "view",
      "type": "function"
    },
    {
      "inputs": [],
      "name": "renounceOwnership",
      "outputs": [],
      "stateMutability": "nonpayable",
      "type": "function"
    },
    {
      "inputs": [
        {
          "internalType": "contract ISolver",
          "name": "solver",
          "type": "address"
        },
        {
          "internalType": "uint256",
          "name": "conditionIndex",
          "type": "uint256"
        },
        {
          "internalType": "uint256[]",
          "name": "desiredOutcome",
          "type": "uint256[]"
        }
      ],
      "name": "requestArbitration",
      "outputs": [],
      "stateMutability": "payable",
      "type": "function"
    },
    {
      "inputs": [
        {
          "internalType": "uint256",
          "name": "_fee",
          "type": "uint256"
        }
      ],
      "name": "setFee",
      "outputs": [],
      "stateMutability": "nonpayable",
      "type": "function"
    },
    {
      "inputs": [
        {
          "internalType": "uint256",
          "name": "_lapse",
          "type": "uint256"
        }
      ],
      "name": "setLapse",
      "outputs": [],
      "stateMutability": "nonpayable",
      "type": "function"
    },
    {
      "inputs": [
        {
          "internalType": "bytes4",
          "name": "interfaceId",
          "type": "bytes4"
        }
      ],
      "name": "supportsInterface",
      "outputs": [
        {
          "internalType": "bool",
          "name": "",
          "type": "bool"
        }
      ],
      "stateMutability": "pure",
      "type": "function"
    },
    {
      "inputs": [
        {
          "internalType": "address",
          "name": "newOwner",
          "type": "address"
        }
      ],
      "name": "transferOwnership",
      "outputs": [],
      "stateMutability": "nonpayable",
      "type": "function"
    },
    {
      "inputs": [],
      "name": "unhideArbitrator",
      "outputs": [],
      "stateMutability": "nonpayable",
      "type": "function"
    },
    {
      "inputs": [],
      "name": "withdraw",
      "outputs": [],
      "stateMutability": "nonpayable",
      "type": "function"
    },
    {
      "stateMutability": "payable",
      "type": "receive"
    }
  ],
  "bytecode": "0x60806040523480156200001157600080fd5b5060016065556200002162000027565b62000140565b6200003360ff62000036565b50565b60008054610100900460ff16156200009f578160ff1660011480156200006f57506200006d30620000e360201b6200192c1760201c565b155b620000975760405162461bcd60e51b81526004016200008e90620000f2565b60405180910390fd5b506000919050565b60005460ff808416911610620000c95760405162461bcd60e51b81526004016200008e90620000f2565b506000805460ff191660ff92909216919091179055600190565b6001600160a01b03163b151590565b6020808252602e908201527f496e697469616c697a61626c653a20636f6e747261637420697320616c72656160408201526d191e481a5b9a5d1a585b1a5e995960921b606082015260800190565b61258280620001506000396000f3fe6080604052600436106101145760003560e01c806301ffc9a714610162578063136ba6aa14610197578063222cdce1146101c457806327e235e3146101e65780633ccfd60b146102215780634ddf47d414610236578063525811f0146102565780635746c2451461028457806369fe0e2d146102a4578063715018a6146102c457806379a55806146102d95780637f6e7d2f146102f95780638da5cb5b1461030f578063b126bd321461033c578063bb7dd2fc1461035c578063c5c102ac14610371578063cb2e721214610386578063ddca3f43146103a6578063e5f3d3a5146103bc578063ed1b5b00146103dc578063f2fde38b146103fc578063f5e35bb81461041c578063fb45d1341461042f57600080fd5b3661015d57346069600061012661044f565b6001600160a01b03166001600160a01b0316815260200190815260200160002060008282546101559190611df0565b925050819055005b600080fd5b34801561016e57600080fd5b5061018261017d366004611e08565b61045e565b60405190151581526020015b60405180910390f35b3480156101a357600080fd5b506101b76101b2366004611e39565b610498565b60405161018e9190611ece565b3480156101d057600080fd5b506101e46101df366004611f7f565b610632565b005b3480156101f257600080fd5b50610213610201366004611fb6565b60696020526000908152604090205481565b60405190815260200161018e565b34801561022d57600080fd5b506101e46106e4565b34801561024257600080fd5b506101e4610251366004611fd3565b610874565b34801561026257600080fd5b5061026b61092a565b6040516001600160e01b0319909116815260200161018e565b34801561029057600080fd5b506101e461029f366004611e39565b610935565b3480156102b057600080fd5b506101e46102bf366004611e39565b6109b2565b3480156102d057600080fd5b506101e46109e6565b3480156102e557600080fd5b506102136102f4366004611e39565b610a21565b34801561030557600080fd5b5061021360685481565b34801561031b57600080fd5b5061032461044f565b6040516001600160a01b03909116815260200161018e565b34801561034857600080fd5b506101e4610357366004611e39565b610aa0565b34801561036857600080fd5b506101e4610c46565b34801561037d57600080fd5b506101e4610cd9565b34801561039257600080fd5b506101e46103a1366004611f7f565b610d10565b3480156103b257600080fd5b5061021360675481565b3480156103c857600080fd5b506102136103d7366004611e39565b610f90565b3480156103e857600080fd5b506101826103f7366004611e39565b610fca565b34801561040857600080fd5b506101e4610417366004611fb6565b610ff9565b6101e461042a366004612044565b611099565b34801561043b57600080fd5b506101e461044a366004611e39565b6115c6565b6033546001600160a01b031690565b60006001600160e01b031982166301ffc9a760e01b1480610492575061048261092a565b6001600160e01b03198381169116145b92915050565b6104e46040518060e0016040528060006001600160a01b031681526020016000815260200160008152602001600081526020016000801916815260200160608152602001606081525090565b6000828152606a6020908152604091829020825160e08101845281546001600160a01b0316815260018201548184015260028201548185015260038201546060820152600482015460808201526005820180548551818602810186019096528086529194929360a0860193929083018282801561058a57602002820191906000526020600020905b81546001600160a01b0316815260019091019060200180831161056c575b5050505050815260200160068201805480602002602001604051908101604052809291908181526020016000905b828210156106245760008481526020908190208301805460408051828502810185019091528181529283018282801561061057602002820191906000526020600020905b8154815260200190600101908083116105fc575b5050505050815260200190600101906105b8565b505050915250909392505050565b3361063b61044f565b6001600160a01b03161461066a5760405162461bcd60e51b8152600401610661906120cf565b60405180910390fd5b6000828152606a60205260409020600401546106ba5760405162461bcd60e51b815260206004820152600f60248201526e496e76616c6964206469737075746560881b6044820152606401610661565b6000828152606a6020526040812060030180548392906106db908490611df0565b90915550505050565b6002606554036107365760405162461bcd60e51b815260206004820152601f60248201527f5265656e7472616e637947756172643a207265656e7472616e742063616c6c006044820152606401610661565b6002606555336000908152606960205260409020546107845760405162461bcd60e51b815260206004820152600a6024820152694e6f2062616c616e636560b01b6044820152606401610661565b3360009081526069602052604081208054918291906107a38380612104565b90915550506040516000908190339084908381818185875af1925050503d80600081146107ec576040519150601f19603f3d011682016040523d82523d6000602084013e6107f1565b606091505b5091509150816108355760405162461bcd60e51b815260206004820152600f60248201526e151c985b9cd9995c8819985a5b1959608a1b6044820152606401610661565b60405183815233907f7fcf532c15f0a6db0bd6d0e038bea71d30d808c7d98cb3bf7268a95bf5081b659060200160405180910390a25050600160655550565b6000610880600161193b565b90508015610898576000805461ff0019166101001790555b600080806108a88587018761211b565b606680546001600160a01b0319163317905560678290556068819055919450925090506108d36119ca565b6108dc83610ff9565b5050508015610925576000805461ff0019169055604051600181527f7f26b83ff96e1f2b6a682f133852f6798a09c465da95921460cefb38474024989060200160405180910390a15b505050565b6311fd729360e31b90565b3361093e61044f565b6001600160a01b0316146109645760405162461bcd60e51b8152600401610661906120cf565b600081116109ad5760405162461bcd60e51b81526020600482015260166024820152754c617073652063616e6e6f742062652030206461797360501b6044820152606401610661565b606855565b336109bb61044f565b6001600160a01b0316146109e15760405162461bcd60e51b8152600401610661906120cf565b606755565b336109ef61044f565b6001600160a01b031614610a155760405162461bcd60e51b8152600401610661906120cf565b610a1f60006119f9565b565b6000818152606a602052604080822080546001909101549151630d7e149f60e01b815260048101929092526001600160a01b031690630d7e149f90602401602060405180830381865afa158015610a7c573d6000803e3d6000fd5b505050506040513d601f19601f820116820180604052508101906104929190612150565b33610aa961044f565b6001600160a01b031614610acf5760405162461bcd60e51b8152600401610661906120cf565b6000818152606a602052604090206004810154829190610b015760405162461bcd60e51b815260040161066190612169565b80546001820154604051632e31150760e11b815260048101919091526003916001600160a01b031690635c622a0e90602401602060405180830381865afa158015610b50573d6000803e3d6000fd5b505050506040513d601f19601f82011682018060405250810190610b7491906121b7565b6005811115610b8557610b85612192565b14610ba25760405162461bcd60e51b8152600401610661906121d2565b6000838152606a602052604090819020805460018201549251634e46f22360e01b815291926001600160a01b0390911691634e46f22391610be99160040190815260200190565b600060405180830381600087803b158015610c0357600080fd5b505af1158015610c17573d6000803e3d6000fd5b50505050610c2484611a4b565b610c32600582016000611ce6565b610c40600682016000611d04565b50505050565b33610c4f61044f565b6001600160a01b031614610c755760405162461bcd60e51b8152600401610661906120cf565b606660009054906101000a90046001600160a01b03166001600160a01b031663bb7dd2fc6040518163ffffffff1660e01b8152600401600060405180830381600087803b158015610cc557600080fd5b505af1158015610c40573d6000803e3d6000fd5b33610ce261044f565b6001600160a01b031614610d085760405162461bcd60e51b8152600401610661906120cf565b610a1f611ad2565b33610d1961044f565b6001600160a01b031614610d3f5760405162461bcd60e51b8152600401610661906120cf565b6000828152606a602052604090206004810154839190610d715760405162461bcd60e51b815260040161066190612169565b80546001820154604051632e31150760e11b815260048101919091526003916001600160a01b031690635c622a0e90602401602060405180830381865afa158015610dc0573d6000803e3d6000fd5b505050506040513d601f19601f82011682018060405250810190610de491906121b7565b6005811115610df557610df5612192565b14610e125760405162461bcd60e51b8152600401610661906121d2565b6000848152606a6020526040902060048101548514610e435760405162461bcd60e51b815260040161066190612169565b80546001820154604051630d7e149f60e01b81526001600160a01b0390921691630d7e149f91610e799160040190815260200190565b602060405180830381865afa158015610e96573d6000803e3d6000fd5b505050506040513d601f19601f82011682018060405250810190610eba9190612150565b4211610ef55760405162461bcd60e51b815260206004820152600a602482015269151a5b595b1bd8dad95960b21b6044820152606401610661565b805460018201546006830180546001600160a01b03909316926387dfee5792919088908110610f2657610f26612205565b906000526020600020016040518363ffffffff1660e01b8152600401610f4d92919061225b565b600060405180830381600087803b158015610f6757600080fd5b505af1158015610f7b573d6000803e3d6000fd5b50505050610f898585611b22565b5050505050565b6000818152606a602052604081206004015415610fbd57506000908152606a602052604090206002015490565b505060675490565b919050565b6000610fd582610a21565b6000838152606a6020526040902060030154610ff19190611df0565b421192915050565b3361100261044f565b6001600160a01b0316146110285760405162461bcd60e51b8152600401610661906120cf565b6001600160a01b03811661108d5760405162461bcd60e51b815260206004820152602660248201527f4f776e61626c653a206e6577206f776e657220697320746865207a65726f206160448201526564647265737360d01b6064820152608401610661565b611096816119f9565b50565b6000846001600160a01b0316636cc6cde16040518163ffffffff1660e01b8152600401602060405180830381865afa1580156110d9573d6000803e3d6000fd5b505050506040513d601f19601f820116820180604052508101906110fd919061227c565b90506001600160a01b038116301461114a5760405162461bcd60e51b815260206004820152601060248201526f2bb937b7339030b93134ba3930ba37b960811b6044820152606401610661565b604051632e31150760e11b8152600481018590526000906001600160a01b03871690635c622a0e90602401602060405180830381865afa158015611192573d6000803e3d6000fd5b505050506040513d601f19601f820116820180604052508101906111b691906121b7565b905060028160058111156111cc576111cc612192565b14806111e9575060038160058111156111e7576111e7612192565b145b6112465760405162461bcd60e51b815260206004820152602860248201527f436f6e646974696f6e2073746174757320696e76616c696420666f722061726260448201526734ba3930ba34b7b760c11b6064820152608401610661565b604051630d7e149f60e01b8152600481018690526001600160a01b03871690630d7e149f90602401602060405180830381865afa15801561128b573d6000803e3d6000fd5b505050506040513d601f19601f820116820180604052508101906112af9190612150565b42106112f05760405162461bcd60e51b815260206004820152601060248201526f151a5b595b1bd8dac8195b185c1cd95960821b6044820152606401610661565b604080516001600160a01b038816602082015290810186905260009060600160405160208183030381529060405280519060200120905061133081610f90565b3410156113725760405162461bcd60e51b815260206004820152601060248201526f496e73756666696369656e742066656560801b6044820152606401610661565b60675461137f9034612104565b336000908152606960205260408120805490919061139e908490611df0565b90915550506000818152606a60205260409020600481015461151c57600481810183905581546001600160a01b0319166001600160a01b038a16908117835560018301899055606754600284015560685460038401556040805163aced166160e01b81529051600585019363aced1661928082019260209290918290030181865afa158015611431573d6000803e3d6000fd5b505050506040513d601f19601f82011682018060405250810190611455919061227c565b81546001810183556000928352602083200180546001600160a01b0319166001600160a01b0392831617905560405163f24fc90360e01b8152600481018a9052908a169063f24fc90390602401600060405180830381865afa1580156114bf573d6000803e3d6000fd5b505050506040513d6000823e601f3d908101601f191682016040526114e79190810190612307565b608081015160068401805460018101825560009182526020918290208351949550611519949101929190910190611d22565b50505b600581018054600181810183556000928352602080842090920180546001600160a01b0319163317905560068401805491820181558352912061156191018787611d6d565b50604051634dab5e6960e01b8152600481018890526001600160a01b03891690634dab5e6990602401600060405180830381600087803b1580156115a457600080fd5b505af11580156115b8573d6000803e3d6000fd5b505050505050505050505050565b6000818152606a6020526040902060048101548291906115f85760405162461bcd60e51b815260040161066190612169565b80546001820154604051632e31150760e11b815260048101919091526003916001600160a01b031690635c622a0e90602401602060405180830381865afa158015611647573d6000803e3d6000fd5b505050506040513d601f19601f8201168201806040525081019061166b91906121b7565b600581111561167c5761167c612192565b146116995760405162461bcd60e51b8152600401610661906121d2565b6000838152606a60209081526040808320815160e08101835281546001600160a01b0316815260018201548185015260028201548184015260038201546060820152600482015460808201526005820180548451818702810187019095528085529194929360a086019390929083018282801561173f57602002820191906000526020600020905b81546001600160a01b03168152600190910190602001808311611721575b5050505050815260200160068201805480602002602001604051908101604052809291908181526020016000905b828210156117d9576000848152602090819020830180546040805182850281018501909152818152928301828280156117c557602002820191906000526020600020905b8154815260200190600101908083116117b1575b50505050508152602001906001019061176d565b505050508152505090506117ec84610fca565b6118255760405162461bcd60e51b815260206004820152600a602482015269139bdd081b185c1cd95960b21b6044820152606401610661565b6000848152606a602090815260408083205491840151905163f24fc90360e01b81526001600160a01b039092169163f24fc903916118699160040190815260200190565b600060405180830381865afa158015611886573d6000803e3d6000fd5b505050506040513d6000823e601f3d908101601f191682016040526118ae9190810190612307565b8251602084015160808301516040516387dfee5760e01b81529394506001600160a01b03909216926387dfee57926118e9929160040161241a565b600060405180830381600087803b15801561190357600080fd5b505af1158015611917573d6000803e3d6000fd5b5050505061192485611a4b565b610f89611ad2565b6001600160a01b03163b151590565b60008054610100900460ff1615611989578160ff16600114801561196557506119633061192c565b155b6119815760405162461bcd60e51b815260040161066190612468565b506000919050565b60005460ff8084169116106119b05760405162461bcd60e51b815260040161066190612468565b506000805460ff191660ff92909216919091179055600190565b600054610100900460ff166119f15760405162461bcd60e51b8152600401610661906124b6565b610a1f611cb6565b603380546001600160a01b038381166001600160a01b0319831681179093556040519116919082907f8be0079c531659141344cd1fd0a4f28419497f9722a3daafe3b4186f6b6457e090600090a35050565b6000818152606a6020526040902060015b600582015481101561092557816002015460696000846005018481548110611a8657611a86612205565b60009182526020808320909101546001600160a01b0316835282019290925260400181208054909190611aba908490611df0565b90915550819050611aca81612501565b915050611a5c565b606660009054906101000a90046001600160a01b03166001600160a01b031663c5c102ac6040518163ffffffff1660e01b8152600401600060405180830381600087803b158015610cc557600080fd5b6000828152606a602052604081206005810154909190611b4490600190612104565b8260020154611b53919061251a565b905060015b6005830154811015611c6e57826006018481548110611b7957611b79612205565b90600052602060002001604051602001611b939190612539565b60405160208183030381529060405280519060200120836006018281548110611bbe57611bbe612205565b90600052602060002001604051602001611bd89190612539565b6040516020818303038152906040528051906020012003611c5c57826002015460696000856005018481548110611c1157611c11612205565b60009182526020808320909101546001600160a01b0316835282019290925260400181208054909190611c45908490611df0565b90915550506002830154611c599083612104565b91505b80611c6681612501565b915050611b58565b508060696000611c7c61044f565b6001600160a01b03166001600160a01b031681526020019081526020016000206000828254611cab9190611df0565b909155505050505050565b600054610100900460ff16611cdd5760405162461bcd60e51b8152600401610661906124b6565b610a1f336119f9565b50805460008255906000526020600020908101906110969190611da8565b50805460008255906000526020600020908101906110969190611dbd565b828054828255906000526020600020908101928215611d5d579160200282015b82811115611d5d578251825591602001919060010190611d42565b50611d69929150611da8565b5090565b828054828255906000526020600020908101928215611d5d579160200282015b82811115611d5d578235825591602001919060010190611d8d565b5b80821115611d695760008155600101611da9565b80821115611d69576000611dd18282611ce6565b50600101611dbd565b634e487b7160e01b600052601160045260246000fd5b60008219821115611e0357611e03611dda565b500190565b600060208284031215611e1a57600080fd5b81356001600160e01b031981168114611e3257600080fd5b9392505050565b600060208284031215611e4b57600080fd5b5035919050565b600081518084526020808501808196508360051b810191508286016000805b86811015611ec0578385038a52825180518087529087019087870190845b81811015611eab57835183529289019291890191600101611e8f565b50509a87019a95505091850191600101611e71565b509298975050505050505050565b60006020808352610100830160018060a01b0380865116838601528286015160408601526040860151606086015260608601516080860152608086015160a086015260a086015160e060c0870152828151808552610120880191508583019450600092505b80831015611f5557845184168252938501936001929092019190850190611f33565b5060c0880151878203601f190160e08901529450611f738186611e52565b98975050505050505050565b60008060408385031215611f9257600080fd5b50508035926020909101359150565b6001600160a01b038116811461109657600080fd5b600060208284031215611fc857600080fd5b8135611e3281611fa1565b60008060208385031215611fe657600080fd5b82356001600160401b0380821115611ffd57600080fd5b818501915085601f83011261201157600080fd5b81358181111561202057600080fd5b86602082850101111561203257600080fd5b60209290920196919550909350505050565b6000806000806060858703121561205a57600080fd5b843561206581611fa1565b93506020850135925060408501356001600160401b038082111561208857600080fd5b818701915087601f83011261209c57600080fd5b8135818111156120ab57600080fd5b8860208260051b85010111156120c057600080fd5b95989497505060200194505050565b6020808252818101527f4f776e61626c653a2063616c6c6572206973206e6f7420746865206f776e6572604082015260600190565b60008282101561211657612116611dda565b500390565b60008060006060848603121561213057600080fd5b833561213b81611fa1565b95602085013595506040909401359392505050565b60006020828403121561216257600080fd5b5051919050565b6020808252600f908201526e496e76616c6964204469737075746560881b604082015260600190565b634e487b7160e01b600052602160045260246000fd5b805160068110610fc557600080fd5b6000602082840312156121c957600080fd5b611e32826121a8565b602080825260199082015278105c989a5d1c985d1a5bdb881b9bdd081c995c5d595cdd1959603a1b604082015260600190565b634e487b7160e01b600052603260045260246000fd5b6000815480845260208085019450836000528060002060005b8381101561225057815487529582019560019182019101612234565b509495945050505050565b828152604060208201526000612274604083018461221b565b949350505050565b60006020828403121561228e57600080fd5b8151611e3281611fa1565b634e487b7160e01b600052604160045260246000fd5b60405160c081016001600160401b03811182821017156122d1576122d1612299565b60405290565b604051601f8201601f191681016001600160401b03811182821017156122ff576122ff612299565b604052919050565b6000602080838503121561231a57600080fd5b82516001600160401b038082111561233157600080fd5b9084019060c0828703121561234557600080fd5b61234d6122af565b825161235881611fa1565b808252508383015184820152604083015160408201526060830151606082015260808301518281111561238a57600080fd5b8301601f8101881361239b57600080fd5b8051838111156123ad576123ad612299565b8060051b93506123be8685016122d7565b818152938201860193868101908a8611156123d857600080fd5b928701925b858410156123f6578351825292870192908701906123dd565b60808501525061240b91505060a084016121a8565b60a08201529695505050505050565b6000604082018483526020604081850152818551808452606086019150828701935060005b8181101561245b5784518352938301939183019160010161243f565b5090979650505050505050565b6020808252602e908201527f496e697469616c697a61626c653a20636f6e747261637420697320616c72656160408201526d191e481a5b9a5d1a585b1a5e995960921b606082015260800190565b6020808252602b908201527f496e697469616c697a61626c653a20636f6e7472616374206973206e6f74206960408201526a6e697469616c697a696e6760a81b606082015260800190565b60006001820161251357612513611dda565b5060010190565b600081600019048311821515161561253457612534611dda565b500290565b602081526000611e32602083018461221b56fea2646970667358221220ce2ab775a605a7187413f1e99437a0dd82fb1bf6fa10d8f55b9f22567c36722964736f6c634300080d0033",
  "linkReferences": {},
  "deployedLinkReferences": {}
}