{
  "_format": "hh-sol-artifact-1",
  "contractName": "IPFSSolutionsHub",
  "sourceName": "contracts/IPFSSolutionsHub.sol",
  "abi": [
    {
      "inputs": [
        {
          "internalType": "address",
          "name": "_factoryAddress",
          "type": "address"
        }
      ],
      "stateMutability": "nonpayable",
      "type": "constructor"
    },
    {
      "anonymous": false,
      "inputs": [
        {
          "indexed": false,
          "internalType": "bytes32",
          "name": "id",
          "type": "bytes32"
        }
      ],
      "name": "CreateSolution",
      "type": "event"
    },
    {
      "anonymous": false,
      "inputs": [
        {
          "indexed": false,
          "internalType": "bytes32",
          "name": "id",
          "type": "bytes32"
        }
      ],
      "name": "ExecuteSolution",
      "type": "event"
    },
    {
      "inputs": [
        {
          "internalType": "bytes32",
          "name": "_id",
          "type": "bytes32"
        },
        {
          "internalType": "contract IERC20",
          "name": "_collateralToken",
          "type": "address"
        },
        {
          "components": [
            {
              "internalType": "contract Solver",
              "name": "implementation",
              "type": "address"
            },
            {
              "internalType": "address",
              "name": "keeper",
              "type": "address"
            },
            {
              "internalType": "address",
              "name": "arbitrator",
              "type": "address"
            },
            {
              "internalType": "uint256",
              "name": "timelockSeconds",
              "type": "uint256"
            },
            {
              "internalType": "bytes",
              "name": "data",
              "type": "bytes"
            },
            {
              "components": [
                {
                  "internalType": "uint256",
                  "name": "executions",
                  "type": "uint256"
                },
                {
                  "internalType": "enum SolverLib.IngestType",
                  "name": "ingestType",
                  "type": "uint8"
                },
                {
                  "internalType": "bytes32",
                  "name": "slot",
                  "type": "bytes32"
                },
                {
                  "internalType": "uint256",
                  "name": "solverIndex",
                  "type": "uint256"
                },
                {
                  "internalType": "bytes",
                  "name": "data",
                  "type": "bytes"
                }
              ],
              "internalType": "struct SolverLib.Ingest[]",
              "name": "ingests",
              "type": "tuple[]"
            },
            {
              "components": [
                {
                  "internalType": "contract IERC20",
                  "name": "collateralToken",
                  "type": "address"
                },
                {
                  "internalType": "uint256",
                  "name": "outcomeSlots",
                  "type": "uint256"
                },
                {
                  "internalType": "uint256",
                  "name": "parentCollectionIndexSet",
                  "type": "uint256"
                },
                {
                  "internalType": "bytes32",
                  "name": "amountSlot",
                  "type": "bytes32"
                },
                {
                  "internalType": "uint256[]",
                  "name": "partition",
                  "type": "uint256[]"
                },
                {
                  "components": [
                    {
                      "internalType": "bytes32",
                      "name": "recipientAddressSlot",
                      "type": "bytes32"
                    },
                    {
                      "internalType": "bytes32[]",
                      "name": "recipientAmountSlots",
                      "type": "bytes32[]"
                    }
                  ],
                  "internalType": "struct SolverLib.Allocation[]",
                  "name": "allocations",
                  "type": "tuple[]"
                },
                {
                  "components": [
                    {
                      "internalType": "bytes32",
                      "name": "digest",
                      "type": "bytes32"
                    },
                    {
                      "internalType": "uint8",
                      "name": "hashFunction",
                      "type": "uint8"
                    },
                    {
                      "internalType": "uint8",
                      "name": "size",
                      "type": "uint8"
                    }
                  ],
                  "internalType": "struct SolverLib.Multihash[]",
                  "name": "outcomeURIs",
                  "type": "tuple[]"
                }
              ],
              "internalType": "struct SolverLib.ConditionBase",
              "name": "conditionBase",
              "type": "tuple"
            }
          ],
          "internalType": "struct SolverLib.Config[]",
          "name": "_solverConfigs",
          "type": "tuple[]"
        },
        {
          "components": [
            {
              "internalType": "bytes32",
              "name": "digest",
              "type": "bytes32"
            },
            {
              "internalType": "uint8",
              "name": "hashFunction",
              "type": "uint8"
            },
            {
              "internalType": "uint8",
              "name": "size",
              "type": "uint8"
            }
          ],
          "internalType": "struct SolverLib.Multihash",
          "name": "_solverConfigsCID",
          "type": "tuple"
        }
      ],
      "name": "createSolution",
      "outputs": [
        {
          "internalType": "bytes32",
          "name": "_solutionId",
          "type": "bytes32"
        }
      ],
      "stateMutability": "nonpayable",
      "type": "function"
    },
    {
      "inputs": [
        {
          "internalType": "bytes32",
          "name": "_proposalId",
          "type": "bytes32"
        },
        {
          "internalType": "bytes32",
          "name": "_solutionId",
          "type": "bytes32"
        },
        {
          "components": [
            {
              "internalType": "contract Solver",
              "name": "implementation",
              "type": "address"
            },
            {
              "internalType": "address",
              "name": "keeper",
              "type": "address"
            },
            {
              "internalType": "address",
              "name": "arbitrator",
              "type": "address"
            },
            {
              "internalType": "uint256",
              "name": "timelockSeconds",
              "type": "uint256"
            },
            {
              "internalType": "bytes",
              "name": "data",
              "type": "bytes"
            },
            {
              "components": [
                {
                  "internalType": "uint256",
                  "name": "executions",
                  "type": "uint256"
                },
                {
                  "internalType": "enum SolverLib.IngestType",
                  "name": "ingestType",
                  "type": "uint8"
                },
                {
                  "internalType": "bytes32",
                  "name": "slot",
                  "type": "bytes32"
                },
                {
                  "internalType": "uint256",
                  "name": "solverIndex",
                  "type": "uint256"
                },
                {
                  "internalType": "bytes",
                  "name": "data",
                  "type": "bytes"
                }
              ],
              "internalType": "struct SolverLib.Ingest[]",
              "name": "ingests",
              "type": "tuple[]"
            },
            {
              "components": [
                {
                  "internalType": "contract IERC20",
                  "name": "collateralToken",
                  "type": "address"
                },
                {
                  "internalType": "uint256",
                  "name": "outcomeSlots",
                  "type": "uint256"
                },
                {
                  "internalType": "uint256",
                  "name": "parentCollectionIndexSet",
                  "type": "uint256"
                },
                {
                  "internalType": "bytes32",
                  "name": "amountSlot",
                  "type": "bytes32"
                },
                {
                  "internalType": "uint256[]",
                  "name": "partition",
                  "type": "uint256[]"
                },
                {
                  "components": [
                    {
                      "internalType": "bytes32",
                      "name": "recipientAddressSlot",
                      "type": "bytes32"
                    },
                    {
                      "internalType": "bytes32[]",
                      "name": "recipientAmountSlots",
                      "type": "bytes32[]"
                    }
                  ],
                  "internalType": "struct SolverLib.Allocation[]",
                  "name": "allocations",
                  "type": "tuple[]"
                },
                {
                  "components": [
                    {
                      "internalType": "bytes32",
                      "name": "digest",
                      "type": "bytes32"
                    },
                    {
                      "internalType": "uint8",
                      "name": "hashFunction",
                      "type": "uint8"
                    },
                    {
                      "internalType": "uint8",
                      "name": "size",
                      "type": "uint8"
                    }
                  ],
                  "internalType": "struct SolverLib.Multihash[]",
                  "name": "outcomeURIs",
                  "type": "tuple[]"
                }
              ],
              "internalType": "struct SolverLib.ConditionBase",
              "name": "conditionBase",
              "type": "tuple"
            }
          ],
          "internalType": "struct SolverLib.Config[]",
          "name": "solverConfigs",
          "type": "tuple[]"
        }
      ],
      "name": "executeSolution",
      "outputs": [],
      "stateMutability": "nonpayable",
      "type": "function"
    },
    {
      "inputs": [
        {
          "internalType": "bytes32",
          "name": "_proposalId",
          "type": "bytes32"
        },
        {
          "internalType": "bytes32",
          "name": "_solutionId",
          "type": "bytes32"
        }
      ],
      "name": "linkToProposal",
      "outputs": [],
      "stateMutability": "nonpayable",
      "type": "function"
    },
    {
      "inputs": [
        {
          "internalType": "bytes32",
          "name": "",
          "type": "bytes32"
        }
      ],
      "name": "solutions",
      "outputs": [
        {
          "internalType": "bool",
          "name": "executed",
          "type": "bool"
        },
        {
          "internalType": "contract IERC20",
          "name": "collateralToken",
          "type": "address"
        },
        {
          "internalType": "address",
          "name": "proposalHub",
          "type": "address"
        },
        {
          "internalType": "bytes32",
          "name": "proposalId",
          "type": "bytes32"
        },
        {
          "internalType": "bytes32",
          "name": "id",
          "type": "bytes32"
        },
        {
          "internalType": "bytes32",
          "name": "solverConfigsHash",
          "type": "bytes32"
        },
        {
          "components": [
            {
              "internalType": "bytes32",
              "name": "digest",
              "type": "bytes32"
            },
            {
              "internalType": "uint8",
              "name": "hashFunction",
              "type": "uint8"
            },
            {
              "internalType": "uint8",
              "name": "size",
              "type": "uint8"
            }
          ],
          "internalType": "struct SolverLib.Multihash",
          "name": "solverConfigsCID",
          "type": "tuple"
        }
      ],
      "stateMutability": "view",
      "type": "function"
    },
    {
      "inputs": [
        {
          "internalType": "bytes32",
          "name": "_solutionId",
          "type": "bytes32"
        },
        {
          "internalType": "uint256",
          "name": "_index",
          "type": "uint256"
        }
      ],
      "name": "solverFromIndex",
      "outputs": [
        {
          "internalType": "address",
          "name": "_address",
          "type": "address"
        }
      ],
      "stateMutability": "view",
      "type": "function"
    },
    {
      "inputs": [
        {
          "internalType": "bytes32",
          "name": "solutionId",
          "type": "bytes32"
        },
        {
          "components": [
            {
              "internalType": "contract Solver",
              "name": "implementation",
              "type": "address"
            },
            {
              "internalType": "address",
              "name": "keeper",
              "type": "address"
            },
            {
              "internalType": "address",
              "name": "arbitrator",
              "type": "address"
            },
            {
              "internalType": "uint256",
              "name": "timelockSeconds",
              "type": "uint256"
            },
            {
              "internalType": "bytes",
              "name": "data",
              "type": "bytes"
            },
            {
              "components": [
                {
                  "internalType": "uint256",
                  "name": "executions",
                  "type": "uint256"
                },
                {
                  "internalType": "enum SolverLib.IngestType",
                  "name": "ingestType",
                  "type": "uint8"
                },
                {
                  "internalType": "bytes32",
                  "name": "slot",
                  "type": "bytes32"
                },
                {
                  "internalType": "uint256",
                  "name": "solverIndex",
                  "type": "uint256"
                },
                {
                  "internalType": "bytes",
                  "name": "data",
                  "type": "bytes"
                }
              ],
              "internalType": "struct SolverLib.Ingest[]",
              "name": "ingests",
              "type": "tuple[]"
            },
            {
              "components": [
                {
                  "internalType": "contract IERC20",
                  "name": "collateralToken",
                  "type": "address"
                },
                {
                  "internalType": "uint256",
                  "name": "outcomeSlots",
                  "type": "uint256"
                },
                {
                  "internalType": "uint256",
                  "name": "parentCollectionIndexSet",
                  "type": "uint256"
                },
                {
                  "internalType": "bytes32",
                  "name": "amountSlot",
                  "type": "bytes32"
                },
                {
                  "internalType": "uint256[]",
                  "name": "partition",
                  "type": "uint256[]"
                },
                {
                  "components": [
                    {
                      "internalType": "bytes32",
                      "name": "recipientAddressSlot",
                      "type": "bytes32"
                    },
                    {
                      "internalType": "bytes32[]",
                      "name": "recipientAmountSlots",
                      "type": "bytes32[]"
                    }
                  ],
                  "internalType": "struct SolverLib.Allocation[]",
                  "name": "allocations",
                  "type": "tuple[]"
                },
                {
                  "components": [
                    {
                      "internalType": "bytes32",
                      "name": "digest",
                      "type": "bytes32"
                    },
                    {
                      "internalType": "uint8",
                      "name": "hashFunction",
                      "type": "uint8"
                    },
                    {
                      "internalType": "uint8",
                      "name": "size",
                      "type": "uint8"
                    }
                  ],
                  "internalType": "struct SolverLib.Multihash[]",
                  "name": "outcomeURIs",
                  "type": "tuple[]"
                }
              ],
              "internalType": "struct SolverLib.ConditionBase",
              "name": "conditionBase",
              "type": "tuple"
            }
          ],
          "internalType": "struct SolverLib.Config[]",
          "name": "solverConfigs",
          "type": "tuple[]"
        }
      ],
      "name": "verifyHash",
      "outputs": [
        {
          "internalType": "bool",
          "name": "",
          "type": "bool"
        }
      ],
      "stateMutability": "view",
      "type": "function"
    }
  ],
  "bytecode": "0x60a060405234801561001057600080fd5b50604051611f2a380380611f2a83398101604081905261002f91610044565b60601b6001600160601b031916608052610072565b600060208284031215610055578081fd5b81516001600160a01b038116811461006b578182fd5b9392505050565b60805160601c611e9d61008d60003960005050611e9d6000f3fe608060405234801561001057600080fd5b50600436106100725760003560e01c806375c705091161005057806375c70509146100d557806380d259ec146100fb578063b39c84771461010e57610072565b8063191481a0146100775780635f49a434146100a057806373c587f5146100c0575b600080fd5b61008a610085366004611139565b61012e565b6040516100979190611873565b60405180910390f35b6100b36100ae3660046111ab565b61017b565b6040516100979190611a3c565b6100d36100ce366004611139565b610282565b005b6100e86100e33660046110c9565b61035f565b60405161009797969594939291906119ed565b6100d361010936600461115a565b6103d4565b61012161011c3660046110e1565b610872565b60405161009791906119e2565b600082815260208190526040812060070180548390811061015f57634e487b7160e01b600052603260045260246000fd5b6000918252602090912001546001600160a01b03169392505050565b6000858152602081905260408120600301548614156101b55760405162461bcd60e51b81526004016101ac90611b01565b60405180910390fd5b600086815260208181526040918290206003810189905580547fffffffffffffffffffffff0000000000000000000000000000000000000000ff166101006001600160a01b038a160217815591516102119187918791016118af565b60408051601f1981840301815291905280516020909101206004820155826005820161023d8282611df4565b9050507faf58c2d61bce90c15ecad6e5142ecbbb0b542b557388df7578e0162b098999a38760405161026f9190611a3c565b60405180910390a1509495945050505050565b6040517fd3f79a05000000000000000000000000000000000000000000000000000000008152339063d3f79a05906102be908590600401611a3c565b60206040518083038186803b1580156102d657600080fd5b505afa1580156102ea573d6000803e3d6000fd5b505050506040513d601f19601f8201168201806040525081019061030e91906110a9565b61032a5760405162461bcd60e51b81526004016101ac90611b95565b600090815260208190526040902060018101805473ffffffffffffffffffffffffffffffffffffffff19163317905560020155565b600060208181529181526040908190208054600182015460028301546003840154600485015486516060810188526005870154815260069096015460ff8181169988019990995261010090819004891697870197909752968416966001600160a01b0396909404861695929092169390929087565b6103e28361011c8385611daa565b6103fe5760405162461bcd60e51b81526004016101ac90611b5e565b6000838152602081905260409020600101546001600160a01b031633146104375760405162461bcd60e51b81526004016101ac90611bf2565b60008381526020819052604090206002015484146104675760405162461bcd60e51b81526004016101ac90611aca565b60008381526020819052604090205460ff16156104965760405162461bcd60e51b81526004016101ac90611a93565b6000838152602081905260409020805460ff191660011790556104ba8383836108b6565b336001600160a01b0316631918063f856000808781526020019081526020016000206007016000815481106104ff57634e487b7160e01b600052603260045260246000fd5b6000918252602090912001546040517fffffffff0000000000000000000000000000000000000000000000000000000060e085901b16815261054e92916001600160a01b031690600401611a45565b600060405180830381600087803b15801561056857600080fd5b505af115801561057c573d6000803e3d6000fd5b50506040517f29b2be01000000000000000000000000000000000000000000000000000000008152600092503391506329b2be01906105bf908890600401611a3c565b60606040518083038186803b1580156105d757600080fd5b505afa1580156105eb573d6000803e3d6000fd5b505050506040513d601f19601f8201168201806040525081019061060f9190611224565b905060005b60008581526020819052604090206007015481101561078157600085815260208190526040812060070180548390811061065e57634e487b7160e01b600052603260045260246000fd5b6000918252602080832090910154888352908290526040918290206002015491517f0d06101a0000000000000000000000000000000000000000000000000000000081526001600160a01b0390911692508291630d06101a916106c49190600401611a3c565b600060405180830381600087803b1580156106de57600080fd5b505af11580156106f2573d6000803e3d6000fd5b50506040517fa9f698b60000000000000000000000000000000000000000000000000000000081526001600160a01b038416925063a9f698b6915061073b908690600401611c3c565b600060405180830381600087803b15801561075557600080fd5b505af1158015610769573d6000803e3d6000fd5b5050505050808061077990611db7565b915050610614565b50600084815260208190526040812060070180549091906107b257634e487b7160e01b600052603260045260246000fd5b60009182526020822001546040517f4a77234e0000000000000000000000000000000000000000000000000000000081526001600160a01b0390911691634a77234e916108029190600401611a3c565b600060405180830381600087803b15801561081c57600080fd5b505af1158015610830573d6000803e3d6000fd5b505050507fabe14211ae2537ee6b7aa77dde5785f740f88443cc6f3a4a4b68bb0e6a5652fa846040516108639190611a3c565b60405180910390a15050505050565b6000816040516020016108859190611902565b60408051601f1981840301815291815281516020928301206000868152928390529120600401541490505b92915050565b6000805b82811015610abc57806109b35773e7f1725e7734ce288f8367e1bb143e90bb3f0512637bdf862360008387878281811061090457634e487b7160e01b600052603260045260246000fd5b90506020028101906109169190611c4a565b6040518463ffffffff1660e01b815260040161093493929190611887565b602060405180830381600087803b15801561094e57600080fd5b505af1158015610962573d6000803e3d6000fd5b505050506040513d601f19601f820116820180604052508101906109869190611086565b91506001600160a01b0382166109ae5760405162461bcd60e51b81526004016101ac90611a5c565b610a65565b816001600160a01b0316630944e26e8585848181106109e257634e487b7160e01b600052603260045260246000fd5b90506020028101906109f49190611c4a565b6040518263ffffffff1660e01b8152600401610a109190611c29565b602060405180830381600087803b158015610a2a57600080fd5b505af1158015610a3e573d6000803e3d6000fd5b505050506040513d601f19601f82011682018060405250810190610a629190611086565b91505b60008581526020818152604082206007018054600181018255908352912001805473ffffffffffffffffffffffffffffffffffffffff19166001600160a01b03841617905580610ab481611db7565b9150506108ba565b5050505050565b6000610ad6610ad184611c93565b611c69565b83815290506020808201908360005b86811015610bd4578135860160e080828b031215610b0257600080fd5b610b0b81611c69565b9050610b1682610bdf565b8152610b23858301610bdf565b858201526040610b34818401610bdf565b908201526060828101359082015260808083013567ffffffffffffffff80821115610b5e57600080fd5b610b6a8d838701610f48565b8385015260a0925082850135915080821115610b8557600080fd5b610b918d838701610d4d565b8385015260c0925082850135915080821115610bac57600080fd5b50610bb98c828601610fc2565b91830191909152508552509282019290820190600101610ae5565b505050509392505050565b8035610bea81611e40565b919050565b600082601f830112610bff578081fd5b81356020610c0f610ad183611c93565b82815281810190858301855b85811015610cf75781358801604080601f19838d03011215610c3b578889fd5b805181810167ffffffffffffffff8282108183111715610c5d57610c5d611dde565b908352838901358252838301359080821115610c77578b8cfd5b508084019350508b603f840112610c8c57898afd5b87830135610c9c610ad182611c93565b808282528a820191508486018f868d86028901011115610cba578d8efd5b8d96505b83871015610cdc578035835260019690960195918b01918b01610cbe565b50838b01525050865250509284019290840190600101610c1b565b5090979650505050505050565b60008083601f840112610d15578182fd5b50813567ffffffffffffffff811115610d2c578182fd5b6020830191508360208083028501011115610d4657600080fd5b9250929050565b600082601f830112610d5d578081fd5b81356020610d6d610ad183611c93565b82815281810190858301855b85811015610cf7578135880160a080601f19838d03011215610d99578889fd5b6040805182810167ffffffffffffffff8282108183111715610dbd57610dbd611dde565b8184528a8601358352610dd1848701610fb3565b8b84015260609150818601358484015260809350838601358284015284860135945080851115610dff578c8dfd5b5050610e0f8d8a85870101610f48565b91810191909152865250509284019290840190600101610d79565b600082601f830112610e3a578081fd5b81356020610e4a610ad183611c93565b82815281810190858301606080860288018501891015610e68578687fd5b865b86811015610ee05781838b031215610e80578788fd5b6040805183810181811067ffffffffffffffff82111715610ea357610ea3611dde565b82528435815287850135610eb681611e58565b8189015284820135610ec781611e58565b9181019190915285529385019391810191600101610e6a565b509198975050505050505050565b600082601f830112610efe578081fd5b81356020610f0e610ad183611c93565b8281528181019085830183850287018401881015610f2a578586fd5b855b85811015610cf757813584529284019290840190600101610f2c565b600082601f830112610f58578081fd5b813567ffffffffffffffff811115610f7257610f72611dde565b610f85601f8201601f1916602001611c69565b818152846020838601011115610f99578283fd5b816020850160208301379081016020019190915292915050565b803560048110610bea57600080fd5b600060e08284031215610fd3578081fd5b610fdd60e0611c69565b9050610fe882610bdf565b8152602082013560208201526040820135604082015260608201356060820152608082013567ffffffffffffffff8082111561102357600080fd5b61102f85838601610eee565b608084015260a084013591508082111561104857600080fd5b61105485838601610bef565b60a084015260c084013591508082111561106d57600080fd5b5061107a84828501610e2a565b60c08301525092915050565b600060208284031215611097578081fd5b81516110a281611e40565b9392505050565b6000602082840312156110ba578081fd5b815180151581146110a2578182fd5b6000602082840312156110da578081fd5b5035919050565b600080604083850312156110f3578081fd5b82359150602083013567ffffffffffffffff811115611110578182fd5b8301601f81018513611120578182fd5b61112f85823560208401610ac3565b9150509250929050565b6000806040838503121561114b578182fd5b50508035926020909101359150565b6000806000806060858703121561116f578182fd5b8435935060208501359250604085013567ffffffffffffffff811115611193578283fd5b61119f87828801610d04565b95989497509550505050565b600080600080600085870360c08112156111c3578384fd5b8635955060208701356111d581611e40565b9450604087013567ffffffffffffffff8111156111f0578485fd5b6111fc89828a01610d04565b9095509350506060605f1982011215611213578182fd5b506060860190509295509295909350565b600060608284031215611235578081fd5b6040516060810181811067ffffffffffffffff8211171561125857611258611dde565b60405282518152602083015161126d81611e58565b6020820152604083015161128081611e58565b60408201529392505050565b6001600160a01b03169052565b60008284527f07ffffffffffffffffffffffffffffffffffffffffffffffffffffffffffffff8311156112ca578081fd5b6020830280836020870137939093016020019283525090919050565b6000815180845260208085018081965082840281019150828601855b858110156113695782840389528151805185528501516040868601819052815190860181905290860190606086019089905b808210156113545783518352928801929188019160019190910190611334565b50509986019994505090840190600101611302565b5091979650505050505050565b818352602080840193600091908185020181018584845b878110156113695782840389528135609e198836030181126113ad578687fd5b87018035855260a06113c0878301610fb3565b6113cc888801826115ad565b50604082810135908701526060808301359087015260806113ef81840184611d47565b935082828901526114038389018583611538565b9c89019c9750505092860192505060010161138d565b6000815180845260208085018081965082840281019150828601855b85811015611369578284038952815160a0815186528682015161145a888801826115ad565b50604082810151908701526060808301519087015260809182015191860181905261148781870183611562565b9a87019a9550505090840190600101611435565b60008284526020808501945082825b858110156114f45781358752828201356114c381611e58565b60ff90811688850152604090838201356114dc81611e58565b169088015260609687019691909101906001016114aa565b509495945050505050565b6000815180845260208085019450808401835b838110156114f457611525878351611851565b6060969096019590820190600101611512565b60008284528282602086013780602084860101526020601f19601f85011685010190509392505050565b60008151808452815b818110156115875760208185018101518683018201520161156b565b818111156115985782602083870101525b50601f01601f19169290920160200192915050565b600481106115cb57634e487b7160e01b600052602160045260246000fd5b9052565b600081356115dc81611e40565b6001600160a01b031683526020828101358185015260408084013581860152606080850135908601526116126080850185611cb7565b60e0608088015261162760e088018284611299565b91505061163760a0860186611cb7565b87830360a08901528083528483018582028401860183885b848110156116ae57868303601f19018452813536879003603e19018112611674578a8bfd5b8601803584526116868a820182611cb7565b9150898b86015261169a8a86018383611299565b958b0195945050509088019060010161164f565b50506116bd60c08a018a611cff565b9750955089810360c08b01526116d481888861149b565b9a9950505050505050505050565b600060e083016001600160a01b038351168452602080840151818601526040840151604086015260608401516060860152608084015160e060808701528281518085526101008801915083830194508592505b808310156117555784518252938301936001929092019190830190611735565b5060a0860151935086810360a088015261176f81856112e6565b935050505060c083015184820360c086015261178b82826114ff565b95945050505050565b600081356117a181611e40565b6001600160a01b0390811684526020830135906117bd82611e40565b16602084015260408201356117d181611e40565b6117de604085018261128c565b50606082013560608401526117f66080830183611d47565b60e0608086015261180b60e086018284611538565b91505061181b60a0840184611cb7565b85830360a087015261182e838284611376565b9250505061183f60c0840184611d8c565b84820360c086015261178b82826115cf565b8051825260ff602082015116602083015260ff60408201511660408301525050565b6001600160a01b0391909116815260200190565b60006001600160a01b03851682528360208301526060604083015261178b6060830184611794565b602080825281810183905260009060408482028401810190840186845b8781101561136957868403603f190183526118f0846118eb848c611d8c565b611794565b935091840191908401906001016118cc565b60208082528251828201819052600091906040908185019080840286018301878501865b838110156119d457888303603f19018552815180516001600160a01b0390811685528882015116888501528681015160e0906119648987018261128c565b506060808301518187015250608080830151828288015261198783880182611562565b9250505060a080830151868303828801526119a28382611419565b9250505060c080830151925085820381870152506119c081836116e2565b968901969450505090860190600101611926565b509098975050505050505050565b901515815260200190565b87151581526001600160a01b03878116602083015286166040820152606081018590526080810184905260a081018390526101208101611a3060c0830184611851565b98975050505050505050565b90815260200190565b9182526001600160a01b0316602082015260400190565b6020808252601a908201527f496e76616c6964206164647265737320666f7220536f6c766572000000000000604082015260600190565b60208082526019908201527f536f6c7574696f6e20616c726561647920657865637574656400000000000000604082015260600190565b60208082526010908201527f57726f6e672070726f706f73616c496400000000000000000000000000000000604082015260600190565b60208082526024908201527f536f6c7574696f6e734875623a3a5468697320494420616c726561647920657860408201527f6973747300000000000000000000000000000000000000000000000000000000606082015260800190565b6020808252601e908201527f496e636f727265637420536f6c766572436f6e66696720636f6e74656e740000604082015260600190565b60208082526024908201527f50726f706f73616c206973206e6f742076616c69642061742070726f706f736160408201527f6c48756200000000000000000000000000000000000000000000000000000000606082015260800190565b60208082526017908201527f4e6f7420636f72726563742070726f706f73616c487562000000000000000000604082015260600190565b6000602082526110a26020830184611794565b606081016108b08284611851565b6000823560de19833603018112611c5f578182fd5b9190910192915050565b60405181810167ffffffffffffffff81118282101715611c8b57611c8b611dde565b604052919050565b600067ffffffffffffffff821115611cad57611cad611dde565b5060209081020190565b6000808335601e19843603018112611ccd578283fd5b830160208101925035905067ffffffffffffffff811115611ced57600080fd5b602081023603831315610d4657600080fd5b6000808335601e19843603018112611d15578283fd5b830160208101925035905067ffffffffffffffff811115611d3557600080fd5b606081023603831315610d4657600080fd5b6000808335601e19843603018112611d5d578283fd5b830160208101925035905067ffffffffffffffff811115611d7d57600080fd5b803603831315610d4657600080fd5b6000823560de19833603018112611da1578182fd5b90910192915050565b60006110a2368484610ac3565b6000600019821415611dd757634e487b7160e01b81526011600452602481fd5b5060010190565b634e487b7160e01b600052604160045260246000fd5b81358155600181016020830135611e0a81611e58565b815460ff191660ff91909116178082556040840135611e2881611e58565b61ff008160081b1661ff001983161783555050505050565b6001600160a01b0381168114611e5557600080fd5b50565b60ff81168114611e5557600080fdfea2646970667358221220c14a75c9101c7cbbfa152d244340a18b63df5a12710446f1da771c07e9bafb4864736f6c63430008000033",
  "linkReferences": {},
  "deployedLinkReferences": {}
}