{
  "_format": "hh-sol-artifact-1",
  "contractName": "IPFSSolutionsHub",
  "sourceName": "contracts/IPFSSolutionsHub.sol",
  "abi": [
    {
      "inputs": [
        {
          "internalType": "contract ISolverFactory",
          "name": "factoryAddress",
          "type": "address"
        },
        {
          "internalType": "contract IProposalsHub",
          "name": "proposalsHubAddress",
          "type": "address"
        }
      ],
      "stateMutability": "nonpayable",
      "type": "constructor"
    },
    {
      "anonymous": false,
      "inputs": [
        {
          "indexed": false,
          "internalType": "bytes32",
          "name": "id",
          "type": "bytes32"
        }
      ],
      "name": "CreateBase",
      "type": "event"
    },
    {
      "anonymous": false,
      "inputs": [
        {
          "indexed": false,
          "internalType": "bytes32",
          "name": "id",
          "type": "bytes32"
        }
      ],
      "name": "CreateSolution",
      "type": "event"
    },
    {
      "anonymous": false,
      "inputs": [
        {
          "indexed": false,
          "internalType": "bytes32",
          "name": "id",
          "type": "bytes32"
        }
      ],
      "name": "ExecuteSolution",
      "type": "event"
    },
    {
      "inputs": [
        {
          "internalType": "bytes32",
          "name": "",
          "type": "bytes32"
        }
      ],
      "name": "bases",
      "outputs": [
        {
          "internalType": "contract IERC20",
          "name": "collateralToken",
          "type": "address"
        },
        {
          "internalType": "bytes32",
          "name": "id",
          "type": "bytes32"
        },
        {
          "internalType": "bytes32",
          "name": "solverConfigsHash",
          "type": "bytes32"
        },
        {
          "components": [
            {
              "internalType": "bytes32",
              "name": "digest",
              "type": "bytes32"
            },
            {
              "internalType": "uint8",
              "name": "hashFunction",
              "type": "uint8"
            },
            {
              "internalType": "uint8",
              "name": "size",
              "type": "uint8"
            }
          ],
          "internalType": "struct SolverLib.Multihash",
          "name": "solverConfigsCID",
          "type": "tuple"
        }
      ],
      "stateMutability": "view",
      "type": "function"
    },
    {
      "inputs": [
        {
          "internalType": "bytes32",
          "name": "baseId",
          "type": "bytes32"
        },
        {
          "internalType": "contract IERC20",
          "name": "collateralToken",
          "type": "address"
        },
        {
          "components": [
            {
              "internalType": "contract Solver",
              "name": "implementation",
              "type": "address"
            },
            {
              "internalType": "address",
              "name": "keeper",
              "type": "address"
            },
            {
              "internalType": "address",
              "name": "arbitrator",
              "type": "address"
            },
            {
              "internalType": "uint256",
              "name": "timelockSeconds",
              "type": "uint256"
            },
            {
              "internalType": "bytes",
              "name": "data",
              "type": "bytes"
            },
            {
              "components": [
                {
                  "internalType": "uint256",
                  "name": "executions",
                  "type": "uint256"
                },
                {
                  "internalType": "enum SolverLib.IngestType",
                  "name": "ingestType",
                  "type": "uint8"
                },
                {
                  "internalType": "bytes32",
                  "name": "slot",
                  "type": "bytes32"
                },
                {
                  "internalType": "uint256",
                  "name": "solverIndex",
                  "type": "uint256"
                },
                {
                  "internalType": "bytes",
                  "name": "data",
                  "type": "bytes"
                }
              ],
              "internalType": "struct SolverLib.Ingest[]",
              "name": "ingests",
              "type": "tuple[]"
            },
            {
              "components": [
                {
                  "internalType": "contract IERC20",
                  "name": "collateralToken",
                  "type": "address"
                },
                {
                  "internalType": "uint256",
                  "name": "outcomeSlots",
                  "type": "uint256"
                },
                {
                  "internalType": "uint256",
                  "name": "parentCollectionIndexSet",
                  "type": "uint256"
                },
                {
                  "internalType": "bytes32",
                  "name": "amountSlot",
                  "type": "bytes32"
                },
                {
                  "internalType": "uint256[]",
                  "name": "partition",
                  "type": "uint256[]"
                },
                {
                  "components": [
                    {
                      "internalType": "bytes32",
                      "name": "recipientAddressSlot",
                      "type": "bytes32"
                    },
                    {
                      "internalType": "bytes32[]",
                      "name": "recipientAmountSlots",
                      "type": "bytes32[]"
                    }
                  ],
                  "internalType": "struct SolverLib.Allocation[]",
                  "name": "allocations",
                  "type": "tuple[]"
                },
                {
                  "components": [
                    {
                      "internalType": "bytes32",
                      "name": "digest",
                      "type": "bytes32"
                    },
                    {
                      "internalType": "uint8",
                      "name": "hashFunction",
                      "type": "uint8"
                    },
                    {
                      "internalType": "uint8",
                      "name": "size",
                      "type": "uint8"
                    }
                  ],
                  "internalType": "struct SolverLib.Multihash[]",
                  "name": "outcomeURIs",
                  "type": "tuple[]"
                }
              ],
              "internalType": "struct SolverLib.ConditionBase",
              "name": "conditionBase",
              "type": "tuple"
            }
          ],
          "internalType": "struct SolverLib.Config[]",
          "name": "solverConfigs",
          "type": "tuple[]"
        },
        {
          "components": [
            {
              "internalType": "bytes32",
              "name": "digest",
              "type": "bytes32"
            },
            {
              "internalType": "uint8",
              "name": "hashFunction",
              "type": "uint8"
            },
            {
              "internalType": "uint8",
              "name": "size",
              "type": "uint8"
            }
          ],
          "internalType": "struct SolverLib.Multihash",
          "name": "solverConfigsCID",
          "type": "tuple"
        }
      ],
      "name": "createBase",
      "outputs": [],
      "stateMutability": "nonpayable",
      "type": "function"
    },
    {
      "inputs": [
        {
          "internalType": "bytes32",
          "name": "baseId",
          "type": "bytes32"
        },
        {
          "internalType": "bytes32",
          "name": "instanceId",
          "type": "bytes32"
        }
      ],
      "name": "createInstance",
      "outputs": [
        {
          "internalType": "bytes32",
          "name": "solutionId",
          "type": "bytes32"
        }
      ],
      "stateMutability": "nonpayable",
      "type": "function"
    },
    {
      "inputs": [
        {
          "internalType": "bytes32",
          "name": "instanceId",
          "type": "bytes32"
        },
        {
          "internalType": "contract IERC20",
          "name": "collateralToken",
          "type": "address"
        },
        {
          "components": [
            {
              "internalType": "contract Solver",
              "name": "implementation",
              "type": "address"
            },
            {
              "internalType": "address",
              "name": "keeper",
              "type": "address"
            },
            {
              "internalType": "address",
              "name": "arbitrator",
              "type": "address"
            },
            {
              "internalType": "uint256",
              "name": "timelockSeconds",
              "type": "uint256"
            },
            {
              "internalType": "bytes",
              "name": "data",
              "type": "bytes"
            },
            {
              "components": [
                {
                  "internalType": "uint256",
                  "name": "executions",
                  "type": "uint256"
                },
                {
                  "internalType": "enum SolverLib.IngestType",
                  "name": "ingestType",
                  "type": "uint8"
                },
                {
                  "internalType": "bytes32",
                  "name": "slot",
                  "type": "bytes32"
                },
                {
                  "internalType": "uint256",
                  "name": "solverIndex",
                  "type": "uint256"
                },
                {
                  "internalType": "bytes",
                  "name": "data",
                  "type": "bytes"
                }
              ],
              "internalType": "struct SolverLib.Ingest[]",
              "name": "ingests",
              "type": "tuple[]"
            },
            {
              "components": [
                {
                  "internalType": "contract IERC20",
                  "name": "collateralToken",
                  "type": "address"
                },
                {
                  "internalType": "uint256",
                  "name": "outcomeSlots",
                  "type": "uint256"
                },
                {
                  "internalType": "uint256",
                  "name": "parentCollectionIndexSet",
                  "type": "uint256"
                },
                {
                  "internalType": "bytes32",
                  "name": "amountSlot",
                  "type": "bytes32"
                },
                {
                  "internalType": "uint256[]",
                  "name": "partition",
                  "type": "uint256[]"
                },
                {
                  "components": [
                    {
                      "internalType": "bytes32",
                      "name": "recipientAddressSlot",
                      "type": "bytes32"
                    },
                    {
                      "internalType": "bytes32[]",
                      "name": "recipientAmountSlots",
                      "type": "bytes32[]"
                    }
                  ],
                  "internalType": "struct SolverLib.Allocation[]",
                  "name": "allocations",
                  "type": "tuple[]"
                },
                {
                  "components": [
                    {
                      "internalType": "bytes32",
                      "name": "digest",
                      "type": "bytes32"
                    },
                    {
                      "internalType": "uint8",
                      "name": "hashFunction",
                      "type": "uint8"
                    },
                    {
                      "internalType": "uint8",
                      "name": "size",
                      "type": "uint8"
                    }
                  ],
                  "internalType": "struct SolverLib.Multihash[]",
                  "name": "outcomeURIs",
                  "type": "tuple[]"
                }
              ],
              "internalType": "struct SolverLib.ConditionBase",
              "name": "conditionBase",
              "type": "tuple"
            }
          ],
          "internalType": "struct SolverLib.Config[]",
          "name": "solverConfigs",
          "type": "tuple[]"
        },
        {
          "components": [
            {
              "internalType": "bytes32",
              "name": "digest",
              "type": "bytes32"
            },
            {
              "internalType": "uint8",
              "name": "hashFunction",
              "type": "uint8"
            },
            {
              "internalType": "uint8",
              "name": "size",
              "type": "uint8"
            }
          ],
          "internalType": "struct SolverLib.Multihash",
          "name": "solverConfigsCID",
          "type": "tuple"
        }
      ],
      "name": "createSolution",
      "outputs": [
        {
          "internalType": "bytes32",
          "name": "baseId",
          "type": "bytes32"
        },
        {
          "internalType": "bytes32",
          "name": "solutionId",
          "type": "bytes32"
        }
      ],
      "stateMutability": "nonpayable",
      "type": "function"
    },
    {
      "inputs": [
        {
          "internalType": "bytes32",
          "name": "proposalId",
          "type": "bytes32"
        },
        {
          "internalType": "bytes32",
          "name": "solutionId",
          "type": "bytes32"
        },
        {
          "components": [
            {
              "internalType": "contract Solver",
              "name": "implementation",
              "type": "address"
            },
            {
              "internalType": "address",
              "name": "keeper",
              "type": "address"
            },
            {
              "internalType": "address",
              "name": "arbitrator",
              "type": "address"
            },
            {
              "internalType": "uint256",
              "name": "timelockSeconds",
              "type": "uint256"
            },
            {
              "internalType": "bytes",
              "name": "data",
              "type": "bytes"
            },
            {
              "components": [
                {
                  "internalType": "uint256",
                  "name": "executions",
                  "type": "uint256"
                },
                {
                  "internalType": "enum SolverLib.IngestType",
                  "name": "ingestType",
                  "type": "uint8"
                },
                {
                  "internalType": "bytes32",
                  "name": "slot",
                  "type": "bytes32"
                },
                {
                  "internalType": "uint256",
                  "name": "solverIndex",
                  "type": "uint256"
                },
                {
                  "internalType": "bytes",
                  "name": "data",
                  "type": "bytes"
                }
              ],
              "internalType": "struct SolverLib.Ingest[]",
              "name": "ingests",
              "type": "tuple[]"
            },
            {
              "components": [
                {
                  "internalType": "contract IERC20",
                  "name": "collateralToken",
                  "type": "address"
                },
                {
                  "internalType": "uint256",
                  "name": "outcomeSlots",
                  "type": "uint256"
                },
                {
                  "internalType": "uint256",
                  "name": "parentCollectionIndexSet",
                  "type": "uint256"
                },
                {
                  "internalType": "bytes32",
                  "name": "amountSlot",
                  "type": "bytes32"
                },
                {
                  "internalType": "uint256[]",
                  "name": "partition",
                  "type": "uint256[]"
                },
                {
                  "components": [
                    {
                      "internalType": "bytes32",
                      "name": "recipientAddressSlot",
                      "type": "bytes32"
                    },
                    {
                      "internalType": "bytes32[]",
                      "name": "recipientAmountSlots",
                      "type": "bytes32[]"
                    }
                  ],
                  "internalType": "struct SolverLib.Allocation[]",
                  "name": "allocations",
                  "type": "tuple[]"
                },
                {
                  "components": [
                    {
                      "internalType": "bytes32",
                      "name": "digest",
                      "type": "bytes32"
                    },
                    {
                      "internalType": "uint8",
                      "name": "hashFunction",
                      "type": "uint8"
                    },
                    {
                      "internalType": "uint8",
                      "name": "size",
                      "type": "uint8"
                    }
                  ],
                  "internalType": "struct SolverLib.Multihash[]",
                  "name": "outcomeURIs",
                  "type": "tuple[]"
                }
              ],
              "internalType": "struct SolverLib.ConditionBase",
              "name": "conditionBase",
              "type": "tuple"
            }
          ],
          "internalType": "struct SolverLib.Config[]",
          "name": "solverConfigs",
          "type": "tuple[]"
        }
      ],
      "name": "executeSolution",
      "outputs": [],
      "stateMutability": "nonpayable",
      "type": "function"
    },
    {
      "inputs": [
        {
          "internalType": "bytes32",
          "name": "instanceId",
          "type": "bytes32"
        }
      ],
      "name": "getSolution",
      "outputs": [
        {
          "components": [
            {
              "internalType": "bool",
              "name": "executed",
              "type": "bool"
            },
            {
              "internalType": "contract IERC20",
              "name": "collateralToken",
              "type": "address"
            },
            {
              "internalType": "address",
              "name": "proposalsHub",
              "type": "address"
            },
            {
              "internalType": "bytes32",
              "name": "proposalId",
              "type": "bytes32"
            },
            {
              "internalType": "bytes32",
              "name": "id",
              "type": "bytes32"
            },
            {
              "internalType": "bytes32",
              "name": "solverConfigsHash",
              "type": "bytes32"
            },
            {
              "components": [
                {
                  "internalType": "bytes32",
                  "name": "digest",
                  "type": "bytes32"
                },
                {
                  "internalType": "uint8",
                  "name": "hashFunction",
                  "type": "uint8"
                },
                {
                  "internalType": "uint8",
                  "name": "size",
                  "type": "uint8"
                }
              ],
              "internalType": "struct SolverLib.Multihash",
              "name": "solverConfigsCID",
              "type": "tuple"
            },
            {
              "internalType": "address[]",
              "name": "solverAddresses",
              "type": "address[]"
            }
          ],
          "internalType": "struct IPFSSolutionsHub.Solution",
          "name": "solution",
          "type": "tuple"
        }
      ],
      "stateMutability": "view",
      "type": "function"
    },
    {
      "inputs": [
        {
          "internalType": "bytes32",
          "name": "solutionId",
          "type": "bytes32"
        }
      ],
      "name": "getSolvers",
      "outputs": [
        {
          "internalType": "address[]",
          "name": "solvers",
          "type": "address[]"
        }
      ],
      "stateMutability": "view",
      "type": "function"
    },
    {
      "inputs": [
        {
          "internalType": "bytes32",
          "name": "",
          "type": "bytes32"
        }
      ],
      "name": "instances",
      "outputs": [
        {
          "internalType": "bool",
          "name": "executed",
          "type": "bool"
        },
        {
          "internalType": "bytes32",
          "name": "id",
          "type": "bytes32"
        },
        {
          "internalType": "bytes32",
          "name": "baseId",
          "type": "bytes32"
        }
      ],
      "stateMutability": "view",
      "type": "function"
    },
    {
      "inputs": [
        {
          "internalType": "bytes32",
          "name": "proposalId",
          "type": "bytes32"
        },
        {
          "internalType": "bytes32",
          "name": "solutionId",
          "type": "bytes32"
        },
        {
          "internalType": "contract IERC20",
          "name": "collateralToken",
          "type": "address"
        }
      ],
      "name": "linkToProposal",
      "outputs": [],
      "stateMutability": "nonpayable",
      "type": "function"
    },
    {
      "inputs": [
        {
          "internalType": "bytes32",
          "name": "solutionId",
          "type": "bytes32"
        },
        {
          "internalType": "uint256",
          "name": "index",
          "type": "uint256"
        }
      ],
      "name": "solverFromIndex",
      "outputs": [
        {
          "internalType": "address",
          "name": "solverAddress",
          "type": "address"
        }
      ],
      "stateMutability": "view",
      "type": "function"
    },
    {
      "inputs": [
        {
          "internalType": "bytes32",
          "name": "solutionId",
          "type": "bytes32"
        },
        {
          "components": [
            {
              "internalType": "contract Solver",
              "name": "implementation",
              "type": "address"
            },
            {
              "internalType": "address",
              "name": "keeper",
              "type": "address"
            },
            {
              "internalType": "address",
              "name": "arbitrator",
              "type": "address"
            },
            {
              "internalType": "uint256",
              "name": "timelockSeconds",
              "type": "uint256"
            },
            {
              "internalType": "bytes",
              "name": "data",
              "type": "bytes"
            },
            {
              "components": [
                {
                  "internalType": "uint256",
                  "name": "executions",
                  "type": "uint256"
                },
                {
                  "internalType": "enum SolverLib.IngestType",
                  "name": "ingestType",
                  "type": "uint8"
                },
                {
                  "internalType": "bytes32",
                  "name": "slot",
                  "type": "bytes32"
                },
                {
                  "internalType": "uint256",
                  "name": "solverIndex",
                  "type": "uint256"
                },
                {
                  "internalType": "bytes",
                  "name": "data",
                  "type": "bytes"
                }
              ],
              "internalType": "struct SolverLib.Ingest[]",
              "name": "ingests",
              "type": "tuple[]"
            },
            {
              "components": [
                {
                  "internalType": "contract IERC20",
                  "name": "collateralToken",
                  "type": "address"
                },
                {
                  "internalType": "uint256",
                  "name": "outcomeSlots",
                  "type": "uint256"
                },
                {
                  "internalType": "uint256",
                  "name": "parentCollectionIndexSet",
                  "type": "uint256"
                },
                {
                  "internalType": "bytes32",
                  "name": "amountSlot",
                  "type": "bytes32"
                },
                {
                  "internalType": "uint256[]",
                  "name": "partition",
                  "type": "uint256[]"
                },
                {
                  "components": [
                    {
                      "internalType": "bytes32",
                      "name": "recipientAddressSlot",
                      "type": "bytes32"
                    },
                    {
                      "internalType": "bytes32[]",
                      "name": "recipientAmountSlots",
                      "type": "bytes32[]"
                    }
                  ],
                  "internalType": "struct SolverLib.Allocation[]",
                  "name": "allocations",
                  "type": "tuple[]"
                },
                {
                  "components": [
                    {
                      "internalType": "bytes32",
                      "name": "digest",
                      "type": "bytes32"
                    },
                    {
                      "internalType": "uint8",
                      "name": "hashFunction",
                      "type": "uint8"
                    },
                    {
                      "internalType": "uint8",
                      "name": "size",
                      "type": "uint8"
                    }
                  ],
                  "internalType": "struct SolverLib.Multihash[]",
                  "name": "outcomeURIs",
                  "type": "tuple[]"
                }
              ],
              "internalType": "struct SolverLib.ConditionBase",
              "name": "conditionBase",
              "type": "tuple"
            }
          ],
          "internalType": "struct SolverLib.Config[]",
          "name": "solverConfigs",
          "type": "tuple[]"
        }
      ],
      "name": "verifyHash",
      "outputs": [
        {
          "internalType": "bool",
          "name": "",
          "type": "bool"
        }
      ],
      "stateMutability": "view",
      "type": "function"
    }
  ],
  "bytecode": "0x60c06040523480156200001157600080fd5b50604051620023a8380380620023a8833981016040819052620000349162000053565b6001600160601b0319606092831b8116608052911b1660a052620000aa565b6000806040838503121562000066578182fd5b8251620000738162000091565b6020840151909250620000868162000091565b809150509250929050565b6001600160a01b0381168114620000a757600080fd5b50565b60805160601c60a05160601c6122cb620000dd60003960008181610427015261075601526000610b8101526122cb6000f3fe608060405234801561001057600080fd5b50600436106100995760003560e01c8063191481a01461009e5780632711447f146100c7578063307d6cb6146100e95780634f605f81146101095780635f49a4341461012c57806380d259ec1461014d578063a2440b9d14610162578063b39c847714610175578063c4e3983f14610195578063ddc02e03146101b5578063fa1a84c7146101d5575b600080fd5b6100b16100ac36600461145e565b6101e8565b6040516100be9190611b91565b60405180910390f35b6100da6100d53660046113ef565b610256565b6040516100be93929190611d1d565b6100fc6100f73660046113ef565b61027c565b6040516100be9190611bcc565b61011c6101173660046113ef565b6102eb565b6040516100be9493929190611d55565b61013f61013a366004611507565b610345565b6040516100be929190611b83565b61016061015b36600461147f565b6103f2565b005b6101606101703660046114cf565b61073f565b610188610183366004611407565b610851565b6040516100be9190611d12565b6101a86101a336600461145e565b6108a1565b6040516100be9190611d35565b6101c86101c33660046113ef565b61094c565b6040516100be9190611fd6565b6101606101e3366004611507565b610a8f565b6000828152600160205260408120600301541561024c57600083815260016020526040902060030180548390811061023057634e487b7160e01b600052603260045260246000fd5b6000918252602090912001546001600160a01b03169050610250565b5060005b92915050565b600160208190526000918252604090912080549181015460029091015460ff9092169183565b6000818152600160209081526040918290206003018054835181840281018401909452808452606093928301828280156102df57602002820191906000526020600020905b81546001600160a01b031681526001909101906020018083116102c1575b50505050509050919050565b6000602081815291815260409081902080546001820154600283015484516060810186526003850154815260049094015460ff808216978601979097526101009004909516938301939093526001600160a01b0316929084565b60008581526001602081905260408220015481908714156103815760405162461bcd60e51b815260040161037890611d80565b60405180910390fd5b8687604051602001610394929190611b83565b6040516020818303038152906040528051906020012091506103b98287878787610a8f565b6103c382886108a1565b50600080516020612276833981519152876040516103e19190611d35565b60405180910390a150959350505050565b6104008361018383856121b8565b61041c5760405162461bcd60e51b815260040161037890611f02565b336001600160a01b037f000000000000000000000000000000000000000000000000000000000000000016146104645760405162461bcd60e51b815260040161037890611f91565b60008381526002602052604090205484146104915760405162461bcd60e51b815260040161037890611e93565b60008381526001602052604090205460ff16156104c05760405162461bcd60e51b815260040161037890611e60565b6000838152600160208190526040909120805460ff191690911790556104e7838383610b6e565b600083815260016020526040812060030180543392631918063f92889290919061052157634e487b7160e01b600052603260045260246000fd5b6000918252602090912001546040516001600160e01b031960e085901b16815261055892916001600160a01b031690600401611d3e565b600060405180830381600087803b15801561057257600080fd5b505af1158015610586573d6000803e3d6000fd5b5050505060005b6000848152600160205260409020600301548110156106685760008481526001602052604081206003018054839081106105d757634e487b7160e01b600052603260045260246000fd5b60009182526020808320909101548783526002909152604091829020549151630683080d60e11b81526001600160a01b0390911692508291630d06101a916106229190600401611d35565b600060405180830381600087803b15801561063c57600080fd5b505af1158015610650573d6000803e3d6000fd5b50505050508080610660906121c5565b91505061058d565b506000838152600160205260408120600301805490919061069957634e487b7160e01b600052603260045260246000fd5b600091825260208220015460405163253b91a760e11b81526001600160a01b0390911691634a77234e916106d09190600401611d35565b600060405180830381600087803b1580156106ea57600080fd5b505af11580156106fe573d6000803e3d6000fd5b505050507fabe14211ae2537ee6b7aa77dde5785f740f88443cc6f3a4a4b68bb0e6a5652fa836040516107319190611d35565b60405180910390a150505050565b60405163d3f79a0560e01b81526001600160a01b037f0000000000000000000000000000000000000000000000000000000000000000169063d3f79a059061078b908690600401611d35565b60206040518083038186803b1580156107a357600080fd5b505afa1580156107b7573d6000803e3d6000fd5b505050506040513d601f19601f820116820180604052508101906107db91906113cf565b6107f75760405162461bcd60e51b815260040161037890611ebd565b6000828152600160209081526040808320600201548352908290529020546001600160a01b0382811691161461083f5760405162461bcd60e51b815260040161037890611dc8565b50600090815260026020526040902055565b6000816040516020016108649190611c32565b60408051808303601f1901815291815281516020928301206000958652600183528186206002908101548752928690529420015490921492915050565b6000818152600160208190526040822001548214156108d25760405162461bcd60e51b815260040161037890611e2c565b6000838152602081905260409020600101546109005760405162461bcd60e51b815260040161037890611f69565b6000828152600160208190526040918290209081018490556002810185905590516000805160206122768339815191529061093c908590611d35565b60405180910390a1509092915050565b610954610d84565b60008281526001602081815260408084208151608081018352815460ff161515815293810154848401526002810154848301526003810180548351818602810186019094528084529193606086019392908301828280156109de57602002820191906000526020600020905b81546001600160a01b031681526001909101906020018083116109c0575b505050919092525050506040808201516000908152602081815282822083516080808201865282546001600160a01b039081168352600184015483860152600280850154848901908152885160608181018b526003880154825260049097015460ff808216838b015261010090910416818b0152868601908152878b0151948d0194909452985115158b529251168985015298845290915291902054908401525160a083015250905160c082015290565b600085815260208190526040902060010154851415610ac05760405162461bcd60e51b815260040161037890611f39565b600085815260208181526040918290206001810188905580546001600160a01b0319166001600160a01b0388161781559151610b00918691869101611bdf565b60408051601f19818403018152919052805160209091012060028201558160038201610b2c8282612202565b9050507fb2291843796c1f5585269aa9e4f472f2c5d0b4c74b5ce230c732c3278a313d8986604051610b5e9190611d35565b60405180910390a1505050505050565b6000805b82811015610d7d5780610c80577f00000000000000000000000000000000000000000000000000000000000000006001600160a01b0316637bdf8623600083878786818110610bd157634e487b7160e01b600052603260045260246000fd5b9050602002810190610be3919061205d565b6040518463ffffffff1660e01b8152600401610c0193929190611ba5565b602060405180830381600087803b158015610c1b57600080fd5b505af1158015610c2f573d6000803e3d6000fd5b505050506040513d601f19601f82011682018060405250810190610c5391906113ac565b91506001600160a01b038216610c7b5760405162461bcd60e51b815260040161037890611df8565b610d32565b816001600160a01b0316630944e26e858584818110610caf57634e487b7160e01b600052603260045260246000fd5b9050602002810190610cc1919061205d565b6040518263ffffffff1660e01b8152600401610cdd9190611fc3565b602060405180830381600087803b158015610cf757600080fd5b505af1158015610d0b573d6000803e3d6000fd5b505050506040513d601f19601f82011682018060405250810190610d2f91906113ac565b91505b600085815260016020818152604083206003018054928301815583529091200180546001600160a01b0319166001600160a01b03841617905580610d75816121c5565b915050610b72565b5050505050565b6040805161010081018252600080825260208201819052918101829052606081018290526080810182905260a081019190915260c08101610dc3610dd0565b8152602001606081525090565b604080516060810182526000808252602082018190529181019190915290565b6000610e03610dfe846120a5565b61207c565b83815290506020808201908360005b86811015610f00578135860160e080828b031215610e2f57600080fd5b610e388161207c565b9050610e4382610f0b565b8152610e50858301610f0b565b858201526040610e61818401610f0b565b90820152606082810135908201526080808301356001600160401b0380821115610e8a57600080fd5b610e968d838701611270565b8385015260a0925082850135915080821115610eb157600080fd5b610ebd8d838701611077565b8385015260c0925082850135915080821115610ed857600080fd5b50610ee58c8286016112e9565b91830191909152508552509282019290820190600101610e12565b505050509392505050565b8035610f168161224e565b919050565b600082601f830112610f2b578081fd5b81356020610f3b610dfe836120a5565b82815281810190858301855b858110156110225781358801604080601f19838d03011215610f67578889fd5b80518082016001600160401b038082118383101715610f8857610f886121ec565b908352838901358252838301359080821115610fa2578b8cfd5b508084019350508b603f840112610fb757898afd5b87830135610fc7610dfe826120a5565b808282528a820191508486018f868d86028901011115610fe5578d8efd5b8d96505b83871015611007578035835260019690960195918b01918b01610fe9565b50838b01525050865250509284019290840190600101610f47565b5090979650505050505050565b60008083601f840112611040578182fd5b5081356001600160401b03811115611056578182fd5b602083019150836020808302850101111561107057600080fd5b9250929050565b600082601f830112611087578081fd5b81356020611097610dfe836120a5565b82815281810190858301855b85811015611022578135880160a080601f19838d030112156110c3578889fd5b604080518281016001600160401b0380821183831017156110e6576110e66121ec565b8184528a86013583526110fa8487016112da565b8b84015260609150818601358484015260809350838601358284015284860135945080851115611128578c8dfd5b50506111388d8a85870101611270565b918101919091528652505092840192908401906001016110a3565b600082601f830112611163578081fd5b81356020611173610dfe836120a5565b82815281810190858301606080860288018501891015611191578687fd5b865b868110156112085781838b0312156111a9578788fd5b604080518381016001600160401b03811182821017156111cb576111cb6121ec565b825284358152878501356111de81612266565b81890152848201356111ef81612266565b9181019190915285529385019391810191600101611193565b509198975050505050505050565b600082601f830112611226578081fd5b81356020611236610dfe836120a5565b8281528181019085830183850287018401881015611252578586fd5b855b8581101561102257813584529284019290840190600101611254565b600082601f830112611280578081fd5b81356001600160401b03811115611299576112996121ec565b6112ac601f8201601f191660200161207c565b8181528460208386010111156112c0578283fd5b816020850160208301379081016020019190915292915050565b803560048110610f1657600080fd5b600060e082840312156112fa578081fd5b61130460e061207c565b905061130f82610f0b565b815260208281013590820152604080830135908201526060808301359082015260808201356001600160401b038082111561134957600080fd5b61135585838601611216565b608084015260a084013591508082111561136e57600080fd5b61137a85838601610f1b565b60a084015260c084013591508082111561139357600080fd5b506113a084828501611153565b60c08301525092915050565b6000602082840312156113bd578081fd5b81516113c88161224e565b9392505050565b6000602082840312156113e0578081fd5b815180151581146113c8578182fd5b600060208284031215611400578081fd5b5035919050565b60008060408385031215611419578081fd5b8235915060208301356001600160401b03811115611435578182fd5b8301601f81018513611445578182fd5b61145485823560208401610df0565b9150509250929050565b60008060408385031215611470578182fd5b50508035926020909101359150565b60008060008060608587031215611494578182fd5b843593506020850135925060408501356001600160401b038111156114b7578283fd5b6114c38782880161102f565b95989497509550505050565b6000806000606084860312156114e3578081fd5b833592506020840135915060408401356114fc8161224e565b809150509250925092565b600080600080600085870360c081121561151f578384fd5b8635955060208701356115318161224e565b945060408701356001600160401b0381111561154b578485fd5b61155789828a0161102f565b9095509350506060605f198201121561156e578182fd5b506060860190509295509295909350565b6001600160a01b03169052565b6000815180845260208085019450808401835b838110156115c45781516001600160a01b03168752958201959082019060010161159f565b509495945050505050565b81835260006001600160fb1b038311156115e7578081fd5b6020830280836020870137939093016020019283525090919050565b6000815180845260208085018081965082840281019150828601855b858110156116865782840389528151805185528501516040868601819052815190860181905290860190606086019089905b808210156116715783518352928801929188019160019190910190611651565b5050998601999450509084019060010161161f565b5091979650505050505050565b818352602080840193600091908185020181018584845b878110156116865782840389528135609e198836030181126116ca578687fd5b87018035855260a06116dd8783016112da565b6116e9888801826118bf565b506040828101359087015260608083013590870152608061170c81840184612156565b93508282890152611720838901858361184a565b9c89019c975050509286019250506001016116aa565b6000815180845260208085018081965082840281019150828601855b85811015611686578284038952815160a08151865286820151611777888801826118bf565b5060408281015190870152606080830151908701526080918201519186018190526117a481870183611874565b9a87019a9550505090840190600101611752565b60008284526020808501945082825b858110156115c45781358752828201356117e081612266565b60ff90811688850152604090838201356117f981612266565b169088015260609687019691909101906001016117c7565b6000815180845260208085019450808401835b838110156115c457611837878351611b61565b6060969096019590820190600101611824565b60008284528282602086013780602084860101526020601f19601f85011685010190509392505050565b60008151808452815b818110156118995760208185018101518683018201520161187d565b818111156118aa5782602083870101525b50601f01601f19169290920160200192915050565b600481106118dd57634e487b7160e01b600052602160045260246000fd5b9052565b600081356118ee8161224e565b6001600160a01b0316835260208281013581850152604080840135818601526060808501359086015261192460808501856120c8565b60e0608088015261193960e0880182846115cf565b91505061194960a08601866120c8565b87830360a08901528083528483018582028401860183885b848110156119c057868303601f19018452813536879003603e19018112611986578a8bfd5b8601803584526119988a8201826120c8565b9150898b8601526119ac8a860183836115cf565b958b01959450505090880190600101611961565b50506119cf60c08a018a61210f565b9750955089810360c08b01526119e68188886117b8565b9a9950505050505050505050565b80516001600160a01b0316825260208082015181840152604080830151908401526060808301519084015260808083015160e091850182905280519185018290526000929081019183906101008701905b80831015611a655784518252938301936001929092019190830190611a45565b5060a0860151935086810360a0880152611a7f8185611603565b935050505060c083015184820360c0860152611a9b8282611811565b95945050505050565b60008135611ab18161224e565b6001600160a01b039081168452602083013590611acd8261224e565b1660208401526040820135611ae18161224e565b611aee604085018261157f565b5060608201356060840152611b066080830183612156565b60e06080860152611b1b60e08601828461184a565b915050611b2b60a08401846120c8565b85830360a0870152611b3e838284611693565b92505050611b4f60c084018461219a565b84820360c0860152611a9b82826118e1565b8051825260ff602082015116602083015260ff60408201511660408301525050565b918252602082015260400190565b6001600160a01b0391909116815260200190565b600060018060a01b038516825283602083015260606040830152611a9b6060830184611aa4565b6000602082526113c8602083018461158c565b602080825281810183905260009060408482028401810190840186845b8781101561168657868403603f19018352611c2084611c1b848c61219a565b611aa4565b93509184019190840190600101611bfc565b60208082528251828201819052600091906040908185019080840286018301878501865b83811015611d0457888303603f19018552815180516001600160a01b0390811685528882015116888501528681015160e090611c948987018261157f565b5060608083015181870152506080808301518282880152611cb783880182611874565b9250505060a08083015186830382880152611cd28382611736565b9250505060c08083015192508582038187015250611cf081836119f4565b968901969450505090860190600101611c56565b509098975050505050505050565b901515815260200190565b92151583526020830191909152604082015260600190565b90815260200190565b9182526001600160a01b0316602082015260400190565b6001600160a01b0385168152602081018490526040810183905260c08101611a9b6060830184611b61565b60208082526028908201527f536f6c7574696f6e734875623a3a496e7374616e636520494420616c72656164604082015267792065786973747360c01b606082015260800190565b6020808252601690820152752bb937b7339031b7b63630ba32b930b6103a37b5b2b760511b604082015260600190565b6020808252601a908201527924b73b30b634b21030b2323932b9b9903337b91029b7b63b32b960311b604082015260600190565b6020808252601a9082015279496e7374616e636520494420616c72656164792065786973747360301b604082015260600190565b60208082526019908201527814dbdb1d5d1a5bdb88185b1c9958591e48195e1958dd5d1959603a1b604082015260600190565b60208082526010908201526f15dc9bdb99c81c1c9bdc1bdcd85b125960821b604082015260600190565b60208082526025908201527f50726f706f73616c206973206e6f742076616c69642061742070726f706f73616040820152643639a43ab160d91b606082015260800190565b6020808252601e908201527f496e636f727265637420536f6c766572436f6e66696720636f6e74656e740000604082015260600190565b6020808252601690820152754261736520494420616c72656164792065786973747360501b604082015260600190565b6020808252600e908201526d10985cd9481b9bdd08199bdd5b9960921b604082015260600190565b6020808252601890820152772737ba1031b7b93932b1ba10383937b837b9b0b639a43ab160411b604082015260600190565b6000602082526113c86020830184611aa4565b60006020825282511515602083015260018060a01b0360208401511660408301526040830151612009606084018261157f565b5060608301516080830152608083015160a083015260a083015160c083015260c083015161203a60e0840182611b61565b5060e08301516101408381015261205561016084018261158c565b949350505050565b6000823560de19833603018112612072578182fd5b9190910192915050565b6040518181016001600160401b038111828210171561209d5761209d6121ec565b604052919050565b60006001600160401b038211156120be576120be6121ec565b5060209081020190565b6000808335601e198436030181126120de578283fd5b83016020810192503590506001600160401b038111156120fd57600080fd5b60208102360383131561107057600080fd5b6000808335601e19843603018112612125578283fd5b83016020810192503590506001600160401b0381111561214457600080fd5b60608102360383131561107057600080fd5b6000808335601e1984360301811261216c578283fd5b83016020810192503590506001600160401b0381111561218b57600080fd5b80360383131561107057600080fd5b6000823560de198336030181126121af578182fd5b90910192915050565b60006113c8368484610df0565b60006000198214156121e557634e487b7160e01b81526011600452602481fd5b5060010190565b634e487b7160e01b600052604160045260246000fd5b8135815560018101602083013561221881612266565b815460ff191660ff9190911617808255604084013561223681612266565b61ff008160081b1661ff001983161783555050505050565b6001600160a01b038116811461226357600080fd5b50565b60ff8116811461226357600080fdfeaf58c2d61bce90c15ecad6e5142ecbbb0b542b557388df7578e0162b098999a3a2646970667358221220b98306ba1869d846521abc2bbd2a6e4829e6155f5932b226597c447bb713977064736f6c63430008000033",
  "linkReferences": {},
  "deployedLinkReferences": {}
}