{
  "_format": "hh-sol-artifact-1",
  "contractName": "IPFSSolutionsHub",
  "sourceName": "contracts/IPFSSolutionsHub.sol",
  "abi": [
    {
      "inputs": [
        {
          "internalType": "contract ISolverFactory",
          "name": "factoryAddress",
          "type": "address"
        },
        {
          "internalType": "contract IProposalsHub",
          "name": "proposalsHubAddress",
          "type": "address"
        }
      ],
      "stateMutability": "nonpayable",
      "type": "constructor"
    },
    {
      "anonymous": false,
      "inputs": [
        {
          "indexed": false,
          "internalType": "bytes32",
          "name": "id",
          "type": "bytes32"
        }
      ],
      "name": "CreateBase",
      "type": "event"
    },
    {
      "anonymous": false,
      "inputs": [
        {
          "indexed": false,
          "internalType": "bytes32",
          "name": "id",
          "type": "bytes32"
        }
      ],
      "name": "CreateSolution",
      "type": "event"
    },
    {
      "anonymous": false,
      "inputs": [
        {
          "indexed": false,
          "internalType": "bytes32",
          "name": "id",
          "type": "bytes32"
        }
      ],
      "name": "ExecuteSolution",
      "type": "event"
    },
    {
      "inputs": [
        {
          "internalType": "bytes32",
          "name": "",
          "type": "bytes32"
        }
      ],
      "name": "bases",
      "outputs": [
        {
          "internalType": "contract IERC20",
          "name": "collateralToken",
          "type": "address"
        },
        {
          "internalType": "bytes32",
          "name": "id",
          "type": "bytes32"
        },
        {
          "internalType": "bytes32",
          "name": "solverConfigsHash",
          "type": "bytes32"
        },
        {
          "components": [
            {
              "internalType": "bytes32",
              "name": "digest",
              "type": "bytes32"
            },
            {
              "internalType": "uint8",
              "name": "hashFunction",
              "type": "uint8"
            },
            {
              "internalType": "uint8",
              "name": "size",
              "type": "uint8"
            }
          ],
          "internalType": "struct SolverLib.Multihash",
          "name": "solverConfigsCID",
          "type": "tuple"
        }
      ],
      "stateMutability": "view",
      "type": "function"
    },
    {
      "inputs": [
        {
          "internalType": "bytes32",
          "name": "baseId",
          "type": "bytes32"
        },
        {
          "internalType": "contract IERC20",
          "name": "collateralToken",
          "type": "address"
        },
        {
          "components": [
            {
              "internalType": "contract Solver",
              "name": "implementation",
              "type": "address"
            },
            {
              "internalType": "address",
              "name": "keeper",
              "type": "address"
            },
            {
              "internalType": "address",
              "name": "arbitrator",
              "type": "address"
            },
            {
              "internalType": "uint256",
              "name": "timelockSeconds",
              "type": "uint256"
            },
            {
              "components": [
                {
                  "internalType": "address",
                  "name": "to",
                  "type": "address"
                },
                {
                  "internalType": "uint256",
                  "name": "value",
                  "type": "uint256"
                },
                {
                  "internalType": "bytes",
                  "name": "data",
                  "type": "bytes"
                }
              ],
              "internalType": "struct SolverLib.InitCall[]",
              "name": "initCalls",
              "type": "tuple[]"
            },
            {
              "components": [
                {
                  "internalType": "uint256",
                  "name": "executions",
                  "type": "uint256"
                },
                {
                  "internalType": "enum SolverLib.IngestType",
                  "name": "ingestType",
                  "type": "uint8"
                },
                {
                  "internalType": "bytes32",
                  "name": "slot",
                  "type": "bytes32"
                },
                {
                  "internalType": "uint256",
                  "name": "solverIndex",
                  "type": "uint256"
                },
                {
                  "internalType": "bytes",
                  "name": "data",
                  "type": "bytes"
                }
              ],
              "internalType": "struct SolverLib.Ingest[]",
              "name": "ingests",
              "type": "tuple[]"
            },
            {
              "components": [
                {
                  "internalType": "contract IERC20",
                  "name": "collateralToken",
                  "type": "address"
                },
                {
                  "internalType": "uint256",
                  "name": "outcomeSlots",
                  "type": "uint256"
                },
                {
                  "internalType": "uint256",
                  "name": "parentCollectionIndexSet",
                  "type": "uint256"
                },
                {
                  "internalType": "bytes32",
                  "name": "amountSlot",
                  "type": "bytes32"
                },
                {
                  "internalType": "uint256[]",
                  "name": "partition",
                  "type": "uint256[]"
                },
                {
                  "components": [
                    {
                      "internalType": "bytes32",
                      "name": "recipientAddressSlot",
                      "type": "bytes32"
                    },
                    {
                      "internalType": "bytes32[]",
                      "name": "recipientAmountSlots",
                      "type": "bytes32[]"
                    }
                  ],
                  "internalType": "struct SolverLib.Allocation[]",
                  "name": "allocations",
                  "type": "tuple[]"
                },
                {
                  "components": [
                    {
                      "internalType": "bytes32",
                      "name": "digest",
                      "type": "bytes32"
                    },
                    {
                      "internalType": "uint8",
                      "name": "hashFunction",
                      "type": "uint8"
                    },
                    {
                      "internalType": "uint8",
                      "name": "size",
                      "type": "uint8"
                    }
                  ],
                  "internalType": "struct SolverLib.Multihash[]",
                  "name": "outcomeURIs",
                  "type": "tuple[]"
                }
              ],
              "internalType": "struct SolverLib.ConditionBase",
              "name": "conditionBase",
              "type": "tuple"
            }
          ],
          "internalType": "struct SolverLib.Config[]",
          "name": "solverConfigs",
          "type": "tuple[]"
        },
        {
          "components": [
            {
              "internalType": "bytes32",
              "name": "digest",
              "type": "bytes32"
            },
            {
              "internalType": "uint8",
              "name": "hashFunction",
              "type": "uint8"
            },
            {
              "internalType": "uint8",
              "name": "size",
              "type": "uint8"
            }
          ],
          "internalType": "struct SolverLib.Multihash",
          "name": "solverConfigsCID",
          "type": "tuple"
        }
      ],
      "name": "createBase",
      "outputs": [],
      "stateMutability": "nonpayable",
      "type": "function"
    },
    {
      "inputs": [
        {
          "internalType": "bytes32",
          "name": "baseId",
          "type": "bytes32"
        },
        {
          "internalType": "bytes32",
          "name": "instanceId",
          "type": "bytes32"
        }
      ],
      "name": "createInstance",
      "outputs": [
        {
          "internalType": "bytes32",
          "name": "solutionId",
          "type": "bytes32"
        }
      ],
      "stateMutability": "nonpayable",
      "type": "function"
    },
    {
      "inputs": [
        {
          "internalType": "bytes32",
          "name": "instanceId",
          "type": "bytes32"
        },
        {
          "internalType": "contract IERC20",
          "name": "collateralToken",
          "type": "address"
        },
        {
          "components": [
            {
              "internalType": "contract Solver",
              "name": "implementation",
              "type": "address"
            },
            {
              "internalType": "address",
              "name": "keeper",
              "type": "address"
            },
            {
              "internalType": "address",
              "name": "arbitrator",
              "type": "address"
            },
            {
              "internalType": "uint256",
              "name": "timelockSeconds",
              "type": "uint256"
            },
            {
              "components": [
                {
                  "internalType": "address",
                  "name": "to",
                  "type": "address"
                },
                {
                  "internalType": "uint256",
                  "name": "value",
                  "type": "uint256"
                },
                {
                  "internalType": "bytes",
                  "name": "data",
                  "type": "bytes"
                }
              ],
              "internalType": "struct SolverLib.InitCall[]",
              "name": "initCalls",
              "type": "tuple[]"
            },
            {
              "components": [
                {
                  "internalType": "uint256",
                  "name": "executions",
                  "type": "uint256"
                },
                {
                  "internalType": "enum SolverLib.IngestType",
                  "name": "ingestType",
                  "type": "uint8"
                },
                {
                  "internalType": "bytes32",
                  "name": "slot",
                  "type": "bytes32"
                },
                {
                  "internalType": "uint256",
                  "name": "solverIndex",
                  "type": "uint256"
                },
                {
                  "internalType": "bytes",
                  "name": "data",
                  "type": "bytes"
                }
              ],
              "internalType": "struct SolverLib.Ingest[]",
              "name": "ingests",
              "type": "tuple[]"
            },
            {
              "components": [
                {
                  "internalType": "contract IERC20",
                  "name": "collateralToken",
                  "type": "address"
                },
                {
                  "internalType": "uint256",
                  "name": "outcomeSlots",
                  "type": "uint256"
                },
                {
                  "internalType": "uint256",
                  "name": "parentCollectionIndexSet",
                  "type": "uint256"
                },
                {
                  "internalType": "bytes32",
                  "name": "amountSlot",
                  "type": "bytes32"
                },
                {
                  "internalType": "uint256[]",
                  "name": "partition",
                  "type": "uint256[]"
                },
                {
                  "components": [
                    {
                      "internalType": "bytes32",
                      "name": "recipientAddressSlot",
                      "type": "bytes32"
                    },
                    {
                      "internalType": "bytes32[]",
                      "name": "recipientAmountSlots",
                      "type": "bytes32[]"
                    }
                  ],
                  "internalType": "struct SolverLib.Allocation[]",
                  "name": "allocations",
                  "type": "tuple[]"
                },
                {
                  "components": [
                    {
                      "internalType": "bytes32",
                      "name": "digest",
                      "type": "bytes32"
                    },
                    {
                      "internalType": "uint8",
                      "name": "hashFunction",
                      "type": "uint8"
                    },
                    {
                      "internalType": "uint8",
                      "name": "size",
                      "type": "uint8"
                    }
                  ],
                  "internalType": "struct SolverLib.Multihash[]",
                  "name": "outcomeURIs",
                  "type": "tuple[]"
                }
              ],
              "internalType": "struct SolverLib.ConditionBase",
              "name": "conditionBase",
              "type": "tuple"
            }
          ],
          "internalType": "struct SolverLib.Config[]",
          "name": "solverConfigs",
          "type": "tuple[]"
        },
        {
          "components": [
            {
              "internalType": "bytes32",
              "name": "digest",
              "type": "bytes32"
            },
            {
              "internalType": "uint8",
              "name": "hashFunction",
              "type": "uint8"
            },
            {
              "internalType": "uint8",
              "name": "size",
              "type": "uint8"
            }
          ],
          "internalType": "struct SolverLib.Multihash",
          "name": "solverConfigsCID",
          "type": "tuple"
        }
      ],
      "name": "createSolution",
      "outputs": [
        {
          "internalType": "bytes32",
          "name": "baseId",
          "type": "bytes32"
        },
        {
          "internalType": "bytes32",
          "name": "solutionId",
          "type": "bytes32"
        }
      ],
      "stateMutability": "nonpayable",
      "type": "function"
    },
    {
      "inputs": [
        {
          "internalType": "bytes32",
          "name": "proposalId",
          "type": "bytes32"
        },
        {
          "internalType": "bytes32",
          "name": "solutionId",
          "type": "bytes32"
        },
        {
          "components": [
            {
              "internalType": "contract Solver",
              "name": "implementation",
              "type": "address"
            },
            {
              "internalType": "address",
              "name": "keeper",
              "type": "address"
            },
            {
              "internalType": "address",
              "name": "arbitrator",
              "type": "address"
            },
            {
              "internalType": "uint256",
              "name": "timelockSeconds",
              "type": "uint256"
            },
            {
              "components": [
                {
                  "internalType": "address",
                  "name": "to",
                  "type": "address"
                },
                {
                  "internalType": "uint256",
                  "name": "value",
                  "type": "uint256"
                },
                {
                  "internalType": "bytes",
                  "name": "data",
                  "type": "bytes"
                }
              ],
              "internalType": "struct SolverLib.InitCall[]",
              "name": "initCalls",
              "type": "tuple[]"
            },
            {
              "components": [
                {
                  "internalType": "uint256",
                  "name": "executions",
                  "type": "uint256"
                },
                {
                  "internalType": "enum SolverLib.IngestType",
                  "name": "ingestType",
                  "type": "uint8"
                },
                {
                  "internalType": "bytes32",
                  "name": "slot",
                  "type": "bytes32"
                },
                {
                  "internalType": "uint256",
                  "name": "solverIndex",
                  "type": "uint256"
                },
                {
                  "internalType": "bytes",
                  "name": "data",
                  "type": "bytes"
                }
              ],
              "internalType": "struct SolverLib.Ingest[]",
              "name": "ingests",
              "type": "tuple[]"
            },
            {
              "components": [
                {
                  "internalType": "contract IERC20",
                  "name": "collateralToken",
                  "type": "address"
                },
                {
                  "internalType": "uint256",
                  "name": "outcomeSlots",
                  "type": "uint256"
                },
                {
                  "internalType": "uint256",
                  "name": "parentCollectionIndexSet",
                  "type": "uint256"
                },
                {
                  "internalType": "bytes32",
                  "name": "amountSlot",
                  "type": "bytes32"
                },
                {
                  "internalType": "uint256[]",
                  "name": "partition",
                  "type": "uint256[]"
                },
                {
                  "components": [
                    {
                      "internalType": "bytes32",
                      "name": "recipientAddressSlot",
                      "type": "bytes32"
                    },
                    {
                      "internalType": "bytes32[]",
                      "name": "recipientAmountSlots",
                      "type": "bytes32[]"
                    }
                  ],
                  "internalType": "struct SolverLib.Allocation[]",
                  "name": "allocations",
                  "type": "tuple[]"
                },
                {
                  "components": [
                    {
                      "internalType": "bytes32",
                      "name": "digest",
                      "type": "bytes32"
                    },
                    {
                      "internalType": "uint8",
                      "name": "hashFunction",
                      "type": "uint8"
                    },
                    {
                      "internalType": "uint8",
                      "name": "size",
                      "type": "uint8"
                    }
                  ],
                  "internalType": "struct SolverLib.Multihash[]",
                  "name": "outcomeURIs",
                  "type": "tuple[]"
                }
              ],
              "internalType": "struct SolverLib.ConditionBase",
              "name": "conditionBase",
              "type": "tuple"
            }
          ],
          "internalType": "struct SolverLib.Config[]",
          "name": "solverConfigs",
          "type": "tuple[]"
        }
      ],
      "name": "executeSolution",
      "outputs": [],
      "stateMutability": "nonpayable",
      "type": "function"
    },
    {
      "inputs": [
        {
          "internalType": "bytes32",
          "name": "instanceId",
          "type": "bytes32"
        }
      ],
      "name": "getSolution",
      "outputs": [
        {
          "components": [
            {
              "internalType": "bool",
              "name": "executed",
              "type": "bool"
            },
            {
              "internalType": "contract IERC20",
              "name": "collateralToken",
              "type": "address"
            },
            {
              "internalType": "address",
              "name": "proposalsHub",
              "type": "address"
            },
            {
              "internalType": "bytes32",
              "name": "proposalId",
              "type": "bytes32"
            },
            {
              "internalType": "bytes32",
              "name": "id",
              "type": "bytes32"
            },
            {
              "internalType": "bytes32",
              "name": "solverConfigsHash",
              "type": "bytes32"
            },
            {
              "components": [
                {
                  "internalType": "bytes32",
                  "name": "digest",
                  "type": "bytes32"
                },
                {
                  "internalType": "uint8",
                  "name": "hashFunction",
                  "type": "uint8"
                },
                {
                  "internalType": "uint8",
                  "name": "size",
                  "type": "uint8"
                }
              ],
              "internalType": "struct SolverLib.Multihash",
              "name": "solverConfigsCID",
              "type": "tuple"
            },
            {
              "internalType": "address[]",
              "name": "solverAddresses",
              "type": "address[]"
            }
          ],
          "internalType": "struct IPFSSolutionsHub.Solution",
          "name": "solution",
          "type": "tuple"
        }
      ],
      "stateMutability": "view",
      "type": "function"
    },
    {
      "inputs": [
        {
          "internalType": "bytes32",
          "name": "solutionId",
          "type": "bytes32"
        }
      ],
      "name": "getSolvers",
      "outputs": [
        {
          "internalType": "address[]",
          "name": "solvers",
          "type": "address[]"
        }
      ],
      "stateMutability": "view",
      "type": "function"
    },
    {
      "inputs": [
        {
          "internalType": "bytes32",
          "name": "",
          "type": "bytes32"
        }
      ],
      "name": "instances",
      "outputs": [
        {
          "internalType": "bool",
          "name": "executed",
          "type": "bool"
        },
        {
          "internalType": "bytes32",
          "name": "id",
          "type": "bytes32"
        },
        {
          "internalType": "bytes32",
          "name": "baseId",
          "type": "bytes32"
        }
      ],
      "stateMutability": "view",
      "type": "function"
    },
    {
      "inputs": [
        {
          "internalType": "bytes32",
          "name": "proposalId",
          "type": "bytes32"
        },
        {
          "internalType": "bytes32",
          "name": "solutionId",
          "type": "bytes32"
        },
        {
          "internalType": "contract IERC20",
          "name": "collateralToken",
          "type": "address"
        }
      ],
      "name": "linkToProposal",
      "outputs": [],
      "stateMutability": "nonpayable",
      "type": "function"
    },
    {
      "inputs": [
        {
          "internalType": "bytes32",
          "name": "solutionId",
          "type": "bytes32"
        },
        {
          "internalType": "uint256",
          "name": "index",
          "type": "uint256"
        }
      ],
      "name": "solverFromIndex",
      "outputs": [
        {
          "internalType": "address",
          "name": "solverAddress",
          "type": "address"
        }
      ],
      "stateMutability": "view",
      "type": "function"
    },
    {
      "inputs": [
        {
          "internalType": "bytes32",
          "name": "solutionId",
          "type": "bytes32"
        },
        {
          "components": [
            {
              "internalType": "contract Solver",
              "name": "implementation",
              "type": "address"
            },
            {
              "internalType": "address",
              "name": "keeper",
              "type": "address"
            },
            {
              "internalType": "address",
              "name": "arbitrator",
              "type": "address"
            },
            {
              "internalType": "uint256",
              "name": "timelockSeconds",
              "type": "uint256"
            },
            {
              "components": [
                {
                  "internalType": "address",
                  "name": "to",
                  "type": "address"
                },
                {
                  "internalType": "uint256",
                  "name": "value",
                  "type": "uint256"
                },
                {
                  "internalType": "bytes",
                  "name": "data",
                  "type": "bytes"
                }
              ],
              "internalType": "struct SolverLib.InitCall[]",
              "name": "initCalls",
              "type": "tuple[]"
            },
            {
              "components": [
                {
                  "internalType": "uint256",
                  "name": "executions",
                  "type": "uint256"
                },
                {
                  "internalType": "enum SolverLib.IngestType",
                  "name": "ingestType",
                  "type": "uint8"
                },
                {
                  "internalType": "bytes32",
                  "name": "slot",
                  "type": "bytes32"
                },
                {
                  "internalType": "uint256",
                  "name": "solverIndex",
                  "type": "uint256"
                },
                {
                  "internalType": "bytes",
                  "name": "data",
                  "type": "bytes"
                }
              ],
              "internalType": "struct SolverLib.Ingest[]",
              "name": "ingests",
              "type": "tuple[]"
            },
            {
              "components": [
                {
                  "internalType": "contract IERC20",
                  "name": "collateralToken",
                  "type": "address"
                },
                {
                  "internalType": "uint256",
                  "name": "outcomeSlots",
                  "type": "uint256"
                },
                {
                  "internalType": "uint256",
                  "name": "parentCollectionIndexSet",
                  "type": "uint256"
                },
                {
                  "internalType": "bytes32",
                  "name": "amountSlot",
                  "type": "bytes32"
                },
                {
                  "internalType": "uint256[]",
                  "name": "partition",
                  "type": "uint256[]"
                },
                {
                  "components": [
                    {
                      "internalType": "bytes32",
                      "name": "recipientAddressSlot",
                      "type": "bytes32"
                    },
                    {
                      "internalType": "bytes32[]",
                      "name": "recipientAmountSlots",
                      "type": "bytes32[]"
                    }
                  ],
                  "internalType": "struct SolverLib.Allocation[]",
                  "name": "allocations",
                  "type": "tuple[]"
                },
                {
                  "components": [
                    {
                      "internalType": "bytes32",
                      "name": "digest",
                      "type": "bytes32"
                    },
                    {
                      "internalType": "uint8",
                      "name": "hashFunction",
                      "type": "uint8"
                    },
                    {
                      "internalType": "uint8",
                      "name": "size",
                      "type": "uint8"
                    }
                  ],
                  "internalType": "struct SolverLib.Multihash[]",
                  "name": "outcomeURIs",
                  "type": "tuple[]"
                }
              ],
              "internalType": "struct SolverLib.ConditionBase",
              "name": "conditionBase",
              "type": "tuple"
            }
          ],
          "internalType": "struct SolverLib.Config[]",
          "name": "solverConfigs",
          "type": "tuple[]"
        }
      ],
      "name": "verifyHash",
      "outputs": [
        {
          "internalType": "bool",
          "name": "",
          "type": "bool"
        }
      ],
      "stateMutability": "view",
      "type": "function"
    }
  ],
  "bytecode": "0x60c06040523480156200001157600080fd5b506040516200256938038062002569833981016040819052620000349162000065565b6001600160a01b039182166080521660a052620000a4565b6001600160a01b03811681146200006257600080fd5b50565b600080604083850312156200007957600080fd5b825162000086816200004c565b602084015190925062000099816200004c565b809150509250929050565b60805160a051612498620000d1600039600081816102e8015261096a01526000610d5d01526124986000f3fe608060405234801561001057600080fd5b50600436106100995760003560e01c806313b168ab1461009e5780631629a16e146100b3578063191481a0146100db5780631f452f09146101065780632711447f14610119578063307d6cb61461016a57806336890eed1461018a5780634f605f81146101b2578063a2440b9d1461022a578063c4e3983f1461023d578063ddc02e031461025e575b600080fd5b6100b16100ac366004610f9e565b61027e565b005b6100c66100c1366004611774565b61064d565b60405190151581526020015b60405180910390f35b6100ee6100e93660046117ce565b6106a2565b6040516001600160a01b0390911681526020016100d2565b6100b16101143660046117fd565b610700565b61014d610127366004611878565b600160208190526000918252604090912080549181015460029091015460ff9092169183565b6040805193151584526020840192909252908201526060016100d2565b61017d610178366004611878565b610803565b6040516100d29190611891565b61019d6101983660046117fd565b610872565b604080519283526020830191909152016100d2565b61021a6101c0366004611878565b6000602081815291815260409081902080546001820154600283015484516060810186526003850154815260049094015460ff808216978601979097526101009004909516938301939093526001600160a01b0316929084565b6040516100d29493929190611900565b6100b1610238366004611934565b610954565b61025061024b3660046117ce565b610aba565b6040519081526020016100d2565b61027161026c366004611878565b610bae565b6040516100d291906119b1565b61028c836100c18385611a38565b6102dd5760405162461bcd60e51b815260206004820152601e60248201527f496e636f727265637420536f6c766572436f6e66696720636f6e74656e74000060448201526064015b60405180910390fd5b336001600160a01b037f000000000000000000000000000000000000000000000000000000000000000016146103505760405162461bcd60e51b81526020600482015260186024820152772737ba1031b7b93932b1ba10383937b837b9b0b639a43ab160411b60448201526064016102d4565b60008381526002602052604090205484146103a05760405162461bcd60e51b815260206004820152601060248201526f15dc9bdb99c81c1c9bdc1bdcd85b125960821b60448201526064016102d4565b60008381526001602052604090205460ff16156103fb5760405162461bcd60e51b815260206004820152601960248201527814dbdb1d5d1a5bdb88185b1c9958591e48195e1958dd5d1959603a1b60448201526064016102d4565b6000838152600160208190526040909120805460ff19169091179055610422838383610d47565b600083815260016020526040812060030180543392631918063f92889290919061044e5761044e611a4c565b60009182526020909120015460405160e084901b6001600160e01b031916815260048101929092526001600160a01b03166024820152604401600060405180830381600087803b1580156104a157600080fd5b505af11580156104b5573d6000803e3d6000fd5b5050505060005b6000848152600160205260409020600301548110156105865760008481526001602052604081206003018054839081106104f8576104f8611a4c565b6000918252602080832091909101548783526002909152604091829020549151630683080d60e11b815260048101929092526001600160a01b031691508190630d06101a90602401600060405180830381600087803b15801561055a57600080fd5b505af115801561056e573d6000803e3d6000fd5b5050505050808061057e90611a62565b9150506104bc565b50600083815260016020526040812060030180549091906105a9576105a9611a4c565b600091825260208220015460405163253b91a760e11b815260048101929092526001600160a01b031690634a77234e90602401600060405180830381600087803b1580156105f657600080fd5b505af115801561060a573d6000803e3d6000fd5b505050507fabe14211ae2537ee6b7aa77dde5785f740f88443cc6f3a4a4b68bb0e6a5652fa8360405161063f91815260200190565b60405180910390a150505050565b6000816040516020016106609190611d6f565b60408051601f19818403018152918152815160209283012060008681526001845282812060029081015482529381905291909120909101541490505b92915050565b600082815260016020526040812060030154156106f85760008381526001602052604090206003018054839081106106dc576106dc611a4c565b6000918252602090912001546001600160a01b0316905061069c565b50600061069c565b60008581526020819052604090206001015485900361075a5760405162461bcd60e51b81526020600482015260166024820152754261736520494420616c72656164792065786973747360501b60448201526064016102d4565b600085815260208181526040918290206001810188905580546001600160a01b0319166001600160a01b038816178155915161079a918691869101612310565b60408051601f198184030181529190528051602090910120600282015581600382016107c68282612365565b50506040518681527fb2291843796c1f5585269aa9e4f472f2c5d0b4c74b5ce230c732c3278a313d899060200160405180910390a1505050505050565b60008181526001602090815260409182902060030180548351818402810184019094528084526060939283018282801561086657602002820191906000526020600020905b81546001600160a01b03168152600190910190602001808311610848575b50505050509050919050565b60008581526001602081905260408220015481908790036108e65760405162461bcd60e51b815260206004820152602860248201527f536f6c7574696f6e734875623a3a496e7374616e636520494420616c72656164604482015267792065786973747360c01b60648201526084016102d4565b604080516020810189905290810188905260600160405160208183030381529060405280519060200120915061091f8287878787610700565b6109298288610aba565b506040518781526000805160206124438339815191529060200160405180910390a150959350505050565b60405163d3f79a0560e01b8152600481018490527f00000000000000000000000000000000000000000000000000000000000000006001600160a01b03169063d3f79a0590602401602060405180830381865afa1580156109b9573d6000803e3d6000fd5b505050506040513d601f19601f820116820180604052508101906109dd91906123a9565b610a375760405162461bcd60e51b815260206004820152602560248201527f50726f706f73616c206973206e6f742076616c69642061742070726f706f73616044820152643639a43ab160d91b60648201526084016102d4565b6000828152600160209081526040808320600201548352908290529020546001600160a01b03828116911614610aa85760405162461bcd60e51b81526020600482015260166024820152752bb937b7339031b7b63630ba32b930b6103a37b5b2b760511b60448201526064016102d4565b50600090815260026020526040902055565b600081815260016020819052604082200154829003610b185760405162461bcd60e51b815260206004820152601a602482015279496e7374616e636520494420616c72656164792065786973747360301b60448201526064016102d4565b600083815260208190526040902060010154610b675760405162461bcd60e51b815260206004820152600e60248201526d10985cd9481b9bdd08199bdd5b9960921b60448201526064016102d4565b6000828152600160208181526040928390209182018590556002820186905591518481529091600080516020612443833981519152910160405180910390a1509092915050565b610c0c60408051610100810182526000808252602080830182905282840182905260608084018390526080840183905260a0840183905284519081018552828152908101829052928301529060c08201908152602001606081525090565b60008281526001602081815260408084208151608081018352815460ff16151581529381015484840152600281015484830152600381018054835181860281018601909452808452919360608601939290830182828015610c9657602002820191906000526020600020905b81546001600160a01b03168152600190910190602001808311610c78575b505050919092525050506040808201516000908152602081815282822083516080808201865282546001600160a01b039081168352600184015483860152600280850154848901908152885160608181018b526003880154825260049097015460ff808216838b015261010090910416818b0152868601908152878b0151948d0194909452985115158b529251168985015298845290915291902054908401525160a083015250905160c082015290565b6000805b82811015610f4c5780600003610e6c577f00000000000000000000000000000000000000000000000000000000000000006001600160a01b03166346ba27c0600083878786818110610d9f57610d9f611a4c565b9050602002810190610db191906123cb565b6040518463ffffffff1660e01b8152600401610dcf939291906123eb565b6020604051808303816000875af1158015610dee573d6000803e3d6000fd5b505050506040513d601f19601f82011682018060405250810190610e129190612412565b91506001600160a01b038216610e675760405162461bcd60e51b815260206004820152601a60248201527924b73b30b634b21030b2323932b9b9903337b91029b7b63b32b960311b60448201526064016102d4565b610f01565b816001600160a01b03166395f6cfcf858584818110610e8d57610e8d611a4c565b9050602002810190610e9f91906123cb565b6040518263ffffffff1660e01b8152600401610ebb919061242f565b6020604051808303816000875af1158015610eda573d6000803e3d6000fd5b505050506040513d601f19601f82011682018060405250810190610efe9190612412565b91505b600085815260016020818152604083206003018054928301815583529091200180546001600160a01b0319166001600160a01b03841617905580610f4481611a62565b915050610d4b565b5050505050565b60008083601f840112610f6557600080fd5b5081356001600160401b03811115610f7c57600080fd5b6020830191508360208260051b8501011115610f9757600080fd5b9250929050565b60008060008060608587031215610fb457600080fd5b843593506020850135925060408501356001600160401b03811115610fd857600080fd5b610fe487828801610f53565b95989497509550505050565b634e487b7160e01b600052604160045260246000fd5b604051606081016001600160401b038111828210171561102857611028610ff0565b60405290565b60405160a081016001600160401b038111828210171561102857611028610ff0565b604080519081016001600160401b038111828210171561102857611028610ff0565b60405160e081016001600160401b038111828210171561102857611028610ff0565b604051601f8201601f191681016001600160401b03811182821017156110bc576110bc610ff0565b604052919050565b60006001600160401b038211156110dd576110dd610ff0565b5060051b60200190565b6001600160a01b03811681146110fc57600080fd5b50565b803561110a816110e7565b919050565b600082601f83011261112057600080fd5b81356001600160401b0381111561113957611139610ff0565b61114c601f8201601f1916602001611094565b81815284602083860101111561116157600080fd5b816020850160208301376000918101602001919091529392505050565b600082601f83011261118f57600080fd5b813560206111a461119f836110c4565b611094565b82815260059290921b840181019181810190868411156111c357600080fd5b8286015b848110156112575780356001600160401b03808211156111e75760008081fd5b908801906060828b03601f19018113156112015760008081fd5b611209611006565b87840135611216816110e7565b8152604084810135898301529184013591838311156112355760008081fd5b6112438d8a8588010161110f565b9082015286525050509183019183016111c7565b509695505050505050565b80356004811061110a57600080fd5b600082601f83011261128257600080fd5b8135602061129261119f836110c4565b82815260059290921b840181019181810190868411156112b157600080fd5b8286015b848110156112575780356001600160401b03808211156112d55760008081fd5b9088019060a0828b03601f19018113156112ef5760008081fd5b6112f761102e565b878401358152604061130a818601611262565b898301526060808601358284015260809150818601358184015250828501359250838311156113395760008081fd5b6113478d8a8588010161110f565b9082015286525050509183019183016112b5565b600082601f83011261136c57600080fd5b8135602061137c61119f836110c4565b82815260059290921b8401810191818101908684111561139b57600080fd5b8286015b84811015611257578035835291830191830161139f565b600082601f8301126113c757600080fd5b813560206113d761119f836110c4565b828152600592831b85018201928282019190878511156113f657600080fd5b8387015b858110156114ce5780356001600160401b038082111561141a5760008081fd5b908901906040828c03601f19018113156114345760008081fd5b61143c611050565b88840135815281840135838111156114545760008081fd5b8085019450508c603f85011261146c57600092508283fd5b88840135925061147e61119f846110c4565b83815292861b8401820192898101908e85111561149b5760008081fd5b948301945b848610156114b95785358252948a0194908a01906114a0565b828b01525087525050509284019284016113fa565b5090979650505050505050565b60ff811681146110fc57600080fd5b600082601f8301126114fb57600080fd5b8135602061150b61119f836110c4565b8281526060928302850182019282820191908785111561152a57600080fd5b8387015b858110156114ce5781818a0312156115465760008081fd5b61154e611006565b813581528582013561155f816114db565b81870152604082810135611572816114db565b90820152845292840192810161152e565b600060e0828403121561159557600080fd5b61159d611072565b90506115a8826110ff565b815260208281013590820152604080830135908201526060808301359082015260808201356001600160401b03808211156115e257600080fd5b6115ee8583860161135b565b608084015260a084013591508082111561160757600080fd5b611613858386016113b6565b60a084015260c084013591508082111561162c57600080fd5b50611639848285016114ea565b60c08301525092915050565b600061165361119f846110c4565b8381529050602080820190600585901b84018681111561167257600080fd5b845b818110156117695780356001600160401b03808211156116945760008081fd5b9087019060e0828b0312156116a95760008081fd5b6116b1611072565b6116ba836110ff565b81526116c78684016110ff565b8682015260406116d88185016110ff565b9082015260608381013590820152608080840135838111156116fa5760008081fd5b6117068d82870161117e565b82840152505060a080840135838111156117205760008081fd5b61172c8d828701611271565b82840152505060c080840135838111156117465760008081fd5b6117528d828701611583565b918301919091525086525050928201928201611674565b505050509392505050565b6000806040838503121561178757600080fd5b8235915060208301356001600160401b038111156117a457600080fd5b8301601f810185136117b557600080fd5b6117c485823560208401611645565b9150509250929050565b600080604083850312156117e157600080fd5b50508035926020909101359150565b6001600160a01b03169052565b600080600080600085870360c081121561181657600080fd5b863595506020870135611828816110e7565b945060408701356001600160401b0381111561184357600080fd5b61184f89828a01610f53565b9095509350506060605f198201121561186757600080fd5b506060860190509295509295909350565b60006020828403121561188a57600080fd5b5035919050565b6020808252825182820181905260009190848201906040850190845b818110156118d25783516001600160a01b0316835292840192918401916001016118ad565b50909695505050505050565b8051825260ff602082015116602083015260ff60408201511660408301525050565b6001600160a01b0385168152602081018490526040810183905260c0810161192b60608301846118de565b95945050505050565b60008060006060848603121561194957600080fd5b83359250602084013591506040840135611962816110e7565b809150509250925092565b600081518084526020808501945080840160005b838110156119a65781516001600160a01b031687529582019590820190600101611981565b509495945050505050565b6020815281511515602082015260018060a01b036020830151166040820152600060408301516119e460608401826117f0565b5060608301516080830152608083015160a083015260a083015160c083015260c0830151611a1560e08401826118de565b5060e083015161014083810152611a3061016084018261196d565b949350505050565b6000611a45368484611645565b9392505050565b634e487b7160e01b600052603260045260246000fd5b600060018201611a8257634e487b7160e01b600052601160045260246000fd5b5060010190565b6000815180845260005b81811015611aaf57602081850181015186830182015201611a93565b81811115611ac1576000602083870101525b50601f01601f19169290920160200192915050565b600081518084526020808501808196508360051b8101915082860160005b85811015611b47578284038952815180516001600160a01b031685528581015186860152604090810151606091860182905290611b3381870183611a89565b9a87019a9550505090840190600101611af4565b5091979650505050505050565b60048110611b7257634e487b7160e01b600052602160045260246000fd5b9052565b600081518084526020808501808196508360051b8101915082860160005b85811015611b47578284038952815160a08151865286820151611bb988880182611b54565b506040828101519087015260608083015190870152608091820151918601819052611be681870183611a89565b9a87019a9550505090840190600101611b94565b600081518084526020808501808196508360051b810191508286016000805b86811015611c80578385038a528251805186528601516040878701819052815190870181905290870190606087019084905b80821015611c6b5783518352928901929189019160019190910190611c4b565b50509a87019a95505091850191600101611c19565b509298975050505050505050565b600081518084526020808501945080840160005b838110156119a657611cb58783516118de565b6060969096019590820190600101611ca2565b80516001600160a01b0316825260208082015181840152604080830151908401526060808301519084015260808083015160e091850182905280519185018290526000929081019183906101008701905b80831015611d395784518252938301936001929092019190830190611d19565b5060a0860151935086810360a0880152611d538185611bfa565b935050505060c083015184820360c086015261192b8282611c8e565b60006020808301818452808551808352604092508286019150828160051b87010184880160005b83811015611e4457888303603f19018552815180516001600160a01b0390811685528882015116888501528681015160e090611dd4898701826117f0565b5060608083015181870152506080808301518282880152611df783880182611ad6565b9250505060a08083015186830382880152611e128382611b76565b9250505060c08083015192508582038187015250611e308183611cc8565b968901969450505090860190600101611d96565b509098975050505050505050565b6000808335601e19843603018112611e6957600080fd5b83016020810192503590506001600160401b03811115611e8857600080fd5b8060051b3603831315610f9757600080fd5b6000808335601e19843603018112611eb157600080fd5b83016020810192503590506001600160401b03811115611ed057600080fd5b803603831315610f9757600080fd5b81835281816020850137506000828201602090810191909152601f909101601f19169091010190565b81835260006020808501808196508560051b81019150846000805b88811015611c80578385038a528235605e19893603018112611f43578283fd5b880160608135611f52816110e7565b6001600160a01b0316875281880135888801526040611f7381840184611e9a565b935082828a0152611f87838a018583611edf565b9d8a019d98505050938701935050600101611f23565b81835260006020808501808196508560051b81019150846000805b88811015611c80578385038a528235609e19893603018112611fd8578283fd5b88018035865260a0611feb888301611262565b611ff789890182611b54565b506040828101359088015260608083013590880152608061201a81840184611e9a565b935082828a015261202e838a018583611edf565b9d8a019d98505050938701935050600101611fb8565b6000823560de1983360301811261205a57600080fd5b90910192915050565b81835260006001600160fb1b0383111561207c57600080fd5b8260051b8083602087013760009401602001938452509192915050565b6000808335601e198436030181126120b057600080fd5b83016020810192503590506001600160401b038111156120cf57600080fd5b606081023603831315610f9757600080fd5b8183526000602080850194508260005b858110156119a657813587528282013561210a816114db565b60ff9081168885015260409083820135612123816114db565b169088015260609687019691909101906001016120f1565b60008135612148816110e7565b6001600160a01b0316835260208281013581850152604080840135818601526060808501359086015261217e6080850185611e52565b60e0608088015261219360e088018284612063565b9150506121a360a0860186611e52565b87830360a0890152808352848301600582901b84018601836000805b8581101561221e57878403601f19018552823536889003603e190181126121e4578283fd5b8701803585526121f68b820182611e52565b91508a8c87015261220a8b87018383612063565b968c019695505050918901916001016121bf565b50505061222e60c08a018a612099565b9750955089810360c08b01526122458188886120e1565b9a9950505050505050505050565b60008135612260816110e7565b6001600160a01b03908116845260208301359061227c826110e7565b1660208401526040820135612290816110e7565b61229d60408501826117f0565b50606082013560608401526122b56080830183611e52565b60e060808601526122ca60e086018284611f08565b9150506122da60a0840184611e52565b85830360a08701526122ed838284611f9d565b925050506122fe60c0840184612044565b84820360c086015261192b828261213b565b60208082528181018390526000906040600585901b8401810190840186845b87811015611b4757868403603f190183526123538461234e848c612044565b612253565b9350918401919084019060010161232f565b8135815560018101602083013561237b816114db565b8154604085013561238b816114db565b61ff008160081b1660ff841661ffff19841617178455505050505050565b6000602082840312156123bb57600080fd5b81518015158114611a4557600080fd5b6000823560de198336030181126123e157600080fd5b9190910192915050565b60018060a01b038416815282602082015260606040820152600061192b6060830184612253565b60006020828403121561242457600080fd5b8151611a45816110e7565b602081526000611a45602083018461225356feaf58c2d61bce90c15ecad6e5142ecbbb0b542b557388df7578e0162b098999a3a2646970667358221220f60b75d0397639bb38b87e9045873bc8448dfd912741e1a37a8198c7556d18d264736f6c634300080d0033",
  "linkReferences": {},
  "deployedLinkReferences": {}
}