{
  "_format": "hh-sol-artifact-1",
  "contractName": "IPFSSolutionsHub",
  "sourceName": "contracts/IPFSSolutionsHub.sol",
  "abi": [
    {
      "inputs": [
        {
          "internalType": "address",
          "name": "_factoryAddress",
          "type": "address"
        }
      ],
      "stateMutability": "nonpayable",
      "type": "constructor"
    },
    {
      "anonymous": false,
      "inputs": [
        {
          "indexed": false,
          "internalType": "bytes32",
          "name": "id",
          "type": "bytes32"
        }
      ],
      "name": "CreateSolution",
      "type": "event"
    },
    {
      "anonymous": false,
      "inputs": [
        {
          "indexed": false,
          "internalType": "bytes32",
          "name": "id",
          "type": "bytes32"
        }
      ],
      "name": "ExecuteSolution",
      "type": "event"
    },
    {
      "inputs": [
        {
          "internalType": "bytes32",
          "name": "_id",
          "type": "bytes32"
        },
        {
          "internalType": "contract IERC20",
          "name": "_collateralToken",
          "type": "address"
        },
        {
          "components": [
            {
              "internalType": "contract Solver",
              "name": "implementation",
              "type": "address"
            },
            {
              "internalType": "address",
              "name": "keeper",
              "type": "address"
            },
            {
              "internalType": "address",
              "name": "arbitrator",
              "type": "address"
            },
            {
              "internalType": "uint256",
              "name": "timelockSeconds",
              "type": "uint256"
            },
            {
              "internalType": "bytes",
              "name": "data",
              "type": "bytes"
            },
            {
              "components": [
                {
                  "internalType": "uint256",
                  "name": "executions",
                  "type": "uint256"
                },
                {
                  "internalType": "enum SolverLib.IngestType",
                  "name": "ingestType",
                  "type": "uint8"
                },
                {
                  "internalType": "bytes32",
                  "name": "slot",
                  "type": "bytes32"
                },
                {
                  "internalType": "uint256",
                  "name": "solverIndex",
                  "type": "uint256"
                },
                {
                  "internalType": "bytes",
                  "name": "data",
                  "type": "bytes"
                }
              ],
              "internalType": "struct SolverLib.Ingest[]",
              "name": "ingests",
              "type": "tuple[]"
            },
            {
              "components": [
                {
                  "internalType": "contract IERC20",
                  "name": "collateralToken",
                  "type": "address"
                },
                {
                  "internalType": "uint256",
                  "name": "outcomeSlots",
                  "type": "uint256"
                },
                {
                  "internalType": "uint256",
                  "name": "parentCollectionIndexSet",
                  "type": "uint256"
                },
                {
                  "internalType": "bytes32",
                  "name": "amountSlot",
                  "type": "bytes32"
                },
                {
                  "internalType": "uint256[]",
                  "name": "partition",
                  "type": "uint256[]"
                },
                {
                  "components": [
                    {
                      "internalType": "bytes32",
                      "name": "recipientAddressSlot",
                      "type": "bytes32"
                    },
                    {
                      "internalType": "bytes32[]",
                      "name": "recipientAmountSlots",
                      "type": "bytes32[]"
                    }
                  ],
                  "internalType": "struct SolverLib.Allocation[]",
                  "name": "allocations",
                  "type": "tuple[]"
                },
                {
                  "components": [
                    {
                      "internalType": "bytes32",
                      "name": "digest",
                      "type": "bytes32"
                    },
                    {
                      "internalType": "uint8",
                      "name": "hashFunction",
                      "type": "uint8"
                    },
                    {
                      "internalType": "uint8",
                      "name": "size",
                      "type": "uint8"
                    }
                  ],
                  "internalType": "struct SolverLib.Multihash[]",
                  "name": "outcomeURIs",
                  "type": "tuple[]"
                }
              ],
              "internalType": "struct SolverLib.ConditionBase",
              "name": "conditionBase",
              "type": "tuple"
            }
          ],
          "internalType": "struct SolverLib.Config[]",
          "name": "_solverConfigs",
          "type": "tuple[]"
        },
        {
          "components": [
            {
              "internalType": "bytes32",
              "name": "digest",
              "type": "bytes32"
            },
            {
              "internalType": "uint8",
              "name": "hashFunction",
              "type": "uint8"
            },
            {
              "internalType": "uint8",
              "name": "size",
              "type": "uint8"
            }
          ],
          "internalType": "struct SolverLib.Multihash",
          "name": "_solverConfigsCID",
          "type": "tuple"
        }
      ],
      "name": "createSolution",
      "outputs": [
        {
          "internalType": "bytes32",
          "name": "_solutionId",
          "type": "bytes32"
        }
      ],
      "stateMutability": "nonpayable",
      "type": "function"
    },
    {
      "inputs": [
        {
          "internalType": "bytes32",
          "name": "_proposalId",
          "type": "bytes32"
        },
        {
          "internalType": "bytes32",
          "name": "_solutionId",
          "type": "bytes32"
        },
        {
          "components": [
            {
              "internalType": "contract Solver",
              "name": "implementation",
              "type": "address"
            },
            {
              "internalType": "address",
              "name": "keeper",
              "type": "address"
            },
            {
              "internalType": "address",
              "name": "arbitrator",
              "type": "address"
            },
            {
              "internalType": "uint256",
              "name": "timelockSeconds",
              "type": "uint256"
            },
            {
              "internalType": "bytes",
              "name": "data",
              "type": "bytes"
            },
            {
              "components": [
                {
                  "internalType": "uint256",
                  "name": "executions",
                  "type": "uint256"
                },
                {
                  "internalType": "enum SolverLib.IngestType",
                  "name": "ingestType",
                  "type": "uint8"
                },
                {
                  "internalType": "bytes32",
                  "name": "slot",
                  "type": "bytes32"
                },
                {
                  "internalType": "uint256",
                  "name": "solverIndex",
                  "type": "uint256"
                },
                {
                  "internalType": "bytes",
                  "name": "data",
                  "type": "bytes"
                }
              ],
              "internalType": "struct SolverLib.Ingest[]",
              "name": "ingests",
              "type": "tuple[]"
            },
            {
              "components": [
                {
                  "internalType": "contract IERC20",
                  "name": "collateralToken",
                  "type": "address"
                },
                {
                  "internalType": "uint256",
                  "name": "outcomeSlots",
                  "type": "uint256"
                },
                {
                  "internalType": "uint256",
                  "name": "parentCollectionIndexSet",
                  "type": "uint256"
                },
                {
                  "internalType": "bytes32",
                  "name": "amountSlot",
                  "type": "bytes32"
                },
                {
                  "internalType": "uint256[]",
                  "name": "partition",
                  "type": "uint256[]"
                },
                {
                  "components": [
                    {
                      "internalType": "bytes32",
                      "name": "recipientAddressSlot",
                      "type": "bytes32"
                    },
                    {
                      "internalType": "bytes32[]",
                      "name": "recipientAmountSlots",
                      "type": "bytes32[]"
                    }
                  ],
                  "internalType": "struct SolverLib.Allocation[]",
                  "name": "allocations",
                  "type": "tuple[]"
                },
                {
                  "components": [
                    {
                      "internalType": "bytes32",
                      "name": "digest",
                      "type": "bytes32"
                    },
                    {
                      "internalType": "uint8",
                      "name": "hashFunction",
                      "type": "uint8"
                    },
                    {
                      "internalType": "uint8",
                      "name": "size",
                      "type": "uint8"
                    }
                  ],
                  "internalType": "struct SolverLib.Multihash[]",
                  "name": "outcomeURIs",
                  "type": "tuple[]"
                }
              ],
              "internalType": "struct SolverLib.ConditionBase",
              "name": "conditionBase",
              "type": "tuple"
            }
          ],
          "internalType": "struct SolverLib.Config[]",
          "name": "solverConfigs",
          "type": "tuple[]"
        }
      ],
      "name": "executeSolution",
      "outputs": [],
      "stateMutability": "nonpayable",
      "type": "function"
    },
    {
      "inputs": [
        {
          "internalType": "bytes32",
          "name": "_proposalId",
          "type": "bytes32"
        },
        {
          "internalType": "bytes32",
          "name": "_solutionId",
          "type": "bytes32"
        }
      ],
      "name": "linkToProposal",
      "outputs": [],
      "stateMutability": "nonpayable",
      "type": "function"
    },
    {
      "inputs": [
        {
          "internalType": "bytes32",
          "name": "",
          "type": "bytes32"
        }
      ],
      "name": "solutions",
      "outputs": [
        {
          "internalType": "bool",
          "name": "executed",
          "type": "bool"
        },
        {
          "internalType": "contract IERC20",
          "name": "collateralToken",
          "type": "address"
        },
        {
          "internalType": "address",
          "name": "keeper",
          "type": "address"
        },
        {
          "internalType": "address",
          "name": "proposalHub",
          "type": "address"
        },
        {
          "internalType": "bytes32",
          "name": "proposalId",
          "type": "bytes32"
        },
        {
          "internalType": "bytes32",
          "name": "id",
          "type": "bytes32"
        },
        {
          "internalType": "bytes32",
          "name": "solverConfigsHash",
          "type": "bytes32"
        },
        {
          "components": [
            {
              "internalType": "bytes32",
              "name": "digest",
              "type": "bytes32"
            },
            {
              "internalType": "uint8",
              "name": "hashFunction",
              "type": "uint8"
            },
            {
              "internalType": "uint8",
              "name": "size",
              "type": "uint8"
            }
          ],
          "internalType": "struct SolverLib.Multihash",
          "name": "solverConfigsCID",
          "type": "tuple"
        }
      ],
      "stateMutability": "view",
      "type": "function"
    },
    {
      "inputs": [
        {
          "internalType": "bytes32",
          "name": "_solutionId",
          "type": "bytes32"
        },
        {
          "internalType": "uint256",
          "name": "_index",
          "type": "uint256"
        }
      ],
      "name": "solverFromIndex",
      "outputs": [
        {
          "internalType": "address",
          "name": "_address",
          "type": "address"
        }
      ],
      "stateMutability": "view",
      "type": "function"
    },
    {
      "inputs": [
        {
          "internalType": "bytes32",
          "name": "solutionId",
          "type": "bytes32"
        },
        {
          "components": [
            {
              "internalType": "contract Solver",
              "name": "implementation",
              "type": "address"
            },
            {
              "internalType": "address",
              "name": "keeper",
              "type": "address"
            },
            {
              "internalType": "address",
              "name": "arbitrator",
              "type": "address"
            },
            {
              "internalType": "uint256",
              "name": "timelockSeconds",
              "type": "uint256"
            },
            {
              "internalType": "bytes",
              "name": "data",
              "type": "bytes"
            },
            {
              "components": [
                {
                  "internalType": "uint256",
                  "name": "executions",
                  "type": "uint256"
                },
                {
                  "internalType": "enum SolverLib.IngestType",
                  "name": "ingestType",
                  "type": "uint8"
                },
                {
                  "internalType": "bytes32",
                  "name": "slot",
                  "type": "bytes32"
                },
                {
                  "internalType": "uint256",
                  "name": "solverIndex",
                  "type": "uint256"
                },
                {
                  "internalType": "bytes",
                  "name": "data",
                  "type": "bytes"
                }
              ],
              "internalType": "struct SolverLib.Ingest[]",
              "name": "ingests",
              "type": "tuple[]"
            },
            {
              "components": [
                {
                  "internalType": "contract IERC20",
                  "name": "collateralToken",
                  "type": "address"
                },
                {
                  "internalType": "uint256",
                  "name": "outcomeSlots",
                  "type": "uint256"
                },
                {
                  "internalType": "uint256",
                  "name": "parentCollectionIndexSet",
                  "type": "uint256"
                },
                {
                  "internalType": "bytes32",
                  "name": "amountSlot",
                  "type": "bytes32"
                },
                {
                  "internalType": "uint256[]",
                  "name": "partition",
                  "type": "uint256[]"
                },
                {
                  "components": [
                    {
                      "internalType": "bytes32",
                      "name": "recipientAddressSlot",
                      "type": "bytes32"
                    },
                    {
                      "internalType": "bytes32[]",
                      "name": "recipientAmountSlots",
                      "type": "bytes32[]"
                    }
                  ],
                  "internalType": "struct SolverLib.Allocation[]",
                  "name": "allocations",
                  "type": "tuple[]"
                },
                {
                  "components": [
                    {
                      "internalType": "bytes32",
                      "name": "digest",
                      "type": "bytes32"
                    },
                    {
                      "internalType": "uint8",
                      "name": "hashFunction",
                      "type": "uint8"
                    },
                    {
                      "internalType": "uint8",
                      "name": "size",
                      "type": "uint8"
                    }
                  ],
                  "internalType": "struct SolverLib.Multihash[]",
                  "name": "outcomeURIs",
                  "type": "tuple[]"
                }
              ],
              "internalType": "struct SolverLib.ConditionBase",
              "name": "conditionBase",
              "type": "tuple"
            }
          ],
          "internalType": "struct SolverLib.Config[]",
          "name": "solverConfigs",
          "type": "tuple[]"
        }
      ],
      "name": "verifyHash",
      "outputs": [
        {
          "internalType": "bool",
          "name": "",
          "type": "bool"
        }
      ],
      "stateMutability": "view",
      "type": "function"
    }
  ],
  "bytecode": "0x60a060405234801561001057600080fd5b50604051611e91380380611e9183398101604081905261002f91610044565b60601b6001600160601b031916608052610072565b600060208284031215610055578081fd5b81516001600160a01b038116811461006b578182fd5b9392505050565b60805160601c611e0461008d60003960005050611e046000f3fe608060405234801561001057600080fd5b50600436106100725760003560e01c806375c705091161005057806375c70509146100d557806380d259ec146100fc578063b39c84771461010f57610072565b8063191481a0146100775780635f49a434146100a057806373c587f5146100c0575b600080fd5b61008a61008536600461110d565b61012f565b60405161009791906117df565b60405180910390f35b6100b36100ae36600461117f565b61017c565b60405161009791906119b1565b6100d36100ce36600461110d565b6102a6565b005b6100e86100e336600461109d565b610383565b604051610097989796959493929190611959565b6100d361010a36600461112e565b610401565b61012261011d3660046110b5565b610847565b604051610097919061194e565b600082815260208190526040812060080180548390811061016057634e487b7160e01b600052603260045260246000fd5b6000918252602090912001546001600160a01b03169392505050565b6000858152602081905260408120600401548614156101b65760405162461bcd60e51b81526004016101ad90611a76565b60405180910390fd5b600086815260208181526040918290206004810189905560018101805473ffffffffffffffffffffffffffffffffffffffff19163317905580546001600160a01b038916610100027fffffffffffffffffffffff0000000000000000000000000000000000000000ff909116178155915161023591879187910161181b565b60408051601f198184030181529190528051602090910120600582015582600682016102618282611d5b565b9050507faf58c2d61bce90c15ecad6e5142ecbbb0b542b557388df7578e0162b098999a38760405161029391906119b1565b60405180910390a1509495945050505050565b6040517fd3f79a05000000000000000000000000000000000000000000000000000000008152339063d3f79a05906102e29085906004016119b1565b60206040518083038186803b1580156102fa57600080fd5b505afa15801561030e573d6000803e3d6000fd5b505050506040513d601f19601f82011682018060405250810190610332919061107d565b61034e5760405162461bcd60e51b81526004016101ad90611b0a565b600090815260208190526040902060028101805473ffffffffffffffffffffffffffffffffffffffff19163317905560030155565b6000602081815291815260409081902080546001820154600283015460038401546004850154600586015487516060810189526006880154815260079097015460ff8181169a89019a909a52610100908190048a1698880198909852978516976001600160a01b039790950487169693841695929093169390929188565b61040f8361011d8385611d11565b61042b5760405162461bcd60e51b81526004016101ad90611ad3565b6000838152602081905260409020600201546001600160a01b031633146104645760405162461bcd60e51b81526004016101ad90611b67565b60008381526020819052604090206003015484146104945760405162461bcd60e51b81526004016101ad90611a3f565b60008381526020819052604090205460ff16156104c35760405162461bcd60e51b81526004016101ad90611a08565b6000838152602081905260409020805460ff191660011790556104e783838361088a565b336001600160a01b0316631918063f8560008087815260200190815260200160002060080160008154811061052c57634e487b7160e01b600052603260045260246000fd5b6000918252602090912001546040517fffffffff0000000000000000000000000000000000000000000000000000000060e085901b16815261057b92916001600160a01b0316906004016119ba565b600060405180830381600087803b15801561059557600080fd5b505af11580156105a9573d6000803e3d6000fd5b5050505060005b6000848152602081905260409020600801548110156106a65760008481526020819052604081206008018054839081106105fa57634e487b7160e01b600052603260045260246000fd5b6000918252602080832090910154878352908290526040918290206003015491517f0d06101a0000000000000000000000000000000000000000000000000000000081526001600160a01b0390911692508291630d06101a9161066091906004016119b1565b600060405180830381600087803b15801561067a57600080fd5b505af115801561068e573d6000803e3d6000fd5b5050505050808061069e90611d1e565b9150506105b0565b50600083815260208190526040812060080180549091906106d757634e487b7160e01b600052603260045260246000fd5b60009182526020822001546040517f4a77234e0000000000000000000000000000000000000000000000000000000081526001600160a01b0390911691634a77234e9161072791906004016119b1565b600060405180830381600087803b15801561074157600080fd5b505af1158015610755573d6000803e3d6000fd5b5050506000848152602081905260408120600801805490925061078857634e487b7160e01b600052603260045260246000fd5b60009182526020822001546040517fb992db0f0000000000000000000000000000000000000000000000000000000081526001600160a01b039091169163b992db0f916107d891906004016119b1565b600060405180830381600087803b1580156107f257600080fd5b505af1158015610806573d6000803e3d6000fd5b505050507fabe14211ae2537ee6b7aa77dde5785f740f88443cc6f3a4a4b68bb0e6a5652fa8360405161083991906119b1565b60405180910390a150505050565b60008160405160200161085a919061186e565b60408051601f19818403018152918152815160209283012060008681529283905291206005015414905092915050565b6000805b82811015610a9057806109875773e7f1725e7734ce288f8367e1bb143e90bb3f0512637bdf86236000838787828181106108d857634e487b7160e01b600052603260045260246000fd5b90506020028101906108ea9190611bb1565b6040518463ffffffff1660e01b8152600401610908939291906117f3565b602060405180830381600087803b15801561092257600080fd5b505af1158015610936573d6000803e3d6000fd5b505050506040513d601f19601f8201168201806040525081019061095a919061105a565b91506001600160a01b0382166109825760405162461bcd60e51b81526004016101ad906119d1565b610a39565b816001600160a01b0316630944e26e8585848181106109b657634e487b7160e01b600052603260045260246000fd5b90506020028101906109c89190611bb1565b6040518263ffffffff1660e01b81526004016109e49190611b9e565b602060405180830381600087803b1580156109fe57600080fd5b505af1158015610a12573d6000803e3d6000fd5b505050506040513d601f19601f82011682018060405250810190610a36919061105a565b91505b60008581526020818152604082206008018054600181018255908352912001805473ffffffffffffffffffffffffffffffffffffffff19166001600160a01b03841617905580610a8881611d1e565b91505061088e565b5050505050565b6000610aaa610aa584611bfa565b611bd0565b83815290506020808201908360005b86811015610ba8578135860160e080828b031215610ad657600080fd5b610adf81611bd0565b9050610aea82610bb3565b8152610af7858301610bb3565b858201526040610b08818401610bb3565b908201526060828101359082015260808083013567ffffffffffffffff80821115610b3257600080fd5b610b3e8d838701610f1c565b8385015260a0925082850135915080821115610b5957600080fd5b610b658d838701610d21565b8385015260c0925082850135915080821115610b8057600080fd5b50610b8d8c828601610f96565b91830191909152508552509282019290820190600101610ab9565b505050509392505050565b8035610bbe81611da7565b919050565b600082601f830112610bd3578081fd5b81356020610be3610aa583611bfa565b82815281810190858301855b85811015610ccb5781358801604080601f19838d03011215610c0f578889fd5b805181810167ffffffffffffffff8282108183111715610c3157610c31611d45565b908352838901358252838301359080821115610c4b578b8cfd5b508084019350508b603f840112610c6057898afd5b87830135610c70610aa582611bfa565b808282528a820191508486018f868d86028901011115610c8e578d8efd5b8d96505b83871015610cb0578035835260019690960195918b01918b01610c92565b50838b01525050865250509284019290840190600101610bef565b5090979650505050505050565b60008083601f840112610ce9578182fd5b50813567ffffffffffffffff811115610d00578182fd5b6020830191508360208083028501011115610d1a57600080fd5b9250929050565b600082601f830112610d31578081fd5b81356020610d41610aa583611bfa565b82815281810190858301855b85811015610ccb578135880160a080601f19838d03011215610d6d578889fd5b6040805182810167ffffffffffffffff8282108183111715610d9157610d91611d45565b8184528a8601358352610da5848701610f87565b8b84015260609150818601358484015260809350838601358284015284860135945080851115610dd3578c8dfd5b5050610de38d8a85870101610f1c565b91810191909152865250509284019290840190600101610d4d565b600082601f830112610e0e578081fd5b81356020610e1e610aa583611bfa565b82815281810190858301606080860288018501891015610e3c578687fd5b865b86811015610eb45781838b031215610e54578788fd5b6040805183810181811067ffffffffffffffff82111715610e7757610e77611d45565b82528435815287850135610e8a81611dbf565b8189015284820135610e9b81611dbf565b9181019190915285529385019391810191600101610e3e565b509198975050505050505050565b600082601f830112610ed2578081fd5b81356020610ee2610aa583611bfa565b8281528181019085830183850287018401881015610efe578586fd5b855b85811015610ccb57813584529284019290840190600101610f00565b600082601f830112610f2c578081fd5b813567ffffffffffffffff811115610f4657610f46611d45565b610f59601f8201601f1916602001611bd0565b818152846020838601011115610f6d578283fd5b816020850160208301379081016020019190915292915050565b803560048110610bbe57600080fd5b600060e08284031215610fa7578081fd5b610fb160e0611bd0565b9050610fbc82610bb3565b8152602082013560208201526040820135604082015260608201356060820152608082013567ffffffffffffffff80821115610ff757600080fd5b61100385838601610ec2565b608084015260a084013591508082111561101c57600080fd5b61102885838601610bc3565b60a084015260c084013591508082111561104157600080fd5b5061104e84828501610dfe565b60c08301525092915050565b60006020828403121561106b578081fd5b815161107681611da7565b9392505050565b60006020828403121561108e578081fd5b81518015158114611076578182fd5b6000602082840312156110ae578081fd5b5035919050565b600080604083850312156110c7578081fd5b82359150602083013567ffffffffffffffff8111156110e4578182fd5b8301601f810185136110f4578182fd5b61110385823560208401610a97565b9150509250929050565b6000806040838503121561111f578182fd5b50508035926020909101359150565b60008060008060608587031215611143578182fd5b8435935060208501359250604085013567ffffffffffffffff811115611167578283fd5b61117387828801610cd8565b95989497509550505050565b600080600080600085870360c0811215611197578384fd5b8635955060208701356111a981611da7565b9450604087013567ffffffffffffffff8111156111c4578485fd5b6111d089828a01610cd8565b9095509350506060605f19820112156111e7578182fd5b506060860190509295509295909350565b6001600160a01b03169052565b60008284527f07ffffffffffffffffffffffffffffffffffffffffffffffffffffffffffffff831115611236578081fd5b6020830280836020870137939093016020019283525090919050565b6000815180845260208085018081965082840281019150828601855b858110156112d55782840389528151805185528501516040868601819052815190860181905290860190606086019089905b808210156112c057835183529288019291880191600191909101906112a0565b5050998601999450509084019060010161126e565b5091979650505050505050565b818352602080840193600091908185020181018584845b878110156112d55782840389528135609e19883603018112611319578687fd5b87018035855260a061132c878301610f87565b61133888880182611519565b506040828101359087015260608083013590870152608061135b81840184611cae565b9350828289015261136f83890185836114a4565b9c89019c975050509286019250506001016112f9565b6000815180845260208085018081965082840281019150828601855b858110156112d5578284038952815160a081518652868201516113c688880182611519565b5060408281015190870152606080830151908701526080918201519186018190526113f3818701836114ce565b9a87019a95505050908401906001016113a1565b60008284526020808501945082825b8581101561146057813587528282013561142f81611dbf565b60ff908116888501526040908382013561144881611dbf565b16908801526060968701969190910190600101611416565b509495945050505050565b6000815180845260208085019450808401835b83811015611460576114918783516117bd565b606096909601959082019060010161147e565b60008284528282602086013780602084860101526020601f19601f85011685010190509392505050565b60008151808452815b818110156114f3576020818501810151868301820152016114d7565b818111156115045782602083870101525b50601f01601f19169290920160200192915050565b6004811061153757634e487b7160e01b600052602160045260246000fd5b9052565b6000813561154881611da7565b6001600160a01b0316835260208281013581850152604080840135818601526060808501359086015261157e6080850185611c1e565b60e0608088015261159360e088018284611205565b9150506115a360a0860186611c1e565b87830360a08901528083528483018582028401860183885b8481101561161a57868303601f19018452813536879003603e190181126115e0578a8bfd5b8601803584526115f28a820182611c1e565b9150898b8601526116068a86018383611205565b958b019594505050908801906001016115bb565b505061162960c08a018a611c66565b9750955089810360c08b0152611640818888611407565b9a9950505050505050505050565b600060e083016001600160a01b038351168452602080840151818601526040840151604086015260608401516060860152608084015160e060808701528281518085526101008801915083830194508592505b808310156116c157845182529383019360019290920191908301906116a1565b5060a0860151935086810360a08801526116db8185611252565b935050505060c083015184820360c08601526116f7828261146b565b95945050505050565b6000813561170d81611da7565b6001600160a01b03908116845260208301359061172982611da7565b166020840152604082013561173d81611da7565b61174a60408501826111f8565b50606082013560608401526117626080830183611cae565b60e0608086015261177760e0860182846114a4565b91505061178760a0840184611c1e565b85830360a087015261179a8382846112e2565b925050506117ab60c0840184611cf3565b84820360c08601526116f7828261153b565b8051825260ff602082015116602083015260ff60408201511660408301525050565b6001600160a01b0391909116815260200190565b60006001600160a01b0385168252836020830152606060408301526116f76060830184611700565b602080825281810183905260009060408482028401810190840186845b878110156112d557868403603f1901835261185c84611857848c611cf3565b611700565b93509184019190840190600101611838565b60208082528251828201819052600091906040908185019080840286018301878501865b8381101561194057888303603f19018552815180516001600160a01b0390811685528882015116888501528681015160e0906118d0898701826111f8565b50606080830151818701525060808083015182828801526118f3838801826114ce565b9250505060a0808301518683038288015261190e8382611385565b9250505060c0808301519250858203818701525061192c818361164e565b968901969450505090860190600101611892565b509098975050505050505050565b901515815260200190565b88151581526001600160a01b0388811660208301528781166040830152861660608201526080810185905260a0810184905260c0810183905261014081016119a460e08301846117bd565b9998505050505050505050565b90815260200190565b9182526001600160a01b0316602082015260400190565b6020808252601a908201527f496e76616c6964206164647265737320666f7220536f6c766572000000000000604082015260600190565b60208082526019908201527f536f6c7574696f6e20616c726561647920657865637574656400000000000000604082015260600190565b60208082526010908201527f57726f6e672070726f706f73616c496400000000000000000000000000000000604082015260600190565b60208082526024908201527f536f6c7574696f6e734875623a3a5468697320494420616c726561647920657860408201527f6973747300000000000000000000000000000000000000000000000000000000606082015260800190565b6020808252601e908201527f496e636f727265637420536f6c766572436f6e66696720636f6e74656e740000604082015260600190565b60208082526024908201527f50726f706f73616c206973206e6f742076616c69642061742070726f706f736160408201527f6c48756200000000000000000000000000000000000000000000000000000000606082015260800190565b60208082526017908201527f4e6f7420636f72726563742070726f706f73616c487562000000000000000000604082015260600190565b6000602082526110766020830184611700565b6000823560de19833603018112611bc6578182fd5b9190910192915050565b60405181810167ffffffffffffffff81118282101715611bf257611bf2611d45565b604052919050565b600067ffffffffffffffff821115611c1457611c14611d45565b5060209081020190565b6000808335601e19843603018112611c34578283fd5b830160208101925035905067ffffffffffffffff811115611c5457600080fd5b602081023603831315610d1a57600080fd5b6000808335601e19843603018112611c7c578283fd5b830160208101925035905067ffffffffffffffff811115611c9c57600080fd5b606081023603831315610d1a57600080fd5b6000808335601e19843603018112611cc4578283fd5b830160208101925035905067ffffffffffffffff811115611ce457600080fd5b803603831315610d1a57600080fd5b6000823560de19833603018112611d08578182fd5b90910192915050565b6000611076368484610a97565b6000600019821415611d3e57634e487b7160e01b81526011600452602481fd5b5060010190565b634e487b7160e01b600052604160045260246000fd5b81358155600181016020830135611d7181611dbf565b815460ff191660ff91909116178082556040840135611d8f81611dbf565b61ff008160081b1661ff001983161783555050505050565b6001600160a01b0381168114611dbc57600080fd5b50565b60ff81168114611dbc57600080fdfea2646970667358221220d314a3971c12b6a4520942dcfa4e755b684b6a915eb66f83faaa97ed68936bf064736f6c63430008000033",
  "linkReferences": {},
  "deployedLinkReferences": {}
}