{
  "_format": "hh-sol-artifact-1",
  "contractName": "IPFSSolutionsHub",
  "sourceName": "contracts/IPFSSolutionsHub.sol",
  "abi": [
    {
      "inputs": [
        {
          "internalType": "address",
          "name": "_factoryAddress",
          "type": "address"
        }
      ],
      "stateMutability": "nonpayable",
      "type": "constructor"
    },
    {
      "anonymous": false,
      "inputs": [
        {
          "indexed": false,
          "internalType": "bytes32",
          "name": "id",
          "type": "bytes32"
        }
      ],
      "name": "CreateSolution",
      "type": "event"
    },
    {
      "anonymous": false,
      "inputs": [
        {
          "indexed": false,
          "internalType": "bytes32",
          "name": "id",
          "type": "bytes32"
        }
      ],
      "name": "ExecuteSolution",
      "type": "event"
    },
    {
      "inputs": [
        {
          "internalType": "bytes32",
          "name": "_id",
          "type": "bytes32"
        },
        {
          "internalType": "contract IERC20",
          "name": "_collateralToken",
          "type": "address"
        },
        {
          "components": [
            {
              "internalType": "contract Solver",
              "name": "implementation",
              "type": "address"
            },
            {
              "internalType": "address",
              "name": "keeper",
              "type": "address"
            },
            {
              "internalType": "address",
              "name": "arbitrator",
              "type": "address"
            },
            {
              "internalType": "uint256",
              "name": "timelockSeconds",
              "type": "uint256"
            },
            {
              "internalType": "bytes",
              "name": "data",
              "type": "bytes"
            },
            {
              "components": [
                {
                  "internalType": "uint256",
                  "name": "executions",
                  "type": "uint256"
                },
                {
                  "internalType": "enum SolverLib.IngestType",
                  "name": "ingestType",
                  "type": "uint8"
                },
                {
                  "internalType": "bytes32",
                  "name": "slot",
                  "type": "bytes32"
                },
                {
                  "internalType": "uint256",
                  "name": "solverIndex",
                  "type": "uint256"
                },
                {
                  "internalType": "bytes",
                  "name": "data",
                  "type": "bytes"
                }
              ],
              "internalType": "struct SolverLib.Ingest[]",
              "name": "ingests",
              "type": "tuple[]"
            },
            {
              "components": [
                {
                  "internalType": "contract IERC20",
                  "name": "collateralToken",
                  "type": "address"
                },
                {
                  "internalType": "uint256",
                  "name": "outcomeSlots",
                  "type": "uint256"
                },
                {
                  "internalType": "uint256",
                  "name": "parentCollectionIndexSet",
                  "type": "uint256"
                },
                {
                  "internalType": "bytes32",
                  "name": "amountSlot",
                  "type": "bytes32"
                },
                {
                  "internalType": "uint256[]",
                  "name": "partition",
                  "type": "uint256[]"
                },
                {
                  "components": [
                    {
                      "internalType": "bytes32",
                      "name": "recipientAddressSlot",
                      "type": "bytes32"
                    },
                    {
                      "internalType": "bytes32[]",
                      "name": "recipientAmountSlots",
                      "type": "bytes32[]"
                    }
                  ],
                  "internalType": "struct SolverLib.Allocation[]",
                  "name": "allocations",
                  "type": "tuple[]"
                },
                {
                  "components": [
                    {
                      "internalType": "bytes32",
                      "name": "digest",
                      "type": "bytes32"
                    },
                    {
                      "internalType": "uint8",
                      "name": "hashFunction",
                      "type": "uint8"
                    },
                    {
                      "internalType": "uint8",
                      "name": "size",
                      "type": "uint8"
                    }
                  ],
                  "internalType": "struct SolverLib.Multihash[]",
                  "name": "outcomeURIs",
                  "type": "tuple[]"
                }
              ],
              "internalType": "struct SolverLib.ConditionBase",
              "name": "conditionBase",
              "type": "tuple"
            }
          ],
          "internalType": "struct SolverLib.Config[]",
          "name": "_solverConfigs",
          "type": "tuple[]"
        },
        {
          "components": [
            {
              "internalType": "bytes32",
              "name": "digest",
              "type": "bytes32"
            },
            {
              "internalType": "uint8",
              "name": "hashFunction",
              "type": "uint8"
            },
            {
              "internalType": "uint8",
              "name": "size",
              "type": "uint8"
            }
          ],
          "internalType": "struct SolverLib.Multihash",
          "name": "_solverConfigsCID",
          "type": "tuple"
        }
      ],
      "name": "createSolution",
      "outputs": [
        {
          "internalType": "bytes32",
          "name": "_solutionId",
          "type": "bytes32"
        }
      ],
      "stateMutability": "nonpayable",
      "type": "function"
    },
    {
      "inputs": [
        {
          "internalType": "bytes32",
          "name": "_proposalId",
          "type": "bytes32"
        },
        {
          "internalType": "bytes32",
          "name": "_solutionId",
          "type": "bytes32"
        },
        {
          "components": [
            {
              "internalType": "contract Solver",
              "name": "implementation",
              "type": "address"
            },
            {
              "internalType": "address",
              "name": "keeper",
              "type": "address"
            },
            {
              "internalType": "address",
              "name": "arbitrator",
              "type": "address"
            },
            {
              "internalType": "uint256",
              "name": "timelockSeconds",
              "type": "uint256"
            },
            {
              "internalType": "bytes",
              "name": "data",
              "type": "bytes"
            },
            {
              "components": [
                {
                  "internalType": "uint256",
                  "name": "executions",
                  "type": "uint256"
                },
                {
                  "internalType": "enum SolverLib.IngestType",
                  "name": "ingestType",
                  "type": "uint8"
                },
                {
                  "internalType": "bytes32",
                  "name": "slot",
                  "type": "bytes32"
                },
                {
                  "internalType": "uint256",
                  "name": "solverIndex",
                  "type": "uint256"
                },
                {
                  "internalType": "bytes",
                  "name": "data",
                  "type": "bytes"
                }
              ],
              "internalType": "struct SolverLib.Ingest[]",
              "name": "ingests",
              "type": "tuple[]"
            },
            {
              "components": [
                {
                  "internalType": "contract IERC20",
                  "name": "collateralToken",
                  "type": "address"
                },
                {
                  "internalType": "uint256",
                  "name": "outcomeSlots",
                  "type": "uint256"
                },
                {
                  "internalType": "uint256",
                  "name": "parentCollectionIndexSet",
                  "type": "uint256"
                },
                {
                  "internalType": "bytes32",
                  "name": "amountSlot",
                  "type": "bytes32"
                },
                {
                  "internalType": "uint256[]",
                  "name": "partition",
                  "type": "uint256[]"
                },
                {
                  "components": [
                    {
                      "internalType": "bytes32",
                      "name": "recipientAddressSlot",
                      "type": "bytes32"
                    },
                    {
                      "internalType": "bytes32[]",
                      "name": "recipientAmountSlots",
                      "type": "bytes32[]"
                    }
                  ],
                  "internalType": "struct SolverLib.Allocation[]",
                  "name": "allocations",
                  "type": "tuple[]"
                },
                {
                  "components": [
                    {
                      "internalType": "bytes32",
                      "name": "digest",
                      "type": "bytes32"
                    },
                    {
                      "internalType": "uint8",
                      "name": "hashFunction",
                      "type": "uint8"
                    },
                    {
                      "internalType": "uint8",
                      "name": "size",
                      "type": "uint8"
                    }
                  ],
                  "internalType": "struct SolverLib.Multihash[]",
                  "name": "outcomeURIs",
                  "type": "tuple[]"
                }
              ],
              "internalType": "struct SolverLib.ConditionBase",
              "name": "conditionBase",
              "type": "tuple"
            }
          ],
          "internalType": "struct SolverLib.Config[]",
          "name": "solverConfigs",
          "type": "tuple[]"
        }
      ],
      "name": "executeSolution",
      "outputs": [],
      "stateMutability": "nonpayable",
      "type": "function"
    },
    {
      "inputs": [
        {
          "internalType": "bytes32",
          "name": "solutionId",
          "type": "bytes32"
        }
      ],
      "name": "getSolution",
      "outputs": [
        {
          "components": [
            {
              "internalType": "bool",
              "name": "executed",
              "type": "bool"
            },
            {
              "internalType": "contract IERC20",
              "name": "collateralToken",
              "type": "address"
            },
            {
              "internalType": "address",
              "name": "proposalHub",
              "type": "address"
            },
            {
              "internalType": "bytes32",
              "name": "proposalId",
              "type": "bytes32"
            },
            {
              "internalType": "bytes32",
              "name": "id",
              "type": "bytes32"
            },
            {
              "internalType": "bytes32",
              "name": "solverConfigsHash",
              "type": "bytes32"
            },
            {
              "components": [
                {
                  "internalType": "bytes32",
                  "name": "digest",
                  "type": "bytes32"
                },
                {
                  "internalType": "uint8",
                  "name": "hashFunction",
                  "type": "uint8"
                },
                {
                  "internalType": "uint8",
                  "name": "size",
                  "type": "uint8"
                }
              ],
              "internalType": "struct SolverLib.Multihash",
              "name": "solverConfigsCID",
              "type": "tuple"
            },
            {
              "internalType": "address[]",
              "name": "solverAddresses",
              "type": "address[]"
            }
          ],
          "internalType": "struct IPFSSolutionsHub.Solution",
          "name": "solution",
          "type": "tuple"
        }
      ],
      "stateMutability": "view",
      "type": "function"
    },
    {
      "inputs": [
        {
          "internalType": "bytes32",
          "name": "_solutionId",
          "type": "bytes32"
        }
      ],
      "name": "getSolvers",
      "outputs": [
        {
          "internalType": "address[]",
          "name": "solvers",
          "type": "address[]"
        }
      ],
      "stateMutability": "view",
      "type": "function"
    },
    {
      "inputs": [
        {
          "internalType": "bytes32",
          "name": "_proposalId",
          "type": "bytes32"
        },
        {
          "internalType": "bytes32",
          "name": "_solutionId",
          "type": "bytes32"
        },
        {
          "internalType": "contract IERC20",
          "name": "collateralToken",
          "type": "address"
        }
      ],
      "name": "linkToProposal",
      "outputs": [],
      "stateMutability": "nonpayable",
      "type": "function"
    },
    {
      "inputs": [
        {
          "internalType": "bytes32",
          "name": "",
          "type": "bytes32"
        }
      ],
      "name": "solutions",
      "outputs": [
        {
          "internalType": "bool",
          "name": "executed",
          "type": "bool"
        },
        {
          "internalType": "contract IERC20",
          "name": "collateralToken",
          "type": "address"
        },
        {
          "internalType": "address",
          "name": "proposalHub",
          "type": "address"
        },
        {
          "internalType": "bytes32",
          "name": "proposalId",
          "type": "bytes32"
        },
        {
          "internalType": "bytes32",
          "name": "id",
          "type": "bytes32"
        },
        {
          "internalType": "bytes32",
          "name": "solverConfigsHash",
          "type": "bytes32"
        },
        {
          "components": [
            {
              "internalType": "bytes32",
              "name": "digest",
              "type": "bytes32"
            },
            {
              "internalType": "uint8",
              "name": "hashFunction",
              "type": "uint8"
            },
            {
              "internalType": "uint8",
              "name": "size",
              "type": "uint8"
            }
          ],
          "internalType": "struct SolverLib.Multihash",
          "name": "solverConfigsCID",
          "type": "tuple"
        }
      ],
      "stateMutability": "view",
      "type": "function"
    },
    {
      "inputs": [
        {
          "internalType": "bytes32",
          "name": "_solutionId",
          "type": "bytes32"
        },
        {
          "internalType": "uint256",
          "name": "_index",
          "type": "uint256"
        }
      ],
      "name": "solverFromIndex",
      "outputs": [
        {
          "internalType": "address",
          "name": "_address",
          "type": "address"
        }
      ],
      "stateMutability": "view",
      "type": "function"
    },
    {
      "inputs": [
        {
          "internalType": "bytes32",
          "name": "solutionId",
          "type": "bytes32"
        },
        {
          "components": [
            {
              "internalType": "contract Solver",
              "name": "implementation",
              "type": "address"
            },
            {
              "internalType": "address",
              "name": "keeper",
              "type": "address"
            },
            {
              "internalType": "address",
              "name": "arbitrator",
              "type": "address"
            },
            {
              "internalType": "uint256",
              "name": "timelockSeconds",
              "type": "uint256"
            },
            {
              "internalType": "bytes",
              "name": "data",
              "type": "bytes"
            },
            {
              "components": [
                {
                  "internalType": "uint256",
                  "name": "executions",
                  "type": "uint256"
                },
                {
                  "internalType": "enum SolverLib.IngestType",
                  "name": "ingestType",
                  "type": "uint8"
                },
                {
                  "internalType": "bytes32",
                  "name": "slot",
                  "type": "bytes32"
                },
                {
                  "internalType": "uint256",
                  "name": "solverIndex",
                  "type": "uint256"
                },
                {
                  "internalType": "bytes",
                  "name": "data",
                  "type": "bytes"
                }
              ],
              "internalType": "struct SolverLib.Ingest[]",
              "name": "ingests",
              "type": "tuple[]"
            },
            {
              "components": [
                {
                  "internalType": "contract IERC20",
                  "name": "collateralToken",
                  "type": "address"
                },
                {
                  "internalType": "uint256",
                  "name": "outcomeSlots",
                  "type": "uint256"
                },
                {
                  "internalType": "uint256",
                  "name": "parentCollectionIndexSet",
                  "type": "uint256"
                },
                {
                  "internalType": "bytes32",
                  "name": "amountSlot",
                  "type": "bytes32"
                },
                {
                  "internalType": "uint256[]",
                  "name": "partition",
                  "type": "uint256[]"
                },
                {
                  "components": [
                    {
                      "internalType": "bytes32",
                      "name": "recipientAddressSlot",
                      "type": "bytes32"
                    },
                    {
                      "internalType": "bytes32[]",
                      "name": "recipientAmountSlots",
                      "type": "bytes32[]"
                    }
                  ],
                  "internalType": "struct SolverLib.Allocation[]",
                  "name": "allocations",
                  "type": "tuple[]"
                },
                {
                  "components": [
                    {
                      "internalType": "bytes32",
                      "name": "digest",
                      "type": "bytes32"
                    },
                    {
                      "internalType": "uint8",
                      "name": "hashFunction",
                      "type": "uint8"
                    },
                    {
                      "internalType": "uint8",
                      "name": "size",
                      "type": "uint8"
                    }
                  ],
                  "internalType": "struct SolverLib.Multihash[]",
                  "name": "outcomeURIs",
                  "type": "tuple[]"
                }
              ],
              "internalType": "struct SolverLib.ConditionBase",
              "name": "conditionBase",
              "type": "tuple"
            }
          ],
          "internalType": "struct SolverLib.Config[]",
          "name": "solverConfigs",
          "type": "tuple[]"
        }
      ],
      "name": "verifyHash",
      "outputs": [
        {
          "internalType": "bool",
          "name": "",
          "type": "bool"
        }
      ],
      "stateMutability": "view",
      "type": "function"
    }
  ],
  "bytecode": "0x60a060405234801561001057600080fd5b5060405161204a38038061204a83398101604081905261002f91610044565b60601b6001600160601b031916608052610072565b600060208284031215610055578081fd5b81516001600160a01b038116811461006b578182fd5b9392505050565b60805160601c611fba61009060003960006109270152611fba6000f3fe608060405234801561001057600080fd5b50600436106100785760003560e01c8063191481a01461007d578063307d6cb6146100a65780635f49a434146100c657806375c70509146100e657806380d259ec1461010c578063a2440b9d14610121578063b39c847714610134578063ddc02e0314610154575b600080fd5b61009061008b366004611303565b610174565b60405161009d9190611919565b60405180910390f35b6100b96100b4366004611194565b6101c1565b60405161009d9190611954565b6100d96100d436600461128b565b61022e565b60405161009d9190611b01565b6100f96100f4366004611194565b61031e565b60405161009d9796959493929190611ab2565b61011f61011a366004611203565b610393565b005b61011f61012f366004611253565b6106de565b6101476101423660046111ac565b6107d4565b60405161009d9190611aa7565b610167610162366004611194565b610817565b60405161009d9190611ce5565b60008281526020819052604081206007018054839081106101a557634e487b7160e01b600052603260045260246000fd5b6000918252602090912001546001600160a01b03169392505050565b6000818152602081815260409182902060070180548351818402810184019094528084526060939283018282801561022257602002820191906000526020600020905b81546001600160a01b03168152600190910190602001808311610204575b50505050509050919050565b6000858152602081905260408120600301548614156102685760405162461bcd60e51b815260040161025f90611be2565b60405180910390fd5b60008681526020818152604091829020600381018990558054610100600160a81b0319166101006001600160a01b038a160217815591516102ad918791879101611967565b60408051601f198184030181529190528051602090910120600482015582600582016102d98282611f11565b9050507faf58c2d61bce90c15ecad6e5142ecbbb0b542b557388df7578e0162b098999a38760405161030b9190611b01565b60405180910390a1509495945050505050565b600060208181529181526040908190208054600182015460028301546003840154600485015486516060810188526005870154815260069096015460ff8181169988019990995261010090819004891697870197909752968416966001600160a01b0396909404861695929092169390929087565b6103a1836101428385611ec7565b6103bd5760405162461bcd60e51b815260040161025f90611c26565b6000838152602081905260409020600101546001600160a01b031633146103f65760405162461bcd60e51b815260040161025f90611ca1565b60008381526020819052604090206002015484146104265760405162461bcd60e51b815260040161025f90611bb8565b60008381526020819052604090205460ff16156104555760405162461bcd60e51b815260040161025f90611b85565b6000838152602081905260409020805460ff19166001179055610479838383610914565b336001600160a01b0316631918063f856000808781526020019081526020016000206007016000815481106104be57634e487b7160e01b600052603260045260246000fd5b6000918252602090912001546040516001600160e01b031960e085901b1681526104f592916001600160a01b031690600401611b0a565b600060405180830381600087803b15801561050f57600080fd5b505af1158015610523573d6000803e3d6000fd5b5050505060005b60008481526020819052604090206007015481101561060757600084815260208190526040812060070180548390811061057457634e487b7160e01b600052603260045260246000fd5b600091825260208083209091015487835290829052604091829020600201549151630683080d60e11b81526001600160a01b0390911692508291630d06101a916105c19190600401611b01565b600060405180830381600087803b1580156105db57600080fd5b505af11580156105ef573d6000803e3d6000fd5b505050505080806105ff90611ed4565b91505061052a565b506000838152602081905260408120600701805490919061063857634e487b7160e01b600052603260045260246000fd5b600091825260208220015460405163253b91a760e11b81526001600160a01b0390911691634a77234e9161066f9190600401611b01565b600060405180830381600087803b15801561068957600080fd5b505af115801561069d573d6000803e3d6000fd5b505050507fabe14211ae2537ee6b7aa77dde5785f740f88443cc6f3a4a4b68bb0e6a5652fa836040516106d09190611b01565b60405180910390a150505050565b60405163d3f79a0560e01b8152339063d3f79a0590610701908690600401611b01565b60206040518083038186803b15801561071957600080fd5b505afa15801561072d573d6000803e3d6000fd5b505050506040513d601f19601f820116820180604052508101906107519190611174565b61076d5760405162461bcd60e51b815260040161025f90611c5d565b6000828152602081905260409020546001600160a01b0382811661010090920416146107ab5760405162461bcd60e51b815260040161025f90611b21565b5060009081526020819052604090206001810180546001600160a01b0319163317905560020155565b6000816040516020016107e791906119c7565b60408051601f19818403018152918152815160209283012060008681529283905291206004015414905092915050565b61081f610b29565b6000828152602081815260409182902082516101008082018552825460ff80821615158452908290046001600160a01b039081168487015260018501541683870152600284015460608085019190915260038501546080850152600485015460a0850152865190810187526005850154815260068501548083168288015292909204168186015260c08201526007820180548551818602810186019096528086529194929360e0860193929083018282801561090457602002820191906000526020600020905b81546001600160a01b031681526001909101906020018083116108e6575b5050505050815250509050919050565b6000805b82811015610b225780610a26577f00000000000000000000000000000000000000000000000000000000000000006001600160a01b0316637bdf862360008387878681811061097757634e487b7160e01b600052603260045260246000fd5b90506020028101906109899190611d6c565b6040518463ffffffff1660e01b81526004016109a79392919061192d565b602060405180830381600087803b1580156109c157600080fd5b505af11580156109d5573d6000803e3d6000fd5b505050506040513d601f19601f820116820180604052508101906109f99190611151565b91506001600160a01b038216610a215760405162461bcd60e51b815260040161025f90611b51565b610ad8565b816001600160a01b0316630944e26e858584818110610a5557634e487b7160e01b600052603260045260246000fd5b9050602002810190610a679190611d6c565b6040518263ffffffff1660e01b8152600401610a839190611cd2565b602060405180830381600087803b158015610a9d57600080fd5b505af1158015610ab1573d6000803e3d6000fd5b505050506040513d601f19601f82011682018060405250810190610ad59190611151565b91505b6000858152602081815260408220600701805460018101825590835291200180546001600160a01b0319166001600160a01b03841617905580610b1a81611ed4565b915050610918565b5050505050565b6040805161010081018252600080825260208201819052918101829052606081018290526080810182905260a081019190915260c08101610b68610b75565b8152602001606081525090565b604080516060810182526000808252602082018190529181019190915290565b6000610ba8610ba384611db4565b611d8b565b83815290506020808201908360005b86811015610ca5578135860160e080828b031215610bd457600080fd5b610bdd81611d8b565b9050610be882610cb0565b8152610bf5858301610cb0565b858201526040610c06818401610cb0565b90820152606082810135908201526080808301356001600160401b0380821115610c2f57600080fd5b610c3b8d838701611015565b8385015260a0925082850135915080821115610c5657600080fd5b610c628d838701610e1c565b8385015260c0925082850135915080821115610c7d57600080fd5b50610c8a8c82860161108e565b91830191909152508552509282019290820190600101610bb7565b505050509392505050565b8035610cbb81611f5d565b919050565b600082601f830112610cd0578081fd5b81356020610ce0610ba383611db4565b82815281810190858301855b85811015610dc75781358801604080601f19838d03011215610d0c578889fd5b80518082016001600160401b038082118383101715610d2d57610d2d611efb565b908352838901358252838301359080821115610d47578b8cfd5b508084019350508b603f840112610d5c57898afd5b87830135610d6c610ba382611db4565b808282528a820191508486018f868d86028901011115610d8a578d8efd5b8d96505b83871015610dac578035835260019690960195918b01918b01610d8e565b50838b01525050865250509284019290840190600101610cec565b5090979650505050505050565b60008083601f840112610de5578182fd5b5081356001600160401b03811115610dfb578182fd5b6020830191508360208083028501011115610e1557600080fd5b9250929050565b600082601f830112610e2c578081fd5b81356020610e3c610ba383611db4565b82815281810190858301855b85811015610dc7578135880160a080601f19838d03011215610e68578889fd5b604080518281016001600160401b038082118383101715610e8b57610e8b611efb565b8184528a8601358352610e9f84870161107f565b8b84015260609150818601358484015260809350838601358284015284860135945080851115610ecd578c8dfd5b5050610edd8d8a85870101611015565b91810191909152865250509284019290840190600101610e48565b600082601f830112610f08578081fd5b81356020610f18610ba383611db4565b82815281810190858301606080860288018501891015610f36578687fd5b865b86811015610fad5781838b031215610f4e578788fd5b604080518381016001600160401b0381118282101715610f7057610f70611efb565b82528435815287850135610f8381611f75565b8189015284820135610f9481611f75565b9181019190915285529385019391810191600101610f38565b509198975050505050505050565b600082601f830112610fcb578081fd5b81356020610fdb610ba383611db4565b8281528181019085830183850287018401881015610ff7578586fd5b855b85811015610dc757813584529284019290840190600101610ff9565b600082601f830112611025578081fd5b81356001600160401b0381111561103e5761103e611efb565b611051601f8201601f1916602001611d8b565b818152846020838601011115611065578283fd5b816020850160208301379081016020019190915292915050565b803560048110610cbb57600080fd5b600060e0828403121561109f578081fd5b6110a960e0611d8b565b90506110b482610cb0565b815260208281013590820152604080830135908201526060808301359082015260808201356001600160401b03808211156110ee57600080fd5b6110fa85838601610fbb565b608084015260a084013591508082111561111357600080fd5b61111f85838601610cc0565b60a084015260c084013591508082111561113857600080fd5b5061114584828501610ef8565b60c08301525092915050565b600060208284031215611162578081fd5b815161116d81611f5d565b9392505050565b600060208284031215611185578081fd5b8151801515811461116d578182fd5b6000602082840312156111a5578081fd5b5035919050565b600080604083850312156111be578081fd5b8235915060208301356001600160401b038111156111da578182fd5b8301601f810185136111ea578182fd5b6111f985823560208401610b95565b9150509250929050565b60008060008060608587031215611218578182fd5b843593506020850135925060408501356001600160401b0381111561123b578283fd5b61124787828801610dd4565b95989497509550505050565b600080600060608486031215611267578081fd5b8335925060208401359150604084013561128081611f5d565b809150509250925092565b600080600080600085870360c08112156112a3578384fd5b8635955060208701356112b581611f5d565b945060408701356001600160401b038111156112cf578485fd5b6112db89828a01610dd4565b9095509350506060605f19820112156112f2578182fd5b506060860190509295509295909350565b60008060408385031215611315578182fd5b50508035926020909101359150565b6001600160a01b03169052565b6000815180845260208085019450808401835b838110156113695781516001600160a01b031687529582019590820190600101611344565b509495945050505050565b81835260006001600160fb1b0383111561138c578081fd5b6020830280836020870137939093016020019283525090919050565b6000815180845260208085019450848183028601828601855b85811015610dc75783830389528151805184528501516040868501819052815190850181905290860190606085019089905b8082101561141357835183529288019291880191600191909101906113f3565b505099860199935050908401906001016113c1565b60008284526020808501945084818502860184845b87811015610dc75783830389528135609e1988360301811261145d578687fd5b87018035845260a061147087830161107f565b61147c88870182611655565b506040828101359086015260608083013590860152608061149f81840184611e65565b935082828801526114b383880185836115e0565b9c89019c9650505092860192505060010161143d565b60008282518085526020808601955080818302840101818601855b84811015610dc757601f19868403018952815160a0815185528582015161150d87870182611655565b50604082810151908601526060808301519086015260809182015191850181905261153a8186018361160a565b9a86019a94505050908301906001016114e4565b60008284526020808501945082825b8581101561136957813587528282013561157681611f75565b60ff908116888501526040908382013561158f81611f75565b1690880152606096870196919091019060010161155d565b6000815180845260208085019450808401835b83811015611369576115cd8783516118f7565b60609690960195908201906001016115ba565b60008284528282602086013780602084860101526020601f19601f85011685010190509392505050565b60008151808452815b8181101561162f57602081850181015186830182015201611613565b818111156116405782602083870101525b50601f01601f19169290920160200192915050565b6004811061167357634e487b7160e01b600052602160045260246000fd5b9052565b6000813561168481611f5d565b6001600160a01b031683526020828101358185015260408084013581860152606080850135908601526116ba6080850185611dd7565b60e060808801526116cf60e088018284611374565b9150506116df60a0860186611dd7565b87830360a08901528083528483018582028401860183885b8481101561175657868303601f19018452813536879003603e1901811261171c578a8bfd5b86018035845261172e8a820182611dd7565b9150898b8601526117428a86018383611374565b958b019594505050908801906001016116f7565b505061176560c08a018a611e1e565b9750955089810360c08b015261177c81888861154e565b9a9950505050505050505050565b80516001600160a01b0316825260208082015181840152604080830151908401526060808301519084015260808083015160e091850182905280519185018290526000929081019183906101008701905b808310156117fb57845182529383019360019290920191908301906117db565b5060a0860151935086810360a088015261181581856113a8565b935050505060c083015184820360c086015261183182826115a7565b95945050505050565b6000813561184781611f5d565b6001600160a01b03908116845260208301359061186382611f5d565b166020840152604082013561187781611f5d565b6118846040850182611324565b506060820135606084015261189c6080830183611e65565b60e060808601526118b160e0860182846115e0565b9150506118c160a0840184611dd7565b85830360a08701526118d4838284611428565b925050506118e560c0840184611ea9565b84820360c08601526118318282611677565b8051825260ff602082015116602083015260ff60408201511660408301525050565b6001600160a01b0391909116815260200190565b600060018060a01b038516825283602083015260606040830152611831606083018461183a565b60006020825261116d6020830184611331565b602080825281810183905260009060408482028401810190840186845b878110156119ba57868403603f190183526119a8846119a3848c611ea9565b61183a565b93509184019190840190600101611984565b5091979650505050505050565b60208082528251828201819052600091906040908185019080840286018301878501865b83811015611a9957888303603f19018552815180516001600160a01b0390811685528882015116888501528681015160e090611a2989870182611324565b5060608083015181870152506080808301518282880152611a4c8388018261160a565b9250505060a08083015186830382880152611a6783826114c9565b9250505060c08083015192508582038187015250611a85818361178a565b9689019694505050908601906001016119eb565b509098975050505050505050565b901515815260200190565b87151581526001600160a01b03878116602083015286166040820152606081018590526080810184905260a081018390526101208101611af560c08301846118f7565b98975050505050505050565b90815260200190565b9182526001600160a01b0316602082015260400190565b6020808252601690820152752bb937b7339031b7b63630ba32b930b6103a37b5b2b760511b604082015260600190565b6020808252601a908201527924b73b30b634b21030b2323932b9b9903337b91029b7b63b32b960311b604082015260600190565b60208082526019908201527814dbdb1d5d1a5bdb88185b1c9958591e48195e1958dd5d1959603a1b604082015260600190565b60208082526010908201526f15dc9bdb99c81c1c9bdc1bdcd85b125960821b604082015260600190565b60208082526024908201527f536f6c7574696f6e734875623a3a5468697320494420616c72656164792065786040820152636973747360e01b606082015260800190565b6020808252601e908201527f496e636f727265637420536f6c766572436f6e66696720636f6e74656e740000604082015260600190565b60208082526024908201527f50726f706f73616c206973206e6f742076616c69642061742070726f706f736160408201526336243ab160e11b606082015260800190565b6020808252601790820152762737ba1031b7b93932b1ba10383937b837b9b0b6243ab160491b604082015260600190565b60006020825261116d602083018461183a565b60006020825282511515602083015260018060a01b0360208401511660408301526040830151611d186060840182611324565b5060608301516080830152608083015160a083015260a083015160c083015260c0830151611d4960e08401826118f7565b5060e083015161014083810152611d64610160840182611331565b949350505050565b6000823560de19833603018112611d81578182fd5b9190910192915050565b6040518181016001600160401b0381118282101715611dac57611dac611efb565b604052919050565b60006001600160401b03821115611dcd57611dcd611efb565b5060209081020190565b6000808335601e19843603018112611ded578283fd5b83016020810192503590506001600160401b03811115611e0c57600080fd5b602081023603831315610e1557600080fd5b6000808335601e19843603018112611e34578283fd5b83016020810192503590506001600160401b03811115611e5357600080fd5b606081023603831315610e1557600080fd5b6000808335601e19843603018112611e7b578283fd5b83016020810192503590506001600160401b03811115611e9a57600080fd5b803603831315610e1557600080fd5b6000823560de19833603018112611ebe578182fd5b90910192915050565b600061116d368484610b95565b6000600019821415611ef457634e487b7160e01b81526011600452602481fd5b5060010190565b634e487b7160e01b600052604160045260246000fd5b81358155600181016020830135611f2781611f75565b815460ff191660ff91909116178082556040840135611f4581611f75565b61ff008160081b1661ff001983161783555050505050565b6001600160a01b0381168114611f7257600080fd5b50565b60ff81168114611f7257600080fdfea264697066735822122030e8562c6e256995f4a385b07bbfb41cbdb82d58e8b2f1ad8d95efb574c0ba9264736f6c63430008000033",
  "linkReferences": {},
  "deployedLinkReferences": {}
}