{
  "_format": "hh-sol-artifact-1",
  "contractName": "BasicSolverV1",
  "sourceName": "contracts/BasicSolverV1.sol",
  "abi": [
    {
      "anonymous": false,
      "inputs": [
        {
          "indexed": false,
          "internalType": "bytes32",
          "name": "conditionId",
          "type": "bytes32"
        }
      ],
      "name": "ChangedStatus",
      "type": "event"
    },
    {
      "anonymous": false,
      "inputs": [
        {
          "indexed": false,
          "internalType": "bytes32",
          "name": "conditionId",
          "type": "bytes32"
        }
      ],
      "name": "DeliveredNullArbitration",
      "type": "event"
    },
    {
      "anonymous": false,
      "inputs": [
        {
          "indexed": false,
          "internalType": "address",
          "name": "child",
          "type": "address"
        }
      ],
      "name": "DeployedChild",
      "type": "event"
    },
    {
      "anonymous": false,
      "inputs": [],
      "name": "IngestedData",
      "type": "event"
    },
    {
      "anonymous": false,
      "inputs": [
        {
          "indexed": false,
          "internalType": "address",
          "name": "solver",
          "type": "address"
        },
        {
          "indexed": false,
          "internalType": "uint256",
          "name": "solveIndex",
          "type": "uint256"
        }
      ],
      "name": "PreparedSolve",
      "type": "event"
    },
    {
      "inputs": [
        {
          "internalType": "bytes32",
          "name": "_slot",
          "type": "bytes32"
        },
        {
          "internalType": "bytes",
          "name": "_data",
          "type": "bytes"
        }
      ],
      "name": "addData",
      "outputs": [],
      "stateMutability": "nonpayable",
      "type": "function"
    },
    {
      "inputs": [
        {
          "internalType": "uint256",
          "name": "_index",
          "type": "uint256"
        }
      ],
      "name": "addressFromChainIndex",
      "outputs": [
        {
          "internalType": "address",
          "name": "_address",
          "type": "address"
        }
      ],
      "stateMutability": "view",
      "type": "function"
    },
    {
      "inputs": [
        {
          "internalType": "uint256",
          "name": "_index",
          "type": "uint256"
        }
      ],
      "name": "allocationsValid",
      "outputs": [
        {
          "internalType": "bool",
          "name": "",
          "type": "bool"
        }
      ],
      "stateMutability": "view",
      "type": "function"
    },
    {
      "inputs": [
        {
          "internalType": "uint256",
          "name": "_index",
          "type": "uint256"
        },
        {
          "internalType": "uint256[]",
          "name": "payouts",
          "type": "uint256[]"
        }
      ],
      "name": "arbitrate",
      "outputs": [],
      "stateMutability": "nonpayable",
      "type": "function"
    },
    {
      "inputs": [
        {
          "internalType": "uint256",
          "name": "_index",
          "type": "uint256"
        }
      ],
      "name": "arbitrateNull",
      "outputs": [],
      "stateMutability": "nonpayable",
      "type": "function"
    },
    {
      "inputs": [
        {
          "internalType": "uint256",
          "name": "_index",
          "type": "uint256"
        }
      ],
      "name": "arbitrationPending",
      "outputs": [],
      "stateMutability": "nonpayable",
      "type": "function"
    },
    {
      "inputs": [
        {
          "internalType": "uint256",
          "name": "_index",
          "type": "uint256"
        }
      ],
      "name": "arbitrationRequested",
      "outputs": [],
      "stateMutability": "nonpayable",
      "type": "function"
    },
    {
      "inputs": [],
      "name": "chainChild",
      "outputs": [
        {
          "internalType": "address",
          "name": "",
          "type": "address"
        }
      ],
      "stateMutability": "view",
      "type": "function"
    },
    {
      "inputs": [],
      "name": "chainIndex",
      "outputs": [
        {
          "internalType": "uint256",
          "name": "",
          "type": "uint256"
        }
      ],
      "stateMutability": "view",
      "type": "function"
    },
    {
      "inputs": [],
      "name": "chainParent",
      "outputs": [
        {
          "internalType": "address",
          "name": "",
          "type": "address"
        }
      ],
      "stateMutability": "view",
      "type": "function"
    },
    {
      "inputs": [],
      "name": "collateralBalance",
      "outputs": [
        {
          "internalType": "uint256",
          "name": "balance",
          "type": "uint256"
        }
      ],
      "stateMutability": "view",
      "type": "function"
    },
    {
      "inputs": [
        {
          "internalType": "uint256",
          "name": "",
          "type": "uint256"
        }
      ],
      "name": "conditions",
      "outputs": [
        {
          "internalType": "contract IERC20",
          "name": "collateralToken",
          "type": "address"
        },
        {
          "internalType": "bytes32",
          "name": "questionId",
          "type": "bytes32"
        },
        {
          "internalType": "bytes32",
          "name": "parentCollectionId",
          "type": "bytes32"
        },
        {
          "internalType": "bytes32",
          "name": "conditionId",
          "type": "bytes32"
        },
        {
          "internalType": "enum SolverLib.Status",
          "name": "status",
          "type": "uint8"
        }
      ],
      "stateMutability": "view",
      "type": "function"
    },
    {
      "inputs": [],
      "name": "config",
      "outputs": [
        {
          "internalType": "contract Solver",
          "name": "implementation",
          "type": "address"
        },
        {
          "internalType": "address",
          "name": "keeper",
          "type": "address"
        },
        {
          "internalType": "address",
          "name": "arbitrator",
          "type": "address"
        },
        {
          "internalType": "uint256",
          "name": "timelockSeconds",
          "type": "uint256"
        },
        {
          "internalType": "bytes",
          "name": "data",
          "type": "bytes"
        },
        {
          "components": [
            {
              "internalType": "contract IERC20",
              "name": "collateralToken",
              "type": "address"
            },
            {
              "internalType": "uint256",
              "name": "outcomeSlots",
              "type": "uint256"
            },
            {
              "internalType": "uint256",
              "name": "parentCollectionIndexSet",
              "type": "uint256"
            },
            {
              "internalType": "bytes32",
              "name": "amountSlot",
              "type": "bytes32"
            },
            {
              "internalType": "uint256[]",
              "name": "partition",
              "type": "uint256[]"
            },
            {
              "components": [
                {
                  "internalType": "bytes32",
                  "name": "recipientAddressSlot",
                  "type": "bytes32"
                },
                {
                  "internalType": "bytes32[]",
                  "name": "recipientAmountSlots",
                  "type": "bytes32[]"
                }
              ],
              "internalType": "struct SolverLib.Allocation[]",
              "name": "allocations",
              "type": "tuple[]"
            },
            {
              "components": [
                {
                  "internalType": "bytes32",
                  "name": "digest",
                  "type": "bytes32"
                },
                {
                  "internalType": "uint8",
                  "name": "hashFunction",
                  "type": "uint8"
                },
                {
                  "internalType": "uint8",
                  "name": "size",
                  "type": "uint8"
                }
              ],
              "internalType": "struct SolverLib.Multihash[]",
              "name": "outcomeURIs",
              "type": "tuple[]"
            }
          ],
          "internalType": "struct SolverLib.ConditionBase",
          "name": "conditionBase",
          "type": "tuple"
        }
      ],
      "stateMutability": "view",
      "type": "function"
    },
    {
      "inputs": [
        {
          "internalType": "uint256",
          "name": "_index",
          "type": "uint256"
        }
      ],
      "name": "confirmPayouts",
      "outputs": [],
      "stateMutability": "nonpayable",
      "type": "function"
    },
    {
      "inputs": [
        {
          "components": [
            {
              "internalType": "contract Solver",
              "name": "implementation",
              "type": "address"
            },
            {
              "internalType": "address",
              "name": "keeper",
              "type": "address"
            },
            {
              "internalType": "address",
              "name": "arbitrator",
              "type": "address"
            },
            {
              "internalType": "uint256",
              "name": "timelockSeconds",
              "type": "uint256"
            },
            {
              "internalType": "bytes",
              "name": "data",
              "type": "bytes"
            },
            {
              "components": [
                {
                  "internalType": "uint256",
                  "name": "executions",
                  "type": "uint256"
                },
                {
                  "internalType": "enum SolverLib.IngestType",
                  "name": "ingestType",
                  "type": "uint8"
                },
                {
                  "internalType": "bytes32",
                  "name": "slot",
                  "type": "bytes32"
                },
                {
                  "internalType": "uint256",
                  "name": "solverIndex",
                  "type": "uint256"
                },
                {
                  "internalType": "bytes",
                  "name": "data",
                  "type": "bytes"
                }
              ],
              "internalType": "struct SolverLib.Ingest[]",
              "name": "ingests",
              "type": "tuple[]"
            },
            {
              "components": [
                {
                  "internalType": "contract IERC20",
                  "name": "collateralToken",
                  "type": "address"
                },
                {
                  "internalType": "uint256",
                  "name": "outcomeSlots",
                  "type": "uint256"
                },
                {
                  "internalType": "uint256",
                  "name": "parentCollectionIndexSet",
                  "type": "uint256"
                },
                {
                  "internalType": "bytes32",
                  "name": "amountSlot",
                  "type": "bytes32"
                },
                {
                  "internalType": "uint256[]",
                  "name": "partition",
                  "type": "uint256[]"
                },
                {
                  "components": [
                    {
                      "internalType": "bytes32",
                      "name": "recipientAddressSlot",
                      "type": "bytes32"
                    },
                    {
                      "internalType": "bytes32[]",
                      "name": "recipientAmountSlots",
                      "type": "bytes32[]"
                    }
                  ],
                  "internalType": "struct SolverLib.Allocation[]",
                  "name": "allocations",
                  "type": "tuple[]"
                },
                {
                  "components": [
                    {
                      "internalType": "bytes32",
                      "name": "digest",
                      "type": "bytes32"
                    },
                    {
                      "internalType": "uint8",
                      "name": "hashFunction",
                      "type": "uint8"
                    },
                    {
                      "internalType": "uint8",
                      "name": "size",
                      "type": "uint8"
                    }
                  ],
                  "internalType": "struct SolverLib.Multihash[]",
                  "name": "outcomeURIs",
                  "type": "tuple[]"
                }
              ],
              "internalType": "struct SolverLib.ConditionBase",
              "name": "conditionBase",
              "type": "tuple"
            }
          ],
          "internalType": "struct SolverLib.Config",
          "name": "_config",
          "type": "tuple"
        }
      ],
      "name": "deployChild",
      "outputs": [
        {
          "internalType": "address",
          "name": "",
          "type": "address"
        }
      ],
      "stateMutability": "nonpayable",
      "type": "function"
    },
    {
      "inputs": [
        {
          "internalType": "uint256",
          "name": "_index",
          "type": "uint256"
        }
      ],
      "name": "executeSolve",
      "outputs": [],
      "stateMutability": "nonpayable",
      "type": "function"
    },
    {
      "inputs": [
        {
          "internalType": "bytes32",
          "name": "_slot",
          "type": "bytes32"
        }
      ],
      "name": "getAllData",
      "outputs": [
        {
          "internalType": "bytes[]",
          "name": "data",
          "type": "bytes[]"
        }
      ],
      "stateMutability": "view",
      "type": "function"
    },
    {
      "inputs": [
        {
          "internalType": "bytes32",
          "name": "_slot",
          "type": "bytes32"
        }
      ],
      "name": "getCallbackOutput",
      "outputs": [
        {
          "internalType": "bytes",
          "name": "data",
          "type": "bytes"
        }
      ],
      "stateMutability": "view",
      "type": "function"
    },
    {
      "inputs": [],
      "name": "getConditions",
      "outputs": [
        {
          "components": [
            {
              "internalType": "contract IERC20",
              "name": "collateralToken",
              "type": "address"
            },
            {
              "internalType": "bytes32",
              "name": "questionId",
              "type": "bytes32"
            },
            {
              "internalType": "bytes32",
              "name": "parentCollectionId",
              "type": "bytes32"
            },
            {
              "internalType": "bytes32",
              "name": "conditionId",
              "type": "bytes32"
            },
            {
              "internalType": "uint256[]",
              "name": "payouts",
              "type": "uint256[]"
            },
            {
              "internalType": "enum SolverLib.Status",
              "name": "status",
              "type": "uint8"
            }
          ],
          "internalType": "struct SolverLib.Condition[]",
          "name": "",
          "type": "tuple[]"
        }
      ],
      "stateMutability": "view",
      "type": "function"
    },
    {
      "inputs": [],
      "name": "getConfig",
      "outputs": [
        {
          "components": [
            {
              "internalType": "contract Solver",
              "name": "implementation",
              "type": "address"
            },
            {
              "internalType": "address",
              "name": "keeper",
              "type": "address"
            },
            {
              "internalType": "address",
              "name": "arbitrator",
              "type": "address"
            },
            {
              "internalType": "uint256",
              "name": "timelockSeconds",
              "type": "uint256"
            },
            {
              "internalType": "bytes",
              "name": "data",
              "type": "bytes"
            },
            {
              "components": [
                {
                  "internalType": "uint256",
                  "name": "executions",
                  "type": "uint256"
                },
                {
                  "internalType": "enum SolverLib.IngestType",
                  "name": "ingestType",
                  "type": "uint8"
                },
                {
                  "internalType": "bytes32",
                  "name": "slot",
                  "type": "bytes32"
                },
                {
                  "internalType": "uint256",
                  "name": "solverIndex",
                  "type": "uint256"
                },
                {
                  "internalType": "bytes",
                  "name": "data",
                  "type": "bytes"
                }
              ],
              "internalType": "struct SolverLib.Ingest[]",
              "name": "ingests",
              "type": "tuple[]"
            },
            {
              "components": [
                {
                  "internalType": "contract IERC20",
                  "name": "collateralToken",
                  "type": "address"
                },
                {
                  "internalType": "uint256",
                  "name": "outcomeSlots",
                  "type": "uint256"
                },
                {
                  "internalType": "uint256",
                  "name": "parentCollectionIndexSet",
                  "type": "uint256"
                },
                {
                  "internalType": "bytes32",
                  "name": "amountSlot",
                  "type": "bytes32"
                },
                {
                  "internalType": "uint256[]",
                  "name": "partition",
                  "type": "uint256[]"
                },
                {
                  "components": [
                    {
                      "internalType": "bytes32",
                      "name": "recipientAddressSlot",
                      "type": "bytes32"
                    },
                    {
                      "internalType": "bytes32[]",
                      "name": "recipientAmountSlots",
                      "type": "bytes32[]"
                    }
                  ],
                  "internalType": "struct SolverLib.Allocation[]",
                  "name": "allocations",
                  "type": "tuple[]"
                },
                {
                  "components": [
                    {
                      "internalType": "bytes32",
                      "name": "digest",
                      "type": "bytes32"
                    },
                    {
                      "internalType": "uint8",
                      "name": "hashFunction",
                      "type": "uint8"
                    },
                    {
                      "internalType": "uint8",
                      "name": "size",
                      "type": "uint8"
                    }
                  ],
                  "internalType": "struct SolverLib.Multihash[]",
                  "name": "outcomeURIs",
                  "type": "tuple[]"
                }
              ],
              "internalType": "struct SolverLib.ConditionBase",
              "name": "conditionBase",
              "type": "tuple"
            }
          ],
          "internalType": "struct SolverLib.Config",
          "name": "",
          "type": "tuple"
        }
      ],
      "stateMutability": "view",
      "type": "function"
    },
    {
      "inputs": [
        {
          "internalType": "bytes32",
          "name": "_slot",
          "type": "bytes32"
        }
      ],
      "name": "getData",
      "outputs": [
        {
          "internalType": "bytes",
          "name": "data",
          "type": "bytes"
        }
      ],
      "stateMutability": "view",
      "type": "function"
    },
    {
      "inputs": [
        {
          "internalType": "bytes32",
          "name": "slot",
          "type": "bytes32"
        }
      ],
      "name": "getOutgoingCallbacks",
      "outputs": [
        {
          "internalType": "address[]",
          "name": "",
          "type": "address[]"
        }
      ],
      "stateMutability": "view",
      "type": "function"
    },
    {
      "inputs": [
        {
          "internalType": "bytes32",
          "name": "_slot",
          "type": "bytes32"
        }
      ],
      "name": "handleCallback",
      "outputs": [],
      "stateMutability": "nonpayable",
      "type": "function"
    },
    {
      "inputs": [],
      "name": "ingestsValid",
      "outputs": [
        {
          "internalType": "bool",
          "name": "",
          "type": "bool"
        }
      ],
      "stateMutability": "view",
      "type": "function"
    },
    {
      "inputs": [
        {
          "internalType": "address",
          "name": "_deployer",
          "type": "address"
        },
        {
          "internalType": "address",
          "name": "_ctfAddress",
          "type": "address"
        },
        {
          "internalType": "address",
          "name": "_chainParent",
          "type": "address"
        },
        {
          "internalType": "uint256",
          "name": "_chainIndex",
          "type": "uint256"
        },
        {
          "components": [
            {
              "internalType": "contract Solver",
              "name": "implementation",
              "type": "address"
            },
            {
              "internalType": "address",
              "name": "keeper",
              "type": "address"
            },
            {
              "internalType": "address",
              "name": "arbitrator",
              "type": "address"
            },
            {
              "internalType": "uint256",
              "name": "timelockSeconds",
              "type": "uint256"
            },
            {
              "internalType": "bytes",
              "name": "data",
              "type": "bytes"
            },
            {
              "components": [
                {
                  "internalType": "uint256",
                  "name": "executions",
                  "type": "uint256"
                },
                {
                  "internalType": "enum SolverLib.IngestType",
                  "name": "ingestType",
                  "type": "uint8"
                },
                {
                  "internalType": "bytes32",
                  "name": "slot",
                  "type": "bytes32"
                },
                {
                  "internalType": "uint256",
                  "name": "solverIndex",
                  "type": "uint256"
                },
                {
                  "internalType": "bytes",
                  "name": "data",
                  "type": "bytes"
                }
              ],
              "internalType": "struct SolverLib.Ingest[]",
              "name": "ingests",
              "type": "tuple[]"
            },
            {
              "components": [
                {
                  "internalType": "contract IERC20",
                  "name": "collateralToken",
                  "type": "address"
                },
                {
                  "internalType": "uint256",
                  "name": "outcomeSlots",
                  "type": "uint256"
                },
                {
                  "internalType": "uint256",
                  "name": "parentCollectionIndexSet",
                  "type": "uint256"
                },
                {
                  "internalType": "bytes32",
                  "name": "amountSlot",
                  "type": "bytes32"
                },
                {
                  "internalType": "uint256[]",
                  "name": "partition",
                  "type": "uint256[]"
                },
                {
                  "components": [
                    {
                      "internalType": "bytes32",
                      "name": "recipientAddressSlot",
                      "type": "bytes32"
                    },
                    {
                      "internalType": "bytes32[]",
                      "name": "recipientAmountSlots",
                      "type": "bytes32[]"
                    }
                  ],
                  "internalType": "struct SolverLib.Allocation[]",
                  "name": "allocations",
                  "type": "tuple[]"
                },
                {
                  "components": [
                    {
                      "internalType": "bytes32",
                      "name": "digest",
                      "type": "bytes32"
                    },
                    {
                      "internalType": "uint8",
                      "name": "hashFunction",
                      "type": "uint8"
                    },
                    {
                      "internalType": "uint8",
                      "name": "size",
                      "type": "uint8"
                    }
                  ],
                  "internalType": "struct SolverLib.Multihash[]",
                  "name": "outcomeURIs",
                  "type": "tuple[]"
                }
              ],
              "internalType": "struct SolverLib.ConditionBase",
              "name": "conditionBase",
              "type": "tuple"
            }
          ],
          "internalType": "struct SolverLib.Config",
          "name": "_solverConfig",
          "type": "tuple"
        }
      ],
      "name": "init",
      "outputs": [],
      "stateMutability": "nonpayable",
      "type": "function"
    },
    {
      "inputs": [
        {
          "internalType": "address",
          "name": "operator",
          "type": "address"
        },
        {
          "internalType": "address",
          "name": "from",
          "type": "address"
        },
        {
          "internalType": "uint256[]",
          "name": "ids",
          "type": "uint256[]"
        },
        {
          "internalType": "uint256[]",
          "name": "values",
          "type": "uint256[]"
        },
        {
          "internalType": "bytes",
          "name": "data",
          "type": "bytes"
        }
      ],
      "name": "onERC1155BatchReceived",
      "outputs": [
        {
          "internalType": "bytes4",
          "name": "",
          "type": "bytes4"
        }
      ],
      "stateMutability": "nonpayable",
      "type": "function"
    },
    {
      "inputs": [
        {
          "internalType": "address",
          "name": "operator",
          "type": "address"
        },
        {
          "internalType": "address",
          "name": "from",
          "type": "address"
        },
        {
          "internalType": "uint256",
          "name": "id",
          "type": "uint256"
        },
        {
          "internalType": "uint256",
          "name": "value",
          "type": "uint256"
        },
        {
          "internalType": "bytes",
          "name": "data",
          "type": "bytes"
        }
      ],
      "name": "onERC1155Received",
      "outputs": [
        {
          "internalType": "bytes4",
          "name": "",
          "type": "bytes4"
        }
      ],
      "stateMutability": "nonpayable",
      "type": "function"
    },
    {
      "inputs": [
        {
          "internalType": "uint256",
          "name": "_index",
          "type": "uint256"
        }
      ],
      "name": "prepareSolve",
      "outputs": [],
      "stateMutability": "nonpayable",
      "type": "function"
    },
    {
      "inputs": [
        {
          "internalType": "uint256",
          "name": "_index",
          "type": "uint256"
        },
        {
          "internalType": "uint256[]",
          "name": "_payouts",
          "type": "uint256[]"
        }
      ],
      "name": "proposePayouts",
      "outputs": [],
      "stateMutability": "nonpayable",
      "type": "function"
    },
    {
      "inputs": [
        {
          "internalType": "contract IERC20",
          "name": "_collateralToken",
          "type": "address"
        },
        {
          "internalType": "bytes32",
          "name": "_parentCollectionId",
          "type": "bytes32"
        },
        {
          "internalType": "bytes32",
          "name": "_conditionId",
          "type": "bytes32"
        },
        {
          "internalType": "uint256[]",
          "name": "_indexSets",
          "type": "uint256[]"
        }
      ],
      "name": "redeemPosition",
      "outputs": [],
      "stateMutability": "nonpayable",
      "type": "function"
    },
    {
      "inputs": [
        {
          "internalType": "bytes32",
          "name": "_slot",
          "type": "bytes32"
        },
        {
          "internalType": "uint256",
          "name": "_chainIndex",
          "type": "uint256"
        }
      ],
      "name": "registerOutgoingCallback",
      "outputs": [],
      "stateMutability": "nonpayable",
      "type": "function"
    },
    {
      "inputs": [
        {
          "internalType": "bytes32",
          "name": "_trackingId",
          "type": "bytes32"
        }
      ],
      "name": "setTrackingId",
      "outputs": [],
      "stateMutability": "nonpayable",
      "type": "function"
    },
    {
      "inputs": [
        {
          "internalType": "bytes4",
          "name": "interfaceId",
          "type": "bytes4"
        }
      ],
      "name": "supportsInterface",
      "outputs": [
        {
          "internalType": "bool",
          "name": "",
          "type": "bool"
        }
      ],
      "stateMutability": "view",
      "type": "function"
    },
    {
      "inputs": [
        {
          "internalType": "uint256",
          "name": "",
          "type": "uint256"
        }
      ],
      "name": "timelocks",
      "outputs": [
        {
          "internalType": "uint256",
          "name": "",
          "type": "uint256"
        }
      ],
      "stateMutability": "view",
      "type": "function"
    },
    {
      "inputs": [],
      "name": "trackingId",
      "outputs": [
        {
          "internalType": "bytes32",
          "name": "",
          "type": "bytes32"
        }
      ],
      "stateMutability": "view",
      "type": "function"
    },
    {
      "inputs": [],
      "name": "uiCID",
      "outputs": [
        {
          "internalType": "bytes32",
          "name": "digest",
          "type": "bytes32"
        },
        {
          "internalType": "uint8",
          "name": "hashFunction",
          "type": "uint8"
        },
        {
          "internalType": "uint8",
          "name": "size",
          "type": "uint8"
        }
      ],
      "stateMutability": "view",
      "type": "function"
    }
  ],
  "bytecode": "0x608060405234801561001057600080fd5b506156b580620000216000396000f3fe608060405234801561001057600080fd5b50600436106101ac5760003560e01c806301ffc9a7146101b157806307c068b6146101da5780630944e26e146101ef578063098b37f71461020f5780630d06101a1461022f5780630d7e149f146102425780630d8d397514610262578063187825591461027557806326c50007146102885780633837b05e146102ac5780633f4fb5aa146102bf57806344c3b607146102df57806348cbb2fc146102f25780634a77234e146102fa5780634dab5e691461030d5780634e46f2231461032057806354f6127f1461033357806355dd978b146103465780637423846f1461034e57806379502c55146103655780637c1236271461037f57806380b204b71461039457806380c2dde2146103a75780638602ce1b146103af57806387dfee57146103c25780638bc3a08f146103d557806399992506146103e8578063b992db0f146103f0578063bc197c8114610403578063c08d6f0114610423578063c3f909d414610443578063c98c05b714610458578063de3a23c514610460578063df33cc5114610473578063ea8221a914610486578063f23a6e611461048e575b600080fd5b6101c46101bf3660046135d5565b6104a1565b6040516101d1919061434d565b60405180910390f35b6101ed6101e8366004613506565b6104ce565b005b6102026101fd366004613794565b610617565b6040516101d19190613eb9565b61022261021d366004613506565b610734565b6040516101d191906140ef565b6101ed61023d366004613506565b6107a0565b610255610250366004613506565b6107dc565b6040516101d19190614358565b6101ed610270366004613506565b6107fd565b6101ed61028336600461366f565b610967565b61029b610296366004613506565b610a01565b6040516101d19594939291906143e9565b6102026102ba366004613506565b610a4f565b6102d26102cd366004613506565b610b7d565b6040516101d1919061439d565b6101c46102ed366004613506565b610c79565b610255610d09565b6101ed610308366004613506565b610d0f565b6101ed61031b366004613506565b610fe8565b6101ed61032e366004613506565b6110c2565b6102d2610341366004613506565b61119c565b6102026111bc565b6103566111cb565b6040516101d19392919061436f565b61036d6111e0565b6040516101d19695949392919061441b565b61038761146b565b6040516101d1919061419c565b6101ed6103a23660046137ce565b61159a565b610202611701565b6101ed6103bd366004613536565b611710565b6101ed6103d0366004613817565b6117e5565b6101ed6103e3366004613337565b61199e565b6101c4611b3f565b6101ed6103fe366004613506565b611bd3565b6104166104113660046133b3565b611db3565b6040516101d19190614388565b610436610431366004613506565b611dc7565b6040516101d1919061413c565b61044b611eac565b6040516101d19190614952565b6102556122c5565b6101ed61046e366004613506565b612346565b6101ed6104813660046135b4565b6126b7565b6102556127c2565b61041661049c36600461346d565b6127c8565b60006001600160e01b03198216630271189760e51b14806104c657506104c6826127db565b90505b919050565b6007546001600160a01b031633146105015760405162461bcd60e51b81526004016104f89061474b565b60405180910390fd5b60036012828154811061052457634e487b7160e01b600052603260045260246000fd5b600091825260209091206006918202016005015460ff169081111561055957634e487b7160e01b600052602160045260246000fd5b146105765760405162461bcd60e51b81526004016104f8906146a0565b73__$94d7d2f22770e4b0d1a2b99fb2812308e2$__63ec7ac2f0601283815481106105b157634e487b7160e01b600052603260045260246000fd5b90600052602060002090600602016040518263ffffffff1660e01b81526004016105db9190614358565b60006040518083038186803b1580156105f357600080fd5b505af4158015610607573d6000803e3d6000fd5b50505050610614816127f4565b50565b6006546000906001600160a01b031633146106445760405162461bcd60e51b81526004016104f890614891565b6014546001600160a01b03161561066d5760405162461bcd60e51b81526004016104f8906144f6565b6000546015546017546040516386a2d22760e01b815273__$94d7d2f22770e4b0d1a2b99fb2812308e2$__936386a2d227936106bf93620100009092046001600160a01b031692889290600401613ff9565b60206040518083038186803b1580156106d757600080fd5b505af41580156106eb573d6000803e3d6000fd5b505050506040513d601f19601f8201168201806040525081019061070f919061331b565b601480546001600160a01b0319166001600160a01b0392831617908190551692915050565b6000818152601a602090815260409182902080548351818402810184019094528084526060939283018282801561079457602002820191906000526020600020905b81546001600160a01b03168152600190910190602001808311610776575b50505050509050919050565b601754156107c05760405162461bcd60e51b81526004016104f8906148e2565b6002546001600160a01b031633146107d757600080fd5b601755565b601681815481106107ec57600080fd5b600091825260209091200154905081565b6016818154811061081e57634e487b7160e01b600052603260045260246000fd5b906000526020600020015442116108475760405162461bcd60e51b81526004016104f89061461c565b60026012828154811061086a57634e487b7160e01b600052603260045260246000fd5b600091825260209091206006918202016005015460ff169081111561089f57634e487b7160e01b600052602160045260246000fd5b146108bc5760405162461bcd60e51b81526004016104f89061479c565b6001546012805473__$94d7d2f22770e4b0d1a2b99fb2812308e2$__926385c92867926001600160a01b03909116918590811061090957634e487b7160e01b600052603260045260246000fd5b90600052602060002090600602016040518363ffffffff1660e01b8152600401610934929190613f83565b60006040518083038186803b15801561094c57600080fd5b505af4158015610960573d6000803e3d6000fd5b5050505050565b6006546001600160a01b031633146109915760405162461bcd60e51b81526004016104f8906145f7565b600154604051626dc0df60e21b81526001600160a01b03909116906301b7037c906109c890889088908890889088906004016143b0565b600060405180830381600087803b1580156109e257600080fd5b505af11580156109f6573d6000803e3d6000fd5b505050505050505050565b60128181548110610a1157600080fd5b6000918252602090912060069091020180546001820154600283015460038401546005909401546001600160a01b0390931694509092909160ff1685565b6000601554821415610a625750306104c9565b601554821015610af357601354604051631c1bd82f60e11b81526001600160a01b0390911690633837b05e90610a9c908590600401614358565b60206040518083038186803b158015610ab457600080fd5b505afa158015610ac8573d6000803e3d6000fd5b505050506040513d601f19601f82011682018060405250810190610aec919061331b565b90506104c9565b6015548211156104c957601454604051631c1bd82f60e11b81526001600160a01b0390911690633837b05e90610b2d908590600401614358565b60206040518083038186803b158015610b4557600080fd5b505afa158015610b59573d6000803e3d6000fd5b505050506040513d601f19601f820116820180604052508101906104c6919061331b565b6012546000828152601c602052604090205460609114610baf5760405162461bcd60e51b81526004016104f890614720565b6000828152601c602052604090208054610bcb90600190614dbc565b81548110610be957634e487b7160e01b600052603260045260246000fd5b906000526020600020018054610bfe906150e0565b80601f0160208091040260200160405190810160405280929190818152602001828054610c2a906150e0565b80156107945780601f10610c4c57610100808354040283529160200191610794565b820191906000526020600020905b815481529060010190602001808311610c5a5750939695505050505050565b6040516336d39c6160e11b815260009073__$94d7d2f22770e4b0d1a2b99fb2812308e2$__90636da738c290610cb9908590601c90600b90600401614a2c565b60206040518083038186803b158015610cd157600080fd5b505af4158015610ce5573d6000803e3d6000fd5b505050506040513d601f19601f820116820180604052508101906104c691906134e6565b60175481565b60125415610d56576006546001600160a01b0316331480610d3a57506013546001600160a01b031633145b610d565760405162461bcd60e51b81526004016104f8906148b6565b6012548114610d775760405162461bcd60e51b81526004016104f8906145c5565b60195415610d975760405162461bcd60e51b81526004016104f8906147f7565b60185415610db75760405162461bcd60e51b81526004016104f89061482c565b6001546013546012805460405163699e0add60e01b8152919373__$94d7d2f22770e4b0d1a2b99fb2812308e2$__9363699e0add93610e09936001600160a01b0393841693600b931691600401613ecd565b60006040518083038186803b158015610e2157600080fd5b505af4158015610e35573d6000803e3d6000fd5b505050506040513d6000823e601f3d908101601f19168201604052610e5d91908101906136d6565b8154600180820184556000938452602093849020835160069093020180546001600160a01b0319166001600160a01b03909316929092178255828401519082015560408201516002820155606082015160038201556080820151805192939192610ecd9260048501920190613050565b5060a082015160058201805460ff19166001836006811115610eff57634e487b7160e01b600052602160045260246000fd5b0217905550506016805460018101825560009182527fd833147d7dc355ba459fc788f669e58cfaf9dc25ddcd0702e87d69c7b5124289015550610f4061283c565b7f152ec8ae15d347b2d2a8f0858caa29bcaaa0906749a1f43e08bfe799834602403082604051610f71929190613f83565b60405180910390a16014546001600160a01b0316156106145760145460405163253b91a760e11b81526001600160a01b0390911690634a77234e90610fba908490600401614358565b600060405180830381600087803b158015610fd457600080fd5b505af1158015610960573d6000803e3d6000fd5b6007546001600160a01b031633146110125760405162461bcd60e51b81526004016104f89061474b565b60026012828154811061103557634e487b7160e01b600052603260045260246000fd5b600091825260209091206006918202016005015460ff169081111561106a57634e487b7160e01b600052602160045260246000fd5b146110875760405162461bcd60e51b81526004016104f8906147ca565b73__$94d7d2f22770e4b0d1a2b99fb2812308e2$__6324b28602601283815481106105b157634e487b7160e01b600052603260045260246000fd5b6007546001600160a01b031633146110ec5760405162461bcd60e51b81526004016104f89061474b565b60046012828154811061110f57634e487b7160e01b600052603260045260246000fd5b600091825260209091206006918202016005015460ff169081111561114457634e487b7160e01b600052602160045260246000fd5b146111615760405162461bcd60e51b81526004016104f890614861565b73__$94d7d2f22770e4b0d1a2b99fb2812308e2$__6359111fb5601283815481106105b157634e487b7160e01b600052603260045260246000fd5b6000818152601c60205260409020805460609190610bcb90600190614dbc565b6014546001600160a01b031681565b60035460045460ff8082169161010090041683565b60058054600654600754600854600980546001600160a01b039586169694861695909316939192611210906150e0565b80601f016020809104026020016040519081016040528092919081815260200182805461123c906150e0565b80156112895780601f1061125e57610100808354040283529160200191611289565b820191906000526020600020905b81548152906001019060200180831161126c57829003601f168201915b50506040805160e0810182526006870180546001600160a01b03168252600788015460208084019190915260088901548385015260098901546060840152600a8901805485518184028101840190965280865298999893975091955060808701945090919083018282801561131d57602002820191906000526020600020905b815481526020019060010190808311611309575b5050505050815260200160058201805480602002602001604051908101604052809291908181526020016000905b828210156113df578382906000526020600020906002020160405180604001604052908160008201548152602001600182018054806020026020016040519081016040528092919081815260200182805480156113c757602002820191906000526020600020905b8154815260200190600101908083116113b3575b5050505050815250508152602001906001019061134b565b50505050815260200160068201805480602002602001604051908101604052809291908181526020016000905b8282101561145e57600084815260209081902060408051606081018252600286029092018054835260019081015460ff808216858701526101009091041691830191909152908352909201910161140c565b5050505081525050905086565b60606012805480602002602001604051908101604052809291908181526020016000905b828210156115915760008481526020908190206040805160c0810182526006860290920180546001600160a01b03168352600181015483850152600281015483830152600381015460608401526004810180548351818702810187019094528084529394919360808601939283018282801561152a57602002820191906000526020600020905b815481526020019060010190808311611516575b5050509183525050600582015460209091019060ff16600681111561155f57634e487b7160e01b600052602160045260246000fd5b600681111561157e57634e487b7160e01b600052602160045260246000fd5b815250508152602001906001019061148f565b50505050905090565b6006546001600160a01b031633146115c45760405162461bcd60e51b81526004016104f8906145f7565b600c5481146115e55760405162461bcd60e51b81526004016104f890614520565b60016012848154811061160857634e487b7160e01b600052603260045260246000fd5b600091825260209091206006918202016005015460ff169081111561163d57634e487b7160e01b600052602160045260246000fd5b1461165a5760405162461bcd60e51b81526004016104f890614566565b73__$94d7d2f22770e4b0d1a2b99fb2812308e2$__636a0a24f16012858154811061169557634e487b7160e01b600052603260045260246000fd5b906000526020600020906006020184846040518463ffffffff1660e01b81526004016116c393929190614938565b60006040518083038186803b1580156116db57600080fd5b505af41580156116ef573d6000803e3d6000fd5b505050506116fc836127f4565b505050565b6013546001600160a01b031681565b6006546001600160a01b0316331461173a5760405162461bcd60e51b81526004016104f8906144a5565b6000828152601d6020526040902054600a805460039290811061176d57634e487b7160e01b600052603260045260246000fd5b600091825260209091206001600590920201015460ff1660038111156117a357634e487b7160e01b600052602160045260246000fd5b146117c05760405162461bcd60e51b81526004016104f890614475565b6117ca8282612b03565b60405160008051602061566083398151915290600090a15050565b6007546001600160a01b0316331461180f5760405162461bcd60e51b81526004016104f89061474b565b60046012838154811061183257634e487b7160e01b600052603260045260246000fd5b600091825260209091206006918202016005015460ff169081111561186757634e487b7160e01b600052602160045260246000fd5b146118845760405162461bcd60e51b81526004016104f890614861565b601682815481106118a557634e487b7160e01b600052603260045260246000fd5b906000526020600020015442116118ce5760405162461bcd60e51b81526004016104f89061461c565b600c548151146118f05760405162461bcd60e51b81526004016104f890614520565b6001546012805473__$94d7d2f22770e4b0d1a2b99fb2812308e2$__92631b948e49926001600160a01b03909116918690811061193d57634e487b7160e01b600052603260045260246000fd5b9060005260206000209060060201846040518463ffffffff1660e01b815260040161196a93929190613f9c565b60006040518083038186803b15801561198257600080fd5b505af4158015611996573d6000803e3d6000fd5b505050505050565b600054610100900460ff16806119b7575060005460ff16155b6119d35760405162461bcd60e51b81526004016104f8906146d2565b600054610100900460ff161580156119fe576000805460ff1961ff0019909116610100171660011790555b6000611a1060408401602085016132f8565b6001600160a01b03161415611a375760405162461bcd60e51b81526004016104f890614774565b600280546001600160a01b03199081166001600160a01b03898116919091179092556000805462010000600160b01b031916336201000002179055600180548216888416179055601380549091169186169190911790556015839055816005611aa08282615331565b90505060005b611ab360a0840184614a88565b9050811015611b255780601d6000611ace60a0870187614a88565b85818110611aec57634e487b7160e01b600052603260045260246000fd5b9050602002810190611afe9190614b5c565b60409081013582526020820192909252016000205580611b1d81615128565b915050611aa6565b508015611996576000805461ff0019169055505050505050565b601254604051635cc1f6b560e01b815260009173__$94d7d2f22770e4b0d1a2b99fb2812308e2$__91635cc1f6b591611b7e91600a9190600401614242565b60206040518083038186803b158015611b9657600080fd5b505af4158015611baa573d6000803e3d6000fd5b505050506040513d601f19601f82011682018060405250810190611bce91906134e6565b905090565b611bdb611b3f565b1515600114611bfc5760405162461bcd60e51b81526004016104f89061464b565b73__$94d7d2f22770e4b0d1a2b99fb2812308e2$__632dd4082482600160009054906101000a90046001600160a01b031660128581548110611c4e57634e487b7160e01b600052603260045260246000fd5b60009182526020808320601754601354600e548652601c9384905260409095208054600690950290920194600b9491926001600160a01b03909116918b908110611ca857634e487b7160e01b600052603260045260246000fd5b906000526020600020018054611cbd906150e0565b80601f0160208091040260200160405190810160405280929190818152602001828054611ce9906150e0565b8015611d365780601f10611d0b57610100808354040283529160200191611d36565b820191906000526020600020905b815481529060010190602001808311611d1957829003601f168201915b5050505050806020019051810190611d4e919061351e565b6040518963ffffffff1660e01b8152600401611d719897969594939291906149e8565b60006040518083038186803b158015611d8957600080fd5b505af4158015611d9d573d6000803e3d6000fd5b50505050611daa81610614565b61061481612b7a565b63bc197c8160e01b98975050505050505050565b6000818152601c60209081526040808320805482518185028101850190935280835260609492939192909184015b82821015611ea1578382906000526020600020018054611e14906150e0565b80601f0160208091040260200160405190810160405280929190818152602001828054611e40906150e0565b8015611e8d5780601f10611e6257610100808354040283529160200191611e8d565b820191906000526020600020905b815481529060010190602001808311611e7057829003601f168201915b505050505081526020019060010190611df5565b505050509050919050565b611eb461309b565b6040805160e081018252600580546001600160a01b039081168352600654811660208401526007541692820192909252600854606082015260098054919291608084019190611f02906150e0565b80601f0160208091040260200160405190810160405280929190818152602001828054611f2e906150e0565b8015611f7b5780601f10611f5057610100808354040283529160200191611f7b565b820191906000526020600020905b815481529060010190602001808311611f5e57829003601f168201915b5050505050815260200160058201805480602002602001604051908101604052809291908181526020016000905b828210156120e057838290600052602060002090600502016040518060a0016040529081600082015481526020016001820160009054906101000a900460ff16600381111561200857634e487b7160e01b600052602160045260246000fd5b600381111561202757634e487b7160e01b600052602160045260246000fd5b8152602001600282015481526020016003820154815260200160048201805461204f906150e0565b80601f016020809104026020016040519081016040528092919081815260200182805461207b906150e0565b80156120c85780601f1061209d576101008083540402835291602001916120c8565b820191906000526020600020905b8154815290600101906020018083116120ab57829003601f168201915b50505050508152505081526020019060010190611fa9565b505050908252506040805160e0810182526006840180546001600160a01b03168252600785015460208381019190915260088601548385015260098601546060840152600a86018054855181840281018401909652808652958201959394929360808601939283018282801561217557602002820191906000526020600020905b815481526020019060010190808311612161575b5050505050815260200160058201805480602002602001604051908101604052809291908181526020016000905b828210156122375783829060005260206000209060020201604051806040016040529081600082015481526020016001820180548060200260200160405190810160405280929190818152602001828054801561221f57602002820191906000526020600020905b81548152602001906001019080831161220b575b505050505081525050815260200190600101906121a3565b50505050815260200160068201805480602002602001604051908101604052809291908181526020016000905b828210156122b657600084815260209081902060408051606081018252600286029092018054835260019081015460ff8082168587015261010090910416918301919091529083529092019101612264565b50505091525050905250905090565b600b546040516370a0823160e01b81526000916001600160a01b0316906370a08231906122f6903090600401613eb9565b60206040518083038186803b15801561230e57600080fd5b505afa158015612322573d6000803e3d6000fd5b505050506040513d601f19601f82011682018060405250810190611bce919061351e565b6000338260405160200161235b929190613e9c565b60408051601f1981840301815291815281516020928301206000818152601b909352912054600a80549293506123c19290919081106123aa57634e487b7160e01b600052603260045260246000fd5b906000526020600020906005020160030154610a4f565b6001600160a01b0316336001600160a01b0316146123f15760405162461bcd60e51b81526004016104f890614596565b6000818152601b6020526040812054600a8054909190811061242357634e487b7160e01b600052603260045260246000fd5b600091825260209091206001600590920201015460ff16600381111561245957634e487b7160e01b600052602160045260246000fd5b146124765760405162461bcd60e51b81526004016104f8906144c9565b6000818152601b6020526040902054600a805490919081106124a857634e487b7160e01b600052603260045260246000fd5b6000918252602082206005909102018054916124c383615128565b90915550506000818152601b6020526040902054600a8054612678929081106124fc57634e487b7160e01b600052603260045260246000fd5b906000526020600020906005020160020154336001600160a01b0316633f4fb5aa6005800160186003016000878152602001908152602001600020548154811061255657634e487b7160e01b600052603260045260246000fd5b90600052602060002090600502016004018054612572906150e0565b80601f016020809104026020016040519081016040528092919081815260200182805461259e906150e0565b80156125eb5780601f106125c0576101008083540402835291602001916125eb565b820191906000526020600020905b8154815290600101906020018083116125ce57829003601f168201915b5050505050806020019051810190612603919061351e565b6040518263ffffffff1660e01b815260040161261f9190614358565b60006040518083038186803b15801561263757600080fd5b505afa15801561264b573d6000803e3d6000fd5b505050506040513d6000823e601f3d908101601f1916820160405261267391908101906135fd565b612b03565b6000818152601b602052604081208190556018805491612697836150c9565b909155505060405160008051602061566083398151915290600090a15050565b6126c081610a4f565b6001600160a01b0316336001600160a01b0316146126f05760405162461bcd60e51b81526004016104f890614596565b6000828152601c60205260409020541580159061271c57506012546000838152601c6020526040902054145b1561277b5760405163de3a23c560e01b8152339063de3a23c590612744908590600401614358565b600060405180830381600087803b15801561275e57600080fd5b505af1158015612772573d6000803e3d6000fd5b505050506127be565b6000828152601a60209081526040822080546001810182559083529082200180546001600160a01b0319163317905560198054916127b883615128565b91905055505b5050565b60155481565b63f23a6e6160e01b5b9695505050505050565b6001600160e01b031981166301ffc9a760e01b14919050565b600854612802906001614d9d565b61280c9042614d85565b6016828154811061282d57634e487b7160e01b600052603260045260246000fd5b60009182526020909120015550565b60005b600a54811015612ae9576000600a80548390811061286d57634e487b7160e01b600052603260045260246000fd5b600091825260209091206001600590920201015460ff1660038111156128a357634e487b7160e01b600052602160045260246000fd5b146128e6576128e16005800182815481106128ce57634e487b7160e01b600052603260045260246000fd5b9060005260206000209060050201612cd1565b612ad7565b6000306001600160a01b0316633837b05e60058001848154811061291a57634e487b7160e01b600052603260045260246000fd5b9060005260206000209060050201600301546040518263ffffffff1660e01b81526004016129489190614358565b60206040518083038186803b15801561296057600080fd5b505afa158015612974573d6000803e3d6000fd5b505050506040513d601f19601f82011682018060405250810190612998919061331b565b90506129a48183612dc5565b806001600160a01b031663df33cc516005800184815481106129d657634e487b7160e01b600052603260045260246000fd5b906000526020600020906005020160040180546129f2906150e0565b80601f0160208091040260200160405190810160405280929190818152602001828054612a1e906150e0565b8015612a6b5780601f10612a4057610100808354040283529160200191612a6b565b820191906000526020600020905b815481529060010190602001808311612a4e57829003601f168201915b5050505050806020019051810190612a83919061351e565b6015546040518363ffffffff1660e01b8152600401612aa3929190614361565b600060405180830381600087803b158015612abd57600080fd5b505af1158015612ad1573d6000803e3d6000fd5b50505050505b80612ae181615128565b91505061283f565b5060405160008051602061566083398151915290600090a1565b601254612b1290600190614dbc565b6000838152601c602052604090205414612b3e5760405162461bcd60e51b81526004016104f89061490a565b6000828152601c6020908152604082208054600181018255908352918190208351612b709391909101918401906130f8565b506127be82612ee8565b6014546001600160a01b031615801590612c155750601460009054906101000a90046001600160a01b03166001600160a01b031663999925066040518163ffffffff1660e01b815260040160206040518083038186803b158015612bdd57600080fd5b505afa158015612bf1573d6000803e3d6000fd5b505050506040513d601f19601f82011682018060405250810190612c1591906134e6565b8015612c9c57506014546040516344c3b60760e01b81526001600160a01b03909116906344c3b60790612c4c908490600401614358565b60206040518083038186803b158015612c6457600080fd5b505afa158015612c78573d6000803e3d6000fd5b505050506040513d601f19601f82011682018060405250810190612c9c91906134e6565b156106145760145460405163b992db0f60e01b81526001600160a01b039091169063b992db0f90610fba908490600401614358565b600181015460039060ff1681811115612cfa57634e487b7160e01b600052602160045260246000fd5b1115612d185760405162461bcd60e51b81526004016104f890614674565b8054816000612d2683615128565b9091555060039050600182015460ff166003811115612d5557634e487b7160e01b600052602160045260246000fd5b1461061457610614816002015473__$94d7d2f22770e4b0d1a2b99fb2812308e2$__63b3d73707846040518263ffffffff1660e01b8152600401612d999190614358565b60006040518083038186803b158015612db157600080fd5b505af415801561264b573d6000803e3d6000fd5b806018600301600084600580018581548110612df157634e487b7160e01b600052603260045260246000fd5b90600052602060002090600502016004018054612e0d906150e0565b80601f0160208091040260200160405190810160405280929190818152602001828054612e39906150e0565b8015612e865780601f10612e5b57610100808354040283529160200191612e86565b820191906000526020600020905b815481529060010190602001808311612e6957829003601f168201915b5050505050806020019051810190612e9e919061351e565b604051602001612eaf929190613e9c565b60408051601f1981840301815291815281516020928301208352908201929092520160009081209190915560188054916127b883615128565b60005b6000828152601a60205260409020548110156127be576000828152601a60205260408120805483908110612f2f57634e487b7160e01b600052603260045260246000fd5b6000918252602090912001546001600160a01b03161461303e576000828152601a60205260409020805482908110612f7757634e487b7160e01b600052603260045260246000fd5b60009182526020909120015460405163de3a23c560e01b81526001600160a01b039091169063de3a23c590612fb0908590600401614358565b600060405180830381600087803b158015612fca57600080fd5b505af1158015612fde573d6000803e3d6000fd5b5050506000838152601a6020526040902080549091508290811061301257634e487b7160e01b600052603260045260246000fd5b6000918252602082200180546001600160a01b03191690556019805491613038836150c9565b91905055505b8061304881615128565b915050612eeb565b82805482825590600052602060002090810192821561308b579160200282015b8281111561308b578251825591602001919060010190613070565b5061309792915061316b565b5090565b6040518060e0016040528060006001600160a01b0316815260200160006001600160a01b0316815260200160006001600160a01b031681526020016000815260200160608152602001606081526020016130f3613180565b905290565b828054613104906150e0565b90600052602060002090601f016020900481019282613126576000855561308b565b82601f1061313f57805160ff191683800117855561308b565b8280016001018555821561308b579182018281111561308b578251825591602001919060010190613070565b5b80821115613097576000815560010161316c565b6040518060e0016040528060006001600160a01b031681526020016000815260200160008152602001600080191681526020016060815260200160608152602001606081525090565b80356104c98161562e565b60008083601f8401126131e5578182fd5b5081356001600160401b038111156131fb578182fd5b602083019150836020808302850101111561321557600080fd5b9250929050565b600082601f83011261322c578081fd5b8151602061324161323c83614b9a565b614b71565b828152818101908583018385028701840188101561325d578586fd5b855b8581101561327b5781518452928401929084019060010161325f565b5090979650505050505050565b60008083601f840112613299578182fd5b5081356001600160401b038111156132af578182fd5b60208301915083602082850101111561321557600080fd5b80516104c98161562e565b8051600781106104c957600080fd5b600060e082840312156132f2578081fd5b50919050565b600060208284031215613309578081fd5b81356133148161562e565b9392505050565b60006020828403121561332c578081fd5b81516133148161562e565b600080600080600060a0868803121561334e578081fd5b85356133598161562e565b945060208601356133698161562e565b935060408601356133798161562e565b92506060860135915060808601356001600160401b0381111561339a578182fd5b6133a6888289016132e1565b9150509295509295909350565b60008060008060008060008060a0898b0312156133ce578586fd5b88356133d98161562e565b975060208901356133e98161562e565b965060408901356001600160401b0380821115613404578788fd5b6134108c838d016131d4565b909850965060608b0135915080821115613428578485fd5b6134348c838d016131d4565b909650945060808b013591508082111561344c578384fd5b506134598b828c01613288565b999c989b5096995094979396929594505050565b60008060008060008060a08789031215613485578384fd5b86356134908161562e565b955060208701356134a08161562e565b9450604087013593506060870135925060808701356001600160401b038111156134c8578283fd5b6134d489828a01613288565b979a9699509497509295939492505050565b6000602082840312156134f7578081fd5b81518015158114613314578182fd5b600060208284031215613517578081fd5b5035919050565b60006020828403121561352f578081fd5b5051919050565b60008060408385031215613548578182fd5b8235915060208301356001600160401b03811115613564578182fd5b8301601f81018513613574578182fd5b803561358261323c82614bbd565b818152866020838501011115613596578384fd5b81602084016020830137908101602001929092525090939092509050565b600080604083850312156135c6578182fd5b50508035926020909101359150565b6000602082840312156135e6578081fd5b81356001600160e01b031981168114613314578182fd5b60006020828403121561360e578081fd5b81516001600160401b03811115613623578182fd5b8201601f81018413613633578182fd5b805161364161323c82614bbd565b818152856020838501011115613655578384fd5b613666826020830160208601615099565b95945050505050565b600080600080600060808688031215613686578283fd5b85356136918161562e565b9450602086013593506040860135925060608601356001600160401b038111156136b9578182fd5b6136c5888289016131d4565b969995985093965092949392505050565b6000602082840312156136e7578081fd5b81516001600160401b03808211156136fd578283fd5b9083019060c08286031215613710578283fd5b60405160c08101818110838211171561372b5761372b615185565b604052613737836132c7565b8152602083015160208201526040830151604082015260608301516060820152608083015182811115613768578485fd5b6137748782860161321c565b60808301525061378660a084016132d2565b60a082015295945050505050565b6000602082840312156137a5578081fd5b81356001600160401b038111156137ba578182fd5b6137c6848285016132e1565b949350505050565b6000806000604084860312156137e2578081fd5b8335925060208401356001600160401b038111156137fe578182fd5b61380a868287016131d4565b9497909650939450505050565b60008060408385031215613829578182fd5b823591506020808401356001600160401b03811115613846578283fd5b8401601f81018613613856578283fd5b803561386461323c82614b9a565b81815283810190838501858402850186018a1015613880578687fd5b8694505b838510156138a2578035835260019490940193918501918501613884565b5080955050505050509250929050565b6001600160a01b03169052565b81835260006001600160fb1b038311156138d7578081fd5b6020830280836020870137939093016020019283525090919050565b6000815480845260208085018081965082840281019150858552828520855b8581101561397e57828403895281548452604085850181905260018084018054928701839052895286892060608701929091908a905b808210156139655783548552938901939282019290820190613948565b5050509986019950935060029190910190600101613912565b5091979650505050505050565b818352602080840193600091908185020181018584845b8781101561397e5782840389528135609e198836030181126139c2578687fd5b87018035855260a0868201356139d781615643565b6139e388880182613c67565b5060408281013590870152606080830135908701526080613a0681840184614d23565b93508282890152613a1a8389018583613c11565b9c89019c975050509286019250506001016139a2565b6000815180845260208085018081965082840281019150828601855b8581101561397e578284038952815160a08151865286820151613a7188880182613c67565b506040828101519087015260608083015190870152608091820151918601819052613a9e81870183613c3b565b9a87019a9550505090840190600101613a4c565b60008284526020808501945082825b85811015613b0b578135875282820135613ada81615650565b60ff9081168885015260409083820135613af381615650565b16908801526060968701969190910190600101613ac1565b509495945050505050565b6000815180845260208085019450808401835b83811015613b0b578151805188528381015160ff908116858a0152604091820151169088015260609096019590820190600101613b29565b6000815480845260208085019450838352808320835b83811015613b0b578154875260018083015460ff808216868b015260089190911c16604089015260609097019660029092019101613b77565b6000815180845260208085019450808401835b83811015613b0b57815187529582019590820190600101613bc3565b6000815480845260208085019450838352808320835b83811015613b0b57815487529582019560019182019101613bf5565b60008284528282602086013780602084860101526020601f19601f85011685010190509392505050565b60008151808452613c53816020860160208601615099565b601f01601f19169290920160200192915050565b60048110613c7757613c7761516f565b9052565b60078110613c7757613c7761516f565b60008135613c988161562e565b6001600160a01b03168352602082810135818501526040808401358186015260608085013590860152613cce6080850185614c95565b60e06080880152613ce360e0880182846138bf565b915050613cf360a0860186614c95565b87830360a08901528083528483018582028401860183885b84811015613d6a57868303601f19018452813536879003603e19018112613d30578a8bfd5b860180358452613d428a820182614c95565b9150898b860152613d568a860183836138bf565b958b01959450505090880190600101613d0b565b5050613d7960c08a018a614cdc565b9750955089810360c08b0152613d90818888613ab2565b9a9950505050505050505050565b600060018060a01b038251168352602080830151818501526040808401518186015260608085015181870152608085015160e06080880152613de360e0880182613bb0565b905060a086015187820360a08901528181518084528684019150868782028501018784019350885b82811015613e7357858203601f190184528451805183528901518983018990528051898401819052908a01908b90898501905b80831015613e5e5783518252928c019260019290920191908c0190613e3e565b50968b0196958b019593505050600101613e0b565b5060c08a015197508a810360c08c0152613e8d8189613b16565b9b9a5050505050505050505050565b60609290921b6001600160601b0319168252601482015260340190565b6001600160a01b0391909116815260200190565b600060018060a01b038616825260806020830152613ef760808301613ef28754614dd3565b6138b2565b600185015460a0830152600285015460c0830152600385015460e083015260e0610100830152613f2e610160830160048701613bdf565b607f198084830301610120850152613f4982600589016138f3565b9150808483030161014085015250613f648160068801613b61565b915050613f7460408301856138b2565b82606083015295945050505050565b6001600160a01b03929092168252602082015260400190565b6001600160a01b038416815260208082018490526060604083018190528351908301819052600091848101916080850190845b81811015613feb57845183529383019391830191600101613fcf565b509098975050505050505050565b6001600160a01b038516815260806020820152600084356140198161562e565b61402660808401826138b2565b50614033602086016131c9565b61404060a08401826138b2565b5061404d604086016131c9565b61405a60c08401826138b2565b50606085013560e08301526140726080860186614d23565b60e061010085015261408961016085018284613c11565b91505061409960a0870187614c95565b607f1980868503016101208701526140b284838561398b565b93506140c160c08a018a614d67565b9250808685030161014087015250506140da8282613c8b565b60408501969096525050506060015292915050565b6020808252825182820181905260009190848201906040850190845b818110156141305783516001600160a01b03168352928401929184019160010161410b565b50909695505050505050565b6000602080830181845280855180835260408601915060408482028701019250838701855b8281101561418f57603f1988860301845261417d858351613c3b565b94509285019290850190600101614161565b5092979650505050505050565b60208082528251828201819052600091906040908185019080840286018301878501865b83811015613feb57888303603f19018552815180516001600160a01b03168452878101518885015286810151878501526060808201519085015260808082015160c0828701819052919061421683880182613bb0565b9250505060a080830151925061422e81870184613c7b565b5095880195935050908601906001016141c0565b60006040820160408352808554808352606092508285019150602083818302870101888652818620865b8481101561433b57605f1989840301865260a082548452600160ff818501541661429887870182613c67565b5060028401546040860152600384015489860152600484018260808701528a81546142c2816150e0565b94880185905260c09481851680156142e157600181146142f557614320565b60ff1983168a88015260e08a019350614320565b848f528a8f208f5b838110156143185781548c82018a0152908701908c016142fd565b8b0188019450505b5050509887019895505050600592909201915060010161426c565b50509501959095525091949350505050565b901515815260200190565b90815260200190565b918252602082015260400190565b92835260ff918216602084015216604082015260600190565b6001600160e01b031991909116815260200190565b6000602082526133146020830184613c3b565b600060018060a01b0387168252856020830152846040830152608060608301526143de6080830184866138bf565b979650505050505050565b6001600160a01b038616815260208101859052604081018490526060810183905260a081016127d16080830184613c7b565b6001600160a01b0387811682528681166020830152851660408201526060810184905260c06080820181905260009061445690830185613c3b565b82810360a08401526144688185613d9e565b9998505050505050505050565b6020808252601690820152751bdb9b1e48125b99d95cdd151e5c194b93585b9d585b60521b604082015260600190565b6020808252600a908201526927b7363ca5b2b2b832b960b11b604082015260600190565b602080825260139082015272496e67657374206e6f742043616c6c6261636b60681b604082015260600190565b60208082526010908201526f14dbdb1d995c881a185cc818da1a5b1960821b604082015260600190565b60208082526026908201527f7061796f7574732e6c656e677468206d757374206d61746368206f7574636f6d60408201526565536c6f747360d01b606082015260800190565b60208082526016908201527510dbdb991a5d1a5bdb881b9bdd08115e1958dd5d195960521b604082015260600190565b60208082526015908201527436b9b39739b2b73232b9103737ba1039b7b63b32b960591b604082015260600190565b602080825260189082015277496e76616c696420696e64657820746f207072657061726560401b604082015260600190565b6020808252600b908201526a27b7363c9025b2b2b832b960a91b604082015260600190565b602080825260159082015274151a5b595b1bd8dac81cdd1a5b1b081b1bd8dad959605a1b604082015260600190565b6020808252600f908201526e1a5b99d95cdd1cc81a5b9d985b1a59608a1b604082015260600190565b602080825260129082015271496e76616c696420696e676573745479706560701b604082015260600190565b602080825260189082015277139bdd08105c989a5d1c985d1a5bdb94995c5d595cdd195960421b604082015260600190565b6020808252602e908201527f496e697469616c697a61626c653a20636f6e747261637420697320616c72656160408201526d191e481a5b9a5d1a585b1a5e995960921b606082015260800190565b60208082526011908201527029b637ba1034b73b30b634b2103b32b91760791b604082015260600190565b6020808252600f908201526e27b7363c9030b93134ba3930ba37b960891b604082015260600190565b6020808252600e908201526d12d9595c195c881a5b9d985b1a5960921b604082015260600190565b60208082526014908201527313dd5d18dbdb59481b9bdd081c1c9bdc1bdcd95960621b604082015260600190565b602080825260139082015272139bdd0813dd5d18dbdb59541c9bdc1bdcd959606a1b604082015260600190565b6020808252818101527f46756c66696c6c206f7574676f696e672063616c6c6261636b73206669727374604082015260600190565b6020808252818101527f46756c66696c6c20696e636f6d696e672063616c6c6261636b73206669727374604082015260600190565b6020808252601690820152754e6f74204172626974726174696f6e50656e64696e6760501b604082015260600190565b6020808252600b908201526a27b7363c9035b2b2b832b960a91b604082015260600190565b60208082526012908201527113db9b1e481ad9595c195c8bdc185c995b9d60721b604082015260600190565b6020808252600e908201526d151c9858dada5b99d259081cd95d60921b604082015260600190565b60208082526014908201527314db1bdd081d995c9cda5bdb881a5b9d985b1a5960621b604082015260600190565b6000848252604060208301526136666040830184866138bf565b60006020825260018060a01b0380845116602084015280602085015116604084015250604083015161498760608401826138b2565b5060608301516080830152608083015160e060a08401526149ac610100840182613c3b565b905060a0840151601f19808584030160c08601526149ca8383613a30565b925060c08601519150808584030160e0860152506136668282613d9e565b9788526001600160a01b03968716602089015260408801959095526060870193909352608086019190915260a085015290911660c083015260e08201526101000190565b9283526020830191909152604082015260600190565b6000808335601e19843603018112614a58578283fd5b8301803591506001600160401b03821115614a71578283fd5b602090810192508102360382131561321557600080fd5b6000808335601e19843603018112614a58578182fd5b6000808335601e19843603018112614ab4578182fd5b8301803591506001600160401b03821115614acd578283fd5b602001915060608102360382131561321557600080fd5b6000808335601e19843603018112614afa578182fd5b8301803591506001600160401b03821115614b13578283fd5b60200191503681900382131561321557600080fd5b60008235603e19833603018112614b3d578182fd5b9190910192915050565b6000823560de19833603018112614b3d578182fd5b60008235609e19833603018112614b3d578182fd5b6040518181016001600160401b0381118282101715614b9257614b92615185565b604052919050565b60006001600160401b03821115614bb357614bb3615185565b5060209081020190565b60006001600160401b03821115614bd657614bd6615185565b50601f01601f191660200190565b60009081526020902090565b602084108015614c4657601f841160018114614c1757614c108685615115565b8355614c40565b614c2083614be4565b614c356020601f880104820160018301614ddf565b50614c4086846151f6565b50610960565b8160005260206000206020601f8701048101601f87168015614c7057614c7081600019840161519b565b50614c836020601f880104830182614ddf565b50506001856002021782555050505050565b6000808335601e19843603018112614cab578283fd5b83016020810192503590506001600160401b03811115614cca57600080fd5b60208102360383131561321557600080fd5b6000808335601e19843603018112614cf2578283fd5b83016020810192503590506001600160401b03811115614d1157600080fd5b60608102360383131561321557600080fd5b6000808335601e19843603018112614d39578283fd5b83016020810192503590506001600160401b03811115614d5857600080fd5b80360383131561321557600080fd5b6000823560de19833603018112614d7c578182fd5b90910192915050565b60008219821115614d9857614d98615159565b500190565b6000816000190483118215151615614db757614db7615159565b500290565b600082821015614dce57614dce615159565b500390565b6001600160a01b031690565b5b818110156127be5760008155600101614de0565b600160401b831115614e0857614e08615185565b805483825580841015614e8d576001600160ff1b036001818311811615614e3157614e31615159565b6002828711821615614e4557614e45615159565b600085815260208120909350878202810190828602015b80821015614e8757614e7085868454615214565b8255614e7e858584016151af565b90820190614e5c565b50505050505b5081614e9882614be4565b6000805b86811015614ece57614eb8614eb18588614b28565b838561550b565b6020939093019260029290920191600101614e9c565b50505050505050565b600160401b831115614eeb57614eeb615185565b805483825580841015614f6a576001600160ff1b036001818311811615614f1457614f14615159565b6002828711821615614f2857614f28615159565b600085815260208120909350878202810190828602015b80821015614f6457614f5385868454615214565b825584848301558282019150614f3f565b50505050505b5081614f7582614be4565b6000805b86811015614ece57614f8c8483856155d3565b6060939093019260029290920191600101614f79565b6001600160401b03831115614fb957614fb9615185565b614fc381546150e0565b600080601f8611601f841181811715614fe257614fdf86614be4565b92505b8015615011576020601f89010483016020891015614ffd5750825b61500f6020601f880104850182614ddf565b505b50806001811461503d5760009450871561502c578387013594505b6150368886615115565b865561508f565b601f198816945082845b868110156150675788860135825560209586019560019092019101615047565b508886101561508457878501356000196008601f8c16021c191681555b506001600289020186555b5050505050505050565b60005b838110156150b457818101518382015260200161509c565b838111156150c3576000848401525b50505050565b6000816150d8576150d8615159565b506000190190565b6002810460018216806150f457607f821691505b602082108114156132f257634e487b7160e01b600052602260045260246000fd5b600019600883021c191660029091021790565b600060001982141561513c5761513c615159565b5060010190565b634e487b7160e01b600052600060045260246000fd5b634e487b7160e01b600052601160045260246000fd5b634e487b7160e01b600052602160045260246000fd5b634e487b7160e01b600052604160045260246000fd5b8054600019836020036008021c1681555050565b600160401b8211156151c3576151c3615185565b8054828255808310156116fc576000828152602081208481019083015b80821015611996578282556001820191506151e0565b80600052602060002061520a838254615115565b9091556000905550565b60089190910291821b60001990921b9182169119161790565b80546001600160a01b0319166001600160a01b0392909216919091179055565b81356152588161562e565b615262818361522d565b506001602080840135828401556040840135600284015560608401356003840155600483016152946080860186614a42565b600160401b8111156152a8576152a8615185565b8254818455808210156152cd5783600052846000206152cb828201848301614ddf565b505b506000928352838320925b818110156152f35782358455928501929184019185016152d8565b50505050505061530660a0830183614a42565b615314818360058601614df4565b505061532360c0830183614a9e565b6150c3818360068601614ed7565b813561533c8161562e565b615346818361522d565b5060016020808401356153588161562e565b6153648184860161522d565b50600260408501356153758161562e565b6153818183870161522d565b506003606086013581860155600461539c6080880188614ae4565b6153a98183858b01614fa2565b505060058087016153bd60a08a018a614a42565b600160401b8111156153d1576153d1615185565b8254818455808210156154a5577f33333333333333333333333333333333333333333333333333333333333333338082118b161561541157615411615159565b8083118b161561542357615423615159565b506000848152898120838702810190878402015b808210156154a15761544b83848454615214565b8255828d8301558a820161546184858354615214565b81555089820161547384858354615214565b90558189018054615483816150e0565b80156154955761549586828486614bf0565b50505090870190615437565b5050505b508196506154b283614be4565b9550600094508492505b808310156154e9576154d86154d18884614b5c565b868861555f565b9587019594830194918801916154bc565b5050505050505050506127be61550260c0840184614b47565b6006830161524d565b811561551957615519615143565b823581556001808201602061553081870187614a42565b61553a81856151af565b6000938452828420935b818110156109f6578235855593850193918301918501615544565b811561556d5761556d615143565b8235815560018101602084013561558381615643565b600481106155935761559361516f565b60ff1982541660ff82168117835550505060408301356002820155606083013560038201556155c56080840184614ae4565b610960818360048601614fa2565b81156155e1576155e1615143565b823581556001810160208401356155f781615650565b815460ff191660ff9190911617808255604085013561561581615650565b61ff008160081b1661ff00198316178355505050505050565b6001600160a01b038116811461061457600080fd5b6004811061061457600080fd5b60ff8116811461061457600080fdfe71bd81ebe1d98a2944767394e76a9aff18724b2cf04e1db71254f804544b35c7a264697066735822122019231ab1ec7516a2aa61f5954d2ebbba7363a395e040aec247b589297f23cf0764736f6c63430008000033",
  "linkReferences": {
    "contracts/SolverLib.sol": {
      "SolverLib": [
        {
          "length": 20,
          "start": 1433
        },
        {
          "length": 20,
          "start": 1702
        },
        {
          "length": 20,
          "start": 2278
        },
        {
          "length": 20,
          "start": 3244
        },
        {
          "length": 20,
          "start": 3571
        },
        {
          "length": 20,
          "start": 4266
        },
        {
          "length": 20,
          "start": 4484
        },
        {
          "length": 20,
          "start": 5757
        },
        {
          "length": 20,
          "start": 6426
        },
        {
          "length": 20,
          "start": 7029
        },
        {
          "length": 20,
          "start": 7199
        },
        {
          "length": 20,
          "start": 11653
        }
      ]
    }
  },
  "deployedLinkReferences": {
    "contracts/SolverLib.sol": {
      "SolverLib": [
        {
          "length": 20,
          "start": 1400
        },
        {
          "length": 20,
          "start": 1669
        },
        {
          "length": 20,
          "start": 2245
        },
        {
          "length": 20,
          "start": 3211
        },
        {
          "length": 20,
          "start": 3538
        },
        {
          "length": 20,
          "start": 4233
        },
        {
          "length": 20,
          "start": 4451
        },
        {
          "length": 20,
          "start": 5724
        },
        {
          "length": 20,
          "start": 6393
        },
        {
          "length": 20,
          "start": 6996
        },
        {
          "length": 20,
          "start": 7166
        },
        {
          "length": 20,
          "start": 11620
        }
      ]
    }
  }
}