{
  "_format": "hh-sol-artifact-1",
  "contractName": "BasicSolverV1",
  "sourceName": "contracts/BasicSolverV1.sol",
  "abi": [
    {
      "anonymous": false,
      "inputs": [
        {
          "indexed": false,
          "internalType": "bytes32",
          "name": "conditionId",
          "type": "bytes32"
        }
      ],
      "name": "ChangedStatus",
      "type": "event"
    },
    {
      "anonymous": false,
      "inputs": [
        {
          "indexed": false,
          "internalType": "bytes32",
          "name": "conditionId",
          "type": "bytes32"
        }
      ],
      "name": "DeliveredNullArbitration",
      "type": "event"
    },
    {
      "anonymous": false,
      "inputs": [
        {
          "indexed": false,
          "internalType": "address",
          "name": "child",
          "type": "address"
        }
      ],
      "name": "DeployedChild",
      "type": "event"
    },
    {
      "anonymous": false,
      "inputs": [],
      "name": "IngestedData",
      "type": "event"
    },
    {
      "anonymous": false,
      "inputs": [
        {
          "indexed": false,
          "internalType": "address",
          "name": "solver",
          "type": "address"
        },
        {
          "indexed": false,
          "internalType": "uint256",
          "name": "solveIndex",
          "type": "uint256"
        }
      ],
      "name": "PreparedSolve",
      "type": "event"
    },
    {
      "inputs": [
        {
          "internalType": "bytes32",
          "name": "_slot",
          "type": "bytes32"
        },
        {
          "internalType": "bytes",
          "name": "_data",
          "type": "bytes"
        }
      ],
      "name": "addData",
      "outputs": [],
      "stateMutability": "nonpayable",
      "type": "function"
    },
    {
      "inputs": [
        {
          "internalType": "uint256",
          "name": "_index",
          "type": "uint256"
        }
      ],
      "name": "addressFromChainIndex",
      "outputs": [
        {
          "internalType": "address",
          "name": "_address",
          "type": "address"
        }
      ],
      "stateMutability": "view",
      "type": "function"
    },
    {
      "inputs": [
        {
          "internalType": "uint256",
          "name": "_index",
          "type": "uint256"
        }
      ],
      "name": "allocationsValid",
      "outputs": [
        {
          "internalType": "bool",
          "name": "",
          "type": "bool"
        }
      ],
      "stateMutability": "view",
      "type": "function"
    },
    {
      "inputs": [
        {
          "internalType": "uint256",
          "name": "_index",
          "type": "uint256"
        },
        {
          "internalType": "uint256[]",
          "name": "payouts",
          "type": "uint256[]"
        }
      ],
      "name": "arbitrate",
      "outputs": [],
      "stateMutability": "nonpayable",
      "type": "function"
    },
    {
      "inputs": [
        {
          "internalType": "uint256",
          "name": "_index",
          "type": "uint256"
        }
      ],
      "name": "arbitrateNull",
      "outputs": [],
      "stateMutability": "nonpayable",
      "type": "function"
    },
    {
      "inputs": [
        {
          "internalType": "uint256",
          "name": "_index",
          "type": "uint256"
        }
      ],
      "name": "arbitrationPending",
      "outputs": [],
      "stateMutability": "nonpayable",
      "type": "function"
    },
    {
      "inputs": [
        {
          "internalType": "uint256",
          "name": "_index",
          "type": "uint256"
        }
      ],
      "name": "arbitrationRequested",
      "outputs": [],
      "stateMutability": "nonpayable",
      "type": "function"
    },
    {
      "inputs": [],
      "name": "arbitrator",
      "outputs": [
        {
          "internalType": "address",
          "name": "",
          "type": "address"
        }
      ],
      "stateMutability": "view",
      "type": "function"
    },
    {
      "inputs": [],
      "name": "chainChild",
      "outputs": [
        {
          "internalType": "address",
          "name": "",
          "type": "address"
        }
      ],
      "stateMutability": "view",
      "type": "function"
    },
    {
      "inputs": [],
      "name": "chainIndex",
      "outputs": [
        {
          "internalType": "uint256",
          "name": "",
          "type": "uint256"
        }
      ],
      "stateMutability": "view",
      "type": "function"
    },
    {
      "inputs": [],
      "name": "chainParent",
      "outputs": [
        {
          "internalType": "address",
          "name": "",
          "type": "address"
        }
      ],
      "stateMutability": "view",
      "type": "function"
    },
    {
      "inputs": [],
      "name": "collateralBalance",
      "outputs": [
        {
          "internalType": "uint256",
          "name": "balance",
          "type": "uint256"
        }
      ],
      "stateMutability": "view",
      "type": "function"
    },
    {
      "inputs": [
        {
          "internalType": "uint256",
          "name": "",
          "type": "uint256"
        }
      ],
      "name": "conditions",
      "outputs": [
        {
          "internalType": "contract IERC20",
          "name": "collateralToken",
          "type": "address"
        },
        {
          "internalType": "bytes32",
          "name": "questionId",
          "type": "bytes32"
        },
        {
          "internalType": "bytes32",
          "name": "parentCollectionId",
          "type": "bytes32"
        },
        {
          "internalType": "bytes32",
          "name": "conditionId",
          "type": "bytes32"
        },
        {
          "internalType": "enum SolverLib.Status",
          "name": "status",
          "type": "uint8"
        }
      ],
      "stateMutability": "view",
      "type": "function"
    },
    {
      "inputs": [],
      "name": "config",
      "outputs": [
        {
          "internalType": "contract Solver",
          "name": "implementation",
          "type": "address"
        },
        {
          "internalType": "address",
          "name": "keeper",
          "type": "address"
        },
        {
          "internalType": "address",
          "name": "arbitrator",
          "type": "address"
        },
        {
          "internalType": "uint256",
          "name": "timelockSeconds",
          "type": "uint256"
        },
        {
          "internalType": "bytes",
          "name": "data",
          "type": "bytes"
        },
        {
          "components": [
            {
              "internalType": "contract IERC20",
              "name": "collateralToken",
              "type": "address"
            },
            {
              "internalType": "uint256",
              "name": "outcomeSlots",
              "type": "uint256"
            },
            {
              "internalType": "uint256",
              "name": "parentCollectionIndexSet",
              "type": "uint256"
            },
            {
              "internalType": "bytes32",
              "name": "amountSlot",
              "type": "bytes32"
            },
            {
              "internalType": "uint256[]",
              "name": "partition",
              "type": "uint256[]"
            },
            {
              "components": [
                {
                  "internalType": "bytes32",
                  "name": "recipientAddressSlot",
                  "type": "bytes32"
                },
                {
                  "internalType": "bytes32[]",
                  "name": "recipientAmountSlots",
                  "type": "bytes32[]"
                }
              ],
              "internalType": "struct SolverLib.Allocation[]",
              "name": "allocations",
              "type": "tuple[]"
            },
            {
              "components": [
                {
                  "internalType": "bytes32",
                  "name": "digest",
                  "type": "bytes32"
                },
                {
                  "internalType": "uint8",
                  "name": "hashFunction",
                  "type": "uint8"
                },
                {
                  "internalType": "uint8",
                  "name": "size",
                  "type": "uint8"
                }
              ],
              "internalType": "struct SolverLib.Multihash[]",
              "name": "outcomeURIs",
              "type": "tuple[]"
            }
          ],
          "internalType": "struct SolverLib.ConditionBase",
          "name": "conditionBase",
          "type": "tuple"
        }
      ],
      "stateMutability": "view",
      "type": "function"
    },
    {
      "inputs": [
        {
          "internalType": "uint256",
          "name": "_index",
          "type": "uint256"
        }
      ],
      "name": "confirmPayouts",
      "outputs": [],
      "stateMutability": "nonpayable",
      "type": "function"
    },
    {
      "inputs": [
        {
          "components": [
            {
              "internalType": "contract Solver",
              "name": "implementation",
              "type": "address"
            },
            {
              "internalType": "address",
              "name": "keeper",
              "type": "address"
            },
            {
              "internalType": "address",
              "name": "arbitrator",
              "type": "address"
            },
            {
              "internalType": "uint256",
              "name": "timelockSeconds",
              "type": "uint256"
            },
            {
              "internalType": "bytes",
              "name": "data",
              "type": "bytes"
            },
            {
              "components": [
                {
                  "internalType": "uint256",
                  "name": "executions",
                  "type": "uint256"
                },
                {
                  "internalType": "enum SolverLib.IngestType",
                  "name": "ingestType",
                  "type": "uint8"
                },
                {
                  "internalType": "bytes32",
                  "name": "slot",
                  "type": "bytes32"
                },
                {
                  "internalType": "uint256",
                  "name": "solverIndex",
                  "type": "uint256"
                },
                {
                  "internalType": "bytes",
                  "name": "data",
                  "type": "bytes"
                }
              ],
              "internalType": "struct SolverLib.Ingest[]",
              "name": "ingests",
              "type": "tuple[]"
            },
            {
              "components": [
                {
                  "internalType": "contract IERC20",
                  "name": "collateralToken",
                  "type": "address"
                },
                {
                  "internalType": "uint256",
                  "name": "outcomeSlots",
                  "type": "uint256"
                },
                {
                  "internalType": "uint256",
                  "name": "parentCollectionIndexSet",
                  "type": "uint256"
                },
                {
                  "internalType": "bytes32",
                  "name": "amountSlot",
                  "type": "bytes32"
                },
                {
                  "internalType": "uint256[]",
                  "name": "partition",
                  "type": "uint256[]"
                },
                {
                  "components": [
                    {
                      "internalType": "bytes32",
                      "name": "recipientAddressSlot",
                      "type": "bytes32"
                    },
                    {
                      "internalType": "bytes32[]",
                      "name": "recipientAmountSlots",
                      "type": "bytes32[]"
                    }
                  ],
                  "internalType": "struct SolverLib.Allocation[]",
                  "name": "allocations",
                  "type": "tuple[]"
                },
                {
                  "components": [
                    {
                      "internalType": "bytes32",
                      "name": "digest",
                      "type": "bytes32"
                    },
                    {
                      "internalType": "uint8",
                      "name": "hashFunction",
                      "type": "uint8"
                    },
                    {
                      "internalType": "uint8",
                      "name": "size",
                      "type": "uint8"
                    }
                  ],
                  "internalType": "struct SolverLib.Multihash[]",
                  "name": "outcomeURIs",
                  "type": "tuple[]"
                }
              ],
              "internalType": "struct SolverLib.ConditionBase",
              "name": "conditionBase",
              "type": "tuple"
            }
          ],
          "internalType": "struct SolverLib.Config",
          "name": "_config",
          "type": "tuple"
        }
      ],
      "name": "deployChild",
      "outputs": [
        {
          "internalType": "address",
          "name": "",
          "type": "address"
        }
      ],
      "stateMutability": "nonpayable",
      "type": "function"
    },
    {
      "inputs": [
        {
          "internalType": "uint256",
          "name": "_index",
          "type": "uint256"
        }
      ],
      "name": "executeSolve",
      "outputs": [],
      "stateMutability": "nonpayable",
      "type": "function"
    },
    {
      "inputs": [
        {
          "internalType": "bytes32",
          "name": "_slot",
          "type": "bytes32"
        }
      ],
      "name": "getAllData",
      "outputs": [
        {
          "internalType": "bytes[]",
          "name": "data",
          "type": "bytes[]"
        }
      ],
      "stateMutability": "view",
      "type": "function"
    },
    {
      "inputs": [
        {
          "internalType": "bytes32",
          "name": "_slot",
          "type": "bytes32"
        }
      ],
      "name": "getCallbackOutput",
      "outputs": [
        {
          "internalType": "bytes",
          "name": "data",
          "type": "bytes"
        }
      ],
      "stateMutability": "view",
      "type": "function"
    },
    {
      "inputs": [],
      "name": "getConditions",
      "outputs": [
        {
          "components": [
            {
              "internalType": "contract IERC20",
              "name": "collateralToken",
              "type": "address"
            },
            {
              "internalType": "bytes32",
              "name": "questionId",
              "type": "bytes32"
            },
            {
              "internalType": "bytes32",
              "name": "parentCollectionId",
              "type": "bytes32"
            },
            {
              "internalType": "bytes32",
              "name": "conditionId",
              "type": "bytes32"
            },
            {
              "internalType": "uint256[]",
              "name": "payouts",
              "type": "uint256[]"
            },
            {
              "internalType": "enum SolverLib.Status",
              "name": "status",
              "type": "uint8"
            }
          ],
          "internalType": "struct SolverLib.Condition[]",
          "name": "",
          "type": "tuple[]"
        }
      ],
      "stateMutability": "view",
      "type": "function"
    },
    {
      "inputs": [],
      "name": "getConfig",
      "outputs": [
        {
          "components": [
            {
              "internalType": "contract Solver",
              "name": "implementation",
              "type": "address"
            },
            {
              "internalType": "address",
              "name": "keeper",
              "type": "address"
            },
            {
              "internalType": "address",
              "name": "arbitrator",
              "type": "address"
            },
            {
              "internalType": "uint256",
              "name": "timelockSeconds",
              "type": "uint256"
            },
            {
              "internalType": "bytes",
              "name": "data",
              "type": "bytes"
            },
            {
              "components": [
                {
                  "internalType": "uint256",
                  "name": "executions",
                  "type": "uint256"
                },
                {
                  "internalType": "enum SolverLib.IngestType",
                  "name": "ingestType",
                  "type": "uint8"
                },
                {
                  "internalType": "bytes32",
                  "name": "slot",
                  "type": "bytes32"
                },
                {
                  "internalType": "uint256",
                  "name": "solverIndex",
                  "type": "uint256"
                },
                {
                  "internalType": "bytes",
                  "name": "data",
                  "type": "bytes"
                }
              ],
              "internalType": "struct SolverLib.Ingest[]",
              "name": "ingests",
              "type": "tuple[]"
            },
            {
              "components": [
                {
                  "internalType": "contract IERC20",
                  "name": "collateralToken",
                  "type": "address"
                },
                {
                  "internalType": "uint256",
                  "name": "outcomeSlots",
                  "type": "uint256"
                },
                {
                  "internalType": "uint256",
                  "name": "parentCollectionIndexSet",
                  "type": "uint256"
                },
                {
                  "internalType": "bytes32",
                  "name": "amountSlot",
                  "type": "bytes32"
                },
                {
                  "internalType": "uint256[]",
                  "name": "partition",
                  "type": "uint256[]"
                },
                {
                  "components": [
                    {
                      "internalType": "bytes32",
                      "name": "recipientAddressSlot",
                      "type": "bytes32"
                    },
                    {
                      "internalType": "bytes32[]",
                      "name": "recipientAmountSlots",
                      "type": "bytes32[]"
                    }
                  ],
                  "internalType": "struct SolverLib.Allocation[]",
                  "name": "allocations",
                  "type": "tuple[]"
                },
                {
                  "components": [
                    {
                      "internalType": "bytes32",
                      "name": "digest",
                      "type": "bytes32"
                    },
                    {
                      "internalType": "uint8",
                      "name": "hashFunction",
                      "type": "uint8"
                    },
                    {
                      "internalType": "uint8",
                      "name": "size",
                      "type": "uint8"
                    }
                  ],
                  "internalType": "struct SolverLib.Multihash[]",
                  "name": "outcomeURIs",
                  "type": "tuple[]"
                }
              ],
              "internalType": "struct SolverLib.ConditionBase",
              "name": "conditionBase",
              "type": "tuple"
            }
          ],
          "internalType": "struct SolverLib.Config",
          "name": "",
          "type": "tuple"
        }
      ],
      "stateMutability": "view",
      "type": "function"
    },
    {
      "inputs": [
        {
          "internalType": "bytes32",
          "name": "_slot",
          "type": "bytes32"
        }
      ],
      "name": "getData",
      "outputs": [
        {
          "internalType": "bytes",
          "name": "data",
          "type": "bytes"
        }
      ],
      "stateMutability": "view",
      "type": "function"
    },
    {
      "inputs": [
        {
          "internalType": "bytes32",
          "name": "slot",
          "type": "bytes32"
        }
      ],
      "name": "getOutgoingCallbacks",
      "outputs": [
        {
          "internalType": "address[]",
          "name": "",
          "type": "address[]"
        }
      ],
      "stateMutability": "view",
      "type": "function"
    },
    {
      "inputs": [
        {
          "internalType": "bytes32",
          "name": "_slot",
          "type": "bytes32"
        }
      ],
      "name": "handleCallback",
      "outputs": [],
      "stateMutability": "nonpayable",
      "type": "function"
    },
    {
      "inputs": [],
      "name": "ingestsValid",
      "outputs": [
        {
          "internalType": "bool",
          "name": "",
          "type": "bool"
        }
      ],
      "stateMutability": "view",
      "type": "function"
    },
    {
      "inputs": [
        {
          "internalType": "address",
          "name": "_deployer",
          "type": "address"
        },
        {
          "internalType": "address",
          "name": "_ctfAddress",
          "type": "address"
        },
        {
          "internalType": "address",
          "name": "_chainParent",
          "type": "address"
        },
        {
          "internalType": "uint256",
          "name": "_chainIndex",
          "type": "uint256"
        },
        {
          "components": [
            {
              "internalType": "contract Solver",
              "name": "implementation",
              "type": "address"
            },
            {
              "internalType": "address",
              "name": "keeper",
              "type": "address"
            },
            {
              "internalType": "address",
              "name": "arbitrator",
              "type": "address"
            },
            {
              "internalType": "uint256",
              "name": "timelockSeconds",
              "type": "uint256"
            },
            {
              "internalType": "bytes",
              "name": "data",
              "type": "bytes"
            },
            {
              "components": [
                {
                  "internalType": "uint256",
                  "name": "executions",
                  "type": "uint256"
                },
                {
                  "internalType": "enum SolverLib.IngestType",
                  "name": "ingestType",
                  "type": "uint8"
                },
                {
                  "internalType": "bytes32",
                  "name": "slot",
                  "type": "bytes32"
                },
                {
                  "internalType": "uint256",
                  "name": "solverIndex",
                  "type": "uint256"
                },
                {
                  "internalType": "bytes",
                  "name": "data",
                  "type": "bytes"
                }
              ],
              "internalType": "struct SolverLib.Ingest[]",
              "name": "ingests",
              "type": "tuple[]"
            },
            {
              "components": [
                {
                  "internalType": "contract IERC20",
                  "name": "collateralToken",
                  "type": "address"
                },
                {
                  "internalType": "uint256",
                  "name": "outcomeSlots",
                  "type": "uint256"
                },
                {
                  "internalType": "uint256",
                  "name": "parentCollectionIndexSet",
                  "type": "uint256"
                },
                {
                  "internalType": "bytes32",
                  "name": "amountSlot",
                  "type": "bytes32"
                },
                {
                  "internalType": "uint256[]",
                  "name": "partition",
                  "type": "uint256[]"
                },
                {
                  "components": [
                    {
                      "internalType": "bytes32",
                      "name": "recipientAddressSlot",
                      "type": "bytes32"
                    },
                    {
                      "internalType": "bytes32[]",
                      "name": "recipientAmountSlots",
                      "type": "bytes32[]"
                    }
                  ],
                  "internalType": "struct SolverLib.Allocation[]",
                  "name": "allocations",
                  "type": "tuple[]"
                },
                {
                  "components": [
                    {
                      "internalType": "bytes32",
                      "name": "digest",
                      "type": "bytes32"
                    },
                    {
                      "internalType": "uint8",
                      "name": "hashFunction",
                      "type": "uint8"
                    },
                    {
                      "internalType": "uint8",
                      "name": "size",
                      "type": "uint8"
                    }
                  ],
                  "internalType": "struct SolverLib.Multihash[]",
                  "name": "outcomeURIs",
                  "type": "tuple[]"
                }
              ],
              "internalType": "struct SolverLib.ConditionBase",
              "name": "conditionBase",
              "type": "tuple"
            }
          ],
          "internalType": "struct SolverLib.Config",
          "name": "_solverConfig",
          "type": "tuple"
        }
      ],
      "name": "init",
      "outputs": [],
      "stateMutability": "nonpayable",
      "type": "function"
    },
    {
      "inputs": [
        {
          "internalType": "address",
          "name": "operator",
          "type": "address"
        },
        {
          "internalType": "address",
          "name": "from",
          "type": "address"
        },
        {
          "internalType": "uint256[]",
          "name": "ids",
          "type": "uint256[]"
        },
        {
          "internalType": "uint256[]",
          "name": "values",
          "type": "uint256[]"
        },
        {
          "internalType": "bytes",
          "name": "data",
          "type": "bytes"
        }
      ],
      "name": "onERC1155BatchReceived",
      "outputs": [
        {
          "internalType": "bytes4",
          "name": "",
          "type": "bytes4"
        }
      ],
      "stateMutability": "nonpayable",
      "type": "function"
    },
    {
      "inputs": [
        {
          "internalType": "address",
          "name": "operator",
          "type": "address"
        },
        {
          "internalType": "address",
          "name": "from",
          "type": "address"
        },
        {
          "internalType": "uint256",
          "name": "id",
          "type": "uint256"
        },
        {
          "internalType": "uint256",
          "name": "value",
          "type": "uint256"
        },
        {
          "internalType": "bytes",
          "name": "data",
          "type": "bytes"
        }
      ],
      "name": "onERC1155Received",
      "outputs": [
        {
          "internalType": "bytes4",
          "name": "",
          "type": "bytes4"
        }
      ],
      "stateMutability": "nonpayable",
      "type": "function"
    },
    {
      "inputs": [
        {
          "internalType": "uint256",
          "name": "_index",
          "type": "uint256"
        }
      ],
      "name": "prepareSolve",
      "outputs": [],
      "stateMutability": "nonpayable",
      "type": "function"
    },
    {
      "inputs": [
        {
          "internalType": "uint256",
          "name": "_index",
          "type": "uint256"
        },
        {
          "internalType": "uint256[]",
          "name": "_payouts",
          "type": "uint256[]"
        }
      ],
      "name": "proposePayouts",
      "outputs": [],
      "stateMutability": "nonpayable",
      "type": "function"
    },
    {
      "inputs": [
        {
          "internalType": "contract IERC20",
          "name": "_collateralToken",
          "type": "address"
        },
        {
          "internalType": "bytes32",
          "name": "_parentCollectionId",
          "type": "bytes32"
        },
        {
          "internalType": "bytes32",
          "name": "_conditionId",
          "type": "bytes32"
        },
        {
          "internalType": "uint256[]",
          "name": "_indexSets",
          "type": "uint256[]"
        }
      ],
      "name": "redeemPosition",
      "outputs": [],
      "stateMutability": "nonpayable",
      "type": "function"
    },
    {
      "inputs": [
        {
          "internalType": "bytes32",
          "name": "_slot",
          "type": "bytes32"
        },
        {
          "internalType": "uint256",
          "name": "_chainIndex",
          "type": "uint256"
        }
      ],
      "name": "registerOutgoingCallback",
      "outputs": [],
      "stateMutability": "nonpayable",
      "type": "function"
    },
    {
      "inputs": [
        {
          "internalType": "bytes32",
          "name": "_trackingId",
          "type": "bytes32"
        }
      ],
      "name": "setTrackingId",
      "outputs": [],
      "stateMutability": "nonpayable",
      "type": "function"
    },
    {
      "inputs": [
        {
          "internalType": "bytes4",
          "name": "interfaceId",
          "type": "bytes4"
        }
      ],
      "name": "supportsInterface",
      "outputs": [
        {
          "internalType": "bool",
          "name": "",
          "type": "bool"
        }
      ],
      "stateMutability": "view",
      "type": "function"
    },
    {
      "inputs": [
        {
          "internalType": "uint256",
          "name": "",
          "type": "uint256"
        }
      ],
      "name": "timelocks",
      "outputs": [
        {
          "internalType": "uint256",
          "name": "",
          "type": "uint256"
        }
      ],
      "stateMutability": "view",
      "type": "function"
    },
    {
      "inputs": [],
      "name": "trackingId",
      "outputs": [
        {
          "internalType": "bytes32",
          "name": "",
          "type": "bytes32"
        }
      ],
      "stateMutability": "view",
      "type": "function"
    }
  ],
  "bytecode": "0x608060405234801561001057600080fd5b5061568d80620000216000396000f3fe608060405234801561001057600080fd5b50600436106101ac5760003560e01c806301ffc9a7146101b157806307c068b6146101da5780630944e26e146101ef578063098b37f71461020f5780630d06101a1461022f5780630d7e149f146102425780630d8d397514610262578063187825591461027557806326c50007146102885780633837b05e146102ac5780633f4fb5aa146102bf57806344c3b607146102df57806348cbb2fc146102f25780634a77234e146102fa5780634dab5e691461030d5780634e46f2231461032057806354f6127f1461033357806355dd978b146103465780636cc6cde11461034e57806379502c55146103565780637c1236271461037057806380b204b71461038557806380c2dde2146103985780638602ce1b146103a057806387dfee57146103b35780638bc3a08f146103c657806399992506146103d9578063b992db0f146103e1578063bc197c81146103f4578063c08d6f0114610414578063c3f909d414610434578063c98c05b714610449578063de3a23c514610451578063df33cc5114610464578063ea8221a914610477578063f23a6e611461047f575b600080fd5b6101c46101bf3660046135c5565b610492565b6040516101d1919061433e565b60405180910390f35b6101ed6101e83660046134f6565b6104bf565b005b6102026101fd366004613784565b610608565b6040516101d19190613ea9565b61022261021d3660046134f6565b610725565b6040516101d191906140df565b6101ed61023d3660046134f6565b610791565b6102556102503660046134f6565b6107cd565b6040516101d19190614349565b6101ed6102703660046134f6565b6107ee565b6101ed61028336600461365f565b610958565b61029b6102963660046134f6565b6109f2565b6040516101d19594939291906143c1565b6102026102ba3660046134f6565b610a40565b6102d26102cd3660046134f6565b610b6e565b6040516101d19190614375565b6101c46102ed3660046134f6565b610c6a565b610255610cfa565b6101ed6103083660046134f6565b610d00565b6101ed61031b3660046134f6565b610fd9565b6101ed61032e3660046134f6565b6110b3565b6102d26103413660046134f6565b61118d565b6102026111ad565b6102026111bc565b61035e6111cb565b6040516101d1969594939291906143f3565b610378611456565b6040516101d1919061418c565b6101ed6103933660046137be565b611585565b6102026116ec565b6101ed6103ae366004613526565b6116fb565b6101ed6103c1366004613807565b6117d0565b6101ed6103d4366004613327565b611989565b6101c4611b2a565b6101ed6103ef3660046134f6565b611bbe565b6104076104023660046133a3565b611d9e565b6040516101d19190614360565b6104276104223660046134f6565b611db2565b6040516101d1919061412c565b61043c611e97565b6040516101d1919061492a565b6102556122b0565b6101ed61045f3660046134f6565b612331565b6101ed6104723660046135a4565b6126a3565b6102556127ae565b61040761048d36600461345d565b6127b4565b60006001600160e01b03198216630271189760e51b14806104b757506104b7826127c7565b90505b919050565b6005546001600160a01b031633146104f25760405162461bcd60e51b81526004016104e990614723565b60405180910390fd5b60036010828154811061051557634e487b7160e01b600052603260045260246000fd5b600091825260209091206006918202016005015460ff169081111561054a57634e487b7160e01b600052602160045260246000fd5b146105675760405162461bcd60e51b81526004016104e990614678565b73__$94d7d2f22770e4b0d1a2b99fb2812308e2$__63ec7ac2f0601083815481106105a257634e487b7160e01b600052603260045260246000fd5b90600052602060002090600602016040518263ffffffff1660e01b81526004016105cc9190614349565b60006040518083038186803b1580156105e457600080fd5b505af41580156105f8573d6000803e3d6000fd5b50505050610605816127e0565b50565b6004546000906001600160a01b031633146106355760405162461bcd60e51b81526004016104e990614869565b6012546001600160a01b03161561065e5760405162461bcd60e51b81526004016104e9906144ce565b6000546013546015546040516386a2d22760e01b815273__$94d7d2f22770e4b0d1a2b99fb2812308e2$__936386a2d227936106b093620100009092046001600160a01b031692889290600401613fe9565b60206040518083038186803b1580156106c857600080fd5b505af41580156106dc573d6000803e3d6000fd5b505050506040513d601f19601f82011682018060405250810190610700919061330b565b601280546001600160a01b0319166001600160a01b0392831617908190551692915050565b60008181526018602090815260409182902080548351818402810184019094528084526060939283018282801561078557602002820191906000526020600020905b81546001600160a01b03168152600190910190602001808311610767575b50505050509050919050565b601554156107b15760405162461bcd60e51b81526004016104e9906148ba565b6002546001600160a01b031633146107c857600080fd5b601555565b601481815481106107dd57600080fd5b600091825260209091200154905081565b6014818154811061080f57634e487b7160e01b600052603260045260246000fd5b906000526020600020015442116108385760405162461bcd60e51b81526004016104e9906145f4565b60026010828154811061085b57634e487b7160e01b600052603260045260246000fd5b600091825260209091206006918202016005015460ff169081111561089057634e487b7160e01b600052602160045260246000fd5b146108ad5760405162461bcd60e51b81526004016104e990614774565b6001546010805473__$94d7d2f22770e4b0d1a2b99fb2812308e2$__926385c92867926001600160a01b0390911691859081106108fa57634e487b7160e01b600052603260045260246000fd5b90600052602060002090600602016040518363ffffffff1660e01b8152600401610925929190613f73565b60006040518083038186803b15801561093d57600080fd5b505af4158015610951573d6000803e3d6000fd5b5050505050565b6004546001600160a01b031633146109825760405162461bcd60e51b81526004016104e9906145cf565b600154604051626dc0df60e21b81526001600160a01b03909116906301b7037c906109b99088908890889088908890600401614388565b600060405180830381600087803b1580156109d357600080fd5b505af11580156109e7573d6000803e3d6000fd5b505050505050505050565b60108181548110610a0257600080fd5b6000918252602090912060069091020180546001820154600283015460038401546005909401546001600160a01b0390931694509092909160ff1685565b6000601354821415610a535750306104ba565b601354821015610ae457601154604051631c1bd82f60e11b81526001600160a01b0390911690633837b05e90610a8d908590600401614349565b60206040518083038186803b158015610aa557600080fd5b505afa158015610ab9573d6000803e3d6000fd5b505050506040513d601f19601f82011682018060405250810190610add919061330b565b90506104ba565b6013548211156104ba57601254604051631c1bd82f60e11b81526001600160a01b0390911690633837b05e90610b1e908590600401614349565b60206040518083038186803b158015610b3657600080fd5b505afa158015610b4a573d6000803e3d6000fd5b505050506040513d601f19601f820116820180604052508101906104b7919061330b565b6010546000828152601a602052604090205460609114610ba05760405162461bcd60e51b81526004016104e9906146f8565b6000828152601a602052604090208054610bbc90600190614d94565b81548110610bda57634e487b7160e01b600052603260045260246000fd5b906000526020600020018054610bef906150b8565b80601f0160208091040260200160405190810160405280929190818152602001828054610c1b906150b8565b80156107855780601f10610c3d57610100808354040283529160200191610785565b820191906000526020600020905b815481529060010190602001808311610c4b5750939695505050505050565b6040516336d39c6160e11b815260009073__$94d7d2f22770e4b0d1a2b99fb2812308e2$__90636da738c290610caa908590601a90600990600401614a04565b60206040518083038186803b158015610cc257600080fd5b505af4158015610cd6573d6000803e3d6000fd5b505050506040513d601f19601f820116820180604052508101906104b791906134d6565b60155481565b60105415610d47576004546001600160a01b0316331480610d2b57506011546001600160a01b031633145b610d475760405162461bcd60e51b81526004016104e99061488e565b6010548114610d685760405162461bcd60e51b81526004016104e99061459d565b60175415610d885760405162461bcd60e51b81526004016104e9906147cf565b60165415610da85760405162461bcd60e51b81526004016104e990614804565b6001546011546010805460405163699e0add60e01b8152919373__$94d7d2f22770e4b0d1a2b99fb2812308e2$__9363699e0add93610dfa936001600160a01b03938416936009931691600401613ebd565b60006040518083038186803b158015610e1257600080fd5b505af4158015610e26573d6000803e3d6000fd5b505050506040513d6000823e601f3d908101601f19168201604052610e4e91908101906136c6565b8154600180820184556000938452602093849020835160069093020180546001600160a01b0319166001600160a01b03909316929092178255828401519082015560408201516002820155606082015160038201556080820151805192939192610ebe9260048501920190613040565b5060a082015160058201805460ff19166001836006811115610ef057634e487b7160e01b600052602160045260246000fd5b0217905550506014805460018101825560009182527fce6d7b5282bd9a3661ae061feed1dbda4e52ab073b1f9285be6e155d9c38d4ec015550610f31612828565b7f152ec8ae15d347b2d2a8f0858caa29bcaaa0906749a1f43e08bfe799834602403082604051610f62929190613f73565b60405180910390a16012546001600160a01b0316156106055760125460405163253b91a760e11b81526001600160a01b0390911690634a77234e90610fab908490600401614349565b600060405180830381600087803b158015610fc557600080fd5b505af1158015610951573d6000803e3d6000fd5b6005546001600160a01b031633146110035760405162461bcd60e51b81526004016104e990614723565b60026010828154811061102657634e487b7160e01b600052603260045260246000fd5b600091825260209091206006918202016005015460ff169081111561105b57634e487b7160e01b600052602160045260246000fd5b146110785760405162461bcd60e51b81526004016104e9906147a2565b73__$94d7d2f22770e4b0d1a2b99fb2812308e2$__6324b28602601083815481106105a257634e487b7160e01b600052603260045260246000fd5b6005546001600160a01b031633146110dd5760405162461bcd60e51b81526004016104e990614723565b60046010828154811061110057634e487b7160e01b600052603260045260246000fd5b600091825260209091206006918202016005015460ff169081111561113557634e487b7160e01b600052602160045260246000fd5b146111525760405162461bcd60e51b81526004016104e990614839565b73__$94d7d2f22770e4b0d1a2b99fb2812308e2$__6359111fb5601083815481106105a257634e487b7160e01b600052603260045260246000fd5b6000818152601a60205260409020805460609190610bbc90600190614d94565b6012546001600160a01b031681565b6005546001600160a01b031690565b60038054600454600554600654600780546001600160a01b0395861696948616959093169391926111fb906150b8565b80601f0160208091040260200160405190810160405280929190818152602001828054611227906150b8565b80156112745780601f1061124957610100808354040283529160200191611274565b820191906000526020600020905b81548152906001019060200180831161125757829003601f168201915b50506040805160e0810182526006870180546001600160a01b03168252600788015460208084019190915260088901548385015260098901546060840152600a8901805485518184028101840190965280865298999893975091955060808701945090919083018282801561130857602002820191906000526020600020905b8154815260200190600101908083116112f4575b5050505050815260200160058201805480602002602001604051908101604052809291908181526020016000905b828210156113ca578382906000526020600020906002020160405180604001604052908160008201548152602001600182018054806020026020016040519081016040528092919081815260200182805480156113b257602002820191906000526020600020905b81548152602001906001019080831161139e575b50505050508152505081526020019060010190611336565b50505050815260200160068201805480602002602001604051908101604052809291908181526020016000905b8282101561144957600084815260209081902060408051606081018252600286029092018054835260019081015460ff80821685870152610100909104169183019190915290835290920191016113f7565b5050505081525050905086565b60606010805480602002602001604051908101604052809291908181526020016000905b8282101561157c5760008481526020908190206040805160c0810182526006860290920180546001600160a01b03168352600181015483850152600281015483830152600381015460608401526004810180548351818702810187019094528084529394919360808601939283018282801561151557602002820191906000526020600020905b815481526020019060010190808311611501575b5050509183525050600582015460209091019060ff16600681111561154a57634e487b7160e01b600052602160045260246000fd5b600681111561156957634e487b7160e01b600052602160045260246000fd5b815250508152602001906001019061147a565b50505050905090565b6004546001600160a01b031633146115af5760405162461bcd60e51b81526004016104e9906145cf565b600a5481146115d05760405162461bcd60e51b81526004016104e9906144f8565b6001601084815481106115f357634e487b7160e01b600052603260045260246000fd5b600091825260209091206006918202016005015460ff169081111561162857634e487b7160e01b600052602160045260246000fd5b146116455760405162461bcd60e51b81526004016104e99061453e565b73__$94d7d2f22770e4b0d1a2b99fb2812308e2$__636a0a24f16010858154811061168057634e487b7160e01b600052603260045260246000fd5b906000526020600020906006020184846040518463ffffffff1660e01b81526004016116ae93929190614910565b60006040518083038186803b1580156116c657600080fd5b505af41580156116da573d6000803e3d6000fd5b505050506116e7836127e0565b505050565b6011546001600160a01b031681565b6004546001600160a01b031633146117255760405162461bcd60e51b81526004016104e99061447d565b6000828152601b60205260409020546008805460039290811061175857634e487b7160e01b600052603260045260246000fd5b600091825260209091206001600590920201015460ff16600381111561178e57634e487b7160e01b600052602160045260246000fd5b146117ab5760405162461bcd60e51b81526004016104e99061444d565b6117b58282612af2565b60405160008051602061563883398151915290600090a15050565b6005546001600160a01b031633146117fa5760405162461bcd60e51b81526004016104e990614723565b60046010838154811061181d57634e487b7160e01b600052603260045260246000fd5b600091825260209091206006918202016005015460ff169081111561185257634e487b7160e01b600052602160045260246000fd5b1461186f5760405162461bcd60e51b81526004016104e990614839565b6014828154811061189057634e487b7160e01b600052603260045260246000fd5b906000526020600020015442116118b95760405162461bcd60e51b81526004016104e9906145f4565b600a548151146118db5760405162461bcd60e51b81526004016104e9906144f8565b6001546010805473__$94d7d2f22770e4b0d1a2b99fb2812308e2$__92631b948e49926001600160a01b03909116918690811061192857634e487b7160e01b600052603260045260246000fd5b9060005260206000209060060201846040518463ffffffff1660e01b815260040161195593929190613f8c565b60006040518083038186803b15801561196d57600080fd5b505af4158015611981573d6000803e3d6000fd5b505050505050565b600054610100900460ff16806119a2575060005460ff16155b6119be5760405162461bcd60e51b81526004016104e9906146aa565b600054610100900460ff161580156119e9576000805460ff1961ff0019909116610100171660011790555b60006119fb60408401602085016132e8565b6001600160a01b03161415611a225760405162461bcd60e51b81526004016104e99061474c565b600280546001600160a01b03199081166001600160a01b03898116919091179092556000805462010000600160b01b031916336201000002179055600180548216888416179055601180549091169186169190911790556013839055816003611a8b8282615309565b90505060005b611a9e60a0840184614a60565b9050811015611b105780601b6000611ab960a0870187614a60565b85818110611ad757634e487b7160e01b600052603260045260246000fd5b9050602002810190611ae99190614b34565b60409081013582526020820192909252016000205580611b0881615100565b915050611a91565b508015611981576000805461ff0019169055505050505050565b601054604051635cc1f6b560e01b815260009173__$94d7d2f22770e4b0d1a2b99fb2812308e2$__91635cc1f6b591611b699160089190600401614232565b60206040518083038186803b158015611b8157600080fd5b505af4158015611b95573d6000803e3d6000fd5b505050506040513d601f19601f82011682018060405250810190611bb991906134d6565b905090565b611bc6611b2a565b1515600114611be75760405162461bcd60e51b81526004016104e990614623565b73__$94d7d2f22770e4b0d1a2b99fb2812308e2$__632dd4082482600160009054906101000a90046001600160a01b031660108581548110611c3957634e487b7160e01b600052603260045260246000fd5b60009182526020808320601554601154600c548652601a938490526040909520805460069095029092019460099491926001600160a01b03909116918b908110611c9357634e487b7160e01b600052603260045260246000fd5b906000526020600020018054611ca8906150b8565b80601f0160208091040260200160405190810160405280929190818152602001828054611cd4906150b8565b8015611d215780601f10611cf657610100808354040283529160200191611d21565b820191906000526020600020905b815481529060010190602001808311611d0457829003601f168201915b5050505050806020019051810190611d39919061350e565b6040518963ffffffff1660e01b8152600401611d5c9897969594939291906149c0565b60006040518083038186803b158015611d7457600080fd5b505af4158015611d88573d6000803e3d6000fd5b50505050611d9581610605565b61060581612b69565b63bc197c8160e01b98975050505050505050565b6000818152601a60209081526040808320805482518185028101850190935280835260609492939192909184015b82821015611e8c578382906000526020600020018054611dff906150b8565b80601f0160208091040260200160405190810160405280929190818152602001828054611e2b906150b8565b8015611e785780601f10611e4d57610100808354040283529160200191611e78565b820191906000526020600020905b815481529060010190602001808311611e5b57829003601f168201915b505050505081526020019060010190611de0565b505050509050919050565b611e9f61308b565b6040805160e081018252600380546001600160a01b039081168352600454811660208401526005541692820192909252600654606082015260078054919291608084019190611eed906150b8565b80601f0160208091040260200160405190810160405280929190818152602001828054611f19906150b8565b8015611f665780601f10611f3b57610100808354040283529160200191611f66565b820191906000526020600020905b815481529060010190602001808311611f4957829003601f168201915b5050505050815260200160058201805480602002602001604051908101604052809291908181526020016000905b828210156120cb57838290600052602060002090600502016040518060a0016040529081600082015481526020016001820160009054906101000a900460ff166003811115611ff357634e487b7160e01b600052602160045260246000fd5b600381111561201257634e487b7160e01b600052602160045260246000fd5b8152602001600282015481526020016003820154815260200160048201805461203a906150b8565b80601f0160208091040260200160405190810160405280929190818152602001828054612066906150b8565b80156120b35780601f10612088576101008083540402835291602001916120b3565b820191906000526020600020905b81548152906001019060200180831161209657829003601f168201915b50505050508152505081526020019060010190611f94565b505050908252506040805160e0810182526006840180546001600160a01b03168252600785015460208381019190915260088601548385015260098601546060840152600a86018054855181840281018401909652808652958201959394929360808601939283018282801561216057602002820191906000526020600020905b81548152602001906001019080831161214c575b5050505050815260200160058201805480602002602001604051908101604052809291908181526020016000905b828210156122225783829060005260206000209060020201604051806040016040529081600082015481526020016001820180548060200260200160405190810160405280929190818152602001828054801561220a57602002820191906000526020600020905b8154815260200190600101908083116121f6575b5050505050815250508152602001906001019061218e565b50505050815260200160068201805480602002602001604051908101604052809291908181526020016000905b828210156122a157600084815260209081902060408051606081018252600286029092018054835260019081015460ff808216858701526101009091041691830191909152908352909201910161224f565b50505091525050905250905090565b6009546040516370a0823160e01b81526000916001600160a01b0316906370a08231906122e1903090600401613ea9565b60206040518083038186803b1580156122f957600080fd5b505afa15801561230d573d6000803e3d6000fd5b505050506040513d601f19601f82011682018060405250810190611bb9919061350e565b60003382604051602001612346929190613e8c565b60408051601f19818403018152918152815160209283012060008181526019909352912054600880549293506123ac92909190811061239557634e487b7160e01b600052603260045260246000fd5b906000526020600020906005020160030154610a40565b6001600160a01b0316336001600160a01b0316146123dc5760405162461bcd60e51b81526004016104e99061456e565b60008181526019602052604081205460088054909190811061240e57634e487b7160e01b600052603260045260246000fd5b600091825260209091206001600590920201015460ff16600381111561244457634e487b7160e01b600052602160045260246000fd5b146124615760405162461bcd60e51b81526004016104e9906144a1565b60008181526019602052604090205460088054909190811061249357634e487b7160e01b600052603260045260246000fd5b6000918252602082206005909102018054916124ae83615100565b909155505060008181526019602052604090205460088054612664929081106124e757634e487b7160e01b600052603260045260246000fd5b906000526020600020906005020160020154336001600160a01b0316633f4fb5aa600360050160166003016000878152602001908152602001600020548154811061254257634e487b7160e01b600052603260045260246000fd5b9060005260206000209060050201600401805461255e906150b8565b80601f016020809104026020016040519081016040528092919081815260200182805461258a906150b8565b80156125d75780601f106125ac576101008083540402835291602001916125d7565b820191906000526020600020905b8154815290600101906020018083116125ba57829003601f168201915b50505050508060200190518101906125ef919061350e565b6040518263ffffffff1660e01b815260040161260b9190614349565b60006040518083038186803b15801561262357600080fd5b505afa158015612637573d6000803e3d6000fd5b505050506040513d6000823e601f3d908101601f1916820160405261265f91908101906135ed565b612af2565b60008181526019602052604081208190556016805491612683836150a1565b909155505060405160008051602061563883398151915290600090a15050565b6126ac81610a40565b6001600160a01b0316336001600160a01b0316146126dc5760405162461bcd60e51b81526004016104e99061456e565b6000828152601a60205260409020541580159061270857506010546000838152601a6020526040902054145b156127675760405163de3a23c560e01b8152339063de3a23c590612730908590600401614349565b600060405180830381600087803b15801561274a57600080fd5b505af115801561275e573d6000803e3d6000fd5b505050506127aa565b6000828152601860209081526040822080546001810182559083529082200180546001600160a01b0319163317905560178054916127a483615100565b91905055505b5050565b60135481565b63f23a6e6160e01b5b9695505050505050565b6001600160e01b031981166301ffc9a760e01b14919050565b6006546127ee906001614d75565b6127f89042614d5d565b6014828154811061281957634e487b7160e01b600052603260045260246000fd5b60009182526020909120015550565b60005b600854811015612ad8576000600880548390811061285957634e487b7160e01b600052603260045260246000fd5b600091825260209091206001600590920201015460ff16600381111561288f57634e487b7160e01b600052602160045260246000fd5b146128d3576128ce600360050182815481106128bb57634e487b7160e01b600052603260045260246000fd5b9060005260206000209060050201612cc0565b612ac6565b6000306001600160a01b0316633837b05e6003600501848154811061290857634e487b7160e01b600052603260045260246000fd5b9060005260206000209060050201600301546040518263ffffffff1660e01b81526004016129369190614349565b60206040518083038186803b15801561294e57600080fd5b505afa158015612962573d6000803e3d6000fd5b505050506040513d601f19601f82011682018060405250810190612986919061330b565b90506129928183612db4565b806001600160a01b031663df33cc51600360050184815481106129c557634e487b7160e01b600052603260045260246000fd5b906000526020600020906005020160040180546129e1906150b8565b80601f0160208091040260200160405190810160405280929190818152602001828054612a0d906150b8565b8015612a5a5780601f10612a2f57610100808354040283529160200191612a5a565b820191906000526020600020905b815481529060010190602001808311612a3d57829003601f168201915b5050505050806020019051810190612a72919061350e565b6013546040518363ffffffff1660e01b8152600401612a92929190614352565b600060405180830381600087803b158015612aac57600080fd5b505af1158015612ac0573d6000803e3d6000fd5b50505050505b80612ad081615100565b91505061282b565b5060405160008051602061563883398151915290600090a1565b601054612b0190600190614d94565b6000838152601a602052604090205414612b2d5760405162461bcd60e51b81526004016104e9906148e2565b6000828152601a6020908152604082208054600181018255908352918190208351612b5f9391909101918401906130e8565b506127aa82612ed8565b6012546001600160a01b031615801590612c045750601260009054906101000a90046001600160a01b03166001600160a01b031663999925066040518163ffffffff1660e01b815260040160206040518083038186803b158015612bcc57600080fd5b505afa158015612be0573d6000803e3d6000fd5b505050506040513d601f19601f82011682018060405250810190612c0491906134d6565b8015612c8b57506012546040516344c3b60760e01b81526001600160a01b03909116906344c3b60790612c3b908490600401614349565b60206040518083038186803b158015612c5357600080fd5b505afa158015612c67573d6000803e3d6000fd5b505050506040513d601f19601f82011682018060405250810190612c8b91906134d6565b156106055760125460405163b992db0f60e01b81526001600160a01b039091169063b992db0f90610fab908490600401614349565b600181015460039060ff1681811115612ce957634e487b7160e01b600052602160045260246000fd5b1115612d075760405162461bcd60e51b81526004016104e99061464c565b8054816000612d1583615100565b9091555060039050600182015460ff166003811115612d4457634e487b7160e01b600052602160045260246000fd5b1461060557610605816002015473__$94d7d2f22770e4b0d1a2b99fb2812308e2$__63b3d73707846040518263ffffffff1660e01b8152600401612d889190614349565b60006040518083038186803b158015612da057600080fd5b505af4158015612637573d6000803e3d6000fd5b80601660030160008460036005018581548110612de157634e487b7160e01b600052603260045260246000fd5b90600052602060002090600502016004018054612dfd906150b8565b80601f0160208091040260200160405190810160405280929190818152602001828054612e29906150b8565b8015612e765780601f10612e4b57610100808354040283529160200191612e76565b820191906000526020600020905b815481529060010190602001808311612e5957829003601f168201915b5050505050806020019051810190612e8e919061350e565b604051602001612e9f929190613e8c565b60408051601f1981840301815291815281516020928301208352908201929092520160009081209190915560168054916127a483615100565b60005b6000828152601860205260409020548110156127aa576000828152601860205260408120805483908110612f1f57634e487b7160e01b600052603260045260246000fd5b6000918252602090912001546001600160a01b03161461302e576000828152601860205260409020805482908110612f6757634e487b7160e01b600052603260045260246000fd5b60009182526020909120015460405163de3a23c560e01b81526001600160a01b039091169063de3a23c590612fa0908590600401614349565b600060405180830381600087803b158015612fba57600080fd5b505af1158015612fce573d6000803e3d6000fd5b505050600083815260186020526040902080549091508290811061300257634e487b7160e01b600052603260045260246000fd5b6000918252602082200180546001600160a01b03191690556017805491613028836150a1565b91905055505b8061303881615100565b915050612edb565b82805482825590600052602060002090810192821561307b579160200282015b8281111561307b578251825591602001919060010190613060565b5061308792915061315b565b5090565b6040518060e0016040528060006001600160a01b0316815260200160006001600160a01b0316815260200160006001600160a01b031681526020016000815260200160608152602001606081526020016130e3613170565b905290565b8280546130f4906150b8565b90600052602060002090601f016020900481019282613116576000855561307b565b82601f1061312f57805160ff191683800117855561307b565b8280016001018555821561307b579182018281111561307b578251825591602001919060010190613060565b5b80821115613087576000815560010161315c565b6040518060e0016040528060006001600160a01b031681526020016000815260200160008152602001600080191681526020016060815260200160608152602001606081525090565b80356104ba81615606565b60008083601f8401126131d5578182fd5b5081356001600160401b038111156131eb578182fd5b602083019150836020808302850101111561320557600080fd5b9250929050565b600082601f83011261321c578081fd5b8151602061323161322c83614b72565b614b49565b828152818101908583018385028701840188101561324d578586fd5b855b8581101561326b5781518452928401929084019060010161324f565b5090979650505050505050565b60008083601f840112613289578182fd5b5081356001600160401b0381111561329f578182fd5b60208301915083602082850101111561320557600080fd5b80516104ba81615606565b8051600781106104ba57600080fd5b600060e082840312156132e2578081fd5b50919050565b6000602082840312156132f9578081fd5b813561330481615606565b9392505050565b60006020828403121561331c578081fd5b815161330481615606565b600080600080600060a0868803121561333e578081fd5b853561334981615606565b9450602086013561335981615606565b9350604086013561336981615606565b92506060860135915060808601356001600160401b0381111561338a578182fd5b613396888289016132d1565b9150509295509295909350565b60008060008060008060008060a0898b0312156133be578586fd5b88356133c981615606565b975060208901356133d981615606565b965060408901356001600160401b03808211156133f4578788fd5b6134008c838d016131c4565b909850965060608b0135915080821115613418578485fd5b6134248c838d016131c4565b909650945060808b013591508082111561343c578384fd5b506134498b828c01613278565b999c989b5096995094979396929594505050565b60008060008060008060a08789031215613475578384fd5b863561348081615606565b9550602087013561349081615606565b9450604087013593506060870135925060808701356001600160401b038111156134b8578283fd5b6134c489828a01613278565b979a9699509497509295939492505050565b6000602082840312156134e7578081fd5b81518015158114613304578182fd5b600060208284031215613507578081fd5b5035919050565b60006020828403121561351f578081fd5b5051919050565b60008060408385031215613538578182fd5b8235915060208301356001600160401b03811115613554578182fd5b8301601f81018513613564578182fd5b803561357261322c82614b95565b818152866020838501011115613586578384fd5b81602084016020830137908101602001929092525090939092509050565b600080604083850312156135b6578182fd5b50508035926020909101359150565b6000602082840312156135d6578081fd5b81356001600160e01b031981168114613304578182fd5b6000602082840312156135fe578081fd5b81516001600160401b03811115613613578182fd5b8201601f81018413613623578182fd5b805161363161322c82614b95565b818152856020838501011115613645578384fd5b613656826020830160208601615071565b95945050505050565b600080600080600060808688031215613676578283fd5b853561368181615606565b9450602086013593506040860135925060608601356001600160401b038111156136a9578182fd5b6136b5888289016131c4565b969995985093965092949392505050565b6000602082840312156136d7578081fd5b81516001600160401b03808211156136ed578283fd5b9083019060c08286031215613700578283fd5b60405160c08101818110838211171561371b5761371b61515d565b604052613727836132b7565b8152602083015160208201526040830151604082015260608301516060820152608083015182811115613758578485fd5b6137648782860161320c565b60808301525061377660a084016132c2565b60a082015295945050505050565b600060208284031215613795578081fd5b81356001600160401b038111156137aa578182fd5b6137b6848285016132d1565b949350505050565b6000806000604084860312156137d2578081fd5b8335925060208401356001600160401b038111156137ee578182fd5b6137fa868287016131c4565b9497909650939450505050565b60008060408385031215613819578182fd5b823591506020808401356001600160401b03811115613836578283fd5b8401601f81018613613846578283fd5b803561385461322c82614b72565b81815283810190838501858402850186018a1015613870578687fd5b8694505b83851015613892578035835260019490940193918501918501613874565b5080955050505050509250929050565b6001600160a01b03169052565b81835260006001600160fb1b038311156138c7578081fd5b6020830280836020870137939093016020019283525090919050565b6000815480845260208085018081965082840281019150858552828520855b8581101561396e57828403895281548452604085850181905260018084018054928701839052895286892060608701929091908a905b808210156139555783548552938901939282019290820190613938565b5050509986019950935060029190910190600101613902565b5091979650505050505050565b818352602080840193600091908185020181018584845b8781101561396e5782840389528135609e198836030181126139b2578687fd5b87018035855260a0868201356139c78161561b565b6139d388880182613c57565b50604082810135908701526060808301359087015260806139f681840184614cfb565b93508282890152613a0a8389018583613c01565b9c89019c97505050928601925050600101613992565b6000815180845260208085018081965082840281019150828601855b8581101561396e578284038952815160a08151865286820151613a6188880182613c57565b506040828101519087015260608083015190870152608091820151918601819052613a8e81870183613c2b565b9a87019a9550505090840190600101613a3c565b60008284526020808501945082825b85811015613afb578135875282820135613aca81615628565b60ff9081168885015260409083820135613ae381615628565b16908801526060968701969190910190600101613ab1565b509495945050505050565b6000815180845260208085019450808401835b83811015613afb578151805188528381015160ff908116858a0152604091820151169088015260609096019590820190600101613b19565b6000815480845260208085019450838352808320835b83811015613afb578154875260018083015460ff808216868b015260089190911c16604089015260609097019660029092019101613b67565b6000815180845260208085019450808401835b83811015613afb57815187529582019590820190600101613bb3565b6000815480845260208085019450838352808320835b83811015613afb57815487529582019560019182019101613be5565b60008284528282602086013780602084860101526020601f19601f85011685010190509392505050565b60008151808452613c43816020860160208601615071565b601f01601f19169290920160200192915050565b60048110613c6757613c67615147565b9052565b60078110613c6757613c67615147565b60008135613c8881615606565b6001600160a01b03168352602082810135818501526040808401358186015260608085013590860152613cbe6080850185614c6d565b60e06080880152613cd360e0880182846138af565b915050613ce360a0860186614c6d565b87830360a08901528083528483018582028401860183885b84811015613d5a57868303601f19018452813536879003603e19018112613d20578a8bfd5b860180358452613d328a820182614c6d565b9150898b860152613d468a860183836138af565b958b01959450505090880190600101613cfb565b5050613d6960c08a018a614cb4565b9750955089810360c08b0152613d80818888613aa2565b9a9950505050505050505050565b600060018060a01b038251168352602080830151818501526040808401518186015260608085015181870152608085015160e06080880152613dd360e0880182613ba0565b905060a086015187820360a08901528181518084528684019150868782028501018784019350885b82811015613e6357858203601f190184528451805183528901518983018990528051898401819052908a01908b90898501905b80831015613e4e5783518252928c019260019290920191908c0190613e2e565b50968b0196958b019593505050600101613dfb565b5060c08a015197508a810360c08c0152613e7d8189613b06565b9b9a5050505050505050505050565b60609290921b6001600160601b0319168252601482015260340190565b6001600160a01b0391909116815260200190565b600060018060a01b038616825260806020830152613ee760808301613ee28754614dab565b6138a2565b600185015460a0830152600285015460c0830152600385015460e083015260e0610100830152613f1e610160830160048701613bcf565b607f198084830301610120850152613f3982600589016138e3565b9150808483030161014085015250613f548160068801613b51565b915050613f6460408301856138a2565b82606083015295945050505050565b6001600160a01b03929092168252602082015260400190565b6001600160a01b038416815260208082018490526060604083018190528351908301819052600091848101916080850190845b81811015613fdb57845183529383019391830191600101613fbf565b509098975050505050505050565b6001600160a01b0385168152608060208201526000843561400981615606565b61401660808401826138a2565b50614023602086016131b9565b61403060a08401826138a2565b5061403d604086016131b9565b61404a60c08401826138a2565b50606085013560e08301526140626080860186614cfb565b60e061010085015261407961016085018284613c01565b91505061408960a0870187614c6d565b607f1980868503016101208701526140a284838561397b565b93506140b160c08a018a614d3f565b9250808685030161014087015250506140ca8282613c7b565b60408501969096525050506060015292915050565b6020808252825182820181905260009190848201906040850190845b818110156141205783516001600160a01b0316835292840192918401916001016140fb565b50909695505050505050565b6000602080830181845280855180835260408601915060408482028701019250838701855b8281101561417f57603f1988860301845261416d858351613c2b565b94509285019290850190600101614151565b5092979650505050505050565b60208082528251828201819052600091906040908185019080840286018301878501865b83811015613fdb57888303603f19018552815180516001600160a01b03168452878101518885015286810151878501526060808201519085015260808082015160c0828701819052919061420683880182613ba0565b9250505060a080830151925061421e81870184613c6b565b5095880195935050908601906001016141b0565b60006040808301818452808654808352606086019150602092506060838202870101888652838620865b8381101561432b57605f1989840301855260a082548452600160ff818501541661428889870182613c57565b5060028401548986015260038401546060860152600484018260808701528a81546142b2816150b8565b94880185905260c09481851680156142d157600181146142e557614310565b60ff1983168a88015260e08a019350614310565b848f528c8f208f5b838110156143085781548c82018a0152908701908e016142ed565b8b0188019450505b5050509789019795505050600592909201915060010161425c565b5050929095019590955295945050505050565b901515815260200190565b90815260200190565b918252602082015260400190565b6001600160e01b031991909116815260200190565b6000602082526133046020830184613c2b565b600060018060a01b0387168252856020830152846040830152608060608301526143b66080830184866138af565b979650505050505050565b6001600160a01b038616815260208101859052604081018490526060810183905260a081016127bd6080830184613c6b565b6001600160a01b0387811682528681166020830152851660408201526060810184905260c06080820181905260009061442e90830185613c2b565b82810360a08401526144408185613d8e565b9998505050505050505050565b6020808252601690820152751bdb9b1e48125b99d95cdd151e5c194b93585b9d585b60521b604082015260600190565b6020808252600a908201526927b7363ca5b2b2b832b960b11b604082015260600190565b602080825260139082015272496e67657374206e6f742043616c6c6261636b60681b604082015260600190565b60208082526010908201526f14dbdb1d995c881a185cc818da1a5b1960821b604082015260600190565b60208082526026908201527f7061796f7574732e6c656e677468206d757374206d61746368206f7574636f6d60408201526565536c6f747360d01b606082015260800190565b60208082526016908201527510dbdb991a5d1a5bdb881b9bdd08115e1958dd5d195960521b604082015260600190565b60208082526015908201527436b9b39739b2b73232b9103737ba1039b7b63b32b960591b604082015260600190565b602080825260189082015277496e76616c696420696e64657820746f207072657061726560401b604082015260600190565b6020808252600b908201526a27b7363c9025b2b2b832b960a91b604082015260600190565b602080825260159082015274151a5b595b1bd8dac81cdd1a5b1b081b1bd8dad959605a1b604082015260600190565b6020808252600f908201526e1a5b99d95cdd1cc81a5b9d985b1a59608a1b604082015260600190565b602080825260129082015271496e76616c696420696e676573745479706560701b604082015260600190565b602080825260189082015277139bdd08105c989a5d1c985d1a5bdb94995c5d595cdd195960421b604082015260600190565b6020808252602e908201527f496e697469616c697a61626c653a20636f6e747261637420697320616c72656160408201526d191e481a5b9a5d1a585b1a5e995960921b606082015260800190565b60208082526011908201527029b637ba1034b73b30b634b2103b32b91760791b604082015260600190565b6020808252600f908201526e27b7363c9030b93134ba3930ba37b960891b604082015260600190565b6020808252600e908201526d12d9595c195c881a5b9d985b1a5960921b604082015260600190565b60208082526014908201527313dd5d18dbdb59481b9bdd081c1c9bdc1bdcd95960621b604082015260600190565b602080825260139082015272139bdd0813dd5d18dbdb59541c9bdc1bdcd959606a1b604082015260600190565b6020808252818101527f46756c66696c6c206f7574676f696e672063616c6c6261636b73206669727374604082015260600190565b6020808252818101527f46756c66696c6c20696e636f6d696e672063616c6c6261636b73206669727374604082015260600190565b6020808252601690820152754e6f74204172626974726174696f6e50656e64696e6760501b604082015260600190565b6020808252600b908201526a27b7363c9035b2b2b832b960a91b604082015260600190565b60208082526012908201527113db9b1e481ad9595c195c8bdc185c995b9d60721b604082015260600190565b6020808252600e908201526d151c9858dada5b99d259081cd95d60921b604082015260600190565b60208082526014908201527314db1bdd081d995c9cda5bdb881a5b9d985b1a5960621b604082015260600190565b6000848252604060208301526136566040830184866138af565b60006020825260018060a01b0380845116602084015280602085015116604084015250604083015161495f60608401826138a2565b5060608301516080830152608083015160e060a0840152614984610100840182613c2b565b905060a0840151601f19808584030160c08601526149a28383613a20565b925060c08601519150808584030160e0860152506136568282613d8e565b9788526001600160a01b03968716602089015260408801959095526060870193909352608086019190915260a085015290911660c083015260e08201526101000190565b9283526020830191909152604082015260600190565b6000808335601e19843603018112614a30578283fd5b8301803591506001600160401b03821115614a49578283fd5b602090810192508102360382131561320557600080fd5b6000808335601e19843603018112614a30578182fd5b6000808335601e19843603018112614a8c578182fd5b8301803591506001600160401b03821115614aa5578283fd5b602001915060608102360382131561320557600080fd5b6000808335601e19843603018112614ad2578182fd5b8301803591506001600160401b03821115614aeb578283fd5b60200191503681900382131561320557600080fd5b60008235603e19833603018112614b15578182fd5b9190910192915050565b6000823560de19833603018112614b15578182fd5b60008235609e19833603018112614b15578182fd5b6040518181016001600160401b0381118282101715614b6a57614b6a61515d565b604052919050565b60006001600160401b03821115614b8b57614b8b61515d565b5060209081020190565b60006001600160401b03821115614bae57614bae61515d565b50601f01601f191660200190565b60009081526020902090565b602084108015614c1e57601f841160018114614bef57614be886856150ed565b8355614c18565b614bf883614bbc565b614c0d6020601f880104820160018301614db7565b50614c1886846151ce565b50610951565b8160005260206000206020601f8701048101601f87168015614c4857614c48816000198401615173565b50614c5b6020601f880104830182614db7565b50506001856002021782555050505050565b6000808335601e19843603018112614c83578283fd5b83016020810192503590506001600160401b03811115614ca257600080fd5b60208102360383131561320557600080fd5b6000808335601e19843603018112614cca578283fd5b83016020810192503590506001600160401b03811115614ce957600080fd5b60608102360383131561320557600080fd5b6000808335601e19843603018112614d11578283fd5b83016020810192503590506001600160401b03811115614d3057600080fd5b80360383131561320557600080fd5b6000823560de19833603018112614d54578182fd5b90910192915050565b60008219821115614d7057614d70615131565b500190565b6000816000190483118215151615614d8f57614d8f615131565b500290565b600082821015614da657614da6615131565b500390565b6001600160a01b031690565b5b818110156127aa5760008155600101614db8565b600160401b831115614de057614de061515d565b805483825580841015614e65576001600160ff1b036001818311811615614e0957614e09615131565b6002828711821615614e1d57614e1d615131565b600085815260208120909350878202810190828602015b80821015614e5f57614e48858684546151ec565b8255614e5685858401615187565b90820190614e34565b50505050505b5081614e7082614bbc565b6000805b86811015614ea657614e90614e898588614b00565b83856154e3565b6020939093019260029290920191600101614e74565b50505050505050565b600160401b831115614ec357614ec361515d565b805483825580841015614f42576001600160ff1b036001818311811615614eec57614eec615131565b6002828711821615614f0057614f00615131565b600085815260208120909350878202810190828602015b80821015614f3c57614f2b858684546151ec565b825584848301558282019150614f17565b50505050505b5081614f4d82614bbc565b6000805b86811015614ea657614f648483856155ab565b6060939093019260029290920191600101614f51565b6001600160401b03831115614f9157614f9161515d565b614f9b81546150b8565b600080601f8611601f841181811715614fba57614fb786614bbc565b92505b8015614fe9576020601f89010483016020891015614fd55750825b614fe76020601f880104850182614db7565b505b50806001811461501557600094508715615004578387013594505b61500e88866150ed565b8655615067565b601f198816945082845b8681101561503f578886013582556020958601956001909201910161501f565b508886101561505c57878501356000196008601f8c16021c191681555b506001600289020186555b5050505050505050565b60005b8381101561508c578181015183820152602001615074565b8381111561509b576000848401525b50505050565b6000816150b0576150b0615131565b506000190190565b6002810460018216806150cc57607f821691505b602082108114156132e257634e487b7160e01b600052602260045260246000fd5b600019600883021c191660029091021790565b600060001982141561511457615114615131565b5060010190565b634e487b7160e01b600052600060045260246000fd5b634e487b7160e01b600052601160045260246000fd5b634e487b7160e01b600052602160045260246000fd5b634e487b7160e01b600052604160045260246000fd5b8054600019836020036008021c1681555050565b600160401b82111561519b5761519b61515d565b8054828255808310156116e7576000828152602081208481019083015b80821015611981578282556001820191506151b8565b8060005260206000206151e28382546150ed565b9091556000905550565b60089190910291821b60001990921b9182169119161790565b80546001600160a01b0319166001600160a01b0392909216919091179055565b813561523081615606565b61523a8183615205565b5060016020808401358284015560408401356002840155606084013560038401556004830161526c6080860186614a1a565b600160401b8111156152805761528061515d565b8254818455808210156152a55783600052846000206152a3828201848301614db7565b505b506000928352838320925b818110156152cb5782358455928501929184019185016152b0565b5050505050506152de60a0830183614a1a565b6152ec818360058601614dcc565b50506152fb60c0830183614a76565b61509b818360068601614eaf565b813561531481615606565b61531e8183615205565b50600160208084013561533081615606565b61533c81848601615205565b506002604085013561534d81615606565b61535981838701615205565b50600360608601358186015560046153746080880188614abc565b6153818183858b01614f7a565b5050600580870161539560a08a018a614a1a565b600160401b8111156153a9576153a961515d565b82548184558082101561547d577f33333333333333333333333333333333333333333333333333333333333333338082118b16156153e9576153e9615131565b8083118b16156153fb576153fb615131565b506000848152898120838702810190878402015b8082101561547957615423838484546151ec565b8255828d8301558a8201615439848583546151ec565b81555089820161544b848583546151ec565b9055818901805461545b816150b8565b801561546d5761546d86828486614bc8565b5050509087019061540f565b5050505b5081965061548a83614bbc565b9550600094508492505b808310156154c1576154b06154a98884614b34565b8688615537565b958701959483019491880191615494565b5050505050505050506127aa6154da60c0840184614b1f565b60068301615225565b81156154f1576154f161511b565b823581556001808201602061550881870187614a1a565b6155128185615187565b6000938452828420935b818110156109e757823585559385019391830191850161551c565b81156155455761554561511b565b8235815560018101602084013561555b8161561b565b6004811061556b5761556b615147565b60ff1982541660ff821681178355505050604083013560028201556060830135600382015561559d6080840184614abc565b610951818360048601614f7a565b81156155b9576155b961511b565b823581556001810160208401356155cf81615628565b815460ff191660ff919091161780825560408501356155ed81615628565b61ff008160081b1661ff00198316178355505050505050565b6001600160a01b038116811461060557600080fd5b6004811061060557600080fd5b60ff8116811461060557600080fdfe71bd81ebe1d98a2944767394e76a9aff18724b2cf04e1db71254f804544b35c7a2646970667358221220a1f9d2d68c4bad94691d46c375727f4459b7b6dd0f5d5fb6265efcc1d7e8a3dd64736f6c63430008000033",
  "linkReferences": {
    "contracts/SolverLib.sol": {
      "SolverLib": [
        {
          "length": 20,
          "start": 1418
        },
        {
          "length": 20,
          "start": 1687
        },
        {
          "length": 20,
          "start": 2263
        },
        {
          "length": 20,
          "start": 3229
        },
        {
          "length": 20,
          "start": 3556
        },
        {
          "length": 20,
          "start": 4251
        },
        {
          "length": 20,
          "start": 4469
        },
        {
          "length": 20,
          "start": 5736
        },
        {
          "length": 20,
          "start": 6405
        },
        {
          "length": 20,
          "start": 7008
        },
        {
          "length": 20,
          "start": 7178
        },
        {
          "length": 20,
          "start": 11636
        }
      ]
    }
  },
  "deployedLinkReferences": {
    "contracts/SolverLib.sol": {
      "SolverLib": [
        {
          "length": 20,
          "start": 1385
        },
        {
          "length": 20,
          "start": 1654
        },
        {
          "length": 20,
          "start": 2230
        },
        {
          "length": 20,
          "start": 3196
        },
        {
          "length": 20,
          "start": 3523
        },
        {
          "length": 20,
          "start": 4218
        },
        {
          "length": 20,
          "start": 4436
        },
        {
          "length": 20,
          "start": 5703
        },
        {
          "length": 20,
          "start": 6372
        },
        {
          "length": 20,
          "start": 6975
        },
        {
          "length": 20,
          "start": 7145
        },
        {
          "length": 20,
          "start": 11603
        }
      ]
    }
  }
}