{
  "_format": "hh-sol-artifact-1",
  "contractName": "BasicSolverV1",
  "sourceName": "contracts/BasicSolverV1.sol",
  "abi": [
    {
      "anonymous": false,
      "inputs": [
        {
          "indexed": false,
          "internalType": "address",
          "name": "chainChild",
          "type": "address"
        }
      ],
      "name": "DeployedChild",
      "type": "event"
    },
    {
      "anonymous": false,
      "inputs": [],
      "name": "IngestedData",
      "type": "event"
    },
    {
      "anonymous": false,
      "inputs": [
        {
          "indexed": false,
          "internalType": "address",
          "name": "solver",
          "type": "address"
        },
        {
          "indexed": false,
          "internalType": "uint256",
          "name": "solveIndex",
          "type": "uint256"
        }
      ],
      "name": "PreparedSolve",
      "type": "event"
    },
    {
      "inputs": [
        {
          "internalType": "bytes32",
          "name": "_slot",
          "type": "bytes32"
        },
        {
          "internalType": "bytes",
          "name": "_data",
          "type": "bytes"
        }
      ],
      "name": "addData",
      "outputs": [],
      "stateMutability": "nonpayable",
      "type": "function"
    },
    {
      "inputs": [
        {
          "internalType": "uint256",
          "name": "_index",
          "type": "uint256"
        }
      ],
      "name": "addressFromChainIndex",
      "outputs": [
        {
          "internalType": "address",
          "name": "_address",
          "type": "address"
        }
      ],
      "stateMutability": "view",
      "type": "function"
    },
    {
      "inputs": [
        {
          "internalType": "uint256",
          "name": "_index",
          "type": "uint256"
        },
        {
          "internalType": "uint256[]",
          "name": "payouts",
          "type": "uint256[]"
        }
      ],
      "name": "arbitrate",
      "outputs": [],
      "stateMutability": "nonpayable",
      "type": "function"
    },
    {
      "inputs": [
        {
          "internalType": "uint256",
          "name": "_index",
          "type": "uint256"
        }
      ],
      "name": "arbitrateNull",
      "outputs": [],
      "stateMutability": "nonpayable",
      "type": "function"
    },
    {
      "inputs": [
        {
          "internalType": "uint256",
          "name": "_index",
          "type": "uint256"
        }
      ],
      "name": "arbitrationPending",
      "outputs": [],
      "stateMutability": "nonpayable",
      "type": "function"
    },
    {
      "inputs": [
        {
          "internalType": "uint256",
          "name": "_index",
          "type": "uint256"
        }
      ],
      "name": "arbitrationRequested",
      "outputs": [],
      "stateMutability": "nonpayable",
      "type": "function"
    },
    {
      "inputs": [],
      "name": "chainChild",
      "outputs": [
        {
          "internalType": "address",
          "name": "",
          "type": "address"
        }
      ],
      "stateMutability": "view",
      "type": "function"
    },
    {
      "inputs": [],
      "name": "chainIndex",
      "outputs": [
        {
          "internalType": "uint256",
          "name": "",
          "type": "uint256"
        }
      ],
      "stateMutability": "view",
      "type": "function"
    },
    {
      "inputs": [],
      "name": "chainParent",
      "outputs": [
        {
          "internalType": "address",
          "name": "",
          "type": "address"
        }
      ],
      "stateMutability": "view",
      "type": "function"
    },
    {
      "inputs": [],
      "name": "collateralBalance",
      "outputs": [
        {
          "internalType": "uint256",
          "name": "balance",
          "type": "uint256"
        }
      ],
      "stateMutability": "view",
      "type": "function"
    },
    {
      "inputs": [
        {
          "internalType": "uint256",
          "name": "",
          "type": "uint256"
        }
      ],
      "name": "conditions",
      "outputs": [
        {
          "internalType": "contract IERC20",
          "name": "collateralToken",
          "type": "address"
        },
        {
          "internalType": "bytes32",
          "name": "questionId",
          "type": "bytes32"
        },
        {
          "internalType": "bytes32",
          "name": "parentCollectionId",
          "type": "bytes32"
        },
        {
          "internalType": "bytes32",
          "name": "conditionId",
          "type": "bytes32"
        },
        {
          "internalType": "enum SolverLib.Status",
          "name": "status",
          "type": "uint8"
        }
      ],
      "stateMutability": "view",
      "type": "function"
    },
    {
      "inputs": [],
      "name": "config",
      "outputs": [
        {
          "internalType": "contract Solver",
          "name": "implementation",
          "type": "address"
        },
        {
          "internalType": "address",
          "name": "keeper",
          "type": "address"
        },
        {
          "internalType": "address",
          "name": "arbitrator",
          "type": "address"
        },
        {
          "internalType": "uint256",
          "name": "timelockSeconds",
          "type": "uint256"
        },
        {
          "internalType": "bytes",
          "name": "data",
          "type": "bytes"
        },
        {
          "components": [
            {
              "internalType": "contract IERC20",
              "name": "collateralToken",
              "type": "address"
            },
            {
              "internalType": "uint256",
              "name": "outcomeSlots",
              "type": "uint256"
            },
            {
              "internalType": "uint256",
              "name": "parentCollectionIndexSet",
              "type": "uint256"
            },
            {
              "internalType": "bytes32",
              "name": "amountSlot",
              "type": "bytes32"
            },
            {
              "internalType": "uint256[]",
              "name": "partition",
              "type": "uint256[]"
            },
            {
              "components": [
                {
                  "internalType": "bytes32",
                  "name": "recipientAddressSlot",
                  "type": "bytes32"
                },
                {
                  "internalType": "bytes32[]",
                  "name": "recipientAmountSlots",
                  "type": "bytes32[]"
                }
              ],
              "internalType": "struct SolverLib.Allocation[]",
              "name": "allocations",
              "type": "tuple[]"
            },
            {
              "components": [
                {
                  "internalType": "bytes32",
                  "name": "digest",
                  "type": "bytes32"
                },
                {
                  "internalType": "uint8",
                  "name": "hashFunction",
                  "type": "uint8"
                },
                {
                  "internalType": "uint8",
                  "name": "size",
                  "type": "uint8"
                }
              ],
              "internalType": "struct SolverLib.Multihash[]",
              "name": "outcomeURIs",
              "type": "tuple[]"
            }
          ],
          "internalType": "struct SolverLib.ConditionBase",
          "name": "conditionBase",
          "type": "tuple"
        }
      ],
      "stateMutability": "view",
      "type": "function"
    },
    {
      "inputs": [
        {
          "internalType": "uint256",
          "name": "_index",
          "type": "uint256"
        }
      ],
      "name": "confirmPayouts",
      "outputs": [],
      "stateMutability": "nonpayable",
      "type": "function"
    },
    {
      "inputs": [
        {
          "components": [
            {
              "internalType": "contract Solver",
              "name": "implementation",
              "type": "address"
            },
            {
              "internalType": "address",
              "name": "keeper",
              "type": "address"
            },
            {
              "internalType": "address",
              "name": "arbitrator",
              "type": "address"
            },
            {
              "internalType": "uint256",
              "name": "timelockSeconds",
              "type": "uint256"
            },
            {
              "internalType": "bytes",
              "name": "data",
              "type": "bytes"
            },
            {
              "components": [
                {
                  "internalType": "uint256",
                  "name": "executions",
                  "type": "uint256"
                },
                {
                  "internalType": "enum SolverLib.IngestType",
                  "name": "ingestType",
                  "type": "uint8"
                },
                {
                  "internalType": "bytes32",
                  "name": "slot",
                  "type": "bytes32"
                },
                {
                  "internalType": "uint256",
                  "name": "solverIndex",
                  "type": "uint256"
                },
                {
                  "internalType": "bytes",
                  "name": "data",
                  "type": "bytes"
                }
              ],
              "internalType": "struct SolverLib.Ingest[]",
              "name": "ingests",
              "type": "tuple[]"
            },
            {
              "components": [
                {
                  "internalType": "contract IERC20",
                  "name": "collateralToken",
                  "type": "address"
                },
                {
                  "internalType": "uint256",
                  "name": "outcomeSlots",
                  "type": "uint256"
                },
                {
                  "internalType": "uint256",
                  "name": "parentCollectionIndexSet",
                  "type": "uint256"
                },
                {
                  "internalType": "bytes32",
                  "name": "amountSlot",
                  "type": "bytes32"
                },
                {
                  "internalType": "uint256[]",
                  "name": "partition",
                  "type": "uint256[]"
                },
                {
                  "components": [
                    {
                      "internalType": "bytes32",
                      "name": "recipientAddressSlot",
                      "type": "bytes32"
                    },
                    {
                      "internalType": "bytes32[]",
                      "name": "recipientAmountSlots",
                      "type": "bytes32[]"
                    }
                  ],
                  "internalType": "struct SolverLib.Allocation[]",
                  "name": "allocations",
                  "type": "tuple[]"
                },
                {
                  "components": [
                    {
                      "internalType": "bytes32",
                      "name": "digest",
                      "type": "bytes32"
                    },
                    {
                      "internalType": "uint8",
                      "name": "hashFunction",
                      "type": "uint8"
                    },
                    {
                      "internalType": "uint8",
                      "name": "size",
                      "type": "uint8"
                    }
                  ],
                  "internalType": "struct SolverLib.Multihash[]",
                  "name": "outcomeURIs",
                  "type": "tuple[]"
                }
              ],
              "internalType": "struct SolverLib.ConditionBase",
              "name": "conditionBase",
              "type": "tuple"
            }
          ],
          "internalType": "struct SolverLib.Config",
          "name": "_config",
          "type": "tuple"
        }
      ],
      "name": "deployChild",
      "outputs": [
        {
          "internalType": "contract Solver",
          "name": "_solver",
          "type": "address"
        }
      ],
      "stateMutability": "nonpayable",
      "type": "function"
    },
    {
      "inputs": [
        {
          "internalType": "uint256",
          "name": "_index",
          "type": "uint256"
        }
      ],
      "name": "executeSolve",
      "outputs": [],
      "stateMutability": "nonpayable",
      "type": "function"
    },
    {
      "inputs": [
        {
          "internalType": "bytes32",
          "name": "_slot",
          "type": "bytes32"
        }
      ],
      "name": "getCallbackOutput",
      "outputs": [
        {
          "internalType": "bytes",
          "name": "data",
          "type": "bytes"
        }
      ],
      "stateMutability": "view",
      "type": "function"
    },
    {
      "inputs": [],
      "name": "getConditions",
      "outputs": [
        {
          "components": [
            {
              "internalType": "contract IERC20",
              "name": "collateralToken",
              "type": "address"
            },
            {
              "internalType": "bytes32",
              "name": "questionId",
              "type": "bytes32"
            },
            {
              "internalType": "bytes32",
              "name": "parentCollectionId",
              "type": "bytes32"
            },
            {
              "internalType": "bytes32",
              "name": "conditionId",
              "type": "bytes32"
            },
            {
              "internalType": "uint256[]",
              "name": "payouts",
              "type": "uint256[]"
            },
            {
              "internalType": "enum SolverLib.Status",
              "name": "status",
              "type": "uint8"
            }
          ],
          "internalType": "struct SolverLib.Condition[]",
          "name": "",
          "type": "tuple[]"
        }
      ],
      "stateMutability": "view",
      "type": "function"
    },
    {
      "inputs": [],
      "name": "getConfig",
      "outputs": [
        {
          "components": [
            {
              "internalType": "contract Solver",
              "name": "implementation",
              "type": "address"
            },
            {
              "internalType": "address",
              "name": "keeper",
              "type": "address"
            },
            {
              "internalType": "address",
              "name": "arbitrator",
              "type": "address"
            },
            {
              "internalType": "uint256",
              "name": "timelockSeconds",
              "type": "uint256"
            },
            {
              "internalType": "bytes",
              "name": "data",
              "type": "bytes"
            },
            {
              "components": [
                {
                  "internalType": "uint256",
                  "name": "executions",
                  "type": "uint256"
                },
                {
                  "internalType": "enum SolverLib.IngestType",
                  "name": "ingestType",
                  "type": "uint8"
                },
                {
                  "internalType": "bytes32",
                  "name": "slot",
                  "type": "bytes32"
                },
                {
                  "internalType": "uint256",
                  "name": "solverIndex",
                  "type": "uint256"
                },
                {
                  "internalType": "bytes",
                  "name": "data",
                  "type": "bytes"
                }
              ],
              "internalType": "struct SolverLib.Ingest[]",
              "name": "ingests",
              "type": "tuple[]"
            },
            {
              "components": [
                {
                  "internalType": "contract IERC20",
                  "name": "collateralToken",
                  "type": "address"
                },
                {
                  "internalType": "uint256",
                  "name": "outcomeSlots",
                  "type": "uint256"
                },
                {
                  "internalType": "uint256",
                  "name": "parentCollectionIndexSet",
                  "type": "uint256"
                },
                {
                  "internalType": "bytes32",
                  "name": "amountSlot",
                  "type": "bytes32"
                },
                {
                  "internalType": "uint256[]",
                  "name": "partition",
                  "type": "uint256[]"
                },
                {
                  "components": [
                    {
                      "internalType": "bytes32",
                      "name": "recipientAddressSlot",
                      "type": "bytes32"
                    },
                    {
                      "internalType": "bytes32[]",
                      "name": "recipientAmountSlots",
                      "type": "bytes32[]"
                    }
                  ],
                  "internalType": "struct SolverLib.Allocation[]",
                  "name": "allocations",
                  "type": "tuple[]"
                },
                {
                  "components": [
                    {
                      "internalType": "bytes32",
                      "name": "digest",
                      "type": "bytes32"
                    },
                    {
                      "internalType": "uint8",
                      "name": "hashFunction",
                      "type": "uint8"
                    },
                    {
                      "internalType": "uint8",
                      "name": "size",
                      "type": "uint8"
                    }
                  ],
                  "internalType": "struct SolverLib.Multihash[]",
                  "name": "outcomeURIs",
                  "type": "tuple[]"
                }
              ],
              "internalType": "struct SolverLib.ConditionBase",
              "name": "conditionBase",
              "type": "tuple"
            }
          ],
          "internalType": "struct SolverLib.Config",
          "name": "",
          "type": "tuple"
        }
      ],
      "stateMutability": "view",
      "type": "function"
    },
    {
      "inputs": [
        {
          "internalType": "bytes32",
          "name": "_slot",
          "type": "bytes32"
        }
      ],
      "name": "getData",
      "outputs": [
        {
          "internalType": "bytes",
          "name": "data",
          "type": "bytes"
        }
      ],
      "stateMutability": "view",
      "type": "function"
    },
    {
      "inputs": [
        {
          "internalType": "bytes32",
          "name": "slot",
          "type": "bytes32"
        }
      ],
      "name": "getOutgoingCallbacks",
      "outputs": [
        {
          "internalType": "address[]",
          "name": "",
          "type": "address[]"
        }
      ],
      "stateMutability": "view",
      "type": "function"
    },
    {
      "inputs": [
        {
          "internalType": "bytes32",
          "name": "_slot",
          "type": "bytes32"
        }
      ],
      "name": "handleCallback",
      "outputs": [],
      "stateMutability": "nonpayable",
      "type": "function"
    },
    {
      "inputs": [],
      "name": "ingestsValid",
      "outputs": [
        {
          "internalType": "bool",
          "name": "",
          "type": "bool"
        }
      ],
      "stateMutability": "view",
      "type": "function"
    },
    {
      "inputs": [
        {
          "internalType": "address",
          "name": "_ctfAddress",
          "type": "address"
        },
        {
          "internalType": "address",
          "name": "_chainParent",
          "type": "address"
        },
        {
          "internalType": "uint256",
          "name": "_chainIndex",
          "type": "uint256"
        },
        {
          "components": [
            {
              "internalType": "contract Solver",
              "name": "implementation",
              "type": "address"
            },
            {
              "internalType": "address",
              "name": "keeper",
              "type": "address"
            },
            {
              "internalType": "address",
              "name": "arbitrator",
              "type": "address"
            },
            {
              "internalType": "uint256",
              "name": "timelockSeconds",
              "type": "uint256"
            },
            {
              "internalType": "bytes",
              "name": "data",
              "type": "bytes"
            },
            {
              "components": [
                {
                  "internalType": "uint256",
                  "name": "executions",
                  "type": "uint256"
                },
                {
                  "internalType": "enum SolverLib.IngestType",
                  "name": "ingestType",
                  "type": "uint8"
                },
                {
                  "internalType": "bytes32",
                  "name": "slot",
                  "type": "bytes32"
                },
                {
                  "internalType": "uint256",
                  "name": "solverIndex",
                  "type": "uint256"
                },
                {
                  "internalType": "bytes",
                  "name": "data",
                  "type": "bytes"
                }
              ],
              "internalType": "struct SolverLib.Ingest[]",
              "name": "ingests",
              "type": "tuple[]"
            },
            {
              "components": [
                {
                  "internalType": "contract IERC20",
                  "name": "collateralToken",
                  "type": "address"
                },
                {
                  "internalType": "uint256",
                  "name": "outcomeSlots",
                  "type": "uint256"
                },
                {
                  "internalType": "uint256",
                  "name": "parentCollectionIndexSet",
                  "type": "uint256"
                },
                {
                  "internalType": "bytes32",
                  "name": "amountSlot",
                  "type": "bytes32"
                },
                {
                  "internalType": "uint256[]",
                  "name": "partition",
                  "type": "uint256[]"
                },
                {
                  "components": [
                    {
                      "internalType": "bytes32",
                      "name": "recipientAddressSlot",
                      "type": "bytes32"
                    },
                    {
                      "internalType": "bytes32[]",
                      "name": "recipientAmountSlots",
                      "type": "bytes32[]"
                    }
                  ],
                  "internalType": "struct SolverLib.Allocation[]",
                  "name": "allocations",
                  "type": "tuple[]"
                },
                {
                  "components": [
                    {
                      "internalType": "bytes32",
                      "name": "digest",
                      "type": "bytes32"
                    },
                    {
                      "internalType": "uint8",
                      "name": "hashFunction",
                      "type": "uint8"
                    },
                    {
                      "internalType": "uint8",
                      "name": "size",
                      "type": "uint8"
                    }
                  ],
                  "internalType": "struct SolverLib.Multihash[]",
                  "name": "outcomeURIs",
                  "type": "tuple[]"
                }
              ],
              "internalType": "struct SolverLib.ConditionBase",
              "name": "conditionBase",
              "type": "tuple"
            }
          ],
          "internalType": "struct SolverLib.Config",
          "name": "_solverConfig",
          "type": "tuple"
        }
      ],
      "name": "init",
      "outputs": [],
      "stateMutability": "nonpayable",
      "type": "function"
    },
    {
      "inputs": [
        {
          "internalType": "address",
          "name": "operator",
          "type": "address"
        },
        {
          "internalType": "address",
          "name": "from",
          "type": "address"
        },
        {
          "internalType": "uint256[]",
          "name": "ids",
          "type": "uint256[]"
        },
        {
          "internalType": "uint256[]",
          "name": "values",
          "type": "uint256[]"
        },
        {
          "internalType": "bytes",
          "name": "data",
          "type": "bytes"
        }
      ],
      "name": "onERC1155BatchReceived",
      "outputs": [
        {
          "internalType": "bytes4",
          "name": "",
          "type": "bytes4"
        }
      ],
      "stateMutability": "nonpayable",
      "type": "function"
    },
    {
      "inputs": [
        {
          "internalType": "address",
          "name": "operator",
          "type": "address"
        },
        {
          "internalType": "address",
          "name": "from",
          "type": "address"
        },
        {
          "internalType": "uint256",
          "name": "id",
          "type": "uint256"
        },
        {
          "internalType": "uint256",
          "name": "value",
          "type": "uint256"
        },
        {
          "internalType": "bytes",
          "name": "data",
          "type": "bytes"
        }
      ],
      "name": "onERC1155Received",
      "outputs": [
        {
          "internalType": "bytes4",
          "name": "",
          "type": "bytes4"
        }
      ],
      "stateMutability": "nonpayable",
      "type": "function"
    },
    {
      "inputs": [
        {
          "internalType": "uint256",
          "name": "_index",
          "type": "uint256"
        }
      ],
      "name": "prepareSolve",
      "outputs": [],
      "stateMutability": "nonpayable",
      "type": "function"
    },
    {
      "inputs": [
        {
          "internalType": "uint256",
          "name": "_index",
          "type": "uint256"
        },
        {
          "internalType": "uint256[]",
          "name": "_payouts",
          "type": "uint256[]"
        }
      ],
      "name": "proposePayouts",
      "outputs": [],
      "stateMutability": "nonpayable",
      "type": "function"
    },
    {
      "inputs": [
        {
          "internalType": "contract IERC20",
          "name": "_collateralToken",
          "type": "address"
        },
        {
          "internalType": "bytes32",
          "name": "_parentCollectionId",
          "type": "bytes32"
        },
        {
          "internalType": "bytes32",
          "name": "_conditionId",
          "type": "bytes32"
        },
        {
          "internalType": "uint256[]",
          "name": "_indexSets",
          "type": "uint256[]"
        }
      ],
      "name": "redeemPosition",
      "outputs": [],
      "stateMutability": "nonpayable",
      "type": "function"
    },
    {
      "inputs": [
        {
          "internalType": "bytes32",
          "name": "_slot",
          "type": "bytes32"
        },
        {
          "internalType": "uint256",
          "name": "_chainIndex",
          "type": "uint256"
        }
      ],
      "name": "registerOutgoingCallback",
      "outputs": [],
      "stateMutability": "nonpayable",
      "type": "function"
    },
    {
      "inputs": [
        {
          "internalType": "bytes32",
          "name": "_trackingId",
          "type": "bytes32"
        }
      ],
      "name": "setTrackingId",
      "outputs": [],
      "stateMutability": "nonpayable",
      "type": "function"
    },
    {
      "inputs": [
        {
          "internalType": "bytes4",
          "name": "interfaceId",
          "type": "bytes4"
        }
      ],
      "name": "supportsInterface",
      "outputs": [
        {
          "internalType": "bool",
          "name": "",
          "type": "bool"
        }
      ],
      "stateMutability": "view",
      "type": "function"
    },
    {
      "inputs": [
        {
          "internalType": "uint256",
          "name": "",
          "type": "uint256"
        }
      ],
      "name": "timelocks",
      "outputs": [
        {
          "internalType": "uint256",
          "name": "",
          "type": "uint256"
        }
      ],
      "stateMutability": "view",
      "type": "function"
    },
    {
      "inputs": [],
      "name": "trackingId",
      "outputs": [
        {
          "internalType": "bytes32",
          "name": "",
          "type": "bytes32"
        }
      ],
      "stateMutability": "view",
      "type": "function"
    },
    {
      "inputs": [],
      "name": "uiURI",
      "outputs": [
        {
          "internalType": "bytes32",
          "name": "digest",
          "type": "bytes32"
        },
        {
          "internalType": "uint8",
          "name": "hashFunction",
          "type": "uint8"
        },
        {
          "internalType": "uint8",
          "name": "size",
          "type": "uint8"
        }
      ],
      "stateMutability": "view",
      "type": "function"
    }
  ],
  "bytecode": "0x608060405234801561001057600080fd5b50615aa780620000216000396000f3fe608060405234801561001057600080fd5b50600436106102265760003560e01c806355dd978b1161012a5780639ba45ccf116100bd578063c98c05b71161008c578063df33cc5111610071578063df33cc51146104ba578063ea8221a9146104cd578063f23a6e61146104d557610226565b8063c98c05b71461049f578063de3a23c5146104a757610226565b80639ba45ccf14610444578063b992db0f14610457578063bc197c811461046a578063c3f909d41461048a57610226565b806380c2dde2116100f957806380c2dde21461040e5780638602ce1b1461041657806387dfee5714610429578063999925061461043c57610226565b806355dd978b146103c457806379502c55146103cc5780637c123627146103e657806380b204b7146103fb57610226565b806326c50007116101bd57806348cbb2fc1161018c5780634dab5e69116101715780634dab5e691461038b5780634e46f2231461039e57806354f6127f146103b157610226565b806348cbb2fc146103705780634a77234e1461037857610226565b806326c500071461030257806336fcf48c146103265780633837b05e1461033d5780633f4fb5aa1461035057610226565b80630d06101a116101f95780630d06101a146102a95780630d7e149f146102bc5780630d8d3975146102dc57806318782559146102ef57610226565b806301ffc9a71461022b57806307c068b6146102545780630944e26e14610269578063098b37f714610289575b600080fd5b61023e6102393660046137ab565b6104e8565b60405161024b91906145d4565b60405180910390f35b6102676102623660046136db565b61052e565b005b61027c61027736600461396d565b610677565b60405161024b919061418e565b61029c6102973660046136db565b6107e3565b60405161024b91906143d8565b6102676102b73660046136db565b61084f565b6102cf6102ca3660046136db565b610874565b60405161024b91906145df565b6102676102ea3660046136db565b610895565b6102676102fd366004613846565b6109ff565b6103156103103660046136db565b610ab3565b60405161024b959493929190614671565b61032e610b01565b60405161024b939291906145f6565b61027c61034b3660046136db565b610b16565b61036361035e3660046136db565b610c44565b60405161024b9190614624565b6102cf610d0a565b6102676103863660046136db565b610d10565b6102676103993660046136db565b61101b565b6102676103ac3660046136db565b6110f5565b6103636103bf3660046136db565b6111cf565b61027c6111ec565b6103d46111fb565b60405161024b969594939291906146a4565b6103ee611486565b60405161024b9190614425565b6102676104093660046139a8565b6115b5565b61027c61171c565b61026761042436600461370b565b61172b565b6102676104373660046139f2565b611812565b61023e6119cb565b61026761045236600461359e565b611a78565b6102676104653660046136db565b611c22565b61047d6104783660046134e3565b612017565b60405161024b919061460f565b610492612044565b60405161024b9190614d61565b6102cf61245d565b6102676104b53660046136db565b6124f7565b6102676104c836600461378a565b61287b565b6102cf612986565b61047d6104e3366004613608565b61298c565b60006001600160e01b031982167f4e2312e00000000000000000000000000000000000000000000000000000000014806105265750610526826129b8565b90505b919050565b6006546001600160a01b031633146105615760405162461bcd60e51b815260040161055890614ab7565b60405180910390fd5b60036011828154811061058457634e487b7160e01b600052603260045260246000fd5b600091825260209091206006918202016005015460ff16908111156105b957634e487b7160e01b600052602160045260246000fd5b146105d65760405162461bcd60e51b8152600401610558906149ec565b73__$94d7d2f22770e4b0d1a2b99fb2812308e2$__63ec7ac2f06011838154811061061157634e487b7160e01b600052603260045260246000fd5b90600052602060002090600602016040518263ffffffff1660e01b815260040161063b91906145df565b60006040518083038186803b15801561065357600080fd5b505af4158015610667573d6000803e3d6000fd5b50505050610674816129ea565b50565b6005546000906001600160a01b031633146106a45760405162461bcd60e51b815260040161055890614c34565b6013546001600160a01b0316156106cd5760405162461bcd60e51b8152600401610558906147a2565b6000546014546040517fd6b3ad8d00000000000000000000000000000000000000000000000000000000815273__$94d7d2f22770e4b0d1a2b99fb2812308e2$__9263d6b3ad8d9261073592620100009092046001600160a01b0316918791906004016142e7565b604080518083038186803b15801561074c57600080fd5b505af4158015610760573d6000803e3d6000fd5b505050506040513d601f19601f820116820180604052508101906107849190613682565b601380546001600160a01b0319166001600160a01b0393841617908190556040519193507fbd2e7fbdc9b1c19997e58c63e6ea1b5a02acd8dd9fd5d76f4bb18634f7155e80926107d69291169061418e565b60405180910390a1919050565b60008181526019602090815260409182902080548351818402810184019094528084526060939283018282801561084357602002820191906000526020600020905b81546001600160a01b03168152600190910190602001808311610825575b50505050509050919050565b6016541561086f5760405162461bcd60e51b815260040161055890614ca2565b601655565b6015818154811061088457600080fd5b600091825260209091200154905081565b601581815481106108b657634e487b7160e01b600052603260045260246000fd5b906000526020600020015442116108df5760405162461bcd60e51b815260040161055890614947565b60026011828154811061090257634e487b7160e01b600052603260045260246000fd5b600091825260209091206006918202016005015460ff169081111561093757634e487b7160e01b600052602160045260246000fd5b146109545760405162461bcd60e51b815260040161055890614b25565b6001546011805473__$94d7d2f22770e4b0d1a2b99fb2812308e2$__926385c92867926001600160a01b0390911691859081106109a157634e487b7160e01b600052603260045260246000fd5b90600052602060002090600602016040518363ffffffff1660e01b81526004016109cc929190614228565b60006040518083038186803b1580156109e457600080fd5b505af41580156109f8573d6000803e3d6000fd5b5050505050565b6005546001600160a01b03163314610a295760405162461bcd60e51b815260040161055890614910565b6001546040517f01b7037c0000000000000000000000000000000000000000000000000000000081526001600160a01b03909116906301b7037c90610a7a9088908890889088908890600401614637565b600060405180830381600087803b158015610a9457600080fd5b505af1158015610aa8573d6000803e3d6000fd5b505050505050505050565b60118181548110610ac357600080fd5b6000918252602090912060069091020180546001820154600283015460038401546005909401546001600160a01b0390931694509092909160ff1685565b60025460035460ff8082169161010090041683565b6000601454821415610b29575030610529565b601454821015610bba57601254604051631c1bd82f60e11b81526001600160a01b0390911690633837b05e90610b639085906004016145df565b60206040518083038186803b158015610b7b57600080fd5b505afa158015610b8f573d6000803e3d6000fd5b505050506040513d601f19601f82011682018060405250810190610bb391906134c7565b9050610529565b60145482111561052957601354604051631c1bd82f60e11b81526001600160a01b0390911690633837b05e90610bf49085906004016145df565b60206040518083038186803b158015610c0c57600080fd5b505afa158015610c20573d6000803e3d6000fd5b505050506040513d601f19601f8201168201806040525081019061052691906134c7565b6011546000828152601c602052604090205460609114610c765760405162461bcd60e51b815260040161055890614a80565b6000828152601b602052604090208054610c8f906154e6565b80601f0160208091040260200160405190810160405280929190818152602001828054610cbb906154e6565b80156108435780601f10610cdd57610100808354040283529160200191610843565b820191906000526020600020905b815481529060010190602001808311610ceb5750939695505050505050565b60165481565b60115415610d57576005546001600160a01b0316331480610d3b57506012546001600160a01b031633145b610d575760405162461bcd60e51b815260040161055890614c6b565b6011548114610d785760405162461bcd60e51b8152600401610558906148a4565b60185415610d985760405162461bcd60e51b815260040161055890614b93565b60175415610db85760405162461bcd60e51b815260040161055890614bc8565b600154601254601180546040517f699e0add000000000000000000000000000000000000000000000000000000008152919373__$94d7d2f22770e4b0d1a2b99fb2812308e2$__9363699e0add93610e23936001600160a01b0393841693600a9316916004016141f3565b60006040518083038186803b158015610e3b57600080fd5b505af4158015610e4f573d6000803e3d6000fd5b505050506040513d6000823e601f3d908101601f19168201604052610e7791908101906138ae565b8154600180820184556000938452602093849020835160069093020180546001600160a01b0319166001600160a01b03909316929092178255828401519082015560408201516002820155606082015160038201556080820151805192939192610ee792600485019201906131fa565b5060a082015160058201805460ff19166001836006811115610f1957634e487b7160e01b600052602160045260246000fd5b0217905550506015805460018101825560009182527f55f448fdea98c4d29eb340757ef0a66cd03dbb9538908a6a81d96026b71ec475015550610f5a612a32565b7f152ec8ae15d347b2d2a8f0858caa29bcaaa0906749a1f43e08bfe799834602403082604051610f8b929190614228565b60405180910390a16013546001600160a01b031615610674576013546040517f4a77234e0000000000000000000000000000000000000000000000000000000081526001600160a01b0390911690634a77234e90610fed9084906004016145df565b600060405180830381600087803b15801561100757600080fd5b505af11580156109f8573d6000803e3d6000fd5b6006546001600160a01b031633146110455760405162461bcd60e51b815260040161055890614ab7565b60026011828154811061106857634e487b7160e01b600052603260045260246000fd5b600091825260209091206006918202016005015460ff169081111561109d57634e487b7160e01b600052602160045260246000fd5b146110ba5760405162461bcd60e51b815260040161055890614b5c565b73__$94d7d2f22770e4b0d1a2b99fb2812308e2$__6324b286026011838154811061061157634e487b7160e01b600052603260045260246000fd5b6006546001600160a01b0316331461111f5760405162461bcd60e51b815260040161055890614ab7565b60046011828154811061114257634e487b7160e01b600052603260045260246000fd5b600091825260209091206006918202016005015460ff169081111561117757634e487b7160e01b600052602160045260246000fd5b146111945760405162461bcd60e51b815260040161055890614bfd565b73__$94d7d2f22770e4b0d1a2b99fb2812308e2$__6359111fb56011838154811061061157634e487b7160e01b600052603260045260246000fd5b6000818152601b60205260409020805460609190610c8f906154e6565b6013546001600160a01b031681565b60048054600554600654600754600880546001600160a01b03958616969486169590931693919261122b906154e6565b80601f0160208091040260200160405190810160405280929190818152602001828054611257906154e6565b80156112a45780601f10611279576101008083540402835291602001916112a4565b820191906000526020600020905b81548152906001019060200180831161128757829003601f168201915b50506040805160e0810182526006870180546001600160a01b03168252600788015460208084019190915260088901548385015260098901546060840152600a8901805485518184028101840190965280865298999893975091955060808701945090919083018282801561133857602002820191906000526020600020905b815481526020019060010190808311611324575b5050505050815260200160058201805480602002602001604051908101604052809291908181526020016000905b828210156113fa578382906000526020600020906002020160405180604001604052908160008201548152602001600182018054806020026020016040519081016040528092919081815260200182805480156113e257602002820191906000526020600020905b8154815260200190600101908083116113ce575b50505050508152505081526020019060010190611366565b50505050815260200160068201805480602002602001604051908101604052809291908181526020016000905b8282101561147957600084815260209081902060408051606081018252600286029092018054835260019081015460ff8082168587015261010090910416918301919091529083529092019101611427565b5050505081525050905086565b60606011805480602002602001604051908101604052809291908181526020016000905b828210156115ac5760008481526020908190206040805160c0810182526006860290920180546001600160a01b03168352600181015483850152600281015483830152600381015460608401526004810180548351818702810187019094528084529394919360808601939283018282801561154557602002820191906000526020600020905b815481526020019060010190808311611531575b5050509183525050600582015460209091019060ff16600681111561157a57634e487b7160e01b600052602160045260246000fd5b600681111561159957634e487b7160e01b600052602160045260246000fd5b81525050815260200190600101906114aa565b50505050905090565b6005546001600160a01b031633146115df5760405162461bcd60e51b815260040161055890614910565b600b5481146116005760405162461bcd60e51b8152600401610558906147d9565b60016011848154811061162357634e487b7160e01b600052603260045260246000fd5b600091825260209091206006918202016005015460ff169081111561165857634e487b7160e01b600052602160045260246000fd5b146116755760405162461bcd60e51b815260040161055890614836565b73__$94d7d2f22770e4b0d1a2b99fb2812308e2$__636a0a24f1601185815481106116b057634e487b7160e01b600052603260045260246000fd5b906000526020600020906006020184846040518463ffffffff1660e01b81526004016116de93929190614d47565b60006040518083038186803b1580156116f657600080fd5b505af415801561170a573d6000803e3d6000fd5b50505050611717836129ea565b505050565b6012546001600160a01b031681565b6005546001600160a01b031633146117555760405162461bcd60e51b815260040161055890614734565b6000828152601d60205260409020546009805460039290811061178857634e487b7160e01b600052603260045260246000fd5b600091825260209091206001600590920201015460ff1660038111156117be57634e487b7160e01b600052602160045260246000fd5b146117db5760405162461bcd60e51b8152600401610558906146fd565b6117e58282612d0e565b6040517f71bd81ebe1d98a2944767394e76a9aff18724b2cf04e1db71254f804544b35c790600090a15050565b6006546001600160a01b0316331461183c5760405162461bcd60e51b815260040161055890614ab7565b60046011838154811061185f57634e487b7160e01b600052603260045260246000fd5b600091825260209091206006918202016005015460ff169081111561189457634e487b7160e01b600052602160045260246000fd5b146118b15760405162461bcd60e51b815260040161055890614bfd565b601582815481106118d257634e487b7160e01b600052603260045260246000fd5b906000526020600020015442116118fb5760405162461bcd60e51b815260040161055890614947565b600b5481511461191d5760405162461bcd60e51b8152600401610558906147d9565b6001546011805473__$94d7d2f22770e4b0d1a2b99fb2812308e2$__92631b948e49926001600160a01b03909116918690811061196a57634e487b7160e01b600052603260045260246000fd5b9060005260206000209060060201846040518463ffffffff1660e01b815260040161199793929190614241565b60006040518083038186803b1580156119af57600080fd5b505af41580156119c3573d6000803e3d6000fd5b505050505050565b6011546040517f5cc1f6b500000000000000000000000000000000000000000000000000000000815260009173__$94d7d2f22770e4b0d1a2b99fb2812308e2$__91635cc1f6b591611a2391600991906004016144c9565b60206040518083038186803b158015611a3b57600080fd5b505af4158015611a4f573d6000803e3d6000fd5b505050506040513d601f19601f82011682018060405250810190611a7391906136bb565b905090565b600054610100900460ff1680611a91575060005460ff16155b611aad5760405162461bcd60e51b815260040161055890614a23565b600054610100900460ff16158015611ad8576000805460ff1961ff0019909116610100171660011790555b6000611aea60408401602085016134a4565b6001600160a01b03161415611b115760405162461bcd60e51b815260040161055890614aee565b600080546201000033027fffffffffffffffffffff0000000000000000000000000000000000000000ffff909116179055600180546001600160a01b038781166001600160a01b03199283161790925560128054928716929091169190911790556014839055816004611b84828261573e565b90505060005b611b9760a0840184614e55565b9050811015611c095780601d6000611bb260a0870187614e55565b85818110611bd057634e487b7160e01b600052603260045260246000fd5b9050602002810190611be29190614f2b565b60409081013582526020820192909252016000205580611c018161552e565b915050611b8a565b5080156109f8576000805461ff00191690555050505050565b600060118281548110611c4557634e487b7160e01b600052603260045260246000fd5b600091825260209091206006918202016005015460ff1690811115611c7a57634e487b7160e01b600052602160045260246000fd5b14611c975760405162461bcd60e51b815260040161055890614d10565b611c9f6119cb565b1515600114611cc05760405162461bcd60e51b81526004016105589061497e565b6040517f0e23b7ca00000000000000000000000000000000000000000000000000000000815273__$94d7d2f22770e4b0d1a2b99fb2812308e2$__90630e23b7ca90611d16908490601b90600a90600401614df8565b60206040518083038186803b158015611d2e57600080fd5b505af4158015611d42573d6000803e3d6000fd5b505050506040513d601f19601f82011682018060405250810190611d6691906136bb565b611d825760405162461bcd60e51b8152600401610558906148db565b600160118281548110611da557634e487b7160e01b600052603260045260246000fd5b906000526020600020906006020160050160006101000a81548160ff02191690836006811115611de557634e487b7160e01b600052602160045260246000fd5b02179055506001546012546011805473__$94d7d2f22770e4b0d1a2b99fb2812308e2$__93630c5190e2936001600160a01b0391821693911691600a919087908110611e4157634e487b7160e01b600052603260045260246000fd5b60009182526020808320600d548452601b9091526040909220805460069092029092019190611e6f906154e6565b80601f0160208091040260200160405190810160405280929190818152602001828054611e9b906154e6565b8015611ee85780601f10611ebd57610100808354040283529160200191611ee8565b820191906000526020600020905b815481529060010190602001808311611ecb57829003601f168201915b5050505050806020019051810190611f0091906136f3565b6040518663ffffffff1660e01b8152600401611f209594939291906141a2565b60006040518083038186803b158015611f3857600080fd5b505af4158015611f4c573d6000803e3d6000fd5b50506001546011805473__$94d7d2f22770e4b0d1a2b99fb2812308e2$__94506377ae1d7393506001600160a01b039092169185908110611f9d57634e487b7160e01b600052603260045260246000fd5b90600052602060002090600602016004600601601b6016546040518663ffffffff1660e01b8152600401611fd595949392919061429e565b60006040518083038186803b158015611fed57600080fd5b505af4158015612001573d6000803e3d6000fd5b5050505061200e81610674565b61067481612d91565b7fbc197c810000000000000000000000000000000000000000000000000000000098975050505050505050565b61204c613245565b6040805160e081018252600480546001600160a01b03908116835260055481166020840152600654169282019290925260075460608201526008805491929160808401919061209a906154e6565b80601f01602080910402602001604051908101604052809291908181526020018280546120c6906154e6565b80156121135780601f106120e857610100808354040283529160200191612113565b820191906000526020600020905b8154815290600101906020018083116120f657829003601f168201915b5050505050815260200160058201805480602002602001604051908101604052809291908181526020016000905b8282101561227857838290600052602060002090600502016040518060a0016040529081600082015481526020016001820160009054906101000a900460ff1660038111156121a057634e487b7160e01b600052602160045260246000fd5b60038111156121bf57634e487b7160e01b600052602160045260246000fd5b815260200160028201548152602001600382015481526020016004820180546121e7906154e6565b80601f0160208091040260200160405190810160405280929190818152602001828054612213906154e6565b80156122605780601f1061223557610100808354040283529160200191612260565b820191906000526020600020905b81548152906001019060200180831161224357829003601f168201915b50505050508152505081526020019060010190612141565b505050908252506040805160e0810182526006840180546001600160a01b03168252600785015460208381019190915260088601548385015260098601546060840152600a86018054855181840281018401909652808652958201959394929360808601939283018282801561230d57602002820191906000526020600020905b8154815260200190600101908083116122f9575b5050505050815260200160058201805480602002602001604051908101604052809291908181526020016000905b828210156123cf578382906000526020600020906002020160405180604001604052908160008201548152602001600182018054806020026020016040519081016040528092919081815260200182805480156123b757602002820191906000526020600020905b8154815260200190600101908083116123a3575b5050505050815250508152602001906001019061233b565b50505050815260200160068201805480602002602001604051908101604052809291908181526020016000905b8282101561244e57600084815260209081902060408051606081018252600286029092018054835260019081015460ff80821685870152610100909104169183019190915290835290920191016123fc565b50505091525050905250905090565b600a546040517f70a082310000000000000000000000000000000000000000000000000000000081526000916001600160a01b0316906370a08231906124a790309060040161418e565b60206040518083038186803b1580156124bf57600080fd5b505afa1580156124d3573d6000803e3d6000fd5b505050506040513d601f19601f82011682018060405250810190611a7391906136f3565b6000338260405160200161250c92919061416c565b60408051601f1981840301815291815281516020928301206000818152601a9093529120546009805492935061257292909190811061255b57634e487b7160e01b600052603260045260246000fd5b906000526020600020906005020160030154610b16565b6001600160a01b0316336001600160a01b0316146125a25760405162461bcd60e51b81526004016105589061486d565b6000818152601a60205260408120546009805490919081106125d457634e487b7160e01b600052603260045260246000fd5b600091825260209091206001600590920201015460ff16600381111561260a57634e487b7160e01b600052602160045260246000fd5b146126275760405162461bcd60e51b81526004016105589061476b565b6000818152601a602052604090205460098054909190811061265957634e487b7160e01b600052603260045260246000fd5b6000918252602082206005909102018054916126748361552e565b90915550506000818152601a60205260409020546009805461282a929081106126ad57634e487b7160e01b600052603260045260246000fd5b906000526020600020906005020160020154336001600160a01b0316633f4fb5aa600460050160176003016000878152602001908152602001600020548154811061270857634e487b7160e01b600052603260045260246000fd5b90600052602060002090600502016004018054612724906154e6565b80601f0160208091040260200160405190810160405280929190818152602001828054612750906154e6565b801561279d5780601f106127725761010080835404028352916020019161279d565b820191906000526020600020905b81548152906001019060200180831161278057829003601f168201915b50505050508060200190518101906127b591906136f3565b6040518263ffffffff1660e01b81526004016127d191906145df565b60006040518083038186803b1580156127e957600080fd5b505afa1580156127fd573d6000803e3d6000fd5b505050506040513d6000823e601f3d908101601f1916820160405261282591908101906137d3565b612d0e565b6000818152601a602052604081208190556017805491612849836154cf565b90915550506040517f71bd81ebe1d98a2944767394e76a9aff18724b2cf04e1db71254f804544b35c790600090a15050565b61288481610b16565b6001600160a01b0316336001600160a01b0316146128b45760405162461bcd60e51b81526004016105589061486d565b6000828152601c6020526040902054158015906128e057506011546000838152601c6020526040902054145b1561293f5760405163de3a23c560e01b8152339063de3a23c5906129089085906004016145df565b600060405180830381600087803b15801561292257600080fd5b505af1158015612936573d6000803e3d6000fd5b50505050612982565b6000828152601960209081526040822080546001810182559083529082200180546001600160a01b03191633179055601880549161297c8361552e565b91905055505b5050565b60145481565b7ff23a6e61000000000000000000000000000000000000000000000000000000005b9695505050505050565b6001600160e01b031981167f01ffc9a70000000000000000000000000000000000000000000000000000000014919050565b6007546129f8906001615172565b612a02904261515a565b60158281548110612a2357634e487b7160e01b600052603260045260246000fd5b60009182526020909120015550565b60005b600954811015612ce25760006009805483908110612a6357634e487b7160e01b600052603260045260246000fd5b600091825260209091206001600590920201015460ff166003811115612a9957634e487b7160e01b600052602160045260246000fd5b14612add57612ad860046005018281548110612ac557634e487b7160e01b600052603260045260246000fd5b9060005260206000209060050201612e7a565b612cd0565b6000306001600160a01b0316633837b05e60046005018481548110612b1257634e487b7160e01b600052603260045260246000fd5b9060005260206000209060050201600301546040518263ffffffff1660e01b8152600401612b4091906145df565b60206040518083038186803b158015612b5857600080fd5b505afa158015612b6c573d6000803e3d6000fd5b505050506040513d601f19601f82011682018060405250810190612b9091906134c7565b9050612b9c8183612f6e565b806001600160a01b031663df33cc5160046005018481548110612bcf57634e487b7160e01b600052603260045260246000fd5b90600052602060002090600502016004018054612beb906154e6565b80601f0160208091040260200160405190810160405280929190818152602001828054612c17906154e6565b8015612c645780601f10612c3957610100808354040283529160200191612c64565b820191906000526020600020905b815481529060010190602001808311612c4757829003601f168201915b5050505050806020019051810190612c7c91906136f3565b6014546040518363ffffffff1660e01b8152600401612c9c9291906145e8565b600060405180830381600087803b158015612cb657600080fd5b505af1158015612cca573d6000803e3d6000fd5b50505050505b80612cda8161552e565b915050612a35565b506040517f71bd81ebe1d98a2944767394e76a9aff18724b2cf04e1db71254f804544b35c790600090a1565b601154612d1d90600190615191565b6000838152601c602052604090205414612d495760405162461bcd60e51b815260040161055890614cd9565b6000828152601c60205260408120805491612d638361552e565b90915550506000828152601b602090815260409091208251612d87928401906132a2565b5061298282613092565b6013546001600160a01b031615801590612e2c5750601360009054906101000a90046001600160a01b03166001600160a01b031663999925066040518163ffffffff1660e01b815260040160206040518083038186803b158015612df457600080fd5b505afa158015612e08573d6000803e3d6000fd5b505050506040513d601f19601f82011682018060405250810190612e2c91906136bb565b15610674576013546040517fb992db0f0000000000000000000000000000000000000000000000000000000081526001600160a01b039091169063b992db0f90610fed9084906004016145df565b600181015460039060ff1681811115612ea357634e487b7160e01b600052602160045260246000fd5b1115612ec15760405162461bcd60e51b8152600401610558906149b5565b8054816000612ecf8361552e565b9091555060039050600182015460ff166003811115612efe57634e487b7160e01b600052602160045260246000fd5b1461067457610674816002015473__$94d7d2f22770e4b0d1a2b99fb2812308e2$__63b3d73707846040518263ffffffff1660e01b8152600401612f4291906145df565b60006040518083038186803b158015612f5a57600080fd5b505af41580156127fd573d6000803e3d6000fd5b80601760030160008460046005018581548110612f9b57634e487b7160e01b600052603260045260246000fd5b90600052602060002090600502016004018054612fb7906154e6565b80601f0160208091040260200160405190810160405280929190818152602001828054612fe3906154e6565b80156130305780601f1061300557610100808354040283529160200191613030565b820191906000526020600020905b81548152906001019060200180831161301357829003601f168201915b505050505080602001905181019061304891906136f3565b60405160200161305992919061416c565b60408051601f19818403018152918152815160209283012083529082019290925201600090812091909155601780549161297c8361552e565b60005b6000828152601960205260409020548110156129825760008281526019602052604081208054839081106130d957634e487b7160e01b600052603260045260246000fd5b6000918252602090912001546001600160a01b0316146131e857600082815260196020526040902080548290811061312157634e487b7160e01b600052603260045260246000fd5b60009182526020909120015460405163de3a23c560e01b81526001600160a01b039091169063de3a23c59061315a9085906004016145df565b600060405180830381600087803b15801561317457600080fd5b505af1158015613188573d6000803e3d6000fd5b50505060008381526019602052604090208054909150829081106131bc57634e487b7160e01b600052603260045260246000fd5b6000918252602082200180546001600160a01b031916905560188054916131e2836154cf565b91905055505b806131f28161552e565b915050613095565b828054828255906000526020600020908101928215613235579160200282015b8281111561323557825182559160200191906001019061321a565b50613241929150613315565b5090565b6040518060e0016040528060006001600160a01b0316815260200160006001600160a01b0316815260200160006001600160a01b0316815260200160008152602001606081526020016060815260200161329d61332a565b905290565b8280546132ae906154e6565b90600052602060002090601f0160209004810192826132d05760008555613235565b82601f106132e957805160ff1916838001178555613235565b82800160010185558215613235579182018281111561323557825182559160200191906001019061321a565b5b808211156132415760008155600101613316565b6040518060e0016040528060006001600160a01b031681526020016000815260200160008152602001600080191681526020016060815260200160608152602001606081525090565b803561052981615a40565b60008083601f84011261338f578182fd5b50813567ffffffffffffffff8111156133a6578182fd5b60208301915083602080830285010111156133c057600080fd5b9250929050565b600082601f8301126133d7578081fd5b815160206133ec6133e783614f6a565b614f40565b8281528181019085830183850287018401881015613408578586fd5b855b858110156134265781518452928401929084019060010161340a565b5090979650505050505050565b60008083601f840112613444578182fd5b50813567ffffffffffffffff81111561345b578182fd5b6020830191508360208285010111156133c057600080fd5b805161052981615a40565b80516007811061052957600080fd5b600060e0828403121561349e578081fd5b50919050565b6000602082840312156134b5578081fd5b81356134c081615a40565b9392505050565b6000602082840312156134d8578081fd5b81516134c081615a40565b60008060008060008060008060a0898b0312156134fe578384fd5b883561350981615a40565b9750602089013561351981615a40565b9650604089013567ffffffffffffffff80821115613535578586fd5b6135418c838d0161337e565b909850965060608b0135915080821115613559578586fd5b6135658c838d0161337e565b909650945060808b013591508082111561357d578384fd5b5061358a8b828c01613433565b999c989b5096995094979396929594505050565b600080600080608085870312156135b3578182fd5b84356135be81615a40565b935060208501356135ce81615a40565b925060408501359150606085013567ffffffffffffffff8111156135f0578182fd5b6135fc8782880161348d565b91505092959194509250565b60008060008060008060a08789031215613620578384fd5b863561362b81615a40565b9550602087013561363b81615a40565b94506040870135935060608701359250608087013567ffffffffffffffff811115613664578283fd5b61367089828a01613433565b979a9699509497509295939492505050565b60008060408385031215613694578182fd5b825161369f81615a40565b60208401519092506136b081615a40565b809150509250929050565b6000602082840312156136cc578081fd5b815180151581146134c0578182fd5b6000602082840312156136ec578081fd5b5035919050565b600060208284031215613704578081fd5b5051919050565b6000806040838503121561371d578182fd5b82359150602083013567ffffffffffffffff81111561373a578182fd5b8301601f8101851361374a578182fd5b80356137586133e782614f8e565b81815286602083850101111561376c578384fd5b81602084016020830137908101602001929092525090939092509050565b6000806040838503121561379c578182fd5b50508035926020909101359150565b6000602082840312156137bc578081fd5b81356001600160e01b0319811681146134c0578182fd5b6000602082840312156137e4578081fd5b815167ffffffffffffffff8111156137fa578182fd5b8201601f8101841361380a578182fd5b80516138186133e782614f8e565b81815285602083850101111561382c578384fd5b61383d82602083016020860161549f565b95945050505050565b60008060008060006080868803121561385d578283fd5b853561386881615a40565b94506020860135935060408601359250606086013567ffffffffffffffff811115613891578182fd5b61389d8882890161337e565b969995985093965092949392505050565b6000602082840312156138bf578081fd5b815167ffffffffffffffff808211156138d6578283fd5b9083019060c082860312156138e9578283fd5b60405160c0810181811083821117156139045761390461558b565b60405261391083613473565b8152602083015160208201526040830151604082015260608301516060820152608083015182811115613941578485fd5b61394d878286016133c7565b60808301525061395f60a0840161347e565b60a082015295945050505050565b60006020828403121561397e578081fd5b813567ffffffffffffffff811115613994578182fd5b6139a08482850161348d565b949350505050565b6000806000604084860312156139bc578081fd5b83359250602084013567ffffffffffffffff8111156139d9578182fd5b6139e58682870161337e565b9497909650939450505050565b60008060408385031215613a04578182fd5b8235915060208084013567ffffffffffffffff811115613a22578283fd5b8401601f81018613613a32578283fd5b8035613a406133e782614f6a565b81815283810190838501858402850186018a1015613a5c578687fd5b8694505b83851015613a7e578035835260019490940193918501918501613a60565b5080955050505050509250929050565b6001600160a01b03169052565b60008284527f07ffffffffffffffffffffffffffffffffffffffffffffffffffffffffffffff831115613acc578081fd5b6020830280836020870137939093016020019283525090919050565b818352602080840193600091908185020181018584845b87811015613b8d5782840389528135609e19883603018112613b1f578687fd5b87018035855260a086820135613b3481615a55565b613b4088880182613dd1565b5060408281013590870152606080830135908701526080613b63818401846150f7565b93508282890152613b778389018583613d7b565b9c89019c97505050928601925050600101613aff565b5091979650505050505050565b6000815180845260208085018081965082840281019150828601855b85811015613b8d578284038952815160a08151865286820151613bdb88880182613dd1565b506040828101519087015260608083015190870152608091820151918601819052613c0881870183613da5565b9a87019a9550505090840190600101613bb6565b60008284526020808501945082825b85811015613c75578135875282820135613c4481615a62565b60ff9081168885015260409083820135613c5d81615a62565b16908801526060968701969190910190600101613c2b565b509495945050505050565b6000815180845260208085019450808401835b83811015613c75578151805188528381015160ff908116858a0152604091820151169088015260609096019590820190600101613c93565b6000815480845260208085019450838352808320835b83811015613c75578154875260018083015460ff808216868b015260089190911c16604089015260609097019660029092019101613ce1565b6000815180845260208085019450808401835b83811015613c7557815187529582019590820190600101613d2d565b6000815480845260208085019450838352808320835b83811015613c7557815487529582019560019182019101613d5f565b60008284528282602086013780602084860101526020601f19601f85011685010190509392505050565b60008151808452613dbd81602086016020860161549f565b601f01601f19169290920160200192915050565b60048110613de157613de1615575565b9052565b60078110613de157613de1615575565b60008135613e0281615a40565b6001600160a01b03168352602082810135818501526040808401358186015260608085013590860152613e386080850185615067565b60e06080880152613e4d60e088018284613a9b565b915050613e5d60a0860186615067565b87830360a08901528083528483018582028401860183885b84811015613ed457868303601f19018452813536879003603e19018112613e9a578a8bfd5b860180358452613eac8a820182615067565b9150898b860152613ec08a86018383613a9b565b958b01959450505090880190600101613e75565b5050613ee360c08a018a6150af565b9750955089810360c08b0152613efa818888613c1c565b9a9950505050505050505050565b60006001600160a01b038251168352602080830151818501526040808401518186015260608085015181870152608085015160e06080880152613f4e60e0880182613d1a565b905060a086015187820360a08901528181518084528684019150868782028501018784019350885b82811015613fde57858203601f190184528451805183528901518983018990528051898401819052908a01908b90898501905b80831015613fc95783518252928c019260019290920191908c0190613fa9565b50968b0196958b019593505050600101613f76565b5060c08a015197508a810360c08c0152613ff88189613c80565b9b9a5050505050505050505050565b60006001600160a01b038254168352600180830154602081818701526002850154915060408281880152600386015492506060838189015260e0608089015261405660e0890160048901613d49565b88810360a08a01526005880180548083529088528488209195508486019085810287018601895b828110156140e557888203601f19018452845482528782018790528985018054888401819052908c52888c20908c90888501905b808310156140ce5783548252928d0192918d0191908b01906140b1565b5060029790970196958a019593505050890161407d565b508b810360c08d01526140fb8160068d01613ccb565b9c9b505050505050505050505050565b60006001600160a01b03825416835260018201546020840152600282015460408401526003820154606084015260c0608084015261414f60c0840160048401613d49565b60ff60058401541661416460a0860182613de5565b509392505050565b60609290921b6bffffffffffffffffffffffff19168252601482015260340190565b6001600160a01b0391909116815260200190565b60006001600160a01b03808816835280871660208401525060a060408301526141ce60a0830186614007565b82810360608401526141e0818661410b565b9150508260808301529695505050505050565b60006001600160a01b038087168352608060208401526142166080840187614007565b94166040830152506060015292915050565b6001600160a01b03929092168252602082015260400190565b6000606082016001600160a01b038616835260208581850152606060408501528185518084526080860191508287019350845b8181101561429057845183529383019391830191600101614274565b509098975050505050505050565b60006001600160a01b038716825260a060208301526142c060a083018761410b565b82810360408401526142d28187614007565b60608401959095525050608001529392505050565b60006001600160a01b038516825260606020830152833561430781615a40565b6143146060840182613a8e565b5061432160208501613373565b61432e6080840182613a8e565b5061433b60408501613373565b61434860a0840182613a8e565b50606084013560c083015261436060808501856150f7565b60e08085015261437561014085018284613d7b565b91505061438560a0860186615067565b605f19808685030161010087015261439e848385613ae8565b93506143ad60c089018961513c565b9250808685030161012087015250506143c68282613df5565b92505050826040830152949350505050565b6020808252825182820181905260009190848201906040850190845b818110156144195783516001600160a01b0316835292840192918401916001016143f4565b50909695505050505050565b60208082528251828201819052600091906040908185019080840286018301878501865b8381101561429057603f19898403018552815160c06001600160a01b038251168552888201518986015287820151888601526060808301518187015250608080830151828288015261449d83880182613d1a565b9250505060a08083015192506144b581870184613de5565b509588019593505090860190600101614449565b60006040820160408352808554808352606092508285019150602083818302870101888652818620865b848110156145c257605f1989840301865260a082548452600160ff818501541661451f87870182613dd1565b5060028401546040860152600384015489860152600484018260808701528a8154614549816154e6565b94880185905260c0948185168015614568576001811461457c576145a7565b60ff1983168a88015260e08a0193506145a7565b848f528a8f208f5b8381101561459f5781548c82018a0152908701908c01614584565b8b0188019450505b505050988701989550505060059290920191506001016144f3565b50509501959095525091949350505050565b901515815260200190565b90815260200190565b918252602082015260400190565b92835260ff918216602084015216604082015260600190565b6001600160e01b031991909116815260200190565b6000602082526134c06020830184613da5565b60006001600160a01b038716825285602083015284604083015260806060830152614666608083018486613a9b565b979650505050505050565b600060a0820190506001600160a01b03871682528560208301528460408301528360608301526129ae6080830184613de5565b60006001600160a01b038089168352808816602084015280871660408401525084606083015260c060808301526146de60c0830185613da5565b82810360a08401526146f08185613f08565b9998505050505050505050565b60208082526016908201527f6f6e6c7920496e67657374547970652e4d616e75616c00000000000000000000604082015260600190565b6020808252600a908201527f4f6e6c794b656570657200000000000000000000000000000000000000000000604082015260600190565b60208082526013908201527f496e67657374206e6f742043616c6c6261636b00000000000000000000000000604082015260600190565b60208082526010908201527f536f6c76657220686173206368696c6400000000000000000000000000000000604082015260600190565b60208082526026908201527f7061796f7574732e6c656e677468206d757374206d61746368206f7574636f6d60408201527f65536c6f74730000000000000000000000000000000000000000000000000000606082015260800190565b60208082526016908201527f436f6e646974696f6e206e6f7420457865637574656400000000000000000000604082015260600190565b60208082526015908201527f6d73672e73656e646572206e6f7420736f6c7665720000000000000000000000604082015260600190565b60208082526018908201527f496e76616c696420696e64657820746f20707265706172650000000000000000604082015260600190565b6020808252818101527f526563697069656e7420736c6f74207265717569726573207570646174696e67604082015260600190565b6020808252600b908201527f4f6e6c79204b6565706572000000000000000000000000000000000000000000604082015260600190565b60208082526015908201527f54696d656c6f636b207374696c6c206c6f636b65640000000000000000000000604082015260600190565b6020808252600f908201527f696e676573747320696e76616c69640000000000000000000000000000000000604082015260600190565b60208082526012908201527f496e76616c696420696e67657374547970650000000000000000000000000000604082015260600190565b60208082526018908201527f4e6f74204172626974726174696f6e5265717565737465640000000000000000604082015260600190565b6020808252602e908201527f496e697469616c697a61626c653a20636f6e747261637420697320616c72656160408201527f647920696e697469616c697a6564000000000000000000000000000000000000606082015260800190565b60208082526011908201527f536c6f7420696e76616c6964207665722e000000000000000000000000000000604082015260600190565b6020808252600f908201527f4f6e6c792061726269747261746f720000000000000000000000000000000000604082015260600190565b6020808252600e908201527f4b656570657220696e76616c6964000000000000000000000000000000000000604082015260600190565b60208082526014908201527f4f7574636f6d65206e6f742070726f706f736564000000000000000000000000604082015260600190565b60208082526013908201527f4e6f74204f7574636f6d6550726f706f73656400000000000000000000000000604082015260600190565b6020808252818101527f46756c66696c6c206f7574676f696e672063616c6c6261636b73206669727374604082015260600190565b6020808252818101527f46756c66696c6c20696e636f6d696e672063616c6c6261636b73206669727374604082015260600190565b60208082526016908201527f4e6f74204172626974726174696f6e50656e64696e6700000000000000000000604082015260600190565b6020808252600b908201527f4f6e6c79206b6565706572000000000000000000000000000000000000000000604082015260600190565b60208082526012908201527f4f6e6c79206b65657065722f706172656e740000000000000000000000000000604082015260600190565b6020808252600e908201527f547261636b696e67496420736574000000000000000000000000000000000000604082015260600190565b60208082526014908201527f536c6f742076657273696f6e20696e76616c6964000000000000000000000000604082015260600190565b6020808252600d908201527f6e6f7420496e6974696174656400000000000000000000000000000000000000604082015260600190565b60008482526040602083015261383d604083018486613a9b565b6000602082526001600160a01b03808451166020840152806020850151166040840152506040830151614d976060840182613a8e565b5060608301516080830152608083015160e060a0840152614dbc610100840182613da5565b905060a0840151601f19808584030160c0860152614dda8383613b9a565b925060c08601519150808584030160e08601525061383d8282613f08565b9283526020830191909152604082015260600190565b6000808335601e19843603018112614e24578283fd5b83018035915067ffffffffffffffff821115614e3e578283fd5b60209081019250810236038213156133c057600080fd5b6000808335601e19843603018112614e24578182fd5b6000808335601e19843603018112614e81578182fd5b83018035915067ffffffffffffffff821115614e9b578283fd5b60200191506060810236038213156133c057600080fd5b6000808335601e19843603018112614ec8578283fd5b83018035915067ffffffffffffffff821115614ee2578283fd5b6020019150368190038213156133c057600080fd5b60008235603e19833603018112614f0c578182fd5b9190910192915050565b6000823560de19833603018112614f0c578182fd5b60008235609e19833603018112614f0c578182fd5b60405181810167ffffffffffffffff81118282101715614f6257614f6261558b565b604052919050565b600067ffffffffffffffff821115614f8457614f8461558b565b5060209081020190565b600067ffffffffffffffff821115614fa857614fa861558b565b50601f01601f191660200190565b60009081526020902090565b60208410801561501857601f841160018114614fe957614fe2868561551b565b8355615012565b614ff283614fb6565b6150076020601f8801048201600183016151a8565b506150128684615601565b506109f8565b8160005260206000206020601f8701048101601f87168015615042576150428160001984016155a1565b506150556020601f8801048301826151a8565b50506001856002021782555050505050565b6000808335601e1984360301811261507d578283fd5b830160208101925035905067ffffffffffffffff81111561509d57600080fd5b6020810236038313156133c057600080fd5b6000808335601e198436030181126150c5578283fd5b830160208101925035905067ffffffffffffffff8111156150e557600080fd5b6060810236038313156133c057600080fd5b6000808335601e1984360301811261510d578283fd5b830160208101925035905067ffffffffffffffff81111561512d57600080fd5b8036038313156133c057600080fd5b6000823560de19833603018112615151578182fd5b90910192915050565b6000821982111561516d5761516d61555f565b500190565b600081600019048311821515161561518c5761518c61555f565b500290565b6000828210156151a3576151a361555f565b500390565b5b8181101561298257600081556001016151a9565b680100000000000000008311156151d6576151d661558b565b805483825580841015615274577f7fffffffffffffffffffffffffffffffffffffffffffffffffffffffffffffff60018183118116156152185761521861555f565b600282871182161561522c5761522c61555f565b600085815260208120909350878202810190828602015b8082101561526e576152578586845461561f565b8255615265858584016155b5565b90820190615243565b50505050505b508161527f82614fb6565b6000805b868110156152b55761529f6152988588614ef7565b838561591d565b6020939093019260029290920191600101615283565b50505050505050565b680100000000000000008311156152d7576152d761558b565b80548382558084101561536f577f7fffffffffffffffffffffffffffffffffffffffffffffffffffffffffffffff60018183118116156153195761531961555f565b600282871182161561532d5761532d61555f565b600085815260208120909350878202810190828602015b80821015615369576153588586845461561f565b825584848301558282019150615344565b50505050505b508161537a82614fb6565b6000805b868110156152b5576153918483856159e5565b606093909301926002929092019160010161537e565b67ffffffffffffffff8311156153bf576153bf61558b565b6153c981546154e6565b600080601f8611601f8411818117156153e8576153e586614fb6565b92505b8015615417576020601f890104830160208910156154035750825b6154156020601f8801048501826151a8565b505b50806001811461544357600094508715615432578387013594505b61543c888661551b565b8655615495565b601f198816945082845b8681101561546d578886013582556020958601956001909201910161544d565b508886101561548a57878501356000196008601f8c16021c191681555b506001600289020186555b5050505050505050565b60005b838110156154ba5781810151838201526020016154a2565b838111156154c9576000848401525b50505050565b6000816154de576154de61555f565b506000190190565b6002810460018216806154fa57607f821691505b6020821081141561349e57634e487b7160e01b600052602260045260246000fd5b600019600883021c191660029091021790565b60006000198214156155425761554261555f565b5060010190565b634e487b7160e01b600052600060045260246000fd5b634e487b7160e01b600052601160045260246000fd5b634e487b7160e01b600052602160045260246000fd5b634e487b7160e01b600052604160045260246000fd5b8054600019836020036008021c1681555050565b680100000000000000008211156155ce576155ce61558b565b805482825580831015611717576000828152602081208481019083015b808210156119c3578282556001820191506155eb565b80600052602060002061561583825461551b565b9091556000905550565b60089190910291821b60001990921b9182169119161790565b6001600160a01b0382166001600160a01b03198254161781555050565b813561566081615a40565b61566a8183615638565b5060016020808401358284015560408401356002840155606084013560038401556004830161569c6080860186614e0e565b680100000000000000008111156156b5576156b561558b565b8254818455808210156156da5783600052846000206156d88282018483016151a8565b505b506000928352838320925b818110156157005782358455928501929184019185016156e5565b50505050505061571360a0830183614e0e565b6157218183600586016151bd565b505061573060c0830183614e6b565b6154c98183600686016152be565b813561574981615a40565b6157538183615638565b50600160208084013561576581615a40565b61577181848601615638565b506002604085013561578281615a40565b61578e81838701615638565b50600360608601358186015560046157a96080880188614eb2565b6157b68183858b016153a7565b505060058087016157ca60a08a018a614e0e565b680100000000000000008111156157e3576157e361558b565b8254818455808210156158b7577f33333333333333333333333333333333333333333333333333333333333333338082118b16156158235761582361555f565b8083118b16156158355761583561555f565b506000848152898120838702810190878402015b808210156158b35761585d8384845461561f565b8255828d8301558a82016158738485835461561f565b8155508982016158858485835461561f565b90558189018054615895816154e6565b80156158a7576158a786828486614fc2565b50505090870190615849565b5050505b508196506158c483614fb6565b9550600094508492505b808310156158fb576158ea6158e38884614f2b565b8688615971565b9587019594830194918801916158ce565b50505050505050505061298261591460c0840184614f16565b60068301615655565b811561592b5761592b615549565b823581556001808201602061594281870187614e0e565b61594c81856155b5565b6000938452828420935b81811015610aa8578235855593850193918301918501615956565b811561597f5761597f615549565b8235815560018101602084013561599581615a55565b600481106159a5576159a5615575565b60ff1982541660ff82168117835550505060408301356002820155606083013560038201556159d76080840184614eb2565b6109f88183600486016153a7565b81156159f3576159f3615549565b82358155600181016020840135615a0981615a62565b815460ff191660ff91909116178082556040850135615a2781615a62565b61ff008160081b1661ff00198316178355505050505050565b6001600160a01b038116811461067457600080fd5b6004811061067457600080fd5b60ff8116811461067457600080fdfea264697066735822122041b8b83bb78af8e60dea9bea49776ee3aa4864874bbb809b38814accf9e35fde64736f6c63430008000033",
  "linkReferences": {
    "contracts/SolverLib.sol": {
      "SolverLib": [
        {
          "length": 20,
          "start": 1529
        },
        {
          "length": 20,
          "start": 1820
        },
        {
          "length": 20,
          "start": 2430
        },
        {
          "length": 20,
          "start": 3597
        },
        {
          "length": 20,
          "start": 4317
        },
        {
          "length": 20,
          "start": 4535
        },
        {
          "length": 20,
          "start": 5784
        },
        {
          "length": 20,
          "start": 6471
        },
        {
          "length": 20,
          "start": 6682
        },
        {
          "length": 20,
          "start": 7433
        },
        {
          "length": 20,
          "start": 7703
        },
        {
          "length": 20,
          "start": 8056
        },
        {
          "length": 20,
          "start": 12078
        }
      ]
    }
  },
  "deployedLinkReferences": {
    "contracts/SolverLib.sol": {
      "SolverLib": [
        {
          "length": 20,
          "start": 1496
        },
        {
          "length": 20,
          "start": 1787
        },
        {
          "length": 20,
          "start": 2397
        },
        {
          "length": 20,
          "start": 3564
        },
        {
          "length": 20,
          "start": 4284
        },
        {
          "length": 20,
          "start": 4502
        },
        {
          "length": 20,
          "start": 5751
        },
        {
          "length": 20,
          "start": 6438
        },
        {
          "length": 20,
          "start": 6649
        },
        {
          "length": 20,
          "start": 7400
        },
        {
          "length": 20,
          "start": 7670
        },
        {
          "length": 20,
          "start": 8023
        },
        {
          "length": 20,
          "start": 12045
        }
      ]
    }
  }
}