{
  "_format": "hh-sol-artifact-1",
  "contractName": "BasicSolverV1",
  "sourceName": "contracts/BasicSolverV1.sol",
  "abi": [
    {
      "anonymous": false,
      "inputs": [
        {
          "indexed": false,
          "internalType": "address",
          "name": "chainChild",
          "type": "address"
        }
      ],
      "name": "DeployedChild",
      "type": "event"
    },
    {
      "anonymous": false,
      "inputs": [],
      "name": "IngestedData",
      "type": "event"
    },
    {
      "anonymous": false,
      "inputs": [
        {
          "indexed": false,
          "internalType": "address",
          "name": "solver",
          "type": "address"
        },
        {
          "indexed": false,
          "internalType": "uint256",
          "name": "solveIndex",
          "type": "uint256"
        }
      ],
      "name": "PreparedSolve",
      "type": "event"
    },
    {
      "inputs": [
        {
          "internalType": "bytes32",
          "name": "_slot",
          "type": "bytes32"
        },
        {
          "internalType": "bytes",
          "name": "_data",
          "type": "bytes"
        }
      ],
      "name": "addData",
      "outputs": [],
      "stateMutability": "nonpayable",
      "type": "function"
    },
    {
      "inputs": [
        {
          "internalType": "uint256",
          "name": "_index",
          "type": "uint256"
        }
      ],
      "name": "addressFromChainIndex",
      "outputs": [
        {
          "internalType": "address",
          "name": "_address",
          "type": "address"
        }
      ],
      "stateMutability": "view",
      "type": "function"
    },
    {
      "inputs": [
        {
          "internalType": "uint256",
          "name": "_index",
          "type": "uint256"
        },
        {
          "internalType": "uint256[]",
          "name": "payouts",
          "type": "uint256[]"
        }
      ],
      "name": "arbitrate",
      "outputs": [],
      "stateMutability": "nonpayable",
      "type": "function"
    },
    {
      "inputs": [
        {
          "internalType": "uint256",
          "name": "_index",
          "type": "uint256"
        }
      ],
      "name": "arbitrateNull",
      "outputs": [],
      "stateMutability": "nonpayable",
      "type": "function"
    },
    {
      "inputs": [
        {
          "internalType": "uint256",
          "name": "_index",
          "type": "uint256"
        }
      ],
      "name": "arbitrationPending",
      "outputs": [],
      "stateMutability": "nonpayable",
      "type": "function"
    },
    {
      "inputs": [
        {
          "internalType": "uint256",
          "name": "_index",
          "type": "uint256"
        }
      ],
      "name": "arbitrationRequested",
      "outputs": [],
      "stateMutability": "nonpayable",
      "type": "function"
    },
    {
      "inputs": [],
      "name": "chainChild",
      "outputs": [
        {
          "internalType": "address",
          "name": "",
          "type": "address"
        }
      ],
      "stateMutability": "view",
      "type": "function"
    },
    {
      "inputs": [],
      "name": "chainIndex",
      "outputs": [
        {
          "internalType": "uint256",
          "name": "",
          "type": "uint256"
        }
      ],
      "stateMutability": "view",
      "type": "function"
    },
    {
      "inputs": [],
      "name": "chainParent",
      "outputs": [
        {
          "internalType": "address",
          "name": "",
          "type": "address"
        }
      ],
      "stateMutability": "view",
      "type": "function"
    },
    {
      "inputs": [],
      "name": "collateralBalance",
      "outputs": [
        {
          "internalType": "uint256",
          "name": "balance",
          "type": "uint256"
        }
      ],
      "stateMutability": "view",
      "type": "function"
    },
    {
      "inputs": [
        {
          "internalType": "uint256",
          "name": "",
          "type": "uint256"
        }
      ],
      "name": "conditions",
      "outputs": [
        {
          "internalType": "contract IERC20",
          "name": "collateralToken",
          "type": "address"
        },
        {
          "internalType": "bytes32",
          "name": "questionId",
          "type": "bytes32"
        },
        {
          "internalType": "bytes32",
          "name": "parentCollectionId",
          "type": "bytes32"
        },
        {
          "internalType": "bytes32",
          "name": "conditionId",
          "type": "bytes32"
        },
        {
          "internalType": "enum SolverLib.Status",
          "name": "status",
          "type": "uint8"
        }
      ],
      "stateMutability": "view",
      "type": "function"
    },
    {
      "inputs": [],
      "name": "config",
      "outputs": [
        {
          "internalType": "contract Solver",
          "name": "implementation",
          "type": "address"
        },
        {
          "internalType": "address",
          "name": "keeper",
          "type": "address"
        },
        {
          "internalType": "address",
          "name": "arbitrator",
          "type": "address"
        },
        {
          "internalType": "uint256",
          "name": "timelockSeconds",
          "type": "uint256"
        },
        {
          "internalType": "bytes",
          "name": "data",
          "type": "bytes"
        },
        {
          "components": [
            {
              "internalType": "contract IERC20",
              "name": "collateralToken",
              "type": "address"
            },
            {
              "internalType": "uint256",
              "name": "outcomeSlots",
              "type": "uint256"
            },
            {
              "internalType": "uint256",
              "name": "parentCollectionIndexSet",
              "type": "uint256"
            },
            {
              "internalType": "bytes32",
              "name": "amountSlot",
              "type": "bytes32"
            },
            {
              "internalType": "uint256[]",
              "name": "partition",
              "type": "uint256[]"
            },
            {
              "components": [
                {
                  "internalType": "bytes32",
                  "name": "recipientAddressSlot",
                  "type": "bytes32"
                },
                {
                  "internalType": "bytes32[]",
                  "name": "recipientAmountSlots",
                  "type": "bytes32[]"
                }
              ],
              "internalType": "struct SolverLib.Allocation[]",
              "name": "allocations",
              "type": "tuple[]"
            },
            {
              "components": [
                {
                  "internalType": "bytes32",
                  "name": "digest",
                  "type": "bytes32"
                },
                {
                  "internalType": "uint8",
                  "name": "hashFunction",
                  "type": "uint8"
                },
                {
                  "internalType": "uint8",
                  "name": "size",
                  "type": "uint8"
                }
              ],
              "internalType": "struct SolverLib.Multihash[]",
              "name": "outcomeURIs",
              "type": "tuple[]"
            }
          ],
          "internalType": "struct SolverLib.ConditionBase",
          "name": "conditionBase",
          "type": "tuple"
        }
      ],
      "stateMutability": "view",
      "type": "function"
    },
    {
      "inputs": [
        {
          "internalType": "uint256",
          "name": "_index",
          "type": "uint256"
        }
      ],
      "name": "confirmPayouts",
      "outputs": [],
      "stateMutability": "nonpayable",
      "type": "function"
    },
    {
      "inputs": [
        {
          "components": [
            {
              "internalType": "contract Solver",
              "name": "implementation",
              "type": "address"
            },
            {
              "internalType": "address",
              "name": "keeper",
              "type": "address"
            },
            {
              "internalType": "address",
              "name": "arbitrator",
              "type": "address"
            },
            {
              "internalType": "uint256",
              "name": "timelockSeconds",
              "type": "uint256"
            },
            {
              "internalType": "bytes",
              "name": "data",
              "type": "bytes"
            },
            {
              "components": [
                {
                  "internalType": "uint256",
                  "name": "executions",
                  "type": "uint256"
                },
                {
                  "internalType": "enum SolverLib.IngestType",
                  "name": "ingestType",
                  "type": "uint8"
                },
                {
                  "internalType": "bytes32",
                  "name": "slot",
                  "type": "bytes32"
                },
                {
                  "internalType": "uint256",
                  "name": "solverIndex",
                  "type": "uint256"
                },
                {
                  "internalType": "bytes",
                  "name": "data",
                  "type": "bytes"
                }
              ],
              "internalType": "struct SolverLib.Ingest[]",
              "name": "ingests",
              "type": "tuple[]"
            },
            {
              "components": [
                {
                  "internalType": "contract IERC20",
                  "name": "collateralToken",
                  "type": "address"
                },
                {
                  "internalType": "uint256",
                  "name": "outcomeSlots",
                  "type": "uint256"
                },
                {
                  "internalType": "uint256",
                  "name": "parentCollectionIndexSet",
                  "type": "uint256"
                },
                {
                  "internalType": "bytes32",
                  "name": "amountSlot",
                  "type": "bytes32"
                },
                {
                  "internalType": "uint256[]",
                  "name": "partition",
                  "type": "uint256[]"
                },
                {
                  "components": [
                    {
                      "internalType": "bytes32",
                      "name": "recipientAddressSlot",
                      "type": "bytes32"
                    },
                    {
                      "internalType": "bytes32[]",
                      "name": "recipientAmountSlots",
                      "type": "bytes32[]"
                    }
                  ],
                  "internalType": "struct SolverLib.Allocation[]",
                  "name": "allocations",
                  "type": "tuple[]"
                },
                {
                  "components": [
                    {
                      "internalType": "bytes32",
                      "name": "digest",
                      "type": "bytes32"
                    },
                    {
                      "internalType": "uint8",
                      "name": "hashFunction",
                      "type": "uint8"
                    },
                    {
                      "internalType": "uint8",
                      "name": "size",
                      "type": "uint8"
                    }
                  ],
                  "internalType": "struct SolverLib.Multihash[]",
                  "name": "outcomeURIs",
                  "type": "tuple[]"
                }
              ],
              "internalType": "struct SolverLib.ConditionBase",
              "name": "conditionBase",
              "type": "tuple"
            }
          ],
          "internalType": "struct SolverLib.Config",
          "name": "_config",
          "type": "tuple"
        }
      ],
      "name": "deployChild",
      "outputs": [
        {
          "internalType": "contract Solver",
          "name": "_solver",
          "type": "address"
        }
      ],
      "stateMutability": "nonpayable",
      "type": "function"
    },
    {
      "inputs": [
        {
          "internalType": "uint256",
          "name": "_index",
          "type": "uint256"
        }
      ],
      "name": "executeSolve",
      "outputs": [],
      "stateMutability": "nonpayable",
      "type": "function"
    },
    {
      "inputs": [
        {
          "internalType": "bytes32",
          "name": "_slot",
          "type": "bytes32"
        }
      ],
      "name": "getCallbackOutput",
      "outputs": [
        {
          "internalType": "bytes",
          "name": "data",
          "type": "bytes"
        }
      ],
      "stateMutability": "view",
      "type": "function"
    },
    {
      "inputs": [],
      "name": "getConditions",
      "outputs": [
        {
          "components": [
            {
              "internalType": "contract IERC20",
              "name": "collateralToken",
              "type": "address"
            },
            {
              "internalType": "bytes32",
              "name": "questionId",
              "type": "bytes32"
            },
            {
              "internalType": "bytes32",
              "name": "parentCollectionId",
              "type": "bytes32"
            },
            {
              "internalType": "bytes32",
              "name": "conditionId",
              "type": "bytes32"
            },
            {
              "internalType": "uint256[]",
              "name": "payouts",
              "type": "uint256[]"
            },
            {
              "internalType": "enum SolverLib.Status",
              "name": "status",
              "type": "uint8"
            }
          ],
          "internalType": "struct SolverLib.Condition[]",
          "name": "",
          "type": "tuple[]"
        }
      ],
      "stateMutability": "view",
      "type": "function"
    },
    {
      "inputs": [],
      "name": "getConfig",
      "outputs": [
        {
          "components": [
            {
              "internalType": "contract Solver",
              "name": "implementation",
              "type": "address"
            },
            {
              "internalType": "address",
              "name": "keeper",
              "type": "address"
            },
            {
              "internalType": "address",
              "name": "arbitrator",
              "type": "address"
            },
            {
              "internalType": "uint256",
              "name": "timelockSeconds",
              "type": "uint256"
            },
            {
              "internalType": "bytes",
              "name": "data",
              "type": "bytes"
            },
            {
              "components": [
                {
                  "internalType": "uint256",
                  "name": "executions",
                  "type": "uint256"
                },
                {
                  "internalType": "enum SolverLib.IngestType",
                  "name": "ingestType",
                  "type": "uint8"
                },
                {
                  "internalType": "bytes32",
                  "name": "slot",
                  "type": "bytes32"
                },
                {
                  "internalType": "uint256",
                  "name": "solverIndex",
                  "type": "uint256"
                },
                {
                  "internalType": "bytes",
                  "name": "data",
                  "type": "bytes"
                }
              ],
              "internalType": "struct SolverLib.Ingest[]",
              "name": "ingests",
              "type": "tuple[]"
            },
            {
              "components": [
                {
                  "internalType": "contract IERC20",
                  "name": "collateralToken",
                  "type": "address"
                },
                {
                  "internalType": "uint256",
                  "name": "outcomeSlots",
                  "type": "uint256"
                },
                {
                  "internalType": "uint256",
                  "name": "parentCollectionIndexSet",
                  "type": "uint256"
                },
                {
                  "internalType": "bytes32",
                  "name": "amountSlot",
                  "type": "bytes32"
                },
                {
                  "internalType": "uint256[]",
                  "name": "partition",
                  "type": "uint256[]"
                },
                {
                  "components": [
                    {
                      "internalType": "bytes32",
                      "name": "recipientAddressSlot",
                      "type": "bytes32"
                    },
                    {
                      "internalType": "bytes32[]",
                      "name": "recipientAmountSlots",
                      "type": "bytes32[]"
                    }
                  ],
                  "internalType": "struct SolverLib.Allocation[]",
                  "name": "allocations",
                  "type": "tuple[]"
                },
                {
                  "components": [
                    {
                      "internalType": "bytes32",
                      "name": "digest",
                      "type": "bytes32"
                    },
                    {
                      "internalType": "uint8",
                      "name": "hashFunction",
                      "type": "uint8"
                    },
                    {
                      "internalType": "uint8",
                      "name": "size",
                      "type": "uint8"
                    }
                  ],
                  "internalType": "struct SolverLib.Multihash[]",
                  "name": "outcomeURIs",
                  "type": "tuple[]"
                }
              ],
              "internalType": "struct SolverLib.ConditionBase",
              "name": "conditionBase",
              "type": "tuple"
            }
          ],
          "internalType": "struct SolverLib.Config",
          "name": "",
          "type": "tuple"
        }
      ],
      "stateMutability": "view",
      "type": "function"
    },
    {
      "inputs": [
        {
          "internalType": "bytes32",
          "name": "_slot",
          "type": "bytes32"
        }
      ],
      "name": "getData",
      "outputs": [
        {
          "internalType": "bytes",
          "name": "data",
          "type": "bytes"
        }
      ],
      "stateMutability": "view",
      "type": "function"
    },
    {
      "inputs": [
        {
          "internalType": "bytes32",
          "name": "slot",
          "type": "bytes32"
        }
      ],
      "name": "getOutgoingCallbacks",
      "outputs": [
        {
          "internalType": "address[]",
          "name": "",
          "type": "address[]"
        }
      ],
      "stateMutability": "view",
      "type": "function"
    },
    {
      "inputs": [
        {
          "internalType": "bytes32",
          "name": "_slot",
          "type": "bytes32"
        }
      ],
      "name": "handleCallback",
      "outputs": [],
      "stateMutability": "nonpayable",
      "type": "function"
    },
    {
      "inputs": [],
      "name": "ingestsValid",
      "outputs": [
        {
          "internalType": "bool",
          "name": "",
          "type": "bool"
        }
      ],
      "stateMutability": "view",
      "type": "function"
    },
    {
      "inputs": [
        {
          "internalType": "address",
          "name": "_ctfAddress",
          "type": "address"
        },
        {
          "internalType": "address",
          "name": "_chainParent",
          "type": "address"
        },
        {
          "internalType": "uint256",
          "name": "_chainIndex",
          "type": "uint256"
        },
        {
          "components": [
            {
              "internalType": "contract Solver",
              "name": "implementation",
              "type": "address"
            },
            {
              "internalType": "address",
              "name": "keeper",
              "type": "address"
            },
            {
              "internalType": "address",
              "name": "arbitrator",
              "type": "address"
            },
            {
              "internalType": "uint256",
              "name": "timelockSeconds",
              "type": "uint256"
            },
            {
              "internalType": "bytes",
              "name": "data",
              "type": "bytes"
            },
            {
              "components": [
                {
                  "internalType": "uint256",
                  "name": "executions",
                  "type": "uint256"
                },
                {
                  "internalType": "enum SolverLib.IngestType",
                  "name": "ingestType",
                  "type": "uint8"
                },
                {
                  "internalType": "bytes32",
                  "name": "slot",
                  "type": "bytes32"
                },
                {
                  "internalType": "uint256",
                  "name": "solverIndex",
                  "type": "uint256"
                },
                {
                  "internalType": "bytes",
                  "name": "data",
                  "type": "bytes"
                }
              ],
              "internalType": "struct SolverLib.Ingest[]",
              "name": "ingests",
              "type": "tuple[]"
            },
            {
              "components": [
                {
                  "internalType": "contract IERC20",
                  "name": "collateralToken",
                  "type": "address"
                },
                {
                  "internalType": "uint256",
                  "name": "outcomeSlots",
                  "type": "uint256"
                },
                {
                  "internalType": "uint256",
                  "name": "parentCollectionIndexSet",
                  "type": "uint256"
                },
                {
                  "internalType": "bytes32",
                  "name": "amountSlot",
                  "type": "bytes32"
                },
                {
                  "internalType": "uint256[]",
                  "name": "partition",
                  "type": "uint256[]"
                },
                {
                  "components": [
                    {
                      "internalType": "bytes32",
                      "name": "recipientAddressSlot",
                      "type": "bytes32"
                    },
                    {
                      "internalType": "bytes32[]",
                      "name": "recipientAmountSlots",
                      "type": "bytes32[]"
                    }
                  ],
                  "internalType": "struct SolverLib.Allocation[]",
                  "name": "allocations",
                  "type": "tuple[]"
                },
                {
                  "components": [
                    {
                      "internalType": "bytes32",
                      "name": "digest",
                      "type": "bytes32"
                    },
                    {
                      "internalType": "uint8",
                      "name": "hashFunction",
                      "type": "uint8"
                    },
                    {
                      "internalType": "uint8",
                      "name": "size",
                      "type": "uint8"
                    }
                  ],
                  "internalType": "struct SolverLib.Multihash[]",
                  "name": "outcomeURIs",
                  "type": "tuple[]"
                }
              ],
              "internalType": "struct SolverLib.ConditionBase",
              "name": "conditionBase",
              "type": "tuple"
            }
          ],
          "internalType": "struct SolverLib.Config",
          "name": "_solverConfig",
          "type": "tuple"
        }
      ],
      "name": "init",
      "outputs": [],
      "stateMutability": "nonpayable",
      "type": "function"
    },
    {
      "inputs": [
        {
          "internalType": "address",
          "name": "operator",
          "type": "address"
        },
        {
          "internalType": "address",
          "name": "from",
          "type": "address"
        },
        {
          "internalType": "uint256[]",
          "name": "ids",
          "type": "uint256[]"
        },
        {
          "internalType": "uint256[]",
          "name": "values",
          "type": "uint256[]"
        },
        {
          "internalType": "bytes",
          "name": "data",
          "type": "bytes"
        }
      ],
      "name": "onERC1155BatchReceived",
      "outputs": [
        {
          "internalType": "bytes4",
          "name": "",
          "type": "bytes4"
        }
      ],
      "stateMutability": "nonpayable",
      "type": "function"
    },
    {
      "inputs": [
        {
          "internalType": "address",
          "name": "operator",
          "type": "address"
        },
        {
          "internalType": "address",
          "name": "from",
          "type": "address"
        },
        {
          "internalType": "uint256",
          "name": "id",
          "type": "uint256"
        },
        {
          "internalType": "uint256",
          "name": "value",
          "type": "uint256"
        },
        {
          "internalType": "bytes",
          "name": "data",
          "type": "bytes"
        }
      ],
      "name": "onERC1155Received",
      "outputs": [
        {
          "internalType": "bytes4",
          "name": "",
          "type": "bytes4"
        }
      ],
      "stateMutability": "nonpayable",
      "type": "function"
    },
    {
      "inputs": [
        {
          "internalType": "uint256",
          "name": "_index",
          "type": "uint256"
        }
      ],
      "name": "prepareSolve",
      "outputs": [],
      "stateMutability": "nonpayable",
      "type": "function"
    },
    {
      "inputs": [
        {
          "internalType": "uint256",
          "name": "_index",
          "type": "uint256"
        },
        {
          "internalType": "uint256[]",
          "name": "_payouts",
          "type": "uint256[]"
        }
      ],
      "name": "proposePayouts",
      "outputs": [],
      "stateMutability": "nonpayable",
      "type": "function"
    },
    {
      "inputs": [
        {
          "internalType": "contract IERC20",
          "name": "_collateralToken",
          "type": "address"
        },
        {
          "internalType": "bytes32",
          "name": "_parentCollectionId",
          "type": "bytes32"
        },
        {
          "internalType": "bytes32",
          "name": "_conditionId",
          "type": "bytes32"
        },
        {
          "internalType": "uint256[]",
          "name": "_indexSets",
          "type": "uint256[]"
        }
      ],
      "name": "redeemPosition",
      "outputs": [],
      "stateMutability": "nonpayable",
      "type": "function"
    },
    {
      "inputs": [
        {
          "internalType": "bytes32",
          "name": "_slot",
          "type": "bytes32"
        },
        {
          "internalType": "uint256",
          "name": "_chainIndex",
          "type": "uint256"
        }
      ],
      "name": "registerOutgoingCallback",
      "outputs": [],
      "stateMutability": "nonpayable",
      "type": "function"
    },
    {
      "inputs": [
        {
          "components": [
            {
              "internalType": "bytes32",
              "name": "digest",
              "type": "bytes32"
            },
            {
              "internalType": "uint8",
              "name": "hashFunction",
              "type": "uint8"
            },
            {
              "internalType": "uint8",
              "name": "size",
              "type": "uint8"
            }
          ],
          "internalType": "struct SolverLib.Multihash",
          "name": "_context",
          "type": "tuple"
        }
      ],
      "name": "setContext",
      "outputs": [],
      "stateMutability": "nonpayable",
      "type": "function"
    },
    {
      "inputs": [
        {
          "internalType": "bytes32",
          "name": "_trackingId",
          "type": "bytes32"
        }
      ],
      "name": "setTrackingId",
      "outputs": [],
      "stateMutability": "nonpayable",
      "type": "function"
    },
    {
      "inputs": [
        {
          "internalType": "bytes4",
          "name": "interfaceId",
          "type": "bytes4"
        }
      ],
      "name": "supportsInterface",
      "outputs": [
        {
          "internalType": "bool",
          "name": "",
          "type": "bool"
        }
      ],
      "stateMutability": "view",
      "type": "function"
    },
    {
      "inputs": [
        {
          "internalType": "uint256",
          "name": "",
          "type": "uint256"
        }
      ],
      "name": "timelocks",
      "outputs": [
        {
          "internalType": "uint256",
          "name": "",
          "type": "uint256"
        }
      ],
      "stateMutability": "view",
      "type": "function"
    },
    {
      "inputs": [],
      "name": "trackingId",
      "outputs": [
        {
          "internalType": "bytes32",
          "name": "",
          "type": "bytes32"
        }
      ],
      "stateMutability": "view",
      "type": "function"
    },
    {
      "inputs": [],
      "name": "uiURI",
      "outputs": [
        {
          "internalType": "bytes32",
          "name": "digest",
          "type": "bytes32"
        },
        {
          "internalType": "uint8",
          "name": "hashFunction",
          "type": "uint8"
        },
        {
          "internalType": "uint8",
          "name": "size",
          "type": "uint8"
        }
      ],
      "stateMutability": "view",
      "type": "function"
    }
  ],
  "bytecode": "0x608060405234801561001057600080fd5b50615c7380620000216000396000f3fe608060405234801561001057600080fd5b50600436106102415760003560e01c806355dd978b11610145578063a9f698b6116100bd578063c98c05b71161008c578063df33cc5111610071578063df33cc51146104e8578063ea8221a9146104fb578063f23a6e611461050357610241565b8063c98c05b7146104cd578063de3a23c5146104d557610241565b8063a9f698b614610472578063b992db0f14610485578063bc197c8114610498578063c3f909d4146104b857610241565b806380c2dde21161011457806387dfee57116100f957806387dfee571461044457806399992506146104575780639ba45ccf1461045f57610241565b806380c2dde2146104295780638602ce1b1461043157610241565b806355dd978b146103df57806379502c55146103e75780637c1236271461040157806380b204b71461041657610241565b806326c50007116101d857806348cbb2fc116101a75780634dab5e691161018c5780634dab5e69146103a65780634e46f223146103b957806354f6127f146103cc57610241565b806348cbb2fc1461038b5780634a77234e1461039357610241565b806326c500071461031d57806336fcf48c146103415780633837b05e146103585780633f4fb5aa1461036b57610241565b80630d06101a116102145780630d06101a146102c45780630d7e149f146102d75780630d8d3975146102f7578063187825591461030a57610241565b806301ffc9a71461024657806307c068b61461026f5780630944e26e14610284578063098b37f7146102a4575b600080fd5b610259610254366004613902565b610516565b6040516102669190614754565b60405180910390f35b61028261027d366004613832565b61055c565b005b610297610292366004613ac4565b6106a5565b604051610266919061430e565b6102b76102b2366004613832565b610905565b6040516102669190614558565b6102826102d2366004613832565b610971565b6102ea6102e5366004613832565b6109ad565b604051610266919061475f565b610282610305366004613832565b6109ce565b61028261031836600461399d565b610b38565b61033061032b366004613832565b610bec565b6040516102669594939291906147f1565b610349610c3a565b60405161026693929190614776565b610297610366366004613832565b610c4f565b61037e610379366004613832565b610d7d565b60405161026691906147a4565b6102ea610e43565b6102826103a1366004613832565b610e49565b6102826103b4366004613832565b611154565b6102826103c7366004613832565b61122e565b61037e6103da366004613832565b611308565b610297611325565b6103ef611334565b60405161026696959493929190614824565b6104096115bf565b60405161026691906145a5565b610282610424366004613b10565b6116ee565b610297611855565b61028261043f366004613862565b611864565b610282610452366004613b5a565b61194a565b610259611b03565b61028261046d3660046136f5565b611bb0565b610282610480366004613aff565b611d5a565b610282610493366004613832565b611d7e565b6104ab6104a636600461363a565b612173565b604051610266919061478f565b6104c06121a0565b6040516102669190614ee1565b6102ea6125b9565b6102826104e3366004613832565b612653565b6102826104f63660046138e1565b6129d6565b6102ea612ae1565b6104ab61051136600461375f565b612ae7565b60006001600160e01b031982167f4e2312e0000000000000000000000000000000000000000000000000000000001480610554575061055482612b13565b90505b919050565b6007546001600160a01b0316331461058f5760405162461bcd60e51b815260040161058690614c37565b60405180910390fd5b6003601282815481106105b257634e487b7160e01b600052603260045260246000fd5b600091825260209091206006918202016005015460ff16908111156105e757634e487b7160e01b600052602160045260246000fd5b146106045760405162461bcd60e51b815260040161058690614b6c565b73__$94d7d2f22770e4b0d1a2b99fb2812308e2$__63ec7ac2f06012838154811061063f57634e487b7160e01b600052603260045260246000fd5b90600052602060002090600602016040518263ffffffff1660e01b8152600401610669919061475f565b60006040518083038186803b15801561068157600080fd5b505af4158015610695573d6000803e3d6000fd5b505050506106a281612b45565b50565b6006546000906001600160a01b031633146106d25760405162461bcd60e51b815260040161058690614db4565b6014546001600160a01b0316156106fb5760405162461bcd60e51b815260040161058690614922565b6000546015546040517fd6b3ad8d00000000000000000000000000000000000000000000000000000000815273__$94d7d2f22770e4b0d1a2b99fb2812308e2$__9263d6b3ad8d9261076392620100009092046001600160a01b031691879190600401614467565b604080518083038186803b15801561077a57600080fd5b505af415801561078e573d6000803e3d6000fd5b505050506040513d601f19601f820116820180604052508101906107b291906137d9565b601480546001600160a01b0319166001600160a01b039384161790556017546040517f0d06101a00000000000000000000000000000000000000000000000000000000815291935091831691630d06101a91610811919060040161475f565b600060405180830381600087803b15801561082b57600080fd5b505af115801561083f573d6000803e3d6000fd5b50506040517fa9f698b60000000000000000000000000000000000000000000000000000000081526001600160a01b038416925063a9f698b6915061088990601890600401614f78565b600060405180830381600087803b1580156108a357600080fd5b505af11580156108b7573d6000803e3d6000fd5b50506014546040517fbd2e7fbdc9b1c19997e58c63e6ea1b5a02acd8dd9fd5d76f4bb18634f7155e8093506108f892506001600160a01b039091169061430e565b60405180910390a1919050565b6000818152601c602090815260409182902080548351818402810184019094528084526060939283018282801561096557602002820191906000526020600020905b81546001600160a01b03168152600190910190602001808311610947575b50505050509050919050565b601754156109915760405162461bcd60e51b815260040161058690614e22565b6002546001600160a01b031633146109a857600080fd5b601755565b601681815481106109bd57600080fd5b600091825260209091200154905081565b601681815481106109ef57634e487b7160e01b600052603260045260246000fd5b90600052602060002001544211610a185760405162461bcd60e51b815260040161058690614ac7565b600260128281548110610a3b57634e487b7160e01b600052603260045260246000fd5b600091825260209091206006918202016005015460ff1690811115610a7057634e487b7160e01b600052602160045260246000fd5b14610a8d5760405162461bcd60e51b815260040161058690614ca5565b6001546012805473__$94d7d2f22770e4b0d1a2b99fb2812308e2$__926385c92867926001600160a01b039091169185908110610ada57634e487b7160e01b600052603260045260246000fd5b90600052602060002090600602016040518363ffffffff1660e01b8152600401610b059291906143a8565b60006040518083038186803b158015610b1d57600080fd5b505af4158015610b31573d6000803e3d6000fd5b5050505050565b6006546001600160a01b03163314610b625760405162461bcd60e51b815260040161058690614a90565b6001546040517f01b7037c0000000000000000000000000000000000000000000000000000000081526001600160a01b03909116906301b7037c90610bb390889088908890889088906004016147b7565b600060405180830381600087803b158015610bcd57600080fd5b505af1158015610be1573d6000803e3d6000fd5b505050505050505050565b60128181548110610bfc57600080fd5b6000918252602090912060069091020180546001820154600283015460038401546005909401546001600160a01b0390931694509092909160ff1685565b60035460045460ff8082169161010090041683565b6000601554821415610c62575030610557565b601554821015610cf357601354604051631c1bd82f60e11b81526001600160a01b0390911690633837b05e90610c9c90859060040161475f565b60206040518083038186803b158015610cb457600080fd5b505afa158015610cc8573d6000803e3d6000fd5b505050506040513d601f19601f82011682018060405250810190610cec919061361e565b9050610557565b60155482111561055757601454604051631c1bd82f60e11b81526001600160a01b0390911690633837b05e90610d2d90859060040161475f565b60206040518083038186803b158015610d4557600080fd5b505afa158015610d59573d6000803e3d6000fd5b505050506040513d601f19601f82011682018060405250810190610554919061361e565b6012546000828152601f602052604090205460609114610daf5760405162461bcd60e51b815260040161058690614c00565b6000828152601e602052604090208054610dc890615664565b80601f0160208091040260200160405190810160405280929190818152602001828054610df490615664565b80156109655780601f10610e1657610100808354040283529160200191610965565b820191906000526020600020905b815481529060010190602001808311610e245750939695505050505050565b60175481565b60125415610e90576006546001600160a01b0316331480610e7457506013546001600160a01b031633145b610e905760405162461bcd60e51b815260040161058690614deb565b6012548114610eb15760405162461bcd60e51b815260040161058690614a24565b601b5415610ed15760405162461bcd60e51b815260040161058690614d13565b601a5415610ef15760405162461bcd60e51b815260040161058690614d48565b600154601354601280546040517f699e0add000000000000000000000000000000000000000000000000000000008152919373__$94d7d2f22770e4b0d1a2b99fb2812308e2$__9363699e0add93610f5c936001600160a01b0393841693600b931691600401614373565b60006040518083038186803b158015610f7457600080fd5b505af4158015610f88573d6000803e3d6000fd5b505050506040513d6000823e601f3d908101601f19168201604052610fb09190810190613a05565b8154600180820184556000938452602093849020835160069093020180546001600160a01b0319166001600160a01b039093169290921782558284015190820155604082015160028201556060820151600382015560808201518051929391926110209260048501920190613351565b5060a082015160058201805460ff1916600183600681111561105257634e487b7160e01b600052602160045260246000fd5b0217905550506016805460018101825560009182527fd833147d7dc355ba459fc788f669e58cfaf9dc25ddcd0702e87d69c7b5124289015550611093612b8d565b7f152ec8ae15d347b2d2a8f0858caa29bcaaa0906749a1f43e08bfe7998346024030826040516110c49291906143a8565b60405180910390a16014546001600160a01b0316156106a2576014546040517f4a77234e0000000000000000000000000000000000000000000000000000000081526001600160a01b0390911690634a77234e9061112690849060040161475f565b600060405180830381600087803b15801561114057600080fd5b505af1158015610b31573d6000803e3d6000fd5b6007546001600160a01b0316331461117e5760405162461bcd60e51b815260040161058690614c37565b6002601282815481106111a157634e487b7160e01b600052603260045260246000fd5b600091825260209091206006918202016005015460ff16908111156111d657634e487b7160e01b600052602160045260246000fd5b146111f35760405162461bcd60e51b815260040161058690614cdc565b73__$94d7d2f22770e4b0d1a2b99fb2812308e2$__6324b286026012838154811061063f57634e487b7160e01b600052603260045260246000fd5b6007546001600160a01b031633146112585760405162461bcd60e51b815260040161058690614c37565b60046012828154811061127b57634e487b7160e01b600052603260045260246000fd5b600091825260209091206006918202016005015460ff16908111156112b057634e487b7160e01b600052602160045260246000fd5b146112cd5760405162461bcd60e51b815260040161058690614d7d565b73__$94d7d2f22770e4b0d1a2b99fb2812308e2$__6359111fb56012838154811061063f57634e487b7160e01b600052603260045260246000fd5b6000818152601e60205260409020805460609190610dc890615664565b6014546001600160a01b031681565b60058054600654600754600854600980546001600160a01b03958616969486169590931693919261136490615664565b80601f016020809104026020016040519081016040528092919081815260200182805461139090615664565b80156113dd5780601f106113b2576101008083540402835291602001916113dd565b820191906000526020600020905b8154815290600101906020018083116113c057829003601f168201915b50506040805160e0810182526006870180546001600160a01b03168252600788015460208084019190915260088901548385015260098901546060840152600a8901805485518184028101840190965280865298999893975091955060808701945090919083018282801561147157602002820191906000526020600020905b81548152602001906001019080831161145d575b5050505050815260200160058201805480602002602001604051908101604052809291908181526020016000905b828210156115335783829060005260206000209060020201604051806040016040529081600082015481526020016001820180548060200260200160405190810160405280929190818152602001828054801561151b57602002820191906000526020600020905b815481526020019060010190808311611507575b5050505050815250508152602001906001019061149f565b50505050815260200160068201805480602002602001604051908101604052809291908181526020016000905b828210156115b257600084815260209081902060408051606081018252600286029092018054835260019081015460ff8082168587015261010090910416918301919091529083529092019101611560565b5050505081525050905086565b60606012805480602002602001604051908101604052809291908181526020016000905b828210156116e55760008481526020908190206040805160c0810182526006860290920180546001600160a01b03168352600181015483850152600281015483830152600381015460608401526004810180548351818702810187019094528084529394919360808601939283018282801561167e57602002820191906000526020600020905b81548152602001906001019080831161166a575b5050509183525050600582015460209091019060ff1660068111156116b357634e487b7160e01b600052602160045260246000fd5b60068111156116d257634e487b7160e01b600052602160045260246000fd5b81525050815260200190600101906115e3565b50505050905090565b6006546001600160a01b031633146117185760405162461bcd60e51b815260040161058690614a90565b600c5481146117395760405162461bcd60e51b815260040161058690614959565b60016012848154811061175c57634e487b7160e01b600052603260045260246000fd5b600091825260209091206006918202016005015460ff169081111561179157634e487b7160e01b600052602160045260246000fd5b146117ae5760405162461bcd60e51b8152600401610586906149b6565b73__$94d7d2f22770e4b0d1a2b99fb2812308e2$__636a0a24f1601285815481106117e957634e487b7160e01b600052603260045260246000fd5b906000526020600020906006020184846040518463ffffffff1660e01b815260040161181793929190614ec7565b60006040518083038186803b15801561182f57600080fd5b505af4158015611843573d6000803e3d6000fd5b5050505061185083612b45565b505050565b6013546001600160a01b031681565b6006546001600160a01b0316331461188e5760405162461bcd60e51b8152600401610586906148b4565b6000828152602080526040902054600a80546003929081106118c057634e487b7160e01b600052603260045260246000fd5b600091825260209091206001600590920201015460ff1660038111156118f657634e487b7160e01b600052602160045260246000fd5b146119135760405162461bcd60e51b81526004016105869061487d565b61191d8282612e66565b6040517f71bd81ebe1d98a2944767394e76a9aff18724b2cf04e1db71254f804544b35c790600090a15050565b6007546001600160a01b031633146119745760405162461bcd60e51b815260040161058690614c37565b60046012838154811061199757634e487b7160e01b600052603260045260246000fd5b600091825260209091206006918202016005015460ff16908111156119cc57634e487b7160e01b600052602160045260246000fd5b146119e95760405162461bcd60e51b815260040161058690614d7d565b60168281548110611a0a57634e487b7160e01b600052603260045260246000fd5b90600052602060002001544211611a335760405162461bcd60e51b815260040161058690614ac7565b600c54815114611a555760405162461bcd60e51b815260040161058690614959565b6001546012805473__$94d7d2f22770e4b0d1a2b99fb2812308e2$__92631b948e49926001600160a01b039091169186908110611aa257634e487b7160e01b600052603260045260246000fd5b9060005260206000209060060201846040518463ffffffff1660e01b8152600401611acf939291906143c1565b60006040518083038186803b158015611ae757600080fd5b505af4158015611afb573d6000803e3d6000fd5b505050505050565b6012546040517f5cc1f6b500000000000000000000000000000000000000000000000000000000815260009173__$94d7d2f22770e4b0d1a2b99fb2812308e2$__91635cc1f6b591611b5b91600a9190600401614649565b60206040518083038186803b158015611b7357600080fd5b505af4158015611b87573d6000803e3d6000fd5b505050506040513d601f19601f82011682018060405250810190611bab9190613812565b905090565b600054610100900460ff1680611bc9575060005460ff16155b611be55760405162461bcd60e51b815260040161058690614ba3565b600054610100900460ff16158015611c10576000805460ff1961ff0019909116610100171660011790555b6000611c2260408401602085016135fb565b6001600160a01b03161415611c495760405162461bcd60e51b815260040161058690614c6e565b600080546201000033027fffffffffffffffffffff0000000000000000000000000000000000000000ffff909116179055600180546001600160a01b038781166001600160a01b03199283161790925560138054928716929091169190911790556015839055816005611cbc82826158bc565b90505060005b611ccf60a0840184614fa2565b9050811015611d41578060206000611cea60a0870187614fa2565b85818110611d0857634e487b7160e01b600052603260045260246000fd5b9050602002810190611d1a91906150a9565b60409081013582526020820192909252016000205580611d39816156ac565b915050611cc2565b508015610b31576000805461ff00191690555050505050565b6002546001600160a01b03163314611d7157600080fd5b8060186118508282615a9b565b600060128281548110611da157634e487b7160e01b600052603260045260246000fd5b600091825260209091206006918202016005015460ff1690811115611dd657634e487b7160e01b600052602160045260246000fd5b14611df35760405162461bcd60e51b815260040161058690614e90565b611dfb611b03565b1515600114611e1c5760405162461bcd60e51b815260040161058690614afe565b6040517f0e23b7ca00000000000000000000000000000000000000000000000000000000815273__$94d7d2f22770e4b0d1a2b99fb2812308e2$__90630e23b7ca90611e72908490601e90600b90600401614f8c565b60206040518083038186803b158015611e8a57600080fd5b505af4158015611e9e573d6000803e3d6000fd5b505050506040513d601f19601f82011682018060405250810190611ec29190613812565b611ede5760405162461bcd60e51b815260040161058690614a5b565b600160128281548110611f0157634e487b7160e01b600052603260045260246000fd5b906000526020600020906006020160050160006101000a81548160ff02191690836006811115611f4157634e487b7160e01b600052602160045260246000fd5b02179055506001546013546012805473__$94d7d2f22770e4b0d1a2b99fb2812308e2$__93630c5190e2936001600160a01b0391821693911691600b919087908110611f9d57634e487b7160e01b600052603260045260246000fd5b60009182526020808320600e548452601e9091526040909220805460069092029092019190611fcb90615664565b80601f0160208091040260200160405190810160405280929190818152602001828054611ff790615664565b80156120445780601f1061201957610100808354040283529160200191612044565b820191906000526020600020905b81548152906001019060200180831161202757829003601f168201915b505050505080602001905181019061205c919061384a565b6040518663ffffffff1660e01b815260040161207c959493929190614322565b60006040518083038186803b15801561209457600080fd5b505af41580156120a8573d6000803e3d6000fd5b50506001546012805473__$94d7d2f22770e4b0d1a2b99fb2812308e2$__94506377ae1d7393506001600160a01b0390921691859081106120f957634e487b7160e01b600052603260045260246000fd5b90600052602060002090600602016005600601601e6017546040518663ffffffff1660e01b815260040161213195949392919061441e565b60006040518083038186803b15801561214957600080fd5b505af415801561215d573d6000803e3d6000fd5b5050505061216a816106a2565b6106a281612ee9565b7fbc197c810000000000000000000000000000000000000000000000000000000098975050505050505050565b6121a861339c565b6040805160e081018252600580546001600160a01b0390811683526006548116602084015260075416928201929092526008546060820152600980549192916080840191906121f690615664565b80601f016020809104026020016040519081016040528092919081815260200182805461222290615664565b801561226f5780601f106122445761010080835404028352916020019161226f565b820191906000526020600020905b81548152906001019060200180831161225257829003601f168201915b5050505050815260200160058201805480602002602001604051908101604052809291908181526020016000905b828210156123d457838290600052602060002090600502016040518060a0016040529081600082015481526020016001820160009054906101000a900460ff1660038111156122fc57634e487b7160e01b600052602160045260246000fd5b600381111561231b57634e487b7160e01b600052602160045260246000fd5b8152602001600282015481526020016003820154815260200160048201805461234390615664565b80601f016020809104026020016040519081016040528092919081815260200182805461236f90615664565b80156123bc5780601f10612391576101008083540402835291602001916123bc565b820191906000526020600020905b81548152906001019060200180831161239f57829003601f168201915b5050505050815250508152602001906001019061229d565b505050908252506040805160e0810182526006840180546001600160a01b03168252600785015460208381019190915260088601548385015260098601546060840152600a86018054855181840281018401909652808652958201959394929360808601939283018282801561246957602002820191906000526020600020905b815481526020019060010190808311612455575b5050505050815260200160058201805480602002602001604051908101604052809291908181526020016000905b8282101561252b5783829060005260206000209060020201604051806040016040529081600082015481526020016001820180548060200260200160405190810160405280929190818152602001828054801561251357602002820191906000526020600020905b8154815260200190600101908083116124ff575b50505050508152505081526020019060010190612497565b50505050815260200160068201805480602002602001604051908101604052809291908181526020016000905b828210156125aa57600084815260209081902060408051606081018252600286029092018054835260019081015460ff8082168587015261010090910416918301919091529083529092019101612558565b50505091525050905250905090565b600b546040517f70a082310000000000000000000000000000000000000000000000000000000081526000916001600160a01b0316906370a082319061260390309060040161430e565b60206040518083038186803b15801561261b57600080fd5b505afa15801561262f573d6000803e3d6000fd5b505050506040513d601f19601f82011682018060405250810190611bab919061384a565b600033826040516020016126689291906142ec565b60408051601f1981840301815291815281516020928301206000818152601d909352912054600a80549293506126ce9290919081106126b757634e487b7160e01b600052603260045260246000fd5b906000526020600020906005020160030154610c4f565b6001600160a01b0316336001600160a01b0316146126fe5760405162461bcd60e51b8152600401610586906149ed565b6000818152601d6020526040812054600a8054909190811061273057634e487b7160e01b600052603260045260246000fd5b600091825260209091206001600590920201015460ff16600381111561276657634e487b7160e01b600052602160045260246000fd5b146127835760405162461bcd60e51b8152600401610586906148eb565b6000818152601d6020526040902054600a805490919081106127b557634e487b7160e01b600052603260045260246000fd5b6000918252602082206005909102018054916127d0836156ac565b90915550506000818152601d6020526040902054600a80546129859290811061280957634e487b7160e01b600052603260045260246000fd5b906000526020600020906005020160020154336001600160a01b0316633f4fb5aa60058001601a6003016000878152602001908152602001600020548154811061286357634e487b7160e01b600052603260045260246000fd5b9060005260206000209060050201600401805461287f90615664565b80601f01602080910402602001604051908101604052809291908181526020018280546128ab90615664565b80156128f85780601f106128cd576101008083540402835291602001916128f8565b820191906000526020600020905b8154815290600101906020018083116128db57829003601f168201915b5050505050806020019051810190612910919061384a565b6040518263ffffffff1660e01b815260040161292c919061475f565b60006040518083038186803b15801561294457600080fd5b505afa158015612958573d6000803e3d6000fd5b505050506040513d6000823e601f3d908101601f19168201604052612980919081019061392a565b612e66565b6000818152601d60205260408120819055601a8054916129a48361564d565b90915550506040517f71bd81ebe1d98a2944767394e76a9aff18724b2cf04e1db71254f804544b35c790600090a15050565b6129df81610c4f565b6001600160a01b0316336001600160a01b031614612a0f5760405162461bcd60e51b8152600401610586906149ed565b6000828152601f602052604090205415801590612a3b57506012546000838152601f6020526040902054145b15612a9a5760405163de3a23c560e01b8152339063de3a23c590612a6390859060040161475f565b600060405180830381600087803b158015612a7d57600080fd5b505af1158015612a91573d6000803e3d6000fd5b50505050612add565b6000828152601c60209081526040822080546001810182559083529082200180546001600160a01b03191633179055601b805491612ad7836156ac565b91905055505b5050565b60155481565b7ff23a6e61000000000000000000000000000000000000000000000000000000005b9695505050505050565b6001600160e01b031981167f01ffc9a70000000000000000000000000000000000000000000000000000000014919050565b600854612b539060016152f0565b612b5d90426152d8565b60168281548110612b7e57634e487b7160e01b600052603260045260246000fd5b60009182526020909120015550565b60005b600a54811015612e3a576000600a805483908110612bbe57634e487b7160e01b600052603260045260246000fd5b600091825260209091206001600590920201015460ff166003811115612bf457634e487b7160e01b600052602160045260246000fd5b14612c3757612c32600580018281548110612c1f57634e487b7160e01b600052603260045260246000fd5b9060005260206000209060050201612fd2565b612e28565b6000306001600160a01b0316633837b05e600580018481548110612c6b57634e487b7160e01b600052603260045260246000fd5b9060005260206000209060050201600301546040518263ffffffff1660e01b8152600401612c99919061475f565b60206040518083038186803b158015612cb157600080fd5b505afa158015612cc5573d6000803e3d6000fd5b505050506040513d601f19601f82011682018060405250810190612ce9919061361e565b9050612cf581836130c6565b806001600160a01b031663df33cc51600580018481548110612d2757634e487b7160e01b600052603260045260246000fd5b90600052602060002090600502016004018054612d4390615664565b80601f0160208091040260200160405190810160405280929190818152602001828054612d6f90615664565b8015612dbc5780601f10612d9157610100808354040283529160200191612dbc565b820191906000526020600020905b815481529060010190602001808311612d9f57829003601f168201915b5050505050806020019051810190612dd4919061384a565b6015546040518363ffffffff1660e01b8152600401612df4929190614768565b600060405180830381600087803b158015612e0e57600080fd5b505af1158015612e22573d6000803e3d6000fd5b50505050505b80612e32816156ac565b915050612b90565b506040517f71bd81ebe1d98a2944767394e76a9aff18724b2cf04e1db71254f804544b35c790600090a1565b601254612e759060019061530f565b6000838152601f602052604090205414612ea15760405162461bcd60e51b815260040161058690614e59565b6000828152601f60205260408120805491612ebb836156ac565b90915550506000828152601e602090815260409091208251612edf928401906133f9565b50612add826131e9565b6014546001600160a01b031615801590612f845750601460009054906101000a90046001600160a01b03166001600160a01b031663999925066040518163ffffffff1660e01b815260040160206040518083038186803b158015612f4c57600080fd5b505afa158015612f60573d6000803e3d6000fd5b505050506040513d601f19601f82011682018060405250810190612f849190613812565b156106a2576014546040517fb992db0f0000000000000000000000000000000000000000000000000000000081526001600160a01b039091169063b992db0f9061112690849060040161475f565b600181015460039060ff1681811115612ffb57634e487b7160e01b600052602160045260246000fd5b11156130195760405162461bcd60e51b815260040161058690614b35565b8054816000613027836156ac565b9091555060039050600182015460ff16600381111561305657634e487b7160e01b600052602160045260246000fd5b146106a2576106a2816002015473__$94d7d2f22770e4b0d1a2b99fb2812308e2$__63b3d73707846040518263ffffffff1660e01b815260040161309a919061475f565b60006040518083038186803b1580156130b257600080fd5b505af4158015612958573d6000803e3d6000fd5b80601a6003016000846005800185815481106130f257634e487b7160e01b600052603260045260246000fd5b9060005260206000209060050201600401805461310e90615664565b80601f016020809104026020016040519081016040528092919081815260200182805461313a90615664565b80156131875780601f1061315c57610100808354040283529160200191613187565b820191906000526020600020905b81548152906001019060200180831161316a57829003601f168201915b505050505080602001905181019061319f919061384a565b6040516020016131b09291906142ec565b60408051601f19818403018152918152815160209283012083529082019290925201600090812091909155601a805491612ad7836156ac565b60005b6000828152601c6020526040902054811015612add576000828152601c6020526040812080548390811061323057634e487b7160e01b600052603260045260246000fd5b6000918252602090912001546001600160a01b03161461333f576000828152601c6020526040902080548290811061327857634e487b7160e01b600052603260045260246000fd5b60009182526020909120015460405163de3a23c560e01b81526001600160a01b039091169063de3a23c5906132b190859060040161475f565b600060405180830381600087803b1580156132cb57600080fd5b505af11580156132df573d6000803e3d6000fd5b5050506000838152601c6020526040902080549091508290811061331357634e487b7160e01b600052603260045260246000fd5b6000918252602082200180546001600160a01b0319169055601b8054916133398361564d565b91905055505b80613349816156ac565b9150506131ec565b82805482825590600052602060002090810192821561338c579160200282015b8281111561338c578251825591602001919060010190613371565b5061339892915061346c565b5090565b6040518060e0016040528060006001600160a01b0316815260200160006001600160a01b0316815260200160006001600160a01b031681526020016000815260200160608152602001606081526020016133f4613481565b905290565b82805461340590615664565b90600052602060002090601f016020900481019282613427576000855561338c565b82601f1061344057805160ff191683800117855561338c565b8280016001018555821561338c579182018281111561338c578251825591602001919060010190613371565b5b80821115613398576000815560010161346d565b6040518060e0016040528060006001600160a01b031681526020016000815260200160008152602001600080191681526020016060815260200160608152602001606081525090565b803561055781615c0c565b60008083601f8401126134e6578182fd5b50813567ffffffffffffffff8111156134fd578182fd5b602083019150836020808302850101111561351757600080fd5b9250929050565b600082601f83011261352e578081fd5b8151602061354361353e836150e8565b6150be565b828152818101908583018385028701840188101561355f578586fd5b855b8581101561357d57815184529284019290840190600101613561565b5090979650505050505050565b60008083601f84011261359b578182fd5b50813567ffffffffffffffff8111156135b2578182fd5b60208301915083602082850101111561351757600080fd5b805161055781615c0c565b80516007811061055757600080fd5b600060e082840312156135f5578081fd5b50919050565b60006020828403121561360c578081fd5b813561361781615c0c565b9392505050565b60006020828403121561362f578081fd5b815161361781615c0c565b60008060008060008060008060a0898b031215613655578384fd5b883561366081615c0c565b9750602089013561367081615c0c565b9650604089013567ffffffffffffffff8082111561368c578586fd5b6136988c838d016134d5565b909850965060608b01359150808211156136b0578586fd5b6136bc8c838d016134d5565b909650945060808b01359150808211156136d4578384fd5b506136e18b828c0161358a565b999c989b5096995094979396929594505050565b6000806000806080858703121561370a578182fd5b843561371581615c0c565b9350602085013561372581615c0c565b925060408501359150606085013567ffffffffffffffff811115613747578182fd5b613753878288016135e4565b91505092959194509250565b60008060008060008060a08789031215613777578384fd5b863561378281615c0c565b9550602087013561379281615c0c565b94506040870135935060608701359250608087013567ffffffffffffffff8111156137bb578283fd5b6137c789828a0161358a565b979a9699509497509295939492505050565b600080604083850312156137eb578182fd5b82516137f681615c0c565b602084015190925061380781615c0c565b809150509250929050565b600060208284031215613823578081fd5b81518015158114613617578182fd5b600060208284031215613843578081fd5b5035919050565b60006020828403121561385b578081fd5b5051919050565b60008060408385031215613874578182fd5b82359150602083013567ffffffffffffffff811115613891578182fd5b8301601f810185136138a1578182fd5b80356138af61353e8261510c565b8181528660208385010111156138c3578384fd5b81602084016020830137908101602001929092525090939092509050565b600080604083850312156138f3578182fd5b50508035926020909101359150565b600060208284031215613913578081fd5b81356001600160e01b031981168114613617578182fd5b60006020828403121561393b578081fd5b815167ffffffffffffffff811115613951578182fd5b8201601f81018413613961578182fd5b805161396f61353e8261510c565b818152856020838501011115613983578384fd5b61399482602083016020860161561d565b95945050505050565b6000806000806000608086880312156139b4578283fd5b85356139bf81615c0c565b94506020860135935060408601359250606086013567ffffffffffffffff8111156139e8578182fd5b6139f4888289016134d5565b969995985093965092949392505050565b600060208284031215613a16578081fd5b815167ffffffffffffffff80821115613a2d578283fd5b9083019060c08286031215613a40578283fd5b60405160c081018181108382111715613a5b57613a5b615709565b604052613a67836135ca565b8152602083015160208201526040830151604082015260608301516060820152608083015182811115613a98578485fd5b613aa48782860161351e565b608083015250613ab660a084016135d5565b60a082015295945050505050565b600060208284031215613ad5578081fd5b813567ffffffffffffffff811115613aeb578182fd5b613af7848285016135e4565b949350505050565b6000606082840312156135f5578081fd5b600080600060408486031215613b24578081fd5b83359250602084013567ffffffffffffffff811115613b41578182fd5b613b4d868287016134d5565b9497909650939450505050565b60008060408385031215613b6c578182fd5b8235915060208084013567ffffffffffffffff811115613b8a578283fd5b8401601f81018613613b9a578283fd5b8035613ba861353e826150e8565b81815283810190838501858402850186018a1015613bc4578687fd5b8694505b83851015613be6578035835260019490940193918501918501613bc8565b5080955050505050509250929050565b6001600160a01b03169052565b60008284527f07ffffffffffffffffffffffffffffffffffffffffffffffffffffffffffffff831115613c34578081fd5b6020830280836020870137939093016020019283525090919050565b818352602080840193600091908185020181018584845b87811015613cf55782840389528135609e19883603018112613c87578687fd5b87018035855260a086820135613c9c81615c21565b613ca888880182613f32565b5060408281013590870152606080830135908701526080613ccb81840184615275565b93508282890152613cdf8389018583613edc565b9c89019c97505050928601925050600101613c67565b5091979650505050505050565b6000815180845260208085018081965082840281019150828601855b85811015613cf5578284038952815160a08151865286820151613d4388880182613f32565b506040828101519087015260608083015190870152608091820151918601819052613d7081870183613f06565b9a87019a9550505090840190600101613d1e565b60008284526020808501945082825b85811015613ddd578135875282820135613dac81615c2e565b60ff9081168885015260409083820135613dc581615c2e565b16908801526060968701969190910190600101613d93565b509495945050505050565b6000815180845260208085019450808401835b83811015613ddd578151805188528381015160ff908116858a0152604091820151169088015260609096019590820190600101613dfb565b6000815480845260208401935082825260208220825b82811015613e7157613e5b86836142cb565b6060959095019460029190910190600101613e49565b5093949350505050565b6000815180845260208085019450808401835b83811015613ddd57815187529582019590820190600101613e8e565b6000815480845260208085019450838352808320835b83811015613ddd57815487529582019560019182019101613ec0565b60008284528282602086013780602084860101526020601f19601f85011685010190509392505050565b60008151808452613f1e81602086016020860161561d565b601f01601f19169290920160200192915050565b60048110613f4257613f426156f3565b9052565b60078110613f4257613f426156f3565b60008135613f6381615c0c565b6001600160a01b03168352602082810135818501526040808401358186015260608085013590860152613f9960808501856151e5565b60e06080880152613fae60e088018284613c03565b915050613fbe60a08601866151e5565b87830360a08901528083528483018582028401860183885b8481101561403557868303601f19018452813536879003603e19018112613ffb578a8bfd5b86018035845261400d8a8201826151e5565b9150898b8601526140218a86018383613c03565b958b01959450505090880190600101613fd6565b505061404460c08a018a61522d565b9750955089810360c08b015261405b818888613d84565b9a9950505050505050505050565b60006001600160a01b038251168352602080830151818501526040808401518186015260608085015181870152608085015160e060808801526140af60e0880182613e7b565b905060a086015187820360a08901528181518084528684019150868782028501018784019350885b8281101561413f57858203601f190184528451805183528901518983018990528051898401819052908a01908b90898501905b8083101561412a5783518252928c019260019290920191908c019061410a565b50968b0196958b0195935050506001016140d7565b5060c08a015197508a810360c08c01526141598189613de8565b9b9a5050505050505050505050565b60006001600160a01b038254168352600180830154602081818701526002915081850154604081818901526003870154915081606089015260e060808901526141b760e0890160048901613eaa565b88810360a08a01526005880180548083529088528488209193508484019085810285018601895b8281101561424457868203601f19018452845482528782018690528985018054878401819052908c52888c20908c9060608501905b808310156142305783548252928d0192918d0191908b0190614213565b50968b0196958a01959350505089016141de565b508b810360c08d015261425a8160068d01613e33565b9c9b505050505050505050505050565b60006001600160a01b03825416835260018201546020840152600282015460408401526003820154606084015260c060808401526142ae60c0840160048401613eaa565b60ff6005840154166142c360a0860182613f46565b509392505050565b805482526001015460ff808216602084015260089190911c16604090910152565b60609290921b6bffffffffffffffffffffffff19168252601482015260340190565b6001600160a01b0391909116815260200190565b60006001600160a01b03808816835280871660208401525060a0604083015261434e60a0830186614168565b8281036060840152614360818661426a565b9150508260808301529695505050505050565b60006001600160a01b038087168352608060208401526143966080840187614168565b94166040830152506060015292915050565b6001600160a01b03929092168252602082015260400190565b6000606082016001600160a01b038616835260208581850152606060408501528185518084526080860191508287019350845b81811015614410578451835293830193918301916001016143f4565b509098975050505050505050565b60006001600160a01b038716825260a0602083015261444060a083018761426a565b82810360408401526144528187614168565b60608401959095525050608001529392505050565b60006001600160a01b038516825260606020830152833561448781615c0c565b6144946060840182613bf6565b506144a1602085016134ca565b6144ae6080840182613bf6565b506144bb604085016134ca565b6144c860a0840182613bf6565b50606084013560c08301526144e06080850185615275565b60e0808501526144f561014085018284613edc565b91505061450560a08601866151e5565b605f19808685030161010087015261451e848385613c50565b935061452d60c08901896152ba565b9250808685030161012087015250506145468282613f56565b92505050826040830152949350505050565b6020808252825182820181905260009190848201906040850190845b818110156145995783516001600160a01b031683529284019291840191600101614574565b50909695505050505050565b60208082528251828201819052600091906040908185019080840286018301878501865b8381101561441057603f19898403018552815160c06001600160a01b038251168552888201518986015287820151888601526060808301518187015250608080830151828288015261461d83880182613e7b565b9250505060a080830151925061463581870184613f46565b5095880195935050908601906001016145c9565b60006040820160408352808554808352606092508285019150602083818302870101888652818620865b8481101561474257605f1989840301865260a082548452600160ff818501541661469f87870182613f32565b5060028401546040860152600384015489860152600484018260808701528a81546146c981615664565b94880185905260c09481851680156146e857600181146146fc57614727565b60ff1983168a88015260e08a019350614727565b848f528a8f208f5b8381101561471f5781548c82018a0152908701908c01614704565b8b0188019450505b50505098870198955050506005929092019150600101614673565b50509501959095525091949350505050565b901515815260200190565b90815260200190565b918252602082015260400190565b92835260ff918216602084015216604082015260600190565b6001600160e01b031991909116815260200190565b6000602082526136176020830184613f06565b60006001600160a01b0387168252856020830152846040830152608060608301526147e6608083018486613c03565b979650505050505050565b600060a0820190506001600160a01b0387168252856020830152846040830152836060830152612b096080830184613f46565b60006001600160a01b038089168352808816602084015280871660408401525084606083015260c0608083015261485e60c0830185613f06565b82810360a08401526148708185614069565b9998505050505050505050565b60208082526016908201527f6f6e6c7920496e67657374547970652e4d616e75616c00000000000000000000604082015260600190565b6020808252600a908201527f4f6e6c794b656570657200000000000000000000000000000000000000000000604082015260600190565b60208082526013908201527f496e67657374206e6f742043616c6c6261636b00000000000000000000000000604082015260600190565b60208082526010908201527f536f6c76657220686173206368696c6400000000000000000000000000000000604082015260600190565b60208082526026908201527f7061796f7574732e6c656e677468206d757374206d61746368206f7574636f6d60408201527f65536c6f74730000000000000000000000000000000000000000000000000000606082015260800190565b60208082526016908201527f436f6e646974696f6e206e6f7420457865637574656400000000000000000000604082015260600190565b60208082526015908201527f6d73672e73656e646572206e6f7420736f6c7665720000000000000000000000604082015260600190565b60208082526018908201527f496e76616c696420696e64657820746f20707265706172650000000000000000604082015260600190565b6020808252818101527f526563697069656e7420736c6f74207265717569726573207570646174696e67604082015260600190565b6020808252600b908201527f4f6e6c79204b6565706572000000000000000000000000000000000000000000604082015260600190565b60208082526015908201527f54696d656c6f636b207374696c6c206c6f636b65640000000000000000000000604082015260600190565b6020808252600f908201527f696e676573747320696e76616c69640000000000000000000000000000000000604082015260600190565b60208082526012908201527f496e76616c696420696e67657374547970650000000000000000000000000000604082015260600190565b60208082526018908201527f4e6f74204172626974726174696f6e5265717565737465640000000000000000604082015260600190565b6020808252602e908201527f496e697469616c697a61626c653a20636f6e747261637420697320616c72656160408201527f647920696e697469616c697a6564000000000000000000000000000000000000606082015260800190565b60208082526011908201527f536c6f7420696e76616c6964207665722e000000000000000000000000000000604082015260600190565b6020808252600f908201527f4f6e6c792061726269747261746f720000000000000000000000000000000000604082015260600190565b6020808252600e908201527f4b656570657220696e76616c6964000000000000000000000000000000000000604082015260600190565b60208082526014908201527f4f7574636f6d65206e6f742070726f706f736564000000000000000000000000604082015260600190565b60208082526013908201527f4e6f74204f7574636f6d6550726f706f73656400000000000000000000000000604082015260600190565b6020808252818101527f46756c66696c6c206f7574676f696e672063616c6c6261636b73206669727374604082015260600190565b6020808252818101527f46756c66696c6c20696e636f6d696e672063616c6c6261636b73206669727374604082015260600190565b60208082526016908201527f4e6f74204172626974726174696f6e50656e64696e6700000000000000000000604082015260600190565b6020808252600b908201527f4f6e6c79206b6565706572000000000000000000000000000000000000000000604082015260600190565b60208082526012908201527f4f6e6c79206b65657065722f706172656e740000000000000000000000000000604082015260600190565b6020808252600e908201527f547261636b696e67496420736574000000000000000000000000000000000000604082015260600190565b60208082526014908201527f536c6f742076657273696f6e20696e76616c6964000000000000000000000000604082015260600190565b6020808252600d908201527f6e6f7420496e6974696174656400000000000000000000000000000000000000604082015260600190565b600084825260406020830152613994604083018486613c03565b6000602082526001600160a01b03808451166020840152806020850151166040840152506040830151614f176060840182613bf6565b5060608301516080830152608083015160e060a0840152614f3c610100840182613f06565b905060a0840151601f19808584030160c0860152614f5a8383613d02565b925060c08601519150808584030160e0860152506139948282614069565b60608101614f8682846142cb565b92915050565b9283526020830191909152604082015260600190565b6000808335601e19843603018112614fb8578283fd5b83018035915067ffffffffffffffff821115614fd2578283fd5b602090810192508102360382131561351757600080fd5b6000808335601e19843603018112614fff578283fd5b83018035915067ffffffffffffffff821115615019578283fd5b602001915060608102360382131561351757600080fd5b6000808335601e19843603018112615046578283fd5b83018035915067ffffffffffffffff821115615060578283fd5b60200191503681900382131561351757600080fd5b60008235603e1983360301811261508a578182fd5b9190910192915050565b6000823560de1983360301811261508a578182fd5b60008235609e1983360301811261508a578182fd5b60405181810167ffffffffffffffff811182821017156150e0576150e0615709565b604052919050565b600067ffffffffffffffff82111561510257615102615709565b5060209081020190565b600067ffffffffffffffff82111561512657615126615709565b50601f01601f191660200190565b60009081526020902090565b60208410801561519657601f841160018114615167576151608685615699565b8355615190565b61517083615134565b6151856020601f880104820160018301615326565b50615190868461577f565b50610b31565b8160005260206000206020601f8701048101601f871680156151c0576151c081600019840161571f565b506151d36020601f880104830182615326565b50506001856002021782555050505050565b6000808335601e198436030181126151fb578283fd5b830160208101925035905067ffffffffffffffff81111561521b57600080fd5b60208102360383131561351757600080fd5b6000808335601e19843603018112615243578283fd5b830160208101925035905067ffffffffffffffff81111561526357600080fd5b60608102360383131561351757600080fd5b6000808335601e1984360301811261528b578283fd5b830160208101925035905067ffffffffffffffff8111156152ab57600080fd5b80360383131561351757600080fd5b6000823560de198336030181126152cf578182fd5b90910192915050565b600082198211156152eb576152eb6156dd565b500190565b600081600019048311821515161561530a5761530a6156dd565b500290565b600082821015615321576153216156dd565b500390565b5b81811015612add5760008155600101615327565b6801000000000000000083111561535457615354615709565b8054838255808410156153f2577f7fffffffffffffffffffffffffffffffffffffffffffffffffffffffffffffff6001818311811615615396576153966156dd565b60028287118216156153aa576153aa6156dd565b600085815260208120909350878202810190828602015b808210156153ec576153d58586845461579d565b82556153e385858401615733565b908201906153c1565b50505050505b50816153fd82615134565b6000805b868110156154335761541d6154168588615075565b8385615afd565b6020939093019260029290920191600101615401565b50505050505050565b6801000000000000000083111561545557615455615709565b8054838255808410156154ed577f7fffffffffffffffffffffffffffffffffffffffffffffffffffffffffffffff6001818311811615615497576154976156dd565b60028287118216156154ab576154ab6156dd565b600085815260208120909350878202810190828602015b808210156154e7576154d68586845461579d565b8255848483015582820191506154c2565b50505050505b50816154f882615134565b6000805b868110156154335761550f848385615bc5565b60609390930192600292909201916001016154fc565b67ffffffffffffffff83111561553d5761553d615709565b6155478154615664565b600080601f8611601f8411818117156155665761556386615134565b92505b8015615595576020601f890104830160208910156155815750825b6155936020601f880104850182615326565b505b5080600181146155c1576000945087156155b0578387013594505b6155ba8886615699565b8655615613565b601f198816945082845b868110156155eb57888601358255602095860195600190920191016155cb565b508886101561560857878501356000196008601f8c16021c191681555b506001600289020186555b5050505050505050565b60005b83811015615638578181015183820152602001615620565b83811115615647576000848401525b50505050565b60008161565c5761565c6156dd565b506000190190565b60028104600182168061567857607f821691505b602082108114156135f557634e487b7160e01b600052602260045260246000fd5b600019600883021c191660029091021790565b60006000198214156156c0576156c06156dd565b5060010190565b634e487b7160e01b600052600060045260246000fd5b634e487b7160e01b600052601160045260246000fd5b634e487b7160e01b600052602160045260246000fd5b634e487b7160e01b600052604160045260246000fd5b8054600019836020036008021c1681555050565b6801000000000000000082111561574c5761574c615709565b805482825580831015611850576000828152602081208481019083015b80821015611afb57828255600182019150615769565b806000526020600020615793838254615699565b9091556000905550565b60089190910291821b60001990921b9182169119161790565b6001600160a01b0382166001600160a01b03198254161781555050565b81356157de81615c0c565b6157e881836157b6565b5060016020808401358284015560408401356002840155606084013560038401556004830161581a6080860186614fa2565b6801000000000000000081111561583357615833615709565b825481845580821015615858578360005284600020615856828201848301615326565b505b506000928352838320925b8181101561587e578235845592850192918401918501615863565b50505050505061589160a0830183614fa2565b61589f81836005860161533b565b50506158ae60c0830183614fe9565b61564781836006860161543c565b81356158c781615c0c565b6158d181836157b6565b5060016020808401356158e381615c0c565b6158ef818486016157b6565b506002604085013561590081615c0c565b61590c818387016157b6565b50600360608601358186015560046159276080880188615030565b6159348183858b01615525565b5050600580870161594860a08a018a614fa2565b6801000000000000000081111561596157615961615709565b825481845580821015615a35577f33333333333333333333333333333333333333333333333333333333333333338082118b16156159a1576159a16156dd565b8083118b16156159b3576159b36156dd565b506000848152898120838702810190878402015b80821015615a31576159db8384845461579d565b8255828d8301558a82016159f18485835461579d565b815550898201615a038485835461579d565b90558189018054615a1381615664565b8015615a2557615a2586828486615140565b505050908701906159c7565b5050505b50819650615a4283615134565b9550600094508492505b80831015615a7957615a68615a6188846150a9565b8688615b51565b958701959483019491880191615a4c565b505050505050505050612add615a9260c0840184615094565b600683016157d3565b81358155600181016020830135615ab181615c2e565b615abb8183615ad4565b506040830135615aca81615c2e565b6156478183615ae5565b60ff821660ff198254161781555050565b805461ff008360081b1661ff00198216178255505050565b8115615b0b57615b0b6156c7565b8235815560018082016020615b2281870187614fa2565b615b2c8185615733565b6000938452828420935b81811015610be1578235855593850193918301918501615b36565b8115615b5f57615b5f6156c7565b82358155600181016020840135615b7581615c21565b60048110615b8557615b856156f3565b60ff1982541660ff8216811783555050506040830135600282015560608301356003820155615bb76080840184615030565b610b31818360048601615525565b8115615bd357615bd36156c7565b82358155600181016020840135615be981615c2e565b615bf38183615ad4565b506040840135615c0281615c2e565b610b318183615ae5565b6001600160a01b03811681146106a257600080fd5b600481106106a257600080fd5b60ff811681146106a257600080fdfea2646970667358221220bdb7ff431acfbed93e3b8a0f776b236c7c4d3f5210058aab58da685502fe6b8c64736f6c63430008000033",
  "linkReferences": {
    "contracts/SolverLib.sol": {
      "SolverLib": [
        {
          "length": 20,
          "start": 1575
        },
        {
          "length": 20,
          "start": 1866
        },
        {
          "length": 20,
          "start": 2743
        },
        {
          "length": 20,
          "start": 3910
        },
        {
          "length": 20,
          "start": 4630
        },
        {
          "length": 20,
          "start": 4848
        },
        {
          "length": 20,
          "start": 6097
        },
        {
          "length": 20,
          "start": 6783
        },
        {
          "length": 20,
          "start": 6994
        },
        {
          "length": 20,
          "start": 7781
        },
        {
          "length": 20,
          "start": 8051
        },
        {
          "length": 20,
          "start": 8404
        },
        {
          "length": 20,
          "start": 12422
        }
      ]
    }
  },
  "deployedLinkReferences": {
    "contracts/SolverLib.sol": {
      "SolverLib": [
        {
          "length": 20,
          "start": 1542
        },
        {
          "length": 20,
          "start": 1833
        },
        {
          "length": 20,
          "start": 2710
        },
        {
          "length": 20,
          "start": 3877
        },
        {
          "length": 20,
          "start": 4597
        },
        {
          "length": 20,
          "start": 4815
        },
        {
          "length": 20,
          "start": 6064
        },
        {
          "length": 20,
          "start": 6750
        },
        {
          "length": 20,
          "start": 6961
        },
        {
          "length": 20,
          "start": 7748
        },
        {
          "length": 20,
          "start": 8018
        },
        {
          "length": 20,
          "start": 8371
        },
        {
          "length": 20,
          "start": 12389
        }
      ]
    }
  }
}