{
  "_format": "hh-sol-artifact-1",
  "contractName": "BasicSolverV1",
  "sourceName": "contracts/BasicSolverV1.sol",
  "abi": [
    {
      "anonymous": false,
      "inputs": [
        {
          "indexed": false,
          "internalType": "address",
          "name": "chainChild",
          "type": "address"
        }
      ],
      "name": "DeployedChild",
      "type": "event"
    },
    {
      "anonymous": false,
      "inputs": [],
      "name": "IngestedData",
      "type": "event"
    },
    {
      "anonymous": false,
      "inputs": [
        {
          "indexed": false,
          "internalType": "address",
          "name": "solver",
          "type": "address"
        },
        {
          "indexed": false,
          "internalType": "uint256",
          "name": "solveIndex",
          "type": "uint256"
        }
      ],
      "name": "PreparedSolve",
      "type": "event"
    },
    {
      "inputs": [
        {
          "internalType": "bytes32",
          "name": "_slot",
          "type": "bytes32"
        },
        {
          "internalType": "bytes",
          "name": "_data",
          "type": "bytes"
        }
      ],
      "name": "addData",
      "outputs": [],
      "stateMutability": "nonpayable",
      "type": "function"
    },
    {
      "inputs": [
        {
          "internalType": "uint256",
          "name": "_index",
          "type": "uint256"
        }
      ],
      "name": "addressFromChainIndex",
      "outputs": [
        {
          "internalType": "address",
          "name": "_address",
          "type": "address"
        }
      ],
      "stateMutability": "view",
      "type": "function"
    },
    {
      "inputs": [
        {
          "internalType": "uint256",
          "name": "_index",
          "type": "uint256"
        },
        {
          "internalType": "uint256[]",
          "name": "payouts",
          "type": "uint256[]"
        }
      ],
      "name": "arbitrate",
      "outputs": [],
      "stateMutability": "nonpayable",
      "type": "function"
    },
    {
      "inputs": [
        {
          "internalType": "uint256",
          "name": "_index",
          "type": "uint256"
        }
      ],
      "name": "arbitrateNull",
      "outputs": [],
      "stateMutability": "nonpayable",
      "type": "function"
    },
    {
      "inputs": [
        {
          "internalType": "uint256",
          "name": "_index",
          "type": "uint256"
        }
      ],
      "name": "arbitrationPending",
      "outputs": [],
      "stateMutability": "nonpayable",
      "type": "function"
    },
    {
      "inputs": [
        {
          "internalType": "uint256",
          "name": "_index",
          "type": "uint256"
        }
      ],
      "name": "arbitrationRequested",
      "outputs": [],
      "stateMutability": "nonpayable",
      "type": "function"
    },
    {
      "inputs": [],
      "name": "chainChild",
      "outputs": [
        {
          "internalType": "address",
          "name": "",
          "type": "address"
        }
      ],
      "stateMutability": "view",
      "type": "function"
    },
    {
      "inputs": [],
      "name": "chainIndex",
      "outputs": [
        {
          "internalType": "uint256",
          "name": "",
          "type": "uint256"
        }
      ],
      "stateMutability": "view",
      "type": "function"
    },
    {
      "inputs": [],
      "name": "chainParent",
      "outputs": [
        {
          "internalType": "address",
          "name": "",
          "type": "address"
        }
      ],
      "stateMutability": "view",
      "type": "function"
    },
    {
      "inputs": [],
      "name": "collateralBalance",
      "outputs": [
        {
          "internalType": "uint256",
          "name": "balance",
          "type": "uint256"
        }
      ],
      "stateMutability": "view",
      "type": "function"
    },
    {
      "inputs": [
        {
          "internalType": "uint256",
          "name": "",
          "type": "uint256"
        }
      ],
      "name": "conditions",
      "outputs": [
        {
          "internalType": "contract IERC20",
          "name": "collateralToken",
          "type": "address"
        },
        {
          "internalType": "bytes32",
          "name": "questionId",
          "type": "bytes32"
        },
        {
          "internalType": "bytes32",
          "name": "parentCollectionId",
          "type": "bytes32"
        },
        {
          "internalType": "bytes32",
          "name": "conditionId",
          "type": "bytes32"
        },
        {
          "internalType": "enum SolverLib.Status",
          "name": "status",
          "type": "uint8"
        }
      ],
      "stateMutability": "view",
      "type": "function"
    },
    {
      "inputs": [],
      "name": "config",
      "outputs": [
        {
          "internalType": "contract Solver",
          "name": "implementation",
          "type": "address"
        },
        {
          "internalType": "address",
          "name": "keeper",
          "type": "address"
        },
        {
          "internalType": "address",
          "name": "arbitrator",
          "type": "address"
        },
        {
          "internalType": "uint256",
          "name": "timelockSeconds",
          "type": "uint256"
        },
        {
          "internalType": "bytes",
          "name": "data",
          "type": "bytes"
        },
        {
          "components": [
            {
              "internalType": "contract IERC20",
              "name": "collateralToken",
              "type": "address"
            },
            {
              "internalType": "uint256",
              "name": "outcomeSlots",
              "type": "uint256"
            },
            {
              "internalType": "uint256",
              "name": "parentCollectionIndexSet",
              "type": "uint256"
            },
            {
              "internalType": "bytes32",
              "name": "amountSlot",
              "type": "bytes32"
            },
            {
              "internalType": "uint256[]",
              "name": "partition",
              "type": "uint256[]"
            },
            {
              "components": [
                {
                  "internalType": "bytes32",
                  "name": "recipientAddressSlot",
                  "type": "bytes32"
                },
                {
                  "internalType": "bytes32[]",
                  "name": "recipientAmountSlots",
                  "type": "bytes32[]"
                }
              ],
              "internalType": "struct SolverLib.Allocation[]",
              "name": "allocations",
              "type": "tuple[]"
            },
            {
              "components": [
                {
                  "internalType": "bytes32",
                  "name": "digest",
                  "type": "bytes32"
                },
                {
                  "internalType": "uint8",
                  "name": "hashFunction",
                  "type": "uint8"
                },
                {
                  "internalType": "uint8",
                  "name": "size",
                  "type": "uint8"
                }
              ],
              "internalType": "struct SolverLib.Multihash[]",
              "name": "outcomeURIs",
              "type": "tuple[]"
            }
          ],
          "internalType": "struct SolverLib.ConditionBase",
          "name": "conditionBase",
          "type": "tuple"
        }
      ],
      "stateMutability": "view",
      "type": "function"
    },
    {
      "inputs": [
        {
          "internalType": "uint256",
          "name": "_index",
          "type": "uint256"
        }
      ],
      "name": "confirmPayouts",
      "outputs": [],
      "stateMutability": "nonpayable",
      "type": "function"
    },
    {
      "inputs": [
        {
          "components": [
            {
              "internalType": "contract Solver",
              "name": "implementation",
              "type": "address"
            },
            {
              "internalType": "address",
              "name": "keeper",
              "type": "address"
            },
            {
              "internalType": "address",
              "name": "arbitrator",
              "type": "address"
            },
            {
              "internalType": "uint256",
              "name": "timelockSeconds",
              "type": "uint256"
            },
            {
              "internalType": "bytes",
              "name": "data",
              "type": "bytes"
            },
            {
              "components": [
                {
                  "internalType": "uint256",
                  "name": "executions",
                  "type": "uint256"
                },
                {
                  "internalType": "enum SolverLib.IngestType",
                  "name": "ingestType",
                  "type": "uint8"
                },
                {
                  "internalType": "bytes32",
                  "name": "slot",
                  "type": "bytes32"
                },
                {
                  "internalType": "uint256",
                  "name": "solverIndex",
                  "type": "uint256"
                },
                {
                  "internalType": "bytes",
                  "name": "data",
                  "type": "bytes"
                }
              ],
              "internalType": "struct SolverLib.Ingest[]",
              "name": "ingests",
              "type": "tuple[]"
            },
            {
              "components": [
                {
                  "internalType": "contract IERC20",
                  "name": "collateralToken",
                  "type": "address"
                },
                {
                  "internalType": "uint256",
                  "name": "outcomeSlots",
                  "type": "uint256"
                },
                {
                  "internalType": "uint256",
                  "name": "parentCollectionIndexSet",
                  "type": "uint256"
                },
                {
                  "internalType": "bytes32",
                  "name": "amountSlot",
                  "type": "bytes32"
                },
                {
                  "internalType": "uint256[]",
                  "name": "partition",
                  "type": "uint256[]"
                },
                {
                  "components": [
                    {
                      "internalType": "bytes32",
                      "name": "recipientAddressSlot",
                      "type": "bytes32"
                    },
                    {
                      "internalType": "bytes32[]",
                      "name": "recipientAmountSlots",
                      "type": "bytes32[]"
                    }
                  ],
                  "internalType": "struct SolverLib.Allocation[]",
                  "name": "allocations",
                  "type": "tuple[]"
                },
                {
                  "components": [
                    {
                      "internalType": "bytes32",
                      "name": "digest",
                      "type": "bytes32"
                    },
                    {
                      "internalType": "uint8",
                      "name": "hashFunction",
                      "type": "uint8"
                    },
                    {
                      "internalType": "uint8",
                      "name": "size",
                      "type": "uint8"
                    }
                  ],
                  "internalType": "struct SolverLib.Multihash[]",
                  "name": "outcomeURIs",
                  "type": "tuple[]"
                }
              ],
              "internalType": "struct SolverLib.ConditionBase",
              "name": "conditionBase",
              "type": "tuple"
            }
          ],
          "internalType": "struct SolverLib.Config",
          "name": "_config",
          "type": "tuple"
        }
      ],
      "name": "deployChild",
      "outputs": [
        {
          "internalType": "contract Solver",
          "name": "_solver",
          "type": "address"
        }
      ],
      "stateMutability": "nonpayable",
      "type": "function"
    },
    {
      "inputs": [
        {
          "internalType": "uint256",
          "name": "_index",
          "type": "uint256"
        }
      ],
      "name": "executeSolve",
      "outputs": [],
      "stateMutability": "nonpayable",
      "type": "function"
    },
    {
      "inputs": [
        {
          "internalType": "bytes32",
          "name": "_slot",
          "type": "bytes32"
        }
      ],
      "name": "getCallbackOutput",
      "outputs": [
        {
          "internalType": "bytes",
          "name": "data",
          "type": "bytes"
        }
      ],
      "stateMutability": "view",
      "type": "function"
    },
    {
      "inputs": [],
      "name": "getConditions",
      "outputs": [
        {
          "components": [
            {
              "internalType": "contract IERC20",
              "name": "collateralToken",
              "type": "address"
            },
            {
              "internalType": "bytes32",
              "name": "questionId",
              "type": "bytes32"
            },
            {
              "internalType": "bytes32",
              "name": "parentCollectionId",
              "type": "bytes32"
            },
            {
              "internalType": "bytes32",
              "name": "conditionId",
              "type": "bytes32"
            },
            {
              "internalType": "uint256[]",
              "name": "payouts",
              "type": "uint256[]"
            },
            {
              "internalType": "enum SolverLib.Status",
              "name": "status",
              "type": "uint8"
            }
          ],
          "internalType": "struct SolverLib.Condition[]",
          "name": "",
          "type": "tuple[]"
        }
      ],
      "stateMutability": "view",
      "type": "function"
    },
    {
      "inputs": [],
      "name": "getConfig",
      "outputs": [
        {
          "components": [
            {
              "internalType": "contract Solver",
              "name": "implementation",
              "type": "address"
            },
            {
              "internalType": "address",
              "name": "keeper",
              "type": "address"
            },
            {
              "internalType": "address",
              "name": "arbitrator",
              "type": "address"
            },
            {
              "internalType": "uint256",
              "name": "timelockSeconds",
              "type": "uint256"
            },
            {
              "internalType": "bytes",
              "name": "data",
              "type": "bytes"
            },
            {
              "components": [
                {
                  "internalType": "uint256",
                  "name": "executions",
                  "type": "uint256"
                },
                {
                  "internalType": "enum SolverLib.IngestType",
                  "name": "ingestType",
                  "type": "uint8"
                },
                {
                  "internalType": "bytes32",
                  "name": "slot",
                  "type": "bytes32"
                },
                {
                  "internalType": "uint256",
                  "name": "solverIndex",
                  "type": "uint256"
                },
                {
                  "internalType": "bytes",
                  "name": "data",
                  "type": "bytes"
                }
              ],
              "internalType": "struct SolverLib.Ingest[]",
              "name": "ingests",
              "type": "tuple[]"
            },
            {
              "components": [
                {
                  "internalType": "contract IERC20",
                  "name": "collateralToken",
                  "type": "address"
                },
                {
                  "internalType": "uint256",
                  "name": "outcomeSlots",
                  "type": "uint256"
                },
                {
                  "internalType": "uint256",
                  "name": "parentCollectionIndexSet",
                  "type": "uint256"
                },
                {
                  "internalType": "bytes32",
                  "name": "amountSlot",
                  "type": "bytes32"
                },
                {
                  "internalType": "uint256[]",
                  "name": "partition",
                  "type": "uint256[]"
                },
                {
                  "components": [
                    {
                      "internalType": "bytes32",
                      "name": "recipientAddressSlot",
                      "type": "bytes32"
                    },
                    {
                      "internalType": "bytes32[]",
                      "name": "recipientAmountSlots",
                      "type": "bytes32[]"
                    }
                  ],
                  "internalType": "struct SolverLib.Allocation[]",
                  "name": "allocations",
                  "type": "tuple[]"
                },
                {
                  "components": [
                    {
                      "internalType": "bytes32",
                      "name": "digest",
                      "type": "bytes32"
                    },
                    {
                      "internalType": "uint8",
                      "name": "hashFunction",
                      "type": "uint8"
                    },
                    {
                      "internalType": "uint8",
                      "name": "size",
                      "type": "uint8"
                    }
                  ],
                  "internalType": "struct SolverLib.Multihash[]",
                  "name": "outcomeURIs",
                  "type": "tuple[]"
                }
              ],
              "internalType": "struct SolverLib.ConditionBase",
              "name": "conditionBase",
              "type": "tuple"
            }
          ],
          "internalType": "struct SolverLib.Config",
          "name": "",
          "type": "tuple"
        }
      ],
      "stateMutability": "view",
      "type": "function"
    },
    {
      "inputs": [
        {
          "internalType": "bytes32",
          "name": "_slot",
          "type": "bytes32"
        }
      ],
      "name": "getData",
      "outputs": [
        {
          "internalType": "bytes",
          "name": "data",
          "type": "bytes"
        }
      ],
      "stateMutability": "view",
      "type": "function"
    },
    {
      "inputs": [
        {
          "internalType": "bytes32",
          "name": "slot",
          "type": "bytes32"
        }
      ],
      "name": "getOutgoingCallbacks",
      "outputs": [
        {
          "internalType": "address[]",
          "name": "",
          "type": "address[]"
        }
      ],
      "stateMutability": "view",
      "type": "function"
    },
    {
      "inputs": [
        {
          "internalType": "bytes32",
          "name": "_slot",
          "type": "bytes32"
        }
      ],
      "name": "handleCallback",
      "outputs": [],
      "stateMutability": "nonpayable",
      "type": "function"
    },
    {
      "inputs": [],
      "name": "ingestsValid",
      "outputs": [
        {
          "internalType": "bool",
          "name": "",
          "type": "bool"
        }
      ],
      "stateMutability": "view",
      "type": "function"
    },
    {
      "inputs": [
        {
          "internalType": "address",
          "name": "_ctfAddress",
          "type": "address"
        },
        {
          "internalType": "address",
          "name": "_chainParent",
          "type": "address"
        },
        {
          "internalType": "uint256",
          "name": "_chainIndex",
          "type": "uint256"
        },
        {
          "components": [
            {
              "internalType": "contract Solver",
              "name": "implementation",
              "type": "address"
            },
            {
              "internalType": "address",
              "name": "keeper",
              "type": "address"
            },
            {
              "internalType": "address",
              "name": "arbitrator",
              "type": "address"
            },
            {
              "internalType": "uint256",
              "name": "timelockSeconds",
              "type": "uint256"
            },
            {
              "internalType": "bytes",
              "name": "data",
              "type": "bytes"
            },
            {
              "components": [
                {
                  "internalType": "uint256",
                  "name": "executions",
                  "type": "uint256"
                },
                {
                  "internalType": "enum SolverLib.IngestType",
                  "name": "ingestType",
                  "type": "uint8"
                },
                {
                  "internalType": "bytes32",
                  "name": "slot",
                  "type": "bytes32"
                },
                {
                  "internalType": "uint256",
                  "name": "solverIndex",
                  "type": "uint256"
                },
                {
                  "internalType": "bytes",
                  "name": "data",
                  "type": "bytes"
                }
              ],
              "internalType": "struct SolverLib.Ingest[]",
              "name": "ingests",
              "type": "tuple[]"
            },
            {
              "components": [
                {
                  "internalType": "contract IERC20",
                  "name": "collateralToken",
                  "type": "address"
                },
                {
                  "internalType": "uint256",
                  "name": "outcomeSlots",
                  "type": "uint256"
                },
                {
                  "internalType": "uint256",
                  "name": "parentCollectionIndexSet",
                  "type": "uint256"
                },
                {
                  "internalType": "bytes32",
                  "name": "amountSlot",
                  "type": "bytes32"
                },
                {
                  "internalType": "uint256[]",
                  "name": "partition",
                  "type": "uint256[]"
                },
                {
                  "components": [
                    {
                      "internalType": "bytes32",
                      "name": "recipientAddressSlot",
                      "type": "bytes32"
                    },
                    {
                      "internalType": "bytes32[]",
                      "name": "recipientAmountSlots",
                      "type": "bytes32[]"
                    }
                  ],
                  "internalType": "struct SolverLib.Allocation[]",
                  "name": "allocations",
                  "type": "tuple[]"
                },
                {
                  "components": [
                    {
                      "internalType": "bytes32",
                      "name": "digest",
                      "type": "bytes32"
                    },
                    {
                      "internalType": "uint8",
                      "name": "hashFunction",
                      "type": "uint8"
                    },
                    {
                      "internalType": "uint8",
                      "name": "size",
                      "type": "uint8"
                    }
                  ],
                  "internalType": "struct SolverLib.Multihash[]",
                  "name": "outcomeURIs",
                  "type": "tuple[]"
                }
              ],
              "internalType": "struct SolverLib.ConditionBase",
              "name": "conditionBase",
              "type": "tuple"
            }
          ],
          "internalType": "struct SolverLib.Config",
          "name": "_solverConfig",
          "type": "tuple"
        }
      ],
      "name": "init",
      "outputs": [],
      "stateMutability": "nonpayable",
      "type": "function"
    },
    {
      "inputs": [
        {
          "internalType": "address",
          "name": "operator",
          "type": "address"
        },
        {
          "internalType": "address",
          "name": "from",
          "type": "address"
        },
        {
          "internalType": "uint256[]",
          "name": "ids",
          "type": "uint256[]"
        },
        {
          "internalType": "uint256[]",
          "name": "values",
          "type": "uint256[]"
        },
        {
          "internalType": "bytes",
          "name": "data",
          "type": "bytes"
        }
      ],
      "name": "onERC1155BatchReceived",
      "outputs": [
        {
          "internalType": "bytes4",
          "name": "",
          "type": "bytes4"
        }
      ],
      "stateMutability": "nonpayable",
      "type": "function"
    },
    {
      "inputs": [
        {
          "internalType": "address",
          "name": "operator",
          "type": "address"
        },
        {
          "internalType": "address",
          "name": "from",
          "type": "address"
        },
        {
          "internalType": "uint256",
          "name": "id",
          "type": "uint256"
        },
        {
          "internalType": "uint256",
          "name": "value",
          "type": "uint256"
        },
        {
          "internalType": "bytes",
          "name": "data",
          "type": "bytes"
        }
      ],
      "name": "onERC1155Received",
      "outputs": [
        {
          "internalType": "bytes4",
          "name": "",
          "type": "bytes4"
        }
      ],
      "stateMutability": "nonpayable",
      "type": "function"
    },
    {
      "inputs": [
        {
          "internalType": "uint256",
          "name": "_index",
          "type": "uint256"
        }
      ],
      "name": "prepareSolve",
      "outputs": [],
      "stateMutability": "nonpayable",
      "type": "function"
    },
    {
      "inputs": [
        {
          "internalType": "uint256",
          "name": "_index",
          "type": "uint256"
        },
        {
          "internalType": "uint256[]",
          "name": "_payouts",
          "type": "uint256[]"
        }
      ],
      "name": "proposePayouts",
      "outputs": [],
      "stateMutability": "nonpayable",
      "type": "function"
    },
    {
      "inputs": [
        {
          "internalType": "contract IERC20",
          "name": "_collateralToken",
          "type": "address"
        },
        {
          "internalType": "bytes32",
          "name": "_parentCollectionId",
          "type": "bytes32"
        },
        {
          "internalType": "bytes32",
          "name": "_conditionId",
          "type": "bytes32"
        },
        {
          "internalType": "uint256[]",
          "name": "_indexSets",
          "type": "uint256[]"
        }
      ],
      "name": "redeemPosition",
      "outputs": [],
      "stateMutability": "nonpayable",
      "type": "function"
    },
    {
      "inputs": [
        {
          "internalType": "bytes32",
          "name": "_slot",
          "type": "bytes32"
        },
        {
          "internalType": "uint256",
          "name": "_chainIndex",
          "type": "uint256"
        }
      ],
      "name": "registerOutgoingCallback",
      "outputs": [],
      "stateMutability": "nonpayable",
      "type": "function"
    },
    {
      "inputs": [
        {
          "components": [
            {
              "internalType": "bytes32",
              "name": "digest",
              "type": "bytes32"
            },
            {
              "internalType": "uint8",
              "name": "hashFunction",
              "type": "uint8"
            },
            {
              "internalType": "uint8",
              "name": "size",
              "type": "uint8"
            }
          ],
          "internalType": "struct SolverLib.Multihash",
          "name": "_context",
          "type": "tuple"
        }
      ],
      "name": "setContext",
      "outputs": [],
      "stateMutability": "nonpayable",
      "type": "function"
    },
    {
      "inputs": [
        {
          "internalType": "bytes32",
          "name": "_trackingId",
          "type": "bytes32"
        }
      ],
      "name": "setTrackingId",
      "outputs": [],
      "stateMutability": "nonpayable",
      "type": "function"
    },
    {
      "inputs": [
        {
          "internalType": "bytes4",
          "name": "interfaceId",
          "type": "bytes4"
        }
      ],
      "name": "supportsInterface",
      "outputs": [
        {
          "internalType": "bool",
          "name": "",
          "type": "bool"
        }
      ],
      "stateMutability": "view",
      "type": "function"
    },
    {
      "inputs": [
        {
          "internalType": "uint256",
          "name": "",
          "type": "uint256"
        }
      ],
      "name": "timelocks",
      "outputs": [
        {
          "internalType": "uint256",
          "name": "",
          "type": "uint256"
        }
      ],
      "stateMutability": "view",
      "type": "function"
    },
    {
      "inputs": [],
      "name": "trackingId",
      "outputs": [
        {
          "internalType": "bytes32",
          "name": "",
          "type": "bytes32"
        }
      ],
      "stateMutability": "view",
      "type": "function"
    },
    {
      "inputs": [],
      "name": "uiURI",
      "outputs": [
        {
          "internalType": "bytes32",
          "name": "digest",
          "type": "bytes32"
        },
        {
          "internalType": "uint8",
          "name": "hashFunction",
          "type": "uint8"
        },
        {
          "internalType": "uint8",
          "name": "size",
          "type": "uint8"
        }
      ],
      "stateMutability": "view",
      "type": "function"
    }
  ],
  "bytecode": "0x608060405234801561001057600080fd5b50615c9980620000216000396000f3fe608060405234801561001057600080fd5b50600436106102415760003560e01c806355dd978b11610145578063a9f698b6116100bd578063c98c05b71161008c578063df33cc5111610071578063df33cc51146104e8578063ea8221a9146104fb578063f23a6e611461050357610241565b8063c98c05b7146104cd578063de3a23c5146104d557610241565b8063a9f698b614610472578063b992db0f14610485578063bc197c8114610498578063c3f909d4146104b857610241565b806380c2dde21161011457806387dfee57116100f957806387dfee571461044457806399992506146104575780639ba45ccf1461045f57610241565b806380c2dde2146104295780638602ce1b1461043157610241565b806355dd978b146103df57806379502c55146103e75780637c1236271461040157806380b204b71461041657610241565b806326c50007116101d857806348cbb2fc116101a75780634dab5e691161018c5780634dab5e69146103a65780634e46f223146103b957806354f6127f146103cc57610241565b806348cbb2fc1461038b5780634a77234e1461039357610241565b806326c500071461031d57806336fcf48c146103415780633837b05e146103585780633f4fb5aa1461036b57610241565b80630d06101a116102145780630d06101a146102c45780630d7e149f146102d75780630d8d3975146102f7578063187825591461030a57610241565b806301ffc9a71461024657806307c068b61461026f5780630944e26e14610284578063098b37f7146102a4575b600080fd5b610259610254366004613928565b610516565b604051610266919061477a565b60405180910390f35b61028261027d366004613858565b61055c565b005b610297610292366004613aea565b6106a5565b6040516102669190614334565b6102b76102b2366004613858565b61092b565b604051610266919061457e565b6102826102d2366004613858565b610997565b6102ea6102e5366004613858565b6109d3565b6040516102669190614785565b610282610305366004613858565b6109f4565b6102826103183660046139c3565b610b5e565b61033061032b366004613858565b610c12565b604051610266959493929190614817565b610349610c60565b6040516102669392919061479c565b610297610366366004613858565b610c75565b61037e610379366004613858565b610da3565b60405161026691906147ca565b6102ea610e69565b6102826103a1366004613858565b610e6f565b6102826103b4366004613858565b61117a565b6102826103c7366004613858565b611254565b61037e6103da366004613858565b61132e565b61029761134b565b6103ef61135a565b6040516102669695949392919061484a565b6104096115e5565b60405161026691906145cb565b610282610424366004613b36565b611714565b61029761187b565b61028261043f366004613888565b61188a565b610282610452366004613b80565b611970565b610259611b29565b61028261046d36600461371b565b611bd6565b610282610480366004613b25565b611d80565b610282610493366004613858565b611da4565b6104ab6104a6366004613660565b612199565b60405161026691906147b5565b6104c06121c6565b6040516102669190614f07565b6102ea6125df565b6102826104e3366004613858565b612679565b6102826104f6366004613907565b6129fc565b6102ea612b07565b6104ab610511366004613785565b612b0d565b60006001600160e01b031982167f4e2312e0000000000000000000000000000000000000000000000000000000001480610554575061055482612b39565b90505b919050565b6007546001600160a01b0316331461058f5760405162461bcd60e51b815260040161058690614c5d565b60405180910390fd5b6003601282815481106105b257634e487b7160e01b600052603260045260246000fd5b600091825260209091206006918202016005015460ff16908111156105e757634e487b7160e01b600052602160045260246000fd5b146106045760405162461bcd60e51b815260040161058690614b92565b73__$94d7d2f22770e4b0d1a2b99fb2812308e2$__63ec7ac2f06012838154811061063f57634e487b7160e01b600052603260045260246000fd5b90600052602060002090600602016040518263ffffffff1660e01b81526004016106699190614785565b60006040518083038186803b15801561068157600080fd5b505af4158015610695573d6000803e3d6000fd5b505050506106a281612b6b565b50565b6006546000906001600160a01b031633146106d25760405162461bcd60e51b815260040161058690614dda565b6014546001600160a01b0316156106fb5760405162461bcd60e51b815260040161058690614948565b6000546015546040517fd6b3ad8d00000000000000000000000000000000000000000000000000000000815273__$94d7d2f22770e4b0d1a2b99fb2812308e2$__9263d6b3ad8d9261076392620100009092046001600160a01b03169187919060040161448d565b604080518083038186803b15801561077a57600080fd5b505af415801561078e573d6000803e3d6000fd5b505050506040513d601f19601f820116820180604052508101906107b291906137ff565b601480546001600160a01b0319166001600160a01b03939093169290921790915560175490915015610858576017546040517f0d06101a0000000000000000000000000000000000000000000000000000000081526001600160a01b03831691630d06101a916108259190600401614785565b600060405180830381600087803b15801561083f57600080fd5b505af1158015610853573d6000803e3d6000fd5b505050505b601954610100900460ff16156108e1576040517fa9f698b60000000000000000000000000000000000000000000000000000000081526001600160a01b0382169063a9f698b6906108ae90601890600401614f9e565b600060405180830381600087803b1580156108c857600080fd5b505af11580156108dc573d6000803e3d6000fd5b505050505b6014546040517fbd2e7fbdc9b1c19997e58c63e6ea1b5a02acd8dd9fd5d76f4bb18634f7155e809161091e916001600160a01b0390911690614334565b60405180910390a1919050565b6000818152601c602090815260409182902080548351818402810184019094528084526060939283018282801561098b57602002820191906000526020600020905b81546001600160a01b0316815260019091019060200180831161096d575b50505050509050919050565b601754156109b75760405162461bcd60e51b815260040161058690614e48565b6002546001600160a01b031633146109ce57600080fd5b601755565b601681815481106109e357600080fd5b600091825260209091200154905081565b60168181548110610a1557634e487b7160e01b600052603260045260246000fd5b90600052602060002001544211610a3e5760405162461bcd60e51b815260040161058690614aed565b600260128281548110610a6157634e487b7160e01b600052603260045260246000fd5b600091825260209091206006918202016005015460ff1690811115610a9657634e487b7160e01b600052602160045260246000fd5b14610ab35760405162461bcd60e51b815260040161058690614ccb565b6001546012805473__$94d7d2f22770e4b0d1a2b99fb2812308e2$__926385c92867926001600160a01b039091169185908110610b0057634e487b7160e01b600052603260045260246000fd5b90600052602060002090600602016040518363ffffffff1660e01b8152600401610b2b9291906143ce565b60006040518083038186803b158015610b4357600080fd5b505af4158015610b57573d6000803e3d6000fd5b5050505050565b6006546001600160a01b03163314610b885760405162461bcd60e51b815260040161058690614ab6565b6001546040517f01b7037c0000000000000000000000000000000000000000000000000000000081526001600160a01b03909116906301b7037c90610bd990889088908890889088906004016147dd565b600060405180830381600087803b158015610bf357600080fd5b505af1158015610c07573d6000803e3d6000fd5b505050505050505050565b60128181548110610c2257600080fd5b6000918252602090912060069091020180546001820154600283015460038401546005909401546001600160a01b0390931694509092909160ff1685565b60035460045460ff8082169161010090041683565b6000601554821415610c88575030610557565b601554821015610d1957601354604051631c1bd82f60e11b81526001600160a01b0390911690633837b05e90610cc2908590600401614785565b60206040518083038186803b158015610cda57600080fd5b505afa158015610cee573d6000803e3d6000fd5b505050506040513d601f19601f82011682018060405250810190610d129190613644565b9050610557565b60155482111561055757601454604051631c1bd82f60e11b81526001600160a01b0390911690633837b05e90610d53908590600401614785565b60206040518083038186803b158015610d6b57600080fd5b505afa158015610d7f573d6000803e3d6000fd5b505050506040513d601f19601f820116820180604052508101906105549190613644565b6012546000828152601f602052604090205460609114610dd55760405162461bcd60e51b815260040161058690614c26565b6000828152601e602052604090208054610dee9061568a565b80601f0160208091040260200160405190810160405280929190818152602001828054610e1a9061568a565b801561098b5780601f10610e3c5761010080835404028352916020019161098b565b820191906000526020600020905b815481529060010190602001808311610e4a5750939695505050505050565b60175481565b60125415610eb6576006546001600160a01b0316331480610e9a57506013546001600160a01b031633145b610eb65760405162461bcd60e51b815260040161058690614e11565b6012548114610ed75760405162461bcd60e51b815260040161058690614a4a565b601b5415610ef75760405162461bcd60e51b815260040161058690614d39565b601a5415610f175760405162461bcd60e51b815260040161058690614d6e565b600154601354601280546040517f699e0add000000000000000000000000000000000000000000000000000000008152919373__$94d7d2f22770e4b0d1a2b99fb2812308e2$__9363699e0add93610f82936001600160a01b0393841693600b931691600401614399565b60006040518083038186803b158015610f9a57600080fd5b505af4158015610fae573d6000803e3d6000fd5b505050506040513d6000823e601f3d908101601f19168201604052610fd69190810190613a2b565b8154600180820184556000938452602093849020835160069093020180546001600160a01b0319166001600160a01b039093169290921782558284015190820155604082015160028201556060820151600382015560808201518051929391926110469260048501920190613377565b5060a082015160058201805460ff1916600183600681111561107857634e487b7160e01b600052602160045260246000fd5b0217905550506016805460018101825560009182527fd833147d7dc355ba459fc788f669e58cfaf9dc25ddcd0702e87d69c7b51242890155506110b9612bb3565b7f152ec8ae15d347b2d2a8f0858caa29bcaaa0906749a1f43e08bfe7998346024030826040516110ea9291906143ce565b60405180910390a16014546001600160a01b0316156106a2576014546040517f4a77234e0000000000000000000000000000000000000000000000000000000081526001600160a01b0390911690634a77234e9061114c908490600401614785565b600060405180830381600087803b15801561116657600080fd5b505af1158015610b57573d6000803e3d6000fd5b6007546001600160a01b031633146111a45760405162461bcd60e51b815260040161058690614c5d565b6002601282815481106111c757634e487b7160e01b600052603260045260246000fd5b600091825260209091206006918202016005015460ff16908111156111fc57634e487b7160e01b600052602160045260246000fd5b146112195760405162461bcd60e51b815260040161058690614d02565b73__$94d7d2f22770e4b0d1a2b99fb2812308e2$__6324b286026012838154811061063f57634e487b7160e01b600052603260045260246000fd5b6007546001600160a01b0316331461127e5760405162461bcd60e51b815260040161058690614c5d565b6004601282815481106112a157634e487b7160e01b600052603260045260246000fd5b600091825260209091206006918202016005015460ff16908111156112d657634e487b7160e01b600052602160045260246000fd5b146112f35760405162461bcd60e51b815260040161058690614da3565b73__$94d7d2f22770e4b0d1a2b99fb2812308e2$__6359111fb56012838154811061063f57634e487b7160e01b600052603260045260246000fd5b6000818152601e60205260409020805460609190610dee9061568a565b6014546001600160a01b031681565b60058054600654600754600854600980546001600160a01b03958616969486169590931693919261138a9061568a565b80601f01602080910402602001604051908101604052809291908181526020018280546113b69061568a565b80156114035780601f106113d857610100808354040283529160200191611403565b820191906000526020600020905b8154815290600101906020018083116113e657829003601f168201915b50506040805160e0810182526006870180546001600160a01b03168252600788015460208084019190915260088901548385015260098901546060840152600a8901805485518184028101840190965280865298999893975091955060808701945090919083018282801561149757602002820191906000526020600020905b815481526020019060010190808311611483575b5050505050815260200160058201805480602002602001604051908101604052809291908181526020016000905b828210156115595783829060005260206000209060020201604051806040016040529081600082015481526020016001820180548060200260200160405190810160405280929190818152602001828054801561154157602002820191906000526020600020905b81548152602001906001019080831161152d575b505050505081525050815260200190600101906114c5565b50505050815260200160068201805480602002602001604051908101604052809291908181526020016000905b828210156115d857600084815260209081902060408051606081018252600286029092018054835260019081015460ff8082168587015261010090910416918301919091529083529092019101611586565b5050505081525050905086565b60606012805480602002602001604051908101604052809291908181526020016000905b8282101561170b5760008481526020908190206040805160c0810182526006860290920180546001600160a01b0316835260018101548385015260028101548383015260038101546060840152600481018054835181870281018701909452808452939491936080860193928301828280156116a457602002820191906000526020600020905b815481526020019060010190808311611690575b5050509183525050600582015460209091019060ff1660068111156116d957634e487b7160e01b600052602160045260246000fd5b60068111156116f857634e487b7160e01b600052602160045260246000fd5b8152505081526020019060010190611609565b50505050905090565b6006546001600160a01b0316331461173e5760405162461bcd60e51b815260040161058690614ab6565b600c54811461175f5760405162461bcd60e51b81526004016105869061497f565b60016012848154811061178257634e487b7160e01b600052603260045260246000fd5b600091825260209091206006918202016005015460ff16908111156117b757634e487b7160e01b600052602160045260246000fd5b146117d45760405162461bcd60e51b8152600401610586906149dc565b73__$94d7d2f22770e4b0d1a2b99fb2812308e2$__636a0a24f16012858154811061180f57634e487b7160e01b600052603260045260246000fd5b906000526020600020906006020184846040518463ffffffff1660e01b815260040161183d93929190614eed565b60006040518083038186803b15801561185557600080fd5b505af4158015611869573d6000803e3d6000fd5b5050505061187683612b6b565b505050565b6013546001600160a01b031681565b6006546001600160a01b031633146118b45760405162461bcd60e51b8152600401610586906148da565b6000828152602080526040902054600a80546003929081106118e657634e487b7160e01b600052603260045260246000fd5b600091825260209091206001600590920201015460ff16600381111561191c57634e487b7160e01b600052602160045260246000fd5b146119395760405162461bcd60e51b8152600401610586906148a3565b6119438282612e8c565b6040517f71bd81ebe1d98a2944767394e76a9aff18724b2cf04e1db71254f804544b35c790600090a15050565b6007546001600160a01b0316331461199a5760405162461bcd60e51b815260040161058690614c5d565b6004601283815481106119bd57634e487b7160e01b600052603260045260246000fd5b600091825260209091206006918202016005015460ff16908111156119f257634e487b7160e01b600052602160045260246000fd5b14611a0f5760405162461bcd60e51b815260040161058690614da3565b60168281548110611a3057634e487b7160e01b600052603260045260246000fd5b90600052602060002001544211611a595760405162461bcd60e51b815260040161058690614aed565b600c54815114611a7b5760405162461bcd60e51b81526004016105869061497f565b6001546012805473__$94d7d2f22770e4b0d1a2b99fb2812308e2$__92631b948e49926001600160a01b039091169186908110611ac857634e487b7160e01b600052603260045260246000fd5b9060005260206000209060060201846040518463ffffffff1660e01b8152600401611af5939291906143e7565b60006040518083038186803b158015611b0d57600080fd5b505af4158015611b21573d6000803e3d6000fd5b505050505050565b6012546040517f5cc1f6b500000000000000000000000000000000000000000000000000000000815260009173__$94d7d2f22770e4b0d1a2b99fb2812308e2$__91635cc1f6b591611b8191600a919060040161466f565b60206040518083038186803b158015611b9957600080fd5b505af4158015611bad573d6000803e3d6000fd5b505050506040513d601f19601f82011682018060405250810190611bd19190613838565b905090565b600054610100900460ff1680611bef575060005460ff16155b611c0b5760405162461bcd60e51b815260040161058690614bc9565b600054610100900460ff16158015611c36576000805460ff1961ff0019909116610100171660011790555b6000611c486040840160208501613621565b6001600160a01b03161415611c6f5760405162461bcd60e51b815260040161058690614c94565b600080546201000033027fffffffffffffffffffff0000000000000000000000000000000000000000ffff909116179055600180546001600160a01b038781166001600160a01b03199283161790925560138054928716929091169190911790556015839055816005611ce282826158e2565b90505060005b611cf560a0840184614fc8565b9050811015611d67578060206000611d1060a0870187614fc8565b85818110611d2e57634e487b7160e01b600052603260045260246000fd5b9050602002810190611d4091906150cf565b60409081013582526020820192909252016000205580611d5f816156d2565b915050611ce8565b508015610b57576000805461ff00191690555050505050565b6002546001600160a01b03163314611d9757600080fd5b8060186118768282615ac1565b600060128281548110611dc757634e487b7160e01b600052603260045260246000fd5b600091825260209091206006918202016005015460ff1690811115611dfc57634e487b7160e01b600052602160045260246000fd5b14611e195760405162461bcd60e51b815260040161058690614eb6565b611e21611b29565b1515600114611e425760405162461bcd60e51b815260040161058690614b24565b6040517f0e23b7ca00000000000000000000000000000000000000000000000000000000815273__$94d7d2f22770e4b0d1a2b99fb2812308e2$__90630e23b7ca90611e98908490601e90600b90600401614fb2565b60206040518083038186803b158015611eb057600080fd5b505af4158015611ec4573d6000803e3d6000fd5b505050506040513d601f19601f82011682018060405250810190611ee89190613838565b611f045760405162461bcd60e51b815260040161058690614a81565b600160128281548110611f2757634e487b7160e01b600052603260045260246000fd5b906000526020600020906006020160050160006101000a81548160ff02191690836006811115611f6757634e487b7160e01b600052602160045260246000fd5b02179055506001546013546012805473__$94d7d2f22770e4b0d1a2b99fb2812308e2$__93630c5190e2936001600160a01b0391821693911691600b919087908110611fc357634e487b7160e01b600052603260045260246000fd5b60009182526020808320600e548452601e9091526040909220805460069092029092019190611ff19061568a565b80601f016020809104026020016040519081016040528092919081815260200182805461201d9061568a565b801561206a5780601f1061203f5761010080835404028352916020019161206a565b820191906000526020600020905b81548152906001019060200180831161204d57829003601f168201915b50505050508060200190518101906120829190613870565b6040518663ffffffff1660e01b81526004016120a2959493929190614348565b60006040518083038186803b1580156120ba57600080fd5b505af41580156120ce573d6000803e3d6000fd5b50506001546012805473__$94d7d2f22770e4b0d1a2b99fb2812308e2$__94506377ae1d7393506001600160a01b03909216918590811061211f57634e487b7160e01b600052603260045260246000fd5b90600052602060002090600602016005600601601e6017546040518663ffffffff1660e01b8152600401612157959493929190614444565b60006040518083038186803b15801561216f57600080fd5b505af4158015612183573d6000803e3d6000fd5b50505050612190816106a2565b6106a281612f0f565b7fbc197c810000000000000000000000000000000000000000000000000000000098975050505050505050565b6121ce6133c2565b6040805160e081018252600580546001600160a01b03908116835260065481166020840152600754169282019290925260085460608201526009805491929160808401919061221c9061568a565b80601f01602080910402602001604051908101604052809291908181526020018280546122489061568a565b80156122955780601f1061226a57610100808354040283529160200191612295565b820191906000526020600020905b81548152906001019060200180831161227857829003601f168201915b5050505050815260200160058201805480602002602001604051908101604052809291908181526020016000905b828210156123fa57838290600052602060002090600502016040518060a0016040529081600082015481526020016001820160009054906101000a900460ff16600381111561232257634e487b7160e01b600052602160045260246000fd5b600381111561234157634e487b7160e01b600052602160045260246000fd5b815260200160028201548152602001600382015481526020016004820180546123699061568a565b80601f01602080910402602001604051908101604052809291908181526020018280546123959061568a565b80156123e25780601f106123b7576101008083540402835291602001916123e2565b820191906000526020600020905b8154815290600101906020018083116123c557829003601f168201915b505050505081525050815260200190600101906122c3565b505050908252506040805160e0810182526006840180546001600160a01b03168252600785015460208381019190915260088601548385015260098601546060840152600a86018054855181840281018401909652808652958201959394929360808601939283018282801561248f57602002820191906000526020600020905b81548152602001906001019080831161247b575b5050505050815260200160058201805480602002602001604051908101604052809291908181526020016000905b828210156125515783829060005260206000209060020201604051806040016040529081600082015481526020016001820180548060200260200160405190810160405280929190818152602001828054801561253957602002820191906000526020600020905b815481526020019060010190808311612525575b505050505081525050815260200190600101906124bd565b50505050815260200160068201805480602002602001604051908101604052809291908181526020016000905b828210156125d057600084815260209081902060408051606081018252600286029092018054835260019081015460ff808216858701526101009091041691830191909152908352909201910161257e565b50505091525050905250905090565b600b546040517f70a082310000000000000000000000000000000000000000000000000000000081526000916001600160a01b0316906370a0823190612629903090600401614334565b60206040518083038186803b15801561264157600080fd5b505afa158015612655573d6000803e3d6000fd5b505050506040513d601f19601f82011682018060405250810190611bd19190613870565b6000338260405160200161268e929190614312565b60408051601f1981840301815291815281516020928301206000818152601d909352912054600a80549293506126f49290919081106126dd57634e487b7160e01b600052603260045260246000fd5b906000526020600020906005020160030154610c75565b6001600160a01b0316336001600160a01b0316146127245760405162461bcd60e51b815260040161058690614a13565b6000818152601d6020526040812054600a8054909190811061275657634e487b7160e01b600052603260045260246000fd5b600091825260209091206001600590920201015460ff16600381111561278c57634e487b7160e01b600052602160045260246000fd5b146127a95760405162461bcd60e51b815260040161058690614911565b6000818152601d6020526040902054600a805490919081106127db57634e487b7160e01b600052603260045260246000fd5b6000918252602082206005909102018054916127f6836156d2565b90915550506000818152601d6020526040902054600a80546129ab9290811061282f57634e487b7160e01b600052603260045260246000fd5b906000526020600020906005020160020154336001600160a01b0316633f4fb5aa60058001601a6003016000878152602001908152602001600020548154811061288957634e487b7160e01b600052603260045260246000fd5b906000526020600020906005020160040180546128a59061568a565b80601f01602080910402602001604051908101604052809291908181526020018280546128d19061568a565b801561291e5780601f106128f35761010080835404028352916020019161291e565b820191906000526020600020905b81548152906001019060200180831161290157829003601f168201915b50505050508060200190518101906129369190613870565b6040518263ffffffff1660e01b81526004016129529190614785565b60006040518083038186803b15801561296a57600080fd5b505afa15801561297e573d6000803e3d6000fd5b505050506040513d6000823e601f3d908101601f191682016040526129a69190810190613950565b612e8c565b6000818152601d60205260408120819055601a8054916129ca83615673565b90915550506040517f71bd81ebe1d98a2944767394e76a9aff18724b2cf04e1db71254f804544b35c790600090a15050565b612a0581610c75565b6001600160a01b0316336001600160a01b031614612a355760405162461bcd60e51b815260040161058690614a13565b6000828152601f602052604090205415801590612a6157506012546000838152601f6020526040902054145b15612ac05760405163de3a23c560e01b8152339063de3a23c590612a89908590600401614785565b600060405180830381600087803b158015612aa357600080fd5b505af1158015612ab7573d6000803e3d6000fd5b50505050612b03565b6000828152601c60209081526040822080546001810182559083529082200180546001600160a01b03191633179055601b805491612afd836156d2565b91905055505b5050565b60155481565b7ff23a6e61000000000000000000000000000000000000000000000000000000005b9695505050505050565b6001600160e01b031981167f01ffc9a70000000000000000000000000000000000000000000000000000000014919050565b600854612b79906001615316565b612b8390426152fe565b60168281548110612ba457634e487b7160e01b600052603260045260246000fd5b60009182526020909120015550565b60005b600a54811015612e60576000600a805483908110612be457634e487b7160e01b600052603260045260246000fd5b600091825260209091206001600590920201015460ff166003811115612c1a57634e487b7160e01b600052602160045260246000fd5b14612c5d57612c58600580018281548110612c4557634e487b7160e01b600052603260045260246000fd5b9060005260206000209060050201612ff8565b612e4e565b6000306001600160a01b0316633837b05e600580018481548110612c9157634e487b7160e01b600052603260045260246000fd5b9060005260206000209060050201600301546040518263ffffffff1660e01b8152600401612cbf9190614785565b60206040518083038186803b158015612cd757600080fd5b505afa158015612ceb573d6000803e3d6000fd5b505050506040513d601f19601f82011682018060405250810190612d0f9190613644565b9050612d1b81836130ec565b806001600160a01b031663df33cc51600580018481548110612d4d57634e487b7160e01b600052603260045260246000fd5b90600052602060002090600502016004018054612d699061568a565b80601f0160208091040260200160405190810160405280929190818152602001828054612d959061568a565b8015612de25780601f10612db757610100808354040283529160200191612de2565b820191906000526020600020905b815481529060010190602001808311612dc557829003601f168201915b5050505050806020019051810190612dfa9190613870565b6015546040518363ffffffff1660e01b8152600401612e1a92919061478e565b600060405180830381600087803b158015612e3457600080fd5b505af1158015612e48573d6000803e3d6000fd5b50505050505b80612e58816156d2565b915050612bb6565b506040517f71bd81ebe1d98a2944767394e76a9aff18724b2cf04e1db71254f804544b35c790600090a1565b601254612e9b90600190615335565b6000838152601f602052604090205414612ec75760405162461bcd60e51b815260040161058690614e7f565b6000828152601f60205260408120805491612ee1836156d2565b90915550506000828152601e602090815260409091208251612f059284019061341f565b50612b038261320f565b6014546001600160a01b031615801590612faa5750601460009054906101000a90046001600160a01b03166001600160a01b031663999925066040518163ffffffff1660e01b815260040160206040518083038186803b158015612f7257600080fd5b505afa158015612f86573d6000803e3d6000fd5b505050506040513d601f19601f82011682018060405250810190612faa9190613838565b156106a2576014546040517fb992db0f0000000000000000000000000000000000000000000000000000000081526001600160a01b039091169063b992db0f9061114c908490600401614785565b600181015460039060ff168181111561302157634e487b7160e01b600052602160045260246000fd5b111561303f5760405162461bcd60e51b815260040161058690614b5b565b805481600061304d836156d2565b9091555060039050600182015460ff16600381111561307c57634e487b7160e01b600052602160045260246000fd5b146106a2576106a2816002015473__$94d7d2f22770e4b0d1a2b99fb2812308e2$__63b3d73707846040518263ffffffff1660e01b81526004016130c09190614785565b60006040518083038186803b1580156130d857600080fd5b505af415801561297e573d6000803e3d6000fd5b80601a60030160008460058001858154811061311857634e487b7160e01b600052603260045260246000fd5b906000526020600020906005020160040180546131349061568a565b80601f01602080910402602001604051908101604052809291908181526020018280546131609061568a565b80156131ad5780601f10613182576101008083540402835291602001916131ad565b820191906000526020600020905b81548152906001019060200180831161319057829003601f168201915b50505050508060200190518101906131c59190613870565b6040516020016131d6929190614312565b60408051601f19818403018152918152815160209283012083529082019290925201600090812091909155601a805491612afd836156d2565b60005b6000828152601c6020526040902054811015612b03576000828152601c6020526040812080548390811061325657634e487b7160e01b600052603260045260246000fd5b6000918252602090912001546001600160a01b031614613365576000828152601c6020526040902080548290811061329e57634e487b7160e01b600052603260045260246000fd5b60009182526020909120015460405163de3a23c560e01b81526001600160a01b039091169063de3a23c5906132d7908590600401614785565b600060405180830381600087803b1580156132f157600080fd5b505af1158015613305573d6000803e3d6000fd5b5050506000838152601c6020526040902080549091508290811061333957634e487b7160e01b600052603260045260246000fd5b6000918252602082200180546001600160a01b0319169055601b80549161335f83615673565b91905055505b8061336f816156d2565b915050613212565b8280548282559060005260206000209081019282156133b2579160200282015b828111156133b2578251825591602001919060010190613397565b506133be929150613492565b5090565b6040518060e0016040528060006001600160a01b0316815260200160006001600160a01b0316815260200160006001600160a01b0316815260200160008152602001606081526020016060815260200161341a6134a7565b905290565b82805461342b9061568a565b90600052602060002090601f01602090048101928261344d57600085556133b2565b82601f1061346657805160ff19168380011785556133b2565b828001600101855582156133b257918201828111156133b2578251825591602001919060010190613397565b5b808211156133be5760008155600101613493565b6040518060e0016040528060006001600160a01b031681526020016000815260200160008152602001600080191681526020016060815260200160608152602001606081525090565b803561055781615c32565b60008083601f84011261350c578182fd5b50813567ffffffffffffffff811115613523578182fd5b602083019150836020808302850101111561353d57600080fd5b9250929050565b600082601f830112613554578081fd5b815160206135696135648361510e565b6150e4565b8281528181019085830183850287018401881015613585578586fd5b855b858110156135a357815184529284019290840190600101613587565b5090979650505050505050565b60008083601f8401126135c1578182fd5b50813567ffffffffffffffff8111156135d8578182fd5b60208301915083602082850101111561353d57600080fd5b805161055781615c32565b80516007811061055757600080fd5b600060e0828403121561361b578081fd5b50919050565b600060208284031215613632578081fd5b813561363d81615c32565b9392505050565b600060208284031215613655578081fd5b815161363d81615c32565b60008060008060008060008060a0898b03121561367b578384fd5b883561368681615c32565b9750602089013561369681615c32565b9650604089013567ffffffffffffffff808211156136b2578586fd5b6136be8c838d016134fb565b909850965060608b01359150808211156136d6578586fd5b6136e28c838d016134fb565b909650945060808b01359150808211156136fa578384fd5b506137078b828c016135b0565b999c989b5096995094979396929594505050565b60008060008060808587031215613730578182fd5b843561373b81615c32565b9350602085013561374b81615c32565b925060408501359150606085013567ffffffffffffffff81111561376d578182fd5b6137798782880161360a565b91505092959194509250565b60008060008060008060a0878903121561379d578384fd5b86356137a881615c32565b955060208701356137b881615c32565b94506040870135935060608701359250608087013567ffffffffffffffff8111156137e1578283fd5b6137ed89828a016135b0565b979a9699509497509295939492505050565b60008060408385031215613811578182fd5b825161381c81615c32565b602084015190925061382d81615c32565b809150509250929050565b600060208284031215613849578081fd5b8151801515811461363d578182fd5b600060208284031215613869578081fd5b5035919050565b600060208284031215613881578081fd5b5051919050565b6000806040838503121561389a578182fd5b82359150602083013567ffffffffffffffff8111156138b7578182fd5b8301601f810185136138c7578182fd5b80356138d561356482615132565b8181528660208385010111156138e9578384fd5b81602084016020830137908101602001929092525090939092509050565b60008060408385031215613919578182fd5b50508035926020909101359150565b600060208284031215613939578081fd5b81356001600160e01b03198116811461363d578182fd5b600060208284031215613961578081fd5b815167ffffffffffffffff811115613977578182fd5b8201601f81018413613987578182fd5b805161399561356482615132565b8181528560208385010111156139a9578384fd5b6139ba826020830160208601615643565b95945050505050565b6000806000806000608086880312156139da578283fd5b85356139e581615c32565b94506020860135935060408601359250606086013567ffffffffffffffff811115613a0e578182fd5b613a1a888289016134fb565b969995985093965092949392505050565b600060208284031215613a3c578081fd5b815167ffffffffffffffff80821115613a53578283fd5b9083019060c08286031215613a66578283fd5b60405160c081018181108382111715613a8157613a8161572f565b604052613a8d836135f0565b8152602083015160208201526040830151604082015260608301516060820152608083015182811115613abe578485fd5b613aca87828601613544565b608083015250613adc60a084016135fb565b60a082015295945050505050565b600060208284031215613afb578081fd5b813567ffffffffffffffff811115613b11578182fd5b613b1d8482850161360a565b949350505050565b60006060828403121561361b578081fd5b600080600060408486031215613b4a578081fd5b83359250602084013567ffffffffffffffff811115613b67578182fd5b613b73868287016134fb565b9497909650939450505050565b60008060408385031215613b92578182fd5b8235915060208084013567ffffffffffffffff811115613bb0578283fd5b8401601f81018613613bc0578283fd5b8035613bce6135648261510e565b81815283810190838501858402850186018a1015613bea578687fd5b8694505b83851015613c0c578035835260019490940193918501918501613bee565b5080955050505050509250929050565b6001600160a01b03169052565b60008284527f07ffffffffffffffffffffffffffffffffffffffffffffffffffffffffffffff831115613c5a578081fd5b6020830280836020870137939093016020019283525090919050565b818352602080840193600091908185020181018584845b87811015613d1b5782840389528135609e19883603018112613cad578687fd5b87018035855260a086820135613cc281615c47565b613cce88880182613f58565b5060408281013590870152606080830135908701526080613cf18184018461529b565b93508282890152613d058389018583613f02565b9c89019c97505050928601925050600101613c8d565b5091979650505050505050565b6000815180845260208085018081965082840281019150828601855b85811015613d1b578284038952815160a08151865286820151613d6988880182613f58565b506040828101519087015260608083015190870152608091820151918601819052613d9681870183613f2c565b9a87019a9550505090840190600101613d44565b60008284526020808501945082825b85811015613e03578135875282820135613dd281615c54565b60ff9081168885015260409083820135613deb81615c54565b16908801526060968701969190910190600101613db9565b509495945050505050565b6000815180845260208085019450808401835b83811015613e03578151805188528381015160ff908116858a0152604091820151169088015260609096019590820190600101613e21565b6000815480845260208401935082825260208220825b82811015613e9757613e8186836142f1565b6060959095019460029190910190600101613e6f565b5093949350505050565b6000815180845260208085019450808401835b83811015613e0357815187529582019590820190600101613eb4565b6000815480845260208085019450838352808320835b83811015613e0357815487529582019560019182019101613ee6565b60008284528282602086013780602084860101526020601f19601f85011685010190509392505050565b60008151808452613f44816020860160208601615643565b601f01601f19169290920160200192915050565b60048110613f6857613f68615719565b9052565b60078110613f6857613f68615719565b60008135613f8981615c32565b6001600160a01b03168352602082810135818501526040808401358186015260608085013590860152613fbf608085018561520b565b60e06080880152613fd460e088018284613c29565b915050613fe460a086018661520b565b87830360a08901528083528483018582028401860183885b8481101561405b57868303601f19018452813536879003603e19018112614021578a8bfd5b8601803584526140338a82018261520b565b9150898b8601526140478a86018383613c29565b958b01959450505090880190600101613ffc565b505061406a60c08a018a615253565b9750955089810360c08b0152614081818888613daa565b9a9950505050505050505050565b60006001600160a01b038251168352602080830151818501526040808401518186015260608085015181870152608085015160e060808801526140d560e0880182613ea1565b905060a086015187820360a08901528181518084528684019150868782028501018784019350885b8281101561416557858203601f190184528451805183528901518983018990528051898401819052908a01908b90898501905b808310156141505783518252928c019260019290920191908c0190614130565b50968b0196958b0195935050506001016140fd565b5060c08a015197508a810360c08c015261417f8189613e0e565b9b9a5050505050505050505050565b60006001600160a01b038254168352600180830154602081818701526002915081850154604081818901526003870154915081606089015260e060808901526141dd60e0890160048901613ed0565b88810360a08a01526005880180548083529088528488209193508484019085810285018601895b8281101561426a57868203601f19018452845482528782018690528985018054878401819052908c52888c20908c9060608501905b808310156142565783548252928d0192918d0191908b0190614239565b50968b0196958a0195935050508901614204565b508b810360c08d01526142808160068d01613e59565b9c9b505050505050505050505050565b60006001600160a01b03825416835260018201546020840152600282015460408401526003820154606084015260c060808401526142d460c0840160048401613ed0565b60ff6005840154166142e960a0860182613f6c565b509392505050565b805482526001015460ff808216602084015260089190911c16604090910152565b60609290921b6bffffffffffffffffffffffff19168252601482015260340190565b6001600160a01b0391909116815260200190565b60006001600160a01b03808816835280871660208401525060a0604083015261437460a083018661418e565b82810360608401526143868186614290565b9150508260808301529695505050505050565b60006001600160a01b038087168352608060208401526143bc608084018761418e565b94166040830152506060015292915050565b6001600160a01b03929092168252602082015260400190565b6000606082016001600160a01b038616835260208581850152606060408501528185518084526080860191508287019350845b818110156144365784518352938301939183019160010161441a565b509098975050505050505050565b60006001600160a01b038716825260a0602083015261446660a0830187614290565b8281036040840152614478818761418e565b60608401959095525050608001529392505050565b60006001600160a01b03851682526060602083015283356144ad81615c32565b6144ba6060840182613c1c565b506144c7602085016134f0565b6144d46080840182613c1c565b506144e1604085016134f0565b6144ee60a0840182613c1c565b50606084013560c0830152614506608085018561529b565b60e08085015261451b61014085018284613f02565b91505061452b60a086018661520b565b605f198086850301610100870152614544848385613c76565b935061455360c08901896152e0565b92508086850301610120870152505061456c8282613f7c565b92505050826040830152949350505050565b6020808252825182820181905260009190848201906040850190845b818110156145bf5783516001600160a01b03168352928401929184019160010161459a565b50909695505050505050565b60208082528251828201819052600091906040908185019080840286018301878501865b8381101561443657603f19898403018552815160c06001600160a01b038251168552888201518986015287820151888601526060808301518187015250608080830151828288015261464383880182613ea1565b9250505060a080830151925061465b81870184613f6c565b5095880195935050908601906001016145ef565b60006040820160408352808554808352606092508285019150602083818302870101888652818620865b8481101561476857605f1989840301865260a082548452600160ff81850154166146c587870182613f58565b5060028401546040860152600384015489860152600484018260808701528a81546146ef8161568a565b94880185905260c094818516801561470e57600181146147225761474d565b60ff1983168a88015260e08a01935061474d565b848f528a8f208f5b838110156147455781548c82018a0152908701908c0161472a565b8b0188019450505b50505098870198955050506005929092019150600101614699565b50509501959095525091949350505050565b901515815260200190565b90815260200190565b918252602082015260400190565b92835260ff918216602084015216604082015260600190565b6001600160e01b031991909116815260200190565b60006020825261363d6020830184613f2c565b60006001600160a01b03871682528560208301528460408301526080606083015261480c608083018486613c29565b979650505050505050565b600060a0820190506001600160a01b0387168252856020830152846040830152836060830152612b2f6080830184613f6c565b60006001600160a01b038089168352808816602084015280871660408401525084606083015260c0608083015261488460c0830185613f2c565b82810360a0840152614896818561408f565b9998505050505050505050565b60208082526016908201527f6f6e6c7920496e67657374547970652e4d616e75616c00000000000000000000604082015260600190565b6020808252600a908201527f4f6e6c794b656570657200000000000000000000000000000000000000000000604082015260600190565b60208082526013908201527f496e67657374206e6f742043616c6c6261636b00000000000000000000000000604082015260600190565b60208082526010908201527f536f6c76657220686173206368696c6400000000000000000000000000000000604082015260600190565b60208082526026908201527f7061796f7574732e6c656e677468206d757374206d61746368206f7574636f6d60408201527f65536c6f74730000000000000000000000000000000000000000000000000000606082015260800190565b60208082526016908201527f436f6e646974696f6e206e6f7420457865637574656400000000000000000000604082015260600190565b60208082526015908201527f6d73672e73656e646572206e6f7420736f6c7665720000000000000000000000604082015260600190565b60208082526018908201527f496e76616c696420696e64657820746f20707265706172650000000000000000604082015260600190565b6020808252818101527f526563697069656e7420736c6f74207265717569726573207570646174696e67604082015260600190565b6020808252600b908201527f4f6e6c79204b6565706572000000000000000000000000000000000000000000604082015260600190565b60208082526015908201527f54696d656c6f636b207374696c6c206c6f636b65640000000000000000000000604082015260600190565b6020808252600f908201527f696e676573747320696e76616c69640000000000000000000000000000000000604082015260600190565b60208082526012908201527f496e76616c696420696e67657374547970650000000000000000000000000000604082015260600190565b60208082526018908201527f4e6f74204172626974726174696f6e5265717565737465640000000000000000604082015260600190565b6020808252602e908201527f496e697469616c697a61626c653a20636f6e747261637420697320616c72656160408201527f647920696e697469616c697a6564000000000000000000000000000000000000606082015260800190565b60208082526011908201527f536c6f7420696e76616c6964207665722e000000000000000000000000000000604082015260600190565b6020808252600f908201527f4f6e6c792061726269747261746f720000000000000000000000000000000000604082015260600190565b6020808252600e908201527f4b656570657220696e76616c6964000000000000000000000000000000000000604082015260600190565b60208082526014908201527f4f7574636f6d65206e6f742070726f706f736564000000000000000000000000604082015260600190565b60208082526013908201527f4e6f74204f7574636f6d6550726f706f73656400000000000000000000000000604082015260600190565b6020808252818101527f46756c66696c6c206f7574676f696e672063616c6c6261636b73206669727374604082015260600190565b6020808252818101527f46756c66696c6c20696e636f6d696e672063616c6c6261636b73206669727374604082015260600190565b60208082526016908201527f4e6f74204172626974726174696f6e50656e64696e6700000000000000000000604082015260600190565b6020808252600b908201527f4f6e6c79206b6565706572000000000000000000000000000000000000000000604082015260600190565b60208082526012908201527f4f6e6c79206b65657065722f706172656e740000000000000000000000000000604082015260600190565b6020808252600e908201527f547261636b696e67496420736574000000000000000000000000000000000000604082015260600190565b60208082526014908201527f536c6f742076657273696f6e20696e76616c6964000000000000000000000000604082015260600190565b6020808252600d908201527f6e6f7420496e6974696174656400000000000000000000000000000000000000604082015260600190565b6000848252604060208301526139ba604083018486613c29565b6000602082526001600160a01b03808451166020840152806020850151166040840152506040830151614f3d6060840182613c1c565b5060608301516080830152608083015160e060a0840152614f62610100840182613f2c565b905060a0840151601f19808584030160c0860152614f808383613d28565b925060c08601519150808584030160e0860152506139ba828261408f565b60608101614fac82846142f1565b92915050565b9283526020830191909152604082015260600190565b6000808335601e19843603018112614fde578283fd5b83018035915067ffffffffffffffff821115614ff8578283fd5b602090810192508102360382131561353d57600080fd5b6000808335601e19843603018112615025578283fd5b83018035915067ffffffffffffffff82111561503f578283fd5b602001915060608102360382131561353d57600080fd5b6000808335601e1984360301811261506c578283fd5b83018035915067ffffffffffffffff821115615086578283fd5b60200191503681900382131561353d57600080fd5b60008235603e198336030181126150b0578182fd5b9190910192915050565b6000823560de198336030181126150b0578182fd5b60008235609e198336030181126150b0578182fd5b60405181810167ffffffffffffffff811182821017156151065761510661572f565b604052919050565b600067ffffffffffffffff8211156151285761512861572f565b5060209081020190565b600067ffffffffffffffff82111561514c5761514c61572f565b50601f01601f191660200190565b60009081526020902090565b6020841080156151bc57601f84116001811461518d5761518686856156bf565b83556151b6565b6151968361515a565b6151ab6020601f88010482016001830161534c565b506151b686846157a5565b50610b57565b8160005260206000206020601f8701048101601f871680156151e6576151e6816000198401615745565b506151f96020601f88010483018261534c565b50506001856002021782555050505050565b6000808335601e19843603018112615221578283fd5b830160208101925035905067ffffffffffffffff81111561524157600080fd5b60208102360383131561353d57600080fd5b6000808335601e19843603018112615269578283fd5b830160208101925035905067ffffffffffffffff81111561528957600080fd5b60608102360383131561353d57600080fd5b6000808335601e198436030181126152b1578283fd5b830160208101925035905067ffffffffffffffff8111156152d157600080fd5b80360383131561353d57600080fd5b6000823560de198336030181126152f5578182fd5b90910192915050565b6000821982111561531157615311615703565b500190565b600081600019048311821515161561533057615330615703565b500290565b60008282101561534757615347615703565b500390565b5b81811015612b03576000815560010161534d565b6801000000000000000083111561537a5761537a61572f565b805483825580841015615418577f7fffffffffffffffffffffffffffffffffffffffffffffffffffffffffffffff60018183118116156153bc576153bc615703565b60028287118216156153d0576153d0615703565b600085815260208120909350878202810190828602015b80821015615412576153fb858684546157c3565b825561540985858401615759565b908201906153e7565b50505050505b50816154238261515a565b6000805b868110156154595761544361543c858861509b565b8385615b23565b6020939093019260029290920191600101615427565b50505050505050565b6801000000000000000083111561547b5761547b61572f565b805483825580841015615513577f7fffffffffffffffffffffffffffffffffffffffffffffffffffffffffffffff60018183118116156154bd576154bd615703565b60028287118216156154d1576154d1615703565b600085815260208120909350878202810190828602015b8082101561550d576154fc858684546157c3565b8255848483015582820191506154e8565b50505050505b508161551e8261515a565b6000805b8681101561545957615535848385615beb565b6060939093019260029290920191600101615522565b67ffffffffffffffff8311156155635761556361572f565b61556d815461568a565b600080601f8611601f84118181171561558c576155898661515a565b92505b80156155bb576020601f890104830160208910156155a75750825b6155b96020601f88010485018261534c565b505b5080600181146155e7576000945087156155d6578387013594505b6155e088866156bf565b8655615639565b601f198816945082845b8681101561561157888601358255602095860195600190920191016155f1565b508886101561562e57878501356000196008601f8c16021c191681555b506001600289020186555b5050505050505050565b60005b8381101561565e578181015183820152602001615646565b8381111561566d576000848401525b50505050565b60008161568257615682615703565b506000190190565b60028104600182168061569e57607f821691505b6020821081141561361b57634e487b7160e01b600052602260045260246000fd5b600019600883021c191660029091021790565b60006000198214156156e6576156e6615703565b5060010190565b634e487b7160e01b600052600060045260246000fd5b634e487b7160e01b600052601160045260246000fd5b634e487b7160e01b600052602160045260246000fd5b634e487b7160e01b600052604160045260246000fd5b8054600019836020036008021c1681555050565b680100000000000000008211156157725761577261572f565b805482825580831015611876576000828152602081208481019083015b80821015611b215782825560018201915061578f565b8060005260206000206157b98382546156bf565b9091556000905550565b60089190910291821b60001990921b9182169119161790565b6001600160a01b0382166001600160a01b03198254161781555050565b813561580481615c32565b61580e81836157dc565b506001602080840135828401556040840135600284015560608401356003840155600483016158406080860186614fc8565b680100000000000000008111156158595761585961572f565b82548184558082101561587e57836000528460002061587c82820184830161534c565b505b506000928352838320925b818110156158a4578235845592850192918401918501615889565b5050505050506158b760a0830183614fc8565b6158c5818360058601615361565b50506158d460c083018361500f565b61566d818360068601615462565b81356158ed81615c32565b6158f781836157dc565b50600160208084013561590981615c32565b615915818486016157dc565b506002604085013561592681615c32565b615932818387016157dc565b506003606086013581860155600461594d6080880188615056565b61595a8183858b0161554b565b5050600580870161596e60a08a018a614fc8565b680100000000000000008111156159875761598761572f565b825481845580821015615a5b577f33333333333333333333333333333333333333333333333333333333333333338082118b16156159c7576159c7615703565b8083118b16156159d9576159d9615703565b506000848152898120838702810190878402015b80821015615a5757615a01838484546157c3565b8255828d8301558a8201615a17848583546157c3565b815550898201615a29848583546157c3565b90558189018054615a398161568a565b8015615a4b57615a4b86828486615166565b505050908701906159ed565b5050505b50819650615a688361515a565b9550600094508492505b80831015615a9f57615a8e615a8788846150cf565b8688615b77565b958701959483019491880191615a72565b505050505050505050612b03615ab860c08401846150ba565b600683016157f9565b81358155600181016020830135615ad781615c54565b615ae18183615afa565b506040830135615af081615c54565b61566d8183615b0b565b60ff821660ff198254161781555050565b805461ff008360081b1661ff00198216178255505050565b8115615b3157615b316156ed565b8235815560018082016020615b4881870187614fc8565b615b528185615759565b6000938452828420935b81811015610c07578235855593850193918301918501615b5c565b8115615b8557615b856156ed565b82358155600181016020840135615b9b81615c47565b60048110615bab57615bab615719565b60ff1982541660ff8216811783555050506040830135600282015560608301356003820155615bdd6080840184615056565b610b5781836004860161554b565b8115615bf957615bf96156ed565b82358155600181016020840135615c0f81615c54565b615c198183615afa565b506040840135615c2881615c54565b610b578183615b0b565b6001600160a01b03811681146106a257600080fd5b600481106106a257600080fd5b60ff811681146106a257600080fdfea26469706673582212201640fa0f9e2f71e82d3937af20d9ab08d6f0c11012e3b7499ced920c3c76400f64736f6c63430008000033",
  "linkReferences": {
    "contracts/SolverLib.sol": {
      "SolverLib": [
        {
          "length": 20,
          "start": 1575
        },
        {
          "length": 20,
          "start": 1866
        },
        {
          "length": 20,
          "start": 2781
        },
        {
          "length": 20,
          "start": 3948
        },
        {
          "length": 20,
          "start": 4668
        },
        {
          "length": 20,
          "start": 4886
        },
        {
          "length": 20,
          "start": 6135
        },
        {
          "length": 20,
          "start": 6821
        },
        {
          "length": 20,
          "start": 7032
        },
        {
          "length": 20,
          "start": 7819
        },
        {
          "length": 20,
          "start": 8089
        },
        {
          "length": 20,
          "start": 8442
        },
        {
          "length": 20,
          "start": 12460
        }
      ]
    }
  },
  "deployedLinkReferences": {
    "contracts/SolverLib.sol": {
      "SolverLib": [
        {
          "length": 20,
          "start": 1542
        },
        {
          "length": 20,
          "start": 1833
        },
        {
          "length": 20,
          "start": 2748
        },
        {
          "length": 20,
          "start": 3915
        },
        {
          "length": 20,
          "start": 4635
        },
        {
          "length": 20,
          "start": 4853
        },
        {
          "length": 20,
          "start": 6102
        },
        {
          "length": 20,
          "start": 6788
        },
        {
          "length": 20,
          "start": 6999
        },
        {
          "length": 20,
          "start": 7786
        },
        {
          "length": 20,
          "start": 8056
        },
        {
          "length": 20,
          "start": 8409
        },
        {
          "length": 20,
          "start": 12427
        }
      ]
    }
  }
}