{
  "_format": "hh-sol-artifact-1",
  "contractName": "BasicSolverV1",
  "sourceName": "contracts/BasicSolverV1.sol",
  "abi": [
    {
      "anonymous": false,
      "inputs": [
        {
          "indexed": false,
          "internalType": "address",
          "name": "chainChild",
          "type": "address"
        }
      ],
      "name": "DeployedChild",
      "type": "event"
    },
    {
      "anonymous": false,
      "inputs": [],
      "name": "IngestedData",
      "type": "event"
    },
    {
      "anonymous": false,
      "inputs": [
        {
          "indexed": false,
          "internalType": "address",
          "name": "solver",
          "type": "address"
        },
        {
          "indexed": false,
          "internalType": "uint256",
          "name": "solveIndex",
          "type": "uint256"
        }
      ],
      "name": "PreparedSolve",
      "type": "event"
    },
    {
      "inputs": [
        {
          "internalType": "uint256",
          "name": "_slot",
          "type": "uint256"
        },
        {
          "internalType": "bytes",
          "name": "_data",
          "type": "bytes"
        }
      ],
      "name": "addData",
      "outputs": [],
      "stateMutability": "nonpayable",
      "type": "function"
    },
    {
      "inputs": [
        {
          "internalType": "uint256",
          "name": "_index",
          "type": "uint256"
        }
      ],
      "name": "addressFromChainIndex",
      "outputs": [
        {
          "internalType": "address",
          "name": "_address",
          "type": "address"
        }
      ],
      "stateMutability": "view",
      "type": "function"
    },
    {
      "inputs": [
        {
          "internalType": "uint256",
          "name": "_index",
          "type": "uint256"
        },
        {
          "internalType": "uint256[]",
          "name": "payouts",
          "type": "uint256[]"
        }
      ],
      "name": "arbitrate",
      "outputs": [],
      "stateMutability": "nonpayable",
      "type": "function"
    },
    {
      "inputs": [
        {
          "internalType": "uint256",
          "name": "_index",
          "type": "uint256"
        }
      ],
      "name": "arbitrateNull",
      "outputs": [],
      "stateMutability": "nonpayable",
      "type": "function"
    },
    {
      "inputs": [
        {
          "internalType": "uint256",
          "name": "_index",
          "type": "uint256"
        }
      ],
      "name": "arbitrationPending",
      "outputs": [],
      "stateMutability": "nonpayable",
      "type": "function"
    },
    {
      "inputs": [
        {
          "internalType": "uint256",
          "name": "_index",
          "type": "uint256"
        }
      ],
      "name": "arbitrationRequested",
      "outputs": [],
      "stateMutability": "nonpayable",
      "type": "function"
    },
    {
      "inputs": [],
      "name": "chainChild",
      "outputs": [
        {
          "internalType": "address",
          "name": "",
          "type": "address"
        }
      ],
      "stateMutability": "view",
      "type": "function"
    },
    {
      "inputs": [],
      "name": "chainIndex",
      "outputs": [
        {
          "internalType": "uint256",
          "name": "",
          "type": "uint256"
        }
      ],
      "stateMutability": "view",
      "type": "function"
    },
    {
      "inputs": [],
      "name": "chainParent",
      "outputs": [
        {
          "internalType": "address",
          "name": "",
          "type": "address"
        }
      ],
      "stateMutability": "view",
      "type": "function"
    },
    {
      "inputs": [],
      "name": "collateralBalance",
      "outputs": [
        {
          "internalType": "uint256",
          "name": "balance",
          "type": "uint256"
        }
      ],
      "stateMutability": "view",
      "type": "function"
    },
    {
      "inputs": [
        {
          "internalType": "uint256",
          "name": "",
          "type": "uint256"
        }
      ],
      "name": "conditions",
      "outputs": [
        {
          "internalType": "contract IERC20",
          "name": "collateralToken",
          "type": "address"
        },
        {
          "internalType": "bytes32",
          "name": "questionId",
          "type": "bytes32"
        },
        {
          "internalType": "bytes32",
          "name": "parentCollectionId",
          "type": "bytes32"
        },
        {
          "internalType": "bytes32",
          "name": "conditionId",
          "type": "bytes32"
        },
        {
          "internalType": "enum SolverLib.Status",
          "name": "status",
          "type": "uint8"
        }
      ],
      "stateMutability": "view",
      "type": "function"
    },
    {
      "inputs": [],
      "name": "config",
      "outputs": [
        {
          "internalType": "contract Solver",
          "name": "implementation",
          "type": "address"
        },
        {
          "internalType": "address",
          "name": "keeper",
          "type": "address"
        },
        {
          "internalType": "address",
          "name": "arbitrator",
          "type": "address"
        },
        {
          "internalType": "uint256",
          "name": "timelockSeconds",
          "type": "uint256"
        },
        {
          "internalType": "bytes",
          "name": "data",
          "type": "bytes"
        },
        {
          "components": [
            {
              "internalType": "contract IERC20",
              "name": "collateralToken",
              "type": "address"
            },
            {
              "internalType": "uint256",
              "name": "outcomeSlots",
              "type": "uint256"
            },
            {
              "internalType": "uint256",
              "name": "parentCollectionIndexSet",
              "type": "uint256"
            },
            {
              "internalType": "uint256",
              "name": "amountSlot",
              "type": "uint256"
            },
            {
              "internalType": "uint256[]",
              "name": "partition",
              "type": "uint256[]"
            },
            {
              "internalType": "uint256[]",
              "name": "recipientAddressSlots",
              "type": "uint256[]"
            },
            {
              "internalType": "uint256[][]",
              "name": "recipientAmountSlots",
              "type": "uint256[][]"
            },
            {
              "components": [
                {
                  "internalType": "bytes32",
                  "name": "digest",
                  "type": "bytes32"
                },
                {
                  "internalType": "uint8",
                  "name": "hashFunction",
                  "type": "uint8"
                },
                {
                  "internalType": "uint8",
                  "name": "size",
                  "type": "uint8"
                }
              ],
              "internalType": "struct SolverLib.Multihash[]",
              "name": "outcomeURIs",
              "type": "tuple[]"
            }
          ],
          "internalType": "struct SolverLib.ConditionBase",
          "name": "conditionBase",
          "type": "tuple"
        }
      ],
      "stateMutability": "view",
      "type": "function"
    },
    {
      "inputs": [
        {
          "internalType": "uint256",
          "name": "_index",
          "type": "uint256"
        }
      ],
      "name": "confirmPayouts",
      "outputs": [],
      "stateMutability": "nonpayable",
      "type": "function"
    },
    {
      "inputs": [
        {
          "components": [
            {
              "internalType": "contract Solver",
              "name": "implementation",
              "type": "address"
            },
            {
              "internalType": "address",
              "name": "keeper",
              "type": "address"
            },
            {
              "internalType": "address",
              "name": "arbitrator",
              "type": "address"
            },
            {
              "internalType": "uint256",
              "name": "timelockSeconds",
              "type": "uint256"
            },
            {
              "internalType": "bytes",
              "name": "data",
              "type": "bytes"
            },
            {
              "components": [
                {
                  "internalType": "uint256",
                  "name": "executions",
                  "type": "uint256"
                },
                {
                  "internalType": "enum SolverLib.IngestType",
                  "name": "ingestType",
                  "type": "uint8"
                },
                {
                  "internalType": "uint256",
                  "name": "slot",
                  "type": "uint256"
                },
                {
                  "internalType": "uint256",
                  "name": "solverIndex",
                  "type": "uint256"
                },
                {
                  "internalType": "bytes",
                  "name": "data",
                  "type": "bytes"
                }
              ],
              "internalType": "struct SolverLib.Ingest[]",
              "name": "ingests",
              "type": "tuple[]"
            },
            {
              "components": [
                {
                  "internalType": "contract IERC20",
                  "name": "collateralToken",
                  "type": "address"
                },
                {
                  "internalType": "uint256",
                  "name": "outcomeSlots",
                  "type": "uint256"
                },
                {
                  "internalType": "uint256",
                  "name": "parentCollectionIndexSet",
                  "type": "uint256"
                },
                {
                  "internalType": "uint256",
                  "name": "amountSlot",
                  "type": "uint256"
                },
                {
                  "internalType": "uint256[]",
                  "name": "partition",
                  "type": "uint256[]"
                },
                {
                  "internalType": "uint256[]",
                  "name": "recipientAddressSlots",
                  "type": "uint256[]"
                },
                {
                  "internalType": "uint256[][]",
                  "name": "recipientAmountSlots",
                  "type": "uint256[][]"
                },
                {
                  "components": [
                    {
                      "internalType": "bytes32",
                      "name": "digest",
                      "type": "bytes32"
                    },
                    {
                      "internalType": "uint8",
                      "name": "hashFunction",
                      "type": "uint8"
                    },
                    {
                      "internalType": "uint8",
                      "name": "size",
                      "type": "uint8"
                    }
                  ],
                  "internalType": "struct SolverLib.Multihash[]",
                  "name": "outcomeURIs",
                  "type": "tuple[]"
                }
              ],
              "internalType": "struct SolverLib.ConditionBase",
              "name": "conditionBase",
              "type": "tuple"
            }
          ],
          "internalType": "struct SolverLib.Config",
          "name": "_config",
          "type": "tuple"
        }
      ],
      "name": "deployChild",
      "outputs": [
        {
          "internalType": "contract Solver",
          "name": "_solver",
          "type": "address"
        }
      ],
      "stateMutability": "nonpayable",
      "type": "function"
    },
    {
      "inputs": [
        {
          "internalType": "uint256",
          "name": "_index",
          "type": "uint256"
        }
      ],
      "name": "executeSolve",
      "outputs": [],
      "stateMutability": "nonpayable",
      "type": "function"
    },
    {
      "inputs": [
        {
          "internalType": "uint256",
          "name": "_slot",
          "type": "uint256"
        }
      ],
      "name": "getCallbackOutput",
      "outputs": [
        {
          "internalType": "bytes",
          "name": "data",
          "type": "bytes"
        }
      ],
      "stateMutability": "view",
      "type": "function"
    },
    {
      "inputs": [],
      "name": "getConditions",
      "outputs": [
        {
          "components": [
            {
              "internalType": "contract IERC20",
              "name": "collateralToken",
              "type": "address"
            },
            {
              "internalType": "bytes32",
              "name": "questionId",
              "type": "bytes32"
            },
            {
              "internalType": "bytes32",
              "name": "parentCollectionId",
              "type": "bytes32"
            },
            {
              "internalType": "bytes32",
              "name": "conditionId",
              "type": "bytes32"
            },
            {
              "internalType": "uint256[]",
              "name": "payouts",
              "type": "uint256[]"
            },
            {
              "internalType": "enum SolverLib.Status",
              "name": "status",
              "type": "uint8"
            }
          ],
          "internalType": "struct SolverLib.Condition[]",
          "name": "",
          "type": "tuple[]"
        }
      ],
      "stateMutability": "view",
      "type": "function"
    },
    {
      "inputs": [
        {
          "internalType": "uint256",
          "name": "_slot",
          "type": "uint256"
        }
      ],
      "name": "getData",
      "outputs": [
        {
          "internalType": "bytes",
          "name": "data",
          "type": "bytes"
        }
      ],
      "stateMutability": "view",
      "type": "function"
    },
    {
      "inputs": [
        {
          "internalType": "uint256",
          "name": "slot",
          "type": "uint256"
        }
      ],
      "name": "getOutgoingCallbacks",
      "outputs": [
        {
          "internalType": "address[]",
          "name": "",
          "type": "address[]"
        }
      ],
      "stateMutability": "view",
      "type": "function"
    },
    {
      "inputs": [
        {
          "internalType": "uint256",
          "name": "_slot",
          "type": "uint256"
        }
      ],
      "name": "handleCallback",
      "outputs": [],
      "stateMutability": "nonpayable",
      "type": "function"
    },
    {
      "inputs": [],
      "name": "ingestsValid",
      "outputs": [
        {
          "internalType": "bool",
          "name": "",
          "type": "bool"
        }
      ],
      "stateMutability": "view",
      "type": "function"
    },
    {
      "inputs": [
        {
          "internalType": "address",
          "name": "_ctfAddress",
          "type": "address"
        },
        {
          "internalType": "address",
          "name": "_chainParent",
          "type": "address"
        },
        {
          "internalType": "uint256",
          "name": "_chainIndex",
          "type": "uint256"
        },
        {
          "components": [
            {
              "internalType": "contract Solver",
              "name": "implementation",
              "type": "address"
            },
            {
              "internalType": "address",
              "name": "keeper",
              "type": "address"
            },
            {
              "internalType": "address",
              "name": "arbitrator",
              "type": "address"
            },
            {
              "internalType": "uint256",
              "name": "timelockSeconds",
              "type": "uint256"
            },
            {
              "internalType": "bytes",
              "name": "data",
              "type": "bytes"
            },
            {
              "components": [
                {
                  "internalType": "uint256",
                  "name": "executions",
                  "type": "uint256"
                },
                {
                  "internalType": "enum SolverLib.IngestType",
                  "name": "ingestType",
                  "type": "uint8"
                },
                {
                  "internalType": "uint256",
                  "name": "slot",
                  "type": "uint256"
                },
                {
                  "internalType": "uint256",
                  "name": "solverIndex",
                  "type": "uint256"
                },
                {
                  "internalType": "bytes",
                  "name": "data",
                  "type": "bytes"
                }
              ],
              "internalType": "struct SolverLib.Ingest[]",
              "name": "ingests",
              "type": "tuple[]"
            },
            {
              "components": [
                {
                  "internalType": "contract IERC20",
                  "name": "collateralToken",
                  "type": "address"
                },
                {
                  "internalType": "uint256",
                  "name": "outcomeSlots",
                  "type": "uint256"
                },
                {
                  "internalType": "uint256",
                  "name": "parentCollectionIndexSet",
                  "type": "uint256"
                },
                {
                  "internalType": "uint256",
                  "name": "amountSlot",
                  "type": "uint256"
                },
                {
                  "internalType": "uint256[]",
                  "name": "partition",
                  "type": "uint256[]"
                },
                {
                  "internalType": "uint256[]",
                  "name": "recipientAddressSlots",
                  "type": "uint256[]"
                },
                {
                  "internalType": "uint256[][]",
                  "name": "recipientAmountSlots",
                  "type": "uint256[][]"
                },
                {
                  "components": [
                    {
                      "internalType": "bytes32",
                      "name": "digest",
                      "type": "bytes32"
                    },
                    {
                      "internalType": "uint8",
                      "name": "hashFunction",
                      "type": "uint8"
                    },
                    {
                      "internalType": "uint8",
                      "name": "size",
                      "type": "uint8"
                    }
                  ],
                  "internalType": "struct SolverLib.Multihash[]",
                  "name": "outcomeURIs",
                  "type": "tuple[]"
                }
              ],
              "internalType": "struct SolverLib.ConditionBase",
              "name": "conditionBase",
              "type": "tuple"
            }
          ],
          "internalType": "struct SolverLib.Config",
          "name": "_solverConfig",
          "type": "tuple"
        }
      ],
      "name": "init",
      "outputs": [],
      "stateMutability": "nonpayable",
      "type": "function"
    },
    {
      "inputs": [
        {
          "internalType": "address",
          "name": "operator",
          "type": "address"
        },
        {
          "internalType": "address",
          "name": "from",
          "type": "address"
        },
        {
          "internalType": "uint256[]",
          "name": "ids",
          "type": "uint256[]"
        },
        {
          "internalType": "uint256[]",
          "name": "values",
          "type": "uint256[]"
        },
        {
          "internalType": "bytes",
          "name": "data",
          "type": "bytes"
        }
      ],
      "name": "onERC1155BatchReceived",
      "outputs": [
        {
          "internalType": "bytes4",
          "name": "",
          "type": "bytes4"
        }
      ],
      "stateMutability": "nonpayable",
      "type": "function"
    },
    {
      "inputs": [
        {
          "internalType": "address",
          "name": "operator",
          "type": "address"
        },
        {
          "internalType": "address",
          "name": "from",
          "type": "address"
        },
        {
          "internalType": "uint256",
          "name": "id",
          "type": "uint256"
        },
        {
          "internalType": "uint256",
          "name": "value",
          "type": "uint256"
        },
        {
          "internalType": "bytes",
          "name": "data",
          "type": "bytes"
        }
      ],
      "name": "onERC1155Received",
      "outputs": [
        {
          "internalType": "bytes4",
          "name": "",
          "type": "bytes4"
        }
      ],
      "stateMutability": "nonpayable",
      "type": "function"
    },
    {
      "inputs": [
        {
          "internalType": "uint256",
          "name": "_index",
          "type": "uint256"
        }
      ],
      "name": "prepareSolve",
      "outputs": [],
      "stateMutability": "nonpayable",
      "type": "function"
    },
    {
      "inputs": [
        {
          "internalType": "uint256",
          "name": "_index",
          "type": "uint256"
        },
        {
          "internalType": "uint256[]",
          "name": "_payouts",
          "type": "uint256[]"
        }
      ],
      "name": "proposePayouts",
      "outputs": [],
      "stateMutability": "nonpayable",
      "type": "function"
    },
    {
      "inputs": [
        {
          "internalType": "contract IERC20",
          "name": "_collateralToken",
          "type": "address"
        },
        {
          "internalType": "bytes32",
          "name": "_parentCollectionId",
          "type": "bytes32"
        },
        {
          "internalType": "bytes32",
          "name": "_conditionId",
          "type": "bytes32"
        },
        {
          "internalType": "uint256[]",
          "name": "_indexSets",
          "type": "uint256[]"
        }
      ],
      "name": "redeemPosition",
      "outputs": [],
      "stateMutability": "nonpayable",
      "type": "function"
    },
    {
      "inputs": [
        {
          "internalType": "uint256",
          "name": "_slot",
          "type": "uint256"
        },
        {
          "internalType": "uint256",
          "name": "_chainIndex",
          "type": "uint256"
        }
      ],
      "name": "registerOutgoingCallback",
      "outputs": [],
      "stateMutability": "nonpayable",
      "type": "function"
    },
    {
      "inputs": [
        {
          "internalType": "bytes32",
          "name": "_trackingId",
          "type": "bytes32"
        }
      ],
      "name": "setTrackingId",
      "outputs": [],
      "stateMutability": "nonpayable",
      "type": "function"
    },
    {
      "inputs": [
        {
          "internalType": "bytes4",
          "name": "interfaceId",
          "type": "bytes4"
        }
      ],
      "name": "supportsInterface",
      "outputs": [
        {
          "internalType": "bool",
          "name": "",
          "type": "bool"
        }
      ],
      "stateMutability": "view",
      "type": "function"
    },
    {
      "inputs": [
        {
          "internalType": "uint256",
          "name": "",
          "type": "uint256"
        }
      ],
      "name": "timelocks",
      "outputs": [
        {
          "internalType": "uint256",
          "name": "",
          "type": "uint256"
        }
      ],
      "stateMutability": "view",
      "type": "function"
    },
    {
      "inputs": [],
      "name": "trackingId",
      "outputs": [
        {
          "internalType": "bytes32",
          "name": "",
          "type": "bytes32"
        }
      ],
      "stateMutability": "view",
      "type": "function"
    },
    {
      "inputs": [],
      "name": "uiURI",
      "outputs": [
        {
          "internalType": "bytes32",
          "name": "digest",
          "type": "bytes32"
        },
        {
          "internalType": "uint8",
          "name": "hashFunction",
          "type": "uint8"
        },
        {
          "internalType": "uint8",
          "name": "size",
          "type": "uint8"
        }
      ],
      "stateMutability": "view",
      "type": "function"
    }
  ],
  "bytecode": "0x608060405234801561001057600080fd5b5061526c806100206000396000f3fe608060405234801561001057600080fd5b506004361061020b5760003560e01c806355dd978b1161012a578063a072d7b0116100bd578063bc197c811161008c578063d8b6231611610071578063d8b623161461048a578063ea8221a91461049d578063f23a6e61146104a55761020b565b8063bc197c8114610462578063c98c05b7146104825761020b565b8063a072d7b014610416578063a5682cb014610429578063b8ae72d51461043c578063b992db0f1461044f5761020b565b806380c2dde2116100f957806380c2dde2146103e057806387c0b374146103e857806387dfee57146103fb578063999925061461040e5761020b565b806355dd978b1461039657806379502c551461039e5780637c123627146103b857806380b204b7146103cd5761020b565b806336fcf48c116101a25780634a77234e116101715780634a77234e1461034a5780634dab5e691461035d5780634dd82880146103705780634e46f223146103835761020b565b806336fcf48c146102eb5780633837b05e146103025780633ee8b6741461032257806348cbb2fc146103425761020b565b80630d7e149f116101de5780630d7e149f146102815780630d8d3975146102a157806318782559146102b457806326c50007146102c75761020b565b80630178fe3f1461021057806301ffc9a71461023957806307c068b6146102595780630d06101a1461026e575b600080fd5b61022361021e3660046130f6565b6104b8565b6040516102309190613edb565b60405180910390f35b61024c61024736600461310e565b61055a565b6040516102309190613e99565b61026c6102673660046130f6565b6105a0565b005b61026c61027c3660046130f6565b6106e9565b61029461028f3660046130f6565b61070e565b6040516102309190613ea4565b61026c6102af3660046130f6565b61072f565b61026c6102c23660046131a9565b610899565b6102da6102d53660046130f6565b61094d565b604051610230959493929190613f28565b6102f361099b565b60405161023093929190613ead565b6103156103103660046130f6565b6109b0565b6040516102309190613a38565b6103356103303660046130f6565b610ade565b6040516102309190613c9c565b610294610b49565b61026c6103583660046130f6565b610b4f565b61026c61036b3660046130f6565b610e5a565b61022361037e3660046130f6565b610f34565b61026c6103913660046130f6565b610f7f565b610315611059565b6103a6611068565b60405161023096959493929190613f5b565b6103c0611324565b6040516102309190613ce9565b61026c6103db366004613323565b611453565b6103156115ba565b61026c6103f6366004613488565b6115c9565b61026c61040936600461336d565b6116d4565b61024c61188d565b61026c6104243660046130f6565b61193a565b6103156104373660046132d0565b611cbe565b61026c61044a366004612fb9565b611e2b565b61026c61045d3660046130f6565b611f51565b610475610470366004612efe565b612286565b6040516102309190613ec6565b6102946122b3565b61026c610498366004613409565b61234d565b610294612447565b6104756104b3366004613023565b61244d565b6000818152601c602052604090208054606091906104d590614ca6565b80601f016020809104026020016040519081016040528092919081815260200182805461050190614ca6565b801561054e5780601f106105235761010080835404028352916020019161054e565b820191906000526020600020905b81548152906001019060200180831161053157829003601f168201915b50505050509050919050565b60006001600160e01b031982167f4e2312e0000000000000000000000000000000000000000000000000000000001480610598575061059882612479565b90505b919050565b6006546001600160a01b031633146105d35760405162461bcd60e51b81526004016105ca906143f9565b60405180910390fd5b6003601282815481106105f657634e487b7160e01b600052603260045260246000fd5b600091825260209091206006918202016005015460ff169081111561062b57634e487b7160e01b600052602160045260246000fd5b146106485760405162461bcd60e51b81526004016105ca9061432e565b73__$94d7d2f22770e4b0d1a2b99fb2812308e2$__63ec7ac2f06012838154811061068357634e487b7160e01b600052603260045260246000fd5b90600052602060002090600602016040518263ffffffff1660e01b81526004016106ad9190613ea4565b60006040518083038186803b1580156106c557600080fd5b505af41580156106d9573d6000803e3d6000fd5b505050506106e6816124ab565b50565b601754156107095760405162461bcd60e51b81526004016105ca906145e4565b601755565b6016818154811061071e57600080fd5b600091825260209091200154905081565b6016818154811061075057634e487b7160e01b600052603260045260246000fd5b906000526020600020015442116107795760405162461bcd60e51b81526004016105ca90614252565b60026012828154811061079c57634e487b7160e01b600052603260045260246000fd5b600091825260209091206006918202016005015460ff16908111156107d157634e487b7160e01b600052602160045260246000fd5b146107ee5760405162461bcd60e51b81526004016105ca90614467565b6001546012805473__$94d7d2f22770e4b0d1a2b99fb2812308e2$__926385c92867926001600160a01b03909116918590811061083b57634e487b7160e01b600052603260045260246000fd5b90600052602060002090600602016040518363ffffffff1660e01b8152600401610866929190613ad2565b60006040518083038186803b15801561087e57600080fd5b505af4158015610892573d6000803e3d6000fd5b5050505050565b6005546001600160a01b031633146108c35760405162461bcd60e51b81526004016105ca9061421b565b6001546040517f01b7037c0000000000000000000000000000000000000000000000000000000081526001600160a01b03909116906301b7037c906109149088908890889088908890600401613eee565b600060405180830381600087803b15801561092e57600080fd5b505af1158015610942573d6000803e3d6000fd5b505050505050505050565b6012818154811061095d57600080fd5b6000918252602090912060069091020180546001820154600283015460038401546005909401546001600160a01b0390931694509092909160ff1685565b60025460035460ff8082169161010090041683565b60006015548214156109c357503061059b565b601554821015610a5457601354604051631c1bd82f60e11b81526001600160a01b0390911690633837b05e906109fd908590600401613ea4565b60206040518083038186803b158015610a1557600080fd5b505afa158015610a29573d6000803e3d6000fd5b505050506040513d601f19601f82011682018060405250810190610a4d9190612ee2565b905061059b565b60155482111561059b57601454604051631c1bd82f60e11b81526001600160a01b0390911690633837b05e90610a8e908590600401613ea4565b60206040518083038186803b158015610aa657600080fd5b505afa158015610aba573d6000803e3d6000fd5b505050506040513d601f19601f820116820180604052508101906105989190612ee2565b6000818152601a602090815260409182902080548351818402810184019094528084526060939283018282801561054e57602002820191906000526020600020905b81546001600160a01b03168152600190910190602001808311610b205750505050509050919050565b60175481565b60125415610b96576005546001600160a01b0316331480610b7a57506013546001600160a01b031633145b610b965760405162461bcd60e51b81526004016105ca906145ad565b6012548114610bb75760405162461bcd60e51b81526004016105ca906141e4565b60195415610bd75760405162461bcd60e51b81526004016105ca906144d5565b60185415610bf75760405162461bcd60e51b81526004016105ca9061450a565b600154601354601280546040517f699e0add000000000000000000000000000000000000000000000000000000008152919373__$94d7d2f22770e4b0d1a2b99fb2812308e2$__9363699e0add93610c62936001600160a01b0393841693600a931691600401613a9d565b60006040518083038186803b158015610c7a57600080fd5b505af4158015610c8e573d6000803e3d6000fd5b505050506040513d6000823e601f3d908101601f19168201604052610cb69190810190613211565b8154600180820184556000938452602093849020835160069093020180546001600160a01b0319166001600160a01b03909316929092178255828401519082015560408201516002820155606082015160038201556080820151805192939192610d269260048501920190612cbb565b5060a082015160058201805460ff19166001836006811115610d5857634e487b7160e01b600052602160045260246000fd5b0217905550506016805460018101825560009182527fd833147d7dc355ba459fc788f669e58cfaf9dc25ddcd0702e87d69c7b5124289015550610d996124f3565b7f152ec8ae15d347b2d2a8f0858caa29bcaaa0906749a1f43e08bfe799834602403082604051610dca929190613ad2565b60405180910390a16014546001600160a01b0316156106e6576014546040517f4a77234e0000000000000000000000000000000000000000000000000000000081526001600160a01b0390911690634a77234e90610e2c908490600401613ea4565b600060405180830381600087803b158015610e4657600080fd5b505af1158015610892573d6000803e3d6000fd5b6006546001600160a01b03163314610e845760405162461bcd60e51b81526004016105ca906143f9565b600260128281548110610ea757634e487b7160e01b600052603260045260246000fd5b600091825260209091206006918202016005015460ff1690811115610edc57634e487b7160e01b600052602160045260246000fd5b14610ef95760405162461bcd60e51b81526004016105ca9061449e565b73__$94d7d2f22770e4b0d1a2b99fb2812308e2$__6324b286026012838154811061068357634e487b7160e01b600052603260045260246000fd5b6012546000828152601d602052604090205460609114610f665760405162461bcd60e51b81526004016105ca906143c2565b6000828152601c6020526040902080546104d590614ca6565b6006546001600160a01b03163314610fa95760405162461bcd60e51b81526004016105ca906143f9565b600460128281548110610fcc57634e487b7160e01b600052603260045260246000fd5b600091825260209091206006918202016005015460ff169081111561100157634e487b7160e01b600052602160045260246000fd5b1461101e5760405162461bcd60e51b81526004016105ca9061453f565b73__$94d7d2f22770e4b0d1a2b99fb2812308e2$__6359111fb56012838154811061068357634e487b7160e01b600052603260045260246000fd5b6014546001600160a01b031681565b60048054600554600654600754600880546001600160a01b03958616969486169590931693919261109890614ca6565b80601f01602080910402602001604051908101604052809291908181526020018280546110c490614ca6565b80156111115780601f106110e657610100808354040283529160200191611111565b820191906000526020600020905b8154815290600101906020018083116110f457829003601f168201915b505060408051610100810182526006870180546001600160a01b03168252600788015460208084019190915260088901548385015260098901546060840152600a890180548551818402810184019096528086529899989397509195506080870194509091908301828280156111a657602002820191906000526020600020905b815481526020019060010190808311611192575b50505050508152602001600582018054806020026020016040519081016040528092919081815260200182805480156111fe57602002820191906000526020600020905b8154815260200190600101908083116111ea575b5050505050815260200160068201805480602002602001604051908101604052809291908181526020016000905b828210156112985760008481526020908190208301805460408051828502810185019091528181529283018282801561128457602002820191906000526020600020905b815481526020019060010190808311611270575b50505050508152602001906001019061122c565b50505050815260200160078201805480602002602001604051908101604052809291908181526020016000905b8282101561131757600084815260209081902060408051606081018252600286029092018054835260019081015460ff80821685870152610100909104169183019190915290835290920191016112c5565b5050505081525050905086565b60606012805480602002602001604051908101604052809291908181526020016000905b8282101561144a5760008481526020908190206040805160c0810182526006860290920180546001600160a01b0316835260018101548385015260028101548383015260038101546060840152600481018054835181870281018701909452808452939491936080860193928301828280156113e357602002820191906000526020600020905b8154815260200190600101908083116113cf575b5050509183525050600582015460209091019060ff16600681111561141857634e487b7160e01b600052602160045260246000fd5b600681111561143757634e487b7160e01b600052602160045260246000fd5b8152505081526020019060010190611348565b50505050905090565b6005546001600160a01b0316331461147d5760405162461bcd60e51b81526004016105ca9061421b565b600b54811461149e5760405162461bcd60e51b81526004016105ca90614119565b6001601284815481106114c157634e487b7160e01b600052603260045260246000fd5b600091825260209091206006918202016005015460ff16908111156114f657634e487b7160e01b600052602160045260246000fd5b146115135760405162461bcd60e51b81526004016105ca90614176565b73__$94d7d2f22770e4b0d1a2b99fb2812308e2$__636a0a24f16012858154811061154e57634e487b7160e01b600052603260045260246000fd5b906000526020600020906006020184846040518463ffffffff1660e01b815260040161157c93929190614689565b60006040518083038186803b15801561159457600080fd5b505af41580156115a8573d6000803e3d6000fd5b505050506115b5836124ab565b505050565b6013546001600160a01b031681565b6115d2816109b0565b6001600160a01b0316336001600160a01b0316146116025760405162461bcd60e51b81526004016105ca906141ad565b6000828152601d60205260409020541580159061162e57506012546000838152601d6020526040902054145b1561168d57604051630a072d7b60e41b8152339063a072d7b090611656908590600401613ea4565b600060405180830381600087803b15801561167057600080fd5b505af1158015611684573d6000803e3d6000fd5b505050506116d0565b6000828152601a60209081526040822080546001810182559083529082200180546001600160a01b0319163317905560198054916116ca83614cee565b91905055505b5050565b6006546001600160a01b031633146116fe5760405162461bcd60e51b81526004016105ca906143f9565b60046012838154811061172157634e487b7160e01b600052603260045260246000fd5b600091825260209091206006918202016005015460ff169081111561175657634e487b7160e01b600052602160045260246000fd5b146117735760405162461bcd60e51b81526004016105ca9061453f565b6016828154811061179457634e487b7160e01b600052603260045260246000fd5b906000526020600020015442116117bd5760405162461bcd60e51b81526004016105ca90614252565b600b548151146117df5760405162461bcd60e51b81526004016105ca90614119565b6001546012805473__$94d7d2f22770e4b0d1a2b99fb2812308e2$__92631b948e49926001600160a01b03909116918690811061182c57634e487b7160e01b600052603260045260246000fd5b9060005260206000209060060201846040518463ffffffff1660e01b815260040161185993929190613aeb565b60006040518083038186803b15801561187157600080fd5b505af4158015611885573d6000803e3d6000fd5b505050505050565b6012546040517f5cc1f6b500000000000000000000000000000000000000000000000000000000815260009173__$94d7d2f22770e4b0d1a2b99fb2812308e2$__91635cc1f6b5916118e59160099190600401613d8d565b60206040518083038186803b1580156118fd57600080fd5b505af4158015611911573d6000803e3d6000fd5b505050506040513d601f19601f8201168201806040525081019061193591906130d6565b905090565b6000338260405160200161194f929190613a16565b60408051601f1981840301815291815281516020928301206000818152601b909352912054600980549293506119b592909190811061199e57634e487b7160e01b600052603260045260246000fd5b9060005260206000209060050201600301546109b0565b6001600160a01b0316336001600160a01b0316146119e55760405162461bcd60e51b81526004016105ca906141ad565b6000818152601b6020526040812054600980549091908110611a1757634e487b7160e01b600052603260045260246000fd5b600091825260209091206001600590920201015460ff166003811115611a4d57634e487b7160e01b600052602160045260246000fd5b14611a6a5760405162461bcd60e51b81526004016105ca906140ab565b6000818152601b6020526040902054600980549091908110611a9c57634e487b7160e01b600052603260045260246000fd5b600091825260208220600590910201805491611ab783614cee565b90915550506000818152601b602052604090205460098054611c6d92908110611af057634e487b7160e01b600052603260045260246000fd5b906000526020600020906005020160020154336001600160a01b0316634dd828806004600501601860030160008781526020019081526020016000205481548110611b4b57634e487b7160e01b600052603260045260246000fd5b90600052602060002090600502016004018054611b6790614ca6565b80601f0160208091040260200160405190810160405280929190818152602001828054611b9390614ca6565b8015611be05780601f10611bb557610100808354040283529160200191611be0565b820191906000526020600020905b815481529060010190602001808311611bc357829003601f168201915b5050505050806020019051810190611bf8919061330b565b6040518263ffffffff1660e01b8152600401611c149190613ea4565b60006040518083038186803b158015611c2c57600080fd5b505afa158015611c40573d6000803e3d6000fd5b505050506040513d6000823e601f3d908101601f19168201604052611c689190810190613136565b6127cf565b6000818152601b602052604081208190556018805491611c8c83614c8f565b90915550506040517f71bd81ebe1d98a2944767394e76a9aff18724b2cf04e1db71254f804544b35c790600090a15050565b6005546000906001600160a01b03163314611ceb5760405162461bcd60e51b81526004016105ca90614576565b6014546001600160a01b031615611d145760405162461bcd60e51b81526004016105ca906140e2565b6000546015546040517ff357146800000000000000000000000000000000000000000000000000000000815273__$94d7d2f22770e4b0d1a2b99fb2812308e2$__9263f357146892611d7d92620100009092046001600160a01b03169187913091600401613b9b565b604080518083038186803b158015611d9457600080fd5b505af4158015611da8573d6000803e3d6000fd5b505050506040513d601f19601f82011682018060405250810190611dcc919061309d565b601480546001600160a01b0319166001600160a01b0393841617908190556040519193507fbd2e7fbdc9b1c19997e58c63e6ea1b5a02acd8dd9fd5d76f4bb18634f7155e8092611e1e92911690613a38565b60405180910390a1919050565b600054610100900460ff1680611e44575060005460ff16155b611e605760405162461bcd60e51b81526004016105ca90614365565b600054610100900460ff16158015611e8b576000805460ff1961ff0019909116610100171660011790555b6000611e9d6040840160208501612ebf565b6001600160a01b03161415611ec45760405162461bcd60e51b81526004016105ca90614430565b600080546201000033027fffffffffffffffffffff0000000000000000000000000000000000000000ffff909116179055600180546001600160a01b038781166001600160a01b03199283161790925560138054928716929091169190911790556015839055816004611f378282614f3e565b50508015610892576000805461ff00191690555050505050565b600060128281548110611f7457634e487b7160e01b600052603260045260246000fd5b600091825260209091206006918202016005015460ff1690811115611fa957634e487b7160e01b600052602160045260246000fd5b14611fc65760405162461bcd60e51b81526004016105ca90614652565b611fce61188d565b1515600114611fef5760405162461bcd60e51b81526004016105ca906142c0565b60016012828154811061201257634e487b7160e01b600052603260045260246000fd5b906000526020600020906006020160050160006101000a81548160ff0219169083600681111561205257634e487b7160e01b600052602160045260246000fd5b02179055506001546013546012805473__$94d7d2f22770e4b0d1a2b99fb2812308e2$__93630c5190e2936001600160a01b0391821693911691600a9190879081106120ae57634e487b7160e01b600052603260045260246000fd5b60009182526020808320600d548452601c90915260409092208054600690920290920191906120dc90614ca6565b80601f016020809104026020016040519081016040528092919081815260200182805461210890614ca6565b80156121555780601f1061212a57610100808354040283529160200191612155565b820191906000526020600020905b81548152906001019060200180831161213857829003601f168201915b505050505080602001905181019061216d919061330b565b6040518663ffffffff1660e01b815260040161218d959493929190613a4c565b60006040518083038186803b1580156121a557600080fd5b505af41580156121b9573d6000803e3d6000fd5b50506001546012805473__$94d7d2f22770e4b0d1a2b99fb2812308e2$__945063e2f9ff3193506001600160a01b03909216918590811061220a57634e487b7160e01b600052603260045260246000fd5b9060005260206000209060060201600460060130601c6017546040518763ffffffff1660e01b815260040161224496959493929190613b48565b60006040518083038186803b15801561225c57600080fd5b505af4158015612270573d6000803e3d6000fd5b5050505061227d816106e6565b6106e681612852565b7fbc197c810000000000000000000000000000000000000000000000000000000098975050505050505050565b600a546040517f70a082310000000000000000000000000000000000000000000000000000000081526000916001600160a01b0316906370a08231906122fd903090600401613a38565b60206040518083038186803b15801561231557600080fd5b505afa158015612329573d6000803e3d6000fd5b505050506040513d601f19601f82011682018060405250810190611935919061330b565b6005546001600160a01b031633146123775760405162461bcd60e51b81526004016105ca90614074565b6009548211156123995760405162461bcd60e51b81526004016105ca90614289565b600360098054849081106123bd57634e487b7160e01b600052603260045260246000fd5b600091825260209091206001600590920201015460ff1660038111156123f357634e487b7160e01b600052602160045260246000fd5b146124105760405162461bcd60e51b81526004016105ca9061403d565b61241a82826127cf565b6040517f71bd81ebe1d98a2944767394e76a9aff18724b2cf04e1db71254f804544b35c790600090a15050565b60155481565b7ff23a6e61000000000000000000000000000000000000000000000000000000005b9695505050505050565b6001600160e01b031981167f01ffc9a70000000000000000000000000000000000000000000000000000000014919050565b6007546124b99060016149ea565b6124c390426149d2565b601682815481106124e457634e487b7160e01b600052603260045260246000fd5b60009182526020909120015550565b60005b6009548110156127a3576000600980548390811061252457634e487b7160e01b600052603260045260246000fd5b600091825260209091206001600590920201015460ff16600381111561255a57634e487b7160e01b600052602160045260246000fd5b1461259e576125996004600501828154811061258657634e487b7160e01b600052603260045260246000fd5b906000526020600020906005020161293b565b612791565b6000306001600160a01b0316633837b05e600460050184815481106125d357634e487b7160e01b600052603260045260246000fd5b9060005260206000209060050201600301546040518263ffffffff1660e01b81526004016126019190613ea4565b60206040518083038186803b15801561261957600080fd5b505afa15801561262d573d6000803e3d6000fd5b505050506040513d601f19601f820116820180604052508101906126519190612ee2565b905061265d8183612a2f565b806001600160a01b03166387c0b3746004600501848154811061269057634e487b7160e01b600052603260045260246000fd5b906000526020600020906005020160040180546126ac90614ca6565b80601f01602080910402602001604051908101604052809291908181526020018280546126d890614ca6565b80156127255780601f106126fa57610100808354040283529160200191612725565b820191906000526020600020905b81548152906001019060200180831161270857829003601f168201915b505050505080602001905181019061273d919061330b565b6015546040518363ffffffff1660e01b815260040161275d9291906146a3565b600060405180830381600087803b15801561277757600080fd5b505af115801561278b573d6000803e3d6000fd5b50505050505b8061279b81614cee565b9150506124f6565b506040517f71bd81ebe1d98a2944767394e76a9aff18724b2cf04e1db71254f804544b35c790600090a1565b6012546127de90600190614a09565b6000838152601d60205260409020541461280a5760405162461bcd60e51b81526004016105ca9061461b565b6000828152601d6020526040812080549161282483614cee565b90915550506000828152601c60209081526040909120825161284892840190612d06565b506116d082612b53565b6014546001600160a01b0316158015906128ed5750601460009054906101000a90046001600160a01b03166001600160a01b031663999925066040518163ffffffff1660e01b815260040160206040518083038186803b1580156128b557600080fd5b505afa1580156128c9573d6000803e3d6000fd5b505050506040513d601f19601f820116820180604052508101906128ed91906130d6565b156106e6576014546040517fb992db0f0000000000000000000000000000000000000000000000000000000081526001600160a01b039091169063b992db0f90610e2c908490600401613ea4565b600181015460039060ff168181111561296457634e487b7160e01b600052602160045260246000fd5b11156129825760405162461bcd60e51b81526004016105ca906142f7565b805481600061299083614cee565b9091555060039050600182015460ff1660038111156129bf57634e487b7160e01b600052602160045260246000fd5b146106e6576106e6816002015473__$94d7d2f22770e4b0d1a2b99fb2812308e2$__63b3d73707846040518263ffffffff1660e01b8152600401612a039190613ea4565b60006040518083038186803b158015612a1b57600080fd5b505af4158015611c40573d6000803e3d6000fd5b80601860030160008460046005018581548110612a5c57634e487b7160e01b600052603260045260246000fd5b90600052602060002090600502016004018054612a7890614ca6565b80601f0160208091040260200160405190810160405280929190818152602001828054612aa490614ca6565b8015612af15780601f10612ac657610100808354040283529160200191612af1565b820191906000526020600020905b815481529060010190602001808311612ad457829003601f168201915b5050505050806020019051810190612b09919061330b565b604051602001612b1a929190613a16565b60408051601f1981840301815291815281516020928301208352908201929092520160009081209190915560188054916116ca83614cee565b60005b6000828152601a60205260409020548110156116d0576000828152601a60205260408120805483908110612b9a57634e487b7160e01b600052603260045260246000fd5b6000918252602090912001546001600160a01b031614612ca9576000828152601a60205260409020805482908110612be257634e487b7160e01b600052603260045260246000fd5b600091825260209091200154604051630a072d7b60e41b81526001600160a01b039091169063a072d7b090612c1b908590600401613ea4565b600060405180830381600087803b158015612c3557600080fd5b505af1158015612c49573d6000803e3d6000fd5b5050506000838152601a60205260409020805490915082908110612c7d57634e487b7160e01b600052603260045260246000fd5b6000918252602082200180546001600160a01b03191690556019805491612ca383614c8f565b91905055505b80612cb381614cee565b915050612b56565b828054828255906000526020600020908101928215612cf6579160200282015b82811115612cf6578251825591602001919060010190612cdb565b50612d02929150612d79565b5090565b828054612d1290614ca6565b90600052602060002090601f016020900481019282612d345760008555612cf6565b82601f10612d4d57805160ff1916838001178555612cf6565b82800160010185558215612cf65791820182811115612cf6578251825591602001919060010190612cdb565b5b80821115612d025760008155600101612d7a565b803561059b81615205565b60008083601f840112612daa578182fd5b50813567ffffffffffffffff811115612dc1578182fd5b6020830191508360208083028501011115612ddb57600080fd5b9250929050565b600082601f830112612df2578081fd5b81516020612e07612e02836147e2565b6147b8565b8281528181019085830183850287018401881015612e23578586fd5b855b85811015612e4157815184529284019290840190600101612e25565b5090979650505050505050565b60008083601f840112612e5f578182fd5b50813567ffffffffffffffff811115612e76578182fd5b602083019150836020828501011115612ddb57600080fd5b805161059b81615205565b80516007811061059b57600080fd5b600060e08284031215612eb9578081fd5b50919050565b600060208284031215612ed0578081fd5b8135612edb81615205565b9392505050565b600060208284031215612ef3578081fd5b8151612edb81615205565b60008060008060008060008060a0898b031215612f19578384fd5b8835612f2481615205565b97506020890135612f3481615205565b9650604089013567ffffffffffffffff80821115612f50578586fd5b612f5c8c838d01612d99565b909850965060608b0135915080821115612f74578586fd5b612f808c838d01612d99565b909650945060808b0135915080821115612f98578384fd5b50612fa58b828c01612e4e565b999c989b5096995094979396929594505050565b60008060008060808587031215612fce578182fd5b8435612fd981615205565b93506020850135612fe981615205565b925060408501359150606085013567ffffffffffffffff81111561300b578182fd5b61301787828801612ea8565b91505092959194509250565b60008060008060008060a0878903121561303b578384fd5b863561304681615205565b9550602087013561305681615205565b94506040870135935060608701359250608087013567ffffffffffffffff81111561307f578283fd5b61308b89828a01612e4e565b979a9699509497509295939492505050565b600080604083850312156130af578182fd5b82516130ba81615205565b60208401519092506130cb81615205565b809150509250929050565b6000602082840312156130e7578081fd5b81518015158114612edb578182fd5b600060208284031215613107578081fd5b5035919050565b60006020828403121561311f578081fd5b81356001600160e01b031981168114612edb578182fd5b600060208284031215613147578081fd5b815167ffffffffffffffff81111561315d578182fd5b8201601f8101841361316d578182fd5b805161317b612e0282614806565b81815285602083850101111561318f578384fd5b6131a0826020830160208601614c5f565b95945050505050565b6000806000806000608086880312156131c0578283fd5b85356131cb81615205565b94506020860135935060408601359250606086013567ffffffffffffffff8111156131f4578182fd5b61320088828901612d99565b969995985093965092949392505050565b600060208284031215613222578081fd5b815167ffffffffffffffff80821115613239578283fd5b9083019060c0828603121561324c578283fd5b60405160c08101818110838211171561326757613267614d4b565b60405261327383612e8e565b81526020830151602082015260408301516040820152606083015160608201526080830151828111156132a4578485fd5b6132b087828601612de2565b6080830152506132c260a08401612e99565b60a082015295945050505050565b6000602082840312156132e1578081fd5b813567ffffffffffffffff8111156132f7578182fd5b61330384828501612ea8565b949350505050565b60006020828403121561331c578081fd5b5051919050565b600080600060408486031215613337578081fd5b83359250602084013567ffffffffffffffff811115613354578182fd5b61336086828701612d99565b9497909650939450505050565b6000806040838503121561337f578182fd5b8235915060208084013567ffffffffffffffff81111561339d578283fd5b8401601f810186136133ad578283fd5b80356133bb612e02826147e2565b81815283810190838501858402850186018a10156133d7578687fd5b8694505b838510156133f95780358352600194909401939185019185016133db565b5080955050505050509250929050565b6000806040838503121561341b578182fd5b82359150602083013567ffffffffffffffff811115613438578182fd5b8301601f81018513613448578182fd5b8035613456612e0282614806565b81815286602083850101111561346a578384fd5b81602084016020830137908101602001929092525090939092509050565b6000806040838503121561349a578182fd5b50508035926020909101359150565b6001600160a01b03169052565b818352602080840193600091908185020181018584845b878110156135035782840389526134e482886148df565b6134ef868284613741565b9a87019a95505050908401906001016134cd565b5091979650505050505050565b6000815180845260208085018081965082840281019150828601855b8581101561350357828403895261354484835161378e565b9885019893509084019060010161352c565b6000815480845260208085018081965082840281019150858552828520855b8581101561350357828403895261358c84836137bd565b98850198935060019182019101613575565b818352602080840193600091908185020181018584845b878110156135035782840389528135609e198836030181126135d5578687fd5b87018035855260a0868201356135ea8161521a565b6135f688880182613845565b50604082810135908701526060808301359087015260806136198184018461496f565b9350828289015261362d83890185836137ef565b9c89019c975050509286019250506001016135b5565b60008284526020808501945082825b8581101561369c57813587528282013561366b81615227565b60ff908116888501526040908382013561368481615227565b16908801526060968701969190910190600101613652565b509495945050505050565b6000815180845260208085019450808401835b8381101561369c578151805188528381015160ff908116858a01526040918201511690880152606090960195908201906001016136ba565b6000815480845260208085019450838352808320835b8381101561369c578154875260018083015460ff808216868b015260089190911c16604089015260609097019660029092019101613708565b60008284527f07ffffffffffffffffffffffffffffffffffffffffffffffffffffffffffffff831115613772578081fd5b6020830280836020870137939093016020019283525090919050565b6000815180845260208085019450808401835b8381101561369c578151875295820195908201906001016137a1565b6000815480845260208085019450838352808320835b8381101561369c578154875295820195600191820191016137d3565b60008284528282602086013780602084860101526020601f19601f85011685010190509392505050565b60008151808452613831816020860160208601614c5f565b601f01601f19169290920160200192915050565b6004811061385557613855614d35565b9052565b6007811061385557613855614d35565b60006101006138808461387b85612d8e565b6134a9565b6020830135602085015260408301356040850152606083013560608501526138ab60808401846148df565b8260808701526138be8387018284613741565b925050506138cf60a08401846148df565b85830360a08701526138e2838284613741565b925050506138f360c08401846148df565b85830360c08701526139068382846134b6565b9250505061391760e0840184614927565b85830360e087015261246f838284613643565b600061010061393d8461387b8554614a20565b600183015460208501526002830154604085015260038301546060850152806080850152613970818501600485016137bd565b905083810360a085015261398781600585016137bd565b905083810360c085015261399e8160068501613556565b905083810360e085015261330381600785016136f2565b60006001600160a01b03825416835260018201546020840152600282015460408401526003820154606084015260c060808401526139f960c08401600484016137bd565b60ff600584015416613a0e60a0860182613859565b509392505050565b60609290921b6bffffffffffffffffffffffff19168252601482015260340190565b6001600160a01b0391909116815260200190565b60006001600160a01b03808816835280871660208401525060a06040830152613a7860a083018661392a565b8281036060840152613a8a81866139b5565b9150508260808301529695505050505050565b60006001600160a01b03808716835260806020840152613ac0608084018761392a565b94166040830152506060015292915050565b6001600160a01b03929092168252602082015260400190565b6000606082016001600160a01b038616835260208581850152606060408501528185518084526080860191508287019350845b81811015613b3a57845183529383019391830191600101613b1e565b509098975050505050505050565b60006001600160a01b03808916835260c06020840152613b6b60c08401896139b5565b8381036040850152613b7d818961392a565b91909616606084015260808301949094525060a00152949350505050565b60006001600160a01b0386168252608060208301528435613bbb81615205565b613bc860808401826134a9565b50613bd560208601612d8e565b613be260a08401826134a9565b50613bef60408601612d8e565b613bfc60c08401826134a9565b50606085013560e0830152613c14608086018661496f565b60e0610100850152613c2b610160850182846137ef565b915050613c3b60a08701876148df565b607f198086850301610120870152613c5484838561359e565b9350613c6360c08a018a6149b4565b925080868503016101408701525050613c7c8282613869565b92505050613c8d60408301856134a9565b82606083015295945050505050565b6020808252825182820181905260009190848201906040850190845b81811015613cdd5783516001600160a01b031683529284019291840191600101613cb8565b50909695505050505050565b60208082528251828201819052600091906040908185019080840286018301878501865b83811015613b3a57603f19898403018552815160c06001600160a01b0382511685528882015189860152878201518886015260608083015181870152506080808301518282880152613d618388018261378e565b9250505060a0808301519250613d7981870184613859565b509588019593505090860190600101613d0d565b60006040808301818452808654808352606086019150602092506060838202870101888652838620865b83811015613e8657605f1989840301855260a082548452600160ff8185015416613de389870182613845565b5060028401548986015260038401546060860152600484018260808701528a8154613e0d81614ca6565b94880185905260c0948185168015613e2c5760018114613e4057613e6b565b60ff1983168a88015260e08a019350613e6b565b848f528c8f208f5b83811015613e635781548c82018a0152908701908e01613e48565b8b0188019450505b50505097890197955050506005929092019150600101613db7565b5050929095019590955295945050505050565b901515815260200190565b90815260200190565b92835260ff918216602084015216604082015260600190565b6001600160e01b031991909116815260200190565b600060208252612edb6020830184613819565b60006001600160a01b038716825285602083015284604083015260806060830152613f1d608083018486613741565b979650505050505050565b600060a0820190506001600160a01b038716825285602083015284604083015283606083015261246f6080830184613859565b60006001600160a01b038089168352808816602084015280871660408401525084606083015260c06080830152613f9560c0830185613819565b82810360a0840152610100613fab8286516134a9565b6020850151602083015260408501516040830152606085015160608301526080850151816080840152613fe08284018261378e565b91505060a085015182820360a0840152613ffa828261378e565b91505060c085015182820360c08401526140148282613510565b91505060e085015182820360e084015261402e82826136a7565b9b9a5050505050505050505050565b60208082526016908201527f6f6e6c7920496e67657374547970652e4d616e75616c00000000000000000000604082015260600190565b6020808252600a908201527f4f6e6c794b656570657200000000000000000000000000000000000000000000604082015260600190565b60208082526013908201527f496e67657374206e6f742043616c6c6261636b00000000000000000000000000604082015260600190565b60208082526010908201527f536f6c76657220686173206368696c6400000000000000000000000000000000604082015260600190565b60208082526026908201527f7061796f7574732e6c656e677468206d757374206d61746368206f7574636f6d60408201527f65536c6f74730000000000000000000000000000000000000000000000000000606082015260800190565b60208082526016908201527f436f6e646974696f6e206e6f7420457865637574656400000000000000000000604082015260600190565b60208082526015908201527f6d73672e73656e646572206e6f7420736f6c7665720000000000000000000000604082015260600190565b60208082526018908201527f496e76616c696420696e64657820746f20707265706172650000000000000000604082015260600190565b6020808252600b908201527f4f6e6c79204b6565706572000000000000000000000000000000000000000000604082015260600190565b60208082526015908201527f54696d656c6f636b207374696c6c206c6f636b65640000000000000000000000604082015260600190565b60208082526011908201527f536c6f74206f7574206f662073636f7065000000000000000000000000000000604082015260600190565b6020808252600f908201527f696e676573747320696e76616c69640000000000000000000000000000000000604082015260600190565b60208082526012908201527f496e76616c696420696e67657374547970650000000000000000000000000000604082015260600190565b60208082526018908201527f4e6f74204172626974726174696f6e5265717565737465640000000000000000604082015260600190565b6020808252602e908201527f496e697469616c697a61626c653a20636f6e747261637420697320616c72656160408201527f647920696e697469616c697a6564000000000000000000000000000000000000606082015260800190565b60208082526011908201527f536c6f7420696e76616c6964207665722e000000000000000000000000000000604082015260600190565b6020808252600f908201527f4f6e6c792061726269747261746f720000000000000000000000000000000000604082015260600190565b6020808252600e908201527f4b656570657220696e76616c6964000000000000000000000000000000000000604082015260600190565b60208082526014908201527f4f7574636f6d65206e6f742070726f706f736564000000000000000000000000604082015260600190565b60208082526013908201527f4e6f74204f7574636f6d6550726f706f73656400000000000000000000000000604082015260600190565b6020808252818101527f46756c66696c6c206f7574676f696e672063616c6c6261636b73206669727374604082015260600190565b6020808252818101527f46756c66696c6c20696e636f6d696e672063616c6c6261636b73206669727374604082015260600190565b60208082526016908201527f4e6f74204172626974726174696f6e50656e64696e6700000000000000000000604082015260600190565b6020808252600b908201527f4f6e6c79206b6565706572000000000000000000000000000000000000000000604082015260600190565b60208082526012908201527f4f6e6c79206b65657065722f706172656e740000000000000000000000000000604082015260600190565b6020808252600e908201527f547261636b696e67496420736574000000000000000000000000000000000000604082015260600190565b60208082526014908201527f536c6f742076657273696f6e20696e76616c6964000000000000000000000000604082015260600190565b6020808252600d908201527f6e6f7420496e6974696174656400000000000000000000000000000000000000604082015260600190565b6000848252604060208301526131a0604083018486613741565b918252602082015260400190565b6000808335601e198436030181126146c7578283fd5b83018035915067ffffffffffffffff8211156146e1578283fd5b6020908101925081023603821315612ddb57600080fd5b6000808335601e1984360301811261470e578283fd5b83018035915067ffffffffffffffff821115614728578283fd5b6020019150606081023603821315612ddb57600080fd5b6000808335601e19843603018112614755578283fd5b83018035915067ffffffffffffffff82111561476f578283fd5b602001915036819003821315612ddb57600080fd5b6000823560fe19833603018112614799578182fd5b9190910192915050565b60008235609e19833603018112614799578182fd5b60405181810167ffffffffffffffff811182821017156147da576147da614d4b565b604052919050565b600067ffffffffffffffff8211156147fc576147fc614d4b565b5060209081020190565b600067ffffffffffffffff82111561482057614820614d4b565b50601f01601f191660200190565b60009081526020902090565b60208410801561489057601f8411600181146148615761485a8685614cdb565b835561488a565b61486a8361482e565b61487f6020601f880104820160018301614a2c565b5061488a8684614db2565b50610892565b8160005260206000206020601f8701048101601f871680156148ba576148ba816000198401614d61565b506148cd6020601f880104830182614a2c565b50506001856002021782555050505050565b6000808335601e198436030181126148f5578283fd5b830160208101925035905067ffffffffffffffff81111561491557600080fd5b602081023603831315612ddb57600080fd5b6000808335601e1984360301811261493d578283fd5b830160208101925035905067ffffffffffffffff81111561495d57600080fd5b606081023603831315612ddb57600080fd5b6000808335601e19843603018112614985578283fd5b830160208101925035905067ffffffffffffffff8111156149a557600080fd5b803603831315612ddb57600080fd5b6000823560fe198336030181126149c9578182fd5b90910192915050565b600082198211156149e5576149e5614d1f565b500190565b6000816000190483118215151615614a0457614a04614d1f565b500290565b600082821015614a1b57614a1b614d1f565b500390565b6001600160a01b031690565b5b818110156116d05760008155600101614a2d565b68010000000000000000831115614a5a57614a5a614d4b565b805483825580841015614af2577f7fffffffffffffffffffffffffffffffffffffffffffffffffffffffffffffff6001818311811615614a9c57614a9c614d1f565b6002828711821615614ab057614ab0614d1f565b600085815260208120909350878202810190828602015b80821015614aec57614adb85868454614dd0565b825584848301558282019150614ac7565b50505050505b5081614afd8261482e565b6000805b86811015614b2a57614b148483856151aa565b6060939093019260029290920191600101614b01565b50505050505050565b614b3d8382614d75565b818160005260208060002060005b86811015614b2a57833582559282019260019182019101614b4b565b67ffffffffffffffff831115614b7f57614b7f614d4b565b614b898154614ca6565b600080601f8611601f841181811715614ba857614ba58661482e565b92505b8015614bd7576020601f89010483016020891015614bc35750825b614bd56020601f880104850182614a2c565b505b508060018114614c0357600094508715614bf2578387013594505b614bfc8886614cdb565b8655614c55565b601f198816945082845b86811015614c2d5788860135825560209586019560019092019101614c0d565b5088861015614c4a57878501356000196008601f8c16021c191681555b506001600289020186555b5050505050505050565b60005b83811015614c7a578181015183820152602001614c62565b83811115614c89576000848401525b50505050565b600081614c9e57614c9e614d1f565b506000190190565b600281046001821680614cba57607f821691505b60208210811415612eb957634e487b7160e01b600052602260045260246000fd5b600019600883021c191660029091021790565b6000600019821415614d0257614d02614d1f565b5060010190565b634e487b7160e01b600052600060045260246000fd5b634e487b7160e01b600052601160045260246000fd5b634e487b7160e01b600052602160045260246000fd5b634e487b7160e01b600052604160045260246000fd5b8054600019836020036008021c1681555050565b68010000000000000000821115614d8e57614d8e614d4b565b8054828255808310156115b557816000526020600020614c89828201858301614a2c565b806000526020600020614dc6838254614cdb565b9091556000905550565b60089190910291821b60001990921b9182169119161790565b6001600160a01b0382166001600160a01b03198254161781555050565b8135614e1181615205565b614e1b8183614de9565b506001602080840135828401556040840135600284015560608401356003840155614e4960808501856146b1565b614e57818360048801614b33565b5050614e6660a08501856146b1565b614e74818360058801614b33565b505060068301614e8760c08601866146b1565b68010000000000000000811115614ea057614ea0614d4b565b825481845580821015614edb5760008481528581208381019083015b80821015614ed757614ece8383614d75565b90880190614ebc565b5050505b5081614ee68461482e565b93506000805b83811015614f1b57614efe83866146b1565b614f0a8183868b61511d565b505094870194918601918701614eec565b5050505050505050614f3060e08301836146f8565b614c89818360078601614a41565b8135614f4981615205565b614f538183614de9565b506001602080840135614f6581615205565b614f7181848601614de9565b5060026040850135614f8281615205565b614f8e81838701614de9565b5060036060860135818601556004614fa9608088018861473f565b614fb68183858b01614b67565b50506005808701614fca60a08a018a6146b1565b68010000000000000000811115614fe357614fe3614d4b565b8254818455808210156150b7577f33333333333333333333333333333333333333333333333333333333333333338082118b161561502357615023614d1f565b8083118b161561503557615035614d1f565b506000848152898120838702810190878402015b808210156150b35761505d83848454614dd0565b8255828d8301558a820161507384858354614dd0565b81555089820161508584858354614dd0565b9055818901805461509581614ca6565b80156150a7576150a78682848661483a565b50505090870190615049565b5050505b508196506150c48361482e565b9550600094508492505b808310156150fb576150ea6150e388846147a3565b8688615136565b9587019594830194918801916150ce565b5050505050505050506116d061511460c0840184614784565b60068301614e06565b811561512b5761512b614d09565b614c89848483614b33565b811561514457615144614d09565b8235815560018101602084013561515a8161521a565b6004811061516a5761516a614d35565b60ff1982541660ff821681178355505050604083013560028201556060830135600382015561519c608084018461473f565b610892818360048601614b67565b81156151b8576151b8614d09565b823581556001810160208401356151ce81615227565b815460ff191660ff919091161780825560408501356151ec81615227565b61ff008160081b1661ff00198316178355505050505050565b6001600160a01b03811681146106e657600080fd5b600481106106e657600080fd5b60ff811681146106e657600080fdfea264697066735822122036edb43de1c1925bca1f035d64eac3fa42f1c7791efebb3c1c719f3f2d0d55e964736f6c63430008000033",
  "linkReferences": {
    "contracts/SolverLib.sol": {
      "SolverLib": [
        {
          "length": 20,
          "start": 1642
        },
        {
          "length": 20,
          "start": 2071
        },
        {
          "length": 20,
          "start": 3147
        },
        {
          "length": 20,
          "start": 3867
        },
        {
          "length": 20,
          "start": 4160
        },
        {
          "length": 20,
          "start": 5429
        },
        {
          "length": 20,
          "start": 6152
        },
        {
          "length": 20,
          "start": 6363
        },
        {
          "length": 20,
          "start": 7522
        },
        {
          "length": 20,
          "start": 8323
        },
        {
          "length": 20,
          "start": 8676
        },
        {
          "length": 20,
          "start": 10734
        }
      ]
    }
  },
  "deployedLinkReferences": {
    "contracts/SolverLib.sol": {
      "SolverLib": [
        {
          "length": 20,
          "start": 1610
        },
        {
          "length": 20,
          "start": 2039
        },
        {
          "length": 20,
          "start": 3115
        },
        {
          "length": 20,
          "start": 3835
        },
        {
          "length": 20,
          "start": 4128
        },
        {
          "length": 20,
          "start": 5397
        },
        {
          "length": 20,
          "start": 6120
        },
        {
          "length": 20,
          "start": 6331
        },
        {
          "length": 20,
          "start": 7490
        },
        {
          "length": 20,
          "start": 8291
        },
        {
          "length": 20,
          "start": 8644
        },
        {
          "length": 20,
          "start": 10702
        }
      ]
    }
  }
}