{
  "_format": "hh-sol-artifact-1",
  "contractName": "BasicSolverV1",
  "sourceName": "contracts/BasicSolverV1.sol",
  "abi": [
    {
      "anonymous": false,
      "inputs": [
        {
          "indexed": false,
          "internalType": "bytes32",
          "name": "conditionId",
          "type": "bytes32"
        }
      ],
      "name": "ChangedStatus",
      "type": "event"
    },
    {
      "anonymous": false,
      "inputs": [
        {
          "indexed": false,
          "internalType": "bytes32",
          "name": "conditionId",
          "type": "bytes32"
        }
      ],
      "name": "DeliveredNullArbitration",
      "type": "event"
    },
    {
      "anonymous": false,
      "inputs": [
        {
          "indexed": false,
          "internalType": "address",
          "name": "child",
          "type": "address"
        }
      ],
      "name": "DeployedChild",
      "type": "event"
    },
    {
      "anonymous": false,
      "inputs": [],
      "name": "IngestedData",
      "type": "event"
    },
    {
      "anonymous": false,
      "inputs": [
        {
          "indexed": false,
          "internalType": "address",
          "name": "solver",
          "type": "address"
        },
        {
          "indexed": false,
          "internalType": "uint256",
          "name": "solveIndex",
          "type": "uint256"
        }
      ],
      "name": "PreparedSolve",
      "type": "event"
    },
    {
      "inputs": [
        {
          "internalType": "bytes32",
          "name": "_slot",
          "type": "bytes32"
        },
        {
          "internalType": "bytes",
          "name": "_data",
          "type": "bytes"
        }
      ],
      "name": "addData",
      "outputs": [],
      "stateMutability": "nonpayable",
      "type": "function"
    },
    {
      "inputs": [
        {
          "internalType": "uint256",
          "name": "_index",
          "type": "uint256"
        }
      ],
      "name": "addressFromChainIndex",
      "outputs": [
        {
          "internalType": "address",
          "name": "_address",
          "type": "address"
        }
      ],
      "stateMutability": "view",
      "type": "function"
    },
    {
      "inputs": [
        {
          "internalType": "uint256",
          "name": "_index",
          "type": "uint256"
        }
      ],
      "name": "allocationsValid",
      "outputs": [
        {
          "internalType": "bool",
          "name": "",
          "type": "bool"
        }
      ],
      "stateMutability": "view",
      "type": "function"
    },
    {
      "inputs": [
        {
          "internalType": "uint256",
          "name": "_index",
          "type": "uint256"
        },
        {
          "internalType": "uint256[]",
          "name": "payouts",
          "type": "uint256[]"
        }
      ],
      "name": "arbitrate",
      "outputs": [],
      "stateMutability": "nonpayable",
      "type": "function"
    },
    {
      "inputs": [
        {
          "internalType": "uint256",
          "name": "_index",
          "type": "uint256"
        }
      ],
      "name": "arbitrateNull",
      "outputs": [],
      "stateMutability": "nonpayable",
      "type": "function"
    },
    {
      "inputs": [
        {
          "internalType": "uint256",
          "name": "_index",
          "type": "uint256"
        }
      ],
      "name": "arbitrationPending",
      "outputs": [],
      "stateMutability": "nonpayable",
      "type": "function"
    },
    {
      "inputs": [
        {
          "internalType": "uint256",
          "name": "_index",
          "type": "uint256"
        }
      ],
      "name": "arbitrationRequested",
      "outputs": [],
      "stateMutability": "nonpayable",
      "type": "function"
    },
    {
      "inputs": [],
      "name": "arbitrator",
      "outputs": [
        {
          "internalType": "address",
          "name": "",
          "type": "address"
        }
      ],
      "stateMutability": "view",
      "type": "function"
    },
    {
      "inputs": [],
      "name": "chainChild",
      "outputs": [
        {
          "internalType": "address",
          "name": "",
          "type": "address"
        }
      ],
      "stateMutability": "view",
      "type": "function"
    },
    {
      "inputs": [],
      "name": "chainIndex",
      "outputs": [
        {
          "internalType": "uint256",
          "name": "",
          "type": "uint256"
        }
      ],
      "stateMutability": "view",
      "type": "function"
    },
    {
      "inputs": [],
      "name": "chainParent",
      "outputs": [
        {
          "internalType": "address",
          "name": "",
          "type": "address"
        }
      ],
      "stateMutability": "view",
      "type": "function"
    },
    {
      "inputs": [],
      "name": "collateralBalance",
      "outputs": [
        {
          "internalType": "uint256",
          "name": "balance",
          "type": "uint256"
        }
      ],
      "stateMutability": "view",
      "type": "function"
    },
    {
      "inputs": [
        {
          "internalType": "uint256",
          "name": "",
          "type": "uint256"
        }
      ],
      "name": "conditions",
      "outputs": [
        {
          "internalType": "contract IERC20",
          "name": "collateralToken",
          "type": "address"
        },
        {
          "internalType": "bytes32",
          "name": "questionId",
          "type": "bytes32"
        },
        {
          "internalType": "bytes32",
          "name": "parentCollectionId",
          "type": "bytes32"
        },
        {
          "internalType": "bytes32",
          "name": "conditionId",
          "type": "bytes32"
        },
        {
          "internalType": "enum SolverLib.Status",
          "name": "status",
          "type": "uint8"
        }
      ],
      "stateMutability": "view",
      "type": "function"
    },
    {
      "inputs": [],
      "name": "config",
      "outputs": [
        {
          "internalType": "contract Solver",
          "name": "implementation",
          "type": "address"
        },
        {
          "internalType": "address",
          "name": "keeper",
          "type": "address"
        },
        {
          "internalType": "address",
          "name": "arbitrator",
          "type": "address"
        },
        {
          "internalType": "uint256",
          "name": "timelockSeconds",
          "type": "uint256"
        },
        {
          "internalType": "bytes",
          "name": "data",
          "type": "bytes"
        },
        {
          "components": [
            {
              "internalType": "contract IERC20",
              "name": "collateralToken",
              "type": "address"
            },
            {
              "internalType": "uint256",
              "name": "outcomeSlots",
              "type": "uint256"
            },
            {
              "internalType": "uint256",
              "name": "parentCollectionIndexSet",
              "type": "uint256"
            },
            {
              "internalType": "bytes32",
              "name": "amountSlot",
              "type": "bytes32"
            },
            {
              "internalType": "uint256[]",
              "name": "partition",
              "type": "uint256[]"
            },
            {
              "components": [
                {
                  "internalType": "bytes32",
                  "name": "recipientAddressSlot",
                  "type": "bytes32"
                },
                {
                  "internalType": "bytes32[]",
                  "name": "recipientAmountSlots",
                  "type": "bytes32[]"
                }
              ],
              "internalType": "struct SolverLib.Allocation[]",
              "name": "allocations",
              "type": "tuple[]"
            },
            {
              "components": [
                {
                  "internalType": "bytes32",
                  "name": "digest",
                  "type": "bytes32"
                },
                {
                  "internalType": "uint8",
                  "name": "hashFunction",
                  "type": "uint8"
                },
                {
                  "internalType": "uint8",
                  "name": "size",
                  "type": "uint8"
                }
              ],
              "internalType": "struct SolverLib.Multihash[]",
              "name": "outcomeURIs",
              "type": "tuple[]"
            }
          ],
          "internalType": "struct SolverLib.ConditionBase",
          "name": "conditionBase",
          "type": "tuple"
        }
      ],
      "stateMutability": "view",
      "type": "function"
    },
    {
      "inputs": [
        {
          "internalType": "uint256",
          "name": "_index",
          "type": "uint256"
        }
      ],
      "name": "confirmPayouts",
      "outputs": [],
      "stateMutability": "nonpayable",
      "type": "function"
    },
    {
      "inputs": [
        {
          "components": [
            {
              "internalType": "contract Solver",
              "name": "implementation",
              "type": "address"
            },
            {
              "internalType": "address",
              "name": "keeper",
              "type": "address"
            },
            {
              "internalType": "address",
              "name": "arbitrator",
              "type": "address"
            },
            {
              "internalType": "uint256",
              "name": "timelockSeconds",
              "type": "uint256"
            },
            {
              "internalType": "bytes",
              "name": "data",
              "type": "bytes"
            },
            {
              "components": [
                {
                  "internalType": "uint256",
                  "name": "executions",
                  "type": "uint256"
                },
                {
                  "internalType": "enum SolverLib.IngestType",
                  "name": "ingestType",
                  "type": "uint8"
                },
                {
                  "internalType": "bytes32",
                  "name": "slot",
                  "type": "bytes32"
                },
                {
                  "internalType": "uint256",
                  "name": "solverIndex",
                  "type": "uint256"
                },
                {
                  "internalType": "bytes",
                  "name": "data",
                  "type": "bytes"
                }
              ],
              "internalType": "struct SolverLib.Ingest[]",
              "name": "ingests",
              "type": "tuple[]"
            },
            {
              "components": [
                {
                  "internalType": "contract IERC20",
                  "name": "collateralToken",
                  "type": "address"
                },
                {
                  "internalType": "uint256",
                  "name": "outcomeSlots",
                  "type": "uint256"
                },
                {
                  "internalType": "uint256",
                  "name": "parentCollectionIndexSet",
                  "type": "uint256"
                },
                {
                  "internalType": "bytes32",
                  "name": "amountSlot",
                  "type": "bytes32"
                },
                {
                  "internalType": "uint256[]",
                  "name": "partition",
                  "type": "uint256[]"
                },
                {
                  "components": [
                    {
                      "internalType": "bytes32",
                      "name": "recipientAddressSlot",
                      "type": "bytes32"
                    },
                    {
                      "internalType": "bytes32[]",
                      "name": "recipientAmountSlots",
                      "type": "bytes32[]"
                    }
                  ],
                  "internalType": "struct SolverLib.Allocation[]",
                  "name": "allocations",
                  "type": "tuple[]"
                },
                {
                  "components": [
                    {
                      "internalType": "bytes32",
                      "name": "digest",
                      "type": "bytes32"
                    },
                    {
                      "internalType": "uint8",
                      "name": "hashFunction",
                      "type": "uint8"
                    },
                    {
                      "internalType": "uint8",
                      "name": "size",
                      "type": "uint8"
                    }
                  ],
                  "internalType": "struct SolverLib.Multihash[]",
                  "name": "outcomeURIs",
                  "type": "tuple[]"
                }
              ],
              "internalType": "struct SolverLib.ConditionBase",
              "name": "conditionBase",
              "type": "tuple"
            }
          ],
          "internalType": "struct SolverLib.Config",
          "name": "_config",
          "type": "tuple"
        }
      ],
      "name": "deployChild",
      "outputs": [
        {
          "internalType": "address",
          "name": "",
          "type": "address"
        }
      ],
      "stateMutability": "nonpayable",
      "type": "function"
    },
    {
      "inputs": [
        {
          "internalType": "uint256",
          "name": "_index",
          "type": "uint256"
        }
      ],
      "name": "executeSolve",
      "outputs": [],
      "stateMutability": "nonpayable",
      "type": "function"
    },
    {
      "inputs": [
        {
          "internalType": "bytes32",
          "name": "_slot",
          "type": "bytes32"
        }
      ],
      "name": "getAllData",
      "outputs": [
        {
          "internalType": "bytes[]",
          "name": "data",
          "type": "bytes[]"
        }
      ],
      "stateMutability": "view",
      "type": "function"
    },
    {
      "inputs": [
        {
          "internalType": "bytes32",
          "name": "_slot",
          "type": "bytes32"
        }
      ],
      "name": "getCallbackOutput",
      "outputs": [
        {
          "internalType": "bytes",
          "name": "data",
          "type": "bytes"
        }
      ],
      "stateMutability": "view",
      "type": "function"
    },
    {
      "inputs": [],
      "name": "getConditions",
      "outputs": [
        {
          "components": [
            {
              "internalType": "contract IERC20",
              "name": "collateralToken",
              "type": "address"
            },
            {
              "internalType": "bytes32",
              "name": "questionId",
              "type": "bytes32"
            },
            {
              "internalType": "bytes32",
              "name": "parentCollectionId",
              "type": "bytes32"
            },
            {
              "internalType": "bytes32",
              "name": "conditionId",
              "type": "bytes32"
            },
            {
              "internalType": "uint256[]",
              "name": "payouts",
              "type": "uint256[]"
            },
            {
              "internalType": "enum SolverLib.Status",
              "name": "status",
              "type": "uint8"
            }
          ],
          "internalType": "struct SolverLib.Condition[]",
          "name": "",
          "type": "tuple[]"
        }
      ],
      "stateMutability": "view",
      "type": "function"
    },
    {
      "inputs": [],
      "name": "getConfig",
      "outputs": [
        {
          "components": [
            {
              "internalType": "contract Solver",
              "name": "implementation",
              "type": "address"
            },
            {
              "internalType": "address",
              "name": "keeper",
              "type": "address"
            },
            {
              "internalType": "address",
              "name": "arbitrator",
              "type": "address"
            },
            {
              "internalType": "uint256",
              "name": "timelockSeconds",
              "type": "uint256"
            },
            {
              "internalType": "bytes",
              "name": "data",
              "type": "bytes"
            },
            {
              "components": [
                {
                  "internalType": "uint256",
                  "name": "executions",
                  "type": "uint256"
                },
                {
                  "internalType": "enum SolverLib.IngestType",
                  "name": "ingestType",
                  "type": "uint8"
                },
                {
                  "internalType": "bytes32",
                  "name": "slot",
                  "type": "bytes32"
                },
                {
                  "internalType": "uint256",
                  "name": "solverIndex",
                  "type": "uint256"
                },
                {
                  "internalType": "bytes",
                  "name": "data",
                  "type": "bytes"
                }
              ],
              "internalType": "struct SolverLib.Ingest[]",
              "name": "ingests",
              "type": "tuple[]"
            },
            {
              "components": [
                {
                  "internalType": "contract IERC20",
                  "name": "collateralToken",
                  "type": "address"
                },
                {
                  "internalType": "uint256",
                  "name": "outcomeSlots",
                  "type": "uint256"
                },
                {
                  "internalType": "uint256",
                  "name": "parentCollectionIndexSet",
                  "type": "uint256"
                },
                {
                  "internalType": "bytes32",
                  "name": "amountSlot",
                  "type": "bytes32"
                },
                {
                  "internalType": "uint256[]",
                  "name": "partition",
                  "type": "uint256[]"
                },
                {
                  "components": [
                    {
                      "internalType": "bytes32",
                      "name": "recipientAddressSlot",
                      "type": "bytes32"
                    },
                    {
                      "internalType": "bytes32[]",
                      "name": "recipientAmountSlots",
                      "type": "bytes32[]"
                    }
                  ],
                  "internalType": "struct SolverLib.Allocation[]",
                  "name": "allocations",
                  "type": "tuple[]"
                },
                {
                  "components": [
                    {
                      "internalType": "bytes32",
                      "name": "digest",
                      "type": "bytes32"
                    },
                    {
                      "internalType": "uint8",
                      "name": "hashFunction",
                      "type": "uint8"
                    },
                    {
                      "internalType": "uint8",
                      "name": "size",
                      "type": "uint8"
                    }
                  ],
                  "internalType": "struct SolverLib.Multihash[]",
                  "name": "outcomeURIs",
                  "type": "tuple[]"
                }
              ],
              "internalType": "struct SolverLib.ConditionBase",
              "name": "conditionBase",
              "type": "tuple"
            }
          ],
          "internalType": "struct SolverLib.Config",
          "name": "",
          "type": "tuple"
        }
      ],
      "stateMutability": "view",
      "type": "function"
    },
    {
      "inputs": [
        {
          "internalType": "bytes32",
          "name": "_slot",
          "type": "bytes32"
        }
      ],
      "name": "getData",
      "outputs": [
        {
          "internalType": "bytes",
          "name": "data",
          "type": "bytes"
        }
      ],
      "stateMutability": "view",
      "type": "function"
    },
    {
      "inputs": [
        {
          "internalType": "bytes32",
          "name": "slot",
          "type": "bytes32"
        }
      ],
      "name": "getOutgoingCallbacks",
      "outputs": [
        {
          "internalType": "address[]",
          "name": "",
          "type": "address[]"
        }
      ],
      "stateMutability": "view",
      "type": "function"
    },
    {
      "inputs": [
        {
          "internalType": "bytes32",
          "name": "_slot",
          "type": "bytes32"
        }
      ],
      "name": "handleCallback",
      "outputs": [],
      "stateMutability": "nonpayable",
      "type": "function"
    },
    {
      "inputs": [],
      "name": "ingestsValid",
      "outputs": [
        {
          "internalType": "bool",
          "name": "",
          "type": "bool"
        }
      ],
      "stateMutability": "view",
      "type": "function"
    },
    {
      "inputs": [
        {
          "internalType": "address",
          "name": "_deployer",
          "type": "address"
        },
        {
          "internalType": "address",
          "name": "_ctfAddress",
          "type": "address"
        },
        {
          "internalType": "address",
          "name": "_chainParent",
          "type": "address"
        },
        {
          "internalType": "uint256",
          "name": "_chainIndex",
          "type": "uint256"
        },
        {
          "components": [
            {
              "internalType": "contract Solver",
              "name": "implementation",
              "type": "address"
            },
            {
              "internalType": "address",
              "name": "keeper",
              "type": "address"
            },
            {
              "internalType": "address",
              "name": "arbitrator",
              "type": "address"
            },
            {
              "internalType": "uint256",
              "name": "timelockSeconds",
              "type": "uint256"
            },
            {
              "internalType": "bytes",
              "name": "data",
              "type": "bytes"
            },
            {
              "components": [
                {
                  "internalType": "uint256",
                  "name": "executions",
                  "type": "uint256"
                },
                {
                  "internalType": "enum SolverLib.IngestType",
                  "name": "ingestType",
                  "type": "uint8"
                },
                {
                  "internalType": "bytes32",
                  "name": "slot",
                  "type": "bytes32"
                },
                {
                  "internalType": "uint256",
                  "name": "solverIndex",
                  "type": "uint256"
                },
                {
                  "internalType": "bytes",
                  "name": "data",
                  "type": "bytes"
                }
              ],
              "internalType": "struct SolverLib.Ingest[]",
              "name": "ingests",
              "type": "tuple[]"
            },
            {
              "components": [
                {
                  "internalType": "contract IERC20",
                  "name": "collateralToken",
                  "type": "address"
                },
                {
                  "internalType": "uint256",
                  "name": "outcomeSlots",
                  "type": "uint256"
                },
                {
                  "internalType": "uint256",
                  "name": "parentCollectionIndexSet",
                  "type": "uint256"
                },
                {
                  "internalType": "bytes32",
                  "name": "amountSlot",
                  "type": "bytes32"
                },
                {
                  "internalType": "uint256[]",
                  "name": "partition",
                  "type": "uint256[]"
                },
                {
                  "components": [
                    {
                      "internalType": "bytes32",
                      "name": "recipientAddressSlot",
                      "type": "bytes32"
                    },
                    {
                      "internalType": "bytes32[]",
                      "name": "recipientAmountSlots",
                      "type": "bytes32[]"
                    }
                  ],
                  "internalType": "struct SolverLib.Allocation[]",
                  "name": "allocations",
                  "type": "tuple[]"
                },
                {
                  "components": [
                    {
                      "internalType": "bytes32",
                      "name": "digest",
                      "type": "bytes32"
                    },
                    {
                      "internalType": "uint8",
                      "name": "hashFunction",
                      "type": "uint8"
                    },
                    {
                      "internalType": "uint8",
                      "name": "size",
                      "type": "uint8"
                    }
                  ],
                  "internalType": "struct SolverLib.Multihash[]",
                  "name": "outcomeURIs",
                  "type": "tuple[]"
                }
              ],
              "internalType": "struct SolverLib.ConditionBase",
              "name": "conditionBase",
              "type": "tuple"
            }
          ],
          "internalType": "struct SolverLib.Config",
          "name": "_solverConfig",
          "type": "tuple"
        }
      ],
      "name": "init",
      "outputs": [],
      "stateMutability": "nonpayable",
      "type": "function"
    },
    {
      "inputs": [
        {
          "internalType": "address",
          "name": "operator",
          "type": "address"
        },
        {
          "internalType": "address",
          "name": "from",
          "type": "address"
        },
        {
          "internalType": "uint256[]",
          "name": "ids",
          "type": "uint256[]"
        },
        {
          "internalType": "uint256[]",
          "name": "values",
          "type": "uint256[]"
        },
        {
          "internalType": "bytes",
          "name": "data",
          "type": "bytes"
        }
      ],
      "name": "onERC1155BatchReceived",
      "outputs": [
        {
          "internalType": "bytes4",
          "name": "",
          "type": "bytes4"
        }
      ],
      "stateMutability": "nonpayable",
      "type": "function"
    },
    {
      "inputs": [
        {
          "internalType": "address",
          "name": "operator",
          "type": "address"
        },
        {
          "internalType": "address",
          "name": "from",
          "type": "address"
        },
        {
          "internalType": "uint256",
          "name": "id",
          "type": "uint256"
        },
        {
          "internalType": "uint256",
          "name": "value",
          "type": "uint256"
        },
        {
          "internalType": "bytes",
          "name": "data",
          "type": "bytes"
        }
      ],
      "name": "onERC1155Received",
      "outputs": [
        {
          "internalType": "bytes4",
          "name": "",
          "type": "bytes4"
        }
      ],
      "stateMutability": "nonpayable",
      "type": "function"
    },
    {
      "inputs": [
        {
          "internalType": "uint256",
          "name": "_index",
          "type": "uint256"
        }
      ],
      "name": "prepareSolve",
      "outputs": [],
      "stateMutability": "nonpayable",
      "type": "function"
    },
    {
      "inputs": [
        {
          "internalType": "uint256",
          "name": "_index",
          "type": "uint256"
        },
        {
          "internalType": "uint256[]",
          "name": "_payouts",
          "type": "uint256[]"
        }
      ],
      "name": "proposePayouts",
      "outputs": [],
      "stateMutability": "nonpayable",
      "type": "function"
    },
    {
      "inputs": [
        {
          "internalType": "contract IERC20",
          "name": "_collateralToken",
          "type": "address"
        },
        {
          "internalType": "bytes32",
          "name": "_parentCollectionId",
          "type": "bytes32"
        },
        {
          "internalType": "bytes32",
          "name": "_conditionId",
          "type": "bytes32"
        },
        {
          "internalType": "uint256[]",
          "name": "_indexSets",
          "type": "uint256[]"
        }
      ],
      "name": "redeemPosition",
      "outputs": [],
      "stateMutability": "nonpayable",
      "type": "function"
    },
    {
      "inputs": [
        {
          "internalType": "bytes32",
          "name": "_slot",
          "type": "bytes32"
        },
        {
          "internalType": "uint256",
          "name": "_chainIndex",
          "type": "uint256"
        }
      ],
      "name": "registerOutgoingCallback",
      "outputs": [],
      "stateMutability": "nonpayable",
      "type": "function"
    },
    {
      "inputs": [
        {
          "internalType": "bytes32",
          "name": "_trackingId",
          "type": "bytes32"
        }
      ],
      "name": "setTrackingId",
      "outputs": [],
      "stateMutability": "nonpayable",
      "type": "function"
    },
    {
      "inputs": [
        {
          "internalType": "bytes4",
          "name": "interfaceId",
          "type": "bytes4"
        }
      ],
      "name": "supportsInterface",
      "outputs": [
        {
          "internalType": "bool",
          "name": "",
          "type": "bool"
        }
      ],
      "stateMutability": "view",
      "type": "function"
    },
    {
      "inputs": [
        {
          "internalType": "uint256",
          "name": "",
          "type": "uint256"
        }
      ],
      "name": "timelocks",
      "outputs": [
        {
          "internalType": "uint256",
          "name": "",
          "type": "uint256"
        }
      ],
      "stateMutability": "view",
      "type": "function"
    },
    {
      "inputs": [],
      "name": "trackingId",
      "outputs": [
        {
          "internalType": "bytes32",
          "name": "",
          "type": "bytes32"
        }
      ],
      "stateMutability": "view",
      "type": "function"
    },
    {
      "inputs": [],
      "name": "uiCID",
      "outputs": [
        {
          "internalType": "bytes32",
          "name": "digest",
          "type": "bytes32"
        },
        {
          "internalType": "uint8",
          "name": "hashFunction",
          "type": "uint8"
        },
        {
          "internalType": "uint8",
          "name": "size",
          "type": "uint8"
        }
      ],
      "stateMutability": "view",
      "type": "function"
    }
  ],
  "bytecode": "0x608060405234801561001057600080fd5b506156d780620000216000396000f3fe608060405234801561001057600080fd5b50600436106101b75760003560e01c806301ffc9a7146101bc57806307c068b6146101e55780630944e26e146101fa578063098b37f71461021a5780630d06101a1461023a5780630d7e149f1461024d5780630d8d39751461026d578063187825591461028057806326c50007146102935780633837b05e146102b75780633f4fb5aa146102ca57806344c3b607146102ea57806348cbb2fc146102fd5780634a77234e146103055780634dab5e69146103185780634e46f2231461032b57806354f6127f1461033e57806355dd978b146103515780636cc6cde1146103595780637423846f1461036157806379502c55146103785780637c1236271461039257806380b204b7146103a757806380c2dde2146103ba5780638602ce1b146103c257806387dfee57146103d55780638bc3a08f146103e857806399992506146103fb578063b992db0f14610403578063bc197c8114610416578063c08d6f0114610436578063c3f909d414610456578063c98c05b71461046b578063de3a23c514610473578063df33cc5114610486578063ea8221a914610499578063f23a6e61146104a1575b600080fd5b6101cf6101ca3660046135f7565b6104b4565b6040516101dc919061436f565b60405180910390f35b6101f86101f3366004613528565b6104e1565b005b61020d6102083660046137b6565b61062a565b6040516101dc9190613edb565b61022d610228366004613528565b610747565b6040516101dc9190614111565b6101f8610248366004613528565b6107b3565b61026061025b366004613528565b6107ef565b6040516101dc919061437a565b6101f861027b366004613528565b610810565b6101f861028e366004613691565b61097a565b6102a66102a1366004613528565b610a14565b6040516101dc95949392919061440b565b61020d6102c5366004613528565b610a62565b6102dd6102d8366004613528565b610b90565b6040516101dc91906143bf565b6101cf6102f8366004613528565b610c8c565b610260610d1c565b6101f8610313366004613528565b610d22565b6101f8610326366004613528565b610ffb565b6101f8610339366004613528565b6110d5565b6102dd61034c366004613528565b6111af565b61020d6111cf565b61020d6111de565b6103696111ed565b6040516101dc93929190614391565b610380611202565b6040516101dc9695949392919061443d565b61039a61148d565b6040516101dc91906141be565b6101f86103b53660046137f0565b6115bc565b61020d611723565b6101f86103d0366004613558565b611732565b6101f86103e3366004613839565b611807565b6101f86103f6366004613359565b6119c0565b6101cf611b61565b6101f8610411366004613528565b611bf5565b6104296104243660046133d5565b611dd5565b6040516101dc91906143aa565b610449610444366004613528565b611de9565b6040516101dc919061415e565b61045e611ece565b6040516101dc9190614974565b6102606122e7565b6101f8610481366004613528565b612368565b6101f86104943660046135d6565b6126d9565b6102606127e4565b6104296104af36600461348f565b6127ea565b60006001600160e01b03198216630271189760e51b14806104d957506104d9826127fd565b90505b919050565b6007546001600160a01b031633146105145760405162461bcd60e51b815260040161050b9061476d565b60405180910390fd5b60036012828154811061053757634e487b7160e01b600052603260045260246000fd5b600091825260209091206006918202016005015460ff169081111561056c57634e487b7160e01b600052602160045260246000fd5b146105895760405162461bcd60e51b815260040161050b906146c2565b73__$94d7d2f22770e4b0d1a2b99fb2812308e2$__63ec7ac2f0601283815481106105c457634e487b7160e01b600052603260045260246000fd5b90600052602060002090600602016040518263ffffffff1660e01b81526004016105ee919061437a565b60006040518083038186803b15801561060657600080fd5b505af415801561061a573d6000803e3d6000fd5b5050505061062781612816565b50565b6006546000906001600160a01b031633146106575760405162461bcd60e51b815260040161050b906148b3565b6014546001600160a01b0316156106805760405162461bcd60e51b815260040161050b90614518565b6000546015546017546040516386a2d22760e01b815273__$94d7d2f22770e4b0d1a2b99fb2812308e2$__936386a2d227936106d293620100009092046001600160a01b03169288929060040161401b565b60206040518083038186803b1580156106ea57600080fd5b505af41580156106fe573d6000803e3d6000fd5b505050506040513d601f19601f82011682018060405250810190610722919061333d565b601480546001600160a01b0319166001600160a01b0392831617908190551692915050565b6000818152601a60209081526040918290208054835181840281018401909452808452606093928301828280156107a757602002820191906000526020600020905b81546001600160a01b03168152600190910190602001808311610789575b50505050509050919050565b601754156107d35760405162461bcd60e51b815260040161050b90614904565b6002546001600160a01b031633146107ea57600080fd5b601755565b601681815481106107ff57600080fd5b600091825260209091200154905081565b6016818154811061083157634e487b7160e01b600052603260045260246000fd5b9060005260206000200154421161085a5760405162461bcd60e51b815260040161050b9061463e565b60026012828154811061087d57634e487b7160e01b600052603260045260246000fd5b600091825260209091206006918202016005015460ff16908111156108b257634e487b7160e01b600052602160045260246000fd5b146108cf5760405162461bcd60e51b815260040161050b906147be565b6001546012805473__$94d7d2f22770e4b0d1a2b99fb2812308e2$__926385c92867926001600160a01b03909116918590811061091c57634e487b7160e01b600052603260045260246000fd5b90600052602060002090600602016040518363ffffffff1660e01b8152600401610947929190613fa5565b60006040518083038186803b15801561095f57600080fd5b505af4158015610973573d6000803e3d6000fd5b5050505050565b6006546001600160a01b031633146109a45760405162461bcd60e51b815260040161050b90614619565b600154604051626dc0df60e21b81526001600160a01b03909116906301b7037c906109db90889088908890889088906004016143d2565b600060405180830381600087803b1580156109f557600080fd5b505af1158015610a09573d6000803e3d6000fd5b505050505050505050565b60128181548110610a2457600080fd5b6000918252602090912060069091020180546001820154600283015460038401546005909401546001600160a01b0390931694509092909160ff1685565b6000601554821415610a755750306104dc565b601554821015610b0657601354604051631c1bd82f60e11b81526001600160a01b0390911690633837b05e90610aaf90859060040161437a565b60206040518083038186803b158015610ac757600080fd5b505afa158015610adb573d6000803e3d6000fd5b505050506040513d601f19601f82011682018060405250810190610aff919061333d565b90506104dc565b6015548211156104dc57601454604051631c1bd82f60e11b81526001600160a01b0390911690633837b05e90610b4090859060040161437a565b60206040518083038186803b158015610b5857600080fd5b505afa158015610b6c573d6000803e3d6000fd5b505050506040513d601f19601f820116820180604052508101906104d9919061333d565b6012546000828152601c602052604090205460609114610bc25760405162461bcd60e51b815260040161050b90614742565b6000828152601c602052604090208054610bde90600190614dde565b81548110610bfc57634e487b7160e01b600052603260045260246000fd5b906000526020600020018054610c1190615102565b80601f0160208091040260200160405190810160405280929190818152602001828054610c3d90615102565b80156107a75780601f10610c5f576101008083540402835291602001916107a7565b820191906000526020600020905b815481529060010190602001808311610c6d5750939695505050505050565b6040516336d39c6160e11b815260009073__$94d7d2f22770e4b0d1a2b99fb2812308e2$__90636da738c290610ccc908590601c90600b90600401614a4e565b60206040518083038186803b158015610ce457600080fd5b505af4158015610cf8573d6000803e3d6000fd5b505050506040513d601f19601f820116820180604052508101906104d99190613508565b60175481565b60125415610d69576006546001600160a01b0316331480610d4d57506013546001600160a01b031633145b610d695760405162461bcd60e51b815260040161050b906148d8565b6012548114610d8a5760405162461bcd60e51b815260040161050b906145e7565b60195415610daa5760405162461bcd60e51b815260040161050b90614819565b60185415610dca5760405162461bcd60e51b815260040161050b9061484e565b6001546013546012805460405163699e0add60e01b8152919373__$94d7d2f22770e4b0d1a2b99fb2812308e2$__9363699e0add93610e1c936001600160a01b0393841693600b931691600401613eef565b60006040518083038186803b158015610e3457600080fd5b505af4158015610e48573d6000803e3d6000fd5b505050506040513d6000823e601f3d908101601f19168201604052610e7091908101906136f8565b8154600180820184556000938452602093849020835160069093020180546001600160a01b0319166001600160a01b03909316929092178255828401519082015560408201516002820155606082015160038201556080820151805192939192610ee09260048501920190613072565b5060a082015160058201805460ff19166001836006811115610f1257634e487b7160e01b600052602160045260246000fd5b0217905550506016805460018101825560009182527fd833147d7dc355ba459fc788f669e58cfaf9dc25ddcd0702e87d69c7b5124289015550610f5361285e565b7f152ec8ae15d347b2d2a8f0858caa29bcaaa0906749a1f43e08bfe799834602403082604051610f84929190613fa5565b60405180910390a16014546001600160a01b0316156106275760145460405163253b91a760e11b81526001600160a01b0390911690634a77234e90610fcd90849060040161437a565b600060405180830381600087803b158015610fe757600080fd5b505af1158015610973573d6000803e3d6000fd5b6007546001600160a01b031633146110255760405162461bcd60e51b815260040161050b9061476d565b60026012828154811061104857634e487b7160e01b600052603260045260246000fd5b600091825260209091206006918202016005015460ff169081111561107d57634e487b7160e01b600052602160045260246000fd5b1461109a5760405162461bcd60e51b815260040161050b906147ec565b73__$94d7d2f22770e4b0d1a2b99fb2812308e2$__6324b28602601283815481106105c457634e487b7160e01b600052603260045260246000fd5b6007546001600160a01b031633146110ff5760405162461bcd60e51b815260040161050b9061476d565b60046012828154811061112257634e487b7160e01b600052603260045260246000fd5b600091825260209091206006918202016005015460ff169081111561115757634e487b7160e01b600052602160045260246000fd5b146111745760405162461bcd60e51b815260040161050b90614883565b73__$94d7d2f22770e4b0d1a2b99fb2812308e2$__6359111fb5601283815481106105c457634e487b7160e01b600052603260045260246000fd5b6000818152601c60205260409020805460609190610bde90600190614dde565b6014546001600160a01b031681565b6007546001600160a01b031690565b60035460045460ff8082169161010090041683565b60058054600654600754600854600980546001600160a01b03958616969486169590931693919261123290615102565b80601f016020809104026020016040519081016040528092919081815260200182805461125e90615102565b80156112ab5780601f10611280576101008083540402835291602001916112ab565b820191906000526020600020905b81548152906001019060200180831161128e57829003601f168201915b50506040805160e0810182526006870180546001600160a01b03168252600788015460208084019190915260088901548385015260098901546060840152600a8901805485518184028101840190965280865298999893975091955060808701945090919083018282801561133f57602002820191906000526020600020905b81548152602001906001019080831161132b575b5050505050815260200160058201805480602002602001604051908101604052809291908181526020016000905b82821015611401578382906000526020600020906002020160405180604001604052908160008201548152602001600182018054806020026020016040519081016040528092919081815260200182805480156113e957602002820191906000526020600020905b8154815260200190600101908083116113d5575b5050505050815250508152602001906001019061136d565b50505050815260200160068201805480602002602001604051908101604052809291908181526020016000905b8282101561148057600084815260209081902060408051606081018252600286029092018054835260019081015460ff808216858701526101009091041691830191909152908352909201910161142e565b5050505081525050905086565b60606012805480602002602001604051908101604052809291908181526020016000905b828210156115b35760008481526020908190206040805160c0810182526006860290920180546001600160a01b03168352600181015483850152600281015483830152600381015460608401526004810180548351818702810187019094528084529394919360808601939283018282801561154c57602002820191906000526020600020905b815481526020019060010190808311611538575b5050509183525050600582015460209091019060ff16600681111561158157634e487b7160e01b600052602160045260246000fd5b60068111156115a057634e487b7160e01b600052602160045260246000fd5b81525050815260200190600101906114b1565b50505050905090565b6006546001600160a01b031633146115e65760405162461bcd60e51b815260040161050b90614619565b600c5481146116075760405162461bcd60e51b815260040161050b90614542565b60016012848154811061162a57634e487b7160e01b600052603260045260246000fd5b600091825260209091206006918202016005015460ff169081111561165f57634e487b7160e01b600052602160045260246000fd5b1461167c5760405162461bcd60e51b815260040161050b90614588565b73__$94d7d2f22770e4b0d1a2b99fb2812308e2$__636a0a24f1601285815481106116b757634e487b7160e01b600052603260045260246000fd5b906000526020600020906006020184846040518463ffffffff1660e01b81526004016116e59392919061495a565b60006040518083038186803b1580156116fd57600080fd5b505af4158015611711573d6000803e3d6000fd5b5050505061171e83612816565b505050565b6013546001600160a01b031681565b6006546001600160a01b0316331461175c5760405162461bcd60e51b815260040161050b906144c7565b6000828152601d6020526040902054600a805460039290811061178f57634e487b7160e01b600052603260045260246000fd5b600091825260209091206001600590920201015460ff1660038111156117c557634e487b7160e01b600052602160045260246000fd5b146117e25760405162461bcd60e51b815260040161050b90614497565b6117ec8282612b25565b60405160008051602061568283398151915290600090a15050565b6007546001600160a01b031633146118315760405162461bcd60e51b815260040161050b9061476d565b60046012838154811061185457634e487b7160e01b600052603260045260246000fd5b600091825260209091206006918202016005015460ff169081111561188957634e487b7160e01b600052602160045260246000fd5b146118a65760405162461bcd60e51b815260040161050b90614883565b601682815481106118c757634e487b7160e01b600052603260045260246000fd5b906000526020600020015442116118f05760405162461bcd60e51b815260040161050b9061463e565b600c548151146119125760405162461bcd60e51b815260040161050b90614542565b6001546012805473__$94d7d2f22770e4b0d1a2b99fb2812308e2$__92631b948e49926001600160a01b03909116918690811061195f57634e487b7160e01b600052603260045260246000fd5b9060005260206000209060060201846040518463ffffffff1660e01b815260040161198c93929190613fbe565b60006040518083038186803b1580156119a457600080fd5b505af41580156119b8573d6000803e3d6000fd5b505050505050565b600054610100900460ff16806119d9575060005460ff16155b6119f55760405162461bcd60e51b815260040161050b906146f4565b600054610100900460ff16158015611a20576000805460ff1961ff0019909116610100171660011790555b6000611a32604084016020850161331a565b6001600160a01b03161415611a595760405162461bcd60e51b815260040161050b90614796565b600280546001600160a01b03199081166001600160a01b03898116919091179092556000805462010000600160b01b031916336201000002179055600180548216888416179055601380549091169186169190911790556015839055816005611ac28282615353565b90505060005b611ad560a0840184614aaa565b9050811015611b475780601d6000611af060a0870187614aaa565b85818110611b0e57634e487b7160e01b600052603260045260246000fd5b9050602002810190611b209190614b7e565b60409081013582526020820192909252016000205580611b3f8161514a565b915050611ac8565b5080156119b8576000805461ff0019169055505050505050565b601254604051635cc1f6b560e01b815260009173__$94d7d2f22770e4b0d1a2b99fb2812308e2$__91635cc1f6b591611ba091600a9190600401614264565b60206040518083038186803b158015611bb857600080fd5b505af4158015611bcc573d6000803e3d6000fd5b505050506040513d601f19601f82011682018060405250810190611bf09190613508565b905090565b611bfd611b61565b1515600114611c1e5760405162461bcd60e51b815260040161050b9061466d565b73__$94d7d2f22770e4b0d1a2b99fb2812308e2$__632dd4082482600160009054906101000a90046001600160a01b031660128581548110611c7057634e487b7160e01b600052603260045260246000fd5b60009182526020808320601754601354600e548652601c9384905260409095208054600690950290920194600b9491926001600160a01b03909116918b908110611cca57634e487b7160e01b600052603260045260246000fd5b906000526020600020018054611cdf90615102565b80601f0160208091040260200160405190810160405280929190818152602001828054611d0b90615102565b8015611d585780601f10611d2d57610100808354040283529160200191611d58565b820191906000526020600020905b815481529060010190602001808311611d3b57829003601f168201915b5050505050806020019051810190611d709190613540565b6040518963ffffffff1660e01b8152600401611d93989796959493929190614a0a565b60006040518083038186803b158015611dab57600080fd5b505af4158015611dbf573d6000803e3d6000fd5b50505050611dcc81610627565b61062781612b9c565b63bc197c8160e01b98975050505050505050565b6000818152601c60209081526040808320805482518185028101850190935280835260609492939192909184015b82821015611ec3578382906000526020600020018054611e3690615102565b80601f0160208091040260200160405190810160405280929190818152602001828054611e6290615102565b8015611eaf5780601f10611e8457610100808354040283529160200191611eaf565b820191906000526020600020905b815481529060010190602001808311611e9257829003601f168201915b505050505081526020019060010190611e17565b505050509050919050565b611ed66130bd565b6040805160e081018252600580546001600160a01b039081168352600654811660208401526007541692820192909252600854606082015260098054919291608084019190611f2490615102565b80601f0160208091040260200160405190810160405280929190818152602001828054611f5090615102565b8015611f9d5780601f10611f7257610100808354040283529160200191611f9d565b820191906000526020600020905b815481529060010190602001808311611f8057829003601f168201915b5050505050815260200160058201805480602002602001604051908101604052809291908181526020016000905b8282101561210257838290600052602060002090600502016040518060a0016040529081600082015481526020016001820160009054906101000a900460ff16600381111561202a57634e487b7160e01b600052602160045260246000fd5b600381111561204957634e487b7160e01b600052602160045260246000fd5b8152602001600282015481526020016003820154815260200160048201805461207190615102565b80601f016020809104026020016040519081016040528092919081815260200182805461209d90615102565b80156120ea5780601f106120bf576101008083540402835291602001916120ea565b820191906000526020600020905b8154815290600101906020018083116120cd57829003601f168201915b50505050508152505081526020019060010190611fcb565b505050908252506040805160e0810182526006840180546001600160a01b03168252600785015460208381019190915260088601548385015260098601546060840152600a86018054855181840281018401909652808652958201959394929360808601939283018282801561219757602002820191906000526020600020905b815481526020019060010190808311612183575b5050505050815260200160058201805480602002602001604051908101604052809291908181526020016000905b828210156122595783829060005260206000209060020201604051806040016040529081600082015481526020016001820180548060200260200160405190810160405280929190818152602001828054801561224157602002820191906000526020600020905b81548152602001906001019080831161222d575b505050505081525050815260200190600101906121c5565b50505050815260200160068201805480602002602001604051908101604052809291908181526020016000905b828210156122d857600084815260209081902060408051606081018252600286029092018054835260019081015460ff8082168587015261010090910416918301919091529083529092019101612286565b50505091525050905250905090565b600b546040516370a0823160e01b81526000916001600160a01b0316906370a0823190612318903090600401613edb565b60206040518083038186803b15801561233057600080fd5b505afa158015612344573d6000803e3d6000fd5b505050506040513d601f19601f82011682018060405250810190611bf09190613540565b6000338260405160200161237d929190613ebe565b60408051601f1981840301815291815281516020928301206000818152601b909352912054600a80549293506123e39290919081106123cc57634e487b7160e01b600052603260045260246000fd5b906000526020600020906005020160030154610a62565b6001600160a01b0316336001600160a01b0316146124135760405162461bcd60e51b815260040161050b906145b8565b6000818152601b6020526040812054600a8054909190811061244557634e487b7160e01b600052603260045260246000fd5b600091825260209091206001600590920201015460ff16600381111561247b57634e487b7160e01b600052602160045260246000fd5b146124985760405162461bcd60e51b815260040161050b906144eb565b6000818152601b6020526040902054600a805490919081106124ca57634e487b7160e01b600052603260045260246000fd5b6000918252602082206005909102018054916124e58361514a565b90915550506000818152601b6020526040902054600a805461269a9290811061251e57634e487b7160e01b600052603260045260246000fd5b906000526020600020906005020160020154336001600160a01b0316633f4fb5aa6005800160186003016000878152602001908152602001600020548154811061257857634e487b7160e01b600052603260045260246000fd5b9060005260206000209060050201600401805461259490615102565b80601f01602080910402602001604051908101604052809291908181526020018280546125c090615102565b801561260d5780601f106125e25761010080835404028352916020019161260d565b820191906000526020600020905b8154815290600101906020018083116125f057829003601f168201915b50505050508060200190518101906126259190613540565b6040518263ffffffff1660e01b8152600401612641919061437a565b60006040518083038186803b15801561265957600080fd5b505afa15801561266d573d6000803e3d6000fd5b505050506040513d6000823e601f3d908101601f19168201604052612695919081019061361f565b612b25565b6000818152601b6020526040812081905560188054916126b9836150eb565b909155505060405160008051602061568283398151915290600090a15050565b6126e281610a62565b6001600160a01b0316336001600160a01b0316146127125760405162461bcd60e51b815260040161050b906145b8565b6000828152601c60205260409020541580159061273e57506012546000838152601c6020526040902054145b1561279d5760405163de3a23c560e01b8152339063de3a23c59061276690859060040161437a565b600060405180830381600087803b15801561278057600080fd5b505af1158015612794573d6000803e3d6000fd5b505050506127e0565b6000828152601a60209081526040822080546001810182559083529082200180546001600160a01b0319163317905560198054916127da8361514a565b91905055505b5050565b60155481565b63f23a6e6160e01b5b9695505050505050565b6001600160e01b031981166301ffc9a760e01b14919050565b600854612824906001614dbf565b61282e9042614da7565b6016828154811061284f57634e487b7160e01b600052603260045260246000fd5b60009182526020909120015550565b60005b600a54811015612b0b576000600a80548390811061288f57634e487b7160e01b600052603260045260246000fd5b600091825260209091206001600590920201015460ff1660038111156128c557634e487b7160e01b600052602160045260246000fd5b14612908576129036005800182815481106128f057634e487b7160e01b600052603260045260246000fd5b9060005260206000209060050201612cf3565b612af9565b6000306001600160a01b0316633837b05e60058001848154811061293c57634e487b7160e01b600052603260045260246000fd5b9060005260206000209060050201600301546040518263ffffffff1660e01b815260040161296a919061437a565b60206040518083038186803b15801561298257600080fd5b505afa158015612996573d6000803e3d6000fd5b505050506040513d601f19601f820116820180604052508101906129ba919061333d565b90506129c68183612de7565b806001600160a01b031663df33cc516005800184815481106129f857634e487b7160e01b600052603260045260246000fd5b90600052602060002090600502016004018054612a1490615102565b80601f0160208091040260200160405190810160405280929190818152602001828054612a4090615102565b8015612a8d5780601f10612a6257610100808354040283529160200191612a8d565b820191906000526020600020905b815481529060010190602001808311612a7057829003601f168201915b5050505050806020019051810190612aa59190613540565b6015546040518363ffffffff1660e01b8152600401612ac5929190614383565b600060405180830381600087803b158015612adf57600080fd5b505af1158015612af3573d6000803e3d6000fd5b50505050505b80612b038161514a565b915050612861565b5060405160008051602061568283398151915290600090a1565b601254612b3490600190614dde565b6000838152601c602052604090205414612b605760405162461bcd60e51b815260040161050b9061492c565b6000828152601c6020908152604082208054600181018255908352918190208351612b9293919091019184019061311a565b506127e082612f0a565b6014546001600160a01b031615801590612c375750601460009054906101000a90046001600160a01b03166001600160a01b031663999925066040518163ffffffff1660e01b815260040160206040518083038186803b158015612bff57600080fd5b505afa158015612c13573d6000803e3d6000fd5b505050506040513d601f19601f82011682018060405250810190612c379190613508565b8015612cbe57506014546040516344c3b60760e01b81526001600160a01b03909116906344c3b60790612c6e90849060040161437a565b60206040518083038186803b158015612c8657600080fd5b505afa158015612c9a573d6000803e3d6000fd5b505050506040513d601f19601f82011682018060405250810190612cbe9190613508565b156106275760145460405163b992db0f60e01b81526001600160a01b039091169063b992db0f90610fcd90849060040161437a565b600181015460039060ff1681811115612d1c57634e487b7160e01b600052602160045260246000fd5b1115612d3a5760405162461bcd60e51b815260040161050b90614696565b8054816000612d488361514a565b9091555060039050600182015460ff166003811115612d7757634e487b7160e01b600052602160045260246000fd5b1461062757610627816002015473__$94d7d2f22770e4b0d1a2b99fb2812308e2$__63b3d73707846040518263ffffffff1660e01b8152600401612dbb919061437a565b60006040518083038186803b158015612dd357600080fd5b505af415801561266d573d6000803e3d6000fd5b806018600301600084600580018581548110612e1357634e487b7160e01b600052603260045260246000fd5b90600052602060002090600502016004018054612e2f90615102565b80601f0160208091040260200160405190810160405280929190818152602001828054612e5b90615102565b8015612ea85780601f10612e7d57610100808354040283529160200191612ea8565b820191906000526020600020905b815481529060010190602001808311612e8b57829003601f168201915b5050505050806020019051810190612ec09190613540565b604051602001612ed1929190613ebe565b60408051601f1981840301815291815281516020928301208352908201929092520160009081209190915560188054916127da8361514a565b60005b6000828152601a60205260409020548110156127e0576000828152601a60205260408120805483908110612f5157634e487b7160e01b600052603260045260246000fd5b6000918252602090912001546001600160a01b031614613060576000828152601a60205260409020805482908110612f9957634e487b7160e01b600052603260045260246000fd5b60009182526020909120015460405163de3a23c560e01b81526001600160a01b039091169063de3a23c590612fd290859060040161437a565b600060405180830381600087803b158015612fec57600080fd5b505af1158015613000573d6000803e3d6000fd5b5050506000838152601a6020526040902080549091508290811061303457634e487b7160e01b600052603260045260246000fd5b6000918252602082200180546001600160a01b0319169055601980549161305a836150eb565b91905055505b8061306a8161514a565b915050612f0d565b8280548282559060005260206000209081019282156130ad579160200282015b828111156130ad578251825591602001919060010190613092565b506130b992915061318d565b5090565b6040518060e0016040528060006001600160a01b0316815260200160006001600160a01b0316815260200160006001600160a01b031681526020016000815260200160608152602001606081526020016131156131a2565b905290565b82805461312690615102565b90600052602060002090601f01602090048101928261314857600085556130ad565b82601f1061316157805160ff19168380011785556130ad565b828001600101855582156130ad57918201828111156130ad578251825591602001919060010190613092565b5b808211156130b9576000815560010161318e565b6040518060e0016040528060006001600160a01b031681526020016000815260200160008152602001600080191681526020016060815260200160608152602001606081525090565b80356104dc81615650565b60008083601f840112613207578182fd5b5081356001600160401b0381111561321d578182fd5b602083019150836020808302850101111561323757600080fd5b9250929050565b600082601f83011261324e578081fd5b8151602061326361325e83614bbc565b614b93565b828152818101908583018385028701840188101561327f578586fd5b855b8581101561329d57815184529284019290840190600101613281565b5090979650505050505050565b60008083601f8401126132bb578182fd5b5081356001600160401b038111156132d1578182fd5b60208301915083602082850101111561323757600080fd5b80516104dc81615650565b8051600781106104dc57600080fd5b600060e08284031215613314578081fd5b50919050565b60006020828403121561332b578081fd5b813561333681615650565b9392505050565b60006020828403121561334e578081fd5b815161333681615650565b600080600080600060a08688031215613370578081fd5b853561337b81615650565b9450602086013561338b81615650565b9350604086013561339b81615650565b92506060860135915060808601356001600160401b038111156133bc578182fd5b6133c888828901613303565b9150509295509295909350565b60008060008060008060008060a0898b0312156133f0578586fd5b88356133fb81615650565b9750602089013561340b81615650565b965060408901356001600160401b0380821115613426578788fd5b6134328c838d016131f6565b909850965060608b013591508082111561344a578485fd5b6134568c838d016131f6565b909650945060808b013591508082111561346e578384fd5b5061347b8b828c016132aa565b999c989b5096995094979396929594505050565b60008060008060008060a087890312156134a7578384fd5b86356134b281615650565b955060208701356134c281615650565b9450604087013593506060870135925060808701356001600160401b038111156134ea578283fd5b6134f689828a016132aa565b979a9699509497509295939492505050565b600060208284031215613519578081fd5b81518015158114613336578182fd5b600060208284031215613539578081fd5b5035919050565b600060208284031215613551578081fd5b5051919050565b6000806040838503121561356a578182fd5b8235915060208301356001600160401b03811115613586578182fd5b8301601f81018513613596578182fd5b80356135a461325e82614bdf565b8181528660208385010111156135b8578384fd5b81602084016020830137908101602001929092525090939092509050565b600080604083850312156135e8578182fd5b50508035926020909101359150565b600060208284031215613608578081fd5b81356001600160e01b031981168114613336578182fd5b600060208284031215613630578081fd5b81516001600160401b03811115613645578182fd5b8201601f81018413613655578182fd5b805161366361325e82614bdf565b818152856020838501011115613677578384fd5b6136888260208301602086016150bb565b95945050505050565b6000806000806000608086880312156136a8578283fd5b85356136b381615650565b9450602086013593506040860135925060608601356001600160401b038111156136db578182fd5b6136e7888289016131f6565b969995985093965092949392505050565b600060208284031215613709578081fd5b81516001600160401b038082111561371f578283fd5b9083019060c08286031215613732578283fd5b60405160c08101818110838211171561374d5761374d6151a7565b604052613759836132e9565b815260208301516020820152604083015160408201526060830151606082015260808301518281111561378a578485fd5b6137968782860161323e565b6080830152506137a860a084016132f4565b60a082015295945050505050565b6000602082840312156137c7578081fd5b81356001600160401b038111156137dc578182fd5b6137e884828501613303565b949350505050565b600080600060408486031215613804578081fd5b8335925060208401356001600160401b03811115613820578182fd5b61382c868287016131f6565b9497909650939450505050565b6000806040838503121561384b578182fd5b823591506020808401356001600160401b03811115613868578283fd5b8401601f81018613613878578283fd5b803561388661325e82614bbc565b81815283810190838501858402850186018a10156138a2578687fd5b8694505b838510156138c45780358352600194909401939185019185016138a6565b5080955050505050509250929050565b6001600160a01b03169052565b81835260006001600160fb1b038311156138f9578081fd5b6020830280836020870137939093016020019283525090919050565b6000815480845260208085018081965082840281019150858552828520855b858110156139a057828403895281548452604085850181905260018084018054928701839052895286892060608701929091908a905b80821015613987578354855293890193928201929082019061396a565b5050509986019950935060029190910190600101613934565b5091979650505050505050565b818352602080840193600091908185020181018584845b878110156139a05782840389528135609e198836030181126139e4578687fd5b87018035855260a0868201356139f981615665565b613a0588880182613c89565b5060408281013590870152606080830135908701526080613a2881840184614d45565b93508282890152613a3c8389018583613c33565b9c89019c975050509286019250506001016139c4565b6000815180845260208085018081965082840281019150828601855b858110156139a0578284038952815160a08151865286820151613a9388880182613c89565b506040828101519087015260608083015190870152608091820151918601819052613ac081870183613c5d565b9a87019a9550505090840190600101613a6e565b60008284526020808501945082825b85811015613b2d578135875282820135613afc81615672565b60ff9081168885015260409083820135613b1581615672565b16908801526060968701969190910190600101613ae3565b509495945050505050565b6000815180845260208085019450808401835b83811015613b2d578151805188528381015160ff908116858a0152604091820151169088015260609096019590820190600101613b4b565b6000815480845260208085019450838352808320835b83811015613b2d578154875260018083015460ff808216868b015260089190911c16604089015260609097019660029092019101613b99565b6000815180845260208085019450808401835b83811015613b2d57815187529582019590820190600101613be5565b6000815480845260208085019450838352808320835b83811015613b2d57815487529582019560019182019101613c17565b60008284528282602086013780602084860101526020601f19601f85011685010190509392505050565b60008151808452613c758160208601602086016150bb565b601f01601f19169290920160200192915050565b60048110613c9957613c99615191565b9052565b60078110613c9957613c99615191565b60008135613cba81615650565b6001600160a01b03168352602082810135818501526040808401358186015260608085013590860152613cf06080850185614cb7565b60e06080880152613d0560e0880182846138e1565b915050613d1560a0860186614cb7565b87830360a08901528083528483018582028401860183885b84811015613d8c57868303601f19018452813536879003603e19018112613d52578a8bfd5b860180358452613d648a820182614cb7565b9150898b860152613d788a860183836138e1565b958b01959450505090880190600101613d2d565b5050613d9b60c08a018a614cfe565b9750955089810360c08b0152613db2818888613ad4565b9a9950505050505050505050565b600060018060a01b038251168352602080830151818501526040808401518186015260608085015181870152608085015160e06080880152613e0560e0880182613bd2565b905060a086015187820360a08901528181518084528684019150868782028501018784019350885b82811015613e9557858203601f190184528451805183528901518983018990528051898401819052908a01908b90898501905b80831015613e805783518252928c019260019290920191908c0190613e60565b50968b0196958b019593505050600101613e2d565b5060c08a015197508a810360c08c0152613eaf8189613b38565b9b9a5050505050505050505050565b60609290921b6001600160601b0319168252601482015260340190565b6001600160a01b0391909116815260200190565b600060018060a01b038616825260806020830152613f1960808301613f148754614df5565b6138d4565b600185015460a0830152600285015460c0830152600385015460e083015260e0610100830152613f50610160830160048701613c01565b607f198084830301610120850152613f6b8260058901613915565b9150808483030161014085015250613f868160068801613b83565b915050613f9660408301856138d4565b82606083015295945050505050565b6001600160a01b03929092168252602082015260400190565b6001600160a01b038416815260208082018490526060604083018190528351908301819052600091848101916080850190845b8181101561400d57845183529383019391830191600101613ff1565b509098975050505050505050565b6001600160a01b0385168152608060208201526000843561403b81615650565b61404860808401826138d4565b50614055602086016131eb565b61406260a08401826138d4565b5061406f604086016131eb565b61407c60c08401826138d4565b50606085013560e08301526140946080860186614d45565b60e06101008501526140ab61016085018284613c33565b9150506140bb60a0870187614cb7565b607f1980868503016101208701526140d48483856139ad565b93506140e360c08a018a614d89565b9250808685030161014087015250506140fc8282613cad565b60408501969096525050506060015292915050565b6020808252825182820181905260009190848201906040850190845b818110156141525783516001600160a01b03168352928401929184019160010161412d565b50909695505050505050565b6000602080830181845280855180835260408601915060408482028701019250838701855b828110156141b157603f1988860301845261419f858351613c5d565b94509285019290850190600101614183565b5092979650505050505050565b60208082528251828201819052600091906040908185019080840286018301878501865b8381101561400d57888303603f19018552815180516001600160a01b03168452878101518885015286810151878501526060808201519085015260808082015160c0828701819052919061423883880182613bd2565b9250505060a080830151925061425081870184613c9d565b5095880195935050908601906001016141e2565b60006040820160408352808554808352606092508285019150602083818302870101888652818620865b8481101561435d57605f1989840301865260a082548452600160ff81850154166142ba87870182613c89565b5060028401546040860152600384015489860152600484018260808701528a81546142e481615102565b94880185905260c0948185168015614303576001811461431757614342565b60ff1983168a88015260e08a019350614342565b848f528a8f208f5b8381101561433a5781548c82018a0152908701908c0161431f565b8b0188019450505b5050509887019895505050600592909201915060010161428e565b50509501959095525091949350505050565b901515815260200190565b90815260200190565b918252602082015260400190565b92835260ff918216602084015216604082015260600190565b6001600160e01b031991909116815260200190565b6000602082526133366020830184613c5d565b600060018060a01b0387168252856020830152846040830152608060608301526144006080830184866138e1565b979650505050505050565b6001600160a01b038616815260208101859052604081018490526060810183905260a081016127f36080830184613c9d565b6001600160a01b0387811682528681166020830152851660408201526060810184905260c06080820181905260009061447890830185613c5d565b82810360a084015261448a8185613dc0565b9998505050505050505050565b6020808252601690820152751bdb9b1e48125b99d95cdd151e5c194b93585b9d585b60521b604082015260600190565b6020808252600a908201526927b7363ca5b2b2b832b960b11b604082015260600190565b602080825260139082015272496e67657374206e6f742043616c6c6261636b60681b604082015260600190565b60208082526010908201526f14dbdb1d995c881a185cc818da1a5b1960821b604082015260600190565b60208082526026908201527f7061796f7574732e6c656e677468206d757374206d61746368206f7574636f6d60408201526565536c6f747360d01b606082015260800190565b60208082526016908201527510dbdb991a5d1a5bdb881b9bdd08115e1958dd5d195960521b604082015260600190565b60208082526015908201527436b9b39739b2b73232b9103737ba1039b7b63b32b960591b604082015260600190565b602080825260189082015277496e76616c696420696e64657820746f207072657061726560401b604082015260600190565b6020808252600b908201526a27b7363c9025b2b2b832b960a91b604082015260600190565b602080825260159082015274151a5b595b1bd8dac81cdd1a5b1b081b1bd8dad959605a1b604082015260600190565b6020808252600f908201526e1a5b99d95cdd1cc81a5b9d985b1a59608a1b604082015260600190565b602080825260129082015271496e76616c696420696e676573745479706560701b604082015260600190565b602080825260189082015277139bdd08105c989a5d1c985d1a5bdb94995c5d595cdd195960421b604082015260600190565b6020808252602e908201527f496e697469616c697a61626c653a20636f6e747261637420697320616c72656160408201526d191e481a5b9a5d1a585b1a5e995960921b606082015260800190565b60208082526011908201527029b637ba1034b73b30b634b2103b32b91760791b604082015260600190565b6020808252600f908201526e27b7363c9030b93134ba3930ba37b960891b604082015260600190565b6020808252600e908201526d12d9595c195c881a5b9d985b1a5960921b604082015260600190565b60208082526014908201527313dd5d18dbdb59481b9bdd081c1c9bdc1bdcd95960621b604082015260600190565b602080825260139082015272139bdd0813dd5d18dbdb59541c9bdc1bdcd959606a1b604082015260600190565b6020808252818101527f46756c66696c6c206f7574676f696e672063616c6c6261636b73206669727374604082015260600190565b6020808252818101527f46756c66696c6c20696e636f6d696e672063616c6c6261636b73206669727374604082015260600190565b6020808252601690820152754e6f74204172626974726174696f6e50656e64696e6760501b604082015260600190565b6020808252600b908201526a27b7363c9035b2b2b832b960a91b604082015260600190565b60208082526012908201527113db9b1e481ad9595c195c8bdc185c995b9d60721b604082015260600190565b6020808252600e908201526d151c9858dada5b99d259081cd95d60921b604082015260600190565b60208082526014908201527314db1bdd081d995c9cda5bdb881a5b9d985b1a5960621b604082015260600190565b6000848252604060208301526136886040830184866138e1565b60006020825260018060a01b038084511660208401528060208501511660408401525060408301516149a960608401826138d4565b5060608301516080830152608083015160e060a08401526149ce610100840182613c5d565b905060a0840151601f19808584030160c08601526149ec8383613a52565b925060c08601519150808584030160e0860152506136888282613dc0565b9788526001600160a01b03968716602089015260408801959095526060870193909352608086019190915260a085015290911660c083015260e08201526101000190565b9283526020830191909152604082015260600190565b6000808335601e19843603018112614a7a578283fd5b8301803591506001600160401b03821115614a93578283fd5b602090810192508102360382131561323757600080fd5b6000808335601e19843603018112614a7a578182fd5b6000808335601e19843603018112614ad6578182fd5b8301803591506001600160401b03821115614aef578283fd5b602001915060608102360382131561323757600080fd5b6000808335601e19843603018112614b1c578182fd5b8301803591506001600160401b03821115614b35578283fd5b60200191503681900382131561323757600080fd5b60008235603e19833603018112614b5f578182fd5b9190910192915050565b6000823560de19833603018112614b5f578182fd5b60008235609e19833603018112614b5f578182fd5b6040518181016001600160401b0381118282101715614bb457614bb46151a7565b604052919050565b60006001600160401b03821115614bd557614bd56151a7565b5060209081020190565b60006001600160401b03821115614bf857614bf86151a7565b50601f01601f191660200190565b60009081526020902090565b602084108015614c6857601f841160018114614c3957614c328685615137565b8355614c62565b614c4283614c06565b614c576020601f880104820160018301614e01565b50614c628684615218565b50610973565b8160005260206000206020601f8701048101601f87168015614c9257614c928160001984016151bd565b50614ca56020601f880104830182614e01565b50506001856002021782555050505050565b6000808335601e19843603018112614ccd578283fd5b83016020810192503590506001600160401b03811115614cec57600080fd5b60208102360383131561323757600080fd5b6000808335601e19843603018112614d14578283fd5b83016020810192503590506001600160401b03811115614d3357600080fd5b60608102360383131561323757600080fd5b6000808335601e19843603018112614d5b578283fd5b83016020810192503590506001600160401b03811115614d7a57600080fd5b80360383131561323757600080fd5b6000823560de19833603018112614d9e578182fd5b90910192915050565b60008219821115614dba57614dba61517b565b500190565b6000816000190483118215151615614dd957614dd961517b565b500290565b600082821015614df057614df061517b565b500390565b6001600160a01b031690565b5b818110156127e05760008155600101614e02565b600160401b831115614e2a57614e2a6151a7565b805483825580841015614eaf576001600160ff1b036001818311811615614e5357614e5361517b565b6002828711821615614e6757614e6761517b565b600085815260208120909350878202810190828602015b80821015614ea957614e9285868454615236565b8255614ea0858584016151d1565b90820190614e7e565b50505050505b5081614eba82614c06565b6000805b86811015614ef057614eda614ed38588614b4a565b838561552d565b6020939093019260029290920191600101614ebe565b50505050505050565b600160401b831115614f0d57614f0d6151a7565b805483825580841015614f8c576001600160ff1b036001818311811615614f3657614f3661517b565b6002828711821615614f4a57614f4a61517b565b600085815260208120909350878202810190828602015b80821015614f8657614f7585868454615236565b825584848301558282019150614f61565b50505050505b5081614f9782614c06565b6000805b86811015614ef057614fae8483856155f5565b6060939093019260029290920191600101614f9b565b6001600160401b03831115614fdb57614fdb6151a7565b614fe58154615102565b600080601f8611601f8411818117156150045761500186614c06565b92505b8015615033576020601f8901048301602089101561501f5750825b6150316020601f880104850182614e01565b505b50806001811461505f5760009450871561504e578387013594505b6150588886615137565b86556150b1565b601f198816945082845b868110156150895788860135825560209586019560019092019101615069565b50888610156150a657878501356000196008601f8c16021c191681555b506001600289020186555b5050505050505050565b60005b838110156150d65781810151838201526020016150be565b838111156150e5576000848401525b50505050565b6000816150fa576150fa61517b565b506000190190565b60028104600182168061511657607f821691505b6020821081141561331457634e487b7160e01b600052602260045260246000fd5b600019600883021c191660029091021790565b600060001982141561515e5761515e61517b565b5060010190565b634e487b7160e01b600052600060045260246000fd5b634e487b7160e01b600052601160045260246000fd5b634e487b7160e01b600052602160045260246000fd5b634e487b7160e01b600052604160045260246000fd5b8054600019836020036008021c1681555050565b600160401b8211156151e5576151e56151a7565b80548282558083101561171e576000828152602081208481019083015b808210156119b857828255600182019150615202565b80600052602060002061522c838254615137565b9091556000905550565b60089190910291821b60001990921b9182169119161790565b80546001600160a01b0319166001600160a01b0392909216919091179055565b813561527a81615650565b615284818361524f565b506001602080840135828401556040840135600284015560608401356003840155600483016152b66080860186614a64565b600160401b8111156152ca576152ca6151a7565b8254818455808210156152ef5783600052846000206152ed828201848301614e01565b505b506000928352838320925b818110156153155782358455928501929184019185016152fa565b50505050505061532860a0830183614a64565b615336818360058601614e16565b505061534560c0830183614ac0565b6150e5818360068601614ef9565b813561535e81615650565b615368818361524f565b50600160208084013561537a81615650565b6153868184860161524f565b506002604085013561539781615650565b6153a38183870161524f565b50600360608601358186015560046153be6080880188614b06565b6153cb8183858b01614fc4565b505060058087016153df60a08a018a614a64565b600160401b8111156153f3576153f36151a7565b8254818455808210156154c7577f33333333333333333333333333333333333333333333333333333333333333338082118b16156154335761543361517b565b8083118b16156154455761544561517b565b506000848152898120838702810190878402015b808210156154c35761546d83848454615236565b8255828d8301558a820161548384858354615236565b81555089820161549584858354615236565b905581890180546154a581615102565b80156154b7576154b786828486614c12565b50505090870190615459565b5050505b508196506154d483614c06565b9550600094508492505b8083101561550b576154fa6154f38884614b7e565b8688615581565b9587019594830194918801916154de565b5050505050505050506127e061552460c0840184614b69565b6006830161526f565b811561553b5761553b615165565b823581556001808201602061555281870187614a64565b61555c81856151d1565b6000938452828420935b81811015610a09578235855593850193918301918501615566565b811561558f5761558f615165565b823581556001810160208401356155a581615665565b600481106155b5576155b5615191565b60ff1982541660ff82168117835550505060408301356002820155606083013560038201556155e76080840184614b06565b610973818360048601614fc4565b811561560357615603615165565b8235815560018101602084013561561981615672565b815460ff191660ff9190911617808255604085013561563781615672565b61ff008160081b1661ff00198316178355505050505050565b6001600160a01b038116811461062757600080fd5b6004811061062757600080fd5b60ff8116811461062757600080fdfe71bd81ebe1d98a2944767394e76a9aff18724b2cf04e1db71254f804544b35c7a2646970667358221220ce7a626571d0e48da786db09aef8dfc7482f2f2fed70241b7a797099f0a007bd64736f6c63430008000033",
  "linkReferences": {
    "contracts/SolverLib.sol": {
      "SolverLib": [
        {
          "length": 20,
          "start": 1452
        },
        {
          "length": 20,
          "start": 1721
        },
        {
          "length": 20,
          "start": 2297
        },
        {
          "length": 20,
          "start": 3263
        },
        {
          "length": 20,
          "start": 3590
        },
        {
          "length": 20,
          "start": 4285
        },
        {
          "length": 20,
          "start": 4503
        },
        {
          "length": 20,
          "start": 5791
        },
        {
          "length": 20,
          "start": 6460
        },
        {
          "length": 20,
          "start": 7063
        },
        {
          "length": 20,
          "start": 7233
        },
        {
          "length": 20,
          "start": 11687
        }
      ]
    }
  },
  "deployedLinkReferences": {
    "contracts/SolverLib.sol": {
      "SolverLib": [
        {
          "length": 20,
          "start": 1419
        },
        {
          "length": 20,
          "start": 1688
        },
        {
          "length": 20,
          "start": 2264
        },
        {
          "length": 20,
          "start": 3230
        },
        {
          "length": 20,
          "start": 3557
        },
        {
          "length": 20,
          "start": 4252
        },
        {
          "length": 20,
          "start": 4470
        },
        {
          "length": 20,
          "start": 5758
        },
        {
          "length": 20,
          "start": 6427
        },
        {
          "length": 20,
          "start": 7030
        },
        {
          "length": 20,
          "start": 7200
        },
        {
          "length": 20,
          "start": 11654
        }
      ]
    }
  }
}