{
  "_format": "hh-sol-artifact-1",
  "contractName": "BasicSolverV1",
  "sourceName": "contracts/BasicSolverV1.sol",
  "abi": [
    {
      "anonymous": false,
      "inputs": [
        {
          "indexed": false,
          "internalType": "address",
          "name": "chainChild",
          "type": "address"
        }
      ],
      "name": "DeployedChild",
      "type": "event"
    },
    {
      "anonymous": false,
      "inputs": [],
      "name": "IngestedData",
      "type": "event"
    },
    {
      "anonymous": false,
      "inputs": [
        {
          "indexed": false,
          "internalType": "address",
          "name": "solver",
          "type": "address"
        },
        {
          "indexed": false,
          "internalType": "uint256",
          "name": "solveIndex",
          "type": "uint256"
        }
      ],
      "name": "PreparedSolve",
      "type": "event"
    },
    {
      "inputs": [
        {
          "internalType": "bytes32",
          "name": "_slot",
          "type": "bytes32"
        },
        {
          "internalType": "bytes",
          "name": "_data",
          "type": "bytes"
        }
      ],
      "name": "addData",
      "outputs": [],
      "stateMutability": "nonpayable",
      "type": "function"
    },
    {
      "inputs": [
        {
          "internalType": "uint256",
          "name": "_index",
          "type": "uint256"
        }
      ],
      "name": "addressFromChainIndex",
      "outputs": [
        {
          "internalType": "address",
          "name": "_address",
          "type": "address"
        }
      ],
      "stateMutability": "view",
      "type": "function"
    },
    {
      "inputs": [
        {
          "internalType": "uint256",
          "name": "_index",
          "type": "uint256"
        }
      ],
      "name": "allocationsValid",
      "outputs": [
        {
          "internalType": "bool",
          "name": "",
          "type": "bool"
        }
      ],
      "stateMutability": "view",
      "type": "function"
    },
    {
      "inputs": [
        {
          "internalType": "uint256",
          "name": "_index",
          "type": "uint256"
        },
        {
          "internalType": "uint256[]",
          "name": "payouts",
          "type": "uint256[]"
        }
      ],
      "name": "arbitrate",
      "outputs": [],
      "stateMutability": "nonpayable",
      "type": "function"
    },
    {
      "inputs": [
        {
          "internalType": "uint256",
          "name": "_index",
          "type": "uint256"
        }
      ],
      "name": "arbitrateNull",
      "outputs": [],
      "stateMutability": "nonpayable",
      "type": "function"
    },
    {
      "inputs": [
        {
          "internalType": "uint256",
          "name": "_index",
          "type": "uint256"
        }
      ],
      "name": "arbitrationPending",
      "outputs": [],
      "stateMutability": "nonpayable",
      "type": "function"
    },
    {
      "inputs": [
        {
          "internalType": "uint256",
          "name": "_index",
          "type": "uint256"
        }
      ],
      "name": "arbitrationRequested",
      "outputs": [],
      "stateMutability": "nonpayable",
      "type": "function"
    },
    {
      "inputs": [],
      "name": "chainChild",
      "outputs": [
        {
          "internalType": "address",
          "name": "",
          "type": "address"
        }
      ],
      "stateMutability": "view",
      "type": "function"
    },
    {
      "inputs": [],
      "name": "chainIndex",
      "outputs": [
        {
          "internalType": "uint256",
          "name": "",
          "type": "uint256"
        }
      ],
      "stateMutability": "view",
      "type": "function"
    },
    {
      "inputs": [],
      "name": "chainParent",
      "outputs": [
        {
          "internalType": "address",
          "name": "",
          "type": "address"
        }
      ],
      "stateMutability": "view",
      "type": "function"
    },
    {
      "inputs": [],
      "name": "collateralBalance",
      "outputs": [
        {
          "internalType": "uint256",
          "name": "balance",
          "type": "uint256"
        }
      ],
      "stateMutability": "view",
      "type": "function"
    },
    {
      "inputs": [
        {
          "internalType": "uint256",
          "name": "",
          "type": "uint256"
        }
      ],
      "name": "conditions",
      "outputs": [
        {
          "internalType": "contract IERC20",
          "name": "collateralToken",
          "type": "address"
        },
        {
          "internalType": "bytes32",
          "name": "questionId",
          "type": "bytes32"
        },
        {
          "internalType": "bytes32",
          "name": "parentCollectionId",
          "type": "bytes32"
        },
        {
          "internalType": "bytes32",
          "name": "conditionId",
          "type": "bytes32"
        },
        {
          "internalType": "enum SolverLib.Status",
          "name": "status",
          "type": "uint8"
        }
      ],
      "stateMutability": "view",
      "type": "function"
    },
    {
      "inputs": [],
      "name": "config",
      "outputs": [
        {
          "internalType": "contract Solver",
          "name": "implementation",
          "type": "address"
        },
        {
          "internalType": "address",
          "name": "keeper",
          "type": "address"
        },
        {
          "internalType": "address",
          "name": "arbitrator",
          "type": "address"
        },
        {
          "internalType": "uint256",
          "name": "timelockSeconds",
          "type": "uint256"
        },
        {
          "internalType": "bytes",
          "name": "data",
          "type": "bytes"
        },
        {
          "components": [
            {
              "internalType": "contract IERC20",
              "name": "collateralToken",
              "type": "address"
            },
            {
              "internalType": "uint256",
              "name": "outcomeSlots",
              "type": "uint256"
            },
            {
              "internalType": "uint256",
              "name": "parentCollectionIndexSet",
              "type": "uint256"
            },
            {
              "internalType": "bytes32",
              "name": "amountSlot",
              "type": "bytes32"
            },
            {
              "internalType": "uint256[]",
              "name": "partition",
              "type": "uint256[]"
            },
            {
              "components": [
                {
                  "internalType": "bytes32",
                  "name": "recipientAddressSlot",
                  "type": "bytes32"
                },
                {
                  "internalType": "bytes32[]",
                  "name": "recipientAmountSlots",
                  "type": "bytes32[]"
                }
              ],
              "internalType": "struct SolverLib.Allocation[]",
              "name": "allocations",
              "type": "tuple[]"
            },
            {
              "components": [
                {
                  "internalType": "bytes32",
                  "name": "digest",
                  "type": "bytes32"
                },
                {
                  "internalType": "uint8",
                  "name": "hashFunction",
                  "type": "uint8"
                },
                {
                  "internalType": "uint8",
                  "name": "size",
                  "type": "uint8"
                }
              ],
              "internalType": "struct SolverLib.Multihash[]",
              "name": "outcomeURIs",
              "type": "tuple[]"
            }
          ],
          "internalType": "struct SolverLib.ConditionBase",
          "name": "conditionBase",
          "type": "tuple"
        }
      ],
      "stateMutability": "view",
      "type": "function"
    },
    {
      "inputs": [
        {
          "internalType": "uint256",
          "name": "_index",
          "type": "uint256"
        }
      ],
      "name": "confirmPayouts",
      "outputs": [],
      "stateMutability": "nonpayable",
      "type": "function"
    },
    {
      "inputs": [
        {
          "components": [
            {
              "internalType": "contract Solver",
              "name": "implementation",
              "type": "address"
            },
            {
              "internalType": "address",
              "name": "keeper",
              "type": "address"
            },
            {
              "internalType": "address",
              "name": "arbitrator",
              "type": "address"
            },
            {
              "internalType": "uint256",
              "name": "timelockSeconds",
              "type": "uint256"
            },
            {
              "internalType": "bytes",
              "name": "data",
              "type": "bytes"
            },
            {
              "components": [
                {
                  "internalType": "uint256",
                  "name": "executions",
                  "type": "uint256"
                },
                {
                  "internalType": "enum SolverLib.IngestType",
                  "name": "ingestType",
                  "type": "uint8"
                },
                {
                  "internalType": "bytes32",
                  "name": "slot",
                  "type": "bytes32"
                },
                {
                  "internalType": "uint256",
                  "name": "solverIndex",
                  "type": "uint256"
                },
                {
                  "internalType": "bytes",
                  "name": "data",
                  "type": "bytes"
                }
              ],
              "internalType": "struct SolverLib.Ingest[]",
              "name": "ingests",
              "type": "tuple[]"
            },
            {
              "components": [
                {
                  "internalType": "contract IERC20",
                  "name": "collateralToken",
                  "type": "address"
                },
                {
                  "internalType": "uint256",
                  "name": "outcomeSlots",
                  "type": "uint256"
                },
                {
                  "internalType": "uint256",
                  "name": "parentCollectionIndexSet",
                  "type": "uint256"
                },
                {
                  "internalType": "bytes32",
                  "name": "amountSlot",
                  "type": "bytes32"
                },
                {
                  "internalType": "uint256[]",
                  "name": "partition",
                  "type": "uint256[]"
                },
                {
                  "components": [
                    {
                      "internalType": "bytes32",
                      "name": "recipientAddressSlot",
                      "type": "bytes32"
                    },
                    {
                      "internalType": "bytes32[]",
                      "name": "recipientAmountSlots",
                      "type": "bytes32[]"
                    }
                  ],
                  "internalType": "struct SolverLib.Allocation[]",
                  "name": "allocations",
                  "type": "tuple[]"
                },
                {
                  "components": [
                    {
                      "internalType": "bytes32",
                      "name": "digest",
                      "type": "bytes32"
                    },
                    {
                      "internalType": "uint8",
                      "name": "hashFunction",
                      "type": "uint8"
                    },
                    {
                      "internalType": "uint8",
                      "name": "size",
                      "type": "uint8"
                    }
                  ],
                  "internalType": "struct SolverLib.Multihash[]",
                  "name": "outcomeURIs",
                  "type": "tuple[]"
                }
              ],
              "internalType": "struct SolverLib.ConditionBase",
              "name": "conditionBase",
              "type": "tuple"
            }
          ],
          "internalType": "struct SolverLib.Config",
          "name": "_config",
          "type": "tuple"
        }
      ],
      "name": "deployChild",
      "outputs": [
        {
          "internalType": "contract Solver",
          "name": "_solver",
          "type": "address"
        }
      ],
      "stateMutability": "nonpayable",
      "type": "function"
    },
    {
      "inputs": [
        {
          "internalType": "uint256",
          "name": "_index",
          "type": "uint256"
        }
      ],
      "name": "executeSolve",
      "outputs": [],
      "stateMutability": "nonpayable",
      "type": "function"
    },
    {
      "inputs": [
        {
          "internalType": "bytes32",
          "name": "_slot",
          "type": "bytes32"
        }
      ],
      "name": "getCallbackOutput",
      "outputs": [
        {
          "internalType": "bytes",
          "name": "data",
          "type": "bytes"
        }
      ],
      "stateMutability": "view",
      "type": "function"
    },
    {
      "inputs": [],
      "name": "getConditions",
      "outputs": [
        {
          "components": [
            {
              "internalType": "contract IERC20",
              "name": "collateralToken",
              "type": "address"
            },
            {
              "internalType": "bytes32",
              "name": "questionId",
              "type": "bytes32"
            },
            {
              "internalType": "bytes32",
              "name": "parentCollectionId",
              "type": "bytes32"
            },
            {
              "internalType": "bytes32",
              "name": "conditionId",
              "type": "bytes32"
            },
            {
              "internalType": "uint256[]",
              "name": "payouts",
              "type": "uint256[]"
            },
            {
              "internalType": "enum SolverLib.Status",
              "name": "status",
              "type": "uint8"
            }
          ],
          "internalType": "struct SolverLib.Condition[]",
          "name": "",
          "type": "tuple[]"
        }
      ],
      "stateMutability": "view",
      "type": "function"
    },
    {
      "inputs": [],
      "name": "getConfig",
      "outputs": [
        {
          "components": [
            {
              "internalType": "contract Solver",
              "name": "implementation",
              "type": "address"
            },
            {
              "internalType": "address",
              "name": "keeper",
              "type": "address"
            },
            {
              "internalType": "address",
              "name": "arbitrator",
              "type": "address"
            },
            {
              "internalType": "uint256",
              "name": "timelockSeconds",
              "type": "uint256"
            },
            {
              "internalType": "bytes",
              "name": "data",
              "type": "bytes"
            },
            {
              "components": [
                {
                  "internalType": "uint256",
                  "name": "executions",
                  "type": "uint256"
                },
                {
                  "internalType": "enum SolverLib.IngestType",
                  "name": "ingestType",
                  "type": "uint8"
                },
                {
                  "internalType": "bytes32",
                  "name": "slot",
                  "type": "bytes32"
                },
                {
                  "internalType": "uint256",
                  "name": "solverIndex",
                  "type": "uint256"
                },
                {
                  "internalType": "bytes",
                  "name": "data",
                  "type": "bytes"
                }
              ],
              "internalType": "struct SolverLib.Ingest[]",
              "name": "ingests",
              "type": "tuple[]"
            },
            {
              "components": [
                {
                  "internalType": "contract IERC20",
                  "name": "collateralToken",
                  "type": "address"
                },
                {
                  "internalType": "uint256",
                  "name": "outcomeSlots",
                  "type": "uint256"
                },
                {
                  "internalType": "uint256",
                  "name": "parentCollectionIndexSet",
                  "type": "uint256"
                },
                {
                  "internalType": "bytes32",
                  "name": "amountSlot",
                  "type": "bytes32"
                },
                {
                  "internalType": "uint256[]",
                  "name": "partition",
                  "type": "uint256[]"
                },
                {
                  "components": [
                    {
                      "internalType": "bytes32",
                      "name": "recipientAddressSlot",
                      "type": "bytes32"
                    },
                    {
                      "internalType": "bytes32[]",
                      "name": "recipientAmountSlots",
                      "type": "bytes32[]"
                    }
                  ],
                  "internalType": "struct SolverLib.Allocation[]",
                  "name": "allocations",
                  "type": "tuple[]"
                },
                {
                  "components": [
                    {
                      "internalType": "bytes32",
                      "name": "digest",
                      "type": "bytes32"
                    },
                    {
                      "internalType": "uint8",
                      "name": "hashFunction",
                      "type": "uint8"
                    },
                    {
                      "internalType": "uint8",
                      "name": "size",
                      "type": "uint8"
                    }
                  ],
                  "internalType": "struct SolverLib.Multihash[]",
                  "name": "outcomeURIs",
                  "type": "tuple[]"
                }
              ],
              "internalType": "struct SolverLib.ConditionBase",
              "name": "conditionBase",
              "type": "tuple"
            }
          ],
          "internalType": "struct SolverLib.Config",
          "name": "",
          "type": "tuple"
        }
      ],
      "stateMutability": "view",
      "type": "function"
    },
    {
      "inputs": [
        {
          "internalType": "bytes32",
          "name": "_slot",
          "type": "bytes32"
        }
      ],
      "name": "getData",
      "outputs": [
        {
          "internalType": "bytes",
          "name": "data",
          "type": "bytes"
        }
      ],
      "stateMutability": "view",
      "type": "function"
    },
    {
      "inputs": [
        {
          "internalType": "bytes32",
          "name": "slot",
          "type": "bytes32"
        }
      ],
      "name": "getOutgoingCallbacks",
      "outputs": [
        {
          "internalType": "address[]",
          "name": "",
          "type": "address[]"
        }
      ],
      "stateMutability": "view",
      "type": "function"
    },
    {
      "inputs": [
        {
          "internalType": "bytes32",
          "name": "_slot",
          "type": "bytes32"
        }
      ],
      "name": "handleCallback",
      "outputs": [],
      "stateMutability": "nonpayable",
      "type": "function"
    },
    {
      "inputs": [],
      "name": "ingestsValid",
      "outputs": [
        {
          "internalType": "bool",
          "name": "",
          "type": "bool"
        }
      ],
      "stateMutability": "view",
      "type": "function"
    },
    {
      "inputs": [
        {
          "internalType": "address",
          "name": "_deployer",
          "type": "address"
        },
        {
          "internalType": "address",
          "name": "_ctfAddress",
          "type": "address"
        },
        {
          "internalType": "address",
          "name": "_chainParent",
          "type": "address"
        },
        {
          "internalType": "uint256",
          "name": "_chainIndex",
          "type": "uint256"
        },
        {
          "components": [
            {
              "internalType": "contract Solver",
              "name": "implementation",
              "type": "address"
            },
            {
              "internalType": "address",
              "name": "keeper",
              "type": "address"
            },
            {
              "internalType": "address",
              "name": "arbitrator",
              "type": "address"
            },
            {
              "internalType": "uint256",
              "name": "timelockSeconds",
              "type": "uint256"
            },
            {
              "internalType": "bytes",
              "name": "data",
              "type": "bytes"
            },
            {
              "components": [
                {
                  "internalType": "uint256",
                  "name": "executions",
                  "type": "uint256"
                },
                {
                  "internalType": "enum SolverLib.IngestType",
                  "name": "ingestType",
                  "type": "uint8"
                },
                {
                  "internalType": "bytes32",
                  "name": "slot",
                  "type": "bytes32"
                },
                {
                  "internalType": "uint256",
                  "name": "solverIndex",
                  "type": "uint256"
                },
                {
                  "internalType": "bytes",
                  "name": "data",
                  "type": "bytes"
                }
              ],
              "internalType": "struct SolverLib.Ingest[]",
              "name": "ingests",
              "type": "tuple[]"
            },
            {
              "components": [
                {
                  "internalType": "contract IERC20",
                  "name": "collateralToken",
                  "type": "address"
                },
                {
                  "internalType": "uint256",
                  "name": "outcomeSlots",
                  "type": "uint256"
                },
                {
                  "internalType": "uint256",
                  "name": "parentCollectionIndexSet",
                  "type": "uint256"
                },
                {
                  "internalType": "bytes32",
                  "name": "amountSlot",
                  "type": "bytes32"
                },
                {
                  "internalType": "uint256[]",
                  "name": "partition",
                  "type": "uint256[]"
                },
                {
                  "components": [
                    {
                      "internalType": "bytes32",
                      "name": "recipientAddressSlot",
                      "type": "bytes32"
                    },
                    {
                      "internalType": "bytes32[]",
                      "name": "recipientAmountSlots",
                      "type": "bytes32[]"
                    }
                  ],
                  "internalType": "struct SolverLib.Allocation[]",
                  "name": "allocations",
                  "type": "tuple[]"
                },
                {
                  "components": [
                    {
                      "internalType": "bytes32",
                      "name": "digest",
                      "type": "bytes32"
                    },
                    {
                      "internalType": "uint8",
                      "name": "hashFunction",
                      "type": "uint8"
                    },
                    {
                      "internalType": "uint8",
                      "name": "size",
                      "type": "uint8"
                    }
                  ],
                  "internalType": "struct SolverLib.Multihash[]",
                  "name": "outcomeURIs",
                  "type": "tuple[]"
                }
              ],
              "internalType": "struct SolverLib.ConditionBase",
              "name": "conditionBase",
              "type": "tuple"
            }
          ],
          "internalType": "struct SolverLib.Config",
          "name": "_solverConfig",
          "type": "tuple"
        }
      ],
      "name": "init",
      "outputs": [],
      "stateMutability": "nonpayable",
      "type": "function"
    },
    {
      "inputs": [
        {
          "internalType": "address",
          "name": "operator",
          "type": "address"
        },
        {
          "internalType": "address",
          "name": "from",
          "type": "address"
        },
        {
          "internalType": "uint256[]",
          "name": "ids",
          "type": "uint256[]"
        },
        {
          "internalType": "uint256[]",
          "name": "values",
          "type": "uint256[]"
        },
        {
          "internalType": "bytes",
          "name": "data",
          "type": "bytes"
        }
      ],
      "name": "onERC1155BatchReceived",
      "outputs": [
        {
          "internalType": "bytes4",
          "name": "",
          "type": "bytes4"
        }
      ],
      "stateMutability": "nonpayable",
      "type": "function"
    },
    {
      "inputs": [
        {
          "internalType": "address",
          "name": "operator",
          "type": "address"
        },
        {
          "internalType": "address",
          "name": "from",
          "type": "address"
        },
        {
          "internalType": "uint256",
          "name": "id",
          "type": "uint256"
        },
        {
          "internalType": "uint256",
          "name": "value",
          "type": "uint256"
        },
        {
          "internalType": "bytes",
          "name": "data",
          "type": "bytes"
        }
      ],
      "name": "onERC1155Received",
      "outputs": [
        {
          "internalType": "bytes4",
          "name": "",
          "type": "bytes4"
        }
      ],
      "stateMutability": "nonpayable",
      "type": "function"
    },
    {
      "inputs": [
        {
          "internalType": "uint256",
          "name": "_index",
          "type": "uint256"
        }
      ],
      "name": "prepareSolve",
      "outputs": [],
      "stateMutability": "nonpayable",
      "type": "function"
    },
    {
      "inputs": [
        {
          "internalType": "uint256",
          "name": "_index",
          "type": "uint256"
        },
        {
          "internalType": "uint256[]",
          "name": "_payouts",
          "type": "uint256[]"
        }
      ],
      "name": "proposePayouts",
      "outputs": [],
      "stateMutability": "nonpayable",
      "type": "function"
    },
    {
      "inputs": [
        {
          "internalType": "contract IERC20",
          "name": "_collateralToken",
          "type": "address"
        },
        {
          "internalType": "bytes32",
          "name": "_parentCollectionId",
          "type": "bytes32"
        },
        {
          "internalType": "bytes32",
          "name": "_conditionId",
          "type": "bytes32"
        },
        {
          "internalType": "uint256[]",
          "name": "_indexSets",
          "type": "uint256[]"
        }
      ],
      "name": "redeemPosition",
      "outputs": [],
      "stateMutability": "nonpayable",
      "type": "function"
    },
    {
      "inputs": [
        {
          "internalType": "bytes32",
          "name": "_slot",
          "type": "bytes32"
        },
        {
          "internalType": "uint256",
          "name": "_chainIndex",
          "type": "uint256"
        }
      ],
      "name": "registerOutgoingCallback",
      "outputs": [],
      "stateMutability": "nonpayable",
      "type": "function"
    },
    {
      "inputs": [
        {
          "components": [
            {
              "internalType": "bytes32",
              "name": "digest",
              "type": "bytes32"
            },
            {
              "internalType": "uint8",
              "name": "hashFunction",
              "type": "uint8"
            },
            {
              "internalType": "uint8",
              "name": "size",
              "type": "uint8"
            }
          ],
          "internalType": "struct SolverLib.Multihash",
          "name": "_context",
          "type": "tuple"
        }
      ],
      "name": "setContext",
      "outputs": [],
      "stateMutability": "nonpayable",
      "type": "function"
    },
    {
      "inputs": [
        {
          "internalType": "bytes32",
          "name": "_trackingId",
          "type": "bytes32"
        }
      ],
      "name": "setTrackingId",
      "outputs": [],
      "stateMutability": "nonpayable",
      "type": "function"
    },
    {
      "inputs": [
        {
          "internalType": "bytes4",
          "name": "interfaceId",
          "type": "bytes4"
        }
      ],
      "name": "supportsInterface",
      "outputs": [
        {
          "internalType": "bool",
          "name": "",
          "type": "bool"
        }
      ],
      "stateMutability": "view",
      "type": "function"
    },
    {
      "inputs": [
        {
          "internalType": "uint256",
          "name": "",
          "type": "uint256"
        }
      ],
      "name": "timelocks",
      "outputs": [
        {
          "internalType": "uint256",
          "name": "",
          "type": "uint256"
        }
      ],
      "stateMutability": "view",
      "type": "function"
    },
    {
      "inputs": [],
      "name": "trackingId",
      "outputs": [
        {
          "internalType": "bytes32",
          "name": "",
          "type": "bytes32"
        }
      ],
      "stateMutability": "view",
      "type": "function"
    },
    {
      "inputs": [],
      "name": "uiURI",
      "outputs": [
        {
          "internalType": "bytes32",
          "name": "digest",
          "type": "bytes32"
        },
        {
          "internalType": "uint8",
          "name": "hashFunction",
          "type": "uint8"
        },
        {
          "internalType": "uint8",
          "name": "size",
          "type": "uint8"
        }
      ],
      "stateMutability": "view",
      "type": "function"
    }
  ],
  "bytecode": "0x608060405234801561001057600080fd5b50615d9380620000216000396000f3fe608060405234801561001057600080fd5b506004361061025c5760003560e01c806355dd978b11610145578063a9f698b6116100bd578063c98c05b71161008c578063df33cc5111610071578063df33cc5114610516578063ea8221a914610529578063f23a6e61146105315761025c565b8063c98c05b7146104fb578063de3a23c5146105035761025c565b8063a9f698b6146104a0578063b992db0f146104b3578063bc197c81146104c6578063c3f909d4146104e65761025c565b806380c2dde21161011457806387dfee57116100f957806387dfee57146104725780638bc3a08f1461048557806399992506146104985761025c565b806380c2dde2146104575780638602ce1b1461045f5761025c565b806355dd978b1461040d57806379502c55146104155780637c1236271461042f57806380b204b7146104445761025c565b806336fcf48c116101d857806348cbb2fc116101a75780634dab5e691161018c5780634dab5e69146103d45780634e46f223146103e757806354f6127f146103fa5761025c565b806348cbb2fc146103b95780634a77234e146103c15761025c565b806336fcf48c1461035c5780633837b05e146103735780633f4fb5aa1461038657806344c3b607146103a65761025c565b80630d06101a1161022f5780630d8d3975116102145780630d8d397514610312578063187825591461032557806326c50007146103385761025c565b80630d06101a146102df5780630d7e149f146102f25761025c565b806301ffc9a71461026157806307c068b61461028a5780630944e26e1461029f578063098b37f7146102bf575b600080fd5b61027461026f366004613a22565b610544565b6040516102819190614874565b60405180910390f35b61029d610298366004613952565b61058a565b005b6102b26102ad366004613be4565b6106d3565b604051610281919061442e565b6102d26102cd366004613952565b610959565b6040516102819190614678565b61029d6102ed366004613952565b6109c5565b610305610300366004613952565b610a01565b604051610281919061487f565b61029d610320366004613952565b610a22565b61029d610333366004613abd565b610b8c565b61034b610346366004613952565b610c40565b604051610281959493929190614911565b610364610c8e565b60405161028193929190614896565b6102b2610381366004613952565b610ca3565b610399610394366004613952565b610dd1565b60405161028191906148c4565b6102746103b4366004613952565b610e97565b610305610f40565b61029d6103cf366004613952565b610f46565b61029d6103e2366004613952565b611251565b61029d6103f5366004613952565b61132b565b610399610408366004613952565b611405565b6102b2611422565b61041d611431565b60405161028196959493929190614944565b6104376116bc565b60405161028191906146c5565b61029d610452366004613c30565b6117eb565b6102b2611952565b61029d61046d366004613982565b611961565b61029d610480366004613c7a565b611a47565b61029d610493366004613747565b611c00565b610274611db7565b61029d6104ae366004613c1f565b611e64565b61029d6104c1366004613952565b611e88565b6104d96104d43660046137c4565b6121e0565b60405161028191906148af565b6104ee61220d565b6040516102819190615001565b610305612626565b61029d610511366004613952565b6126c0565b61029d610524366004613a01565b612a43565b610305612b4e565b6104d961053f36600461387f565b612b54565b60006001600160e01b031982167f4e2312e0000000000000000000000000000000000000000000000000000000001480610582575061058282612b80565b90505b919050565b6007546001600160a01b031633146105bd5760405162461bcd60e51b81526004016105b490614d57565b60405180910390fd5b6003601282815481106105e057634e487b7160e01b600052603260045260246000fd5b600091825260209091206006918202016005015460ff169081111561061557634e487b7160e01b600052602160045260246000fd5b146106325760405162461bcd60e51b81526004016105b490614c8c565b73__$94d7d2f22770e4b0d1a2b99fb2812308e2$__63ec7ac2f06012838154811061066d57634e487b7160e01b600052603260045260246000fd5b90600052602060002090600602016040518263ffffffff1660e01b8152600401610697919061487f565b60006040518083038186803b1580156106af57600080fd5b505af41580156106c3573d6000803e3d6000fd5b505050506106d081612bb2565b50565b6006546000906001600160a01b031633146107005760405162461bcd60e51b81526004016105b490614ed4565b6014546001600160a01b0316156107295760405162461bcd60e51b81526004016105b490614a42565b6000546015546040517fd6b3ad8d00000000000000000000000000000000000000000000000000000000815273__$94d7d2f22770e4b0d1a2b99fb2812308e2$__9263d6b3ad8d9261079192620100009092046001600160a01b031691879190600401614587565b604080518083038186803b1580156107a857600080fd5b505af41580156107bc573d6000803e3d6000fd5b505050506040513d601f19601f820116820180604052508101906107e091906138f9565b601480546001600160a01b0319166001600160a01b03939093169290921790915560175490915015610886576017546040517f0d06101a0000000000000000000000000000000000000000000000000000000081526001600160a01b03831691630d06101a91610853919060040161487f565b600060405180830381600087803b15801561086d57600080fd5b505af1158015610881573d6000803e3d6000fd5b505050505b601954610100900460ff161561090f576040517fa9f698b60000000000000000000000000000000000000000000000000000000081526001600160a01b0382169063a9f698b6906108dc90601890600401615098565b600060405180830381600087803b1580156108f657600080fd5b505af115801561090a573d6000803e3d6000fd5b505050505b6014546040517fbd2e7fbdc9b1c19997e58c63e6ea1b5a02acd8dd9fd5d76f4bb18634f7155e809161094c916001600160a01b039091169061442e565b60405180910390a1919050565b6000818152601c60209081526040918290208054835181840281018401909452808452606093928301828280156109b957602002820191906000526020600020905b81546001600160a01b0316815260019091019060200180831161099b575b50505050509050919050565b601754156109e55760405162461bcd60e51b81526004016105b490614f42565b6002546001600160a01b031633146109fc57600080fd5b601755565b60168181548110610a1157600080fd5b600091825260209091200154905081565b60168181548110610a4357634e487b7160e01b600052603260045260246000fd5b90600052602060002001544211610a6c5760405162461bcd60e51b81526004016105b490614be7565b600260128281548110610a8f57634e487b7160e01b600052603260045260246000fd5b600091825260209091206006918202016005015460ff1690811115610ac457634e487b7160e01b600052602160045260246000fd5b14610ae15760405162461bcd60e51b81526004016105b490614dc5565b6001546012805473__$94d7d2f22770e4b0d1a2b99fb2812308e2$__926385c92867926001600160a01b039091169185908110610b2e57634e487b7160e01b600052603260045260246000fd5b90600052602060002090600602016040518363ffffffff1660e01b8152600401610b599291906144c8565b60006040518083038186803b158015610b7157600080fd5b505af4158015610b85573d6000803e3d6000fd5b5050505050565b6006546001600160a01b03163314610bb65760405162461bcd60e51b81526004016105b490614bb0565b6001546040517f01b7037c0000000000000000000000000000000000000000000000000000000081526001600160a01b03909116906301b7037c90610c0790889088908890889088906004016148d7565b600060405180830381600087803b158015610c2157600080fd5b505af1158015610c35573d6000803e3d6000fd5b505050505050505050565b60128181548110610c5057600080fd5b6000918252602090912060069091020180546001820154600283015460038401546005909401546001600160a01b0390931694509092909160ff1685565b60035460045460ff8082169161010090041683565b6000601554821415610cb6575030610585565b601554821015610d4757601354604051631c1bd82f60e11b81526001600160a01b0390911690633837b05e90610cf090859060040161487f565b60206040518083038186803b158015610d0857600080fd5b505afa158015610d1c573d6000803e3d6000fd5b505050506040513d601f19601f82011682018060405250810190610d40919061372b565b9050610585565b60155482111561058557601454604051631c1bd82f60e11b81526001600160a01b0390911690633837b05e90610d8190859060040161487f565b60206040518083038186803b158015610d9957600080fd5b505afa158015610dad573d6000803e3d6000fd5b505050506040513d601f19601f82011682018060405250810190610582919061372b565b6012546000828152601f602052604090205460609114610e035760405162461bcd60e51b81526004016105b490614d20565b6000828152601e602052604090208054610e1c90615784565b80601f0160208091040260200160405190810160405280929190818152602001828054610e4890615784565b80156109b95780601f10610e6a576101008083540402835291602001916109b9565b820191906000526020600020905b815481529060010190602001808311610e785750939695505050505050565b6040517f0e23b7ca00000000000000000000000000000000000000000000000000000000815260009073__$94d7d2f22770e4b0d1a2b99fb2812308e2$__90630e23b7ca90610ef0908590601e90600b906004016150ac565b60206040518083038186803b158015610f0857600080fd5b505af4158015610f1c573d6000803e3d6000fd5b505050506040513d601f19601f820116820180604052508101906105829190613932565b60175481565b60125415610f8d576006546001600160a01b0316331480610f7157506013546001600160a01b031633145b610f8d5760405162461bcd60e51b81526004016105b490614f0b565b6012548114610fae5760405162461bcd60e51b81526004016105b490614b44565b601b5415610fce5760405162461bcd60e51b81526004016105b490614e33565b601a5415610fee5760405162461bcd60e51b81526004016105b490614e68565b600154601354601280546040517f699e0add000000000000000000000000000000000000000000000000000000008152919373__$94d7d2f22770e4b0d1a2b99fb2812308e2$__9363699e0add93611059936001600160a01b0393841693600b931691600401614493565b60006040518083038186803b15801561107157600080fd5b505af4158015611085573d6000803e3d6000fd5b505050506040513d6000823e601f3d908101601f191682016040526110ad9190810190613b25565b8154600180820184556000938452602093849020835160069093020180546001600160a01b0319166001600160a01b0390931692909217825582840151908201556040820151600282015560608201516003820155608082015180519293919261111d926004850192019061345e565b5060a082015160058201805460ff1916600183600681111561114f57634e487b7160e01b600052602160045260246000fd5b0217905550506016805460018101825560009182527fd833147d7dc355ba459fc788f669e58cfaf9dc25ddcd0702e87d69c7b5124289015550611190612bfa565b7f152ec8ae15d347b2d2a8f0858caa29bcaaa0906749a1f43e08bfe7998346024030826040516111c19291906144c8565b60405180910390a16014546001600160a01b0316156106d0576014546040517f4a77234e0000000000000000000000000000000000000000000000000000000081526001600160a01b0390911690634a77234e9061122390849060040161487f565b600060405180830381600087803b15801561123d57600080fd5b505af1158015610b85573d6000803e3d6000fd5b6007546001600160a01b0316331461127b5760405162461bcd60e51b81526004016105b490614d57565b60026012828154811061129e57634e487b7160e01b600052603260045260246000fd5b600091825260209091206006918202016005015460ff16908111156112d357634e487b7160e01b600052602160045260246000fd5b146112f05760405162461bcd60e51b81526004016105b490614dfc565b73__$94d7d2f22770e4b0d1a2b99fb2812308e2$__6324b286026012838154811061066d57634e487b7160e01b600052603260045260246000fd5b6007546001600160a01b031633146113555760405162461bcd60e51b81526004016105b490614d57565b60046012828154811061137857634e487b7160e01b600052603260045260246000fd5b600091825260209091206006918202016005015460ff16908111156113ad57634e487b7160e01b600052602160045260246000fd5b146113ca5760405162461bcd60e51b81526004016105b490614e9d565b73__$94d7d2f22770e4b0d1a2b99fb2812308e2$__6359111fb56012838154811061066d57634e487b7160e01b600052603260045260246000fd5b6000818152601e60205260409020805460609190610e1c90615784565b6014546001600160a01b031681565b60058054600654600754600854600980546001600160a01b03958616969486169590931693919261146190615784565b80601f016020809104026020016040519081016040528092919081815260200182805461148d90615784565b80156114da5780601f106114af576101008083540402835291602001916114da565b820191906000526020600020905b8154815290600101906020018083116114bd57829003601f168201915b50506040805160e0810182526006870180546001600160a01b03168252600788015460208084019190915260088901548385015260098901546060840152600a8901805485518184028101840190965280865298999893975091955060808701945090919083018282801561156e57602002820191906000526020600020905b81548152602001906001019080831161155a575b5050505050815260200160058201805480602002602001604051908101604052809291908181526020016000905b828210156116305783829060005260206000209060020201604051806040016040529081600082015481526020016001820180548060200260200160405190810160405280929190818152602001828054801561161857602002820191906000526020600020905b815481526020019060010190808311611604575b5050505050815250508152602001906001019061159c565b50505050815260200160068201805480602002602001604051908101604052809291908181526020016000905b828210156116af57600084815260209081902060408051606081018252600286029092018054835260019081015460ff808216858701526101009091041691830191909152908352909201910161165d565b5050505081525050905086565b60606012805480602002602001604051908101604052809291908181526020016000905b828210156117e25760008481526020908190206040805160c0810182526006860290920180546001600160a01b03168352600181015483850152600281015483830152600381015460608401526004810180548351818702810187019094528084529394919360808601939283018282801561177b57602002820191906000526020600020905b815481526020019060010190808311611767575b5050509183525050600582015460209091019060ff1660068111156117b057634e487b7160e01b600052602160045260246000fd5b60068111156117cf57634e487b7160e01b600052602160045260246000fd5b81525050815260200190600101906116e0565b50505050905090565b6006546001600160a01b031633146118155760405162461bcd60e51b81526004016105b490614bb0565b600c5481146118365760405162461bcd60e51b81526004016105b490614a79565b60016012848154811061185957634e487b7160e01b600052603260045260246000fd5b600091825260209091206006918202016005015460ff169081111561188e57634e487b7160e01b600052602160045260246000fd5b146118ab5760405162461bcd60e51b81526004016105b490614ad6565b73__$94d7d2f22770e4b0d1a2b99fb2812308e2$__636a0a24f1601285815481106118e657634e487b7160e01b600052603260045260246000fd5b906000526020600020906006020184846040518463ffffffff1660e01b815260040161191493929190614fe7565b60006040518083038186803b15801561192c57600080fd5b505af4158015611940573d6000803e3d6000fd5b5050505061194d83612bb2565b505050565b6013546001600160a01b031681565b6006546001600160a01b0316331461198b5760405162461bcd60e51b81526004016105b4906149d4565b6000828152602080526040902054600a80546003929081106119bd57634e487b7160e01b600052603260045260246000fd5b600091825260209091206001600590920201015460ff1660038111156119f357634e487b7160e01b600052602160045260246000fd5b14611a105760405162461bcd60e51b81526004016105b49061499d565b611a1a8282612ed3565b6040517f71bd81ebe1d98a2944767394e76a9aff18724b2cf04e1db71254f804544b35c790600090a15050565b6007546001600160a01b03163314611a715760405162461bcd60e51b81526004016105b490614d57565b600460128381548110611a9457634e487b7160e01b600052603260045260246000fd5b600091825260209091206006918202016005015460ff1690811115611ac957634e487b7160e01b600052602160045260246000fd5b14611ae65760405162461bcd60e51b81526004016105b490614e9d565b60168281548110611b0757634e487b7160e01b600052603260045260246000fd5b90600052602060002001544211611b305760405162461bcd60e51b81526004016105b490614be7565b600c54815114611b525760405162461bcd60e51b81526004016105b490614a79565b6001546012805473__$94d7d2f22770e4b0d1a2b99fb2812308e2$__92631b948e49926001600160a01b039091169186908110611b9f57634e487b7160e01b600052603260045260246000fd5b9060005260206000209060060201846040518463ffffffff1660e01b8152600401611bcc939291906144e1565b60006040518083038186803b158015611be457600080fd5b505af4158015611bf8573d6000803e3d6000fd5b505050505050565b600054610100900460ff1680611c19575060005460ff16155b611c355760405162461bcd60e51b81526004016105b490614cc3565b600054610100900460ff16158015611c60576000805460ff1961ff0019909116610100171660011790555b6000611c726040840160208501613708565b6001600160a01b03161415611c995760405162461bcd60e51b81526004016105b490614d8e565b600280546001600160a01b03199081166001600160a01b0389811691909117909255600080547fffffffffffffffffffff0000000000000000000000000000000000000000ffff16336201000002179055600180548216888416179055601380549091169186169190911790556015839055816005611d1882826159dc565b90505060005b611d2b60a08401846150c2565b9050811015611d9d578060206000611d4660a08701876150c2565b85818110611d6457634e487b7160e01b600052603260045260246000fd5b9050602002810190611d7691906151c9565b60409081013582526020820192909252016000205580611d95816157cc565b915050611d1e565b508015611bf8576000805461ff0019169055505050505050565b6012546040517f5cc1f6b500000000000000000000000000000000000000000000000000000000815260009173__$94d7d2f22770e4b0d1a2b99fb2812308e2$__91635cc1f6b591611e0f91600a9190600401614769565b60206040518083038186803b158015611e2757600080fd5b505af4158015611e3b573d6000803e3d6000fd5b505050506040513d601f19601f82011682018060405250810190611e5f9190613932565b905090565b6002546001600160a01b03163314611e7b57600080fd5b80601861194d8282615bbb565b600060128281548110611eab57634e487b7160e01b600052603260045260246000fd5b600091825260209091206006918202016005015460ff1690811115611ee057634e487b7160e01b600052602160045260246000fd5b14611efd5760405162461bcd60e51b81526004016105b490614fb0565b611f05611db7565b1515600114611f265760405162461bcd60e51b81526004016105b490614c1e565b611f2f81610e97565b611f4b5760405162461bcd60e51b81526004016105b490614b7b565b600160128281548110611f6e57634e487b7160e01b600052603260045260246000fd5b906000526020600020906006020160050160006101000a81548160ff02191690836006811115611fae57634e487b7160e01b600052602160045260246000fd5b02179055506001546013546012805473__$94d7d2f22770e4b0d1a2b99fb2812308e2$__93630c5190e2936001600160a01b0391821693911691600b91908790811061200a57634e487b7160e01b600052603260045260246000fd5b60009182526020808320600e548452601e909152604090922080546006909202909201919061203890615784565b80601f016020809104026020016040519081016040528092919081815260200182805461206490615784565b80156120b15780601f10612086576101008083540402835291602001916120b1565b820191906000526020600020905b81548152906001019060200180831161209457829003601f168201915b50505050508060200190518101906120c9919061396a565b6040518663ffffffff1660e01b81526004016120e9959493929190614442565b60006040518083038186803b15801561210157600080fd5b505af4158015612115573d6000803e3d6000fd5b50506001546012805473__$94d7d2f22770e4b0d1a2b99fb2812308e2$__94506377ae1d7393506001600160a01b03909216918590811061216657634e487b7160e01b600052603260045260246000fd5b90600052602060002090600602016005600601601e6017546040518663ffffffff1660e01b815260040161219e95949392919061453e565b60006040518083038186803b1580156121b657600080fd5b505af41580156121ca573d6000803e3d6000fd5b505050506121d7816106d0565b6106d081612f56565b7fbc197c810000000000000000000000000000000000000000000000000000000098975050505050505050565b6122156134a9565b6040805160e081018252600580546001600160a01b03908116835260065481166020840152600754169282019290925260085460608201526009805491929160808401919061226390615784565b80601f016020809104026020016040519081016040528092919081815260200182805461228f90615784565b80156122dc5780601f106122b1576101008083540402835291602001916122dc565b820191906000526020600020905b8154815290600101906020018083116122bf57829003601f168201915b5050505050815260200160058201805480602002602001604051908101604052809291908181526020016000905b8282101561244157838290600052602060002090600502016040518060a0016040529081600082015481526020016001820160009054906101000a900460ff16600381111561236957634e487b7160e01b600052602160045260246000fd5b600381111561238857634e487b7160e01b600052602160045260246000fd5b815260200160028201548152602001600382015481526020016004820180546123b090615784565b80601f01602080910402602001604051908101604052809291908181526020018280546123dc90615784565b80156124295780601f106123fe57610100808354040283529160200191612429565b820191906000526020600020905b81548152906001019060200180831161240c57829003601f168201915b5050505050815250508152602001906001019061230a565b505050908252506040805160e0810182526006840180546001600160a01b03168252600785015460208381019190915260088601548385015260098601546060840152600a8601805485518184028101840190965280865295820195939492936080860193928301828280156124d657602002820191906000526020600020905b8154815260200190600101908083116124c2575b5050505050815260200160058201805480602002602001604051908101604052809291908181526020016000905b828210156125985783829060005260206000209060020201604051806040016040529081600082015481526020016001820180548060200260200160405190810160405280929190818152602001828054801561258057602002820191906000526020600020905b81548152602001906001019080831161256c575b50505050508152505081526020019060010190612504565b50505050815260200160068201805480602002602001604051908101604052809291908181526020016000905b8282101561261757600084815260209081902060408051606081018252600286029092018054835260019081015460ff80821685870152610100909104169183019190915290835290920191016125c5565b50505091525050905250905090565b600b546040517f70a082310000000000000000000000000000000000000000000000000000000081526000916001600160a01b0316906370a082319061267090309060040161442e565b60206040518083038186803b15801561268857600080fd5b505afa15801561269c573d6000803e3d6000fd5b505050506040513d601f19601f82011682018060405250810190611e5f919061396a565b600033826040516020016126d592919061440c565b60408051601f1981840301815291815281516020928301206000818152601d909352912054600a805492935061273b92909190811061272457634e487b7160e01b600052603260045260246000fd5b906000526020600020906005020160030154610ca3565b6001600160a01b0316336001600160a01b03161461276b5760405162461bcd60e51b81526004016105b490614b0d565b6000818152601d6020526040812054600a8054909190811061279d57634e487b7160e01b600052603260045260246000fd5b600091825260209091206001600590920201015460ff1660038111156127d357634e487b7160e01b600052602160045260246000fd5b146127f05760405162461bcd60e51b81526004016105b490614a0b565b6000818152601d6020526040902054600a8054909190811061282257634e487b7160e01b600052603260045260246000fd5b60009182526020822060059091020180549161283d836157cc565b90915550506000818152601d6020526040902054600a80546129f29290811061287657634e487b7160e01b600052603260045260246000fd5b906000526020600020906005020160020154336001600160a01b0316633f4fb5aa60058001601a600301600087815260200190815260200160002054815481106128d057634e487b7160e01b600052603260045260246000fd5b906000526020600020906005020160040180546128ec90615784565b80601f016020809104026020016040519081016040528092919081815260200182805461291890615784565b80156129655780601f1061293a57610100808354040283529160200191612965565b820191906000526020600020905b81548152906001019060200180831161294857829003601f168201915b505050505080602001905181019061297d919061396a565b6040518263ffffffff1660e01b8152600401612999919061487f565b60006040518083038186803b1580156129b157600080fd5b505afa1580156129c5573d6000803e3d6000fd5b505050506040513d6000823e601f3d908101601f191682016040526129ed9190810190613a4a565b612ed3565b6000818152601d60205260408120819055601a805491612a118361576d565b90915550506040517f71bd81ebe1d98a2944767394e76a9aff18724b2cf04e1db71254f804544b35c790600090a15050565b612a4c81610ca3565b6001600160a01b0316336001600160a01b031614612a7c5760405162461bcd60e51b81526004016105b490614b0d565b6000828152601f602052604090205415801590612aa857506012546000838152601f6020526040902054145b15612b075760405163de3a23c560e01b8152339063de3a23c590612ad090859060040161487f565b600060405180830381600087803b158015612aea57600080fd5b505af1158015612afe573d6000803e3d6000fd5b50505050612b4a565b6000828152601c60209081526040822080546001810182559083529082200180546001600160a01b03191633179055601b805491612b44836157cc565b91905055505b5050565b60155481565b7ff23a6e61000000000000000000000000000000000000000000000000000000005b9695505050505050565b6001600160e01b031981167f01ffc9a70000000000000000000000000000000000000000000000000000000014919050565b600854612bc0906001615410565b612bca90426153f8565b60168281548110612beb57634e487b7160e01b600052603260045260246000fd5b60009182526020909120015550565b60005b600a54811015612ea7576000600a805483908110612c2b57634e487b7160e01b600052603260045260246000fd5b600091825260209091206001600590920201015460ff166003811115612c6157634e487b7160e01b600052602160045260246000fd5b14612ca457612c9f600580018281548110612c8c57634e487b7160e01b600052603260045260246000fd5b90600052602060002090600502016130df565b612e95565b6000306001600160a01b0316633837b05e600580018481548110612cd857634e487b7160e01b600052603260045260246000fd5b9060005260206000209060050201600301546040518263ffffffff1660e01b8152600401612d06919061487f565b60206040518083038186803b158015612d1e57600080fd5b505afa158015612d32573d6000803e3d6000fd5b505050506040513d601f19601f82011682018060405250810190612d56919061372b565b9050612d6281836131d3565b806001600160a01b031663df33cc51600580018481548110612d9457634e487b7160e01b600052603260045260246000fd5b90600052602060002090600502016004018054612db090615784565b80601f0160208091040260200160405190810160405280929190818152602001828054612ddc90615784565b8015612e295780601f10612dfe57610100808354040283529160200191612e29565b820191906000526020600020905b815481529060010190602001808311612e0c57829003601f168201915b5050505050806020019051810190612e41919061396a565b6015546040518363ffffffff1660e01b8152600401612e61929190614888565b600060405180830381600087803b158015612e7b57600080fd5b505af1158015612e8f573d6000803e3d6000fd5b50505050505b80612e9f816157cc565b915050612bfd565b506040517f71bd81ebe1d98a2944767394e76a9aff18724b2cf04e1db71254f804544b35c790600090a1565b601254612ee29060019061542f565b6000838152601f602052604090205414612f0e5760405162461bcd60e51b81526004016105b490614f79565b6000828152601f60205260408120805491612f28836157cc565b90915550506000828152601e602090815260409091208251612f4c92840190613506565b50612b4a826132f6565b6014546001600160a01b031615801590612ff15750601460009054906101000a90046001600160a01b03166001600160a01b031663999925066040518163ffffffff1660e01b815260040160206040518083038186803b158015612fb957600080fd5b505afa158015612fcd573d6000803e3d6000fd5b505050506040513d601f19601f82011682018060405250810190612ff19190613932565b801561309157506014546040517f44c3b6070000000000000000000000000000000000000000000000000000000081526001600160a01b03909116906344c3b6079061304190849060040161487f565b60206040518083038186803b15801561305957600080fd5b505afa15801561306d573d6000803e3d6000fd5b505050506040513d601f19601f820116820180604052508101906130919190613932565b156106d0576014546040517fb992db0f0000000000000000000000000000000000000000000000000000000081526001600160a01b039091169063b992db0f9061122390849060040161487f565b600181015460039060ff168181111561310857634e487b7160e01b600052602160045260246000fd5b11156131265760405162461bcd60e51b81526004016105b490614c55565b8054816000613134836157cc565b9091555060039050600182015460ff16600381111561316357634e487b7160e01b600052602160045260246000fd5b146106d0576106d0816002015473__$94d7d2f22770e4b0d1a2b99fb2812308e2$__63b3d73707846040518263ffffffff1660e01b81526004016131a7919061487f565b60006040518083038186803b1580156131bf57600080fd5b505af41580156129c5573d6000803e3d6000fd5b80601a6003016000846005800185815481106131ff57634e487b7160e01b600052603260045260246000fd5b9060005260206000209060050201600401805461321b90615784565b80601f016020809104026020016040519081016040528092919081815260200182805461324790615784565b80156132945780601f1061326957610100808354040283529160200191613294565b820191906000526020600020905b81548152906001019060200180831161327757829003601f168201915b50505050508060200190518101906132ac919061396a565b6040516020016132bd92919061440c565b60408051601f19818403018152918152815160209283012083529082019290925201600090812091909155601a805491612b44836157cc565b60005b6000828152601c6020526040902054811015612b4a576000828152601c6020526040812080548390811061333d57634e487b7160e01b600052603260045260246000fd5b6000918252602090912001546001600160a01b03161461344c576000828152601c6020526040902080548290811061338557634e487b7160e01b600052603260045260246000fd5b60009182526020909120015460405163de3a23c560e01b81526001600160a01b039091169063de3a23c5906133be90859060040161487f565b600060405180830381600087803b1580156133d857600080fd5b505af11580156133ec573d6000803e3d6000fd5b5050506000838152601c6020526040902080549091508290811061342057634e487b7160e01b600052603260045260246000fd5b6000918252602082200180546001600160a01b0319169055601b8054916134468361576d565b91905055505b80613456816157cc565b9150506132f9565b828054828255906000526020600020908101928215613499579160200282015b8281111561349957825182559160200191906001019061347e565b506134a5929150613579565b5090565b6040518060e0016040528060006001600160a01b0316815260200160006001600160a01b0316815260200160006001600160a01b0316815260200160008152602001606081526020016060815260200161350161358e565b905290565b82805461351290615784565b90600052602060002090601f0160209004810192826135345760008555613499565b82601f1061354d57805160ff1916838001178555613499565b82800160010185558215613499579182018281111561349957825182559160200191906001019061347e565b5b808211156134a5576000815560010161357a565b6040518060e0016040528060006001600160a01b031681526020016000815260200160008152602001600080191681526020016060815260200160608152602001606081525090565b803561058581615d2c565b60008083601f8401126135f3578182fd5b50813567ffffffffffffffff81111561360a578182fd5b602083019150836020808302850101111561362457600080fd5b9250929050565b600082601f83011261363b578081fd5b8151602061365061364b83615208565b6151de565b828152818101908583018385028701840188101561366c578586fd5b855b8581101561368a5781518452928401929084019060010161366e565b5090979650505050505050565b60008083601f8401126136a8578182fd5b50813567ffffffffffffffff8111156136bf578182fd5b60208301915083602082850101111561362457600080fd5b805161058581615d2c565b80516007811061058557600080fd5b600060e08284031215613702578081fd5b50919050565b600060208284031215613719578081fd5b813561372481615d2c565b9392505050565b60006020828403121561373c578081fd5b815161372481615d2c565b600080600080600060a0868803121561375e578081fd5b853561376981615d2c565b9450602086013561377981615d2c565b9350604086013561378981615d2c565b925060608601359150608086013567ffffffffffffffff8111156137ab578182fd5b6137b7888289016136f1565b9150509295509295909350565b60008060008060008060008060a0898b0312156137df578586fd5b88356137ea81615d2c565b975060208901356137fa81615d2c565b9650604089013567ffffffffffffffff80821115613816578788fd5b6138228c838d016135e2565b909850965060608b013591508082111561383a578485fd5b6138468c838d016135e2565b909650945060808b013591508082111561385e578384fd5b5061386b8b828c01613697565b999c989b5096995094979396929594505050565b60008060008060008060a08789031215613897578384fd5b86356138a281615d2c565b955060208701356138b281615d2c565b94506040870135935060608701359250608087013567ffffffffffffffff8111156138db578283fd5b6138e789828a01613697565b979a9699509497509295939492505050565b6000806040838503121561390b578182fd5b825161391681615d2c565b602084015190925061392781615d2c565b809150509250929050565b600060208284031215613943578081fd5b81518015158114613724578182fd5b600060208284031215613963578081fd5b5035919050565b60006020828403121561397b578081fd5b5051919050565b60008060408385031215613994578182fd5b82359150602083013567ffffffffffffffff8111156139b1578182fd5b8301601f810185136139c1578182fd5b80356139cf61364b8261522c565b8181528660208385010111156139e3578384fd5b81602084016020830137908101602001929092525090939092509050565b60008060408385031215613a13578182fd5b50508035926020909101359150565b600060208284031215613a33578081fd5b81356001600160e01b031981168114613724578182fd5b600060208284031215613a5b578081fd5b815167ffffffffffffffff811115613a71578182fd5b8201601f81018413613a81578182fd5b8051613a8f61364b8261522c565b818152856020838501011115613aa3578384fd5b613ab482602083016020860161573d565b95945050505050565b600080600080600060808688031215613ad4578283fd5b8535613adf81615d2c565b94506020860135935060408601359250606086013567ffffffffffffffff811115613b08578182fd5b613b14888289016135e2565b969995985093965092949392505050565b600060208284031215613b36578081fd5b815167ffffffffffffffff80821115613b4d578283fd5b9083019060c08286031215613b60578283fd5b60405160c081018181108382111715613b7b57613b7b615829565b604052613b87836136d7565b8152602083015160208201526040830151604082015260608301516060820152608083015182811115613bb8578485fd5b613bc48782860161362b565b608083015250613bd660a084016136e2565b60a082015295945050505050565b600060208284031215613bf5578081fd5b813567ffffffffffffffff811115613c0b578182fd5b613c17848285016136f1565b949350505050565b600060608284031215613702578081fd5b600080600060408486031215613c44578081fd5b83359250602084013567ffffffffffffffff811115613c61578182fd5b613c6d868287016135e2565b9497909650939450505050565b60008060408385031215613c8c578182fd5b8235915060208084013567ffffffffffffffff811115613caa578283fd5b8401601f81018613613cba578283fd5b8035613cc861364b82615208565b81815283810190838501858402850186018a1015613ce4578687fd5b8694505b83851015613d06578035835260019490940193918501918501613ce8565b5080955050505050509250929050565b6001600160a01b03169052565b60008284527f07ffffffffffffffffffffffffffffffffffffffffffffffffffffffffffffff831115613d54578081fd5b6020830280836020870137939093016020019283525090919050565b818352602080840193600091908185020181018584845b87811015613e155782840389528135609e19883603018112613da7578687fd5b87018035855260a086820135613dbc81615d41565b613dc888880182614052565b5060408281013590870152606080830135908701526080613deb81840184615395565b93508282890152613dff8389018583613ffc565b9c89019c97505050928601925050600101613d87565b5091979650505050505050565b6000815180845260208085018081965082840281019150828601855b85811015613e15578284038952815160a08151865286820151613e6388880182614052565b506040828101519087015260608083015190870152608091820151918601819052613e9081870183614026565b9a87019a9550505090840190600101613e3e565b60008284526020808501945082825b85811015613efd578135875282820135613ecc81615d4e565b60ff9081168885015260409083820135613ee581615d4e565b16908801526060968701969190910190600101613eb3565b509495945050505050565b6000815180845260208085019450808401835b83811015613efd578151805188528381015160ff908116858a0152604091820151169088015260609096019590820190600101613f1b565b6000815480845260208401935082825260208220825b82811015613f9157613f7b86836143eb565b6060959095019460029190910190600101613f69565b5093949350505050565b6000815180845260208085019450808401835b83811015613efd57815187529582019590820190600101613fae565b6000815480845260208085019450838352808320835b83811015613efd57815487529582019560019182019101613fe0565b60008284528282602086013780602084860101526020601f19601f85011685010190509392505050565b6000815180845261403e81602086016020860161573d565b601f01601f19169290920160200192915050565b6004811061406257614062615813565b9052565b6007811061406257614062615813565b6000813561408381615d2c565b6001600160a01b031683526020828101358185015260408084013581860152606080850135908601526140b96080850185615305565b60e060808801526140ce60e088018284613d23565b9150506140de60a0860186615305565b87830360a08901528083528483018582028401860183885b8481101561415557868303601f19018452813536879003603e1901811261411b578a8bfd5b86018035845261412d8a820182615305565b9150898b8601526141418a86018383613d23565b958b019594505050908801906001016140f6565b505061416460c08a018a61534d565b9750955089810360c08b015261417b818888613ea4565b9a9950505050505050505050565b60006001600160a01b038251168352602080830151818501526040808401518186015260608085015181870152608085015160e060808801526141cf60e0880182613f9b565b905060a086015187820360a08901528181518084528684019150868782028501018784019350885b8281101561425f57858203601f190184528451805183528901518983018990528051898401819052908a01908b90898501905b8083101561424a5783518252928c019260019290920191908c019061422a565b50968b0196958b0195935050506001016141f7565b5060c08a015197508a810360c08c01526142798189613f08565b9b9a5050505050505050505050565b60006001600160a01b038254168352600180830154602081818701526002915081850154604081818901526003870154915081606089015260e060808901526142d760e0890160048901613fca565b88810360a08a01526005880180548083529088528488209193508484019085810285018601895b8281101561436457868203601f19018452845482528782018690528985018054878401819052908c52888c20908c9060608501905b808310156143505783548252928d0192918d0191908b0190614333565b50968b0196958a01959350505089016142fe565b508b810360c08d015261437a8160068d01613f53565b9c9b505050505050505050505050565b60006001600160a01b03825416835260018201546020840152600282015460408401526003820154606084015260c060808401526143ce60c0840160048401613fca565b60ff6005840154166143e360a0860182614066565b509392505050565b805482526001015460ff808216602084015260089190911c16604090910152565b60609290921b6bffffffffffffffffffffffff19168252601482015260340190565b6001600160a01b0391909116815260200190565b60006001600160a01b03808816835280871660208401525060a0604083015261446e60a0830186614288565b8281036060840152614480818661438a565b9150508260808301529695505050505050565b60006001600160a01b038087168352608060208401526144b66080840187614288565b94166040830152506060015292915050565b6001600160a01b03929092168252602082015260400190565b6000606082016001600160a01b038616835260208581850152606060408501528185518084526080860191508287019350845b8181101561453057845183529383019391830191600101614514565b509098975050505050505050565b60006001600160a01b038716825260a0602083015261456060a083018761438a565b82810360408401526145728187614288565b60608401959095525050608001529392505050565b60006001600160a01b03851682526060602083015283356145a781615d2c565b6145b46060840182613d16565b506145c1602085016135d7565b6145ce6080840182613d16565b506145db604085016135d7565b6145e860a0840182613d16565b50606084013560c08301526146006080850185615395565b60e08085015261461561014085018284613ffc565b91505061462560a0860186615305565b605f19808685030161010087015261463e848385613d70565b935061464d60c08901896153da565b9250808685030161012087015250506146668282614076565b92505050826040830152949350505050565b6020808252825182820181905260009190848201906040850190845b818110156146b95783516001600160a01b031683529284019291840191600101614694565b50909695505050505050565b60208082528251828201819052600091906040908185019080840286018301878501865b8381101561453057603f19898403018552815160c06001600160a01b038251168552888201518986015287820151888601526060808301518187015250608080830151828288015261473d83880182613f9b565b9250505060a080830151925061475581870184614066565b5095880195935050908601906001016146e9565b60006040820160408352808554808352606092508285019150602083818302870101888652818620865b8481101561486257605f1989840301865260a082548452600160ff81850154166147bf87870182614052565b5060028401546040860152600384015489860152600484018260808701528a81546147e981615784565b94880185905260c0948185168015614808576001811461481c57614847565b60ff1983168a88015260e08a019350614847565b848f528a8f208f5b8381101561483f5781548c82018a0152908701908c01614824565b8b0188019450505b50505098870198955050506005929092019150600101614793565b50509501959095525091949350505050565b901515815260200190565b90815260200190565b918252602082015260400190565b92835260ff918216602084015216604082015260600190565b6001600160e01b031991909116815260200190565b6000602082526137246020830184614026565b60006001600160a01b038716825285602083015284604083015260806060830152614906608083018486613d23565b979650505050505050565b600060a0820190506001600160a01b0387168252856020830152846040830152836060830152612b766080830184614066565b60006001600160a01b038089168352808816602084015280871660408401525084606083015260c0608083015261497e60c0830185614026565b82810360a08401526149908185614189565b9998505050505050505050565b60208082526016908201527f6f6e6c7920496e67657374547970652e4d616e75616c00000000000000000000604082015260600190565b6020808252600a908201527f4f6e6c794b656570657200000000000000000000000000000000000000000000604082015260600190565b60208082526013908201527f496e67657374206e6f742043616c6c6261636b00000000000000000000000000604082015260600190565b60208082526010908201527f536f6c76657220686173206368696c6400000000000000000000000000000000604082015260600190565b60208082526026908201527f7061796f7574732e6c656e677468206d757374206d61746368206f7574636f6d60408201527f65536c6f74730000000000000000000000000000000000000000000000000000606082015260800190565b60208082526016908201527f436f6e646974696f6e206e6f7420457865637574656400000000000000000000604082015260600190565b60208082526015908201527f6d73672e73656e646572206e6f7420736f6c7665720000000000000000000000604082015260600190565b60208082526018908201527f496e76616c696420696e64657820746f20707265706172650000000000000000604082015260600190565b6020808252818101527f526563697069656e7420736c6f74207265717569726573207570646174696e67604082015260600190565b6020808252600b908201527f4f6e6c79204b6565706572000000000000000000000000000000000000000000604082015260600190565b60208082526015908201527f54696d656c6f636b207374696c6c206c6f636b65640000000000000000000000604082015260600190565b6020808252600f908201527f696e676573747320696e76616c69640000000000000000000000000000000000604082015260600190565b60208082526012908201527f496e76616c696420696e67657374547970650000000000000000000000000000604082015260600190565b60208082526018908201527f4e6f74204172626974726174696f6e5265717565737465640000000000000000604082015260600190565b6020808252602e908201527f496e697469616c697a61626c653a20636f6e747261637420697320616c72656160408201527f647920696e697469616c697a6564000000000000000000000000000000000000606082015260800190565b60208082526011908201527f536c6f7420696e76616c6964207665722e000000000000000000000000000000604082015260600190565b6020808252600f908201527f4f6e6c792061726269747261746f720000000000000000000000000000000000604082015260600190565b6020808252600e908201527f4b656570657220696e76616c6964000000000000000000000000000000000000604082015260600190565b60208082526014908201527f4f7574636f6d65206e6f742070726f706f736564000000000000000000000000604082015260600190565b60208082526013908201527f4e6f74204f7574636f6d6550726f706f73656400000000000000000000000000604082015260600190565b6020808252818101527f46756c66696c6c206f7574676f696e672063616c6c6261636b73206669727374604082015260600190565b6020808252818101527f46756c66696c6c20696e636f6d696e672063616c6c6261636b73206669727374604082015260600190565b60208082526016908201527f4e6f74204172626974726174696f6e50656e64696e6700000000000000000000604082015260600190565b6020808252600b908201527f4f6e6c79206b6565706572000000000000000000000000000000000000000000604082015260600190565b60208082526012908201527f4f6e6c79206b65657065722f706172656e740000000000000000000000000000604082015260600190565b6020808252600e908201527f547261636b696e67496420736574000000000000000000000000000000000000604082015260600190565b60208082526014908201527f536c6f742076657273696f6e20696e76616c6964000000000000000000000000604082015260600190565b6020808252600d908201527f6e6f7420496e6974696174656400000000000000000000000000000000000000604082015260600190565b600084825260406020830152613ab4604083018486613d23565b6000602082526001600160a01b038084511660208401528060208501511660408401525060408301516150376060840182613d16565b5060608301516080830152608083015160e060a084015261505c610100840182614026565b905060a0840151601f19808584030160c086015261507a8383613e22565b925060c08601519150808584030160e086015250613ab48282614189565b606081016150a682846143eb565b92915050565b9283526020830191909152604082015260600190565b6000808335601e198436030181126150d8578283fd5b83018035915067ffffffffffffffff8211156150f2578283fd5b602090810192508102360382131561362457600080fd5b6000808335601e1984360301811261511f578283fd5b83018035915067ffffffffffffffff821115615139578283fd5b602001915060608102360382131561362457600080fd5b6000808335601e19843603018112615166578283fd5b83018035915067ffffffffffffffff821115615180578283fd5b60200191503681900382131561362457600080fd5b60008235603e198336030181126151aa578182fd5b9190910192915050565b6000823560de198336030181126151aa578182fd5b60008235609e198336030181126151aa578182fd5b60405181810167ffffffffffffffff8111828210171561520057615200615829565b604052919050565b600067ffffffffffffffff82111561522257615222615829565b5060209081020190565b600067ffffffffffffffff82111561524657615246615829565b50601f01601f191660200190565b60009081526020902090565b6020841080156152b657601f8411600181146152875761528086856157b9565b83556152b0565b61529083615254565b6152a56020601f880104820160018301615446565b506152b0868461589f565b50610b85565b8160005260206000206020601f8701048101601f871680156152e0576152e081600019840161583f565b506152f36020601f880104830182615446565b50506001856002021782555050505050565b6000808335601e1984360301811261531b578283fd5b830160208101925035905067ffffffffffffffff81111561533b57600080fd5b60208102360383131561362457600080fd5b6000808335601e19843603018112615363578283fd5b830160208101925035905067ffffffffffffffff81111561538357600080fd5b60608102360383131561362457600080fd5b6000808335601e198436030181126153ab578283fd5b830160208101925035905067ffffffffffffffff8111156153cb57600080fd5b80360383131561362457600080fd5b6000823560de198336030181126153ef578182fd5b90910192915050565b6000821982111561540b5761540b6157fd565b500190565b600081600019048311821515161561542a5761542a6157fd565b500290565b600082821015615441576154416157fd565b500390565b5b81811015612b4a5760008155600101615447565b6801000000000000000083111561547457615474615829565b805483825580841015615512577f7fffffffffffffffffffffffffffffffffffffffffffffffffffffffffffffff60018183118116156154b6576154b66157fd565b60028287118216156154ca576154ca6157fd565b600085815260208120909350878202810190828602015b8082101561550c576154f5858684546158bd565b825561550385858401615853565b908201906154e1565b50505050505b508161551d82615254565b6000805b868110156155535761553d6155368588615195565b8385615c1d565b6020939093019260029290920191600101615521565b50505050505050565b6801000000000000000083111561557557615575615829565b80548382558084101561560d577f7fffffffffffffffffffffffffffffffffffffffffffffffffffffffffffffff60018183118116156155b7576155b76157fd565b60028287118216156155cb576155cb6157fd565b600085815260208120909350878202810190828602015b80821015615607576155f6858684546158bd565b8255848483015582820191506155e2565b50505050505b508161561882615254565b6000805b868110156155535761562f848385615ce5565b606093909301926002929092019160010161561c565b67ffffffffffffffff83111561565d5761565d615829565b6156678154615784565b600080601f8611601f8411818117156156865761568386615254565b92505b80156156b5576020601f890104830160208910156156a15750825b6156b36020601f880104850182615446565b505b5080600181146156e1576000945087156156d0578387013594505b6156da88866157b9565b8655615733565b601f198816945082845b8681101561570b57888601358255602095860195600190920191016156eb565b508886101561572857878501356000196008601f8c16021c191681555b506001600289020186555b5050505050505050565b60005b83811015615758578181015183820152602001615740565b83811115615767576000848401525b50505050565b60008161577c5761577c6157fd565b506000190190565b60028104600182168061579857607f821691505b6020821081141561370257634e487b7160e01b600052602260045260246000fd5b600019600883021c191660029091021790565b60006000198214156157e0576157e06157fd565b5060010190565b634e487b7160e01b600052600060045260246000fd5b634e487b7160e01b600052601160045260246000fd5b634e487b7160e01b600052602160045260246000fd5b634e487b7160e01b600052604160045260246000fd5b8054600019836020036008021c1681555050565b6801000000000000000082111561586c5761586c615829565b80548282558083101561194d576000828152602081208481019083015b80821015611bf857828255600182019150615889565b8060005260206000206158b38382546157b9565b9091556000905550565b60089190910291821b60001990921b9182169119161790565b6001600160a01b0382166001600160a01b03198254161781555050565b81356158fe81615d2c565b61590881836158d6565b5060016020808401358284015560408401356002840155606084013560038401556004830161593a60808601866150c2565b6801000000000000000081111561595357615953615829565b825481845580821015615978578360005284600020615976828201848301615446565b505b506000928352838320925b8181101561599e578235845592850192918401918501615983565b5050505050506159b160a08301836150c2565b6159bf81836005860161545b565b50506159ce60c0830183615109565b61576781836006860161555c565b81356159e781615d2c565b6159f181836158d6565b506001602080840135615a0381615d2c565b615a0f818486016158d6565b5060026040850135615a2081615d2c565b615a2c818387016158d6565b5060036060860135818601556004615a476080880188615150565b615a548183858b01615645565b50506005808701615a6860a08a018a6150c2565b68010000000000000000811115615a8157615a81615829565b825481845580821015615b55577f33333333333333333333333333333333333333333333333333333333333333338082118b1615615ac157615ac16157fd565b8083118b1615615ad357615ad36157fd565b506000848152898120838702810190878402015b80821015615b5157615afb838484546158bd565b8255828d8301558a8201615b11848583546158bd565b815550898201615b23848583546158bd565b90558189018054615b3381615784565b8015615b4557615b4586828486615260565b50505090870190615ae7565b5050505b50819650615b6283615254565b9550600094508492505b80831015615b9957615b88615b8188846151c9565b8688615c71565b958701959483019491880191615b6c565b505050505050505050612b4a615bb260c08401846151b4565b600683016158f3565b81358155600181016020830135615bd181615d4e565b615bdb8183615bf4565b506040830135615bea81615d4e565b6157678183615c05565b60ff821660ff198254161781555050565b805461ff008360081b1661ff00198216178255505050565b8115615c2b57615c2b6157e7565b8235815560018082016020615c42818701876150c2565b615c4c8185615853565b6000938452828420935b81811015610c35578235855593850193918301918501615c56565b8115615c7f57615c7f6157e7565b82358155600181016020840135615c9581615d41565b60048110615ca557615ca5615813565b60ff1982541660ff8216811783555050506040830135600282015560608301356003820155615cd76080840184615150565b610b85818360048601615645565b8115615cf357615cf36157e7565b82358155600181016020840135615d0981615d4e565b615d138183615bf4565b506040840135615d2281615d4e565b610b858183615c05565b6001600160a01b03811681146106d057600080fd5b600481106106d057600080fd5b60ff811681146106d057600080fdfea2646970667358221220d37bf3f6fd88a31a0488c58796690e6aabcf3b9bbcbe2989c170306c1b51731e64736f6c63430008000033",
  "linkReferences": {
    "contracts/SolverLib.sol": {
      "SolverLib": [
        {
          "length": 20,
          "start": 1621
        },
        {
          "length": 20,
          "start": 1912
        },
        {
          "length": 20,
          "start": 2827
        },
        {
          "length": 20,
          "start": 3811
        },
        {
          "length": 20,
          "start": 4163
        },
        {
          "length": 20,
          "start": 4883
        },
        {
          "length": 20,
          "start": 5101
        },
        {
          "length": 20,
          "start": 6350
        },
        {
          "length": 20,
          "start": 7036
        },
        {
          "length": 20,
          "start": 7686
        },
        {
          "length": 20,
          "start": 8160
        },
        {
          "length": 20,
          "start": 8513
        },
        {
          "length": 20,
          "start": 12691
        }
      ]
    }
  },
  "deployedLinkReferences": {
    "contracts/SolverLib.sol": {
      "SolverLib": [
        {
          "length": 20,
          "start": 1588
        },
        {
          "length": 20,
          "start": 1879
        },
        {
          "length": 20,
          "start": 2794
        },
        {
          "length": 20,
          "start": 3778
        },
        {
          "length": 20,
          "start": 4130
        },
        {
          "length": 20,
          "start": 4850
        },
        {
          "length": 20,
          "start": 5068
        },
        {
          "length": 20,
          "start": 6317
        },
        {
          "length": 20,
          "start": 7003
        },
        {
          "length": 20,
          "start": 7653
        },
        {
          "length": 20,
          "start": 8127
        },
        {
          "length": 20,
          "start": 8480
        },
        {
          "length": 20,
          "start": 12658
        }
      ]
    }
  }
}