{
  "_format": "hh-sol-artifact-1",
  "contractName": "BasicSolverV1",
  "sourceName": "contracts/BasicSolverV1.sol",
  "abi": [
    {
      "anonymous": false,
      "inputs": [
        {
          "indexed": false,
          "internalType": "bytes32",
          "name": "conditionId",
          "type": "bytes32"
        }
      ],
      "name": "ChangedStatus",
      "type": "event"
    },
    {
      "anonymous": false,
      "inputs": [
        {
          "indexed": false,
          "internalType": "bytes32",
          "name": "conditionId",
          "type": "bytes32"
        }
      ],
      "name": "DeliveredNullArbitration",
      "type": "event"
    },
    {
      "anonymous": false,
      "inputs": [
        {
          "indexed": false,
          "internalType": "address",
          "name": "child",
          "type": "address"
        }
      ],
      "name": "DeployedChild",
      "type": "event"
    },
    {
      "anonymous": false,
      "inputs": [],
      "name": "IngestedData",
      "type": "event"
    },
    {
      "anonymous": false,
      "inputs": [
        {
          "indexed": false,
          "internalType": "address",
          "name": "solver",
          "type": "address"
        },
        {
          "indexed": false,
          "internalType": "uint256",
          "name": "solveIndex",
          "type": "uint256"
        }
      ],
      "name": "PreparedSolve",
      "type": "event"
    },
    {
      "inputs": [
        {
          "internalType": "bytes32",
          "name": "_slot",
          "type": "bytes32"
        },
        {
          "internalType": "bytes",
          "name": "_data",
          "type": "bytes"
        }
      ],
      "name": "addData",
      "outputs": [],
      "stateMutability": "nonpayable",
      "type": "function"
    },
    {
      "inputs": [
        {
          "internalType": "uint256",
          "name": "_index",
          "type": "uint256"
        }
      ],
      "name": "addressFromChainIndex",
      "outputs": [
        {
          "internalType": "address",
          "name": "_address",
          "type": "address"
        }
      ],
      "stateMutability": "view",
      "type": "function"
    },
    {
      "inputs": [
        {
          "internalType": "uint256",
          "name": "_index",
          "type": "uint256"
        }
      ],
      "name": "allocationsValid",
      "outputs": [
        {
          "internalType": "bool",
          "name": "",
          "type": "bool"
        }
      ],
      "stateMutability": "view",
      "type": "function"
    },
    {
      "inputs": [
        {
          "internalType": "uint256",
          "name": "_index",
          "type": "uint256"
        },
        {
          "internalType": "uint256[]",
          "name": "payouts",
          "type": "uint256[]"
        }
      ],
      "name": "arbitrate",
      "outputs": [],
      "stateMutability": "nonpayable",
      "type": "function"
    },
    {
      "inputs": [
        {
          "internalType": "uint256",
          "name": "_index",
          "type": "uint256"
        }
      ],
      "name": "arbitrateNull",
      "outputs": [],
      "stateMutability": "nonpayable",
      "type": "function"
    },
    {
      "inputs": [
        {
          "internalType": "uint256",
          "name": "_index",
          "type": "uint256"
        }
      ],
      "name": "arbitrationRequested",
      "outputs": [],
      "stateMutability": "nonpayable",
      "type": "function"
    },
    {
      "inputs": [],
      "name": "arbitrator",
      "outputs": [
        {
          "internalType": "address",
          "name": "",
          "type": "address"
        }
      ],
      "stateMutability": "view",
      "type": "function"
    },
    {
      "inputs": [],
      "name": "chainChild",
      "outputs": [
        {
          "internalType": "address",
          "name": "",
          "type": "address"
        }
      ],
      "stateMutability": "view",
      "type": "function"
    },
    {
      "inputs": [],
      "name": "chainIndex",
      "outputs": [
        {
          "internalType": "uint256",
          "name": "",
          "type": "uint256"
        }
      ],
      "stateMutability": "view",
      "type": "function"
    },
    {
      "inputs": [],
      "name": "chainParent",
      "outputs": [
        {
          "internalType": "address",
          "name": "",
          "type": "address"
        }
      ],
      "stateMutability": "view",
      "type": "function"
    },
    {
      "inputs": [],
      "name": "collateralBalance",
      "outputs": [
        {
          "internalType": "uint256",
          "name": "balance",
          "type": "uint256"
        }
      ],
      "stateMutability": "view",
      "type": "function"
    },
    {
      "inputs": [
        {
          "internalType": "uint256",
          "name": "",
          "type": "uint256"
        }
      ],
      "name": "conditions",
      "outputs": [
        {
          "internalType": "contract IERC20",
          "name": "collateralToken",
          "type": "address"
        },
        {
          "internalType": "bytes32",
          "name": "questionId",
          "type": "bytes32"
        },
        {
          "internalType": "bytes32",
          "name": "parentCollectionId",
          "type": "bytes32"
        },
        {
          "internalType": "bytes32",
          "name": "conditionId",
          "type": "bytes32"
        },
        {
          "internalType": "enum SolverLib.Status",
          "name": "status",
          "type": "uint8"
        }
      ],
      "stateMutability": "view",
      "type": "function"
    },
    {
      "inputs": [],
      "name": "config",
      "outputs": [
        {
          "internalType": "contract Solver",
          "name": "implementation",
          "type": "address"
        },
        {
          "internalType": "address",
          "name": "keeper",
          "type": "address"
        },
        {
          "internalType": "address",
          "name": "arbitrator",
          "type": "address"
        },
        {
          "internalType": "uint256",
          "name": "timelockSeconds",
          "type": "uint256"
        },
        {
          "internalType": "bytes",
          "name": "data",
          "type": "bytes"
        },
        {
          "components": [
            {
              "internalType": "contract IERC20",
              "name": "collateralToken",
              "type": "address"
            },
            {
              "internalType": "uint256",
              "name": "outcomeSlots",
              "type": "uint256"
            },
            {
              "internalType": "uint256",
              "name": "parentCollectionIndexSet",
              "type": "uint256"
            },
            {
              "internalType": "bytes32",
              "name": "amountSlot",
              "type": "bytes32"
            },
            {
              "internalType": "uint256[]",
              "name": "partition",
              "type": "uint256[]"
            },
            {
              "components": [
                {
                  "internalType": "bytes32",
                  "name": "recipientAddressSlot",
                  "type": "bytes32"
                },
                {
                  "internalType": "bytes32[]",
                  "name": "recipientAmountSlots",
                  "type": "bytes32[]"
                }
              ],
              "internalType": "struct SolverLib.Allocation[]",
              "name": "allocations",
              "type": "tuple[]"
            },
            {
              "components": [
                {
                  "internalType": "bytes32",
                  "name": "digest",
                  "type": "bytes32"
                },
                {
                  "internalType": "uint8",
                  "name": "hashFunction",
                  "type": "uint8"
                },
                {
                  "internalType": "uint8",
                  "name": "size",
                  "type": "uint8"
                }
              ],
              "internalType": "struct SolverLib.Multihash[]",
              "name": "outcomeURIs",
              "type": "tuple[]"
            }
          ],
          "internalType": "struct SolverLib.ConditionBase",
          "name": "conditionBase",
          "type": "tuple"
        }
      ],
      "stateMutability": "view",
      "type": "function"
    },
    {
      "inputs": [
        {
          "internalType": "uint256",
          "name": "_index",
          "type": "uint256"
        }
      ],
      "name": "confirmPayouts",
      "outputs": [],
      "stateMutability": "nonpayable",
      "type": "function"
    },
    {
      "inputs": [
        {
          "components": [
            {
              "internalType": "contract Solver",
              "name": "implementation",
              "type": "address"
            },
            {
              "internalType": "address",
              "name": "keeper",
              "type": "address"
            },
            {
              "internalType": "address",
              "name": "arbitrator",
              "type": "address"
            },
            {
              "internalType": "uint256",
              "name": "timelockSeconds",
              "type": "uint256"
            },
            {
              "internalType": "bytes",
              "name": "data",
              "type": "bytes"
            },
            {
              "components": [
                {
                  "internalType": "uint256",
                  "name": "executions",
                  "type": "uint256"
                },
                {
                  "internalType": "enum SolverLib.IngestType",
                  "name": "ingestType",
                  "type": "uint8"
                },
                {
                  "internalType": "bytes32",
                  "name": "slot",
                  "type": "bytes32"
                },
                {
                  "internalType": "uint256",
                  "name": "solverIndex",
                  "type": "uint256"
                },
                {
                  "internalType": "bytes",
                  "name": "data",
                  "type": "bytes"
                }
              ],
              "internalType": "struct SolverLib.Ingest[]",
              "name": "ingests",
              "type": "tuple[]"
            },
            {
              "components": [
                {
                  "internalType": "contract IERC20",
                  "name": "collateralToken",
                  "type": "address"
                },
                {
                  "internalType": "uint256",
                  "name": "outcomeSlots",
                  "type": "uint256"
                },
                {
                  "internalType": "uint256",
                  "name": "parentCollectionIndexSet",
                  "type": "uint256"
                },
                {
                  "internalType": "bytes32",
                  "name": "amountSlot",
                  "type": "bytes32"
                },
                {
                  "internalType": "uint256[]",
                  "name": "partition",
                  "type": "uint256[]"
                },
                {
                  "components": [
                    {
                      "internalType": "bytes32",
                      "name": "recipientAddressSlot",
                      "type": "bytes32"
                    },
                    {
                      "internalType": "bytes32[]",
                      "name": "recipientAmountSlots",
                      "type": "bytes32[]"
                    }
                  ],
                  "internalType": "struct SolverLib.Allocation[]",
                  "name": "allocations",
                  "type": "tuple[]"
                },
                {
                  "components": [
                    {
                      "internalType": "bytes32",
                      "name": "digest",
                      "type": "bytes32"
                    },
                    {
                      "internalType": "uint8",
                      "name": "hashFunction",
                      "type": "uint8"
                    },
                    {
                      "internalType": "uint8",
                      "name": "size",
                      "type": "uint8"
                    }
                  ],
                  "internalType": "struct SolverLib.Multihash[]",
                  "name": "outcomeURIs",
                  "type": "tuple[]"
                }
              ],
              "internalType": "struct SolverLib.ConditionBase",
              "name": "conditionBase",
              "type": "tuple"
            }
          ],
          "internalType": "struct SolverLib.Config",
          "name": "_config",
          "type": "tuple"
        }
      ],
      "name": "deployChild",
      "outputs": [
        {
          "internalType": "address",
          "name": "",
          "type": "address"
        }
      ],
      "stateMutability": "nonpayable",
      "type": "function"
    },
    {
      "inputs": [
        {
          "internalType": "uint256",
          "name": "_index",
          "type": "uint256"
        }
      ],
      "name": "executeSolve",
      "outputs": [],
      "stateMutability": "nonpayable",
      "type": "function"
    },
    {
      "inputs": [
        {
          "internalType": "bytes32",
          "name": "_slot",
          "type": "bytes32"
        }
      ],
      "name": "getAllData",
      "outputs": [
        {
          "internalType": "bytes[]",
          "name": "data",
          "type": "bytes[]"
        }
      ],
      "stateMutability": "view",
      "type": "function"
    },
    {
      "inputs": [
        {
          "internalType": "bytes32",
          "name": "_slot",
          "type": "bytes32"
        }
      ],
      "name": "getCallbackOutput",
      "outputs": [
        {
          "internalType": "bytes",
          "name": "data",
          "type": "bytes"
        }
      ],
      "stateMutability": "view",
      "type": "function"
    },
    {
      "inputs": [],
      "name": "getConditions",
      "outputs": [
        {
          "components": [
            {
              "internalType": "contract IERC20",
              "name": "collateralToken",
              "type": "address"
            },
            {
              "internalType": "bytes32",
              "name": "questionId",
              "type": "bytes32"
            },
            {
              "internalType": "bytes32",
              "name": "parentCollectionId",
              "type": "bytes32"
            },
            {
              "internalType": "bytes32",
              "name": "conditionId",
              "type": "bytes32"
            },
            {
              "internalType": "uint256[]",
              "name": "payouts",
              "type": "uint256[]"
            },
            {
              "internalType": "enum SolverLib.Status",
              "name": "status",
              "type": "uint8"
            }
          ],
          "internalType": "struct SolverLib.Condition[]",
          "name": "",
          "type": "tuple[]"
        }
      ],
      "stateMutability": "view",
      "type": "function"
    },
    {
      "inputs": [],
      "name": "getConfig",
      "outputs": [
        {
          "components": [
            {
              "internalType": "contract Solver",
              "name": "implementation",
              "type": "address"
            },
            {
              "internalType": "address",
              "name": "keeper",
              "type": "address"
            },
            {
              "internalType": "address",
              "name": "arbitrator",
              "type": "address"
            },
            {
              "internalType": "uint256",
              "name": "timelockSeconds",
              "type": "uint256"
            },
            {
              "internalType": "bytes",
              "name": "data",
              "type": "bytes"
            },
            {
              "components": [
                {
                  "internalType": "uint256",
                  "name": "executions",
                  "type": "uint256"
                },
                {
                  "internalType": "enum SolverLib.IngestType",
                  "name": "ingestType",
                  "type": "uint8"
                },
                {
                  "internalType": "bytes32",
                  "name": "slot",
                  "type": "bytes32"
                },
                {
                  "internalType": "uint256",
                  "name": "solverIndex",
                  "type": "uint256"
                },
                {
                  "internalType": "bytes",
                  "name": "data",
                  "type": "bytes"
                }
              ],
              "internalType": "struct SolverLib.Ingest[]",
              "name": "ingests",
              "type": "tuple[]"
            },
            {
              "components": [
                {
                  "internalType": "contract IERC20",
                  "name": "collateralToken",
                  "type": "address"
                },
                {
                  "internalType": "uint256",
                  "name": "outcomeSlots",
                  "type": "uint256"
                },
                {
                  "internalType": "uint256",
                  "name": "parentCollectionIndexSet",
                  "type": "uint256"
                },
                {
                  "internalType": "bytes32",
                  "name": "amountSlot",
                  "type": "bytes32"
                },
                {
                  "internalType": "uint256[]",
                  "name": "partition",
                  "type": "uint256[]"
                },
                {
                  "components": [
                    {
                      "internalType": "bytes32",
                      "name": "recipientAddressSlot",
                      "type": "bytes32"
                    },
                    {
                      "internalType": "bytes32[]",
                      "name": "recipientAmountSlots",
                      "type": "bytes32[]"
                    }
                  ],
                  "internalType": "struct SolverLib.Allocation[]",
                  "name": "allocations",
                  "type": "tuple[]"
                },
                {
                  "components": [
                    {
                      "internalType": "bytes32",
                      "name": "digest",
                      "type": "bytes32"
                    },
                    {
                      "internalType": "uint8",
                      "name": "hashFunction",
                      "type": "uint8"
                    },
                    {
                      "internalType": "uint8",
                      "name": "size",
                      "type": "uint8"
                    }
                  ],
                  "internalType": "struct SolverLib.Multihash[]",
                  "name": "outcomeURIs",
                  "type": "tuple[]"
                }
              ],
              "internalType": "struct SolverLib.ConditionBase",
              "name": "conditionBase",
              "type": "tuple"
            }
          ],
          "internalType": "struct SolverLib.Config",
          "name": "",
          "type": "tuple"
        }
      ],
      "stateMutability": "view",
      "type": "function"
    },
    {
      "inputs": [
        {
          "internalType": "bytes32",
          "name": "_slot",
          "type": "bytes32"
        }
      ],
      "name": "getData",
      "outputs": [
        {
          "internalType": "bytes",
          "name": "data",
          "type": "bytes"
        }
      ],
      "stateMutability": "view",
      "type": "function"
    },
    {
      "inputs": [
        {
          "internalType": "bytes32",
          "name": "slot",
          "type": "bytes32"
        }
      ],
      "name": "getOutgoingCallbacks",
      "outputs": [
        {
          "internalType": "address[]",
          "name": "",
          "type": "address[]"
        }
      ],
      "stateMutability": "view",
      "type": "function"
    },
    {
      "inputs": [
        {
          "internalType": "uint256",
          "name": "conditionIndex",
          "type": "uint256"
        }
      ],
      "name": "getStatus",
      "outputs": [
        {
          "internalType": "enum SolverLib.Status",
          "name": "status",
          "type": "uint8"
        }
      ],
      "stateMutability": "view",
      "type": "function"
    },
    {
      "inputs": [
        {
          "internalType": "bytes32",
          "name": "_slot",
          "type": "bytes32"
        }
      ],
      "name": "handleCallback",
      "outputs": [],
      "stateMutability": "nonpayable",
      "type": "function"
    },
    {
      "inputs": [],
      "name": "ingestsValid",
      "outputs": [
        {
          "internalType": "bool",
          "name": "",
          "type": "bool"
        }
      ],
      "stateMutability": "view",
      "type": "function"
    },
    {
      "inputs": [
        {
          "internalType": "address",
          "name": "_deployer",
          "type": "address"
        },
        {
          "internalType": "address",
          "name": "_ctfAddress",
          "type": "address"
        },
        {
          "internalType": "address",
          "name": "_chainParent",
          "type": "address"
        },
        {
          "internalType": "uint256",
          "name": "_chainIndex",
          "type": "uint256"
        },
        {
          "components": [
            {
              "internalType": "contract Solver",
              "name": "implementation",
              "type": "address"
            },
            {
              "internalType": "address",
              "name": "keeper",
              "type": "address"
            },
            {
              "internalType": "address",
              "name": "arbitrator",
              "type": "address"
            },
            {
              "internalType": "uint256",
              "name": "timelockSeconds",
              "type": "uint256"
            },
            {
              "internalType": "bytes",
              "name": "data",
              "type": "bytes"
            },
            {
              "components": [
                {
                  "internalType": "uint256",
                  "name": "executions",
                  "type": "uint256"
                },
                {
                  "internalType": "enum SolverLib.IngestType",
                  "name": "ingestType",
                  "type": "uint8"
                },
                {
                  "internalType": "bytes32",
                  "name": "slot",
                  "type": "bytes32"
                },
                {
                  "internalType": "uint256",
                  "name": "solverIndex",
                  "type": "uint256"
                },
                {
                  "internalType": "bytes",
                  "name": "data",
                  "type": "bytes"
                }
              ],
              "internalType": "struct SolverLib.Ingest[]",
              "name": "ingests",
              "type": "tuple[]"
            },
            {
              "components": [
                {
                  "internalType": "contract IERC20",
                  "name": "collateralToken",
                  "type": "address"
                },
                {
                  "internalType": "uint256",
                  "name": "outcomeSlots",
                  "type": "uint256"
                },
                {
                  "internalType": "uint256",
                  "name": "parentCollectionIndexSet",
                  "type": "uint256"
                },
                {
                  "internalType": "bytes32",
                  "name": "amountSlot",
                  "type": "bytes32"
                },
                {
                  "internalType": "uint256[]",
                  "name": "partition",
                  "type": "uint256[]"
                },
                {
                  "components": [
                    {
                      "internalType": "bytes32",
                      "name": "recipientAddressSlot",
                      "type": "bytes32"
                    },
                    {
                      "internalType": "bytes32[]",
                      "name": "recipientAmountSlots",
                      "type": "bytes32[]"
                    }
                  ],
                  "internalType": "struct SolverLib.Allocation[]",
                  "name": "allocations",
                  "type": "tuple[]"
                },
                {
                  "components": [
                    {
                      "internalType": "bytes32",
                      "name": "digest",
                      "type": "bytes32"
                    },
                    {
                      "internalType": "uint8",
                      "name": "hashFunction",
                      "type": "uint8"
                    },
                    {
                      "internalType": "uint8",
                      "name": "size",
                      "type": "uint8"
                    }
                  ],
                  "internalType": "struct SolverLib.Multihash[]",
                  "name": "outcomeURIs",
                  "type": "tuple[]"
                }
              ],
              "internalType": "struct SolverLib.ConditionBase",
              "name": "conditionBase",
              "type": "tuple"
            }
          ],
          "internalType": "struct SolverLib.Config",
          "name": "_solverConfig",
          "type": "tuple"
        }
      ],
      "name": "init",
      "outputs": [],
      "stateMutability": "nonpayable",
      "type": "function"
    },
    {
      "inputs": [
        {
          "internalType": "address",
          "name": "account",
          "type": "address"
        },
        {
          "internalType": "uint256",
          "name": "conditionIndex",
          "type": "uint256"
        }
      ],
      "name": "isRecipient",
      "outputs": [
        {
          "internalType": "bool",
          "name": "",
          "type": "bool"
        }
      ],
      "stateMutability": "view",
      "type": "function"
    },
    {
      "inputs": [],
      "name": "keeper",
      "outputs": [
        {
          "internalType": "address",
          "name": "",
          "type": "address"
        }
      ],
      "stateMutability": "view",
      "type": "function"
    },
    {
      "inputs": [
        {
          "internalType": "address",
          "name": "operator",
          "type": "address"
        },
        {
          "internalType": "address",
          "name": "from",
          "type": "address"
        },
        {
          "internalType": "uint256[]",
          "name": "ids",
          "type": "uint256[]"
        },
        {
          "internalType": "uint256[]",
          "name": "values",
          "type": "uint256[]"
        },
        {
          "internalType": "bytes",
          "name": "data",
          "type": "bytes"
        }
      ],
      "name": "onERC1155BatchReceived",
      "outputs": [
        {
          "internalType": "bytes4",
          "name": "",
          "type": "bytes4"
        }
      ],
      "stateMutability": "nonpayable",
      "type": "function"
    },
    {
      "inputs": [
        {
          "internalType": "address",
          "name": "operator",
          "type": "address"
        },
        {
          "internalType": "address",
          "name": "from",
          "type": "address"
        },
        {
          "internalType": "uint256",
          "name": "id",
          "type": "uint256"
        },
        {
          "internalType": "uint256",
          "name": "value",
          "type": "uint256"
        },
        {
          "internalType": "bytes",
          "name": "data",
          "type": "bytes"
        }
      ],
      "name": "onERC1155Received",
      "outputs": [
        {
          "internalType": "bytes4",
          "name": "",
          "type": "bytes4"
        }
      ],
      "stateMutability": "nonpayable",
      "type": "function"
    },
    {
      "inputs": [
        {
          "internalType": "uint256",
          "name": "_index",
          "type": "uint256"
        }
      ],
      "name": "prepareSolve",
      "outputs": [],
      "stateMutability": "nonpayable",
      "type": "function"
    },
    {
      "inputs": [
        {
          "internalType": "uint256",
          "name": "_index",
          "type": "uint256"
        },
        {
          "internalType": "uint256[]",
          "name": "_payouts",
          "type": "uint256[]"
        }
      ],
      "name": "proposePayouts",
      "outputs": [],
      "stateMutability": "nonpayable",
      "type": "function"
    },
    {
      "inputs": [
        {
          "internalType": "contract IERC20",
          "name": "_collateralToken",
          "type": "address"
        },
        {
          "internalType": "bytes32",
          "name": "_parentCollectionId",
          "type": "bytes32"
        },
        {
          "internalType": "bytes32",
          "name": "_conditionId",
          "type": "bytes32"
        },
        {
          "internalType": "uint256[]",
          "name": "_indexSets",
          "type": "uint256[]"
        }
      ],
      "name": "redeemPosition",
      "outputs": [],
      "stateMutability": "nonpayable",
      "type": "function"
    },
    {
      "inputs": [
        {
          "internalType": "bytes32",
          "name": "_slot",
          "type": "bytes32"
        },
        {
          "internalType": "uint256",
          "name": "_chainIndex",
          "type": "uint256"
        }
      ],
      "name": "registerOutgoingCallback",
      "outputs": [],
      "stateMutability": "nonpayable",
      "type": "function"
    },
    {
      "inputs": [
        {
          "internalType": "bytes32",
          "name": "_trackingId",
          "type": "bytes32"
        }
      ],
      "name": "setTrackingId",
      "outputs": [],
      "stateMutability": "nonpayable",
      "type": "function"
    },
    {
      "inputs": [
        {
          "internalType": "bytes4",
          "name": "interfaceId",
          "type": "bytes4"
        }
      ],
      "name": "supportsInterface",
      "outputs": [
        {
          "internalType": "bool",
          "name": "",
          "type": "bool"
        }
      ],
      "stateMutability": "view",
      "type": "function"
    },
    {
      "inputs": [
        {
          "internalType": "uint256",
          "name": "",
          "type": "uint256"
        }
      ],
      "name": "timelocks",
      "outputs": [
        {
          "internalType": "uint256",
          "name": "",
          "type": "uint256"
        }
      ],
      "stateMutability": "view",
      "type": "function"
    },
    {
      "inputs": [],
      "name": "trackingId",
      "outputs": [
        {
          "internalType": "bytes32",
          "name": "",
          "type": "bytes32"
        }
      ],
      "stateMutability": "view",
      "type": "function"
    }
  ],
  "bytecode": "0x608060405234801561001057600080fd5b5061581680620000216000396000f3fe608060405234801561001057600080fd5b50600436106101c25760003560e01c806301ffc9a7146101c75780630944e26e146101f0578063098b37f7146102105780630d06101a146102305780630d7e149f146102455780630d8d397514610265578063187825591461027857806326c500071461028b5780633837b05e146102af5780633f4fb5aa146102c257806344c3b607146102e257806348cbb2fc146102f55780634a77234e146102fd5780634dab5e69146103105780634e46f22314610323578063506da0b81461033657806354f6127f1461034957806355dd978b1461035c5780635c622a0e146103645780636cc6cde11461038457806379502c551461038c5780637c123627146103a657806380b204b7146103bb57806380c2dde2146103ce5780638602ce1b146103d657806387dfee57146103e95780638bc3a08f146103fc578063999925061461040f578063aced166114610417578063b992db0f1461041f578063bc197c8114610432578063c08d6f0114610452578063c3f909d414610472578063c98c05b714610487578063de3a23c51461048f578063df33cc51146104a2578063ea8221a9146104b5578063f23a6e61146104bd575b600080fd5b6101da6101d5366004613774565b6104d0565b6040516101e791906144ee565b60405180910390f35b6102036101fe366004613933565b6104fd565b6040516101e79190614059565b61022361021e3660046136a5565b610623565b6040516101e7919061428f565b61024361023e3660046136a5565b61068f565b005b6102586102533660046136a5565b6106cb565b6040516101e791906144f9565b6102436102733660046136a5565b6106ec565b61024361028636600461380e565b610857565b61029e6102993660046136a5565b6108f1565b6040516101e7959493929190614571565b6102036102bd3660046136a5565b61093f565b6102d56102d03660046136a5565b610a6d565b6040516101e79190614525565b6101da6102f03660046136a5565b610b69565b610258610bf9565b61024361030b3660046136a5565b610bff565b61024361031e3660046136a5565b610ee2565b6102436103313660046136a5565b611081565b6101da61034436600461365a565b61115c565b6102d56103573660046136a5565b6112c0565b6102036112e0565b6103776103723660046136a5565b6112ef565b6040516101e791906145fd565b61020361132f565b61039461133e565b6040516101e7969594939291906145a3565b6103ae6115c9565b6040516101e7919061433c565b6102436103c936600461396d565b6116f8565b610203611860565b6102436103e43660046136d5565b61186f565b6102436103f73660046139b6565b611944565b61024361040a3660046134ab565b611afe565b6101da611c9f565b610203611d33565b61024361042d3660046136a5565b611d42565b610445610440366004613527565b611f22565b6040516101e79190614510565b6104656104603660046136a5565b611f36565b6040516101e791906142dc565b61047a61201b565b6040516101e79190614ab3565b610258612434565b61024361049d3660046136a5565b6124b5565b6102436104b0366004613753565b612827565b610258612932565b6104456104cb3660046135e1565b612938565b60006001600160e01b03198216630271189760e51b14806104f557506104f58261294b565b90505b919050565b6004546000906001600160a01b031633146105335760405162461bcd60e51b815260040161052a906149f2565b60405180910390fd5b6012546001600160a01b03161561055c5760405162461bcd60e51b815260040161052a9061468c565b6000546013546015546040516386a2d22760e01b815273__$94d7d2f22770e4b0d1a2b99fb2812308e2$__936386a2d227936105ae93620100009092046001600160a01b031692889290600401614199565b60206040518083038186803b1580156105c657600080fd5b505af41580156105da573d6000803e3d6000fd5b505050506040513d601f19601f820116820180604052508101906105fe919061348f565b601280546001600160a01b0319166001600160a01b0392831617908190551692915050565b60008181526018602090815260409182902080548351818402810184019094528084526060939283018282801561068357602002820191906000526020600020905b81546001600160a01b03168152600190910190602001808311610665575b50505050509050919050565b601554156106af5760405162461bcd60e51b815260040161052a90614a43565b6002546001600160a01b031633146106c657600080fd5b601555565b601481815481106106db57600080fd5b600091825260209091200154905081565b6014818154811061070d57634e487b7160e01b600052603260045260246000fd5b906000526020600020015442116107365760405162461bcd60e51b815260040161052a906147b2565b60026010828154811061075957634e487b7160e01b600052603260045260246000fd5b60009182526020909120600560069092020181015460ff169081111561078f57634e487b7160e01b600052602160045260246000fd5b146107ac5760405162461bcd60e51b815260040161052a90614932565b6001546010805473__$94d7d2f22770e4b0d1a2b99fb2812308e2$__926385c92867926001600160a01b0390911691859081106107f957634e487b7160e01b600052603260045260246000fd5b90600052602060002090600602016040518363ffffffff1660e01b8152600401610824929190614123565b60006040518083038186803b15801561083c57600080fd5b505af4158015610850573d6000803e3d6000fd5b5050505050565b6004546001600160a01b031633146108815760405162461bcd60e51b815260040161052a9061478d565b600154604051626dc0df60e21b81526001600160a01b03909116906301b7037c906108b89088908890889088908890600401614538565b600060405180830381600087803b1580156108d257600080fd5b505af11580156108e6573d6000803e3d6000fd5b505050505050505050565b6010818154811061090157600080fd5b6000918252602090912060069091020180546001820154600283015460038401546005909401546001600160a01b0390931694509092909160ff1685565b60006013548214156109525750306104f8565b6013548210156109e357601154604051631c1bd82f60e11b81526001600160a01b0390911690633837b05e9061098c9085906004016144f9565b60206040518083038186803b1580156109a457600080fd5b505afa1580156109b8573d6000803e3d6000fd5b505050506040513d601f19601f820116820180604052508101906109dc919061348f565b90506104f8565b6013548211156104f857601254604051631c1bd82f60e11b81526001600160a01b0390911690633837b05e90610a1d9085906004016144f9565b60206040518083038186803b158015610a3557600080fd5b505afa158015610a49573d6000803e3d6000fd5b505050506040513d601f19601f820116820180604052508101906104f5919061348f565b6010546000828152601a602052604090205460609114610a9f5760405162461bcd60e51b815260040161052a906148b6565b6000828152601a602052604090208054610abb90600190614f1d565b81548110610ad957634e487b7160e01b600052603260045260246000fd5b906000526020600020018054610aee90615241565b80601f0160208091040260200160405190810160405280929190818152602001828054610b1a90615241565b80156106835780601f10610b3c57610100808354040283529160200191610683565b820191906000526020600020905b815481529060010190602001808311610b4a5750939695505050505050565b6040516336d39c6160e11b815260009073__$94d7d2f22770e4b0d1a2b99fb2812308e2$__90636da738c290610ba9908590601a90600990600401614b8d565b60206040518083038186803b158015610bc157600080fd5b505af4158015610bd5573d6000803e3d6000fd5b505050506040513d601f19601f820116820180604052508101906104f59190613685565b60155481565b60105415610c46576004546001600160a01b0316331480610c2a57506011546001600160a01b031633145b610c465760405162461bcd60e51b815260040161052a90614a17565b6010548114610c675760405162461bcd60e51b815260040161052a9061475b565b60175415610c875760405162461bcd60e51b815260040161052a90614960565b60165415610ca75760405162461bcd60e51b815260040161052a90614995565b6001546011546010805460405163699e0add60e01b8152919373__$94d7d2f22770e4b0d1a2b99fb2812308e2$__9363699e0add93610cf9936001600160a01b0393841693600993169160040161406d565b60006040518083038186803b158015610d1157600080fd5b505af4158015610d25573d6000803e3d6000fd5b505050506040513d6000823e601f3d908101601f19168201604052610d4d9190810190613875565b8154600180820184556000938452602093849020835160069093020180546001600160a01b0319166001600160a01b03909316929092178255828401519082015560408201516002820155606082015160038201556080820151805192939192610dbd92600485019201906131c4565b5060a08201518160050160006101000a81548160ff02191690836005811115610df657634e487b7160e01b600052602160045260246000fd5b0217905550506014805460018101825560009182527fce6d7b5282bd9a3661ae061feed1dbda4e52ab073b1f9285be6e155d9c38d4ec015550610e37612964565b7f152ec8ae15d347b2d2a8f0858caa29bcaaa0906749a1f43e08bfe799834602403082604051610e68929190614123565b60405180910390a16012546001600160a01b031615610edf5760125460405163253b91a760e11b81526001600160a01b0390911690634a77234e90610eb19084906004016144f9565b600060405180830381600087803b158015610ecb57600080fd5b505af1158015610850573d6000803e3d6000fd5b50565b6005546001600160a01b03163314610f0c5760405162461bcd60e51b815260040161052a906148e1565b600260108281548110610f2f57634e487b7160e01b600052603260045260246000fd5b60009182526020909120600560069092020181015460ff1690811115610f6557634e487b7160e01b600052602160045260246000fd5b1480610fc75750600360108281548110610f8f57634e487b7160e01b600052603260045260246000fd5b60009182526020909120600560069092020181015460ff1690811115610fc557634e487b7160e01b600052602160045260246000fd5b145b610fe35760405162461bcd60e51b815260040161052a906149ca565b73__$94d7d2f22770e4b0d1a2b99fb2812308e2$__6324b286026010838154811061101e57634e487b7160e01b600052603260045260246000fd5b90600052602060002090600602016040518263ffffffff1660e01b815260040161104891906144f9565b60006040518083038186803b15801561106057600080fd5b505af4158015611074573d6000803e3d6000fd5b50505050610edf81612c2e565b6005546001600160a01b031633146110ab5760405162461bcd60e51b815260040161052a906148e1565b6003601082815481106110ce57634e487b7160e01b600052603260045260246000fd5b60009182526020909120600560069092020181015460ff169081111561110457634e487b7160e01b600052602160045260246000fd5b146111215760405162461bcd60e51b815260040161052a90614836565b73__$94d7d2f22770e4b0d1a2b99fb2812308e2$__6359111fb56010838154811061101e57634e487b7160e01b600052603260045260246000fd5b6000805b600e548110156112b457600e8054600091601a918391908590811061119557634e487b7160e01b600052603260045260246000fd5b906000526020600020906002020160000154815260200190815260200160002084815481106111d457634e487b7160e01b600052603260045260246000fd5b9060005260206000200180546111e990615241565b80601f016020809104026020016040519081016040528092919081815260200182805461121590615241565b80156112625780601f1061123757610100808354040283529160200191611262565b820191906000526020600020905b81548152906001019060200180831161124557829003601f168201915b505050505080602001905181019061127a919061348f565b9050806001600160a01b0316856001600160a01b031614156112a1576001925050506112ba565b50806112ac81615289565b915050611160565b50600090505b92915050565b6000818152601a60205260409020805460609190610abb90600190614f1d565b6012546001600160a01b031681565b60006010828154811061131257634e487b7160e01b600052603260045260246000fd5b600091825260209091206005600690920201015460ff1692915050565b6005546001600160a01b031690565b60038054600454600554600654600780546001600160a01b03958616969486169590931693919261136e90615241565b80601f016020809104026020016040519081016040528092919081815260200182805461139a90615241565b80156113e75780601f106113bc576101008083540402835291602001916113e7565b820191906000526020600020905b8154815290600101906020018083116113ca57829003601f168201915b50506040805160e0810182526006870180546001600160a01b03168252600788015460208084019190915260088901548385015260098901546060840152600a8901805485518184028101840190965280865298999893975091955060808701945090919083018282801561147b57602002820191906000526020600020905b815481526020019060010190808311611467575b5050505050815260200160058201805480602002602001604051908101604052809291908181526020016000905b8282101561153d5783829060005260206000209060020201604051806040016040529081600082015481526020016001820180548060200260200160405190810160405280929190818152602001828054801561152557602002820191906000526020600020905b815481526020019060010190808311611511575b505050505081525050815260200190600101906114a9565b50505050815260200160068201805480602002602001604051908101604052809291908181526020016000905b828210156115bc57600084815260209081902060408051606081018252600286029092018054835260019081015460ff808216858701526101009091041691830191909152908352909201910161156a565b5050505081525050905086565b60606010805480602002602001604051908101604052809291908181526020016000905b828210156116ef5760008481526020908190206040805160c0810182526006860290920180546001600160a01b03168352600181015483850152600281015483830152600381015460608401526004810180548351818702810187019094528084529394919360808601939283018282801561168857602002820191906000526020600020905b815481526020019060010190808311611674575b505050918352505060058281015460209092019160ff16908111156116bd57634e487b7160e01b600052602160045260246000fd5b60058111156116dc57634e487b7160e01b600052602160045260246000fd5b81525050815260200190600101906115ed565b50505050905090565b6004546001600160a01b031633146117225760405162461bcd60e51b815260040161052a9061478d565b600a5481146117435760405162461bcd60e51b815260040161052a906146b6565b60016010848154811061176657634e487b7160e01b600052603260045260246000fd5b60009182526020909120600560069092020181015460ff169081111561179c57634e487b7160e01b600052602160045260246000fd5b146117b95760405162461bcd60e51b815260040161052a906146fc565b73__$94d7d2f22770e4b0d1a2b99fb2812308e2$__636a0a24f1601085815481106117f457634e487b7160e01b600052603260045260246000fd5b906000526020600020906006020184846040518463ffffffff1660e01b815260040161182293929190614a99565b60006040518083038186803b15801561183a57600080fd5b505af415801561184e573d6000803e3d6000fd5b5050505061185b83612c2e565b505050565b6011546001600160a01b031681565b6004546001600160a01b031633146118995760405162461bcd60e51b815260040161052a9061463b565b6000828152601b6020526040902054600880546003929081106118cc57634e487b7160e01b600052603260045260246000fd5b600091825260209091206001600590920201015460ff16600381111561190257634e487b7160e01b600052602160045260246000fd5b1461191f5760405162461bcd60e51b815260040161052a9061460b565b6119298282612c76565b6040516000805160206157c183398151915290600090a15050565b6005546001600160a01b0316331461196e5760405162461bcd60e51b815260040161052a906148e1565b60036010838154811061199157634e487b7160e01b600052603260045260246000fd5b60009182526020909120600560069092020181015460ff16908111156119c757634e487b7160e01b600052602160045260246000fd5b146119e45760405162461bcd60e51b815260040161052a90614836565b60148281548110611a0557634e487b7160e01b600052603260045260246000fd5b90600052602060002001544211611a2e5760405162461bcd60e51b815260040161052a906147b2565b600a54815114611a505760405162461bcd60e51b815260040161052a906146b6565b6001546010805473__$94d7d2f22770e4b0d1a2b99fb2812308e2$__92631b948e49926001600160a01b039091169186908110611a9d57634e487b7160e01b600052603260045260246000fd5b9060005260206000209060060201846040518463ffffffff1660e01b8152600401611aca9392919061413c565b60006040518083038186803b158015611ae257600080fd5b505af4158015611af6573d6000803e3d6000fd5b505050505050565b600054610100900460ff1680611b17575060005460ff16155b611b335760405162461bcd60e51b815260040161052a90614868565b600054610100900460ff16158015611b5e576000805460ff1961ff0019909116610100171660011790555b6000611b70604084016020850161346c565b6001600160a01b03161415611b975760405162461bcd60e51b815260040161052a9061490a565b600280546001600160a01b03199081166001600160a01b03898116919091179092556000805462010000600160b01b031916336201000002179055600180548216888416179055601180549091169186169190911790556013839055816003611c008282615492565b90505060005b611c1360a0840184614be9565b9050811015611c855780601b6000611c2e60a0870187614be9565b85818110611c4c57634e487b7160e01b600052603260045260246000fd5b9050602002810190611c5e9190614cbd565b60409081013582526020820192909252016000205580611c7d81615289565b915050611c06565b508015611af6576000805461ff0019169055505050505050565b601054604051635cc1f6b560e01b815260009173__$94d7d2f22770e4b0d1a2b99fb2812308e2$__91635cc1f6b591611cde91600891906004016143e2565b60206040518083038186803b158015611cf657600080fd5b505af4158015611d0a573d6000803e3d6000fd5b505050506040513d601f19601f82011682018060405250810190611d2e9190613685565b905090565b6004546001600160a01b031690565b611d4a611c9f565b1515600114611d6b5760405162461bcd60e51b815260040161052a906147e1565b73__$94d7d2f22770e4b0d1a2b99fb2812308e2$__632dd4082482600160009054906101000a90046001600160a01b031660108581548110611dbd57634e487b7160e01b600052603260045260246000fd5b60009182526020808320601554601154600c548652601a938490526040909520805460069095029092019460099491926001600160a01b03909116918b908110611e1757634e487b7160e01b600052603260045260246000fd5b906000526020600020018054611e2c90615241565b80601f0160208091040260200160405190810160405280929190818152602001828054611e5890615241565b8015611ea55780601f10611e7a57610100808354040283529160200191611ea5565b820191906000526020600020905b815481529060010190602001808311611e8857829003601f168201915b5050505050806020019051810190611ebd91906136bd565b6040518963ffffffff1660e01b8152600401611ee0989796959493929190614b49565b60006040518083038186803b158015611ef857600080fd5b505af4158015611f0c573d6000803e3d6000fd5b50505050611f1981610edf565b610edf81612ced565b63bc197c8160e01b98975050505050505050565b6000818152601a60209081526040808320805482518185028101850190935280835260609492939192909184015b82821015612010578382906000526020600020018054611f8390615241565b80601f0160208091040260200160405190810160405280929190818152602001828054611faf90615241565b8015611ffc5780601f10611fd157610100808354040283529160200191611ffc565b820191906000526020600020905b815481529060010190602001808311611fdf57829003601f168201915b505050505081526020019060010190611f64565b505050509050919050565b61202361320f565b6040805160e081018252600380546001600160a01b03908116835260045481166020840152600554169282019290925260065460608201526007805491929160808401919061207190615241565b80601f016020809104026020016040519081016040528092919081815260200182805461209d90615241565b80156120ea5780601f106120bf576101008083540402835291602001916120ea565b820191906000526020600020905b8154815290600101906020018083116120cd57829003601f168201915b5050505050815260200160058201805480602002602001604051908101604052809291908181526020016000905b8282101561224f57838290600052602060002090600502016040518060a0016040529081600082015481526020016001820160009054906101000a900460ff16600381111561217757634e487b7160e01b600052602160045260246000fd5b600381111561219657634e487b7160e01b600052602160045260246000fd5b815260200160028201548152602001600382015481526020016004820180546121be90615241565b80601f01602080910402602001604051908101604052809291908181526020018280546121ea90615241565b80156122375780601f1061220c57610100808354040283529160200191612237565b820191906000526020600020905b81548152906001019060200180831161221a57829003601f168201915b50505050508152505081526020019060010190612118565b505050908252506040805160e0810182526006840180546001600160a01b03168252600785015460208381019190915260088601548385015260098601546060840152600a8601805485518184028101840190965280865295820195939492936080860193928301828280156122e457602002820191906000526020600020905b8154815260200190600101908083116122d0575b5050505050815260200160058201805480602002602001604051908101604052809291908181526020016000905b828210156123a65783829060005260206000209060020201604051806040016040529081600082015481526020016001820180548060200260200160405190810160405280929190818152602001828054801561238e57602002820191906000526020600020905b81548152602001906001019080831161237a575b50505050508152505081526020019060010190612312565b50505050815260200160068201805480602002602001604051908101604052809291908181526020016000905b8282101561242557600084815260209081902060408051606081018252600286029092018054835260019081015460ff80821685870152610100909104169183019190915290835290920191016123d3565b50505091525050905250905090565b6009546040516370a0823160e01b81526000916001600160a01b0316906370a0823190612465903090600401614059565b60206040518083038186803b15801561247d57600080fd5b505afa158015612491573d6000803e3d6000fd5b505050506040513d601f19601f82011682018060405250810190611d2e91906136bd565b600033826040516020016124ca92919061403c565b60408051601f198184030181529181528151602092830120600081815260199093529120546008805492935061253092909190811061251957634e487b7160e01b600052603260045260246000fd5b90600052602060002090600502016003015461093f565b6001600160a01b0316336001600160a01b0316146125605760405162461bcd60e51b815260040161052a9061472c565b60008181526019602052604081205460088054909190811061259257634e487b7160e01b600052603260045260246000fd5b600091825260209091206001600590920201015460ff1660038111156125c857634e487b7160e01b600052602160045260246000fd5b146125e55760405162461bcd60e51b815260040161052a9061465f565b60008181526019602052604090205460088054909190811061261757634e487b7160e01b600052603260045260246000fd5b60009182526020822060059091020180549161263283615289565b9091555050600081815260196020526040902054600880546127e89290811061266b57634e487b7160e01b600052603260045260246000fd5b906000526020600020906005020160020154336001600160a01b0316633f4fb5aa60036005016016600301600087815260200190815260200160002054815481106126c657634e487b7160e01b600052603260045260246000fd5b906000526020600020906005020160040180546126e290615241565b80601f016020809104026020016040519081016040528092919081815260200182805461270e90615241565b801561275b5780601f106127305761010080835404028352916020019161275b565b820191906000526020600020905b81548152906001019060200180831161273e57829003601f168201915b505050505080602001905181019061277391906136bd565b6040518263ffffffff1660e01b815260040161278f91906144f9565b60006040518083038186803b1580156127a757600080fd5b505afa1580156127bb573d6000803e3d6000fd5b505050506040513d6000823e601f3d908101601f191682016040526127e3919081019061379c565b612c76565b600081815260196020526040812081905560168054916128078361522a565b90915550506040516000805160206157c183398151915290600090a15050565b6128308161093f565b6001600160a01b0316336001600160a01b0316146128605760405162461bcd60e51b815260040161052a9061472c565b6000828152601a60205260409020541580159061288c57506010546000838152601a6020526040902054145b156128eb5760405163de3a23c560e01b8152339063de3a23c5906128b49085906004016144f9565b600060405180830381600087803b1580156128ce57600080fd5b505af11580156128e2573d6000803e3d6000fd5b5050505061292e565b6000828152601860209081526040822080546001810182559083529082200180546001600160a01b03191633179055601780549161292883615289565b91905055505b5050565b60135481565b63f23a6e6160e01b5b9695505050505050565b6001600160e01b031981166301ffc9a760e01b14919050565b60005b600854811015612c14576000600880548390811061299557634e487b7160e01b600052603260045260246000fd5b600091825260209091206001600590920201015460ff1660038111156129cb57634e487b7160e01b600052602160045260246000fd5b14612a0f57612a0a600360050182815481106129f757634e487b7160e01b600052603260045260246000fd5b9060005260206000209060050201612e44565b612c02565b6000306001600160a01b0316633837b05e60036005018481548110612a4457634e487b7160e01b600052603260045260246000fd5b9060005260206000209060050201600301546040518263ffffffff1660e01b8152600401612a7291906144f9565b60206040518083038186803b158015612a8a57600080fd5b505afa158015612a9e573d6000803e3d6000fd5b505050506040513d601f19601f82011682018060405250810190612ac2919061348f565b9050612ace8183612f38565b806001600160a01b031663df33cc5160036005018481548110612b0157634e487b7160e01b600052603260045260246000fd5b90600052602060002090600502016004018054612b1d90615241565b80601f0160208091040260200160405190810160405280929190818152602001828054612b4990615241565b8015612b965780601f10612b6b57610100808354040283529160200191612b96565b820191906000526020600020905b815481529060010190602001808311612b7957829003601f168201915b5050505050806020019051810190612bae91906136bd565b6013546040518363ffffffff1660e01b8152600401612bce929190614502565b600060405180830381600087803b158015612be857600080fd5b505af1158015612bfc573d6000803e3d6000fd5b50505050505b80612c0c81615289565b915050612967565b506040516000805160206157c183398151915290600090a1565b600654612c3c906001614efe565b612c469042614ee6565b60148281548110612c6757634e487b7160e01b600052603260045260246000fd5b60009182526020909120015550565b601054612c8590600190614f1d565b6000838152601a602052604090205414612cb15760405162461bcd60e51b815260040161052a90614a6b565b6000828152601a6020908152604082208054600181018255908352918190208351612ce393919091019184019061326c565b5061292e8261305c565b6012546001600160a01b031615801590612d885750601260009054906101000a90046001600160a01b03166001600160a01b031663999925066040518163ffffffff1660e01b815260040160206040518083038186803b158015612d5057600080fd5b505afa158015612d64573d6000803e3d6000fd5b505050506040513d601f19601f82011682018060405250810190612d889190613685565b8015612e0f57506012546040516344c3b60760e01b81526001600160a01b03909116906344c3b60790612dbf9084906004016144f9565b60206040518083038186803b158015612dd757600080fd5b505afa158015612deb573d6000803e3d6000fd5b505050506040513d601f19601f82011682018060405250810190612e0f9190613685565b15610edf5760125460405163b992db0f60e01b81526001600160a01b039091169063b992db0f90610eb19084906004016144f9565b600181015460039060ff1681811115612e6d57634e487b7160e01b600052602160045260246000fd5b1115612e8b5760405162461bcd60e51b815260040161052a9061480a565b8054816000612e9983615289565b9091555060039050600182015460ff166003811115612ec857634e487b7160e01b600052602160045260246000fd5b14610edf57610edf816002015473__$94d7d2f22770e4b0d1a2b99fb2812308e2$__63b3d73707846040518263ffffffff1660e01b8152600401612f0c91906144f9565b60006040518083038186803b158015612f2457600080fd5b505af41580156127bb573d6000803e3d6000fd5b80601660030160008460036005018581548110612f6557634e487b7160e01b600052603260045260246000fd5b90600052602060002090600502016004018054612f8190615241565b80601f0160208091040260200160405190810160405280929190818152602001828054612fad90615241565b8015612ffa5780601f10612fcf57610100808354040283529160200191612ffa565b820191906000526020600020905b815481529060010190602001808311612fdd57829003601f168201915b505050505080602001905181019061301291906136bd565b60405160200161302392919061403c565b60408051601f19818403018152918152815160209283012083529082019290925201600090812091909155601680549161292883615289565b60005b60008281526018602052604090205481101561292e5760008281526018602052604081208054839081106130a357634e487b7160e01b600052603260045260246000fd5b6000918252602090912001546001600160a01b0316146131b25760008281526018602052604090208054829081106130eb57634e487b7160e01b600052603260045260246000fd5b60009182526020909120015460405163de3a23c560e01b81526001600160a01b039091169063de3a23c5906131249085906004016144f9565b600060405180830381600087803b15801561313e57600080fd5b505af1158015613152573d6000803e3d6000fd5b505050600083815260186020526040902080549091508290811061318657634e487b7160e01b600052603260045260246000fd5b6000918252602082200180546001600160a01b031916905560178054916131ac8361522a565b91905055505b806131bc81615289565b91505061305f565b8280548282559060005260206000209081019282156131ff579160200282015b828111156131ff5782518255916020019190600101906131e4565b5061320b9291506132df565b5090565b6040518060e0016040528060006001600160a01b0316815260200160006001600160a01b0316815260200160006001600160a01b031681526020016000815260200160608152602001606081526020016132676132f4565b905290565b82805461327890615241565b90600052602060002090601f01602090048101928261329a57600085556131ff565b82601f106132b357805160ff19168380011785556131ff565b828001600101855582156131ff57918201828111156131ff5782518255916020019190600101906131e4565b5b8082111561320b57600081556001016132e0565b6040518060e0016040528060006001600160a01b031681526020016000815260200160008152602001600080191681526020016060815260200160608152602001606081525090565b80356104f88161578f565b60008083601f840112613359578182fd5b5081356001600160401b0381111561336f578182fd5b602083019150836020808302850101111561338957600080fd5b9250929050565b600082601f8301126133a0578081fd5b815160206133b56133b083614cfb565b614cd2565b82815281810190858301838502870184018810156133d1578586fd5b855b858110156133ef578151845292840192908401906001016133d3565b5090979650505050505050565b60008083601f84011261340d578182fd5b5081356001600160401b03811115613423578182fd5b60208301915083602082850101111561338957600080fd5b80516104f88161578f565b8051600681106104f857600080fd5b600060e08284031215613466578081fd5b50919050565b60006020828403121561347d578081fd5b81356134888161578f565b9392505050565b6000602082840312156134a0578081fd5b81516134888161578f565b600080600080600060a086880312156134c2578081fd5b85356134cd8161578f565b945060208601356134dd8161578f565b935060408601356134ed8161578f565b92506060860135915060808601356001600160401b0381111561350e578182fd5b61351a88828901613455565b9150509295509295909350565b60008060008060008060008060a0898b031215613542578586fd5b883561354d8161578f565b9750602089013561355d8161578f565b965060408901356001600160401b0380821115613578578788fd5b6135848c838d01613348565b909850965060608b013591508082111561359c578485fd5b6135a88c838d01613348565b909650945060808b01359150808211156135c0578384fd5b506135cd8b828c016133fc565b999c989b5096995094979396929594505050565b60008060008060008060a087890312156135f9578384fd5b86356136048161578f565b955060208701356136148161578f565b9450604087013593506060870135925060808701356001600160401b0381111561363c578283fd5b61364889828a016133fc565b979a9699509497509295939492505050565b6000806040838503121561366c578182fd5b82356136778161578f565b946020939093013593505050565b600060208284031215613696578081fd5b81518015158114613488578182fd5b6000602082840312156136b6578081fd5b5035919050565b6000602082840312156136ce578081fd5b5051919050565b600080604083850312156136e7578182fd5b8235915060208301356001600160401b03811115613703578182fd5b8301601f81018513613713578182fd5b80356137216133b082614d1e565b818152866020838501011115613735578384fd5b81602084016020830137908101602001929092525090939092509050565b60008060408385031215613765578182fd5b50508035926020909101359150565b600060208284031215613785578081fd5b81356001600160e01b031981168114613488578182fd5b6000602082840312156137ad578081fd5b81516001600160401b038111156137c2578182fd5b8201601f810184136137d2578182fd5b80516137e06133b082614d1e565b8181528560208385010111156137f4578384fd5b6138058260208301602086016151fa565b95945050505050565b600080600080600060808688031215613825578283fd5b85356138308161578f565b9450602086013593506040860135925060608601356001600160401b03811115613858578182fd5b61386488828901613348565b969995985093965092949392505050565b600060208284031215613886578081fd5b81516001600160401b038082111561389c578283fd5b9083019060c082860312156138af578283fd5b60405160c0810181811083821117156138ca576138ca6152e6565b6040526138d68361343b565b8152602083015160208201526040830151604082015260608301516060820152608083015182811115613907578485fd5b61391387828601613390565b60808301525061392560a08401613446565b60a082015295945050505050565b600060208284031215613944578081fd5b81356001600160401b03811115613959578182fd5b61396584828501613455565b949350505050565b600080600060408486031215613981578081fd5b8335925060208401356001600160401b0381111561399d578182fd5b6139a986828701613348565b9497909650939450505050565b600080604083850312156139c8578182fd5b823591506020808401356001600160401b038111156139e5578283fd5b8401601f810186136139f5578283fd5b8035613a036133b082614cfb565b81815283810190838501858402850186018a1015613a1f578687fd5b8694505b83851015613a41578035835260019490940193918501918501613a23565b5080955050505050509250929050565b6001600160a01b03169052565b81835260006001600160fb1b03831115613a76578081fd5b6020830280836020870137939093016020019283525090919050565b6000815480845260208085018081965082840281019150858552828520855b85811015613b1d57828403895281548452604085850181905260018084018054928701839052895286892060608701929091908a905b80821015613b045783548552938901939282019290820190613ae7565b5050509986019950935060029190910190600101613ab1565b5091979650505050505050565b60008284526020808501945084818502860184845b878110156133ef5783830389528135609e19883603018112613b5f578687fd5b87018035845260a086820135613b74816157a4565b613b8088870182613e07565b5060408281013590860152606080830135908601526080613ba381840184614e84565b93508282880152613bb78388018583613db1565b9c89019c96505050928601925050600101613b3f565b60008282518085526020808601955080818302840101818601855b848110156133ef57601f19868403018952815160a08151855285820151613c1187870182613e07565b506040828101519086015260608083015190860152608091820151918501819052613c3e81860183613ddb565b9a86019a9450505090830190600101613be8565b60008284526020808501945082825b85811015613cab578135875282820135613c7a816157b1565b60ff9081168885015260409083820135613c93816157b1565b16908801526060968701969190910190600101613c61565b509495945050505050565b6000815180845260208085019450808401835b83811015613cab578151805188528381015160ff908116858a0152604091820151169088015260609096019590820190600101613cc9565b6000815480845260208085019450838352808320835b83811015613cab578154875260018083015460ff808216868b015260089190911c16604089015260609097019660029092019101613d17565b6000815180845260208085019450808401835b83811015613cab57815187529582019590820190600101613d63565b6000815480845260208085019450838352808320835b83811015613cab57815487529582019560019182019101613d95565b60008284528282602086013780602084860101526020601f19601f85011685010190509392505050565b60008151808452613df38160208601602086016151fa565b601f01601f19169290920160200192915050565b60048110613e1757613e176152d0565b9052565b60068110613e1757613e176152d0565b60008135613e388161578f565b6001600160a01b03168352602082810135818501526040808401358186015260608085013590860152613e6e6080850185614df6565b60e06080880152613e8360e088018284613a5e565b915050613e9360a0860186614df6565b87830360a08901528083528483018582028401860183885b84811015613f0a57868303601f19018452813536879003603e19018112613ed0578a8bfd5b860180358452613ee28a820182614df6565b9150898b860152613ef68a86018383613a5e565b958b01959450505090880190600101613eab565b5050613f1960c08a018a614e3d565b9750955089810360c08b0152613f30818888613c52565b9a9950505050505050505050565b600060018060a01b038251168352602080830151818501526040808401518186015260608085015181870152608085015160e06080880152613f8360e0880182613d50565b905060a086015187820360a08901528181518084528684019150868782028501018784019350885b8281101561401357858203601f190184528451805183528901518983018990528051898401819052908a01908b90898501905b80831015613ffe5783518252928c019260019290920191908c0190613fde565b50968b0196958b019593505050600101613fab565b5060c08a015197508a810360c08c015261402d8189613cb6565b9b9a5050505050505050505050565b60609290921b6001600160601b0319168252601482015260340190565b6001600160a01b0391909116815260200190565b600060018060a01b038616825260806020830152614097608083016140928754614f34565b613a51565b600185015460a0830152600285015460c0830152600385015460e083015260e06101008301526140ce610160830160048701613d7f565b607f1980848303016101208501526140e98260058901613a92565b91508084830301610140850152506141048160068801613d01565b9150506141146040830185613a51565b82606083015295945050505050565b6001600160a01b03929092168252602082015260400190565b6001600160a01b038416815260208082018490526060604083018190528351908301819052600091848101916080850190845b8181101561418b5784518352938301939183019160010161416f565b509098975050505050505050565b6001600160a01b038516815260806020820152600084356141b98161578f565b6141c66080840182613a51565b506141d36020860161333d565b6141e060a0840182613a51565b506141ed6040860161333d565b6141fa60c0840182613a51565b50606085013560e08301526142126080860186614e84565b60e061010085015261422961016085018284613db1565b91505061423960a0870187614df6565b607f198086850301610120870152614252848385613b2a565b935061426160c08a018a614ec8565b92508086850301610140870152505061427a8282613e2b565b60408501969096525050506060015292915050565b6020808252825182820181905260009190848201906040850190845b818110156142d05783516001600160a01b0316835292840192918401916001016142ab565b50909695505050505050565b6000602080830181845280855180835260408601915060408482028701019250838701855b8281101561432f57603f1988860301845261431d858351613ddb565b94509285019290850190600101614301565b5092979650505050505050565b60208082528251828201819052600091906040908185019080840286018301878501865b8381101561418b57888303603f19018552815180516001600160a01b03168452878101518885015286810151878501526060808201519085015260808082015160c082870181905291906143b683880182613d50565b9250505060a08083015192506143ce81870184613e1b565b509588019593505090860190600101614360565b60006040808301818452808654808352606086019150602092506060838202870101888652838620865b838110156144db57605f1989840301855260a082548452600160ff818501541661443889870182613e07565b5060028401548986015260038401546060860152600484018260808701528a815461446281615241565b94880185905260c09481851680156144815760018114614495576144c0565b60ff1983168a88015260e08a0193506144c0565b848f528c8f208f5b838110156144b85781548c82018a0152908701908e0161449d565b8b0188019450505b5050509789019795505050600592909201915060010161440c565b5050929095019590955295945050505050565b901515815260200190565b90815260200190565b918252602082015260400190565b6001600160e01b031991909116815260200190565b6000602082526134886020830184613ddb565b600060018060a01b038716825285602083015284604083015260806060830152614566608083018486613a5e565b979650505050505050565b6001600160a01b038616815260208101859052604081018490526060810183905260a081016129416080830184613e1b565b6001600160a01b0387811682528681166020830152851660408201526060810184905260c0608082018190526000906145de90830185613ddb565b82810360a08401526145f08185613f3e565b9998505050505050505050565b602081016112ba8284613e1b565b6020808252601690820152751bdb9b1e48125b99d95cdd151e5c194b93585b9d585b60521b604082015260600190565b6020808252600a908201526927b7363ca5b2b2b832b960b11b604082015260600190565b602080825260139082015272496e67657374206e6f742043616c6c6261636b60681b604082015260600190565b60208082526010908201526f14dbdb1d995c881a185cc818da1a5b1960821b604082015260600190565b60208082526026908201527f7061796f7574732e6c656e677468206d757374206d61746368206f7574636f6d60408201526565536c6f747360d01b606082015260800190565b60208082526016908201527510dbdb991a5d1a5bdb881b9bdd08115e1958dd5d195960521b604082015260600190565b60208082526015908201527436b9b39739b2b73232b9103737ba1039b7b63b32b960591b604082015260600190565b602080825260189082015277496e76616c696420696e64657820746f207072657061726560401b604082015260600190565b6020808252600b908201526a27b7363c9025b2b2b832b960a91b604082015260600190565b602080825260159082015274151a5b595b1bd8dac81cdd1a5b1b081b1bd8dad959605a1b604082015260600190565b6020808252600f908201526e1a5b99d95cdd1cc81a5b9d985b1a59608a1b604082015260600190565b602080825260129082015271496e76616c696420696e676573745479706560701b604082015260600190565b602080825260189082015277139bdd08105c989a5d1c985d1a5bdb94995c5d595cdd195960421b604082015260600190565b6020808252602e908201527f496e697469616c697a61626c653a20636f6e747261637420697320616c72656160408201526d191e481a5b9a5d1a585b1a5e995960921b606082015260800190565b60208082526011908201527029b637ba1034b73b30b634b2103b32b91760791b604082015260600190565b6020808252600f908201526e27b7363c9030b93134ba3930ba37b960891b604082015260600190565b6020808252600e908201526d12d9595c195c881a5b9d985b1a5960921b604082015260600190565b60208082526014908201527313dd5d18dbdb59481b9bdd081c1c9bdc1bdcd95960621b604082015260600190565b6020808252818101527f46756c66696c6c206f7574676f696e672063616c6c6261636b73206669727374604082015260600190565b6020808252818101527f46756c66696c6c20696e636f6d696e672063616c6c6261636b73206669727374604082015260600190565b6020808252600e908201526d10d85b9b9bdd081c995c5d595cdd60921b604082015260600190565b6020808252600b908201526a27b7363c9035b2b2b832b960a91b604082015260600190565b60208082526012908201527113db9b1e481ad9595c195c8bdc185c995b9d60721b604082015260600190565b6020808252600e908201526d151c9858dada5b99d259081cd95d60921b604082015260600190565b60208082526014908201527314db1bdd081d995c9cda5bdb881a5b9d985b1a5960621b604082015260600190565b600084825260406020830152613805604083018486613a5e565b60006020825260018060a01b03808451166020840152806020850151166040840152506040830151614ae86060840182613a51565b5060608301516080830152608083015160e060a0840152614b0d610100840182613ddb565b905060a0840151601f19808584030160c0860152614b2b8383613bcd565b925060c08601519150808584030160e0860152506138058282613f3e565b9788526001600160a01b03968716602089015260408801959095526060870193909352608086019190915260a085015290911660c083015260e08201526101000190565b9283526020830191909152604082015260600190565b6000808335601e19843603018112614bb9578283fd5b8301803591506001600160401b03821115614bd2578283fd5b602090810192508102360382131561338957600080fd5b6000808335601e19843603018112614bb9578182fd5b6000808335601e19843603018112614c15578182fd5b8301803591506001600160401b03821115614c2e578283fd5b602001915060608102360382131561338957600080fd5b6000808335601e19843603018112614c5b578182fd5b8301803591506001600160401b03821115614c74578283fd5b60200191503681900382131561338957600080fd5b60008235603e19833603018112614c9e578182fd5b9190910192915050565b6000823560de19833603018112614c9e578182fd5b60008235609e19833603018112614c9e578182fd5b6040518181016001600160401b0381118282101715614cf357614cf36152e6565b604052919050565b60006001600160401b03821115614d1457614d146152e6565b5060209081020190565b60006001600160401b03821115614d3757614d376152e6565b50601f01601f191660200190565b60009081526020902090565b602084108015614da757601f841160018114614d7857614d718685615276565b8355614da1565b614d8183614d45565b614d966020601f880104820160018301614f40565b50614da18684615357565b50610850565b8160005260206000206020601f8701048101601f87168015614dd157614dd18160001984016152fc565b50614de46020601f880104830182614f40565b50506001856002021782555050505050565b6000808335601e19843603018112614e0c578283fd5b83016020810192503590506001600160401b03811115614e2b57600080fd5b60208102360383131561338957600080fd5b6000808335601e19843603018112614e53578283fd5b83016020810192503590506001600160401b03811115614e7257600080fd5b60608102360383131561338957600080fd5b6000808335601e19843603018112614e9a578283fd5b83016020810192503590506001600160401b03811115614eb957600080fd5b80360383131561338957600080fd5b6000823560de19833603018112614edd578182fd5b90910192915050565b60008219821115614ef957614ef96152ba565b500190565b6000816000190483118215151615614f1857614f186152ba565b500290565b600082821015614f2f57614f2f6152ba565b500390565b6001600160a01b031690565b5b8181101561292e5760008155600101614f41565b600160401b831115614f6957614f696152e6565b805483825580841015614fee576001600160ff1b036001818311811615614f9257614f926152ba565b6002828711821615614fa657614fa66152ba565b600085815260208120909350878202810190828602015b80821015614fe857614fd185868454615375565b8255614fdf85858401615310565b90820190614fbd565b50505050505b5081614ff982614d45565b6000805b8681101561502f576150196150128588614c89565b838561566c565b6020939093019260029290920191600101614ffd565b50505050505050565b600160401b83111561504c5761504c6152e6565b8054838255808410156150cb576001600160ff1b036001818311811615615075576150756152ba565b6002828711821615615089576150896152ba565b600085815260208120909350878202810190828602015b808210156150c5576150b485868454615375565b8255848483015582820191506150a0565b50505050505b50816150d682614d45565b6000805b8681101561502f576150ed848385615734565b60609390930192600292909201916001016150da565b6001600160401b0383111561511a5761511a6152e6565b6151248154615241565b600080601f8611601f8411818117156151435761514086614d45565b92505b8015615172576020601f8901048301602089101561515e5750825b6151706020601f880104850182614f40565b505b50806001811461519e5760009450871561518d578387013594505b6151978886615276565b86556151f0565b601f198816945082845b868110156151c857888601358255602095860195600190920191016151a8565b50888610156151e557878501356000196008601f8c16021c191681555b506001600289020186555b5050505050505050565b60005b838110156152155781810151838201526020016151fd565b83811115615224576000848401525b50505050565b600081615239576152396152ba565b506000190190565b60028104600182168061525557607f821691505b6020821081141561346657634e487b7160e01b600052602260045260246000fd5b600019600883021c191660029091021790565b600060001982141561529d5761529d6152ba565b5060010190565b634e487b7160e01b600052600060045260246000fd5b634e487b7160e01b600052601160045260246000fd5b634e487b7160e01b600052602160045260246000fd5b634e487b7160e01b600052604160045260246000fd5b8054600019836020036008021c1681555050565b600160401b821115615324576153246152e6565b80548282558083101561185b576000828152602081208481019083015b80821015611af657828255600182019150615341565b80600052602060002061536b838254615276565b9091556000905550565b60089190910291821b60001990921b9182169119161790565b80546001600160a01b0319166001600160a01b0392909216919091179055565b81356153b98161578f565b6153c3818361538e565b506001602080840135828401556040840135600284015560608401356003840155600483016153f56080860186614ba3565b600160401b811115615409576154096152e6565b82548184558082101561542e57836000528460002061542c828201848301614f40565b505b506000928352838320925b81811015615454578235845592850192918401918501615439565b50505050505061546760a0830183614ba3565b615475818360058601614f55565b505061548460c0830183614bff565b615224818360068601615038565b813561549d8161578f565b6154a7818361538e565b5060016020808401356154b98161578f565b6154c58184860161538e565b50600260408501356154d68161578f565b6154e28183870161538e565b50600360608601358186015560046154fd6080880188614c45565b61550a8183858b01615103565b5050600580870161551e60a08a018a614ba3565b600160401b811115615532576155326152e6565b825481845580821015615606577f33333333333333333333333333333333333333333333333333333333333333338082118b1615615572576155726152ba565b8083118b1615615584576155846152ba565b506000848152898120838702810190878402015b80821015615602576155ac83848454615375565b8255828d8301558a82016155c284858354615375565b8155508982016155d484858354615375565b905581890180546155e481615241565b80156155f6576155f686828486614d51565b50505090870190615598565b5050505b5081965061561383614d45565b9550600094508492505b8083101561564a576156396156328884614cbd565b86886156c0565b95870195948301949188019161561d565b50505050505050505061292e61566360c0840184614ca8565b600683016153ae565b811561567a5761567a6152a4565b823581556001808201602061569181870187614ba3565b61569b8185615310565b6000938452828420935b818110156108e65782358555938501939183019185016156a5565b81156156ce576156ce6152a4565b823581556001810160208401356156e4816157a4565b600481106156f4576156f46152d0565b60ff1982541660ff82168117835550505060408301356002820155606083013560038201556157266080840184614c45565b610850818360048601615103565b8115615742576157426152a4565b82358155600181016020840135615758816157b1565b815460ff191660ff91909116178082556040850135615776816157b1565b61ff008160081b1661ff00198316178355505050505050565b6001600160a01b0381168114610edf57600080fd5b60048110610edf57600080fd5b60ff81168114610edf57600080fdfe71bd81ebe1d98a2944767394e76a9aff18724b2cf04e1db71254f804544b35c7a26469706673582212204d39e76fb29c99e84272d7a11df702f50f880205f2f2afcd61d20a96d23d257464736f6c63430008000033",
  "linkReferences": {
    "contracts/SolverLib.sol": {
      "SolverLib": [
        {
          "length": 20,
          "start": 1429
        },
        {
          "length": 20,
          "start": 2006
        },
        {
          "length": 20,
          "start": 2972
        },
        {
          "length": 20,
          "start": 3299
        },
        {
          "length": 20,
          "start": 4102
        },
        {
          "length": 20,
          "start": 4420
        },
        {
          "length": 20,
          "start": 6108
        },
        {
          "length": 20,
          "start": 6778
        },
        {
          "length": 20,
          "start": 7381
        },
        {
          "length": 20,
          "start": 7566
        },
        {
          "length": 20,
          "start": 12024
        }
      ]
    }
  },
  "deployedLinkReferences": {
    "contracts/SolverLib.sol": {
      "SolverLib": [
        {
          "length": 20,
          "start": 1396
        },
        {
          "length": 20,
          "start": 1973
        },
        {
          "length": 20,
          "start": 2939
        },
        {
          "length": 20,
          "start": 3266
        },
        {
          "length": 20,
          "start": 4069
        },
        {
          "length": 20,
          "start": 4387
        },
        {
          "length": 20,
          "start": 6075
        },
        {
          "length": 20,
          "start": 6745
        },
        {
          "length": 20,
          "start": 7348
        },
        {
          "length": 20,
          "start": 7533
        },
        {
          "length": 20,
          "start": 11991
        }
      ]
    }
  }
}