{
  "_format": "hh-sol-artifact-1",
  "contractName": "BasicSolverV1",
  "sourceName": "contracts/BasicSolverV1.sol",
  "abi": [
    {
      "anonymous": false,
      "inputs": [
        {
          "indexed": false,
          "internalType": "uint256",
          "name": "conditionIndex",
          "type": "uint256"
        },
        {
          "indexed": false,
          "internalType": "enum SolverLib.Status",
          "name": "status",
          "type": "uint8"
        }
      ],
      "name": "ChangedStatus",
      "type": "event"
    },
    {
      "anonymous": false,
      "inputs": [
        {
          "indexed": false,
          "internalType": "bytes32",
          "name": "conditionId",
          "type": "bytes32"
        }
      ],
      "name": "DeliveredNullArbitration",
      "type": "event"
    },
    {
      "anonymous": false,
      "inputs": [
        {
          "indexed": false,
          "internalType": "address",
          "name": "child",
          "type": "address"
        }
      ],
      "name": "DeployedChild",
      "type": "event"
    },
    {
      "anonymous": false,
      "inputs": [],
      "name": "IngestedData",
      "type": "event"
    },
    {
      "anonymous": false,
      "inputs": [
        {
          "indexed": false,
          "internalType": "address",
          "name": "solver",
          "type": "address"
        },
        {
          "indexed": false,
          "internalType": "uint256",
          "name": "solveIndex",
          "type": "uint256"
        }
      ],
      "name": "PreparedSolve",
      "type": "event"
    },
    {
      "anonymous": false,
      "inputs": [
        {
          "indexed": false,
          "internalType": "uint256",
          "name": "timelockIndex",
          "type": "uint256"
        }
      ],
      "name": "UpdatedTimelock",
      "type": "event"
    },
    {
      "inputs": [
        {
          "internalType": "bytes32",
          "name": "_slot",
          "type": "bytes32"
        },
        {
          "internalType": "bytes",
          "name": "_data",
          "type": "bytes"
        }
      ],
      "name": "addData",
      "outputs": [],
      "stateMutability": "nonpayable",
      "type": "function"
    },
    {
      "inputs": [
        {
          "internalType": "uint256",
          "name": "_index",
          "type": "uint256"
        }
      ],
      "name": "addressFromChainIndex",
      "outputs": [
        {
          "internalType": "address",
          "name": "_address",
          "type": "address"
        }
      ],
      "stateMutability": "view",
      "type": "function"
    },
    {
      "inputs": [
        {
          "internalType": "uint256",
          "name": "_index",
          "type": "uint256"
        }
      ],
      "name": "allocationsValid",
      "outputs": [
        {
          "internalType": "bool",
          "name": "",
          "type": "bool"
        }
      ],
      "stateMutability": "view",
      "type": "function"
    },
    {
      "inputs": [
        {
          "internalType": "uint256",
          "name": "_index",
          "type": "uint256"
        },
        {
          "internalType": "uint256[]",
          "name": "payouts",
          "type": "uint256[]"
        }
      ],
      "name": "arbitrate",
      "outputs": [],
      "stateMutability": "nonpayable",
      "type": "function"
    },
    {
      "inputs": [
        {
          "internalType": "uint256",
          "name": "_index",
          "type": "uint256"
        }
      ],
      "name": "arbitrateNull",
      "outputs": [],
      "stateMutability": "nonpayable",
      "type": "function"
    },
    {
      "inputs": [
        {
          "internalType": "uint256",
          "name": "_index",
          "type": "uint256"
        }
      ],
      "name": "arbitrationPending",
      "outputs": [],
      "stateMutability": "nonpayable",
      "type": "function"
    },
    {
      "inputs": [
        {
          "internalType": "uint256",
          "name": "_index",
          "type": "uint256"
        }
      ],
      "name": "arbitrationRequested",
      "outputs": [],
      "stateMutability": "nonpayable",
      "type": "function"
    },
    {
      "inputs": [],
      "name": "chainChild",
      "outputs": [
        {
          "internalType": "address",
          "name": "",
          "type": "address"
        }
      ],
      "stateMutability": "view",
      "type": "function"
    },
    {
      "inputs": [],
      "name": "chainIndex",
      "outputs": [
        {
          "internalType": "uint256",
          "name": "",
          "type": "uint256"
        }
      ],
      "stateMutability": "view",
      "type": "function"
    },
    {
      "inputs": [],
      "name": "chainParent",
      "outputs": [
        {
          "internalType": "address",
          "name": "",
          "type": "address"
        }
      ],
      "stateMutability": "view",
      "type": "function"
    },
    {
      "inputs": [],
      "name": "collateralBalance",
      "outputs": [
        {
          "internalType": "uint256",
          "name": "balance",
          "type": "uint256"
        }
      ],
      "stateMutability": "view",
      "type": "function"
    },
    {
      "inputs": [
        {
          "internalType": "uint256",
          "name": "",
          "type": "uint256"
        }
      ],
      "name": "conditions",
      "outputs": [
        {
          "internalType": "contract IERC20",
          "name": "collateralToken",
          "type": "address"
        },
        {
          "internalType": "bytes32",
          "name": "questionId",
          "type": "bytes32"
        },
        {
          "internalType": "bytes32",
          "name": "parentCollectionId",
          "type": "bytes32"
        },
        {
          "internalType": "bytes32",
          "name": "conditionId",
          "type": "bytes32"
        },
        {
          "internalType": "enum SolverLib.Status",
          "name": "status",
          "type": "uint8"
        }
      ],
      "stateMutability": "view",
      "type": "function"
    },
    {
      "inputs": [],
      "name": "config",
      "outputs": [
        {
          "internalType": "contract Solver",
          "name": "implementation",
          "type": "address"
        },
        {
          "internalType": "address",
          "name": "keeper",
          "type": "address"
        },
        {
          "internalType": "address",
          "name": "arbitrator",
          "type": "address"
        },
        {
          "internalType": "uint256",
          "name": "timelockSeconds",
          "type": "uint256"
        },
        {
          "internalType": "bytes",
          "name": "data",
          "type": "bytes"
        },
        {
          "components": [
            {
              "internalType": "contract IERC20",
              "name": "collateralToken",
              "type": "address"
            },
            {
              "internalType": "uint256",
              "name": "outcomeSlots",
              "type": "uint256"
            },
            {
              "internalType": "uint256",
              "name": "parentCollectionIndexSet",
              "type": "uint256"
            },
            {
              "internalType": "bytes32",
              "name": "amountSlot",
              "type": "bytes32"
            },
            {
              "internalType": "uint256[]",
              "name": "partition",
              "type": "uint256[]"
            },
            {
              "components": [
                {
                  "internalType": "bytes32",
                  "name": "recipientAddressSlot",
                  "type": "bytes32"
                },
                {
                  "internalType": "bytes32[]",
                  "name": "recipientAmountSlots",
                  "type": "bytes32[]"
                }
              ],
              "internalType": "struct SolverLib.Allocation[]",
              "name": "allocations",
              "type": "tuple[]"
            },
            {
              "components": [
                {
                  "internalType": "bytes32",
                  "name": "digest",
                  "type": "bytes32"
                },
                {
                  "internalType": "uint8",
                  "name": "hashFunction",
                  "type": "uint8"
                },
                {
                  "internalType": "uint8",
                  "name": "size",
                  "type": "uint8"
                }
              ],
              "internalType": "struct SolverLib.Multihash[]",
              "name": "outcomeURIs",
              "type": "tuple[]"
            }
          ],
          "internalType": "struct SolverLib.ConditionBase",
          "name": "conditionBase",
          "type": "tuple"
        }
      ],
      "stateMutability": "view",
      "type": "function"
    },
    {
      "inputs": [
        {
          "internalType": "uint256",
          "name": "_index",
          "type": "uint256"
        }
      ],
      "name": "confirmPayouts",
      "outputs": [],
      "stateMutability": "nonpayable",
      "type": "function"
    },
    {
      "inputs": [
        {
          "components": [
            {
              "internalType": "contract Solver",
              "name": "implementation",
              "type": "address"
            },
            {
              "internalType": "address",
              "name": "keeper",
              "type": "address"
            },
            {
              "internalType": "address",
              "name": "arbitrator",
              "type": "address"
            },
            {
              "internalType": "uint256",
              "name": "timelockSeconds",
              "type": "uint256"
            },
            {
              "internalType": "bytes",
              "name": "data",
              "type": "bytes"
            },
            {
              "components": [
                {
                  "internalType": "uint256",
                  "name": "executions",
                  "type": "uint256"
                },
                {
                  "internalType": "enum SolverLib.IngestType",
                  "name": "ingestType",
                  "type": "uint8"
                },
                {
                  "internalType": "bytes32",
                  "name": "slot",
                  "type": "bytes32"
                },
                {
                  "internalType": "uint256",
                  "name": "solverIndex",
                  "type": "uint256"
                },
                {
                  "internalType": "bytes",
                  "name": "data",
                  "type": "bytes"
                }
              ],
              "internalType": "struct SolverLib.Ingest[]",
              "name": "ingests",
              "type": "tuple[]"
            },
            {
              "components": [
                {
                  "internalType": "contract IERC20",
                  "name": "collateralToken",
                  "type": "address"
                },
                {
                  "internalType": "uint256",
                  "name": "outcomeSlots",
                  "type": "uint256"
                },
                {
                  "internalType": "uint256",
                  "name": "parentCollectionIndexSet",
                  "type": "uint256"
                },
                {
                  "internalType": "bytes32",
                  "name": "amountSlot",
                  "type": "bytes32"
                },
                {
                  "internalType": "uint256[]",
                  "name": "partition",
                  "type": "uint256[]"
                },
                {
                  "components": [
                    {
                      "internalType": "bytes32",
                      "name": "recipientAddressSlot",
                      "type": "bytes32"
                    },
                    {
                      "internalType": "bytes32[]",
                      "name": "recipientAmountSlots",
                      "type": "bytes32[]"
                    }
                  ],
                  "internalType": "struct SolverLib.Allocation[]",
                  "name": "allocations",
                  "type": "tuple[]"
                },
                {
                  "components": [
                    {
                      "internalType": "bytes32",
                      "name": "digest",
                      "type": "bytes32"
                    },
                    {
                      "internalType": "uint8",
                      "name": "hashFunction",
                      "type": "uint8"
                    },
                    {
                      "internalType": "uint8",
                      "name": "size",
                      "type": "uint8"
                    }
                  ],
                  "internalType": "struct SolverLib.Multihash[]",
                  "name": "outcomeURIs",
                  "type": "tuple[]"
                }
              ],
              "internalType": "struct SolverLib.ConditionBase",
              "name": "conditionBase",
              "type": "tuple"
            }
          ],
          "internalType": "struct SolverLib.Config",
          "name": "_config",
          "type": "tuple"
        }
      ],
      "name": "deployChild",
      "outputs": [
        {
          "internalType": "address",
          "name": "",
          "type": "address"
        }
      ],
      "stateMutability": "nonpayable",
      "type": "function"
    },
    {
      "inputs": [
        {
          "internalType": "uint256",
          "name": "_index",
          "type": "uint256"
        }
      ],
      "name": "executeSolve",
      "outputs": [],
      "stateMutability": "nonpayable",
      "type": "function"
    },
    {
      "inputs": [
        {
          "internalType": "bytes32",
          "name": "_slot",
          "type": "bytes32"
        }
      ],
      "name": "getAllData",
      "outputs": [
        {
          "internalType": "bytes[]",
          "name": "data",
          "type": "bytes[]"
        }
      ],
      "stateMutability": "view",
      "type": "function"
    },
    {
      "inputs": [
        {
          "internalType": "bytes32",
          "name": "_slot",
          "type": "bytes32"
        }
      ],
      "name": "getCallbackOutput",
      "outputs": [
        {
          "internalType": "bytes",
          "name": "data",
          "type": "bytes"
        }
      ],
      "stateMutability": "view",
      "type": "function"
    },
    {
      "inputs": [],
      "name": "getConditions",
      "outputs": [
        {
          "components": [
            {
              "internalType": "contract IERC20",
              "name": "collateralToken",
              "type": "address"
            },
            {
              "internalType": "bytes32",
              "name": "questionId",
              "type": "bytes32"
            },
            {
              "internalType": "bytes32",
              "name": "parentCollectionId",
              "type": "bytes32"
            },
            {
              "internalType": "bytes32",
              "name": "conditionId",
              "type": "bytes32"
            },
            {
              "internalType": "uint256[]",
              "name": "payouts",
              "type": "uint256[]"
            },
            {
              "internalType": "enum SolverLib.Status",
              "name": "status",
              "type": "uint8"
            }
          ],
          "internalType": "struct SolverLib.Condition[]",
          "name": "",
          "type": "tuple[]"
        }
      ],
      "stateMutability": "view",
      "type": "function"
    },
    {
      "inputs": [],
      "name": "getConfig",
      "outputs": [
        {
          "components": [
            {
              "internalType": "contract Solver",
              "name": "implementation",
              "type": "address"
            },
            {
              "internalType": "address",
              "name": "keeper",
              "type": "address"
            },
            {
              "internalType": "address",
              "name": "arbitrator",
              "type": "address"
            },
            {
              "internalType": "uint256",
              "name": "timelockSeconds",
              "type": "uint256"
            },
            {
              "internalType": "bytes",
              "name": "data",
              "type": "bytes"
            },
            {
              "components": [
                {
                  "internalType": "uint256",
                  "name": "executions",
                  "type": "uint256"
                },
                {
                  "internalType": "enum SolverLib.IngestType",
                  "name": "ingestType",
                  "type": "uint8"
                },
                {
                  "internalType": "bytes32",
                  "name": "slot",
                  "type": "bytes32"
                },
                {
                  "internalType": "uint256",
                  "name": "solverIndex",
                  "type": "uint256"
                },
                {
                  "internalType": "bytes",
                  "name": "data",
                  "type": "bytes"
                }
              ],
              "internalType": "struct SolverLib.Ingest[]",
              "name": "ingests",
              "type": "tuple[]"
            },
            {
              "components": [
                {
                  "internalType": "contract IERC20",
                  "name": "collateralToken",
                  "type": "address"
                },
                {
                  "internalType": "uint256",
                  "name": "outcomeSlots",
                  "type": "uint256"
                },
                {
                  "internalType": "uint256",
                  "name": "parentCollectionIndexSet",
                  "type": "uint256"
                },
                {
                  "internalType": "bytes32",
                  "name": "amountSlot",
                  "type": "bytes32"
                },
                {
                  "internalType": "uint256[]",
                  "name": "partition",
                  "type": "uint256[]"
                },
                {
                  "components": [
                    {
                      "internalType": "bytes32",
                      "name": "recipientAddressSlot",
                      "type": "bytes32"
                    },
                    {
                      "internalType": "bytes32[]",
                      "name": "recipientAmountSlots",
                      "type": "bytes32[]"
                    }
                  ],
                  "internalType": "struct SolverLib.Allocation[]",
                  "name": "allocations",
                  "type": "tuple[]"
                },
                {
                  "components": [
                    {
                      "internalType": "bytes32",
                      "name": "digest",
                      "type": "bytes32"
                    },
                    {
                      "internalType": "uint8",
                      "name": "hashFunction",
                      "type": "uint8"
                    },
                    {
                      "internalType": "uint8",
                      "name": "size",
                      "type": "uint8"
                    }
                  ],
                  "internalType": "struct SolverLib.Multihash[]",
                  "name": "outcomeURIs",
                  "type": "tuple[]"
                }
              ],
              "internalType": "struct SolverLib.ConditionBase",
              "name": "conditionBase",
              "type": "tuple"
            }
          ],
          "internalType": "struct SolverLib.Config",
          "name": "",
          "type": "tuple"
        }
      ],
      "stateMutability": "view",
      "type": "function"
    },
    {
      "inputs": [
        {
          "internalType": "bytes32",
          "name": "_slot",
          "type": "bytes32"
        }
      ],
      "name": "getData",
      "outputs": [
        {
          "internalType": "bytes",
          "name": "data",
          "type": "bytes"
        }
      ],
      "stateMutability": "view",
      "type": "function"
    },
    {
      "inputs": [
        {
          "internalType": "bytes32",
          "name": "slot",
          "type": "bytes32"
        }
      ],
      "name": "getOutgoingCallbacks",
      "outputs": [
        {
          "internalType": "address[]",
          "name": "",
          "type": "address[]"
        }
      ],
      "stateMutability": "view",
      "type": "function"
    },
    {
      "inputs": [
        {
          "internalType": "bytes32",
          "name": "_slot",
          "type": "bytes32"
        }
      ],
      "name": "handleCallback",
      "outputs": [],
      "stateMutability": "nonpayable",
      "type": "function"
    },
    {
      "inputs": [],
      "name": "ingestsValid",
      "outputs": [
        {
          "internalType": "bool",
          "name": "",
          "type": "bool"
        }
      ],
      "stateMutability": "view",
      "type": "function"
    },
    {
      "inputs": [
        {
          "internalType": "address",
          "name": "_deployer",
          "type": "address"
        },
        {
          "internalType": "address",
          "name": "_ctfAddress",
          "type": "address"
        },
        {
          "internalType": "address",
          "name": "_chainParent",
          "type": "address"
        },
        {
          "internalType": "uint256",
          "name": "_chainIndex",
          "type": "uint256"
        },
        {
          "components": [
            {
              "internalType": "contract Solver",
              "name": "implementation",
              "type": "address"
            },
            {
              "internalType": "address",
              "name": "keeper",
              "type": "address"
            },
            {
              "internalType": "address",
              "name": "arbitrator",
              "type": "address"
            },
            {
              "internalType": "uint256",
              "name": "timelockSeconds",
              "type": "uint256"
            },
            {
              "internalType": "bytes",
              "name": "data",
              "type": "bytes"
            },
            {
              "components": [
                {
                  "internalType": "uint256",
                  "name": "executions",
                  "type": "uint256"
                },
                {
                  "internalType": "enum SolverLib.IngestType",
                  "name": "ingestType",
                  "type": "uint8"
                },
                {
                  "internalType": "bytes32",
                  "name": "slot",
                  "type": "bytes32"
                },
                {
                  "internalType": "uint256",
                  "name": "solverIndex",
                  "type": "uint256"
                },
                {
                  "internalType": "bytes",
                  "name": "data",
                  "type": "bytes"
                }
              ],
              "internalType": "struct SolverLib.Ingest[]",
              "name": "ingests",
              "type": "tuple[]"
            },
            {
              "components": [
                {
                  "internalType": "contract IERC20",
                  "name": "collateralToken",
                  "type": "address"
                },
                {
                  "internalType": "uint256",
                  "name": "outcomeSlots",
                  "type": "uint256"
                },
                {
                  "internalType": "uint256",
                  "name": "parentCollectionIndexSet",
                  "type": "uint256"
                },
                {
                  "internalType": "bytes32",
                  "name": "amountSlot",
                  "type": "bytes32"
                },
                {
                  "internalType": "uint256[]",
                  "name": "partition",
                  "type": "uint256[]"
                },
                {
                  "components": [
                    {
                      "internalType": "bytes32",
                      "name": "recipientAddressSlot",
                      "type": "bytes32"
                    },
                    {
                      "internalType": "bytes32[]",
                      "name": "recipientAmountSlots",
                      "type": "bytes32[]"
                    }
                  ],
                  "internalType": "struct SolverLib.Allocation[]",
                  "name": "allocations",
                  "type": "tuple[]"
                },
                {
                  "components": [
                    {
                      "internalType": "bytes32",
                      "name": "digest",
                      "type": "bytes32"
                    },
                    {
                      "internalType": "uint8",
                      "name": "hashFunction",
                      "type": "uint8"
                    },
                    {
                      "internalType": "uint8",
                      "name": "size",
                      "type": "uint8"
                    }
                  ],
                  "internalType": "struct SolverLib.Multihash[]",
                  "name": "outcomeURIs",
                  "type": "tuple[]"
                }
              ],
              "internalType": "struct SolverLib.ConditionBase",
              "name": "conditionBase",
              "type": "tuple"
            }
          ],
          "internalType": "struct SolverLib.Config",
          "name": "_solverConfig",
          "type": "tuple"
        }
      ],
      "name": "init",
      "outputs": [],
      "stateMutability": "nonpayable",
      "type": "function"
    },
    {
      "inputs": [
        {
          "internalType": "address",
          "name": "operator",
          "type": "address"
        },
        {
          "internalType": "address",
          "name": "from",
          "type": "address"
        },
        {
          "internalType": "uint256[]",
          "name": "ids",
          "type": "uint256[]"
        },
        {
          "internalType": "uint256[]",
          "name": "values",
          "type": "uint256[]"
        },
        {
          "internalType": "bytes",
          "name": "data",
          "type": "bytes"
        }
      ],
      "name": "onERC1155BatchReceived",
      "outputs": [
        {
          "internalType": "bytes4",
          "name": "",
          "type": "bytes4"
        }
      ],
      "stateMutability": "nonpayable",
      "type": "function"
    },
    {
      "inputs": [
        {
          "internalType": "address",
          "name": "operator",
          "type": "address"
        },
        {
          "internalType": "address",
          "name": "from",
          "type": "address"
        },
        {
          "internalType": "uint256",
          "name": "id",
          "type": "uint256"
        },
        {
          "internalType": "uint256",
          "name": "value",
          "type": "uint256"
        },
        {
          "internalType": "bytes",
          "name": "data",
          "type": "bytes"
        }
      ],
      "name": "onERC1155Received",
      "outputs": [
        {
          "internalType": "bytes4",
          "name": "",
          "type": "bytes4"
        }
      ],
      "stateMutability": "nonpayable",
      "type": "function"
    },
    {
      "inputs": [
        {
          "internalType": "uint256",
          "name": "_index",
          "type": "uint256"
        }
      ],
      "name": "prepareSolve",
      "outputs": [],
      "stateMutability": "nonpayable",
      "type": "function"
    },
    {
      "inputs": [
        {
          "internalType": "uint256",
          "name": "_index",
          "type": "uint256"
        },
        {
          "internalType": "uint256[]",
          "name": "_payouts",
          "type": "uint256[]"
        }
      ],
      "name": "proposePayouts",
      "outputs": [],
      "stateMutability": "nonpayable",
      "type": "function"
    },
    {
      "inputs": [
        {
          "internalType": "contract IERC20",
          "name": "_collateralToken",
          "type": "address"
        },
        {
          "internalType": "bytes32",
          "name": "_parentCollectionId",
          "type": "bytes32"
        },
        {
          "internalType": "bytes32",
          "name": "_conditionId",
          "type": "bytes32"
        },
        {
          "internalType": "uint256[]",
          "name": "_indexSets",
          "type": "uint256[]"
        }
      ],
      "name": "redeemPosition",
      "outputs": [],
      "stateMutability": "nonpayable",
      "type": "function"
    },
    {
      "inputs": [
        {
          "internalType": "bytes32",
          "name": "_slot",
          "type": "bytes32"
        },
        {
          "internalType": "uint256",
          "name": "_chainIndex",
          "type": "uint256"
        }
      ],
      "name": "registerOutgoingCallback",
      "outputs": [],
      "stateMutability": "nonpayable",
      "type": "function"
    },
    {
      "inputs": [
        {
          "components": [
            {
              "internalType": "bytes32",
              "name": "digest",
              "type": "bytes32"
            },
            {
              "internalType": "uint8",
              "name": "hashFunction",
              "type": "uint8"
            },
            {
              "internalType": "uint8",
              "name": "size",
              "type": "uint8"
            }
          ],
          "internalType": "struct SolverLib.Multihash",
          "name": "_context",
          "type": "tuple"
        }
      ],
      "name": "setContext",
      "outputs": [],
      "stateMutability": "nonpayable",
      "type": "function"
    },
    {
      "inputs": [
        {
          "internalType": "bytes32",
          "name": "_trackingId",
          "type": "bytes32"
        }
      ],
      "name": "setTrackingId",
      "outputs": [],
      "stateMutability": "nonpayable",
      "type": "function"
    },
    {
      "inputs": [
        {
          "internalType": "bytes4",
          "name": "interfaceId",
          "type": "bytes4"
        }
      ],
      "name": "supportsInterface",
      "outputs": [
        {
          "internalType": "bool",
          "name": "",
          "type": "bool"
        }
      ],
      "stateMutability": "view",
      "type": "function"
    },
    {
      "inputs": [
        {
          "internalType": "uint256",
          "name": "",
          "type": "uint256"
        }
      ],
      "name": "timelocks",
      "outputs": [
        {
          "internalType": "uint256",
          "name": "",
          "type": "uint256"
        }
      ],
      "stateMutability": "view",
      "type": "function"
    },
    {
      "inputs": [],
      "name": "trackingId",
      "outputs": [
        {
          "internalType": "bytes32",
          "name": "",
          "type": "bytes32"
        }
      ],
      "stateMutability": "view",
      "type": "function"
    },
    {
      "inputs": [],
      "name": "uiURI",
      "outputs": [
        {
          "internalType": "bytes32",
          "name": "digest",
          "type": "bytes32"
        },
        {
          "internalType": "uint8",
          "name": "hashFunction",
          "type": "uint8"
        },
        {
          "internalType": "uint8",
          "name": "size",
          "type": "uint8"
        }
      ],
      "stateMutability": "view",
      "type": "function"
    }
  ],
  "bytecode": "0x608060405234801561001057600080fd5b50615a9180620000216000396000f3fe608060405234801561001057600080fd5b50600436106101b75760003560e01c806301ffc9a7146101bc57806307c068b6146101e55780630944e26e146101fa578063098b37f71461021a5780630d06101a1461023a5780630d7e149f1461024d5780630d8d39751461026d578063187825591461028057806326c500071461029357806336fcf48c146102b75780633837b05e146102ce5780633f4fb5aa146102e157806344c3b6071461030157806348cbb2fc146103145780634a77234e1461031c5780634dab5e691461032f5780634e46f2231461034257806354f6127f1461035557806355dd978b1461036857806379502c55146103705780637c1236271461038a57806380b204b71461039f57806380c2dde2146103b25780638602ce1b146103ba57806387dfee57146103cd5780638bc3a08f146103e057806399992506146103f3578063a9f698b6146103fb578063b992db0f1461040e578063bc197c8114610421578063c08d6f0114610441578063c3f909d414610461578063c98c05b714610476578063de3a23c51461047e578063df33cc5114610491578063ea8221a9146104a4578063f23a6e61146104ac575b600080fd5b6101cf6101ca366004613829565b6104bf565b6040516101dc919061467f565b60405180910390f35b6101f86101f336600461375a565b6104ec565b005b61020d6102083660046139e8565b610635565b6040516101dc9190614211565b61022d61022836600461375a565b610755565b6040516101dc9190614421565b6101f861024836600461375a565b6107c1565b61026061025b36600461375a565b6107fd565b6040516101dc919061468a565b6101f861027b36600461375a565b61081e565b6101f861028e3660046138c3565b610988565b6102a66102a136600461375a565b610a22565b6040516101dc95949392919061471b565b6102bf610a70565b6040516101dc939291906146a1565b61020d6102dc36600461375a565b610a85565b6102f46102ef36600461375a565b610bb3565b6040516101dc91906146cf565b6101cf61030f36600461375a565b610caf565b610260610d3f565b6101f861032a36600461375a565b610d45565b6101f861033d36600461375a565b61101e565b6101f861035036600461375a565b6110f8565b6102f461036336600461375a565b6111d2565b61020d6111f2565b610378611201565b6040516101dc9695949392919061474d565b61039261148c565b6040516101dc91906144ce565b6101f86103ad366004613a33565b6115bb565b61020d611722565b6101f86103c836600461378a565b611731565b6101f86103db366004613a7c565b611806565b6101f86103ee36600461358b565b6119bf565b6101cf611b60565b6101f8610409366004613a22565b611bf4565b6101f861041c36600461375a565b611c18565b61043461042f366004613607565b611fd9565b6040516101dc91906146ba565b61045461044f36600461375a565b611fed565b6040516101dc919061446e565b6104696120d2565b6040516101dc9190614ce0565b6102606124eb565b6101f861048c36600461375a565b61256c565b6101f861049f366004613808565b6128dd565b6102606129e8565b6104346104ba3660046136c1565b6129ee565b60006001600160e01b03198216630271189760e51b14806104e457506104e482612a01565b90505b919050565b6007546001600160a01b0316331461051f5760405162461bcd60e51b815260040161051690614ab2565b60405180910390fd5b60036012828154811061054257634e487b7160e01b600052603260045260246000fd5b600091825260209091206006918202016005015460ff169081111561057757634e487b7160e01b600052602160045260246000fd5b146105945760405162461bcd60e51b815260040161051690614a07565b73__$94d7d2f22770e4b0d1a2b99fb2812308e2$__63ec7ac2f0601283815481106105cf57634e487b7160e01b600052603260045260246000fd5b90600052602060002090600602016040518263ffffffff1660e01b81526004016105f9919061468a565b60006040518083038186803b15801561061157600080fd5b505af4158015610625573d6000803e3d6000fd5b5050505061063281612a1a565b50565b6006546000906001600160a01b031633146106625760405162461bcd60e51b815260040161051690614bf8565b6014546001600160a01b03161561068b5760405162461bcd60e51b815260040161051690614828565b600054601554601754604051632fe7577d60e11b815273__$94d7d2f22770e4b0d1a2b99fb2812308e2$__93635fceaefa936106e093620100009092046001600160a01b031692889290601890600401614320565b60206040518083038186803b1580156106f857600080fd5b505af415801561070c573d6000803e3d6000fd5b505050506040513d601f19601f82011682018060405250810190610730919061356f565b601480546001600160a01b0319166001600160a01b0392831617908190551692915050565b6000818152601c60209081526040918290208054835181840281018401909452808452606093928301828280156107b557602002820191906000526020600020905b81546001600160a01b03168152600190910190602001808311610797575b50505050509050919050565b601754156107e15760405162461bcd60e51b815260040161051690614c49565b6002546001600160a01b031633146107f857600080fd5b601755565b6016818154811061080d57600080fd5b600091825260209091200154905081565b6016818154811061083f57634e487b7160e01b600052603260045260246000fd5b906000526020600020015442116108685760405162461bcd60e51b815260040161051690614983565b60026012828154811061088b57634e487b7160e01b600052603260045260246000fd5b600091825260209091206006918202016005015460ff16908111156108c057634e487b7160e01b600052602160045260246000fd5b146108dd5760405162461bcd60e51b815260040161051690614b03565b6001546012805473__$94d7d2f22770e4b0d1a2b99fb2812308e2$__926385c92867926001600160a01b03909116918590811061092a57634e487b7160e01b600052603260045260246000fd5b90600052602060002090600602016040518363ffffffff1660e01b81526004016109559291906142aa565b60006040518083038186803b15801561096d57600080fd5b505af4158015610981573d6000803e3d6000fd5b5050505050565b6006546001600160a01b031633146109b25760405162461bcd60e51b81526004016105169061495e565b600154604051626dc0df60e21b81526001600160a01b03909116906301b7037c906109e990889088908890889088906004016146e2565b600060405180830381600087803b158015610a0357600080fd5b505af1158015610a17573d6000803e3d6000fd5b505050505050505050565b60128181548110610a3257600080fd5b6000918252602090912060069091020180546001820154600283015460038401546005909401546001600160a01b0390931694509092909160ff1685565b60035460045460ff8082169161010090041683565b6000601554821415610a985750306104e7565b601554821015610b2957601354604051631c1bd82f60e11b81526001600160a01b0390911690633837b05e90610ad290859060040161468a565b60206040518083038186803b158015610aea57600080fd5b505afa158015610afe573d6000803e3d6000fd5b505050506040513d601f19601f82011682018060405250810190610b22919061356f565b90506104e7565b6015548211156104e757601454604051631c1bd82f60e11b81526001600160a01b0390911690633837b05e90610b6390859060040161468a565b60206040518083038186803b158015610b7b57600080fd5b505afa158015610b8f573d6000803e3d6000fd5b505050506040513d601f19601f820116820180604052508101906104e4919061356f565b6012546000828152601e602052604090205460609114610be55760405162461bcd60e51b815260040161051690614a87565b6000828152601e602052604090208054610c0190600190615156565b81548110610c1f57634e487b7160e01b600052603260045260246000fd5b906000526020600020018054610c349061546e565b80601f0160208091040260200160405190810160405280929190818152602001828054610c609061546e565b80156107b55780601f10610c82576101008083540402835291602001916107b5565b820191906000526020600020905b815481529060010190602001808311610c905750939695505050505050565b6040516336d39c6160e11b815260009073__$94d7d2f22770e4b0d1a2b99fb2812308e2$__90636da738c290610cef908590601e90600b90600401614ddc565b60206040518083038186803b158015610d0757600080fd5b505af4158015610d1b573d6000803e3d6000fd5b505050506040513d601f19601f820116820180604052508101906104e4919061373a565b60175481565b60125415610d8c576006546001600160a01b0316331480610d7057506013546001600160a01b031633145b610d8c5760405162461bcd60e51b815260040161051690614c1d565b6012548114610dad5760405162461bcd60e51b8152600401610516906148f7565b601b5415610dcd5760405162461bcd60e51b815260040161051690614b5e565b601a5415610ded5760405162461bcd60e51b815260040161051690614b93565b6001546013546012805460405163699e0add60e01b8152919373__$94d7d2f22770e4b0d1a2b99fb2812308e2$__9363699e0add93610e3f936001600160a01b0393841693600b931691600401614276565b60006040518083038186803b158015610e5757600080fd5b505af4158015610e6b573d6000803e3d6000fd5b505050506040513d6000823e601f3d908101601f19168201604052610e93919081019061392a565b8154600180820184556000938452602093849020835160069093020180546001600160a01b0319166001600160a01b03909316929092178255828401519082015560408201516002820155606082015160038201556080820151805192939192610f0392600485019201906132a4565b5060a082015160058201805460ff19166001836006811115610f3557634e487b7160e01b600052602160045260246000fd5b0217905550506016805460018101825560009182527fd833147d7dc355ba459fc788f669e58cfaf9dc25ddcd0702e87d69c7b5124289015550610f76612a90565b7f152ec8ae15d347b2d2a8f0858caa29bcaaa0906749a1f43e08bfe799834602403082604051610fa79291906142aa565b60405180910390a16014546001600160a01b0316156106325760145460405163253b91a760e11b81526001600160a01b0390911690634a77234e90610ff090849060040161468a565b600060405180830381600087803b15801561100a57600080fd5b505af1158015610981573d6000803e3d6000fd5b6007546001600160a01b031633146110485760405162461bcd60e51b815260040161051690614ab2565b60026012828154811061106b57634e487b7160e01b600052603260045260246000fd5b600091825260209091206006918202016005015460ff16908111156110a057634e487b7160e01b600052602160045260246000fd5b146110bd5760405162461bcd60e51b815260040161051690614b31565b73__$94d7d2f22770e4b0d1a2b99fb2812308e2$__6324b28602601283815481106105cf57634e487b7160e01b600052603260045260246000fd5b6007546001600160a01b031633146111225760405162461bcd60e51b815260040161051690614ab2565b60046012828154811061114557634e487b7160e01b600052603260045260246000fd5b600091825260209091206006918202016005015460ff169081111561117a57634e487b7160e01b600052602160045260246000fd5b146111975760405162461bcd60e51b815260040161051690614bc8565b73__$94d7d2f22770e4b0d1a2b99fb2812308e2$__6359111fb5601283815481106105cf57634e487b7160e01b600052603260045260246000fd5b6000818152601e60205260409020805460609190610c0190600190615156565b6014546001600160a01b031681565b60058054600654600754600854600980546001600160a01b0395861696948616959093169391926112319061546e565b80601f016020809104026020016040519081016040528092919081815260200182805461125d9061546e565b80156112aa5780601f1061127f576101008083540402835291602001916112aa565b820191906000526020600020905b81548152906001019060200180831161128d57829003601f168201915b50506040805160e0810182526006870180546001600160a01b03168252600788015460208084019190915260088901548385015260098901546060840152600a8901805485518184028101840190965280865298999893975091955060808701945090919083018282801561133e57602002820191906000526020600020905b81548152602001906001019080831161132a575b5050505050815260200160058201805480602002602001604051908101604052809291908181526020016000905b82821015611400578382906000526020600020906002020160405180604001604052908160008201548152602001600182018054806020026020016040519081016040528092919081815260200182805480156113e857602002820191906000526020600020905b8154815260200190600101908083116113d4575b5050505050815250508152602001906001019061136c565b50505050815260200160068201805480602002602001604051908101604052809291908181526020016000905b8282101561147f57600084815260209081902060408051606081018252600286029092018054835260019081015460ff808216858701526101009091041691830191909152908352909201910161142d565b5050505081525050905086565b60606012805480602002602001604051908101604052809291908181526020016000905b828210156115b25760008481526020908190206040805160c0810182526006860290920180546001600160a01b03168352600181015483850152600281015483830152600381015460608401526004810180548351818702810187019094528084529394919360808601939283018282801561154b57602002820191906000526020600020905b815481526020019060010190808311611537575b5050509183525050600582015460209091019060ff16600681111561158057634e487b7160e01b600052602160045260246000fd5b600681111561159f57634e487b7160e01b600052602160045260246000fd5b81525050815260200190600101906114b0565b50505050905090565b6006546001600160a01b031633146115e55760405162461bcd60e51b81526004016105169061495e565b600c5481146116065760405162461bcd60e51b815260040161051690614852565b60016012848154811061162957634e487b7160e01b600052603260045260246000fd5b600091825260209091206006918202016005015460ff169081111561165e57634e487b7160e01b600052602160045260246000fd5b1461167b5760405162461bcd60e51b815260040161051690614898565b73__$94d7d2f22770e4b0d1a2b99fb2812308e2$__636a0a24f1601285815481106116b657634e487b7160e01b600052603260045260246000fd5b906000526020600020906006020184846040518463ffffffff1660e01b81526004016116e493929190614cc6565b60006040518083038186803b1580156116fc57600080fd5b505af4158015611710573d6000803e3d6000fd5b5050505061171d83612a1a565b505050565b6013546001600160a01b031681565b6006546001600160a01b0316331461175b5760405162461bcd60e51b8152600401610516906147d7565b6000828152601f6020526040902054600a805460039290811061178e57634e487b7160e01b600052603260045260246000fd5b600091825260209091206001600590920201015460ff1660038111156117c457634e487b7160e01b600052602160045260246000fd5b146117e15760405162461bcd60e51b8152600401610516906147a7565b6117eb8282612d57565b604051600080516020615a3c83398151915290600090a15050565b6007546001600160a01b031633146118305760405162461bcd60e51b815260040161051690614ab2565b60046012838154811061185357634e487b7160e01b600052603260045260246000fd5b600091825260209091206006918202016005015460ff169081111561188857634e487b7160e01b600052602160045260246000fd5b146118a55760405162461bcd60e51b815260040161051690614bc8565b601682815481106118c657634e487b7160e01b600052603260045260246000fd5b906000526020600020015442116118ef5760405162461bcd60e51b815260040161051690614983565b600c548151146119115760405162461bcd60e51b815260040161051690614852565b6001546012805473__$94d7d2f22770e4b0d1a2b99fb2812308e2$__92631b948e49926001600160a01b03909116918690811061195e57634e487b7160e01b600052603260045260246000fd5b9060005260206000209060060201846040518463ffffffff1660e01b815260040161198b939291906142c3565b60006040518083038186803b1580156119a357600080fd5b505af41580156119b7573d6000803e3d6000fd5b505050505050565b600054610100900460ff16806119d8575060005460ff16155b6119f45760405162461bcd60e51b815260040161051690614a39565b600054610100900460ff16158015611a1f576000805460ff1961ff0019909116610100171660011790555b6000611a31604084016020850161354c565b6001600160a01b03161415611a585760405162461bcd60e51b815260040161051690614adb565b600280546001600160a01b03199081166001600160a01b03898116919091179092556000805462010000600160b01b031916336201000002179055600180548216888416179055601380549091169186169190911790556015839055816005611ac182826156bf565b90505060005b611ad460a0840184614df2565b9050811015611b465780601f6000611aef60a0870187614df2565b85818110611b0d57634e487b7160e01b600052603260045260246000fd5b9050602002810190611b1f9190614ef6565b60409081013582526020820192909252016000205580611b3e816154b6565b915050611ac7565b5080156119b7576000805461ff0019169055505050505050565b601254604051635cc1f6b560e01b815260009173__$94d7d2f22770e4b0d1a2b99fb2812308e2$__91635cc1f6b591611b9f91600a9190600401614574565b60206040518083038186803b158015611bb757600080fd5b505af4158015611bcb573d6000803e3d6000fd5b505050506040513d601f19601f82011682018060405250810190611bef919061373a565b905090565b6002546001600160a01b03163314611c0b57600080fd5b80601861171d8282615899565b600060128281548110611c3b57634e487b7160e01b600052603260045260246000fd5b600091825260209091206006918202016005015460ff1690811115611c7057634e487b7160e01b600052602160045260246000fd5b14611c8d5760405162461bcd60e51b815260040161051690614c9f565b611c95611b60565b1515600114611cb65760405162461bcd60e51b8152600401610516906149b2565b611cbf81610caf565b611cdb5760405162461bcd60e51b815260040161051690614929565b600160128281548110611cfe57634e487b7160e01b600052603260045260246000fd5b906000526020600020906006020160050160006101000a81548160ff02191690836006811115611d3e57634e487b7160e01b600052602160045260246000fd5b02179055506001546013546012805473__$94d7d2f22770e4b0d1a2b99fb2812308e2$__93630c5190e2936001600160a01b0391821693911691600b919087908110611d9a57634e487b7160e01b600052603260045260246000fd5b60009182526020808320600e548452601e909152604090922080546006909202909201919088908110611ddd57634e487b7160e01b600052603260045260246000fd5b906000526020600020018054611df29061546e565b80601f0160208091040260200160405190810160405280929190818152602001828054611e1e9061546e565b8015611e6b5780601f10611e4057610100808354040283529160200191611e6b565b820191906000526020600020905b815481529060010190602001808311611e4e57829003601f168201915b5050505050806020019051810190611e839190613772565b6040518663ffffffff1660e01b8152600401611ea3959493929190614225565b60006040518083038186803b158015611ebb57600080fd5b505af4158015611ecf573d6000803e3d6000fd5b50506001546012805473__$94d7d2f22770e4b0d1a2b99fb2812308e2$__9450630fa8790b935085926001600160a01b0316919083908110611f2157634e487b7160e01b600052603260045260246000fd5b90600052602060002090600602016005600601601e6017546040518763ffffffff1660e01b8152600401611f5a96959493929190614d76565b60006040518083038186803b158015611f7257600080fd5b505af4158015611f86573d6000803e3d6000fd5b50505050611f9381610632565b611f9c81612dce565b7fd0827269db3db709edf76a3ddd1455a86c1d22431cd6524fa5cbd79e709d4cdc816001604051611fce929190614dc8565b60405180910390a150565b63bc197c8160e01b98975050505050505050565b6000818152601e60209081526040808320805482518185028101850190935280835260609492939192909184015b828210156120c757838290600052602060002001805461203a9061546e565b80601f01602080910402602001604051908101604052809291908181526020018280546120669061546e565b80156120b35780601f10612088576101008083540402835291602001916120b3565b820191906000526020600020905b81548152906001019060200180831161209657829003601f168201915b50505050508152602001906001019061201b565b505050509050919050565b6120da6132ef565b6040805160e081018252600580546001600160a01b0390811683526006548116602084015260075416928201929092526008546060820152600980549192916080840191906121289061546e565b80601f01602080910402602001604051908101604052809291908181526020018280546121549061546e565b80156121a15780601f10612176576101008083540402835291602001916121a1565b820191906000526020600020905b81548152906001019060200180831161218457829003601f168201915b5050505050815260200160058201805480602002602001604051908101604052809291908181526020016000905b8282101561230657838290600052602060002090600502016040518060a0016040529081600082015481526020016001820160009054906101000a900460ff16600381111561222e57634e487b7160e01b600052602160045260246000fd5b600381111561224d57634e487b7160e01b600052602160045260246000fd5b815260200160028201548152602001600382015481526020016004820180546122759061546e565b80601f01602080910402602001604051908101604052809291908181526020018280546122a19061546e565b80156122ee5780601f106122c3576101008083540402835291602001916122ee565b820191906000526020600020905b8154815290600101906020018083116122d157829003601f168201915b505050505081525050815260200190600101906121cf565b505050908252506040805160e0810182526006840180546001600160a01b03168252600785015460208381019190915260088601548385015260098601546060840152600a86018054855181840281018401909652808652958201959394929360808601939283018282801561239b57602002820191906000526020600020905b815481526020019060010190808311612387575b5050505050815260200160058201805480602002602001604051908101604052809291908181526020016000905b8282101561245d5783829060005260206000209060020201604051806040016040529081600082015481526020016001820180548060200260200160405190810160405280929190818152602001828054801561244557602002820191906000526020600020905b815481526020019060010190808311612431575b505050505081525050815260200190600101906123c9565b50505050815260200160068201805480602002602001604051908101604052809291908181526020016000905b828210156124dc57600084815260209081902060408051606081018252600286029092018054835260019081015460ff808216858701526101009091041691830191909152908352909201910161248a565b50505091525050905250905090565b600b546040516370a0823160e01b81526000916001600160a01b0316906370a082319061251c903090600401614211565b60206040518083038186803b15801561253457600080fd5b505afa158015612548573d6000803e3d6000fd5b505050506040513d601f19601f82011682018060405250810190611bef9190613772565b600033826040516020016125819291906141f4565b60408051601f1981840301815291815281516020928301206000818152601d909352912054600a80549293506125e79290919081106125d057634e487b7160e01b600052603260045260246000fd5b906000526020600020906005020160030154610a85565b6001600160a01b0316336001600160a01b0316146126175760405162461bcd60e51b8152600401610516906148c8565b6000818152601d6020526040812054600a8054909190811061264957634e487b7160e01b600052603260045260246000fd5b600091825260209091206001600590920201015460ff16600381111561267f57634e487b7160e01b600052602160045260246000fd5b1461269c5760405162461bcd60e51b8152600401610516906147fb565b6000818152601d6020526040902054600a805490919081106126ce57634e487b7160e01b600052603260045260246000fd5b6000918252602082206005909102018054916126e9836154b6565b90915550506000818152601d6020526040902054600a805461289e9290811061272257634e487b7160e01b600052603260045260246000fd5b906000526020600020906005020160020154336001600160a01b0316633f4fb5aa60058001601a6003016000878152602001908152602001600020548154811061277c57634e487b7160e01b600052603260045260246000fd5b906000526020600020906005020160040180546127989061546e565b80601f01602080910402602001604051908101604052809291908181526020018280546127c49061546e565b80156128115780601f106127e657610100808354040283529160200191612811565b820191906000526020600020905b8154815290600101906020018083116127f457829003601f168201915b50505050508060200190518101906128299190613772565b6040518263ffffffff1660e01b8152600401612845919061468a565b60006040518083038186803b15801561285d57600080fd5b505afa158015612871573d6000803e3d6000fd5b505050506040513d6000823e601f3d908101601f191682016040526128999190810190613851565b612d57565b6000818152601d60205260408120819055601a8054916128bd83615457565b9091555050604051600080516020615a3c83398151915290600090a15050565b6128e681610a85565b6001600160a01b0316336001600160a01b0316146129165760405162461bcd60e51b8152600401610516906148c8565b6000828152601e60205260409020541580159061294257506012546000838152601e6020526040902054145b156129a15760405163de3a23c560e01b8152339063de3a23c59061296a90859060040161468a565b600060405180830381600087803b15801561298457600080fd5b505af1158015612998573d6000803e3d6000fd5b505050506129e4565b6000828152601c60209081526040822080546001810182559083529082200180546001600160a01b03191633179055601b8054916129de836154b6565b91905055505b5050565b60155481565b63f23a6e6160e01b5b9695505050505050565b6001600160e01b031981166301ffc9a760e01b14919050565b600854612a28906001615137565b612a32904261511f565b60168281548110612a5357634e487b7160e01b600052603260045260246000fd5b90600052602060002001819055507fc1fe98748892ddc1f4abaaf3a531e37201f461785e22d1a8ffb3c5a8e5bda6b681604051611fce919061468a565b60005b600a54811015612d3d576000600a805483908110612ac157634e487b7160e01b600052603260045260246000fd5b600091825260209091206001600590920201015460ff166003811115612af757634e487b7160e01b600052602160045260246000fd5b14612b3a57612b35600580018281548110612b2257634e487b7160e01b600052603260045260246000fd5b9060005260206000209060050201612f25565b612d2b565b6000306001600160a01b0316633837b05e600580018481548110612b6e57634e487b7160e01b600052603260045260246000fd5b9060005260206000209060050201600301546040518263ffffffff1660e01b8152600401612b9c919061468a565b60206040518083038186803b158015612bb457600080fd5b505afa158015612bc8573d6000803e3d6000fd5b505050506040513d601f19601f82011682018060405250810190612bec919061356f565b9050612bf88183613019565b806001600160a01b031663df33cc51600580018481548110612c2a57634e487b7160e01b600052603260045260246000fd5b90600052602060002090600502016004018054612c469061546e565b80601f0160208091040260200160405190810160405280929190818152602001828054612c729061546e565b8015612cbf5780601f10612c9457610100808354040283529160200191612cbf565b820191906000526020600020905b815481529060010190602001808311612ca257829003601f168201915b5050505050806020019051810190612cd79190613772565b6015546040518363ffffffff1660e01b8152600401612cf7929190614693565b600060405180830381600087803b158015612d1157600080fd5b505af1158015612d25573d6000803e3d6000fd5b50505050505b80612d35816154b6565b915050612a93565b50604051600080516020615a3c83398151915290600090a1565b601254612d6690600190615156565b6000838152601e602052604090205414612d925760405162461bcd60e51b815260040161051690614c71565b6000828152601e6020908152604082208054600181018255908352918190208351612dc493919091019184019061334c565b506129e48261313c565b6014546001600160a01b031615801590612e695750601460009054906101000a90046001600160a01b03166001600160a01b031663999925066040518163ffffffff1660e01b815260040160206040518083038186803b158015612e3157600080fd5b505afa158015612e45573d6000803e3d6000fd5b505050506040513d601f19601f82011682018060405250810190612e69919061373a565b8015612ef057506014546040516344c3b60760e01b81526001600160a01b03909116906344c3b60790612ea090849060040161468a565b60206040518083038186803b158015612eb857600080fd5b505afa158015612ecc573d6000803e3d6000fd5b505050506040513d601f19601f82011682018060405250810190612ef0919061373a565b156106325760145460405163b992db0f60e01b81526001600160a01b039091169063b992db0f90610ff090849060040161468a565b600181015460039060ff1681811115612f4e57634e487b7160e01b600052602160045260246000fd5b1115612f6c5760405162461bcd60e51b8152600401610516906149db565b8054816000612f7a836154b6565b9091555060039050600182015460ff166003811115612fa957634e487b7160e01b600052602160045260246000fd5b1461063257610632816002015473__$94d7d2f22770e4b0d1a2b99fb2812308e2$__63b3d73707846040518263ffffffff1660e01b8152600401612fed919061468a565b60006040518083038186803b15801561300557600080fd5b505af4158015612871573d6000803e3d6000fd5b80601a60030160008460058001858154811061304557634e487b7160e01b600052603260045260246000fd5b906000526020600020906005020160040180546130619061546e565b80601f016020809104026020016040519081016040528092919081815260200182805461308d9061546e565b80156130da5780601f106130af576101008083540402835291602001916130da565b820191906000526020600020905b8154815290600101906020018083116130bd57829003601f168201915b50505050508060200190518101906130f29190613772565b6040516020016131039291906141f4565b60408051601f19818403018152918152815160209283012083529082019290925201600090812091909155601a8054916129de836154b6565b60005b6000828152601c60205260409020548110156129e4576000828152601c6020526040812080548390811061318357634e487b7160e01b600052603260045260246000fd5b6000918252602090912001546001600160a01b031614613292576000828152601c602052604090208054829081106131cb57634e487b7160e01b600052603260045260246000fd5b60009182526020909120015460405163de3a23c560e01b81526001600160a01b039091169063de3a23c59061320490859060040161468a565b600060405180830381600087803b15801561321e57600080fd5b505af1158015613232573d6000803e3d6000fd5b5050506000838152601c6020526040902080549091508290811061326657634e487b7160e01b600052603260045260246000fd5b6000918252602082200180546001600160a01b0319169055601b80549161328c83615457565b91905055505b8061329c816154b6565b91505061313f565b8280548282559060005260206000209081019282156132df579160200282015b828111156132df5782518255916020019190600101906132c4565b506132eb9291506133bf565b5090565b6040518060e0016040528060006001600160a01b0316815260200160006001600160a01b0316815260200160006001600160a01b031681526020016000815260200160608152602001606081526020016133476133d4565b905290565b8280546133589061546e565b90600052602060002090601f01602090048101928261337a57600085556132df565b82601f1061339357805160ff19168380011785556132df565b828001600101855582156132df57918201828111156132df5782518255916020019190600101906132c4565b5b808211156132eb57600081556001016133c0565b6040518060e0016040528060006001600160a01b031681526020016000815260200160008152602001600080191681526020016060815260200160608152602001606081525090565b80356104e781615a0a565b60008083601f840112613439578182fd5b5081356001600160401b0381111561344f578182fd5b602083019150836020808302850101111561346957600080fd5b9250929050565b600082601f830112613480578081fd5b8151602061349561349083614f34565b614f0b565b82815281810190858301838502870184018810156134b1578586fd5b855b858110156134cf578151845292840192908401906001016134b3565b5090979650505050505050565b60008083601f8401126134ed578182fd5b5081356001600160401b03811115613503578182fd5b60208301915083602082850101111561346957600080fd5b80516104e781615a0a565b8051600781106104e757600080fd5b600060e08284031215613546578081fd5b50919050565b60006020828403121561355d578081fd5b813561356881615a0a565b9392505050565b600060208284031215613580578081fd5b815161356881615a0a565b600080600080600060a086880312156135a2578081fd5b85356135ad81615a0a565b945060208601356135bd81615a0a565b935060408601356135cd81615a0a565b92506060860135915060808601356001600160401b038111156135ee578182fd5b6135fa88828901613535565b9150509295509295909350565b60008060008060008060008060a0898b031215613622578586fd5b883561362d81615a0a565b9750602089013561363d81615a0a565b965060408901356001600160401b0380821115613658578788fd5b6136648c838d01613428565b909850965060608b013591508082111561367c578485fd5b6136888c838d01613428565b909650945060808b01359150808211156136a0578384fd5b506136ad8b828c016134dc565b999c989b5096995094979396929594505050565b60008060008060008060a087890312156136d9578384fd5b86356136e481615a0a565b955060208701356136f481615a0a565b9450604087013593506060870135925060808701356001600160401b0381111561371c578283fd5b61372889828a016134dc565b979a9699509497509295939492505050565b60006020828403121561374b578081fd5b81518015158114613568578182fd5b60006020828403121561376b578081fd5b5035919050565b600060208284031215613783578081fd5b5051919050565b6000806040838503121561379c578182fd5b8235915060208301356001600160401b038111156137b8578182fd5b8301601f810185136137c8578182fd5b80356137d661349082614f57565b8181528660208385010111156137ea578384fd5b81602084016020830137908101602001929092525090939092509050565b6000806040838503121561381a578182fd5b50508035926020909101359150565b60006020828403121561383a578081fd5b81356001600160e01b031981168114613568578182fd5b600060208284031215613862578081fd5b81516001600160401b03811115613877578182fd5b8201601f81018413613887578182fd5b805161389561349082614f57565b8181528560208385010111156138a9578384fd5b6138ba826020830160208601615427565b95945050505050565b6000806000806000608086880312156138da578283fd5b85356138e581615a0a565b9450602086013593506040860135925060608601356001600160401b0381111561390d578182fd5b61391988828901613428565b969995985093965092949392505050565b60006020828403121561393b578081fd5b81516001600160401b0380821115613951578283fd5b9083019060c08286031215613964578283fd5b60405160c08101818110838211171561397f5761397f615513565b60405261398b8361351b565b81526020830151602082015260408301516040820152606083015160608201526080830151828111156139bc578485fd5b6139c887828601613470565b6080830152506139da60a08401613526565b60a082015295945050505050565b6000602082840312156139f9578081fd5b81356001600160401b03811115613a0e578182fd5b613a1a84828501613535565b949350505050565b600060608284031215613546578081fd5b600080600060408486031215613a47578081fd5b8335925060208401356001600160401b03811115613a63578182fd5b613a6f86828701613428565b9497909650939450505050565b60008060408385031215613a8e578182fd5b823591506020808401356001600160401b03811115613aab578283fd5b8401601f81018613613abb578283fd5b8035613ac961349082614f34565b81815283810190838501858402850186018a1015613ae5578687fd5b8694505b83851015613b07578035835260019490940193918501918501613ae9565b5080955050505050509250929050565b6001600160a01b03169052565b81835260006001600160fb1b03831115613b3c578081fd5b6020830280836020870137939093016020019283525090919050565b818352602080840193600091908185020181018584845b87811015613bfd5782840389528135609e19883603018112613b8f578687fd5b87018035855260a086820135613ba481615a1f565b613bb088880182613e3a565b5060408281013590870152606080830135908701526080613bd3818401846150bd565b93508282890152613be78389018583613de4565b9c89019c97505050928601925050600101613b6f565b5091979650505050505050565b6000815180845260208085018081965082840281019150828601855b85811015613bfd578284038952815160a08151865286820151613c4b88880182613e3a565b506040828101519087015260608083015190870152608091820151918601819052613c7881870183613e0e565b9a87019a9550505090840190600101613c26565b60008284526020808501945082825b85811015613ce5578135875282820135613cb481615a2c565b60ff9081168885015260409083820135613ccd81615a2c565b16908801526060968701969190910190600101613c9b565b509495945050505050565b6000815180845260208085019450808401835b83811015613ce5578151805188528381015160ff908116858a0152604091820151169088015260609096019590820190600101613d03565b6000815480845260208401935082825260208220825b82811015613d7957613d6386836141d3565b6060959095019460029190910190600101613d51565b5093949350505050565b6000815180845260208085019450808401835b83811015613ce557815187529582019590820190600101613d96565b6000815480845260208085019450838352808320835b83811015613ce557815487529582019560019182019101613dc8565b60008284528282602086013780602084860101526020601f19601f85011685010190509392505050565b60008151808452613e26816020860160208601615427565b601f01601f19169290920160200192915050565b60048110613e4a57613e4a6154fd565b9052565b60078110613e4a57613e4a6154fd565b60008135613e6b81615a0a565b6001600160a01b03168352602082810135818501526040808401358186015260608085013590860152613ea1608085018561502f565b60e06080880152613eb660e088018284613b24565b915050613ec660a086018661502f565b87830360a08901528083528483018582028401860183885b84811015613f3d57868303601f19018452813536879003603e19018112613f03578a8bfd5b860180358452613f158a82018261502f565b9150898b860152613f298a86018383613b24565b958b01959450505090880190600101613ede565b5050613f4c60c08a018a615076565b9750955089810360c08b0152613f63818888613c8c565b9a9950505050505050505050565b600060018060a01b038251168352602080830151818501526040808401518186015260608085015181870152608085015160e06080880152613fb660e0880182613d83565b905060a086015187820360a08901528181518084528684019150868782028501018784019350885b8281101561404657858203601f190184528451805183528901518983018990528051898401819052908a01908b90898501905b808310156140315783518252928c019260019290920191908c0190614011565b50968b0196958b019593505050600101613fde565b5060c08a015197508a810360c08c01526140608189613cf0565b9b9a5050505050505050505050565b600060018060a01b038254168352600180830154602081818701526002915081850154604081818901526003870154915081606089015260e060808901526140bd60e0890160048901613db2565b88810360a08a01526005880180548083529088528488209193508484019085810285018601895b8281101561414a57868203601f19018452845482528782018690528985018054878401819052908c52888c20908c9060608501905b808310156141365783548252928d0192918d0191908b0190614119565b50968b0196958a01959350505089016140e4565b508b810360c08d01526141608160068d01613d3b565b9c9b505050505050505050505050565b80546001600160a01b0316825260018101546020830152600281015460408301526003810154606083015260c0608083018190526000906141b690840160048401613db2565b60ff6005840154166141cb60a0860182613e4e565b509392505050565b805482526001015460ff808216602084015260089190911c16604090910152565b60609290921b6001600160601b0319168252601482015260340190565b6001600160a01b0391909116815260200190565b6001600160a01b0386811682528516602082015260a0604082018190526000906142519083018661406f565b82810360608401526142638186614170565b9150508260808301529695505050505050565b600060018060a01b03808716835260806020840152614298608084018761406f565b94166040830152506060015292915050565b6001600160a01b03929092168252602082015260400190565b6001600160a01b038416815260208082018490526060604083018190528351908301819052600091848101916080850190845b81811015614312578451835293830193918301916001016142f6565b509098975050505050505050565b6001600160a01b038616815260e060208201526000853561434081615a0a565b61434d60e0840182613b17565b5061435a6020870161341d565b614368610100840182613b17565b506143756040870161341d565b614383610120840182613b17565b50606086013561014083015261439c60808701876150bd565b60e06101608501526143b36101c085018284613de4565b9150506143c360a088018861502f565b60df1980868503016101808701526143dc848385613b58565b93506143eb60c08b018b615101565b925080868503016101a087015250506144048282613e5e565b925050508460408301528360608301526129f760808301846141d3565b6020808252825182820181905260009190848201906040850190845b818110156144625783516001600160a01b03168352928401929184019160010161443d565b50909695505050505050565b6000602080830181845280855180835260408601915060408482028701019250838701855b828110156144c157603f198886030184526144af858351613e0e565b94509285019290850190600101614493565b5092979650505050505050565b60208082528251828201819052600091906040908185019080840286018301878501865b8381101561431257888303603f19018552815180516001600160a01b03168452878101518885015286810151878501526060808201519085015260808082015160c0828701819052919061454883880182613d83565b9250505060a080830151925061456081870184613e4e565b5095880195935050908601906001016144f2565b60006040820160408352808554808352606092508285019150602083818302870101888652818620865b8481101561466d57605f1989840301865260a082548452600160ff81850154166145ca87870182613e3a565b5060028401546040860152600384015489860152600484018260808701528a81546145f48161546e565b94880185905260c0948185168015614613576001811461462757614652565b60ff1983168a88015260e08a019350614652565b848f528a8f208f5b8381101561464a5781548c82018a0152908701908c0161462f565b8b0188019450505b5050509887019895505050600592909201915060010161459e565b50509501959095525091949350505050565b901515815260200190565b90815260200190565b918252602082015260400190565b92835260ff918216602084015216604082015260600190565b6001600160e01b031991909116815260200190565b6000602082526135686020830184613e0e565b600060018060a01b038716825285602083015284604083015260806060830152614710608083018486613b24565b979650505050505050565b6001600160a01b038616815260208101859052604081018490526060810183905260a081016129f76080830184613e4e565b6001600160a01b0387811682528681166020830152851660408201526060810184905260c06080820181905260009061478890830185613e0e565b82810360a084015261479a8185613f71565b9998505050505050505050565b6020808252601690820152751bdb9b1e48125b99d95cdd151e5c194b93585b9d585b60521b604082015260600190565b6020808252600a908201526927b7363ca5b2b2b832b960b11b604082015260600190565b602080825260139082015272496e67657374206e6f742043616c6c6261636b60681b604082015260600190565b60208082526010908201526f14dbdb1d995c881a185cc818da1a5b1960821b604082015260600190565b60208082526026908201527f7061796f7574732e6c656e677468206d757374206d61746368206f7574636f6d60408201526565536c6f747360d01b606082015260800190565b60208082526016908201527510dbdb991a5d1a5bdb881b9bdd08115e1958dd5d195960521b604082015260600190565b60208082526015908201527436b9b39739b2b73232b9103737ba1039b7b63b32b960591b604082015260600190565b602080825260189082015277496e76616c696420696e64657820746f207072657061726560401b604082015260600190565b6020808252818101527f526563697069656e7420736c6f74207265717569726573207570646174696e67604082015260600190565b6020808252600b908201526a27b7363c9025b2b2b832b960a91b604082015260600190565b602080825260159082015274151a5b595b1bd8dac81cdd1a5b1b081b1bd8dad959605a1b604082015260600190565b6020808252600f908201526e1a5b99d95cdd1cc81a5b9d985b1a59608a1b604082015260600190565b602080825260129082015271496e76616c696420696e676573745479706560701b604082015260600190565b602080825260189082015277139bdd08105c989a5d1c985d1a5bdb94995c5d595cdd195960421b604082015260600190565b6020808252602e908201527f496e697469616c697a61626c653a20636f6e747261637420697320616c72656160408201526d191e481a5b9a5d1a585b1a5e995960921b606082015260800190565b60208082526011908201527029b637ba1034b73b30b634b2103b32b91760791b604082015260600190565b6020808252600f908201526e27b7363c9030b93134ba3930ba37b960891b604082015260600190565b6020808252600e908201526d12d9595c195c881a5b9d985b1a5960921b604082015260600190565b60208082526014908201527313dd5d18dbdb59481b9bdd081c1c9bdc1bdcd95960621b604082015260600190565b602080825260139082015272139bdd0813dd5d18dbdb59541c9bdc1bdcd959606a1b604082015260600190565b6020808252818101527f46756c66696c6c206f7574676f696e672063616c6c6261636b73206669727374604082015260600190565b6020808252818101527f46756c66696c6c20696e636f6d696e672063616c6c6261636b73206669727374604082015260600190565b6020808252601690820152754e6f74204172626974726174696f6e50656e64696e6760501b604082015260600190565b6020808252600b908201526a27b7363c9035b2b2b832b960a91b604082015260600190565b60208082526012908201527113db9b1e481ad9595c195c8bdc185c995b9d60721b604082015260600190565b6020808252600e908201526d151c9858dada5b99d259081cd95d60921b604082015260600190565b60208082526014908201527314db1bdd081d995c9cda5bdb881a5b9d985b1a5960621b604082015260600190565b6020808252600d908201526c1b9bdd08125b9a5d1a585d1959609a1b604082015260600190565b6000848252604060208301526138ba604083018486613b24565b60006020825260018060a01b03808451166020840152806020850151166040840152506040830151614d156060840182613b17565b5060608301516080830152608083015160e060a0840152614d3a610100840182613e0e565b905060a0840151601f19808584030160c0860152614d588383613c0a565b925060c08601519150808584030160e0860152506138ba8282613f71565b8681526001600160a01b038616602082015260c060408201819052600090614da090830187614170565b8281036060840152614db2818761406f565b6080840195909552505060a00152949350505050565b828152604081016135686020830184613e4e565b9283526020830191909152604082015260600190565b6000808335601e19843603018112614e08578283fd5b8301803591506001600160401b03821115614e21578283fd5b602090810192508102360382131561346957600080fd5b6000808335601e19843603018112614e4e578283fd5b8301803591506001600160401b03821115614e67578283fd5b602001915060608102360382131561346957600080fd5b6000808335601e19843603018112614e94578283fd5b8301803591506001600160401b03821115614ead578283fd5b60200191503681900382131561346957600080fd5b60008235603e19833603018112614ed7578182fd5b9190910192915050565b6000823560de19833603018112614ed7578182fd5b60008235609e19833603018112614ed7578182fd5b6040518181016001600160401b0381118282101715614f2c57614f2c615513565b604052919050565b60006001600160401b03821115614f4d57614f4d615513565b5060209081020190565b60006001600160401b03821115614f7057614f70615513565b50601f01601f191660200190565b60009081526020902090565b602084108015614fe057601f841160018114614fb157614faa86856154a3565b8355614fda565b614fba83614f7e565b614fcf6020601f88010482016001830161516d565b50614fda8684615584565b50610981565b8160005260206000206020601f8701048101601f8716801561500a5761500a816000198401615529565b5061501d6020601f88010483018261516d565b50506001856002021782555050505050565b6000808335601e19843603018112615045578283fd5b83016020810192503590506001600160401b0381111561506457600080fd5b60208102360383131561346957600080fd5b6000808335601e1984360301811261508c578283fd5b83016020810192503590506001600160401b038111156150ab57600080fd5b60608102360383131561346957600080fd5b6000808335601e198436030181126150d3578283fd5b83016020810192503590506001600160401b038111156150f257600080fd5b80360383131561346957600080fd5b6000823560de19833603018112615116578182fd5b90910192915050565b60008219821115615132576151326154e7565b500190565b6000816000190483118215151615615151576151516154e7565b500290565b600082821015615168576151686154e7565b500390565b5b818110156129e4576000815560010161516e565b600160401b83111561519657615196615513565b80548382558084101561521b576001600160ff1b0360018183118116156151bf576151bf6154e7565b60028287118216156151d3576151d36154e7565b600085815260208120909350878202810190828602015b80821015615215576151fe858684546155a2565b825561520c8585840161553d565b908201906151ea565b50505050505b508161522682614f7e565b6000805b8681101561525c5761524661523f8588614ec2565b83856158fb565b602093909301926002929092019160010161522a565b50505050505050565b600160401b83111561527957615279615513565b8054838255808410156152f8576001600160ff1b0360018183118116156152a2576152a26154e7565b60028287118216156152b6576152b66154e7565b600085815260208120909350878202810190828602015b808210156152f2576152e1858684546155a2565b8255848483015582820191506152cd565b50505050505b508161530382614f7e565b6000805b8681101561525c5761531a8483856159c3565b6060939093019260029290920191600101615307565b6001600160401b0383111561534757615347615513565b615351815461546e565b600080601f8611601f8411818117156153705761536d86614f7e565b92505b801561539f576020601f8901048301602089101561538b5750825b61539d6020601f88010485018261516d565b505b5080600181146153cb576000945087156153ba578387013594505b6153c488866154a3565b865561541d565b601f198816945082845b868110156153f557888601358255602095860195600190920191016153d5565b508886101561541257878501356000196008601f8c16021c191681555b506001600289020186555b5050505050505050565b60005b8381101561544257818101518382015260200161542a565b83811115615451576000848401525b50505050565b600081615466576154666154e7565b506000190190565b60028104600182168061548257607f821691505b6020821081141561354657634e487b7160e01b600052602260045260246000fd5b600019600883021c191660029091021790565b60006000198214156154ca576154ca6154e7565b5060010190565b634e487b7160e01b600052600060045260246000fd5b634e487b7160e01b600052601160045260246000fd5b634e487b7160e01b600052602160045260246000fd5b634e487b7160e01b600052604160045260246000fd5b8054600019836020036008021c1681555050565b600160401b82111561555157615551615513565b80548282558083101561171d576000828152602081208481019083015b808210156119b75782825560018201915061556e565b8060005260206000206155988382546154a3565b9091556000905550565b60089190910291821b60001990921b9182169119161790565b80546001600160a01b0319166001600160a01b0392909216919091179055565b81356155e681615a0a565b6155f081836155bb565b506001602080840135828401556040840135600284015560608401356003840155600483016156226080860186614df2565b600160401b81111561563657615636615513565b82548184558082101561565b57836000528460002061565982820184830161516d565b505b506000928352838320925b81811015615681578235845592850192918401918501615666565b50505050505061569460a0830183614df2565b6156a2818360058601615182565b50506156b160c0830183614e38565b615451818360068601615265565b81356156ca81615a0a565b6156d481836155bb565b5060016020808401356156e681615a0a565b6156f2818486016155bb565b506002604085013561570381615a0a565b61570f818387016155bb565b506003606086013581860155600461572a6080880188614e7e565b6157378183858b01615330565b5050600580870161574b60a08a018a614df2565b600160401b81111561575f5761575f615513565b825481845580821015615833577f33333333333333333333333333333333333333333333333333333333333333338082118b161561579f5761579f6154e7565b8083118b16156157b1576157b16154e7565b506000848152898120838702810190878402015b8082101561582f576157d9838484546155a2565b8255828d8301558a82016157ef848583546155a2565b815550898201615801848583546155a2565b905581890180546158118161546e565b80156158235761582386828486614f8a565b505050908701906157c5565b5050505b5081965061584083614f7e565b9550600094508492505b808310156158775761586661585f8884614ef6565b868861594f565b95870195948301949188019161584a565b5050505050505050506129e461589060c0840184614ee1565b600683016155db565b813581556001810160208301356158af81615a2c565b6158b981836158d2565b5060408301356158c881615a2c565b61545181836158e3565b60ff821660ff198254161781555050565b805461ff008360081b1661ff00198216178255505050565b8115615909576159096154d1565b823581556001808201602061592081870187614df2565b61592a818561553d565b6000938452828420935b81811015610a17578235855593850193918301918501615934565b811561595d5761595d6154d1565b8235815560018101602084013561597381615a1f565b60048110615983576159836154fd565b60ff1982541660ff82168117835550505060408301356002820155606083013560038201556159b56080840184614e7e565b610981818360048601615330565b81156159d1576159d16154d1565b823581556001810160208401356159e781615a2c565b6159f181836158d2565b506040840135615a0081615a2c565b61098181836158e3565b6001600160a01b038116811461063257600080fd5b6004811061063257600080fd5b60ff8116811461063257600080fdfe71bd81ebe1d98a2944767394e76a9aff18724b2cf04e1db71254f804544b35c7a264697066735822122081ce173dd79c12ce01e8b6383fb300b4d017d0531012e2a4b1a735ee1c336b3464736f6c63430008000033",
  "linkReferences": {
    "contracts/SolverLib.sol": {
      "SolverLib": [
        {
          "length": 20,
          "start": 1463
        },
        {
          "length": 20,
          "start": 1732
        },
        {
          "length": 20,
          "start": 2311
        },
        {
          "length": 20,
          "start": 3298
        },
        {
          "length": 20,
          "start": 3625
        },
        {
          "length": 20,
          "start": 4320
        },
        {
          "length": 20,
          "start": 4538
        },
        {
          "length": 20,
          "start": 5790
        },
        {
          "length": 20,
          "start": 6459
        },
        {
          "length": 20,
          "start": 7062
        },
        {
          "length": 20,
          "start": 7536
        },
        {
          "length": 20,
          "start": 7931
        },
        {
          "length": 20,
          "start": 12249
        }
      ]
    }
  },
  "deployedLinkReferences": {
    "contracts/SolverLib.sol": {
      "SolverLib": [
        {
          "length": 20,
          "start": 1430
        },
        {
          "length": 20,
          "start": 1699
        },
        {
          "length": 20,
          "start": 2278
        },
        {
          "length": 20,
          "start": 3265
        },
        {
          "length": 20,
          "start": 3592
        },
        {
          "length": 20,
          "start": 4287
        },
        {
          "length": 20,
          "start": 4505
        },
        {
          "length": 20,
          "start": 5757
        },
        {
          "length": 20,
          "start": 6426
        },
        {
          "length": 20,
          "start": 7029
        },
        {
          "length": 20,
          "start": 7503
        },
        {
          "length": 20,
          "start": 7898
        },
        {
          "length": 20,
          "start": 12216
        }
      ]
    }
  }
}