{
  "_format": "hh-sol-artifact-1",
  "contractName": "BasicSolverV1",
  "sourceName": "contracts/BasicSolverV1.sol",
  "abi": [
    {
      "anonymous": false,
      "inputs": [
        {
          "indexed": false,
          "internalType": "address",
          "name": "chainChild",
          "type": "address"
        }
      ],
      "name": "DeployedChild",
      "type": "event"
    },
    {
      "anonymous": false,
      "inputs": [],
      "name": "IngestedData",
      "type": "event"
    },
    {
      "anonymous": false,
      "inputs": [
        {
          "indexed": false,
          "internalType": "address",
          "name": "solver",
          "type": "address"
        },
        {
          "indexed": false,
          "internalType": "uint256",
          "name": "solveIndex",
          "type": "uint256"
        }
      ],
      "name": "PreparedSolve",
      "type": "event"
    },
    {
      "inputs": [
        {
          "internalType": "bytes32",
          "name": "_slot",
          "type": "bytes32"
        },
        {
          "internalType": "bytes",
          "name": "_data",
          "type": "bytes"
        }
      ],
      "name": "addData",
      "outputs": [],
      "stateMutability": "nonpayable",
      "type": "function"
    },
    {
      "inputs": [
        {
          "internalType": "uint256",
          "name": "_index",
          "type": "uint256"
        }
      ],
      "name": "addressFromChainIndex",
      "outputs": [
        {
          "internalType": "address",
          "name": "_address",
          "type": "address"
        }
      ],
      "stateMutability": "view",
      "type": "function"
    },
    {
      "inputs": [
        {
          "internalType": "uint256",
          "name": "_index",
          "type": "uint256"
        }
      ],
      "name": "allocationsValid",
      "outputs": [
        {
          "internalType": "bool",
          "name": "",
          "type": "bool"
        }
      ],
      "stateMutability": "view",
      "type": "function"
    },
    {
      "inputs": [
        {
          "internalType": "uint256",
          "name": "_index",
          "type": "uint256"
        },
        {
          "internalType": "uint256[]",
          "name": "payouts",
          "type": "uint256[]"
        }
      ],
      "name": "arbitrate",
      "outputs": [],
      "stateMutability": "nonpayable",
      "type": "function"
    },
    {
      "inputs": [
        {
          "internalType": "uint256",
          "name": "_index",
          "type": "uint256"
        }
      ],
      "name": "arbitrateNull",
      "outputs": [],
      "stateMutability": "nonpayable",
      "type": "function"
    },
    {
      "inputs": [
        {
          "internalType": "uint256",
          "name": "_index",
          "type": "uint256"
        }
      ],
      "name": "arbitrationPending",
      "outputs": [],
      "stateMutability": "nonpayable",
      "type": "function"
    },
    {
      "inputs": [
        {
          "internalType": "uint256",
          "name": "_index",
          "type": "uint256"
        }
      ],
      "name": "arbitrationRequested",
      "outputs": [],
      "stateMutability": "nonpayable",
      "type": "function"
    },
    {
      "inputs": [],
      "name": "chainChild",
      "outputs": [
        {
          "internalType": "address",
          "name": "",
          "type": "address"
        }
      ],
      "stateMutability": "view",
      "type": "function"
    },
    {
      "inputs": [],
      "name": "chainIndex",
      "outputs": [
        {
          "internalType": "uint256",
          "name": "",
          "type": "uint256"
        }
      ],
      "stateMutability": "view",
      "type": "function"
    },
    {
      "inputs": [],
      "name": "chainParent",
      "outputs": [
        {
          "internalType": "address",
          "name": "",
          "type": "address"
        }
      ],
      "stateMutability": "view",
      "type": "function"
    },
    {
      "inputs": [],
      "name": "collateralBalance",
      "outputs": [
        {
          "internalType": "uint256",
          "name": "balance",
          "type": "uint256"
        }
      ],
      "stateMutability": "view",
      "type": "function"
    },
    {
      "inputs": [
        {
          "internalType": "uint256",
          "name": "",
          "type": "uint256"
        }
      ],
      "name": "conditions",
      "outputs": [
        {
          "internalType": "contract IERC20",
          "name": "collateralToken",
          "type": "address"
        },
        {
          "internalType": "bytes32",
          "name": "questionId",
          "type": "bytes32"
        },
        {
          "internalType": "bytes32",
          "name": "parentCollectionId",
          "type": "bytes32"
        },
        {
          "internalType": "bytes32",
          "name": "conditionId",
          "type": "bytes32"
        },
        {
          "internalType": "enum SolverLib.Status",
          "name": "status",
          "type": "uint8"
        }
      ],
      "stateMutability": "view",
      "type": "function"
    },
    {
      "inputs": [],
      "name": "config",
      "outputs": [
        {
          "internalType": "contract Solver",
          "name": "implementation",
          "type": "address"
        },
        {
          "internalType": "address",
          "name": "keeper",
          "type": "address"
        },
        {
          "internalType": "address",
          "name": "arbitrator",
          "type": "address"
        },
        {
          "internalType": "uint256",
          "name": "timelockSeconds",
          "type": "uint256"
        },
        {
          "internalType": "bytes",
          "name": "data",
          "type": "bytes"
        },
        {
          "components": [
            {
              "internalType": "contract IERC20",
              "name": "collateralToken",
              "type": "address"
            },
            {
              "internalType": "uint256",
              "name": "outcomeSlots",
              "type": "uint256"
            },
            {
              "internalType": "uint256",
              "name": "parentCollectionIndexSet",
              "type": "uint256"
            },
            {
              "internalType": "bytes32",
              "name": "amountSlot",
              "type": "bytes32"
            },
            {
              "internalType": "uint256[]",
              "name": "partition",
              "type": "uint256[]"
            },
            {
              "components": [
                {
                  "internalType": "bytes32",
                  "name": "recipientAddressSlot",
                  "type": "bytes32"
                },
                {
                  "internalType": "bytes32[]",
                  "name": "recipientAmountSlots",
                  "type": "bytes32[]"
                }
              ],
              "internalType": "struct SolverLib.Allocation[]",
              "name": "allocations",
              "type": "tuple[]"
            },
            {
              "components": [
                {
                  "internalType": "bytes32",
                  "name": "digest",
                  "type": "bytes32"
                },
                {
                  "internalType": "uint8",
                  "name": "hashFunction",
                  "type": "uint8"
                },
                {
                  "internalType": "uint8",
                  "name": "size",
                  "type": "uint8"
                }
              ],
              "internalType": "struct SolverLib.Multihash[]",
              "name": "outcomeURIs",
              "type": "tuple[]"
            }
          ],
          "internalType": "struct SolverLib.ConditionBase",
          "name": "conditionBase",
          "type": "tuple"
        }
      ],
      "stateMutability": "view",
      "type": "function"
    },
    {
      "inputs": [
        {
          "internalType": "uint256",
          "name": "_index",
          "type": "uint256"
        }
      ],
      "name": "confirmPayouts",
      "outputs": [],
      "stateMutability": "nonpayable",
      "type": "function"
    },
    {
      "inputs": [
        {
          "components": [
            {
              "internalType": "contract Solver",
              "name": "implementation",
              "type": "address"
            },
            {
              "internalType": "address",
              "name": "keeper",
              "type": "address"
            },
            {
              "internalType": "address",
              "name": "arbitrator",
              "type": "address"
            },
            {
              "internalType": "uint256",
              "name": "timelockSeconds",
              "type": "uint256"
            },
            {
              "internalType": "bytes",
              "name": "data",
              "type": "bytes"
            },
            {
              "components": [
                {
                  "internalType": "uint256",
                  "name": "executions",
                  "type": "uint256"
                },
                {
                  "internalType": "enum SolverLib.IngestType",
                  "name": "ingestType",
                  "type": "uint8"
                },
                {
                  "internalType": "bytes32",
                  "name": "slot",
                  "type": "bytes32"
                },
                {
                  "internalType": "uint256",
                  "name": "solverIndex",
                  "type": "uint256"
                },
                {
                  "internalType": "bytes",
                  "name": "data",
                  "type": "bytes"
                }
              ],
              "internalType": "struct SolverLib.Ingest[]",
              "name": "ingests",
              "type": "tuple[]"
            },
            {
              "components": [
                {
                  "internalType": "contract IERC20",
                  "name": "collateralToken",
                  "type": "address"
                },
                {
                  "internalType": "uint256",
                  "name": "outcomeSlots",
                  "type": "uint256"
                },
                {
                  "internalType": "uint256",
                  "name": "parentCollectionIndexSet",
                  "type": "uint256"
                },
                {
                  "internalType": "bytes32",
                  "name": "amountSlot",
                  "type": "bytes32"
                },
                {
                  "internalType": "uint256[]",
                  "name": "partition",
                  "type": "uint256[]"
                },
                {
                  "components": [
                    {
                      "internalType": "bytes32",
                      "name": "recipientAddressSlot",
                      "type": "bytes32"
                    },
                    {
                      "internalType": "bytes32[]",
                      "name": "recipientAmountSlots",
                      "type": "bytes32[]"
                    }
                  ],
                  "internalType": "struct SolverLib.Allocation[]",
                  "name": "allocations",
                  "type": "tuple[]"
                },
                {
                  "components": [
                    {
                      "internalType": "bytes32",
                      "name": "digest",
                      "type": "bytes32"
                    },
                    {
                      "internalType": "uint8",
                      "name": "hashFunction",
                      "type": "uint8"
                    },
                    {
                      "internalType": "uint8",
                      "name": "size",
                      "type": "uint8"
                    }
                  ],
                  "internalType": "struct SolverLib.Multihash[]",
                  "name": "outcomeURIs",
                  "type": "tuple[]"
                }
              ],
              "internalType": "struct SolverLib.ConditionBase",
              "name": "conditionBase",
              "type": "tuple"
            }
          ],
          "internalType": "struct SolverLib.Config",
          "name": "_config",
          "type": "tuple"
        }
      ],
      "name": "deployChild",
      "outputs": [
        {
          "internalType": "contract Solver",
          "name": "_solver",
          "type": "address"
        }
      ],
      "stateMutability": "nonpayable",
      "type": "function"
    },
    {
      "inputs": [
        {
          "internalType": "uint256",
          "name": "_index",
          "type": "uint256"
        }
      ],
      "name": "executeSolve",
      "outputs": [],
      "stateMutability": "nonpayable",
      "type": "function"
    },
    {
      "inputs": [
        {
          "internalType": "bytes32",
          "name": "_slot",
          "type": "bytes32"
        }
      ],
      "name": "getAllData",
      "outputs": [
        {
          "internalType": "bytes[]",
          "name": "data",
          "type": "bytes[]"
        }
      ],
      "stateMutability": "view",
      "type": "function"
    },
    {
      "inputs": [
        {
          "internalType": "bytes32",
          "name": "_slot",
          "type": "bytes32"
        }
      ],
      "name": "getCallbackOutput",
      "outputs": [
        {
          "internalType": "bytes",
          "name": "data",
          "type": "bytes"
        }
      ],
      "stateMutability": "view",
      "type": "function"
    },
    {
      "inputs": [],
      "name": "getConditions",
      "outputs": [
        {
          "components": [
            {
              "internalType": "contract IERC20",
              "name": "collateralToken",
              "type": "address"
            },
            {
              "internalType": "bytes32",
              "name": "questionId",
              "type": "bytes32"
            },
            {
              "internalType": "bytes32",
              "name": "parentCollectionId",
              "type": "bytes32"
            },
            {
              "internalType": "bytes32",
              "name": "conditionId",
              "type": "bytes32"
            },
            {
              "internalType": "uint256[]",
              "name": "payouts",
              "type": "uint256[]"
            },
            {
              "internalType": "enum SolverLib.Status",
              "name": "status",
              "type": "uint8"
            }
          ],
          "internalType": "struct SolverLib.Condition[]",
          "name": "",
          "type": "tuple[]"
        }
      ],
      "stateMutability": "view",
      "type": "function"
    },
    {
      "inputs": [],
      "name": "getConfig",
      "outputs": [
        {
          "components": [
            {
              "internalType": "contract Solver",
              "name": "implementation",
              "type": "address"
            },
            {
              "internalType": "address",
              "name": "keeper",
              "type": "address"
            },
            {
              "internalType": "address",
              "name": "arbitrator",
              "type": "address"
            },
            {
              "internalType": "uint256",
              "name": "timelockSeconds",
              "type": "uint256"
            },
            {
              "internalType": "bytes",
              "name": "data",
              "type": "bytes"
            },
            {
              "components": [
                {
                  "internalType": "uint256",
                  "name": "executions",
                  "type": "uint256"
                },
                {
                  "internalType": "enum SolverLib.IngestType",
                  "name": "ingestType",
                  "type": "uint8"
                },
                {
                  "internalType": "bytes32",
                  "name": "slot",
                  "type": "bytes32"
                },
                {
                  "internalType": "uint256",
                  "name": "solverIndex",
                  "type": "uint256"
                },
                {
                  "internalType": "bytes",
                  "name": "data",
                  "type": "bytes"
                }
              ],
              "internalType": "struct SolverLib.Ingest[]",
              "name": "ingests",
              "type": "tuple[]"
            },
            {
              "components": [
                {
                  "internalType": "contract IERC20",
                  "name": "collateralToken",
                  "type": "address"
                },
                {
                  "internalType": "uint256",
                  "name": "outcomeSlots",
                  "type": "uint256"
                },
                {
                  "internalType": "uint256",
                  "name": "parentCollectionIndexSet",
                  "type": "uint256"
                },
                {
                  "internalType": "bytes32",
                  "name": "amountSlot",
                  "type": "bytes32"
                },
                {
                  "internalType": "uint256[]",
                  "name": "partition",
                  "type": "uint256[]"
                },
                {
                  "components": [
                    {
                      "internalType": "bytes32",
                      "name": "recipientAddressSlot",
                      "type": "bytes32"
                    },
                    {
                      "internalType": "bytes32[]",
                      "name": "recipientAmountSlots",
                      "type": "bytes32[]"
                    }
                  ],
                  "internalType": "struct SolverLib.Allocation[]",
                  "name": "allocations",
                  "type": "tuple[]"
                },
                {
                  "components": [
                    {
                      "internalType": "bytes32",
                      "name": "digest",
                      "type": "bytes32"
                    },
                    {
                      "internalType": "uint8",
                      "name": "hashFunction",
                      "type": "uint8"
                    },
                    {
                      "internalType": "uint8",
                      "name": "size",
                      "type": "uint8"
                    }
                  ],
                  "internalType": "struct SolverLib.Multihash[]",
                  "name": "outcomeURIs",
                  "type": "tuple[]"
                }
              ],
              "internalType": "struct SolverLib.ConditionBase",
              "name": "conditionBase",
              "type": "tuple"
            }
          ],
          "internalType": "struct SolverLib.Config",
          "name": "",
          "type": "tuple"
        }
      ],
      "stateMutability": "view",
      "type": "function"
    },
    {
      "inputs": [
        {
          "internalType": "bytes32",
          "name": "_slot",
          "type": "bytes32"
        }
      ],
      "name": "getData",
      "outputs": [
        {
          "internalType": "bytes",
          "name": "data",
          "type": "bytes"
        }
      ],
      "stateMutability": "view",
      "type": "function"
    },
    {
      "inputs": [
        {
          "internalType": "bytes32",
          "name": "slot",
          "type": "bytes32"
        }
      ],
      "name": "getOutgoingCallbacks",
      "outputs": [
        {
          "internalType": "address[]",
          "name": "",
          "type": "address[]"
        }
      ],
      "stateMutability": "view",
      "type": "function"
    },
    {
      "inputs": [
        {
          "internalType": "bytes32",
          "name": "_slot",
          "type": "bytes32"
        }
      ],
      "name": "handleCallback",
      "outputs": [],
      "stateMutability": "nonpayable",
      "type": "function"
    },
    {
      "inputs": [],
      "name": "ingestsValid",
      "outputs": [
        {
          "internalType": "bool",
          "name": "",
          "type": "bool"
        }
      ],
      "stateMutability": "view",
      "type": "function"
    },
    {
      "inputs": [
        {
          "internalType": "address",
          "name": "_deployer",
          "type": "address"
        },
        {
          "internalType": "address",
          "name": "_ctfAddress",
          "type": "address"
        },
        {
          "internalType": "address",
          "name": "_chainParent",
          "type": "address"
        },
        {
          "internalType": "uint256",
          "name": "_chainIndex",
          "type": "uint256"
        },
        {
          "components": [
            {
              "internalType": "contract Solver",
              "name": "implementation",
              "type": "address"
            },
            {
              "internalType": "address",
              "name": "keeper",
              "type": "address"
            },
            {
              "internalType": "address",
              "name": "arbitrator",
              "type": "address"
            },
            {
              "internalType": "uint256",
              "name": "timelockSeconds",
              "type": "uint256"
            },
            {
              "internalType": "bytes",
              "name": "data",
              "type": "bytes"
            },
            {
              "components": [
                {
                  "internalType": "uint256",
                  "name": "executions",
                  "type": "uint256"
                },
                {
                  "internalType": "enum SolverLib.IngestType",
                  "name": "ingestType",
                  "type": "uint8"
                },
                {
                  "internalType": "bytes32",
                  "name": "slot",
                  "type": "bytes32"
                },
                {
                  "internalType": "uint256",
                  "name": "solverIndex",
                  "type": "uint256"
                },
                {
                  "internalType": "bytes",
                  "name": "data",
                  "type": "bytes"
                }
              ],
              "internalType": "struct SolverLib.Ingest[]",
              "name": "ingests",
              "type": "tuple[]"
            },
            {
              "components": [
                {
                  "internalType": "contract IERC20",
                  "name": "collateralToken",
                  "type": "address"
                },
                {
                  "internalType": "uint256",
                  "name": "outcomeSlots",
                  "type": "uint256"
                },
                {
                  "internalType": "uint256",
                  "name": "parentCollectionIndexSet",
                  "type": "uint256"
                },
                {
                  "internalType": "bytes32",
                  "name": "amountSlot",
                  "type": "bytes32"
                },
                {
                  "internalType": "uint256[]",
                  "name": "partition",
                  "type": "uint256[]"
                },
                {
                  "components": [
                    {
                      "internalType": "bytes32",
                      "name": "recipientAddressSlot",
                      "type": "bytes32"
                    },
                    {
                      "internalType": "bytes32[]",
                      "name": "recipientAmountSlots",
                      "type": "bytes32[]"
                    }
                  ],
                  "internalType": "struct SolverLib.Allocation[]",
                  "name": "allocations",
                  "type": "tuple[]"
                },
                {
                  "components": [
                    {
                      "internalType": "bytes32",
                      "name": "digest",
                      "type": "bytes32"
                    },
                    {
                      "internalType": "uint8",
                      "name": "hashFunction",
                      "type": "uint8"
                    },
                    {
                      "internalType": "uint8",
                      "name": "size",
                      "type": "uint8"
                    }
                  ],
                  "internalType": "struct SolverLib.Multihash[]",
                  "name": "outcomeURIs",
                  "type": "tuple[]"
                }
              ],
              "internalType": "struct SolverLib.ConditionBase",
              "name": "conditionBase",
              "type": "tuple"
            }
          ],
          "internalType": "struct SolverLib.Config",
          "name": "_solverConfig",
          "type": "tuple"
        }
      ],
      "name": "init",
      "outputs": [],
      "stateMutability": "nonpayable",
      "type": "function"
    },
    {
      "inputs": [
        {
          "internalType": "address",
          "name": "operator",
          "type": "address"
        },
        {
          "internalType": "address",
          "name": "from",
          "type": "address"
        },
        {
          "internalType": "uint256[]",
          "name": "ids",
          "type": "uint256[]"
        },
        {
          "internalType": "uint256[]",
          "name": "values",
          "type": "uint256[]"
        },
        {
          "internalType": "bytes",
          "name": "data",
          "type": "bytes"
        }
      ],
      "name": "onERC1155BatchReceived",
      "outputs": [
        {
          "internalType": "bytes4",
          "name": "",
          "type": "bytes4"
        }
      ],
      "stateMutability": "nonpayable",
      "type": "function"
    },
    {
      "inputs": [
        {
          "internalType": "address",
          "name": "operator",
          "type": "address"
        },
        {
          "internalType": "address",
          "name": "from",
          "type": "address"
        },
        {
          "internalType": "uint256",
          "name": "id",
          "type": "uint256"
        },
        {
          "internalType": "uint256",
          "name": "value",
          "type": "uint256"
        },
        {
          "internalType": "bytes",
          "name": "data",
          "type": "bytes"
        }
      ],
      "name": "onERC1155Received",
      "outputs": [
        {
          "internalType": "bytes4",
          "name": "",
          "type": "bytes4"
        }
      ],
      "stateMutability": "nonpayable",
      "type": "function"
    },
    {
      "inputs": [
        {
          "internalType": "uint256",
          "name": "_index",
          "type": "uint256"
        }
      ],
      "name": "prepareSolve",
      "outputs": [],
      "stateMutability": "nonpayable",
      "type": "function"
    },
    {
      "inputs": [
        {
          "internalType": "uint256",
          "name": "_index",
          "type": "uint256"
        },
        {
          "internalType": "uint256[]",
          "name": "_payouts",
          "type": "uint256[]"
        }
      ],
      "name": "proposePayouts",
      "outputs": [],
      "stateMutability": "nonpayable",
      "type": "function"
    },
    {
      "inputs": [
        {
          "internalType": "contract IERC20",
          "name": "_collateralToken",
          "type": "address"
        },
        {
          "internalType": "bytes32",
          "name": "_parentCollectionId",
          "type": "bytes32"
        },
        {
          "internalType": "bytes32",
          "name": "_conditionId",
          "type": "bytes32"
        },
        {
          "internalType": "uint256[]",
          "name": "_indexSets",
          "type": "uint256[]"
        }
      ],
      "name": "redeemPosition",
      "outputs": [],
      "stateMutability": "nonpayable",
      "type": "function"
    },
    {
      "inputs": [
        {
          "internalType": "bytes32",
          "name": "_slot",
          "type": "bytes32"
        },
        {
          "internalType": "uint256",
          "name": "_chainIndex",
          "type": "uint256"
        }
      ],
      "name": "registerOutgoingCallback",
      "outputs": [],
      "stateMutability": "nonpayable",
      "type": "function"
    },
    {
      "inputs": [
        {
          "components": [
            {
              "internalType": "bytes32",
              "name": "digest",
              "type": "bytes32"
            },
            {
              "internalType": "uint8",
              "name": "hashFunction",
              "type": "uint8"
            },
            {
              "internalType": "uint8",
              "name": "size",
              "type": "uint8"
            }
          ],
          "internalType": "struct SolverLib.Multihash",
          "name": "_context",
          "type": "tuple"
        }
      ],
      "name": "setContext",
      "outputs": [],
      "stateMutability": "nonpayable",
      "type": "function"
    },
    {
      "inputs": [
        {
          "internalType": "bytes32",
          "name": "_trackingId",
          "type": "bytes32"
        }
      ],
      "name": "setTrackingId",
      "outputs": [],
      "stateMutability": "nonpayable",
      "type": "function"
    },
    {
      "inputs": [
        {
          "internalType": "bytes4",
          "name": "interfaceId",
          "type": "bytes4"
        }
      ],
      "name": "supportsInterface",
      "outputs": [
        {
          "internalType": "bool",
          "name": "",
          "type": "bool"
        }
      ],
      "stateMutability": "view",
      "type": "function"
    },
    {
      "inputs": [
        {
          "internalType": "uint256",
          "name": "",
          "type": "uint256"
        }
      ],
      "name": "timelocks",
      "outputs": [
        {
          "internalType": "uint256",
          "name": "",
          "type": "uint256"
        }
      ],
      "stateMutability": "view",
      "type": "function"
    },
    {
      "inputs": [],
      "name": "trackingId",
      "outputs": [
        {
          "internalType": "bytes32",
          "name": "",
          "type": "bytes32"
        }
      ],
      "stateMutability": "view",
      "type": "function"
    },
    {
      "inputs": [],
      "name": "uiURI",
      "outputs": [
        {
          "internalType": "bytes32",
          "name": "digest",
          "type": "bytes32"
        },
        {
          "internalType": "uint8",
          "name": "hashFunction",
          "type": "uint8"
        },
        {
          "internalType": "uint8",
          "name": "size",
          "type": "uint8"
        }
      ],
      "stateMutability": "view",
      "type": "function"
    }
  ],
  "bytecode": "0x608060405234801561001057600080fd5b50615f7680620000216000396000f3fe608060405234801561001057600080fd5b50600436106102775760003560e01c806355dd978b11610160578063a9f698b6116100d8578063c98c05b71161008c578063df33cc5111610071578063df33cc5114610551578063ea8221a914610564578063f23a6e611461056c57610277565b8063c98c05b714610536578063de3a23c51461053e57610277565b8063bc197c81116100bd578063bc197c81146104e1578063c08d6f0114610501578063c3f909d41461052157610277565b8063a9f698b6146104bb578063b992db0f146104ce57610277565b806380c2dde21161012f57806387dfee571161011457806387dfee571461048d5780638bc3a08f146104a057806399992506146104b357610277565b806380c2dde2146104725780638602ce1b1461047a57610277565b806355dd978b1461042857806379502c55146104305780637c1236271461044a57806380b204b71461045f57610277565b806336fcf48c116101f357806348cbb2fc116101c25780634dab5e69116101a75780634dab5e69146103ef5780634e46f2231461040257806354f6127f1461041557610277565b806348cbb2fc146103d45780634a77234e146103dc57610277565b806336fcf48c146103775780633837b05e1461038e5780633f4fb5aa146103a157806344c3b607146103c157610277565b80630d06101a1161024a5780630d8d39751161022f5780630d8d39751461032d578063187825591461034057806326c500071461035357610277565b80630d06101a146102fa5780630d7e149f1461030d57610277565b806301ffc9a71461027c57806307c068b6146102a55780630944e26e146102ba578063098b37f7146102da575b600080fd5b61028f61028a366004613b9c565b61057f565b60405161029c9190614a07565b60405180910390f35b6102b86102b3366004613acc565b6105c5565b005b6102cd6102c8366004613d5e565b61070e565b60405161029c91906145aa565b6102ed6102e8366004613acc565b610994565b60405161029c91906147ab565b6102b8610308366004613acc565b610a00565b61032061031b366004613acc565b610a3c565b60405161029c9190614a12565b6102b861033b366004613acc565b610a5d565b6102b861034e366004613c37565b610bc7565b610366610361366004613acc565b610c7b565b60405161029c959493929190614aa4565b61037f610cc9565b60405161029c93929190614a29565b6102cd61039c366004613acc565b610cde565b6103b46103af366004613acc565b610e0c565b60405161029c9190614a57565b61028f6103cf366004613acc565b610f08565b610320610fb1565b6102b86103ea366004613acc565b610fb7565b6102b86103fd366004613acc565b6112c2565b6102b8610410366004613acc565b61139c565b6103b4610423366004613acc565b611476565b6102cd611496565b6104386114a5565b60405161029c96959493929190614ad7565b610452611730565b60405161029c9190614858565b6102b861046d366004613daa565b61185f565b6102cd6119c6565b6102b8610488366004613afc565b6119d5565b6102b861049b366004613df4565b611abc565b6102b86104ae3660046138c1565b611c75565b61028f611e2c565b6102b86104c9366004613d99565b611ed9565b6102b86104dc366004613acc565b611efd565b6104f46104ef36600461393e565b612281565b60405161029c9190614a42565b61051461050f366004613acc565b6122ae565b60405161029c91906147f8565b610529612393565b60405161029c9190615194565b6103206127ac565b6102b861054c366004613acc565b612846565b6102b861055f366004613b7b565b612bc9565b610320612cd4565b6104f461057a3660046139f9565b612cda565b60006001600160e01b031982167f4e2312e00000000000000000000000000000000000000000000000000000000014806105bd57506105bd82612d06565b90505b919050565b6007546001600160a01b031633146105f85760405162461bcd60e51b81526004016105ef90614eea565b60405180910390fd5b60036012828154811061061b57634e487b7160e01b600052603260045260246000fd5b600091825260209091206006918202016005015460ff169081111561065057634e487b7160e01b600052602160045260246000fd5b1461066d5760405162461bcd60e51b81526004016105ef90614e1f565b73__$94d7d2f22770e4b0d1a2b99fb2812308e2$__63ec7ac2f0601283815481106106a857634e487b7160e01b600052603260045260246000fd5b90600052602060002090600602016040518263ffffffff1660e01b81526004016106d29190614a12565b60006040518083038186803b1580156106ea57600080fd5b505af41580156106fe573d6000803e3d6000fd5b5050505061070b81612d38565b50565b6006546000906001600160a01b0316331461073b5760405162461bcd60e51b81526004016105ef90615067565b6014546001600160a01b0316156107645760405162461bcd60e51b81526004016105ef90614bd5565b6000546015546040517fd6b3ad8d00000000000000000000000000000000000000000000000000000000815273__$94d7d2f22770e4b0d1a2b99fb2812308e2$__9263d6b3ad8d926107cc92620100009092046001600160a01b0316918791906004016146ba565b604080518083038186803b1580156107e357600080fd5b505af41580156107f7573d6000803e3d6000fd5b505050506040513d601f19601f8201168201806040525081019061081b9190613a73565b601480546001600160a01b0319166001600160a01b039390931692909217909155601754909150156108c1576017546040517f0d06101a0000000000000000000000000000000000000000000000000000000081526001600160a01b03831691630d06101a9161088e9190600401614a12565b600060405180830381600087803b1580156108a857600080fd5b505af11580156108bc573d6000803e3d6000fd5b505050505b601954610100900460ff161561094a576040517fa9f698b60000000000000000000000000000000000000000000000000000000081526001600160a01b0382169063a9f698b6906109179060189060040161522b565b600060405180830381600087803b15801561093157600080fd5b505af1158015610945573d6000803e3d6000fd5b505050505b6014546040517fbd2e7fbdc9b1c19997e58c63e6ea1b5a02acd8dd9fd5d76f4bb18634f7155e8091610987916001600160a01b03909116906145aa565b60405180910390a1919050565b6000818152601c60209081526040918290208054835181840281018401909452808452606093928301828280156109f457602002820191906000526020600020905b81546001600160a01b031681526001909101906020018083116109d6575b50505050509050919050565b60175415610a205760405162461bcd60e51b81526004016105ef906150d5565b6002546001600160a01b03163314610a3757600080fd5b601755565b60168181548110610a4c57600080fd5b600091825260209091200154905081565b60168181548110610a7e57634e487b7160e01b600052603260045260246000fd5b90600052602060002001544211610aa75760405162461bcd60e51b81526004016105ef90614d7a565b600260128281548110610aca57634e487b7160e01b600052603260045260246000fd5b600091825260209091206006918202016005015460ff1690811115610aff57634e487b7160e01b600052602160045260246000fd5b14610b1c5760405162461bcd60e51b81526004016105ef90614f58565b6001546012805473__$94d7d2f22770e4b0d1a2b99fb2812308e2$__926385c92867926001600160a01b039091169185908110610b6957634e487b7160e01b600052603260045260246000fd5b90600052602060002090600602016040518363ffffffff1660e01b8152600401610b94929190614644565b60006040518083038186803b158015610bac57600080fd5b505af4158015610bc0573d6000803e3d6000fd5b5050505050565b6006546001600160a01b03163314610bf15760405162461bcd60e51b81526004016105ef90614d43565b6001546040517f01b7037c0000000000000000000000000000000000000000000000000000000081526001600160a01b03909116906301b7037c90610c429088908890889088908890600401614a6a565b600060405180830381600087803b158015610c5c57600080fd5b505af1158015610c70573d6000803e3d6000fd5b505050505050505050565b60128181548110610c8b57600080fd5b6000918252602090912060069091020180546001820154600283015460038401546005909401546001600160a01b0390931694509092909160ff1685565b60035460045460ff8082169161010090041683565b6000601554821415610cf15750306105c0565b601554821015610d8257601354604051631c1bd82f60e11b81526001600160a01b0390911690633837b05e90610d2b908590600401614a12565b60206040518083038186803b158015610d4357600080fd5b505afa158015610d57573d6000803e3d6000fd5b505050506040513d601f19601f82011682018060405250810190610d7b91906138a5565b90506105c0565b6015548211156105c057601454604051631c1bd82f60e11b81526001600160a01b0390911690633837b05e90610dbc908590600401614a12565b60206040518083038186803b158015610dd457600080fd5b505afa158015610de8573d6000803e3d6000fd5b505050506040513d601f19601f820116820180604052508101906105bd91906138a5565b6012546000828152601e602052604090205460609114610e3e5760405162461bcd60e51b81526004016105ef90614eb3565b6000828152601e602052604090208054610e5a90600190615612565b81548110610e7857634e487b7160e01b600052603260045260246000fd5b906000526020600020018054610e8d90615967565b80601f0160208091040260200160405190810160405280929190818152602001828054610eb990615967565b80156109f45780601f10610edb576101008083540402835291602001916109f4565b820191906000526020600020905b815481529060010190602001808311610ee95750939695505050505050565b6040517f0e23b7ca00000000000000000000000000000000000000000000000000000000815260009073__$94d7d2f22770e4b0d1a2b99fb2812308e2$__90630e23b7ca90610f61908590601e90600b9060040161528f565b60206040518083038186803b158015610f7957600080fd5b505af4158015610f8d573d6000803e3d6000fd5b505050506040513d601f19601f820116820180604052508101906105bd9190613aac565b60175481565b60125415610ffe576006546001600160a01b0316331480610fe257506013546001600160a01b031633145b610ffe5760405162461bcd60e51b81526004016105ef9061509e565b601254811461101f5760405162461bcd60e51b81526004016105ef90614cd7565b601b541561103f5760405162461bcd60e51b81526004016105ef90614fc6565b601a541561105f5760405162461bcd60e51b81526004016105ef90614ffb565b600154601354601280546040517f699e0add000000000000000000000000000000000000000000000000000000008152919373__$94d7d2f22770e4b0d1a2b99fb2812308e2$__9363699e0add936110ca936001600160a01b0393841693600b93169160040161460f565b60006040518083038186803b1580156110e257600080fd5b505af41580156110f6573d6000803e3d6000fd5b505050506040513d6000823e601f3d908101601f1916820160405261111e9190810190613c9f565b8154600180820184556000938452602093849020835160069093020180546001600160a01b0319166001600160a01b0390931692909217825582840151908201556040820151600282015560608201516003820155608082015180519293919261118e92600485019201906135d8565b5060a082015160058201805460ff191660018360068111156111c057634e487b7160e01b600052602160045260246000fd5b0217905550506016805460018101825560009182527fd833147d7dc355ba459fc788f669e58cfaf9dc25ddcd0702e87d69c7b5124289015550611201612d80565b7f152ec8ae15d347b2d2a8f0858caa29bcaaa0906749a1f43e08bfe799834602403082604051611232929190614644565b60405180910390a16014546001600160a01b03161561070b576014546040517f4a77234e0000000000000000000000000000000000000000000000000000000081526001600160a01b0390911690634a77234e90611294908490600401614a12565b600060405180830381600087803b1580156112ae57600080fd5b505af1158015610bc0573d6000803e3d6000fd5b6007546001600160a01b031633146112ec5760405162461bcd60e51b81526004016105ef90614eea565b60026012828154811061130f57634e487b7160e01b600052603260045260246000fd5b600091825260209091206006918202016005015460ff169081111561134457634e487b7160e01b600052602160045260246000fd5b146113615760405162461bcd60e51b81526004016105ef90614f8f565b73__$94d7d2f22770e4b0d1a2b99fb2812308e2$__6324b28602601283815481106106a857634e487b7160e01b600052603260045260246000fd5b6007546001600160a01b031633146113c65760405162461bcd60e51b81526004016105ef90614eea565b6004601282815481106113e957634e487b7160e01b600052603260045260246000fd5b600091825260209091206006918202016005015460ff169081111561141e57634e487b7160e01b600052602160045260246000fd5b1461143b5760405162461bcd60e51b81526004016105ef90615030565b73__$94d7d2f22770e4b0d1a2b99fb2812308e2$__6359111fb5601283815481106106a857634e487b7160e01b600052603260045260246000fd5b6000818152601e60205260409020805460609190610e5a90600190615612565b6014546001600160a01b031681565b60058054600654600754600854600980546001600160a01b0395861696948616959093169391926114d590615967565b80601f016020809104026020016040519081016040528092919081815260200182805461150190615967565b801561154e5780601f106115235761010080835404028352916020019161154e565b820191906000526020600020905b81548152906001019060200180831161153157829003601f168201915b50506040805160e0810182526006870180546001600160a01b03168252600788015460208084019190915260088901548385015260098901546060840152600a890180548551818402810184019096528086529899989397509195506080870194509091908301828280156115e257602002820191906000526020600020905b8154815260200190600101908083116115ce575b5050505050815260200160058201805480602002602001604051908101604052809291908181526020016000905b828210156116a45783829060005260206000209060020201604051806040016040529081600082015481526020016001820180548060200260200160405190810160405280929190818152602001828054801561168c57602002820191906000526020600020905b815481526020019060010190808311611678575b50505050508152505081526020019060010190611610565b50505050815260200160068201805480602002602001604051908101604052809291908181526020016000905b8282101561172357600084815260209081902060408051606081018252600286029092018054835260019081015460ff80821685870152610100909104169183019190915290835290920191016116d1565b5050505081525050905086565b60606012805480602002602001604051908101604052809291908181526020016000905b828210156118565760008481526020908190206040805160c0810182526006860290920180546001600160a01b0316835260018101548385015260028101548383015260038101546060840152600481018054835181870281018701909452808452939491936080860193928301828280156117ef57602002820191906000526020600020905b8154815260200190600101908083116117db575b5050509183525050600582015460209091019060ff16600681111561182457634e487b7160e01b600052602160045260246000fd5b600681111561184357634e487b7160e01b600052602160045260246000fd5b8152505081526020019060010190611754565b50505050905090565b6006546001600160a01b031633146118895760405162461bcd60e51b81526004016105ef90614d43565b600c5481146118aa5760405162461bcd60e51b81526004016105ef90614c0c565b6001601284815481106118cd57634e487b7160e01b600052603260045260246000fd5b600091825260209091206006918202016005015460ff169081111561190257634e487b7160e01b600052602160045260246000fd5b1461191f5760405162461bcd60e51b81526004016105ef90614c69565b73__$94d7d2f22770e4b0d1a2b99fb2812308e2$__636a0a24f16012858154811061195a57634e487b7160e01b600052603260045260246000fd5b906000526020600020906006020184846040518463ffffffff1660e01b81526004016119889392919061517a565b60006040518083038186803b1580156119a057600080fd5b505af41580156119b4573d6000803e3d6000fd5b505050506119c183612d38565b505050565b6013546001600160a01b031681565b6006546001600160a01b031633146119ff5760405162461bcd60e51b81526004016105ef90614b67565b6000828152601f6020526040902054600a8054600392908110611a3257634e487b7160e01b600052603260045260246000fd5b600091825260209091206001600590920201015460ff166003811115611a6857634e487b7160e01b600052602160045260246000fd5b14611a855760405162461bcd60e51b81526004016105ef90614b30565b611a8f8282613059565b6040517f71bd81ebe1d98a2944767394e76a9aff18724b2cf04e1db71254f804544b35c790600090a15050565b6007546001600160a01b03163314611ae65760405162461bcd60e51b81526004016105ef90614eea565b600460128381548110611b0957634e487b7160e01b600052603260045260246000fd5b600091825260209091206006918202016005015460ff1690811115611b3e57634e487b7160e01b600052602160045260246000fd5b14611b5b5760405162461bcd60e51b81526004016105ef90615030565b60168281548110611b7c57634e487b7160e01b600052603260045260246000fd5b90600052602060002001544211611ba55760405162461bcd60e51b81526004016105ef90614d7a565b600c54815114611bc75760405162461bcd60e51b81526004016105ef90614c0c565b6001546012805473__$94d7d2f22770e4b0d1a2b99fb2812308e2$__92631b948e49926001600160a01b039091169186908110611c1457634e487b7160e01b600052603260045260246000fd5b9060005260206000209060060201846040518463ffffffff1660e01b8152600401611c419392919061465d565b60006040518083038186803b158015611c5957600080fd5b505af4158015611c6d573d6000803e3d6000fd5b505050505050565b600054610100900460ff1680611c8e575060005460ff16155b611caa5760405162461bcd60e51b81526004016105ef90614e56565b600054610100900460ff16158015611cd5576000805460ff1961ff0019909116610100171660011790555b6000611ce76040840160208501613882565b6001600160a01b03161415611d0e5760405162461bcd60e51b81526004016105ef90614f21565b600280546001600160a01b03199081166001600160a01b0389811691909117909255600080547fffffffffffffffffffff0000000000000000000000000000000000000000ffff16336201000002179055600180548216888416179055601380549091169186169190911790556015839055816005611d8d8282615bbf565b90505060005b611da060a08401846152a5565b9050811015611e125780601f6000611dbb60a08701876152a5565b85818110611dd957634e487b7160e01b600052603260045260246000fd5b9050602002810190611deb91906153ac565b60409081013582526020820192909252016000205580611e0a816159af565b915050611d93565b508015611c6d576000805461ff0019169055505050505050565b6012546040517f5cc1f6b500000000000000000000000000000000000000000000000000000000815260009173__$94d7d2f22770e4b0d1a2b99fb2812308e2$__91635cc1f6b591611e8491600a91906004016148fc565b60206040518083038186803b158015611e9c57600080fd5b505af4158015611eb0573d6000803e3d6000fd5b505050506040513d601f19601f82011682018060405250810190611ed49190613aac565b905090565b6002546001600160a01b03163314611ef057600080fd5b8060186119c18282615d9e565b600060128281548110611f2057634e487b7160e01b600052603260045260246000fd5b600091825260209091206006918202016005015460ff1690811115611f5557634e487b7160e01b600052602160045260246000fd5b14611f725760405162461bcd60e51b81526004016105ef90615143565b611f7a611e2c565b1515600114611f9b5760405162461bcd60e51b81526004016105ef90614db1565b611fa481610f08565b611fc05760405162461bcd60e51b81526004016105ef90614d0e565b600160128281548110611fe357634e487b7160e01b600052603260045260246000fd5b906000526020600020906006020160050160006101000a81548160ff0219169083600681111561202357634e487b7160e01b600052602160045260246000fd5b02179055506001546013546012805473__$94d7d2f22770e4b0d1a2b99fb2812308e2$__93630c5190e2936001600160a01b0391821693911691600b91908790811061207f57634e487b7160e01b600052603260045260246000fd5b60009182526020808320600e548452601e9091526040909220805460069092029092019190889081106120c257634e487b7160e01b600052603260045260246000fd5b9060005260206000200180546120d790615967565b80601f016020809104026020016040519081016040528092919081815260200182805461210390615967565b80156121505780601f1061212557610100808354040283529160200191612150565b820191906000526020600020905b81548152906001019060200180831161213357829003601f168201915b50505050508060200190518101906121689190613ae4565b6040518663ffffffff1660e01b81526004016121889594939291906145be565b60006040518083038186803b1580156121a057600080fd5b505af41580156121b4573d6000803e3d6000fd5b50506001546012805473__$94d7d2f22770e4b0d1a2b99fb2812308e2$__9450630fa8790b935085926001600160a01b031691908390811061220657634e487b7160e01b600052603260045260246000fd5b90600052602060002090600602016005600601601e6017546040518763ffffffff1660e01b815260040161223f9695949392919061523f565b60006040518083038186803b15801561225757600080fd5b505af415801561226b573d6000803e3d6000fd5b505050506122788161070b565b61070b816130d0565b7fbc197c810000000000000000000000000000000000000000000000000000000098975050505050505050565b6000818152601e60209081526040808320805482518185028101850190935280835260609492939192909184015b828210156123885783829060005260206000200180546122fb90615967565b80601f016020809104026020016040519081016040528092919081815260200182805461232790615967565b80156123745780601f1061234957610100808354040283529160200191612374565b820191906000526020600020905b81548152906001019060200180831161235757829003601f168201915b5050505050815260200190600101906122dc565b505050509050919050565b61239b613623565b6040805160e081018252600580546001600160a01b0390811683526006548116602084015260075416928201929092526008546060820152600980549192916080840191906123e990615967565b80601f016020809104026020016040519081016040528092919081815260200182805461241590615967565b80156124625780601f1061243757610100808354040283529160200191612462565b820191906000526020600020905b81548152906001019060200180831161244557829003601f168201915b5050505050815260200160058201805480602002602001604051908101604052809291908181526020016000905b828210156125c757838290600052602060002090600502016040518060a0016040529081600082015481526020016001820160009054906101000a900460ff1660038111156124ef57634e487b7160e01b600052602160045260246000fd5b600381111561250e57634e487b7160e01b600052602160045260246000fd5b8152602001600282015481526020016003820154815260200160048201805461253690615967565b80601f016020809104026020016040519081016040528092919081815260200182805461256290615967565b80156125af5780601f10612584576101008083540402835291602001916125af565b820191906000526020600020905b81548152906001019060200180831161259257829003601f168201915b50505050508152505081526020019060010190612490565b505050908252506040805160e0810182526006840180546001600160a01b03168252600785015460208381019190915260088601548385015260098601546060840152600a86018054855181840281018401909652808652958201959394929360808601939283018282801561265c57602002820191906000526020600020905b815481526020019060010190808311612648575b5050505050815260200160058201805480602002602001604051908101604052809291908181526020016000905b8282101561271e5783829060005260206000209060020201604051806040016040529081600082015481526020016001820180548060200260200160405190810160405280929190818152602001828054801561270657602002820191906000526020600020905b8154815260200190600101908083116126f2575b5050505050815250508152602001906001019061268a565b50505050815260200160068201805480602002602001604051908101604052809291908181526020016000905b8282101561279d57600084815260209081902060408051606081018252600286029092018054835260019081015460ff808216858701526101009091041691830191909152908352909201910161274b565b50505091525050905250905090565b600b546040517f70a082310000000000000000000000000000000000000000000000000000000081526000916001600160a01b0316906370a08231906127f69030906004016145aa565b60206040518083038186803b15801561280e57600080fd5b505afa158015612822573d6000803e3d6000fd5b505050506040513d601f19601f82011682018060405250810190611ed49190613ae4565b6000338260405160200161285b929190614588565b60408051601f1981840301815291815281516020928301206000818152601d909352912054600a80549293506128c19290919081106128aa57634e487b7160e01b600052603260045260246000fd5b906000526020600020906005020160030154610cde565b6001600160a01b0316336001600160a01b0316146128f15760405162461bcd60e51b81526004016105ef90614ca0565b6000818152601d6020526040812054600a8054909190811061292357634e487b7160e01b600052603260045260246000fd5b600091825260209091206001600590920201015460ff16600381111561295957634e487b7160e01b600052602160045260246000fd5b146129765760405162461bcd60e51b81526004016105ef90614b9e565b6000818152601d6020526040902054600a805490919081106129a857634e487b7160e01b600052603260045260246000fd5b6000918252602082206005909102018054916129c3836159af565b90915550506000818152601d6020526040902054600a8054612b78929081106129fc57634e487b7160e01b600052603260045260246000fd5b906000526020600020906005020160020154336001600160a01b0316633f4fb5aa60058001601a60030160008781526020019081526020016000205481548110612a5657634e487b7160e01b600052603260045260246000fd5b90600052602060002090600502016004018054612a7290615967565b80601f0160208091040260200160405190810160405280929190818152602001828054612a9e90615967565b8015612aeb5780601f10612ac057610100808354040283529160200191612aeb565b820191906000526020600020905b815481529060010190602001808311612ace57829003601f168201915b5050505050806020019051810190612b039190613ae4565b6040518263ffffffff1660e01b8152600401612b1f9190614a12565b60006040518083038186803b158015612b3757600080fd5b505afa158015612b4b573d6000803e3d6000fd5b505050506040513d6000823e601f3d908101601f19168201604052612b739190810190613bc4565b613059565b6000818152601d60205260408120819055601a805491612b9783615950565b90915550506040517f71bd81ebe1d98a2944767394e76a9aff18724b2cf04e1db71254f804544b35c790600090a15050565b612bd281610cde565b6001600160a01b0316336001600160a01b031614612c025760405162461bcd60e51b81526004016105ef90614ca0565b6000828152601e602052604090205415801590612c2e57506012546000838152601e6020526040902054145b15612c8d5760405163de3a23c560e01b8152339063de3a23c590612c56908590600401614a12565b600060405180830381600087803b158015612c7057600080fd5b505af1158015612c84573d6000803e3d6000fd5b50505050612cd0565b6000828152601c60209081526040822080546001810182559083529082200180546001600160a01b03191633179055601b805491612cca836159af565b91905055505b5050565b60155481565b7ff23a6e61000000000000000000000000000000000000000000000000000000005b9695505050505050565b6001600160e01b031981167f01ffc9a70000000000000000000000000000000000000000000000000000000014919050565b600854612d469060016155f3565b612d5090426155db565b60168281548110612d7157634e487b7160e01b600052603260045260246000fd5b60009182526020909120015550565b60005b600a5481101561302d576000600a805483908110612db157634e487b7160e01b600052603260045260246000fd5b600091825260209091206001600590920201015460ff166003811115612de757634e487b7160e01b600052602160045260246000fd5b14612e2a57612e25600580018281548110612e1257634e487b7160e01b600052603260045260246000fd5b9060005260206000209060050201613259565b61301b565b6000306001600160a01b0316633837b05e600580018481548110612e5e57634e487b7160e01b600052603260045260246000fd5b9060005260206000209060050201600301546040518263ffffffff1660e01b8152600401612e8c9190614a12565b60206040518083038186803b158015612ea457600080fd5b505afa158015612eb8573d6000803e3d6000fd5b505050506040513d601f19601f82011682018060405250810190612edc91906138a5565b9050612ee8818361334d565b806001600160a01b031663df33cc51600580018481548110612f1a57634e487b7160e01b600052603260045260246000fd5b90600052602060002090600502016004018054612f3690615967565b80601f0160208091040260200160405190810160405280929190818152602001828054612f6290615967565b8015612faf5780601f10612f8457610100808354040283529160200191612faf565b820191906000526020600020905b815481529060010190602001808311612f9257829003601f168201915b5050505050806020019051810190612fc79190613ae4565b6015546040518363ffffffff1660e01b8152600401612fe7929190614a1b565b600060405180830381600087803b15801561300157600080fd5b505af1158015613015573d6000803e3d6000fd5b50505050505b80613025816159af565b915050612d83565b506040517f71bd81ebe1d98a2944767394e76a9aff18724b2cf04e1db71254f804544b35c790600090a1565b60125461306890600190615612565b6000838152601e6020526040902054146130945760405162461bcd60e51b81526004016105ef9061510c565b6000828152601e60209081526040822080546001810182559083529181902083516130c6939190910191840190613680565b50612cd082613470565b6014546001600160a01b03161580159061316b5750601460009054906101000a90046001600160a01b03166001600160a01b031663999925066040518163ffffffff1660e01b815260040160206040518083038186803b15801561313357600080fd5b505afa158015613147573d6000803e3d6000fd5b505050506040513d601f19601f8201168201806040525081019061316b9190613aac565b801561320b57506014546040517f44c3b6070000000000000000000000000000000000000000000000000000000081526001600160a01b03909116906344c3b607906131bb908490600401614a12565b60206040518083038186803b1580156131d357600080fd5b505afa1580156131e7573d6000803e3d6000fd5b505050506040513d601f19601f8201168201806040525081019061320b9190613aac565b1561070b576014546040517fb992db0f0000000000000000000000000000000000000000000000000000000081526001600160a01b039091169063b992db0f90611294908490600401614a12565b600181015460039060ff168181111561328257634e487b7160e01b600052602160045260246000fd5b11156132a05760405162461bcd60e51b81526004016105ef90614de8565b80548160006132ae836159af565b9091555060039050600182015460ff1660038111156132dd57634e487b7160e01b600052602160045260246000fd5b1461070b5761070b816002015473__$94d7d2f22770e4b0d1a2b99fb2812308e2$__63b3d73707846040518263ffffffff1660e01b81526004016133219190614a12565b60006040518083038186803b15801561333957600080fd5b505af4158015612b4b573d6000803e3d6000fd5b80601a60030160008460058001858154811061337957634e487b7160e01b600052603260045260246000fd5b9060005260206000209060050201600401805461339590615967565b80601f01602080910402602001604051908101604052809291908181526020018280546133c190615967565b801561340e5780601f106133e35761010080835404028352916020019161340e565b820191906000526020600020905b8154815290600101906020018083116133f157829003601f168201915b50505050508060200190518101906134269190613ae4565b604051602001613437929190614588565b60408051601f19818403018152918152815160209283012083529082019290925201600090812091909155601a805491612cca836159af565b60005b6000828152601c6020526040902054811015612cd0576000828152601c602052604081208054839081106134b757634e487b7160e01b600052603260045260246000fd5b6000918252602090912001546001600160a01b0316146135c6576000828152601c602052604090208054829081106134ff57634e487b7160e01b600052603260045260246000fd5b60009182526020909120015460405163de3a23c560e01b81526001600160a01b039091169063de3a23c590613538908590600401614a12565b600060405180830381600087803b15801561355257600080fd5b505af1158015613566573d6000803e3d6000fd5b5050506000838152601c6020526040902080549091508290811061359a57634e487b7160e01b600052603260045260246000fd5b6000918252602082200180546001600160a01b0319169055601b8054916135c083615950565b91905055505b806135d0816159af565b915050613473565b828054828255906000526020600020908101928215613613579160200282015b828111156136135782518255916020019190600101906135f8565b5061361f9291506136f3565b5090565b6040518060e0016040528060006001600160a01b0316815260200160006001600160a01b0316815260200160006001600160a01b0316815260200160008152602001606081526020016060815260200161367b613708565b905290565b82805461368c90615967565b90600052602060002090601f0160209004810192826136ae5760008555613613565b82601f106136c757805160ff1916838001178555613613565b8280016001018555821561361357918201828111156136135782518255916020019190600101906135f8565b5b8082111561361f57600081556001016136f4565b6040518060e0016040528060006001600160a01b031681526020016000815260200160008152602001600080191681526020016060815260200160608152602001606081525090565b80356105c081615f0f565b60008083601f84011261376d578182fd5b50813567ffffffffffffffff811115613784578182fd5b602083019150836020808302850101111561379e57600080fd5b9250929050565b600082601f8301126137b5578081fd5b815160206137ca6137c5836153eb565b6153c1565b82815281810190858301838502870184018810156137e6578586fd5b855b85811015613804578151845292840192908401906001016137e8565b5090979650505050505050565b60008083601f840112613822578182fd5b50813567ffffffffffffffff811115613839578182fd5b60208301915083602082850101111561379e57600080fd5b80516105c081615f0f565b8051600781106105c057600080fd5b600060e0828403121561387c578081fd5b50919050565b600060208284031215613893578081fd5b813561389e81615f0f565b9392505050565b6000602082840312156138b6578081fd5b815161389e81615f0f565b600080600080600060a086880312156138d8578081fd5b85356138e381615f0f565b945060208601356138f381615f0f565b9350604086013561390381615f0f565b925060608601359150608086013567ffffffffffffffff811115613925578182fd5b6139318882890161386b565b9150509295509295909350565b60008060008060008060008060a0898b031215613959578586fd5b883561396481615f0f565b9750602089013561397481615f0f565b9650604089013567ffffffffffffffff80821115613990578788fd5b61399c8c838d0161375c565b909850965060608b01359150808211156139b4578485fd5b6139c08c838d0161375c565b909650945060808b01359150808211156139d8578384fd5b506139e58b828c01613811565b999c989b5096995094979396929594505050565b60008060008060008060a08789031215613a11578384fd5b8635613a1c81615f0f565b95506020870135613a2c81615f0f565b94506040870135935060608701359250608087013567ffffffffffffffff811115613a55578283fd5b613a6189828a01613811565b979a9699509497509295939492505050565b60008060408385031215613a85578182fd5b8251613a9081615f0f565b6020840151909250613aa181615f0f565b809150509250929050565b600060208284031215613abd578081fd5b8151801515811461389e578182fd5b600060208284031215613add578081fd5b5035919050565b600060208284031215613af5578081fd5b5051919050565b60008060408385031215613b0e578182fd5b82359150602083013567ffffffffffffffff811115613b2b578182fd5b8301601f81018513613b3b578182fd5b8035613b496137c58261540f565b818152866020838501011115613b5d578384fd5b81602084016020830137908101602001929092525090939092509050565b60008060408385031215613b8d578182fd5b50508035926020909101359150565b600060208284031215613bad578081fd5b81356001600160e01b03198116811461389e578182fd5b600060208284031215613bd5578081fd5b815167ffffffffffffffff811115613beb578182fd5b8201601f81018413613bfb578182fd5b8051613c096137c58261540f565b818152856020838501011115613c1d578384fd5b613c2e826020830160208601615920565b95945050505050565b600080600080600060808688031215613c4e578283fd5b8535613c5981615f0f565b94506020860135935060408601359250606086013567ffffffffffffffff811115613c82578182fd5b613c8e8882890161375c565b969995985093965092949392505050565b600060208284031215613cb0578081fd5b815167ffffffffffffffff80821115613cc7578283fd5b9083019060c08286031215613cda578283fd5b60405160c081018181108382111715613cf557613cf5615a0c565b604052613d0183613851565b8152602083015160208201526040830151604082015260608301516060820152608083015182811115613d32578485fd5b613d3e878286016137a5565b608083015250613d5060a0840161385c565b60a082015295945050505050565b600060208284031215613d6f578081fd5b813567ffffffffffffffff811115613d85578182fd5b613d918482850161386b565b949350505050565b60006060828403121561387c578081fd5b600080600060408486031215613dbe578081fd5b83359250602084013567ffffffffffffffff811115613ddb578182fd5b613de78682870161375c565b9497909650939450505050565b60008060408385031215613e06578182fd5b8235915060208084013567ffffffffffffffff811115613e24578283fd5b8401601f81018613613e34578283fd5b8035613e426137c5826153eb565b81815283810190838501858402850186018a1015613e5e578687fd5b8694505b83851015613e80578035835260019490940193918501918501613e62565b5080955050505050509250929050565b6001600160a01b03169052565b60008284527f07ffffffffffffffffffffffffffffffffffffffffffffffffffffffffffffff831115613ece578081fd5b6020830280836020870137939093016020019283525090919050565b818352602080840193600091908185020181018584845b87811015613f8f5782840389528135609e19883603018112613f21578687fd5b87018035855260a086820135613f3681615f24565b613f42888801826141cc565b5060408281013590870152606080830135908701526080613f6581840184615578565b93508282890152613f798389018583614176565b9c89019c97505050928601925050600101613f01565b5091979650505050505050565b6000815180845260208085018081965082840281019150828601855b85811015613f8f578284038952815160a08151865286820151613fdd888801826141cc565b50604082810151908701526060808301519087015260809182015191860181905261400a818701836141a0565b9a87019a9550505090840190600101613fb8565b60008284526020808501945082825b8581101561407757813587528282013561404681615f31565b60ff908116888501526040908382013561405f81615f31565b1690880152606096870196919091019060010161402d565b509495945050505050565b6000815180845260208085019450808401835b83811015614077578151805188528381015160ff908116858a0152604091820151169088015260609096019590820190600101614095565b6000815480845260208401935082825260208220825b8281101561410b576140f58683614567565b60609590950194600291909101906001016140e3565b5093949350505050565b6000815180845260208085019450808401835b8381101561407757815187529582019590820190600101614128565b6000815480845260208085019450838352808320835b838110156140775781548752958201956001918201910161415a565b60008284528282602086013780602084860101526020601f19601f85011685010190509392505050565b600081518084526141b8816020860160208601615920565b601f01601f19169290920160200192915050565b600481106141dc576141dc6159f6565b9052565b600781106141dc576141dc6159f6565b600081356141fd81615f0f565b6001600160a01b0316835260208281013581850152604080840135818601526060808501359086015261423360808501856154e8565b60e0608088015261424860e088018284613e9d565b91505061425860a08601866154e8565b87830360a08901528083528483018582028401860183885b848110156142cf57868303601f19018452813536879003603e19018112614295578a8bfd5b8601803584526142a78a8201826154e8565b9150898b8601526142bb8a86018383613e9d565b958b01959450505090880190600101614270565b50506142de60c08a018a615530565b9750955089810360c08b01526142f581888861401e565b9a9950505050505050505050565b60006001600160a01b038251168352602080830151818501526040808401518186015260608085015181870152608085015160e0608088015261434960e0880182614115565b905060a086015187820360a08901528181518084528684019150868782028501018784019350885b828110156143d957858203601f190184528451805183528901518983018990528051898401819052908a01908b90898501905b808310156143c45783518252928c019260019290920191908c01906143a4565b50968b0196958b019593505050600101614371565b5060c08a015197508a810360c08c01526143f38189614082565b9b9a5050505050505050505050565b60006001600160a01b038254168352600180830154602081818701526002850154915060408281880152600386015492506060838189015260e0608089015261445160e0890160048901614144565b88810360a08a01526005880180548083529088528488209195508486019085810287018601895b828110156144e057888203601f19018452845482528782018790528985018054888401819052908c52888c20908c90888501905b808310156144c95783548252928d0192918d0191908b01906144ac565b5060029790970196958a0195935050508901614478565b508b810360c08d01526144f68160068d016140cd565b9c9b505050505050505050505050565b60006001600160a01b03825416835260018201546020840152600282015460408401526003820154606084015260c0608084015261454a60c0840160048401614144565b60ff60058401541661455f60a08601826141e0565b509392505050565b805482526001015460ff808216602084015260089190911c16604090910152565b60609290921b6bffffffffffffffffffffffff19168252601482015260340190565b6001600160a01b0391909116815260200190565b60006001600160a01b03808816835280871660208401525060a060408301526145ea60a0830186614402565b82810360608401526145fc8186614506565b9150508260808301529695505050505050565b60006001600160a01b038087168352608060208401526146326080840187614402565b94166040830152506060015292915050565b6001600160a01b03929092168252602082015260400190565b6000606082016001600160a01b038616835260208581850152606060408501528185518084526080860191508287019350845b818110156146ac57845183529383019391830191600101614690565b509098975050505050505050565b60006001600160a01b03851682526060602083015283356146da81615f0f565b6146e76060840182613e90565b506146f460208501613751565b6147016080840182613e90565b5061470e60408501613751565b61471b60a0840182613e90565b50606084013560c08301526147336080850185615578565b60e08085015261474861014085018284614176565b91505061475860a08601866154e8565b605f198086850301610100870152614771848385613eea565b935061478060c08901896155bd565b92508086850301610120870152505061479982826141f0565b92505050826040830152949350505050565b6020808252825182820181905260009190848201906040850190845b818110156147ec5783516001600160a01b0316835292840192918401916001016147c7565b50909695505050505050565b6000602080830181845280855180835260408601915060408482028701019250838701855b8281101561484b57603f198886030184526148398583516141a0565b9450928501929085019060010161481d565b5092979650505050505050565b60208082528251828201819052600091906040908185019080840286018301878501865b838110156146ac57603f19898403018552815160c06001600160a01b03825116855288820151898601528782015188860152606080830151818701525060808083015182828801526148d083880182614115565b9250505060a08083015192506148e8818701846141e0565b50958801959350509086019060010161487c565b60006040820160408352808554808352606092508285019150602083818302870101888652818620865b848110156149f557605f1989840301865260a082548452600160ff8185015416614952878701826141cc565b5060028401546040860152600384015489860152600484018260808701528a815461497c81615967565b94880185905260c094818516801561499b57600181146149af576149da565b60ff1983168a88015260e08a0193506149da565b848f528a8f208f5b838110156149d25781548c82018a0152908701908c016149b7565b8b0188019450505b50505098870198955050506005929092019150600101614926565b50509501959095525091949350505050565b901515815260200190565b90815260200190565b918252602082015260400190565b92835260ff918216602084015216604082015260600190565b6001600160e01b031991909116815260200190565b60006020825261389e60208301846141a0565b60006001600160a01b038716825285602083015284604083015260806060830152614a99608083018486613e9d565b979650505050505050565b600060a0820190506001600160a01b0387168252856020830152846040830152836060830152612cfc60808301846141e0565b60006001600160a01b038089168352808816602084015280871660408401525084606083015260c06080830152614b1160c08301856141a0565b82810360a0840152614b238185614303565b9998505050505050505050565b60208082526016908201527f6f6e6c7920496e67657374547970652e4d616e75616c00000000000000000000604082015260600190565b6020808252600a908201527f4f6e6c794b656570657200000000000000000000000000000000000000000000604082015260600190565b60208082526013908201527f496e67657374206e6f742043616c6c6261636b00000000000000000000000000604082015260600190565b60208082526010908201527f536f6c76657220686173206368696c6400000000000000000000000000000000604082015260600190565b60208082526026908201527f7061796f7574732e6c656e677468206d757374206d61746368206f7574636f6d60408201527f65536c6f74730000000000000000000000000000000000000000000000000000606082015260800190565b60208082526016908201527f436f6e646974696f6e206e6f7420457865637574656400000000000000000000604082015260600190565b60208082526015908201527f6d73672e73656e646572206e6f7420736f6c7665720000000000000000000000604082015260600190565b60208082526018908201527f496e76616c696420696e64657820746f20707265706172650000000000000000604082015260600190565b6020808252818101527f526563697069656e7420736c6f74207265717569726573207570646174696e67604082015260600190565b6020808252600b908201527f4f6e6c79204b6565706572000000000000000000000000000000000000000000604082015260600190565b60208082526015908201527f54696d656c6f636b207374696c6c206c6f636b65640000000000000000000000604082015260600190565b6020808252600f908201527f696e676573747320696e76616c69640000000000000000000000000000000000604082015260600190565b60208082526012908201527f496e76616c696420696e67657374547970650000000000000000000000000000604082015260600190565b60208082526018908201527f4e6f74204172626974726174696f6e5265717565737465640000000000000000604082015260600190565b6020808252602e908201527f496e697469616c697a61626c653a20636f6e747261637420697320616c72656160408201527f647920696e697469616c697a6564000000000000000000000000000000000000606082015260800190565b60208082526011908201527f536c6f7420696e76616c6964207665722e000000000000000000000000000000604082015260600190565b6020808252600f908201527f4f6e6c792061726269747261746f720000000000000000000000000000000000604082015260600190565b6020808252600e908201527f4b656570657220696e76616c6964000000000000000000000000000000000000604082015260600190565b60208082526014908201527f4f7574636f6d65206e6f742070726f706f736564000000000000000000000000604082015260600190565b60208082526013908201527f4e6f74204f7574636f6d6550726f706f73656400000000000000000000000000604082015260600190565b6020808252818101527f46756c66696c6c206f7574676f696e672063616c6c6261636b73206669727374604082015260600190565b6020808252818101527f46756c66696c6c20696e636f6d696e672063616c6c6261636b73206669727374604082015260600190565b60208082526016908201527f4e6f74204172626974726174696f6e50656e64696e6700000000000000000000604082015260600190565b6020808252600b908201527f4f6e6c79206b6565706572000000000000000000000000000000000000000000604082015260600190565b60208082526012908201527f4f6e6c79206b65657065722f706172656e740000000000000000000000000000604082015260600190565b6020808252600e908201527f547261636b696e67496420736574000000000000000000000000000000000000604082015260600190565b60208082526014908201527f536c6f742076657273696f6e20696e76616c6964000000000000000000000000604082015260600190565b6020808252600d908201527f6e6f7420496e6974696174656400000000000000000000000000000000000000604082015260600190565b600084825260406020830152613c2e604083018486613e9d565b6000602082526001600160a01b038084511660208401528060208501511660408401525060408301516151ca6060840182613e90565b5060608301516080830152608083015160e060a08401526151ef6101008401826141a0565b905060a0840151601f19808584030160c086015261520d8383613f9c565b925060c08601519150808584030160e086015250613c2e8282614303565b606081016152398284614567565b92915050565b60008782526001600160a01b038716602083015260c0604083015261526760c0830187614506565b82810360608401526152798187614402565b6080840195909552505060a00152949350505050565b9283526020830191909152604082015260600190565b6000808335601e198436030181126152bb578283fd5b83018035915067ffffffffffffffff8211156152d5578283fd5b602090810192508102360382131561379e57600080fd5b6000808335601e19843603018112615302578283fd5b83018035915067ffffffffffffffff82111561531c578283fd5b602001915060608102360382131561379e57600080fd5b6000808335601e19843603018112615349578283fd5b83018035915067ffffffffffffffff821115615363578283fd5b60200191503681900382131561379e57600080fd5b60008235603e1983360301811261538d578182fd5b9190910192915050565b6000823560de1983360301811261538d578182fd5b60008235609e1983360301811261538d578182fd5b60405181810167ffffffffffffffff811182821017156153e3576153e3615a0c565b604052919050565b600067ffffffffffffffff82111561540557615405615a0c565b5060209081020190565b600067ffffffffffffffff82111561542957615429615a0c565b50601f01601f191660200190565b60009081526020902090565b60208410801561549957601f84116001811461546a57615463868561599c565b8355615493565b61547383615437565b6154886020601f880104820160018301615629565b506154938684615a82565b50610bc0565b8160005260206000206020601f8701048101601f871680156154c3576154c3816000198401615a22565b506154d66020601f880104830182615629565b50506001856002021782555050505050565b6000808335601e198436030181126154fe578283fd5b830160208101925035905067ffffffffffffffff81111561551e57600080fd5b60208102360383131561379e57600080fd5b6000808335601e19843603018112615546578283fd5b830160208101925035905067ffffffffffffffff81111561556657600080fd5b60608102360383131561379e57600080fd5b6000808335601e1984360301811261558e578283fd5b830160208101925035905067ffffffffffffffff8111156155ae57600080fd5b80360383131561379e57600080fd5b6000823560de198336030181126155d2578182fd5b90910192915050565b600082198211156155ee576155ee6159e0565b500190565b600081600019048311821515161561560d5761560d6159e0565b500290565b600082821015615624576156246159e0565b500390565b5b81811015612cd0576000815560010161562a565b6801000000000000000083111561565757615657615a0c565b8054838255808410156156f5577f7fffffffffffffffffffffffffffffffffffffffffffffffffffffffffffffff6001818311811615615699576156996159e0565b60028287118216156156ad576156ad6159e0565b600085815260208120909350878202810190828602015b808210156156ef576156d885868454615aa0565b82556156e685858401615a36565b908201906156c4565b50505050505b508161570082615437565b6000805b86811015615736576157206157198588615378565b8385615e00565b6020939093019260029290920191600101615704565b50505050505050565b6801000000000000000083111561575857615758615a0c565b8054838255808410156157f0577f7fffffffffffffffffffffffffffffffffffffffffffffffffffffffffffffff600181831181161561579a5761579a6159e0565b60028287118216156157ae576157ae6159e0565b600085815260208120909350878202810190828602015b808210156157ea576157d985868454615aa0565b8255848483015582820191506157c5565b50505050505b50816157fb82615437565b6000805b8681101561573657615812848385615ec8565b60609390930192600292909201916001016157ff565b67ffffffffffffffff83111561584057615840615a0c565b61584a8154615967565b600080601f8611601f8411818117156158695761586686615437565b92505b8015615898576020601f890104830160208910156158845750825b6158966020601f880104850182615629565b505b5080600181146158c4576000945087156158b3578387013594505b6158bd888661599c565b8655615916565b601f198816945082845b868110156158ee57888601358255602095860195600190920191016158ce565b508886101561590b57878501356000196008601f8c16021c191681555b506001600289020186555b5050505050505050565b60005b8381101561593b578181015183820152602001615923565b8381111561594a576000848401525b50505050565b60008161595f5761595f6159e0565b506000190190565b60028104600182168061597b57607f821691505b6020821081141561387c57634e487b7160e01b600052602260045260246000fd5b600019600883021c191660029091021790565b60006000198214156159c3576159c36159e0565b5060010190565b634e487b7160e01b600052600060045260246000fd5b634e487b7160e01b600052601160045260246000fd5b634e487b7160e01b600052602160045260246000fd5b634e487b7160e01b600052604160045260246000fd5b8054600019836020036008021c1681555050565b68010000000000000000821115615a4f57615a4f615a0c565b8054828255808310156119c1576000828152602081208481019083015b80821015611c6d57828255600182019150615a6c565b806000526020600020615a9683825461599c565b9091556000905550565b60089190910291821b60001990921b9182169119161790565b6001600160a01b0382166001600160a01b03198254161781555050565b8135615ae181615f0f565b615aeb8183615ab9565b50600160208084013582840155604084013560028401556060840135600384015560048301615b1d60808601866152a5565b68010000000000000000811115615b3657615b36615a0c565b825481845580821015615b5b578360005284600020615b59828201848301615629565b505b506000928352838320925b81811015615b81578235845592850192918401918501615b66565b505050505050615b9460a08301836152a5565b615ba281836005860161563e565b5050615bb160c08301836152ec565b61594a81836006860161573f565b8135615bca81615f0f565b615bd48183615ab9565b506001602080840135615be681615f0f565b615bf281848601615ab9565b5060026040850135615c0381615f0f565b615c0f81838701615ab9565b5060036060860135818601556004615c2a6080880188615333565b615c378183858b01615828565b50506005808701615c4b60a08a018a6152a5565b68010000000000000000811115615c6457615c64615a0c565b825481845580821015615d38577f33333333333333333333333333333333333333333333333333333333333333338082118b1615615ca457615ca46159e0565b8083118b1615615cb657615cb66159e0565b506000848152898120838702810190878402015b80821015615d3457615cde83848454615aa0565b8255828d8301558a8201615cf484858354615aa0565b815550898201615d0684858354615aa0565b90558189018054615d1681615967565b8015615d2857615d2886828486615443565b50505090870190615cca565b5050505b50819650615d4583615437565b9550600094508492505b80831015615d7c57615d6b615d6488846153ac565b8688615e54565b958701959483019491880191615d4f565b505050505050505050612cd0615d9560c0840184615397565b60068301615ad6565b81358155600181016020830135615db481615f31565b615dbe8183615dd7565b506040830135615dcd81615f31565b61594a8183615de8565b60ff821660ff198254161781555050565b805461ff008360081b1661ff00198216178255505050565b8115615e0e57615e0e6159ca565b8235815560018082016020615e25818701876152a5565b615e2f8185615a36565b6000938452828420935b81811015610c70578235855593850193918301918501615e39565b8115615e6257615e626159ca565b82358155600181016020840135615e7881615f24565b60048110615e8857615e886159f6565b60ff1982541660ff8216811783555050506040830135600282015560608301356003820155615eba6080840184615333565b610bc0818360048601615828565b8115615ed657615ed66159ca565b82358155600181016020840135615eec81615f31565b615ef68183615dd7565b506040840135615f0581615f31565b610bc08183615de8565b6001600160a01b038116811461070b57600080fd5b6004811061070b57600080fd5b60ff8116811461070b57600080fdfea2646970667358221220a7fa9dc49c35e99ec54ff9227d2d084e8df74e9ea4a91dd8152a1ae80fba6c9f64736f6c63430008000033",
  "linkReferences": {
    "contracts/SolverLib.sol": {
      "SolverLib": [
        {
          "length": 20,
          "start": 1680
        },
        {
          "length": 20,
          "start": 1971
        },
        {
          "length": 20,
          "start": 2886
        },
        {
          "length": 20,
          "start": 3924
        },
        {
          "length": 20,
          "start": 4276
        },
        {
          "length": 20,
          "start": 4996
        },
        {
          "length": 20,
          "start": 5214
        },
        {
          "length": 20,
          "start": 6466
        },
        {
          "length": 20,
          "start": 7153
        },
        {
          "length": 20,
          "start": 7803
        },
        {
          "length": 20,
          "start": 8277
        },
        {
          "length": 20,
          "start": 8672
        },
        {
          "length": 20,
          "start": 13069
        }
      ]
    }
  },
  "deployedLinkReferences": {
    "contracts/SolverLib.sol": {
      "SolverLib": [
        {
          "length": 20,
          "start": 1647
        },
        {
          "length": 20,
          "start": 1938
        },
        {
          "length": 20,
          "start": 2853
        },
        {
          "length": 20,
          "start": 3891
        },
        {
          "length": 20,
          "start": 4243
        },
        {
          "length": 20,
          "start": 4963
        },
        {
          "length": 20,
          "start": 5181
        },
        {
          "length": 20,
          "start": 6433
        },
        {
          "length": 20,
          "start": 7120
        },
        {
          "length": 20,
          "start": 7770
        },
        {
          "length": 20,
          "start": 8244
        },
        {
          "length": 20,
          "start": 8639
        },
        {
          "length": 20,
          "start": 13036
        }
      ]
    }
  }
}