{
  "address": "0x15C55A06669B1307667081a33CC80C34a6De34c2",
  "abi": [
    {
      "inputs": [
        {
          "internalType": "contract ISolverFactory",
          "name": "factoryAddress",
          "type": "address"
        },
        {
          "internalType": "contract IProposalsHub",
          "name": "proposalsHubAddress",
          "type": "address"
        }
      ],
      "stateMutability": "nonpayable",
      "type": "constructor"
    },
    {
      "anonymous": false,
      "inputs": [
        {
          "indexed": false,
          "internalType": "bytes32",
          "name": "id",
          "type": "bytes32"
        }
      ],
      "name": "CreateBase",
      "type": "event"
    },
    {
      "anonymous": false,
      "inputs": [
        {
          "indexed": false,
          "internalType": "bytes32",
          "name": "id",
          "type": "bytes32"
        }
      ],
      "name": "CreateSolution",
      "type": "event"
    },
    {
      "anonymous": false,
      "inputs": [
        {
          "indexed": false,
          "internalType": "bytes32",
          "name": "id",
          "type": "bytes32"
        }
      ],
      "name": "ExecuteSolution",
      "type": "event"
    },
    {
      "inputs": [
        {
          "internalType": "bytes32",
          "name": "",
          "type": "bytes32"
        }
      ],
      "name": "bases",
      "outputs": [
        {
          "internalType": "contract IERC20",
          "name": "collateralToken",
          "type": "address"
        },
        {
          "internalType": "bytes32",
          "name": "id",
          "type": "bytes32"
        },
        {
          "internalType": "bytes32",
          "name": "solverConfigsHash",
          "type": "bytes32"
        },
        {
          "internalType": "string",
          "name": "solverConfigsURI",
          "type": "string"
        }
      ],
      "stateMutability": "view",
      "type": "function"
    },
    {
      "inputs": [
        {
          "internalType": "bytes32",
          "name": "baseId",
          "type": "bytes32"
        },
        {
          "internalType": "contract IERC20",
          "name": "collateralToken",
          "type": "address"
        },
        {
          "components": [
            {
              "internalType": "contract Solver",
              "name": "implementation",
              "type": "address"
            },
            {
              "internalType": "address",
              "name": "keeper",
              "type": "address"
            },
            {
              "internalType": "address",
              "name": "arbitrator",
              "type": "address"
            },
            {
              "internalType": "uint256",
              "name": "timelockSeconds",
              "type": "uint256"
            },
            {
              "components": [
                {
                  "internalType": "contract IModule",
                  "name": "module",
                  "type": "address"
                },
                {
                  "internalType": "bytes",
                  "name": "data",
                  "type": "bytes"
                }
              ],
              "internalType": "struct Modulated.Loader[]",
              "name": "moduleLoaders",
              "type": "tuple[]"
            },
            {
              "components": [
                {
                  "internalType": "uint256",
                  "name": "executions",
                  "type": "uint256"
                },
                {
                  "internalType": "enum SolverLib.IngestType",
                  "name": "ingestType",
                  "type": "uint8"
                },
                {
                  "internalType": "bytes32",
                  "name": "slot",
                  "type": "bytes32"
                },
                {
                  "internalType": "uint256",
                  "name": "solverIndex",
                  "type": "uint256"
                },
                {
                  "internalType": "bytes",
                  "name": "data",
                  "type": "bytes"
                }
              ],
              "internalType": "struct SolverLib.Ingest[]",
              "name": "ingests",
              "type": "tuple[]"
            },
            {
              "components": [
                {
                  "internalType": "contract IERC20",
                  "name": "collateralToken",
                  "type": "address"
                },
                {
                  "internalType": "uint256",
                  "name": "outcomeSlots",
                  "type": "uint256"
                },
                {
                  "internalType": "uint256",
                  "name": "parentCollectionIndexSet",
                  "type": "uint256"
                },
                {
                  "internalType": "bytes32",
                  "name": "amountSlot",
                  "type": "bytes32"
                },
                {
                  "internalType": "uint256[]",
                  "name": "partition",
                  "type": "uint256[]"
                },
                {
                  "components": [
                    {
                      "internalType": "bytes32",
                      "name": "recipientAddressSlot",
                      "type": "bytes32"
                    },
                    {
                      "internalType": "bytes32[]",
                      "name": "recipientAmountSlots",
                      "type": "bytes32[]"
                    }
                  ],
                  "internalType": "struct SolverLib.Allocation[]",
                  "name": "allocations",
                  "type": "tuple[]"
                },
                {
                  "internalType": "string[]",
                  "name": "outcomeURIs",
                  "type": "string[]"
                }
              ],
              "internalType": "struct SolverLib.ConditionBase",
              "name": "conditionBase",
              "type": "tuple"
            }
          ],
          "internalType": "struct SolverLib.Config[]",
          "name": "solverConfigs",
          "type": "tuple[]"
        },
        {
          "internalType": "string",
          "name": "solverConfigsURI",
          "type": "string"
        }
      ],
      "name": "createBase",
      "outputs": [
        {
          "internalType": "bytes32",
          "name": "safeBaseId",
          "type": "bytes32"
        }
      ],
      "stateMutability": "nonpayable",
      "type": "function"
    },
    {
      "inputs": [
        {
          "internalType": "bytes32",
          "name": "baseId",
          "type": "bytes32"
        }
      ],
      "name": "createInstance",
      "outputs": [
        {
          "internalType": "bytes32",
          "name": "solutionId",
          "type": "bytes32"
        }
      ],
      "stateMutability": "nonpayable",
      "type": "function"
    },
    {
      "inputs": [
        {
          "internalType": "bytes32",
          "name": "baseId",
          "type": "bytes32"
        },
        {
          "internalType": "contract IERC20",
          "name": "collateralToken",
          "type": "address"
        },
        {
          "components": [
            {
              "internalType": "contract Solver",
              "name": "implementation",
              "type": "address"
            },
            {
              "internalType": "address",
              "name": "keeper",
              "type": "address"
            },
            {
              "internalType": "address",
              "name": "arbitrator",
              "type": "address"
            },
            {
              "internalType": "uint256",
              "name": "timelockSeconds",
              "type": "uint256"
            },
            {
              "components": [
                {
                  "internalType": "contract IModule",
                  "name": "module",
                  "type": "address"
                },
                {
                  "internalType": "bytes",
                  "name": "data",
                  "type": "bytes"
                }
              ],
              "internalType": "struct Modulated.Loader[]",
              "name": "moduleLoaders",
              "type": "tuple[]"
            },
            {
              "components": [
                {
                  "internalType": "uint256",
                  "name": "executions",
                  "type": "uint256"
                },
                {
                  "internalType": "enum SolverLib.IngestType",
                  "name": "ingestType",
                  "type": "uint8"
                },
                {
                  "internalType": "bytes32",
                  "name": "slot",
                  "type": "bytes32"
                },
                {
                  "internalType": "uint256",
                  "name": "solverIndex",
                  "type": "uint256"
                },
                {
                  "internalType": "bytes",
                  "name": "data",
                  "type": "bytes"
                }
              ],
              "internalType": "struct SolverLib.Ingest[]",
              "name": "ingests",
              "type": "tuple[]"
            },
            {
              "components": [
                {
                  "internalType": "contract IERC20",
                  "name": "collateralToken",
                  "type": "address"
                },
                {
                  "internalType": "uint256",
                  "name": "outcomeSlots",
                  "type": "uint256"
                },
                {
                  "internalType": "uint256",
                  "name": "parentCollectionIndexSet",
                  "type": "uint256"
                },
                {
                  "internalType": "bytes32",
                  "name": "amountSlot",
                  "type": "bytes32"
                },
                {
                  "internalType": "uint256[]",
                  "name": "partition",
                  "type": "uint256[]"
                },
                {
                  "components": [
                    {
                      "internalType": "bytes32",
                      "name": "recipientAddressSlot",
                      "type": "bytes32"
                    },
                    {
                      "internalType": "bytes32[]",
                      "name": "recipientAmountSlots",
                      "type": "bytes32[]"
                    }
                  ],
                  "internalType": "struct SolverLib.Allocation[]",
                  "name": "allocations",
                  "type": "tuple[]"
                },
                {
                  "internalType": "string[]",
                  "name": "outcomeURIs",
                  "type": "string[]"
                }
              ],
              "internalType": "struct SolverLib.ConditionBase",
              "name": "conditionBase",
              "type": "tuple"
            }
          ],
          "internalType": "struct SolverLib.Config[]",
          "name": "solverConfigs",
          "type": "tuple[]"
        },
        {
          "internalType": "string",
          "name": "solverConfigsURI",
          "type": "string"
        }
      ],
      "name": "createSolution",
      "outputs": [
        {
          "internalType": "bytes32",
          "name": "instanceId",
          "type": "bytes32"
        }
      ],
      "stateMutability": "nonpayable",
      "type": "function"
    },
    {
      "inputs": [
        {
          "internalType": "bytes32",
          "name": "proposalId",
          "type": "bytes32"
        },
        {
          "internalType": "bytes32",
          "name": "solutionId",
          "type": "bytes32"
        },
        {
          "components": [
            {
              "internalType": "contract Solver",
              "name": "implementation",
              "type": "address"
            },
            {
              "internalType": "address",
              "name": "keeper",
              "type": "address"
            },
            {
              "internalType": "address",
              "name": "arbitrator",
              "type": "address"
            },
            {
              "internalType": "uint256",
              "name": "timelockSeconds",
              "type": "uint256"
            },
            {
              "components": [
                {
                  "internalType": "contract IModule",
                  "name": "module",
                  "type": "address"
                },
                {
                  "internalType": "bytes",
                  "name": "data",
                  "type": "bytes"
                }
              ],
              "internalType": "struct Modulated.Loader[]",
              "name": "moduleLoaders",
              "type": "tuple[]"
            },
            {
              "components": [
                {
                  "internalType": "uint256",
                  "name": "executions",
                  "type": "uint256"
                },
                {
                  "internalType": "enum SolverLib.IngestType",
                  "name": "ingestType",
                  "type": "uint8"
                },
                {
                  "internalType": "bytes32",
                  "name": "slot",
                  "type": "bytes32"
                },
                {
                  "internalType": "uint256",
                  "name": "solverIndex",
                  "type": "uint256"
                },
                {
                  "internalType": "bytes",
                  "name": "data",
                  "type": "bytes"
                }
              ],
              "internalType": "struct SolverLib.Ingest[]",
              "name": "ingests",
              "type": "tuple[]"
            },
            {
              "components": [
                {
                  "internalType": "contract IERC20",
                  "name": "collateralToken",
                  "type": "address"
                },
                {
                  "internalType": "uint256",
                  "name": "outcomeSlots",
                  "type": "uint256"
                },
                {
                  "internalType": "uint256",
                  "name": "parentCollectionIndexSet",
                  "type": "uint256"
                },
                {
                  "internalType": "bytes32",
                  "name": "amountSlot",
                  "type": "bytes32"
                },
                {
                  "internalType": "uint256[]",
                  "name": "partition",
                  "type": "uint256[]"
                },
                {
                  "components": [
                    {
                      "internalType": "bytes32",
                      "name": "recipientAddressSlot",
                      "type": "bytes32"
                    },
                    {
                      "internalType": "bytes32[]",
                      "name": "recipientAmountSlots",
                      "type": "bytes32[]"
                    }
                  ],
                  "internalType": "struct SolverLib.Allocation[]",
                  "name": "allocations",
                  "type": "tuple[]"
                },
                {
                  "internalType": "string[]",
                  "name": "outcomeURIs",
                  "type": "string[]"
                }
              ],
              "internalType": "struct SolverLib.ConditionBase",
              "name": "conditionBase",
              "type": "tuple"
            }
          ],
          "internalType": "struct SolverLib.Config[]",
          "name": "solverConfigs",
          "type": "tuple[]"
        }
      ],
      "name": "executeSolution",
      "outputs": [],
      "stateMutability": "nonpayable",
      "type": "function"
    },
    {
      "inputs": [
        {
          "internalType": "bytes32",
          "name": "instanceId",
          "type": "bytes32"
        }
      ],
      "name": "getSolution",
      "outputs": [
        {
          "components": [
            {
              "internalType": "bool",
              "name": "executed",
              "type": "bool"
            },
            {
              "internalType": "contract IERC20",
              "name": "collateralToken",
              "type": "address"
            },
            {
              "internalType": "address",
              "name": "proposalsHub",
              "type": "address"
            },
            {
              "internalType": "bytes32",
              "name": "proposalId",
              "type": "bytes32"
            },
            {
              "internalType": "bytes32",
              "name": "id",
              "type": "bytes32"
            },
            {
              "internalType": "bytes32",
              "name": "solverConfigsHash",
              "type": "bytes32"
            },
            {
              "internalType": "string",
              "name": "solverConfigsURI",
              "type": "string"
            },
            {
              "internalType": "address[]",
              "name": "solverAddresses",
              "type": "address[]"
            }
          ],
          "internalType": "struct IPFSSolutionsHub.Solution",
          "name": "solution",
          "type": "tuple"
        }
      ],
      "stateMutability": "view",
      "type": "function"
    },
    {
      "inputs": [
        {
          "internalType": "bytes32",
          "name": "solutionId",
          "type": "bytes32"
        }
      ],
      "name": "getSolvers",
      "outputs": [
        {
          "internalType": "address[]",
          "name": "solvers",
          "type": "address[]"
        }
      ],
      "stateMutability": "view",
      "type": "function"
    },
    {
      "inputs": [
        {
          "internalType": "bytes32",
          "name": "",
          "type": "bytes32"
        }
      ],
      "name": "instanceId_to_ProposalId",
      "outputs": [
        {
          "internalType": "bytes32",
          "name": "",
          "type": "bytes32"
        }
      ],
      "stateMutability": "view",
      "type": "function"
    },
    {
      "inputs": [
        {
          "internalType": "bytes32",
          "name": "",
          "type": "bytes32"
        }
      ],
      "name": "instances",
      "outputs": [
        {
          "internalType": "bool",
          "name": "executed",
          "type": "bool"
        },
        {
          "internalType": "bytes32",
          "name": "id",
          "type": "bytes32"
        },
        {
          "internalType": "bytes32",
          "name": "baseId",
          "type": "bytes32"
        }
      ],
      "stateMutability": "view",
      "type": "function"
    },
    {
      "inputs": [
        {
          "internalType": "bytes32",
          "name": "proposalId",
          "type": "bytes32"
        },
        {
          "internalType": "bytes32",
          "name": "solutionId",
          "type": "bytes32"
        },
        {
          "internalType": "contract IERC20",
          "name": "collateralToken",
          "type": "address"
        }
      ],
      "name": "linkToProposal",
      "outputs": [],
      "stateMutability": "nonpayable",
      "type": "function"
    },
    {
      "inputs": [
        {
          "internalType": "bytes32",
          "name": "",
          "type": "bytes32"
        }
      ],
      "name": "nonces",
      "outputs": [
        {
          "internalType": "uint256",
          "name": "",
          "type": "uint256"
        }
      ],
      "stateMutability": "view",
      "type": "function"
    },
    {
      "inputs": [
        {
          "internalType": "bytes32",
          "name": "solutionId",
          "type": "bytes32"
        },
        {
          "internalType": "uint256",
          "name": "index",
          "type": "uint256"
        }
      ],
      "name": "solverFromIndex",
      "outputs": [
        {
          "internalType": "address",
          "name": "solverAddress",
          "type": "address"
        }
      ],
      "stateMutability": "view",
      "type": "function"
    },
    {
      "inputs": [
        {
          "internalType": "bytes32",
          "name": "baseId",
          "type": "bytes32"
        },
        {
          "components": [
            {
              "internalType": "contract Solver",
              "name": "implementation",
              "type": "address"
            },
            {
              "internalType": "address",
              "name": "keeper",
              "type": "address"
            },
            {
              "internalType": "address",
              "name": "arbitrator",
              "type": "address"
            },
            {
              "internalType": "uint256",
              "name": "timelockSeconds",
              "type": "uint256"
            },
            {
              "components": [
                {
                  "internalType": "contract IModule",
                  "name": "module",
                  "type": "address"
                },
                {
                  "internalType": "bytes",
                  "name": "data",
                  "type": "bytes"
                }
              ],
              "internalType": "struct Modulated.Loader[]",
              "name": "moduleLoaders",
              "type": "tuple[]"
            },
            {
              "components": [
                {
                  "internalType": "uint256",
                  "name": "executions",
                  "type": "uint256"
                },
                {
                  "internalType": "enum SolverLib.IngestType",
                  "name": "ingestType",
                  "type": "uint8"
                },
                {
                  "internalType": "bytes32",
                  "name": "slot",
                  "type": "bytes32"
                },
                {
                  "internalType": "uint256",
                  "name": "solverIndex",
                  "type": "uint256"
                },
                {
                  "internalType": "bytes",
                  "name": "data",
                  "type": "bytes"
                }
              ],
              "internalType": "struct SolverLib.Ingest[]",
              "name": "ingests",
              "type": "tuple[]"
            },
            {
              "components": [
                {
                  "internalType": "contract IERC20",
                  "name": "collateralToken",
                  "type": "address"
                },
                {
                  "internalType": "uint256",
                  "name": "outcomeSlots",
                  "type": "uint256"
                },
                {
                  "internalType": "uint256",
                  "name": "parentCollectionIndexSet",
                  "type": "uint256"
                },
                {
                  "internalType": "bytes32",
                  "name": "amountSlot",
                  "type": "bytes32"
                },
                {
                  "internalType": "uint256[]",
                  "name": "partition",
                  "type": "uint256[]"
                },
                {
                  "components": [
                    {
                      "internalType": "bytes32",
                      "name": "recipientAddressSlot",
                      "type": "bytes32"
                    },
                    {
                      "internalType": "bytes32[]",
                      "name": "recipientAmountSlots",
                      "type": "bytes32[]"
                    }
                  ],
                  "internalType": "struct SolverLib.Allocation[]",
                  "name": "allocations",
                  "type": "tuple[]"
                },
                {
                  "internalType": "string[]",
                  "name": "outcomeURIs",
                  "type": "string[]"
                }
              ],
              "internalType": "struct SolverLib.ConditionBase",
              "name": "conditionBase",
              "type": "tuple"
            }
          ],
          "internalType": "struct SolverLib.Config[]",
          "name": "solverConfigs",
          "type": "tuple[]"
        }
      ],
      "name": "verifyHash",
      "outputs": [
        {
          "internalType": "bool",
          "name": "",
          "type": "bool"
        }
      ],
      "stateMutability": "view",
      "type": "function"
    }
  ],
  "transactionHash": "0xabe9877f66abf4c0381010231a8248d3422dc03018511c2d3de79bfdb781a20d",
  "args": [
    "0x72FCaD760e1cFA4e4a6593928099f272C2cc3ceF",
    "0x760d23D609b968D01F2a2589886c2129F96D71e9"
  ],
  "solcInputHash": "00a23bc7000b16b026c6f96c825b5595",
  "bytecode": "0x60c06040523480156200001157600080fd5b50604051620027f4380380620027f4833981016040819052620000349162000065565b6001600160a01b039182166080521660a052620000a4565b6001600160a01b03811681146200006257600080fd5b50565b600080604083850312156200007957600080fd5b825162000086816200004c565b602084015190925062000099816200004c565b809150509250929050565b60805160a051612723620000d16000396000818161071501526108dd01526000610fab01526127236000f3fe608060405234801561001057600080fd5b50600436106100af5760003560e01c8063191481a0146100b45780632711447f146100e4578063307d6cb6146101355780634f605f81146101555780634f730b9f146101785780639193e9cc1461019b57806398c52054146101bc5780639e317f12146101cf578063a2440b9d146101ef578063b199186114610204578063bceef19c14610217578063ddc02e0314610237578063fde1e84f14610257575b600080fd5b6100c76100c236600461123b565b61026a565b6040516001600160a01b0390911681526020015b60405180910390f35b6101186100f236600461126a565b600260208190526000918252604090912080546001820154919092015460ff9092169183565b6040805193151584526020840192909252908201526060016100db565b61014861014336600461126a565b6102ca565b6040516100db9190611283565b61016861016336600461126a565b610339565b6040516100db949392919061131d565b61018b610186366004611aa7565b6103f7565b60405190151581526020016100db565b6101ae6101a9366004611b4c565b61043b565b6040519081526020016100db565b6101ae6101ca36600461126a565b610598565b6101ae6101dd36600461126a565b60006020819052908152604090205481565b6102026101fd366004611c03565b6106ff565b005b610202610212366004611c3c565b610865565b6101ae61022536600461126a565b60036020526000908152604090205481565b61024a61024536600461126a565b610cb9565b6040516100db9190611cd2565b6101ae610265366004611b4c565b610ec1565b600082815260026020526040812060030154156102c05760008381526002602052604090206003018054839081106102a4576102a4611d5d565b6000918252602090912001546001600160a01b031690506102c4565b5060005b92915050565b60008181526002602090815260409182902060030180548351818402810184019094528084526060939283018282801561032d57602002820191906000526020600020905b81546001600160a01b0316815260019091019060200180831161030f575b50505050509050919050565b600160208190526000918252604090912080549181015460028201546003830180546001600160a01b03909516949293919261037490611d73565b80601f01602080910402602001604051908101604052809291908181526020018280546103a090611d73565b80156103ed5780601f106103c2576101008083540402835291602001916103ed565b820191906000526020600020905b8154815290600101906020018083116103d057829003601f168201915b5050505050905084565b60008160405160200161040a9190612051565b60408051601f1981840301815291815281516020928301206000868152600190935291206002015414905092915050565b6000868152602081905260408120805490826104568361214a565b9091555050506000868152602081815260408083205481518084018b90528083019190915281518082038301815260609091018252805190830120808452600192839052922001548190036104eb5760405162461bcd60e51b81526020600482015260166024820152754261736520494420616c72656164792065786973747360501b60448201526064015b60405180910390fd5b60008181526001602081815260409283902091820184905581546001600160a01b0319166001600160a01b038a161782559151909161052e9188918891016125bb565b60408051601f19818403018152919052805160209091012060028201556105596003820185856111a2565b506040518281527fb2291843796c1f5585269aa9e4f472f2c5d0b4c74b5ce230c732c3278a313d899060200160405180910390a1509695505050505050565b6000818152602081905260408120805490826105b38361214a565b909155505060008281526020819052604081205483906105d4600143612610565b604080516020810194909452830191909152406060820152608001604051602081830303815290604052805190602001209050806002600083815260200190815260200160002060010154036106695760405162461bcd60e51b815260206004820152601a602482015279496e7374616e636520494420616c72656164792065786973747360301b60448201526064016104e2565b600083815260016020819052604090912001546106b95760405162461bcd60e51b815260206004820152600e60248201526d10985cd9481b9bdd08199bdd5b9960921b60448201526064016104e2565b60008181526002602081815260409283902060018101859055918201869055915183815290916000805160206126ce833981519152910160405180910390a15092915050565b60405163d3f79a0560e01b8152600481018490527f00000000000000000000000000000000000000000000000000000000000000006001600160a01b03169063d3f79a0590602401602060405180830381865afa158015610764573d6000803e3d6000fd5b505050506040513d601f19601f820116820180604052508101906107889190612627565b6107e25760405162461bcd60e51b815260206004820152602560248201527f50726f706f73616c206973206e6f742076616c69642061742070726f706f73616044820152643639a43ab160d91b60648201526084016104e2565b6000828152600260208181526040808420909201548352600190529020546001600160a01b038281169116146108535760405162461bcd60e51b81526020600482015260166024820152752bb937b7339031b7b63630ba32b930b6103a37b5b2b760511b60448201526064016104e2565b50600090815260036020526040902055565b60008381526002602081905260409091200154610886906101868385612649565b6108d25760405162461bcd60e51b815260206004820152601e60248201527f496e636f727265637420536f6c766572436f6e66696720636f6e74656e74000060448201526064016104e2565b336001600160a01b037f000000000000000000000000000000000000000000000000000000000000000016146109455760405162461bcd60e51b81526020600482015260186024820152772737ba1031b7b93932b1ba10383937b837b9b0b639a43ab160411b60448201526064016104e2565b60008381526003602052604090205484146109955760405162461bcd60e51b815260206004820152601060248201526f15dc9bdb99c81c1c9bdc1bdcd85b125960821b60448201526064016104e2565b60008381526002602052604090205460ff16156109f05760405162461bcd60e51b815260206004820152601960248201527814dbdb1d5d1a5bdb88185b1c9958591e48195e1958dd5d1959603a1b60448201526064016104e2565b6000838152600260205260409020805460ff19166001179055610a14838383610f95565b600083815260026020526040812060030180543392631918063f928892909190610a4057610a40611d5d565b60009182526020909120015460405160e084901b6001600160e01b031916815260048101929092526001600160a01b03166024820152604401600060405180830381600087803b158015610a9357600080fd5b505af1158015610aa7573d6000803e3d6000fd5b5050505060005b600084815260026020526040902060030154811015610b78576000848152600260205260408120600301805483908110610aea57610aea611d5d565b6000918252602080832091909101548783526003909152604091829020549151630683080d60e11b815260048101929092526001600160a01b031691508190630d06101a90602401600060405180830381600087803b158015610b4c57600080fd5b505af1158015610b60573d6000803e3d6000fd5b50505050508080610b709061214a565b915050610aae565b5060008381526002602052604081206003018054909190610b9b57610b9b611d5d565b600091825260208220015460405163253b91a760e11b815260048101929092526001600160a01b031690634a77234e90602401600060405180830381600087803b158015610be857600080fd5b505af1158015610bfc573d6000803e3d6000fd5b50505060008481526002602052604081206003018054909250610c2157610c21611d5d565b600091825260208220015460405163b992db0f60e01b815260048101929092526001600160a01b03169063b992db0f90602401600060405180830381600087803b158015610c6e57600080fd5b505af1925050508015610c7f575060015b506040518381527fabe14211ae2537ee6b7aa77dde5785f740f88443cc6f3a4a4b68bb0e6a5652fa9060200160405180910390a150505050565b604080516101008101825260008082526020820181905291810182905260608082018390526080820183905260a082019290925260c0810182905260e081019190915260008281526002602081815260408084208151608081018352815460ff16151581526001820154818501529381015484830152600381018054835181860281018601909452808452919360608601939290830182828015610d8657602002820191906000526020600020905b81546001600160a01b03168152600190910190602001808311610d68575b50505091909252505050604080820151600090815260016020818152838320845160808101865281546001600160a01b03168152928101549183019190915260028101549382019390935260038301805494955091939092916060840191610ded90611d73565b80601f0160208091040260200160405190810160405280929190818152602001828054610e1990611d73565b8015610e665780601f10610e3b57610100808354040283529160200191610e66565b820191906000526020600020905b815481529060010190602001808311610e4957829003601f168201915b50505091909252505050602080840151608086015292511515845280516001600160a01b0316848401526000948552600390925250604092839020546060808401919091529281015160a0830152919091015160c082015290565b600080805260026020527fac33ff75c19e70fe83507db0d683fd3465c996598dc972688b7ace676c89077c54610f4a5760405162461bcd60e51b815260206004820152602860248201527f536f6c7574696f6e734875623a3a496e7374616e636520494420616c72656164604482015267792065786973747360c01b60648201526084016104e2565b610f5887878787878761043b565b50610f6287610598565b90506000805160206126ce83398151915281604051610f8391815260200190565b60405180910390a19695505050505050565b6000805b8281101561119b57806000036110ba577f00000000000000000000000000000000000000000000000000000000000000006001600160a01b0316630ed163f0600083878786818110610fed57610fed611d5d565b9050602002810190610fff9190612656565b6040518463ffffffff1660e01b815260040161101d93929190612676565b6020604051808303816000875af115801561103c573d6000803e3d6000fd5b505050506040513d601f19601f82011682018060405250810190611060919061269d565b91506001600160a01b0382166110b55760405162461bcd60e51b815260206004820152601a60248201527924b73b30b634b21030b2323932b9b9903337b91029b7b63b32b960311b60448201526064016104e2565b61114f565b816001600160a01b0316636463845b8585848181106110db576110db611d5d565b90506020028101906110ed9190612656565b6040518263ffffffff1660e01b815260040161110991906126ba565b6020604051808303816000875af1158015611128573d6000803e3d6000fd5b505050506040513d601f19601f8201168201806040525081019061114c919061269d565b91505b60008581526002602090815260408220600301805460018101825590835291200180546001600160a01b0319166001600160a01b038416179055806111938161214a565b915050610f99565b5050505050565b8280546111ae90611d73565b90600052602060002090601f0160209004810192826111d05760008555611216565b82601f106111e95782800160ff19823516178555611216565b82800160010185558215611216579182015b828111156112165782358255916020019190600101906111fb565b50611222929150611226565b5090565b5b808211156112225760008155600101611227565b6000806040838503121561124e57600080fd5b50508035926020909101359150565b6001600160a01b03169052565b60006020828403121561127c57600080fd5b5035919050565b6020808252825182820181905260009190848201906040850190845b818110156112c45783516001600160a01b03168352928401929184019160010161129f565b50909695505050505050565b6000815180845260005b818110156112f6576020818501810151868301820152016112da565b81811115611308576000602083870101525b50601f01601f19169290920160200192915050565b60018060a01b038516815283602082015282604082015260806060820152600061134a60808301846112d0565b9695505050505050565b634e487b7160e01b600052604160045260246000fd5b604080519081016001600160401b038111828210171561138c5761138c611354565b60405290565b60405160a081016001600160401b038111828210171561138c5761138c611354565b60405160e081016001600160401b038111828210171561138c5761138c611354565b604051601f8201601f191681016001600160401b03811182821017156113fe576113fe611354565b604052919050565b60006001600160401b0382111561141f5761141f611354565b5060051b60200190565b6001600160a01b038116811461143e57600080fd5b50565b803561144c81611429565b919050565b60006001600160401b0383111561146a5761146a611354565b61147d601f8401601f19166020016113d6565b905082815283838301111561149157600080fd5b828260208301376000602084830101529392505050565b600082601f8301126114b957600080fd5b6114c883833560208501611451565b9392505050565b600082601f8301126114e057600080fd5b813560206114f56114f083611406565b6113d6565b82815260059290921b8401810191818101908684111561151457600080fd5b8286015b8481101561159e5780356001600160401b03808211156115385760008081fd5b908801906040828b03601f19018113156115525760008081fd5b61155a61136a565b8784013561156781611429565b815290830135908282111561157c5760008081fd5b61158a8c89848701016114a8565b818901528652505050918301918301611518565b509695505050505050565b80356004811061144c57600080fd5b600082601f8301126115c957600080fd5b813560206115d96114f083611406565b82815260059290921b840181019181810190868411156115f857600080fd5b8286015b8481101561159e5780356001600160401b038082111561161c5760008081fd5b9088019060a0828b03601f19018113156116365760008081fd5b61163e611392565b87840135815260406116518186016115a9565b898301526060808601358284015260809150818601358184015250828501359250838311156116805760008081fd5b61168e8d8a858801016114a8565b9082015286525050509183019183016115fc565b600082601f8301126116b357600080fd5b813560206116c36114f083611406565b82815260059290921b840181019181810190868411156116e257600080fd5b8286015b8481101561159e57803583529183019183016116e6565b600082601f83011261170e57600080fd5b8135602061171e6114f083611406565b828152600592831b850182019282820191908785111561173d57600080fd5b8387015b858110156118155780356001600160401b03808211156117615760008081fd5b908901906040828c03601f190181131561177b5760008081fd5b61178361136a565b888401358152818401358381111561179b5760008081fd5b8085019450508c603f8501126117b357600092508283fd5b8884013592506117c56114f084611406565b83815292861b8401820192898101908e8511156117e25760008081fd5b948301945b848610156118005785358252948a0194908a01906117e7565b828b0152508752505050928401928401611741565b5090979650505050505050565b600082601f83011261183357600080fd5b813560206118436114f083611406565b82815260059290921b8401810191818101908684111561186257600080fd5b8286015b8481101561159e5780356001600160401b038111156118855760008081fd5b8701603f810189136118975760008081fd5b6118a8898683013560408401611451565b845250918301918301611866565b600060e082840312156118c857600080fd5b6118d06113b4565b90506118db82611441565b815260208281013590820152604080830135908201526060808301359082015260808201356001600160401b038082111561191557600080fd5b611921858386016116a2565b608084015260a084013591508082111561193a57600080fd5b611946858386016116fd565b60a084015260c084013591508082111561195f57600080fd5b5061196c84828501611822565b60c08301525092915050565b60006119866114f084611406565b8381529050602080820190600585901b8401868111156119a557600080fd5b845b81811015611a9c5780356001600160401b03808211156119c75760008081fd5b9087019060e0828b0312156119dc5760008081fd5b6119e46113b4565b6119ed83611441565b81526119fa868401611441565b868201526040611a0b818501611441565b908201526060838101359082015260808084013583811115611a2d5760008081fd5b611a398d8287016114cf565b82840152505060a08084013583811115611a535760008081fd5b611a5f8d8287016115b8565b82840152505060c08084013583811115611a795760008081fd5b611a858d8287016118b6565b9183019190915250865250509282019282016119a7565b505050509392505050565b60008060408385031215611aba57600080fd5b8235915060208301356001600160401b03811115611ad757600080fd5b8301601f81018513611ae857600080fd5b611af785823560208401611978565b9150509250929050565b60008083601f840112611b1357600080fd5b5081356001600160401b03811115611b2a57600080fd5b6020830191508360208260051b8501011115611b4557600080fd5b9250929050565b60008060008060008060808789031215611b6557600080fd5b863595506020870135611b7781611429565b945060408701356001600160401b0380821115611b9357600080fd5b611b9f8a838b01611b01565b90965094506060890135915080821115611bb857600080fd5b818901915089601f830112611bcc57600080fd5b813581811115611bdb57600080fd5b8a6020828501011115611bed57600080fd5b6020830194508093505050509295509295509295565b600080600060608486031215611c1857600080fd5b83359250602084013591506040840135611c3181611429565b809150509250925092565b60008060008060608587031215611c5257600080fd5b843593506020850135925060408501356001600160401b03811115611c7657600080fd5b611c8287828801611b01565b95989497509550505050565b600081518084526020808501945080840160005b83811015611cc75781516001600160a01b031687529582019590820190600101611ca2565b509495945050505050565b6020815281511515602082015260006020830151611cf3604084018261125d565b506040830151611d06606084018261125d565b5060608301516080830152608083015160a083015260a083015160c083015260c08301516101008060e0850152611d416101208501836112d0565b915060e0850151601f19858403018286015261134a8382611c8e565b634e487b7160e01b600052603260045260246000fd5b600181811c90821680611d8757607f821691505b602082108103611da757634e487b7160e01b600052602260045260246000fd5b50919050565b600081518084526020808501808196508360051b8101915082860160005b85811015611e12578284038952815180516001600160a01b031685528501516040868601819052611dfe818701836112d0565b9a87019a9550505090840190600101611dcb565b5091979650505050505050565b60048110611e3d57634e487b7160e01b600052602160045260246000fd5b9052565b600081518084526020808501808196508360051b8101915082860160005b85811015611e12578284038952815160a08151865286820151611e8488880182611e1f565b506040828101519087015260608083015190870152608091820151918601819052611eb1818701836112d0565b9a87019a9550505090840190600101611e5f565b600081518084526020808501808196508360051b810191508286016000805b86811015611f4b578385038a528251805186528601516040878701819052815190870181905290870190606087019084905b80821015611f365783518352928901929189019160019190910190611f16565b50509a87019a95505091850191600101611ee4565b509298975050505050505050565b600081518084526020808501808196508360051b8101915082860160005b85811015611e12578284038952611f8f8483516112d0565b98850198935090840190600101611f77565b80516001600160a01b0316825260208082015181840152604080830151908401526060808301519084015260808083015160e091850182905280519185018290526000929081019183906101008701905b808310156120125784518252938301936001929092019190830190611ff2565b5060a0860151935086810360a088015261202c8185611ec5565b935050505060c083015184820360c08601526120488282611f59565b95945050505050565b60006020808301818452808551808352604092508286019150828160051b87010184880160005b8381101561212657888303603f19018552815180516001600160a01b0390811685528882015116888501528681015160e0906120b68987018261125d565b50606080830151818701525060808083015182828801526120d983880182611dad565b9250505060a080830151868303828801526120f48382611e41565b9250505060c080830151925085820381870152506121128183611fa1565b968901969450505090860190600101612078565b509098975050505050505050565b634e487b7160e01b600052601160045260246000fd5b60006001820161215c5761215c612134565b5060010190565b6000808335601e1984360301811261217a57600080fd5b83016020810192503590506001600160401b0381111561219957600080fd5b8060051b3603821315611b4557600080fd5b6000808335601e198436030181126121c257600080fd5b83016020810192503590506001600160401b038111156121e157600080fd5b803603821315611b4557600080fd5b81835281816020850137506000828201602090810191909152601f909101601f19169091010190565b60008235603e1983360301811261222f57600080fd5b90910192915050565b81835260006020808501808196508560051b810191508460005b87811015611e125782840389526122698288612219565b6040813561227681611429565b6001600160a01b0316865261228d828801836121ab565b925081888801526122a182880184836121f0565b9b88019b965050509185019150600101612252565b81835260006020808501808196508560051b81019150846000805b88811015611f4b578385038a528235609e198936030181126122f1578283fd5b88018035865260a06123048883016115a9565b61231089890182611e1f565b5060408281013590880152606080830135908801526080612333818401846121ab565b935082828a0152612347838a0185836121f0565b9d8a019d985050509387019350506001016122d1565b6000823560de1983360301811261222f57600080fd5b81835260006001600160fb1b0383111561238c57600080fd5b8260051b8083602087013760009401602001938452509192915050565b81835260006020808501808196508560051b810191508460005b87811015611e125782840389526123da82886121ab565b6123e58682846121f0565b9a87019a95505050908401906001016123c3565b6000813561240681611429565b6001600160a01b0316835260208281013581850152604080840135818601526060808501359086015261243c6080850185612163565b60e0608088015261245160e088018284612373565b91505061246160a0860186612163565b87830360a0890152808352848301600582901b840186018360005b848110156124cf57868303601f190184526124978287612219565b803584526124a78a820182612163565b9150898b8601526124bb8a86018383612373565b958b0195945050509088019060010161247c565b50506124de60c08a018a612163565b9750955089810360c08b01526124f58188886123a9565b9a9950505050505050505050565b6000813561251081611429565b6001600160a01b03908116845260208301359061252c82611429565b908116602085015260408301359061254382611429565b166040840152606082810135908401526125606080830183612163565b60e0608086015261257560e086018284612238565b91505061258560a0840184612163565b85830360a08701526125988382846122b6565b925050506125a960c084018461235d565b84820360c086015261204882826123f9565b60208082528181018390526000906040600585901b8401810190840186845b87811015611e1257868403603f190183526125fe846125f9848c61235d565b612503565b935091840191908401906001016125da565b60008282101561262257612622612134565b500390565b60006020828403121561263957600080fd5b815180151581146114c857600080fd5b60006114c8368484611978565b6000823560de1983360301811261266c57600080fd5b9190910192915050565b60018060a01b03841681528260208201526060604082015260006120486060830184612503565b6000602082840312156126af57600080fd5b81516114c881611429565b6020815260006114c8602083018461250356feaf58c2d61bce90c15ecad6e5142ecbbb0b542b557388df7578e0162b098999a3a264697066735822122071c7e8749419eb7ce0adb61be1296b255120b1230b5ae53e269ee6860000b30f64736f6c634300080e0033",
  "devdoc": {
    "kind": "dev",
    "methods": {},
    "version": 1
  },
  "userdoc": {
    "kind": "user",
    "methods": {},
    "version": 1
  },
  "storageLayout": {
    "storage": [
      {
        "astId": 5746,
        "contract": "contracts/hubs/IPFSSolutionsHub.sol:IPFSSolutionsHub",
        "label": "nonces",
        "offset": 0,
        "slot": "0",
        "type": "t_mapping(t_bytes32,t_uint256)"
      },
      {
        "astId": 5796,
        "contract": "contracts/hubs/IPFSSolutionsHub.sol:IPFSSolutionsHub",
        "label": "bases",
        "offset": 0,
        "slot": "1",
        "type": "t_mapping(t_bytes32,t_struct(Base)5762_storage)"
      },
      {
        "astId": 5801,
        "contract": "contracts/hubs/IPFSSolutionsHub.sol:IPFSSolutionsHub",
        "label": "instances",
        "offset": 0,
        "slot": "2",
        "type": "t_mapping(t_bytes32,t_struct(Instance)5772_storage)"
      },
      {
        "astId": 5805,
        "contract": "contracts/hubs/IPFSSolutionsHub.sol:IPFSSolutionsHub",
        "label": "instanceId_to_ProposalId",
        "offset": 0,
        "slot": "3",
        "type": "t_mapping(t_bytes32,t_bytes32)"
      }
    ],
    "types": {
      "t_address": {
        "encoding": "inplace",
        "label": "address",
        "numberOfBytes": "20"
      },
      "t_array(t_address)dyn_storage": {
        "base": "t_address",
        "encoding": "dynamic_array",
        "label": "address[]",
        "numberOfBytes": "32"
      },
      "t_bool": {
        "encoding": "inplace",
        "label": "bool",
        "numberOfBytes": "1"
      },
      "t_bytes32": {
        "encoding": "inplace",
        "label": "bytes32",
        "numberOfBytes": "32"
      },
      "t_contract(IERC20)2691": {
        "encoding": "inplace",
        "label": "contract IERC20",
        "numberOfBytes": "20"
      },
      "t_mapping(t_bytes32,t_bytes32)": {
        "encoding": "mapping",
        "key": "t_bytes32",
        "label": "mapping(bytes32 => bytes32)",
        "numberOfBytes": "32",
        "value": "t_bytes32"
      },
      "t_mapping(t_bytes32,t_struct(Base)5762_storage)": {
        "encoding": "mapping",
        "key": "t_bytes32",
        "label": "mapping(bytes32 => struct IPFSSolutionsHub.Base)",
        "numberOfBytes": "32",
        "value": "t_struct(Base)5762_storage"
      },
      "t_mapping(t_bytes32,t_struct(Instance)5772_storage)": {
        "encoding": "mapping",
        "key": "t_bytes32",
        "label": "mapping(bytes32 => struct IPFSSolutionsHub.Instance)",
        "numberOfBytes": "32",
        "value": "t_struct(Instance)5772_storage"
      },
      "t_mapping(t_bytes32,t_uint256)": {
        "encoding": "mapping",
        "key": "t_bytes32",
        "label": "mapping(bytes32 => uint256)",
        "numberOfBytes": "32",
        "value": "t_uint256"
      },
      "t_string_storage": {
        "encoding": "bytes",
        "label": "string",
        "numberOfBytes": "32"
      },
      "t_struct(Base)5762_storage": {
        "encoding": "inplace",
        "label": "struct IPFSSolutionsHub.Base",
        "members": [
          {
            "astId": 5755,
            "contract": "contracts/hubs/IPFSSolutionsHub.sol:IPFSSolutionsHub",
            "label": "collateralToken",
            "offset": 0,
            "slot": "0",
            "type": "t_contract(IERC20)2691"
          },
          {
            "astId": 5757,
            "contract": "contracts/hubs/IPFSSolutionsHub.sol:IPFSSolutionsHub",
            "label": "id",
            "offset": 0,
            "slot": "1",
            "type": "t_bytes32"
          },
          {
            "astId": 5759,
            "contract": "contracts/hubs/IPFSSolutionsHub.sol:IPFSSolutionsHub",
            "label": "solverConfigsHash",
            "offset": 0,
            "slot": "2",
            "type": "t_bytes32"
          },
          {
            "astId": 5761,
            "contract": "contracts/hubs/IPFSSolutionsHub.sol:IPFSSolutionsHub",
            "label": "solverConfigsURI",
            "offset": 0,
            "slot": "3",
            "type": "t_string_storage"
          }
        ],
        "numberOfBytes": "128"
      },
      "t_struct(Instance)5772_storage": {
        "encoding": "inplace",
        "label": "struct IPFSSolutionsHub.Instance",
        "members": [
          {
            "astId": 5764,
            "contract": "contracts/hubs/IPFSSolutionsHub.sol:IPFSSolutionsHub",
            "label": "executed",
            "offset": 0,
            "slot": "0",
            "type": "t_bool"
          },
          {
            "astId": 5766,
            "contract": "contracts/hubs/IPFSSolutionsHub.sol:IPFSSolutionsHub",
            "label": "id",
            "offset": 0,
            "slot": "1",
            "type": "t_bytes32"
          },
          {
            "astId": 5768,
            "contract": "contracts/hubs/IPFSSolutionsHub.sol:IPFSSolutionsHub",
            "label": "baseId",
            "offset": 0,
            "slot": "2",
            "type": "t_bytes32"
          },
          {
            "astId": 5771,
            "contract": "contracts/hubs/IPFSSolutionsHub.sol:IPFSSolutionsHub",
            "label": "solverAddresses",
            "offset": 0,
            "slot": "3",
            "type": "t_array(t_address)dyn_storage"
          }
        ],
        "numberOfBytes": "128"
      },
      "t_uint256": {
        "encoding": "inplace",
        "label": "uint256",
        "numberOfBytes": "32"
      }
    }
  }
}