{
  "address": "0x8c7e25dD08c94E711D88853Cf69B3FeC88bD1b1c",
  "abi": [
    {
      "anonymous": false,
      "inputs": [
        {
          "indexed": false,
          "internalType": "bytes32",
          "name": "conditionId",
          "type": "bytes32"
        }
      ],
      "name": "ChangedStatus",
      "type": "event"
    },
    {
      "anonymous": false,
      "inputs": [
        {
          "indexed": false,
          "internalType": "bytes32",
          "name": "conditionId",
          "type": "bytes32"
        }
      ],
      "name": "DeliveredNullArbitration",
      "type": "event"
    },
    {
      "anonymous": false,
      "inputs": [
        {
          "indexed": false,
          "internalType": "address",
          "name": "child",
          "type": "address"
        }
      ],
      "name": "DeployedChild",
      "type": "event"
    },
    {
      "anonymous": false,
      "inputs": [],
      "name": "IngestedData",
      "type": "event"
    },
    {
      "anonymous": false,
      "inputs": [
        {
          "indexed": false,
          "internalType": "uint8",
          "name": "version",
          "type": "uint8"
        }
      ],
      "name": "Initialized",
      "type": "event"
    },
    {
      "anonymous": false,
      "inputs": [
        {
          "indexed": true,
          "internalType": "address",
          "name": "module",
          "type": "address"
        },
        {
          "indexed": true,
          "internalType": "address",
          "name": "solver",
          "type": "address"
        }
      ],
      "name": "LoadedModule",
      "type": "event"
    },
    {
      "anonymous": false,
      "inputs": [
        {
          "indexed": false,
          "internalType": "address",
          "name": "solver",
          "type": "address"
        },
        {
          "indexed": false,
          "internalType": "uint256",
          "name": "solveIndex",
          "type": "uint256"
        }
      ],
      "name": "PreparedSolve",
      "type": "event"
    },
    {
      "anonymous": false,
      "inputs": [
        {
          "indexed": false,
          "internalType": "string",
          "name": "cid",
          "type": "string"
        },
        {
          "indexed": false,
          "internalType": "address",
          "name": "submitter",
          "type": "address"
        },
        {
          "indexed": false,
          "internalType": "bytes32",
          "name": "conditionId",
          "type": "bytes32"
        }
      ],
      "name": "SubmittedWork",
      "type": "event"
    },
    {
      "inputs": [
        {
          "internalType": "bytes32",
          "name": "_slot",
          "type": "bytes32"
        },
        {
          "internalType": "bytes",
          "name": "_data",
          "type": "bytes"
        }
      ],
      "name": "addData",
      "outputs": [],
      "stateMutability": "nonpayable",
      "type": "function"
    },
    {
      "inputs": [
        {
          "internalType": "uint256",
          "name": "_index",
          "type": "uint256"
        }
      ],
      "name": "addressFromChainIndex",
      "outputs": [
        {
          "internalType": "address",
          "name": "_address",
          "type": "address"
        }
      ],
      "stateMutability": "view",
      "type": "function"
    },
    {
      "inputs": [
        {
          "internalType": "uint256",
          "name": "_index",
          "type": "uint256"
        }
      ],
      "name": "allocationsValid",
      "outputs": [
        {
          "internalType": "bool",
          "name": "",
          "type": "bool"
        }
      ],
      "stateMutability": "view",
      "type": "function"
    },
    {
      "inputs": [
        {
          "internalType": "uint256",
          "name": "_index",
          "type": "uint256"
        },
        {
          "internalType": "uint256[]",
          "name": "payouts",
          "type": "uint256[]"
        }
      ],
      "name": "arbitrate",
      "outputs": [],
      "stateMutability": "nonpayable",
      "type": "function"
    },
    {
      "inputs": [
        {
          "internalType": "uint256",
          "name": "_index",
          "type": "uint256"
        }
      ],
      "name": "arbitrateNull",
      "outputs": [],
      "stateMutability": "nonpayable",
      "type": "function"
    },
    {
      "inputs": [],
      "name": "arbitrator",
      "outputs": [
        {
          "internalType": "address",
          "name": "",
          "type": "address"
        }
      ],
      "stateMutability": "view",
      "type": "function"
    },
    {
      "inputs": [],
      "name": "chainChild",
      "outputs": [
        {
          "internalType": "address",
          "name": "",
          "type": "address"
        }
      ],
      "stateMutability": "view",
      "type": "function"
    },
    {
      "inputs": [],
      "name": "chainIndex",
      "outputs": [
        {
          "internalType": "uint256",
          "name": "",
          "type": "uint256"
        }
      ],
      "stateMutability": "view",
      "type": "function"
    },
    {
      "inputs": [],
      "name": "chainParent",
      "outputs": [
        {
          "internalType": "address",
          "name": "",
          "type": "address"
        }
      ],
      "stateMutability": "view",
      "type": "function"
    },
    {
      "inputs": [],
      "name": "collateralBalance",
      "outputs": [
        {
          "internalType": "uint256",
          "name": "balance",
          "type": "uint256"
        }
      ],
      "stateMutability": "view",
      "type": "function"
    },
    {
      "inputs": [
        {
          "internalType": "uint256",
          "name": "index",
          "type": "uint256"
        }
      ],
      "name": "condition",
      "outputs": [
        {
          "components": [
            {
              "internalType": "contract IERC20",
              "name": "collateralToken",
              "type": "address"
            },
            {
              "internalType": "bytes32",
              "name": "questionId",
              "type": "bytes32"
            },
            {
              "internalType": "bytes32",
              "name": "parentCollectionId",
              "type": "bytes32"
            },
            {
              "internalType": "bytes32",
              "name": "conditionId",
              "type": "bytes32"
            },
            {
              "internalType": "uint256[]",
              "name": "payouts",
              "type": "uint256[]"
            },
            {
              "internalType": "enum SolverLib.Status",
              "name": "status",
              "type": "uint8"
            }
          ],
          "internalType": "struct SolverLib.Condition",
          "name": "",
          "type": "tuple"
        }
      ],
      "stateMutability": "view",
      "type": "function"
    },
    {
      "inputs": [
        {
          "internalType": "uint256",
          "name": "",
          "type": "uint256"
        }
      ],
      "name": "conditions",
      "outputs": [
        {
          "internalType": "contract IERC20",
          "name": "collateralToken",
          "type": "address"
        },
        {
          "internalType": "bytes32",
          "name": "questionId",
          "type": "bytes32"
        },
        {
          "internalType": "bytes32",
          "name": "parentCollectionId",
          "type": "bytes32"
        },
        {
          "internalType": "bytes32",
          "name": "conditionId",
          "type": "bytes32"
        },
        {
          "internalType": "enum SolverLib.Status",
          "name": "status",
          "type": "uint8"
        }
      ],
      "stateMutability": "view",
      "type": "function"
    },
    {
      "inputs": [],
      "name": "config",
      "outputs": [
        {
          "internalType": "contract Solver",
          "name": "implementation",
          "type": "address"
        },
        {
          "internalType": "address",
          "name": "keeper",
          "type": "address"
        },
        {
          "internalType": "address",
          "name": "arbitrator",
          "type": "address"
        },
        {
          "internalType": "uint256",
          "name": "timelockSeconds",
          "type": "uint256"
        },
        {
          "components": [
            {
              "internalType": "contract IERC20",
              "name": "collateralToken",
              "type": "address"
            },
            {
              "internalType": "uint256",
              "name": "outcomeSlots",
              "type": "uint256"
            },
            {
              "internalType": "uint256",
              "name": "parentCollectionIndexSet",
              "type": "uint256"
            },
            {
              "internalType": "bytes32",
              "name": "amountSlot",
              "type": "bytes32"
            },
            {
              "internalType": "uint256[]",
              "name": "partition",
              "type": "uint256[]"
            },
            {
              "components": [
                {
                  "internalType": "bytes32",
                  "name": "recipientAddressSlot",
                  "type": "bytes32"
                },
                {
                  "internalType": "bytes32[]",
                  "name": "recipientAmountSlots",
                  "type": "bytes32[]"
                }
              ],
              "internalType": "struct SolverLib.Allocation[]",
              "name": "allocations",
              "type": "tuple[]"
            },
            {
              "internalType": "string[]",
              "name": "outcomeURIs",
              "type": "string[]"
            }
          ],
          "internalType": "struct SolverLib.ConditionBase",
          "name": "conditionBase",
          "type": "tuple"
        }
      ],
      "stateMutability": "view",
      "type": "function"
    },
    {
      "inputs": [
        {
          "internalType": "uint256",
          "name": "_index",
          "type": "uint256"
        }
      ],
      "name": "confirmPayouts",
      "outputs": [],
      "stateMutability": "nonpayable",
      "type": "function"
    },
    {
      "inputs": [
        {
          "components": [
            {
              "internalType": "contract Solver",
              "name": "implementation",
              "type": "address"
            },
            {
              "internalType": "address",
              "name": "keeper",
              "type": "address"
            },
            {
              "internalType": "address",
              "name": "arbitrator",
              "type": "address"
            },
            {
              "internalType": "uint256",
              "name": "timelockSeconds",
              "type": "uint256"
            },
            {
              "components": [
                {
                  "internalType": "contract IModule",
                  "name": "module",
                  "type": "address"
                },
                {
                  "internalType": "bytes",
                  "name": "data",
                  "type": "bytes"
                }
              ],
              "internalType": "struct Modulated.Loader[]",
              "name": "moduleLoaders",
              "type": "tuple[]"
            },
            {
              "components": [
                {
                  "internalType": "uint256",
                  "name": "executions",
                  "type": "uint256"
                },
                {
                  "internalType": "enum SolverLib.IngestType",
                  "name": "ingestType",
                  "type": "uint8"
                },
                {
                  "internalType": "bytes32",
                  "name": "slot",
                  "type": "bytes32"
                },
                {
                  "internalType": "uint256",
                  "name": "solverIndex",
                  "type": "uint256"
                },
                {
                  "internalType": "bytes",
                  "name": "data",
                  "type": "bytes"
                }
              ],
              "internalType": "struct SolverLib.Ingest[]",
              "name": "ingests",
              "type": "tuple[]"
            },
            {
              "components": [
                {
                  "internalType": "contract IERC20",
                  "name": "collateralToken",
                  "type": "address"
                },
                {
                  "internalType": "uint256",
                  "name": "outcomeSlots",
                  "type": "uint256"
                },
                {
                  "internalType": "uint256",
                  "name": "parentCollectionIndexSet",
                  "type": "uint256"
                },
                {
                  "internalType": "bytes32",
                  "name": "amountSlot",
                  "type": "bytes32"
                },
                {
                  "internalType": "uint256[]",
                  "name": "partition",
                  "type": "uint256[]"
                },
                {
                  "components": [
                    {
                      "internalType": "bytes32",
                      "name": "recipientAddressSlot",
                      "type": "bytes32"
                    },
                    {
                      "internalType": "bytes32[]",
                      "name": "recipientAmountSlots",
                      "type": "bytes32[]"
                    }
                  ],
                  "internalType": "struct SolverLib.Allocation[]",
                  "name": "allocations",
                  "type": "tuple[]"
                },
                {
                  "internalType": "string[]",
                  "name": "outcomeURIs",
                  "type": "string[]"
                }
              ],
              "internalType": "struct SolverLib.ConditionBase",
              "name": "conditionBase",
              "type": "tuple"
            }
          ],
          "internalType": "struct SolverLib.Config",
          "name": "_config",
          "type": "tuple"
        }
      ],
      "name": "deployChild",
      "outputs": [
        {
          "internalType": "address",
          "name": "",
          "type": "address"
        }
      ],
      "stateMutability": "nonpayable",
      "type": "function"
    },
    {
      "inputs": [
        {
          "internalType": "uint256",
          "name": "_index",
          "type": "uint256"
        }
      ],
      "name": "executeSolve",
      "outputs": [],
      "stateMutability": "nonpayable",
      "type": "function"
    },
    {
      "inputs": [],
      "name": "fetchPermits",
      "outputs": [
        {
          "internalType": "bytes4[]",
          "name": "",
          "type": "bytes4[]"
        }
      ],
      "stateMutability": "view",
      "type": "function"
    },
    {
      "inputs": [
        {
          "internalType": "bytes32",
          "name": "_slot",
          "type": "bytes32"
        }
      ],
      "name": "getAllData",
      "outputs": [
        {
          "internalType": "bytes[]",
          "name": "data",
          "type": "bytes[]"
        }
      ],
      "stateMutability": "view",
      "type": "function"
    },
    {
      "inputs": [
        {
          "internalType": "bytes32",
          "name": "_slot",
          "type": "bytes32"
        }
      ],
      "name": "getCallbackOutput",
      "outputs": [
        {
          "internalType": "bytes",
          "name": "data",
          "type": "bytes"
        }
      ],
      "stateMutability": "view",
      "type": "function"
    },
    {
      "inputs": [],
      "name": "getConditions",
      "outputs": [
        {
          "components": [
            {
              "internalType": "contract IERC20",
              "name": "collateralToken",
              "type": "address"
            },
            {
              "internalType": "bytes32",
              "name": "questionId",
              "type": "bytes32"
            },
            {
              "internalType": "bytes32",
              "name": "parentCollectionId",
              "type": "bytes32"
            },
            {
              "internalType": "bytes32",
              "name": "conditionId",
              "type": "bytes32"
            },
            {
              "internalType": "uint256[]",
              "name": "payouts",
              "type": "uint256[]"
            },
            {
              "internalType": "enum SolverLib.Status",
              "name": "status",
              "type": "uint8"
            }
          ],
          "internalType": "struct SolverLib.Condition[]",
          "name": "",
          "type": "tuple[]"
        }
      ],
      "stateMutability": "view",
      "type": "function"
    },
    {
      "inputs": [],
      "name": "getConfig",
      "outputs": [
        {
          "components": [
            {
              "internalType": "contract Solver",
              "name": "implementation",
              "type": "address"
            },
            {
              "internalType": "address",
              "name": "keeper",
              "type": "address"
            },
            {
              "internalType": "address",
              "name": "arbitrator",
              "type": "address"
            },
            {
              "internalType": "uint256",
              "name": "timelockSeconds",
              "type": "uint256"
            },
            {
              "components": [
                {
                  "internalType": "contract IModule",
                  "name": "module",
                  "type": "address"
                },
                {
                  "internalType": "bytes",
                  "name": "data",
                  "type": "bytes"
                }
              ],
              "internalType": "struct Modulated.Loader[]",
              "name": "moduleLoaders",
              "type": "tuple[]"
            },
            {
              "components": [
                {
                  "internalType": "uint256",
                  "name": "executions",
                  "type": "uint256"
                },
                {
                  "internalType": "enum SolverLib.IngestType",
                  "name": "ingestType",
                  "type": "uint8"
                },
                {
                  "internalType": "bytes32",
                  "name": "slot",
                  "type": "bytes32"
                },
                {
                  "internalType": "uint256",
                  "name": "solverIndex",
                  "type": "uint256"
                },
                {
                  "internalType": "bytes",
                  "name": "data",
                  "type": "bytes"
                }
              ],
              "internalType": "struct SolverLib.Ingest[]",
              "name": "ingests",
              "type": "tuple[]"
            },
            {
              "components": [
                {
                  "internalType": "contract IERC20",
                  "name": "collateralToken",
                  "type": "address"
                },
                {
                  "internalType": "uint256",
                  "name": "outcomeSlots",
                  "type": "uint256"
                },
                {
                  "internalType": "uint256",
                  "name": "parentCollectionIndexSet",
                  "type": "uint256"
                },
                {
                  "internalType": "bytes32",
                  "name": "amountSlot",
                  "type": "bytes32"
                },
                {
                  "internalType": "uint256[]",
                  "name": "partition",
                  "type": "uint256[]"
                },
                {
                  "components": [
                    {
                      "internalType": "bytes32",
                      "name": "recipientAddressSlot",
                      "type": "bytes32"
                    },
                    {
                      "internalType": "bytes32[]",
                      "name": "recipientAmountSlots",
                      "type": "bytes32[]"
                    }
                  ],
                  "internalType": "struct SolverLib.Allocation[]",
                  "name": "allocations",
                  "type": "tuple[]"
                },
                {
                  "internalType": "string[]",
                  "name": "outcomeURIs",
                  "type": "string[]"
                }
              ],
              "internalType": "struct SolverLib.ConditionBase",
              "name": "conditionBase",
              "type": "tuple"
            }
          ],
          "internalType": "struct SolverLib.Config",
          "name": "",
          "type": "tuple"
        }
      ],
      "stateMutability": "view",
      "type": "function"
    },
    {
      "inputs": [
        {
          "internalType": "bytes32",
          "name": "_slot",
          "type": "bytes32"
        }
      ],
      "name": "getData",
      "outputs": [
        {
          "internalType": "bytes",
          "name": "data",
          "type": "bytes"
        }
      ],
      "stateMutability": "view",
      "type": "function"
    },
    {
      "inputs": [
        {
          "internalType": "bytes32",
          "name": "key",
          "type": "bytes32"
        }
      ],
      "name": "getState",
      "outputs": [
        {
          "internalType": "bytes",
          "name": "data",
          "type": "bytes"
        }
      ],
      "stateMutability": "view",
      "type": "function"
    },
    {
      "inputs": [
        {
          "internalType": "uint256",
          "name": "conditionIndex",
          "type": "uint256"
        }
      ],
      "name": "getStatus",
      "outputs": [
        {
          "internalType": "enum SolverLib.Status",
          "name": "status",
          "type": "uint8"
        }
      ],
      "stateMutability": "view",
      "type": "function"
    },
    {
      "inputs": [
        {
          "internalType": "bytes32",
          "name": "_slot",
          "type": "bytes32"
        }
      ],
      "name": "handleCallback",
      "outputs": [],
      "stateMutability": "nonpayable",
      "type": "function"
    },
    {
      "inputs": [],
      "name": "ingestsValid",
      "outputs": [
        {
          "internalType": "bool",
          "name": "",
          "type": "bool"
        }
      ],
      "stateMutability": "view",
      "type": "function"
    },
    {
      "inputs": [
        {
          "internalType": "address",
          "name": "_deployer",
          "type": "address"
        },
        {
          "internalType": "address",
          "name": "_ctfAddress",
          "type": "address"
        },
        {
          "internalType": "address",
          "name": "_chainParent",
          "type": "address"
        },
        {
          "internalType": "uint256",
          "name": "_chainIndex",
          "type": "uint256"
        },
        {
          "components": [
            {
              "internalType": "contract Solver",
              "name": "implementation",
              "type": "address"
            },
            {
              "internalType": "address",
              "name": "keeper",
              "type": "address"
            },
            {
              "internalType": "address",
              "name": "arbitrator",
              "type": "address"
            },
            {
              "internalType": "uint256",
              "name": "timelockSeconds",
              "type": "uint256"
            },
            {
              "components": [
                {
                  "internalType": "contract IModule",
                  "name": "module",
                  "type": "address"
                },
                {
                  "internalType": "bytes",
                  "name": "data",
                  "type": "bytes"
                }
              ],
              "internalType": "struct Modulated.Loader[]",
              "name": "moduleLoaders",
              "type": "tuple[]"
            },
            {
              "components": [
                {
                  "internalType": "uint256",
                  "name": "executions",
                  "type": "uint256"
                },
                {
                  "internalType": "enum SolverLib.IngestType",
                  "name": "ingestType",
                  "type": "uint8"
                },
                {
                  "internalType": "bytes32",
                  "name": "slot",
                  "type": "bytes32"
                },
                {
                  "internalType": "uint256",
                  "name": "solverIndex",
                  "type": "uint256"
                },
                {
                  "internalType": "bytes",
                  "name": "data",
                  "type": "bytes"
                }
              ],
              "internalType": "struct SolverLib.Ingest[]",
              "name": "ingests",
              "type": "tuple[]"
            },
            {
              "components": [
                {
                  "internalType": "contract IERC20",
                  "name": "collateralToken",
                  "type": "address"
                },
                {
                  "internalType": "uint256",
                  "name": "outcomeSlots",
                  "type": "uint256"
                },
                {
                  "internalType": "uint256",
                  "name": "parentCollectionIndexSet",
                  "type": "uint256"
                },
                {
                  "internalType": "bytes32",
                  "name": "amountSlot",
                  "type": "bytes32"
                },
                {
                  "internalType": "uint256[]",
                  "name": "partition",
                  "type": "uint256[]"
                },
                {
                  "components": [
                    {
                      "internalType": "bytes32",
                      "name": "recipientAddressSlot",
                      "type": "bytes32"
                    },
                    {
                      "internalType": "bytes32[]",
                      "name": "recipientAmountSlots",
                      "type": "bytes32[]"
                    }
                  ],
                  "internalType": "struct SolverLib.Allocation[]",
                  "name": "allocations",
                  "type": "tuple[]"
                },
                {
                  "internalType": "string[]",
                  "name": "outcomeURIs",
                  "type": "string[]"
                }
              ],
              "internalType": "struct SolverLib.ConditionBase",
              "name": "conditionBase",
              "type": "tuple"
            }
          ],
          "internalType": "struct SolverLib.Config",
          "name": "_solverConfig",
          "type": "tuple"
        }
      ],
      "name": "init",
      "outputs": [],
      "stateMutability": "nonpayable",
      "type": "function"
    },
    {
      "inputs": [
        {
          "internalType": "bytes4",
          "name": "selector",
          "type": "bytes4"
        }
      ],
      "name": "isPermitted",
      "outputs": [
        {
          "internalType": "bool",
          "name": "",
          "type": "bool"
        }
      ],
      "stateMutability": "view",
      "type": "function"
    },
    {
      "inputs": [
        {
          "internalType": "bytes4",
          "name": "selector",
          "type": "bytes4"
        }
      ],
      "name": "isPermittedModule",
      "outputs": [
        {
          "internalType": "bool",
          "name": "",
          "type": "bool"
        }
      ],
      "stateMutability": "view",
      "type": "function"
    },
    {
      "inputs": [
        {
          "internalType": "address",
          "name": "account",
          "type": "address"
        },
        {
          "internalType": "uint256",
          "name": "conditionIndex",
          "type": "uint256"
        }
      ],
      "name": "isRecipient",
      "outputs": [
        {
          "internalType": "bool",
          "name": "",
          "type": "bool"
        }
      ],
      "stateMutability": "view",
      "type": "function"
    },
    {
      "inputs": [],
      "name": "keeper",
      "outputs": [
        {
          "internalType": "address",
          "name": "",
          "type": "address"
        }
      ],
      "stateMutability": "view",
      "type": "function"
    },
    {
      "inputs": [
        {
          "internalType": "bytes",
          "name": "data",
          "type": "bytes"
        }
      ],
      "name": "load",
      "outputs": [],
      "stateMutability": "nonpayable",
      "type": "function"
    },
    {
      "inputs": [
        {
          "internalType": "address",
          "name": "operator",
          "type": "address"
        },
        {
          "internalType": "address",
          "name": "from",
          "type": "address"
        },
        {
          "internalType": "uint256[]",
          "name": "ids",
          "type": "uint256[]"
        },
        {
          "internalType": "uint256[]",
          "name": "values",
          "type": "uint256[]"
        },
        {
          "internalType": "bytes",
          "name": "data",
          "type": "bytes"
        }
      ],
      "name": "onERC1155BatchReceived",
      "outputs": [
        {
          "internalType": "bytes4",
          "name": "",
          "type": "bytes4"
        }
      ],
      "stateMutability": "nonpayable",
      "type": "function"
    },
    {
      "inputs": [
        {
          "internalType": "address",
          "name": "operator",
          "type": "address"
        },
        {
          "internalType": "address",
          "name": "from",
          "type": "address"
        },
        {
          "internalType": "uint256",
          "name": "id",
          "type": "uint256"
        },
        {
          "internalType": "uint256",
          "name": "value",
          "type": "uint256"
        },
        {
          "internalType": "bytes",
          "name": "data",
          "type": "bytes"
        }
      ],
      "name": "onERC1155Received",
      "outputs": [
        {
          "internalType": "bytes4",
          "name": "",
          "type": "bytes4"
        }
      ],
      "stateMutability": "nonpayable",
      "type": "function"
    },
    {
      "inputs": [
        {
          "internalType": "uint256",
          "name": "_index",
          "type": "uint256"
        }
      ],
      "name": "prepareSolve",
      "outputs": [],
      "stateMutability": "nonpayable",
      "type": "function"
    },
    {
      "inputs": [
        {
          "internalType": "uint256",
          "name": "_index",
          "type": "uint256"
        },
        {
          "internalType": "uint256[]",
          "name": "_payouts",
          "type": "uint256[]"
        }
      ],
      "name": "proposePayouts",
      "outputs": [],
      "stateMutability": "nonpayable",
      "type": "function"
    },
    {
      "inputs": [
        {
          "internalType": "contract IERC20",
          "name": "_collateralToken",
          "type": "address"
        },
        {
          "internalType": "bytes32",
          "name": "_parentCollectionId",
          "type": "bytes32"
        },
        {
          "internalType": "bytes32",
          "name": "_conditionId",
          "type": "bytes32"
        },
        {
          "internalType": "uint256[]",
          "name": "_indexSets",
          "type": "uint256[]"
        }
      ],
      "name": "redeemPosition",
      "outputs": [],
      "stateMutability": "nonpayable",
      "type": "function"
    },
    {
      "inputs": [
        {
          "internalType": "bytes32",
          "name": "_slot",
          "type": "bytes32"
        },
        {
          "internalType": "uint256",
          "name": "_chainIndex",
          "type": "uint256"
        }
      ],
      "name": "registerOutgoingCallback",
      "outputs": [],
      "stateMutability": "nonpayable",
      "type": "function"
    },
    {
      "inputs": [
        {
          "internalType": "uint256",
          "name": "_index",
          "type": "uint256"
        }
      ],
      "name": "requestArbitration",
      "outputs": [],
      "stateMutability": "nonpayable",
      "type": "function"
    },
    {
      "inputs": [
        {
          "internalType": "bytes32",
          "name": "key",
          "type": "bytes32"
        },
        {
          "internalType": "bytes",
          "name": "data",
          "type": "bytes"
        }
      ],
      "name": "setState",
      "outputs": [],
      "stateMutability": "nonpayable",
      "type": "function"
    },
    {
      "inputs": [
        {
          "internalType": "uint256",
          "name": "_index",
          "type": "uint256"
        },
        {
          "internalType": "uint256",
          "name": "_date",
          "type": "uint256"
        }
      ],
      "name": "setTimelock",
      "outputs": [],
      "stateMutability": "nonpayable",
      "type": "function"
    },
    {
      "inputs": [
        {
          "internalType": "bytes32",
          "name": "_trackingId",
          "type": "bytes32"
        }
      ],
      "name": "setTrackingId",
      "outputs": [],
      "stateMutability": "nonpayable",
      "type": "function"
    },
    {
      "inputs": [
        {
          "internalType": "string",
          "name": "cid",
          "type": "string"
        },
        {
          "internalType": "bytes32",
          "name": "conditionId",
          "type": "bytes32"
        }
      ],
      "name": "submitWork",
      "outputs": [],
      "stateMutability": "nonpayable",
      "type": "function"
    },
    {
      "inputs": [
        {
          "internalType": "bytes4",
          "name": "interfaceId",
          "type": "bytes4"
        }
      ],
      "name": "supportsInterface",
      "outputs": [
        {
          "internalType": "bool",
          "name": "",
          "type": "bool"
        }
      ],
      "stateMutability": "view",
      "type": "function"
    },
    {
      "inputs": [
        {
          "internalType": "uint256",
          "name": "",
          "type": "uint256"
        }
      ],
      "name": "timelocks",
      "outputs": [
        {
          "internalType": "uint256",
          "name": "",
          "type": "uint256"
        }
      ],
      "stateMutability": "view",
      "type": "function"
    },
    {
      "inputs": [],
      "name": "trackingId",
      "outputs": [
        {
          "internalType": "bytes32",
          "name": "",
          "type": "bytes32"
        }
      ],
      "stateMutability": "view",
      "type": "function"
    },
    {
      "inputs": [],
      "name": "writer",
      "outputs": [
        {
          "internalType": "address",
          "name": "",
          "type": "address"
        }
      ],
      "stateMutability": "view",
      "type": "function"
    }
  ],
  "transactionHash": "0x5daf0b7964cfe895d94ba08fd721f5725666df681e0939edd3895f4d364661d9",
  "args": [],
  "solcInputHash": "400b7e055348f14f5e3dd2cd0dbabc68",
  "bytecode": "0x3060c0908152602060a081905260e060405290206080523480156200002357600080fd5b506200002e62000090565b601f80546001810182556000919091527fa03837a25210ee280c2113ff4b77ca23440b19d4866cca721c801278fd08d8076008820401805463ffffffff60079093166004026101000a92830219166381296f6f909202919091179055620001ab565b6200009c60ff6200009f565b50565b600354600090610100900460ff16156200010a578160ff166001148015620000da5750620000d8306200014e60201b62002f8b1760201c565b155b620001025760405162461bcd60e51b8152600401620000f9906200015d565b60405180910390fd5b506000919050565b60035460ff808416911610620001345760405162461bcd60e51b8152600401620000f9906200015d565b506003805460ff191660ff92909216919091179055600190565b6001600160a01b03163b151590565b6020808252602e908201527f496e697469616c697a61626c653a20636f6e747261637420697320616c72656160408201526d191e481a5b9a5d1a585b1a5e995960921b606082015260800190565b608051615e26620001c460003960005050615e266000f3fe608060405234801561001057600080fd5b50600436106102255760003560e01c806301ffc9a71461022a57806309648a9d146102525780630d06101a146102725780630d7e149f146102875780630d8d3975146102a857806318782559146102bb5780632248fd9e146102ce57806326c50007146102e157806331402a57146103055780633837b05e146103185780633cef64cc146103385780633f4fb5aa1461034b57806344c3b6071461035e578063453a2abc1461037157806348cbb2fc146103795780634a77234e146103825780634e46f22314610395578063506da0b8146103a857806354f6127f146103bb57806355dd978b146103ce5780635c622a0e146103e15780636463845b146104015780636cc6cde11461041457806379502c55146104255780637c1236271461043e57806380b204b71461045357806380c2dde21461046657806381296f6f146104795780638602ce1b1461048c57806387dfee571461049f57806399992506146104b2578063a272ebcf146104ba578063aced1661146104cd578063b992db0f146104de578063bc197c81146104f1578063c05bc73114610520578063c08d6f0114610533578063c3f909d414610553578063c8abf6da14610568578063c98c05b71461057b578063d6860d5514610583578063de3a23c514610596578063df33cc51146105a9578063e1979ef4146105bc578063ea8221a9146105d1578063f23a6e61146105da578063f24fc903146105ed575b600080fd5b61023d610238366004613b08565b61060d565b60405190151581526020015b60405180910390f35b610265610260366004613b32565b61062d565b6040516102499190613ba7565b610285610280366004613b32565b6106cf565b005b61029a610295366004613b32565b610731565b604051908152602001610249565b6102856102b6366004613b32565b610752565b6102856102c9366004613c1a565b6108a4565b61023d6102dc366004613b08565b610953565b6102f46102ef366004613b32565b6109d5565b604051610249959493929190613cba565b610285610313366004613b32565b610a23565b61032b610326366004613b32565b610bb8565b6040516102499190613cec565b610285610346366004613d41565b610cc9565b610265610359366004613b32565b610d17565b61023d61036c366004613b32565b610dae565b61032b610e33565b61029a60185481565b610285610390366004613b32565b610e58565b6102856103a3366004613b32565b61118e565b61023d6103b6366004613d8d565b611255565b6102656103c9366004613b32565b61139a565b60155461032b906001600160a01b031681565b6103f46103ef366004613b32565b6113ba565b6040516102499190613db9565b61032b61040f366004613ddf565b6113ec565b6008546001600160a01b031661032b565b61042d61154a565b604051610249959493929190613fb0565b610446611791565b6040516102499190614057565b6102856104613660046140b9565b6118a4565b60145461032b906001600160a01b031681565b610285610487366004614199565b611a17565b61028561049a366004614199565b611a62565b6102856104ad366004614245565b611b5a565b61023d611cf2565b61023d6104c8366004613b08565b611d72565b6007546001600160a01b031661032b565b6102856104ec366004613b32565b611e00565b6105136104ff3660046142e1565b63bc197c8160e01b98975050505050505050565b604051610249919061439f565b61028561052e3660046143b4565b612014565b610546610541366004613b32565b61212e565b60405161024991906143ff565b61055b612213565b604051610249919061455a565b6102856105763660046145f9565b6126d9565b61029a612733565b61028561059136600461461b565b6127a5565b6102856105a4366004613b32565b612965565b6102856105b73660046145f9565b612c8f565b6105c4612dd6565b6040516102499190614699565b61029a60165481565b6105136105e83660046146e7565b612e5b565b6106006105fb366004613b32565b612e6e565b6040516102499190614762565b600061061882612f9a565b80610627575061062782612fd0565b92915050565b600081815260026020526040902080546060919061064a90614775565b80601f016020809104026020016040519081016040528092919081815260200182805461067690614775565b80156106c35780601f10610698576101008083540402835291602001916106c3565b820191906000526020600020905b8154815290600101906020018083116106a657829003601f168201915b50505050509050919050565b601854156107155760405162461bcd60e51b815260206004820152600e60248201526d151c9858dada5b99d259081cd95d60921b60448201526064015b60405180910390fd5b6005546001600160a01b0316331461072c57600080fd5b601855565b6017818154811061074157600080fd5b600091825260209091200154905081565b60178181548110610765576107656147a9565b9060005260206000200154421161078e5760405162461bcd60e51b815260040161070c906147bf565b6002601382815481106107a3576107a36147a9565b60009182526020909120600560069092020181015460ff16908111156107cb576107cb613c90565b146108075760405162461bcd60e51b815260206004820152600c60248201526b139bdd081c1c9bdc1bdcd95960a21b604482015260640161070c565b6004546013805473a6DB7857aa93A71a57BdbFc8b82717F647b48C53926385c92867926001600160a01b039091169185908110610846576108466147a9565b90600052602060002090600602016040518363ffffffff1660e01b81526004016108719291906147e3565b60006040518083038186803b15801561088957600080fd5b505af415801561089d573d6000803e3d6000fd5b5050505050565b6007546001600160a01b03163314806108c857506108c8631878255960e01b611d72565b6108e45760405162461bcd60e51b815260040161070c906147fc565b60048054604051626dc0df60e21b81526001600160a01b03909116916301b7037c9161091a918991899189918991899101614857565b600060405180830381600087803b15801561093457600080fd5b505af1158015610948573d6000803e3d6000fd5b505050505050505050565b6000805b601f548110156109cc57826001600160e01b031916601f828154811061097f5761097f6147a9565b90600052602060002090600891828204019190066004029054906101000a900460e01b6001600160e01b031916036109ba5750600192915050565b806109c48161489b565b915050610957565b50600092915050565b601381815481106109e557600080fd5b6000918252602090912060069091020180546001820154600283015460038401546005909401546001600160a01b0390931694509092909160ff1685565b6008546001600160a01b0316331480610a475750610a476331402a5760e01b611d72565b610a635760405162461bcd60e51b815260040161070c906148b4565b600260138281548110610a7857610a786147a9565b60009182526020909120600560069092020181015460ff1690811115610aa057610aa0613c90565b1480610ae65750600360138281548110610abc57610abc6147a9565b60009182526020909120600560069092020181015460ff1690811115610ae457610ae4613c90565b145b610b235760405162461bcd60e51b815260206004820152600e60248201526d10d85b9b9bdd081c995c5d595cdd60921b604482015260640161070c565b73a6DB7857aa93A71a57BdbFc8b82717F647b48C53633bdce6e660138381548110610b5057610b506147a9565b90600052602060002090600602016040518263ffffffff1660e01b8152600401610b7c91815260200190565b60006040518083038186803b158015610b9457600080fd5b505af4158015610ba8573d6000803e3d6000fd5b50505050610bb581613005565b50565b60006016548203610bca575030919050565b601654821015610c59576014546001600160a01b0316610bec57506000919050565b601454604051631c1bd82f60e11b8152600481018490526001600160a01b0390911690633837b05e90602401602060405180830381865afa158015610c35573d6000803e3d6000fd5b505050506040513d601f19601f8201168201806040525081019061062791906148dd565b601654821115610cc4576015546001600160a01b0316610c7b57506000919050565b601554604051631c1bd82f60e11b8152600481018490526001600160a01b0390911690633837b05e90602401602060405180830381865afa158015610c35573d6000803e3d6000fd5b919050565b333014610d045760405162461bcd60e51b81526020600482015260096024820152684f6e6c79207468697360b81b604482015260640161070c565b610d1081830183613b32565b6020555050565b6013546000828152601d602052604090205460609114610d6d5760405162461bcd60e51b815260206004820152601160248201527029b637ba1034b73b30b634b2103b32b91760791b604482015260640161070c565b6000828152601d602052604090208054610d89906001906148fa565b81548110610d9957610d996147a9565b90600052602060002001805461064a90614775565b6040516336d39c6160e11b815260048101829052601d6024820152600c604482015260009073a6DB7857aa93A71a57BdbFc8b82717F647b48C5390636da738c290606401602060405180830381865af4158015610e0f573d6000803e3d6000fd5b505050506040513d601f19601f820116820180604052508101906106279190614911565b6000610e4060205461139a565b806020019051810190610e5391906148dd565b905090565b60135415610eb5576007546001600160a01b0316331480610e8357506014546001600160a01b031633145b80610e995750610e9963253b91a760e11b611d72565b610eb55760405162461bcd60e51b815260040161070c90614933565b6013548114610ef65760405162461bcd60e51b815260206004820152600d60248201526c092dcecc2d8d2c840d2dcc8caf609b1b604482015260640161070c565b601a5415610f355760405162461bcd60e51b815260206004820152600c60248201526b6f7574676f696e672063627360a01b604482015260640161070c565b60195415610f745760405162461bcd60e51b815260206004820152600c60248201526b696e636f6d696e672063627360a01b604482015260640161070c565b600480546014546013805460405163699e0add60e01b8152919473a6DB7857aa93A71a57BdbFc8b82717F647b48C539463699e0add94610fc8946001600160a01b0392831694600c94939092169201614afa565b600060405180830381865af4158015610fe5573d6000803e3d6000fd5b505050506040513d6000823e601f3d908101601f1916820160405261100d9190810190614bbb565b8154600180820184556000938452602093849020835160069093020180546001600160a01b0319166001600160a01b0390931692909217825582840151908201556040820151600282015560608201516003820155608082015180519293919261107d9260048501920190613994565b5060a08201518160050160006101000a81548160ff021916908360058111156110a8576110a8613c90565b0217905550506017805460018101825560009182527fc624b66cc0138b8fabc209247f72d758e1cf3343756d543badbf24212bed8c150155506110e961303f565b7f152ec8ae15d347b2d2a8f0858caa29bcaaa0906749a1f43e08bfe79983460240308260405161111a9291906147e3565b60405180910390a16015546001600160a01b031615610bb55760155460405163253b91a760e11b8152600481018390526001600160a01b0390911690634a77234e906024015b600060405180830381600087803b15801561117a57600080fd5b505af115801561089d573d6000803e3d6000fd5b6008546001600160a01b03163314806111b257506111b2634e46f22360e01b611d72565b6111ce5760405162461bcd60e51b815260040161070c906148b4565b6003601382815481106111e3576111e36147a9565b60009182526020909120600560069092020181015460ff169081111561120b5761120b613c90565b146112285760405162461bcd60e51b815260040161070c90614cbf565b73a6DB7857aa93A71a57BdbFc8b82717F647b48C536359111fb560138381548110610b5057610b506147a9565b6000805b6011548110156113905760118054600091601d9183919085908110611280576112806147a9565b906000526020600020906002020160000154815260200190815260200160002084815481106112b1576112b16147a9565b9060005260206000200180546112c690614775565b80601f01602080910402602001604051908101604052809291908181526020018280546112f290614775565b801561133f5780601f106113145761010080835404028352916020019161133f565b820191906000526020600020905b81548152906001019060200180831161132257829003601f168201915b505050505080602001905181019061135791906148dd565b9050806001600160a01b0316856001600160a01b03160361137d57600192505050610627565b50806113888161489b565b915050611259565b5060009392505050565b6000818152601d60205260409020805460609190610d89906001906148fa565b6000601382815481106113cf576113cf6147a9565b600091825260209091206005600690920201015460ff1692915050565b6007546000906001600160a01b03163314806114135750611413636463845b60e01b611d72565b61144d5760405162461bcd60e51b815260206004820152600b60248201526a27b7363c9035b2b2b832b960a91b604482015260640161070c565b6015546001600160a01b0316156114925760405162461bcd60e51b815260206004820152600960248201526812185cc818da1a5b1960ba1b604482015260640161070c565b6003546016546018546040516386a2d22760e01b815273a6DB7857aa93A71a57BdbFc8b82717F647b48C53936386a2d227936114e493620100009092046001600160a01b03169288929060040161506a565b602060405180830381865af4158015611501573d6000803e3d6000fd5b505050506040513d601f19601f8201168201806040525081019061152591906148dd565b601580546001600160a01b0319166001600160a01b0392909216918217905592915050565b600680546007546008546009546040805160e081018252600c80546001600160a01b039081168352600d54602080850191909152600e5484860152600f546060850152601080548651818402810184019097528087529983169a988316999790921697959693949293608086019392918301828280156115e957602002820191906000526020600020905b8154815260200190600101908083116115d5575b5050505050815260200160058201805480602002602001604051908101604052809291908181526020016000905b828210156116ab5783829060005260206000209060020201604051806040016040529081600082015481526020016001820180548060200260200160405190810160405280929190818152602001828054801561169357602002820191906000526020600020905b81548152602001906001019080831161167f575b50505050508152505081526020019060010190611617565b50505050815260200160068201805480602002602001604051908101604052809291908181526020016000905b828210156117845783829060005260206000200180546116f790614775565b80601f016020809104026020016040519081016040528092919081815260200182805461172390614775565b80156117705780601f1061174557610100808354040283529160200191611770565b820191906000526020600020905b81548152906001019060200180831161175357829003601f168201915b5050505050815260200190600101906116d8565b5050505081525050905085565b60606013805480602002602001604051908101604052809291908181526020016000905b8282101561189b5760008481526020908190206040805160c0810182526006860290920180546001600160a01b03168352600181015483850152600281015483830152600381015460608401526004810180548351818702810187019094528084529394919360808601939283018282801561185057602002820191906000526020600020905b81548152602001906001019080831161183c575b505050918352505060058281015460209092019160ff169081111561187757611877613c90565b600581111561188857611888613c90565b81525050815260200190600101906117b5565b50505050905090565b6007546001600160a01b03163314806118c857506118c86380b204b760e01b611d72565b6118e45760405162461bcd60e51b815260040161070c906147fc565b600d5481146119055760405162461bcd60e51b815260040161070c9061515a565b60016013848154811061191a5761191a6147a9565b60009182526020909120600560069092020181015460ff169081111561194257611942613c90565b1461197e5760405162461bcd60e51b815260206004820152600c60248201526b139bdd08115e1958dd5d195960a21b604482015260640161070c565b73a6DB7857aa93A71a57BdbFc8b82717F647b48C53636a0a24f1601385815481106119ab576119ab6147a9565b906000526020600020906006020184846040518463ffffffff1660e01b81526004016119d993929190615191565b60006040518083038186803b1580156119f157600080fd5b505af4158015611a05573d6000803e3d6000fd5b50505050611a1283613005565b505050565b611a276381296f6f60e01b611d72565b611a435760405162461bcd60e51b815260040161070c90614933565b60008281526002602090815260409091208251611a12928401906139df565b6007546001600160a01b0316331480611a865750611a86638602ce1b60e01b611d72565b611aa25760405162461bcd60e51b815260040161070c906147fc565b6000828152601e6020526040902054600b8054600392908110611ac757611ac76147a9565b600091825260209091206001600590920201015460ff166003811115611aef57611aef613c90565b14611b355760405162461bcd60e51b81526020600482015260166024820152751bdb9b1e48125b99d95cdd151e5c194b93585b9d585b60521b604482015260640161070c565b611b3f82826132bd565b604051600080516020615dd183398151915290600090a15050565b6008546001600160a01b0316331480611b7e5750611b7e6387dfee5760e01b611d72565b611b9a5760405162461bcd60e51b815260040161070c906148b4565b600360138381548110611baf57611baf6147a9565b60009182526020909120600560069092020181015460ff1690811115611bd757611bd7613c90565b14611bf45760405162461bcd60e51b815260040161070c90614cbf565b60178281548110611c0757611c076147a9565b90600052602060002001544211611c305760405162461bcd60e51b815260040161070c906147bf565b600d54815114611c525760405162461bcd60e51b815260040161070c9061515a565b6004546013805473a6DB7857aa93A71a57BdbFc8b82717F647b48C5392631b948e49926001600160a01b039091169186908110611c9157611c916147a9565b9060005260206000209060060201846040518463ffffffff1660e01b8152600401611cbe939291906151ab565b60006040518083038186803b158015611cd657600080fd5b505af4158015611cea573d6000803e3d6000fd5b505050505050565b601354604051635cc1f6b560e01b815260009173a6DB7857aa93A71a57BdbFc8b82717F647b48C5391635cc1f6b591611d3191600b9190600401615208565b602060405180830381865af4158015611d4e573d6000803e3d6000fd5b505050506040513d601f19601f82011682018060405250810190610e539190614911565b3360009081526001602052604081205460ff1615611df8576040516311247ecf60e11b81526000903390632248fd9e90611db090869060040161439f565b602060405180830381865afa158015611dcd573d6000803e3d6000fd5b505050506040513d601f19601f82011682018060405250810190611df19190614911565b9392505050565b506000919050565b611e08611cf2565b1515600114611e4b5760405162461bcd60e51b815260206004820152600f60248201526e1a5b99d95cdd1cc81a5b9d985b1a59608a1b604482015260640161070c565b73a6DB7857aa93A71a57BdbFc8b82717F647b48C53632dd4082482600460009054906101000a90046001600160a01b031660138581548110611e8f57611e8f6147a9565b60009182526020808320601854601454600f548652601d9384905260409095208054600690950290920194600c9491926001600160a01b03909116918b908110611edb57611edb6147a9565b906000526020600020018054611ef090614775565b80601f0160208091040260200160405190810160405280929190818152602001828054611f1c90614775565b8015611f695780601f10611f3e57610100808354040283529160200191611f69565b820191906000526020600020905b815481529060010190602001808311611f4c57829003601f168201915b5050505050806020019051810190611f8191906152b3565b60405160e08a901b6001600160e01b031916815260048101989098526001600160a01b03968716602489015260448801959095526064870193909352608486019190915260a485015290911660c483015260e48201526101040160006040518083038186803b158015611ff357600080fd5b505af4158015612007573d6000803e3d6000fd5b50505050610bb58161335b565b61201c610e33565b6001600160a01b0316336001600160a01b03161461206a5760405162461bcd60e51b815260206004820152600b60248201526a27b7363c902bb934ba32b960a91b604482015260640161070c565b60016013805461207c906001906148fa565b8154811061208c5761208c6147a9565b60009182526020909120600560069092020181015460ff16908111156120b4576120b4613c90565b146120ec5760405162461bcd60e51b8152602060048201526008602482015267111a5cd8589b195960c21b604482015260640161070c565b7f7399fd48fdfaf111111c20e282a8837c6803b6631b3b7b5e30b3b97d682d21b68383338460405161212194939291906152cc565b60405180910390a1505050565b6000818152601d60209081526040808320805482518185028101850190935280835260609492939192909184015b8282101561220857838290600052602060002001805461217b90614775565b80601f01602080910402602001604051908101604052809291908181526020018280546121a790614775565b80156121f45780601f106121c9576101008083540402835291602001916121f4565b820191906000526020600020905b8154815290600101906020018083116121d757829003601f168201915b50505050508152602001906001019061215c565b505050509050919050565b61221b613a52565b6040805160e081018252600680546001600160a01b0390811683526007548116602080850191909152600854909116838501526009546060840152600a80548551818402810184019096528086529394929360808601939260009084015b82821015612352576000848152602090819020604080518082019091526002850290910180546001600160a01b0316825260018101805492939192918401916122c190614775565b80601f01602080910402602001604051908101604052809291908181526020018280546122ed90614775565b801561233a5780601f1061230f5761010080835404028352916020019161233a565b820191906000526020600020905b81548152906001019060200180831161231d57829003601f168201915b50505050508152505081526020019060010190612279565b50505050815260200160058201805480602002602001604051908101604052809291908181526020016000905b8282101561249a57838290600052602060002090600502016040518060a0016040529081600082015481526020016001820160009054906101000a900460ff1660038111156123d0576123d0613c90565b60038111156123e1576123e1613c90565b8152602001600282015481526020016003820154815260200160048201805461240990614775565b80601f016020809104026020016040519081016040528092919081815260200182805461243590614775565b80156124825780601f1061245757610100808354040283529160200191612482565b820191906000526020600020905b81548152906001019060200180831161246557829003601f168201915b5050505050815250508152602001906001019061237f565b505050908252506040805160e0810182526006840180546001600160a01b03168252600785015460208381019190915260088601548385015260098601546060840152600a86018054855181840281018401909652808652958201959394929360808601939283018282801561252f57602002820191906000526020600020905b81548152602001906001019080831161251b575b5050505050815260200160058201805480602002602001604051908101604052809291908181526020016000905b828210156125f1578382906000526020600020906002020160405180604001604052908160008201548152602001600182018054806020026020016040519081016040528092919081815260200182805480156125d957602002820191906000526020600020905b8154815260200190600101908083116125c5575b5050505050815250508152602001906001019061255d565b50505050815260200160068201805480602002602001604051908101604052809291908181526020016000905b828210156126ca57838290600052602060002001805461263d90614775565b80601f016020809104026020016040519081016040528092919081815260200182805461266990614775565b80156126b65780601f1061268b576101008083540402835291602001916126b6565b820191906000526020600020905b81548152906001019060200180831161269957829003601f168201915b50505050508152602001906001019061261e565b50505091525050905250919050565b6126e9636455fb6d60e11b611d72565b6127055760405162461bcd60e51b815260040161070c90614933565b6127108160016152fc565b60178381548110612723576127236147a9565b6000918252602090912001555050565b600c546040516370a0823160e01b81526000916001600160a01b0316906370a0823190612764903090600401613cec565b602060405180830381865afa158015612781573d6000803e3d6000fd5b505050506040513d601f19601f82011682018060405250810190610e5391906152b3565b60006127b16001613491565b905080156127c9576003805461ff0019166101001790555b60006127db604084016020850161531b565b6001600160a01b0316036128225760405162461bcd60e51b815260206004820152600e60248201526d12d9595c195c881a5b9d985b1a5960921b604482015260640161070c565b600580546001600160a01b03199081166001600160a01b03898116919091179092556003805462010000600160b01b03191633620100000217905560048054821688841617905560148054909116918616919091179055601683905581600661288b8282615b1e565b90505060005b61289e60a0840184615358565b90508110156129025780601e60006128b960a0870187615358565b858181106128c9576128c96147a9565b90506020028101906128db919061559b565b604090810135825260208201929092520160002055806128fa8161489b565b915050612891565b506129186129136080840184615358565b61351a565b8015611cea576003805461ff0019169055604051600181527f7f26b83ff96e1f2b6a682f133852f6798a09c465da95921460cefb38474024989060200160405180910390a1505050505050565b6000338260405160200161297a929190615c86565b60408051601f1981840301815291815281516020928301206000818152601c909352912054600b80549293506129d29290919081106129bb576129bb6147a9565b906000526020600020906005020160030154610bb8565b6001600160a01b0316336001600160a01b031614612a025760405162461bcd60e51b815260040161070c90615ca3565b6000818152601c6020526040812054600b80549091908110612a2657612a266147a9565b600091825260209091206001600590920201015460ff166003811115612a4e57612a4e613c90565b14612a845760405162461bcd60e51b81526020600482015260066024820152653737ba1021b160d11b604482015260640161070c565b6000818152601c6020526040902054600b80549091908110612aa857612aa86147a9565b600091825260208220600590910201805491612ac38361489b565b90915550506000818152601c6020526040902054600b8054612c5092908110612aee57612aee6147a9565b906000526020600020906005020160020154336001600160a01b0316633f4fb5aa6006600501601960030160008781526020019081526020016000205481548110612b3b57612b3b6147a9565b90600052602060002090600502016004018054612b5790614775565b80601f0160208091040260200160405190810160405280929190818152602001828054612b8390614775565b8015612bd05780601f10612ba557610100808354040283529160200191612bd0565b820191906000526020600020905b815481529060010190602001808311612bb357829003601f168201915b5050505050806020019051810190612be891906152b3565b6040518263ffffffff1660e01b8152600401612c0691815260200190565b600060405180830381865afa158015612c23573d6000803e3d6000fd5b505050506040513d6000823e601f3d908101601f19168201604052612c4b9190810190615cd2565b6132bd565b6000818152601c602052604081208190556019805491612c6f83615d3f565b9091555050604051600080516020615dd183398151915290600090a15050565b6016548111612cd85760405162461bcd60e51b8152602060048201526015602482015274736f6c766572206e6f7420646f776e73747265616d60581b604482015260640161070c565b612ce181610bb8565b6001600160a01b0316336001600160a01b031614612d115760405162461bcd60e51b815260040161070c90615ca3565b6000828152601d602052604090205415801590612d3d57506013546000838152601d6020526040902054145b15612d8f5760405163de3a23c560e01b815260048101839052339063de3a23c590602401600060405180830381600087803b158015612d7b57600080fd5b505af1158015611cea573d6000803e3d6000fd5b6000828152601b60209081526040822080546001810182559083529082200180546001600160a01b03191633179055601a805491612dcc8361489b565b91905055505b5050565b6060601f805480602002602001604051908101604052809291908181526020018280548015612e5157602002820191906000526020600020906000905b82829054906101000a900460e01b6001600160e01b03191681526020019060040190602082600301049283019260010382029150808411612e135790505b5050505050905090565b63f23a6e6160e01b5b9695505050505050565b612ea36040805160c081018252600080825260208201819052918101829052606080820183905260808201529060a082015290565b60138281548110612eb657612eb66147a9565b60009182526020918290206040805160c081018252600690930290910180546001600160a01b031683526001810154838501526002810154838301526003810154606084015260048101805483518187028101870190945280845293949193608086019392830182828015612f4a57602002820191906000526020600020905b815481526020019060010190808311612f36575b505050918352505060058281015460209092019160ff1690811115612f7157612f71613c90565b6005811115612f8257612f82613c90565b90525092915050565b6001600160a01b03163b151590565b60006001600160e01b0319821663fecfce0160e01b148061062757506001600160e01b031982166301ffc9a760e01b1492915050565b60006001600160e01b03198216630271189760e51b148061062757506301ffc9a760e01b6001600160e01b0319831614610627565b6009546130139060016152fc565b61301d9042615d56565b60178281548110613030576130306147a9565b60009182526020909120015550565b60005b600b548110156132a3576000600b805483908110613062576130626147a9565b600091825260209091206001600590920201015460ff16600381111561308a5761308a613c90565b146130c0576130bb600660050182815481106130a8576130a86147a9565b9060005260206000209060050201613658565b613291565b6000306001600160a01b0316633837b05e600660050184815481106130e7576130e76147a9565b9060005260206000209060050201600301546040518263ffffffff1660e01b815260040161311791815260200190565b602060405180830381865afa158015613134573d6000803e3d6000fd5b505050506040513d601f19601f8201168201806040525081019061315891906148dd565b90506131648183613744565b806001600160a01b031663df33cc5160066005018481548110613189576131896147a9565b906000526020600020906005020160040180546131a590614775565b80601f01602080910402602001604051908101604052809291908181526020018280546131d190614775565b801561321e5780601f106131f35761010080835404028352916020019161321e565b820191906000526020600020905b81548152906001019060200180831161320157829003601f168201915b505050505080602001905181019061323691906152b3565b6016546040516001600160e01b031960e085901b16815260048101929092526024820152604401600060405180830381600087803b15801561327757600080fd5b505af115801561328b573d6000803e3d6000fd5b50505050505b8061329b8161489b565b915050613042565b50604051600080516020615dd183398151915290600090a1565b6013546132cc906001906148fa565b6000838152601d60205260409020541461331f5760405162461bcd60e51b815260206004820152601460248201527314db1bdd081d995c9cda5bdb881a5b9d985b1a5960621b604482015260640161070c565b6000828152601d60209081526040822080546001810182559083529181902083516133519391909101918401906139df565b50612dd28261385a565b6015546001600160a01b0316158015906133e75750601560009054906101000a90046001600160a01b03166001600160a01b031663999925066040518163ffffffff1660e01b8152600401602060405180830381865afa1580156133c3573d6000803e3d6000fd5b505050506040513d601f19601f820116820180604052508101906133e79190614911565b801561345b57506015546040516344c3b60760e01b8152600481018390526001600160a01b03909116906344c3b60790602401602060405180830381865afa158015613437573d6000803e3d6000fd5b505050506040513d601f19601f8201168201806040525081019061345b9190614911565b15610bb55760155460405163b992db0f60e01b8152600481018390526001600160a01b039091169063b992db0f90602401611160565b600354600090610100900460ff16156134d9578160ff1660011480156134bd57506134bb30612f8b565b155b611df85760405162461bcd60e51b815260040161070c90615d6e565b60035460ff8084169116106135005760405162461bcd60e51b815260040161070c90615d6e565b506003805460ff191660ff92909216919091179055600190565b60005b81811015611a1257600180600085858581811061353c5761353c6147a9565b905060200281019061354e91906153a1565b61355c90602081019061531b565b6001600160a01b031681526020810191909152604001600020805460ff1916911515919091179055828282818110613596576135966147a9565b90506020028101906135a891906153a1565b6135b690602081019061531b565b6001600160a01b0316633cef64cc8484848181106135d6576135d66147a9565b90506020028101906135e891906153a1565b6135f690602081019061543e565b6040518363ffffffff1660e01b8152600401613613929190615dbc565b600060405180830381600087803b15801561362d57600080fd5b505af1158015613641573d6000803e3d6000fd5b5050505080806136509061489b565b91505061351d565b600181015460039060ff168181111561367357613673613c90565b11156136b65760405162461bcd60e51b8152602060048201526012602482015271496e76616c696420696e676573745479706560701b604482015260640161070c565b80548160006136c48361489b565b9091555060039050600182015460ff1660038111156136e5576136e5613c90565b14610bb557600281015460405163b3d7370760e01b815260048101839052610bb5919073a6DB7857aa93A71a57BdbFc8b82717F647b48C539063b3d7370790602401600060405180830381865af4158015612c23573d6000803e3d6000fd5b80601960030160008460066005018581548110613763576137636147a9565b9060005260206000209060050201600401805461377f90614775565b80601f01602080910402602001604051908101604052809291908181526020018280546137ab90614775565b80156137f85780601f106137cd576101008083540402835291602001916137f8565b820191906000526020600020905b8154815290600101906020018083116137db57829003601f168201915b505050505080602001905181019061381091906152b3565b604051602001613821929190615c86565b60408051601f198184030181529181528151602092830120835290820192909252016000908120919091556019805491612dcc8361489b565b60005b6000828152601b6020526040902054811015612dd2576000828152601b60205260408120805483908110613893576138936147a9565b6000918252602090912001546001600160a01b031614613982576000828152601b602052604090208054829081106138cd576138cd6147a9565b60009182526020909120015460405163de3a23c560e01b8152600481018490526001600160a01b039091169063de3a23c590602401600060405180830381600087803b15801561391c57600080fd5b505af1158015613930573d6000803e3d6000fd5b5050506000838152601b60205260409020805490915082908110613956576139566147a9565b6000918252602082200180546001600160a01b0319169055601a80549161397c83615d3f565b91905055505b8061398c8161489b565b91505061385d565b8280548282559060005260206000209081019282156139cf579160200282015b828111156139cf5782518255916020019190600101906139b4565b506139db929150613af3565b5090565b8280546139eb90614775565b90600052602060002090601f016020900481019282613a0d57600085556139cf565b82601f10613a2657805160ff19168380011785556139cf565b828001600101855582156139cf57918201828111156139cf5782518255916020019190600101906139b4565b6040518060e0016040528060006001600160a01b0316815260200160006001600160a01b0316815260200160006001600160a01b03168152602001600081526020016060815260200160608152602001613aee6040518060e0016040528060006001600160a01b031681526020016000815260200160008152602001600080191681526020016060815260200160608152602001606081525090565b905290565b5b808211156139db5760008155600101613af4565b600060208284031215613b1a57600080fd5b81356001600160e01b031981168114611df157600080fd5b600060208284031215613b4457600080fd5b5035919050565b60005b83811015613b66578181015183820152602001613b4e565b83811115613b75576000848401525b50505050565b60008151808452613b93816020860160208601613b4b565b601f01601f19169290920160200192915050565b602081526000611df16020830184613b7b565b6001600160a01b0381168114610bb557600080fd5b60008083601f840112613be157600080fd5b5081356001600160401b03811115613bf857600080fd5b6020830191508360208260051b8501011115613c1357600080fd5b9250929050565b600080600080600060808688031215613c3257600080fd5b8535613c3d81613bba565b9450602086013593506040860135925060608601356001600160401b03811115613c6657600080fd5b613c7288828901613bcf565b969995985093965092949392505050565b6001600160a01b03169052565b634e487b7160e01b600052602160045260246000fd5b60068110613cb657613cb6613c90565b9052565b6001600160a01b038616815260208101859052604081018490526060810183905260a08101612e646080830184613ca6565b6001600160a01b0391909116815260200190565b60008083601f840112613d1257600080fd5b5081356001600160401b03811115613d2957600080fd5b602083019150836020828501011115613c1357600080fd5b60008060208385031215613d5457600080fd5b82356001600160401b03811115613d6a57600080fd5b613d7685828601613d00565b90969095509350505050565b8035610cc481613bba565b60008060408385031215613da057600080fd5b8235613dab81613bba565b946020939093013593505050565b602081016106278284613ca6565b600060e08284031215613dd957600080fd5b50919050565b600060208284031215613df157600080fd5b81356001600160401b03811115613e0757600080fd5b613e1384828501613dc7565b949350505050565b600081518084526020808501945080840160005b83811015613e4b57815187529582019590820190600101613e2f565b509495945050505050565b600082825180855260208086019550808260051b84010181860160005b84811015613ea157601f19868403018952613e8f838351613b7b565b98840198925090830190600101613e73565b5090979650505050505050565b60018060a01b0381511682526000602080830151818501526040808401518186015260608085015181870152608085015160e06080880152613ef360e0880182613e1b565b905060a086015187820360a08901528181518084528684019150868160051b85010187840193506000805b83811015613f8657868303601f190185528551805184528a01518a84018a905280518a8501819052908b019083908a8601905b80831015613f715783518252928d019260019290920191908d0190613f51565b50978c0197968c019694505050600101613f1e565b505060c08a015197508a810360c08c0152613fa18189613e56565b9b9a5050505050505050505050565b6001600160a01b0386811682528581166020830152841660408201526060810183905260a060808201819052600090613feb90830184613eae565b979650505050505050565b60018060a01b0381511682526020810151602083015260408101516040830152606081015160608301526000608082015160c0608085015261403b60c0850182613e1b565b905060a083015161404f60a0860182613ca6565b509392505050565b6000602080830181845280855180835260408601915060408160051b870101925083870160005b828110156140ac57603f1988860301845261409a858351613ff6565b9450928501929085019060010161407e565b5092979650505050505050565b6000806000604084860312156140ce57600080fd5b8335925060208401356001600160401b038111156140eb57600080fd5b6140f786828701613bcf565b9497909650939450505050565b634e487b7160e01b600052604160045260246000fd5b60405160c081016001600160401b038111828210171561413c5761413c614104565b60405290565b604051601f8201601f191681016001600160401b038111828210171561416a5761416a614104565b604052919050565b60006001600160401b0382111561418b5761418b614104565b50601f01601f191660200190565b600080604083850312156141ac57600080fd5b8235915060208301356001600160401b038111156141c957600080fd5b8301601f810185136141da57600080fd5b80356141ed6141e882614172565b614142565b81815286602083850101111561420257600080fd5b816020840160208301376000602083830101528093505050509250929050565b60006001600160401b0382111561423b5761423b614104565b5060051b60200190565b6000806040838503121561425857600080fd5b823591506020808401356001600160401b0381111561427657600080fd5b8401601f8101861361428757600080fd5b80356142956141e882614222565b81815260059190911b820183019083810190888311156142b457600080fd5b928401925b828410156142d2578335825292840192908401906142b9565b80955050505050509250929050565b60008060008060008060008060a0898b0312156142fd57600080fd5b883561430881613bba565b9750602089013561431881613bba565b965060408901356001600160401b038082111561433457600080fd5b6143408c838d01613bcf565b909850965060608b013591508082111561435957600080fd5b6143658c838d01613bcf565b909650945060808b013591508082111561437e57600080fd5b5061438b8b828c01613d00565b999c989b5096995094979396929594505050565b6001600160e01b031991909116815260200190565b6000806000604084860312156143c957600080fd5b83356001600160401b038111156143df57600080fd5b6143eb86828701613d00565b909790965060209590950135949350505050565b6000602080830181845280855180835260408601915060408160051b870101925083870160005b828110156140ac57603f19888603018452614442858351613b7b565b94509285019290850190600101614426565b600081518084526020808501808196508360051b8101915082860160005b858110156144b9578284038952815180516001600160a01b0316855285015160408686018190526144a581870183613b7b565b9a87019a9550505090840190600101614472565b5091979650505050505050565b60048110613cb657613cb6613c90565b600081518084526020808501808196508360051b8101915082860160005b858110156144b9578284038952815160a08151865286820151614519888801826144c6565b50604082810151908701526060808301519087015260809182015191860181905261454681870183613b7b565b9a87019a95505050908401906001016144f4565b60208152600060018060a01b0380845116602084015280602085015116604084015250604083015161458f6060840182613c83565b5060608301516080830152608083015160e060a08401526145b4610100840182614454565b905060a0840151601f19808584030160c08601526145d283836144d6565b925060c08601519150808584030160e0860152506145f08282613eae565b95945050505050565b6000806040838503121561460c57600080fd5b50508035926020909101359150565b600080600080600060a0868803121561463357600080fd5b853561463e81613bba565b9450602086013561464e81613bba565b9350604086013561465e81613bba565b92506060860135915060808601356001600160401b0381111561468057600080fd5b61468c88828901613dc7565b9150509295509295909350565b6020808252825182820181905260009190848201906040850190845b818110156146db5783516001600160e01b031916835292840192918401916001016146b5565b50909695505050505050565b60008060008060008060a0878903121561470057600080fd5b863561470b81613bba565b9550602087013561471b81613bba565b9450604087013593506060870135925060808701356001600160401b0381111561474457600080fd5b61475089828a01613d00565b979a9699509497509295939492505050565b602081526000611df16020830184613ff6565b600181811c9082168061478957607f821691505b602082108103613dd957634e487b7160e01b600052602260045260246000fd5b634e487b7160e01b600052603260045260246000fd5b6020808252600a9082015269151a5b595b1bd8dad95960b21b604082015260600190565b6001600160a01b03929092168252602082015260400190565b6020808252600b908201526a27b7363c9025b2b2b832b960a91b604082015260600190565b81835260006001600160fb1b0383111561483a57600080fd5b8260051b8083602087013760009401602001938452509192915050565b60018060a01b0386168152846020820152836040820152608060608201526000613feb608083018486614821565b634e487b7160e01b600052601160045260246000fd5b6000600182016148ad576148ad614885565b5060010190565b6020808252600f908201526e27b7363c9030b93134ba3930ba37b960891b604082015260600190565b6000602082840312156148ef57600080fd5b8151611df181613bba565b60008282101561490c5761490c614885565b500390565b60006020828403121561492357600080fd5b81518015158114611df157600080fd5b6020808252600d908201526c139bdd081c195c9b5a5d1d1959609a1b604082015260600190565b60009081526020902090565b6000815480845260208085019450836000528060002060005b83811015613e4b5781548752958201956001918201910161497f565b600081548084526020808501808196508360051b810191506000868152838120815b86811015614a29578385038a52815485526040868601819052600180840180549288018390528552878520606088019290919086905b80821015614a105783548552938a019392820192908201906149f3565b5050509a87019a509450600291909101906001016149bd565b509298975050505050505050565b60008154614a4481614775565b808552602060018381168015614a615760018114614a7557614aa3565b60ff19851688840152604088019550614aa3565b866000528260002060005b85811015614a9b5781548a8201860152908301908401614a80565b890184019650505b505050505092915050565b600081548084526020808501808196508360051b81019150856000528260002060005b858110156144b9578284038952614ae88483614a37565b98850198935060019182019101614ad1565b600060018060a01b03808716835260806020840152614b1f6080840182885416613c83565b50600185015460a0830152600285015460c0830152600385015460e083015260e0610100830152614b57610160830160048701614966565b607f198084830301610120850152614b72826005890161499b565b9150808483030161014085015250614b8d8160068801614aae565b915050614b9d6040830185613c83565b82606083015295945050505050565b805160068110610cc457600080fd5b60006020808385031215614bce57600080fd5b82516001600160401b0380821115614be557600080fd5b9084019060c08287031215614bf957600080fd5b614c0161411a565b8251614c0c81613bba565b8082525083830151848201526040830151604082015260608301516060820152608083015182811115614c3e57600080fd5b83019150601f82018713614c5157600080fd5b8151614c5f6141e882614222565b81815260059190911b83018501908581019089831115614c7e57600080fd5b938601935b82851015614c9c57845182529386019390860190614c83565b608084015250614cb0905060a08401614bac565b60a08201529695505050505050565b602080825260189082015277139bdd08105c989a5d1c985d1a5bdb94995c5d595cdd195960421b604082015260600190565b6000808335601e19843603018112614d0857600080fd5b83016020810192503590506001600160401b03811115614d2757600080fd5b8060051b3603821315613c1357600080fd5b6000808335601e19843603018112614d5057600080fd5b83016020810192503590506001600160401b03811115614d6f57600080fd5b803603821315613c1357600080fd5b81835281816020850137506000828201602090810191909152601f909101601f19169091010190565b60008235603e19833603018112614dbd57600080fd5b90910192915050565b81835260006020808501808196508560051b810191508460005b878110156144b9578284038952614df78288614da7565b60408135614e0481613bba565b6001600160a01b03168652614e1b82880183614d39565b92508188880152614e2f8288018483614d7e565b9b88019b965050509185019150600101614de0565b60048110610bb557600080fd5b81835260006020808501808196508560051b81019150846000805b88811015614a29578385038a528235609e19893603018112614e8c578283fd5b88018035865260a087820135614ea181614e44565b614ead898901826144c6565b5060408281013590880152606080830135908801526080614ed081840184614d39565b935082828a0152614ee4838a018583614d7e565b9d8a019d98505050938701935050600101614e6c565b6000823560de19833603018112614dbd57600080fd5b81835260006020808501808196508560051b810191508460005b878110156144b9578284038952614f418288614d39565b614f4c868284614d7e565b9a87019a9550505090840190600101614f2a565b60008135614f6d81613bba565b6001600160a01b03168352602082810135818501526040808401358186015260608085013590860152614fa36080850185614cf1565b60e06080880152614fb860e088018284614821565b915050614fc860a0860186614cf1565b87830360a0890152808352848301600582901b840186018360005b8481101561503657868303601f19018452614ffe8287614da7565b8035845261500e8a820182614cf1565b9150898b8601526150228a86018383614821565b958b01959450505090880190600101614fe3565b505061504560c08a018a614cf1565b9750955089810360c08b015261505c818888614f10565b9a9950505050505050505050565b6001600160a01b03858116825260806020830152600090853561508c81613bba565b16608083015261509e60208601613d82565b6150ab60a0840182613c83565b506150b860408601613d82565b6150c560c0840182613c83565b50606085013560e08301526150dd6080860186614cf1565b60e06101008501526150f461016085018284614dc6565b91505061510460a0870187614cf1565b607f19808685030161012087015261511d848385614e51565b935061512c60c08a018a614efa565b9250808685030161014087015250506151458282614f60565b60408501969096525050506060015292915050565b6020808252601e908201527f6c656e677468206d757374206d61746368206f7574636f6d65536c6f74730000604082015260600190565b8381526040602082015260006145f0604083018486614821565b6001600160a01b038416815260208082018490526060604083018190528351908301819052600091848101916080850190845b818110156151fa578451835293830193918301916001016151de565b509098975050505050505050565b6000604080830181845280865480835260609250828601915060058382821b8801018960005260208060002060005b8581101561529d57605f198b850301875260a08254855260ff600184015416615262858701826144c6565b5060028301548a86015260038301548986015280608086015261528a81860160048501614a37565b9784019794505090840190600101615237565b5050979097019790975250939695505050505050565b6000602082840312156152c557600080fd5b5051919050565b6060815260006152e0606083018688614d7e565b6001600160a01b03949094166020830152506040015292915050565b600081600019048311821515161561531657615316614885565b500290565b60006020828403121561532d57600080fd5b8135611df181613bba565b80546001600160a01b0319166001600160a01b0392909216919091179055565b6000808335601e1984360301811261536f57600080fd5b8301803591506001600160401b0382111561538957600080fd5b6020019150600581901b3603821315613c1357600080fd5b60008235603e198336030181126153b757600080fd5b9190910192915050565b5b81811015612dd257600081556001016153c2565b600019600383901b1c191660019190911b1790565b6153f58154614775565b8015612dd257601f81116001811461540f57505060009055565b82600052602060002061542d601f840160051c8201600183016153c1565b506020600090812081855555505050565b6000808335601e1984360301811261545557600080fd5b8301803591506001600160401b0382111561546f57600080fd5b602001915036819003821315613c1357600080fd5b601f821115611a1257806000526020600020601f840160051c810160208510156154ab5750805b61089d601f850160051c8301826153c1565b81356154c881613bba565b6154d28183615338565b50600180820160206154e68186018661543e565b6001600160401b038111156154fd576154fd614104565b6155118161550b8654614775565b86615484565b6000601f82116001811461553f576000831561552d5750838201355b61553784826153d6565b875550610948565b601f19831661554d8761495a565b835b8281101561556c578685013582559387019390890190870161554f565b50848210156155895760001960f88660031b161c19848701351681555b50505050841b90930190915550505050565b60008235609e198336030181126153b757600080fd5b8135815560018082016020808501356155c981614e44565b600481106155d9576155d9613c90565b60ff1983541660ff821681178455505060408501356002850155606085013560038501556004840191506154e6608086018661543e565b600160401b83111561562457615624614104565b8054838255808410156156c8577f3333333333333333333333333333333333333333333333333333333333333333600181831181161561566657615666614885565b600582871182161561567a5761567a614885565b600085815260208120909350878202810190828602015b808210156156c25784825584848301558460028301558460038301556156b9600483016153eb565b90820190615691565b50505050505b50816156d38261495a565b60005b85811015611cea576156f16156eb848761559b565b836155b1565b60209290920191600591909101906001016156d6565b6000823560de198336030181126153b757600080fd5b805460008083558115611a1257828152602081208281015b8082101561089d57828255600182019150615735565b813581556001808201602061576281860186615358565b600160401b81111561577657615776614104565b8354818555808210156157aa5760008581528481208381019083015b808210156157a65782825590880190615792565b5050505b506000938452828420935b818110156157d05782358555938501939183019185016157b5565b5050505050505050565b600160401b8311156157ee576157ee614104565b805483825580841015615866576001600160ff1b03600181831181161561581757615817614885565b81861181161561582957615829614885565b60008481526020812090925086821b81019084831b015b808210156158615783825561585683830161571d565b600282019150615840565b505050505b50816158718261495a565b60005b85811015611cea5761588f61588984876153a1565b8361574b565b6020929092019160029190910190600101615874565b6001600160401b038311156158bc576158bc614104565b6158d0836158ca8354614775565b83615484565b6000601f8411600181146158fe57600085156158ec5750838201355b6158f686826153d6565b84555061089d565b601f19851661590c8461495a565b835b8281101561592e578685013582556020948501946001909201910161590e565b508682101561594b5760001960f88860031b161c19848701351681555b505060018560011b0183555050505050565b600160401b83111561597157615971614104565b8054838255808410156159fa576000828152602081208581019083015b808210156159f6576159a08254614775565b80156159ea57601f808211600181146159bb578585556159e7565b6159c48561495a565b6159d883850160051c8201600183016153c1565b50600085815260208120818755555b50505b5060018201915061598e565b5050505b5081615a058261495a565b60005b85811015611cea57615a1a838661543e565b615a258183866158a5565b50506020929092019160019182019101615a08565b8135615a4581613bba565b615a4f8183615338565b50600160208084013582840155604084013560028401556060840135600384015560048301615a816080860186615358565b600160401b811115615a9557615a95614104565b825481845580821015615aba578360005284600020615ab88282018483016153c1565b505b506000928352838320925b81811015615ae0578235845592850192918401918501615ac5565b505050505050615af360a0830183615358565b615b018183600586016157da565b5050615b1060c0830183615358565b613b7581836006860161595d565b8135615b2981613bba565b615b338183615338565b506001602080840135615b4581613bba565b615b5181848601615338565b5060026040850135615b6281613bba565b615b6e81838701615338565b506060850135600385015560048401615b8a6080870187615358565b600160401b811115615b9e57615b9e614104565b825481845580821015615c0e576001600160ff1b03808211881615615bc557615bc5614885565b808311881615615bd757615bd7614885565b50600084815286812083891b810190838a1b015b80821015615c0a57828255615c018a83016153eb565b90870190615beb565b5050505b5081615c198461495a565b935060005b82811015615c4857615c39615c3383866153a1565b866154bd565b93850193908601908701615c1e565b5050505050505050615c5d60a0830183615358565b615c6b818360058601615610565b5050612dd2615c7d60c0840184615707565b60068301615a3a565b60609290921b6001600160601b0319168252601482015260340190565b60208082526015908201527436b9b39739b2b73232b9103737ba1039b7b63b32b960591b604082015260600190565b600060208284031215615ce457600080fd5b81516001600160401b03811115615cfa57600080fd5b8201601f81018413615d0b57600080fd5b8051615d196141e882614172565b818152856020838501011115615d2e57600080fd5b6145f0826020830160208601613b4b565b600081615d4e57615d4e614885565b506000190190565b60008219821115615d6957615d69614885565b500190565b6020808252602e908201527f496e697469616c697a61626c653a20636f6e747261637420697320616c72656160408201526d191e481a5b9a5d1a585b1a5e995960921b606082015260800190565b602081526000613e13602083018486614d7e56fe71bd81ebe1d98a2944767394e76a9aff18724b2cf04e1db71254f804544b35c7a26469706673582212202c538e11e826af7e7a918e34d5088f4d35b45c5a187bbe6d719a627814214ff664736f6c634300080e0033",
  "deployedBytecode": "0x608060405234801561001057600080fd5b50600436106102255760003560e01c806301ffc9a71461022a57806309648a9d146102525780630d06101a146102725780630d7e149f146102875780630d8d3975146102a857806318782559146102bb5780632248fd9e146102ce57806326c50007146102e157806331402a57146103055780633837b05e146103185780633cef64cc146103385780633f4fb5aa1461034b57806344c3b6071461035e578063453a2abc1461037157806348cbb2fc146103795780634a77234e146103825780634e46f22314610395578063506da0b8146103a857806354f6127f146103bb57806355dd978b146103ce5780635c622a0e146103e15780636463845b146104015780636cc6cde11461041457806379502c55146104255780637c1236271461043e57806380b204b71461045357806380c2dde21461046657806381296f6f146104795780638602ce1b1461048c57806387dfee571461049f57806399992506146104b2578063a272ebcf146104ba578063aced1661146104cd578063b992db0f146104de578063bc197c81146104f1578063c05bc73114610520578063c08d6f0114610533578063c3f909d414610553578063c8abf6da14610568578063c98c05b71461057b578063d6860d5514610583578063de3a23c514610596578063df33cc51146105a9578063e1979ef4146105bc578063ea8221a9146105d1578063f23a6e61146105da578063f24fc903146105ed575b600080fd5b61023d610238366004613b08565b61060d565b60405190151581526020015b60405180910390f35b610265610260366004613b32565b61062d565b6040516102499190613ba7565b610285610280366004613b32565b6106cf565b005b61029a610295366004613b32565b610731565b604051908152602001610249565b6102856102b6366004613b32565b610752565b6102856102c9366004613c1a565b6108a4565b61023d6102dc366004613b08565b610953565b6102f46102ef366004613b32565b6109d5565b604051610249959493929190613cba565b610285610313366004613b32565b610a23565b61032b610326366004613b32565b610bb8565b6040516102499190613cec565b610285610346366004613d41565b610cc9565b610265610359366004613b32565b610d17565b61023d61036c366004613b32565b610dae565b61032b610e33565b61029a60185481565b610285610390366004613b32565b610e58565b6102856103a3366004613b32565b61118e565b61023d6103b6366004613d8d565b611255565b6102656103c9366004613b32565b61139a565b60155461032b906001600160a01b031681565b6103f46103ef366004613b32565b6113ba565b6040516102499190613db9565b61032b61040f366004613ddf565b6113ec565b6008546001600160a01b031661032b565b61042d61154a565b604051610249959493929190613fb0565b610446611791565b6040516102499190614057565b6102856104613660046140b9565b6118a4565b60145461032b906001600160a01b031681565b610285610487366004614199565b611a17565b61028561049a366004614199565b611a62565b6102856104ad366004614245565b611b5a565b61023d611cf2565b61023d6104c8366004613b08565b611d72565b6007546001600160a01b031661032b565b6102856104ec366004613b32565b611e00565b6105136104ff3660046142e1565b63bc197c8160e01b98975050505050505050565b604051610249919061439f565b61028561052e3660046143b4565b612014565b610546610541366004613b32565b61212e565b60405161024991906143ff565b61055b612213565b604051610249919061455a565b6102856105763660046145f9565b6126d9565b61029a612733565b61028561059136600461461b565b6127a5565b6102856105a4366004613b32565b612965565b6102856105b73660046145f9565b612c8f565b6105c4612dd6565b6040516102499190614699565b61029a60165481565b6105136105e83660046146e7565b612e5b565b6106006105fb366004613b32565b612e6e565b6040516102499190614762565b600061061882612f9a565b80610627575061062782612fd0565b92915050565b600081815260026020526040902080546060919061064a90614775565b80601f016020809104026020016040519081016040528092919081815260200182805461067690614775565b80156106c35780601f10610698576101008083540402835291602001916106c3565b820191906000526020600020905b8154815290600101906020018083116106a657829003601f168201915b50505050509050919050565b601854156107155760405162461bcd60e51b815260206004820152600e60248201526d151c9858dada5b99d259081cd95d60921b60448201526064015b60405180910390fd5b6005546001600160a01b0316331461072c57600080fd5b601855565b6017818154811061074157600080fd5b600091825260209091200154905081565b60178181548110610765576107656147a9565b9060005260206000200154421161078e5760405162461bcd60e51b815260040161070c906147bf565b6002601382815481106107a3576107a36147a9565b60009182526020909120600560069092020181015460ff16908111156107cb576107cb613c90565b146108075760405162461bcd60e51b815260206004820152600c60248201526b139bdd081c1c9bdc1bdcd95960a21b604482015260640161070c565b6004546013805473__$3ec311f63f1cd166364ee887ad77eb9bd8$__926385c92867926001600160a01b039091169185908110610846576108466147a9565b90600052602060002090600602016040518363ffffffff1660e01b81526004016108719291906147e3565b60006040518083038186803b15801561088957600080fd5b505af415801561089d573d6000803e3d6000fd5b5050505050565b6007546001600160a01b03163314806108c857506108c8631878255960e01b611d72565b6108e45760405162461bcd60e51b815260040161070c906147fc565b60048054604051626dc0df60e21b81526001600160a01b03909116916301b7037c9161091a918991899189918991899101614857565b600060405180830381600087803b15801561093457600080fd5b505af1158015610948573d6000803e3d6000fd5b505050505050505050565b6000805b601f548110156109cc57826001600160e01b031916601f828154811061097f5761097f6147a9565b90600052602060002090600891828204019190066004029054906101000a900460e01b6001600160e01b031916036109ba5750600192915050565b806109c48161489b565b915050610957565b50600092915050565b601381815481106109e557600080fd5b6000918252602090912060069091020180546001820154600283015460038401546005909401546001600160a01b0390931694509092909160ff1685565b6008546001600160a01b0316331480610a475750610a476331402a5760e01b611d72565b610a635760405162461bcd60e51b815260040161070c906148b4565b600260138281548110610a7857610a786147a9565b60009182526020909120600560069092020181015460ff1690811115610aa057610aa0613c90565b1480610ae65750600360138281548110610abc57610abc6147a9565b60009182526020909120600560069092020181015460ff1690811115610ae457610ae4613c90565b145b610b235760405162461bcd60e51b815260206004820152600e60248201526d10d85b9b9bdd081c995c5d595cdd60921b604482015260640161070c565b73__$3ec311f63f1cd166364ee887ad77eb9bd8$__633bdce6e660138381548110610b5057610b506147a9565b90600052602060002090600602016040518263ffffffff1660e01b8152600401610b7c91815260200190565b60006040518083038186803b158015610b9457600080fd5b505af4158015610ba8573d6000803e3d6000fd5b50505050610bb581613005565b50565b60006016548203610bca575030919050565b601654821015610c59576014546001600160a01b0316610bec57506000919050565b601454604051631c1bd82f60e11b8152600481018490526001600160a01b0390911690633837b05e90602401602060405180830381865afa158015610c35573d6000803e3d6000fd5b505050506040513d601f19601f8201168201806040525081019061062791906148dd565b601654821115610cc4576015546001600160a01b0316610c7b57506000919050565b601554604051631c1bd82f60e11b8152600481018490526001600160a01b0390911690633837b05e90602401602060405180830381865afa158015610c35573d6000803e3d6000fd5b919050565b333014610d045760405162461bcd60e51b81526020600482015260096024820152684f6e6c79207468697360b81b604482015260640161070c565b610d1081830183613b32565b6020555050565b6013546000828152601d602052604090205460609114610d6d5760405162461bcd60e51b815260206004820152601160248201527029b637ba1034b73b30b634b2103b32b91760791b604482015260640161070c565b6000828152601d602052604090208054610d89906001906148fa565b81548110610d9957610d996147a9565b90600052602060002001805461064a90614775565b6040516336d39c6160e11b815260048101829052601d6024820152600c604482015260009073__$3ec311f63f1cd166364ee887ad77eb9bd8$__90636da738c290606401602060405180830381865af4158015610e0f573d6000803e3d6000fd5b505050506040513d601f19601f820116820180604052508101906106279190614911565b6000610e4060205461139a565b806020019051810190610e5391906148dd565b905090565b60135415610eb5576007546001600160a01b0316331480610e8357506014546001600160a01b031633145b80610e995750610e9963253b91a760e11b611d72565b610eb55760405162461bcd60e51b815260040161070c90614933565b6013548114610ef65760405162461bcd60e51b815260206004820152600d60248201526c092dcecc2d8d2c840d2dcc8caf609b1b604482015260640161070c565b601a5415610f355760405162461bcd60e51b815260206004820152600c60248201526b6f7574676f696e672063627360a01b604482015260640161070c565b60195415610f745760405162461bcd60e51b815260206004820152600c60248201526b696e636f6d696e672063627360a01b604482015260640161070c565b600480546014546013805460405163699e0add60e01b8152919473__$3ec311f63f1cd166364ee887ad77eb9bd8$__9463699e0add94610fc8946001600160a01b0392831694600c94939092169201614afa565b600060405180830381865af4158015610fe5573d6000803e3d6000fd5b505050506040513d6000823e601f3d908101601f1916820160405261100d9190810190614bbb565b8154600180820184556000938452602093849020835160069093020180546001600160a01b0319166001600160a01b0390931692909217825582840151908201556040820151600282015560608201516003820155608082015180519293919261107d9260048501920190613994565b5060a08201518160050160006101000a81548160ff021916908360058111156110a8576110a8613c90565b0217905550506017805460018101825560009182527fc624b66cc0138b8fabc209247f72d758e1cf3343756d543badbf24212bed8c150155506110e961303f565b7f152ec8ae15d347b2d2a8f0858caa29bcaaa0906749a1f43e08bfe79983460240308260405161111a9291906147e3565b60405180910390a16015546001600160a01b031615610bb55760155460405163253b91a760e11b8152600481018390526001600160a01b0390911690634a77234e906024015b600060405180830381600087803b15801561117a57600080fd5b505af115801561089d573d6000803e3d6000fd5b6008546001600160a01b03163314806111b257506111b2634e46f22360e01b611d72565b6111ce5760405162461bcd60e51b815260040161070c906148b4565b6003601382815481106111e3576111e36147a9565b60009182526020909120600560069092020181015460ff169081111561120b5761120b613c90565b146112285760405162461bcd60e51b815260040161070c90614cbf565b73__$3ec311f63f1cd166364ee887ad77eb9bd8$__6359111fb560138381548110610b5057610b506147a9565b6000805b6011548110156113905760118054600091601d9183919085908110611280576112806147a9565b906000526020600020906002020160000154815260200190815260200160002084815481106112b1576112b16147a9565b9060005260206000200180546112c690614775565b80601f01602080910402602001604051908101604052809291908181526020018280546112f290614775565b801561133f5780601f106113145761010080835404028352916020019161133f565b820191906000526020600020905b81548152906001019060200180831161132257829003601f168201915b505050505080602001905181019061135791906148dd565b9050806001600160a01b0316856001600160a01b03160361137d57600192505050610627565b50806113888161489b565b915050611259565b5060009392505050565b6000818152601d60205260409020805460609190610d89906001906148fa565b6000601382815481106113cf576113cf6147a9565b600091825260209091206005600690920201015460ff1692915050565b6007546000906001600160a01b03163314806114135750611413636463845b60e01b611d72565b61144d5760405162461bcd60e51b815260206004820152600b60248201526a27b7363c9035b2b2b832b960a91b604482015260640161070c565b6015546001600160a01b0316156114925760405162461bcd60e51b815260206004820152600960248201526812185cc818da1a5b1960ba1b604482015260640161070c565b6003546016546018546040516386a2d22760e01b815273__$3ec311f63f1cd166364ee887ad77eb9bd8$__936386a2d227936114e493620100009092046001600160a01b03169288929060040161506a565b602060405180830381865af4158015611501573d6000803e3d6000fd5b505050506040513d601f19601f8201168201806040525081019061152591906148dd565b601580546001600160a01b0319166001600160a01b0392909216918217905592915050565b600680546007546008546009546040805160e081018252600c80546001600160a01b039081168352600d54602080850191909152600e5484860152600f546060850152601080548651818402810184019097528087529983169a988316999790921697959693949293608086019392918301828280156115e957602002820191906000526020600020905b8154815260200190600101908083116115d5575b5050505050815260200160058201805480602002602001604051908101604052809291908181526020016000905b828210156116ab5783829060005260206000209060020201604051806040016040529081600082015481526020016001820180548060200260200160405190810160405280929190818152602001828054801561169357602002820191906000526020600020905b81548152602001906001019080831161167f575b50505050508152505081526020019060010190611617565b50505050815260200160068201805480602002602001604051908101604052809291908181526020016000905b828210156117845783829060005260206000200180546116f790614775565b80601f016020809104026020016040519081016040528092919081815260200182805461172390614775565b80156117705780601f1061174557610100808354040283529160200191611770565b820191906000526020600020905b81548152906001019060200180831161175357829003601f168201915b5050505050815260200190600101906116d8565b5050505081525050905085565b60606013805480602002602001604051908101604052809291908181526020016000905b8282101561189b5760008481526020908190206040805160c0810182526006860290920180546001600160a01b03168352600181015483850152600281015483830152600381015460608401526004810180548351818702810187019094528084529394919360808601939283018282801561185057602002820191906000526020600020905b81548152602001906001019080831161183c575b505050918352505060058281015460209092019160ff169081111561187757611877613c90565b600581111561188857611888613c90565b81525050815260200190600101906117b5565b50505050905090565b6007546001600160a01b03163314806118c857506118c86380b204b760e01b611d72565b6118e45760405162461bcd60e51b815260040161070c906147fc565b600d5481146119055760405162461bcd60e51b815260040161070c9061515a565b60016013848154811061191a5761191a6147a9565b60009182526020909120600560069092020181015460ff169081111561194257611942613c90565b1461197e5760405162461bcd60e51b815260206004820152600c60248201526b139bdd08115e1958dd5d195960a21b604482015260640161070c565b73__$3ec311f63f1cd166364ee887ad77eb9bd8$__636a0a24f1601385815481106119ab576119ab6147a9565b906000526020600020906006020184846040518463ffffffff1660e01b81526004016119d993929190615191565b60006040518083038186803b1580156119f157600080fd5b505af4158015611a05573d6000803e3d6000fd5b50505050611a1283613005565b505050565b611a276381296f6f60e01b611d72565b611a435760405162461bcd60e51b815260040161070c90614933565b60008281526002602090815260409091208251611a12928401906139df565b6007546001600160a01b0316331480611a865750611a86638602ce1b60e01b611d72565b611aa25760405162461bcd60e51b815260040161070c906147fc565b6000828152601e6020526040902054600b8054600392908110611ac757611ac76147a9565b600091825260209091206001600590920201015460ff166003811115611aef57611aef613c90565b14611b355760405162461bcd60e51b81526020600482015260166024820152751bdb9b1e48125b99d95cdd151e5c194b93585b9d585b60521b604482015260640161070c565b611b3f82826132bd565b604051600080516020615dd183398151915290600090a15050565b6008546001600160a01b0316331480611b7e5750611b7e6387dfee5760e01b611d72565b611b9a5760405162461bcd60e51b815260040161070c906148b4565b600360138381548110611baf57611baf6147a9565b60009182526020909120600560069092020181015460ff1690811115611bd757611bd7613c90565b14611bf45760405162461bcd60e51b815260040161070c90614cbf565b60178281548110611c0757611c076147a9565b90600052602060002001544211611c305760405162461bcd60e51b815260040161070c906147bf565b600d54815114611c525760405162461bcd60e51b815260040161070c9061515a565b6004546013805473__$3ec311f63f1cd166364ee887ad77eb9bd8$__92631b948e49926001600160a01b039091169186908110611c9157611c916147a9565b9060005260206000209060060201846040518463ffffffff1660e01b8152600401611cbe939291906151ab565b60006040518083038186803b158015611cd657600080fd5b505af4158015611cea573d6000803e3d6000fd5b505050505050565b601354604051635cc1f6b560e01b815260009173__$3ec311f63f1cd166364ee887ad77eb9bd8$__91635cc1f6b591611d3191600b9190600401615208565b602060405180830381865af4158015611d4e573d6000803e3d6000fd5b505050506040513d601f19601f82011682018060405250810190610e539190614911565b3360009081526001602052604081205460ff1615611df8576040516311247ecf60e11b81526000903390632248fd9e90611db090869060040161439f565b602060405180830381865afa158015611dcd573d6000803e3d6000fd5b505050506040513d601f19601f82011682018060405250810190611df19190614911565b9392505050565b506000919050565b611e08611cf2565b1515600114611e4b5760405162461bcd60e51b815260206004820152600f60248201526e1a5b99d95cdd1cc81a5b9d985b1a59608a1b604482015260640161070c565b73__$3ec311f63f1cd166364ee887ad77eb9bd8$__632dd4082482600460009054906101000a90046001600160a01b031660138581548110611e8f57611e8f6147a9565b60009182526020808320601854601454600f548652601d9384905260409095208054600690950290920194600c9491926001600160a01b03909116918b908110611edb57611edb6147a9565b906000526020600020018054611ef090614775565b80601f0160208091040260200160405190810160405280929190818152602001828054611f1c90614775565b8015611f695780601f10611f3e57610100808354040283529160200191611f69565b820191906000526020600020905b815481529060010190602001808311611f4c57829003601f168201915b5050505050806020019051810190611f8191906152b3565b60405160e08a901b6001600160e01b031916815260048101989098526001600160a01b03968716602489015260448801959095526064870193909352608486019190915260a485015290911660c483015260e48201526101040160006040518083038186803b158015611ff357600080fd5b505af4158015612007573d6000803e3d6000fd5b50505050610bb58161335b565b61201c610e33565b6001600160a01b0316336001600160a01b03161461206a5760405162461bcd60e51b815260206004820152600b60248201526a27b7363c902bb934ba32b960a91b604482015260640161070c565b60016013805461207c906001906148fa565b8154811061208c5761208c6147a9565b60009182526020909120600560069092020181015460ff16908111156120b4576120b4613c90565b146120ec5760405162461bcd60e51b8152602060048201526008602482015267111a5cd8589b195960c21b604482015260640161070c565b7f7399fd48fdfaf111111c20e282a8837c6803b6631b3b7b5e30b3b97d682d21b68383338460405161212194939291906152cc565b60405180910390a1505050565b6000818152601d60209081526040808320805482518185028101850190935280835260609492939192909184015b8282101561220857838290600052602060002001805461217b90614775565b80601f01602080910402602001604051908101604052809291908181526020018280546121a790614775565b80156121f45780601f106121c9576101008083540402835291602001916121f4565b820191906000526020600020905b8154815290600101906020018083116121d757829003601f168201915b50505050508152602001906001019061215c565b505050509050919050565b61221b613a52565b6040805160e081018252600680546001600160a01b0390811683526007548116602080850191909152600854909116838501526009546060840152600a80548551818402810184019096528086529394929360808601939260009084015b82821015612352576000848152602090819020604080518082019091526002850290910180546001600160a01b0316825260018101805492939192918401916122c190614775565b80601f01602080910402602001604051908101604052809291908181526020018280546122ed90614775565b801561233a5780601f1061230f5761010080835404028352916020019161233a565b820191906000526020600020905b81548152906001019060200180831161231d57829003601f168201915b50505050508152505081526020019060010190612279565b50505050815260200160058201805480602002602001604051908101604052809291908181526020016000905b8282101561249a57838290600052602060002090600502016040518060a0016040529081600082015481526020016001820160009054906101000a900460ff1660038111156123d0576123d0613c90565b60038111156123e1576123e1613c90565b8152602001600282015481526020016003820154815260200160048201805461240990614775565b80601f016020809104026020016040519081016040528092919081815260200182805461243590614775565b80156124825780601f1061245757610100808354040283529160200191612482565b820191906000526020600020905b81548152906001019060200180831161246557829003601f168201915b5050505050815250508152602001906001019061237f565b505050908252506040805160e0810182526006840180546001600160a01b03168252600785015460208381019190915260088601548385015260098601546060840152600a86018054855181840281018401909652808652958201959394929360808601939283018282801561252f57602002820191906000526020600020905b81548152602001906001019080831161251b575b5050505050815260200160058201805480602002602001604051908101604052809291908181526020016000905b828210156125f1578382906000526020600020906002020160405180604001604052908160008201548152602001600182018054806020026020016040519081016040528092919081815260200182805480156125d957602002820191906000526020600020905b8154815260200190600101908083116125c5575b5050505050815250508152602001906001019061255d565b50505050815260200160068201805480602002602001604051908101604052809291908181526020016000905b828210156126ca57838290600052602060002001805461263d90614775565b80601f016020809104026020016040519081016040528092919081815260200182805461266990614775565b80156126b65780601f1061268b576101008083540402835291602001916126b6565b820191906000526020600020905b81548152906001019060200180831161269957829003601f168201915b50505050508152602001906001019061261e565b50505091525050905250919050565b6126e9636455fb6d60e11b611d72565b6127055760405162461bcd60e51b815260040161070c90614933565b6127108160016152fc565b60178381548110612723576127236147a9565b6000918252602090912001555050565b600c546040516370a0823160e01b81526000916001600160a01b0316906370a0823190612764903090600401613cec565b602060405180830381865afa158015612781573d6000803e3d6000fd5b505050506040513d601f19601f82011682018060405250810190610e5391906152b3565b60006127b16001613491565b905080156127c9576003805461ff0019166101001790555b60006127db604084016020850161531b565b6001600160a01b0316036128225760405162461bcd60e51b815260206004820152600e60248201526d12d9595c195c881a5b9d985b1a5960921b604482015260640161070c565b600580546001600160a01b03199081166001600160a01b03898116919091179092556003805462010000600160b01b03191633620100000217905560048054821688841617905560148054909116918616919091179055601683905581600661288b8282615b1e565b90505060005b61289e60a0840184615358565b90508110156129025780601e60006128b960a0870187615358565b858181106128c9576128c96147a9565b90506020028101906128db919061559b565b604090810135825260208201929092520160002055806128fa8161489b565b915050612891565b506129186129136080840184615358565b61351a565b8015611cea576003805461ff0019169055604051600181527f7f26b83ff96e1f2b6a682f133852f6798a09c465da95921460cefb38474024989060200160405180910390a1505050505050565b6000338260405160200161297a929190615c86565b60408051601f1981840301815291815281516020928301206000818152601c909352912054600b80549293506129d29290919081106129bb576129bb6147a9565b906000526020600020906005020160030154610bb8565b6001600160a01b0316336001600160a01b031614612a025760405162461bcd60e51b815260040161070c90615ca3565b6000818152601c6020526040812054600b80549091908110612a2657612a266147a9565b600091825260209091206001600590920201015460ff166003811115612a4e57612a4e613c90565b14612a845760405162461bcd60e51b81526020600482015260066024820152653737ba1021b160d11b604482015260640161070c565b6000818152601c6020526040902054600b80549091908110612aa857612aa86147a9565b600091825260208220600590910201805491612ac38361489b565b90915550506000818152601c6020526040902054600b8054612c5092908110612aee57612aee6147a9565b906000526020600020906005020160020154336001600160a01b0316633f4fb5aa6006600501601960030160008781526020019081526020016000205481548110612b3b57612b3b6147a9565b90600052602060002090600502016004018054612b5790614775565b80601f0160208091040260200160405190810160405280929190818152602001828054612b8390614775565b8015612bd05780601f10612ba557610100808354040283529160200191612bd0565b820191906000526020600020905b815481529060010190602001808311612bb357829003601f168201915b5050505050806020019051810190612be891906152b3565b6040518263ffffffff1660e01b8152600401612c0691815260200190565b600060405180830381865afa158015612c23573d6000803e3d6000fd5b505050506040513d6000823e601f3d908101601f19168201604052612c4b9190810190615cd2565b6132bd565b6000818152601c602052604081208190556019805491612c6f83615d3f565b9091555050604051600080516020615dd183398151915290600090a15050565b6016548111612cd85760405162461bcd60e51b8152602060048201526015602482015274736f6c766572206e6f7420646f776e73747265616d60581b604482015260640161070c565b612ce181610bb8565b6001600160a01b0316336001600160a01b031614612d115760405162461bcd60e51b815260040161070c90615ca3565b6000828152601d602052604090205415801590612d3d57506013546000838152601d6020526040902054145b15612d8f5760405163de3a23c560e01b815260048101839052339063de3a23c590602401600060405180830381600087803b158015612d7b57600080fd5b505af1158015611cea573d6000803e3d6000fd5b6000828152601b60209081526040822080546001810182559083529082200180546001600160a01b03191633179055601a805491612dcc8361489b565b91905055505b5050565b6060601f805480602002602001604051908101604052809291908181526020018280548015612e5157602002820191906000526020600020906000905b82829054906101000a900460e01b6001600160e01b03191681526020019060040190602082600301049283019260010382029150808411612e135790505b5050505050905090565b63f23a6e6160e01b5b9695505050505050565b612ea36040805160c081018252600080825260208201819052918101829052606080820183905260808201529060a082015290565b60138281548110612eb657612eb66147a9565b60009182526020918290206040805160c081018252600690930290910180546001600160a01b031683526001810154838501526002810154838301526003810154606084015260048101805483518187028101870190945280845293949193608086019392830182828015612f4a57602002820191906000526020600020905b815481526020019060010190808311612f36575b505050918352505060058281015460209092019160ff1690811115612f7157612f71613c90565b6005811115612f8257612f82613c90565b90525092915050565b6001600160a01b03163b151590565b60006001600160e01b0319821663fecfce0160e01b148061062757506001600160e01b031982166301ffc9a760e01b1492915050565b60006001600160e01b03198216630271189760e51b148061062757506301ffc9a760e01b6001600160e01b0319831614610627565b6009546130139060016152fc565b61301d9042615d56565b60178281548110613030576130306147a9565b60009182526020909120015550565b60005b600b548110156132a3576000600b805483908110613062576130626147a9565b600091825260209091206001600590920201015460ff16600381111561308a5761308a613c90565b146130c0576130bb600660050182815481106130a8576130a86147a9565b9060005260206000209060050201613658565b613291565b6000306001600160a01b0316633837b05e600660050184815481106130e7576130e76147a9565b9060005260206000209060050201600301546040518263ffffffff1660e01b815260040161311791815260200190565b602060405180830381865afa158015613134573d6000803e3d6000fd5b505050506040513d601f19601f8201168201806040525081019061315891906148dd565b90506131648183613744565b806001600160a01b031663df33cc5160066005018481548110613189576131896147a9565b906000526020600020906005020160040180546131a590614775565b80601f01602080910402602001604051908101604052809291908181526020018280546131d190614775565b801561321e5780601f106131f35761010080835404028352916020019161321e565b820191906000526020600020905b81548152906001019060200180831161320157829003601f168201915b505050505080602001905181019061323691906152b3565b6016546040516001600160e01b031960e085901b16815260048101929092526024820152604401600060405180830381600087803b15801561327757600080fd5b505af115801561328b573d6000803e3d6000fd5b50505050505b8061329b8161489b565b915050613042565b50604051600080516020615dd183398151915290600090a1565b6013546132cc906001906148fa565b6000838152601d60205260409020541461331f5760405162461bcd60e51b815260206004820152601460248201527314db1bdd081d995c9cda5bdb881a5b9d985b1a5960621b604482015260640161070c565b6000828152601d60209081526040822080546001810182559083529181902083516133519391909101918401906139df565b50612dd28261385a565b6015546001600160a01b0316158015906133e75750601560009054906101000a90046001600160a01b03166001600160a01b031663999925066040518163ffffffff1660e01b8152600401602060405180830381865afa1580156133c3573d6000803e3d6000fd5b505050506040513d601f19601f820116820180604052508101906133e79190614911565b801561345b57506015546040516344c3b60760e01b8152600481018390526001600160a01b03909116906344c3b60790602401602060405180830381865afa158015613437573d6000803e3d6000fd5b505050506040513d601f19601f8201168201806040525081019061345b9190614911565b15610bb55760155460405163b992db0f60e01b8152600481018390526001600160a01b039091169063b992db0f90602401611160565b600354600090610100900460ff16156134d9578160ff1660011480156134bd57506134bb30612f8b565b155b611df85760405162461bcd60e51b815260040161070c90615d6e565b60035460ff8084169116106135005760405162461bcd60e51b815260040161070c90615d6e565b506003805460ff191660ff92909216919091179055600190565b60005b81811015611a1257600180600085858581811061353c5761353c6147a9565b905060200281019061354e91906153a1565b61355c90602081019061531b565b6001600160a01b031681526020810191909152604001600020805460ff1916911515919091179055828282818110613596576135966147a9565b90506020028101906135a891906153a1565b6135b690602081019061531b565b6001600160a01b0316633cef64cc8484848181106135d6576135d66147a9565b90506020028101906135e891906153a1565b6135f690602081019061543e565b6040518363ffffffff1660e01b8152600401613613929190615dbc565b600060405180830381600087803b15801561362d57600080fd5b505af1158015613641573d6000803e3d6000fd5b5050505080806136509061489b565b91505061351d565b600181015460039060ff168181111561367357613673613c90565b11156136b65760405162461bcd60e51b8152602060048201526012602482015271496e76616c696420696e676573745479706560701b604482015260640161070c565b80548160006136c48361489b565b9091555060039050600182015460ff1660038111156136e5576136e5613c90565b14610bb557600281015460405163b3d7370760e01b815260048101839052610bb5919073__$3ec311f63f1cd166364ee887ad77eb9bd8$__9063b3d7370790602401600060405180830381865af4158015612c23573d6000803e3d6000fd5b80601960030160008460066005018581548110613763576137636147a9565b9060005260206000209060050201600401805461377f90614775565b80601f01602080910402602001604051908101604052809291908181526020018280546137ab90614775565b80156137f85780601f106137cd576101008083540402835291602001916137f8565b820191906000526020600020905b8154815290600101906020018083116137db57829003601f168201915b505050505080602001905181019061381091906152b3565b604051602001613821929190615c86565b60408051601f198184030181529181528151602092830120835290820192909252016000908120919091556019805491612dcc8361489b565b60005b6000828152601b6020526040902054811015612dd2576000828152601b60205260408120805483908110613893576138936147a9565b6000918252602090912001546001600160a01b031614613982576000828152601b602052604090208054829081106138cd576138cd6147a9565b60009182526020909120015460405163de3a23c560e01b8152600481018490526001600160a01b039091169063de3a23c590602401600060405180830381600087803b15801561391c57600080fd5b505af1158015613930573d6000803e3d6000fd5b5050506000838152601b60205260409020805490915082908110613956576139566147a9565b6000918252602082200180546001600160a01b0319169055601a80549161397c83615d3f565b91905055505b8061398c8161489b565b91505061385d565b8280548282559060005260206000209081019282156139cf579160200282015b828111156139cf5782518255916020019190600101906139b4565b506139db929150613af3565b5090565b8280546139eb90614775565b90600052602060002090601f016020900481019282613a0d57600085556139cf565b82601f10613a2657805160ff19168380011785556139cf565b828001600101855582156139cf57918201828111156139cf5782518255916020019190600101906139b4565b6040518060e0016040528060006001600160a01b0316815260200160006001600160a01b0316815260200160006001600160a01b03168152602001600081526020016060815260200160608152602001613aee6040518060e0016040528060006001600160a01b031681526020016000815260200160008152602001600080191681526020016060815260200160608152602001606081525090565b905290565b5b808211156139db5760008155600101613af4565b600060208284031215613b1a57600080fd5b81356001600160e01b031981168114611df157600080fd5b600060208284031215613b4457600080fd5b5035919050565b60005b83811015613b66578181015183820152602001613b4e565b83811115613b75576000848401525b50505050565b60008151808452613b93816020860160208601613b4b565b601f01601f19169290920160200192915050565b602081526000611df16020830184613b7b565b6001600160a01b0381168114610bb557600080fd5b60008083601f840112613be157600080fd5b5081356001600160401b03811115613bf857600080fd5b6020830191508360208260051b8501011115613c1357600080fd5b9250929050565b600080600080600060808688031215613c3257600080fd5b8535613c3d81613bba565b9450602086013593506040860135925060608601356001600160401b03811115613c6657600080fd5b613c7288828901613bcf565b969995985093965092949392505050565b6001600160a01b03169052565b634e487b7160e01b600052602160045260246000fd5b60068110613cb657613cb6613c90565b9052565b6001600160a01b038616815260208101859052604081018490526060810183905260a08101612e646080830184613ca6565b6001600160a01b0391909116815260200190565b60008083601f840112613d1257600080fd5b5081356001600160401b03811115613d2957600080fd5b602083019150836020828501011115613c1357600080fd5b60008060208385031215613d5457600080fd5b82356001600160401b03811115613d6a57600080fd5b613d7685828601613d00565b90969095509350505050565b8035610cc481613bba565b60008060408385031215613da057600080fd5b8235613dab81613bba565b946020939093013593505050565b602081016106278284613ca6565b600060e08284031215613dd957600080fd5b50919050565b600060208284031215613df157600080fd5b81356001600160401b03811115613e0757600080fd5b613e1384828501613dc7565b949350505050565b600081518084526020808501945080840160005b83811015613e4b57815187529582019590820190600101613e2f565b509495945050505050565b600082825180855260208086019550808260051b84010181860160005b84811015613ea157601f19868403018952613e8f838351613b7b565b98840198925090830190600101613e73565b5090979650505050505050565b60018060a01b0381511682526000602080830151818501526040808401518186015260608085015181870152608085015160e06080880152613ef360e0880182613e1b565b905060a086015187820360a08901528181518084528684019150868160051b85010187840193506000805b83811015613f8657868303601f190185528551805184528a01518a84018a905280518a8501819052908b019083908a8601905b80831015613f715783518252928d019260019290920191908d0190613f51565b50978c0197968c019694505050600101613f1e565b505060c08a015197508a810360c08c0152613fa18189613e56565b9b9a5050505050505050505050565b6001600160a01b0386811682528581166020830152841660408201526060810183905260a060808201819052600090613feb90830184613eae565b979650505050505050565b60018060a01b0381511682526020810151602083015260408101516040830152606081015160608301526000608082015160c0608085015261403b60c0850182613e1b565b905060a083015161404f60a0860182613ca6565b509392505050565b6000602080830181845280855180835260408601915060408160051b870101925083870160005b828110156140ac57603f1988860301845261409a858351613ff6565b9450928501929085019060010161407e565b5092979650505050505050565b6000806000604084860312156140ce57600080fd5b8335925060208401356001600160401b038111156140eb57600080fd5b6140f786828701613bcf565b9497909650939450505050565b634e487b7160e01b600052604160045260246000fd5b60405160c081016001600160401b038111828210171561413c5761413c614104565b60405290565b604051601f8201601f191681016001600160401b038111828210171561416a5761416a614104565b604052919050565b60006001600160401b0382111561418b5761418b614104565b50601f01601f191660200190565b600080604083850312156141ac57600080fd5b8235915060208301356001600160401b038111156141c957600080fd5b8301601f810185136141da57600080fd5b80356141ed6141e882614172565b614142565b81815286602083850101111561420257600080fd5b816020840160208301376000602083830101528093505050509250929050565b60006001600160401b0382111561423b5761423b614104565b5060051b60200190565b6000806040838503121561425857600080fd5b823591506020808401356001600160401b0381111561427657600080fd5b8401601f8101861361428757600080fd5b80356142956141e882614222565b81815260059190911b820183019083810190888311156142b457600080fd5b928401925b828410156142d2578335825292840192908401906142b9565b80955050505050509250929050565b60008060008060008060008060a0898b0312156142fd57600080fd5b883561430881613bba565b9750602089013561431881613bba565b965060408901356001600160401b038082111561433457600080fd5b6143408c838d01613bcf565b909850965060608b013591508082111561435957600080fd5b6143658c838d01613bcf565b909650945060808b013591508082111561437e57600080fd5b5061438b8b828c01613d00565b999c989b5096995094979396929594505050565b6001600160e01b031991909116815260200190565b6000806000604084860312156143c957600080fd5b83356001600160401b038111156143df57600080fd5b6143eb86828701613d00565b909790965060209590950135949350505050565b6000602080830181845280855180835260408601915060408160051b870101925083870160005b828110156140ac57603f19888603018452614442858351613b7b565b94509285019290850190600101614426565b600081518084526020808501808196508360051b8101915082860160005b858110156144b9578284038952815180516001600160a01b0316855285015160408686018190526144a581870183613b7b565b9a87019a9550505090840190600101614472565b5091979650505050505050565b60048110613cb657613cb6613c90565b600081518084526020808501808196508360051b8101915082860160005b858110156144b9578284038952815160a08151865286820151614519888801826144c6565b50604082810151908701526060808301519087015260809182015191860181905261454681870183613b7b565b9a87019a95505050908401906001016144f4565b60208152600060018060a01b0380845116602084015280602085015116604084015250604083015161458f6060840182613c83565b5060608301516080830152608083015160e060a08401526145b4610100840182614454565b905060a0840151601f19808584030160c08601526145d283836144d6565b925060c08601519150808584030160e0860152506145f08282613eae565b95945050505050565b6000806040838503121561460c57600080fd5b50508035926020909101359150565b600080600080600060a0868803121561463357600080fd5b853561463e81613bba565b9450602086013561464e81613bba565b9350604086013561465e81613bba565b92506060860135915060808601356001600160401b0381111561468057600080fd5b61468c88828901613dc7565b9150509295509295909350565b6020808252825182820181905260009190848201906040850190845b818110156146db5783516001600160e01b031916835292840192918401916001016146b5565b50909695505050505050565b60008060008060008060a0878903121561470057600080fd5b863561470b81613bba565b9550602087013561471b81613bba565b9450604087013593506060870135925060808701356001600160401b0381111561474457600080fd5b61475089828a01613d00565b979a9699509497509295939492505050565b602081526000611df16020830184613ff6565b600181811c9082168061478957607f821691505b602082108103613dd957634e487b7160e01b600052602260045260246000fd5b634e487b7160e01b600052603260045260246000fd5b6020808252600a9082015269151a5b595b1bd8dad95960b21b604082015260600190565b6001600160a01b03929092168252602082015260400190565b6020808252600b908201526a27b7363c9025b2b2b832b960a91b604082015260600190565b81835260006001600160fb1b0383111561483a57600080fd5b8260051b8083602087013760009401602001938452509192915050565b60018060a01b0386168152846020820152836040820152608060608201526000613feb608083018486614821565b634e487b7160e01b600052601160045260246000fd5b6000600182016148ad576148ad614885565b5060010190565b6020808252600f908201526e27b7363c9030b93134ba3930ba37b960891b604082015260600190565b6000602082840312156148ef57600080fd5b8151611df181613bba565b60008282101561490c5761490c614885565b500390565b60006020828403121561492357600080fd5b81518015158114611df157600080fd5b6020808252600d908201526c139bdd081c195c9b5a5d1d1959609a1b604082015260600190565b60009081526020902090565b6000815480845260208085019450836000528060002060005b83811015613e4b5781548752958201956001918201910161497f565b600081548084526020808501808196508360051b810191506000868152838120815b86811015614a29578385038a52815485526040868601819052600180840180549288018390528552878520606088019290919086905b80821015614a105783548552938a019392820192908201906149f3565b5050509a87019a509450600291909101906001016149bd565b509298975050505050505050565b60008154614a4481614775565b808552602060018381168015614a615760018114614a7557614aa3565b60ff19851688840152604088019550614aa3565b866000528260002060005b85811015614a9b5781548a8201860152908301908401614a80565b890184019650505b505050505092915050565b600081548084526020808501808196508360051b81019150856000528260002060005b858110156144b9578284038952614ae88483614a37565b98850198935060019182019101614ad1565b600060018060a01b03808716835260806020840152614b1f6080840182885416613c83565b50600185015460a0830152600285015460c0830152600385015460e083015260e0610100830152614b57610160830160048701614966565b607f198084830301610120850152614b72826005890161499b565b9150808483030161014085015250614b8d8160068801614aae565b915050614b9d6040830185613c83565b82606083015295945050505050565b805160068110610cc457600080fd5b60006020808385031215614bce57600080fd5b82516001600160401b0380821115614be557600080fd5b9084019060c08287031215614bf957600080fd5b614c0161411a565b8251614c0c81613bba565b8082525083830151848201526040830151604082015260608301516060820152608083015182811115614c3e57600080fd5b83019150601f82018713614c5157600080fd5b8151614c5f6141e882614222565b81815260059190911b83018501908581019089831115614c7e57600080fd5b938601935b82851015614c9c57845182529386019390860190614c83565b608084015250614cb0905060a08401614bac565b60a08201529695505050505050565b602080825260189082015277139bdd08105c989a5d1c985d1a5bdb94995c5d595cdd195960421b604082015260600190565b6000808335601e19843603018112614d0857600080fd5b83016020810192503590506001600160401b03811115614d2757600080fd5b8060051b3603821315613c1357600080fd5b6000808335601e19843603018112614d5057600080fd5b83016020810192503590506001600160401b03811115614d6f57600080fd5b803603821315613c1357600080fd5b81835281816020850137506000828201602090810191909152601f909101601f19169091010190565b60008235603e19833603018112614dbd57600080fd5b90910192915050565b81835260006020808501808196508560051b810191508460005b878110156144b9578284038952614df78288614da7565b60408135614e0481613bba565b6001600160a01b03168652614e1b82880183614d39565b92508188880152614e2f8288018483614d7e565b9b88019b965050509185019150600101614de0565b60048110610bb557600080fd5b81835260006020808501808196508560051b81019150846000805b88811015614a29578385038a528235609e19893603018112614e8c578283fd5b88018035865260a087820135614ea181614e44565b614ead898901826144c6565b5060408281013590880152606080830135908801526080614ed081840184614d39565b935082828a0152614ee4838a018583614d7e565b9d8a019d98505050938701935050600101614e6c565b6000823560de19833603018112614dbd57600080fd5b81835260006020808501808196508560051b810191508460005b878110156144b9578284038952614f418288614d39565b614f4c868284614d7e565b9a87019a9550505090840190600101614f2a565b60008135614f6d81613bba565b6001600160a01b03168352602082810135818501526040808401358186015260608085013590860152614fa36080850185614cf1565b60e06080880152614fb860e088018284614821565b915050614fc860a0860186614cf1565b87830360a0890152808352848301600582901b840186018360005b8481101561503657868303601f19018452614ffe8287614da7565b8035845261500e8a820182614cf1565b9150898b8601526150228a86018383614821565b958b01959450505090880190600101614fe3565b505061504560c08a018a614cf1565b9750955089810360c08b015261505c818888614f10565b9a9950505050505050505050565b6001600160a01b03858116825260806020830152600090853561508c81613bba565b16608083015261509e60208601613d82565b6150ab60a0840182613c83565b506150b860408601613d82565b6150c560c0840182613c83565b50606085013560e08301526150dd6080860186614cf1565b60e06101008501526150f461016085018284614dc6565b91505061510460a0870187614cf1565b607f19808685030161012087015261511d848385614e51565b935061512c60c08a018a614efa565b9250808685030161014087015250506151458282614f60565b60408501969096525050506060015292915050565b6020808252601e908201527f6c656e677468206d757374206d61746368206f7574636f6d65536c6f74730000604082015260600190565b8381526040602082015260006145f0604083018486614821565b6001600160a01b038416815260208082018490526060604083018190528351908301819052600091848101916080850190845b818110156151fa578451835293830193918301916001016151de565b509098975050505050505050565b6000604080830181845280865480835260609250828601915060058382821b8801018960005260208060002060005b8581101561529d57605f198b850301875260a08254855260ff600184015416615262858701826144c6565b5060028301548a86015260038301548986015280608086015261528a81860160048501614a37565b9784019794505090840190600101615237565b5050979097019790975250939695505050505050565b6000602082840312156152c557600080fd5b5051919050565b6060815260006152e0606083018688614d7e565b6001600160a01b03949094166020830152506040015292915050565b600081600019048311821515161561531657615316614885565b500290565b60006020828403121561532d57600080fd5b8135611df181613bba565b80546001600160a01b0319166001600160a01b0392909216919091179055565b6000808335601e1984360301811261536f57600080fd5b8301803591506001600160401b0382111561538957600080fd5b6020019150600581901b3603821315613c1357600080fd5b60008235603e198336030181126153b757600080fd5b9190910192915050565b5b81811015612dd257600081556001016153c2565b600019600383901b1c191660019190911b1790565b6153f58154614775565b8015612dd257601f81116001811461540f57505060009055565b82600052602060002061542d601f840160051c8201600183016153c1565b506020600090812081855555505050565b6000808335601e1984360301811261545557600080fd5b8301803591506001600160401b0382111561546f57600080fd5b602001915036819003821315613c1357600080fd5b601f821115611a1257806000526020600020601f840160051c810160208510156154ab5750805b61089d601f850160051c8301826153c1565b81356154c881613bba565b6154d28183615338565b50600180820160206154e68186018661543e565b6001600160401b038111156154fd576154fd614104565b6155118161550b8654614775565b86615484565b6000601f82116001811461553f576000831561552d5750838201355b61553784826153d6565b875550610948565b601f19831661554d8761495a565b835b8281101561556c578685013582559387019390890190870161554f565b50848210156155895760001960f88660031b161c19848701351681555b50505050841b90930190915550505050565b60008235609e198336030181126153b757600080fd5b8135815560018082016020808501356155c981614e44565b600481106155d9576155d9613c90565b60ff1983541660ff821681178455505060408501356002850155606085013560038501556004840191506154e6608086018661543e565b600160401b83111561562457615624614104565b8054838255808410156156c8577f3333333333333333333333333333333333333333333333333333333333333333600181831181161561566657615666614885565b600582871182161561567a5761567a614885565b600085815260208120909350878202810190828602015b808210156156c25784825584848301558460028301558460038301556156b9600483016153eb565b90820190615691565b50505050505b50816156d38261495a565b60005b85811015611cea576156f16156eb848761559b565b836155b1565b60209290920191600591909101906001016156d6565b6000823560de198336030181126153b757600080fd5b805460008083558115611a1257828152602081208281015b8082101561089d57828255600182019150615735565b813581556001808201602061576281860186615358565b600160401b81111561577657615776614104565b8354818555808210156157aa5760008581528481208381019083015b808210156157a65782825590880190615792565b5050505b506000938452828420935b818110156157d05782358555938501939183019185016157b5565b5050505050505050565b600160401b8311156157ee576157ee614104565b805483825580841015615866576001600160ff1b03600181831181161561581757615817614885565b81861181161561582957615829614885565b60008481526020812090925086821b81019084831b015b808210156158615783825561585683830161571d565b600282019150615840565b505050505b50816158718261495a565b60005b85811015611cea5761588f61588984876153a1565b8361574b565b6020929092019160029190910190600101615874565b6001600160401b038311156158bc576158bc614104565b6158d0836158ca8354614775565b83615484565b6000601f8411600181146158fe57600085156158ec5750838201355b6158f686826153d6565b84555061089d565b601f19851661590c8461495a565b835b8281101561592e578685013582556020948501946001909201910161590e565b508682101561594b5760001960f88860031b161c19848701351681555b505060018560011b0183555050505050565b600160401b83111561597157615971614104565b8054838255808410156159fa576000828152602081208581019083015b808210156159f6576159a08254614775565b80156159ea57601f808211600181146159bb578585556159e7565b6159c48561495a565b6159d883850160051c8201600183016153c1565b50600085815260208120818755555b50505b5060018201915061598e565b5050505b5081615a058261495a565b60005b85811015611cea57615a1a838661543e565b615a258183866158a5565b50506020929092019160019182019101615a08565b8135615a4581613bba565b615a4f8183615338565b50600160208084013582840155604084013560028401556060840135600384015560048301615a816080860186615358565b600160401b811115615a9557615a95614104565b825481845580821015615aba578360005284600020615ab88282018483016153c1565b505b506000928352838320925b81811015615ae0578235845592850192918401918501615ac5565b505050505050615af360a0830183615358565b615b018183600586016157da565b5050615b1060c0830183615358565b613b7581836006860161595d565b8135615b2981613bba565b615b338183615338565b506001602080840135615b4581613bba565b615b5181848601615338565b5060026040850135615b6281613bba565b615b6e81838701615338565b506060850135600385015560048401615b8a6080870187615358565b600160401b811115615b9e57615b9e614104565b825481845580821015615c0e576001600160ff1b03808211881615615bc557615bc5614885565b808311881615615bd757615bd7614885565b50600084815286812083891b810190838a1b015b80821015615c0a57828255615c018a83016153eb565b90870190615beb565b5050505b5081615c198461495a565b935060005b82811015615c4857615c39615c3383866153a1565b866154bd565b93850193908601908701615c1e565b5050505050505050615c5d60a0830183615358565b615c6b818360058601615610565b5050612dd2615c7d60c0840184615707565b60068301615a3a565b60609290921b6001600160601b0319168252601482015260340190565b60208082526015908201527436b9b39739b2b73232b9103737ba1039b7b63b32b960591b604082015260600190565b600060208284031215615ce457600080fd5b81516001600160401b03811115615cfa57600080fd5b8201601f81018413615d0b57600080fd5b8051615d196141e882614172565b818152856020838501011115615d2e57600080fd5b6145f0826020830160208601613b4b565b600081615d4e57615d4e614885565b506000190190565b60008219821115615d6957615d69614885565b500190565b6020808252602e908201527f496e697469616c697a61626c653a20636f6e747261637420697320616c72656160408201526d191e481a5b9a5d1a585b1a5e995960921b606082015260800190565b602081526000613e13602083018486614d7e56fe71bd81ebe1d98a2944767394e76a9aff18724b2cf04e1db71254f804544b35c7a26469706673582212202c538e11e826af7e7a918e34d5088f4d35b45c5a187bbe6d719a627814214ff664736f6c634300080e0033",
  "libraries": {
    "SolverLib": "0xa6DB7857aa93A71a57BdbFc8b82717F647b48C53"
  },
  "devdoc": {
    "kind": "dev",
    "methods": {
      "addData(bytes32,bytes)": {
        "details": "Only Keeper, only manual slots",
        "params": {
          "_data": "Data to be added",
          "_slot": "Destination slot"
        }
      },
      "addressFromChainIndex(uint256)": {
        "details": "Returns address(0) if no child or parent",
        "params": {
          "_index": "Index of Solver"
        },
        "returns": {
          "_address": "_address"
        }
      },
      "allocationsValid(uint256)": {
        "params": {
          "_index": "Condition index"
        },
        "returns": {
          "_0": "bool"
        }
      },
      "arbitrate(uint256,uint256[])": {
        "params": {
          "_index": "Index of condition",
          "payouts": "Array of uint256 values representing the ratio of the collateral that each outcome can claim. The length of this array must be equal to the outcomeSlotCount"
        }
      },
      "arbitrateNull(uint256)": {
        "params": {
          "_index": "Index of condition"
        }
      },
      "collateralBalance()": {
        "returns": {
          "balance": "balance"
        }
      },
      "condition(uint256)": {
        "params": {
          "index": "Index of condition"
        }
      },
      "confirmPayouts(uint256)": {
        "params": {
          "_index": "Index of condition"
        }
      },
      "deployChild((address,address,address,uint256,(address,bytes)[],(uint256,uint8,bytes32,uint256,bytes)[],(address,uint256,uint256,bytes32,uint256[],(bytes32,bytes32[])[],string[])))": {
        "params": {
          "_config": "Configuration of the child Solver"
        },
        "returns": {
          "_0": "address"
        }
      },
      "executeSolve(uint256)": {
        "details": "require(ingestsValid())",
        "params": {
          "_index": "Index of condition to execute on"
        }
      },
      "getAllData(bytes32)": {
        "params": {
          "_slot": "slotId"
        },
        "returns": {
          "data": "data"
        }
      },
      "getCallbackOutput(bytes32)": {
        "params": {
          "_slot": "Slot containing data"
        },
        "returns": {
          "data": "data"
        }
      },
      "getData(bytes32)": {
        "params": {
          "_slot": "slotId"
        },
        "returns": {
          "data": "data"
        }
      },
      "getStatus(uint256)": {
        "params": {
          "conditionIndex": "index of condition"
        },
        "returns": {
          "status": "status"
        }
      },
      "handleCallback(bytes32)": {
        "details": "only upstream Solver",
        "params": {
          "_slot": "Destination slot for the data being sent"
        }
      },
      "ingestsValid()": {
        "returns": {
          "_0": "bool"
        }
      },
      "init(address,address,address,uint256,(address,address,address,uint256,(address,bytes)[],(uint256,uint8,bytes32,uint256,bytes)[],(address,uint256,uint256,bytes32,uint256[],(bytes32,bytes32[])[],string[])))": {
        "details": "initializer",
        "params": {
          "_chainIndex": "The index of this Solver in the chain",
          "_chainParent": "The address of the Solver above this one in the chain. address(0) if this Solver is first.",
          "_solverConfig": "The configuration of this Solver"
        }
      },
      "isRecipient(address,uint256)": {
        "params": {
          "account": "address to check",
          "conditionIndex": "condition to check"
        },
        "returns": {
          "_0": "bool"
        }
      },
      "onERC1155BatchReceived(address,address,uint256[],uint256[],bytes)": {
        "details": "Handles the receipt of a multiple ERC1155 token types. This function is called at the end of a `safeBatchTransferFrom` after the balances have been updated. To accept the transfer(s), this must return `bytes4(keccak256(\"onERC1155BatchReceived(address,address,uint256[],uint256[],bytes)\"))` (i.e. 0xbc197c81, or its own function selector).",
        "params": {
          "data": "Additional data with no specified format",
          "from": "The address which previously owned the token",
          "ids": "An array containing ids of each token being transferred (order and length must match values array)",
          "operator": "The address which initiated the batch transfer (i.e. msg.sender)",
          "values": "An array containing amounts of each token being transferred (order and length must match ids array)"
        },
        "returns": {
          "_0": "`bytes4(keccak256(\"onERC1155BatchReceived(address,address,uint256[],uint256[],bytes)\"))` if transfer is allowed"
        }
      },
      "onERC1155Received(address,address,uint256,uint256,bytes)": {
        "details": "Handles the receipt of a single ERC1155 token type. This function is called at the end of a `safeTransferFrom` after the balance has been updated. To accept the transfer, this must return `bytes4(keccak256(\"onERC1155Received(address,address,uint256,uint256,bytes)\"))` (i.e. 0xf23a6e61, or its own function selector).",
        "params": {
          "data": "Additional data with no specified format",
          "from": "The address which previously owned the token",
          "id": "The ID of the token being transferred",
          "operator": "The address which initiated the transfer (i.e. msg.sender)",
          "value": "The amount of tokens being transferred"
        },
        "returns": {
          "_0": "`bytes4(keccak256(\"onERC1155Received(address,address,uint256,uint256,bytes)\"))` if transfer is allowed"
        }
      },
      "prepareSolve(uint256)": {
        "params": {
          "_index": "Index of the new condition to be created."
        }
      },
      "proposePayouts(uint256,uint256[])": {
        "params": {
          "_index": "Index of condition",
          "_payouts": "Array of uint256 values representing the ratio of the collateral that each outcome can claim. The length of this array must be equal to the outcomeSlotCount"
        }
      },
      "redeemPosition(address,bytes32,bytes32,uint256[])": {
        "details": "only Keeper"
      },
      "registerOutgoingCallback(bytes32,uint256)": {
        "details": "only downstream Solver",
        "params": {
          "_chainIndex": "Index of the Solver requesting this callback",
          "_slot": "Slot being waited on by downstream Solver"
        }
      },
      "requestArbitration(uint256)": {
        "params": {
          "_index": "Index of condition"
        }
      },
      "setTimelock(uint256,uint256)": {
        "params": {
          "_index": "Timelock/Condition index to be updated"
        }
      },
      "setTrackingId(bytes32)": {
        "params": {
          "_trackingId": "bytes32"
        }
      }
    },
    "version": 1
  },
  "userdoc": {
    "kind": "user",
    "methods": {
      "addData(bytes32,bytes)": {
        "notice": "Allows keeper to manually add data to IngestType.Manual slots after executeIngests"
      },
      "addressFromChainIndex(uint256)": {
        "notice": "Get address for a Solver by its index in the chain"
      },
      "allocationsValid(uint256)": {
        "notice": "Verifies that all slots corresponding to recipients have been filled before CT allocation"
      },
      "arbitrate(uint256,uint256[])": {
        "notice": "Allows arbitrator to unilaterally make a payout report."
      },
      "arbitrateNull(uint256)": {
        "notice": "Returns condition.status to OutcomeProposed without a ruling."
      },
      "arbitrator()": {
        "notice": "Get Arbitrator address "
      },
      "collateralBalance()": {
        "notice": "Get balance of collateral token on Solver"
      },
      "condition(uint256)": {
        "notice": "Get one condition"
      },
      "confirmPayouts(uint256)": {
        "notice": "Confirm payouts for condition (reportPayouts to ConditionalTokens contract)"
      },
      "deployChild((address,address,address,uint256,(address,bytes)[],(uint256,uint8,bytes32,uint256,bytes)[],(address,uint256,uint256,bytes32,uint256[],(bytes32,bytes32[])[],string[])))": {
        "notice": "Deploys a new Solver as a child"
      },
      "executeSolve(uint256)": {
        "notice": "Mints conditional tokens, allocates them to recipients specified by ingested data and tries to do the same for child Solver"
      },
      "getAllData(bytes32)": {
        "notice": "Get data for each condition from a slot"
      },
      "getCallbackOutput(bytes32)": {
        "notice": "A simple getter that requires upstream slot ver. == our condition ver."
      },
      "getConditions()": {
        "notice": "Get all conditions"
      },
      "getConfig()": {
        "notice": "Get Solver config"
      },
      "getData(bytes32)": {
        "notice": "Get most recent data of a slot"
      },
      "getStatus(uint256)": {
        "notice": "Get status of a condition"
      },
      "handleCallback(bytes32)": {
        "notice": "Handle upstream Solver making callback and ingest the data"
      },
      "ingestsValid()": {
        "notice": "Verifies that all ingests have been performed for a condition"
      },
      "init(address,address,address,uint256,(address,address,address,uint256,(address,bytes)[],(uint256,uint8,bytes32,uint256,bytes)[],(address,uint256,uint256,bytes32,uint256[],(bytes32,bytes32[])[],string[])))": {
        "notice": "Called by SolverFactory when contract is created. Nothing else should ever need to call this"
      },
      "isRecipient(address,uint256)": {
        "notice": "Returns recipient addresses for a condition"
      },
      "keeper()": {
        "notice": "Get Keeper address "
      },
      "prepareSolve(uint256)": {
        "notice": "Creates a new condition, associated timelock, and executes ingests for this Solver and any child Solvers"
      },
      "proposePayouts(uint256,uint256[])": {
        "notice": "Propose payouts (AKA outcomes) for a condition"
      },
      "redeemPosition(address,bytes32,bytes32,uint256[])": {
        "notice": "Redeems CTs held by this Solver. See ConditionalTokens contract for more info."
      },
      "registerOutgoingCallback(bytes32,uint256)": {
        "notice": "Register callback expected by a downstream Solver for some data"
      },
      "requestArbitration(uint256)": {
        "notice": "Sets condition.status to ArbitrationRequested."
      },
      "setTimelock(uint256,uint256)": {
        "notice": "Set new timelock for a condition"
      },
      "setTrackingId(bytes32)": {
        "notice": "set ID that will be passed as data for conditional token transfers"
      }
    },
    "version": 1
  },
  "storageLayout": {
    "storage": [
      {
        "astId": 8285,
        "contract": "contracts/solvers/WriterSolverV1.sol:WriterSolverV1",
        "label": "_context",
        "offset": 0,
        "slot": "0",
        "type": "t_address"
      },
      {
        "astId": 8295,
        "contract": "contracts/solvers/WriterSolverV1.sol:WriterSolverV1",
        "label": "modules",
        "offset": 0,
        "slot": "1",
        "type": "t_mapping(t_address,t_bool)"
      },
      {
        "astId": 8299,
        "contract": "contracts/solvers/WriterSolverV1.sol:WriterSolverV1",
        "label": "state",
        "offset": 0,
        "slot": "2",
        "type": "t_mapping(t_bytes32,t_bytes_storage)"
      },
      {
        "astId": 130,
        "contract": "contracts/solvers/WriterSolverV1.sol:WriterSolverV1",
        "label": "_initialized",
        "offset": 0,
        "slot": "3",
        "type": "t_uint8"
      },
      {
        "astId": 133,
        "contract": "contracts/solvers/WriterSolverV1.sol:WriterSolverV1",
        "label": "_initializing",
        "offset": 1,
        "slot": "3",
        "type": "t_bool"
      },
      {
        "astId": 9930,
        "contract": "contracts/solvers/WriterSolverV1.sol:WriterSolverV1",
        "label": "factoryAddress",
        "offset": 2,
        "slot": "3",
        "type": "t_address"
      },
      {
        "astId": 9932,
        "contract": "contracts/solvers/WriterSolverV1.sol:WriterSolverV1",
        "label": "ctfAddress",
        "offset": 0,
        "slot": "4",
        "type": "t_address"
      },
      {
        "astId": 9934,
        "contract": "contracts/solvers/WriterSolverV1.sol:WriterSolverV1",
        "label": "deployerAddress",
        "offset": 0,
        "slot": "5",
        "type": "t_address"
      },
      {
        "astId": 9937,
        "contract": "contracts/solvers/WriterSolverV1.sol:WriterSolverV1",
        "label": "config",
        "offset": 0,
        "slot": "6",
        "type": "t_struct(Config)11735_storage"
      },
      {
        "astId": 9941,
        "contract": "contracts/solvers/WriterSolverV1.sol:WriterSolverV1",
        "label": "conditions",
        "offset": 0,
        "slot": "19",
        "type": "t_array(t_struct(Condition)11714_storage)dyn_storage"
      },
      {
        "astId": 9943,
        "contract": "contracts/solvers/WriterSolverV1.sol:WriterSolverV1",
        "label": "chainParent",
        "offset": 0,
        "slot": "20",
        "type": "t_address"
      },
      {
        "astId": 9945,
        "contract": "contracts/solvers/WriterSolverV1.sol:WriterSolverV1",
        "label": "chainChild",
        "offset": 0,
        "slot": "21",
        "type": "t_address"
      },
      {
        "astId": 9947,
        "contract": "contracts/solvers/WriterSolverV1.sol:WriterSolverV1",
        "label": "chainIndex",
        "offset": 0,
        "slot": "22",
        "type": "t_uint256"
      },
      {
        "astId": 9950,
        "contract": "contracts/solvers/WriterSolverV1.sol:WriterSolverV1",
        "label": "timelocks",
        "offset": 0,
        "slot": "23",
        "type": "t_array(t_uint256)dyn_storage"
      },
      {
        "astId": 9952,
        "contract": "contracts/solvers/WriterSolverV1.sol:WriterSolverV1",
        "label": "trackingId",
        "offset": 0,
        "slot": "24",
        "type": "t_bytes32"
      },
      {
        "astId": 9955,
        "contract": "contracts/solvers/WriterSolverV1.sol:WriterSolverV1",
        "label": "callbacks",
        "offset": 0,
        "slot": "25",
        "type": "t_struct(Callbacks)11759_storage"
      },
      {
        "astId": 9958,
        "contract": "contracts/solvers/WriterSolverV1.sol:WriterSolverV1",
        "label": "datas",
        "offset": 0,
        "slot": "29",
        "type": "t_struct(Datas)11745_storage"
      },
      {
        "astId": 8420,
        "contract": "contracts/solvers/WriterSolverV1.sol:WriterSolverV1",
        "label": "permits",
        "offset": 0,
        "slot": "31",
        "type": "t_array(t_bytes4)dyn_storage"
      },
      {
        "astId": 12779,
        "contract": "contracts/solvers/WriterSolverV1.sol:WriterSolverV1",
        "label": "writerSlot",
        "offset": 0,
        "slot": "32",
        "type": "t_bytes32"
      }
    ],
    "types": {
      "t_address": {
        "encoding": "inplace",
        "label": "address",
        "numberOfBytes": "20"
      },
      "t_array(t_address)dyn_storage": {
        "base": "t_address",
        "encoding": "dynamic_array",
        "label": "address[]",
        "numberOfBytes": "32"
      },
      "t_array(t_bytes32)dyn_storage": {
        "base": "t_bytes32",
        "encoding": "dynamic_array",
        "label": "bytes32[]",
        "numberOfBytes": "32"
      },
      "t_array(t_bytes4)dyn_storage": {
        "base": "t_bytes4",
        "encoding": "dynamic_array",
        "label": "bytes4[]",
        "numberOfBytes": "32"
      },
      "t_array(t_bytes_storage)dyn_storage": {
        "base": "t_bytes_storage",
        "encoding": "dynamic_array",
        "label": "bytes[]",
        "numberOfBytes": "32"
      },
      "t_array(t_string_storage)dyn_storage": {
        "base": "t_string_storage",
        "encoding": "dynamic_array",
        "label": "string[]",
        "numberOfBytes": "32"
      },
      "t_array(t_struct(Allocation)11785_storage)dyn_storage": {
        "base": "t_struct(Allocation)11785_storage",
        "encoding": "dynamic_array",
        "label": "struct SolverLib.Allocation[]",
        "numberOfBytes": "32"
      },
      "t_array(t_struct(Condition)11714_storage)dyn_storage": {
        "base": "t_struct(Condition)11714_storage",
        "encoding": "dynamic_array",
        "label": "struct SolverLib.Condition[]",
        "numberOfBytes": "32"
      },
      "t_array(t_struct(Ingest)11698_storage)dyn_storage": {
        "base": "t_struct(Ingest)11698_storage",
        "encoding": "dynamic_array",
        "label": "struct SolverLib.Ingest[]",
        "numberOfBytes": "32"
      },
      "t_array(t_struct(Loader)8291_storage)dyn_storage": {
        "base": "t_struct(Loader)8291_storage",
        "encoding": "dynamic_array",
        "label": "struct Modulated.Loader[]",
        "numberOfBytes": "32"
      },
      "t_array(t_uint256)dyn_storage": {
        "base": "t_uint256",
        "encoding": "dynamic_array",
        "label": "uint256[]",
        "numberOfBytes": "32"
      },
      "t_bool": {
        "encoding": "inplace",
        "label": "bool",
        "numberOfBytes": "1"
      },
      "t_bytes32": {
        "encoding": "inplace",
        "label": "bytes32",
        "numberOfBytes": "32"
      },
      "t_bytes4": {
        "encoding": "inplace",
        "label": "bytes4",
        "numberOfBytes": "4"
      },
      "t_bytes_storage": {
        "encoding": "bytes",
        "label": "bytes",
        "numberOfBytes": "32"
      },
      "t_contract(IERC20)2691": {
        "encoding": "inplace",
        "label": "contract IERC20",
        "numberOfBytes": "20"
      },
      "t_contract(IModule)7747": {
        "encoding": "inplace",
        "label": "contract IModule",
        "numberOfBytes": "20"
      },
      "t_contract(Solver)11547": {
        "encoding": "inplace",
        "label": "contract Solver",
        "numberOfBytes": "20"
      },
      "t_enum(IngestType)11679": {
        "encoding": "inplace",
        "label": "enum SolverLib.IngestType",
        "numberOfBytes": "1"
      },
      "t_enum(Status)11686": {
        "encoding": "inplace",
        "label": "enum SolverLib.Status",
        "numberOfBytes": "1"
      },
      "t_mapping(t_address,t_bool)": {
        "encoding": "mapping",
        "key": "t_address",
        "label": "mapping(address => bool)",
        "numberOfBytes": "32",
        "value": "t_bool"
      },
      "t_mapping(t_bytes32,t_array(t_address)dyn_storage)": {
        "encoding": "mapping",
        "key": "t_bytes32",
        "label": "mapping(bytes32 => address[])",
        "numberOfBytes": "32",
        "value": "t_array(t_address)dyn_storage"
      },
      "t_mapping(t_bytes32,t_array(t_bytes_storage)dyn_storage)": {
        "encoding": "mapping",
        "key": "t_bytes32",
        "label": "mapping(bytes32 => bytes[])",
        "numberOfBytes": "32",
        "value": "t_array(t_bytes_storage)dyn_storage"
      },
      "t_mapping(t_bytes32,t_bytes_storage)": {
        "encoding": "mapping",
        "key": "t_bytes32",
        "label": "mapping(bytes32 => bytes)",
        "numberOfBytes": "32",
        "value": "t_bytes_storage"
      },
      "t_mapping(t_bytes32,t_uint256)": {
        "encoding": "mapping",
        "key": "t_bytes32",
        "label": "mapping(bytes32 => uint256)",
        "numberOfBytes": "32",
        "value": "t_uint256"
      },
      "t_string_storage": {
        "encoding": "bytes",
        "label": "string",
        "numberOfBytes": "32"
      },
      "t_struct(Allocation)11785_storage": {
        "encoding": "inplace",
        "label": "struct SolverLib.Allocation",
        "members": [
          {
            "astId": 11781,
            "contract": "contracts/solvers/WriterSolverV1.sol:WriterSolverV1",
            "label": "recipientAddressSlot",
            "offset": 0,
            "slot": "0",
            "type": "t_bytes32"
          },
          {
            "astId": 11784,
            "contract": "contracts/solvers/WriterSolverV1.sol:WriterSolverV1",
            "label": "recipientAmountSlots",
            "offset": 0,
            "slot": "1",
            "type": "t_array(t_bytes32)dyn_storage"
          }
        ],
        "numberOfBytes": "64"
      },
      "t_struct(Callbacks)11759_storage": {
        "encoding": "inplace",
        "label": "struct SolverLib.Callbacks",
        "members": [
          {
            "astId": 11747,
            "contract": "contracts/solvers/WriterSolverV1.sol:WriterSolverV1",
            "label": "numIncoming",
            "offset": 0,
            "slot": "0",
            "type": "t_uint256"
          },
          {
            "astId": 11749,
            "contract": "contracts/solvers/WriterSolverV1.sol:WriterSolverV1",
            "label": "numOutgoing",
            "offset": 0,
            "slot": "1",
            "type": "t_uint256"
          },
          {
            "astId": 11754,
            "contract": "contracts/solvers/WriterSolverV1.sol:WriterSolverV1",
            "label": "outgoing",
            "offset": 0,
            "slot": "2",
            "type": "t_mapping(t_bytes32,t_array(t_address)dyn_storage)"
          },
          {
            "astId": 11758,
            "contract": "contracts/solvers/WriterSolverV1.sol:WriterSolverV1",
            "label": "incoming",
            "offset": 0,
            "slot": "3",
            "type": "t_mapping(t_bytes32,t_uint256)"
          }
        ],
        "numberOfBytes": "128"
      },
      "t_struct(Condition)11714_storage": {
        "encoding": "inplace",
        "label": "struct SolverLib.Condition",
        "members": [
          {
            "astId": 11701,
            "contract": "contracts/solvers/WriterSolverV1.sol:WriterSolverV1",
            "label": "collateralToken",
            "offset": 0,
            "slot": "0",
            "type": "t_contract(IERC20)2691"
          },
          {
            "astId": 11703,
            "contract": "contracts/solvers/WriterSolverV1.sol:WriterSolverV1",
            "label": "questionId",
            "offset": 0,
            "slot": "1",
            "type": "t_bytes32"
          },
          {
            "astId": 11705,
            "contract": "contracts/solvers/WriterSolverV1.sol:WriterSolverV1",
            "label": "parentCollectionId",
            "offset": 0,
            "slot": "2",
            "type": "t_bytes32"
          },
          {
            "astId": 11707,
            "contract": "contracts/solvers/WriterSolverV1.sol:WriterSolverV1",
            "label": "conditionId",
            "offset": 0,
            "slot": "3",
            "type": "t_bytes32"
          },
          {
            "astId": 11710,
            "contract": "contracts/solvers/WriterSolverV1.sol:WriterSolverV1",
            "label": "payouts",
            "offset": 0,
            "slot": "4",
            "type": "t_array(t_uint256)dyn_storage"
          },
          {
            "astId": 11713,
            "contract": "contracts/solvers/WriterSolverV1.sol:WriterSolverV1",
            "label": "status",
            "offset": 0,
            "slot": "5",
            "type": "t_enum(Status)11686"
          }
        ],
        "numberOfBytes": "192"
      },
      "t_struct(ConditionBase)11779_storage": {
        "encoding": "inplace",
        "label": "struct SolverLib.ConditionBase",
        "members": [
          {
            "astId": 11762,
            "contract": "contracts/solvers/WriterSolverV1.sol:WriterSolverV1",
            "label": "collateralToken",
            "offset": 0,
            "slot": "0",
            "type": "t_contract(IERC20)2691"
          },
          {
            "astId": 11764,
            "contract": "contracts/solvers/WriterSolverV1.sol:WriterSolverV1",
            "label": "outcomeSlots",
            "offset": 0,
            "slot": "1",
            "type": "t_uint256"
          },
          {
            "astId": 11766,
            "contract": "contracts/solvers/WriterSolverV1.sol:WriterSolverV1",
            "label": "parentCollectionIndexSet",
            "offset": 0,
            "slot": "2",
            "type": "t_uint256"
          },
          {
            "astId": 11768,
            "contract": "contracts/solvers/WriterSolverV1.sol:WriterSolverV1",
            "label": "amountSlot",
            "offset": 0,
            "slot": "3",
            "type": "t_bytes32"
          },
          {
            "astId": 11771,
            "contract": "contracts/solvers/WriterSolverV1.sol:WriterSolverV1",
            "label": "partition",
            "offset": 0,
            "slot": "4",
            "type": "t_array(t_uint256)dyn_storage"
          },
          {
            "astId": 11775,
            "contract": "contracts/solvers/WriterSolverV1.sol:WriterSolverV1",
            "label": "allocations",
            "offset": 0,
            "slot": "5",
            "type": "t_array(t_struct(Allocation)11785_storage)dyn_storage"
          },
          {
            "astId": 11778,
            "contract": "contracts/solvers/WriterSolverV1.sol:WriterSolverV1",
            "label": "outcomeURIs",
            "offset": 0,
            "slot": "6",
            "type": "t_array(t_string_storage)dyn_storage"
          }
        ],
        "numberOfBytes": "224"
      },
      "t_struct(Config)11735_storage": {
        "encoding": "inplace",
        "label": "struct SolverLib.Config",
        "members": [
          {
            "astId": 11717,
            "contract": "contracts/solvers/WriterSolverV1.sol:WriterSolverV1",
            "label": "implementation",
            "offset": 0,
            "slot": "0",
            "type": "t_contract(Solver)11547"
          },
          {
            "astId": 11719,
            "contract": "contracts/solvers/WriterSolverV1.sol:WriterSolverV1",
            "label": "keeper",
            "offset": 0,
            "slot": "1",
            "type": "t_address"
          },
          {
            "astId": 11721,
            "contract": "contracts/solvers/WriterSolverV1.sol:WriterSolverV1",
            "label": "arbitrator",
            "offset": 0,
            "slot": "2",
            "type": "t_address"
          },
          {
            "astId": 11723,
            "contract": "contracts/solvers/WriterSolverV1.sol:WriterSolverV1",
            "label": "timelockSeconds",
            "offset": 0,
            "slot": "3",
            "type": "t_uint256"
          },
          {
            "astId": 11727,
            "contract": "contracts/solvers/WriterSolverV1.sol:WriterSolverV1",
            "label": "moduleLoaders",
            "offset": 0,
            "slot": "4",
            "type": "t_array(t_struct(Loader)8291_storage)dyn_storage"
          },
          {
            "astId": 11731,
            "contract": "contracts/solvers/WriterSolverV1.sol:WriterSolverV1",
            "label": "ingests",
            "offset": 0,
            "slot": "5",
            "type": "t_array(t_struct(Ingest)11698_storage)dyn_storage"
          },
          {
            "astId": 11734,
            "contract": "contracts/solvers/WriterSolverV1.sol:WriterSolverV1",
            "label": "conditionBase",
            "offset": 0,
            "slot": "6",
            "type": "t_struct(ConditionBase)11779_storage"
          }
        ],
        "numberOfBytes": "416"
      },
      "t_struct(Datas)11745_storage": {
        "encoding": "inplace",
        "label": "struct SolverLib.Datas",
        "members": [
          {
            "astId": 11740,
            "contract": "contracts/solvers/WriterSolverV1.sol:WriterSolverV1",
            "label": "slots",
            "offset": 0,
            "slot": "0",
            "type": "t_mapping(t_bytes32,t_array(t_bytes_storage)dyn_storage)"
          },
          {
            "astId": 11744,
            "contract": "contracts/solvers/WriterSolverV1.sol:WriterSolverV1",
            "label": "slotIngestIdx",
            "offset": 0,
            "slot": "1",
            "type": "t_mapping(t_bytes32,t_uint256)"
          }
        ],
        "numberOfBytes": "64"
      },
      "t_struct(Ingest)11698_storage": {
        "encoding": "inplace",
        "label": "struct SolverLib.Ingest",
        "members": [
          {
            "astId": 11688,
            "contract": "contracts/solvers/WriterSolverV1.sol:WriterSolverV1",
            "label": "executions",
            "offset": 0,
            "slot": "0",
            "type": "t_uint256"
          },
          {
            "astId": 11691,
            "contract": "contracts/solvers/WriterSolverV1.sol:WriterSolverV1",
            "label": "ingestType",
            "offset": 0,
            "slot": "1",
            "type": "t_enum(IngestType)11679"
          },
          {
            "astId": 11693,
            "contract": "contracts/solvers/WriterSolverV1.sol:WriterSolverV1",
            "label": "slot",
            "offset": 0,
            "slot": "2",
            "type": "t_bytes32"
          },
          {
            "astId": 11695,
            "contract": "contracts/solvers/WriterSolverV1.sol:WriterSolverV1",
            "label": "solverIndex",
            "offset": 0,
            "slot": "3",
            "type": "t_uint256"
          },
          {
            "astId": 11697,
            "contract": "contracts/solvers/WriterSolverV1.sol:WriterSolverV1",
            "label": "data",
            "offset": 0,
            "slot": "4",
            "type": "t_bytes_storage"
          }
        ],
        "numberOfBytes": "160"
      },
      "t_struct(Loader)8291_storage": {
        "encoding": "inplace",
        "label": "struct Modulated.Loader",
        "members": [
          {
            "astId": 8288,
            "contract": "contracts/solvers/WriterSolverV1.sol:WriterSolverV1",
            "label": "module",
            "offset": 0,
            "slot": "0",
            "type": "t_contract(IModule)7747"
          },
          {
            "astId": 8290,
            "contract": "contracts/solvers/WriterSolverV1.sol:WriterSolverV1",
            "label": "data",
            "offset": 0,
            "slot": "1",
            "type": "t_bytes_storage"
          }
        ],
        "numberOfBytes": "64"
      },
      "t_uint256": {
        "encoding": "inplace",
        "label": "uint256",
        "numberOfBytes": "32"
      },
      "t_uint8": {
        "encoding": "inplace",
        "label": "uint8",
        "numberOfBytes": "1"
      }
    }
  }
}