{
  "address": "0x2009d1DBf6a753030129BF3F83805b5d0217a694",
  "abi": [
    {
      "inputs": [
        {
          "internalType": "address",
          "name": "_ctfAddress",
          "type": "address"
        }
      ],
      "stateMutability": "nonpayable",
      "type": "constructor"
    },
    {
      "anonymous": false,
      "inputs": [
        {
          "indexed": true,
          "internalType": "bytes32",
          "name": "id",
          "type": "bytes32"
        }
      ],
      "name": "CreateProposal",
      "type": "event"
    },
    {
      "anonymous": false,
      "inputs": [
        {
          "indexed": true,
          "internalType": "bytes32",
          "name": "id",
          "type": "bytes32"
        },
        {
          "indexed": false,
          "internalType": "uint256",
          "name": "amount",
          "type": "uint256"
        },
        {
          "indexed": false,
          "internalType": "address",
          "name": "to",
          "type": "address"
        }
      ],
      "name": "DefundProposal",
      "type": "event"
    },
    {
      "anonymous": false,
      "inputs": [
        {
          "indexed": true,
          "internalType": "bytes32",
          "name": "id",
          "type": "bytes32"
        }
      ],
      "name": "ExecuteProposal",
      "type": "event"
    },
    {
      "anonymous": false,
      "inputs": [
        {
          "indexed": true,
          "internalType": "bytes32",
          "name": "id",
          "type": "bytes32"
        },
        {
          "indexed": false,
          "internalType": "uint256",
          "name": "amount",
          "type": "uint256"
        },
        {
          "indexed": false,
          "internalType": "address",
          "name": "from",
          "type": "address"
        }
      ],
      "name": "FundProposal",
      "type": "event"
    },
    {
      "inputs": [],
      "name": "conditionalTokens",
      "outputs": [
        {
          "internalType": "contract IConditionalTokens",
          "name": "",
          "type": "address"
        }
      ],
      "stateMutability": "view",
      "type": "function"
    },
    {
      "inputs": [
        {
          "internalType": "bytes32",
          "name": "baseId",
          "type": "bytes32"
        },
        {
          "internalType": "contract IERC20",
          "name": "collateralToken",
          "type": "address"
        },
        {
          "internalType": "contract IIPFSSolutionsHub",
          "name": "ipfsSolutionsHub",
          "type": "address"
        },
        {
          "internalType": "uint256",
          "name": "fundingGoal",
          "type": "uint256"
        },
        {
          "components": [
            {
              "internalType": "contract Solver",
              "name": "implementation",
              "type": "address"
            },
            {
              "internalType": "address",
              "name": "keeper",
              "type": "address"
            },
            {
              "internalType": "address",
              "name": "arbitrator",
              "type": "address"
            },
            {
              "internalType": "uint256",
              "name": "timelockSeconds",
              "type": "uint256"
            },
            {
              "components": [
                {
                  "internalType": "contract IModule",
                  "name": "module",
                  "type": "address"
                },
                {
                  "internalType": "bytes",
                  "name": "data",
                  "type": "bytes"
                }
              ],
              "internalType": "struct Modulated.Loader[]",
              "name": "moduleLoaders",
              "type": "tuple[]"
            },
            {
              "components": [
                {
                  "internalType": "uint256",
                  "name": "executions",
                  "type": "uint256"
                },
                {
                  "internalType": "enum SolverLib.IngestType",
                  "name": "ingestType",
                  "type": "uint8"
                },
                {
                  "internalType": "bytes32",
                  "name": "slot",
                  "type": "bytes32"
                },
                {
                  "internalType": "uint256",
                  "name": "solverIndex",
                  "type": "uint256"
                },
                {
                  "internalType": "bytes",
                  "name": "data",
                  "type": "bytes"
                }
              ],
              "internalType": "struct SolverLib.Ingest[]",
              "name": "ingests",
              "type": "tuple[]"
            },
            {
              "components": [
                {
                  "internalType": "contract IERC20",
                  "name": "collateralToken",
                  "type": "address"
                },
                {
                  "internalType": "uint256",
                  "name": "outcomeSlots",
                  "type": "uint256"
                },
                {
                  "internalType": "uint256",
                  "name": "parentCollectionIndexSet",
                  "type": "uint256"
                },
                {
                  "internalType": "bytes32",
                  "name": "amountSlot",
                  "type": "bytes32"
                },
                {
                  "internalType": "uint256[]",
                  "name": "partition",
                  "type": "uint256[]"
                },
                {
                  "components": [
                    {
                      "internalType": "bytes32",
                      "name": "recipientAddressSlot",
                      "type": "bytes32"
                    },
                    {
                      "internalType": "bytes32[]",
                      "name": "recipientAmountSlots",
                      "type": "bytes32[]"
                    }
                  ],
                  "internalType": "struct SolverLib.Allocation[]",
                  "name": "allocations",
                  "type": "tuple[]"
                },
                {
                  "internalType": "string[]",
                  "name": "outcomeURIs",
                  "type": "string[]"
                }
              ],
              "internalType": "struct SolverLib.ConditionBase",
              "name": "conditionBase",
              "type": "tuple"
            }
          ],
          "internalType": "struct SolverLib.Config[]",
          "name": "solverConfigs",
          "type": "tuple[]"
        },
        {
          "internalType": "string",
          "name": "solverConfigsURI",
          "type": "string"
        },
        {
          "internalType": "string",
          "name": "metadataURI",
          "type": "string"
        }
      ],
      "name": "createIPFSSolutionAndProposal",
      "outputs": [
        {
          "internalType": "bytes32",
          "name": "solutionId",
          "type": "bytes32"
        },
        {
          "internalType": "bytes32",
          "name": "proposalId",
          "type": "bytes32"
        }
      ],
      "stateMutability": "nonpayable",
      "type": "function"
    },
    {
      "inputs": [
        {
          "internalType": "contract IERC20",
          "name": "collateralToken",
          "type": "address"
        },
        {
          "internalType": "address",
          "name": "solutionsHub",
          "type": "address"
        },
        {
          "internalType": "uint256",
          "name": "fundingGoal",
          "type": "uint256"
        },
        {
          "internalType": "bytes32",
          "name": "safeBaseId",
          "type": "bytes32"
        },
        {
          "components": [
            {
              "internalType": "contract Solver",
              "name": "implementation",
              "type": "address"
            },
            {
              "internalType": "address",
              "name": "keeper",
              "type": "address"
            },
            {
              "internalType": "address",
              "name": "arbitrator",
              "type": "address"
            },
            {
              "internalType": "uint256",
              "name": "timelockSeconds",
              "type": "uint256"
            },
            {
              "components": [
                {
                  "internalType": "contract IModule",
                  "name": "module",
                  "type": "address"
                },
                {
                  "internalType": "bytes",
                  "name": "data",
                  "type": "bytes"
                }
              ],
              "internalType": "struct Modulated.Loader[]",
              "name": "moduleLoaders",
              "type": "tuple[]"
            },
            {
              "components": [
                {
                  "internalType": "uint256",
                  "name": "executions",
                  "type": "uint256"
                },
                {
                  "internalType": "enum SolverLib.IngestType",
                  "name": "ingestType",
                  "type": "uint8"
                },
                {
                  "internalType": "bytes32",
                  "name": "slot",
                  "type": "bytes32"
                },
                {
                  "internalType": "uint256",
                  "name": "solverIndex",
                  "type": "uint256"
                },
                {
                  "internalType": "bytes",
                  "name": "data",
                  "type": "bytes"
                }
              ],
              "internalType": "struct SolverLib.Ingest[]",
              "name": "ingests",
              "type": "tuple[]"
            },
            {
              "components": [
                {
                  "internalType": "contract IERC20",
                  "name": "collateralToken",
                  "type": "address"
                },
                {
                  "internalType": "uint256",
                  "name": "outcomeSlots",
                  "type": "uint256"
                },
                {
                  "internalType": "uint256",
                  "name": "parentCollectionIndexSet",
                  "type": "uint256"
                },
                {
                  "internalType": "bytes32",
                  "name": "amountSlot",
                  "type": "bytes32"
                },
                {
                  "internalType": "uint256[]",
                  "name": "partition",
                  "type": "uint256[]"
                },
                {
                  "components": [
                    {
                      "internalType": "bytes32",
                      "name": "recipientAddressSlot",
                      "type": "bytes32"
                    },
                    {
                      "internalType": "bytes32[]",
                      "name": "recipientAmountSlots",
                      "type": "bytes32[]"
                    }
                  ],
                  "internalType": "struct SolverLib.Allocation[]",
                  "name": "allocations",
                  "type": "tuple[]"
                },
                {
                  "internalType": "string[]",
                  "name": "outcomeURIs",
                  "type": "string[]"
                }
              ],
              "internalType": "struct SolverLib.ConditionBase",
              "name": "conditionBase",
              "type": "tuple"
            }
          ],
          "internalType": "struct SolverLib.Config[]",
          "name": "solverConfigs",
          "type": "tuple[]"
        },
        {
          "internalType": "string",
          "name": "metadataURI",
          "type": "string"
        }
      ],
      "name": "createProposal",
      "outputs": [
        {
          "internalType": "bytes32",
          "name": "solutionId",
          "type": "bytes32"
        },
        {
          "internalType": "bytes32",
          "name": "proposalId",
          "type": "bytes32"
        }
      ],
      "stateMutability": "nonpayable",
      "type": "function"
    },
    {
      "inputs": [
        {
          "internalType": "bytes32",
          "name": "proposalId",
          "type": "bytes32"
        },
        {
          "internalType": "contract IERC20",
          "name": "token",
          "type": "address"
        },
        {
          "internalType": "uint256",
          "name": "amount",
          "type": "uint256"
        }
      ],
      "name": "defundProposal",
      "outputs": [],
      "stateMutability": "nonpayable",
      "type": "function"
    },
    {
      "inputs": [
        {
          "internalType": "bytes32",
          "name": "proposalId",
          "type": "bytes32"
        },
        {
          "components": [
            {
              "internalType": "contract Solver",
              "name": "implementation",
              "type": "address"
            },
            {
              "internalType": "address",
              "name": "keeper",
              "type": "address"
            },
            {
              "internalType": "address",
              "name": "arbitrator",
              "type": "address"
            },
            {
              "internalType": "uint256",
              "name": "timelockSeconds",
              "type": "uint256"
            },
            {
              "components": [
                {
                  "internalType": "contract IModule",
                  "name": "module",
                  "type": "address"
                },
                {
                  "internalType": "bytes",
                  "name": "data",
                  "type": "bytes"
                }
              ],
              "internalType": "struct Modulated.Loader[]",
              "name": "moduleLoaders",
              "type": "tuple[]"
            },
            {
              "components": [
                {
                  "internalType": "uint256",
                  "name": "executions",
                  "type": "uint256"
                },
                {
                  "internalType": "enum SolverLib.IngestType",
                  "name": "ingestType",
                  "type": "uint8"
                },
                {
                  "internalType": "bytes32",
                  "name": "slot",
                  "type": "bytes32"
                },
                {
                  "internalType": "uint256",
                  "name": "solverIndex",
                  "type": "uint256"
                },
                {
                  "internalType": "bytes",
                  "name": "data",
                  "type": "bytes"
                }
              ],
              "internalType": "struct SolverLib.Ingest[]",
              "name": "ingests",
              "type": "tuple[]"
            },
            {
              "components": [
                {
                  "internalType": "contract IERC20",
                  "name": "collateralToken",
                  "type": "address"
                },
                {
                  "internalType": "uint256",
                  "name": "outcomeSlots",
                  "type": "uint256"
                },
                {
                  "internalType": "uint256",
                  "name": "parentCollectionIndexSet",
                  "type": "uint256"
                },
                {
                  "internalType": "bytes32",
                  "name": "amountSlot",
                  "type": "bytes32"
                },
                {
                  "internalType": "uint256[]",
                  "name": "partition",
                  "type": "uint256[]"
                },
                {
                  "components": [
                    {
                      "internalType": "bytes32",
                      "name": "recipientAddressSlot",
                      "type": "bytes32"
                    },
                    {
                      "internalType": "bytes32[]",
                      "name": "recipientAmountSlots",
                      "type": "bytes32[]"
                    }
                  ],
                  "internalType": "struct SolverLib.Allocation[]",
                  "name": "allocations",
                  "type": "tuple[]"
                },
                {
                  "internalType": "string[]",
                  "name": "outcomeURIs",
                  "type": "string[]"
                }
              ],
              "internalType": "struct SolverLib.ConditionBase",
              "name": "conditionBase",
              "type": "tuple"
            }
          ],
          "internalType": "struct SolverLib.Config[]",
          "name": "solverConfigs",
          "type": "tuple[]"
        }
      ],
      "name": "executeIPFSProposal",
      "outputs": [],
      "stateMutability": "nonpayable",
      "type": "function"
    },
    {
      "inputs": [
        {
          "internalType": "bytes32",
          "name": "proposalId",
          "type": "bytes32"
        },
        {
          "internalType": "contract IERC20",
          "name": "token",
          "type": "address"
        },
        {
          "internalType": "uint256",
          "name": "amount",
          "type": "uint256"
        }
      ],
      "name": "fundProposal",
      "outputs": [],
      "stateMutability": "nonpayable",
      "type": "function"
    },
    {
      "inputs": [
        {
          "internalType": "bytes32",
          "name": "",
          "type": "bytes32"
        },
        {
          "internalType": "address",
          "name": "",
          "type": "address"
        }
      ],
      "name": "funderAmountMap",
      "outputs": [
        {
          "internalType": "uint256",
          "name": "",
          "type": "uint256"
        }
      ],
      "stateMutability": "view",
      "type": "function"
    },
    {
      "inputs": [
        {
          "internalType": "bytes32",
          "name": "id",
          "type": "bytes32"
        }
      ],
      "name": "getMetadataCID",
      "outputs": [
        {
          "internalType": "string",
          "name": "",
          "type": "string"
        }
      ],
      "stateMutability": "view",
      "type": "function"
    },
    {
      "inputs": [
        {
          "internalType": "bytes32",
          "name": "id",
          "type": "bytes32"
        }
      ],
      "name": "getProposal",
      "outputs": [
        {
          "components": [
            {
              "internalType": "bool",
              "name": "isExecuted",
              "type": "bool"
            },
            {
              "internalType": "contract IERC20",
              "name": "collateralToken",
              "type": "address"
            },
            {
              "internalType": "address",
              "name": "proposer",
              "type": "address"
            },
            {
              "internalType": "address",
              "name": "solutionsHub",
              "type": "address"
            },
            {
              "internalType": "bytes32",
              "name": "id",
              "type": "bytes32"
            },
            {
              "internalType": "bytes32",
              "name": "solutionId",
              "type": "bytes32"
            },
            {
              "internalType": "uint256",
              "name": "funding",
              "type": "uint256"
            },
            {
              "internalType": "uint256",
              "name": "fundingGoal",
              "type": "uint256"
            },
            {
              "internalType": "string",
              "name": "metadataURI",
              "type": "string"
            }
          ],
          "internalType": "struct ProposalsHub.Proposal",
          "name": "proposal",
          "type": "tuple"
        }
      ],
      "stateMutability": "view",
      "type": "function"
    },
    {
      "inputs": [
        {
          "internalType": "bytes32",
          "name": "id",
          "type": "bytes32"
        }
      ],
      "name": "isProposal",
      "outputs": [
        {
          "internalType": "bool",
          "name": "",
          "type": "bool"
        }
      ],
      "stateMutability": "view",
      "type": "function"
    },
    {
      "inputs": [
        {
          "internalType": "bytes32",
          "name": "",
          "type": "bytes32"
        }
      ],
      "name": "nonces",
      "outputs": [
        {
          "internalType": "uint256",
          "name": "",
          "type": "uint256"
        }
      ],
      "stateMutability": "view",
      "type": "function"
    },
    {
      "inputs": [
        {
          "internalType": "address",
          "name": "operator",
          "type": "address"
        },
        {
          "internalType": "address",
          "name": "from",
          "type": "address"
        },
        {
          "internalType": "uint256[]",
          "name": "ids",
          "type": "uint256[]"
        },
        {
          "internalType": "uint256[]",
          "name": "values",
          "type": "uint256[]"
        },
        {
          "internalType": "bytes",
          "name": "data",
          "type": "bytes"
        }
      ],
      "name": "onERC1155BatchReceived",
      "outputs": [
        {
          "internalType": "bytes4",
          "name": "",
          "type": "bytes4"
        }
      ],
      "stateMutability": "nonpayable",
      "type": "function"
    },
    {
      "inputs": [
        {
          "internalType": "address",
          "name": "operator",
          "type": "address"
        },
        {
          "internalType": "address",
          "name": "from",
          "type": "address"
        },
        {
          "internalType": "uint256",
          "name": "id",
          "type": "uint256"
        },
        {
          "internalType": "uint256",
          "name": "value",
          "type": "uint256"
        },
        {
          "internalType": "bytes",
          "name": "data",
          "type": "bytes"
        }
      ],
      "name": "onERC1155Received",
      "outputs": [
        {
          "internalType": "bytes4",
          "name": "",
          "type": "bytes4"
        }
      ],
      "stateMutability": "nonpayable",
      "type": "function"
    },
    {
      "inputs": [
        {
          "internalType": "bytes32",
          "name": "",
          "type": "bytes32"
        }
      ],
      "name": "proposals",
      "outputs": [
        {
          "internalType": "bool",
          "name": "isExecuted",
          "type": "bool"
        },
        {
          "internalType": "contract IERC20",
          "name": "collateralToken",
          "type": "address"
        },
        {
          "internalType": "address",
          "name": "proposer",
          "type": "address"
        },
        {
          "internalType": "address",
          "name": "solutionsHub",
          "type": "address"
        },
        {
          "internalType": "bytes32",
          "name": "id",
          "type": "bytes32"
        },
        {
          "internalType": "bytes32",
          "name": "solutionId",
          "type": "bytes32"
        },
        {
          "internalType": "uint256",
          "name": "funding",
          "type": "uint256"
        },
        {
          "internalType": "uint256",
          "name": "fundingGoal",
          "type": "uint256"
        },
        {
          "internalType": "string",
          "name": "metadataURI",
          "type": "string"
        }
      ],
      "stateMutability": "view",
      "type": "function"
    },
    {
      "inputs": [
        {
          "internalType": "bytes32",
          "name": "proposalId",
          "type": "bytes32"
        },
        {
          "internalType": "uint256",
          "name": "tokenId",
          "type": "uint256"
        }
      ],
      "name": "reclaimTokens",
      "outputs": [],
      "stateMutability": "nonpayable",
      "type": "function"
    },
    {
      "inputs": [
        {
          "internalType": "bytes32",
          "name": "",
          "type": "bytes32"
        },
        {
          "internalType": "uint256",
          "name": "",
          "type": "uint256"
        }
      ],
      "name": "reclaimableTokens",
      "outputs": [
        {
          "internalType": "uint256",
          "name": "",
          "type": "uint256"
        }
      ],
      "stateMutability": "view",
      "type": "function"
    },
    {
      "inputs": [
        {
          "internalType": "uint256",
          "name": "",
          "type": "uint256"
        },
        {
          "internalType": "address",
          "name": "",
          "type": "address"
        }
      ],
      "name": "reclaimedTokens",
      "outputs": [
        {
          "internalType": "uint256",
          "name": "",
          "type": "uint256"
        }
      ],
      "stateMutability": "view",
      "type": "function"
    },
    {
      "inputs": [
        {
          "internalType": "bytes4",
          "name": "interfaceId",
          "type": "bytes4"
        }
      ],
      "name": "supportsInterface",
      "outputs": [
        {
          "internalType": "bool",
          "name": "",
          "type": "bool"
        }
      ],
      "stateMutability": "view",
      "type": "function"
    },
    {
      "inputs": [
        {
          "internalType": "bytes32",
          "name": "proposalId",
          "type": "bytes32"
        },
        {
          "internalType": "address",
          "name": "solver",
          "type": "address"
        }
      ],
      "name": "transferERC20",
      "outputs": [],
      "stateMutability": "nonpayable",
      "type": "function"
    }
  ],
  "transactionHash": "0x41ba244a5eb0461d574e478d0f208340d04c48c3559e1ffd6efb84f480f9050c",
  "args": [
    "0x5f19190Ef34D955ff4dE42da2F21DFA6770a38B8"
  ],
  "numDeployments": 3,
  "solcInputHash": "40b90df2a1b8bf39e22495621c66ed0c",
  "bytecode": "0x60a06040523480156200001157600080fd5b506040516200381238038062003812833981016040819052620000349162000046565b6001600160a01b031660805262000078565b6000602082840312156200005957600080fd5b81516001600160a01b03811681146200007157600080fd5b9392505050565b6080516137776200009b60003960008181610232015261106401526137776000f3fe608060405234801561001057600080fd5b50600436106100f15760003560e01c806301ffc9a7146100f65780631918063f1461011e5780632183bbe41461013357806332ed5b121461015b57806333c15c3414610183578063430694cf146101bc57806343d0c81d146101dc57806353ba3f57146101ef57806354dd99271461021a5780635bd9e2991461022d57806383460ba8146102615780639e317f121461028c578063aaa4f332146102ac578063b70c764c146102cc578063bc197c81146102df578063c12639f71461030b578063d1c9ee021461031e578063d3f79a0514610331578063f23a6e6114610356575b600080fd5b610109610104366004611db8565b610369565b60405190151581526020015b60405180910390f35b61013161012c366004611e0a565b6103a0565b005b610146610141366004611ec6565b610691565b60408051928352602083019190915201610115565b61016e610169366004611f9a565b61073d565b60405161011599989796959493929190612018565b6101ae610191366004611e0a565b600460209081526000928352604080842090915290825290205481565b604051908152602001610115565b6101cf6101ca366004611f9a565b61081e565b604051610115919061207d565b6101316101ea366004612114565b610985565b6101ae6101fd36600461215f565b600360209081526000928352604080842090915290825290205481565b610131610228366004612181565b610ad0565b6102547f000000000000000000000000000000000000000000000000000000000000000081565b60405161011591906121b9565b6101ae61026f366004611e0a565b600260209081526000928352604080842090915290825290205481565b6101ae61029a366004611f9a565b60006020819052908152604090205481565b6102bf6102ba366004611f9a565b610dea565b60405161011591906121cd565b6101316102da36600461215f565b610e8f565b6102f26102ed3660046121e0565b61110f565b6040516001600160e01b03199091168152602001610115565b610131610319366004612181565b6111ee565b61014661032c3660046129c2565b6114bd565b61010961033f366004611f9a565b600090815260016020526040902060030154151590565b6102f2610364366004612a7b565b611763565b60006001600160e01b03198216630271189760e51b148061039a57506301ffc9a760e01b6001600160e01b03198316145b92915050565b6000828152600160205260409020600201546001600160a01b0316331461040c5760405162461bcd60e51b815260206004820152601b60248201527a36b9b39739b2b73232b9103737ba1039b7b63aba34b7b739a43ab160291b60448201526064015b60405180910390fd5b6001600160a01b0381166104545760405162461bcd60e51b815260206004820152600f60248201526e496e76616c6964206164647265737360881b6044820152606401610403565b6000828152600160205260408082206002810154600491820154925162c8a40d60e51b81526001600160a01b038087169592169363191481a0936104a393919201918252602082015260400190565b602060405180830381865afa1580156104c0573d6000803e3d6000fd5b505050506040513d601f19601f820116820180604052508101906104e49190612af6565b6001600160a01b0316146105355760405162461bcd60e51b8152602060048201526018602482015277496e636f727265637420736f6c766572206164647265737360401b6044820152606401610403565b6000828152600160205260408082205490516370a0823160e01b81526101009091046001600160a01b0316919082906370a08231906105789030906004016121b9565b602060405180830381865afa158015610595573d6000803e3d6000fd5b505050506040513d601f19601f820116820180604052508101906105b99190612b13565b6000858152600160205260409020600501549091506105e4906001600160a01b0384169085906117f2565b600084815260016020526040908190206006015490516370a0823160e01b81526001600160a01b038416906370a08231906106239030906004016121b9565b602060405180830381865afa158015610640573d6000803e3d6000fd5b505050506040513d601f19601f820116820180604052508101906106649190612b13565b61066e9083612b42565b1461068b5760405162461bcd60e51b815260040161040390612b59565b50505050565b60008060008a6001600160a01b0316639193e9cc8e8e8c8c8c8c6040518763ffffffff1660e01b81526004016106cc96959493929190613077565b6020604051808303816000875af11580156106eb573d6000803e3d6000fd5b505050506040513d601f19601f8201168201806040525081019061070f9190612b13565b90506107298c8c8c846107228d8f6130c2565b8a8a6114bd565b909e909d509b505050505050505050505050565b60016020819052600091825260409091208054918101546002820154600383015460048401546005850154600686015460078701805460ff8a16996001600160a01b0361010090910481169998811698971696919061079b906130cf565b80601f01602080910402602001604051908101604052809291908181526020018280546107c7906130cf565b80156108145780601f106107e957610100808354040283529160200191610814565b820191906000526020600020905b8154815290600101906020018083116107f757829003601f168201915b5050505050905089565b604080516101208101825260008082526020820181905291810182905260608082018390526080820183905260a0820183905260c0820183905260e0820192909252610100810191909152600082815260016020818152604092839020835161012081018552815460ff8116151582526001600160a01b0361010091829004811694830194909452938201548316948101949094526002810154909116606084015260038101546080840152600481015460a0840152600581015460c0840152600681015460e084015260078101805491928401916108fc906130cf565b80601f0160208091040260200160405190810160405280929190818152602001828054610928906130cf565b80156109755780601f1061094a57610100808354040283529160200191610975565b820191906000526020600020905b81548152906001019060200180831161095857829003601f168201915b5050505050815250509050919050565b6000838152600160205260409020600681015460059091015410156109e85760405162461bcd60e51b8152602060048201526019602482015278141c9bdc1bdcd85b081b9bdd08199d5b1b1e48199d5b991959603a1b6044820152606401610403565b60008381526001602052604090205460ff1615610a175760405162461bcd60e51b815260040161040390613109565b600083815260016020819052604091829020805460ff191690911781556002810154600491820154925163b199186160e01b81526001600160a01b039091169263b199186192610a6e928892918891889101613150565b600060405180830381600087803b158015610a8857600080fd5b505af1158015610a9c573d6000803e3d6000fd5b50506040518592507f3a5a0357f01e19a1531e65bfe13d63c64c9ae8f03d8c26ae74b1e2929a4f39669150600090a2505050565b6000838152600160205260408120600301549003610b005760405162461bcd60e51b81526004016104039061317a565b60008381526001602052604090205460ff1615610b2f5760405162461bcd60e51b815260040161040390613109565b6000838152600160205260409020546001600160a01b038381166101009092041614610b6d5760405162461bcd60e51b8152600401610403906131ab565b60008111610b8d5760405162461bcd60e51b8152600401610403906131fc565b6000838152600260209081526040808320338452909152902054811115610c045760405162461bcd60e51b815260206004820152602560248201527f436f6d6d69747465642066756e6473206973206c6f776572207468616e20616d60448201526437bab73a1760d91b6064820152608401610403565b6040516370a0823160e01b81526000906001600160a01b038416906370a0823190610c339030906004016121b9565b602060405180830381865afa158015610c50573d6000803e3d6000fd5b505050506040513d601f19601f82011682018060405250810190610c749190612b13565b905081600160008681526020019081526020016000206005016000828254610c9c9190612b42565b9091555050600084815260026020908152604080832033845290915281208054849290610cca908490612b42565b90915550610ce490506001600160a01b03841633846117f2565b6040516370a0823160e01b815282906001600160a01b038516906370a0823190610d129030906004016121b9565b602060405180830381865afa158015610d2f573d6000803e3d6000fd5b505050506040513d601f19601f82011682018060405250810190610d539190612b13565b610d5d9083612b42565b14610daa5760405162461bcd60e51b815260206004820152601e60248201527f4265666f726520616e642061667465722062616c616e63652077726f6e6700006044820152606401610403565b837fe2ab43d60bbb163b7fad7413086cd6c1ee0e0a59a9625e4945a10f1b6a167ff98333604051610ddc92919061322b565b60405180910390a250505050565b6000818152600160205260409020600701805460609190610e0a906130cf565b80601f0160208091040260200160405190810160405280929190818152602001828054610e36906130cf565b8015610e835780601f10610e5857610100808354040283529160200191610e83565b820191906000526020600020905b815481529060010190602001808311610e6657829003601f168201915b50505050509050919050565b6000828152600260209081526040808320338452909152902054610f035760405162461bcd60e51b815260206004820152602560248201527f50726f706f73616c734875623a3a6d73672e73656e64657220686173206e6f20604482015264636c61696d60d81b6064820152608401610403565b60008281526002602090815260408083203384528252808320548584526001909252822060050154610f35919061185a565b6000838152600460209081526040808320338452825280832054878452600383528184208785529092528220549293509091610f7290849061189b565b610f7c9190612b42565b905060008111610fc95760405162461bcd60e51b8152602060048201526018602482015277050726f706f73616c734875623a3a436c61696d20697320360441b6044820152606401610403565b60008481526003602090815260408083208684529091529020548111156110325760405162461bcd60e51b815260206004820181905260248201527f50726f706f73616c734875623a3a436c61696d20697320746f6f206c617267656044820152606401610403565b60008381526004602090815260408083203384529091528120805483929061105b908490613242565b925050819055507f00000000000000000000000000000000000000000000000000000000000000006001600160a01b031663f242432a30338685896040516020016110a891815260200190565b6040516020818303038152906040526040518663ffffffff1660e01b81526004016110d795949392919061325a565b600060405180830381600087803b1580156110f157600080fd5b505af1158015611105573d6000803e3d6000fd5b5050505050505050565b60008061111e83850185611f9a565b60008181526001602052604090206003015490915081146111515760405162461bcd60e51b815260040161040390613294565b60008181526001602052604090205460ff1661117f5760405162461bcd60e51b8152600401610403906132de565b60005b878110156111d7576111c5828a8a848181106111a0576111a061332a565b905060200201358989858181106111b9576111b961332a565b90506020020135611906565b806111cf81613340565b915050611182565b5063bc197c8160e01b9a9950505050505050505050565b600083815260016020526040812060030154900361121e5760405162461bcd60e51b81526004016104039061317a565b60008381526001602052604090205460ff161561124d5760405162461bcd60e51b815260040161040390613109565b6000838152600160205260409020546001600160a01b03838116610100909204161461128b5760405162461bcd60e51b8152600401610403906131ab565b600081116112ab5760405162461bcd60e51b8152600401610403906131fc565b600083815260016020526040902060068101546005909101546112ce9083613242565b11156113185760405162461bcd60e51b815260206004820152601960248201527810d85b89dd08199d5b99081b5bdc99481d1a185b8819dbd85b603a1b6044820152606401610403565b6040516370a0823160e01b81526000906001600160a01b038416906370a08231906113479030906004016121b9565b602060405180830381865afa158015611364573d6000803e3d6000fd5b505050506040513d601f19601f820116820180604052508101906113889190612b13565b905061139f6001600160a01b038416333085611939565b8181846001600160a01b03166370a08231306040518263ffffffff1660e01b81526004016113cd91906121b9565b602060405180830381865afa1580156113ea573d6000803e3d6000fd5b505050506040513d601f19601f8201168201806040525081019061140e9190612b13565b6114189190612b42565b146114355760405162461bcd60e51b815260040161040390612b59565b60008481526001602052604081206005018054849290611456908490613242565b9091555050600084815260026020908152604080832033845290915281208054849290611484908490613242565b92505081905550837f82999597cf961179ae8200cb30fa0dcf5559a734cfd867ccd187c5dd6946c4138333604051610ddc92919061322b565b600080876001600160a01b0316634f730b9f87876040518363ffffffff1660e01b81526004016114ee9291906135c3565b602060405180830381865afa15801561150b573d6000803e3d6000fd5b505050506040513d601f19601f8201168201806040525081019061152f91906136ac565b6115765760405162461bcd60e51b8152602060048201526018602482015277496e636f727265637420536f6c76657220436f6e6669677360401b6044820152606401610403565b600086815260208190526040812080549161159083613340565b9091555050600086815260208181526040918290205491516115b99289928892889291016136ce565b60408051808303601f19018152908290528051602090910120632631481560e21b82526004820188905291506001600160a01b038916906398c52054906024016020604051808303816000875af1158015611618573d6000803e3d6000fd5b505050506040513d601f19601f8201168201806040525081019061163c9190612b13565b6000828152600160205260409081902060038101849055905163a2440b9d60e01b815260048101849052602481018390526001600160a01b038c8116604483015292945090918a169063a2440b9d90606401600060405180830381600087803b1580156116a857600080fd5b505af11580156116bc573d6000803e3d6000fd5b505082546001600160a01b03808e1661010002610100600160a81b03199092169190911784556001840180546001600160a01b03199081163317909155600285018054928e16929091169190911790555050600481018390556006810188905561172a600782018686611d1f565b5060405182907f2d231481d8c1af3958a30a257e93e0df6b089bc07ebedc0a86e7355d1aaf133890600090a25097509795505050505050565b60008061177283850185611f9a565b60008181526001602052604090206003015490915081146117a55760405162461bcd60e51b815260040161040390613294565b60008181526001602052604090205460ff166117d35760405162461bcd60e51b8152600401610403906132de565b6117de818787611906565b5063f23a6e6160e01b979650505050505050565b6040516001600160a01b03831660248201526044810182905261185590849063a9059cbb60e01b906064015b60408051601f198184030181529190526020810180516001600160e01b03166001600160e01b031990931692909217909152611971565b505050565b60008160000361186957600080fd5b60006118758484611a43565b905060016001607f1b036001600160801b038216111561189457600080fd5b9392505050565b6000816000036118ad5750600061039a565b600083600f0b12156118be57600080fd5b600f83900b6001600160801b038316810260401c90608084901c026001600160c01b038111156118ed57600080fd5b60401b81198111156118fe57600080fd5b019392505050565b60008381526003602090815260408083208584529091528120805483929061192f908490613242565b9091555050505050565b6040516001600160a01b038085166024830152831660448201526064810182905261068b9085906323b872dd60e01b9060840161181e565b60006119c6826040518060400160405280602081526020017f5361666545524332303a206c6f772d6c6576656c2063616c6c206661696c6564815250856001600160a01b0316611ba79092919063ffffffff16565b80519091501561185557808060200190518101906119e491906136ac565b6118555760405162461bcd60e51b815260206004820152602a60248201527f5361666545524332303a204552433230206f7065726174696f6e20646964206e6044820152691bdd081cdd58d8d9595960b21b6064820152608401610403565b600081600003611a5257600080fd5b60006001600160c01b038411611a7d5782604085901b81611a7557611a756136f9565b049050611b93565b60c084811c600160201b8110611a95576020918201911c5b620100008110611aa7576010918201911c5b6101008110611ab8576008918201911c5b60108110611ac8576004918201911c5b60048110611ad8576002918201911c5b60028110611ae7576001820191505b60bf820360018603901c6001018260ff0387901b81611b0857611b086136f9565b0492506001600160801b03831115611b1f57600080fd5b608085901c83026001600160801b038616840260c088901c604089901b82811015611b4b576001820391505b608084901b92900382811015611b62576001820391505b829003608084901c8214611b7857611b7861370f565b888181611b8757611b876136f9565b04870196505050505050505b6001600160801b0381111561189457600080fd5b6060611bb68484600085611bbe565b949350505050565b606082471015611c1f5760405162461bcd60e51b815260206004820152602660248201527f416464726573733a20696e73756666696369656e742062616c616e636520666f6044820152651c8818d85b1b60d21b6064820152608401610403565b843b611c6d5760405162461bcd60e51b815260206004820152601d60248201527f416464726573733a2063616c6c20746f206e6f6e2d636f6e74726163740000006044820152606401610403565b600080866001600160a01b03168587604051611c899190613725565b60006040518083038185875af1925050503d8060008114611cc6576040519150601f19603f3d011682016040523d82523d6000602084013e611ccb565b606091505b5091509150611cdb828286611ce6565b979650505050505050565b60608315611cf5575081611894565b825115611d055782518084602001fd5b8160405162461bcd60e51b815260040161040391906121cd565b828054611d2b906130cf565b90600052602060002090601f016020900481019282611d4d5760008555611d93565b82601f10611d665782800160ff19823516178555611d93565b82800160010185558215611d93579182015b82811115611d93578235825591602001919060010190611d78565b50611d9f929150611da3565b5090565b5b80821115611d9f5760008155600101611da4565b600060208284031215611dca57600080fd5b81356001600160e01b03198116811461189457600080fd5b6001600160a01b0381168114611df757600080fd5b50565b8035611e0581611de2565b919050565b60008060408385031215611e1d57600080fd5b823591506020830135611e2f81611de2565b809150509250929050565b60008083601f840112611e4c57600080fd5b5081356001600160401b03811115611e6357600080fd5b6020830191508360208260051b8501011115611e7e57600080fd5b9250929050565b60008083601f840112611e9757600080fd5b5081356001600160401b03811115611eae57600080fd5b602083019150836020828501011115611e7e57600080fd5b60008060008060008060008060008060e08b8d031215611ee557600080fd5b8a35995060208b0135611ef781611de2565b985060408b0135611f0781611de2565b975060608b0135965060808b01356001600160401b0380821115611f2a57600080fd5b611f368e838f01611e3a565b909850965060a08d0135915080821115611f4f57600080fd5b611f5b8e838f01611e85565b909650945060c08d0135915080821115611f7457600080fd5b50611f818d828e01611e85565b915080935050809150509295989b9194979a5092959850565b600060208284031215611fac57600080fd5b5035919050565b6001600160a01b03169052565b60005b83811015611fdb578181015183820152602001611fc3565b8381111561068b5750506000910152565b60008151808452612004816020860160208601611fc0565b601f01601f19169290920160200192915050565b60006101208b1515835260018060a01b03808c166020850152808b166040850152808a166060850152508760808401528660a08401528560c08401528460e08401528061010084015261206d81840185611fec565b9c9b505050505050505050505050565b6020815261209060208201835115159052565b600060208301516120a46040840182611fb3565b5060408301516120b76060840182611fb3565b5060608301516120ca6080840182611fb3565b50608083015160a083015260a083015160c083015260c083015160e083015260e0830151610100818185015280850151915050610120808185015250611bb6610140840182611fec565b60008060006040848603121561212957600080fd5b8335925060208401356001600160401b0381111561214657600080fd5b61215286828701611e3a565b9497909650939450505050565b6000806040838503121561217257600080fd5b50508035926020909101359150565b60008060006060848603121561219657600080fd5b8335925060208401356121a881611de2565b929592945050506040919091013590565b6001600160a01b0391909116815260200190565b6020815260006118946020830184611fec565b60008060008060008060008060a0898b0312156121fc57600080fd5b883561220781611de2565b9750602089013561221781611de2565b965060408901356001600160401b038082111561223357600080fd5b61223f8c838d01611e3a565b909850965060608b013591508082111561225857600080fd5b6122648c838d01611e3a565b909650945060808b013591508082111561227d57600080fd5b5061228a8b828c01611e85565b999c989b5096995094979396929594505050565b634e487b7160e01b600052604160045260246000fd5b604080519081016001600160401b03811182821017156122d6576122d661229e565b60405290565b60405160a081016001600160401b03811182821017156122d6576122d661229e565b60405160e081016001600160401b03811182821017156122d6576122d661229e565b604051601f8201601f191681016001600160401b03811182821017156123485761234861229e565b604052919050565b60006001600160401b038211156123695761236961229e565b5060051b60200190565b60006001600160401b0383111561238c5761238c61229e565b61239f601f8401601f1916602001612320565b90508281528383830111156123b357600080fd5b828260208301376000602084830101529392505050565b600082601f8301126123db57600080fd5b61189483833560208501612373565b600082601f8301126123fb57600080fd5b8135602061241061240b83612350565b612320565b82815260059290921b8401810191818101908684111561242f57600080fd5b8286015b848110156124b95780356001600160401b03808211156124535760008081fd5b908801906040828b03601f190181131561246d5760008081fd5b6124756122b4565b8784013561248281611de2565b81529083013590828211156124975760008081fd5b6124a58c89848701016123ca565b818901528652505050918301918301612433565b509695505050505050565b803560048110611e0557600080fd5b600082601f8301126124e457600080fd5b813560206124f461240b83612350565b82815260059290921b8401810191818101908684111561251357600080fd5b8286015b848110156124b95780356001600160401b03808211156125375760008081fd5b9088019060a0828b03601f19018113156125515760008081fd5b6125596122dc565b878401358152604061256c8186016124c4565b8983015260608086013582840152608091508186013581840152508285013592508383111561259b5760008081fd5b6125a98d8a858801016123ca565b908201528652505050918301918301612517565b600082601f8301126125ce57600080fd5b813560206125de61240b83612350565b82815260059290921b840181019181810190868411156125fd57600080fd5b8286015b848110156124b95780358352918301918301612601565b600082601f83011261262957600080fd5b8135602061263961240b83612350565b828152600592831b850182019282820191908785111561265857600080fd5b8387015b858110156127305780356001600160401b038082111561267c5760008081fd5b908901906040828c03601f19018113156126965760008081fd5b61269e6122b4565b88840135815281840135838111156126b65760008081fd5b8085019450508c603f8501126126ce57600092508283fd5b8884013592506126e061240b84612350565b83815292861b8401820192898101908e8511156126fd5760008081fd5b948301945b8486101561271b5785358252948a0194908a0190612702565b828b015250875250505092840192840161265c565b5090979650505050505050565b600082601f83011261274e57600080fd5b8135602061275e61240b83612350565b82815260059290921b8401810191818101908684111561277d57600080fd5b8286015b848110156124b95780356001600160401b038111156127a05760008081fd5b8701603f810189136127b25760008081fd5b6127c3898683013560408401612373565b845250918301918301612781565b600060e082840312156127e357600080fd5b6127eb6122fe565b90506127f682611dfa565b815260208281013590820152604080830135908201526060808301359082015260808201356001600160401b038082111561283057600080fd5b61283c858386016125bd565b608084015260a084013591508082111561285557600080fd5b61286185838601612618565b60a084015260c084013591508082111561287a57600080fd5b506128878482850161273d565b60c08301525092915050565b60006128a161240b84612350565b8381529050602080820190600585901b8401868111156128c057600080fd5b845b818110156129b75780356001600160401b03808211156128e25760008081fd5b9087019060e0828b0312156128f75760008081fd5b6128ff6122fe565b61290883611dfa565b8152612915868401611dfa565b868201526040612926818501611dfa565b9082015260608381013590820152608080840135838111156129485760008081fd5b6129548d8287016123ea565b82840152505060a0808401358381111561296e5760008081fd5b61297a8d8287016124d3565b82840152505060c080840135838111156129945760008081fd5b6129a08d8287016127d1565b9183019190915250865250509282019282016128c2565b505050509392505050565b600080600080600080600060c0888a0312156129dd57600080fd5b87356129e881611de2565b965060208801356129f881611de2565b9550604088013594506060880135935060808801356001600160401b0380821115612a2257600080fd5b818a0191508a601f830112612a3657600080fd5b612a458b833560208501612893565b945060a08a0135915080821115612a5b57600080fd5b50612a688a828b01611e85565b989b979a50959850939692959293505050565b60008060008060008060a08789031215612a9457600080fd5b8635612a9f81611de2565b95506020870135612aaf81611de2565b9450604087013593506060870135925060808701356001600160401b03811115612ad857600080fd5b612ae489828a01611e85565b979a9699509497509295939492505050565b600060208284031215612b0857600080fd5b815161189481611de2565b600060208284031215612b2557600080fd5b5051919050565b634e487b7160e01b600052601160045260246000fd5b600082821015612b5457612b54612b2c565b500390565b6020808252818101527f496e636f72726563742062616c616e6365206166746572207472616e73666572604082015260600190565b6000808335601e19843603018112612ba557600080fd5b83016020810192503590506001600160401b03811115612bc457600080fd5b8060051b3603821315611e7e57600080fd5b6000808335601e19843603018112612bed57600080fd5b83016020810192503590506001600160401b03811115612c0c57600080fd5b803603821315611e7e57600080fd5b81835281816020850137506000828201602090810191909152601f909101601f19169091010190565b60008235603e19833603018112612c5a57600080fd5b90910192915050565b60008383855260208086019550808560051b8301018460005b8781101561273057848303601f19018952612c978288612c44565b60408135612ca481611de2565b6001600160a01b03168552612cbb82870183612bd6565b92508187870152612ccf8287018483612c1b565b9b87019b955050509184019150600101612c7c565b60048110612d0257634e487b7160e01b600052602160045260246000fd5b9052565b81835260006020808501808196508560051b81019150846000805b88811015612dad578385038a528235609e19893603018112612d41578283fd5b88018035865260a0612d548883016124c4565b612d6089890182612ce4565b5060408281013590880152606080830135908801526080612d8381840184612bd6565b935082828a0152612d97838a018583612c1b565b9d8a019d98505050938701935050600101612d21565b509298975050505050505050565b6000823560de19833603018112612c5a57600080fd5b81835260006001600160fb1b03831115612dea57600080fd5b8260051b8083602087013760009401602001938452509192915050565b60008383855260208086019550808560051b8301018460005b8781101561273057848303601f19018952612e3b8288612bd6565b612e46858284612c1b565b9a86019a9450505090830190600101612e20565b60008135612e6781611de2565b6001600160a01b03168352602082810135818501526040808401358186015260608085013590860152612e9d6080850185612b8e565b60e06080880152612eb260e088018284612dd1565b915050612ec260a0860186612b8e565b87830360a0890152808352848301600582901b840186018360005b84811015612f3057868303601f19018452612ef88287612c44565b80358452612f088a820182612b8e565b9150898b860152612f1c8a86018383612dd1565b958b01959450505090880190600101612edd565b5050612f3f60c08a018a612b8e565b9750955089810360c08b0152612f56818888612e07565b9a9950505050505050505050565b81835260006020808501808196508560051b810191508460005b8781101561306a578284038952612f958288612dbb565b60e08135612fa281611de2565b6001600160a01b03168652612fb8828801611dfa565b612fc488880182611fb3565b506040612fd2818401611dfa565b612fde82890182611fb3565b5050606082810135908701526080612ff881840184612b8e565b83838a015261300a848a018284612c63565b935050505060a061301d81840184612b8e565b888403838a015261302f848284612d06565b935050505060c061304281840184612dbb565b925086820381880152506130568183612e5a565b9a87019a9550505090840190600101612f7e565b5091979650505050505050565b8681526001600160a01b03861660208201526080604082018190526000906130a29083018688612f64565b82810360608401526130b5818587612c1b565b9998505050505050505050565b6000611894368484612893565b600181811c908216806130e357607f821691505b60208210810361310357634e487b7160e01b600052602260045260246000fd5b50919050565b60208082526027908201527f50726f706f73616c734875623a3a50726f706f73616c20616c726561647920656040820152661e1958dd5d195960ca1b606082015260800190565b848152836020820152606060408201526000613170606083018486612f64565b9695505050505050565b602080825260179082015276141c9bdc1bdcd85b08191bd95cc81b9bdd08195e1a5cdd604a1b604082015260600190565b60208082526031908201527f50726f706f73616c20646f6573206e6f7420696e636c756465207468697320746040820152701bdad95b881d1bc8189948199d5b991959607a1b606082015260800190565b602080825260159082015274416d6f756e742063616e6e6f74206265207a65726f60581b604082015260600190565b9182526001600160a01b0316602082015260400190565b6000821982111561325557613255612b2c565b500190565b6001600160a01b03868116825285166020820152604081018490526060810183905260a060808201819052600090611cdb90830184611fec565b6020808252602a908201527f50726f706f73616c734875623a3a44617461206973206e6f742076616c6964206040820152691c1c9bdc1bdcd85b125960b21b606082015260800190565b6020808252602c908201527f50726f706f73616c734875623a3a50726f706f73616c20686173206e6f74206260408201526b19595b88195e1958dd5d195960a21b606082015260800190565b634e487b7160e01b600052603260045260246000fd5b60006001820161335257613352612b2c565b5060010190565b600081518084526020808501808196508360051b8101915082860160005b8581101561306a578284038952815180516001600160a01b0316855285015160408686018190526133aa81870183611fec565b9a87019a9550505090840190600101613377565b600081518084526020808501808196508360051b8101915082860160005b8581101561306a578284038952815160a0815186528682015161340188880182612ce4565b50604082810151908701526060808301519087015260809182015191860181905261342e81870183611fec565b9a87019a95505050908401906001016133dc565b600081518084526020808501808196508360051b810191508286016000805b86811015612dad578385038a528251805186528601516040878701819052815190870181905290870190606087019084905b808210156134b35783518352928901929189019160019190910190613493565b50509a87019a95505091850191600101613461565b600082825180855260208086019550808260051b84010181860160005b8481101561273057601f19868403018952613501838351611fec565b988401989250908301906001016134e5565b80516001600160a01b0316825260208082015181840152604080830151908401526060808301519084015260808083015160e091850182905280519185018290526000929081019183906101008701905b808310156135845784518252938301936001929092019190830190613564565b5060a0860151935086810360a088015261359e8185613442565b935050505060c083015184820360c08601526135ba82826134c8565b95945050505050565b6000604080830185845260208281860152818651808452606093508387019150838160051b88010183890160005b8381101561369c57898303605f19018552815180516001600160a01b0390811685528782015116878501528881015160e09061362f8b870182611fb3565b508882015189860152608080830151828288015261364f83880182613359565b9250505060a0808301518683038288015261366a83826133be565b9250505060c080830151925085820381870152506136888183613513565b9688019694505050908501906001016135f1565b50909a9950505050505050505050565b6000602082840312156136be57600080fd5b8151801515811461189457600080fd5b8481526060602082015260006136e8606083018587612c1b565b905082604083015295945050505050565b634e487b7160e01b600052601260045260246000fd5b634e487b7160e01b600052600160045260246000fd5b60008251613737818460208701611fc0565b919091019291505056fea2646970667358221220b7cb93258e5758ffb200d36a221557b6b701d62f8c75788a0695079004c212cc64736f6c634300080e0033",
  "devdoc": {
    "kind": "dev",
    "methods": {
      "createProposal(address,address,uint256,bytes32,(address,address,address,uint256,(address,bytes)[],(uint256,uint8,bytes32,uint256,bytes)[],(address,uint256,uint256,bytes32,uint256[],(bytes32,bytes32[])[],string[]))[],string)": {
        "details": "Creates a Proposal from an existing Solution.Base",
        "params": {
          "collateralToken": "ERC20 token being used as collateral for conditional tokens",
          "fundingGoal": "Amount of ERC20 collateral requested for the Proposal",
          "safeBaseId": "ID of the Solution.Base for which a new instance and proposal is created",
          "solutionsHub": "Address of the SolutionsHub contract managing the Solution"
        }
      },
      "defundProposal(bytes32,address,uint256)": {
        "details": "Called by user to remove their funding from a Proposal",
        "params": {
          "amount": "Amount to be defunded",
          "proposalId": "ID of Proposal being defunded",
          "token": "ERC20 token to be defunded"
        }
      },
      "executeIPFSProposal(bytes32,(address,address,address,uint256,(address,bytes)[],(uint256,uint8,bytes32,uint256,bytes)[],(address,uint256,uint256,bytes32,uint256[],(bytes32,bytes32[])[],string[]))[])": {
        "details": "Executes a proposal for Solutions where on the *hash* of solver configs is stored on-chain",
        "params": {
          "proposalId": "ID of proposal",
          "solverConfigs": "Configurations of Solvers to be run for the proposed solution"
        }
      },
      "fundProposal(bytes32,address,uint256)": {
        "details": "Called by user to add funding to a Proposal",
        "params": {
          "amount": "Amount to be funded",
          "proposalId": "ID of Proposal being funded",
          "token": "ERC20 token to be funded with"
        }
      },
      "onERC1155BatchReceived(address,address,uint256[],uint256[],bytes)": {
        "details": "Handles the receipt of a multiple ERC1155 token types. This function is called at the end of a `safeBatchTransferFrom` after the balances have been updated. To accept the transfer(s), this must return `bytes4(keccak256(\"onERC1155BatchReceived(address,address,uint256[],uint256[],bytes)\"))` (i.e. 0xbc197c81, or its own function selector).",
        "params": {
          "data": "Additional data with no specified format",
          "from": "The address which previously owned the token",
          "ids": "An array containing ids of each token being transferred (order and length must match values array)",
          "operator": "The address which initiated the batch transfer (i.e. msg.sender)",
          "values": "An array containing amounts of each token being transferred (order and length must match ids array)"
        },
        "returns": {
          "_0": "`bytes4(keccak256(\"onERC1155BatchReceived(address,address,uint256[],uint256[],bytes)\"))` if transfer is allowed"
        }
      },
      "reclaimTokens(bytes32,uint256)": {
        "details": "Transfers reclaimable CTs to a claimer and lowers their reclaimable balance for that token",
        "params": {
          "proposalId": "ID of proposal being reclaimed from",
          "tokenId": "ERC1155 token being reclaimed"
        }
      },
      "supportsInterface(bytes4)": {
        "details": "See {IERC165-supportsInterface}."
      },
      "transferERC20(bytes32,address)": {
        "details": "Called by SolutionsHub after deploying Solvers",
        "params": {
          "proposalId": "Proposal that collateral is being transferred from",
          "solver": "Solver receiving collateral"
        }
      }
    },
    "version": 1
  },
  "userdoc": {
    "kind": "user",
    "methods": {
      "createProposal(address,address,uint256,bytes32,(address,address,address,uint256,(address,bytes)[],(uint256,uint8,bytes32,uint256,bytes)[],(address,uint256,uint256,bytes32,uint256[],(bytes32,bytes32[])[],string[]))[],string)": {
        "notice": "Ceramic Interop: safeBaseId == keccak256(abi.encode(keccak256(abi.encode(templateCommitID, proposalCommitID)), nonce))"
      },
      "onERC1155Received(address,address,uint256,uint256,bytes)": {
        "notice": "IMPORTANT! Any CTs sent to this contract are reclaimable by the funders in proportion to their funding. If a user reclaims CTs and sends them back again to this contract, they will only be able to  regain from them a fraction of their original funding."
      }
    },
    "version": 1
  },
  "storageLayout": {
    "storage": [
      {
        "astId": 7469,
        "contract": "contracts/hubs/ProposalsHub.sol:ProposalsHub",
        "label": "nonces",
        "offset": 0,
        "slot": "0",
        "type": "t_mapping(t_bytes32,t_uint256)"
      },
      {
        "astId": 7494,
        "contract": "contracts/hubs/ProposalsHub.sol:ProposalsHub",
        "label": "proposals",
        "offset": 0,
        "slot": "1",
        "type": "t_mapping(t_bytes32,t_struct(Proposal)7489_storage)"
      },
      {
        "astId": 7500,
        "contract": "contracts/hubs/ProposalsHub.sol:ProposalsHub",
        "label": "funderAmountMap",
        "offset": 0,
        "slot": "2",
        "type": "t_mapping(t_bytes32,t_mapping(t_address,t_uint256))"
      },
      {
        "astId": 7506,
        "contract": "contracts/hubs/ProposalsHub.sol:ProposalsHub",
        "label": "reclaimableTokens",
        "offset": 0,
        "slot": "3",
        "type": "t_mapping(t_bytes32,t_mapping(t_uint256,t_uint256))"
      },
      {
        "astId": 7512,
        "contract": "contracts/hubs/ProposalsHub.sol:ProposalsHub",
        "label": "reclaimedTokens",
        "offset": 0,
        "slot": "4",
        "type": "t_mapping(t_uint256,t_mapping(t_address,t_uint256))"
      }
    ],
    "types": {
      "t_address": {
        "encoding": "inplace",
        "label": "address",
        "numberOfBytes": "20"
      },
      "t_bool": {
        "encoding": "inplace",
        "label": "bool",
        "numberOfBytes": "1"
      },
      "t_bytes32": {
        "encoding": "inplace",
        "label": "bytes32",
        "numberOfBytes": "32"
      },
      "t_contract(IERC20)1755": {
        "encoding": "inplace",
        "label": "contract IERC20",
        "numberOfBytes": "20"
      },
      "t_mapping(t_address,t_uint256)": {
        "encoding": "mapping",
        "key": "t_address",
        "label": "mapping(address => uint256)",
        "numberOfBytes": "32",
        "value": "t_uint256"
      },
      "t_mapping(t_bytes32,t_mapping(t_address,t_uint256))": {
        "encoding": "mapping",
        "key": "t_bytes32",
        "label": "mapping(bytes32 => mapping(address => uint256))",
        "numberOfBytes": "32",
        "value": "t_mapping(t_address,t_uint256)"
      },
      "t_mapping(t_bytes32,t_mapping(t_uint256,t_uint256))": {
        "encoding": "mapping",
        "key": "t_bytes32",
        "label": "mapping(bytes32 => mapping(uint256 => uint256))",
        "numberOfBytes": "32",
        "value": "t_mapping(t_uint256,t_uint256)"
      },
      "t_mapping(t_bytes32,t_struct(Proposal)7489_storage)": {
        "encoding": "mapping",
        "key": "t_bytes32",
        "label": "mapping(bytes32 => struct ProposalsHub.Proposal)",
        "numberOfBytes": "32",
        "value": "t_struct(Proposal)7489_storage"
      },
      "t_mapping(t_bytes32,t_uint256)": {
        "encoding": "mapping",
        "key": "t_bytes32",
        "label": "mapping(bytes32 => uint256)",
        "numberOfBytes": "32",
        "value": "t_uint256"
      },
      "t_mapping(t_uint256,t_mapping(t_address,t_uint256))": {
        "encoding": "mapping",
        "key": "t_uint256",
        "label": "mapping(uint256 => mapping(address => uint256))",
        "numberOfBytes": "32",
        "value": "t_mapping(t_address,t_uint256)"
      },
      "t_mapping(t_uint256,t_uint256)": {
        "encoding": "mapping",
        "key": "t_uint256",
        "label": "mapping(uint256 => uint256)",
        "numberOfBytes": "32",
        "value": "t_uint256"
      },
      "t_string_storage": {
        "encoding": "bytes",
        "label": "string",
        "numberOfBytes": "32"
      },
      "t_struct(Proposal)7489_storage": {
        "encoding": "inplace",
        "label": "struct ProposalsHub.Proposal",
        "members": [
          {
            "astId": 7471,
            "contract": "contracts/hubs/ProposalsHub.sol:ProposalsHub",
            "label": "isExecuted",
            "offset": 0,
            "slot": "0",
            "type": "t_bool"
          },
          {
            "astId": 7474,
            "contract": "contracts/hubs/ProposalsHub.sol:ProposalsHub",
            "label": "collateralToken",
            "offset": 1,
            "slot": "0",
            "type": "t_contract(IERC20)1755"
          },
          {
            "astId": 7476,
            "contract": "contracts/hubs/ProposalsHub.sol:ProposalsHub",
            "label": "proposer",
            "offset": 0,
            "slot": "1",
            "type": "t_address"
          },
          {
            "astId": 7478,
            "contract": "contracts/hubs/ProposalsHub.sol:ProposalsHub",
            "label": "solutionsHub",
            "offset": 0,
            "slot": "2",
            "type": "t_address"
          },
          {
            "astId": 7480,
            "contract": "contracts/hubs/ProposalsHub.sol:ProposalsHub",
            "label": "id",
            "offset": 0,
            "slot": "3",
            "type": "t_bytes32"
          },
          {
            "astId": 7482,
            "contract": "contracts/hubs/ProposalsHub.sol:ProposalsHub",
            "label": "solutionId",
            "offset": 0,
            "slot": "4",
            "type": "t_bytes32"
          },
          {
            "astId": 7484,
            "contract": "contracts/hubs/ProposalsHub.sol:ProposalsHub",
            "label": "funding",
            "offset": 0,
            "slot": "5",
            "type": "t_uint256"
          },
          {
            "astId": 7486,
            "contract": "contracts/hubs/ProposalsHub.sol:ProposalsHub",
            "label": "fundingGoal",
            "offset": 0,
            "slot": "6",
            "type": "t_uint256"
          },
          {
            "astId": 7488,
            "contract": "contracts/hubs/ProposalsHub.sol:ProposalsHub",
            "label": "metadataURI",
            "offset": 0,
            "slot": "7",
            "type": "t_string_storage"
          }
        ],
        "numberOfBytes": "256"
      },
      "t_uint256": {
        "encoding": "inplace",
        "label": "uint256",
        "numberOfBytes": "32"
      }
    }
  }
}