{
  "_format": "hh-sol-artifact-1",
  "contractName": "SolverFactory",
  "sourceName": "contracts/SolverFactory.sol",
  "abi": [
    {
      "anonymous": false,
      "inputs": [
        {
          "indexed": false,
          "internalType": "contract Solver",
          "name": "solver",
          "type": "address"
        }
      ],
      "name": "SolverCreated",
      "type": "event"
    },
    {
      "inputs": [
        {
          "internalType": "address",
          "name": "_keeper",
          "type": "address"
        },
        {
          "internalType": "address",
          "name": "_arbiter",
          "type": "address"
        },
        {
          "internalType": "uint256",
          "name": "_timelockHours",
          "type": "uint256"
        },
        {
          "components": [
            {
              "internalType": "uint256",
              "name": "value",
              "type": "uint256"
            },
            {
              "internalType": "address",
              "name": "to",
              "type": "address"
            },
            {
              "internalType": "bool",
              "name": "executed",
              "type": "bool"
            },
            {
              "internalType": "bytes",
              "name": "data",
              "type": "bytes"
            }
          ],
          "internalType": "struct Minion.Action[]",
          "name": "_actions",
          "type": "tuple[]"
        },
        {
          "internalType": "bytes",
          "name": "_data",
          "type": "bytes"
        }
      ],
      "name": "createSolver",
      "outputs": [
        {
          "internalType": "address",
          "name": "_solver",
          "type": "address"
        }
      ],
      "stateMutability": "nonpayable",
      "type": "function"
    },
    {
      "inputs": [
        {
          "internalType": "uint256",
          "name": "",
          "type": "uint256"
        }
      ],
      "name": "solverAddresses",
      "outputs": [
        {
          "internalType": "contract Solver",
          "name": "",
          "type": "address"
        }
      ],
      "stateMutability": "view",
      "type": "function"
    }
  ],
  "bytecode": "0x608060405234801561001057600080fd5b50613ef6806100206000396000f3fe60806040523480156200001157600080fd5b50600436106200003a5760003560e01c80631c6cd6c2146200003f578063525079c61462000075575b600080fd5b6200005d60048036038101906200005791906200036f565b620000ab565b6040516200006c919062000657565b60405180910390f35b6200009360048036038101906200008d919062000426565b6200021d565b604051620000a29190620006f1565b60405180910390f35b60008033888888888888604051620000c3906200025d565b620000d5979695949392919062000674565b604051809103906000f080158015620000f2573d6000803e3d6000fd5b5090506000819080600181540180825580915050600190039060005260206000200160009091909190916101000a81548173ffffffffffffffffffffffffffffffffffffffff021916908373ffffffffffffffffffffffffffffffffffffffff16021790555080600160008373ffffffffffffffffffffffffffffffffffffffff1673ffffffffffffffffffffffffffffffffffffffff16815260200190815260200160002060006101000a81548173ffffffffffffffffffffffffffffffffffffffff021916908373ffffffffffffffffffffffffffffffffffffffff1602179055507ff209a592917f50f3a35587a0febcddc6d39633e81c51e5a8e4c0a4b1da85328581604051620002079190620006f1565b60405180910390a1809150509695505050505050565b600081815481106200022e57600080fd5b906000526020600020016000915054906101000a900473ffffffffffffffffffffffffffffffffffffffff1681565b6134e780620009da83390190565b6000620002826200027c8462000742565b6200070e565b9050828152602081018484840111156200029b57600080fd5b620002a884828562000906565b509392505050565b600081359050620002c1816200098b565b92915050565b60008083601f840112620002da57600080fd5b8235905067ffffffffffffffff811115620002f457600080fd5b6020830191508360208202830111156200030d57600080fd5b9250929050565b6000813590506200032581620009a5565b92915050565b600082601f8301126200033d57600080fd5b81356200034f8482602086016200026b565b91505092915050565b6000813590506200036981620009bf565b92915050565b60008060008060008060a087890312156200038957600080fd5b60006200039989828a01620002b0565b9650506020620003ac89828a01620002b0565b9550506040620003bf89828a0162000358565b945050606087013567ffffffffffffffff811115620003dd57600080fd5b620003eb89828a01620002c7565b9350935050608087013567ffffffffffffffff8111156200040b57600080fd5b6200041989828a016200032b565b9150509295509295509295565b6000602082840312156200043957600080fd5b6000620004498482850162000358565b91505092915050565b6000620004608383620005a0565b905092915050565b620004738162000894565b82525050565b620004848162000894565b82525050565b600062000498838562000797565b935083602084028501620004ac8462000775565b8060005b87811015620004f8578484038952620004ca828462000856565b620004d6858262000452565b9450620004e3836200078a565b925060208a01995050600181019050620004b0565b50829750879450505050509392505050565b6200051581620008a8565b82525050565b6000620005298385620007a8565b93506200053883858462000906565b62000543836200097a565b840190509392505050565b60006200055b826200077f565b620005678185620007b9565b93506200057981856020860162000915565b62000584816200097a565b840191505092915050565b6200059a81620008de565b82525050565b600060808301620005b560008401846200087b565b620005c4600086018262000635565b50620005d46020840184620007ca565b620005e3602086018262000468565b50620005f36040840184620007e3565b6200060260408601826200050a565b50620006126060840184620007fc565b8583036060870152620006278382846200051b565b925050508091505092915050565b6200064081620008d4565b82525050565b6200065181620008d4565b82525050565b60006020820190506200066e600083018462000479565b92915050565b600060c0820190506200068b600083018a62000479565b6200069a602083018962000479565b620006a9604083018862000479565b620006b8606083018762000646565b8181036080830152620006cd8185876200048a565b905081810360a0830152620006e381846200054e565b905098975050505050505050565b60006020820190506200070860008301846200058f565b92915050565b6000604051905081810181811067ffffffffffffffff821117156200073857620007376200094b565b5b8060405250919050565b600067ffffffffffffffff82111562000760576200075f6200094b565b5b601f19601f8301169050602081019050919050565b6000819050919050565b600081519050919050565b6000602082019050919050565b600082825260208201905092915050565b600082825260208201905092915050565b600082825260208201905092915050565b6000620007db6020840184620002b0565b905092915050565b6000620007f4602084018462000314565b905092915050565b600080833560016020038436030381126200081657600080fd5b83810192508235915060208301925067ffffffffffffffff8211156200083b57600080fd5b6001820236038413156200084e57600080fd5b509250929050565b6000823560016080038336030381126200086f57600080fd5b82810191505092915050565b60006200088c602084018462000358565b905092915050565b6000620008a182620008b4565b9050919050565b60008115159050919050565b600073ffffffffffffffffffffffffffffffffffffffff82169050919050565b6000819050919050565b6000620008eb82620008f2565b9050919050565b6000620008ff82620008b4565b9050919050565b82818337600083830152505050565b60005b838110156200093557808201518184015260208101905062000918565b8381111562000945576000848401525b50505050565b7f4e487b7100000000000000000000000000000000000000000000000000000000600052604160045260246000fd5b6000601f19601f8301169050919050565b620009968162000894565b8114620009a257600080fd5b50565b620009b081620008a8565b8114620009bc57600080fd5b50565b620009ca81620008d4565b8114620009d657600080fd5b5056fe608060405260008060006101000a81548173ffffffffffffffffffffffffffffffffffffffff021916908373ffffffffffffffffffffffffffffffffffffffff1602179055503480156200005257600080fd5b50604051620034e7380380620034e78339818101604052810190620000789190620005d6565b600073ffffffffffffffffffffffffffffffffffffffff168573ffffffffffffffffffffffffffffffffffffffff161415620000eb576040517f08c379a0000000000000000000000000000000000000000000000000000000008152600401620000e29062000934565b60405180910390fd5b60005b82518110156200020d57600d83828151811062000134577f4e487b7100000000000000000000000000000000000000000000000000000000600052603260045260246000fd5b602002602001015190806001815401808255809150506001900390600052602060002090600302016000909190919091506000820151816000015560208201518160010160006101000a81548173ffffffffffffffffffffffffffffffffffffffff021916908373ffffffffffffffffffffffffffffffffffffffff16021790555060408201518160010160146101000a81548160ff0219169083151502179055506060820151816002019080519060200190620001f492919062000345565b5050508080620002049062000b7a565b915050620000ee565b5085600260006101000a81548173ffffffffffffffffffffffffffffffffffffffff021916908373ffffffffffffffffffffffffffffffffffffffff16021790555084600360006101000a81548173ffffffffffffffffffffffffffffffffffffffff021916908373ffffffffffffffffffffffffffffffffffffffff16021790555083600460006101000a81548173ffffffffffffffffffffffffffffffffffffffff021916908373ffffffffffffffffffffffffffffffffffffffff160217905550610e1083620002e1919062000a63565b600a8190555080600e9080519060200190620002ff92919062000345565b503085858484426040516020016200031d96959493929190620008b9565b6040516020818303038152906040528051906020012060058190555050505050505062000cb4565b828054620003539062000b44565b90600052602060002090601f016020900481019282620003775760008555620003c3565b82601f106200039257805160ff1916838001178555620003c3565b82800160010185558215620003c3579182015b82811115620003c2578251825591602001919060010190620003a5565b5b509050620003d29190620003d6565b5090565b5b80821115620003f1576000816000905550600101620003d7565b5090565b60006200040c62000406846200098a565b62000956565b9050808382526020820190508260005b8581101562000450578151850162000435888262000527565b8452602084019350602083019250506001810190506200041c565b5050509392505050565b6000620004716200046b84620009b9565b62000956565b9050828152602081018484840111156200048a57600080fd5b6200049784828562000b0e565b509392505050565b600081519050620004b08162000c66565b92915050565b600082601f830112620004c857600080fd5b8151620004da848260208601620003f5565b91505092915050565b600081519050620004f48162000c80565b92915050565b600082601f8301126200050c57600080fd5b81516200051e8482602086016200045a565b91505092915050565b6000608082840312156200053a57600080fd5b62000546608062000956565b905060006200055884828501620005bf565b60008301525060206200056e848285016200049f565b60208301525060406200058484828501620004e3565b604083015250606082015167ffffffffffffffff811115620005a557600080fd5b620005b384828501620004fa565b60608301525092915050565b600081519050620005d08162000c9a565b92915050565b60008060008060008060c08789031215620005f057600080fd5b60006200060089828a016200049f565b96505060206200061389828a016200049f565b95505060406200062689828a016200049f565b94505060606200063989828a01620005bf565b935050608087015167ffffffffffffffff8111156200065757600080fd5b6200066589828a01620004b6565b92505060a087015167ffffffffffffffff8111156200068357600080fd5b6200069189828a01620004fa565b9150509295509295509295565b6000620006ac83836200082c565b905092915050565b620006bf8162000ac4565b82525050565b620006d08162000ac4565b82525050565b6000620006e382620009fc565b620006ef818562000a1f565b9350836020820285016200070385620009ec565b8060005b858110156200074557848403895281516200072385826200069e565b9450620007308362000a12565b925060208a0199505060018101905062000707565b50829750879550505050505092915050565b620007628162000ad8565b82525050565b6000620007758262000a07565b62000781818562000a30565b93506200079381856020860162000b0e565b6200079e8162000c55565b840191505092915050565b6000620007b68262000a07565b620007c2818562000a41565b9350620007d481856020860162000b0e565b620007df8162000c55565b840191505092915050565b6000620007f9601e8362000a52565b91507f536f6c7665723a204b6565706572206164647265737320696e76616c696400006000830152602082019050919050565b600060808301600083015162000846600086018262000897565b5060208301516200085b6020860182620006b4565b50604083015162000870604086018262000757565b50606083015184820360608601526200088a828262000768565b9150508091505092915050565b620008a28162000b04565b82525050565b620008b38162000b04565b82525050565b600060c082019050620008d06000830189620006c5565b620008df6020830188620006c5565b620008ee6040830187620006c5565b8181036060830152620009028186620006d6565b90508181036080830152620009188185620007a9565b90506200092960a0830184620008a8565b979650505050505050565b600060208201905081810360008301526200094f81620007ea565b9050919050565b6000604051905081810181811067ffffffffffffffff8211171562000980576200097f62000c26565b5b8060405250919050565b600067ffffffffffffffff821115620009a857620009a762000c26565b5b602082029050602081019050919050565b600067ffffffffffffffff821115620009d757620009d662000c26565b5b601f19601f8301169050602081019050919050565b6000819050602082019050919050565b600081519050919050565b600081519050919050565b6000602082019050919050565b600082825260208201905092915050565b600082825260208201905092915050565b600082825260208201905092915050565b600082825260208201905092915050565b600062000a708262000b04565b915062000a7d8362000b04565b9250817fffffffffffffffffffffffffffffffffffffffffffffffffffffffffffffffff048311821515161562000ab95762000ab862000bc8565b5b828202905092915050565b600062000ad18262000ae4565b9050919050565b60008115159050919050565b600073ffffffffffffffffffffffffffffffffffffffff82169050919050565b6000819050919050565b60005b8381101562000b2e57808201518184015260208101905062000b11565b8381111562000b3e576000848401525b50505050565b6000600282049050600182168062000b5d57607f821691505b6020821081141562000b745762000b7362000bf7565b5b50919050565b600062000b878262000b04565b91507fffffffffffffffffffffffffffffffffffffffffffffffffffffffffffffffff82141562000bbd5762000bbc62000bc8565b5b600182019050919050565b7f4e487b7100000000000000000000000000000000000000000000000000000000600052601160045260246000fd5b7f4e487b7100000000000000000000000000000000000000000000000000000000600052602260045260246000fd5b7f4e487b7100000000000000000000000000000000000000000000000000000000600052604160045260246000fd5b6000601f19601f8301169050919050565b62000c718162000ac4565b811462000c7d57600080fd5b50565b62000c8b8162000ad8565b811462000c9757600080fd5b50565b62000ca58162000b04565b811462000cb157600080fd5b50565b6128238062000cc46000396000f3fe608060405234801561001057600080fd5b506004361061009e5760003560e01c80636f2f3e77116100665780636f2f3e771461010d578063bc197c8114610117578063db9b717014610147578063e7fd205914610163578063f23a6e611461017f5761009e565b80630d49722d146100a357806348d6bc00146100bf5780635a7e6898146100c95780635bd9e299146100d35780636c7f0592146100f1575b600080fd5b6100bd60048036038101906100b891906119a7565b6101af565b005b6100c7610418565b005b6100d1610753565b005b6100db610807565b6040516100e891906121f7565b60405180910390f35b61010b60048036038101906101069190611a3e565b61082b565b005b610115610d2e565b005b610131600480360381019061012c919061180d565b610e3b565b60405161013e91906121dc565b60405180910390f35b610161600480360381019061015c919061196b565b610e53565b005b61017d600480360381019061017891906119a7565b610ee4565b005b610199600480360381019061019491906118d9565b611073565b6040516101a691906121dc565b60405180910390f35b600360009054906101000a900473ffffffffffffffffffffffffffffffffffffffff1673ffffffffffffffffffffffffffffffffffffffff163373ffffffffffffffffffffffffffffffffffffffff1614806102585750600460009054906101000a900473ffffffffffffffffffffffffffffffffffffffff1673ffffffffffffffffffffffffffffffffffffffff163373ffffffffffffffffffffffffffffffffffffffff16145b610297576040517f08c379a000000000000000000000000000000000000000000000000000000000815260040161028e906123ac565b60405180910390fd5b60018060156101000a81548160ff02191690831515021790556102ef576040517f08c379a00000000000000000000000000000000000000000000000000000000081526004016102e6906122ec565b60405180910390fd5b6000600160166101000a81548160ff0219169083151502179055610348576040517f08c379a000000000000000000000000000000000000000000000000000000000815260040161033f906122ac565b60405180910390fd5b6000600160176101000a81548160ff02191690831515021790556103a1576040517f08c379a00000000000000000000000000000000000000000000000000000000081526004016103989061228c565b60405180910390fd5b6000600160146101000a81548160ff02191690831515021790556103fa576040517f08c379a00000000000000000000000000000000000000000000000000000000081526004016103f19061234c565b60405180910390fd5b8181600c919061040b9291906115e6565b50610414611089565b5050565b600360009054906101000a900473ffffffffffffffffffffffffffffffffffffffff1673ffffffffffffffffffffffffffffffffffffffff163373ffffffffffffffffffffffffffffffffffffffff1614806104c15750600460009054906101000a900473ffffffffffffffffffffffffffffffffffffffff1673ffffffffffffffffffffffffffffffffffffffff163373ffffffffffffffffffffffffffffffffffffffff16145b610500576040517f08c379a00000000000000000000000000000000000000000000000000000000081526004016104f7906123ac565b60405180910390fd5b60018060156101000a81548160ff0219169083151502179055610558576040517f08c379a000000000000000000000000000000000000000000000000000000000815260040161054f906122ec565b60405180910390fd5b6000600160166101000a81548160ff02191690831515021790556105b1576040517f08c379a00000000000000000000000000000000000000000000000000000000081526004016105a8906122ac565b60405180910390fd5b6000600160176101000a81548160ff021916908315150217905561060a576040517f08c379a00000000000000000000000000000000000000000000000000000000081526004016106019061228c565b60405180910390fd5b6000600160146101000a81548160ff0219169083151502179055610663576040517f08c379a000000000000000000000000000000000000000000000000000000000815260040161065a9061234c565b60405180910390fd5b600b5442116106a7576040517f08c379a000000000000000000000000000000000000000000000000000000000815260040161069e906123cc565b60405180910390fd5b60008054906101000a900473ffffffffffffffffffffffffffffffffffffffff1673ffffffffffffffffffffffffffffffffffffffff1663c49298ac600554600c6040518363ffffffff1660e01b81526004016107059291906121ac565b600060405180830381600087803b15801561071f57600080fd5b505af1158015610733573d6000803e3d6000fd5b5050505060018060146101000a81548160ff021916908315150217905550565b600260009054906101000a900473ffffffffffffffffffffffffffffffffffffffff1673ffffffffffffffffffffffffffffffffffffffff163373ffffffffffffffffffffffffffffffffffffffff16146107e3576040517f08c379a00000000000000000000000000000000000000000000000000000000081526004016107da9061226c565b60405180910390fd5b60018060156101000a81548160ff021916908315150217905550610805611202565b565b60008054906101000a900473ffffffffffffffffffffffffffffffffffffffff1681565b600360009054906101000a900473ffffffffffffffffffffffffffffffffffffffff1673ffffffffffffffffffffffffffffffffffffffff163373ffffffffffffffffffffffffffffffffffffffff16146108bb576040517f08c379a00000000000000000000000000000000000000000000000000000000081526004016108b29061226c565b60405180910390fd5b60018060156101000a81548160ff0219169083151502179055610913576040517f08c379a000000000000000000000000000000000000000000000000000000000815260040161090a906122ec565b60405180910390fd5b6000600160166101000a81548160ff021916908315150217905561096c576040517f08c379a0000000000000000000000000000000000000000000000000000000008152600401610963906122ac565b60405180910390fd5b6000600160176101000a81548160ff02191690831515021790556109c5576040517f08c379a00000000000000000000000000000000000000000000000000000000081526004016109bc9061228c565b60405180910390fd5b6000600160146101000a81548160ff0219169083151502179055610a1e576040517f08c379a0000000000000000000000000000000000000000000000000000000008152600401610a159061234c565b60405180910390fd5b60011515600160159054906101000a900460ff16151514610a74576040517f08c379a0000000000000000000000000000000000000000000000000000000008152600401610a6b906122ec565b60405180910390fd5b60008060009054906101000a900473ffffffffffffffffffffffffffffffffffffffff1673ffffffffffffffffffffffffffffffffffffffff1663852c6ae23089886040518463ffffffff1660e01b8152600401610ad49392919061214c565b60206040518083038186803b158015610aec57600080fd5b505afa158015610b00573d6000803e3d6000fd5b505050506040513d601f19601f82011682018060405250810190610b249190611a15565b90506000801b861415610c92578273ffffffffffffffffffffffffffffffffffffffff166323b872dd600260009054906101000a900473ffffffffffffffffffffffffffffffffffffffff1630856040518463ffffffff1660e01b8152600401610b90939291906120ec565b602060405180830381600087803b158015610baa57600080fd5b505af1158015610bbe573d6000803e3d6000fd5b505050506040513d601f19601f82011682018060405250810190610be291906119ec565b508273ffffffffffffffffffffffffffffffffffffffff1663095ea7b360008054906101000a900473ffffffffffffffffffffffffffffffffffffffff16846040518363ffffffff1660e01b8152600401610c3e929190612183565b602060405180830381600087803b158015610c5857600080fd5b505af1158015610c6c573d6000803e3d6000fd5b505050506040513d601f19601f82011682018060405250810190610c9091906119ec565b505b60008054906101000a900473ffffffffffffffffffffffffffffffffffffffff1673ffffffffffffffffffffffffffffffffffffffff166372ce427584888488876040518663ffffffff1660e01b8152600401610cf3959493929190612212565b600060405180830381600087803b158015610d0d57600080fd5b505af1158015610d21573d6000803e3d6000fd5b5050505050505050505050565b600460009054906101000a900473ffffffffffffffffffffffffffffffffffffffff1673ffffffffffffffffffffffffffffffffffffffff163373ffffffffffffffffffffffffffffffffffffffff1614610dbe576040517f08c379a0000000000000000000000000000000000000000000000000000000008152600401610db59061230c565b60405180910390fd5b60018060166101000a81548160ff0219169083151502179055610e16576040517f08c379a0000000000000000000000000000000000000000000000000000000008152600401610e0d9061236c565b60405180910390fd5b6000600160166101000a81548160ff021916908315150217905550610e39611089565b565b600063bc197c8160e01b905098975050505050505050565b60008054906101000a900473ffffffffffffffffffffffffffffffffffffffff1673ffffffffffffffffffffffffffffffffffffffff1663a22cb46583836040518363ffffffff1660e01b8152600401610eae929190612123565b600060405180830381600087803b158015610ec857600080fd5b505af1158015610edc573d6000803e3d6000fd5b505050505050565b600460009054906101000a900473ffffffffffffffffffffffffffffffffffffffff1673ffffffffffffffffffffffffffffffffffffffff163373ffffffffffffffffffffffffffffffffffffffff1614610f74576040517f08c379a0000000000000000000000000000000000000000000000000000000008152600401610f6b9061230c565b60405180910390fd5b60011515600160159054906101000a900460ff16151514610fca576040517f08c379a0000000000000000000000000000000000000000000000000000000008152600401610fc1906122ec565b60405180910390fd5b60011515600160169054906101000a900460ff16151514611020576040517f08c379a0000000000000000000000000000000000000000000000000000000008152600401611017906122cc565b60405180910390fd5b8181600c91906110319291906115e6565b506000600160166101000a81548160ff02191690831515021790555060018060176101000a81548160ff02191690831515021790555061106f611089565b5050565b600063f23a6e6160e01b90509695505050505050565b60018060156101000a81548160ff02191690831515021790556110e1576040517f08c379a00000000000000000000000000000000000000000000000000000000081526004016110d8906122ec565b60405180910390fd5b6000600160166101000a81548160ff021916908315150217905561113a576040517f08c379a0000000000000000000000000000000000000000000000000000000008152600401611131906122ac565b60405180910390fd5b6000600160176101000a81548160ff0219169083151502179055611193576040517f08c379a000000000000000000000000000000000000000000000000000000000815260040161118a9061228c565b60405180910390fd5b6000600160146101000a81548160ff02191690831515021790556111ec576040517f08c379a00000000000000000000000000000000000000000000000000000000081526004016111e39061234c565b60405180910390fd5b600a54426111fa9190612500565b600b81905550565b60005b600d8054905081101561122f5761121b81611232565b50808061122790612684565b915050611205565b50565b6060600d828154811061126e577f4e487b7100000000000000000000000000000000000000000000000000000000600052603260045260246000fd5b906000526020600020906003020160010160009054906101000a900473ffffffffffffffffffffffffffffffffffffffff16600d83815481106112da577f4e487b7100000000000000000000000000000000000000000000000000000000600052603260045260246000fd5b906000526020600020906003020160010160149054906101000a900460ff1615611339576040517f08c379a0000000000000000000000000000000000000000000000000000000008152600401611330906123ec565b60405180910390fd5b600d8381548110611373577f4e487b7100000000000000000000000000000000000000000000000000000000600052603260045260246000fd5b9060005260206000209060030201600001544710156113c7576040517f08c379a00000000000000000000000000000000000000000000000000000000081526004016113be9061232c565b60405180910390fd5b6001600d8481548110611403577f4e487b7100000000000000000000000000000000000000000000000000000000600052603260045260246000fd5b906000526020600020906003020160010160146101000a81548160ff021916908315150217905550600080600d8581548110611468577f4e487b7100000000000000000000000000000000000000000000000000000000600052603260045260246000fd5b906000526020600020906003020160010160009054906101000a900473ffffffffffffffffffffffffffffffffffffffff1673ffffffffffffffffffffffffffffffffffffffff16600d86815481106114ea577f4e487b7100000000000000000000000000000000000000000000000000000000600052603260045260246000fd5b906000526020600020906003020160000154600d8781548110611536577f4e487b7100000000000000000000000000000000000000000000000000000000600052603260045260246000fd5b906000526020600020906003020160020160405161155491906120d5565b60006040518083038185875af1925050503d8060008114611591576040519150601f19603f3d011682016040523d82523d6000602084013e611596565b606091505b5091509150816115db576040517f08c379a00000000000000000000000000000000000000000000000000000000081526004016115d29061238c565b60405180910390fd5b809350505050919050565b828054828255906000526020600020908101928215611622579160200282015b82811115611621578235825591602001919060010190611606565b5b50905061162f9190611633565b5090565b5b8082111561164c576000816000905550600101611634565b5090565b600061166361165e8461243d565b61240c565b9050808382526020820190508285602086028201111561168257600080fd5b60005b858110156116b2578161169888826117f8565b845260208401935060208301925050600181019050611685565b5050509392505050565b6000813590506116cb8161277a565b92915050565b60008083601f8401126116e357600080fd5b8235905067ffffffffffffffff8111156116fc57600080fd5b60208301915083602082028301111561171457600080fd5b9250929050565b600082601f83011261172c57600080fd5b813561173c848260208601611650565b91505092915050565b60008135905061175481612791565b92915050565b60008151905061176981612791565b92915050565b60008135905061177e816127a8565b92915050565b600081519050611793816127a8565b92915050565b60008083601f8401126117ab57600080fd5b8235905067ffffffffffffffff8111156117c457600080fd5b6020830191508360018202830111156117dc57600080fd5b9250929050565b6000813590506117f2816127bf565b92915050565b600081359050611807816127d6565b92915050565b60008060008060008060008060a0898b03121561182957600080fd5b60006118378b828c016116bc565b98505060206118488b828c016116bc565b975050604089013567ffffffffffffffff81111561186557600080fd5b6118718b828c016116d1565b9650965050606089013567ffffffffffffffff81111561189057600080fd5b61189c8b828c016116d1565b9450945050608089013567ffffffffffffffff8111156118bb57600080fd5b6118c78b828c01611799565b92509250509295985092959890939650565b60008060008060008060a087890312156118f257600080fd5b600061190089828a016116bc565b965050602061191189828a016116bc565b955050604061192289828a016117f8565b945050606061193389828a016117f8565b935050608087013567ffffffffffffffff81111561195057600080fd5b61195c89828a01611799565b92509250509295509295509295565b6000806040838503121561197e57600080fd5b600061198c858286016116bc565b925050602061199d85828601611745565b9150509250929050565b600080602083850312156119ba57600080fd5b600083013567ffffffffffffffff8111156119d457600080fd5b6119e0858286016116d1565b92509250509250929050565b6000602082840312156119fe57600080fd5b6000611a0c8482850161175a565b91505092915050565b600060208284031215611a2757600080fd5b6000611a3584828501611784565b91505092915050565b60008060008060008060c08789031215611a5757600080fd5b6000611a6589828a0161176f565b9650506020611a7689828a0161176f565b9550506040611a8789828a016117f8565b945050606087013567ffffffffffffffff811115611aa457600080fd5b611ab089828a0161171b565b9350506080611ac189828a016117e3565b92505060a0611ad289828a016117f8565b9150509295509295509295565b6000611aeb83836120b7565b60208301905092915050565b611b0081612560565b82525050565b6000611b11826124a3565b611b1b81856124d3565b9350611b2683612469565b8060005b83811015611b57578151611b3e8882611adf565b9750611b49836124b9565b925050600181019050611b2a565b5085935050505092915050565b6000611b6f826124ae565b611b7981856124d3565b9350611b8483612479565b8060005b83811015611bbc57611b998261275a565b611ba38882611adf565b9750611bae836124c6565b925050600181019050611b88565b5085935050505092915050565b611bd281612572565b82525050565b611be18161257e565b82525050565b611bf081612588565b82525050565b60008154611c0381612638565b611c0d81866124e4565b94506001821660008114611c285760018114611c3957611c6c565b60ff19831686528186019350611c6c565b611c428561248e565b60005b83811015611c6457815481890152600182019150602081019050611c45565b838801955050505b50505092915050565b611c7e816125f0565b82525050565b611c8d81612614565b82525050565b6000611ca0602d836124ef565b91507f536f6c7665723a204f6e6c7920746865204b656570657220616464726573732060008301527f6d61792063616c6c2074686973000000000000000000000000000000000000006020830152604082019050919050565b6000611d066026836124ef565b91507f536f6c7665723a204172626974726174696f6e20686173206265656e2064656c60008301527f69766572656400000000000000000000000000000000000000000000000000006020830152604082019050919050565b6000611d6c601e836124ef565b91507f536f6c7665723a204172626974726174696f6e2069732070656e64696e6700006000830152602082019050919050565b6000611dac601f836124ef565b91507f536f6c7665723a204172626974726174696f6e206e6f742070656e64696e67006000830152602082019050919050565b6000611dec6013836124ef565b91507f536f6c7665723a20556e696e69746961746564000000000000000000000000006000830152602082019050919050565b6000611e2c602e836124ef565b91507f536f6c7665723a204f6e6c79207468652041726269746572206164647265737360008301527f206d61792063616c6c20746869730000000000000000000000000000000000006020830152604082019050919050565b6000611e926018836124ef565b91507f536f6c7665723a3a696e73756666696369656e742065746800000000000000006000830152602082019050919050565b6000611ed26019836124ef565b91507f536f6c7665723a20536f6c766520697320636f6d706c657465000000000000006000830152602082019050919050565b6000611f126022836124ef565b91507f536f6c7665723a204172626974726174696f6e206973206e6f742070656e646960008301527f6e670000000000000000000000000000000000000000000000000000000000006020830152604082019050919050565b6000611f786014836124ef565b91507f536f6c7665723a3a63616c6c206661696c7572650000000000000000000000006000830152602082019050919050565b6000611fb86031836124ef565b91507f536f6c7665723a204f6e6c7920746865204b6565706572206f7220417262697460008301527f6572206d61792063616c6c20746869732e0000000000000000000000000000006020830152604082019050919050565b600061201e6027836124ef565b91507f536f6c7665723a2054696d656c6f636b206973207374696c6c20696e2074686560008301527f20667574757265000000000000000000000000000000000000000000000000006020830152604082019050919050565b60006120846017836124ef565b91507f536f6c7665723a3a616374696f6e2065786563757465640000000000000000006000830152602082019050919050565b6120c0816125e6565b82525050565b6120cf816125e6565b82525050565b60006120e18284611bf6565b915081905092915050565b60006060820190506121016000830186611af7565b61210e6020830185611af7565b61211b60408301846120c6565b949350505050565b60006040820190506121386000830185611af7565b6121456020830184611bc9565b9392505050565b60006060820190506121616000830186611af7565b61216e6020830185611bd8565b61217b60408301846120c6565b949350505050565b60006040820190506121986000830185611af7565b6121a560208301846120c6565b9392505050565b60006040820190506121c16000830185611bd8565b81810360208301526121d38184611b64565b90509392505050565b60006020820190506121f16000830184611be7565b92915050565b600060208201905061220c6000830184611c75565b92915050565b600060a0820190506122276000830188611c84565b6122346020830187611bd8565b6122416040830186611bd8565b81810360608301526122538185611b06565b905061226260808301846120c6565b9695505050505050565b6000602082019050818103600083015261228581611c93565b9050919050565b600060208201905081810360008301526122a581611cf9565b9050919050565b600060208201905081810360008301526122c581611d5f565b9050919050565b600060208201905081810360008301526122e581611d9f565b9050919050565b6000602082019050818103600083015261230581611ddf565b9050919050565b6000602082019050818103600083015261232581611e1f565b9050919050565b6000602082019050818103600083015261234581611e85565b9050919050565b6000602082019050818103600083015261236581611ec5565b9050919050565b6000602082019050818103600083015261238581611f05565b9050919050565b600060208201905081810360008301526123a581611f6b565b9050919050565b600060208201905081810360008301526123c581611fab565b9050919050565b600060208201905081810360008301526123e581612011565b9050919050565b6000602082019050818103600083015261240581612077565b9050919050565b6000604051905081810181811067ffffffffffffffff821117156124335761243261272b565b5b8060405250919050565b600067ffffffffffffffff8211156124585761245761272b565b5b602082029050602081019050919050565b6000819050602082019050919050565b60008190508160005260206000209050919050565b60008190508160005260206000209050919050565b600081519050919050565b600081549050919050565b6000602082019050919050565b6000600182019050919050565b600082825260208201905092915050565b600081905092915050565b600082825260208201905092915050565b600061250b826125e6565b9150612516836125e6565b9250827fffffffffffffffffffffffffffffffffffffffffffffffffffffffffffffffff0382111561254b5761254a6126cd565b5b828201905092915050565b6000819050919050565b600061256b826125c6565b9050919050565b60008115159050919050565b6000819050919050565b60007fffffffff0000000000000000000000000000000000000000000000000000000082169050919050565b60006125bf82612560565b9050919050565b600073ffffffffffffffffffffffffffffffffffffffff82169050919050565b6000819050919050565b60006125fb82612602565b9050919050565b600061260d826125c6565b9050919050565b600061261f82612626565b9050919050565b6000612631826125c6565b9050919050565b6000600282049050600182168061265057607f821691505b60208210811415612664576126636126fc565b5b50919050565b600061267d6126788361276d565b612556565b9050919050565b600061268f826125e6565b91507fffffffffffffffffffffffffffffffffffffffffffffffffffffffffffffffff8214156126c2576126c16126cd565b5b600182019050919050565b7f4e487b7100000000000000000000000000000000000000000000000000000000600052601160045260246000fd5b7f4e487b7100000000000000000000000000000000000000000000000000000000600052602260045260246000fd5b7f4e487b7100000000000000000000000000000000000000000000000000000000600052604160045260246000fd5b6000612766825461266a565b9050919050565b60008160001c9050919050565b61278381612560565b811461278e57600080fd5b50565b61279a81612572565b81146127a557600080fd5b50565b6127b18161257e565b81146127bc57600080fd5b50565b6127c8816125b4565b81146127d357600080fd5b50565b6127df816125e6565b81146127ea57600080fd5b5056fea264697066735822122089f231b2e4d9e6bdb42987c235f3a9d7800138adbb133d370d661ed935feaae964736f6c63430008000033a2646970667358221220d02b010e6ecb64ee1308f2c0eb8fa5ade2a6d53dde0147129f43144b57fe9e7664736f6c63430008000033",
  "linkReferences": {},
  "deployedLinkReferences": {}
}