{
  "_format": "hh-sol-artifact-1",
  "contractName": "SolverFactory",
  "sourceName": "contracts/SolverFactory.sol",
  "abi": [
    {
      "anonymous": false,
      "inputs": [
        {
          "indexed": false,
          "internalType": "address",
          "name": "newSolverAddress",
          "type": "address"
        }
      ],
      "name": "SolverCreated",
      "type": "event"
    },
    {
      "inputs": [
        {
          "internalType": "contract IERC20",
          "name": "_collateralToken",
          "type": "address"
        },
        {
          "internalType": "address",
          "name": "_chainParent",
          "type": "address"
        },
        {
          "internalType": "uint256",
          "name": "_chainIndex",
          "type": "uint256"
        },
        {
          "components": [
            {
              "internalType": "contract Solver",
              "name": "implementation",
              "type": "address"
            },
            {
              "internalType": "address",
              "name": "keeper",
              "type": "address"
            },
            {
              "internalType": "address",
              "name": "arbitrator",
              "type": "address"
            },
            {
              "internalType": "uint256",
              "name": "timelockSeconds",
              "type": "uint256"
            },
            {
              "internalType": "bytes",
              "name": "data",
              "type": "bytes"
            },
            {
              "components": [
                {
                  "internalType": "uint256",
                  "name": "executions",
                  "type": "uint256"
                },
                {
                  "internalType": "bool",
                  "name": "isDeferred",
                  "type": "bool"
                },
                {
                  "internalType": "bool",
                  "name": "isConstant",
                  "type": "bool"
                },
                {
                  "internalType": "uint8",
                  "name": "port",
                  "type": "uint8"
                },
                {
                  "internalType": "uint256",
                  "name": "key",
                  "type": "uint256"
                },
                {
                  "internalType": "uint256",
                  "name": "solverIndex",
                  "type": "uint256"
                },
                {
                  "internalType": "bytes",
                  "name": "data",
                  "type": "bytes"
                }
              ],
              "internalType": "struct SolverLib.Ingest[]",
              "name": "ingests",
              "type": "tuple[]"
            },
            {
              "components": [
                {
                  "internalType": "bool",
                  "name": "executed",
                  "type": "bool"
                },
                {
                  "internalType": "bool",
                  "name": "isPort",
                  "type": "bool"
                },
                {
                  "internalType": "address",
                  "name": "to",
                  "type": "address"
                },
                {
                  "internalType": "uint256",
                  "name": "portIndex",
                  "type": "uint256"
                },
                {
                  "internalType": "uint256",
                  "name": "value",
                  "type": "uint256"
                },
                {
                  "internalType": "bytes",
                  "name": "data",
                  "type": "bytes"
                }
              ],
              "internalType": "struct SolverLib.Action[]",
              "name": "actions",
              "type": "tuple[]"
            },
            {
              "components": [
                {
                  "internalType": "uint256",
                  "name": "outcomeSlots",
                  "type": "uint256"
                },
                {
                  "internalType": "uint256",
                  "name": "parentCollectionPartitionIndex",
                  "type": "uint256"
                },
                {
                  "internalType": "uint256",
                  "name": "amount",
                  "type": "uint256"
                },
                {
                  "internalType": "uint256[]",
                  "name": "partition",
                  "type": "uint256[]"
                },
                {
                  "internalType": "uint256[][]",
                  "name": "recipientAddressPorts",
                  "type": "uint256[][]"
                },
                {
                  "internalType": "uint256[][]",
                  "name": "recipientAmounts",
                  "type": "uint256[][]"
                },
                {
                  "internalType": "string",
                  "name": "metadata",
                  "type": "string"
                }
              ],
              "internalType": "struct SolverLib.ConditionBase",
              "name": "conditionBase",
              "type": "tuple"
            }
          ],
          "internalType": "struct SolverLib.Config",
          "name": "_solverConfig",
          "type": "tuple"
        }
      ],
      "name": "createSolver",
      "outputs": [
        {
          "internalType": "address",
          "name": "",
          "type": "address"
        }
      ],
      "stateMutability": "nonpayable",
      "type": "function"
    },
    {
      "inputs": [
        {
          "internalType": "uint256",
          "name": "",
          "type": "uint256"
        }
      ],
      "name": "solvers",
      "outputs": [
        {
          "internalType": "contract Solver",
          "name": "",
          "type": "address"
        }
      ],
      "stateMutability": "view",
      "type": "function"
    }
  ],
  "bytecode": "0x608060405234801561001057600080fd5b5061095a806100206000396000f3fe608060405234801561001057600080fd5b50600436106100365760003560e01c806340e260d31461003b57806392ce765e14610064575b600080fd5b61004e610049366004610299565b610077565b60405161005b9190610691565b60405180910390f35b61004e61007236600461032b565b6101b8565b6000806100876020840184610308565b6001600160a01b031614156100b75760405162461bcd60e51b81526004016100ae906107fd565b60405180910390fd5b60006100ce6100c96020850185610308565b6101e2565b6040517fff1ed30c0000000000000000000000000000000000000000000000000000000081529091506001600160a01b0382169063ff1ed30c9061011c9089908990899089906004016106a5565b600060405180830381600087803b15801561013657600080fd5b505af115801561014a573d6000803e3d6000fd5b5050600080546001810182559080527f290decd9548b62a8d60345a988386fc84ba6bc95484008f6362f93160ef3e5630180547fffffffffffffffffffffffff0000000000000000000000000000000000000000166001600160a01b03851617905550909695505050505050565b600081815481106101c857600080fd5b6000918252602090912001546001600160a01b0316905081565b60006040517f3d602d80600a3d3981f3363d3d373d3d3d363d7300000000000000000000000081528260601b60148201527f5af43d82803e903d91602b57fd5bf3000000000000000000000000000000000060288201526037816000f09150506001600160a01b0381166102685760405162461bcd60e51b81526004016100ae906107c6565b919050565b80356102688161090c565b8035801515811461026857600080fd5b803560ff8116811461026857600080fd5b600080600080608085870312156102ae578384fd5b84356102b98161090c565b935060208501356102c98161090c565b925060408501359150606085013567ffffffffffffffff8111156102eb578182fd5b850161010081880312156102fd578182fd5b939692955090935050565b600060208284031215610319578081fd5b81356103248161090c565b9392505050565b60006020828403121561033c578081fd5b5035919050565b6001600160a01b03169052565b8183526020808401936000918085028201810184845b878110156103a057848303601f19018952610381828861085a565b61038c85828461055c565b9a86019a9450505090830190600101610366565b5090979650505050505050565b8183526020808401936000918085028201810184845b878110156103a057848303601f1901895281353688900360be190181126103e8578687fd5b870160c0813580151581146103fb578889fd5b61040586826105a9565b50610411868301610278565b61041d878701826105a9565b50604061042b81840161026d565b61043782880182610343565b5050606082810135908601526080808301359086015260a061045b818401846108a9565b9350828288015261046f83880185836105af565b9c88019c965050509285019250506001016103c3565b8183526020808401936000918085028201810184845b878110156103a057848303601f190189526104b682886108ee565b60e0813585528582013580151581146104cd578889fd5b6104d9878701826105a9565b5060406104e7818401610278565b6104f3828801826105a9565b50506060610502818401610288565b61050e8288018261068a565b50506080828101359086015260a0808301359086015260c0610532818401846108a9565b9350828288015261054683880185836105af565b9c88019c9650505092850192505060010161049b565b60008284527f07ffffffffffffffffffffffffffffffffffffffffffffffffffffffffffffff83111561058d578081fd5b6020830280836020870137939093016020019283525090919050565b15159052565b60008284528282602086013780602084860101526020601f19601f85011685010190509392505050565b6000813583526020820135602084015260408201356040840152610600606083018361085a565b60e0606086015261061560e08601828461055c565b915050610625608084018461085a565b8583036080870152610638838284610350565b9250505061064960a084018461085a565b85830360a087015261065c838284610350565b9250505061066d60c08401846108a9565b85830360c08701526106808382846105af565b9695505050505050565b60ff169052565b6001600160a01b0391909116815260200190565b60006001600160a01b038087168352808616602084015250836040830152608060608301526106df608083016106da8561026d565b610343565b6106eb6020840161026d565b6106f860a0840182610343565b506107056040840161026d565b61071260c0840182610343565b50606083013560e083015261072a60808401846108a9565b61010084810152610740610180850182846105af565b91505061075060a085018561085a565b607f198086850301610120870152610769848385610485565b935061077860c088018861085a565b9350915080868503016101408701526107928484846103ad565b93506107a160e08801886108ee565b9250808685030161016087015250506107ba82826105d9565b98975050505050505050565b60208082526016908201527f455243313136373a20637265617465206661696c656400000000000000000000604082015260600190565b6020808252602d908201527f536f6c766572466163746f72793a3a496e76616c696420696d706c656d656e7460408201527f6174696f6e206164647265737300000000000000000000000000000000000000606082015260800190565b6000808335601e19843603018112610870578283fd5b830160208101925035905067ffffffffffffffff81111561089057600080fd5b6020810236038313156108a257600080fd5b9250929050565b6000808335601e198436030181126108bf578283fd5b830160208101925035905067ffffffffffffffff8111156108df57600080fd5b8036038313156108a257600080fd5b6000823560de19833603018112610903578182fd5b90910192915050565b6001600160a01b038116811461092157600080fd5b5056fea26469706673582212204e7b471e165cffd59c87bc2b874bd4e967ba8ae8ee4dc290088b9c08bb068b2364736f6c63430008000033",
  "linkReferences": {},
  "deployedLinkReferences": {}
}