{
  "_format": "hh-sol-artifact-1",
  "contractName": "SolverFactory",
  "sourceName": "contracts/SolverFactory.sol",
  "abi": [
    {
      "inputs": [],
      "stateMutability": "nonpayable",
      "type": "constructor"
    },
    {
      "anonymous": false,
      "inputs": [
        {
          "indexed": false,
          "internalType": "address",
          "name": "newSolverAddress",
          "type": "address"
        }
      ],
      "name": "SolverCreated",
      "type": "event"
    },
    {
      "inputs": [
        {
          "internalType": "contract IERC20",
          "name": "_collateralToken",
          "type": "address"
        },
        {
          "internalType": "bytes32",
          "name": "_solutionId",
          "type": "bytes32"
        },
        {
          "internalType": "address",
          "name": "_proposalsHub",
          "type": "address"
        },
        {
          "internalType": "address",
          "name": "_solutionsHub",
          "type": "address"
        },
        {
          "components": [
            {
              "internalType": "contract SolverFactory",
              "name": "factory",
              "type": "address"
            },
            {
              "internalType": "address",
              "name": "keeper",
              "type": "address"
            },
            {
              "internalType": "address",
              "name": "arbiter",
              "type": "address"
            },
            {
              "internalType": "uint256",
              "name": "timelockSeconds",
              "type": "uint256"
            },
            {
              "internalType": "bytes",
              "name": "data",
              "type": "bytes"
            },
            {
              "components": [
                {
                  "internalType": "bool",
                  "name": "executed",
                  "type": "bool"
                },
                {
                  "internalType": "bool",
                  "name": "isConstant",
                  "type": "bool"
                },
                {
                  "internalType": "uint8",
                  "name": "port",
                  "type": "uint8"
                },
                {
                  "internalType": "uint256",
                  "name": "key",
                  "type": "uint256"
                },
                {
                  "internalType": "uint256",
                  "name": "solverIndex",
                  "type": "uint256"
                },
                {
                  "internalType": "bytes",
                  "name": "data",
                  "type": "bytes"
                }
              ],
              "internalType": "struct Solver.Ingest[]",
              "name": "ingests",
              "type": "tuple[]"
            },
            {
              "components": [
                {
                  "internalType": "bool",
                  "name": "executed",
                  "type": "bool"
                },
                {
                  "internalType": "bool",
                  "name": "isPort",
                  "type": "bool"
                },
                {
                  "internalType": "address",
                  "name": "to",
                  "type": "address"
                },
                {
                  "internalType": "uint256",
                  "name": "portIndex",
                  "type": "uint256"
                },
                {
                  "internalType": "uint256",
                  "name": "value",
                  "type": "uint256"
                },
                {
                  "internalType": "bytes",
                  "name": "data",
                  "type": "bytes"
                }
              ],
              "internalType": "struct Solver.Action[]",
              "name": "actions",
              "type": "tuple[]"
            },
            {
              "components": [
                {
                  "internalType": "uint256",
                  "name": "outcomeSlots",
                  "type": "uint256"
                },
                {
                  "internalType": "uint256",
                  "name": "parentCollectionIdPort",
                  "type": "uint256"
                },
                {
                  "internalType": "uint256",
                  "name": "amount",
                  "type": "uint256"
                },
                {
                  "internalType": "uint256[]",
                  "name": "partition",
                  "type": "uint256[]"
                },
                {
                  "internalType": "uint256[][]",
                  "name": "recipientAddressPorts",
                  "type": "uint256[][]"
                },
                {
                  "internalType": "uint256[][]",
                  "name": "recipientAmounts",
                  "type": "uint256[][]"
                },
                {
                  "internalType": "string",
                  "name": "metadata",
                  "type": "string"
                }
              ],
              "internalType": "struct Solver.ConditionExecutor",
              "name": "canonConditionExecutor",
              "type": "tuple"
            }
          ],
          "internalType": "struct Solver.Config",
          "name": "_solverConfig",
          "type": "tuple"
        }
      ],
      "name": "createSolver",
      "outputs": [
        {
          "internalType": "address",
          "name": "",
          "type": "address"
        }
      ],
      "stateMutability": "nonpayable",
      "type": "function"
    },
    {
      "inputs": [],
      "name": "implementationAddress",
      "outputs": [
        {
          "internalType": "address",
          "name": "",
          "type": "address"
        }
      ],
      "stateMutability": "view",
      "type": "function"
    },
    {
      "inputs": [
        {
          "internalType": "uint256",
          "name": "",
          "type": "uint256"
        }
      ],
      "name": "solvers",
      "outputs": [
        {
          "internalType": "contract Solver",
          "name": "",
          "type": "address"
        }
      ],
      "stateMutability": "view",
      "type": "function"
    }
  ],
  "bytecode": "0x60a060405234801561001057600080fd5b5060405161001d9061004f565b604051809103906000f080158015610039573d6000803e3d6000fd5b5060601b6001600160601b03191660805261005c565b613aa780610a3b83390190565b60805160601c6109bc61007f6000396000818160b6015260e001526109bc6000f3fe608060405234801561001057600080fd5b50600436106100415760003560e01c806392ce765e14610046578063b97a23191461006f578063fd8cc50c14610077575b600080fd5b6100596100543660046103ed565b61008a565b6040516100669190610732565b60405180910390f35b6100596100b4565b610059610085366004610369565b6100d8565b6000818154811061009a57600080fd5b6000918252602090912001546001600160a01b0316905081565b7f000000000000000000000000000000000000000000000000000000000000000081565b6000806101047f00000000000000000000000000000000000000000000000000000000000000006101fa565b6040517fe52c5e340000000000000000000000000000000000000000000000000000000081529091506001600160a01b0382169063e52c5e3490610154908a908a908a908a908a90600401610746565b600060405180830381600087803b15801561016e57600080fd5b505af1158015610182573d6000803e3d6000fd5b5050600080546001810182559080527f290decd9548b62a8d60345a988386fc84ba6bc95484008f6362f93160ef3e5630180547fffffffffffffffffffffffff0000000000000000000000000000000000000000166001600160a01b038516179055506101f09050816102a8565b9695505050505050565b60006040517f3d602d80600a3d3981f3363d3d373d3d3d363d7300000000000000000000000081528260601b60148201527f5af43d82803e903d91602b57fd5bf3000000000000000000000000000000000060288201526037816000f09150506001600160a01b0381166102a3576040517f08c379a000000000000000000000000000000000000000000000000000000000815260040161029a90610873565b60405180910390fd5b919050565b610319816040516024016102bc9190610732565b60408051601f198184030181529190526020810180517bffffffffffffffffffffffffffffffffffffffffffffffffffffffff167f2c2ecbc20000000000000000000000000000000000000000000000000000000017905261031c565b50565b80516a636f6e736f6c652e6c6f67602083016000808483855afa5050505050565b80356102a381610971565b803580151581146102a357600080fd5b803560ff811681146102a357600080fd5b600080600080600060a08688031215610380578081fd5b853561038b81610971565b94506020860135935060408601356103a281610971565b925060608601356103b281610971565b9150608086013567ffffffffffffffff8111156103cd578182fd5b860161010081890312156103df578182fd5b809150509295509295909350565b6000602082840312156103fe578081fd5b5035919050565b6001600160a01b03169052565b8183526020808401936000918085028201810184845b8781101561046257848303601f1901895261044382886108aa565b61044e858284610607565b9a86019a9450505090830190600101610428565b5090979650505050505050565b8183526020808401936000918085028201810184845b8781101561046257848303601f190189526104a0828861093e565b60c0813580151581146104b1578889fd5b6104bb8682610654565b506104c7868301610348565b6104d387870182610654565b5060406104e181840161033d565b6104ed82880182610405565b5050606082810135908601526080808301359086015260a0610511818401846108f9565b93508282880152610525838801858361065a565b9c88019c96505050928501925050600101610485565b8183526020808401936000918085028201810184845b8781101561046257848303601f1901895261056c828861093e565b60c08135801515811461057d578889fd5b6105878682610654565b50610593868301610348565b61059f87870182610654565b5060406105ad818401610358565b6105b98288018261072b565b5050606082810135908601526080808301359086015260a06105dd818401846108f9565b935082828801526105f1838801858361065a565b9c88019c96505050928501925050600101610551565b60008284527f07ffffffffffffffffffffffffffffffffffffffffffffffffffffffffffffff831115610638578081fd5b6020830280836020870137939093016020019283525090919050565b15159052565b60008284528282602086013780602084860101526020601f19601f85011685010190509392505050565b60008135835260208201356020840152604082013560408401526106ab60608301836108aa565b60e060608601526106c060e086018284610607565b9150506106d060808401846108aa565b85830360808701526106e3838284610412565b925050506106f460a08401846108aa565b85830360a0870152610707838284610412565b9250505061071860c08401846108f9565b85830360c08701526101f083828461065a565b60ff169052565b6001600160a01b0391909116815260200190565b60006001600160a01b038088168352866020840152808616604084015280851660608401525060a0608083015261078860a083016107838561033d565b610405565b6107946020840161033d565b6107a160c0840182610405565b506107ae6040840161033d565b6107bb60e0840182610405565b506101006060840135818401526107d560808501856108f9565b826101208601526107eb6101a08601828461065a565b925050506107fc60a08501856108aa565b609f19808685030161014087015261081584838561053b565b935061082460c08801886108aa565b93509150808685030161016087015261083e84848461046f565b935061084d60e088018861095c565b9250808685030161018087015250506108668282610684565b9998505050505050505050565b60208082526016908201527f455243313136373a20637265617465206661696c656400000000000000000000604082015260600190565b6000808335601e198436030181126108c0578283fd5b830160208101925035905067ffffffffffffffff8111156108e057600080fd5b6020810236038313156108f257600080fd5b9250929050565b6000808335601e1984360301811261090f578283fd5b830160208101925035905067ffffffffffffffff81111561092f57600080fd5b8036038313156108f257600080fd5b6000823560be19833603018112610953578182fd5b90910192915050565b6000823560de19833603018112610953578182fd5b6001600160a01b038116811461031957600080fdfea264697066735822122016911f4be90b7e716670408b180d39921661d686c7a98a919ac71383a6f09c7d64736f6c63430008000033608060405234801561001057600080fd5b50613a87806100206000396000f3fe608060405234801561001057600080fd5b50600436106101985760003560e01c80638d905df5116100e3578063cba4d32c1161008c578063e7fd205911610066578063e7fd2059146102ef578063efabae5714610302578063f23a6e611461030a57610198565b8063cba4d32c146102cc578063d33219b4146102d4578063e52c5e34146102dc57610198565b8063b2016bd4116100bd578063b2016bd41461029c578063bc197c81146102a4578063c43c168e146102c457610198565b80638d905df514610271578063a2b14e6f1461028c578063a7f5d48c1461029457610198565b80636bf90c8411610145578063799320bb1161011f578063799320bb1461024157806383d012f41461024957806384dbd3911461025157610198565b80636bf90c841461020a5780636f2f3e771461021f57806379502c551461022757610198565b80633a275fa2116101765780633a275fa2146101e557806348d6bc00146101ed5780635bd9e299146101f557610198565b80630d49722d1461019d57806331a38c89146101b257806338cc4831146101d0575b600080fd5b6101b06101ab366004612509565b61031d565b005b6101ba61042a565b6040516101c79190612885565b60405180910390f35b6101d861043a565b6040516101c79190612890565b6101b0610441565b6101b06104ab565b6101fd610666565b6040516101c791906127c8565b610212610675565b6040516101c79190612872565b6101b06106cd565b61022f610730565b6040516101c7969594939291906129b6565b6101ba610a2d565b6101ba610a3d565b61026461025f366004612601565b610a4d565b6040516101c791906128aa565b610279610b14565b6040516101c79796959493929190612938565b6101fd610b3c565b6101fd610b4b565b6101fd610b5a565b6102b76102b23660046123d4565b610b69565b6040516101c791906128f8565b610264610b96565b6101b0610b9c565b61026461113d565b6101b06102ea36600461257d565b611143565b6101b06102fd366004612509565b611258565b6101ba611321565b6102b761031836600461248f565b611331565b6002546001600160a01b031633148061034057506003546001600160a01b031633145b6103655760405162461bcd60e51b815260040161035c90612f30565b60405180910390fd5b601854600160b01b900460ff1615156001146103935760405162461bcd60e51b815260040161035c90612bbe565b601854600160b81b900460ff16156103bd5760405162461bcd60e51b815260040161035c90612bf5565b601854600160c01b900460ff16156103e75760405162461bcd60e51b815260040161035c90612b61565b601854600160a81b900460ff16156104115760405162461bcd60e51b815260040161035c90612d9c565b61041d601d83836121ff565b5061042661135c565b5050565b601854600160b01b900460ff1681565b3060601b90565b601b546001600160a01b0316331461046b5760405162461bcd60e51b815260040161035c90612dd3565b601880547fffffffffffffffffff00ffffffffffffffffffffffffffffffffffffffffffff16600160b01b1790556104a1611425565b6104a9611481565b565b6002546001600160a01b03163314806104ce57506003546001600160a01b031633145b6104ea5760405162461bcd60e51b815260040161035c90612f30565b601854600160b01b900460ff1615156001146105185760405162461bcd60e51b815260040161035c90612bbe565b601854600160b81b900460ff16156105425760405162461bcd60e51b815260040161035c90612bf5565b601854600160c01b900460ff161561056c5760405162461bcd60e51b815260040161035c90612b61565b601854600160a81b900460ff16156105965760405162461bcd60e51b815260040161035c90612d9c565b601c5442116105b75760405162461bcd60e51b815260040161035c90612f8d565b6017546011546040517fc49298ac0000000000000000000000000000000000000000000000000000000081526001600160a01b039092169163c49298ac9161060491601d906004016128b3565b600060405180830381600087803b15801561061e57600080fd5b505af1158015610632573d6000803e3d6000fd5b5050601880547fffffffffffffffffffff00ffffffffffffffffffffffffffffffffffffffffff16600160a81b1790555050565b6017546001600160a01b031681565b6060601d8054806020026020016040519081016040528092919081815260200182805480156106c357602002820191906000526020600020905b8154815260200190600101908083116106af575b5050505050905090565b6003546001600160a01b031633146106f75760405162461bcd60e51b815260040161035c90612c63565b60188054600160b81b7fffffffffffffffff00ffffffffffffffffffffffffffffffffffffffffffffff918216171690556104a961135c565b60018054600254600354600454600580546001600160a01b0395861696948616959093169391926107609061354d565b80601f016020809104026020016040519081016040528092919081815260200182805461078c9061354d565b80156107d95780601f106107ae576101008083540402835291602001916107d9565b820191906000526020600020905b8154815290600101906020018083116107bc57829003601f168201915b505050505090806007016040518060e00160405290816000820154815260200160018201548152602001600282015481526020016003820180548060200260200160405190810160405280929190818152602001828054801561085b57602002820191906000526020600020905b815481526020019060010190808311610847575b5050505050815260200160048201805480602002602001604051908101604052809291908181526020016000905b828210156108f5576000848152602090819020830180546040805182850281018501909152818152928301828280156108e157602002820191906000526020600020905b8154815260200190600101908083116108cd575b505050505081526020019060010190610889565b50505050815260200160058201805480602002602001604051908101604052809291908181526020016000905b8282101561098e5760008481526020908190208301805460408051828502810185019091528181529283018282801561097a57602002820191906000526020600020905b815481526020019060010190808311610966575b505050505081526020019060010190610922565b5050505081526020016006820180546109a69061354d565b80601f01602080910402602001604051908101604052809291908181526020018280546109d29061354d565b8015610a1f5780601f106109f457610100808354040283529160200191610a1f565b820191906000526020600020905b815481529060010190602001808311610a0257829003601f168201915b505050505081525050905086565b601854600160a81b900460ff1681565b601854600160b81b900460ff1681565b6017546013546014546016805460009485946001600160a01b039091169363856296f793919290919088908110610a9457634e487b7160e01b600052603260045260246000fd5b90600052602060002001546040518463ffffffff1660e01b8152600401610abd939291906128d4565b60206040518083038186803b158015610ad557600080fd5b505afa158015610ae9573d6000803e3d6000fd5b505050506040513d601f19601f82011682018060405250810190610b0d9190612565565b9392505050565b600f546010546011546012546013546014546015546001600160a01b03968716969095169487565b601a546001600160a01b031681565b601b546001600160a01b031681565b6018546001600160a01b031681565b7fbc197c810000000000000000000000000000000000000000000000000000000098975050505050505050565b60195481565b601854600160b01b900460ff161515600114610bca5760405162461bcd60e51b815260040161035c90612bbe565b601854600160b81b900460ff1615610bf45760405162461bcd60e51b815260040161035c90612bf5565b601854600160c01b900460ff1615610c1e5760405162461bcd60e51b815260040161035c90612b61565b601854600160a81b900460ff1615610c485760405162461bcd60e51b815260040161035c90612d9c565b333014610c675760405162461bcd60e51b815260040161035c90612ed3565b601854600160a01b900460ff1615610c915760405162461bcd60e51b815260040161035c90612abc565b601880547fffffffffffffffffffffff00ffffffffffffffffffffffffffffffffffffffff16600160a01b17905560408051808201909152601981527f457865637574696e672063616e6f6e20636f6e646974696f6e000000000000006020820152610cfc906114a9565b604051610d1090600e90309060200161279b565b60408051601f19818403018152918152815160209283012060115560085460125560095460009081526021909252902054601355600a54601555600b8054610d5a9160169161224a565b50601080546001600160a01b031916309081179091556017546011546008546040517f852c6ae20000000000000000000000000000000000000000000000000000000081526001600160a01b03939093169363852c6ae293610dc193919290600401612838565b60206040518083038186803b158015610dd957600080fd5b505afa158015610ded573d6000803e3d6000fd5b505050506040513d601f19601f82011682018060405250810190610e119190612565565b6014556017546011546012546040517fd96ee7540000000000000000000000000000000000000000000000000000000081526001600160a01b039093169263d96ee75492610e63923092600401612838565b600060405180830381600087803b158015610e7d57600080fd5b505af1158015610e91573d6000803e3d6000fd5b50506009546000908152602160205260409020541515915061106b905057601854601a54600a546040517f23b872dd0000000000000000000000000000000000000000000000000000000081526001600160a01b039384169384936323b872dd93610f0593919092169130916004016127dc565b602060405180830381600087803b158015610f1f57600080fd5b505af1158015610f33573d6000803e3d6000fd5b505050506040513d601f19601f82011682018060405250810190610f579190612549565b5060175460405163095ea7b360e01b81526001600160a01b038381169263095ea7b392610f8d9290911690600090600401612859565b602060405180830381600087803b158015610fa757600080fd5b505af1158015610fbb573d6000803e3d6000fd5b505050506040513d601f19601f82011682018060405250810190610fdf9190612549565b50601754600a5460405163095ea7b360e01b81526001600160a01b038481169363095ea7b393611016939290911691600401612859565b602060405180830381600087803b15801561103057600080fd5b505af1158015611044573d6000803e3d6000fd5b505050506040513d601f19601f820116820180604052508101906110689190612549565b50505b6017546018546009546000908152602160205260409081902054601454600a5492517f72ce42750000000000000000000000000000000000000000000000000000000081526001600160a01b03958616956372ce4275956110d7959116939291600b9190600401612976565b600060405180830381600087803b1580156110f157600080fd5b505af1158015611105573d6000803e3d6000fd5b50506018546014546009546000908152602160205260409020546104a994506001600160a01b03909216925090600b600c600d611505565b601c5481565b6000611155604083016020840161239c565b6001600160a01b0316141561117c5760405162461bcd60e51b815260040161035c90612b2a565b80600161118982826137f1565b905050816001600160a01b0316635bd9e2996040518163ffffffff1660e01b815260040160206040518083038186803b1580156111c557600080fd5b505afa1580156111d9573d6000803e3d6000fd5b505050506040513d601f19601f820116820180604052508101906111fd91906123b8565b601780546001600160a01b03199081166001600160a01b03938416179091556018805482168884161790556019869055601a80548216868416179055601b80549091169184169190911790556112516118d6565b5050505050565b6003546001600160a01b031633146112825760405162461bcd60e51b815260040161035c90612c63565b601854600160b01b900460ff1615156001146112b05760405162461bcd60e51b815260040161035c90612bbe565b601854600160b81b900460ff1615156001146112de5760405162461bcd60e51b815260040161035c90612c2c565b6112ea601d83836121ff565b50601880547fffffffffffffff0000ffffffffffffffffffffffffffffffffffffffffffffff16600160c01b17905561042661135c565b601854600160c01b900460ff1681565b7ff23a6e61000000000000000000000000000000000000000000000000000000009695505050505050565b601854600160b01b900460ff16151560011461138a5760405162461bcd60e51b815260040161035c90612bbe565b601854600160b81b900460ff16156113b45760405162461bcd60e51b815260040161035c90612bf5565b601854600160c01b900460ff16156113de5760405162461bcd60e51b815260040161035c90612b61565b601854600160a81b900460ff16156114085760405162461bcd60e51b815260040161035c90612d9c565b6004546114169060016130fb565b61142090426130e3565b601c55565b60005b60065481101561147e5761146c6001600501828154811061145957634e487b7160e01b600052603260045260246000fd5b906000526020600020906004020161193e565b806114768161359b565b915050611428565b50565b60005b60075481101561147e5761149781611b6a565b806114a18161359b565b915050611484565b61147e816040516024016114bd9190612925565b60408051601f198184030181529190526020810180516001600160e01b03167f41304fac00000000000000000000000000000000000000000000000000000000179052611e88565b601854600160b01b900460ff1615156001146115335760405162461bcd60e51b815260040161035c90612bbe565b601854600160b81b900460ff161561155d5760405162461bcd60e51b815260040161035c90612bf5565b601854600160c01b900460ff16156115875760405162461bcd60e51b815260040161035c90612b61565b601854600160a81b900460ff16156115b15760405162461bcd60e51b815260040161035c90612d9c565b6115ef6040518060400160405280601181526020017f616c6c6f63617465506172746974696f6e0000000000000000000000000000008152506114a9565b60005b83548110156118cd5760175484546000916001600160a01b03169063856296f79088908a9089908790811061163757634e487b7160e01b600052603260045260246000fd5b90600052602060002001546040518463ffffffff1660e01b8152600401611660939291906128d4565b60206040518083038186803b15801561167857600080fd5b505afa15801561168c573d6000803e3d6000fd5b505050506040513d601f19601f820116820180604052508101906116b09190612565565b6017546040517f39dd75300000000000000000000000000000000000000000000000000000000081529192506000916001600160a01b03909116906339dd753090611701908c908690600401612859565b60206040518083038186803b15801561171957600080fd5b505afa15801561172d573d6000803e3d6000fd5b505050506040513d601f19601f820116820180604052508101906117519190612565565b905060005b85548110156118b757601760009054906101000a90046001600160a01b03166001600160a01b031663f242432a30601e60008a89815481106117a857634e487b7160e01b600052603260045260246000fd5b9060005260206000200186815481106117d157634e487b7160e01b600052603260045260246000fd5b9060005260206000200154815260200190815260200160002060009054906101000a90046001600160a01b03168589898154811061181f57634e487b7160e01b600052603260045260246000fd5b90600052602060002001868154811061184857634e487b7160e01b600052603260045260246000fd5b90600052602060002001546040518563ffffffff1660e01b81526004016118729493929190612800565b600060405180830381600087803b15801561188c57600080fd5b505af11580156118a0573d6000803e3d6000fd5b5050505080806118af9061359b565b915050611756565b50505080806118c59061359b565b9150506115f2565b50505050505050565b600080527faa8953d5d419e8cea662c0a7a5bbaf016ec367674ffc02c7c37a0f45864a08a1805460ff19166001179055601e6020527f65ce8396b736f5da9d881cc6fbcb11ef9721292dc41ec8c40879fd9edea5744d80546001600160a01b03191630179055565b805460ff16156119605760405162461bcd60e51b815260040161035c90612a85565b805460ff1916600117808255610100900460ff1615611a275780546001820154600383018054611a229362010000900460ff1692919061199f9061354d565b80601f01602080910402602001604051908101604052809291908181526020018280546119cb9061354d565b8015611a185780601f106119ed57610100808354040283529160200191611a18565b820191906000526020600020905b8154815290600101906020018083116119fb57829003601f168201915b5050505050611ea9565b61147e565b601b5460195460028301546040517f191481a00000000000000000000000000000000000000000000000000000000081526000936001600160a01b03169263191481a092611a77926004016128ea565b60206040518083038186803b158015611a8f57600080fd5b505afa158015611aa3573d6000803e3d6000fd5b505050506040513d601f19601f82011682018060405250810190611ac791906123b8565b9050600080826001600160a01b031684600301604051611ae7919061278f565b600060405180830381855afa9150503d8060008114611b22576040519150601f19603f3d011682016040523d82523d6000602084013e611b27565b606091505b509150915081611b495760405162461bcd60e51b815260040161035c90612e9e565b83546001850154611b649162010000900460ff169083611ea9565b50505050565b6007805482908110611b8c57634e487b7160e01b600052603260045260246000fd5b906000526020600020906004020160000160029054906101000a90046001600160a01b031660016006018281548110611bd557634e487b7160e01b600052603260045260246000fd5b600091825260209091206004909102015460ff1615611c065760405162461bcd60e51b815260040161035c90612fea565b6007805483908110611c2857634e487b7160e01b600052603260045260246000fd5b906000526020600020906004020160020154471015611c595760405162461bcd60e51b815260040161035c90612d65565b6001806006018381548110611c7e57634e487b7160e01b600052603260045260246000fd5b60009182526020822060049190910201805460ff1916921515929092179091556007805484908110611cc057634e487b7160e01b600052603260045260246000fd5b60009182526020918290206040805160c081018252600493909302909101805460ff80821615158552610100820416151594840194909452620100009093046001600160a01b031690820152600182015460608201526002820154608082015260038201805491929160a084019190611d389061354d565b80601f0160208091040260200160405190810160405280929190818152602001828054611d649061354d565b8015611db15780601f10611d8657610100808354040283529160200191611db1565b820191906000526020600020905b815481529060010190602001808311611d9457829003601f168201915b5050505050815250509050806020015115611dea5760608101516000908152601e602052604090819020546001600160a01b0316908201525b60008082604001516001600160a01b031683608001518460a00151604051611e129190612773565b60006040518083038185875af1925050503d8060008114611e4f576040519150601f19603f3d011682016040523d82523d6000602084013e611e54565b606091505b5091509150611e6282612068565b611e6b816120c4565b816112515760405162461bcd60e51b815260040161035c90612e30565b80516a636f6e736f6c652e6c6f67602083016000808483855afa5050505050565b60ff80841660009081526023602090815260408083208684529091529020541615611ee65760405162461bcd60e51b815260040161035c90612af3565b60ff831660008181526023602090815260408083208684529091529020805460ff19166001179055611f4e57611f1d816000612120565b6000838152601e6020526040902080546001600160a01b0319166001600160a01b0392909216919091179055612063565b8260ff1660011415611f9b576000611f67826000612166565b60ff1611611f76576000611f79565b60015b6000838152601f60205260409020805460ff1916911515919091179055612063565b8260ff1660021415611fca576000828152602080805260409091208251611fc49284019061228a565b50612063565b8260ff166003141561203c576120146040518060400160405280601381526020017f496e6765737420427974657333322044617461000000000000000000000000008152506114a9565b61201d816120c4565b61202881600061219c565b600083815260216020526040902055612063565b8260ff1660041415612063576120538160006121d2565b6000838152602260205260409020555b505050565b61147e8160405160240161207c9190612885565b60408051601f198184030181529190526020810180516001600160e01b03167f32458eed00000000000000000000000000000000000000000000000000000000179052611e88565b61147e816040516024016120d89190612925565b60408051601f198184030181529190526020810180516001600160e01b03167f0be77f5600000000000000000000000000000000000000000000000000000000179052611e88565b600061212d8260146130e3565b8351101561214d5760405162461bcd60e51b815260040161035c90612d2e565b5001602001516c01000000000000000000000000900490565b60006121738260016130e3565b835110156121935760405162461bcd60e51b815260040161035c90612e67565b50016001015190565b60006121a98260206130e3565b835110156121c95760405162461bcd60e51b815260040161035c90612cf7565b50016020015190565b60006121df8260206130e3565b835110156121c95760405162461bcd60e51b815260040161035c90612cc0565b82805482825590600052602060002090810192821561223a579160200282015b8281111561223a57823582559160200191906001019061221f565b506122469291506122fe565b5090565b82805482825590600052602060002090810192821561223a5760005260206000209182015b8281111561223a57825482559160010191906001019061226f565b8280546122969061354d565b90600052602060002090601f0160209004810192826122b8576000855561223a565b82601f106122d157805160ff191683800117855561223a565b8280016001018555821561223a579182015b8281111561223a5782518255916020019190600101906122e3565b5b8082111561224657600081556001016122ff565b60008083601f840112612324578182fd5b50813567ffffffffffffffff81111561233b578182fd5b602083019150836020808302850101111561235557600080fd5b9250929050565b60008083601f84011261236d578182fd5b50813567ffffffffffffffff811115612384578182fd5b60208301915083602082850101111561235557600080fd5b6000602082840312156123ad578081fd5b8135610b0d81613a2e565b6000602082840312156123c9578081fd5b8151610b0d81613a2e565b60008060008060008060008060a0898b0312156123ef578384fd5b88356123fa81613a2e565b9750602089013561240a81613a2e565b9650604089013567ffffffffffffffff80821115612426578586fd5b6124328c838d01612313565b909850965060608b013591508082111561244a578586fd5b6124568c838d01612313565b909650945060808b013591508082111561246e578384fd5b5061247b8b828c0161235c565b999c989b5096995094979396929594505050565b60008060008060008060a087890312156124a7578182fd5b86356124b281613a2e565b955060208701356124c281613a2e565b94506040870135935060608701359250608087013567ffffffffffffffff8111156124eb578283fd5b6124f789828a0161235c565b979a9699509497509295939492505050565b6000806020838503121561251b578182fd5b823567ffffffffffffffff811115612531578283fd5b61253d85828601612313565b90969095509350505050565b60006020828403121561255a578081fd5b8151610b0d81613a43565b600060208284031215612576578081fd5b5051919050565b600080600080600060a08688031215612594578081fd5b853561259f81613a2e565b94506020860135935060408601356125b681613a2e565b925060608601356125c681613a2e565b9150608086013567ffffffffffffffff8111156125e1578182fd5b860161010081890312156125f3578182fd5b809150509295509295909350565b600060208284031215612612578081fd5b5035919050565b6000815180845260208085018081965082840281019150828601855b8581101561265f57828403895261264d84835161266c565b98850198935090840190600101612635565b5091979650505050505050565b6000815180845260208085019450808401835b8381101561269b5781518752958201959082019060010161267f565b509495945050505050565b6000815480845260208085019450838352808320835b8381101561269b578154875295820195600191820191016126bc565b600081518084526126f0816020860160208601613521565b601f01601f19169290920160200192915050565b600081546127118161354d565b60018281168015612729576001811461273a57612769565b60ff19841687528287019450612769565b8560005260208060002060005b858110156127605781548a820152908401908201612747565b50505082870194505b5050505092915050565b60008251612785818460208701613521565b9190910192915050565b6000610b0d8284612704565b60006127a78285612704565b60609390931b6bffffffffffffffffffffffff191683525050601401919050565b6001600160a01b0391909116815260200190565b6001600160a01b039384168152919092166020820152604081019190915260600190565b6001600160a01b0394851681529290931660208301526040820152606081019190915260a06080820181905260009082015260c00190565b6001600160a01b039390931683526020830191909152604082015260600190565b6001600160a01b03929092168252602082015260400190565b600060208252610b0d602083018461266c565b901515815260200190565b6bffffffffffffffffffffffff1991909116815260200190565b90815260200190565b6000838252604060208301526128cc60408301846126a6565b949350505050565b9283526020830191909152604082015260600190565b918252602082015260400190565b7fffffffff0000000000000000000000000000000000000000000000000000000091909116815260200190565b600060208252610b0d60208301846126d8565b6001600160a01b03978816815295909616602086015260408501939093526060840191909152608083015260a082015260c081019190915260e00190565b60006001600160a01b038716825285602083015284604083015260a060608301526129a460a08301856126a6565b90508260808301529695505050505050565b60006001600160a01b038089168352808816602084015280871660408401525084606083015260c060808301526129f060c08301856126d8565b82810360a0840152835181526020840151602082015260408401516040820152606084015160e06060830152612a2960e083018261266c565b905060808501518282036080840152612a428282612619565b91505060a085015182820360a0840152612a5c8282612619565b91505060c085015182820360c0840152612a7682826126d8565b9b9a5050505050505050505050565b6020808252601f908201527f536f6c7665723a3a496e6765737420616c726561647920657865637574656400604082015260600190565b6020808252601d908201527f536f6c7665723a3a20546869732068617320616c72656164792072756e000000604082015260600190565b6020808252601b908201527f536f6c7665723a3a506f727420616c7265616479206d61707065640000000000604082015260600190565b6020808252601e908201527f536f6c7665723a204b6565706572206164647265737320696e76616c69640000604082015260600190565b60208082526026908201527f536f6c7665723a204172626974726174696f6e20686173206265656e2064656c60408201527f6976657265640000000000000000000000000000000000000000000000000000606082015260800190565b60208082526012908201527f536f6c7665723a20556e65786563757465640000000000000000000000000000604082015260600190565b6020808252601e908201527f536f6c7665723a204172626974726174696f6e2069732070656e64696e670000604082015260600190565b6020808252601f908201527f536f6c7665723a204172626974726174696f6e206e6f742070656e64696e6700604082015260600190565b6020808252602e908201527f536f6c7665723a204f6e6c79207468652041726269746572206164647265737360408201527f206d61792063616c6c2074686973000000000000000000000000000000000000606082015260800190565b60208082526015908201527f746f55696e743235365f6f75744f66426f756e64730000000000000000000000604082015260600190565b60208082526015908201527f746f427974657333325f6f75744f66426f756e64730000000000000000000000604082015260600190565b60208082526015908201527f746f416464726573735f6f75744f66426f756e64730000000000000000000000604082015260600190565b60208082526018908201527f536f6c7665723a3a696e73756666696369656e74206574680000000000000000604082015260600190565b60208082526019908201527f536f6c7665723a20536f6c766520697320636f6d706c65746500000000000000604082015260600190565b60208082526033908201527f536f6c7665723a204f6e6c792074686520736f6c7574696f6e7348756220616460408201527f6472657373206d61792063616c6c207468697300000000000000000000000000606082015260800190565b60208082526014908201527f536f6c7665723a3a63616c6c206661696c757265000000000000000000000000604082015260600190565b60208082526013908201527f746f55696e74385f6f75744f66426f756e647300000000000000000000000000604082015260600190565b6020808252818101527f536f6c7665723a3a496e676573742073746174696363616c6c206661696c6564604082015260600190565b60208082526026908201527f536f6c7665723a204f6e6c79207468697320736f6c766572206d61792063616c60408201527f6c20746869730000000000000000000000000000000000000000000000000000606082015260800190565b60208082526031908201527f536f6c7665723a204f6e6c7920746865204b6565706572206f7220417262697460408201527f6572206d61792063616c6c20746869732e000000000000000000000000000000606082015260800190565b60208082526027908201527f536f6c7665723a2054696d656c6f636b206973207374696c6c20696e2074686560408201527f2066757475726500000000000000000000000000000000000000000000000000606082015260800190565b60208082526017908201527f536f6c7665723a3a616374696f6e206578656375746564000000000000000000604082015260600190565b6000808335601e19843603018112613037578283fd5b83018035915067ffffffffffffffff821115613051578283fd5b602090810192508102360382131561235557600080fd5b6000808335601e1984360301811261307e578283fd5b83018035915067ffffffffffffffff821115613098578283fd5b60200191503681900382131561235557600080fd5b6000823560be19833603018112612785578182fd5b6000823560de19833603018112612785578182fd5b60009081526020902090565b600082198211156130f6576130f66135cc565b500190565b6000816000190483118215151615613115576131156135cc565b500290565b5b81811015610426576000815560010161311b565b60008082558060018301558060028301556003820161314e815461354d565b8015611b6457601f81116001811461316857838355611251565b828452602084206131846020601f85010482016001830161311a565b50505080825260208220908290555550565b680100000000000000008311156131af576131af6135e2565b8054838255808410156131ed576000828152602081208581019083015b808210156131e9576131de838361360b565b6001820191506131cc565b5050505b50816131f8826130d7565b6000805b868110156118cd5761320e8487613021565b61321a818386886138ce565b505060209390930192600192830192016131fc565b68010000000000000000831115613248576132486135e2565b8054838255808410156132d1577f3fffffffffffffffffffffffffffffffffffffffffffffffffffffffffffffff80821160011615613289576132896135cc565b60048186116001161561329e5761329e6135cc565b60008481526020902086820281019250818402015b808310156132cd576132c48361312f565b918101916132b3565b5050505b50816132dc826130d7565b6000805b868110156118cd576132fc6132f585886130ad565b83856138e7565b60209390930192600492909201916001016132e0565b6801000000000000000083111561332b5761332b6135e2565b8054838255808410156133b4577f3fffffffffffffffffffffffffffffffffffffffffffffffffffffffffffffff8082116001161561336c5761336c6135cc565b600481861160011615613381576133816135cc565b60008481526020902086820281019250818402015b808310156133b0576133a78361312f565b91810191613396565b5050505b50816133bf826130d7565b6000805b868110156118cd576133df6133d885886130ad565b83856139a6565b60209390930192600492909201916001016133c3565b6133ff838261360b565b818160005260208060002060005b868110156118cd5783358255928201926001918201910161340d565b67ffffffffffffffff831115613441576134416135e2565b61344b815461354d565b600080601f8611601f84118181171561346a57613467866130d7565b92505b8015613499576020601f890104830160208910156134855750825b6134976020601f88010485018261311a565b505b5080600181146134c5576000945087156134b4578387013594505b6134be8886613588565b8655613517565b601f198816945082845b868110156134ef57888601358255602095860195600190920191016134cf565b508886101561350c57878501356000196008601f8c16021c191681555b506001600289020186555b5050505050505050565b60005b8381101561353c578181015183820152602001613524565b83811115611b645750506000910152565b60028104600182168061356157607f821691505b6020821081141561358257634e487b7160e01b600052602260045260246000fd5b50919050565b600019600883021c191660029091021790565b60006000198214156135af576135af6135cc565b5060010190565b634e487b7160e01b600052600060045260246000fd5b634e487b7160e01b600052601160045260246000fd5b634e487b7160e01b600052604160045260246000fd5b6000813561360581613a2e565b92915050565b68010000000000000000821115613624576136246135e2565b80548282558083101561206357816000526020600020611b6482820185830161311a565b6001600160a01b0382166001600160a01b03198254161781555050565b60ff1981541660ff8315151681178255505050565b81358155600160208084013582840155604084013560028401556136a16060850185613021565b6136af8183600388016133f5565b50506136be6080850185613021565b6136cc818360048801613196565b50506136db60a0850185613021565b6136e9818360058801613196565b5050600683016136fc60c0860186613068565b67ffffffffffffffff811115613714576137146135e2565b61371e835461354d565b600080601f8411601f84118181171561373d5761373a886130d7565b92505b80156137695788601f8701048301898710156137565750825b6137678a601f88010485018261311a565b505b50806001811461379557600094508515613784578387013594505b61378e8686613588565b88556137e3565b601f198616945082845b868110156137bc57888601358255948a0194908b01908a0161379f565b50868610156137d957878501356000196008601f8a16021c191681555b5089600287020188555b505050505050505050505050565b81356137fc81613a2e565b6138068183613648565b50602082013561381581613a2e565b6138228160018401613648565b5061383b613832604084016135f8565b60028301613648565b606082013560038201556138526080830183613068565b613860818360048601613429565b505061386f60a0830183613021565b61387d818360058601613312565b505061388c60c0830183613021565b61389a81836006860161322f565b50506104266138ac60e08401846130c2565b6007830161367a565b805461ff00191691151560081b61ff0016919091179055565b81156138dc576138dc6135b6565b611b648484836133f5565b81156138f5576138f56135b6565b823561390081613a43565b61390a8183613665565b50602083013561391981613a43565b61392381836138b5565b50604083013561393281613a2e565b81547fffffffffffffffffffff0000000000000000000000000000000000000000ffff1660109190911b75ffffffffffffffffffffffffffffffffffffffff000016178155606083013560018201556080830135600282015561399860a0840184613068565b611251818360038601613429565b81156139b4576139b46135b6565b82356139bf81613a43565b6139c98183613665565b5060208301356139d881613a43565b6139e281836138b5565b50604083013560ff811681146139f757600080fd5b815462ff0000191660109190911b62ff000016178155606083013560018201556080830135600282015561399860a0840184613068565b6001600160a01b038116811461147e57600080fd5b801515811461147e57600080fdfea26469706673582212204c5d9b2c453f760809acc04a89c22e943ba74abdf7210c97e36e0ee97b27f52d64736f6c63430008000033",
  "linkReferences": {},
  "deployedLinkReferences": {}
}