{
  "_format": "hh-sol-artifact-1",
  "contractName": "SolverFactory",
  "sourceName": "contracts/SolverFactory.sol",
  "abi": [
    {
      "inputs": [],
      "stateMutability": "nonpayable",
      "type": "constructor"
    },
    {
      "anonymous": false,
      "inputs": [
        {
          "indexed": false,
          "internalType": "address",
          "name": "newSolverAddress",
          "type": "address"
        }
      ],
      "name": "SolverCreated",
      "type": "event"
    },
    {
      "inputs": [
        {
          "internalType": "contract IERC20",
          "name": "_collateralToken",
          "type": "address"
        },
        {
          "internalType": "bytes32",
          "name": "_solutionId",
          "type": "bytes32"
        },
        {
          "internalType": "bytes32",
          "name": "_proposalId",
          "type": "bytes32"
        },
        {
          "internalType": "address",
          "name": "_proposalsHub",
          "type": "address"
        },
        {
          "internalType": "address",
          "name": "_solutionsHub",
          "type": "address"
        },
        {
          "components": [
            {
              "internalType": "contract SolverFactory",
              "name": "factory",
              "type": "address"
            },
            {
              "internalType": "address",
              "name": "keeper",
              "type": "address"
            },
            {
              "internalType": "address",
              "name": "arbitrator",
              "type": "address"
            },
            {
              "internalType": "uint256",
              "name": "timelockSeconds",
              "type": "uint256"
            },
            {
              "internalType": "bytes",
              "name": "data",
              "type": "bytes"
            },
            {
              "components": [
                {
                  "internalType": "uint256",
                  "name": "executions",
                  "type": "uint256"
                },
                {
                  "internalType": "bool",
                  "name": "isDeferred",
                  "type": "bool"
                },
                {
                  "internalType": "bool",
                  "name": "isConstant",
                  "type": "bool"
                },
                {
                  "internalType": "uint8",
                  "name": "port",
                  "type": "uint8"
                },
                {
                  "internalType": "uint256",
                  "name": "key",
                  "type": "uint256"
                },
                {
                  "internalType": "uint256",
                  "name": "solverIndex",
                  "type": "uint256"
                },
                {
                  "internalType": "bytes",
                  "name": "data",
                  "type": "bytes"
                }
              ],
              "internalType": "struct Solver.Ingest[]",
              "name": "ingests",
              "type": "tuple[]"
            },
            {
              "components": [
                {
                  "internalType": "bool",
                  "name": "executed",
                  "type": "bool"
                },
                {
                  "internalType": "bool",
                  "name": "isPort",
                  "type": "bool"
                },
                {
                  "internalType": "address",
                  "name": "to",
                  "type": "address"
                },
                {
                  "internalType": "uint256",
                  "name": "portIndex",
                  "type": "uint256"
                },
                {
                  "internalType": "uint256",
                  "name": "value",
                  "type": "uint256"
                },
                {
                  "internalType": "bytes",
                  "name": "data",
                  "type": "bytes"
                }
              ],
              "internalType": "struct Solver.Action[]",
              "name": "actions",
              "type": "tuple[]"
            },
            {
              "components": [
                {
                  "internalType": "uint256",
                  "name": "outcomeSlots",
                  "type": "uint256"
                },
                {
                  "internalType": "uint256",
                  "name": "parentCollectionPartitionIndex",
                  "type": "uint256"
                },
                {
                  "internalType": "uint256",
                  "name": "amount",
                  "type": "uint256"
                },
                {
                  "internalType": "uint256[]",
                  "name": "partition",
                  "type": "uint256[]"
                },
                {
                  "internalType": "uint256[][]",
                  "name": "recipientAddressPorts",
                  "type": "uint256[][]"
                },
                {
                  "internalType": "uint256[][]",
                  "name": "recipientAmounts",
                  "type": "uint256[][]"
                },
                {
                  "internalType": "string",
                  "name": "metadata",
                  "type": "string"
                }
              ],
              "internalType": "struct Solver.ConditionBase",
              "name": "conditionBase",
              "type": "tuple"
            }
          ],
          "internalType": "struct Solver.Config",
          "name": "_solverConfig",
          "type": "tuple"
        }
      ],
      "name": "createSolver",
      "outputs": [
        {
          "internalType": "address",
          "name": "",
          "type": "address"
        }
      ],
      "stateMutability": "nonpayable",
      "type": "function"
    },
    {
      "inputs": [],
      "name": "implementationAddress",
      "outputs": [
        {
          "internalType": "address",
          "name": "",
          "type": "address"
        }
      ],
      "stateMutability": "view",
      "type": "function"
    },
    {
      "inputs": [
        {
          "internalType": "uint256",
          "name": "",
          "type": "uint256"
        }
      ],
      "name": "solvers",
      "outputs": [
        {
          "internalType": "contract Solver",
          "name": "",
          "type": "address"
        }
      ],
      "stateMutability": "view",
      "type": "function"
    }
  ],
  "bytecode": "0x60a060405234801561001057600080fd5b5060405161001d9061004f565b604051809103906000f080158015610039573d6000803e3d6000fd5b5060601b6001600160601b03191660805261005c565b615134806109c183390190565b60805160601c61094161008060003960008181609201526101d201526109416000f3fe608060405234801561001057600080fd5b50600436106100415760003560e01c80630efd68ad1461004657806392ce765e1461006f578063b97a231914610082575b600080fd5b6100596100543660046102ce565b61008a565b60405161006691906106c0565b60405180910390f35b61005961007d36600461035a565b6101a6565b6100596101d0565b6000806100b67f00000000000000000000000000000000000000000000000000000000000000006101f4565b6040517fecae4b840000000000000000000000000000000000000000000000000000000081529091506001600160a01b0382169063ecae4b8490610108908b908b908b908b908b908b906004016106d4565b600060405180830381600087803b15801561012257600080fd5b505af1158015610136573d6000803e3d6000fd5b5050600080546001810182559080527f290decd9548b62a8d60345a988386fc84ba6bc95484008f6362f93160ef3e5630180547fffffffffffffffffffffffff0000000000000000000000000000000000000000166001600160a01b038516179055509098975050505050505050565b600081815481106101b657600080fd5b6000918252602090912001546001600160a01b0316905081565b7f000000000000000000000000000000000000000000000000000000000000000081565b60006040517f3d602d80600a3d3981f3363d3d373d3d3d363d7300000000000000000000000081528260601b60148201527f5af43d82803e903d91602b57fd5bf3000000000000000000000000000000000060288201526037816000f09150506001600160a01b03811661029d576040517f08c379a00000000000000000000000000000000000000000000000000000000081526004016102949061080a565b60405180910390fd5b919050565b803561029d816108f3565b8035801515811461029d57600080fd5b803560ff8116811461029d57600080fd5b60008060008060008060c087890312156102e6578182fd5b86356102f1816108f3565b95506020870135945060408701359350606087013561030f816108f3565b9250608087013561031f816108f3565b915060a087013567ffffffffffffffff81111561033a578182fd5b8701610100818a03121561034c578182fd5b809150509295509295509295565b60006020828403121561036b578081fd5b5035919050565b6001600160a01b03169052565b8183526020808401936000918085028201810184845b878110156103cf57848303601f190189526103b08288610841565b6103bb85828461058b565b9a86019a9450505090830190600101610395565b5090979650505050505050565b8183526020808401936000918085028201810184845b878110156103cf57848303601f1901895281353688900360be19018112610417578687fd5b870160c08135801515811461042a578889fd5b61043486826105d8565b506104408683016102ad565b61044c878701826105d8565b50604061045a8184016102a2565b61046682880182610372565b5050606082810135908601526080808301359086015260a061048a81840184610890565b9350828288015261049e83880185836105de565b9c88019c965050509285019250506001016103f2565b8183526020808401936000918085028201810184845b878110156103cf57848303601f190189526104e582886108d5565b60e0813585528582013580151581146104fc578889fd5b610508878701826105d8565b5060406105168184016102ad565b610522828801826105d8565b505060606105318184016102bd565b61053d828801826106b9565b50506080828101359086015260a0808301359086015260c061056181840184610890565b9350828288015261057583880185836105de565b9c88019c965050509285019250506001016104ca565b60008284527f07ffffffffffffffffffffffffffffffffffffffffffffffffffffffffffffff8311156105bc578081fd5b6020830280836020870137939093016020019283525090919050565b15159052565b60008284528282602086013780602084860101526020601f19601f85011685010190509392505050565b600081358352602082013560208401526040820135604084015261062f6060830183610841565b60e0606086015261064460e08601828461058b565b9150506106546080840184610841565b858303608087015261066783828461037f565b9250505061067860a0840184610841565b85830360a087015261068b83828461037f565b9250505061069c60c0840184610890565b85830360c08701526106af8382846105de565b9695505050505050565b60ff169052565b6001600160a01b0391909116815260200190565b60006001600160a01b038089168352876020840152866040840152808616606084015280851660808401525060c060a083015261071c60c08301610717856102a2565b610372565b610728602084016102a2565b61073560e0840182610372565b50610742604084016102a2565b61010061075181850183610372565b60608501356101208501526107696080860186610890565b9250816101408601526107816101c0860184836105de565b9250505061079260a0850185610841565b60bf1980868503016101608701526107ab8483856104b4565b93506107ba60c0880188610841565b9350915080868503016101808701526107d48484846103dc565b93506107e360e08801886108d5565b925080868503016101a087015250506107fc8282610608565b9a9950505050505050505050565b60208082526016908201527f455243313136373a20637265617465206661696c656400000000000000000000604082015260600190565b6000808335601e19843603018112610857578283fd5b830160208101925035905067ffffffffffffffff81111561087757600080fd5b60208102360383131561088957600080fd5b9250929050565b6000808335601e198436030181126108a6578283fd5b830160208101925035905067ffffffffffffffff8111156108c657600080fd5b80360383131561088957600080fd5b6000823560de198336030181126108ea578182fd5b90910192915050565b6001600160a01b038116811461090857600080fd5b5056fea264697066735822122047f74e95d5ebe41c42d9f590c0c4a728279789580333262e0adc57e4f5e7b03e64736f6c6343000800003360a06040527f5fbdb2315678afecb367f032d93f642f64180aa300000000000000000000000060805234801561003457600080fd5b5060805160601c6150946100a060003960008181610cfc01528181610fb6015281816114fb01528181611dd3015281816122610152818161257001528181612615015281816126a0015281816127bb0152818161294901528181612a450152612f0a01526150946000f3fe608060405234801561001057600080fd5b50600436106102ad5760003560e01c806382fc80541161017b578063aced1661116100d8578063c538edd41161008c578063e7fd205911610071578063e7fd205914610515578063ecae4b8414610528578063f23a6e611461053b576102ad565b8063c538edd4146104fa578063d33219b41461050d576102ad565b8063ba9bfe62116100bd578063ba9bfe62146104bf578063bc197c81146104d2578063c43c168e146104f2576102ad565b8063aced1661146104af578063b2016bd4146104b7576102ad565b806398f84bbf1161012f578063a33db92b11610114578063a33db92b14610481578063a7f5d48c14610494578063a99efeae1461049c576102ad565b806398f84bbf14610466578063a2b14e6f14610479576102ad565b806384dbd3911161016057806384dbd3911461043857806396f842901461044b578063972a688b1461045e576102ad565b806382fc805414610412578063842918ba14610425576102ad565b80633df4d2db116102295780636bf90c84116101dd5780636cc6cde1116101c25780636cc6cde1146103dd57806375d07045146103e557806379502c55146103f8576102ad565b80636bf90c84146103c05780636c7f8187146103d5576102ad565b8063556c59111161020e578063556c5911146103835780635bd11123146103a35780635bd9e299146103ab576102ad565b80633df4d2db1461035b57806348d6bc001461037b576102ad565b806326c50007116102805780632c17b91e116102655780632c17b91e146103435780632dfca4451461034b5780633a275fa214610353576102ad565b806326c500071461030d5780632b36342714610330576102ad565b806301ffc9a7146102b2578063093a9d65146102db5780630d49722d146102f057806318f7927814610305575b600080fd5b6102c56102c0366004613873565b61054e565b6040516102d29190613cac565b60405180910390f35b6102e3610592565b6040516102d29190613b81565b6103036102fe36600461377b565b610598565b005b61030361071d565b61032061031b366004613927565b610846565b6040516102d29493929190613d0b565b61030361033e3660046139a5565b610883565b6103036109ba565b6102e36109ca565b6103036109d0565b61036e61036936600461393f565b610b10565b6040516102d29190613d86565b610303610c20565b610396610391366004613927565b610e62565b6040516102d29190613cb7565b610303610ef3565b6103b3610fb4565b6040516102d29190613be4565b6103c8610fd8565b6040516102d29190613c99565b6102c561106f565b6103b361111b565b61036e6103f3366004613927565b61112a565b6104006111c4565b6040516102d296959493929190613dd9565b6102c5610420366004613984565b6114c1565b6102c5610433366004613927565b6114e1565b6102e3610446366004613927565b6114f6565b6102e3610459366004613927565b611657565b610303611669565b6102e3610474366004613984565b61172a565b6103b3611747565b61036e61048f366004613984565b611756565b6103b36118a1565b6102e36104aa366004613927565b6118b0565b6103b36118c2565b6103b36118d1565b6103036104cd366004613927565b6118e0565b6104e56104e03660046135a8565b611c31565b6040516102d29190613d71565b6102e3611c5e565b6103b3610508366004613927565b611c64565b6102e3611c7f565b6103036105233660046137bb565b611c85565b61030361053636600461389b565b611e82565b6104e5610549366004613663565b611f5f565b60006001600160e01b031982167f4e2312e000000000000000000000000000000000000000000000000000000000148061058c575061058c82611f8a565b92915050565b600f5490565b6002546001600160a01b031633146105cb5760405162461bcd60e51b81526004016105c290614420565b60405180910390fd5b6001600f80546105dd90600190614669565b815481106105fb57634e487b7160e01b600052603260045260246000fd5b600091825260209091206004600590920201015460ff16600681111561063157634e487b7160e01b600052602160045260246000fd5b1461064e5760405162461bcd60e51b81526004016105c290614231565b600f80546002919061066290600190614669565b8154811061068057634e487b7160e01b600052603260045260246000fd5b60009182526020909120600460059092020101805460ff191660018360068111156106bb57634e487b7160e01b600052602160045260246000fd5b0217905550600f8054839183916106d490600190614669565b815481106106f257634e487b7160e01b600052603260045260246000fd5b90600052602060002090600502016003019190610710929190613343565b50610719611fbc565b5050565b6003546001600160a01b031633146107475760405162461bcd60e51b81526004016105c29061402d565b6002600f805461075990600190614669565b8154811061077757634e487b7160e01b600052603260045260246000fd5b600091825260209091206004600590920201015460ff1660068111156107ad57634e487b7160e01b600052602160045260246000fd5b146107ca5760405162461bcd60e51b81526004016105c29061428e565b600f8054600391906107de90600190614669565b815481106107fc57634e487b7160e01b600052603260045260246000fd5b60009182526020909120600460059092020101805460ff1916600183600681111561083757634e487b7160e01b600052602160045260246000fd5b0217905550610844611fbc565b565b600f818154811061085657600080fd5b60009182526020909120600590910201805460018201546002830154600490930154919350919060ff1684565b6002546001600160a01b03163314156108a6576108a1838383611fd9565b6109b5565b6014546012546040517f237f27f00000000000000000000000000000000000000000000000000000000081526000926001600160a01b03169163237f27f0916108f29190600401613b81565b60006040518083038186803b15801561090a57600080fd5b505afa15801561091e573d6000803e3d6000fd5b505050506040513d6000823e601f3d908101601f1916820160405261094691908101906136dd565b905060005b81518110156109b25781818151811061097457634e487b7160e01b600052603260045260246000fd5b60200260200101516001600160a01b0316336001600160a01b031614156109a0576109a0858585611fd9565b806109aa81614afd565b91505061094b565b50505b505050565b6109c2612099565b6108446123f4565b60115481565b6000600f80546109e290600190614669565b81548110610a0057634e487b7160e01b600052603260045260246000fd5b600091825260209091206004600590920201015460ff166006811115610a3657634e487b7160e01b600052602160045260246000fd5b14610a535760405162461bcd60e51b81526004016105c290613f05565b610a5b61106f565b610a775760405162461bcd60e51b81526004016105c29061438e565b600f805460019190610a8a908390614669565b81548110610aa857634e487b7160e01b600052603260045260246000fd5b60009182526020909120600460059092020101805460ff19166001836006811115610ae357634e487b7160e01b600052602160045260246000fd5b0217905550610af0612459565b610af861268f565b610b006127aa565b610b08612bed565b610844612c15565b60145460125460405162c8a40d60e51b81526060926000926001600160a01b039091169163191481a091610b48918890600401613d63565b60206040518083038186803b158015610b6057600080fd5b505afa158015610b74573d6000803e3d6000fd5b505050506040513d601f19601f82011682018060405250810190610b98919061358c565b9050600080826001600160a01b031685604051610bb59190613b8a565b600060405180830381855afa9150503d8060008114610bf0576040519150601f19603f3d011682016040523d82523d6000602084013e610bf5565b606091505b509150915081610c175760405162461bcd60e51b81526004016105c290614359565b95945050505050565b6002546001600160a01b03163314610c4a5760405162461bcd60e51b81526004016105c290614420565b6015544211610c6b5760405162461bcd60e51b81526004016105c2906140c1565b6002600f8054610c7d90600190614669565b81548110610c9b57634e487b7160e01b600052603260045260246000fd5b600091825260209091206004600590920201015460ff166006811115610cd157634e487b7160e01b600052602160045260246000fd5b14610cee5760405162461bcd60e51b81526004016105c290613ea8565b600f80546001600160a01b037f0000000000000000000000000000000000000000000000000000000000000000169163c49298ac91610d2f90600190614669565b81548110610d4d57634e487b7160e01b600052603260045260246000fd5b6000918252602090912060059091020154600f8054610d6e90600190614669565b81548110610d8c57634e487b7160e01b600052603260045260246000fd5b90600052602060002090600502016003016040518363ffffffff1660e01b8152600401610dba929190613cf2565b600060405180830381600087803b158015610dd457600080fd5b505af1158015610de8573d6000803e3d6000fd5b505050506006600f6001600f80549050610e029190614669565b81548110610e2057634e487b7160e01b600052603260045260246000fd5b60009182526020909120600460059092020101805460ff19166001836006811115610e5b57634e487b7160e01b600052602160045260246000fd5b0217905550565b60145460125460405162c8a40d60e51b815260009283926001600160a01b039091169163191481a091610e99918790600401613d63565b60206040518083038186803b158015610eb157600080fd5b505afa158015610ec5573d6000803e3d6000fd5b505050506040513d601f19601f82011682018060405250810190610ee9919061358c565b60601b9392505050565b6003546001600160a01b03163314610f1d5760405162461bcd60e51b81526004016105c29061402d565b6003600f8054610f2f90600190614669565b81548110610f4d57634e487b7160e01b600052603260045260246000fd5b600091825260209091206004600590920201015460ff166006811115610f8357634e487b7160e01b600052602160045260246000fd5b14610fa05760405162461bcd60e51b81526004016105c29061412f565b600f8054600491906107de90600190614669565b7f000000000000000000000000000000000000000000000000000000000000000081565b600f805460609190610fec90600190614669565b8154811061100a57634e487b7160e01b600052603260045260246000fd5b906000526020600020906005020160030180548060200260200160405190810160405280929190818152602001828054801561106557602002820191906000526020600020905b815481526020019060010190808311611051575b5050505050905090565b60006001815b6006548110156111155760068054829081106110a157634e487b7160e01b600052603260045260246000fd5b600091825260209091206001600590920201015460ff1680156110f95750600f5460068054839081106110e457634e487b7160e01b600052603260045260246000fd5b90600052602060002090600502016000015414155b1561110357600091505b8061110d81614afd565b915050611075565b50905090565b6003546001600160a01b031690565b6018602052600090815260409020805461114390614aaf565b80601f016020809104026020016040519081016040528092919081815260200182805461116f90614aaf565b80156111bc5780601f10611191576101008083540402835291602001916111bc565b820191906000526020600020905b81548152906001019060200180831161119f57829003601f168201915b505050505081565b60018054600254600354600454600580546001600160a01b0395861696948616959093169391926111f490614aaf565b80601f016020809104026020016040519081016040528092919081815260200182805461122090614aaf565b801561126d5780601f106112425761010080835404028352916020019161126d565b820191906000526020600020905b81548152906001019060200180831161125057829003601f168201915b505050505090806007016040518060e0016040529081600082015481526020016001820154815260200160028201548152602001600382018054806020026020016040519081016040528092919081815260200182805480156112ef57602002820191906000526020600020905b8154815260200190600101908083116112db575b5050505050815260200160048201805480602002602001604051908101604052809291908181526020016000905b828210156113895760008481526020908190208301805460408051828502810185019091528181529283018282801561137557602002820191906000526020600020905b815481526020019060010190808311611361575b50505050508152602001906001019061131d565b50505050815260200160058201805480602002602001604051908101604052809291908181526020016000905b828210156114225760008481526020908190208301805460408051828502810185019091528181529283018282801561140e57602002820191906000526020600020905b8154815260200190600101908083116113fa575b5050505050815260200190600101906113b6565b50505050815260200160068201805461143a90614aaf565b80601f016020809104026020016040519081016040528092919081815260200182805461146690614aaf565b80156114b35780601f10611488576101008083540402835291602001916114b3565b820191906000526020600020905b81548152906001019060200180831161149657829003601f168201915b505050505081525050905086565b601b60209081526000928352604080842090915290825290205460ff1681565b60176020526000908152604090205460ff1681565b6000807f00000000000000000000000000000000000000000000000000000000000000006001600160a01b031663856296f7600f6001600f8054905061153c9190614669565b8154811061155a57634e487b7160e01b600052603260045260246000fd5b906000526020600020906005020160010154600f6001600f805490506115809190614669565b8154811061159e57634e487b7160e01b600052603260045260246000fd5b906000526020600020906005020160020154600160070160030187815481106115d757634e487b7160e01b600052603260045260246000fd5b90600052602060002001546040518463ffffffff1660e01b815260040161160093929190613d4d565b60206040518083038186803b15801561161857600080fd5b505afa15801561162c573d6000803e3d6000fd5b505050506040513d601f19601f82011682018060405250810190611650919061385b565b9392505050565b60196020526000908152604090205481565b6003546001600160a01b031633146116935760405162461bcd60e51b81526004016105c29061402d565b6004600f80546116a590600190614669565b815481106116c357634e487b7160e01b600052603260045260246000fd5b600091825260209091206004600590920201015460ff1660068111156116f957634e487b7160e01b600052602160045260246000fd5b146117165760405162461bcd60e51b81526004016105c290613f99565b600f8054600291906107de90600190614669565b601c60209081526000928352604080842090915290825290205481565b6013546001600160a01b031681565b6000828152601b6020908152604080832084845290915290205460609060ff168061179b5750600f546000848152601c60209081526040808320868452909152902054145b6117b75760405162461bcd60e51b81526004016105c2906143c3565b826117fb576000828152601660209081526040918290205491516117e5926001600160a01b03169101613b56565b604051602081830303815290604052905061058c565b8260011415611827576000828152601760209081526040918290205491516117e59260ff169101613b73565b826002141561184f5760008281526018602090815260409182902091516117e5929101613ba6565b8260031415611878576000828152601960209081526040918290205491516117e5929101613b81565b826003141561058c576000828152601a60209081526040918290205491516117e5929101613b81565b6014546001600160a01b031681565b601a6020526000908152604090205481565b6002546001600160a01b031690565b6010546001600160a01b031681565b600680548290811061190257634e487b7160e01b600052603260045260246000fd5b60009182526020822060059091020180549161191d83614afd565b9091555050600680548290811061194457634e487b7160e01b600052603260045260246000fd5b906000526020600020906005020160010160019054906101000a900460ff1615611aac57611aa76001600501828154811061198f57634e487b7160e01b600052603260045260246000fd5b906000526020600020906005020160010160029054906101000a900460ff16600160050183815481106119d257634e487b7160e01b600052603260045260246000fd5b90600052602060002090600502016002015460016005018481548110611a0857634e487b7160e01b600052603260045260246000fd5b90600052602060002090600502016004018054611a2490614aaf565b80601f0160208091040260200160405190810160405280929190818152602001828054611a5090614aaf565b8015611a9d5780601f10611a7257610100808354040283529160200191611a9d565b820191906000526020600020905b815481529060010190602001808311611a8057829003601f168201915b5050505050612d77565b611c2e565b6000611baa60016005018381548110611ad557634e487b7160e01b600052603260045260246000fd5b90600052602060002090600502016003015460016005018481548110611b0b57634e487b7160e01b600052603260045260246000fd5b90600052602060002090600502016004018054611b2790614aaf565b80601f0160208091040260200160405190810160405280929190818152602001828054611b5390614aaf565b8015611ba05780601f10611b7557610100808354040283529160200191611ba0565b820191906000526020600020905b815481529060010190602001808311611b8357829003601f168201915b5050505050610b10565b905061071960016005018381548110611bd357634e487b7160e01b600052603260045260246000fd5b906000526020600020906005020160010160029054906101000a900460ff1660016005018481548110611c1657634e487b7160e01b600052603260045260246000fd5b90600052602060002090600502016002015483611fd9565b50565b7fbc197c810000000000000000000000000000000000000000000000000000000098975050505050505050565b60125481565b6016602052600090815260409020546001600160a01b031681565b60155481565b6003546001600160a01b03163314611caf5760405162461bcd60e51b81526004016105c29061402d565b6004600f8054611cc190600190614669565b81548110611cdf57634e487b7160e01b600052603260045260246000fd5b600091825260209091206004600590920201015460ff166006811115611d1557634e487b7160e01b600052602160045260246000fd5b14611d325760405162461bcd60e51b81526004016105c290613f99565b6015544211611d535760405162461bcd60e51b81526004016105c2906140c1565b600f805460059190611d6790600190614669565b81548110611d8557634e487b7160e01b600052603260045260246000fd5b60009182526020909120600460059092020101805460ff19166001836006811115611dc057634e487b7160e01b600052602160045260246000fd5b0217905550600f80546001600160a01b037f0000000000000000000000000000000000000000000000000000000000000000169163c49298ac91611e0690600190614669565b81548110611e2457634e487b7160e01b600052603260045260246000fd5b906000526020600020906005020160000154836040518363ffffffff1660e01b8152600401611e54929190613cd1565b600060405180830381600087803b158015611e6e57600080fd5b505af11580156109b2573d6000803e3d6000fd5b611e8f6020820182613570565b6001600160a01b0316336001600160a01b031614611ebf5760405162461bcd60e51b81526004016105c290614457565b6000611ed16040830160208401613570565b6001600160a01b03161415611ef85760405162461bcd60e51b81526004016105c290613f62565b806001611f058282614dbd565b5050601080546001600160a01b0397881673ffffffffffffffffffffffffffffffffffffffff1991821617909155601295909555506011929092556013805491851691841691909117905560148054919093169116179055565b7ff23a6e61000000000000000000000000000000000000000000000000000000009695505050505050565b6001600160e01b031981167f01ffc9a70000000000000000000000000000000000000000000000000000000014919050565b600454611fca90600161464a565b611fd49042614632565b601555565b60ff8084166000908152601b6020908152604080832086845290915290205416156120165760405162461bcd60e51b81526004016105c2906144b4565b600f5461202590600190614669565b60ff84166000908152601c60209081526040808320868452909152902054146120605760405162461bcd60e51b81526004016105c290614064565b60ff83166000908152601c60209081526040808320858452909152812080549161208983614afd565b91905055506109b5838383612de3565b6120a161338e565b600f546040516120b991600e91309190602001613bb2565b60408051601f198184030181529181528151602090920191909120825260145460125491517f882175660000000000000000000000000000000000000000000000000000000081526000926001600160a01b03909216916388217566916121239190600401613b81565b60206040518083038186803b15801561213b57600080fd5b505afa15801561214f573d6000803e3d6000fd5b505050506040513d601f19601f82011682018060405250810190612173919061358c565b90506001600160a01b03811661218f576000602083015261222c565b6009546040517f84dbd3910000000000000000000000000000000000000000000000000000000081526001600160a01b038316916384dbd391916121d69190600401613b81565b60206040518083038186803b1580156121ee57600080fd5b505afa158015612202573d6000803e3d6000fd5b505050506040513d601f19601f82011682018060405250810190612226919061385b565b60208301525b81516008546040517f852c6ae20000000000000000000000000000000000000000000000000000000081526001600160a01b037f0000000000000000000000000000000000000000000000000000000000000000169263852c6ae2926122989230929190600401613c5f565b60206040518083038186803b1580156122b057600080fd5b505afa1580156122c4573d6000803e3d6000fd5b505050506040513d601f19601f820116820180604052508101906122e8919061385b565b60408301908152600f8054600181018255600091909152835160059091027f8d1108e10bcb7c27dddfc02ed9d693a074039d026cf4ea4240b40f7d581ac80281019182556020808601517f8d1108e10bcb7c27dddfc02ed9d693a074039d026cf4ea4240b40f7d581ac80383015592517f8d1108e10bcb7c27dddfc02ed9d693a074039d026cf4ea4240b40f7d581ac8048201556060850151805186946123b3937f8d1108e10bcb7c27dddfc02ed9d693a074039d026cf4ea4240b40f7d581ac805019201906133b9565b50608082015160048201805460ff191660018360068111156123e557634e487b7160e01b600052602160045260246000fd5b02179055505050610719612f08565b60005b600654811015611c2e57600680548290811061242357634e487b7160e01b600052603260045260246000fd5b600091825260209091206001600590920201015460ff1661244757612447816118e0565b8061245181614afd565b9150506123f7565b600f80546000919061246d90600190614669565b8154811061248b57634e487b7160e01b600052603260045260246000fd5b906000526020600020906005020160010154141561084457601054601354600a546040517f23b872dd0000000000000000000000000000000000000000000000000000000081526001600160a01b039384169384936323b872dd936124f99391909216913091600401613bf8565b602060405180830381600087803b15801561251357600080fd5b505af1158015612527573d6000803e3d6000fd5b505050506040513d601f19601f8201168201806040525081019061254b919061383f565b5060405163095ea7b360e01b81526001600160a01b0382169063095ea7b39061259b907f000000000000000000000000000000000000000000000000000000000000000090600090600401613c80565b602060405180830381600087803b1580156125b557600080fd5b505af11580156125c9573d6000803e3d6000fd5b505050506040513d601f19601f820116820180604052508101906125ed919061383f565b50600a5460405163095ea7b360e01b81526001600160a01b0383169163095ea7b39161263d917f000000000000000000000000000000000000000000000000000000000000000091600401613c80565b602060405180830381600087803b15801561265757600080fd5b505af115801561266b573d6000803e3d6000fd5b505050506040513d601f19601f82011682018060405250810190610719919061383f565b601054600f80546001600160a01b037f00000000000000000000000000000000000000000000000000000000000000008116936372ce4275939116916126d790600190614669565b815481106126f557634e487b7160e01b600052603260045260246000fd5b906000526020600020906005020160010154600f6001600f8054905061271b9190614669565b8154811061273957634e487b7160e01b600052603260045260246000fd5b6000918252602090912060026005909202010154600a546040516001600160e01b031960e087901b16815261277694939291600b91600401613d99565b600060405180830381600087803b15801561279057600080fd5b505af11580156127a4573d6000803e3d6000fd5b50505050565b60005b600b54811015611c2e5760007f00000000000000000000000000000000000000000000000000000000000000006001600160a01b031663856296f7600f6001600f805490506127fc9190614669565b8154811061281a57634e487b7160e01b600052603260045260246000fd5b906000526020600020906005020160010154600f6001600f805490506128409190614669565b8154811061285e57634e487b7160e01b600052603260045260246000fd5b9060005260206000209060050201600201546001600701600301868154811061289757634e487b7160e01b600052603260045260246000fd5b90600052602060002001546040518463ffffffff1660e01b81526004016128c093929190613d4d565b60206040518083038186803b1580156128d857600080fd5b505afa1580156128ec573d6000803e3d6000fd5b505050506040513d601f19601f82011682018060405250810190612910919061385b565b6010546040517f39dd75300000000000000000000000000000000000000000000000000000000081529192506000916001600160a01b037f00000000000000000000000000000000000000000000000000000000000000008116926339dd7530926129849291909116908690600401613c80565b60206040518083038186803b15801561299c57600080fd5b505afa1580156129b0573d6000803e3d6000fd5b505050506040513d601f19601f820116820180604052508101906129d4919061385b565b905060005b600c54811015612bd757600d80546000919086908110612a0957634e487b7160e01b600052603260045260246000fd5b906000526020600020018281548110612a3257634e487b7160e01b600052603260045260246000fd5b90600052602060002001541115612bc5577f00000000000000000000000000000000000000000000000000000000000000006001600160a01b031663f242432a306016600060016007016004018981548110612a9e57634e487b7160e01b600052603260045260246000fd5b906000526020600020018681548110612ac757634e487b7160e01b600052603260045260246000fd5b9060005260206000200154815260200190815260200160002060009054906101000a90046001600160a01b03168560016007016005018981548110612b1c57634e487b7160e01b600052603260045260246000fd5b906000526020600020018681548110612b4557634e487b7160e01b600052603260045260246000fd5b9060005260206000200154601154604051602001612b639190613b81565b6040516020818303038152906040526040518663ffffffff1660e01b8152600401612b92959493929190613c1c565b600060405180830381600087803b158015612bac57600080fd5b505af1158015612bc0573d6000803e3d6000fd5b505050505b80612bcf81614afd565b9150506129d9565b5050508080612be590614afd565b9150506127ad565b60005b600754811015611c2e57612c0381612fa1565b80612c0d81614afd565b915050612bf0565b6014546012546040517f5f67db1e0000000000000000000000000000000000000000000000000000000081526000926001600160a01b031691635f67db1e91612c619190600401613b81565b60206040518083038186803b158015612c7957600080fd5b505afa158015612c8d573d6000803e3d6000fd5b505050506040513d601f19601f82011682018060405250810190612cb1919061358c565b90506001600160a01b03811615801590612d375750806001600160a01b0316636c7f81876040518163ffffffff1660e01b815260040160206040518083038186803b158015612cff57600080fd5b505afa158015612d13573d6000803e3d6000fd5b505050506040513d601f19601f82011682018060405250810190612d37919061383f565b15611c2e57806001600160a01b0316633a275fa26040518163ffffffff1660e01b8152600401600060405180830381600087803b158015611e6e57600080fd5b60ff8084166000908152601b602090815260408083208684529091529020541615612db45760405162461bcd60e51b81526004016105c290613ff6565b60ff83166000908152601b602090815260408083208584529091529020805460ff191660011790556109b58383835b60ff8316612e3457612df6816000613264565b6000838152601660205260409020805473ffffffffffffffffffffffffffffffffffffffff19166001600160a01b03929092169190911790556109b5565b8260ff1660011415612e81576000612e4d8260006132aa565b60ff1611612e5c576000612e5f565b60015b6000838152601760205260409020805460ff19169115159190911790556109b5565b8260ff1660021415612eb25760008281526018602090815260409091208251612eac928401906133f4565b506109b5565b8260ff1660031415612edd57612ec98160006132e0565b6000838152601960205260409020556109b5565b8260ff16600414156109b557612ef4816000613316565b6000838152601a6020526040902055505050565b7f00000000000000000000000000000000000000000000000000000000000000006001600160a01b031663d96ee75430600f6001600f80549050612f4c9190614669565b81548110612f6a57634e487b7160e01b600052603260045260246000fd5b60009182526020909120600590910201546008546040516001600160e01b031960e086901b16815261277693929190600401613c5f565b6007805482908110612fc357634e487b7160e01b600052603260045260246000fd5b600091825260209091206004909102015460ff1615612ff45760405162461bcd60e51b81526004016105c2906144eb565b600780548290811061301657634e487b7160e01b600052603260045260246000fd5b9060005260206000209060040201600201544710156130475760405162461bcd60e51b81526004016105c2906141fa565b600180600601828154811061306c57634e487b7160e01b600052603260045260246000fd5b60009182526020822060049190910201805460ff19169215159290921790915560078054839081106130ae57634e487b7160e01b600052603260045260246000fd5b60009182526020918290206040805160c081018252600493909302909101805460ff80821615158552610100820416151594840194909452620100009093046001600160a01b031690820152600182015460608201526002820154608082015260038201805491929160a08401919061312690614aaf565b80601f016020809104026020016040519081016040528092919081815260200182805461315290614aaf565b801561319f5780601f106131745761010080835404028352916020019161319f565b820191906000526020600020905b81548152906001019060200180831161318257829003601f168201915b50505050508152505090508060200151156131d857606081015160009081526016602052604090819020546001600160a01b0316908201525b60008082604001516001600160a01b031683608001518460a001516040516132009190613b8a565b60006040518083038185875af1925050503d806000811461323d576040519150601f19603f3d011682016040523d82523d6000602084013e613242565b606091505b5091509150816127a45760405162461bcd60e51b81526004016105c2906142eb565b6000613271826014614632565b835110156132915760405162461bcd60e51b81526004016105c2906141c3565b5001602001516c01000000000000000000000000900490565b60006132b7826001614632565b835110156132d75760405162461bcd60e51b81526004016105c290614322565b50016001015190565b60006132ed826020614632565b8351101561330d5760405162461bcd60e51b81526004016105c29061418c565b50016020015190565b6000613323826020614632565b8351101561330d5760405162461bcd60e51b81526004016105c2906140f8565b82805482825590600052602060002090810192821561337e579160200282015b8281111561337e578235825591602001919060010190613363565b5061338a929150613467565b5090565b6040805160a08101825260008082526020820181905291810182905260608082015290608082015290565b82805482825590600052602060002090810192821561337e579160200282015b8281111561337e5782518255916020019190600101906133d9565b82805461340090614aaf565b90600052602060002090601f016020900481019282613422576000855561337e565b82601f1061343b57805160ff191683800117855561337e565b8280016001018555821561337e579182018281111561337e5782518255916020019190600101906133d9565b5b8082111561338a5760008155600101613468565b60008083601f84011261348d578182fd5b50813567ffffffffffffffff8111156134a4578182fd5b60208301915083602080830285010111156134be57600080fd5b9250929050565b60008083601f8401126134d6578182fd5b50813567ffffffffffffffff8111156134ed578182fd5b6020830191508360208285010111156134be57600080fd5b600082601f830112613515578081fd5b813567ffffffffffffffff81111561352f5761352f614b44565b613542601f8201601f19166020016145d8565b818152846020838601011115613556578283fd5b816020850160208301379081016020019190915292915050565b600060208284031215613581578081fd5b81356116508161502c565b60006020828403121561359d578081fd5b81516116508161502c565b60008060008060008060008060a0898b0312156135c3578384fd5b88356135ce8161502c565b975060208901356135de8161502c565b9650604089013567ffffffffffffffff808211156135fa578586fd5b6136068c838d0161347c565b909850965060608b013591508082111561361e578586fd5b61362a8c838d0161347c565b909650945060808b0135915080821115613642578384fd5b5061364f8b828c016134c5565b999c989b5096995094979396929594505050565b60008060008060008060a0878903121561367b578182fd5b86356136868161502c565b955060208701356136968161502c565b94506040870135935060608701359250608087013567ffffffffffffffff8111156136bf578283fd5b6136cb89828a016134c5565b979a9699509497509295939492505050565b600060208083850312156136ef578182fd5b825167ffffffffffffffff811115613705578283fd5b8301601f81018513613715578283fd5b805161372861372382614602565b6145d8565b8181528381019083850185840285018601891015613744578687fd5b8694505b8385101561376f57805161375b8161502c565b835260019490940193918501918501613748565b50979650505050505050565b6000806020838503121561378d578182fd5b823567ffffffffffffffff8111156137a3578283fd5b6137af8582860161347c565b90969095509350505050565b600060208083850312156137cd578182fd5b823567ffffffffffffffff8111156137e3578283fd5b8301601f810185136137f3578283fd5b803561380161372382614602565b818152838101908385018584028501860189101561381d578687fd5b8694505b8385101561376f578035835260019490940193918501918501613821565b600060208284031215613850578081fd5b815161165081615041565b60006020828403121561386c578081fd5b5051919050565b600060208284031215613884578081fd5b81356001600160e01b031981168114611650578182fd5b60008060008060008060c087890312156138b3578384fd5b86356138be8161502c565b9550602087013594506040870135935060608701356138dc8161502c565b925060808701356138ec8161502c565b915060a087013567ffffffffffffffff811115613907578182fd5b8701610100818a031215613919578182fd5b809150509295509295509295565b600060208284031215613938578081fd5b5035919050565b60008060408385031215613951578182fd5b82359150602083013567ffffffffffffffff81111561396e578182fd5b61397a85828601613505565b9150509250929050565b60008060408385031215613996578182fd5b50508035926020909101359150565b6000806000606084860312156139b9578081fd5b83356139c48161504f565b925060208401359150604084013567ffffffffffffffff8111156139e6578182fd5b6139f286828701613505565b9150509250925092565b6000815180845260208085018081965082840281019150828601855b85811015613a42578284038952613a30848351613a4f565b98850198935090840190600101613a18565b5091979650505050505050565b6000815180845260208085019450808401835b83811015613a7e57815187529582019590820190600101613a62565b509495945050505050565b6000815480845260208085019450838352808320835b83811015613a7e57815487529582019560019182019101613a9f565b60008151808452613ad3816020860160208601614a83565b601f01601f19169290920160200192915050565b60008154613af481614aaf565b60018281168015613b0c5760018114613b1d57613b4c565b60ff19841687528287019450613b4c565b8560005260208060002060005b85811015613b435781548a820152908401908201613b2a565b50505082870194505b5050505092915050565b60609190911b6bffffffffffffffffffffffff1916815260140190565b90151560f81b815260010190565b90815260200190565b60008251613b9c818460208701614a83565b9190910192915050565b60006116508284613ae7565b6000613bbe8286613ae7565b60609490941b6bffffffffffffffffffffffff1916845250506014820152603401919050565b6001600160a01b0391909116815260200190565b6001600160a01b039384168152919092166020820152604081019190915260600190565b60006001600160a01b03808816835280871660208401525084604083015283606083015260a06080830152613c5460a0830184613abb565b979650505050505050565b6001600160a01b039390931683526020830191909152604082015260600190565b6001600160a01b03929092168252602082015260400190565b6000602082526116506020830184613a4f565b901515815260200190565b6bffffffffffffffffffffffff1991909116815260200190565b600083825260406020830152613cea6040830184613a4f565b949350505050565b600083825260406020830152613cea6040830184613a89565b84815260208101849052604081018390526080810160078310613d3e57634e487b7160e01b600052602160045260246000fd5b82606083015295945050505050565b9283526020830191909152604082015260600190565b918252602082015260400190565b6001600160e01b031991909116815260200190565b6000602082526116506020830184613abb565b60006001600160a01b038716825285602083015284604083015260a06060830152613dc760a0830185613a89565b90508260808301529695505050505050565b60006001600160a01b038089168352808816602084015280871660408401525084606083015260c06080830152613e1360c0830185613abb565b82810360a0840152835181526020840151602082015260408401516040820152606084015160e06060830152613e4c60e0830182613a4f565b905060808501518282036080840152613e6582826139fc565b91505060a085015182820360a0840152613e7f82826139fc565b91505060c085015182820360c0840152613e998282613abb565b9b9a5050505050505050505050565b60208082526026908201527f536f6c7665723a3a4f7574636f6d65206d7573742062652070726f706f73656460408201527f2066697273740000000000000000000000000000000000000000000000000000606082015260800190565b60208082526026908201527f536f6c7665723a3a436f6e646974696f6e206e6f742073746174757320496e6960408201527f7469617465640000000000000000000000000000000000000000000000000000606082015260800190565b6020808252601e908201527f536f6c7665723a204b6565706572206164647265737320696e76616c69640000604082015260600190565b60208082526025908201527f536f6c7665723a3a4e6f74205374617475732e4172626974726174696f6e506560408201527f6e64696e67000000000000000000000000000000000000000000000000000000606082015260800190565b6020808252601c908201527f536f6c7665723a3a436f6e7374616e7420706f7274206c6f636b656400000000604082015260600190565b60208082526017908201527f536f6c7665723a3a4f6e6c792061726269747261746f72000000000000000000604082015260600190565b60208082526035908201527f536f6c7665723a3a506f72742076657273696f6e20646f6573206e6f74206d6160408201527f74636820636f6e646974696f6e2076657273696f6e0000000000000000000000606082015260800190565b6020808252601d908201527f536f6c7665723a3a54696d656c6f636b207374696c6c206c6f636b6564000000604082015260600190565b60208082526015908201527f746f55696e743235365f6f75744f66426f756e64730000000000000000000000604082015260600190565b60208082526027908201527f536f6c7665723a3a4e6f74205374617475732e4172626974726174696f6e526560408201527f7175657374656400000000000000000000000000000000000000000000000000606082015260800190565b60208082526015908201527f746f427974657333325f6f75744f66426f756e64730000000000000000000000604082015260600190565b60208082526015908201527f746f416464726573735f6f75744f66426f756e64730000000000000000000000604082015260600190565b60208082526018908201527f536f6c7665723a3a696e73756666696369656e74206574680000000000000000604082015260600190565b6020808252602b908201527f536f6c7665723a3a436f6e646974696f6e207374617465206e6f74205374617460408201527f75732e4578656375746564000000000000000000000000000000000000000000606082015260800190565b60208082526022908201527f536f6c7665723a3a4e6f74205374617475732e4f7574636f6d6550726f706f7360408201527f6564000000000000000000000000000000000000000000000000000000000000606082015260800190565b60208082526014908201527f536f6c7665723a3a63616c6c206661696c757265000000000000000000000000604082015260600190565b60208082526013908201527f746f55696e74385f6f75744f66426f756e647300000000000000000000000000604082015260600190565b6020808252818101527f536f6c7665723a3a496e676573742073746174696363616c6c206661696c6564604082015260600190565b6020808252818101527f536f6c7665723a3a446566657272656420696e676573747320696e76616c6964604082015260600190565b6020808252602a908201527f536f6c7665723a3a506f727420697320756e6d6170706564206f722077726f6e60408201527f672076657273696f6e2e00000000000000000000000000000000000000000000606082015260800190565b60208082526013908201527f536f6c7665723a3a4f6e6c79204b656570657200000000000000000000000000604082015260600190565b60208082526022908201527f536f6c7665723a3a4f6e6c7920666163746f7279206d61792063616c6c20696e60408201527f6974000000000000000000000000000000000000000000000000000000000000606082015260800190565b6020808252601b908201527f536f6c7665723a3a44796e616d696320706f7274206c6f636b65640000000000604082015260600190565b60208082526017908201527f536f6c7665723a3a616374696f6e206578656375746564000000000000000000604082015260600190565b6000808335601e19843603018112614538578283fd5b83018035915067ffffffffffffffff821115614552578283fd5b60209081019250810236038213156134be57600080fd5b6000808335601e1984360301811261457f578283fd5b83018035915067ffffffffffffffff821115614599578283fd5b6020019150368190038213156134be57600080fd5b6000823560be19833603018112613b9c578182fd5b6000823560de19833603018112613b9c578182fd5b60405181810167ffffffffffffffff811182821017156145fa576145fa614b44565b604052919050565b600067ffffffffffffffff82111561461c5761461c614b44565b5060209081020190565b60009081526020902090565b6000821982111561464557614645614b2e565b500190565b600081600019048311821515161561466457614664614b2e565b500290565b60008282101561467b5761467b614b2e565b500390565b5b818110156107195760008155600101614681565b680100000000000000008311156146ae576146ae614b44565b8054838255808410156146ec576000828152602081208581019083015b808210156146e8576146dd8383614b67565b6001820191506146cb565b5050505b50816146f782614626565b6000805b8681101561472e5761470d8487614522565b61471981838688614e9a565b505060209390930192600192830192016146fb565b50505050505050565b6801000000000000000083111561475057614750614b44565b8054838255808410156147ff577f3fffffffffffffffffffffffffffffffffffffffffffffffffffffffffffffff600181831181161561479257614792614b2e565b60048287118216156147a6576147a6614b2e565b600085815260208120909350878202810190828602015b808210156147f9578482556147d5858686850161500d565b6147e385866002850161500d565b6147f08560038401614ba4565b908201906147bd565b50505050505b508161480a82614626565b6000805b8681101561472e5761482a61482385886145ae565b8385614eb3565b602093909301926004929092019160010161480e565b6801000000000000000083111561485957614859614b44565b805483825580841015614916577f3333333333333333333333333333333333333333333333333333333333333333600181831181161561489b5761489b614b2e565b60058287118216156148af576148af614b2e565b600085815260208120909350878202810190828602015b80821015614910576148d985868461500d565b84848301556148ec85866002850161500d565b6148fa85866003850161500d565b6149078560048401614ba4565b908201906148c6565b50505050505b508161492182614626565b6000805b8681101561472e5761494161493a85886145c3565b8385614f72565b6020939093019260059290920191600101614925565b6149618382614b67565b818160005260208060002060005b8681101561472e5783358255928201926001918201910161496f565b67ffffffffffffffff8311156149a3576149a3614b44565b6149ad8154614aaf565b600080601f8611601f8411818117156149cc576149c986614626565b92505b80156149fb576020601f890104830160208910156149e75750825b6149f96020601f880104850182614680565b505b508060018114614a2757600094508715614a16578387013594505b614a208886614aea565b8655614a79565b601f198816945082845b86811015614a515788860135825560209586019560019092019101614a31565b5088861015614a6e57878501356000196008601f8c16021c191681555b506001600289020186555b5050505050505050565b60005b83811015614a9e578181015183820152602001614a86565b838111156127a45750506000910152565b600281046001821680614ac357607f821691505b60208210811415614ae457634e487b7160e01b600052602260045260246000fd5b50919050565b600019600883021c191660029091021790565b6000600019821415614b1157614b11614b2e565b5060010190565b634e487b7160e01b600052600060045260246000fd5b634e487b7160e01b600052601160045260246000fd5b634e487b7160e01b600052604160045260246000fd5b6000813561058c8161502c565b68010000000000000000821115614b8057614b80614b44565b8054828255808310156109b5578160005260206000206127a4828201858301614680565b8115614bb257614bb2614b18565b614bbc8154614aaf565b80156109b557601f811160018114614bd757600083556127a4565b600083815260208120614bf56020601f860104820160018301614680565b50838152602081208185555550505050565b6001600160a01b03821673ffffffffffffffffffffffffffffffffffffffff198254161781555050565b60ff1981541660ff8315151681178255505050565b8135815560016020808401358284015560408401356002840155614c6d6060850185614522565b614c7b818360038801614957565b5050614c8a6080850185614522565b614c98818360048801614695565b5050614ca760a0850185614522565b614cb5818360058801614695565b505060068301614cc860c0860186614569565b67ffffffffffffffff811115614ce057614ce0614b44565b614cea8354614aaf565b600080601f8411601f841181811715614d0957614d0688614626565b92505b8015614d355788601f870104830189871015614d225750825b614d338a601f880104850182614680565b505b508060018114614d6157600094508515614d50578387013594505b614d5a8686614aea565b8855614daf565b601f198616945082845b86811015614d8857888601358255948a0194908b01908a01614d6b565b5086861015614da557878501356000196008601f8a16021c191681555b5089600287020188555b505050505050505050505050565b8135614dc88161502c565b614dd28183614c07565b506020820135614de18161502c565b614dee8160018401614c07565b50614e07614dfe60408401614b5a565b60028301614c07565b60608201356003820155614e1e6080830183614569565b614e2c81836004860161498b565b5050614e3b60a0830183614522565b614e49818360058601614840565b5050614e5860c0830183614522565b614e66818360068601614737565b5050610719614e7860e08401846145c3565b60078301614c46565b805461ff00191691151560081b61ff0016919091179055565b8115614ea857614ea8614b18565b6127a4848483614957565b8115614ec157614ec1614b18565b8235614ecc81615041565b614ed68183614c31565b506020830135614ee581615041565b614eef8183614e81565b506040830135614efe8161502c565b81547fffffffffffffffffffff0000000000000000000000000000000000000000ffff1660109190911b75ffffffffffffffffffffffffffffffffffffffff0000161781556060830135600182015560808301356002820155614f6460a0840184614569565b6109b281836003860161498b565b8115614f8057614f80614b18565b82358155600181016020840135614f9681615041565b614fa08183614c31565b506040840135614faf81615041565b614fb98183614e81565b506060840135614fc88161504f565b815462ff0000191660109190911b62ff0000161790556080830135600282015560a08301356003820155614fff60c0840184614569565b6109b281836004860161498b565b805460088302600019811b8086831b1681198416178455505050505050565b6001600160a01b0381168114611c2e57600080fd5b8015158114611c2e57600080fd5b60ff81168114611c2e57600080fdfea2646970667358221220abfd0bd8dcd41732a038cf3baa76958282bc893597ccaa7d921acabb65bd483d64736f6c63430008000033",
  "linkReferences": {},
  "deployedLinkReferences": {}
}