{
  "_format": "hh-sol-artifact-1",
  "contractName": "Argparse",
  "sourceName": "contracts/Argparse.sol",
  "abi": [
    {
      "inputs": [],
      "stateMutability": "nonpayable",
      "type": "constructor"
    },
    {
      "inputs": [
        {
          "internalType": "address",
          "name": "_address",
          "type": "address"
        }
      ],
      "name": "encodeAddress",
      "outputs": [
        {
          "internalType": "bytes",
          "name": "",
          "type": "bytes"
        }
      ],
      "stateMutability": "pure",
      "type": "function"
    },
    {
      "inputs": [
        {
          "internalType": "bytes32",
          "name": "_bytes",
          "type": "bytes32"
        }
      ],
      "name": "encodeBytes32",
      "outputs": [
        {
          "internalType": "bytes",
          "name": "",
          "type": "bytes"
        }
      ],
      "stateMutability": "pure",
      "type": "function"
    },
    {
      "inputs": [
        {
          "internalType": "uint256",
          "name": "_uint",
          "type": "uint256"
        }
      ],
      "name": "encodeUint",
      "outputs": [
        {
          "internalType": "bytes",
          "name": "",
          "type": "bytes"
        }
      ],
      "stateMutability": "pure",
      "type": "function"
    },
    {
      "inputs": [
        {
          "internalType": "bytes",
          "name": "_data",
          "type": "bytes"
        }
      ],
      "name": "ingestByteStream",
      "outputs": [],
      "stateMutability": "nonpayable",
      "type": "function"
    },
    {
      "inputs": [
        {
          "internalType": "bytes32",
          "name": "_data",
          "type": "bytes32"
        }
      ],
      "name": "parseAddress",
      "outputs": [
        {
          "internalType": "address",
          "name": "",
          "type": "address"
        }
      ],
      "stateMutability": "nonpayable",
      "type": "function"
    },
    {
      "inputs": [
        {
          "internalType": "bytes32",
          "name": "_data",
          "type": "bytes32"
        }
      ],
      "name": "parseBytes32",
      "outputs": [
        {
          "internalType": "bytes32",
          "name": "",
          "type": "bytes32"
        }
      ],
      "stateMutability": "nonpayable",
      "type": "function"
    },
    {
      "inputs": [
        {
          "internalType": "bytes32",
          "name": "_data",
          "type": "bytes32"
        }
      ],
      "name": "parseUint",
      "outputs": [
        {
          "internalType": "uint256",
          "name": "",
          "type": "uint256"
        }
      ],
      "stateMutability": "nonpayable",
      "type": "function"
    }
  ],
  "bytecode": "0x608060405234801561001057600080fd5b50610873806100206000396000f3fe608060405234801561001057600080fd5b506004361061007d5760003560e01c8063a1f07d171161005b578063a1f07d17146100fe578063ab8311441461012e578063d30c0a641461015e578063d32b1bea1461018e5761007d565b806324fcb80c146100825780633ff4a90a146100b257806363d380a9146100ce575b600080fd5b61009c6004803603810190610097919061040c565b6101be565b6040516100a991906105e9565b60405180910390f35b6100cc60048036038101906100c79190610435565b6101d0565b005b6100e860048036038101906100e3919061040c565b610221565b6040516100f5919061061f565b60405180910390f35b6101186004803603810190610113919061040c565b61024d565b6040516101259190610604565b60405180910390f35b6101486004803603810190610143919061040c565b610257565b6040516101559190610641565b60405180910390f35b6101786004803603810190610173919061047a565b610269565b604051610185919061061f565b60405180910390f35b6101a860048036038101906101a391906103e3565b610295565b6040516101b5919061061f565b60405180910390f35b6000808260601c905080915050919050565b61021d82828080601f016020809104026020016040519081016040528093929190818152602001838380828437600081840152601f19601f820116905080830192505050505050506102c1565b5050565b6060600082604051602001610237929190610591565b6040516020818303038152906040529050919050565b6000819050919050565b6000808260001c905080915050919050565b606060028260405160200161027f9291906105bd565b6040516020818303038152906040529050919050565b60606001826040516020016102ab929190610565565b6040516020818303038152906040529050919050565b600080600080600190505b8451811015610353576020816102e29190610678565b915080850151935081850151925060008460ff16141561030b576103058361024d565b5061033f565b60018460ff16141561032657610320836101be565b5061033e565b60028460ff16141561033d5761033b83610257565b505b5b5b60408161034c9190610678565b90506102cc565b5050505050565b600081359050610369816107f8565b92915050565b60008135905061037e8161080f565b92915050565b60008083601f84011261039657600080fd5b8235905067ffffffffffffffff8111156103af57600080fd5b6020830191508360018202830111156103c757600080fd5b9250929050565b6000813590506103dd81610826565b92915050565b6000602082840312156103f557600080fd5b60006104038482850161035a565b91505092915050565b60006020828403121561041e57600080fd5b600061042c8482850161036f565b91505092915050565b6000806020838503121561044857600080fd5b600083013567ffffffffffffffff81111561046257600080fd5b61046e85828601610384565b92509250509250929050565b60006020828403121561048c57600080fd5b600061049a848285016103ce565b91505092915050565b6104ac816106ce565b82525050565b6104c36104be826106ce565b610754565b82525050565b6104d2816106e0565b82525050565b6104e96104e4826106e0565b610766565b82525050565b60006104fa8261065c565b6105048185610667565b9350610514818560208601610721565b61051d816107cd565b840191505092915050565b6105318161070a565b82525050565b6105486105438261070a565b610782565b82525050565b61055f61055a82610714565b61078c565b82525050565b6000610571828561054e565b60018201915061058182846104b2565b6014820191508190509392505050565b600061059d828561054e565b6001820191506105ad82846104d8565b6020820191508190509392505050565b60006105c9828561054e565b6001820191506105d98284610537565b6020820191508190509392505050565b60006020820190506105fe60008301846104a3565b92915050565b600060208201905061061960008301846104c9565b92915050565b6000602082019050818103600083015261063981846104ef565b905092915050565b60006020820190506106566000830184610528565b92915050565b600081519050919050565b600082825260208201905092915050565b60006106838261070a565b915061068e8361070a565b9250827fffffffffffffffffffffffffffffffffffffffffffffffffffffffffffffffff038211156106c3576106c261079e565b5b828201905092915050565b60006106d9826106ea565b9050919050565b6000819050919050565b600073ffffffffffffffffffffffffffffffffffffffff82169050919050565b6000819050919050565b600060ff82169050919050565b60005b8381101561073f578082015181840152602081019050610724565b8381111561074e576000848401525b50505050565b600061075f82610770565b9050919050565b6000819050919050565b600061077b826107eb565b9050919050565b6000819050919050565b6000610797826107de565b9050919050565b7f4e487b7100000000000000000000000000000000000000000000000000000000600052601160045260246000fd5b6000601f19601f8301169050919050565b60008160f81b9050919050565b60008160601b9050919050565b610801816106ce565b811461080c57600080fd5b50565b610818816106e0565b811461082357600080fd5b50565b61082f8161070a565b811461083a57600080fd5b5056fea26469706673582212203cdf60e5355c4b8026473ce0d123bacaa3cee34e0ad761e215b0ded34942c2ce64736f6c63430008000033",
  "linkReferences": {},
  "deployedLinkReferences": {}
}