{
  "_format": "hh-sol-artifact-1",
  "contractName": "Solver",
  "sourceName": "contracts/Solver.sol",
  "abi": [
    {
      "inputs": [
        {
          "internalType": "uint8",
          "name": "_type",
          "type": "uint8"
        },
        {
          "internalType": "uint256",
          "name": "_key",
          "type": "uint256"
        },
        {
          "internalType": "bytes",
          "name": "_data",
          "type": "bytes"
        }
      ],
      "name": "addData",
      "outputs": [],
      "stateMutability": "nonpayable",
      "type": "function"
    },
    {
      "inputs": [
        {
          "internalType": "uint256",
          "name": "_index",
          "type": "uint256"
        }
      ],
      "name": "addressFromChainIndex",
      "outputs": [
        {
          "internalType": "address",
          "name": "_address",
          "type": "address"
        }
      ],
      "stateMutability": "view",
      "type": "function"
    },
    {
      "inputs": [
        {
          "internalType": "uint256[]",
          "name": "payouts",
          "type": "uint256[]"
        }
      ],
      "name": "arbitrate",
      "outputs": [],
      "stateMutability": "nonpayable",
      "type": "function"
    },
    {
      "inputs": [],
      "name": "arbitrateNull",
      "outputs": [],
      "stateMutability": "nonpayable",
      "type": "function"
    },
    {
      "inputs": [],
      "name": "arbitrationPending",
      "outputs": [],
      "stateMutability": "nonpayable",
      "type": "function"
    },
    {
      "inputs": [],
      "name": "arbitrationRequested",
      "outputs": [],
      "stateMutability": "nonpayable",
      "type": "function"
    },
    {
      "inputs": [],
      "name": "chainChild",
      "outputs": [
        {
          "internalType": "address",
          "name": "",
          "type": "address"
        }
      ],
      "stateMutability": "view",
      "type": "function"
    },
    {
      "inputs": [],
      "name": "chainIndex",
      "outputs": [
        {
          "internalType": "uint256",
          "name": "",
          "type": "uint256"
        }
      ],
      "stateMutability": "view",
      "type": "function"
    },
    {
      "inputs": [],
      "name": "chainParent",
      "outputs": [
        {
          "internalType": "address",
          "name": "",
          "type": "address"
        }
      ],
      "stateMutability": "view",
      "type": "function"
    },
    {
      "inputs": [
        {
          "internalType": "uint256",
          "name": "",
          "type": "uint256"
        }
      ],
      "name": "conditions",
      "outputs": [
        {
          "internalType": "contract IERC20",
          "name": "collateralToken",
          "type": "address"
        },
        {
          "internalType": "bytes32",
          "name": "questionId",
          "type": "bytes32"
        },
        {
          "internalType": "bytes32",
          "name": "parentCollectionId",
          "type": "bytes32"
        },
        {
          "internalType": "bytes32",
          "name": "conditionId",
          "type": "bytes32"
        },
        {
          "internalType": "enum SolverLib.Status",
          "name": "status",
          "type": "uint8"
        }
      ],
      "stateMutability": "view",
      "type": "function"
    },
    {
      "inputs": [],
      "name": "config",
      "outputs": [
        {
          "internalType": "contract Solver",
          "name": "implementation",
          "type": "address"
        },
        {
          "internalType": "address",
          "name": "keeper",
          "type": "address"
        },
        {
          "internalType": "address",
          "name": "arbitrator",
          "type": "address"
        },
        {
          "internalType": "uint256",
          "name": "timelockSeconds",
          "type": "uint256"
        },
        {
          "internalType": "bytes",
          "name": "data",
          "type": "bytes"
        },
        {
          "components": [
            {
              "internalType": "contract IERC20",
              "name": "collateralToken",
              "type": "address"
            },
            {
              "internalType": "uint256",
              "name": "outcomeSlots",
              "type": "uint256"
            },
            {
              "internalType": "uint256",
              "name": "parentCollectionPartitionIndex",
              "type": "uint256"
            },
            {
              "internalType": "uint256",
              "name": "amount",
              "type": "uint256"
            },
            {
              "internalType": "uint256[]",
              "name": "partition",
              "type": "uint256[]"
            },
            {
              "internalType": "uint256[][]",
              "name": "recipientAddressPorts",
              "type": "uint256[][]"
            },
            {
              "internalType": "uint256[][]",
              "name": "recipientAmounts",
              "type": "uint256[][]"
            },
            {
              "internalType": "string",
              "name": "metadata",
              "type": "string"
            }
          ],
          "internalType": "struct SolverLib.ConditionBase",
          "name": "conditionBase",
          "type": "tuple"
        }
      ],
      "stateMutability": "view",
      "type": "function"
    },
    {
      "inputs": [],
      "name": "confirmPayouts",
      "outputs": [],
      "stateMutability": "nonpayable",
      "type": "function"
    },
    {
      "inputs": [
        {
          "internalType": "uint256",
          "name": "_index",
          "type": "uint256"
        }
      ],
      "name": "deferredIngest",
      "outputs": [],
      "stateMutability": "nonpayable",
      "type": "function"
    },
    {
      "inputs": [
        {
          "components": [
            {
              "internalType": "contract Solver",
              "name": "implementation",
              "type": "address"
            },
            {
              "internalType": "address",
              "name": "keeper",
              "type": "address"
            },
            {
              "internalType": "address",
              "name": "arbitrator",
              "type": "address"
            },
            {
              "internalType": "uint256",
              "name": "timelockSeconds",
              "type": "uint256"
            },
            {
              "internalType": "bytes",
              "name": "data",
              "type": "bytes"
            },
            {
              "components": [
                {
                  "internalType": "uint256",
                  "name": "executions",
                  "type": "uint256"
                },
                {
                  "internalType": "bool",
                  "name": "isDeferred",
                  "type": "bool"
                },
                {
                  "internalType": "bool",
                  "name": "isConstant",
                  "type": "bool"
                },
                {
                  "internalType": "uint8",
                  "name": "port",
                  "type": "uint8"
                },
                {
                  "internalType": "uint256",
                  "name": "key",
                  "type": "uint256"
                },
                {
                  "internalType": "uint256",
                  "name": "solverIndex",
                  "type": "uint256"
                },
                {
                  "internalType": "bytes",
                  "name": "data",
                  "type": "bytes"
                }
              ],
              "internalType": "struct SolverLib.Ingest[]",
              "name": "ingests",
              "type": "tuple[]"
            },
            {
              "components": [
                {
                  "internalType": "bool",
                  "name": "executed",
                  "type": "bool"
                },
                {
                  "internalType": "bool",
                  "name": "isPort",
                  "type": "bool"
                },
                {
                  "internalType": "address",
                  "name": "to",
                  "type": "address"
                },
                {
                  "internalType": "uint256",
                  "name": "portIndex",
                  "type": "uint256"
                },
                {
                  "internalType": "uint256",
                  "name": "value",
                  "type": "uint256"
                },
                {
                  "internalType": "bytes",
                  "name": "data",
                  "type": "bytes"
                }
              ],
              "internalType": "struct SolverLib.Action[]",
              "name": "actions",
              "type": "tuple[]"
            },
            {
              "components": [
                {
                  "internalType": "contract IERC20",
                  "name": "collateralToken",
                  "type": "address"
                },
                {
                  "internalType": "uint256",
                  "name": "outcomeSlots",
                  "type": "uint256"
                },
                {
                  "internalType": "uint256",
                  "name": "parentCollectionPartitionIndex",
                  "type": "uint256"
                },
                {
                  "internalType": "uint256",
                  "name": "amount",
                  "type": "uint256"
                },
                {
                  "internalType": "uint256[]",
                  "name": "partition",
                  "type": "uint256[]"
                },
                {
                  "internalType": "uint256[][]",
                  "name": "recipientAddressPorts",
                  "type": "uint256[][]"
                },
                {
                  "internalType": "uint256[][]",
                  "name": "recipientAmounts",
                  "type": "uint256[][]"
                },
                {
                  "internalType": "string",
                  "name": "metadata",
                  "type": "string"
                }
              ],
              "internalType": "struct SolverLib.ConditionBase",
              "name": "conditionBase",
              "type": "tuple"
            }
          ],
          "internalType": "struct SolverLib.Config",
          "name": "_config",
          "type": "tuple"
        }
      ],
      "name": "deployChild",
      "outputs": [
        {
          "internalType": "contract Solver",
          "name": "_solver",
          "type": "address"
        }
      ],
      "stateMutability": "nonpayable",
      "type": "function"
    },
    {
      "inputs": [],
      "name": "executeSolve",
      "outputs": [],
      "stateMutability": "nonpayable",
      "type": "function"
    },
    {
      "inputs": [
        {
          "internalType": "uint256",
          "name": "_partitionIndex",
          "type": "uint256"
        }
      ],
      "name": "getCanonCollectionId",
      "outputs": [
        {
          "internalType": "bytes32",
          "name": "collectionId",
          "type": "bytes32"
        }
      ],
      "stateMutability": "view",
      "type": "function"
    },
    {
      "inputs": [],
      "name": "getConditions",
      "outputs": [
        {
          "components": [
            {
              "internalType": "contract IERC20",
              "name": "collateralToken",
              "type": "address"
            },
            {
              "internalType": "bytes32",
              "name": "questionId",
              "type": "bytes32"
            },
            {
              "internalType": "bytes32",
              "name": "parentCollectionId",
              "type": "bytes32"
            },
            {
              "internalType": "bytes32",
              "name": "conditionId",
              "type": "bytes32"
            },
            {
              "internalType": "uint256[]",
              "name": "payouts",
              "type": "uint256[]"
            },
            {
              "internalType": "enum SolverLib.Status",
              "name": "status",
              "type": "uint8"
            }
          ],
          "internalType": "struct SolverLib.Condition[]",
          "name": "",
          "type": "tuple[]"
        }
      ],
      "stateMutability": "view",
      "type": "function"
    },
    {
      "inputs": [
        {
          "internalType": "uint256",
          "name": "_key",
          "type": "uint256"
        }
      ],
      "name": "getOutput",
      "outputs": [
        {
          "internalType": "bytes",
          "name": "data",
          "type": "bytes"
        }
      ],
      "stateMutability": "view",
      "type": "function"
    },
    {
      "inputs": [],
      "name": "ingestsValid",
      "outputs": [
        {
          "internalType": "bool",
          "name": "",
          "type": "bool"
        }
      ],
      "stateMutability": "view",
      "type": "function"
    },
    {
      "inputs": [
        {
          "internalType": "address",
          "name": "_chainParent",
          "type": "address"
        },
        {
          "internalType": "uint256",
          "name": "_chainIndex",
          "type": "uint256"
        },
        {
          "components": [
            {
              "internalType": "contract Solver",
              "name": "implementation",
              "type": "address"
            },
            {
              "internalType": "address",
              "name": "keeper",
              "type": "address"
            },
            {
              "internalType": "address",
              "name": "arbitrator",
              "type": "address"
            },
            {
              "internalType": "uint256",
              "name": "timelockSeconds",
              "type": "uint256"
            },
            {
              "internalType": "bytes",
              "name": "data",
              "type": "bytes"
            },
            {
              "components": [
                {
                  "internalType": "uint256",
                  "name": "executions",
                  "type": "uint256"
                },
                {
                  "internalType": "bool",
                  "name": "isDeferred",
                  "type": "bool"
                },
                {
                  "internalType": "bool",
                  "name": "isConstant",
                  "type": "bool"
                },
                {
                  "internalType": "uint8",
                  "name": "port",
                  "type": "uint8"
                },
                {
                  "internalType": "uint256",
                  "name": "key",
                  "type": "uint256"
                },
                {
                  "internalType": "uint256",
                  "name": "solverIndex",
                  "type": "uint256"
                },
                {
                  "internalType": "bytes",
                  "name": "data",
                  "type": "bytes"
                }
              ],
              "internalType": "struct SolverLib.Ingest[]",
              "name": "ingests",
              "type": "tuple[]"
            },
            {
              "components": [
                {
                  "internalType": "bool",
                  "name": "executed",
                  "type": "bool"
                },
                {
                  "internalType": "bool",
                  "name": "isPort",
                  "type": "bool"
                },
                {
                  "internalType": "address",
                  "name": "to",
                  "type": "address"
                },
                {
                  "internalType": "uint256",
                  "name": "portIndex",
                  "type": "uint256"
                },
                {
                  "internalType": "uint256",
                  "name": "value",
                  "type": "uint256"
                },
                {
                  "internalType": "bytes",
                  "name": "data",
                  "type": "bytes"
                }
              ],
              "internalType": "struct SolverLib.Action[]",
              "name": "actions",
              "type": "tuple[]"
            },
            {
              "components": [
                {
                  "internalType": "contract IERC20",
                  "name": "collateralToken",
                  "type": "address"
                },
                {
                  "internalType": "uint256",
                  "name": "outcomeSlots",
                  "type": "uint256"
                },
                {
                  "internalType": "uint256",
                  "name": "parentCollectionPartitionIndex",
                  "type": "uint256"
                },
                {
                  "internalType": "uint256",
                  "name": "amount",
                  "type": "uint256"
                },
                {
                  "internalType": "uint256[]",
                  "name": "partition",
                  "type": "uint256[]"
                },
                {
                  "internalType": "uint256[][]",
                  "name": "recipientAddressPorts",
                  "type": "uint256[][]"
                },
                {
                  "internalType": "uint256[][]",
                  "name": "recipientAmounts",
                  "type": "uint256[][]"
                },
                {
                  "internalType": "string",
                  "name": "metadata",
                  "type": "string"
                }
              ],
              "internalType": "struct SolverLib.ConditionBase",
              "name": "conditionBase",
              "type": "tuple"
            }
          ],
          "internalType": "struct SolverLib.Config",
          "name": "_solverConfig",
          "type": "tuple"
        }
      ],
      "name": "init",
      "outputs": [],
      "stateMutability": "nonpayable",
      "type": "function"
    },
    {
      "inputs": [
        {
          "internalType": "address",
          "name": "operator",
          "type": "address"
        },
        {
          "internalType": "address",
          "name": "from",
          "type": "address"
        },
        {
          "internalType": "uint256[]",
          "name": "ids",
          "type": "uint256[]"
        },
        {
          "internalType": "uint256[]",
          "name": "values",
          "type": "uint256[]"
        },
        {
          "internalType": "bytes",
          "name": "data",
          "type": "bytes"
        }
      ],
      "name": "onERC1155BatchReceived",
      "outputs": [
        {
          "internalType": "bytes4",
          "name": "",
          "type": "bytes4"
        }
      ],
      "stateMutability": "nonpayable",
      "type": "function"
    },
    {
      "inputs": [
        {
          "internalType": "address",
          "name": "operator",
          "type": "address"
        },
        {
          "internalType": "address",
          "name": "from",
          "type": "address"
        },
        {
          "internalType": "uint256",
          "name": "id",
          "type": "uint256"
        },
        {
          "internalType": "uint256",
          "name": "value",
          "type": "uint256"
        },
        {
          "internalType": "bytes",
          "name": "data",
          "type": "bytes"
        }
      ],
      "name": "onERC1155Received",
      "outputs": [
        {
          "internalType": "bytes4",
          "name": "",
          "type": "bytes4"
        }
      ],
      "stateMutability": "nonpayable",
      "type": "function"
    },
    {
      "inputs": [],
      "name": "prepareSolve",
      "outputs": [],
      "stateMutability": "nonpayable",
      "type": "function"
    },
    {
      "inputs": [
        {
          "internalType": "uint256[]",
          "name": "_payouts",
          "type": "uint256[]"
        }
      ],
      "name": "proposePayouts",
      "outputs": [],
      "stateMutability": "nonpayable",
      "type": "function"
    },
    {
      "inputs": [
        {
          "internalType": "bytes32",
          "name": "_trackingId",
          "type": "bytes32"
        }
      ],
      "name": "setTrackingId",
      "outputs": [],
      "stateMutability": "nonpayable",
      "type": "function"
    },
    {
      "inputs": [
        {
          "internalType": "bytes4",
          "name": "interfaceId",
          "type": "bytes4"
        }
      ],
      "name": "supportsInterface",
      "outputs": [
        {
          "internalType": "bool",
          "name": "",
          "type": "bool"
        }
      ],
      "stateMutability": "view",
      "type": "function"
    },
    {
      "inputs": [],
      "name": "timelock",
      "outputs": [
        {
          "internalType": "uint256",
          "name": "",
          "type": "uint256"
        }
      ],
      "stateMutability": "view",
      "type": "function"
    },
    {
      "inputs": [],
      "name": "trackingId",
      "outputs": [
        {
          "internalType": "bytes32",
          "name": "",
          "type": "bytes32"
        }
      ],
      "stateMutability": "view",
      "type": "function"
    }
  ],
  "bytecode": "0x608060405234801561001057600080fd5b50614215806100206000396000f3fe608060405234801561001057600080fd5b50600436106101c45760003560e01c80635bd11123116100f9578063972a688b11610097578063d33219b411610071578063d33219b414610389578063e7fd205914610391578063ea8221a9146103a4578063f23a6e61146103ac576101c4565b8063972a688b146103595780639999250614610361578063bc197c8114610369576101c4565b80637c123627116100d35780637c1236271461031657806380c2dde21461032b57806384dbd3911461033357806394e0560014610346576101c4565b80635bd11123146102e15780636980c22b146102e957806379502c55146102fc576101c4565b80632c17b91e1161016657806348cbb2fc1161014057806348cbb2fc146102a957806348d6bc00146102be5780634da34efd146102c657806355dd978b146102d9576101c4565b80632c17b91e146102795780633837b05e146102815780633a275fa2146102a1576101c4565b806317861f87116101a257806317861f871461021a57806318f792781461023a57806326c50007146102425780632b36342714610266576101c4565b806301ffc9a7146101c95780630d06101a146101f25780630d49722d14610207575b600080fd5b6101dc6101d7366004612414565b6103bf565b6040516101e99190612e05565b60405180910390f35b6102056102003660046123e4565b610405565b005b6102056102153660046122f8565b610433565b61022d6102283660046123e4565b610593565b6040516101e99190612e2e565b61020561067c565b6102556102503660046123e4565b6107d6565b6040516101e9959493929190612e41565b6102056102743660046125a9565b610824565b610205610860565b61029461028f3660046123e4565b6108d0565b6040516101e99190612c31565b61020561098d565b6102b1610ca1565b6040516101e99190612e10565b610205610ca7565b6102056102d43660046122a1565b610df0565b610294610e9d565b610205610eac565b6102946102f736600461256e565b610f84565b610304611089565b6040516101e996959493929190612e74565b61031e611399565b6040516101e99190612c87565b6102946114c8565b6102b16103413660046123e4565b6114d7565b6102056103543660046123e4565b6115d2565b610205611605565b6101dc6116dd565b61037c610377366004612133565b61178a565b6040516101e99190612e19565b6102b16117b7565b61020561039f366004612338565b6117bd565b6102b161192c565b61037c6103ba3660046121ee565b611932565b60006001600160e01b031982167f4e2312e00000000000000000000000000000000000000000000000000000000014806103fd57506103fd8261195e565b90505b919050565b6015541561042e5760405162461bcd60e51b81526004016104259061328f565b60405180910390fd5b601555565b6002546001600160a01b0316331461045d5760405162461bcd60e51b815260040161042590613032565b60016010805461046f906001906137c2565b8154811061048d57634e487b7160e01b600052603260045260246000fd5b600091825260209091206006918202016005015460ff16908111156104c257634e487b7160e01b600052602160045260246000fd5b146104df5760405162461bcd60e51b815260040161042590613258565b6010805473__$94d7d2f22770e4b0d1a2b99fb2812308e2$__91636a0a24f19161050b906001906137c2565b8154811061052957634e487b7160e01b600052603260045260246000fd5b906000526020600020906006020184846040518463ffffffff1660e01b81526004016105579392919061336a565b60006040518083038186803b15801561056f57600080fd5b505af4158015610583573d6000803e3d6000fd5b5050505061058f611990565b5050565b60008181526017602052604090205460609060ff16806105c25750601054600083815260186020526040902054145b6105de5760405162461bcd60e51b8152600401610425906132c6565b600082815260166020526040902080546105f790613c14565b80601f016020809104026020016040519081016040528092919081815260200182805461062390613c14565b80156106705780601f1061064557610100808354040283529160200191610670565b820191906000526020600020905b81548152906001019060200180831161065357829003601f168201915b50505050509050919050565b6003546001600160a01b031633146106a65760405162461bcd60e51b81526004016104259061310e565b6002601080546106b8906001906137c2565b815481106106d657634e487b7160e01b600052603260045260246000fd5b600091825260209091206006918202016005015460ff169081111561070b57634e487b7160e01b600052602160045260246000fd5b146107285760405162461bcd60e51b8152600401610425906131b3565b6010805473__$94d7d2f22770e4b0d1a2b99fb2812308e2$__916324b2860291610754906001906137c2565b8154811061077257634e487b7160e01b600052603260045260246000fd5b90600052602060002090600602016040518263ffffffff1660e01b815260040161079c9190612e10565b60006040518083038186803b1580156107b457600080fd5b505af41580156107c8573d6000803e3d6000fd5b505050506107d4611990565b565b601081815481106107e657600080fd5b6000918252602090912060069091020180546001820154600283015460038401546005909401546001600160a01b0390931694509092909160ff1685565b6002546001600160a01b0316331461084e5760405162461bcd60e51b815260040161042590612f8d565b61085b83836000846119ad565b505050565b610868611adf565b60005b6006548110156108cd57600680548290811061089757634e487b7160e01b600052603260045260246000fd5b600091825260209091206001600590920201015460ff166108bb576108bb81611c53565b806108c581613c5c565b91505061086b565b50565b6011546012546013546040517f9fa61fa300000000000000000000000000000000000000000000000000000000815260009373__$94d7d2f22770e4b0d1a2b99fb2812308e2$__93639fa61fa39361093d93889330936001600160a01b039182169391169160040161355b565b60206040518083038186803b15801561095557600080fd5b505af4158015610969573d6000803e3d6000fd5b505050506040513d601f19601f820116820180604052508101906103fd9190612117565b60006010805461099f906001906137c2565b815481106109bd57634e487b7160e01b600052603260045260246000fd5b600091825260209091206006918202016005015460ff16908111156109f257634e487b7160e01b600052602160045260246000fd5b14610a0f5760405162461bcd60e51b8152600401610425906132fd565b610a176116dd565b610a335760405162461bcd60e51b8152600401610425906130a0565b6010805460019190610a469083906137c2565b81548110610a6457634e487b7160e01b600052603260045260246000fd5b906000526020600020906006020160050160006101000a81548160ff02191690836006811115610aa457634e487b7160e01b600052602160045260246000fd5b02179055506011546010805473__$94d7d2f22770e4b0d1a2b99fb2812308e2$__926366662585926001600160a01b039091169160089190610ae8906001906137c2565b81548110610b0657634e487b7160e01b600052603260045260246000fd5b90600052602060002090600602016040518463ffffffff1660e01b8152600401610b3293929190612c45565b60006040518083038186803b158015610b4a57600080fd5b505af4158015610b5e573d6000803e3d6000fd5b50506010805473__$94d7d2f22770e4b0d1a2b99fb2812308e2$__935063366968289250610b8e906001906137c2565b81548110610bac57634e487b7160e01b600052603260045260246000fd5b906000526020600020906006020160016007013060166015546040518663ffffffff1660e01b8152600401610be59594939291906133c4565b60006040518083038186803b158015610bfd57600080fd5b505af4158015610c11573d6000803e3d6000fd5b50506040517f7a00026d00000000000000000000000000000000000000000000000000000000815273__$94d7d2f22770e4b0d1a2b99fb2812308e2$__9250637a00026d9150610c6990600790601690600401612c79565b60006040518083038186803b158015610c8157600080fd5b505af4158015610c95573d6000803e3d6000fd5b505050506107d4611dd5565b60155481565b6014544211610cc85760405162461bcd60e51b815260040161042590613069565b600260108054610cda906001906137c2565b81548110610cf857634e487b7160e01b600052603260045260246000fd5b600091825260209091206006918202016005015460ff1690811115610d2d57634e487b7160e01b600052602160045260246000fd5b14610d4a5760405162461bcd60e51b81526004016104259061317c565b6010805473__$94d7d2f22770e4b0d1a2b99fb2812308e2$__9163b89c10e791610d76906001906137c2565b81548110610d9457634e487b7160e01b600052603260045260246000fd5b90600052602060002090600602016040518263ffffffff1660e01b8152600401610dbe9190612e10565b60006040518083038186803b158015610dd657600080fd5b505af4158015610dea573d6000803e3d6000fd5b50505050565b3373e7f1725e7734ce288f8367e1bb143e90bb3f051214610e235760405162461bcd60e51b815260040161042590612ffb565b6000610e3560408301602084016120f4565b6001600160a01b03161415610e5c5760405162461bcd60e51b815260040161042590613145565b6011805473ffffffffffffffffffffffffffffffffffffffff19166001600160a01b0385161790556013829055806001610e968282613f3e565b5050505050565b6012546001600160a01b031681565b6003546001600160a01b03163314610ed65760405162461bcd60e51b81526004016104259061310e565b600360108054610ee8906001906137c2565b81548110610f0657634e487b7160e01b600052603260045260246000fd5b600091825260209091206006918202016005015460ff1690811115610f3b57634e487b7160e01b600052602160045260246000fd5b14610f585760405162461bcd60e51b8152600401610425906130d7565b6010805473__$94d7d2f22770e4b0d1a2b99fb2812308e2$__9163ec7ac2f091610754906001906137c2565b6012546000906001600160a01b031615610fb05760405162461bcd60e51b815260040161042590612fc4565b6013546040517f4dd0aa4900000000000000000000000000000000000000000000000000000000815273__$94d7d2f22770e4b0d1a2b99fb2812308e2$__91634dd0aa4991611006918691309190600401613432565b604080518083038186803b15801561101d57600080fd5b505af4158015611031573d6000803e3d6000fd5b505050506040513d601f19601f820116820180604052508101906110559190612268565b6012805473ffffffffffffffffffffffffffffffffffffffff19166001600160a01b03939093169290921790915592915050565b60018054600254600354600454600580546001600160a01b0395861696948616959093169391926110b990613c14565b80601f01602080910402602001604051908101604052809291908181526020018280546110e590613c14565b80156111325780601f1061110757610100808354040283529160200191611132565b820191906000526020600020905b81548152906001019060200180831161111557829003601f168201915b505060408051610100810182526007870180546001600160a01b031682526008880154602080840191909152600989015483850152600a8901546060840152600b890180548551818402810184019096528086529899989397509195506080870194509091908301828280156111c757602002820191906000526020600020905b8154815260200190600101908083116111b3575b5050505050815260200160058201805480602002602001604051908101604052809291908181526020016000905b828210156112615760008481526020908190208301805460408051828502810185019091528181529283018282801561124d57602002820191906000526020600020905b815481526020019060010190808311611239575b5050505050815260200190600101906111f5565b50505050815260200160068201805480602002602001604051908101604052809291908181526020016000905b828210156112fa576000848152602090819020830180546040805182850281018501909152818152928301828280156112e657602002820191906000526020600020905b8154815260200190600101908083116112d2575b50505050508152602001906001019061128e565b50505050815260200160078201805461131290613c14565b80601f016020809104026020016040519081016040528092919081815260200182805461133e90613c14565b801561138b5780601f106113605761010080835404028352916020019161138b565b820191906000526020600020905b81548152906001019060200180831161136e57829003601f168201915b505050505081525050905086565b60606010805480602002602001604051908101604052809291908181526020016000905b828210156114bf5760008481526020908190206040805160c0810182526006860290920180546001600160a01b03168352600181015483850152600281015483830152600381015460608401526004810180548351818702810187019094528084529394919360808601939283018282801561145857602002820191906000526020600020905b815481526020019060010190808311611444575b5050509183525050600582015460209091019060ff16600681111561148d57634e487b7160e01b600052602160045260246000fd5b60068111156114ac57634e487b7160e01b600052602160045260246000fd5b81525050815260200190600101906113bd565b50505050905090565b6011546001600160a01b031681565b600073__$94d7d2f22770e4b0d1a2b99fb2812308e2$__630bc1c42a6010600160108054905061150791906137c2565b8154811061152557634e487b7160e01b600052603260045260246000fd5b90600052602060002090600602016001600701600401858154811061155a57634e487b7160e01b600052603260045260246000fd5b90600052602060002001546040518363ffffffff1660e01b8152600401611582929190613410565b60206040518083038186803b15801561159a57600080fd5b505af41580156115ae573d6000803e3d6000fd5b505050506040513d601f19601f820116820180604052508101906103fd91906123fc565b6002546001600160a01b031633146115fc5760405162461bcd60e51b815260040161042590612f8d565b6108cd81611c53565b6003546001600160a01b0316331461162f5760405162461bcd60e51b81526004016104259061310e565b600460108054611641906001906137c2565b8154811061165f57634e487b7160e01b600052603260045260246000fd5b600091825260209091206006918202016005015460ff169081111561169457634e487b7160e01b600052602160045260246000fd5b146116b15760405162461bcd60e51b815260040161042590613221565b6010805473__$94d7d2f22770e4b0d1a2b99fb2812308e2$__916359111fb591610754906001906137c2565b6010546040517f5cc1f6b500000000000000000000000000000000000000000000000000000000815260009173__$94d7d2f22770e4b0d1a2b99fb2812308e2$__91635cc1f6b5916117359160069190600401612d39565b60206040518083038186803b15801561174d57600080fd5b505af4158015611761573d6000803e3d6000fd5b505050506040513d601f19601f8201168201806040525081019061178591906123c8565b905090565b7fbc197c810000000000000000000000000000000000000000000000000000000098975050505050505050565b60145481565b6003546001600160a01b031633146117e75760405162461bcd60e51b81526004016104259061310e565b6004601080546117f9906001906137c2565b8154811061181757634e487b7160e01b600052603260045260246000fd5b600091825260209091206006918202016005015460ff169081111561184c57634e487b7160e01b600052602160045260246000fd5b146118695760405162461bcd60e51b815260040161042590613221565b601454421161188a5760405162461bcd60e51b815260040161042590613069565b6010805473__$94d7d2f22770e4b0d1a2b99fb2812308e2$__916348cc49d5916118b6906001906137c2565b815481106118d457634e487b7160e01b600052603260045260246000fd5b9060005260206000209060060201836040518363ffffffff1660e01b8152600401611900929190613384565b60006040518083038186803b15801561191857600080fd5b505af4158015610e96573d6000803e3d6000fd5b60135481565b7ff23a6e61000000000000000000000000000000000000000000000000000000005b9695505050505050565b6001600160e01b031981167f01ffc9a70000000000000000000000000000000000000000000000000000000014919050565b60045461199e9060016137a3565b6119a8904261378b565b601455565b60008381526017602052604090205460ff16156119dc5760405162461bcd60e51b815260040161042590612f56565b8115611a00576000838152601760205260409020805460ff19166001179055611a5b565b601054611a0f906001906137c2565b60008481526018602052604090205414611a3b5760405162461bcd60e51b8152600401610425906131ea565b6000838152601860205260408120805491611a5583613c5c565b91905055505b60008381526016602090815260409091208251611a7a92840190611ed9565b508360ff166004811115611a9e57634e487b7160e01b600052602160045260246000fd5b6000848152601960205260409020805460ff19166001836004811115611ad457634e487b7160e01b600052602160045260246000fd5b021790555050505050565b601154601080546040517f5069a07c000000000000000000000000000000000000000000000000000000008152919273__$94d7d2f22770e4b0d1a2b99fb2812308e2$__92635069a07c92611b47926008926001600160a01b03909116913091600401613334565b60006040518083038186803b158015611b5f57600080fd5b505af4158015611b73573d6000803e3d6000fd5b505050506040513d6000823e601f3d908101601f19168201604052611b9b91908101906124af565b81546001808201845560009384526020938490208351600690930201805473ffffffffffffffffffffffffffffffffffffffff19166001600160a01b03909316929092178255828401519082015560408201516002820155606082015160038201556080820151805192939192611c189260048501920190611f5d565b5060a082015160058201805460ff19166001836006811115611c4a57634e487b7160e01b600052602160045260246000fd5b02179055505050565b6108cd60016005018281548110611c7a57634e487b7160e01b600052603260045260246000fd5b906000526020600020906005020160010160029054906101000a900460ff1660016005018381548110611cbd57634e487b7160e01b600052603260045260246000fd5b90600052602060002090600502016002015460016005018481548110611cf357634e487b7160e01b600052603260045260246000fd5b906000526020600020906005020160010160019054906101000a900460ff1673__$94d7d2f22770e4b0d1a2b99fb2812308e2$__63f060d0b660016005018781548110611d5057634e487b7160e01b600052603260045260246000fd5b9060005260206000209060050201306040518363ffffffff1660e01b8152600401611d7c929190613544565b60006040518083038186803b158015611d9457600080fd5b505af4158015611da8573d6000803e3d6000fd5b505050506040513d6000823e601f3d908101601f19168201604052611dd0919081019061243c565b6119ad565b6012546001600160a01b031615801590611e705750601260009054906101000a90046001600160a01b03166001600160a01b031663999925066040518163ffffffff1660e01b815260040160206040518083038186803b158015611e3857600080fd5b505afa158015611e4c573d6000803e3d6000fd5b505050506040513d601f19601f82011682018060405250810190611e7091906123c8565b156107d457601260009054906101000a90046001600160a01b03166001600160a01b0316633a275fa26040518163ffffffff1660e01b8152600401600060405180830381600087803b158015611ec557600080fd5b505af1158015610dea573d6000803e3d6000fd5b828054611ee590613c14565b90600052602060002090601f016020900481019282611f075760008555611f4d565b82601f10611f2057805160ff1916838001178555611f4d565b82800160010185558215611f4d579182015b82811115611f4d578251825591602001919060010190611f32565b50611f59929150611f97565b5090565b828054828255906000526020600020908101928215611f4d5791602002820182811115611f4d578251825591602001919060010190611f32565b5b80821115611f595760008155600101611f98565b8035610400816141ad565b60008083601f840112611fc8578182fd5b50813567ffffffffffffffff811115611fdf578182fd5b6020830191508360208083028501011115611ff957600080fd5b9250929050565b600082601f830112612010578081fd5b8151602061202561202083613688565b61365e565b8281528181019085830183850287018401881015612041578586fd5b855b8581101561205f57815184529284019290840190600101612043565b5090979650505050505050565b8035610400816141c2565b60008083601f840112612088578182fd5b50813567ffffffffffffffff81111561209f578182fd5b602083019150836020828501011115611ff957600080fd5b8051610400816141ad565b80516007811061040057600080fd5b600061010082840312156120e3578081fd5b50919050565b8035610400816141d0565b600060208284031215612105578081fd5b8135612110816141ad565b9392505050565b600060208284031215612128578081fd5b8151612110816141ad565b60008060008060008060008060a0898b03121561214e578384fd5b8835612159816141ad565b97506020890135612169816141ad565b9650604089013567ffffffffffffffff80821115612185578586fd5b6121918c838d01611fb7565b909850965060608b01359150808211156121a9578586fd5b6121b58c838d01611fb7565b909650945060808b01359150808211156121cd578384fd5b506121da8b828c01612077565b999c989b5096995094979396929594505050565b60008060008060008060a08789031215612206578384fd5b8635612211816141ad565b95506020870135612221816141ad565b94506040870135935060608701359250608087013567ffffffffffffffff81111561224a578283fd5b61225689828a01612077565b979a9699509497509295939492505050565b6000806040838503121561227a578182fd5b8251612285816141ad565b6020840151909250612296816141ad565b809150509250929050565b6000806000606084860312156122b5578081fd5b83356122c0816141ad565b925060208401359150604084013567ffffffffffffffff8111156122e2578182fd5b6122ee868287016120d1565b9150509250925092565b6000806020838503121561230a578182fd5b823567ffffffffffffffff811115612320578283fd5b61232c85828601611fb7565b90969095509350505050565b6000602080838503121561234a578182fd5b823567ffffffffffffffff811115612360578283fd5b8301601f81018513612370578283fd5b803561237e61202082613688565b818152838101908385018584028501860189101561239a578687fd5b8694505b838510156123bc57803583526001949094019391850191850161239e565b50979650505050505050565b6000602082840312156123d9578081fd5b8151612110816141c2565b6000602082840312156123f5578081fd5b5035919050565b60006020828403121561240d578081fd5b5051919050565b600060208284031215612425578081fd5b81356001600160e01b031981168114612110578182fd5b60006020828403121561244d578081fd5b815167ffffffffffffffff811115612463578182fd5b8201601f81018413612473578182fd5b8051612481612020826136ac565b818152856020838501011115612495578384fd5b6124a6826020830160208601613be8565b95945050505050565b6000602082840312156124c0578081fd5b815167ffffffffffffffff808211156124d7578283fd5b9083019060c082860312156124ea578283fd5b60405160c08101818110838211171561250557612505613ca3565b604052612511836120b7565b8152602083015160208201526040830151604082015260608301516060820152608083015182811115612542578485fd5b61254e87828601612000565b60808301525061256060a084016120c2565b60a082015295945050505050565b60006020828403121561257f578081fd5b813567ffffffffffffffff811115612595578182fd5b6125a1848285016120d1565b949350505050565b6000806000606084860312156125bd578081fd5b83356125c8816141d0565b925060208401359150604084013567ffffffffffffffff8111156125ea578182fd5b8401601f810186136125fa578182fd5b8035612608612020826136ac565b81815287602083850101111561261c578384fd5b8160208401602083013783602083830101528093505050509250925092565b6001600160a01b03169052565b818352602080840193600091908185020181018584845b8781101561269557828403895261267682886136e0565b6126818682846128cf565b9a87019a955050509084019060010161265f565b5091979650505050505050565b6000815180845260208085018081965082840281019150828601855b858110156126955782840389526126d684835161291c565b988501989350908401906001016126be565b6000815480845260208085018081965082840281019150858552828520855b8581101561269557828403895261271e8483612956565b98850198935060019182019101612707565b818352602080840193600091908185020181018584845b87811015612695578284038952813560be19883603018112612767578687fd5b870160c08135612776816141c2565b1515865281870135612787816141c2565b151586880152604061279a838201611fac565b6127a68289018261263b565b5050606082810135908701526080808301359087015260a06127ca81840184613728565b935082828901526127de838901858361298e565b9c89019c97505050928601925050600101612747565b818352602080840193600091908185020181018584845b87811015612695578284038952813560de1988360301811261282b578687fd5b87018035855260e086820135612840816141c2565b61284c88880182612988565b50604061285a81840161206c565b61286682890182612988565b505060606128758184016120e9565b61288182890182612c2a565b50506080828101359087015260a0808301359087015260c06128a581840184613728565b935082828901526128b9838901858361298e565b9c89019c9750505092860192505060010161280b565b60008284527f07ffffffffffffffffffffffffffffffffffffffffffffffffffffffffffffff831115612900578081fd5b6020830280836020870137939093016020019283525090919050565b6000815180845260208085019450808401835b8381101561294b5781518752958201959082019060010161292f565b509495945050505050565b6000815480845260208085019450838352808320835b8381101561294b5781548752958201956001918201910161296c565b15159052565b60008284528282602086013780602084860101526020601f19601f85011685010190509392505050565b600081518084526129d0816020860160208601613be8565b601f01601f19169290920160200192915050565b600081546129f181613c14565b808552602060018381168015612a0e5760018114612a2257612a50565b60ff19851688840152604088019550612a50565b866000528260002060005b85811015612a485781548a8201860152908301908401612a2d565b890184019650505b505050505092915050565b60078110612a7957634e487b7160e01b600052602160045260246000fd5b9052565b6000610100612a9484612a8f85611fac565b61263b565b602083013560208501526040830135604085015260608301356060850152612abf60808401846136e0565b826080870152612ad283870182846128cf565b92505050612ae360a08401846136e0565b85830360a0870152612af6838284612648565b92505050612b0760c08401846136e0565b85830360c0870152612b1a838284612648565b92505050612b2b60e0840184613728565b85830360e087015261195483828461298e565b6000610100612b5184612a8f85546137d9565b600183015460208501526002830154604085015260038301546060850152806080850152612b8481850160048501612956565b905083810360a0850152612b9b81600585016126e8565b905083810360c0850152612bb281600685016126e8565b905083810360e08501526125a181600785016129e4565b60006001600160a01b03825416835260018201546020840152600282015460408401526003820154606084015260c06080840152612c0d60c0840160048401612956565b60ff600584015416612c2260a0860182612a5b565b509392505050565b60ff169052565b6001600160a01b0391909116815260200190565b60006001600160a01b038516825260606020830152612c676060830185612b3e565b82810360408401526119548185612bc9565b918252602082015260400190565b60208082528251828201819052600091906040908185019080840286018301878501865b83811015612d2b57603f19898403018552815160c06001600160a01b0382511685528882015189860152878201518886015260608083015181870152506080808301518282880152612cff8388018261291c565b9250505060a0808301519250612d1781870184612a5b565b509588019593505090860190600101612cab565b509098975050505050505050565b60006040808301818452808654808352606092508286019150602083818302880101898752818720875b84811015612df257605f198a840301865260e082548452600183015460ff612d8f878701828416612988565b612da08b8701828460081c16612988565b612db18a8701828460101c16612c2a565b505060028301546080850152600383015460a08501528060c0850152612ddc818501600485016129e4565b9685019693505060059190910190600101612d63565b5050960196909652509295945050505050565b901515815260200190565b90815260200190565b6001600160e01b031991909116815260200190565b60006020825261211060208301846129b8565b600060a0820190506001600160a01b03871682528560208301528460408301528360608301526119546080830184612a5b565b60006001600160a01b038089168352808816602084015280871660408401525084606083015260c06080830152612eae60c08301856129b8565b82810360a0840152610100612ec482865161263b565b6020850151602083015260408501516040830152606085015160608301526080850151816080840152612ef98284018261291c565b91505060a085015182820360a0840152612f1382826126a2565b91505060c085015182820360c0840152612f2d82826126a2565b91505060e085015182820360e0840152612f4782826129b8565b9b9a5050505050505050505050565b6020808252600b908201527f506f7274206c6f636b6564000000000000000000000000000000000000000000604082015260600190565b6020808252600a908201527f4f6e6c794b656570657200000000000000000000000000000000000000000000604082015260600190565b60208082526010908201527f536f6c76657220686173206368696c6400000000000000000000000000000000604082015260600190565b6020808252600c908201527f4f6e6c7920666163746f72790000000000000000000000000000000000000000604082015260600190565b6020808252600b908201527f4f6e6c79204b6565706572000000000000000000000000000000000000000000604082015260600190565b60208082526015908201527f54696d656c6f636b207374696c6c206c6f636b65640000000000000000000000604082015260600190565b6020808252600f908201527f696e676573747320696e76616c69640000000000000000000000000000000000604082015260600190565b60208082526018908201527f4e6f74204172626974726174696f6e5265717565737465640000000000000000604082015260600190565b6020808252600f908201527f4f6e6c792061726269747261746f720000000000000000000000000000000000604082015260600190565b6020808252600e908201527f4b656570657220696e76616c6964000000000000000000000000000000000000604082015260600190565b60208082526014908201527f4f7574636f6d65206e6f742070726f706f736564000000000000000000000000604082015260600190565b60208082526013908201527f4e6f74204f7574636f6d6550726f706f73656400000000000000000000000000604082015260600190565b60208082526014908201527f506f72742076657273696f6e20696e76616c6964000000000000000000000000604082015260600190565b60208082526016908201527f4e6f74204172626974726174696f6e50656e64696e6700000000000000000000604082015260600190565b60208082526012908201527f436f6e646974696f6e2045786563757465640000000000000000000000000000604082015260600190565b6020808252600e908201527f547261636b696e67496420736574000000000000000000000000000000000000604082015260600190565b6020808252600d908201527f506f727420696e76616c69642e00000000000000000000000000000000000000604082015260600190565b6020808252600d908201527f6e6f7420496e6974696174656400000000000000000000000000000000000000604082015260600190565b6000608082526133476080830187612b3e565b6001600160a01b0395861660208401529390941660408201526060015292915050565b6000848252604060208301526124a66040830184866128cf565b60006040820184835260206040818501528185518084526060860191508287019350845b8181101561205f578451835293830193918301916001016133a8565b600060a082526133d760a0830188612bc9565b82810360208401526133e98188612b3e565b6001600160a01b039690961660408401525050606081019290925260809091015292915050565b6000604082526134236040830185612bc9565b90508260208301529392505050565b60006060825261344860608301612a8f87611fac565b61345460208601611fac565b613461608084018261263b565b5061346e60408601611fac565b61347b60a084018261263b565b50606085013560c08301526134936080860186613728565b6101008060e08601526134ab6101608601838561298e565b92506134ba60a08901896136e0565b9250605f198087860301838801526134d38585846127f4565b94506134e260c08b018b6136e0565b9450925080878603016101208801526134fc858585612730565b945061350b60e08b018b61376d565b935080878603016101408801525050506135258282612a7d565b92505050613536602083018561263b565b826040830152949350505050565b9182526001600160a01b0316602082015260400190565b9485526001600160a01b03938416602086015291831660408501529091166060830152608082015260a00190565b6000808335601e1984360301811261359f578283fd5b83018035915067ffffffffffffffff8211156135b9578283fd5b6020908101925081023603821315611ff957600080fd5b6000808335601e198436030181126135e6578283fd5b83018035915067ffffffffffffffff821115613600578283fd5b602001915036819003821315611ff957600080fd5b6000823560be1983360301811261362a578182fd5b9190910192915050565b6000823560fe1983360301811261362a578182fd5b6000823560de1983360301811261362a578182fd5b60405181810167ffffffffffffffff8111828210171561368057613680613ca3565b604052919050565b600067ffffffffffffffff8211156136a2576136a2613ca3565b5060209081020190565b600067ffffffffffffffff8211156136c6576136c6613ca3565b50601f01601f191660200190565b60009081526020902090565b6000808335601e198436030181126136f6578283fd5b830160208101925035905067ffffffffffffffff81111561371657600080fd5b602081023603831315611ff957600080fd5b6000808335601e1984360301811261373e578283fd5b830160208101925035905067ffffffffffffffff81111561375e57600080fd5b803603831315611ff957600080fd5b6000823560fe19833603018112613782578182fd5b90910192915050565b6000821982111561379e5761379e613c8d565b500190565b60008160001904831182151516156137bd576137bd613c8d565b500290565b6000828210156137d4576137d4613c8d565b500390565b6001600160a01b031690565b5b8181101561058f57600081556001016137e6565b6801000000000000000083111561381357613813613ca3565b805483825580841015613851576000828152602081208581019083015b8082101561384d576138428383613ccc565b600182019150613830565b5050505b508161385c826136d4565b6000805b86811015613893576138728487613589565b61387e8183868861401b565b50506020939093019260019283019201613860565b50505050505050565b680100000000000000008311156138b5576138b5613ca3565b805483825580841015613964577f3fffffffffffffffffffffffffffffffffffffffffffffffffffffffffffffff60018183118116156138f7576138f7613c8d565b600482871182161561390b5761390b613c8d565b600085815260208120909350878202810190828602015b8082101561395e5784825561393a858686850161418e565b61394885866002850161418e565b6139558560038401613d09565b90820190613922565b50505050505b508161396f826136d4565b6000805b868110156138935761398f6139888588613615565b8385614034565b6020939093019260049290920191600101613973565b680100000000000000008311156139be576139be613ca3565b805483825580841015613a7b577f33333333333333333333333333333333333333333333333333333333333333336001818311811615613a0057613a00613c8d565b6005828711821615613a1457613a14613c8d565b600085815260208120909350878202810190828602015b80821015613a7557613a3e85868461418e565b8484830155613a5185866002850161418e565b613a5f85866003850161418e565b613a6c8560048401613d09565b90820190613a2b565b50505050505b5081613a86826136d4565b6000805b8681101561389357613aa6613a9f8588613649565b83856140f3565b6020939093019260059290920191600101613a8a565b613ac68382613ccc565b818160005260208060002060005b8681101561389357833582559282019260019182019101613ad4565b67ffffffffffffffff831115613b0857613b08613ca3565b613b128154613c14565b600080601f8611601f841181811715613b3157613b2e866136d4565b92505b8015613b60576020601f89010483016020891015613b4c5750825b613b5e6020601f8801048501826137e5565b505b508060018114613b8c57600094508715613b7b578387013594505b613b858886613c49565b8655613bde565b601f198816945082845b86811015613bb65788860135825560209586019560019092019101613b96565b5088861015613bd357878501356000196008601f8c16021c191681555b506001600289020186555b5050505050505050565b60005b83811015613c03578181015183820152602001613beb565b83811115610dea5750506000910152565b600281046001821680613c2857607f821691505b602082108114156120e357634e487b7160e01b600052602260045260246000fd5b600019600883021c191660029091021790565b6000600019821415613c7057613c70613c8d565b5060010190565b634e487b7160e01b600052600060045260246000fd5b634e487b7160e01b600052601160045260246000fd5b634e487b7160e01b600052604160045260246000fd5b60008135613cc6816141ad565b92915050565b68010000000000000000821115613ce557613ce5613ca3565b80548282558083101561085b57816000526020600020610dea8282018583016137e5565b8115613d1757613d17613c77565b613d218154613c14565b801561085b57601f811160018114613d3c5760008355610dea565b600083815260208120613d5a6020601f8601048201600183016137e5565b50838152602081208185555550505050565b6001600160a01b03821673ffffffffffffffffffffffffffffffffffffffff198254161781555050565b60ff1981541660ff8315151681178255505050565b8135613db6816141ad565b613dc08183613d6c565b506001602080840135828401556040840135600284015560608401356003840155613dee6080850185613589565b613dfc818360048801613abc565b5050613e0b60a0850185613589565b613e198183600588016137fa565b5050613e2860c0850185613589565b613e368183600688016137fa565b505060078301613e4960e08601866135d0565b67ffffffffffffffff811115613e6157613e61613ca3565b613e6b8354613c14565b600080601f8411601f841181811715613e8a57613e87886136d4565b92505b8015613eb65788601f870104830189871015613ea35750825b613eb48a601f8801048501826137e5565b505b508060018114613ee257600094508515613ed1578387013594505b613edb8686613c49565b8855613f30565b601f198616945082845b86811015613f0957888601358255948a0194908b01908a01613eec565b5086861015613f2657878501356000196008601f8a16021c191681555b5089600287020188555b505050505050505050505050565b8135613f49816141ad565b613f538183613d6c565b506020820135613f62816141ad565b613f6f8160018401613d6c565b50613f88613f7f60408401613cb9565b60028301613d6c565b60608201356003820155613f9f60808301836135d0565b613fad818360048601613af0565b5050613fbc60a0830183613589565b613fca8183600586016139a5565b5050613fd960c0830183613589565b613fe781836006860161389c565b505061058f613ff960e0840184613634565b60078301613dab565b805461ff00191691151560081b61ff0016919091179055565b811561402957614029613c77565b610dea848483613abc565b811561404257614042613c77565b823561404d816141c2565b6140578183613d96565b506020830135614066816141c2565b6140708183614002565b50604083013561407f816141ad565b81547fffffffffffffffffffff0000000000000000000000000000000000000000ffff1660109190911b75ffffffffffffffffffffffffffffffffffffffff00001617815560608301356001820155608083013560028201556140e560a08401846135d0565b610e96818360038601613af0565b811561410157614101613c77565b82358155600181016020840135614117816141c2565b6141218183613d96565b506040840135614130816141c2565b61413a8183614002565b506060840135614149816141d0565b815462ff0000191660109190911b62ff0000161790556080830135600282015560a0830135600382015561418060c08401846135d0565b610e96818360048601613af0565b805460088302600019811b8086831b1681198416178455505050505050565b6001600160a01b03811681146108cd57600080fd5b80151581146108cd57600080fd5b60ff811681146108cd57600080fdfea26469706673582212202ea84c42865f82ecd4271a9a2e4b41996223db16942c4a98aa6e24db36fef2a064736f6c63430008000033",
  "linkReferences": {
    "contracts/SolverLib.sol": {
      "SolverLib": [
        {
          "length": 20,
          "start": 1285
        },
        {
          "length": 20,
          "start": 1870
        },
        {
          "length": 20,
          "start": 2340
        },
        {
          "length": 20,
          "start": 2770
        },
        {
          "length": 20,
          "start": 2950
        },
        {
          "length": 20,
          "start": 3163
        },
        {
          "length": 20,
          "start": 3440
        },
        {
          "length": 20,
          "start": 3966
        },
        {
          "length": 20,
          "start": 4091
        },
        {
          "length": 20,
          "start": 5371
        },
        {
          "length": 20,
          "start": 5847
        },
        {
          "length": 20,
          "start": 5931
        },
        {
          "length": 20,
          "start": 6320
        },
        {
          "length": 20,
          "start": 6960
        },
        {
          "length": 20,
          "start": 7476
        }
      ]
    }
  },
  "deployedLinkReferences": {
    "contracts/SolverLib.sol": {
      "SolverLib": [
        {
          "length": 20,
          "start": 1253
        },
        {
          "length": 20,
          "start": 1838
        },
        {
          "length": 20,
          "start": 2308
        },
        {
          "length": 20,
          "start": 2738
        },
        {
          "length": 20,
          "start": 2918
        },
        {
          "length": 20,
          "start": 3131
        },
        {
          "length": 20,
          "start": 3408
        },
        {
          "length": 20,
          "start": 3934
        },
        {
          "length": 20,
          "start": 4059
        },
        {
          "length": 20,
          "start": 5339
        },
        {
          "length": 20,
          "start": 5815
        },
        {
          "length": 20,
          "start": 5899
        },
        {
          "length": 20,
          "start": 6288
        },
        {
          "length": 20,
          "start": 6928
        },
        {
          "length": 20,
          "start": 7444
        }
      ]
    }
  }
}