{
  "_format": "hh-sol-artifact-1",
  "contractName": "Solver",
  "sourceName": "contracts/Solver.sol",
  "abi": [
    {
      "inputs": [
        {
          "internalType": "uint8",
          "name": "_type",
          "type": "uint8"
        },
        {
          "internalType": "uint256",
          "name": "_key",
          "type": "uint256"
        },
        {
          "internalType": "bytes",
          "name": "_data",
          "type": "bytes"
        }
      ],
      "name": "addData",
      "outputs": [],
      "stateMutability": "nonpayable",
      "type": "function"
    },
    {
      "inputs": [
        {
          "internalType": "uint256",
          "name": "_index",
          "type": "uint256"
        }
      ],
      "name": "addressFromChainIndex",
      "outputs": [
        {
          "internalType": "address",
          "name": "_address",
          "type": "address"
        }
      ],
      "stateMutability": "view",
      "type": "function"
    },
    {
      "inputs": [
        {
          "internalType": "uint256[]",
          "name": "payouts",
          "type": "uint256[]"
        }
      ],
      "name": "arbitrate",
      "outputs": [],
      "stateMutability": "nonpayable",
      "type": "function"
    },
    {
      "inputs": [],
      "name": "arbitrateNull",
      "outputs": [],
      "stateMutability": "nonpayable",
      "type": "function"
    },
    {
      "inputs": [],
      "name": "arbitrationPending",
      "outputs": [],
      "stateMutability": "nonpayable",
      "type": "function"
    },
    {
      "inputs": [],
      "name": "arbitrationRequested",
      "outputs": [],
      "stateMutability": "nonpayable",
      "type": "function"
    },
    {
      "inputs": [],
      "name": "chainChild",
      "outputs": [
        {
          "internalType": "address",
          "name": "",
          "type": "address"
        }
      ],
      "stateMutability": "view",
      "type": "function"
    },
    {
      "inputs": [],
      "name": "chainIndex",
      "outputs": [
        {
          "internalType": "uint256",
          "name": "",
          "type": "uint256"
        }
      ],
      "stateMutability": "view",
      "type": "function"
    },
    {
      "inputs": [],
      "name": "chainParent",
      "outputs": [
        {
          "internalType": "address",
          "name": "",
          "type": "address"
        }
      ],
      "stateMutability": "view",
      "type": "function"
    },
    {
      "inputs": [],
      "name": "collateralToken",
      "outputs": [
        {
          "internalType": "contract IERC20",
          "name": "",
          "type": "address"
        }
      ],
      "stateMutability": "view",
      "type": "function"
    },
    {
      "inputs": [
        {
          "internalType": "uint256",
          "name": "",
          "type": "uint256"
        }
      ],
      "name": "conditions",
      "outputs": [
        {
          "internalType": "contract IERC20",
          "name": "collateralToken",
          "type": "address"
        },
        {
          "internalType": "bytes32",
          "name": "questionId",
          "type": "bytes32"
        },
        {
          "internalType": "bytes32",
          "name": "parentCollectionId",
          "type": "bytes32"
        },
        {
          "internalType": "bytes32",
          "name": "conditionId",
          "type": "bytes32"
        },
        {
          "internalType": "enum SolverLib.Status",
          "name": "status",
          "type": "uint8"
        }
      ],
      "stateMutability": "view",
      "type": "function"
    },
    {
      "inputs": [],
      "name": "config",
      "outputs": [
        {
          "internalType": "contract Solver",
          "name": "implementation",
          "type": "address"
        },
        {
          "internalType": "address",
          "name": "keeper",
          "type": "address"
        },
        {
          "internalType": "address",
          "name": "arbitrator",
          "type": "address"
        },
        {
          "internalType": "uint256",
          "name": "timelockSeconds",
          "type": "uint256"
        },
        {
          "internalType": "bytes",
          "name": "data",
          "type": "bytes"
        },
        {
          "components": [
            {
              "internalType": "uint256",
              "name": "outcomeSlots",
              "type": "uint256"
            },
            {
              "internalType": "uint256",
              "name": "parentCollectionPartitionIndex",
              "type": "uint256"
            },
            {
              "internalType": "uint256",
              "name": "amount",
              "type": "uint256"
            },
            {
              "internalType": "uint256[]",
              "name": "partition",
              "type": "uint256[]"
            },
            {
              "internalType": "uint256[][]",
              "name": "recipientAddressPorts",
              "type": "uint256[][]"
            },
            {
              "internalType": "uint256[][]",
              "name": "recipientAmounts",
              "type": "uint256[][]"
            },
            {
              "internalType": "string",
              "name": "metadata",
              "type": "string"
            }
          ],
          "internalType": "struct SolverLib.ConditionBase",
          "name": "conditionBase",
          "type": "tuple"
        }
      ],
      "stateMutability": "view",
      "type": "function"
    },
    {
      "inputs": [],
      "name": "confirmPayouts",
      "outputs": [],
      "stateMutability": "nonpayable",
      "type": "function"
    },
    {
      "inputs": [
        {
          "components": [
            {
              "internalType": "contract Solver",
              "name": "implementation",
              "type": "address"
            },
            {
              "internalType": "address",
              "name": "keeper",
              "type": "address"
            },
            {
              "internalType": "address",
              "name": "arbitrator",
              "type": "address"
            },
            {
              "internalType": "uint256",
              "name": "timelockSeconds",
              "type": "uint256"
            },
            {
              "internalType": "bytes",
              "name": "data",
              "type": "bytes"
            },
            {
              "components": [
                {
                  "internalType": "uint256",
                  "name": "executions",
                  "type": "uint256"
                },
                {
                  "internalType": "bool",
                  "name": "isDeferred",
                  "type": "bool"
                },
                {
                  "internalType": "bool",
                  "name": "isConstant",
                  "type": "bool"
                },
                {
                  "internalType": "uint8",
                  "name": "port",
                  "type": "uint8"
                },
                {
                  "internalType": "uint256",
                  "name": "key",
                  "type": "uint256"
                },
                {
                  "internalType": "uint256",
                  "name": "solverIndex",
                  "type": "uint256"
                },
                {
                  "internalType": "bytes",
                  "name": "data",
                  "type": "bytes"
                }
              ],
              "internalType": "struct SolverLib.Ingest[]",
              "name": "ingests",
              "type": "tuple[]"
            },
            {
              "components": [
                {
                  "internalType": "bool",
                  "name": "executed",
                  "type": "bool"
                },
                {
                  "internalType": "bool",
                  "name": "isPort",
                  "type": "bool"
                },
                {
                  "internalType": "address",
                  "name": "to",
                  "type": "address"
                },
                {
                  "internalType": "uint256",
                  "name": "portIndex",
                  "type": "uint256"
                },
                {
                  "internalType": "uint256",
                  "name": "value",
                  "type": "uint256"
                },
                {
                  "internalType": "bytes",
                  "name": "data",
                  "type": "bytes"
                }
              ],
              "internalType": "struct SolverLib.Action[]",
              "name": "actions",
              "type": "tuple[]"
            },
            {
              "components": [
                {
                  "internalType": "uint256",
                  "name": "outcomeSlots",
                  "type": "uint256"
                },
                {
                  "internalType": "uint256",
                  "name": "parentCollectionPartitionIndex",
                  "type": "uint256"
                },
                {
                  "internalType": "uint256",
                  "name": "amount",
                  "type": "uint256"
                },
                {
                  "internalType": "uint256[]",
                  "name": "partition",
                  "type": "uint256[]"
                },
                {
                  "internalType": "uint256[][]",
                  "name": "recipientAddressPorts",
                  "type": "uint256[][]"
                },
                {
                  "internalType": "uint256[][]",
                  "name": "recipientAmounts",
                  "type": "uint256[][]"
                },
                {
                  "internalType": "string",
                  "name": "metadata",
                  "type": "string"
                }
              ],
              "internalType": "struct SolverLib.ConditionBase",
              "name": "conditionBase",
              "type": "tuple"
            }
          ],
          "internalType": "struct SolverLib.Config",
          "name": "_config",
          "type": "tuple"
        }
      ],
      "name": "deployChild",
      "outputs": [
        {
          "internalType": "contract Solver",
          "name": "_solver",
          "type": "address"
        }
      ],
      "stateMutability": "nonpayable",
      "type": "function"
    },
    {
      "inputs": [],
      "name": "executeSolve",
      "outputs": [],
      "stateMutability": "nonpayable",
      "type": "function"
    },
    {
      "inputs": [
        {
          "internalType": "uint256",
          "name": "_partitionIndex",
          "type": "uint256"
        }
      ],
      "name": "getCanonCollectionId",
      "outputs": [
        {
          "internalType": "bytes32",
          "name": "collectionId",
          "type": "bytes32"
        }
      ],
      "stateMutability": "view",
      "type": "function"
    },
    {
      "inputs": [],
      "name": "getConditions",
      "outputs": [
        {
          "components": [
            {
              "internalType": "contract IERC20",
              "name": "collateralToken",
              "type": "address"
            },
            {
              "internalType": "bytes32",
              "name": "questionId",
              "type": "bytes32"
            },
            {
              "internalType": "bytes32",
              "name": "parentCollectionId",
              "type": "bytes32"
            },
            {
              "internalType": "bytes32",
              "name": "conditionId",
              "type": "bytes32"
            },
            {
              "internalType": "uint256[]",
              "name": "payouts",
              "type": "uint256[]"
            },
            {
              "internalType": "enum SolverLib.Status",
              "name": "status",
              "type": "uint8"
            }
          ],
          "internalType": "struct SolverLib.Condition[]",
          "name": "",
          "type": "tuple[]"
        }
      ],
      "stateMutability": "view",
      "type": "function"
    },
    {
      "inputs": [
        {
          "internalType": "uint256",
          "name": "_key",
          "type": "uint256"
        }
      ],
      "name": "getOutput",
      "outputs": [
        {
          "internalType": "bytes",
          "name": "data",
          "type": "bytes"
        }
      ],
      "stateMutability": "view",
      "type": "function"
    },
    {
      "inputs": [
        {
          "internalType": "uint256",
          "name": "_index",
          "type": "uint256"
        }
      ],
      "name": "ingest",
      "outputs": [],
      "stateMutability": "nonpayable",
      "type": "function"
    },
    {
      "inputs": [],
      "name": "ingestsValid",
      "outputs": [
        {
          "internalType": "bool",
          "name": "",
          "type": "bool"
        }
      ],
      "stateMutability": "view",
      "type": "function"
    },
    {
      "inputs": [
        {
          "internalType": "contract IERC20",
          "name": "_collateralToken",
          "type": "address"
        },
        {
          "internalType": "address",
          "name": "_chainParent",
          "type": "address"
        },
        {
          "internalType": "uint256",
          "name": "_chainIndex",
          "type": "uint256"
        },
        {
          "components": [
            {
              "internalType": "contract Solver",
              "name": "implementation",
              "type": "address"
            },
            {
              "internalType": "address",
              "name": "keeper",
              "type": "address"
            },
            {
              "internalType": "address",
              "name": "arbitrator",
              "type": "address"
            },
            {
              "internalType": "uint256",
              "name": "timelockSeconds",
              "type": "uint256"
            },
            {
              "internalType": "bytes",
              "name": "data",
              "type": "bytes"
            },
            {
              "components": [
                {
                  "internalType": "uint256",
                  "name": "executions",
                  "type": "uint256"
                },
                {
                  "internalType": "bool",
                  "name": "isDeferred",
                  "type": "bool"
                },
                {
                  "internalType": "bool",
                  "name": "isConstant",
                  "type": "bool"
                },
                {
                  "internalType": "uint8",
                  "name": "port",
                  "type": "uint8"
                },
                {
                  "internalType": "uint256",
                  "name": "key",
                  "type": "uint256"
                },
                {
                  "internalType": "uint256",
                  "name": "solverIndex",
                  "type": "uint256"
                },
                {
                  "internalType": "bytes",
                  "name": "data",
                  "type": "bytes"
                }
              ],
              "internalType": "struct SolverLib.Ingest[]",
              "name": "ingests",
              "type": "tuple[]"
            },
            {
              "components": [
                {
                  "internalType": "bool",
                  "name": "executed",
                  "type": "bool"
                },
                {
                  "internalType": "bool",
                  "name": "isPort",
                  "type": "bool"
                },
                {
                  "internalType": "address",
                  "name": "to",
                  "type": "address"
                },
                {
                  "internalType": "uint256",
                  "name": "portIndex",
                  "type": "uint256"
                },
                {
                  "internalType": "uint256",
                  "name": "value",
                  "type": "uint256"
                },
                {
                  "internalType": "bytes",
                  "name": "data",
                  "type": "bytes"
                }
              ],
              "internalType": "struct SolverLib.Action[]",
              "name": "actions",
              "type": "tuple[]"
            },
            {
              "components": [
                {
                  "internalType": "uint256",
                  "name": "outcomeSlots",
                  "type": "uint256"
                },
                {
                  "internalType": "uint256",
                  "name": "parentCollectionPartitionIndex",
                  "type": "uint256"
                },
                {
                  "internalType": "uint256",
                  "name": "amount",
                  "type": "uint256"
                },
                {
                  "internalType": "uint256[]",
                  "name": "partition",
                  "type": "uint256[]"
                },
                {
                  "internalType": "uint256[][]",
                  "name": "recipientAddressPorts",
                  "type": "uint256[][]"
                },
                {
                  "internalType": "uint256[][]",
                  "name": "recipientAmounts",
                  "type": "uint256[][]"
                },
                {
                  "internalType": "string",
                  "name": "metadata",
                  "type": "string"
                }
              ],
              "internalType": "struct SolverLib.ConditionBase",
              "name": "conditionBase",
              "type": "tuple"
            }
          ],
          "internalType": "struct SolverLib.Config",
          "name": "_solverConfig",
          "type": "tuple"
        }
      ],
      "name": "init",
      "outputs": [],
      "stateMutability": "nonpayable",
      "type": "function"
    },
    {
      "inputs": [
        {
          "internalType": "address",
          "name": "operator",
          "type": "address"
        },
        {
          "internalType": "address",
          "name": "from",
          "type": "address"
        },
        {
          "internalType": "uint256[]",
          "name": "ids",
          "type": "uint256[]"
        },
        {
          "internalType": "uint256[]",
          "name": "values",
          "type": "uint256[]"
        },
        {
          "internalType": "bytes",
          "name": "data",
          "type": "bytes"
        }
      ],
      "name": "onERC1155BatchReceived",
      "outputs": [
        {
          "internalType": "bytes4",
          "name": "",
          "type": "bytes4"
        }
      ],
      "stateMutability": "nonpayable",
      "type": "function"
    },
    {
      "inputs": [
        {
          "internalType": "address",
          "name": "operator",
          "type": "address"
        },
        {
          "internalType": "address",
          "name": "from",
          "type": "address"
        },
        {
          "internalType": "uint256",
          "name": "id",
          "type": "uint256"
        },
        {
          "internalType": "uint256",
          "name": "value",
          "type": "uint256"
        },
        {
          "internalType": "bytes",
          "name": "data",
          "type": "bytes"
        }
      ],
      "name": "onERC1155Received",
      "outputs": [
        {
          "internalType": "bytes4",
          "name": "",
          "type": "bytes4"
        }
      ],
      "stateMutability": "nonpayable",
      "type": "function"
    },
    {
      "inputs": [],
      "name": "prepareSolve",
      "outputs": [],
      "stateMutability": "nonpayable",
      "type": "function"
    },
    {
      "inputs": [
        {
          "internalType": "uint256[]",
          "name": "_payouts",
          "type": "uint256[]"
        }
      ],
      "name": "proposePayouts",
      "outputs": [],
      "stateMutability": "nonpayable",
      "type": "function"
    },
    {
      "inputs": [
        {
          "internalType": "bytes32",
          "name": "_trackingId",
          "type": "bytes32"
        }
      ],
      "name": "setTrackingId",
      "outputs": [],
      "stateMutability": "nonpayable",
      "type": "function"
    },
    {
      "inputs": [
        {
          "internalType": "bytes4",
          "name": "interfaceId",
          "type": "bytes4"
        }
      ],
      "name": "supportsInterface",
      "outputs": [
        {
          "internalType": "bool",
          "name": "",
          "type": "bool"
        }
      ],
      "stateMutability": "view",
      "type": "function"
    },
    {
      "inputs": [],
      "name": "timelock",
      "outputs": [
        {
          "internalType": "uint256",
          "name": "",
          "type": "uint256"
        }
      ],
      "stateMutability": "view",
      "type": "function"
    },
    {
      "inputs": [],
      "name": "trackingId",
      "outputs": [
        {
          "internalType": "bytes32",
          "name": "",
          "type": "bytes32"
        }
      ],
      "stateMutability": "view",
      "type": "function"
    }
  ],
  "bytecode": "0x608060405234801561001057600080fd5b50614200806100206000396000f3fe608060405234801561001057600080fd5b50600436106101cf5760003560e01c806379502c5511610104578063b2016bd4116100a2578063e7fd205911610071578063e7fd205914610391578063ea8221a9146103a4578063f23a6e61146103ac578063ff1ed30c146103bf576101cf565b8063b2016bd41461034e578063ba9bfe6214610356578063bc197c8114610369578063d33219b414610389576101cf565b806384dbd391116100de57806384dbd39114610318578063972a688b1461032b57806399992506146103335780639f1cf2681461033b576101cf565b806379502c55146102e15780637c123627146102fb57806380c2dde214610310576101cf565b80632c17b91e1161017157806348cbb2fc1161014b57806348cbb2fc146102b457806348d6bc00146102c957806355dd978b146102d15780635bd11123146102d9576101cf565b80632c17b91e146102845780633837b05e1461028c5780633a275fa2146102ac576101cf565b806317861f87116101ad57806317861f871461022557806318f792781461024557806326c500071461024d5780632b36342714610271576101cf565b806301ffc9a7146101d45780630d06101a146101fd5780630d49722d14610212575b600080fd5b6101e76101e23660046123f0565b6103d2565b6040516101f49190612e28565b60405180910390f35b61021061020b3660046123c0565b610418565b005b6102106102203660046122d4565b610446565b6102386102333660046123c0565b6105a6565b6040516101f49190612e51565b61021061068f565b61026061025b3660046123c0565b6107e9565b6040516101f4959493929190612e64565b61021061027f3660046125ef565b610837565b610210610873565b61029f61029a3660046123c0565b6108e3565b6040516101f49190612c3e565b6102106109a0565b6102bc610cdd565b6040516101f49190612e33565b610210610ce3565b61029f610e2c565b610210610e3b565b6102e9610f13565b6040516101f496959493929190612e97565b610303611210565b6040516101f49190612caa565b61029f61133f565b6102bc6103263660046123c0565b61134e565b610210611449565b6101e7611521565b61029f6103493660046125b4565b6115ce565b61029f6116df565b6102106103643660046123c0565b6116ee565b61037c610377366004612166565b611875565b6040516101f49190612e3c565b6102bc6118a2565b61021061039f366004612314565b6118a8565b6102bc611a1e565b61037c6103ba366004612221565b611a24565b6102106103cd36600461248b565b611a50565b60006001600160e01b031982167f4e2312e0000000000000000000000000000000000000000000000000000000001480610410575061041082611b13565b90505b919050565b601554156104415760405162461bcd60e51b81526004016104389061329f565b60405180910390fd5b601555565b6002546001600160a01b031633146104705760405162461bcd60e51b815260040161043890613042565b6001600f8054610482906001906137d5565b815481106104a057634e487b7160e01b600052603260045260246000fd5b600091825260209091206006918202016005015460ff16908111156104d557634e487b7160e01b600052602160045260246000fd5b146104f25760405162461bcd60e51b815260040161043890613268565b600f805473__$94d7d2f22770e4b0d1a2b99fb2812308e2$__91636a0a24f19161051e906001906137d5565b8154811061053c57634e487b7160e01b600052603260045260246000fd5b906000526020600020906006020184846040518463ffffffff1660e01b815260040161056a9392919061337a565b60006040518083038186803b15801561058257600080fd5b505af4158015610596573d6000803e3d6000fd5b505050506105a2611b45565b5050565b60008181526017602052604090205460609060ff16806105d55750600f54600083815260186020526040902054145b6105f15760405162461bcd60e51b8152600401610438906132d6565b6000828152601660205260409020805461060a90613c1b565b80601f016020809104026020016040519081016040528092919081815260200182805461063690613c1b565b80156106835780601f1061065857610100808354040283529160200191610683565b820191906000526020600020905b81548152906001019060200180831161066657829003601f168201915b50505050509050919050565b6003546001600160a01b031633146106b95760405162461bcd60e51b81526004016104389061311e565b6002600f80546106cb906001906137d5565b815481106106e957634e487b7160e01b600052603260045260246000fd5b600091825260209091206006918202016005015460ff169081111561071e57634e487b7160e01b600052602160045260246000fd5b1461073b5760405162461bcd60e51b8152600401610438906131c3565b600f805473__$94d7d2f22770e4b0d1a2b99fb2812308e2$__916324b2860291610767906001906137d5565b8154811061078557634e487b7160e01b600052603260045260246000fd5b90600052602060002090600602016040518263ffffffff1660e01b81526004016107af9190612e33565b60006040518083038186803b1580156107c757600080fd5b505af41580156107db573d6000803e3d6000fd5b505050506107e7611b45565b565b600f81815481106107f957600080fd5b6000918252602090912060069091020180546001820154600283015460038401546005909401546001600160a01b0390931694509092909160ff1685565b6002546001600160a01b031633146108615760405162461bcd60e51b815260040161043890612f9d565b61086e8383600084611b62565b505050565b61087b611c94565b60005b6006548110156108e05760068054829081106108aa57634e487b7160e01b600052603260045260246000fd5b600091825260209091206001600590920201015460ff166108ce576108ce816116ee565b806108d881613c63565b91505061087e565b50565b6011546012546013546040517f9fa61fa300000000000000000000000000000000000000000000000000000000815260009373__$94d7d2f22770e4b0d1a2b99fb2812308e2$__93639fa61fa39361095093889330936001600160a01b0391821693911691600401613583565b60206040518083038186803b15801561096857600080fd5b505af415801561097c573d6000803e3d6000fd5b505050506040513d601f19601f82011682018060405250810190610410919061214a565b6000600f80546109b2906001906137d5565b815481106109d057634e487b7160e01b600052603260045260246000fd5b600091825260209091206006918202016005015460ff1690811115610a0557634e487b7160e01b600052602160045260246000fd5b14610a225760405162461bcd60e51b81526004016104389061330d565b610a2a611521565b610a465760405162461bcd60e51b8152600401610438906130b0565b600f805460019190610a599083906137d5565b81548110610a7757634e487b7160e01b600052603260045260246000fd5b906000526020600020906006020160050160006101000a81548160ff02191690836006811115610ab757634e487b7160e01b600052602160045260246000fd5b0217905550601154600f805473__$94d7d2f22770e4b0d1a2b99fb2812308e2$__9263eb2c972a926001600160a01b039091169160089190610afb906001906137d5565b81548110610b1957634e487b7160e01b600052603260045260246000fd5b600091825260209091206010546040516001600160e01b031960e088901b168152610b5b959493600602909201916001600160a01b0390911690600401612c52565b60006040518083038186803b158015610b7357600080fd5b505af4158015610b87573d6000803e3d6000fd5b5050600f805473__$94d7d2f22770e4b0d1a2b99fb2812308e2$__9350631f97d8439250610bb7906001906137d5565b81548110610bd557634e487b7160e01b600052603260045260246000fd5b600091825260209091206010546015546040516001600160e01b031960e087901b168152610c2194600602909301926001600160a01b03909216916008913091601691906004016133d4565b60006040518083038186803b158015610c3957600080fd5b505af4158015610c4d573d6000803e3d6000fd5b50506040517f7a00026d00000000000000000000000000000000000000000000000000000000815273__$94d7d2f22770e4b0d1a2b99fb2812308e2$__9250637a00026d9150610ca590600790601690600401612c9c565b60006040518083038186803b158015610cbd57600080fd5b505af4158015610cd1573d6000803e3d6000fd5b505050506107e7611e08565b60155481565b6014544211610d045760405162461bcd60e51b815260040161043890613079565b6002600f8054610d16906001906137d5565b81548110610d3457634e487b7160e01b600052603260045260246000fd5b600091825260209091206006918202016005015460ff1690811115610d6957634e487b7160e01b600052602160045260246000fd5b14610d865760405162461bcd60e51b81526004016104389061318c565b600f805473__$94d7d2f22770e4b0d1a2b99fb2812308e2$__9163b89c10e791610db2906001906137d5565b81548110610dd057634e487b7160e01b600052603260045260246000fd5b90600052602060002090600602016040518263ffffffff1660e01b8152600401610dfa9190612e33565b60006040518083038186803b158015610e1257600080fd5b505af4158015610e26573d6000803e3d6000fd5b50505050565b6012546001600160a01b031681565b6003546001600160a01b03163314610e655760405162461bcd60e51b81526004016104389061311e565b6003600f8054610e77906001906137d5565b81548110610e9557634e487b7160e01b600052603260045260246000fd5b600091825260209091206006918202016005015460ff1690811115610eca57634e487b7160e01b600052602160045260246000fd5b14610ee75760405162461bcd60e51b8152600401610438906130e7565b600f805473__$94d7d2f22770e4b0d1a2b99fb2812308e2$__9163ec7ac2f091610767906001906137d5565b60018054600254600354600454600580546001600160a01b039586169694861695909316939192610f4390613c1b565b80601f0160208091040260200160405190810160405280929190818152602001828054610f6f90613c1b565b8015610fbc5780601f10610f9157610100808354040283529160200191610fbc565b820191906000526020600020905b815481529060010190602001808311610f9f57829003601f168201915b505050505090806007016040518060e00160405290816000820154815260200160018201548152602001600282015481526020016003820180548060200260200160405190810160405280929190818152602001828054801561103e57602002820191906000526020600020905b81548152602001906001019080831161102a575b5050505050815260200160048201805480602002602001604051908101604052809291908181526020016000905b828210156110d8576000848152602090819020830180546040805182850281018501909152818152928301828280156110c457602002820191906000526020600020905b8154815260200190600101908083116110b0575b50505050508152602001906001019061106c565b50505050815260200160058201805480602002602001604051908101604052809291908181526020016000905b828210156111715760008481526020908190208301805460408051828502810185019091528181529283018282801561115d57602002820191906000526020600020905b815481526020019060010190808311611149575b505050505081526020019060010190611105565b50505050815260200160068201805461118990613c1b565b80601f01602080910402602001604051908101604052809291908181526020018280546111b590613c1b565b80156112025780601f106111d757610100808354040283529160200191611202565b820191906000526020600020905b8154815290600101906020018083116111e557829003601f168201915b505050505081525050905086565b6060600f805480602002602001604051908101604052809291908181526020016000905b828210156113365760008481526020908190206040805160c0810182526006860290920180546001600160a01b0316835260018101548385015260028101548383015260038101546060840152600481018054835181870281018701909452808452939491936080860193928301828280156112cf57602002820191906000526020600020905b8154815260200190600101908083116112bb575b5050509183525050600582015460209091019060ff16600681111561130457634e487b7160e01b600052602160045260246000fd5b600681111561132357634e487b7160e01b600052602160045260246000fd5b8152505081526020019060010190611234565b50505050905090565b6011546001600160a01b031681565b600073__$94d7d2f22770e4b0d1a2b99fb2812308e2$__630bc1c42a600f6001600f8054905061137e91906137d5565b8154811061139c57634e487b7160e01b600052603260045260246000fd5b9060005260206000209060060201600160070160030185815481106113d157634e487b7160e01b600052603260045260246000fd5b90600052602060002001546040518363ffffffff1660e01b81526004016113f9929190613427565b60206040518083038186803b15801561141157600080fd5b505af4158015611425573d6000803e3d6000fd5b505050506040513d601f19601f8201168201806040525081019061041091906123d8565b6003546001600160a01b031633146114735760405162461bcd60e51b81526004016104389061311e565b6004600f8054611485906001906137d5565b815481106114a357634e487b7160e01b600052603260045260246000fd5b600091825260209091206006918202016005015460ff16908111156114d857634e487b7160e01b600052602160045260246000fd5b146114f55760405162461bcd60e51b815260040161043890613231565b600f805473__$94d7d2f22770e4b0d1a2b99fb2812308e2$__916359111fb591610767906001906137d5565b600f546040517f5cc1f6b500000000000000000000000000000000000000000000000000000000815260009173__$94d7d2f22770e4b0d1a2b99fb2812308e2$__91635cc1f6b5916115799160069190600401612d5c565b60206040518083038186803b15801561159157600080fd5b505af41580156115a5573d6000803e3d6000fd5b505050506040513d601f19601f820116820180604052508101906115c991906123a4565b905090565b6012546000906001600160a01b0316156115fa5760405162461bcd60e51b815260040161043890612fd4565b6010546013546040517f69a1f78400000000000000000000000000000000000000000000000000000000815273__$94d7d2f22770e4b0d1a2b99fb2812308e2$__926369a1f7849261165c9287926001600160a01b0316913091600401613449565b604080518083038186803b15801561167357600080fd5b505af4158015611687573d6000803e3d6000fd5b505050506040513d601f19601f820116820180604052508101906116ab919061229b565b6012805473ffffffffffffffffffffffffffffffffffffffff19166001600160a01b03939093169290921790915592915050565b6010546001600160a01b031681565b600073__$94d7d2f22770e4b0d1a2b99fb2812308e2$__63f060d0b66001600501848154811061172e57634e487b7160e01b600052603260045260246000fd5b9060005260206000209060050201306040518363ffffffff1660e01b815260040161175a92919061356c565b60006040518083038186803b15801561177257600080fd5b505af4158015611786573d6000803e3d6000fd5b505050506040513d6000823e601f3d908101601f191682016040526117ae9190810190612418565b90506105a2600160050183815481106117d757634e487b7160e01b600052603260045260246000fd5b906000526020600020906005020160010160029054906101000a900460ff166001600501848154811061181a57634e487b7160e01b600052603260045260246000fd5b9060005260206000209060050201600201546001600501858154811061185057634e487b7160e01b600052603260045260246000fd5b906000526020600020906005020160010160019054906101000a900460ff1684611b62565b7fbc197c810000000000000000000000000000000000000000000000000000000098975050505050505050565b60145481565b6003546001600160a01b031633146118d25760405162461bcd60e51b81526004016104389061311e565b6004600f80546118e4906001906137d5565b8154811061190257634e487b7160e01b600052603260045260246000fd5b600091825260209091206006918202016005015460ff169081111561193757634e487b7160e01b600052602160045260246000fd5b146119545760405162461bcd60e51b815260040161043890613231565b60145442116119755760405162461bcd60e51b815260040161043890613079565b600f805473__$94d7d2f22770e4b0d1a2b99fb2812308e2$__916348cc49d5916119a1906001906137d5565b815481106119bf57634e487b7160e01b600052603260045260246000fd5b9060005260206000209060060201836040518363ffffffff1660e01b81526004016119eb929190613394565b60006040518083038186803b158015611a0357600080fd5b505af4158015611a17573d6000803e3d6000fd5b5050505050565b60135481565b7ff23a6e61000000000000000000000000000000000000000000000000000000005b9695505050505050565b3373e7f1725e7734ce288f8367e1bb143e90bb3f051214611a835760405162461bcd60e51b81526004016104389061300b565b6000611a956040830160208401612127565b6001600160a01b03161415611abc5760405162461bcd60e51b815260040161043890613155565b601080546001600160a01b0380871673ffffffffffffffffffffffffffffffffffffffff199283161790925560118054928616929091169190911790556013829055806001611b0b8282613f29565b505050505050565b6001600160e01b031981167f01ffc9a70000000000000000000000000000000000000000000000000000000014919050565b600454611b539060016137b6565b611b5d904261379e565b601455565b60008381526017602052604090205460ff1615611b915760405162461bcd60e51b815260040161043890612f66565b8115611bb5576000838152601760205260409020805460ff19166001179055611c10565b600f54611bc4906001906137d5565b60008481526018602052604090205414611bf05760405162461bcd60e51b8152600401610438906131fa565b6000838152601860205260408120805491611c0a83613c63565b91905055505b60008381526016602090815260409091208251611c2f92840190611f0c565b508360ff166004811115611c5357634e487b7160e01b600052602160045260246000fd5b6000848152601960205260409020805460ff19166001836004811115611c8957634e487b7160e01b600052602160045260246000fd5b021790555050505050565b601154600f80546040517f5069a07c000000000000000000000000000000000000000000000000000000008152919273__$94d7d2f22770e4b0d1a2b99fb2812308e2$__92635069a07c92611cfc926008926001600160a01b03909116913091600401613344565b60006040518083038186803b158015611d1457600080fd5b505af4158015611d28573d6000803e3d6000fd5b505050506040513d6000823e601f3d908101601f19168201604052611d5091908101906124f5565b81546001808201845560009384526020938490208351600690930201805473ffffffffffffffffffffffffffffffffffffffff19166001600160a01b03909316929092178255828401519082015560408201516002820155606082015160038201556080820151805192939192611dcd9260048501920190611f90565b5060a082015160058201805460ff19166001836006811115611dff57634e487b7160e01b600052602160045260246000fd5b02179055505050565b6012546001600160a01b031615801590611ea35750601260009054906101000a90046001600160a01b03166001600160a01b031663999925066040518163ffffffff1660e01b815260040160206040518083038186803b158015611e6b57600080fd5b505afa158015611e7f573d6000803e3d6000fd5b505050506040513d601f19601f82011682018060405250810190611ea391906123a4565b156107e757601260009054906101000a90046001600160a01b03166001600160a01b0316633a275fa26040518163ffffffff1660e01b8152600401600060405180830381600087803b158015611ef857600080fd5b505af1158015610e26573d6000803e3d6000fd5b828054611f1890613c1b565b90600052602060002090601f016020900481019282611f3a5760008555611f80565b82601f10611f5357805160ff1916838001178555611f80565b82800160010185558215611f80579182015b82811115611f80578251825591602001919060010190611f65565b50611f8c929150611fca565b5090565b828054828255906000526020600020908101928215611f805791602002820182811115611f80578251825591602001919060010190611f65565b5b80821115611f8c5760008155600101611fcb565b803561041381614198565b60008083601f840112611ffb578182fd5b50813567ffffffffffffffff811115612012578182fd5b602083019150836020808302850101111561202c57600080fd5b9250929050565b600082601f830112612043578081fd5b815160206120586120538361369b565b613671565b8281528181019085830183850287018401881015612074578586fd5b855b8581101561209257815184529284019290840190600101612076565b5090979650505050505050565b8035610413816141ad565b60008083601f8401126120bb578182fd5b50813567ffffffffffffffff8111156120d2578182fd5b60208301915083602082850101111561202c57600080fd5b805161041381614198565b80516007811061041357600080fd5b60006101008284031215612116578081fd5b50919050565b8035610413816141bb565b600060208284031215612138578081fd5b813561214381614198565b9392505050565b60006020828403121561215b578081fd5b815161214381614198565b60008060008060008060008060a0898b031215612181578384fd5b883561218c81614198565b9750602089013561219c81614198565b9650604089013567ffffffffffffffff808211156121b8578586fd5b6121c48c838d01611fea565b909850965060608b01359150808211156121dc578586fd5b6121e88c838d01611fea565b909650945060808b0135915080821115612200578384fd5b5061220d8b828c016120aa565b999c989b5096995094979396929594505050565b60008060008060008060a08789031215612239578384fd5b863561224481614198565b9550602087013561225481614198565b94506040870135935060608701359250608087013567ffffffffffffffff81111561227d578283fd5b61228989828a016120aa565b979a9699509497509295939492505050565b600080604083850312156122ad578182fd5b82516122b881614198565b60208401519092506122c981614198565b809150509250929050565b600080602083850312156122e6578182fd5b823567ffffffffffffffff8111156122fc578283fd5b61230885828601611fea565b90969095509350505050565b60006020808385031215612326578182fd5b823567ffffffffffffffff81111561233c578283fd5b8301601f8101851361234c578283fd5b803561235a6120538261369b565b8181528381019083850185840285018601891015612376578687fd5b8694505b8385101561239857803583526001949094019391850191850161237a565b50979650505050505050565b6000602082840312156123b5578081fd5b8151612143816141ad565b6000602082840312156123d1578081fd5b5035919050565b6000602082840312156123e9578081fd5b5051919050565b600060208284031215612401578081fd5b81356001600160e01b031981168114612143578182fd5b600060208284031215612429578081fd5b815167ffffffffffffffff81111561243f578182fd5b8201601f8101841361244f578182fd5b805161245d612053826136bf565b818152856020838501011115612471578384fd5b612482826020830160208601613bef565b95945050505050565b600080600080608085870312156124a0578182fd5b84356124ab81614198565b935060208501356124bb81614198565b925060408501359150606085013567ffffffffffffffff8111156124dd578182fd5b6124e987828801612104565b91505092959194509250565b600060208284031215612506578081fd5b815167ffffffffffffffff8082111561251d578283fd5b9083019060c08286031215612530578283fd5b60405160c08101818110838211171561254b5761254b613caa565b604052612557836120ea565b8152602083015160208201526040830151604082015260608301516060820152608083015182811115612588578485fd5b61259487828601612033565b6080830152506125a660a084016120f5565b60a082015295945050505050565b6000602082840312156125c5578081fd5b813567ffffffffffffffff8111156125db578182fd5b6125e784828501612104565b949350505050565b600080600060608486031215612603578081fd5b833561260e816141bb565b925060208401359150604084013567ffffffffffffffff811115612630578182fd5b8401601f81018613612640578182fd5b803561264e612053826136bf565b818152876020838501011115612662578384fd5b8160208401602083013783602083830101528093505050509250925092565b6001600160a01b03169052565b8183526020808401936000918085028201810184845b8781101561209257848303601f190189526126bf82886136f3565b6126ca85828461290d565b9a86019a94505050908301906001016126a4565b60008282518085526020808601955080818302840101818601855b8481101561209257601f1986840301895261271583835161295a565b988401989250908301906001016126f9565b60008282548085526020808601955080818302840101858552818520855b8481101561209257858303601f190189526127608383612994565b98840198925060019182019101612745565b8183526020808401936000918085028201810184845b8781101561209257848303601f1901895281353688900360be190181126127ad578687fd5b870160c081356127bc816141ad565b15158552818601356127cd816141ad565b15158587015260406127e0838201611fdf565b6127ec82880182612681565b5050606082810135908601526080808301359086015260a06128108184018461373b565b9350828288015261282483880185836129cc565b9c88019c96505050928501925050600101612788565b8183526020808401936000918085028201810184845b8781101561209257848303601f1901895261286b8288613780565b60e0813585528582013561287e816141ad565b61288a878701826129c6565b50604061289881840161209f565b6128a4828801826129c6565b505060606128b381840161211c565b6128bf82880182612c37565b50506080828101359086015260a0808301359086015260c06128e38184018461373b565b935082828801526128f783880185836129cc565b9c88019c96505050928501925050600101612850565b60008284527f07ffffffffffffffffffffffffffffffffffffffffffffffffffffffffffffff83111561293e578081fd5b6020830280836020870137939093016020019283525090919050565b6000815180845260208085019450808401835b838110156129895781518752958201959082019060010161296d565b509495945050505050565b6000815480845260208085019450838352808320835b83811015612989578154875295820195600191820191016129aa565b15159052565b60008284528282602086013780602084860101526020601f19601f85011685010190509392505050565b60008151808452612a0e816020860160208601613bef565b601f01601f19169290920160200192915050565b60008154612a2f81613c1b565b808552602060018381168015612a4c5760018114612a6057612a8e565b60ff19851688840152604088019550612a8e565b866000528260002060005b85811015612a865781548a8201860152908301908401612a6b565b890184019650505b505050505092915050565b60078110612ab757634e487b7160e01b600052602160045260246000fd5b9052565b6000813583526020820135602084015260408201356040840152612ae260608301836136f3565b60e06060860152612af760e08601828461290d565b915050612b0760808401846136f3565b8583036080870152612b1a83828461268e565b92505050612b2b60a08401846136f3565b85830360a0870152612b3e83828461268e565b92505050612b4f60c084018461373b565b85830360c0870152611a468382846129cc565b600081548352600182015460208401526002820154604084015260e06060840152612b9360e0840160038401612994565b8381036080850152612ba88160048501612727565b905083810360a0850152612bbf8160058501612727565b905083810360c08501526125e78160068501612a22565b60006001600160a01b03825416835260018201546020840152600282015460408401526003820154606084015260c06080840152612c1a60c0840160048401612994565b60ff600584015416612c2f60a0860182612a99565b509392505050565b60ff169052565b6001600160a01b0391909116815260200190565b60006001600160a01b03808716835260806020840152612c756080840187612b62565b8381036040850152612c878187612bd6565b92505080841660608401525095945050505050565b918252602082015260400190565b60208082528251828201819052600091906040908185019080840286018301878501865b83811015612d4e57603f19898403018552815160c06001600160a01b0382511685528882015189860152878201518886015260608083015181870152506080808301518282880152612d228388018261295a565b9250505060a0808301519250612d3a81870184612a99565b509588019593505090860190600101612cce565b509098975050505050505050565b60006040808301818452808654808352606092508286019150602083818302880101898752818720875b84811015612e1557605f198a840301865260e082548452600183015460ff612db28787018284166129c6565b612dc38b8701828460081c166129c6565b612dd48a8701828460101c16612c37565b505060028301546080850152600383015460a08501528060c0850152612dff81850160048501612a22565b9685019693505060059190910190600101612d86565b5050960196909652509295945050505050565b901515815260200190565b90815260200190565b6001600160e01b031991909116815260200190565b60006020825261214360208301846129f6565b600060a0820190506001600160a01b0387168252856020830152846040830152836060830152611a466080830184612a99565b60006001600160a01b038089168352808816602084015280871660408401525084606083015260c06080830152612ed160c08301856129f6565b82810360a0840152835181526020840151602082015260408401516040820152606084015160e06060830152612f0a60e083018261295a565b905060808501518282036080840152612f2382826126de565b91505060a085015182820360a0840152612f3d82826126de565b91505060c085015182820360c0840152612f5782826129f6565b9b9a5050505050505050505050565b6020808252600b908201527f506f7274206c6f636b6564000000000000000000000000000000000000000000604082015260600190565b6020808252600a908201527f4f6e6c794b656570657200000000000000000000000000000000000000000000604082015260600190565b60208082526010908201527f536f6c76657220686173206368696c6400000000000000000000000000000000604082015260600190565b6020808252600c908201527f4f6e6c7920666163746f72790000000000000000000000000000000000000000604082015260600190565b6020808252600b908201527f4f6e6c79204b6565706572000000000000000000000000000000000000000000604082015260600190565b60208082526015908201527f54696d656c6f636b207374696c6c206c6f636b65640000000000000000000000604082015260600190565b6020808252600f908201527f696e676573747320696e76616c69640000000000000000000000000000000000604082015260600190565b60208082526018908201527f4e6f74204172626974726174696f6e5265717565737465640000000000000000604082015260600190565b6020808252600f908201527f4f6e6c792061726269747261746f720000000000000000000000000000000000604082015260600190565b6020808252600e908201527f4b656570657220696e76616c6964000000000000000000000000000000000000604082015260600190565b60208082526014908201527f4f7574636f6d65206e6f742070726f706f736564000000000000000000000000604082015260600190565b60208082526013908201527f4e6f74204f7574636f6d6550726f706f73656400000000000000000000000000604082015260600190565b60208082526014908201527f506f72742076657273696f6e20696e76616c6964000000000000000000000000604082015260600190565b60208082526016908201527f4e6f74204172626974726174696f6e50656e64696e6700000000000000000000604082015260600190565b60208082526012908201527f436f6e646974696f6e2045786563757465640000000000000000000000000000604082015260600190565b6020808252600e908201527f547261636b696e67496420736574000000000000000000000000000000000000604082015260600190565b6020808252600d908201527f506f727420696e76616c69642e00000000000000000000000000000000000000604082015260600190565b6020808252600d908201527f6e6f7420496e6974696174656400000000000000000000000000000000000000604082015260600190565b6000608082526133576080830187612b62565b6001600160a01b0395861660208401529390941660408201526060015292915050565b60008482526040602083015261248260408301848661290d565b60006040820184835260206040818501528185518084526060860191508287019350845b81811015612092578451835293830193918301916001016133b8565b600060c082526133e760c0830189612bd6565b6001600160a01b03808916602085015283820360408501526134098289612b62565b961660608401525050608081019290925260a0909101529392505050565b60006040825261343a6040830185612bd6565b90508260208301529392505050565b6000608082526134646080830161345f88611fdf565b612681565b61347060208701611fdf565b61347d60a0840182612681565b5061348a60408701611fdf565b61349760c0840182612681565b50606086013560e08301526134af608087018761373b565b610100848101526134c5610180850182846129cc565b9150506134d560a08801886136f3565b607f1980868503016101208701526134ee84838561283a565b93506134fd60c08b018b6136f3565b935091508086850301610140870152613517848484612772565b935061352660e08b018b613780565b92508086850301610160870152505061353f8282612abb565b925050506135506020830186612681565b61355d6040830185612681565b82606083015295945050505050565b9182526001600160a01b0316602082015260400190565b9485526001600160a01b03938416602086015291831660408501529091166060830152608082015260a00190565b6000808335601e198436030181126135c7578283fd5b83018035915067ffffffffffffffff8211156135e1578283fd5b602090810192508102360382131561202c57600080fd5b6000808335601e1984360301811261360e578283fd5b83018035915067ffffffffffffffff821115613628578283fd5b60200191503681900382131561202c57600080fd5b6000823560be19833603018112613652578182fd5b9190910192915050565b6000823560de19833603018112613652578182fd5b60405181810167ffffffffffffffff8111828210171561369357613693613caa565b604052919050565b600067ffffffffffffffff8211156136b5576136b5613caa565b5060209081020190565b600067ffffffffffffffff8211156136d9576136d9613caa565b50601f01601f191660200190565b60009081526020902090565b6000808335601e19843603018112613709578283fd5b830160208101925035905067ffffffffffffffff81111561372957600080fd5b60208102360383131561202c57600080fd5b6000808335601e19843603018112613751578283fd5b830160208101925035905067ffffffffffffffff81111561377157600080fd5b80360383131561202c57600080fd5b6000823560de19833603018112613795578182fd5b90910192915050565b600082198211156137b1576137b1613c94565b500190565b60008160001904831182151516156137d0576137d0613c94565b500290565b6000828210156137e7576137e7613c94565b500390565b5b818110156105a257600081556001016137ed565b6801000000000000000083111561381a5761381a613caa565b805483825580841015613858576000828152602081208581019083015b80821015613854576138498383613cd3565b600182019150613837565b5050505b5081613863826136e7565b6000805b8681101561389a5761387984876135b1565b61388581838688614006565b50506020939093019260019283019201613867565b50505050505050565b680100000000000000008311156138bc576138bc613caa565b80548382558084101561396b577f3fffffffffffffffffffffffffffffffffffffffffffffffffffffffffffffff60018183118116156138fe576138fe613c94565b600482871182161561391257613912613c94565b600085815260208120909350878202810190828602015b80821015613965578482556139418586868501614179565b61394f858660028501614179565b61395c8560038401613d10565b90820190613929565b50505050505b5081613976826136e7565b6000805b8681101561389a5761399661398f858861363d565b838561401f565b602093909301926004929092019160010161397a565b680100000000000000008311156139c5576139c5613caa565b805483825580841015613a82577f33333333333333333333333333333333333333333333333333333333333333336001818311811615613a0757613a07613c94565b6005828711821615613a1b57613a1b613c94565b600085815260208120909350878202810190828602015b80821015613a7c57613a45858684614179565b8484830155613a58858660028501614179565b613a66858660038501614179565b613a738560048401613d10565b90820190613a32565b50505050505b5081613a8d826136e7565b6000805b8681101561389a57613aad613aa6858861365c565b83856140de565b6020939093019260059290920191600101613a91565b613acd8382613cd3565b818160005260208060002060005b8681101561389a57833582559282019260019182019101613adb565b67ffffffffffffffff831115613b0f57613b0f613caa565b613b198154613c1b565b600080601f8611601f841181811715613b3857613b35866136e7565b92505b8015613b67576020601f89010483016020891015613b535750825b613b656020601f8801048501826137ec565b505b508060018114613b9357600094508715613b82578387013594505b613b8c8886613c50565b8655613be5565b601f198816945082845b86811015613bbd5788860135825560209586019560019092019101613b9d565b5088861015613bda57878501356000196008601f8c16021c191681555b506001600289020186555b5050505050505050565b60005b83811015613c0a578181015183820152602001613bf2565b83811115610e265750506000910152565b600281046001821680613c2f57607f821691505b6020821081141561211657634e487b7160e01b600052602260045260246000fd5b600019600883021c191660029091021790565b6000600019821415613c7757613c77613c94565b5060010190565b634e487b7160e01b600052600060045260246000fd5b634e487b7160e01b600052601160045260246000fd5b634e487b7160e01b600052604160045260246000fd5b60008135613ccd81614198565b92915050565b68010000000000000000821115613cec57613cec613caa565b80548282558083101561086e57816000526020600020610e268282018583016137ec565b8115613d1e57613d1e613c7e565b613d288154613c1b565b801561086e57601f811160018114613d435760008355610e26565b600083815260208120613d616020601f8601048201600183016137ec565b50838152602081208185555550505050565b6001600160a01b03821673ffffffffffffffffffffffffffffffffffffffff198254161781555050565b60ff1981541660ff8315151681178255505050565b8135815560016020808401358284015560408401356002840155613dd960608501856135b1565b613de7818360038801613ac3565b5050613df660808501856135b1565b613e04818360048801613801565b5050613e1360a08501856135b1565b613e21818360058801613801565b505060068301613e3460c08601866135f8565b67ffffffffffffffff811115613e4c57613e4c613caa565b613e568354613c1b565b600080601f8411601f841181811715613e7557613e72886136e7565b92505b8015613ea15788601f870104830189871015613e8e5750825b613e9f8a601f8801048501826137ec565b505b508060018114613ecd57600094508515613ebc578387013594505b613ec68686613c50565b8855613f1b565b601f198616945082845b86811015613ef457888601358255948a0194908b01908a01613ed7565b5086861015613f1157878501356000196008601f8a16021c191681555b5089600287020188555b505050505050505050505050565b8135613f3481614198565b613f3e8183613d73565b506020820135613f4d81614198565b613f5a8160018401613d73565b50613f73613f6a60408401613cc0565b60028301613d73565b60608201356003820155613f8a60808301836135f8565b613f98818360048601613af7565b5050613fa760a08301836135b1565b613fb58183600586016139ac565b5050613fc460c08301836135b1565b613fd28183600686016138a3565b50506105a2613fe460e084018461365c565b60078301613db2565b805461ff00191691151560081b61ff0016919091179055565b811561401457614014613c7e565b610e26848483613ac3565b811561402d5761402d613c7e565b8235614038816141ad565b6140428183613d9d565b506020830135614051816141ad565b61405b8183613fed565b50604083013561406a81614198565b81547fffffffffffffffffffff0000000000000000000000000000000000000000ffff1660109190911b75ffffffffffffffffffffffffffffffffffffffff00001617815560608301356001820155608083013560028201556140d060a08401846135f8565b611a17818360038601613af7565b81156140ec576140ec613c7e565b82358155600181016020840135614102816141ad565b61410c8183613d9d565b50604084013561411b816141ad565b6141258183613fed565b506060840135614134816141bb565b815462ff0000191660109190911b62ff0000161790556080830135600282015560a0830135600382015561416b60c08401846135f8565b611a17818360048601613af7565b805460088302600019811b8086831b1681198416178455505050505050565b6001600160a01b03811681146108e057600080fd5b80151581146108e057600080fd5b60ff811681146108e057600080fdfea2646970667358221220d93e88115387ee28e1a59727a206e52b383862771c8f17f6bdcda05ca032859264736f6c63430008000033",
  "linkReferences": {
    "contracts/SolverLib.sol": {
      "SolverLib": [
        {
          "length": 20,
          "start": 1304
        },
        {
          "length": 20,
          "start": 1889
        },
        {
          "length": 20,
          "start": 2359
        },
        {
          "length": 20,
          "start": 2789
        },
        {
          "length": 20,
          "start": 2991
        },
        {
          "length": 20,
          "start": 3223
        },
        {
          "length": 20,
          "start": 3500
        },
        {
          "length": 20,
          "start": 3853
        },
        {
          "length": 20,
          "start": 4978
        },
        {
          "length": 20,
          "start": 5403
        },
        {
          "length": 20,
          "start": 5487
        },
        {
          "length": 20,
          "start": 5704
        },
        {
          "length": 20,
          "start": 5906
        },
        {
          "length": 20,
          "start": 6555
        },
        {
          "length": 20,
          "start": 7397
        }
      ]
    }
  },
  "deployedLinkReferences": {
    "contracts/SolverLib.sol": {
      "SolverLib": [
        {
          "length": 20,
          "start": 1272
        },
        {
          "length": 20,
          "start": 1857
        },
        {
          "length": 20,
          "start": 2327
        },
        {
          "length": 20,
          "start": 2757
        },
        {
          "length": 20,
          "start": 2959
        },
        {
          "length": 20,
          "start": 3191
        },
        {
          "length": 20,
          "start": 3468
        },
        {
          "length": 20,
          "start": 3821
        },
        {
          "length": 20,
          "start": 4946
        },
        {
          "length": 20,
          "start": 5371
        },
        {
          "length": 20,
          "start": 5455
        },
        {
          "length": 20,
          "start": 5672
        },
        {
          "length": 20,
          "start": 5874
        },
        {
          "length": 20,
          "start": 6523
        },
        {
          "length": 20,
          "start": 7365
        }
      ]
    }
  }
}