{
  "_format": "hh-sol-artifact-1",
  "contractName": "Solver",
  "sourceName": "contracts/Solver.sol",
  "abi": [
    {
      "inputs": [
        {
          "internalType": "uint8",
          "name": "_port",
          "type": "uint8"
        },
        {
          "internalType": "uint256",
          "name": "_key",
          "type": "uint256"
        },
        {
          "internalType": "bytes",
          "name": "_data",
          "type": "bytes"
        }
      ],
      "name": "addData",
      "outputs": [],
      "stateMutability": "nonpayable",
      "type": "function"
    },
    {
      "inputs": [
        {
          "internalType": "uint256",
          "name": "_index",
          "type": "uint256"
        }
      ],
      "name": "addressFromChainIndex",
      "outputs": [
        {
          "internalType": "address",
          "name": "_address",
          "type": "address"
        }
      ],
      "stateMutability": "view",
      "type": "function"
    },
    {
      "inputs": [
        {
          "internalType": "uint256",
          "name": "",
          "type": "uint256"
        }
      ],
      "name": "addressPort",
      "outputs": [
        {
          "internalType": "address",
          "name": "",
          "type": "address"
        }
      ],
      "stateMutability": "view",
      "type": "function"
    },
    {
      "inputs": [
        {
          "internalType": "uint256[]",
          "name": "payouts",
          "type": "uint256[]"
        }
      ],
      "name": "arbitrate",
      "outputs": [],
      "stateMutability": "nonpayable",
      "type": "function"
    },
    {
      "inputs": [],
      "name": "arbitrateNull",
      "outputs": [],
      "stateMutability": "nonpayable",
      "type": "function"
    },
    {
      "inputs": [],
      "name": "arbitrationPending",
      "outputs": [],
      "stateMutability": "nonpayable",
      "type": "function"
    },
    {
      "inputs": [],
      "name": "arbitrationRequested",
      "outputs": [],
      "stateMutability": "nonpayable",
      "type": "function"
    },
    {
      "inputs": [],
      "name": "arbitrator",
      "outputs": [
        {
          "internalType": "address",
          "name": "",
          "type": "address"
        }
      ],
      "stateMutability": "view",
      "type": "function"
    },
    {
      "inputs": [
        {
          "internalType": "uint256",
          "name": "",
          "type": "uint256"
        }
      ],
      "name": "boolPort",
      "outputs": [
        {
          "internalType": "bool",
          "name": "",
          "type": "bool"
        }
      ],
      "stateMutability": "view",
      "type": "function"
    },
    {
      "inputs": [
        {
          "internalType": "uint256",
          "name": "",
          "type": "uint256"
        }
      ],
      "name": "bytes32Port",
      "outputs": [
        {
          "internalType": "bytes32",
          "name": "",
          "type": "bytes32"
        }
      ],
      "stateMutability": "view",
      "type": "function"
    },
    {
      "inputs": [
        {
          "internalType": "uint256",
          "name": "",
          "type": "uint256"
        }
      ],
      "name": "bytesPort",
      "outputs": [
        {
          "internalType": "bytes",
          "name": "",
          "type": "bytes"
        }
      ],
      "stateMutability": "view",
      "type": "function"
    },
    {
      "inputs": [],
      "name": "chainChild",
      "outputs": [
        {
          "internalType": "address",
          "name": "",
          "type": "address"
        }
      ],
      "stateMutability": "view",
      "type": "function"
    },
    {
      "inputs": [],
      "name": "chainIndex",
      "outputs": [
        {
          "internalType": "uint256",
          "name": "",
          "type": "uint256"
        }
      ],
      "stateMutability": "view",
      "type": "function"
    },
    {
      "inputs": [],
      "name": "chainParent",
      "outputs": [
        {
          "internalType": "address",
          "name": "",
          "type": "address"
        }
      ],
      "stateMutability": "view",
      "type": "function"
    },
    {
      "inputs": [],
      "name": "collateralToken",
      "outputs": [
        {
          "internalType": "contract IERC20",
          "name": "",
          "type": "address"
        }
      ],
      "stateMutability": "view",
      "type": "function"
    },
    {
      "inputs": [],
      "name": "conditionalTokens",
      "outputs": [
        {
          "internalType": "contract ConditionalTokens",
          "name": "",
          "type": "address"
        }
      ],
      "stateMutability": "view",
      "type": "function"
    },
    {
      "inputs": [
        {
          "internalType": "uint256",
          "name": "",
          "type": "uint256"
        }
      ],
      "name": "conditions",
      "outputs": [
        {
          "internalType": "bytes32",
          "name": "questionId",
          "type": "bytes32"
        },
        {
          "internalType": "bytes32",
          "name": "parentCollectionId",
          "type": "bytes32"
        },
        {
          "internalType": "bytes32",
          "name": "conditionId",
          "type": "bytes32"
        },
        {
          "internalType": "enum Solver.Status",
          "name": "status",
          "type": "uint8"
        }
      ],
      "stateMutability": "view",
      "type": "function"
    },
    {
      "inputs": [],
      "name": "config",
      "outputs": [
        {
          "internalType": "contract Solver",
          "name": "implementation",
          "type": "address"
        },
        {
          "internalType": "address",
          "name": "keeper",
          "type": "address"
        },
        {
          "internalType": "address",
          "name": "arbitrator",
          "type": "address"
        },
        {
          "internalType": "uint256",
          "name": "timelockSeconds",
          "type": "uint256"
        },
        {
          "internalType": "bytes",
          "name": "data",
          "type": "bytes"
        },
        {
          "components": [
            {
              "internalType": "uint256",
              "name": "outcomeSlots",
              "type": "uint256"
            },
            {
              "internalType": "uint256",
              "name": "parentCollectionPartitionIndex",
              "type": "uint256"
            },
            {
              "internalType": "uint256",
              "name": "amount",
              "type": "uint256"
            },
            {
              "internalType": "uint256[]",
              "name": "partition",
              "type": "uint256[]"
            },
            {
              "internalType": "uint256[][]",
              "name": "recipientAddressPorts",
              "type": "uint256[][]"
            },
            {
              "internalType": "uint256[][]",
              "name": "recipientAmounts",
              "type": "uint256[][]"
            },
            {
              "internalType": "string",
              "name": "metadata",
              "type": "string"
            }
          ],
          "internalType": "struct Solver.ConditionBase",
          "name": "conditionBase",
          "type": "tuple"
        }
      ],
      "stateMutability": "view",
      "type": "function"
    },
    {
      "inputs": [],
      "name": "confirmPayouts",
      "outputs": [],
      "stateMutability": "nonpayable",
      "type": "function"
    },
    {
      "inputs": [],
      "name": "deferredIngestsValid",
      "outputs": [
        {
          "internalType": "bool",
          "name": "",
          "type": "bool"
        }
      ],
      "stateMutability": "view",
      "type": "function"
    },
    {
      "inputs": [
        {
          "components": [
            {
              "internalType": "contract Solver",
              "name": "implementation",
              "type": "address"
            },
            {
              "internalType": "address",
              "name": "keeper",
              "type": "address"
            },
            {
              "internalType": "address",
              "name": "arbitrator",
              "type": "address"
            },
            {
              "internalType": "uint256",
              "name": "timelockSeconds",
              "type": "uint256"
            },
            {
              "internalType": "bytes",
              "name": "data",
              "type": "bytes"
            },
            {
              "components": [
                {
                  "internalType": "uint256",
                  "name": "executions",
                  "type": "uint256"
                },
                {
                  "internalType": "bool",
                  "name": "isDeferred",
                  "type": "bool"
                },
                {
                  "internalType": "bool",
                  "name": "isConstant",
                  "type": "bool"
                },
                {
                  "internalType": "uint8",
                  "name": "port",
                  "type": "uint8"
                },
                {
                  "internalType": "uint256",
                  "name": "key",
                  "type": "uint256"
                },
                {
                  "internalType": "uint256",
                  "name": "solverIndex",
                  "type": "uint256"
                },
                {
                  "internalType": "bytes",
                  "name": "data",
                  "type": "bytes"
                }
              ],
              "internalType": "struct Solver.Ingest[]",
              "name": "ingests",
              "type": "tuple[]"
            },
            {
              "components": [
                {
                  "internalType": "bool",
                  "name": "executed",
                  "type": "bool"
                },
                {
                  "internalType": "bool",
                  "name": "isPort",
                  "type": "bool"
                },
                {
                  "internalType": "address",
                  "name": "to",
                  "type": "address"
                },
                {
                  "internalType": "uint256",
                  "name": "portIndex",
                  "type": "uint256"
                },
                {
                  "internalType": "uint256",
                  "name": "value",
                  "type": "uint256"
                },
                {
                  "internalType": "bytes",
                  "name": "data",
                  "type": "bytes"
                }
              ],
              "internalType": "struct Solver.Action[]",
              "name": "actions",
              "type": "tuple[]"
            },
            {
              "components": [
                {
                  "internalType": "uint256",
                  "name": "outcomeSlots",
                  "type": "uint256"
                },
                {
                  "internalType": "uint256",
                  "name": "parentCollectionPartitionIndex",
                  "type": "uint256"
                },
                {
                  "internalType": "uint256",
                  "name": "amount",
                  "type": "uint256"
                },
                {
                  "internalType": "uint256[]",
                  "name": "partition",
                  "type": "uint256[]"
                },
                {
                  "internalType": "uint256[][]",
                  "name": "recipientAddressPorts",
                  "type": "uint256[][]"
                },
                {
                  "internalType": "uint256[][]",
                  "name": "recipientAmounts",
                  "type": "uint256[][]"
                },
                {
                  "internalType": "string",
                  "name": "metadata",
                  "type": "string"
                }
              ],
              "internalType": "struct Solver.ConditionBase",
              "name": "conditionBase",
              "type": "tuple"
            }
          ],
          "internalType": "struct Solver.Config",
          "name": "_config",
          "type": "tuple"
        }
      ],
      "name": "deployChild",
      "outputs": [
        {
          "internalType": "contract Solver",
          "name": "_solver",
          "type": "address"
        }
      ],
      "stateMutability": "nonpayable",
      "type": "function"
    },
    {
      "inputs": [],
      "name": "executeSolve",
      "outputs": [],
      "stateMutability": "nonpayable",
      "type": "function"
    },
    {
      "inputs": [
        {
          "internalType": "uint256",
          "name": "_partitionIndex",
          "type": "uint256"
        }
      ],
      "name": "getCanonCollectionId",
      "outputs": [
        {
          "internalType": "bytes32",
          "name": "_id",
          "type": "bytes32"
        }
      ],
      "stateMutability": "view",
      "type": "function"
    },
    {
      "inputs": [
        {
          "internalType": "uint256",
          "name": "_port",
          "type": "uint256"
        },
        {
          "internalType": "uint256",
          "name": "_key",
          "type": "uint256"
        }
      ],
      "name": "getOutput",
      "outputs": [
        {
          "internalType": "bytes",
          "name": "data",
          "type": "bytes"
        }
      ],
      "stateMutability": "view",
      "type": "function"
    },
    {
      "inputs": [],
      "name": "getPayouts",
      "outputs": [
        {
          "internalType": "uint256[]",
          "name": "",
          "type": "uint256[]"
        }
      ],
      "stateMutability": "view",
      "type": "function"
    },
    {
      "inputs": [
        {
          "internalType": "uint256",
          "name": "_index",
          "type": "uint256"
        }
      ],
      "name": "ingest",
      "outputs": [],
      "stateMutability": "nonpayable",
      "type": "function"
    },
    {
      "inputs": [
        {
          "internalType": "contract IERC20",
          "name": "_collateralToken",
          "type": "address"
        },
        {
          "internalType": "address",
          "name": "_chainParent",
          "type": "address"
        },
        {
          "internalType": "uint256",
          "name": "_chainIndex",
          "type": "uint256"
        },
        {
          "components": [
            {
              "internalType": "contract Solver",
              "name": "implementation",
              "type": "address"
            },
            {
              "internalType": "address",
              "name": "keeper",
              "type": "address"
            },
            {
              "internalType": "address",
              "name": "arbitrator",
              "type": "address"
            },
            {
              "internalType": "uint256",
              "name": "timelockSeconds",
              "type": "uint256"
            },
            {
              "internalType": "bytes",
              "name": "data",
              "type": "bytes"
            },
            {
              "components": [
                {
                  "internalType": "uint256",
                  "name": "executions",
                  "type": "uint256"
                },
                {
                  "internalType": "bool",
                  "name": "isDeferred",
                  "type": "bool"
                },
                {
                  "internalType": "bool",
                  "name": "isConstant",
                  "type": "bool"
                },
                {
                  "internalType": "uint8",
                  "name": "port",
                  "type": "uint8"
                },
                {
                  "internalType": "uint256",
                  "name": "key",
                  "type": "uint256"
                },
                {
                  "internalType": "uint256",
                  "name": "solverIndex",
                  "type": "uint256"
                },
                {
                  "internalType": "bytes",
                  "name": "data",
                  "type": "bytes"
                }
              ],
              "internalType": "struct Solver.Ingest[]",
              "name": "ingests",
              "type": "tuple[]"
            },
            {
              "components": [
                {
                  "internalType": "bool",
                  "name": "executed",
                  "type": "bool"
                },
                {
                  "internalType": "bool",
                  "name": "isPort",
                  "type": "bool"
                },
                {
                  "internalType": "address",
                  "name": "to",
                  "type": "address"
                },
                {
                  "internalType": "uint256",
                  "name": "portIndex",
                  "type": "uint256"
                },
                {
                  "internalType": "uint256",
                  "name": "value",
                  "type": "uint256"
                },
                {
                  "internalType": "bytes",
                  "name": "data",
                  "type": "bytes"
                }
              ],
              "internalType": "struct Solver.Action[]",
              "name": "actions",
              "type": "tuple[]"
            },
            {
              "components": [
                {
                  "internalType": "uint256",
                  "name": "outcomeSlots",
                  "type": "uint256"
                },
                {
                  "internalType": "uint256",
                  "name": "parentCollectionPartitionIndex",
                  "type": "uint256"
                },
                {
                  "internalType": "uint256",
                  "name": "amount",
                  "type": "uint256"
                },
                {
                  "internalType": "uint256[]",
                  "name": "partition",
                  "type": "uint256[]"
                },
                {
                  "internalType": "uint256[][]",
                  "name": "recipientAddressPorts",
                  "type": "uint256[][]"
                },
                {
                  "internalType": "uint256[][]",
                  "name": "recipientAmounts",
                  "type": "uint256[][]"
                },
                {
                  "internalType": "string",
                  "name": "metadata",
                  "type": "string"
                }
              ],
              "internalType": "struct Solver.ConditionBase",
              "name": "conditionBase",
              "type": "tuple"
            }
          ],
          "internalType": "struct Solver.Config",
          "name": "_solverConfig",
          "type": "tuple"
        }
      ],
      "name": "init",
      "outputs": [],
      "stateMutability": "nonpayable",
      "type": "function"
    },
    {
      "inputs": [],
      "name": "keeper",
      "outputs": [
        {
          "internalType": "address",
          "name": "",
          "type": "address"
        }
      ],
      "stateMutability": "view",
      "type": "function"
    },
    {
      "inputs": [
        {
          "internalType": "uint256",
          "name": "",
          "type": "uint256"
        },
        {
          "internalType": "uint256",
          "name": "",
          "type": "uint256"
        }
      ],
      "name": "lockedPorts",
      "outputs": [
        {
          "internalType": "bool",
          "name": "",
          "type": "bool"
        }
      ],
      "stateMutability": "view",
      "type": "function"
    },
    {
      "inputs": [],
      "name": "numConditions",
      "outputs": [
        {
          "internalType": "uint256",
          "name": "",
          "type": "uint256"
        }
      ],
      "stateMutability": "view",
      "type": "function"
    },
    {
      "inputs": [
        {
          "internalType": "address",
          "name": "operator",
          "type": "address"
        },
        {
          "internalType": "address",
          "name": "from",
          "type": "address"
        },
        {
          "internalType": "uint256[]",
          "name": "ids",
          "type": "uint256[]"
        },
        {
          "internalType": "uint256[]",
          "name": "values",
          "type": "uint256[]"
        },
        {
          "internalType": "bytes",
          "name": "data",
          "type": "bytes"
        }
      ],
      "name": "onERC1155BatchReceived",
      "outputs": [
        {
          "internalType": "bytes4",
          "name": "",
          "type": "bytes4"
        }
      ],
      "stateMutability": "nonpayable",
      "type": "function"
    },
    {
      "inputs": [
        {
          "internalType": "address",
          "name": "operator",
          "type": "address"
        },
        {
          "internalType": "address",
          "name": "from",
          "type": "address"
        },
        {
          "internalType": "uint256",
          "name": "id",
          "type": "uint256"
        },
        {
          "internalType": "uint256",
          "name": "value",
          "type": "uint256"
        },
        {
          "internalType": "bytes",
          "name": "data",
          "type": "bytes"
        }
      ],
      "name": "onERC1155Received",
      "outputs": [
        {
          "internalType": "bytes4",
          "name": "",
          "type": "bytes4"
        }
      ],
      "stateMutability": "nonpayable",
      "type": "function"
    },
    {
      "inputs": [
        {
          "internalType": "uint256",
          "name": "",
          "type": "uint256"
        },
        {
          "internalType": "uint256",
          "name": "",
          "type": "uint256"
        }
      ],
      "name": "portVersions",
      "outputs": [
        {
          "internalType": "uint256",
          "name": "",
          "type": "uint256"
        }
      ],
      "stateMutability": "view",
      "type": "function"
    },
    {
      "inputs": [],
      "name": "prepareSolve",
      "outputs": [],
      "stateMutability": "nonpayable",
      "type": "function"
    },
    {
      "inputs": [
        {
          "internalType": "uint256[]",
          "name": "_payouts",
          "type": "uint256[]"
        }
      ],
      "name": "proposePayouts",
      "outputs": [],
      "stateMutability": "nonpayable",
      "type": "function"
    },
    {
      "inputs": [
        {
          "internalType": "bytes32",
          "name": "_trackingId",
          "type": "bytes32"
        }
      ],
      "name": "setTrackingId",
      "outputs": [],
      "stateMutability": "nonpayable",
      "type": "function"
    },
    {
      "inputs": [
        {
          "internalType": "uint256",
          "name": "_solverIndex",
          "type": "uint256"
        },
        {
          "internalType": "bytes",
          "name": "_data",
          "type": "bytes"
        }
      ],
      "name": "staticcallSolver",
      "outputs": [
        {
          "internalType": "bytes",
          "name": "",
          "type": "bytes"
        }
      ],
      "stateMutability": "view",
      "type": "function"
    },
    {
      "inputs": [
        {
          "internalType": "bytes4",
          "name": "interfaceId",
          "type": "bytes4"
        }
      ],
      "name": "supportsInterface",
      "outputs": [
        {
          "internalType": "bool",
          "name": "",
          "type": "bool"
        }
      ],
      "stateMutability": "view",
      "type": "function"
    },
    {
      "inputs": [],
      "name": "timelock",
      "outputs": [
        {
          "internalType": "uint256",
          "name": "",
          "type": "uint256"
        }
      ],
      "stateMutability": "view",
      "type": "function"
    },
    {
      "inputs": [],
      "name": "trackingId",
      "outputs": [
        {
          "internalType": "bytes32",
          "name": "",
          "type": "bytes32"
        }
      ],
      "stateMutability": "view",
      "type": "function"
    },
    {
      "inputs": [
        {
          "internalType": "uint256",
          "name": "",
          "type": "uint256"
        }
      ],
      "name": "uint256Port",
      "outputs": [
        {
          "internalType": "uint256",
          "name": "",
          "type": "uint256"
        }
      ],
      "stateMutability": "view",
      "type": "function"
    }
  ],
  "bytecode": "0x60a06040527f5fbdb2315678afecb367f032d93f642f64180aa300000000000000000000000060805234801561003457600080fd5b5060805160601c61535b61009960003960008181610cf001528181610f280152818161147c01528181611e3b0152818161221f0152818161246b015281816124f701528181612612015281816127a00152818161291d0152612d98015261535b6000f3fe608060405234801561001057600080fd5b50600436106102d35760003560e01c806379502c5511610186578063a99efeae116100e3578063c538edd411610097578063ea8221a911610071578063ea8221a91461055f578063f23a6e6114610567578063ff1ed30c1461057a576102d3565b8063c538edd414610531578063d33219b414610544578063e7fd20591461054c576102d3565b8063b2016bd4116100c8578063b2016bd4146104f6578063ba9bfe62146104fe578063bc197c8114610511576102d3565b8063a99efeae146104db578063aced1661146104ee576102d3565b806396f842901161013a57806398f84bbf1161011f57806398f84bbf146104a25780639f1cf268146104b5578063a33db92b146104c8576102d3565b806396f8429014610487578063972a688b1461049a576102d3565b806382fc80541161016b57806382fc80541461044e578063842918ba1461046157806384dbd39114610474576102d3565b806379502c551461042c57806380c2dde214610446576102d3565b80633df4d2db116102345780635bd9e299116101e85780636c7f8187116101cd5780636c7f8187146104095780636cc6cde11461041157806375d0704514610419576102d3565b80635bd9e299146103ec5780636bf90c84146103f4576102d3565b806348d6bc001161021957806348d6bc00146103d457806355dd978b146103dc5780635bd11123146103e4576102d3565b80633df4d2db146103ac57806348cbb2fc146103cc576102d3565b806326c500071161028b5780632c17b91e116102705780632c17b91e1461037c5780633837b05e146103845780633a275fa2146103a4576102d3565b806326c50007146103465780632b36342714610369576102d3565b80630d06101a116102bc5780630d06101a146103165780630d49722d1461032b57806318f792781461033e576102d3565b806301ffc9a7146102d8578063093a9d6514610301575b600080fd5b6102eb6102e6366004613670565b61058d565b6040516102f89190613dbf565b60405180910390f35b6103096105d3565b6040516102f89190613dca565b610329610324366004613640565b6105d9565b005b61032961033936600461353d565b610607565b610329610783565b610359610354366004613640565b6108ac565b6040516102f89493929190613e05565b61032961037736600461380d565b6108e9565b6103296108f9565b610397610392366004613640565b610909565b6040516102f89190613d1b565b610329610a37565b6103bf6103ba3660046137a7565b610b77565b6040516102f89190613e72565b610309610c0e565b610329610c14565b610397610e56565b610329610e65565b610397610f26565b6103fc610f4a565b6040516102f89190613dac565b6102eb610fe1565b61039761108d565b6103bf610427366004613640565b61109c565b610434611136565b6040516102f896959493929190614067565b610397611433565b6102eb61045c3660046137ec565b611442565b6102eb61046f366004613640565b611462565b610309610482366004613640565b611477565b610309610495366004613640565b6115d8565b6103296115ea565b6103096104b03660046137ec565b6116ab565b6103976104c336600461376c565b6116c8565b6103bf6104d63660046137ec565b6117d3565b6103096104e9366004613640565b61191e565b610397611930565b61039761193f565b61032961050c366004613640565b61194e565b61052461051f366004613408565b611c9f565b6040516102f89190613e5d565b61039761053f366004613640565b611ccc565b610309611ce7565b61032961055a36600461357d565b611ced565b610309611ef1565b6105246105753660046134c3565b611ef7565b610329610588366004613702565b611f22565b60006001600160e01b031982167f4e2312e00000000000000000000000000000000000000000000000000000000014806105cb57506105cb82611fe5565b90505b919050565b600f5490565b601554156106025760405162461bcd60e51b81526004016105f9906141f0565b60405180910390fd5b601555565b6002546001600160a01b031633146106315760405162461bcd60e51b81526004016105f99061463e565b6001600f805461064390600190614936565b8154811061066157634e487b7160e01b600052603260045260246000fd5b600091825260209091206004600590920201015460ff16600681111561069757634e487b7160e01b600052602160045260246000fd5b146106b45760405162461bcd60e51b81526004016105f990614486565b600f8054600291906106c890600190614936565b815481106106e657634e487b7160e01b600052603260045260246000fd5b60009182526020909120600460059092020101805460ff1916600183600681111561072157634e487b7160e01b600052602160045260246000fd5b0217905550600f80548391839161073a90600190614936565b8154811061075857634e487b7160e01b600052603260045260246000fd5b90600052602060002090600502016003019190610776929190613184565b5061077f612017565b5050565b6003546001600160a01b031633146107ad5760405162461bcd60e51b81526004016105f990614327565b6002600f80546107bf90600190614936565b815481106107dd57634e487b7160e01b600052603260045260246000fd5b600091825260209091206004600590920201015460ff16600681111561081357634e487b7160e01b600052602160045260246000fd5b146108305760405162461bcd60e51b81526004016105f9906144e3565b600f80546003919061084490600190614936565b8154811061086257634e487b7160e01b600052603260045260246000fd5b60009182526020909120600460059092020101805460ff1916600183600681111561089d57634e487b7160e01b600052602160045260246000fd5b02179055506108aa612017565b565b600f81815481106108bc57600080fd5b60009182526020909120600590910201805460018201546002830154600490930154919350919060ff1684565b6108f4838383612034565b505050565b6109016120f4565b6108aa6123b2565b600060135482141561091c5750306105ce565b6013548210156109ad57601154604051631c1bd82f60e11b81526001600160a01b0390911690633837b05e90610956908590600401613dca565b60206040518083038186803b15801561096e57600080fd5b505afa158015610982573d6000803e3d6000fd5b505050506040513d601f19601f820116820180604052508101906109a691906133ec565b90506105ce565b6013548211156105ce57601254604051631c1bd82f60e11b81526001600160a01b0390911690633837b05e906109e7908590600401613dca565b60206040518083038186803b1580156109ff57600080fd5b505afa158015610a13573d6000803e3d6000fd5b505050506040513d601f19601f820116820180604052508101906105cb91906133ec565b6000600f8054610a4990600190614936565b81548110610a6757634e487b7160e01b600052603260045260246000fd5b600091825260209091206004600590920201015460ff166006811115610a9d57634e487b7160e01b600052602160045260246000fd5b14610aba5760405162461bcd60e51b81526004016105f990614193565b610ac2610fe1565b610ade5760405162461bcd60e51b81526004016105f9906145ac565b600f805460019190610af1908390614936565b81548110610b0f57634e487b7160e01b600052603260045260246000fd5b60009182526020909120600460059092020101805460ff19166001836006811115610b4a57634e487b7160e01b600052602160045260246000fd5b0217905550610b57612417565b610b5f6124e6565b610b67612601565b610b6f612ac5565b6108aa612aed565b60606000610b8484610909565b9050600080826001600160a01b031685604051610ba19190613c72565b600060405180830381855afa9150503d8060008114610bdc576040519150601f19603f3d011682016040523d82523d6000602084013e610be1565b606091505b509150915081610c035760405162461bcd60e51b81526004016105f990614577565b925050505b92915050565b60155481565b6002546001600160a01b03163314610c3e5760405162461bcd60e51b81526004016105f99061463e565b6014544211610c5f5760405162461bcd60e51b81526004016105f9906143bb565b6002600f8054610c7190600190614936565b81548110610c8f57634e487b7160e01b600052603260045260246000fd5b600091825260209091206004600590920201015460ff166006811115610cc557634e487b7160e01b600052602160045260246000fd5b14610ce25760405162461bcd60e51b81526004016105f990614136565b600f80546001600160a01b037f0000000000000000000000000000000000000000000000000000000000000000169163c49298ac91610d2390600190614936565b81548110610d4157634e487b7160e01b600052603260045260246000fd5b6000918252602090912060059091020154600f8054610d6290600190614936565b81548110610d8057634e487b7160e01b600052603260045260246000fd5b90600052602060002090600502016003016040518363ffffffff1660e01b8152600401610dae929190613dec565b600060405180830381600087803b158015610dc857600080fd5b505af1158015610ddc573d6000803e3d6000fd5b505050506006600f6001600f80549050610df69190614936565b81548110610e1457634e487b7160e01b600052603260045260246000fd5b60009182526020909120600460059092020101805460ff19166001836006811115610e4f57634e487b7160e01b600052602160045260246000fd5b0217905550565b6012546001600160a01b031681565b6003546001600160a01b03163314610e8f5760405162461bcd60e51b81526004016105f990614327565b6003600f8054610ea190600190614936565b81548110610ebf57634e487b7160e01b600052603260045260246000fd5b600091825260209091206004600590920201015460ff166006811115610ef557634e487b7160e01b600052602160045260246000fd5b14610f125760405162461bcd60e51b81526004016105f9906143f2565b600f80546004919061084490600190614936565b7f000000000000000000000000000000000000000000000000000000000000000081565b600f805460609190610f5e90600190614936565b81548110610f7c57634e487b7160e01b600052603260045260246000fd5b9060005260206000209060050201600301805480602002602001604051908101604052809291908181526020018280548015610fd757602002820191906000526020600020905b815481526020019060010190808311610fc3575b5050505050905090565b60006001815b60065481101561108757600680548290811061101357634e487b7160e01b600052603260045260246000fd5b600091825260209091206001600590920201015460ff16801561106b5750600f54600680548390811061105657634e487b7160e01b600052603260045260246000fd5b90600052602060002090600502016000015414155b1561107557600091505b8061107f81614dc4565b915050610fe7565b50905090565b6003546001600160a01b031690565b601860205260009081526040902080546110b590614d7c565b80601f01602080910402602001604051908101604052809291908181526020018280546110e190614d7c565b801561112e5780601f106111035761010080835404028352916020019161112e565b820191906000526020600020905b81548152906001019060200180831161111157829003601f168201915b505050505081565b60018054600254600354600454600580546001600160a01b03958616969486169590931693919261116690614d7c565b80601f016020809104026020016040519081016040528092919081815260200182805461119290614d7c565b80156111df5780601f106111b4576101008083540402835291602001916111df565b820191906000526020600020905b8154815290600101906020018083116111c257829003601f168201915b505050505090806007016040518060e00160405290816000820154815260200160018201548152602001600282015481526020016003820180548060200260200160405190810160405280929190818152602001828054801561126157602002820191906000526020600020905b81548152602001906001019080831161124d575b5050505050815260200160048201805480602002602001604051908101604052809291908181526020016000905b828210156112fb576000848152602090819020830180546040805182850281018501909152818152928301828280156112e757602002820191906000526020600020905b8154815260200190600101908083116112d3575b50505050508152602001906001019061128f565b50505050815260200160058201805480602002602001604051908101604052809291908181526020016000905b828210156113945760008481526020908190208301805460408051828502810185019091528181529283018282801561138057602002820191906000526020600020905b81548152602001906001019080831161136c575b505050505081526020019060010190611328565b5050505081526020016006820180546113ac90614d7c565b80601f01602080910402602001604051908101604052809291908181526020018280546113d890614d7c565b80156114255780601f106113fa57610100808354040283529160200191611425565b820191906000526020600020905b81548152906001019060200180831161140857829003601f168201915b505050505081525050905086565b6011546001600160a01b031681565b601b60209081526000928352604080842090915290825290205460ff1681565b60176020526000908152604090205460ff1681565b6000807f00000000000000000000000000000000000000000000000000000000000000006001600160a01b031663856296f7600f6001600f805490506114bd9190614936565b815481106114db57634e487b7160e01b600052603260045260246000fd5b906000526020600020906005020160010154600f6001600f805490506115019190614936565b8154811061151f57634e487b7160e01b600052603260045260246000fd5b9060005260206000209060050201600201546001600701600301878154811061155857634e487b7160e01b600052603260045260246000fd5b90600052602060002001546040518463ffffffff1660e01b815260040161158193929190613e47565b60206040518083038186803b15801561159957600080fd5b505afa1580156115ad573d6000803e3d6000fd5b505050506040513d601f19601f820116820180604052508101906115d19190613658565b9392505050565b60196020526000908152604090205481565b6003546001600160a01b031633146116145760405162461bcd60e51b81526004016105f990614327565b6004600f805461162690600190614936565b8154811061164457634e487b7160e01b600052603260045260246000fd5b600091825260209091206004600590920201015460ff16600681111561167a57634e487b7160e01b600052602160045260246000fd5b146116975760405162461bcd60e51b81526004016105f99061425e565b600f80546002919061084490600190614936565b601c60209081526000928352604080842090915290825290205481565b6012546000906001600160a01b0316156116f45760405162461bcd60e51b81526004016105f9906142bb565b60105460135473e7f1725e7734ce288f8367e1bb143e90bb3f0512916340e260d3916001600160a01b0390911690309061172f9060016148ff565b866040518563ffffffff1660e01b815260040161174f9493929190613f06565b602060405180830381600087803b15801561176957600080fd5b505af115801561177d573d6000803e3d6000fd5b505050506040513d601f19601f820116820180604052508101906117a191906133ec565b6012805473ffffffffffffffffffffffffffffffffffffffff19166001600160a01b0392831617908190551692915050565b6000828152601b6020908152604080832084845290915290205460609060ff16806118185750600f546000848152601c60209081526040808320868452909152902054145b6118345760405162461bcd60e51b81526004016105f9906145e1565b8261187857600082815260166020908152604091829020549151611862926001600160a01b03169101613d1b565b6040516020818303038152906040529050610c08565b82600114156118a4576000828152601760209081526040918290205491516118629260ff169101613dbf565b82600214156118cc576000828152601860209081526040918290209151611862929101613e85565b82600314156118f557600082815260196020908152604091829020549151611862929101613dca565b8260031415610c08576000828152601a6020908152604091829020549151611862929101613dca565b601a6020526000908152604090205481565b6002546001600160a01b031690565b6010546001600160a01b031681565b600680548290811061197057634e487b7160e01b600052603260045260246000fd5b60009182526020822060059091020180549161198b83614dc4565b909155505060068054829081106119b257634e487b7160e01b600052603260045260246000fd5b906000526020600020906005020160010160019054906101000a900460ff1615611b1a57611b15600160050182815481106119fd57634e487b7160e01b600052603260045260246000fd5b906000526020600020906005020160010160029054906101000a900460ff1660016005018381548110611a4057634e487b7160e01b600052603260045260246000fd5b90600052602060002090600502016002015460016005018481548110611a7657634e487b7160e01b600052603260045260246000fd5b90600052602060002090600502016004018054611a9290614d7c565b80601f0160208091040260200160405190810160405280929190818152602001828054611abe90614d7c565b8015611b0b5780601f10611ae057610100808354040283529160200191611b0b565b820191906000526020600020905b815481529060010190602001808311611aee57829003601f168201915b5050505050612bdd565b611c9c565b6000611c1860016005018381548110611b4357634e487b7160e01b600052603260045260246000fd5b90600052602060002090600502016003015460016005018481548110611b7957634e487b7160e01b600052603260045260246000fd5b90600052602060002090600502016004018054611b9590614d7c565b80601f0160208091040260200160405190810160405280929190818152602001828054611bc190614d7c565b8015611c0e5780601f10611be357610100808354040283529160200191611c0e565b820191906000526020600020905b815481529060010190602001808311611bf157829003601f168201915b5050505050610b77565b905061077f60016005018381548110611c4157634e487b7160e01b600052603260045260246000fd5b906000526020600020906005020160010160029054906101000a900460ff1660016005018481548110611c8457634e487b7160e01b600052603260045260246000fd5b90600052602060002090600502016002015483612034565b50565b7fbc197c810000000000000000000000000000000000000000000000000000000098975050505050505050565b6016602052600090815260409020546001600160a01b031681565b60145481565b6003546001600160a01b03163314611d175760405162461bcd60e51b81526004016105f990614327565b6004600f8054611d2990600190614936565b81548110611d4757634e487b7160e01b600052603260045260246000fd5b600091825260209091206004600590920201015460ff166006811115611d7d57634e487b7160e01b600052602160045260246000fd5b14611d9a5760405162461bcd60e51b81526004016105f99061425e565b6014544211611dbb5760405162461bcd60e51b81526004016105f9906143bb565b600f805460059190611dcf90600190614936565b81548110611ded57634e487b7160e01b600052603260045260246000fd5b60009182526020909120600460059092020101805460ff19166001836006811115611e2857634e487b7160e01b600052602160045260246000fd5b0217905550600f80546001600160a01b037f0000000000000000000000000000000000000000000000000000000000000000169163c49298ac91611e6e90600190614936565b81548110611e8c57634e487b7160e01b600052603260045260246000fd5b906000526020600020906005020160000154836040518363ffffffff1660e01b8152600401611ebc929190613dd3565b600060405180830381600087803b158015611ed657600080fd5b505af1158015611eea573d6000803e3d6000fd5b5050505050565b60135481565b7ff23a6e61000000000000000000000000000000000000000000000000000000009695505050505050565b3373e7f1725e7734ce288f8367e1bb143e90bb3f051214611f555760405162461bcd60e51b81526004016105f990614675565b6000611f6760408301602084016133d0565b6001600160a01b03161415611f8e5760405162461bcd60e51b81526004016105f990614227565b601080546001600160a01b0380871673ffffffffffffffffffffffffffffffffffffffff199283161790925560118054928616929091169190911790556013829055806001611fdd8282615084565b505050505050565b6001600160e01b031981167f01ffc9a70000000000000000000000000000000000000000000000000000000014919050565b600454612025906001614917565b61202f90426148ff565b601455565b60ff8084166000908152601b6020908152604080832086845290915290205416156120715760405162461bcd60e51b81526004016105f9906146d2565b600f5461208090600190614936565b60ff84166000908152601c60209081526040808320868452909152902054146120bb5760405162461bcd60e51b81526004016105f99061435e565b60ff83166000908152601c6020908152604080832085845290915281208054916120e483614dc4565b91905055506108f4838383612c49565b6120fc6131cf565b600f5460405161211491600e91309190602001613c8e565b60408051601f19818403018152919052805160209091012081526011546001600160a01b031661214a57600060208201526121ea565b6011546009546040517f84dbd3910000000000000000000000000000000000000000000000000000000081526001600160a01b03909216916384dbd3919161219491600401613dca565b60206040518083038186803b1580156121ac57600080fd5b505afa1580156121c0573d6000803e3d6000fd5b505050506040513d601f19601f820116820180604052508101906121e49190613658565b60208201525b80516008546040517f852c6ae20000000000000000000000000000000000000000000000000000000081526001600160a01b037f0000000000000000000000000000000000000000000000000000000000000000169263852c6ae2926122569230929190600401613d72565b60206040518083038186803b15801561226e57600080fd5b505afa158015612282573d6000803e3d6000fd5b505050506040513d601f19601f820116820180604052508101906122a69190613658565b60408201908152600f8054600181018255600091909152825160059091027f8d1108e10bcb7c27dddfc02ed9d693a074039d026cf4ea4240b40f7d581ac80281019182556020808501517f8d1108e10bcb7c27dddfc02ed9d693a074039d026cf4ea4240b40f7d581ac80383015592517f8d1108e10bcb7c27dddfc02ed9d693a074039d026cf4ea4240b40f7d581ac804820155606084015180518594612371937f8d1108e10bcb7c27dddfc02ed9d693a074039d026cf4ea4240b40f7d581ac805019201906131fa565b50608082015160048201805460ff191660018360068111156123a357634e487b7160e01b600052602160045260246000fd5b02179055505050611c9c612d96565b60005b600654811015611c9c5760068054829081106123e157634e487b7160e01b600052603260045260246000fd5b600091825260209091206001600590920201015460ff16612405576124058161194e565b8061240f81614dc4565b9150506123b5565b6011546001600160a01b03166108aa57601054600a546040517f095ea7b30000000000000000000000000000000000000000000000000000000081526001600160a01b039092169163095ea7b391612494917f00000000000000000000000000000000000000000000000000000000000000009190600401613d93565b602060405180830381600087803b1580156124ae57600080fd5b505af11580156124c2573d6000803e3d6000fd5b505050506040513d601f19601f82011682018060405250810190611c9c9190613624565b601054600f80546001600160a01b037f00000000000000000000000000000000000000000000000000000000000000008116936372ce42759391169161252e90600190614936565b8154811061254c57634e487b7160e01b600052603260045260246000fd5b906000526020600020906005020160010154600f6001600f805490506125729190614936565b8154811061259057634e487b7160e01b600052603260045260246000fd5b6000918252602090912060026005909202010154600a546040516001600160e01b031960e087901b1681526125cd94939291600b91600401614027565b600060405180830381600087803b1580156125e757600080fd5b505af11580156125fb573d6000803e3d6000fd5b50505050565b60005b600b54811015611c9c5760007f00000000000000000000000000000000000000000000000000000000000000006001600160a01b031663856296f7600f6001600f805490506126539190614936565b8154811061267157634e487b7160e01b600052603260045260246000fd5b906000526020600020906005020160010154600f6001600f805490506126979190614936565b815481106126b557634e487b7160e01b600052603260045260246000fd5b906000526020600020906005020160020154600160070160030186815481106126ee57634e487b7160e01b600052603260045260246000fd5b90600052602060002001546040518463ffffffff1660e01b815260040161271793929190613e47565b60206040518083038186803b15801561272f57600080fd5b505afa158015612743573d6000803e3d6000fd5b505050506040513d601f19601f820116820180604052508101906127679190613658565b6010546040517f39dd75300000000000000000000000000000000000000000000000000000000081529192506000916001600160a01b037f00000000000000000000000000000000000000000000000000000000000000008116926339dd7530926127db9291909116908690600401613d93565b60206040518083038186803b1580156127f357600080fd5b505afa158015612807573d6000803e3d6000fd5b505050506040513d601f19601f8201168201806040525081019061282b9190613658565b905060005b600c54811015612aaf57600d8054600091908690811061286057634e487b7160e01b600052603260045260246000fd5b90600052602060002001828154811061288957634e487b7160e01b600052603260045260246000fd5b90600052602060002001541115612a9d5761291b60166000600160070160040187815481106128c857634e487b7160e01b600052603260045260246000fd5b9060005260206000200184815481106128f157634e487b7160e01b600052603260045260246000fd5b600091825260208083209091015483528201929092526040019020546001600160a01b0316612e2f565b7f00000000000000000000000000000000000000000000000000000000000000006001600160a01b031663f242432a30601660006001600701600401898154811061297657634e487b7160e01b600052603260045260246000fd5b90600052602060002001868154811061299f57634e487b7160e01b600052603260045260246000fd5b9060005260206000200154815260200190815260200160002060009054906101000a90046001600160a01b031685600160070160050189815481106129f457634e487b7160e01b600052603260045260246000fd5b906000526020600020018681548110612a1d57634e487b7160e01b600052603260045260246000fd5b9060005260206000200154601554604051602001612a3b9190613dca565b6040516020818303038152906040526040518663ffffffff1660e01b8152600401612a6a959493929190613d2f565b600060405180830381600087803b158015612a8457600080fd5b505af1158015612a98573d6000803e3d6000fd5b505050505b80612aa781614dc4565b915050612830565b5050508080612abd90614dc4565b915050612604565b60005b600754811015611c9c57612adb81612ea0565b80612ae581614dc4565b915050612ac8565b6012546001600160a01b031615801590612b885750601260009054906101000a90046001600160a01b03166001600160a01b0316636c7f81876040518163ffffffff1660e01b815260040160206040518083038186803b158015612b5057600080fd5b505afa158015612b64573d6000803e3d6000fd5b505050506040513d601f19601f82011682018060405250810190612b889190613624565b156108aa57601260009054906101000a90046001600160a01b03166001600160a01b0316633a275fa26040518163ffffffff1660e01b8152600401600060405180830381600087803b1580156125e757600080fd5b60ff8084166000908152601b602090815260408083208684529091529020541615612c1a5760405162461bcd60e51b81526004016105f9906142f0565b60ff83166000908152601b602090815260408083208584529091529020805460ff191660011790556108f48383835b60ff8316612ca35780806020019051810190612c6591906133ec565b6000838152601660205260409020805473ffffffffffffffffffffffffffffffffffffffff19166001600160a01b03929092169190911790556108f4565b8260ff1660011415612ce55780806020019051810190612cc39190613624565b6000838152601760205260409020805460ff19169115159190911790556108f4565b8260ff1660021415612d2e5780806020019051810190612d059190613698565b60008381526018602090815260409091208251612d289391929190910190613235565b506108f4565b8260ff1660031415612d625780806020019051810190612d4e9190613658565b6000838152601960205260409020556108f4565b8260ff16600414156108f45780806020019051810190612d829190613658565b6000838152601a6020526040902055505050565b7f00000000000000000000000000000000000000000000000000000000000000006001600160a01b031663d96ee75430600f6001600f80549050612dda9190614936565b81548110612df857634e487b7160e01b600052603260045260246000fd5b60009182526020909120600590910201546008546040516001600160e01b031960e086901b1681526125cd93929190600401613d72565b611c9c81604051602401612e439190613d1b565b60408051601f198184030181529190526020810180517bffffffffffffffffffffffffffffffffffffffffffffffffffffffff167f2c2ecbc200000000000000000000000000000000000000000000000000000000179052613163565b6007805482908110612ec257634e487b7160e01b600052603260045260246000fd5b600091825260209091206004909102015460ff1615612ef35760405162461bcd60e51b81526004016105f990614709565b6007805482908110612f1557634e487b7160e01b600052603260045260246000fd5b906000526020600020906004020160020154471015612f465760405162461bcd60e51b81526004016105f99061444f565b6001806006018281548110612f6b57634e487b7160e01b600052603260045260246000fd5b60009182526020822060049190910201805460ff1916921515929092179091556007805483908110612fad57634e487b7160e01b600052603260045260246000fd5b60009182526020918290206040805160c081018252600493909302909101805460ff80821615158552610100820416151594840194909452620100009093046001600160a01b031690820152600182015460608201526002820154608082015260038201805491929160a08401919061302590614d7c565b80601f016020809104026020016040519081016040528092919081815260200182805461305190614d7c565b801561309e5780601f106130735761010080835404028352916020019161309e565b820191906000526020600020905b81548152906001019060200180831161308157829003601f168201915b50505050508152505090508060200151156130d757606081015160009081526016602052604090819020546001600160a01b0316908201525b60008082604001516001600160a01b031683608001518460a001516040516130ff9190613c72565b60006040518083038185875af1925050503d806000811461313c576040519150601f19603f3d011682016040523d82523d6000602084013e613141565b606091505b5091509150816125fb5760405162461bcd60e51b81526004016105f990614540565b80516a636f6e736f6c652e6c6f67602083016000808483855afa5050505050565b8280548282559060005260206000209081019282156131bf579160200282015b828111156131bf5782358255916020019190600101906131a4565b506131cb9291506132a8565b5090565b6040805160a08101825260008082526020820181905291810182905260608082015290608082015290565b8280548282559060005260206000209081019282156131bf579160200282015b828111156131bf57825182559160200191906001019061321a565b82805461324190614d7c565b90600052602060002090601f01602090048101928261326357600085556131bf565b82601f1061327c57805160ff19168380011785556131bf565b828001600101855582156131bf57918201828111156131bf57825182559160200191906001019061321a565b5b808211156131cb57600081556001016132a9565b80356105ce816152f3565b60008083601f8401126132d9578182fd5b50813567ffffffffffffffff8111156132f0578182fd5b602083019150836020808302850101111561330a57600080fd5b9250929050565b80356105ce81615308565b60008083601f84011261332d578182fd5b50813567ffffffffffffffff811115613344578182fd5b60208301915083602082850101111561330a57600080fd5b600082601f83011261336c578081fd5b813561337f61337a82614820565b6147f6565b818152846020838601011115613393578283fd5b816020850160208301379081016020019190915292915050565b600061010082840312156133bf578081fd5b50919050565b80356105ce81615316565b6000602082840312156133e1578081fd5b81356115d1816152f3565b6000602082840312156133fd578081fd5b81516115d1816152f3565b60008060008060008060008060a0898b031215613423578384fd5b883561342e816152f3565b9750602089013561343e816152f3565b9650604089013567ffffffffffffffff8082111561345a578586fd5b6134668c838d016132c8565b909850965060608b013591508082111561347e578586fd5b61348a8c838d016132c8565b909650945060808b01359150808211156134a2578384fd5b506134af8b828c0161331c565b999c989b5096995094979396929594505050565b60008060008060008060a087890312156134db578182fd5b86356134e6816152f3565b955060208701356134f6816152f3565b94506040870135935060608701359250608087013567ffffffffffffffff81111561351f578283fd5b61352b89828a0161331c565b979a9699509497509295939492505050565b6000806020838503121561354f578182fd5b823567ffffffffffffffff811115613565578283fd5b613571858286016132c8565b90969095509350505050565b6000602080838503121561358f578182fd5b823567ffffffffffffffff808211156135a6578384fd5b818501915085601f8301126135b9578384fd5b8135818111156135cb576135cb614e0b565b83810291506135db8483016147f6565b8181528481019084860184860187018a10156135f5578788fd5b8795505b838610156136175780358352600195909501949186019186016135f9565b5098975050505050505050565b600060208284031215613635578081fd5b81516115d181615308565b600060208284031215613651578081fd5b5035919050565b600060208284031215613669578081fd5b5051919050565b600060208284031215613681578081fd5b81356001600160e01b0319811681146115d1578182fd5b6000602082840312156136a9578081fd5b815167ffffffffffffffff8111156136bf578182fd5b8201601f810184136136cf578182fd5b80516136dd61337a82614820565b8181528560208385010111156136f1578384fd5b610c03826020830160208601614d50565b60008060008060808587031215613717578182fd5b8435613722816152f3565b93506020850135613732816152f3565b925060408501359150606085013567ffffffffffffffff811115613754578182fd5b613760878288016133ad565b91505092959194509250565b60006020828403121561377d578081fd5b813567ffffffffffffffff811115613793578182fd5b61379f848285016133ad565b949350505050565b600080604083850312156137b9578182fd5b82359150602083013567ffffffffffffffff8111156137d6578182fd5b6137e28582860161335c565b9150509250929050565b600080604083850312156137fe578182fd5b50508035926020909101359150565b600080600060608486031215613821578081fd5b833561382c81615316565b925060208401359150604084013567ffffffffffffffff81111561384e578182fd5b61385a8682870161335c565b9150509250925092565b6001600160a01b03169052565b818352602080840193600091908185020181018584845b878110156138be57828403895261389f8288614854565b6138aa868284613aa5565b9a87019a9550505090840190600101613888565b5091979650505050505050565b6000815180845260208085018081965082840281019150828601855b858110156138be5782840389526138ff848351613af2565b988501989350908401906001016138e7565b818352602080840193600091908185020181018584845b878110156138be578284038952813560be19883603018112613948578687fd5b870160c0813561395781615308565b151586528187013561396881615308565b151586880152604061397b8382016132bd565b61398782890182613864565b5050606082810135908701526080808301359087015260a06139ab8184018461489c565b935082828901526139bf8389018583613b64565b9c89019c97505050928601925050600101613928565b818352602080840193600091908185020181018584845b878110156138be578284038952613a0382886148e1565b60e08135865286820135613a1681615308565b613a2288880182613b5e565b506040613a30818401613311565b613a3c82890182613b5e565b50506060613a4b8184016133c5565b613a5782890182613c6b565b50506080828101359087015260a0808301359087015260c0613a7b8184018461489c565b93508282890152613a8f8389018583613b64565b9c89019c975050509286019250506001016139ec565b60008284527f07ffffffffffffffffffffffffffffffffffffffffffffffffffffffffffffff831115613ad6578081fd5b6020830280836020870137939093016020019283525090919050565b6000815180845260208085019450808401835b83811015613b2157815187529582019590820190600101613b05565b509495945050505050565b6000815480845260208085019450838352808320835b83811015613b2157815487529582019560019182019101613b42565b15159052565b60008284528282602086013780602084860101526020601f19601f85011685010190509392505050565b60008151808452613ba6816020860160208601614d50565b601f01601f19169290920160200192915050565b6000813583526020820135602084015260408201356040840152613be16060830183614854565b60e06060860152613bf660e086018284613aa5565b915050613c066080840184614854565b8583036080870152613c19838284613871565b92505050613c2a60a0840184614854565b85830360a0870152613c3d838284613871565b92505050613c4e60c084018461489c565b85830360c0870152613c61838284613b64565b9695505050505050565b60ff169052565b60008251613c84818460208701614d50565b9190910192915050565b6000808554613c9c81614d7c565b60018281168015613cb45760018114613cc557613cf1565b60ff19841687528287019450613cf1565b8986526020808720875b85811015613ce85781548a820152908401908201613ccf565b50505082870194505b5050505060609490941b6bffffffffffffffffffffffff1916845250506014820152603401919050565b6001600160a01b0391909116815260200190565b60006001600160a01b03808816835280871660208401525084604083015283606083015260a06080830152613d6760a0830184613b8e565b979650505050505050565b6001600160a01b039390931683526020830191909152604082015260600190565b6001600160a01b03929092168252602082015260400190565b6000602082526115d16020830184613af2565b901515815260200190565b90815260200190565b60008382526040602083015261379f6040830184613af2565b60008382526040602083015261379f6040830184613b2c565b84815260208101849052604081018390526080810160078310613e3857634e487b7160e01b600052602160045260246000fd5b82606083015295945050505050565b9283526020830191909152604082015260600190565b6001600160e01b031991909116815260200190565b6000602082526115d16020830184613b8e565b60006020808352818454613e9881614d7c565b80848701526040600180841660008114613eb95760018114613ecd57613ef8565b60ff19851689840152606089019550613ef8565b898852868820885b85811015613ef05781548b8201860152908301908801613ed5565b8a0184019650505b509398975050505050505050565b60006001600160a01b03808716835280861660208401525083604083015260806060830152613f4060808301613f3b856132bd565b613864565b613f4c602084016132bd565b613f5960a0840182613864565b50613f66604084016132bd565b613f7360c0840182613864565b50606083013560e0830152613f8b608084018461489c565b61010084810152613fa161018085018284613b64565b915050613fb160a0850185614854565b607f198086850301610120870152613fca8483856139d5565b9350613fd960c0880188614854565b935091508086850301610140870152613ff3848484613911565b935061400260e08801886148e1565b92508086850301610160870152505061401b8282613bba565b98975050505050505050565b60006001600160a01b038716825285602083015284604083015260a0606083015261405560a0830185613b2c565b90508260808301529695505050505050565b60006001600160a01b038089168352808816602084015280871660408401525084606083015260c060808301526140a160c0830185613b8e565b82810360a0840152835181526020840151602082015260408401516040820152606084015160e060608301526140da60e0830182613af2565b9050608085015182820360808401526140f382826138cb565b91505060a085015182820360a084015261410d82826138cb565b91505060c085015182820360c08401526141278282613b8e565b9b9a5050505050505050505050565b60208082526026908201527f536f6c7665723a3a4f7574636f6d65206d7573742062652070726f706f73656460408201527f2066697273740000000000000000000000000000000000000000000000000000606082015260800190565b60208082526026908201527f536f6c7665723a3a436f6e646974696f6e206e6f742073746174757320496e6960408201527f7469617465640000000000000000000000000000000000000000000000000000606082015260800190565b6020808252601e908201527f536f6c7665723a3a547261636b696e67496420616c7265616479207365740000604082015260600190565b6020808252601e908201527f536f6c7665723a204b6565706572206164647265737320696e76616c69640000604082015260600190565b60208082526025908201527f536f6c7665723a3a4e6f74205374617475732e4172626974726174696f6e506560408201527f6e64696e67000000000000000000000000000000000000000000000000000000606082015260800190565b6020808252818101527f536f6c7665723a3a536f6c76657220616c726561647920686173206368696c64604082015260600190565b6020808252601c908201527f536f6c7665723a3a436f6e7374616e7420706f7274206c6f636b656400000000604082015260600190565b60208082526017908201527f536f6c7665723a3a4f6e6c792061726269747261746f72000000000000000000604082015260600190565b60208082526035908201527f536f6c7665723a3a506f72742076657273696f6e20646f6573206e6f74206d6160408201527f74636820636f6e646974696f6e2076657273696f6e0000000000000000000000606082015260800190565b6020808252601d908201527f536f6c7665723a3a54696d656c6f636b207374696c6c206c6f636b6564000000604082015260600190565b60208082526027908201527f536f6c7665723a3a4e6f74205374617475732e4172626974726174696f6e526560408201527f7175657374656400000000000000000000000000000000000000000000000000606082015260800190565b60208082526018908201527f536f6c7665723a3a696e73756666696369656e74206574680000000000000000604082015260600190565b6020808252602b908201527f536f6c7665723a3a436f6e646974696f6e207374617465206e6f74205374617460408201527f75732e4578656375746564000000000000000000000000000000000000000000606082015260800190565b60208082526022908201527f536f6c7665723a3a4e6f74205374617475732e4f7574636f6d6550726f706f7360408201527f6564000000000000000000000000000000000000000000000000000000000000606082015260800190565b60208082526014908201527f536f6c7665723a3a63616c6c206661696c757265000000000000000000000000604082015260600190565b6020808252818101527f536f6c7665723a3a496e676573742073746174696363616c6c206661696c6564604082015260600190565b6020808252818101527f536f6c7665723a3a446566657272656420696e676573747320696e76616c6964604082015260600190565b6020808252602a908201527f536f6c7665723a3a506f727420697320756e6d6170706564206f722077726f6e60408201527f672076657273696f6e2e00000000000000000000000000000000000000000000606082015260800190565b60208082526013908201527f536f6c7665723a3a4f6e6c79204b656570657200000000000000000000000000604082015260600190565b60208082526022908201527f536f6c7665723a3a4f6e6c7920666163746f7279206d61792063616c6c20696e60408201527f6974000000000000000000000000000000000000000000000000000000000000606082015260800190565b6020808252601b908201527f536f6c7665723a3a44796e616d696320706f7274206c6f636b65640000000000604082015260600190565b60208082526017908201527f536f6c7665723a3a616374696f6e206578656375746564000000000000000000604082015260600190565b6000808335601e19843603018112614756578283fd5b83018035915067ffffffffffffffff821115614770578283fd5b602090810192508102360382131561330a57600080fd5b6000808335601e1984360301811261479d578283fd5b83018035915067ffffffffffffffff8211156147b7578283fd5b60200191503681900382131561330a57600080fd5b6000823560be19833603018112613c84578182fd5b6000823560de19833603018112613c84578182fd5b60405181810167ffffffffffffffff8111828210171561481857614818614e0b565b604052919050565b600067ffffffffffffffff82111561483a5761483a614e0b565b50601f01601f191660200190565b60009081526020902090565b6000808335601e1984360301811261486a578283fd5b830160208101925035905067ffffffffffffffff81111561488a57600080fd5b60208102360383131561330a57600080fd5b6000808335601e198436030181126148b2578283fd5b830160208101925035905067ffffffffffffffff8111156148d257600080fd5b80360383131561330a57600080fd5b6000823560de198336030181126148f6578182fd5b90910192915050565b6000821982111561491257614912614df5565b500190565b600081600019048311821515161561493157614931614df5565b500290565b60008282101561494857614948614df5565b500390565b5b8181101561077f576000815560010161494e565b6801000000000000000083111561497b5761497b614e0b565b8054838255808410156149b9576000828152602081208581019083015b808210156149b5576149aa8383614e2e565b600182019150614998565b5050505b50816149c482614848565b6000805b868110156149fb576149da8487614740565b6149e681838688615161565b505060209390930192600192830192016149c8565b50505050505050565b68010000000000000000831115614a1d57614a1d614e0b565b805483825580841015614acc577f3fffffffffffffffffffffffffffffffffffffffffffffffffffffffffffffff6001818311811615614a5f57614a5f614df5565b6004828711821615614a7357614a73614df5565b600085815260208120909350878202810190828602015b80821015614ac657848255614aa285868685016152d4565b614ab08586600285016152d4565b614abd8560038401614e6b565b90820190614a8a565b50505050505b5081614ad782614848565b6000805b868110156149fb57614af7614af085886147cc565b838561517a565b6020939093019260049290920191600101614adb565b68010000000000000000831115614b2657614b26614e0b565b805483825580841015614be3577f33333333333333333333333333333333333333333333333333333333333333336001818311811615614b6857614b68614df5565b6005828711821615614b7c57614b7c614df5565b600085815260208120909350878202810190828602015b80821015614bdd57614ba68586846152d4565b8484830155614bb98586600285016152d4565b614bc78586600385016152d4565b614bd48560048401614e6b565b90820190614b93565b50505050505b5081614bee82614848565b6000805b868110156149fb57614c0e614c0785886147e1565b8385615239565b6020939093019260059290920191600101614bf2565b614c2e8382614e2e565b818160005260208060002060005b868110156149fb57833582559282019260019182019101614c3c565b67ffffffffffffffff831115614c7057614c70614e0b565b614c7a8154614d7c565b600080601f8611601f841181811715614c9957614c9686614848565b92505b8015614cc8576020601f89010483016020891015614cb45750825b614cc66020601f88010485018261494d565b505b508060018114614cf457600094508715614ce3578387013594505b614ced8886614db1565b8655614d46565b601f198816945082845b86811015614d1e5788860135825560209586019560019092019101614cfe565b5088861015614d3b57878501356000196008601f8c16021c191681555b506001600289020186555b5050505050505050565b60005b83811015614d6b578181015183820152602001614d53565b838111156125fb5750506000910152565b600281046001821680614d9057607f821691505b602082108114156133bf57634e487b7160e01b600052602260045260246000fd5b600019600883021c191660029091021790565b6000600019821415614dd857614dd8614df5565b5060010190565b634e487b7160e01b600052600060045260246000fd5b634e487b7160e01b600052601160045260246000fd5b634e487b7160e01b600052604160045260246000fd5b60008135610c08816152f3565b68010000000000000000821115614e4757614e47614e0b565b8054828255808310156108f4578160005260206000206125fb82820185830161494d565b8115614e7957614e79614ddf565b614e838154614d7c565b80156108f457601f811160018114614e9e57600083556125fb565b600083815260208120614ebc6020601f86010482016001830161494d565b50838152602081208185555550505050565b6001600160a01b03821673ffffffffffffffffffffffffffffffffffffffff198254161781555050565b60ff1981541660ff8315151681178255505050565b8135815560016020808401358284015560408401356002840155614f346060850185614740565b614f42818360038801614c24565b5050614f516080850185614740565b614f5f818360048801614962565b5050614f6e60a0850185614740565b614f7c818360058801614962565b505060068301614f8f60c0860186614787565b67ffffffffffffffff811115614fa757614fa7614e0b565b614fb18354614d7c565b600080601f8411601f841181811715614fd057614fcd88614848565b92505b8015614ffc5788601f870104830189871015614fe95750825b614ffa8a601f88010485018261494d565b505b50806001811461502857600094508515615017578387013594505b6150218686614db1565b8855615076565b601f198616945082845b8681101561504f57888601358255948a0194908b01908a01615032565b508686101561506c57878501356000196008601f8a16021c191681555b5089600287020188555b505050505050505050505050565b813561508f816152f3565b6150998183614ece565b5060208201356150a8816152f3565b6150b58160018401614ece565b506150ce6150c560408401614e21565b60028301614ece565b606082013560038201556150e56080830183614787565b6150f3818360048601614c58565b505061510260a0830183614740565b615110818360058601614b0d565b505061511f60c0830183614740565b61512d818360068601614a04565b505061077f61513f60e08401846147e1565b60078301614f0d565b805461ff00191691151560081b61ff0016919091179055565b811561516f5761516f614ddf565b6125fb848483614c24565b811561518857615188614ddf565b823561519381615308565b61519d8183614ef8565b5060208301356151ac81615308565b6151b68183615148565b5060408301356151c5816152f3565b81547fffffffffffffffffffff0000000000000000000000000000000000000000ffff1660109190911b75ffffffffffffffffffffffffffffffffffffffff000016178155606083013560018201556080830135600282015561522b60a0840184614787565b611eea818360038601614c58565b811561524757615247614ddf565b8235815560018101602084013561525d81615308565b6152678183614ef8565b50604084013561527681615308565b6152808183615148565b50606084013561528f81615316565b815462ff0000191660109190911b62ff0000161790556080830135600282015560a083013560038201556152c660c0840184614787565b611eea818360048601614c58565b805460088302600019811b8086831b1681198416178455505050505050565b6001600160a01b0381168114611c9c57600080fd5b8015158114611c9c57600080fd5b60ff81168114611c9c57600080fdfea2646970667358221220270fce8c949971671c96ba7d6004e117a6ffe447b9a5c5a1c427d286044e82bc64736f6c63430008000033",
  "linkReferences": {},
  "deployedLinkReferences": {}
}