{
  "_format": "hh-sol-artifact-1",
  "contractName": "Solver",
  "sourceName": "contracts/Solver.sol",
  "abi": [
    {
      "inputs": [
        {
          "internalType": "address",
          "name": "_keeper",
          "type": "address"
        },
        {
          "internalType": "address",
          "name": "_arbiter",
          "type": "address"
        },
        {
          "internalType": "uint256",
          "name": "_timelockHours",
          "type": "uint256"
        },
        {
          "internalType": "bytes",
          "name": "_data",
          "type": "bytes"
        }
      ],
      "stateMutability": "nonpayable",
      "type": "constructor"
    },
    {
      "inputs": [
        {
          "internalType": "uint256[]",
          "name": "_payouts",
          "type": "uint256[]"
        }
      ],
      "name": "arbitrate",
      "outputs": [],
      "stateMutability": "nonpayable",
      "type": "function"
    },
    {
      "inputs": [],
      "name": "conditionalTokens",
      "outputs": [
        {
          "internalType": "contract ConditionalTokens",
          "name": "",
          "type": "address"
        }
      ],
      "stateMutability": "view",
      "type": "function"
    },
    {
      "inputs": [],
      "name": "confirmPayouts",
      "outputs": [],
      "stateMutability": "nonpayable",
      "type": "function"
    },
    {
      "inputs": [],
      "name": "initiateSolve",
      "outputs": [],
      "stateMutability": "nonpayable",
      "type": "function"
    },
    {
      "inputs": [],
      "name": "nullArbitrate",
      "outputs": [],
      "stateMutability": "nonpayable",
      "type": "function"
    },
    {
      "inputs": [
        {
          "internalType": "address",
          "name": "operator",
          "type": "address"
        },
        {
          "internalType": "address",
          "name": "from",
          "type": "address"
        },
        {
          "internalType": "uint256[]",
          "name": "ids",
          "type": "uint256[]"
        },
        {
          "internalType": "uint256[]",
          "name": "values",
          "type": "uint256[]"
        },
        {
          "internalType": "bytes",
          "name": "data",
          "type": "bytes"
        }
      ],
      "name": "onERC1155BatchReceived",
      "outputs": [
        {
          "internalType": "bytes4",
          "name": "",
          "type": "bytes4"
        }
      ],
      "stateMutability": "pure",
      "type": "function"
    },
    {
      "inputs": [
        {
          "internalType": "address",
          "name": "operator",
          "type": "address"
        },
        {
          "internalType": "address",
          "name": "from",
          "type": "address"
        },
        {
          "internalType": "uint256",
          "name": "id",
          "type": "uint256"
        },
        {
          "internalType": "uint256",
          "name": "value",
          "type": "uint256"
        },
        {
          "internalType": "bytes",
          "name": "data",
          "type": "bytes"
        }
      ],
      "name": "onERC1155Received",
      "outputs": [
        {
          "internalType": "bytes4",
          "name": "",
          "type": "bytes4"
        }
      ],
      "stateMutability": "pure",
      "type": "function"
    },
    {
      "inputs": [
        {
          "internalType": "uint256[]",
          "name": "_payouts",
          "type": "uint256[]"
        }
      ],
      "name": "proposePayouts",
      "outputs": [],
      "stateMutability": "nonpayable",
      "type": "function"
    },
    {
      "inputs": [
        {
          "internalType": "address",
          "name": "operator",
          "type": "address"
        },
        {
          "internalType": "bool",
          "name": "approved",
          "type": "bool"
        }
      ],
      "name": "setApproval",
      "outputs": [],
      "stateMutability": "nonpayable",
      "type": "function"
    },
    {
      "inputs": [
        {
          "internalType": "bytes32",
          "name": "_questionId",
          "type": "bytes32"
        },
        {
          "internalType": "bytes32",
          "name": "_parentCollectionId",
          "type": "bytes32"
        },
        {
          "internalType": "uint256",
          "name": "_outcomeSlots",
          "type": "uint256"
        },
        {
          "internalType": "uint256[]",
          "name": "_partition",
          "type": "uint256[]"
        },
        {
          "internalType": "contract IERC20",
          "name": "_collateralToken",
          "type": "address"
        },
        {
          "internalType": "uint256",
          "name": "_amount",
          "type": "uint256"
        }
      ],
      "name": "splitCondition",
      "outputs": [],
      "stateMutability": "nonpayable",
      "type": "function"
    }
  ],
  "bytecode": "0x608060405260008060006101000a81548173ffffffffffffffffffffffffffffffffffffffff021916908373ffffffffffffffffffffffffffffffffffffffff1602179055503480156200005257600080fd5b50604051620033fb380380620033fb83398181016040528101906200007891906200032b565b600073ffffffffffffffffffffffffffffffffffffffff168473ffffffffffffffffffffffffffffffffffffffff161415620000eb576040517f08c379a0000000000000000000000000000000000000000000000000000000008152600401620000e290620004b1565b60405180910390fd5b83600260006101000a81548173ffffffffffffffffffffffffffffffffffffffff021916908373ffffffffffffffffffffffffffffffffffffffff16021790555082600360006101000a81548173ffffffffffffffffffffffffffffffffffffffff021916908373ffffffffffffffffffffffffffffffffffffffff160217905550610e10826200017d919062000561565b600b8190555080600e90805190602001906200019b929190620001db565b5083838242604051602001620001b594939291906200045f565b60405160208183030381529060405280519060200120600481905550505050506200076c565b828054620001e99062000636565b90600052602060002090601f0160209004810192826200020d576000855562000259565b82601f106200022857805160ff191683800117855562000259565b8280016001018555821562000259579182015b82811115620002585782518255916020019190600101906200023b565b5b5090506200026891906200026c565b5090565b5b80821115620002875760008160009055506001016200026d565b5090565b6000620002a26200029c8462000507565b620004d3565b905082815260208101848484011115620002bb57600080fd5b620002c884828562000600565b509392505050565b600081519050620002e18162000738565b92915050565b600082601f830112620002f957600080fd5b81516200030b8482602086016200028b565b91505092915050565b600081519050620003258162000752565b92915050565b600080600080608085870312156200034257600080fd5b60006200035287828801620002d0565b94505060206200036587828801620002d0565b9350506040620003788782880162000314565b925050606085015167ffffffffffffffff8111156200039657600080fd5b620003a487828801620002e7565b91505092959194509250565b620003c5620003bf82620005c2565b6200066c565b82525050565b6000620003d8826200053a565b620003e4818562000545565b9350620003f681856020860162000600565b80840191505092915050565b600062000411601e8362000550565b91507f536f6c7665723a204b6565706572206164647265737320696e76616c696400006000830152602082019050919050565b620004596200045382620005f6565b62000694565b82525050565b60006200046d8287620003b0565b6014820191506200047f8286620003b0565b601482019150620004918285620003cb565b91506200049f828462000444565b60208201915081905095945050505050565b60006020820190508181036000830152620004cc8162000402565b9050919050565b6000604051905081810181811067ffffffffffffffff82111715620004fd57620004fc620006fc565b5b8060405250919050565b600067ffffffffffffffff821115620005255762000524620006fc565b5b601f19601f8301169050602081019050919050565b600081519050919050565b600081905092915050565b600082825260208201905092915050565b60006200056e82620005f6565b91506200057b83620005f6565b9250817fffffffffffffffffffffffffffffffffffffffffffffffffffffffffffffffff0483118215151615620005b757620005b66200069e565b5b828202905092915050565b6000620005cf82620005d6565b9050919050565b600073ffffffffffffffffffffffffffffffffffffffff82169050919050565b6000819050919050565b60005b838110156200062057808201518184015260208101905062000603565b8381111562000630576000848401525b50505050565b600060028204905060018216806200064f57607f821691505b60208210811415620006665762000665620006cd565b5b50919050565b6000620006798262000680565b9050919050565b60006200068d826200072b565b9050919050565b6000819050919050565b7f4e487b7100000000000000000000000000000000000000000000000000000000600052601160045260246000fd5b7f4e487b7100000000000000000000000000000000000000000000000000000000600052602260045260246000fd5b7f4e487b7100000000000000000000000000000000000000000000000000000000600052604160045260246000fd5b60008160601b9050919050565b6200074381620005c2565b81146200074f57600080fd5b50565b6200075d81620005f6565b81146200076957600080fd5b50565b612c7f806200077c6000396000f3fe608060405234801561001057600080fd5b506004361061009e5760003560e01c80636f2f3e77116100665780636f2f3e771461010d578063bc197c8114610117578063db9b717014610147578063e7fd205914610163578063f23a6e611461017f5761009e565b80630d49722d146100a357806348d6bc00146100bf5780635a7e6898146100c95780635bd9e299146100d35780636c7f0592146100f1575b600080fd5b6100bd60048036038101906100b89190611ecd565b6101af565b005b6100c7610418565b005b6100d1610753565b005b6100db6108a8565b6040516100e89190612699565b60405180910390f35b61010b60048036038101906101069190611f64565b6108cc565b005b610115610dad565b005b610131600480360381019061012c9190611d33565b610eba565b60405161013e919061267e565b60405180910390f35b610161600480360381019061015c9190611e91565b610ed2565b005b61017d60048036038101906101789190611ecd565b610f63565b005b61019960048036038101906101949190611dff565b6110f2565b6040516101a6919061267e565b60405180910390f35b600260009054906101000a900473ffffffffffffffffffffffffffffffffffffffff1673ffffffffffffffffffffffffffffffffffffffff163373ffffffffffffffffffffffffffffffffffffffff1614806102585750600360009054906101000a900473ffffffffffffffffffffffffffffffffffffffff1673ffffffffffffffffffffffffffffffffffffffff163373ffffffffffffffffffffffffffffffffffffffff16145b610297576040517f08c379a000000000000000000000000000000000000000000000000000000000815260040161028e90612837565b60405180910390fd5b60018060156101000a81548160ff02191690831515021790556102ef576040517f08c379a00000000000000000000000000000000000000000000000000000000081526004016102e6906127b7565b60405180910390fd5b6000600160166101000a81548160ff0219169083151502179055610348576040517f08c379a000000000000000000000000000000000000000000000000000000000815260040161033f90612777565b60405180910390fd5b6000600160176101000a81548160ff02191690831515021790556103a1576040517f08c379a000000000000000000000000000000000000000000000000000000000815260040161039890612757565b60405180910390fd5b6000600160146101000a81548160ff02191690831515021790556103fa576040517f08c379a00000000000000000000000000000000000000000000000000000000081526004016103f1906127f7565b60405180910390fd5b8181600d919061040b929190611af7565b50610414611108565b5050565b600260009054906101000a900473ffffffffffffffffffffffffffffffffffffffff1673ffffffffffffffffffffffffffffffffffffffff163373ffffffffffffffffffffffffffffffffffffffff1614806104c15750600360009054906101000a900473ffffffffffffffffffffffffffffffffffffffff1673ffffffffffffffffffffffffffffffffffffffff163373ffffffffffffffffffffffffffffffffffffffff16145b610500576040517f08c379a00000000000000000000000000000000000000000000000000000000081526004016104f790612837565b60405180910390fd5b60018060156101000a81548160ff0219169083151502179055610558576040517f08c379a000000000000000000000000000000000000000000000000000000000815260040161054f906127b7565b60405180910390fd5b6000600160166101000a81548160ff02191690831515021790556105b1576040517f08c379a00000000000000000000000000000000000000000000000000000000081526004016105a890612777565b60405180910390fd5b6000600160176101000a81548160ff021916908315150217905561060a576040517f08c379a000000000000000000000000000000000000000000000000000000000815260040161060190612757565b60405180910390fd5b6000600160146101000a81548160ff0219169083151502179055610663576040517f08c379a000000000000000000000000000000000000000000000000000000000815260040161065a906127f7565b60405180910390fd5b600c5442116106a7576040517f08c379a000000000000000000000000000000000000000000000000000000000815260040161069e90612857565b60405180910390fd5b60008054906101000a900473ffffffffffffffffffffffffffffffffffffffff1673ffffffffffffffffffffffffffffffffffffffff1663c49298ac600454600d6040518363ffffffff1660e01b8152600401610705929190612617565b600060405180830381600087803b15801561071f57600080fd5b505af1158015610733573d6000803e3d6000fd5b5050505060018060146101000a81548160ff021916908315150217905550565b600260009054906101000a900473ffffffffffffffffffffffffffffffffffffffff1673ffffffffffffffffffffffffffffffffffffffff163373ffffffffffffffffffffffffffffffffffffffff16146107e3576040517f08c379a00000000000000000000000000000000000000000000000000000000081526004016107da90612737565b60405180910390fd5b60018060156101000a81548160ff02191690831515021790555061080b600454600954611281565b610893600454600554600954600680548060200260200160405190810160405280929190818152602001828054801561086357602002820191906000526020600020905b81548152602001906001019080831161084f575b5050505050600160009054906101000a900473ffffffffffffffffffffffffffffffffffffffff16600a546108cc565b61089b611477565b6108a5600e611901565b50565b60008054906101000a900473ffffffffffffffffffffffffffffffffffffffff1681565b600260009054906101000a900473ffffffffffffffffffffffffffffffffffffffff1673ffffffffffffffffffffffffffffffffffffffff163373ffffffffffffffffffffffffffffffffffffffff161461095c576040517f08c379a000000000000000000000000000000000000000000000000000000000815260040161095390612737565b60405180910390fd5b60018060156101000a81548160ff02191690831515021790556109b4576040517f08c379a00000000000000000000000000000000000000000000000000000000081526004016109ab906127b7565b60405180910390fd5b6000600160166101000a81548160ff0219169083151502179055610a0d576040517f08c379a0000000000000000000000000000000000000000000000000000000008152600401610a0490612777565b60405180910390fd5b6000600160176101000a81548160ff0219169083151502179055610a66576040517f08c379a0000000000000000000000000000000000000000000000000000000008152600401610a5d90612757565b60405180910390fd5b6000600160146101000a81548160ff0219169083151502179055610abf576040517f08c379a0000000000000000000000000000000000000000000000000000000008152600401610ab6906127f7565b60405180910390fd5b60011515600160159054906101000a900460ff16151514610b15576040517f08c379a0000000000000000000000000000000000000000000000000000000008152600401610b0c906127b7565b60405180910390fd5b60008060009054906101000a900473ffffffffffffffffffffffffffffffffffffffff1673ffffffffffffffffffffffffffffffffffffffff1663852c6ae23089886040518463ffffffff1660e01b8152600401610b75939291906125b7565b60206040518083038186803b158015610b8d57600080fd5b505afa158015610ba1573d6000803e3d6000fd5b505050506040513d601f19601f82011682018060405250810190610bc59190611f3b565b90506000801b861415610d11578273ffffffffffffffffffffffffffffffffffffffff166323b872dd3330856040518463ffffffff1660e01b8152600401610c0f939291906124ff565b602060405180830381600087803b158015610c2957600080fd5b505af1158015610c3d573d6000803e3d6000fd5b505050506040513d601f19601f82011682018060405250810190610c619190611f12565b508273ffffffffffffffffffffffffffffffffffffffff1663095ea7b360008054906101000a900473ffffffffffffffffffffffffffffffffffffffff16846040518363ffffffff1660e01b8152600401610cbd9291906125ee565b602060405180830381600087803b158015610cd757600080fd5b505af1158015610ceb573d6000803e3d6000fd5b505050506040513d601f19601f82011682018060405250810190610d0f9190611f12565b505b60008054906101000a900473ffffffffffffffffffffffffffffffffffffffff1673ffffffffffffffffffffffffffffffffffffffff166372ce427584888488876040518663ffffffff1660e01b8152600401610d729594939291906126dd565b600060405180830381600087803b158015610d8c57600080fd5b505af1158015610da0573d6000803e3d6000fd5b5050505050505050505050565b600360009054906101000a900473ffffffffffffffffffffffffffffffffffffffff1673ffffffffffffffffffffffffffffffffffffffff163373ffffffffffffffffffffffffffffffffffffffff1614610e3d576040517f08c379a0000000000000000000000000000000000000000000000000000000008152600401610e34906127d7565b60405180910390fd5b60018060166101000a81548160ff0219169083151502179055610e95576040517f08c379a0000000000000000000000000000000000000000000000000000000008152600401610e8c90612817565b60405180910390fd5b6000600160166101000a81548160ff021916908315150217905550610eb8611108565b565b600063bc197c8160e01b905098975050505050505050565b60008054906101000a900473ffffffffffffffffffffffffffffffffffffffff1673ffffffffffffffffffffffffffffffffffffffff1663a22cb46583836040518363ffffffff1660e01b8152600401610f2d92919061258e565b600060405180830381600087803b158015610f4757600080fd5b505af1158015610f5b573d6000803e3d6000fd5b505050505050565b600360009054906101000a900473ffffffffffffffffffffffffffffffffffffffff1673ffffffffffffffffffffffffffffffffffffffff163373ffffffffffffffffffffffffffffffffffffffff1614610ff3576040517f08c379a0000000000000000000000000000000000000000000000000000000008152600401610fea906127d7565b60405180910390fd5b60011515600160159054906101000a900460ff16151514611049576040517f08c379a0000000000000000000000000000000000000000000000000000000008152600401611040906127b7565b60405180910390fd5b60011515600160169054906101000a900460ff1615151461109f576040517f08c379a000000000000000000000000000000000000000000000000000000000815260040161109690612797565b60405180910390fd5b8181600d91906110b0929190611af7565b506000600160166101000a81548160ff02191690831515021790555060018060176101000a81548160ff0219169083151502179055506110ee611108565b5050565b600063f23a6e6160e01b90509695505050505050565b60018060156101000a81548160ff0219169083151502179055611160576040517f08c379a0000000000000000000000000000000000000000000000000000000008152600401611157906127b7565b60405180910390fd5b6000600160166101000a81548160ff02191690831515021790556111b9576040517f08c379a00000000000000000000000000000000000000000000000000000000081526004016111b090612777565b60405180910390fd5b6000600160176101000a81548160ff0219169083151502179055611212576040517f08c379a000000000000000000000000000000000000000000000000000000000815260040161120990612757565b60405180910390fd5b6000600160146101000a81548160ff021916908315150217905561126b576040517f08c379a0000000000000000000000000000000000000000000000000000000008152600401611262906127f7565b60405180910390fd5b600b5442611279919061295c565b600c81905550565b60018060156101000a81548160ff02191690831515021790556112d9576040517f08c379a00000000000000000000000000000000000000000000000000000000081526004016112d0906127b7565b60405180910390fd5b6000600160166101000a81548160ff0219169083151502179055611332576040517f08c379a000000000000000000000000000000000000000000000000000000000815260040161132990612777565b60405180910390fd5b6000600160176101000a81548160ff021916908315150217905561138b576040517f08c379a000000000000000000000000000000000000000000000000000000000815260040161138290612757565b60405180910390fd5b6000600160146101000a81548160ff02191690831515021790556113e4576040517f08c379a00000000000000000000000000000000000000000000000000000000081526004016113db906127f7565b60405180910390fd5b60008054906101000a900473ffffffffffffffffffffffffffffffffffffffff1673ffffffffffffffffffffffffffffffffffffffff1663d96ee7543084846040518463ffffffff1660e01b8152600401611441939291906125b7565b600060405180830381600087803b15801561145b57600080fd5b505af115801561146f573d6000803e3d6000fd5b505050505050565b60008060009054906101000a900473ffffffffffffffffffffffffffffffffffffffff1673ffffffffffffffffffffffffffffffffffffffff1663852c6ae2306004546009546040518463ffffffff1660e01b81526004016114db939291906125b7565b60206040518083038186803b1580156114f357600080fd5b505afa158015611507573d6000803e3d6000fd5b505050506040513d601f19601f8201168201806040525081019061152b9190611f3b565b905060005b6006805490508110156118fd5760008060009054906101000a900473ffffffffffffffffffffffffffffffffffffffff1673ffffffffffffffffffffffffffffffffffffffff1663856296f760055485600686815481106115ba577f4e487b7100000000000000000000000000000000000000000000000000000000600052603260045260246000fd5b90600052602060002001546040518463ffffffff1660e01b81526004016115e393929190612647565b60206040518083038186803b1580156115fb57600080fd5b505afa15801561160f573d6000803e3d6000fd5b505050506040513d601f19601f820116820180604052508101906116339190611f3b565b905060008060009054906101000a900473ffffffffffffffffffffffffffffffffffffffff1673ffffffffffffffffffffffffffffffffffffffff166339dd7530600160009054906101000a900473ffffffffffffffffffffffffffffffffffffffff16846040518363ffffffff1660e01b81526004016116b59291906126b4565b60206040518083038186803b1580156116cd57600080fd5b505afa1580156116e1573d6000803e3d6000fd5b505050506040513d601f19601f820116820180604052508101906117059190612005565b905060005b6007805490508110156118e75760008054906101000a900473ffffffffffffffffffffffffffffffffffffffff1673ffffffffffffffffffffffffffffffffffffffff1663f242432a306007878154811061178e577f4e487b7100000000000000000000000000000000000000000000000000000000600052603260045260246000fd5b9060005260206000200184815481106117d0577f4e487b7100000000000000000000000000000000000000000000000000000000600052603260045260246000fd5b9060005260206000200160009054906101000a900473ffffffffffffffffffffffffffffffffffffffff168560088981548110611836577f4e487b7100000000000000000000000000000000000000000000000000000000600052603260045260246000fd5b906000526020600020018681548110611878577f4e487b7100000000000000000000000000000000000000000000000000000000600052603260045260246000fd5b90600052602060002001546040518563ffffffff1660e01b81526004016118a29493929190612536565b600060405180830381600087803b1580156118bc57600080fd5b505af11580156118d0573d6000803e3d6000fd5b5050505080806118df90612ae0565b91505061170a565b50505080806118f590612ae0565b915050611530565b5050565b606060018060156101000a81548160ff021916908315150217905561195b576040517f08c379a0000000000000000000000000000000000000000000000000000000008152600401611952906127b7565b60405180910390fd5b6000600160166101000a81548160ff02191690831515021790556119b4576040517f08c379a00000000000000000000000000000000000000000000000000000000081526004016119ab90612777565b60405180910390fd5b6000600160176101000a81548160ff0219169083151502179055611a0d576040517f08c379a0000000000000000000000000000000000000000000000000000000008152600401611a0490612757565b60405180910390fd5b6000600160146101000a81548160ff0219169083151502179055611a66576040517f08c379a0000000000000000000000000000000000000000000000000000000008152600401611a5d906127f7565b60405180910390fd5b818054611a7290612a94565b80601f0160208091040260200160405190810160405280929190818152602001828054611a9e90612a94565b8015611aeb5780601f10611ac057610100808354040283529160200191611aeb565b820191906000526020600020905b815481529060010190602001808311611ace57829003601f168201915b50505050509050919050565b828054828255906000526020600020908101928215611b33579160200282015b82811115611b32578235825591602001919060010190611b17565b5b509050611b409190611b44565b5090565b5b80821115611b5d576000816000905550600101611b45565b5090565b6000611b74611b6f846128a8565b612877565b90508083825260208201905082856020860282011115611b9357600080fd5b60005b85811015611bc35781611ba98882611d09565b845260208401935060208301925050600181019050611b96565b5050509392505050565b600081359050611bdc81612bd6565b92915050565b60008083601f840112611bf457600080fd5b8235905067ffffffffffffffff811115611c0d57600080fd5b602083019150836020820283011115611c2557600080fd5b9250929050565b600082601f830112611c3d57600080fd5b8135611c4d848260208601611b61565b91505092915050565b600081359050611c6581612bed565b92915050565b600081519050611c7a81612bed565b92915050565b600081359050611c8f81612c04565b92915050565b600081519050611ca481612c04565b92915050565b60008083601f840112611cbc57600080fd5b8235905067ffffffffffffffff811115611cd557600080fd5b602083019150836001820283011115611ced57600080fd5b9250929050565b600081359050611d0381612c1b565b92915050565b600081359050611d1881612c32565b92915050565b600081519050611d2d81612c32565b92915050565b60008060008060008060008060a0898b031215611d4f57600080fd5b6000611d5d8b828c01611bcd565b9850506020611d6e8b828c01611bcd565b975050604089013567ffffffffffffffff811115611d8b57600080fd5b611d978b828c01611be2565b9650965050606089013567ffffffffffffffff811115611db657600080fd5b611dc28b828c01611be2565b9450945050608089013567ffffffffffffffff811115611de157600080fd5b611ded8b828c01611caa565b92509250509295985092959890939650565b60008060008060008060a08789031215611e1857600080fd5b6000611e2689828a01611bcd565b9650506020611e3789828a01611bcd565b9550506040611e4889828a01611d09565b9450506060611e5989828a01611d09565b935050608087013567ffffffffffffffff811115611e7657600080fd5b611e8289828a01611caa565b92509250509295509295509295565b60008060408385031215611ea457600080fd5b6000611eb285828601611bcd565b9250506020611ec385828601611c56565b9150509250929050565b60008060208385031215611ee057600080fd5b600083013567ffffffffffffffff811115611efa57600080fd5b611f0685828601611be2565b92509250509250929050565b600060208284031215611f2457600080fd5b6000611f3284828501611c6b565b91505092915050565b600060208284031215611f4d57600080fd5b6000611f5b84828501611c95565b91505092915050565b60008060008060008060c08789031215611f7d57600080fd5b6000611f8b89828a01611c80565b9650506020611f9c89828a01611c80565b9550506040611fad89828a01611d09565b945050606087013567ffffffffffffffff811115611fca57600080fd5b611fd689828a01611c2c565b9350506080611fe789828a01611cf4565b92505060a0611ff889828a01611d09565b9150509295509295509295565b60006020828403121561201757600080fd5b600061202584828501611d1e565b91505092915050565b600061203a83836124e1565b60208301905092915050565b61204f816129bc565b82525050565b6000612060826128f9565b61206a8185612929565b9350612075836128d4565b8060005b838110156120a657815161208d888261202e565b97506120988361290f565b925050600181019050612079565b5085935050505092915050565b60006120be82612904565b6120c88185612929565b93506120d3836128e4565b8060005b8381101561210b576120e882612bb6565b6120f2888261202e565b97506120fd8361291c565b9250506001810190506120d7565b5085935050505092915050565b612121816129ce565b82525050565b612130816129da565b82525050565b61213f816129e4565b82525050565b61214e81612a4c565b82525050565b61215d81612a70565b82525050565b6000612170602d8361294b565b91507f536f6c7665723a204f6e6c7920746865204b656570657220616464726573732060008301527f6d61792063616c6c2074686973000000000000000000000000000000000000006020830152604082019050919050565b60006121d660268361294b565b91507f536f6c7665723a204172626974726174696f6e20686173206265656e2064656c60008301527f69766572656400000000000000000000000000000000000000000000000000006020830152604082019050919050565b600061223c601e8361294b565b91507f536f6c7665723a204172626974726174696f6e2069732070656e64696e6700006000830152602082019050919050565b600061227c601f8361294b565b91507f536f6c7665723a204172626974726174696f6e206e6f742070656e64696e67006000830152602082019050919050565b60006122bc60138361294b565b91507f536f6c7665723a20556e696e69746961746564000000000000000000000000006000830152602082019050919050565b60006122fc602e8361294b565b91507f536f6c7665723a204f6e6c79207468652041726269746572206164647265737360008301527f206d61792063616c6c20746869730000000000000000000000000000000000006020830152604082019050919050565b600061236260198361294b565b91507f536f6c7665723a20536f6c766520697320636f6d706c657465000000000000006000830152602082019050919050565b60006123a260228361294b565b91507f536f6c7665723a204172626974726174696f6e206973206e6f742070656e646960008301527f6e670000000000000000000000000000000000000000000000000000000000006020830152604082019050919050565b600061240860008361293a565b9150600082019050919050565b600061242260318361294b565b91507f536f6c7665723a204f6e6c7920746865204b6565706572206f7220417262697460008301527f6572206d61792063616c6c20746869732e0000000000000000000000000000006020830152604082019050919050565b600061248860278361294b565b91507f536f6c7665723a2054696d656c6f636b206973207374696c6c20696e2074686560008301527f20667574757265000000000000000000000000000000000000000000000000006020830152604082019050919050565b6124ea81612a42565b82525050565b6124f981612a42565b82525050565b60006060820190506125146000830186612046565b6125216020830185612046565b61252e60408301846124f0565b949350505050565b600060a08201905061254b6000830187612046565b6125586020830186612046565b61256560408301856124f0565b61257260608301846124f0565b8181036080830152612583816123fb565b905095945050505050565b60006040820190506125a36000830185612046565b6125b06020830184612118565b9392505050565b60006060820190506125cc6000830186612046565b6125d96020830185612127565b6125e660408301846124f0565b949350505050565b60006040820190506126036000830185612046565b61261060208301846124f0565b9392505050565b600060408201905061262c6000830185612127565b818103602083015261263e81846120b3565b90509392505050565b600060608201905061265c6000830186612127565b6126696020830185612127565b61267660408301846124f0565b949350505050565b60006020820190506126936000830184612136565b92915050565b60006020820190506126ae6000830184612145565b92915050565b60006040820190506126c96000830185612154565b6126d66020830184612127565b9392505050565b600060a0820190506126f26000830188612154565b6126ff6020830187612127565b61270c6040830186612127565b818103606083015261271e8185612055565b905061272d60808301846124f0565b9695505050505050565b6000602082019050818103600083015261275081612163565b9050919050565b60006020820190508181036000830152612770816121c9565b9050919050565b600060208201905081810360008301526127908161222f565b9050919050565b600060208201905081810360008301526127b08161226f565b9050919050565b600060208201905081810360008301526127d0816122af565b9050919050565b600060208201905081810360008301526127f0816122ef565b9050919050565b6000602082019050818103600083015261281081612355565b9050919050565b6000602082019050818103600083015261283081612395565b9050919050565b6000602082019050818103600083015261285081612415565b9050919050565b600060208201905081810360008301526128708161247b565b9050919050565b6000604051905081810181811067ffffffffffffffff8211171561289e5761289d612b87565b5b8060405250919050565b600067ffffffffffffffff8211156128c3576128c2612b87565b5b602082029050602081019050919050565b6000819050602082019050919050565b60008190508160005260206000209050919050565b600081519050919050565b600081549050919050565b6000602082019050919050565b6000600182019050919050565b600082825260208201905092915050565b600082825260208201905092915050565b600082825260208201905092915050565b600061296782612a42565b915061297283612a42565b9250827fffffffffffffffffffffffffffffffffffffffffffffffffffffffffffffffff038211156129a7576129a6612b29565b5b828201905092915050565b6000819050919050565b60006129c782612a22565b9050919050565b60008115159050919050565b6000819050919050565b60007fffffffff0000000000000000000000000000000000000000000000000000000082169050919050565b6000612a1b826129bc565b9050919050565b600073ffffffffffffffffffffffffffffffffffffffff82169050919050565b6000819050919050565b6000612a5782612a5e565b9050919050565b6000612a6982612a22565b9050919050565b6000612a7b82612a82565b9050919050565b6000612a8d82612a22565b9050919050565b60006002820490506001821680612aac57607f821691505b60208210811415612ac057612abf612b58565b5b50919050565b6000612ad9612ad483612bc9565b6129b2565b9050919050565b6000612aeb82612a42565b91507fffffffffffffffffffffffffffffffffffffffffffffffffffffffffffffffff821415612b1e57612b1d612b29565b5b600182019050919050565b7f4e487b7100000000000000000000000000000000000000000000000000000000600052601160045260246000fd5b7f4e487b7100000000000000000000000000000000000000000000000000000000600052602260045260246000fd5b7f4e487b7100000000000000000000000000000000000000000000000000000000600052604160045260246000fd5b6000612bc28254612ac6565b9050919050565b60008160001c9050919050565b612bdf816129bc565b8114612bea57600080fd5b50565b612bf6816129ce565b8114612c0157600080fd5b50565b612c0d816129da565b8114612c1857600080fd5b50565b612c2481612a10565b8114612c2f57600080fd5b50565b612c3b81612a42565b8114612c4657600080fd5b5056fea26469706673582212206455daa03bf5af421a3fb34735f4b8691e02112a5153f7a538b7dd37d53db02364736f6c63430008000033",
  "linkReferences": {},
  "deployedLinkReferences": {}
}