{
  "_format": "hh-sol-artifact-1",
  "contractName": "Solver",
  "sourceName": "contracts/Solver.sol",
  "abi": [
    {
      "inputs": [
        {
          "internalType": "address",
          "name": "_keeper",
          "type": "address"
        },
        {
          "internalType": "address",
          "name": "_arbiter",
          "type": "address"
        },
        {
          "internalType": "uint256",
          "name": "_timelockHours",
          "type": "uint256"
        },
        {
          "components": [
            {
              "internalType": "uint256",
              "name": "value",
              "type": "uint256"
            },
            {
              "internalType": "address",
              "name": "to",
              "type": "address"
            },
            {
              "internalType": "bool",
              "name": "executed",
              "type": "bool"
            },
            {
              "internalType": "bytes",
              "name": "data",
              "type": "bytes"
            }
          ],
          "internalType": "struct Minion.Action[]",
          "name": "_actions",
          "type": "tuple[]"
        },
        {
          "internalType": "bytes",
          "name": "_data",
          "type": "bytes"
        }
      ],
      "stateMutability": "nonpayable",
      "type": "constructor"
    },
    {
      "inputs": [
        {
          "internalType": "uint256[]",
          "name": "_payouts",
          "type": "uint256[]"
        }
      ],
      "name": "arbitrate",
      "outputs": [],
      "stateMutability": "nonpayable",
      "type": "function"
    },
    {
      "inputs": [],
      "name": "conditionalTokens",
      "outputs": [
        {
          "internalType": "contract ConditionalTokens",
          "name": "",
          "type": "address"
        }
      ],
      "stateMutability": "view",
      "type": "function"
    },
    {
      "inputs": [],
      "name": "confirmPayouts",
      "outputs": [],
      "stateMutability": "nonpayable",
      "type": "function"
    },
    {
      "inputs": [
        {
          "internalType": "uint256",
          "name": "_actionIndex",
          "type": "uint256"
        }
      ],
      "name": "executeAction",
      "outputs": [
        {
          "internalType": "bytes",
          "name": "",
          "type": "bytes"
        }
      ],
      "stateMutability": "nonpayable",
      "type": "function"
    },
    {
      "inputs": [],
      "name": "executeActions",
      "outputs": [],
      "stateMutability": "nonpayable",
      "type": "function"
    },
    {
      "inputs": [],
      "name": "initiateSolve",
      "outputs": [],
      "stateMutability": "nonpayable",
      "type": "function"
    },
    {
      "inputs": [],
      "name": "nullArbitrate",
      "outputs": [],
      "stateMutability": "nonpayable",
      "type": "function"
    },
    {
      "inputs": [
        {
          "internalType": "address",
          "name": "operator",
          "type": "address"
        },
        {
          "internalType": "address",
          "name": "from",
          "type": "address"
        },
        {
          "internalType": "uint256[]",
          "name": "ids",
          "type": "uint256[]"
        },
        {
          "internalType": "uint256[]",
          "name": "values",
          "type": "uint256[]"
        },
        {
          "internalType": "bytes",
          "name": "data",
          "type": "bytes"
        }
      ],
      "name": "onERC1155BatchReceived",
      "outputs": [
        {
          "internalType": "bytes4",
          "name": "",
          "type": "bytes4"
        }
      ],
      "stateMutability": "pure",
      "type": "function"
    },
    {
      "inputs": [
        {
          "internalType": "address",
          "name": "operator",
          "type": "address"
        },
        {
          "internalType": "address",
          "name": "from",
          "type": "address"
        },
        {
          "internalType": "uint256",
          "name": "id",
          "type": "uint256"
        },
        {
          "internalType": "uint256",
          "name": "value",
          "type": "uint256"
        },
        {
          "internalType": "bytes",
          "name": "data",
          "type": "bytes"
        }
      ],
      "name": "onERC1155Received",
      "outputs": [
        {
          "internalType": "bytes4",
          "name": "",
          "type": "bytes4"
        }
      ],
      "stateMutability": "pure",
      "type": "function"
    },
    {
      "inputs": [
        {
          "internalType": "uint256[]",
          "name": "_payouts",
          "type": "uint256[]"
        }
      ],
      "name": "proposePayouts",
      "outputs": [],
      "stateMutability": "nonpayable",
      "type": "function"
    },
    {
      "inputs": [
        {
          "internalType": "address",
          "name": "operator",
          "type": "address"
        },
        {
          "internalType": "bool",
          "name": "approved",
          "type": "bool"
        }
      ],
      "name": "setApproval",
      "outputs": [],
      "stateMutability": "nonpayable",
      "type": "function"
    },
    {
      "inputs": [
        {
          "internalType": "bytes32",
          "name": "_questionId",
          "type": "bytes32"
        },
        {
          "internalType": "bytes32",
          "name": "_parentCollectionId",
          "type": "bytes32"
        },
        {
          "internalType": "uint256",
          "name": "_outcomeSlots",
          "type": "uint256"
        },
        {
          "internalType": "uint256[]",
          "name": "_partition",
          "type": "uint256[]"
        },
        {
          "internalType": "contract IERC20",
          "name": "_collateralToken",
          "type": "address"
        },
        {
          "internalType": "uint256",
          "name": "_amount",
          "type": "uint256"
        }
      ],
      "name": "splitCondition",
      "outputs": [],
      "stateMutability": "nonpayable",
      "type": "function"
    }
  ],
  "bytecode": "0x608060405260008060006101000a81548173ffffffffffffffffffffffffffffffffffffffff021916908373ffffffffffffffffffffffffffffffffffffffff1602179055503480156200005257600080fd5b506040516200364d3803806200364d833981810160405281019062000078919062000594565b600073ffffffffffffffffffffffffffffffffffffffff168573ffffffffffffffffffffffffffffffffffffffff161415620000eb576040517f08c379a0000000000000000000000000000000000000000000000000000000008152600401620000e290620008de565b60405180910390fd5b60005b82518110156200020d57600e83828151811062000134577f4e487b7100000000000000000000000000000000000000000000000000000000600052603260045260246000fd5b602002602001015190806001815401808255809150506001900390600052602060002090600302016000909190919091506000820151816000015560208201518160010160006101000a81548173ffffffffffffffffffffffffffffffffffffffff021916908373ffffffffffffffffffffffffffffffffffffffff16021790555060408201518160010160146101000a81548160ff0219169083151502179055506060820151816002019080519060200190620001f492919062000303565b5050508080620002049062000b24565b915050620000ee565b5084600260006101000a81548173ffffffffffffffffffffffffffffffffffffffff021916908373ffffffffffffffffffffffffffffffffffffffff16021790555083600360006101000a81548173ffffffffffffffffffffffffffffffffffffffff021916908373ffffffffffffffffffffffffffffffffffffffff160217905550610e1083620002a0919062000a0d565b600b8190555080600f9080519060200190620002be92919062000303565b50308585848442604051602001620002dc9695949392919062000863565b60405160208183030381529060405280519060200120600481905550505050505062000c5e565b828054620003119062000aee565b90600052602060002090601f01602090048101928262000335576000855562000381565b82601f106200035057805160ff191683800117855562000381565b8280016001018555821562000381579182015b828111156200038057825182559160200191906001019062000363565b5b50905062000390919062000394565b5090565b5b80821115620003af57600081600090555060010162000395565b5090565b6000620003ca620003c48462000934565b62000900565b9050808382526020820190508260005b858110156200040e5781518501620003f38882620004e5565b845260208401935060208301925050600181019050620003da565b5050509392505050565b60006200042f620004298462000963565b62000900565b9050828152602081018484840111156200044857600080fd5b6200045584828562000ab8565b509392505050565b6000815190506200046e8162000c10565b92915050565b600082601f8301126200048657600080fd5b815162000498848260208601620003b3565b91505092915050565b600081519050620004b28162000c2a565b92915050565b600082601f830112620004ca57600080fd5b8151620004dc84826020860162000418565b91505092915050565b600060808284031215620004f857600080fd5b62000504608062000900565b9050600062000516848285016200057d565b60008301525060206200052c848285016200045d565b60208301525060406200054284828501620004a1565b604083015250606082015167ffffffffffffffff8111156200056357600080fd5b6200057184828501620004b8565b60608301525092915050565b6000815190506200058e8162000c44565b92915050565b600080600080600060a08688031215620005ad57600080fd5b6000620005bd888289016200045d565b9550506020620005d0888289016200045d565b9450506040620005e3888289016200057d565b935050606086015167ffffffffffffffff8111156200060157600080fd5b6200060f8882890162000474565b925050608086015167ffffffffffffffff8111156200062d57600080fd5b6200063b88828901620004b8565b9150509295509295909350565b6000620006568383620007d6565b905092915050565b620006698162000a6e565b82525050565b6200067a8162000a6e565b82525050565b60006200068d82620009a6565b620006998185620009c9565b935083602082028501620006ad8562000996565b8060005b85811015620006ef5784840389528151620006cd858262000648565b9450620006da83620009bc565b925060208a01995050600181019050620006b1565b50829750879550505050505092915050565b6200070c8162000a82565b82525050565b60006200071f82620009b1565b6200072b8185620009da565b93506200073d81856020860162000ab8565b620007488162000bff565b840191505092915050565b60006200076082620009b1565b6200076c8185620009eb565b93506200077e81856020860162000ab8565b620007898162000bff565b840191505092915050565b6000620007a3601e83620009fc565b91507f536f6c7665723a204b6565706572206164647265737320696e76616c696400006000830152602082019050919050565b6000608083016000830151620007f0600086018262000841565b5060208301516200080560208601826200065e565b5060408301516200081a604086018262000701565b506060830151848203606086015262000834828262000712565b9150508091505092915050565b6200084c8162000aae565b82525050565b6200085d8162000aae565b82525050565b600060c0820190506200087a60008301896200066f565b6200088960208301886200066f565b6200089860408301876200066f565b8181036060830152620008ac818662000680565b90508181036080830152620008c2818562000753565b9050620008d360a083018462000852565b979650505050505050565b60006020820190508181036000830152620008f98162000794565b9050919050565b6000604051905081810181811067ffffffffffffffff821117156200092a576200092962000bd0565b5b8060405250919050565b600067ffffffffffffffff82111562000952576200095162000bd0565b5b602082029050602081019050919050565b600067ffffffffffffffff82111562000981576200098062000bd0565b5b601f19601f8301169050602081019050919050565b6000819050602082019050919050565b600081519050919050565b600081519050919050565b6000602082019050919050565b600082825260208201905092915050565b600082825260208201905092915050565b600082825260208201905092915050565b600082825260208201905092915050565b600062000a1a8262000aae565b915062000a278362000aae565b9250817fffffffffffffffffffffffffffffffffffffffffffffffffffffffffffffffff048311821515161562000a635762000a6262000b72565b5b828202905092915050565b600062000a7b8262000a8e565b9050919050565b60008115159050919050565b600073ffffffffffffffffffffffffffffffffffffffff82169050919050565b6000819050919050565b60005b8381101562000ad857808201518184015260208101905062000abb565b8381111562000ae8576000848401525b50505050565b6000600282049050600182168062000b0757607f821691505b6020821081141562000b1e5762000b1d62000ba1565b5b50919050565b600062000b318262000aae565b91507fffffffffffffffffffffffffffffffffffffffffffffffffffffffffffffffff82141562000b675762000b6662000b72565b5b600182019050919050565b7f4e487b7100000000000000000000000000000000000000000000000000000000600052601160045260246000fd5b7f4e487b7100000000000000000000000000000000000000000000000000000000600052602260045260246000fd5b7f4e487b7100000000000000000000000000000000000000000000000000000000600052604160045260246000fd5b6000601f19601f8301169050919050565b62000c1b8162000a6e565b811462000c2757600080fd5b50565b62000c358162000a82565b811462000c4157600080fd5b50565b62000c4f8162000aae565b811462000c5b57600080fd5b50565b6129df8062000c6e6000396000f3fe608060405234801561001057600080fd5b50600436106100b45760003560e01c8063bc197c8111610071578063bc197c811461012d578063c0c1cf551461015d578063c94f554d1461018d578063db9b717014610197578063e7fd2059146101b3578063f23a6e61146101cf576100b4565b80630d49722d146100b957806348d6bc00146100d55780635a7e6898146100df5780635bd9e299146100e95780636c7f0592146101075780636f2f3e7714610123575b600080fd5b6100d360048036038101906100ce9190611a1f565b6101ff565b005b6100dd610468565b005b6100e76107a3565b005b6100f1610835565b6040516100fe9190612333565b60405180910390f35b610121600480360381019061011c9190611ab6565b610859565b005b61012b610d3a565b005b61014760048036038101906101429190611885565b610e47565b60405161015491906122f6565b60405180910390f35b61017760048036038101906101729190611b57565b610e5f565b6040516101849190612311565b60405180910390f35b61019561127f565b005b6101b160048036038101906101ac91906119e3565b6112af565b005b6101cd60048036038101906101c89190611a1f565b611340565b005b6101e960048036038101906101e49190611951565b6114cf565b6040516101f691906122f6565b60405180910390f35b600260009054906101000a900473ffffffffffffffffffffffffffffffffffffffff1673ffffffffffffffffffffffffffffffffffffffff163373ffffffffffffffffffffffffffffffffffffffff1614806102a85750600360009054906101000a900473ffffffffffffffffffffffffffffffffffffffff1673ffffffffffffffffffffffffffffffffffffffff163373ffffffffffffffffffffffffffffffffffffffff16145b6102e7576040517f08c379a00000000000000000000000000000000000000000000000000000000081526004016102de90612528565b60405180910390fd5b60018060156101000a81548160ff021916908315150217905561033f576040517f08c379a000000000000000000000000000000000000000000000000000000000815260040161033690612488565b60405180910390fd5b6000600160166101000a81548160ff0219169083151502179055610398576040517f08c379a000000000000000000000000000000000000000000000000000000000815260040161038f90612428565b60405180910390fd5b6000600160176101000a81548160ff02191690831515021790556103f1576040517f08c379a00000000000000000000000000000000000000000000000000000000081526004016103e890612408565b60405180910390fd5b6000600160146101000a81548160ff021916908315150217905561044a576040517f08c379a0000000000000000000000000000000000000000000000000000000008152600401610441906124c8565b60405180910390fd5b8181600d919061045b92919061165e565b506104646114e5565b5050565b600260009054906101000a900473ffffffffffffffffffffffffffffffffffffffff1673ffffffffffffffffffffffffffffffffffffffff163373ffffffffffffffffffffffffffffffffffffffff1614806105115750600360009054906101000a900473ffffffffffffffffffffffffffffffffffffffff1673ffffffffffffffffffffffffffffffffffffffff163373ffffffffffffffffffffffffffffffffffffffff16145b610550576040517f08c379a000000000000000000000000000000000000000000000000000000000815260040161054790612528565b60405180910390fd5b60018060156101000a81548160ff02191690831515021790556105a8576040517f08c379a000000000000000000000000000000000000000000000000000000000815260040161059f90612488565b60405180910390fd5b6000600160166101000a81548160ff0219169083151502179055610601576040517f08c379a00000000000000000000000000000000000000000000000000000000081526004016105f890612428565b60405180910390fd5b6000600160176101000a81548160ff021916908315150217905561065a576040517f08c379a000000000000000000000000000000000000000000000000000000000815260040161065190612408565b60405180910390fd5b6000600160146101000a81548160ff02191690831515021790556106b3576040517f08c379a00000000000000000000000000000000000000000000000000000000081526004016106aa906124c8565b60405180910390fd5b600c5442116106f7576040517f08c379a00000000000000000000000000000000000000000000000000000000081526004016106ee90612548565b60405180910390fd5b60008054906101000a900473ffffffffffffffffffffffffffffffffffffffff1673ffffffffffffffffffffffffffffffffffffffff1663c49298ac600454600d6040518363ffffffff1660e01b81526004016107559291906122c6565b600060405180830381600087803b15801561076f57600080fd5b505af1158015610783573d6000803e3d6000fd5b5050505060018060146101000a81548160ff021916908315150217905550565b600260009054906101000a900473ffffffffffffffffffffffffffffffffffffffff1673ffffffffffffffffffffffffffffffffffffffff163373ffffffffffffffffffffffffffffffffffffffff1614610833576040517f08c379a000000000000000000000000000000000000000000000000000000000815260040161082a906123e8565b60405180910390fd5b565b60008054906101000a900473ffffffffffffffffffffffffffffffffffffffff1681565b600260009054906101000a900473ffffffffffffffffffffffffffffffffffffffff1673ffffffffffffffffffffffffffffffffffffffff163373ffffffffffffffffffffffffffffffffffffffff16146108e9576040517f08c379a00000000000000000000000000000000000000000000000000000000081526004016108e0906123e8565b60405180910390fd5b60018060156101000a81548160ff0219169083151502179055610941576040517f08c379a000000000000000000000000000000000000000000000000000000000815260040161093890612488565b60405180910390fd5b6000600160166101000a81548160ff021916908315150217905561099a576040517f08c379a000000000000000000000000000000000000000000000000000000000815260040161099190612428565b60405180910390fd5b6000600160176101000a81548160ff02191690831515021790556109f3576040517f08c379a00000000000000000000000000000000000000000000000000000000081526004016109ea90612408565b60405180910390fd5b6000600160146101000a81548160ff0219169083151502179055610a4c576040517f08c379a0000000000000000000000000000000000000000000000000000000008152600401610a43906124c8565b60405180910390fd5b60011515600160159054906101000a900460ff16151514610aa2576040517f08c379a0000000000000000000000000000000000000000000000000000000008152600401610a9990612488565b60405180910390fd5b60008060009054906101000a900473ffffffffffffffffffffffffffffffffffffffff1673ffffffffffffffffffffffffffffffffffffffff1663852c6ae23089886040518463ffffffff1660e01b8152600401610b0293929190612266565b60206040518083038186803b158015610b1a57600080fd5b505afa158015610b2e573d6000803e3d6000fd5b505050506040513d601f19601f82011682018060405250810190610b529190611a8d565b90506000801b861415610c9e578273ffffffffffffffffffffffffffffffffffffffff166323b872dd3330856040518463ffffffff1660e01b8152600401610b9c93929190612206565b602060405180830381600087803b158015610bb657600080fd5b505af1158015610bca573d6000803e3d6000fd5b505050506040513d601f19601f82011682018060405250810190610bee9190611a64565b508273ffffffffffffffffffffffffffffffffffffffff1663095ea7b360008054906101000a900473ffffffffffffffffffffffffffffffffffffffff16846040518363ffffffff1660e01b8152600401610c4a92919061229d565b602060405180830381600087803b158015610c6457600080fd5b505af1158015610c78573d6000803e3d6000fd5b505050506040513d601f19601f82011682018060405250810190610c9c9190611a64565b505b60008054906101000a900473ffffffffffffffffffffffffffffffffffffffff1673ffffffffffffffffffffffffffffffffffffffff166372ce427584888488876040518663ffffffff1660e01b8152600401610cff95949392919061234e565b600060405180830381600087803b158015610d1957600080fd5b505af1158015610d2d573d6000803e3d6000fd5b5050505050505050505050565b600360009054906101000a900473ffffffffffffffffffffffffffffffffffffffff1673ffffffffffffffffffffffffffffffffffffffff163373ffffffffffffffffffffffffffffffffffffffff1614610dca576040517f08c379a0000000000000000000000000000000000000000000000000000000008152600401610dc1906124a8565b60405180910390fd5b60018060166101000a81548160ff0219169083151502179055610e22576040517f08c379a0000000000000000000000000000000000000000000000000000000008152600401610e19906124e8565b60405180910390fd5b6000600160166101000a81548160ff021916908315150217905550610e456114e5565b565b600063bc197c8160e01b905098975050505050505050565b60603073ffffffffffffffffffffffffffffffffffffffff16600e8381548110610eb2577f4e487b7100000000000000000000000000000000000000000000000000000000600052603260045260246000fd5b906000526020600020906003020160010160009054906101000a900473ffffffffffffffffffffffffffffffffffffffff1673ffffffffffffffffffffffffffffffffffffffff1614610f3a576040517f08c379a0000000000000000000000000000000000000000000000000000000008152600401610f31906123c8565b60405180910390fd5b600e8281548110610f74577f4e487b7100000000000000000000000000000000000000000000000000000000600052603260045260246000fd5b906000526020600020906003020160010160149054906101000a900460ff1615610fd3576040517f08c379a0000000000000000000000000000000000000000000000000000000008152600401610fca90612468565b60405180910390fd5b600e828154811061100d577f4e487b7100000000000000000000000000000000000000000000000000000000600052603260045260246000fd5b906000526020600020906003020160000154471015611061576040517f08c379a000000000000000000000000000000000000000000000000000000000815260040161105890612508565b60405180910390fd5b6001600e838154811061109d577f4e487b7100000000000000000000000000000000000000000000000000000000600052603260045260246000fd5b906000526020600020906003020160010160146101000a81548160ff021916908315150217905550600080600e8481548110611102577f4e487b7100000000000000000000000000000000000000000000000000000000600052603260045260246000fd5b906000526020600020906003020160010160009054906101000a900473ffffffffffffffffffffffffffffffffffffffff1673ffffffffffffffffffffffffffffffffffffffff16600e8581548110611184577f4e487b7100000000000000000000000000000000000000000000000000000000600052603260045260246000fd5b906000526020600020906003020160000154600e86815481106111d0577f4e487b7100000000000000000000000000000000000000000000000000000000600052603260045260246000fd5b90600052602060002090600302016002016040516111ee91906121ef565b60006040518083038185875af1925050503d806000811461122b576040519150601f19603f3d011682016040523d82523d6000602084013e611230565b606091505b509150915081611275576040517f08c379a000000000000000000000000000000000000000000000000000000000815260040161126c906123a8565b60405180910390fd5b8092505050919050565b60005b600e805490508110156112ac5761129881610e5f565b5080806112a49061282f565b915050611282565b50565b60008054906101000a900473ffffffffffffffffffffffffffffffffffffffff1673ffffffffffffffffffffffffffffffffffffffff1663a22cb46583836040518363ffffffff1660e01b815260040161130a92919061223d565b600060405180830381600087803b15801561132457600080fd5b505af1158015611338573d6000803e3d6000fd5b505050505050565b600360009054906101000a900473ffffffffffffffffffffffffffffffffffffffff1673ffffffffffffffffffffffffffffffffffffffff163373ffffffffffffffffffffffffffffffffffffffff16146113d0576040517f08c379a00000000000000000000000000000000000000000000000000000000081526004016113c7906124a8565b60405180910390fd5b60011515600160159054906101000a900460ff16151514611426576040517f08c379a000000000000000000000000000000000000000000000000000000000815260040161141d90612488565b60405180910390fd5b60011515600160169054906101000a900460ff1615151461147c576040517f08c379a000000000000000000000000000000000000000000000000000000000815260040161147390612448565b60405180910390fd5b8181600d919061148d92919061165e565b506000600160166101000a81548160ff02191690831515021790555060018060176101000a81548160ff0219169083151502179055506114cb6114e5565b5050565b600063f23a6e6160e01b90509695505050505050565b60018060156101000a81548160ff021916908315150217905561153d576040517f08c379a000000000000000000000000000000000000000000000000000000000815260040161153490612488565b60405180910390fd5b6000600160166101000a81548160ff0219169083151502179055611596576040517f08c379a000000000000000000000000000000000000000000000000000000000815260040161158d90612428565b60405180910390fd5b6000600160176101000a81548160ff02191690831515021790556115ef576040517f08c379a00000000000000000000000000000000000000000000000000000000081526004016115e690612408565b60405180910390fd5b6000600160146101000a81548160ff0219169083151502179055611648576040517f08c379a000000000000000000000000000000000000000000000000000000000815260040161163f906124c8565b60405180910390fd5b600b54426116569190612678565b600c81905550565b82805482825590600052602060002090810192821561169a579160200282015b8281111561169957823582559160200191906001019061167e565b5b5090506116a791906116ab565b5090565b5b808211156116c45760008160009055506001016116ac565b5090565b60006116db6116d684612599565b612568565b905080838252602082019050828560208602820111156116fa57600080fd5b60005b8581101561172a57816117108882611870565b8452602084019350602083019250506001810190506116fd565b5050509392505050565b60008135905061174381612936565b92915050565b60008083601f84011261175b57600080fd5b8235905067ffffffffffffffff81111561177457600080fd5b60208301915083602082028301111561178c57600080fd5b9250929050565b600082601f8301126117a457600080fd5b81356117b48482602086016116c8565b91505092915050565b6000813590506117cc8161294d565b92915050565b6000815190506117e18161294d565b92915050565b6000813590506117f681612964565b92915050565b60008151905061180b81612964565b92915050565b60008083601f84011261182357600080fd5b8235905067ffffffffffffffff81111561183c57600080fd5b60208301915083600182028301111561185457600080fd5b9250929050565b60008135905061186a8161297b565b92915050565b60008135905061187f81612992565b92915050565b60008060008060008060008060a0898b0312156118a157600080fd5b60006118af8b828c01611734565b98505060206118c08b828c01611734565b975050604089013567ffffffffffffffff8111156118dd57600080fd5b6118e98b828c01611749565b9650965050606089013567ffffffffffffffff81111561190857600080fd5b6119148b828c01611749565b9450945050608089013567ffffffffffffffff81111561193357600080fd5b61193f8b828c01611811565b92509250509295985092959890939650565b60008060008060008060a0878903121561196a57600080fd5b600061197889828a01611734565b965050602061198989828a01611734565b955050604061199a89828a01611870565b94505060606119ab89828a01611870565b935050608087013567ffffffffffffffff8111156119c857600080fd5b6119d489828a01611811565b92509250509295509295509295565b600080604083850312156119f657600080fd5b6000611a0485828601611734565b9250506020611a15858286016117bd565b9150509250929050565b60008060208385031215611a3257600080fd5b600083013567ffffffffffffffff811115611a4c57600080fd5b611a5885828601611749565b92509250509250929050565b600060208284031215611a7657600080fd5b6000611a84848285016117d2565b91505092915050565b600060208284031215611a9f57600080fd5b6000611aad848285016117fc565b91505092915050565b60008060008060008060c08789031215611acf57600080fd5b6000611add89828a016117e7565b9650506020611aee89828a016117e7565b9550506040611aff89828a01611870565b945050606087013567ffffffffffffffff811115611b1c57600080fd5b611b2889828a01611793565b9350506080611b3989828a0161185b565b92505060a0611b4a89828a01611870565b9150509295509295509295565b600060208284031215611b6957600080fd5b6000611b7784828501611870565b91505092915050565b6000611b8c83836121d1565b60208301905092915050565b611ba1816126d8565b82525050565b6000611bb2826125ff565b611bbc818561263a565b9350611bc7836125c5565b8060005b83811015611bf8578151611bdf8882611b80565b9750611bea83612620565b925050600181019050611bcb565b5085935050505092915050565b6000611c108261260a565b611c1a818561263a565b9350611c25836125d5565b8060005b83811015611c5d57611c3a82612905565b611c448882611b80565b9750611c4f8361262d565b925050600181019050611c29565b5085935050505092915050565b611c73816126ea565b82525050565b611c82816126f6565b82525050565b611c9181612700565b82525050565b6000611ca282612615565b611cac818561264b565b9350611cbc8185602086016127b0565b611cc581612918565b840191505092915050565b60008154611cdd816127e3565b611ce7818661265c565b94506001821660008114611d025760018114611d1357611d46565b60ff19831686528186019350611d46565b611d1c856125ea565b60005b83811015611d3e57815481890152600182019150602081019050611d1f565b838801955050505b50505092915050565b611d5881612768565b82525050565b611d678161278c565b82525050565b6000611d7a601483612667565b91507f4d696e696f6e3a3a63616c6c206661696c7572650000000000000000000000006000830152602082019050919050565b6000611dba601683612667565b91507f4d696e696f6e3a3a696e76616c696420746172676574000000000000000000006000830152602082019050919050565b6000611dfa602d83612667565b91507f536f6c7665723a204f6e6c7920746865204b656570657220616464726573732060008301527f6d61792063616c6c2074686973000000000000000000000000000000000000006020830152604082019050919050565b6000611e60602683612667565b91507f536f6c7665723a204172626974726174696f6e20686173206265656e2064656c60008301527f69766572656400000000000000000000000000000000000000000000000000006020830152604082019050919050565b6000611ec6601e83612667565b91507f536f6c7665723a204172626974726174696f6e2069732070656e64696e6700006000830152602082019050919050565b6000611f06601f83612667565b91507f536f6c7665723a204172626974726174696f6e206e6f742070656e64696e67006000830152602082019050919050565b6000611f46601783612667565b91507f4d696e696f6e3a3a616374696f6e2065786563757465640000000000000000006000830152602082019050919050565b6000611f86601383612667565b91507f536f6c7665723a20556e696e69746961746564000000000000000000000000006000830152602082019050919050565b6000611fc6602e83612667565b91507f536f6c7665723a204f6e6c79207468652041726269746572206164647265737360008301527f206d61792063616c6c20746869730000000000000000000000000000000000006020830152604082019050919050565b600061202c601983612667565b91507f536f6c7665723a20536f6c766520697320636f6d706c657465000000000000006000830152602082019050919050565b600061206c602283612667565b91507f536f6c7665723a204172626974726174696f6e206973206e6f742070656e646960008301527f6e670000000000000000000000000000000000000000000000000000000000006020830152604082019050919050565b60006120d2601883612667565b91507f4d696e696f6e3a3a696e73756666696369656e742065746800000000000000006000830152602082019050919050565b6000612112603183612667565b91507f536f6c7665723a204f6e6c7920746865204b6565706572206f7220417262697460008301527f6572206d61792063616c6c20746869732e0000000000000000000000000000006020830152604082019050919050565b6000612178602783612667565b91507f536f6c7665723a2054696d656c6f636b206973207374696c6c20696e2074686560008301527f20667574757265000000000000000000000000000000000000000000000000006020830152604082019050919050565b6121da8161275e565b82525050565b6121e98161275e565b82525050565b60006121fb8284611cd0565b915081905092915050565b600060608201905061221b6000830186611b98565b6122286020830185611b98565b61223560408301846121e0565b949350505050565b60006040820190506122526000830185611b98565b61225f6020830184611c6a565b9392505050565b600060608201905061227b6000830186611b98565b6122886020830185611c79565b61229560408301846121e0565b949350505050565b60006040820190506122b26000830185611b98565b6122bf60208301846121e0565b9392505050565b60006040820190506122db6000830185611c79565b81810360208301526122ed8184611c05565b90509392505050565b600060208201905061230b6000830184611c88565b92915050565b6000602082019050818103600083015261232b8184611c97565b905092915050565b60006020820190506123486000830184611d4f565b92915050565b600060a0820190506123636000830188611d5e565b6123706020830187611c79565b61237d6040830186611c79565b818103606083015261238f8185611ba7565b905061239e60808301846121e0565b9695505050505050565b600060208201905081810360008301526123c181611d6d565b9050919050565b600060208201905081810360008301526123e181611dad565b9050919050565b6000602082019050818103600083015261240181611ded565b9050919050565b6000602082019050818103600083015261242181611e53565b9050919050565b6000602082019050818103600083015261244181611eb9565b9050919050565b6000602082019050818103600083015261246181611ef9565b9050919050565b6000602082019050818103600083015261248181611f39565b9050919050565b600060208201905081810360008301526124a181611f79565b9050919050565b600060208201905081810360008301526124c181611fb9565b9050919050565b600060208201905081810360008301526124e18161201f565b9050919050565b600060208201905081810360008301526125018161205f565b9050919050565b60006020820190508181036000830152612521816120c5565b9050919050565b6000602082019050818103600083015261254181612105565b9050919050565b600060208201905081810360008301526125618161216b565b9050919050565b6000604051905081810181811067ffffffffffffffff8211171561258f5761258e6128d6565b5b8060405250919050565b600067ffffffffffffffff8211156125b4576125b36128d6565b5b602082029050602081019050919050565b6000819050602082019050919050565b60008190508160005260206000209050919050565b60008190508160005260206000209050919050565b600081519050919050565b600081549050919050565b600081519050919050565b6000602082019050919050565b6000600182019050919050565b600082825260208201905092915050565b600082825260208201905092915050565b600081905092915050565b600082825260208201905092915050565b60006126838261275e565b915061268e8361275e565b9250827fffffffffffffffffffffffffffffffffffffffffffffffffffffffffffffffff038211156126c3576126c2612878565b5b828201905092915050565b6000819050919050565b60006126e38261273e565b9050919050565b60008115159050919050565b6000819050919050565b60007fffffffff0000000000000000000000000000000000000000000000000000000082169050919050565b6000612737826126d8565b9050919050565b600073ffffffffffffffffffffffffffffffffffffffff82169050919050565b6000819050919050565b60006127738261277a565b9050919050565b60006127858261273e565b9050919050565b60006127978261279e565b9050919050565b60006127a98261273e565b9050919050565b60005b838110156127ce5780820151818401526020810190506127b3565b838111156127dd576000848401525b50505050565b600060028204905060018216806127fb57607f821691505b6020821081141561280f5761280e6128a7565b5b50919050565b600061282861282383612929565b6126ce565b9050919050565b600061283a8261275e565b91507fffffffffffffffffffffffffffffffffffffffffffffffffffffffffffffffff82141561286d5761286c612878565b5b600182019050919050565b7f4e487b7100000000000000000000000000000000000000000000000000000000600052601160045260246000fd5b7f4e487b7100000000000000000000000000000000000000000000000000000000600052602260045260246000fd5b7f4e487b7100000000000000000000000000000000000000000000000000000000600052604160045260246000fd5b60006129118254612815565b9050919050565b6000601f19601f8301169050919050565b60008160001c9050919050565b61293f816126d8565b811461294a57600080fd5b50565b612956816126ea565b811461296157600080fd5b50565b61296d816126f6565b811461297857600080fd5b50565b6129848161272c565b811461298f57600080fd5b50565b61299b8161275e565b81146129a657600080fd5b5056fea26469706673582212204b47fb4efd21e87edaf66b4330fdbcfc550b5b1d1bcb381356a69edcf0110e0f64736f6c63430008000033",
  "linkReferences": {},
  "deployedLinkReferences": {}
}