{
  "_format": "hh-sol-artifact-1",
  "contractName": "Solver",
  "sourceName": "contracts/Solver.sol",
  "abi": [
    {
      "inputs": [
        {
          "internalType": "address",
          "name": "_keeper",
          "type": "address"
        },
        {
          "internalType": "address",
          "name": "_arbiter",
          "type": "address"
        },
        {
          "internalType": "uint256",
          "name": "_timelockHours",
          "type": "uint256"
        },
        {
          "components": [
            {
              "internalType": "uint256",
              "name": "value",
              "type": "uint256"
            },
            {
              "internalType": "address",
              "name": "to",
              "type": "address"
            },
            {
              "internalType": "bool",
              "name": "executed",
              "type": "bool"
            },
            {
              "internalType": "bytes",
              "name": "data",
              "type": "bytes"
            }
          ],
          "internalType": "struct Minion.Action[]",
          "name": "_actions",
          "type": "tuple[]"
        },
        {
          "internalType": "bytes",
          "name": "_data",
          "type": "bytes"
        }
      ],
      "stateMutability": "nonpayable",
      "type": "constructor"
    },
    {
      "inputs": [
        {
          "internalType": "uint256[]",
          "name": "_payouts",
          "type": "uint256[]"
        }
      ],
      "name": "arbitrate",
      "outputs": [],
      "stateMutability": "nonpayable",
      "type": "function"
    },
    {
      "inputs": [],
      "name": "conditionalTokens",
      "outputs": [
        {
          "internalType": "contract ConditionalTokens",
          "name": "",
          "type": "address"
        }
      ],
      "stateMutability": "view",
      "type": "function"
    },
    {
      "inputs": [],
      "name": "confirmPayouts",
      "outputs": [],
      "stateMutability": "nonpayable",
      "type": "function"
    },
    {
      "inputs": [
        {
          "internalType": "uint256",
          "name": "_actionIndex",
          "type": "uint256"
        }
      ],
      "name": "executeAction",
      "outputs": [
        {
          "internalType": "bytes",
          "name": "",
          "type": "bytes"
        }
      ],
      "stateMutability": "nonpayable",
      "type": "function"
    },
    {
      "inputs": [],
      "name": "executeActions",
      "outputs": [],
      "stateMutability": "nonpayable",
      "type": "function"
    },
    {
      "inputs": [],
      "name": "initiateSolve",
      "outputs": [],
      "stateMutability": "nonpayable",
      "type": "function"
    },
    {
      "inputs": [],
      "name": "nullArbitrate",
      "outputs": [],
      "stateMutability": "nonpayable",
      "type": "function"
    },
    {
      "inputs": [
        {
          "internalType": "address",
          "name": "operator",
          "type": "address"
        },
        {
          "internalType": "address",
          "name": "from",
          "type": "address"
        },
        {
          "internalType": "uint256[]",
          "name": "ids",
          "type": "uint256[]"
        },
        {
          "internalType": "uint256[]",
          "name": "values",
          "type": "uint256[]"
        },
        {
          "internalType": "bytes",
          "name": "data",
          "type": "bytes"
        }
      ],
      "name": "onERC1155BatchReceived",
      "outputs": [
        {
          "internalType": "bytes4",
          "name": "",
          "type": "bytes4"
        }
      ],
      "stateMutability": "pure",
      "type": "function"
    },
    {
      "inputs": [
        {
          "internalType": "address",
          "name": "operator",
          "type": "address"
        },
        {
          "internalType": "address",
          "name": "from",
          "type": "address"
        },
        {
          "internalType": "uint256",
          "name": "id",
          "type": "uint256"
        },
        {
          "internalType": "uint256",
          "name": "value",
          "type": "uint256"
        },
        {
          "internalType": "bytes",
          "name": "data",
          "type": "bytes"
        }
      ],
      "name": "onERC1155Received",
      "outputs": [
        {
          "internalType": "bytes4",
          "name": "",
          "type": "bytes4"
        }
      ],
      "stateMutability": "pure",
      "type": "function"
    },
    {
      "inputs": [
        {
          "internalType": "uint256[]",
          "name": "_payouts",
          "type": "uint256[]"
        }
      ],
      "name": "proposePayouts",
      "outputs": [],
      "stateMutability": "nonpayable",
      "type": "function"
    },
    {
      "inputs": [
        {
          "internalType": "address",
          "name": "operator",
          "type": "address"
        },
        {
          "internalType": "bool",
          "name": "approved",
          "type": "bool"
        }
      ],
      "name": "setApproval",
      "outputs": [],
      "stateMutability": "nonpayable",
      "type": "function"
    },
    {
      "inputs": [
        {
          "internalType": "bytes32",
          "name": "_questionId",
          "type": "bytes32"
        },
        {
          "internalType": "bytes32",
          "name": "_parentCollectionId",
          "type": "bytes32"
        },
        {
          "internalType": "uint256",
          "name": "_outcomeSlots",
          "type": "uint256"
        },
        {
          "internalType": "uint256[]",
          "name": "_partition",
          "type": "uint256[]"
        },
        {
          "internalType": "contract IERC20",
          "name": "_collateralToken",
          "type": "address"
        },
        {
          "internalType": "uint256",
          "name": "_amount",
          "type": "uint256"
        }
      ],
      "name": "splitCondition",
      "outputs": [],
      "stateMutability": "nonpayable",
      "type": "function"
    }
  ],
  "bytecode": "0x608060405260008060006101000a81548173ffffffffffffffffffffffffffffffffffffffff021916908373ffffffffffffffffffffffffffffffffffffffff1602179055503480156200005257600080fd5b506040516200359b3803806200359b833981810160405281019062000078919062000594565b600073ffffffffffffffffffffffffffffffffffffffff168573ffffffffffffffffffffffffffffffffffffffff161415620000eb576040517f08c379a0000000000000000000000000000000000000000000000000000000008152600401620000e290620008de565b60405180910390fd5b60005b82518110156200020d57600c83828151811062000134577f4e487b7100000000000000000000000000000000000000000000000000000000600052603260045260246000fd5b602002602001015190806001815401808255809150506001900390600052602060002090600302016000909190919091506000820151816000015560208201518160010160006101000a81548173ffffffffffffffffffffffffffffffffffffffff021916908373ffffffffffffffffffffffffffffffffffffffff16021790555060408201518160010160146101000a81548160ff0219169083151502179055506060820151816002019080519060200190620001f492919062000303565b5050508080620002049062000b24565b915050620000ee565b5084600260006101000a81548173ffffffffffffffffffffffffffffffffffffffff021916908373ffffffffffffffffffffffffffffffffffffffff16021790555083600360006101000a81548173ffffffffffffffffffffffffffffffffffffffff021916908373ffffffffffffffffffffffffffffffffffffffff160217905550610e1083620002a0919062000a0d565b60098190555080600d9080519060200190620002be92919062000303565b50308585848442604051602001620002dc9695949392919062000863565b60405160208183030381529060405280519060200120600481905550505050505062000c5e565b828054620003119062000aee565b90600052602060002090601f01602090048101928262000335576000855562000381565b82601f106200035057805160ff191683800117855562000381565b8280016001018555821562000381579182015b828111156200038057825182559160200191906001019062000363565b5b50905062000390919062000394565b5090565b5b80821115620003af57600081600090555060010162000395565b5090565b6000620003ca620003c48462000934565b62000900565b9050808382526020820190508260005b858110156200040e5781518501620003f38882620004e5565b845260208401935060208301925050600181019050620003da565b5050509392505050565b60006200042f620004298462000963565b62000900565b9050828152602081018484840111156200044857600080fd5b6200045584828562000ab8565b509392505050565b6000815190506200046e8162000c10565b92915050565b600082601f8301126200048657600080fd5b815162000498848260208601620003b3565b91505092915050565b600081519050620004b28162000c2a565b92915050565b600082601f830112620004ca57600080fd5b8151620004dc84826020860162000418565b91505092915050565b600060808284031215620004f857600080fd5b62000504608062000900565b9050600062000516848285016200057d565b60008301525060206200052c848285016200045d565b60208301525060406200054284828501620004a1565b604083015250606082015167ffffffffffffffff8111156200056357600080fd5b6200057184828501620004b8565b60608301525092915050565b6000815190506200058e8162000c44565b92915050565b600080600080600060a08688031215620005ad57600080fd5b6000620005bd888289016200045d565b9550506020620005d0888289016200045d565b9450506040620005e3888289016200057d565b935050606086015167ffffffffffffffff8111156200060157600080fd5b6200060f8882890162000474565b925050608086015167ffffffffffffffff8111156200062d57600080fd5b6200063b88828901620004b8565b9150509295509295909350565b6000620006568383620007d6565b905092915050565b620006698162000a6e565b82525050565b6200067a8162000a6e565b82525050565b60006200068d82620009a6565b620006998185620009c9565b935083602082028501620006ad8562000996565b8060005b85811015620006ef5784840389528151620006cd858262000648565b9450620006da83620009bc565b925060208a01995050600181019050620006b1565b50829750879550505050505092915050565b6200070c8162000a82565b82525050565b60006200071f82620009b1565b6200072b8185620009da565b93506200073d81856020860162000ab8565b620007488162000bff565b840191505092915050565b60006200076082620009b1565b6200076c8185620009eb565b93506200077e81856020860162000ab8565b620007898162000bff565b840191505092915050565b6000620007a3601e83620009fc565b91507f536f6c7665723a204b6565706572206164647265737320696e76616c696400006000830152602082019050919050565b6000608083016000830151620007f0600086018262000841565b5060208301516200080560208601826200065e565b5060408301516200081a604086018262000701565b506060830151848203606086015262000834828262000712565b9150508091505092915050565b6200084c8162000aae565b82525050565b6200085d8162000aae565b82525050565b600060c0820190506200087a60008301896200066f565b6200088960208301886200066f565b6200089860408301876200066f565b8181036060830152620008ac818662000680565b90508181036080830152620008c2818562000753565b9050620008d360a083018462000852565b979650505050505050565b60006020820190508181036000830152620008f98162000794565b9050919050565b6000604051905081810181811067ffffffffffffffff821117156200092a576200092962000bd0565b5b8060405250919050565b600067ffffffffffffffff82111562000952576200095162000bd0565b5b602082029050602081019050919050565b600067ffffffffffffffff82111562000981576200098062000bd0565b5b601f19601f8301169050602081019050919050565b6000819050602082019050919050565b600081519050919050565b600081519050919050565b6000602082019050919050565b600082825260208201905092915050565b600082825260208201905092915050565b600082825260208201905092915050565b600082825260208201905092915050565b600062000a1a8262000aae565b915062000a278362000aae565b9250817fffffffffffffffffffffffffffffffffffffffffffffffffffffffffffffffff048311821515161562000a635762000a6262000b72565b5b828202905092915050565b600062000a7b8262000a8e565b9050919050565b60008115159050919050565b600073ffffffffffffffffffffffffffffffffffffffff82169050919050565b6000819050919050565b60005b8381101562000ad857808201518184015260208101905062000abb565b8381111562000ae8576000848401525b50505050565b6000600282049050600182168062000b0757607f821691505b6020821081141562000b1e5762000b1d62000ba1565b5b50919050565b600062000b318262000aae565b91507fffffffffffffffffffffffffffffffffffffffffffffffffffffffffffffffff82141562000b675762000b6662000b72565b5b600182019050919050565b7f4e487b7100000000000000000000000000000000000000000000000000000000600052601160045260246000fd5b7f4e487b7100000000000000000000000000000000000000000000000000000000600052602260045260246000fd5b7f4e487b7100000000000000000000000000000000000000000000000000000000600052604160045260246000fd5b6000601f19601f8301169050919050565b62000c1b8162000a6e565b811462000c2757600080fd5b50565b62000c358162000a82565b811462000c4157600080fd5b50565b62000c4f8162000aae565b811462000c5b57600080fd5b50565b61292d8062000c6e6000396000f3fe608060405234801561001057600080fd5b50600436106100b45760003560e01c8063bc197c8111610071578063bc197c811461012d578063c0c1cf551461015d578063c94f554d1461018d578063db9b717014610197578063e7fd2059146101b3578063f23a6e61146101cf576100b4565b80630d49722d146100b957806348d6bc00146100d55780635a7e6898146100df5780635bd9e299146100e95780636c7f0592146101075780636f2f3e7714610123575b600080fd5b6100d360048036038101906100ce91906119cd565b6101ff565b005b6100dd610468565b005b6100e76107a3565b005b6100f161084f565b6040516100fe91906122a1565b60405180910390f35b610121600480360381019061011c9190611a64565b610873565b005b61012b610d54565b005b61014760048036038101906101429190611833565b610e61565b6040516101549190612264565b60405180910390f35b61017760048036038101906101729190611b05565b610e79565b604051610184919061227f565b60405180910390f35b61019561122d565b005b6101b160048036038101906101ac9190611991565b61125d565b005b6101cd60048036038101906101c891906119cd565b6112ee565b005b6101e960048036038101906101e491906118ff565b61147d565b6040516101f69190612264565b60405180910390f35b600260009054906101000a900473ffffffffffffffffffffffffffffffffffffffff1673ffffffffffffffffffffffffffffffffffffffff163373ffffffffffffffffffffffffffffffffffffffff1614806102a85750600360009054906101000a900473ffffffffffffffffffffffffffffffffffffffff1673ffffffffffffffffffffffffffffffffffffffff163373ffffffffffffffffffffffffffffffffffffffff16145b6102e7576040517f08c379a00000000000000000000000000000000000000000000000000000000081526004016102de90612476565b60405180910390fd5b60018060156101000a81548160ff021916908315150217905561033f576040517f08c379a0000000000000000000000000000000000000000000000000000000008152600401610336906123d6565b60405180910390fd5b6000600160166101000a81548160ff0219169083151502179055610398576040517f08c379a000000000000000000000000000000000000000000000000000000000815260040161038f90612376565b60405180910390fd5b6000600160176101000a81548160ff02191690831515021790556103f1576040517f08c379a00000000000000000000000000000000000000000000000000000000081526004016103e890612356565b60405180910390fd5b6000600160146101000a81548160ff021916908315150217905561044a576040517f08c379a000000000000000000000000000000000000000000000000000000000815260040161044190612416565b60405180910390fd5b8181600b919061045b92919061160c565b50610464611493565b5050565b600260009054906101000a900473ffffffffffffffffffffffffffffffffffffffff1673ffffffffffffffffffffffffffffffffffffffff163373ffffffffffffffffffffffffffffffffffffffff1614806105115750600360009054906101000a900473ffffffffffffffffffffffffffffffffffffffff1673ffffffffffffffffffffffffffffffffffffffff163373ffffffffffffffffffffffffffffffffffffffff16145b610550576040517f08c379a000000000000000000000000000000000000000000000000000000000815260040161054790612476565b60405180910390fd5b60018060156101000a81548160ff02191690831515021790556105a8576040517f08c379a000000000000000000000000000000000000000000000000000000000815260040161059f906123d6565b60405180910390fd5b6000600160166101000a81548160ff0219169083151502179055610601576040517f08c379a00000000000000000000000000000000000000000000000000000000081526004016105f890612376565b60405180910390fd5b6000600160176101000a81548160ff021916908315150217905561065a576040517f08c379a000000000000000000000000000000000000000000000000000000000815260040161065190612356565b60405180910390fd5b6000600160146101000a81548160ff02191690831515021790556106b3576040517f08c379a00000000000000000000000000000000000000000000000000000000081526004016106aa90612416565b60405180910390fd5b600a5442116106f7576040517f08c379a00000000000000000000000000000000000000000000000000000000081526004016106ee90612496565b60405180910390fd5b60008054906101000a900473ffffffffffffffffffffffffffffffffffffffff1673ffffffffffffffffffffffffffffffffffffffff1663c49298ac600454600b6040518363ffffffff1660e01b8152600401610755929190612234565b600060405180830381600087803b15801561076f57600080fd5b505af1158015610783573d6000803e3d6000fd5b5050505060018060146101000a81548160ff021916908315150217905550565b600260009054906101000a900473ffffffffffffffffffffffffffffffffffffffff1673ffffffffffffffffffffffffffffffffffffffff163373ffffffffffffffffffffffffffffffffffffffff1614610833576040517f08c379a000000000000000000000000000000000000000000000000000000000815260040161082a90612336565b60405180910390fd5b60018060156101000a81548160ff021916908315150217905550565b60008054906101000a900473ffffffffffffffffffffffffffffffffffffffff1681565b600260009054906101000a900473ffffffffffffffffffffffffffffffffffffffff1673ffffffffffffffffffffffffffffffffffffffff163373ffffffffffffffffffffffffffffffffffffffff1614610903576040517f08c379a00000000000000000000000000000000000000000000000000000000081526004016108fa90612336565b60405180910390fd5b60018060156101000a81548160ff021916908315150217905561095b576040517f08c379a0000000000000000000000000000000000000000000000000000000008152600401610952906123d6565b60405180910390fd5b6000600160166101000a81548160ff02191690831515021790556109b4576040517f08c379a00000000000000000000000000000000000000000000000000000000081526004016109ab90612376565b60405180910390fd5b6000600160176101000a81548160ff0219169083151502179055610a0d576040517f08c379a0000000000000000000000000000000000000000000000000000000008152600401610a0490612356565b60405180910390fd5b6000600160146101000a81548160ff0219169083151502179055610a66576040517f08c379a0000000000000000000000000000000000000000000000000000000008152600401610a5d90612416565b60405180910390fd5b60011515600160159054906101000a900460ff16151514610abc576040517f08c379a0000000000000000000000000000000000000000000000000000000008152600401610ab3906123d6565b60405180910390fd5b60008060009054906101000a900473ffffffffffffffffffffffffffffffffffffffff1673ffffffffffffffffffffffffffffffffffffffff1663852c6ae23089886040518463ffffffff1660e01b8152600401610b1c939291906121d4565b60206040518083038186803b158015610b3457600080fd5b505afa158015610b48573d6000803e3d6000fd5b505050506040513d601f19601f82011682018060405250810190610b6c9190611a3b565b90506000801b861415610cb8578273ffffffffffffffffffffffffffffffffffffffff166323b872dd3330856040518463ffffffff1660e01b8152600401610bb693929190612174565b602060405180830381600087803b158015610bd057600080fd5b505af1158015610be4573d6000803e3d6000fd5b505050506040513d601f19601f82011682018060405250810190610c089190611a12565b508273ffffffffffffffffffffffffffffffffffffffff1663095ea7b360008054906101000a900473ffffffffffffffffffffffffffffffffffffffff16846040518363ffffffff1660e01b8152600401610c6492919061220b565b602060405180830381600087803b158015610c7e57600080fd5b505af1158015610c92573d6000803e3d6000fd5b505050506040513d601f19601f82011682018060405250810190610cb69190611a12565b505b60008054906101000a900473ffffffffffffffffffffffffffffffffffffffff1673ffffffffffffffffffffffffffffffffffffffff166372ce427584888488876040518663ffffffff1660e01b8152600401610d199594939291906122bc565b600060405180830381600087803b158015610d3357600080fd5b505af1158015610d47573d6000803e3d6000fd5b5050505050505050505050565b600360009054906101000a900473ffffffffffffffffffffffffffffffffffffffff1673ffffffffffffffffffffffffffffffffffffffff163373ffffffffffffffffffffffffffffffffffffffff1614610de4576040517f08c379a0000000000000000000000000000000000000000000000000000000008152600401610ddb906123f6565b60405180910390fd5b60018060166101000a81548160ff0219169083151502179055610e3c576040517f08c379a0000000000000000000000000000000000000000000000000000000008152600401610e3390612436565b60405180910390fd5b6000600160166101000a81548160ff021916908315150217905550610e5f611493565b565b600063bc197c8160e01b905098975050505050505050565b6060600c8281548110610eb5577f4e487b7100000000000000000000000000000000000000000000000000000000600052603260045260246000fd5b906000526020600020906003020160010160009054906101000a900473ffffffffffffffffffffffffffffffffffffffff16600c8381548110610f21577f4e487b7100000000000000000000000000000000000000000000000000000000600052603260045260246000fd5b906000526020600020906003020160010160149054906101000a900460ff1615610f80576040517f08c379a0000000000000000000000000000000000000000000000000000000008152600401610f77906123b6565b60405180910390fd5b600c8381548110610fba577f4e487b7100000000000000000000000000000000000000000000000000000000600052603260045260246000fd5b90600052602060002090600302016000015447101561100e576040517f08c379a000000000000000000000000000000000000000000000000000000000815260040161100590612456565b60405180910390fd5b6001600c848154811061104a577f4e487b7100000000000000000000000000000000000000000000000000000000600052603260045260246000fd5b906000526020600020906003020160010160146101000a81548160ff021916908315150217905550600080600c85815481106110af577f4e487b7100000000000000000000000000000000000000000000000000000000600052603260045260246000fd5b906000526020600020906003020160010160009054906101000a900473ffffffffffffffffffffffffffffffffffffffff1673ffffffffffffffffffffffffffffffffffffffff16600c8681548110611131577f4e487b7100000000000000000000000000000000000000000000000000000000600052603260045260246000fd5b906000526020600020906003020160000154600c878154811061117d577f4e487b7100000000000000000000000000000000000000000000000000000000600052603260045260246000fd5b906000526020600020906003020160020160405161119b919061215d565b60006040518083038185875af1925050503d80600081146111d8576040519150601f19603f3d011682016040523d82523d6000602084013e6111dd565b606091505b509150915081611222576040517f08c379a000000000000000000000000000000000000000000000000000000000815260040161121990612316565b60405180910390fd5b809350505050919050565b60005b600c8054905081101561125a5761124681610e79565b5080806112529061277d565b915050611230565b50565b60008054906101000a900473ffffffffffffffffffffffffffffffffffffffff1673ffffffffffffffffffffffffffffffffffffffff1663a22cb46583836040518363ffffffff1660e01b81526004016112b89291906121ab565b600060405180830381600087803b1580156112d257600080fd5b505af11580156112e6573d6000803e3d6000fd5b505050505050565b600360009054906101000a900473ffffffffffffffffffffffffffffffffffffffff1673ffffffffffffffffffffffffffffffffffffffff163373ffffffffffffffffffffffffffffffffffffffff161461137e576040517f08c379a0000000000000000000000000000000000000000000000000000000008152600401611375906123f6565b60405180910390fd5b60011515600160159054906101000a900460ff161515146113d4576040517f08c379a00000000000000000000000000000000000000000000000000000000081526004016113cb906123d6565b60405180910390fd5b60011515600160169054906101000a900460ff1615151461142a576040517f08c379a000000000000000000000000000000000000000000000000000000000815260040161142190612396565b60405180910390fd5b8181600b919061143b92919061160c565b506000600160166101000a81548160ff02191690831515021790555060018060176101000a81548160ff021916908315150217905550611479611493565b5050565b600063f23a6e6160e01b90509695505050505050565b60018060156101000a81548160ff02191690831515021790556114eb576040517f08c379a00000000000000000000000000000000000000000000000000000000081526004016114e2906123d6565b60405180910390fd5b6000600160166101000a81548160ff0219169083151502179055611544576040517f08c379a000000000000000000000000000000000000000000000000000000000815260040161153b90612376565b60405180910390fd5b6000600160176101000a81548160ff021916908315150217905561159d576040517f08c379a000000000000000000000000000000000000000000000000000000000815260040161159490612356565b60405180910390fd5b6000600160146101000a81548160ff02191690831515021790556115f6576040517f08c379a00000000000000000000000000000000000000000000000000000000081526004016115ed90612416565b60405180910390fd5b6009544261160491906125c6565b600a81905550565b828054828255906000526020600020908101928215611648579160200282015b8281111561164757823582559160200191906001019061162c565b5b5090506116559190611659565b5090565b5b8082111561167257600081600090555060010161165a565b5090565b6000611689611684846124e7565b6124b6565b905080838252602082019050828560208602820111156116a857600080fd5b60005b858110156116d857816116be888261181e565b8452602084019350602083019250506001810190506116ab565b5050509392505050565b6000813590506116f181612884565b92915050565b60008083601f84011261170957600080fd5b8235905067ffffffffffffffff81111561172257600080fd5b60208301915083602082028301111561173a57600080fd5b9250929050565b600082601f83011261175257600080fd5b8135611762848260208601611676565b91505092915050565b60008135905061177a8161289b565b92915050565b60008151905061178f8161289b565b92915050565b6000813590506117a4816128b2565b92915050565b6000815190506117b9816128b2565b92915050565b60008083601f8401126117d157600080fd5b8235905067ffffffffffffffff8111156117ea57600080fd5b60208301915083600182028301111561180257600080fd5b9250929050565b600081359050611818816128c9565b92915050565b60008135905061182d816128e0565b92915050565b60008060008060008060008060a0898b03121561184f57600080fd5b600061185d8b828c016116e2565b985050602061186e8b828c016116e2565b975050604089013567ffffffffffffffff81111561188b57600080fd5b6118978b828c016116f7565b9650965050606089013567ffffffffffffffff8111156118b657600080fd5b6118c28b828c016116f7565b9450945050608089013567ffffffffffffffff8111156118e157600080fd5b6118ed8b828c016117bf565b92509250509295985092959890939650565b60008060008060008060a0878903121561191857600080fd5b600061192689828a016116e2565b965050602061193789828a016116e2565b955050604061194889828a0161181e565b945050606061195989828a0161181e565b935050608087013567ffffffffffffffff81111561197657600080fd5b61198289828a016117bf565b92509250509295509295509295565b600080604083850312156119a457600080fd5b60006119b2858286016116e2565b92505060206119c38582860161176b565b9150509250929050565b600080602083850312156119e057600080fd5b600083013567ffffffffffffffff8111156119fa57600080fd5b611a06858286016116f7565b92509250509250929050565b600060208284031215611a2457600080fd5b6000611a3284828501611780565b91505092915050565b600060208284031215611a4d57600080fd5b6000611a5b848285016117aa565b91505092915050565b60008060008060008060c08789031215611a7d57600080fd5b6000611a8b89828a01611795565b9650506020611a9c89828a01611795565b9550506040611aad89828a0161181e565b945050606087013567ffffffffffffffff811115611aca57600080fd5b611ad689828a01611741565b9350506080611ae789828a01611809565b92505060a0611af889828a0161181e565b9150509295509295509295565b600060208284031215611b1757600080fd5b6000611b258482850161181e565b91505092915050565b6000611b3a838361213f565b60208301905092915050565b611b4f81612626565b82525050565b6000611b608261254d565b611b6a8185612588565b9350611b7583612513565b8060005b83811015611ba6578151611b8d8882611b2e565b9750611b988361256e565b925050600181019050611b79565b5085935050505092915050565b6000611bbe82612558565b611bc88185612588565b9350611bd383612523565b8060005b83811015611c0b57611be882612853565b611bf28882611b2e565b9750611bfd8361257b565b925050600181019050611bd7565b5085935050505092915050565b611c2181612638565b82525050565b611c3081612644565b82525050565b611c3f8161264e565b82525050565b6000611c5082612563565b611c5a8185612599565b9350611c6a8185602086016126fe565b611c7381612866565b840191505092915050565b60008154611c8b81612731565b611c9581866125aa565b94506001821660008114611cb05760018114611cc157611cf4565b60ff19831686528186019350611cf4565b611cca85612538565b60005b83811015611cec57815481890152600182019150602081019050611ccd565b838801955050505b50505092915050565b611d06816126b6565b82525050565b611d15816126da565b82525050565b6000611d286014836125b5565b91507f4d696e696f6e3a3a63616c6c206661696c7572650000000000000000000000006000830152602082019050919050565b6000611d68602d836125b5565b91507f536f6c7665723a204f6e6c7920746865204b656570657220616464726573732060008301527f6d61792063616c6c2074686973000000000000000000000000000000000000006020830152604082019050919050565b6000611dce6026836125b5565b91507f536f6c7665723a204172626974726174696f6e20686173206265656e2064656c60008301527f69766572656400000000000000000000000000000000000000000000000000006020830152604082019050919050565b6000611e34601e836125b5565b91507f536f6c7665723a204172626974726174696f6e2069732070656e64696e6700006000830152602082019050919050565b6000611e74601f836125b5565b91507f536f6c7665723a204172626974726174696f6e206e6f742070656e64696e67006000830152602082019050919050565b6000611eb46017836125b5565b91507f4d696e696f6e3a3a616374696f6e2065786563757465640000000000000000006000830152602082019050919050565b6000611ef46013836125b5565b91507f536f6c7665723a20556e696e69746961746564000000000000000000000000006000830152602082019050919050565b6000611f34602e836125b5565b91507f536f6c7665723a204f6e6c79207468652041726269746572206164647265737360008301527f206d61792063616c6c20746869730000000000000000000000000000000000006020830152604082019050919050565b6000611f9a6019836125b5565b91507f536f6c7665723a20536f6c766520697320636f6d706c657465000000000000006000830152602082019050919050565b6000611fda6022836125b5565b91507f536f6c7665723a204172626974726174696f6e206973206e6f742070656e646960008301527f6e670000000000000000000000000000000000000000000000000000000000006020830152604082019050919050565b60006120406018836125b5565b91507f4d696e696f6e3a3a696e73756666696369656e742065746800000000000000006000830152602082019050919050565b60006120806031836125b5565b91507f536f6c7665723a204f6e6c7920746865204b6565706572206f7220417262697460008301527f6572206d61792063616c6c20746869732e0000000000000000000000000000006020830152604082019050919050565b60006120e66027836125b5565b91507f536f6c7665723a2054696d656c6f636b206973207374696c6c20696e2074686560008301527f20667574757265000000000000000000000000000000000000000000000000006020830152604082019050919050565b612148816126ac565b82525050565b612157816126ac565b82525050565b60006121698284611c7e565b915081905092915050565b60006060820190506121896000830186611b46565b6121966020830185611b46565b6121a3604083018461214e565b949350505050565b60006040820190506121c06000830185611b46565b6121cd6020830184611c18565b9392505050565b60006060820190506121e96000830186611b46565b6121f66020830185611c27565b612203604083018461214e565b949350505050565b60006040820190506122206000830185611b46565b61222d602083018461214e565b9392505050565b60006040820190506122496000830185611c27565b818103602083015261225b8184611bb3565b90509392505050565b60006020820190506122796000830184611c36565b92915050565b600060208201905081810360008301526122998184611c45565b905092915050565b60006020820190506122b66000830184611cfd565b92915050565b600060a0820190506122d16000830188611d0c565b6122de6020830187611c27565b6122eb6040830186611c27565b81810360608301526122fd8185611b55565b905061230c608083018461214e565b9695505050505050565b6000602082019050818103600083015261232f81611d1b565b9050919050565b6000602082019050818103600083015261234f81611d5b565b9050919050565b6000602082019050818103600083015261236f81611dc1565b9050919050565b6000602082019050818103600083015261238f81611e27565b9050919050565b600060208201905081810360008301526123af81611e67565b9050919050565b600060208201905081810360008301526123cf81611ea7565b9050919050565b600060208201905081810360008301526123ef81611ee7565b9050919050565b6000602082019050818103600083015261240f81611f27565b9050919050565b6000602082019050818103600083015261242f81611f8d565b9050919050565b6000602082019050818103600083015261244f81611fcd565b9050919050565b6000602082019050818103600083015261246f81612033565b9050919050565b6000602082019050818103600083015261248f81612073565b9050919050565b600060208201905081810360008301526124af816120d9565b9050919050565b6000604051905081810181811067ffffffffffffffff821117156124dd576124dc612824565b5b8060405250919050565b600067ffffffffffffffff82111561250257612501612824565b5b602082029050602081019050919050565b6000819050602082019050919050565b60008190508160005260206000209050919050565b60008190508160005260206000209050919050565b600081519050919050565b600081549050919050565b600081519050919050565b6000602082019050919050565b6000600182019050919050565b600082825260208201905092915050565b600082825260208201905092915050565b600081905092915050565b600082825260208201905092915050565b60006125d1826126ac565b91506125dc836126ac565b9250827fffffffffffffffffffffffffffffffffffffffffffffffffffffffffffffffff03821115612611576126106127c6565b5b828201905092915050565b6000819050919050565b60006126318261268c565b9050919050565b60008115159050919050565b6000819050919050565b60007fffffffff0000000000000000000000000000000000000000000000000000000082169050919050565b600061268582612626565b9050919050565b600073ffffffffffffffffffffffffffffffffffffffff82169050919050565b6000819050919050565b60006126c1826126c8565b9050919050565b60006126d38261268c565b9050919050565b60006126e5826126ec565b9050919050565b60006126f78261268c565b9050919050565b60005b8381101561271c578082015181840152602081019050612701565b8381111561272b576000848401525b50505050565b6000600282049050600182168061274957607f821691505b6020821081141561275d5761275c6127f5565b5b50919050565b600061277661277183612877565b61261c565b9050919050565b6000612788826126ac565b91507fffffffffffffffffffffffffffffffffffffffffffffffffffffffffffffffff8214156127bb576127ba6127c6565b5b600182019050919050565b7f4e487b7100000000000000000000000000000000000000000000000000000000600052601160045260246000fd5b7f4e487b7100000000000000000000000000000000000000000000000000000000600052602260045260246000fd5b7f4e487b7100000000000000000000000000000000000000000000000000000000600052604160045260246000fd5b600061285f8254612763565b9050919050565b6000601f19601f8301169050919050565b60008160001c9050919050565b61288d81612626565b811461289857600080fd5b50565b6128a481612638565b81146128af57600080fd5b50565b6128bb81612644565b81146128c657600080fd5b50565b6128d28161267a565b81146128dd57600080fd5b50565b6128e9816126ac565b81146128f457600080fd5b5056fea26469706673582212205dd1c9ea015b5f10d497ee1cc01a893b950fa3774f418edb68ee3a020188ae4b64736f6c63430008000033",
  "linkReferences": {},
  "deployedLinkReferences": {}
}