{
  "_format": "hh-sol-artifact-1",
  "contractName": "Solver",
  "sourceName": "contracts/Solver.sol",
  "abi": [
    {
      "inputs": [
        {
          "internalType": "uint8",
          "name": "_port",
          "type": "uint8"
        },
        {
          "internalType": "uint256",
          "name": "_key",
          "type": "uint256"
        },
        {
          "internalType": "bytes",
          "name": "_data",
          "type": "bytes"
        }
      ],
      "name": "addData",
      "outputs": [],
      "stateMutability": "nonpayable",
      "type": "function"
    },
    {
      "inputs": [
        {
          "internalType": "uint256",
          "name": "",
          "type": "uint256"
        }
      ],
      "name": "addressPort",
      "outputs": [
        {
          "internalType": "address",
          "name": "",
          "type": "address"
        }
      ],
      "stateMutability": "view",
      "type": "function"
    },
    {
      "inputs": [
        {
          "internalType": "uint256[]",
          "name": "_payouts",
          "type": "uint256[]"
        }
      ],
      "name": "arbitrate",
      "outputs": [],
      "stateMutability": "nonpayable",
      "type": "function"
    },
    {
      "inputs": [],
      "name": "arbitrationDelivered",
      "outputs": [
        {
          "internalType": "bool",
          "name": "",
          "type": "bool"
        }
      ],
      "stateMutability": "view",
      "type": "function"
    },
    {
      "inputs": [
        {
          "internalType": "uint256",
          "name": "",
          "type": "uint256"
        }
      ],
      "name": "boolPort",
      "outputs": [
        {
          "internalType": "bool",
          "name": "",
          "type": "bool"
        }
      ],
      "stateMutability": "view",
      "type": "function"
    },
    {
      "inputs": [
        {
          "internalType": "uint256",
          "name": "",
          "type": "uint256"
        }
      ],
      "name": "bytes32Port",
      "outputs": [
        {
          "internalType": "bytes32",
          "name": "",
          "type": "bytes32"
        }
      ],
      "stateMutability": "view",
      "type": "function"
    },
    {
      "inputs": [
        {
          "internalType": "uint256",
          "name": "",
          "type": "uint256"
        }
      ],
      "name": "bytesPort",
      "outputs": [
        {
          "internalType": "bytes",
          "name": "",
          "type": "bytes"
        }
      ],
      "stateMutability": "view",
      "type": "function"
    },
    {
      "inputs": [],
      "name": "collateralToken",
      "outputs": [
        {
          "internalType": "contract IERC20",
          "name": "",
          "type": "address"
        }
      ],
      "stateMutability": "view",
      "type": "function"
    },
    {
      "inputs": [],
      "name": "conditionalTokens",
      "outputs": [
        {
          "internalType": "contract ConditionalTokens",
          "name": "",
          "type": "address"
        }
      ],
      "stateMutability": "view",
      "type": "function"
    },
    {
      "inputs": [
        {
          "internalType": "uint256",
          "name": "",
          "type": "uint256"
        }
      ],
      "name": "conditions",
      "outputs": [
        {
          "internalType": "bool",
          "name": "reported",
          "type": "bool"
        },
        {
          "internalType": "bytes32",
          "name": "questionId",
          "type": "bytes32"
        },
        {
          "internalType": "bytes32",
          "name": "parentCollectionId",
          "type": "bytes32"
        },
        {
          "internalType": "bytes32",
          "name": "conditionId",
          "type": "bytes32"
        }
      ],
      "stateMutability": "view",
      "type": "function"
    },
    {
      "inputs": [],
      "name": "config",
      "outputs": [
        {
          "internalType": "contract SolverFactory",
          "name": "factory",
          "type": "address"
        },
        {
          "internalType": "address",
          "name": "keeper",
          "type": "address"
        },
        {
          "internalType": "address",
          "name": "arbiter",
          "type": "address"
        },
        {
          "internalType": "uint256",
          "name": "timelockSeconds",
          "type": "uint256"
        },
        {
          "internalType": "bytes",
          "name": "data",
          "type": "bytes"
        },
        {
          "components": [
            {
              "internalType": "uint256",
              "name": "outcomeSlots",
              "type": "uint256"
            },
            {
              "internalType": "uint256",
              "name": "parentCollectionPartitionIndex",
              "type": "uint256"
            },
            {
              "internalType": "uint256",
              "name": "amount",
              "type": "uint256"
            },
            {
              "internalType": "uint256[]",
              "name": "partition",
              "type": "uint256[]"
            },
            {
              "internalType": "uint256[][]",
              "name": "recipientAddressPorts",
              "type": "uint256[][]"
            },
            {
              "internalType": "uint256[][]",
              "name": "recipientAmounts",
              "type": "uint256[][]"
            },
            {
              "internalType": "string",
              "name": "metadata",
              "type": "string"
            }
          ],
          "internalType": "struct Solver.ConditionBase",
          "name": "conditionBase",
          "type": "tuple"
        }
      ],
      "stateMutability": "view",
      "type": "function"
    },
    {
      "inputs": [],
      "name": "confirmPayouts",
      "outputs": [],
      "stateMutability": "nonpayable",
      "type": "function"
    },
    {
      "inputs": [],
      "name": "deferredIngestsValid",
      "outputs": [
        {
          "internalType": "bool",
          "name": "",
          "type": "bool"
        }
      ],
      "stateMutability": "view",
      "type": "function"
    },
    {
      "inputs": [],
      "name": "executeSolve",
      "outputs": [],
      "stateMutability": "nonpayable",
      "type": "function"
    },
    {
      "inputs": [],
      "name": "executed",
      "outputs": [
        {
          "internalType": "bool",
          "name": "",
          "type": "bool"
        }
      ],
      "stateMutability": "view",
      "type": "function"
    },
    {
      "inputs": [
        {
          "internalType": "uint256",
          "name": "_partitionIndex",
          "type": "uint256"
        }
      ],
      "name": "getCanonCollectionId",
      "outputs": [
        {
          "internalType": "bytes32",
          "name": "_id",
          "type": "bytes32"
        }
      ],
      "stateMutability": "view",
      "type": "function"
    },
    {
      "inputs": [
        {
          "internalType": "uint256",
          "name": "_port",
          "type": "uint256"
        },
        {
          "internalType": "uint256",
          "name": "_key",
          "type": "uint256"
        }
      ],
      "name": "getOutput",
      "outputs": [
        {
          "internalType": "bytes",
          "name": "data",
          "type": "bytes"
        }
      ],
      "stateMutability": "view",
      "type": "function"
    },
    {
      "inputs": [],
      "name": "getPayouts",
      "outputs": [
        {
          "internalType": "uint256[]",
          "name": "",
          "type": "uint256[]"
        }
      ],
      "stateMutability": "view",
      "type": "function"
    },
    {
      "inputs": [
        {
          "internalType": "uint256",
          "name": "_index",
          "type": "uint256"
        }
      ],
      "name": "ingest",
      "outputs": [],
      "stateMutability": "nonpayable",
      "type": "function"
    },
    {
      "inputs": [
        {
          "internalType": "contract IERC20",
          "name": "_collateralToken",
          "type": "address"
        },
        {
          "internalType": "bytes32",
          "name": "_solutionId",
          "type": "bytes32"
        },
        {
          "internalType": "address",
          "name": "_proposalsHub",
          "type": "address"
        },
        {
          "internalType": "address",
          "name": "_solutionsHub",
          "type": "address"
        },
        {
          "components": [
            {
              "internalType": "contract SolverFactory",
              "name": "factory",
              "type": "address"
            },
            {
              "internalType": "address",
              "name": "keeper",
              "type": "address"
            },
            {
              "internalType": "address",
              "name": "arbiter",
              "type": "address"
            },
            {
              "internalType": "uint256",
              "name": "timelockSeconds",
              "type": "uint256"
            },
            {
              "internalType": "bytes",
              "name": "data",
              "type": "bytes"
            },
            {
              "components": [
                {
                  "internalType": "uint256",
                  "name": "executions",
                  "type": "uint256"
                },
                {
                  "internalType": "bool",
                  "name": "isDeferred",
                  "type": "bool"
                },
                {
                  "internalType": "bool",
                  "name": "isConstant",
                  "type": "bool"
                },
                {
                  "internalType": "uint8",
                  "name": "port",
                  "type": "uint8"
                },
                {
                  "internalType": "uint256",
                  "name": "key",
                  "type": "uint256"
                },
                {
                  "internalType": "uint256",
                  "name": "solverIndex",
                  "type": "uint256"
                },
                {
                  "internalType": "bytes",
                  "name": "data",
                  "type": "bytes"
                }
              ],
              "internalType": "struct Solver.Ingest[]",
              "name": "ingests",
              "type": "tuple[]"
            },
            {
              "components": [
                {
                  "internalType": "bool",
                  "name": "executed",
                  "type": "bool"
                },
                {
                  "internalType": "bool",
                  "name": "isPort",
                  "type": "bool"
                },
                {
                  "internalType": "address",
                  "name": "to",
                  "type": "address"
                },
                {
                  "internalType": "uint256",
                  "name": "portIndex",
                  "type": "uint256"
                },
                {
                  "internalType": "uint256",
                  "name": "value",
                  "type": "uint256"
                },
                {
                  "internalType": "bytes",
                  "name": "data",
                  "type": "bytes"
                }
              ],
              "internalType": "struct Solver.Action[]",
              "name": "actions",
              "type": "tuple[]"
            },
            {
              "components": [
                {
                  "internalType": "uint256",
                  "name": "outcomeSlots",
                  "type": "uint256"
                },
                {
                  "internalType": "uint256",
                  "name": "parentCollectionPartitionIndex",
                  "type": "uint256"
                },
                {
                  "internalType": "uint256",
                  "name": "amount",
                  "type": "uint256"
                },
                {
                  "internalType": "uint256[]",
                  "name": "partition",
                  "type": "uint256[]"
                },
                {
                  "internalType": "uint256[][]",
                  "name": "recipientAddressPorts",
                  "type": "uint256[][]"
                },
                {
                  "internalType": "uint256[][]",
                  "name": "recipientAmounts",
                  "type": "uint256[][]"
                },
                {
                  "internalType": "string",
                  "name": "metadata",
                  "type": "string"
                }
              ],
              "internalType": "struct Solver.ConditionBase",
              "name": "conditionBase",
              "type": "tuple"
            }
          ],
          "internalType": "struct Solver.Config",
          "name": "_solverConfig",
          "type": "tuple"
        }
      ],
      "name": "init",
      "outputs": [],
      "stateMutability": "nonpayable",
      "type": "function"
    },
    {
      "inputs": [
        {
          "internalType": "uint256",
          "name": "",
          "type": "uint256"
        },
        {
          "internalType": "uint256",
          "name": "",
          "type": "uint256"
        }
      ],
      "name": "lockedPorts",
      "outputs": [
        {
          "internalType": "bool",
          "name": "",
          "type": "bool"
        }
      ],
      "stateMutability": "view",
      "type": "function"
    },
    {
      "inputs": [],
      "name": "nullArbitrate",
      "outputs": [],
      "stateMutability": "nonpayable",
      "type": "function"
    },
    {
      "inputs": [],
      "name": "numConditions",
      "outputs": [
        {
          "internalType": "uint256",
          "name": "",
          "type": "uint256"
        }
      ],
      "stateMutability": "view",
      "type": "function"
    },
    {
      "inputs": [
        {
          "internalType": "address",
          "name": "operator",
          "type": "address"
        },
        {
          "internalType": "address",
          "name": "from",
          "type": "address"
        },
        {
          "internalType": "uint256[]",
          "name": "ids",
          "type": "uint256[]"
        },
        {
          "internalType": "uint256[]",
          "name": "values",
          "type": "uint256[]"
        },
        {
          "internalType": "bytes",
          "name": "data",
          "type": "bytes"
        }
      ],
      "name": "onERC1155BatchReceived",
      "outputs": [
        {
          "internalType": "bytes4",
          "name": "",
          "type": "bytes4"
        }
      ],
      "stateMutability": "nonpayable",
      "type": "function"
    },
    {
      "inputs": [
        {
          "internalType": "address",
          "name": "operator",
          "type": "address"
        },
        {
          "internalType": "address",
          "name": "from",
          "type": "address"
        },
        {
          "internalType": "uint256",
          "name": "id",
          "type": "uint256"
        },
        {
          "internalType": "uint256",
          "name": "value",
          "type": "uint256"
        },
        {
          "internalType": "bytes",
          "name": "data",
          "type": "bytes"
        }
      ],
      "name": "onERC1155Received",
      "outputs": [
        {
          "internalType": "bytes4",
          "name": "",
          "type": "bytes4"
        }
      ],
      "stateMutability": "nonpayable",
      "type": "function"
    },
    {
      "inputs": [],
      "name": "pendingArbitration",
      "outputs": [
        {
          "internalType": "bool",
          "name": "",
          "type": "bool"
        }
      ],
      "stateMutability": "view",
      "type": "function"
    },
    {
      "inputs": [
        {
          "internalType": "uint256",
          "name": "",
          "type": "uint256"
        },
        {
          "internalType": "uint256",
          "name": "",
          "type": "uint256"
        }
      ],
      "name": "portVersions",
      "outputs": [
        {
          "internalType": "uint256",
          "name": "",
          "type": "uint256"
        }
      ],
      "stateMutability": "view",
      "type": "function"
    },
    {
      "inputs": [],
      "name": "prepareSolve",
      "outputs": [],
      "stateMutability": "nonpayable",
      "type": "function"
    },
    {
      "inputs": [],
      "name": "proposalsHub",
      "outputs": [
        {
          "internalType": "address",
          "name": "",
          "type": "address"
        }
      ],
      "stateMutability": "view",
      "type": "function"
    },
    {
      "inputs": [
        {
          "internalType": "uint256[]",
          "name": "_payouts",
          "type": "uint256[]"
        }
      ],
      "name": "proposePayouts",
      "outputs": [],
      "stateMutability": "nonpayable",
      "type": "function"
    },
    {
      "inputs": [],
      "name": "requestArbitration",
      "outputs": [],
      "stateMutability": "nonpayable",
      "type": "function"
    },
    {
      "inputs": [],
      "name": "solutionId",
      "outputs": [
        {
          "internalType": "bytes32",
          "name": "",
          "type": "bytes32"
        }
      ],
      "stateMutability": "view",
      "type": "function"
    },
    {
      "inputs": [],
      "name": "solutionsHub",
      "outputs": [
        {
          "internalType": "address",
          "name": "",
          "type": "address"
        }
      ],
      "stateMutability": "view",
      "type": "function"
    },
    {
      "inputs": [],
      "name": "solved",
      "outputs": [
        {
          "internalType": "bool",
          "name": "",
          "type": "bool"
        }
      ],
      "stateMutability": "view",
      "type": "function"
    },
    {
      "inputs": [
        {
          "internalType": "uint256",
          "name": "_index",
          "type": "uint256"
        }
      ],
      "name": "solverAddressFromIndex",
      "outputs": [
        {
          "internalType": "bytes20",
          "name": "_address",
          "type": "bytes20"
        }
      ],
      "stateMutability": "view",
      "type": "function"
    },
    {
      "inputs": [
        {
          "internalType": "uint256",
          "name": "_solverIndex",
          "type": "uint256"
        },
        {
          "internalType": "bytes",
          "name": "_data",
          "type": "bytes"
        }
      ],
      "name": "staticcallSolver",
      "outputs": [
        {
          "internalType": "bytes",
          "name": "",
          "type": "bytes"
        }
      ],
      "stateMutability": "view",
      "type": "function"
    },
    {
      "inputs": [
        {
          "internalType": "bytes4",
          "name": "interfaceId",
          "type": "bytes4"
        }
      ],
      "name": "supportsInterface",
      "outputs": [
        {
          "internalType": "bool",
          "name": "",
          "type": "bool"
        }
      ],
      "stateMutability": "view",
      "type": "function"
    },
    {
      "inputs": [],
      "name": "timelock",
      "outputs": [
        {
          "internalType": "uint256",
          "name": "",
          "type": "uint256"
        }
      ],
      "stateMutability": "view",
      "type": "function"
    },
    {
      "inputs": [
        {
          "internalType": "uint256",
          "name": "",
          "type": "uint256"
        }
      ],
      "name": "uint256Port",
      "outputs": [
        {
          "internalType": "uint256",
          "name": "",
          "type": "uint256"
        }
      ],
      "stateMutability": "view",
      "type": "function"
    }
  ],
  "bytecode": "0x608060405234801561001057600080fd5b50614df8806100206000396000f3fe608060405234801561001057600080fd5b50600436106102ad5760003560e01c806382fc80541161017b578063a99efeae116100d8578063c538edd41161008c578063e7fd205911610071578063e7fd205914610520578063efabae5714610533578063f23a6e611461053b576102ad565b8063c538edd414610505578063d33219b414610518576102ad565b8063ba9bfe62116100bd578063ba9bfe62146104ca578063bc197c81146104dd578063c43c168e146104fd576102ad565b8063a99efeae146104af578063b2016bd4146104c2576102ad565b806398f84bbf1161012f578063a2b14e6f11610114578063a2b14e6f1461048c578063a33db92b14610494578063a7f5d48c146104a7576102ad565b806398f84bbf14610466578063a1cb4f0c14610479576102ad565b8063842918ba11610160578063842918ba1461042d57806384dbd3911461044057806396f8429014610453576102ad565b806382fc80541461041257806383d012f414610425576102ad565b806348d6bc00116102295780636c7f8187116101dd57806375d07045116101c257806375d07045146103dd57806379502c55146103f0578063799320bb1461040a576102ad565b80636c7f8187146103cd5780636f2f3e77146103d5576102ad565b8063556c59111161020e578063556c5911146103835780635bd9e299146103a35780636bf90c84146103b8576102ad565b806348d6bc0014610373578063549b1f6b1461037b576102ad565b80632b3634271161028057806331a38c891161026557806331a38c89146103435780633a275fa21461034b5780633df4d2db14610353576102ad565b80632b363427146103285780632c17b91e1461033b576102ad565b806301ffc9a7146102b2578063093a9d65146102db5780630d49722d146102f057806326c5000714610305575b600080fd5b6102c56102c0366004613763565b61054e565b6040516102d29190613b89565b60405180910390f35b6102e3610592565b6040516102d29190613a69565b6103036102fe3660046136ef565b610598565b005b61031861031336600461380f565b61063d565b6040516102d29493929190613b94565b61030361033636600461388d565b61067b565b6103036107b2565b6102c5610830565b610303610840565b610366610361366004613827565b610908565b6040516102d29190613c25565b610303610a18565b61030361082e565b61039661039136600461380f565b610bb5565b6040516102d29190613bb1565b6103ab610c46565b6040516102d29190613acc565b6103c0610c55565b6040516102d29190613b76565b6102c5610cec565b610303610d98565b6103666103eb36600461380f565b610dfb565b6103f8610e95565b6040516102d296959493929190613c78565b6102c5611192565b6102c561042036600461386c565b6111b4565b6102c56111d4565b6102c561043b36600461380f565b6111e4565b6102e361044e36600461380f565b6111f9565b6102e361046136600461380f565b61133f565b6102e361047436600461386c565b611351565b61030361048736600461378b565b61136e565b6103ab6114c6565b6103666104a236600461386c565b6114d5565b6103ab611620565b6102e36104bd36600461380f565b61162f565b6103ab611641565b6103036104d836600461380f565b611650565b6104f06104eb366004613507565b611af7565b6040516102d29190613c10565b6102e3611b24565b6103ab61051336600461380f565b611b2a565b6102e3611b45565b61030361052e3660046136ef565b611b4b565b6102c5611c58565b6104f06105493660046135c2565b611c68565b60006001600160e01b031982167f4e2312e000000000000000000000000000000000000000000000000000000000148061058c575061058c82611c93565b92915050565b600f5490565b6002546001600160a01b03163314806105bb57506003546001600160a01b031633145b6105e05760405162461bcd60e51b81526004016105d7906141b9565b60405180910390fd5b600f8054839183916105f4906001906143cd565b8154811061061257634e487b7160e01b600052603260045260246000fd5b9060005260206000209060050201600401919061063092919061329d565b50610639611cc5565b5050565b600f818154811061064d57600080fd5b6000918252602090912060059091020180546001820154600283015460039093015460ff9092169350919084565b6002546001600160a01b031633141561069e57610699838383611ce2565b6107ad565b6014546012546040517f237f27f00000000000000000000000000000000000000000000000000000000081526000926001600160a01b03169163237f27f0916106ea9190600401613a69565b60006040518083038186803b15801561070257600080fd5b505afa158015610716573d6000803e3d6000fd5b505050506040513d6000823e601f3d908101601f1916820160405261073e919081019061363c565b905060005b81518110156107aa5781818151811061076c57634e487b7160e01b600052603260045260246000fd5b60200260200101516001600160a01b0316336001600160a01b0316141561079857610798858585611ce2565b806107a281614861565b915050610743565b50505b505050565b6107f06040518060400160405280600f81526020017f507265706172696e6720736f6c76650000000000000000000000000000000000815250611da2565b601180547fffffffffffffffffff00ffffffffffffffffffffffffffffffffffffffffffff16600160b01b179055610826611dfe565b61082e61217f565b565b601154600160b01b900460ff1681565b61087e6040518060400160405280600f81526020017f457865637574696e6720736f6c76650000000000000000000000000000000000815250611da2565b610886610cec565b6108a25760405162461bcd60e51b81526004016105d790614093565b6108e06040518060400160405280601681526020017f646566657272656420696e67657374732076616c696400000000000000000000815250611da2565b6108e8612222565b6108f0612425565b6108f8612561565b61090061294f565b61082e612977565b60145460125460405162c8a40d60e51b81526060926000926001600160a01b039091169163191481a091610940918890600401613c02565b60206040518083038186803b15801561095857600080fd5b505afa15801561096c573d6000803e3d6000fd5b505050506040513d601f19601f8201168201806040525081019061099091906134eb565b9050600080826001600160a01b0316856040516109ad9190613a72565b600060405180830381855afa9150503d80600081146109e8576040519150601f19603f3d011682016040523d82523d6000602084013e6109ed565b606091505b509150915081610a0f5760405162461bcd60e51b81526004016105d79061405e565b95945050505050565b6002546001600160a01b0316331480610a3b57506003546001600160a01b031633145b610a575760405162461bcd60e51b81526004016105d790613d47565b6015544211610a785760405162461bcd60e51b81526004016105d790614216565b601054600f80546001600160a01b039092169163c49298ac9190610a9e906001906143cd565b81548110610abc57634e487b7160e01b600052603260045260246000fd5b906000526020600020906005020160010154600f6001600f80549050610ae291906143cd565b81548110610b0057634e487b7160e01b600052603260045260246000fd5b90600052602060002090600502016004016040518363ffffffff1660e01b8152600401610b2e929190613bcb565b600060405180830381600087803b158015610b4857600080fd5b505af1158015610b5c573d6000803e3d6000fd5b505050506001600f6001600f80549050610b7691906143cd565b81548110610b9457634e487b7160e01b600052603260045260246000fd5b60009182526020909120600590910201805460ff1916911515919091179055565b60145460125460405162c8a40d60e51b815260009283926001600160a01b039091169163191481a091610bec918790600401613c02565b60206040518083038186803b158015610c0457600080fd5b505afa158015610c18573d6000803e3d6000fd5b505050506040513d601f19601f82011682018060405250810190610c3c91906134eb565b60601b9392505050565b6010546001600160a01b031681565b600f805460609190610c69906001906143cd565b81548110610c8757634e487b7160e01b600052603260045260246000fd5b9060005260206000209060050201600401805480602002602001604051908101604052809291908181526020018280548015610ce257602002820191906000526020600020905b815481526020019060010190808311610cce575b5050505050905090565b60006001815b600654811015610d92576006805482908110610d1e57634e487b7160e01b600052603260045260246000fd5b600091825260209091206001600590920201015460ff168015610d765750600f546006805483908110610d6157634e487b7160e01b600052603260045260246000fd5b90600052602060002090600502016000015414155b15610d8057600091505b80610d8a81614861565b915050610cf2565b50905090565b6003546001600160a01b03163314610dc25760405162461bcd60e51b81526004016105d790613eb7565b60118054600160b81b7fffffffffffffffff00ffffffffffffffffffffffffffffffffffffffffffffff9182161716905561082e611cc5565b60186020526000908152604090208054610e1490614813565b80601f0160208091040260200160405190810160405280929190818152602001828054610e4090614813565b8015610e8d5780601f10610e6257610100808354040283529160200191610e8d565b820191906000526020600020905b815481529060010190602001808311610e7057829003601f168201915b505050505081565b60018054600254600354600454600580546001600160a01b039586169694861695909316939192610ec590614813565b80601f0160208091040260200160405190810160405280929190818152602001828054610ef190614813565b8015610f3e5780601f10610f1357610100808354040283529160200191610f3e565b820191906000526020600020905b815481529060010190602001808311610f2157829003601f168201915b505050505090806007016040518060e001604052908160008201548152602001600182015481526020016002820154815260200160038201805480602002602001604051908101604052809291908181526020018280548015610fc057602002820191906000526020600020905b815481526020019060010190808311610fac575b5050505050815260200160048201805480602002602001604051908101604052809291908181526020016000905b8282101561105a5760008481526020908190208301805460408051828502810185019091528181529283018282801561104657602002820191906000526020600020905b815481526020019060010190808311611032575b505050505081526020019060010190610fee565b50505050815260200160058201805480602002602001604051908101604052809291908181526020016000905b828210156110f3576000848152602090819020830180546040805182850281018501909152818152928301828280156110df57602002820191906000526020600020905b8154815260200190600101908083116110cb575b505050505081526020019060010190611087565b50505050815260200160068201805461110b90614813565b80601f016020809104026020016040519081016040528092919081815260200182805461113790614813565b80156111845780601f1061115957610100808354040283529160200191611184565b820191906000526020600020905b81548152906001019060200180831161116757829003601f168201915b505050505081525050905086565b6011547501000000000000000000000000000000000000000000900460ff1681565b601b60209081526000928352604080842090915290825290205460ff1681565b601154600160b81b900460ff1681565b60176020526000908152604090205460ff1681565b601054600f805460009283926001600160a01b039091169163856296f79190611224906001906143cd565b8154811061124257634e487b7160e01b600052603260045260246000fd5b906000526020600020906005020160020154600f6001600f8054905061126891906143cd565b8154811061128657634e487b7160e01b600052603260045260246000fd5b906000526020600020906005020160030154600160070160030187815481106112bf57634e487b7160e01b600052603260045260246000fd5b90600052602060002001546040518463ffffffff1660e01b81526004016112e893929190613bec565b60206040518083038186803b15801561130057600080fd5b505afa158015611314573d6000803e3d6000fd5b505050506040513d601f19601f82011682018060405250810190611338919061374b565b9392505050565b60196020526000908152604090205481565b601c60209081526000928352604080842090915290825290205481565b61137b60208201826134cf565b6001600160a01b0316336001600160a01b0316146113ab5760405162461bcd60e51b81526004016105d790614125565b60006113bd60408301602084016134cf565b6001600160a01b031614156113e45760405162461bcd60e51b81526004016105d790613d7e565b8060016113f18282614b21565b905050816001600160a01b0316635bd9e2996040518163ffffffff1660e01b815260040160206040518083038186803b15801561142d57600080fd5b505afa158015611441573d6000803e3d6000fd5b505050506040513d601f19601f8201168201806040525081019061146591906134eb565b6010805473ffffffffffffffffffffffffffffffffffffffff199081166001600160a01b0393841617909155601180548216978316979097179096556012949094555060138054851692841692909217909155601480549093169116179055565b6013546001600160a01b031681565b6000828152601b6020908152604080832084845290915290205460609060ff168061151a5750600f546000848152601c60209081526040808320868452909152902054145b6115365760405162461bcd60e51b81526004016105d7906140c8565b8261157a57600082815260166020908152604091829020549151611564926001600160a01b03169101613a3e565b604051602081830303815290604052905061058c565b82600114156115a6576000828152601760209081526040918290205491516115649260ff169101613a5b565b82600214156115ce576000828152601860209081526040918290209151611564929101613a8e565b82600314156115f757600082815260196020908152604091829020549151611564929101613a69565b826003141561058c576000828152601a6020908152604091829020549151611564929101613a69565b6014546001600160a01b031681565b601a6020526000908152604090205481565b6011546001600160a01b031681565b600680548290811061167257634e487b7160e01b600052603260045260246000fd5b60009182526020822060059091020180549161168d83614861565b919050555061169b30612aed565b6116e4600160050182815481106116c257634e487b7160e01b600052603260045260246000fd5b600091825260209091206005909102016001015462010000900460ff16612b49565b6117226001600501828154811061170b57634e487b7160e01b600052603260045260246000fd5b906000526020600020906005020160020154612b49565b6117e86001600501828154811061174957634e487b7160e01b600052603260045260246000fd5b9060005260206000209060050201600401805461176590614813565b80601f016020809104026020016040519081016040528092919081815260200182805461179190614813565b80156117de5780601f106117b3576101008083540402835291602001916117de565b820191906000526020600020905b8154815290600101906020018083116117c157829003601f168201915b5050505050612ba5565b600680548290811061180a57634e487b7160e01b600052603260045260246000fd5b906000526020600020906005020160010160019054906101000a900460ff16156119725761196d6001600501828154811061185557634e487b7160e01b600052603260045260246000fd5b906000526020600020906005020160010160029054906101000a900460ff166001600501838154811061189857634e487b7160e01b600052603260045260246000fd5b906000526020600020906005020160020154600160050184815481106118ce57634e487b7160e01b600052603260045260246000fd5b906000526020600020906005020160040180546118ea90614813565b80601f016020809104026020016040519081016040528092919081815260200182805461191690614813565b80156119635780601f1061193857610100808354040283529160200191611963565b820191906000526020600020905b81548152906001019060200180831161194657829003601f168201915b5050505050612c01565b611af4565b6000611a706001600501838154811061199b57634e487b7160e01b600052603260045260246000fd5b906000526020600020906005020160030154600160050184815481106119d157634e487b7160e01b600052603260045260246000fd5b906000526020600020906005020160040180546119ed90614813565b80601f0160208091040260200160405190810160405280929190818152602001828054611a1990614813565b8015611a665780601f10611a3b57610100808354040283529160200191611a66565b820191906000526020600020905b815481529060010190602001808311611a4957829003601f168201915b5050505050610908565b905061063960016005018381548110611a9957634e487b7160e01b600052603260045260246000fd5b906000526020600020906005020160010160029054906101000a900460ff1660016005018481548110611adc57634e487b7160e01b600052603260045260246000fd5b90600052602060002090600502016002015483611ce2565b50565b7fbc197c810000000000000000000000000000000000000000000000000000000098975050505050505050565b60125481565b6016602052600090815260409020546001600160a01b031681565b60155481565b6003546001600160a01b03163314611b755760405162461bcd60e51b81526004016105d790613eb7565b601154600160b01b900460ff161515600114611ba35760405162461bcd60e51b81526004016105d790613db5565b601154600160b81b900460ff161515600114611bd15760405162461bcd60e51b81526004016105d790613dec565b600f805483918391611be5906001906143cd565b81548110611c0357634e487b7160e01b600052603260045260246000fd5b90600052602060002090600502016004019190611c2192919061329d565b50601180547fffffffffffffff0000ffffffffffffffffffffffffffffffffffffffffffffff16600160c01b179055610639611cc5565b601154600160c01b900460ff1681565b7ff23a6e61000000000000000000000000000000000000000000000000000000009695505050505050565b6001600160e01b031981167f01ffc9a70000000000000000000000000000000000000000000000000000000014919050565b600454611cd39060016143ae565b611cdd9042614396565b601555565b60ff8084166000908152601b602090815260408083208684529091529020541615611d1f5760405162461bcd60e51b81526004016105d790614182565b600f54611d2e906001906143cd565b60ff84166000908152601c6020908152604080832086845290915290205414611d695760405162461bcd60e51b81526004016105d790613e5a565b60ff83166000908152601c602090815260408083208584529091528120805491611d9283614861565b91905055506107ad838383612c6d565b611af481604051602401611db69190613c25565b60408051601f198184030181529190526020810180516001600160e01b03167f41304fac00000000000000000000000000000000000000000000000000000000179052612d92565b611e3c6040518060400160405280601081526020017f416464696e6720636f6e646974696f6e00000000000000000000000000000000815250611da2565b611e446132e8565b600f54604051611e5c91600e91309190602001613a9a565b60408051601f1981840301815291815281516020928301209183019190915260145460125491517f882175660000000000000000000000000000000000000000000000000000000081526000926001600160a01b0390921691638821756691611ec89190600401613a69565b60206040518083038186803b158015611ee057600080fd5b505afa158015611ef4573d6000803e3d6000fd5b505050506040513d601f19601f82011682018060405250810190611f1891906134eb565b90506001600160a01b038116611f345760006040830152611fd1565b6009546040517f84dbd3910000000000000000000000000000000000000000000000000000000081526001600160a01b038316916384dbd39191611f7b9190600401613a69565b60206040518083038186803b158015611f9357600080fd5b505afa158015611fa7573d6000803e3d6000fd5b505050506040513d601f19601f82011682018060405250810190611fcb919061374b565b60408301525b60105460208301516008546040517f852c6ae20000000000000000000000000000000000000000000000000000000081526001600160a01b039093169263852c6ae292612022923092600401613b3c565b60206040518083038186803b15801561203a57600080fd5b505afa15801561204e573d6000803e3d6000fd5b505050506040513d601f19601f82011682018060405250810190612072919061374b565b60608301908152600f8054600181018255600091909152835160059091027f8d1108e10bcb7c27dddfc02ed9d693a074039d026cf4ea4240b40f7d581ac8028101805492151560ff199093169290921782556020808601517f8d1108e10bcb7c27dddfc02ed9d693a074039d026cf4ea4240b40f7d581ac80383015560408601517f8d1108e10bcb7c27dddfc02ed9d693a074039d026cf4ea4240b40f7d581ac80483015592517f8d1108e10bcb7c27dddfc02ed9d693a074039d026cf4ea4240b40f7d581ac805820155608085015180518694612174937f8d1108e10bcb7c27dddfc02ed9d693a074039d026cf4ea4240b40f7d581ac80601920190613318565b505050610639612db3565b6121bd6040518060400160405280601181526020017f457865637574696e6720696e6765737473000000000000000000000000000000815250611da2565b60005b600654811015611af45760068054829081106121ec57634e487b7160e01b600052603260045260246000fd5b600091825260209091206001600590920201015460ff166122105761221081611650565b8061221a81614861565b9150506121c0565b600f805460009190612236906001906143cd565b8154811061225457634e487b7160e01b600052603260045260246000fd5b906000526020600020906005020160020154141561082e57601154601354600a546040517f23b872dd0000000000000000000000000000000000000000000000000000000081526001600160a01b039384169384936323b872dd936122c29391909216913091600401613ae0565b602060405180830381600087803b1580156122dc57600080fd5b505af11580156122f0573d6000803e3d6000fd5b505050506040513d601f19601f82011682018060405250810190612314919061372f565b5060105460405163095ea7b360e01b81526001600160a01b038381169263095ea7b39261234a9290911690600090600401613b5d565b602060405180830381600087803b15801561236457600080fd5b505af1158015612378573d6000803e3d6000fd5b505050506040513d601f19601f8201168201806040525081019061239c919061372f565b50601054600a5460405163095ea7b360e01b81526001600160a01b038481169363095ea7b3936123d3939290911691600401613b5d565b602060405180830381600087803b1580156123ed57600080fd5b505af1158015612401573d6000803e3d6000fd5b505050506040513d601f19601f82011682018060405250810190610639919061372f565b6124636040518060400160405280600e81526020017f53706c697420706f736974696f6e000000000000000000000000000000000000815250611da2565b601054601154600f80546001600160a01b03938416936372ce42759316919061248e906001906143cd565b815481106124ac57634e487b7160e01b600052603260045260246000fd5b906000526020600020906005020160020154600f6001600f805490506124d291906143cd565b815481106124f057634e487b7160e01b600052603260045260246000fd5b6000918252602090912060036005909202010154600a546040516001600160e01b031960e087901b16815261252d94939291600b91600401613c38565b600060405180830381600087803b15801561254757600080fd5b505af115801561255b573d6000803e3d6000fd5b50505050565b61259f6040518060400160405280601181526020017f616c6c6f63617465506172746974696f6e000000000000000000000000000000815250611da2565b60005b600b54811015611af457600f80546125f691906125c1906001906143cd565b815481106125df57634e487b7160e01b600052603260045260246000fd5b906000526020600020906005020160020154612e31565b601054600f80546000926001600160a01b03169163856296f79161261c906001906143cd565b8154811061263a57634e487b7160e01b600052603260045260246000fd5b906000526020600020906005020160020154600f6001600f8054905061266091906143cd565b8154811061267e57634e487b7160e01b600052603260045260246000fd5b906000526020600020906005020160030154600160070160030186815481106126b757634e487b7160e01b600052603260045260246000fd5b90600052602060002001546040518463ffffffff1660e01b81526004016126e093929190613bec565b60206040518083038186803b1580156126f857600080fd5b505afa15801561270c573d6000803e3d6000fd5b505050506040513d601f19601f82011682018060405250810190612730919061374b565b6010546011546040517f39dd75300000000000000000000000000000000000000000000000000000000081529293506000926001600160a01b03928316926339dd753092612785929116908690600401613b5d565b60206040518083038186803b15801561279d57600080fd5b505afa1580156127b1573d6000803e3d6000fd5b505050506040513d601f19601f820116820180604052508101906127d5919061374b565b905060005b600c5481101561293957601054600c80546001600160a01b039092169163f242432a9130916016916000918a90811061282357634e487b7160e01b600052603260045260246000fd5b90600052602060002001868154811061284c57634e487b7160e01b600052603260045260246000fd5b9060005260206000200154815260200190815260200160002060009054906101000a90046001600160a01b031685600160070160050189815481106128a157634e487b7160e01b600052603260045260246000fd5b9060005260206000200186815481106128ca57634e487b7160e01b600052603260045260246000fd5b90600052602060002001546040518563ffffffff1660e01b81526004016128f49493929190613b04565b600060405180830381600087803b15801561290e57600080fd5b505af1158015612922573d6000803e3d6000fd5b50505050808061293190614861565b9150506127da565b505050808061294790614861565b9150506125a2565b60005b600754811015611af45761296581612e8d565b8061296f81614861565b915050612952565b6014546012546040517f5f67db1e0000000000000000000000000000000000000000000000000000000081526000926001600160a01b031691635f67db1e916129c39190600401613a69565b60206040518083038186803b1580156129db57600080fd5b505afa1580156129ef573d6000803e3d6000fd5b505050506040513d601f19601f82011682018060405250810190612a1391906134eb565b90506001600160a01b03811615801590612a995750806001600160a01b0316636c7f81876040518163ffffffff1660e01b815260040160206040518083038186803b158015612a6157600080fd5b505afa158015612a75573d6000803e3d6000fd5b505050506040513d601f19601f82011682018060405250810190612a99919061372f565b15611af457806001600160a01b0316633a275fa26040518163ffffffff1660e01b8152600401600060405180830381600087803b158015612ad957600080fd5b505af11580156107aa573d6000803e3d6000fd5b611af481604051602401612b019190613acc565b60408051601f198184030181529190526020810180516001600160e01b03167f2c2ecbc200000000000000000000000000000000000000000000000000000000179052612d92565b611af481604051602401612b5d9190613a69565b60408051601f198184030181529190526020810180516001600160e01b03167ff5b1bba900000000000000000000000000000000000000000000000000000000179052612d92565b611af481604051602401612bb99190613c25565b60408051601f198184030181529190526020810180516001600160e01b03167f0be77f5600000000000000000000000000000000000000000000000000000000179052612d92565b60ff8084166000908152601b602090815260408083208684529091529020541615612c3e5760405162461bcd60e51b81526004016105d790613e23565b60ff83166000908152601b602090815260408083208584529091529020805460ff191660011790556107ad8383835b60ff8316612cbe57612c80816000613162565b6000838152601660205260409020805473ffffffffffffffffffffffffffffffffffffffff19166001600160a01b03929092169190911790556107ad565b8260ff1660011415612d0b576000612cd78260006131a8565b60ff1611612ce6576000612ce9565b60015b6000838152601760205260409020805460ff19169115159190911790556107ad565b8260ff1660021415612d3c5760008281526018602090815260409091208251612d3692840190613353565b506107ad565b8260ff1660031415612d6757612d538160006131de565b6000838152601960205260409020556107ad565b8260ff16600414156107ad57612d7e816000613214565b6000838152601a6020526040902055505050565b80516a636f6e736f6c652e6c6f67602083016000808483855afa5050505050565b601054600f80546001600160a01b039092169163d96ee754913091612dda906001906143cd565b81548110612df857634e487b7160e01b600052603260045260246000fd5b9060005260206000209060050201600101546001600701600001546040518463ffffffff1660e01b815260040161252d93929190613b3c565b611af481604051602401612e459190613a69565b60408051601f198184030181529190526020810180516001600160e01b03167f27b7cf8500000000000000000000000000000000000000000000000000000000179052612d92565b6007805482908110612eaf57634e487b7160e01b600052603260045260246000fd5b600091825260209091206004909102015460ff1615612ee05760405162461bcd60e51b81526004016105d790614273565b6007805482908110612f0257634e487b7160e01b600052603260045260246000fd5b906000526020600020906004020160020154471015612f335760405162461bcd60e51b81526004016105d790613fb9565b6001806006018281548110612f5857634e487b7160e01b600052603260045260246000fd5b60009182526020822060049190910201805460ff1916921515929092179091556007805483908110612f9a57634e487b7160e01b600052603260045260246000fd5b60009182526020918290206040805160c081018252600493909302909101805460ff80821615158552610100820416151594840194909452620100009093046001600160a01b031690820152600182015460608201526002820154608082015260038201805491929160a08401919061301290614813565b80601f016020809104026020016040519081016040528092919081815260200182805461303e90614813565b801561308b5780601f106130605761010080835404028352916020019161308b565b820191906000526020600020905b81548152906001019060200180831161306e57829003601f168201915b50505050508152505090508060200151156130c457606081015160009081526016602052604090819020546001600160a01b0316908201525b60008082604001516001600160a01b031683608001518460a001516040516130ec9190613a72565b60006040518083038185875af1925050503d8060008114613129576040519150601f19603f3d011682016040523d82523d6000602084013e61312e565b606091505b509150915061313c82613241565b61314581612ba5565b8161255b5760405162461bcd60e51b81526004016105d790613ff0565b600061316f826014614396565b8351101561318f5760405162461bcd60e51b81526004016105d790613f82565b5001602001516c01000000000000000000000000900490565b60006131b5826001614396565b835110156131d55760405162461bcd60e51b81526004016105d790614027565b50016001015190565b60006131eb826020614396565b8351101561320b5760405162461bcd60e51b81526004016105d790613f4b565b50016020015190565b6000613221826020614396565b8351101561320b5760405162461bcd60e51b81526004016105d790613f14565b611af4816040516024016132559190613b89565b60408051601f198184030181529190526020810180516001600160e01b03167f32458eed00000000000000000000000000000000000000000000000000000000179052612d92565b8280548282559060005260206000209081019282156132d8579160200282015b828111156132d85782358255916020019190600101906132bd565b506132e49291506133c6565b5090565b6040805160a081018252600080825260208201819052918101829052606080820192909252608081019190915290565b8280548282559060005260206000209081019282156132d8579160200282015b828111156132d8578251825591602001919060010190613338565b82805461335f90614813565b90600052602060002090601f01602090048101928261338157600085556132d8565b82601f1061339a57805160ff19168380011785556132d8565b828001600101855582156132d857918201828111156132d8578251825591602001919060010190613338565b5b808211156132e457600081556001016133c7565b60008083601f8401126133ec578182fd5b50813567ffffffffffffffff811115613403578182fd5b602083019150836020808302850101111561341d57600080fd5b9250929050565b60008083601f840112613435578182fd5b50813567ffffffffffffffff81111561344c578182fd5b60208301915083602082850101111561341d57600080fd5b600082601f830112613474578081fd5b813567ffffffffffffffff81111561348e5761348e6148a8565b6134a1601f8201601f1916602001614360565b8181528460208386010111156134b5578283fd5b816020850160208301379081016020019190915292915050565b6000602082840312156134e0578081fd5b813561133881614d90565b6000602082840312156134fc578081fd5b815161133881614d90565b60008060008060008060008060a0898b031215613522578384fd5b883561352d81614d90565b9750602089013561353d81614d90565b9650604089013567ffffffffffffffff80821115613559578586fd5b6135658c838d016133db565b909850965060608b013591508082111561357d578586fd5b6135898c838d016133db565b909650945060808b01359150808211156135a1578384fd5b506135ae8b828c01613424565b999c989b5096995094979396929594505050565b60008060008060008060a087890312156135da578182fd5b86356135e581614d90565b955060208701356135f581614d90565b94506040870135935060608701359250608087013567ffffffffffffffff81111561361e578283fd5b61362a89828a01613424565b979a9699509497509295939492505050565b6000602080838503121561364e578182fd5b825167ffffffffffffffff80821115613665578384fd5b818501915085601f830112613678578384fd5b81518181111561368a5761368a6148a8565b838102915061369a848301614360565b8181528481019084860184860187018a10156136b4578788fd5b8795505b838610156136e257805194506136cd85614d90565b848352600195909501949186019186016136b8565b5098975050505050505050565b60008060208385031215613701578182fd5b823567ffffffffffffffff811115613717578283fd5b613723858286016133db565b90969095509350505050565b600060208284031215613740578081fd5b815161133881614da5565b60006020828403121561375c578081fd5b5051919050565b600060208284031215613774578081fd5b81356001600160e01b031981168114611338578182fd5b600080600080600060a086880312156137a2578283fd5b85356137ad81614d90565b94506020860135935060408601356137c481614d90565b925060608601356137d481614d90565b9150608086013567ffffffffffffffff8111156137ef578182fd5b86016101008189031215613801578182fd5b809150509295509295909350565b600060208284031215613820578081fd5b5035919050565b60008060408385031215613839578182fd5b82359150602083013567ffffffffffffffff811115613856578182fd5b61386285828601613464565b9150509250929050565b6000806040838503121561387e578182fd5b50508035926020909101359150565b6000806000606084860312156138a1578081fd5b83356138ac81614db3565b925060208401359150604084013567ffffffffffffffff8111156138ce578182fd5b6138da86828701613464565b9150509250925092565b6000815180845260208085018081965082840281019150828601855b8581101561392a578284038952613918848351613937565b98850198935090840190600101613900565b5091979650505050505050565b6000815180845260208085019450808401835b838110156139665781518752958201959082019060010161394a565b509495945050505050565b6000815480845260208085019450838352808320835b8381101561396657815487529582019560019182019101613987565b600081518084526139bb8160208601602086016147e7565b601f01601f19169290920160200192915050565b600081546139dc81614813565b600182811680156139f45760018114613a0557613a34565b60ff19841687528287019450613a34565b8560005260208060002060005b85811015613a2b5781548a820152908401908201613a12565b50505082870194505b5050505092915050565b60609190911b6bffffffffffffffffffffffff1916815260140190565b90151560f81b815260010190565b90815260200190565b60008251613a848184602087016147e7565b9190910192915050565b600061133882846139cf565b6000613aa682866139cf565b60609490941b6bffffffffffffffffffffffff1916845250506014820152603401919050565b6001600160a01b0391909116815260200190565b6001600160a01b039384168152919092166020820152604081019190915260600190565b6001600160a01b0394851681529290931660208301526040820152606081019190915260a06080820181905260009082015260c00190565b6001600160a01b039390931683526020830191909152604082015260600190565b6001600160a01b03929092168252602082015260400190565b6000602082526113386020830184613937565b901515815260200190565b931515845260208401929092526040830152606082015260800190565b6bffffffffffffffffffffffff1991909116815260200190565b600083825260406020830152613be46040830184613971565b949350505050565b9283526020830191909152604082015260600190565b918252602082015260400190565b6001600160e01b031991909116815260200190565b60006020825261133860208301846139a3565b60006001600160a01b038716825285602083015284604083015260a06060830152613c6660a0830185613971565b90508260808301529695505050505050565b60006001600160a01b038089168352808816602084015280871660408401525084606083015260c06080830152613cb260c08301856139a3565b82810360a0840152835181526020840151602082015260408401516040820152606084015160e06060830152613ceb60e0830182613937565b905060808501518282036080840152613d0482826138e4565b91505060a085015182820360a0840152613d1e82826138e4565b91505060c085015182820360c0840152613d3882826139a3565b9b9a5050505050505050505050565b6020808252601e908201527f536f6c7665723a3a4f6e6c79204b6565706572206f7220417262697465720000604082015260600190565b6020808252601e908201527f536f6c7665723a204b6565706572206164647265737320696e76616c69640000604082015260600190565b60208082526012908201527f536f6c7665723a20556e65786563757465640000000000000000000000000000604082015260600190565b6020808252601f908201527f536f6c7665723a204172626974726174696f6e206e6f742070656e64696e6700604082015260600190565b6020808252601c908201527f536f6c7665723a3a436f6e7374616e7420706f7274206c6f636b656400000000604082015260600190565b60208082526035908201527f536f6c7665723a3a506f72742076657273696f6e20646f6573206e6f74206d6160408201527f74636820636f6e646974696f6e2076657273696f6e0000000000000000000000606082015260800190565b6020808252602e908201527f536f6c7665723a204f6e6c79207468652041726269746572206164647265737360408201527f206d61792063616c6c2074686973000000000000000000000000000000000000606082015260800190565b60208082526015908201527f746f55696e743235365f6f75744f66426f756e64730000000000000000000000604082015260600190565b60208082526015908201527f746f427974657333325f6f75744f66426f756e64730000000000000000000000604082015260600190565b60208082526015908201527f746f416464726573735f6f75744f66426f756e64730000000000000000000000604082015260600190565b60208082526018908201527f536f6c7665723a3a696e73756666696369656e74206574680000000000000000604082015260600190565b60208082526014908201527f536f6c7665723a3a63616c6c206661696c757265000000000000000000000000604082015260600190565b60208082526013908201527f746f55696e74385f6f75744f66426f756e647300000000000000000000000000604082015260600190565b6020808252818101527f536f6c7665723a3a496e676573742073746174696363616c6c206661696c6564604082015260600190565b6020808252818101527f536f6c7665723a3a446566657272656420696e676573747320696e76616c6964604082015260600190565b6020808252602a908201527f536f6c7665723a3a506f727420697320756e6d6170706564206f722077726f6e60408201527f672076657273696f6e2e00000000000000000000000000000000000000000000606082015260800190565b60208082526022908201527f536f6c7665723a3a4f6e6c7920666163746f7279206d61792063616c6c20696e60408201527f6974000000000000000000000000000000000000000000000000000000000000606082015260800190565b6020808252601b908201527f536f6c7665723a3a44796e616d696320706f7274206c6f636b65640000000000604082015260600190565b60208082526031908201527f536f6c7665723a204f6e6c7920746865204b6565706572206f7220417262697460408201527f6572206d61792063616c6c20746869732e000000000000000000000000000000606082015260800190565b60208082526027908201527f536f6c7665723a2054696d656c6f636b206973207374696c6c20696e2074686560408201527f2066757475726500000000000000000000000000000000000000000000000000606082015260800190565b60208082526017908201527f536f6c7665723a3a616374696f6e206578656375746564000000000000000000604082015260600190565b6000808335601e198436030181126142c0578283fd5b83018035915067ffffffffffffffff8211156142da578283fd5b602090810192508102360382131561341d57600080fd5b6000808335601e19843603018112614307578283fd5b83018035915067ffffffffffffffff821115614321578283fd5b60200191503681900382131561341d57600080fd5b6000823560be19833603018112613a84578182fd5b6000823560de19833603018112613a84578182fd5b60405181810167ffffffffffffffff81118282101715614382576143826148a8565b604052919050565b60009081526020902090565b600082198211156143a9576143a9614892565b500190565b60008160001904831182151516156143c8576143c8614892565b500290565b6000828210156143df576143df614892565b500390565b5b8181101561063957600081556001016143e5565b68010000000000000000831115614412576144126148a8565b805483825580841015614450576000828152602081208581019083015b8082101561444c5761444183836148cb565b60018201915061442f565b5050505b508161445b8261438a565b6000805b868110156144925761447184876142aa565b61447d81838688614bfe565b5050602093909301926001928301920161445f565b50505050505050565b680100000000000000008311156144b4576144b46148a8565b805483825580841015614563577f3fffffffffffffffffffffffffffffffffffffffffffffffffffffffffffffff60018183118116156144f6576144f6614892565b600482871182161561450a5761450a614892565b600085815260208120909350878202810190828602015b8082101561455d578482556145398586868501614d71565b614547858660028501614d71565b6145548560038401614908565b90820190614521565b50505050505b508161456e8261438a565b6000805b868110156144925761458e6145878588614336565b8385614c17565b6020939093019260049290920191600101614572565b680100000000000000008311156145bd576145bd6148a8565b80548382558084101561467a577f333333333333333333333333333333333333333333333333333333333333333360018183118116156145ff576145ff614892565b600582871182161561461357614613614892565b600085815260208120909350878202810190828602015b808210156146745761463d858684614d71565b8484830155614650858660028501614d71565b61465e858660038501614d71565b61466b8560048401614908565b9082019061462a565b50505050505b50816146858261438a565b6000805b86811015614492576146a561469e858861434b565b8385614cd6565b6020939093019260059290920191600101614689565b6146c583826148cb565b818160005260208060002060005b86811015614492578335825592820192600191820191016146d3565b67ffffffffffffffff831115614707576147076148a8565b6147118154614813565b600080601f8611601f8411818117156147305761472d8661438a565b92505b801561475f576020601f8901048301602089101561474b5750825b61475d6020601f8801048501826143e4565b505b50806001811461478b5760009450871561477a578387013594505b614784888661484e565b86556147dd565b601f198816945082845b868110156147b55788860135825560209586019560019092019101614795565b50888610156147d257878501356000196008601f8c16021c191681555b506001600289020186555b5050505050505050565b60005b838110156148025781810151838201526020016147ea565b8381111561255b5750506000910152565b60028104600182168061482757607f821691505b6020821081141561484857634e487b7160e01b600052602260045260246000fd5b50919050565b600019600883021c191660029091021790565b600060001982141561487557614875614892565b5060010190565b634e487b7160e01b600052600060045260246000fd5b634e487b7160e01b600052601160045260246000fd5b634e487b7160e01b600052604160045260246000fd5b6000813561058c81614d90565b680100000000000000008211156148e4576148e46148a8565b8054828255808310156107ad5781600052602060002061255b8282018583016143e4565b81156149165761491661487c565b6149208154614813565b80156107ad57601f81116001811461493b576000835561255b565b6000838152602081206149596020601f8601048201600183016143e4565b50838152602081208185555550505050565b6001600160a01b03821673ffffffffffffffffffffffffffffffffffffffff198254161781555050565b60ff1981541660ff8315151681178255505050565b81358155600160208084013582840155604084013560028401556149d160608501856142aa565b6149df8183600388016146bb565b50506149ee60808501856142aa565b6149fc8183600488016143f9565b5050614a0b60a08501856142aa565b614a198183600588016143f9565b505060068301614a2c60c08601866142f1565b67ffffffffffffffff811115614a4457614a446148a8565b614a4e8354614813565b600080601f8411601f841181811715614a6d57614a6a8861438a565b92505b8015614a995788601f870104830189871015614a865750825b614a978a601f8801048501826143e4565b505b508060018114614ac557600094508515614ab4578387013594505b614abe868661484e565b8855614b13565b601f198616945082845b86811015614aec57888601358255948a0194908b01908a01614acf565b5086861015614b0957878501356000196008601f8a16021c191681555b5089600287020188555b505050505050505050505050565b8135614b2c81614d90565b614b36818361496b565b506020820135614b4581614d90565b614b52816001840161496b565b50614b6b614b62604084016148be565b6002830161496b565b60608201356003820155614b8260808301836142f1565b614b908183600486016146ef565b5050614b9f60a08301836142aa565b614bad8183600586016145a4565b5050614bbc60c08301836142aa565b614bca81836006860161449b565b5050610639614bdc60e084018461434b565b600783016149aa565b805461ff00191691151560081b61ff0016919091179055565b8115614c0c57614c0c61487c565b61255b8484836146bb565b8115614c2557614c2561487c565b8235614c3081614da5565b614c3a8183614995565b506020830135614c4981614da5565b614c538183614be5565b506040830135614c6281614d90565b81547fffffffffffffffffffff0000000000000000000000000000000000000000ffff1660109190911b75ffffffffffffffffffffffffffffffffffffffff0000161781556060830135600182015560808301356002820155614cc860a08401846142f1565b6107aa8183600386016146ef565b8115614ce457614ce461487c565b82358155600181016020840135614cfa81614da5565b614d048183614995565b506040840135614d1381614da5565b614d1d8183614be5565b506060840135614d2c81614db3565b815462ff0000191660109190911b62ff0000161790556080830135600282015560a08301356003820155614d6360c08401846142f1565b6107aa8183600486016146ef565b805460088302600019811b8086831b1681198416178455505050505050565b6001600160a01b0381168114611af457600080fd5b8015158114611af457600080fd5b60ff81168114611af457600080fdfea2646970667358221220e296b36c67eec54a0bb5e94217e51e26f50eb6d62eface915727929307c342f564736f6c63430008000033",
  "linkReferences": {},
  "deployedLinkReferences": {}
}