{
  "_format": "hh-sol-artifact-1",
  "contractName": "Solver",
  "sourceName": "contracts/Solver.sol",
  "abi": [
    {
      "inputs": [
        {
          "internalType": "uint256[]",
          "name": "_payouts",
          "type": "uint256[]"
        }
      ],
      "name": "arbitrate",
      "outputs": [],
      "stateMutability": "nonpayable",
      "type": "function"
    },
    {
      "inputs": [],
      "name": "arbitrationDelivered",
      "outputs": [
        {
          "internalType": "bool",
          "name": "",
          "type": "bool"
        }
      ],
      "stateMutability": "view",
      "type": "function"
    },
    {
      "inputs": [],
      "name": "canonCondition",
      "outputs": [
        {
          "internalType": "contract IERC20",
          "name": "collateralToken",
          "type": "address"
        },
        {
          "internalType": "address",
          "name": "oracle",
          "type": "address"
        },
        {
          "internalType": "bytes32",
          "name": "questionId",
          "type": "bytes32"
        },
        {
          "internalType": "uint256",
          "name": "outcomeSlots",
          "type": "uint256"
        },
        {
          "internalType": "bytes32",
          "name": "parentCollectionId",
          "type": "bytes32"
        },
        {
          "internalType": "bytes32",
          "name": "conditionId",
          "type": "bytes32"
        },
        {
          "internalType": "uint256",
          "name": "amount",
          "type": "uint256"
        }
      ],
      "stateMutability": "view",
      "type": "function"
    },
    {
      "inputs": [],
      "name": "collateralToken",
      "outputs": [
        {
          "internalType": "contract IERC20",
          "name": "",
          "type": "address"
        }
      ],
      "stateMutability": "view",
      "type": "function"
    },
    {
      "inputs": [],
      "name": "conditionalTokens",
      "outputs": [
        {
          "internalType": "contract ConditionalTokens",
          "name": "",
          "type": "address"
        }
      ],
      "stateMutability": "view",
      "type": "function"
    },
    {
      "inputs": [],
      "name": "config",
      "outputs": [
        {
          "internalType": "contract SolverFactory",
          "name": "factory",
          "type": "address"
        },
        {
          "internalType": "address",
          "name": "keeper",
          "type": "address"
        },
        {
          "internalType": "address",
          "name": "arbiter",
          "type": "address"
        },
        {
          "internalType": "uint256",
          "name": "timelockSeconds",
          "type": "uint256"
        },
        {
          "internalType": "bytes",
          "name": "data",
          "type": "bytes"
        }
      ],
      "stateMutability": "view",
      "type": "function"
    },
    {
      "inputs": [],
      "name": "confirmPayouts",
      "outputs": [],
      "stateMutability": "nonpayable",
      "type": "function"
    },
    {
      "inputs": [
        {
          "internalType": "uint256",
          "name": "_outcomeSlots",
          "type": "uint256"
        },
        {
          "internalType": "bytes32",
          "name": "_parentCollectionId",
          "type": "bytes32"
        },
        {
          "internalType": "uint256",
          "name": "_amount",
          "type": "uint256"
        },
        {
          "internalType": "uint256[]",
          "name": "_partition",
          "type": "uint256[]"
        },
        {
          "internalType": "address[][]",
          "name": "_initialRecipientAddresses",
          "type": "address[][]"
        },
        {
          "internalType": "uint256[][]",
          "name": "_initialRecipientAmounts",
          "type": "uint256[][]"
        },
        {
          "internalType": "string",
          "name": "_metadata",
          "type": "string"
        }
      ],
      "name": "executeCanonCondition",
      "outputs": [],
      "stateMutability": "nonpayable",
      "type": "function"
    },
    {
      "inputs": [],
      "name": "executeSolve",
      "outputs": [],
      "stateMutability": "nonpayable",
      "type": "function"
    },
    {
      "inputs": [],
      "name": "executed",
      "outputs": [
        {
          "internalType": "bool",
          "name": "",
          "type": "bool"
        }
      ],
      "stateMutability": "view",
      "type": "function"
    },
    {
      "inputs": [],
      "name": "getPayouts",
      "outputs": [
        {
          "internalType": "uint256[]",
          "name": "",
          "type": "uint256[]"
        }
      ],
      "stateMutability": "view",
      "type": "function"
    },
    {
      "inputs": [
        {
          "internalType": "contract IERC20",
          "name": "_collateralToken",
          "type": "address"
        },
        {
          "internalType": "bytes32",
          "name": "_solutionId",
          "type": "bytes32"
        },
        {
          "internalType": "address",
          "name": "_proposalsHub",
          "type": "address"
        },
        {
          "internalType": "address",
          "name": "_solutionsHub",
          "type": "address"
        },
        {
          "components": [
            {
              "internalType": "contract SolverFactory",
              "name": "factory",
              "type": "address"
            },
            {
              "internalType": "address",
              "name": "keeper",
              "type": "address"
            },
            {
              "internalType": "address",
              "name": "arbiter",
              "type": "address"
            },
            {
              "internalType": "uint256",
              "name": "timelockSeconds",
              "type": "uint256"
            },
            {
              "internalType": "bytes",
              "name": "data",
              "type": "bytes"
            },
            {
              "components": [
                {
                  "internalType": "address",
                  "name": "to",
                  "type": "address"
                },
                {
                  "internalType": "bool",
                  "name": "executed",
                  "type": "bool"
                },
                {
                  "internalType": "bool",
                  "name": "useSolverIdx",
                  "type": "bool"
                },
                {
                  "internalType": "uint256",
                  "name": "solverIdx",
                  "type": "uint256"
                },
                {
                  "internalType": "uint256",
                  "name": "value",
                  "type": "uint256"
                },
                {
                  "internalType": "bytes",
                  "name": "data",
                  "type": "bytes"
                }
              ],
              "internalType": "struct Minion.Action[]",
              "name": "actions",
              "type": "tuple[]"
            }
          ],
          "internalType": "struct Solver.Config",
          "name": "_solverConfig",
          "type": "tuple"
        }
      ],
      "name": "init",
      "outputs": [],
      "stateMutability": "nonpayable",
      "type": "function"
    },
    {
      "inputs": [],
      "name": "nullArbitrate",
      "outputs": [],
      "stateMutability": "nonpayable",
      "type": "function"
    },
    {
      "inputs": [
        {
          "internalType": "address",
          "name": "operator",
          "type": "address"
        },
        {
          "internalType": "address",
          "name": "from",
          "type": "address"
        },
        {
          "internalType": "uint256[]",
          "name": "ids",
          "type": "uint256[]"
        },
        {
          "internalType": "uint256[]",
          "name": "values",
          "type": "uint256[]"
        },
        {
          "internalType": "bytes",
          "name": "data",
          "type": "bytes"
        }
      ],
      "name": "onERC1155BatchReceived",
      "outputs": [
        {
          "internalType": "bytes4",
          "name": "",
          "type": "bytes4"
        }
      ],
      "stateMutability": "nonpayable",
      "type": "function"
    },
    {
      "inputs": [
        {
          "internalType": "address",
          "name": "operator",
          "type": "address"
        },
        {
          "internalType": "address",
          "name": "from",
          "type": "address"
        },
        {
          "internalType": "uint256",
          "name": "id",
          "type": "uint256"
        },
        {
          "internalType": "uint256",
          "name": "value",
          "type": "uint256"
        },
        {
          "internalType": "bytes",
          "name": "data",
          "type": "bytes"
        }
      ],
      "name": "onERC1155Received",
      "outputs": [
        {
          "internalType": "bytes4",
          "name": "",
          "type": "bytes4"
        }
      ],
      "stateMutability": "nonpayable",
      "type": "function"
    },
    {
      "inputs": [],
      "name": "pendingArbitration",
      "outputs": [
        {
          "internalType": "bool",
          "name": "",
          "type": "bool"
        }
      ],
      "stateMutability": "view",
      "type": "function"
    },
    {
      "inputs": [],
      "name": "proposalsHub",
      "outputs": [
        {
          "internalType": "address",
          "name": "",
          "type": "address"
        }
      ],
      "stateMutability": "view",
      "type": "function"
    },
    {
      "inputs": [
        {
          "internalType": "uint256[]",
          "name": "_payouts",
          "type": "uint256[]"
        }
      ],
      "name": "proposePayouts",
      "outputs": [],
      "stateMutability": "nonpayable",
      "type": "function"
    },
    {
      "inputs": [],
      "name": "solutionId",
      "outputs": [
        {
          "internalType": "bytes32",
          "name": "",
          "type": "bytes32"
        }
      ],
      "stateMutability": "view",
      "type": "function"
    },
    {
      "inputs": [],
      "name": "solutionsHub",
      "outputs": [
        {
          "internalType": "address",
          "name": "",
          "type": "address"
        }
      ],
      "stateMutability": "view",
      "type": "function"
    },
    {
      "inputs": [],
      "name": "solved",
      "outputs": [
        {
          "internalType": "bool",
          "name": "",
          "type": "bool"
        }
      ],
      "stateMutability": "view",
      "type": "function"
    },
    {
      "inputs": [],
      "name": "timelock",
      "outputs": [
        {
          "internalType": "uint256",
          "name": "",
          "type": "uint256"
        }
      ],
      "stateMutability": "view",
      "type": "function"
    }
  ],
  "bytecode": "0x608060405234801561001057600080fd5b50612978806100206000396000f3fe608060405234801561001057600080fd5b50600436106101825760003560e01c806383d012f4116100d8578063bc197c811161008c578063e7fd205911610066578063e7fd2059146102bb578063efabae57146102ce578063f23a6e61146102d657610182565b8063bc197c811461027e578063c43c168e1461029e578063d33219b4146102b357610182565b8063a2b14e6f116100bd578063a2b14e6f14610266578063a7f5d48c1461026e578063b2016bd41461027657610182565b806383d012f4146102435780638d905df51461024b57610182565b80635975e7891161013a5780636f2f3e77116101145780636f2f3e771461021a57806379502c5514610222578063799320bb1461023b57610182565b80635975e789146101dd5780635bd9e299146101f05780636bf90c841461020557610182565b806331a38c891161016b57806331a38c89146101af5780633a275fa2146101cd57806348d6bc00146101d557610182565b80630d49722d146101875780631aa0ed451461019c575b600080fd5b61019a61019536600461196b565b6102e9565b005b61019a6101aa366004611a62565b6103f6565b6101b76108a9565b6040516101c49190611c78565b60405180910390f35b61019a6108b9565b61019a61091b565b61019a6101eb3660046119df565b610abb565b6101f8610bd6565b6040516101c49190611b8a565b61020d610be5565b6040516101c49190611c34565b61019a610c3d565b61022a610ca0565b6040516101c4959493929190611de3565b6101b7610d53565b6101b7610d63565b610253610d73565b6040516101c49796959493929190611d2d565b6101f8610d9b565b6101f8610daa565b6101f8610db9565b61029161028c366004611836565b610dc8565b6040516101c49190611d00565b6102a6610df5565b6040516101c49190611c83565b6102a6610dfb565b61019a6102c936600461196b565b610e01565b6101b7610eca565b6102916102e43660046118f1565b610eda565b6002546001600160a01b031633148061030c57506003546001600160a01b031633145b6103315760405162461bcd60e51b81526004016103289061216d565b60405180910390fd5b601054600160b01b900460ff16151560011461035f5760405162461bcd60e51b815260040161032890611f0c565b601054600160b81b900460ff16156103895760405162461bcd60e51b815260040161032890611f43565b601054600160c01b900460ff16156103b35760405162461bcd60e51b815260040161032890611eaf565b601054600160a81b900460ff16156103dd5760405162461bcd60e51b815260040161032890612045565b6103e96015838361170e565b506103f2610f05565b5050565b601054600160b01b900460ff1615156001146104245760405162461bcd60e51b815260040161032890611f0c565b601054600160b81b900460ff161561044e5760405162461bcd60e51b815260040161032890611f43565b601054600160c01b900460ff16156104785760405162461bcd60e51b815260040161032890611eaf565b601054600160a81b900460ff16156104a25760405162461bcd60e51b815260040161032890612045565b3330146104c15760405162461bcd60e51b815260040161032890612110565b601054600160a01b900460ff16156104eb5760405162461bcd60e51b815260040161032890611e41565b6010805460ff60a01b1916600160a01b17905560405161051390839083903090602001611b61565b60408051601f198184030181529190528051602090910120600955600a8b9055600b8a9055600d899055610549600e898961170e565b5030600760010160006101000a8154816001600160a01b0302191690836001600160a01b03160217905550600f60009054906101000a90046001600160a01b03166001600160a01b031663852c6ae2306007600201548e6040518463ffffffff1660e01b81526004016105be93929190611bfa565b60206040518083038186803b1580156105d657600080fd5b505afa1580156105ea573d6000803e3d6000fd5b505050506040513d601f19601f8201168201806040525081019061060e91906119c7565b600c55600f54600954600a546040517fd96ee7540000000000000000000000000000000000000000000000000000000081526001600160a01b039093169263d96ee75492610660923092600401611bfa565b600060405180830381600087803b15801561067a57600080fd5b505af115801561068e573d6000803e3d6000fd5b5050508a151590506107e3576010546012546040517f23b872dd0000000000000000000000000000000000000000000000000000000081526001600160a01b039283169283926323b872dd926106ee929091169030908f90600401611b9e565b602060405180830381600087803b15801561070857600080fd5b505af115801561071c573d6000803e3d6000fd5b505050506040513d601f19601f8201168201806040525081019061074091906119ab565b50600f546040517f095ea7b30000000000000000000000000000000000000000000000000000000081526001600160a01b038381169263095ea7b39261078e92909116908e90600401611c1b565b602060405180830381600087803b1580156107a857600080fd5b505af11580156107bc573d6000803e3d6000fd5b505050506040513d601f19601f820116820180604052508101906107e091906119ab565b50505b600f60009054906101000a90046001600160a01b03166001600160a01b03166372ce4275601060009054906101000a90046001600160a01b03168c6007600501548c8c8f6040518763ffffffff1660e01b815260040161084896959493929190611d6b565b600060405180830381600087803b15801561086257600080fd5b505af1158015610876573d6000803e3d6000fd5b5050601054600c5461089c93506001600160a01b0390911691508c8b8b8b8b8b8b610fce565b5050505050505050505050565b601054600160b01b900460ff1681565b6013546001600160a01b031633146108e35760405162461bcd60e51b81526004016103289061207c565b601080547fffffffffffffffffff00ffffffffffffffffffffffffffffffffffffffffffff16600160b01b179055610919611333565b565b6002546001600160a01b031633148061093e57506003546001600160a01b031633145b61095a5760405162461bcd60e51b81526004016103289061216d565b601054600160b01b900460ff1615156001146109885760405162461bcd60e51b815260040161032890611f0c565b601054600160b81b900460ff16156109b25760405162461bcd60e51b815260040161032890611f43565b601054600160c01b900460ff16156109dc5760405162461bcd60e51b815260040161032890611eaf565b601054600160a81b900460ff1615610a065760405162461bcd60e51b815260040161032890612045565b6014544211610a275760405162461bcd60e51b8152600401610328906121ca565b600f546009546040517fc49298ac0000000000000000000000000000000000000000000000000000000081526001600160a01b039092169163c49298ac91610a7491601590600401611c8c565b600060405180830381600087803b158015610a8e57600080fd5b505af1158015610aa2573d6000803e3d6000fd5b50506010805460ff60a81b1916600160a81b1790555050565b6000610acd60408301602084016117f7565b6001600160a01b03161415610af45760405162461bcd60e51b815260040161032890611e78565b806001610b01828261275e565b905050816001600160a01b0316635bd9e2996040518163ffffffff1660e01b815260040160206040518083038186803b158015610b3d57600080fd5b505afa158015610b51573d6000803e3d6000fd5b505050506040513d601f19601f82011682018060405250810190610b75919061181a565b600f805473ffffffffffffffffffffffffffffffffffffffff199081166001600160a01b0393841617909155601080548216978316979097179096556011949094555060128054851692841692909217909155601380549093169116179055565b600f546001600160a01b031681565b60606015805480602002602001604051908101604052809291908181526020018280548015610c3357602002820191906000526020600020905b815481526020019060010190808311610c1f575b5050505050905090565b6003546001600160a01b03163314610c675760405162461bcd60e51b815260040161032890611fb1565b60108054600160b81b7fffffffffffffffff00ffffffffffffffffffffffffffffffffffffffffffffff91821617169055610919610f05565b60018054600254600354600454600580546001600160a01b039586169694861695909316939192610cd09061264c565b80601f0160208091040260200160405190810160405280929190818152602001828054610cfc9061264c565b8015610d495780601f10610d1e57610100808354040283529160200191610d49565b820191906000526020600020905b815481529060010190602001808311610d2c57829003601f168201915b5050505050905085565b601054600160a81b900460ff1681565b601054600160b81b900460ff1681565b600754600854600954600a54600b54600c54600d546001600160a01b03968716969095169487565b6012546001600160a01b031681565b6013546001600160a01b031681565b6010546001600160a01b031681565b7fbc197c810000000000000000000000000000000000000000000000000000000098975050505050505050565b60115481565b60145481565b6003546001600160a01b03163314610e2b5760405162461bcd60e51b815260040161032890611fb1565b601054600160b01b900460ff161515600114610e595760405162461bcd60e51b815260040161032890611f0c565b601054600160b81b900460ff161515600114610e875760405162461bcd60e51b815260040161032890611f7a565b610e936015838361170e565b50601080547fffffffffffffff0000ffffffffffffffffffffffffffffffffffffffffffffff16600160c01b1790556103f2610f05565b601054600160c01b900460ff1681565b7ff23a6e61000000000000000000000000000000000000000000000000000000009695505050505050565b601054600160b01b900460ff161515600114610f335760405162461bcd60e51b815260040161032890611f0c565b601054600160b81b900460ff1615610f5d5760405162461bcd60e51b815260040161032890611f43565b601054600160c01b900460ff1615610f875760405162461bcd60e51b815260040161032890611eaf565b601054600160a81b900460ff1615610fb15760405162461bcd60e51b815260040161032890612045565b600454610fbf9060016123c9565b610fc990426123b1565b601455565b601054600160b01b900460ff161515600114610ffc5760405162461bcd60e51b815260040161032890611f0c565b601054600160b81b900460ff16156110265760405162461bcd60e51b815260040161032890611f43565b601054600160c01b900460ff16156110505760405162461bcd60e51b815260040161032890611eaf565b601054600160a81b900460ff161561107a5760405162461bcd60e51b815260040161032890612045565b60005b8581101561132757600f546000906001600160a01b031663856296f78a8c8b8b878181106110bb57634e487b7160e01b600052603260045260246000fd5b905060200201356040518463ffffffff1660e01b81526004016110e093929190611cdc565b60206040518083038186803b1580156110f857600080fd5b505afa15801561110c573d6000803e3d6000fd5b505050506040513d601f19601f8201168201806040525081019061113091906119c7565b600f546040517f39dd75300000000000000000000000000000000000000000000000000000000081529192506000916001600160a01b03909116906339dd753090611181908f908690600401611c1b565b60206040518083038186803b15801561119957600080fd5b505afa1580156111ad573d6000803e3d6000fd5b505050506040513d601f19601f820116820180604052508101906111d191906119c7565b905060005b8681101561131157600f546001600160a01b031663f242432a308a8a8881811061121057634e487b7160e01b600052603260045260246000fd5b9050602002810190611222919061225e565b8581811061124057634e487b7160e01b600052603260045260246000fd5b905060200201602081019061125591906117f7565b858a8a8a81811061127657634e487b7160e01b600052603260045260246000fd5b9050602002810190611288919061225e565b878181106112a657634e487b7160e01b600052603260045260246000fd5b905060200201356040518563ffffffff1660e01b81526004016112cc9493929190611bc2565b600060405180830381600087803b1580156112e657600080fd5b505af11580156112fa573d6000803e3d6000fd5b50505050808061130990612694565b9150506111d6565b505050808061131f90612694565b91505061107d565b50505050505050505050565b60005b60065481101561135c576113498161135f565b508061135481612694565b915050611336565b50565b60606001600501828154811061138557634e487b7160e01b600052603260045260246000fd5b6000918252602090912060049091020154600680546001600160a01b0390921691849081106113c457634e487b7160e01b600052603260045260246000fd5b6000918252602090912060049091020154600160a01b900460ff16156113fc5760405162461bcd60e51b815260040161032890612227565b600680548490811061141e57634e487b7160e01b600052603260045260246000fd5b90600052602060002090600402016002015447101561144f5760405162461bcd60e51b81526004016103289061200e565b60006001600501848154811061147557634e487b7160e01b600052603260045260246000fd5b60009182526020918290206040805160c081018252600490930290910180546001600160a01b038116845260ff600160a01b82048116151595850195909552600160a81b9004909316151590820152600182015460608201526002820154608082015260038201805491929160a0840191906114f09061264c565b80601f016020809104026020016040519081016040528092919081815260200182805461151c9061264c565b80156115695780601f1061153e57610100808354040283529160200191611569565b820191906000526020600020905b81548152906001019060200180831161154c57829003601f168201915b505050505081525050905080604001511561162b5760135460115460608301516040517f191481a00000000000000000000000000000000000000000000000000000000081526001600160a01b039093169263191481a0926115cf929091600401611cf2565b60206040518083038186803b1580156115e757600080fd5b505afa1580156115fb573d6000803e3d6000fd5b505050506040513d601f19601f8201168201806040525081019061161f919061181a565b6001600160a01b031681525b600180600501858154811061165057634e487b7160e01b600052603260045260246000fd5b6000918252602082206004909102018054921515600160a01b0260ff60a01b19909316929092179091558151608083015160a084015160405184936001600160a01b0316929161169f91611b45565b60006040518083038185875af1925050503d80600081146116dc576040519150601f19603f3d011682016040523d82523d6000602084013e6116e1565b606091505b5091509150816117035760405162461bcd60e51b8152600401610328906120d9565b935050505b50919050565b828054828255906000526020600020908101928215611749579160200282015b8281111561174957823582559160200191906001019061172e565b50611755929150611759565b5090565b5b80821115611755576000815560010161175a565b60008083601f84011261177f578182fd5b50813567ffffffffffffffff811115611796578182fd5b60208301915083602080830285010111156117b057600080fd5b9250929050565b60008083601f8401126117c8578182fd5b50813567ffffffffffffffff8111156117df578182fd5b6020830191508360208285010111156117b057600080fd5b600060208284031215611808578081fd5b81356118138161291f565b9392505050565b60006020828403121561182b578081fd5b81516118138161291f565b60008060008060008060008060a0898b031215611851578384fd5b883561185c8161291f565b9750602089013561186c8161291f565b9650604089013567ffffffffffffffff80821115611888578586fd5b6118948c838d0161176e565b909850965060608b01359150808211156118ac578586fd5b6118b88c838d0161176e565b909650945060808b01359150808211156118d0578384fd5b506118dd8b828c016117b7565b999c989b5096995094979396929594505050565b60008060008060008060a08789031215611909578182fd5b86356119148161291f565b955060208701356119248161291f565b94506040870135935060608701359250608087013567ffffffffffffffff81111561194d578283fd5b61195989828a016117b7565b979a9699509497509295939492505050565b6000806020838503121561197d578182fd5b823567ffffffffffffffff811115611993578283fd5b61199f8582860161176e565b90969095509350505050565b6000602082840312156119bc578081fd5b815161181381612934565b6000602082840312156119d8578081fd5b5051919050565b600080600080600060a086880312156119f6578081fd5b8535611a018161291f565b9450602086013593506040860135611a188161291f565b92506060860135611a288161291f565b9150608086013567ffffffffffffffff811115611a43578182fd5b860160c08189031215611a54578182fd5b809150509295509295909350565b600080600080600080600080600080600060e08c8e031215611a82578485fd5b8b359a5060208c0135995060408c0135985067ffffffffffffffff8060608e01351115611aad578586fd5b611abd8e60608f01358f0161176e565b909950975060808d0135811015611ad2578586fd5b611ae28e60808f01358f0161176e565b909750955060a08d0135811015611af7578384fd5b611b078e60a08f01358f0161176e565b909550935060c08d0135811015611b1c578283fd5b50611b2d8d60c08e01358e016117b7565b81935080925050509295989b509295989b9093969950565b60008251611b5781846020870161261c565b9190910192915050565b6000838583375060609190911b6bffffffffffffffffffffffff19169101908152601401919050565b6001600160a01b0391909116815260200190565b6001600160a01b039384168152919092166020820152604081019190915260600190565b6001600160a01b0394851681529290931660208301526040820152606081019190915260a06080820181905260009082015260c00190565b6001600160a01b039390931683526020830191909152604082015260600190565b6001600160a01b03929092168252602082015260400190565b6020808252825182820181905260009190848201906040850190845b81811015611c6c57835183529284019291840191600101611c50565b50909695505050505050565b901515815260200190565b90815260200190565b60006040820184835260206040818501528185548084526060860191508685528285209350845b81811015611ccf57845483526001948501949284019201611cb3565b5090979650505050505050565b9283526020830191909152604082015260600190565b918252602082015260400190565b7fffffffff0000000000000000000000000000000000000000000000000000000091909116815260200190565b6001600160a01b03978816815295909616602086015260408501939093526060840191909152608083015260a082015260c081019190915260e00190565b60006001600160a01b038816825286602083015285604083015260a060608301528360a08301527f07ffffffffffffffffffffffffffffffffffffffffffffffffffffffffffffff841115611dbe578081fd5b60208402808660c0850137820160c00190815260809091019190915295945050505050565b60006001600160a01b038088168352808716602084015280861660408401525083606083015260a0608083015282518060a0840152611e298160c085016020870161261c565b601f01601f19169190910160c0019695505050505050565b6020808252601d908201527f536f6c7665723a3a20546869732068617320616c72656164792072756e000000604082015260600190565b6020808252601e908201527f536f6c7665723a204b6565706572206164647265737320696e76616c69640000604082015260600190565b60208082526026908201527f536f6c7665723a204172626974726174696f6e20686173206265656e2064656c60408201527f6976657265640000000000000000000000000000000000000000000000000000606082015260800190565b60208082526012908201527f536f6c7665723a20556e65786563757465640000000000000000000000000000604082015260600190565b6020808252601e908201527f536f6c7665723a204172626974726174696f6e2069732070656e64696e670000604082015260600190565b6020808252601f908201527f536f6c7665723a204172626974726174696f6e206e6f742070656e64696e6700604082015260600190565b6020808252602e908201527f536f6c7665723a204f6e6c79207468652041726269746572206164647265737360408201527f206d61792063616c6c2074686973000000000000000000000000000000000000606082015260800190565b60208082526018908201527f536f6c7665723a3a696e73756666696369656e74206574680000000000000000604082015260600190565b60208082526019908201527f536f6c7665723a20536f6c766520697320636f6d706c65746500000000000000604082015260600190565b60208082526033908201527f536f6c7665723a204f6e6c792074686520736f6c7574696f6e7348756220616460408201527f6472657373206d61792063616c6c207468697300000000000000000000000000606082015260800190565b60208082526014908201527f536f6c7665723a3a63616c6c206661696c757265000000000000000000000000604082015260600190565b60208082526026908201527f536f6c7665723a204f6e6c79207468697320736f6c766572206d61792063616c60408201527f6c20746869730000000000000000000000000000000000000000000000000000606082015260800190565b60208082526031908201527f536f6c7665723a204f6e6c7920746865204b6565706572206f7220417262697460408201527f6572206d61792063616c6c20746869732e000000000000000000000000000000606082015260800190565b60208082526027908201527f536f6c7665723a2054696d656c6f636b206973207374696c6c20696e2074686560408201527f2066757475726500000000000000000000000000000000000000000000000000606082015260800190565b60208082526017908201527f536f6c7665723a3a616374696f6e206578656375746564000000000000000000604082015260600190565b6000808335601e19843603018112612274578283fd5b83018035915067ffffffffffffffff82111561228e578283fd5b60209081019250810236038213156117b057600080fd5b6000808335601e198436030181126122bb578283fd5b83018035915067ffffffffffffffff8211156122d5578283fd5b6020019150368190038213156117b057600080fd5b6000823560be19833603018112611b57578182fd5b60009081526020902090565b60208410801561236157601f8411600181146123325761232b8685612681565b835561235b565b61233b836122ff565b6123506020601f8801048201600183016123e8565b5061235b8684612716565b506123aa565b8160005260206000206020601f8701048101601f8716801561238b5761238b8160001984016126db565b5061239e6020601f8801048301826123e8565b50506001856002021782555b5050505050565b600082198211156123c4576123c46126af565b500190565b60008160001904831182151516156123e3576123e36126af565b500290565b5b818110156103f257600081556001016123e9565b68010000000000000000831115612416576124166126c5565b8054838255808410156124da577f3fffffffffffffffffffffffffffffffffffffffffffffffffffffffffffffff6001818311811615612458576124586126af565b600482871182161561246c5761246c6126af565b600085815260208120909350878202810190828602015b808210156124d45784825561249a85858401612702565b6124a78560028401612702565b6003820180546124b68161264c565b80156124c8576124c88882848661230b565b50505090820190612483565b50505050505b50816124e5826122ff565b6000805b8681101561251b576125056124fe85886122ea565b8385612872565b60209390930192600492909201916001016124e9565b50505050505050565b67ffffffffffffffff83111561253c5761253c6126c5565b612546815461264c565b600080601f8611601f84118181171561256557612562866122ff565b92505b8015612594576020601f890104830160208910156125805750825b6125926020601f8801048501826123e8565b505b5080600181146125c0576000945087156125af578387013594505b6125b98886612681565b8655612612565b601f198816945082845b868110156125ea57888601358255602095860195600190920191016125ca565b508886101561260757878501356000196008601f8c16021c191681555b506001600289020186555b5050505050505050565b60005b8381101561263757818101518382015260200161261f565b83811115612646576000848401525b50505050565b60028104600182168061266057607f821691505b6020821081141561170857634e487b7160e01b600052602260045260246000fd5b600019600883021c191660029091021790565b60006000198214156126a8576126a86126af565b5060010190565b634e487b7160e01b600052601160045260246000fd5b634e487b7160e01b600052604160045260246000fd5b8054600019836020036008021c1681555050565b600081356126fc81612934565b92915050565b8054600019600884021b1981168255505050565b80600052602060002061272a838254612681565b9091556000905550565b6001600160a01b03821673ffffffffffffffffffffffffffffffffffffffff198254161781555050565b81356127698161291f565b6001600160a01b03811673ffffffffffffffffffffffffffffffffffffffff1983541617825550602082013561279e8161291f565b6127ab8160018401612734565b5060408201356127ba8161291f565b6127c78160028401612734565b50606082013560038201556127df60808301836122a5565b6127ed818360048601612524565b505060a0820135601e1983360301811261280657600080fd5b8201803567ffffffffffffffff81111561281f57600080fd5b6020918201918102360382131561283557600080fd5b6126468183600586016123fd565b805460ff60a81b191691151560a81b75ff00000000000000000000000000000000000000000016919091179055565b811561288e57634e487b7160e01b600052600060045260246000fd5b82356128998161291f565b6128a38183612734565b5060208301356128b281612934565b815460ff60a01b191690151560a01b74ff0000000000000000000000000000000000000000161781556128f06128ea604085016126ef565b82612843565b606083013560018201556080830135600282015561291160a08401846122a5565b6123aa818360038601612524565b6001600160a01b038116811461135c57600080fd5b801515811461135c57600080fdfea2646970667358221220572075db2f1154179214a88a6d207230b526e4363449e152cbc82214707af7c464736f6c63430008000033",
  "linkReferences": {},
  "deployedLinkReferences": {}
}