{
  "_format": "hh-sol-artifact-1",
  "contractName": "Solver",
  "sourceName": "contracts/Solver.sol",
  "abi": [
    {
      "inputs": [
        {
          "internalType": "uint8",
          "name": "_type",
          "type": "uint8"
        },
        {
          "internalType": "uint256",
          "name": "_key",
          "type": "uint256"
        },
        {
          "internalType": "bytes",
          "name": "_data",
          "type": "bytes"
        }
      ],
      "name": "addData",
      "outputs": [],
      "stateMutability": "nonpayable",
      "type": "function"
    },
    {
      "inputs": [
        {
          "internalType": "uint256",
          "name": "_index",
          "type": "uint256"
        }
      ],
      "name": "addressFromChainIndex",
      "outputs": [
        {
          "internalType": "address",
          "name": "_address",
          "type": "address"
        }
      ],
      "stateMutability": "view",
      "type": "function"
    },
    {
      "inputs": [
        {
          "internalType": "uint256[]",
          "name": "payouts",
          "type": "uint256[]"
        }
      ],
      "name": "arbitrate",
      "outputs": [],
      "stateMutability": "nonpayable",
      "type": "function"
    },
    {
      "inputs": [],
      "name": "arbitrateNull",
      "outputs": [],
      "stateMutability": "nonpayable",
      "type": "function"
    },
    {
      "inputs": [],
      "name": "arbitrationPending",
      "outputs": [],
      "stateMutability": "nonpayable",
      "type": "function"
    },
    {
      "inputs": [],
      "name": "arbitrationRequested",
      "outputs": [],
      "stateMutability": "nonpayable",
      "type": "function"
    },
    {
      "inputs": [],
      "name": "chainChild",
      "outputs": [
        {
          "internalType": "address",
          "name": "",
          "type": "address"
        }
      ],
      "stateMutability": "view",
      "type": "function"
    },
    {
      "inputs": [],
      "name": "chainIndex",
      "outputs": [
        {
          "internalType": "uint256",
          "name": "",
          "type": "uint256"
        }
      ],
      "stateMutability": "view",
      "type": "function"
    },
    {
      "inputs": [],
      "name": "chainParent",
      "outputs": [
        {
          "internalType": "address",
          "name": "",
          "type": "address"
        }
      ],
      "stateMutability": "view",
      "type": "function"
    },
    {
      "inputs": [],
      "name": "collateralToken",
      "outputs": [
        {
          "internalType": "contract IERC20",
          "name": "",
          "type": "address"
        }
      ],
      "stateMutability": "view",
      "type": "function"
    },
    {
      "inputs": [],
      "name": "conditionalTokens",
      "outputs": [
        {
          "internalType": "contract IConditionalTokens",
          "name": "",
          "type": "address"
        }
      ],
      "stateMutability": "view",
      "type": "function"
    },
    {
      "inputs": [
        {
          "internalType": "uint256",
          "name": "",
          "type": "uint256"
        }
      ],
      "name": "conditions",
      "outputs": [
        {
          "internalType": "contract IERC20",
          "name": "collateralToken",
          "type": "address"
        },
        {
          "internalType": "bytes32",
          "name": "questionId",
          "type": "bytes32"
        },
        {
          "internalType": "bytes32",
          "name": "parentCollectionId",
          "type": "bytes32"
        },
        {
          "internalType": "bytes32",
          "name": "conditionId",
          "type": "bytes32"
        },
        {
          "internalType": "enum SolverLib.Status",
          "name": "status",
          "type": "uint8"
        }
      ],
      "stateMutability": "view",
      "type": "function"
    },
    {
      "inputs": [],
      "name": "config",
      "outputs": [
        {
          "internalType": "contract Solver",
          "name": "implementation",
          "type": "address"
        },
        {
          "internalType": "address",
          "name": "keeper",
          "type": "address"
        },
        {
          "internalType": "address",
          "name": "arbitrator",
          "type": "address"
        },
        {
          "internalType": "uint256",
          "name": "timelockSeconds",
          "type": "uint256"
        },
        {
          "internalType": "bytes",
          "name": "data",
          "type": "bytes"
        },
        {
          "components": [
            {
              "internalType": "uint256",
              "name": "outcomeSlots",
              "type": "uint256"
            },
            {
              "internalType": "uint256",
              "name": "parentCollectionPartitionIndex",
              "type": "uint256"
            },
            {
              "internalType": "uint256",
              "name": "amount",
              "type": "uint256"
            },
            {
              "internalType": "uint256[]",
              "name": "partition",
              "type": "uint256[]"
            },
            {
              "internalType": "uint256[][]",
              "name": "recipientAddressPorts",
              "type": "uint256[][]"
            },
            {
              "internalType": "uint256[][]",
              "name": "recipientAmounts",
              "type": "uint256[][]"
            },
            {
              "internalType": "string",
              "name": "metadata",
              "type": "string"
            }
          ],
          "internalType": "struct SolverLib.ConditionBase",
          "name": "conditionBase",
          "type": "tuple"
        }
      ],
      "stateMutability": "view",
      "type": "function"
    },
    {
      "inputs": [],
      "name": "confirmPayouts",
      "outputs": [],
      "stateMutability": "nonpayable",
      "type": "function"
    },
    {
      "inputs": [
        {
          "components": [
            {
              "internalType": "contract Solver",
              "name": "implementation",
              "type": "address"
            },
            {
              "internalType": "address",
              "name": "keeper",
              "type": "address"
            },
            {
              "internalType": "address",
              "name": "arbitrator",
              "type": "address"
            },
            {
              "internalType": "uint256",
              "name": "timelockSeconds",
              "type": "uint256"
            },
            {
              "internalType": "bytes",
              "name": "data",
              "type": "bytes"
            },
            {
              "components": [
                {
                  "internalType": "uint256",
                  "name": "executions",
                  "type": "uint256"
                },
                {
                  "internalType": "bool",
                  "name": "isDeferred",
                  "type": "bool"
                },
                {
                  "internalType": "bool",
                  "name": "isConstant",
                  "type": "bool"
                },
                {
                  "internalType": "uint8",
                  "name": "port",
                  "type": "uint8"
                },
                {
                  "internalType": "uint256",
                  "name": "key",
                  "type": "uint256"
                },
                {
                  "internalType": "uint256",
                  "name": "solverIndex",
                  "type": "uint256"
                },
                {
                  "internalType": "bytes",
                  "name": "data",
                  "type": "bytes"
                }
              ],
              "internalType": "struct SolverLib.Ingest[]",
              "name": "ingests",
              "type": "tuple[]"
            },
            {
              "components": [
                {
                  "internalType": "bool",
                  "name": "executed",
                  "type": "bool"
                },
                {
                  "internalType": "bool",
                  "name": "isPort",
                  "type": "bool"
                },
                {
                  "internalType": "address",
                  "name": "to",
                  "type": "address"
                },
                {
                  "internalType": "uint256",
                  "name": "portIndex",
                  "type": "uint256"
                },
                {
                  "internalType": "uint256",
                  "name": "value",
                  "type": "uint256"
                },
                {
                  "internalType": "bytes",
                  "name": "data",
                  "type": "bytes"
                }
              ],
              "internalType": "struct SolverLib.Action[]",
              "name": "actions",
              "type": "tuple[]"
            },
            {
              "components": [
                {
                  "internalType": "uint256",
                  "name": "outcomeSlots",
                  "type": "uint256"
                },
                {
                  "internalType": "uint256",
                  "name": "parentCollectionPartitionIndex",
                  "type": "uint256"
                },
                {
                  "internalType": "uint256",
                  "name": "amount",
                  "type": "uint256"
                },
                {
                  "internalType": "uint256[]",
                  "name": "partition",
                  "type": "uint256[]"
                },
                {
                  "internalType": "uint256[][]",
                  "name": "recipientAddressPorts",
                  "type": "uint256[][]"
                },
                {
                  "internalType": "uint256[][]",
                  "name": "recipientAmounts",
                  "type": "uint256[][]"
                },
                {
                  "internalType": "string",
                  "name": "metadata",
                  "type": "string"
                }
              ],
              "internalType": "struct SolverLib.ConditionBase",
              "name": "conditionBase",
              "type": "tuple"
            }
          ],
          "internalType": "struct SolverLib.Config",
          "name": "_config",
          "type": "tuple"
        }
      ],
      "name": "deployChild",
      "outputs": [
        {
          "internalType": "contract Solver",
          "name": "_solver",
          "type": "address"
        }
      ],
      "stateMutability": "nonpayable",
      "type": "function"
    },
    {
      "inputs": [],
      "name": "executeSolve",
      "outputs": [],
      "stateMutability": "nonpayable",
      "type": "function"
    },
    {
      "inputs": [
        {
          "internalType": "uint256",
          "name": "_partitionIndex",
          "type": "uint256"
        }
      ],
      "name": "getCanonCollectionId",
      "outputs": [
        {
          "internalType": "bytes32",
          "name": "collectionId",
          "type": "bytes32"
        }
      ],
      "stateMutability": "view",
      "type": "function"
    },
    {
      "inputs": [],
      "name": "getConditions",
      "outputs": [
        {
          "components": [
            {
              "internalType": "contract IERC20",
              "name": "collateralToken",
              "type": "address"
            },
            {
              "internalType": "bytes32",
              "name": "questionId",
              "type": "bytes32"
            },
            {
              "internalType": "bytes32",
              "name": "parentCollectionId",
              "type": "bytes32"
            },
            {
              "internalType": "bytes32",
              "name": "conditionId",
              "type": "bytes32"
            },
            {
              "internalType": "uint256[]",
              "name": "payouts",
              "type": "uint256[]"
            },
            {
              "internalType": "enum SolverLib.Status",
              "name": "status",
              "type": "uint8"
            }
          ],
          "internalType": "struct SolverLib.Condition[]",
          "name": "",
          "type": "tuple[]"
        }
      ],
      "stateMutability": "view",
      "type": "function"
    },
    {
      "inputs": [
        {
          "internalType": "uint256",
          "name": "_key",
          "type": "uint256"
        }
      ],
      "name": "getOutput",
      "outputs": [
        {
          "internalType": "bytes",
          "name": "data",
          "type": "bytes"
        }
      ],
      "stateMutability": "view",
      "type": "function"
    },
    {
      "inputs": [
        {
          "internalType": "uint256",
          "name": "_index",
          "type": "uint256"
        }
      ],
      "name": "ingest",
      "outputs": [],
      "stateMutability": "nonpayable",
      "type": "function"
    },
    {
      "inputs": [],
      "name": "ingestsValid",
      "outputs": [
        {
          "internalType": "bool",
          "name": "",
          "type": "bool"
        }
      ],
      "stateMutability": "view",
      "type": "function"
    },
    {
      "inputs": [
        {
          "internalType": "contract IERC20",
          "name": "_collateralToken",
          "type": "address"
        },
        {
          "internalType": "address",
          "name": "_chainParent",
          "type": "address"
        },
        {
          "internalType": "uint256",
          "name": "_chainIndex",
          "type": "uint256"
        },
        {
          "components": [
            {
              "internalType": "contract Solver",
              "name": "implementation",
              "type": "address"
            },
            {
              "internalType": "address",
              "name": "keeper",
              "type": "address"
            },
            {
              "internalType": "address",
              "name": "arbitrator",
              "type": "address"
            },
            {
              "internalType": "uint256",
              "name": "timelockSeconds",
              "type": "uint256"
            },
            {
              "internalType": "bytes",
              "name": "data",
              "type": "bytes"
            },
            {
              "components": [
                {
                  "internalType": "uint256",
                  "name": "executions",
                  "type": "uint256"
                },
                {
                  "internalType": "bool",
                  "name": "isDeferred",
                  "type": "bool"
                },
                {
                  "internalType": "bool",
                  "name": "isConstant",
                  "type": "bool"
                },
                {
                  "internalType": "uint8",
                  "name": "port",
                  "type": "uint8"
                },
                {
                  "internalType": "uint256",
                  "name": "key",
                  "type": "uint256"
                },
                {
                  "internalType": "uint256",
                  "name": "solverIndex",
                  "type": "uint256"
                },
                {
                  "internalType": "bytes",
                  "name": "data",
                  "type": "bytes"
                }
              ],
              "internalType": "struct SolverLib.Ingest[]",
              "name": "ingests",
              "type": "tuple[]"
            },
            {
              "components": [
                {
                  "internalType": "bool",
                  "name": "executed",
                  "type": "bool"
                },
                {
                  "internalType": "bool",
                  "name": "isPort",
                  "type": "bool"
                },
                {
                  "internalType": "address",
                  "name": "to",
                  "type": "address"
                },
                {
                  "internalType": "uint256",
                  "name": "portIndex",
                  "type": "uint256"
                },
                {
                  "internalType": "uint256",
                  "name": "value",
                  "type": "uint256"
                },
                {
                  "internalType": "bytes",
                  "name": "data",
                  "type": "bytes"
                }
              ],
              "internalType": "struct SolverLib.Action[]",
              "name": "actions",
              "type": "tuple[]"
            },
            {
              "components": [
                {
                  "internalType": "uint256",
                  "name": "outcomeSlots",
                  "type": "uint256"
                },
                {
                  "internalType": "uint256",
                  "name": "parentCollectionPartitionIndex",
                  "type": "uint256"
                },
                {
                  "internalType": "uint256",
                  "name": "amount",
                  "type": "uint256"
                },
                {
                  "internalType": "uint256[]",
                  "name": "partition",
                  "type": "uint256[]"
                },
                {
                  "internalType": "uint256[][]",
                  "name": "recipientAddressPorts",
                  "type": "uint256[][]"
                },
                {
                  "internalType": "uint256[][]",
                  "name": "recipientAmounts",
                  "type": "uint256[][]"
                },
                {
                  "internalType": "string",
                  "name": "metadata",
                  "type": "string"
                }
              ],
              "internalType": "struct SolverLib.ConditionBase",
              "name": "conditionBase",
              "type": "tuple"
            }
          ],
          "internalType": "struct SolverLib.Config",
          "name": "_solverConfig",
          "type": "tuple"
        }
      ],
      "name": "init",
      "outputs": [],
      "stateMutability": "nonpayable",
      "type": "function"
    },
    {
      "inputs": [
        {
          "internalType": "address",
          "name": "operator",
          "type": "address"
        },
        {
          "internalType": "address",
          "name": "from",
          "type": "address"
        },
        {
          "internalType": "uint256[]",
          "name": "ids",
          "type": "uint256[]"
        },
        {
          "internalType": "uint256[]",
          "name": "values",
          "type": "uint256[]"
        },
        {
          "internalType": "bytes",
          "name": "data",
          "type": "bytes"
        }
      ],
      "name": "onERC1155BatchReceived",
      "outputs": [
        {
          "internalType": "bytes4",
          "name": "",
          "type": "bytes4"
        }
      ],
      "stateMutability": "nonpayable",
      "type": "function"
    },
    {
      "inputs": [
        {
          "internalType": "address",
          "name": "operator",
          "type": "address"
        },
        {
          "internalType": "address",
          "name": "from",
          "type": "address"
        },
        {
          "internalType": "uint256",
          "name": "id",
          "type": "uint256"
        },
        {
          "internalType": "uint256",
          "name": "value",
          "type": "uint256"
        },
        {
          "internalType": "bytes",
          "name": "data",
          "type": "bytes"
        }
      ],
      "name": "onERC1155Received",
      "outputs": [
        {
          "internalType": "bytes4",
          "name": "",
          "type": "bytes4"
        }
      ],
      "stateMutability": "nonpayable",
      "type": "function"
    },
    {
      "inputs": [],
      "name": "prepareSolve",
      "outputs": [],
      "stateMutability": "nonpayable",
      "type": "function"
    },
    {
      "inputs": [
        {
          "internalType": "uint256[]",
          "name": "_payouts",
          "type": "uint256[]"
        }
      ],
      "name": "proposePayouts",
      "outputs": [],
      "stateMutability": "nonpayable",
      "type": "function"
    },
    {
      "inputs": [
        {
          "internalType": "bytes32",
          "name": "_trackingId",
          "type": "bytes32"
        }
      ],
      "name": "setTrackingId",
      "outputs": [],
      "stateMutability": "nonpayable",
      "type": "function"
    },
    {
      "inputs": [
        {
          "internalType": "bytes4",
          "name": "interfaceId",
          "type": "bytes4"
        }
      ],
      "name": "supportsInterface",
      "outputs": [
        {
          "internalType": "bool",
          "name": "",
          "type": "bool"
        }
      ],
      "stateMutability": "view",
      "type": "function"
    },
    {
      "inputs": [],
      "name": "timelock",
      "outputs": [
        {
          "internalType": "uint256",
          "name": "",
          "type": "uint256"
        }
      ],
      "stateMutability": "view",
      "type": "function"
    },
    {
      "inputs": [],
      "name": "trackingId",
      "outputs": [
        {
          "internalType": "bytes32",
          "name": "",
          "type": "bytes32"
        }
      ],
      "stateMutability": "view",
      "type": "function"
    }
  ],
  "bytecode": "0x60a06040527f5fbdb2315678afecb367f032d93f642f64180aa300000000000000000000000060805234801561003457600080fd5b5060805160601c61489c61008460003960008181610b1601528181610ba401528181610e3e01528181610f7d015281816113de01528181611ac601528181611e54015261200f015261489c6000f3fe608060405234801561001057600080fd5b50600436106101da5760003560e01c806379502c5511610104578063b2016bd4116100a2578063e7fd205911610071578063e7fd2059146103a4578063ea8221a9146103b7578063f23a6e61146103bf578063ff1ed30c146103d2576101da565b8063b2016bd414610361578063ba9bfe6214610369578063bc197c811461037c578063d33219b41461039c576101da565b806384dbd391116100de57806384dbd3911461032b578063972a688b1461033e57806399992506146103465780639f1cf2681461034e576101da565b806379502c55146102f45780637c1236271461030e57806380c2dde214610323576101da565b80632c17b91e1161017c57806348d6bc001161014b57806348d6bc00146102d457806355dd978b146102dc5780635bd11123146102e45780635bd9e299146102ec576101da565b80632c17b91e1461028f5780633837b05e146102975780633a275fa2146102b757806348cbb2fc146102bf576101da565b806317861f87116101b857806317861f871461023057806318f792781461025057806326c50007146102585780632b3634271461027c576101da565b806301ffc9a7146101df5780630d06101a146102085780630d49722d1461021d575b600080fd5b6101f26101ed3660046129bb565b6103e5565b6040516101ff91906133c5565b60405180910390f35b61021b61021636600461298b565b61042b565b005b61021b61022b36600461289f565b610459565b61024361023e36600461298b565b6105d9565b6040516101ff919061341d565b61021b6106c2565b61026b61026636600461298b565b6107ef565b6040516101ff9594939291906135c1565b61021b61028a366004612bb2565b61083d565b61021b610879565b6102aa6102a536600461298b565b6108e9565b6040516101ff919061321a565b61021b6109a6565b6102c7610cc4565b6040516101ff91906133d0565b61021b610cca565b6102aa610eac565b61021b610ebb565b6102aa610f7b565b6102fc610f9f565b6040516101ff969594939291906135f4565b61031661129c565b6040516101ff9190613247565b6102aa6113cb565b6102c761033936600461298b565b6113da565b61021b611533565b6101f26115f3565b6102aa61035c366004612b7f565b6116a0565b6102aa6117ab565b61021b61037736600461298b565b6117ba565b61038f61038a36600461276a565b611941565b6040516101ff9190613408565b6102c761196e565b61021b6103b23660046128df565b611974565b6102c7611b7c565b61038f6103cd366004612825565b611b82565b61021b6103e0366004612a56565b611bae565b60006001600160e01b031982167f4e2312e0000000000000000000000000000000000000000000000000000000001480610423575061042382611c71565b90505b919050565b601554156104545760405162461bcd60e51b815260040161044b90613a33565b60405180910390fd5b601555565b6002546001600160a01b031633146104835760405162461bcd60e51b815260040161044b906137d6565b6001600f805461049590600190613e71565b815481106104b357634e487b7160e01b600052603260045260246000fd5b600091825260209091206006918202016005015460ff16908111156104e857634e487b7160e01b600052602160045260246000fd5b146105055760405162461bcd60e51b815260040161044b906139fc565b600f80546002919061051990600190613e71565b8154811061053757634e487b7160e01b600052603260045260246000fd5b906000526020600020906006020160050160006101000a81548160ff0219169083600681111561057757634e487b7160e01b600052602160045260246000fd5b0217905550600f80548391839161059090600190613e71565b815481106105ae57634e487b7160e01b600052603260045260246000fd5b906000526020600020906006020160040191906105cc9291906124d5565b506105d5611ca3565b5050565b60008181526017602052604090205460609060ff16806106085750600f54600083815260186020526040902054145b6106245760405162461bcd60e51b815260040161044b90613aa1565b6000828152601660205260409020805461063d906142b7565b80601f0160208091040260200160405190810160405280929190818152602001828054610669906142b7565b80156106b65780601f1061068b576101008083540402835291602001916106b6565b820191906000526020600020905b81548152906001019060200180831161069957829003601f168201915b50505050509050919050565b6003546001600160a01b031633146106ec5760405162461bcd60e51b815260040161044b906138b2565b6002600f80546106fe90600190613e71565b8154811061071c57634e487b7160e01b600052603260045260246000fd5b600091825260209091206006918202016005015460ff169081111561075157634e487b7160e01b600052602160045260246000fd5b1461076e5760405162461bcd60e51b815260040161044b90613957565b600f80546003919061078290600190613e71565b815481106107a057634e487b7160e01b600052603260045260246000fd5b906000526020600020906006020160050160006101000a81548160ff021916908360068111156107e057634e487b7160e01b600052602160045260246000fd5b02179055506107ed611ca3565b565b600f81815481106107ff57600080fd5b6000918252602090912060069091020180546001820154600283015460038401546005909401546001600160a01b0390931694509092909160ff1685565b6002546001600160a01b031633146108675760405162461bcd60e51b815260040161044b906136fa565b6108748383600084611cc0565b505050565b610881611df2565b60005b6006548110156108e65760068054829081106108b057634e487b7160e01b600052603260045260246000fd5b600091825260209091206001600590920201015460ff166108d4576108d4816117ba565b806108de816142ff565b915050610884565b50565b6011546012546013546040517f9fa61fa300000000000000000000000000000000000000000000000000000000815260009373__$94d7d2f22770e4b0d1a2b99fb2812308e2$__93639fa61fa39361095693889330936001600160a01b0391821693911691600401613c29565b60206040518083038186803b15801561096e57600080fd5b505af4158015610982573d6000803e3d6000fd5b505050506040513d601f19601f82011682018060405250810190610423919061274e565b6000600f80546109b890600190613e71565b815481106109d657634e487b7160e01b600052603260045260246000fd5b600091825260209091206006918202016005015460ff1690811115610a0b57634e487b7160e01b600052602160045260246000fd5b14610a285760405162461bcd60e51b815260040161044b90613ad8565b610a306115f3565b610a4c5760405162461bcd60e51b815260040161044b90613844565b600f805460019190610a5f908390613e71565b81548110610a7d57634e487b7160e01b600052603260045260246000fd5b906000526020600020906006020160050160006101000a81548160ff02191690836006811115610abd57634e487b7160e01b600052602160045260246000fd5b02179055506011546001600160a01b0316610b9357601054600a546040517f095ea7b30000000000000000000000000000000000000000000000000000000081526001600160a01b039092169163095ea7b391610b3f917f0000000000000000000000000000000000000000000000000000000000000000919060040161322e565b602060405180830381600087803b158015610b5957600080fd5b505af1158015610b6d573d6000803e3d6000fd5b505050506040513d601f19601f82011682018060405250810190610b91919061296f565b505b601054600f80546001600160a01b037f00000000000000000000000000000000000000000000000000000000000000008116936372ce427593911691610bdb90600190613e71565b81548110610bf957634e487b7160e01b600052603260045260246000fd5b906000526020600020906006020160020154600f6001600f80549050610c1f9190613e71565b81548110610c3d57634e487b7160e01b600052603260045260246000fd5b6000918252602090912060036006909202010154600a546040516001600160e01b031960e087901b168152610c7a94939291600b91600401613551565b600060405180830381600087803b158015610c9457600080fd5b505af1158015610ca8573d6000803e3d6000fd5b50505050610cb4611f88565b610cbc61203f565b6107ed612068565b60155481565b6014544211610ceb5760405162461bcd60e51b815260040161044b9061380d565b6002600f8054610cfd90600190613e71565b81548110610d1b57634e487b7160e01b600052603260045260246000fd5b600091825260209091206006918202016005015460ff1690811115610d5057634e487b7160e01b600052602160045260246000fd5b14610d6d5760405162461bcd60e51b815260040161044b90613920565b600f805460069190610d8190600190613e71565b81548110610d9f57634e487b7160e01b600052603260045260246000fd5b906000526020600020906006020160050160006101000a81548160ff02191690836006811115610ddf57634e487b7160e01b600052602160045260246000fd5b0217905550600f805473__$94d7d2f22770e4b0d1a2b99fb2812308e2$__9163dffa696f91610e1090600190613e71565b81548110610e2e57634e487b7160e01b600052603260045260246000fd5b90600052602060002090600602017f00000000000000000000000000000000000000000000000000000000000000006040518363ffffffff1660e01b8152600401610e7a929190613b8b565b60006040518083038186803b158015610e9257600080fd5b505af4158015610ea6573d6000803e3d6000fd5b50505050565b6012546001600160a01b031681565b6003546001600160a01b03163314610ee55760405162461bcd60e51b815260040161044b906138b2565b6003600f8054610ef790600190613e71565b81548110610f1557634e487b7160e01b600052603260045260246000fd5b600091825260209091206006918202016005015460ff1690811115610f4a57634e487b7160e01b600052602160045260246000fd5b14610f675760405162461bcd60e51b815260040161044b9061387b565b600f80546004919061078290600190613e71565b7f000000000000000000000000000000000000000000000000000000000000000081565b60018054600254600354600454600580546001600160a01b039586169694861695909316939192610fcf906142b7565b80601f0160208091040260200160405190810160405280929190818152602001828054610ffb906142b7565b80156110485780601f1061101d57610100808354040283529160200191611048565b820191906000526020600020905b81548152906001019060200180831161102b57829003601f168201915b505050505090806007016040518060e0016040529081600082015481526020016001820154815260200160028201548152602001600382018054806020026020016040519081016040528092919081815260200182805480156110ca57602002820191906000526020600020905b8154815260200190600101908083116110b6575b5050505050815260200160048201805480602002602001604051908101604052809291908181526020016000905b828210156111645760008481526020908190208301805460408051828502810185019091528181529283018282801561115057602002820191906000526020600020905b81548152602001906001019080831161113c575b5050505050815260200190600101906110f8565b50505050815260200160058201805480602002602001604051908101604052809291908181526020016000905b828210156111fd576000848152602090819020830180546040805182850281018501909152818152928301828280156111e957602002820191906000526020600020905b8154815260200190600101908083116111d5575b505050505081526020019060010190611191565b505050508152602001600682018054611215906142b7565b80601f0160208091040260200160405190810160405280929190818152602001828054611241906142b7565b801561128e5780601f106112635761010080835404028352916020019161128e565b820191906000526020600020905b81548152906001019060200180831161127157829003601f168201915b505050505081525050905086565b6060600f805480602002602001604051908101604052809291908181526020016000905b828210156113c25760008481526020908190206040805160c0810182526006860290920180546001600160a01b03168352600181015483850152600281015483830152600381015460608401526004810180548351818702810187019094528084529394919360808601939283018282801561135b57602002820191906000526020600020905b815481526020019060010190808311611347575b5050509183525050600582015460209091019060ff16600681111561139057634e487b7160e01b600052602160045260246000fd5b60068111156113af57634e487b7160e01b600052602160045260246000fd5b81525050815260200190600101906112c0565b50505050905090565b6011546001600160a01b031681565b60007f00000000000000000000000000000000000000000000000000000000000000006001600160a01b031663856296f7600f6001600f8054905061141f9190613e71565b8154811061143d57634e487b7160e01b600052603260045260246000fd5b906000526020600020906006020160020154600f6001600f805490506114639190613e71565b8154811061148157634e487b7160e01b600052603260045260246000fd5b906000526020600020906006020160030154600160070160030186815481106114ba57634e487b7160e01b600052603260045260246000fd5b90600052602060002001546040518463ffffffff1660e01b81526004016114e3939291906133f2565b60206040518083038186803b1580156114fb57600080fd5b505afa15801561150f573d6000803e3d6000fd5b505050506040513d601f19601f8201168201806040525081019061042391906129a3565b6003546001600160a01b0316331461155d5760405162461bcd60e51b815260040161044b906138b2565b6004600f805461156f90600190613e71565b8154811061158d57634e487b7160e01b600052603260045260246000fd5b600091825260209091206006918202016005015460ff16908111156115c257634e487b7160e01b600052602160045260246000fd5b146115df5760405162461bcd60e51b815260040161044b906139c5565b600f80546002919061078290600190613e71565b600f546040517f5cc1f6b500000000000000000000000000000000000000000000000000000000815260009173__$94d7d2f22770e4b0d1a2b99fb2812308e2$__91635cc1f6b59161164b91600691906004016132f9565b60206040518083038186803b15801561166357600080fd5b505af4158015611677573d6000803e3d6000fd5b505050506040513d601f19601f8201168201806040525081019061169b919061296f565b905090565b6012546000906001600160a01b0316156116cc5760405162461bcd60e51b815260040161044b90613731565b60105460135473e7f1725e7734ce288f8367e1bb143e90bb3f0512916340e260d3916001600160a01b03909116903090611707906001613e3a565b866040518563ffffffff1660e01b81526004016117279493929190613430565b602060405180830381600087803b15801561174157600080fd5b505af1158015611755573d6000803e3d6000fd5b505050506040513d601f19601f82011682018060405250810190611779919061274e565b6012805473ffffffffffffffffffffffffffffffffffffffff19166001600160a01b0392831617908190551692915050565b6010546001600160a01b031681565b600073__$94d7d2f22770e4b0d1a2b99fb2812308e2$__63f060d0b6600160050184815481106117fa57634e487b7160e01b600052603260045260246000fd5b9060005260206000209060050201306040518363ffffffff1660e01b8152600401611826929190613c12565b60006040518083038186803b15801561183e57600080fd5b505af4158015611852573d6000803e3d6000fd5b505050506040513d6000823e601f3d908101601f1916820160405261187a91908101906129e3565b90506105d5600160050183815481106118a357634e487b7160e01b600052603260045260246000fd5b906000526020600020906005020160010160029054906101000a900460ff16600160050184815481106118e657634e487b7160e01b600052603260045260246000fd5b9060005260206000209060050201600201546001600501858154811061191c57634e487b7160e01b600052603260045260246000fd5b906000526020600020906005020160010160019054906101000a900460ff1684611cc0565b7fbc197c810000000000000000000000000000000000000000000000000000000098975050505050505050565b60145481565b6003546001600160a01b0316331461199e5760405162461bcd60e51b815260040161044b906138b2565b6004600f80546119b090600190613e71565b815481106119ce57634e487b7160e01b600052603260045260246000fd5b600091825260209091206006918202016005015460ff1690811115611a0357634e487b7160e01b600052602160045260246000fd5b14611a205760405162461bcd60e51b815260040161044b906139c5565b6014544211611a415760405162461bcd60e51b815260040161044b9061380d565b600f805460059190611a5590600190613e71565b81548110611a7357634e487b7160e01b600052603260045260246000fd5b906000526020600020906006020160050160006101000a81548160ff02191690836006811115611ab357634e487b7160e01b600052602160045260246000fd5b0217905550600f80546001600160a01b037f0000000000000000000000000000000000000000000000000000000000000000169163c49298ac91611af990600190613e71565b81548110611b1757634e487b7160e01b600052603260045260246000fd5b906000526020600020906006020160010154836040518363ffffffff1660e01b8152600401611b479291906133d9565b600060405180830381600087803b158015611b6157600080fd5b505af1158015611b75573d6000803e3d6000fd5b5050505050565b60135481565b7ff23a6e61000000000000000000000000000000000000000000000000000000005b9695505050505050565b3373e7f1725e7734ce288f8367e1bb143e90bb3f051214611be15760405162461bcd60e51b815260040161044b90613768565b6000611bf3604083016020840161272b565b6001600160a01b03161415611c1a5760405162461bcd60e51b815260040161044b906138e9565b601080546001600160a01b0380871673ffffffffffffffffffffffffffffffffffffffff199283161790925560118054928616929091169190911790556013829055806001611c6982826145c5565b505050505050565b6001600160e01b031981167f01ffc9a70000000000000000000000000000000000000000000000000000000014919050565b600454611cb1906001613e52565b611cbb9042613e3a565b601455565b60008381526017602052604090205460ff1615611cef5760405162461bcd60e51b815260040161044b906136c3565b8115611d13576000838152601760205260409020805460ff19166001179055611d6e565b600f54611d2290600190613e71565b60008481526018602052604090205414611d4e5760405162461bcd60e51b815260040161044b9061398e565b6000838152601860205260408120805491611d68836142ff565b91905055505b60008381526016602090815260409091208251611d8d92840190612520565b508360ff166004811115611db157634e487b7160e01b600052602160045260246000fd5b6000848152601960205260409020805460ff19166001836004811115611de757634e487b7160e01b600052602160045260246000fd5b021790555050505050565b601154600f80546040517f3ed7c717000000000000000000000000000000000000000000000000000000008152919273__$94d7d2f22770e4b0d1a2b99fb2812308e2$__92633ed7c71792611e7c926008926001600160a01b039091169130917f000000000000000000000000000000000000000000000000000000000000000090600401613b46565b60006040518083038186803b158015611e9457600080fd5b505af4158015611ea8573d6000803e3d6000fd5b505050506040513d6000823e601f3d908101601f19168201604052611ed09190810190612ac0565b81546001808201845560009384526020938490208351600690930201805473ffffffffffffffffffffffffffffffffffffffff19166001600160a01b03909316929092178255828401519082015560408201516002820155606082015160038201556080820151805192939192611f4d9260048501920190612594565b5060a082015160058201805460ff19166001836006811115611f7f57634e487b7160e01b600052602160045260246000fd5b02179055505050565b600f805473__$94d7d2f22770e4b0d1a2b99fb2812308e2$__916365697f7a91611fb490600190613e71565b81548110611fd257634e487b7160e01b600052603260045260246000fd5b600091825260209091206010546015546040516001600160e01b031960e087901b168152610e7a94600602909301926001600160a01b03909216917f0000000000000000000000000000000000000000000000000000000000000000916008913091601691600401613bb6565b60005b6007548110156108e6576120558161216c565b5080612060816142ff565b915050612042565b6012546001600160a01b0316158015906121035750601260009054906101000a90046001600160a01b03166001600160a01b031663999925066040518163ffffffff1660e01b815260040160206040518083038186803b1580156120cb57600080fd5b505afa1580156120df573d6000803e3d6000fd5b505050506040513d601f19601f82011682018060405250810190612103919061296f565b156107ed57601260009054906101000a90046001600160a01b03166001600160a01b0316633a275fa26040518163ffffffff1660e01b8152600401600060405180830381600087803b15801561215857600080fd5b505af1158015610ea6573d6000803e3d6000fd5b60606001600601828154811061219257634e487b7160e01b600052603260045260246000fd5b600091825260209091206004909102015460ff16156121c35760405162461bcd60e51b815260040161044b90613a6a565b60078054839081106121e557634e487b7160e01b600052603260045260246000fd5b9060005260206000209060040201600201544710156122165760405162461bcd60e51b815260040161044b9061379f565b600180600601838154811061223b57634e487b7160e01b600052603260045260246000fd5b60009182526020822060049190910201805460ff191692151592909217909155600780548490811061227d57634e487b7160e01b600052603260045260246000fd5b60009182526020918290206040805160c081018252600493909302909101805460ff80821615158552610100820416151594840194909452620100009093046001600160a01b031690820152600182015460608201526002820154608082015260038201805491929160a0840191906122f5906142b7565b80601f0160208091040260200160405190810160405280929190818152602001828054612321906142b7565b801561236e5780601f106123435761010080835404028352916020019161236e565b820191906000526020600020905b81548152906001019060200180831161235157829003601f168201915b5050505050815250509050806020015115612441576060810151600090815260166020526040902080546123a1906142b7565b80601f01602080910402602001604051908101604052809291908181526020018280546123cd906142b7565b801561241a5780601f106123ef5761010080835404028352916020019161241a565b820191906000526020600020905b8154815290600101906020018083116123fd57829003601f168201915b5050505050806020019051810190612432919061274e565b6001600160a01b031660408201525b60008082604001516001600160a01b031683608001518460a0015160405161246991906131fe565b60006040518083038185875af1925050503d80600081146124a6576040519150601f19603f3d011682016040523d82523d6000602084013e6124ab565b606091505b5091509150816124cd5760405162461bcd60e51b815260040161044b90613b0f565b949350505050565b828054828255906000526020600020908101928215612510579160200282015b828111156125105782358255916020019190600101906124f5565b5061251c9291506125ce565b5090565b82805461252c906142b7565b90600052602060002090601f01602090048101928261254e5760008555612510565b82601f1061256757805160ff1916838001178555612510565b82800160010185558215612510579182015b82811115612510578251825591602001919060010190612579565b8280548282559060005260206000209081019282156125105791602002820182811115612510578251825591602001919060010190612579565b5b8082111561251c57600081556001016125cf565b803561042681614834565b60008083601f8401126125ff578182fd5b50813567ffffffffffffffff811115612616578182fd5b602083019150836020808302850101111561263057600080fd5b9250929050565b600082601f830112612647578081fd5b8151602061265c61265783613d37565b613d0d565b8281528181019085830183850287018401881015612678578586fd5b855b858110156126965781518452928401929084019060010161267a565b5090979650505050505050565b803561042681614849565b60008083601f8401126126bf578182fd5b50813567ffffffffffffffff8111156126d6578182fd5b60208301915083602082850101111561263057600080fd5b805161042681614834565b80516007811061042657600080fd5b6000610100828403121561271a578081fd5b50919050565b803561042681614857565b60006020828403121561273c578081fd5b813561274781614834565b9392505050565b60006020828403121561275f578081fd5b815161274781614834565b60008060008060008060008060a0898b031215612785578384fd5b883561279081614834565b975060208901356127a081614834565b9650604089013567ffffffffffffffff808211156127bc578586fd5b6127c88c838d016125ee565b909850965060608b01359150808211156127e0578586fd5b6127ec8c838d016125ee565b909650945060808b0135915080821115612804578384fd5b506128118b828c016126ae565b999c989b5096995094979396929594505050565b60008060008060008060a0878903121561283d578384fd5b863561284881614834565b9550602087013561285881614834565b94506040870135935060608701359250608087013567ffffffffffffffff811115612881578283fd5b61288d89828a016126ae565b979a9699509497509295939492505050565b600080602083850312156128b1578182fd5b823567ffffffffffffffff8111156128c7578283fd5b6128d3858286016125ee565b90969095509350505050565b600060208083850312156128f1578182fd5b823567ffffffffffffffff811115612907578283fd5b8301601f81018513612917578283fd5b803561292561265782613d37565b8181528381019083850185840285018601891015612941578687fd5b8694505b83851015612963578035835260019490940193918501918501612945565b50979650505050505050565b600060208284031215612980578081fd5b815161274781614849565b60006020828403121561299c578081fd5b5035919050565b6000602082840312156129b4578081fd5b5051919050565b6000602082840312156129cc578081fd5b81356001600160e01b031981168114612747578182fd5b6000602082840312156129f4578081fd5b815167ffffffffffffffff811115612a0a578182fd5b8201601f81018413612a1a578182fd5b8051612a2861265782613d5b565b818152856020838501011115612a3c578384fd5b612a4d82602083016020860161428b565b95945050505050565b60008060008060808587031215612a6b578182fd5b8435612a7681614834565b93506020850135612a8681614834565b925060408501359150606085013567ffffffffffffffff811115612aa8578182fd5b612ab487828801612708565b91505092959194509250565b600060208284031215612ad1578081fd5b815167ffffffffffffffff80821115612ae8578283fd5b9083019060c08286031215612afb578283fd5b60405160c081018181108382111715612b1657612b16614346565b604052612b22836126ee565b8152602083015160208201526040830151604082015260608301516060820152608083015182811115612b53578485fd5b612b5f87828601612637565b608083015250612b7160a084016126f9565b60a082015295945050505050565b600060208284031215612b90578081fd5b813567ffffffffffffffff811115612ba6578182fd5b6124cd84828501612708565b600080600060608486031215612bc6578081fd5b8335612bd181614857565b925060208401359150604084013567ffffffffffffffff811115612bf3578182fd5b8401601f81018613612c03578182fd5b8035612c1161265782613d5b565b818152876020838501011115612c25578384fd5b8160208401602083013783602083830101528093505050509250925092565b6001600160a01b03169052565b818352602080840193600091908185020181018584845b87811015612c9e578284038952612c7f8288613d8f565b612c8a868284612ecd565b9a87019a9550505090840190600101612c68565b5091979650505050505050565b6000815180845260208085018081965082840281019150828601855b85811015612c9e578284038952612cdf848351612f1a565b98850198935090840190600101612cc7565b6000815480845260208085018081965082840281019150858552828520855b85811015612c9e578284038952612d278483612f54565b98850198935060019182019101612d10565b818352602080840193600091908185020181018584845b87811015612c9e578284038952813560be19883603018112612d70578687fd5b870160c08135612d7f81614849565b1515865281870135612d9081614849565b1515868801526040612da38382016125e3565b612daf82890182612c44565b5050606082810135908701526080808301359087015260a0612dd381840184613dd7565b93508282890152612de78389018583612f8c565b9c89019c97505050928601925050600101612d50565b818352602080840193600091908185020181018584845b87811015612c9e578284038952612e2b8288613e1c565b60e08135865286820135612e3e81614849565b612e4a88880182612f86565b506040612e588184016126a3565b612e6482890182612f86565b50506060612e73818401612720565b612e7f828901826131f7565b50506080828101359087015260a0808301359087015260c0612ea381840184613dd7565b93508282890152612eb78389018583612f8c565b9c89019c97505050928601925050600101612e14565b60008284527f07ffffffffffffffffffffffffffffffffffffffffffffffffffffffffffffff831115612efe578081fd5b6020830280836020870137939093016020019283525090919050565b6000815180845260208085019450808401835b83811015612f4957815187529582019590820190600101612f2d565b509495945050505050565b6000815480845260208085019450838352808320835b83811015612f4957815487529582019560019182019101612f6a565b15159052565b60008284528282602086013780602084860101526020601f19601f85011685010190509392505050565b60008151808452612fce81602086016020860161428b565b601f01601f19169290920160200192915050565b60008154612fef816142b7565b80855260206001838116801561300c57600181146130205761304e565b60ff1985168884015260408801955061304e565b866000528260002060005b858110156130465781548a820186015290830190840161302b565b890184019650505b505050505092915050565b6007811061307757634e487b7160e01b600052602160045260246000fd5b9052565b60008135835260208201356020840152604082013560408401526130a26060830183613d8f565b60e060608601526130b760e086018284612ecd565b9150506130c76080840184613d8f565b85830360808701526130da838284612c51565b925050506130eb60a0840184613d8f565b85830360a08701526130fe838284612c51565b9250505061310f60c0840184613dd7565b85830360c0870152611ba4838284612f8c565b600081548352600182015460208401526002820154604084015260e0606084015261315360e0840160038401612f54565b83810360808501526131688160048501612cf1565b905083810360a085015261317f8160058501612cf1565b905083810360c08501526124cd8160068501612fe2565b60006001600160a01b03825416835260018201546020840152600282015460408401526003820154606084015260c060808401526131da60c0840160048401612f54565b60ff6005840154166131ef60a0860182613059565b509392505050565b60ff169052565b6000825161321081846020870161428b565b9190910192915050565b6001600160a01b0391909116815260200190565b6001600160a01b03929092168252602082015260400190565b60208082528251828201819052600091906040908185019080840286018301878501865b838110156132eb57603f19898403018552815160c06001600160a01b03825116855288820151898601528782015188860152606080830151818701525060808083015182828801526132bf83880182612f1a565b9250505060a08083015192506132d781870184613059565b50958801959350509086019060010161326b565b509098975050505050505050565b60006040808301818452808654808352606092508286019150602083818302880101898752818720875b848110156133b257605f198a840301865260e082548452600183015460ff61334f878701828416612f86565b6133608b8701828460081c16612f86565b6133718a8701828460101c166131f7565b505060028301546080850152600383015460a08501528060c085015261339c81850160048501612fe2565b9685019693505060059190910190600101613323565b5050960196909652509295945050505050565b901515815260200190565b90815260200190565b6000838252604060208301526124cd6040830184612f1a565b9283526020830191909152604082015260600190565b6001600160e01b031991909116815260200190565b6000602082526127476020830184612fb6565b60006001600160a01b0380871683528086166020840152508360408301526080606083015261346a60808301613465856125e3565b612c44565b613476602084016125e3565b61348360a0840182612c44565b50613490604084016125e3565b61349d60c0840182612c44565b50606083013560e08301526134b56080840184613dd7565b610100848101526134cb61018085018284612f8c565b9150506134db60a0850185613d8f565b607f1980868503016101208701526134f4848385612dfd565b935061350360c0880188613d8f565b93509150808685030161014087015261351d848484612d39565b935061352c60e0880188613e1c565b925080868503016101608701525050613545828261307b565b98975050505050505050565b600060a082016001600160a01b03881683526020878185015286604085015260a0606085015281865480845260c0860191508785528285209350845b818110156135a95784548352600194850194928401920161358d565b50508093505050508260808301529695505050505050565b600060a0820190506001600160a01b0387168252856020830152846040830152836060830152611ba46080830184613059565b60006001600160a01b038089168352808816602084015280871660408401525084606083015260c0608083015261362e60c0830185612fb6565b82810360a0840152835181526020840151602082015260408401516040820152606084015160e0606083015261366760e0830182612f1a565b9050608085015182820360808401526136808282612cab565b91505060a085015182820360a084015261369a8282612cab565b91505060c085015182820360c08401526136b48282612fb6565b9b9a5050505050505050505050565b6020808252600b908201527f506f7274206c6f636b6564000000000000000000000000000000000000000000604082015260600190565b6020808252600a908201527f4f6e6c794b656570657200000000000000000000000000000000000000000000604082015260600190565b60208082526010908201527f536f6c76657220686173206368696c6400000000000000000000000000000000604082015260600190565b6020808252600c908201527f4f6e6c7920666163746f72790000000000000000000000000000000000000000604082015260600190565b60208082526010908201527f696e73756666696369656e742065746800000000000000000000000000000000604082015260600190565b6020808252600b908201527f4f6e6c79204b6565706572000000000000000000000000000000000000000000604082015260600190565b60208082526015908201527f54696d656c6f636b207374696c6c206c6f636b65640000000000000000000000604082015260600190565b6020808252600f908201527f696e676573747320696e76616c69640000000000000000000000000000000000604082015260600190565b60208082526018908201527f4e6f74204172626974726174696f6e5265717565737465640000000000000000604082015260600190565b6020808252600f908201527f4f6e6c792061726269747261746f720000000000000000000000000000000000604082015260600190565b6020808252600e908201527f4b656570657220696e76616c6964000000000000000000000000000000000000604082015260600190565b60208082526014908201527f4f7574636f6d65206e6f742070726f706f736564000000000000000000000000604082015260600190565b60208082526013908201527f4e6f74204f7574636f6d6550726f706f73656400000000000000000000000000604082015260600190565b60208082526014908201527f506f72742076657273696f6e20696e76616c6964000000000000000000000000604082015260600190565b60208082526016908201527f4e6f74204172626974726174696f6e50656e64696e6700000000000000000000604082015260600190565b60208082526012908201527f436f6e646974696f6e2045786563757465640000000000000000000000000000604082015260600190565b6020808252600e908201527f547261636b696e67496420736574000000000000000000000000000000000000604082015260600190565b6020808252600f908201527f616374696f6e2065786563757465640000000000000000000000000000000000604082015260600190565b6020808252600d908201527f506f727420696e76616c69642e00000000000000000000000000000000000000604082015260600190565b6020808252600d908201527f6e6f7420496e6974696174656400000000000000000000000000000000000000604082015260600190565b6020808252600c908201527f63616c6c206661696c7572650000000000000000000000000000000000000000604082015260600190565b600060a08252613b5960a0830188613122565b6001600160a01b0396871660208401529486166040830152506060810192909252909216608090920191909152919050565b600060408252613b9e6040830185613196565b90506001600160a01b03831660208301529392505050565b600060e08252613bc960e083018a613196565b6001600160a01b03808a16602085015280891660408501528382036060850152613bf38289613122565b96166080840152505060a081019290925260c090910152949350505050565b9182526001600160a01b0316602082015260400190565b9485526001600160a01b03938416602086015291831660408501529091166060830152608082015260a00190565b6000808335601e19843603018112613c6d578283fd5b83018035915067ffffffffffffffff821115613c87578283fd5b602090810192508102360382131561263057600080fd5b6000808335601e19843603018112613cb4578283fd5b83018035915067ffffffffffffffff821115613cce578283fd5b60200191503681900382131561263057600080fd5b6000823560be19833603018112613210578182fd5b6000823560de19833603018112613210578182fd5b60405181810167ffffffffffffffff81118282101715613d2f57613d2f614346565b604052919050565b600067ffffffffffffffff821115613d5157613d51614346565b5060209081020190565b600067ffffffffffffffff821115613d7557613d75614346565b50601f01601f191660200190565b60009081526020902090565b6000808335601e19843603018112613da5578283fd5b830160208101925035905067ffffffffffffffff811115613dc557600080fd5b60208102360383131561263057600080fd5b6000808335601e19843603018112613ded578283fd5b830160208101925035905067ffffffffffffffff811115613e0d57600080fd5b80360383131561263057600080fd5b6000823560de19833603018112613e31578182fd5b90910192915050565b60008219821115613e4d57613e4d614330565b500190565b6000816000190483118215151615613e6c57613e6c614330565b500290565b600082821015613e8357613e83614330565b500390565b5b818110156105d55760008155600101613e89565b68010000000000000000831115613eb657613eb6614346565b805483825580841015613ef4576000828152602081208581019083015b80821015613ef057613ee5838361436f565b600182019150613ed3565b5050505b5081613eff82613d83565b6000805b86811015613f3657613f158487613c57565b613f21818386886146a2565b50506020939093019260019283019201613f03565b50505050505050565b68010000000000000000831115613f5857613f58614346565b805483825580841015614007577f3fffffffffffffffffffffffffffffffffffffffffffffffffffffffffffffff6001818311811615613f9a57613f9a614330565b6004828711821615613fae57613fae614330565b600085815260208120909350878202810190828602015b8082101561400157848255613fdd8586868501614815565b613feb858660028501614815565b613ff885600384016143ac565b90820190613fc5565b50505050505b508161401282613d83565b6000805b86811015613f365761403261402b8588613ce3565b83856146bb565b6020939093019260049290920191600101614016565b6801000000000000000083111561406157614061614346565b80548382558084101561411e577f333333333333333333333333333333333333333333333333333333333333333360018183118116156140a3576140a3614330565b60058287118216156140b7576140b7614330565b600085815260208120909350878202810190828602015b80821015614118576140e1858684614815565b84848301556140f4858660028501614815565b614102858660038501614815565b61410f85600484016143ac565b908201906140ce565b50505050505b508161412982613d83565b6000805b86811015613f36576141496141428588613cf8565b838561477a565b602093909301926005929092019160010161412d565b614169838261436f565b818160005260208060002060005b86811015613f3657833582559282019260019182019101614177565b67ffffffffffffffff8311156141ab576141ab614346565b6141b581546142b7565b600080601f8611601f8411818117156141d4576141d186613d83565b92505b8015614203576020601f890104830160208910156141ef5750825b6142016020601f880104850182613e88565b505b50806001811461422f5760009450871561421e578387013594505b61422888866142ec565b8655614281565b601f198816945082845b868110156142595788860135825560209586019560019092019101614239565b508886101561427657878501356000196008601f8c16021c191681555b506001600289020186555b5050505050505050565b60005b838110156142a657818101518382015260200161428e565b83811115610ea65750506000910152565b6002810460018216806142cb57607f821691505b6020821081141561271a57634e487b7160e01b600052602260045260246000fd5b600019600883021c191660029091021790565b600060001982141561431357614313614330565b5060010190565b634e487b7160e01b600052600060045260246000fd5b634e487b7160e01b600052601160045260246000fd5b634e487b7160e01b600052604160045260246000fd5b6000813561436981614834565b92915050565b6801000000000000000082111561438857614388614346565b80548282558083101561087457816000526020600020610ea6828201858301613e88565b81156143ba576143ba61431a565b6143c481546142b7565b801561087457601f8111600181146143df5760008355610ea6565b6000838152602081206143fd6020601f860104820160018301613e88565b50838152602081208185555550505050565b6001600160a01b03821673ffffffffffffffffffffffffffffffffffffffff198254161781555050565b60ff1981541660ff8315151681178255505050565b81358155600160208084013582840155604084013560028401556144756060850185613c57565b61448381836003880161415f565b50506144926080850185613c57565b6144a0818360048801613e9d565b50506144af60a0850185613c57565b6144bd818360058801613e9d565b5050600683016144d060c0860186613c9e565b67ffffffffffffffff8111156144e8576144e8614346565b6144f283546142b7565b600080601f8411601f8411818117156145115761450e88613d83565b92505b801561453d5788601f87010483018987101561452a5750825b61453b8a601f880104850182613e88565b505b50806001811461456957600094508515614558578387013594505b61456286866142ec565b88556145b7565b601f198616945082845b8681101561459057888601358255948a0194908b01908a01614573565b50868610156145ad57878501356000196008601f8a16021c191681555b5089600287020188555b505050505050505050505050565b81356145d081614834565b6145da818361440f565b5060208201356145e981614834565b6145f6816001840161440f565b5061460f6146066040840161435c565b6002830161440f565b606082013560038201556146266080830183613c9e565b614634818360048601614193565b505061464360a0830183613c57565b614651818360058601614048565b505061466060c0830183613c57565b61466e818360068601613f3f565b50506105d561468060e0840184613cf8565b6007830161444e565b805461ff00191691151560081b61ff0016919091179055565b81156146b0576146b061431a565b610ea684848361415f565b81156146c9576146c961431a565b82356146d481614849565b6146de8183614439565b5060208301356146ed81614849565b6146f78183614689565b50604083013561470681614834565b81547fffffffffffffffffffff0000000000000000000000000000000000000000ffff1660109190911b75ffffffffffffffffffffffffffffffffffffffff000016178155606083013560018201556080830135600282015561476c60a0840184613c9e565b611b75818360038601614193565b81156147885761478861431a565b8235815560018101602084013561479e81614849565b6147a88183614439565b5060408401356147b781614849565b6147c18183614689565b5060608401356147d081614857565b815462ff0000191660109190911b62ff0000161790556080830135600282015560a0830135600382015561480760c0840184613c9e565b611b75818360048601614193565b805460088302600019811b8086831b1681198416178455505050505050565b6001600160a01b03811681146108e657600080fd5b80151581146108e657600080fd5b60ff811681146108e657600080fdfea2646970667358221220c32497dd65626eaaf4160dd4bdceb4d70e85921c03c082fd1d0cbb55fd476e3064736f6c63430008000033",
  "linkReferences": {
    "contracts/SolverLib.sol": {
      "SolverLib": [
        {
          "length": 20,
          "start": 2465
        },
        {
          "length": 20,
          "start": 3694
        },
        {
          "length": 20,
          "start": 5797
        },
        {
          "length": 20,
          "start": 6210
        },
        {
          "length": 20,
          "start": 7847
        },
        {
          "length": 20,
          "start": 8210
        }
      ]
    }
  },
  "deployedLinkReferences": {
    "contracts/SolverLib.sol": {
      "SolverLib": [
        {
          "length": 20,
          "start": 2333
        },
        {
          "length": 20,
          "start": 3562
        },
        {
          "length": 20,
          "start": 5665
        },
        {
          "length": 20,
          "start": 6078
        },
        {
          "length": 20,
          "start": 7715
        },
        {
          "length": 20,
          "start": 8078
        }
      ]
    }
  }
}