{
  "_format": "hh-sol-artifact-1",
  "contractName": "Solver",
  "sourceName": "contracts/Solver.sol",
  "abi": [
    {
      "inputs": [
        {
          "internalType": "uint256",
          "name": "",
          "type": "uint256"
        }
      ],
      "name": "actions",
      "outputs": [
        {
          "internalType": "address",
          "name": "to",
          "type": "address"
        },
        {
          "internalType": "bool",
          "name": "executed",
          "type": "bool"
        },
        {
          "internalType": "bool",
          "name": "useSolverIdx",
          "type": "bool"
        },
        {
          "internalType": "uint256",
          "name": "solverIdx",
          "type": "uint256"
        },
        {
          "internalType": "uint256",
          "name": "value",
          "type": "uint256"
        },
        {
          "internalType": "bytes",
          "name": "data",
          "type": "bytes"
        }
      ],
      "stateMutability": "view",
      "type": "function"
    },
    {
      "inputs": [],
      "name": "arbiter",
      "outputs": [
        {
          "internalType": "address",
          "name": "",
          "type": "address"
        }
      ],
      "stateMutability": "view",
      "type": "function"
    },
    {
      "inputs": [
        {
          "internalType": "uint256[]",
          "name": "_payouts",
          "type": "uint256[]"
        }
      ],
      "name": "arbitrate",
      "outputs": [],
      "stateMutability": "nonpayable",
      "type": "function"
    },
    {
      "inputs": [],
      "name": "arbitrationDelivered",
      "outputs": [
        {
          "internalType": "bool",
          "name": "",
          "type": "bool"
        }
      ],
      "stateMutability": "view",
      "type": "function"
    },
    {
      "inputs": [],
      "name": "canonCondition",
      "outputs": [
        {
          "internalType": "contract IERC20",
          "name": "collateralToken",
          "type": "address"
        },
        {
          "internalType": "address",
          "name": "oracle",
          "type": "address"
        },
        {
          "internalType": "bytes32",
          "name": "questionId",
          "type": "bytes32"
        },
        {
          "internalType": "uint256",
          "name": "outcomeSlots",
          "type": "uint256"
        },
        {
          "internalType": "bytes32",
          "name": "parentCollectionId",
          "type": "bytes32"
        },
        {
          "internalType": "bytes32",
          "name": "conditionId",
          "type": "bytes32"
        },
        {
          "internalType": "uint256",
          "name": "amount",
          "type": "uint256"
        }
      ],
      "stateMutability": "view",
      "type": "function"
    },
    {
      "inputs": [],
      "name": "collateralToken",
      "outputs": [
        {
          "internalType": "contract IERC20",
          "name": "",
          "type": "address"
        }
      ],
      "stateMutability": "view",
      "type": "function"
    },
    {
      "inputs": [],
      "name": "conditionalTokens",
      "outputs": [
        {
          "internalType": "contract ConditionalTokens",
          "name": "",
          "type": "address"
        }
      ],
      "stateMutability": "view",
      "type": "function"
    },
    {
      "inputs": [],
      "name": "confirmPayouts",
      "outputs": [],
      "stateMutability": "nonpayable",
      "type": "function"
    },
    {
      "inputs": [],
      "name": "data",
      "outputs": [
        {
          "internalType": "bytes",
          "name": "",
          "type": "bytes"
        }
      ],
      "stateMutability": "view",
      "type": "function"
    },
    {
      "inputs": [
        {
          "internalType": "uint256",
          "name": "_outcomeSlots",
          "type": "uint256"
        },
        {
          "internalType": "bytes32",
          "name": "_parentCollectionId",
          "type": "bytes32"
        },
        {
          "internalType": "uint256",
          "name": "_amount",
          "type": "uint256"
        },
        {
          "internalType": "uint256[]",
          "name": "_partition",
          "type": "uint256[]"
        },
        {
          "internalType": "address[][]",
          "name": "_initialRecipientAddresses",
          "type": "address[][]"
        },
        {
          "internalType": "uint256[][]",
          "name": "_initialRecipientAmounts",
          "type": "uint256[][]"
        },
        {
          "internalType": "string",
          "name": "_metadata",
          "type": "string"
        }
      ],
      "name": "executeCanonCondition",
      "outputs": [],
      "stateMutability": "nonpayable",
      "type": "function"
    },
    {
      "inputs": [],
      "name": "executeSolve",
      "outputs": [],
      "stateMutability": "nonpayable",
      "type": "function"
    },
    {
      "inputs": [],
      "name": "executed",
      "outputs": [
        {
          "internalType": "bool",
          "name": "",
          "type": "bool"
        }
      ],
      "stateMutability": "view",
      "type": "function"
    },
    {
      "inputs": [],
      "name": "getPayouts",
      "outputs": [
        {
          "internalType": "uint256[]",
          "name": "",
          "type": "uint256[]"
        }
      ],
      "stateMutability": "view",
      "type": "function"
    },
    {
      "inputs": [
        {
          "internalType": "contract IERC20",
          "name": "_collateralToken",
          "type": "address"
        },
        {
          "internalType": "bytes32",
          "name": "_solutionId",
          "type": "bytes32"
        },
        {
          "internalType": "address",
          "name": "_proposalsHub",
          "type": "address"
        },
        {
          "internalType": "address",
          "name": "_solutionsHub",
          "type": "address"
        },
        {
          "internalType": "address",
          "name": "_keeper",
          "type": "address"
        },
        {
          "internalType": "address",
          "name": "_arbiter",
          "type": "address"
        },
        {
          "internalType": "uint256",
          "name": "_timelockHours",
          "type": "uint256"
        },
        {
          "components": [
            {
              "internalType": "address",
              "name": "to",
              "type": "address"
            },
            {
              "internalType": "bool",
              "name": "executed",
              "type": "bool"
            },
            {
              "internalType": "bool",
              "name": "useSolverIdx",
              "type": "bool"
            },
            {
              "internalType": "uint256",
              "name": "solverIdx",
              "type": "uint256"
            },
            {
              "internalType": "uint256",
              "name": "value",
              "type": "uint256"
            },
            {
              "internalType": "bytes",
              "name": "data",
              "type": "bytes"
            }
          ],
          "internalType": "struct Minion.Action[]",
          "name": "_actions",
          "type": "tuple[]"
        },
        {
          "internalType": "bytes",
          "name": "_data",
          "type": "bytes"
        }
      ],
      "name": "init",
      "outputs": [],
      "stateMutability": "nonpayable",
      "type": "function"
    },
    {
      "inputs": [],
      "name": "keeper",
      "outputs": [
        {
          "internalType": "address",
          "name": "",
          "type": "address"
        }
      ],
      "stateMutability": "view",
      "type": "function"
    },
    {
      "inputs": [],
      "name": "nullArbitrate",
      "outputs": [],
      "stateMutability": "nonpayable",
      "type": "function"
    },
    {
      "inputs": [
        {
          "internalType": "address",
          "name": "operator",
          "type": "address"
        },
        {
          "internalType": "address",
          "name": "from",
          "type": "address"
        },
        {
          "internalType": "uint256[]",
          "name": "ids",
          "type": "uint256[]"
        },
        {
          "internalType": "uint256[]",
          "name": "values",
          "type": "uint256[]"
        },
        {
          "internalType": "bytes",
          "name": "data",
          "type": "bytes"
        }
      ],
      "name": "onERC1155BatchReceived",
      "outputs": [
        {
          "internalType": "bytes4",
          "name": "",
          "type": "bytes4"
        }
      ],
      "stateMutability": "nonpayable",
      "type": "function"
    },
    {
      "inputs": [
        {
          "internalType": "address",
          "name": "operator",
          "type": "address"
        },
        {
          "internalType": "address",
          "name": "from",
          "type": "address"
        },
        {
          "internalType": "uint256",
          "name": "id",
          "type": "uint256"
        },
        {
          "internalType": "uint256",
          "name": "value",
          "type": "uint256"
        },
        {
          "internalType": "bytes",
          "name": "data",
          "type": "bytes"
        }
      ],
      "name": "onERC1155Received",
      "outputs": [
        {
          "internalType": "bytes4",
          "name": "",
          "type": "bytes4"
        }
      ],
      "stateMutability": "nonpayable",
      "type": "function"
    },
    {
      "inputs": [],
      "name": "pendingArbitration",
      "outputs": [
        {
          "internalType": "bool",
          "name": "",
          "type": "bool"
        }
      ],
      "stateMutability": "view",
      "type": "function"
    },
    {
      "inputs": [],
      "name": "proposalsHub",
      "outputs": [
        {
          "internalType": "address",
          "name": "",
          "type": "address"
        }
      ],
      "stateMutability": "view",
      "type": "function"
    },
    {
      "inputs": [
        {
          "internalType": "uint256[]",
          "name": "_payouts",
          "type": "uint256[]"
        }
      ],
      "name": "proposePayouts",
      "outputs": [],
      "stateMutability": "nonpayable",
      "type": "function"
    },
    {
      "inputs": [],
      "name": "solutionId",
      "outputs": [
        {
          "internalType": "bytes32",
          "name": "",
          "type": "bytes32"
        }
      ],
      "stateMutability": "view",
      "type": "function"
    },
    {
      "inputs": [],
      "name": "solutionsHub",
      "outputs": [
        {
          "internalType": "address",
          "name": "",
          "type": "address"
        }
      ],
      "stateMutability": "view",
      "type": "function"
    },
    {
      "inputs": [],
      "name": "solved",
      "outputs": [
        {
          "internalType": "bool",
          "name": "",
          "type": "bool"
        }
      ],
      "stateMutability": "view",
      "type": "function"
    },
    {
      "inputs": [],
      "name": "timelock",
      "outputs": [
        {
          "internalType": "uint256",
          "name": "",
          "type": "uint256"
        }
      ],
      "stateMutability": "view",
      "type": "function"
    },
    {
      "inputs": [],
      "name": "timelockDuration",
      "outputs": [
        {
          "internalType": "uint256",
          "name": "",
          "type": "uint256"
        }
      ],
      "stateMutability": "view",
      "type": "function"
    }
  ],
  "bytecode": "0x608060405234801561001057600080fd5b506128f7806100206000396000f3fe608060405234801561001057600080fd5b50600436106101ae5760003560e01c806383d012f4116100ee578063bc197c8111610097578063e7fd205911610071578063e7fd205914610318578063efabae571461032b578063f23a6e6114610333578063fe25e00a14610346576101ae565b8063bc197c81146102e8578063c43c168e14610308578063d33219b414610310576101ae565b8063a7f5d48c116100c8578063a7f5d48c146102d0578063aced1661146102d8578063b2016bd4146102e0576101ae565b806383d012f4146102a55780638d905df5146102ad578063a2b14e6f146102c8576101ae565b806348d6bc001161015b5780636f2f3e77116101355780636f2f3e771461025b57806373d4a13a14610263578063799320bb1461027857806383240f8314610280576101ae565b806348d6bc00146102295780635bd9e299146102315780636bf90c8414610246576101ae565b80632bbca1571161018c5780632bbca157146101ee57806331a38c891461020c5780633a275fa214610221576101ae565b80630d49722d146101b357806316b92410146101c85780631aa0ed45146101db575b600080fd5b6101c66101c1366004611dcb565b61034e565b005b6101c66101d6366004611e3f565b61045a565b6101c66101e9366004611f23565b6106b1565b6101f6610b62565b60405161020391906121ba565b60405180910390f35b610214610b68565b60405161020391906121af565b6101c6610b78565b6101c6610bbf565b610239610d63565b6040516102039190612077565b61024e610d78565b604051610203919061216b565b6101c6610dd0565b61026b610e33565b6040516102039190612264565b610214610ec1565b61029361028e366004611f0b565b610ed1565b604051610203969594939291906120e7565b610214610fb3565b6102b5610fc3565b6040516102039796959493929190612277565b610239610feb565b610239610ffa565b610239611009565b610239611018565b6102fb6102f6366004611c96565b611027565b6040516102039190612237565b6101f6611054565b6101f661105a565b6101c6610326366004611dcb565b611060565b610214611127565b6102fb610341366004611d51565b611137565b610239611162565b6005546001600160a01b031633148061037157506006546001600160a01b031633145b6103965760405162461bcd60e51b815260040161038d90612659565b60405180910390fd5b60018054600160a81b900460ff161515146103c35760405162461bcd60e51b815260040161038d906123f8565b600154600160b01b900460ff16156103ed5760405162461bcd60e51b815260040161038d9061242f565b600154600160b81b900460ff16156104175760405162461bcd60e51b815260040161038d9061239b565b600154600160a01b900460ff16156104415760405162461bcd60e51b815260040161038d90612531565b61044d60098383611966565b50610456611171565b5050565b6001600160a01b0385166104805760405162461bcd60e51b815260040161038d90612364565b60005b825181101561057b57600a8382815181106104ae57634e487b7160e01b600052603260045260246000fd5b602090810291909101810151825460018181018555600094855293839020825160049092020180548385015160408501511515600160a81b0260ff60a81b19911515600160a01b0260ff60a01b196001600160a01b0390961673ffffffffffffffffffffffffffffffffffffffff19909416939093179490941691909117169190911781556060820151938101939093556080810151600284015560a08101518051919392610565926003850192909101906119b1565b505050808061057390612857565b915050610483565b50856001600160a01b0316635bd9e2996040518163ffffffff1660e01b815260040160206040518083038186803b1580156105b557600080fd5b505afa1580156105c9573d6000803e3d6000fd5b505050506040513d601f19601f820116820180604052508101906105ed9190611c7a565b600080547fffffffffffffffffffff0000000000000000000000000000000000000000ffff16620100006001600160a01b03938416021790556001805473ffffffffffffffffffffffffffffffffffffffff199081168c84161790915560028a90556003805482168a84161790556004805482168984161790556005805482168884161790556006805490911691861691909117905561068f83610e106127d3565b60075580516106a590600b9060208401906119b1565b50505050505050505050565b60018054600160a81b900460ff161515146106de5760405162461bcd60e51b815260040161038d906123f8565b600154600160b01b900460ff16156107085760405162461bcd60e51b815260040161038d9061242f565b600154600160b81b900460ff16156107325760405162461bcd60e51b815260040161038d9061239b565b600154600160a01b900460ff161561075c5760405162461bcd60e51b815260040161038d90612531565b33301461077b5760405162461bcd60e51b815260040161038d906125fc565b60145460ff161561079e5760405162461bcd60e51b815260040161038d9061232d565b6014805460ff191660011790556040516107c09083908390309060200161204e565b60408051601f198184030181529190528051602090910120600e55600f8b905560108a905560128990556107f660138989611966565b5030600c60010160006101000a8154816001600160a01b0302191690836001600160a01b03160217905550600060029054906101000a90046001600160a01b03166001600160a01b031663852c6ae230600c600201548e6040518463ffffffff1660e01b815260040161086b93929190612131565b60206040518083038186803b15801561088357600080fd5b505afa158015610897573d6000803e3d6000fd5b505050506040513d601f19601f820116820180604052508101906108bb9190611e27565b601155600054600e54600f546040517fd96ee754000000000000000000000000000000000000000000000000000000008152620100009093046001600160a01b03169263d96ee75492610912923092600401612131565b600060405180830381600087803b15801561092c57600080fd5b505af1158015610940573d6000803e3d6000fd5b5050508a15159050610a9c576001546003546040517f23b872dd0000000000000000000000000000000000000000000000000000000081526001600160a01b039283169283926323b872dd926109a0929091169030908f9060040161208b565b602060405180830381600087803b1580156109ba57600080fd5b505af11580156109ce573d6000803e3d6000fd5b505050506040513d601f19601f820116820180604052508101906109f29190611e0b565b506000546040517f095ea7b30000000000000000000000000000000000000000000000000000000081526001600160a01b038084169263095ea7b392610a479262010000909204909116908e90600401612152565b602060405180830381600087803b158015610a6157600080fd5b505af1158015610a75573d6000803e3d6000fd5b505050506040513d601f19601f82011682018060405250810190610a999190611e0b565b50505b600060029054906101000a90046001600160a01b03166001600160a01b03166372ce4275600160009054906101000a90046001600160a01b03168c600c600501548c8c8f6040518763ffffffff1660e01b8152600401610b01969594939291906122b5565b600060405180830381600087803b158015610b1b57600080fd5b505af1158015610b2f573d6000803e3d6000fd5b5050600154601154610b5593506001600160a01b0390911691508c8b8b8b8b8b8b61122e565b5050505050505050505050565b60075481565b600154600160a81b900460ff1681565b6004546001600160a01b03163314610ba25760405162461bcd60e51b815260040161038d90612568565b6001805460ff60a81b1916600160a81b179055610bbd611595565b565b6005546001600160a01b0316331480610be257506006546001600160a01b031633145b610bfe5760405162461bcd60e51b815260040161038d90612659565b60018054600160a81b900460ff16151514610c2b5760405162461bcd60e51b815260040161038d906123f8565b600154600160b01b900460ff1615610c555760405162461bcd60e51b815260040161038d9061242f565b600154600160b81b900460ff1615610c7f5760405162461bcd60e51b815260040161038d9061239b565b600154600160a01b900460ff1615610ca95760405162461bcd60e51b815260040161038d90612531565b6008544211610cca5760405162461bcd60e51b815260040161038d906126b6565b600054600e546040517fc49298ac000000000000000000000000000000000000000000000000000000008152620100009092046001600160a01b03169163c49298ac91610d1c916009906004016121c3565b600060405180830381600087803b158015610d3657600080fd5b505af1158015610d4a573d6000803e3d6000fd5b50506001805460ff60a01b1916600160a01b1790555050565b6000546201000090046001600160a01b031681565b60606009805480602002602001604051908101604052809291908181526020018280548015610dc657602002820191906000526020600020905b815481526020019060010190808311610db2575b5050505050905090565b6006546001600160a01b03163314610dfa5760405162461bcd60e51b815260040161038d9061249d565b60018054600160b01b7fffffffffffffffffff00ffffffffffffffffffffffffffffffffffffffffffff91821617169055610bbd611171565b600b8054610e4090612822565b80601f0160208091040260200160405190810160405280929190818152602001828054610e6c90612822565b8015610eb95780601f10610e8e57610100808354040283529160200191610eb9565b820191906000526020600020905b815481529060010190602001808311610e9c57829003601f168201915b505050505081565b600154600160a01b900460ff1681565b600a8181548110610ee157600080fd5b600091825260209091206004909102018054600182015460028301546003840180546001600160a01b038516965060ff600160a01b8604811696600160a81b90960416949190610f3090612822565b80601f0160208091040260200160405190810160405280929190818152602001828054610f5c90612822565b8015610fa95780601f10610f7e57610100808354040283529160200191610fa9565b820191906000526020600020905b815481529060010190602001808311610f8c57829003601f168201915b5050505050905086565b600154600160b01b900460ff1681565b600c54600d54600e54600f546010546011546012546001600160a01b03968716969095169487565b6003546001600160a01b031681565b6004546001600160a01b031681565b6005546001600160a01b031681565b6001546001600160a01b031681565b7fbc197c810000000000000000000000000000000000000000000000000000000098975050505050505050565b60025481565b60085481565b6006546001600160a01b0316331461108a5760405162461bcd60e51b815260040161038d9061249d565b60018054600160a81b900460ff161515146110b75760405162461bcd60e51b815260040161038d906123f8565b60018054600160b01b900460ff161515146110e45760405162461bcd60e51b815260040161038d90612466565b6110f060098383611966565b50600180547fffffffffffffffff0000ffffffffffffffffffffffffffffffffffffffffffff16600160b81b179055610456611171565b600154600160b81b900460ff1681565b7ff23a6e61000000000000000000000000000000000000000000000000000000009695505050505050565b6006546001600160a01b031681565b60018054600160a81b900460ff1615151461119e5760405162461bcd60e51b815260040161038d906123f8565b600154600160b01b900460ff16156111c85760405162461bcd60e51b815260040161038d9061242f565b600154600160b81b900460ff16156111f25760405162461bcd60e51b815260040161038d9061239b565b600154600160a01b900460ff161561121c5760405162461bcd60e51b815260040161038d90612531565b60075461122990426127bb565b600855565b60018054600160a81b900460ff1615151461125b5760405162461bcd60e51b815260040161038d906123f8565b600154600160b01b900460ff16156112855760405162461bcd60e51b815260040161038d9061242f565b600154600160b81b900460ff16156112af5760405162461bcd60e51b815260040161038d9061239b565b600154600160a01b900460ff16156112d95760405162461bcd60e51b815260040161038d90612531565b60005b858110156106a557600080546201000090046001600160a01b031663856296f78a8c8b8b8781811061131e57634e487b7160e01b600052603260045260246000fd5b905060200201356040518463ffffffff1660e01b815260040161134393929190612213565b60206040518083038186803b15801561135b57600080fd5b505afa15801561136f573d6000803e3d6000fd5b505050506040513d601f19601f820116820180604052508101906113939190611e27565b600080546040517f39dd75300000000000000000000000000000000000000000000000000000000081529293509091620100009091046001600160a01b0316906339dd7530906113e9908f908690600401612152565b60206040518083038186803b15801561140157600080fd5b505afa158015611415573d6000803e3d6000fd5b505050506040513d601f19601f820116820180604052508101906114399190611e27565b905060005b8681101561157f576000546201000090046001600160a01b031663f242432a308a8a8881811061147e57634e487b7160e01b600052603260045260246000fd5b9050602002810190611490919061274a565b858181106114ae57634e487b7160e01b600052603260045260246000fd5b90506020020160208101906114c39190611c57565b858a8a8a8181106114e457634e487b7160e01b600052603260045260246000fd5b90506020028101906114f6919061274a565b8781811061151457634e487b7160e01b600052603260045260246000fd5b905060200201356040518563ffffffff1660e01b815260040161153a94939291906120af565b600060405180830381600087803b15801561155457600080fd5b505af1158015611568573d6000803e3d6000fd5b50505050808061157790612857565b91505061143e565b505050808061158d90612857565b9150506112dc565b60005b600a548110156115be576115ab816115c1565b50806115b681612857565b915050611598565b50565b6060600a82815481106115e457634e487b7160e01b600052603260045260246000fd5b6000918252602090912060049091020154600a80546001600160a01b03909216918490811061162357634e487b7160e01b600052603260045260246000fd5b6000918252602090912060049091020154600160a01b900460ff161561165b5760405162461bcd60e51b815260040161038d90612713565b600a838154811061167c57634e487b7160e01b600052603260045260246000fd5b9060005260206000209060040201600201544710156116ad5760405162461bcd60e51b815260040161038d906124fa565b6000600a84815481106116d057634e487b7160e01b600052603260045260246000fd5b60009182526020918290206040805160c081018252600490930290910180546001600160a01b038116845260ff600160a01b82048116151595850195909552600160a81b9004909316151590820152600182015460608201526002820154608082015260038201805491929160a08401919061174b90612822565b80601f016020809104026020016040519081016040528092919081815260200182805461177790612822565b80156117c45780601f10611799576101008083540402835291602001916117c4565b820191906000526020600020905b8154815290600101906020018083116117a757829003601f168201915b5050505050815250509050806040015115611885576004805460025460608401516040517f191481a00000000000000000000000000000000000000000000000000000000081526001600160a01b039093169363191481a09361182993929101612229565b60206040518083038186803b15801561184157600080fd5b505afa158015611855573d6000803e3d6000fd5b505050506040513d601f19601f820116820180604052508101906118799190611c7a565b6001600160a01b031681525b6001600a85815481106118a857634e487b7160e01b600052603260045260246000fd5b6000918252602082206004909102018054921515600160a01b0260ff60a01b19909316929092179091558151608083015160a084015160405184936001600160a01b031692916118f791612032565b60006040518083038185875af1925050503d8060008114611934576040519150601f19603f3d011682016040523d82523d6000602084013e611939565b606091505b50915091508161195b5760405162461bcd60e51b815260040161038d906125c5565b935050505b50919050565b8280548282559060005260206000209081019282156119a1579160200282015b828111156119a1578235825591602001919060010190611986565b506119ad929150611a25565b5090565b8280546119bd90612822565b90600052602060002090601f0160209004810192826119df57600085556119a1565b82601f106119f857805160ff19168380011785556119a1565b828001600101855582156119a1579182015b828111156119a1578251825591602001919060010190611a0a565b5b808211156119ad5760008155600101611a26565b8035611a458161289e565b919050565b60008083601f840112611a5b578182fd5b50813567ffffffffffffffff811115611a72578182fd5b6020830191508360208083028501011115611a8c57600080fd5b9250929050565b600082601f830112611aa3578081fd5b8135602067ffffffffffffffff80831115611ac057611ac0612888565b611acd8283850201612791565b83815282810190868401865b86811015611b93578135890160c080601f19838e03011215611af957898afd5b604080518281018181108a82111715611b1457611b14612888565b8252611b21848b01611a3a565b8152611b2e828501611ba1565b8a8201526060611b3f818601611ba1565b838301526080925082850135818301525060a0808501358383015283850135935089841115611b6c578c8dfd5b611b7a8f8c86880101611bec565b9082015287525050509285019290850190600101611ad9565b509098975050505050505050565b8035611a45816128b3565b60008083601f840112611bbd578182fd5b50813567ffffffffffffffff811115611bd4578182fd5b602083019150836020828501011115611a8c57600080fd5b600082601f830112611bfc578081fd5b813567ffffffffffffffff811115611c1657611c16612888565b611c29601f8201601f1916602001612791565b818152846020838601011115611c3d578283fd5b816020850160208301379081016020019190915292915050565b600060208284031215611c68578081fd5b8135611c738161289e565b9392505050565b600060208284031215611c8b578081fd5b8151611c738161289e565b60008060008060008060008060a0898b031215611cb1578384fd5b8835611cbc8161289e565b97506020890135611ccc8161289e565b9650604089013567ffffffffffffffff80821115611ce8578586fd5b611cf48c838d01611a4a565b909850965060608b0135915080821115611d0c578586fd5b611d188c838d01611a4a565b909650945060808b0135915080821115611d30578384fd5b50611d3d8b828c01611bac565b999c989b5096995094979396929594505050565b60008060008060008060a08789031215611d69578182fd5b8635611d748161289e565b95506020870135611d848161289e565b94506040870135935060608701359250608087013567ffffffffffffffff811115611dad578283fd5b611db989828a01611bac565b979a9699509497509295939492505050565b60008060208385031215611ddd578081fd5b823567ffffffffffffffff811115611df3578182fd5b611dff85828601611a4a565b90969095509350505050565b600060208284031215611e1c578081fd5b8151611c73816128b3565b600060208284031215611e38578081fd5b5051919050565b60008060008060008060008060006101208a8c031215611e5d578283fd5b8935611e688161289e565b985060208a0135975060408a0135611e7f8161289e565b9650611e8d60608b01611a3a565b9550611e9b60808b01611a3a565b9450611ea960a08b01611a3a565b935060c08a0135925060e08a013567ffffffffffffffff80821115611ecc578283fd5b611ed88d838e01611a93565b93506101008c0135915080821115611eee578283fd5b50611efb8c828d01611bec565b9150509295985092959850929598565b600060208284031215611f1c578081fd5b5035919050565b600080600080600080600080600080600060e08c8e031215611f43578485fd5b8b359a5060208c0135995060408c0135985067ffffffffffffffff8060608e01351115611f6e578586fd5b611f7e8e60608f01358f01611a4a565b909950975060808d0135811015611f93578586fd5b611fa38e60808f01358f01611a4a565b909750955060a08d0135811015611fb8578283fd5b611fc88e60a08f01358f01611a4a565b909550935060c08d0135811015611fdd578283fd5b50611fee8d60c08e01358e01611bac565b81935080925050509295989b509295989b9093969950565b6000815180845261201e8160208601602086016127f2565b601f01601f19169290920160200192915050565b600082516120448184602087016127f2565b9190910192915050565b6000838583375060609190911b6bffffffffffffffffffffffff19169101908152601401919050565b6001600160a01b0391909116815260200190565b6001600160a01b039384168152919092166020820152604081019190915260600190565b6001600160a01b0394851681529290931660208301526040820152606081019190915260a06080820181905260009082015260c00190565b60006001600160a01b03881682528615156020830152851515604083015284606083015283608083015260c060a083015261212560c0830184612006565b98975050505050505050565b6001600160a01b039390931683526020830191909152604082015260600190565b6001600160a01b03929092168252602082015260400190565b6020808252825182820181905260009190848201906040850190845b818110156121a357835183529284019291840191600101612187565b50909695505050505050565b901515815260200190565b90815260200190565b60006040820184835260206040818501528185548084526060860191508685528285209350845b81811015612206578454835260019485019492840192016121ea565b5090979650505050505050565b9283526020830191909152604082015260600190565b918252602082015260400190565b7fffffffff0000000000000000000000000000000000000000000000000000000091909116815260200190565b600060208252611c736020830184612006565b6001600160a01b03978816815295909616602086015260408501939093526060840191909152608083015260a082015260c081019190915260e00190565b60006001600160a01b038816825286602083015285604083015260a060608301528360a08301527f07ffffffffffffffffffffffffffffffffffffffffffffffffffffffffffffff841115612308578081fd5b60208402808660c0850137820160c00190815260809091019190915295945050505050565b6020808252601d908201527f536f6c7665723a3a20546869732068617320616c72656164792072756e000000604082015260600190565b6020808252601e908201527f536f6c7665723a204b6565706572206164647265737320696e76616c69640000604082015260600190565b60208082526026908201527f536f6c7665723a204172626974726174696f6e20686173206265656e2064656c60408201527f6976657265640000000000000000000000000000000000000000000000000000606082015260800190565b60208082526012908201527f536f6c7665723a20556e65786563757465640000000000000000000000000000604082015260600190565b6020808252601e908201527f536f6c7665723a204172626974726174696f6e2069732070656e64696e670000604082015260600190565b6020808252601f908201527f536f6c7665723a204172626974726174696f6e206e6f742070656e64696e6700604082015260600190565b6020808252602e908201527f536f6c7665723a204f6e6c79207468652041726269746572206164647265737360408201527f206d61792063616c6c2074686973000000000000000000000000000000000000606082015260800190565b60208082526018908201527f536f6c7665723a3a696e73756666696369656e74206574680000000000000000604082015260600190565b60208082526019908201527f536f6c7665723a20536f6c766520697320636f6d706c65746500000000000000604082015260600190565b60208082526033908201527f536f6c7665723a204f6e6c792074686520736f6c7574696f6e7348756220616460408201527f6472657373206d61792063616c6c207468697300000000000000000000000000606082015260800190565b60208082526014908201527f536f6c7665723a3a63616c6c206661696c757265000000000000000000000000604082015260600190565b60208082526026908201527f536f6c7665723a204f6e6c79207468697320736f6c766572206d61792063616c60408201527f6c20746869730000000000000000000000000000000000000000000000000000606082015260800190565b60208082526031908201527f536f6c7665723a204f6e6c7920746865204b6565706572206f7220417262697460408201527f6572206d61792063616c6c20746869732e000000000000000000000000000000606082015260800190565b60208082526027908201527f536f6c7665723a2054696d656c6f636b206973207374696c6c20696e2074686560408201527f2066757475726500000000000000000000000000000000000000000000000000606082015260800190565b60208082526017908201527f536f6c7665723a3a616374696f6e206578656375746564000000000000000000604082015260600190565b6000808335601e19843603018112612760578283fd5b83018035915067ffffffffffffffff82111561277a578283fd5b6020908101925081023603821315611a8c57600080fd5b60405181810167ffffffffffffffff811182821017156127b3576127b3612888565b604052919050565b600082198211156127ce576127ce612872565b500190565b60008160001904831182151516156127ed576127ed612872565b500290565b60005b8381101561280d5781810151838201526020016127f5565b8381111561281c576000848401525b50505050565b60028104600182168061283657607f821691505b6020821081141561196057634e487b7160e01b600052602260045260246000fd5b600060001982141561286b5761286b612872565b5060010190565b634e487b7160e01b600052601160045260246000fd5b634e487b7160e01b600052604160045260246000fd5b6001600160a01b03811681146115be57600080fd5b80151581146115be57600080fdfea264697066735822122012c7d19779c550aa8791fbae2f67b98e9532f221b06b2488dda93114d6d836cd64736f6c63430008000033",
  "linkReferences": {},
  "deployedLinkReferences": {}
}