{
  "_format": "hh-sol-artifact-1",
  "contractName": "Solver",
  "sourceName": "contracts/Solver.sol",
  "abi": [
    {
      "inputs": [
        {
          "internalType": "uint8",
          "name": "_type",
          "type": "uint8"
        },
        {
          "internalType": "uint256",
          "name": "_key",
          "type": "uint256"
        },
        {
          "internalType": "bytes",
          "name": "_data",
          "type": "bytes"
        }
      ],
      "name": "addData",
      "outputs": [],
      "stateMutability": "nonpayable",
      "type": "function"
    },
    {
      "inputs": [
        {
          "internalType": "uint256",
          "name": "_index",
          "type": "uint256"
        }
      ],
      "name": "addressFromChainIndex",
      "outputs": [
        {
          "internalType": "address",
          "name": "_address",
          "type": "address"
        }
      ],
      "stateMutability": "view",
      "type": "function"
    },
    {
      "inputs": [
        {
          "internalType": "uint256[]",
          "name": "payouts",
          "type": "uint256[]"
        }
      ],
      "name": "arbitrate",
      "outputs": [],
      "stateMutability": "nonpayable",
      "type": "function"
    },
    {
      "inputs": [],
      "name": "arbitrateNull",
      "outputs": [],
      "stateMutability": "nonpayable",
      "type": "function"
    },
    {
      "inputs": [],
      "name": "arbitrationPending",
      "outputs": [],
      "stateMutability": "nonpayable",
      "type": "function"
    },
    {
      "inputs": [],
      "name": "arbitrationRequested",
      "outputs": [],
      "stateMutability": "nonpayable",
      "type": "function"
    },
    {
      "inputs": [],
      "name": "chainChild",
      "outputs": [
        {
          "internalType": "address",
          "name": "",
          "type": "address"
        }
      ],
      "stateMutability": "view",
      "type": "function"
    },
    {
      "inputs": [],
      "name": "chainIndex",
      "outputs": [
        {
          "internalType": "uint256",
          "name": "",
          "type": "uint256"
        }
      ],
      "stateMutability": "view",
      "type": "function"
    },
    {
      "inputs": [],
      "name": "chainParent",
      "outputs": [
        {
          "internalType": "address",
          "name": "",
          "type": "address"
        }
      ],
      "stateMutability": "view",
      "type": "function"
    },
    {
      "inputs": [],
      "name": "collateralToken",
      "outputs": [
        {
          "internalType": "contract IERC20",
          "name": "",
          "type": "address"
        }
      ],
      "stateMutability": "view",
      "type": "function"
    },
    {
      "inputs": [
        {
          "internalType": "uint256",
          "name": "",
          "type": "uint256"
        }
      ],
      "name": "conditions",
      "outputs": [
        {
          "internalType": "contract IERC20",
          "name": "collateralToken",
          "type": "address"
        },
        {
          "internalType": "bytes32",
          "name": "questionId",
          "type": "bytes32"
        },
        {
          "internalType": "bytes32",
          "name": "parentCollectionId",
          "type": "bytes32"
        },
        {
          "internalType": "bytes32",
          "name": "conditionId",
          "type": "bytes32"
        },
        {
          "internalType": "enum SolverLib.Status",
          "name": "status",
          "type": "uint8"
        }
      ],
      "stateMutability": "view",
      "type": "function"
    },
    {
      "inputs": [],
      "name": "config",
      "outputs": [
        {
          "internalType": "contract Solver",
          "name": "implementation",
          "type": "address"
        },
        {
          "internalType": "address",
          "name": "keeper",
          "type": "address"
        },
        {
          "internalType": "address",
          "name": "arbitrator",
          "type": "address"
        },
        {
          "internalType": "uint256",
          "name": "timelockSeconds",
          "type": "uint256"
        },
        {
          "internalType": "bytes",
          "name": "data",
          "type": "bytes"
        },
        {
          "components": [
            {
              "internalType": "uint256",
              "name": "outcomeSlots",
              "type": "uint256"
            },
            {
              "internalType": "uint256",
              "name": "parentCollectionPartitionIndex",
              "type": "uint256"
            },
            {
              "internalType": "uint256",
              "name": "amount",
              "type": "uint256"
            },
            {
              "internalType": "uint256[]",
              "name": "partition",
              "type": "uint256[]"
            },
            {
              "internalType": "uint256[][]",
              "name": "recipientAddressPorts",
              "type": "uint256[][]"
            },
            {
              "internalType": "uint256[][]",
              "name": "recipientAmounts",
              "type": "uint256[][]"
            },
            {
              "internalType": "string",
              "name": "metadata",
              "type": "string"
            }
          ],
          "internalType": "struct SolverLib.ConditionBase",
          "name": "conditionBase",
          "type": "tuple"
        }
      ],
      "stateMutability": "view",
      "type": "function"
    },
    {
      "inputs": [],
      "name": "confirmPayouts",
      "outputs": [],
      "stateMutability": "nonpayable",
      "type": "function"
    },
    {
      "inputs": [
        {
          "components": [
            {
              "internalType": "contract Solver",
              "name": "implementation",
              "type": "address"
            },
            {
              "internalType": "address",
              "name": "keeper",
              "type": "address"
            },
            {
              "internalType": "address",
              "name": "arbitrator",
              "type": "address"
            },
            {
              "internalType": "uint256",
              "name": "timelockSeconds",
              "type": "uint256"
            },
            {
              "internalType": "bytes",
              "name": "data",
              "type": "bytes"
            },
            {
              "components": [
                {
                  "internalType": "uint256",
                  "name": "executions",
                  "type": "uint256"
                },
                {
                  "internalType": "bool",
                  "name": "isDeferred",
                  "type": "bool"
                },
                {
                  "internalType": "bool",
                  "name": "isConstant",
                  "type": "bool"
                },
                {
                  "internalType": "uint8",
                  "name": "port",
                  "type": "uint8"
                },
                {
                  "internalType": "uint256",
                  "name": "key",
                  "type": "uint256"
                },
                {
                  "internalType": "uint256",
                  "name": "solverIndex",
                  "type": "uint256"
                },
                {
                  "internalType": "bytes",
                  "name": "data",
                  "type": "bytes"
                }
              ],
              "internalType": "struct SolverLib.Ingest[]",
              "name": "ingests",
              "type": "tuple[]"
            },
            {
              "components": [
                {
                  "internalType": "bool",
                  "name": "executed",
                  "type": "bool"
                },
                {
                  "internalType": "bool",
                  "name": "isPort",
                  "type": "bool"
                },
                {
                  "internalType": "address",
                  "name": "to",
                  "type": "address"
                },
                {
                  "internalType": "uint256",
                  "name": "portIndex",
                  "type": "uint256"
                },
                {
                  "internalType": "uint256",
                  "name": "value",
                  "type": "uint256"
                },
                {
                  "internalType": "bytes",
                  "name": "data",
                  "type": "bytes"
                }
              ],
              "internalType": "struct SolverLib.Action[]",
              "name": "actions",
              "type": "tuple[]"
            },
            {
              "components": [
                {
                  "internalType": "uint256",
                  "name": "outcomeSlots",
                  "type": "uint256"
                },
                {
                  "internalType": "uint256",
                  "name": "parentCollectionPartitionIndex",
                  "type": "uint256"
                },
                {
                  "internalType": "uint256",
                  "name": "amount",
                  "type": "uint256"
                },
                {
                  "internalType": "uint256[]",
                  "name": "partition",
                  "type": "uint256[]"
                },
                {
                  "internalType": "uint256[][]",
                  "name": "recipientAddressPorts",
                  "type": "uint256[][]"
                },
                {
                  "internalType": "uint256[][]",
                  "name": "recipientAmounts",
                  "type": "uint256[][]"
                },
                {
                  "internalType": "string",
                  "name": "metadata",
                  "type": "string"
                }
              ],
              "internalType": "struct SolverLib.ConditionBase",
              "name": "conditionBase",
              "type": "tuple"
            }
          ],
          "internalType": "struct SolverLib.Config",
          "name": "_config",
          "type": "tuple"
        }
      ],
      "name": "deployChild",
      "outputs": [
        {
          "internalType": "contract Solver",
          "name": "_solver",
          "type": "address"
        }
      ],
      "stateMutability": "nonpayable",
      "type": "function"
    },
    {
      "inputs": [],
      "name": "executeSolve",
      "outputs": [],
      "stateMutability": "nonpayable",
      "type": "function"
    },
    {
      "inputs": [
        {
          "internalType": "uint256",
          "name": "_partitionIndex",
          "type": "uint256"
        }
      ],
      "name": "getCanonCollectionId",
      "outputs": [
        {
          "internalType": "bytes32",
          "name": "collectionId",
          "type": "bytes32"
        }
      ],
      "stateMutability": "view",
      "type": "function"
    },
    {
      "inputs": [],
      "name": "getConditions",
      "outputs": [
        {
          "components": [
            {
              "internalType": "contract IERC20",
              "name": "collateralToken",
              "type": "address"
            },
            {
              "internalType": "bytes32",
              "name": "questionId",
              "type": "bytes32"
            },
            {
              "internalType": "bytes32",
              "name": "parentCollectionId",
              "type": "bytes32"
            },
            {
              "internalType": "bytes32",
              "name": "conditionId",
              "type": "bytes32"
            },
            {
              "internalType": "uint256[]",
              "name": "payouts",
              "type": "uint256[]"
            },
            {
              "internalType": "enum SolverLib.Status",
              "name": "status",
              "type": "uint8"
            }
          ],
          "internalType": "struct SolverLib.Condition[]",
          "name": "",
          "type": "tuple[]"
        }
      ],
      "stateMutability": "view",
      "type": "function"
    },
    {
      "inputs": [
        {
          "internalType": "uint256",
          "name": "_key",
          "type": "uint256"
        }
      ],
      "name": "getOutput",
      "outputs": [
        {
          "internalType": "bytes",
          "name": "data",
          "type": "bytes"
        }
      ],
      "stateMutability": "view",
      "type": "function"
    },
    {
      "inputs": [
        {
          "internalType": "uint256",
          "name": "_index",
          "type": "uint256"
        }
      ],
      "name": "ingest",
      "outputs": [],
      "stateMutability": "nonpayable",
      "type": "function"
    },
    {
      "inputs": [],
      "name": "ingestsValid",
      "outputs": [
        {
          "internalType": "bool",
          "name": "",
          "type": "bool"
        }
      ],
      "stateMutability": "view",
      "type": "function"
    },
    {
      "inputs": [
        {
          "internalType": "contract IERC20",
          "name": "_collateralToken",
          "type": "address"
        },
        {
          "internalType": "address",
          "name": "_chainParent",
          "type": "address"
        },
        {
          "internalType": "uint256",
          "name": "_chainIndex",
          "type": "uint256"
        },
        {
          "components": [
            {
              "internalType": "contract Solver",
              "name": "implementation",
              "type": "address"
            },
            {
              "internalType": "address",
              "name": "keeper",
              "type": "address"
            },
            {
              "internalType": "address",
              "name": "arbitrator",
              "type": "address"
            },
            {
              "internalType": "uint256",
              "name": "timelockSeconds",
              "type": "uint256"
            },
            {
              "internalType": "bytes",
              "name": "data",
              "type": "bytes"
            },
            {
              "components": [
                {
                  "internalType": "uint256",
                  "name": "executions",
                  "type": "uint256"
                },
                {
                  "internalType": "bool",
                  "name": "isDeferred",
                  "type": "bool"
                },
                {
                  "internalType": "bool",
                  "name": "isConstant",
                  "type": "bool"
                },
                {
                  "internalType": "uint8",
                  "name": "port",
                  "type": "uint8"
                },
                {
                  "internalType": "uint256",
                  "name": "key",
                  "type": "uint256"
                },
                {
                  "internalType": "uint256",
                  "name": "solverIndex",
                  "type": "uint256"
                },
                {
                  "internalType": "bytes",
                  "name": "data",
                  "type": "bytes"
                }
              ],
              "internalType": "struct SolverLib.Ingest[]",
              "name": "ingests",
              "type": "tuple[]"
            },
            {
              "components": [
                {
                  "internalType": "bool",
                  "name": "executed",
                  "type": "bool"
                },
                {
                  "internalType": "bool",
                  "name": "isPort",
                  "type": "bool"
                },
                {
                  "internalType": "address",
                  "name": "to",
                  "type": "address"
                },
                {
                  "internalType": "uint256",
                  "name": "portIndex",
                  "type": "uint256"
                },
                {
                  "internalType": "uint256",
                  "name": "value",
                  "type": "uint256"
                },
                {
                  "internalType": "bytes",
                  "name": "data",
                  "type": "bytes"
                }
              ],
              "internalType": "struct SolverLib.Action[]",
              "name": "actions",
              "type": "tuple[]"
            },
            {
              "components": [
                {
                  "internalType": "uint256",
                  "name": "outcomeSlots",
                  "type": "uint256"
                },
                {
                  "internalType": "uint256",
                  "name": "parentCollectionPartitionIndex",
                  "type": "uint256"
                },
                {
                  "internalType": "uint256",
                  "name": "amount",
                  "type": "uint256"
                },
                {
                  "internalType": "uint256[]",
                  "name": "partition",
                  "type": "uint256[]"
                },
                {
                  "internalType": "uint256[][]",
                  "name": "recipientAddressPorts",
                  "type": "uint256[][]"
                },
                {
                  "internalType": "uint256[][]",
                  "name": "recipientAmounts",
                  "type": "uint256[][]"
                },
                {
                  "internalType": "string",
                  "name": "metadata",
                  "type": "string"
                }
              ],
              "internalType": "struct SolverLib.ConditionBase",
              "name": "conditionBase",
              "type": "tuple"
            }
          ],
          "internalType": "struct SolverLib.Config",
          "name": "_solverConfig",
          "type": "tuple"
        }
      ],
      "name": "init",
      "outputs": [],
      "stateMutability": "nonpayable",
      "type": "function"
    },
    {
      "inputs": [
        {
          "internalType": "address",
          "name": "operator",
          "type": "address"
        },
        {
          "internalType": "address",
          "name": "from",
          "type": "address"
        },
        {
          "internalType": "uint256[]",
          "name": "ids",
          "type": "uint256[]"
        },
        {
          "internalType": "uint256[]",
          "name": "values",
          "type": "uint256[]"
        },
        {
          "internalType": "bytes",
          "name": "data",
          "type": "bytes"
        }
      ],
      "name": "onERC1155BatchReceived",
      "outputs": [
        {
          "internalType": "bytes4",
          "name": "",
          "type": "bytes4"
        }
      ],
      "stateMutability": "nonpayable",
      "type": "function"
    },
    {
      "inputs": [
        {
          "internalType": "address",
          "name": "operator",
          "type": "address"
        },
        {
          "internalType": "address",
          "name": "from",
          "type": "address"
        },
        {
          "internalType": "uint256",
          "name": "id",
          "type": "uint256"
        },
        {
          "internalType": "uint256",
          "name": "value",
          "type": "uint256"
        },
        {
          "internalType": "bytes",
          "name": "data",
          "type": "bytes"
        }
      ],
      "name": "onERC1155Received",
      "outputs": [
        {
          "internalType": "bytes4",
          "name": "",
          "type": "bytes4"
        }
      ],
      "stateMutability": "nonpayable",
      "type": "function"
    },
    {
      "inputs": [],
      "name": "prepareSolve",
      "outputs": [],
      "stateMutability": "nonpayable",
      "type": "function"
    },
    {
      "inputs": [
        {
          "internalType": "uint256[]",
          "name": "_payouts",
          "type": "uint256[]"
        }
      ],
      "name": "proposePayouts",
      "outputs": [],
      "stateMutability": "nonpayable",
      "type": "function"
    },
    {
      "inputs": [
        {
          "internalType": "bytes32",
          "name": "_trackingId",
          "type": "bytes32"
        }
      ],
      "name": "setTrackingId",
      "outputs": [],
      "stateMutability": "nonpayable",
      "type": "function"
    },
    {
      "inputs": [
        {
          "internalType": "bytes4",
          "name": "interfaceId",
          "type": "bytes4"
        }
      ],
      "name": "supportsInterface",
      "outputs": [
        {
          "internalType": "bool",
          "name": "",
          "type": "bool"
        }
      ],
      "stateMutability": "view",
      "type": "function"
    },
    {
      "inputs": [],
      "name": "timelock",
      "outputs": [
        {
          "internalType": "uint256",
          "name": "",
          "type": "uint256"
        }
      ],
      "stateMutability": "view",
      "type": "function"
    },
    {
      "inputs": [],
      "name": "trackingId",
      "outputs": [
        {
          "internalType": "bytes32",
          "name": "",
          "type": "bytes32"
        }
      ],
      "stateMutability": "view",
      "type": "function"
    }
  ],
  "bytecode": "0x608060405234801561001057600080fd5b50614381806100206000396000f3fe608060405234801561001057600080fd5b50600436106101cf5760003560e01c806379502c5511610104578063b2016bd4116100a2578063e7fd205911610071578063e7fd205914610391578063ea8221a9146103a4578063f23a6e61146103ac578063ff1ed30c146103bf576101cf565b8063b2016bd41461034e578063ba9bfe6214610356578063bc197c8114610369578063d33219b414610389576101cf565b806384dbd391116100de57806384dbd39114610318578063972a688b1461032b57806399992506146103335780639f1cf2681461033b576101cf565b806379502c55146102e15780637c123627146102fb57806380c2dde214610310576101cf565b80632c17b91e1161017157806348cbb2fc1161014b57806348cbb2fc146102b457806348d6bc00146102c957806355dd978b146102d15780635bd11123146102d9576101cf565b80632c17b91e146102845780633837b05e1461028c5780633a275fa2146102ac576101cf565b806317861f87116101ad57806317861f871461022557806318f792781461024557806326c500071461024d5780632b36342714610271576101cf565b806301ffc9a7146101d45780630d06101a146101fd5780630d49722d14610212575b600080fd5b6101e76101e2366004612506565b6103d2565b6040516101f49190612f2d565b60405180910390f35b61021061020b3660046124d6565b610418565b005b6102106102203660046123ea565b610446565b6102386102333660046124d6565b6105a6565b6040516101f49190612f56565b61021061068f565b61026061025b3660046124d6565b6107e9565b6040516101f4959493929190612f69565b61021061027f366004612705565b610837565b610210610873565b61029f61029a3660046124d6565b6108e3565b6040516101f49190612d51565b6102106109a0565b6102bc610c61565b6040516101f49190612f38565b610210610c67565b61029f610db0565b610210610dbf565b6102e9610e97565b6040516101f496959493929190612f9c565b610303611194565b6040516101f49190612daf565b61029f6112c3565b6102bc6103263660046124d6565b6112d2565b6102106113cd565b6101e76114a5565b61029f6103493660046126ca565b611552565b61029f611663565b6102106103643660046124d6565b611672565b61037c61037736600461227c565b6117f9565b6040516101f49190612f41565b6102bc611826565b61021061039f36600461242a565b61182c565b6102bc6119a2565b61037c6103ba366004612337565b6119a8565b6102106103cd3660046125a1565b6119d4565b60006001600160e01b031982167f4e2312e0000000000000000000000000000000000000000000000000000000001480610410575061041082611a97565b90505b919050565b601554156104415760405162461bcd60e51b8152600401610438906133db565b60405180910390fd5b601555565b6002546001600160a01b031633146104705760405162461bcd60e51b81526004016104389061317e565b6001600f805461048290600190613956565b815481106104a057634e487b7160e01b600052603260045260246000fd5b600091825260209091206006918202016005015460ff16908111156104d557634e487b7160e01b600052602160045260246000fd5b146104f25760405162461bcd60e51b8152600401610438906133a4565b600f805473__$94d7d2f22770e4b0d1a2b99fb2812308e2$__91636a0a24f19161051e90600190613956565b8154811061053c57634e487b7160e01b600052603260045260246000fd5b906000526020600020906006020184846040518463ffffffff1660e01b815260040161056a939291906134fb565b60006040518083038186803b15801561058257600080fd5b505af4158015610596573d6000803e3d6000fd5b505050506105a2611ac9565b5050565b60008181526017602052604090205460609060ff16806105d55750600f54600083815260186020526040902054145b6105f15760405162461bcd60e51b815260040161043890613449565b6000828152601660205260409020805461060a90613d9c565b80601f016020809104026020016040519081016040528092919081815260200182805461063690613d9c565b80156106835780601f1061065857610100808354040283529160200191610683565b820191906000526020600020905b81548152906001019060200180831161066657829003601f168201915b50505050509050919050565b6003546001600160a01b031633146106b95760405162461bcd60e51b81526004016104389061325a565b6002600f80546106cb90600190613956565b815481106106e957634e487b7160e01b600052603260045260246000fd5b600091825260209091206006918202016005015460ff169081111561071e57634e487b7160e01b600052602160045260246000fd5b1461073b5760405162461bcd60e51b8152600401610438906132ff565b600f805473__$94d7d2f22770e4b0d1a2b99fb2812308e2$__916324b286029161076790600190613956565b8154811061078557634e487b7160e01b600052603260045260246000fd5b90600052602060002090600602016040518263ffffffff1660e01b81526004016107af9190612f38565b60006040518083038186803b1580156107c757600080fd5b505af41580156107db573d6000803e3d6000fd5b505050506107e7611ac9565b565b600f81815481106107f957600080fd5b6000918252602090912060069091020180546001820154600283015460038401546005909401546001600160a01b0390931694509092909160ff1685565b6002546001600160a01b031633146108615760405162461bcd60e51b8152600401610438906130a2565b61086e8383600084611ae6565b505050565b61087b611c18565b60005b6006548110156108e05760068054829081106108aa57634e487b7160e01b600052603260045260246000fd5b600091825260209091206001600590920201015460ff166108ce576108ce81611672565b806108d881613de4565b91505061087e565b50565b6011546012546013546040517f9fa61fa300000000000000000000000000000000000000000000000000000000815260009373__$94d7d2f22770e4b0d1a2b99fb2812308e2$__93639fa61fa39361095093889330936001600160a01b0391821693911691600401613704565b60206040518083038186803b15801561096857600080fd5b505af415801561097c573d6000803e3d6000fd5b505050506040513d601f19601f820116820180604052508101906104109190612260565b6000600f80546109b290600190613956565b815481106109d057634e487b7160e01b600052603260045260246000fd5b600091825260209091206006918202016005015460ff1690811115610a0557634e487b7160e01b600052602160045260246000fd5b14610a225760405162461bcd60e51b815260040161043890613480565b610a2a6114a5565b610a465760405162461bcd60e51b8152600401610438906131ec565b600f805460019190610a59908390613956565b81548110610a7757634e487b7160e01b600052603260045260246000fd5b906000526020600020906006020160050160006101000a81548160ff02191690836006811115610ab757634e487b7160e01b600052602160045260246000fd5b0217905550601154600f805473__$94d7d2f22770e4b0d1a2b99fb2812308e2$__9263eb2c972a926001600160a01b039091169160089190610afb90600190613956565b81548110610b1957634e487b7160e01b600052603260045260246000fd5b600091825260209091206010546040516001600160e01b031960e088901b168152610b5b959493600602909201916001600160a01b0390911690600401612d65565b60006040518083038186803b158015610b7357600080fd5b505af4158015610b87573d6000803e3d6000fd5b5050600f805473__$94d7d2f22770e4b0d1a2b99fb2812308e2$__9350631f97d8439250610bb790600190613956565b81548110610bd557634e487b7160e01b600052603260045260246000fd5b600091825260209091206010546015546040516001600160e01b031960e087901b168152610c2194600602909301926001600160a01b0390921691600891309160169190600401613555565b60006040518083038186803b158015610c3957600080fd5b505af4158015610c4d573d6000803e3d6000fd5b50505050610c59611d8c565b6107e7611db5565b60155481565b6014544211610c885760405162461bcd60e51b8152600401610438906131b5565b6002600f8054610c9a90600190613956565b81548110610cb857634e487b7160e01b600052603260045260246000fd5b600091825260209091206006918202016005015460ff1690811115610ced57634e487b7160e01b600052602160045260246000fd5b14610d0a5760405162461bcd60e51b8152600401610438906132c8565b600f805473__$94d7d2f22770e4b0d1a2b99fb2812308e2$__9163b89c10e791610d3690600190613956565b81548110610d5457634e487b7160e01b600052603260045260246000fd5b90600052602060002090600602016040518263ffffffff1660e01b8152600401610d7e9190612f38565b60006040518083038186803b158015610d9657600080fd5b505af4158015610daa573d6000803e3d6000fd5b50505050565b6012546001600160a01b031681565b6003546001600160a01b03163314610de95760405162461bcd60e51b81526004016104389061325a565b6003600f8054610dfb90600190613956565b81548110610e1957634e487b7160e01b600052603260045260246000fd5b600091825260209091206006918202016005015460ff1690811115610e4e57634e487b7160e01b600052602160045260246000fd5b14610e6b5760405162461bcd60e51b815260040161043890613223565b600f805473__$94d7d2f22770e4b0d1a2b99fb2812308e2$__9163ec7ac2f09161076790600190613956565b60018054600254600354600454600580546001600160a01b039586169694861695909316939192610ec790613d9c565b80601f0160208091040260200160405190810160405280929190818152602001828054610ef390613d9c565b8015610f405780601f10610f1557610100808354040283529160200191610f40565b820191906000526020600020905b815481529060010190602001808311610f2357829003601f168201915b505050505090806007016040518060e001604052908160008201548152602001600182015481526020016002820154815260200160038201805480602002602001604051908101604052809291908181526020018280548015610fc257602002820191906000526020600020905b815481526020019060010190808311610fae575b5050505050815260200160048201805480602002602001604051908101604052809291908181526020016000905b8282101561105c5760008481526020908190208301805460408051828502810185019091528181529283018282801561104857602002820191906000526020600020905b815481526020019060010190808311611034575b505050505081526020019060010190610ff0565b50505050815260200160058201805480602002602001604051908101604052809291908181526020016000905b828210156110f5576000848152602090819020830180546040805182850281018501909152818152928301828280156110e157602002820191906000526020600020905b8154815260200190600101908083116110cd575b505050505081526020019060010190611089565b50505050815260200160068201805461110d90613d9c565b80601f016020809104026020016040519081016040528092919081815260200182805461113990613d9c565b80156111865780601f1061115b57610100808354040283529160200191611186565b820191906000526020600020905b81548152906001019060200180831161116957829003601f168201915b505050505081525050905086565b6060600f805480602002602001604051908101604052809291908181526020016000905b828210156112ba5760008481526020908190206040805160c0810182526006860290920180546001600160a01b03168352600181015483850152600281015483830152600381015460608401526004810180548351818702810187019094528084529394919360808601939283018282801561125357602002820191906000526020600020905b81548152602001906001019080831161123f575b5050509183525050600582015460209091019060ff16600681111561128857634e487b7160e01b600052602160045260246000fd5b60068111156112a757634e487b7160e01b600052602160045260246000fd5b81525050815260200190600101906111b8565b50505050905090565b6011546001600160a01b031681565b600073__$94d7d2f22770e4b0d1a2b99fb2812308e2$__630bc1c42a600f6001600f805490506113029190613956565b8154811061132057634e487b7160e01b600052603260045260246000fd5b90600052602060002090600602016001600701600301858154811061135557634e487b7160e01b600052603260045260246000fd5b90600052602060002001546040518363ffffffff1660e01b815260040161137d9291906135a8565b60206040518083038186803b15801561139557600080fd5b505af41580156113a9573d6000803e3d6000fd5b505050506040513d601f19601f8201168201806040525081019061041091906124ee565b6003546001600160a01b031633146113f75760405162461bcd60e51b81526004016104389061325a565b6004600f805461140990600190613956565b8154811061142757634e487b7160e01b600052603260045260246000fd5b600091825260209091206006918202016005015460ff169081111561145c57634e487b7160e01b600052602160045260246000fd5b146114795760405162461bcd60e51b81526004016104389061336d565b600f805473__$94d7d2f22770e4b0d1a2b99fb2812308e2$__916359111fb59161076790600190613956565b600f546040517f5cc1f6b500000000000000000000000000000000000000000000000000000000815260009173__$94d7d2f22770e4b0d1a2b99fb2812308e2$__91635cc1f6b5916114fd9160069190600401612e61565b60206040518083038186803b15801561151557600080fd5b505af4158015611529573d6000803e3d6000fd5b505050506040513d601f19601f8201168201806040525081019061154d91906124ba565b905090565b6012546000906001600160a01b03161561157e5760405162461bcd60e51b8152600401610438906130d9565b6010546013546040517f69a1f78400000000000000000000000000000000000000000000000000000000815273__$94d7d2f22770e4b0d1a2b99fb2812308e2$__926369a1f784926115e09287926001600160a01b03169130916004016135ca565b604080518083038186803b1580156115f757600080fd5b505af415801561160b573d6000803e3d6000fd5b505050506040513d601f19601f8201168201806040525081019061162f91906123b1565b6012805473ffffffffffffffffffffffffffffffffffffffff19166001600160a01b03939093169290921790915592915050565b6010546001600160a01b031681565b600073__$94d7d2f22770e4b0d1a2b99fb2812308e2$__63f060d0b6600160050184815481106116b257634e487b7160e01b600052603260045260246000fd5b9060005260206000209060050201306040518363ffffffff1660e01b81526004016116de9291906136ed565b60006040518083038186803b1580156116f657600080fd5b505af415801561170a573d6000803e3d6000fd5b505050506040513d6000823e601f3d908101601f19168201604052611732919081019061252e565b90506105a26001600501838154811061175b57634e487b7160e01b600052603260045260246000fd5b906000526020600020906005020160010160029054906101000a900460ff166001600501848154811061179e57634e487b7160e01b600052603260045260246000fd5b906000526020600020906005020160020154600160050185815481106117d457634e487b7160e01b600052603260045260246000fd5b906000526020600020906005020160010160019054906101000a900460ff1684611ae6565b7fbc197c810000000000000000000000000000000000000000000000000000000098975050505050505050565b60145481565b6003546001600160a01b031633146118565760405162461bcd60e51b81526004016104389061325a565b6004600f805461186890600190613956565b8154811061188657634e487b7160e01b600052603260045260246000fd5b600091825260209091206006918202016005015460ff16908111156118bb57634e487b7160e01b600052602160045260246000fd5b146118d85760405162461bcd60e51b81526004016104389061336d565b60145442116118f95760405162461bcd60e51b8152600401610438906131b5565b600f805473__$94d7d2f22770e4b0d1a2b99fb2812308e2$__916348cc49d59161192590600190613956565b8154811061194357634e487b7160e01b600052603260045260246000fd5b9060005260206000209060060201836040518363ffffffff1660e01b815260040161196f929190613515565b60006040518083038186803b15801561198757600080fd5b505af415801561199b573d6000803e3d6000fd5b5050505050565b60135481565b7ff23a6e61000000000000000000000000000000000000000000000000000000005b9695505050505050565b3373e7f1725e7734ce288f8367e1bb143e90bb3f051214611a075760405162461bcd60e51b815260040161043890613110565b6000611a19604083016020840161223d565b6001600160a01b03161415611a405760405162461bcd60e51b815260040161043890613291565b601080546001600160a01b0380871673ffffffffffffffffffffffffffffffffffffffff199283161790925560118054928616929091169190911790556013829055806001611a8f82826140aa565b505050505050565b6001600160e01b031981167f01ffc9a70000000000000000000000000000000000000000000000000000000014919050565b600454611ad7906001613937565b611ae1904261391f565b601455565b60008381526017602052604090205460ff1615611b155760405162461bcd60e51b81526004016104389061306b565b8115611b39576000838152601760205260409020805460ff19166001179055611b94565b600f54611b4890600190613956565b60008481526018602052604090205414611b745760405162461bcd60e51b815260040161043890613336565b6000838152601860205260408120805491611b8e83613de4565b91905055505b60008381526016602090815260409091208251611bb392840190612022565b508360ff166004811115611bd757634e487b7160e01b600052602160045260246000fd5b6000848152601960205260409020805460ff19166001836004811115611c0d57634e487b7160e01b600052602160045260246000fd5b021790555050505050565b601154600f80546040517f5069a07c000000000000000000000000000000000000000000000000000000008152919273__$94d7d2f22770e4b0d1a2b99fb2812308e2$__92635069a07c92611c80926008926001600160a01b039091169130916004016134c5565b60006040518083038186803b158015611c9857600080fd5b505af4158015611cac573d6000803e3d6000fd5b505050506040513d6000823e601f3d908101601f19168201604052611cd4919081019061260b565b81546001808201845560009384526020938490208351600690930201805473ffffffffffffffffffffffffffffffffffffffff19166001600160a01b03909316929092178255828401519082015560408201516002820155606082015160038201556080820151805192939192611d5192600485019201906120a6565b5060a082015160058201805460ff19166001836006811115611d8357634e487b7160e01b600052602160045260246000fd5b02179055505050565b60005b6007548110156108e057611da281611eb9565b5080611dad81613de4565b915050611d8f565b6012546001600160a01b031615801590611e505750601260009054906101000a90046001600160a01b03166001600160a01b031663999925066040518163ffffffff1660e01b815260040160206040518083038186803b158015611e1857600080fd5b505afa158015611e2c573d6000803e3d6000fd5b505050506040513d601f19601f82011682018060405250810190611e5091906124ba565b156107e757601260009054906101000a90046001600160a01b03166001600160a01b0316633a275fa26040518163ffffffff1660e01b8152600401600060405180830381600087803b158015611ea557600080fd5b505af1158015610daa573d6000803e3d6000fd5b606060016006018281548110611edf57634e487b7160e01b600052603260045260246000fd5b600091825260209091206004909102015460ff1615611f105760405162461bcd60e51b815260040161043890613412565b6007805483908110611f3257634e487b7160e01b600052603260045260246000fd5b906000526020600020906004020160020154471015611f635760405162461bcd60e51b815260040161043890613147565b73__$94d7d2f22770e4b0d1a2b99fb2812308e2$__634431129360016006018481548110611fa157634e487b7160e01b600052603260045260246000fd5b906000526020600020906004020160166040518363ffffffff1660e01b8152600401611fce9291906134b7565b60006040518083038186803b158015611fe657600080fd5b505af4158015611ffa573d6000803e3d6000fd5b505050506040513d6000823e601f3d908101601f19168201604052610410919081019061252e565b82805461202e90613d9c565b90600052602060002090601f0160209004810192826120505760008555612096565b82601f1061206957805160ff1916838001178555612096565b82800160010185558215612096579182015b8281111561209657825182559160200191906001019061207b565b506120a29291506120e0565b5090565b828054828255906000526020600020908101928215612096579160200282018281111561209657825182559160200191906001019061207b565b5b808211156120a257600081556001016120e1565b803561041381614319565b60008083601f840112612111578182fd5b50813567ffffffffffffffff811115612128578182fd5b602083019150836020808302850101111561214257600080fd5b9250929050565b600082601f830112612159578081fd5b8151602061216e6121698361381c565b6137f2565b828152818101908583018385028701840188101561218a578586fd5b855b858110156121a85781518452928401929084019060010161218c565b5090979650505050505050565b80356104138161432e565b60008083601f8401126121d1578182fd5b50813567ffffffffffffffff8111156121e8578182fd5b60208301915083602082850101111561214257600080fd5b805161041381614319565b80516007811061041357600080fd5b6000610100828403121561222c578081fd5b50919050565b80356104138161433c565b60006020828403121561224e578081fd5b813561225981614319565b9392505050565b600060208284031215612271578081fd5b815161225981614319565b60008060008060008060008060a0898b031215612297578384fd5b88356122a281614319565b975060208901356122b281614319565b9650604089013567ffffffffffffffff808211156122ce578586fd5b6122da8c838d01612100565b909850965060608b01359150808211156122f2578586fd5b6122fe8c838d01612100565b909650945060808b0135915080821115612316578384fd5b506123238b828c016121c0565b999c989b5096995094979396929594505050565b60008060008060008060a0878903121561234f578384fd5b863561235a81614319565b9550602087013561236a81614319565b94506040870135935060608701359250608087013567ffffffffffffffff811115612393578283fd5b61239f89828a016121c0565b979a9699509497509295939492505050565b600080604083850312156123c3578182fd5b82516123ce81614319565b60208401519092506123df81614319565b809150509250929050565b600080602083850312156123fc578182fd5b823567ffffffffffffffff811115612412578283fd5b61241e85828601612100565b90969095509350505050565b6000602080838503121561243c578182fd5b823567ffffffffffffffff811115612452578283fd5b8301601f81018513612462578283fd5b80356124706121698261381c565b818152838101908385018584028501860189101561248c578687fd5b8694505b838510156124ae578035835260019490940193918501918501612490565b50979650505050505050565b6000602082840312156124cb578081fd5b81516122598161432e565b6000602082840312156124e7578081fd5b5035919050565b6000602082840312156124ff578081fd5b5051919050565b600060208284031215612517578081fd5b81356001600160e01b031981168114612259578182fd5b60006020828403121561253f578081fd5b815167ffffffffffffffff811115612555578182fd5b8201601f81018413612565578182fd5b805161257361216982613840565b818152856020838501011115612587578384fd5b612598826020830160208601613d70565b95945050505050565b600080600080608085870312156125b6578182fd5b84356125c181614319565b935060208501356125d181614319565b925060408501359150606085013567ffffffffffffffff8111156125f3578182fd5b6125ff8782880161221a565b91505092959194509250565b60006020828403121561261c578081fd5b815167ffffffffffffffff80821115612633578283fd5b9083019060c08286031215612646578283fd5b60405160c08101818110838211171561266157612661613e2b565b60405261266d83612200565b815260208301516020820152604083015160408201526060830151606082015260808301518281111561269e578485fd5b6126aa87828601612149565b6080830152506126bc60a0840161220b565b60a082015295945050505050565b6000602082840312156126db578081fd5b813567ffffffffffffffff8111156126f1578182fd5b6126fd8482850161221a565b949350505050565b600080600060608486031215612719578081fd5b83356127248161433c565b925060208401359150604084013567ffffffffffffffff811115612746578182fd5b8401601f81018613612756578182fd5b803561276461216982613840565b818152876020838501011115612778578384fd5b8160208401602083013783602083830101528093505050509250925092565b6001600160a01b03169052565b818352602080840193600091908185020181018584845b878110156127f15782840389526127d28288613874565b6127dd868284612a20565b9a87019a95505050908401906001016127bb565b5091979650505050505050565b6000815180845260208085018081965082840281019150828601855b858110156127f1578284038952612832848351612a6d565b9885019893509084019060010161281a565b6000815480845260208085018081965082840281019150858552828520855b858110156127f157828403895261287a8483612aa7565b98850198935060019182019101612863565b818352602080840193600091908185020181018584845b878110156127f1578284038952813560be198836030181126128c3578687fd5b870160c081356128d28161432e565b15158652818701356128e38161432e565b15158688015260406128f68382016120f5565b61290282890182612797565b5050606082810135908701526080808301359087015260a0612926818401846138bc565b9350828289015261293a8389018583612adf565b9c89019c975050509286019250506001016128a3565b818352602080840193600091908185020181018584845b878110156127f157828403895261297e8288613901565b60e081358652868201356129918161432e565b61299d88880182612ad9565b5060406129ab8184016121b5565b6129b782890182612ad9565b505060606129c6818401612232565b6129d282890182612d4a565b50506080828101359087015260a0808301359087015260c06129f6818401846138bc565b93508282890152612a0a8389018583612adf565b9c89019c97505050928601925050600101612967565b60008284527f07ffffffffffffffffffffffffffffffffffffffffffffffffffffffffffffff831115612a51578081fd5b6020830280836020870137939093016020019283525090919050565b6000815180845260208085019450808401835b83811015612a9c57815187529582019590820190600101612a80565b509495945050505050565b6000815480845260208085019450838352808320835b83811015612a9c57815487529582019560019182019101612abd565b15159052565b60008284528282602086013780602084860101526020601f19601f85011685010190509392505050565b60008151808452612b21816020860160208601613d70565b601f01601f19169290920160200192915050565b60008154612b4281613d9c565b808552602060018381168015612b5f5760018114612b7357612ba1565b60ff19851688840152604088019550612ba1565b866000528260002060005b85811015612b995781548a8201860152908301908401612b7e565b890184019650505b505050505092915050565b60078110612bca57634e487b7160e01b600052602160045260246000fd5b9052565b6000813583526020820135602084015260408201356040840152612bf56060830183613874565b60e06060860152612c0a60e086018284612a20565b915050612c1a6080840184613874565b8583036080870152612c2d8382846127a4565b92505050612c3e60a0840184613874565b85830360a0870152612c518382846127a4565b92505050612c6260c08401846138bc565b85830360c08701526119ca838284612adf565b600081548352600182015460208401526002820154604084015260e06060840152612ca660e0840160038401612aa7565b8381036080850152612cbb8160048501612844565b905083810360a0850152612cd28160058501612844565b905083810360c08501526126fd8160068501612b35565b60006001600160a01b03825416835260018201546020840152600282015460408401526003820154606084015260c06080840152612d2d60c0840160048401612aa7565b60ff600584015416612d4260a0860182612bac565b509392505050565b60ff169052565b6001600160a01b0391909116815260200190565b60006001600160a01b03808716835260806020840152612d886080840187612c75565b8381036040850152612d9a8187612ce9565b92505080841660608401525095945050505050565b60208082528251828201819052600091906040908185019080840286018301878501865b83811015612e5357603f19898403018552815160c06001600160a01b0382511685528882015189860152878201518886015260608083015181870152506080808301518282880152612e2783880182612a6d565b9250505060a0808301519250612e3f81870184612bac565b509588019593505090860190600101612dd3565b509098975050505050505050565b60006040808301818452808654808352606092508286019150602083818302880101898752818720875b84811015612f1a57605f198a840301865260e082548452600183015460ff612eb7878701828416612ad9565b612ec88b8701828460081c16612ad9565b612ed98a8701828460101c16612d4a565b505060028301546080850152600383015460a08501528060c0850152612f0481850160048501612b35565b9685019693505060059190910190600101612e8b565b5050960196909652509295945050505050565b901515815260200190565b90815260200190565b6001600160e01b031991909116815260200190565b6000602082526122596020830184612b09565b600060a0820190506001600160a01b03871682528560208301528460408301528360608301526119ca6080830184612bac565b60006001600160a01b038089168352808816602084015280871660408401525084606083015260c06080830152612fd660c0830185612b09565b82810360a0840152835181526020840151602082015260408401516040820152606084015160e0606083015261300f60e0830182612a6d565b90506080850151828203608084015261302882826127fe565b91505060a085015182820360a084015261304282826127fe565b91505060c085015182820360c084015261305c8282612b09565b9b9a5050505050505050505050565b6020808252600b908201527f506f7274206c6f636b6564000000000000000000000000000000000000000000604082015260600190565b6020808252600a908201527f4f6e6c794b656570657200000000000000000000000000000000000000000000604082015260600190565b60208082526010908201527f536f6c76657220686173206368696c6400000000000000000000000000000000604082015260600190565b6020808252600c908201527f4f6e6c7920666163746f72790000000000000000000000000000000000000000604082015260600190565b60208082526010908201527f696e73756666696369656e742065746800000000000000000000000000000000604082015260600190565b6020808252600b908201527f4f6e6c79204b6565706572000000000000000000000000000000000000000000604082015260600190565b60208082526015908201527f54696d656c6f636b207374696c6c206c6f636b65640000000000000000000000604082015260600190565b6020808252600f908201527f696e676573747320696e76616c69640000000000000000000000000000000000604082015260600190565b60208082526018908201527f4e6f74204172626974726174696f6e5265717565737465640000000000000000604082015260600190565b6020808252600f908201527f4f6e6c792061726269747261746f720000000000000000000000000000000000604082015260600190565b6020808252600e908201527f4b656570657220696e76616c6964000000000000000000000000000000000000604082015260600190565b60208082526014908201527f4f7574636f6d65206e6f742070726f706f736564000000000000000000000000604082015260600190565b60208082526013908201527f4e6f74204f7574636f6d6550726f706f73656400000000000000000000000000604082015260600190565b60208082526014908201527f506f72742076657273696f6e20696e76616c6964000000000000000000000000604082015260600190565b60208082526016908201527f4e6f74204172626974726174696f6e50656e64696e6700000000000000000000604082015260600190565b60208082526012908201527f436f6e646974696f6e2045786563757465640000000000000000000000000000604082015260600190565b6020808252600e908201527f547261636b696e67496420736574000000000000000000000000000000000000604082015260600190565b6020808252600f908201527f616374696f6e2065786563757465640000000000000000000000000000000000604082015260600190565b6020808252600d908201527f506f727420696e76616c69642e00000000000000000000000000000000000000604082015260600190565b6020808252600d908201527f6e6f7420496e6974696174656400000000000000000000000000000000000000604082015260600190565b918252602082015260400190565b6000608082526134d86080830187612c75565b6001600160a01b0395861660208401529390941660408201526060015292915050565b600084825260406020830152612598604083018486612a20565b60006040820184835260206040818501528185518084526060860191508287019350845b818110156121a857845183529383019391830191600101613539565b600060c0825261356860c0830189612ce9565b6001600160a01b038089166020850152838203604085015261358a8289612c75565b961660608401525050608081019290925260a0909101529392505050565b6000604082526135bb6040830185612ce9565b90508260208301529392505050565b6000608082526135e5608083016135e0886120f5565b612797565b6135f1602087016120f5565b6135fe60a0840182612797565b5061360b604087016120f5565b61361860c0840182612797565b50606086013560e083015261363060808701876138bc565b6101008481015261364661018085018284612adf565b91505061365660a0880188613874565b607f19808685030161012087015261366f848385612950565b935061367e60c08b018b613874565b93509150808685030161014087015261369884848461288c565b93506136a760e08b018b613901565b9250808685030161016087015250506136c08282612bce565b925050506136d16020830186612797565b6136de6040830185612797565b82606083015295945050505050565b9182526001600160a01b0316602082015260400190565b9485526001600160a01b03938416602086015291831660408501529091166060830152608082015260a00190565b6000808335601e19843603018112613748578283fd5b83018035915067ffffffffffffffff821115613762578283fd5b602090810192508102360382131561214257600080fd5b6000808335601e1984360301811261378f578283fd5b83018035915067ffffffffffffffff8211156137a9578283fd5b60200191503681900382131561214257600080fd5b6000823560be198336030181126137d3578182fd5b9190910192915050565b6000823560de198336030181126137d3578182fd5b60405181810167ffffffffffffffff8111828210171561381457613814613e2b565b604052919050565b600067ffffffffffffffff82111561383657613836613e2b565b5060209081020190565b600067ffffffffffffffff82111561385a5761385a613e2b565b50601f01601f191660200190565b60009081526020902090565b6000808335601e1984360301811261388a578283fd5b830160208101925035905067ffffffffffffffff8111156138aa57600080fd5b60208102360383131561214257600080fd5b6000808335601e198436030181126138d2578283fd5b830160208101925035905067ffffffffffffffff8111156138f257600080fd5b80360383131561214257600080fd5b6000823560de19833603018112613916578182fd5b90910192915050565b6000821982111561393257613932613e15565b500190565b600081600019048311821515161561395157613951613e15565b500290565b60008282101561396857613968613e15565b500390565b5b818110156105a2576000815560010161396e565b6801000000000000000083111561399b5761399b613e2b565b8054838255808410156139d9576000828152602081208581019083015b808210156139d5576139ca8383613e54565b6001820191506139b8565b5050505b50816139e482613868565b6000805b86811015613a1b576139fa8487613732565b613a0681838688614187565b505060209390930192600192830192016139e8565b50505050505050565b68010000000000000000831115613a3d57613a3d613e2b565b805483825580841015613aec577f3fffffffffffffffffffffffffffffffffffffffffffffffffffffffffffffff6001818311811615613a7f57613a7f613e15565b6004828711821615613a9357613a93613e15565b600085815260208120909350878202810190828602015b80821015613ae657848255613ac285868685016142fa565b613ad08586600285016142fa565b613add8560038401613e91565b90820190613aaa565b50505050505b5081613af782613868565b6000805b86811015613a1b57613b17613b1085886137be565b83856141a0565b6020939093019260049290920191600101613afb565b68010000000000000000831115613b4657613b46613e2b565b805483825580841015613c03577f33333333333333333333333333333333333333333333333333333333333333336001818311811615613b8857613b88613e15565b6005828711821615613b9c57613b9c613e15565b600085815260208120909350878202810190828602015b80821015613bfd57613bc68586846142fa565b8484830155613bd98586600285016142fa565b613be78586600385016142fa565b613bf48560048401613e91565b90820190613bb3565b50505050505b5081613c0e82613868565b6000805b86811015613a1b57613c2e613c2785886137dd565b838561425f565b6020939093019260059290920191600101613c12565b613c4e8382613e54565b818160005260208060002060005b86811015613a1b57833582559282019260019182019101613c5c565b67ffffffffffffffff831115613c9057613c90613e2b565b613c9a8154613d9c565b600080601f8611601f841181811715613cb957613cb686613868565b92505b8015613ce8576020601f89010483016020891015613cd45750825b613ce66020601f88010485018261396d565b505b508060018114613d1457600094508715613d03578387013594505b613d0d8886613dd1565b8655613d66565b601f198816945082845b86811015613d3e5788860135825560209586019560019092019101613d1e565b5088861015613d5b57878501356000196008601f8c16021c191681555b506001600289020186555b5050505050505050565b60005b83811015613d8b578181015183820152602001613d73565b83811115610daa5750506000910152565b600281046001821680613db057607f821691505b6020821081141561222c57634e487b7160e01b600052602260045260246000fd5b600019600883021c191660029091021790565b6000600019821415613df857613df8613e15565b5060010190565b634e487b7160e01b600052600060045260246000fd5b634e487b7160e01b600052601160045260246000fd5b634e487b7160e01b600052604160045260246000fd5b60008135613e4e81614319565b92915050565b68010000000000000000821115613e6d57613e6d613e2b565b80548282558083101561086e57816000526020600020610daa82820185830161396d565b8115613e9f57613e9f613dff565b613ea98154613d9c565b801561086e57601f811160018114613ec45760008355610daa565b600083815260208120613ee26020601f86010482016001830161396d565b50838152602081208185555550505050565b6001600160a01b03821673ffffffffffffffffffffffffffffffffffffffff198254161781555050565b60ff1981541660ff8315151681178255505050565b8135815560016020808401358284015560408401356002840155613f5a6060850185613732565b613f68818360038801613c44565b5050613f776080850185613732565b613f85818360048801613982565b5050613f9460a0850185613732565b613fa2818360058801613982565b505060068301613fb560c0860186613779565b67ffffffffffffffff811115613fcd57613fcd613e2b565b613fd78354613d9c565b600080601f8411601f841181811715613ff657613ff388613868565b92505b80156140225788601f87010483018987101561400f5750825b6140208a601f88010485018261396d565b505b50806001811461404e5760009450851561403d578387013594505b6140478686613dd1565b885561409c565b601f198616945082845b8681101561407557888601358255948a0194908b01908a01614058565b508686101561409257878501356000196008601f8a16021c191681555b5089600287020188555b505050505050505050505050565b81356140b581614319565b6140bf8183613ef4565b5060208201356140ce81614319565b6140db8160018401613ef4565b506140f46140eb60408401613e41565b60028301613ef4565b6060820135600382015561410b6080830183613779565b614119818360048601613c78565b505061412860a0830183613732565b614136818360058601613b2d565b505061414560c0830183613732565b614153818360068601613a24565b50506105a261416560e08401846137dd565b60078301613f33565b805461ff00191691151560081b61ff0016919091179055565b811561419557614195613dff565b610daa848483613c44565b81156141ae576141ae613dff565b82356141b98161432e565b6141c38183613f1e565b5060208301356141d28161432e565b6141dc818361416e565b5060408301356141eb81614319565b81547fffffffffffffffffffff0000000000000000000000000000000000000000ffff1660109190911b75ffffffffffffffffffffffffffffffffffffffff000016178155606083013560018201556080830135600282015561425160a0840184613779565b61199b818360038601613c78565b811561426d5761426d613dff565b823581556001810160208401356142838161432e565b61428d8183613f1e565b50604084013561429c8161432e565b6142a6818361416e565b5060608401356142b58161433c565b815462ff0000191660109190911b62ff0000161790556080830135600282015560a083013560038201556142ec60c0840184613779565b61199b818360048601613c78565b805460088302600019811b8086831b1681198416178455505050505050565b6001600160a01b03811681146108e057600080fd5b80151581146108e057600080fd5b60ff811681146108e057600080fdfea264697066735822122063845b86c7606d15371a3a49c861b7242e896e0e1be4c11f89acd1110f5ff20b64736f6c63430008000033",
  "linkReferences": {
    "contracts/SolverLib.sol": {
      "SolverLib": [
        {
          "length": 20,
          "start": 1304
        },
        {
          "length": 20,
          "start": 1889
        },
        {
          "length": 20,
          "start": 2359
        },
        {
          "length": 20,
          "start": 2789
        },
        {
          "length": 20,
          "start": 2991
        },
        {
          "length": 20,
          "start": 3376
        },
        {
          "length": 20,
          "start": 3729
        },
        {
          "length": 20,
          "start": 4854
        },
        {
          "length": 20,
          "start": 5279
        },
        {
          "length": 20,
          "start": 5363
        },
        {
          "length": 20,
          "start": 5580
        },
        {
          "length": 20,
          "start": 5782
        },
        {
          "length": 20,
          "start": 6431
        },
        {
          "length": 20,
          "start": 7273
        },
        {
          "length": 20,
          "start": 8069
        }
      ]
    }
  },
  "deployedLinkReferences": {
    "contracts/SolverLib.sol": {
      "SolverLib": [
        {
          "length": 20,
          "start": 1272
        },
        {
          "length": 20,
          "start": 1857
        },
        {
          "length": 20,
          "start": 2327
        },
        {
          "length": 20,
          "start": 2757
        },
        {
          "length": 20,
          "start": 2959
        },
        {
          "length": 20,
          "start": 3344
        },
        {
          "length": 20,
          "start": 3697
        },
        {
          "length": 20,
          "start": 4822
        },
        {
          "length": 20,
          "start": 5247
        },
        {
          "length": 20,
          "start": 5331
        },
        {
          "length": 20,
          "start": 5548
        },
        {
          "length": 20,
          "start": 5750
        },
        {
          "length": 20,
          "start": 6399
        },
        {
          "length": 20,
          "start": 7241
        },
        {
          "length": 20,
          "start": 8037
        }
      ]
    }
  }
}