{
  "_format": "hh-sol-artifact-1",
  "contractName": "Solver",
  "sourceName": "contracts/Solver.sol",
  "abi": [
    {
      "inputs": [
        {
          "internalType": "uint8",
          "name": "_type",
          "type": "uint8"
        },
        {
          "internalType": "uint256",
          "name": "_key",
          "type": "uint256"
        },
        {
          "internalType": "bytes",
          "name": "_data",
          "type": "bytes"
        }
      ],
      "name": "addData",
      "outputs": [],
      "stateMutability": "nonpayable",
      "type": "function"
    },
    {
      "inputs": [
        {
          "internalType": "uint256",
          "name": "_index",
          "type": "uint256"
        }
      ],
      "name": "addressFromChainIndex",
      "outputs": [
        {
          "internalType": "address",
          "name": "_address",
          "type": "address"
        }
      ],
      "stateMutability": "view",
      "type": "function"
    },
    {
      "inputs": [
        {
          "internalType": "uint256[]",
          "name": "payouts",
          "type": "uint256[]"
        }
      ],
      "name": "arbitrate",
      "outputs": [],
      "stateMutability": "nonpayable",
      "type": "function"
    },
    {
      "inputs": [],
      "name": "arbitrateNull",
      "outputs": [],
      "stateMutability": "nonpayable",
      "type": "function"
    },
    {
      "inputs": [],
      "name": "arbitrationPending",
      "outputs": [],
      "stateMutability": "nonpayable",
      "type": "function"
    },
    {
      "inputs": [],
      "name": "arbitrationRequested",
      "outputs": [],
      "stateMutability": "nonpayable",
      "type": "function"
    },
    {
      "inputs": [],
      "name": "chainChild",
      "outputs": [
        {
          "internalType": "address",
          "name": "",
          "type": "address"
        }
      ],
      "stateMutability": "view",
      "type": "function"
    },
    {
      "inputs": [],
      "name": "chainIndex",
      "outputs": [
        {
          "internalType": "uint256",
          "name": "",
          "type": "uint256"
        }
      ],
      "stateMutability": "view",
      "type": "function"
    },
    {
      "inputs": [],
      "name": "chainParent",
      "outputs": [
        {
          "internalType": "address",
          "name": "",
          "type": "address"
        }
      ],
      "stateMutability": "view",
      "type": "function"
    },
    {
      "inputs": [
        {
          "internalType": "uint256",
          "name": "",
          "type": "uint256"
        }
      ],
      "name": "conditions",
      "outputs": [
        {
          "internalType": "contract IERC20",
          "name": "collateralToken",
          "type": "address"
        },
        {
          "internalType": "bytes32",
          "name": "questionId",
          "type": "bytes32"
        },
        {
          "internalType": "bytes32",
          "name": "parentCollectionId",
          "type": "bytes32"
        },
        {
          "internalType": "bytes32",
          "name": "conditionId",
          "type": "bytes32"
        },
        {
          "internalType": "enum SolverLib.Status",
          "name": "status",
          "type": "uint8"
        }
      ],
      "stateMutability": "view",
      "type": "function"
    },
    {
      "inputs": [],
      "name": "config",
      "outputs": [
        {
          "internalType": "contract Solver",
          "name": "implementation",
          "type": "address"
        },
        {
          "internalType": "address",
          "name": "keeper",
          "type": "address"
        },
        {
          "internalType": "address",
          "name": "arbitrator",
          "type": "address"
        },
        {
          "internalType": "uint256",
          "name": "timelockSeconds",
          "type": "uint256"
        },
        {
          "internalType": "bytes",
          "name": "data",
          "type": "bytes"
        },
        {
          "components": [
            {
              "internalType": "contract IERC20",
              "name": "collateralToken",
              "type": "address"
            },
            {
              "internalType": "uint256",
              "name": "outcomeSlots",
              "type": "uint256"
            },
            {
              "internalType": "uint256",
              "name": "parentCollectionPartitionIndex",
              "type": "uint256"
            },
            {
              "internalType": "uint256",
              "name": "amount",
              "type": "uint256"
            },
            {
              "internalType": "uint256[]",
              "name": "partition",
              "type": "uint256[]"
            },
            {
              "internalType": "uint256[][]",
              "name": "recipientAddressPorts",
              "type": "uint256[][]"
            },
            {
              "internalType": "uint256[][]",
              "name": "recipientAmounts",
              "type": "uint256[][]"
            },
            {
              "internalType": "string",
              "name": "metadata",
              "type": "string"
            }
          ],
          "internalType": "struct SolverLib.ConditionBase",
          "name": "conditionBase",
          "type": "tuple"
        }
      ],
      "stateMutability": "view",
      "type": "function"
    },
    {
      "inputs": [],
      "name": "confirmPayouts",
      "outputs": [],
      "stateMutability": "nonpayable",
      "type": "function"
    },
    {
      "inputs": [
        {
          "internalType": "uint256",
          "name": "_index",
          "type": "uint256"
        }
      ],
      "name": "deferredIngest",
      "outputs": [],
      "stateMutability": "nonpayable",
      "type": "function"
    },
    {
      "inputs": [
        {
          "components": [
            {
              "internalType": "contract Solver",
              "name": "implementation",
              "type": "address"
            },
            {
              "internalType": "address",
              "name": "keeper",
              "type": "address"
            },
            {
              "internalType": "address",
              "name": "arbitrator",
              "type": "address"
            },
            {
              "internalType": "uint256",
              "name": "timelockSeconds",
              "type": "uint256"
            },
            {
              "internalType": "bytes",
              "name": "data",
              "type": "bytes"
            },
            {
              "components": [
                {
                  "internalType": "uint256",
                  "name": "executions",
                  "type": "uint256"
                },
                {
                  "internalType": "bool",
                  "name": "isDeferred",
                  "type": "bool"
                },
                {
                  "internalType": "bool",
                  "name": "isConstant",
                  "type": "bool"
                },
                {
                  "internalType": "uint8",
                  "name": "port",
                  "type": "uint8"
                },
                {
                  "internalType": "uint256",
                  "name": "key",
                  "type": "uint256"
                },
                {
                  "internalType": "uint256",
                  "name": "solverIndex",
                  "type": "uint256"
                },
                {
                  "internalType": "bytes",
                  "name": "data",
                  "type": "bytes"
                }
              ],
              "internalType": "struct SolverLib.Ingest[]",
              "name": "ingests",
              "type": "tuple[]"
            },
            {
              "components": [
                {
                  "internalType": "bool",
                  "name": "executed",
                  "type": "bool"
                },
                {
                  "internalType": "bool",
                  "name": "isPort",
                  "type": "bool"
                },
                {
                  "internalType": "address",
                  "name": "to",
                  "type": "address"
                },
                {
                  "internalType": "uint256",
                  "name": "portIndex",
                  "type": "uint256"
                },
                {
                  "internalType": "uint256",
                  "name": "value",
                  "type": "uint256"
                },
                {
                  "internalType": "bytes",
                  "name": "data",
                  "type": "bytes"
                }
              ],
              "internalType": "struct SolverLib.Action[]",
              "name": "actions",
              "type": "tuple[]"
            },
            {
              "components": [
                {
                  "internalType": "contract IERC20",
                  "name": "collateralToken",
                  "type": "address"
                },
                {
                  "internalType": "uint256",
                  "name": "outcomeSlots",
                  "type": "uint256"
                },
                {
                  "internalType": "uint256",
                  "name": "parentCollectionPartitionIndex",
                  "type": "uint256"
                },
                {
                  "internalType": "uint256",
                  "name": "amount",
                  "type": "uint256"
                },
                {
                  "internalType": "uint256[]",
                  "name": "partition",
                  "type": "uint256[]"
                },
                {
                  "internalType": "uint256[][]",
                  "name": "recipientAddressPorts",
                  "type": "uint256[][]"
                },
                {
                  "internalType": "uint256[][]",
                  "name": "recipientAmounts",
                  "type": "uint256[][]"
                },
                {
                  "internalType": "string",
                  "name": "metadata",
                  "type": "string"
                }
              ],
              "internalType": "struct SolverLib.ConditionBase",
              "name": "conditionBase",
              "type": "tuple"
            }
          ],
          "internalType": "struct SolverLib.Config",
          "name": "_config",
          "type": "tuple"
        }
      ],
      "name": "deployChild",
      "outputs": [
        {
          "internalType": "contract Solver",
          "name": "_solver",
          "type": "address"
        }
      ],
      "stateMutability": "nonpayable",
      "type": "function"
    },
    {
      "inputs": [],
      "name": "executeSolve",
      "outputs": [],
      "stateMutability": "nonpayable",
      "type": "function"
    },
    {
      "inputs": [
        {
          "internalType": "uint256",
          "name": "_partitionIndex",
          "type": "uint256"
        }
      ],
      "name": "getCanonCollectionId",
      "outputs": [
        {
          "internalType": "bytes32",
          "name": "collectionId",
          "type": "bytes32"
        }
      ],
      "stateMutability": "view",
      "type": "function"
    },
    {
      "inputs": [],
      "name": "getConditions",
      "outputs": [
        {
          "components": [
            {
              "internalType": "contract IERC20",
              "name": "collateralToken",
              "type": "address"
            },
            {
              "internalType": "bytes32",
              "name": "questionId",
              "type": "bytes32"
            },
            {
              "internalType": "bytes32",
              "name": "parentCollectionId",
              "type": "bytes32"
            },
            {
              "internalType": "bytes32",
              "name": "conditionId",
              "type": "bytes32"
            },
            {
              "internalType": "uint256[]",
              "name": "payouts",
              "type": "uint256[]"
            },
            {
              "internalType": "enum SolverLib.Status",
              "name": "status",
              "type": "uint8"
            }
          ],
          "internalType": "struct SolverLib.Condition[]",
          "name": "",
          "type": "tuple[]"
        }
      ],
      "stateMutability": "view",
      "type": "function"
    },
    {
      "inputs": [
        {
          "internalType": "uint256",
          "name": "_key",
          "type": "uint256"
        }
      ],
      "name": "getOutput",
      "outputs": [
        {
          "internalType": "bytes",
          "name": "data",
          "type": "bytes"
        }
      ],
      "stateMutability": "view",
      "type": "function"
    },
    {
      "inputs": [],
      "name": "ingestsValid",
      "outputs": [
        {
          "internalType": "bool",
          "name": "",
          "type": "bool"
        }
      ],
      "stateMutability": "view",
      "type": "function"
    },
    {
      "inputs": [
        {
          "internalType": "address",
          "name": "_chainParent",
          "type": "address"
        },
        {
          "internalType": "uint256",
          "name": "_chainIndex",
          "type": "uint256"
        },
        {
          "components": [
            {
              "internalType": "contract Solver",
              "name": "implementation",
              "type": "address"
            },
            {
              "internalType": "address",
              "name": "keeper",
              "type": "address"
            },
            {
              "internalType": "address",
              "name": "arbitrator",
              "type": "address"
            },
            {
              "internalType": "uint256",
              "name": "timelockSeconds",
              "type": "uint256"
            },
            {
              "internalType": "bytes",
              "name": "data",
              "type": "bytes"
            },
            {
              "components": [
                {
                  "internalType": "uint256",
                  "name": "executions",
                  "type": "uint256"
                },
                {
                  "internalType": "bool",
                  "name": "isDeferred",
                  "type": "bool"
                },
                {
                  "internalType": "bool",
                  "name": "isConstant",
                  "type": "bool"
                },
                {
                  "internalType": "uint8",
                  "name": "port",
                  "type": "uint8"
                },
                {
                  "internalType": "uint256",
                  "name": "key",
                  "type": "uint256"
                },
                {
                  "internalType": "uint256",
                  "name": "solverIndex",
                  "type": "uint256"
                },
                {
                  "internalType": "bytes",
                  "name": "data",
                  "type": "bytes"
                }
              ],
              "internalType": "struct SolverLib.Ingest[]",
              "name": "ingests",
              "type": "tuple[]"
            },
            {
              "components": [
                {
                  "internalType": "bool",
                  "name": "executed",
                  "type": "bool"
                },
                {
                  "internalType": "bool",
                  "name": "isPort",
                  "type": "bool"
                },
                {
                  "internalType": "address",
                  "name": "to",
                  "type": "address"
                },
                {
                  "internalType": "uint256",
                  "name": "portIndex",
                  "type": "uint256"
                },
                {
                  "internalType": "uint256",
                  "name": "value",
                  "type": "uint256"
                },
                {
                  "internalType": "bytes",
                  "name": "data",
                  "type": "bytes"
                }
              ],
              "internalType": "struct SolverLib.Action[]",
              "name": "actions",
              "type": "tuple[]"
            },
            {
              "components": [
                {
                  "internalType": "contract IERC20",
                  "name": "collateralToken",
                  "type": "address"
                },
                {
                  "internalType": "uint256",
                  "name": "outcomeSlots",
                  "type": "uint256"
                },
                {
                  "internalType": "uint256",
                  "name": "parentCollectionPartitionIndex",
                  "type": "uint256"
                },
                {
                  "internalType": "uint256",
                  "name": "amount",
                  "type": "uint256"
                },
                {
                  "internalType": "uint256[]",
                  "name": "partition",
                  "type": "uint256[]"
                },
                {
                  "internalType": "uint256[][]",
                  "name": "recipientAddressPorts",
                  "type": "uint256[][]"
                },
                {
                  "internalType": "uint256[][]",
                  "name": "recipientAmounts",
                  "type": "uint256[][]"
                },
                {
                  "internalType": "string",
                  "name": "metadata",
                  "type": "string"
                }
              ],
              "internalType": "struct SolverLib.ConditionBase",
              "name": "conditionBase",
              "type": "tuple"
            }
          ],
          "internalType": "struct SolverLib.Config",
          "name": "_solverConfig",
          "type": "tuple"
        }
      ],
      "name": "init",
      "outputs": [],
      "stateMutability": "nonpayable",
      "type": "function"
    },
    {
      "inputs": [
        {
          "internalType": "address",
          "name": "operator",
          "type": "address"
        },
        {
          "internalType": "address",
          "name": "from",
          "type": "address"
        },
        {
          "internalType": "uint256[]",
          "name": "ids",
          "type": "uint256[]"
        },
        {
          "internalType": "uint256[]",
          "name": "values",
          "type": "uint256[]"
        },
        {
          "internalType": "bytes",
          "name": "data",
          "type": "bytes"
        }
      ],
      "name": "onERC1155BatchReceived",
      "outputs": [
        {
          "internalType": "bytes4",
          "name": "",
          "type": "bytes4"
        }
      ],
      "stateMutability": "nonpayable",
      "type": "function"
    },
    {
      "inputs": [
        {
          "internalType": "address",
          "name": "operator",
          "type": "address"
        },
        {
          "internalType": "address",
          "name": "from",
          "type": "address"
        },
        {
          "internalType": "uint256",
          "name": "id",
          "type": "uint256"
        },
        {
          "internalType": "uint256",
          "name": "value",
          "type": "uint256"
        },
        {
          "internalType": "bytes",
          "name": "data",
          "type": "bytes"
        }
      ],
      "name": "onERC1155Received",
      "outputs": [
        {
          "internalType": "bytes4",
          "name": "",
          "type": "bytes4"
        }
      ],
      "stateMutability": "nonpayable",
      "type": "function"
    },
    {
      "inputs": [],
      "name": "prepareSolve",
      "outputs": [],
      "stateMutability": "nonpayable",
      "type": "function"
    },
    {
      "inputs": [
        {
          "internalType": "uint256[]",
          "name": "_payouts",
          "type": "uint256[]"
        }
      ],
      "name": "proposePayouts",
      "outputs": [],
      "stateMutability": "nonpayable",
      "type": "function"
    },
    {
      "inputs": [
        {
          "internalType": "uint256",
          "name": "",
          "type": "uint256"
        }
      ],
      "name": "receivedTokens",
      "outputs": [
        {
          "internalType": "uint256",
          "name": "",
          "type": "uint256"
        }
      ],
      "stateMutability": "view",
      "type": "function"
    },
    {
      "inputs": [],
      "name": "retrySolve",
      "outputs": [],
      "stateMutability": "nonpayable",
      "type": "function"
    },
    {
      "inputs": [
        {
          "internalType": "bytes32",
          "name": "_trackingId",
          "type": "bytes32"
        }
      ],
      "name": "setTrackingId",
      "outputs": [],
      "stateMutability": "nonpayable",
      "type": "function"
    },
    {
      "inputs": [
        {
          "internalType": "bytes4",
          "name": "interfaceId",
          "type": "bytes4"
        }
      ],
      "name": "supportsInterface",
      "outputs": [
        {
          "internalType": "bool",
          "name": "",
          "type": "bool"
        }
      ],
      "stateMutability": "view",
      "type": "function"
    },
    {
      "inputs": [],
      "name": "timelock",
      "outputs": [
        {
          "internalType": "uint256",
          "name": "",
          "type": "uint256"
        }
      ],
      "stateMutability": "view",
      "type": "function"
    },
    {
      "inputs": [],
      "name": "trackingId",
      "outputs": [
        {
          "internalType": "bytes32",
          "name": "",
          "type": "bytes32"
        }
      ],
      "stateMutability": "view",
      "type": "function"
    }
  ],
  "bytecode": "0x608060405234801561001057600080fd5b50614a28806100206000396000f3fe608060405234801561001057600080fd5b50600436106101da5760003560e01c80635bd1112311610104578063972a688b116100a2578063d7791e2611610071578063d7791e26146103af578063e7fd2059146103c2578063ea8221a9146103d5578063f23a6e61146103dd576101da565b8063972a688b14610377578063999925061461037f578063bc197c8114610387578063d33219b4146103a7576101da565b80637c123627116100de5780637c1236271461033457806380c2dde21461034957806384dbd3911461035157806394e0560014610364576101da565b80635bd11123146102ff5780636980c22b1461030757806379502c551461031a576101da565b80632c17b91e1161017c57806348d6bc001161014b57806348d6bc00146102d457806348f611be146102dc5780634da34efd146102e457806355dd978b146102f7576101da565b80632c17b91e1461028f5780633837b05e146102975780633a275fa2146102b757806348cbb2fc146102bf576101da565b806317861f87116101b857806317861f871461023057806318f792781461025057806326c50007146102585780632b3634271461027c576101da565b806301ffc9a7146101df5780630d06101a146102085780630d49722d1461021d575b600080fd5b6101f26101ed366004612bec565b6103f0565b6040516101ff9190613543565b60405180910390f35b61021b610216366004612bbc565b610436565b005b61021b61022b366004612ad0565b610464565b61024361023e366004612bbc565b6105c4565b6040516101ff919061356c565b61021b610694565b61026b610266366004612bbc565b6107ee565b6040516101ff9594939291906135e6565b61021b61028a366004612cf5565b61083c565b61021b610878565b6102aa6102a5366004612bbc565b610a4e565b6040516101ff919061337d565b61021b610b10565b6102c7610e2e565b6040516101ff919061354e565b61021b610e34565b61021b610f77565b61021b6102f23660046129f0565b611223565b6102aa6112df565b61021b6112ee565b6102aa610315366004612cc2565b6113c6565b6103226114cb565b6040516101ff96959493929190613619565b61033c6117db565b6040516101ff91906133d3565b6102aa61190a565b6102c761035f366004612bbc565b61191e565b61021b610372366004612bbc565b611a19565b61021b611c31565b6101f2611d09565b61039a610395366004612882565b611db6565b6040516101ff9190613557565b6102c7611de3565b6102c76103bd366004612bbc565b611de9565b61021b6103d0366004612b10565b611e0a565b6102c7611f79565b61039a6103eb36600461293d565b611f7f565b60006001600160e01b031982167f4e2312e000000000000000000000000000000000000000000000000000000000148061042e575061042e8261200d565b90505b919050565b6015541561045f5760405162461bcd60e51b815260040161045690613aa2565b60405180910390fd5b601555565b6002546001600160a01b0316331461048e5760405162461bcd60e51b815260040161045690613845565b6001601080546104a090600190613fd5565b815481106104be57634e487b7160e01b600052603260045260246000fd5b600091825260209091206006918202016005015460ff16908111156104f357634e487b7160e01b600052602160045260246000fd5b146105105760405162461bcd60e51b8152600401610456906137d7565b6010805473__$94d7d2f22770e4b0d1a2b99fb2812308e2$__91636a0a24f19161053c90600190613fd5565b8154811061055a57634e487b7160e01b600052603260045260246000fd5b906000526020600020906006020184846040518463ffffffff1660e01b815260040161058893929190613b7d565b60006040518083038186803b1580156105a057600080fd5b505af41580156105b4573d6000803e3d6000fd5b505050506105c061203f565b5050565b601054600082815260196020526040902054606091146105f65760405162461bcd60e51b8152600401610456906137a0565b6000828152601860205260409020805461060f90614427565b80601f016020809104026020016040519081016040528092919081815260200182805461063b90614427565b80156106885780601f1061065d57610100808354040283529160200191610688565b820191906000526020600020905b81548152906001019060200180831161066b57829003601f168201915b50505050509050919050565b6003546001600160a01b031633146106be5760405162461bcd60e51b815260040161045690613921565b6002601080546106d090600190613fd5565b815481106106ee57634e487b7160e01b600052603260045260246000fd5b600091825260209091206006918202016005015460ff169081111561072357634e487b7160e01b600052602160045260246000fd5b146107405760405162461bcd60e51b8152600401610456906139c6565b6010805473__$94d7d2f22770e4b0d1a2b99fb2812308e2$__916324b286029161076c90600190613fd5565b8154811061078a57634e487b7160e01b600052603260045260246000fd5b90600052602060002090600602016040518263ffffffff1660e01b81526004016107b4919061354e565b60006040518083038186803b1580156107cc57600080fd5b505af41580156107e0573d6000803e3d6000fd5b505050506107ec61203f565b565b601081815481106107fe57600080fd5b6000918252602090912060069091020180546001820154600283015460038401546005909401546001600160a01b0390931694509092909160ff1685565b6002546001600160a01b031633146108665760405162461bcd60e51b815260040161045690613732565b610873838360008461205c565b505050565b60115460ff16156109b6576002546001600160a01b03163314806108ab575060115461010090046001600160a01b031633145b6108c75760405162461bcd60e51b815260040161045690613a6b565b6005601080546108d990600190613fd5565b815481106108f757634e487b7160e01b600052603260045260246000fd5b600091825260209091206006918202016005015460ff169081111561092c57634e487b7160e01b600052602160045260246000fd5b148061099a575060066010805461094590600190613fd5565b8154811061096357634e487b7160e01b600052603260045260246000fd5b600091825260209091206006918202016005015460ff169081111561099857634e487b7160e01b600052602160045260246000fd5b145b6109b65760405162461bcd60e51b8152600401610456906136fb565b6011805460ff191660011790556109cb61213a565b6109d36122b2565b6012546001600160a01b0316156107ec57601260009054906101000a90046001600160a01b03166001600160a01b0316632c17b91e6040518163ffffffff1660e01b8152600401600060405180830381600087803b158015610a3457600080fd5b505af1158015610a48573d6000803e3d6000fd5b50505050565b6011546012546013546040517f9fa61fa300000000000000000000000000000000000000000000000000000000815260009373__$94d7d2f22770e4b0d1a2b99fb2812308e2$__93639fa61fa393610ac093889330936001600160a01b03610100909204821693911691600401613d6e565b60206040518083038186803b158015610ad857600080fd5b505af4158015610aec573d6000803e3d6000fd5b505050506040513d601f19601f8201168201806040525081019061042e9190612866565b600060108054610b2290600190613fd5565b81548110610b4057634e487b7160e01b600052603260045260246000fd5b600091825260209091206006918202016005015460ff1690811115610b7557634e487b7160e01b600052602160045260246000fd5b14610b925760405162461bcd60e51b815260040161045690613b10565b610b9a611d09565b610bb65760405162461bcd60e51b8152600401610456906138b3565b6010805460019190610bc9908390613fd5565b81548110610be757634e487b7160e01b600052603260045260246000fd5b906000526020600020906006020160050160006101000a81548160ff02191690836006811115610c2757634e487b7160e01b600052602160045260246000fd5b021790555073__$94d7d2f22770e4b0d1a2b99fb2812308e2$__6366662585601160019054906101000a90046001600160a01b0316600160070160106001601080549050610c759190613fd5565b81548110610c9357634e487b7160e01b600052603260045260246000fd5b90600052602060002090600602016040518463ffffffff1660e01b8152600401610cbf93929190613391565b60006040518083038186803b158015610cd757600080fd5b505af4158015610ceb573d6000803e3d6000fd5b50506010805473__$94d7d2f22770e4b0d1a2b99fb2812308e2$__935063366968289250610d1b90600190613fd5565b81548110610d3957634e487b7160e01b600052603260045260246000fd5b906000526020600020906006020160016007013060186015546040518663ffffffff1660e01b8152600401610d72959493929190613bd7565b60006040518083038186803b158015610d8a57600080fd5b505af4158015610d9e573d6000803e3d6000fd5b50506040517f7a00026d00000000000000000000000000000000000000000000000000000000815273__$94d7d2f22770e4b0d1a2b99fb2812308e2$__9250637a00026d9150610df6906007906018906004016133c5565b60006040518083038186803b158015610e0e57600080fd5b505af4158015610e22573d6000803e3d6000fd5b505050506107ec612317565b60155481565b6014544211610e555760405162461bcd60e51b81526004016104569061387c565b600260108054610e6790600190613fd5565b81548110610e8557634e487b7160e01b600052603260045260246000fd5b600091825260209091206006918202016005015460ff1690811115610eba57634e487b7160e01b600052602160045260246000fd5b14610ed75760405162461bcd60e51b81526004016104569061398f565b6010805473__$94d7d2f22770e4b0d1a2b99fb2812308e2$__9163696d466191610f0390600190613fd5565b81548110610f2157634e487b7160e01b600052603260045260246000fd5b90600052602060002090600602016040518263ffffffff1660e01b8152600401610f4b919061354e565b60006040518083038186803b158015610f6357600080fd5b505af4158015610a48573d6000803e3d6000fd5b601254604080517f7c12362700000000000000000000000000000000000000000000000000000000815290516000926001600160a01b031691637c1236279160048083019286929190829003018186803b158015610fd457600080fd5b505afa158015610fe8573d6000803e3d6000fd5b505050506040513d6000823e601f3d908101601f191682016040526110109190810190612a47565b6008548151919250735fbdb2315678afecb367f032d93f642f64180aa3916301b7037c916001600160a01b031690849061104c90600190613fd5565b8151811061106a57634e487b7160e01b600052603260045260246000fd5b60200260200101516040015184600186516110859190613fd5565b815181106110a357634e487b7160e01b600052603260045260246000fd5b60200260200101516060015160016007016004016040518563ffffffff1660e01b81526004016110d6949392919061357f565b600060405180830381600087803b1580156110f057600080fd5b505af1158015611104573d6000803e3d6000fd5b505060085460108054735fbdb2315678afecb367f032d93f642f64180aa394506301b7037c93506001600160a01b039092169161114390600190613fd5565b8154811061116157634e487b7160e01b600052603260045260246000fd5b906000526020600020906006020160020154601060016010805490506111879190613fd5565b815481106111a557634e487b7160e01b600052603260045260246000fd5b90600052602060002090600602016003015460016007016004016040518563ffffffff1660e01b81526004016111de949392919061357f565b600060405180830381600087803b1580156111f857600080fd5b505af115801561120c573d6000803e3d6000fd5b50505050611218610878565b611220610b10565b50565b3373e7f1725e7734ce288f8367e1bb143e90bb3f0512146112565760405162461bcd60e51b81526004016104569061380e565b60006112686040830160208401612843565b6001600160a01b0316141561128f5760405162461bcd60e51b815260040161045690613958565b601180547fffffffffffffffffffffff0000000000000000000000000000000000000000ff166101006001600160a01b0386160217905560138290558060016112d88282614751565b5050505050565b6012546001600160a01b031681565b6003546001600160a01b031633146113185760405162461bcd60e51b815260040161045690613921565b60036010805461132a90600190613fd5565b8154811061134857634e487b7160e01b600052603260045260246000fd5b600091825260209091206006918202016005015460ff169081111561137d57634e487b7160e01b600052602160045260246000fd5b1461139a5760405162461bcd60e51b8152600401610456906138ea565b6010805473__$94d7d2f22770e4b0d1a2b99fb2812308e2$__9163ec7ac2f09161076c90600190613fd5565b6012546000906001600160a01b0316156113f25760405162461bcd60e51b815260040161045690613769565b6013546040517f4dd0aa4900000000000000000000000000000000000000000000000000000000815273__$94d7d2f22770e4b0d1a2b99fb2812308e2$__91634dd0aa4991611448918691309190600401613c45565b604080518083038186803b15801561145f57600080fd5b505af4158015611473573d6000803e3d6000fd5b505050506040513d601f19601f8201168201806040525081019061149791906129b7565b6012805473ffffffffffffffffffffffffffffffffffffffff19166001600160a01b03939093169290921790915592915050565b60018054600254600354600454600580546001600160a01b0395861696948616959093169391926114fb90614427565b80601f016020809104026020016040519081016040528092919081815260200182805461152790614427565b80156115745780601f1061154957610100808354040283529160200191611574565b820191906000526020600020905b81548152906001019060200180831161155757829003601f168201915b505060408051610100810182526007870180546001600160a01b031682526008880154602080840191909152600989015483850152600a8901546060840152600b8901805485518184028101840190965280865298999893975091955060808701945090919083018282801561160957602002820191906000526020600020905b8154815260200190600101908083116115f5575b5050505050815260200160058201805480602002602001604051908101604052809291908181526020016000905b828210156116a35760008481526020908190208301805460408051828502810185019091528181529283018282801561168f57602002820191906000526020600020905b81548152602001906001019080831161167b575b505050505081526020019060010190611637565b50505050815260200160068201805480602002602001604051908101604052809291908181526020016000905b8282101561173c5760008481526020908190208301805460408051828502810185019091528181529283018282801561172857602002820191906000526020600020905b815481526020019060010190808311611714575b5050505050815260200190600101906116d0565b50505050815260200160078201805461175490614427565b80601f016020809104026020016040519081016040528092919081815260200182805461178090614427565b80156117cd5780601f106117a2576101008083540402835291602001916117cd565b820191906000526020600020905b8154815290600101906020018083116117b057829003601f168201915b505050505081525050905086565b60606010805480602002602001604051908101604052809291908181526020016000905b828210156119015760008481526020908190206040805160c0810182526006860290920180546001600160a01b03168352600181015483850152600281015483830152600381015460608401526004810180548351818702810187019094528084529394919360808601939283018282801561189a57602002820191906000526020600020905b815481526020019060010190808311611886575b5050509183525050600582015460209091019060ff1660068111156118cf57634e487b7160e01b600052602160045260246000fd5b60068111156118ee57634e487b7160e01b600052602160045260246000fd5b81525050815260200190600101906117ff565b50505050905090565b60115461010090046001600160a01b031681565b600073__$94d7d2f22770e4b0d1a2b99fb2812308e2$__630bc1c42a6010600160108054905061194e9190613fd5565b8154811061196c57634e487b7160e01b600052603260045260246000fd5b9060005260206000209060060201600160070160040185815481106119a157634e487b7160e01b600052603260045260246000fd5b90600052602060002001546040518363ffffffff1660e01b81526004016119c9929190613c23565b60206040518083038186803b1580156119e157600080fd5b505af41580156119f5573d6000803e3d6000fd5b505050506040513d601f19601f8201168201806040525081019061042e9190612bd4565b6002546001600160a01b03163314611a435760405162461bcd60e51b815260040161045690613732565b6006805482908110611a6557634e487b7160e01b600052603260045260246000fd5b60009182526020909120600160059092020181015460ff16151514611a9c5760405162461bcd60e51b815260040161045690613ad9565b61122060016005018281548110611ac357634e487b7160e01b600052603260045260246000fd5b906000526020600020906005020160010160029054906101000a900460ff1660016005018381548110611b0657634e487b7160e01b600052603260045260246000fd5b90600052602060002090600502016002015460016005018481548110611b3c57634e487b7160e01b600052603260045260246000fd5b906000526020600020906005020160010160019054906101000a900460ff1673__$94d7d2f22770e4b0d1a2b99fb2812308e2$__63f060d0b660016005018781548110611b9957634e487b7160e01b600052603260045260246000fd5b9060005260206000209060050201306040518363ffffffff1660e01b8152600401611bc5929190613d57565b60006040518083038186803b158015611bdd57600080fd5b505af4158015611bf1573d6000803e3d6000fd5b505050506040513d6000823e601f3d908101601f19168201604052611c199190810190612c14565b806020019051810190611c2c9190612c14565b61205c565b6003546001600160a01b03163314611c5b5760405162461bcd60e51b815260040161045690613921565b600460108054611c6d90600190613fd5565b81548110611c8b57634e487b7160e01b600052603260045260246000fd5b600091825260209091206006918202016005015460ff1690811115611cc057634e487b7160e01b600052602160045260246000fd5b14611cdd5760405162461bcd60e51b815260040161045690613a34565b6010805473__$94d7d2f22770e4b0d1a2b99fb2812308e2$__916359111fb59161076c90600190613fd5565b6010546040517f5cc1f6b500000000000000000000000000000000000000000000000000000000815260009173__$94d7d2f22770e4b0d1a2b99fb2812308e2$__91635cc1f6b591611d619160069190600401613477565b60206040518083038186803b158015611d7957600080fd5b505af4158015611d8d573d6000803e3d6000fd5b505050506040513d601f19601f82011682018060405250810190611db19190612ba0565b905090565b7fbc197c810000000000000000000000000000000000000000000000000000000098975050505050505050565b60145481565b60168181548110611df957600080fd5b600091825260209091200154905081565b6003546001600160a01b03163314611e345760405162461bcd60e51b815260040161045690613921565b600460108054611e4690600190613fd5565b81548110611e6457634e487b7160e01b600052603260045260246000fd5b600091825260209091206006918202016005015460ff1690811115611e9957634e487b7160e01b600052602160045260246000fd5b14611eb65760405162461bcd60e51b815260040161045690613a34565b6014544211611ed75760405162461bcd60e51b81526004016104569061387c565b6010805473__$94d7d2f22770e4b0d1a2b99fb2812308e2$__916311ca1ac091611f0390600190613fd5565b81548110611f2157634e487b7160e01b600052603260045260246000fd5b9060005260206000209060060201836040518363ffffffff1660e01b8152600401611f4d929190613b97565b60006040518083038186803b158015611f6557600080fd5b505af41580156112d8573d6000803e3d6000fd5b60135481565b60008481526017602052604081205460ff16611fe0576016805460018181019092557fd833147d7dc355ba459fc788f669e58cfaf9dc25ddcd0702e87d69c7b5124289018690556000868152601760205260409020805460ff191690911790555b507ff23a6e61000000000000000000000000000000000000000000000000000000005b9695505050505050565b6001600160e01b031981167f01ffc9a70000000000000000000000000000000000000000000000000000000014919050565b60045461204d906001613fb6565b6120579042613f9e565b601455565b60105461206b90600190613fd5565b600084815260196020526040902054146120975760405162461bcd60e51b8152600401610456906139fd565b60008381526019602052604081208054916120b18361446f565b9091555050600083815260186020908152604090912082516120d592840190612584565b508360ff1660048111156120f957634e487b7160e01b600052602160045260246000fd5b6000848152601a60205260409020805460ff1916600183600481111561212f57634e487b7160e01b600052602160045260246000fd5b021790555050505050565b601154601080546040517f5069a07c000000000000000000000000000000000000000000000000000000008152919273__$94d7d2f22770e4b0d1a2b99fb2812308e2$__92635069a07c926121a6926008926101009091046001600160a01b0316913091600401613b47565b60006040518083038186803b1580156121be57600080fd5b505af41580156121d2573d6000803e3d6000fd5b505050506040513d6000823e601f3d908101601f191682016040526121fa9190810190612c87565b81546001808201845560009384526020938490208351600690930201805473ffffffffffffffffffffffffffffffffffffffff19166001600160a01b039093169290921782558284015190820155604082015160028201556060820151600382015560808201518051929391926122779260048501920190612608565b5060a082015160058201805460ff191660018360068111156122a957634e487b7160e01b600052602160045260246000fd5b02179055505050565b60005b6006548110156112205760068054829081106122e157634e487b7160e01b600052603260045260246000fd5b600091825260209091206001600590920201015460ff166123055761230581612407565b8061230f8161446f565b9150506122b5565b6012546001600160a01b0316158015906123b25750601260009054906101000a90046001600160a01b03166001600160a01b031663999925066040518163ffffffff1660e01b815260040160206040518083038186803b15801561237a57600080fd5b505afa15801561238e573d6000803e3d6000fd5b505050506040513d601f19601f820116820180604052508101906123b29190612ba0565b156107ec57601260009054906101000a90046001600160a01b03166001600160a01b0316633a275fa26040518163ffffffff1660e01b8152600401600060405180830381600087803b158015610a3457600080fd5b6112206001600501828154811061242e57634e487b7160e01b600052603260045260246000fd5b906000526020600020906005020160010160029054906101000a900460ff166001600501838154811061247157634e487b7160e01b600052603260045260246000fd5b906000526020600020906005020160020154600160050184815481106124a757634e487b7160e01b600052603260045260246000fd5b906000526020600020906005020160010160019054906101000a900460ff1673__$94d7d2f22770e4b0d1a2b99fb2812308e2$__63f060d0b66001600501878154811061250457634e487b7160e01b600052603260045260246000fd5b9060005260206000209060050201306040518363ffffffff1660e01b8152600401612530929190613d57565b60006040518083038186803b15801561254857600080fd5b505af415801561255c573d6000803e3d6000fd5b505050506040513d6000823e601f3d908101601f19168201604052611c2c9190810190612c14565b82805461259090614427565b90600052602060002090601f0160209004810192826125b257600085556125f8565b82601f106125cb57805160ff19168380011785556125f8565b828001600101855582156125f8579182015b828111156125f85782518255916020019190600101906125dd565b50612604929150612642565b5090565b8280548282559060005260206000209081019282156125f857916020028201828111156125f85782518255916020019190600101906125dd565b5b808211156126045760008155600101612643565b8035610431816149c0565b60008083601f840112612673578182fd5b50813567ffffffffffffffff81111561268a578182fd5b60208301915083602080830285010111156126a457600080fd5b9250929050565b600082601f8301126126bb578081fd5b815160206126d06126cb83613e9b565b613e71565b82815281810190858301838502870184018810156126ec578586fd5b855b8581101561270a578151845292840192908401906001016126ee565b5090979650505050505050565b8035610431816149d5565b60008083601f840112612733578182fd5b50813567ffffffffffffffff81111561274a578182fd5b6020830191508360208285010111156126a457600080fd5b8051610431816149c0565b80516007811061043157600080fd5b600060c0828403121561278d578081fd5b60405160c0810167ffffffffffffffff82821081831117156127b1576127b16144b6565b816040528293506127c185612762565b835260208501516020840152604085015160408401526060850151606084015260808501519150808211156127f557600080fd5b50612802858286016126ab565b60808301525061281460a0840161276d565b60a08201525092915050565b60006101008284031215612832578081fd5b50919050565b8035610431816149e3565b600060208284031215612854578081fd5b813561285f816149c0565b9392505050565b600060208284031215612877578081fd5b815161285f816149c0565b60008060008060008060008060a0898b03121561289d578384fd5b88356128a8816149c0565b975060208901356128b8816149c0565b9650604089013567ffffffffffffffff808211156128d4578586fd5b6128e08c838d01612662565b909850965060608b01359150808211156128f8578586fd5b6129048c838d01612662565b909650945060808b013591508082111561291c578384fd5b506129298b828c01612722565b999c989b5096995094979396929594505050565b60008060008060008060a08789031215612955578384fd5b8635612960816149c0565b95506020870135612970816149c0565b94506040870135935060608701359250608087013567ffffffffffffffff811115612999578283fd5b6129a589828a01612722565b979a9699509497509295939492505050565b600080604083850312156129c9578182fd5b82516129d4816149c0565b60208401519092506129e5816149c0565b809150509250929050565b600080600060608486031215612a04578081fd5b8335612a0f816149c0565b925060208401359150604084013567ffffffffffffffff811115612a31578182fd5b612a3d86828701612820565b9150509250925092565b60006020808385031215612a59578182fd5b825167ffffffffffffffff811115612a6f578283fd5b8301601f81018513612a7f578283fd5b8051612a8d6126cb82613e9b565b81815283810190838501865b84811015612ac257612ab08a88845189010161277c565b84529286019290860190600101612a99565b509098975050505050505050565b60008060208385031215612ae2578182fd5b823567ffffffffffffffff811115612af8578283fd5b612b0485828601612662565b90969095509350505050565b60006020808385031215612b22578182fd5b823567ffffffffffffffff811115612b38578283fd5b8301601f81018513612b48578283fd5b8035612b566126cb82613e9b565b8181528381019083850185840285018601891015612b72578687fd5b8694505b83851015612b94578035835260019490940193918501918501612b76565b50979650505050505050565b600060208284031215612bb1578081fd5b815161285f816149d5565b600060208284031215612bcd578081fd5b5035919050565b600060208284031215612be5578081fd5b5051919050565b600060208284031215612bfd578081fd5b81356001600160e01b03198116811461285f578182fd5b600060208284031215612c25578081fd5b815167ffffffffffffffff811115612c3b578182fd5b8201601f81018413612c4b578182fd5b8051612c596126cb82613ebf565b818152856020838501011115612c6d578384fd5b612c7e8260208301602086016143fb565b95945050505050565b600060208284031215612c98578081fd5b815167ffffffffffffffff811115612cae578182fd5b612cba8482850161277c565b949350505050565b600060208284031215612cd3578081fd5b813567ffffffffffffffff811115612ce9578182fd5b612cba84828501612820565b600080600060608486031215612d09578081fd5b8335612d14816149e3565b925060208401359150604084013567ffffffffffffffff811115612d36578182fd5b8401601f81018613612d46578182fd5b8035612d546126cb82613ebf565b818152876020838501011115612d68578384fd5b8160208401602083013783602083830101528093505050509250925092565b6001600160a01b03169052565b818352602080840193600091908185020181018584845b87811015612de1578284038952612dc28288613ef3565b612dcd86828461301b565b9a87019a9550505090840190600101612dab565b5091979650505050505050565b6000815180845260208085018081965082840281019150828601855b85811015612de1578284038952612e22848351613068565b98850198935090840190600101612e0a565b6000815480845260208085018081965082840281019150858552828520855b85811015612de1578284038952612e6a84836130a2565b98850198935060019182019101612e53565b818352602080840193600091908185020181018584845b87811015612de1578284038952813560be19883603018112612eb3578687fd5b870160c08135612ec2816149d5565b1515865281870135612ed3816149d5565b1515868801526040612ee6838201612657565b612ef282890182612d87565b5050606082810135908701526080808301359087015260a0612f1681840184613f3b565b93508282890152612f2a83890185836130da565b9c89019c97505050928601925050600101612e93565b818352602080840193600091908185020181018584845b87811015612de1578284038952813560de19883603018112612f77578687fd5b87018035855260e086820135612f8c816149d5565b612f98888801826130d4565b506040612fa6818401612717565b612fb2828901826130d4565b50506060612fc1818401612838565b612fcd82890182613376565b50506080828101359087015260a0808301359087015260c0612ff181840184613f3b565b9350828289015261300583890185836130da565b9c89019c97505050928601925050600101612f57565b60008284527f07ffffffffffffffffffffffffffffffffffffffffffffffffffffffffffffff83111561304c578081fd5b6020830280836020870137939093016020019283525090919050565b6000815180845260208085019450808401835b838110156130975781518752958201959082019060010161307b565b509495945050505050565b6000815480845260208085019450838352808320835b83811015613097578154875295820195600191820191016130b8565b15159052565b60008284528282602086013780602084860101526020601f19601f85011685010190509392505050565b6000815180845261311c8160208601602086016143fb565b601f01601f19169290920160200192915050565b6000815461313d81614427565b80855260206001838116801561315a576001811461316e5761319c565b60ff1985168884015260408801955061319c565b866000528260002060005b858110156131945781548a8201860152908301908401613179565b890184019650505b505050505092915050565b600781106131c557634e487b7160e01b600052602160045260246000fd5b9052565b60006101006131e0846131db85612657565b612d87565b60208301356020850152604083013560408501526060830135606085015261320b6080840184613ef3565b82608087015261321e838701828461301b565b9250505061322f60a0840184613ef3565b85830360a0870152613242838284612d94565b9250505061325360c0840184613ef3565b85830360c0870152613266838284612d94565b9250505061327760e0840184613f3b565b85830360e08701526120038382846130da565b600061010061329d846131db8554613fec565b6001830154602085015260028301546040850152600383015460608501528060808501526132d0818501600485016130a2565b905083810360a08501526132e78160058501612e34565b905083810360c08501526132fe8160068501612e34565b905083810360e0850152612cba8160078501613130565b60006001600160a01b03825416835260018201546020840152600282015460408401526003820154606084015260c0608084015261335960c08401600484016130a2565b60ff60058401541661336e60a08601826131a7565b509392505050565b60ff169052565b6001600160a01b0391909116815260200190565b60006001600160a01b0385168252606060208301526133b3606083018561328a565b82810360408401526120038185613315565b918252602082015260400190565b60208082528251828201819052600091906040908185019080840286018301878501865b83811015612ac257603f19898403018552815160c06001600160a01b038251168552888201518986015287820151888601526060808301518187015250608080830151828288015261344b83880182613068565b9250505060a0808301519250613463818701846131a7565b5095880195935050908601906001016133f7565b60006040808301818452808654808352606092508286019150602083818302880101898752818720875b8481101561353057605f198a840301865260e082548452600183015460ff6134cd8787018284166130d4565b6134de8b8701828460081c166130d4565b6134ef8a8701828460101c16613376565b505060028301546080850152600383015460a08501528060c085015261351a81850160048501613130565b96850196935050600591909101906001016134a1565b5050960196909652509295945050505050565b901515815260200190565b90815260200190565b6001600160e01b031991909116815260200190565b60006020825261285f6020830184613104565b6000608082016001600160a01b0387168352602086818501528560408501526080606085015281855480845260a0860191508685528285209350845b818110156135d7578454835260019485019492840192016135bb565b50909998505050505050505050565b600060a0820190506001600160a01b038716825285602083015284604083015283606083015261200360808301846131a7565b60006001600160a01b038089168352808816602084015280871660408401525084606083015260c0608083015261365360c0830185613104565b82810360a0840152610100613669828651612d87565b602085015160208301526040850151604083015260608501516060830152608085015181608084015261369e82840182613068565b91505060a085015182820360a08401526136b88282612dee565b91505060c085015182820360c08401526136d28282612dee565b91505060e085015182820360e08401526136ec8282613104565b9b9a5050505050505050505050565b60208082526014908201527f43757272656e7420736f6c766520616374697665000000000000000000000000604082015260600190565b6020808252600a908201527f4f6e6c794b656570657200000000000000000000000000000000000000000000604082015260600190565b60208082526010908201527f536f6c76657220686173206368696c6400000000000000000000000000000000604082015260600190565b60208082526011908201527f506f727420696e76616c6964207665722e000000000000000000000000000000604082015260600190565b60208082526016908201527f436f6e646974696f6e206e6f7420457865637574656400000000000000000000604082015260600190565b6020808252600c908201527f4f6e6c7920666163746f72790000000000000000000000000000000000000000604082015260600190565b6020808252600b908201527f4f6e6c79204b6565706572000000000000000000000000000000000000000000604082015260600190565b60208082526015908201527f54696d656c6f636b207374696c6c206c6f636b65640000000000000000000000604082015260600190565b6020808252600f908201527f696e676573747320696e76616c69640000000000000000000000000000000000604082015260600190565b60208082526018908201527f4e6f74204172626974726174696f6e5265717565737465640000000000000000604082015260600190565b6020808252600f908201527f4f6e6c792061726269747261746f720000000000000000000000000000000000604082015260600190565b6020808252600e908201527f4b656570657220696e76616c6964000000000000000000000000000000000000604082015260600190565b60208082526014908201527f4f7574636f6d65206e6f742070726f706f736564000000000000000000000000604082015260600190565b60208082526013908201527f4e6f74204f7574636f6d6550726f706f73656400000000000000000000000000604082015260600190565b60208082526014908201527f506f72742076657273696f6e20696e76616c6964000000000000000000000000604082015260600190565b60208082526016908201527f4e6f74204172626974726174696f6e50656e64696e6700000000000000000000604082015260600190565b60208082526012908201527f4f6e6c79206b65657065722f706172656e740000000000000000000000000000604082015260600190565b6020808252600e908201527f547261636b696e67496420736574000000000000000000000000000000000000604082015260600190565b60208082526013908201527f496e67657374206e6f7420646566657272656400000000000000000000000000604082015260600190565b6020808252600d908201527f6e6f7420496e6974696174656400000000000000000000000000000000000000604082015260600190565b600060808252613b5a608083018761328a565b6001600160a01b0395861660208401529390941660408201526060015292915050565b600084825260406020830152612c7e60408301848661301b565b60006040820184835260206040818501528185518084526060860191508287019350845b8181101561270a57845183529383019391830191600101613bbb565b600060a08252613bea60a0830188613315565b8281036020840152613bfc818861328a565b6001600160a01b039690961660408401525050606081019290925260809091015292915050565b600060408252613c366040830185613315565b90508260208301529392505050565b600060608252613c5b606083016131db87612657565b613c6760208601612657565b613c746080840182612d87565b50613c8160408601612657565b613c8e60a0840182612d87565b50606085013560c0830152613ca66080860186613f3b565b6101008060e0860152613cbe610160860183856130da565b9250613ccd60a0890189613ef3565b9250605f19808786030183880152613ce6858584612f40565b9450613cf560c08b018b613ef3565b945092508087860301610120880152613d0f858585612e7c565b9450613d1e60e08b018b613f80565b93508087860301610140880152505050613d3882826131c9565b92505050613d496020830185612d87565b826040830152949350505050565b9182526001600160a01b0316602082015260400190565b9485526001600160a01b03938416602086015291831660408501529091166060830152608082015260a00190565b6000808335601e19843603018112613db2578283fd5b83018035915067ffffffffffffffff821115613dcc578283fd5b60209081019250810236038213156126a457600080fd5b6000808335601e19843603018112613df9578283fd5b83018035915067ffffffffffffffff821115613e13578283fd5b6020019150368190038213156126a457600080fd5b6000823560be19833603018112613e3d578182fd5b9190910192915050565b6000823560fe19833603018112613e3d578182fd5b6000823560de19833603018112613e3d578182fd5b60405181810167ffffffffffffffff81118282101715613e9357613e936144b6565b604052919050565b600067ffffffffffffffff821115613eb557613eb56144b6565b5060209081020190565b600067ffffffffffffffff821115613ed957613ed96144b6565b50601f01601f191660200190565b60009081526020902090565b6000808335601e19843603018112613f09578283fd5b830160208101925035905067ffffffffffffffff811115613f2957600080fd5b6020810236038313156126a457600080fd5b6000808335601e19843603018112613f51578283fd5b830160208101925035905067ffffffffffffffff811115613f7157600080fd5b8036038313156126a457600080fd5b6000823560fe19833603018112613f95578182fd5b90910192915050565b60008219821115613fb157613fb16144a0565b500190565b6000816000190483118215151615613fd057613fd06144a0565b500290565b600082821015613fe757613fe76144a0565b500390565b6001600160a01b031690565b5b818110156105c05760008155600101613ff9565b68010000000000000000831115614026576140266144b6565b805483825580841015614064576000828152602081208581019083015b808210156140605761405583836144df565b600182019150614043565b5050505b508161406f82613ee7565b6000805b868110156140a6576140858487613d9c565b6140918183868861482e565b50506020939093019260019283019201614073565b50505050505050565b680100000000000000008311156140c8576140c86144b6565b805483825580841015614177577f3fffffffffffffffffffffffffffffffffffffffffffffffffffffffffffffff600181831181161561410a5761410a6144a0565b600482871182161561411e5761411e6144a0565b600085815260208120909350878202810190828602015b808210156141715784825561414d85868685016149a1565b61415b8586600285016149a1565b614168856003840161451c565b90820190614135565b50505050505b508161418282613ee7565b6000805b868110156140a6576141a261419b8588613e28565b8385614847565b6020939093019260049290920191600101614186565b680100000000000000008311156141d1576141d16144b6565b80548382558084101561428e577f33333333333333333333333333333333333333333333333333333333333333336001818311811615614213576142136144a0565b6005828711821615614227576142276144a0565b600085815260208120909350878202810190828602015b80821015614288576142518586846149a1565b84848301556142648586600285016149a1565b6142728586600385016149a1565b61427f856004840161451c565b9082019061423e565b50505050505b508161429982613ee7565b6000805b868110156140a6576142b96142b28588613e5c565b8385614906565b602093909301926005929092019160010161429d565b6142d983826144df565b818160005260208060002060005b868110156140a6578335825592820192600191820191016142e7565b67ffffffffffffffff83111561431b5761431b6144b6565b6143258154614427565b600080601f8611601f8411818117156143445761434186613ee7565b92505b8015614373576020601f8901048301602089101561435f5750825b6143716020601f880104850182613ff8565b505b50806001811461439f5760009450871561438e578387013594505b614398888661445c565b86556143f1565b601f198816945082845b868110156143c957888601358255602095860195600190920191016143a9565b50888610156143e657878501356000196008601f8c16021c191681555b506001600289020186555b5050505050505050565b60005b838110156144165781810151838201526020016143fe565b83811115610a485750506000910152565b60028104600182168061443b57607f821691505b6020821081141561283257634e487b7160e01b600052602260045260246000fd5b600019600883021c191660029091021790565b6000600019821415614483576144836144a0565b5060010190565b634e487b7160e01b600052600060045260246000fd5b634e487b7160e01b600052601160045260246000fd5b634e487b7160e01b600052604160045260246000fd5b600081356144d9816149c0565b92915050565b680100000000000000008211156144f8576144f86144b6565b80548282558083101561087357816000526020600020610a48828201858301613ff8565b811561452a5761452a61448a565b6145348154614427565b801561087357601f81116001811461454f5760008355610a48565b60008381526020812061456d6020601f860104820160018301613ff8565b50838152602081208185555550505050565b6001600160a01b03821673ffffffffffffffffffffffffffffffffffffffff198254161781555050565b60ff1981541660ff8315151681178255505050565b81356145c9816149c0565b6145d3818361457f565b5060016020808401358284015560408401356002840155606084013560038401556146016080850185613d9c565b61460f8183600488016142cf565b505061461e60a0850185613d9c565b61462c81836005880161400d565b505061463b60c0850185613d9c565b61464981836006880161400d565b50506007830161465c60e0860186613de3565b67ffffffffffffffff811115614674576146746144b6565b61467e8354614427565b600080601f8411601f84118181171561469d5761469a88613ee7565b92505b80156146c95788601f8701048301898710156146b65750825b6146c78a601f880104850182613ff8565b505b5080600181146146f5576000945085156146e4578387013594505b6146ee868661445c565b8855614743565b601f198616945082845b8681101561471c57888601358255948a0194908b01908a016146ff565b508686101561473957878501356000196008601f8a16021c191681555b5089600287020188555b505050505050505050505050565b813561475c816149c0565b614766818361457f565b506020820135614775816149c0565b614782816001840161457f565b5061479b614792604084016144cc565b6002830161457f565b606082013560038201556147b26080830183613de3565b6147c0818360048601614303565b50506147cf60a0830183613d9c565b6147dd8183600586016141b8565b50506147ec60c0830183613d9c565b6147fa8183600686016140af565b50506105c061480c60e0840184613e47565b600783016145be565b805461ff00191691151560081b61ff0016919091179055565b811561483c5761483c61448a565b610a488484836142cf565b81156148555761485561448a565b8235614860816149d5565b61486a81836145a9565b506020830135614879816149d5565b6148838183614815565b506040830135614892816149c0565b81547fffffffffffffffffffff0000000000000000000000000000000000000000ffff1660109190911b75ffffffffffffffffffffffffffffffffffffffff00001617815560608301356001820155608083013560028201556148f860a0840184613de3565b6112d8818360038601614303565b81156149145761491461448a565b8235815560018101602084013561492a816149d5565b61493481836145a9565b506040840135614943816149d5565b61494d8183614815565b50606084013561495c816149e3565b815462ff0000191660109190911b62ff0000161790556080830135600282015560a0830135600382015561499360c0840184613de3565b6112d8818360048601614303565b805460088302600019811b8086831b1681198416178455505050505050565b6001600160a01b038116811461122057600080fd5b801515811461122057600080fd5b60ff8116811461122057600080fdfea26469706673582212204960bc0a0d394a39dc56fe87d036e2d2ca4a8696d3513bc8877f7591f9b85f6164736f6c63430008000033",
  "linkReferences": {
    "contracts/SolverLib.sol": {
      "SolverLib": [
        {
          "length": 20,
          "start": 1334
        },
        {
          "length": 20,
          "start": 1894
        },
        {
          "length": 20,
          "start": 2722
        },
        {
          "length": 20,
          "start": 3150
        },
        {
          "length": 20,
          "start": 3347
        },
        {
          "length": 20,
          "start": 3560
        },
        {
          "length": 20,
          "start": 3837
        },
        {
          "length": 20,
          "start": 5056
        },
        {
          "length": 20,
          "start": 5181
        },
        {
          "length": 20,
          "start": 6466
        },
        {
          "length": 20,
          "start": 7037
        },
        {
          "length": 20,
          "start": 7427
        },
        {
          "length": 20,
          "start": 7511
        },
        {
          "length": 20,
          "start": 7933
        },
        {
          "length": 20,
          "start": 8587
        },
        {
          "length": 20,
          "start": 9448
        }
      ]
    }
  },
  "deployedLinkReferences": {
    "contracts/SolverLib.sol": {
      "SolverLib": [
        {
          "length": 20,
          "start": 1302
        },
        {
          "length": 20,
          "start": 1862
        },
        {
          "length": 20,
          "start": 2690
        },
        {
          "length": 20,
          "start": 3118
        },
        {
          "length": 20,
          "start": 3315
        },
        {
          "length": 20,
          "start": 3528
        },
        {
          "length": 20,
          "start": 3805
        },
        {
          "length": 20,
          "start": 5024
        },
        {
          "length": 20,
          "start": 5149
        },
        {
          "length": 20,
          "start": 6434
        },
        {
          "length": 20,
          "start": 7005
        },
        {
          "length": 20,
          "start": 7395
        },
        {
          "length": 20,
          "start": 7479
        },
        {
          "length": 20,
          "start": 7901
        },
        {
          "length": 20,
          "start": 8555
        },
        {
          "length": 20,
          "start": 9416
        }
      ]
    }
  }
}