{
  "_format": "hh-sol-artifact-1",
  "contractName": "Solver",
  "sourceName": "contracts/Solver.sol",
  "abi": [
    {
      "inputs": [
        {
          "internalType": "uint8",
          "name": "_port",
          "type": "uint8"
        },
        {
          "internalType": "uint256",
          "name": "_key",
          "type": "uint256"
        },
        {
          "internalType": "bytes",
          "name": "_data",
          "type": "bytes"
        }
      ],
      "name": "addData",
      "outputs": [],
      "stateMutability": "nonpayable",
      "type": "function"
    },
    {
      "inputs": [
        {
          "internalType": "uint256",
          "name": "",
          "type": "uint256"
        }
      ],
      "name": "addressPort",
      "outputs": [
        {
          "internalType": "address",
          "name": "",
          "type": "address"
        }
      ],
      "stateMutability": "view",
      "type": "function"
    },
    {
      "inputs": [
        {
          "internalType": "uint256[]",
          "name": "_payouts",
          "type": "uint256[]"
        }
      ],
      "name": "arbitrate",
      "outputs": [],
      "stateMutability": "nonpayable",
      "type": "function"
    },
    {
      "inputs": [],
      "name": "arbitrationDelivered",
      "outputs": [
        {
          "internalType": "bool",
          "name": "",
          "type": "bool"
        }
      ],
      "stateMutability": "view",
      "type": "function"
    },
    {
      "inputs": [
        {
          "internalType": "uint256",
          "name": "",
          "type": "uint256"
        }
      ],
      "name": "boolPort",
      "outputs": [
        {
          "internalType": "bool",
          "name": "",
          "type": "bool"
        }
      ],
      "stateMutability": "view",
      "type": "function"
    },
    {
      "inputs": [
        {
          "internalType": "uint256",
          "name": "",
          "type": "uint256"
        }
      ],
      "name": "bytes32Port",
      "outputs": [
        {
          "internalType": "bytes32",
          "name": "",
          "type": "bytes32"
        }
      ],
      "stateMutability": "view",
      "type": "function"
    },
    {
      "inputs": [
        {
          "internalType": "uint256",
          "name": "",
          "type": "uint256"
        }
      ],
      "name": "bytesPort",
      "outputs": [
        {
          "internalType": "bytes",
          "name": "",
          "type": "bytes"
        }
      ],
      "stateMutability": "view",
      "type": "function"
    },
    {
      "inputs": [],
      "name": "collateralToken",
      "outputs": [
        {
          "internalType": "contract IERC20",
          "name": "",
          "type": "address"
        }
      ],
      "stateMutability": "view",
      "type": "function"
    },
    {
      "inputs": [],
      "name": "conditionalTokens",
      "outputs": [
        {
          "internalType": "contract ConditionalTokens",
          "name": "",
          "type": "address"
        }
      ],
      "stateMutability": "view",
      "type": "function"
    },
    {
      "inputs": [
        {
          "internalType": "uint256",
          "name": "",
          "type": "uint256"
        }
      ],
      "name": "conditions",
      "outputs": [
        {
          "internalType": "bool",
          "name": "reported",
          "type": "bool"
        },
        {
          "internalType": "bytes32",
          "name": "questionId",
          "type": "bytes32"
        },
        {
          "internalType": "bytes32",
          "name": "parentCollectionId",
          "type": "bytes32"
        },
        {
          "internalType": "bytes32",
          "name": "conditionId",
          "type": "bytes32"
        }
      ],
      "stateMutability": "view",
      "type": "function"
    },
    {
      "inputs": [],
      "name": "config",
      "outputs": [
        {
          "internalType": "contract SolverFactory",
          "name": "factory",
          "type": "address"
        },
        {
          "internalType": "address",
          "name": "keeper",
          "type": "address"
        },
        {
          "internalType": "address",
          "name": "arbitrator",
          "type": "address"
        },
        {
          "internalType": "uint256",
          "name": "timelockSeconds",
          "type": "uint256"
        },
        {
          "internalType": "bytes",
          "name": "data",
          "type": "bytes"
        },
        {
          "components": [
            {
              "internalType": "uint256",
              "name": "outcomeSlots",
              "type": "uint256"
            },
            {
              "internalType": "uint256",
              "name": "parentCollectionPartitionIndex",
              "type": "uint256"
            },
            {
              "internalType": "uint256",
              "name": "amount",
              "type": "uint256"
            },
            {
              "internalType": "uint256[]",
              "name": "partition",
              "type": "uint256[]"
            },
            {
              "internalType": "uint256[][]",
              "name": "recipientAddressPorts",
              "type": "uint256[][]"
            },
            {
              "internalType": "uint256[][]",
              "name": "recipientAmounts",
              "type": "uint256[][]"
            },
            {
              "internalType": "string",
              "name": "metadata",
              "type": "string"
            }
          ],
          "internalType": "struct Solver.ConditionBase",
          "name": "conditionBase",
          "type": "tuple"
        }
      ],
      "stateMutability": "view",
      "type": "function"
    },
    {
      "inputs": [],
      "name": "confirmPayouts",
      "outputs": [],
      "stateMutability": "nonpayable",
      "type": "function"
    },
    {
      "inputs": [],
      "name": "deferredIngestsValid",
      "outputs": [
        {
          "internalType": "bool",
          "name": "",
          "type": "bool"
        }
      ],
      "stateMutability": "view",
      "type": "function"
    },
    {
      "inputs": [],
      "name": "executeSolve",
      "outputs": [],
      "stateMutability": "nonpayable",
      "type": "function"
    },
    {
      "inputs": [],
      "name": "executed",
      "outputs": [
        {
          "internalType": "bool",
          "name": "",
          "type": "bool"
        }
      ],
      "stateMutability": "view",
      "type": "function"
    },
    {
      "inputs": [
        {
          "internalType": "uint256",
          "name": "_partitionIndex",
          "type": "uint256"
        }
      ],
      "name": "getCanonCollectionId",
      "outputs": [
        {
          "internalType": "bytes32",
          "name": "_id",
          "type": "bytes32"
        }
      ],
      "stateMutability": "view",
      "type": "function"
    },
    {
      "inputs": [
        {
          "internalType": "uint256",
          "name": "_port",
          "type": "uint256"
        },
        {
          "internalType": "uint256",
          "name": "_key",
          "type": "uint256"
        }
      ],
      "name": "getOutput",
      "outputs": [
        {
          "internalType": "bytes",
          "name": "data",
          "type": "bytes"
        }
      ],
      "stateMutability": "view",
      "type": "function"
    },
    {
      "inputs": [],
      "name": "getPayouts",
      "outputs": [
        {
          "internalType": "uint256[]",
          "name": "",
          "type": "uint256[]"
        }
      ],
      "stateMutability": "view",
      "type": "function"
    },
    {
      "inputs": [
        {
          "internalType": "uint256",
          "name": "_index",
          "type": "uint256"
        }
      ],
      "name": "ingest",
      "outputs": [],
      "stateMutability": "nonpayable",
      "type": "function"
    },
    {
      "inputs": [
        {
          "internalType": "contract IERC20",
          "name": "_collateralToken",
          "type": "address"
        },
        {
          "internalType": "bytes32",
          "name": "_solutionId",
          "type": "bytes32"
        },
        {
          "internalType": "bytes32",
          "name": "_proposalId",
          "type": "bytes32"
        },
        {
          "internalType": "address",
          "name": "_proposalsHub",
          "type": "address"
        },
        {
          "internalType": "address",
          "name": "_solutionsHub",
          "type": "address"
        },
        {
          "components": [
            {
              "internalType": "contract SolverFactory",
              "name": "factory",
              "type": "address"
            },
            {
              "internalType": "address",
              "name": "keeper",
              "type": "address"
            },
            {
              "internalType": "address",
              "name": "arbitrator",
              "type": "address"
            },
            {
              "internalType": "uint256",
              "name": "timelockSeconds",
              "type": "uint256"
            },
            {
              "internalType": "bytes",
              "name": "data",
              "type": "bytes"
            },
            {
              "components": [
                {
                  "internalType": "uint256",
                  "name": "executions",
                  "type": "uint256"
                },
                {
                  "internalType": "bool",
                  "name": "isDeferred",
                  "type": "bool"
                },
                {
                  "internalType": "bool",
                  "name": "isConstant",
                  "type": "bool"
                },
                {
                  "internalType": "uint8",
                  "name": "port",
                  "type": "uint8"
                },
                {
                  "internalType": "uint256",
                  "name": "key",
                  "type": "uint256"
                },
                {
                  "internalType": "uint256",
                  "name": "solverIndex",
                  "type": "uint256"
                },
                {
                  "internalType": "bytes",
                  "name": "data",
                  "type": "bytes"
                }
              ],
              "internalType": "struct Solver.Ingest[]",
              "name": "ingests",
              "type": "tuple[]"
            },
            {
              "components": [
                {
                  "internalType": "bool",
                  "name": "executed",
                  "type": "bool"
                },
                {
                  "internalType": "bool",
                  "name": "isPort",
                  "type": "bool"
                },
                {
                  "internalType": "address",
                  "name": "to",
                  "type": "address"
                },
                {
                  "internalType": "uint256",
                  "name": "portIndex",
                  "type": "uint256"
                },
                {
                  "internalType": "uint256",
                  "name": "value",
                  "type": "uint256"
                },
                {
                  "internalType": "bytes",
                  "name": "data",
                  "type": "bytes"
                }
              ],
              "internalType": "struct Solver.Action[]",
              "name": "actions",
              "type": "tuple[]"
            },
            {
              "components": [
                {
                  "internalType": "uint256",
                  "name": "outcomeSlots",
                  "type": "uint256"
                },
                {
                  "internalType": "uint256",
                  "name": "parentCollectionPartitionIndex",
                  "type": "uint256"
                },
                {
                  "internalType": "uint256",
                  "name": "amount",
                  "type": "uint256"
                },
                {
                  "internalType": "uint256[]",
                  "name": "partition",
                  "type": "uint256[]"
                },
                {
                  "internalType": "uint256[][]",
                  "name": "recipientAddressPorts",
                  "type": "uint256[][]"
                },
                {
                  "internalType": "uint256[][]",
                  "name": "recipientAmounts",
                  "type": "uint256[][]"
                },
                {
                  "internalType": "string",
                  "name": "metadata",
                  "type": "string"
                }
              ],
              "internalType": "struct Solver.ConditionBase",
              "name": "conditionBase",
              "type": "tuple"
            }
          ],
          "internalType": "struct Solver.Config",
          "name": "_solverConfig",
          "type": "tuple"
        }
      ],
      "name": "init",
      "outputs": [],
      "stateMutability": "nonpayable",
      "type": "function"
    },
    {
      "inputs": [
        {
          "internalType": "uint256",
          "name": "",
          "type": "uint256"
        },
        {
          "internalType": "uint256",
          "name": "",
          "type": "uint256"
        }
      ],
      "name": "lockedPorts",
      "outputs": [
        {
          "internalType": "bool",
          "name": "",
          "type": "bool"
        }
      ],
      "stateMutability": "view",
      "type": "function"
    },
    {
      "inputs": [],
      "name": "nullArbitrate",
      "outputs": [],
      "stateMutability": "nonpayable",
      "type": "function"
    },
    {
      "inputs": [],
      "name": "numConditions",
      "outputs": [
        {
          "internalType": "uint256",
          "name": "",
          "type": "uint256"
        }
      ],
      "stateMutability": "view",
      "type": "function"
    },
    {
      "inputs": [
        {
          "internalType": "address",
          "name": "operator",
          "type": "address"
        },
        {
          "internalType": "address",
          "name": "from",
          "type": "address"
        },
        {
          "internalType": "uint256[]",
          "name": "ids",
          "type": "uint256[]"
        },
        {
          "internalType": "uint256[]",
          "name": "values",
          "type": "uint256[]"
        },
        {
          "internalType": "bytes",
          "name": "data",
          "type": "bytes"
        }
      ],
      "name": "onERC1155BatchReceived",
      "outputs": [
        {
          "internalType": "bytes4",
          "name": "",
          "type": "bytes4"
        }
      ],
      "stateMutability": "nonpayable",
      "type": "function"
    },
    {
      "inputs": [
        {
          "internalType": "address",
          "name": "operator",
          "type": "address"
        },
        {
          "internalType": "address",
          "name": "from",
          "type": "address"
        },
        {
          "internalType": "uint256",
          "name": "id",
          "type": "uint256"
        },
        {
          "internalType": "uint256",
          "name": "value",
          "type": "uint256"
        },
        {
          "internalType": "bytes",
          "name": "data",
          "type": "bytes"
        }
      ],
      "name": "onERC1155Received",
      "outputs": [
        {
          "internalType": "bytes4",
          "name": "",
          "type": "bytes4"
        }
      ],
      "stateMutability": "nonpayable",
      "type": "function"
    },
    {
      "inputs": [],
      "name": "pendingArbitration",
      "outputs": [
        {
          "internalType": "bool",
          "name": "",
          "type": "bool"
        }
      ],
      "stateMutability": "view",
      "type": "function"
    },
    {
      "inputs": [
        {
          "internalType": "uint256",
          "name": "",
          "type": "uint256"
        },
        {
          "internalType": "uint256",
          "name": "",
          "type": "uint256"
        }
      ],
      "name": "portVersions",
      "outputs": [
        {
          "internalType": "uint256",
          "name": "",
          "type": "uint256"
        }
      ],
      "stateMutability": "view",
      "type": "function"
    },
    {
      "inputs": [],
      "name": "prepareSolve",
      "outputs": [],
      "stateMutability": "nonpayable",
      "type": "function"
    },
    {
      "inputs": [],
      "name": "proposalId",
      "outputs": [
        {
          "internalType": "bytes32",
          "name": "",
          "type": "bytes32"
        }
      ],
      "stateMutability": "view",
      "type": "function"
    },
    {
      "inputs": [],
      "name": "proposalsHub",
      "outputs": [
        {
          "internalType": "address",
          "name": "",
          "type": "address"
        }
      ],
      "stateMutability": "view",
      "type": "function"
    },
    {
      "inputs": [
        {
          "internalType": "uint256[]",
          "name": "_payouts",
          "type": "uint256[]"
        }
      ],
      "name": "proposePayouts",
      "outputs": [],
      "stateMutability": "nonpayable",
      "type": "function"
    },
    {
      "inputs": [],
      "name": "requestArbitration",
      "outputs": [],
      "stateMutability": "nonpayable",
      "type": "function"
    },
    {
      "inputs": [],
      "name": "solutionId",
      "outputs": [
        {
          "internalType": "bytes32",
          "name": "",
          "type": "bytes32"
        }
      ],
      "stateMutability": "view",
      "type": "function"
    },
    {
      "inputs": [],
      "name": "solutionsHub",
      "outputs": [
        {
          "internalType": "address",
          "name": "",
          "type": "address"
        }
      ],
      "stateMutability": "view",
      "type": "function"
    },
    {
      "inputs": [],
      "name": "solved",
      "outputs": [
        {
          "internalType": "bool",
          "name": "",
          "type": "bool"
        }
      ],
      "stateMutability": "view",
      "type": "function"
    },
    {
      "inputs": [
        {
          "internalType": "uint256",
          "name": "_index",
          "type": "uint256"
        }
      ],
      "name": "solverAddressFromIndex",
      "outputs": [
        {
          "internalType": "bytes20",
          "name": "_address",
          "type": "bytes20"
        }
      ],
      "stateMutability": "view",
      "type": "function"
    },
    {
      "inputs": [
        {
          "internalType": "uint256",
          "name": "_solverIndex",
          "type": "uint256"
        },
        {
          "internalType": "bytes",
          "name": "_data",
          "type": "bytes"
        }
      ],
      "name": "staticcallSolver",
      "outputs": [
        {
          "internalType": "bytes",
          "name": "",
          "type": "bytes"
        }
      ],
      "stateMutability": "view",
      "type": "function"
    },
    {
      "inputs": [
        {
          "internalType": "bytes4",
          "name": "interfaceId",
          "type": "bytes4"
        }
      ],
      "name": "supportsInterface",
      "outputs": [
        {
          "internalType": "bool",
          "name": "",
          "type": "bool"
        }
      ],
      "stateMutability": "view",
      "type": "function"
    },
    {
      "inputs": [],
      "name": "timelock",
      "outputs": [
        {
          "internalType": "uint256",
          "name": "",
          "type": "uint256"
        }
      ],
      "stateMutability": "view",
      "type": "function"
    },
    {
      "inputs": [
        {
          "internalType": "uint256",
          "name": "",
          "type": "uint256"
        }
      ],
      "name": "uint256Port",
      "outputs": [
        {
          "internalType": "uint256",
          "name": "",
          "type": "uint256"
        }
      ],
      "stateMutability": "view",
      "type": "function"
    }
  ],
  "bytecode": "0x608060405234801561001057600080fd5b50614ebc806100206000396000f3fe608060405234801561001057600080fd5b50600436106102c85760003560e01c806382fc80541161017b578063b2016bd4116100d8578063d33219b41161008c578063ecae4b8411610071578063ecae4b8414610543578063efabae5714610556578063f23a6e611461055e576102c8565b8063d33219b414610528578063e7fd205914610530576102c8565b8063bc197c81116100bd578063bc197c81146104ed578063c43c168e1461050d578063c538edd414610515576102c8565b8063b2016bd4146104d2578063ba9bfe62146104da576102c8565b806398f84bbf1161012f578063a33db92b11610114578063a33db92b146104a4578063a7f5d48c146104b7578063a99efeae146104bf576102c8565b806398f84bbf14610489578063a2b14e6f1461049c576102c8565b8063842918ba11610160578063842918ba1461045057806384dbd3911461046357806396f8429014610476576102c8565b806382fc80541461043557806383d012f414610448576102c8565b806348d6bc00116102295780636c7f8187116101dd57806375d07045116101c257806375d070451461040057806379502c5514610413578063799320bb1461042d576102c8565b80636c7f8187146103f05780636f2f3e77146103f8576102c8565b8063556c59111161020e578063556c5911146103a65780635bd9e299146103c65780636bf90c84146103db576102c8565b806348d6bc0014610396578063549b1f6b1461039e576102c8565b80632c17b91e1161028057806331a38c891161026557806331a38c89146103665780633a275fa21461036e5780633df4d2db14610376576102c8565b80632c17b91e146103565780632dfca4451461035e576102c8565b80630d49722d116102b15780630d49722d1461030b57806326c50007146103205780632b36342714610343576102c8565b806301ffc9a7146102cd578063093a9d65146102f6575b600080fd5b6102e06102db366004613814565b610571565b6040516102ed9190613c4d565b60405180910390f35b6102fe6105b5565b6040516102ed9190613b22565b61031e6103193660046137a0565b6105bb565b005b61033361032e3660046138c8565b610660565b6040516102ed9493929190613c58565b61031e610351366004613946565b61069e565b61031e6107d5565b6102fe610853565b6102e0610859565b61031e610869565b6103896103843660046138e0565b610931565b6040516102ed9190613ce9565b61031e610a41565b61031e610851565b6103b96103b43660046138c8565b610bde565b6040516102ed9190613c75565b6103ce610c6f565b6040516102ed9190613b85565b6103e3610c7e565b6040516102ed9190613c3a565b6102e0610d15565b61031e610dc1565b61038961040e3660046138c8565b610e24565b61041b610ebe565b6040516102ed96959493929190613d3c565b6102e06111bb565b6102e0610443366004613925565b6111dd565b6102e06111fd565b6102e061045e3660046138c8565b61120d565b6102fe6104713660046138c8565b611222565b6102fe6104843660046138c8565b611368565b6102fe610497366004613925565b61137a565b6103ce611397565b6103896104b2366004613925565b6113a6565b6103ce6114f1565b6102fe6104cd3660046138c8565b611500565b6103ce611512565b61031e6104e83660046138c8565b611521565b6105006104fb3660046135b8565b6119c8565b6040516102ed9190613cd4565b6102fe6119f5565b6103ce6105233660046138c8565b6119fb565b6102fe611a16565b61031e61053e3660046137a0565b611a1c565b61031e61055136600461383c565b611b29565b6102e0611c86565b61050061056c366004613673565b611c96565b60006001600160e01b031982167f4e2312e00000000000000000000000000000000000000000000000000000000014806105af57506105af82611cc1565b92915050565b600f5490565b6002546001600160a01b03163314806105de57506003546001600160a01b031633145b6106035760405162461bcd60e51b81526004016105fa9061427d565b60405180910390fd5b600f80548391839161061790600190614491565b8154811061063557634e487b7160e01b600052603260045260246000fd5b9060005260206000209060050201600401919061065392919061334e565b5061065c611cf3565b5050565b600f818154811061067057600080fd5b6000918252602090912060059091020180546001820154600283015460039093015460ff9092169350919084565b6002546001600160a01b03163314156106c1576106bc838383611d10565b6107d0565b6015546013546040517f237f27f00000000000000000000000000000000000000000000000000000000081526000926001600160a01b03169163237f27f09161070d9190600401613b22565b60006040518083038186803b15801561072557600080fd5b505afa158015610739573d6000803e3d6000fd5b505050506040513d6000823e601f3d908101601f1916820160405261076191908101906136ed565b905060005b81518110156107cd5781818151811061078f57634e487b7160e01b600052603260045260246000fd5b60200260200101516001600160a01b0316336001600160a01b031614156107bb576107bb858585611d10565b806107c581614925565b915050610766565b50505b505050565b6108136040518060400160405280600f81526020017f507265706172696e6720736f6c76650000000000000000000000000000000000815250611dd0565b601180547fffffffffffffffffff00ffffffffffffffffffffffffffffffffffffffffffff16600160b01b179055610849611e2c565b6108516121ad565b565b60125481565b601154600160b01b900460ff1681565b6108a76040518060400160405280600f81526020017f457865637574696e6720736f6c76650000000000000000000000000000000000815250611dd0565b6108af610d15565b6108cb5760405162461bcd60e51b81526004016105fa90614157565b6109096040518060400160405280601681526020017f646566657272656420696e67657374732076616c696400000000000000000000815250611dd0565b610911612250565b610919612453565b61092161258f565b610929612a00565b610851612a28565b60155460135460405162c8a40d60e51b81526060926000926001600160a01b039091169163191481a091610969918890600401613cc6565b60206040518083038186803b15801561098157600080fd5b505afa158015610995573d6000803e3d6000fd5b505050506040513d601f19601f820116820180604052508101906109b9919061359c565b9050600080826001600160a01b0316856040516109d69190613b2b565b600060405180830381855afa9150503d8060008114610a11576040519150601f19603f3d011682016040523d82523d6000602084013e610a16565b606091505b509150915081610a385760405162461bcd60e51b81526004016105fa90614122565b95945050505050565b6002546001600160a01b0316331480610a6457506003546001600160a01b031633145b610a805760405162461bcd60e51b81526004016105fa90613e0b565b6016544211610aa15760405162461bcd60e51b81526004016105fa906142da565b601054600f80546001600160a01b039092169163c49298ac9190610ac790600190614491565b81548110610ae557634e487b7160e01b600052603260045260246000fd5b906000526020600020906005020160010154600f6001600f80549050610b0b9190614491565b81548110610b2957634e487b7160e01b600052603260045260246000fd5b90600052602060002090600502016004016040518363ffffffff1660e01b8152600401610b57929190613c8f565b600060405180830381600087803b158015610b7157600080fd5b505af1158015610b85573d6000803e3d6000fd5b505050506001600f6001600f80549050610b9f9190614491565b81548110610bbd57634e487b7160e01b600052603260045260246000fd5b60009182526020909120600590910201805460ff1916911515919091179055565b60155460135460405162c8a40d60e51b815260009283926001600160a01b039091169163191481a091610c15918790600401613cc6565b60206040518083038186803b158015610c2d57600080fd5b505afa158015610c41573d6000803e3d6000fd5b505050506040513d601f19601f82011682018060405250810190610c65919061359c565b60601b9392505050565b6010546001600160a01b031681565b600f805460609190610c9290600190614491565b81548110610cb057634e487b7160e01b600052603260045260246000fd5b9060005260206000209060050201600401805480602002602001604051908101604052809291908181526020018280548015610d0b57602002820191906000526020600020905b815481526020019060010190808311610cf7575b5050505050905090565b60006001815b600654811015610dbb576006805482908110610d4757634e487b7160e01b600052603260045260246000fd5b600091825260209091206001600590920201015460ff168015610d9f5750600f546006805483908110610d8a57634e487b7160e01b600052603260045260246000fd5b90600052602060002090600502016000015414155b15610da957600091505b80610db381614925565b915050610d1b565b50905090565b6003546001600160a01b03163314610deb5760405162461bcd60e51b81526004016105fa90613f7b565b60118054600160b81b7fffffffffffffffff00ffffffffffffffffffffffffffffffffffffffffffffff91821617169055610851611cf3565b60196020526000908152604090208054610e3d906148d7565b80601f0160208091040260200160405190810160405280929190818152602001828054610e69906148d7565b8015610eb65780601f10610e8b57610100808354040283529160200191610eb6565b820191906000526020600020905b815481529060010190602001808311610e9957829003601f168201915b505050505081565b60018054600254600354600454600580546001600160a01b039586169694861695909316939192610eee906148d7565b80601f0160208091040260200160405190810160405280929190818152602001828054610f1a906148d7565b8015610f675780601f10610f3c57610100808354040283529160200191610f67565b820191906000526020600020905b815481529060010190602001808311610f4a57829003601f168201915b505050505090806007016040518060e001604052908160008201548152602001600182015481526020016002820154815260200160038201805480602002602001604051908101604052809291908181526020018280548015610fe957602002820191906000526020600020905b815481526020019060010190808311610fd5575b5050505050815260200160048201805480602002602001604051908101604052809291908181526020016000905b828210156110835760008481526020908190208301805460408051828502810185019091528181529283018282801561106f57602002820191906000526020600020905b81548152602001906001019080831161105b575b505050505081526020019060010190611017565b50505050815260200160058201805480602002602001604051908101604052809291908181526020016000905b8282101561111c5760008481526020908190208301805460408051828502810185019091528181529283018282801561110857602002820191906000526020600020905b8154815260200190600101908083116110f4575b5050505050815260200190600101906110b0565b505050508152602001600682018054611134906148d7565b80601f0160208091040260200160405190810160405280929190818152602001828054611160906148d7565b80156111ad5780601f10611182576101008083540402835291602001916111ad565b820191906000526020600020905b81548152906001019060200180831161119057829003601f168201915b505050505081525050905086565b6011547501000000000000000000000000000000000000000000900460ff1681565b601c60209081526000928352604080842090915290825290205460ff1681565b601154600160b81b900460ff1681565b60186020526000908152604090205460ff1681565b601054600f805460009283926001600160a01b039091169163856296f7919061124d90600190614491565b8154811061126b57634e487b7160e01b600052603260045260246000fd5b906000526020600020906005020160020154600f6001600f805490506112919190614491565b815481106112af57634e487b7160e01b600052603260045260246000fd5b906000526020600020906005020160030154600160070160030187815481106112e857634e487b7160e01b600052603260045260246000fd5b90600052602060002001546040518463ffffffff1660e01b815260040161131193929190613cb0565b60206040518083038186803b15801561132957600080fd5b505afa15801561133d573d6000803e3d6000fd5b505050506040513d601f19601f8201168201806040525081019061136191906137fc565b9392505050565b601a6020526000908152604090205481565b601d60209081526000928352604080842090915290825290205481565b6014546001600160a01b031681565b6000828152601c6020908152604080832084845290915290205460609060ff16806113eb5750600f546000848152601d60209081526040808320868452909152902054145b6114075760405162461bcd60e51b81526004016105fa9061418c565b8261144b57600082815260176020908152604091829020549151611435926001600160a01b03169101613af7565b60405160208183030381529060405290506105af565b8260011415611477576000828152601860209081526040918290205491516114359260ff169101613b14565b826002141561149f576000828152601960209081526040918290209151611435929101613b47565b82600314156114c8576000828152601a6020908152604091829020549151611435929101613b22565b82600314156105af576000828152601b6020908152604091829020549151611435929101613b22565b6015546001600160a01b031681565b601b6020526000908152604090205481565b6011546001600160a01b031681565b600680548290811061154357634e487b7160e01b600052603260045260246000fd5b60009182526020822060059091020180549161155e83614925565b919050555061156c30612b9e565b6115b56001600501828154811061159357634e487b7160e01b600052603260045260246000fd5b600091825260209091206005909102016001015462010000900460ff16612bfa565b6115f3600160050182815481106115dc57634e487b7160e01b600052603260045260246000fd5b906000526020600020906005020160020154612bfa565b6116b96001600501828154811061161a57634e487b7160e01b600052603260045260246000fd5b90600052602060002090600502016004018054611636906148d7565b80601f0160208091040260200160405190810160405280929190818152602001828054611662906148d7565b80156116af5780601f10611684576101008083540402835291602001916116af565b820191906000526020600020905b81548152906001019060200180831161169257829003601f168201915b5050505050612c56565b60068054829081106116db57634e487b7160e01b600052603260045260246000fd5b906000526020600020906005020160010160019054906101000a900460ff16156118435761183e6001600501828154811061172657634e487b7160e01b600052603260045260246000fd5b906000526020600020906005020160010160029054906101000a900460ff166001600501838154811061176957634e487b7160e01b600052603260045260246000fd5b9060005260206000209060050201600201546001600501848154811061179f57634e487b7160e01b600052603260045260246000fd5b906000526020600020906005020160040180546117bb906148d7565b80601f01602080910402602001604051908101604052809291908181526020018280546117e7906148d7565b80156118345780601f1061180957610100808354040283529160200191611834565b820191906000526020600020905b81548152906001019060200180831161181757829003601f168201915b5050505050612cb2565b6119c5565b60006119416001600501838154811061186c57634e487b7160e01b600052603260045260246000fd5b906000526020600020906005020160030154600160050184815481106118a257634e487b7160e01b600052603260045260246000fd5b906000526020600020906005020160040180546118be906148d7565b80601f01602080910402602001604051908101604052809291908181526020018280546118ea906148d7565b80156119375780601f1061190c57610100808354040283529160200191611937565b820191906000526020600020905b81548152906001019060200180831161191a57829003601f168201915b5050505050610931565b905061065c6001600501838154811061196a57634e487b7160e01b600052603260045260246000fd5b906000526020600020906005020160010160029054906101000a900460ff16600160050184815481106119ad57634e487b7160e01b600052603260045260246000fd5b90600052602060002090600502016002015483611d10565b50565b7fbc197c810000000000000000000000000000000000000000000000000000000098975050505050505050565b60135481565b6017602052600090815260409020546001600160a01b031681565b60165481565b6003546001600160a01b03163314611a465760405162461bcd60e51b81526004016105fa90613f7b565b601154600160b01b900460ff161515600114611a745760405162461bcd60e51b81526004016105fa90613e79565b601154600160b81b900460ff161515600114611aa25760405162461bcd60e51b81526004016105fa90613eb0565b600f805483918391611ab690600190614491565b81548110611ad457634e487b7160e01b600052603260045260246000fd5b90600052602060002090600502016004019190611af292919061334e565b50601180547fffffffffffffff0000ffffffffffffffffffffffffffffffffffffffffffffff16600160c01b17905561065c611cf3565b611b366020820182613580565b6001600160a01b0316336001600160a01b031614611b665760405162461bcd60e51b81526004016105fa906141e9565b6000611b786040830160208401613580565b6001600160a01b03161415611b9f5760405162461bcd60e51b81526004016105fa90613e42565b806001611bac8282614be5565b905050816001600160a01b0316635bd9e2996040518163ffffffff1660e01b815260040160206040518083038186803b158015611be857600080fd5b505afa158015611bfc573d6000803e3d6000fd5b505050506040513d601f19601f82011682018060405250810190611c20919061359c565b6010805473ffffffffffffffffffffffffffffffffffffffff199081166001600160a01b03938416179091556011805482169883169890981790975560139590955550601292909255601480548516918416919091179055601580549093169116179055565b601154600160c01b900460ff1681565b7ff23a6e61000000000000000000000000000000000000000000000000000000009695505050505050565b6001600160e01b031981167f01ffc9a70000000000000000000000000000000000000000000000000000000014919050565b600454611d01906001614472565b611d0b904261445a565b601655565b60ff8084166000908152601c602090815260408083208684529091529020541615611d4d5760405162461bcd60e51b81526004016105fa90614246565b600f54611d5c90600190614491565b60ff84166000908152601d6020908152604080832086845290915290205414611d975760405162461bcd60e51b81526004016105fa90613f1e565b60ff83166000908152601d602090815260408083208584529091528120805491611dc083614925565b91905055506107d0838383612d1e565b6119c581604051602401611de49190613ce9565b60408051601f198184030181529190526020810180516001600160e01b03167f41304fac00000000000000000000000000000000000000000000000000000000179052612e43565b611e6a6040518060400160405280601081526020017f416464696e6720636f6e646974696f6e00000000000000000000000000000000815250611dd0565b611e72613399565b600f54604051611e8a91600e91309190602001613b53565b60408051601f1981840301815291815281516020928301209183019190915260155460135491517f882175660000000000000000000000000000000000000000000000000000000081526000926001600160a01b0390921691638821756691611ef69190600401613b22565b60206040518083038186803b158015611f0e57600080fd5b505afa158015611f22573d6000803e3d6000fd5b505050506040513d601f19601f82011682018060405250810190611f46919061359c565b90506001600160a01b038116611f625760006040830152611fff565b6009546040517f84dbd3910000000000000000000000000000000000000000000000000000000081526001600160a01b038316916384dbd39191611fa99190600401613b22565b60206040518083038186803b158015611fc157600080fd5b505afa158015611fd5573d6000803e3d6000fd5b505050506040513d601f19601f82011682018060405250810190611ff991906137fc565b60408301525b60105460208301516008546040517f852c6ae20000000000000000000000000000000000000000000000000000000081526001600160a01b039093169263852c6ae292612050923092600401613c00565b60206040518083038186803b15801561206857600080fd5b505afa15801561207c573d6000803e3d6000fd5b505050506040513d601f19601f820116820180604052508101906120a091906137fc565b60608301908152600f8054600181018255600091909152835160059091027f8d1108e10bcb7c27dddfc02ed9d693a074039d026cf4ea4240b40f7d581ac8028101805492151560ff199093169290921782556020808601517f8d1108e10bcb7c27dddfc02ed9d693a074039d026cf4ea4240b40f7d581ac80383015560408601517f8d1108e10bcb7c27dddfc02ed9d693a074039d026cf4ea4240b40f7d581ac80483015592517f8d1108e10bcb7c27dddfc02ed9d693a074039d026cf4ea4240b40f7d581ac8058201556080850151805186946121a2937f8d1108e10bcb7c27dddfc02ed9d693a074039d026cf4ea4240b40f7d581ac806019201906133c9565b50505061065c612e64565b6121eb6040518060400160405280601181526020017f457865637574696e6720696e6765737473000000000000000000000000000000815250611dd0565b60005b6006548110156119c557600680548290811061221a57634e487b7160e01b600052603260045260246000fd5b600091825260209091206001600590920201015460ff1661223e5761223e81611521565b8061224881614925565b9150506121ee565b600f80546000919061226490600190614491565b8154811061228257634e487b7160e01b600052603260045260246000fd5b906000526020600020906005020160020154141561085157601154601454600a546040517f23b872dd0000000000000000000000000000000000000000000000000000000081526001600160a01b039384169384936323b872dd936122f09391909216913091600401613b99565b602060405180830381600087803b15801561230a57600080fd5b505af115801561231e573d6000803e3d6000fd5b505050506040513d601f19601f8201168201806040525081019061234291906137e0565b5060105460405163095ea7b360e01b81526001600160a01b038381169263095ea7b3926123789290911690600090600401613c21565b602060405180830381600087803b15801561239257600080fd5b505af11580156123a6573d6000803e3d6000fd5b505050506040513d601f19601f820116820180604052508101906123ca91906137e0565b50601054600a5460405163095ea7b360e01b81526001600160a01b038481169363095ea7b393612401939290911691600401613c21565b602060405180830381600087803b15801561241b57600080fd5b505af115801561242f573d6000803e3d6000fd5b505050506040513d601f19601f8201168201806040525081019061065c91906137e0565b6124916040518060400160405280600e81526020017f53706c697420706f736974696f6e000000000000000000000000000000000000815250611dd0565b601054601154600f80546001600160a01b03938416936372ce4275931691906124bc90600190614491565b815481106124da57634e487b7160e01b600052603260045260246000fd5b906000526020600020906005020160020154600f6001600f805490506125009190614491565b8154811061251e57634e487b7160e01b600052603260045260246000fd5b6000918252602090912060036005909202010154600a546040516001600160e01b031960e087901b16815261255b94939291600b91600401613cfc565b600060405180830381600087803b15801561257557600080fd5b505af1158015612589573d6000803e3d6000fd5b50505050565b6125cd6040518060400160405280601181526020017f616c6c6f63617465506172746974696f6e000000000000000000000000000000815250611dd0565b60005b600b548110156119c557600f805461262491906125ef90600190614491565b8154811061260d57634e487b7160e01b600052603260045260246000fd5b906000526020600020906005020160020154612ee2565b601054600f80546000926001600160a01b03169163856296f79161264a90600190614491565b8154811061266857634e487b7160e01b600052603260045260246000fd5b906000526020600020906005020160020154600f6001600f8054905061268e9190614491565b815481106126ac57634e487b7160e01b600052603260045260246000fd5b906000526020600020906005020160030154600160070160030186815481106126e557634e487b7160e01b600052603260045260246000fd5b90600052602060002001546040518463ffffffff1660e01b815260040161270e93929190613cb0565b60206040518083038186803b15801561272657600080fd5b505afa15801561273a573d6000803e3d6000fd5b505050506040513d601f19601f8201168201806040525081019061275e91906137fc565b6010546011546040517f39dd75300000000000000000000000000000000000000000000000000000000081529293506000926001600160a01b03928316926339dd7530926127b3929116908690600401613c21565b60206040518083038186803b1580156127cb57600080fd5b505afa1580156127df573d6000803e3d6000fd5b505050506040513d601f19601f8201168201806040525081019061280391906137fc565b905060005b600c548110156129ea57600d8054600091908690811061283857634e487b7160e01b600052603260045260246000fd5b90600052602060002001828154811061286157634e487b7160e01b600052603260045260246000fd5b906000526020600020015411156129d857601054600c80546001600160a01b039092169163f242432a9130916017916000918a9081106128b157634e487b7160e01b600052603260045260246000fd5b9060005260206000200186815481106128da57634e487b7160e01b600052603260045260246000fd5b9060005260206000200154815260200190815260200160002060009054906101000a90046001600160a01b0316856001600701600501898154811061292f57634e487b7160e01b600052603260045260246000fd5b90600052602060002001868154811061295857634e487b7160e01b600052603260045260246000fd5b90600052602060002001546012546040516020016129769190613b22565b6040516020818303038152906040526040518663ffffffff1660e01b81526004016129a5959493929190613bbd565b600060405180830381600087803b1580156129bf57600080fd5b505af11580156129d3573d6000803e3d6000fd5b505050505b806129e281614925565b915050612808565b50505080806129f890614925565b9150506125d0565b60005b6007548110156119c557612a1681612f3e565b80612a2081614925565b915050612a03565b6015546013546040517f5f67db1e0000000000000000000000000000000000000000000000000000000081526000926001600160a01b031691635f67db1e91612a749190600401613b22565b60206040518083038186803b158015612a8c57600080fd5b505afa158015612aa0573d6000803e3d6000fd5b505050506040513d601f19601f82011682018060405250810190612ac4919061359c565b90506001600160a01b03811615801590612b4a5750806001600160a01b0316636c7f81876040518163ffffffff1660e01b815260040160206040518083038186803b158015612b1257600080fd5b505afa158015612b26573d6000803e3d6000fd5b505050506040513d601f19601f82011682018060405250810190612b4a91906137e0565b156119c557806001600160a01b0316633a275fa26040518163ffffffff1660e01b8152600401600060405180830381600087803b158015612b8a57600080fd5b505af11580156107cd573d6000803e3d6000fd5b6119c581604051602401612bb29190613b85565b60408051601f198184030181529190526020810180516001600160e01b03167f2c2ecbc200000000000000000000000000000000000000000000000000000000179052612e43565b6119c581604051602401612c0e9190613b22565b60408051601f198184030181529190526020810180516001600160e01b03167ff5b1bba900000000000000000000000000000000000000000000000000000000179052612e43565b6119c581604051602401612c6a9190613ce9565b60408051601f198184030181529190526020810180516001600160e01b03167f0be77f5600000000000000000000000000000000000000000000000000000000179052612e43565b60ff8084166000908152601c602090815260408083208684529091529020541615612cef5760405162461bcd60e51b81526004016105fa90613ee7565b60ff83166000908152601c602090815260408083208584529091529020805460ff191660011790556107d08383835b60ff8316612d6f57612d31816000613213565b6000838152601760205260409020805473ffffffffffffffffffffffffffffffffffffffff19166001600160a01b03929092169190911790556107d0565b8260ff1660011415612dbc576000612d88826000613259565b60ff1611612d97576000612d9a565b60015b6000838152601860205260409020805460ff19169115159190911790556107d0565b8260ff1660021415612ded5760008281526019602090815260409091208251612de792840190613404565b506107d0565b8260ff1660031415612e1857612e0481600061328f565b6000838152601a60205260409020556107d0565b8260ff16600414156107d057612e2f8160006132c5565b6000838152601b6020526040902055505050565b80516a636f6e736f6c652e6c6f67602083016000808483855afa5050505050565b601054600f80546001600160a01b039092169163d96ee754913091612e8b90600190614491565b81548110612ea957634e487b7160e01b600052603260045260246000fd5b9060005260206000209060050201600101546001600701600001546040518463ffffffff1660e01b815260040161255b93929190613c00565b6119c581604051602401612ef69190613b22565b60408051601f198184030181529190526020810180516001600160e01b03167f27b7cf8500000000000000000000000000000000000000000000000000000000179052612e43565b6007805482908110612f6057634e487b7160e01b600052603260045260246000fd5b600091825260209091206004909102015460ff1615612f915760405162461bcd60e51b81526004016105fa90614337565b6007805482908110612fb357634e487b7160e01b600052603260045260246000fd5b906000526020600020906004020160020154471015612fe45760405162461bcd60e51b81526004016105fa9061407d565b600180600601828154811061300957634e487b7160e01b600052603260045260246000fd5b60009182526020822060049190910201805460ff191692151592909217909155600780548390811061304b57634e487b7160e01b600052603260045260246000fd5b60009182526020918290206040805160c081018252600493909302909101805460ff80821615158552610100820416151594840194909452620100009093046001600160a01b031690820152600182015460608201526002820154608082015260038201805491929160a0840191906130c3906148d7565b80601f01602080910402602001604051908101604052809291908181526020018280546130ef906148d7565b801561313c5780601f106131115761010080835404028352916020019161313c565b820191906000526020600020905b81548152906001019060200180831161311f57829003601f168201915b505050505081525050905080602001511561317557606081015160009081526017602052604090819020546001600160a01b0316908201525b60008082604001516001600160a01b031683608001518460a0015160405161319d9190613b2b565b60006040518083038185875af1925050503d80600081146131da576040519150601f19603f3d011682016040523d82523d6000602084013e6131df565b606091505b50915091506131ed826132f2565b6131f681612c56565b816125895760405162461bcd60e51b81526004016105fa906140b4565b600061322082601461445a565b835110156132405760405162461bcd60e51b81526004016105fa90614046565b5001602001516c01000000000000000000000000900490565b600061326682600161445a565b835110156132865760405162461bcd60e51b81526004016105fa906140eb565b50016001015190565b600061329c82602061445a565b835110156132bc5760405162461bcd60e51b81526004016105fa9061400f565b50016020015190565b60006132d282602061445a565b835110156132bc5760405162461bcd60e51b81526004016105fa90613fd8565b6119c5816040516024016133069190613c4d565b60408051601f198184030181529190526020810180516001600160e01b03167f32458eed00000000000000000000000000000000000000000000000000000000179052612e43565b828054828255906000526020600020908101928215613389579160200282015b8281111561338957823582559160200191906001019061336e565b50613395929150613477565b5090565b6040805160a081018252600080825260208201819052918101829052606080820192909252608081019190915290565b828054828255906000526020600020908101928215613389579160200282015b828111156133895782518255916020019190600101906133e9565b828054613410906148d7565b90600052602060002090601f0160209004810192826134325760008555613389565b82601f1061344b57805160ff1916838001178555613389565b8280016001018555821561338957918201828111156133895782518255916020019190600101906133e9565b5b808211156133955760008155600101613478565b60008083601f84011261349d578182fd5b50813567ffffffffffffffff8111156134b4578182fd5b60208301915083602080830285010111156134ce57600080fd5b9250929050565b60008083601f8401126134e6578182fd5b50813567ffffffffffffffff8111156134fd578182fd5b6020830191508360208285010111156134ce57600080fd5b600082601f830112613525578081fd5b813567ffffffffffffffff81111561353f5761353f61496c565b613552601f8201601f1916602001614424565b818152846020838601011115613566578283fd5b816020850160208301379081016020019190915292915050565b600060208284031215613591578081fd5b813561136181614e54565b6000602082840312156135ad578081fd5b815161136181614e54565b60008060008060008060008060a0898b0312156135d3578384fd5b88356135de81614e54565b975060208901356135ee81614e54565b9650604089013567ffffffffffffffff8082111561360a578586fd5b6136168c838d0161348c565b909850965060608b013591508082111561362e578586fd5b61363a8c838d0161348c565b909650945060808b0135915080821115613652578384fd5b5061365f8b828c016134d5565b999c989b5096995094979396929594505050565b60008060008060008060a0878903121561368b578182fd5b863561369681614e54565b955060208701356136a681614e54565b94506040870135935060608701359250608087013567ffffffffffffffff8111156136cf578283fd5b6136db89828a016134d5565b979a9699509497509295939492505050565b600060208083850312156136ff578182fd5b825167ffffffffffffffff80821115613716578384fd5b818501915085601f830112613729578384fd5b81518181111561373b5761373b61496c565b838102915061374b848301614424565b8181528481019084860184860187018a1015613765578788fd5b8795505b83861015613793578051945061377e85614e54565b84835260019590950194918601918601613769565b5098975050505050505050565b600080602083850312156137b2578182fd5b823567ffffffffffffffff8111156137c8578283fd5b6137d48582860161348c565b90969095509350505050565b6000602082840312156137f1578081fd5b815161136181614e69565b60006020828403121561380d578081fd5b5051919050565b600060208284031215613825578081fd5b81356001600160e01b031981168114611361578182fd5b60008060008060008060c08789031215613854578384fd5b863561385f81614e54565b95506020870135945060408701359350606087013561387d81614e54565b9250608087013561388d81614e54565b915060a087013567ffffffffffffffff8111156138a8578182fd5b8701610100818a0312156138ba578182fd5b809150509295509295509295565b6000602082840312156138d9578081fd5b5035919050565b600080604083850312156138f2578182fd5b82359150602083013567ffffffffffffffff81111561390f578182fd5b61391b85828601613515565b9150509250929050565b60008060408385031215613937578182fd5b50508035926020909101359150565b60008060006060848603121561395a578081fd5b833561396581614e77565b925060208401359150604084013567ffffffffffffffff811115613987578182fd5b61399386828701613515565b9150509250925092565b6000815180845260208085018081965082840281019150828601855b858110156139e35782840389526139d18483516139f0565b988501989350908401906001016139b9565b5091979650505050505050565b6000815180845260208085019450808401835b83811015613a1f57815187529582019590820190600101613a03565b509495945050505050565b6000815480845260208085019450838352808320835b83811015613a1f57815487529582019560019182019101613a40565b60008151808452613a748160208601602086016148ab565b601f01601f19169290920160200192915050565b60008154613a95816148d7565b60018281168015613aad5760018114613abe57613aed565b60ff19841687528287019450613aed565b8560005260208060002060005b85811015613ae45781548a820152908401908201613acb565b50505082870194505b5050505092915050565b60609190911b6bffffffffffffffffffffffff1916815260140190565b90151560f81b815260010190565b90815260200190565b60008251613b3d8184602087016148ab565b9190910192915050565b60006113618284613a88565b6000613b5f8286613a88565b60609490941b6bffffffffffffffffffffffff1916845250506014820152603401919050565b6001600160a01b0391909116815260200190565b6001600160a01b039384168152919092166020820152604081019190915260600190565b60006001600160a01b03808816835280871660208401525084604083015283606083015260a06080830152613bf560a0830184613a5c565b979650505050505050565b6001600160a01b039390931683526020830191909152604082015260600190565b6001600160a01b03929092168252602082015260400190565b60006020825261136160208301846139f0565b901515815260200190565b931515845260208401929092526040830152606082015260800190565b6bffffffffffffffffffffffff1991909116815260200190565b600083825260406020830152613ca86040830184613a2a565b949350505050565b9283526020830191909152604082015260600190565b918252602082015260400190565b6001600160e01b031991909116815260200190565b6000602082526113616020830184613a5c565b60006001600160a01b038716825285602083015284604083015260a06060830152613d2a60a0830185613a2a565b90508260808301529695505050505050565b60006001600160a01b038089168352808816602084015280871660408401525084606083015260c06080830152613d7660c0830185613a5c565b82810360a0840152835181526020840151602082015260408401516040820152606084015160e06060830152613daf60e08301826139f0565b905060808501518282036080840152613dc8828261399d565b91505060a085015182820360a0840152613de2828261399d565b91505060c085015182820360c0840152613dfc8282613a5c565b9b9a5050505050505050505050565b6020808252601e908201527f536f6c7665723a3a4f6e6c79204b6565706572206f7220417262697465720000604082015260600190565b6020808252601e908201527f536f6c7665723a204b6565706572206164647265737320696e76616c69640000604082015260600190565b60208082526012908201527f536f6c7665723a20556e65786563757465640000000000000000000000000000604082015260600190565b6020808252601f908201527f536f6c7665723a204172626974726174696f6e206e6f742070656e64696e6700604082015260600190565b6020808252601c908201527f536f6c7665723a3a436f6e7374616e7420706f7274206c6f636b656400000000604082015260600190565b60208082526035908201527f536f6c7665723a3a506f72742076657273696f6e20646f6573206e6f74206d6160408201527f74636820636f6e646974696f6e2076657273696f6e0000000000000000000000606082015260800190565b6020808252602e908201527f536f6c7665723a204f6e6c79207468652041726269746572206164647265737360408201527f206d61792063616c6c2074686973000000000000000000000000000000000000606082015260800190565b60208082526015908201527f746f55696e743235365f6f75744f66426f756e64730000000000000000000000604082015260600190565b60208082526015908201527f746f427974657333325f6f75744f66426f756e64730000000000000000000000604082015260600190565b60208082526015908201527f746f416464726573735f6f75744f66426f756e64730000000000000000000000604082015260600190565b60208082526018908201527f536f6c7665723a3a696e73756666696369656e74206574680000000000000000604082015260600190565b60208082526014908201527f536f6c7665723a3a63616c6c206661696c757265000000000000000000000000604082015260600190565b60208082526013908201527f746f55696e74385f6f75744f66426f756e647300000000000000000000000000604082015260600190565b6020808252818101527f536f6c7665723a3a496e676573742073746174696363616c6c206661696c6564604082015260600190565b6020808252818101527f536f6c7665723a3a446566657272656420696e676573747320696e76616c6964604082015260600190565b6020808252602a908201527f536f6c7665723a3a506f727420697320756e6d6170706564206f722077726f6e60408201527f672076657273696f6e2e00000000000000000000000000000000000000000000606082015260800190565b60208082526022908201527f536f6c7665723a3a4f6e6c7920666163746f7279206d61792063616c6c20696e60408201527f6974000000000000000000000000000000000000000000000000000000000000606082015260800190565b6020808252601b908201527f536f6c7665723a3a44796e616d696320706f7274206c6f636b65640000000000604082015260600190565b60208082526031908201527f536f6c7665723a204f6e6c7920746865204b6565706572206f7220417262697460408201527f6572206d61792063616c6c20746869732e000000000000000000000000000000606082015260800190565b60208082526027908201527f536f6c7665723a2054696d656c6f636b206973207374696c6c20696e2074686560408201527f2066757475726500000000000000000000000000000000000000000000000000606082015260800190565b60208082526017908201527f536f6c7665723a3a616374696f6e206578656375746564000000000000000000604082015260600190565b6000808335601e19843603018112614384578283fd5b83018035915067ffffffffffffffff82111561439e578283fd5b60209081019250810236038213156134ce57600080fd5b6000808335601e198436030181126143cb578283fd5b83018035915067ffffffffffffffff8211156143e5578283fd5b6020019150368190038213156134ce57600080fd5b6000823560be19833603018112613b3d578182fd5b6000823560de19833603018112613b3d578182fd5b60405181810167ffffffffffffffff811182821017156144465761444661496c565b604052919050565b60009081526020902090565b6000821982111561446d5761446d614956565b500190565b600081600019048311821515161561448c5761448c614956565b500290565b6000828210156144a3576144a3614956565b500390565b5b8181101561065c57600081556001016144a9565b680100000000000000008311156144d6576144d661496c565b805483825580841015614514576000828152602081208581019083015b8082101561451057614505838361498f565b6001820191506144f3565b5050505b508161451f8261444e565b6000805b8681101561455657614535848761436e565b61454181838688614cc2565b50506020939093019260019283019201614523565b50505050505050565b680100000000000000008311156145785761457861496c565b805483825580841015614627577f3fffffffffffffffffffffffffffffffffffffffffffffffffffffffffffffff60018183118116156145ba576145ba614956565b60048287118216156145ce576145ce614956565b600085815260208120909350878202810190828602015b80821015614621578482556145fd8586868501614e35565b61460b858660028501614e35565b61461885600384016149cc565b908201906145e5565b50505050505b50816146328261444e565b6000805b868110156145565761465261464b85886143fa565b8385614cdb565b6020939093019260049290920191600101614636565b680100000000000000008311156146815761468161496c565b80548382558084101561473e577f333333333333333333333333333333333333333333333333333333333333333360018183118116156146c3576146c3614956565b60058287118216156146d7576146d7614956565b600085815260208120909350878202810190828602015b8082101561473857614701858684614e35565b8484830155614714858660028501614e35565b614722858660038501614e35565b61472f85600484016149cc565b908201906146ee565b50505050505b50816147498261444e565b6000805b8681101561455657614769614762858861440f565b8385614d9a565b602093909301926005929092019160010161474d565b614789838261498f565b818160005260208060002060005b8681101561455657833582559282019260019182019101614797565b67ffffffffffffffff8311156147cb576147cb61496c565b6147d581546148d7565b600080601f8611601f8411818117156147f4576147f18661444e565b92505b8015614823576020601f8901048301602089101561480f5750825b6148216020601f8801048501826144a8565b505b50806001811461484f5760009450871561483e578387013594505b6148488886614912565b86556148a1565b601f198816945082845b868110156148795788860135825560209586019560019092019101614859565b508886101561489657878501356000196008601f8c16021c191681555b506001600289020186555b5050505050505050565b60005b838110156148c65781810151838201526020016148ae565b838111156125895750506000910152565b6002810460018216806148eb57607f821691505b6020821081141561490c57634e487b7160e01b600052602260045260246000fd5b50919050565b600019600883021c191660029091021790565b600060001982141561493957614939614956565b5060010190565b634e487b7160e01b600052600060045260246000fd5b634e487b7160e01b600052601160045260246000fd5b634e487b7160e01b600052604160045260246000fd5b600081356105af81614e54565b680100000000000000008211156149a8576149a861496c565b8054828255808310156107d0578160005260206000206125898282018583016144a8565b81156149da576149da614940565b6149e481546148d7565b80156107d057601f8111600181146149ff5760008355612589565b600083815260208120614a1d6020601f8601048201600183016144a8565b50838152602081208185555550505050565b6001600160a01b03821673ffffffffffffffffffffffffffffffffffffffff198254161781555050565b60ff1981541660ff8315151681178255505050565b8135815560016020808401358284015560408401356002840155614a95606085018561436e565b614aa381836003880161477f565b5050614ab2608085018561436e565b614ac08183600488016144bd565b5050614acf60a085018561436e565b614add8183600588016144bd565b505060068301614af060c08601866143b5565b67ffffffffffffffff811115614b0857614b0861496c565b614b1283546148d7565b600080601f8411601f841181811715614b3157614b2e8861444e565b92505b8015614b5d5788601f870104830189871015614b4a5750825b614b5b8a601f8801048501826144a8565b505b508060018114614b8957600094508515614b78578387013594505b614b828686614912565b8855614bd7565b601f198616945082845b86811015614bb057888601358255948a0194908b01908a01614b93565b5086861015614bcd57878501356000196008601f8a16021c191681555b5089600287020188555b505050505050505050505050565b8135614bf081614e54565b614bfa8183614a2f565b506020820135614c0981614e54565b614c168160018401614a2f565b50614c2f614c2660408401614982565b60028301614a2f565b60608201356003820155614c4660808301836143b5565b614c548183600486016147b3565b5050614c6360a083018361436e565b614c71818360058601614668565b5050614c8060c083018361436e565b614c8e81836006860161455f565b505061065c614ca060e084018461440f565b60078301614a6e565b805461ff00191691151560081b61ff0016919091179055565b8115614cd057614cd0614940565b61258984848361477f565b8115614ce957614ce9614940565b8235614cf481614e69565b614cfe8183614a59565b506020830135614d0d81614e69565b614d178183614ca9565b506040830135614d2681614e54565b81547fffffffffffffffffffff0000000000000000000000000000000000000000ffff1660109190911b75ffffffffffffffffffffffffffffffffffffffff0000161781556060830135600182015560808301356002820155614d8c60a08401846143b5565b6107cd8183600386016147b3565b8115614da857614da8614940565b82358155600181016020840135614dbe81614e69565b614dc88183614a59565b506040840135614dd781614e69565b614de18183614ca9565b506060840135614df081614e77565b815462ff0000191660109190911b62ff0000161790556080830135600282015560a08301356003820155614e2760c08401846143b5565b6107cd8183600486016147b3565b805460088302600019811b8086831b1681198416178455505050505050565b6001600160a01b03811681146119c557600080fd5b80151581146119c557600080fd5b60ff811681146119c557600080fdfea26469706673582212201b4fb85dfa531acf5d684817c96e3c6bdd15e107bb06df3f15982af45286634964736f6c63430008000033",
  "linkReferences": {},
  "deployedLinkReferences": {}
}