{
  "_format": "hh-sol-artifact-1",
  "contractName": "BinaryCondition",
  "sourceName": "contracts/test/BinaryCondition.sol",
  "abi": [
    {
      "anonymous": false,
      "inputs": [
        {
          "indexed": true,
          "internalType": "uint256",
          "name": "fee",
          "type": "uint256"
        }
      ],
      "name": "FeeSet",
      "type": "event"
    },
    {
      "anonymous": false,
      "inputs": [
        {
          "indexed": true,
          "internalType": "address",
          "name": "oracle",
          "type": "address"
        }
      ],
      "name": "OracleSet",
      "type": "event"
    },
    {
      "anonymous": false,
      "inputs": [
        {
          "indexed": true,
          "internalType": "bytes32",
          "name": "conditionId",
          "type": "bytes32"
        },
        {
          "indexed": false,
          "internalType": "uint256",
          "name": "payeeAmount",
          "type": "uint256"
        },
        {
          "indexed": false,
          "internalType": "address",
          "name": "avatar",
          "type": "address"
        }
      ],
      "name": "RedeemFail",
      "type": "event"
    },
    {
      "anonymous": false,
      "inputs": [
        {
          "indexed": true,
          "internalType": "bytes32",
          "name": "conditionId",
          "type": "bytes32"
        },
        {
          "indexed": true,
          "internalType": "address",
          "name": "payee",
          "type": "address"
        },
        {
          "indexed": false,
          "internalType": "uint256",
          "name": "payeeAmount",
          "type": "uint256"
        },
        {
          "indexed": false,
          "internalType": "address",
          "name": "avatar",
          "type": "address"
        },
        {
          "indexed": false,
          "internalType": "uint256",
          "name": "feeAmount",
          "type": "uint256"
        }
      ],
      "name": "RedeemSuccess",
      "type": "event"
    },
    {
      "inputs": [],
      "name": "PPM",
      "outputs": [
        {
          "internalType": "uint32",
          "name": "",
          "type": "uint32"
        }
      ],
      "stateMutability": "view",
      "type": "function"
    },
    {
      "inputs": [],
      "name": "PPM100",
      "outputs": [
        {
          "internalType": "uint256",
          "name": "",
          "type": "uint256"
        }
      ],
      "stateMutability": "view",
      "type": "function"
    },
    {
      "inputs": [
        {
          "internalType": "uint256",
          "name": "",
          "type": "uint256"
        }
      ],
      "name": "_binaryIndexSets",
      "outputs": [
        {
          "internalType": "uint256",
          "name": "",
          "type": "uint256"
        }
      ],
      "stateMutability": "view",
      "type": "function"
    },
    {
      "inputs": [],
      "name": "_binaryOutcomeSlots",
      "outputs": [
        {
          "internalType": "uint256",
          "name": "",
          "type": "uint256"
        }
      ],
      "stateMutability": "view",
      "type": "function"
    },
    {
      "inputs": [
        {
          "internalType": "uint256",
          "name": "",
          "type": "uint256"
        }
      ],
      "name": "_binaryPartition",
      "outputs": [
        {
          "internalType": "uint256",
          "name": "",
          "type": "uint256"
        }
      ],
      "stateMutability": "view",
      "type": "function"
    },
    {
      "inputs": [],
      "name": "avatar",
      "outputs": [
        {
          "internalType": "address",
          "name": "",
          "type": "address"
        }
      ],
      "stateMutability": "view",
      "type": "function"
    },
    {
      "inputs": [],
      "name": "conditionalTokens",
      "outputs": [
        {
          "internalType": "contract ConditionalTokens",
          "name": "",
          "type": "address"
        }
      ],
      "stateMutability": "view",
      "type": "function"
    },
    {
      "inputs": [
        {
          "internalType": "address",
          "name": "_oracle",
          "type": "address"
        },
        {
          "internalType": "bytes32",
          "name": "_questionId",
          "type": "bytes32"
        },
        {
          "internalType": "bytes32",
          "name": "_parentCollectionId",
          "type": "bytes32"
        },
        {
          "internalType": "contract IERC20",
          "name": "_collateralToken",
          "type": "address"
        }
      ],
      "name": "createBinaryCondition",
      "outputs": [],
      "stateMutability": "nonpayable",
      "type": "function"
    },
    {
      "inputs": [],
      "name": "fee",
      "outputs": [
        {
          "internalType": "uint256",
          "name": "",
          "type": "uint256"
        }
      ],
      "stateMutability": "view",
      "type": "function"
    },
    {
      "inputs": [
        {
          "internalType": "address",
          "name": "_avatar",
          "type": "address"
        },
        {
          "internalType": "contract ConditionalTokens",
          "name": "_conditionalTokens",
          "type": "address"
        },
        {
          "internalType": "uint256",
          "name": "_fee",
          "type": "uint256"
        }
      ],
      "name": "initialize",
      "outputs": [],
      "stateMutability": "nonpayable",
      "type": "function"
    },
    {
      "inputs": [],
      "name": "initialized",
      "outputs": [
        {
          "internalType": "bool",
          "name": "",
          "type": "bool"
        }
      ],
      "stateMutability": "view",
      "type": "function"
    },
    {
      "inputs": [
        {
          "internalType": "address",
          "name": "operator",
          "type": "address"
        },
        {
          "internalType": "address",
          "name": "from",
          "type": "address"
        },
        {
          "internalType": "uint256[]",
          "name": "ids",
          "type": "uint256[]"
        },
        {
          "internalType": "uint256[]",
          "name": "values",
          "type": "uint256[]"
        },
        {
          "internalType": "bytes",
          "name": "data",
          "type": "bytes"
        }
      ],
      "name": "onERC1155BatchReceived",
      "outputs": [
        {
          "internalType": "bytes4",
          "name": "",
          "type": "bytes4"
        }
      ],
      "stateMutability": "pure",
      "type": "function"
    },
    {
      "inputs": [
        {
          "internalType": "address",
          "name": "operator",
          "type": "address"
        },
        {
          "internalType": "address",
          "name": "from",
          "type": "address"
        },
        {
          "internalType": "uint256",
          "name": "id",
          "type": "uint256"
        },
        {
          "internalType": "uint256",
          "name": "value",
          "type": "uint256"
        },
        {
          "internalType": "bytes",
          "name": "data",
          "type": "bytes"
        }
      ],
      "name": "onERC1155Received",
      "outputs": [
        {
          "internalType": "bytes4",
          "name": "",
          "type": "bytes4"
        }
      ],
      "stateMutability": "pure",
      "type": "function"
    },
    {
      "inputs": [],
      "name": "oracle",
      "outputs": [
        {
          "internalType": "address",
          "name": "",
          "type": "address"
        }
      ],
      "stateMutability": "view",
      "type": "function"
    },
    {
      "inputs": [
        {
          "internalType": "contract IERC20",
          "name": "_collateralToken",
          "type": "address"
        },
        {
          "internalType": "bytes32",
          "name": "_parentCollectionId",
          "type": "bytes32"
        },
        {
          "internalType": "bytes32",
          "name": "_conditionId",
          "type": "bytes32"
        },
        {
          "internalType": "bool",
          "name": "_success",
          "type": "bool"
        },
        {
          "internalType": "address",
          "name": "_dao",
          "type": "address"
        },
        {
          "internalType": "address",
          "name": "_jv",
          "type": "address"
        },
        {
          "internalType": "uint256",
          "name": "_balance",
          "type": "uint256"
        }
      ],
      "name": "redeemPositions",
      "outputs": [],
      "stateMutability": "nonpayable",
      "type": "function"
    },
    {
      "inputs": [
        {
          "internalType": "address",
          "name": "_token",
          "type": "address"
        },
        {
          "internalType": "uint256",
          "name": "_amount",
          "type": "uint256"
        },
        {
          "internalType": "address",
          "name": "to",
          "type": "address"
        }
      ],
      "name": "rescueTokens",
      "outputs": [],
      "stateMutability": "nonpayable",
      "type": "function"
    },
    {
      "inputs": [
        {
          "internalType": "address",
          "name": "operator",
          "type": "address"
        },
        {
          "internalType": "bool",
          "name": "approved",
          "type": "bool"
        }
      ],
      "name": "setApproval",
      "outputs": [],
      "stateMutability": "nonpayable",
      "type": "function"
    },
    {
      "inputs": [
        {
          "internalType": "uint256",
          "name": "_newFee",
          "type": "uint256"
        }
      ],
      "name": "setFee",
      "outputs": [],
      "stateMutability": "nonpayable",
      "type": "function"
    },
    {
      "inputs": [
        {
          "internalType": "address",
          "name": "_oracle",
          "type": "address"
        }
      ],
      "name": "setOracle",
      "outputs": [],
      "stateMutability": "nonpayable",
      "type": "function"
    },
    {
      "inputs": [
        {
          "internalType": "address",
          "name": "_oracle",
          "type": "address"
        },
        {
          "internalType": "bytes32",
          "name": "_questionId",
          "type": "bytes32"
        },
        {
          "internalType": "bytes32",
          "name": "_parentCollectionId",
          "type": "bytes32"
        },
        {
          "internalType": "contract IERC20",
          "name": "_collateralToken",
          "type": "address"
        },
        {
          "internalType": "uint256",
          "name": "_amount",
          "type": "uint256"
        },
        {
          "internalType": "address",
          "name": "_jv",
          "type": "address"
        }
      ],
      "name": "splitBinaryCondition",
      "outputs": [],
      "stateMutability": "nonpayable",
      "type": "function"
    }
  ],
  "bytecode": "0x6002600381905560c06040526001608090815260a082905262000026916004919062000061565b5060408051808201909152600181526002602082018190526200004c9160059162000061565b503480156200005a57600080fd5b50620000cd565b828054828255906000526020600020908101928215620000a4579160200282015b82811115620000a4578251829060ff1690559160200191906001019062000082565b50620000b2929150620000b6565b5090565b5b80821115620000b25760008155600101620000b7565b611cf680620000dd6000396000f3fe608060405234801561001057600080fd5b506004361061016c5760003560e01c80637adbf973116100cd578063db9b717011610081578063e2f2b7cc11610066578063e2f2b7cc146102a8578063f23a6e61146102bb578063fdac9391146102ce5761016c565b8063db9b71701461028d578063ddca3f43146102a05761016c565b8063b37fd190116100b2578063b37fd19014610252578063bc197c8114610265578063d6d2721a146102855761016c565b80637adbf973146102375780637dc0d1d01461024a5761016c565b806334a0fcd6116101245780635bd9e299116101095780635bd9e2991461020957806369fe0e2d1461021157806374094838146102245761016c565b806334a0fcd6146101df5780635aef7de6146101f45761016c565b8063158ef93e11610155578063158ef93e146101a45780631794bb3c146101b9578063180c981e146101cc5761016c565b80630d720bbc146101715780630f28b71a1461018f575b600080fd5b6101796102e1565b6040516101869190611c02565b60405180910390f35b6101a261019d3660046114c2565b6102e8565b005b6101ac610698565b6040516101869190611782565b6101a26101c7366004611571565b6106a1565b6101a26101da366004611626565b610780565b6101e7610b99565b6040516101869190611bc3565b6101fc610b9f565b60405161018691906116f5565b6101fc610bb3565b6101a261021f3660046116a0565b610bc2565b6101a261023236600461150b565b610c46565b6101a2610245366004611332565b610fd7565b6101fc6110ab565b6101a26102603660046115b1565b6110ba565b610278610273366004611355565b611191565b60405161018691906117a3565b6101e76111be565b6101a261029b36600461148a565b6111c6565b6101e7611247565b6101e76102b63660046116a0565b61124d565b6102786102c9366004611410565b61126e565b6101e76102dc3660046116a0565b611299565b620f424081565b6002546001600160a01b03166103195760405162461bcd60e51b8152600401610310906118a5565b60405180910390fd5b6001546003546040517fd96ee7540000000000000000000000000000000000000000000000000000000081526001600160a01b039092169163d96ee754916103679188918891600401611748565b600060405180830381600087803b15801561038157600080fd5b505af1158015610395573d6000803e3d6000fd5b5050600154600354604051634296357160e11b8152600094506001600160a01b03909216925063852c6ae2916103d2918991899190600401611748565b60206040518083038186803b1580156103ea57600080fd5b505afa1580156103fe573d6000803e3d6000fd5b505050506040513d601f19601f82011682018060405250810190610422919061160e565b905060005b60045481101561057e57600154600480546000926001600160a01b03169163856296f791889187918790811061046d57634e487b7160e01b600052603260045260246000fd5b90600052602060002001546040518463ffffffff1660e01b81526004016104969392919061178d565b60206040518083038186803b1580156104ae57600080fd5b505afa1580156104c2573d6000803e3d6000fd5b505050506040513d601f19601f820116820180604052508101906104e6919061160e565b60015460405163039dd75360e41b81529192506001600160a01b0316906339dd7530906105199087908590600401611769565b60206040518083038186803b15801561053157600080fd5b505afa158015610545573d6000803e3d6000fd5b505050506040513d601f19601f82011682018060405250810190610569919061160e565b5050808061057690611c69565b915050610427565b506001805460405163856296f760e01b81526000926001600160a01b039092169163856296f7916105b691889187919060040161178d565b60206040518083038186803b1580156105ce57600080fd5b505afa1580156105e2573d6000803e3d6000fd5b505050506040513d601f19601f82011682018060405250810190610606919061160e565b60015460405163039dd75360e41b81529192506000916001600160a01b03909116906339dd75309061063e9087908690600401611769565b60206040518083038186803b15801561065657600080fd5b505afa15801561066a573d6000803e3d6000fd5b505050506040513d601f19601f8201168201806040525081019061068e919061160e565b5050505050505050565b60005460ff1681565b60005460ff16156106c45760405162461bcd60e51b815260040161031090611b66565b6000805460ff191660011790556001600160a01b0383166106f75760405162461bcd60e51b815260040161031090611b24565b6001600160a01b03821661071d5760405162461bcd60e51b815260040161031090611939565b600080547fffffffffffffffffffffff0000000000000000000000000000000000000000ff166101006001600160a01b03958616021790556001805473ffffffffffffffffffffffffffffffffffffffff19169290931691909117909155600655565b6002546001600160a01b031633146107aa5760405162461bcd60e51b815260040161031090611a28565b60018415151415610a3557600154604051626dc0df60e21b81526001600160a01b03909116906301b7037c906107ea908a908a908a9060049081016117d0565b600060405180830381600087803b15801561080457600080fd5b505af1158015610818573d6000803e3d6000fd5b5050508615159050610a30576006546000906305f5e1009061083d620f424085611c33565b6108479190611c33565b6108519190611c13565b61085b9083611c52565b6006549091506000906305f5e10090610877620f424086611c33565b6108819190611c33565b61088b9190611c13565b60405163a9059cbb60e01b81529091506001600160a01b038a169063a9059cbb906108bc9087908690600401611769565b602060405180830381600087803b1580156108d657600080fd5b505af11580156108ea573d6000803e3d6000fd5b505050506040513d601f19601f8201168201806040525081019061090e91906115f2565b61092a5760405162461bcd60e51b815260040161031090611a85565b60005460405163a9059cbb60e01b81526001600160a01b03808c169263a9059cbb9261096492610100909204909116908590600401611769565b602060405180830381600087803b15801561097e57600080fd5b505af1158015610992573d6000803e3d6000fd5b505050506040513d601f19601f820116820180604052508101906109b691906115f2565b6109d25760405162461bcd60e51b815260040161031090611848565b836001600160a01b0316877f8a73fc9fdb0587b8cfe9b7c660f00344d86b2c594fbc72db3b38369a0fbfb0df84600060019054906101000a90046001600160a01b031685604051610a2593929190611be3565b60405180910390a350505b610b90565b600154604051626dc0df60e21b81526001600160a01b03909116906301b7037c90610a6a908a908a908a9060049081016117d0565b600060405180830381600087803b158015610a8457600080fd5b505af1158015610a98573d6000803e3d6000fd5b5050508615159050610b905760405163a9059cbb60e01b81526001600160a01b0388169063a9059cbb90610ad29086908590600401611769565b602060405180830381600087803b158015610aec57600080fd5b505af1158015610b00573d6000803e3d6000fd5b505050506040513d601f19601f82011682018060405250810190610b2491906115f2565b610b405760405162461bcd60e51b8152600401610310906118dc565b847f1ed1116f37e3ba4f9858656522ad53209b7244993e8f5ee04ee7a20bf52e90bc82600060019054906101000a90046001600160a01b0316604051610b87929190611bcc565b60405180910390a25b50505050505050565b60035481565b60005461010090046001600160a01b031681565b6001546001600160a01b031681565b60005460ff16610be45760405162461bcd60e51b815260040161031090611996565b60005461010090046001600160a01b03163314610c135760405162461bcd60e51b8152600401610310906119f3565b600681905560405181907f20461e09b8e557b77e107939f9ce6544698123aad0fc964ac5cc59b7df2e608f90600090a250565b6002546001600160a01b0316610c6e5760405162461bcd60e51b8152600401610310906118a5565b600154600354604051634296357160e11b81526000926001600160a01b03169163852c6ae291610ca5918b918b9190600401611748565b60206040518083038186803b158015610cbd57600080fd5b505afa158015610cd1573d6000803e3d6000fd5b505050506040513d601f19601f82011682018060405250810190610cf5919061160e565b905084610e39576040517f23b872dd0000000000000000000000000000000000000000000000000000000081526001600160a01b038516906323b872dd90610d4590339030908890600401611709565b602060405180830381600087803b158015610d5f57600080fd5b505af1158015610d73573d6000803e3d6000fd5b505050506040513d601f19601f82011682018060405250810190610d9791906115f2565b506001546040517f095ea7b30000000000000000000000000000000000000000000000000000000081526001600160a01b038681169263095ea7b392610de592909116908790600401611769565b602060405180830381600087803b158015610dff57600080fd5b505af1158015610e13573d6000803e3d6000fd5b505050506040513d601f19601f82011682018060405250810190610e3791906115f2565b505b6001546040517f72ce42750000000000000000000000000000000000000000000000000000000081526001600160a01b03909116906372ce427590610e8b908790899086906005908a90600401611808565b600060405180830381600087803b158015610ea557600080fd5b505af1158015610eb9573d6000803e3d6000fd5b50506001805460405163856296f760e01b8152600094506001600160a01b03909116925063856296f791610ef3918a91879160040161178d565b60206040518083038186803b158015610f0b57600080fd5b505afa158015610f1f573d6000803e3d6000fd5b505050506040513d601f19601f82011682018060405250810190610f43919061160e565b60015460405163039dd75360e41b81529192506000916001600160a01b03909116906339dd753090610f7b9089908690600401611769565b60206040518083038186803b158015610f9357600080fd5b505afa158015610fa7573d6000803e3d6000fd5b505050506040513d601f19601f82011682018060405250810190610fcb919061160e565b50505050505050505050565b60005460ff16610ff95760405162461bcd60e51b815260040161031090611996565b60005461010090046001600160a01b031633146110285760405162461bcd60e51b8152600401610310906119f3565b6001600160a01b03811661104e5760405162461bcd60e51b815260040161031090611ae2565b6002805473ffffffffffffffffffffffffffffffffffffffff19166001600160a01b0383811691909117918290556040519116907f3f32684a32a11dabdbb8c0177de80aa3ae36a004d75210335b49e544e48cd0aa90600090a250565b6002546001600160a01b031681565b60005460ff166110dc5760405162461bcd60e51b815260040161031090611996565b60005461010090046001600160a01b0316331461110b5760405162461bcd60e51b8152600401610310906119f3565b60405163a9059cbb60e01b81526001600160a01b0384169063a9059cbb906111399084908690600401611769565b602060405180830381600087803b15801561115357600080fd5b505af1158015611167573d6000803e3d6000fd5b505050506040513d601f19601f8201168201806040525081019061118b91906115f2565b50505050565b7fbc197c810000000000000000000000000000000000000000000000000000000098975050505050505050565b6305f5e10081565b6001546040517fa22cb4650000000000000000000000000000000000000000000000000000000081526001600160a01b039091169063a22cb46590611211908590859060040161172d565b600060405180830381600087803b15801561122b57600080fd5b505af115801561123f573d6000803e3d6000fd5b505050505050565b60065481565b6004818154811061125d57600080fd5b600091825260209091200154905081565b7ff23a6e61000000000000000000000000000000000000000000000000000000009695505050505050565b6005818154811061125d57600080fd5b60008083601f8401126112ba578182fd5b50813567ffffffffffffffff8111156112d1578182fd5b60208301915083602080830285010111156112eb57600080fd5b9250929050565b60008083601f840112611303578182fd5b50813567ffffffffffffffff81111561131a578182fd5b6020830191508360208285010111156112eb57600080fd5b600060208284031215611343578081fd5b813561134e81611c9a565b9392505050565b60008060008060008060008060a0898b031215611370578384fd5b883561137b81611c9a565b9750602089013561138b81611c9a565b9650604089013567ffffffffffffffff808211156113a7578586fd5b6113b38c838d016112a9565b909850965060608b01359150808211156113cb578586fd5b6113d78c838d016112a9565b909650945060808b01359150808211156113ef578384fd5b506113fc8b828c016112f2565b999c989b5096995094979396929594505050565b60008060008060008060a08789031215611428578182fd5b863561143381611c9a565b9550602087013561144381611c9a565b94506040870135935060608701359250608087013567ffffffffffffffff81111561146c578283fd5b61147889828a016112f2565b979a9699509497509295939492505050565b6000806040838503121561149c578182fd5b82356114a781611c9a565b915060208301356114b781611cb2565b809150509250929050565b600080600080608085870312156114d7578384fd5b84356114e281611c9a565b93506020850135925060408501359150606085013561150081611c9a565b939692955090935050565b60008060008060008060c08789031215611523578182fd5b863561152e81611c9a565b95506020870135945060408701359350606087013561154c81611c9a565b92506080870135915060a087013561156381611c9a565b809150509295509295509295565b600080600060608486031215611585578283fd5b833561159081611c9a565b925060208401356115a081611c9a565b929592945050506040919091013590565b6000806000606084860312156115c5578283fd5b83356115d081611c9a565b92506020840135915060408401356115e781611c9a565b809150509250925092565b600060208284031215611603578081fd5b815161134e81611cb2565b60006020828403121561161f578081fd5b5051919050565b600080600080600080600060e0888a031215611640578081fd5b873561164b81611c9a565b96506020880135955060408801359450606088013561166981611cb2565b9350608088013561167981611c9a565b925060a088013561168981611c9a565b8092505060c0880135905092959891949750929550565b6000602082840312156116b1578081fd5b5035919050565b6000815480845260208085019450838352808320835b838110156116ea578154875295820195600191820191016116ce565b509495945050505050565b6001600160a01b0391909116815260200190565b6001600160a01b039384168152919092166020820152604081019190915260600190565b6001600160a01b039290921682521515602082015260400190565b6001600160a01b039390931683526020830191909152604082015260600190565b6001600160a01b03929092168252602082015260400190565b901515815260200190565b9283526020830191909152604082015260600190565b7fffffffff0000000000000000000000000000000000000000000000000000000091909116815260200190565b60006001600160a01b0386168252846020830152836040830152608060608301526117fe60808301846116b8565b9695505050505050565b60006001600160a01b038716825285602083015284604083015260a0606083015261183660a08301856116b8565b90508260808301529695505050505050565b6020808252602d908201527f43746654726561737572793a20636f756c64206e6f74207472616e736665722060408201527f66656520746f2061766174617200000000000000000000000000000000000000606082015260800190565b6020808252601b908201527f43746654726561737572793a206f7261636c65206e6f74207365740000000000604082015260600190565b60208082526038908201527f43746654726561737572793a20636f756c64206e6f74207472616e736665722060408201527f7061796f757420746f206d6573736167652073656e6465720000000000000000606082015260800190565b6020808252602d908201527f43746654726561737572793a20636f6e646974696f6e616c546f6b656e73206360408201527f616e6e6f74206265206e756c6c00000000000000000000000000000000000000606082015260800190565b60208082526025908201527f43746654726561737572793a20636f6e7472616374206e6f7420696e6974696160408201527f6c697a6564000000000000000000000000000000000000000000000000000000606082015260800190565b6020808252818101527f43746654726561737572793a2070726f746563746564206f7065726174696f6e604082015260600190565b60208082526022908201527f43746654726561737572793a2063616c6c6572206d757374206265206f72616360408201527f6c65000000000000000000000000000000000000000000000000000000000000606082015260800190565b6020808252602c908201527f43746654726561737572793a20636f756c64206e6f74207472616e736665722060408201527f7061796f757420746f206a760000000000000000000000000000000000000000606082015260800190565b60208082526022908201527f43746654726561737572793a206f7261636c652063616e6e6f74206265206e756040820152611b1b60f21b606082015260800190565b60208082526022908201527f43746654726561737572793a206176617461722063616e6e6f74206265206e756040820152611b1b60f21b606082015260800190565b60208082526029908201527f43746654726561737572793a20747265617375727920616c726561647920696e60408201527f697469616c697a65640000000000000000000000000000000000000000000000606082015260800190565b90815260200190565b9182526001600160a01b0316602082015260400190565b9283526001600160a01b03919091166020830152604082015260600190565b63ffffffff91909116815260200190565b600082611c2e57634e487b7160e01b81526012600452602481fd5b500490565b6000816000190483118215151615611c4d57611c4d611c84565b500290565b600082821015611c6457611c64611c84565b500390565b6000600019821415611c7d57611c7d611c84565b5060010190565b634e487b7160e01b600052601160045260246000fd5b6001600160a01b0381168114611caf57600080fd5b50565b8015158114611caf57600080fdfea26469706673582212202f84beb644f26bfaf0df36b33475caae00aa536132811a8318077aa60b47dcb564736f6c63430008000033",
  "linkReferences": {},
  "deployedLinkReferences": {}
}