{
  "_format": "hh-sol-artifact-1",
  "contractName": "BinaryCondition",
  "sourceName": "contracts/test/BinaryCondition.sol",
  "abi": [
    {
      "anonymous": false,
      "inputs": [
        {
          "indexed": true,
          "internalType": "uint256",
          "name": "fee",
          "type": "uint256"
        }
      ],
      "name": "FeeSet",
      "type": "event"
    },
    {
      "anonymous": false,
      "inputs": [
        {
          "indexed": true,
          "internalType": "address",
          "name": "oracle",
          "type": "address"
        }
      ],
      "name": "OracleSet",
      "type": "event"
    },
    {
      "anonymous": false,
      "inputs": [
        {
          "indexed": true,
          "internalType": "bytes32",
          "name": "conditionId",
          "type": "bytes32"
        },
        {
          "indexed": false,
          "internalType": "uint256",
          "name": "payeeAmount",
          "type": "uint256"
        },
        {
          "indexed": false,
          "internalType": "address",
          "name": "avatar",
          "type": "address"
        }
      ],
      "name": "RedeemFail",
      "type": "event"
    },
    {
      "anonymous": false,
      "inputs": [
        {
          "indexed": true,
          "internalType": "bytes32",
          "name": "conditionId",
          "type": "bytes32"
        },
        {
          "indexed": true,
          "internalType": "address",
          "name": "payee",
          "type": "address"
        },
        {
          "indexed": false,
          "internalType": "uint256",
          "name": "payeeAmount",
          "type": "uint256"
        },
        {
          "indexed": false,
          "internalType": "address",
          "name": "avatar",
          "type": "address"
        },
        {
          "indexed": false,
          "internalType": "uint256",
          "name": "feeAmount",
          "type": "uint256"
        }
      ],
      "name": "RedeemSuccess",
      "type": "event"
    },
    {
      "inputs": [],
      "name": "PPM",
      "outputs": [
        {
          "internalType": "uint32",
          "name": "",
          "type": "uint32"
        }
      ],
      "stateMutability": "view",
      "type": "function"
    },
    {
      "inputs": [],
      "name": "PPM100",
      "outputs": [
        {
          "internalType": "uint256",
          "name": "",
          "type": "uint256"
        }
      ],
      "stateMutability": "view",
      "type": "function"
    },
    {
      "inputs": [
        {
          "internalType": "uint256",
          "name": "",
          "type": "uint256"
        }
      ],
      "name": "_binaryIndexSets",
      "outputs": [
        {
          "internalType": "uint256",
          "name": "",
          "type": "uint256"
        }
      ],
      "stateMutability": "view",
      "type": "function"
    },
    {
      "inputs": [],
      "name": "_binaryOutcomeSlots",
      "outputs": [
        {
          "internalType": "uint256",
          "name": "",
          "type": "uint256"
        }
      ],
      "stateMutability": "view",
      "type": "function"
    },
    {
      "inputs": [
        {
          "internalType": "uint256",
          "name": "",
          "type": "uint256"
        }
      ],
      "name": "_binaryPartition",
      "outputs": [
        {
          "internalType": "uint256",
          "name": "",
          "type": "uint256"
        }
      ],
      "stateMutability": "view",
      "type": "function"
    },
    {
      "inputs": [],
      "name": "avatar",
      "outputs": [
        {
          "internalType": "address",
          "name": "",
          "type": "address"
        }
      ],
      "stateMutability": "view",
      "type": "function"
    },
    {
      "inputs": [],
      "name": "conditionalTokens",
      "outputs": [
        {
          "internalType": "contract ConditionalTokens",
          "name": "",
          "type": "address"
        }
      ],
      "stateMutability": "view",
      "type": "function"
    },
    {
      "inputs": [
        {
          "internalType": "address",
          "name": "_oracle",
          "type": "address"
        },
        {
          "internalType": "bytes32",
          "name": "_questionId",
          "type": "bytes32"
        },
        {
          "internalType": "bytes32",
          "name": "_parentCollectionId",
          "type": "bytes32"
        },
        {
          "internalType": "contract IERC20",
          "name": "_collateralToken",
          "type": "address"
        }
      ],
      "name": "createBinaryCondition",
      "outputs": [],
      "stateMutability": "nonpayable",
      "type": "function"
    },
    {
      "inputs": [],
      "name": "fee",
      "outputs": [
        {
          "internalType": "uint256",
          "name": "",
          "type": "uint256"
        }
      ],
      "stateMutability": "view",
      "type": "function"
    },
    {
      "inputs": [
        {
          "internalType": "address",
          "name": "_avatar",
          "type": "address"
        },
        {
          "internalType": "contract ConditionalTokens",
          "name": "_conditionalTokens",
          "type": "address"
        },
        {
          "internalType": "uint256",
          "name": "_fee",
          "type": "uint256"
        }
      ],
      "name": "initialize",
      "outputs": [],
      "stateMutability": "nonpayable",
      "type": "function"
    },
    {
      "inputs": [],
      "name": "initialized",
      "outputs": [
        {
          "internalType": "bool",
          "name": "",
          "type": "bool"
        }
      ],
      "stateMutability": "view",
      "type": "function"
    },
    {
      "inputs": [
        {
          "internalType": "address",
          "name": "operator",
          "type": "address"
        },
        {
          "internalType": "address",
          "name": "from",
          "type": "address"
        },
        {
          "internalType": "uint256[]",
          "name": "ids",
          "type": "uint256[]"
        },
        {
          "internalType": "uint256[]",
          "name": "values",
          "type": "uint256[]"
        },
        {
          "internalType": "bytes",
          "name": "data",
          "type": "bytes"
        }
      ],
      "name": "onERC1155BatchReceived",
      "outputs": [
        {
          "internalType": "bytes4",
          "name": "",
          "type": "bytes4"
        }
      ],
      "stateMutability": "pure",
      "type": "function"
    },
    {
      "inputs": [
        {
          "internalType": "address",
          "name": "operator",
          "type": "address"
        },
        {
          "internalType": "address",
          "name": "from",
          "type": "address"
        },
        {
          "internalType": "uint256",
          "name": "id",
          "type": "uint256"
        },
        {
          "internalType": "uint256",
          "name": "value",
          "type": "uint256"
        },
        {
          "internalType": "bytes",
          "name": "data",
          "type": "bytes"
        }
      ],
      "name": "onERC1155Received",
      "outputs": [
        {
          "internalType": "bytes4",
          "name": "",
          "type": "bytes4"
        }
      ],
      "stateMutability": "pure",
      "type": "function"
    },
    {
      "inputs": [],
      "name": "oracle",
      "outputs": [
        {
          "internalType": "address",
          "name": "",
          "type": "address"
        }
      ],
      "stateMutability": "view",
      "type": "function"
    },
    {
      "inputs": [
        {
          "internalType": "contract IERC20",
          "name": "_collateralToken",
          "type": "address"
        },
        {
          "internalType": "bytes32",
          "name": "_parentCollectionId",
          "type": "bytes32"
        },
        {
          "internalType": "bytes32",
          "name": "_conditionId",
          "type": "bytes32"
        },
        {
          "internalType": "bool",
          "name": "_success",
          "type": "bool"
        },
        {
          "internalType": "address",
          "name": "_dao",
          "type": "address"
        },
        {
          "internalType": "address",
          "name": "_jv",
          "type": "address"
        },
        {
          "internalType": "uint256",
          "name": "_balance",
          "type": "uint256"
        }
      ],
      "name": "redeemPositions",
      "outputs": [],
      "stateMutability": "nonpayable",
      "type": "function"
    },
    {
      "inputs": [
        {
          "internalType": "address",
          "name": "_token",
          "type": "address"
        },
        {
          "internalType": "uint256",
          "name": "_amount",
          "type": "uint256"
        },
        {
          "internalType": "address",
          "name": "to",
          "type": "address"
        }
      ],
      "name": "rescueTokens",
      "outputs": [],
      "stateMutability": "nonpayable",
      "type": "function"
    },
    {
      "inputs": [
        {
          "internalType": "address",
          "name": "operator",
          "type": "address"
        },
        {
          "internalType": "bool",
          "name": "approved",
          "type": "bool"
        }
      ],
      "name": "setApproval",
      "outputs": [],
      "stateMutability": "nonpayable",
      "type": "function"
    },
    {
      "inputs": [
        {
          "internalType": "uint256",
          "name": "_newFee",
          "type": "uint256"
        }
      ],
      "name": "setFee",
      "outputs": [],
      "stateMutability": "nonpayable",
      "type": "function"
    },
    {
      "inputs": [
        {
          "internalType": "address",
          "name": "_oracle",
          "type": "address"
        }
      ],
      "name": "setOracle",
      "outputs": [],
      "stateMutability": "nonpayable",
      "type": "function"
    },
    {
      "inputs": [
        {
          "internalType": "address",
          "name": "_oracle",
          "type": "address"
        },
        {
          "internalType": "bytes32",
          "name": "_questionId",
          "type": "bytes32"
        },
        {
          "internalType": "bytes32",
          "name": "_parentCollectionId",
          "type": "bytes32"
        },
        {
          "internalType": "contract IERC20",
          "name": "_collateralToken",
          "type": "address"
        },
        {
          "internalType": "uint256",
          "name": "_amount",
          "type": "uint256"
        },
        {
          "internalType": "address",
          "name": "_jv",
          "type": "address"
        }
      ],
      "name": "splitBinaryCondition",
      "outputs": [],
      "stateMutability": "nonpayable",
      "type": "function"
    }
  ],
  "bytecode": "0x608060405260026003556040518060400160405280600160ff168152602001600260ff168152506004906002620000389291906200007d565b506040518060400160405280600160ff168152602001600260ff168152506005906002620000689291906200007d565b503480156200007657600080fd5b50620000f3565b828054828255906000526020600020908101928215620000c1579160200282015b82811115620000c0578251829060ff169055916020019190600101906200009e565b5b509050620000d09190620000d4565b5090565b5b80821115620000ef576000816000905550600101620000d5565b5090565b612e4c80620001036000396000f3fe608060405234801561001057600080fd5b506004361061012c5760003560e01c80637adbf973116100ad578063db9b717011610071578063db9b7170146102f7578063ddca3f4314610313578063e2f2b7cc14610331578063f23a6e6114610361578063fdac9391146103915761012c565b80637adbf973146102535780637dc0d1d01461026f578063b37fd1901461028d578063bc197c81146102a9578063d6d2721a146102d95761012c565b806334a0fcd6116100f457806334a0fcd6146101c15780635aef7de6146101df5780635bd9e299146101fd57806369fe0e2d1461021b57806374094838146102375761012c565b80630d720bbc146101315780630f28b71a1461014f578063158ef93e1461016b5780631794bb3c14610189578063180c981e146101a5575b600080fd5b6101396103c1565b6040516101469190612a6c565b60405180910390f35b61016960048036038101906101649190611e33565b6103c8565b005b6101736108da565b6040516101809190612703565b60405180910390f35b6101a3600480360381019061019e9190611f1f565b6108eb565b005b6101bf60048036038101906101ba919061200f565b610ac1565b005b6101c961107b565b6040516101d691906129f1565b60405180910390f35b6101e7611081565b6040516101f49190612628565b60405180910390f35b6102056110a7565b60405161021291906127a7565b60405180910390f35b610235600480360381019061023091906120ad565b6110cd565b005b610251600480360381019061024c9190611e96565b6111e3565b005b61026d60048036038101906102689190611c70565b61167c565b005b610277611872565b6040516102849190612628565b60405180910390f35b6102a760048036038101906102a29190611f6e565b611898565b005b6102c360048036038101906102be9190611c99565b611a08565b6040516102d0919061278c565b60405180910390f35b6102e1611a20565b6040516102ee91906129f1565b60405180910390f35b610311600480360381019061030c9190611df7565b611a28565b005b61031b611abb565b60405161032891906129f1565b60405180910390f35b61034b600480360381019061034691906120ad565b611ac1565b60405161035891906129f1565b60405180910390f35b61037b60048036038101906103769190611d65565b611ae5565b604051610388919061278c565b60405180910390f35b6103ab60048036038101906103a691906120ad565b611afb565b6040516103b891906129f1565b60405180910390f35b620f424081565b600073ffffffffffffffffffffffffffffffffffffffff16600260009054906101000a900473ffffffffffffffffffffffffffffffffffffffff1673ffffffffffffffffffffffffffffffffffffffff16141561045a576040517f08c379a0000000000000000000000000000000000000000000000000000000008152600401610451906128b1565b60405180910390fd5b600160009054906101000a900473ffffffffffffffffffffffffffffffffffffffff1673ffffffffffffffffffffffffffffffffffffffff1663d96ee75485856003546040518463ffffffff1660e01b81526004016104bb939291906126a3565b600060405180830381600087803b1580156104d557600080fd5b505af11580156104e9573d6000803e3d6000fd5b505050506000600160009054906101000a900473ffffffffffffffffffffffffffffffffffffffff1673ffffffffffffffffffffffffffffffffffffffff1663852c6ae286866003546040518463ffffffff1660e01b8152600401610550939291906126a3565b60206040518083038186803b15801561056857600080fd5b505afa15801561057c573d6000803e3d6000fd5b505050506040513d601f19601f820116820180604052508101906105a09190611fe6565b905060005b60048054905081101561076b576000600160009054906101000a900473ffffffffffffffffffffffffffffffffffffffff1673ffffffffffffffffffffffffffffffffffffffff1663856296f786856004868154811061062e577f4e487b7100000000000000000000000000000000000000000000000000000000600052603260045260246000fd5b90600052602060002001546040518463ffffffff1660e01b815260040161065793929190612755565b60206040518083038186803b15801561066f57600080fd5b505afa158015610683573d6000803e3d6000fd5b505050506040513d601f19601f820116820180604052508101906106a79190611fe6565b9050600160009054906101000a900473ffffffffffffffffffffffffffffffffffffffff1673ffffffffffffffffffffffffffffffffffffffff166339dd753085836040518363ffffffff1660e01b81526004016107069291906127c2565b60206040518083038186803b15801561071e57600080fd5b505afa158015610732573d6000803e3d6000fd5b505050506040513d601f19601f8201168201806040525081019061075691906120d6565b5050808061076390612cc5565b9150506105a5565b506000600160009054906101000a900473ffffffffffffffffffffffffffffffffffffffff1673ffffffffffffffffffffffffffffffffffffffff1663856296f7858460016040518463ffffffff1660e01b81526004016107ce9392919061271e565b60206040518083038186803b1580156107e657600080fd5b505afa1580156107fa573d6000803e3d6000fd5b505050506040513d601f19601f8201168201806040525081019061081e9190611fe6565b90506000600160009054906101000a900473ffffffffffffffffffffffffffffffffffffffff1673ffffffffffffffffffffffffffffffffffffffff166339dd753085846040518363ffffffff1660e01b815260040161087f9291906127c2565b60206040518083038186803b15801561089757600080fd5b505afa1580156108ab573d6000803e3d6000fd5b505050506040513d601f19601f820116820180604052508101906108cf91906120d6565b905050505050505050565b60008054906101000a900460ff1681565b60008054906101000a900460ff1615610939576040517f08c379a0000000000000000000000000000000000000000000000000000000008152600401610930906129d1565b60405180910390fd5b60016000806101000a81548160ff021916908315150217905550600073ffffffffffffffffffffffffffffffffffffffff168373ffffffffffffffffffffffffffffffffffffffff1614156109c3576040517f08c379a00000000000000000000000000000000000000000000000000000000081526004016109ba906129b1565b60405180910390fd5b600073ffffffffffffffffffffffffffffffffffffffff168273ffffffffffffffffffffffffffffffffffffffff161415610a33576040517f08c379a0000000000000000000000000000000000000000000000000000000008152600401610a2a906128f1565b60405180910390fd5b82600060016101000a81548173ffffffffffffffffffffffffffffffffffffffff021916908373ffffffffffffffffffffffffffffffffffffffff16021790555081600160006101000a81548173ffffffffffffffffffffffffffffffffffffffff021916908373ffffffffffffffffffffffffffffffffffffffff16021790555080600681905550505050565b600260009054906101000a900473ffffffffffffffffffffffffffffffffffffffff1673ffffffffffffffffffffffffffffffffffffffff163373ffffffffffffffffffffffffffffffffffffffff1614610b51576040517f08c379a0000000000000000000000000000000000000000000000000000000008152600401610b4890612951565b60405180910390fd5b600115158415151415610ea957600160009054906101000a900473ffffffffffffffffffffffffffffffffffffffff1673ffffffffffffffffffffffffffffffffffffffff166301b7037c88888860046040518563ffffffff1660e01b8152600401610bc094939291906127eb565b600060405180830381600087803b158015610bda57600080fd5b505af1158015610bee573d6000803e3d6000fd5b505050506000801b861415610ea45760006305f5e100600654620f424063ffffffff1684610c1c9190612b07565b610c269190612b07565b610c309190612ad6565b82610c3b9190612b61565b905060006305f5e100600654620f424063ffffffff1685610c5c9190612b07565b610c669190612b07565b610c709190612ad6565b90508873ffffffffffffffffffffffffffffffffffffffff1663a9059cbb85846040518363ffffffff1660e01b8152600401610cad9291906126da565b602060405180830381600087803b158015610cc757600080fd5b505af1158015610cdb573d6000803e3d6000fd5b505050506040513d601f19601f82011682018060405250810190610cff9190611fbd565b610d3e576040517f08c379a0000000000000000000000000000000000000000000000000000000008152600401610d3590612971565b60405180910390fd5b8873ffffffffffffffffffffffffffffffffffffffff1663a9059cbb600060019054906101000a900473ffffffffffffffffffffffffffffffffffffffff16836040518363ffffffff1660e01b8152600401610d9b9291906126da565b602060405180830381600087803b158015610db557600080fd5b505af1158015610dc9573d6000803e3d6000fd5b505050506040513d601f19601f82011682018060405250810190610ded9190611fbd565b610e2c576040517f08c379a0000000000000000000000000000000000000000000000000000000008152600401610e2390612891565b60405180910390fd5b8373ffffffffffffffffffffffffffffffffffffffff16877f8a73fc9fdb0587b8cfe9b7c660f00344d86b2c594fbc72db3b38369a0fbfb0df84600060019054906101000a900473ffffffffffffffffffffffffffffffffffffffff1685604051610e9993929190612a35565b60405180910390a350505b611072565b600160009054906101000a900473ffffffffffffffffffffffffffffffffffffffff1673ffffffffffffffffffffffffffffffffffffffff166301b7037c88888860046040518563ffffffff1660e01b8152600401610f0b94939291906127eb565b600060405180830381600087803b158015610f2557600080fd5b505af1158015610f39573d6000803e3d6000fd5b505050506000801b861415611071578673ffffffffffffffffffffffffffffffffffffffff1663a9059cbb84836040518363ffffffff1660e01b8152600401610f839291906126da565b602060405180830381600087803b158015610f9d57600080fd5b505af1158015610fb1573d6000803e3d6000fd5b505050506040513d601f19601f82011682018060405250810190610fd59190611fbd565b611014576040517f08c379a000000000000000000000000000000000000000000000000000000000815260040161100b906128d1565b60405180910390fd5b847f1ed1116f37e3ba4f9858656522ad53209b7244993e8f5ee04ee7a20bf52e90bc82600060019054906101000a900473ffffffffffffffffffffffffffffffffffffffff16604051611068929190612a0c565b60405180910390a25b5b50505050505050565b60035481565b600060019054906101000a900473ffffffffffffffffffffffffffffffffffffffff1681565b600160009054906101000a900473ffffffffffffffffffffffffffffffffffffffff1681565b60008054906101000a900460ff1661111a576040517f08c379a000000000000000000000000000000000000000000000000000000000815260040161111190612911565b60405180910390fd5b600060019054906101000a900473ffffffffffffffffffffffffffffffffffffffff1673ffffffffffffffffffffffffffffffffffffffff163373ffffffffffffffffffffffffffffffffffffffff16146111aa576040517f08c379a00000000000000000000000000000000000000000000000000000000081526004016111a190612931565b60405180910390fd5b806006819055506006547f20461e09b8e557b77e107939f9ce6544698123aad0fc964ac5cc59b7df2e608f60405160405180910390a250565b600073ffffffffffffffffffffffffffffffffffffffff16600260009054906101000a900473ffffffffffffffffffffffffffffffffffffffff1673ffffffffffffffffffffffffffffffffffffffff161415611275576040517f08c379a000000000000000000000000000000000000000000000000000000000815260040161126c906128b1565b60405180910390fd5b6000600160009054906101000a900473ffffffffffffffffffffffffffffffffffffffff1673ffffffffffffffffffffffffffffffffffffffff1663852c6ae288886003546040518463ffffffff1660e01b81526004016112d8939291906126a3565b60206040518083038186803b1580156112f057600080fd5b505afa158015611304573d6000803e3d6000fd5b505050506040513d601f19601f820116820180604052508101906113289190611fe6565b90506000801b851415611476578373ffffffffffffffffffffffffffffffffffffffff166323b872dd3330866040518463ffffffff1660e01b815260040161137293929190612643565b602060405180830381600087803b15801561138c57600080fd5b505af11580156113a0573d6000803e3d6000fd5b505050506040513d601f19601f820116820180604052508101906113c49190611fbd565b508373ffffffffffffffffffffffffffffffffffffffff1663095ea7b3600160009054906101000a900473ffffffffffffffffffffffffffffffffffffffff16856040518363ffffffff1660e01b81526004016114229291906126da565b602060405180830381600087803b15801561143c57600080fd5b505af1158015611450573d6000803e3d6000fd5b505050506040513d601f19601f820116820180604052508101906114749190611fbd565b505b600160009054906101000a900473ffffffffffffffffffffffffffffffffffffffff1673ffffffffffffffffffffffffffffffffffffffff166372ce42758587846005886040518663ffffffff1660e01b81526004016114da959493929190612837565b600060405180830381600087803b1580156114f457600080fd5b505af1158015611508573d6000803e3d6000fd5b505050506000600160009054906101000a900473ffffffffffffffffffffffffffffffffffffffff1673ffffffffffffffffffffffffffffffffffffffff1663856296f7878460016040518463ffffffff1660e01b815260040161156e9392919061271e565b60206040518083038186803b15801561158657600080fd5b505afa15801561159a573d6000803e3d6000fd5b505050506040513d601f19601f820116820180604052508101906115be9190611fe6565b90506000600160009054906101000a900473ffffffffffffffffffffffffffffffffffffffff1673ffffffffffffffffffffffffffffffffffffffff166339dd753087846040518363ffffffff1660e01b815260040161161f9291906127c2565b60206040518083038186803b15801561163757600080fd5b505afa15801561164b573d6000803e3d6000fd5b505050506040513d601f19601f8201168201806040525081019061166f91906120d6565b9050505050505050505050565b60008054906101000a900460ff166116c9576040517f08c379a00000000000000000000000000000000000000000000000000000000081526004016116c090612911565b60405180910390fd5b600060019054906101000a900473ffffffffffffffffffffffffffffffffffffffff1673ffffffffffffffffffffffffffffffffffffffff163373ffffffffffffffffffffffffffffffffffffffff1614611759576040517f08c379a000000000000000000000000000000000000000000000000000000000815260040161175090612931565b60405180910390fd5b600073ffffffffffffffffffffffffffffffffffffffff168173ffffffffffffffffffffffffffffffffffffffff1614156117c9576040517f08c379a00000000000000000000000000000000000000000000000000000000081526004016117c090612991565b60405180910390fd5b80600260006101000a81548173ffffffffffffffffffffffffffffffffffffffff021916908373ffffffffffffffffffffffffffffffffffffffff160217905550600260009054906101000a900473ffffffffffffffffffffffffffffffffffffffff1673ffffffffffffffffffffffffffffffffffffffff167f3f32684a32a11dabdbb8c0177de80aa3ae36a004d75210335b49e544e48cd0aa60405160405180910390a250565b600260009054906101000a900473ffffffffffffffffffffffffffffffffffffffff1681565b60008054906101000a900460ff166118e5576040517f08c379a00000000000000000000000000000000000000000000000000000000081526004016118dc90612911565b60405180910390fd5b600060019054906101000a900473ffffffffffffffffffffffffffffffffffffffff1673ffffffffffffffffffffffffffffffffffffffff163373ffffffffffffffffffffffffffffffffffffffff1614611975576040517f08c379a000000000000000000000000000000000000000000000000000000000815260040161196c90612931565b60405180910390fd5b8273ffffffffffffffffffffffffffffffffffffffff1663a9059cbb82846040518363ffffffff1660e01b81526004016119b09291906126da565b602060405180830381600087803b1580156119ca57600080fd5b505af11580156119de573d6000803e3d6000fd5b505050506040513d601f19601f82011682018060405250810190611a029190611fbd565b50505050565b600063bc197c8160e01b905098975050505050505050565b6305f5e10081565b600160009054906101000a900473ffffffffffffffffffffffffffffffffffffffff1673ffffffffffffffffffffffffffffffffffffffff1663a22cb46583836040518363ffffffff1660e01b8152600401611a8592919061267a565b600060405180830381600087803b158015611a9f57600080fd5b505af1158015611ab3573d6000803e3d6000fd5b505050505050565b60065481565b60048181548110611ad157600080fd5b906000526020600020016000915090505481565b600063f23a6e6160e01b90509695505050505050565b60058181548110611b0b57600080fd5b906000526020600020016000915090505481565b600081359050611b2e81612d8c565b92915050565b60008083601f840112611b4657600080fd5b8235905067ffffffffffffffff811115611b5f57600080fd5b602083019150836020820283011115611b7757600080fd5b9250929050565b600081359050611b8d81612da3565b92915050565b600081519050611ba281612da3565b92915050565b600081359050611bb781612dba565b92915050565b600081519050611bcc81612dba565b92915050565b60008083601f840112611be457600080fd5b8235905067ffffffffffffffff811115611bfd57600080fd5b602083019150836001820283011115611c1557600080fd5b9250929050565b600081359050611c2b81612dd1565b92915050565b600081359050611c4081612de8565b92915050565b600081359050611c5581612dff565b92915050565b600081519050611c6a81612dff565b92915050565b600060208284031215611c8257600080fd5b6000611c9084828501611b1f565b91505092915050565b60008060008060008060008060a0898b031215611cb557600080fd5b6000611cc38b828c01611b1f565b9850506020611cd48b828c01611b1f565b975050604089013567ffffffffffffffff811115611cf157600080fd5b611cfd8b828c01611b34565b9650965050606089013567ffffffffffffffff811115611d1c57600080fd5b611d288b828c01611b34565b9450945050608089013567ffffffffffffffff811115611d4757600080fd5b611d538b828c01611bd2565b92509250509295985092959890939650565b60008060008060008060a08789031215611d7e57600080fd5b6000611d8c89828a01611b1f565b9650506020611d9d89828a01611b1f565b9550506040611dae89828a01611c46565b9450506060611dbf89828a01611c46565b935050608087013567ffffffffffffffff811115611ddc57600080fd5b611de889828a01611bd2565b92509250509295509295509295565b60008060408385031215611e0a57600080fd5b6000611e1885828601611b1f565b9250506020611e2985828601611b7e565b9150509250929050565b60008060008060808587031215611e4957600080fd5b6000611e5787828801611b1f565b9450506020611e6887828801611ba8565b9350506040611e7987828801611ba8565b9250506060611e8a87828801611c31565b91505092959194509250565b60008060008060008060c08789031215611eaf57600080fd5b6000611ebd89828a01611b1f565b9650506020611ece89828a01611ba8565b9550506040611edf89828a01611ba8565b9450506060611ef089828a01611c31565b9350506080611f0189828a01611c46565b92505060a0611f1289828a01611b1f565b9150509295509295509295565b600080600060608486031215611f3457600080fd5b6000611f4286828701611b1f565b9350506020611f5386828701611c1c565b9250506040611f6486828701611c46565b9150509250925092565b600080600060608486031215611f8357600080fd5b6000611f9186828701611b1f565b9350506020611fa286828701611c46565b9250506040611fb386828701611b1f565b9150509250925092565b600060208284031215611fcf57600080fd5b6000611fdd84828501611b93565b91505092915050565b600060208284031215611ff857600080fd5b600061200684828501611bbd565b91505092915050565b600080600080600080600060e0888a03121561202a57600080fd5b60006120388a828b01611c31565b97505060206120498a828b01611ba8565b965050604061205a8a828b01611ba8565b955050606061206b8a828b01611b7e565b945050608061207c8a828b01611b1f565b93505060a061208d8a828b01611b1f565b92505060c061209e8a828b01611c46565b91505092959891949750929550565b6000602082840312156120bf57600080fd5b60006120cd84828501611c46565b91505092915050565b6000602082840312156120e857600080fd5b60006120f684828501611c5b565b91505092915050565b600061210b83836125fb565b60208301905092915050565b61212081612b9f565b82525050565b600061213182612a9c565b61213b8185612ab4565b935061214683612a87565b8060005b8381101561217e5761215b82612d6c565b61216588826120ff565b975061217083612aa7565b92505060018101905061214a565b5085935050505092915050565b61219481612bb1565b82525050565b6121a381612bbd565b82525050565b6121b281612bc7565b82525050565b6121c181612c51565b82525050565b6121d081612c75565b82525050565b6121df81612c99565b82525050565b60006121f2602d83612ac5565b91507f43746654726561737572793a20636f756c64206e6f74207472616e736665722060008301527f66656520746f20617661746172000000000000000000000000000000000000006020830152604082019050919050565b6000612258601b83612ac5565b91507f43746654726561737572793a206f7261636c65206e6f742073657400000000006000830152602082019050919050565b6000612298603883612ac5565b91507f43746654726561737572793a20636f756c64206e6f74207472616e736665722060008301527f7061796f757420746f206d6573736167652073656e64657200000000000000006020830152604082019050919050565b60006122fe602d83612ac5565b91507f43746654726561737572793a20636f6e646974696f6e616c546f6b656e73206360008301527f616e6e6f74206265206e756c6c000000000000000000000000000000000000006020830152604082019050919050565b6000612364602583612ac5565b91507f43746654726561737572793a20636f6e7472616374206e6f7420696e6974696160008301527f6c697a65640000000000000000000000000000000000000000000000000000006020830152604082019050919050565b60006123ca602083612ac5565b91507f43746654726561737572793a2070726f746563746564206f7065726174696f6e6000830152602082019050919050565b600061240a602283612ac5565b91507f43746654726561737572793a2063616c6c6572206d757374206265206f72616360008301527f6c650000000000000000000000000000000000000000000000000000000000006020830152604082019050919050565b6000612470602c83612ac5565b91507f43746654726561737572793a20636f756c64206e6f74207472616e736665722060008301527f7061796f757420746f206a7600000000000000000000000000000000000000006020830152604082019050919050565b60006124d6602283612ac5565b91507f43746654726561737572793a206f7261636c652063616e6e6f74206265206e7560008301527f6c6c0000000000000000000000000000000000000000000000000000000000006020830152604082019050919050565b600061253c602283612ac5565b91507f43746654726561737572793a206176617461722063616e6e6f74206265206e7560008301527f6c6c0000000000000000000000000000000000000000000000000000000000006020830152604082019050919050565b60006125a2602983612ac5565b91507f43746654726561737572793a20747265617375727920616c726561647920696e60008301527f697469616c697a656400000000000000000000000000000000000000000000006020830152604082019050919050565b61260481612c37565b82525050565b61261381612c37565b82525050565b61262281612c41565b82525050565b600060208201905061263d6000830184612117565b92915050565b60006060820190506126586000830186612117565b6126656020830185612117565b612672604083018461260a565b949350505050565b600060408201905061268f6000830185612117565b61269c602083018461218b565b9392505050565b60006060820190506126b86000830186612117565b6126c5602083018561219a565b6126d2604083018461260a565b949350505050565b60006040820190506126ef6000830185612117565b6126fc602083018461260a565b9392505050565b6000602082019050612718600083018461218b565b92915050565b6000606082019050612733600083018661219a565b612740602083018561219a565b61274d60408301846121d6565b949350505050565b600060608201905061276a600083018661219a565b612777602083018561219a565b612784604083018461260a565b949350505050565b60006020820190506127a160008301846121a9565b92915050565b60006020820190506127bc60008301846121b8565b92915050565b60006040820190506127d760008301856121c7565b6127e4602083018461219a565b9392505050565b600060808201905061280060008301876121c7565b61280d602083018661219a565b61281a604083018561219a565b818103606083015261282c8184612126565b905095945050505050565b600060a08201905061284c60008301886121c7565b612859602083018761219a565b612866604083018661219a565b81810360608301526128788185612126565b9050612887608083018461260a565b9695505050505050565b600060208201905081810360008301526128aa816121e5565b9050919050565b600060208201905081810360008301526128ca8161224b565b9050919050565b600060208201905081810360008301526128ea8161228b565b9050919050565b6000602082019050818103600083015261290a816122f1565b9050919050565b6000602082019050818103600083015261292a81612357565b9050919050565b6000602082019050818103600083015261294a816123bd565b9050919050565b6000602082019050818103600083015261296a816123fd565b9050919050565b6000602082019050818103600083015261298a81612463565b9050919050565b600060208201905081810360008301526129aa816124c9565b9050919050565b600060208201905081810360008301526129ca8161252f565b9050919050565b600060208201905081810360008301526129ea81612595565b9050919050565b6000602082019050612a06600083018461260a565b92915050565b6000604082019050612a21600083018561260a565b612a2e6020830184612117565b9392505050565b6000606082019050612a4a600083018661260a565b612a576020830185612117565b612a64604083018461260a565b949350505050565b6000602082019050612a816000830184612619565b92915050565b60008190508160005260206000209050919050565b600081549050919050565b6000600182019050919050565b600082825260208201905092915050565b600082825260208201905092915050565b6000612ae182612c37565b9150612aec83612c37565b925082612afc57612afb612d3d565b5b828204905092915050565b6000612b1282612c37565b9150612b1d83612c37565b9250817fffffffffffffffffffffffffffffffffffffffffffffffffffffffffffffffff0483118215151615612b5657612b55612d0e565b5b828202905092915050565b6000612b6c82612c37565b9150612b7783612c37565b925082821015612b8a57612b89612d0e565b5b828203905092915050565b6000819050919050565b6000612baa82612c17565b9050919050565b60008115159050919050565b6000819050919050565b60007fffffffff0000000000000000000000000000000000000000000000000000000082169050919050565b6000612bfe82612b9f565b9050919050565b6000612c1082612b9f565b9050919050565b600073ffffffffffffffffffffffffffffffffffffffff82169050919050565b6000819050919050565b600063ffffffff82169050919050565b6000612c5c82612c63565b9050919050565b6000612c6e82612c17565b9050919050565b6000612c8082612c87565b9050919050565b6000612c9282612c17565b9050919050565b6000612ca482612c37565b9050919050565b6000612cbe612cb983612d7f565b612b95565b9050919050565b6000612cd082612c37565b91507fffffffffffffffffffffffffffffffffffffffffffffffffffffffffffffffff821415612d0357612d02612d0e565b5b600182019050919050565b7f4e487b7100000000000000000000000000000000000000000000000000000000600052601160045260246000fd5b7f4e487b7100000000000000000000000000000000000000000000000000000000600052601260045260246000fd5b6000612d788254612cab565b9050919050565b60008160001c9050919050565b612d9581612b9f565b8114612da057600080fd5b50565b612dac81612bb1565b8114612db757600080fd5b50565b612dc381612bbd565b8114612dce57600080fd5b50565b612dda81612bf3565b8114612de557600080fd5b50565b612df181612c05565b8114612dfc57600080fd5b50565b612e0881612c37565b8114612e1357600080fd5b5056fea264697066735822122085e290be09163ab0ffb7aecb5b1b6c30d65f3481aeea381db9ad328d2d81b42e64736f6c63430008000033",
  "linkReferences": {},
  "deployedLinkReferences": {}
}