{
  "_format": "hh-sol-artifact-1",
  "contractName": "ArbitrationDispatch",
  "sourceName": "contracts/arbitration/ArbitrationDispatch.sol",
  "abi": [
    {
      "anonymous": false,
      "inputs": [
        {
          "indexed": true,
          "internalType": "address",
          "name": "solver",
          "type": "address"
        },
        {
          "indexed": true,
          "internalType": "address",
          "name": "arbitrator",
          "type": "address"
        },
        {
          "indexed": false,
          "internalType": "address",
          "name": "requester",
          "type": "address"
        },
        {
          "indexed": false,
          "internalType": "uint256",
          "name": "conditionIndex",
          "type": "uint256"
        },
        {
          "indexed": false,
          "internalType": "uint256",
          "name": "value",
          "type": "uint256"
        },
        {
          "indexed": false,
          "internalType": "bytes",
          "name": "retData",
          "type": "bytes"
        }
      ],
      "name": "RequestedArbitration",
      "type": "event"
    },
    {
      "inputs": [
        {
          "internalType": "contract ISolver",
          "name": "solver",
          "type": "address"
        },
        {
          "internalType": "uint256",
          "name": "conditionIndex",
          "type": "uint256"
        }
      ],
      "name": "requestArbitration",
      "outputs": [],
      "stateMutability": "payable",
      "type": "function"
    }
  ],
  "bytecode": "0x608060405234801561001057600080fd5b50610672806100206000396000f3fe60806040526004361061001e5760003560e01c806347d4a24414610023575b600080fd5b6100366100313660046103a5565b610038565b005b60005460ff16156100825760405162461bcd60e51b815260206004820152600f60248201526e1c99595b9d1c985b98de51dd585c99608a1b60448201526064015b60405180910390fd5b6000805460ff1916600117815560408051636cc6cde160e01b815290516001600160a01b03851691636cc6cde19160048083019260209291908290030181865afa1580156100d4573d6000803e3d6000fd5b505050506040513d601f19601f820116820180604052508101906100f891906103d1565b90506001600160a01b0381166101505760405162461bcd60e51b815260206004820181905260248201527f41726269747261746f722063616e2774206265207a65726f20616464726573736044820152606401610079565b60405163f24fc90360e01b8152600481018390526000906001600160a01b0385169063f24fc90390602401600060405180830381865afa158015610198573d6000803e3d6000fd5b505050506040513d6000823e601f3d908101601f191682016040526101c09190810190610477565b905060028160a0015160058111156101da576101da61058a565b14806101fb575060038160a0015160058111156101f9576101f961058a565b145b6102585760405162461bcd60e51b815260206004820152602860248201527f436f6e646974696f6e2073746174757320696e76616c696420666f722061726260448201526734ba3930ba34b7b760c11b6064820152608401610079565b604080516001600160a01b038681166020830152918101859052336060820152600091829190851690349060800160408051601f19818403018152908290526102a0916105d0565b60006040518083038185875af1925050503d80600081146102dd576040519150601f19603f3d011682016040523d82523d6000602084013e6102e2565b606091505b50915091508161032a5760405162461bcd60e51b8152602060048201526013602482015272105c989a5d1c985d1bdc881c995d995c9d1959606a1b6044820152606401610079565b836001600160a01b0316866001600160a01b03167fd345f135a30e3a371a4963a7cdd88efec4c48f185d8656a879ad6f40b7f766103388348660405161037394939291906105ec565b60405180910390a350506000805460ff1916905550505050565b6001600160a01b03811681146103a257600080fd5b50565b600080604083850312156103b857600080fd5b82356103c38161038d565b946020939093013593505050565b6000602082840312156103e357600080fd5b81516103ee8161038d565b9392505050565b634e487b7160e01b600052604160045260246000fd5b60405160c081016001600160401b038111828210171561042d5761042d6103f5565b60405290565b604051601f8201601f191681016001600160401b038111828210171561045b5761045b6103f5565b604052919050565b80516006811061047257600080fd5b919050565b6000602080838503121561048a57600080fd5b82516001600160401b03808211156104a157600080fd5b9084019060c082870312156104b557600080fd5b6104bd61040b565b82516104c88161038d565b80825250838301518482015260408301516040820152606083015160608201526080830151828111156104fa57600080fd5b8301601f8101881361050b57600080fd5b80518381111561051d5761051d6103f5565b8060051b935061052e868501610433565b818152938201860193868101908a86111561054857600080fd5b928701925b858410156105665783518252928701929087019061054d565b60808501525061057b91505060a08401610463565b60a08201529695505050505050565b634e487b7160e01b600052602160045260246000fd5b60005b838110156105bb5781810151838201526020016105a3565b838111156105ca576000848401525b50505050565b600082516105e28184602087016105a0565b9190910192915050565b60018060a01b038516815283602082015282604082015260806060820152600082518060808401526106258160a08501602087016105a0565b601f01601f19169190910160a0019594505050505056fea26469706673582212206ca7462197127db0ae17d5dc4673f5dc5db522ad9d25d3db9317add9bcf8357e64736f6c634300080d0033",
  "linkReferences": {},
  "deployedLinkReferences": {}
}