{
  "address": "0x610178dA211FEF7D417bC0e6FeD39F05609AD788",
  "abi": [
    {
      "anonymous": false,
      "inputs": [
        {
          "indexed": true,
          "internalType": "address",
          "name": "arbitrator",
          "type": "address"
        },
        {
          "indexed": true,
          "internalType": "address",
          "name": "implementation",
          "type": "address"
        }
      ],
      "name": "CreatedArbitrator",
      "type": "event"
    },
    {
      "anonymous": false,
      "inputs": [
        {
          "indexed": true,
          "internalType": "address",
          "name": "implementation",
          "type": "address"
        }
      ],
      "name": "DisabledImplementation",
      "type": "event"
    },
    {
      "anonymous": false,
      "inputs": [
        {
          "indexed": true,
          "internalType": "address",
          "name": "implementation",
          "type": "address"
        }
      ],
      "name": "EnabledImplementation",
      "type": "event"
    },
    {
      "anonymous": false,
      "inputs": [
        {
          "indexed": true,
          "internalType": "address",
          "name": "previousOwner",
          "type": "address"
        },
        {
          "indexed": true,
          "internalType": "address",
          "name": "newOwner",
          "type": "address"
        }
      ],
      "name": "OwnershipTransferred",
      "type": "event"
    },
    {
      "inputs": [
        {
          "internalType": "uint256",
          "name": "",
          "type": "uint256"
        }
      ],
      "name": "arbitrators",
      "outputs": [
        {
          "internalType": "address",
          "name": "arbitrator",
          "type": "address"
        },
        {
          "internalType": "address",
          "name": "implementation",
          "type": "address"
        }
      ],
      "stateMutability": "view",
      "type": "function"
    },
    {
      "inputs": [
        {
          "internalType": "address",
          "name": "implementation",
          "type": "address"
        },
        {
          "internalType": "bytes",
          "name": "initParams",
          "type": "bytes"
        }
      ],
      "name": "createArbitrator",
      "outputs": [
        {
          "internalType": "address",
          "name": "",
          "type": "address"
        }
      ],
      "stateMutability": "nonpayable",
      "type": "function"
    },
    {
      "inputs": [
        {
          "internalType": "address",
          "name": "",
          "type": "address"
        }
      ],
      "name": "deployable",
      "outputs": [
        {
          "internalType": "enum ArbitratorFactory.Deployability",
          "name": "",
          "type": "uint8"
        }
      ],
      "stateMutability": "view",
      "type": "function"
    },
    {
      "inputs": [
        {
          "internalType": "address",
          "name": "implementation",
          "type": "address"
        }
      ],
      "name": "disableImplementation",
      "outputs": [],
      "stateMutability": "nonpayable",
      "type": "function"
    },
    {
      "inputs": [
        {
          "internalType": "address",
          "name": "implementation",
          "type": "address"
        }
      ],
      "name": "enableImplementation",
      "outputs": [],
      "stateMutability": "nonpayable",
      "type": "function"
    },
    {
      "inputs": [
        {
          "internalType": "uint256",
          "name": "",
          "type": "uint256"
        }
      ],
      "name": "implementations",
      "outputs": [
        {
          "internalType": "address",
          "name": "",
          "type": "address"
        }
      ],
      "stateMutability": "view",
      "type": "function"
    },
    {
      "inputs": [],
      "name": "owner",
      "outputs": [
        {
          "internalType": "address",
          "name": "",
          "type": "address"
        }
      ],
      "stateMutability": "view",
      "type": "function"
    },
    {
      "inputs": [],
      "name": "renounceOwnership",
      "outputs": [],
      "stateMutability": "nonpayable",
      "type": "function"
    },
    {
      "inputs": [
        {
          "internalType": "address",
          "name": "newOwner",
          "type": "address"
        }
      ],
      "name": "transferOwnership",
      "outputs": [],
      "stateMutability": "nonpayable",
      "type": "function"
    }
  ],
  "transactionHash": "0x5555c8928aafe73ddb2fea0d179fcd837ff9467df4f3c73f51d23badc93db814",
  "args": [],
  "solcInputHash": "0d15cf5720a5e8a92faf23d455498ba0",
  "bytecode": "0x608060405234801561001057600080fd5b5061001a3361001f565b61006f565b600080546001600160a01b038381166001600160a01b0319831681178455604051919092169283917f8be0079c531659141344cd1fd0a4f28419497f9722a3daafe3b4186f6b6457e09190a35050565b6109ad8061007e6000396000f3fe608060405234801561001057600080fd5b50600436106100835760003560e01c80636777eee914610088578063715018a6146100c1578063845affc8146100cb5780638da5cb5b146100f65780639353c189146100fe578063a6430cc014610111578063ae098efd14610144578063b659292714610157578063f2fde38b1461016a575b600080fd5b6100ab6100963660046107dd565b60036020526000908152604090205460ff1681565b6040516100b89190610815565b60405180910390f35b6100c961017d565b005b6100de6100d936600461083d565b6101c1565b6040516001600160a01b0390911681526020016100b8565b6100de6101eb565b6100de61010c366004610856565b6101fa565b61012461011f36600461083d565b61048c565b604080516001600160a01b039384168152929091166020830152016100b8565b6100c96101523660046107dd565b6104c5565b6100c96101653660046107dd565b6105be565b6100c96101783660046107dd565b610639565b336101866101eb565b6001600160a01b0316146101b55760405162461bcd60e51b81526004016101ac906108d8565b60405180910390fd5b6101bf60006106d9565b565b600281815481106101d157600080fd5b6000918252602090912001546001600160a01b0316905081565b6000546001600160a01b031690565b600060016001600160a01b03851660009081526003602052604090205460ff16600281111561022b5761022b6107ff565b1461028d5760405162461bcd60e51b815260206004820152602c60248201527f50726f7879466163746f72793a3a496e76616c696420696d706c656d656e746160448201526b74696f6e206164647265737360a01b60648201526084016101ac565b600061029885610729565b905060007f4ddf47d42b0805152162d9c7d618efff08ffcd16086dd0bb57ec336c014a994885856040516024016102d092919061090d565b604051602081830303815290604052906001600160e01b0319166020820180516001600160e01b0383818316178352505050509050600080836001600160a01b0316600084604051610322919061093c565b60006040518083038185875af1925050503d806000811461035f576040519150601f19603f3d011682016040523d82523d6000602084013e610364565b606091505b5091509150816103b35760405162461bcd60e51b815260206004820152601a602482015279125b9a5d1a585b1a5e985d1a5bdb8818d85b1b0819985a5b195960321b60448201526064016101ac565b6040805180820182526001600160a01b038681168083528b8216602084018181526001805480820182556000918252865160029091027fb10e2d527612073b26eecdfd717e6a320cf44b4afac2b0732d9fcbe2b7fa0cf6810180549288166001600160a01b031993841617905592517fb10e2d527612073b26eecdfd717e6a320cf44b4afac2b0732d9fcbe2b7fa0cf7909301805493909616921691909117909355935192939290917f4f8840854068f3df6fda9ea1b48b84044ff6d8773dc07916aec5d6eb8d16cbf291a35092979650505050505050565b6001818154811061049c57600080fd5b6000918252602090912060029091020180546001909101546001600160a01b0391821692501682565b336104ce6101eb565b6001600160a01b0316146104f45760405162461bcd60e51b81526004016101ac906108d8565b6001600160a01b03811660009081526003602052604081205460ff166002811115610521576105216107ff565b0361057257600280546001810182556000919091527f405787fa12a823e0f2b7631cc41b3ba8828b3321ca811111fa75cd3aa3bb5ace0180546001600160a01b0319166001600160a01b0383161790555b6001600160a01b038116600081815260036020526040808220805460ff19166001179055517fcb9000c1ce52d3b408c6a8a4fb65c3a32ccf8de95e7f6d5d72db20a16cee7ecf9190a250565b336105c76101eb565b6001600160a01b0316146105ed5760405162461bcd60e51b81526004016101ac906108d8565b6001600160a01b038116600081815260036020526040808220805460ff19166002179055517f5f620bebaa471aba3cc75e9861b371616ddb51e02b4728f7c4721f7b8c5379069190a250565b336106426101eb565b6001600160a01b0316146106685760405162461bcd60e51b81526004016101ac906108d8565b6001600160a01b0381166106cd5760405162461bcd60e51b815260206004820152602660248201527f4f776e61626c653a206e6577206f776e657220697320746865207a65726f206160448201526564647265737360d01b60648201526084016101ac565b6106d6816106d9565b50565b600080546001600160a01b038381166001600160a01b0319831681178455604051919092169283917f8be0079c531659141344cd1fd0a4f28419497f9722a3daafe3b4186f6b6457e09190a35050565b6000604051733d602d80600a3d3981f3363d3d373d3d3d363d7360601b81528260601b60148201526e5af43d82803e903d91602b57fd5bf360881b60288201526037816000f09150506001600160a01b0381166107c15760405162461bcd60e51b8152602060048201526016602482015275115490cc4c4d8dce8818dc99585d194819985a5b195960521b60448201526064016101ac565b919050565b80356001600160a01b03811681146107c157600080fd5b6000602082840312156107ef57600080fd5b6107f8826107c6565b9392505050565b634e487b7160e01b600052602160045260246000fd5b602081016003831061083757634e487b7160e01b600052602160045260246000fd5b91905290565b60006020828403121561084f57600080fd5b5035919050565b60008060006040848603121561086b57600080fd5b610874846107c6565b925060208401356001600160401b038082111561089057600080fd5b818601915086601f8301126108a457600080fd5b8135818111156108b357600080fd5b8760208285010111156108c557600080fd5b6020830194508093505050509250925092565b6020808252818101527f4f776e61626c653a2063616c6c6572206973206e6f7420746865206f776e6572604082015260600190565b60208152816020820152818360408301376000818301604090810191909152601f909201601f19160101919050565b6000825160005b8181101561095d5760208186018101518583015201610943565b8181111561096c576000828501525b50919091019291505056fea2646970667358221220935c6a409bf442f4aa8806224156475ab3449c5cbecac94a48f502c0d01aa9b164736f6c634300080d0033",
  "devdoc": {
    "kind": "dev",
    "methods": {
      "owner()": {
        "details": "Returns the address of the current owner."
      },
      "renounceOwnership()": {
        "details": "Leaves the contract without owner. It will not be possible to call `onlyOwner` functions anymore. Can only be called by the current owner. NOTE: Renouncing ownership will leave the contract without an owner, thereby removing any functionality that is only available to the owner."
      },
      "transferOwnership(address)": {
        "details": "Transfers ownership of the contract to a new account (`newOwner`). Can only be called by the current owner."
      }
    },
    "version": 1
  },
  "userdoc": {
    "kind": "user",
    "methods": {},
    "version": 1
  },
  "storageLayout": {
    "storage": [
      {
        "astId": 558,
        "contract": "contracts/ArbitratorFactory.sol:ArbitratorFactory",
        "label": "_owner",
        "offset": 0,
        "slot": "0",
        "type": "t_address"
      },
      {
        "astId": 3231,
        "contract": "contracts/ArbitratorFactory.sol:ArbitratorFactory",
        "label": "arbitrators",
        "offset": 0,
        "slot": "1",
        "type": "t_array(t_struct(Arbitrator)3227_storage)dyn_storage"
      },
      {
        "astId": 3234,
        "contract": "contracts/ArbitratorFactory.sol:ArbitratorFactory",
        "label": "implementations",
        "offset": 0,
        "slot": "2",
        "type": "t_array(t_address)dyn_storage"
      },
      {
        "astId": 3239,
        "contract": "contracts/ArbitratorFactory.sol:ArbitratorFactory",
        "label": "deployable",
        "offset": 0,
        "slot": "3",
        "type": "t_mapping(t_address,t_enum(Deployability)3222)"
      }
    ],
    "types": {
      "t_address": {
        "encoding": "inplace",
        "label": "address",
        "numberOfBytes": "20"
      },
      "t_array(t_address)dyn_storage": {
        "base": "t_address",
        "encoding": "dynamic_array",
        "label": "address[]",
        "numberOfBytes": "32"
      },
      "t_array(t_struct(Arbitrator)3227_storage)dyn_storage": {
        "base": "t_struct(Arbitrator)3227_storage",
        "encoding": "dynamic_array",
        "label": "struct ArbitratorFactory.Arbitrator[]",
        "numberOfBytes": "32"
      },
      "t_enum(Deployability)3222": {
        "encoding": "inplace",
        "label": "enum ArbitratorFactory.Deployability",
        "numberOfBytes": "1"
      },
      "t_mapping(t_address,t_enum(Deployability)3222)": {
        "encoding": "mapping",
        "key": "t_address",
        "label": "mapping(address => enum ArbitratorFactory.Deployability)",
        "numberOfBytes": "32",
        "value": "t_enum(Deployability)3222"
      },
      "t_struct(Arbitrator)3227_storage": {
        "encoding": "inplace",
        "label": "struct ArbitratorFactory.Arbitrator",
        "members": [
          {
            "astId": 3224,
            "contract": "contracts/ArbitratorFactory.sol:ArbitratorFactory",
            "label": "arbitrator",
            "offset": 0,
            "slot": "0",
            "type": "t_address"
          },
          {
            "astId": 3226,
            "contract": "contracts/ArbitratorFactory.sol:ArbitratorFactory",
            "label": "implementation",
            "offset": 0,
            "slot": "1",
            "type": "t_address"
          }
        ],
        "numberOfBytes": "64"
      }
    }
  }
}