{
  "address": "0xDc64a140Aa3E981100a9becA4E685f962f0cF6C9",
  "abi": [
    {
      "anonymous": false,
      "inputs": [
        {
          "indexed": false,
          "internalType": "bytes32",
          "name": "conditionId",
          "type": "bytes32"
        }
      ],
      "name": "ChangedStatus",
      "type": "event"
    },
    {
      "anonymous": false,
      "inputs": [
        {
          "indexed": false,
          "internalType": "bytes32",
          "name": "conditionId",
          "type": "bytes32"
        }
      ],
      "name": "DeliveredNullArbitration",
      "type": "event"
    },
    {
      "anonymous": false,
      "inputs": [
        {
          "indexed": false,
          "internalType": "address",
          "name": "child",
          "type": "address"
        }
      ],
      "name": "DeployedChild",
      "type": "event"
    },
    {
      "anonymous": false,
      "inputs": [],
      "name": "IngestedData",
      "type": "event"
    },
    {
      "anonymous": false,
      "inputs": [
        {
          "indexed": false,
          "internalType": "uint8",
          "name": "version",
          "type": "uint8"
        }
      ],
      "name": "Initialized",
      "type": "event"
    },
    {
      "anonymous": false,
      "inputs": [
        {
          "indexed": false,
          "internalType": "address",
          "name": "solver",
          "type": "address"
        },
        {
          "indexed": false,
          "internalType": "uint256",
          "name": "solveIndex",
          "type": "uint256"
        }
      ],
      "name": "PreparedSolve",
      "type": "event"
    },
    {
      "inputs": [
        {
          "internalType": "bytes32",
          "name": "_slot",
          "type": "bytes32"
        },
        {
          "internalType": "bytes",
          "name": "_data",
          "type": "bytes"
        }
      ],
      "name": "addData",
      "outputs": [],
      "stateMutability": "nonpayable",
      "type": "function"
    },
    {
      "inputs": [
        {
          "internalType": "uint256",
          "name": "_index",
          "type": "uint256"
        }
      ],
      "name": "addressFromChainIndex",
      "outputs": [
        {
          "internalType": "address",
          "name": "_address",
          "type": "address"
        }
      ],
      "stateMutability": "view",
      "type": "function"
    },
    {
      "inputs": [
        {
          "internalType": "uint256",
          "name": "_index",
          "type": "uint256"
        }
      ],
      "name": "allocationsValid",
      "outputs": [
        {
          "internalType": "bool",
          "name": "",
          "type": "bool"
        }
      ],
      "stateMutability": "view",
      "type": "function"
    },
    {
      "inputs": [
        {
          "internalType": "uint256",
          "name": "_index",
          "type": "uint256"
        },
        {
          "internalType": "uint256[]",
          "name": "payouts",
          "type": "uint256[]"
        }
      ],
      "name": "arbitrate",
      "outputs": [],
      "stateMutability": "nonpayable",
      "type": "function"
    },
    {
      "inputs": [
        {
          "internalType": "uint256",
          "name": "_index",
          "type": "uint256"
        }
      ],
      "name": "arbitrateNull",
      "outputs": [],
      "stateMutability": "nonpayable",
      "type": "function"
    },
    {
      "inputs": [
        {
          "internalType": "uint256",
          "name": "_index",
          "type": "uint256"
        }
      ],
      "name": "arbitrationRequested",
      "outputs": [],
      "stateMutability": "nonpayable",
      "type": "function"
    },
    {
      "inputs": [],
      "name": "arbitrator",
      "outputs": [
        {
          "internalType": "address",
          "name": "",
          "type": "address"
        }
      ],
      "stateMutability": "view",
      "type": "function"
    },
    {
      "inputs": [],
      "name": "chainChild",
      "outputs": [
        {
          "internalType": "address",
          "name": "",
          "type": "address"
        }
      ],
      "stateMutability": "view",
      "type": "function"
    },
    {
      "inputs": [],
      "name": "chainIndex",
      "outputs": [
        {
          "internalType": "uint256",
          "name": "",
          "type": "uint256"
        }
      ],
      "stateMutability": "view",
      "type": "function"
    },
    {
      "inputs": [],
      "name": "chainParent",
      "outputs": [
        {
          "internalType": "address",
          "name": "",
          "type": "address"
        }
      ],
      "stateMutability": "view",
      "type": "function"
    },
    {
      "inputs": [],
      "name": "collateralBalance",
      "outputs": [
        {
          "internalType": "uint256",
          "name": "balance",
          "type": "uint256"
        }
      ],
      "stateMutability": "view",
      "type": "function"
    },
    {
      "inputs": [
        {
          "internalType": "uint256",
          "name": "index",
          "type": "uint256"
        }
      ],
      "name": "condition",
      "outputs": [
        {
          "components": [
            {
              "internalType": "contract IERC20",
              "name": "collateralToken",
              "type": "address"
            },
            {
              "internalType": "bytes32",
              "name": "questionId",
              "type": "bytes32"
            },
            {
              "internalType": "bytes32",
              "name": "parentCollectionId",
              "type": "bytes32"
            },
            {
              "internalType": "bytes32",
              "name": "conditionId",
              "type": "bytes32"
            },
            {
              "internalType": "uint256[]",
              "name": "payouts",
              "type": "uint256[]"
            },
            {
              "internalType": "enum SolverLib.Status",
              "name": "status",
              "type": "uint8"
            }
          ],
          "internalType": "struct SolverLib.Condition",
          "name": "",
          "type": "tuple"
        }
      ],
      "stateMutability": "view",
      "type": "function"
    },
    {
      "inputs": [
        {
          "internalType": "uint256",
          "name": "",
          "type": "uint256"
        }
      ],
      "name": "conditions",
      "outputs": [
        {
          "internalType": "contract IERC20",
          "name": "collateralToken",
          "type": "address"
        },
        {
          "internalType": "bytes32",
          "name": "questionId",
          "type": "bytes32"
        },
        {
          "internalType": "bytes32",
          "name": "parentCollectionId",
          "type": "bytes32"
        },
        {
          "internalType": "bytes32",
          "name": "conditionId",
          "type": "bytes32"
        },
        {
          "internalType": "enum SolverLib.Status",
          "name": "status",
          "type": "uint8"
        }
      ],
      "stateMutability": "view",
      "type": "function"
    },
    {
      "inputs": [],
      "name": "config",
      "outputs": [
        {
          "internalType": "contract Solver",
          "name": "implementation",
          "type": "address"
        },
        {
          "internalType": "address",
          "name": "keeper",
          "type": "address"
        },
        {
          "internalType": "address",
          "name": "arbitrator",
          "type": "address"
        },
        {
          "internalType": "uint256",
          "name": "timelockSeconds",
          "type": "uint256"
        },
        {
          "internalType": "bytes",
          "name": "data",
          "type": "bytes"
        },
        {
          "components": [
            {
              "internalType": "contract IERC20",
              "name": "collateralToken",
              "type": "address"
            },
            {
              "internalType": "uint256",
              "name": "outcomeSlots",
              "type": "uint256"
            },
            {
              "internalType": "uint256",
              "name": "parentCollectionIndexSet",
              "type": "uint256"
            },
            {
              "internalType": "bytes32",
              "name": "amountSlot",
              "type": "bytes32"
            },
            {
              "internalType": "uint256[]",
              "name": "partition",
              "type": "uint256[]"
            },
            {
              "components": [
                {
                  "internalType": "bytes32",
                  "name": "recipientAddressSlot",
                  "type": "bytes32"
                },
                {
                  "internalType": "bytes32[]",
                  "name": "recipientAmountSlots",
                  "type": "bytes32[]"
                }
              ],
              "internalType": "struct SolverLib.Allocation[]",
              "name": "allocations",
              "type": "tuple[]"
            },
            {
              "components": [
                {
                  "internalType": "bytes32",
                  "name": "digest",
                  "type": "bytes32"
                },
                {
                  "internalType": "uint8",
                  "name": "hashFunction",
                  "type": "uint8"
                },
                {
                  "internalType": "uint8",
                  "name": "size",
                  "type": "uint8"
                }
              ],
              "internalType": "struct SolverLib.Multihash[]",
              "name": "outcomeURIs",
              "type": "tuple[]"
            }
          ],
          "internalType": "struct SolverLib.ConditionBase",
          "name": "conditionBase",
          "type": "tuple"
        }
      ],
      "stateMutability": "view",
      "type": "function"
    },
    {
      "inputs": [
        {
          "internalType": "uint256",
          "name": "_index",
          "type": "uint256"
        }
      ],
      "name": "confirmPayouts",
      "outputs": [],
      "stateMutability": "nonpayable",
      "type": "function"
    },
    {
      "inputs": [
        {
          "components": [
            {
              "internalType": "contract Solver",
              "name": "implementation",
              "type": "address"
            },
            {
              "internalType": "address",
              "name": "keeper",
              "type": "address"
            },
            {
              "internalType": "address",
              "name": "arbitrator",
              "type": "address"
            },
            {
              "internalType": "uint256",
              "name": "timelockSeconds",
              "type": "uint256"
            },
            {
              "internalType": "bytes",
              "name": "data",
              "type": "bytes"
            },
            {
              "components": [
                {
                  "internalType": "uint256",
                  "name": "executions",
                  "type": "uint256"
                },
                {
                  "internalType": "enum SolverLib.IngestType",
                  "name": "ingestType",
                  "type": "uint8"
                },
                {
                  "internalType": "bytes32",
                  "name": "slot",
                  "type": "bytes32"
                },
                {
                  "internalType": "uint256",
                  "name": "solverIndex",
                  "type": "uint256"
                },
                {
                  "internalType": "bytes",
                  "name": "data",
                  "type": "bytes"
                }
              ],
              "internalType": "struct SolverLib.Ingest[]",
              "name": "ingests",
              "type": "tuple[]"
            },
            {
              "components": [
                {
                  "internalType": "contract IERC20",
                  "name": "collateralToken",
                  "type": "address"
                },
                {
                  "internalType": "uint256",
                  "name": "outcomeSlots",
                  "type": "uint256"
                },
                {
                  "internalType": "uint256",
                  "name": "parentCollectionIndexSet",
                  "type": "uint256"
                },
                {
                  "internalType": "bytes32",
                  "name": "amountSlot",
                  "type": "bytes32"
                },
                {
                  "internalType": "uint256[]",
                  "name": "partition",
                  "type": "uint256[]"
                },
                {
                  "components": [
                    {
                      "internalType": "bytes32",
                      "name": "recipientAddressSlot",
                      "type": "bytes32"
                    },
                    {
                      "internalType": "bytes32[]",
                      "name": "recipientAmountSlots",
                      "type": "bytes32[]"
                    }
                  ],
                  "internalType": "struct SolverLib.Allocation[]",
                  "name": "allocations",
                  "type": "tuple[]"
                },
                {
                  "components": [
                    {
                      "internalType": "bytes32",
                      "name": "digest",
                      "type": "bytes32"
                    },
                    {
                      "internalType": "uint8",
                      "name": "hashFunction",
                      "type": "uint8"
                    },
                    {
                      "internalType": "uint8",
                      "name": "size",
                      "type": "uint8"
                    }
                  ],
                  "internalType": "struct SolverLib.Multihash[]",
                  "name": "outcomeURIs",
                  "type": "tuple[]"
                }
              ],
              "internalType": "struct SolverLib.ConditionBase",
              "name": "conditionBase",
              "type": "tuple"
            }
          ],
          "internalType": "struct SolverLib.Config",
          "name": "_config",
          "type": "tuple"
        }
      ],
      "name": "deployChild",
      "outputs": [
        {
          "internalType": "address",
          "name": "",
          "type": "address"
        }
      ],
      "stateMutability": "nonpayable",
      "type": "function"
    },
    {
      "inputs": [
        {
          "internalType": "uint256",
          "name": "_index",
          "type": "uint256"
        }
      ],
      "name": "executeSolve",
      "outputs": [],
      "stateMutability": "nonpayable",
      "type": "function"
    },
    {
      "inputs": [
        {
          "internalType": "bytes32",
          "name": "_slot",
          "type": "bytes32"
        }
      ],
      "name": "getAllData",
      "outputs": [
        {
          "internalType": "bytes[]",
          "name": "data",
          "type": "bytes[]"
        }
      ],
      "stateMutability": "view",
      "type": "function"
    },
    {
      "inputs": [
        {
          "internalType": "bytes32",
          "name": "_slot",
          "type": "bytes32"
        }
      ],
      "name": "getCallbackOutput",
      "outputs": [
        {
          "internalType": "bytes",
          "name": "data",
          "type": "bytes"
        }
      ],
      "stateMutability": "view",
      "type": "function"
    },
    {
      "inputs": [],
      "name": "getConditions",
      "outputs": [
        {
          "components": [
            {
              "internalType": "contract IERC20",
              "name": "collateralToken",
              "type": "address"
            },
            {
              "internalType": "bytes32",
              "name": "questionId",
              "type": "bytes32"
            },
            {
              "internalType": "bytes32",
              "name": "parentCollectionId",
              "type": "bytes32"
            },
            {
              "internalType": "bytes32",
              "name": "conditionId",
              "type": "bytes32"
            },
            {
              "internalType": "uint256[]",
              "name": "payouts",
              "type": "uint256[]"
            },
            {
              "internalType": "enum SolverLib.Status",
              "name": "status",
              "type": "uint8"
            }
          ],
          "internalType": "struct SolverLib.Condition[]",
          "name": "",
          "type": "tuple[]"
        }
      ],
      "stateMutability": "view",
      "type": "function"
    },
    {
      "inputs": [],
      "name": "getConfig",
      "outputs": [
        {
          "components": [
            {
              "internalType": "contract Solver",
              "name": "implementation",
              "type": "address"
            },
            {
              "internalType": "address",
              "name": "keeper",
              "type": "address"
            },
            {
              "internalType": "address",
              "name": "arbitrator",
              "type": "address"
            },
            {
              "internalType": "uint256",
              "name": "timelockSeconds",
              "type": "uint256"
            },
            {
              "internalType": "bytes",
              "name": "data",
              "type": "bytes"
            },
            {
              "components": [
                {
                  "internalType": "uint256",
                  "name": "executions",
                  "type": "uint256"
                },
                {
                  "internalType": "enum SolverLib.IngestType",
                  "name": "ingestType",
                  "type": "uint8"
                },
                {
                  "internalType": "bytes32",
                  "name": "slot",
                  "type": "bytes32"
                },
                {
                  "internalType": "uint256",
                  "name": "solverIndex",
                  "type": "uint256"
                },
                {
                  "internalType": "bytes",
                  "name": "data",
                  "type": "bytes"
                }
              ],
              "internalType": "struct SolverLib.Ingest[]",
              "name": "ingests",
              "type": "tuple[]"
            },
            {
              "components": [
                {
                  "internalType": "contract IERC20",
                  "name": "collateralToken",
                  "type": "address"
                },
                {
                  "internalType": "uint256",
                  "name": "outcomeSlots",
                  "type": "uint256"
                },
                {
                  "internalType": "uint256",
                  "name": "parentCollectionIndexSet",
                  "type": "uint256"
                },
                {
                  "internalType": "bytes32",
                  "name": "amountSlot",
                  "type": "bytes32"
                },
                {
                  "internalType": "uint256[]",
                  "name": "partition",
                  "type": "uint256[]"
                },
                {
                  "components": [
                    {
                      "internalType": "bytes32",
                      "name": "recipientAddressSlot",
                      "type": "bytes32"
                    },
                    {
                      "internalType": "bytes32[]",
                      "name": "recipientAmountSlots",
                      "type": "bytes32[]"
                    }
                  ],
                  "internalType": "struct SolverLib.Allocation[]",
                  "name": "allocations",
                  "type": "tuple[]"
                },
                {
                  "components": [
                    {
                      "internalType": "bytes32",
                      "name": "digest",
                      "type": "bytes32"
                    },
                    {
                      "internalType": "uint8",
                      "name": "hashFunction",
                      "type": "uint8"
                    },
                    {
                      "internalType": "uint8",
                      "name": "size",
                      "type": "uint8"
                    }
                  ],
                  "internalType": "struct SolverLib.Multihash[]",
                  "name": "outcomeURIs",
                  "type": "tuple[]"
                }
              ],
              "internalType": "struct SolverLib.ConditionBase",
              "name": "conditionBase",
              "type": "tuple"
            }
          ],
          "internalType": "struct SolverLib.Config",
          "name": "",
          "type": "tuple"
        }
      ],
      "stateMutability": "view",
      "type": "function"
    },
    {
      "inputs": [
        {
          "internalType": "bytes32",
          "name": "_slot",
          "type": "bytes32"
        }
      ],
      "name": "getData",
      "outputs": [
        {
          "internalType": "bytes",
          "name": "data",
          "type": "bytes"
        }
      ],
      "stateMutability": "view",
      "type": "function"
    },
    {
      "inputs": [
        {
          "internalType": "bytes32",
          "name": "slot",
          "type": "bytes32"
        }
      ],
      "name": "getOutgoingCallbacks",
      "outputs": [
        {
          "internalType": "address[]",
          "name": "",
          "type": "address[]"
        }
      ],
      "stateMutability": "view",
      "type": "function"
    },
    {
      "inputs": [
        {
          "internalType": "uint256",
          "name": "conditionIndex",
          "type": "uint256"
        }
      ],
      "name": "getStatus",
      "outputs": [
        {
          "internalType": "enum SolverLib.Status",
          "name": "status",
          "type": "uint8"
        }
      ],
      "stateMutability": "view",
      "type": "function"
    },
    {
      "inputs": [
        {
          "internalType": "bytes32",
          "name": "_slot",
          "type": "bytes32"
        }
      ],
      "name": "handleCallback",
      "outputs": [],
      "stateMutability": "nonpayable",
      "type": "function"
    },
    {
      "inputs": [],
      "name": "ingestsValid",
      "outputs": [
        {
          "internalType": "bool",
          "name": "",
          "type": "bool"
        }
      ],
      "stateMutability": "view",
      "type": "function"
    },
    {
      "inputs": [
        {
          "internalType": "address",
          "name": "_deployer",
          "type": "address"
        },
        {
          "internalType": "address",
          "name": "_ctfAddress",
          "type": "address"
        },
        {
          "internalType": "address",
          "name": "_chainParent",
          "type": "address"
        },
        {
          "internalType": "uint256",
          "name": "_chainIndex",
          "type": "uint256"
        },
        {
          "components": [
            {
              "internalType": "contract Solver",
              "name": "implementation",
              "type": "address"
            },
            {
              "internalType": "address",
              "name": "keeper",
              "type": "address"
            },
            {
              "internalType": "address",
              "name": "arbitrator",
              "type": "address"
            },
            {
              "internalType": "uint256",
              "name": "timelockSeconds",
              "type": "uint256"
            },
            {
              "internalType": "bytes",
              "name": "data",
              "type": "bytes"
            },
            {
              "components": [
                {
                  "internalType": "uint256",
                  "name": "executions",
                  "type": "uint256"
                },
                {
                  "internalType": "enum SolverLib.IngestType",
                  "name": "ingestType",
                  "type": "uint8"
                },
                {
                  "internalType": "bytes32",
                  "name": "slot",
                  "type": "bytes32"
                },
                {
                  "internalType": "uint256",
                  "name": "solverIndex",
                  "type": "uint256"
                },
                {
                  "internalType": "bytes",
                  "name": "data",
                  "type": "bytes"
                }
              ],
              "internalType": "struct SolverLib.Ingest[]",
              "name": "ingests",
              "type": "tuple[]"
            },
            {
              "components": [
                {
                  "internalType": "contract IERC20",
                  "name": "collateralToken",
                  "type": "address"
                },
                {
                  "internalType": "uint256",
                  "name": "outcomeSlots",
                  "type": "uint256"
                },
                {
                  "internalType": "uint256",
                  "name": "parentCollectionIndexSet",
                  "type": "uint256"
                },
                {
                  "internalType": "bytes32",
                  "name": "amountSlot",
                  "type": "bytes32"
                },
                {
                  "internalType": "uint256[]",
                  "name": "partition",
                  "type": "uint256[]"
                },
                {
                  "components": [
                    {
                      "internalType": "bytes32",
                      "name": "recipientAddressSlot",
                      "type": "bytes32"
                    },
                    {
                      "internalType": "bytes32[]",
                      "name": "recipientAmountSlots",
                      "type": "bytes32[]"
                    }
                  ],
                  "internalType": "struct SolverLib.Allocation[]",
                  "name": "allocations",
                  "type": "tuple[]"
                },
                {
                  "components": [
                    {
                      "internalType": "bytes32",
                      "name": "digest",
                      "type": "bytes32"
                    },
                    {
                      "internalType": "uint8",
                      "name": "hashFunction",
                      "type": "uint8"
                    },
                    {
                      "internalType": "uint8",
                      "name": "size",
                      "type": "uint8"
                    }
                  ],
                  "internalType": "struct SolverLib.Multihash[]",
                  "name": "outcomeURIs",
                  "type": "tuple[]"
                }
              ],
              "internalType": "struct SolverLib.ConditionBase",
              "name": "conditionBase",
              "type": "tuple"
            }
          ],
          "internalType": "struct SolverLib.Config",
          "name": "_solverConfig",
          "type": "tuple"
        }
      ],
      "name": "init",
      "outputs": [],
      "stateMutability": "nonpayable",
      "type": "function"
    },
    {
      "inputs": [
        {
          "internalType": "address",
          "name": "account",
          "type": "address"
        },
        {
          "internalType": "uint256",
          "name": "conditionIndex",
          "type": "uint256"
        }
      ],
      "name": "isRecipient",
      "outputs": [
        {
          "internalType": "bool",
          "name": "",
          "type": "bool"
        }
      ],
      "stateMutability": "view",
      "type": "function"
    },
    {
      "inputs": [],
      "name": "keeper",
      "outputs": [
        {
          "internalType": "address",
          "name": "",
          "type": "address"
        }
      ],
      "stateMutability": "view",
      "type": "function"
    },
    {
      "inputs": [
        {
          "internalType": "address",
          "name": "operator",
          "type": "address"
        },
        {
          "internalType": "address",
          "name": "from",
          "type": "address"
        },
        {
          "internalType": "uint256[]",
          "name": "ids",
          "type": "uint256[]"
        },
        {
          "internalType": "uint256[]",
          "name": "values",
          "type": "uint256[]"
        },
        {
          "internalType": "bytes",
          "name": "data",
          "type": "bytes"
        }
      ],
      "name": "onERC1155BatchReceived",
      "outputs": [
        {
          "internalType": "bytes4",
          "name": "",
          "type": "bytes4"
        }
      ],
      "stateMutability": "nonpayable",
      "type": "function"
    },
    {
      "inputs": [
        {
          "internalType": "address",
          "name": "operator",
          "type": "address"
        },
        {
          "internalType": "address",
          "name": "from",
          "type": "address"
        },
        {
          "internalType": "uint256",
          "name": "id",
          "type": "uint256"
        },
        {
          "internalType": "uint256",
          "name": "value",
          "type": "uint256"
        },
        {
          "internalType": "bytes",
          "name": "data",
          "type": "bytes"
        }
      ],
      "name": "onERC1155Received",
      "outputs": [
        {
          "internalType": "bytes4",
          "name": "",
          "type": "bytes4"
        }
      ],
      "stateMutability": "nonpayable",
      "type": "function"
    },
    {
      "inputs": [
        {
          "internalType": "uint256",
          "name": "_index",
          "type": "uint256"
        }
      ],
      "name": "prepareSolve",
      "outputs": [],
      "stateMutability": "nonpayable",
      "type": "function"
    },
    {
      "inputs": [
        {
          "internalType": "uint256",
          "name": "_index",
          "type": "uint256"
        },
        {
          "internalType": "uint256[]",
          "name": "_payouts",
          "type": "uint256[]"
        }
      ],
      "name": "proposePayouts",
      "outputs": [],
      "stateMutability": "nonpayable",
      "type": "function"
    },
    {
      "inputs": [
        {
          "internalType": "contract IERC20",
          "name": "_collateralToken",
          "type": "address"
        },
        {
          "internalType": "bytes32",
          "name": "_parentCollectionId",
          "type": "bytes32"
        },
        {
          "internalType": "bytes32",
          "name": "_conditionId",
          "type": "bytes32"
        },
        {
          "internalType": "uint256[]",
          "name": "_indexSets",
          "type": "uint256[]"
        }
      ],
      "name": "redeemPosition",
      "outputs": [],
      "stateMutability": "nonpayable",
      "type": "function"
    },
    {
      "inputs": [
        {
          "internalType": "bytes32",
          "name": "_slot",
          "type": "bytes32"
        },
        {
          "internalType": "uint256",
          "name": "_chainIndex",
          "type": "uint256"
        }
      ],
      "name": "registerOutgoingCallback",
      "outputs": [],
      "stateMutability": "nonpayable",
      "type": "function"
    },
    {
      "inputs": [
        {
          "internalType": "bytes32",
          "name": "_trackingId",
          "type": "bytes32"
        }
      ],
      "name": "setTrackingId",
      "outputs": [],
      "stateMutability": "nonpayable",
      "type": "function"
    },
    {
      "inputs": [
        {
          "internalType": "bytes4",
          "name": "interfaceId",
          "type": "bytes4"
        }
      ],
      "name": "supportsInterface",
      "outputs": [
        {
          "internalType": "bool",
          "name": "",
          "type": "bool"
        }
      ],
      "stateMutability": "view",
      "type": "function"
    },
    {
      "inputs": [
        {
          "internalType": "uint256",
          "name": "",
          "type": "uint256"
        }
      ],
      "name": "timelocks",
      "outputs": [
        {
          "internalType": "uint256",
          "name": "",
          "type": "uint256"
        }
      ],
      "stateMutability": "view",
      "type": "function"
    },
    {
      "inputs": [],
      "name": "trackingId",
      "outputs": [
        {
          "internalType": "bytes32",
          "name": "",
          "type": "bytes32"
        }
      ],
      "stateMutability": "view",
      "type": "function"
    }
  ],
  "transactionHash": "0x860a7b5c338cbdf8295128b3f84a8856a8ffc4898969501fe4092d6913ba7f4c",
  "args": [],
  "solcInputHash": "0d15cf5720a5e8a92faf23d455498ba0",
  "bytecode": "0x60806040523480156200001157600080fd5b506200001c62000022565b6200013b565b6200002e60ff62000031565b50565b60008054610100900460ff16156200009a578160ff1660011480156200006a57506200006830620000de60201b62002a291760201c565b155b620000925760405162461bcd60e51b81526004016200008990620000ed565b60405180910390fd5b506000919050565b60005460ff808416911610620000c45760405162461bcd60e51b81526004016200008990620000ed565b506000805460ff191660ff92909216919091179055600190565b6001600160a01b03163b151590565b6020808252602e908201527f496e697469616c697a61626c653a20636f6e747261637420697320616c72656160408201526d191e481a5b9a5d1a585b1a5e995960921b606082015260800190565b615460806200014b6000396000f3fe608060405234801561001057600080fd5b50600436106101cd5760003560e01c806301ffc9a7146101d25780630944e26e146101fa578063098b37f71461021a5780630d06101a1461023a5780630d7e149f1461024f5780630d8d397514610270578063187825591461028357806326c50007146102965780633837b05e146102ba5780633f4fb5aa146102cd57806344c3b607146102ed57806348cbb2fc146103005780634a77234e146103095780634dab5e691461031c5780634e46f2231461032f578063506da0b81461034257806354f6127f1461035557806355dd978b146103685780635c622a0e1461037b5780636cc6cde11461039b57806379502c55146103ac5780637c123627146103c657806380b204b7146103db57806380c2dde2146103ee5780638602ce1b1461040157806387dfee57146104145780638bc3a08f14610427578063999925061461043a578063aced166114610442578063b992db0f14610453578063bc197c8114610466578063c08d6f01146104a1578063c3f909d4146104c1578063c98c05b7146104d6578063de3a23c5146104de578063df33cc51146104f1578063ea8221a914610504578063f23a6e611461050d578063f24fc90314610520575b600080fd5b6101e56101e0366004613403565b610540565b60405190151581526020015b60405180910390f35b61020d61020836600461344c565b610577565b6040516101f19190613495565b61022d6102283660046134a9565b6106cb565b6040516101f191906134c2565b61024d6102483660046134a9565b610737565b005b61026261025d3660046134a9565b610794565b6040519081526020016101f1565b61024d61027e3660046134a9565b6107b5565b61024d61029136600461356f565b61090f565b6102a96102a43660046134a9565b6109a9565b6040516101f1959493929190613602565b61020d6102c83660046134a9565b6109f7565b6102e06102db3660046134a9565b610ad8565b6040516101f19190613690565b6101e56102fb3660046134a9565b610bea565b61026260155481565b61024d6103173660046134a9565b610c6f565b61024d61032a3660046134a9565b610fe2565b61024d61033d3660046134a9565b61115e565b6101e56103503660046136ae565b61120f565b6102e06103633660046134a9565b611354565b60125461020d906001600160a01b031681565b61038e6103893660046134a9565b611374565b6040516101f191906136da565b6005546001600160a01b031661020d565b6103b46113a6565b6040516101f196959493929190613871565b6103ce611631565b6040516101f1919061392c565b61024d6103e936600461398e565b611744565b60115461020d906001600160a01b031681565b61024d61040f366004613a6e565b6118ab565b61024d610422366004613b1a565b6119aa565b61024d610435366004613bb6565b611b2c565b6101e5611cd7565b6004546001600160a01b031661020d565b61024d6104613660046134a9565b611d5c565b610488610474366004613c75565b63bc197c8160e01b98975050505050505050565b6040516001600160e01b031990911681526020016101f1565b6104b46104af3660046134a9565b611f70565b6040516101f19190613d33565b6104c9612055565b6040516101f19190613e29565b610262612452565b61024d6104ec3660046134a9565b6124c4565b61024d6104ff366004613ec8565b6127fb565b61026260135481565b61048861051b366004613eea565b6128f9565b61053361052e3660046134a9565b61290c565b6040516101f19190613f65565b60006001600160e01b03198216630271189760e51b148061057157506301ffc9a760e01b6001600160e01b03198316145b92915050565b6004546000906001600160a01b031633146105c75760405162461bcd60e51b815260206004820152600b60248201526a27b7363c9035b2b2b832b960a91b60448201526064015b60405180910390fd5b6012546001600160a01b0316156106135760405162461bcd60e51b815260206004820152601060248201526f14dbdb1d995c881a185cc818da1a5b1960821b60448201526064016105be565b6000546013546015546040516386a2d22760e01b815273Cf7Ed3AccA5a467e9e704C703E8D87F634fB0Fc9936386a2d2279361066593620100009092046001600160a01b031692889290600401614310565b602060405180830381865af4158015610682573d6000803e3d6000fd5b505050506040513d601f19601f820116820180604052508101906106a69190614400565b601280546001600160a01b0319166001600160a01b0392909216918217905592915050565b60008181526018602090815260409182902080548351818402810184019094528084526060939283018282801561072b57602002820191906000526020600020905b81546001600160a01b0316815260019091019060200180831161070d575b50505050509050919050565b601554156107785760405162461bcd60e51b815260206004820152600e60248201526d151c9858dada5b99d259081cd95d60921b60448201526064016105be565b6002546001600160a01b0316331461078f57600080fd5b601555565b601481815481106107a457600080fd5b600091825260209091200154905081565b601481815481106107c8576107c861441d565b906000526020600020015442116107f15760405162461bcd60e51b81526004016105be90614433565b6002601082815481106108065761080661441d565b60009182526020909120600560069092020181015460ff169081111561082e5761082e6135d8565b146108725760405162461bcd60e51b815260206004820152601460248201527313dd5d18dbdb59481b9bdd081c1c9bdc1bdcd95960621b60448201526064016105be565b6001546010805473Cf7Ed3AccA5a467e9e704C703E8D87F634fB0Fc9926385c92867926001600160a01b0390911691859081106108b1576108b161441d565b90600052602060002090600602016040518363ffffffff1660e01b81526004016108dc929190614462565b60006040518083038186803b1580156108f457600080fd5b505af4158015610908573d6000803e3d6000fd5b5050505050565b6004546001600160a01b031633146109395760405162461bcd60e51b81526004016105be9061447b565b600154604051626dc0df60e21b81526001600160a01b03909116906301b7037c9061097090889088908890889088906004016144a0565b600060405180830381600087803b15801561098a57600080fd5b505af115801561099e573d6000803e3d6000fd5b505050505050505050565b601081815481106109b957600080fd5b6000918252602090912060069091020180546001820154600283015460038401546005909401546001600160a01b0390931694509092909160ff1685565b60006013548203610a09575030919050565b601354821015610a8057601154604051631c1bd82f60e11b8152600481018490526001600160a01b0390911690633837b05e90602401602060405180830381865afa158015610a5c573d6000803e3d6000fd5b505050506040513d601f19601f820116820180604052508101906105719190614400565b601354821115610ad357601254604051631c1bd82f60e11b8152600481018490526001600160a01b0390911690633837b05e90602401602060405180830381865afa158015610a5c573d6000803e3d6000fd5b919050565b6010546000828152601a602052604090205460609114610b2e5760405162461bcd60e51b815260206004820152601160248201527029b637ba1034b73b30b634b2103b32b91760791b60448201526064016105be565b6000828152601a602052604090208054610b4a906001906144ef565b81548110610b5a57610b5a61441d565b906000526020600020018054610b6f90614506565b80601f0160208091040260200160405190810160405280929190818152602001828054610b9b90614506565b801561072b5780601f10610bbd5761010080835404028352916020019161072b565b820191906000526020600020905b815481529060010190602001808311610bcb5750939695505050505050565b6040516336d39c6160e11b815260048101829052601a60248201526009604482015260009073Cf7Ed3AccA5a467e9e704C703E8D87F634fB0Fc990636da738c290606401602060405180830381865af4158015610c4b573d6000803e3d6000fd5b505050506040513d601f19601f82011682018060405250810190610571919061453a565b60105415610cdb576004546001600160a01b0316331480610c9a57506011546001600160a01b031633145b610cdb5760405162461bcd60e51b815260206004820152601260248201527113db9b1e481ad9595c195c8bdc185c995b9d60721b60448201526064016105be565b6010548114610d275760405162461bcd60e51b8152602060048201526018602482015277496e76616c696420696e64657820746f207072657061726560401b60448201526064016105be565b60175415610d775760405162461bcd60e51b815260206004820181905260248201527f46756c66696c6c206f7574676f696e672063616c6c6261636b7320666972737460448201526064016105be565b60165415610dc75760405162461bcd60e51b815260206004820181905260248201527f46756c66696c6c20696e636f6d696e672063616c6c6261636b7320666972737460448201526064016105be565b6001546011546010805460405163699e0add60e01b8152919373Cf7Ed3AccA5a467e9e704C703E8D87F634fB0Fc99363699e0add93610e19936001600160a01b03938416936009931691600401614671565b600060405180830381865af4158015610e36573d6000803e3d6000fd5b505050506040513d6000823e601f3d908101601f19168201604052610e5e9190810190614732565b8154600180820184556000938452602093849020835160069093020180546001600160a01b0319166001600160a01b03909316929092178255828401519082015560408201516002820155606082015160038201556080820151805192939192610ece926004850192019061328f565b5060a08201518160050160006101000a81548160ff02191690836005811115610ef957610ef96135d8565b0217905550506014805460018101825560009182527fce6d7b5282bd9a3661ae061feed1dbda4e52ab073b1f9285be6e155d9c38d4ec015550610f3a612a38565b7f152ec8ae15d347b2d2a8f0858caa29bcaaa0906749a1f43e08bfe799834602403082604051610f6b929190614462565b60405180910390a16012546001600160a01b031615610fdf5760125460405163253b91a760e11b8152600481018390526001600160a01b0390911690634a77234e906024015b600060405180830381600087803b158015610fcb57600080fd5b505af1158015610908573d6000803e3d6000fd5b50565b6005546001600160a01b0316331461100c5760405162461bcd60e51b81526004016105be90614836565b6002601082815481106110215761102161441d565b60009182526020909120600560069092020181015460ff1690811115611049576110496135d8565b148061108f57506003601082815481106110655761106561441d565b60009182526020909120600560069092020181015460ff169081111561108d5761108d6135d8565b145b6110cc5760405162461bcd60e51b815260206004820152600e60248201526d10d85b9b9bdd081c995c5d595cdd60921b60448201526064016105be565b73Cf7Ed3AccA5a467e9e704C703E8D87F634fB0Fc96324b28602601083815481106110f9576110f961441d565b90600052602060002090600602016040518263ffffffff1660e01b815260040161112591815260200190565b60006040518083038186803b15801561113d57600080fd5b505af4158015611151573d6000803e3d6000fd5b50505050610fdf81612cb6565b6005546001600160a01b031633146111885760405162461bcd60e51b81526004016105be90614836565b60036010828154811061119d5761119d61441d565b60009182526020909120600560069092020181015460ff16908111156111c5576111c56135d8565b146111e25760405162461bcd60e51b81526004016105be9061485f565b73Cf7Ed3AccA5a467e9e704C703E8D87F634fB0Fc96359111fb5601083815481106110f9576110f961441d565b6000805b600e5481101561134a57600e8054600091601a918391908590811061123a5761123a61441d565b9060005260206000209060020201600001548152602001908152602001600020848154811061126b5761126b61441d565b90600052602060002001805461128090614506565b80601f01602080910402602001604051908101604052809291908181526020018280546112ac90614506565b80156112f95780601f106112ce576101008083540402835291602001916112f9565b820191906000526020600020905b8154815290600101906020018083116112dc57829003601f168201915b50505050508060200190518101906113119190614400565b9050806001600160a01b0316856001600160a01b03160361133757600192505050610571565b508061134281614891565b915050611213565b5060009392505050565b6000818152601a60205260409020805460609190610b4a906001906144ef565b6000601082815481106113895761138961441d565b600091825260209091206005600690920201015460ff1692915050565b60038054600454600554600654600780546001600160a01b0395861696948616959093169391926113d690614506565b80601f016020809104026020016040519081016040528092919081815260200182805461140290614506565b801561144f5780601f106114245761010080835404028352916020019161144f565b820191906000526020600020905b81548152906001019060200180831161143257829003601f168201915b50506040805160e0810182526006870180546001600160a01b03168252600788015460208084019190915260088901548385015260098901546060840152600a890180548551818402810184019096528086529899989397509195506080870194509091908301828280156114e357602002820191906000526020600020905b8154815260200190600101908083116114cf575b5050505050815260200160058201805480602002602001604051908101604052809291908181526020016000905b828210156115a55783829060005260206000209060020201604051806040016040529081600082015481526020016001820180548060200260200160405190810160405280929190818152602001828054801561158d57602002820191906000526020600020905b815481526020019060010190808311611579575b50505050508152505081526020019060010190611511565b50505050815260200160068201805480602002602001604051908101604052809291908181526020016000905b8282101561162457600084815260209081902060408051606081018252600286029092018054835260019081015460ff80821685870152610100909104169183019190915290835290920191016115d2565b5050505081525050905086565b60606010805480602002602001604051908101604052809291908181526020016000905b8282101561173b5760008481526020908190206040805160c0810182526006860290920180546001600160a01b0316835260018101548385015260028101548383015260038101546060840152600481018054835181870281018701909452808452939491936080860193928301828280156116f057602002820191906000526020600020905b8154815260200190600101908083116116dc575b505050918352505060058281015460209092019160ff1690811115611717576117176135d8565b6005811115611728576117286135d8565b8152505081526020019060010190611655565b50505050905090565b6004546001600160a01b0316331461176e5760405162461bcd60e51b81526004016105be9061447b565b600a54811461178f5760405162461bcd60e51b81526004016105be906148aa565b6001601084815481106117a4576117a461441d565b60009182526020909120600560069092020181015460ff16908111156117cc576117cc6135d8565b146118125760405162461bcd60e51b815260206004820152601660248201527510dbdb991a5d1a5bdb881b9bdd08115e1958dd5d195960521b60448201526064016105be565b73Cf7Ed3AccA5a467e9e704C703E8D87F634fB0Fc9636a0a24f16010858154811061183f5761183f61441d565b906000526020600020906006020184846040518463ffffffff1660e01b815260040161186d939291906148f0565b60006040518083038186803b15801561188557600080fd5b505af4158015611899573d6000803e3d6000fd5b505050506118a683612cb6565b505050565b6004546001600160a01b031633146118f25760405162461bcd60e51b815260206004820152600a60248201526927b7363ca5b2b2b832b960b11b60448201526064016105be565b6000828152601b6020526040902054600880546003929081106119175761191761441d565b600091825260209091206001600590920201015460ff16600381111561193f5761193f6135d8565b146119855760405162461bcd60e51b81526020600482015260166024820152751bdb9b1e48125b99d95cdd151e5c194b93585b9d585b60521b60448201526064016105be565b61198f8282612cf0565b60405160008051602061540b83398151915290600090a15050565b6005546001600160a01b031633146119d45760405162461bcd60e51b81526004016105be90614836565b6003601083815481106119e9576119e961441d565b60009182526020909120600560069092020181015460ff1690811115611a1157611a116135d8565b14611a2e5760405162461bcd60e51b81526004016105be9061485f565b60148281548110611a4157611a4161441d565b90600052602060002001544211611a6a5760405162461bcd60e51b81526004016105be90614433565b600a54815114611a8c5760405162461bcd60e51b81526004016105be906148aa565b6001546010805473Cf7Ed3AccA5a467e9e704C703E8D87F634fB0Fc992631b948e49926001600160a01b039091169186908110611acb57611acb61441d565b9060005260206000209060060201846040518463ffffffff1660e01b8152600401611af89392919061490a565b60006040518083038186803b158015611b1057600080fd5b505af4158015611b24573d6000803e3d6000fd5b505050505050565b6000611b386001612d8e565b90508015611b50576000805461ff0019166101001790555b6000611b626040840160208501614967565b6001600160a01b031603611ba95760405162461bcd60e51b815260206004820152600e60248201526d12d9595c195c881a5b9d985b1a5960921b60448201526064016105be565b600280546001600160a01b03199081166001600160a01b03898116919091179092556000805462010000600160b01b031916336201000002179055600180548216888416179055601180549091169186169190911790556013839055816003611c128282614fc3565b90505060005b611c2560a0840184614af7565b9050811015611c895780601b6000611c4060a0870187614af7565b85818110611c5057611c5061441d565b9050602002810190611c629190614b40565b60409081013582526020820192909252016000205580611c8181614891565b915050611c18565b508015611b24576000805461ff0019169055604051600181527f7f26b83ff96e1f2b6a682f133852f6798a09c465da95921460cefb38474024989060200160405180910390a1505050505050565b601054604051635cc1f6b560e01b815260009173Cf7Ed3AccA5a467e9e704C703E8D87F634fB0Fc991635cc1f6b591611d1691600891906004016151a2565b602060405180830381865af4158015611d33573d6000803e3d6000fd5b505050506040513d601f19601f82011682018060405250810190611d57919061453a565b905090565b611d64611cd7565b1515600114611da75760405162461bcd60e51b815260206004820152600f60248201526e1a5b99d95cdd1cc81a5b9d985b1a59608a1b60448201526064016105be565b73Cf7Ed3AccA5a467e9e704C703E8D87F634fB0Fc9632dd4082482600160009054906101000a90046001600160a01b031660108581548110611deb57611deb61441d565b60009182526020808320601554601154600c548652601a938490526040909520805460069095029092019460099491926001600160a01b03909116918b908110611e3757611e3761441d565b906000526020600020018054611e4c90614506565b80601f0160208091040260200160405190810160405280929190818152602001828054611e7890614506565b8015611ec55780601f10611e9a57610100808354040283529160200191611ec5565b820191906000526020600020905b815481529060010190602001808311611ea857829003601f168201915b5050505050806020019051810190611edd91906152bb565b60405160e08a901b6001600160e01b031916815260048101989098526001600160a01b03968716602489015260448801959095526064870193909352608486019190915260a485015290911660c483015260e48201526101040160006040518083038186803b158015611f4f57600080fd5b505af4158015611f63573d6000803e3d6000fd5b50505050610fdf81612e1d565b6000818152601a60209081526040808320805482518185028101850190935280835260609492939192909184015b8282101561204a578382906000526020600020018054611fbd90614506565b80601f0160208091040260200160405190810160405280929190818152602001828054611fe990614506565b80156120365780601f1061200b57610100808354040283529160200191612036565b820191906000526020600020905b81548152906001019060200180831161201957829003601f168201915b505050505081526020019060010190611f9e565b505050509050919050565b61205d6132da565b6040805160e081018252600380546001600160a01b0390811683526004548116602084015260055416928201929092526006546060820152600780549192916080840191906120ab90614506565b80601f01602080910402602001604051908101604052809291908181526020018280546120d790614506565b80156121245780601f106120f957610100808354040283529160200191612124565b820191906000526020600020905b81548152906001019060200180831161210757829003601f168201915b5050505050815260200160058201805480602002602001604051908101604052809291908181526020016000905b8282101561226d57838290600052602060002090600502016040518060a0016040529081600082015481526020016001820160009054906101000a900460ff1660038111156121a3576121a36135d8565b60038111156121b4576121b46135d8565b815260200160028201548152602001600382015481526020016004820180546121dc90614506565b80601f016020809104026020016040519081016040528092919081815260200182805461220890614506565b80156122555780601f1061222a57610100808354040283529160200191612255565b820191906000526020600020905b81548152906001019060200180831161223857829003601f168201915b50505050508152505081526020019060010190612152565b505050908252506040805160e0810182526006840180546001600160a01b03168252600785015460208381019190915260088601548385015260098601546060840152600a86018054855181840281018401909652808652958201959394929360808601939283018282801561230257602002820191906000526020600020905b8154815260200190600101908083116122ee575b5050505050815260200160058201805480602002602001604051908101604052809291908181526020016000905b828210156123c4578382906000526020600020906002020160405180604001604052908160008201548152602001600182018054806020026020016040519081016040528092919081815260200182805480156123ac57602002820191906000526020600020905b815481526020019060010190808311612398575b50505050508152505081526020019060010190612330565b50505050815260200160068201805480602002602001604051908101604052809291908181526020016000905b8282101561244357600084815260209081902060408051606081018252600286029092018054835260019081015460ff80821685870152610100909104169183019190915290835290920191016123f1565b50505091525050905250919050565b6009546040516370a0823160e01b81526000916001600160a01b0316906370a0823190612483903090600401613495565b602060405180830381865afa1580156124a0573d6000803e3d6000fd5b505050506040513d601f19601f82011682018060405250810190611d5791906152bb565b600033826040516020016124d99291906152d4565b60408051601f198184030181529181528151602092830120600081815260199093529120546008805492935061253192909190811061251a5761251a61441d565b9060005260206000209060050201600301546109f7565b6001600160a01b0316336001600160a01b0316146125615760405162461bcd60e51b81526004016105be906152f1565b6000818152601960205260408120546008805490919081106125855761258561441d565b600091825260209091206001600590920201015460ff1660038111156125ad576125ad6135d8565b146125f05760405162461bcd60e51b8152602060048201526013602482015272496e67657374206e6f742043616c6c6261636b60681b60448201526064016105be565b6000818152601960205260409020546008805490919081106126145761261461441d565b60009182526020822060059091020180549161262f83614891565b9091555050600081815260196020526040902054600880546127bc9290811061265a5761265a61441d565b906000526020600020906005020160020154336001600160a01b0316633f4fb5aa60036005016016600301600087815260200190815260200160002054815481106126a7576126a761441d565b906000526020600020906005020160040180546126c390614506565b80601f01602080910402602001604051908101604052809291908181526020018280546126ef90614506565b801561273c5780601f106127115761010080835404028352916020019161273c565b820191906000526020600020905b81548152906001019060200180831161271f57829003601f168201915b505050505080602001905181019061275491906152bb565b6040518263ffffffff1660e01b815260040161277291815260200190565b600060405180830381865afa15801561278f573d6000803e3d6000fd5b505050506040513d6000823e601f3d908101601f191682016040526127b79190810190615320565b612cf0565b600081815260196020526040812081905560168054916127db8361538d565b909155505060405160008051602061540b83398151915290600090a15050565b612804816109f7565b6001600160a01b0316336001600160a01b0316146128345760405162461bcd60e51b81526004016105be906152f1565b6000828152601a60205260409020541580159061286057506010546000838152601a6020526040902054145b156128b25760405163de3a23c560e01b815260048101839052339063de3a23c590602401600060405180830381600087803b15801561289e57600080fd5b505af1158015611b24573d6000803e3d6000fd5b6000828152601860209081526040822080546001810182559083529082200180546001600160a01b0319163317905560178054916128ef83614891565b91905055505b5050565b63f23a6e6160e01b5b9695505050505050565b6129416040805160c081018252600080825260208201819052918101829052606080820183905260808201529060a082015290565b601082815481106129545761295461441d565b60009182526020918290206040805160c081018252600690930290910180546001600160a01b0316835260018101548385015260028101548383015260038101546060840152600481018054835181870281018701909452808452939491936080860193928301828280156129e857602002820191906000526020600020905b8154815260200190600101908083116129d4575b505050918352505060058281015460209092019160ff1690811115612a0f57612a0f6135d8565b6005811115612a2057612a206135d8565b90525092915050565b6001600160a01b03163b151590565b60005b600854811015612c9c5760006008805483908110612a5b57612a5b61441d565b600091825260209091206001600590920201015460ff166003811115612a8357612a836135d8565b14612ab957612ab460036005018281548110612aa157612aa161441d565b9060005260206000209060050201612f53565b612c8a565b6000306001600160a01b0316633837b05e60036005018481548110612ae057612ae061441d565b9060005260206000209060050201600301546040518263ffffffff1660e01b8152600401612b1091815260200190565b602060405180830381865afa158015612b2d573d6000803e3d6000fd5b505050506040513d601f19601f82011682018060405250810190612b519190614400565b9050612b5d818361303f565b806001600160a01b031663df33cc5160036005018481548110612b8257612b8261441d565b90600052602060002090600502016004018054612b9e90614506565b80601f0160208091040260200160405190810160405280929190818152602001828054612bca90614506565b8015612c175780601f10612bec57610100808354040283529160200191612c17565b820191906000526020600020905b815481529060010190602001808311612bfa57829003601f168201915b5050505050806020019051810190612c2f91906152bb565b6013546040516001600160e01b031960e085901b16815260048101929092526024820152604401600060405180830381600087803b158015612c7057600080fd5b505af1158015612c84573d6000803e3d6000fd5b50505050505b80612c9481614891565b915050612a3b565b5060405160008051602061540b83398151915290600090a1565b600654612cc4906001614b60565b612cce90426153a4565b60148281548110612ce157612ce161441d565b60009182526020909120015550565b601054612cff906001906144ef565b6000838152601a602052604090205414612d525760405162461bcd60e51b815260206004820152601460248201527314db1bdd081d995c9cda5bdb881a5b9d985b1a5960621b60448201526064016105be565b6000828152601a6020908152604082208054600181018255908352918190208351612d8493919091019184019061337b565b506128f582613155565b60008054610100900460ff1615612ddc578160ff166001148015612db85750612db630612a29565b155b612dd45760405162461bcd60e51b81526004016105be906153bc565b506000919050565b60005460ff808416911610612e035760405162461bcd60e51b81526004016105be906153bc565b506000805460ff191660ff92909216919091179055600190565b6012546001600160a01b031615801590612ea95750601260009054906101000a90046001600160a01b03166001600160a01b031663999925066040518163ffffffff1660e01b8152600401602060405180830381865afa158015612e85573d6000803e3d6000fd5b505050506040513d601f19601f82011682018060405250810190612ea9919061453a565b8015612f1d57506012546040516344c3b60760e01b8152600481018390526001600160a01b03909116906344c3b60790602401602060405180830381865afa158015612ef9573d6000803e3d6000fd5b505050506040513d601f19601f82011682018060405250810190612f1d919061453a565b15610fdf5760125460405163b992db0f60e01b8152600481018390526001600160a01b039091169063b992db0f90602401610fb1565b600181015460039060ff1681811115612f6e57612f6e6135d8565b1115612fb15760405162461bcd60e51b8152602060048201526012602482015271496e76616c696420696e676573745479706560701b60448201526064016105be565b8054816000612fbf83614891565b9091555060039050600182015460ff166003811115612fe057612fe06135d8565b14610fdf57600281015460405163b3d7370760e01b815260048101839052610fdf919073Cf7Ed3AccA5a467e9e704C703E8D87F634fB0Fc99063b3d7370790602401600060405180830381865af415801561278f573d6000803e3d6000fd5b8060166003016000846003600501858154811061305e5761305e61441d565b9060005260206000209060050201600401805461307a90614506565b80601f01602080910402602001604051908101604052809291908181526020018280546130a690614506565b80156130f35780601f106130c8576101008083540402835291602001916130f3565b820191906000526020600020905b8154815290600101906020018083116130d657829003601f168201915b505050505080602001905181019061310b91906152bb565b60405160200161311c9291906152d4565b60408051601f1981840301815291815281516020928301208352908201929092520160009081209190915560168054916128ef83614891565b60005b6000828152601860205260409020548110156128f557600082815260186020526040812080548390811061318e5761318e61441d565b6000918252602090912001546001600160a01b03161461327d5760008281526018602052604090208054829081106131c8576131c861441d565b60009182526020909120015460405163de3a23c560e01b8152600481018490526001600160a01b039091169063de3a23c590602401600060405180830381600087803b15801561321757600080fd5b505af115801561322b573d6000803e3d6000fd5b50505060008381526018602052604090208054909150829081106132515761325161441d565b6000918252602082200180546001600160a01b031916905560178054916132778361538d565b91905055505b8061328781614891565b915050613158565b8280548282559060005260206000209081019282156132ca579160200282015b828111156132ca5782518255916020019190600101906132af565b506132d69291506133ee565b5090565b6040518060e0016040528060006001600160a01b0316815260200160006001600160a01b0316815260200160006001600160a01b031681526020016000815260200160608152602001606081526020016133766040518060e0016040528060006001600160a01b031681526020016000815260200160008152602001600080191681526020016060815260200160608152602001606081525090565b905290565b82805461338790614506565b90600052602060002090601f0160209004810192826133a957600085556132ca565b82601f106133c257805160ff19168380011785556132ca565b828001600101855582156132ca57918201828111156132ca5782518255916020019190600101906132af565b5b808211156132d657600081556001016133ef565b60006020828403121561341557600080fd5b81356001600160e01b03198116811461342d57600080fd5b9392505050565b600060e0828403121561344657600080fd5b50919050565b60006020828403121561345e57600080fd5b81356001600160401b0381111561347457600080fd5b61348084828501613434565b949350505050565b6001600160a01b03169052565b6001600160a01b0391909116815260200190565b6000602082840312156134bb57600080fd5b5035919050565b6020808252825182820181905260009190848201906040850190845b818110156135035783516001600160a01b0316835292840192918401916001016134de565b50909695505050505050565b6001600160a01b0381168114610fdf57600080fd5b60008083601f84011261353657600080fd5b5081356001600160401b0381111561354d57600080fd5b6020830191508360208260051b850101111561356857600080fd5b9250929050565b60008060008060006080868803121561358757600080fd5b85356135928161350f565b9450602086013593506040860135925060608601356001600160401b038111156135bb57600080fd5b6135c788828901613524565b969995985093965092949392505050565b634e487b7160e01b600052602160045260246000fd5b600681106135fe576135fe6135d8565b9052565b6001600160a01b038616815260208101859052604081018490526060810183905260a0810161290260808301846135ee565b60005b8381101561364f578181015183820152602001613637565b8381111561365e576000848401525b50505050565b6000815180845261367c816020860160208601613634565b601f01601f19169290920160200192915050565b60208152600061342d6020830184613664565b8035610ad38161350f565b600080604083850312156136c157600080fd5b82356136cc8161350f565b946020939093013593505050565b6020810161057182846135ee565b600081518084526020808501945080840160005b83811015613718578151875295820195908201906001016136fc565b509495945050505050565b600081518084526020808501945080840160005b83811015613718578151805188528381015160ff908116858a0152604091820151169088015260609096019590820190600101613737565b60018060a01b0381511682526000602080830151818501526040808401518186015260608085015181870152608085015160e060808801526137b460e08801826136e8565b905060a086015187820360a08901528181518084528684019150868160051b85010187840193506000805b8381101561384757868303601f190185528551805184528a01518a84018a905280518a8501819052908b019083908a8601905b808310156138325783518252928d019260019290920191908d0190613812565b50978c0197968c0196945050506001016137df565b505060c08a015197508a810360c08c01526138628189613723565b9b9a5050505050505050505050565b6001600160a01b0387811682528681166020830152851660408201526060810184905260c0608082018190526000906138ac90830185613664565b82810360a08401526138be818561376f565b9998505050505050505050565b60018060a01b0381511682526020810151602083015260408101516040830152606081015160608301526000608082015160c0608085015261391060c08501826136e8565b905060a083015161392460a08601826135ee565b509392505050565b6000602080830181845280855180835260408601915060408160051b870101925083870160005b8281101561398157603f1988860301845261396f8583516138cb565b94509285019290850190600101613953565b5092979650505050505050565b6000806000604084860312156139a357600080fd5b8335925060208401356001600160401b038111156139c057600080fd5b6139cc86828701613524565b9497909650939450505050565b634e487b7160e01b600052604160045260246000fd5b60405160c081016001600160401b0381118282101715613a1157613a116139d9565b60405290565b604051601f8201601f191681016001600160401b0381118282101715613a3f57613a3f6139d9565b604052919050565b60006001600160401b03821115613a6057613a606139d9565b50601f01601f191660200190565b60008060408385031215613a8157600080fd5b8235915060208301356001600160401b03811115613a9e57600080fd5b8301601f81018513613aaf57600080fd5b8035613ac2613abd82613a47565b613a17565b818152866020838501011115613ad757600080fd5b816020840160208301376000602083830101528093505050509250929050565b60006001600160401b03821115613b1057613b106139d9565b5060051b60200190565b60008060408385031215613b2d57600080fd5b823591506020808401356001600160401b03811115613b4b57600080fd5b8401601f81018613613b5c57600080fd5b8035613b6a613abd82613af7565b81815260059190911b82018301908381019088831115613b8957600080fd5b928401925b82841015613ba757833582529284019290840190613b8e565b80955050505050509250929050565b600080600080600060a08688031215613bce57600080fd5b8535613bd98161350f565b94506020860135613be98161350f565b93506040860135613bf98161350f565b92506060860135915060808601356001600160401b03811115613c1b57600080fd5b613c2788828901613434565b9150509295509295909350565b60008083601f840112613c4657600080fd5b5081356001600160401b03811115613c5d57600080fd5b60208301915083602082850101111561356857600080fd5b60008060008060008060008060a0898b031215613c9157600080fd5b8835613c9c8161350f565b97506020890135613cac8161350f565b965060408901356001600160401b0380821115613cc857600080fd5b613cd48c838d01613524565b909850965060608b0135915080821115613ced57600080fd5b613cf98c838d01613524565b909650945060808b0135915080821115613d1257600080fd5b50613d1f8b828c01613c34565b999c989b5096995094979396929594505050565b6000602080830181845280855180835260408601915060408160051b870101925083870160005b8281101561398157603f19888603018452613d76858351613664565b94509285019290850190600101613d5a565b600481106135fe576135fe6135d8565b600081518084526020808501808196508360051b8101915082860160005b85811015613e1c578284038952815160a08151865286820151613ddb88880182613d88565b506040828101519087015260608083015190870152608091820151918601819052613e0881870183613664565b9a87019a9550505090840190600101613db6565b5091979650505050505050565b60208152600060018060a01b03808451166020840152806020850151166040840152506040830151613e5e6060840182613488565b5060608301516080830152608083015160e060a0840152613e83610100840182613664565b905060a0840151601f19808584030160c0860152613ea18383613d98565b925060c08601519150808584030160e086015250613ebf828261376f565b95945050505050565b60008060408385031215613edb57600080fd5b50508035926020909101359150565b60008060008060008060a08789031215613f0357600080fd5b8635613f0e8161350f565b95506020870135613f1e8161350f565b9450604087013593506060870135925060808701356001600160401b03811115613f4757600080fd5b613f5389828a01613c34565b979a9699509497509295939492505050565b60208152600061342d60208301846138cb565b6000808335601e19843603018112613f8f57600080fd5b83016020810192503590506001600160401b03811115613fae57600080fd5b80360383131561356857600080fd5b81835281816020850137506000828201602090810191909152601f909101601f19169091010190565b6000808335601e19843603018112613ffd57600080fd5b83016020810192503590506001600160401b0381111561401c57600080fd5b8060051b360383131561356857600080fd5b60048110610fdf57600080fd5b81835260006020808501808196508560051b81019150846000805b888110156140e4578385038a528235609e19893603018112614076578283fd5b88018035865260a08782013561408b8161402e565b61409789890182613d88565b50604082810135908801526060808301359088015260806140ba81840184613f78565b935082828a01526140ce838a018583613fbd565b9d8a019d98505050938701935050600101614056565b509298975050505050505050565b6000823560de1983360301811261410857600080fd5b90910192915050565b81835260006001600160fb1b0383111561412a57600080fd5b8260051b8083602087013760009401602001938452509192915050565b6000808335601e1984360301811261415e57600080fd5b83016020810192503590506001600160401b0381111561417d57600080fd5b60608102360383131561356857600080fd5b60ff81168114610fdf57600080fd5b8183526000602080850194508260005b858110156137185781358752828201356141c78161418f565b60ff90811688850152604090838201356141e08161418f565b169088015260609687019691909101906001016141ae565b600081356142058161350f565b6001600160a01b0316835260208281013581850152604080840135818601526060808501359086015261423b6080850185613fe6565b60e0608088015261425060e088018284614111565b91505061426060a0860186613fe6565b87830360a0890152808352848301600582901b84018601836000805b858110156142db57878403601f19018552823536889003603e190181126142a1578283fd5b8701803585526142b38b820182613fe6565b91508a8c8701526142c78b87018383614111565b968c0196955050509189019160010161427c565b5050506142eb60c08a018a614147565b9750955089810360c08b015261430281888861419e565b9a9950505050505050505050565b6001600160a01b0385811682526080602083015260009085356143328161350f565b166080830152614344602086016136a3565b61435160a0840182613488565b5061435e604086016136a3565b61436b60c0840182613488565b50606085013560e08301526143836080860186613f78565b60e061010085015261439a61016085018284613fbd565b9150506143aa60a0870187613fe6565b607f1980868503016101208701526143c384838561403b565b93506143d260c08a018a6140f2565b9250808685030161014087015250506143eb82826141f8565b60408501969096525050506060015292915050565b60006020828403121561441257600080fd5b815161342d8161350f565b634e487b7160e01b600052603260045260246000fd5b602080825260159082015274151a5b595b1bd8dac81cdd1a5b1b081b1bd8dad959605a1b604082015260600190565b6001600160a01b03929092168252602082015260400190565b6020808252600b908201526a27b7363c9025b2b2b832b960a91b604082015260600190565b60018060a01b03861681528460208201528360408201526080606082015260006144ce608083018486614111565b979650505050505050565b634e487b7160e01b600052601160045260246000fd5b600082821015614501576145016144d9565b500390565b600181811c9082168061451a57607f821691505b60208210810361344657634e487b7160e01b600052602260045260246000fd5b60006020828403121561454c57600080fd5b8151801515811461342d57600080fd5b6000815480845260208085019450836000528060002060005b8381101561371857815487529582019560019182019101614575565b600081548084526020808501808196508360051b810191506000868152838120815b868110156140e4578385038a52815485526040868601819052600180840180549288018390528552878520606088019290919086905b808210156146065783548552938a019392820192908201906145e9565b5050509a87019a509450600291909101906001016145b3565b6000815480845260208085019450836000528060002060005b83811015613718578154875260018083015460ff808216868b015260089190911c16604089015260609097019660029092019101614638565b600060018060a01b038087168352608060208401526146966080840182885416613488565b50600185015460a0830152600285015460c0830152600385015460e083015260e06101008301526146ce61016083016004870161455c565b607f1980848303016101208501526146e98260058901614591565b9150808483030161014085015250614704816006880161461f565b9150506147146040830185613488565b82606083015295945050505050565b805160068110610ad357600080fd5b6000602080838503121561474557600080fd5b82516001600160401b038082111561475c57600080fd5b9084019060c0828703121561477057600080fd5b6147786139ef565b82516147838161350f565b80825250838301518482015260408301516040820152606083015160608201526080830151828111156147b557600080fd5b83019150601f820187136147c857600080fd5b81516147d6613abd82613af7565b81815260059190911b830185019085810190898311156147f557600080fd5b938601935b82851015614813578451825293860193908601906147fa565b608084015250614827905060a08401614723565b60a08201529695505050505050565b6020808252600f908201526e27b7363c9030b93134ba3930ba37b960891b604082015260600190565b602080825260189082015277139bdd08105c989a5d1c985d1a5bdb94995c5d595cdd195960421b604082015260600190565b6000600182016148a3576148a36144d9565b5060010190565b60208082526026908201527f7061796f7574732e6c656e677468206d757374206d61746368206f7574636f6d60408201526565536c6f747360d01b606082015260800190565b838152604060208201526000613ebf604083018486614111565b6001600160a01b038416815260208082018490526060604083018190528351908301819052600091848101916080850190845b818110156149595784518352938301939183019160010161493d565b509098975050505050505050565b60006020828403121561497957600080fd5b813561342d8161350f565b80546001600160a01b0319166001600160a01b0392909216919091179055565b6000808335601e198436030181126149bb57600080fd5b8301803591506001600160401b038211156149d557600080fd5b60200191503681900382131561356857600080fd5b5b818110156128f557600081556001016149eb565b601f8211156118a657806000526020600020601f840160051c81016020851015614a265750805b610908601f850160051c8301826149ea565b6001600160401b03831115614a4f57614a4f6139d9565b614a6383614a5d8354614506565b836149ff565b6000601f841160018114614a975760008515614a7f5750838201355b600019600387901b1c1916600186901b178355610908565b600083815260209020601f19861690835b82811015614ac85786850135825560209485019460019092019101614aa8565b5086821015614ae55760001960f88860031b161c19848701351681555b505060018560011b0183555050505050565b6000808335601e19843603018112614b0e57600080fd5b8301803591506001600160401b03821115614b2857600080fd5b6020019150600581901b360382131561356857600080fd5b60008235609e19833603018112614b5657600080fd5b9190910192915050565b6000816000190483118215151615614b7a57614b7a6144d9565b500290565b81358155600181016020830135614b958161402e565b60048110614ba557614ba56135d8565b60ff1982541660ff8216811783555050506040820135600282015560608201356003820155614bd760808301836149a4565b61365e818360048601614a38565b6000823560de19833603018112614b5657600080fd5b60008235603e19833603018112614b5657600080fd5b8054600080835581156118a657828152602081208281015b8082101561090857828255600182019150614c29565b8135815560018082016020614c5681860186614af7565b600160401b811115614c6a57614c6a6139d9565b835481855580821015614c9e5760008581528481208381019083015b80821015614c9a5782825590880190614c86565b5050505b506000938452828420935b81811015614cc4578235855593850193918301918501614ca9565b5050505050505050565b600160401b831115614ce257614ce26139d9565b805483825580841015614d5a576001600160ff1b036001818311811615614d0b57614d0b6144d9565b818611811615614d1d57614d1d6144d9565b60008481526020812090925086821b81019084831b015b80821015614d5557838255614d4a838301614c11565b600282019150614d34565b505050505b5060008181526020812083915b85811015611b2457614d82614d7c8487614bfb565b83614c3f565b6020929092019160029190910190600101614d67565b6000808335601e19843603018112614daf57600080fd5b8301803591506001600160401b03821115614dc957600080fd5b602001915060608102360382131561356857600080fd5b81358155600181016020830135614df68161418f565b81546040850135614e068161418f565b61ff008160081b1660ff841661ffff19841617178455505050505050565b600160401b831115614e3857614e386139d9565b805483825580841015614eaa576001600160ff1b036001818311811615614e6157614e616144d9565b818611811615614e7357614e736144d9565b60008481526020812090925086821b81019084831b015b80821015614ea5578382558383830155600282019150614e8a565b505050505b5060008181526020812083915b85811015611b2457614ec98383614de0565b6060929092019160029190910190600101614eb7565b8135614eea8161350f565b614ef48183614984565b50600160208084013582840155604084013560028401556060840135600384015560048301614f266080860186614af7565b600160401b811115614f3a57614f3a6139d9565b825481845580821015614f5f578360005284600020614f5d8282018483016149ea565b505b506000928352838320925b81811015614f85578235845592850192918401918501614f6a565b505050505050614f9860a0830183614af7565b614fa6818360058601614cce565b5050614fb560c0830183614d98565b61365e818360068601614e24565b8135614fce8161350f565b614fd88183614984565b5060016020830135614fe98161350f565b614ff581838501614984565b5060408301356150048161350f565b6150118160028501614984565b506060830135600383015561502960808401846149a4565b615037818360048701614a38565b5050600580830161504b60a0860186614af7565b600160401b81111561505f5761505f6139d9565b825481845580821015615147577f333333333333333333333333333333333333333333333333333333333333333380821187161561509f5761509f6144d9565b8083118716156150b1576150b16144d9565b50600084815260208120838702810190878402015b80821015615143578282558289830155826002830155826003830155600482016150f08154614506565b801561513857601f8082116001811461510b57868455615135565b6000848152602090206151268385018e1c82018f83016149ea565b50600084815260208120818655555b50505b5050908701906150c6565b5050505b506000928352602083209282905b828110156151825761517061516a8386614b40565b86614b7f565b93850193602091909101908601615155565b505050505050506128f561519960c0840184614be5565b60068301614edf565b6000604082016040835280855480835260608501915060608160051b8601019250600087815260208120815b838110156152a657878603605f1901855281548652600182015460ff166151f86020880182613d88565b5060028201546040870152600382015460608701526004820160a0608088015283815461522481614506565b8060a08b01526001821660008114615243576001811461525857615289565b60ff19831660c08c015260e08b019350615289565b84885260208820885b838110156152805781548d820160c00152600190910190602001615261565b8c0160c0019450505b5091985050506020959095019450600591909101906001016151ce565b50505050506020929092019290925292915050565b6000602082840312156152cd57600080fd5b5051919050565b60609290921b6001600160601b0319168252601482015260340190565b60208082526015908201527436b9b39739b2b73232b9103737ba1039b7b63b32b960591b604082015260600190565b60006020828403121561533257600080fd5b81516001600160401b0381111561534857600080fd5b8201601f8101841361535957600080fd5b8051615367613abd82613a47565b81815285602083850101111561537c57600080fd5b613ebf826020830160208601613634565b60008161539c5761539c6144d9565b506000190190565b600082198211156153b7576153b76144d9565b500190565b6020808252602e908201527f496e697469616c697a61626c653a20636f6e747261637420697320616c72656160408201526d191e481a5b9a5d1a585b1a5e995960921b60608201526080019056fe71bd81ebe1d98a2944767394e76a9aff18724b2cf04e1db71254f804544b35c7a2646970667358221220082e13b2788727f577962c2b7f8dbd6e33dff79e6c09d3d14f2e55eff8a908b264736f6c634300080d0033",
  "deployedBytecode": "0x608060405234801561001057600080fd5b50600436106101cd5760003560e01c806301ffc9a7146101d25780630944e26e146101fa578063098b37f71461021a5780630d06101a1461023a5780630d7e149f1461024f5780630d8d397514610270578063187825591461028357806326c50007146102965780633837b05e146102ba5780633f4fb5aa146102cd57806344c3b607146102ed57806348cbb2fc146103005780634a77234e146103095780634dab5e691461031c5780634e46f2231461032f578063506da0b81461034257806354f6127f1461035557806355dd978b146103685780635c622a0e1461037b5780636cc6cde11461039b57806379502c55146103ac5780637c123627146103c657806380b204b7146103db57806380c2dde2146103ee5780638602ce1b1461040157806387dfee57146104145780638bc3a08f14610427578063999925061461043a578063aced166114610442578063b992db0f14610453578063bc197c8114610466578063c08d6f01146104a1578063c3f909d4146104c1578063c98c05b7146104d6578063de3a23c5146104de578063df33cc51146104f1578063ea8221a914610504578063f23a6e611461050d578063f24fc90314610520575b600080fd5b6101e56101e0366004613403565b610540565b60405190151581526020015b60405180910390f35b61020d61020836600461344c565b610577565b6040516101f19190613495565b61022d6102283660046134a9565b6106cb565b6040516101f191906134c2565b61024d6102483660046134a9565b610737565b005b61026261025d3660046134a9565b610794565b6040519081526020016101f1565b61024d61027e3660046134a9565b6107b5565b61024d61029136600461356f565b61090f565b6102a96102a43660046134a9565b6109a9565b6040516101f1959493929190613602565b61020d6102c83660046134a9565b6109f7565b6102e06102db3660046134a9565b610ad8565b6040516101f19190613690565b6101e56102fb3660046134a9565b610bea565b61026260155481565b61024d6103173660046134a9565b610c6f565b61024d61032a3660046134a9565b610fe2565b61024d61033d3660046134a9565b61115e565b6101e56103503660046136ae565b61120f565b6102e06103633660046134a9565b611354565b60125461020d906001600160a01b031681565b61038e6103893660046134a9565b611374565b6040516101f191906136da565b6005546001600160a01b031661020d565b6103b46113a6565b6040516101f196959493929190613871565b6103ce611631565b6040516101f1919061392c565b61024d6103e936600461398e565b611744565b60115461020d906001600160a01b031681565b61024d61040f366004613a6e565b6118ab565b61024d610422366004613b1a565b6119aa565b61024d610435366004613bb6565b611b2c565b6101e5611cd7565b6004546001600160a01b031661020d565b61024d6104613660046134a9565b611d5c565b610488610474366004613c75565b63bc197c8160e01b98975050505050505050565b6040516001600160e01b031990911681526020016101f1565b6104b46104af3660046134a9565b611f70565b6040516101f19190613d33565b6104c9612055565b6040516101f19190613e29565b610262612452565b61024d6104ec3660046134a9565b6124c4565b61024d6104ff366004613ec8565b6127fb565b61026260135481565b61048861051b366004613eea565b6128f9565b61053361052e3660046134a9565b61290c565b6040516101f19190613f65565b60006001600160e01b03198216630271189760e51b148061057157506301ffc9a760e01b6001600160e01b03198316145b92915050565b6004546000906001600160a01b031633146105c75760405162461bcd60e51b815260206004820152600b60248201526a27b7363c9035b2b2b832b960a91b60448201526064015b60405180910390fd5b6012546001600160a01b0316156106135760405162461bcd60e51b815260206004820152601060248201526f14dbdb1d995c881a185cc818da1a5b1960821b60448201526064016105be565b6000546013546015546040516386a2d22760e01b815273__$94d7d2f22770e4b0d1a2b99fb2812308e2$__936386a2d2279361066593620100009092046001600160a01b031692889290600401614310565b602060405180830381865af4158015610682573d6000803e3d6000fd5b505050506040513d601f19601f820116820180604052508101906106a69190614400565b601280546001600160a01b0319166001600160a01b0392909216918217905592915050565b60008181526018602090815260409182902080548351818402810184019094528084526060939283018282801561072b57602002820191906000526020600020905b81546001600160a01b0316815260019091019060200180831161070d575b50505050509050919050565b601554156107785760405162461bcd60e51b815260206004820152600e60248201526d151c9858dada5b99d259081cd95d60921b60448201526064016105be565b6002546001600160a01b0316331461078f57600080fd5b601555565b601481815481106107a457600080fd5b600091825260209091200154905081565b601481815481106107c8576107c861441d565b906000526020600020015442116107f15760405162461bcd60e51b81526004016105be90614433565b6002601082815481106108065761080661441d565b60009182526020909120600560069092020181015460ff169081111561082e5761082e6135d8565b146108725760405162461bcd60e51b815260206004820152601460248201527313dd5d18dbdb59481b9bdd081c1c9bdc1bdcd95960621b60448201526064016105be565b6001546010805473__$94d7d2f22770e4b0d1a2b99fb2812308e2$__926385c92867926001600160a01b0390911691859081106108b1576108b161441d565b90600052602060002090600602016040518363ffffffff1660e01b81526004016108dc929190614462565b60006040518083038186803b1580156108f457600080fd5b505af4158015610908573d6000803e3d6000fd5b5050505050565b6004546001600160a01b031633146109395760405162461bcd60e51b81526004016105be9061447b565b600154604051626dc0df60e21b81526001600160a01b03909116906301b7037c9061097090889088908890889088906004016144a0565b600060405180830381600087803b15801561098a57600080fd5b505af115801561099e573d6000803e3d6000fd5b505050505050505050565b601081815481106109b957600080fd5b6000918252602090912060069091020180546001820154600283015460038401546005909401546001600160a01b0390931694509092909160ff1685565b60006013548203610a09575030919050565b601354821015610a8057601154604051631c1bd82f60e11b8152600481018490526001600160a01b0390911690633837b05e90602401602060405180830381865afa158015610a5c573d6000803e3d6000fd5b505050506040513d601f19601f820116820180604052508101906105719190614400565b601354821115610ad357601254604051631c1bd82f60e11b8152600481018490526001600160a01b0390911690633837b05e90602401602060405180830381865afa158015610a5c573d6000803e3d6000fd5b919050565b6010546000828152601a602052604090205460609114610b2e5760405162461bcd60e51b815260206004820152601160248201527029b637ba1034b73b30b634b2103b32b91760791b60448201526064016105be565b6000828152601a602052604090208054610b4a906001906144ef565b81548110610b5a57610b5a61441d565b906000526020600020018054610b6f90614506565b80601f0160208091040260200160405190810160405280929190818152602001828054610b9b90614506565b801561072b5780601f10610bbd5761010080835404028352916020019161072b565b820191906000526020600020905b815481529060010190602001808311610bcb5750939695505050505050565b6040516336d39c6160e11b815260048101829052601a60248201526009604482015260009073__$94d7d2f22770e4b0d1a2b99fb2812308e2$__90636da738c290606401602060405180830381865af4158015610c4b573d6000803e3d6000fd5b505050506040513d601f19601f82011682018060405250810190610571919061453a565b60105415610cdb576004546001600160a01b0316331480610c9a57506011546001600160a01b031633145b610cdb5760405162461bcd60e51b815260206004820152601260248201527113db9b1e481ad9595c195c8bdc185c995b9d60721b60448201526064016105be565b6010548114610d275760405162461bcd60e51b8152602060048201526018602482015277496e76616c696420696e64657820746f207072657061726560401b60448201526064016105be565b60175415610d775760405162461bcd60e51b815260206004820181905260248201527f46756c66696c6c206f7574676f696e672063616c6c6261636b7320666972737460448201526064016105be565b60165415610dc75760405162461bcd60e51b815260206004820181905260248201527f46756c66696c6c20696e636f6d696e672063616c6c6261636b7320666972737460448201526064016105be565b6001546011546010805460405163699e0add60e01b8152919373__$94d7d2f22770e4b0d1a2b99fb2812308e2$__9363699e0add93610e19936001600160a01b03938416936009931691600401614671565b600060405180830381865af4158015610e36573d6000803e3d6000fd5b505050506040513d6000823e601f3d908101601f19168201604052610e5e9190810190614732565b8154600180820184556000938452602093849020835160069093020180546001600160a01b0319166001600160a01b03909316929092178255828401519082015560408201516002820155606082015160038201556080820151805192939192610ece926004850192019061328f565b5060a08201518160050160006101000a81548160ff02191690836005811115610ef957610ef96135d8565b0217905550506014805460018101825560009182527fce6d7b5282bd9a3661ae061feed1dbda4e52ab073b1f9285be6e155d9c38d4ec015550610f3a612a38565b7f152ec8ae15d347b2d2a8f0858caa29bcaaa0906749a1f43e08bfe799834602403082604051610f6b929190614462565b60405180910390a16012546001600160a01b031615610fdf5760125460405163253b91a760e11b8152600481018390526001600160a01b0390911690634a77234e906024015b600060405180830381600087803b158015610fcb57600080fd5b505af1158015610908573d6000803e3d6000fd5b50565b6005546001600160a01b0316331461100c5760405162461bcd60e51b81526004016105be90614836565b6002601082815481106110215761102161441d565b60009182526020909120600560069092020181015460ff1690811115611049576110496135d8565b148061108f57506003601082815481106110655761106561441d565b60009182526020909120600560069092020181015460ff169081111561108d5761108d6135d8565b145b6110cc5760405162461bcd60e51b815260206004820152600e60248201526d10d85b9b9bdd081c995c5d595cdd60921b60448201526064016105be565b73__$94d7d2f22770e4b0d1a2b99fb2812308e2$__6324b28602601083815481106110f9576110f961441d565b90600052602060002090600602016040518263ffffffff1660e01b815260040161112591815260200190565b60006040518083038186803b15801561113d57600080fd5b505af4158015611151573d6000803e3d6000fd5b50505050610fdf81612cb6565b6005546001600160a01b031633146111885760405162461bcd60e51b81526004016105be90614836565b60036010828154811061119d5761119d61441d565b60009182526020909120600560069092020181015460ff16908111156111c5576111c56135d8565b146111e25760405162461bcd60e51b81526004016105be9061485f565b73__$94d7d2f22770e4b0d1a2b99fb2812308e2$__6359111fb5601083815481106110f9576110f961441d565b6000805b600e5481101561134a57600e8054600091601a918391908590811061123a5761123a61441d565b9060005260206000209060020201600001548152602001908152602001600020848154811061126b5761126b61441d565b90600052602060002001805461128090614506565b80601f01602080910402602001604051908101604052809291908181526020018280546112ac90614506565b80156112f95780601f106112ce576101008083540402835291602001916112f9565b820191906000526020600020905b8154815290600101906020018083116112dc57829003601f168201915b50505050508060200190518101906113119190614400565b9050806001600160a01b0316856001600160a01b03160361133757600192505050610571565b508061134281614891565b915050611213565b5060009392505050565b6000818152601a60205260409020805460609190610b4a906001906144ef565b6000601082815481106113895761138961441d565b600091825260209091206005600690920201015460ff1692915050565b60038054600454600554600654600780546001600160a01b0395861696948616959093169391926113d690614506565b80601f016020809104026020016040519081016040528092919081815260200182805461140290614506565b801561144f5780601f106114245761010080835404028352916020019161144f565b820191906000526020600020905b81548152906001019060200180831161143257829003601f168201915b50506040805160e0810182526006870180546001600160a01b03168252600788015460208084019190915260088901548385015260098901546060840152600a890180548551818402810184019096528086529899989397509195506080870194509091908301828280156114e357602002820191906000526020600020905b8154815260200190600101908083116114cf575b5050505050815260200160058201805480602002602001604051908101604052809291908181526020016000905b828210156115a55783829060005260206000209060020201604051806040016040529081600082015481526020016001820180548060200260200160405190810160405280929190818152602001828054801561158d57602002820191906000526020600020905b815481526020019060010190808311611579575b50505050508152505081526020019060010190611511565b50505050815260200160068201805480602002602001604051908101604052809291908181526020016000905b8282101561162457600084815260209081902060408051606081018252600286029092018054835260019081015460ff80821685870152610100909104169183019190915290835290920191016115d2565b5050505081525050905086565b60606010805480602002602001604051908101604052809291908181526020016000905b8282101561173b5760008481526020908190206040805160c0810182526006860290920180546001600160a01b0316835260018101548385015260028101548383015260038101546060840152600481018054835181870281018701909452808452939491936080860193928301828280156116f057602002820191906000526020600020905b8154815260200190600101908083116116dc575b505050918352505060058281015460209092019160ff1690811115611717576117176135d8565b6005811115611728576117286135d8565b8152505081526020019060010190611655565b50505050905090565b6004546001600160a01b0316331461176e5760405162461bcd60e51b81526004016105be9061447b565b600a54811461178f5760405162461bcd60e51b81526004016105be906148aa565b6001601084815481106117a4576117a461441d565b60009182526020909120600560069092020181015460ff16908111156117cc576117cc6135d8565b146118125760405162461bcd60e51b815260206004820152601660248201527510dbdb991a5d1a5bdb881b9bdd08115e1958dd5d195960521b60448201526064016105be565b73__$94d7d2f22770e4b0d1a2b99fb2812308e2$__636a0a24f16010858154811061183f5761183f61441d565b906000526020600020906006020184846040518463ffffffff1660e01b815260040161186d939291906148f0565b60006040518083038186803b15801561188557600080fd5b505af4158015611899573d6000803e3d6000fd5b505050506118a683612cb6565b505050565b6004546001600160a01b031633146118f25760405162461bcd60e51b815260206004820152600a60248201526927b7363ca5b2b2b832b960b11b60448201526064016105be565b6000828152601b6020526040902054600880546003929081106119175761191761441d565b600091825260209091206001600590920201015460ff16600381111561193f5761193f6135d8565b146119855760405162461bcd60e51b81526020600482015260166024820152751bdb9b1e48125b99d95cdd151e5c194b93585b9d585b60521b60448201526064016105be565b61198f8282612cf0565b60405160008051602061540b83398151915290600090a15050565b6005546001600160a01b031633146119d45760405162461bcd60e51b81526004016105be90614836565b6003601083815481106119e9576119e961441d565b60009182526020909120600560069092020181015460ff1690811115611a1157611a116135d8565b14611a2e5760405162461bcd60e51b81526004016105be9061485f565b60148281548110611a4157611a4161441d565b90600052602060002001544211611a6a5760405162461bcd60e51b81526004016105be90614433565b600a54815114611a8c5760405162461bcd60e51b81526004016105be906148aa565b6001546010805473__$94d7d2f22770e4b0d1a2b99fb2812308e2$__92631b948e49926001600160a01b039091169186908110611acb57611acb61441d565b9060005260206000209060060201846040518463ffffffff1660e01b8152600401611af89392919061490a565b60006040518083038186803b158015611b1057600080fd5b505af4158015611b24573d6000803e3d6000fd5b505050505050565b6000611b386001612d8e565b90508015611b50576000805461ff0019166101001790555b6000611b626040840160208501614967565b6001600160a01b031603611ba95760405162461bcd60e51b815260206004820152600e60248201526d12d9595c195c881a5b9d985b1a5960921b60448201526064016105be565b600280546001600160a01b03199081166001600160a01b03898116919091179092556000805462010000600160b01b031916336201000002179055600180548216888416179055601180549091169186169190911790556013839055816003611c128282614fc3565b90505060005b611c2560a0840184614af7565b9050811015611c895780601b6000611c4060a0870187614af7565b85818110611c5057611c5061441d565b9050602002810190611c629190614b40565b60409081013582526020820192909252016000205580611c8181614891565b915050611c18565b508015611b24576000805461ff0019169055604051600181527f7f26b83ff96e1f2b6a682f133852f6798a09c465da95921460cefb38474024989060200160405180910390a1505050505050565b601054604051635cc1f6b560e01b815260009173__$94d7d2f22770e4b0d1a2b99fb2812308e2$__91635cc1f6b591611d1691600891906004016151a2565b602060405180830381865af4158015611d33573d6000803e3d6000fd5b505050506040513d601f19601f82011682018060405250810190611d57919061453a565b905090565b611d64611cd7565b1515600114611da75760405162461bcd60e51b815260206004820152600f60248201526e1a5b99d95cdd1cc81a5b9d985b1a59608a1b60448201526064016105be565b73__$94d7d2f22770e4b0d1a2b99fb2812308e2$__632dd4082482600160009054906101000a90046001600160a01b031660108581548110611deb57611deb61441d565b60009182526020808320601554601154600c548652601a938490526040909520805460069095029092019460099491926001600160a01b03909116918b908110611e3757611e3761441d565b906000526020600020018054611e4c90614506565b80601f0160208091040260200160405190810160405280929190818152602001828054611e7890614506565b8015611ec55780601f10611e9a57610100808354040283529160200191611ec5565b820191906000526020600020905b815481529060010190602001808311611ea857829003601f168201915b5050505050806020019051810190611edd91906152bb565b60405160e08a901b6001600160e01b031916815260048101989098526001600160a01b03968716602489015260448801959095526064870193909352608486019190915260a485015290911660c483015260e48201526101040160006040518083038186803b158015611f4f57600080fd5b505af4158015611f63573d6000803e3d6000fd5b50505050610fdf81612e1d565b6000818152601a60209081526040808320805482518185028101850190935280835260609492939192909184015b8282101561204a578382906000526020600020018054611fbd90614506565b80601f0160208091040260200160405190810160405280929190818152602001828054611fe990614506565b80156120365780601f1061200b57610100808354040283529160200191612036565b820191906000526020600020905b81548152906001019060200180831161201957829003601f168201915b505050505081526020019060010190611f9e565b505050509050919050565b61205d6132da565b6040805160e081018252600380546001600160a01b0390811683526004548116602084015260055416928201929092526006546060820152600780549192916080840191906120ab90614506565b80601f01602080910402602001604051908101604052809291908181526020018280546120d790614506565b80156121245780601f106120f957610100808354040283529160200191612124565b820191906000526020600020905b81548152906001019060200180831161210757829003601f168201915b5050505050815260200160058201805480602002602001604051908101604052809291908181526020016000905b8282101561226d57838290600052602060002090600502016040518060a0016040529081600082015481526020016001820160009054906101000a900460ff1660038111156121a3576121a36135d8565b60038111156121b4576121b46135d8565b815260200160028201548152602001600382015481526020016004820180546121dc90614506565b80601f016020809104026020016040519081016040528092919081815260200182805461220890614506565b80156122555780601f1061222a57610100808354040283529160200191612255565b820191906000526020600020905b81548152906001019060200180831161223857829003601f168201915b50505050508152505081526020019060010190612152565b505050908252506040805160e0810182526006840180546001600160a01b03168252600785015460208381019190915260088601548385015260098601546060840152600a86018054855181840281018401909652808652958201959394929360808601939283018282801561230257602002820191906000526020600020905b8154815260200190600101908083116122ee575b5050505050815260200160058201805480602002602001604051908101604052809291908181526020016000905b828210156123c4578382906000526020600020906002020160405180604001604052908160008201548152602001600182018054806020026020016040519081016040528092919081815260200182805480156123ac57602002820191906000526020600020905b815481526020019060010190808311612398575b50505050508152505081526020019060010190612330565b50505050815260200160068201805480602002602001604051908101604052809291908181526020016000905b8282101561244357600084815260209081902060408051606081018252600286029092018054835260019081015460ff80821685870152610100909104169183019190915290835290920191016123f1565b50505091525050905250919050565b6009546040516370a0823160e01b81526000916001600160a01b0316906370a0823190612483903090600401613495565b602060405180830381865afa1580156124a0573d6000803e3d6000fd5b505050506040513d601f19601f82011682018060405250810190611d5791906152bb565b600033826040516020016124d99291906152d4565b60408051601f198184030181529181528151602092830120600081815260199093529120546008805492935061253192909190811061251a5761251a61441d565b9060005260206000209060050201600301546109f7565b6001600160a01b0316336001600160a01b0316146125615760405162461bcd60e51b81526004016105be906152f1565b6000818152601960205260408120546008805490919081106125855761258561441d565b600091825260209091206001600590920201015460ff1660038111156125ad576125ad6135d8565b146125f05760405162461bcd60e51b8152602060048201526013602482015272496e67657374206e6f742043616c6c6261636b60681b60448201526064016105be565b6000818152601960205260409020546008805490919081106126145761261461441d565b60009182526020822060059091020180549161262f83614891565b9091555050600081815260196020526040902054600880546127bc9290811061265a5761265a61441d565b906000526020600020906005020160020154336001600160a01b0316633f4fb5aa60036005016016600301600087815260200190815260200160002054815481106126a7576126a761441d565b906000526020600020906005020160040180546126c390614506565b80601f01602080910402602001604051908101604052809291908181526020018280546126ef90614506565b801561273c5780601f106127115761010080835404028352916020019161273c565b820191906000526020600020905b81548152906001019060200180831161271f57829003601f168201915b505050505080602001905181019061275491906152bb565b6040518263ffffffff1660e01b815260040161277291815260200190565b600060405180830381865afa15801561278f573d6000803e3d6000fd5b505050506040513d6000823e601f3d908101601f191682016040526127b79190810190615320565b612cf0565b600081815260196020526040812081905560168054916127db8361538d565b909155505060405160008051602061540b83398151915290600090a15050565b612804816109f7565b6001600160a01b0316336001600160a01b0316146128345760405162461bcd60e51b81526004016105be906152f1565b6000828152601a60205260409020541580159061286057506010546000838152601a6020526040902054145b156128b25760405163de3a23c560e01b815260048101839052339063de3a23c590602401600060405180830381600087803b15801561289e57600080fd5b505af1158015611b24573d6000803e3d6000fd5b6000828152601860209081526040822080546001810182559083529082200180546001600160a01b0319163317905560178054916128ef83614891565b91905055505b5050565b63f23a6e6160e01b5b9695505050505050565b6129416040805160c081018252600080825260208201819052918101829052606080820183905260808201529060a082015290565b601082815481106129545761295461441d565b60009182526020918290206040805160c081018252600690930290910180546001600160a01b0316835260018101548385015260028101548383015260038101546060840152600481018054835181870281018701909452808452939491936080860193928301828280156129e857602002820191906000526020600020905b8154815260200190600101908083116129d4575b505050918352505060058281015460209092019160ff1690811115612a0f57612a0f6135d8565b6005811115612a2057612a206135d8565b90525092915050565b6001600160a01b03163b151590565b60005b600854811015612c9c5760006008805483908110612a5b57612a5b61441d565b600091825260209091206001600590920201015460ff166003811115612a8357612a836135d8565b14612ab957612ab460036005018281548110612aa157612aa161441d565b9060005260206000209060050201612f53565b612c8a565b6000306001600160a01b0316633837b05e60036005018481548110612ae057612ae061441d565b9060005260206000209060050201600301546040518263ffffffff1660e01b8152600401612b1091815260200190565b602060405180830381865afa158015612b2d573d6000803e3d6000fd5b505050506040513d601f19601f82011682018060405250810190612b519190614400565b9050612b5d818361303f565b806001600160a01b031663df33cc5160036005018481548110612b8257612b8261441d565b90600052602060002090600502016004018054612b9e90614506565b80601f0160208091040260200160405190810160405280929190818152602001828054612bca90614506565b8015612c175780601f10612bec57610100808354040283529160200191612c17565b820191906000526020600020905b815481529060010190602001808311612bfa57829003601f168201915b5050505050806020019051810190612c2f91906152bb565b6013546040516001600160e01b031960e085901b16815260048101929092526024820152604401600060405180830381600087803b158015612c7057600080fd5b505af1158015612c84573d6000803e3d6000fd5b50505050505b80612c9481614891565b915050612a3b565b5060405160008051602061540b83398151915290600090a1565b600654612cc4906001614b60565b612cce90426153a4565b60148281548110612ce157612ce161441d565b60009182526020909120015550565b601054612cff906001906144ef565b6000838152601a602052604090205414612d525760405162461bcd60e51b815260206004820152601460248201527314db1bdd081d995c9cda5bdb881a5b9d985b1a5960621b60448201526064016105be565b6000828152601a6020908152604082208054600181018255908352918190208351612d8493919091019184019061337b565b506128f582613155565b60008054610100900460ff1615612ddc578160ff166001148015612db85750612db630612a29565b155b612dd45760405162461bcd60e51b81526004016105be906153bc565b506000919050565b60005460ff808416911610612e035760405162461bcd60e51b81526004016105be906153bc565b506000805460ff191660ff92909216919091179055600190565b6012546001600160a01b031615801590612ea95750601260009054906101000a90046001600160a01b03166001600160a01b031663999925066040518163ffffffff1660e01b8152600401602060405180830381865afa158015612e85573d6000803e3d6000fd5b505050506040513d601f19601f82011682018060405250810190612ea9919061453a565b8015612f1d57506012546040516344c3b60760e01b8152600481018390526001600160a01b03909116906344c3b60790602401602060405180830381865afa158015612ef9573d6000803e3d6000fd5b505050506040513d601f19601f82011682018060405250810190612f1d919061453a565b15610fdf5760125460405163b992db0f60e01b8152600481018390526001600160a01b039091169063b992db0f90602401610fb1565b600181015460039060ff1681811115612f6e57612f6e6135d8565b1115612fb15760405162461bcd60e51b8152602060048201526012602482015271496e76616c696420696e676573745479706560701b60448201526064016105be565b8054816000612fbf83614891565b9091555060039050600182015460ff166003811115612fe057612fe06135d8565b14610fdf57600281015460405163b3d7370760e01b815260048101839052610fdf919073__$94d7d2f22770e4b0d1a2b99fb2812308e2$__9063b3d7370790602401600060405180830381865af415801561278f573d6000803e3d6000fd5b8060166003016000846003600501858154811061305e5761305e61441d565b9060005260206000209060050201600401805461307a90614506565b80601f01602080910402602001604051908101604052809291908181526020018280546130a690614506565b80156130f35780601f106130c8576101008083540402835291602001916130f3565b820191906000526020600020905b8154815290600101906020018083116130d657829003601f168201915b505050505080602001905181019061310b91906152bb565b60405160200161311c9291906152d4565b60408051601f1981840301815291815281516020928301208352908201929092520160009081209190915560168054916128ef83614891565b60005b6000828152601860205260409020548110156128f557600082815260186020526040812080548390811061318e5761318e61441d565b6000918252602090912001546001600160a01b03161461327d5760008281526018602052604090208054829081106131c8576131c861441d565b60009182526020909120015460405163de3a23c560e01b8152600481018490526001600160a01b039091169063de3a23c590602401600060405180830381600087803b15801561321757600080fd5b505af115801561322b573d6000803e3d6000fd5b50505060008381526018602052604090208054909150829081106132515761325161441d565b6000918252602082200180546001600160a01b031916905560178054916132778361538d565b91905055505b8061328781614891565b915050613158565b8280548282559060005260206000209081019282156132ca579160200282015b828111156132ca5782518255916020019190600101906132af565b506132d69291506133ee565b5090565b6040518060e0016040528060006001600160a01b0316815260200160006001600160a01b0316815260200160006001600160a01b031681526020016000815260200160608152602001606081526020016133766040518060e0016040528060006001600160a01b031681526020016000815260200160008152602001600080191681526020016060815260200160608152602001606081525090565b905290565b82805461338790614506565b90600052602060002090601f0160209004810192826133a957600085556132ca565b82601f106133c257805160ff19168380011785556132ca565b828001600101855582156132ca57918201828111156132ca5782518255916020019190600101906132af565b5b808211156132d657600081556001016133ef565b60006020828403121561341557600080fd5b81356001600160e01b03198116811461342d57600080fd5b9392505050565b600060e0828403121561344657600080fd5b50919050565b60006020828403121561345e57600080fd5b81356001600160401b0381111561347457600080fd5b61348084828501613434565b949350505050565b6001600160a01b03169052565b6001600160a01b0391909116815260200190565b6000602082840312156134bb57600080fd5b5035919050565b6020808252825182820181905260009190848201906040850190845b818110156135035783516001600160a01b0316835292840192918401916001016134de565b50909695505050505050565b6001600160a01b0381168114610fdf57600080fd5b60008083601f84011261353657600080fd5b5081356001600160401b0381111561354d57600080fd5b6020830191508360208260051b850101111561356857600080fd5b9250929050565b60008060008060006080868803121561358757600080fd5b85356135928161350f565b9450602086013593506040860135925060608601356001600160401b038111156135bb57600080fd5b6135c788828901613524565b969995985093965092949392505050565b634e487b7160e01b600052602160045260246000fd5b600681106135fe576135fe6135d8565b9052565b6001600160a01b038616815260208101859052604081018490526060810183905260a0810161290260808301846135ee565b60005b8381101561364f578181015183820152602001613637565b8381111561365e576000848401525b50505050565b6000815180845261367c816020860160208601613634565b601f01601f19169290920160200192915050565b60208152600061342d6020830184613664565b8035610ad38161350f565b600080604083850312156136c157600080fd5b82356136cc8161350f565b946020939093013593505050565b6020810161057182846135ee565b600081518084526020808501945080840160005b83811015613718578151875295820195908201906001016136fc565b509495945050505050565b600081518084526020808501945080840160005b83811015613718578151805188528381015160ff908116858a0152604091820151169088015260609096019590820190600101613737565b60018060a01b0381511682526000602080830151818501526040808401518186015260608085015181870152608085015160e060808801526137b460e08801826136e8565b905060a086015187820360a08901528181518084528684019150868160051b85010187840193506000805b8381101561384757868303601f190185528551805184528a01518a84018a905280518a8501819052908b019083908a8601905b808310156138325783518252928d019260019290920191908d0190613812565b50978c0197968c0196945050506001016137df565b505060c08a015197508a810360c08c01526138628189613723565b9b9a5050505050505050505050565b6001600160a01b0387811682528681166020830152851660408201526060810184905260c0608082018190526000906138ac90830185613664565b82810360a08401526138be818561376f565b9998505050505050505050565b60018060a01b0381511682526020810151602083015260408101516040830152606081015160608301526000608082015160c0608085015261391060c08501826136e8565b905060a083015161392460a08601826135ee565b509392505050565b6000602080830181845280855180835260408601915060408160051b870101925083870160005b8281101561398157603f1988860301845261396f8583516138cb565b94509285019290850190600101613953565b5092979650505050505050565b6000806000604084860312156139a357600080fd5b8335925060208401356001600160401b038111156139c057600080fd5b6139cc86828701613524565b9497909650939450505050565b634e487b7160e01b600052604160045260246000fd5b60405160c081016001600160401b0381118282101715613a1157613a116139d9565b60405290565b604051601f8201601f191681016001600160401b0381118282101715613a3f57613a3f6139d9565b604052919050565b60006001600160401b03821115613a6057613a606139d9565b50601f01601f191660200190565b60008060408385031215613a8157600080fd5b8235915060208301356001600160401b03811115613a9e57600080fd5b8301601f81018513613aaf57600080fd5b8035613ac2613abd82613a47565b613a17565b818152866020838501011115613ad757600080fd5b816020840160208301376000602083830101528093505050509250929050565b60006001600160401b03821115613b1057613b106139d9565b5060051b60200190565b60008060408385031215613b2d57600080fd5b823591506020808401356001600160401b03811115613b4b57600080fd5b8401601f81018613613b5c57600080fd5b8035613b6a613abd82613af7565b81815260059190911b82018301908381019088831115613b8957600080fd5b928401925b82841015613ba757833582529284019290840190613b8e565b80955050505050509250929050565b600080600080600060a08688031215613bce57600080fd5b8535613bd98161350f565b94506020860135613be98161350f565b93506040860135613bf98161350f565b92506060860135915060808601356001600160401b03811115613c1b57600080fd5b613c2788828901613434565b9150509295509295909350565b60008083601f840112613c4657600080fd5b5081356001600160401b03811115613c5d57600080fd5b60208301915083602082850101111561356857600080fd5b60008060008060008060008060a0898b031215613c9157600080fd5b8835613c9c8161350f565b97506020890135613cac8161350f565b965060408901356001600160401b0380821115613cc857600080fd5b613cd48c838d01613524565b909850965060608b0135915080821115613ced57600080fd5b613cf98c838d01613524565b909650945060808b0135915080821115613d1257600080fd5b50613d1f8b828c01613c34565b999c989b5096995094979396929594505050565b6000602080830181845280855180835260408601915060408160051b870101925083870160005b8281101561398157603f19888603018452613d76858351613664565b94509285019290850190600101613d5a565b600481106135fe576135fe6135d8565b600081518084526020808501808196508360051b8101915082860160005b85811015613e1c578284038952815160a08151865286820151613ddb88880182613d88565b506040828101519087015260608083015190870152608091820151918601819052613e0881870183613664565b9a87019a9550505090840190600101613db6565b5091979650505050505050565b60208152600060018060a01b03808451166020840152806020850151166040840152506040830151613e5e6060840182613488565b5060608301516080830152608083015160e060a0840152613e83610100840182613664565b905060a0840151601f19808584030160c0860152613ea18383613d98565b925060c08601519150808584030160e086015250613ebf828261376f565b95945050505050565b60008060408385031215613edb57600080fd5b50508035926020909101359150565b60008060008060008060a08789031215613f0357600080fd5b8635613f0e8161350f565b95506020870135613f1e8161350f565b9450604087013593506060870135925060808701356001600160401b03811115613f4757600080fd5b613f5389828a01613c34565b979a9699509497509295939492505050565b60208152600061342d60208301846138cb565b6000808335601e19843603018112613f8f57600080fd5b83016020810192503590506001600160401b03811115613fae57600080fd5b80360383131561356857600080fd5b81835281816020850137506000828201602090810191909152601f909101601f19169091010190565b6000808335601e19843603018112613ffd57600080fd5b83016020810192503590506001600160401b0381111561401c57600080fd5b8060051b360383131561356857600080fd5b60048110610fdf57600080fd5b81835260006020808501808196508560051b81019150846000805b888110156140e4578385038a528235609e19893603018112614076578283fd5b88018035865260a08782013561408b8161402e565b61409789890182613d88565b50604082810135908801526060808301359088015260806140ba81840184613f78565b935082828a01526140ce838a018583613fbd565b9d8a019d98505050938701935050600101614056565b509298975050505050505050565b6000823560de1983360301811261410857600080fd5b90910192915050565b81835260006001600160fb1b0383111561412a57600080fd5b8260051b8083602087013760009401602001938452509192915050565b6000808335601e1984360301811261415e57600080fd5b83016020810192503590506001600160401b0381111561417d57600080fd5b60608102360383131561356857600080fd5b60ff81168114610fdf57600080fd5b8183526000602080850194508260005b858110156137185781358752828201356141c78161418f565b60ff90811688850152604090838201356141e08161418f565b169088015260609687019691909101906001016141ae565b600081356142058161350f565b6001600160a01b0316835260208281013581850152604080840135818601526060808501359086015261423b6080850185613fe6565b60e0608088015261425060e088018284614111565b91505061426060a0860186613fe6565b87830360a0890152808352848301600582901b84018601836000805b858110156142db57878403601f19018552823536889003603e190181126142a1578283fd5b8701803585526142b38b820182613fe6565b91508a8c8701526142c78b87018383614111565b968c0196955050509189019160010161427c565b5050506142eb60c08a018a614147565b9750955089810360c08b015261430281888861419e565b9a9950505050505050505050565b6001600160a01b0385811682526080602083015260009085356143328161350f565b166080830152614344602086016136a3565b61435160a0840182613488565b5061435e604086016136a3565b61436b60c0840182613488565b50606085013560e08301526143836080860186613f78565b60e061010085015261439a61016085018284613fbd565b9150506143aa60a0870187613fe6565b607f1980868503016101208701526143c384838561403b565b93506143d260c08a018a6140f2565b9250808685030161014087015250506143eb82826141f8565b60408501969096525050506060015292915050565b60006020828403121561441257600080fd5b815161342d8161350f565b634e487b7160e01b600052603260045260246000fd5b602080825260159082015274151a5b595b1bd8dac81cdd1a5b1b081b1bd8dad959605a1b604082015260600190565b6001600160a01b03929092168252602082015260400190565b6020808252600b908201526a27b7363c9025b2b2b832b960a91b604082015260600190565b60018060a01b03861681528460208201528360408201526080606082015260006144ce608083018486614111565b979650505050505050565b634e487b7160e01b600052601160045260246000fd5b600082821015614501576145016144d9565b500390565b600181811c9082168061451a57607f821691505b60208210810361344657634e487b7160e01b600052602260045260246000fd5b60006020828403121561454c57600080fd5b8151801515811461342d57600080fd5b6000815480845260208085019450836000528060002060005b8381101561371857815487529582019560019182019101614575565b600081548084526020808501808196508360051b810191506000868152838120815b868110156140e4578385038a52815485526040868601819052600180840180549288018390528552878520606088019290919086905b808210156146065783548552938a019392820192908201906145e9565b5050509a87019a509450600291909101906001016145b3565b6000815480845260208085019450836000528060002060005b83811015613718578154875260018083015460ff808216868b015260089190911c16604089015260609097019660029092019101614638565b600060018060a01b038087168352608060208401526146966080840182885416613488565b50600185015460a0830152600285015460c0830152600385015460e083015260e06101008301526146ce61016083016004870161455c565b607f1980848303016101208501526146e98260058901614591565b9150808483030161014085015250614704816006880161461f565b9150506147146040830185613488565b82606083015295945050505050565b805160068110610ad357600080fd5b6000602080838503121561474557600080fd5b82516001600160401b038082111561475c57600080fd5b9084019060c0828703121561477057600080fd5b6147786139ef565b82516147838161350f565b80825250838301518482015260408301516040820152606083015160608201526080830151828111156147b557600080fd5b83019150601f820187136147c857600080fd5b81516147d6613abd82613af7565b81815260059190911b830185019085810190898311156147f557600080fd5b938601935b82851015614813578451825293860193908601906147fa565b608084015250614827905060a08401614723565b60a08201529695505050505050565b6020808252600f908201526e27b7363c9030b93134ba3930ba37b960891b604082015260600190565b602080825260189082015277139bdd08105c989a5d1c985d1a5bdb94995c5d595cdd195960421b604082015260600190565b6000600182016148a3576148a36144d9565b5060010190565b60208082526026908201527f7061796f7574732e6c656e677468206d757374206d61746368206f7574636f6d60408201526565536c6f747360d01b606082015260800190565b838152604060208201526000613ebf604083018486614111565b6001600160a01b038416815260208082018490526060604083018190528351908301819052600091848101916080850190845b818110156149595784518352938301939183019160010161493d565b509098975050505050505050565b60006020828403121561497957600080fd5b813561342d8161350f565b80546001600160a01b0319166001600160a01b0392909216919091179055565b6000808335601e198436030181126149bb57600080fd5b8301803591506001600160401b038211156149d557600080fd5b60200191503681900382131561356857600080fd5b5b818110156128f557600081556001016149eb565b601f8211156118a657806000526020600020601f840160051c81016020851015614a265750805b610908601f850160051c8301826149ea565b6001600160401b03831115614a4f57614a4f6139d9565b614a6383614a5d8354614506565b836149ff565b6000601f841160018114614a975760008515614a7f5750838201355b600019600387901b1c1916600186901b178355610908565b600083815260209020601f19861690835b82811015614ac85786850135825560209485019460019092019101614aa8565b5086821015614ae55760001960f88860031b161c19848701351681555b505060018560011b0183555050505050565b6000808335601e19843603018112614b0e57600080fd5b8301803591506001600160401b03821115614b2857600080fd5b6020019150600581901b360382131561356857600080fd5b60008235609e19833603018112614b5657600080fd5b9190910192915050565b6000816000190483118215151615614b7a57614b7a6144d9565b500290565b81358155600181016020830135614b958161402e565b60048110614ba557614ba56135d8565b60ff1982541660ff8216811783555050506040820135600282015560608201356003820155614bd760808301836149a4565b61365e818360048601614a38565b6000823560de19833603018112614b5657600080fd5b60008235603e19833603018112614b5657600080fd5b8054600080835581156118a657828152602081208281015b8082101561090857828255600182019150614c29565b8135815560018082016020614c5681860186614af7565b600160401b811115614c6a57614c6a6139d9565b835481855580821015614c9e5760008581528481208381019083015b80821015614c9a5782825590880190614c86565b5050505b506000938452828420935b81811015614cc4578235855593850193918301918501614ca9565b5050505050505050565b600160401b831115614ce257614ce26139d9565b805483825580841015614d5a576001600160ff1b036001818311811615614d0b57614d0b6144d9565b818611811615614d1d57614d1d6144d9565b60008481526020812090925086821b81019084831b015b80821015614d5557838255614d4a838301614c11565b600282019150614d34565b505050505b5060008181526020812083915b85811015611b2457614d82614d7c8487614bfb565b83614c3f565b6020929092019160029190910190600101614d67565b6000808335601e19843603018112614daf57600080fd5b8301803591506001600160401b03821115614dc957600080fd5b602001915060608102360382131561356857600080fd5b81358155600181016020830135614df68161418f565b81546040850135614e068161418f565b61ff008160081b1660ff841661ffff19841617178455505050505050565b600160401b831115614e3857614e386139d9565b805483825580841015614eaa576001600160ff1b036001818311811615614e6157614e616144d9565b818611811615614e7357614e736144d9565b60008481526020812090925086821b81019084831b015b80821015614ea5578382558383830155600282019150614e8a565b505050505b5060008181526020812083915b85811015611b2457614ec98383614de0565b6060929092019160029190910190600101614eb7565b8135614eea8161350f565b614ef48183614984565b50600160208084013582840155604084013560028401556060840135600384015560048301614f266080860186614af7565b600160401b811115614f3a57614f3a6139d9565b825481845580821015614f5f578360005284600020614f5d8282018483016149ea565b505b506000928352838320925b81811015614f85578235845592850192918401918501614f6a565b505050505050614f9860a0830183614af7565b614fa6818360058601614cce565b5050614fb560c0830183614d98565b61365e818360068601614e24565b8135614fce8161350f565b614fd88183614984565b5060016020830135614fe98161350f565b614ff581838501614984565b5060408301356150048161350f565b6150118160028501614984565b506060830135600383015561502960808401846149a4565b615037818360048701614a38565b5050600580830161504b60a0860186614af7565b600160401b81111561505f5761505f6139d9565b825481845580821015615147577f333333333333333333333333333333333333333333333333333333333333333380821187161561509f5761509f6144d9565b8083118716156150b1576150b16144d9565b50600084815260208120838702810190878402015b80821015615143578282558289830155826002830155826003830155600482016150f08154614506565b801561513857601f8082116001811461510b57868455615135565b6000848152602090206151268385018e1c82018f83016149ea565b50600084815260208120818655555b50505b5050908701906150c6565b5050505b506000928352602083209282905b828110156151825761517061516a8386614b40565b86614b7f565b93850193602091909101908601615155565b505050505050506128f561519960c0840184614be5565b60068301614edf565b6000604082016040835280855480835260608501915060608160051b8601019250600087815260208120815b838110156152a657878603605f1901855281548652600182015460ff166151f86020880182613d88565b5060028201546040870152600382015460608701526004820160a0608088015283815461522481614506565b8060a08b01526001821660008114615243576001811461525857615289565b60ff19831660c08c015260e08b019350615289565b84885260208820885b838110156152805781548d820160c00152600190910190602001615261565b8c0160c0019450505b5091985050506020959095019450600591909101906001016151ce565b50505050506020929092019290925292915050565b6000602082840312156152cd57600080fd5b5051919050565b60609290921b6001600160601b0319168252601482015260340190565b60208082526015908201527436b9b39739b2b73232b9103737ba1039b7b63b32b960591b604082015260600190565b60006020828403121561533257600080fd5b81516001600160401b0381111561534857600080fd5b8201601f8101841361535957600080fd5b8051615367613abd82613a47565b81815285602083850101111561537c57600080fd5b613ebf826020830160208601613634565b60008161539c5761539c6144d9565b506000190190565b600082198211156153b7576153b76144d9565b500190565b6020808252602e908201527f496e697469616c697a61626c653a20636f6e747261637420697320616c72656160408201526d191e481a5b9a5d1a585b1a5e995960921b60608201526080019056fe71bd81ebe1d98a2944767394e76a9aff18724b2cf04e1db71254f804544b35c7a2646970667358221220082e13b2788727f577962c2b7f8dbd6e33dff79e6c09d3d14f2e55eff8a908b264736f6c634300080d0033",
  "libraries": {
    "SolverLib": "0xCf7Ed3AccA5a467e9e704C703E8D87F634fB0Fc9"
  },
  "devdoc": {
    "kind": "dev",
    "methods": {
      "addData(bytes32,bytes)": {
        "details": "Allows keeper to manually add data to IngestType.Manual slots after executeIngests",
        "params": {
          "_data": "Data to be added",
          "_slot": "Destination slot"
        }
      },
      "addressFromChainIndex(uint256)": {
        "details": "Get address for a Solver by its index in the chain",
        "params": {
          "_index": "Index of Solver"
        }
      },
      "allocationsValid(uint256)": {
        "details": "Verifies that all slots corresponding to recipients have been filled before CT allocation"
      },
      "arbitrate(uint256,uint256[])": {
        "details": "Allows arbitrator to unilaterally make a payout report.",
        "params": {
          "_index": "Index of condition",
          "payouts": "Array of uint256 values representing the ratio of the collateral that each outcome can claim. The length of this array must be equal to the outcomeSlotCount"
        }
      },
      "arbitrateNull(uint256)": {
        "details": "Returns condition.status to OutcomeProposed without a ruling.",
        "params": {
          "_index": "Index of condition"
        }
      },
      "arbitrationRequested(uint256)": {
        "details": "Sets condition.status to ArbitrationRequested.",
        "params": {
          "_index": "Index of condition"
        }
      },
      "confirmPayouts(uint256)": {
        "details": "Confirm payouts for condition (reportPayouts to ConditionalTokens contract)",
        "params": {
          "_index": "Index of condition"
        }
      },
      "deployChild((address,address,address,uint256,bytes,(uint256,uint8,bytes32,uint256,bytes)[],(address,uint256,uint256,bytes32,uint256[],(bytes32,bytes32[])[],(bytes32,uint8,uint8)[])))": {
        "details": "Deploys a new Solver as a child",
        "params": {
          "_config": "Configuration of the child Solver"
        }
      },
      "executeSolve(uint256)": {
        "details": "Mints conditional tokens, allocates them to recipients specified by ingested data, runs arbitrary `postroll()` function and tries to do the same for child Solver",
        "params": {
          "_index": "Index of condition to execute on"
        }
      },
      "getCallbackOutput(bytes32)": {
        "details": "A simple getter that requires upstream slot ver. == our condition ver.",
        "params": {
          "_slot": "Slot containing data"
        }
      },
      "handleCallback(bytes32)": {
        "details": "Handle upstream Solver making callback and ingest the data",
        "params": {
          "_slot": "Destination slot for the data being sent"
        }
      },
      "ingestsValid()": {
        "details": "Verifies that all ingests have been performed for a condition"
      },
      "init(address,address,address,uint256,(address,address,address,uint256,bytes,(uint256,uint8,bytes32,uint256,bytes)[],(address,uint256,uint256,bytes32,uint256[],(bytes32,bytes32[])[],(bytes32,uint8,uint8)[])))": {
        "details": "Called by SolverFactory when contract is created. Nothing else should ever need to call this",
        "params": {
          "_chainIndex": "The index of this Solver in the chain",
          "_chainParent": "The address of the Solver above this one in the chain. address(0) if this Solver is first.",
          "_solverConfig": "The configuration of this Solver"
        }
      },
      "onERC1155BatchReceived(address,address,uint256[],uint256[],bytes)": {
        "details": "Handles the receipt of a multiple ERC1155 token types. This function is called at the end of a `safeBatchTransferFrom` after the balances have been updated. To accept the transfer(s), this must return `bytes4(keccak256(\"onERC1155BatchReceived(address,address,uint256[],uint256[],bytes)\"))` (i.e. 0xbc197c81, or its own function selector).",
        "params": {
          "data": "Additional data with no specified format",
          "from": "The address which previously owned the token",
          "ids": "An array containing ids of each token being transferred (order and length must match values array)",
          "operator": "The address which initiated the batch transfer (i.e. msg.sender)",
          "values": "An array containing amounts of each token being transferred (order and length must match ids array)"
        },
        "returns": {
          "_0": "`bytes4(keccak256(\"onERC1155BatchReceived(address,address,uint256[],uint256[],bytes)\"))` if transfer is allowed"
        }
      },
      "onERC1155Received(address,address,uint256,uint256,bytes)": {
        "details": "Handles the receipt of a single ERC1155 token type. This function is called at the end of a `safeTransferFrom` after the balance has been updated. To accept the transfer, this must return `bytes4(keccak256(\"onERC1155Received(address,address,uint256,uint256,bytes)\"))` (i.e. 0xf23a6e61, or its own function selector).",
        "params": {
          "data": "Additional data with no specified format",
          "from": "The address which previously owned the token",
          "id": "The ID of the token being transferred",
          "operator": "The address which initiated the transfer (i.e. msg.sender)",
          "value": "The amount of tokens being transferred"
        },
        "returns": {
          "_0": "`bytes4(keccak256(\"onERC1155Received(address,address,uint256,uint256,bytes)\"))` if transfer is allowed"
        }
      },
      "prepareSolve(uint256)": {
        "details": "Creates a new condition, associated timelock, and executes ingests for this Solver and any child Solvers",
        "params": {
          "_index": "Index of the new condition to be created."
        }
      },
      "proposePayouts(uint256,uint256[])": {
        "details": "Propose payouts (AKA outcomes) for a condition",
        "params": {
          "_index": "Index of condition",
          "_payouts": "Array of uint256 values representing the ratio of the collateral that each outcome can claim. The length of this array must be equal to the outcomeSlotCount"
        }
      },
      "redeemPosition(address,bytes32,bytes32,uint256[])": {
        "details": "Redeems CTs held by this Solver. See ConditionalTokens contract for more info."
      },
      "registerOutgoingCallback(bytes32,uint256)": {
        "details": "Register callback expected by a downstream Solver for some data",
        "params": {
          "_chainIndex": "Index of the Solver requesting this callback",
          "_slot": "Slot being waited on by downstream Solver"
        }
      },
      "supportsInterface(bytes4)": {
        "details": "See {IERC165-supportsInterface}."
      }
    },
    "version": 1
  },
  "userdoc": {
    "kind": "user",
    "methods": {
      "isRecipient(address,uint256)": {
        "notice": "Returns recipient addresses for a condition"
      }
    },
    "version": 1
  },
  "storageLayout": {
    "storage": [
      {
        "astId": 130,
        "contract": "contracts/BasicSolverV1.sol:BasicSolverV1",
        "label": "_initialized",
        "offset": 0,
        "slot": "0",
        "type": "t_uint8"
      },
      {
        "astId": 133,
        "contract": "contracts/BasicSolverV1.sol:BasicSolverV1",
        "label": "_initializing",
        "offset": 1,
        "slot": "0",
        "type": "t_bool"
      },
      {
        "astId": 7359,
        "contract": "contracts/BasicSolverV1.sol:BasicSolverV1",
        "label": "factoryAddress",
        "offset": 2,
        "slot": "0",
        "type": "t_address"
      },
      {
        "astId": 7361,
        "contract": "contracts/BasicSolverV1.sol:BasicSolverV1",
        "label": "ctfAddress",
        "offset": 0,
        "slot": "1",
        "type": "t_address"
      },
      {
        "astId": 7363,
        "contract": "contracts/BasicSolverV1.sol:BasicSolverV1",
        "label": "deployerAddress",
        "offset": 0,
        "slot": "2",
        "type": "t_address"
      },
      {
        "astId": 7366,
        "contract": "contracts/BasicSolverV1.sol:BasicSolverV1",
        "label": "config",
        "offset": 0,
        "slot": "3",
        "type": "t_struct(Config)9060_storage"
      },
      {
        "astId": 7370,
        "contract": "contracts/BasicSolverV1.sol:BasicSolverV1",
        "label": "conditions",
        "offset": 0,
        "slot": "16",
        "type": "t_array(t_struct(Condition)9041_storage)dyn_storage"
      },
      {
        "astId": 7372,
        "contract": "contracts/BasicSolverV1.sol:BasicSolverV1",
        "label": "chainParent",
        "offset": 0,
        "slot": "17",
        "type": "t_address"
      },
      {
        "astId": 7374,
        "contract": "contracts/BasicSolverV1.sol:BasicSolverV1",
        "label": "chainChild",
        "offset": 0,
        "slot": "18",
        "type": "t_address"
      },
      {
        "astId": 7376,
        "contract": "contracts/BasicSolverV1.sol:BasicSolverV1",
        "label": "chainIndex",
        "offset": 0,
        "slot": "19",
        "type": "t_uint256"
      },
      {
        "astId": 7379,
        "contract": "contracts/BasicSolverV1.sol:BasicSolverV1",
        "label": "timelocks",
        "offset": 0,
        "slot": "20",
        "type": "t_array(t_uint256)dyn_storage"
      },
      {
        "astId": 7381,
        "contract": "contracts/BasicSolverV1.sol:BasicSolverV1",
        "label": "trackingId",
        "offset": 0,
        "slot": "21",
        "type": "t_bytes32"
      },
      {
        "astId": 7384,
        "contract": "contracts/BasicSolverV1.sol:BasicSolverV1",
        "label": "callbacks",
        "offset": 0,
        "slot": "22",
        "type": "t_struct(Callbacks)9084_storage"
      },
      {
        "astId": 7387,
        "contract": "contracts/BasicSolverV1.sol:BasicSolverV1",
        "label": "datas",
        "offset": 0,
        "slot": "26",
        "type": "t_struct(Datas)9070_storage"
      }
    ],
    "types": {
      "t_address": {
        "encoding": "inplace",
        "label": "address",
        "numberOfBytes": "20"
      },
      "t_array(t_address)dyn_storage": {
        "base": "t_address",
        "encoding": "dynamic_array",
        "label": "address[]",
        "numberOfBytes": "32"
      },
      "t_array(t_bytes32)dyn_storage": {
        "base": "t_bytes32",
        "encoding": "dynamic_array",
        "label": "bytes32[]",
        "numberOfBytes": "32"
      },
      "t_array(t_bytes_storage)dyn_storage": {
        "base": "t_bytes_storage",
        "encoding": "dynamic_array",
        "label": "bytes[]",
        "numberOfBytes": "32"
      },
      "t_array(t_struct(Allocation)9111_storage)dyn_storage": {
        "base": "t_struct(Allocation)9111_storage",
        "encoding": "dynamic_array",
        "label": "struct SolverLib.Allocation[]",
        "numberOfBytes": "32"
      },
      "t_array(t_struct(Condition)9041_storage)dyn_storage": {
        "base": "t_struct(Condition)9041_storage",
        "encoding": "dynamic_array",
        "label": "struct SolverLib.Condition[]",
        "numberOfBytes": "32"
      },
      "t_array(t_struct(Ingest)9025_storage)dyn_storage": {
        "base": "t_struct(Ingest)9025_storage",
        "encoding": "dynamic_array",
        "label": "struct SolverLib.Ingest[]",
        "numberOfBytes": "32"
      },
      "t_array(t_struct(Multihash)9013_storage)dyn_storage": {
        "base": "t_struct(Multihash)9013_storage",
        "encoding": "dynamic_array",
        "label": "struct SolverLib.Multihash[]",
        "numberOfBytes": "32"
      },
      "t_array(t_uint256)dyn_storage": {
        "base": "t_uint256",
        "encoding": "dynamic_array",
        "label": "uint256[]",
        "numberOfBytes": "32"
      },
      "t_bool": {
        "encoding": "inplace",
        "label": "bool",
        "numberOfBytes": "1"
      },
      "t_bytes32": {
        "encoding": "inplace",
        "label": "bytes32",
        "numberOfBytes": "32"
      },
      "t_bytes_storage": {
        "encoding": "bytes",
        "label": "bytes",
        "numberOfBytes": "32"
      },
      "t_contract(IERC20)2691": {
        "encoding": "inplace",
        "label": "contract IERC20",
        "numberOfBytes": "20"
      },
      "t_contract(Solver)8870": {
        "encoding": "inplace",
        "label": "contract Solver",
        "numberOfBytes": "20"
      },
      "t_enum(IngestType)8999": {
        "encoding": "inplace",
        "label": "enum SolverLib.IngestType",
        "numberOfBytes": "1"
      },
      "t_enum(Status)9006": {
        "encoding": "inplace",
        "label": "enum SolverLib.Status",
        "numberOfBytes": "1"
      },
      "t_mapping(t_bytes32,t_array(t_address)dyn_storage)": {
        "encoding": "mapping",
        "key": "t_bytes32",
        "label": "mapping(bytes32 => address[])",
        "numberOfBytes": "32",
        "value": "t_array(t_address)dyn_storage"
      },
      "t_mapping(t_bytes32,t_array(t_bytes_storage)dyn_storage)": {
        "encoding": "mapping",
        "key": "t_bytes32",
        "label": "mapping(bytes32 => bytes[])",
        "numberOfBytes": "32",
        "value": "t_array(t_bytes_storage)dyn_storage"
      },
      "t_mapping(t_bytes32,t_uint256)": {
        "encoding": "mapping",
        "key": "t_bytes32",
        "label": "mapping(bytes32 => uint256)",
        "numberOfBytes": "32",
        "value": "t_uint256"
      },
      "t_struct(Allocation)9111_storage": {
        "encoding": "inplace",
        "label": "struct SolverLib.Allocation",
        "members": [
          {
            "astId": 9107,
            "contract": "contracts/BasicSolverV1.sol:BasicSolverV1",
            "label": "recipientAddressSlot",
            "offset": 0,
            "slot": "0",
            "type": "t_bytes32"
          },
          {
            "astId": 9110,
            "contract": "contracts/BasicSolverV1.sol:BasicSolverV1",
            "label": "recipientAmountSlots",
            "offset": 0,
            "slot": "1",
            "type": "t_array(t_bytes32)dyn_storage"
          }
        ],
        "numberOfBytes": "64"
      },
      "t_struct(Callbacks)9084_storage": {
        "encoding": "inplace",
        "label": "struct SolverLib.Callbacks",
        "members": [
          {
            "astId": 9072,
            "contract": "contracts/BasicSolverV1.sol:BasicSolverV1",
            "label": "numIncoming",
            "offset": 0,
            "slot": "0",
            "type": "t_uint256"
          },
          {
            "astId": 9074,
            "contract": "contracts/BasicSolverV1.sol:BasicSolverV1",
            "label": "numOutgoing",
            "offset": 0,
            "slot": "1",
            "type": "t_uint256"
          },
          {
            "astId": 9079,
            "contract": "contracts/BasicSolverV1.sol:BasicSolverV1",
            "label": "outgoing",
            "offset": 0,
            "slot": "2",
            "type": "t_mapping(t_bytes32,t_array(t_address)dyn_storage)"
          },
          {
            "astId": 9083,
            "contract": "contracts/BasicSolverV1.sol:BasicSolverV1",
            "label": "incoming",
            "offset": 0,
            "slot": "3",
            "type": "t_mapping(t_bytes32,t_uint256)"
          }
        ],
        "numberOfBytes": "128"
      },
      "t_struct(Condition)9041_storage": {
        "encoding": "inplace",
        "label": "struct SolverLib.Condition",
        "members": [
          {
            "astId": 9028,
            "contract": "contracts/BasicSolverV1.sol:BasicSolverV1",
            "label": "collateralToken",
            "offset": 0,
            "slot": "0",
            "type": "t_contract(IERC20)2691"
          },
          {
            "astId": 9030,
            "contract": "contracts/BasicSolverV1.sol:BasicSolverV1",
            "label": "questionId",
            "offset": 0,
            "slot": "1",
            "type": "t_bytes32"
          },
          {
            "astId": 9032,
            "contract": "contracts/BasicSolverV1.sol:BasicSolverV1",
            "label": "parentCollectionId",
            "offset": 0,
            "slot": "2",
            "type": "t_bytes32"
          },
          {
            "astId": 9034,
            "contract": "contracts/BasicSolverV1.sol:BasicSolverV1",
            "label": "conditionId",
            "offset": 0,
            "slot": "3",
            "type": "t_bytes32"
          },
          {
            "astId": 9037,
            "contract": "contracts/BasicSolverV1.sol:BasicSolverV1",
            "label": "payouts",
            "offset": 0,
            "slot": "4",
            "type": "t_array(t_uint256)dyn_storage"
          },
          {
            "astId": 9040,
            "contract": "contracts/BasicSolverV1.sol:BasicSolverV1",
            "label": "status",
            "offset": 0,
            "slot": "5",
            "type": "t_enum(Status)9006"
          }
        ],
        "numberOfBytes": "192"
      },
      "t_struct(ConditionBase)9105_storage": {
        "encoding": "inplace",
        "label": "struct SolverLib.ConditionBase",
        "members": [
          {
            "astId": 9087,
            "contract": "contracts/BasicSolverV1.sol:BasicSolverV1",
            "label": "collateralToken",
            "offset": 0,
            "slot": "0",
            "type": "t_contract(IERC20)2691"
          },
          {
            "astId": 9089,
            "contract": "contracts/BasicSolverV1.sol:BasicSolverV1",
            "label": "outcomeSlots",
            "offset": 0,
            "slot": "1",
            "type": "t_uint256"
          },
          {
            "astId": 9091,
            "contract": "contracts/BasicSolverV1.sol:BasicSolverV1",
            "label": "parentCollectionIndexSet",
            "offset": 0,
            "slot": "2",
            "type": "t_uint256"
          },
          {
            "astId": 9093,
            "contract": "contracts/BasicSolverV1.sol:BasicSolverV1",
            "label": "amountSlot",
            "offset": 0,
            "slot": "3",
            "type": "t_bytes32"
          },
          {
            "astId": 9096,
            "contract": "contracts/BasicSolverV1.sol:BasicSolverV1",
            "label": "partition",
            "offset": 0,
            "slot": "4",
            "type": "t_array(t_uint256)dyn_storage"
          },
          {
            "astId": 9100,
            "contract": "contracts/BasicSolverV1.sol:BasicSolverV1",
            "label": "allocations",
            "offset": 0,
            "slot": "5",
            "type": "t_array(t_struct(Allocation)9111_storage)dyn_storage"
          },
          {
            "astId": 9104,
            "contract": "contracts/BasicSolverV1.sol:BasicSolverV1",
            "label": "outcomeURIs",
            "offset": 0,
            "slot": "6",
            "type": "t_array(t_struct(Multihash)9013_storage)dyn_storage"
          }
        ],
        "numberOfBytes": "224"
      },
      "t_struct(Config)9060_storage": {
        "encoding": "inplace",
        "label": "struct SolverLib.Config",
        "members": [
          {
            "astId": 9044,
            "contract": "contracts/BasicSolverV1.sol:BasicSolverV1",
            "label": "implementation",
            "offset": 0,
            "slot": "0",
            "type": "t_contract(Solver)8870"
          },
          {
            "astId": 9046,
            "contract": "contracts/BasicSolverV1.sol:BasicSolverV1",
            "label": "keeper",
            "offset": 0,
            "slot": "1",
            "type": "t_address"
          },
          {
            "astId": 9048,
            "contract": "contracts/BasicSolverV1.sol:BasicSolverV1",
            "label": "arbitrator",
            "offset": 0,
            "slot": "2",
            "type": "t_address"
          },
          {
            "astId": 9050,
            "contract": "contracts/BasicSolverV1.sol:BasicSolverV1",
            "label": "timelockSeconds",
            "offset": 0,
            "slot": "3",
            "type": "t_uint256"
          },
          {
            "astId": 9052,
            "contract": "contracts/BasicSolverV1.sol:BasicSolverV1",
            "label": "data",
            "offset": 0,
            "slot": "4",
            "type": "t_bytes_storage"
          },
          {
            "astId": 9056,
            "contract": "contracts/BasicSolverV1.sol:BasicSolverV1",
            "label": "ingests",
            "offset": 0,
            "slot": "5",
            "type": "t_array(t_struct(Ingest)9025_storage)dyn_storage"
          },
          {
            "astId": 9059,
            "contract": "contracts/BasicSolverV1.sol:BasicSolverV1",
            "label": "conditionBase",
            "offset": 0,
            "slot": "6",
            "type": "t_struct(ConditionBase)9105_storage"
          }
        ],
        "numberOfBytes": "416"
      },
      "t_struct(Datas)9070_storage": {
        "encoding": "inplace",
        "label": "struct SolverLib.Datas",
        "members": [
          {
            "astId": 9065,
            "contract": "contracts/BasicSolverV1.sol:BasicSolverV1",
            "label": "slots",
            "offset": 0,
            "slot": "0",
            "type": "t_mapping(t_bytes32,t_array(t_bytes_storage)dyn_storage)"
          },
          {
            "astId": 9069,
            "contract": "contracts/BasicSolverV1.sol:BasicSolverV1",
            "label": "slotIngestIdx",
            "offset": 0,
            "slot": "1",
            "type": "t_mapping(t_bytes32,t_uint256)"
          }
        ],
        "numberOfBytes": "64"
      },
      "t_struct(Ingest)9025_storage": {
        "encoding": "inplace",
        "label": "struct SolverLib.Ingest",
        "members": [
          {
            "astId": 9015,
            "contract": "contracts/BasicSolverV1.sol:BasicSolverV1",
            "label": "executions",
            "offset": 0,
            "slot": "0",
            "type": "t_uint256"
          },
          {
            "astId": 9018,
            "contract": "contracts/BasicSolverV1.sol:BasicSolverV1",
            "label": "ingestType",
            "offset": 0,
            "slot": "1",
            "type": "t_enum(IngestType)8999"
          },
          {
            "astId": 9020,
            "contract": "contracts/BasicSolverV1.sol:BasicSolverV1",
            "label": "slot",
            "offset": 0,
            "slot": "2",
            "type": "t_bytes32"
          },
          {
            "astId": 9022,
            "contract": "contracts/BasicSolverV1.sol:BasicSolverV1",
            "label": "solverIndex",
            "offset": 0,
            "slot": "3",
            "type": "t_uint256"
          },
          {
            "astId": 9024,
            "contract": "contracts/BasicSolverV1.sol:BasicSolverV1",
            "label": "data",
            "offset": 0,
            "slot": "4",
            "type": "t_bytes_storage"
          }
        ],
        "numberOfBytes": "160"
      },
      "t_struct(Multihash)9013_storage": {
        "encoding": "inplace",
        "label": "struct SolverLib.Multihash",
        "members": [
          {
            "astId": 9008,
            "contract": "contracts/BasicSolverV1.sol:BasicSolverV1",
            "label": "digest",
            "offset": 0,
            "slot": "0",
            "type": "t_bytes32"
          },
          {
            "astId": 9010,
            "contract": "contracts/BasicSolverV1.sol:BasicSolverV1",
            "label": "hashFunction",
            "offset": 0,
            "slot": "1",
            "type": "t_uint8"
          },
          {
            "astId": 9012,
            "contract": "contracts/BasicSolverV1.sol:BasicSolverV1",
            "label": "size",
            "offset": 1,
            "slot": "1",
            "type": "t_uint8"
          }
        ],
        "numberOfBytes": "64"
      },
      "t_uint256": {
        "encoding": "inplace",
        "label": "uint256",
        "numberOfBytes": "32"
      },
      "t_uint8": {
        "encoding": "inplace",
        "label": "uint8",
        "numberOfBytes": "1"
      }
    }
  }
}