{
  "address": "0x5FC8d32690cc91D4c39d9d3abcBD16989F875707",
  "abi": [
    {
      "anonymous": false,
      "inputs": [
        {
          "indexed": false,
          "internalType": "address",
          "name": "chainChild",
          "type": "address"
        }
      ],
      "name": "DeployedChild",
      "type": "event"
    },
    {
      "anonymous": false,
      "inputs": [],
      "name": "IngestedData",
      "type": "event"
    },
    {
      "anonymous": false,
      "inputs": [
        {
          "indexed": false,
          "internalType": "address",
          "name": "solver",
          "type": "address"
        },
        {
          "indexed": false,
          "internalType": "uint256",
          "name": "solveIndex",
          "type": "uint256"
        }
      ],
      "name": "PreparedSolve",
      "type": "event"
    },
    {
      "inputs": [
        {
          "internalType": "uint256",
          "name": "_slot",
          "type": "uint256"
        },
        {
          "internalType": "bytes",
          "name": "_data",
          "type": "bytes"
        }
      ],
      "name": "addData",
      "outputs": [],
      "stateMutability": "nonpayable",
      "type": "function"
    },
    {
      "inputs": [
        {
          "internalType": "uint256",
          "name": "_index",
          "type": "uint256"
        }
      ],
      "name": "addressFromChainIndex",
      "outputs": [
        {
          "internalType": "address",
          "name": "_address",
          "type": "address"
        }
      ],
      "stateMutability": "view",
      "type": "function"
    },
    {
      "inputs": [
        {
          "internalType": "uint256",
          "name": "_index",
          "type": "uint256"
        },
        {
          "internalType": "uint256[]",
          "name": "payouts",
          "type": "uint256[]"
        }
      ],
      "name": "arbitrate",
      "outputs": [],
      "stateMutability": "nonpayable",
      "type": "function"
    },
    {
      "inputs": [
        {
          "internalType": "uint256",
          "name": "_index",
          "type": "uint256"
        }
      ],
      "name": "arbitrateNull",
      "outputs": [],
      "stateMutability": "nonpayable",
      "type": "function"
    },
    {
      "inputs": [
        {
          "internalType": "uint256",
          "name": "_index",
          "type": "uint256"
        }
      ],
      "name": "arbitrationPending",
      "outputs": [],
      "stateMutability": "nonpayable",
      "type": "function"
    },
    {
      "inputs": [
        {
          "internalType": "uint256",
          "name": "_index",
          "type": "uint256"
        }
      ],
      "name": "arbitrationRequested",
      "outputs": [],
      "stateMutability": "nonpayable",
      "type": "function"
    },
    {
      "inputs": [],
      "name": "chainChild",
      "outputs": [
        {
          "internalType": "address",
          "name": "",
          "type": "address"
        }
      ],
      "stateMutability": "view",
      "type": "function"
    },
    {
      "inputs": [],
      "name": "chainIndex",
      "outputs": [
        {
          "internalType": "uint256",
          "name": "",
          "type": "uint256"
        }
      ],
      "stateMutability": "view",
      "type": "function"
    },
    {
      "inputs": [],
      "name": "chainParent",
      "outputs": [
        {
          "internalType": "address",
          "name": "",
          "type": "address"
        }
      ],
      "stateMutability": "view",
      "type": "function"
    },
    {
      "inputs": [],
      "name": "collateralBalance",
      "outputs": [
        {
          "internalType": "uint256",
          "name": "balance",
          "type": "uint256"
        }
      ],
      "stateMutability": "view",
      "type": "function"
    },
    {
      "inputs": [
        {
          "internalType": "uint256",
          "name": "",
          "type": "uint256"
        }
      ],
      "name": "conditions",
      "outputs": [
        {
          "internalType": "contract IERC20",
          "name": "collateralToken",
          "type": "address"
        },
        {
          "internalType": "bytes32",
          "name": "questionId",
          "type": "bytes32"
        },
        {
          "internalType": "bytes32",
          "name": "parentCollectionId",
          "type": "bytes32"
        },
        {
          "internalType": "bytes32",
          "name": "conditionId",
          "type": "bytes32"
        },
        {
          "internalType": "enum SolverLib.Status",
          "name": "status",
          "type": "uint8"
        }
      ],
      "stateMutability": "view",
      "type": "function"
    },
    {
      "inputs": [],
      "name": "config",
      "outputs": [
        {
          "internalType": "contract Solver",
          "name": "implementation",
          "type": "address"
        },
        {
          "internalType": "address",
          "name": "keeper",
          "type": "address"
        },
        {
          "internalType": "address",
          "name": "arbitrator",
          "type": "address"
        },
        {
          "internalType": "uint256",
          "name": "timelockSeconds",
          "type": "uint256"
        },
        {
          "internalType": "bytes",
          "name": "data",
          "type": "bytes"
        },
        {
          "components": [
            {
              "internalType": "contract IERC20",
              "name": "collateralToken",
              "type": "address"
            },
            {
              "internalType": "uint256",
              "name": "outcomeSlots",
              "type": "uint256"
            },
            {
              "internalType": "uint256",
              "name": "parentCollectionIndexSet",
              "type": "uint256"
            },
            {
              "internalType": "uint256",
              "name": "amountSlot",
              "type": "uint256"
            },
            {
              "internalType": "uint256[]",
              "name": "partition",
              "type": "uint256[]"
            },
            {
              "components": [
                {
                  "internalType": "uint256",
                  "name": "recipientAddressSlot",
                  "type": "uint256"
                },
                {
                  "internalType": "uint256[]",
                  "name": "recipientAmountSlots",
                  "type": "uint256[]"
                }
              ],
              "internalType": "struct SolverLib.Allocation[]",
              "name": "allocations",
              "type": "tuple[]"
            },
            {
              "components": [
                {
                  "internalType": "bytes32",
                  "name": "digest",
                  "type": "bytes32"
                },
                {
                  "internalType": "uint8",
                  "name": "hashFunction",
                  "type": "uint8"
                },
                {
                  "internalType": "uint8",
                  "name": "size",
                  "type": "uint8"
                }
              ],
              "internalType": "struct SolverLib.Multihash[]",
              "name": "outcomeURIs",
              "type": "tuple[]"
            }
          ],
          "internalType": "struct SolverLib.ConditionBase",
          "name": "conditionBase",
          "type": "tuple"
        }
      ],
      "stateMutability": "view",
      "type": "function"
    },
    {
      "inputs": [
        {
          "internalType": "uint256",
          "name": "_index",
          "type": "uint256"
        }
      ],
      "name": "confirmPayouts",
      "outputs": [],
      "stateMutability": "nonpayable",
      "type": "function"
    },
    {
      "inputs": [
        {
          "components": [
            {
              "internalType": "contract Solver",
              "name": "implementation",
              "type": "address"
            },
            {
              "internalType": "address",
              "name": "keeper",
              "type": "address"
            },
            {
              "internalType": "address",
              "name": "arbitrator",
              "type": "address"
            },
            {
              "internalType": "uint256",
              "name": "timelockSeconds",
              "type": "uint256"
            },
            {
              "internalType": "bytes",
              "name": "data",
              "type": "bytes"
            },
            {
              "components": [
                {
                  "internalType": "uint256",
                  "name": "executions",
                  "type": "uint256"
                },
                {
                  "internalType": "enum SolverLib.IngestType",
                  "name": "ingestType",
                  "type": "uint8"
                },
                {
                  "internalType": "uint256",
                  "name": "slot",
                  "type": "uint256"
                },
                {
                  "internalType": "uint256",
                  "name": "solverIndex",
                  "type": "uint256"
                },
                {
                  "internalType": "bytes",
                  "name": "data",
                  "type": "bytes"
                }
              ],
              "internalType": "struct SolverLib.Ingest[]",
              "name": "ingests",
              "type": "tuple[]"
            },
            {
              "components": [
                {
                  "internalType": "contract IERC20",
                  "name": "collateralToken",
                  "type": "address"
                },
                {
                  "internalType": "uint256",
                  "name": "outcomeSlots",
                  "type": "uint256"
                },
                {
                  "internalType": "uint256",
                  "name": "parentCollectionIndexSet",
                  "type": "uint256"
                },
                {
                  "internalType": "uint256",
                  "name": "amountSlot",
                  "type": "uint256"
                },
                {
                  "internalType": "uint256[]",
                  "name": "partition",
                  "type": "uint256[]"
                },
                {
                  "components": [
                    {
                      "internalType": "uint256",
                      "name": "recipientAddressSlot",
                      "type": "uint256"
                    },
                    {
                      "internalType": "uint256[]",
                      "name": "recipientAmountSlots",
                      "type": "uint256[]"
                    }
                  ],
                  "internalType": "struct SolverLib.Allocation[]",
                  "name": "allocations",
                  "type": "tuple[]"
                },
                {
                  "components": [
                    {
                      "internalType": "bytes32",
                      "name": "digest",
                      "type": "bytes32"
                    },
                    {
                      "internalType": "uint8",
                      "name": "hashFunction",
                      "type": "uint8"
                    },
                    {
                      "internalType": "uint8",
                      "name": "size",
                      "type": "uint8"
                    }
                  ],
                  "internalType": "struct SolverLib.Multihash[]",
                  "name": "outcomeURIs",
                  "type": "tuple[]"
                }
              ],
              "internalType": "struct SolverLib.ConditionBase",
              "name": "conditionBase",
              "type": "tuple"
            }
          ],
          "internalType": "struct SolverLib.Config",
          "name": "_config",
          "type": "tuple"
        }
      ],
      "name": "deployChild",
      "outputs": [
        {
          "internalType": "contract Solver",
          "name": "_solver",
          "type": "address"
        }
      ],
      "stateMutability": "nonpayable",
      "type": "function"
    },
    {
      "inputs": [
        {
          "internalType": "uint256",
          "name": "_index",
          "type": "uint256"
        }
      ],
      "name": "executeSolve",
      "outputs": [],
      "stateMutability": "nonpayable",
      "type": "function"
    },
    {
      "inputs": [
        {
          "internalType": "uint256",
          "name": "_slot",
          "type": "uint256"
        }
      ],
      "name": "getCallbackOutput",
      "outputs": [
        {
          "internalType": "bytes",
          "name": "data",
          "type": "bytes"
        }
      ],
      "stateMutability": "view",
      "type": "function"
    },
    {
      "inputs": [],
      "name": "getConditions",
      "outputs": [
        {
          "components": [
            {
              "internalType": "contract IERC20",
              "name": "collateralToken",
              "type": "address"
            },
            {
              "internalType": "bytes32",
              "name": "questionId",
              "type": "bytes32"
            },
            {
              "internalType": "bytes32",
              "name": "parentCollectionId",
              "type": "bytes32"
            },
            {
              "internalType": "bytes32",
              "name": "conditionId",
              "type": "bytes32"
            },
            {
              "internalType": "uint256[]",
              "name": "payouts",
              "type": "uint256[]"
            },
            {
              "internalType": "enum SolverLib.Status",
              "name": "status",
              "type": "uint8"
            }
          ],
          "internalType": "struct SolverLib.Condition[]",
          "name": "",
          "type": "tuple[]"
        }
      ],
      "stateMutability": "view",
      "type": "function"
    },
    {
      "inputs": [],
      "name": "getConfig",
      "outputs": [
        {
          "components": [
            {
              "internalType": "contract Solver",
              "name": "implementation",
              "type": "address"
            },
            {
              "internalType": "address",
              "name": "keeper",
              "type": "address"
            },
            {
              "internalType": "address",
              "name": "arbitrator",
              "type": "address"
            },
            {
              "internalType": "uint256",
              "name": "timelockSeconds",
              "type": "uint256"
            },
            {
              "internalType": "bytes",
              "name": "data",
              "type": "bytes"
            },
            {
              "components": [
                {
                  "internalType": "uint256",
                  "name": "executions",
                  "type": "uint256"
                },
                {
                  "internalType": "enum SolverLib.IngestType",
                  "name": "ingestType",
                  "type": "uint8"
                },
                {
                  "internalType": "uint256",
                  "name": "slot",
                  "type": "uint256"
                },
                {
                  "internalType": "uint256",
                  "name": "solverIndex",
                  "type": "uint256"
                },
                {
                  "internalType": "bytes",
                  "name": "data",
                  "type": "bytes"
                }
              ],
              "internalType": "struct SolverLib.Ingest[]",
              "name": "ingests",
              "type": "tuple[]"
            },
            {
              "components": [
                {
                  "internalType": "contract IERC20",
                  "name": "collateralToken",
                  "type": "address"
                },
                {
                  "internalType": "uint256",
                  "name": "outcomeSlots",
                  "type": "uint256"
                },
                {
                  "internalType": "uint256",
                  "name": "parentCollectionIndexSet",
                  "type": "uint256"
                },
                {
                  "internalType": "uint256",
                  "name": "amountSlot",
                  "type": "uint256"
                },
                {
                  "internalType": "uint256[]",
                  "name": "partition",
                  "type": "uint256[]"
                },
                {
                  "components": [
                    {
                      "internalType": "uint256",
                      "name": "recipientAddressSlot",
                      "type": "uint256"
                    },
                    {
                      "internalType": "uint256[]",
                      "name": "recipientAmountSlots",
                      "type": "uint256[]"
                    }
                  ],
                  "internalType": "struct SolverLib.Allocation[]",
                  "name": "allocations",
                  "type": "tuple[]"
                },
                {
                  "components": [
                    {
                      "internalType": "bytes32",
                      "name": "digest",
                      "type": "bytes32"
                    },
                    {
                      "internalType": "uint8",
                      "name": "hashFunction",
                      "type": "uint8"
                    },
                    {
                      "internalType": "uint8",
                      "name": "size",
                      "type": "uint8"
                    }
                  ],
                  "internalType": "struct SolverLib.Multihash[]",
                  "name": "outcomeURIs",
                  "type": "tuple[]"
                }
              ],
              "internalType": "struct SolverLib.ConditionBase",
              "name": "conditionBase",
              "type": "tuple"
            }
          ],
          "internalType": "struct SolverLib.Config",
          "name": "",
          "type": "tuple"
        }
      ],
      "stateMutability": "view",
      "type": "function"
    },
    {
      "inputs": [
        {
          "internalType": "uint256",
          "name": "_slot",
          "type": "uint256"
        }
      ],
      "name": "getData",
      "outputs": [
        {
          "internalType": "bytes",
          "name": "data",
          "type": "bytes"
        }
      ],
      "stateMutability": "view",
      "type": "function"
    },
    {
      "inputs": [
        {
          "internalType": "uint256",
          "name": "slot",
          "type": "uint256"
        }
      ],
      "name": "getOutgoingCallbacks",
      "outputs": [
        {
          "internalType": "address[]",
          "name": "",
          "type": "address[]"
        }
      ],
      "stateMutability": "view",
      "type": "function"
    },
    {
      "inputs": [
        {
          "internalType": "uint256",
          "name": "_slot",
          "type": "uint256"
        }
      ],
      "name": "handleCallback",
      "outputs": [],
      "stateMutability": "nonpayable",
      "type": "function"
    },
    {
      "inputs": [],
      "name": "ingestsValid",
      "outputs": [
        {
          "internalType": "bool",
          "name": "",
          "type": "bool"
        }
      ],
      "stateMutability": "view",
      "type": "function"
    },
    {
      "inputs": [
        {
          "internalType": "address",
          "name": "_ctfAddress",
          "type": "address"
        },
        {
          "internalType": "address",
          "name": "_chainParent",
          "type": "address"
        },
        {
          "internalType": "uint256",
          "name": "_chainIndex",
          "type": "uint256"
        },
        {
          "components": [
            {
              "internalType": "contract Solver",
              "name": "implementation",
              "type": "address"
            },
            {
              "internalType": "address",
              "name": "keeper",
              "type": "address"
            },
            {
              "internalType": "address",
              "name": "arbitrator",
              "type": "address"
            },
            {
              "internalType": "uint256",
              "name": "timelockSeconds",
              "type": "uint256"
            },
            {
              "internalType": "bytes",
              "name": "data",
              "type": "bytes"
            },
            {
              "components": [
                {
                  "internalType": "uint256",
                  "name": "executions",
                  "type": "uint256"
                },
                {
                  "internalType": "enum SolverLib.IngestType",
                  "name": "ingestType",
                  "type": "uint8"
                },
                {
                  "internalType": "uint256",
                  "name": "slot",
                  "type": "uint256"
                },
                {
                  "internalType": "uint256",
                  "name": "solverIndex",
                  "type": "uint256"
                },
                {
                  "internalType": "bytes",
                  "name": "data",
                  "type": "bytes"
                }
              ],
              "internalType": "struct SolverLib.Ingest[]",
              "name": "ingests",
              "type": "tuple[]"
            },
            {
              "components": [
                {
                  "internalType": "contract IERC20",
                  "name": "collateralToken",
                  "type": "address"
                },
                {
                  "internalType": "uint256",
                  "name": "outcomeSlots",
                  "type": "uint256"
                },
                {
                  "internalType": "uint256",
                  "name": "parentCollectionIndexSet",
                  "type": "uint256"
                },
                {
                  "internalType": "uint256",
                  "name": "amountSlot",
                  "type": "uint256"
                },
                {
                  "internalType": "uint256[]",
                  "name": "partition",
                  "type": "uint256[]"
                },
                {
                  "components": [
                    {
                      "internalType": "uint256",
                      "name": "recipientAddressSlot",
                      "type": "uint256"
                    },
                    {
                      "internalType": "uint256[]",
                      "name": "recipientAmountSlots",
                      "type": "uint256[]"
                    }
                  ],
                  "internalType": "struct SolverLib.Allocation[]",
                  "name": "allocations",
                  "type": "tuple[]"
                },
                {
                  "components": [
                    {
                      "internalType": "bytes32",
                      "name": "digest",
                      "type": "bytes32"
                    },
                    {
                      "internalType": "uint8",
                      "name": "hashFunction",
                      "type": "uint8"
                    },
                    {
                      "internalType": "uint8",
                      "name": "size",
                      "type": "uint8"
                    }
                  ],
                  "internalType": "struct SolverLib.Multihash[]",
                  "name": "outcomeURIs",
                  "type": "tuple[]"
                }
              ],
              "internalType": "struct SolverLib.ConditionBase",
              "name": "conditionBase",
              "type": "tuple"
            }
          ],
          "internalType": "struct SolverLib.Config",
          "name": "_solverConfig",
          "type": "tuple"
        }
      ],
      "name": "init",
      "outputs": [],
      "stateMutability": "nonpayable",
      "type": "function"
    },
    {
      "inputs": [
        {
          "internalType": "address",
          "name": "operator",
          "type": "address"
        },
        {
          "internalType": "address",
          "name": "from",
          "type": "address"
        },
        {
          "internalType": "uint256[]",
          "name": "ids",
          "type": "uint256[]"
        },
        {
          "internalType": "uint256[]",
          "name": "values",
          "type": "uint256[]"
        },
        {
          "internalType": "bytes",
          "name": "data",
          "type": "bytes"
        }
      ],
      "name": "onERC1155BatchReceived",
      "outputs": [
        {
          "internalType": "bytes4",
          "name": "",
          "type": "bytes4"
        }
      ],
      "stateMutability": "nonpayable",
      "type": "function"
    },
    {
      "inputs": [
        {
          "internalType": "address",
          "name": "operator",
          "type": "address"
        },
        {
          "internalType": "address",
          "name": "from",
          "type": "address"
        },
        {
          "internalType": "uint256",
          "name": "id",
          "type": "uint256"
        },
        {
          "internalType": "uint256",
          "name": "value",
          "type": "uint256"
        },
        {
          "internalType": "bytes",
          "name": "data",
          "type": "bytes"
        }
      ],
      "name": "onERC1155Received",
      "outputs": [
        {
          "internalType": "bytes4",
          "name": "",
          "type": "bytes4"
        }
      ],
      "stateMutability": "nonpayable",
      "type": "function"
    },
    {
      "inputs": [
        {
          "internalType": "uint256",
          "name": "_index",
          "type": "uint256"
        }
      ],
      "name": "prepareSolve",
      "outputs": [],
      "stateMutability": "nonpayable",
      "type": "function"
    },
    {
      "inputs": [
        {
          "internalType": "uint256",
          "name": "_index",
          "type": "uint256"
        },
        {
          "internalType": "uint256[]",
          "name": "_payouts",
          "type": "uint256[]"
        }
      ],
      "name": "proposePayouts",
      "outputs": [],
      "stateMutability": "nonpayable",
      "type": "function"
    },
    {
      "inputs": [
        {
          "internalType": "contract IERC20",
          "name": "_collateralToken",
          "type": "address"
        },
        {
          "internalType": "bytes32",
          "name": "_parentCollectionId",
          "type": "bytes32"
        },
        {
          "internalType": "bytes32",
          "name": "_conditionId",
          "type": "bytes32"
        },
        {
          "internalType": "uint256[]",
          "name": "_indexSets",
          "type": "uint256[]"
        }
      ],
      "name": "redeemPosition",
      "outputs": [],
      "stateMutability": "nonpayable",
      "type": "function"
    },
    {
      "inputs": [
        {
          "internalType": "uint256",
          "name": "_slot",
          "type": "uint256"
        },
        {
          "internalType": "uint256",
          "name": "_chainIndex",
          "type": "uint256"
        }
      ],
      "name": "registerOutgoingCallback",
      "outputs": [],
      "stateMutability": "nonpayable",
      "type": "function"
    },
    {
      "inputs": [
        {
          "internalType": "bytes32",
          "name": "_trackingId",
          "type": "bytes32"
        }
      ],
      "name": "setTrackingId",
      "outputs": [],
      "stateMutability": "nonpayable",
      "type": "function"
    },
    {
      "inputs": [
        {
          "internalType": "bytes4",
          "name": "interfaceId",
          "type": "bytes4"
        }
      ],
      "name": "supportsInterface",
      "outputs": [
        {
          "internalType": "bool",
          "name": "",
          "type": "bool"
        }
      ],
      "stateMutability": "view",
      "type": "function"
    },
    {
      "inputs": [
        {
          "internalType": "uint256",
          "name": "",
          "type": "uint256"
        }
      ],
      "name": "timelocks",
      "outputs": [
        {
          "internalType": "uint256",
          "name": "",
          "type": "uint256"
        }
      ],
      "stateMutability": "view",
      "type": "function"
    },
    {
      "inputs": [],
      "name": "trackingId",
      "outputs": [
        {
          "internalType": "bytes32",
          "name": "",
          "type": "bytes32"
        }
      ],
      "stateMutability": "view",
      "type": "function"
    },
    {
      "inputs": [],
      "name": "uiURI",
      "outputs": [
        {
          "internalType": "bytes32",
          "name": "digest",
          "type": "bytes32"
        },
        {
          "internalType": "uint8",
          "name": "hashFunction",
          "type": "uint8"
        },
        {
          "internalType": "uint8",
          "name": "size",
          "type": "uint8"
        }
      ],
      "stateMutability": "view",
      "type": "function"
    }
  ],
  "transactionHash": "0x438a149c14dc3b5ee148ce84bbab9f0a341417df24fcc90b03dd5c38b2a5dd64",
  "args": [],
  "solcInputHash": "efed8a090605a015da838a26bd5e3e44",
  "bytecode": "0x608060405234801561001057600080fd5b506159af80620000216000396000f3fe608060405234801561001057600080fd5b50600436106102265760003560e01c806379502c551161012a578063a072d7b0116100bd578063c98c05b71161008c578063ea8221a911610071578063ea8221a9146104ba578063f23a6e61146104c2578063fa6a2c7c146104d557610226565b8063c98c05b71461049f578063d8b62316146104a757610226565b8063a072d7b014610444578063b992db0f14610457578063bc197c811461046a578063c3f909d41461048a57610226565b806387c0b374116100f957806387c0b3741461040357806387dfee57146104165780639643cdda14610429578063999925061461043c57610226565b806379502c55146103b95780637c123627146103d357806380b204b7146103e857806380c2dde2146103fb57610226565b806336fcf48c116101bd5780634a77234e1161018c5780634dd82880116101715780634dd828801461038b5780634e46f2231461039e57806355dd978b146103b157610226565b80634a77234e146103655780634dab5e691461037857610226565b806336fcf48c146103065780633837b05e1461031d5780633ee8b6741461033d57806348cbb2fc1461035d57610226565b80630d7e149f116101f95780630d7e149f1461029c5780630d8d3975146102bc57806318782559146102cf57806326c50007146102e257610226565b80630178fe3f1461022b57806301ffc9a71461025457806307c068b6146102745780630d06101a14610289575b600080fd5b61023e610239366004613670565b6104e8565b60405161024b9190614541565b60405180910390f35b610267610262366004613688565b61058a565b60405161024b91906144ff565b610287610282366004613670565b6105d0565b005b610287610297366004613670565b610719565b6102af6102aa366004613670565b61073e565b60405161024b919061450a565b6102876102ca366004613670565b61075f565b6102876102dd366004613723565b6108c9565b6102f56102f0366004613670565b61097d565b60405161024b95949392919061458e565b61030e6109cb565b60405161024b93929190614513565b61033061032b366004613670565b6109e0565b60405161024b91906140b9565b61035061034b366004613670565b610b0e565b60405161024b9190614303565b6102af610b79565b610287610373366004613670565b610b7f565b610287610386366004613670565b610e8a565b61023e610399366004613670565b610f64565b6102876103ac366004613670565b610faf565b610330611089565b6103c1611098565b60405161024b969594939291906145c1565b6103db611323565b60405161024b9190614350565b6102876103f636600461389d565b611452565b6103306115b9565b610287610411366004613a02565b6115c8565b6102876104243660046138e7565b6116d3565b610287610437366004613533565b61188c565b6102676119b2565b610287610452366004613670565b611a5f565b610287610465366004613670565b611de3565b61047d610478366004613478565b6121d8565b60405161024b919061452c565b610492612205565b60405161024b9190614cb5565b6102af61261e565b6102876104b5366004613983565b6126b8565b6102af6127b2565b61047d6104d036600461359d565b6127b8565b6103306104e336600461384a565b6127e4565b6000818152601b6020526040902080546060919061050590615432565b80601f016020809104026020016040519081016040528092919081815260200182805461053190615432565b801561057e5780601f106105535761010080835404028352916020019161057e565b820191906000526020600020905b81548152906001019060200180831161056157829003601f168201915b50505050509050919050565b60006001600160e01b031982167f4e2312e00000000000000000000000000000000000000000000000000000000014806105c857506105c882612950565b90505b919050565b6006546001600160a01b031633146106035760405162461bcd60e51b81526004016105fa90614a0b565b60405180910390fd5b60036011828154811061062657634e487b7160e01b600052603260045260246000fd5b600091825260209091206006918202016005015460ff169081111561065b57634e487b7160e01b600052602160045260246000fd5b146106785760405162461bcd60e51b81526004016105fa90614940565b73Dc64a140Aa3E981100a9becA4E685f962f0cF6C963ec7ac2f0601183815481106106b357634e487b7160e01b600052603260045260246000fd5b90600052602060002090600602016040518263ffffffff1660e01b81526004016106dd919061450a565b60006040518083038186803b1580156106f557600080fd5b505af4158015610709573d6000803e3d6000fd5b5050505061071681612982565b50565b601654156107395760405162461bcd60e51b81526004016105fa90614bf6565b601655565b6015818154811061074e57600080fd5b600091825260209091200154905081565b6015818154811061078057634e487b7160e01b600052603260045260246000fd5b906000526020600020015442116107a95760405162461bcd60e51b81526004016105fa90614864565b6002601182815481106107cc57634e487b7160e01b600052603260045260246000fd5b600091825260209091206006918202016005015460ff169081111561080157634e487b7160e01b600052602160045260246000fd5b1461081e5760405162461bcd60e51b81526004016105fa90614a79565b6001546011805473Dc64a140Aa3E981100a9becA4E685f962f0cF6C9926385c92867926001600160a01b03909116918590811061086b57634e487b7160e01b600052603260045260246000fd5b90600052602060002090600602016040518363ffffffff1660e01b8152600401610896929190614153565b60006040518083038186803b1580156108ae57600080fd5b505af41580156108c2573d6000803e3d6000fd5b5050505050565b6005546001600160a01b031633146108f35760405162461bcd60e51b81526004016105fa9061482d565b6001546040517f01b7037c0000000000000000000000000000000000000000000000000000000081526001600160a01b03909116906301b7037c906109449088908890889088908890600401614554565b600060405180830381600087803b15801561095e57600080fd5b505af1158015610972573d6000803e3d6000fd5b505050505050505050565b6011818154811061098d57600080fd5b6000918252602090912060069091020180546001820154600283015460038401546005909401546001600160a01b0390931694509092909160ff1685565b60025460035460ff8082169161010090041683565b60006014548214156109f35750306105cb565b601454821015610a8457601254604051631c1bd82f60e11b81526001600160a01b0390911690633837b05e90610a2d90859060040161450a565b60206040518083038186803b158015610a4557600080fd5b505afa158015610a59573d6000803e3d6000fd5b505050506040513d601f19601f82011682018060405250810190610a7d919061345c565b90506105cb565b6014548211156105cb57601354604051631c1bd82f60e11b81526001600160a01b0390911690633837b05e90610abe90859060040161450a565b60206040518083038186803b158015610ad657600080fd5b505afa158015610aea573d6000803e3d6000fd5b505050506040513d601f19601f820116820180604052508101906105c8919061345c565b60008181526019602090815260409182902080548351818402810184019094528084526060939283018282801561057e57602002820191906000526020600020905b81546001600160a01b03168152600190910190602001808311610b505750505050509050919050565b60165481565b60115415610bc6576005546001600160a01b0316331480610baa57506012546001600160a01b031633145b610bc65760405162461bcd60e51b81526004016105fa90614bbf565b6011548114610be75760405162461bcd60e51b81526004016105fa906147c1565b60185415610c075760405162461bcd60e51b81526004016105fa90614ae7565b60175415610c275760405162461bcd60e51b81526004016105fa90614b1c565b600154601254601180546040517f699e0add000000000000000000000000000000000000000000000000000000008152919373Dc64a140Aa3E981100a9becA4E685f962f0cF6C99363699e0add93610c92936001600160a01b0393841693600a93169160040161411e565b60006040518083038186803b158015610caa57600080fd5b505af4158015610cbe573d6000803e3d6000fd5b505050506040513d6000823e601f3d908101601f19168201604052610ce6919081019061378b565b8154600180820184556000938452602093849020835160069093020180546001600160a01b0319166001600160a01b03909316929092178255828401519082015560408201516002820155606082015160038201556080820151805192939192610d569260048501920190613192565b5060a082015160058201805460ff19166001836006811115610d8857634e487b7160e01b600052602160045260246000fd5b0217905550506015805460018101825560009182527f55f448fdea98c4d29eb340757ef0a66cd03dbb9538908a6a81d96026b71ec475015550610dc96129ca565b7f152ec8ae15d347b2d2a8f0858caa29bcaaa0906749a1f43e08bfe799834602403082604051610dfa929190614153565b60405180910390a16013546001600160a01b031615610716576013546040517f4a77234e0000000000000000000000000000000000000000000000000000000081526001600160a01b0390911690634a77234e90610e5c90849060040161450a565b600060405180830381600087803b158015610e7657600080fd5b505af11580156108c2573d6000803e3d6000fd5b6006546001600160a01b03163314610eb45760405162461bcd60e51b81526004016105fa90614a0b565b600260118281548110610ed757634e487b7160e01b600052603260045260246000fd5b600091825260209091206006918202016005015460ff1690811115610f0c57634e487b7160e01b600052602160045260246000fd5b14610f295760405162461bcd60e51b81526004016105fa90614ab0565b73Dc64a140Aa3E981100a9becA4E685f962f0cF6C96324b28602601183815481106106b357634e487b7160e01b600052603260045260246000fd5b6011546000828152601c602052604090205460609114610f965760405162461bcd60e51b81526004016105fa906149d4565b6000828152601b60205260409020805461050590615432565b6006546001600160a01b03163314610fd95760405162461bcd60e51b81526004016105fa90614a0b565b600460118281548110610ffc57634e487b7160e01b600052603260045260246000fd5b600091825260209091206006918202016005015460ff169081111561103157634e487b7160e01b600052602160045260246000fd5b1461104e5760405162461bcd60e51b81526004016105fa90614b51565b73Dc64a140Aa3E981100a9becA4E685f962f0cF6C96359111fb5601183815481106106b357634e487b7160e01b600052603260045260246000fd5b6013546001600160a01b031681565b60048054600554600654600754600880546001600160a01b0395861696948616959093169391926110c890615432565b80601f01602080910402602001604051908101604052809291908181526020018280546110f490615432565b80156111415780601f1061111657610100808354040283529160200191611141565b820191906000526020600020905b81548152906001019060200180831161112457829003601f168201915b50506040805160e0810182526006870180546001600160a01b03168252600788015460208084019190915260088901548385015260098901546060840152600a890180548551818402810184019096528086529899989397509195506080870194509091908301828280156111d557602002820191906000526020600020905b8154815260200190600101908083116111c1575b5050505050815260200160058201805480602002602001604051908101604052809291908181526020016000905b828210156112975783829060005260206000209060020201604051806040016040529081600082015481526020016001820180548060200260200160405190810160405280929190818152602001828054801561127f57602002820191906000526020600020905b81548152602001906001019080831161126b575b50505050508152505081526020019060010190611203565b50505050815260200160068201805480602002602001604051908101604052809291908181526020016000905b8282101561131657600084815260209081902060408051606081018252600286029092018054835260019081015460ff80821685870152610100909104169183019190915290835290920191016112c4565b5050505081525050905086565b60606011805480602002602001604051908101604052809291908181526020016000905b828210156114495760008481526020908190206040805160c0810182526006860290920180546001600160a01b0316835260018101548385015260028101548383015260038101546060840152600481018054835181870281018701909452808452939491936080860193928301828280156113e257602002820191906000526020600020905b8154815260200190600101908083116113ce575b5050509183525050600582015460209091019060ff16600681111561141757634e487b7160e01b600052602160045260246000fd5b600681111561143657634e487b7160e01b600052602160045260246000fd5b8152505081526020019060010190611347565b50505050905090565b6005546001600160a01b0316331461147c5760405162461bcd60e51b81526004016105fa9061482d565b600b54811461149d5760405162461bcd60e51b81526004016105fa906146f6565b6001601184815481106114c057634e487b7160e01b600052603260045260246000fd5b600091825260209091206006918202016005015460ff16908111156114f557634e487b7160e01b600052602160045260246000fd5b146115125760405162461bcd60e51b81526004016105fa90614753565b73Dc64a140Aa3E981100a9becA4E685f962f0cF6C9636a0a24f16011858154811061154d57634e487b7160e01b600052603260045260246000fd5b906000526020600020906006020184846040518463ffffffff1660e01b815260040161157b93929190614c9b565b60006040518083038186803b15801561159357600080fd5b505af41580156115a7573d6000803e3d6000fd5b505050506115b483612982565b505050565b6012546001600160a01b031681565b6115d1816109e0565b6001600160a01b0316336001600160a01b0316146116015760405162461bcd60e51b81526004016105fa9061478a565b6000828152601c60205260409020541580159061162d57506011546000838152601c6020526040902054145b1561168c57604051630a072d7b60e41b8152339063a072d7b09061165590859060040161450a565b600060405180830381600087803b15801561166f57600080fd5b505af1158015611683573d6000803e3d6000fd5b505050506116cf565b6000828152601960209081526040822080546001810182559083529082200180546001600160a01b0319163317905560188054916116c98361547a565b91905055505b5050565b6006546001600160a01b031633146116fd5760405162461bcd60e51b81526004016105fa90614a0b565b60046011838154811061172057634e487b7160e01b600052603260045260246000fd5b600091825260209091206006918202016005015460ff169081111561175557634e487b7160e01b600052602160045260246000fd5b146117725760405162461bcd60e51b81526004016105fa90614b51565b6015828154811061179357634e487b7160e01b600052603260045260246000fd5b906000526020600020015442116117bc5760405162461bcd60e51b81526004016105fa90614864565b600b548151146117de5760405162461bcd60e51b81526004016105fa906146f6565b6001546011805473Dc64a140Aa3E981100a9becA4E685f962f0cF6C992631b948e49926001600160a01b03909116918690811061182b57634e487b7160e01b600052603260045260246000fd5b9060005260206000209060060201846040518463ffffffff1660e01b81526004016118589392919061416c565b60006040518083038186803b15801561187057600080fd5b505af4158015611884573d6000803e3d6000fd5b505050505050565b600054610100900460ff16806118a5575060005460ff16155b6118c15760405162461bcd60e51b81526004016105fa90614977565b600054610100900460ff161580156118ec576000805460ff1961ff0019909116610100171660011790555b60006118fe6040840160208501613439565b6001600160a01b031614156119255760405162461bcd60e51b81526004016105fa90614a42565b600080546201000033027fffffffffffffffffffff0000000000000000000000000000000000000000ffff909116179055600180546001600160a01b038781166001600160a01b031992831617909255601280549287169290911691909117905560148390558160046119988282615646565b505080156108c2576000805461ff00191690555050505050565b6011546040517f5cc1f6b500000000000000000000000000000000000000000000000000000000815260009173Dc64a140Aa3E981100a9becA4E685f962f0cF6C991635cc1f6b591611a0a91600991906004016143f4565b60206040518083038186803b158015611a2257600080fd5b505af4158015611a36573d6000803e3d6000fd5b505050506040513d601f19601f82011682018060405250810190611a5a9190613650565b905090565b60003382604051602001611a74929190614097565b60408051601f1981840301815291815281516020928301206000818152601a90935291205460098054929350611ada929091908110611ac357634e487b7160e01b600052603260045260246000fd5b9060005260206000209060050201600301546109e0565b6001600160a01b0316336001600160a01b031614611b0a5760405162461bcd60e51b81526004016105fa9061478a565b6000818152601a6020526040812054600980549091908110611b3c57634e487b7160e01b600052603260045260246000fd5b600091825260209091206001600590920201015460ff166003811115611b7257634e487b7160e01b600052602160045260246000fd5b14611b8f5760405162461bcd60e51b81526004016105fa90614688565b6000818152601a6020526040902054600980549091908110611bc157634e487b7160e01b600052603260045260246000fd5b600091825260208220600590910201805491611bdc8361547a565b90915550506000818152601a602052604090205460098054611d9292908110611c1557634e487b7160e01b600052603260045260246000fd5b906000526020600020906005020160020154336001600160a01b0316634dd828806004600501601760030160008781526020019081526020016000205481548110611c7057634e487b7160e01b600052603260045260246000fd5b90600052602060002090600502016004018054611c8c90615432565b80601f0160208091040260200160405190810160405280929190818152602001828054611cb890615432565b8015611d055780601f10611cda57610100808354040283529160200191611d05565b820191906000526020600020905b815481529060010190602001808311611ce857829003601f168201915b5050505050806020019051810190611d1d9190613885565b6040518263ffffffff1660e01b8152600401611d39919061450a565b60006040518083038186803b158015611d5157600080fd5b505afa158015611d65573d6000803e3d6000fd5b505050506040513d6000823e601f3d908101601f19168201604052611d8d91908101906136b0565b612ca6565b6000818152601a602052604081208190556017805491611db18361541b565b90915550506040517f71bd81ebe1d98a2944767394e76a9aff18724b2cf04e1db71254f804544b35c790600090a15050565b600060118281548110611e0657634e487b7160e01b600052603260045260246000fd5b600091825260209091206006918202016005015460ff1690811115611e3b57634e487b7160e01b600052602160045260246000fd5b14611e585760405162461bcd60e51b81526004016105fa90614c64565b611e606119b2565b1515600114611e815760405162461bcd60e51b81526004016105fa906148d2565b600160118281548110611ea457634e487b7160e01b600052603260045260246000fd5b906000526020600020906006020160050160006101000a81548160ff02191690836006811115611ee457634e487b7160e01b600052602160045260246000fd5b02179055506040517f0e23b7ca00000000000000000000000000000000000000000000000000000000815273Dc64a140Aa3E981100a9becA4E685f962f0cF6C990630e23b7ca90611f3f908490601b90600a90600401614d4c565b60206040518083038186803b158015611f5757600080fd5b505af4158015611f6b573d6000803e3d6000fd5b505050506040513d601f19601f82011682018060405250810190611f8f9190613650565b611fab5760405162461bcd60e51b81526004016105fa906147f8565b6001546012546011805473Dc64a140Aa3E981100a9becA4E685f962f0cF6C993630c5190e2936001600160a01b0391821693911691600a91908790811061200257634e487b7160e01b600052603260045260246000fd5b60009182526020808320600d548452601b909152604090922080546006909202909201919061203090615432565b80601f016020809104026020016040519081016040528092919081815260200182805461205c90615432565b80156120a95780601f1061207e576101008083540402835291602001916120a9565b820191906000526020600020905b81548152906001019060200180831161208c57829003601f168201915b50505050508060200190518101906120c19190613885565b6040518663ffffffff1660e01b81526004016120e19594939291906140cd565b60006040518083038186803b1580156120f957600080fd5b505af415801561210d573d6000803e3d6000fd5b50506001546011805473Dc64a140Aa3E981100a9becA4E685f962f0cF6C994506377ae1d7393506001600160a01b03909216918590811061215e57634e487b7160e01b600052603260045260246000fd5b90600052602060002090600602016004600601601b6016546040518663ffffffff1660e01b81526004016121969594939291906141c9565b60006040518083038186803b1580156121ae57600080fd5b505af41580156121c2573d6000803e3d6000fd5b505050506121cf81610716565b61071681612d29565b7fbc197c810000000000000000000000000000000000000000000000000000000098975050505050505050565b61220d6131dd565b6040805160e081018252600480546001600160a01b03908116835260055481166020840152600654169282019290925260075460608201526008805491929160808401919061225b90615432565b80601f016020809104026020016040519081016040528092919081815260200182805461228790615432565b80156122d45780601f106122a9576101008083540402835291602001916122d4565b820191906000526020600020905b8154815290600101906020018083116122b757829003601f168201915b5050505050815260200160058201805480602002602001604051908101604052809291908181526020016000905b8282101561243957838290600052602060002090600502016040518060a0016040529081600082015481526020016001820160009054906101000a900460ff16600381111561236157634e487b7160e01b600052602160045260246000fd5b600381111561238057634e487b7160e01b600052602160045260246000fd5b815260200160028201548152602001600382015481526020016004820180546123a890615432565b80601f01602080910402602001604051908101604052809291908181526020018280546123d490615432565b80156124215780601f106123f657610100808354040283529160200191612421565b820191906000526020600020905b81548152906001019060200180831161240457829003601f168201915b50505050508152505081526020019060010190612302565b505050908252506040805160e0810182526006840180546001600160a01b03168252600785015460208381019190915260088601548385015260098601546060840152600a8601805485518184028101840190965280865295820195939492936080860193928301828280156124ce57602002820191906000526020600020905b8154815260200190600101908083116124ba575b5050505050815260200160058201805480602002602001604051908101604052809291908181526020016000905b828210156125905783829060005260206000209060020201604051806040016040529081600082015481526020016001820180548060200260200160405190810160405280929190818152602001828054801561257857602002820191906000526020600020905b815481526020019060010190808311612564575b505050505081525050815260200190600101906124fc565b50505050815260200160068201805480602002602001604051908101604052809291908181526020016000905b8282101561260f57600084815260209081902060408051606081018252600286029092018054835260019081015460ff80821685870152610100909104169183019190915290835290920191016125bd565b50505091525050905250905090565b600a546040517f70a082310000000000000000000000000000000000000000000000000000000081526000916001600160a01b0316906370a08231906126689030906004016140b9565b60206040518083038186803b15801561268057600080fd5b505afa158015612694573d6000803e3d6000fd5b505050506040513d601f19601f82011682018060405250810190611a5a9190613885565b6005546001600160a01b031633146126e25760405162461bcd60e51b81526004016105fa90614651565b6009548211156127045760405162461bcd60e51b81526004016105fa9061489b565b6003600980548490811061272857634e487b7160e01b600052603260045260246000fd5b600091825260209091206001600590920201015460ff16600381111561275e57634e487b7160e01b600052602160045260246000fd5b1461277b5760405162461bcd60e51b81526004016105fa9061461a565b6127858282612ca6565b6040517f71bd81ebe1d98a2944767394e76a9aff18724b2cf04e1db71254f804544b35c790600090a15050565b60145481565b7ff23a6e61000000000000000000000000000000000000000000000000000000005b9695505050505050565b6005546000906001600160a01b031633146128115760405162461bcd60e51b81526004016105fa90614b88565b6013546001600160a01b03161561283a5760405162461bcd60e51b81526004016105fa906146bf565b6000546014546040517fd6b3ad8d00000000000000000000000000000000000000000000000000000000815273Dc64a140Aa3E981100a9becA4E685f962f0cF6C99263d6b3ad8d926128a292620100009092046001600160a01b031691879190600401614212565b604080518083038186803b1580156128b957600080fd5b505af41580156128cd573d6000803e3d6000fd5b505050506040513d601f19601f820116820180604052508101906128f19190613617565b601380546001600160a01b0319166001600160a01b0393841617908190556040519193507fbd2e7fbdc9b1c19997e58c63e6ea1b5a02acd8dd9fd5d76f4bb18634f7155e8092612943929116906140b9565b60405180910390a1919050565b6001600160e01b031981167f01ffc9a70000000000000000000000000000000000000000000000000000000014919050565b6007546129909060016150be565b61299a90426150a6565b601582815481106129bb57634e487b7160e01b600052603260045260246000fd5b60009182526020909120015550565b60005b600954811015612c7a57600060098054839081106129fb57634e487b7160e01b600052603260045260246000fd5b600091825260209091206001600590920201015460ff166003811115612a3157634e487b7160e01b600052602160045260246000fd5b14612a7557612a7060046005018281548110612a5d57634e487b7160e01b600052603260045260246000fd5b9060005260206000209060050201612e12565b612c68565b6000306001600160a01b0316633837b05e60046005018481548110612aaa57634e487b7160e01b600052603260045260246000fd5b9060005260206000209060050201600301546040518263ffffffff1660e01b8152600401612ad8919061450a565b60206040518083038186803b158015612af057600080fd5b505afa158015612b04573d6000803e3d6000fd5b505050506040513d601f19601f82011682018060405250810190612b28919061345c565b9050612b348183612f06565b806001600160a01b03166387c0b37460046005018481548110612b6757634e487b7160e01b600052603260045260246000fd5b90600052602060002090600502016004018054612b8390615432565b80601f0160208091040260200160405190810160405280929190818152602001828054612baf90615432565b8015612bfc5780601f10612bd157610100808354040283529160200191612bfc565b820191906000526020600020905b815481529060010190602001808311612bdf57829003601f168201915b5050505050806020019051810190612c149190613885565b6014546040518363ffffffff1660e01b8152600401612c34929190614d62565b600060405180830381600087803b158015612c4e57600080fd5b505af1158015612c62573d6000803e3d6000fd5b50505050505b80612c728161547a565b9150506129cd565b506040517f71bd81ebe1d98a2944767394e76a9aff18724b2cf04e1db71254f804544b35c790600090a1565b601154612cb5906001906150dd565b6000838152601c602052604090205414612ce15760405162461bcd60e51b81526004016105fa90614c2d565b6000828152601c60205260408120805491612cfb8361547a565b90915550506000828152601b602090815260409091208251612d1f9284019061323a565b506116cf8261302a565b6013546001600160a01b031615801590612dc45750601360009054906101000a90046001600160a01b03166001600160a01b031663999925066040518163ffffffff1660e01b815260040160206040518083038186803b158015612d8c57600080fd5b505afa158015612da0573d6000803e3d6000fd5b505050506040513d601f19601f82011682018060405250810190612dc49190613650565b15610716576013546040517fb992db0f0000000000000000000000000000000000000000000000000000000081526001600160a01b039091169063b992db0f90610e5c90849060040161450a565b600181015460039060ff1681811115612e3b57634e487b7160e01b600052602160045260246000fd5b1115612e595760405162461bcd60e51b81526004016105fa90614909565b8054816000612e678361547a565b9091555060039050600182015460ff166003811115612e9657634e487b7160e01b600052602160045260246000fd5b1461071657610716816002015473Dc64a140Aa3E981100a9becA4E685f962f0cF6C963b3d73707846040518263ffffffff1660e01b8152600401612eda919061450a565b60006040518083038186803b158015612ef257600080fd5b505af4158015611d65573d6000803e3d6000fd5b80601760030160008460046005018581548110612f3357634e487b7160e01b600052603260045260246000fd5b90600052602060002090600502016004018054612f4f90615432565b80601f0160208091040260200160405190810160405280929190818152602001828054612f7b90615432565b8015612fc85780601f10612f9d57610100808354040283529160200191612fc8565b820191906000526020600020905b815481529060010190602001808311612fab57829003601f168201915b5050505050806020019051810190612fe09190613885565b604051602001612ff1929190614097565b60408051601f1981840301815291815281516020928301208352908201929092520160009081209190915560178054916116c98361547a565b60005b6000828152601960205260409020548110156116cf57600082815260196020526040812080548390811061307157634e487b7160e01b600052603260045260246000fd5b6000918252602090912001546001600160a01b0316146131805760008281526019602052604090208054829081106130b957634e487b7160e01b600052603260045260246000fd5b600091825260209091200154604051630a072d7b60e41b81526001600160a01b039091169063a072d7b0906130f290859060040161450a565b600060405180830381600087803b15801561310c57600080fd5b505af1158015613120573d6000803e3d6000fd5b505050600083815260196020526040902080549091508290811061315457634e487b7160e01b600052603260045260246000fd5b6000918252602082200180546001600160a01b0319169055601880549161317a8361541b565b91905055505b8061318a8161547a565b91505061302d565b8280548282559060005260206000209081019282156131cd579160200282015b828111156131cd5782518255916020019190600101906131b2565b506131d99291506132ad565b5090565b6040518060e0016040528060006001600160a01b0316815260200160006001600160a01b0316815260200160006001600160a01b031681526020016000815260200160608152602001606081526020016132356132c2565b905290565b82805461324690615432565b90600052602060002090601f01602090048101928261326857600085556131cd565b82601f1061328157805160ff19168380011785556131cd565b828001600101855582156131cd57918201828111156131cd5782518255916020019190600101906131b2565b5b808211156131d957600081556001016132ae565b6040518060e0016040528060006001600160a01b031681526020016000815260200160008152602001600081526020016060815260200160608152602001606081525090565b80356105cb81615948565b60008083601f840112613324578182fd5b50813567ffffffffffffffff81111561333b578182fd5b602083019150836020808302850101111561335557600080fd5b9250929050565b600082601f83011261336c578081fd5b8151602061338161337c83614eb6565b614e8c565b828152818101908583018385028701840188101561339d578586fd5b855b858110156133bb5781518452928401929084019060010161339f565b5090979650505050505050565b60008083601f8401126133d9578182fd5b50813567ffffffffffffffff8111156133f0578182fd5b60208301915083602082850101111561335557600080fd5b80516105cb81615948565b8051600781106105cb57600080fd5b600060e08284031215613433578081fd5b50919050565b60006020828403121561344a578081fd5b813561345581615948565b9392505050565b60006020828403121561346d578081fd5b815161345581615948565b60008060008060008060008060a0898b031215613493578384fd5b883561349e81615948565b975060208901356134ae81615948565b9650604089013567ffffffffffffffff808211156134ca578586fd5b6134d68c838d01613313565b909850965060608b01359150808211156134ee578586fd5b6134fa8c838d01613313565b909650945060808b0135915080821115613512578384fd5b5061351f8b828c016133c8565b999c989b5096995094979396929594505050565b60008060008060808587031215613548578182fd5b843561355381615948565b9350602085013561356381615948565b925060408501359150606085013567ffffffffffffffff811115613585578182fd5b61359187828801613422565b91505092959194509250565b60008060008060008060a087890312156135b5578384fd5b86356135c081615948565b955060208701356135d081615948565b94506040870135935060608701359250608087013567ffffffffffffffff8111156135f9578283fd5b61360589828a016133c8565b979a9699509497509295939492505050565b60008060408385031215613629578182fd5b825161363481615948565b602084015190925061364581615948565b809150509250929050565b600060208284031215613661578081fd5b81518015158114613455578182fd5b600060208284031215613681578081fd5b5035919050565b600060208284031215613699578081fd5b81356001600160e01b031981168114613455578182fd5b6000602082840312156136c1578081fd5b815167ffffffffffffffff8111156136d7578182fd5b8201601f810184136136e7578182fd5b80516136f561337c82614eda565b818152856020838501011115613709578384fd5b61371a8260208301602086016153eb565b95945050505050565b60008060008060006080868803121561373a578283fd5b853561374581615948565b94506020860135935060408601359250606086013567ffffffffffffffff81111561376e578182fd5b61377a88828901613313565b969995985093965092949392505050565b60006020828403121561379c578081fd5b815167ffffffffffffffff808211156137b3578283fd5b9083019060c082860312156137c6578283fd5b60405160c0810181811083821117156137e1576137e16154d7565b6040526137ed83613408565b815260208301516020820152604083015160408201526060830151606082015260808301518281111561381e578485fd5b61382a8782860161335c565b60808301525061383c60a08401613413565b60a082015295945050505050565b60006020828403121561385b578081fd5b813567ffffffffffffffff811115613871578182fd5b61387d84828501613422565b949350505050565b600060208284031215613896578081fd5b5051919050565b6000806000604084860312156138b1578081fd5b83359250602084013567ffffffffffffffff8111156138ce578182fd5b6138da86828701613313565b9497909650939450505050565b600080604083850312156138f9578182fd5b8235915060208084013567ffffffffffffffff811115613917578283fd5b8401601f81018613613927578283fd5b803561393561337c82614eb6565b81815283810190838501858402850186018a1015613951578687fd5b8694505b83851015613973578035835260019490940193918501918501613955565b5080955050505050509250929050565b60008060408385031215613995578182fd5b82359150602083013567ffffffffffffffff8111156139b2578182fd5b8301601f810185136139c2578182fd5b80356139d061337c82614eda565b8181528660208385010111156139e4578384fd5b81602084016020830137908101602001929092525090939092509050565b60008060408385031215613a14578182fd5b50508035926020909101359150565b6001600160a01b03169052565b818352602080840193600091908185020181018584845b87811015613ad55782840389528135609e19883603018112613a67578687fd5b87018035855260a086820135613a7c8161595d565b613a8888880182613d66565b5060408281013590870152606080830135908701526080613aab81840184615043565b93508282890152613abf8389018583613d10565b9c89019c97505050928601925050600101613a47565b5091979650505050505050565b6000815180845260208085018081965082840281019150828601855b85811015613ad5578284038952815160a08151865286820151613b2388880182613d66565b506040828101519087015260608083015190870152608091820151918601819052613b5081870183613d3a565b9a87019a9550505090840190600101613afe565b60008284526020808501945082825b85811015613bbd578135875282820135613b8c8161596a565b60ff9081168885015260409083820135613ba58161596a565b16908801526060968701969190910190600101613b73565b509495945050505050565b6000815180845260208085019450808401835b83811015613bbd578151805188528381015160ff908116858a0152604091820151169088015260609096019590820190600101613bdb565b6000815480845260208085019450838352808320835b83811015613bbd578154875260018083015460ff808216868b015260089190911c16604089015260609097019660029092019101613c29565b60008284527f07ffffffffffffffffffffffffffffffffffffffffffffffffffffffffffffff831115613c93578081fd5b6020830280836020870137939093016020019283525090919050565b6000815180845260208085019450808401835b83811015613bbd57815187529582019590820190600101613cc2565b6000815480845260208085019450838352808320835b83811015613bbd57815487529582019560019182019101613cf4565b60008284528282602086013780602084860101526020601f19601f85011685010190509392505050565b60008151808452613d528160208601602086016153eb565b601f01601f19169290920160200192915050565b60048110613d7657613d766154c1565b9052565b60078110613d7657613d766154c1565b60008135613d9781615948565b6001600160a01b03168352602082810135818501526040808401358186015260608085013590860152613dcd6080850185614fb3565b60e06080880152613de260e088018284613c62565b915050613df260a0860186614fb3565b87830360a08901528083528483018582028401860183885b84811015613e6957868303601f19018452813536879003603e19018112613e2f578a8bfd5b860180358452613e418a820182614fb3565b9150898b860152613e558a86018383613c62565b958b01959450505090880190600101613e0a565b5050613e7860c08a018a614ffb565b9750955089810360c08b0152613e8f818888613b64565b9a9950505050505050505050565b60006001600160a01b038251168352602080830151818501526040808401518186015260608401516060860152608084015160e06080870152613ee360e0870182613caf565b905060a085015186820360a08801528181518084528584019150858682028501018684019350875b82811015613f4a57858203601f19018452845180518352880151888301889052613f3788840182613caf565b9589019594890194925050600101613f0b565b5060c0890151965089810360c08b0152613e8f8188613bc8565b60006001600160a01b038254168352600180830154602081818701526002915081850154604081818901526003870154606089015260e06080890152613fb060e0890160048901613cde565b88810360a08a01526005880180548083529088528488209193508484019085810285018601895b8281101561401057601f19878303018452845482528588830152613fff8683018b8701613cde565b948901949388019391508901613fd7565b508b810360c08d01526140268160068d01613c13565b9c9b505050505050505050505050565b60006001600160a01b03825416835260018201546020840152600282015460408401526003820154606084015260c0608084015261407a60c0840160048401613cde565b60ff60058401541661408f60a0860182613d7a565b509392505050565b60609290921b6bffffffffffffffffffffffff19168252601482015260340190565b6001600160a01b0391909116815260200190565b60006001600160a01b03808816835280871660208401525060a060408301526140f960a0830186613f64565b828103606084015261410b8186614036565b9150508260808301529695505050505050565b60006001600160a01b038087168352608060208401526141416080840187613f64565b94166040830152506060015292915050565b6001600160a01b03929092168252602082015260400190565b6000606082016001600160a01b038616835260208581850152606060408501528185518084526080860191508287019350845b818110156141bb5784518352938301939183019160010161419f565b509098975050505050505050565b60006001600160a01b038716825260a060208301526141eb60a0830187614036565b82810360408401526141fd8187613f64565b60608401959095525050608001529392505050565b60006001600160a01b038516825260606020830152833561423281615948565b61423f6060840182613a23565b5061424c60208501613308565b6142596080840182613a23565b5061426660408501613308565b61427360a0840182613a23565b50606084013560c083015261428b6080850185615043565b60e0808501526142a061014085018284613d10565b9150506142b060a0860186614fb3565b605f1980868503016101008701526142c9848385613a30565b93506142d860c0890189615088565b9250808685030161012087015250506142f18282613d8a565b92505050826040830152949350505050565b6020808252825182820181905260009190848201906040850190845b818110156143445783516001600160a01b03168352928401929184019160010161431f565b50909695505050505050565b60208082528251828201819052600091906040908185019080840286018301878501865b838110156141bb57603f19898403018552815160c06001600160a01b03825116855288820151898601528782015188860152606080830151818701525060808083015182828801526143c883880182613caf565b9250505060a08083015192506143e081870184613d7a565b509588019593505090860190600101614374565b60006040820160408352808554808352606092508285019150602083818302870101888652818620865b848110156144ed57605f1989840301865260a082548452600160ff818501541661444a87870182613d66565b5060028401546040860152600384015489860152600484018260808701528a815461447481615432565b94880185905260c094818516801561449357600181146144a7576144d2565b60ff1983168a88015260e08a0193506144d2565b848f528a8f208f5b838110156144ca5781548c82018a0152908701908c016144af565b8b0188019450505b5050509887019895505050600592909201915060010161441e565b50509501959095525091949350505050565b901515815260200190565b90815260200190565b92835260ff918216602084015216604082015260600190565b6001600160e01b031991909116815260200190565b6000602082526134556020830184613d3a565b60006001600160a01b038716825285602083015284604083015260806060830152614583608083018486613c62565b979650505050505050565b600060a0820190506001600160a01b03871682528560208301528460408301528360608301526127da6080830184613d7a565b60006001600160a01b038089168352808816602084015280871660408401525084606083015260c060808301526145fb60c0830185613d3a565b82810360a084015261460d8185613e9d565b9998505050505050505050565b60208082526016908201527f6f6e6c7920496e67657374547970652e4d616e75616c00000000000000000000604082015260600190565b6020808252600a908201527f4f6e6c794b656570657200000000000000000000000000000000000000000000604082015260600190565b60208082526013908201527f496e67657374206e6f742043616c6c6261636b00000000000000000000000000604082015260600190565b60208082526010908201527f536f6c76657220686173206368696c6400000000000000000000000000000000604082015260600190565b60208082526026908201527f7061796f7574732e6c656e677468206d757374206d61746368206f7574636f6d60408201527f65536c6f74730000000000000000000000000000000000000000000000000000606082015260800190565b60208082526016908201527f436f6e646974696f6e206e6f7420457865637574656400000000000000000000604082015260600190565b60208082526015908201527f6d73672e73656e646572206e6f7420736f6c7665720000000000000000000000604082015260600190565b60208082526018908201527f496e76616c696420696e64657820746f20707265706172650000000000000000604082015260600190565b6020808252818101527f526563697069656e7420736c6f74207265717569726573207570646174696e67604082015260600190565b6020808252600b908201527f4f6e6c79204b6565706572000000000000000000000000000000000000000000604082015260600190565b60208082526015908201527f54696d656c6f636b207374696c6c206c6f636b65640000000000000000000000604082015260600190565b60208082526011908201527f536c6f74206f7574206f662073636f7065000000000000000000000000000000604082015260600190565b6020808252600f908201527f696e676573747320696e76616c69640000000000000000000000000000000000604082015260600190565b60208082526012908201527f496e76616c696420696e67657374547970650000000000000000000000000000604082015260600190565b60208082526018908201527f4e6f74204172626974726174696f6e5265717565737465640000000000000000604082015260600190565b6020808252602e908201527f496e697469616c697a61626c653a20636f6e747261637420697320616c72656160408201527f647920696e697469616c697a6564000000000000000000000000000000000000606082015260800190565b60208082526011908201527f536c6f7420696e76616c6964207665722e000000000000000000000000000000604082015260600190565b6020808252600f908201527f4f6e6c792061726269747261746f720000000000000000000000000000000000604082015260600190565b6020808252600e908201527f4b656570657220696e76616c6964000000000000000000000000000000000000604082015260600190565b60208082526014908201527f4f7574636f6d65206e6f742070726f706f736564000000000000000000000000604082015260600190565b60208082526013908201527f4e6f74204f7574636f6d6550726f706f73656400000000000000000000000000604082015260600190565b6020808252818101527f46756c66696c6c206f7574676f696e672063616c6c6261636b73206669727374604082015260600190565b6020808252818101527f46756c66696c6c20696e636f6d696e672063616c6c6261636b73206669727374604082015260600190565b60208082526016908201527f4e6f74204172626974726174696f6e50656e64696e6700000000000000000000604082015260600190565b6020808252600b908201527f4f6e6c79206b6565706572000000000000000000000000000000000000000000604082015260600190565b60208082526012908201527f4f6e6c79206b65657065722f706172656e740000000000000000000000000000604082015260600190565b6020808252600e908201527f547261636b696e67496420736574000000000000000000000000000000000000604082015260600190565b60208082526014908201527f536c6f742076657273696f6e20696e76616c6964000000000000000000000000604082015260600190565b6020808252600d908201527f6e6f7420496e6974696174656400000000000000000000000000000000000000604082015260600190565b60008482526040602083015261371a604083018486613c62565b6000602082526001600160a01b03808451166020840152806020850151166040840152506040830151614ceb6060840182613a23565b5060608301516080830152608083015160e060a0840152614d10610100840182613d3a565b905060a0840151601f19808584030160c0860152614d2e8383613ae2565b925060c08601519150808584030160e08601525061371a8282613e9d565b9283526020830191909152604082015260600190565b918252602082015260400190565b6000808335601e19843603018112614d86578283fd5b83018035915067ffffffffffffffff821115614da0578283fd5b602090810192508102360382131561335557600080fd5b6000808335601e19843603018112614dcd578182fd5b83018035915067ffffffffffffffff821115614de7578283fd5b602001915060608102360382131561335557600080fd5b6000808335601e19843603018112614e14578182fd5b83018035915067ffffffffffffffff821115614e2e578283fd5b60200191503681900382131561335557600080fd5b60008235603e19833603018112614e58578182fd5b9190910192915050565b6000823560de19833603018112614e58578182fd5b60008235609e19833603018112614e58578182fd5b60405181810167ffffffffffffffff81118282101715614eae57614eae6154d7565b604052919050565b600067ffffffffffffffff821115614ed057614ed06154d7565b5060209081020190565b600067ffffffffffffffff821115614ef457614ef46154d7565b50601f01601f191660200190565b60009081526020902090565b602084108015614f6457601f841160018114614f3557614f2e8685615467565b8355614f5e565b614f3e83614f02565b614f536020601f8801048201600183016150f4565b50614f5e868461553e565b506108c2565b8160005260206000206020601f8701048101601f87168015614f8e57614f8e8160001984016154ed565b50614fa16020601f8801048301826150f4565b50506001856002021782555050505050565b6000808335601e19843603018112614fc9578283fd5b830160208101925035905067ffffffffffffffff811115614fe957600080fd5b60208102360383131561335557600080fd5b6000808335601e19843603018112615011578283fd5b830160208101925035905067ffffffffffffffff81111561503157600080fd5b60608102360383131561335557600080fd5b6000808335601e19843603018112615059578283fd5b830160208101925035905067ffffffffffffffff81111561507957600080fd5b80360383131561335557600080fd5b6000823560de1983360301811261509d578182fd5b90910192915050565b600082198211156150b9576150b96154ab565b500190565b60008160001904831182151516156150d8576150d86154ab565b500290565b6000828210156150ef576150ef6154ab565b500390565b5b818110156116cf57600081556001016150f5565b68010000000000000000831115615122576151226154d7565b8054838255808410156151c0577f7fffffffffffffffffffffffffffffffffffffffffffffffffffffffffffffff6001818311811615615164576151646154ab565b6002828711821615615178576151786154ab565b600085815260208120909350878202810190828602015b808210156151ba576151a38586845461555c565b82556151b185858401615501565b9082019061518f565b50505050505b50816151cb82614f02565b6000805b86811015615201576151eb6151e48588614e43565b8385615825565b60209390930192600292909201916001016151cf565b50505050505050565b68010000000000000000831115615223576152236154d7565b8054838255808410156152bb577f7fffffffffffffffffffffffffffffffffffffffffffffffffffffffffffffff6001818311811615615265576152656154ab565b6002828711821615615279576152796154ab565b600085815260208120909350878202810190828602015b808210156152b5576152a48586845461555c565b825584848301558282019150615290565b50505050505b50816152c682614f02565b6000805b86811015615201576152dd8483856158ed565b60609390930192600292909201916001016152ca565b67ffffffffffffffff83111561530b5761530b6154d7565b6153158154615432565b600080601f8611601f8411818117156153345761533186614f02565b92505b8015615363576020601f8901048301602089101561534f5750825b6153616020601f8801048501826150f4565b505b50806001811461538f5760009450871561537e578387013594505b6153888886615467565b86556153e1565b601f198816945082845b868110156153b95788860135825560209586019560019092019101615399565b50888610156153d657878501356000196008601f8c16021c191681555b506001600289020186555b5050505050505050565b60005b838110156154065781810151838201526020016153ee565b83811115615415576000848401525b50505050565b60008161542a5761542a6154ab565b506000190190565b60028104600182168061544657607f821691505b6020821081141561343357634e487b7160e01b600052602260045260246000fd5b600019600883021c191660029091021790565b600060001982141561548e5761548e6154ab565b5060010190565b634e487b7160e01b600052600060045260246000fd5b634e487b7160e01b600052601160045260246000fd5b634e487b7160e01b600052602160045260246000fd5b634e487b7160e01b600052604160045260246000fd5b8054600019836020036008021c1681555050565b6801000000000000000082111561551a5761551a6154d7565b8054828255808310156115b4578160005260206000206154158282018583016150f4565b806000526020600020615552838254615467565b9091556000905550565b60089190910291821b60001990921b9182169119161790565b6001600160a01b0382166001600160a01b03198254161781555050565b813561559d81615948565b6155a78183615575565b506001602080840135828401556040840135600284015560608401356003840155600483016155d96080860186614d70565b6155e38184615501565b6000928352838320925b818110156156085782358455928501929184019185016155ed565b50505050505061561b60a0830183614d70565b615629818360058601615109565b505061563860c0830183614db7565b61541581836006860161520a565b813561565181615948565b61565b8183615575565b50600160208084013561566d81615948565b61567981848601615575565b506002604085013561568a81615948565b61569681838701615575565b50600360608601358186015560046156b16080880188614dfe565b6156be8183858b016152f3565b505060058087016156d260a08a018a614d70565b680100000000000000008111156156eb576156eb6154d7565b8254818455808210156157bf577f33333333333333333333333333333333333333333333333333333333333333338082118b161561572b5761572b6154ab565b8083118b161561573d5761573d6154ab565b506000848152898120838702810190878402015b808210156157bb576157658384845461555c565b8255828d8301558a820161577b8485835461555c565b81555089820161578d8485835461555c565b9055818901805461579d81615432565b80156157af576157af86828486614f0e565b50505090870190615751565b5050505b508196506157cc83614f02565b9550600094508492505b80831015615803576157f26157eb8884614e77565b8688615879565b9587019594830194918801916157d6565b5050505050505050506116cf61581c60c0840184614e62565b60068301615592565b811561583357615833615495565b823581556001808201602061584a81870187614d70565b6158548185615501565b6000938452828420935b8181101561097257823585559385019391830191850161585e565b811561588757615887615495565b8235815560018101602084013561589d8161595d565b600481106158ad576158ad6154c1565b60ff1982541660ff82168117835550505060408301356002820155606083013560038201556158df6080840184614dfe565b6108c28183600486016152f3565b81156158fb576158fb615495565b823581556001810160208401356159118161596a565b815460ff191660ff9190911617808255604085013561592f8161596a565b61ff008160081b1661ff00198316178355505050505050565b6001600160a01b038116811461071657600080fd5b6004811061071657600080fd5b60ff8116811461071657600080fdfea26469706673582212200afa2a038b08e13387c6b918ec8e850f61620a5f7c591b27e4b4cb9f957e76d664736f6c63430008000033",
  "deployedBytecode": "0x608060405234801561001057600080fd5b50600436106102265760003560e01c806379502c551161012a578063a072d7b0116100bd578063c98c05b71161008c578063ea8221a911610071578063ea8221a9146104ba578063f23a6e61146104c2578063fa6a2c7c146104d557610226565b8063c98c05b71461049f578063d8b62316146104a757610226565b8063a072d7b014610444578063b992db0f14610457578063bc197c811461046a578063c3f909d41461048a57610226565b806387c0b374116100f957806387c0b3741461040357806387dfee57146104165780639643cdda14610429578063999925061461043c57610226565b806379502c55146103b95780637c123627146103d357806380b204b7146103e857806380c2dde2146103fb57610226565b806336fcf48c116101bd5780634a77234e1161018c5780634dd82880116101715780634dd828801461038b5780634e46f2231461039e57806355dd978b146103b157610226565b80634a77234e146103655780634dab5e691461037857610226565b806336fcf48c146103065780633837b05e1461031d5780633ee8b6741461033d57806348cbb2fc1461035d57610226565b80630d7e149f116101f95780630d7e149f1461029c5780630d8d3975146102bc57806318782559146102cf57806326c50007146102e257610226565b80630178fe3f1461022b57806301ffc9a71461025457806307c068b6146102745780630d06101a14610289575b600080fd5b61023e610239366004613670565b6104e8565b60405161024b9190614541565b60405180910390f35b610267610262366004613688565b61058a565b60405161024b91906144ff565b610287610282366004613670565b6105d0565b005b610287610297366004613670565b610719565b6102af6102aa366004613670565b61073e565b60405161024b919061450a565b6102876102ca366004613670565b61075f565b6102876102dd366004613723565b6108c9565b6102f56102f0366004613670565b61097d565b60405161024b95949392919061458e565b61030e6109cb565b60405161024b93929190614513565b61033061032b366004613670565b6109e0565b60405161024b91906140b9565b61035061034b366004613670565b610b0e565b60405161024b9190614303565b6102af610b79565b610287610373366004613670565b610b7f565b610287610386366004613670565b610e8a565b61023e610399366004613670565b610f64565b6102876103ac366004613670565b610faf565b610330611089565b6103c1611098565b60405161024b969594939291906145c1565b6103db611323565b60405161024b9190614350565b6102876103f636600461389d565b611452565b6103306115b9565b610287610411366004613a02565b6115c8565b6102876104243660046138e7565b6116d3565b610287610437366004613533565b61188c565b6102676119b2565b610287610452366004613670565b611a5f565b610287610465366004613670565b611de3565b61047d610478366004613478565b6121d8565b60405161024b919061452c565b610492612205565b60405161024b9190614cb5565b6102af61261e565b6102876104b5366004613983565b6126b8565b6102af6127b2565b61047d6104d036600461359d565b6127b8565b6103306104e336600461384a565b6127e4565b6000818152601b6020526040902080546060919061050590615432565b80601f016020809104026020016040519081016040528092919081815260200182805461053190615432565b801561057e5780601f106105535761010080835404028352916020019161057e565b820191906000526020600020905b81548152906001019060200180831161056157829003601f168201915b50505050509050919050565b60006001600160e01b031982167f4e2312e00000000000000000000000000000000000000000000000000000000014806105c857506105c882612950565b90505b919050565b6006546001600160a01b031633146106035760405162461bcd60e51b81526004016105fa90614a0b565b60405180910390fd5b60036011828154811061062657634e487b7160e01b600052603260045260246000fd5b600091825260209091206006918202016005015460ff169081111561065b57634e487b7160e01b600052602160045260246000fd5b146106785760405162461bcd60e51b81526004016105fa90614940565b73__$94d7d2f22770e4b0d1a2b99fb2812308e2$__63ec7ac2f0601183815481106106b357634e487b7160e01b600052603260045260246000fd5b90600052602060002090600602016040518263ffffffff1660e01b81526004016106dd919061450a565b60006040518083038186803b1580156106f557600080fd5b505af4158015610709573d6000803e3d6000fd5b5050505061071681612982565b50565b601654156107395760405162461bcd60e51b81526004016105fa90614bf6565b601655565b6015818154811061074e57600080fd5b600091825260209091200154905081565b6015818154811061078057634e487b7160e01b600052603260045260246000fd5b906000526020600020015442116107a95760405162461bcd60e51b81526004016105fa90614864565b6002601182815481106107cc57634e487b7160e01b600052603260045260246000fd5b600091825260209091206006918202016005015460ff169081111561080157634e487b7160e01b600052602160045260246000fd5b1461081e5760405162461bcd60e51b81526004016105fa90614a79565b6001546011805473__$94d7d2f22770e4b0d1a2b99fb2812308e2$__926385c92867926001600160a01b03909116918590811061086b57634e487b7160e01b600052603260045260246000fd5b90600052602060002090600602016040518363ffffffff1660e01b8152600401610896929190614153565b60006040518083038186803b1580156108ae57600080fd5b505af41580156108c2573d6000803e3d6000fd5b5050505050565b6005546001600160a01b031633146108f35760405162461bcd60e51b81526004016105fa9061482d565b6001546040517f01b7037c0000000000000000000000000000000000000000000000000000000081526001600160a01b03909116906301b7037c906109449088908890889088908890600401614554565b600060405180830381600087803b15801561095e57600080fd5b505af1158015610972573d6000803e3d6000fd5b505050505050505050565b6011818154811061098d57600080fd5b6000918252602090912060069091020180546001820154600283015460038401546005909401546001600160a01b0390931694509092909160ff1685565b60025460035460ff8082169161010090041683565b60006014548214156109f35750306105cb565b601454821015610a8457601254604051631c1bd82f60e11b81526001600160a01b0390911690633837b05e90610a2d90859060040161450a565b60206040518083038186803b158015610a4557600080fd5b505afa158015610a59573d6000803e3d6000fd5b505050506040513d601f19601f82011682018060405250810190610a7d919061345c565b90506105cb565b6014548211156105cb57601354604051631c1bd82f60e11b81526001600160a01b0390911690633837b05e90610abe90859060040161450a565b60206040518083038186803b158015610ad657600080fd5b505afa158015610aea573d6000803e3d6000fd5b505050506040513d601f19601f820116820180604052508101906105c8919061345c565b60008181526019602090815260409182902080548351818402810184019094528084526060939283018282801561057e57602002820191906000526020600020905b81546001600160a01b03168152600190910190602001808311610b505750505050509050919050565b60165481565b60115415610bc6576005546001600160a01b0316331480610baa57506012546001600160a01b031633145b610bc65760405162461bcd60e51b81526004016105fa90614bbf565b6011548114610be75760405162461bcd60e51b81526004016105fa906147c1565b60185415610c075760405162461bcd60e51b81526004016105fa90614ae7565b60175415610c275760405162461bcd60e51b81526004016105fa90614b1c565b600154601254601180546040517f699e0add000000000000000000000000000000000000000000000000000000008152919373__$94d7d2f22770e4b0d1a2b99fb2812308e2$__9363699e0add93610c92936001600160a01b0393841693600a93169160040161411e565b60006040518083038186803b158015610caa57600080fd5b505af4158015610cbe573d6000803e3d6000fd5b505050506040513d6000823e601f3d908101601f19168201604052610ce6919081019061378b565b8154600180820184556000938452602093849020835160069093020180546001600160a01b0319166001600160a01b03909316929092178255828401519082015560408201516002820155606082015160038201556080820151805192939192610d569260048501920190613192565b5060a082015160058201805460ff19166001836006811115610d8857634e487b7160e01b600052602160045260246000fd5b0217905550506015805460018101825560009182527f55f448fdea98c4d29eb340757ef0a66cd03dbb9538908a6a81d96026b71ec475015550610dc96129ca565b7f152ec8ae15d347b2d2a8f0858caa29bcaaa0906749a1f43e08bfe799834602403082604051610dfa929190614153565b60405180910390a16013546001600160a01b031615610716576013546040517f4a77234e0000000000000000000000000000000000000000000000000000000081526001600160a01b0390911690634a77234e90610e5c90849060040161450a565b600060405180830381600087803b158015610e7657600080fd5b505af11580156108c2573d6000803e3d6000fd5b6006546001600160a01b03163314610eb45760405162461bcd60e51b81526004016105fa90614a0b565b600260118281548110610ed757634e487b7160e01b600052603260045260246000fd5b600091825260209091206006918202016005015460ff1690811115610f0c57634e487b7160e01b600052602160045260246000fd5b14610f295760405162461bcd60e51b81526004016105fa90614ab0565b73__$94d7d2f22770e4b0d1a2b99fb2812308e2$__6324b28602601183815481106106b357634e487b7160e01b600052603260045260246000fd5b6011546000828152601c602052604090205460609114610f965760405162461bcd60e51b81526004016105fa906149d4565b6000828152601b60205260409020805461050590615432565b6006546001600160a01b03163314610fd95760405162461bcd60e51b81526004016105fa90614a0b565b600460118281548110610ffc57634e487b7160e01b600052603260045260246000fd5b600091825260209091206006918202016005015460ff169081111561103157634e487b7160e01b600052602160045260246000fd5b1461104e5760405162461bcd60e51b81526004016105fa90614b51565b73__$94d7d2f22770e4b0d1a2b99fb2812308e2$__6359111fb5601183815481106106b357634e487b7160e01b600052603260045260246000fd5b6013546001600160a01b031681565b60048054600554600654600754600880546001600160a01b0395861696948616959093169391926110c890615432565b80601f01602080910402602001604051908101604052809291908181526020018280546110f490615432565b80156111415780601f1061111657610100808354040283529160200191611141565b820191906000526020600020905b81548152906001019060200180831161112457829003601f168201915b50506040805160e0810182526006870180546001600160a01b03168252600788015460208084019190915260088901548385015260098901546060840152600a890180548551818402810184019096528086529899989397509195506080870194509091908301828280156111d557602002820191906000526020600020905b8154815260200190600101908083116111c1575b5050505050815260200160058201805480602002602001604051908101604052809291908181526020016000905b828210156112975783829060005260206000209060020201604051806040016040529081600082015481526020016001820180548060200260200160405190810160405280929190818152602001828054801561127f57602002820191906000526020600020905b81548152602001906001019080831161126b575b50505050508152505081526020019060010190611203565b50505050815260200160068201805480602002602001604051908101604052809291908181526020016000905b8282101561131657600084815260209081902060408051606081018252600286029092018054835260019081015460ff80821685870152610100909104169183019190915290835290920191016112c4565b5050505081525050905086565b60606011805480602002602001604051908101604052809291908181526020016000905b828210156114495760008481526020908190206040805160c0810182526006860290920180546001600160a01b0316835260018101548385015260028101548383015260038101546060840152600481018054835181870281018701909452808452939491936080860193928301828280156113e257602002820191906000526020600020905b8154815260200190600101908083116113ce575b5050509183525050600582015460209091019060ff16600681111561141757634e487b7160e01b600052602160045260246000fd5b600681111561143657634e487b7160e01b600052602160045260246000fd5b8152505081526020019060010190611347565b50505050905090565b6005546001600160a01b0316331461147c5760405162461bcd60e51b81526004016105fa9061482d565b600b54811461149d5760405162461bcd60e51b81526004016105fa906146f6565b6001601184815481106114c057634e487b7160e01b600052603260045260246000fd5b600091825260209091206006918202016005015460ff16908111156114f557634e487b7160e01b600052602160045260246000fd5b146115125760405162461bcd60e51b81526004016105fa90614753565b73__$94d7d2f22770e4b0d1a2b99fb2812308e2$__636a0a24f16011858154811061154d57634e487b7160e01b600052603260045260246000fd5b906000526020600020906006020184846040518463ffffffff1660e01b815260040161157b93929190614c9b565b60006040518083038186803b15801561159357600080fd5b505af41580156115a7573d6000803e3d6000fd5b505050506115b483612982565b505050565b6012546001600160a01b031681565b6115d1816109e0565b6001600160a01b0316336001600160a01b0316146116015760405162461bcd60e51b81526004016105fa9061478a565b6000828152601c60205260409020541580159061162d57506011546000838152601c6020526040902054145b1561168c57604051630a072d7b60e41b8152339063a072d7b09061165590859060040161450a565b600060405180830381600087803b15801561166f57600080fd5b505af1158015611683573d6000803e3d6000fd5b505050506116cf565b6000828152601960209081526040822080546001810182559083529082200180546001600160a01b0319163317905560188054916116c98361547a565b91905055505b5050565b6006546001600160a01b031633146116fd5760405162461bcd60e51b81526004016105fa90614a0b565b60046011838154811061172057634e487b7160e01b600052603260045260246000fd5b600091825260209091206006918202016005015460ff169081111561175557634e487b7160e01b600052602160045260246000fd5b146117725760405162461bcd60e51b81526004016105fa90614b51565b6015828154811061179357634e487b7160e01b600052603260045260246000fd5b906000526020600020015442116117bc5760405162461bcd60e51b81526004016105fa90614864565b600b548151146117de5760405162461bcd60e51b81526004016105fa906146f6565b6001546011805473__$94d7d2f22770e4b0d1a2b99fb2812308e2$__92631b948e49926001600160a01b03909116918690811061182b57634e487b7160e01b600052603260045260246000fd5b9060005260206000209060060201846040518463ffffffff1660e01b81526004016118589392919061416c565b60006040518083038186803b15801561187057600080fd5b505af4158015611884573d6000803e3d6000fd5b505050505050565b600054610100900460ff16806118a5575060005460ff16155b6118c15760405162461bcd60e51b81526004016105fa90614977565b600054610100900460ff161580156118ec576000805460ff1961ff0019909116610100171660011790555b60006118fe6040840160208501613439565b6001600160a01b031614156119255760405162461bcd60e51b81526004016105fa90614a42565b600080546201000033027fffffffffffffffffffff0000000000000000000000000000000000000000ffff909116179055600180546001600160a01b038781166001600160a01b031992831617909255601280549287169290911691909117905560148390558160046119988282615646565b505080156108c2576000805461ff00191690555050505050565b6011546040517f5cc1f6b500000000000000000000000000000000000000000000000000000000815260009173__$94d7d2f22770e4b0d1a2b99fb2812308e2$__91635cc1f6b591611a0a91600991906004016143f4565b60206040518083038186803b158015611a2257600080fd5b505af4158015611a36573d6000803e3d6000fd5b505050506040513d601f19601f82011682018060405250810190611a5a9190613650565b905090565b60003382604051602001611a74929190614097565b60408051601f1981840301815291815281516020928301206000818152601a90935291205460098054929350611ada929091908110611ac357634e487b7160e01b600052603260045260246000fd5b9060005260206000209060050201600301546109e0565b6001600160a01b0316336001600160a01b031614611b0a5760405162461bcd60e51b81526004016105fa9061478a565b6000818152601a6020526040812054600980549091908110611b3c57634e487b7160e01b600052603260045260246000fd5b600091825260209091206001600590920201015460ff166003811115611b7257634e487b7160e01b600052602160045260246000fd5b14611b8f5760405162461bcd60e51b81526004016105fa90614688565b6000818152601a6020526040902054600980549091908110611bc157634e487b7160e01b600052603260045260246000fd5b600091825260208220600590910201805491611bdc8361547a565b90915550506000818152601a602052604090205460098054611d9292908110611c1557634e487b7160e01b600052603260045260246000fd5b906000526020600020906005020160020154336001600160a01b0316634dd828806004600501601760030160008781526020019081526020016000205481548110611c7057634e487b7160e01b600052603260045260246000fd5b90600052602060002090600502016004018054611c8c90615432565b80601f0160208091040260200160405190810160405280929190818152602001828054611cb890615432565b8015611d055780601f10611cda57610100808354040283529160200191611d05565b820191906000526020600020905b815481529060010190602001808311611ce857829003601f168201915b5050505050806020019051810190611d1d9190613885565b6040518263ffffffff1660e01b8152600401611d39919061450a565b60006040518083038186803b158015611d5157600080fd5b505afa158015611d65573d6000803e3d6000fd5b505050506040513d6000823e601f3d908101601f19168201604052611d8d91908101906136b0565b612ca6565b6000818152601a602052604081208190556017805491611db18361541b565b90915550506040517f71bd81ebe1d98a2944767394e76a9aff18724b2cf04e1db71254f804544b35c790600090a15050565b600060118281548110611e0657634e487b7160e01b600052603260045260246000fd5b600091825260209091206006918202016005015460ff1690811115611e3b57634e487b7160e01b600052602160045260246000fd5b14611e585760405162461bcd60e51b81526004016105fa90614c64565b611e606119b2565b1515600114611e815760405162461bcd60e51b81526004016105fa906148d2565b600160118281548110611ea457634e487b7160e01b600052603260045260246000fd5b906000526020600020906006020160050160006101000a81548160ff02191690836006811115611ee457634e487b7160e01b600052602160045260246000fd5b02179055506040517f0e23b7ca00000000000000000000000000000000000000000000000000000000815273__$94d7d2f22770e4b0d1a2b99fb2812308e2$__90630e23b7ca90611f3f908490601b90600a90600401614d4c565b60206040518083038186803b158015611f5757600080fd5b505af4158015611f6b573d6000803e3d6000fd5b505050506040513d601f19601f82011682018060405250810190611f8f9190613650565b611fab5760405162461bcd60e51b81526004016105fa906147f8565b6001546012546011805473__$94d7d2f22770e4b0d1a2b99fb2812308e2$__93630c5190e2936001600160a01b0391821693911691600a91908790811061200257634e487b7160e01b600052603260045260246000fd5b60009182526020808320600d548452601b909152604090922080546006909202909201919061203090615432565b80601f016020809104026020016040519081016040528092919081815260200182805461205c90615432565b80156120a95780601f1061207e576101008083540402835291602001916120a9565b820191906000526020600020905b81548152906001019060200180831161208c57829003601f168201915b50505050508060200190518101906120c19190613885565b6040518663ffffffff1660e01b81526004016120e19594939291906140cd565b60006040518083038186803b1580156120f957600080fd5b505af415801561210d573d6000803e3d6000fd5b50506001546011805473__$94d7d2f22770e4b0d1a2b99fb2812308e2$__94506377ae1d7393506001600160a01b03909216918590811061215e57634e487b7160e01b600052603260045260246000fd5b90600052602060002090600602016004600601601b6016546040518663ffffffff1660e01b81526004016121969594939291906141c9565b60006040518083038186803b1580156121ae57600080fd5b505af41580156121c2573d6000803e3d6000fd5b505050506121cf81610716565b61071681612d29565b7fbc197c810000000000000000000000000000000000000000000000000000000098975050505050505050565b61220d6131dd565b6040805160e081018252600480546001600160a01b03908116835260055481166020840152600654169282019290925260075460608201526008805491929160808401919061225b90615432565b80601f016020809104026020016040519081016040528092919081815260200182805461228790615432565b80156122d45780601f106122a9576101008083540402835291602001916122d4565b820191906000526020600020905b8154815290600101906020018083116122b757829003601f168201915b5050505050815260200160058201805480602002602001604051908101604052809291908181526020016000905b8282101561243957838290600052602060002090600502016040518060a0016040529081600082015481526020016001820160009054906101000a900460ff16600381111561236157634e487b7160e01b600052602160045260246000fd5b600381111561238057634e487b7160e01b600052602160045260246000fd5b815260200160028201548152602001600382015481526020016004820180546123a890615432565b80601f01602080910402602001604051908101604052809291908181526020018280546123d490615432565b80156124215780601f106123f657610100808354040283529160200191612421565b820191906000526020600020905b81548152906001019060200180831161240457829003601f168201915b50505050508152505081526020019060010190612302565b505050908252506040805160e0810182526006840180546001600160a01b03168252600785015460208381019190915260088601548385015260098601546060840152600a8601805485518184028101840190965280865295820195939492936080860193928301828280156124ce57602002820191906000526020600020905b8154815260200190600101908083116124ba575b5050505050815260200160058201805480602002602001604051908101604052809291908181526020016000905b828210156125905783829060005260206000209060020201604051806040016040529081600082015481526020016001820180548060200260200160405190810160405280929190818152602001828054801561257857602002820191906000526020600020905b815481526020019060010190808311612564575b505050505081525050815260200190600101906124fc565b50505050815260200160068201805480602002602001604051908101604052809291908181526020016000905b8282101561260f57600084815260209081902060408051606081018252600286029092018054835260019081015460ff80821685870152610100909104169183019190915290835290920191016125bd565b50505091525050905250905090565b600a546040517f70a082310000000000000000000000000000000000000000000000000000000081526000916001600160a01b0316906370a08231906126689030906004016140b9565b60206040518083038186803b15801561268057600080fd5b505afa158015612694573d6000803e3d6000fd5b505050506040513d601f19601f82011682018060405250810190611a5a9190613885565b6005546001600160a01b031633146126e25760405162461bcd60e51b81526004016105fa90614651565b6009548211156127045760405162461bcd60e51b81526004016105fa9061489b565b6003600980548490811061272857634e487b7160e01b600052603260045260246000fd5b600091825260209091206001600590920201015460ff16600381111561275e57634e487b7160e01b600052602160045260246000fd5b1461277b5760405162461bcd60e51b81526004016105fa9061461a565b6127858282612ca6565b6040517f71bd81ebe1d98a2944767394e76a9aff18724b2cf04e1db71254f804544b35c790600090a15050565b60145481565b7ff23a6e61000000000000000000000000000000000000000000000000000000005b9695505050505050565b6005546000906001600160a01b031633146128115760405162461bcd60e51b81526004016105fa90614b88565b6013546001600160a01b03161561283a5760405162461bcd60e51b81526004016105fa906146bf565b6000546014546040517fd6b3ad8d00000000000000000000000000000000000000000000000000000000815273__$94d7d2f22770e4b0d1a2b99fb2812308e2$__9263d6b3ad8d926128a292620100009092046001600160a01b031691879190600401614212565b604080518083038186803b1580156128b957600080fd5b505af41580156128cd573d6000803e3d6000fd5b505050506040513d601f19601f820116820180604052508101906128f19190613617565b601380546001600160a01b0319166001600160a01b0393841617908190556040519193507fbd2e7fbdc9b1c19997e58c63e6ea1b5a02acd8dd9fd5d76f4bb18634f7155e8092612943929116906140b9565b60405180910390a1919050565b6001600160e01b031981167f01ffc9a70000000000000000000000000000000000000000000000000000000014919050565b6007546129909060016150be565b61299a90426150a6565b601582815481106129bb57634e487b7160e01b600052603260045260246000fd5b60009182526020909120015550565b60005b600954811015612c7a57600060098054839081106129fb57634e487b7160e01b600052603260045260246000fd5b600091825260209091206001600590920201015460ff166003811115612a3157634e487b7160e01b600052602160045260246000fd5b14612a7557612a7060046005018281548110612a5d57634e487b7160e01b600052603260045260246000fd5b9060005260206000209060050201612e12565b612c68565b6000306001600160a01b0316633837b05e60046005018481548110612aaa57634e487b7160e01b600052603260045260246000fd5b9060005260206000209060050201600301546040518263ffffffff1660e01b8152600401612ad8919061450a565b60206040518083038186803b158015612af057600080fd5b505afa158015612b04573d6000803e3d6000fd5b505050506040513d601f19601f82011682018060405250810190612b28919061345c565b9050612b348183612f06565b806001600160a01b03166387c0b37460046005018481548110612b6757634e487b7160e01b600052603260045260246000fd5b90600052602060002090600502016004018054612b8390615432565b80601f0160208091040260200160405190810160405280929190818152602001828054612baf90615432565b8015612bfc5780601f10612bd157610100808354040283529160200191612bfc565b820191906000526020600020905b815481529060010190602001808311612bdf57829003601f168201915b5050505050806020019051810190612c149190613885565b6014546040518363ffffffff1660e01b8152600401612c34929190614d62565b600060405180830381600087803b158015612c4e57600080fd5b505af1158015612c62573d6000803e3d6000fd5b50505050505b80612c728161547a565b9150506129cd565b506040517f71bd81ebe1d98a2944767394e76a9aff18724b2cf04e1db71254f804544b35c790600090a1565b601154612cb5906001906150dd565b6000838152601c602052604090205414612ce15760405162461bcd60e51b81526004016105fa90614c2d565b6000828152601c60205260408120805491612cfb8361547a565b90915550506000828152601b602090815260409091208251612d1f9284019061323a565b506116cf8261302a565b6013546001600160a01b031615801590612dc45750601360009054906101000a90046001600160a01b03166001600160a01b031663999925066040518163ffffffff1660e01b815260040160206040518083038186803b158015612d8c57600080fd5b505afa158015612da0573d6000803e3d6000fd5b505050506040513d601f19601f82011682018060405250810190612dc49190613650565b15610716576013546040517fb992db0f0000000000000000000000000000000000000000000000000000000081526001600160a01b039091169063b992db0f90610e5c90849060040161450a565b600181015460039060ff1681811115612e3b57634e487b7160e01b600052602160045260246000fd5b1115612e595760405162461bcd60e51b81526004016105fa90614909565b8054816000612e678361547a565b9091555060039050600182015460ff166003811115612e9657634e487b7160e01b600052602160045260246000fd5b1461071657610716816002015473__$94d7d2f22770e4b0d1a2b99fb2812308e2$__63b3d73707846040518263ffffffff1660e01b8152600401612eda919061450a565b60006040518083038186803b158015612ef257600080fd5b505af4158015611d65573d6000803e3d6000fd5b80601760030160008460046005018581548110612f3357634e487b7160e01b600052603260045260246000fd5b90600052602060002090600502016004018054612f4f90615432565b80601f0160208091040260200160405190810160405280929190818152602001828054612f7b90615432565b8015612fc85780601f10612f9d57610100808354040283529160200191612fc8565b820191906000526020600020905b815481529060010190602001808311612fab57829003601f168201915b5050505050806020019051810190612fe09190613885565b604051602001612ff1929190614097565b60408051601f1981840301815291815281516020928301208352908201929092520160009081209190915560178054916116c98361547a565b60005b6000828152601960205260409020548110156116cf57600082815260196020526040812080548390811061307157634e487b7160e01b600052603260045260246000fd5b6000918252602090912001546001600160a01b0316146131805760008281526019602052604090208054829081106130b957634e487b7160e01b600052603260045260246000fd5b600091825260209091200154604051630a072d7b60e41b81526001600160a01b039091169063a072d7b0906130f290859060040161450a565b600060405180830381600087803b15801561310c57600080fd5b505af1158015613120573d6000803e3d6000fd5b505050600083815260196020526040902080549091508290811061315457634e487b7160e01b600052603260045260246000fd5b6000918252602082200180546001600160a01b0319169055601880549161317a8361541b565b91905055505b8061318a8161547a565b91505061302d565b8280548282559060005260206000209081019282156131cd579160200282015b828111156131cd5782518255916020019190600101906131b2565b506131d99291506132ad565b5090565b6040518060e0016040528060006001600160a01b0316815260200160006001600160a01b0316815260200160006001600160a01b031681526020016000815260200160608152602001606081526020016132356132c2565b905290565b82805461324690615432565b90600052602060002090601f01602090048101928261326857600085556131cd565b82601f1061328157805160ff19168380011785556131cd565b828001600101855582156131cd57918201828111156131cd5782518255916020019190600101906131b2565b5b808211156131d957600081556001016132ae565b6040518060e0016040528060006001600160a01b031681526020016000815260200160008152602001600081526020016060815260200160608152602001606081525090565b80356105cb81615948565b60008083601f840112613324578182fd5b50813567ffffffffffffffff81111561333b578182fd5b602083019150836020808302850101111561335557600080fd5b9250929050565b600082601f83011261336c578081fd5b8151602061338161337c83614eb6565b614e8c565b828152818101908583018385028701840188101561339d578586fd5b855b858110156133bb5781518452928401929084019060010161339f565b5090979650505050505050565b60008083601f8401126133d9578182fd5b50813567ffffffffffffffff8111156133f0578182fd5b60208301915083602082850101111561335557600080fd5b80516105cb81615948565b8051600781106105cb57600080fd5b600060e08284031215613433578081fd5b50919050565b60006020828403121561344a578081fd5b813561345581615948565b9392505050565b60006020828403121561346d578081fd5b815161345581615948565b60008060008060008060008060a0898b031215613493578384fd5b883561349e81615948565b975060208901356134ae81615948565b9650604089013567ffffffffffffffff808211156134ca578586fd5b6134d68c838d01613313565b909850965060608b01359150808211156134ee578586fd5b6134fa8c838d01613313565b909650945060808b0135915080821115613512578384fd5b5061351f8b828c016133c8565b999c989b5096995094979396929594505050565b60008060008060808587031215613548578182fd5b843561355381615948565b9350602085013561356381615948565b925060408501359150606085013567ffffffffffffffff811115613585578182fd5b61359187828801613422565b91505092959194509250565b60008060008060008060a087890312156135b5578384fd5b86356135c081615948565b955060208701356135d081615948565b94506040870135935060608701359250608087013567ffffffffffffffff8111156135f9578283fd5b61360589828a016133c8565b979a9699509497509295939492505050565b60008060408385031215613629578182fd5b825161363481615948565b602084015190925061364581615948565b809150509250929050565b600060208284031215613661578081fd5b81518015158114613455578182fd5b600060208284031215613681578081fd5b5035919050565b600060208284031215613699578081fd5b81356001600160e01b031981168114613455578182fd5b6000602082840312156136c1578081fd5b815167ffffffffffffffff8111156136d7578182fd5b8201601f810184136136e7578182fd5b80516136f561337c82614eda565b818152856020838501011115613709578384fd5b61371a8260208301602086016153eb565b95945050505050565b60008060008060006080868803121561373a578283fd5b853561374581615948565b94506020860135935060408601359250606086013567ffffffffffffffff81111561376e578182fd5b61377a88828901613313565b969995985093965092949392505050565b60006020828403121561379c578081fd5b815167ffffffffffffffff808211156137b3578283fd5b9083019060c082860312156137c6578283fd5b60405160c0810181811083821117156137e1576137e16154d7565b6040526137ed83613408565b815260208301516020820152604083015160408201526060830151606082015260808301518281111561381e578485fd5b61382a8782860161335c565b60808301525061383c60a08401613413565b60a082015295945050505050565b60006020828403121561385b578081fd5b813567ffffffffffffffff811115613871578182fd5b61387d84828501613422565b949350505050565b600060208284031215613896578081fd5b5051919050565b6000806000604084860312156138b1578081fd5b83359250602084013567ffffffffffffffff8111156138ce578182fd5b6138da86828701613313565b9497909650939450505050565b600080604083850312156138f9578182fd5b8235915060208084013567ffffffffffffffff811115613917578283fd5b8401601f81018613613927578283fd5b803561393561337c82614eb6565b81815283810190838501858402850186018a1015613951578687fd5b8694505b83851015613973578035835260019490940193918501918501613955565b5080955050505050509250929050565b60008060408385031215613995578182fd5b82359150602083013567ffffffffffffffff8111156139b2578182fd5b8301601f810185136139c2578182fd5b80356139d061337c82614eda565b8181528660208385010111156139e4578384fd5b81602084016020830137908101602001929092525090939092509050565b60008060408385031215613a14578182fd5b50508035926020909101359150565b6001600160a01b03169052565b818352602080840193600091908185020181018584845b87811015613ad55782840389528135609e19883603018112613a67578687fd5b87018035855260a086820135613a7c8161595d565b613a8888880182613d66565b5060408281013590870152606080830135908701526080613aab81840184615043565b93508282890152613abf8389018583613d10565b9c89019c97505050928601925050600101613a47565b5091979650505050505050565b6000815180845260208085018081965082840281019150828601855b85811015613ad5578284038952815160a08151865286820151613b2388880182613d66565b506040828101519087015260608083015190870152608091820151918601819052613b5081870183613d3a565b9a87019a9550505090840190600101613afe565b60008284526020808501945082825b85811015613bbd578135875282820135613b8c8161596a565b60ff9081168885015260409083820135613ba58161596a565b16908801526060968701969190910190600101613b73565b509495945050505050565b6000815180845260208085019450808401835b83811015613bbd578151805188528381015160ff908116858a0152604091820151169088015260609096019590820190600101613bdb565b6000815480845260208085019450838352808320835b83811015613bbd578154875260018083015460ff808216868b015260089190911c16604089015260609097019660029092019101613c29565b60008284527f07ffffffffffffffffffffffffffffffffffffffffffffffffffffffffffffff831115613c93578081fd5b6020830280836020870137939093016020019283525090919050565b6000815180845260208085019450808401835b83811015613bbd57815187529582019590820190600101613cc2565b6000815480845260208085019450838352808320835b83811015613bbd57815487529582019560019182019101613cf4565b60008284528282602086013780602084860101526020601f19601f85011685010190509392505050565b60008151808452613d528160208601602086016153eb565b601f01601f19169290920160200192915050565b60048110613d7657613d766154c1565b9052565b60078110613d7657613d766154c1565b60008135613d9781615948565b6001600160a01b03168352602082810135818501526040808401358186015260608085013590860152613dcd6080850185614fb3565b60e06080880152613de260e088018284613c62565b915050613df260a0860186614fb3565b87830360a08901528083528483018582028401860183885b84811015613e6957868303601f19018452813536879003603e19018112613e2f578a8bfd5b860180358452613e418a820182614fb3565b9150898b860152613e558a86018383613c62565b958b01959450505090880190600101613e0a565b5050613e7860c08a018a614ffb565b9750955089810360c08b0152613e8f818888613b64565b9a9950505050505050505050565b60006001600160a01b038251168352602080830151818501526040808401518186015260608401516060860152608084015160e06080870152613ee360e0870182613caf565b905060a085015186820360a08801528181518084528584019150858682028501018684019350875b82811015613f4a57858203601f19018452845180518352880151888301889052613f3788840182613caf565b9589019594890194925050600101613f0b565b5060c0890151965089810360c08b0152613e8f8188613bc8565b60006001600160a01b038254168352600180830154602081818701526002915081850154604081818901526003870154606089015260e06080890152613fb060e0890160048901613cde565b88810360a08a01526005880180548083529088528488209193508484019085810285018601895b8281101561401057601f19878303018452845482528588830152613fff8683018b8701613cde565b948901949388019391508901613fd7565b508b810360c08d01526140268160068d01613c13565b9c9b505050505050505050505050565b60006001600160a01b03825416835260018201546020840152600282015460408401526003820154606084015260c0608084015261407a60c0840160048401613cde565b60ff60058401541661408f60a0860182613d7a565b509392505050565b60609290921b6bffffffffffffffffffffffff19168252601482015260340190565b6001600160a01b0391909116815260200190565b60006001600160a01b03808816835280871660208401525060a060408301526140f960a0830186613f64565b828103606084015261410b8186614036565b9150508260808301529695505050505050565b60006001600160a01b038087168352608060208401526141416080840187613f64565b94166040830152506060015292915050565b6001600160a01b03929092168252602082015260400190565b6000606082016001600160a01b038616835260208581850152606060408501528185518084526080860191508287019350845b818110156141bb5784518352938301939183019160010161419f565b509098975050505050505050565b60006001600160a01b038716825260a060208301526141eb60a0830187614036565b82810360408401526141fd8187613f64565b60608401959095525050608001529392505050565b60006001600160a01b038516825260606020830152833561423281615948565b61423f6060840182613a23565b5061424c60208501613308565b6142596080840182613a23565b5061426660408501613308565b61427360a0840182613a23565b50606084013560c083015261428b6080850185615043565b60e0808501526142a061014085018284613d10565b9150506142b060a0860186614fb3565b605f1980868503016101008701526142c9848385613a30565b93506142d860c0890189615088565b9250808685030161012087015250506142f18282613d8a565b92505050826040830152949350505050565b6020808252825182820181905260009190848201906040850190845b818110156143445783516001600160a01b03168352928401929184019160010161431f565b50909695505050505050565b60208082528251828201819052600091906040908185019080840286018301878501865b838110156141bb57603f19898403018552815160c06001600160a01b03825116855288820151898601528782015188860152606080830151818701525060808083015182828801526143c883880182613caf565b9250505060a08083015192506143e081870184613d7a565b509588019593505090860190600101614374565b60006040820160408352808554808352606092508285019150602083818302870101888652818620865b848110156144ed57605f1989840301865260a082548452600160ff818501541661444a87870182613d66565b5060028401546040860152600384015489860152600484018260808701528a815461447481615432565b94880185905260c094818516801561449357600181146144a7576144d2565b60ff1983168a88015260e08a0193506144d2565b848f528a8f208f5b838110156144ca5781548c82018a0152908701908c016144af565b8b0188019450505b5050509887019895505050600592909201915060010161441e565b50509501959095525091949350505050565b901515815260200190565b90815260200190565b92835260ff918216602084015216604082015260600190565b6001600160e01b031991909116815260200190565b6000602082526134556020830184613d3a565b60006001600160a01b038716825285602083015284604083015260806060830152614583608083018486613c62565b979650505050505050565b600060a0820190506001600160a01b03871682528560208301528460408301528360608301526127da6080830184613d7a565b60006001600160a01b038089168352808816602084015280871660408401525084606083015260c060808301526145fb60c0830185613d3a565b82810360a084015261460d8185613e9d565b9998505050505050505050565b60208082526016908201527f6f6e6c7920496e67657374547970652e4d616e75616c00000000000000000000604082015260600190565b6020808252600a908201527f4f6e6c794b656570657200000000000000000000000000000000000000000000604082015260600190565b60208082526013908201527f496e67657374206e6f742043616c6c6261636b00000000000000000000000000604082015260600190565b60208082526010908201527f536f6c76657220686173206368696c6400000000000000000000000000000000604082015260600190565b60208082526026908201527f7061796f7574732e6c656e677468206d757374206d61746368206f7574636f6d60408201527f65536c6f74730000000000000000000000000000000000000000000000000000606082015260800190565b60208082526016908201527f436f6e646974696f6e206e6f7420457865637574656400000000000000000000604082015260600190565b60208082526015908201527f6d73672e73656e646572206e6f7420736f6c7665720000000000000000000000604082015260600190565b60208082526018908201527f496e76616c696420696e64657820746f20707265706172650000000000000000604082015260600190565b6020808252818101527f526563697069656e7420736c6f74207265717569726573207570646174696e67604082015260600190565b6020808252600b908201527f4f6e6c79204b6565706572000000000000000000000000000000000000000000604082015260600190565b60208082526015908201527f54696d656c6f636b207374696c6c206c6f636b65640000000000000000000000604082015260600190565b60208082526011908201527f536c6f74206f7574206f662073636f7065000000000000000000000000000000604082015260600190565b6020808252600f908201527f696e676573747320696e76616c69640000000000000000000000000000000000604082015260600190565b60208082526012908201527f496e76616c696420696e67657374547970650000000000000000000000000000604082015260600190565b60208082526018908201527f4e6f74204172626974726174696f6e5265717565737465640000000000000000604082015260600190565b6020808252602e908201527f496e697469616c697a61626c653a20636f6e747261637420697320616c72656160408201527f647920696e697469616c697a6564000000000000000000000000000000000000606082015260800190565b60208082526011908201527f536c6f7420696e76616c6964207665722e000000000000000000000000000000604082015260600190565b6020808252600f908201527f4f6e6c792061726269747261746f720000000000000000000000000000000000604082015260600190565b6020808252600e908201527f4b656570657220696e76616c6964000000000000000000000000000000000000604082015260600190565b60208082526014908201527f4f7574636f6d65206e6f742070726f706f736564000000000000000000000000604082015260600190565b60208082526013908201527f4e6f74204f7574636f6d6550726f706f73656400000000000000000000000000604082015260600190565b6020808252818101527f46756c66696c6c206f7574676f696e672063616c6c6261636b73206669727374604082015260600190565b6020808252818101527f46756c66696c6c20696e636f6d696e672063616c6c6261636b73206669727374604082015260600190565b60208082526016908201527f4e6f74204172626974726174696f6e50656e64696e6700000000000000000000604082015260600190565b6020808252600b908201527f4f6e6c79206b6565706572000000000000000000000000000000000000000000604082015260600190565b60208082526012908201527f4f6e6c79206b65657065722f706172656e740000000000000000000000000000604082015260600190565b6020808252600e908201527f547261636b696e67496420736574000000000000000000000000000000000000604082015260600190565b60208082526014908201527f536c6f742076657273696f6e20696e76616c6964000000000000000000000000604082015260600190565b6020808252600d908201527f6e6f7420496e6974696174656400000000000000000000000000000000000000604082015260600190565b60008482526040602083015261371a604083018486613c62565b6000602082526001600160a01b03808451166020840152806020850151166040840152506040830151614ceb6060840182613a23565b5060608301516080830152608083015160e060a0840152614d10610100840182613d3a565b905060a0840151601f19808584030160c0860152614d2e8383613ae2565b925060c08601519150808584030160e08601525061371a8282613e9d565b9283526020830191909152604082015260600190565b918252602082015260400190565b6000808335601e19843603018112614d86578283fd5b83018035915067ffffffffffffffff821115614da0578283fd5b602090810192508102360382131561335557600080fd5b6000808335601e19843603018112614dcd578182fd5b83018035915067ffffffffffffffff821115614de7578283fd5b602001915060608102360382131561335557600080fd5b6000808335601e19843603018112614e14578182fd5b83018035915067ffffffffffffffff821115614e2e578283fd5b60200191503681900382131561335557600080fd5b60008235603e19833603018112614e58578182fd5b9190910192915050565b6000823560de19833603018112614e58578182fd5b60008235609e19833603018112614e58578182fd5b60405181810167ffffffffffffffff81118282101715614eae57614eae6154d7565b604052919050565b600067ffffffffffffffff821115614ed057614ed06154d7565b5060209081020190565b600067ffffffffffffffff821115614ef457614ef46154d7565b50601f01601f191660200190565b60009081526020902090565b602084108015614f6457601f841160018114614f3557614f2e8685615467565b8355614f5e565b614f3e83614f02565b614f536020601f8801048201600183016150f4565b50614f5e868461553e565b506108c2565b8160005260206000206020601f8701048101601f87168015614f8e57614f8e8160001984016154ed565b50614fa16020601f8801048301826150f4565b50506001856002021782555050505050565b6000808335601e19843603018112614fc9578283fd5b830160208101925035905067ffffffffffffffff811115614fe957600080fd5b60208102360383131561335557600080fd5b6000808335601e19843603018112615011578283fd5b830160208101925035905067ffffffffffffffff81111561503157600080fd5b60608102360383131561335557600080fd5b6000808335601e19843603018112615059578283fd5b830160208101925035905067ffffffffffffffff81111561507957600080fd5b80360383131561335557600080fd5b6000823560de1983360301811261509d578182fd5b90910192915050565b600082198211156150b9576150b96154ab565b500190565b60008160001904831182151516156150d8576150d86154ab565b500290565b6000828210156150ef576150ef6154ab565b500390565b5b818110156116cf57600081556001016150f5565b68010000000000000000831115615122576151226154d7565b8054838255808410156151c0577f7fffffffffffffffffffffffffffffffffffffffffffffffffffffffffffffff6001818311811615615164576151646154ab565b6002828711821615615178576151786154ab565b600085815260208120909350878202810190828602015b808210156151ba576151a38586845461555c565b82556151b185858401615501565b9082019061518f565b50505050505b50816151cb82614f02565b6000805b86811015615201576151eb6151e48588614e43565b8385615825565b60209390930192600292909201916001016151cf565b50505050505050565b68010000000000000000831115615223576152236154d7565b8054838255808410156152bb577f7fffffffffffffffffffffffffffffffffffffffffffffffffffffffffffffff6001818311811615615265576152656154ab565b6002828711821615615279576152796154ab565b600085815260208120909350878202810190828602015b808210156152b5576152a48586845461555c565b825584848301558282019150615290565b50505050505b50816152c682614f02565b6000805b86811015615201576152dd8483856158ed565b60609390930192600292909201916001016152ca565b67ffffffffffffffff83111561530b5761530b6154d7565b6153158154615432565b600080601f8611601f8411818117156153345761533186614f02565b92505b8015615363576020601f8901048301602089101561534f5750825b6153616020601f8801048501826150f4565b505b50806001811461538f5760009450871561537e578387013594505b6153888886615467565b86556153e1565b601f198816945082845b868110156153b95788860135825560209586019560019092019101615399565b50888610156153d657878501356000196008601f8c16021c191681555b506001600289020186555b5050505050505050565b60005b838110156154065781810151838201526020016153ee565b83811115615415576000848401525b50505050565b60008161542a5761542a6154ab565b506000190190565b60028104600182168061544657607f821691505b6020821081141561343357634e487b7160e01b600052602260045260246000fd5b600019600883021c191660029091021790565b600060001982141561548e5761548e6154ab565b5060010190565b634e487b7160e01b600052600060045260246000fd5b634e487b7160e01b600052601160045260246000fd5b634e487b7160e01b600052602160045260246000fd5b634e487b7160e01b600052604160045260246000fd5b8054600019836020036008021c1681555050565b6801000000000000000082111561551a5761551a6154d7565b8054828255808310156115b4578160005260206000206154158282018583016150f4565b806000526020600020615552838254615467565b9091556000905550565b60089190910291821b60001990921b9182169119161790565b6001600160a01b0382166001600160a01b03198254161781555050565b813561559d81615948565b6155a78183615575565b506001602080840135828401556040840135600284015560608401356003840155600483016155d96080860186614d70565b6155e38184615501565b6000928352838320925b818110156156085782358455928501929184019185016155ed565b50505050505061561b60a0830183614d70565b615629818360058601615109565b505061563860c0830183614db7565b61541581836006860161520a565b813561565181615948565b61565b8183615575565b50600160208084013561566d81615948565b61567981848601615575565b506002604085013561568a81615948565b61569681838701615575565b50600360608601358186015560046156b16080880188614dfe565b6156be8183858b016152f3565b505060058087016156d260a08a018a614d70565b680100000000000000008111156156eb576156eb6154d7565b8254818455808210156157bf577f33333333333333333333333333333333333333333333333333333333333333338082118b161561572b5761572b6154ab565b8083118b161561573d5761573d6154ab565b506000848152898120838702810190878402015b808210156157bb576157658384845461555c565b8255828d8301558a820161577b8485835461555c565b81555089820161578d8485835461555c565b9055818901805461579d81615432565b80156157af576157af86828486614f0e565b50505090870190615751565b5050505b508196506157cc83614f02565b9550600094508492505b80831015615803576157f26157eb8884614e77565b8688615879565b9587019594830194918801916157d6565b5050505050505050506116cf61581c60c0840184614e62565b60068301615592565b811561583357615833615495565b823581556001808201602061584a81870187614d70565b6158548185615501565b6000938452828420935b8181101561097257823585559385019391830191850161585e565b811561588757615887615495565b8235815560018101602084013561589d8161595d565b600481106158ad576158ad6154c1565b60ff1982541660ff82168117835550505060408301356002820155606083013560038201556158df6080840184614dfe565b6108c28183600486016152f3565b81156158fb576158fb615495565b823581556001810160208401356159118161596a565b815460ff191660ff9190911617808255604085013561592f8161596a565b61ff008160081b1661ff00198316178355505050505050565b6001600160a01b038116811461071657600080fd5b6004811061071657600080fd5b60ff8116811461071657600080fdfea26469706673582212200afa2a038b08e13387c6b918ec8e850f61620a5f7c591b27e4b4cb9f957e76d664736f6c63430008000033",
  "libraries": {
    "SolverLib": "0xDc64a140Aa3E981100a9becA4E685f962f0cF6C9"
  },
  "devdoc": {
    "kind": "dev",
    "methods": {
      "addData(uint256,bytes)": {
        "details": "Allows keeper to manually add data to IngestType.Manual slots after executeIngests",
        "params": {
          "_data": "Data to be added",
          "_slot": "Destination slot"
        }
      },
      "addressFromChainIndex(uint256)": {
        "details": "Get address for a Solver by its index in the chain",
        "params": {
          "_index": "Index of Solver"
        }
      },
      "arbitrate(uint256,uint256[])": {
        "details": "Allows arbitrator to unilaterally make a payout report.",
        "params": {
          "_index": "Index of condition",
          "payouts": "Array of uint256 values representing the ratio of the collateral that each outcome can claim. The length of this array must be equal to the outcomeSlotCount"
        }
      },
      "arbitrateNull(uint256)": {
        "details": "Returns condition.status to OutcomeProposed without a ruling.",
        "params": {
          "_index": "Index of condition"
        }
      },
      "arbitrationPending(uint256)": {
        "details": "Sets condition.status to ArbitrationPending.",
        "params": {
          "_index": "Index of condition"
        }
      },
      "arbitrationRequested(uint256)": {
        "details": "Sets condition.status to ArbitrationRequested.",
        "params": {
          "_index": "Index of condition"
        }
      },
      "confirmPayouts(uint256)": {
        "details": "Confirm payouts for condition (reportPayouts to ConditionalTokens contract)",
        "params": {
          "_index": "Index of condition"
        }
      },
      "deployChild((address,address,address,uint256,bytes,(uint256,uint8,uint256,uint256,bytes)[],(address,uint256,uint256,uint256,uint256[],(uint256,uint256[])[],(bytes32,uint8,uint8)[])))": {
        "details": "Deploys a new Solver as a child",
        "params": {
          "_config": "Configuration of the child Solver"
        }
      },
      "executeSolve(uint256)": {
        "details": "Mints conditional tokens, allocates them to recipients specified by ingested data, runs arbitrary `postroll()` function and tries to do the same for child Solver",
        "params": {
          "_index": "Index of condition to execute on"
        }
      },
      "getCallbackOutput(uint256)": {
        "details": "A simple getter that requires upstream slot ver. == our condition ver.",
        "params": {
          "_slot": "Slot containing data"
        }
      },
      "handleCallback(uint256)": {
        "details": "Handle upstream Solver making callback and ingest the data",
        "params": {
          "_slot": "Destination slot for the data being sent"
        }
      },
      "ingestsValid()": {
        "details": "Verifies that all ingests have been performed for a condition"
      },
      "init(address,address,uint256,(address,address,address,uint256,bytes,(uint256,uint8,uint256,uint256,bytes)[],(address,uint256,uint256,uint256,uint256[],(uint256,uint256[])[],(bytes32,uint8,uint8)[])))": {
        "details": "Called by SolverFactory when contract is created. Nothing else should ever need to call this",
        "params": {
          "_chainIndex": "The index of this Solver in the chain",
          "_chainParent": "The address of the Solver above this one in the chain. address(0) if this Solver is first.",
          "_solverConfig": "The configuration of this Solver"
        }
      },
      "onERC1155BatchReceived(address,address,uint256[],uint256[],bytes)": {
        "details": "Handles the receipt of a multiple ERC1155 token types. This function is called at the end of a `safeBatchTransferFrom` after the balances have been updated. To accept the transfer(s), this must return `bytes4(keccak256(\"onERC1155BatchReceived(address,address,uint256[],uint256[],bytes)\"))` (i.e. 0xbc197c81, or its own function selector).",
        "params": {
          "data": "Additional data with no specified format",
          "from": "The address which previously owned the token",
          "ids": "An array containing ids of each token being transferred (order and length must match values array)",
          "operator": "The address which initiated the batch transfer (i.e. msg.sender)",
          "values": "An array containing amounts of each token being transferred (order and length must match ids array)"
        },
        "returns": {
          "_0": "`bytes4(keccak256(\"onERC1155BatchReceived(address,address,uint256[],uint256[],bytes)\"))` if transfer is allowed"
        }
      },
      "onERC1155Received(address,address,uint256,uint256,bytes)": {
        "details": "Handles the receipt of a single ERC1155 token type. This function is called at the end of a `safeTransferFrom` after the balance has been updated. To accept the transfer, this must return `bytes4(keccak256(\"onERC1155Received(address,address,uint256,uint256,bytes)\"))` (i.e. 0xf23a6e61, or its own function selector).",
        "params": {
          "data": "Additional data with no specified format",
          "from": "The address which previously owned the token",
          "id": "The ID of the token being transferred",
          "operator": "The address which initiated the transfer (i.e. msg.sender)",
          "value": "The amount of tokens being transferred"
        },
        "returns": {
          "_0": "`bytes4(keccak256(\"onERC1155Received(address,address,uint256,uint256,bytes)\"))` if transfer is allowed"
        }
      },
      "prepareSolve(uint256)": {
        "details": "Creates a new condition, associated timelock, and executes ingests for this Solver and any child Solvers",
        "params": {
          "_index": "Index of the new condition to be created."
        }
      },
      "proposePayouts(uint256,uint256[])": {
        "details": "Propose payouts (AKA outcomes) for a condition",
        "params": {
          "_index": "Index of condition",
          "_payouts": "Array of uint256 values representing the ratio of the collateral that each outcome can claim. The length of this array must be equal to the outcomeSlotCount"
        }
      },
      "redeemPosition(address,bytes32,bytes32,uint256[])": {
        "details": "Redeems CTs held by this Solver. See ConditionalTokens contract for more info."
      },
      "registerOutgoingCallback(uint256,uint256)": {
        "details": "Register callback expected by a downstream Solver for some data",
        "params": {
          "_chainIndex": "Index of the Solver requesting this callback",
          "_slot": "Slot being waited on by downstream Solver"
        }
      },
      "supportsInterface(bytes4)": {
        "details": "See {IERC165-supportsInterface}."
      }
    },
    "version": 1
  },
  "userdoc": {
    "kind": "user",
    "methods": {},
    "version": 1
  },
  "storageLayout": {
    "storage": [
      {
        "astId": 85,
        "contract": "contracts/BasicSolverV1.sol:BasicSolverV1",
        "label": "_initialized",
        "offset": 0,
        "slot": "0",
        "type": "t_bool"
      },
      {
        "astId": 88,
        "contract": "contracts/BasicSolverV1.sol:BasicSolverV1",
        "label": "_initializing",
        "offset": 1,
        "slot": "0",
        "type": "t_bool"
      },
      {
        "astId": 5601,
        "contract": "contracts/BasicSolverV1.sol:BasicSolverV1",
        "label": "factoryAddress",
        "offset": 2,
        "slot": "0",
        "type": "t_address"
      },
      {
        "astId": 5603,
        "contract": "contracts/BasicSolverV1.sol:BasicSolverV1",
        "label": "ctfAddress",
        "offset": 0,
        "slot": "1",
        "type": "t_address"
      },
      {
        "astId": 5606,
        "contract": "contracts/BasicSolverV1.sol:BasicSolverV1",
        "label": "uiURI",
        "offset": 0,
        "slot": "2",
        "type": "t_struct(Multihash)7138_storage"
      },
      {
        "astId": 5609,
        "contract": "contracts/BasicSolverV1.sol:BasicSolverV1",
        "label": "config",
        "offset": 0,
        "slot": "4",
        "type": "t_struct(Config)7185_storage"
      },
      {
        "astId": 5613,
        "contract": "contracts/BasicSolverV1.sol:BasicSolverV1",
        "label": "conditions",
        "offset": 0,
        "slot": "17",
        "type": "t_array(t_struct(Condition)7166_storage)dyn_storage"
      },
      {
        "astId": 5615,
        "contract": "contracts/BasicSolverV1.sol:BasicSolverV1",
        "label": "chainParent",
        "offset": 0,
        "slot": "18",
        "type": "t_address"
      },
      {
        "astId": 5617,
        "contract": "contracts/BasicSolverV1.sol:BasicSolverV1",
        "label": "chainChild",
        "offset": 0,
        "slot": "19",
        "type": "t_address"
      },
      {
        "astId": 5619,
        "contract": "contracts/BasicSolverV1.sol:BasicSolverV1",
        "label": "chainIndex",
        "offset": 0,
        "slot": "20",
        "type": "t_uint256"
      },
      {
        "astId": 5622,
        "contract": "contracts/BasicSolverV1.sol:BasicSolverV1",
        "label": "timelocks",
        "offset": 0,
        "slot": "21",
        "type": "t_array(t_uint256)dyn_storage"
      },
      {
        "astId": 5624,
        "contract": "contracts/BasicSolverV1.sol:BasicSolverV1",
        "label": "trackingId",
        "offset": 0,
        "slot": "22",
        "type": "t_bytes32"
      },
      {
        "astId": 5627,
        "contract": "contracts/BasicSolverV1.sol:BasicSolverV1",
        "label": "callbacks",
        "offset": 0,
        "slot": "23",
        "type": "t_struct(Callbacks)7208_storage"
      },
      {
        "astId": 5630,
        "contract": "contracts/BasicSolverV1.sol:BasicSolverV1",
        "label": "datas",
        "offset": 0,
        "slot": "27",
        "type": "t_struct(Datas)7194_storage"
      }
    ],
    "types": {
      "t_address": {
        "encoding": "inplace",
        "label": "address",
        "numberOfBytes": "20"
      },
      "t_array(t_address)dyn_storage": {
        "base": "t_address",
        "encoding": "dynamic_array",
        "label": "address[]",
        "numberOfBytes": "32"
      },
      "t_array(t_struct(Allocation)7235_storage)dyn_storage": {
        "base": "t_struct(Allocation)7235_storage",
        "encoding": "dynamic_array",
        "label": "struct SolverLib.Allocation[]",
        "numberOfBytes": "32"
      },
      "t_array(t_struct(Condition)7166_storage)dyn_storage": {
        "base": "t_struct(Condition)7166_storage",
        "encoding": "dynamic_array",
        "label": "struct SolverLib.Condition[]",
        "numberOfBytes": "32"
      },
      "t_array(t_struct(Ingest)7150_storage)dyn_storage": {
        "base": "t_struct(Ingest)7150_storage",
        "encoding": "dynamic_array",
        "label": "struct SolverLib.Ingest[]",
        "numberOfBytes": "32"
      },
      "t_array(t_struct(Multihash)7138_storage)dyn_storage": {
        "base": "t_struct(Multihash)7138_storage",
        "encoding": "dynamic_array",
        "label": "struct SolverLib.Multihash[]",
        "numberOfBytes": "32"
      },
      "t_array(t_uint256)dyn_storage": {
        "base": "t_uint256",
        "encoding": "dynamic_array",
        "label": "uint256[]",
        "numberOfBytes": "32"
      },
      "t_bool": {
        "encoding": "inplace",
        "label": "bool",
        "numberOfBytes": "1"
      },
      "t_bytes32": {
        "encoding": "inplace",
        "label": "bytes32",
        "numberOfBytes": "32"
      },
      "t_bytes_storage": {
        "encoding": "bytes",
        "label": "bytes",
        "numberOfBytes": "32"
      },
      "t_contract(IERC20)2042": {
        "encoding": "inplace",
        "label": "contract IERC20",
        "numberOfBytes": "20"
      },
      "t_contract(Solver)6985": {
        "encoding": "inplace",
        "label": "contract Solver",
        "numberOfBytes": "20"
      },
      "t_enum(IngestType)7123": {
        "encoding": "inplace",
        "label": "enum SolverLib.IngestType",
        "numberOfBytes": "1"
      },
      "t_enum(Status)7131": {
        "encoding": "inplace",
        "label": "enum SolverLib.Status",
        "numberOfBytes": "1"
      },
      "t_mapping(t_bytes32,t_uint256)": {
        "encoding": "mapping",
        "key": "t_bytes32",
        "label": "mapping(bytes32 => uint256)",
        "numberOfBytes": "32",
        "value": "t_uint256"
      },
      "t_mapping(t_uint256,t_array(t_address)dyn_storage)": {
        "encoding": "mapping",
        "key": "t_uint256",
        "label": "mapping(uint256 => address[])",
        "numberOfBytes": "32",
        "value": "t_array(t_address)dyn_storage"
      },
      "t_mapping(t_uint256,t_bytes_storage)": {
        "encoding": "mapping",
        "key": "t_uint256",
        "label": "mapping(uint256 => bytes)",
        "numberOfBytes": "32",
        "value": "t_bytes_storage"
      },
      "t_mapping(t_uint256,t_uint256)": {
        "encoding": "mapping",
        "key": "t_uint256",
        "label": "mapping(uint256 => uint256)",
        "numberOfBytes": "32",
        "value": "t_uint256"
      },
      "t_struct(Allocation)7235_storage": {
        "encoding": "inplace",
        "label": "struct SolverLib.Allocation",
        "members": [
          {
            "astId": 7231,
            "contract": "contracts/BasicSolverV1.sol:BasicSolverV1",
            "label": "recipientAddressSlot",
            "offset": 0,
            "slot": "0",
            "type": "t_uint256"
          },
          {
            "astId": 7234,
            "contract": "contracts/BasicSolverV1.sol:BasicSolverV1",
            "label": "recipientAmountSlots",
            "offset": 0,
            "slot": "1",
            "type": "t_array(t_uint256)dyn_storage"
          }
        ],
        "numberOfBytes": "64"
      },
      "t_struct(Callbacks)7208_storage": {
        "encoding": "inplace",
        "label": "struct SolverLib.Callbacks",
        "members": [
          {
            "astId": 7196,
            "contract": "contracts/BasicSolverV1.sol:BasicSolverV1",
            "label": "numIncoming",
            "offset": 0,
            "slot": "0",
            "type": "t_uint256"
          },
          {
            "astId": 7198,
            "contract": "contracts/BasicSolverV1.sol:BasicSolverV1",
            "label": "numOutgoing",
            "offset": 0,
            "slot": "1",
            "type": "t_uint256"
          },
          {
            "astId": 7203,
            "contract": "contracts/BasicSolverV1.sol:BasicSolverV1",
            "label": "outgoing",
            "offset": 0,
            "slot": "2",
            "type": "t_mapping(t_uint256,t_array(t_address)dyn_storage)"
          },
          {
            "astId": 7207,
            "contract": "contracts/BasicSolverV1.sol:BasicSolverV1",
            "label": "incoming",
            "offset": 0,
            "slot": "3",
            "type": "t_mapping(t_bytes32,t_uint256)"
          }
        ],
        "numberOfBytes": "128"
      },
      "t_struct(Condition)7166_storage": {
        "encoding": "inplace",
        "label": "struct SolverLib.Condition",
        "members": [
          {
            "astId": 7153,
            "contract": "contracts/BasicSolverV1.sol:BasicSolverV1",
            "label": "collateralToken",
            "offset": 0,
            "slot": "0",
            "type": "t_contract(IERC20)2042"
          },
          {
            "astId": 7155,
            "contract": "contracts/BasicSolverV1.sol:BasicSolverV1",
            "label": "questionId",
            "offset": 0,
            "slot": "1",
            "type": "t_bytes32"
          },
          {
            "astId": 7157,
            "contract": "contracts/BasicSolverV1.sol:BasicSolverV1",
            "label": "parentCollectionId",
            "offset": 0,
            "slot": "2",
            "type": "t_bytes32"
          },
          {
            "astId": 7159,
            "contract": "contracts/BasicSolverV1.sol:BasicSolverV1",
            "label": "conditionId",
            "offset": 0,
            "slot": "3",
            "type": "t_bytes32"
          },
          {
            "astId": 7162,
            "contract": "contracts/BasicSolverV1.sol:BasicSolverV1",
            "label": "payouts",
            "offset": 0,
            "slot": "4",
            "type": "t_array(t_uint256)dyn_storage"
          },
          {
            "astId": 7165,
            "contract": "contracts/BasicSolverV1.sol:BasicSolverV1",
            "label": "status",
            "offset": 0,
            "slot": "5",
            "type": "t_enum(Status)7131"
          }
        ],
        "numberOfBytes": "192"
      },
      "t_struct(ConditionBase)7229_storage": {
        "encoding": "inplace",
        "label": "struct SolverLib.ConditionBase",
        "members": [
          {
            "astId": 7211,
            "contract": "contracts/BasicSolverV1.sol:BasicSolverV1",
            "label": "collateralToken",
            "offset": 0,
            "slot": "0",
            "type": "t_contract(IERC20)2042"
          },
          {
            "astId": 7213,
            "contract": "contracts/BasicSolverV1.sol:BasicSolverV1",
            "label": "outcomeSlots",
            "offset": 0,
            "slot": "1",
            "type": "t_uint256"
          },
          {
            "astId": 7215,
            "contract": "contracts/BasicSolverV1.sol:BasicSolverV1",
            "label": "parentCollectionIndexSet",
            "offset": 0,
            "slot": "2",
            "type": "t_uint256"
          },
          {
            "astId": 7217,
            "contract": "contracts/BasicSolverV1.sol:BasicSolverV1",
            "label": "amountSlot",
            "offset": 0,
            "slot": "3",
            "type": "t_uint256"
          },
          {
            "astId": 7220,
            "contract": "contracts/BasicSolverV1.sol:BasicSolverV1",
            "label": "partition",
            "offset": 0,
            "slot": "4",
            "type": "t_array(t_uint256)dyn_storage"
          },
          {
            "astId": 7224,
            "contract": "contracts/BasicSolverV1.sol:BasicSolverV1",
            "label": "allocations",
            "offset": 0,
            "slot": "5",
            "type": "t_array(t_struct(Allocation)7235_storage)dyn_storage"
          },
          {
            "astId": 7228,
            "contract": "contracts/BasicSolverV1.sol:BasicSolverV1",
            "label": "outcomeURIs",
            "offset": 0,
            "slot": "6",
            "type": "t_array(t_struct(Multihash)7138_storage)dyn_storage"
          }
        ],
        "numberOfBytes": "224"
      },
      "t_struct(Config)7185_storage": {
        "encoding": "inplace",
        "label": "struct SolverLib.Config",
        "members": [
          {
            "astId": 7169,
            "contract": "contracts/BasicSolverV1.sol:BasicSolverV1",
            "label": "implementation",
            "offset": 0,
            "slot": "0",
            "type": "t_contract(Solver)6985"
          },
          {
            "astId": 7171,
            "contract": "contracts/BasicSolverV1.sol:BasicSolverV1",
            "label": "keeper",
            "offset": 0,
            "slot": "1",
            "type": "t_address"
          },
          {
            "astId": 7173,
            "contract": "contracts/BasicSolverV1.sol:BasicSolverV1",
            "label": "arbitrator",
            "offset": 0,
            "slot": "2",
            "type": "t_address"
          },
          {
            "astId": 7175,
            "contract": "contracts/BasicSolverV1.sol:BasicSolverV1",
            "label": "timelockSeconds",
            "offset": 0,
            "slot": "3",
            "type": "t_uint256"
          },
          {
            "astId": 7177,
            "contract": "contracts/BasicSolverV1.sol:BasicSolverV1",
            "label": "data",
            "offset": 0,
            "slot": "4",
            "type": "t_bytes_storage"
          },
          {
            "astId": 7181,
            "contract": "contracts/BasicSolverV1.sol:BasicSolverV1",
            "label": "ingests",
            "offset": 0,
            "slot": "5",
            "type": "t_array(t_struct(Ingest)7150_storage)dyn_storage"
          },
          {
            "astId": 7184,
            "contract": "contracts/BasicSolverV1.sol:BasicSolverV1",
            "label": "conditionBase",
            "offset": 0,
            "slot": "6",
            "type": "t_struct(ConditionBase)7229_storage"
          }
        ],
        "numberOfBytes": "416"
      },
      "t_struct(Datas)7194_storage": {
        "encoding": "inplace",
        "label": "struct SolverLib.Datas",
        "members": [
          {
            "astId": 7189,
            "contract": "contracts/BasicSolverV1.sol:BasicSolverV1",
            "label": "slots",
            "offset": 0,
            "slot": "0",
            "type": "t_mapping(t_uint256,t_bytes_storage)"
          },
          {
            "astId": 7193,
            "contract": "contracts/BasicSolverV1.sol:BasicSolverV1",
            "label": "slotVersions",
            "offset": 0,
            "slot": "1",
            "type": "t_mapping(t_uint256,t_uint256)"
          }
        ],
        "numberOfBytes": "64"
      },
      "t_struct(Ingest)7150_storage": {
        "encoding": "inplace",
        "label": "struct SolverLib.Ingest",
        "members": [
          {
            "astId": 7140,
            "contract": "contracts/BasicSolverV1.sol:BasicSolverV1",
            "label": "executions",
            "offset": 0,
            "slot": "0",
            "type": "t_uint256"
          },
          {
            "astId": 7143,
            "contract": "contracts/BasicSolverV1.sol:BasicSolverV1",
            "label": "ingestType",
            "offset": 0,
            "slot": "1",
            "type": "t_enum(IngestType)7123"
          },
          {
            "astId": 7145,
            "contract": "contracts/BasicSolverV1.sol:BasicSolverV1",
            "label": "slot",
            "offset": 0,
            "slot": "2",
            "type": "t_uint256"
          },
          {
            "astId": 7147,
            "contract": "contracts/BasicSolverV1.sol:BasicSolverV1",
            "label": "solverIndex",
            "offset": 0,
            "slot": "3",
            "type": "t_uint256"
          },
          {
            "astId": 7149,
            "contract": "contracts/BasicSolverV1.sol:BasicSolverV1",
            "label": "data",
            "offset": 0,
            "slot": "4",
            "type": "t_bytes_storage"
          }
        ],
        "numberOfBytes": "160"
      },
      "t_struct(Multihash)7138_storage": {
        "encoding": "inplace",
        "label": "struct SolverLib.Multihash",
        "members": [
          {
            "astId": 7133,
            "contract": "contracts/BasicSolverV1.sol:BasicSolverV1",
            "label": "digest",
            "offset": 0,
            "slot": "0",
            "type": "t_bytes32"
          },
          {
            "astId": 7135,
            "contract": "contracts/BasicSolverV1.sol:BasicSolverV1",
            "label": "hashFunction",
            "offset": 0,
            "slot": "1",
            "type": "t_uint8"
          },
          {
            "astId": 7137,
            "contract": "contracts/BasicSolverV1.sol:BasicSolverV1",
            "label": "size",
            "offset": 1,
            "slot": "1",
            "type": "t_uint8"
          }
        ],
        "numberOfBytes": "64"
      },
      "t_uint256": {
        "encoding": "inplace",
        "label": "uint256",
        "numberOfBytes": "32"
      },
      "t_uint8": {
        "encoding": "inplace",
        "label": "uint8",
        "numberOfBytes": "1"
      }
    }
  }
}