{
  "address": "0xDc64a140Aa3E981100a9becA4E685f962f0cF6C9",
  "abi": [
    {
      "anonymous": false,
      "inputs": [
        {
          "indexed": false,
          "internalType": "bytes32",
          "name": "conditionId",
          "type": "bytes32"
        }
      ],
      "name": "ChangedStatus",
      "type": "event"
    },
    {
      "anonymous": false,
      "inputs": [
        {
          "indexed": false,
          "internalType": "bytes32",
          "name": "conditionId",
          "type": "bytes32"
        }
      ],
      "name": "DeliveredNullArbitration",
      "type": "event"
    },
    {
      "anonymous": false,
      "inputs": [
        {
          "indexed": false,
          "internalType": "address",
          "name": "child",
          "type": "address"
        }
      ],
      "name": "DeployedChild",
      "type": "event"
    },
    {
      "anonymous": false,
      "inputs": [],
      "name": "IngestedData",
      "type": "event"
    },
    {
      "anonymous": false,
      "inputs": [
        {
          "indexed": false,
          "internalType": "uint8",
          "name": "version",
          "type": "uint8"
        }
      ],
      "name": "Initialized",
      "type": "event"
    },
    {
      "anonymous": false,
      "inputs": [
        {
          "indexed": false,
          "internalType": "address",
          "name": "solver",
          "type": "address"
        },
        {
          "indexed": false,
          "internalType": "uint256",
          "name": "solveIndex",
          "type": "uint256"
        }
      ],
      "name": "PreparedSolve",
      "type": "event"
    },
    {
      "inputs": [
        {
          "internalType": "bytes32",
          "name": "_slot",
          "type": "bytes32"
        },
        {
          "internalType": "bytes",
          "name": "_data",
          "type": "bytes"
        }
      ],
      "name": "addData",
      "outputs": [],
      "stateMutability": "nonpayable",
      "type": "function"
    },
    {
      "inputs": [
        {
          "internalType": "uint256",
          "name": "_index",
          "type": "uint256"
        }
      ],
      "name": "addressFromChainIndex",
      "outputs": [
        {
          "internalType": "address",
          "name": "_address",
          "type": "address"
        }
      ],
      "stateMutability": "view",
      "type": "function"
    },
    {
      "inputs": [
        {
          "internalType": "uint256",
          "name": "_index",
          "type": "uint256"
        }
      ],
      "name": "allocationsValid",
      "outputs": [
        {
          "internalType": "bool",
          "name": "",
          "type": "bool"
        }
      ],
      "stateMutability": "view",
      "type": "function"
    },
    {
      "inputs": [
        {
          "internalType": "uint256",
          "name": "_index",
          "type": "uint256"
        },
        {
          "internalType": "uint256[]",
          "name": "payouts",
          "type": "uint256[]"
        }
      ],
      "name": "arbitrate",
      "outputs": [],
      "stateMutability": "nonpayable",
      "type": "function"
    },
    {
      "inputs": [
        {
          "internalType": "uint256",
          "name": "_index",
          "type": "uint256"
        }
      ],
      "name": "arbitrateNull",
      "outputs": [],
      "stateMutability": "nonpayable",
      "type": "function"
    },
    {
      "inputs": [],
      "name": "arbitrator",
      "outputs": [
        {
          "internalType": "address",
          "name": "",
          "type": "address"
        }
      ],
      "stateMutability": "view",
      "type": "function"
    },
    {
      "inputs": [],
      "name": "chainChild",
      "outputs": [
        {
          "internalType": "address",
          "name": "",
          "type": "address"
        }
      ],
      "stateMutability": "view",
      "type": "function"
    },
    {
      "inputs": [],
      "name": "chainIndex",
      "outputs": [
        {
          "internalType": "uint256",
          "name": "",
          "type": "uint256"
        }
      ],
      "stateMutability": "view",
      "type": "function"
    },
    {
      "inputs": [],
      "name": "chainParent",
      "outputs": [
        {
          "internalType": "address",
          "name": "",
          "type": "address"
        }
      ],
      "stateMutability": "view",
      "type": "function"
    },
    {
      "inputs": [],
      "name": "collateralBalance",
      "outputs": [
        {
          "internalType": "uint256",
          "name": "balance",
          "type": "uint256"
        }
      ],
      "stateMutability": "view",
      "type": "function"
    },
    {
      "inputs": [
        {
          "internalType": "uint256",
          "name": "index",
          "type": "uint256"
        }
      ],
      "name": "condition",
      "outputs": [
        {
          "components": [
            {
              "internalType": "contract IERC20",
              "name": "collateralToken",
              "type": "address"
            },
            {
              "internalType": "bytes32",
              "name": "questionId",
              "type": "bytes32"
            },
            {
              "internalType": "bytes32",
              "name": "parentCollectionId",
              "type": "bytes32"
            },
            {
              "internalType": "bytes32",
              "name": "conditionId",
              "type": "bytes32"
            },
            {
              "internalType": "uint256[]",
              "name": "payouts",
              "type": "uint256[]"
            },
            {
              "internalType": "enum SolverLib.Status",
              "name": "status",
              "type": "uint8"
            }
          ],
          "internalType": "struct SolverLib.Condition",
          "name": "",
          "type": "tuple"
        }
      ],
      "stateMutability": "view",
      "type": "function"
    },
    {
      "inputs": [
        {
          "internalType": "uint256",
          "name": "",
          "type": "uint256"
        }
      ],
      "name": "conditions",
      "outputs": [
        {
          "internalType": "contract IERC20",
          "name": "collateralToken",
          "type": "address"
        },
        {
          "internalType": "bytes32",
          "name": "questionId",
          "type": "bytes32"
        },
        {
          "internalType": "bytes32",
          "name": "parentCollectionId",
          "type": "bytes32"
        },
        {
          "internalType": "bytes32",
          "name": "conditionId",
          "type": "bytes32"
        },
        {
          "internalType": "enum SolverLib.Status",
          "name": "status",
          "type": "uint8"
        }
      ],
      "stateMutability": "view",
      "type": "function"
    },
    {
      "inputs": [],
      "name": "config",
      "outputs": [
        {
          "internalType": "contract Solver",
          "name": "implementation",
          "type": "address"
        },
        {
          "internalType": "address",
          "name": "keeper",
          "type": "address"
        },
        {
          "internalType": "address",
          "name": "arbitrator",
          "type": "address"
        },
        {
          "internalType": "uint256",
          "name": "timelockSeconds",
          "type": "uint256"
        },
        {
          "components": [
            {
              "internalType": "contract IERC20",
              "name": "collateralToken",
              "type": "address"
            },
            {
              "internalType": "uint256",
              "name": "outcomeSlots",
              "type": "uint256"
            },
            {
              "internalType": "uint256",
              "name": "parentCollectionIndexSet",
              "type": "uint256"
            },
            {
              "internalType": "bytes32",
              "name": "amountSlot",
              "type": "bytes32"
            },
            {
              "internalType": "uint256[]",
              "name": "partition",
              "type": "uint256[]"
            },
            {
              "components": [
                {
                  "internalType": "bytes32",
                  "name": "recipientAddressSlot",
                  "type": "bytes32"
                },
                {
                  "internalType": "bytes32[]",
                  "name": "recipientAmountSlots",
                  "type": "bytes32[]"
                }
              ],
              "internalType": "struct SolverLib.Allocation[]",
              "name": "allocations",
              "type": "tuple[]"
            },
            {
              "internalType": "string[]",
              "name": "outcomeURIs",
              "type": "string[]"
            }
          ],
          "internalType": "struct SolverLib.ConditionBase",
          "name": "conditionBase",
          "type": "tuple"
        }
      ],
      "stateMutability": "view",
      "type": "function"
    },
    {
      "inputs": [
        {
          "internalType": "uint256",
          "name": "_index",
          "type": "uint256"
        }
      ],
      "name": "confirmPayouts",
      "outputs": [],
      "stateMutability": "nonpayable",
      "type": "function"
    },
    {
      "inputs": [
        {
          "components": [
            {
              "internalType": "contract Solver",
              "name": "implementation",
              "type": "address"
            },
            {
              "internalType": "address",
              "name": "keeper",
              "type": "address"
            },
            {
              "internalType": "address",
              "name": "arbitrator",
              "type": "address"
            },
            {
              "internalType": "uint256",
              "name": "timelockSeconds",
              "type": "uint256"
            },
            {
              "components": [
                {
                  "internalType": "contract IModule",
                  "name": "module",
                  "type": "address"
                },
                {
                  "internalType": "bytes",
                  "name": "data",
                  "type": "bytes"
                }
              ],
              "internalType": "struct Modulated.Loader[]",
              "name": "moduleLoaders",
              "type": "tuple[]"
            },
            {
              "components": [
                {
                  "internalType": "uint256",
                  "name": "executions",
                  "type": "uint256"
                },
                {
                  "internalType": "enum SolverLib.IngestType",
                  "name": "ingestType",
                  "type": "uint8"
                },
                {
                  "internalType": "bytes32",
                  "name": "slot",
                  "type": "bytes32"
                },
                {
                  "internalType": "uint256",
                  "name": "solverIndex",
                  "type": "uint256"
                },
                {
                  "internalType": "bytes",
                  "name": "data",
                  "type": "bytes"
                }
              ],
              "internalType": "struct SolverLib.Ingest[]",
              "name": "ingests",
              "type": "tuple[]"
            },
            {
              "components": [
                {
                  "internalType": "contract IERC20",
                  "name": "collateralToken",
                  "type": "address"
                },
                {
                  "internalType": "uint256",
                  "name": "outcomeSlots",
                  "type": "uint256"
                },
                {
                  "internalType": "uint256",
                  "name": "parentCollectionIndexSet",
                  "type": "uint256"
                },
                {
                  "internalType": "bytes32",
                  "name": "amountSlot",
                  "type": "bytes32"
                },
                {
                  "internalType": "uint256[]",
                  "name": "partition",
                  "type": "uint256[]"
                },
                {
                  "components": [
                    {
                      "internalType": "bytes32",
                      "name": "recipientAddressSlot",
                      "type": "bytes32"
                    },
                    {
                      "internalType": "bytes32[]",
                      "name": "recipientAmountSlots",
                      "type": "bytes32[]"
                    }
                  ],
                  "internalType": "struct SolverLib.Allocation[]",
                  "name": "allocations",
                  "type": "tuple[]"
                },
                {
                  "internalType": "string[]",
                  "name": "outcomeURIs",
                  "type": "string[]"
                }
              ],
              "internalType": "struct SolverLib.ConditionBase",
              "name": "conditionBase",
              "type": "tuple"
            }
          ],
          "internalType": "struct SolverLib.Config",
          "name": "_config",
          "type": "tuple"
        }
      ],
      "name": "deployChild",
      "outputs": [
        {
          "internalType": "address",
          "name": "",
          "type": "address"
        }
      ],
      "stateMutability": "nonpayable",
      "type": "function"
    },
    {
      "inputs": [
        {
          "internalType": "uint256",
          "name": "_index",
          "type": "uint256"
        }
      ],
      "name": "executeSolve",
      "outputs": [],
      "stateMutability": "nonpayable",
      "type": "function"
    },
    {
      "inputs": [
        {
          "internalType": "bytes32",
          "name": "_slot",
          "type": "bytes32"
        }
      ],
      "name": "getAllData",
      "outputs": [
        {
          "internalType": "bytes[]",
          "name": "data",
          "type": "bytes[]"
        }
      ],
      "stateMutability": "view",
      "type": "function"
    },
    {
      "inputs": [
        {
          "internalType": "bytes32",
          "name": "_slot",
          "type": "bytes32"
        }
      ],
      "name": "getCallbackOutput",
      "outputs": [
        {
          "internalType": "bytes",
          "name": "data",
          "type": "bytes"
        }
      ],
      "stateMutability": "view",
      "type": "function"
    },
    {
      "inputs": [],
      "name": "getConditions",
      "outputs": [
        {
          "components": [
            {
              "internalType": "contract IERC20",
              "name": "collateralToken",
              "type": "address"
            },
            {
              "internalType": "bytes32",
              "name": "questionId",
              "type": "bytes32"
            },
            {
              "internalType": "bytes32",
              "name": "parentCollectionId",
              "type": "bytes32"
            },
            {
              "internalType": "bytes32",
              "name": "conditionId",
              "type": "bytes32"
            },
            {
              "internalType": "uint256[]",
              "name": "payouts",
              "type": "uint256[]"
            },
            {
              "internalType": "enum SolverLib.Status",
              "name": "status",
              "type": "uint8"
            }
          ],
          "internalType": "struct SolverLib.Condition[]",
          "name": "",
          "type": "tuple[]"
        }
      ],
      "stateMutability": "view",
      "type": "function"
    },
    {
      "inputs": [],
      "name": "getConfig",
      "outputs": [
        {
          "components": [
            {
              "internalType": "contract Solver",
              "name": "implementation",
              "type": "address"
            },
            {
              "internalType": "address",
              "name": "keeper",
              "type": "address"
            },
            {
              "internalType": "address",
              "name": "arbitrator",
              "type": "address"
            },
            {
              "internalType": "uint256",
              "name": "timelockSeconds",
              "type": "uint256"
            },
            {
              "components": [
                {
                  "internalType": "contract IModule",
                  "name": "module",
                  "type": "address"
                },
                {
                  "internalType": "bytes",
                  "name": "data",
                  "type": "bytes"
                }
              ],
              "internalType": "struct Modulated.Loader[]",
              "name": "moduleLoaders",
              "type": "tuple[]"
            },
            {
              "components": [
                {
                  "internalType": "uint256",
                  "name": "executions",
                  "type": "uint256"
                },
                {
                  "internalType": "enum SolverLib.IngestType",
                  "name": "ingestType",
                  "type": "uint8"
                },
                {
                  "internalType": "bytes32",
                  "name": "slot",
                  "type": "bytes32"
                },
                {
                  "internalType": "uint256",
                  "name": "solverIndex",
                  "type": "uint256"
                },
                {
                  "internalType": "bytes",
                  "name": "data",
                  "type": "bytes"
                }
              ],
              "internalType": "struct SolverLib.Ingest[]",
              "name": "ingests",
              "type": "tuple[]"
            },
            {
              "components": [
                {
                  "internalType": "contract IERC20",
                  "name": "collateralToken",
                  "type": "address"
                },
                {
                  "internalType": "uint256",
                  "name": "outcomeSlots",
                  "type": "uint256"
                },
                {
                  "internalType": "uint256",
                  "name": "parentCollectionIndexSet",
                  "type": "uint256"
                },
                {
                  "internalType": "bytes32",
                  "name": "amountSlot",
                  "type": "bytes32"
                },
                {
                  "internalType": "uint256[]",
                  "name": "partition",
                  "type": "uint256[]"
                },
                {
                  "components": [
                    {
                      "internalType": "bytes32",
                      "name": "recipientAddressSlot",
                      "type": "bytes32"
                    },
                    {
                      "internalType": "bytes32[]",
                      "name": "recipientAmountSlots",
                      "type": "bytes32[]"
                    }
                  ],
                  "internalType": "struct SolverLib.Allocation[]",
                  "name": "allocations",
                  "type": "tuple[]"
                },
                {
                  "internalType": "string[]",
                  "name": "outcomeURIs",
                  "type": "string[]"
                }
              ],
              "internalType": "struct SolverLib.ConditionBase",
              "name": "conditionBase",
              "type": "tuple"
            }
          ],
          "internalType": "struct SolverLib.Config",
          "name": "",
          "type": "tuple"
        }
      ],
      "stateMutability": "view",
      "type": "function"
    },
    {
      "inputs": [
        {
          "internalType": "bytes32",
          "name": "_slot",
          "type": "bytes32"
        }
      ],
      "name": "getData",
      "outputs": [
        {
          "internalType": "bytes",
          "name": "data",
          "type": "bytes"
        }
      ],
      "stateMutability": "view",
      "type": "function"
    },
    {
      "inputs": [
        {
          "internalType": "bytes32",
          "name": "key",
          "type": "bytes32"
        }
      ],
      "name": "getState",
      "outputs": [
        {
          "internalType": "bytes",
          "name": "data",
          "type": "bytes"
        }
      ],
      "stateMutability": "view",
      "type": "function"
    },
    {
      "inputs": [
        {
          "internalType": "uint256",
          "name": "conditionIndex",
          "type": "uint256"
        }
      ],
      "name": "getStatus",
      "outputs": [
        {
          "internalType": "enum SolverLib.Status",
          "name": "status",
          "type": "uint8"
        }
      ],
      "stateMutability": "view",
      "type": "function"
    },
    {
      "inputs": [
        {
          "internalType": "bytes32",
          "name": "_slot",
          "type": "bytes32"
        }
      ],
      "name": "handleCallback",
      "outputs": [],
      "stateMutability": "nonpayable",
      "type": "function"
    },
    {
      "inputs": [],
      "name": "ingestsValid",
      "outputs": [
        {
          "internalType": "bool",
          "name": "",
          "type": "bool"
        }
      ],
      "stateMutability": "view",
      "type": "function"
    },
    {
      "inputs": [
        {
          "internalType": "address",
          "name": "_deployer",
          "type": "address"
        },
        {
          "internalType": "address",
          "name": "_ctfAddress",
          "type": "address"
        },
        {
          "internalType": "address",
          "name": "_chainParent",
          "type": "address"
        },
        {
          "internalType": "uint256",
          "name": "_chainIndex",
          "type": "uint256"
        },
        {
          "components": [
            {
              "internalType": "contract Solver",
              "name": "implementation",
              "type": "address"
            },
            {
              "internalType": "address",
              "name": "keeper",
              "type": "address"
            },
            {
              "internalType": "address",
              "name": "arbitrator",
              "type": "address"
            },
            {
              "internalType": "uint256",
              "name": "timelockSeconds",
              "type": "uint256"
            },
            {
              "components": [
                {
                  "internalType": "contract IModule",
                  "name": "module",
                  "type": "address"
                },
                {
                  "internalType": "bytes",
                  "name": "data",
                  "type": "bytes"
                }
              ],
              "internalType": "struct Modulated.Loader[]",
              "name": "moduleLoaders",
              "type": "tuple[]"
            },
            {
              "components": [
                {
                  "internalType": "uint256",
                  "name": "executions",
                  "type": "uint256"
                },
                {
                  "internalType": "enum SolverLib.IngestType",
                  "name": "ingestType",
                  "type": "uint8"
                },
                {
                  "internalType": "bytes32",
                  "name": "slot",
                  "type": "bytes32"
                },
                {
                  "internalType": "uint256",
                  "name": "solverIndex",
                  "type": "uint256"
                },
                {
                  "internalType": "bytes",
                  "name": "data",
                  "type": "bytes"
                }
              ],
              "internalType": "struct SolverLib.Ingest[]",
              "name": "ingests",
              "type": "tuple[]"
            },
            {
              "components": [
                {
                  "internalType": "contract IERC20",
                  "name": "collateralToken",
                  "type": "address"
                },
                {
                  "internalType": "uint256",
                  "name": "outcomeSlots",
                  "type": "uint256"
                },
                {
                  "internalType": "uint256",
                  "name": "parentCollectionIndexSet",
                  "type": "uint256"
                },
                {
                  "internalType": "bytes32",
                  "name": "amountSlot",
                  "type": "bytes32"
                },
                {
                  "internalType": "uint256[]",
                  "name": "partition",
                  "type": "uint256[]"
                },
                {
                  "components": [
                    {
                      "internalType": "bytes32",
                      "name": "recipientAddressSlot",
                      "type": "bytes32"
                    },
                    {
                      "internalType": "bytes32[]",
                      "name": "recipientAmountSlots",
                      "type": "bytes32[]"
                    }
                  ],
                  "internalType": "struct SolverLib.Allocation[]",
                  "name": "allocations",
                  "type": "tuple[]"
                },
                {
                  "internalType": "string[]",
                  "name": "outcomeURIs",
                  "type": "string[]"
                }
              ],
              "internalType": "struct SolverLib.ConditionBase",
              "name": "conditionBase",
              "type": "tuple"
            }
          ],
          "internalType": "struct SolverLib.Config",
          "name": "_solverConfig",
          "type": "tuple"
        }
      ],
      "name": "init",
      "outputs": [],
      "stateMutability": "nonpayable",
      "type": "function"
    },
    {
      "inputs": [
        {
          "internalType": "bytes4",
          "name": "selector",
          "type": "bytes4"
        }
      ],
      "name": "isPermittedModule",
      "outputs": [
        {
          "internalType": "bool",
          "name": "",
          "type": "bool"
        }
      ],
      "stateMutability": "view",
      "type": "function"
    },
    {
      "inputs": [
        {
          "internalType": "address",
          "name": "account",
          "type": "address"
        },
        {
          "internalType": "uint256",
          "name": "conditionIndex",
          "type": "uint256"
        }
      ],
      "name": "isRecipient",
      "outputs": [
        {
          "internalType": "bool",
          "name": "",
          "type": "bool"
        }
      ],
      "stateMutability": "view",
      "type": "function"
    },
    {
      "inputs": [],
      "name": "keeper",
      "outputs": [
        {
          "internalType": "address",
          "name": "",
          "type": "address"
        }
      ],
      "stateMutability": "view",
      "type": "function"
    },
    {
      "inputs": [
        {
          "internalType": "address",
          "name": "operator",
          "type": "address"
        },
        {
          "internalType": "address",
          "name": "from",
          "type": "address"
        },
        {
          "internalType": "uint256[]",
          "name": "ids",
          "type": "uint256[]"
        },
        {
          "internalType": "uint256[]",
          "name": "values",
          "type": "uint256[]"
        },
        {
          "internalType": "bytes",
          "name": "data",
          "type": "bytes"
        }
      ],
      "name": "onERC1155BatchReceived",
      "outputs": [
        {
          "internalType": "bytes4",
          "name": "",
          "type": "bytes4"
        }
      ],
      "stateMutability": "nonpayable",
      "type": "function"
    },
    {
      "inputs": [
        {
          "internalType": "address",
          "name": "operator",
          "type": "address"
        },
        {
          "internalType": "address",
          "name": "from",
          "type": "address"
        },
        {
          "internalType": "uint256",
          "name": "id",
          "type": "uint256"
        },
        {
          "internalType": "uint256",
          "name": "value",
          "type": "uint256"
        },
        {
          "internalType": "bytes",
          "name": "data",
          "type": "bytes"
        }
      ],
      "name": "onERC1155Received",
      "outputs": [
        {
          "internalType": "bytes4",
          "name": "",
          "type": "bytes4"
        }
      ],
      "stateMutability": "nonpayable",
      "type": "function"
    },
    {
      "inputs": [
        {
          "internalType": "uint256",
          "name": "_index",
          "type": "uint256"
        }
      ],
      "name": "prepareSolve",
      "outputs": [],
      "stateMutability": "nonpayable",
      "type": "function"
    },
    {
      "inputs": [
        {
          "internalType": "uint256",
          "name": "_index",
          "type": "uint256"
        },
        {
          "internalType": "uint256[]",
          "name": "_payouts",
          "type": "uint256[]"
        }
      ],
      "name": "proposePayouts",
      "outputs": [],
      "stateMutability": "nonpayable",
      "type": "function"
    },
    {
      "inputs": [
        {
          "internalType": "contract IERC20",
          "name": "_collateralToken",
          "type": "address"
        },
        {
          "internalType": "bytes32",
          "name": "_parentCollectionId",
          "type": "bytes32"
        },
        {
          "internalType": "bytes32",
          "name": "_conditionId",
          "type": "bytes32"
        },
        {
          "internalType": "uint256[]",
          "name": "_indexSets",
          "type": "uint256[]"
        }
      ],
      "name": "redeemPosition",
      "outputs": [],
      "stateMutability": "nonpayable",
      "type": "function"
    },
    {
      "inputs": [
        {
          "internalType": "bytes32",
          "name": "_slot",
          "type": "bytes32"
        },
        {
          "internalType": "uint256",
          "name": "_chainIndex",
          "type": "uint256"
        }
      ],
      "name": "registerOutgoingCallback",
      "outputs": [],
      "stateMutability": "nonpayable",
      "type": "function"
    },
    {
      "inputs": [
        {
          "internalType": "uint256",
          "name": "_index",
          "type": "uint256"
        }
      ],
      "name": "requestArbitration",
      "outputs": [],
      "stateMutability": "nonpayable",
      "type": "function"
    },
    {
      "inputs": [
        {
          "internalType": "bytes32",
          "name": "key",
          "type": "bytes32"
        },
        {
          "internalType": "bytes",
          "name": "data",
          "type": "bytes"
        }
      ],
      "name": "setState",
      "outputs": [],
      "stateMutability": "nonpayable",
      "type": "function"
    },
    {
      "inputs": [
        {
          "internalType": "uint256",
          "name": "_index",
          "type": "uint256"
        },
        {
          "internalType": "uint256",
          "name": "_date",
          "type": "uint256"
        }
      ],
      "name": "setTimelock",
      "outputs": [],
      "stateMutability": "nonpayable",
      "type": "function"
    },
    {
      "inputs": [
        {
          "internalType": "bytes32",
          "name": "_trackingId",
          "type": "bytes32"
        }
      ],
      "name": "setTrackingId",
      "outputs": [],
      "stateMutability": "nonpayable",
      "type": "function"
    },
    {
      "inputs": [
        {
          "internalType": "bytes4",
          "name": "interfaceId",
          "type": "bytes4"
        }
      ],
      "name": "supportsInterface",
      "outputs": [
        {
          "internalType": "bool",
          "name": "",
          "type": "bool"
        }
      ],
      "stateMutability": "view",
      "type": "function"
    },
    {
      "inputs": [
        {
          "internalType": "uint256",
          "name": "",
          "type": "uint256"
        }
      ],
      "name": "timelocks",
      "outputs": [
        {
          "internalType": "uint256",
          "name": "",
          "type": "uint256"
        }
      ],
      "stateMutability": "view",
      "type": "function"
    },
    {
      "inputs": [],
      "name": "trackingId",
      "outputs": [
        {
          "internalType": "bytes32",
          "name": "",
          "type": "bytes32"
        }
      ],
      "stateMutability": "view",
      "type": "function"
    }
  ],
  "transactionHash": "0xb089f56065d355f8af3dcc8ec8de05e5388127101a1d560ba9b3280ab1ae5ed4",
  "args": [],
  "solcInputHash": "400b7e055348f14f5e3dd2cd0dbabc68",
  "bytecode": "0x60806040523480156200001157600080fd5b506200001c62000022565b6200013d565b6200002e60ff62000031565b50565b600354600090610100900460ff16156200009c578160ff1660011480156200006c57506200006a30620000e060201b62002c861760201c565b155b620000945760405162461bcd60e51b81526004016200008b90620000ef565b60405180910390fd5b506000919050565b60035460ff808416911610620000c65760405162461bcd60e51b81526004016200008b90620000ef565b506003805460ff191660ff92909216919091179055600190565b6001600160a01b03163b151590565b6020808252602e908201527f496e697469616c697a61626c653a20636f6e747261637420697320616c72656160408201526d191e481a5b9a5d1a585b1a5e995960921b606082015260800190565b61599c806200014d6000396000f3fe608060405234801561001057600080fd5b50600436106101ee5760003560e01c806301ffc9a7146101f357806309648a9d1461021b5780630d06101a1461023b5780630d7e149f146102505780630d8d397514610271578063187825591461028457806326c500071461029757806331402a57146102bb5780633837b05e146102ce5780633f4fb5aa146102ee57806344c3b6071461030157806348cbb2fc146103145780634a77234e1461031d5780634e46f22314610330578063506da0b81461034357806354f6127f1461035657806355dd978b146103695780635c622a0e1461037c5780636463845b1461039c5780636cc6cde1146103af57806379502c55146103c05780637c123627146103d957806380b204b7146103ee57806380c2dde21461040157806381296f6f146104145780638602ce1b1461042757806387dfee571461043a578063999925061461044d578063a272ebcf14610455578063aced166114610468578063b992db0f14610479578063bc197c811461048c578063c08d6f01146104bb578063c3f909d4146104db578063c8abf6da146104f0578063c98c05b714610503578063d6860d551461050b578063de3a23c51461051e578063df33cc5114610531578063ea8221a914610544578063f23a6e611461054d578063f24fc90314610560575b600080fd5b610206610201366004613798565b610580565b60405190151581526020015b60405180910390f35b61022e6102293660046137c2565b6105b7565b6040516102129190613837565b61024e6102493660046137c2565b610659565b005b61026361025e3660046137c2565b6106bb565b604051908152602001610212565b61024e61027f3660046137c2565b6106dc565b61024e6102923660046138aa565b61082e565b6102aa6102a53660046137c2565b6108dd565b60405161021295949392919061394a565b61024e6102c93660046137c2565b61092b565b6102e16102dc3660046137c2565b610ac0565b604051610212919061397c565b61022e6102fc3660046137c2565b610bd1565b61020661030f3660046137c2565b610c68565b61026360185481565b61024e61032b3660046137c2565b610ced565b61024e61033e3660046137c2565b611023565b61020661035136600461399b565b6110ea565b61022e6103643660046137c2565b61122f565b6015546102e1906001600160a01b031681565b61038f61038a3660046137c2565b61124f565b60405161021291906139c7565b6102e16103aa3660046139ed565b611281565b6008546001600160a01b03166102e1565b6103c86113df565b604051610212959493929190613bbb565b6103e1611626565b6040516102129190613c62565b61024e6103fc366004613cc4565b611739565b6014546102e1906001600160a01b031681565b61024e610422366004613da4565b6118ac565b61024e610435366004613da4565b6118f7565b61024e610448366004613e50565b6119ef565b610206611b87565b610206610463366004613798565b611c0c565b6007546001600160a01b03166102e1565b61024e6104873660046137c2565b611c9a565b6104ae61049a366004613f2d565b63bc197c8160e01b98975050505050505050565b6040516102129190613feb565b6104ce6104c93660046137c2565b611eae565b6040516102129190614000565b6104e3611f93565b604051610212919061414e565b61024e6104fe3660046141ed565b612459565b6102636124b3565b61024e61051936600461420f565b612525565b61024e61052c3660046137c2565b6126e5565b61024e61053f3660046141ed565b612a0f565b61026360165481565b6104ae61055b36600461428d565b612b56565b61057361056e3660046137c2565b612b69565b6040516102129190614308565b60006001600160e01b03198216630271189760e51b14806105b157506301ffc9a760e01b6001600160e01b03198316145b92915050565b60008181526002602052604090208054606091906105d49061431b565b80601f01602080910402602001604051908101604052809291908181526020018280546106009061431b565b801561064d5780601f106106225761010080835404028352916020019161064d565b820191906000526020600020905b81548152906001019060200180831161063057829003601f168201915b50505050509050919050565b6018541561069f5760405162461bcd60e51b815260206004820152600e60248201526d151c9858dada5b99d259081cd95d60921b60448201526064015b60405180910390fd5b6005546001600160a01b031633146106b657600080fd5b601855565b601781815481106106cb57600080fd5b600091825260209091200154905081565b601781815481106106ef576106ef61434f565b906000526020600020015442116107185760405162461bcd60e51b815260040161069690614365565b60026013828154811061072d5761072d61434f565b60009182526020909120600560069092020181015460ff169081111561075557610755613920565b146107915760405162461bcd60e51b815260206004820152600c60248201526b139bdd081c1c9bdc1bdcd95960a21b6044820152606401610696565b6004546013805473Cf7Ed3AccA5a467e9e704C703E8D87F634fB0Fc9926385c92867926001600160a01b0390911691859081106107d0576107d061434f565b90600052602060002090600602016040518363ffffffff1660e01b81526004016107fb929190614389565b60006040518083038186803b15801561081357600080fd5b505af4158015610827573d6000803e3d6000fd5b5050505050565b6007546001600160a01b03163314806108525750610852631878255960e01b611c0c565b61086e5760405162461bcd60e51b8152600401610696906143a2565b60048054604051626dc0df60e21b81526001600160a01b03909116916301b7037c916108a49189918991899189918991016143fd565b600060405180830381600087803b1580156108be57600080fd5b505af11580156108d2573d6000803e3d6000fd5b505050505050505050565b601381815481106108ed57600080fd5b6000918252602090912060069091020180546001820154600283015460038401546005909401546001600160a01b0390931694509092909160ff1685565b6008546001600160a01b031633148061094f575061094f6331402a5760e01b611c0c565b61096b5760405162461bcd60e51b81526004016106969061442b565b6002601382815481106109805761098061434f565b60009182526020909120600560069092020181015460ff16908111156109a8576109a8613920565b14806109ee57506003601382815481106109c4576109c461434f565b60009182526020909120600560069092020181015460ff16908111156109ec576109ec613920565b145b610a2b5760405162461bcd60e51b815260206004820152600e60248201526d10d85b9b9bdd081c995c5d595cdd60921b6044820152606401610696565b73Cf7Ed3AccA5a467e9e704C703E8D87F634fB0Fc9633bdce6e660138381548110610a5857610a5861434f565b90600052602060002090600602016040518263ffffffff1660e01b8152600401610a8491815260200190565b60006040518083038186803b158015610a9c57600080fd5b505af4158015610ab0573d6000803e3d6000fd5b50505050610abd81612c95565b50565b60006016548203610ad2575030919050565b601654821015610b61576014546001600160a01b0316610af457506000919050565b601454604051631c1bd82f60e11b8152600481018490526001600160a01b0390911690633837b05e90602401602060405180830381865afa158015610b3d573d6000803e3d6000fd5b505050506040513d601f19601f820116820180604052508101906105b19190614454565b601654821115610bcc576015546001600160a01b0316610b8357506000919050565b601554604051631c1bd82f60e11b8152600481018490526001600160a01b0390911690633837b05e90602401602060405180830381865afa158015610b3d573d6000803e3d6000fd5b919050565b6013546000828152601d602052604090205460609114610c275760405162461bcd60e51b815260206004820152601160248201527029b637ba1034b73b30b634b2103b32b91760791b6044820152606401610696565b6000828152601d602052604090208054610c4390600190614487565b81548110610c5357610c5361434f565b9060005260206000200180546105d49061431b565b6040516336d39c6160e11b815260048101829052601d6024820152600c604482015260009073Cf7Ed3AccA5a467e9e704C703E8D87F634fB0Fc990636da738c290606401602060405180830381865af4158015610cc9573d6000803e3d6000fd5b505050506040513d601f19601f820116820180604052508101906105b1919061449e565b60135415610d4a576007546001600160a01b0316331480610d1857506014546001600160a01b031633145b80610d2e5750610d2e63253b91a760e11b611c0c565b610d4a5760405162461bcd60e51b8152600401610696906144c0565b6013548114610d8b5760405162461bcd60e51b815260206004820152600d60248201526c092dcecc2d8d2c840d2dcc8caf609b1b6044820152606401610696565b601a5415610dca5760405162461bcd60e51b815260206004820152600c60248201526b6f7574676f696e672063627360a01b6044820152606401610696565b60195415610e095760405162461bcd60e51b815260206004820152600c60248201526b696e636f6d696e672063627360a01b6044820152606401610696565b600480546014546013805460405163699e0add60e01b8152919473Cf7Ed3AccA5a467e9e704C703E8D87F634fB0Fc99463699e0add94610e5d946001600160a01b0392831694600c94939092169201614687565b600060405180830381865af4158015610e7a573d6000803e3d6000fd5b505050506040513d6000823e601f3d908101601f19168201604052610ea29190810190614748565b8154600180820184556000938452602093849020835160069093020180546001600160a01b0319166001600160a01b03909316929092178255828401519082015560408201516002820155606082015160038201556080820151805192939192610f129260048501920190613624565b5060a08201518160050160006101000a81548160ff02191690836005811115610f3d57610f3d613920565b0217905550506017805460018101825560009182527fc624b66cc0138b8fabc209247f72d758e1cf3343756d543badbf24212bed8c15015550610f7e612ccf565b7f152ec8ae15d347b2d2a8f0858caa29bcaaa0906749a1f43e08bfe799834602403082604051610faf929190614389565b60405180910390a16015546001600160a01b031615610abd5760155460405163253b91a760e11b8152600481018390526001600160a01b0390911690634a77234e906024015b600060405180830381600087803b15801561100f57600080fd5b505af1158015610827573d6000803e3d6000fd5b6008546001600160a01b03163314806110475750611047634e46f22360e01b611c0c565b6110635760405162461bcd60e51b81526004016106969061442b565b6003601382815481106110785761107861434f565b60009182526020909120600560069092020181015460ff16908111156110a0576110a0613920565b146110bd5760405162461bcd60e51b81526004016106969061484c565b73Cf7Ed3AccA5a467e9e704C703E8D87F634fB0Fc96359111fb560138381548110610a5857610a5861434f565b6000805b6011548110156112255760118054600091601d91839190859081106111155761111561434f565b906000526020600020906002020160000154815260200190815260200160002084815481106111465761114661434f565b90600052602060002001805461115b9061431b565b80601f01602080910402602001604051908101604052809291908181526020018280546111879061431b565b80156111d45780601f106111a9576101008083540402835291602001916111d4565b820191906000526020600020905b8154815290600101906020018083116111b757829003601f168201915b50505050508060200190518101906111ec9190614454565b9050806001600160a01b0316856001600160a01b031603611212576001925050506105b1565b508061121d8161487e565b9150506110ee565b5060009392505050565b6000818152601d60205260409020805460609190610c4390600190614487565b6000601382815481106112645761126461434f565b600091825260209091206005600690920201015460ff1692915050565b6007546000906001600160a01b03163314806112a857506112a8636463845b60e01b611c0c565b6112e25760405162461bcd60e51b815260206004820152600b60248201526a27b7363c9035b2b2b832b960a91b6044820152606401610696565b6015546001600160a01b0316156113275760405162461bcd60e51b815260206004820152600960248201526812185cc818da1a5b1960ba1b6044820152606401610696565b6003546016546018546040516386a2d22760e01b815273Cf7Ed3AccA5a467e9e704C703E8D87F634fB0Fc9936386a2d2279361137993620100009092046001600160a01b031692889290600401614c10565b602060405180830381865af4158015611396573d6000803e3d6000fd5b505050506040513d601f19601f820116820180604052508101906113ba9190614454565b601580546001600160a01b0319166001600160a01b0392909216918217905592915050565b600680546007546008546009546040805160e081018252600c80546001600160a01b039081168352600d54602080850191909152600e5484860152600f546060850152601080548651818402810184019097528087529983169a9883169997909216979596939492936080860193929183018282801561147e57602002820191906000526020600020905b81548152602001906001019080831161146a575b5050505050815260200160058201805480602002602001604051908101604052809291908181526020016000905b828210156115405783829060005260206000209060020201604051806040016040529081600082015481526020016001820180548060200260200160405190810160405280929190818152602001828054801561152857602002820191906000526020600020905b815481526020019060010190808311611514575b505050505081525050815260200190600101906114ac565b50505050815260200160068201805480602002602001604051908101604052809291908181526020016000905b8282101561161957838290600052602060002001805461158c9061431b565b80601f01602080910402602001604051908101604052809291908181526020018280546115b89061431b565b80156116055780601f106115da57610100808354040283529160200191611605565b820191906000526020600020905b8154815290600101906020018083116115e857829003601f168201915b50505050508152602001906001019061156d565b5050505081525050905085565b60606013805480602002602001604051908101604052809291908181526020016000905b828210156117305760008481526020908190206040805160c0810182526006860290920180546001600160a01b0316835260018101548385015260028101548383015260038101546060840152600481018054835181870281018701909452808452939491936080860193928301828280156116e557602002820191906000526020600020905b8154815260200190600101908083116116d1575b505050918352505060058281015460209092019160ff169081111561170c5761170c613920565b600581111561171d5761171d613920565b815250508152602001906001019061164a565b50505050905090565b6007546001600160a01b031633148061175d575061175d6380b204b760e01b611c0c565b6117795760405162461bcd60e51b8152600401610696906143a2565b600d54811461179a5760405162461bcd60e51b815260040161069690614d00565b6001601384815481106117af576117af61434f565b60009182526020909120600560069092020181015460ff16908111156117d7576117d7613920565b146118135760405162461bcd60e51b815260206004820152600c60248201526b139bdd08115e1958dd5d195960a21b6044820152606401610696565b73Cf7Ed3AccA5a467e9e704C703E8D87F634fB0Fc9636a0a24f1601385815481106118405761184061434f565b906000526020600020906006020184846040518463ffffffff1660e01b815260040161186e93929190614d37565b60006040518083038186803b15801561188657600080fd5b505af415801561189a573d6000803e3d6000fd5b505050506118a783612c95565b505050565b6118bc6381296f6f60e01b611c0c565b6118d85760405162461bcd60e51b8152600401610696906144c0565b600082815260026020908152604090912082516118a79284019061366f565b6007546001600160a01b031633148061191b575061191b638602ce1b60e01b611c0c565b6119375760405162461bcd60e51b8152600401610696906143a2565b6000828152601e6020526040902054600b805460039290811061195c5761195c61434f565b600091825260209091206001600590920201015460ff16600381111561198457611984613920565b146119ca5760405162461bcd60e51b81526020600482015260166024820152751bdb9b1e48125b99d95cdd151e5c194b93585b9d585b60521b6044820152606401610696565b6119d48282612f4d565b60405160008051602061594783398151915290600090a15050565b6008546001600160a01b0316331480611a135750611a136387dfee5760e01b611c0c565b611a2f5760405162461bcd60e51b81526004016106969061442b565b600360138381548110611a4457611a4461434f565b60009182526020909120600560069092020181015460ff1690811115611a6c57611a6c613920565b14611a895760405162461bcd60e51b81526004016106969061484c565b60178281548110611a9c57611a9c61434f565b90600052602060002001544211611ac55760405162461bcd60e51b815260040161069690614365565b600d54815114611ae75760405162461bcd60e51b815260040161069690614d00565b6004546013805473Cf7Ed3AccA5a467e9e704C703E8D87F634fB0Fc992631b948e49926001600160a01b039091169186908110611b2657611b2661434f565b9060005260206000209060060201846040518463ffffffff1660e01b8152600401611b5393929190614d51565b60006040518083038186803b158015611b6b57600080fd5b505af4158015611b7f573d6000803e3d6000fd5b505050505050565b601354604051635cc1f6b560e01b815260009173Cf7Ed3AccA5a467e9e704C703E8D87F634fB0Fc991635cc1f6b591611bc691600b9190600401614dae565b602060405180830381865af4158015611be3573d6000803e3d6000fd5b505050506040513d601f19601f82011682018060405250810190611c07919061449e565b905090565b3360009081526001602052604081205460ff1615611c92576040516311247ecf60e11b81526000903390632248fd9e90611c4a908690600401613feb565b602060405180830381865afa158015611c67573d6000803e3d6000fd5b505050506040513d601f19601f82011682018060405250810190611c8b919061449e565b9392505050565b506000919050565b611ca2611b87565b1515600114611ce55760405162461bcd60e51b815260206004820152600f60248201526e1a5b99d95cdd1cc81a5b9d985b1a59608a1b6044820152606401610696565b73Cf7Ed3AccA5a467e9e704C703E8D87F634fB0Fc9632dd4082482600460009054906101000a90046001600160a01b031660138581548110611d2957611d2961434f565b60009182526020808320601854601454600f548652601d9384905260409095208054600690950290920194600c9491926001600160a01b03909116918b908110611d7557611d7561434f565b906000526020600020018054611d8a9061431b565b80601f0160208091040260200160405190810160405280929190818152602001828054611db69061431b565b8015611e035780601f10611dd857610100808354040283529160200191611e03565b820191906000526020600020905b815481529060010190602001808311611de657829003601f168201915b5050505050806020019051810190611e1b9190614e59565b60405160e08a901b6001600160e01b031916815260048101989098526001600160a01b03968716602489015260448801959095526064870193909352608486019190915260a485015290911660c483015260e48201526101040160006040518083038186803b158015611e8d57600080fd5b505af4158015611ea1573d6000803e3d6000fd5b50505050610abd81612feb565b6000818152601d60209081526040808320805482518185028101850190935280835260609492939192909184015b82821015611f88578382906000526020600020018054611efb9061431b565b80601f0160208091040260200160405190810160405280929190818152602001828054611f279061431b565b8015611f745780601f10611f4957610100808354040283529160200191611f74565b820191906000526020600020905b815481529060010190602001808311611f5757829003601f168201915b505050505081526020019060010190611edc565b505050509050919050565b611f9b6136e2565b6040805160e081018252600680546001600160a01b0390811683526007548116602080850191909152600854909116838501526009546060840152600a80548551818402810184019096528086529394929360808601939260009084015b828210156120d2576000848152602090819020604080518082019091526002850290910180546001600160a01b0316825260018101805492939192918401916120419061431b565b80601f016020809104026020016040519081016040528092919081815260200182805461206d9061431b565b80156120ba5780601f1061208f576101008083540402835291602001916120ba565b820191906000526020600020905b81548152906001019060200180831161209d57829003601f168201915b50505050508152505081526020019060010190611ff9565b50505050815260200160058201805480602002602001604051908101604052809291908181526020016000905b8282101561221a57838290600052602060002090600502016040518060a0016040529081600082015481526020016001820160009054906101000a900460ff16600381111561215057612150613920565b600381111561216157612161613920565b815260200160028201548152602001600382015481526020016004820180546121899061431b565b80601f01602080910402602001604051908101604052809291908181526020018280546121b59061431b565b80156122025780601f106121d757610100808354040283529160200191612202565b820191906000526020600020905b8154815290600101906020018083116121e557829003601f168201915b505050505081525050815260200190600101906120ff565b505050908252506040805160e0810182526006840180546001600160a01b03168252600785015460208381019190915260088601548385015260098601546060840152600a8601805485518184028101840190965280865295820195939492936080860193928301828280156122af57602002820191906000526020600020905b81548152602001906001019080831161229b575b5050505050815260200160058201805480602002602001604051908101604052809291908181526020016000905b828210156123715783829060005260206000209060020201604051806040016040529081600082015481526020016001820180548060200260200160405190810160405280929190818152602001828054801561235957602002820191906000526020600020905b815481526020019060010190808311612345575b505050505081525050815260200190600101906122dd565b50505050815260200160068201805480602002602001604051908101604052809291908181526020016000905b8282101561244a5783829060005260206000200180546123bd9061431b565b80601f01602080910402602001604051908101604052809291908181526020018280546123e99061431b565b80156124365780601f1061240b57610100808354040283529160200191612436565b820191906000526020600020905b81548152906001019060200180831161241957829003601f168201915b50505050508152602001906001019061239e565b50505091525050905250919050565b612469636455fb6d60e11b611c0c565b6124855760405162461bcd60e51b8152600401610696906144c0565b612490816001614e72565b601783815481106124a3576124a361434f565b6000918252602090912001555050565b600c546040516370a0823160e01b81526000916001600160a01b0316906370a08231906124e490309060040161397c565b602060405180830381865afa158015612501573d6000803e3d6000fd5b505050506040513d601f19601f82011682018060405250810190611c079190614e59565b60006125316001613121565b90508015612549576003805461ff0019166101001790555b600061255b6040840160208501614e91565b6001600160a01b0316036125a25760405162461bcd60e51b815260206004820152600e60248201526d12d9595c195c881a5b9d985b1a5960921b6044820152606401610696565b600580546001600160a01b03199081166001600160a01b03898116919091179092556003805462010000600160b01b03191633620100000217905560048054821688841617905560148054909116918616919091179055601683905581600661260b8282615694565b90505060005b61261e60a0840184614ece565b90508110156126825780601e600061263960a0870187614ece565b858181106126495761264961434f565b905060200281019061265b9190615111565b6040908101358252602082019290925201600020558061267a8161487e565b915050612611565b506126986126936080840184614ece565b6131aa565b8015611b7f576003805461ff0019169055604051600181527f7f26b83ff96e1f2b6a682f133852f6798a09c465da95921460cefb38474024989060200160405180910390a1505050505050565b600033826040516020016126fa9291906157fc565b60408051601f1981840301815291815281516020928301206000818152601c909352912054600b805492935061275292909190811061273b5761273b61434f565b906000526020600020906005020160030154610ac0565b6001600160a01b0316336001600160a01b0316146127825760405162461bcd60e51b815260040161069690615819565b6000818152601c6020526040812054600b805490919081106127a6576127a661434f565b600091825260209091206001600590920201015460ff1660038111156127ce576127ce613920565b146128045760405162461bcd60e51b81526020600482015260066024820152653737ba1021b160d11b6044820152606401610696565b6000818152601c6020526040902054600b805490919081106128285761282861434f565b6000918252602082206005909102018054916128438361487e565b90915550506000818152601c6020526040902054600b80546129d09290811061286e5761286e61434f565b906000526020600020906005020160020154336001600160a01b0316633f4fb5aa60066005016019600301600087815260200190815260200160002054815481106128bb576128bb61434f565b906000526020600020906005020160040180546128d79061431b565b80601f01602080910402602001604051908101604052809291908181526020018280546129039061431b565b80156129505780601f1061292557610100808354040283529160200191612950565b820191906000526020600020905b81548152906001019060200180831161293357829003601f168201915b50505050508060200190518101906129689190614e59565b6040518263ffffffff1660e01b815260040161298691815260200190565b600060405180830381865afa1580156129a3573d6000803e3d6000fd5b505050506040513d6000823e601f3d908101601f191682016040526129cb9190810190615848565b612f4d565b6000818152601c6020526040812081905560198054916129ef836158b5565b909155505060405160008051602061594783398151915290600090a15050565b6016548111612a585760405162461bcd60e51b8152602060048201526015602482015274736f6c766572206e6f7420646f776e73747265616d60581b6044820152606401610696565b612a6181610ac0565b6001600160a01b0316336001600160a01b031614612a915760405162461bcd60e51b815260040161069690615819565b6000828152601d602052604090205415801590612abd57506013546000838152601d6020526040902054145b15612b0f5760405163de3a23c560e01b815260048101839052339063de3a23c590602401600060405180830381600087803b158015612afb57600080fd5b505af1158015611b7f573d6000803e3d6000fd5b6000828152601b60209081526040822080546001810182559083529082200180546001600160a01b03191633179055601a805491612b4c8361487e565b91905055505b5050565b63f23a6e6160e01b5b9695505050505050565b612b9e6040805160c081018252600080825260208201819052918101829052606080820183905260808201529060a082015290565b60138281548110612bb157612bb161434f565b60009182526020918290206040805160c081018252600690930290910180546001600160a01b031683526001810154838501526002810154838301526003810154606084015260048101805483518187028101870190945280845293949193608086019392830182828015612c4557602002820191906000526020600020905b815481526020019060010190808311612c31575b505050918352505060058281015460209092019160ff1690811115612c6c57612c6c613920565b6005811115612c7d57612c7d613920565b90525092915050565b6001600160a01b03163b151590565b600954612ca3906001614e72565b612cad90426158cc565b60178281548110612cc057612cc061434f565b60009182526020909120015550565b60005b600b54811015612f33576000600b805483908110612cf257612cf261434f565b600091825260209091206001600590920201015460ff166003811115612d1a57612d1a613920565b14612d5057612d4b60066005018281548110612d3857612d3861434f565b90600052602060002090600502016132e8565b612f21565b6000306001600160a01b0316633837b05e60066005018481548110612d7757612d7761434f565b9060005260206000209060050201600301546040518263ffffffff1660e01b8152600401612da791815260200190565b602060405180830381865afa158015612dc4573d6000803e3d6000fd5b505050506040513d601f19601f82011682018060405250810190612de89190614454565b9050612df481836133d4565b806001600160a01b031663df33cc5160066005018481548110612e1957612e1961434f565b90600052602060002090600502016004018054612e359061431b565b80601f0160208091040260200160405190810160405280929190818152602001828054612e619061431b565b8015612eae5780601f10612e8357610100808354040283529160200191612eae565b820191906000526020600020905b815481529060010190602001808311612e9157829003601f168201915b5050505050806020019051810190612ec69190614e59565b6016546040516001600160e01b031960e085901b16815260048101929092526024820152604401600060405180830381600087803b158015612f0757600080fd5b505af1158015612f1b573d6000803e3d6000fd5b50505050505b80612f2b8161487e565b915050612cd2565b5060405160008051602061594783398151915290600090a1565b601354612f5c90600190614487565b6000838152601d602052604090205414612faf5760405162461bcd60e51b815260206004820152601460248201527314db1bdd081d995c9cda5bdb881a5b9d985b1a5960621b6044820152606401610696565b6000828152601d6020908152604082208054600181018255908352918190208351612fe193919091019184019061366f565b50612b52826134ea565b6015546001600160a01b0316158015906130775750601560009054906101000a90046001600160a01b03166001600160a01b031663999925066040518163ffffffff1660e01b8152600401602060405180830381865afa158015613053573d6000803e3d6000fd5b505050506040513d601f19601f82011682018060405250810190613077919061449e565b80156130eb57506015546040516344c3b60760e01b8152600481018390526001600160a01b03909116906344c3b60790602401602060405180830381865afa1580156130c7573d6000803e3d6000fd5b505050506040513d601f19601f820116820180604052508101906130eb919061449e565b15610abd5760155460405163b992db0f60e01b8152600481018390526001600160a01b039091169063b992db0f90602401610ff5565b600354600090610100900460ff1615613169578160ff16600114801561314d575061314b30612c86565b155b611c925760405162461bcd60e51b8152600401610696906158e4565b60035460ff8084169116106131905760405162461bcd60e51b8152600401610696906158e4565b506003805460ff191660ff92909216919091179055600190565b60005b818110156118a75760018060008585858181106131cc576131cc61434f565b90506020028101906131de9190614f17565b6131ec906020810190614e91565b6001600160a01b031681526020810191909152604001600020805460ff19169115159190911790558282828181106132265761322661434f565b90506020028101906132389190614f17565b613246906020810190614e91565b6001600160a01b0316633cef64cc8484848181106132665761326661434f565b90506020028101906132789190614f17565b613286906020810190614fb4565b6040518363ffffffff1660e01b81526004016132a3929190615932565b600060405180830381600087803b1580156132bd57600080fd5b505af11580156132d1573d6000803e3d6000fd5b5050505080806132e09061487e565b9150506131ad565b600181015460039060ff168181111561330357613303613920565b11156133465760405162461bcd60e51b8152602060048201526012602482015271496e76616c696420696e676573745479706560701b6044820152606401610696565b80548160006133548361487e565b9091555060039050600182015460ff16600381111561337557613375613920565b14610abd57600281015460405163b3d7370760e01b815260048101839052610abd919073Cf7Ed3AccA5a467e9e704C703E8D87F634fB0Fc99063b3d7370790602401600060405180830381865af41580156129a3573d6000803e3d6000fd5b806019600301600084600660050185815481106133f3576133f361434f565b9060005260206000209060050201600401805461340f9061431b565b80601f016020809104026020016040519081016040528092919081815260200182805461343b9061431b565b80156134885780601f1061345d57610100808354040283529160200191613488565b820191906000526020600020905b81548152906001019060200180831161346b57829003601f168201915b50505050508060200190518101906134a09190614e59565b6040516020016134b19291906157fc565b60408051601f198184030181529181528151602092830120835290820192909252016000908120919091556019805491612b4c8361487e565b60005b6000828152601b6020526040902054811015612b52576000828152601b602052604081208054839081106135235761352361434f565b6000918252602090912001546001600160a01b031614613612576000828152601b6020526040902080548290811061355d5761355d61434f565b60009182526020909120015460405163de3a23c560e01b8152600481018490526001600160a01b039091169063de3a23c590602401600060405180830381600087803b1580156135ac57600080fd5b505af11580156135c0573d6000803e3d6000fd5b5050506000838152601b602052604090208054909150829081106135e6576135e661434f565b6000918252602082200180546001600160a01b0319169055601a80549161360c836158b5565b91905055505b8061361c8161487e565b9150506134ed565b82805482825590600052602060002090810192821561365f579160200282015b8281111561365f578251825591602001919060010190613644565b5061366b929150613783565b5090565b82805461367b9061431b565b90600052602060002090601f01602090048101928261369d576000855561365f565b82601f106136b657805160ff191683800117855561365f565b8280016001018555821561365f579182018281111561365f578251825591602001919060010190613644565b6040518060e0016040528060006001600160a01b0316815260200160006001600160a01b0316815260200160006001600160a01b0316815260200160008152602001606081526020016060815260200161377e6040518060e0016040528060006001600160a01b031681526020016000815260200160008152602001600080191681526020016060815260200160608152602001606081525090565b905290565b5b8082111561366b5760008155600101613784565b6000602082840312156137aa57600080fd5b81356001600160e01b031981168114611c8b57600080fd5b6000602082840312156137d457600080fd5b5035919050565b60005b838110156137f65781810151838201526020016137de565b83811115613805576000848401525b50505050565b600081518084526138238160208601602086016137db565b601f01601f19169290920160200192915050565b602081526000611c8b602083018461380b565b6001600160a01b0381168114610abd57600080fd5b60008083601f84011261387157600080fd5b5081356001600160401b0381111561388857600080fd5b6020830191508360208260051b85010111156138a357600080fd5b9250929050565b6000806000806000608086880312156138c257600080fd5b85356138cd8161384a565b9450602086013593506040860135925060608601356001600160401b038111156138f657600080fd5b6139028882890161385f565b969995985093965092949392505050565b6001600160a01b03169052565b634e487b7160e01b600052602160045260246000fd5b6006811061394657613946613920565b9052565b6001600160a01b038616815260208101859052604081018490526060810183905260a08101612b5f6080830184613936565b6001600160a01b0391909116815260200190565b8035610bcc8161384a565b600080604083850312156139ae57600080fd5b82356139b98161384a565b946020939093013593505050565b602081016105b18284613936565b600060e082840312156139e757600080fd5b50919050565b6000602082840312156139ff57600080fd5b81356001600160401b03811115613a1557600080fd5b613a21848285016139d5565b949350505050565b600081518084526020808501945080840160005b83811015613a5957815187529582019590820190600101613a3d565b509495945050505050565b600081518084526020808501808196508360051b8101915082860160005b85811015613aac578284038952613a9a84835161380b565b98850198935090840190600101613a82565b5091979650505050505050565b60018060a01b0381511682526000602080830151818501526040808401518186015260608085015181870152608085015160e06080880152613afe60e0880182613a29565b905060a086015187820360a08901528181518084528684019150868160051b85010187840193506000805b83811015613b9157868303601f190185528551805184528a01518a84018a905280518a8501819052908b019083908a8601905b80831015613b7c5783518252928d019260019290920191908d0190613b5c565b50978c0197968c019694505050600101613b29565b505060c08a015197508a810360c08c0152613bac8189613a64565b9b9a5050505050505050505050565b6001600160a01b0386811682528581166020830152841660408201526060810183905260a060808201819052600090613bf690830184613ab9565b979650505050505050565b60018060a01b0381511682526020810151602083015260408101516040830152606081015160608301526000608082015160c06080850152613c4660c0850182613a29565b905060a0830151613c5a60a0860182613936565b509392505050565b6000602080830181845280855180835260408601915060408160051b870101925083870160005b82811015613cb757603f19888603018452613ca5858351613c01565b94509285019290850190600101613c89565b5092979650505050505050565b600080600060408486031215613cd957600080fd5b8335925060208401356001600160401b03811115613cf657600080fd5b613d028682870161385f565b9497909650939450505050565b634e487b7160e01b600052604160045260246000fd5b60405160c081016001600160401b0381118282101715613d4757613d47613d0f565b60405290565b604051601f8201601f191681016001600160401b0381118282101715613d7557613d75613d0f565b604052919050565b60006001600160401b03821115613d9657613d96613d0f565b50601f01601f191660200190565b60008060408385031215613db757600080fd5b8235915060208301356001600160401b03811115613dd457600080fd5b8301601f81018513613de557600080fd5b8035613df8613df382613d7d565b613d4d565b818152866020838501011115613e0d57600080fd5b816020840160208301376000602083830101528093505050509250929050565b60006001600160401b03821115613e4657613e46613d0f565b5060051b60200190565b60008060408385031215613e6357600080fd5b823591506020808401356001600160401b03811115613e8157600080fd5b8401601f81018613613e9257600080fd5b8035613ea0613df382613e2d565b81815260059190911b82018301908381019088831115613ebf57600080fd5b928401925b82841015613edd57833582529284019290840190613ec4565b80955050505050509250929050565b60008083601f840112613efe57600080fd5b5081356001600160401b03811115613f1557600080fd5b6020830191508360208285010111156138a357600080fd5b60008060008060008060008060a0898b031215613f4957600080fd5b8835613f548161384a565b97506020890135613f648161384a565b965060408901356001600160401b0380821115613f8057600080fd5b613f8c8c838d0161385f565b909850965060608b0135915080821115613fa557600080fd5b613fb18c838d0161385f565b909650945060808b0135915080821115613fca57600080fd5b50613fd78b828c01613eec565b999c989b5096995094979396929594505050565b6001600160e01b031991909116815260200190565b6000602080830181845280855180835260408601915060408160051b870101925083870160005b82811015613cb757603f1988860301845261404385835161380b565b94509285019290850190600101614027565b600081518084526020808501808196508360051b8101915082860160005b85811015613aac578284038952815180516001600160a01b0316855285015160408686018190526140a68187018361380b565b9a87019a9550505090840190600101614073565b6004811061394657613946613920565b600081518084526020808501808196508360051b8101915082860160005b85811015613aac578284038952815160a0815186528682015161410d888801826140ba565b50604082810151908701526060808301519087015260809182015191860181905261413a8187018361380b565b9a87019a95505050908401906001016140e8565b60208152600060018060a01b038084511660208401528060208501511660408401525060408301516141836060840182613913565b5060608301516080830152608083015160e060a08401526141a8610100840182614055565b905060a0840151601f19808584030160c08601526141c683836140ca565b925060c08601519150808584030160e0860152506141e48282613ab9565b95945050505050565b6000806040838503121561420057600080fd5b50508035926020909101359150565b600080600080600060a0868803121561422757600080fd5b85356142328161384a565b945060208601356142428161384a565b935060408601356142528161384a565b92506060860135915060808601356001600160401b0381111561427457600080fd5b614280888289016139d5565b9150509295509295909350565b60008060008060008060a087890312156142a657600080fd5b86356142b18161384a565b955060208701356142c18161384a565b9450604087013593506060870135925060808701356001600160401b038111156142ea57600080fd5b6142f689828a01613eec565b979a9699509497509295939492505050565b602081526000611c8b6020830184613c01565b600181811c9082168061432f57607f821691505b6020821081036139e757634e487b7160e01b600052602260045260246000fd5b634e487b7160e01b600052603260045260246000fd5b6020808252600a9082015269151a5b595b1bd8dad95960b21b604082015260600190565b6001600160a01b03929092168252602082015260400190565b6020808252600b908201526a27b7363c9025b2b2b832b960a91b604082015260600190565b81835260006001600160fb1b038311156143e057600080fd5b8260051b8083602087013760009401602001938452509192915050565b60018060a01b0386168152846020820152836040820152608060608201526000613bf66080830184866143c7565b6020808252600f908201526e27b7363c9030b93134ba3930ba37b960891b604082015260600190565b60006020828403121561446657600080fd5b8151611c8b8161384a565b634e487b7160e01b600052601160045260246000fd5b60008282101561449957614499614471565b500390565b6000602082840312156144b057600080fd5b81518015158114611c8b57600080fd5b6020808252600d908201526c139bdd081c195c9b5a5d1d1959609a1b604082015260600190565b60009081526020902090565b6000815480845260208085019450836000528060002060005b83811015613a595781548752958201956001918201910161450c565b600081548084526020808501808196508360051b810191506000868152838120815b868110156145b6578385038a52815485526040868601819052600180840180549288018390528552878520606088019290919086905b8082101561459d5783548552938a01939282019290820190614580565b5050509a87019a5094506002919091019060010161454a565b509298975050505050505050565b600081546145d18161431b565b8085526020600183811680156145ee576001811461460257614630565b60ff19851688840152604088019550614630565b866000528260002060005b858110156146285781548a820186015290830190840161460d565b890184019650505b505050505092915050565b600081548084526020808501808196508360051b81019150856000528260002060005b85811015613aac57828403895261467584836145c4565b9885019893506001918201910161465e565b600060018060a01b038087168352608060208401526146ac6080840182885416613913565b50600185015460a0830152600285015460c0830152600385015460e083015260e06101008301526146e46101608301600487016144f3565b607f1980848303016101208501526146ff8260058901614528565b915080848303016101408501525061471a816006880161463b565b91505061472a6040830185613913565b82606083015295945050505050565b805160068110610bcc57600080fd5b6000602080838503121561475b57600080fd5b82516001600160401b038082111561477257600080fd5b9084019060c0828703121561478657600080fd5b61478e613d25565b82516147998161384a565b80825250838301518482015260408301516040820152606083015160608201526080830151828111156147cb57600080fd5b83019150601f820187136147de57600080fd5b81516147ec613df382613e2d565b81815260059190911b8301850190858101908983111561480b57600080fd5b938601935b8285101561482957845182529386019390860190614810565b60808401525061483d905060a08401614739565b60a08201529695505050505050565b602080825260189082015277139bdd08105c989a5d1c985d1a5bdb94995c5d595cdd195960421b604082015260600190565b60006001820161489057614890614471565b5060010190565b6000808335601e198436030181126148ae57600080fd5b83016020810192503590506001600160401b038111156148cd57600080fd5b8060051b36038213156138a357600080fd5b6000808335601e198436030181126148f657600080fd5b83016020810192503590506001600160401b0381111561491557600080fd5b8036038213156138a357600080fd5b81835281816020850137506000828201602090810191909152601f909101601f19169091010190565b60008235603e1983360301811261496357600080fd5b90910192915050565b81835260006020808501808196508560051b810191508460005b87811015613aac57828403895261499d828861494d565b604081356149aa8161384a565b6001600160a01b031686526149c1828801836148df565b925081888801526149d58288018483614924565b9b88019b965050509185019150600101614986565b60048110610abd57600080fd5b81835260006020808501808196508560051b81019150846000805b888110156145b6578385038a528235609e19893603018112614a32578283fd5b88018035865260a087820135614a47816149ea565b614a53898901826140ba565b5060408281013590880152606080830135908801526080614a76818401846148df565b935082828a0152614a8a838a018583614924565b9d8a019d98505050938701935050600101614a12565b6000823560de1983360301811261496357600080fd5b81835260006020808501808196508560051b810191508460005b87811015613aac578284038952614ae782886148df565b614af2868284614924565b9a87019a9550505090840190600101614ad0565b60008135614b138161384a565b6001600160a01b03168352602082810135818501526040808401358186015260608085013590860152614b496080850185614897565b60e06080880152614b5e60e0880182846143c7565b915050614b6e60a0860186614897565b87830360a0890152808352848301600582901b840186018360005b84811015614bdc57868303601f19018452614ba4828761494d565b80358452614bb48a820182614897565b9150898b860152614bc88a860183836143c7565b958b01959450505090880190600101614b89565b5050614beb60c08a018a614897565b9750955089810360c08b0152614c02818888614ab6565b9a9950505050505050505050565b6001600160a01b038581168252608060208301526000908535614c328161384a565b166080830152614c4460208601613990565b614c5160a0840182613913565b50614c5e60408601613990565b614c6b60c0840182613913565b50606085013560e0830152614c836080860186614897565b60e0610100850152614c9a6101608501828461496c565b915050614caa60a0870187614897565b607f198086850301610120870152614cc38483856149f7565b9350614cd260c08a018a614aa0565b925080868503016101408701525050614ceb8282614b06565b60408501969096525050506060015292915050565b6020808252601e908201527f6c656e677468206d757374206d61746368206f7574636f6d65536c6f74730000604082015260600190565b8381526040602082015260006141e46040830184866143c7565b6001600160a01b038416815260208082018490526060604083018190528351908301819052600091848101916080850190845b81811015614da057845183529383019391830191600101614d84565b509098975050505050505050565b6000604080830181845280865480835260609250828601915060058382821b8801018960005260208060002060005b85811015614e4357605f198b850301875260a08254855260ff600184015416614e08858701826140ba565b5060028301548a860152600383015489860152806080860152614e30818601600485016145c4565b9784019794505090840190600101614ddd565b5050979097019790975250939695505050505050565b600060208284031215614e6b57600080fd5b5051919050565b6000816000190483118215151615614e8c57614e8c614471565b500290565b600060208284031215614ea357600080fd5b8135611c8b8161384a565b80546001600160a01b0319166001600160a01b0392909216919091179055565b6000808335601e19843603018112614ee557600080fd5b8301803591506001600160401b03821115614eff57600080fd5b6020019150600581901b36038213156138a357600080fd5b60008235603e19833603018112614f2d57600080fd5b9190910192915050565b5b81811015612b525760008155600101614f38565b600019600383901b1c191660019190911b1790565b614f6b815461431b565b8015612b5257601f811160018114614f8557505060009055565b826000526020600020614fa3601f840160051c820160018301614f37565b506020600090812081855555505050565b6000808335601e19843603018112614fcb57600080fd5b8301803591506001600160401b03821115614fe557600080fd5b6020019150368190038213156138a357600080fd5b601f8211156118a757806000526020600020601f840160051c810160208510156150215750805b610827601f850160051c830182614f37565b813561503e8161384a565b6150488183614eae565b506001808201602061505c81860186614fb4565b6001600160401b0381111561507357615073613d0f565b61508781615081865461431b565b86614ffa565b6000601f8211600181146150b557600083156150a35750838201355b6150ad8482614f4c565b8755506108d2565b601f1983166150c3876144e7565b835b828110156150e257868501358255938701939089019087016150c5565b50848210156150ff5760001960f88660031b161c19848701351681555b50505050841b90930190915550505050565b60008235609e19833603018112614f2d57600080fd5b81358155600180820160208085013561513f816149ea565b6004811061514f5761514f613920565b60ff1983541660ff8216811784555050604085013560028501556060850135600385015560048401915061505c6080860186614fb4565b600160401b83111561519a5761519a613d0f565b80548382558084101561523e577f333333333333333333333333333333333333333333333333333333333333333360018183118116156151dc576151dc614471565b60058287118216156151f0576151f0614471565b600085815260208120909350878202810190828602015b8082101561523857848255848483015584600283015584600383015561522f60048301614f61565b90820190615207565b50505050505b5081615249826144e7565b60005b85811015611b7f576152676152618487615111565b83615127565b602092909201916005919091019060010161524c565b6000823560de19833603018112614f2d57600080fd5b8054600080835581156118a757828152602081208281015b80821015610827578282556001820191506152ab565b81358155600180820160206152d881860186614ece565b600160401b8111156152ec576152ec613d0f565b8354818555808210156153205760008581528481208381019083015b8082101561531c5782825590880190615308565b5050505b506000938452828420935b8181101561534657823585559385019391830191850161532b565b5050505050505050565b600160401b83111561536457615364613d0f565b8054838255808410156153dc576001600160ff1b03600181831181161561538d5761538d614471565b81861181161561539f5761539f614471565b60008481526020812090925086821b81019084831b015b808210156153d7578382556153cc838301615293565b6002820191506153b6565b505050505b50816153e7826144e7565b60005b85811015611b7f576154056153ff8487614f17565b836152c1565b60209290920191600291909101906001016153ea565b6001600160401b0383111561543257615432613d0f565b61544683615440835461431b565b83614ffa565b6000601f84116001811461547457600085156154625750838201355b61546c8682614f4c565b845550610827565b601f198516615482846144e7565b835b828110156154a45786850135825560209485019460019092019101615484565b50868210156154c15760001960f88860031b161c19848701351681555b505060018560011b0183555050505050565b600160401b8311156154e7576154e7613d0f565b805483825580841015615570576000828152602081208581019083015b8082101561556c57615516825461431b565b801561556057601f808211600181146155315785855561555d565b61553a856144e7565b61554e83850160051c820160018301614f37565b50600085815260208120818755555b50505b50600182019150615504565b5050505b508161557b826144e7565b60005b85811015611b7f576155908386614fb4565b61559b81838661541b565b5050602092909201916001918201910161557e565b81356155bb8161384a565b6155c58183614eae565b506001602080840135828401556040840135600284015560608401356003840155600483016155f76080860186614ece565b600160401b81111561560b5761560b613d0f565b82548184558082101561563057836000528460002061562e828201848301614f37565b505b506000928352838320925b8181101561565657823584559285019291840191850161563b565b50505050505061566960a0830183614ece565b615677818360058601615350565b505061568660c0830183614ece565b6138058183600686016154d3565b813561569f8161384a565b6156a98183614eae565b5060016020808401356156bb8161384a565b6156c781848601614eae565b50600260408501356156d88161384a565b6156e481838701614eae565b5060608501356003850155600484016157006080870187614ece565b600160401b81111561571457615714613d0f565b825481845580821015615784576001600160ff1b0380821188161561573b5761573b614471565b80831188161561574d5761574d614471565b50600084815286812083891b810190838a1b015b80821015615780578282556157778a8301614f61565b90870190615761565b5050505b508161578f846144e7565b935060005b828110156157be576157af6157a98386614f17565b86615033565b93850193908601908701615794565b50505050505050506157d360a0830183614ece565b6157e1818360058601615186565b5050612b526157f360c084018461527d565b600683016155b0565b60609290921b6001600160601b0319168252601482015260340190565b60208082526015908201527436b9b39739b2b73232b9103737ba1039b7b63b32b960591b604082015260600190565b60006020828403121561585a57600080fd5b81516001600160401b0381111561587057600080fd5b8201601f8101841361588157600080fd5b805161588f613df382613d7d565b8181528560208385010111156158a457600080fd5b6141e48260208301602086016137db565b6000816158c4576158c4614471565b506000190190565b600082198211156158df576158df614471565b500190565b6020808252602e908201527f496e697469616c697a61626c653a20636f6e747261637420697320616c72656160408201526d191e481a5b9a5d1a585b1a5e995960921b606082015260800190565b602081526000613a2160208301848661492456fe71bd81ebe1d98a2944767394e76a9aff18724b2cf04e1db71254f804544b35c7a26469706673582212201a317447c39197551fe3095b764b917c2efa6bff52d17b8be44bf7efcd34976864736f6c634300080e0033",
  "deployedBytecode": "0x608060405234801561001057600080fd5b50600436106101ee5760003560e01c806301ffc9a7146101f357806309648a9d1461021b5780630d06101a1461023b5780630d7e149f146102505780630d8d397514610271578063187825591461028457806326c500071461029757806331402a57146102bb5780633837b05e146102ce5780633f4fb5aa146102ee57806344c3b6071461030157806348cbb2fc146103145780634a77234e1461031d5780634e46f22314610330578063506da0b81461034357806354f6127f1461035657806355dd978b146103695780635c622a0e1461037c5780636463845b1461039c5780636cc6cde1146103af57806379502c55146103c05780637c123627146103d957806380b204b7146103ee57806380c2dde21461040157806381296f6f146104145780638602ce1b1461042757806387dfee571461043a578063999925061461044d578063a272ebcf14610455578063aced166114610468578063b992db0f14610479578063bc197c811461048c578063c08d6f01146104bb578063c3f909d4146104db578063c8abf6da146104f0578063c98c05b714610503578063d6860d551461050b578063de3a23c51461051e578063df33cc5114610531578063ea8221a914610544578063f23a6e611461054d578063f24fc90314610560575b600080fd5b610206610201366004613798565b610580565b60405190151581526020015b60405180910390f35b61022e6102293660046137c2565b6105b7565b6040516102129190613837565b61024e6102493660046137c2565b610659565b005b61026361025e3660046137c2565b6106bb565b604051908152602001610212565b61024e61027f3660046137c2565b6106dc565b61024e6102923660046138aa565b61082e565b6102aa6102a53660046137c2565b6108dd565b60405161021295949392919061394a565b61024e6102c93660046137c2565b61092b565b6102e16102dc3660046137c2565b610ac0565b604051610212919061397c565b61022e6102fc3660046137c2565b610bd1565b61020661030f3660046137c2565b610c68565b61026360185481565b61024e61032b3660046137c2565b610ced565b61024e61033e3660046137c2565b611023565b61020661035136600461399b565b6110ea565b61022e6103643660046137c2565b61122f565b6015546102e1906001600160a01b031681565b61038f61038a3660046137c2565b61124f565b60405161021291906139c7565b6102e16103aa3660046139ed565b611281565b6008546001600160a01b03166102e1565b6103c86113df565b604051610212959493929190613bbb565b6103e1611626565b6040516102129190613c62565b61024e6103fc366004613cc4565b611739565b6014546102e1906001600160a01b031681565b61024e610422366004613da4565b6118ac565b61024e610435366004613da4565b6118f7565b61024e610448366004613e50565b6119ef565b610206611b87565b610206610463366004613798565b611c0c565b6007546001600160a01b03166102e1565b61024e6104873660046137c2565b611c9a565b6104ae61049a366004613f2d565b63bc197c8160e01b98975050505050505050565b6040516102129190613feb565b6104ce6104c93660046137c2565b611eae565b6040516102129190614000565b6104e3611f93565b604051610212919061414e565b61024e6104fe3660046141ed565b612459565b6102636124b3565b61024e61051936600461420f565b612525565b61024e61052c3660046137c2565b6126e5565b61024e61053f3660046141ed565b612a0f565b61026360165481565b6104ae61055b36600461428d565b612b56565b61057361056e3660046137c2565b612b69565b6040516102129190614308565b60006001600160e01b03198216630271189760e51b14806105b157506301ffc9a760e01b6001600160e01b03198316145b92915050565b60008181526002602052604090208054606091906105d49061431b565b80601f01602080910402602001604051908101604052809291908181526020018280546106009061431b565b801561064d5780601f106106225761010080835404028352916020019161064d565b820191906000526020600020905b81548152906001019060200180831161063057829003601f168201915b50505050509050919050565b6018541561069f5760405162461bcd60e51b815260206004820152600e60248201526d151c9858dada5b99d259081cd95d60921b60448201526064015b60405180910390fd5b6005546001600160a01b031633146106b657600080fd5b601855565b601781815481106106cb57600080fd5b600091825260209091200154905081565b601781815481106106ef576106ef61434f565b906000526020600020015442116107185760405162461bcd60e51b815260040161069690614365565b60026013828154811061072d5761072d61434f565b60009182526020909120600560069092020181015460ff169081111561075557610755613920565b146107915760405162461bcd60e51b815260206004820152600c60248201526b139bdd081c1c9bdc1bdcd95960a21b6044820152606401610696565b6004546013805473__$3ec311f63f1cd166364ee887ad77eb9bd8$__926385c92867926001600160a01b0390911691859081106107d0576107d061434f565b90600052602060002090600602016040518363ffffffff1660e01b81526004016107fb929190614389565b60006040518083038186803b15801561081357600080fd5b505af4158015610827573d6000803e3d6000fd5b5050505050565b6007546001600160a01b03163314806108525750610852631878255960e01b611c0c565b61086e5760405162461bcd60e51b8152600401610696906143a2565b60048054604051626dc0df60e21b81526001600160a01b03909116916301b7037c916108a49189918991899189918991016143fd565b600060405180830381600087803b1580156108be57600080fd5b505af11580156108d2573d6000803e3d6000fd5b505050505050505050565b601381815481106108ed57600080fd5b6000918252602090912060069091020180546001820154600283015460038401546005909401546001600160a01b0390931694509092909160ff1685565b6008546001600160a01b031633148061094f575061094f6331402a5760e01b611c0c565b61096b5760405162461bcd60e51b81526004016106969061442b565b6002601382815481106109805761098061434f565b60009182526020909120600560069092020181015460ff16908111156109a8576109a8613920565b14806109ee57506003601382815481106109c4576109c461434f565b60009182526020909120600560069092020181015460ff16908111156109ec576109ec613920565b145b610a2b5760405162461bcd60e51b815260206004820152600e60248201526d10d85b9b9bdd081c995c5d595cdd60921b6044820152606401610696565b73__$3ec311f63f1cd166364ee887ad77eb9bd8$__633bdce6e660138381548110610a5857610a5861434f565b90600052602060002090600602016040518263ffffffff1660e01b8152600401610a8491815260200190565b60006040518083038186803b158015610a9c57600080fd5b505af4158015610ab0573d6000803e3d6000fd5b50505050610abd81612c95565b50565b60006016548203610ad2575030919050565b601654821015610b61576014546001600160a01b0316610af457506000919050565b601454604051631c1bd82f60e11b8152600481018490526001600160a01b0390911690633837b05e90602401602060405180830381865afa158015610b3d573d6000803e3d6000fd5b505050506040513d601f19601f820116820180604052508101906105b19190614454565b601654821115610bcc576015546001600160a01b0316610b8357506000919050565b601554604051631c1bd82f60e11b8152600481018490526001600160a01b0390911690633837b05e90602401602060405180830381865afa158015610b3d573d6000803e3d6000fd5b919050565b6013546000828152601d602052604090205460609114610c275760405162461bcd60e51b815260206004820152601160248201527029b637ba1034b73b30b634b2103b32b91760791b6044820152606401610696565b6000828152601d602052604090208054610c4390600190614487565b81548110610c5357610c5361434f565b9060005260206000200180546105d49061431b565b6040516336d39c6160e11b815260048101829052601d6024820152600c604482015260009073__$3ec311f63f1cd166364ee887ad77eb9bd8$__90636da738c290606401602060405180830381865af4158015610cc9573d6000803e3d6000fd5b505050506040513d601f19601f820116820180604052508101906105b1919061449e565b60135415610d4a576007546001600160a01b0316331480610d1857506014546001600160a01b031633145b80610d2e5750610d2e63253b91a760e11b611c0c565b610d4a5760405162461bcd60e51b8152600401610696906144c0565b6013548114610d8b5760405162461bcd60e51b815260206004820152600d60248201526c092dcecc2d8d2c840d2dcc8caf609b1b6044820152606401610696565b601a5415610dca5760405162461bcd60e51b815260206004820152600c60248201526b6f7574676f696e672063627360a01b6044820152606401610696565b60195415610e095760405162461bcd60e51b815260206004820152600c60248201526b696e636f6d696e672063627360a01b6044820152606401610696565b600480546014546013805460405163699e0add60e01b8152919473__$3ec311f63f1cd166364ee887ad77eb9bd8$__9463699e0add94610e5d946001600160a01b0392831694600c94939092169201614687565b600060405180830381865af4158015610e7a573d6000803e3d6000fd5b505050506040513d6000823e601f3d908101601f19168201604052610ea29190810190614748565b8154600180820184556000938452602093849020835160069093020180546001600160a01b0319166001600160a01b03909316929092178255828401519082015560408201516002820155606082015160038201556080820151805192939192610f129260048501920190613624565b5060a08201518160050160006101000a81548160ff02191690836005811115610f3d57610f3d613920565b0217905550506017805460018101825560009182527fc624b66cc0138b8fabc209247f72d758e1cf3343756d543badbf24212bed8c15015550610f7e612ccf565b7f152ec8ae15d347b2d2a8f0858caa29bcaaa0906749a1f43e08bfe799834602403082604051610faf929190614389565b60405180910390a16015546001600160a01b031615610abd5760155460405163253b91a760e11b8152600481018390526001600160a01b0390911690634a77234e906024015b600060405180830381600087803b15801561100f57600080fd5b505af1158015610827573d6000803e3d6000fd5b6008546001600160a01b03163314806110475750611047634e46f22360e01b611c0c565b6110635760405162461bcd60e51b81526004016106969061442b565b6003601382815481106110785761107861434f565b60009182526020909120600560069092020181015460ff16908111156110a0576110a0613920565b146110bd5760405162461bcd60e51b81526004016106969061484c565b73__$3ec311f63f1cd166364ee887ad77eb9bd8$__6359111fb560138381548110610a5857610a5861434f565b6000805b6011548110156112255760118054600091601d91839190859081106111155761111561434f565b906000526020600020906002020160000154815260200190815260200160002084815481106111465761114661434f565b90600052602060002001805461115b9061431b565b80601f01602080910402602001604051908101604052809291908181526020018280546111879061431b565b80156111d45780601f106111a9576101008083540402835291602001916111d4565b820191906000526020600020905b8154815290600101906020018083116111b757829003601f168201915b50505050508060200190518101906111ec9190614454565b9050806001600160a01b0316856001600160a01b031603611212576001925050506105b1565b508061121d8161487e565b9150506110ee565b5060009392505050565b6000818152601d60205260409020805460609190610c4390600190614487565b6000601382815481106112645761126461434f565b600091825260209091206005600690920201015460ff1692915050565b6007546000906001600160a01b03163314806112a857506112a8636463845b60e01b611c0c565b6112e25760405162461bcd60e51b815260206004820152600b60248201526a27b7363c9035b2b2b832b960a91b6044820152606401610696565b6015546001600160a01b0316156113275760405162461bcd60e51b815260206004820152600960248201526812185cc818da1a5b1960ba1b6044820152606401610696565b6003546016546018546040516386a2d22760e01b815273__$3ec311f63f1cd166364ee887ad77eb9bd8$__936386a2d2279361137993620100009092046001600160a01b031692889290600401614c10565b602060405180830381865af4158015611396573d6000803e3d6000fd5b505050506040513d601f19601f820116820180604052508101906113ba9190614454565b601580546001600160a01b0319166001600160a01b0392909216918217905592915050565b600680546007546008546009546040805160e081018252600c80546001600160a01b039081168352600d54602080850191909152600e5484860152600f546060850152601080548651818402810184019097528087529983169a9883169997909216979596939492936080860193929183018282801561147e57602002820191906000526020600020905b81548152602001906001019080831161146a575b5050505050815260200160058201805480602002602001604051908101604052809291908181526020016000905b828210156115405783829060005260206000209060020201604051806040016040529081600082015481526020016001820180548060200260200160405190810160405280929190818152602001828054801561152857602002820191906000526020600020905b815481526020019060010190808311611514575b505050505081525050815260200190600101906114ac565b50505050815260200160068201805480602002602001604051908101604052809291908181526020016000905b8282101561161957838290600052602060002001805461158c9061431b565b80601f01602080910402602001604051908101604052809291908181526020018280546115b89061431b565b80156116055780601f106115da57610100808354040283529160200191611605565b820191906000526020600020905b8154815290600101906020018083116115e857829003601f168201915b50505050508152602001906001019061156d565b5050505081525050905085565b60606013805480602002602001604051908101604052809291908181526020016000905b828210156117305760008481526020908190206040805160c0810182526006860290920180546001600160a01b0316835260018101548385015260028101548383015260038101546060840152600481018054835181870281018701909452808452939491936080860193928301828280156116e557602002820191906000526020600020905b8154815260200190600101908083116116d1575b505050918352505060058281015460209092019160ff169081111561170c5761170c613920565b600581111561171d5761171d613920565b815250508152602001906001019061164a565b50505050905090565b6007546001600160a01b031633148061175d575061175d6380b204b760e01b611c0c565b6117795760405162461bcd60e51b8152600401610696906143a2565b600d54811461179a5760405162461bcd60e51b815260040161069690614d00565b6001601384815481106117af576117af61434f565b60009182526020909120600560069092020181015460ff16908111156117d7576117d7613920565b146118135760405162461bcd60e51b815260206004820152600c60248201526b139bdd08115e1958dd5d195960a21b6044820152606401610696565b73__$3ec311f63f1cd166364ee887ad77eb9bd8$__636a0a24f1601385815481106118405761184061434f565b906000526020600020906006020184846040518463ffffffff1660e01b815260040161186e93929190614d37565b60006040518083038186803b15801561188657600080fd5b505af415801561189a573d6000803e3d6000fd5b505050506118a783612c95565b505050565b6118bc6381296f6f60e01b611c0c565b6118d85760405162461bcd60e51b8152600401610696906144c0565b600082815260026020908152604090912082516118a79284019061366f565b6007546001600160a01b031633148061191b575061191b638602ce1b60e01b611c0c565b6119375760405162461bcd60e51b8152600401610696906143a2565b6000828152601e6020526040902054600b805460039290811061195c5761195c61434f565b600091825260209091206001600590920201015460ff16600381111561198457611984613920565b146119ca5760405162461bcd60e51b81526020600482015260166024820152751bdb9b1e48125b99d95cdd151e5c194b93585b9d585b60521b6044820152606401610696565b6119d48282612f4d565b60405160008051602061594783398151915290600090a15050565b6008546001600160a01b0316331480611a135750611a136387dfee5760e01b611c0c565b611a2f5760405162461bcd60e51b81526004016106969061442b565b600360138381548110611a4457611a4461434f565b60009182526020909120600560069092020181015460ff1690811115611a6c57611a6c613920565b14611a895760405162461bcd60e51b81526004016106969061484c565b60178281548110611a9c57611a9c61434f565b90600052602060002001544211611ac55760405162461bcd60e51b815260040161069690614365565b600d54815114611ae75760405162461bcd60e51b815260040161069690614d00565b6004546013805473__$3ec311f63f1cd166364ee887ad77eb9bd8$__92631b948e49926001600160a01b039091169186908110611b2657611b2661434f565b9060005260206000209060060201846040518463ffffffff1660e01b8152600401611b5393929190614d51565b60006040518083038186803b158015611b6b57600080fd5b505af4158015611b7f573d6000803e3d6000fd5b505050505050565b601354604051635cc1f6b560e01b815260009173__$3ec311f63f1cd166364ee887ad77eb9bd8$__91635cc1f6b591611bc691600b9190600401614dae565b602060405180830381865af4158015611be3573d6000803e3d6000fd5b505050506040513d601f19601f82011682018060405250810190611c07919061449e565b905090565b3360009081526001602052604081205460ff1615611c92576040516311247ecf60e11b81526000903390632248fd9e90611c4a908690600401613feb565b602060405180830381865afa158015611c67573d6000803e3d6000fd5b505050506040513d601f19601f82011682018060405250810190611c8b919061449e565b9392505050565b506000919050565b611ca2611b87565b1515600114611ce55760405162461bcd60e51b815260206004820152600f60248201526e1a5b99d95cdd1cc81a5b9d985b1a59608a1b6044820152606401610696565b73__$3ec311f63f1cd166364ee887ad77eb9bd8$__632dd4082482600460009054906101000a90046001600160a01b031660138581548110611d2957611d2961434f565b60009182526020808320601854601454600f548652601d9384905260409095208054600690950290920194600c9491926001600160a01b03909116918b908110611d7557611d7561434f565b906000526020600020018054611d8a9061431b565b80601f0160208091040260200160405190810160405280929190818152602001828054611db69061431b565b8015611e035780601f10611dd857610100808354040283529160200191611e03565b820191906000526020600020905b815481529060010190602001808311611de657829003601f168201915b5050505050806020019051810190611e1b9190614e59565b60405160e08a901b6001600160e01b031916815260048101989098526001600160a01b03968716602489015260448801959095526064870193909352608486019190915260a485015290911660c483015260e48201526101040160006040518083038186803b158015611e8d57600080fd5b505af4158015611ea1573d6000803e3d6000fd5b50505050610abd81612feb565b6000818152601d60209081526040808320805482518185028101850190935280835260609492939192909184015b82821015611f88578382906000526020600020018054611efb9061431b565b80601f0160208091040260200160405190810160405280929190818152602001828054611f279061431b565b8015611f745780601f10611f4957610100808354040283529160200191611f74565b820191906000526020600020905b815481529060010190602001808311611f5757829003601f168201915b505050505081526020019060010190611edc565b505050509050919050565b611f9b6136e2565b6040805160e081018252600680546001600160a01b0390811683526007548116602080850191909152600854909116838501526009546060840152600a80548551818402810184019096528086529394929360808601939260009084015b828210156120d2576000848152602090819020604080518082019091526002850290910180546001600160a01b0316825260018101805492939192918401916120419061431b565b80601f016020809104026020016040519081016040528092919081815260200182805461206d9061431b565b80156120ba5780601f1061208f576101008083540402835291602001916120ba565b820191906000526020600020905b81548152906001019060200180831161209d57829003601f168201915b50505050508152505081526020019060010190611ff9565b50505050815260200160058201805480602002602001604051908101604052809291908181526020016000905b8282101561221a57838290600052602060002090600502016040518060a0016040529081600082015481526020016001820160009054906101000a900460ff16600381111561215057612150613920565b600381111561216157612161613920565b815260200160028201548152602001600382015481526020016004820180546121899061431b565b80601f01602080910402602001604051908101604052809291908181526020018280546121b59061431b565b80156122025780601f106121d757610100808354040283529160200191612202565b820191906000526020600020905b8154815290600101906020018083116121e557829003601f168201915b505050505081525050815260200190600101906120ff565b505050908252506040805160e0810182526006840180546001600160a01b03168252600785015460208381019190915260088601548385015260098601546060840152600a8601805485518184028101840190965280865295820195939492936080860193928301828280156122af57602002820191906000526020600020905b81548152602001906001019080831161229b575b5050505050815260200160058201805480602002602001604051908101604052809291908181526020016000905b828210156123715783829060005260206000209060020201604051806040016040529081600082015481526020016001820180548060200260200160405190810160405280929190818152602001828054801561235957602002820191906000526020600020905b815481526020019060010190808311612345575b505050505081525050815260200190600101906122dd565b50505050815260200160068201805480602002602001604051908101604052809291908181526020016000905b8282101561244a5783829060005260206000200180546123bd9061431b565b80601f01602080910402602001604051908101604052809291908181526020018280546123e99061431b565b80156124365780601f1061240b57610100808354040283529160200191612436565b820191906000526020600020905b81548152906001019060200180831161241957829003601f168201915b50505050508152602001906001019061239e565b50505091525050905250919050565b612469636455fb6d60e11b611c0c565b6124855760405162461bcd60e51b8152600401610696906144c0565b612490816001614e72565b601783815481106124a3576124a361434f565b6000918252602090912001555050565b600c546040516370a0823160e01b81526000916001600160a01b0316906370a08231906124e490309060040161397c565b602060405180830381865afa158015612501573d6000803e3d6000fd5b505050506040513d601f19601f82011682018060405250810190611c079190614e59565b60006125316001613121565b90508015612549576003805461ff0019166101001790555b600061255b6040840160208501614e91565b6001600160a01b0316036125a25760405162461bcd60e51b815260206004820152600e60248201526d12d9595c195c881a5b9d985b1a5960921b6044820152606401610696565b600580546001600160a01b03199081166001600160a01b03898116919091179092556003805462010000600160b01b03191633620100000217905560048054821688841617905560148054909116918616919091179055601683905581600661260b8282615694565b90505060005b61261e60a0840184614ece565b90508110156126825780601e600061263960a0870187614ece565b858181106126495761264961434f565b905060200281019061265b9190615111565b6040908101358252602082019290925201600020558061267a8161487e565b915050612611565b506126986126936080840184614ece565b6131aa565b8015611b7f576003805461ff0019169055604051600181527f7f26b83ff96e1f2b6a682f133852f6798a09c465da95921460cefb38474024989060200160405180910390a1505050505050565b600033826040516020016126fa9291906157fc565b60408051601f1981840301815291815281516020928301206000818152601c909352912054600b805492935061275292909190811061273b5761273b61434f565b906000526020600020906005020160030154610ac0565b6001600160a01b0316336001600160a01b0316146127825760405162461bcd60e51b815260040161069690615819565b6000818152601c6020526040812054600b805490919081106127a6576127a661434f565b600091825260209091206001600590920201015460ff1660038111156127ce576127ce613920565b146128045760405162461bcd60e51b81526020600482015260066024820152653737ba1021b160d11b6044820152606401610696565b6000818152601c6020526040902054600b805490919081106128285761282861434f565b6000918252602082206005909102018054916128438361487e565b90915550506000818152601c6020526040902054600b80546129d09290811061286e5761286e61434f565b906000526020600020906005020160020154336001600160a01b0316633f4fb5aa60066005016019600301600087815260200190815260200160002054815481106128bb576128bb61434f565b906000526020600020906005020160040180546128d79061431b565b80601f01602080910402602001604051908101604052809291908181526020018280546129039061431b565b80156129505780601f1061292557610100808354040283529160200191612950565b820191906000526020600020905b81548152906001019060200180831161293357829003601f168201915b50505050508060200190518101906129689190614e59565b6040518263ffffffff1660e01b815260040161298691815260200190565b600060405180830381865afa1580156129a3573d6000803e3d6000fd5b505050506040513d6000823e601f3d908101601f191682016040526129cb9190810190615848565b612f4d565b6000818152601c6020526040812081905560198054916129ef836158b5565b909155505060405160008051602061594783398151915290600090a15050565b6016548111612a585760405162461bcd60e51b8152602060048201526015602482015274736f6c766572206e6f7420646f776e73747265616d60581b6044820152606401610696565b612a6181610ac0565b6001600160a01b0316336001600160a01b031614612a915760405162461bcd60e51b815260040161069690615819565b6000828152601d602052604090205415801590612abd57506013546000838152601d6020526040902054145b15612b0f5760405163de3a23c560e01b815260048101839052339063de3a23c590602401600060405180830381600087803b158015612afb57600080fd5b505af1158015611b7f573d6000803e3d6000fd5b6000828152601b60209081526040822080546001810182559083529082200180546001600160a01b03191633179055601a805491612b4c8361487e565b91905055505b5050565b63f23a6e6160e01b5b9695505050505050565b612b9e6040805160c081018252600080825260208201819052918101829052606080820183905260808201529060a082015290565b60138281548110612bb157612bb161434f565b60009182526020918290206040805160c081018252600690930290910180546001600160a01b031683526001810154838501526002810154838301526003810154606084015260048101805483518187028101870190945280845293949193608086019392830182828015612c4557602002820191906000526020600020905b815481526020019060010190808311612c31575b505050918352505060058281015460209092019160ff1690811115612c6c57612c6c613920565b6005811115612c7d57612c7d613920565b90525092915050565b6001600160a01b03163b151590565b600954612ca3906001614e72565b612cad90426158cc565b60178281548110612cc057612cc061434f565b60009182526020909120015550565b60005b600b54811015612f33576000600b805483908110612cf257612cf261434f565b600091825260209091206001600590920201015460ff166003811115612d1a57612d1a613920565b14612d5057612d4b60066005018281548110612d3857612d3861434f565b90600052602060002090600502016132e8565b612f21565b6000306001600160a01b0316633837b05e60066005018481548110612d7757612d7761434f565b9060005260206000209060050201600301546040518263ffffffff1660e01b8152600401612da791815260200190565b602060405180830381865afa158015612dc4573d6000803e3d6000fd5b505050506040513d601f19601f82011682018060405250810190612de89190614454565b9050612df481836133d4565b806001600160a01b031663df33cc5160066005018481548110612e1957612e1961434f565b90600052602060002090600502016004018054612e359061431b565b80601f0160208091040260200160405190810160405280929190818152602001828054612e619061431b565b8015612eae5780601f10612e8357610100808354040283529160200191612eae565b820191906000526020600020905b815481529060010190602001808311612e9157829003601f168201915b5050505050806020019051810190612ec69190614e59565b6016546040516001600160e01b031960e085901b16815260048101929092526024820152604401600060405180830381600087803b158015612f0757600080fd5b505af1158015612f1b573d6000803e3d6000fd5b50505050505b80612f2b8161487e565b915050612cd2565b5060405160008051602061594783398151915290600090a1565b601354612f5c90600190614487565b6000838152601d602052604090205414612faf5760405162461bcd60e51b815260206004820152601460248201527314db1bdd081d995c9cda5bdb881a5b9d985b1a5960621b6044820152606401610696565b6000828152601d6020908152604082208054600181018255908352918190208351612fe193919091019184019061366f565b50612b52826134ea565b6015546001600160a01b0316158015906130775750601560009054906101000a90046001600160a01b03166001600160a01b031663999925066040518163ffffffff1660e01b8152600401602060405180830381865afa158015613053573d6000803e3d6000fd5b505050506040513d601f19601f82011682018060405250810190613077919061449e565b80156130eb57506015546040516344c3b60760e01b8152600481018390526001600160a01b03909116906344c3b60790602401602060405180830381865afa1580156130c7573d6000803e3d6000fd5b505050506040513d601f19601f820116820180604052508101906130eb919061449e565b15610abd5760155460405163b992db0f60e01b8152600481018390526001600160a01b039091169063b992db0f90602401610ff5565b600354600090610100900460ff1615613169578160ff16600114801561314d575061314b30612c86565b155b611c925760405162461bcd60e51b8152600401610696906158e4565b60035460ff8084169116106131905760405162461bcd60e51b8152600401610696906158e4565b506003805460ff191660ff92909216919091179055600190565b60005b818110156118a75760018060008585858181106131cc576131cc61434f565b90506020028101906131de9190614f17565b6131ec906020810190614e91565b6001600160a01b031681526020810191909152604001600020805460ff19169115159190911790558282828181106132265761322661434f565b90506020028101906132389190614f17565b613246906020810190614e91565b6001600160a01b0316633cef64cc8484848181106132665761326661434f565b90506020028101906132789190614f17565b613286906020810190614fb4565b6040518363ffffffff1660e01b81526004016132a3929190615932565b600060405180830381600087803b1580156132bd57600080fd5b505af11580156132d1573d6000803e3d6000fd5b5050505080806132e09061487e565b9150506131ad565b600181015460039060ff168181111561330357613303613920565b11156133465760405162461bcd60e51b8152602060048201526012602482015271496e76616c696420696e676573745479706560701b6044820152606401610696565b80548160006133548361487e565b9091555060039050600182015460ff16600381111561337557613375613920565b14610abd57600281015460405163b3d7370760e01b815260048101839052610abd919073__$3ec311f63f1cd166364ee887ad77eb9bd8$__9063b3d7370790602401600060405180830381865af41580156129a3573d6000803e3d6000fd5b806019600301600084600660050185815481106133f3576133f361434f565b9060005260206000209060050201600401805461340f9061431b565b80601f016020809104026020016040519081016040528092919081815260200182805461343b9061431b565b80156134885780601f1061345d57610100808354040283529160200191613488565b820191906000526020600020905b81548152906001019060200180831161346b57829003601f168201915b50505050508060200190518101906134a09190614e59565b6040516020016134b19291906157fc565b60408051601f198184030181529181528151602092830120835290820192909252016000908120919091556019805491612b4c8361487e565b60005b6000828152601b6020526040902054811015612b52576000828152601b602052604081208054839081106135235761352361434f565b6000918252602090912001546001600160a01b031614613612576000828152601b6020526040902080548290811061355d5761355d61434f565b60009182526020909120015460405163de3a23c560e01b8152600481018490526001600160a01b039091169063de3a23c590602401600060405180830381600087803b1580156135ac57600080fd5b505af11580156135c0573d6000803e3d6000fd5b5050506000838152601b602052604090208054909150829081106135e6576135e661434f565b6000918252602082200180546001600160a01b0319169055601a80549161360c836158b5565b91905055505b8061361c8161487e565b9150506134ed565b82805482825590600052602060002090810192821561365f579160200282015b8281111561365f578251825591602001919060010190613644565b5061366b929150613783565b5090565b82805461367b9061431b565b90600052602060002090601f01602090048101928261369d576000855561365f565b82601f106136b657805160ff191683800117855561365f565b8280016001018555821561365f579182018281111561365f578251825591602001919060010190613644565b6040518060e0016040528060006001600160a01b0316815260200160006001600160a01b0316815260200160006001600160a01b0316815260200160008152602001606081526020016060815260200161377e6040518060e0016040528060006001600160a01b031681526020016000815260200160008152602001600080191681526020016060815260200160608152602001606081525090565b905290565b5b8082111561366b5760008155600101613784565b6000602082840312156137aa57600080fd5b81356001600160e01b031981168114611c8b57600080fd5b6000602082840312156137d457600080fd5b5035919050565b60005b838110156137f65781810151838201526020016137de565b83811115613805576000848401525b50505050565b600081518084526138238160208601602086016137db565b601f01601f19169290920160200192915050565b602081526000611c8b602083018461380b565b6001600160a01b0381168114610abd57600080fd5b60008083601f84011261387157600080fd5b5081356001600160401b0381111561388857600080fd5b6020830191508360208260051b85010111156138a357600080fd5b9250929050565b6000806000806000608086880312156138c257600080fd5b85356138cd8161384a565b9450602086013593506040860135925060608601356001600160401b038111156138f657600080fd5b6139028882890161385f565b969995985093965092949392505050565b6001600160a01b03169052565b634e487b7160e01b600052602160045260246000fd5b6006811061394657613946613920565b9052565b6001600160a01b038616815260208101859052604081018490526060810183905260a08101612b5f6080830184613936565b6001600160a01b0391909116815260200190565b8035610bcc8161384a565b600080604083850312156139ae57600080fd5b82356139b98161384a565b946020939093013593505050565b602081016105b18284613936565b600060e082840312156139e757600080fd5b50919050565b6000602082840312156139ff57600080fd5b81356001600160401b03811115613a1557600080fd5b613a21848285016139d5565b949350505050565b600081518084526020808501945080840160005b83811015613a5957815187529582019590820190600101613a3d565b509495945050505050565b600081518084526020808501808196508360051b8101915082860160005b85811015613aac578284038952613a9a84835161380b565b98850198935090840190600101613a82565b5091979650505050505050565b60018060a01b0381511682526000602080830151818501526040808401518186015260608085015181870152608085015160e06080880152613afe60e0880182613a29565b905060a086015187820360a08901528181518084528684019150868160051b85010187840193506000805b83811015613b9157868303601f190185528551805184528a01518a84018a905280518a8501819052908b019083908a8601905b80831015613b7c5783518252928d019260019290920191908d0190613b5c565b50978c0197968c019694505050600101613b29565b505060c08a015197508a810360c08c0152613bac8189613a64565b9b9a5050505050505050505050565b6001600160a01b0386811682528581166020830152841660408201526060810183905260a060808201819052600090613bf690830184613ab9565b979650505050505050565b60018060a01b0381511682526020810151602083015260408101516040830152606081015160608301526000608082015160c06080850152613c4660c0850182613a29565b905060a0830151613c5a60a0860182613936565b509392505050565b6000602080830181845280855180835260408601915060408160051b870101925083870160005b82811015613cb757603f19888603018452613ca5858351613c01565b94509285019290850190600101613c89565b5092979650505050505050565b600080600060408486031215613cd957600080fd5b8335925060208401356001600160401b03811115613cf657600080fd5b613d028682870161385f565b9497909650939450505050565b634e487b7160e01b600052604160045260246000fd5b60405160c081016001600160401b0381118282101715613d4757613d47613d0f565b60405290565b604051601f8201601f191681016001600160401b0381118282101715613d7557613d75613d0f565b604052919050565b60006001600160401b03821115613d9657613d96613d0f565b50601f01601f191660200190565b60008060408385031215613db757600080fd5b8235915060208301356001600160401b03811115613dd457600080fd5b8301601f81018513613de557600080fd5b8035613df8613df382613d7d565b613d4d565b818152866020838501011115613e0d57600080fd5b816020840160208301376000602083830101528093505050509250929050565b60006001600160401b03821115613e4657613e46613d0f565b5060051b60200190565b60008060408385031215613e6357600080fd5b823591506020808401356001600160401b03811115613e8157600080fd5b8401601f81018613613e9257600080fd5b8035613ea0613df382613e2d565b81815260059190911b82018301908381019088831115613ebf57600080fd5b928401925b82841015613edd57833582529284019290840190613ec4565b80955050505050509250929050565b60008083601f840112613efe57600080fd5b5081356001600160401b03811115613f1557600080fd5b6020830191508360208285010111156138a357600080fd5b60008060008060008060008060a0898b031215613f4957600080fd5b8835613f548161384a565b97506020890135613f648161384a565b965060408901356001600160401b0380821115613f8057600080fd5b613f8c8c838d0161385f565b909850965060608b0135915080821115613fa557600080fd5b613fb18c838d0161385f565b909650945060808b0135915080821115613fca57600080fd5b50613fd78b828c01613eec565b999c989b5096995094979396929594505050565b6001600160e01b031991909116815260200190565b6000602080830181845280855180835260408601915060408160051b870101925083870160005b82811015613cb757603f1988860301845261404385835161380b565b94509285019290850190600101614027565b600081518084526020808501808196508360051b8101915082860160005b85811015613aac578284038952815180516001600160a01b0316855285015160408686018190526140a68187018361380b565b9a87019a9550505090840190600101614073565b6004811061394657613946613920565b600081518084526020808501808196508360051b8101915082860160005b85811015613aac578284038952815160a0815186528682015161410d888801826140ba565b50604082810151908701526060808301519087015260809182015191860181905261413a8187018361380b565b9a87019a95505050908401906001016140e8565b60208152600060018060a01b038084511660208401528060208501511660408401525060408301516141836060840182613913565b5060608301516080830152608083015160e060a08401526141a8610100840182614055565b905060a0840151601f19808584030160c08601526141c683836140ca565b925060c08601519150808584030160e0860152506141e48282613ab9565b95945050505050565b6000806040838503121561420057600080fd5b50508035926020909101359150565b600080600080600060a0868803121561422757600080fd5b85356142328161384a565b945060208601356142428161384a565b935060408601356142528161384a565b92506060860135915060808601356001600160401b0381111561427457600080fd5b614280888289016139d5565b9150509295509295909350565b60008060008060008060a087890312156142a657600080fd5b86356142b18161384a565b955060208701356142c18161384a565b9450604087013593506060870135925060808701356001600160401b038111156142ea57600080fd5b6142f689828a01613eec565b979a9699509497509295939492505050565b602081526000611c8b6020830184613c01565b600181811c9082168061432f57607f821691505b6020821081036139e757634e487b7160e01b600052602260045260246000fd5b634e487b7160e01b600052603260045260246000fd5b6020808252600a9082015269151a5b595b1bd8dad95960b21b604082015260600190565b6001600160a01b03929092168252602082015260400190565b6020808252600b908201526a27b7363c9025b2b2b832b960a91b604082015260600190565b81835260006001600160fb1b038311156143e057600080fd5b8260051b8083602087013760009401602001938452509192915050565b60018060a01b0386168152846020820152836040820152608060608201526000613bf66080830184866143c7565b6020808252600f908201526e27b7363c9030b93134ba3930ba37b960891b604082015260600190565b60006020828403121561446657600080fd5b8151611c8b8161384a565b634e487b7160e01b600052601160045260246000fd5b60008282101561449957614499614471565b500390565b6000602082840312156144b057600080fd5b81518015158114611c8b57600080fd5b6020808252600d908201526c139bdd081c195c9b5a5d1d1959609a1b604082015260600190565b60009081526020902090565b6000815480845260208085019450836000528060002060005b83811015613a595781548752958201956001918201910161450c565b600081548084526020808501808196508360051b810191506000868152838120815b868110156145b6578385038a52815485526040868601819052600180840180549288018390528552878520606088019290919086905b8082101561459d5783548552938a01939282019290820190614580565b5050509a87019a5094506002919091019060010161454a565b509298975050505050505050565b600081546145d18161431b565b8085526020600183811680156145ee576001811461460257614630565b60ff19851688840152604088019550614630565b866000528260002060005b858110156146285781548a820186015290830190840161460d565b890184019650505b505050505092915050565b600081548084526020808501808196508360051b81019150856000528260002060005b85811015613aac57828403895261467584836145c4565b9885019893506001918201910161465e565b600060018060a01b038087168352608060208401526146ac6080840182885416613913565b50600185015460a0830152600285015460c0830152600385015460e083015260e06101008301526146e46101608301600487016144f3565b607f1980848303016101208501526146ff8260058901614528565b915080848303016101408501525061471a816006880161463b565b91505061472a6040830185613913565b82606083015295945050505050565b805160068110610bcc57600080fd5b6000602080838503121561475b57600080fd5b82516001600160401b038082111561477257600080fd5b9084019060c0828703121561478657600080fd5b61478e613d25565b82516147998161384a565b80825250838301518482015260408301516040820152606083015160608201526080830151828111156147cb57600080fd5b83019150601f820187136147de57600080fd5b81516147ec613df382613e2d565b81815260059190911b8301850190858101908983111561480b57600080fd5b938601935b8285101561482957845182529386019390860190614810565b60808401525061483d905060a08401614739565b60a08201529695505050505050565b602080825260189082015277139bdd08105c989a5d1c985d1a5bdb94995c5d595cdd195960421b604082015260600190565b60006001820161489057614890614471565b5060010190565b6000808335601e198436030181126148ae57600080fd5b83016020810192503590506001600160401b038111156148cd57600080fd5b8060051b36038213156138a357600080fd5b6000808335601e198436030181126148f657600080fd5b83016020810192503590506001600160401b0381111561491557600080fd5b8036038213156138a357600080fd5b81835281816020850137506000828201602090810191909152601f909101601f19169091010190565b60008235603e1983360301811261496357600080fd5b90910192915050565b81835260006020808501808196508560051b810191508460005b87811015613aac57828403895261499d828861494d565b604081356149aa8161384a565b6001600160a01b031686526149c1828801836148df565b925081888801526149d58288018483614924565b9b88019b965050509185019150600101614986565b60048110610abd57600080fd5b81835260006020808501808196508560051b81019150846000805b888110156145b6578385038a528235609e19893603018112614a32578283fd5b88018035865260a087820135614a47816149ea565b614a53898901826140ba565b5060408281013590880152606080830135908801526080614a76818401846148df565b935082828a0152614a8a838a018583614924565b9d8a019d98505050938701935050600101614a12565b6000823560de1983360301811261496357600080fd5b81835260006020808501808196508560051b810191508460005b87811015613aac578284038952614ae782886148df565b614af2868284614924565b9a87019a9550505090840190600101614ad0565b60008135614b138161384a565b6001600160a01b03168352602082810135818501526040808401358186015260608085013590860152614b496080850185614897565b60e06080880152614b5e60e0880182846143c7565b915050614b6e60a0860186614897565b87830360a0890152808352848301600582901b840186018360005b84811015614bdc57868303601f19018452614ba4828761494d565b80358452614bb48a820182614897565b9150898b860152614bc88a860183836143c7565b958b01959450505090880190600101614b89565b5050614beb60c08a018a614897565b9750955089810360c08b0152614c02818888614ab6565b9a9950505050505050505050565b6001600160a01b038581168252608060208301526000908535614c328161384a565b166080830152614c4460208601613990565b614c5160a0840182613913565b50614c5e60408601613990565b614c6b60c0840182613913565b50606085013560e0830152614c836080860186614897565b60e0610100850152614c9a6101608501828461496c565b915050614caa60a0870187614897565b607f198086850301610120870152614cc38483856149f7565b9350614cd260c08a018a614aa0565b925080868503016101408701525050614ceb8282614b06565b60408501969096525050506060015292915050565b6020808252601e908201527f6c656e677468206d757374206d61746368206f7574636f6d65536c6f74730000604082015260600190565b8381526040602082015260006141e46040830184866143c7565b6001600160a01b038416815260208082018490526060604083018190528351908301819052600091848101916080850190845b81811015614da057845183529383019391830191600101614d84565b509098975050505050505050565b6000604080830181845280865480835260609250828601915060058382821b8801018960005260208060002060005b85811015614e4357605f198b850301875260a08254855260ff600184015416614e08858701826140ba565b5060028301548a860152600383015489860152806080860152614e30818601600485016145c4565b9784019794505090840190600101614ddd565b5050979097019790975250939695505050505050565b600060208284031215614e6b57600080fd5b5051919050565b6000816000190483118215151615614e8c57614e8c614471565b500290565b600060208284031215614ea357600080fd5b8135611c8b8161384a565b80546001600160a01b0319166001600160a01b0392909216919091179055565b6000808335601e19843603018112614ee557600080fd5b8301803591506001600160401b03821115614eff57600080fd5b6020019150600581901b36038213156138a357600080fd5b60008235603e19833603018112614f2d57600080fd5b9190910192915050565b5b81811015612b525760008155600101614f38565b600019600383901b1c191660019190911b1790565b614f6b815461431b565b8015612b5257601f811160018114614f8557505060009055565b826000526020600020614fa3601f840160051c820160018301614f37565b506020600090812081855555505050565b6000808335601e19843603018112614fcb57600080fd5b8301803591506001600160401b03821115614fe557600080fd5b6020019150368190038213156138a357600080fd5b601f8211156118a757806000526020600020601f840160051c810160208510156150215750805b610827601f850160051c830182614f37565b813561503e8161384a565b6150488183614eae565b506001808201602061505c81860186614fb4565b6001600160401b0381111561507357615073613d0f565b61508781615081865461431b565b86614ffa565b6000601f8211600181146150b557600083156150a35750838201355b6150ad8482614f4c565b8755506108d2565b601f1983166150c3876144e7565b835b828110156150e257868501358255938701939089019087016150c5565b50848210156150ff5760001960f88660031b161c19848701351681555b50505050841b90930190915550505050565b60008235609e19833603018112614f2d57600080fd5b81358155600180820160208085013561513f816149ea565b6004811061514f5761514f613920565b60ff1983541660ff8216811784555050604085013560028501556060850135600385015560048401915061505c6080860186614fb4565b600160401b83111561519a5761519a613d0f565b80548382558084101561523e577f333333333333333333333333333333333333333333333333333333333333333360018183118116156151dc576151dc614471565b60058287118216156151f0576151f0614471565b600085815260208120909350878202810190828602015b8082101561523857848255848483015584600283015584600383015561522f60048301614f61565b90820190615207565b50505050505b5081615249826144e7565b60005b85811015611b7f576152676152618487615111565b83615127565b602092909201916005919091019060010161524c565b6000823560de19833603018112614f2d57600080fd5b8054600080835581156118a757828152602081208281015b80821015610827578282556001820191506152ab565b81358155600180820160206152d881860186614ece565b600160401b8111156152ec576152ec613d0f565b8354818555808210156153205760008581528481208381019083015b8082101561531c5782825590880190615308565b5050505b506000938452828420935b8181101561534657823585559385019391830191850161532b565b5050505050505050565b600160401b83111561536457615364613d0f565b8054838255808410156153dc576001600160ff1b03600181831181161561538d5761538d614471565b81861181161561539f5761539f614471565b60008481526020812090925086821b81019084831b015b808210156153d7578382556153cc838301615293565b6002820191506153b6565b505050505b50816153e7826144e7565b60005b85811015611b7f576154056153ff8487614f17565b836152c1565b60209290920191600291909101906001016153ea565b6001600160401b0383111561543257615432613d0f565b61544683615440835461431b565b83614ffa565b6000601f84116001811461547457600085156154625750838201355b61546c8682614f4c565b845550610827565b601f198516615482846144e7565b835b828110156154a45786850135825560209485019460019092019101615484565b50868210156154c15760001960f88860031b161c19848701351681555b505060018560011b0183555050505050565b600160401b8311156154e7576154e7613d0f565b805483825580841015615570576000828152602081208581019083015b8082101561556c57615516825461431b565b801561556057601f808211600181146155315785855561555d565b61553a856144e7565b61554e83850160051c820160018301614f37565b50600085815260208120818755555b50505b50600182019150615504565b5050505b508161557b826144e7565b60005b85811015611b7f576155908386614fb4565b61559b81838661541b565b5050602092909201916001918201910161557e565b81356155bb8161384a565b6155c58183614eae565b506001602080840135828401556040840135600284015560608401356003840155600483016155f76080860186614ece565b600160401b81111561560b5761560b613d0f565b82548184558082101561563057836000528460002061562e828201848301614f37565b505b506000928352838320925b8181101561565657823584559285019291840191850161563b565b50505050505061566960a0830183614ece565b615677818360058601615350565b505061568660c0830183614ece565b6138058183600686016154d3565b813561569f8161384a565b6156a98183614eae565b5060016020808401356156bb8161384a565b6156c781848601614eae565b50600260408501356156d88161384a565b6156e481838701614eae565b5060608501356003850155600484016157006080870187614ece565b600160401b81111561571457615714613d0f565b825481845580821015615784576001600160ff1b0380821188161561573b5761573b614471565b80831188161561574d5761574d614471565b50600084815286812083891b810190838a1b015b80821015615780578282556157778a8301614f61565b90870190615761565b5050505b508161578f846144e7565b935060005b828110156157be576157af6157a98386614f17565b86615033565b93850193908601908701615794565b50505050505050506157d360a0830183614ece565b6157e1818360058601615186565b5050612b526157f360c084018461527d565b600683016155b0565b60609290921b6001600160601b0319168252601482015260340190565b60208082526015908201527436b9b39739b2b73232b9103737ba1039b7b63b32b960591b604082015260600190565b60006020828403121561585a57600080fd5b81516001600160401b0381111561587057600080fd5b8201601f8101841361588157600080fd5b805161588f613df382613d7d565b8181528560208385010111156158a457600080fd5b6141e48260208301602086016137db565b6000816158c4576158c4614471565b506000190190565b600082198211156158df576158df614471565b500190565b6020808252602e908201527f496e697469616c697a61626c653a20636f6e747261637420697320616c72656160408201526d191e481a5b9a5d1a585b1a5e995960921b606082015260800190565b602081526000613a2160208301848661492456fe71bd81ebe1d98a2944767394e76a9aff18724b2cf04e1db71254f804544b35c7a26469706673582212201a317447c39197551fe3095b764b917c2efa6bff52d17b8be44bf7efcd34976864736f6c634300080e0033",
  "libraries": {
    "SolverLib": "0xCf7Ed3AccA5a467e9e704C703E8D87F634fB0Fc9"
  },
  "devdoc": {
    "kind": "dev",
    "methods": {
      "addData(bytes32,bytes)": {
        "details": "Only Keeper, only manual slots",
        "params": {
          "_data": "Data to be added",
          "_slot": "Destination slot"
        }
      },
      "addressFromChainIndex(uint256)": {
        "details": "Returns address(0) if no child or parent",
        "params": {
          "_index": "Index of Solver"
        },
        "returns": {
          "_address": "_address"
        }
      },
      "allocationsValid(uint256)": {
        "params": {
          "_index": "Condition index"
        },
        "returns": {
          "_0": "bool"
        }
      },
      "arbitrate(uint256,uint256[])": {
        "params": {
          "_index": "Index of condition",
          "payouts": "Array of uint256 values representing the ratio of the collateral that each outcome can claim. The length of this array must be equal to the outcomeSlotCount"
        }
      },
      "arbitrateNull(uint256)": {
        "params": {
          "_index": "Index of condition"
        }
      },
      "collateralBalance()": {
        "returns": {
          "balance": "balance"
        }
      },
      "condition(uint256)": {
        "params": {
          "index": "Index of condition"
        }
      },
      "confirmPayouts(uint256)": {
        "params": {
          "_index": "Index of condition"
        }
      },
      "deployChild((address,address,address,uint256,(address,bytes)[],(uint256,uint8,bytes32,uint256,bytes)[],(address,uint256,uint256,bytes32,uint256[],(bytes32,bytes32[])[],string[])))": {
        "params": {
          "_config": "Configuration of the child Solver"
        },
        "returns": {
          "_0": "address"
        }
      },
      "executeSolve(uint256)": {
        "details": "require(ingestsValid())",
        "params": {
          "_index": "Index of condition to execute on"
        }
      },
      "getAllData(bytes32)": {
        "params": {
          "_slot": "slotId"
        },
        "returns": {
          "data": "data"
        }
      },
      "getCallbackOutput(bytes32)": {
        "params": {
          "_slot": "Slot containing data"
        },
        "returns": {
          "data": "data"
        }
      },
      "getData(bytes32)": {
        "params": {
          "_slot": "slotId"
        },
        "returns": {
          "data": "data"
        }
      },
      "getStatus(uint256)": {
        "params": {
          "conditionIndex": "index of condition"
        },
        "returns": {
          "status": "status"
        }
      },
      "handleCallback(bytes32)": {
        "details": "only upstream Solver",
        "params": {
          "_slot": "Destination slot for the data being sent"
        }
      },
      "ingestsValid()": {
        "returns": {
          "_0": "bool"
        }
      },
      "init(address,address,address,uint256,(address,address,address,uint256,(address,bytes)[],(uint256,uint8,bytes32,uint256,bytes)[],(address,uint256,uint256,bytes32,uint256[],(bytes32,bytes32[])[],string[])))": {
        "details": "initializer",
        "params": {
          "_chainIndex": "The index of this Solver in the chain",
          "_chainParent": "The address of the Solver above this one in the chain. address(0) if this Solver is first.",
          "_solverConfig": "The configuration of this Solver"
        }
      },
      "isRecipient(address,uint256)": {
        "params": {
          "account": "address to check",
          "conditionIndex": "condition to check"
        },
        "returns": {
          "_0": "bool"
        }
      },
      "onERC1155BatchReceived(address,address,uint256[],uint256[],bytes)": {
        "details": "Handles the receipt of a multiple ERC1155 token types. This function is called at the end of a `safeBatchTransferFrom` after the balances have been updated. To accept the transfer(s), this must return `bytes4(keccak256(\"onERC1155BatchReceived(address,address,uint256[],uint256[],bytes)\"))` (i.e. 0xbc197c81, or its own function selector).",
        "params": {
          "data": "Additional data with no specified format",
          "from": "The address which previously owned the token",
          "ids": "An array containing ids of each token being transferred (order and length must match values array)",
          "operator": "The address which initiated the batch transfer (i.e. msg.sender)",
          "values": "An array containing amounts of each token being transferred (order and length must match ids array)"
        },
        "returns": {
          "_0": "`bytes4(keccak256(\"onERC1155BatchReceived(address,address,uint256[],uint256[],bytes)\"))` if transfer is allowed"
        }
      },
      "onERC1155Received(address,address,uint256,uint256,bytes)": {
        "details": "Handles the receipt of a single ERC1155 token type. This function is called at the end of a `safeTransferFrom` after the balance has been updated. To accept the transfer, this must return `bytes4(keccak256(\"onERC1155Received(address,address,uint256,uint256,bytes)\"))` (i.e. 0xf23a6e61, or its own function selector).",
        "params": {
          "data": "Additional data with no specified format",
          "from": "The address which previously owned the token",
          "id": "The ID of the token being transferred",
          "operator": "The address which initiated the transfer (i.e. msg.sender)",
          "value": "The amount of tokens being transferred"
        },
        "returns": {
          "_0": "`bytes4(keccak256(\"onERC1155Received(address,address,uint256,uint256,bytes)\"))` if transfer is allowed"
        }
      },
      "prepareSolve(uint256)": {
        "params": {
          "_index": "Index of the new condition to be created."
        }
      },
      "proposePayouts(uint256,uint256[])": {
        "params": {
          "_index": "Index of condition",
          "_payouts": "Array of uint256 values representing the ratio of the collateral that each outcome can claim. The length of this array must be equal to the outcomeSlotCount"
        }
      },
      "redeemPosition(address,bytes32,bytes32,uint256[])": {
        "details": "only Keeper"
      },
      "registerOutgoingCallback(bytes32,uint256)": {
        "details": "only downstream Solver",
        "params": {
          "_chainIndex": "Index of the Solver requesting this callback",
          "_slot": "Slot being waited on by downstream Solver"
        }
      },
      "requestArbitration(uint256)": {
        "params": {
          "_index": "Index of condition"
        }
      },
      "setTimelock(uint256,uint256)": {
        "params": {
          "_index": "Timelock/Condition index to be updated"
        }
      },
      "setTrackingId(bytes32)": {
        "params": {
          "_trackingId": "bytes32"
        }
      },
      "supportsInterface(bytes4)": {
        "details": "See {IERC165-supportsInterface}."
      }
    },
    "version": 1
  },
  "userdoc": {
    "kind": "user",
    "methods": {
      "addData(bytes32,bytes)": {
        "notice": "Allows keeper to manually add data to IngestType.Manual slots after executeIngests"
      },
      "addressFromChainIndex(uint256)": {
        "notice": "Get address for a Solver by its index in the chain"
      },
      "allocationsValid(uint256)": {
        "notice": "Verifies that all slots corresponding to recipients have been filled before CT allocation"
      },
      "arbitrate(uint256,uint256[])": {
        "notice": "Allows arbitrator to unilaterally make a payout report."
      },
      "arbitrateNull(uint256)": {
        "notice": "Returns condition.status to OutcomeProposed without a ruling."
      },
      "arbitrator()": {
        "notice": "Get Arbitrator address "
      },
      "collateralBalance()": {
        "notice": "Get balance of collateral token on Solver"
      },
      "condition(uint256)": {
        "notice": "Get one condition"
      },
      "confirmPayouts(uint256)": {
        "notice": "Confirm payouts for condition (reportPayouts to ConditionalTokens contract)"
      },
      "deployChild((address,address,address,uint256,(address,bytes)[],(uint256,uint8,bytes32,uint256,bytes)[],(address,uint256,uint256,bytes32,uint256[],(bytes32,bytes32[])[],string[])))": {
        "notice": "Deploys a new Solver as a child"
      },
      "executeSolve(uint256)": {
        "notice": "Mints conditional tokens, allocates them to recipients specified by ingested data and tries to do the same for child Solver"
      },
      "getAllData(bytes32)": {
        "notice": "Get data for each condition from a slot"
      },
      "getCallbackOutput(bytes32)": {
        "notice": "A simple getter that requires upstream slot ver. == our condition ver."
      },
      "getConditions()": {
        "notice": "Get all conditions"
      },
      "getConfig()": {
        "notice": "Get Solver config"
      },
      "getData(bytes32)": {
        "notice": "Get most recent data of a slot"
      },
      "getStatus(uint256)": {
        "notice": "Get status of a condition"
      },
      "handleCallback(bytes32)": {
        "notice": "Handle upstream Solver making callback and ingest the data"
      },
      "ingestsValid()": {
        "notice": "Verifies that all ingests have been performed for a condition"
      },
      "init(address,address,address,uint256,(address,address,address,uint256,(address,bytes)[],(uint256,uint8,bytes32,uint256,bytes)[],(address,uint256,uint256,bytes32,uint256[],(bytes32,bytes32[])[],string[])))": {
        "notice": "Called by SolverFactory when contract is created. Nothing else should ever need to call this"
      },
      "isRecipient(address,uint256)": {
        "notice": "Returns recipient addresses for a condition"
      },
      "keeper()": {
        "notice": "Get Keeper address "
      },
      "prepareSolve(uint256)": {
        "notice": "Creates a new condition, associated timelock, and executes ingests for this Solver and any child Solvers"
      },
      "proposePayouts(uint256,uint256[])": {
        "notice": "Propose payouts (AKA outcomes) for a condition"
      },
      "redeemPosition(address,bytes32,bytes32,uint256[])": {
        "notice": "Redeems CTs held by this Solver. See ConditionalTokens contract for more info."
      },
      "registerOutgoingCallback(bytes32,uint256)": {
        "notice": "Register callback expected by a downstream Solver for some data"
      },
      "requestArbitration(uint256)": {
        "notice": "Sets condition.status to ArbitrationRequested."
      },
      "setTimelock(uint256,uint256)": {
        "notice": "Set new timelock for a condition"
      },
      "setTrackingId(bytes32)": {
        "notice": "set ID that will be passed as data for conditional token transfers"
      }
    },
    "version": 1
  },
  "storageLayout": {
    "storage": [
      {
        "astId": 8285,
        "contract": "contracts/solvers/BasicSolverV1.sol:BasicSolverV1",
        "label": "_context",
        "offset": 0,
        "slot": "0",
        "type": "t_address"
      },
      {
        "astId": 8295,
        "contract": "contracts/solvers/BasicSolverV1.sol:BasicSolverV1",
        "label": "modules",
        "offset": 0,
        "slot": "1",
        "type": "t_mapping(t_address,t_bool)"
      },
      {
        "astId": 8299,
        "contract": "contracts/solvers/BasicSolverV1.sol:BasicSolverV1",
        "label": "state",
        "offset": 0,
        "slot": "2",
        "type": "t_mapping(t_bytes32,t_bytes_storage)"
      },
      {
        "astId": 130,
        "contract": "contracts/solvers/BasicSolverV1.sol:BasicSolverV1",
        "label": "_initialized",
        "offset": 0,
        "slot": "3",
        "type": "t_uint8"
      },
      {
        "astId": 133,
        "contract": "contracts/solvers/BasicSolverV1.sol:BasicSolverV1",
        "label": "_initializing",
        "offset": 1,
        "slot": "3",
        "type": "t_bool"
      },
      {
        "astId": 9930,
        "contract": "contracts/solvers/BasicSolverV1.sol:BasicSolverV1",
        "label": "factoryAddress",
        "offset": 2,
        "slot": "3",
        "type": "t_address"
      },
      {
        "astId": 9932,
        "contract": "contracts/solvers/BasicSolverV1.sol:BasicSolverV1",
        "label": "ctfAddress",
        "offset": 0,
        "slot": "4",
        "type": "t_address"
      },
      {
        "astId": 9934,
        "contract": "contracts/solvers/BasicSolverV1.sol:BasicSolverV1",
        "label": "deployerAddress",
        "offset": 0,
        "slot": "5",
        "type": "t_address"
      },
      {
        "astId": 9937,
        "contract": "contracts/solvers/BasicSolverV1.sol:BasicSolverV1",
        "label": "config",
        "offset": 0,
        "slot": "6",
        "type": "t_struct(Config)11735_storage"
      },
      {
        "astId": 9941,
        "contract": "contracts/solvers/BasicSolverV1.sol:BasicSolverV1",
        "label": "conditions",
        "offset": 0,
        "slot": "19",
        "type": "t_array(t_struct(Condition)11714_storage)dyn_storage"
      },
      {
        "astId": 9943,
        "contract": "contracts/solvers/BasicSolverV1.sol:BasicSolverV1",
        "label": "chainParent",
        "offset": 0,
        "slot": "20",
        "type": "t_address"
      },
      {
        "astId": 9945,
        "contract": "contracts/solvers/BasicSolverV1.sol:BasicSolverV1",
        "label": "chainChild",
        "offset": 0,
        "slot": "21",
        "type": "t_address"
      },
      {
        "astId": 9947,
        "contract": "contracts/solvers/BasicSolverV1.sol:BasicSolverV1",
        "label": "chainIndex",
        "offset": 0,
        "slot": "22",
        "type": "t_uint256"
      },
      {
        "astId": 9950,
        "contract": "contracts/solvers/BasicSolverV1.sol:BasicSolverV1",
        "label": "timelocks",
        "offset": 0,
        "slot": "23",
        "type": "t_array(t_uint256)dyn_storage"
      },
      {
        "astId": 9952,
        "contract": "contracts/solvers/BasicSolverV1.sol:BasicSolverV1",
        "label": "trackingId",
        "offset": 0,
        "slot": "24",
        "type": "t_bytes32"
      },
      {
        "astId": 9955,
        "contract": "contracts/solvers/BasicSolverV1.sol:BasicSolverV1",
        "label": "callbacks",
        "offset": 0,
        "slot": "25",
        "type": "t_struct(Callbacks)11759_storage"
      },
      {
        "astId": 9958,
        "contract": "contracts/solvers/BasicSolverV1.sol:BasicSolverV1",
        "label": "datas",
        "offset": 0,
        "slot": "29",
        "type": "t_struct(Datas)11745_storage"
      }
    ],
    "types": {
      "t_address": {
        "encoding": "inplace",
        "label": "address",
        "numberOfBytes": "20"
      },
      "t_array(t_address)dyn_storage": {
        "base": "t_address",
        "encoding": "dynamic_array",
        "label": "address[]",
        "numberOfBytes": "32"
      },
      "t_array(t_bytes32)dyn_storage": {
        "base": "t_bytes32",
        "encoding": "dynamic_array",
        "label": "bytes32[]",
        "numberOfBytes": "32"
      },
      "t_array(t_bytes_storage)dyn_storage": {
        "base": "t_bytes_storage",
        "encoding": "dynamic_array",
        "label": "bytes[]",
        "numberOfBytes": "32"
      },
      "t_array(t_string_storage)dyn_storage": {
        "base": "t_string_storage",
        "encoding": "dynamic_array",
        "label": "string[]",
        "numberOfBytes": "32"
      },
      "t_array(t_struct(Allocation)11785_storage)dyn_storage": {
        "base": "t_struct(Allocation)11785_storage",
        "encoding": "dynamic_array",
        "label": "struct SolverLib.Allocation[]",
        "numberOfBytes": "32"
      },
      "t_array(t_struct(Condition)11714_storage)dyn_storage": {
        "base": "t_struct(Condition)11714_storage",
        "encoding": "dynamic_array",
        "label": "struct SolverLib.Condition[]",
        "numberOfBytes": "32"
      },
      "t_array(t_struct(Ingest)11698_storage)dyn_storage": {
        "base": "t_struct(Ingest)11698_storage",
        "encoding": "dynamic_array",
        "label": "struct SolverLib.Ingest[]",
        "numberOfBytes": "32"
      },
      "t_array(t_struct(Loader)8291_storage)dyn_storage": {
        "base": "t_struct(Loader)8291_storage",
        "encoding": "dynamic_array",
        "label": "struct Modulated.Loader[]",
        "numberOfBytes": "32"
      },
      "t_array(t_uint256)dyn_storage": {
        "base": "t_uint256",
        "encoding": "dynamic_array",
        "label": "uint256[]",
        "numberOfBytes": "32"
      },
      "t_bool": {
        "encoding": "inplace",
        "label": "bool",
        "numberOfBytes": "1"
      },
      "t_bytes32": {
        "encoding": "inplace",
        "label": "bytes32",
        "numberOfBytes": "32"
      },
      "t_bytes_storage": {
        "encoding": "bytes",
        "label": "bytes",
        "numberOfBytes": "32"
      },
      "t_contract(IERC20)2691": {
        "encoding": "inplace",
        "label": "contract IERC20",
        "numberOfBytes": "20"
      },
      "t_contract(IModule)7747": {
        "encoding": "inplace",
        "label": "contract IModule",
        "numberOfBytes": "20"
      },
      "t_contract(Solver)11547": {
        "encoding": "inplace",
        "label": "contract Solver",
        "numberOfBytes": "20"
      },
      "t_enum(IngestType)11679": {
        "encoding": "inplace",
        "label": "enum SolverLib.IngestType",
        "numberOfBytes": "1"
      },
      "t_enum(Status)11686": {
        "encoding": "inplace",
        "label": "enum SolverLib.Status",
        "numberOfBytes": "1"
      },
      "t_mapping(t_address,t_bool)": {
        "encoding": "mapping",
        "key": "t_address",
        "label": "mapping(address => bool)",
        "numberOfBytes": "32",
        "value": "t_bool"
      },
      "t_mapping(t_bytes32,t_array(t_address)dyn_storage)": {
        "encoding": "mapping",
        "key": "t_bytes32",
        "label": "mapping(bytes32 => address[])",
        "numberOfBytes": "32",
        "value": "t_array(t_address)dyn_storage"
      },
      "t_mapping(t_bytes32,t_array(t_bytes_storage)dyn_storage)": {
        "encoding": "mapping",
        "key": "t_bytes32",
        "label": "mapping(bytes32 => bytes[])",
        "numberOfBytes": "32",
        "value": "t_array(t_bytes_storage)dyn_storage"
      },
      "t_mapping(t_bytes32,t_bytes_storage)": {
        "encoding": "mapping",
        "key": "t_bytes32",
        "label": "mapping(bytes32 => bytes)",
        "numberOfBytes": "32",
        "value": "t_bytes_storage"
      },
      "t_mapping(t_bytes32,t_uint256)": {
        "encoding": "mapping",
        "key": "t_bytes32",
        "label": "mapping(bytes32 => uint256)",
        "numberOfBytes": "32",
        "value": "t_uint256"
      },
      "t_string_storage": {
        "encoding": "bytes",
        "label": "string",
        "numberOfBytes": "32"
      },
      "t_struct(Allocation)11785_storage": {
        "encoding": "inplace",
        "label": "struct SolverLib.Allocation",
        "members": [
          {
            "astId": 11781,
            "contract": "contracts/solvers/BasicSolverV1.sol:BasicSolverV1",
            "label": "recipientAddressSlot",
            "offset": 0,
            "slot": "0",
            "type": "t_bytes32"
          },
          {
            "astId": 11784,
            "contract": "contracts/solvers/BasicSolverV1.sol:BasicSolverV1",
            "label": "recipientAmountSlots",
            "offset": 0,
            "slot": "1",
            "type": "t_array(t_bytes32)dyn_storage"
          }
        ],
        "numberOfBytes": "64"
      },
      "t_struct(Callbacks)11759_storage": {
        "encoding": "inplace",
        "label": "struct SolverLib.Callbacks",
        "members": [
          {
            "astId": 11747,
            "contract": "contracts/solvers/BasicSolverV1.sol:BasicSolverV1",
            "label": "numIncoming",
            "offset": 0,
            "slot": "0",
            "type": "t_uint256"
          },
          {
            "astId": 11749,
            "contract": "contracts/solvers/BasicSolverV1.sol:BasicSolverV1",
            "label": "numOutgoing",
            "offset": 0,
            "slot": "1",
            "type": "t_uint256"
          },
          {
            "astId": 11754,
            "contract": "contracts/solvers/BasicSolverV1.sol:BasicSolverV1",
            "label": "outgoing",
            "offset": 0,
            "slot": "2",
            "type": "t_mapping(t_bytes32,t_array(t_address)dyn_storage)"
          },
          {
            "astId": 11758,
            "contract": "contracts/solvers/BasicSolverV1.sol:BasicSolverV1",
            "label": "incoming",
            "offset": 0,
            "slot": "3",
            "type": "t_mapping(t_bytes32,t_uint256)"
          }
        ],
        "numberOfBytes": "128"
      },
      "t_struct(Condition)11714_storage": {
        "encoding": "inplace",
        "label": "struct SolverLib.Condition",
        "members": [
          {
            "astId": 11701,
            "contract": "contracts/solvers/BasicSolverV1.sol:BasicSolverV1",
            "label": "collateralToken",
            "offset": 0,
            "slot": "0",
            "type": "t_contract(IERC20)2691"
          },
          {
            "astId": 11703,
            "contract": "contracts/solvers/BasicSolverV1.sol:BasicSolverV1",
            "label": "questionId",
            "offset": 0,
            "slot": "1",
            "type": "t_bytes32"
          },
          {
            "astId": 11705,
            "contract": "contracts/solvers/BasicSolverV1.sol:BasicSolverV1",
            "label": "parentCollectionId",
            "offset": 0,
            "slot": "2",
            "type": "t_bytes32"
          },
          {
            "astId": 11707,
            "contract": "contracts/solvers/BasicSolverV1.sol:BasicSolverV1",
            "label": "conditionId",
            "offset": 0,
            "slot": "3",
            "type": "t_bytes32"
          },
          {
            "astId": 11710,
            "contract": "contracts/solvers/BasicSolverV1.sol:BasicSolverV1",
            "label": "payouts",
            "offset": 0,
            "slot": "4",
            "type": "t_array(t_uint256)dyn_storage"
          },
          {
            "astId": 11713,
            "contract": "contracts/solvers/BasicSolverV1.sol:BasicSolverV1",
            "label": "status",
            "offset": 0,
            "slot": "5",
            "type": "t_enum(Status)11686"
          }
        ],
        "numberOfBytes": "192"
      },
      "t_struct(ConditionBase)11779_storage": {
        "encoding": "inplace",
        "label": "struct SolverLib.ConditionBase",
        "members": [
          {
            "astId": 11762,
            "contract": "contracts/solvers/BasicSolverV1.sol:BasicSolverV1",
            "label": "collateralToken",
            "offset": 0,
            "slot": "0",
            "type": "t_contract(IERC20)2691"
          },
          {
            "astId": 11764,
            "contract": "contracts/solvers/BasicSolverV1.sol:BasicSolverV1",
            "label": "outcomeSlots",
            "offset": 0,
            "slot": "1",
            "type": "t_uint256"
          },
          {
            "astId": 11766,
            "contract": "contracts/solvers/BasicSolverV1.sol:BasicSolverV1",
            "label": "parentCollectionIndexSet",
            "offset": 0,
            "slot": "2",
            "type": "t_uint256"
          },
          {
            "astId": 11768,
            "contract": "contracts/solvers/BasicSolverV1.sol:BasicSolverV1",
            "label": "amountSlot",
            "offset": 0,
            "slot": "3",
            "type": "t_bytes32"
          },
          {
            "astId": 11771,
            "contract": "contracts/solvers/BasicSolverV1.sol:BasicSolverV1",
            "label": "partition",
            "offset": 0,
            "slot": "4",
            "type": "t_array(t_uint256)dyn_storage"
          },
          {
            "astId": 11775,
            "contract": "contracts/solvers/BasicSolverV1.sol:BasicSolverV1",
            "label": "allocations",
            "offset": 0,
            "slot": "5",
            "type": "t_array(t_struct(Allocation)11785_storage)dyn_storage"
          },
          {
            "astId": 11778,
            "contract": "contracts/solvers/BasicSolverV1.sol:BasicSolverV1",
            "label": "outcomeURIs",
            "offset": 0,
            "slot": "6",
            "type": "t_array(t_string_storage)dyn_storage"
          }
        ],
        "numberOfBytes": "224"
      },
      "t_struct(Config)11735_storage": {
        "encoding": "inplace",
        "label": "struct SolverLib.Config",
        "members": [
          {
            "astId": 11717,
            "contract": "contracts/solvers/BasicSolverV1.sol:BasicSolverV1",
            "label": "implementation",
            "offset": 0,
            "slot": "0",
            "type": "t_contract(Solver)11547"
          },
          {
            "astId": 11719,
            "contract": "contracts/solvers/BasicSolverV1.sol:BasicSolverV1",
            "label": "keeper",
            "offset": 0,
            "slot": "1",
            "type": "t_address"
          },
          {
            "astId": 11721,
            "contract": "contracts/solvers/BasicSolverV1.sol:BasicSolverV1",
            "label": "arbitrator",
            "offset": 0,
            "slot": "2",
            "type": "t_address"
          },
          {
            "astId": 11723,
            "contract": "contracts/solvers/BasicSolverV1.sol:BasicSolverV1",
            "label": "timelockSeconds",
            "offset": 0,
            "slot": "3",
            "type": "t_uint256"
          },
          {
            "astId": 11727,
            "contract": "contracts/solvers/BasicSolverV1.sol:BasicSolverV1",
            "label": "moduleLoaders",
            "offset": 0,
            "slot": "4",
            "type": "t_array(t_struct(Loader)8291_storage)dyn_storage"
          },
          {
            "astId": 11731,
            "contract": "contracts/solvers/BasicSolverV1.sol:BasicSolverV1",
            "label": "ingests",
            "offset": 0,
            "slot": "5",
            "type": "t_array(t_struct(Ingest)11698_storage)dyn_storage"
          },
          {
            "astId": 11734,
            "contract": "contracts/solvers/BasicSolverV1.sol:BasicSolverV1",
            "label": "conditionBase",
            "offset": 0,
            "slot": "6",
            "type": "t_struct(ConditionBase)11779_storage"
          }
        ],
        "numberOfBytes": "416"
      },
      "t_struct(Datas)11745_storage": {
        "encoding": "inplace",
        "label": "struct SolverLib.Datas",
        "members": [
          {
            "astId": 11740,
            "contract": "contracts/solvers/BasicSolverV1.sol:BasicSolverV1",
            "label": "slots",
            "offset": 0,
            "slot": "0",
            "type": "t_mapping(t_bytes32,t_array(t_bytes_storage)dyn_storage)"
          },
          {
            "astId": 11744,
            "contract": "contracts/solvers/BasicSolverV1.sol:BasicSolverV1",
            "label": "slotIngestIdx",
            "offset": 0,
            "slot": "1",
            "type": "t_mapping(t_bytes32,t_uint256)"
          }
        ],
        "numberOfBytes": "64"
      },
      "t_struct(Ingest)11698_storage": {
        "encoding": "inplace",
        "label": "struct SolverLib.Ingest",
        "members": [
          {
            "astId": 11688,
            "contract": "contracts/solvers/BasicSolverV1.sol:BasicSolverV1",
            "label": "executions",
            "offset": 0,
            "slot": "0",
            "type": "t_uint256"
          },
          {
            "astId": 11691,
            "contract": "contracts/solvers/BasicSolverV1.sol:BasicSolverV1",
            "label": "ingestType",
            "offset": 0,
            "slot": "1",
            "type": "t_enum(IngestType)11679"
          },
          {
            "astId": 11693,
            "contract": "contracts/solvers/BasicSolverV1.sol:BasicSolverV1",
            "label": "slot",
            "offset": 0,
            "slot": "2",
            "type": "t_bytes32"
          },
          {
            "astId": 11695,
            "contract": "contracts/solvers/BasicSolverV1.sol:BasicSolverV1",
            "label": "solverIndex",
            "offset": 0,
            "slot": "3",
            "type": "t_uint256"
          },
          {
            "astId": 11697,
            "contract": "contracts/solvers/BasicSolverV1.sol:BasicSolverV1",
            "label": "data",
            "offset": 0,
            "slot": "4",
            "type": "t_bytes_storage"
          }
        ],
        "numberOfBytes": "160"
      },
      "t_struct(Loader)8291_storage": {
        "encoding": "inplace",
        "label": "struct Modulated.Loader",
        "members": [
          {
            "astId": 8288,
            "contract": "contracts/solvers/BasicSolverV1.sol:BasicSolverV1",
            "label": "module",
            "offset": 0,
            "slot": "0",
            "type": "t_contract(IModule)7747"
          },
          {
            "astId": 8290,
            "contract": "contracts/solvers/BasicSolverV1.sol:BasicSolverV1",
            "label": "data",
            "offset": 0,
            "slot": "1",
            "type": "t_bytes_storage"
          }
        ],
        "numberOfBytes": "64"
      },
      "t_uint256": {
        "encoding": "inplace",
        "label": "uint256",
        "numberOfBytes": "32"
      },
      "t_uint8": {
        "encoding": "inplace",
        "label": "uint8",
        "numberOfBytes": "1"
      }
    }
  }
}