{
  "address": "0xa513E6E4b8f2a923D98304ec87F64353C4D5C853",
  "abi": [
    {
      "anonymous": false,
      "inputs": [
        {
          "indexed": false,
          "internalType": "bytes32",
          "name": "conditionId",
          "type": "bytes32"
        }
      ],
      "name": "ChangedStatus",
      "type": "event"
    },
    {
      "anonymous": false,
      "inputs": [
        {
          "indexed": false,
          "internalType": "bytes32",
          "name": "conditionId",
          "type": "bytes32"
        }
      ],
      "name": "DeliveredNullArbitration",
      "type": "event"
    },
    {
      "anonymous": false,
      "inputs": [
        {
          "indexed": false,
          "internalType": "address",
          "name": "child",
          "type": "address"
        }
      ],
      "name": "DeployedChild",
      "type": "event"
    },
    {
      "anonymous": false,
      "inputs": [],
      "name": "IngestedData",
      "type": "event"
    },
    {
      "anonymous": false,
      "inputs": [
        {
          "indexed": false,
          "internalType": "uint8",
          "name": "version",
          "type": "uint8"
        }
      ],
      "name": "Initialized",
      "type": "event"
    },
    {
      "anonymous": false,
      "inputs": [
        {
          "indexed": false,
          "internalType": "address",
          "name": "solver",
          "type": "address"
        },
        {
          "indexed": false,
          "internalType": "uint256",
          "name": "solveIndex",
          "type": "uint256"
        }
      ],
      "name": "PreparedSolve",
      "type": "event"
    },
    {
      "inputs": [
        {
          "internalType": "bytes32",
          "name": "_slot",
          "type": "bytes32"
        },
        {
          "internalType": "bytes",
          "name": "_data",
          "type": "bytes"
        }
      ],
      "name": "addData",
      "outputs": [],
      "stateMutability": "nonpayable",
      "type": "function"
    },
    {
      "inputs": [
        {
          "internalType": "uint256",
          "name": "_index",
          "type": "uint256"
        }
      ],
      "name": "addressFromChainIndex",
      "outputs": [
        {
          "internalType": "address",
          "name": "_address",
          "type": "address"
        }
      ],
      "stateMutability": "view",
      "type": "function"
    },
    {
      "inputs": [
        {
          "internalType": "uint256",
          "name": "_index",
          "type": "uint256"
        }
      ],
      "name": "allocationsValid",
      "outputs": [
        {
          "internalType": "bool",
          "name": "",
          "type": "bool"
        }
      ],
      "stateMutability": "view",
      "type": "function"
    },
    {
      "inputs": [
        {
          "internalType": "uint256",
          "name": "_index",
          "type": "uint256"
        },
        {
          "internalType": "uint256[]",
          "name": "payouts",
          "type": "uint256[]"
        }
      ],
      "name": "arbitrate",
      "outputs": [],
      "stateMutability": "nonpayable",
      "type": "function"
    },
    {
      "inputs": [
        {
          "internalType": "uint256",
          "name": "_index",
          "type": "uint256"
        }
      ],
      "name": "arbitrateNull",
      "outputs": [],
      "stateMutability": "nonpayable",
      "type": "function"
    },
    {
      "inputs": [],
      "name": "arbitrator",
      "outputs": [
        {
          "internalType": "address",
          "name": "",
          "type": "address"
        }
      ],
      "stateMutability": "view",
      "type": "function"
    },
    {
      "inputs": [],
      "name": "chainChild",
      "outputs": [
        {
          "internalType": "address",
          "name": "",
          "type": "address"
        }
      ],
      "stateMutability": "view",
      "type": "function"
    },
    {
      "inputs": [],
      "name": "chainIndex",
      "outputs": [
        {
          "internalType": "uint256",
          "name": "",
          "type": "uint256"
        }
      ],
      "stateMutability": "view",
      "type": "function"
    },
    {
      "inputs": [],
      "name": "chainParent",
      "outputs": [
        {
          "internalType": "address",
          "name": "",
          "type": "address"
        }
      ],
      "stateMutability": "view",
      "type": "function"
    },
    {
      "inputs": [],
      "name": "collateralBalance",
      "outputs": [
        {
          "internalType": "uint256",
          "name": "balance",
          "type": "uint256"
        }
      ],
      "stateMutability": "view",
      "type": "function"
    },
    {
      "inputs": [
        {
          "internalType": "uint256",
          "name": "index",
          "type": "uint256"
        }
      ],
      "name": "condition",
      "outputs": [
        {
          "components": [
            {
              "internalType": "contract IERC20",
              "name": "collateralToken",
              "type": "address"
            },
            {
              "internalType": "bytes32",
              "name": "questionId",
              "type": "bytes32"
            },
            {
              "internalType": "bytes32",
              "name": "parentCollectionId",
              "type": "bytes32"
            },
            {
              "internalType": "bytes32",
              "name": "conditionId",
              "type": "bytes32"
            },
            {
              "internalType": "uint256[]",
              "name": "payouts",
              "type": "uint256[]"
            },
            {
              "internalType": "enum SolverLib.Status",
              "name": "status",
              "type": "uint8"
            }
          ],
          "internalType": "struct SolverLib.Condition",
          "name": "",
          "type": "tuple"
        }
      ],
      "stateMutability": "view",
      "type": "function"
    },
    {
      "inputs": [
        {
          "internalType": "uint256",
          "name": "",
          "type": "uint256"
        }
      ],
      "name": "conditions",
      "outputs": [
        {
          "internalType": "contract IERC20",
          "name": "collateralToken",
          "type": "address"
        },
        {
          "internalType": "bytes32",
          "name": "questionId",
          "type": "bytes32"
        },
        {
          "internalType": "bytes32",
          "name": "parentCollectionId",
          "type": "bytes32"
        },
        {
          "internalType": "bytes32",
          "name": "conditionId",
          "type": "bytes32"
        },
        {
          "internalType": "enum SolverLib.Status",
          "name": "status",
          "type": "uint8"
        }
      ],
      "stateMutability": "view",
      "type": "function"
    },
    {
      "inputs": [],
      "name": "config",
      "outputs": [
        {
          "internalType": "contract Solver",
          "name": "implementation",
          "type": "address"
        },
        {
          "internalType": "address",
          "name": "keeper",
          "type": "address"
        },
        {
          "internalType": "address",
          "name": "arbitrator",
          "type": "address"
        },
        {
          "internalType": "uint256",
          "name": "timelockSeconds",
          "type": "uint256"
        },
        {
          "components": [
            {
              "internalType": "contract IERC20",
              "name": "collateralToken",
              "type": "address"
            },
            {
              "internalType": "uint256",
              "name": "outcomeSlots",
              "type": "uint256"
            },
            {
              "internalType": "uint256",
              "name": "parentCollectionIndexSet",
              "type": "uint256"
            },
            {
              "internalType": "bytes32",
              "name": "amountSlot",
              "type": "bytes32"
            },
            {
              "internalType": "uint256[]",
              "name": "partition",
              "type": "uint256[]"
            },
            {
              "components": [
                {
                  "internalType": "bytes32",
                  "name": "recipientAddressSlot",
                  "type": "bytes32"
                },
                {
                  "internalType": "bytes32[]",
                  "name": "recipientAmountSlots",
                  "type": "bytes32[]"
                }
              ],
              "internalType": "struct SolverLib.Allocation[]",
              "name": "allocations",
              "type": "tuple[]"
            },
            {
              "internalType": "string[]",
              "name": "outcomeURIs",
              "type": "string[]"
            }
          ],
          "internalType": "struct SolverLib.ConditionBase",
          "name": "conditionBase",
          "type": "tuple"
        }
      ],
      "stateMutability": "view",
      "type": "function"
    },
    {
      "inputs": [
        {
          "internalType": "uint256",
          "name": "_index",
          "type": "uint256"
        }
      ],
      "name": "confirmPayouts",
      "outputs": [],
      "stateMutability": "nonpayable",
      "type": "function"
    },
    {
      "inputs": [
        {
          "components": [
            {
              "internalType": "contract Solver",
              "name": "implementation",
              "type": "address"
            },
            {
              "internalType": "address",
              "name": "keeper",
              "type": "address"
            },
            {
              "internalType": "address",
              "name": "arbitrator",
              "type": "address"
            },
            {
              "internalType": "uint256",
              "name": "timelockSeconds",
              "type": "uint256"
            },
            {
              "components": [
                {
                  "internalType": "contract IModule",
                  "name": "module",
                  "type": "address"
                },
                {
                  "internalType": "bytes",
                  "name": "data",
                  "type": "bytes"
                }
              ],
              "internalType": "struct Modulated.Loader[]",
              "name": "moduleLoaders",
              "type": "tuple[]"
            },
            {
              "components": [
                {
                  "internalType": "uint256",
                  "name": "executions",
                  "type": "uint256"
                },
                {
                  "internalType": "enum SolverLib.IngestType",
                  "name": "ingestType",
                  "type": "uint8"
                },
                {
                  "internalType": "bytes32",
                  "name": "slot",
                  "type": "bytes32"
                },
                {
                  "internalType": "uint256",
                  "name": "solverIndex",
                  "type": "uint256"
                },
                {
                  "internalType": "bytes",
                  "name": "data",
                  "type": "bytes"
                }
              ],
              "internalType": "struct SolverLib.Ingest[]",
              "name": "ingests",
              "type": "tuple[]"
            },
            {
              "components": [
                {
                  "internalType": "contract IERC20",
                  "name": "collateralToken",
                  "type": "address"
                },
                {
                  "internalType": "uint256",
                  "name": "outcomeSlots",
                  "type": "uint256"
                },
                {
                  "internalType": "uint256",
                  "name": "parentCollectionIndexSet",
                  "type": "uint256"
                },
                {
                  "internalType": "bytes32",
                  "name": "amountSlot",
                  "type": "bytes32"
                },
                {
                  "internalType": "uint256[]",
                  "name": "partition",
                  "type": "uint256[]"
                },
                {
                  "components": [
                    {
                      "internalType": "bytes32",
                      "name": "recipientAddressSlot",
                      "type": "bytes32"
                    },
                    {
                      "internalType": "bytes32[]",
                      "name": "recipientAmountSlots",
                      "type": "bytes32[]"
                    }
                  ],
                  "internalType": "struct SolverLib.Allocation[]",
                  "name": "allocations",
                  "type": "tuple[]"
                },
                {
                  "internalType": "string[]",
                  "name": "outcomeURIs",
                  "type": "string[]"
                }
              ],
              "internalType": "struct SolverLib.ConditionBase",
              "name": "conditionBase",
              "type": "tuple"
            }
          ],
          "internalType": "struct SolverLib.Config",
          "name": "_config",
          "type": "tuple"
        }
      ],
      "name": "deployChild",
      "outputs": [
        {
          "internalType": "address",
          "name": "",
          "type": "address"
        }
      ],
      "stateMutability": "nonpayable",
      "type": "function"
    },
    {
      "inputs": [],
      "name": "deployerAddress",
      "outputs": [
        {
          "internalType": "address",
          "name": "",
          "type": "address"
        }
      ],
      "stateMutability": "view",
      "type": "function"
    },
    {
      "inputs": [
        {
          "internalType": "uint256",
          "name": "_index",
          "type": "uint256"
        }
      ],
      "name": "executeSolve",
      "outputs": [],
      "stateMutability": "nonpayable",
      "type": "function"
    },
    {
      "inputs": [
        {
          "internalType": "bytes32",
          "name": "_slot",
          "type": "bytes32"
        }
      ],
      "name": "getAllData",
      "outputs": [
        {
          "internalType": "bytes[]",
          "name": "data",
          "type": "bytes[]"
        }
      ],
      "stateMutability": "view",
      "type": "function"
    },
    {
      "inputs": [
        {
          "internalType": "bytes32",
          "name": "_slot",
          "type": "bytes32"
        }
      ],
      "name": "getCallbackOutput",
      "outputs": [
        {
          "internalType": "bytes",
          "name": "data",
          "type": "bytes"
        }
      ],
      "stateMutability": "view",
      "type": "function"
    },
    {
      "inputs": [],
      "name": "getConditions",
      "outputs": [
        {
          "components": [
            {
              "internalType": "contract IERC20",
              "name": "collateralToken",
              "type": "address"
            },
            {
              "internalType": "bytes32",
              "name": "questionId",
              "type": "bytes32"
            },
            {
              "internalType": "bytes32",
              "name": "parentCollectionId",
              "type": "bytes32"
            },
            {
              "internalType": "bytes32",
              "name": "conditionId",
              "type": "bytes32"
            },
            {
              "internalType": "uint256[]",
              "name": "payouts",
              "type": "uint256[]"
            },
            {
              "internalType": "enum SolverLib.Status",
              "name": "status",
              "type": "uint8"
            }
          ],
          "internalType": "struct SolverLib.Condition[]",
          "name": "",
          "type": "tuple[]"
        }
      ],
      "stateMutability": "view",
      "type": "function"
    },
    {
      "inputs": [],
      "name": "getConfig",
      "outputs": [
        {
          "components": [
            {
              "internalType": "contract Solver",
              "name": "implementation",
              "type": "address"
            },
            {
              "internalType": "address",
              "name": "keeper",
              "type": "address"
            },
            {
              "internalType": "address",
              "name": "arbitrator",
              "type": "address"
            },
            {
              "internalType": "uint256",
              "name": "timelockSeconds",
              "type": "uint256"
            },
            {
              "components": [
                {
                  "internalType": "contract IModule",
                  "name": "module",
                  "type": "address"
                },
                {
                  "internalType": "bytes",
                  "name": "data",
                  "type": "bytes"
                }
              ],
              "internalType": "struct Modulated.Loader[]",
              "name": "moduleLoaders",
              "type": "tuple[]"
            },
            {
              "components": [
                {
                  "internalType": "uint256",
                  "name": "executions",
                  "type": "uint256"
                },
                {
                  "internalType": "enum SolverLib.IngestType",
                  "name": "ingestType",
                  "type": "uint8"
                },
                {
                  "internalType": "bytes32",
                  "name": "slot",
                  "type": "bytes32"
                },
                {
                  "internalType": "uint256",
                  "name": "solverIndex",
                  "type": "uint256"
                },
                {
                  "internalType": "bytes",
                  "name": "data",
                  "type": "bytes"
                }
              ],
              "internalType": "struct SolverLib.Ingest[]",
              "name": "ingests",
              "type": "tuple[]"
            },
            {
              "components": [
                {
                  "internalType": "contract IERC20",
                  "name": "collateralToken",
                  "type": "address"
                },
                {
                  "internalType": "uint256",
                  "name": "outcomeSlots",
                  "type": "uint256"
                },
                {
                  "internalType": "uint256",
                  "name": "parentCollectionIndexSet",
                  "type": "uint256"
                },
                {
                  "internalType": "bytes32",
                  "name": "amountSlot",
                  "type": "bytes32"
                },
                {
                  "internalType": "uint256[]",
                  "name": "partition",
                  "type": "uint256[]"
                },
                {
                  "components": [
                    {
                      "internalType": "bytes32",
                      "name": "recipientAddressSlot",
                      "type": "bytes32"
                    },
                    {
                      "internalType": "bytes32[]",
                      "name": "recipientAmountSlots",
                      "type": "bytes32[]"
                    }
                  ],
                  "internalType": "struct SolverLib.Allocation[]",
                  "name": "allocations",
                  "type": "tuple[]"
                },
                {
                  "internalType": "string[]",
                  "name": "outcomeURIs",
                  "type": "string[]"
                }
              ],
              "internalType": "struct SolverLib.ConditionBase",
              "name": "conditionBase",
              "type": "tuple"
            }
          ],
          "internalType": "struct SolverLib.Config",
          "name": "",
          "type": "tuple"
        }
      ],
      "stateMutability": "view",
      "type": "function"
    },
    {
      "inputs": [
        {
          "internalType": "bytes32",
          "name": "_slot",
          "type": "bytes32"
        }
      ],
      "name": "getData",
      "outputs": [
        {
          "internalType": "bytes",
          "name": "data",
          "type": "bytes"
        }
      ],
      "stateMutability": "view",
      "type": "function"
    },
    {
      "inputs": [
        {
          "internalType": "bytes32",
          "name": "key",
          "type": "bytes32"
        }
      ],
      "name": "getState",
      "outputs": [
        {
          "internalType": "bytes",
          "name": "data",
          "type": "bytes"
        }
      ],
      "stateMutability": "view",
      "type": "function"
    },
    {
      "inputs": [
        {
          "internalType": "uint256",
          "name": "conditionIndex",
          "type": "uint256"
        }
      ],
      "name": "getStatus",
      "outputs": [
        {
          "internalType": "enum SolverLib.Status",
          "name": "status",
          "type": "uint8"
        }
      ],
      "stateMutability": "view",
      "type": "function"
    },
    {
      "inputs": [
        {
          "internalType": "bytes32",
          "name": "_slot",
          "type": "bytes32"
        }
      ],
      "name": "handleCallback",
      "outputs": [],
      "stateMutability": "nonpayable",
      "type": "function"
    },
    {
      "inputs": [],
      "name": "ingestsValid",
      "outputs": [
        {
          "internalType": "bool",
          "name": "",
          "type": "bool"
        }
      ],
      "stateMutability": "view",
      "type": "function"
    },
    {
      "inputs": [
        {
          "internalType": "address",
          "name": "_deployer",
          "type": "address"
        },
        {
          "internalType": "address",
          "name": "_chainParent",
          "type": "address"
        },
        {
          "internalType": "uint256",
          "name": "_chainIndex",
          "type": "uint256"
        },
        {
          "components": [
            {
              "internalType": "contract Solver",
              "name": "implementation",
              "type": "address"
            },
            {
              "internalType": "address",
              "name": "keeper",
              "type": "address"
            },
            {
              "internalType": "address",
              "name": "arbitrator",
              "type": "address"
            },
            {
              "internalType": "uint256",
              "name": "timelockSeconds",
              "type": "uint256"
            },
            {
              "components": [
                {
                  "internalType": "contract IModule",
                  "name": "module",
                  "type": "address"
                },
                {
                  "internalType": "bytes",
                  "name": "data",
                  "type": "bytes"
                }
              ],
              "internalType": "struct Modulated.Loader[]",
              "name": "moduleLoaders",
              "type": "tuple[]"
            },
            {
              "components": [
                {
                  "internalType": "uint256",
                  "name": "executions",
                  "type": "uint256"
                },
                {
                  "internalType": "enum SolverLib.IngestType",
                  "name": "ingestType",
                  "type": "uint8"
                },
                {
                  "internalType": "bytes32",
                  "name": "slot",
                  "type": "bytes32"
                },
                {
                  "internalType": "uint256",
                  "name": "solverIndex",
                  "type": "uint256"
                },
                {
                  "internalType": "bytes",
                  "name": "data",
                  "type": "bytes"
                }
              ],
              "internalType": "struct SolverLib.Ingest[]",
              "name": "ingests",
              "type": "tuple[]"
            },
            {
              "components": [
                {
                  "internalType": "contract IERC20",
                  "name": "collateralToken",
                  "type": "address"
                },
                {
                  "internalType": "uint256",
                  "name": "outcomeSlots",
                  "type": "uint256"
                },
                {
                  "internalType": "uint256",
                  "name": "parentCollectionIndexSet",
                  "type": "uint256"
                },
                {
                  "internalType": "bytes32",
                  "name": "amountSlot",
                  "type": "bytes32"
                },
                {
                  "internalType": "uint256[]",
                  "name": "partition",
                  "type": "uint256[]"
                },
                {
                  "components": [
                    {
                      "internalType": "bytes32",
                      "name": "recipientAddressSlot",
                      "type": "bytes32"
                    },
                    {
                      "internalType": "bytes32[]",
                      "name": "recipientAmountSlots",
                      "type": "bytes32[]"
                    }
                  ],
                  "internalType": "struct SolverLib.Allocation[]",
                  "name": "allocations",
                  "type": "tuple[]"
                },
                {
                  "internalType": "string[]",
                  "name": "outcomeURIs",
                  "type": "string[]"
                }
              ],
              "internalType": "struct SolverLib.ConditionBase",
              "name": "conditionBase",
              "type": "tuple"
            }
          ],
          "internalType": "struct SolverLib.Config",
          "name": "_solverConfig",
          "type": "tuple"
        }
      ],
      "name": "init",
      "outputs": [],
      "stateMutability": "nonpayable",
      "type": "function"
    },
    {
      "inputs": [
        {
          "internalType": "bytes4",
          "name": "selector",
          "type": "bytes4"
        }
      ],
      "name": "isPermittedModule",
      "outputs": [
        {
          "internalType": "bool",
          "name": "",
          "type": "bool"
        }
      ],
      "stateMutability": "view",
      "type": "function"
    },
    {
      "inputs": [
        {
          "internalType": "address",
          "name": "account",
          "type": "address"
        },
        {
          "internalType": "uint256",
          "name": "conditionIndex",
          "type": "uint256"
        }
      ],
      "name": "isRecipient",
      "outputs": [
        {
          "internalType": "bool",
          "name": "",
          "type": "bool"
        }
      ],
      "stateMutability": "view",
      "type": "function"
    },
    {
      "inputs": [],
      "name": "keeper",
      "outputs": [
        {
          "internalType": "address",
          "name": "",
          "type": "address"
        }
      ],
      "stateMutability": "view",
      "type": "function"
    },
    {
      "inputs": [
        {
          "internalType": "address",
          "name": "operator",
          "type": "address"
        },
        {
          "internalType": "address",
          "name": "from",
          "type": "address"
        },
        {
          "internalType": "uint256[]",
          "name": "ids",
          "type": "uint256[]"
        },
        {
          "internalType": "uint256[]",
          "name": "values",
          "type": "uint256[]"
        },
        {
          "internalType": "bytes",
          "name": "data",
          "type": "bytes"
        }
      ],
      "name": "onERC1155BatchReceived",
      "outputs": [
        {
          "internalType": "bytes4",
          "name": "",
          "type": "bytes4"
        }
      ],
      "stateMutability": "nonpayable",
      "type": "function"
    },
    {
      "inputs": [
        {
          "internalType": "address",
          "name": "operator",
          "type": "address"
        },
        {
          "internalType": "address",
          "name": "from",
          "type": "address"
        },
        {
          "internalType": "uint256",
          "name": "id",
          "type": "uint256"
        },
        {
          "internalType": "uint256",
          "name": "value",
          "type": "uint256"
        },
        {
          "internalType": "bytes",
          "name": "data",
          "type": "bytes"
        }
      ],
      "name": "onERC1155Received",
      "outputs": [
        {
          "internalType": "bytes4",
          "name": "",
          "type": "bytes4"
        }
      ],
      "stateMutability": "nonpayable",
      "type": "function"
    },
    {
      "inputs": [
        {
          "internalType": "uint256",
          "name": "_index",
          "type": "uint256"
        }
      ],
      "name": "prepareSolve",
      "outputs": [],
      "stateMutability": "nonpayable",
      "type": "function"
    },
    {
      "inputs": [
        {
          "internalType": "uint256",
          "name": "_index",
          "type": "uint256"
        },
        {
          "internalType": "uint256[]",
          "name": "_payouts",
          "type": "uint256[]"
        }
      ],
      "name": "proposePayouts",
      "outputs": [],
      "stateMutability": "nonpayable",
      "type": "function"
    },
    {
      "inputs": [
        {
          "internalType": "contract IERC20",
          "name": "_collateralToken",
          "type": "address"
        },
        {
          "internalType": "bytes32",
          "name": "_parentCollectionId",
          "type": "bytes32"
        },
        {
          "internalType": "bytes32",
          "name": "_conditionId",
          "type": "bytes32"
        },
        {
          "internalType": "uint256[]",
          "name": "_indexSets",
          "type": "uint256[]"
        }
      ],
      "name": "redeemPosition",
      "outputs": [],
      "stateMutability": "nonpayable",
      "type": "function"
    },
    {
      "inputs": [
        {
          "internalType": "bytes32",
          "name": "_slot",
          "type": "bytes32"
        },
        {
          "internalType": "uint256",
          "name": "_chainIndex",
          "type": "uint256"
        }
      ],
      "name": "registerOutgoingCallback",
      "outputs": [],
      "stateMutability": "nonpayable",
      "type": "function"
    },
    {
      "inputs": [
        {
          "internalType": "uint256",
          "name": "_index",
          "type": "uint256"
        }
      ],
      "name": "requestArbitration",
      "outputs": [],
      "stateMutability": "nonpayable",
      "type": "function"
    },
    {
      "inputs": [
        {
          "internalType": "bytes32",
          "name": "key",
          "type": "bytes32"
        },
        {
          "internalType": "bytes",
          "name": "data",
          "type": "bytes"
        }
      ],
      "name": "setState",
      "outputs": [],
      "stateMutability": "nonpayable",
      "type": "function"
    },
    {
      "inputs": [
        {
          "internalType": "uint256",
          "name": "_index",
          "type": "uint256"
        },
        {
          "internalType": "uint256",
          "name": "_date",
          "type": "uint256"
        }
      ],
      "name": "setTimelock",
      "outputs": [],
      "stateMutability": "nonpayable",
      "type": "function"
    },
    {
      "inputs": [
        {
          "internalType": "bytes32",
          "name": "_trackingId",
          "type": "bytes32"
        }
      ],
      "name": "setTrackingId",
      "outputs": [],
      "stateMutability": "nonpayable",
      "type": "function"
    },
    {
      "inputs": [],
      "name": "solverFactory",
      "outputs": [
        {
          "internalType": "contract ISolverFactory",
          "name": "",
          "type": "address"
        }
      ],
      "stateMutability": "view",
      "type": "function"
    },
    {
      "inputs": [
        {
          "internalType": "bytes4",
          "name": "interfaceId",
          "type": "bytes4"
        }
      ],
      "name": "supportsInterface",
      "outputs": [
        {
          "internalType": "bool",
          "name": "",
          "type": "bool"
        }
      ],
      "stateMutability": "view",
      "type": "function"
    },
    {
      "inputs": [
        {
          "internalType": "uint256",
          "name": "",
          "type": "uint256"
        }
      ],
      "name": "timelocks",
      "outputs": [
        {
          "internalType": "uint256",
          "name": "",
          "type": "uint256"
        }
      ],
      "stateMutability": "view",
      "type": "function"
    },
    {
      "inputs": [],
      "name": "trackingId",
      "outputs": [
        {
          "internalType": "bytes32",
          "name": "",
          "type": "bytes32"
        }
      ],
      "stateMutability": "view",
      "type": "function"
    },
    {
      "inputs": [
        {
          "internalType": "contract IERC20",
          "name": "token",
          "type": "address"
        },
        {
          "internalType": "address",
          "name": "recipient",
          "type": "address"
        },
        {
          "internalType": "uint256",
          "name": "amount",
          "type": "uint256"
        }
      ],
      "name": "transferERC20",
      "outputs": [],
      "stateMutability": "nonpayable",
      "type": "function"
    }
  ],
  "transactionHash": "0x3f863c71c97928d22358b53320aec7e6b78766c456a3f309f4221aed42502dc5",
  "args": [],
  "numDeployments": 1,
  "solcInputHash": "33354247c16047509b325c318c8ec1d5",
  "bytecode": "0x60806040523480156200001157600080fd5b506200001c62000022565b6200013d565b6200002e60ff62000031565b50565b600354600090610100900460ff16156200009c578160ff1660011480156200006c57506200006a30620000e060201b62002fc71760201c565b155b620000945760405162461bcd60e51b81526004016200008b90620000ef565b60405180910390fd5b506000919050565b60035460ff808416911610620000c65760405162461bcd60e51b81526004016200008b90620000ef565b506003805460ff191660ff92909216919091179055600190565b6001600160a01b03163b151590565b6020808252602e908201527f496e697469616c697a61626c653a20636f6e747261637420697320616c72656160408201526d191e481a5b9a5d1a585b1a5e995960921b606082015260800190565b615fad806200014d6000396000f3fe608060405234801561001057600080fd5b506004361061020f5760003560e01c806301ffc9a71461021457806309648a9d1461023c5780630d06101a1461025c5780630d7e149f146102715780630d8d39751461029257806318782559146102a557806326c50007146102b857806331402a57146102dc5780633837b05e146102ef5780633f4fb5aa1461030f57806344c3b6071461032257806348cbb2fc146103355780634a77234e1461033e5780634e46f22314610351578063506da0b81461036457806354f6127f1461037757806355dd978b1461038a5780635c622a0e1461039d5780636463845b146103bd5780636577cbd3146103d05780636cc6cde1146103e357806379502c55146103f45780637c1236271461040d57806380b204b71461042257806380c2dde21461043557806381296f6f146104485780638602ce1b1461045b57806387dfee571461046e57806399992506146104815780639db5dbe414610489578063a272ebcf1461049c578063aced1661146104af578063b992db0f146104c0578063bc197c81146104d3578063c08d6f0114610502578063c3f909d414610522578063c8abf6da14610537578063c98c05b71461054a578063d4fe6a4c14610552578063de3a23c51461056b578063df33cc511461057e578063ea8221a914610591578063efdee94f1461059a578063f23a6e61146105ad578063f24fc903146105c0575b600080fd5b610227610222366004613d75565b6105e0565b60405190151581526020015b60405180910390f35b61024f61024a366004613d9f565b610617565b6040516102339190613e14565b61026f61026a366004613d9f565b6106b9565b005b61028461027f366004613d9f565b61071b565b604051908152602001610233565b61026f6102a0366004613d9f565b61073c565b61026f6102b3366004613e87565b6108f3565b6102cb6102c6366004613d9f565b610a16565b604051610233959493929190613f27565b61026f6102ea366004613d9f565b610a64565b6103026102fd366004613d9f565b610bf9565b6040516102339190613f59565b61024f61031d366004613d9f565b610d0a565b610227610330366004613d9f565b610da1565b61028460175481565b61026f61034c366004613d9f565b610e26565b61026f61035f366004613d9f565b6111d1565b610227610372366004613f78565b611298565b61024f610385366004613d9f565b6113dd565b601454610302906001600160a01b031681565b6103b06103ab366004613d9f565b6113fd565b6040516102339190613fa4565b6103026103cb366004613fca565b61142f565b61026f6103de366004613ffe565b61158d565b6007546001600160a01b0316610302565b6103fc611740565b6040516102339594939291906141fb565b610415611987565b6040516102339190614297565b61026f6104303660046142f9565b611a9a565b601354610302906001600160a01b031681565b61026f6104563660046143d9565b611c0d565b61026f6104693660046143d9565b611c58565b61026f61047c366004614485565b611d50565b610227611f4d565b61026f610497366004614521565b611fd2565b6102276104aa366004613d75565b612030565b6006546001600160a01b0316610302565b61026f6104ce366004613d9f565b6120be565b6104f56104e13660046145a3565b63bc197c8160e01b98975050505050505050565b6040516102339190614661565b610515610510366004613d9f565b6123b0565b6040516102339190614676565b61052a612495565b60405161023391906147c4565b61026f610545366004614863565b61295b565b6102846129b5565b600354610302906201000090046001600160a01b031681565b61026f610579366004613d9f565b612a27565b61026f61058c366004614863565b612d50565b61028460155481565b600454610302906001600160a01b031681565b6104f56105bb366004614885565b612e97565b6105d36105ce366004613d9f565b612eaa565b6040516102339190614900565b60006001600160e01b03198216630271189760e51b148061061157506301ffc9a760e01b6001600160e01b03198316145b92915050565b600081815260026020526040902080546060919061063490614913565b80601f016020809104026020016040519081016040528092919081815260200182805461066090614913565b80156106ad5780601f10610682576101008083540402835291602001916106ad565b820191906000526020600020905b81548152906001019060200180831161069057829003601f168201915b50505050509050919050565b601754156106ff5760405162461bcd60e51b815260206004820152600e60248201526d151c9858dada5b99d259081cd95d60921b60448201526064015b60405180910390fd5b6004546001600160a01b0316331461071657600080fd5b601755565b6016818154811061072b57600080fd5b600091825260209091200154905081565b6016818154811061074f5761074f614947565b906000526020600020015442116107785760405162461bcd60e51b81526004016106f69061495d565b60026012828154811061078d5761078d614947565b60009182526020909120600560069092020181015460ff16908111156107b5576107b5613efd565b146107f15760405162461bcd60e51b815260206004820152600c60248201526b139bdd081c1c9bdc1bdcd95960a21b60448201526064016106f6565b730165878A594ca255338adfa4d48449f69242Eb8F6385c92867600360029054906101000a90046001600160a01b03166001600160a01b03166322a9339f6040518163ffffffff1660e01b8152600401602060405180830381865afa15801561085e573d6000803e3d6000fd5b505050506040513d601f19601f820116820180604052508101906108829190614981565b6012848154811061089557610895614947565b90600052602060002090600602016040518363ffffffff1660e01b81526004016108c092919061499e565b60006040518083038186803b1580156108d857600080fd5b505af41580156108ec573d6000803e3d6000fd5b5050505050565b6006546001600160a01b03163314806109175750610917631878255960e01b612030565b6109335760405162461bcd60e51b81526004016106f6906149b7565b600360029054906101000a90046001600160a01b03166001600160a01b03166322a9339f6040518163ffffffff1660e01b8152600401602060405180830381865afa158015610986573d6000803e3d6000fd5b505050506040513d601f19601f820116820180604052508101906109aa9190614981565b6001600160a01b03166301b7037c86868686866040518663ffffffff1660e01b81526004016109dd959493929190614a12565b600060405180830381600087803b1580156109f757600080fd5b505af1158015610a0b573d6000803e3d6000fd5b505050505050505050565b60128181548110610a2657600080fd5b6000918252602090912060069091020180546001820154600283015460038401546005909401546001600160a01b0390931694509092909160ff1685565b6007546001600160a01b0316331480610a885750610a886331402a5760e01b612030565b610aa45760405162461bcd60e51b81526004016106f690614a40565b600260128281548110610ab957610ab9614947565b60009182526020909120600560069092020181015460ff1690811115610ae157610ae1613efd565b1480610b275750600360128281548110610afd57610afd614947565b60009182526020909120600560069092020181015460ff1690811115610b2557610b25613efd565b145b610b645760405162461bcd60e51b815260206004820152600e60248201526d10d85b9b9bdd081c995c5d595cdd60921b60448201526064016106f6565b730165878A594ca255338adfa4d48449f69242Eb8F633bdce6e660128381548110610b9157610b91614947565b90600052602060002090600602016040518263ffffffff1660e01b8152600401610bbd91815260200190565b60006040518083038186803b158015610bd557600080fd5b505af4158015610be9573d6000803e3d6000fd5b50505050610bf681612fd6565b50565b60006015548203610c0b575030919050565b601554821015610c9a576013546001600160a01b0316610c2d57506000919050565b601354604051631c1bd82f60e11b8152600481018490526001600160a01b0390911690633837b05e90602401602060405180830381865afa158015610c76573d6000803e3d6000fd5b505050506040513d601f19601f820116820180604052508101906106119190614981565b601554821115610d05576014546001600160a01b0316610cbc57506000919050565b601454604051631c1bd82f60e11b8152600481018490526001600160a01b0390911690633837b05e90602401602060405180830381865afa158015610c76573d6000803e3d6000fd5b919050565b6012546000828152601c602052604090205460609114610d605760405162461bcd60e51b815260206004820152601160248201527029b637ba1034b73b30b634b2103b32b91760791b60448201526064016106f6565b6000828152601c602052604090208054610d7c90600190614a7f565b81548110610d8c57610d8c614947565b90600052602060002001805461063490614913565b6040516336d39c6160e11b815260048101829052601c6024820152600b6044820152600090730165878A594ca255338adfa4d48449f69242Eb8F90636da738c290606401602060405180830381865af4158015610e02573d6000803e3d6000fd5b505050506040513d601f19601f820116820180604052508101906106119190614a96565b60125415610e83576006546001600160a01b0316331480610e5157506013546001600160a01b031633145b80610e675750610e6763253b91a760e11b612030565b610e835760405162461bcd60e51b81526004016106f690614ab8565b6012548114610ec45760405162461bcd60e51b815260206004820152600d60248201526c092dcecc2d8d2c840d2dcc8caf609b1b60448201526064016106f6565b60195415610f035760405162461bcd60e51b815260206004820152600c60248201526b6f7574676f696e672063627360a01b60448201526064016106f6565b60185415610f425760405162461bcd60e51b815260206004820152600c60248201526b696e636f6d696e672063627360a01b60448201526064016106f6565b6012730165878A594ca255338adfa4d48449f69242Eb8F63699e0add600360029054906101000a90046001600160a01b03166001600160a01b03166322a9339f6040518163ffffffff1660e01b8152600401602060405180830381865afa158015610fb1573d6000803e3d6000fd5b505050506040513d601f19601f82011682018060405250810190610fd59190614981565b6013546012546040516001600160e01b031960e086901b16815261100b9392600b926001600160a01b0390911691600401614c7f565b600060405180830381865af4158015611028573d6000803e3d6000fd5b505050506040513d6000823e601f3d908101601f191682016040526110509190810190614d40565b8154600180820184556000938452602093849020835160069093020180546001600160a01b0319166001600160a01b039093169290921782558284015190820155604082015160028201556060820151600382015560808201518051929391926110c09260048501920190613c01565b5060a08201518160050160006101000a81548160ff021916908360058111156110eb576110eb613efd565b0217905550506016805460018101825560009182527fd833147d7dc355ba459fc788f669e58cfaf9dc25ddcd0702e87d69c7b512428901555061112c613010565b7f152ec8ae15d347b2d2a8f0858caa29bcaaa0906749a1f43e08bfe79983460240308260405161115d92919061499e565b60405180910390a16014546001600160a01b031615610bf65760145460405163253b91a760e11b8152600481018390526001600160a01b0390911690634a77234e906024015b600060405180830381600087803b1580156111bd57600080fd5b505af11580156108ec573d6000803e3d6000fd5b6007546001600160a01b03163314806111f557506111f5634e46f22360e01b612030565b6112115760405162461bcd60e51b81526004016106f690614a40565b60036012828154811061122657611226614947565b60009182526020909120600560069092020181015460ff169081111561124e5761124e613efd565b1461126b5760405162461bcd60e51b81526004016106f690614e44565b730165878A594ca255338adfa4d48449f69242Eb8F6359111fb560128381548110610b9157610b91614947565b6000805b6010548110156113d35760108054600091601c91839190859081106112c3576112c3614947565b906000526020600020906002020160000154815260200190815260200160002084815481106112f4576112f4614947565b90600052602060002001805461130990614913565b80601f016020809104026020016040519081016040528092919081815260200182805461133590614913565b80156113825780601f1061135757610100808354040283529160200191611382565b820191906000526020600020905b81548152906001019060200180831161136557829003601f168201915b505050505080602001905181019061139a9190614981565b9050806001600160a01b0316856001600160a01b0316036113c057600192505050610611565b50806113cb81614e76565b91505061129c565b5060009392505050565b6000818152601c60205260409020805460609190610d7c90600190614a7f565b60006012828154811061141257611412614947565b600091825260209091206005600690920201015460ff1692915050565b6006546000906001600160a01b03163314806114565750611456636463845b60e01b612030565b6114905760405162461bcd60e51b815260206004820152600b60248201526a27b7363c9035b2b2b832b960a91b60448201526064016106f6565b6014546001600160a01b0316156114d55760405162461bcd60e51b815260206004820152600960248201526812185cc818da1a5b1960ba1b60448201526064016106f6565b6003546015546017546040516302949eed60e61b8152730165878A594ca255338adfa4d48449f69242Eb8F9363a527bb409361152793620100009092046001600160a01b031692889290600401615208565b602060405180830381865af4158015611544573d6000803e3d6000fd5b505050506040513d601f19601f820116820180604052508101906115689190614981565b601480546001600160a01b0319166001600160a01b0392909216918217905592915050565b6000611599600161328b565b905080156115b1576003805461ff0019166101001790555b60006115c360408401602085016152f8565b6001600160a01b03160361160a5760405162461bcd60e51b815260206004820152600e60248201526d12d9595c195c881a5b9d985b1a5960921b60448201526064016106f6565b600480546001600160a01b038088166001600160a01b0319928316179092556003805462010000330262010000600160b01b0319909116179055601380549287169290911691909117905560158390558160056116678282615b21565b90505060005b61167a60a0840184615335565b90508110156116de5780601d600061169560a0870187615335565b858181106116a5576116a5614947565b90506020028101906116b7919061564f565b604090810135825260208201929092520160002055806116d681614e76565b91505061166d565b506116f46116ef6080840184615335565b613314565b80156108ec576003805461ff0019169055604051600181527f7f26b83ff96e1f2b6a682f133852f6798a09c465da95921460cefb38474024989060200160405180910390a15050505050565b600580546006546007546008546040805160e081018252600b80546001600160a01b039081168352600c54602080850191909152600d5484860152600e546060850152600f80548651818402810184019097528087529983169a988316999790921697959693949293608086019392918301828280156117df57602002820191906000526020600020905b8154815260200190600101908083116117cb575b5050505050815260200160058201805480602002602001604051908101604052809291908181526020016000905b828210156118a15783829060005260206000209060020201604051806040016040529081600082015481526020016001820180548060200260200160405190810160405280929190818152602001828054801561188957602002820191906000526020600020905b815481526020019060010190808311611875575b5050505050815250508152602001906001019061180d565b50505050815260200160068201805480602002602001604051908101604052809291908181526020016000905b8282101561197a5783829060005260206000200180546118ed90614913565b80601f016020809104026020016040519081016040528092919081815260200182805461191990614913565b80156119665780601f1061193b57610100808354040283529160200191611966565b820191906000526020600020905b81548152906001019060200180831161194957829003601f168201915b5050505050815260200190600101906118ce565b5050505081525050905085565b60606012805480602002602001604051908101604052809291908181526020016000905b82821015611a915760008481526020908190206040805160c0810182526006860290920180546001600160a01b031683526001810154838501526002810154838301526003810154606084015260048101805483518187028101870190945280845293949193608086019392830182828015611a4657602002820191906000526020600020905b815481526020019060010190808311611a32575b505050918352505060058281015460209092019160ff1690811115611a6d57611a6d613efd565b6005811115611a7e57611a7e613efd565b81525050815260200190600101906119ab565b50505050905090565b6006546001600160a01b0316331480611abe5750611abe6380b204b760e01b612030565b611ada5760405162461bcd60e51b81526004016106f6906149b7565b600c548114611afb5760405162461bcd60e51b81526004016106f690615c89565b600160128481548110611b1057611b10614947565b60009182526020909120600560069092020181015460ff1690811115611b3857611b38613efd565b14611b745760405162461bcd60e51b815260206004820152600c60248201526b139bdd08115e1958dd5d195960a21b60448201526064016106f6565b730165878A594ca255338adfa4d48449f69242Eb8F636a0a24f160128581548110611ba157611ba1614947565b906000526020600020906006020184846040518463ffffffff1660e01b8152600401611bcf93929190615cc0565b60006040518083038186803b158015611be757600080fd5b505af4158015611bfb573d6000803e3d6000fd5b50505050611c0883612fd6565b505050565b611c1d6381296f6f60e01b612030565b611c395760405162461bcd60e51b81526004016106f690614ab8565b60008281526002602090815260409091208251611c0892840190613c4c565b6006546001600160a01b0316331480611c7c5750611c7c638602ce1b60e01b612030565b611c985760405162461bcd60e51b81526004016106f6906149b7565b6000828152601d6020526040902054600a8054600392908110611cbd57611cbd614947565b600091825260209091206001600590920201015460ff166003811115611ce557611ce5613efd565b14611d2b5760405162461bcd60e51b81526020600482015260166024820152751bdb9b1e48125b99d95cdd151e5c194b93585b9d585b60521b60448201526064016106f6565b611d358282613452565b604051600080516020615f5883398151915290600090a15050565b6007546001600160a01b0316331480611d745750611d746387dfee5760e01b612030565b611d905760405162461bcd60e51b81526004016106f690614a40565b600360128381548110611da557611da5614947565b60009182526020909120600560069092020181015460ff1690811115611dcd57611dcd613efd565b14611dea5760405162461bcd60e51b81526004016106f690614e44565b60168281548110611dfd57611dfd614947565b90600052602060002001544211611e265760405162461bcd60e51b81526004016106f69061495d565b600c54815114611e485760405162461bcd60e51b81526004016106f690615c89565b730165878A594ca255338adfa4d48449f69242Eb8F631b948e49600360029054906101000a90046001600160a01b03166001600160a01b03166322a9339f6040518163ffffffff1660e01b8152600401602060405180830381865afa158015611eb5573d6000803e3d6000fd5b505050506040513d601f19601f82011682018060405250810190611ed99190614981565b60128581548110611eec57611eec614947565b9060005260206000209060060201846040518463ffffffff1660e01b8152600401611f1993929190615cda565b60006040518083038186803b158015611f3157600080fd5b505af4158015611f45573d6000803e3d6000fd5b505050505050565b601254604051635cc1f6b560e01b8152600091730165878A594ca255338adfa4d48449f69242Eb8F91635cc1f6b591611f8c91600a9190600401615d37565b602060405180830381865af4158015611fa9573d6000803e3d6000fd5b505050506040513d601f19601f82011682018060405250810190611fcd9190614a96565b905090565b611fe263276d76f960e21b612030565b61201c5760405162461bcd60e51b815260206004820152600b60248201526a4f6e6c79206d6f64756c6560a81b60448201526064016106f6565b611c086001600160a01b03841683836134f0565b3360009081526001602052604081205460ff16156120b6576040516311247ecf60e11b81526000903390632248fd9e9061206e908690600401614661565b602060405180830381865afa15801561208b573d6000803e3d6000fd5b505050506040513d601f19601f820116820180604052508101906120af9190614a96565b9392505050565b506000919050565b6120c6611f4d565b15156001146121095760405162461bcd60e51b815260206004820152600f60248201526e1a5b99d95cdd1cc81a5b9d985b1a59608a1b60448201526064016106f6565b730165878A594ca255338adfa4d48449f69242Eb8F63c7def1de82600360029054906101000a90046001600160a01b03166001600160a01b03166322a9339f6040518163ffffffff1660e01b8152600401602060405180830381865afa158015612177573d6000803e3d6000fd5b505050506040513d601f19601f8201168201806040525081019061219b9190614981565b600360029054906101000a90046001600160a01b03166001600160a01b03166396d466376040518163ffffffff1660e01b8152600401602060405180830381865afa1580156121ee573d6000803e3d6000fd5b505050506040513d601f19601f820116820180604052508101906122129190614981565b6012868154811061222557612225614947565b60009182526020808320601754601354600e548652601c9384905260409095208054600690950290920194600b9491926001600160a01b03909116918c90811061227157612271614947565b90600052602060002001805461228690614913565b80601f01602080910402602001604051908101604052809291908181526020018280546122b290614913565b80156122ff5780601f106122d4576101008083540402835291602001916122ff565b820191906000526020600020905b8154815290600101906020018083116122e257829003601f168201915b50505050508060200190518101906123179190615de2565b60405160e08b901b6001600160e01b031916815260048101999099526001600160a01b0397881660248a015295871660448901526064880194909452608487019290925260a486015260c485015290911660e48301526101048201526101240160006040518083038186803b15801561238f57600080fd5b505af41580156123a3573d6000803e3d6000fd5b50505050610bf681613546565b6000818152601c60209081526040808320805482518185028101850190935280835260609492939192909184015b8282101561248a5783829060005260206000200180546123fd90614913565b80601f016020809104026020016040519081016040528092919081815260200182805461242990614913565b80156124765780601f1061244b57610100808354040283529160200191612476565b820191906000526020600020905b81548152906001019060200180831161245957829003601f168201915b5050505050815260200190600101906123de565b505050509050919050565b61249d613cbf565b6040805160e081018252600580546001600160a01b0390811683526006548116602080850191909152600754909116838501526008546060840152600980548551818402810184019096528086529394929360808601939260009084015b828210156125d4576000848152602090819020604080518082019091526002850290910180546001600160a01b03168252600181018054929391929184019161254390614913565b80601f016020809104026020016040519081016040528092919081815260200182805461256f90614913565b80156125bc5780601f10612591576101008083540402835291602001916125bc565b820191906000526020600020905b81548152906001019060200180831161259f57829003601f168201915b505050505081525050815260200190600101906124fb565b50505050815260200160058201805480602002602001604051908101604052809291908181526020016000905b8282101561271c57838290600052602060002090600502016040518060a0016040529081600082015481526020016001820160009054906101000a900460ff16600381111561265257612652613efd565b600381111561266357612663613efd565b8152602001600282015481526020016003820154815260200160048201805461268b90614913565b80601f01602080910402602001604051908101604052809291908181526020018280546126b790614913565b80156127045780601f106126d957610100808354040283529160200191612704565b820191906000526020600020905b8154815290600101906020018083116126e757829003601f168201915b50505050508152505081526020019060010190612601565b505050908252506040805160e0810182526006840180546001600160a01b03168252600785015460208381019190915260088601548385015260098601546060840152600a8601805485518184028101840190965280865295820195939492936080860193928301828280156127b157602002820191906000526020600020905b81548152602001906001019080831161279d575b5050505050815260200160058201805480602002602001604051908101604052809291908181526020016000905b828210156128735783829060005260206000209060020201604051806040016040529081600082015481526020016001820180548060200260200160405190810160405280929190818152602001828054801561285b57602002820191906000526020600020905b815481526020019060010190808311612847575b505050505081525050815260200190600101906127df565b50505050815260200160068201805480602002602001604051908101604052809291908181526020016000905b8282101561294c5783829060005260206000200180546128bf90614913565b80601f01602080910402602001604051908101604052809291908181526020018280546128eb90614913565b80156129385780601f1061290d57610100808354040283529160200191612938565b820191906000526020600020905b81548152906001019060200180831161291b57829003601f168201915b5050505050815260200190600101906128a0565b50505091525050905250919050565b61296b636455fb6d60e11b612030565b6129875760405162461bcd60e51b81526004016106f690614ab8565b61299281600161539e565b601683815481106129a5576129a5614947565b6000918252602090912001555050565b600b546040516370a0823160e01b81526000916001600160a01b0316906370a08231906129e6903090600401613f59565b602060405180830381865afa158015612a03573d6000803e3d6000fd5b505050506040513d601f19601f82011682018060405250810190611fcd9190615de2565b60003382604051602001612a3c929190615dfb565b60408051601f1981840301815291815281516020928301206000818152601b909352912054600a8054929350612a94929091908110612a7d57612a7d614947565b906000526020600020906005020160030154610bf9565b6001600160a01b0316336001600160a01b031614612ac45760405162461bcd60e51b81526004016106f690615e18565b6000818152601b6020526040812054600a80549091908110612ae857612ae8614947565b600091825260209091206001600590920201015460ff166003811115612b1057612b10613efd565b14612b465760405162461bcd60e51b81526020600482015260066024820152653737ba1021b160d11b60448201526064016106f6565b6000818152601b6020526040902054600a80549091908110612b6a57612b6a614947565b600091825260208220600590910201805491612b8583614e76565b90915550506000818152601b6020526040902054600a8054612d1192908110612bb057612bb0614947565b906000526020600020906005020160020154336001600160a01b0316633f4fb5aa60058001601860030160008781526020019081526020016000205481548110612bfc57612bfc614947565b90600052602060002090600502016004018054612c1890614913565b80601f0160208091040260200160405190810160405280929190818152602001828054612c4490614913565b8015612c915780601f10612c6657610100808354040283529160200191612c91565b820191906000526020600020905b815481529060010190602001808311612c7457829003601f168201915b5050505050806020019051810190612ca99190615de2565b6040518263ffffffff1660e01b8152600401612cc791815260200190565b600060405180830381865afa158015612ce4573d6000803e3d6000fd5b505050506040513d6000823e601f3d908101601f19168201604052612d0c9190810190615e47565b613452565b6000818152601b602052604081208190556018805491612d3083615eb4565b9091555050604051600080516020615f5883398151915290600090a15050565b6015548111612d995760405162461bcd60e51b8152602060048201526015602482015274736f6c766572206e6f7420646f776e73747265616d60581b60448201526064016106f6565b612da281610bf9565b6001600160a01b0316336001600160a01b031614612dd25760405162461bcd60e51b81526004016106f690615e18565b6000828152601c602052604090205415801590612dfe57506012546000838152601c6020526040902054145b15612e505760405163de3a23c560e01b815260048101839052339063de3a23c590602401600060405180830381600087803b158015612e3c57600080fd5b505af1158015611f45573d6000803e3d6000fd5b6000828152601a60209081526040822080546001810182559083529082200180546001600160a01b031916331790556019805491612e8d83614e76565b91905055505b5050565b63f23a6e6160e01b5b9695505050505050565b612edf6040805160c081018252600080825260208201819052918101829052606080820183905260808201529060a082015290565b60128281548110612ef257612ef2614947565b60009182526020918290206040805160c081018252600690930290910180546001600160a01b031683526001810154838501526002810154838301526003810154606084015260048101805483518187028101870190945280845293949193608086019392830182828015612f8657602002820191906000526020600020905b815481526020019060010190808311612f72575b505050918352505060058281015460209092019160ff1690811115612fad57612fad613efd565b6005811115612fbe57612fbe613efd565b90525092915050565b6001600160a01b03163b151590565b600854612fe490600161539e565b612fee9042615ecb565b6016828154811061300157613001614947565b60009182526020909120015550565b60005b600a54811015613271576000600a80548390811061303357613033614947565b600091825260209091206001600590920201015460ff16600381111561305b5761305b613efd565b146130905761308b60058001828154811061307857613078614947565b906000526020600020906005020161367c565b61325f565b6000306001600160a01b0316633837b05e6005800184815481106130b6576130b6614947565b9060005260206000209060050201600301546040518263ffffffff1660e01b81526004016130e691815260200190565b602060405180830381865afa158015613103573d6000803e3d6000fd5b505050506040513d601f19601f820116820180604052508101906131279190614981565b90506131338183613768565b806001600160a01b031663df33cc5160058001848154811061315757613157614947565b9060005260206000209060050201600401805461317390614913565b80601f016020809104026020016040519081016040528092919081815260200182805461319f90614913565b80156131ec5780601f106131c1576101008083540402835291602001916131ec565b820191906000526020600020905b8154815290600101906020018083116131cf57829003601f168201915b50505050508060200190518101906132049190615de2565b6015546040516001600160e01b031960e085901b16815260048101929092526024820152604401600060405180830381600087803b15801561324557600080fd5b505af1158015613259573d6000803e3d6000fd5b50505050505b8061326981614e76565b915050613013565b50604051600080516020615f5883398151915290600090a1565b600354600090610100900460ff16156132d3578160ff1660011480156132b757506132b530612fc7565b155b6120b65760405162461bcd60e51b81526004016106f690615ee3565b60035460ff8084169116106132fa5760405162461bcd60e51b81526004016106f690615ee3565b506003805460ff191660ff92909216919091179055600190565b60005b81811015611c0857600180600085858581811061333657613336614947565b9050602002810190613348919061537e565b6133569060208101906152f8565b6001600160a01b031681526020810191909152604001600020805460ff191691151591909117905582828281811061339057613390614947565b90506020028101906133a2919061537e565b6133b09060208101906152f8565b6001600160a01b0316633cef64cc8484848181106133d0576133d0614947565b90506020028101906133e2919061537e565b6133f090602081019061543a565b6040518363ffffffff1660e01b815260040161340d929190615f31565b600060405180830381600087803b15801561342757600080fd5b505af115801561343b573d6000803e3d6000fd5b50505050808061344a90614e76565b915050613317565b60125461346190600190614a7f565b6000838152601c6020526040902054146134b45760405162461bcd60e51b815260206004820152601460248201527314db1bdd081d995c9cda5bdb881a5b9d985b1a5960621b60448201526064016106f6565b6000828152601c60209081526040822080546001810182559083529181902083516134e6939190910191840190613c4c565b50612e938261387d565b611c088363a9059cbb60e01b848460405160240161350f92919061499e565b60408051601f198184030181529190526020810180516001600160e01b03166001600160e01b0319909316929092179091526139b7565b6014546001600160a01b0316158015906135d25750601460009054906101000a90046001600160a01b03166001600160a01b031663999925066040518163ffffffff1660e01b8152600401602060405180830381865afa1580156135ae573d6000803e3d6000fd5b505050506040513d601f19601f820116820180604052508101906135d29190614a96565b801561364657506014546040516344c3b60760e01b8152600481018390526001600160a01b03909116906344c3b60790602401602060405180830381865afa158015613622573d6000803e3d6000fd5b505050506040513d601f19601f820116820180604052508101906136469190614a96565b15610bf65760145460405163b992db0f60e01b8152600481018390526001600160a01b039091169063b992db0f906024016111a3565b600181015460039060ff168181111561369757613697613efd565b11156136da5760405162461bcd60e51b8152602060048201526012602482015271496e76616c696420696e676573745479706560701b60448201526064016106f6565b80548160006136e883614e76565b9091555060039050600182015460ff16600381111561370957613709613efd565b14610bf657600281015460405163b3d7370760e01b815260048101839052610bf69190730165878A594ca255338adfa4d48449f69242Eb8F9063b3d7370790602401600060405180830381865af4158015612ce4573d6000803e3d6000fd5b80601860030160008460058001858154811061378657613786614947565b906000526020600020906005020160040180546137a290614913565b80601f01602080910402602001604051908101604052809291908181526020018280546137ce90614913565b801561381b5780601f106137f05761010080835404028352916020019161381b565b820191906000526020600020905b8154815290600101906020018083116137fe57829003601f168201915b50505050508060200190518101906138339190615de2565b604051602001613844929190615dfb565b60408051601f198184030181529181528151602092830120835290820192909252016000908120919091556018805491612e8d83614e76565b60005b6000828152601a6020526040902054811015612e93576000828152601a602052604081208054839081106138b6576138b6614947565b6000918252602090912001546001600160a01b0316146139a5576000828152601a602052604090208054829081106138f0576138f0614947565b60009182526020909120015460405163de3a23c560e01b8152600481018490526001600160a01b039091169063de3a23c590602401600060405180830381600087803b15801561393f57600080fd5b505af1158015613953573d6000803e3d6000fd5b5050506000838152601a6020526040902080549091508290811061397957613979614947565b6000918252602082200180546001600160a01b0319169055601980549161399f83615eb4565b91905055505b806139af81614e76565b915050613880565b6000613a0c826040518060400160405280602081526020017f5361666545524332303a206c6f772d6c6576656c2063616c6c206661696c6564815250856001600160a01b0316613a899092919063ffffffff16565b805190915015611c085780806020019051810190613a2a9190614a96565b611c085760405162461bcd60e51b815260206004820152602a60248201527f5361666545524332303a204552433230206f7065726174696f6e20646964206e6044820152691bdd081cdd58d8d9595960b21b60648201526084016106f6565b6060613a988484600085613aa0565b949350505050565b606082471015613b015760405162461bcd60e51b815260206004820152602660248201527f416464726573733a20696e73756666696369656e742062616c616e636520666f6044820152651c8818d85b1b60d21b60648201526084016106f6565b843b613b4f5760405162461bcd60e51b815260206004820152601d60248201527f416464726573733a2063616c6c20746f206e6f6e2d636f6e747261637400000060448201526064016106f6565b600080866001600160a01b03168587604051613b6b9190615f45565b60006040518083038185875af1925050503d8060008114613ba8576040519150601f19603f3d011682016040523d82523d6000602084013e613bad565b606091505b5091509150613bbd828286613bc8565b979650505050505050565b60608315613bd75750816120af565b825115613be75782518084602001fd5b8160405162461bcd60e51b81526004016106f69190613e14565b828054828255906000526020600020908101928215613c3c579160200282015b82811115613c3c578251825591602001919060010190613c21565b50613c48929150613d60565b5090565b828054613c5890614913565b90600052602060002090601f016020900481019282613c7a5760008555613c3c565b82601f10613c9357805160ff1916838001178555613c3c565b82800160010185558215613c3c5791820182811115613c3c578251825591602001919060010190613c21565b6040518060e0016040528060006001600160a01b0316815260200160006001600160a01b0316815260200160006001600160a01b03168152602001600081526020016060815260200160608152602001613d5b6040518060e0016040528060006001600160a01b031681526020016000815260200160008152602001600080191681526020016060815260200160608152602001606081525090565b905290565b5b80821115613c485760008155600101613d61565b600060208284031215613d8757600080fd5b81356001600160e01b0319811681146120af57600080fd5b600060208284031215613db157600080fd5b5035919050565b60005b83811015613dd3578181015183820152602001613dbb565b83811115613de2576000848401525b50505050565b60008151808452613e00816020860160208601613db8565b601f01601f19169290920160200192915050565b6020815260006120af6020830184613de8565b6001600160a01b0381168114610bf657600080fd5b60008083601f840112613e4e57600080fd5b5081356001600160401b03811115613e6557600080fd5b6020830191508360208260051b8501011115613e8057600080fd5b9250929050565b600080600080600060808688031215613e9f57600080fd5b8535613eaa81613e27565b9450602086013593506040860135925060608601356001600160401b03811115613ed357600080fd5b613edf88828901613e3c565b969995985093965092949392505050565b6001600160a01b03169052565b634e487b7160e01b600052602160045260246000fd5b60068110613f2357613f23613efd565b9052565b6001600160a01b038616815260208101859052604081018490526060810183905260a08101612ea06080830184613f13565b6001600160a01b0391909116815260200190565b8035610d0581613e27565b60008060408385031215613f8b57600080fd5b8235613f9681613e27565b946020939093013593505050565b602081016106118284613f13565b600060e08284031215613fc457600080fd5b50919050565b600060208284031215613fdc57600080fd5b81356001600160401b03811115613ff257600080fd5b613a9884828501613fb2565b6000806000806080858703121561401457600080fd5b843561401f81613e27565b9350602085013561402f81613e27565b92506040850135915060608501356001600160401b0381111561405157600080fd5b61405d87828801613fb2565b91505092959194509250565b600081518084526020808501945080840160005b838110156140995781518752958201959082019060010161407d565b509495945050505050565b600081518084526020808501808196508360051b8101915082860160005b858110156140ec5782840389526140da848351613de8565b988501989350908401906001016140c2565b5091979650505050505050565b60018060a01b0381511682526000602080830151818501526040808401518186015260608085015181870152608085015160e0608088015261413e60e0880182614069565b905060a086015187820360a08901528181518084528684019150868160051b85010187840193506000805b838110156141d157868303601f190185528551805184528a01518a84018a905280518a8501819052908b019083908a8601905b808310156141bc5783518252928d019260019290920191908d019061419c565b50978c0197968c019694505050600101614169565b505060c08a015197508a810360c08c01526141ec81896140a4565b9b9a5050505050505050505050565b6001600160a01b0386811682528581166020830152841660408201526060810183905260a060808201819052600090613bbd908301846140f9565b60018060a01b0381511682526020810151602083015260408101516040830152606081015160608301526000608082015160c0608085015261427b60c0850182614069565b905060a083015161428f60a0860182613f13565b509392505050565b6000602080830181845280855180835260408601915060408160051b870101925083870160005b828110156142ec57603f198886030184526142da858351614236565b945092850192908501906001016142be565b5092979650505050505050565b60008060006040848603121561430e57600080fd5b8335925060208401356001600160401b0381111561432b57600080fd5b61433786828701613e3c565b9497909650939450505050565b634e487b7160e01b600052604160045260246000fd5b60405160c081016001600160401b038111828210171561437c5761437c614344565b60405290565b604051601f8201601f191681016001600160401b03811182821017156143aa576143aa614344565b604052919050565b60006001600160401b038211156143cb576143cb614344565b50601f01601f191660200190565b600080604083850312156143ec57600080fd5b8235915060208301356001600160401b0381111561440957600080fd5b8301601f8101851361441a57600080fd5b803561442d614428826143b2565b614382565b81815286602083850101111561444257600080fd5b816020840160208301376000602083830101528093505050509250929050565b60006001600160401b0382111561447b5761447b614344565b5060051b60200190565b6000806040838503121561449857600080fd5b823591506020808401356001600160401b038111156144b657600080fd5b8401601f810186136144c757600080fd5b80356144d561442882614462565b81815260059190911b820183019083810190888311156144f457600080fd5b928401925b82841015614512578335825292840192908401906144f9565b80955050505050509250929050565b60008060006060848603121561453657600080fd5b833561454181613e27565b9250602084013561455181613e27565b929592945050506040919091013590565b60008083601f84011261457457600080fd5b5081356001600160401b0381111561458b57600080fd5b602083019150836020828501011115613e8057600080fd5b60008060008060008060008060a0898b0312156145bf57600080fd5b88356145ca81613e27565b975060208901356145da81613e27565b965060408901356001600160401b03808211156145f657600080fd5b6146028c838d01613e3c565b909850965060608b013591508082111561461b57600080fd5b6146278c838d01613e3c565b909650945060808b013591508082111561464057600080fd5b5061464d8b828c01614562565b999c989b5096995094979396929594505050565b6001600160e01b031991909116815260200190565b6000602080830181845280855180835260408601915060408160051b870101925083870160005b828110156142ec57603f198886030184526146b9858351613de8565b9450928501929085019060010161469d565b600081518084526020808501808196508360051b8101915082860160005b858110156140ec578284038952815180516001600160a01b03168552850151604086860181905261471c81870183613de8565b9a87019a95505050908401906001016146e9565b60048110613f2357613f23613efd565b600081518084526020808501808196508360051b8101915082860160005b858110156140ec578284038952815160a0815186528682015161478388880182614730565b5060408281015190870152606080830151908701526080918201519186018190526147b081870183613de8565b9a87019a955050509084019060010161475e565b60208152600060018060a01b038084511660208401528060208501511660408401525060408301516147f96060840182613ef0565b5060608301516080830152608083015160e060a084015261481e6101008401826146cb565b905060a0840151601f19808584030160c086015261483c8383614740565b925060c08601519150808584030160e08601525061485a82826140f9565b95945050505050565b6000806040838503121561487657600080fd5b50508035926020909101359150565b60008060008060008060a0878903121561489e57600080fd5b86356148a981613e27565b955060208701356148b981613e27565b9450604087013593506060870135925060808701356001600160401b038111156148e257600080fd5b6148ee89828a01614562565b979a9699509497509295939492505050565b6020815260006120af6020830184614236565b600181811c9082168061492757607f821691505b602082108103613fc457634e487b7160e01b600052602260045260246000fd5b634e487b7160e01b600052603260045260246000fd5b6020808252600a9082015269151a5b595b1bd8dad95960b21b604082015260600190565b60006020828403121561499357600080fd5b81516120af81613e27565b6001600160a01b03929092168252602082015260400190565b6020808252600b908201526a27b7363c9025b2b2b832b960a91b604082015260600190565b81835260006001600160fb1b038311156149f557600080fd5b8260051b8083602087013760009401602001938452509192915050565b60018060a01b0386168152846020820152836040820152608060608201526000613bbd6080830184866149dc565b6020808252600f908201526e27b7363c9030b93134ba3930ba37b960891b604082015260600190565b634e487b7160e01b600052601160045260246000fd5b600082821015614a9157614a91614a69565b500390565b600060208284031215614aa857600080fd5b815180151581146120af57600080fd5b6020808252600d908201526c139bdd081c195c9b5a5d1d1959609a1b604082015260600190565b60009081526020902090565b6000815480845260208085019450836000528060002060005b8381101561409957815487529582019560019182019101614b04565b600081548084526020808501808196508360051b810191506000868152838120815b86811015614bae578385038a52815485526040868601819052600180840180549288018390528552878520606088019290919086905b80821015614b955783548552938a01939282019290820190614b78565b5050509a87019a50945060029190910190600101614b42565b509298975050505050505050565b60008154614bc981614913565b808552602060018381168015614be65760018114614bfa57614c28565b60ff19851688840152604088019550614c28565b866000528260002060005b85811015614c205781548a8201860152908301908401614c05565b890184019650505b505050505092915050565b600081548084526020808501808196508360051b81019150856000528260002060005b858110156140ec578284038952614c6d8483614bbc565b98850198935060019182019101614c56565b600060018060a01b03808716835260806020840152614ca46080840182885416613ef0565b50600185015460a0830152600285015460c0830152600385015460e083015260e0610100830152614cdc610160830160048701614aeb565b607f198084830301610120850152614cf78260058901614b20565b9150808483030161014085015250614d128160068801614c33565b915050614d226040830185613ef0565b82606083015295945050505050565b805160068110610d0557600080fd5b60006020808385031215614d5357600080fd5b82516001600160401b0380821115614d6a57600080fd5b9084019060c08287031215614d7e57600080fd5b614d8661435a565b8251614d9181613e27565b8082525083830151848201526040830151604082015260608301516060820152608083015182811115614dc357600080fd5b83019150601f82018713614dd657600080fd5b8151614de461442882614462565b81815260059190911b83018501908581019089831115614e0357600080fd5b938601935b82851015614e2157845182529386019390860190614e08565b608084015250614e35905060a08401614d31565b60a08201529695505050505050565b602080825260189082015277139bdd08105c989a5d1c985d1a5bdb94995c5d595cdd195960421b604082015260600190565b600060018201614e8857614e88614a69565b5060010190565b6000808335601e19843603018112614ea657600080fd5b83016020810192503590506001600160401b03811115614ec557600080fd5b8060051b3603821315613e8057600080fd5b6000808335601e19843603018112614eee57600080fd5b83016020810192503590506001600160401b03811115614f0d57600080fd5b803603821315613e8057600080fd5b81835281816020850137506000828201602090810191909152601f909101601f19169091010190565b60008235603e19833603018112614f5b57600080fd5b90910192915050565b81835260006020808501808196508560051b810191508460005b878110156140ec578284038952614f958288614f45565b60408135614fa281613e27565b6001600160a01b03168652614fb982880183614ed7565b92508188880152614fcd8288018483614f1c565b9b88019b965050509185019150600101614f7e565b60048110610bf657600080fd5b81835260006020808501808196508560051b81019150846000805b88811015614bae578385038a528235609e1989360301811261502a578283fd5b88018035865260a08782013561503f81614fe2565b61504b89890182614730565b506040828101359088015260608083013590880152608061506e81840184614ed7565b935082828a0152615082838a018583614f1c565b9d8a019d9850505093870193505060010161500a565b6000823560de19833603018112614f5b57600080fd5b81835260006020808501808196508560051b810191508460005b878110156140ec5782840389526150df8288614ed7565b6150ea868284614f1c565b9a87019a95505050908401906001016150c8565b6000813561510b81613e27565b6001600160a01b031683526020828101358185015260408084013581860152606080850135908601526151416080850185614e8f565b60e0608088015261515660e0880182846149dc565b91505061516660a0860186614e8f565b87830360a0890152808352848301600582901b840186018360005b848110156151d457868303601f1901845261519c8287614f45565b803584526151ac8a820182614e8f565b9150898b8601526151c08a860183836149dc565b958b01959450505090880190600101615181565b50506151e360c08a018a614e8f565b9750955089810360c08b01526151fa8188886150ae565b9a9950505050505050505050565b6001600160a01b03858116825260806020830152600090853561522a81613e27565b16608083015261523c60208601613f6d565b61524960a0840182613ef0565b5061525660408601613f6d565b61526360c0840182613ef0565b50606085013560e083015261527b6080860186614e8f565b60e061010085015261529261016085018284614f64565b9150506152a260a0870187614e8f565b607f1980868503016101208701526152bb848385614fef565b93506152ca60c08a018a615098565b9250808685030161014087015250506152e382826150fe565b60408501969096525050506060015292915050565b60006020828403121561530a57600080fd5b81356120af81613e27565b80546001600160a01b0319166001600160a01b0392909216919091179055565b6000808335601e1984360301811261534c57600080fd5b8301803591506001600160401b0382111561536657600080fd5b6020019150600581901b3603821315613e8057600080fd5b60008235603e1983360301811261539457600080fd5b9190910192915050565b60008160001904831182151516156153b8576153b8614a69565b500290565b5b81811015612e9357600081556001016153be565b600019600383901b1c191660019190911b1790565b6153f18154614913565b8015612e9357601f81116001811461540b57505060009055565b826000526020600020615429601f840160051c8201600183016153bd565b506020600090812081855555505050565b6000808335601e1984360301811261545157600080fd5b8301803591506001600160401b0382111561546b57600080fd5b602001915036819003821315613e8057600080fd5b601f821115611c0857806000526020600020601f840160051c810160208510156154a75750805b6108ec601f850160051c8301826153bd565b6001600160401b038311156154d0576154d0614344565b6154e4836154de8354614913565b83615480565b6000601f84116001811461551257600085156155005750838201355b61550a86826153d2565b8455506108ec565b601f19851661552084614adf565b835b828110156155425786850135825560209485019460019092019101615522565b508682101561555f5760001960f88860031b161c19848701351681555b505060018560011b0183555050505050565b813561557c81613e27565b6155868183615315565b506001808201602061559a8186018661543a565b6001600160401b038111156155b1576155b1614344565b6155c5816155bf8654614913565b86615480565b6000601f8211600181146155f357600083156155e15750838201355b6155eb84826153d2565b875550610a0b565b601f19831661560187614adf565b835b828110156156205786850135825593870193908901908701615603565b508482101561563d5760001960f88660031b161c19848701351681555b50505050841b90930190915550505050565b60008235609e1983360301811261539457600080fd5b8135815560018101602083013561567b81614fe2565b6004811061568b5761568b613efd565b60ff1982541660ff82168117835550505060408201356002820155606082013560038201556156bd608083018361543a565b613de28183600486016154b9565b600160401b8311156156df576156df614344565b805483825580841015615783577f3333333333333333333333333333333333333333333333333333333333333333600181831181161561572157615721614a69565b600582871182161561573557615735614a69565b600085815260208120909350878202810190828602015b8082101561577d578482558484830155846002830155846003830155615774600483016153e7565b9082019061574c565b50505050505b508161578e82614adf565b60005b85811015611f45576157ac6157a6848761564f565b83615665565b6020929092019160059190910190600101615791565b6000823560de1983360301811261539457600080fd5b805460008083558115611c0857828152602081208281015b808210156108ec578282556001820191506157f0565b813581556001808201602061581d81860186615335565b600160401b81111561583157615831614344565b8354818555808210156158655760008581528481208381019083015b80821015615861578282559088019061584d565b5050505b506000938452828420935b8181101561588b578235855593850193918301918501615870565b5050505050505050565b600160401b8311156158a9576158a9614344565b805483825580841015615921576001600160ff1b0360018183118116156158d2576158d2614a69565b8186118116156158e4576158e4614a69565b60008481526020812090925086821b81019084831b015b8082101561591c578382556159118383016157d8565b6002820191506158fb565b505050505b508161592c82614adf565b60005b85811015611f455761594a615944848761537e565b83615806565b602092909201916002919091019060010161592f565b600160401b83111561597457615974614344565b8054838255808410156159fd576000828152602081208581019083015b808210156159f9576159a38254614913565b80156159ed57601f808211600181146159be578585556159ea565b6159c785614adf565b6159db83850160051c8201600183016153bd565b50600085815260208120818755555b50505b50600182019150615991565b5050505b5081615a0882614adf565b60005b85811015611f4557615a1d838661543a565b615a288183866154b9565b50506020929092019160019182019101615a0b565b8135615a4881613e27565b615a528183615315565b50600160208084013582840155604084013560028401556060840135600384015560048301615a846080860186615335565b600160401b811115615a9857615a98614344565b825481845580821015615abd578360005284600020615abb8282018483016153bd565b505b506000928352838320925b81811015615ae3578235845592850192918401918501615ac8565b505050505050615af660a0830183615335565b615b04818360058601615895565b5050615b1360c0830183615335565b613de2818360068601615960565b8135615b2c81613e27565b615b368183615315565b506001602080840135615b4881613e27565b615b5481848601615315565b5060026040850135615b6581613e27565b615b7181838701615315565b506060850135600385015560048401615b8d6080870187615335565b600160401b811115615ba157615ba1614344565b825481845580821015615c11576001600160ff1b03808211881615615bc857615bc8614a69565b808311881615615bda57615bda614a69565b50600084815286812083891b810190838a1b015b80821015615c0d57828255615c048a83016153e7565b90870190615bee565b5050505b5081615c1c84614adf565b935060005b82811015615c4b57615c3c615c36838661537e565b86615571565b93850193908601908701615c21565b5050505050505050615c6060a0830183615335565b615c6e8183600586016156cb565b5050612e93615c8060c08401846157c2565b60068301615a3d565b6020808252601e908201527f6c656e677468206d757374206d61746368206f7574636f6d65536c6f74730000604082015260600190565b83815260406020820152600061485a6040830184866149dc565b6001600160a01b038416815260208082018490526060604083018190528351908301819052600091848101916080850190845b81811015615d2957845183529383019391830191600101615d0d565b509098975050505050505050565b6000604080830181845280865480835260609250828601915060058382821b8801018960005260208060002060005b85811015615dcc57605f198b850301875260a08254855260ff600184015416615d9185870182614730565b5060028301548a860152600383015489860152806080860152615db981860160048501614bbc565b9784019794505090840190600101615d66565b5050979097019790975250939695505050505050565b600060208284031215615df457600080fd5b5051919050565b60609290921b6001600160601b0319168252601482015260340190565b60208082526015908201527436b9b39739b2b73232b9103737ba1039b7b63b32b960591b604082015260600190565b600060208284031215615e5957600080fd5b81516001600160401b03811115615e6f57600080fd5b8201601f81018413615e8057600080fd5b8051615e8e614428826143b2565b818152856020838501011115615ea357600080fd5b61485a826020830160208601613db8565b600081615ec357615ec3614a69565b506000190190565b60008219821115615ede57615ede614a69565b500190565b6020808252602e908201527f496e697469616c697a61626c653a20636f6e747261637420697320616c72656160408201526d191e481a5b9a5d1a585b1a5e995960921b606082015260800190565b602081526000613a98602083018486614f1c565b60008251615394818460208701613db856fe71bd81ebe1d98a2944767394e76a9aff18724b2cf04e1db71254f804544b35c7a26469706673582212204beb689508c1525032bd70b3bb261a3151416fd3c88d85519688ac84d966ecb164736f6c634300080e0033",
  "deployedBytecode": "0x608060405234801561001057600080fd5b506004361061020f5760003560e01c806301ffc9a71461021457806309648a9d1461023c5780630d06101a1461025c5780630d7e149f146102715780630d8d39751461029257806318782559146102a557806326c50007146102b857806331402a57146102dc5780633837b05e146102ef5780633f4fb5aa1461030f57806344c3b6071461032257806348cbb2fc146103355780634a77234e1461033e5780634e46f22314610351578063506da0b81461036457806354f6127f1461037757806355dd978b1461038a5780635c622a0e1461039d5780636463845b146103bd5780636577cbd3146103d05780636cc6cde1146103e357806379502c55146103f45780637c1236271461040d57806380b204b71461042257806380c2dde21461043557806381296f6f146104485780638602ce1b1461045b57806387dfee571461046e57806399992506146104815780639db5dbe414610489578063a272ebcf1461049c578063aced1661146104af578063b992db0f146104c0578063bc197c81146104d3578063c08d6f0114610502578063c3f909d414610522578063c8abf6da14610537578063c98c05b71461054a578063d4fe6a4c14610552578063de3a23c51461056b578063df33cc511461057e578063ea8221a914610591578063efdee94f1461059a578063f23a6e61146105ad578063f24fc903146105c0575b600080fd5b610227610222366004613d75565b6105e0565b60405190151581526020015b60405180910390f35b61024f61024a366004613d9f565b610617565b6040516102339190613e14565b61026f61026a366004613d9f565b6106b9565b005b61028461027f366004613d9f565b61071b565b604051908152602001610233565b61026f6102a0366004613d9f565b61073c565b61026f6102b3366004613e87565b6108f3565b6102cb6102c6366004613d9f565b610a16565b604051610233959493929190613f27565b61026f6102ea366004613d9f565b610a64565b6103026102fd366004613d9f565b610bf9565b6040516102339190613f59565b61024f61031d366004613d9f565b610d0a565b610227610330366004613d9f565b610da1565b61028460175481565b61026f61034c366004613d9f565b610e26565b61026f61035f366004613d9f565b6111d1565b610227610372366004613f78565b611298565b61024f610385366004613d9f565b6113dd565b601454610302906001600160a01b031681565b6103b06103ab366004613d9f565b6113fd565b6040516102339190613fa4565b6103026103cb366004613fca565b61142f565b61026f6103de366004613ffe565b61158d565b6007546001600160a01b0316610302565b6103fc611740565b6040516102339594939291906141fb565b610415611987565b6040516102339190614297565b61026f6104303660046142f9565b611a9a565b601354610302906001600160a01b031681565b61026f6104563660046143d9565b611c0d565b61026f6104693660046143d9565b611c58565b61026f61047c366004614485565b611d50565b610227611f4d565b61026f610497366004614521565b611fd2565b6102276104aa366004613d75565b612030565b6006546001600160a01b0316610302565b61026f6104ce366004613d9f565b6120be565b6104f56104e13660046145a3565b63bc197c8160e01b98975050505050505050565b6040516102339190614661565b610515610510366004613d9f565b6123b0565b6040516102339190614676565b61052a612495565b60405161023391906147c4565b61026f610545366004614863565b61295b565b6102846129b5565b600354610302906201000090046001600160a01b031681565b61026f610579366004613d9f565b612a27565b61026f61058c366004614863565b612d50565b61028460155481565b600454610302906001600160a01b031681565b6104f56105bb366004614885565b612e97565b6105d36105ce366004613d9f565b612eaa565b6040516102339190614900565b60006001600160e01b03198216630271189760e51b148061061157506301ffc9a760e01b6001600160e01b03198316145b92915050565b600081815260026020526040902080546060919061063490614913565b80601f016020809104026020016040519081016040528092919081815260200182805461066090614913565b80156106ad5780601f10610682576101008083540402835291602001916106ad565b820191906000526020600020905b81548152906001019060200180831161069057829003601f168201915b50505050509050919050565b601754156106ff5760405162461bcd60e51b815260206004820152600e60248201526d151c9858dada5b99d259081cd95d60921b60448201526064015b60405180910390fd5b6004546001600160a01b0316331461071657600080fd5b601755565b6016818154811061072b57600080fd5b600091825260209091200154905081565b6016818154811061074f5761074f614947565b906000526020600020015442116107785760405162461bcd60e51b81526004016106f69061495d565b60026012828154811061078d5761078d614947565b60009182526020909120600560069092020181015460ff16908111156107b5576107b5613efd565b146107f15760405162461bcd60e51b815260206004820152600c60248201526b139bdd081c1c9bdc1bdcd95960a21b60448201526064016106f6565b73__$3ec311f63f1cd166364ee887ad77eb9bd8$__6385c92867600360029054906101000a90046001600160a01b03166001600160a01b03166322a9339f6040518163ffffffff1660e01b8152600401602060405180830381865afa15801561085e573d6000803e3d6000fd5b505050506040513d601f19601f820116820180604052508101906108829190614981565b6012848154811061089557610895614947565b90600052602060002090600602016040518363ffffffff1660e01b81526004016108c092919061499e565b60006040518083038186803b1580156108d857600080fd5b505af41580156108ec573d6000803e3d6000fd5b5050505050565b6006546001600160a01b03163314806109175750610917631878255960e01b612030565b6109335760405162461bcd60e51b81526004016106f6906149b7565b600360029054906101000a90046001600160a01b03166001600160a01b03166322a9339f6040518163ffffffff1660e01b8152600401602060405180830381865afa158015610986573d6000803e3d6000fd5b505050506040513d601f19601f820116820180604052508101906109aa9190614981565b6001600160a01b03166301b7037c86868686866040518663ffffffff1660e01b81526004016109dd959493929190614a12565b600060405180830381600087803b1580156109f757600080fd5b505af1158015610a0b573d6000803e3d6000fd5b505050505050505050565b60128181548110610a2657600080fd5b6000918252602090912060069091020180546001820154600283015460038401546005909401546001600160a01b0390931694509092909160ff1685565b6007546001600160a01b0316331480610a885750610a886331402a5760e01b612030565b610aa45760405162461bcd60e51b81526004016106f690614a40565b600260128281548110610ab957610ab9614947565b60009182526020909120600560069092020181015460ff1690811115610ae157610ae1613efd565b1480610b275750600360128281548110610afd57610afd614947565b60009182526020909120600560069092020181015460ff1690811115610b2557610b25613efd565b145b610b645760405162461bcd60e51b815260206004820152600e60248201526d10d85b9b9bdd081c995c5d595cdd60921b60448201526064016106f6565b73__$3ec311f63f1cd166364ee887ad77eb9bd8$__633bdce6e660128381548110610b9157610b91614947565b90600052602060002090600602016040518263ffffffff1660e01b8152600401610bbd91815260200190565b60006040518083038186803b158015610bd557600080fd5b505af4158015610be9573d6000803e3d6000fd5b50505050610bf681612fd6565b50565b60006015548203610c0b575030919050565b601554821015610c9a576013546001600160a01b0316610c2d57506000919050565b601354604051631c1bd82f60e11b8152600481018490526001600160a01b0390911690633837b05e90602401602060405180830381865afa158015610c76573d6000803e3d6000fd5b505050506040513d601f19601f820116820180604052508101906106119190614981565b601554821115610d05576014546001600160a01b0316610cbc57506000919050565b601454604051631c1bd82f60e11b8152600481018490526001600160a01b0390911690633837b05e90602401602060405180830381865afa158015610c76573d6000803e3d6000fd5b919050565b6012546000828152601c602052604090205460609114610d605760405162461bcd60e51b815260206004820152601160248201527029b637ba1034b73b30b634b2103b32b91760791b60448201526064016106f6565b6000828152601c602052604090208054610d7c90600190614a7f565b81548110610d8c57610d8c614947565b90600052602060002001805461063490614913565b6040516336d39c6160e11b815260048101829052601c6024820152600b604482015260009073__$3ec311f63f1cd166364ee887ad77eb9bd8$__90636da738c290606401602060405180830381865af4158015610e02573d6000803e3d6000fd5b505050506040513d601f19601f820116820180604052508101906106119190614a96565b60125415610e83576006546001600160a01b0316331480610e5157506013546001600160a01b031633145b80610e675750610e6763253b91a760e11b612030565b610e835760405162461bcd60e51b81526004016106f690614ab8565b6012548114610ec45760405162461bcd60e51b815260206004820152600d60248201526c092dcecc2d8d2c840d2dcc8caf609b1b60448201526064016106f6565b60195415610f035760405162461bcd60e51b815260206004820152600c60248201526b6f7574676f696e672063627360a01b60448201526064016106f6565b60185415610f425760405162461bcd60e51b815260206004820152600c60248201526b696e636f6d696e672063627360a01b60448201526064016106f6565b601273__$3ec311f63f1cd166364ee887ad77eb9bd8$__63699e0add600360029054906101000a90046001600160a01b03166001600160a01b03166322a9339f6040518163ffffffff1660e01b8152600401602060405180830381865afa158015610fb1573d6000803e3d6000fd5b505050506040513d601f19601f82011682018060405250810190610fd59190614981565b6013546012546040516001600160e01b031960e086901b16815261100b9392600b926001600160a01b0390911691600401614c7f565b600060405180830381865af4158015611028573d6000803e3d6000fd5b505050506040513d6000823e601f3d908101601f191682016040526110509190810190614d40565b8154600180820184556000938452602093849020835160069093020180546001600160a01b0319166001600160a01b039093169290921782558284015190820155604082015160028201556060820151600382015560808201518051929391926110c09260048501920190613c01565b5060a08201518160050160006101000a81548160ff021916908360058111156110eb576110eb613efd565b0217905550506016805460018101825560009182527fd833147d7dc355ba459fc788f669e58cfaf9dc25ddcd0702e87d69c7b512428901555061112c613010565b7f152ec8ae15d347b2d2a8f0858caa29bcaaa0906749a1f43e08bfe79983460240308260405161115d92919061499e565b60405180910390a16014546001600160a01b031615610bf65760145460405163253b91a760e11b8152600481018390526001600160a01b0390911690634a77234e906024015b600060405180830381600087803b1580156111bd57600080fd5b505af11580156108ec573d6000803e3d6000fd5b6007546001600160a01b03163314806111f557506111f5634e46f22360e01b612030565b6112115760405162461bcd60e51b81526004016106f690614a40565b60036012828154811061122657611226614947565b60009182526020909120600560069092020181015460ff169081111561124e5761124e613efd565b1461126b5760405162461bcd60e51b81526004016106f690614e44565b73__$3ec311f63f1cd166364ee887ad77eb9bd8$__6359111fb560128381548110610b9157610b91614947565b6000805b6010548110156113d35760108054600091601c91839190859081106112c3576112c3614947565b906000526020600020906002020160000154815260200190815260200160002084815481106112f4576112f4614947565b90600052602060002001805461130990614913565b80601f016020809104026020016040519081016040528092919081815260200182805461133590614913565b80156113825780601f1061135757610100808354040283529160200191611382565b820191906000526020600020905b81548152906001019060200180831161136557829003601f168201915b505050505080602001905181019061139a9190614981565b9050806001600160a01b0316856001600160a01b0316036113c057600192505050610611565b50806113cb81614e76565b91505061129c565b5060009392505050565b6000818152601c60205260409020805460609190610d7c90600190614a7f565b60006012828154811061141257611412614947565b600091825260209091206005600690920201015460ff1692915050565b6006546000906001600160a01b03163314806114565750611456636463845b60e01b612030565b6114905760405162461bcd60e51b815260206004820152600b60248201526a27b7363c9035b2b2b832b960a91b60448201526064016106f6565b6014546001600160a01b0316156114d55760405162461bcd60e51b815260206004820152600960248201526812185cc818da1a5b1960ba1b60448201526064016106f6565b6003546015546017546040516302949eed60e61b815273__$3ec311f63f1cd166364ee887ad77eb9bd8$__9363a527bb409361152793620100009092046001600160a01b031692889290600401615208565b602060405180830381865af4158015611544573d6000803e3d6000fd5b505050506040513d601f19601f820116820180604052508101906115689190614981565b601480546001600160a01b0319166001600160a01b0392909216918217905592915050565b6000611599600161328b565b905080156115b1576003805461ff0019166101001790555b60006115c360408401602085016152f8565b6001600160a01b03160361160a5760405162461bcd60e51b815260206004820152600e60248201526d12d9595c195c881a5b9d985b1a5960921b60448201526064016106f6565b600480546001600160a01b038088166001600160a01b0319928316179092556003805462010000330262010000600160b01b0319909116179055601380549287169290911691909117905560158390558160056116678282615b21565b90505060005b61167a60a0840184615335565b90508110156116de5780601d600061169560a0870187615335565b858181106116a5576116a5614947565b90506020028101906116b7919061564f565b604090810135825260208201929092520160002055806116d681614e76565b91505061166d565b506116f46116ef6080840184615335565b613314565b80156108ec576003805461ff0019169055604051600181527f7f26b83ff96e1f2b6a682f133852f6798a09c465da95921460cefb38474024989060200160405180910390a15050505050565b600580546006546007546008546040805160e081018252600b80546001600160a01b039081168352600c54602080850191909152600d5484860152600e546060850152600f80548651818402810184019097528087529983169a988316999790921697959693949293608086019392918301828280156117df57602002820191906000526020600020905b8154815260200190600101908083116117cb575b5050505050815260200160058201805480602002602001604051908101604052809291908181526020016000905b828210156118a15783829060005260206000209060020201604051806040016040529081600082015481526020016001820180548060200260200160405190810160405280929190818152602001828054801561188957602002820191906000526020600020905b815481526020019060010190808311611875575b5050505050815250508152602001906001019061180d565b50505050815260200160068201805480602002602001604051908101604052809291908181526020016000905b8282101561197a5783829060005260206000200180546118ed90614913565b80601f016020809104026020016040519081016040528092919081815260200182805461191990614913565b80156119665780601f1061193b57610100808354040283529160200191611966565b820191906000526020600020905b81548152906001019060200180831161194957829003601f168201915b5050505050815260200190600101906118ce565b5050505081525050905085565b60606012805480602002602001604051908101604052809291908181526020016000905b82821015611a915760008481526020908190206040805160c0810182526006860290920180546001600160a01b031683526001810154838501526002810154838301526003810154606084015260048101805483518187028101870190945280845293949193608086019392830182828015611a4657602002820191906000526020600020905b815481526020019060010190808311611a32575b505050918352505060058281015460209092019160ff1690811115611a6d57611a6d613efd565b6005811115611a7e57611a7e613efd565b81525050815260200190600101906119ab565b50505050905090565b6006546001600160a01b0316331480611abe5750611abe6380b204b760e01b612030565b611ada5760405162461bcd60e51b81526004016106f6906149b7565b600c548114611afb5760405162461bcd60e51b81526004016106f690615c89565b600160128481548110611b1057611b10614947565b60009182526020909120600560069092020181015460ff1690811115611b3857611b38613efd565b14611b745760405162461bcd60e51b815260206004820152600c60248201526b139bdd08115e1958dd5d195960a21b60448201526064016106f6565b73__$3ec311f63f1cd166364ee887ad77eb9bd8$__636a0a24f160128581548110611ba157611ba1614947565b906000526020600020906006020184846040518463ffffffff1660e01b8152600401611bcf93929190615cc0565b60006040518083038186803b158015611be757600080fd5b505af4158015611bfb573d6000803e3d6000fd5b50505050611c0883612fd6565b505050565b611c1d6381296f6f60e01b612030565b611c395760405162461bcd60e51b81526004016106f690614ab8565b60008281526002602090815260409091208251611c0892840190613c4c565b6006546001600160a01b0316331480611c7c5750611c7c638602ce1b60e01b612030565b611c985760405162461bcd60e51b81526004016106f6906149b7565b6000828152601d6020526040902054600a8054600392908110611cbd57611cbd614947565b600091825260209091206001600590920201015460ff166003811115611ce557611ce5613efd565b14611d2b5760405162461bcd60e51b81526020600482015260166024820152751bdb9b1e48125b99d95cdd151e5c194b93585b9d585b60521b60448201526064016106f6565b611d358282613452565b604051600080516020615f5883398151915290600090a15050565b6007546001600160a01b0316331480611d745750611d746387dfee5760e01b612030565b611d905760405162461bcd60e51b81526004016106f690614a40565b600360128381548110611da557611da5614947565b60009182526020909120600560069092020181015460ff1690811115611dcd57611dcd613efd565b14611dea5760405162461bcd60e51b81526004016106f690614e44565b60168281548110611dfd57611dfd614947565b90600052602060002001544211611e265760405162461bcd60e51b81526004016106f69061495d565b600c54815114611e485760405162461bcd60e51b81526004016106f690615c89565b73__$3ec311f63f1cd166364ee887ad77eb9bd8$__631b948e49600360029054906101000a90046001600160a01b03166001600160a01b03166322a9339f6040518163ffffffff1660e01b8152600401602060405180830381865afa158015611eb5573d6000803e3d6000fd5b505050506040513d601f19601f82011682018060405250810190611ed99190614981565b60128581548110611eec57611eec614947565b9060005260206000209060060201846040518463ffffffff1660e01b8152600401611f1993929190615cda565b60006040518083038186803b158015611f3157600080fd5b505af4158015611f45573d6000803e3d6000fd5b505050505050565b601254604051635cc1f6b560e01b815260009173__$3ec311f63f1cd166364ee887ad77eb9bd8$__91635cc1f6b591611f8c91600a9190600401615d37565b602060405180830381865af4158015611fa9573d6000803e3d6000fd5b505050506040513d601f19601f82011682018060405250810190611fcd9190614a96565b905090565b611fe263276d76f960e21b612030565b61201c5760405162461bcd60e51b815260206004820152600b60248201526a4f6e6c79206d6f64756c6560a81b60448201526064016106f6565b611c086001600160a01b03841683836134f0565b3360009081526001602052604081205460ff16156120b6576040516311247ecf60e11b81526000903390632248fd9e9061206e908690600401614661565b602060405180830381865afa15801561208b573d6000803e3d6000fd5b505050506040513d601f19601f820116820180604052508101906120af9190614a96565b9392505050565b506000919050565b6120c6611f4d565b15156001146121095760405162461bcd60e51b815260206004820152600f60248201526e1a5b99d95cdd1cc81a5b9d985b1a59608a1b60448201526064016106f6565b73__$3ec311f63f1cd166364ee887ad77eb9bd8$__63c7def1de82600360029054906101000a90046001600160a01b03166001600160a01b03166322a9339f6040518163ffffffff1660e01b8152600401602060405180830381865afa158015612177573d6000803e3d6000fd5b505050506040513d601f19601f8201168201806040525081019061219b9190614981565b600360029054906101000a90046001600160a01b03166001600160a01b03166396d466376040518163ffffffff1660e01b8152600401602060405180830381865afa1580156121ee573d6000803e3d6000fd5b505050506040513d601f19601f820116820180604052508101906122129190614981565b6012868154811061222557612225614947565b60009182526020808320601754601354600e548652601c9384905260409095208054600690950290920194600b9491926001600160a01b03909116918c90811061227157612271614947565b90600052602060002001805461228690614913565b80601f01602080910402602001604051908101604052809291908181526020018280546122b290614913565b80156122ff5780601f106122d4576101008083540402835291602001916122ff565b820191906000526020600020905b8154815290600101906020018083116122e257829003601f168201915b50505050508060200190518101906123179190615de2565b60405160e08b901b6001600160e01b031916815260048101999099526001600160a01b0397881660248a015295871660448901526064880194909452608487019290925260a486015260c485015290911660e48301526101048201526101240160006040518083038186803b15801561238f57600080fd5b505af41580156123a3573d6000803e3d6000fd5b50505050610bf681613546565b6000818152601c60209081526040808320805482518185028101850190935280835260609492939192909184015b8282101561248a5783829060005260206000200180546123fd90614913565b80601f016020809104026020016040519081016040528092919081815260200182805461242990614913565b80156124765780601f1061244b57610100808354040283529160200191612476565b820191906000526020600020905b81548152906001019060200180831161245957829003601f168201915b5050505050815260200190600101906123de565b505050509050919050565b61249d613cbf565b6040805160e081018252600580546001600160a01b0390811683526006548116602080850191909152600754909116838501526008546060840152600980548551818402810184019096528086529394929360808601939260009084015b828210156125d4576000848152602090819020604080518082019091526002850290910180546001600160a01b03168252600181018054929391929184019161254390614913565b80601f016020809104026020016040519081016040528092919081815260200182805461256f90614913565b80156125bc5780601f10612591576101008083540402835291602001916125bc565b820191906000526020600020905b81548152906001019060200180831161259f57829003601f168201915b505050505081525050815260200190600101906124fb565b50505050815260200160058201805480602002602001604051908101604052809291908181526020016000905b8282101561271c57838290600052602060002090600502016040518060a0016040529081600082015481526020016001820160009054906101000a900460ff16600381111561265257612652613efd565b600381111561266357612663613efd565b8152602001600282015481526020016003820154815260200160048201805461268b90614913565b80601f01602080910402602001604051908101604052809291908181526020018280546126b790614913565b80156127045780601f106126d957610100808354040283529160200191612704565b820191906000526020600020905b8154815290600101906020018083116126e757829003601f168201915b50505050508152505081526020019060010190612601565b505050908252506040805160e0810182526006840180546001600160a01b03168252600785015460208381019190915260088601548385015260098601546060840152600a8601805485518184028101840190965280865295820195939492936080860193928301828280156127b157602002820191906000526020600020905b81548152602001906001019080831161279d575b5050505050815260200160058201805480602002602001604051908101604052809291908181526020016000905b828210156128735783829060005260206000209060020201604051806040016040529081600082015481526020016001820180548060200260200160405190810160405280929190818152602001828054801561285b57602002820191906000526020600020905b815481526020019060010190808311612847575b505050505081525050815260200190600101906127df565b50505050815260200160068201805480602002602001604051908101604052809291908181526020016000905b8282101561294c5783829060005260206000200180546128bf90614913565b80601f01602080910402602001604051908101604052809291908181526020018280546128eb90614913565b80156129385780601f1061290d57610100808354040283529160200191612938565b820191906000526020600020905b81548152906001019060200180831161291b57829003601f168201915b5050505050815260200190600101906128a0565b50505091525050905250919050565b61296b636455fb6d60e11b612030565b6129875760405162461bcd60e51b81526004016106f690614ab8565b61299281600161539e565b601683815481106129a5576129a5614947565b6000918252602090912001555050565b600b546040516370a0823160e01b81526000916001600160a01b0316906370a08231906129e6903090600401613f59565b602060405180830381865afa158015612a03573d6000803e3d6000fd5b505050506040513d601f19601f82011682018060405250810190611fcd9190615de2565b60003382604051602001612a3c929190615dfb565b60408051601f1981840301815291815281516020928301206000818152601b909352912054600a8054929350612a94929091908110612a7d57612a7d614947565b906000526020600020906005020160030154610bf9565b6001600160a01b0316336001600160a01b031614612ac45760405162461bcd60e51b81526004016106f690615e18565b6000818152601b6020526040812054600a80549091908110612ae857612ae8614947565b600091825260209091206001600590920201015460ff166003811115612b1057612b10613efd565b14612b465760405162461bcd60e51b81526020600482015260066024820152653737ba1021b160d11b60448201526064016106f6565b6000818152601b6020526040902054600a80549091908110612b6a57612b6a614947565b600091825260208220600590910201805491612b8583614e76565b90915550506000818152601b6020526040902054600a8054612d1192908110612bb057612bb0614947565b906000526020600020906005020160020154336001600160a01b0316633f4fb5aa60058001601860030160008781526020019081526020016000205481548110612bfc57612bfc614947565b90600052602060002090600502016004018054612c1890614913565b80601f0160208091040260200160405190810160405280929190818152602001828054612c4490614913565b8015612c915780601f10612c6657610100808354040283529160200191612c91565b820191906000526020600020905b815481529060010190602001808311612c7457829003601f168201915b5050505050806020019051810190612ca99190615de2565b6040518263ffffffff1660e01b8152600401612cc791815260200190565b600060405180830381865afa158015612ce4573d6000803e3d6000fd5b505050506040513d6000823e601f3d908101601f19168201604052612d0c9190810190615e47565b613452565b6000818152601b602052604081208190556018805491612d3083615eb4565b9091555050604051600080516020615f5883398151915290600090a15050565b6015548111612d995760405162461bcd60e51b8152602060048201526015602482015274736f6c766572206e6f7420646f776e73747265616d60581b60448201526064016106f6565b612da281610bf9565b6001600160a01b0316336001600160a01b031614612dd25760405162461bcd60e51b81526004016106f690615e18565b6000828152601c602052604090205415801590612dfe57506012546000838152601c6020526040902054145b15612e505760405163de3a23c560e01b815260048101839052339063de3a23c590602401600060405180830381600087803b158015612e3c57600080fd5b505af1158015611f45573d6000803e3d6000fd5b6000828152601a60209081526040822080546001810182559083529082200180546001600160a01b031916331790556019805491612e8d83614e76565b91905055505b5050565b63f23a6e6160e01b5b9695505050505050565b612edf6040805160c081018252600080825260208201819052918101829052606080820183905260808201529060a082015290565b60128281548110612ef257612ef2614947565b60009182526020918290206040805160c081018252600690930290910180546001600160a01b031683526001810154838501526002810154838301526003810154606084015260048101805483518187028101870190945280845293949193608086019392830182828015612f8657602002820191906000526020600020905b815481526020019060010190808311612f72575b505050918352505060058281015460209092019160ff1690811115612fad57612fad613efd565b6005811115612fbe57612fbe613efd565b90525092915050565b6001600160a01b03163b151590565b600854612fe490600161539e565b612fee9042615ecb565b6016828154811061300157613001614947565b60009182526020909120015550565b60005b600a54811015613271576000600a80548390811061303357613033614947565b600091825260209091206001600590920201015460ff16600381111561305b5761305b613efd565b146130905761308b60058001828154811061307857613078614947565b906000526020600020906005020161367c565b61325f565b6000306001600160a01b0316633837b05e6005800184815481106130b6576130b6614947565b9060005260206000209060050201600301546040518263ffffffff1660e01b81526004016130e691815260200190565b602060405180830381865afa158015613103573d6000803e3d6000fd5b505050506040513d601f19601f820116820180604052508101906131279190614981565b90506131338183613768565b806001600160a01b031663df33cc5160058001848154811061315757613157614947565b9060005260206000209060050201600401805461317390614913565b80601f016020809104026020016040519081016040528092919081815260200182805461319f90614913565b80156131ec5780601f106131c1576101008083540402835291602001916131ec565b820191906000526020600020905b8154815290600101906020018083116131cf57829003601f168201915b50505050508060200190518101906132049190615de2565b6015546040516001600160e01b031960e085901b16815260048101929092526024820152604401600060405180830381600087803b15801561324557600080fd5b505af1158015613259573d6000803e3d6000fd5b50505050505b8061326981614e76565b915050613013565b50604051600080516020615f5883398151915290600090a1565b600354600090610100900460ff16156132d3578160ff1660011480156132b757506132b530612fc7565b155b6120b65760405162461bcd60e51b81526004016106f690615ee3565b60035460ff8084169116106132fa5760405162461bcd60e51b81526004016106f690615ee3565b506003805460ff191660ff92909216919091179055600190565b60005b81811015611c0857600180600085858581811061333657613336614947565b9050602002810190613348919061537e565b6133569060208101906152f8565b6001600160a01b031681526020810191909152604001600020805460ff191691151591909117905582828281811061339057613390614947565b90506020028101906133a2919061537e565b6133b09060208101906152f8565b6001600160a01b0316633cef64cc8484848181106133d0576133d0614947565b90506020028101906133e2919061537e565b6133f090602081019061543a565b6040518363ffffffff1660e01b815260040161340d929190615f31565b600060405180830381600087803b15801561342757600080fd5b505af115801561343b573d6000803e3d6000fd5b50505050808061344a90614e76565b915050613317565b60125461346190600190614a7f565b6000838152601c6020526040902054146134b45760405162461bcd60e51b815260206004820152601460248201527314db1bdd081d995c9cda5bdb881a5b9d985b1a5960621b60448201526064016106f6565b6000828152601c60209081526040822080546001810182559083529181902083516134e6939190910191840190613c4c565b50612e938261387d565b611c088363a9059cbb60e01b848460405160240161350f92919061499e565b60408051601f198184030181529190526020810180516001600160e01b03166001600160e01b0319909316929092179091526139b7565b6014546001600160a01b0316158015906135d25750601460009054906101000a90046001600160a01b03166001600160a01b031663999925066040518163ffffffff1660e01b8152600401602060405180830381865afa1580156135ae573d6000803e3d6000fd5b505050506040513d601f19601f820116820180604052508101906135d29190614a96565b801561364657506014546040516344c3b60760e01b8152600481018390526001600160a01b03909116906344c3b60790602401602060405180830381865afa158015613622573d6000803e3d6000fd5b505050506040513d601f19601f820116820180604052508101906136469190614a96565b15610bf65760145460405163b992db0f60e01b8152600481018390526001600160a01b039091169063b992db0f906024016111a3565b600181015460039060ff168181111561369757613697613efd565b11156136da5760405162461bcd60e51b8152602060048201526012602482015271496e76616c696420696e676573745479706560701b60448201526064016106f6565b80548160006136e883614e76565b9091555060039050600182015460ff16600381111561370957613709613efd565b14610bf657600281015460405163b3d7370760e01b815260048101839052610bf6919073__$3ec311f63f1cd166364ee887ad77eb9bd8$__9063b3d7370790602401600060405180830381865af4158015612ce4573d6000803e3d6000fd5b80601860030160008460058001858154811061378657613786614947565b906000526020600020906005020160040180546137a290614913565b80601f01602080910402602001604051908101604052809291908181526020018280546137ce90614913565b801561381b5780601f106137f05761010080835404028352916020019161381b565b820191906000526020600020905b8154815290600101906020018083116137fe57829003601f168201915b50505050508060200190518101906138339190615de2565b604051602001613844929190615dfb565b60408051601f198184030181529181528151602092830120835290820192909252016000908120919091556018805491612e8d83614e76565b60005b6000828152601a6020526040902054811015612e93576000828152601a602052604081208054839081106138b6576138b6614947565b6000918252602090912001546001600160a01b0316146139a5576000828152601a602052604090208054829081106138f0576138f0614947565b60009182526020909120015460405163de3a23c560e01b8152600481018490526001600160a01b039091169063de3a23c590602401600060405180830381600087803b15801561393f57600080fd5b505af1158015613953573d6000803e3d6000fd5b5050506000838152601a6020526040902080549091508290811061397957613979614947565b6000918252602082200180546001600160a01b0319169055601980549161399f83615eb4565b91905055505b806139af81614e76565b915050613880565b6000613a0c826040518060400160405280602081526020017f5361666545524332303a206c6f772d6c6576656c2063616c6c206661696c6564815250856001600160a01b0316613a899092919063ffffffff16565b805190915015611c085780806020019051810190613a2a9190614a96565b611c085760405162461bcd60e51b815260206004820152602a60248201527f5361666545524332303a204552433230206f7065726174696f6e20646964206e6044820152691bdd081cdd58d8d9595960b21b60648201526084016106f6565b6060613a988484600085613aa0565b949350505050565b606082471015613b015760405162461bcd60e51b815260206004820152602660248201527f416464726573733a20696e73756666696369656e742062616c616e636520666f6044820152651c8818d85b1b60d21b60648201526084016106f6565b843b613b4f5760405162461bcd60e51b815260206004820152601d60248201527f416464726573733a2063616c6c20746f206e6f6e2d636f6e747261637400000060448201526064016106f6565b600080866001600160a01b03168587604051613b6b9190615f45565b60006040518083038185875af1925050503d8060008114613ba8576040519150601f19603f3d011682016040523d82523d6000602084013e613bad565b606091505b5091509150613bbd828286613bc8565b979650505050505050565b60608315613bd75750816120af565b825115613be75782518084602001fd5b8160405162461bcd60e51b81526004016106f69190613e14565b828054828255906000526020600020908101928215613c3c579160200282015b82811115613c3c578251825591602001919060010190613c21565b50613c48929150613d60565b5090565b828054613c5890614913565b90600052602060002090601f016020900481019282613c7a5760008555613c3c565b82601f10613c9357805160ff1916838001178555613c3c565b82800160010185558215613c3c5791820182811115613c3c578251825591602001919060010190613c21565b6040518060e0016040528060006001600160a01b0316815260200160006001600160a01b0316815260200160006001600160a01b03168152602001600081526020016060815260200160608152602001613d5b6040518060e0016040528060006001600160a01b031681526020016000815260200160008152602001600080191681526020016060815260200160608152602001606081525090565b905290565b5b80821115613c485760008155600101613d61565b600060208284031215613d8757600080fd5b81356001600160e01b0319811681146120af57600080fd5b600060208284031215613db157600080fd5b5035919050565b60005b83811015613dd3578181015183820152602001613dbb565b83811115613de2576000848401525b50505050565b60008151808452613e00816020860160208601613db8565b601f01601f19169290920160200192915050565b6020815260006120af6020830184613de8565b6001600160a01b0381168114610bf657600080fd5b60008083601f840112613e4e57600080fd5b5081356001600160401b03811115613e6557600080fd5b6020830191508360208260051b8501011115613e8057600080fd5b9250929050565b600080600080600060808688031215613e9f57600080fd5b8535613eaa81613e27565b9450602086013593506040860135925060608601356001600160401b03811115613ed357600080fd5b613edf88828901613e3c565b969995985093965092949392505050565b6001600160a01b03169052565b634e487b7160e01b600052602160045260246000fd5b60068110613f2357613f23613efd565b9052565b6001600160a01b038616815260208101859052604081018490526060810183905260a08101612ea06080830184613f13565b6001600160a01b0391909116815260200190565b8035610d0581613e27565b60008060408385031215613f8b57600080fd5b8235613f9681613e27565b946020939093013593505050565b602081016106118284613f13565b600060e08284031215613fc457600080fd5b50919050565b600060208284031215613fdc57600080fd5b81356001600160401b03811115613ff257600080fd5b613a9884828501613fb2565b6000806000806080858703121561401457600080fd5b843561401f81613e27565b9350602085013561402f81613e27565b92506040850135915060608501356001600160401b0381111561405157600080fd5b61405d87828801613fb2565b91505092959194509250565b600081518084526020808501945080840160005b838110156140995781518752958201959082019060010161407d565b509495945050505050565b600081518084526020808501808196508360051b8101915082860160005b858110156140ec5782840389526140da848351613de8565b988501989350908401906001016140c2565b5091979650505050505050565b60018060a01b0381511682526000602080830151818501526040808401518186015260608085015181870152608085015160e0608088015261413e60e0880182614069565b905060a086015187820360a08901528181518084528684019150868160051b85010187840193506000805b838110156141d157868303601f190185528551805184528a01518a84018a905280518a8501819052908b019083908a8601905b808310156141bc5783518252928d019260019290920191908d019061419c565b50978c0197968c019694505050600101614169565b505060c08a015197508a810360c08c01526141ec81896140a4565b9b9a5050505050505050505050565b6001600160a01b0386811682528581166020830152841660408201526060810183905260a060808201819052600090613bbd908301846140f9565b60018060a01b0381511682526020810151602083015260408101516040830152606081015160608301526000608082015160c0608085015261427b60c0850182614069565b905060a083015161428f60a0860182613f13565b509392505050565b6000602080830181845280855180835260408601915060408160051b870101925083870160005b828110156142ec57603f198886030184526142da858351614236565b945092850192908501906001016142be565b5092979650505050505050565b60008060006040848603121561430e57600080fd5b8335925060208401356001600160401b0381111561432b57600080fd5b61433786828701613e3c565b9497909650939450505050565b634e487b7160e01b600052604160045260246000fd5b60405160c081016001600160401b038111828210171561437c5761437c614344565b60405290565b604051601f8201601f191681016001600160401b03811182821017156143aa576143aa614344565b604052919050565b60006001600160401b038211156143cb576143cb614344565b50601f01601f191660200190565b600080604083850312156143ec57600080fd5b8235915060208301356001600160401b0381111561440957600080fd5b8301601f8101851361441a57600080fd5b803561442d614428826143b2565b614382565b81815286602083850101111561444257600080fd5b816020840160208301376000602083830101528093505050509250929050565b60006001600160401b0382111561447b5761447b614344565b5060051b60200190565b6000806040838503121561449857600080fd5b823591506020808401356001600160401b038111156144b657600080fd5b8401601f810186136144c757600080fd5b80356144d561442882614462565b81815260059190911b820183019083810190888311156144f457600080fd5b928401925b82841015614512578335825292840192908401906144f9565b80955050505050509250929050565b60008060006060848603121561453657600080fd5b833561454181613e27565b9250602084013561455181613e27565b929592945050506040919091013590565b60008083601f84011261457457600080fd5b5081356001600160401b0381111561458b57600080fd5b602083019150836020828501011115613e8057600080fd5b60008060008060008060008060a0898b0312156145bf57600080fd5b88356145ca81613e27565b975060208901356145da81613e27565b965060408901356001600160401b03808211156145f657600080fd5b6146028c838d01613e3c565b909850965060608b013591508082111561461b57600080fd5b6146278c838d01613e3c565b909650945060808b013591508082111561464057600080fd5b5061464d8b828c01614562565b999c989b5096995094979396929594505050565b6001600160e01b031991909116815260200190565b6000602080830181845280855180835260408601915060408160051b870101925083870160005b828110156142ec57603f198886030184526146b9858351613de8565b9450928501929085019060010161469d565b600081518084526020808501808196508360051b8101915082860160005b858110156140ec578284038952815180516001600160a01b03168552850151604086860181905261471c81870183613de8565b9a87019a95505050908401906001016146e9565b60048110613f2357613f23613efd565b600081518084526020808501808196508360051b8101915082860160005b858110156140ec578284038952815160a0815186528682015161478388880182614730565b5060408281015190870152606080830151908701526080918201519186018190526147b081870183613de8565b9a87019a955050509084019060010161475e565b60208152600060018060a01b038084511660208401528060208501511660408401525060408301516147f96060840182613ef0565b5060608301516080830152608083015160e060a084015261481e6101008401826146cb565b905060a0840151601f19808584030160c086015261483c8383614740565b925060c08601519150808584030160e08601525061485a82826140f9565b95945050505050565b6000806040838503121561487657600080fd5b50508035926020909101359150565b60008060008060008060a0878903121561489e57600080fd5b86356148a981613e27565b955060208701356148b981613e27565b9450604087013593506060870135925060808701356001600160401b038111156148e257600080fd5b6148ee89828a01614562565b979a9699509497509295939492505050565b6020815260006120af6020830184614236565b600181811c9082168061492757607f821691505b602082108103613fc457634e487b7160e01b600052602260045260246000fd5b634e487b7160e01b600052603260045260246000fd5b6020808252600a9082015269151a5b595b1bd8dad95960b21b604082015260600190565b60006020828403121561499357600080fd5b81516120af81613e27565b6001600160a01b03929092168252602082015260400190565b6020808252600b908201526a27b7363c9025b2b2b832b960a91b604082015260600190565b81835260006001600160fb1b038311156149f557600080fd5b8260051b8083602087013760009401602001938452509192915050565b60018060a01b0386168152846020820152836040820152608060608201526000613bbd6080830184866149dc565b6020808252600f908201526e27b7363c9030b93134ba3930ba37b960891b604082015260600190565b634e487b7160e01b600052601160045260246000fd5b600082821015614a9157614a91614a69565b500390565b600060208284031215614aa857600080fd5b815180151581146120af57600080fd5b6020808252600d908201526c139bdd081c195c9b5a5d1d1959609a1b604082015260600190565b60009081526020902090565b6000815480845260208085019450836000528060002060005b8381101561409957815487529582019560019182019101614b04565b600081548084526020808501808196508360051b810191506000868152838120815b86811015614bae578385038a52815485526040868601819052600180840180549288018390528552878520606088019290919086905b80821015614b955783548552938a01939282019290820190614b78565b5050509a87019a50945060029190910190600101614b42565b509298975050505050505050565b60008154614bc981614913565b808552602060018381168015614be65760018114614bfa57614c28565b60ff19851688840152604088019550614c28565b866000528260002060005b85811015614c205781548a8201860152908301908401614c05565b890184019650505b505050505092915050565b600081548084526020808501808196508360051b81019150856000528260002060005b858110156140ec578284038952614c6d8483614bbc565b98850198935060019182019101614c56565b600060018060a01b03808716835260806020840152614ca46080840182885416613ef0565b50600185015460a0830152600285015460c0830152600385015460e083015260e0610100830152614cdc610160830160048701614aeb565b607f198084830301610120850152614cf78260058901614b20565b9150808483030161014085015250614d128160068801614c33565b915050614d226040830185613ef0565b82606083015295945050505050565b805160068110610d0557600080fd5b60006020808385031215614d5357600080fd5b82516001600160401b0380821115614d6a57600080fd5b9084019060c08287031215614d7e57600080fd5b614d8661435a565b8251614d9181613e27565b8082525083830151848201526040830151604082015260608301516060820152608083015182811115614dc357600080fd5b83019150601f82018713614dd657600080fd5b8151614de461442882614462565b81815260059190911b83018501908581019089831115614e0357600080fd5b938601935b82851015614e2157845182529386019390860190614e08565b608084015250614e35905060a08401614d31565b60a08201529695505050505050565b602080825260189082015277139bdd08105c989a5d1c985d1a5bdb94995c5d595cdd195960421b604082015260600190565b600060018201614e8857614e88614a69565b5060010190565b6000808335601e19843603018112614ea657600080fd5b83016020810192503590506001600160401b03811115614ec557600080fd5b8060051b3603821315613e8057600080fd5b6000808335601e19843603018112614eee57600080fd5b83016020810192503590506001600160401b03811115614f0d57600080fd5b803603821315613e8057600080fd5b81835281816020850137506000828201602090810191909152601f909101601f19169091010190565b60008235603e19833603018112614f5b57600080fd5b90910192915050565b81835260006020808501808196508560051b810191508460005b878110156140ec578284038952614f958288614f45565b60408135614fa281613e27565b6001600160a01b03168652614fb982880183614ed7565b92508188880152614fcd8288018483614f1c565b9b88019b965050509185019150600101614f7e565b60048110610bf657600080fd5b81835260006020808501808196508560051b81019150846000805b88811015614bae578385038a528235609e1989360301811261502a578283fd5b88018035865260a08782013561503f81614fe2565b61504b89890182614730565b506040828101359088015260608083013590880152608061506e81840184614ed7565b935082828a0152615082838a018583614f1c565b9d8a019d9850505093870193505060010161500a565b6000823560de19833603018112614f5b57600080fd5b81835260006020808501808196508560051b810191508460005b878110156140ec5782840389526150df8288614ed7565b6150ea868284614f1c565b9a87019a95505050908401906001016150c8565b6000813561510b81613e27565b6001600160a01b031683526020828101358185015260408084013581860152606080850135908601526151416080850185614e8f565b60e0608088015261515660e0880182846149dc565b91505061516660a0860186614e8f565b87830360a0890152808352848301600582901b840186018360005b848110156151d457868303601f1901845261519c8287614f45565b803584526151ac8a820182614e8f565b9150898b8601526151c08a860183836149dc565b958b01959450505090880190600101615181565b50506151e360c08a018a614e8f565b9750955089810360c08b01526151fa8188886150ae565b9a9950505050505050505050565b6001600160a01b03858116825260806020830152600090853561522a81613e27565b16608083015261523c60208601613f6d565b61524960a0840182613ef0565b5061525660408601613f6d565b61526360c0840182613ef0565b50606085013560e083015261527b6080860186614e8f565b60e061010085015261529261016085018284614f64565b9150506152a260a0870187614e8f565b607f1980868503016101208701526152bb848385614fef565b93506152ca60c08a018a615098565b9250808685030161014087015250506152e382826150fe565b60408501969096525050506060015292915050565b60006020828403121561530a57600080fd5b81356120af81613e27565b80546001600160a01b0319166001600160a01b0392909216919091179055565b6000808335601e1984360301811261534c57600080fd5b8301803591506001600160401b0382111561536657600080fd5b6020019150600581901b3603821315613e8057600080fd5b60008235603e1983360301811261539457600080fd5b9190910192915050565b60008160001904831182151516156153b8576153b8614a69565b500290565b5b81811015612e9357600081556001016153be565b600019600383901b1c191660019190911b1790565b6153f18154614913565b8015612e9357601f81116001811461540b57505060009055565b826000526020600020615429601f840160051c8201600183016153bd565b506020600090812081855555505050565b6000808335601e1984360301811261545157600080fd5b8301803591506001600160401b0382111561546b57600080fd5b602001915036819003821315613e8057600080fd5b601f821115611c0857806000526020600020601f840160051c810160208510156154a75750805b6108ec601f850160051c8301826153bd565b6001600160401b038311156154d0576154d0614344565b6154e4836154de8354614913565b83615480565b6000601f84116001811461551257600085156155005750838201355b61550a86826153d2565b8455506108ec565b601f19851661552084614adf565b835b828110156155425786850135825560209485019460019092019101615522565b508682101561555f5760001960f88860031b161c19848701351681555b505060018560011b0183555050505050565b813561557c81613e27565b6155868183615315565b506001808201602061559a8186018661543a565b6001600160401b038111156155b1576155b1614344565b6155c5816155bf8654614913565b86615480565b6000601f8211600181146155f357600083156155e15750838201355b6155eb84826153d2565b875550610a0b565b601f19831661560187614adf565b835b828110156156205786850135825593870193908901908701615603565b508482101561563d5760001960f88660031b161c19848701351681555b50505050841b90930190915550505050565b60008235609e1983360301811261539457600080fd5b8135815560018101602083013561567b81614fe2565b6004811061568b5761568b613efd565b60ff1982541660ff82168117835550505060408201356002820155606082013560038201556156bd608083018361543a565b613de28183600486016154b9565b600160401b8311156156df576156df614344565b805483825580841015615783577f3333333333333333333333333333333333333333333333333333333333333333600181831181161561572157615721614a69565b600582871182161561573557615735614a69565b600085815260208120909350878202810190828602015b8082101561577d578482558484830155846002830155846003830155615774600483016153e7565b9082019061574c565b50505050505b508161578e82614adf565b60005b85811015611f45576157ac6157a6848761564f565b83615665565b6020929092019160059190910190600101615791565b6000823560de1983360301811261539457600080fd5b805460008083558115611c0857828152602081208281015b808210156108ec578282556001820191506157f0565b813581556001808201602061581d81860186615335565b600160401b81111561583157615831614344565b8354818555808210156158655760008581528481208381019083015b80821015615861578282559088019061584d565b5050505b506000938452828420935b8181101561588b578235855593850193918301918501615870565b5050505050505050565b600160401b8311156158a9576158a9614344565b805483825580841015615921576001600160ff1b0360018183118116156158d2576158d2614a69565b8186118116156158e4576158e4614a69565b60008481526020812090925086821b81019084831b015b8082101561591c578382556159118383016157d8565b6002820191506158fb565b505050505b508161592c82614adf565b60005b85811015611f455761594a615944848761537e565b83615806565b602092909201916002919091019060010161592f565b600160401b83111561597457615974614344565b8054838255808410156159fd576000828152602081208581019083015b808210156159f9576159a38254614913565b80156159ed57601f808211600181146159be578585556159ea565b6159c785614adf565b6159db83850160051c8201600183016153bd565b50600085815260208120818755555b50505b50600182019150615991565b5050505b5081615a0882614adf565b60005b85811015611f4557615a1d838661543a565b615a288183866154b9565b50506020929092019160019182019101615a0b565b8135615a4881613e27565b615a528183615315565b50600160208084013582840155604084013560028401556060840135600384015560048301615a846080860186615335565b600160401b811115615a9857615a98614344565b825481845580821015615abd578360005284600020615abb8282018483016153bd565b505b506000928352838320925b81811015615ae3578235845592850192918401918501615ac8565b505050505050615af660a0830183615335565b615b04818360058601615895565b5050615b1360c0830183615335565b613de2818360068601615960565b8135615b2c81613e27565b615b368183615315565b506001602080840135615b4881613e27565b615b5481848601615315565b5060026040850135615b6581613e27565b615b7181838701615315565b506060850135600385015560048401615b8d6080870187615335565b600160401b811115615ba157615ba1614344565b825481845580821015615c11576001600160ff1b03808211881615615bc857615bc8614a69565b808311881615615bda57615bda614a69565b50600084815286812083891b810190838a1b015b80821015615c0d57828255615c048a83016153e7565b90870190615bee565b5050505b5081615c1c84614adf565b935060005b82811015615c4b57615c3c615c36838661537e565b86615571565b93850193908601908701615c21565b5050505050505050615c6060a0830183615335565b615c6e8183600586016156cb565b5050612e93615c8060c08401846157c2565b60068301615a3d565b6020808252601e908201527f6c656e677468206d757374206d61746368206f7574636f6d65536c6f74730000604082015260600190565b83815260406020820152600061485a6040830184866149dc565b6001600160a01b038416815260208082018490526060604083018190528351908301819052600091848101916080850190845b81811015615d2957845183529383019391830191600101615d0d565b509098975050505050505050565b6000604080830181845280865480835260609250828601915060058382821b8801018960005260208060002060005b85811015615dcc57605f198b850301875260a08254855260ff600184015416615d9185870182614730565b5060028301548a860152600383015489860152806080860152615db981860160048501614bbc565b9784019794505090840190600101615d66565b5050979097019790975250939695505050505050565b600060208284031215615df457600080fd5b5051919050565b60609290921b6001600160601b0319168252601482015260340190565b60208082526015908201527436b9b39739b2b73232b9103737ba1039b7b63b32b960591b604082015260600190565b600060208284031215615e5957600080fd5b81516001600160401b03811115615e6f57600080fd5b8201601f81018413615e8057600080fd5b8051615e8e614428826143b2565b818152856020838501011115615ea357600080fd5b61485a826020830160208601613db8565b600081615ec357615ec3614a69565b506000190190565b60008219821115615ede57615ede614a69565b500190565b6020808252602e908201527f496e697469616c697a61626c653a20636f6e747261637420697320616c72656160408201526d191e481a5b9a5d1a585b1a5e995960921b606082015260800190565b602081526000613a98602083018486614f1c565b60008251615394818460208701613db856fe71bd81ebe1d98a2944767394e76a9aff18724b2cf04e1db71254f804544b35c7a26469706673582212204beb689508c1525032bd70b3bb261a3151416fd3c88d85519688ac84d966ecb164736f6c634300080e0033",
  "libraries": {
    "SolverLib": "0x0165878A594ca255338adfa4d48449f69242Eb8F"
  },
  "devdoc": {
    "kind": "dev",
    "methods": {
      "addData(bytes32,bytes)": {
        "details": "Only Keeper, only manual slots",
        "params": {
          "_data": "Data to be added",
          "_slot": "Destination slot"
        }
      },
      "addressFromChainIndex(uint256)": {
        "details": "Returns address(0) if no child or parent",
        "params": {
          "_index": "Index of Solver"
        },
        "returns": {
          "_address": "_address"
        }
      },
      "allocationsValid(uint256)": {
        "params": {
          "_index": "Condition index"
        },
        "returns": {
          "_0": "bool"
        }
      },
      "arbitrate(uint256,uint256[])": {
        "params": {
          "_index": "Index of condition",
          "payouts": "Array of uint256 values representing the ratio of the collateral that each outcome can claim. The length of this array must be equal to the outcomeSlotCount"
        }
      },
      "arbitrateNull(uint256)": {
        "params": {
          "_index": "Index of condition"
        }
      },
      "collateralBalance()": {
        "returns": {
          "balance": "balance"
        }
      },
      "condition(uint256)": {
        "params": {
          "index": "Index of condition"
        }
      },
      "confirmPayouts(uint256)": {
        "params": {
          "_index": "Index of condition"
        }
      },
      "deployChild((address,address,address,uint256,(address,bytes)[],(uint256,uint8,bytes32,uint256,bytes)[],(address,uint256,uint256,bytes32,uint256[],(bytes32,bytes32[])[],string[])))": {
        "params": {
          "_config": "Configuration of the child Solver"
        },
        "returns": {
          "_0": "address"
        }
      },
      "executeSolve(uint256)": {
        "details": "require(ingestsValid())",
        "params": {
          "_index": "Index of condition to execute on"
        }
      },
      "getAllData(bytes32)": {
        "params": {
          "_slot": "slotId"
        },
        "returns": {
          "data": "data"
        }
      },
      "getCallbackOutput(bytes32)": {
        "params": {
          "_slot": "Slot containing data"
        },
        "returns": {
          "data": "data"
        }
      },
      "getData(bytes32)": {
        "params": {
          "_slot": "slotId"
        },
        "returns": {
          "data": "data"
        }
      },
      "getStatus(uint256)": {
        "params": {
          "conditionIndex": "index of condition"
        },
        "returns": {
          "status": "status"
        }
      },
      "handleCallback(bytes32)": {
        "details": "only upstream Solver",
        "params": {
          "_slot": "Destination slot for the data being sent"
        }
      },
      "ingestsValid()": {
        "returns": {
          "_0": "bool"
        }
      },
      "init(address,address,uint256,(address,address,address,uint256,(address,bytes)[],(uint256,uint8,bytes32,uint256,bytes)[],(address,uint256,uint256,bytes32,uint256[],(bytes32,bytes32[])[],string[])))": {
        "details": "initializer",
        "params": {
          "_chainIndex": "The index of this Solver in the chain",
          "_chainParent": "The address of the Solver above this one in the chain. address(0) if this Solver is first.",
          "_solverConfig": "The configuration of this Solver"
        }
      },
      "isRecipient(address,uint256)": {
        "params": {
          "account": "address to check",
          "conditionIndex": "condition to check"
        },
        "returns": {
          "_0": "bool"
        }
      },
      "onERC1155BatchReceived(address,address,uint256[],uint256[],bytes)": {
        "details": "Handles the receipt of a multiple ERC1155 token types. This function is called at the end of a `safeBatchTransferFrom` after the balances have been updated. To accept the transfer(s), this must return `bytes4(keccak256(\"onERC1155BatchReceived(address,address,uint256[],uint256[],bytes)\"))` (i.e. 0xbc197c81, or its own function selector).",
        "params": {
          "data": "Additional data with no specified format",
          "from": "The address which previously owned the token",
          "ids": "An array containing ids of each token being transferred (order and length must match values array)",
          "operator": "The address which initiated the batch transfer (i.e. msg.sender)",
          "values": "An array containing amounts of each token being transferred (order and length must match ids array)"
        },
        "returns": {
          "_0": "`bytes4(keccak256(\"onERC1155BatchReceived(address,address,uint256[],uint256[],bytes)\"))` if transfer is allowed"
        }
      },
      "onERC1155Received(address,address,uint256,uint256,bytes)": {
        "details": "Handles the receipt of a single ERC1155 token type. This function is called at the end of a `safeTransferFrom` after the balance has been updated. To accept the transfer, this must return `bytes4(keccak256(\"onERC1155Received(address,address,uint256,uint256,bytes)\"))` (i.e. 0xf23a6e61, or its own function selector).",
        "params": {
          "data": "Additional data with no specified format",
          "from": "The address which previously owned the token",
          "id": "The ID of the token being transferred",
          "operator": "The address which initiated the transfer (i.e. msg.sender)",
          "value": "The amount of tokens being transferred"
        },
        "returns": {
          "_0": "`bytes4(keccak256(\"onERC1155Received(address,address,uint256,uint256,bytes)\"))` if transfer is allowed"
        }
      },
      "prepareSolve(uint256)": {
        "params": {
          "_index": "Index of the new condition to be created."
        }
      },
      "proposePayouts(uint256,uint256[])": {
        "params": {
          "_index": "Index of condition",
          "_payouts": "Array of uint256 values representing the ratio of the collateral that each outcome can claim. The length of this array must be equal to the outcomeSlotCount"
        }
      },
      "redeemPosition(address,bytes32,bytes32,uint256[])": {
        "details": "only Keeper or module"
      },
      "registerOutgoingCallback(bytes32,uint256)": {
        "details": "only downstream Solver",
        "params": {
          "_chainIndex": "Index of the Solver requesting this callback",
          "_slot": "Slot being waited on by downstream Solver"
        }
      },
      "requestArbitration(uint256)": {
        "params": {
          "_index": "Index of condition"
        }
      },
      "setTimelock(uint256,uint256)": {
        "params": {
          "_index": "Timelock/Condition index to be updated"
        }
      },
      "setTrackingId(bytes32)": {
        "params": {
          "_trackingId": "bytes32"
        }
      },
      "supportsInterface(bytes4)": {
        "details": "See {IERC165-supportsInterface}."
      }
    },
    "version": 1
  },
  "userdoc": {
    "kind": "user",
    "methods": {
      "addData(bytes32,bytes)": {
        "notice": "Allows keeper to manually add data to IngestType.Manual slots after executeIngests"
      },
      "addressFromChainIndex(uint256)": {
        "notice": "Get address for a Solver by its index in the chain"
      },
      "allocationsValid(uint256)": {
        "notice": "Verifies that all slots corresponding to recipients have been filled before CT allocation"
      },
      "arbitrate(uint256,uint256[])": {
        "notice": "Allows arbitrator to unilaterally make a payout report."
      },
      "arbitrateNull(uint256)": {
        "notice": "Returns condition.status to OutcomeProposed without a ruling."
      },
      "arbitrator()": {
        "notice": "Get Arbitrator address "
      },
      "collateralBalance()": {
        "notice": "Get balance of collateral token on Solver"
      },
      "condition(uint256)": {
        "notice": "Get one condition"
      },
      "confirmPayouts(uint256)": {
        "notice": "Confirm payouts for condition (reportPayouts to ConditionalTokens contract)"
      },
      "deployChild((address,address,address,uint256,(address,bytes)[],(uint256,uint8,bytes32,uint256,bytes)[],(address,uint256,uint256,bytes32,uint256[],(bytes32,bytes32[])[],string[])))": {
        "notice": "Deploys a new Solver as a child"
      },
      "executeSolve(uint256)": {
        "notice": "Mints conditional tokens, allocates them to recipients specified by ingested data and tries to do the same for child Solver"
      },
      "getAllData(bytes32)": {
        "notice": "Get data for each condition from a slot"
      },
      "getCallbackOutput(bytes32)": {
        "notice": "A simple getter that requires upstream slot ver. == our condition ver."
      },
      "getConditions()": {
        "notice": "Get all conditions"
      },
      "getConfig()": {
        "notice": "Get Solver config"
      },
      "getData(bytes32)": {
        "notice": "Get most recent data of a slot"
      },
      "getStatus(uint256)": {
        "notice": "Get status of a condition"
      },
      "handleCallback(bytes32)": {
        "notice": "Handle upstream Solver making callback and ingest the data"
      },
      "ingestsValid()": {
        "notice": "Verifies that all ingests have been performed for a condition"
      },
      "init(address,address,uint256,(address,address,address,uint256,(address,bytes)[],(uint256,uint8,bytes32,uint256,bytes)[],(address,uint256,uint256,bytes32,uint256[],(bytes32,bytes32[])[],string[])))": {
        "notice": "Called by SolverFactory when contract is created. Nothing else should ever need to call this"
      },
      "isRecipient(address,uint256)": {
        "notice": "Returns recipient addresses for a condition"
      },
      "keeper()": {
        "notice": "Get Keeper address "
      },
      "prepareSolve(uint256)": {
        "notice": "Creates a new condition, associated timelock, and executes ingests for this Solver and any child Solvers"
      },
      "proposePayouts(uint256,uint256[])": {
        "notice": "Propose payouts (AKA outcomes) for a condition"
      },
      "redeemPosition(address,bytes32,bytes32,uint256[])": {
        "notice": "Redeems CTs held by this Solver. See ConditionalTokens contract for more info."
      },
      "registerOutgoingCallback(bytes32,uint256)": {
        "notice": "Register callback expected by a downstream Solver for some data"
      },
      "requestArbitration(uint256)": {
        "notice": "Sets condition.status to ArbitrationRequested."
      },
      "setTimelock(uint256,uint256)": {
        "notice": "Set new timelock for a condition"
      },
      "setTrackingId(bytes32)": {
        "notice": "set ID that will be passed as data for conditional token transfers"
      }
    },
    "version": 1
  },
  "storageLayout": {
    "storage": [
      {
        "astId": 8647,
        "contract": "contracts/solvers/BasicSolverV1.sol:BasicSolverV1",
        "label": "_context",
        "offset": 0,
        "slot": "0",
        "type": "t_address"
      },
      {
        "astId": 8657,
        "contract": "contracts/solvers/BasicSolverV1.sol:BasicSolverV1",
        "label": "modules",
        "offset": 0,
        "slot": "1",
        "type": "t_mapping(t_address,t_bool)"
      },
      {
        "astId": 8661,
        "contract": "contracts/solvers/BasicSolverV1.sol:BasicSolverV1",
        "label": "state",
        "offset": 0,
        "slot": "2",
        "type": "t_mapping(t_bytes32,t_bytes_storage)"
      },
      {
        "astId": 130,
        "contract": "contracts/solvers/BasicSolverV1.sol:BasicSolverV1",
        "label": "_initialized",
        "offset": 0,
        "slot": "3",
        "type": "t_uint8"
      },
      {
        "astId": 133,
        "contract": "contracts/solvers/BasicSolverV1.sol:BasicSolverV1",
        "label": "_initializing",
        "offset": 1,
        "slot": "3",
        "type": "t_bool"
      },
      {
        "astId": 10593,
        "contract": "contracts/solvers/BasicSolverV1.sol:BasicSolverV1",
        "label": "solverFactory",
        "offset": 2,
        "slot": "3",
        "type": "t_contract(ISolverFactory)8517"
      },
      {
        "astId": 10595,
        "contract": "contracts/solvers/BasicSolverV1.sol:BasicSolverV1",
        "label": "deployerAddress",
        "offset": 0,
        "slot": "4",
        "type": "t_address"
      },
      {
        "astId": 10598,
        "contract": "contracts/solvers/BasicSolverV1.sol:BasicSolverV1",
        "label": "config",
        "offset": 0,
        "slot": "5",
        "type": "t_struct(Config)12439_storage"
      },
      {
        "astId": 10602,
        "contract": "contracts/solvers/BasicSolverV1.sol:BasicSolverV1",
        "label": "conditions",
        "offset": 0,
        "slot": "18",
        "type": "t_array(t_struct(Condition)12418_storage)dyn_storage"
      },
      {
        "astId": 10604,
        "contract": "contracts/solvers/BasicSolverV1.sol:BasicSolverV1",
        "label": "chainParent",
        "offset": 0,
        "slot": "19",
        "type": "t_address"
      },
      {
        "astId": 10606,
        "contract": "contracts/solvers/BasicSolverV1.sol:BasicSolverV1",
        "label": "chainChild",
        "offset": 0,
        "slot": "20",
        "type": "t_address"
      },
      {
        "astId": 10608,
        "contract": "contracts/solvers/BasicSolverV1.sol:BasicSolverV1",
        "label": "chainIndex",
        "offset": 0,
        "slot": "21",
        "type": "t_uint256"
      },
      {
        "astId": 10611,
        "contract": "contracts/solvers/BasicSolverV1.sol:BasicSolverV1",
        "label": "timelocks",
        "offset": 0,
        "slot": "22",
        "type": "t_array(t_uint256)dyn_storage"
      },
      {
        "astId": 10613,
        "contract": "contracts/solvers/BasicSolverV1.sol:BasicSolverV1",
        "label": "trackingId",
        "offset": 0,
        "slot": "23",
        "type": "t_bytes32"
      },
      {
        "astId": 10616,
        "contract": "contracts/solvers/BasicSolverV1.sol:BasicSolverV1",
        "label": "callbacks",
        "offset": 0,
        "slot": "24",
        "type": "t_struct(Callbacks)12463_storage"
      },
      {
        "astId": 10619,
        "contract": "contracts/solvers/BasicSolverV1.sol:BasicSolverV1",
        "label": "datas",
        "offset": 0,
        "slot": "28",
        "type": "t_struct(Datas)12449_storage"
      }
    ],
    "types": {
      "t_address": {
        "encoding": "inplace",
        "label": "address",
        "numberOfBytes": "20"
      },
      "t_array(t_address)dyn_storage": {
        "base": "t_address",
        "encoding": "dynamic_array",
        "label": "address[]",
        "numberOfBytes": "32"
      },
      "t_array(t_bytes32)dyn_storage": {
        "base": "t_bytes32",
        "encoding": "dynamic_array",
        "label": "bytes32[]",
        "numberOfBytes": "32"
      },
      "t_array(t_bytes_storage)dyn_storage": {
        "base": "t_bytes_storage",
        "encoding": "dynamic_array",
        "label": "bytes[]",
        "numberOfBytes": "32"
      },
      "t_array(t_string_storage)dyn_storage": {
        "base": "t_string_storage",
        "encoding": "dynamic_array",
        "label": "string[]",
        "numberOfBytes": "32"
      },
      "t_array(t_struct(Allocation)12489_storage)dyn_storage": {
        "base": "t_struct(Allocation)12489_storage",
        "encoding": "dynamic_array",
        "label": "struct SolverLib.Allocation[]",
        "numberOfBytes": "32"
      },
      "t_array(t_struct(Condition)12418_storage)dyn_storage": {
        "base": "t_struct(Condition)12418_storage",
        "encoding": "dynamic_array",
        "label": "struct SolverLib.Condition[]",
        "numberOfBytes": "32"
      },
      "t_array(t_struct(Ingest)12402_storage)dyn_storage": {
        "base": "t_struct(Ingest)12402_storage",
        "encoding": "dynamic_array",
        "label": "struct SolverLib.Ingest[]",
        "numberOfBytes": "32"
      },
      "t_array(t_struct(Loader)8653_storage)dyn_storage": {
        "base": "t_struct(Loader)8653_storage",
        "encoding": "dynamic_array",
        "label": "struct Modulated.Loader[]",
        "numberOfBytes": "32"
      },
      "t_array(t_uint256)dyn_storage": {
        "base": "t_uint256",
        "encoding": "dynamic_array",
        "label": "uint256[]",
        "numberOfBytes": "32"
      },
      "t_bool": {
        "encoding": "inplace",
        "label": "bool",
        "numberOfBytes": "1"
      },
      "t_bytes32": {
        "encoding": "inplace",
        "label": "bytes32",
        "numberOfBytes": "32"
      },
      "t_bytes_storage": {
        "encoding": "bytes",
        "label": "bytes",
        "numberOfBytes": "32"
      },
      "t_contract(IERC20)2691": {
        "encoding": "inplace",
        "label": "contract IERC20",
        "numberOfBytes": "20"
      },
      "t_contract(IModule)8088": {
        "encoding": "inplace",
        "label": "contract IModule",
        "numberOfBytes": "20"
      },
      "t_contract(ISolverFactory)8517": {
        "encoding": "inplace",
        "label": "contract ISolverFactory",
        "numberOfBytes": "20"
      },
      "t_contract(Solver)12245": {
        "encoding": "inplace",
        "label": "contract Solver",
        "numberOfBytes": "20"
      },
      "t_enum(IngestType)12383": {
        "encoding": "inplace",
        "label": "enum SolverLib.IngestType",
        "numberOfBytes": "1"
      },
      "t_enum(Status)12390": {
        "encoding": "inplace",
        "label": "enum SolverLib.Status",
        "numberOfBytes": "1"
      },
      "t_mapping(t_address,t_bool)": {
        "encoding": "mapping",
        "key": "t_address",
        "label": "mapping(address => bool)",
        "numberOfBytes": "32",
        "value": "t_bool"
      },
      "t_mapping(t_bytes32,t_array(t_address)dyn_storage)": {
        "encoding": "mapping",
        "key": "t_bytes32",
        "label": "mapping(bytes32 => address[])",
        "numberOfBytes": "32",
        "value": "t_array(t_address)dyn_storage"
      },
      "t_mapping(t_bytes32,t_array(t_bytes_storage)dyn_storage)": {
        "encoding": "mapping",
        "key": "t_bytes32",
        "label": "mapping(bytes32 => bytes[])",
        "numberOfBytes": "32",
        "value": "t_array(t_bytes_storage)dyn_storage"
      },
      "t_mapping(t_bytes32,t_bytes_storage)": {
        "encoding": "mapping",
        "key": "t_bytes32",
        "label": "mapping(bytes32 => bytes)",
        "numberOfBytes": "32",
        "value": "t_bytes_storage"
      },
      "t_mapping(t_bytes32,t_uint256)": {
        "encoding": "mapping",
        "key": "t_bytes32",
        "label": "mapping(bytes32 => uint256)",
        "numberOfBytes": "32",
        "value": "t_uint256"
      },
      "t_string_storage": {
        "encoding": "bytes",
        "label": "string",
        "numberOfBytes": "32"
      },
      "t_struct(Allocation)12489_storage": {
        "encoding": "inplace",
        "label": "struct SolverLib.Allocation",
        "members": [
          {
            "astId": 12485,
            "contract": "contracts/solvers/BasicSolverV1.sol:BasicSolverV1",
            "label": "recipientAddressSlot",
            "offset": 0,
            "slot": "0",
            "type": "t_bytes32"
          },
          {
            "astId": 12488,
            "contract": "contracts/solvers/BasicSolverV1.sol:BasicSolverV1",
            "label": "recipientAmountSlots",
            "offset": 0,
            "slot": "1",
            "type": "t_array(t_bytes32)dyn_storage"
          }
        ],
        "numberOfBytes": "64"
      },
      "t_struct(Callbacks)12463_storage": {
        "encoding": "inplace",
        "label": "struct SolverLib.Callbacks",
        "members": [
          {
            "astId": 12451,
            "contract": "contracts/solvers/BasicSolverV1.sol:BasicSolverV1",
            "label": "numIncoming",
            "offset": 0,
            "slot": "0",
            "type": "t_uint256"
          },
          {
            "astId": 12453,
            "contract": "contracts/solvers/BasicSolverV1.sol:BasicSolverV1",
            "label": "numOutgoing",
            "offset": 0,
            "slot": "1",
            "type": "t_uint256"
          },
          {
            "astId": 12458,
            "contract": "contracts/solvers/BasicSolverV1.sol:BasicSolverV1",
            "label": "outgoing",
            "offset": 0,
            "slot": "2",
            "type": "t_mapping(t_bytes32,t_array(t_address)dyn_storage)"
          },
          {
            "astId": 12462,
            "contract": "contracts/solvers/BasicSolverV1.sol:BasicSolverV1",
            "label": "incoming",
            "offset": 0,
            "slot": "3",
            "type": "t_mapping(t_bytes32,t_uint256)"
          }
        ],
        "numberOfBytes": "128"
      },
      "t_struct(Condition)12418_storage": {
        "encoding": "inplace",
        "label": "struct SolverLib.Condition",
        "members": [
          {
            "astId": 12405,
            "contract": "contracts/solvers/BasicSolverV1.sol:BasicSolverV1",
            "label": "collateralToken",
            "offset": 0,
            "slot": "0",
            "type": "t_contract(IERC20)2691"
          },
          {
            "astId": 12407,
            "contract": "contracts/solvers/BasicSolverV1.sol:BasicSolverV1",
            "label": "questionId",
            "offset": 0,
            "slot": "1",
            "type": "t_bytes32"
          },
          {
            "astId": 12409,
            "contract": "contracts/solvers/BasicSolverV1.sol:BasicSolverV1",
            "label": "parentCollectionId",
            "offset": 0,
            "slot": "2",
            "type": "t_bytes32"
          },
          {
            "astId": 12411,
            "contract": "contracts/solvers/BasicSolverV1.sol:BasicSolverV1",
            "label": "conditionId",
            "offset": 0,
            "slot": "3",
            "type": "t_bytes32"
          },
          {
            "astId": 12414,
            "contract": "contracts/solvers/BasicSolverV1.sol:BasicSolverV1",
            "label": "payouts",
            "offset": 0,
            "slot": "4",
            "type": "t_array(t_uint256)dyn_storage"
          },
          {
            "astId": 12417,
            "contract": "contracts/solvers/BasicSolverV1.sol:BasicSolverV1",
            "label": "status",
            "offset": 0,
            "slot": "5",
            "type": "t_enum(Status)12390"
          }
        ],
        "numberOfBytes": "192"
      },
      "t_struct(ConditionBase)12483_storage": {
        "encoding": "inplace",
        "label": "struct SolverLib.ConditionBase",
        "members": [
          {
            "astId": 12466,
            "contract": "contracts/solvers/BasicSolverV1.sol:BasicSolverV1",
            "label": "collateralToken",
            "offset": 0,
            "slot": "0",
            "type": "t_contract(IERC20)2691"
          },
          {
            "astId": 12468,
            "contract": "contracts/solvers/BasicSolverV1.sol:BasicSolverV1",
            "label": "outcomeSlots",
            "offset": 0,
            "slot": "1",
            "type": "t_uint256"
          },
          {
            "astId": 12470,
            "contract": "contracts/solvers/BasicSolverV1.sol:BasicSolverV1",
            "label": "parentCollectionIndexSet",
            "offset": 0,
            "slot": "2",
            "type": "t_uint256"
          },
          {
            "astId": 12472,
            "contract": "contracts/solvers/BasicSolverV1.sol:BasicSolverV1",
            "label": "amountSlot",
            "offset": 0,
            "slot": "3",
            "type": "t_bytes32"
          },
          {
            "astId": 12475,
            "contract": "contracts/solvers/BasicSolverV1.sol:BasicSolverV1",
            "label": "partition",
            "offset": 0,
            "slot": "4",
            "type": "t_array(t_uint256)dyn_storage"
          },
          {
            "astId": 12479,
            "contract": "contracts/solvers/BasicSolverV1.sol:BasicSolverV1",
            "label": "allocations",
            "offset": 0,
            "slot": "5",
            "type": "t_array(t_struct(Allocation)12489_storage)dyn_storage"
          },
          {
            "astId": 12482,
            "contract": "contracts/solvers/BasicSolverV1.sol:BasicSolverV1",
            "label": "outcomeURIs",
            "offset": 0,
            "slot": "6",
            "type": "t_array(t_string_storage)dyn_storage"
          }
        ],
        "numberOfBytes": "224"
      },
      "t_struct(Config)12439_storage": {
        "encoding": "inplace",
        "label": "struct SolverLib.Config",
        "members": [
          {
            "astId": 12421,
            "contract": "contracts/solvers/BasicSolverV1.sol:BasicSolverV1",
            "label": "implementation",
            "offset": 0,
            "slot": "0",
            "type": "t_contract(Solver)12245"
          },
          {
            "astId": 12423,
            "contract": "contracts/solvers/BasicSolverV1.sol:BasicSolverV1",
            "label": "keeper",
            "offset": 0,
            "slot": "1",
            "type": "t_address"
          },
          {
            "astId": 12425,
            "contract": "contracts/solvers/BasicSolverV1.sol:BasicSolverV1",
            "label": "arbitrator",
            "offset": 0,
            "slot": "2",
            "type": "t_address"
          },
          {
            "astId": 12427,
            "contract": "contracts/solvers/BasicSolverV1.sol:BasicSolverV1",
            "label": "timelockSeconds",
            "offset": 0,
            "slot": "3",
            "type": "t_uint256"
          },
          {
            "astId": 12431,
            "contract": "contracts/solvers/BasicSolverV1.sol:BasicSolverV1",
            "label": "moduleLoaders",
            "offset": 0,
            "slot": "4",
            "type": "t_array(t_struct(Loader)8653_storage)dyn_storage"
          },
          {
            "astId": 12435,
            "contract": "contracts/solvers/BasicSolverV1.sol:BasicSolverV1",
            "label": "ingests",
            "offset": 0,
            "slot": "5",
            "type": "t_array(t_struct(Ingest)12402_storage)dyn_storage"
          },
          {
            "astId": 12438,
            "contract": "contracts/solvers/BasicSolverV1.sol:BasicSolverV1",
            "label": "conditionBase",
            "offset": 0,
            "slot": "6",
            "type": "t_struct(ConditionBase)12483_storage"
          }
        ],
        "numberOfBytes": "416"
      },
      "t_struct(Datas)12449_storage": {
        "encoding": "inplace",
        "label": "struct SolverLib.Datas",
        "members": [
          {
            "astId": 12444,
            "contract": "contracts/solvers/BasicSolverV1.sol:BasicSolverV1",
            "label": "slots",
            "offset": 0,
            "slot": "0",
            "type": "t_mapping(t_bytes32,t_array(t_bytes_storage)dyn_storage)"
          },
          {
            "astId": 12448,
            "contract": "contracts/solvers/BasicSolverV1.sol:BasicSolverV1",
            "label": "slotIngestIdx",
            "offset": 0,
            "slot": "1",
            "type": "t_mapping(t_bytes32,t_uint256)"
          }
        ],
        "numberOfBytes": "64"
      },
      "t_struct(Ingest)12402_storage": {
        "encoding": "inplace",
        "label": "struct SolverLib.Ingest",
        "members": [
          {
            "astId": 12392,
            "contract": "contracts/solvers/BasicSolverV1.sol:BasicSolverV1",
            "label": "executions",
            "offset": 0,
            "slot": "0",
            "type": "t_uint256"
          },
          {
            "astId": 12395,
            "contract": "contracts/solvers/BasicSolverV1.sol:BasicSolverV1",
            "label": "ingestType",
            "offset": 0,
            "slot": "1",
            "type": "t_enum(IngestType)12383"
          },
          {
            "astId": 12397,
            "contract": "contracts/solvers/BasicSolverV1.sol:BasicSolverV1",
            "label": "slot",
            "offset": 0,
            "slot": "2",
            "type": "t_bytes32"
          },
          {
            "astId": 12399,
            "contract": "contracts/solvers/BasicSolverV1.sol:BasicSolverV1",
            "label": "solverIndex",
            "offset": 0,
            "slot": "3",
            "type": "t_uint256"
          },
          {
            "astId": 12401,
            "contract": "contracts/solvers/BasicSolverV1.sol:BasicSolverV1",
            "label": "data",
            "offset": 0,
            "slot": "4",
            "type": "t_bytes_storage"
          }
        ],
        "numberOfBytes": "160"
      },
      "t_struct(Loader)8653_storage": {
        "encoding": "inplace",
        "label": "struct Modulated.Loader",
        "members": [
          {
            "astId": 8650,
            "contract": "contracts/solvers/BasicSolverV1.sol:BasicSolverV1",
            "label": "module",
            "offset": 0,
            "slot": "0",
            "type": "t_contract(IModule)8088"
          },
          {
            "astId": 8652,
            "contract": "contracts/solvers/BasicSolverV1.sol:BasicSolverV1",
            "label": "data",
            "offset": 0,
            "slot": "1",
            "type": "t_bytes_storage"
          }
        ],
        "numberOfBytes": "64"
      },
      "t_uint256": {
        "encoding": "inplace",
        "label": "uint256",
        "numberOfBytes": "32"
      },
      "t_uint8": {
        "encoding": "inplace",
        "label": "uint8",
        "numberOfBytes": "1"
      }
    }
  }
}