{
  "address": "0x5FbDB2315678afecb367f032d93F642f64180aa3",
  "abi": [
    {
      "inputs": [],
      "stateMutability": "nonpayable",
      "type": "constructor"
    },
    {
      "anonymous": false,
      "inputs": [
        {
          "indexed": true,
          "internalType": "address",
          "name": "account",
          "type": "address"
        },
        {
          "indexed": true,
          "internalType": "address",
          "name": "operator",
          "type": "address"
        },
        {
          "indexed": false,
          "internalType": "bool",
          "name": "approved",
          "type": "bool"
        }
      ],
      "name": "ApprovalForAll",
      "type": "event"
    },
    {
      "anonymous": false,
      "inputs": [
        {
          "indexed": true,
          "internalType": "bytes32",
          "name": "conditionId",
          "type": "bytes32"
        },
        {
          "indexed": true,
          "internalType": "address",
          "name": "oracle",
          "type": "address"
        },
        {
          "indexed": true,
          "internalType": "bytes32",
          "name": "questionId",
          "type": "bytes32"
        },
        {
          "indexed": false,
          "internalType": "uint256",
          "name": "outcomeSlotCount",
          "type": "uint256"
        }
      ],
      "name": "ConditionPreparation",
      "type": "event"
    },
    {
      "anonymous": false,
      "inputs": [
        {
          "indexed": true,
          "internalType": "bytes32",
          "name": "conditionId",
          "type": "bytes32"
        },
        {
          "indexed": true,
          "internalType": "address",
          "name": "oracle",
          "type": "address"
        },
        {
          "indexed": true,
          "internalType": "bytes32",
          "name": "questionId",
          "type": "bytes32"
        },
        {
          "indexed": false,
          "internalType": "uint256",
          "name": "outcomeSlotCount",
          "type": "uint256"
        },
        {
          "indexed": false,
          "internalType": "uint256[]",
          "name": "payoutNumerators",
          "type": "uint256[]"
        }
      ],
      "name": "ConditionResolution",
      "type": "event"
    },
    {
      "anonymous": false,
      "inputs": [
        {
          "indexed": true,
          "internalType": "address",
          "name": "redeemer",
          "type": "address"
        },
        {
          "indexed": true,
          "internalType": "contract IERC20",
          "name": "collateralToken",
          "type": "address"
        },
        {
          "indexed": true,
          "internalType": "bytes32",
          "name": "parentCollectionId",
          "type": "bytes32"
        },
        {
          "indexed": false,
          "internalType": "bytes32",
          "name": "conditionId",
          "type": "bytes32"
        },
        {
          "indexed": false,
          "internalType": "uint256[]",
          "name": "indexSets",
          "type": "uint256[]"
        },
        {
          "indexed": false,
          "internalType": "uint256",
          "name": "payout",
          "type": "uint256"
        }
      ],
      "name": "PayoutRedemption",
      "type": "event"
    },
    {
      "anonymous": false,
      "inputs": [
        {
          "indexed": true,
          "internalType": "address",
          "name": "stakeholder",
          "type": "address"
        },
        {
          "indexed": false,
          "internalType": "contract IERC20",
          "name": "collateralToken",
          "type": "address"
        },
        {
          "indexed": true,
          "internalType": "bytes32",
          "name": "parentCollectionId",
          "type": "bytes32"
        },
        {
          "indexed": true,
          "internalType": "bytes32",
          "name": "conditionId",
          "type": "bytes32"
        },
        {
          "indexed": false,
          "internalType": "uint256[]",
          "name": "partition",
          "type": "uint256[]"
        },
        {
          "indexed": false,
          "internalType": "uint256",
          "name": "amount",
          "type": "uint256"
        }
      ],
      "name": "PositionSplit",
      "type": "event"
    },
    {
      "anonymous": false,
      "inputs": [
        {
          "indexed": true,
          "internalType": "address",
          "name": "stakeholder",
          "type": "address"
        },
        {
          "indexed": false,
          "internalType": "contract IERC20",
          "name": "collateralToken",
          "type": "address"
        },
        {
          "indexed": true,
          "internalType": "bytes32",
          "name": "parentCollectionId",
          "type": "bytes32"
        },
        {
          "indexed": true,
          "internalType": "bytes32",
          "name": "conditionId",
          "type": "bytes32"
        },
        {
          "indexed": false,
          "internalType": "uint256[]",
          "name": "partition",
          "type": "uint256[]"
        },
        {
          "indexed": false,
          "internalType": "uint256",
          "name": "amount",
          "type": "uint256"
        }
      ],
      "name": "PositionsMerge",
      "type": "event"
    },
    {
      "anonymous": false,
      "inputs": [
        {
          "indexed": true,
          "internalType": "address",
          "name": "operator",
          "type": "address"
        },
        {
          "indexed": true,
          "internalType": "address",
          "name": "from",
          "type": "address"
        },
        {
          "indexed": true,
          "internalType": "address",
          "name": "to",
          "type": "address"
        },
        {
          "indexed": false,
          "internalType": "uint256[]",
          "name": "ids",
          "type": "uint256[]"
        },
        {
          "indexed": false,
          "internalType": "uint256[]",
          "name": "values",
          "type": "uint256[]"
        }
      ],
      "name": "TransferBatch",
      "type": "event"
    },
    {
      "anonymous": false,
      "inputs": [
        {
          "indexed": true,
          "internalType": "address",
          "name": "operator",
          "type": "address"
        },
        {
          "indexed": true,
          "internalType": "address",
          "name": "from",
          "type": "address"
        },
        {
          "indexed": true,
          "internalType": "address",
          "name": "to",
          "type": "address"
        },
        {
          "indexed": false,
          "internalType": "uint256",
          "name": "id",
          "type": "uint256"
        },
        {
          "indexed": false,
          "internalType": "uint256",
          "name": "value",
          "type": "uint256"
        }
      ],
      "name": "TransferSingle",
      "type": "event"
    },
    {
      "anonymous": false,
      "inputs": [
        {
          "indexed": false,
          "internalType": "string",
          "name": "value",
          "type": "string"
        },
        {
          "indexed": true,
          "internalType": "uint256",
          "name": "id",
          "type": "uint256"
        }
      ],
      "name": "URI",
      "type": "event"
    },
    {
      "inputs": [
        {
          "internalType": "address",
          "name": "account",
          "type": "address"
        },
        {
          "internalType": "uint256",
          "name": "id",
          "type": "uint256"
        }
      ],
      "name": "balanceOf",
      "outputs": [
        {
          "internalType": "uint256",
          "name": "",
          "type": "uint256"
        }
      ],
      "stateMutability": "view",
      "type": "function"
    },
    {
      "inputs": [
        {
          "internalType": "address[]",
          "name": "accounts",
          "type": "address[]"
        },
        {
          "internalType": "uint256[]",
          "name": "ids",
          "type": "uint256[]"
        }
      ],
      "name": "balanceOfBatch",
      "outputs": [
        {
          "internalType": "uint256[]",
          "name": "",
          "type": "uint256[]"
        }
      ],
      "stateMutability": "view",
      "type": "function"
    },
    {
      "inputs": [
        {
          "internalType": "bytes32",
          "name": "parentCollectionId",
          "type": "bytes32"
        },
        {
          "internalType": "bytes32",
          "name": "conditionId",
          "type": "bytes32"
        },
        {
          "internalType": "uint256",
          "name": "indexSet",
          "type": "uint256"
        }
      ],
      "name": "getCollectionId",
      "outputs": [
        {
          "internalType": "bytes32",
          "name": "",
          "type": "bytes32"
        }
      ],
      "stateMutability": "view",
      "type": "function"
    },
    {
      "inputs": [
        {
          "internalType": "address",
          "name": "oracle",
          "type": "address"
        },
        {
          "internalType": "bytes32",
          "name": "questionId",
          "type": "bytes32"
        },
        {
          "internalType": "uint256",
          "name": "outcomeSlotCount",
          "type": "uint256"
        }
      ],
      "name": "getConditionId",
      "outputs": [
        {
          "internalType": "bytes32",
          "name": "",
          "type": "bytes32"
        }
      ],
      "stateMutability": "pure",
      "type": "function"
    },
    {
      "inputs": [
        {
          "internalType": "bytes32",
          "name": "conditionId",
          "type": "bytes32"
        }
      ],
      "name": "getOutcomeSlotCount",
      "outputs": [
        {
          "internalType": "uint256",
          "name": "",
          "type": "uint256"
        }
      ],
      "stateMutability": "view",
      "type": "function"
    },
    {
      "inputs": [
        {
          "internalType": "contract IERC20",
          "name": "collateralToken",
          "type": "address"
        },
        {
          "internalType": "bytes32",
          "name": "collectionId",
          "type": "bytes32"
        }
      ],
      "name": "getPositionId",
      "outputs": [
        {
          "internalType": "uint256",
          "name": "",
          "type": "uint256"
        }
      ],
      "stateMutability": "pure",
      "type": "function"
    },
    {
      "inputs": [
        {
          "internalType": "address",
          "name": "account",
          "type": "address"
        },
        {
          "internalType": "address",
          "name": "operator",
          "type": "address"
        }
      ],
      "name": "isApprovedForAll",
      "outputs": [
        {
          "internalType": "bool",
          "name": "",
          "type": "bool"
        }
      ],
      "stateMutability": "view",
      "type": "function"
    },
    {
      "inputs": [
        {
          "internalType": "contract IERC20",
          "name": "collateralToken",
          "type": "address"
        },
        {
          "internalType": "bytes32",
          "name": "parentCollectionId",
          "type": "bytes32"
        },
        {
          "internalType": "bytes32",
          "name": "conditionId",
          "type": "bytes32"
        },
        {
          "internalType": "uint256[]",
          "name": "partition",
          "type": "uint256[]"
        },
        {
          "internalType": "uint256",
          "name": "amount",
          "type": "uint256"
        }
      ],
      "name": "mergePositions",
      "outputs": [],
      "stateMutability": "nonpayable",
      "type": "function"
    },
    {
      "inputs": [
        {
          "internalType": "bytes32",
          "name": "",
          "type": "bytes32"
        }
      ],
      "name": "payoutDenominator",
      "outputs": [
        {
          "internalType": "uint256",
          "name": "",
          "type": "uint256"
        }
      ],
      "stateMutability": "view",
      "type": "function"
    },
    {
      "inputs": [
        {
          "internalType": "bytes32",
          "name": "",
          "type": "bytes32"
        },
        {
          "internalType": "uint256",
          "name": "",
          "type": "uint256"
        }
      ],
      "name": "payoutNumerators",
      "outputs": [
        {
          "internalType": "uint256",
          "name": "",
          "type": "uint256"
        }
      ],
      "stateMutability": "view",
      "type": "function"
    },
    {
      "inputs": [
        {
          "internalType": "address",
          "name": "oracle",
          "type": "address"
        },
        {
          "internalType": "bytes32",
          "name": "questionId",
          "type": "bytes32"
        },
        {
          "internalType": "uint256",
          "name": "outcomeSlotCount",
          "type": "uint256"
        }
      ],
      "name": "prepareCondition",
      "outputs": [],
      "stateMutability": "nonpayable",
      "type": "function"
    },
    {
      "inputs": [
        {
          "internalType": "contract IERC20",
          "name": "collateralToken",
          "type": "address"
        },
        {
          "internalType": "bytes32",
          "name": "parentCollectionId",
          "type": "bytes32"
        },
        {
          "internalType": "bytes32",
          "name": "conditionId",
          "type": "bytes32"
        },
        {
          "internalType": "uint256[]",
          "name": "indexSets",
          "type": "uint256[]"
        }
      ],
      "name": "redeemPositions",
      "outputs": [],
      "stateMutability": "nonpayable",
      "type": "function"
    },
    {
      "inputs": [
        {
          "internalType": "bytes32",
          "name": "questionId",
          "type": "bytes32"
        },
        {
          "internalType": "uint256[]",
          "name": "payouts",
          "type": "uint256[]"
        }
      ],
      "name": "reportPayouts",
      "outputs": [],
      "stateMutability": "nonpayable",
      "type": "function"
    },
    {
      "inputs": [
        {
          "internalType": "address",
          "name": "from",
          "type": "address"
        },
        {
          "internalType": "address",
          "name": "to",
          "type": "address"
        },
        {
          "internalType": "uint256[]",
          "name": "ids",
          "type": "uint256[]"
        },
        {
          "internalType": "uint256[]",
          "name": "amounts",
          "type": "uint256[]"
        },
        {
          "internalType": "bytes",
          "name": "data",
          "type": "bytes"
        }
      ],
      "name": "safeBatchTransferFrom",
      "outputs": [],
      "stateMutability": "nonpayable",
      "type": "function"
    },
    {
      "inputs": [
        {
          "internalType": "address",
          "name": "from",
          "type": "address"
        },
        {
          "internalType": "address",
          "name": "to",
          "type": "address"
        },
        {
          "internalType": "uint256",
          "name": "id",
          "type": "uint256"
        },
        {
          "internalType": "uint256",
          "name": "amount",
          "type": "uint256"
        },
        {
          "internalType": "bytes",
          "name": "data",
          "type": "bytes"
        }
      ],
      "name": "safeTransferFrom",
      "outputs": [],
      "stateMutability": "nonpayable",
      "type": "function"
    },
    {
      "inputs": [
        {
          "internalType": "address",
          "name": "operator",
          "type": "address"
        },
        {
          "internalType": "bool",
          "name": "approved",
          "type": "bool"
        }
      ],
      "name": "setApprovalForAll",
      "outputs": [],
      "stateMutability": "nonpayable",
      "type": "function"
    },
    {
      "inputs": [
        {
          "internalType": "contract IERC20",
          "name": "collateralToken",
          "type": "address"
        },
        {
          "internalType": "bytes32",
          "name": "parentCollectionId",
          "type": "bytes32"
        },
        {
          "internalType": "bytes32",
          "name": "conditionId",
          "type": "bytes32"
        },
        {
          "internalType": "uint256[]",
          "name": "partition",
          "type": "uint256[]"
        },
        {
          "internalType": "uint256",
          "name": "amount",
          "type": "uint256"
        }
      ],
      "name": "splitPosition",
      "outputs": [],
      "stateMutability": "nonpayable",
      "type": "function"
    },
    {
      "inputs": [
        {
          "internalType": "bytes4",
          "name": "interfaceId",
          "type": "bytes4"
        }
      ],
      "name": "supportsInterface",
      "outputs": [
        {
          "internalType": "bool",
          "name": "",
          "type": "bool"
        }
      ],
      "stateMutability": "view",
      "type": "function"
    },
    {
      "inputs": [
        {
          "internalType": "uint256",
          "name": "",
          "type": "uint256"
        }
      ],
      "name": "uri",
      "outputs": [
        {
          "internalType": "string",
          "name": "",
          "type": "string"
        }
      ],
      "stateMutability": "view",
      "type": "function"
    }
  ],
  "transactionHash": "0x7fbb47bb8e3ad7af739cda6471a25a256c5f49086ddc49ff9a6d3160d4f090fc",
  "args": [],
  "solcInputHash": "b286bf05d62e7a1cf215b0af333f6863",
  "bytecode": "0x60806040523480156200001157600080fd5b506040805160208101909152600081526200002c8162000033565b506200012e565b8051620000489060029060208401906200004c565b5050565b8280546200005a90620000f2565b90600052602060002090601f0160209004810192826200007e5760008555620000c9565b82601f106200009957805160ff1916838001178555620000c9565b82800160010185558215620000c9579182015b82811115620000c9578251825591602001919060010190620000ac565b50620000d7929150620000db565b5090565b5b80821115620000d75760008155600101620000dc565b600181811c908216806200010757607f821691505b6020821081036200012857634e487b7160e01b600052602260045260246000fd5b50919050565b61388c806200013e6000396000f3fe608060405234801561001057600080fd5b50600436106100f05760003560e01c8062fdd58e146100f557806301b7037c1461011b57806301ffc9a7146101305780630504c814146101535780630e89341c146101665780632eb2c2d61461018657806339dd7530146101995780634e1273f4146101ac57806372ce4275146101cc578063852c6ae2146101df578063856296f7146101f25780639e7212ad14610205578063a22cb46514610218578063c49298ac1461022b578063d42dc0c21461023e578063d96ee7541461025e578063dd34de6714610271578063e985e9c514610291578063f242432a146102cd575b600080fd5b610108610103366004612a49565b6102e0565b6040519081526020015b60405180910390f35b61012e610129366004612ac0565b610377565b005b61014361013e366004612b3f565b6106a7565b6040519015158152602001610112565b610108610161366004612b5c565b6106f9565b610179610174366004612b7e565b61072a565b6040516101129190612bf3565b61012e610194366004612d4f565b6107be565b6101086101a7366004612a49565b610855565b6101bf6101ba366004612dfc565b610868565b6040516101129190612f03565b61012e6101da366004612f16565b610991565b6101086101ed366004612f87565b610ccd565b610108610200366004612fbc565b610ce2565b61012e610213366004612f16565b610cef565b61012e610226366004612ff6565b611004565b61012e61023936600461302f565b6110da565b61010861024c366004612b7e565b60009081526003602052604090205490565b61012e61026c366004612f87565b611362565b61010861027f366004612b7e565b60046020526000908152604090205481565b61014361029f36600461307a565b6001600160a01b03918216600090815260016020908152604080832093909416825291909152205460ff1690565b61012e6102db3660046130a8565b6114e7565b60006001600160a01b0383166103515760405162461bcd60e51b815260206004820152602b60248201527f455243313135353a2062616c616e636520717565727920666f7220746865207a60448201526a65726f206164647265737360a81b60648201526084015b60405180910390fd5b506000908152602081815260408083206001600160a01b03949094168352929052205490565b600083815260046020526040902054806103e15760405162461bcd60e51b815260206004820152602560248201527f726573756c7420666f7220636f6e646974696f6e206e6f74207265636569766560448201526419081e595d60da1b6064820152608401610348565b6000848152600360205260409020548061040d5760405162461bcd60e51b815260040161034890613110565b60008061041d600180851b61315a565b905060005b8581101561054457600087878381811061043e5761043e613171565b90506020020135905060008111801561045657508281105b6104725760405162461bcd60e51b815260040161034890613187565b60006104888c6104838d8d8661156e565b611866565b90506000805b878110156104ec576001811b8416156104da5760008c81526003602052604090208054829081106104c1576104c1613171565b9060005260206000200154826104d791906131b6565b91505b806104e4816131ce565b91505061048e565b5060006104f933846102e0565b9050801561052d578861050c83836131e7565b610516919061321c565b61052090886131b6565b965061052d3384836118a9565b50505050808061053c906131ce565b915050610422565b50811561064a57876106265760405163a9059cbb60e01b81526001600160a01b038a169063a9059cbb9061057e9033908690600401613230565b6020604051808303816000875af115801561059d573d6000803e3d6000fd5b505050506040513d601f19601f820116820180604052508101906105c19190613249565b6106215760405162461bcd60e51b815260206004820152602b60248201527f636f756c64206e6f74207472616e73666572207061796f757420746f206d657360448201526a39b0b3b29039b2b73232b960a91b6064820152608401610348565b61064a565b61064a336106348b8b611866565b8460405180602001604052806000815250611999565b87896001600160a01b0316336001600160a01b03167f2682012a4a4f1973119f1c9b90745d1bd91fa2bab387344f044cb3586864d18d8a8a8a88604051610694949392919061329c565b60405180910390a4505050505050505050565b60006001600160e01b03198216636cdb3d1360e11b14806106d857506001600160e01b031982166303a24d0760e21b145b806106f357506301ffc9a760e01b6001600160e01b03198316145b92915050565b6003602052816000526040600020818154811061071557600080fd5b90600052602060002001600091509150505481565b606060028054610739906132c7565b80601f0160208091040260200160405190810160405280929190818152602001828054610765906132c7565b80156107b25780601f10610787576101008083540402835291602001916107b2565b820191906000526020600020905b81548152906001019060200180831161079557829003601f168201915b50505050509050919050565b6001600160a01b0385163314806107da57506107da853361029f565b6108415760405162461bcd60e51b815260206004820152603260248201527f455243313135353a207472616e736665722063616c6c6572206973206e6f74206044820152711bdddb995c881b9bdc88185c1c1c9bdd995960721b6064820152608401610348565b61084e8585858585611a57565b5050505050565b60006108618383611866565b9392505050565b606081518351146108cd5760405162461bcd60e51b815260206004820152602960248201527f455243313135353a206163636f756e747320616e6420696473206c656e677468604482015268040dad2e6dac2e8c6d60bb1b6064820152608401610348565b600083516001600160401b038111156108e8576108e8612c06565b604051908082528060200260200182016040528015610911578160200160208202803683370190505b50905060005b84518110156109895761095c85828151811061093557610935613171565b602002602001015185838151811061094f5761094f613171565b60200260200101516102e0565b82828151811061096e5761096e613171565b6020908102919091010152610982816131ce565b9050610917565b509392505050565b600182116109b15760405162461bcd60e51b815260040161034890613301565b600084815260036020526040902054806109dd5760405162461bcd60e51b815260040161034890613110565b60006109ec600180841b61315a565b9050806000856001600160401b03811115610a0957610a09612c06565b604051908082528060200260200182016040528015610a32578160200160208202803683370190505b5090506000866001600160401b03811115610a4f57610a4f612c06565b604051908082528060200260200182016040528015610a78578160200160208202803683370190505b50905060005b87811015610b51576000898983818110610a9a57610a9a613171565b905060200201359050600081118015610ab257508581105b610ace5760405162461bcd60e51b815260040161034890613187565b8085821614610aef5760405162461bcd60e51b815260040161034890613336565b93841893610b028d6104838e8e8561156e565b848381518110610b1457610b14613171565b60200260200101818152505087838381518110610b3357610b33613171565b60209081029190910101525080610b49816131ce565b915050610a7e565b5082600003610c475789610c33576040516323b872dd60e01b8152336004820152306024820152604481018790526001600160a01b038c16906323b872dd906064016020604051808303816000875af1158015610bb2573d6000803e3d6000fd5b505050506040513d601f19601f82011682018060405250810190610bd69190613249565b610c2e5760405162461bcd60e51b815260206004820152602360248201527f636f756c64206e6f74207265636569766520636f6c6c61746572616c20746f6b604482015262656e7360e81b6064820152608401610348565b610c5c565b610c2e33610c418d8d611866565b886118a9565b610c5c33610c418d6104838e8e898b1861156e565b610c7733838360405180602001604052806000815250611be1565b888a336001600160a01b03167f2e6bb91f8cbcda0c93623c54d0403a43514fabc40084ec96b6d5379a747862988e8c8c8c604051610cb89493929190613366565b60405180910390a45050505050505050505050565b6000610cda848484611d1a565b949350505050565b6000610cda84848461156e565b60018211610d0f5760405162461bcd60e51b815260040161034890613301565b60008481526003602052604090205480610d3b5760405162461bcd60e51b815260040161034890613110565b6000610d4a600180841b61315a565b9050806000856001600160401b03811115610d6757610d67612c06565b604051908082528060200260200182016040528015610d90578160200160208202803683370190505b5090506000866001600160401b03811115610dad57610dad612c06565b604051908082528060200260200182016040528015610dd6578160200160208202803683370190505b50905060005b87811015610eaf576000898983818110610df857610df8613171565b905060200201359050600081118015610e1057508581105b610e2c5760405162461bcd60e51b815260040161034890613187565b8085821614610e4d5760405162461bcd60e51b815260040161034890613336565b93841893610e608d6104838e8e8561156e565b848381518110610e7257610e72613171565b60200260200101818152505087838381518110610e9157610e91613171565b60209081029190910101525080610ea7816131ce565b915050610ddc565b50610ebb338383611d64565b82600003610fae5789610f8a5760405163a9059cbb60e01b81526001600160a01b038c169063a9059cbb90610ef69033908a90600401613230565b6020604051808303816000875af1158015610f15573d6000803e3d6000fd5b505050506040513d601f19601f82011682018060405250810190610f399190613249565b610f855760405162461bcd60e51b815260206004820181905260248201527f636f756c64206e6f742073656e6420636f6c6c61746572616c20746f6b656e736044820152606401610348565b610fc3565b610f8533610f988d8d611866565b8860405180602001604052806000815250611999565b610fc333610f988d6104838e8e898b1861156e565b888a336001600160a01b03167f6f13ca62553fcc2bcd2372180a43949c1e4cebba603901ede2f4e14f36b282ca8e8c8c8c604051610cb89493929190613366565b6001600160a01b038216330361106e5760405162461bcd60e51b815260206004820152602960248201527f455243313135353a2073657474696e6720617070726f76616c20737461747573604482015268103337b91039b2b63360b91b6064820152608401610348565b3360008181526001602090815260408083206001600160a01b03871680855290835292819020805460ff191686151590811790915590519081529192917f17307eab39ab6107e8899845ad3d59bd9653f200f220920489ca2b5937696c31910160405180910390a35050565b80600181116110fb5760405162461bcd60e51b81526004016103489061338b565b6000611108338684611d1a565b60008181526003602052604090205490915082146111685760405162461bcd60e51b815260206004820152601f60248201527f636f6e646974696f6e206e6f74207072657061726564206f7220666f756e64006044820152606401610348565b600081815260046020526040902054156111c45760405162461bcd60e51b815260206004820152601e60248201527f7061796f75742064656e6f6d696e61746f7220616c72656164792073657400006044820152606401610348565b6000805b838110156112b85760008686838181106111e4576111e4613171565b90506020020135905080836111f991906131b6565b60008581526003602052604090208054919450908390811061121d5761121d613171565b90600052602060002001546000146112765760405162461bcd60e51b815260206004820152601c60248201527b1c185e5bdd5d081b9d5b595c985d1bdc88185b1c9958591e481cd95d60221b6044820152606401610348565b600084815260036020526040902080548291908490811061129957611299613171565b60009182526020909120015550806112b0816131ce565b9150506111c8565b50600081116113005760405162461bcd60e51b81526020600482015260146024820152737061796f757420697320616c6c207a65726f657360601b6044820152606401610348565b600082815260046020908152604080832084905560039091529081902090518791339185917fb44d84d3289691f71497564b85d4233648d9dbae8cbdbb4329f301c3a0185894916113529189916133d5565b60405180910390a4505050505050565b6101008111156113ad5760405162461bcd60e51b8152602060048201526016602482015275746f6f206d616e79206f7574636f6d6520736c6f747360501b6044820152606401610348565b600181116113cd5760405162461bcd60e51b81526004016103489061338b565b60006113da848484611d1a565b600081815260036020526040902054909150156114365760405162461bcd60e51b815260206004820152601a60248201527918dbdb991a5d1a5bdb88185b1c9958591e481c1c995c185c995960321b6044820152606401610348565b816001600160401b0381111561144e5761144e612c06565b604051908082528060200260200182016040528015611477578160200160208202803683370190505b506000828152600360209081526040909120825161149b93919291909101906129d1565b5082846001600160a01b0316827fab3760c3bd2bb38b5bcf54dc79802ed67338b4cf29f3054ded67ed24661e4177856040516114d991815260200190565b60405180910390a450505050565b6001600160a01b0385163314806115035750611503853361029f565b6115615760405162461bcd60e51b815260206004820152602960248201527f455243313135353a2063616c6c6572206973206e6f74206f776e6572206e6f7260448201526808185c1c1c9bdd995960ba1b6064820152608401610348565b61084e8585858585611ec0565b600080838360405160200161158d929190918252602082015260400190565b60408051601f198184030181529190528051602090910120905060ff81901c15156000805b60008051602061383783398151915260018508935060008051602061383783398151915260036000805160206138378339815191528087880987090890506115f981611fcb565b915080600080516020613837833981519152838409036115b2578280156116285750611626600283613428565b155b806116465750821580156116465750611642600283613428565b6001145b15611666576116638260008051602061383783398151915261315a565b91505b87801561183d5760fe81901c151593506001600160fe1b0316600080516020613837833981519152600360008051602061383783398151915280848509840908915060006116b383611fcb565b90508480156116ca57506116c8600282613428565b155b806116e85750841580156116e857506116e4600282613428565b6001145b15611708576117058160008051602061383783398151915261315a565b90505b826000805160206138378339815191528283091461175b5760405162461bcd60e51b815260206004820152601060248201526f1a5b9d985b1a59081c185c995b9d125160821b6044820152606401610348565b60408051602081018890529081018590526060810183905260808101829052600090819060069060a00160408051601f198184030181529082905261179f9161343c565b600060405180830381855afa9150503d80600081146117da576040519150601f19603f3d011682016040523d82523d6000602084013e6117df565b606091505b5091509150816118205760405162461bcd60e51b815260206004820152600c60248201526b1958d859190819985a5b195960a21b6044820152606401610348565b808060200190518101906118349190613458565b90985095505050505b611848600284613428565b60010361185957600160fe1b851894505b5092979650505050505050565b6040516001600160601b0319606084901b1660208201526034810182905260009060540160408051601f1981840301815291905280516020909101209392505050565b6001600160a01b0383166118cf5760405162461bcd60e51b81526004016103489061347c565b336118ff818560006118e087612770565b6118e987612770565b5050604080516020810190915260009052505050565b6000838152602081815260408083206001600160a01b0388168452909152902054828110156119405760405162461bcd60e51b8152600401610348906134bf565b6000848152602081815260408083206001600160a01b0389811680865291845282852088870390558251898152938401889052909290861691600080516020613817833981519152910160405180910390a45050505050565b6001600160a01b0384166119bf5760405162461bcd60e51b815260040161034890613503565b336119d9816000876119d088612770565b61084e88612770565b6000848152602081815260408083206001600160a01b038916845290915281208054859290611a099084906131b6565b909155505060408051858152602081018590526001600160a01b038088169260009291851691600080516020613817833981519152910160405180910390a461084e816000878787876127bb565b8151835114611a785760405162461bcd60e51b815260040161034890613544565b6001600160a01b038416611a9e5760405162461bcd60e51b81526004016103489061358c565b3360005b8451811015611b85576000858281518110611abf57611abf613171565b602002602001015190506000858381518110611add57611add613171565b602090810291909101810151600084815280835260408082206001600160a01b038e168352909352919091205490915081811015611b2d5760405162461bcd60e51b8152600401610348906135d1565b6000838152602081815260408083206001600160a01b038e8116855292528083208585039055908b16825281208054849290611b6a9084906131b6565b9250508190555050505080611b7e906131ce565b9050611aa2565b50846001600160a01b0316866001600160a01b0316826001600160a01b03166000805160206137f78339815191528787604051611bc392919061361b565b60405180910390a4611bd9818787878787612916565b505050505050565b6001600160a01b038416611c075760405162461bcd60e51b815260040161034890613503565b8151835114611c285760405162461bcd60e51b815260040161034890613544565b3360005b8451811015611cc457838181518110611c4757611c47613171565b6020026020010151600080878481518110611c6457611c64613171565b602002602001015181526020019081526020016000206000886001600160a01b03166001600160a01b031681526020019081526020016000206000828254611cac91906131b6565b90915550819050611cbc816131ce565b915050611c2c565b50846001600160a01b031660006001600160a01b0316826001600160a01b03166000805160206137f78339815191528787604051611d0392919061361b565b60405180910390a461084e81600087878787612916565b6040516001600160601b0319606085901b16602082015260348101839052605481018290526000906074016040516020818303038152906040528051906020012090509392505050565b6001600160a01b038316611d8a5760405162461bcd60e51b81526004016103489061347c565b8051825114611dab5760405162461bcd60e51b815260040161034890613544565b604080516020810190915260009081905233905b8351811015611e81576000848281518110611ddc57611ddc613171565b602002602001015190506000848381518110611dfa57611dfa613171565b602090810291909101810151600084815280835260408082206001600160a01b038c168352909352919091205490915081811015611e4a5760405162461bcd60e51b8152600401610348906134bf565b6000928352602083815260408085206001600160a01b038b1686529091529092209103905580611e79816131ce565b915050611dbf565b5060006001600160a01b0316846001600160a01b0316826001600160a01b03166000805160206137f783398151915286866040516114d992919061361b565b6001600160a01b038416611ee65760405162461bcd60e51b81526004016103489061358c565b33611ef68187876119d088612770565b6000848152602081815260408083206001600160a01b038a16845290915290205483811015611f375760405162461bcd60e51b8152600401610348906135d1565b6000858152602081815260408083206001600160a01b038b8116855292528083208785039055908816825281208054869290611f749084906131b6565b909155505060408051868152602081018690526001600160a01b03808916928a82169291861691600080516020613817833981519152910160405180910390a4611fc28288888888886127bb565b50505050505050565b6000600080516020613837833981519152808380099150808283098181820990508181840992508183850993508184840992508183840990508181820982818309905082818209905082818209905082818309915082828609945082858609915082828309915082828509935082848509915082828309915082828309915082828509915082828609945082858609915082828309915082828309915082828609915082828509935082848609945082858609915082828309915082828509935082848509915082828309905082818209905082818209905082818309915082828609945082858509935082848509915082828309915082828309915082828609945082858609915082828309915082828609915082828309915082828309915082828609915082828509935082848509915082828309905082818209905082818309905082818509905082818209905082818209905082818209905082818209905082818309915082828609945082858609915082828609915082828509935082848509915082828509915082828309915082828309905082818309905082818209838182099050838182099050838182099050838182099050838183099150508281830991508282860994508285850993508284850991508282860994508285850993508284860994508285850993508284860994508285860991508282860991508282830991508282850993508284850991508282830991508282860994508285850993508284850991508282850991508282860994508285850993508284860994508285850993508284850991508282830991508282850991508282860994508285860991508282860991508282850993508284860994508285850993508284860994508285850993508284850991508282850991508282830991508282860994508285850993508284850991508282850991508282830991508282860994508285860991508282830990508281820990508281830990508281860990508281820990508281820990508281820990508281820990508281830991508282850993508284860994508285850993508284860994508285860991508282860991508282830991508282830991508282830991508282860991508282850993508284850991508282850991508282830991508282860994508285860991508282860991508282850993508284860994508285860991508282830991508282850993508284860994508285860991508282850993508284860994508285850993508284850991508282850991508282860994508285850993508284850991508282850991508282830991508282830991508282860994508285860991508282830991508282830991508282860991508282850993508284860994508285860991508282860990508281820990508281820990508281830991508282850993508284850991508282860994508285850993508284860994508285850993508284860994508285850993508284850991508282850990508281850991508282830991508282830991508282820991505081818509935081848409925081838509935081848409925081838509935081848509905081818509905081818409925050808284099250808384099250808384099250808384099250808384099250808384099250808384099250808384099250808384099250808384099250808384099250808384099250808384099250808384099250808384099250808384099250808384099250808384099250808384099250808384099250808384099250808384099250808384099250808384099250808384099250808384099250808384099250808384099250808384099250808384099250808384099250808384099250808384099250808384099250808384099250808384099250808384099250808384099250808384099250808384099250808384099250808384099250808384099250808384099250808384099250808384099250808384099250808384099250808384099250808384099250808384099250808384099250808384099250808384099250808384099250808384099250808384099250808384099250808384099250808384099250808384099250808384099250808384099250808384099250808384099250808384099250808384099250808384099250808384099250808384099250808384099250808384099250808384099250808384099250808384099250808384099250808384099250808384099250808384099250808384099250808384099250808384099250808384099250808384099250808384099250808384099250808384099250808384099250808384099250808384099250808384099250808384099250808384099250808384099250808384099250808384099250808384099250808384099250808384099250808384099250808384099250808384099250808384099250808384099250808384099250808384099250808384099250808384099250808384099250808384099250808384099250808384099250808384099250808384099250808384099250808384099250808384099250808384099250808384099250808384099250808384099250808384099250808384099250808384099250808384099250808384099250808384099250808383099392505050565b604080516001808252818301909252606091600091906020808301908036833701905050905082816000815181106127aa576127aa613171565b602090810291909101015292915050565b6001600160a01b0384163b15611bd95760405163f23a6e6160e01b81526001600160a01b0385169063f23a6e61906127ff9089908990889088908890600401613649565b6020604051808303816000875af192505050801561283a575060408051601f3d908101601f191682019092526128379181019061368e565b60015b6128e6576128466136ab565b806308c379a00361287f575061285a6136c7565b806128655750612881565b8060405162461bcd60e51b81526004016103489190612bf3565b505b60405162461bcd60e51b815260206004820152603460248201527f455243313135353a207472616e7366657220746f206e6f6e20455243313135356044820152732932b1b2b4bb32b91034b6b83632b6b2b73a32b960611b6064820152608401610348565b6001600160e01b0319811663f23a6e6160e01b14611fc25760405162461bcd60e51b815260040161034890613750565b6001600160a01b0384163b15611bd95760405163bc197c8160e01b81526001600160a01b0385169063bc197c819061295a9089908990889088908890600401613798565b6020604051808303816000875af1925050508015612995575060408051601f3d908101601f191682019092526129929181019061368e565b60015b6129a1576128466136ab565b6001600160e01b0319811663bc197c8160e01b14611fc25760405162461bcd60e51b815260040161034890613750565b828054828255906000526020600020908101928215612a0c579160200282015b82811115612a0c5782518255916020019190600101906129f1565b50612a18929150612a1c565b5090565b5b80821115612a185760008155600101612a1d565b6001600160a01b0381168114612a4657600080fd5b50565b60008060408385031215612a5c57600080fd5b8235612a6781612a31565b946020939093013593505050565b60008083601f840112612a8757600080fd5b5081356001600160401b03811115612a9e57600080fd5b6020830191508360208260051b8501011115612ab957600080fd5b9250929050565b600080600080600060808688031215612ad857600080fd5b8535612ae381612a31565b9450602086013593506040860135925060608601356001600160401b03811115612b0c57600080fd5b612b1888828901612a75565b969995985093965092949392505050565b6001600160e01b031981168114612a4657600080fd5b600060208284031215612b5157600080fd5b813561086181612b29565b60008060408385031215612b6f57600080fd5b50508035926020909101359150565b600060208284031215612b9057600080fd5b5035919050565b60005b83811015612bb2578181015183820152602001612b9a565b83811115612bc1576000848401525b50505050565b60008151808452612bdf816020860160208601612b97565b601f01601f19169290920160200192915050565b6020815260006108616020830184612bc7565b634e487b7160e01b600052604160045260246000fd5b601f8201601f191681016001600160401b0381118282101715612c4157612c41612c06565b6040525050565b60006001600160401b03821115612c6157612c61612c06565b5060051b60200190565b600082601f830112612c7c57600080fd5b81356020612c8982612c48565b604051612c968282612c1c565b83815260059390931b8501820192828101915086841115612cb657600080fd5b8286015b84811015612cd15780358352918301918301612cba565b509695505050505050565b600082601f830112612ced57600080fd5b81356001600160401b03811115612d0657612d06612c06565b604051612d1d601f8301601f191660200182612c1c565b818152846020838601011115612d3257600080fd5b816020850160208301376000918101602001919091529392505050565b600080600080600060a08688031215612d6757600080fd5b8535612d7281612a31565b94506020860135612d8281612a31565b935060408601356001600160401b0380821115612d9e57600080fd5b612daa89838a01612c6b565b94506060880135915080821115612dc057600080fd5b612dcc89838a01612c6b565b93506080880135915080821115612de257600080fd5b50612def88828901612cdc565b9150509295509295909350565b60008060408385031215612e0f57600080fd5b82356001600160401b0380821115612e2657600080fd5b818501915085601f830112612e3a57600080fd5b81356020612e4782612c48565b604051612e548282612c1c565b83815260059390931b8501820192828101915089841115612e7457600080fd5b948201945b83861015612e9b578535612e8c81612a31565b82529482019490820190612e79565b96505086013592505080821115612eb157600080fd5b50612ebe85828601612c6b565b9150509250929050565b600081518084526020808501945080840160005b83811015612ef857815187529582019590820190600101612edc565b509495945050505050565b6020815260006108616020830184612ec8565b60008060008060008060a08789031215612f2f57600080fd5b8635612f3a81612a31565b9550602087013594506040870135935060608701356001600160401b03811115612f6357600080fd5b612f6f89828a01612a75565b979a9699509497949695608090950135949350505050565b600080600060608486031215612f9c57600080fd5b8335612fa781612a31565b95602085013595506040909401359392505050565b600080600060608486031215612fd157600080fd5b505081359360208301359350604090920135919050565b8015158114612a4657600080fd5b6000806040838503121561300957600080fd5b823561301481612a31565b9150602083013561302481612fe8565b809150509250929050565b60008060006040848603121561304457600080fd5b8335925060208401356001600160401b0381111561306157600080fd5b61306d86828701612a75565b9497909650939450505050565b6000806040838503121561308d57600080fd5b823561309881612a31565b9150602083013561302481612a31565b600080600080600060a086880312156130c057600080fd5b85356130cb81612a31565b945060208601356130db81612a31565b9350604086013592506060860135915060808601356001600160401b0381111561310457600080fd5b612def88828901612cdc565b6020808252601a908201527918dbdb991a5d1a5bdb881b9bdd081c1c995c185c9959081e595d60321b604082015260600190565b634e487b7160e01b600052601160045260246000fd5b60008282101561316c5761316c613144565b500390565b634e487b7160e01b600052603260045260246000fd5b60208082526015908201527419dbdd081a5b9d985b1a59081a5b99195e081cd95d605a1b604082015260600190565b600082198211156131c9576131c9613144565b500190565b6000600182016131e0576131e0613144565b5060010190565b600081600019048311821515161561320157613201613144565b500290565b634e487b7160e01b600052601260045260246000fd5b60008261322b5761322b613206565b500490565b6001600160a01b03929092168252602082015260400190565b60006020828403121561325b57600080fd5b815161086181612fe8565b81835260006001600160fb1b0383111561327f57600080fd5b8260051b8083602087013760009401602001938452509192915050565b8481526060602082015260006132b6606083018587613266565b905082604083015295945050505050565b600181811c908216806132db57607f821691505b6020821081036132fb57634e487b7160e01b600052602260045260246000fd5b50919050565b6020808252818101527f676f7420656d707479206f722073696e676c65746f6e20706172746974696f6e604082015260600190565b6020808252601690820152751c185c9d1a5d1a5bdb881b9bdd08191a5cda9bda5b9d60521b604082015260600190565b6001600160a01b03851681526060602082018190526000906132b69083018587613266565b6020808252602a908201527f74686572652073686f756c64206265206d6f7265207468616e206f6e65206f756040820152691d18dbdb59481cdb1bdd60b21b606082015260800190565b60006040820184835260206040818501528185548084526060860191508660005282600020935060005b8181101561341b578454835260019485019492840192016133ff565b5090979650505050505050565b60008261343757613437613206565b500690565b6000825161344e818460208701612b97565b9190910192915050565b6000806040838503121561346b57600080fd5b505080516020909101519092909150565b60208082526023908201527f455243313135353a206275726e2066726f6d20746865207a65726f206164647260408201526265737360e81b606082015260800190565b60208082526024908201527f455243313135353a206275726e20616d6f756e7420657863656564732062616c604082015263616e636560e01b606082015260800190565b60208082526021908201527f455243313135353a206d696e7420746f20746865207a65726f206164647265736040820152607360f81b606082015260800190565b60208082526028908201527f455243313135353a2069647320616e6420616d6f756e7473206c656e677468206040820152670dad2e6dac2e8c6d60c31b606082015260800190565b60208082526025908201527f455243313135353a207472616e7366657220746f20746865207a65726f206164604082015264647265737360d81b606082015260800190565b6020808252602a908201527f455243313135353a20696e73756666696369656e742062616c616e636520666f60408201526939103a3930b739b332b960b11b606082015260800190565b60408152600061362e6040830185612ec8565b82810360208401526136408185612ec8565b95945050505050565b6001600160a01b03868116825285166020820152604081018490526060810183905260a06080820181905260009061368390830184612bc7565b979650505050505050565b6000602082840312156136a057600080fd5b815161086181612b29565b600060033d11156136c45760046000803e5060005160e01c5b90565b600060443d10156136d55790565b6040516003193d81016004833e81513d6001600160401b03808311602484018310171561370457505050505090565b828501915081518181111561371c5750505050505090565b843d87010160208285010111156137365750505050505090565b61374560208286010187612c1c565b509095945050505050565b60208082526028908201527f455243313135353a204552433131353552656365697665722072656a656374656040820152676420746f6b656e7360c01b606082015260800190565b6001600160a01b0386811682528516602082015260a0604082018190526000906137c490830186612ec8565b82810360608401526137d68186612ec8565b905082810360808401526137ea8185612bc7565b9897505050505050505056fe4a39dc06d4c0dbc64b70af90fd698a233a518aa5d07e595d983b8c0526c8f7fbc3d58168c5ae7397731d063d5bbf3d657854427343f4c083240f7aacaa2d0f6230644e72e131a029b85045b68181585d97816a916871ca8d3c208c16d87cfd47a26469706673582212204189d0b0e945674e6b91c77589815e2792e98b2093e0468497c56a7f3c48ffc464736f6c634300080e0033",
  "devdoc": {
    "events": {
      "ConditionPreparation(bytes32,address,bytes32,uint256)": {
        "details": "Emitted upon the successful preparation of a condition.",
        "params": {
          "conditionId": "The condition's ID. This ID may be derived from the other three parameters via ``keccak256(abi.encodePacked(oracle, questionId, outcomeSlotCount))``.",
          "oracle": "The account assigned to report the result for the prepared condition.",
          "outcomeSlotCount": "The number of outcome slots which should be used for this condition. Must not exceed 256.",
          "questionId": "An identifier for the question to be answered by the oracle."
        }
      },
      "PositionSplit(address,address,bytes32,bytes32,uint256[],uint256)": {
        "details": "Emitted when a position is successfully split."
      },
      "PositionsMerge(address,address,bytes32,bytes32,uint256[],uint256)": {
        "details": "Emitted when positions are successfully merged."
      }
    },
    "kind": "dev",
    "methods": {
      "balanceOf(address,uint256)": {
        "details": "See {IERC1155-balanceOf}. Requirements: - `account` cannot be the zero address."
      },
      "balanceOfBatch(address[],uint256[])": {
        "details": "See {IERC1155-balanceOfBatch}. Requirements: - `accounts` and `ids` must have the same length."
      },
      "getCollectionId(bytes32,bytes32,uint256)": {
        "details": "Constructs an outcome collection ID from a parent collection and an outcome collection.",
        "params": {
          "conditionId": "Condition ID of the outcome collection to combine with the parent outcome collection.",
          "indexSet": "Index set of the outcome collection to combine with the parent outcome collection.",
          "parentCollectionId": "Collection ID of the parent outcome collection, or bytes32(0) if there's no parent."
        }
      },
      "getConditionId(address,bytes32,uint256)": {
        "details": "Constructs a condition ID from an oracle, a question ID, and the outcome slot count for the question.",
        "params": {
          "oracle": "The account assigned to report the result for the prepared condition.",
          "outcomeSlotCount": "The number of outcome slots which should be used for this condition. Must not exceed 256.",
          "questionId": "An identifier for the question to be answered by the oracle."
        }
      },
      "getOutcomeSlotCount(bytes32)": {
        "details": "Gets the outcome slot count of a condition.",
        "params": {
          "conditionId": "ID of the condition."
        },
        "returns": {
          "_0": "Number of outcome slots associated with a condition, or zero if condition has not been prepared yet."
        }
      },
      "getPositionId(address,bytes32)": {
        "details": "Constructs a position ID from a collateral token and an outcome collection. These IDs are used as the ERC-1155 ID for this contract.",
        "params": {
          "collateralToken": "Collateral token which backs the position.",
          "collectionId": "ID of the outcome collection associated with this position."
        }
      },
      "isApprovedForAll(address,address)": {
        "details": "See {IERC1155-isApprovedForAll}."
      },
      "prepareCondition(address,bytes32,uint256)": {
        "details": "This function prepares a condition by initializing a payout vector associated with the condition.",
        "params": {
          "oracle": "The account assigned to report the result for the prepared condition.",
          "outcomeSlotCount": "The number of outcome slots which should be used for this condition. Must not exceed 256.",
          "questionId": "An identifier for the question to be answered by the oracle."
        }
      },
      "reportPayouts(bytes32,uint256[])": {
        "details": "Called by the oracle for reporting results of conditions. Will set the payout vector for the condition with the ID ``keccak256(abi.encodePacked(oracle, questionId, outcomeSlotCount))``, where oracle is the message sender, questionId is one of the parameters of this function, and outcomeSlotCount is the length of the payouts parameter, which contains the payoutNumerators for each outcome slot of the condition.",
        "params": {
          "payouts": "The oracle's answer",
          "questionId": "The question ID the oracle is answering for"
        }
      },
      "safeBatchTransferFrom(address,address,uint256[],uint256[],bytes)": {
        "details": "See {IERC1155-safeBatchTransferFrom}."
      },
      "safeTransferFrom(address,address,uint256,uint256,bytes)": {
        "details": "See {IERC1155-safeTransferFrom}."
      },
      "setApprovalForAll(address,bool)": {
        "details": "See {IERC1155-setApprovalForAll}."
      },
      "splitPosition(address,bytes32,bytes32,uint256[],uint256)": {
        "details": "This function splits a position. If splitting from the collateral, this contract will attempt to transfer `amount` collateral from the message sender to itself. Otherwise, this contract will burn `amount` stake held by the message sender in the position being split worth of EIP 1155 tokens. Regardless, if successful, `amount` stake will be minted in the split target positions. If any of the transfers, mints, or burns fail, the transaction will revert. The transaction will also revert if the given partition is trivial, invalid, or refers to more slots than the condition is prepared with.",
        "params": {
          "amount": "The amount of collateral or stake to split.",
          "collateralToken": "The address of the positions' backing collateral token.",
          "conditionId": "The ID of the condition to split on.",
          "parentCollectionId": "The ID of the outcome collections common to the position being split and the split target positions. May be null, in which only the collateral is shared.",
          "partition": "An array of disjoint index sets representing a nontrivial partition of the outcome slots of the given condition. E.g. A|B and C but not A|B and B|C (is not disjoint). Each element's a number which, together with the condition, represents the outcome collection. E.g. 0b110 is A|B, 0b010 is B, etc."
        }
      },
      "supportsInterface(bytes4)": {
        "details": "See {IERC165-supportsInterface}."
      },
      "uri(uint256)": {
        "details": "See {IERC1155MetadataURI-uri}. This implementation returns the same URI for *all* token types. It relies on the token type ID substitution mechanism https://eips.ethereum.org/EIPS/eip-1155#metadata[defined in the EIP]. Clients calling this function must replace the `\\{id\\}` substring with the actual token type ID."
      }
    },
    "version": 1
  },
  "userdoc": {
    "kind": "user",
    "methods": {
      "payoutDenominator(bytes32)": {
        "notice": "Denominator is also used for checking if the condition has been resolved. If the denominator is non-zero, then the condition has been resolved."
      },
      "payoutNumerators(bytes32,uint256)": {
        "notice": "Mapping key is an condition ID. Value represents numerators of the payout vector associated with the condition. This array is initialized with a length equal to the outcome slot count. E.g. Condition with 3 outcomes [A, B, C] and two of those correct [0.5, 0.5, 0]. In Ethereum there are no decimal values, so here, 0.5 is represented by fractions like 1/2 == 0.5. That's why we need numerator and denominator values. Payout numerators are also used as a check of initialization. If the numerators array is empty (has length zero), the condition was not created/prepared. See getOutcomeSlotCount."
      }
    },
    "version": 1
  },
  "storageLayout": {
    "storage": [
      {
        "astId": 800,
        "contract": "contracts/conditionalTokens/ConditionalTokens.sol:ConditionalTokens",
        "label": "_balances",
        "offset": 0,
        "slot": "0",
        "type": "t_mapping(t_uint256,t_mapping(t_address,t_uint256))"
      },
      {
        "astId": 806,
        "contract": "contracts/conditionalTokens/ConditionalTokens.sol:ConditionalTokens",
        "label": "_operatorApprovals",
        "offset": 0,
        "slot": "1",
        "type": "t_mapping(t_address,t_mapping(t_address,t_bool))"
      },
      {
        "astId": 808,
        "contract": "contracts/conditionalTokens/ConditionalTokens.sol:ConditionalTokens",
        "label": "_uri",
        "offset": 0,
        "slot": "2",
        "type": "t_string_storage"
      },
      {
        "astId": 4825,
        "contract": "contracts/conditionalTokens/ConditionalTokens.sol:ConditionalTokens",
        "label": "payoutNumerators",
        "offset": 0,
        "slot": "3",
        "type": "t_mapping(t_bytes32,t_array(t_uint256)dyn_storage)"
      },
      {
        "astId": 4830,
        "contract": "contracts/conditionalTokens/ConditionalTokens.sol:ConditionalTokens",
        "label": "payoutDenominator",
        "offset": 0,
        "slot": "4",
        "type": "t_mapping(t_bytes32,t_uint256)"
      }
    ],
    "types": {
      "t_address": {
        "encoding": "inplace",
        "label": "address",
        "numberOfBytes": "20"
      },
      "t_array(t_uint256)dyn_storage": {
        "base": "t_uint256",
        "encoding": "dynamic_array",
        "label": "uint256[]",
        "numberOfBytes": "32"
      },
      "t_bool": {
        "encoding": "inplace",
        "label": "bool",
        "numberOfBytes": "1"
      },
      "t_bytes32": {
        "encoding": "inplace",
        "label": "bytes32",
        "numberOfBytes": "32"
      },
      "t_mapping(t_address,t_bool)": {
        "encoding": "mapping",
        "key": "t_address",
        "label": "mapping(address => bool)",
        "numberOfBytes": "32",
        "value": "t_bool"
      },
      "t_mapping(t_address,t_mapping(t_address,t_bool))": {
        "encoding": "mapping",
        "key": "t_address",
        "label": "mapping(address => mapping(address => bool))",
        "numberOfBytes": "32",
        "value": "t_mapping(t_address,t_bool)"
      },
      "t_mapping(t_address,t_uint256)": {
        "encoding": "mapping",
        "key": "t_address",
        "label": "mapping(address => uint256)",
        "numberOfBytes": "32",
        "value": "t_uint256"
      },
      "t_mapping(t_bytes32,t_array(t_uint256)dyn_storage)": {
        "encoding": "mapping",
        "key": "t_bytes32",
        "label": "mapping(bytes32 => uint256[])",
        "numberOfBytes": "32",
        "value": "t_array(t_uint256)dyn_storage"
      },
      "t_mapping(t_bytes32,t_uint256)": {
        "encoding": "mapping",
        "key": "t_bytes32",
        "label": "mapping(bytes32 => uint256)",
        "numberOfBytes": "32",
        "value": "t_uint256"
      },
      "t_mapping(t_uint256,t_mapping(t_address,t_uint256))": {
        "encoding": "mapping",
        "key": "t_uint256",
        "label": "mapping(uint256 => mapping(address => uint256))",
        "numberOfBytes": "32",
        "value": "t_mapping(t_address,t_uint256)"
      },
      "t_string_storage": {
        "encoding": "bytes",
        "label": "string",
        "numberOfBytes": "32"
      },
      "t_uint256": {
        "encoding": "inplace",
        "label": "uint256",
        "numberOfBytes": "32"
      }
    }
  }
}