{
  "address": "0xCf7Ed3AccA5a467e9e704C703E8D87F634fB0Fc9",
  "abi": [
    {
      "inputs": [
        {
          "internalType": "address",
          "name": "_factoryAddress",
          "type": "address"
        }
      ],
      "stateMutability": "nonpayable",
      "type": "constructor"
    },
    {
      "anonymous": false,
      "inputs": [
        {
          "indexed": false,
          "internalType": "bytes32",
          "name": "id",
          "type": "bytes32"
        }
      ],
      "name": "CreateSolution",
      "type": "event"
    },
    {
      "anonymous": false,
      "inputs": [
        {
          "indexed": false,
          "internalType": "bytes32",
          "name": "id",
          "type": "bytes32"
        }
      ],
      "name": "ExecuteSolution",
      "type": "event"
    },
    {
      "inputs": [
        {
          "internalType": "bytes32",
          "name": "_id",
          "type": "bytes32"
        },
        {
          "internalType": "contract IERC20",
          "name": "_collateralToken",
          "type": "address"
        },
        {
          "components": [
            {
              "internalType": "contract Solver",
              "name": "implementation",
              "type": "address"
            },
            {
              "internalType": "address",
              "name": "keeper",
              "type": "address"
            },
            {
              "internalType": "address",
              "name": "arbitrator",
              "type": "address"
            },
            {
              "internalType": "uint256",
              "name": "timelockSeconds",
              "type": "uint256"
            },
            {
              "internalType": "bytes",
              "name": "data",
              "type": "bytes"
            },
            {
              "components": [
                {
                  "internalType": "uint256",
                  "name": "executions",
                  "type": "uint256"
                },
                {
                  "internalType": "enum SolverLib.IngestType",
                  "name": "ingestType",
                  "type": "uint8"
                },
                {
                  "internalType": "bytes32",
                  "name": "slot",
                  "type": "bytes32"
                },
                {
                  "internalType": "uint256",
                  "name": "solverIndex",
                  "type": "uint256"
                },
                {
                  "internalType": "bytes",
                  "name": "data",
                  "type": "bytes"
                }
              ],
              "internalType": "struct SolverLib.Ingest[]",
              "name": "ingests",
              "type": "tuple[]"
            },
            {
              "components": [
                {
                  "internalType": "contract IERC20",
                  "name": "collateralToken",
                  "type": "address"
                },
                {
                  "internalType": "uint256",
                  "name": "outcomeSlots",
                  "type": "uint256"
                },
                {
                  "internalType": "uint256",
                  "name": "parentCollectionIndexSet",
                  "type": "uint256"
                },
                {
                  "internalType": "bytes32",
                  "name": "amountSlot",
                  "type": "bytes32"
                },
                {
                  "internalType": "uint256[]",
                  "name": "partition",
                  "type": "uint256[]"
                },
                {
                  "components": [
                    {
                      "internalType": "bytes32",
                      "name": "recipientAddressSlot",
                      "type": "bytes32"
                    },
                    {
                      "internalType": "bytes32[]",
                      "name": "recipientAmountSlots",
                      "type": "bytes32[]"
                    }
                  ],
                  "internalType": "struct SolverLib.Allocation[]",
                  "name": "allocations",
                  "type": "tuple[]"
                },
                {
                  "components": [
                    {
                      "internalType": "bytes32",
                      "name": "digest",
                      "type": "bytes32"
                    },
                    {
                      "internalType": "uint8",
                      "name": "hashFunction",
                      "type": "uint8"
                    },
                    {
                      "internalType": "uint8",
                      "name": "size",
                      "type": "uint8"
                    }
                  ],
                  "internalType": "struct SolverLib.Multihash[]",
                  "name": "outcomeURIs",
                  "type": "tuple[]"
                }
              ],
              "internalType": "struct SolverLib.ConditionBase",
              "name": "conditionBase",
              "type": "tuple"
            }
          ],
          "internalType": "struct SolverLib.Config[]",
          "name": "_solverConfigs",
          "type": "tuple[]"
        },
        {
          "components": [
            {
              "internalType": "bytes32",
              "name": "digest",
              "type": "bytes32"
            },
            {
              "internalType": "uint8",
              "name": "hashFunction",
              "type": "uint8"
            },
            {
              "internalType": "uint8",
              "name": "size",
              "type": "uint8"
            }
          ],
          "internalType": "struct SolverLib.Multihash",
          "name": "_solverConfigsCID",
          "type": "tuple"
        }
      ],
      "name": "createSolution",
      "outputs": [
        {
          "internalType": "bytes32",
          "name": "_solutionId",
          "type": "bytes32"
        }
      ],
      "stateMutability": "nonpayable",
      "type": "function"
    },
    {
      "inputs": [
        {
          "internalType": "bytes32",
          "name": "_proposalId",
          "type": "bytes32"
        },
        {
          "internalType": "bytes32",
          "name": "_solutionId",
          "type": "bytes32"
        },
        {
          "components": [
            {
              "internalType": "contract Solver",
              "name": "implementation",
              "type": "address"
            },
            {
              "internalType": "address",
              "name": "keeper",
              "type": "address"
            },
            {
              "internalType": "address",
              "name": "arbitrator",
              "type": "address"
            },
            {
              "internalType": "uint256",
              "name": "timelockSeconds",
              "type": "uint256"
            },
            {
              "internalType": "bytes",
              "name": "data",
              "type": "bytes"
            },
            {
              "components": [
                {
                  "internalType": "uint256",
                  "name": "executions",
                  "type": "uint256"
                },
                {
                  "internalType": "enum SolverLib.IngestType",
                  "name": "ingestType",
                  "type": "uint8"
                },
                {
                  "internalType": "bytes32",
                  "name": "slot",
                  "type": "bytes32"
                },
                {
                  "internalType": "uint256",
                  "name": "solverIndex",
                  "type": "uint256"
                },
                {
                  "internalType": "bytes",
                  "name": "data",
                  "type": "bytes"
                }
              ],
              "internalType": "struct SolverLib.Ingest[]",
              "name": "ingests",
              "type": "tuple[]"
            },
            {
              "components": [
                {
                  "internalType": "contract IERC20",
                  "name": "collateralToken",
                  "type": "address"
                },
                {
                  "internalType": "uint256",
                  "name": "outcomeSlots",
                  "type": "uint256"
                },
                {
                  "internalType": "uint256",
                  "name": "parentCollectionIndexSet",
                  "type": "uint256"
                },
                {
                  "internalType": "bytes32",
                  "name": "amountSlot",
                  "type": "bytes32"
                },
                {
                  "internalType": "uint256[]",
                  "name": "partition",
                  "type": "uint256[]"
                },
                {
                  "components": [
                    {
                      "internalType": "bytes32",
                      "name": "recipientAddressSlot",
                      "type": "bytes32"
                    },
                    {
                      "internalType": "bytes32[]",
                      "name": "recipientAmountSlots",
                      "type": "bytes32[]"
                    }
                  ],
                  "internalType": "struct SolverLib.Allocation[]",
                  "name": "allocations",
                  "type": "tuple[]"
                },
                {
                  "components": [
                    {
                      "internalType": "bytes32",
                      "name": "digest",
                      "type": "bytes32"
                    },
                    {
                      "internalType": "uint8",
                      "name": "hashFunction",
                      "type": "uint8"
                    },
                    {
                      "internalType": "uint8",
                      "name": "size",
                      "type": "uint8"
                    }
                  ],
                  "internalType": "struct SolverLib.Multihash[]",
                  "name": "outcomeURIs",
                  "type": "tuple[]"
                }
              ],
              "internalType": "struct SolverLib.ConditionBase",
              "name": "conditionBase",
              "type": "tuple"
            }
          ],
          "internalType": "struct SolverLib.Config[]",
          "name": "solverConfigs",
          "type": "tuple[]"
        }
      ],
      "name": "executeSolution",
      "outputs": [],
      "stateMutability": "nonpayable",
      "type": "function"
    },
    {
      "inputs": [
        {
          "internalType": "bytes32",
          "name": "_solutionId",
          "type": "bytes32"
        }
      ],
      "name": "getSolvers",
      "outputs": [
        {
          "internalType": "address[]",
          "name": "solvers",
          "type": "address[]"
        }
      ],
      "stateMutability": "view",
      "type": "function"
    },
    {
      "inputs": [
        {
          "internalType": "bytes32",
          "name": "_proposalId",
          "type": "bytes32"
        },
        {
          "internalType": "bytes32",
          "name": "_solutionId",
          "type": "bytes32"
        }
      ],
      "name": "linkToProposal",
      "outputs": [],
      "stateMutability": "nonpayable",
      "type": "function"
    },
    {
      "inputs": [
        {
          "internalType": "bytes32",
          "name": "",
          "type": "bytes32"
        }
      ],
      "name": "solutions",
      "outputs": [
        {
          "internalType": "bool",
          "name": "executed",
          "type": "bool"
        },
        {
          "internalType": "contract IERC20",
          "name": "collateralToken",
          "type": "address"
        },
        {
          "internalType": "address",
          "name": "proposalHub",
          "type": "address"
        },
        {
          "internalType": "bytes32",
          "name": "proposalId",
          "type": "bytes32"
        },
        {
          "internalType": "bytes32",
          "name": "id",
          "type": "bytes32"
        },
        {
          "internalType": "bytes32",
          "name": "solverConfigsHash",
          "type": "bytes32"
        },
        {
          "components": [
            {
              "internalType": "bytes32",
              "name": "digest",
              "type": "bytes32"
            },
            {
              "internalType": "uint8",
              "name": "hashFunction",
              "type": "uint8"
            },
            {
              "internalType": "uint8",
              "name": "size",
              "type": "uint8"
            }
          ],
          "internalType": "struct SolverLib.Multihash",
          "name": "solverConfigsCID",
          "type": "tuple"
        }
      ],
      "stateMutability": "view",
      "type": "function"
    },
    {
      "inputs": [
        {
          "internalType": "bytes32",
          "name": "_solutionId",
          "type": "bytes32"
        },
        {
          "internalType": "uint256",
          "name": "_index",
          "type": "uint256"
        }
      ],
      "name": "solverFromIndex",
      "outputs": [
        {
          "internalType": "address",
          "name": "_address",
          "type": "address"
        }
      ],
      "stateMutability": "view",
      "type": "function"
    },
    {
      "inputs": [
        {
          "internalType": "bytes32",
          "name": "solutionId",
          "type": "bytes32"
        },
        {
          "components": [
            {
              "internalType": "contract Solver",
              "name": "implementation",
              "type": "address"
            },
            {
              "internalType": "address",
              "name": "keeper",
              "type": "address"
            },
            {
              "internalType": "address",
              "name": "arbitrator",
              "type": "address"
            },
            {
              "internalType": "uint256",
              "name": "timelockSeconds",
              "type": "uint256"
            },
            {
              "internalType": "bytes",
              "name": "data",
              "type": "bytes"
            },
            {
              "components": [
                {
                  "internalType": "uint256",
                  "name": "executions",
                  "type": "uint256"
                },
                {
                  "internalType": "enum SolverLib.IngestType",
                  "name": "ingestType",
                  "type": "uint8"
                },
                {
                  "internalType": "bytes32",
                  "name": "slot",
                  "type": "bytes32"
                },
                {
                  "internalType": "uint256",
                  "name": "solverIndex",
                  "type": "uint256"
                },
                {
                  "internalType": "bytes",
                  "name": "data",
                  "type": "bytes"
                }
              ],
              "internalType": "struct SolverLib.Ingest[]",
              "name": "ingests",
              "type": "tuple[]"
            },
            {
              "components": [
                {
                  "internalType": "contract IERC20",
                  "name": "collateralToken",
                  "type": "address"
                },
                {
                  "internalType": "uint256",
                  "name": "outcomeSlots",
                  "type": "uint256"
                },
                {
                  "internalType": "uint256",
                  "name": "parentCollectionIndexSet",
                  "type": "uint256"
                },
                {
                  "internalType": "bytes32",
                  "name": "amountSlot",
                  "type": "bytes32"
                },
                {
                  "internalType": "uint256[]",
                  "name": "partition",
                  "type": "uint256[]"
                },
                {
                  "components": [
                    {
                      "internalType": "bytes32",
                      "name": "recipientAddressSlot",
                      "type": "bytes32"
                    },
                    {
                      "internalType": "bytes32[]",
                      "name": "recipientAmountSlots",
                      "type": "bytes32[]"
                    }
                  ],
                  "internalType": "struct SolverLib.Allocation[]",
                  "name": "allocations",
                  "type": "tuple[]"
                },
                {
                  "components": [
                    {
                      "internalType": "bytes32",
                      "name": "digest",
                      "type": "bytes32"
                    },
                    {
                      "internalType": "uint8",
                      "name": "hashFunction",
                      "type": "uint8"
                    },
                    {
                      "internalType": "uint8",
                      "name": "size",
                      "type": "uint8"
                    }
                  ],
                  "internalType": "struct SolverLib.Multihash[]",
                  "name": "outcomeURIs",
                  "type": "tuple[]"
                }
              ],
              "internalType": "struct SolverLib.ConditionBase",
              "name": "conditionBase",
              "type": "tuple"
            }
          ],
          "internalType": "struct SolverLib.Config[]",
          "name": "solverConfigs",
          "type": "tuple[]"
        }
      ],
      "name": "verifyHash",
      "outputs": [
        {
          "internalType": "bool",
          "name": "",
          "type": "bool"
        }
      ],
      "stateMutability": "view",
      "type": "function"
    }
  ],
  "transactionHash": "0xa38c979cb49e2d4af65853ec72a1b6a7f46e61605d6b0df697cd791fb26580b0",
  "args": [
    "0xe7f1725E7734CE288F8367e1Bb143E90bb3F0512"
  ],
  "solcInputHash": "f7f55d0d70f13cf8d0d3f06407d33c02",
  "bytecode": "0x60a060405234801561001057600080fd5b50604051611d74380380611d7483398101604081905261002f91610044565b60601b6001600160601b031916608052610072565b600060208284031215610055578081fd5b81516001600160a01b038116811461006b578182fd5b9392505050565b60805160601c611ce761008d60003960005050611ce76000f3fe608060405234801561001057600080fd5b506004361061006d5760003560e01c8063191481a014610072578063307d6cb61461009b5780635f49a434146100bb57806373c587f5146100db57806375c70509146100f057806380d259ec14610116578063b39c847714610129575b600080fd5b61008561008036600461101b565b610149565b60405161009291906116d0565b60405180910390f35b6100ae6100a9366004610fac565b610196565b604051610092919061170b565b6100ce6100c936600461108c565b610203565b60405161009291906118e5565b6100ee6100e936600461101b565b6102f3565b005b6101036100fe366004610fac565b6103aa565b6040516100929796959493929190611896565b6100ee61012436600461103c565b61041f565b61013c610137366004610fc4565b61076a565b604051610092919061188b565b600082815260208190526040812060070180548390811061017a57634e487b7160e01b600052603260045260246000fd5b6000918252602090912001546001600160a01b03169392505050565b600081815260208181526040918290206007018054835181840281018401909452808452606093928301828280156101f757602002820191906000526020600020905b81546001600160a01b031681526001909101906020018083116101d9575b50505050509050919050565b60008581526020819052604081206003015486141561023d5760405162461bcd60e51b815260040161023490611996565b60405180910390fd5b60008681526020818152604091829020600381018990558054610100600160a81b0319166101006001600160a01b038a16021781559151610282918791879101611758565b60408051601f198184030181529190528051602090910120600482015582600582016102ae8282611c3e565b9050507faf58c2d61bce90c15ecad6e5142ecbbb0b542b557388df7578e0162b098999a3876040516102e091906118e5565b60405180910390a1509495945050505050565b60405163d3f79a0560e01b8152339063d3f79a05906103169085906004016118e5565b60206040518083038186803b15801561032e57600080fd5b505afa158015610342573d6000803e3d6000fd5b505050506040513d601f19601f820116820180604052508101906103669190610f8c565b6103825760405162461bcd60e51b815260040161023490611a11565b60009081526020819052604090206001810180546001600160a01b0319163317905560020155565b600060208181529181526040908190208054600182015460028301546003840154600485015486516060810188526005870154815260069096015460ff8181169988019990995261010090819004891697870197909752968416966001600160a01b0396909404861695929092169390929087565b61042d836101378385611bf4565b6104495760405162461bcd60e51b8152600401610234906119da565b6000838152602081905260409020600101546001600160a01b031633146104825760405162461bcd60e51b815260040161023490611a55565b60008381526020819052604090206002015484146104b25760405162461bcd60e51b81526004016102349061196c565b60008381526020819052604090205460ff16156104e15760405162461bcd60e51b815260040161023490611939565b6000838152602081905260409020805460ff191660011790556105058383836107ad565b336001600160a01b0316631918063f8560008087815260200190815260200160002060070160008154811061054a57634e487b7160e01b600052603260045260246000fd5b6000918252602090912001546040516001600160e01b031960e085901b16815261058192916001600160a01b0316906004016118ee565b600060405180830381600087803b15801561059b57600080fd5b505af11580156105af573d6000803e3d6000fd5b5050505060005b60008481526020819052604090206007015481101561069357600084815260208190526040812060070180548390811061060057634e487b7160e01b600052603260045260246000fd5b600091825260208083209091015487835290829052604091829020600201549151630683080d60e11b81526001600160a01b0390911692508291630d06101a9161064d91906004016118e5565b600060405180830381600087803b15801561066757600080fd5b505af115801561067b573d6000803e3d6000fd5b5050505050808061068b90611c01565b9150506105b6565b50600083815260208190526040812060070180549091906106c457634e487b7160e01b600052603260045260246000fd5b600091825260208220015460405163253b91a760e11b81526001600160a01b0390911691634a77234e916106fb91906004016118e5565b600060405180830381600087803b15801561071557600080fd5b505af1158015610729573d6000803e3d6000fd5b505050507fabe14211ae2537ee6b7aa77dde5785f740f88443cc6f3a4a4b68bb0e6a5652fa8360405161075c91906118e5565b60405180910390a150505050565b60008160405160200161077d91906117ab565b60408051601f19818403018152918152815160209283012060008681529283905291206004015414905092915050565b6000805b828110156109a657806108aa5773e7f1725e7734ce288f8367e1bb143e90bb3f0512637bdf86236000838787828181106107fb57634e487b7160e01b600052603260045260246000fd5b905060200281019061080d9190611a99565b6040518463ffffffff1660e01b815260040161082b939291906116e4565b602060405180830381600087803b15801561084557600080fd5b505af1158015610859573d6000803e3d6000fd5b505050506040513d601f19601f8201168201806040525081019061087d9190610f69565b91506001600160a01b0382166108a55760405162461bcd60e51b815260040161023490611905565b61095c565b816001600160a01b0316630944e26e8585848181106108d957634e487b7160e01b600052603260045260246000fd5b90506020028101906108eb9190611a99565b6040518263ffffffff1660e01b81526004016109079190611a86565b602060405180830381600087803b15801561092157600080fd5b505af1158015610935573d6000803e3d6000fd5b505050506040513d601f19601f820116820180604052508101906109599190610f69565b91505b6000858152602081815260408220600701805460018101825590835291200180546001600160a01b0319166001600160a01b0384161790558061099e81611c01565b9150506107b1565b5050505050565b60006109c06109bb84611ae1565b611ab8565b83815290506020808201908360005b86811015610abd578135860160e080828b0312156109ec57600080fd5b6109f581611ab8565b9050610a0082610ac8565b8152610a0d858301610ac8565b858201526040610a1e818401610ac8565b90820152606082810135908201526080808301356001600160401b0380821115610a4757600080fd5b610a538d838701610e2d565b8385015260a0925082850135915080821115610a6e57600080fd5b610a7a8d838701610c34565b8385015260c0925082850135915080821115610a9557600080fd5b50610aa28c828601610ea6565b918301919091525085525092820192908201906001016109cf565b505050509392505050565b8035610ad381611c8a565b919050565b600082601f830112610ae8578081fd5b81356020610af86109bb83611ae1565b82815281810190858301855b85811015610bdf5781358801604080601f19838d03011215610b24578889fd5b80518082016001600160401b038082118383101715610b4557610b45611c28565b908352838901358252838301359080821115610b5f578b8cfd5b508084019350508b603f840112610b7457898afd5b87830135610b846109bb82611ae1565b808282528a820191508486018f868d86028901011115610ba2578d8efd5b8d96505b83871015610bc4578035835260019690960195918b01918b01610ba6565b50838b01525050865250509284019290840190600101610b04565b5090979650505050505050565b60008083601f840112610bfd578182fd5b5081356001600160401b03811115610c13578182fd5b6020830191508360208083028501011115610c2d57600080fd5b9250929050565b600082601f830112610c44578081fd5b81356020610c546109bb83611ae1565b82815281810190858301855b85811015610bdf578135880160a080601f19838d03011215610c80578889fd5b604080518281016001600160401b038082118383101715610ca357610ca3611c28565b8184528a8601358352610cb7848701610e97565b8b84015260609150818601358484015260809350838601358284015284860135945080851115610ce5578c8dfd5b5050610cf58d8a85870101610e2d565b91810191909152865250509284019290840190600101610c60565b600082601f830112610d20578081fd5b81356020610d306109bb83611ae1565b82815281810190858301606080860288018501891015610d4e578687fd5b865b86811015610dc55781838b031215610d66578788fd5b604080518381016001600160401b0381118282101715610d8857610d88611c28565b82528435815287850135610d9b81611ca2565b8189015284820135610dac81611ca2565b9181019190915285529385019391810191600101610d50565b509198975050505050505050565b600082601f830112610de3578081fd5b81356020610df36109bb83611ae1565b8281528181019085830183850287018401881015610e0f578586fd5b855b85811015610bdf57813584529284019290840190600101610e11565b600082601f830112610e3d578081fd5b81356001600160401b03811115610e5657610e56611c28565b610e69601f8201601f1916602001611ab8565b818152846020838601011115610e7d578283fd5b816020850160208301379081016020019190915292915050565b803560048110610ad357600080fd5b600060e08284031215610eb7578081fd5b610ec160e0611ab8565b9050610ecc82610ac8565b815260208281013590820152604080830135908201526060808301359082015260808201356001600160401b0380821115610f0657600080fd5b610f1285838601610dd3565b608084015260a0840135915080821115610f2b57600080fd5b610f3785838601610ad8565b60a084015260c0840135915080821115610f5057600080fd5b50610f5d84828501610d10565b60c08301525092915050565b600060208284031215610f7a578081fd5b8151610f8581611c8a565b9392505050565b600060208284031215610f9d578081fd5b81518015158114610f85578182fd5b600060208284031215610fbd578081fd5b5035919050565b60008060408385031215610fd6578081fd5b8235915060208301356001600160401b03811115610ff2578182fd5b8301601f81018513611002578182fd5b611011858235602084016109ad565b9150509250929050565b6000806040838503121561102d578182fd5b50508035926020909101359150565b60008060008060608587031215611051578182fd5b843593506020850135925060408501356001600160401b03811115611074578283fd5b61108087828801610bec565b95989497509550505050565b600080600080600085870360c08112156110a4578384fd5b8635955060208701356110b681611c8a565b945060408701356001600160401b038111156110d0578485fd5b6110dc89828a01610bec565b9095509350506060605f19820112156110f3578182fd5b506060860190509295509295909350565b6001600160a01b03169052565b81835260006001600160fb1b03831115611129578081fd5b6020830280836020870137939093016020019283525090919050565b6000815180845260208085018081965082840281019150828601855b858110156111c85782840389528151805185528501516040868601819052815190860181905290860190606086019089905b808210156111b35783518352928801929188019160019190910190611193565b50509986019994505090840190600101611161565b5091979650505050505050565b818352602080840193600091908185020181018584845b878110156111c85782840389528135609e1988360301811261120c578687fd5b87018035855260a061121f878301610e97565b61122b8888018261140c565b506040828101359087015260608083013590870152608061124e81840184611b92565b935082828901526112628389018583611397565b9c89019c975050509286019250506001016111ec565b6000815180845260208085018081965082840281019150828601855b858110156111c8578284038952815160a081518652868201516112b98888018261140c565b5060408281015190870152606080830151908701526080918201519186018190526112e6818701836113c1565b9a87019a9550505090840190600101611294565b60008284526020808501945082825b8581101561135357813587528282013561132281611ca2565b60ff908116888501526040908382013561133b81611ca2565b16908801526060968701969190910190600101611309565b509495945050505050565b6000815180845260208085019450808401835b83811015611353576113848783516116ae565b6060969096019590820190600101611371565b60008284528282602086013780602084860101526020601f19601f85011685010190509392505050565b60008151808452815b818110156113e6576020818501810151868301820152016113ca565b818111156113f75782602083870101525b50601f01601f19169290920160200192915050565b6004811061142a57634e487b7160e01b600052602160045260246000fd5b9052565b6000813561143b81611c8a565b6001600160a01b031683526020828101358185015260408084013581860152606080850135908601526114716080850185611b04565b60e0608088015261148660e088018284611111565b91505061149660a0860186611b04565b87830360a08901528083528483018582028401860183885b8481101561150d57868303601f19018452813536879003603e190181126114d3578a8bfd5b8601803584526114e58a820182611b04565b9150898b8601526114f98a86018383611111565b958b019594505050908801906001016114ae565b505061151c60c08a018a611b4b565b9750955089810360c08b01526115338188886112fa565b9a9950505050505050505050565b80516001600160a01b0316825260208082015181840152604080830151908401526060808301519084015260808083015160e091850182905280519185018290526000929081019183906101008701905b808310156115b25784518252938301936001929092019190830190611592565b5060a0860151935086810360a08801526115cc8185611145565b935050505060c083015184820360c08601526115e8828261135e565b95945050505050565b600081356115fe81611c8a565b6001600160a01b03908116845260208301359061161a82611c8a565b166020840152604082013561162e81611c8a565b61163b6040850182611104565b50606082013560608401526116536080830183611b92565b60e0608086015261166860e086018284611397565b91505061167860a0840184611b04565b85830360a087015261168b8382846111d5565b9250505061169c60c0840184611bd6565b84820360c08601526115e8828261142e565b8051825260ff602082015116602083015260ff60408201511660408301525050565b6001600160a01b0391909116815260200190565b600060018060a01b0385168252836020830152606060408301526115e860608301846115f1565b6020808252825182820181905260009190848201906040850190845b8181101561174c5783516001600160a01b031683529284019291840191600101611727565b50909695505050505050565b602080825281810183905260009060408482028401810190840186845b878110156111c857868403603f1901835261179984611794848c611bd6565b6115f1565b93509184019190840190600101611775565b60208082528251828201819052600091906040908185019080840286018301878501865b8381101561187d57888303603f19018552815180516001600160a01b0390811685528882015116888501528681015160e09061180d89870182611104565b5060608083015181870152506080808301518282880152611830838801826113c1565b9250505060a0808301518683038288015261184b8382611278565b9250505060c080830151925085820381870152506118698183611541565b9689019694505050908601906001016117cf565b509098975050505050505050565b901515815260200190565b87151581526001600160a01b03878116602083015286166040820152606081018590526080810184905260a0810183905261012081016118d960c08301846116ae565b98975050505050505050565b90815260200190565b9182526001600160a01b0316602082015260400190565b6020808252601a908201527924b73b30b634b21030b2323932b9b9903337b91029b7b63b32b960311b604082015260600190565b60208082526019908201527814dbdb1d5d1a5bdb88185b1c9958591e48195e1958dd5d1959603a1b604082015260600190565b60208082526010908201526f15dc9bdb99c81c1c9bdc1bdcd85b125960821b604082015260600190565b60208082526024908201527f536f6c7574696f6e734875623a3a5468697320494420616c72656164792065786040820152636973747360e01b606082015260800190565b6020808252601e908201527f496e636f727265637420536f6c766572436f6e66696720636f6e74656e740000604082015260600190565b60208082526024908201527f50726f706f73616c206973206e6f742076616c69642061742070726f706f736160408201526336243ab160e11b606082015260800190565b6020808252601790820152762737ba1031b7b93932b1ba10383937b837b9b0b6243ab160491b604082015260600190565b600060208252610f8560208301846115f1565b6000823560de19833603018112611aae578182fd5b9190910192915050565b6040518181016001600160401b0381118282101715611ad957611ad9611c28565b604052919050565b60006001600160401b03821115611afa57611afa611c28565b5060209081020190565b6000808335601e19843603018112611b1a578283fd5b83016020810192503590506001600160401b03811115611b3957600080fd5b602081023603831315610c2d57600080fd5b6000808335601e19843603018112611b61578283fd5b83016020810192503590506001600160401b03811115611b8057600080fd5b606081023603831315610c2d57600080fd5b6000808335601e19843603018112611ba8578283fd5b83016020810192503590506001600160401b03811115611bc757600080fd5b803603831315610c2d57600080fd5b6000823560de19833603018112611beb578182fd5b90910192915050565b6000610f853684846109ad565b6000600019821415611c2157634e487b7160e01b81526011600452602481fd5b5060010190565b634e487b7160e01b600052604160045260246000fd5b81358155600181016020830135611c5481611ca2565b815460ff191660ff91909116178082556040840135611c7281611ca2565b61ff008160081b1661ff001983161783555050505050565b6001600160a01b0381168114611c9f57600080fd5b50565b60ff81168114611c9f57600080fdfea26469706673582212207cc757885ea546ed2abd6f9cbb7d23d02f3e0b015042057c3bd341bddf606e4064736f6c63430008000033",
  "devdoc": {
    "kind": "dev",
    "methods": {},
    "version": 1
  },
  "userdoc": {
    "kind": "user",
    "methods": {},
    "version": 1
  },
  "storageLayout": {
    "storage": [
      {
        "astId": 4102,
        "contract": "contracts/IPFSSolutionsHub.sol:IPFSSolutionsHub",
        "label": "solutions",
        "offset": 0,
        "slot": "0",
        "type": "t_mapping(t_bytes32,t_struct(Solution)4097_storage)"
      }
    ],
    "types": {
      "t_address": {
        "encoding": "inplace",
        "label": "address",
        "numberOfBytes": "20"
      },
      "t_array(t_address)dyn_storage": {
        "base": "t_address",
        "encoding": "dynamic_array",
        "label": "address[]",
        "numberOfBytes": "32"
      },
      "t_bool": {
        "encoding": "inplace",
        "label": "bool",
        "numberOfBytes": "1"
      },
      "t_bytes32": {
        "encoding": "inplace",
        "label": "bytes32",
        "numberOfBytes": "32"
      },
      "t_contract(IERC20)2042": {
        "encoding": "inplace",
        "label": "contract IERC20",
        "numberOfBytes": "20"
      },
      "t_mapping(t_bytes32,t_struct(Solution)4097_storage)": {
        "encoding": "mapping",
        "key": "t_bytes32",
        "label": "mapping(bytes32 => struct IPFSSolutionsHub.Solution)",
        "numberOfBytes": "32",
        "value": "t_struct(Solution)4097_storage"
      },
      "t_struct(Multihash)7425_storage": {
        "encoding": "inplace",
        "label": "struct SolverLib.Multihash",
        "members": [
          {
            "astId": 7420,
            "contract": "contracts/IPFSSolutionsHub.sol:IPFSSolutionsHub",
            "label": "digest",
            "offset": 0,
            "slot": "0",
            "type": "t_bytes32"
          },
          {
            "astId": 7422,
            "contract": "contracts/IPFSSolutionsHub.sol:IPFSSolutionsHub",
            "label": "hashFunction",
            "offset": 0,
            "slot": "1",
            "type": "t_uint8"
          },
          {
            "astId": 7424,
            "contract": "contracts/IPFSSolutionsHub.sol:IPFSSolutionsHub",
            "label": "size",
            "offset": 1,
            "slot": "1",
            "type": "t_uint8"
          }
        ],
        "numberOfBytes": "64"
      },
      "t_struct(Solution)4097_storage": {
        "encoding": "inplace",
        "label": "struct IPFSSolutionsHub.Solution",
        "members": [
          {
            "astId": 4079,
            "contract": "contracts/IPFSSolutionsHub.sol:IPFSSolutionsHub",
            "label": "executed",
            "offset": 0,
            "slot": "0",
            "type": "t_bool"
          },
          {
            "astId": 4082,
            "contract": "contracts/IPFSSolutionsHub.sol:IPFSSolutionsHub",
            "label": "collateralToken",
            "offset": 1,
            "slot": "0",
            "type": "t_contract(IERC20)2042"
          },
          {
            "astId": 4084,
            "contract": "contracts/IPFSSolutionsHub.sol:IPFSSolutionsHub",
            "label": "proposalHub",
            "offset": 0,
            "slot": "1",
            "type": "t_address"
          },
          {
            "astId": 4086,
            "contract": "contracts/IPFSSolutionsHub.sol:IPFSSolutionsHub",
            "label": "proposalId",
            "offset": 0,
            "slot": "2",
            "type": "t_bytes32"
          },
          {
            "astId": 4088,
            "contract": "contracts/IPFSSolutionsHub.sol:IPFSSolutionsHub",
            "label": "id",
            "offset": 0,
            "slot": "3",
            "type": "t_bytes32"
          },
          {
            "astId": 4090,
            "contract": "contracts/IPFSSolutionsHub.sol:IPFSSolutionsHub",
            "label": "solverConfigsHash",
            "offset": 0,
            "slot": "4",
            "type": "t_bytes32"
          },
          {
            "astId": 4093,
            "contract": "contracts/IPFSSolutionsHub.sol:IPFSSolutionsHub",
            "label": "solverConfigsCID",
            "offset": 0,
            "slot": "5",
            "type": "t_struct(Multihash)7425_storage"
          },
          {
            "astId": 4096,
            "contract": "contracts/IPFSSolutionsHub.sol:IPFSSolutionsHub",
            "label": "solverAddresses",
            "offset": 0,
            "slot": "7",
            "type": "t_array(t_address)dyn_storage"
          }
        ],
        "numberOfBytes": "256"
      },
      "t_uint8": {
        "encoding": "inplace",
        "label": "uint8",
        "numberOfBytes": "1"
      }
    }
  }
}