{
  "address": "0x9fE46736679d2D9a65F0992F2272dE9f3c7fa6e0",
  "abi": [
    {
      "inputs": [
        {
          "internalType": "address",
          "name": "_ctfAddress",
          "type": "address"
        }
      ],
      "stateMutability": "nonpayable",
      "type": "constructor"
    },
    {
      "anonymous": false,
      "inputs": [
        {
          "indexed": false,
          "internalType": "bytes32",
          "name": "id",
          "type": "bytes32"
        }
      ],
      "name": "CreateProposal",
      "type": "event"
    },
    {
      "anonymous": false,
      "inputs": [
        {
          "indexed": false,
          "internalType": "bytes32",
          "name": "id",
          "type": "bytes32"
        }
      ],
      "name": "ExecuteProposal",
      "type": "event"
    },
    {
      "inputs": [],
      "name": "conditionalTokens",
      "outputs": [
        {
          "internalType": "contract IConditionalTokens",
          "name": "",
          "type": "address"
        }
      ],
      "stateMutability": "view",
      "type": "function"
    },
    {
      "inputs": [
        {
          "internalType": "contract IERC20",
          "name": "collateralToken",
          "type": "address"
        },
        {
          "internalType": "address",
          "name": "solutionsHub",
          "type": "address"
        },
        {
          "internalType": "uint256",
          "name": "fundingGoal",
          "type": "uint256"
        },
        {
          "internalType": "bytes32",
          "name": "solutionId",
          "type": "bytes32"
        }
      ],
      "name": "createProposal",
      "outputs": [],
      "stateMutability": "nonpayable",
      "type": "function"
    },
    {
      "inputs": [
        {
          "internalType": "bytes32",
          "name": "proposalId",
          "type": "bytes32"
        },
        {
          "internalType": "contract IERC20",
          "name": "token",
          "type": "address"
        },
        {
          "internalType": "uint256",
          "name": "amount",
          "type": "uint256"
        }
      ],
      "name": "defundProposal",
      "outputs": [],
      "stateMutability": "nonpayable",
      "type": "function"
    },
    {
      "inputs": [
        {
          "internalType": "bytes32",
          "name": "proposalId",
          "type": "bytes32"
        },
        {
          "components": [
            {
              "internalType": "contract Solver",
              "name": "implementation",
              "type": "address"
            },
            {
              "internalType": "address",
              "name": "keeper",
              "type": "address"
            },
            {
              "internalType": "address",
              "name": "arbitrator",
              "type": "address"
            },
            {
              "internalType": "uint256",
              "name": "timelockSeconds",
              "type": "uint256"
            },
            {
              "internalType": "bytes",
              "name": "data",
              "type": "bytes"
            },
            {
              "components": [
                {
                  "internalType": "uint256",
                  "name": "executions",
                  "type": "uint256"
                },
                {
                  "internalType": "enum SolverLib.IngestType",
                  "name": "ingestType",
                  "type": "uint8"
                },
                {
                  "internalType": "uint256",
                  "name": "slot",
                  "type": "uint256"
                },
                {
                  "internalType": "uint256",
                  "name": "solverIndex",
                  "type": "uint256"
                },
                {
                  "internalType": "bytes",
                  "name": "data",
                  "type": "bytes"
                }
              ],
              "internalType": "struct SolverLib.Ingest[]",
              "name": "ingests",
              "type": "tuple[]"
            },
            {
              "components": [
                {
                  "internalType": "contract IERC20",
                  "name": "collateralToken",
                  "type": "address"
                },
                {
                  "internalType": "uint256",
                  "name": "outcomeSlots",
                  "type": "uint256"
                },
                {
                  "internalType": "uint256",
                  "name": "parentCollectionIndexSet",
                  "type": "uint256"
                },
                {
                  "internalType": "uint256",
                  "name": "amountSlot",
                  "type": "uint256"
                },
                {
                  "internalType": "uint256[]",
                  "name": "partition",
                  "type": "uint256[]"
                },
                {
                  "components": [
                    {
                      "internalType": "uint256",
                      "name": "recipientAddressSlot",
                      "type": "uint256"
                    },
                    {
                      "internalType": "uint256[]",
                      "name": "recipientAmountSlots",
                      "type": "uint256[]"
                    }
                  ],
                  "internalType": "struct SolverLib.Allocation[]",
                  "name": "allocations",
                  "type": "tuple[]"
                },
                {
                  "components": [
                    {
                      "internalType": "bytes32",
                      "name": "digest",
                      "type": "bytes32"
                    },
                    {
                      "internalType": "uint8",
                      "name": "hashFunction",
                      "type": "uint8"
                    },
                    {
                      "internalType": "uint8",
                      "name": "size",
                      "type": "uint8"
                    }
                  ],
                  "internalType": "struct SolverLib.Multihash[]",
                  "name": "outcomeURIs",
                  "type": "tuple[]"
                }
              ],
              "internalType": "struct SolverLib.ConditionBase",
              "name": "conditionBase",
              "type": "tuple"
            }
          ],
          "internalType": "struct SolverLib.Config[]",
          "name": "solverConfigs",
          "type": "tuple[]"
        }
      ],
      "name": "executeIPFSProposal",
      "outputs": [],
      "stateMutability": "nonpayable",
      "type": "function"
    },
    {
      "inputs": [
        {
          "internalType": "bytes32",
          "name": "proposalId",
          "type": "bytes32"
        }
      ],
      "name": "executeProposal",
      "outputs": [],
      "stateMutability": "nonpayable",
      "type": "function"
    },
    {
      "inputs": [
        {
          "internalType": "bytes32",
          "name": "proposalId",
          "type": "bytes32"
        },
        {
          "internalType": "contract IERC20",
          "name": "token",
          "type": "address"
        },
        {
          "internalType": "uint256",
          "name": "amount",
          "type": "uint256"
        }
      ],
      "name": "fundProposal",
      "outputs": [],
      "stateMutability": "nonpayable",
      "type": "function"
    },
    {
      "inputs": [
        {
          "internalType": "bytes32",
          "name": "",
          "type": "bytes32"
        },
        {
          "internalType": "address",
          "name": "",
          "type": "address"
        }
      ],
      "name": "funderAmountMap",
      "outputs": [
        {
          "internalType": "uint256",
          "name": "",
          "type": "uint256"
        }
      ],
      "stateMutability": "view",
      "type": "function"
    },
    {
      "inputs": [
        {
          "internalType": "bytes32",
          "name": "_id",
          "type": "bytes32"
        }
      ],
      "name": "getProposal",
      "outputs": [
        {
          "components": [
            {
              "internalType": "bool",
              "name": "isExecuted",
              "type": "bool"
            },
            {
              "internalType": "contract IERC20",
              "name": "collateralToken",
              "type": "address"
            },
            {
              "internalType": "address",
              "name": "proposer",
              "type": "address"
            },
            {
              "internalType": "address",
              "name": "solutionsHub",
              "type": "address"
            },
            {
              "internalType": "bytes32",
              "name": "id",
              "type": "bytes32"
            },
            {
              "internalType": "bytes32",
              "name": "solutionId",
              "type": "bytes32"
            },
            {
              "internalType": "uint256",
              "name": "funding",
              "type": "uint256"
            },
            {
              "internalType": "uint256",
              "name": "fundingGoal",
              "type": "uint256"
            }
          ],
          "internalType": "struct ProposalsHub.Proposal",
          "name": "proposal",
          "type": "tuple"
        }
      ],
      "stateMutability": "view",
      "type": "function"
    },
    {
      "inputs": [
        {
          "internalType": "bytes32",
          "name": "id",
          "type": "bytes32"
        }
      ],
      "name": "isProposal",
      "outputs": [
        {
          "internalType": "bool",
          "name": "",
          "type": "bool"
        }
      ],
      "stateMutability": "view",
      "type": "function"
    },
    {
      "inputs": [
        {
          "internalType": "address",
          "name": "operator",
          "type": "address"
        },
        {
          "internalType": "address",
          "name": "from",
          "type": "address"
        },
        {
          "internalType": "uint256[]",
          "name": "ids",
          "type": "uint256[]"
        },
        {
          "internalType": "uint256[]",
          "name": "values",
          "type": "uint256[]"
        },
        {
          "internalType": "bytes",
          "name": "data",
          "type": "bytes"
        }
      ],
      "name": "onERC1155BatchReceived",
      "outputs": [
        {
          "internalType": "bytes4",
          "name": "",
          "type": "bytes4"
        }
      ],
      "stateMutability": "nonpayable",
      "type": "function"
    },
    {
      "inputs": [
        {
          "internalType": "address",
          "name": "operator",
          "type": "address"
        },
        {
          "internalType": "address",
          "name": "from",
          "type": "address"
        },
        {
          "internalType": "uint256",
          "name": "id",
          "type": "uint256"
        },
        {
          "internalType": "uint256",
          "name": "value",
          "type": "uint256"
        },
        {
          "internalType": "bytes",
          "name": "data",
          "type": "bytes"
        }
      ],
      "name": "onERC1155Received",
      "outputs": [
        {
          "internalType": "bytes4",
          "name": "",
          "type": "bytes4"
        }
      ],
      "stateMutability": "nonpayable",
      "type": "function"
    },
    {
      "inputs": [
        {
          "internalType": "bytes32",
          "name": "",
          "type": "bytes32"
        }
      ],
      "name": "proposals",
      "outputs": [
        {
          "internalType": "bool",
          "name": "isExecuted",
          "type": "bool"
        },
        {
          "internalType": "contract IERC20",
          "name": "collateralToken",
          "type": "address"
        },
        {
          "internalType": "address",
          "name": "proposer",
          "type": "address"
        },
        {
          "internalType": "address",
          "name": "solutionsHub",
          "type": "address"
        },
        {
          "internalType": "bytes32",
          "name": "id",
          "type": "bytes32"
        },
        {
          "internalType": "bytes32",
          "name": "solutionId",
          "type": "bytes32"
        },
        {
          "internalType": "uint256",
          "name": "funding",
          "type": "uint256"
        },
        {
          "internalType": "uint256",
          "name": "fundingGoal",
          "type": "uint256"
        }
      ],
      "stateMutability": "view",
      "type": "function"
    },
    {
      "inputs": [
        {
          "internalType": "bytes32",
          "name": "proposalId",
          "type": "bytes32"
        },
        {
          "internalType": "uint256",
          "name": "tokenId",
          "type": "uint256"
        }
      ],
      "name": "reclaimTokens",
      "outputs": [],
      "stateMutability": "nonpayable",
      "type": "function"
    },
    {
      "inputs": [
        {
          "internalType": "bytes32",
          "name": "",
          "type": "bytes32"
        },
        {
          "internalType": "uint256",
          "name": "",
          "type": "uint256"
        }
      ],
      "name": "reclaimableTokens",
      "outputs": [
        {
          "internalType": "uint256",
          "name": "",
          "type": "uint256"
        }
      ],
      "stateMutability": "view",
      "type": "function"
    },
    {
      "inputs": [
        {
          "internalType": "uint256",
          "name": "",
          "type": "uint256"
        },
        {
          "internalType": "address",
          "name": "",
          "type": "address"
        }
      ],
      "name": "reclaimedTokens",
      "outputs": [
        {
          "internalType": "uint256",
          "name": "",
          "type": "uint256"
        }
      ],
      "stateMutability": "view",
      "type": "function"
    },
    {
      "inputs": [
        {
          "internalType": "bytes4",
          "name": "interfaceId",
          "type": "bytes4"
        }
      ],
      "name": "supportsInterface",
      "outputs": [
        {
          "internalType": "bool",
          "name": "",
          "type": "bool"
        }
      ],
      "stateMutability": "view",
      "type": "function"
    },
    {
      "inputs": [
        {
          "internalType": "bytes32",
          "name": "_proposalId",
          "type": "bytes32"
        },
        {
          "internalType": "address",
          "name": "_solver",
          "type": "address"
        }
      ],
      "name": "transferERC20",
      "outputs": [],
      "stateMutability": "nonpayable",
      "type": "function"
    }
  ],
  "transactionHash": "0xef0ef9927495d779ed3552ec122b8d0dcf0f8f949c980c46b1d7048a6be5e4e3",
  "args": [
    "0x5FbDB2315678afecb367f032d93F642f64180aa3"
  ],
  "solcInputHash": "efed8a090605a015da838a26bd5e3e44",
  "bytecode": "0x60a060405234801561001057600080fd5b50604051620022433803806200224383398101604081905261003191610046565b60601b6001600160601b031916608052610074565b600060208284031215610057578081fd5b81516001600160a01b038116811461006d578182fd5b9392505050565b60805160601c6121a96200009a600039600081816108ff0152610bb801526121a96000f3fe608060405234801561001057600080fd5b506004361061011b5760003560e01c80635bd9e299116100b2578063bc197c8111610081578063d3f79a0511610066578063d3f79a051461027f578063f23a6e6114610292578063f4aff445146102a55761011b565b8063bc197c811461024c578063c12639f71461026c5761011b565b80635bd9e299146101fe57806383460ba814610213578063980ff6c614610226578063b70c764c146102395761011b565b806333c15c34116100ee57806333c15c3414610198578063430694cf146101b857806353ba3f57146101d857806354dd9927146101eb5761011b565b806301ffc9a714610120578063116f94d0146101495780631918063f1461015e57806332ed5b1214610171575b600080fd5b61013361012e366004611531565b6102b8565b604051610140919061194a565b60405180910390f35b61015c610157366004611559565b6102fe565b005b61015c61016c366004611460565b610494565b61018461017f366004611448565b610675565b604051610140989796959493929190611955565b6101ab6101a6366004611460565b6106c7565b604051610140919061199c565b6101cb6101c6366004611448565b6106e4565b6040516101409190611f7c565b6101ab6101e6366004611510565b61076a565b61015c6101f93660046114d9565b610787565b6102066108fd565b6040516101409190611af0565b6101ab610221366004611460565b610921565b61015c610234366004611448565b61093e565b61015c610247366004611510565b610a7c565b61025f61025a3660046112f3565b610c61565b6040516101409190611adb565b61015c61027a3660046114d9565b610d75565b61013361028d366004611448565b610f81565b61025f6102a03660046113ae565b610f98565b61015c6102b336600461148f565b611040565b60006001600160e01b031982167f4e2312e00000000000000000000000000000000000000000000000000000000014806102f657506102f682611193565b90505b919050565b60008054908061030d8361212a565b919050555060003382868560005460405160200161032f95949392919061184e565b60408051601f19818403018152828252805160209182012060008181526001928390529290922080546001600160a01b03808b16610100027fffffffffffffffffffffff0000000000000000000000000000000000000000ff90921691909117825591810180547fffffffffffffffffffffffff00000000000000000000000000000000000000009081163317909155600282018054938a169390911683179055600381018390556004808201879055600682018890557f73c587f50000000000000000000000000000000000000000000000000000000085529294509290916373c587f5916104239186918891016119a5565b600060405180830381600087803b15801561043d57600080fd5b505af1158015610451573d6000803e3d6000fd5b505050507f2d231481d8c1af3958a30a257e93e0df6b089bc07ebedc0a86e7355d1aaf133882604051610484919061199c565b60405180910390a1505050505050565b6000828152600160205260409020600201546001600160a01b031633146104d65760405162461bcd60e51b81526004016104cd90611ba7565b60405180910390fd5b6001600160a01b0381166104fc5760405162461bcd60e51b81526004016104cd90611b04565b600082815260016020526040808220600281015460049182015492517f191481a00000000000000000000000000000000000000000000000000000000081526001600160a01b038087169592169363191481a09361055c939192016119a5565b60206040518083038186803b15801561057457600080fd5b505afa158015610588573d6000803e3d6000fd5b505050506040513d601f19601f820116820180604052508101906105ac91906112d0565b6001600160a01b0316146105d25760405162461bcd60e51b81526004016104cd90611b70565b600082815260016020526040908190208054600590910154915163a9059cbb60e01b81526101009091046001600160a01b031691829163a9059cbb9161061d91869190600401611931565b602060405180830381600087803b15801561063757600080fd5b505af115801561064b573d6000803e3d6000fd5b505050506040513d601f19601f8201168201806040525081019061066f9190611428565b50505050565b6001602081905260009182526040909120805491810154600282015460038301546004840154600585015460069095015460ff8716966001600160a01b03610100909104811696958116959416939088565b600460209081526000928352604080842090915290825290205481565b6106ec6111f8565b5060009081526001602081815260409283902083516101008082018652825460ff811615158352046001600160a01b039081169382019390935292810154821693830193909352600283015416606082015260038201546080820152600482015460a0820152600582015460c082015260069091015460e082015290565b600360209081526000928352604080842090915290825290205481565b6000838152600160205260409020600301546107b55760405162461bcd60e51b81526004016104cd90611d63565b60008381526001602052604090205460ff16156107e45760405162461bcd60e51b81526004016104cd90611f1f565b6000838152600160205260409020546001600160a01b0383811661010090920416146108225760405162461bcd60e51b81526004016104cd90611e65565b600081116108425760405162461bcd60e51b81526004016104cd90611d2c565b600083815260026020908152604080832033845290915290205481111561087b5760405162461bcd60e51b81526004016104cd90611c3b565b6000838152600160205260408120600501805483929061089c908490612113565b90915550506000838152600260209081526040808320338452909152812080548392906108ca908490612113565b909155505060405163a9059cbb60e01b81526001600160a01b0383169063a9059cbb9061061d9033908590600401611931565b7f000000000000000000000000000000000000000000000000000000000000000081565b600260209081526000928352604080842090915290825290205481565b6000818152600160205260409020600681015460059091015410156109755760405162461bcd60e51b81526004016104cd90611cf5565b60008181526001602052604090205460ff16156109a45760405162461bcd60e51b81526004016104cd90611f1f565b600081815260016020819052604091829020805460ff19169091178155600281015460049182015492517f60bbb9280000000000000000000000000000000000000000000000000000000081526001600160a01b03909116926360bbb92892610a1092869291016119a5565b600060405180830381600087803b158015610a2a57600080fd5b505af1158015610a3e573d6000803e3d6000fd5b505050507f3a5a0357f01e19a1531e65bfe13d63c64c9ae8f03d8c26ae74b1e2929a4f396681604051610a71919061199c565b60405180910390a150565b6000828152600260209081526040808320338452909152902054610ab25760405162461bcd60e51b81526004016104cd90611dd1565b60008281526002602090815260408083203384528252808320548584526001909252822060050154610ae491906120f3565b6000838152600460209081526040808320338452825280832054878452600383528184208785529092528220549293509091610b219084906120f3565b610b2b9190612113565b905060008111610b4d5760405162461bcd60e51b81526004016104cd90611e2e565b6000848152600360209081526040808320868452909152902054811115610b865760405162461bcd60e51b81526004016104cd90611b3b565b600083815260046020908152604080832033845290915281208054839290610baf9084906120db565b925050819055507f00000000000000000000000000000000000000000000000000000000000000006001600160a01b031663f242432a3033868589604051602001610bfa919061199c565b6040516020818303038152906040526040518663ffffffff1660e01b8152600401610c299594939291906118b3565b600060405180830381600087803b158015610c4357600080fd5b505af1158015610c57573d6000803e3d6000fd5b5050505050505050565b600080610c7083850185611448565b6000818152600160205260409020600301549091508114610ca35760405162461bcd60e51b81526004016104cd90611bde565b60008181526001602052604090205460ff16610cd15760405162461bcd60e51b81526004016104cd90611ec2565b60005b87811015610d4557610d33828a8a84818110610d0057634e487b7160e01b600052603260045260246000fd5b90506020020135898985818110610d2757634e487b7160e01b600052603260045260246000fd5b905060200201356111c5565b80610d3d8161212a565b915050610cd4565b507fbc197c81000000000000000000000000000000000000000000000000000000009a9950505050505050505050565b600083815260016020526040902060030154610da35760405162461bcd60e51b81526004016104cd90611d63565b60008381526001602052604090205460ff1615610dd25760405162461bcd60e51b81526004016104cd90611f1f565b6000838152600160205260409020546001600160a01b038381166101009092041614610e105760405162461bcd60e51b81526004016104cd90611e65565b60008111610e305760405162461bcd60e51b81526004016104cd90611d2c565b60008381526001602052604090206006810154600590910154610e5390836120db565b1115610e715760405162461bcd60e51b81526004016104cd90611d9a565b60008381526001602052604081206005018054839290610e929084906120db565b9091555050600083815260026020908152604080832033845290915281208054839290610ec09084906120db565b90915550506040517f23b872dd0000000000000000000000000000000000000000000000000000000081526001600160a01b038316906323b872dd90610f0e9033903090869060040161188f565b602060405180830381600087803b158015610f2857600080fd5b505af1158015610f3c573d6000803e3d6000fd5b505050506040513d601f19601f82011682018060405250810190610f609190611428565b610f7c5760405162461bcd60e51b81526004016104cd90611c98565b505050565b600090815260016020526040902060030154151590565b600080610fa783850185611448565b6000818152600160205260409020600301549091508114610fda5760405162461bcd60e51b81526004016104cd90611bde565b60008181526001602052604090205460ff166110085760405162461bcd60e51b81526004016104cd90611ec2565b6110138187876111c5565b507ff23a6e6100000000000000000000000000000000000000000000000000000000979650505050505050565b6000838152600160205260409020600681015460059091015410156110775760405162461bcd60e51b81526004016104cd90611cf5565b60008381526001602052604090205460ff16156110a65760405162461bcd60e51b81526004016104cd90611f1f565b60008381526001602052604090819020600281015460049182015492517f1a73bd770000000000000000000000000000000000000000000000000000000081526001600160a01b0390911692631a73bd77926111099288929188918891016119b3565b600060405180830381600087803b15801561112357600080fd5b505af1158015611137573d6000803e3d6000fd5b505050600084815260016020819052604091829020805460ff19169091179055517f3a5a0357f01e19a1531e65bfe13d63c64c9ae8f03d8c26ae74b1e2929a4f3966915061118690859061199c565b60405180910390a1505050565b6001600160e01b031981167f01ffc9a70000000000000000000000000000000000000000000000000000000014919050565b6000838152600360209081526040808320858452909152812080548392906111ee9084906120db565b9091555050505050565b6040805161010081018252600080825260208201819052918101829052606081018290526080810182905260a0810182905260c0810182905260e081019190915290565b80356102f98161215b565b60008083601f840112611258578182fd5b50813567ffffffffffffffff81111561126f578182fd5b602083019150836020808302850101111561128957600080fd5b9250929050565b60008083601f8401126112a1578182fd5b50813567ffffffffffffffff8111156112b8578182fd5b60208301915083602082850101111561128957600080fd5b6000602082840312156112e1578081fd5b81516112ec8161215b565b9392505050565b60008060008060008060008060a0898b03121561130e578384fd5b88356113198161215b565b975060208901356113298161215b565b9650604089013567ffffffffffffffff80821115611345578586fd5b6113518c838d01611247565b909850965060608b0135915080821115611369578586fd5b6113758c838d01611247565b909650945060808b013591508082111561138d578384fd5b5061139a8b828c01611290565b999c989b5096995094979396929594505050565b60008060008060008060a087890312156113c6578182fd5b86356113d18161215b565b955060208701356113e18161215b565b94506040870135935060608701359250608087013567ffffffffffffffff81111561140a578283fd5b61141689828a01611290565b979a9699509497509295939492505050565b600060208284031215611439578081fd5b815180151581146112ec578182fd5b600060208284031215611459578081fd5b5035919050565b60008060408385031215611472578182fd5b8235915060208301356114848161215b565b809150509250929050565b6000806000604084860312156114a3578283fd5b83359250602084013567ffffffffffffffff8111156114c0578283fd5b6114cc86828701611247565b9497909650939450505050565b6000806000606084860312156114ed578283fd5b8335925060208401356114ff8161215b565b929592945050506040919091013590565b60008060408385031215611522578182fd5b50508035926020909101359150565b600060208284031215611542578081fd5b81356001600160e01b0319811681146112ec578182fd5b6000806000806080858703121561156e578182fd5b84356115798161215b565b935060208501356115898161215b565b93969395505050506040820135916060013590565b6001600160a01b03169052565b818352602080840193600091908185020181018584845b8781101561164a5782840389528135609e198836030181126115e2578687fd5b87018035855260a086820135600481106115fa578889fd5b868801526040828101359087015260608083013590870152608061162081840184612078565b935082828901526116348389018583611711565b9c89019c975050509286019250506001016115c2565b5091979650505050505050565b60008284526020808501945082825b858110156116b957813587528282013560ff808216808314611686578687fd5b898601526040915083820135908116908181146116a1578687fd5b50908801526060968701969190910190600101611666565b509495945050505050565b60008284527f07ffffffffffffffffffffffffffffffffffffffffffffffffffffffffffffff8311156116f5578081fd5b6020830280836020870137939093016020019283525090919050565b60008284528282602086013780602084860101526020601f19601f85011685010190509392505050565b600081356117488161215b565b6001600160a01b0316835260208281013581850152604080840135818601526060808501359086015261177e6080850185611fe8565b60e0608088015261179360e0880182846116c4565b9150506117a360a0860186611fe8565b87830360a08901528083528483018582028401860183885b8481101561181a57868303601f19018452813536879003603e190181126117e0578a8bfd5b8601803584526117f28a820182611fe8565b9150898b8601526118068a860183836116c4565b958b019594505050908801906001016117bb565b505061182960c08a018a612030565b9750955089810360c08b0152611840818888611657565b9a9950505050505050505050565b6bffffffffffffffffffffffff19606096871b8116825260148201959095529290941b90921660348201526048810191909152606881019190915260880190565b6001600160a01b039384168152919092166020820152604081019190915260600190565b60006001600160a01b03808816835260208188168185015286604085015285606085015260a06080850152845191508160a0850152825b828110156119065785810182015185820160c0015281016118ea565b82811115611917578360c084870101525b5050601f01601f19169190910160c0019695505050505050565b6001600160a01b03929092168252602082015260400190565b901515815260200190565b97151588526001600160a01b0396871660208901529486166040880152929094166060860152608085015260a084019290925260c083019190915260e08201526101000190565b90815260200190565b918252602082015260400190565b8481526020808201859052606060408084018290528382018590526000926080918286018783028701840189875b8a811015611ac957898303607f190184526119fc828d6120bd565b60e08135611a098161215b565b611a13868261159e565b50611a1f88830161123c565b611a2b8987018261159e565b50611a3787830161123c565b611a438887018261159e565b50898201358a860152611a5889830183612078565b828b880152611a6a8388018284611711565b9250505060a0611a7c81840184611fe8565b87840383890152611a8e8482846115ab565b935050505060c0611aa1818401846120bd565b92508582038187015250611ab5818361173b565b9588019594505050908501906001016119e1565b50909c9b505050505050505050505050565b6001600160e01b031991909116815260200190565b6001600160a01b0391909116815260200190565b6020808252600f908201527f496e76616c696420616464726573730000000000000000000000000000000000604082015260600190565b6020808252818101527f50726f706f73616c734875623a3a436c61696d20697320746f6f206c61726765604082015260600190565b60208082526018908201527f496e636f727265637420736f6c76657220616464726573730000000000000000604082015260600190565b6020808252601b908201527f6d73672e73656e646572206e6f7420736f6c7574696f6e734875620000000000604082015260600190565b6020808252602a908201527f50726f706f73616c734875623a3a44617461206973206e6f742076616c69642060408201527f70726f706f73616c496400000000000000000000000000000000000000000000606082015260800190565b60208082526025908201527f436f6d6d69747465642066756e6473206973206c6f776572207468616e20616d60408201527f6f756e742e000000000000000000000000000000000000000000000000000000606082015260800190565b60208082526022908201527f436f756c64206e6f74207472616e736665722066726f6d206d73672e73656e6460408201527f6572000000000000000000000000000000000000000000000000000000000000606082015260800190565b60208082526019908201527f50726f706f73616c206e6f742066756c6c792066756e64656400000000000000604082015260600190565b60208082526015908201527f416d6f756e742063616e6e6f74206265207a65726f0000000000000000000000604082015260600190565b60208082526017908201527f50726f706f73616c20646f6573206e6f74206578697374000000000000000000604082015260600190565b60208082526019908201527f43616e27742066756e64206d6f7265207468616e20676f616c00000000000000604082015260600190565b60208082526025908201527f50726f706f73616c734875623a3a6d73672e73656e64657220686173206e6f2060408201527f636c61696d000000000000000000000000000000000000000000000000000000606082015260800190565b60208082526018908201527f50726f706f73616c734875623a3a436c61696d20697320300000000000000000604082015260600190565b60208082526031908201527f50726f706f73616c20646f6573206e6f7420696e636c7564652074686973207460408201527f6f6b656e20746f2062652066756e646564000000000000000000000000000000606082015260800190565b6020808252602c908201527f50726f706f73616c734875623a3a50726f706f73616c20686173206e6f74206260408201527f65656e2065786563757465640000000000000000000000000000000000000000606082015260800190565b60208082526027908201527f50726f706f73616c734875623a3a50726f706f73616c20616c7265616479206560408201527f7865637574656400000000000000000000000000000000000000000000000000606082015260800190565b60006101008201905082511515825260208301516001600160a01b03808216602085015280604086015116604085015280606086015116606085015250506080830151608083015260a083015160a083015260c083015160c083015260e083015160e083015292915050565b6000808335601e19843603018112611ffe578283fd5b830160208101925035905067ffffffffffffffff81111561201e57600080fd5b60208102360383131561128957600080fd5b6000808335601e19843603018112612046578283fd5b830160208101925035905067ffffffffffffffff81111561206657600080fd5b60608102360383131561128957600080fd5b6000808335601e1984360301811261208e578283fd5b830160208101925035905067ffffffffffffffff8111156120ae57600080fd5b80360383131561128957600080fd5b6000823560de198336030181126120d2578182fd5b90910192915050565b600082198211156120ee576120ee612145565b500190565b60008261210e57634e487b7160e01b81526012600452602481fd5b500490565b60008282101561212557612125612145565b500390565b600060001982141561213e5761213e612145565b5060010190565b634e487b7160e01b600052601160045260246000fd5b6001600160a01b038116811461217057600080fd5b5056fea2646970667358221220601a968fb408ea772bdffa4aa7dd1c7c51e07ce9c9dca4e0c495a57b568b18ca64736f6c63430008000033",
  "devdoc": {
    "kind": "dev",
    "methods": {
      "createProposal(address,address,uint256,bytes32)": {
        "details": "Creates a Proposal from an existing Solution",
        "params": {
          "collateralToken": "ERC20 token being used as collateral for conditional tokens",
          "fundingGoal": "Amount of ERC20 collateral requested for the Proposal",
          "solutionId": "ID of the Solution (from SolutionsHub) being proposed for",
          "solutionsHub": "Address of the SolutionsHub contract managing the Solution"
        }
      },
      "defundProposal(bytes32,address,uint256)": {
        "details": "Called by user to remove their funding from a Proposal",
        "params": {
          "amount": "Amount to be defunded",
          "proposalId": "ID of Proposal being defunded",
          "token": "ERC20 token to be defunded"
        }
      },
      "executeIPFSProposal(bytes32,(address,address,address,uint256,bytes,(uint256,uint8,uint256,uint256,bytes)[],(address,uint256,uint256,uint256,uint256[],(uint256,uint256[])[],(bytes32,uint8,uint8)[]))[])": {
        "details": "Executes a proposal for Solutions where on the *hash* of solver configs is stored on-chain",
        "params": {
          "proposalId": "ID of proposal",
          "solverConfigs": "Configurations of Solvers to be run for the proposed solution"
        }
      },
      "executeProposal(bytes32)": {
        "details": "Executes a proposal for Solutions where Solver configs are stored on-chain",
        "params": {
          "proposalId": "ID of proposal"
        }
      },
      "fundProposal(bytes32,address,uint256)": {
        "details": "Called by user to add funding to a Proposal",
        "params": {
          "amount": "Amount to be funded",
          "proposalId": "ID of Proposal being funded",
          "token": "ERC20 token to be funded with"
        }
      },
      "onERC1155BatchReceived(address,address,uint256[],uint256[],bytes)": {
        "details": "Handles the receipt of a multiple ERC1155 token types. This function is called at the end of a `safeBatchTransferFrom` after the balances have been updated. To accept the transfer(s), this must return `bytes4(keccak256(\"onERC1155BatchReceived(address,address,uint256[],uint256[],bytes)\"))` (i.e. 0xbc197c81, or its own function selector).",
        "params": {
          "data": "Additional data with no specified format",
          "from": "The address which previously owned the token",
          "ids": "An array containing ids of each token being transferred (order and length must match values array)",
          "operator": "The address which initiated the batch transfer (i.e. msg.sender)",
          "values": "An array containing amounts of each token being transferred (order and length must match ids array)"
        },
        "returns": {
          "_0": "`bytes4(keccak256(\"onERC1155BatchReceived(address,address,uint256[],uint256[],bytes)\"))` if transfer is allowed"
        }
      },
      "reclaimTokens(bytes32,uint256)": {
        "details": "Transfers reclaimable CTs to a claimer and lowers their reclaimable balance for that token",
        "params": {
          "proposalId": "ID of proposal being reclaimed from",
          "tokenId": "ERC1155 token being reclaimed"
        }
      },
      "supportsInterface(bytes4)": {
        "details": "See {IERC165-supportsInterface}."
      },
      "transferERC20(bytes32,address)": {
        "details": "Called by SolutionsHub after deploying Solvers",
        "params": {
          "_proposalId": "Proposal that collateral is being transferred from",
          "_solver": "Solver receiving collateral"
        }
      }
    },
    "version": 1
  },
  "userdoc": {
    "kind": "user",
    "methods": {
      "onERC1155Received(address,address,uint256,uint256,bytes)": {
        "notice": "IMPORTANT! Any CTs sent to this contract are reclaimable by the funders in proportion to their funding. If a user reclaims CTs and sends them back again to this contract, they will only be able to reclaim the same fraction of it."
      }
    },
    "version": 1
  },
  "storageLayout": {
    "storage": [
      {
        "astId": 4390,
        "contract": "contracts/ProposalsHub.sol:ProposalsHub",
        "label": "nonce",
        "offset": 0,
        "slot": "0",
        "type": "t_uint256"
      },
      {
        "astId": 4413,
        "contract": "contracts/ProposalsHub.sol:ProposalsHub",
        "label": "proposals",
        "offset": 0,
        "slot": "1",
        "type": "t_mapping(t_bytes32,t_struct(Proposal)4408_storage)"
      },
      {
        "astId": 4419,
        "contract": "contracts/ProposalsHub.sol:ProposalsHub",
        "label": "funderAmountMap",
        "offset": 0,
        "slot": "2",
        "type": "t_mapping(t_bytes32,t_mapping(t_address,t_uint256))"
      },
      {
        "astId": 4425,
        "contract": "contracts/ProposalsHub.sol:ProposalsHub",
        "label": "reclaimableTokens",
        "offset": 0,
        "slot": "3",
        "type": "t_mapping(t_bytes32,t_mapping(t_uint256,t_uint256))"
      },
      {
        "astId": 4431,
        "contract": "contracts/ProposalsHub.sol:ProposalsHub",
        "label": "reclaimedTokens",
        "offset": 0,
        "slot": "4",
        "type": "t_mapping(t_uint256,t_mapping(t_address,t_uint256))"
      }
    ],
    "types": {
      "t_address": {
        "encoding": "inplace",
        "label": "address",
        "numberOfBytes": "20"
      },
      "t_bool": {
        "encoding": "inplace",
        "label": "bool",
        "numberOfBytes": "1"
      },
      "t_bytes32": {
        "encoding": "inplace",
        "label": "bytes32",
        "numberOfBytes": "32"
      },
      "t_contract(IERC20)2042": {
        "encoding": "inplace",
        "label": "contract IERC20",
        "numberOfBytes": "20"
      },
      "t_mapping(t_address,t_uint256)": {
        "encoding": "mapping",
        "key": "t_address",
        "label": "mapping(address => uint256)",
        "numberOfBytes": "32",
        "value": "t_uint256"
      },
      "t_mapping(t_bytes32,t_mapping(t_address,t_uint256))": {
        "encoding": "mapping",
        "key": "t_bytes32",
        "label": "mapping(bytes32 => mapping(address => uint256))",
        "numberOfBytes": "32",
        "value": "t_mapping(t_address,t_uint256)"
      },
      "t_mapping(t_bytes32,t_mapping(t_uint256,t_uint256))": {
        "encoding": "mapping",
        "key": "t_bytes32",
        "label": "mapping(bytes32 => mapping(uint256 => uint256))",
        "numberOfBytes": "32",
        "value": "t_mapping(t_uint256,t_uint256)"
      },
      "t_mapping(t_bytes32,t_struct(Proposal)4408_storage)": {
        "encoding": "mapping",
        "key": "t_bytes32",
        "label": "mapping(bytes32 => struct ProposalsHub.Proposal)",
        "numberOfBytes": "32",
        "value": "t_struct(Proposal)4408_storage"
      },
      "t_mapping(t_uint256,t_mapping(t_address,t_uint256))": {
        "encoding": "mapping",
        "key": "t_uint256",
        "label": "mapping(uint256 => mapping(address => uint256))",
        "numberOfBytes": "32",
        "value": "t_mapping(t_address,t_uint256)"
      },
      "t_mapping(t_uint256,t_uint256)": {
        "encoding": "mapping",
        "key": "t_uint256",
        "label": "mapping(uint256 => uint256)",
        "numberOfBytes": "32",
        "value": "t_uint256"
      },
      "t_struct(Proposal)4408_storage": {
        "encoding": "inplace",
        "label": "struct ProposalsHub.Proposal",
        "members": [
          {
            "astId": 4392,
            "contract": "contracts/ProposalsHub.sol:ProposalsHub",
            "label": "isExecuted",
            "offset": 0,
            "slot": "0",
            "type": "t_bool"
          },
          {
            "astId": 4395,
            "contract": "contracts/ProposalsHub.sol:ProposalsHub",
            "label": "collateralToken",
            "offset": 1,
            "slot": "0",
            "type": "t_contract(IERC20)2042"
          },
          {
            "astId": 4397,
            "contract": "contracts/ProposalsHub.sol:ProposalsHub",
            "label": "proposer",
            "offset": 0,
            "slot": "1",
            "type": "t_address"
          },
          {
            "astId": 4399,
            "contract": "contracts/ProposalsHub.sol:ProposalsHub",
            "label": "solutionsHub",
            "offset": 0,
            "slot": "2",
            "type": "t_address"
          },
          {
            "astId": 4401,
            "contract": "contracts/ProposalsHub.sol:ProposalsHub",
            "label": "id",
            "offset": 0,
            "slot": "3",
            "type": "t_bytes32"
          },
          {
            "astId": 4403,
            "contract": "contracts/ProposalsHub.sol:ProposalsHub",
            "label": "solutionId",
            "offset": 0,
            "slot": "4",
            "type": "t_bytes32"
          },
          {
            "astId": 4405,
            "contract": "contracts/ProposalsHub.sol:ProposalsHub",
            "label": "funding",
            "offset": 0,
            "slot": "5",
            "type": "t_uint256"
          },
          {
            "astId": 4407,
            "contract": "contracts/ProposalsHub.sol:ProposalsHub",
            "label": "fundingGoal",
            "offset": 0,
            "slot": "6",
            "type": "t_uint256"
          }
        ],
        "numberOfBytes": "224"
      },
      "t_uint256": {
        "encoding": "inplace",
        "label": "uint256",
        "numberOfBytes": "32"
      }
    }
  }
}