{
  "address": "0x9fE46736679d2D9a65F0992F2272dE9f3c7fa6e0",
  "abi": [
    {
      "inputs": [
        {
          "internalType": "address",
          "name": "_ctfAddress",
          "type": "address"
        }
      ],
      "stateMutability": "nonpayable",
      "type": "constructor"
    },
    {
      "anonymous": false,
      "inputs": [
        {
          "indexed": true,
          "internalType": "bytes32",
          "name": "id",
          "type": "bytes32"
        }
      ],
      "name": "CreateProposal",
      "type": "event"
    },
    {
      "anonymous": false,
      "inputs": [
        {
          "indexed": true,
          "internalType": "bytes32",
          "name": "id",
          "type": "bytes32"
        },
        {
          "indexed": false,
          "internalType": "uint256",
          "name": "amount",
          "type": "uint256"
        },
        {
          "indexed": false,
          "internalType": "address",
          "name": "to",
          "type": "address"
        }
      ],
      "name": "DefundProposal",
      "type": "event"
    },
    {
      "anonymous": false,
      "inputs": [
        {
          "indexed": true,
          "internalType": "bytes32",
          "name": "id",
          "type": "bytes32"
        }
      ],
      "name": "ExecuteProposal",
      "type": "event"
    },
    {
      "anonymous": false,
      "inputs": [
        {
          "indexed": true,
          "internalType": "bytes32",
          "name": "id",
          "type": "bytes32"
        },
        {
          "indexed": false,
          "internalType": "uint256",
          "name": "amount",
          "type": "uint256"
        },
        {
          "indexed": false,
          "internalType": "address",
          "name": "from",
          "type": "address"
        }
      ],
      "name": "FundProposal",
      "type": "event"
    },
    {
      "inputs": [],
      "name": "conditionalTokens",
      "outputs": [
        {
          "internalType": "contract IConditionalTokens",
          "name": "",
          "type": "address"
        }
      ],
      "stateMutability": "view",
      "type": "function"
    },
    {
      "inputs": [
        {
          "internalType": "bytes32",
          "name": "baseId",
          "type": "bytes32"
        },
        {
          "internalType": "contract IERC20",
          "name": "collateralToken",
          "type": "address"
        },
        {
          "internalType": "contract IIPFSSolutionsHub",
          "name": "ipfsSolutionsHub",
          "type": "address"
        },
        {
          "internalType": "uint256",
          "name": "fundingGoal",
          "type": "uint256"
        },
        {
          "components": [
            {
              "internalType": "contract Solver",
              "name": "implementation",
              "type": "address"
            },
            {
              "internalType": "address",
              "name": "keeper",
              "type": "address"
            },
            {
              "internalType": "address",
              "name": "arbitrator",
              "type": "address"
            },
            {
              "internalType": "uint256",
              "name": "timelockSeconds",
              "type": "uint256"
            },
            {
              "internalType": "bytes",
              "name": "data",
              "type": "bytes"
            },
            {
              "components": [
                {
                  "internalType": "uint256",
                  "name": "executions",
                  "type": "uint256"
                },
                {
                  "internalType": "enum SolverLib.IngestType",
                  "name": "ingestType",
                  "type": "uint8"
                },
                {
                  "internalType": "bytes32",
                  "name": "slot",
                  "type": "bytes32"
                },
                {
                  "internalType": "uint256",
                  "name": "solverIndex",
                  "type": "uint256"
                },
                {
                  "internalType": "bytes",
                  "name": "data",
                  "type": "bytes"
                }
              ],
              "internalType": "struct SolverLib.Ingest[]",
              "name": "ingests",
              "type": "tuple[]"
            },
            {
              "components": [
                {
                  "internalType": "contract IERC20",
                  "name": "collateralToken",
                  "type": "address"
                },
                {
                  "internalType": "uint256",
                  "name": "outcomeSlots",
                  "type": "uint256"
                },
                {
                  "internalType": "uint256",
                  "name": "parentCollectionIndexSet",
                  "type": "uint256"
                },
                {
                  "internalType": "bytes32",
                  "name": "amountSlot",
                  "type": "bytes32"
                },
                {
                  "internalType": "uint256[]",
                  "name": "partition",
                  "type": "uint256[]"
                },
                {
                  "components": [
                    {
                      "internalType": "bytes32",
                      "name": "recipientAddressSlot",
                      "type": "bytes32"
                    },
                    {
                      "internalType": "bytes32[]",
                      "name": "recipientAmountSlots",
                      "type": "bytes32[]"
                    }
                  ],
                  "internalType": "struct SolverLib.Allocation[]",
                  "name": "allocations",
                  "type": "tuple[]"
                },
                {
                  "components": [
                    {
                      "internalType": "bytes32",
                      "name": "digest",
                      "type": "bytes32"
                    },
                    {
                      "internalType": "uint8",
                      "name": "hashFunction",
                      "type": "uint8"
                    },
                    {
                      "internalType": "uint8",
                      "name": "size",
                      "type": "uint8"
                    }
                  ],
                  "internalType": "struct SolverLib.Multihash[]",
                  "name": "outcomeURIs",
                  "type": "tuple[]"
                }
              ],
              "internalType": "struct SolverLib.ConditionBase",
              "name": "conditionBase",
              "type": "tuple"
            }
          ],
          "internalType": "struct SolverLib.Config[]",
          "name": "solverConfigs",
          "type": "tuple[]"
        },
        {
          "components": [
            {
              "internalType": "bytes32",
              "name": "digest",
              "type": "bytes32"
            },
            {
              "internalType": "uint8",
              "name": "hashFunction",
              "type": "uint8"
            },
            {
              "internalType": "uint8",
              "name": "size",
              "type": "uint8"
            }
          ],
          "internalType": "struct SolverLib.Multihash",
          "name": "solverConfigsCID",
          "type": "tuple"
        },
        {
          "components": [
            {
              "internalType": "bytes32",
              "name": "digest",
              "type": "bytes32"
            },
            {
              "internalType": "uint8",
              "name": "hashFunction",
              "type": "uint8"
            },
            {
              "internalType": "uint8",
              "name": "size",
              "type": "uint8"
            }
          ],
          "internalType": "struct SolverLib.Multihash",
          "name": "metadataCID",
          "type": "tuple"
        }
      ],
      "name": "createIPFSSolutionAndProposal",
      "outputs": [
        {
          "internalType": "bytes32",
          "name": "solutionId",
          "type": "bytes32"
        },
        {
          "internalType": "bytes32",
          "name": "proposalId",
          "type": "bytes32"
        }
      ],
      "stateMutability": "nonpayable",
      "type": "function"
    },
    {
      "inputs": [
        {
          "internalType": "contract IERC20",
          "name": "collateralToken",
          "type": "address"
        },
        {
          "internalType": "address",
          "name": "solutionsHub",
          "type": "address"
        },
        {
          "internalType": "uint256",
          "name": "fundingGoal",
          "type": "uint256"
        },
        {
          "internalType": "bytes32",
          "name": "baseId",
          "type": "bytes32"
        },
        {
          "components": [
            {
              "internalType": "bytes32",
              "name": "digest",
              "type": "bytes32"
            },
            {
              "internalType": "uint8",
              "name": "hashFunction",
              "type": "uint8"
            },
            {
              "internalType": "uint8",
              "name": "size",
              "type": "uint8"
            }
          ],
          "internalType": "struct SolverLib.Multihash",
          "name": "metadataCID",
          "type": "tuple"
        }
      ],
      "name": "createProposal",
      "outputs": [
        {
          "internalType": "bytes32",
          "name": "solutionId",
          "type": "bytes32"
        },
        {
          "internalType": "bytes32",
          "name": "proposalId",
          "type": "bytes32"
        }
      ],
      "stateMutability": "nonpayable",
      "type": "function"
    },
    {
      "inputs": [
        {
          "internalType": "bytes32",
          "name": "proposalId",
          "type": "bytes32"
        },
        {
          "internalType": "contract IERC20",
          "name": "token",
          "type": "address"
        },
        {
          "internalType": "uint256",
          "name": "amount",
          "type": "uint256"
        }
      ],
      "name": "defundProposal",
      "outputs": [],
      "stateMutability": "nonpayable",
      "type": "function"
    },
    {
      "inputs": [
        {
          "internalType": "bytes32",
          "name": "proposalId",
          "type": "bytes32"
        },
        {
          "components": [
            {
              "internalType": "contract Solver",
              "name": "implementation",
              "type": "address"
            },
            {
              "internalType": "address",
              "name": "keeper",
              "type": "address"
            },
            {
              "internalType": "address",
              "name": "arbitrator",
              "type": "address"
            },
            {
              "internalType": "uint256",
              "name": "timelockSeconds",
              "type": "uint256"
            },
            {
              "internalType": "bytes",
              "name": "data",
              "type": "bytes"
            },
            {
              "components": [
                {
                  "internalType": "uint256",
                  "name": "executions",
                  "type": "uint256"
                },
                {
                  "internalType": "enum SolverLib.IngestType",
                  "name": "ingestType",
                  "type": "uint8"
                },
                {
                  "internalType": "bytes32",
                  "name": "slot",
                  "type": "bytes32"
                },
                {
                  "internalType": "uint256",
                  "name": "solverIndex",
                  "type": "uint256"
                },
                {
                  "internalType": "bytes",
                  "name": "data",
                  "type": "bytes"
                }
              ],
              "internalType": "struct SolverLib.Ingest[]",
              "name": "ingests",
              "type": "tuple[]"
            },
            {
              "components": [
                {
                  "internalType": "contract IERC20",
                  "name": "collateralToken",
                  "type": "address"
                },
                {
                  "internalType": "uint256",
                  "name": "outcomeSlots",
                  "type": "uint256"
                },
                {
                  "internalType": "uint256",
                  "name": "parentCollectionIndexSet",
                  "type": "uint256"
                },
                {
                  "internalType": "bytes32",
                  "name": "amountSlot",
                  "type": "bytes32"
                },
                {
                  "internalType": "uint256[]",
                  "name": "partition",
                  "type": "uint256[]"
                },
                {
                  "components": [
                    {
                      "internalType": "bytes32",
                      "name": "recipientAddressSlot",
                      "type": "bytes32"
                    },
                    {
                      "internalType": "bytes32[]",
                      "name": "recipientAmountSlots",
                      "type": "bytes32[]"
                    }
                  ],
                  "internalType": "struct SolverLib.Allocation[]",
                  "name": "allocations",
                  "type": "tuple[]"
                },
                {
                  "components": [
                    {
                      "internalType": "bytes32",
                      "name": "digest",
                      "type": "bytes32"
                    },
                    {
                      "internalType": "uint8",
                      "name": "hashFunction",
                      "type": "uint8"
                    },
                    {
                      "internalType": "uint8",
                      "name": "size",
                      "type": "uint8"
                    }
                  ],
                  "internalType": "struct SolverLib.Multihash[]",
                  "name": "outcomeURIs",
                  "type": "tuple[]"
                }
              ],
              "internalType": "struct SolverLib.ConditionBase",
              "name": "conditionBase",
              "type": "tuple"
            }
          ],
          "internalType": "struct SolverLib.Config[]",
          "name": "solverConfigs",
          "type": "tuple[]"
        }
      ],
      "name": "executeIPFSProposal",
      "outputs": [],
      "stateMutability": "nonpayable",
      "type": "function"
    },
    {
      "inputs": [
        {
          "internalType": "bytes32",
          "name": "proposalId",
          "type": "bytes32"
        },
        {
          "internalType": "contract IERC20",
          "name": "token",
          "type": "address"
        },
        {
          "internalType": "uint256",
          "name": "amount",
          "type": "uint256"
        }
      ],
      "name": "fundProposal",
      "outputs": [],
      "stateMutability": "nonpayable",
      "type": "function"
    },
    {
      "inputs": [
        {
          "internalType": "bytes32",
          "name": "",
          "type": "bytes32"
        },
        {
          "internalType": "address",
          "name": "",
          "type": "address"
        }
      ],
      "name": "funderAmountMap",
      "outputs": [
        {
          "internalType": "uint256",
          "name": "",
          "type": "uint256"
        }
      ],
      "stateMutability": "view",
      "type": "function"
    },
    {
      "inputs": [
        {
          "internalType": "bytes32",
          "name": "id",
          "type": "bytes32"
        }
      ],
      "name": "getMetadataCID",
      "outputs": [
        {
          "components": [
            {
              "internalType": "bytes32",
              "name": "digest",
              "type": "bytes32"
            },
            {
              "internalType": "uint8",
              "name": "hashFunction",
              "type": "uint8"
            },
            {
              "internalType": "uint8",
              "name": "size",
              "type": "uint8"
            }
          ],
          "internalType": "struct SolverLib.Multihash",
          "name": "",
          "type": "tuple"
        }
      ],
      "stateMutability": "view",
      "type": "function"
    },
    {
      "inputs": [
        {
          "internalType": "bytes32",
          "name": "id",
          "type": "bytes32"
        }
      ],
      "name": "getProposal",
      "outputs": [
        {
          "components": [
            {
              "internalType": "bool",
              "name": "isExecuted",
              "type": "bool"
            },
            {
              "internalType": "contract IERC20",
              "name": "collateralToken",
              "type": "address"
            },
            {
              "internalType": "address",
              "name": "proposer",
              "type": "address"
            },
            {
              "internalType": "address",
              "name": "solutionsHub",
              "type": "address"
            },
            {
              "internalType": "bytes32",
              "name": "id",
              "type": "bytes32"
            },
            {
              "internalType": "bytes32",
              "name": "solutionId",
              "type": "bytes32"
            },
            {
              "internalType": "uint256",
              "name": "funding",
              "type": "uint256"
            },
            {
              "internalType": "uint256",
              "name": "fundingGoal",
              "type": "uint256"
            },
            {
              "components": [
                {
                  "internalType": "bytes32",
                  "name": "digest",
                  "type": "bytes32"
                },
                {
                  "internalType": "uint8",
                  "name": "hashFunction",
                  "type": "uint8"
                },
                {
                  "internalType": "uint8",
                  "name": "size",
                  "type": "uint8"
                }
              ],
              "internalType": "struct SolverLib.Multihash",
              "name": "metadataCID",
              "type": "tuple"
            }
          ],
          "internalType": "struct ProposalsHub.Proposal",
          "name": "proposal",
          "type": "tuple"
        }
      ],
      "stateMutability": "view",
      "type": "function"
    },
    {
      "inputs": [
        {
          "internalType": "bytes32",
          "name": "id",
          "type": "bytes32"
        }
      ],
      "name": "isProposal",
      "outputs": [
        {
          "internalType": "bool",
          "name": "",
          "type": "bool"
        }
      ],
      "stateMutability": "view",
      "type": "function"
    },
    {
      "inputs": [
        {
          "internalType": "address",
          "name": "operator",
          "type": "address"
        },
        {
          "internalType": "address",
          "name": "from",
          "type": "address"
        },
        {
          "internalType": "uint256[]",
          "name": "ids",
          "type": "uint256[]"
        },
        {
          "internalType": "uint256[]",
          "name": "values",
          "type": "uint256[]"
        },
        {
          "internalType": "bytes",
          "name": "data",
          "type": "bytes"
        }
      ],
      "name": "onERC1155BatchReceived",
      "outputs": [
        {
          "internalType": "bytes4",
          "name": "",
          "type": "bytes4"
        }
      ],
      "stateMutability": "nonpayable",
      "type": "function"
    },
    {
      "inputs": [
        {
          "internalType": "address",
          "name": "operator",
          "type": "address"
        },
        {
          "internalType": "address",
          "name": "from",
          "type": "address"
        },
        {
          "internalType": "uint256",
          "name": "id",
          "type": "uint256"
        },
        {
          "internalType": "uint256",
          "name": "value",
          "type": "uint256"
        },
        {
          "internalType": "bytes",
          "name": "data",
          "type": "bytes"
        }
      ],
      "name": "onERC1155Received",
      "outputs": [
        {
          "internalType": "bytes4",
          "name": "",
          "type": "bytes4"
        }
      ],
      "stateMutability": "nonpayable",
      "type": "function"
    },
    {
      "inputs": [
        {
          "internalType": "bytes32",
          "name": "",
          "type": "bytes32"
        }
      ],
      "name": "proposals",
      "outputs": [
        {
          "internalType": "bool",
          "name": "isExecuted",
          "type": "bool"
        },
        {
          "internalType": "contract IERC20",
          "name": "collateralToken",
          "type": "address"
        },
        {
          "internalType": "address",
          "name": "proposer",
          "type": "address"
        },
        {
          "internalType": "address",
          "name": "solutionsHub",
          "type": "address"
        },
        {
          "internalType": "bytes32",
          "name": "id",
          "type": "bytes32"
        },
        {
          "internalType": "bytes32",
          "name": "solutionId",
          "type": "bytes32"
        },
        {
          "internalType": "uint256",
          "name": "funding",
          "type": "uint256"
        },
        {
          "internalType": "uint256",
          "name": "fundingGoal",
          "type": "uint256"
        },
        {
          "components": [
            {
              "internalType": "bytes32",
              "name": "digest",
              "type": "bytes32"
            },
            {
              "internalType": "uint8",
              "name": "hashFunction",
              "type": "uint8"
            },
            {
              "internalType": "uint8",
              "name": "size",
              "type": "uint8"
            }
          ],
          "internalType": "struct SolverLib.Multihash",
          "name": "metadataCID",
          "type": "tuple"
        }
      ],
      "stateMutability": "view",
      "type": "function"
    },
    {
      "inputs": [
        {
          "internalType": "bytes32",
          "name": "proposalId",
          "type": "bytes32"
        },
        {
          "internalType": "uint256",
          "name": "tokenId",
          "type": "uint256"
        }
      ],
      "name": "reclaimTokens",
      "outputs": [],
      "stateMutability": "nonpayable",
      "type": "function"
    },
    {
      "inputs": [
        {
          "internalType": "bytes32",
          "name": "",
          "type": "bytes32"
        },
        {
          "internalType": "uint256",
          "name": "",
          "type": "uint256"
        }
      ],
      "name": "reclaimableTokens",
      "outputs": [
        {
          "internalType": "uint256",
          "name": "",
          "type": "uint256"
        }
      ],
      "stateMutability": "view",
      "type": "function"
    },
    {
      "inputs": [
        {
          "internalType": "uint256",
          "name": "",
          "type": "uint256"
        },
        {
          "internalType": "address",
          "name": "",
          "type": "address"
        }
      ],
      "name": "reclaimedTokens",
      "outputs": [
        {
          "internalType": "uint256",
          "name": "",
          "type": "uint256"
        }
      ],
      "stateMutability": "view",
      "type": "function"
    },
    {
      "inputs": [
        {
          "internalType": "bytes4",
          "name": "interfaceId",
          "type": "bytes4"
        }
      ],
      "name": "supportsInterface",
      "outputs": [
        {
          "internalType": "bool",
          "name": "",
          "type": "bool"
        }
      ],
      "stateMutability": "view",
      "type": "function"
    },
    {
      "inputs": [
        {
          "internalType": "bytes32",
          "name": "proposalId",
          "type": "bytes32"
        },
        {
          "internalType": "address",
          "name": "solver",
          "type": "address"
        }
      ],
      "name": "transferERC20",
      "outputs": [],
      "stateMutability": "nonpayable",
      "type": "function"
    }
  ],
  "transactionHash": "0xbbf73f6265b8634ae7a01efe91b0735bc36bc71315a012858d8147890ffb507d",
  "args": [
    "0x5FbDB2315678afecb367f032d93F642f64180aa3"
  ],
  "solcInputHash": "8f94e83f8717c76ee706b6f7449e8204",
  "bytecode": "0x60a06040523480156200001157600080fd5b506040516200270a3803806200270a833981016040819052620000349162000046565b6001600160a01b031660805262000078565b6000602082840312156200005957600080fd5b81516001600160a01b03811681146200007157600080fd5b9392505050565b60805161266f6200009b6000396000818161027f01526111d7015261266f6000f3fe608060405234801561001057600080fd5b50600436106100e65760003560e01c806301ffc9a7146100eb5780631918063f1461011357806332c8506e1461012857806332ed5b121461013b57806333c15c34146101e3578063430694cf1461021c57806353ba3f571461023c57806354dd9927146102675780635bd9e2991461027a5780635d7dec6f146102ae57806383460ba8146102d6578063aaa4f33214610301578063aaf7a21414610321578063b70c764c14610334578063bc197c8114610347578063c12639f714610373578063d3f79a0514610386578063f23a6e61146103ab575b600080fd5b6100fe6100f9366004611821565b6103be565b60405190151581526020015b60405180910390f35b61012661012136600461187a565b6103f5565b005b6101266101363660046118f5565b61075d565b6101ce610149366004611940565b600160208181526000928352604092839020805492810154600282015460038301546004840154600585015460068601548951606081018b526007880154815260089097015460ff818116998901999099526101009081900489169a88019a909a52968816986001600160a01b03980488169794851696939094169491939092909189565b60405161010a99989796959493929190611988565b61020e6101f136600461187a565b600460209081526000928352604080842090915290825290205481565b60405190815260200161010a565b61022f61022a366004611940565b6108b4565b60405161010a91906119e9565b61020e61024a366004611a71565b600360209081526000928352604080842090915290825290205481565b610126610275366004611a93565b610970565b6102a17f000000000000000000000000000000000000000000000000000000000000000081565b60405161010a9190611acb565b6102c16102bc366004611af7565b610d02565b6040805192835260208301919091520161010a565b61020e6102e436600461187a565b600260209081526000928352604080842090915290825290205481565b61031461030f366004611940565b610f2d565b60405161010a9190611b53565b6102c161032f366004611b61565b610f7b565b610126610342366004611a71565b611002565b61035a610355366004611c42565b611282565b6040516001600160e01b0319909116815260200161010a565b610126610381366004611a93565b611361565b6100fe610394366004611940565b600090815260016020526040902060030154151590565b61035a6103b9366004611d00565b6116ea565b60006001600160e01b03198216630271189760e51b14806103ef57506301ffc9a760e01b6001600160e01b03198316145b92915050565b6000828152600160205260409020600201546001600160a01b031633146104615760405162461bcd60e51b815260206004820152601b60248201527a36b9b39739b2b73232b9103737ba1039b7b63aba34b7b739a43ab160291b60448201526064015b60405180910390fd5b6001600160a01b0381166104a95760405162461bcd60e51b815260206004820152600f60248201526e496e76616c6964206164647265737360881b6044820152606401610458565b6000828152600160205260408082206002810154600491820154925162c8a40d60e51b81526001600160a01b038087169592169363191481a0936104f893919201918252602082015260400190565b602060405180830381865afa158015610515573d6000803e3d6000fd5b505050506040513d601f19601f820116820180604052508101906105399190611d7b565b6001600160a01b03161461058a5760405162461bcd60e51b8152602060048201526018602482015277496e636f727265637420736f6c766572206164647265737360401b6044820152606401610458565b6000828152600160205260408082205490516370a0823160e01b81526101009091046001600160a01b0316919082906370a08231906105cd903090600401611acb565b602060405180830381865afa1580156105ea573d6000803e3d6000fd5b505050506040513d601f19601f8201168201806040525081019061060e9190611d98565b6000858152600160205260409081902060050154905163a9059cbb60e01b81529192506001600160a01b0384169163a9059cbb9161065191879190600401611db1565b6020604051808303816000875af1158015610670573d6000803e3d6000fd5b505050506040513d601f19601f820116820180604052508101906106949190611dca565b6106b05760405162461bcd60e51b815260040161045890611dec565b600084815260016020526040908190206006015490516370a0823160e01b81526001600160a01b038416906370a08231906106ef903090600401611acb565b602060405180830381865afa15801561070c573d6000803e3d6000fd5b505050506040513d601f19601f820116820180604052508101906107309190611d98565b61073a9083611e2b565b146107575760405162461bcd60e51b815260040161045890611e42565b50505050565b6000838152600160205260409020600681015460059091015410156107c05760405162461bcd60e51b8152602060048201526019602482015278141c9bdc1bdcd85b081b9bdd08199d5b1b1e48199d5b991959603a1b6044820152606401610458565b60008381526001602052604090205460ff16156107ef5760405162461bcd60e51b815260040161045890611e77565b6000838152600160205260409081902060028101546004918201549251632034967b60e21b81526001600160a01b03909116926380d259ec92610839928892918891889101612355565b600060405180830381600087803b15801561085357600080fd5b505af1158015610867573d6000803e3d6000fd5b5050506000848152600160208190526040808320805460ff1916909217909155518592507f3a5a0357f01e19a1531e65bfe13d63c64c9ae8f03d8c26ae74b1e2929a4f39669190a2505050565b6108bc6117ae565b50600090815260016020818152604092839020835161012081018552815460ff808216151583526001600160a01b036101009283900481168487015295840154861683880152600284015490951660608084019190915260038401546080840152600484015460a0840152600584015460c0840152600684015460e0840152865190810187526007840154815260089093015480861694840194909452928390049093169381019390935281019190915290565b60008381526001602052604081206003015490036109a05760405162461bcd60e51b815260040161045890612375565b60008381526001602052604090205460ff16156109cf5760405162461bcd60e51b815260040161045890611e77565b6000838152600160205260409020546001600160a01b038381166101009092041614610a0d5760405162461bcd60e51b8152600401610458906123a6565b60008111610a2d5760405162461bcd60e51b8152600401610458906123f7565b6000838152600260209081526040808320338452909152902054811115610aa45760405162461bcd60e51b815260206004820152602560248201527f436f6d6d69747465642066756e6473206973206c6f776572207468616e20616d60448201526437bab73a1760d91b6064820152608401610458565b6040516370a0823160e01b81526000906001600160a01b038416906370a0823190610ad3903090600401611acb565b602060405180830381865afa158015610af0573d6000803e3d6000fd5b505050506040513d601f19601f82011682018060405250810190610b149190611d98565b905081600160008681526020019081526020016000206005016000828254610b3c9190611e2b565b9091555050600084815260026020908152604080832033845290915281208054849290610b6a908490611e2b565b909155505060405163a9059cbb60e01b81526001600160a01b0384169063a9059cbb90610b9d9033908690600401611db1565b6020604051808303816000875af1158015610bbc573d6000803e3d6000fd5b505050506040513d601f19601f82011682018060405250810190610be09190611dca565b610bfc5760405162461bcd60e51b815260040161045890611dec565b6040516370a0823160e01b815282906001600160a01b038516906370a0823190610c2a903090600401611acb565b602060405180830381865afa158015610c47573d6000803e3d6000fd5b505050506040513d601f19601f82011682018060405250810190610c6b9190611d98565b610c759083611e2b565b14610cc25760405162461bcd60e51b815260206004820152601e60248201527f4265666f726520616e642061667465722062616c616e63652077726f6e6700006044820152606401610458565b837fe2ab43d60bbb163b7fad7413086cd6c1ee0e0a59a9625e4945a10f1b6a167ff98333604051610cf4929190612426565b60405180910390a250505050565b6000805481908180610d138361243d565b90915550506001600160a01b03861663c4e3983f8580610d34600143611e2b565b6000546040805160208101949094529140918301919091526060820152608001604051602081830303815290604052805190602001206040518363ffffffff1660e01b8152600401610d90929190918252602082015260400190565b6020604051808303816000875af1158015610daf573d6000803e3d6000fd5b505050506040513d601f19601f82011682018060405250810190610dd39190611d98565b915081600054604051602001610df3929190918252602082015260400190565b60408051808303601f190181528282528051602091820120600081815260019092529190206003810182905563a2440b9d60e01b835260048301829052602483018590526001600160a01b038a81166044850152919350919088169063a2440b9d90606401600060405180830381600087803b158015610e7257600080fd5b505af1158015610e86573d6000803e3d6000fd5b505082546001600160a01b03808c1661010002610100600160a81b03199092169190911784556001840180546001600160a01b03199081163317909155600285018054928c1692909116919091179055505060048101839055600681018690558360078201610ef58282612456565b505060405182907f2d231481d8c1af3958a30a257e93e0df6b089bc07ebedc0a86e7355d1aaf133890600090a2509550959350505050565b610f35611801565b5060009081526001602090815260409182902082516060810184526007820154815260089091015460ff8082169383019390935261010090049091169181019190915290565b600080876001600160a01b031663fa1a84c78b8b8989896040518663ffffffff1660e01b8152600401610fb295949392919061249a565b600060405180830381600087803b158015610fcc57600080fd5b505af1158015610fe0573d6000803e3d6000fd5b50505050610ff18989898d87610d02565b909b909a5098505050505050505050565b60008281526002602090815260408083203384529091529020546110765760405162461bcd60e51b815260206004820152602560248201527f50726f706f73616c734875623a3a6d73672e73656e64657220686173206e6f20604482015264636c61696d60d81b6064820152608401610458565b600082815260026020908152604080832033845282528083205485845260019092528220600501546110a891906124d4565b60008381526004602090815260408083203384528252808320548784526003835281842087855290925282205492935090916110e59084906124d4565b6110ef9190611e2b565b90506000811161113c5760405162461bcd60e51b8152602060048201526018602482015277050726f706f73616c734875623a3a436c61696d20697320360441b6044820152606401610458565b60008481526003602090815260408083208684529091529020548111156111a55760405162461bcd60e51b815260206004820181905260248201527f50726f706f73616c734875623a3a436c61696d20697320746f6f206c617267656044820152606401610458565b6000838152600460209081526040808320338452909152812080548392906111ce9084906124f6565b925050819055507f00000000000000000000000000000000000000000000000000000000000000006001600160a01b031663f242432a303386858960405160200161121b91815260200190565b6040516020818303038152906040526040518663ffffffff1660e01b815260040161124a95949392919061250e565b600060405180830381600087803b15801561126457600080fd5b505af1158015611278573d6000803e3d6000fd5b5050505050505050565b60008061129183850185611940565b60008181526001602052604090206003015490915081146112c45760405162461bcd60e51b81526004016104589061258d565b60008181526001602052604090205460ff166112f25760405162461bcd60e51b8152600401610458906125d7565b60005b8781101561134a57611338828a8a8481811061131357611313612623565b9050602002013589898581811061132c5761132c612623565b9050602002013561177b565b806113428161243d565b9150506112f5565b5063bc197c8160e01b9a9950505050505050505050565b60008381526001602052604081206003015490036113915760405162461bcd60e51b815260040161045890612375565b60008381526001602052604090205460ff16156113c05760405162461bcd60e51b815260040161045890611e77565b6000838152600160205260409020546001600160a01b0383811661010090920416146113fe5760405162461bcd60e51b8152600401610458906123a6565b6000811161141e5760405162461bcd60e51b8152600401610458906123f7565b6000838152600160205260409020600681015460059091015461144190836124f6565b111561148b5760405162461bcd60e51b815260206004820152601960248201527810d85b89dd08199d5b99081b5bdc99481d1a185b8819dbd85b603a1b6044820152606401610458565b6040516370a0823160e01b81526000906001600160a01b038416906370a08231906114ba903090600401611acb565b602060405180830381865afa1580156114d7573d6000803e3d6000fd5b505050506040513d601f19601f820116820180604052508101906114fb9190611d98565b6040516323b872dd60e01b8152336004820152306024820152604481018490529091506001600160a01b038416906323b872dd906064016020604051808303816000875af1158015611551573d6000803e3d6000fd5b505050506040513d601f19601f820116820180604052508101906115759190611dca565b6115cc5760405162461bcd60e51b815260206004820152602260248201527f436f756c64206e6f74207472616e736665722066726f6d206d73672e73656e6460448201526132b960f11b6064820152608401610458565b8181846001600160a01b03166370a08231306040518263ffffffff1660e01b81526004016115fa9190611acb565b602060405180830381865afa158015611617573d6000803e3d6000fd5b505050506040513d601f19601f8201168201806040525081019061163b9190611d98565b6116459190611e2b565b146116625760405162461bcd60e51b815260040161045890611e42565b600084815260016020526040812060050180548492906116839084906124f6565b90915550506000848152600260209081526040808320338452909152812080548492906116b19084906124f6565b92505081905550837f82999597cf961179ae8200cb30fa0dcf5559a734cfd867ccd187c5dd6946c4138333604051610cf4929190612426565b6000806116f983850185611940565b600081815260016020526040902060030154909150811461172c5760405162461bcd60e51b81526004016104589061258d565b60008181526001602052604090205460ff1661175a5760405162461bcd60e51b8152600401610458906125d7565b61176581878761177b565b5063f23a6e6160e01b90505b9695505050505050565b6000838152600360209081526040808320858452909152812080548392906117a49084906124f6565b9091555050505050565b6040805161012081018252600080825260208201819052918101829052606081018290526080810182905260a0810182905260c0810182905260e081019190915261010081016117fc611801565b905290565b604080516060810182526000808252602082018190529181019190915290565b60006020828403121561183357600080fd5b81356001600160e01b03198116811461184b57600080fd5b9392505050565b6001600160a01b038116811461186757600080fd5b50565b803561187581611852565b919050565b6000806040838503121561188d57600080fd5b82359150602083013561189f81611852565b809150509250929050565b60008083601f8401126118bc57600080fd5b5081356001600160401b038111156118d357600080fd5b6020830191508360208260051b85010111156118ee57600080fd5b9250929050565b60008060006040848603121561190a57600080fd5b8335925060208401356001600160401b0381111561192757600080fd5b611933868287016118aa565b9497909650939450505050565b60006020828403121561195257600080fd5b5035919050565b6001600160a01b03169052565b8051825260ff602082015116602083015260ff60408201511660408301525050565b89151581526001600160a01b0389811660208301528881166040830152871660608201526080810186905260a0810185905260c0810184905260e0810183905261016081016119db610100830184611966565b9a9950505050505050505050565b8151151581526020808301516001600160a01b031690820152604080830151610160830191611a1a90840182611959565b506060830151611a2d6060840182611959565b506080830151608083015260a083015160a083015260c083015160c083015260e083015160e083015261010080840151611a6982850182611966565b505092915050565b60008060408385031215611a8457600080fd5b50508035926020909101359150565b600080600060608486031215611aa857600080fd5b833592506020840135611aba81611852565b929592945050506040919091013590565b6001600160a01b0391909116815260200190565b600060608284031215611af157600080fd5b50919050565b600080600080600060e08688031215611b0f57600080fd5b8535611b1a81611852565b94506020860135611b2a81611852565b93506040860135925060608601359150611b478760808801611adf565b90509295509295909350565b606081016103ef8284611966565b600080600080600080600080610160898b031215611b7e57600080fd5b883597506020890135611b9081611852565b96506040890135611ba081611852565b95506060890135945060808901356001600160401b03811115611bc257600080fd5b611bce8b828c016118aa565b9095509350611be290508a60a08b01611adf565b9150611bf28a6101008b01611adf565b90509295985092959890939650565b60008083601f840112611c1357600080fd5b5081356001600160401b03811115611c2a57600080fd5b6020830191508360208285010111156118ee57600080fd5b60008060008060008060008060a0898b031215611c5e57600080fd5b8835611c6981611852565b97506020890135611c7981611852565b965060408901356001600160401b0380821115611c9557600080fd5b611ca18c838d016118aa565b909850965060608b0135915080821115611cba57600080fd5b611cc68c838d016118aa565b909650945060808b0135915080821115611cdf57600080fd5b50611cec8b828c01611c01565b999c989b5096995094979396929594505050565b60008060008060008060a08789031215611d1957600080fd5b8635611d2481611852565b95506020870135611d3481611852565b9450604087013593506060870135925060808701356001600160401b03811115611d5d57600080fd5b611d6989828a01611c01565b979a9699509497509295939492505050565b600060208284031215611d8d57600080fd5b815161184b81611852565b600060208284031215611daa57600080fd5b5051919050565b6001600160a01b03929092168252602082015260400190565b600060208284031215611ddc57600080fd5b8151801515811461184b57600080fd5b6020808252600f908201526e151c985b9cd9995c8819985a5b1959608a1b604082015260600190565b634e487b7160e01b600052601160045260246000fd5b600082821015611e3d57611e3d611e15565b500390565b6020808252818101527f496e636f72726563742062616c616e6365206166746572207472616e73666572604082015260600190565b60208082526027908201527f50726f706f73616c734875623a3a50726f706f73616c20616c726561647920656040820152661e1958dd5d195960ca1b606082015260800190565b6000808335601e19843603018112611ed557600080fd5b83016020810192503590506001600160401b03811115611ef457600080fd5b8036038313156118ee57600080fd5b81835281816020850137506000828201602090810191909152601f909101601f19169091010190565b6000808335601e19843603018112611f4357600080fd5b83016020810192503590506001600160401b03811115611f6257600080fd5b8060051b36038313156118ee57600080fd5b81835260006020808501808196508560051b810191508460005b878110156120185782840389528135609e19883603018112611faf57600080fd5b87018035855260a08682013560048110611fc857600080fd5b8688015260408281013590870152606080830135908701526080611fee81840184611ebe565b935082828901526120028389018583611f03565b9c89019c97505050928601925050600101611f8e565b5091979650505050505050565b6000823560de1983360301811261203b57600080fd5b90910192915050565b81835260006001600160fb1b0383111561205d57600080fd5b8260051b8083602087013760009401602001938452509192915050565b6000808335601e1984360301811261209157600080fd5b83016020810192503590506001600160401b038111156120b057600080fd5b6060810236038313156118ee57600080fd5b60ff8116811461186757600080fd5b8035825260208101356120e3816120c2565b60ff16602083015260408101356120f9816120c2565b60ff81166040840152505050565b81835260208301925060008160005b8481101561213b5761212886836120d1565b6060958601959190910190600101612116565b5093949350505050565b6000813561215281611852565b6001600160a01b031683526020828101358185015260408084013581860152606080850135908601526121886080850185611f2c565b60e0608088015261219d60e088018284612044565b9150506121ad60a0860186611f2c565b87830360a0890152808352848301600582901b84018601836000805b8581101561222857878403601f19018552823536889003603e190181126121ee578283fd5b8701803585526122008b820182611f2c565b91508a8c8701526122148b87018383612044565b968c019695505050918901916001016121c9565b50505061223860c08a018a61207a565b9750955089810360c08b01526119db818888612107565b81835260006020808501808196508560051b810191508460005b878110156120185782840389526122808288612025565b60e0813561228d81611852565b6001600160a01b031686526122a382880161186a565b6122af88880182611959565b5060406122bd81840161186a565b6122c982890182611959565b50506060828101359087015260806122e381840184611ebe565b83838a01526122f5848a018284611f03565b935050505060a061230881840184611f2c565b888403838a015261231a848284611f74565b935050505060c061232d81840184612025565b925086820381880152506123418183612145565b9a87019a9550505090840190600101612269565b84815283602082015260606040820152600061177160608301848661224f565b602080825260179082015276141c9bdc1bdcd85b08191bd95cc81b9bdd08195e1a5cdd604a1b604082015260600190565b60208082526031908201527f50726f706f73616c20646f6573206e6f7420696e636c756465207468697320746040820152701bdad95b881d1bc8189948199d5b991959607a1b606082015260800190565b602080825260159082015274416d6f756e742063616e6e6f74206265207a65726f60581b604082015260600190565b9182526001600160a01b0316602082015260400190565b60006001820161244f5761244f611e15565b5060010190565b8135815560018101602083013561246c816120c2565b8154604085013561247c816120c2565b61ff008160081b1660ff841661ffff19841617178455505050505050565b8581526001600160a01b038516602082015260c0604082018190526000906124c5908301858761224f565b905061177160608301846120d1565b6000826124f157634e487b7160e01b600052601260045260246000fd5b500490565b6000821982111561250957612509611e15565b500190565b600060018060a01b03808816835260208188168185015286604085015285606085015260a06080850152845191508160a085015260005b828110156125615785810182015185820160c001528101612545565b8281111561257357600060c084870101525b5050601f01601f19169190910160c0019695505050505050565b6020808252602a908201527f50726f706f73616c734875623a3a44617461206973206e6f742076616c6964206040820152691c1c9bdc1bdcd85b125960b21b606082015260800190565b6020808252602c908201527f50726f706f73616c734875623a3a50726f706f73616c20686173206e6f74206260408201526b19595b88195e1958dd5d195960a21b606082015260800190565b634e487b7160e01b600052603260045260246000fdfea264697066735822122011f4669f2fd82b339c2b3f19acb6cd81e7232847590806e29bf348180aec2b1464736f6c634300080d0033",
  "devdoc": {
    "kind": "dev",
    "methods": {
      "createProposal(address,address,uint256,bytes32,(bytes32,uint8,uint8))": {
        "details": "Creates a Proposal from an existing Solution.Base",
        "params": {
          "baseId": "ID of the Solution.Base for which a new instance and proposal is created",
          "collateralToken": "ERC20 token being used as collateral for conditional tokens",
          "fundingGoal": "Amount of ERC20 collateral requested for the Proposal",
          "solutionsHub": "Address of the SolutionsHub contract managing the Solution"
        }
      },
      "defundProposal(bytes32,address,uint256)": {
        "details": "Called by user to remove their funding from a Proposal",
        "params": {
          "amount": "Amount to be defunded",
          "proposalId": "ID of Proposal being defunded",
          "token": "ERC20 token to be defunded"
        }
      },
      "executeIPFSProposal(bytes32,(address,address,address,uint256,bytes,(uint256,uint8,bytes32,uint256,bytes)[],(address,uint256,uint256,bytes32,uint256[],(bytes32,bytes32[])[],(bytes32,uint8,uint8)[]))[])": {
        "details": "Executes a proposal for Solutions where on the *hash* of solver configs is stored on-chain",
        "params": {
          "proposalId": "ID of proposal",
          "solverConfigs": "Configurations of Solvers to be run for the proposed solution"
        }
      },
      "fundProposal(bytes32,address,uint256)": {
        "details": "Called by user to add funding to a Proposal",
        "params": {
          "amount": "Amount to be funded",
          "proposalId": "ID of Proposal being funded",
          "token": "ERC20 token to be funded with"
        }
      },
      "onERC1155BatchReceived(address,address,uint256[],uint256[],bytes)": {
        "details": "Handles the receipt of a multiple ERC1155 token types. This function is called at the end of a `safeBatchTransferFrom` after the balances have been updated. To accept the transfer(s), this must return `bytes4(keccak256(\"onERC1155BatchReceived(address,address,uint256[],uint256[],bytes)\"))` (i.e. 0xbc197c81, or its own function selector).",
        "params": {
          "data": "Additional data with no specified format",
          "from": "The address which previously owned the token",
          "ids": "An array containing ids of each token being transferred (order and length must match values array)",
          "operator": "The address which initiated the batch transfer (i.e. msg.sender)",
          "values": "An array containing amounts of each token being transferred (order and length must match ids array)"
        },
        "returns": {
          "_0": "`bytes4(keccak256(\"onERC1155BatchReceived(address,address,uint256[],uint256[],bytes)\"))` if transfer is allowed"
        }
      },
      "reclaimTokens(bytes32,uint256)": {
        "details": "Transfers reclaimable CTs to a claimer and lowers their reclaimable balance for that token",
        "params": {
          "proposalId": "ID of proposal being reclaimed from",
          "tokenId": "ERC1155 token being reclaimed"
        }
      },
      "supportsInterface(bytes4)": {
        "details": "See {IERC165-supportsInterface}."
      },
      "transferERC20(bytes32,address)": {
        "details": "Called by SolutionsHub after deploying Solvers",
        "params": {
          "proposalId": "Proposal that collateral is being transferred from",
          "solver": "Solver receiving collateral"
        }
      }
    },
    "version": 1
  },
  "userdoc": {
    "kind": "user",
    "methods": {
      "onERC1155Received(address,address,uint256,uint256,bytes)": {
        "notice": "IMPORTANT! Any CTs sent to this contract are reclaimable by the funders in proportion to their funding. If a user reclaims CTs and sends them back again to this contract, they will only be able to  regain from them a fraction of their original funding."
      }
    },
    "version": 1
  },
  "storageLayout": {
    "storage": [
      {
        "astId": 7573,
        "contract": "contracts/ProposalsHub.sol:ProposalsHub",
        "label": "nonce",
        "offset": 0,
        "slot": "0",
        "type": "t_uint256"
      },
      {
        "astId": 7599,
        "contract": "contracts/ProposalsHub.sol:ProposalsHub",
        "label": "proposals",
        "offset": 0,
        "slot": "1",
        "type": "t_mapping(t_bytes32,t_struct(Proposal)7594_storage)"
      },
      {
        "astId": 7605,
        "contract": "contracts/ProposalsHub.sol:ProposalsHub",
        "label": "funderAmountMap",
        "offset": 0,
        "slot": "2",
        "type": "t_mapping(t_bytes32,t_mapping(t_address,t_uint256))"
      },
      {
        "astId": 7611,
        "contract": "contracts/ProposalsHub.sol:ProposalsHub",
        "label": "reclaimableTokens",
        "offset": 0,
        "slot": "3",
        "type": "t_mapping(t_bytes32,t_mapping(t_uint256,t_uint256))"
      },
      {
        "astId": 7617,
        "contract": "contracts/ProposalsHub.sol:ProposalsHub",
        "label": "reclaimedTokens",
        "offset": 0,
        "slot": "4",
        "type": "t_mapping(t_uint256,t_mapping(t_address,t_uint256))"
      }
    ],
    "types": {
      "t_address": {
        "encoding": "inplace",
        "label": "address",
        "numberOfBytes": "20"
      },
      "t_bool": {
        "encoding": "inplace",
        "label": "bool",
        "numberOfBytes": "1"
      },
      "t_bytes32": {
        "encoding": "inplace",
        "label": "bytes32",
        "numberOfBytes": "32"
      },
      "t_contract(IERC20)2691": {
        "encoding": "inplace",
        "label": "contract IERC20",
        "numberOfBytes": "20"
      },
      "t_mapping(t_address,t_uint256)": {
        "encoding": "mapping",
        "key": "t_address",
        "label": "mapping(address => uint256)",
        "numberOfBytes": "32",
        "value": "t_uint256"
      },
      "t_mapping(t_bytes32,t_mapping(t_address,t_uint256))": {
        "encoding": "mapping",
        "key": "t_bytes32",
        "label": "mapping(bytes32 => mapping(address => uint256))",
        "numberOfBytes": "32",
        "value": "t_mapping(t_address,t_uint256)"
      },
      "t_mapping(t_bytes32,t_mapping(t_uint256,t_uint256))": {
        "encoding": "mapping",
        "key": "t_bytes32",
        "label": "mapping(bytes32 => mapping(uint256 => uint256))",
        "numberOfBytes": "32",
        "value": "t_mapping(t_uint256,t_uint256)"
      },
      "t_mapping(t_bytes32,t_struct(Proposal)7594_storage)": {
        "encoding": "mapping",
        "key": "t_bytes32",
        "label": "mapping(bytes32 => struct ProposalsHub.Proposal)",
        "numberOfBytes": "32",
        "value": "t_struct(Proposal)7594_storage"
      },
      "t_mapping(t_uint256,t_mapping(t_address,t_uint256))": {
        "encoding": "mapping",
        "key": "t_uint256",
        "label": "mapping(uint256 => mapping(address => uint256))",
        "numberOfBytes": "32",
        "value": "t_mapping(t_address,t_uint256)"
      },
      "t_mapping(t_uint256,t_uint256)": {
        "encoding": "mapping",
        "key": "t_uint256",
        "label": "mapping(uint256 => uint256)",
        "numberOfBytes": "32",
        "value": "t_uint256"
      },
      "t_struct(Multihash)10193_storage": {
        "encoding": "inplace",
        "label": "struct SolverLib.Multihash",
        "members": [
          {
            "astId": 10188,
            "contract": "contracts/ProposalsHub.sol:ProposalsHub",
            "label": "digest",
            "offset": 0,
            "slot": "0",
            "type": "t_bytes32"
          },
          {
            "astId": 10190,
            "contract": "contracts/ProposalsHub.sol:ProposalsHub",
            "label": "hashFunction",
            "offset": 0,
            "slot": "1",
            "type": "t_uint8"
          },
          {
            "astId": 10192,
            "contract": "contracts/ProposalsHub.sol:ProposalsHub",
            "label": "size",
            "offset": 1,
            "slot": "1",
            "type": "t_uint8"
          }
        ],
        "numberOfBytes": "64"
      },
      "t_struct(Proposal)7594_storage": {
        "encoding": "inplace",
        "label": "struct ProposalsHub.Proposal",
        "members": [
          {
            "astId": 7575,
            "contract": "contracts/ProposalsHub.sol:ProposalsHub",
            "label": "isExecuted",
            "offset": 0,
            "slot": "0",
            "type": "t_bool"
          },
          {
            "astId": 7578,
            "contract": "contracts/ProposalsHub.sol:ProposalsHub",
            "label": "collateralToken",
            "offset": 1,
            "slot": "0",
            "type": "t_contract(IERC20)2691"
          },
          {
            "astId": 7580,
            "contract": "contracts/ProposalsHub.sol:ProposalsHub",
            "label": "proposer",
            "offset": 0,
            "slot": "1",
            "type": "t_address"
          },
          {
            "astId": 7582,
            "contract": "contracts/ProposalsHub.sol:ProposalsHub",
            "label": "solutionsHub",
            "offset": 0,
            "slot": "2",
            "type": "t_address"
          },
          {
            "astId": 7584,
            "contract": "contracts/ProposalsHub.sol:ProposalsHub",
            "label": "id",
            "offset": 0,
            "slot": "3",
            "type": "t_bytes32"
          },
          {
            "astId": 7586,
            "contract": "contracts/ProposalsHub.sol:ProposalsHub",
            "label": "solutionId",
            "offset": 0,
            "slot": "4",
            "type": "t_bytes32"
          },
          {
            "astId": 7588,
            "contract": "contracts/ProposalsHub.sol:ProposalsHub",
            "label": "funding",
            "offset": 0,
            "slot": "5",
            "type": "t_uint256"
          },
          {
            "astId": 7590,
            "contract": "contracts/ProposalsHub.sol:ProposalsHub",
            "label": "fundingGoal",
            "offset": 0,
            "slot": "6",
            "type": "t_uint256"
          },
          {
            "astId": 7593,
            "contract": "contracts/ProposalsHub.sol:ProposalsHub",
            "label": "metadataCID",
            "offset": 0,
            "slot": "7",
            "type": "t_struct(Multihash)10193_storage"
          }
        ],
        "numberOfBytes": "288"
      },
      "t_uint256": {
        "encoding": "inplace",
        "label": "uint256",
        "numberOfBytes": "32"
      },
      "t_uint8": {
        "encoding": "inplace",
        "label": "uint8",
        "numberOfBytes": "1"
      }
    }
  }
}