{
  "address": "0xe7f1725E7734CE288F8367e1Bb143E90bb3F0512",
  "abi": [
    {
      "inputs": [
        {
          "internalType": "address",
          "name": "_ctfAddress",
          "type": "address"
        }
      ],
      "stateMutability": "nonpayable",
      "type": "constructor"
    },
    {
      "anonymous": false,
      "inputs": [
        {
          "indexed": false,
          "internalType": "address",
          "name": "newSolverAddress",
          "type": "address"
        }
      ],
      "name": "SolverCreated",
      "type": "event"
    },
    {
      "inputs": [
        {
          "internalType": "address",
          "name": "chainParent",
          "type": "address"
        },
        {
          "internalType": "uint256",
          "name": "chainIndex",
          "type": "uint256"
        },
        {
          "components": [
            {
              "internalType": "contract Solver",
              "name": "implementation",
              "type": "address"
            },
            {
              "internalType": "address",
              "name": "keeper",
              "type": "address"
            },
            {
              "internalType": "address",
              "name": "arbitrator",
              "type": "address"
            },
            {
              "internalType": "uint256",
              "name": "timelockSeconds",
              "type": "uint256"
            },
            {
              "components": [
                {
                  "internalType": "contract IModule",
                  "name": "module",
                  "type": "address"
                },
                {
                  "internalType": "bytes",
                  "name": "data",
                  "type": "bytes"
                }
              ],
              "internalType": "struct Modulated.Loader[]",
              "name": "moduleLoaders",
              "type": "tuple[]"
            },
            {
              "components": [
                {
                  "internalType": "uint256",
                  "name": "executions",
                  "type": "uint256"
                },
                {
                  "internalType": "enum SolverLib.IngestType",
                  "name": "ingestType",
                  "type": "uint8"
                },
                {
                  "internalType": "bytes32",
                  "name": "slot",
                  "type": "bytes32"
                },
                {
                  "internalType": "uint256",
                  "name": "solverIndex",
                  "type": "uint256"
                },
                {
                  "internalType": "bytes",
                  "name": "data",
                  "type": "bytes"
                }
              ],
              "internalType": "struct SolverLib.Ingest[]",
              "name": "ingests",
              "type": "tuple[]"
            },
            {
              "components": [
                {
                  "internalType": "contract IERC20",
                  "name": "collateralToken",
                  "type": "address"
                },
                {
                  "internalType": "uint256",
                  "name": "outcomeSlots",
                  "type": "uint256"
                },
                {
                  "internalType": "uint256",
                  "name": "parentCollectionIndexSet",
                  "type": "uint256"
                },
                {
                  "internalType": "bytes32",
                  "name": "amountSlot",
                  "type": "bytes32"
                },
                {
                  "internalType": "uint256[]",
                  "name": "partition",
                  "type": "uint256[]"
                },
                {
                  "components": [
                    {
                      "internalType": "bytes32",
                      "name": "recipientAddressSlot",
                      "type": "bytes32"
                    },
                    {
                      "internalType": "bytes32[]",
                      "name": "recipientAmountSlots",
                      "type": "bytes32[]"
                    }
                  ],
                  "internalType": "struct SolverLib.Allocation[]",
                  "name": "allocations",
                  "type": "tuple[]"
                },
                {
                  "components": [
                    {
                      "internalType": "bytes32",
                      "name": "digest",
                      "type": "bytes32"
                    },
                    {
                      "internalType": "uint8",
                      "name": "hashFunction",
                      "type": "uint8"
                    },
                    {
                      "internalType": "uint8",
                      "name": "size",
                      "type": "uint8"
                    }
                  ],
                  "internalType": "struct SolverLib.Multihash[]",
                  "name": "outcomeURIs",
                  "type": "tuple[]"
                }
              ],
              "internalType": "struct SolverLib.ConditionBase",
              "name": "conditionBase",
              "type": "tuple"
            }
          ],
          "internalType": "struct SolverLib.Config",
          "name": "solverConfig",
          "type": "tuple"
        }
      ],
      "name": "createSolver",
      "outputs": [
        {
          "internalType": "address",
          "name": "",
          "type": "address"
        }
      ],
      "stateMutability": "nonpayable",
      "type": "function"
    },
    {
      "inputs": [
        {
          "internalType": "uint256",
          "name": "",
          "type": "uint256"
        }
      ],
      "name": "solvers",
      "outputs": [
        {
          "internalType": "address",
          "name": "",
          "type": "address"
        }
      ],
      "stateMutability": "view",
      "type": "function"
    }
  ],
  "transactionHash": "0x6c00a5e30ec69767a194116e8fc3995ae0bbbda7f399ed472c749af644d0a9b2",
  "args": [
    "0x5FbDB2315678afecb367f032d93F642f64180aa3"
  ],
  "solcInputHash": "8524795ffd5237f98542e34bdc783536",
  "bytecode": "0x60a060405234801561001057600080fd5b50604051610a3a380380610a3a83398101604081905261002f91610040565b6001600160a01b0316608052610070565b60006020828403121561005257600080fd5b81516001600160a01b038116811461006957600080fd5b9392505050565b6080516109af61008b60003960006101c901526109af6000f3fe608060405234801561001057600080fd5b50600436106100365760003560e01c80634961389b1461003b57806392ce765e14610064575b600080fd5b61004e61004936600461039b565b610077565b60405161005b9190610407565b60405180910390f35b61004e61007236600461041b565b6102b1565b6000806100876020840184610434565b6001600160a01b0316036100f85760405162461bcd60e51b815260206004820152602d60248201527f536f6c766572466163746f72793a3a496e76616c696420696d706c656d656e7460448201526c6174696f6e206164647265737360981b60648201526084015b60405180910390fd5b6001600160a01b03841615801561010d575082155b8061012b57506001600160a01b0384161580159061012b5750600083115b6101895760405162461bcd60e51b815260206004820152602960248201527f536f6c766572466163746f72793a3a496e76616c696420636861696e207061726044820152680cadce85ed2dcc8caf60bb1b60648201526084016100ef565b60006101a061019b6020850185610434565b6102db565b604051630ebe1bbd60e01b81529091506001600160a01b03821690630ebe1bbd906101f79033907f0000000000000000000000000000000000000000000000000000000000000000908a908a908a90600401610879565b600060405180830381600087803b15801561021157600080fd5b505af1158015610225573d6000803e3d6000fd5b5050600080546001810182559080527f290decd9548b62a8d60345a988386fc84ba6bc95484008f6362f93160ef3e5630180546001600160a01b0319166001600160a01b03851617905550506040517ff209a592917f50f3a35587a0febcddc6d39633e81c51e5a8e4c0a4b1da853285906102a1908390610407565b60405180910390a1949350505050565b600081815481106102c157600080fd5b6000918252602090912001546001600160a01b0316905081565b6000604051733d602d80600a3d3981f3363d3d373d3d3d363d7360601b81528260601b60148201526e5af43d82803e903d91602b57fd5bf360881b60288201526037816000f09150506001600160a01b0381166103735760405162461bcd60e51b8152602060048201526016602482015275115490cc4c4d8dce8818dc99585d194819985a5b195960521b60448201526064016100ef565b919050565b6001600160a01b038116811461038d57600080fd5b50565b803561037381610378565b6000806000606084860312156103b057600080fd5b83356103bb81610378565b92506020840135915060408401356001600160401b038111156103dd57600080fd5b840160e081870312156103ef57600080fd5b809150509250925092565b6001600160a01b03169052565b6001600160a01b0391909116815260200190565b60006020828403121561042d57600080fd5b5035919050565b60006020828403121561044657600080fd5b813561045181610378565b9392505050565b6000808335601e1984360301811261046f57600080fd5b83016020810192503590506001600160401b0381111561048e57600080fd5b8060051b36038313156104a057600080fd5b9250929050565b6000808335601e198436030181126104be57600080fd5b83016020810192503590506001600160401b038111156104dd57600080fd5b8036038313156104a057600080fd5b81835281816020850137506000828201602090810191909152601f909101601f19169091010190565b60008235603e1983360301811261052b57600080fd5b90910192915050565b818352600060208085019450848460051b86018460005b878110156105af5783830389526105628288610515565b6040813561056f81610378565b6001600160a01b03168552610586828801836104a7565b9250818887015261059a82870184836104ec565b9b88019b95505050918501915060010161054b565b5090979650505050505050565b60008383855260208086019550808560051b8301018460005b878110156105af57848303601f19018952813536889003609e190181126105fb57600080fd5b87018035845260a0858201356004811061061457600080fd5b858701526040828101359086015260608083013590860152608061063a818401846104a7565b9350828288015261064e83880185836104ec565b9c88019c965050509285019250506001016105d5565b6000823560de1983360301811261052b57600080fd5b81835260006001600160fb1b0383111561069357600080fd5b8260051b8083602087013760009401602001938452509192915050565b6000808335601e198436030181126106c757600080fd5b83016020810192503590506001600160401b038111156106e657600080fd5b6060810236038313156104a057600080fd5b803560ff8116811461037357600080fd5b8183526000602080850194508260005b8581101561076457813587526107308383016106f8565b60ff90811688850152604090806107488584016106f8565b1691890191909152506060968701969190910190600101610719565b509495945050505050565b6000813561077c81610378565b6001600160a01b031683526020828101358185015260408084013581860152606080850135908601526107b26080850185610458565b60e060808801526107c760e08801828461067a565b9150506107d760a0860186610458565b87830360a0890152808352848301600582901b840186018360005b8481101561084557868303601f1901845261080d8287610515565b8035845261081d8a820182610458565b9150898b8601526108318a8601838361067a565b958b019594505050908801906001016107f2565b505061085460c08a018a6106b0565b9750955089810360c08b015261086b818888610709565b9a9950505050505050505050565b6001600160a01b038681168252858116602083015284811660408301526060820184905260a0608083015260009083356108b281610378565b1660a08301526108c460208401610390565b6108d160c08401826103fa565b506108de60408401610390565b6108eb60e08401826103fa565b5060608301356101008301526109046080840184610458565b60e061012085015261091b61018085018284610534565b91505061092b60a0850185610458565b609f1980868503016101408701526109448483856105bc565b935061095360c0880188610664565b92508086850301610160870152505061096c828261076f565b999850505050505050505056fea2646970667358221220745034b46bbfe8773f973a784375a0fe8811b3a52b00fd0e9ca55388cf3d751464736f6c634300080d0033",
  "devdoc": {
    "kind": "dev",
    "methods": {
      "createSolver(address,uint256,(address,address,address,uint256,(address,bytes)[],(uint256,uint8,bytes32,uint256,bytes)[],(address,uint256,uint256,bytes32,uint256[],(bytes32,bytes32[])[],(bytes32,uint8,uint8)[])))": {
        "params": {
          "chainIndex": "Index of solver in its chain",
          "chainParent": "Parent solver, or address(0)",
          "solverConfig": "Solver configuration"
        }
      }
    },
    "version": 1
  },
  "userdoc": {
    "kind": "user",
    "methods": {
      "createSolver(address,uint256,(address,address,address,uint256,(address,bytes)[],(uint256,uint8,bytes32,uint256,bytes)[],(address,uint256,uint256,bytes32,uint256[],(bytes32,bytes32[])[],(bytes32,uint8,uint8)[])))": {
        "notice": "Deploys Solver clone and calls init function"
      }
    },
    "version": 1
  },
  "storageLayout": {
    "storage": [
      {
        "astId": 10799,
        "contract": "contracts/solvers/SolverFactory.sol:SolverFactory",
        "label": "solvers",
        "offset": 0,
        "slot": "0",
        "type": "t_array(t_address)dyn_storage"
      }
    ],
    "types": {
      "t_address": {
        "encoding": "inplace",
        "label": "address",
        "numberOfBytes": "20"
      },
      "t_array(t_address)dyn_storage": {
        "base": "t_address",
        "encoding": "dynamic_array",
        "label": "address[]",
        "numberOfBytes": "32"
      }
    }
  }
}