{
  "address": "0x0165878A594ca255338adfa4d48449f69242Eb8F",
  "abi": [
    {
      "anonymous": false,
      "inputs": [
        {
          "indexed": false,
          "internalType": "bytes32",
          "name": "conditionId",
          "type": "bytes32"
        }
      ],
      "name": "ChangedStatus",
      "type": "event"
    },
    {
      "anonymous": false,
      "inputs": [
        {
          "indexed": false,
          "internalType": "bytes32",
          "name": "conditionId",
          "type": "bytes32"
        }
      ],
      "name": "DeliveredNullArbitration",
      "type": "event"
    },
    {
      "anonymous": false,
      "inputs": [
        {
          "indexed": false,
          "internalType": "address",
          "name": "child",
          "type": "address"
        }
      ],
      "name": "DeployedChild",
      "type": "event"
    },
    {
      "anonymous": false,
      "inputs": [],
      "name": "IngestedData",
      "type": "event"
    },
    {
      "anonymous": false,
      "inputs": [
        {
          "indexed": false,
          "internalType": "uint8",
          "name": "version",
          "type": "uint8"
        }
      ],
      "name": "Initialized",
      "type": "event"
    },
    {
      "anonymous": false,
      "inputs": [
        {
          "indexed": false,
          "internalType": "address",
          "name": "solver",
          "type": "address"
        },
        {
          "indexed": false,
          "internalType": "uint256",
          "name": "solveIndex",
          "type": "uint256"
        }
      ],
      "name": "PreparedSolve",
      "type": "event"
    },
    {
      "anonymous": false,
      "inputs": [
        {
          "indexed": false,
          "internalType": "string",
          "name": "cid",
          "type": "string"
        },
        {
          "indexed": false,
          "internalType": "address",
          "name": "sender",
          "type": "address"
        },
        {
          "indexed": false,
          "internalType": "bytes32",
          "name": "conditionId",
          "type": "bytes32"
        }
      ],
      "name": "SentMessage",
      "type": "event"
    },
    {
      "anonymous": false,
      "inputs": [
        {
          "indexed": false,
          "internalType": "string",
          "name": "cid",
          "type": "string"
        },
        {
          "indexed": false,
          "internalType": "address",
          "name": "submitter",
          "type": "address"
        },
        {
          "indexed": false,
          "internalType": "bytes32",
          "name": "conditionId",
          "type": "bytes32"
        }
      ],
      "name": "SubmittedWork",
      "type": "event"
    },
    {
      "inputs": [
        {
          "internalType": "bytes32",
          "name": "_slot",
          "type": "bytes32"
        },
        {
          "internalType": "bytes",
          "name": "_data",
          "type": "bytes"
        }
      ],
      "name": "addData",
      "outputs": [],
      "stateMutability": "nonpayable",
      "type": "function"
    },
    {
      "inputs": [
        {
          "internalType": "uint256",
          "name": "_index",
          "type": "uint256"
        }
      ],
      "name": "addressFromChainIndex",
      "outputs": [
        {
          "internalType": "address",
          "name": "_address",
          "type": "address"
        }
      ],
      "stateMutability": "view",
      "type": "function"
    },
    {
      "inputs": [
        {
          "internalType": "uint256",
          "name": "_index",
          "type": "uint256"
        }
      ],
      "name": "allocationsValid",
      "outputs": [
        {
          "internalType": "bool",
          "name": "",
          "type": "bool"
        }
      ],
      "stateMutability": "view",
      "type": "function"
    },
    {
      "inputs": [
        {
          "internalType": "uint256",
          "name": "_index",
          "type": "uint256"
        },
        {
          "internalType": "uint256[]",
          "name": "payouts",
          "type": "uint256[]"
        }
      ],
      "name": "arbitrate",
      "outputs": [],
      "stateMutability": "nonpayable",
      "type": "function"
    },
    {
      "inputs": [
        {
          "internalType": "uint256",
          "name": "_index",
          "type": "uint256"
        }
      ],
      "name": "arbitrateNull",
      "outputs": [],
      "stateMutability": "nonpayable",
      "type": "function"
    },
    {
      "inputs": [
        {
          "internalType": "uint256",
          "name": "_index",
          "type": "uint256"
        }
      ],
      "name": "arbitrationRequested",
      "outputs": [],
      "stateMutability": "nonpayable",
      "type": "function"
    },
    {
      "inputs": [],
      "name": "arbitrator",
      "outputs": [
        {
          "internalType": "address",
          "name": "",
          "type": "address"
        }
      ],
      "stateMutability": "view",
      "type": "function"
    },
    {
      "inputs": [],
      "name": "buyer",
      "outputs": [
        {
          "internalType": "address",
          "name": "",
          "type": "address"
        }
      ],
      "stateMutability": "view",
      "type": "function"
    },
    {
      "inputs": [],
      "name": "chainChild",
      "outputs": [
        {
          "internalType": "address",
          "name": "",
          "type": "address"
        }
      ],
      "stateMutability": "view",
      "type": "function"
    },
    {
      "inputs": [],
      "name": "chainIndex",
      "outputs": [
        {
          "internalType": "uint256",
          "name": "",
          "type": "uint256"
        }
      ],
      "stateMutability": "view",
      "type": "function"
    },
    {
      "inputs": [],
      "name": "chainParent",
      "outputs": [
        {
          "internalType": "address",
          "name": "",
          "type": "address"
        }
      ],
      "stateMutability": "view",
      "type": "function"
    },
    {
      "inputs": [],
      "name": "collateralBalance",
      "outputs": [
        {
          "internalType": "uint256",
          "name": "balance",
          "type": "uint256"
        }
      ],
      "stateMutability": "view",
      "type": "function"
    },
    {
      "inputs": [
        {
          "internalType": "uint256",
          "name": "index",
          "type": "uint256"
        }
      ],
      "name": "condition",
      "outputs": [
        {
          "components": [
            {
              "internalType": "contract IERC20",
              "name": "collateralToken",
              "type": "address"
            },
            {
              "internalType": "bytes32",
              "name": "questionId",
              "type": "bytes32"
            },
            {
              "internalType": "bytes32",
              "name": "parentCollectionId",
              "type": "bytes32"
            },
            {
              "internalType": "bytes32",
              "name": "conditionId",
              "type": "bytes32"
            },
            {
              "internalType": "uint256[]",
              "name": "payouts",
              "type": "uint256[]"
            },
            {
              "internalType": "enum SolverLib.Status",
              "name": "status",
              "type": "uint8"
            }
          ],
          "internalType": "struct SolverLib.Condition",
          "name": "",
          "type": "tuple"
        }
      ],
      "stateMutability": "view",
      "type": "function"
    },
    {
      "inputs": [
        {
          "internalType": "uint256",
          "name": "",
          "type": "uint256"
        }
      ],
      "name": "conditions",
      "outputs": [
        {
          "internalType": "contract IERC20",
          "name": "collateralToken",
          "type": "address"
        },
        {
          "internalType": "bytes32",
          "name": "questionId",
          "type": "bytes32"
        },
        {
          "internalType": "bytes32",
          "name": "parentCollectionId",
          "type": "bytes32"
        },
        {
          "internalType": "bytes32",
          "name": "conditionId",
          "type": "bytes32"
        },
        {
          "internalType": "enum SolverLib.Status",
          "name": "status",
          "type": "uint8"
        }
      ],
      "stateMutability": "view",
      "type": "function"
    },
    {
      "inputs": [],
      "name": "config",
      "outputs": [
        {
          "internalType": "contract Solver",
          "name": "implementation",
          "type": "address"
        },
        {
          "internalType": "address",
          "name": "keeper",
          "type": "address"
        },
        {
          "internalType": "address",
          "name": "arbitrator",
          "type": "address"
        },
        {
          "internalType": "uint256",
          "name": "timelockSeconds",
          "type": "uint256"
        },
        {
          "internalType": "bytes",
          "name": "data",
          "type": "bytes"
        },
        {
          "components": [
            {
              "internalType": "contract IERC20",
              "name": "collateralToken",
              "type": "address"
            },
            {
              "internalType": "uint256",
              "name": "outcomeSlots",
              "type": "uint256"
            },
            {
              "internalType": "uint256",
              "name": "parentCollectionIndexSet",
              "type": "uint256"
            },
            {
              "internalType": "bytes32",
              "name": "amountSlot",
              "type": "bytes32"
            },
            {
              "internalType": "uint256[]",
              "name": "partition",
              "type": "uint256[]"
            },
            {
              "components": [
                {
                  "internalType": "bytes32",
                  "name": "recipientAddressSlot",
                  "type": "bytes32"
                },
                {
                  "internalType": "bytes32[]",
                  "name": "recipientAmountSlots",
                  "type": "bytes32[]"
                }
              ],
              "internalType": "struct SolverLib.Allocation[]",
              "name": "allocations",
              "type": "tuple[]"
            },
            {
              "components": [
                {
                  "internalType": "bytes32",
                  "name": "digest",
                  "type": "bytes32"
                },
                {
                  "internalType": "uint8",
                  "name": "hashFunction",
                  "type": "uint8"
                },
                {
                  "internalType": "uint8",
                  "name": "size",
                  "type": "uint8"
                }
              ],
              "internalType": "struct SolverLib.Multihash[]",
              "name": "outcomeURIs",
              "type": "tuple[]"
            }
          ],
          "internalType": "struct SolverLib.ConditionBase",
          "name": "conditionBase",
          "type": "tuple"
        }
      ],
      "stateMutability": "view",
      "type": "function"
    },
    {
      "inputs": [
        {
          "internalType": "uint256",
          "name": "_index",
          "type": "uint256"
        }
      ],
      "name": "confirmPayouts",
      "outputs": [],
      "stateMutability": "nonpayable",
      "type": "function"
    },
    {
      "inputs": [
        {
          "components": [
            {
              "internalType": "contract Solver",
              "name": "implementation",
              "type": "address"
            },
            {
              "internalType": "address",
              "name": "keeper",
              "type": "address"
            },
            {
              "internalType": "address",
              "name": "arbitrator",
              "type": "address"
            },
            {
              "internalType": "uint256",
              "name": "timelockSeconds",
              "type": "uint256"
            },
            {
              "internalType": "bytes",
              "name": "data",
              "type": "bytes"
            },
            {
              "components": [
                {
                  "internalType": "uint256",
                  "name": "executions",
                  "type": "uint256"
                },
                {
                  "internalType": "enum SolverLib.IngestType",
                  "name": "ingestType",
                  "type": "uint8"
                },
                {
                  "internalType": "bytes32",
                  "name": "slot",
                  "type": "bytes32"
                },
                {
                  "internalType": "uint256",
                  "name": "solverIndex",
                  "type": "uint256"
                },
                {
                  "internalType": "bytes",
                  "name": "data",
                  "type": "bytes"
                }
              ],
              "internalType": "struct SolverLib.Ingest[]",
              "name": "ingests",
              "type": "tuple[]"
            },
            {
              "components": [
                {
                  "internalType": "contract IERC20",
                  "name": "collateralToken",
                  "type": "address"
                },
                {
                  "internalType": "uint256",
                  "name": "outcomeSlots",
                  "type": "uint256"
                },
                {
                  "internalType": "uint256",
                  "name": "parentCollectionIndexSet",
                  "type": "uint256"
                },
                {
                  "internalType": "bytes32",
                  "name": "amountSlot",
                  "type": "bytes32"
                },
                {
                  "internalType": "uint256[]",
                  "name": "partition",
                  "type": "uint256[]"
                },
                {
                  "components": [
                    {
                      "internalType": "bytes32",
                      "name": "recipientAddressSlot",
                      "type": "bytes32"
                    },
                    {
                      "internalType": "bytes32[]",
                      "name": "recipientAmountSlots",
                      "type": "bytes32[]"
                    }
                  ],
                  "internalType": "struct SolverLib.Allocation[]",
                  "name": "allocations",
                  "type": "tuple[]"
                },
                {
                  "components": [
                    {
                      "internalType": "bytes32",
                      "name": "digest",
                      "type": "bytes32"
                    },
                    {
                      "internalType": "uint8",
                      "name": "hashFunction",
                      "type": "uint8"
                    },
                    {
                      "internalType": "uint8",
                      "name": "size",
                      "type": "uint8"
                    }
                  ],
                  "internalType": "struct SolverLib.Multihash[]",
                  "name": "outcomeURIs",
                  "type": "tuple[]"
                }
              ],
              "internalType": "struct SolverLib.ConditionBase",
              "name": "conditionBase",
              "type": "tuple"
            }
          ],
          "internalType": "struct SolverLib.Config",
          "name": "_config",
          "type": "tuple"
        }
      ],
      "name": "deployChild",
      "outputs": [
        {
          "internalType": "address",
          "name": "",
          "type": "address"
        }
      ],
      "stateMutability": "nonpayable",
      "type": "function"
    },
    {
      "inputs": [
        {
          "internalType": "uint256",
          "name": "_index",
          "type": "uint256"
        }
      ],
      "name": "executeSolve",
      "outputs": [],
      "stateMutability": "nonpayable",
      "type": "function"
    },
    {
      "inputs": [
        {
          "internalType": "bytes32",
          "name": "_slot",
          "type": "bytes32"
        }
      ],
      "name": "getAllData",
      "outputs": [
        {
          "internalType": "bytes[]",
          "name": "data",
          "type": "bytes[]"
        }
      ],
      "stateMutability": "view",
      "type": "function"
    },
    {
      "inputs": [
        {
          "internalType": "bytes32",
          "name": "_slot",
          "type": "bytes32"
        }
      ],
      "name": "getCallbackOutput",
      "outputs": [
        {
          "internalType": "bytes",
          "name": "data",
          "type": "bytes"
        }
      ],
      "stateMutability": "view",
      "type": "function"
    },
    {
      "inputs": [],
      "name": "getConditions",
      "outputs": [
        {
          "components": [
            {
              "internalType": "contract IERC20",
              "name": "collateralToken",
              "type": "address"
            },
            {
              "internalType": "bytes32",
              "name": "questionId",
              "type": "bytes32"
            },
            {
              "internalType": "bytes32",
              "name": "parentCollectionId",
              "type": "bytes32"
            },
            {
              "internalType": "bytes32",
              "name": "conditionId",
              "type": "bytes32"
            },
            {
              "internalType": "uint256[]",
              "name": "payouts",
              "type": "uint256[]"
            },
            {
              "internalType": "enum SolverLib.Status",
              "name": "status",
              "type": "uint8"
            }
          ],
          "internalType": "struct SolverLib.Condition[]",
          "name": "",
          "type": "tuple[]"
        }
      ],
      "stateMutability": "view",
      "type": "function"
    },
    {
      "inputs": [],
      "name": "getConfig",
      "outputs": [
        {
          "components": [
            {
              "internalType": "contract Solver",
              "name": "implementation",
              "type": "address"
            },
            {
              "internalType": "address",
              "name": "keeper",
              "type": "address"
            },
            {
              "internalType": "address",
              "name": "arbitrator",
              "type": "address"
            },
            {
              "internalType": "uint256",
              "name": "timelockSeconds",
              "type": "uint256"
            },
            {
              "internalType": "bytes",
              "name": "data",
              "type": "bytes"
            },
            {
              "components": [
                {
                  "internalType": "uint256",
                  "name": "executions",
                  "type": "uint256"
                },
                {
                  "internalType": "enum SolverLib.IngestType",
                  "name": "ingestType",
                  "type": "uint8"
                },
                {
                  "internalType": "bytes32",
                  "name": "slot",
                  "type": "bytes32"
                },
                {
                  "internalType": "uint256",
                  "name": "solverIndex",
                  "type": "uint256"
                },
                {
                  "internalType": "bytes",
                  "name": "data",
                  "type": "bytes"
                }
              ],
              "internalType": "struct SolverLib.Ingest[]",
              "name": "ingests",
              "type": "tuple[]"
            },
            {
              "components": [
                {
                  "internalType": "contract IERC20",
                  "name": "collateralToken",
                  "type": "address"
                },
                {
                  "internalType": "uint256",
                  "name": "outcomeSlots",
                  "type": "uint256"
                },
                {
                  "internalType": "uint256",
                  "name": "parentCollectionIndexSet",
                  "type": "uint256"
                },
                {
                  "internalType": "bytes32",
                  "name": "amountSlot",
                  "type": "bytes32"
                },
                {
                  "internalType": "uint256[]",
                  "name": "partition",
                  "type": "uint256[]"
                },
                {
                  "components": [
                    {
                      "internalType": "bytes32",
                      "name": "recipientAddressSlot",
                      "type": "bytes32"
                    },
                    {
                      "internalType": "bytes32[]",
                      "name": "recipientAmountSlots",
                      "type": "bytes32[]"
                    }
                  ],
                  "internalType": "struct SolverLib.Allocation[]",
                  "name": "allocations",
                  "type": "tuple[]"
                },
                {
                  "components": [
                    {
                      "internalType": "bytes32",
                      "name": "digest",
                      "type": "bytes32"
                    },
                    {
                      "internalType": "uint8",
                      "name": "hashFunction",
                      "type": "uint8"
                    },
                    {
                      "internalType": "uint8",
                      "name": "size",
                      "type": "uint8"
                    }
                  ],
                  "internalType": "struct SolverLib.Multihash[]",
                  "name": "outcomeURIs",
                  "type": "tuple[]"
                }
              ],
              "internalType": "struct SolverLib.ConditionBase",
              "name": "conditionBase",
              "type": "tuple"
            }
          ],
          "internalType": "struct SolverLib.Config",
          "name": "",
          "type": "tuple"
        }
      ],
      "stateMutability": "view",
      "type": "function"
    },
    {
      "inputs": [
        {
          "internalType": "bytes32",
          "name": "_slot",
          "type": "bytes32"
        }
      ],
      "name": "getData",
      "outputs": [
        {
          "internalType": "bytes",
          "name": "data",
          "type": "bytes"
        }
      ],
      "stateMutability": "view",
      "type": "function"
    },
    {
      "inputs": [
        {
          "internalType": "bytes32",
          "name": "slot",
          "type": "bytes32"
        }
      ],
      "name": "getOutgoingCallbacks",
      "outputs": [
        {
          "internalType": "address[]",
          "name": "",
          "type": "address[]"
        }
      ],
      "stateMutability": "view",
      "type": "function"
    },
    {
      "inputs": [
        {
          "internalType": "uint256",
          "name": "conditionIndex",
          "type": "uint256"
        }
      ],
      "name": "getStatus",
      "outputs": [
        {
          "internalType": "enum SolverLib.Status",
          "name": "status",
          "type": "uint8"
        }
      ],
      "stateMutability": "view",
      "type": "function"
    },
    {
      "inputs": [
        {
          "internalType": "bytes32",
          "name": "_slot",
          "type": "bytes32"
        }
      ],
      "name": "handleCallback",
      "outputs": [],
      "stateMutability": "nonpayable",
      "type": "function"
    },
    {
      "inputs": [],
      "name": "ingestsValid",
      "outputs": [
        {
          "internalType": "bool",
          "name": "",
          "type": "bool"
        }
      ],
      "stateMutability": "view",
      "type": "function"
    },
    {
      "inputs": [
        {
          "internalType": "address",
          "name": "_deployer",
          "type": "address"
        },
        {
          "internalType": "address",
          "name": "_ctfAddress",
          "type": "address"
        },
        {
          "internalType": "address",
          "name": "_chainParent",
          "type": "address"
        },
        {
          "internalType": "uint256",
          "name": "_chainIndex",
          "type": "uint256"
        },
        {
          "components": [
            {
              "internalType": "contract Solver",
              "name": "implementation",
              "type": "address"
            },
            {
              "internalType": "address",
              "name": "keeper",
              "type": "address"
            },
            {
              "internalType": "address",
              "name": "arbitrator",
              "type": "address"
            },
            {
              "internalType": "uint256",
              "name": "timelockSeconds",
              "type": "uint256"
            },
            {
              "internalType": "bytes",
              "name": "data",
              "type": "bytes"
            },
            {
              "components": [
                {
                  "internalType": "uint256",
                  "name": "executions",
                  "type": "uint256"
                },
                {
                  "internalType": "enum SolverLib.IngestType",
                  "name": "ingestType",
                  "type": "uint8"
                },
                {
                  "internalType": "bytes32",
                  "name": "slot",
                  "type": "bytes32"
                },
                {
                  "internalType": "uint256",
                  "name": "solverIndex",
                  "type": "uint256"
                },
                {
                  "internalType": "bytes",
                  "name": "data",
                  "type": "bytes"
                }
              ],
              "internalType": "struct SolverLib.Ingest[]",
              "name": "ingests",
              "type": "tuple[]"
            },
            {
              "components": [
                {
                  "internalType": "contract IERC20",
                  "name": "collateralToken",
                  "type": "address"
                },
                {
                  "internalType": "uint256",
                  "name": "outcomeSlots",
                  "type": "uint256"
                },
                {
                  "internalType": "uint256",
                  "name": "parentCollectionIndexSet",
                  "type": "uint256"
                },
                {
                  "internalType": "bytes32",
                  "name": "amountSlot",
                  "type": "bytes32"
                },
                {
                  "internalType": "uint256[]",
                  "name": "partition",
                  "type": "uint256[]"
                },
                {
                  "components": [
                    {
                      "internalType": "bytes32",
                      "name": "recipientAddressSlot",
                      "type": "bytes32"
                    },
                    {
                      "internalType": "bytes32[]",
                      "name": "recipientAmountSlots",
                      "type": "bytes32[]"
                    }
                  ],
                  "internalType": "struct SolverLib.Allocation[]",
                  "name": "allocations",
                  "type": "tuple[]"
                },
                {
                  "components": [
                    {
                      "internalType": "bytes32",
                      "name": "digest",
                      "type": "bytes32"
                    },
                    {
                      "internalType": "uint8",
                      "name": "hashFunction",
                      "type": "uint8"
                    },
                    {
                      "internalType": "uint8",
                      "name": "size",
                      "type": "uint8"
                    }
                  ],
                  "internalType": "struct SolverLib.Multihash[]",
                  "name": "outcomeURIs",
                  "type": "tuple[]"
                }
              ],
              "internalType": "struct SolverLib.ConditionBase",
              "name": "conditionBase",
              "type": "tuple"
            }
          ],
          "internalType": "struct SolverLib.Config",
          "name": "_solverConfig",
          "type": "tuple"
        }
      ],
      "name": "init",
      "outputs": [],
      "stateMutability": "nonpayable",
      "type": "function"
    },
    {
      "inputs": [
        {
          "internalType": "address",
          "name": "account",
          "type": "address"
        },
        {
          "internalType": "uint256",
          "name": "conditionIndex",
          "type": "uint256"
        }
      ],
      "name": "isRecipient",
      "outputs": [
        {
          "internalType": "bool",
          "name": "",
          "type": "bool"
        }
      ],
      "stateMutability": "view",
      "type": "function"
    },
    {
      "inputs": [],
      "name": "keeper",
      "outputs": [
        {
          "internalType": "address",
          "name": "",
          "type": "address"
        }
      ],
      "stateMutability": "view",
      "type": "function"
    },
    {
      "inputs": [
        {
          "internalType": "address",
          "name": "operator",
          "type": "address"
        },
        {
          "internalType": "address",
          "name": "from",
          "type": "address"
        },
        {
          "internalType": "uint256[]",
          "name": "ids",
          "type": "uint256[]"
        },
        {
          "internalType": "uint256[]",
          "name": "values",
          "type": "uint256[]"
        },
        {
          "internalType": "bytes",
          "name": "data",
          "type": "bytes"
        }
      ],
      "name": "onERC1155BatchReceived",
      "outputs": [
        {
          "internalType": "bytes4",
          "name": "",
          "type": "bytes4"
        }
      ],
      "stateMutability": "nonpayable",
      "type": "function"
    },
    {
      "inputs": [
        {
          "internalType": "address",
          "name": "operator",
          "type": "address"
        },
        {
          "internalType": "address",
          "name": "from",
          "type": "address"
        },
        {
          "internalType": "uint256",
          "name": "id",
          "type": "uint256"
        },
        {
          "internalType": "uint256",
          "name": "value",
          "type": "uint256"
        },
        {
          "internalType": "bytes",
          "name": "data",
          "type": "bytes"
        }
      ],
      "name": "onERC1155Received",
      "outputs": [
        {
          "internalType": "bytes4",
          "name": "",
          "type": "bytes4"
        }
      ],
      "stateMutability": "nonpayable",
      "type": "function"
    },
    {
      "inputs": [
        {
          "internalType": "uint256",
          "name": "_index",
          "type": "uint256"
        }
      ],
      "name": "prepareSolve",
      "outputs": [],
      "stateMutability": "nonpayable",
      "type": "function"
    },
    {
      "inputs": [
        {
          "internalType": "uint256",
          "name": "_index",
          "type": "uint256"
        },
        {
          "internalType": "uint256[]",
          "name": "_payouts",
          "type": "uint256[]"
        }
      ],
      "name": "proposePayouts",
      "outputs": [],
      "stateMutability": "nonpayable",
      "type": "function"
    },
    {
      "inputs": [
        {
          "internalType": "contract IERC20",
          "name": "_collateralToken",
          "type": "address"
        },
        {
          "internalType": "bytes32",
          "name": "_parentCollectionId",
          "type": "bytes32"
        },
        {
          "internalType": "bytes32",
          "name": "_conditionId",
          "type": "bytes32"
        },
        {
          "internalType": "uint256[]",
          "name": "_indexSets",
          "type": "uint256[]"
        }
      ],
      "name": "redeemPosition",
      "outputs": [],
      "stateMutability": "nonpayable",
      "type": "function"
    },
    {
      "inputs": [
        {
          "internalType": "bytes32",
          "name": "_slot",
          "type": "bytes32"
        },
        {
          "internalType": "uint256",
          "name": "_chainIndex",
          "type": "uint256"
        }
      ],
      "name": "registerOutgoingCallback",
      "outputs": [],
      "stateMutability": "nonpayable",
      "type": "function"
    },
    {
      "inputs": [
        {
          "internalType": "string",
          "name": "cid",
          "type": "string"
        },
        {
          "internalType": "bytes32",
          "name": "conditionId",
          "type": "bytes32"
        }
      ],
      "name": "sendMessage",
      "outputs": [],
      "stateMutability": "nonpayable",
      "type": "function"
    },
    {
      "inputs": [
        {
          "internalType": "bytes32",
          "name": "_trackingId",
          "type": "bytes32"
        }
      ],
      "name": "setTrackingId",
      "outputs": [],
      "stateMutability": "nonpayable",
      "type": "function"
    },
    {
      "inputs": [
        {
          "internalType": "string",
          "name": "cid",
          "type": "string"
        },
        {
          "internalType": "bytes32",
          "name": "conditionId",
          "type": "bytes32"
        }
      ],
      "name": "submitWork",
      "outputs": [],
      "stateMutability": "nonpayable",
      "type": "function"
    },
    {
      "inputs": [
        {
          "internalType": "bytes4",
          "name": "interfaceId",
          "type": "bytes4"
        }
      ],
      "name": "supportsInterface",
      "outputs": [
        {
          "internalType": "bool",
          "name": "",
          "type": "bool"
        }
      ],
      "stateMutability": "view",
      "type": "function"
    },
    {
      "inputs": [
        {
          "internalType": "uint256",
          "name": "",
          "type": "uint256"
        }
      ],
      "name": "timelocks",
      "outputs": [
        {
          "internalType": "uint256",
          "name": "",
          "type": "uint256"
        }
      ],
      "stateMutability": "view",
      "type": "function"
    },
    {
      "inputs": [],
      "name": "trackingId",
      "outputs": [
        {
          "internalType": "bytes32",
          "name": "",
          "type": "bytes32"
        }
      ],
      "stateMutability": "view",
      "type": "function"
    },
    {
      "inputs": [],
      "name": "writer",
      "outputs": [
        {
          "internalType": "address",
          "name": "",
          "type": "address"
        }
      ],
      "stateMutability": "view",
      "type": "function"
    }
  ],
  "transactionHash": "0xa5fa1499b6bba7414d6c8425bbebcf40aff8f1a166ca3f98c786acffe657f0ac",
  "args": [],
  "solcInputHash": "0d15cf5720a5e8a92faf23d455498ba0",
  "bytecode": "0x60806040523480156200001157600080fd5b506200001c62000022565b6200013b565b6200002e60ff62000031565b50565b60008054610100900460ff16156200009a578160ff1660011480156200006a57506200006830620000de60201b62002c411760201c565b155b620000925760405162461bcd60e51b81526004016200008990620000ed565b60405180910390fd5b506000919050565b60005460ff808416911610620000c45760405162461bcd60e51b81526004016200008990620000ed565b506000805460ff191660ff92909216919091179055600190565b6001600160a01b03163b151590565b6020808252602e908201527f496e697469616c697a61626c653a20636f6e747261637420697320616c72656160408201526d191e481a5b9a5d1a585b1a5e995960921b606082015260800190565b6159a4806200014b6000396000f3fe608060405234801561001057600080fd5b50600436106101f95760003560e01c806301ffc9a7146101fe5780630944e26e14610226578063098b37f7146102465780630d06101a146102665780630d7e149f1461027b5780630d8d39751461029c57806318782559146102af57806326c50007146102c25780633837b05e146102e65780633cd07f41146102f95780633f4fb5aa1461030c57806344c3b6071461032c578063453a2abc1461033f57806348cbb2fc146103525780634a77234e1461035b5780634dab5e691461036e5780634e46f22314610381578063506da0b81461039457806354f6127f146103a757806355dd978b146103ba5780635c622a0e146103cd5780636cc6cde1146103ed5780637150d8ae146103fe57806379502c55146104115780637c1236271461042b57806380b204b71461044057806380c2dde2146104535780638602ce1b1461046657806387dfee57146104795780638bc3a08f1461048c578063999925061461049f578063aced1661146104a7578063b992db0f146104b8578063bc197c81146104cb578063c05bc73114610506578063c08d6f0114610519578063c3f909d414610539578063c98c05b71461054e578063de3a23c514610556578063df33cc5114610569578063ea8221a91461057c578063f23a6e6114610585578063f24fc90314610598575b600080fd5b61021161020c366004613897565b6105b8565b60405190151581526020015b60405180910390f35b6102396102343660046138e0565b6105ef565b60405161021d9190613929565b61025961025436600461393d565b610743565b60405161021d9190613956565b61027961027436600461393d565b6107af565b005b61028e61028936600461393d565b61080c565b60405190815260200161021d565b6102796102aa36600461393d565b61082d565b6102796102bd366004613a03565b610987565b6102d56102d036600461393d565b610a21565b60405161021d959493929190613a96565b6102396102f436600461393d565b610a6f565b610279610307366004613b09565b610b50565b61031f61031a36600461393d565b610be8565b60405161021d9190613bb0565b61021161033a36600461393d565b610cfa565b601c54610239906001600160a01b031681565b61028e60155481565b61027961036936600461393d565b610d7f565b61027961037c36600461393d565b6110f2565b61027961038f36600461393d565b61126e565b6102116103a2366004613bce565b61131f565b61031f6103b536600461393d565b611464565b601254610239906001600160a01b031681565b6103e06103db36600461393d565b611484565b60405161021d9190613bfa565b6005546001600160a01b0316610239565b601d54610239906001600160a01b031681565b6104196114b6565b60405161021d96959493929190613d91565b610433611741565b60405161021d9190613e4c565b61027961044e366004613eae565b611854565b601154610239906001600160a01b031681565b610279610474366004613f8e565b6119bb565b61027961048736600461403a565b611aba565b61027961049a3660046140d6565b611c3c565b610211611de7565b6004546001600160a01b0316610239565b6102796104c636600461393d565b611e6c565b6104ed6104d9366004614154565b63bc197c8160e01b98975050505050505050565b6040516001600160e01b0319909116815260200161021d565b610279610514366004613b09565b612089565b61052c61052736600461393d565b612188565b60405161021d9190614212565b61054161226d565b60405161021d9190614308565b61028e61266a565b61027961056436600461393d565b6126dc565b6102796105773660046143a7565b612a13565b61028e60135481565b6104ed6105933660046143c9565b612b11565b6105ab6105a636600461393d565b612b24565b60405161021d9190614444565b60006001600160e01b03198216630271189760e51b14806105e957506301ffc9a760e01b6001600160e01b03198316145b92915050565b6004546000906001600160a01b0316331461063f5760405162461bcd60e51b815260206004820152600b60248201526a27b7363c9035b2b2b832b960a91b60448201526064015b60405180910390fd5b6012546001600160a01b03161561068b5760405162461bcd60e51b815260206004820152601060248201526f14dbdb1d995c881a185cc818da1a5b1960821b6044820152606401610636565b6000546013546015546040516386a2d22760e01b815273Cf7Ed3AccA5a467e9e704C703E8D87F634fB0Fc9936386a2d227936106dd93620100009092046001600160a01b0316928892906004016147ef565b602060405180830381865af41580156106fa573d6000803e3d6000fd5b505050506040513d601f19601f8201168201806040525081019061071e91906148df565b601280546001600160a01b0319166001600160a01b0392909216918217905592915050565b6000818152601860209081526040918290208054835181840281018401909452808452606093928301828280156107a357602002820191906000526020600020905b81546001600160a01b03168152600190910190602001808311610785575b50505050509050919050565b601554156107f05760405162461bcd60e51b815260206004820152600e60248201526d151c9858dada5b99d259081cd95d60921b6044820152606401610636565b6002546001600160a01b0316331461080757600080fd5b601555565b6014818154811061081c57600080fd5b600091825260209091200154905081565b60148181548110610840576108406148fc565b906000526020600020015442116108695760405162461bcd60e51b815260040161063690614912565b60026010828154811061087e5761087e6148fc565b60009182526020909120600560069092020181015460ff16908111156108a6576108a6613a6c565b146108ea5760405162461bcd60e51b815260206004820152601460248201527313dd5d18dbdb59481b9bdd081c1c9bdc1bdcd95960621b6044820152606401610636565b6001546010805473Cf7Ed3AccA5a467e9e704C703E8D87F634fB0Fc9926385c92867926001600160a01b039091169185908110610929576109296148fc565b90600052602060002090600602016040518363ffffffff1660e01b8152600401610954929190614941565b60006040518083038186803b15801561096c57600080fd5b505af4158015610980573d6000803e3d6000fd5b5050505050565b6004546001600160a01b031633146109b15760405162461bcd60e51b81526004016106369061495a565b600154604051626dc0df60e21b81526001600160a01b03909116906301b7037c906109e8908890889088908890889060040161497f565b600060405180830381600087803b158015610a0257600080fd5b505af1158015610a16573d6000803e3d6000fd5b505050505050505050565b60108181548110610a3157600080fd5b6000918252602090912060069091020180546001820154600283015460038401546005909401546001600160a01b0390931694509092909160ff1685565b60006013548203610a81575030919050565b601354821015610af857601154604051631c1bd82f60e11b8152600481018490526001600160a01b0390911690633837b05e90602401602060405180830381865afa158015610ad4573d6000803e3d6000fd5b505050506040513d601f19601f820116820180604052508101906105e991906148df565b601354821115610b4b57601254604051631c1bd82f60e11b8152600481018490526001600160a01b0390911690633837b05e90602401602060405180830381865afa158015610ad4573d6000803e3d6000fd5b919050565b6004546001600160a01b0316331480610b7357506005546001600160a01b031633145b80610b885750601c546001600160a01b031633145b80610b9d5750601d546001600160a01b031633145b610ba657600080fd5b7f0a68dfc3d2deb2d1042207bd18d04cd94b7ae50b8dd6735129aff86f18bfa8cd83833384604051610bdb94939291906149b8565b60405180910390a1505050565b6010546000828152601a602052604090205460609114610c3e5760405162461bcd60e51b815260206004820152601160248201527029b637ba1034b73b30b634b2103b32b91760791b6044820152606401610636565b6000828152601a602052604090208054610c5a906001906149fe565b81548110610c6a57610c6a6148fc565b906000526020600020018054610c7f90614a15565b80601f0160208091040260200160405190810160405280929190818152602001828054610cab90614a15565b80156107a35780601f10610ccd576101008083540402835291602001916107a3565b820191906000526020600020905b815481529060010190602001808311610cdb5750939695505050505050565b6040516336d39c6160e11b815260048101829052601a60248201526009604482015260009073Cf7Ed3AccA5a467e9e704C703E8D87F634fB0Fc990636da738c290606401602060405180830381865af4158015610d5b573d6000803e3d6000fd5b505050506040513d601f19601f820116820180604052508101906105e99190614a49565b60105415610deb576004546001600160a01b0316331480610daa57506011546001600160a01b031633145b610deb5760405162461bcd60e51b815260206004820152601260248201527113db9b1e481ad9595c195c8bdc185c995b9d60721b6044820152606401610636565b6010548114610e375760405162461bcd60e51b8152602060048201526018602482015277496e76616c696420696e64657820746f207072657061726560401b6044820152606401610636565b60175415610e875760405162461bcd60e51b815260206004820181905260248201527f46756c66696c6c206f7574676f696e672063616c6c6261636b732066697273746044820152606401610636565b60165415610ed75760405162461bcd60e51b815260206004820181905260248201527f46756c66696c6c20696e636f6d696e672063616c6c6261636b732066697273746044820152606401610636565b6001546011546010805460405163699e0add60e01b8152919373Cf7Ed3AccA5a467e9e704C703E8D87F634fB0Fc99363699e0add93610f29936001600160a01b03938416936009931691600401614b91565b600060405180830381865af4158015610f46573d6000803e3d6000fd5b505050506040513d6000823e601f3d908101601f19168201604052610f6e9190810190614c52565b8154600180820184556000938452602093849020835160069093020180546001600160a01b0319166001600160a01b03909316929092178255828401519082015560408201516002820155606082015160038201556080820151805192939192610fde9260048501920190613723565b5060a08201518160050160006101000a81548160ff0219169083600581111561100957611009613a6c565b0217905550506014805460018101825560009182527fce6d7b5282bd9a3661ae061feed1dbda4e52ab073b1f9285be6e155d9c38d4ec01555061104a612c50565b7f152ec8ae15d347b2d2a8f0858caa29bcaaa0906749a1f43e08bfe79983460240308260405161107b929190614941565b60405180910390a16012546001600160a01b0316156110ef5760125460405163253b91a760e11b8152600481018390526001600160a01b0390911690634a77234e906024015b600060405180830381600087803b1580156110db57600080fd5b505af1158015610980573d6000803e3d6000fd5b50565b6005546001600160a01b0316331461111c5760405162461bcd60e51b815260040161063690614d56565b600260108281548110611131576111316148fc565b60009182526020909120600560069092020181015460ff169081111561115957611159613a6c565b148061119f5750600360108281548110611175576111756148fc565b60009182526020909120600560069092020181015460ff169081111561119d5761119d613a6c565b145b6111dc5760405162461bcd60e51b815260206004820152600e60248201526d10d85b9b9bdd081c995c5d595cdd60921b6044820152606401610636565b73Cf7Ed3AccA5a467e9e704C703E8D87F634fB0Fc96324b2860260108381548110611209576112096148fc565b90600052602060002090600602016040518263ffffffff1660e01b815260040161123591815260200190565b60006040518083038186803b15801561124d57600080fd5b505af4158015611261573d6000803e3d6000fd5b505050506110ef81612ece565b6005546001600160a01b031633146112985760405162461bcd60e51b815260040161063690614d56565b6003601082815481106112ad576112ad6148fc565b60009182526020909120600560069092020181015460ff16908111156112d5576112d5613a6c565b146112f25760405162461bcd60e51b815260040161063690614d7f565b73Cf7Ed3AccA5a467e9e704C703E8D87F634fB0Fc96359111fb560108381548110611209576112096148fc565b6000805b600e5481101561145a57600e8054600091601a918391908590811061134a5761134a6148fc565b9060005260206000209060020201600001548152602001908152602001600020848154811061137b5761137b6148fc565b90600052602060002001805461139090614a15565b80601f01602080910402602001604051908101604052809291908181526020018280546113bc90614a15565b80156114095780601f106113de57610100808354040283529160200191611409565b820191906000526020600020905b8154815290600101906020018083116113ec57829003601f168201915b505050505080602001905181019061142191906148df565b9050806001600160a01b0316856001600160a01b031603611447576001925050506105e9565b508061145281614db1565b915050611323565b5060009392505050565b6000818152601a60205260409020805460609190610c5a906001906149fe565b600060108281548110611499576114996148fc565b600091825260209091206005600690920201015460ff1692915050565b60038054600454600554600654600780546001600160a01b0395861696948616959093169391926114e690614a15565b80601f016020809104026020016040519081016040528092919081815260200182805461151290614a15565b801561155f5780601f106115345761010080835404028352916020019161155f565b820191906000526020600020905b81548152906001019060200180831161154257829003601f168201915b50506040805160e0810182526006870180546001600160a01b03168252600788015460208084019190915260088901548385015260098901546060840152600a890180548551818402810184019096528086529899989397509195506080870194509091908301828280156115f357602002820191906000526020600020905b8154815260200190600101908083116115df575b5050505050815260200160058201805480602002602001604051908101604052809291908181526020016000905b828210156116b55783829060005260206000209060020201604051806040016040529081600082015481526020016001820180548060200260200160405190810160405280929190818152602001828054801561169d57602002820191906000526020600020905b815481526020019060010190808311611689575b50505050508152505081526020019060010190611621565b50505050815260200160068201805480602002602001604051908101604052809291908181526020016000905b8282101561173457600084815260209081902060408051606081018252600286029092018054835260019081015460ff80821685870152610100909104169183019190915290835290920191016116e2565b5050505081525050905086565b60606010805480602002602001604051908101604052809291908181526020016000905b8282101561184b5760008481526020908190206040805160c0810182526006860290920180546001600160a01b03168352600181015483850152600281015483830152600381015460608401526004810180548351818702810187019094528084529394919360808601939283018282801561180057602002820191906000526020600020905b8154815260200190600101908083116117ec575b505050918352505060058281015460209092019160ff169081111561182757611827613a6c565b600581111561183857611838613a6c565b8152505081526020019060010190611765565b50505050905090565b6004546001600160a01b0316331461187e5760405162461bcd60e51b81526004016106369061495a565b600a54811461189f5760405162461bcd60e51b815260040161063690614dca565b6001601084815481106118b4576118b46148fc565b60009182526020909120600560069092020181015460ff16908111156118dc576118dc613a6c565b146119225760405162461bcd60e51b815260206004820152601660248201527510dbdb991a5d1a5bdb881b9bdd08115e1958dd5d195960521b6044820152606401610636565b73Cf7Ed3AccA5a467e9e704C703E8D87F634fB0Fc9636a0a24f16010858154811061194f5761194f6148fc565b906000526020600020906006020184846040518463ffffffff1660e01b815260040161197d93929190614e10565b60006040518083038186803b15801561199557600080fd5b505af41580156119a9573d6000803e3d6000fd5b505050506119b683612ece565b505050565b6004546001600160a01b03163314611a025760405162461bcd60e51b815260206004820152600a60248201526927b7363ca5b2b2b832b960b11b6044820152606401610636565b6000828152601b602052604090205460088054600392908110611a2757611a276148fc565b600091825260209091206001600590920201015460ff166003811115611a4f57611a4f613a6c565b14611a955760405162461bcd60e51b81526020600482015260166024820152751bdb9b1e48125b99d95cdd151e5c194b93585b9d585b60521b6044820152606401610636565b611a9f8282612f08565b60405160008051602061594f83398151915290600090a15050565b6005546001600160a01b03163314611ae45760405162461bcd60e51b815260040161063690614d56565b600360108381548110611af957611af96148fc565b60009182526020909120600560069092020181015460ff1690811115611b2157611b21613a6c565b14611b3e5760405162461bcd60e51b815260040161063690614d7f565b60148281548110611b5157611b516148fc565b90600052602060002001544211611b7a5760405162461bcd60e51b815260040161063690614912565b600a54815114611b9c5760405162461bcd60e51b815260040161063690614dca565b6001546010805473Cf7Ed3AccA5a467e9e704C703E8D87F634fB0Fc992631b948e49926001600160a01b039091169186908110611bdb57611bdb6148fc565b9060005260206000209060060201846040518463ffffffff1660e01b8152600401611c0893929190614e2a565b60006040518083038186803b158015611c2057600080fd5b505af4158015611c34573d6000803e3d6000fd5b505050505050565b6000611c486001612fa6565b90508015611c60576000805461ff0019166101001790555b6000611c726040840160208501614e87565b6001600160a01b031603611cb95760405162461bcd60e51b815260206004820152600e60248201526d12d9595c195c881a5b9d985b1a5960921b6044820152606401610636565b600280546001600160a01b03199081166001600160a01b03898116919091179092556000805462010000600160b01b031916336201000002179055600180548216888416179055601180549091169186169190911790556013839055816003611d2282826154e3565b90505060005b611d3560a0840184615017565b9050811015611d995780601b6000611d5060a0870187615017565b85818110611d6057611d606148fc565b9050602002810190611d729190615060565b60409081013582526020820192909252016000205580611d9181614db1565b915050611d28565b508015611c34576000805461ff0019169055604051600181527f7f26b83ff96e1f2b6a682f133852f6798a09c465da95921460cefb38474024989060200160405180910390a1505050505050565b601054604051635cc1f6b560e01b815260009173Cf7Ed3AccA5a467e9e704C703E8D87F634fB0Fc991635cc1f6b591611e2691600891906004016156c2565b602060405180830381865af4158015611e43573d6000803e3d6000fd5b505050506040513d601f19601f82011682018060405250810190611e679190614a49565b905090565b611e74611de7565b1515600114611eb75760405162461bcd60e51b815260206004820152600f60248201526e1a5b99d95cdd1cc81a5b9d985b1a59608a1b6044820152606401610636565b73Cf7Ed3AccA5a467e9e704C703E8D87F634fB0Fc9632dd4082482600160009054906101000a90046001600160a01b031660108581548110611efb57611efb6148fc565b60009182526020808320601554601154600c548652601a938490526040909520805460069095029092019460099491926001600160a01b03909116918b908110611f4757611f476148fc565b906000526020600020018054611f5c90614a15565b80601f0160208091040260200160405190810160405280929190818152602001828054611f8890614a15565b8015611fd55780601f10611faa57610100808354040283529160200191611fd5565b820191906000526020600020905b815481529060010190602001808311611fb857829003601f168201915b5050505050806020019051810190611fed91906157db565b60405160e08a901b6001600160e01b031916815260048101989098526001600160a01b03968716602489015260448801959095526064870193909352608486019190915260a485015290911660c483015260e48201526101040160006040518083038186803b15801561205f57600080fd5b505af4158015612073573d6000803e3d6000fd5b5050505061208081613035565b6110ef816132b1565b601c546001600160a01b031633146120d15760405162461bcd60e51b815260206004820152600b60248201526a27b7363c902bb934ba32b960a91b6044820152606401610636565b6001601080546120e3906001906149fe565b815481106120f3576120f36148fc565b60009182526020909120600560069092020181015460ff169081111561211b5761211b613a6c565b146121535760405162461bcd60e51b8152602060048201526008602482015267111a5cd8589b195960c21b6044820152606401610636565b7f7399fd48fdfaf111111c20e282a8837c6803b6631b3b7b5e30b3b97d682d21b683833384604051610bdb94939291906149b8565b6000818152601a60209081526040808320805482518185028101850190935280835260609492939192909184015b828210156122625783829060005260206000200180546121d590614a15565b80601f016020809104026020016040519081016040528092919081815260200182805461220190614a15565b801561224e5780601f106122235761010080835404028352916020019161224e565b820191906000526020600020905b81548152906001019060200180831161223157829003601f168201915b5050505050815260200190600101906121b6565b505050509050919050565b61227561376e565b6040805160e081018252600380546001600160a01b0390811683526004548116602084015260055416928201929092526006546060820152600780549192916080840191906122c390614a15565b80601f01602080910402602001604051908101604052809291908181526020018280546122ef90614a15565b801561233c5780601f106123115761010080835404028352916020019161233c565b820191906000526020600020905b81548152906001019060200180831161231f57829003601f168201915b5050505050815260200160058201805480602002602001604051908101604052809291908181526020016000905b8282101561248557838290600052602060002090600502016040518060a0016040529081600082015481526020016001820160009054906101000a900460ff1660038111156123bb576123bb613a6c565b60038111156123cc576123cc613a6c565b815260200160028201548152602001600382015481526020016004820180546123f490614a15565b80601f016020809104026020016040519081016040528092919081815260200182805461242090614a15565b801561246d5780601f106124425761010080835404028352916020019161246d565b820191906000526020600020905b81548152906001019060200180831161245057829003601f168201915b5050505050815250508152602001906001019061236a565b505050908252506040805160e0810182526006840180546001600160a01b03168252600785015460208381019190915260088601548385015260098601546060840152600a86018054855181840281018401909652808652958201959394929360808601939283018282801561251a57602002820191906000526020600020905b815481526020019060010190808311612506575b5050505050815260200160058201805480602002602001604051908101604052809291908181526020016000905b828210156125dc578382906000526020600020906002020160405180604001604052908160008201548152602001600182018054806020026020016040519081016040528092919081815260200182805480156125c457602002820191906000526020600020905b8154815260200190600101908083116125b0575b50505050508152505081526020019060010190612548565b50505050815260200160068201805480602002602001604051908101604052809291908181526020016000905b8282101561265b57600084815260209081902060408051606081018252600286029092018054835260019081015460ff8082168587015261010090910416918301919091529083529092019101612609565b50505091525050905250919050565b6009546040516370a0823160e01b81526000916001600160a01b0316906370a082319061269b903090600401613929565b602060405180830381865afa1580156126b8573d6000803e3d6000fd5b505050506040513d601f19601f82011682018060405250810190611e6791906157db565b600033826040516020016126f19291906157f4565b60408051601f1981840301815291815281516020928301206000818152601990935291205460088054929350612749929091908110612732576127326148fc565b906000526020600020906005020160030154610a6f565b6001600160a01b0316336001600160a01b0316146127795760405162461bcd60e51b815260040161063690615811565b60008181526019602052604081205460088054909190811061279d5761279d6148fc565b600091825260209091206001600590920201015460ff1660038111156127c5576127c5613a6c565b146128085760405162461bcd60e51b8152602060048201526013602482015272496e67657374206e6f742043616c6c6261636b60681b6044820152606401610636565b60008181526019602052604090205460088054909190811061282c5761282c6148fc565b60009182526020822060059091020180549161284783614db1565b9091555050600081815260196020526040902054600880546129d492908110612872576128726148fc565b906000526020600020906005020160020154336001600160a01b0316633f4fb5aa60036005016016600301600087815260200190815260200160002054815481106128bf576128bf6148fc565b906000526020600020906005020160040180546128db90614a15565b80601f016020809104026020016040519081016040528092919081815260200182805461290790614a15565b80156129545780601f1061292957610100808354040283529160200191612954565b820191906000526020600020905b81548152906001019060200180831161293757829003601f168201915b505050505080602001905181019061296c91906157db565b6040518263ffffffff1660e01b815260040161298a91815260200190565b600060405180830381865afa1580156129a7573d6000803e3d6000fd5b505050506040513d6000823e601f3d908101601f191682016040526129cf9190810190615840565b612f08565b600081815260196020526040812081905560168054916129f3836158ad565b909155505060405160008051602061594f83398151915290600090a15050565b612a1c81610a6f565b6001600160a01b0316336001600160a01b031614612a4c5760405162461bcd60e51b815260040161063690615811565b6000828152601a602052604090205415801590612a7857506010546000838152601a6020526040902054145b15612aca5760405163de3a23c560e01b815260048101839052339063de3a23c590602401600060405180830381600087803b158015612ab657600080fd5b505af1158015611c34573d6000803e3d6000fd5b6000828152601860209081526040822080546001810182559083529082200180546001600160a01b031916331790556017805491612b0783614db1565b91905055505b5050565b63f23a6e6160e01b5b9695505050505050565b612b596040805160c081018252600080825260208201819052918101829052606080820183905260808201529060a082015290565b60108281548110612b6c57612b6c6148fc565b60009182526020918290206040805160c081018252600690930290910180546001600160a01b031683526001810154838501526002810154838301526003810154606084015260048101805483518187028101870190945280845293949193608086019392830182828015612c0057602002820191906000526020600020905b815481526020019060010190808311612bec575b505050918352505060058281015460209092019160ff1690811115612c2757612c27613a6c565b6005811115612c3857612c38613a6c565b90525092915050565b6001600160a01b03163b151590565b60005b600854811015612eb45760006008805483908110612c7357612c736148fc565b600091825260209091206001600590920201015460ff166003811115612c9b57612c9b613a6c565b14612cd157612ccc60036005018281548110612cb957612cb96148fc565b90600052602060002090600502016133e7565b612ea2565b6000306001600160a01b0316633837b05e60036005018481548110612cf857612cf86148fc565b9060005260206000209060050201600301546040518263ffffffff1660e01b8152600401612d2891815260200190565b602060405180830381865afa158015612d45573d6000803e3d6000fd5b505050506040513d601f19601f82011682018060405250810190612d6991906148df565b9050612d7581836134d3565b806001600160a01b031663df33cc5160036005018481548110612d9a57612d9a6148fc565b90600052602060002090600502016004018054612db690614a15565b80601f0160208091040260200160405190810160405280929190818152602001828054612de290614a15565b8015612e2f5780601f10612e0457610100808354040283529160200191612e2f565b820191906000526020600020905b815481529060010190602001808311612e1257829003601f168201915b5050505050806020019051810190612e4791906157db565b6013546040516001600160e01b031960e085901b16815260048101929092526024820152604401600060405180830381600087803b158015612e8857600080fd5b505af1158015612e9c573d6000803e3d6000fd5b50505050505b80612eac81614db1565b915050612c53565b5060405160008051602061594f83398151915290600090a1565b600654612edc906001615080565b612ee690426158c4565b60148281548110612ef957612ef96148fc565b60009182526020909120015550565b601054612f17906001906149fe565b6000838152601a602052604090205414612f6a5760405162461bcd60e51b815260206004820152601460248201527314db1bdd081d995c9cda5bdb881a5b9d985b1a5960621b6044820152606401610636565b6000828152601a6020908152604082208054600181018255908352918190208351612f9c93919091019184019061380f565b50612b0d826135e9565b60008054610100900460ff1615612ff4578160ff166001148015612fd05750612fce30612c41565b155b612fec5760405162461bcd60e51b8152600401610636906158dc565b506000919050565b60005460ff80841691161061301b5760405162461bcd60e51b8152600401610636906158dc565b506000805460ff191660ff92909216919091179055600190565b6000806003600401805461304890614a15565b80601f016020809104026020016040519081016040528092919081815260200182805461307490614a15565b80156130c15780601f10613096576101008083540402835291602001916130c1565b820191906000526020600020905b8154815290600101906020018083116130a457829003601f168201915b50505050508060200190518101906130d9919061592a565b6000828152601a6020526040902080549294509092509084908110613100576131006148fc565b90600052602060002001805461311590614a15565b80601f016020809104026020016040519081016040528092919081815260200182805461314190614a15565b801561318e5780601f106131635761010080835404028352916020019161318e565b820191906000526020600020905b81548152906001019060200180831161317157829003601f168201915b50505050508060200190518101906131a691906148df565b601c80546001600160a01b0319166001600160a01b03929092169190911790556000818152601a602052604090208054849081106131e6576131e66148fc565b9060005260206000200180546131fb90614a15565b80601f016020809104026020016040519081016040528092919081815260200182805461322790614a15565b80156132745780601f1061324957610100808354040283529160200191613274565b820191906000526020600020905b81548152906001019060200180831161325757829003601f168201915b505050505080602001905181019061328c91906148df565b601d80546001600160a01b0319166001600160a01b0392909216919091179055505050565b6012546001600160a01b03161580159061333d5750601260009054906101000a90046001600160a01b03166001600160a01b031663999925066040518163ffffffff1660e01b8152600401602060405180830381865afa158015613319573d6000803e3d6000fd5b505050506040513d601f19601f8201168201806040525081019061333d9190614a49565b80156133b157506012546040516344c3b60760e01b8152600481018390526001600160a01b03909116906344c3b60790602401602060405180830381865afa15801561338d573d6000803e3d6000fd5b505050506040513d601f19601f820116820180604052508101906133b19190614a49565b156110ef5760125460405163b992db0f60e01b8152600481018390526001600160a01b039091169063b992db0f906024016110c1565b600181015460039060ff168181111561340257613402613a6c565b11156134455760405162461bcd60e51b8152602060048201526012602482015271496e76616c696420696e676573745479706560701b6044820152606401610636565b805481600061345383614db1565b9091555060039050600182015460ff16600381111561347457613474613a6c565b146110ef57600281015460405163b3d7370760e01b8152600481018390526110ef919073Cf7Ed3AccA5a467e9e704C703E8D87F634fB0Fc99063b3d7370790602401600060405180830381865af41580156129a7573d6000803e3d6000fd5b806016600301600084600360050185815481106134f2576134f26148fc565b9060005260206000209060050201600401805461350e90614a15565b80601f016020809104026020016040519081016040528092919081815260200182805461353a90614a15565b80156135875780601f1061355c57610100808354040283529160200191613587565b820191906000526020600020905b81548152906001019060200180831161356a57829003601f168201915b505050505080602001905181019061359f91906157db565b6040516020016135b09291906157f4565b60408051601f198184030181529181528151602092830120835290820192909252016000908120919091556016805491612b0783614db1565b60005b600082815260186020526040902054811015612b0d576000828152601860205260408120805483908110613622576136226148fc565b6000918252602090912001546001600160a01b03161461371157600082815260186020526040902080548290811061365c5761365c6148fc565b60009182526020909120015460405163de3a23c560e01b8152600481018490526001600160a01b039091169063de3a23c590602401600060405180830381600087803b1580156136ab57600080fd5b505af11580156136bf573d6000803e3d6000fd5b50505060008381526018602052604090208054909150829081106136e5576136e56148fc565b6000918252602082200180546001600160a01b0319169055601780549161370b836158ad565b91905055505b8061371b81614db1565b9150506135ec565b82805482825590600052602060002090810192821561375e579160200282015b8281111561375e578251825591602001919060010190613743565b5061376a929150613882565b5090565b6040518060e0016040528060006001600160a01b0316815260200160006001600160a01b0316815260200160006001600160a01b0316815260200160008152602001606081526020016060815260200161380a6040518060e0016040528060006001600160a01b031681526020016000815260200160008152602001600080191681526020016060815260200160608152602001606081525090565b905290565b82805461381b90614a15565b90600052602060002090601f01602090048101928261383d576000855561375e565b82601f1061385657805160ff191683800117855561375e565b8280016001018555821561375e579182018281111561375e578251825591602001919060010190613743565b5b8082111561376a5760008155600101613883565b6000602082840312156138a957600080fd5b81356001600160e01b0319811681146138c157600080fd5b9392505050565b600060e082840312156138da57600080fd5b50919050565b6000602082840312156138f257600080fd5b81356001600160401b0381111561390857600080fd5b613914848285016138c8565b949350505050565b6001600160a01b03169052565b6001600160a01b0391909116815260200190565b60006020828403121561394f57600080fd5b5035919050565b6020808252825182820181905260009190848201906040850190845b818110156139975783516001600160a01b031683529284019291840191600101613972565b50909695505050505050565b6001600160a01b03811681146110ef57600080fd5b60008083601f8401126139ca57600080fd5b5081356001600160401b038111156139e157600080fd5b6020830191508360208260051b85010111156139fc57600080fd5b9250929050565b600080600080600060808688031215613a1b57600080fd5b8535613a26816139a3565b9450602086013593506040860135925060608601356001600160401b03811115613a4f57600080fd5b613a5b888289016139b8565b969995985093965092949392505050565b634e487b7160e01b600052602160045260246000fd5b60068110613a9257613a92613a6c565b9052565b6001600160a01b038616815260208101859052604081018490526060810183905260a08101612b1a6080830184613a82565b60008083601f840112613ada57600080fd5b5081356001600160401b03811115613af157600080fd5b6020830191508360208285010111156139fc57600080fd5b600080600060408486031215613b1e57600080fd5b83356001600160401b03811115613b3457600080fd5b613b4086828701613ac8565b909790965060209590950135949350505050565b60005b83811015613b6f578181015183820152602001613b57565b83811115613b7e576000848401525b50505050565b60008151808452613b9c816020860160208601613b54565b601f01601f19169290920160200192915050565b6020815260006138c16020830184613b84565b8035610b4b816139a3565b60008060408385031215613be157600080fd5b8235613bec816139a3565b946020939093013593505050565b602081016105e98284613a82565b600081518084526020808501945080840160005b83811015613c3857815187529582019590820190600101613c1c565b509495945050505050565b600081518084526020808501945080840160005b83811015613c38578151805188528381015160ff908116858a0152604091820151169088015260609096019590820190600101613c57565b60018060a01b0381511682526000602080830151818501526040808401518186015260608085015181870152608085015160e06080880152613cd460e0880182613c08565b905060a086015187820360a08901528181518084528684019150868160051b85010187840193506000805b83811015613d6757868303601f190185528551805184528a01518a84018a905280518a8501819052908b019083908a8601905b80831015613d525783518252928d019260019290920191908d0190613d32565b50978c0197968c019694505050600101613cff565b505060c08a015197508a810360c08c0152613d828189613c43565b9b9a5050505050505050505050565b6001600160a01b0387811682528681166020830152851660408201526060810184905260c060808201819052600090613dcc90830185613b84565b82810360a0840152613dde8185613c8f565b9998505050505050505050565b60018060a01b0381511682526020810151602083015260408101516040830152606081015160608301526000608082015160c06080850152613e3060c0850182613c08565b905060a0830151613e4460a0860182613a82565b509392505050565b6000602080830181845280855180835260408601915060408160051b870101925083870160005b82811015613ea157603f19888603018452613e8f858351613deb565b94509285019290850190600101613e73565b5092979650505050505050565b600080600060408486031215613ec357600080fd5b8335925060208401356001600160401b03811115613ee057600080fd5b613eec868287016139b8565b9497909650939450505050565b634e487b7160e01b600052604160045260246000fd5b60405160c081016001600160401b0381118282101715613f3157613f31613ef9565b60405290565b604051601f8201601f191681016001600160401b0381118282101715613f5f57613f5f613ef9565b604052919050565b60006001600160401b03821115613f8057613f80613ef9565b50601f01601f191660200190565b60008060408385031215613fa157600080fd5b8235915060208301356001600160401b03811115613fbe57600080fd5b8301601f81018513613fcf57600080fd5b8035613fe2613fdd82613f67565b613f37565b818152866020838501011115613ff757600080fd5b816020840160208301376000602083830101528093505050509250929050565b60006001600160401b0382111561403057614030613ef9565b5060051b60200190565b6000806040838503121561404d57600080fd5b823591506020808401356001600160401b0381111561406b57600080fd5b8401601f8101861361407c57600080fd5b803561408a613fdd82614017565b81815260059190911b820183019083810190888311156140a957600080fd5b928401925b828410156140c7578335825292840192908401906140ae565b80955050505050509250929050565b600080600080600060a086880312156140ee57600080fd5b85356140f9816139a3565b94506020860135614109816139a3565b93506040860135614119816139a3565b92506060860135915060808601356001600160401b0381111561413b57600080fd5b614147888289016138c8565b9150509295509295909350565b60008060008060008060008060a0898b03121561417057600080fd5b883561417b816139a3565b9750602089013561418b816139a3565b965060408901356001600160401b03808211156141a757600080fd5b6141b38c838d016139b8565b909850965060608b01359150808211156141cc57600080fd5b6141d88c838d016139b8565b909650945060808b01359150808211156141f157600080fd5b506141fe8b828c01613ac8565b999c989b5096995094979396929594505050565b6000602080830181845280855180835260408601915060408160051b870101925083870160005b82811015613ea157603f19888603018452614255858351613b84565b94509285019290850190600101614239565b60048110613a9257613a92613a6c565b600081518084526020808501808196508360051b8101915082860160005b858110156142fb578284038952815160a081518652868201516142ba88880182614267565b5060408281015190870152606080830151908701526080918201519186018190526142e781870183613b84565b9a87019a9550505090840190600101614295565b5091979650505050505050565b60208152600060018060a01b0380845116602084015280602085015116604084015250604083015161433d606084018261391c565b5060608301516080830152608083015160e060a0840152614362610100840182613b84565b905060a0840151601f19808584030160c08601526143808383614277565b925060c08601519150808584030160e08601525061439e8282613c8f565b95945050505050565b600080604083850312156143ba57600080fd5b50508035926020909101359150565b60008060008060008060a087890312156143e257600080fd5b86356143ed816139a3565b955060208701356143fd816139a3565b9450604087013593506060870135925060808701356001600160401b0381111561442657600080fd5b61443289828a01613ac8565b979a9699509497509295939492505050565b6020815260006138c16020830184613deb565b6000808335601e1984360301811261446e57600080fd5b83016020810192503590506001600160401b0381111561448d57600080fd5b8036038313156139fc57600080fd5b81835281816020850137506000828201602090810191909152601f909101601f19169091010190565b6000808335601e198436030181126144dc57600080fd5b83016020810192503590506001600160401b038111156144fb57600080fd5b8060051b36038313156139fc57600080fd5b600481106110ef57600080fd5b81835260006020808501808196508560051b81019150846000805b888110156145c3578385038a528235609e19893603018112614555578283fd5b88018035865260a08782013561456a8161450d565b61457689890182614267565b506040828101359088015260608083013590880152608061459981840184614457565b935082828a01526145ad838a01858361449c565b9d8a019d98505050938701935050600101614535565b509298975050505050505050565b6000823560de198336030181126145e757600080fd5b90910192915050565b81835260006001600160fb1b0383111561460957600080fd5b8260051b8083602087013760009401602001938452509192915050565b6000808335601e1984360301811261463d57600080fd5b83016020810192503590506001600160401b0381111561465c57600080fd5b6060810236038313156139fc57600080fd5b60ff811681146110ef57600080fd5b8183526000602080850194508260005b85811015613c385781358752828201356146a68161466e565b60ff90811688850152604090838201356146bf8161466e565b1690880152606096870196919091019060010161468d565b600081356146e4816139a3565b6001600160a01b0316835260208281013581850152604080840135818601526060808501359086015261471a60808501856144c5565b60e0608088015261472f60e0880182846145f0565b91505061473f60a08601866144c5565b87830360a0890152808352848301600582901b84018601836000805b858110156147ba57878403601f19018552823536889003603e19018112614780578283fd5b8701803585526147928b8201826144c5565b91508a8c8701526147a68b870183836145f0565b968c0196955050509189019160010161475b565b5050506147ca60c08a018a614626565b9750955089810360c08b01526147e181888861467d565b9a9950505050505050505050565b6001600160a01b038581168252608060208301526000908535614811816139a3565b16608083015261482360208601613bc3565b61483060a084018261391c565b5061483d60408601613bc3565b61484a60c084018261391c565b50606085013560e08301526148626080860186614457565b60e06101008501526148796101608501828461449c565b91505061488960a08701876144c5565b607f1980868503016101208701526148a284838561451a565b93506148b160c08a018a6145d1565b9250808685030161014087015250506148ca82826146d7565b60408501969096525050506060015292915050565b6000602082840312156148f157600080fd5b81516138c1816139a3565b634e487b7160e01b600052603260045260246000fd5b602080825260159082015274151a5b595b1bd8dac81cdd1a5b1b081b1bd8dad959605a1b604082015260600190565b6001600160a01b03929092168252602082015260400190565b6020808252600b908201526a27b7363c9025b2b2b832b960a91b604082015260600190565b60018060a01b03861681528460208201528360408201526080606082015260006149ad6080830184866145f0565b979650505050505050565b6060815260006149cc60608301868861449c565b6001600160a01b03949094166020830152506040015292915050565b634e487b7160e01b600052601160045260246000fd5b600082821015614a1057614a106149e8565b500390565b600181811c90821680614a2957607f821691505b6020821081036138da57634e487b7160e01b600052602260045260246000fd5b600060208284031215614a5b57600080fd5b815180151581146138c157600080fd5b6000815480845260208085019450836000528060002060005b83811015613c3857815487529582019560019182019101614a84565b600082825480855260208086019550808260051b8401016000868152828120815b85811015614b3157868403601f19018a52815484526040858501819052600180840180549287018390528552868520606087019290919086905b80821015614b185783548552938901939282019290820190614afb565b5050509a86019a50935060029190910190600101614ac1565b509198975050505050505050565b6000815480845260208085019450836000528060002060005b83811015613c38578154875260018083015460ff808216868b015260089190911c16604089015260609097019660029092019101614b58565b600060018060a01b03808716835260806020840152614bb6608084018288541661391c565b50600185015460a0830152600285015460c0830152600385015460e083015260e0610100830152614bee610160830160048701614a6b565b607f198084830301610120850152614c098260058901614aa0565b9150808483030161014085015250614c248160068801614b3f565b915050614c34604083018561391c565b82606083015295945050505050565b805160068110610b4b57600080fd5b60006020808385031215614c6557600080fd5b82516001600160401b0380821115614c7c57600080fd5b9084019060c08287031215614c9057600080fd5b614c98613f0f565b8251614ca3816139a3565b8082525083830151848201526040830151604082015260608301516060820152608083015182811115614cd557600080fd5b83019150601f82018713614ce857600080fd5b8151614cf6613fdd82614017565b81815260059190911b83018501908581019089831115614d1557600080fd5b938601935b82851015614d3357845182529386019390860190614d1a565b608084015250614d47905060a08401614c43565b60a08201529695505050505050565b6020808252600f908201526e27b7363c9030b93134ba3930ba37b960891b604082015260600190565b602080825260189082015277139bdd08105c989a5d1c985d1a5bdb94995c5d595cdd195960421b604082015260600190565b600060018201614dc357614dc36149e8565b5060010190565b60208082526026908201527f7061796f7574732e6c656e677468206d757374206d61746368206f7574636f6d60408201526565536c6f747360d01b606082015260800190565b83815260406020820152600061439e6040830184866145f0565b6001600160a01b038416815260208082018490526060604083018190528351908301819052600091848101916080850190845b81811015614e7957845183529383019391830191600101614e5d565b509098975050505050505050565b600060208284031215614e9957600080fd5b81356138c1816139a3565b80546001600160a01b0319166001600160a01b0392909216919091179055565b6000808335601e19843603018112614edb57600080fd5b8301803591506001600160401b03821115614ef557600080fd5b6020019150368190038213156139fc57600080fd5b5b81811015612b0d5760008155600101614f0b565b601f8211156119b657806000526020600020601f840160051c81016020851015614f465750805b610980601f850160051c830182614f0a565b6001600160401b03831115614f6f57614f6f613ef9565b614f8383614f7d8354614a15565b83614f1f565b6000601f841160018114614fb75760008515614f9f5750838201355b600019600387901b1c1916600186901b178355610980565b600083815260209020601f19861690835b82811015614fe85786850135825560209485019460019092019101614fc8565b50868210156150055760001960f88860031b161c19848701351681555b505060018560011b0183555050505050565b6000808335601e1984360301811261502e57600080fd5b8301803591506001600160401b0382111561504857600080fd5b6020019150600581901b36038213156139fc57600080fd5b60008235609e1983360301811261507657600080fd5b9190910192915050565b600081600019048311821515161561509a5761509a6149e8565b500290565b813581556001810160208301356150b58161450d565b600481106150c5576150c5613a6c565b60ff1982541660ff82168117835550505060408201356002820155606082013560038201556150f76080830183614ec4565b613b7e818360048601614f58565b6000823560de1983360301811261507657600080fd5b60008235603e1983360301811261507657600080fd5b8054600080835581156119b657828152602081208281015b8082101561098057828255600182019150615149565b813581556001808201602061517681860186615017565b600160401b81111561518a5761518a613ef9565b8354818555808210156151be5760008581528481208381019083015b808210156151ba57828255908801906151a6565b5050505b506000938452828420935b818110156151e45782358555938501939183019185016151c9565b5050505050505050565b600160401b83111561520257615202613ef9565b80548382558084101561527a576001600160ff1b03600181831181161561522b5761522b6149e8565b81861181161561523d5761523d6149e8565b60008481526020812090925086821b81019084831b015b808210156152755783825561526a838301615131565b600282019150615254565b505050505b5060008181526020812083915b85811015611c34576152a261529c848761511b565b8361515f565b6020929092019160029190910190600101615287565b6000808335601e198436030181126152cf57600080fd5b8301803591506001600160401b038211156152e957600080fd5b60200191506060810236038213156139fc57600080fd5b813581556001810160208301356153168161466e565b815460408501356153268161466e565b61ff008160081b1660ff841661ffff19841617178455505050505050565b600160401b83111561535857615358613ef9565b8054838255808410156153ca576001600160ff1b036001818311811615615381576153816149e8565b818611811615615393576153936149e8565b60008481526020812090925086821b81019084831b015b808210156153c55783825583838301556002820191506153aa565b505050505b5060008181526020812083915b85811015611c34576153e98383615300565b60609290920191600291909101906001016153d7565b813561540a816139a3565b6154148183614ea4565b506001602080840135828401556040840135600284015560608401356003840155600483016154466080860186615017565b600160401b81111561545a5761545a613ef9565b82548184558082101561547f57836000528460002061547d828201848301614f0a565b505b506000928352838320925b818110156154a557823584559285019291840191850161548a565b5050505050506154b860a0830183615017565b6154c68183600586016151ee565b50506154d560c08301836152b8565b613b7e818360068601615344565b81356154ee816139a3565b6154f88183614ea4565b5060016020830135615509816139a3565b61551581838501614ea4565b506040830135615524816139a3565b6155318160028501614ea4565b50606083013560038301556155496080840184614ec4565b615557818360048701614f58565b5050600580830161556b60a0860186615017565b600160401b81111561557f5761557f613ef9565b825481845580821015615667577f33333333333333333333333333333333333333333333333333333333333333338082118716156155bf576155bf6149e8565b8083118716156155d1576155d16149e8565b50600084815260208120838702810190878402015b80821015615663578282558289830155826002830155826003830155600482016156108154614a15565b801561565857601f8082116001811461562b57868455615655565b6000848152602090206156468385018e1c82018f8301614f0a565b50600084815260208120818655555b50505b5050908701906155e6565b5050505b506000928352602083209282905b828110156156a25761569061568a8386615060565b8661509f565b93850193602091909101908601615675565b50505050505050612b0d6156b960c0840184615105565b600683016153ff565b6000604082016040835280855480835260608501915060608160051b8601019250600087815260208120815b838110156157c657878603605f1901855281548652600182015460ff166157186020880182614267565b5060028201546040870152600382015460608701526004820160a0608088015283815461574481614a15565b8060a08b015260018216600081146157635760018114615778576157a9565b60ff19831660c08c015260e08b0193506157a9565b84885260208820885b838110156157a05781548d820160c00152600190910190602001615781565b8c0160c0019450505b5091985050506020959095019450600591909101906001016156ee565b50505050506020929092019290925292915050565b6000602082840312156157ed57600080fd5b5051919050565b60609290921b6001600160601b0319168252601482015260340190565b60208082526015908201527436b9b39739b2b73232b9103737ba1039b7b63b32b960591b604082015260600190565b60006020828403121561585257600080fd5b81516001600160401b0381111561586857600080fd5b8201601f8101841361587957600080fd5b8051615887613fdd82613f67565b81815285602083850101111561589c57600080fd5b61439e826020830160208601613b54565b6000816158bc576158bc6149e8565b506000190190565b600082198211156158d7576158d76149e8565b500190565b6020808252602e908201527f496e697469616c697a61626c653a20636f6e747261637420697320616c72656160408201526d191e481a5b9a5d1a585b1a5e995960921b606082015260800190565b6000806040838503121561593d57600080fd5b50508051602090910151909290915056fe71bd81ebe1d98a2944767394e76a9aff18724b2cf04e1db71254f804544b35c7a26469706673582212208cd40081fa65ee06b4d4f9d9c04ab641f314922e5e0698ec1c06e4f868931a5e64736f6c634300080d0033",
  "deployedBytecode": "0x608060405234801561001057600080fd5b50600436106101f95760003560e01c806301ffc9a7146101fe5780630944e26e14610226578063098b37f7146102465780630d06101a146102665780630d7e149f1461027b5780630d8d39751461029c57806318782559146102af57806326c50007146102c25780633837b05e146102e65780633cd07f41146102f95780633f4fb5aa1461030c57806344c3b6071461032c578063453a2abc1461033f57806348cbb2fc146103525780634a77234e1461035b5780634dab5e691461036e5780634e46f22314610381578063506da0b81461039457806354f6127f146103a757806355dd978b146103ba5780635c622a0e146103cd5780636cc6cde1146103ed5780637150d8ae146103fe57806379502c55146104115780637c1236271461042b57806380b204b71461044057806380c2dde2146104535780638602ce1b1461046657806387dfee57146104795780638bc3a08f1461048c578063999925061461049f578063aced1661146104a7578063b992db0f146104b8578063bc197c81146104cb578063c05bc73114610506578063c08d6f0114610519578063c3f909d414610539578063c98c05b71461054e578063de3a23c514610556578063df33cc5114610569578063ea8221a91461057c578063f23a6e6114610585578063f24fc90314610598575b600080fd5b61021161020c366004613897565b6105b8565b60405190151581526020015b60405180910390f35b6102396102343660046138e0565b6105ef565b60405161021d9190613929565b61025961025436600461393d565b610743565b60405161021d9190613956565b61027961027436600461393d565b6107af565b005b61028e61028936600461393d565b61080c565b60405190815260200161021d565b6102796102aa36600461393d565b61082d565b6102796102bd366004613a03565b610987565b6102d56102d036600461393d565b610a21565b60405161021d959493929190613a96565b6102396102f436600461393d565b610a6f565b610279610307366004613b09565b610b50565b61031f61031a36600461393d565b610be8565b60405161021d9190613bb0565b61021161033a36600461393d565b610cfa565b601c54610239906001600160a01b031681565b61028e60155481565b61027961036936600461393d565b610d7f565b61027961037c36600461393d565b6110f2565b61027961038f36600461393d565b61126e565b6102116103a2366004613bce565b61131f565b61031f6103b536600461393d565b611464565b601254610239906001600160a01b031681565b6103e06103db36600461393d565b611484565b60405161021d9190613bfa565b6005546001600160a01b0316610239565b601d54610239906001600160a01b031681565b6104196114b6565b60405161021d96959493929190613d91565b610433611741565b60405161021d9190613e4c565b61027961044e366004613eae565b611854565b601154610239906001600160a01b031681565b610279610474366004613f8e565b6119bb565b61027961048736600461403a565b611aba565b61027961049a3660046140d6565b611c3c565b610211611de7565b6004546001600160a01b0316610239565b6102796104c636600461393d565b611e6c565b6104ed6104d9366004614154565b63bc197c8160e01b98975050505050505050565b6040516001600160e01b0319909116815260200161021d565b610279610514366004613b09565b612089565b61052c61052736600461393d565b612188565b60405161021d9190614212565b61054161226d565b60405161021d9190614308565b61028e61266a565b61027961056436600461393d565b6126dc565b6102796105773660046143a7565b612a13565b61028e60135481565b6104ed6105933660046143c9565b612b11565b6105ab6105a636600461393d565b612b24565b60405161021d9190614444565b60006001600160e01b03198216630271189760e51b14806105e957506301ffc9a760e01b6001600160e01b03198316145b92915050565b6004546000906001600160a01b0316331461063f5760405162461bcd60e51b815260206004820152600b60248201526a27b7363c9035b2b2b832b960a91b60448201526064015b60405180910390fd5b6012546001600160a01b03161561068b5760405162461bcd60e51b815260206004820152601060248201526f14dbdb1d995c881a185cc818da1a5b1960821b6044820152606401610636565b6000546013546015546040516386a2d22760e01b815273__$94d7d2f22770e4b0d1a2b99fb2812308e2$__936386a2d227936106dd93620100009092046001600160a01b0316928892906004016147ef565b602060405180830381865af41580156106fa573d6000803e3d6000fd5b505050506040513d601f19601f8201168201806040525081019061071e91906148df565b601280546001600160a01b0319166001600160a01b0392909216918217905592915050565b6000818152601860209081526040918290208054835181840281018401909452808452606093928301828280156107a357602002820191906000526020600020905b81546001600160a01b03168152600190910190602001808311610785575b50505050509050919050565b601554156107f05760405162461bcd60e51b815260206004820152600e60248201526d151c9858dada5b99d259081cd95d60921b6044820152606401610636565b6002546001600160a01b0316331461080757600080fd5b601555565b6014818154811061081c57600080fd5b600091825260209091200154905081565b60148181548110610840576108406148fc565b906000526020600020015442116108695760405162461bcd60e51b815260040161063690614912565b60026010828154811061087e5761087e6148fc565b60009182526020909120600560069092020181015460ff16908111156108a6576108a6613a6c565b146108ea5760405162461bcd60e51b815260206004820152601460248201527313dd5d18dbdb59481b9bdd081c1c9bdc1bdcd95960621b6044820152606401610636565b6001546010805473__$94d7d2f22770e4b0d1a2b99fb2812308e2$__926385c92867926001600160a01b039091169185908110610929576109296148fc565b90600052602060002090600602016040518363ffffffff1660e01b8152600401610954929190614941565b60006040518083038186803b15801561096c57600080fd5b505af4158015610980573d6000803e3d6000fd5b5050505050565b6004546001600160a01b031633146109b15760405162461bcd60e51b81526004016106369061495a565b600154604051626dc0df60e21b81526001600160a01b03909116906301b7037c906109e8908890889088908890889060040161497f565b600060405180830381600087803b158015610a0257600080fd5b505af1158015610a16573d6000803e3d6000fd5b505050505050505050565b60108181548110610a3157600080fd5b6000918252602090912060069091020180546001820154600283015460038401546005909401546001600160a01b0390931694509092909160ff1685565b60006013548203610a81575030919050565b601354821015610af857601154604051631c1bd82f60e11b8152600481018490526001600160a01b0390911690633837b05e90602401602060405180830381865afa158015610ad4573d6000803e3d6000fd5b505050506040513d601f19601f820116820180604052508101906105e991906148df565b601354821115610b4b57601254604051631c1bd82f60e11b8152600481018490526001600160a01b0390911690633837b05e90602401602060405180830381865afa158015610ad4573d6000803e3d6000fd5b919050565b6004546001600160a01b0316331480610b7357506005546001600160a01b031633145b80610b885750601c546001600160a01b031633145b80610b9d5750601d546001600160a01b031633145b610ba657600080fd5b7f0a68dfc3d2deb2d1042207bd18d04cd94b7ae50b8dd6735129aff86f18bfa8cd83833384604051610bdb94939291906149b8565b60405180910390a1505050565b6010546000828152601a602052604090205460609114610c3e5760405162461bcd60e51b815260206004820152601160248201527029b637ba1034b73b30b634b2103b32b91760791b6044820152606401610636565b6000828152601a602052604090208054610c5a906001906149fe565b81548110610c6a57610c6a6148fc565b906000526020600020018054610c7f90614a15565b80601f0160208091040260200160405190810160405280929190818152602001828054610cab90614a15565b80156107a35780601f10610ccd576101008083540402835291602001916107a3565b820191906000526020600020905b815481529060010190602001808311610cdb5750939695505050505050565b6040516336d39c6160e11b815260048101829052601a60248201526009604482015260009073__$94d7d2f22770e4b0d1a2b99fb2812308e2$__90636da738c290606401602060405180830381865af4158015610d5b573d6000803e3d6000fd5b505050506040513d601f19601f820116820180604052508101906105e99190614a49565b60105415610deb576004546001600160a01b0316331480610daa57506011546001600160a01b031633145b610deb5760405162461bcd60e51b815260206004820152601260248201527113db9b1e481ad9595c195c8bdc185c995b9d60721b6044820152606401610636565b6010548114610e375760405162461bcd60e51b8152602060048201526018602482015277496e76616c696420696e64657820746f207072657061726560401b6044820152606401610636565b60175415610e875760405162461bcd60e51b815260206004820181905260248201527f46756c66696c6c206f7574676f696e672063616c6c6261636b732066697273746044820152606401610636565b60165415610ed75760405162461bcd60e51b815260206004820181905260248201527f46756c66696c6c20696e636f6d696e672063616c6c6261636b732066697273746044820152606401610636565b6001546011546010805460405163699e0add60e01b8152919373__$94d7d2f22770e4b0d1a2b99fb2812308e2$__9363699e0add93610f29936001600160a01b03938416936009931691600401614b91565b600060405180830381865af4158015610f46573d6000803e3d6000fd5b505050506040513d6000823e601f3d908101601f19168201604052610f6e9190810190614c52565b8154600180820184556000938452602093849020835160069093020180546001600160a01b0319166001600160a01b03909316929092178255828401519082015560408201516002820155606082015160038201556080820151805192939192610fde9260048501920190613723565b5060a08201518160050160006101000a81548160ff0219169083600581111561100957611009613a6c565b0217905550506014805460018101825560009182527fce6d7b5282bd9a3661ae061feed1dbda4e52ab073b1f9285be6e155d9c38d4ec01555061104a612c50565b7f152ec8ae15d347b2d2a8f0858caa29bcaaa0906749a1f43e08bfe79983460240308260405161107b929190614941565b60405180910390a16012546001600160a01b0316156110ef5760125460405163253b91a760e11b8152600481018390526001600160a01b0390911690634a77234e906024015b600060405180830381600087803b1580156110db57600080fd5b505af1158015610980573d6000803e3d6000fd5b50565b6005546001600160a01b0316331461111c5760405162461bcd60e51b815260040161063690614d56565b600260108281548110611131576111316148fc565b60009182526020909120600560069092020181015460ff169081111561115957611159613a6c565b148061119f5750600360108281548110611175576111756148fc565b60009182526020909120600560069092020181015460ff169081111561119d5761119d613a6c565b145b6111dc5760405162461bcd60e51b815260206004820152600e60248201526d10d85b9b9bdd081c995c5d595cdd60921b6044820152606401610636565b73__$94d7d2f22770e4b0d1a2b99fb2812308e2$__6324b2860260108381548110611209576112096148fc565b90600052602060002090600602016040518263ffffffff1660e01b815260040161123591815260200190565b60006040518083038186803b15801561124d57600080fd5b505af4158015611261573d6000803e3d6000fd5b505050506110ef81612ece565b6005546001600160a01b031633146112985760405162461bcd60e51b815260040161063690614d56565b6003601082815481106112ad576112ad6148fc565b60009182526020909120600560069092020181015460ff16908111156112d5576112d5613a6c565b146112f25760405162461bcd60e51b815260040161063690614d7f565b73__$94d7d2f22770e4b0d1a2b99fb2812308e2$__6359111fb560108381548110611209576112096148fc565b6000805b600e5481101561145a57600e8054600091601a918391908590811061134a5761134a6148fc565b9060005260206000209060020201600001548152602001908152602001600020848154811061137b5761137b6148fc565b90600052602060002001805461139090614a15565b80601f01602080910402602001604051908101604052809291908181526020018280546113bc90614a15565b80156114095780601f106113de57610100808354040283529160200191611409565b820191906000526020600020905b8154815290600101906020018083116113ec57829003601f168201915b505050505080602001905181019061142191906148df565b9050806001600160a01b0316856001600160a01b031603611447576001925050506105e9565b508061145281614db1565b915050611323565b5060009392505050565b6000818152601a60205260409020805460609190610c5a906001906149fe565b600060108281548110611499576114996148fc565b600091825260209091206005600690920201015460ff1692915050565b60038054600454600554600654600780546001600160a01b0395861696948616959093169391926114e690614a15565b80601f016020809104026020016040519081016040528092919081815260200182805461151290614a15565b801561155f5780601f106115345761010080835404028352916020019161155f565b820191906000526020600020905b81548152906001019060200180831161154257829003601f168201915b50506040805160e0810182526006870180546001600160a01b03168252600788015460208084019190915260088901548385015260098901546060840152600a890180548551818402810184019096528086529899989397509195506080870194509091908301828280156115f357602002820191906000526020600020905b8154815260200190600101908083116115df575b5050505050815260200160058201805480602002602001604051908101604052809291908181526020016000905b828210156116b55783829060005260206000209060020201604051806040016040529081600082015481526020016001820180548060200260200160405190810160405280929190818152602001828054801561169d57602002820191906000526020600020905b815481526020019060010190808311611689575b50505050508152505081526020019060010190611621565b50505050815260200160068201805480602002602001604051908101604052809291908181526020016000905b8282101561173457600084815260209081902060408051606081018252600286029092018054835260019081015460ff80821685870152610100909104169183019190915290835290920191016116e2565b5050505081525050905086565b60606010805480602002602001604051908101604052809291908181526020016000905b8282101561184b5760008481526020908190206040805160c0810182526006860290920180546001600160a01b03168352600181015483850152600281015483830152600381015460608401526004810180548351818702810187019094528084529394919360808601939283018282801561180057602002820191906000526020600020905b8154815260200190600101908083116117ec575b505050918352505060058281015460209092019160ff169081111561182757611827613a6c565b600581111561183857611838613a6c565b8152505081526020019060010190611765565b50505050905090565b6004546001600160a01b0316331461187e5760405162461bcd60e51b81526004016106369061495a565b600a54811461189f5760405162461bcd60e51b815260040161063690614dca565b6001601084815481106118b4576118b46148fc565b60009182526020909120600560069092020181015460ff16908111156118dc576118dc613a6c565b146119225760405162461bcd60e51b815260206004820152601660248201527510dbdb991a5d1a5bdb881b9bdd08115e1958dd5d195960521b6044820152606401610636565b73__$94d7d2f22770e4b0d1a2b99fb2812308e2$__636a0a24f16010858154811061194f5761194f6148fc565b906000526020600020906006020184846040518463ffffffff1660e01b815260040161197d93929190614e10565b60006040518083038186803b15801561199557600080fd5b505af41580156119a9573d6000803e3d6000fd5b505050506119b683612ece565b505050565b6004546001600160a01b03163314611a025760405162461bcd60e51b815260206004820152600a60248201526927b7363ca5b2b2b832b960b11b6044820152606401610636565b6000828152601b602052604090205460088054600392908110611a2757611a276148fc565b600091825260209091206001600590920201015460ff166003811115611a4f57611a4f613a6c565b14611a955760405162461bcd60e51b81526020600482015260166024820152751bdb9b1e48125b99d95cdd151e5c194b93585b9d585b60521b6044820152606401610636565b611a9f8282612f08565b60405160008051602061594f83398151915290600090a15050565b6005546001600160a01b03163314611ae45760405162461bcd60e51b815260040161063690614d56565b600360108381548110611af957611af96148fc565b60009182526020909120600560069092020181015460ff1690811115611b2157611b21613a6c565b14611b3e5760405162461bcd60e51b815260040161063690614d7f565b60148281548110611b5157611b516148fc565b90600052602060002001544211611b7a5760405162461bcd60e51b815260040161063690614912565b600a54815114611b9c5760405162461bcd60e51b815260040161063690614dca565b6001546010805473__$94d7d2f22770e4b0d1a2b99fb2812308e2$__92631b948e49926001600160a01b039091169186908110611bdb57611bdb6148fc565b9060005260206000209060060201846040518463ffffffff1660e01b8152600401611c0893929190614e2a565b60006040518083038186803b158015611c2057600080fd5b505af4158015611c34573d6000803e3d6000fd5b505050505050565b6000611c486001612fa6565b90508015611c60576000805461ff0019166101001790555b6000611c726040840160208501614e87565b6001600160a01b031603611cb95760405162461bcd60e51b815260206004820152600e60248201526d12d9595c195c881a5b9d985b1a5960921b6044820152606401610636565b600280546001600160a01b03199081166001600160a01b03898116919091179092556000805462010000600160b01b031916336201000002179055600180548216888416179055601180549091169186169190911790556013839055816003611d2282826154e3565b90505060005b611d3560a0840184615017565b9050811015611d995780601b6000611d5060a0870187615017565b85818110611d6057611d606148fc565b9050602002810190611d729190615060565b60409081013582526020820192909252016000205580611d9181614db1565b915050611d28565b508015611c34576000805461ff0019169055604051600181527f7f26b83ff96e1f2b6a682f133852f6798a09c465da95921460cefb38474024989060200160405180910390a1505050505050565b601054604051635cc1f6b560e01b815260009173__$94d7d2f22770e4b0d1a2b99fb2812308e2$__91635cc1f6b591611e2691600891906004016156c2565b602060405180830381865af4158015611e43573d6000803e3d6000fd5b505050506040513d601f19601f82011682018060405250810190611e679190614a49565b905090565b611e74611de7565b1515600114611eb75760405162461bcd60e51b815260206004820152600f60248201526e1a5b99d95cdd1cc81a5b9d985b1a59608a1b6044820152606401610636565b73__$94d7d2f22770e4b0d1a2b99fb2812308e2$__632dd4082482600160009054906101000a90046001600160a01b031660108581548110611efb57611efb6148fc565b60009182526020808320601554601154600c548652601a938490526040909520805460069095029092019460099491926001600160a01b03909116918b908110611f4757611f476148fc565b906000526020600020018054611f5c90614a15565b80601f0160208091040260200160405190810160405280929190818152602001828054611f8890614a15565b8015611fd55780601f10611faa57610100808354040283529160200191611fd5565b820191906000526020600020905b815481529060010190602001808311611fb857829003601f168201915b5050505050806020019051810190611fed91906157db565b60405160e08a901b6001600160e01b031916815260048101989098526001600160a01b03968716602489015260448801959095526064870193909352608486019190915260a485015290911660c483015260e48201526101040160006040518083038186803b15801561205f57600080fd5b505af4158015612073573d6000803e3d6000fd5b5050505061208081613035565b6110ef816132b1565b601c546001600160a01b031633146120d15760405162461bcd60e51b815260206004820152600b60248201526a27b7363c902bb934ba32b960a91b6044820152606401610636565b6001601080546120e3906001906149fe565b815481106120f3576120f36148fc565b60009182526020909120600560069092020181015460ff169081111561211b5761211b613a6c565b146121535760405162461bcd60e51b8152602060048201526008602482015267111a5cd8589b195960c21b6044820152606401610636565b7f7399fd48fdfaf111111c20e282a8837c6803b6631b3b7b5e30b3b97d682d21b683833384604051610bdb94939291906149b8565b6000818152601a60209081526040808320805482518185028101850190935280835260609492939192909184015b828210156122625783829060005260206000200180546121d590614a15565b80601f016020809104026020016040519081016040528092919081815260200182805461220190614a15565b801561224e5780601f106122235761010080835404028352916020019161224e565b820191906000526020600020905b81548152906001019060200180831161223157829003601f168201915b5050505050815260200190600101906121b6565b505050509050919050565b61227561376e565b6040805160e081018252600380546001600160a01b0390811683526004548116602084015260055416928201929092526006546060820152600780549192916080840191906122c390614a15565b80601f01602080910402602001604051908101604052809291908181526020018280546122ef90614a15565b801561233c5780601f106123115761010080835404028352916020019161233c565b820191906000526020600020905b81548152906001019060200180831161231f57829003601f168201915b5050505050815260200160058201805480602002602001604051908101604052809291908181526020016000905b8282101561248557838290600052602060002090600502016040518060a0016040529081600082015481526020016001820160009054906101000a900460ff1660038111156123bb576123bb613a6c565b60038111156123cc576123cc613a6c565b815260200160028201548152602001600382015481526020016004820180546123f490614a15565b80601f016020809104026020016040519081016040528092919081815260200182805461242090614a15565b801561246d5780601f106124425761010080835404028352916020019161246d565b820191906000526020600020905b81548152906001019060200180831161245057829003601f168201915b5050505050815250508152602001906001019061236a565b505050908252506040805160e0810182526006840180546001600160a01b03168252600785015460208381019190915260088601548385015260098601546060840152600a86018054855181840281018401909652808652958201959394929360808601939283018282801561251a57602002820191906000526020600020905b815481526020019060010190808311612506575b5050505050815260200160058201805480602002602001604051908101604052809291908181526020016000905b828210156125dc578382906000526020600020906002020160405180604001604052908160008201548152602001600182018054806020026020016040519081016040528092919081815260200182805480156125c457602002820191906000526020600020905b8154815260200190600101908083116125b0575b50505050508152505081526020019060010190612548565b50505050815260200160068201805480602002602001604051908101604052809291908181526020016000905b8282101561265b57600084815260209081902060408051606081018252600286029092018054835260019081015460ff8082168587015261010090910416918301919091529083529092019101612609565b50505091525050905250919050565b6009546040516370a0823160e01b81526000916001600160a01b0316906370a082319061269b903090600401613929565b602060405180830381865afa1580156126b8573d6000803e3d6000fd5b505050506040513d601f19601f82011682018060405250810190611e6791906157db565b600033826040516020016126f19291906157f4565b60408051601f1981840301815291815281516020928301206000818152601990935291205460088054929350612749929091908110612732576127326148fc565b906000526020600020906005020160030154610a6f565b6001600160a01b0316336001600160a01b0316146127795760405162461bcd60e51b815260040161063690615811565b60008181526019602052604081205460088054909190811061279d5761279d6148fc565b600091825260209091206001600590920201015460ff1660038111156127c5576127c5613a6c565b146128085760405162461bcd60e51b8152602060048201526013602482015272496e67657374206e6f742043616c6c6261636b60681b6044820152606401610636565b60008181526019602052604090205460088054909190811061282c5761282c6148fc565b60009182526020822060059091020180549161284783614db1565b9091555050600081815260196020526040902054600880546129d492908110612872576128726148fc565b906000526020600020906005020160020154336001600160a01b0316633f4fb5aa60036005016016600301600087815260200190815260200160002054815481106128bf576128bf6148fc565b906000526020600020906005020160040180546128db90614a15565b80601f016020809104026020016040519081016040528092919081815260200182805461290790614a15565b80156129545780601f1061292957610100808354040283529160200191612954565b820191906000526020600020905b81548152906001019060200180831161293757829003601f168201915b505050505080602001905181019061296c91906157db565b6040518263ffffffff1660e01b815260040161298a91815260200190565b600060405180830381865afa1580156129a7573d6000803e3d6000fd5b505050506040513d6000823e601f3d908101601f191682016040526129cf9190810190615840565b612f08565b600081815260196020526040812081905560168054916129f3836158ad565b909155505060405160008051602061594f83398151915290600090a15050565b612a1c81610a6f565b6001600160a01b0316336001600160a01b031614612a4c5760405162461bcd60e51b815260040161063690615811565b6000828152601a602052604090205415801590612a7857506010546000838152601a6020526040902054145b15612aca5760405163de3a23c560e01b815260048101839052339063de3a23c590602401600060405180830381600087803b158015612ab657600080fd5b505af1158015611c34573d6000803e3d6000fd5b6000828152601860209081526040822080546001810182559083529082200180546001600160a01b031916331790556017805491612b0783614db1565b91905055505b5050565b63f23a6e6160e01b5b9695505050505050565b612b596040805160c081018252600080825260208201819052918101829052606080820183905260808201529060a082015290565b60108281548110612b6c57612b6c6148fc565b60009182526020918290206040805160c081018252600690930290910180546001600160a01b031683526001810154838501526002810154838301526003810154606084015260048101805483518187028101870190945280845293949193608086019392830182828015612c0057602002820191906000526020600020905b815481526020019060010190808311612bec575b505050918352505060058281015460209092019160ff1690811115612c2757612c27613a6c565b6005811115612c3857612c38613a6c565b90525092915050565b6001600160a01b03163b151590565b60005b600854811015612eb45760006008805483908110612c7357612c736148fc565b600091825260209091206001600590920201015460ff166003811115612c9b57612c9b613a6c565b14612cd157612ccc60036005018281548110612cb957612cb96148fc565b90600052602060002090600502016133e7565b612ea2565b6000306001600160a01b0316633837b05e60036005018481548110612cf857612cf86148fc565b9060005260206000209060050201600301546040518263ffffffff1660e01b8152600401612d2891815260200190565b602060405180830381865afa158015612d45573d6000803e3d6000fd5b505050506040513d601f19601f82011682018060405250810190612d6991906148df565b9050612d7581836134d3565b806001600160a01b031663df33cc5160036005018481548110612d9a57612d9a6148fc565b90600052602060002090600502016004018054612db690614a15565b80601f0160208091040260200160405190810160405280929190818152602001828054612de290614a15565b8015612e2f5780601f10612e0457610100808354040283529160200191612e2f565b820191906000526020600020905b815481529060010190602001808311612e1257829003601f168201915b5050505050806020019051810190612e4791906157db565b6013546040516001600160e01b031960e085901b16815260048101929092526024820152604401600060405180830381600087803b158015612e8857600080fd5b505af1158015612e9c573d6000803e3d6000fd5b50505050505b80612eac81614db1565b915050612c53565b5060405160008051602061594f83398151915290600090a1565b600654612edc906001615080565b612ee690426158c4565b60148281548110612ef957612ef96148fc565b60009182526020909120015550565b601054612f17906001906149fe565b6000838152601a602052604090205414612f6a5760405162461bcd60e51b815260206004820152601460248201527314db1bdd081d995c9cda5bdb881a5b9d985b1a5960621b6044820152606401610636565b6000828152601a6020908152604082208054600181018255908352918190208351612f9c93919091019184019061380f565b50612b0d826135e9565b60008054610100900460ff1615612ff4578160ff166001148015612fd05750612fce30612c41565b155b612fec5760405162461bcd60e51b8152600401610636906158dc565b506000919050565b60005460ff80841691161061301b5760405162461bcd60e51b8152600401610636906158dc565b506000805460ff191660ff92909216919091179055600190565b6000806003600401805461304890614a15565b80601f016020809104026020016040519081016040528092919081815260200182805461307490614a15565b80156130c15780601f10613096576101008083540402835291602001916130c1565b820191906000526020600020905b8154815290600101906020018083116130a457829003601f168201915b50505050508060200190518101906130d9919061592a565b6000828152601a6020526040902080549294509092509084908110613100576131006148fc565b90600052602060002001805461311590614a15565b80601f016020809104026020016040519081016040528092919081815260200182805461314190614a15565b801561318e5780601f106131635761010080835404028352916020019161318e565b820191906000526020600020905b81548152906001019060200180831161317157829003601f168201915b50505050508060200190518101906131a691906148df565b601c80546001600160a01b0319166001600160a01b03929092169190911790556000818152601a602052604090208054849081106131e6576131e66148fc565b9060005260206000200180546131fb90614a15565b80601f016020809104026020016040519081016040528092919081815260200182805461322790614a15565b80156132745780601f1061324957610100808354040283529160200191613274565b820191906000526020600020905b81548152906001019060200180831161325757829003601f168201915b505050505080602001905181019061328c91906148df565b601d80546001600160a01b0319166001600160a01b0392909216919091179055505050565b6012546001600160a01b03161580159061333d5750601260009054906101000a90046001600160a01b03166001600160a01b031663999925066040518163ffffffff1660e01b8152600401602060405180830381865afa158015613319573d6000803e3d6000fd5b505050506040513d601f19601f8201168201806040525081019061333d9190614a49565b80156133b157506012546040516344c3b60760e01b8152600481018390526001600160a01b03909116906344c3b60790602401602060405180830381865afa15801561338d573d6000803e3d6000fd5b505050506040513d601f19601f820116820180604052508101906133b19190614a49565b156110ef5760125460405163b992db0f60e01b8152600481018390526001600160a01b039091169063b992db0f906024016110c1565b600181015460039060ff168181111561340257613402613a6c565b11156134455760405162461bcd60e51b8152602060048201526012602482015271496e76616c696420696e676573745479706560701b6044820152606401610636565b805481600061345383614db1565b9091555060039050600182015460ff16600381111561347457613474613a6c565b146110ef57600281015460405163b3d7370760e01b8152600481018390526110ef919073__$94d7d2f22770e4b0d1a2b99fb2812308e2$__9063b3d7370790602401600060405180830381865af41580156129a7573d6000803e3d6000fd5b806016600301600084600360050185815481106134f2576134f26148fc565b9060005260206000209060050201600401805461350e90614a15565b80601f016020809104026020016040519081016040528092919081815260200182805461353a90614a15565b80156135875780601f1061355c57610100808354040283529160200191613587565b820191906000526020600020905b81548152906001019060200180831161356a57829003601f168201915b505050505080602001905181019061359f91906157db565b6040516020016135b09291906157f4565b60408051601f198184030181529181528151602092830120835290820192909252016000908120919091556016805491612b0783614db1565b60005b600082815260186020526040902054811015612b0d576000828152601860205260408120805483908110613622576136226148fc565b6000918252602090912001546001600160a01b03161461371157600082815260186020526040902080548290811061365c5761365c6148fc565b60009182526020909120015460405163de3a23c560e01b8152600481018490526001600160a01b039091169063de3a23c590602401600060405180830381600087803b1580156136ab57600080fd5b505af11580156136bf573d6000803e3d6000fd5b50505060008381526018602052604090208054909150829081106136e5576136e56148fc565b6000918252602082200180546001600160a01b0319169055601780549161370b836158ad565b91905055505b8061371b81614db1565b9150506135ec565b82805482825590600052602060002090810192821561375e579160200282015b8281111561375e578251825591602001919060010190613743565b5061376a929150613882565b5090565b6040518060e0016040528060006001600160a01b0316815260200160006001600160a01b0316815260200160006001600160a01b0316815260200160008152602001606081526020016060815260200161380a6040518060e0016040528060006001600160a01b031681526020016000815260200160008152602001600080191681526020016060815260200160608152602001606081525090565b905290565b82805461381b90614a15565b90600052602060002090601f01602090048101928261383d576000855561375e565b82601f1061385657805160ff191683800117855561375e565b8280016001018555821561375e579182018281111561375e578251825591602001919060010190613743565b5b8082111561376a5760008155600101613883565b6000602082840312156138a957600080fd5b81356001600160e01b0319811681146138c157600080fd5b9392505050565b600060e082840312156138da57600080fd5b50919050565b6000602082840312156138f257600080fd5b81356001600160401b0381111561390857600080fd5b613914848285016138c8565b949350505050565b6001600160a01b03169052565b6001600160a01b0391909116815260200190565b60006020828403121561394f57600080fd5b5035919050565b6020808252825182820181905260009190848201906040850190845b818110156139975783516001600160a01b031683529284019291840191600101613972565b50909695505050505050565b6001600160a01b03811681146110ef57600080fd5b60008083601f8401126139ca57600080fd5b5081356001600160401b038111156139e157600080fd5b6020830191508360208260051b85010111156139fc57600080fd5b9250929050565b600080600080600060808688031215613a1b57600080fd5b8535613a26816139a3565b9450602086013593506040860135925060608601356001600160401b03811115613a4f57600080fd5b613a5b888289016139b8565b969995985093965092949392505050565b634e487b7160e01b600052602160045260246000fd5b60068110613a9257613a92613a6c565b9052565b6001600160a01b038616815260208101859052604081018490526060810183905260a08101612b1a6080830184613a82565b60008083601f840112613ada57600080fd5b5081356001600160401b03811115613af157600080fd5b6020830191508360208285010111156139fc57600080fd5b600080600060408486031215613b1e57600080fd5b83356001600160401b03811115613b3457600080fd5b613b4086828701613ac8565b909790965060209590950135949350505050565b60005b83811015613b6f578181015183820152602001613b57565b83811115613b7e576000848401525b50505050565b60008151808452613b9c816020860160208601613b54565b601f01601f19169290920160200192915050565b6020815260006138c16020830184613b84565b8035610b4b816139a3565b60008060408385031215613be157600080fd5b8235613bec816139a3565b946020939093013593505050565b602081016105e98284613a82565b600081518084526020808501945080840160005b83811015613c3857815187529582019590820190600101613c1c565b509495945050505050565b600081518084526020808501945080840160005b83811015613c38578151805188528381015160ff908116858a0152604091820151169088015260609096019590820190600101613c57565b60018060a01b0381511682526000602080830151818501526040808401518186015260608085015181870152608085015160e06080880152613cd460e0880182613c08565b905060a086015187820360a08901528181518084528684019150868160051b85010187840193506000805b83811015613d6757868303601f190185528551805184528a01518a84018a905280518a8501819052908b019083908a8601905b80831015613d525783518252928d019260019290920191908d0190613d32565b50978c0197968c019694505050600101613cff565b505060c08a015197508a810360c08c0152613d828189613c43565b9b9a5050505050505050505050565b6001600160a01b0387811682528681166020830152851660408201526060810184905260c060808201819052600090613dcc90830185613b84565b82810360a0840152613dde8185613c8f565b9998505050505050505050565b60018060a01b0381511682526020810151602083015260408101516040830152606081015160608301526000608082015160c06080850152613e3060c0850182613c08565b905060a0830151613e4460a0860182613a82565b509392505050565b6000602080830181845280855180835260408601915060408160051b870101925083870160005b82811015613ea157603f19888603018452613e8f858351613deb565b94509285019290850190600101613e73565b5092979650505050505050565b600080600060408486031215613ec357600080fd5b8335925060208401356001600160401b03811115613ee057600080fd5b613eec868287016139b8565b9497909650939450505050565b634e487b7160e01b600052604160045260246000fd5b60405160c081016001600160401b0381118282101715613f3157613f31613ef9565b60405290565b604051601f8201601f191681016001600160401b0381118282101715613f5f57613f5f613ef9565b604052919050565b60006001600160401b03821115613f8057613f80613ef9565b50601f01601f191660200190565b60008060408385031215613fa157600080fd5b8235915060208301356001600160401b03811115613fbe57600080fd5b8301601f81018513613fcf57600080fd5b8035613fe2613fdd82613f67565b613f37565b818152866020838501011115613ff757600080fd5b816020840160208301376000602083830101528093505050509250929050565b60006001600160401b0382111561403057614030613ef9565b5060051b60200190565b6000806040838503121561404d57600080fd5b823591506020808401356001600160401b0381111561406b57600080fd5b8401601f8101861361407c57600080fd5b803561408a613fdd82614017565b81815260059190911b820183019083810190888311156140a957600080fd5b928401925b828410156140c7578335825292840192908401906140ae565b80955050505050509250929050565b600080600080600060a086880312156140ee57600080fd5b85356140f9816139a3565b94506020860135614109816139a3565b93506040860135614119816139a3565b92506060860135915060808601356001600160401b0381111561413b57600080fd5b614147888289016138c8565b9150509295509295909350565b60008060008060008060008060a0898b03121561417057600080fd5b883561417b816139a3565b9750602089013561418b816139a3565b965060408901356001600160401b03808211156141a757600080fd5b6141b38c838d016139b8565b909850965060608b01359150808211156141cc57600080fd5b6141d88c838d016139b8565b909650945060808b01359150808211156141f157600080fd5b506141fe8b828c01613ac8565b999c989b5096995094979396929594505050565b6000602080830181845280855180835260408601915060408160051b870101925083870160005b82811015613ea157603f19888603018452614255858351613b84565b94509285019290850190600101614239565b60048110613a9257613a92613a6c565b600081518084526020808501808196508360051b8101915082860160005b858110156142fb578284038952815160a081518652868201516142ba88880182614267565b5060408281015190870152606080830151908701526080918201519186018190526142e781870183613b84565b9a87019a9550505090840190600101614295565b5091979650505050505050565b60208152600060018060a01b0380845116602084015280602085015116604084015250604083015161433d606084018261391c565b5060608301516080830152608083015160e060a0840152614362610100840182613b84565b905060a0840151601f19808584030160c08601526143808383614277565b925060c08601519150808584030160e08601525061439e8282613c8f565b95945050505050565b600080604083850312156143ba57600080fd5b50508035926020909101359150565b60008060008060008060a087890312156143e257600080fd5b86356143ed816139a3565b955060208701356143fd816139a3565b9450604087013593506060870135925060808701356001600160401b0381111561442657600080fd5b61443289828a01613ac8565b979a9699509497509295939492505050565b6020815260006138c16020830184613deb565b6000808335601e1984360301811261446e57600080fd5b83016020810192503590506001600160401b0381111561448d57600080fd5b8036038313156139fc57600080fd5b81835281816020850137506000828201602090810191909152601f909101601f19169091010190565b6000808335601e198436030181126144dc57600080fd5b83016020810192503590506001600160401b038111156144fb57600080fd5b8060051b36038313156139fc57600080fd5b600481106110ef57600080fd5b81835260006020808501808196508560051b81019150846000805b888110156145c3578385038a528235609e19893603018112614555578283fd5b88018035865260a08782013561456a8161450d565b61457689890182614267565b506040828101359088015260608083013590880152608061459981840184614457565b935082828a01526145ad838a01858361449c565b9d8a019d98505050938701935050600101614535565b509298975050505050505050565b6000823560de198336030181126145e757600080fd5b90910192915050565b81835260006001600160fb1b0383111561460957600080fd5b8260051b8083602087013760009401602001938452509192915050565b6000808335601e1984360301811261463d57600080fd5b83016020810192503590506001600160401b0381111561465c57600080fd5b6060810236038313156139fc57600080fd5b60ff811681146110ef57600080fd5b8183526000602080850194508260005b85811015613c385781358752828201356146a68161466e565b60ff90811688850152604090838201356146bf8161466e565b1690880152606096870196919091019060010161468d565b600081356146e4816139a3565b6001600160a01b0316835260208281013581850152604080840135818601526060808501359086015261471a60808501856144c5565b60e0608088015261472f60e0880182846145f0565b91505061473f60a08601866144c5565b87830360a0890152808352848301600582901b84018601836000805b858110156147ba57878403601f19018552823536889003603e19018112614780578283fd5b8701803585526147928b8201826144c5565b91508a8c8701526147a68b870183836145f0565b968c0196955050509189019160010161475b565b5050506147ca60c08a018a614626565b9750955089810360c08b01526147e181888861467d565b9a9950505050505050505050565b6001600160a01b038581168252608060208301526000908535614811816139a3565b16608083015261482360208601613bc3565b61483060a084018261391c565b5061483d60408601613bc3565b61484a60c084018261391c565b50606085013560e08301526148626080860186614457565b60e06101008501526148796101608501828461449c565b91505061488960a08701876144c5565b607f1980868503016101208701526148a284838561451a565b93506148b160c08a018a6145d1565b9250808685030161014087015250506148ca82826146d7565b60408501969096525050506060015292915050565b6000602082840312156148f157600080fd5b81516138c1816139a3565b634e487b7160e01b600052603260045260246000fd5b602080825260159082015274151a5b595b1bd8dac81cdd1a5b1b081b1bd8dad959605a1b604082015260600190565b6001600160a01b03929092168252602082015260400190565b6020808252600b908201526a27b7363c9025b2b2b832b960a91b604082015260600190565b60018060a01b03861681528460208201528360408201526080606082015260006149ad6080830184866145f0565b979650505050505050565b6060815260006149cc60608301868861449c565b6001600160a01b03949094166020830152506040015292915050565b634e487b7160e01b600052601160045260246000fd5b600082821015614a1057614a106149e8565b500390565b600181811c90821680614a2957607f821691505b6020821081036138da57634e487b7160e01b600052602260045260246000fd5b600060208284031215614a5b57600080fd5b815180151581146138c157600080fd5b6000815480845260208085019450836000528060002060005b83811015613c3857815487529582019560019182019101614a84565b600082825480855260208086019550808260051b8401016000868152828120815b85811015614b3157868403601f19018a52815484526040858501819052600180840180549287018390528552868520606087019290919086905b80821015614b185783548552938901939282019290820190614afb565b5050509a86019a50935060029190910190600101614ac1565b509198975050505050505050565b6000815480845260208085019450836000528060002060005b83811015613c38578154875260018083015460ff808216868b015260089190911c16604089015260609097019660029092019101614b58565b600060018060a01b03808716835260806020840152614bb6608084018288541661391c565b50600185015460a0830152600285015460c0830152600385015460e083015260e0610100830152614bee610160830160048701614a6b565b607f198084830301610120850152614c098260058901614aa0565b9150808483030161014085015250614c248160068801614b3f565b915050614c34604083018561391c565b82606083015295945050505050565b805160068110610b4b57600080fd5b60006020808385031215614c6557600080fd5b82516001600160401b0380821115614c7c57600080fd5b9084019060c08287031215614c9057600080fd5b614c98613f0f565b8251614ca3816139a3565b8082525083830151848201526040830151604082015260608301516060820152608083015182811115614cd557600080fd5b83019150601f82018713614ce857600080fd5b8151614cf6613fdd82614017565b81815260059190911b83018501908581019089831115614d1557600080fd5b938601935b82851015614d3357845182529386019390860190614d1a565b608084015250614d47905060a08401614c43565b60a08201529695505050505050565b6020808252600f908201526e27b7363c9030b93134ba3930ba37b960891b604082015260600190565b602080825260189082015277139bdd08105c989a5d1c985d1a5bdb94995c5d595cdd195960421b604082015260600190565b600060018201614dc357614dc36149e8565b5060010190565b60208082526026908201527f7061796f7574732e6c656e677468206d757374206d61746368206f7574636f6d60408201526565536c6f747360d01b606082015260800190565b83815260406020820152600061439e6040830184866145f0565b6001600160a01b038416815260208082018490526060604083018190528351908301819052600091848101916080850190845b81811015614e7957845183529383019391830191600101614e5d565b509098975050505050505050565b600060208284031215614e9957600080fd5b81356138c1816139a3565b80546001600160a01b0319166001600160a01b0392909216919091179055565b6000808335601e19843603018112614edb57600080fd5b8301803591506001600160401b03821115614ef557600080fd5b6020019150368190038213156139fc57600080fd5b5b81811015612b0d5760008155600101614f0b565b601f8211156119b657806000526020600020601f840160051c81016020851015614f465750805b610980601f850160051c830182614f0a565b6001600160401b03831115614f6f57614f6f613ef9565b614f8383614f7d8354614a15565b83614f1f565b6000601f841160018114614fb75760008515614f9f5750838201355b600019600387901b1c1916600186901b178355610980565b600083815260209020601f19861690835b82811015614fe85786850135825560209485019460019092019101614fc8565b50868210156150055760001960f88860031b161c19848701351681555b505060018560011b0183555050505050565b6000808335601e1984360301811261502e57600080fd5b8301803591506001600160401b0382111561504857600080fd5b6020019150600581901b36038213156139fc57600080fd5b60008235609e1983360301811261507657600080fd5b9190910192915050565b600081600019048311821515161561509a5761509a6149e8565b500290565b813581556001810160208301356150b58161450d565b600481106150c5576150c5613a6c565b60ff1982541660ff82168117835550505060408201356002820155606082013560038201556150f76080830183614ec4565b613b7e818360048601614f58565b6000823560de1983360301811261507657600080fd5b60008235603e1983360301811261507657600080fd5b8054600080835581156119b657828152602081208281015b8082101561098057828255600182019150615149565b813581556001808201602061517681860186615017565b600160401b81111561518a5761518a613ef9565b8354818555808210156151be5760008581528481208381019083015b808210156151ba57828255908801906151a6565b5050505b506000938452828420935b818110156151e45782358555938501939183019185016151c9565b5050505050505050565b600160401b83111561520257615202613ef9565b80548382558084101561527a576001600160ff1b03600181831181161561522b5761522b6149e8565b81861181161561523d5761523d6149e8565b60008481526020812090925086821b81019084831b015b808210156152755783825561526a838301615131565b600282019150615254565b505050505b5060008181526020812083915b85811015611c34576152a261529c848761511b565b8361515f565b6020929092019160029190910190600101615287565b6000808335601e198436030181126152cf57600080fd5b8301803591506001600160401b038211156152e957600080fd5b60200191506060810236038213156139fc57600080fd5b813581556001810160208301356153168161466e565b815460408501356153268161466e565b61ff008160081b1660ff841661ffff19841617178455505050505050565b600160401b83111561535857615358613ef9565b8054838255808410156153ca576001600160ff1b036001818311811615615381576153816149e8565b818611811615615393576153936149e8565b60008481526020812090925086821b81019084831b015b808210156153c55783825583838301556002820191506153aa565b505050505b5060008181526020812083915b85811015611c34576153e98383615300565b60609290920191600291909101906001016153d7565b813561540a816139a3565b6154148183614ea4565b506001602080840135828401556040840135600284015560608401356003840155600483016154466080860186615017565b600160401b81111561545a5761545a613ef9565b82548184558082101561547f57836000528460002061547d828201848301614f0a565b505b506000928352838320925b818110156154a557823584559285019291840191850161548a565b5050505050506154b860a0830183615017565b6154c68183600586016151ee565b50506154d560c08301836152b8565b613b7e818360068601615344565b81356154ee816139a3565b6154f88183614ea4565b5060016020830135615509816139a3565b61551581838501614ea4565b506040830135615524816139a3565b6155318160028501614ea4565b50606083013560038301556155496080840184614ec4565b615557818360048701614f58565b5050600580830161556b60a0860186615017565b600160401b81111561557f5761557f613ef9565b825481845580821015615667577f33333333333333333333333333333333333333333333333333333333333333338082118716156155bf576155bf6149e8565b8083118716156155d1576155d16149e8565b50600084815260208120838702810190878402015b80821015615663578282558289830155826002830155826003830155600482016156108154614a15565b801561565857601f8082116001811461562b57868455615655565b6000848152602090206156468385018e1c82018f8301614f0a565b50600084815260208120818655555b50505b5050908701906155e6565b5050505b506000928352602083209282905b828110156156a25761569061568a8386615060565b8661509f565b93850193602091909101908601615675565b50505050505050612b0d6156b960c0840184615105565b600683016153ff565b6000604082016040835280855480835260608501915060608160051b8601019250600087815260208120815b838110156157c657878603605f1901855281548652600182015460ff166157186020880182614267565b5060028201546040870152600382015460608701526004820160a0608088015283815461574481614a15565b8060a08b015260018216600081146157635760018114615778576157a9565b60ff19831660c08c015260e08b0193506157a9565b84885260208820885b838110156157a05781548d820160c00152600190910190602001615781565b8c0160c0019450505b5091985050506020959095019450600591909101906001016156ee565b50505050506020929092019290925292915050565b6000602082840312156157ed57600080fd5b5051919050565b60609290921b6001600160601b0319168252601482015260340190565b60208082526015908201527436b9b39739b2b73232b9103737ba1039b7b63b32b960591b604082015260600190565b60006020828403121561585257600080fd5b81516001600160401b0381111561586857600080fd5b8201601f8101841361587957600080fd5b8051615887613fdd82613f67565b81815285602083850101111561589c57600080fd5b61439e826020830160208601613b54565b6000816158bc576158bc6149e8565b506000190190565b600082198211156158d7576158d76149e8565b500190565b6020808252602e908201527f496e697469616c697a61626c653a20636f6e747261637420697320616c72656160408201526d191e481a5b9a5d1a585b1a5e995960921b606082015260800190565b6000806040838503121561593d57600080fd5b50508051602090910151909290915056fe71bd81ebe1d98a2944767394e76a9aff18724b2cf04e1db71254f804544b35c7a26469706673582212208cd40081fa65ee06b4d4f9d9c04ab641f314922e5e0698ec1c06e4f868931a5e64736f6c634300080d0033",
  "libraries": {
    "SolverLib": "0xCf7Ed3AccA5a467e9e704C703E8D87F634fB0Fc9"
  },
  "devdoc": {
    "kind": "dev",
    "methods": {
      "addData(bytes32,bytes)": {
        "details": "Allows keeper to manually add data to IngestType.Manual slots after executeIngests",
        "params": {
          "_data": "Data to be added",
          "_slot": "Destination slot"
        }
      },
      "addressFromChainIndex(uint256)": {
        "details": "Get address for a Solver by its index in the chain",
        "params": {
          "_index": "Index of Solver"
        }
      },
      "allocationsValid(uint256)": {
        "details": "Verifies that all slots corresponding to recipients have been filled before CT allocation"
      },
      "arbitrate(uint256,uint256[])": {
        "details": "Allows arbitrator to unilaterally make a payout report.",
        "params": {
          "_index": "Index of condition",
          "payouts": "Array of uint256 values representing the ratio of the collateral that each outcome can claim. The length of this array must be equal to the outcomeSlotCount"
        }
      },
      "arbitrateNull(uint256)": {
        "details": "Returns condition.status to OutcomeProposed without a ruling.",
        "params": {
          "_index": "Index of condition"
        }
      },
      "arbitrationRequested(uint256)": {
        "details": "Sets condition.status to ArbitrationRequested.",
        "params": {
          "_index": "Index of condition"
        }
      },
      "confirmPayouts(uint256)": {
        "details": "Confirm payouts for condition (reportPayouts to ConditionalTokens contract)",
        "params": {
          "_index": "Index of condition"
        }
      },
      "deployChild((address,address,address,uint256,bytes,(uint256,uint8,bytes32,uint256,bytes)[],(address,uint256,uint256,bytes32,uint256[],(bytes32,bytes32[])[],(bytes32,uint8,uint8)[])))": {
        "details": "Deploys a new Solver as a child",
        "params": {
          "_config": "Configuration of the child Solver"
        }
      },
      "executeSolve(uint256)": {
        "details": "Mints conditional tokens, allocates them to recipients specified by ingested data, runs arbitrary `postroll()` function and tries to do the same for child Solver",
        "params": {
          "_index": "Index of condition to execute on"
        }
      },
      "getCallbackOutput(bytes32)": {
        "details": "A simple getter that requires upstream slot ver. == our condition ver.",
        "params": {
          "_slot": "Slot containing data"
        }
      },
      "handleCallback(bytes32)": {
        "details": "Handle upstream Solver making callback and ingest the data",
        "params": {
          "_slot": "Destination slot for the data being sent"
        }
      },
      "ingestsValid()": {
        "details": "Verifies that all ingests have been performed for a condition"
      },
      "init(address,address,address,uint256,(address,address,address,uint256,bytes,(uint256,uint8,bytes32,uint256,bytes)[],(address,uint256,uint256,bytes32,uint256[],(bytes32,bytes32[])[],(bytes32,uint8,uint8)[])))": {
        "details": "Called by SolverFactory when contract is created. Nothing else should ever need to call this",
        "params": {
          "_chainIndex": "The index of this Solver in the chain",
          "_chainParent": "The address of the Solver above this one in the chain. address(0) if this Solver is first.",
          "_solverConfig": "The configuration of this Solver"
        }
      },
      "onERC1155BatchReceived(address,address,uint256[],uint256[],bytes)": {
        "details": "Handles the receipt of a multiple ERC1155 token types. This function is called at the end of a `safeBatchTransferFrom` after the balances have been updated. To accept the transfer(s), this must return `bytes4(keccak256(\"onERC1155BatchReceived(address,address,uint256[],uint256[],bytes)\"))` (i.e. 0xbc197c81, or its own function selector).",
        "params": {
          "data": "Additional data with no specified format",
          "from": "The address which previously owned the token",
          "ids": "An array containing ids of each token being transferred (order and length must match values array)",
          "operator": "The address which initiated the batch transfer (i.e. msg.sender)",
          "values": "An array containing amounts of each token being transferred (order and length must match ids array)"
        },
        "returns": {
          "_0": "`bytes4(keccak256(\"onERC1155BatchReceived(address,address,uint256[],uint256[],bytes)\"))` if transfer is allowed"
        }
      },
      "onERC1155Received(address,address,uint256,uint256,bytes)": {
        "details": "Handles the receipt of a single ERC1155 token type. This function is called at the end of a `safeTransferFrom` after the balance has been updated. To accept the transfer, this must return `bytes4(keccak256(\"onERC1155Received(address,address,uint256,uint256,bytes)\"))` (i.e. 0xf23a6e61, or its own function selector).",
        "params": {
          "data": "Additional data with no specified format",
          "from": "The address which previously owned the token",
          "id": "The ID of the token being transferred",
          "operator": "The address which initiated the transfer (i.e. msg.sender)",
          "value": "The amount of tokens being transferred"
        },
        "returns": {
          "_0": "`bytes4(keccak256(\"onERC1155Received(address,address,uint256,uint256,bytes)\"))` if transfer is allowed"
        }
      },
      "prepareSolve(uint256)": {
        "details": "Creates a new condition, associated timelock, and executes ingests for this Solver and any child Solvers",
        "params": {
          "_index": "Index of the new condition to be created."
        }
      },
      "proposePayouts(uint256,uint256[])": {
        "details": "Propose payouts (AKA outcomes) for a condition",
        "params": {
          "_index": "Index of condition",
          "_payouts": "Array of uint256 values representing the ratio of the collateral that each outcome can claim. The length of this array must be equal to the outcomeSlotCount"
        }
      },
      "redeemPosition(address,bytes32,bytes32,uint256[])": {
        "details": "Redeems CTs held by this Solver. See ConditionalTokens contract for more info."
      },
      "registerOutgoingCallback(bytes32,uint256)": {
        "details": "Register callback expected by a downstream Solver for some data",
        "params": {
          "_chainIndex": "Index of the Solver requesting this callback",
          "_slot": "Slot being waited on by downstream Solver"
        }
      },
      "supportsInterface(bytes4)": {
        "details": "See {IERC165-supportsInterface}."
      }
    },
    "version": 1
  },
  "userdoc": {
    "kind": "user",
    "methods": {
      "isRecipient(address,uint256)": {
        "notice": "Returns recipient addresses for a condition"
      }
    },
    "version": 1
  },
  "storageLayout": {
    "storage": [
      {
        "astId": 130,
        "contract": "contracts/WriterSolverV1.sol:WriterSolverV1",
        "label": "_initialized",
        "offset": 0,
        "slot": "0",
        "type": "t_uint8"
      },
      {
        "astId": 133,
        "contract": "contracts/WriterSolverV1.sol:WriterSolverV1",
        "label": "_initializing",
        "offset": 1,
        "slot": "0",
        "type": "t_bool"
      },
      {
        "astId": 7359,
        "contract": "contracts/WriterSolverV1.sol:WriterSolverV1",
        "label": "factoryAddress",
        "offset": 2,
        "slot": "0",
        "type": "t_address"
      },
      {
        "astId": 7361,
        "contract": "contracts/WriterSolverV1.sol:WriterSolverV1",
        "label": "ctfAddress",
        "offset": 0,
        "slot": "1",
        "type": "t_address"
      },
      {
        "astId": 7363,
        "contract": "contracts/WriterSolverV1.sol:WriterSolverV1",
        "label": "deployerAddress",
        "offset": 0,
        "slot": "2",
        "type": "t_address"
      },
      {
        "astId": 7366,
        "contract": "contracts/WriterSolverV1.sol:WriterSolverV1",
        "label": "config",
        "offset": 0,
        "slot": "3",
        "type": "t_struct(Config)9060_storage"
      },
      {
        "astId": 7370,
        "contract": "contracts/WriterSolverV1.sol:WriterSolverV1",
        "label": "conditions",
        "offset": 0,
        "slot": "16",
        "type": "t_array(t_struct(Condition)9041_storage)dyn_storage"
      },
      {
        "astId": 7372,
        "contract": "contracts/WriterSolverV1.sol:WriterSolverV1",
        "label": "chainParent",
        "offset": 0,
        "slot": "17",
        "type": "t_address"
      },
      {
        "astId": 7374,
        "contract": "contracts/WriterSolverV1.sol:WriterSolverV1",
        "label": "chainChild",
        "offset": 0,
        "slot": "18",
        "type": "t_address"
      },
      {
        "astId": 7376,
        "contract": "contracts/WriterSolverV1.sol:WriterSolverV1",
        "label": "chainIndex",
        "offset": 0,
        "slot": "19",
        "type": "t_uint256"
      },
      {
        "astId": 7379,
        "contract": "contracts/WriterSolverV1.sol:WriterSolverV1",
        "label": "timelocks",
        "offset": 0,
        "slot": "20",
        "type": "t_array(t_uint256)dyn_storage"
      },
      {
        "astId": 7381,
        "contract": "contracts/WriterSolverV1.sol:WriterSolverV1",
        "label": "trackingId",
        "offset": 0,
        "slot": "21",
        "type": "t_bytes32"
      },
      {
        "astId": 7384,
        "contract": "contracts/WriterSolverV1.sol:WriterSolverV1",
        "label": "callbacks",
        "offset": 0,
        "slot": "22",
        "type": "t_struct(Callbacks)9084_storage"
      },
      {
        "astId": 7387,
        "contract": "contracts/WriterSolverV1.sol:WriterSolverV1",
        "label": "datas",
        "offset": 0,
        "slot": "26",
        "type": "t_struct(Datas)9070_storage"
      },
      {
        "astId": 10136,
        "contract": "contracts/WriterSolverV1.sol:WriterSolverV1",
        "label": "writer",
        "offset": 0,
        "slot": "28",
        "type": "t_address"
      },
      {
        "astId": 10138,
        "contract": "contracts/WriterSolverV1.sol:WriterSolverV1",
        "label": "buyer",
        "offset": 0,
        "slot": "29",
        "type": "t_address"
      }
    ],
    "types": {
      "t_address": {
        "encoding": "inplace",
        "label": "address",
        "numberOfBytes": "20"
      },
      "t_array(t_address)dyn_storage": {
        "base": "t_address",
        "encoding": "dynamic_array",
        "label": "address[]",
        "numberOfBytes": "32"
      },
      "t_array(t_bytes32)dyn_storage": {
        "base": "t_bytes32",
        "encoding": "dynamic_array",
        "label": "bytes32[]",
        "numberOfBytes": "32"
      },
      "t_array(t_bytes_storage)dyn_storage": {
        "base": "t_bytes_storage",
        "encoding": "dynamic_array",
        "label": "bytes[]",
        "numberOfBytes": "32"
      },
      "t_array(t_struct(Allocation)9111_storage)dyn_storage": {
        "base": "t_struct(Allocation)9111_storage",
        "encoding": "dynamic_array",
        "label": "struct SolverLib.Allocation[]",
        "numberOfBytes": "32"
      },
      "t_array(t_struct(Condition)9041_storage)dyn_storage": {
        "base": "t_struct(Condition)9041_storage",
        "encoding": "dynamic_array",
        "label": "struct SolverLib.Condition[]",
        "numberOfBytes": "32"
      },
      "t_array(t_struct(Ingest)9025_storage)dyn_storage": {
        "base": "t_struct(Ingest)9025_storage",
        "encoding": "dynamic_array",
        "label": "struct SolverLib.Ingest[]",
        "numberOfBytes": "32"
      },
      "t_array(t_struct(Multihash)9013_storage)dyn_storage": {
        "base": "t_struct(Multihash)9013_storage",
        "encoding": "dynamic_array",
        "label": "struct SolverLib.Multihash[]",
        "numberOfBytes": "32"
      },
      "t_array(t_uint256)dyn_storage": {
        "base": "t_uint256",
        "encoding": "dynamic_array",
        "label": "uint256[]",
        "numberOfBytes": "32"
      },
      "t_bool": {
        "encoding": "inplace",
        "label": "bool",
        "numberOfBytes": "1"
      },
      "t_bytes32": {
        "encoding": "inplace",
        "label": "bytes32",
        "numberOfBytes": "32"
      },
      "t_bytes_storage": {
        "encoding": "bytes",
        "label": "bytes",
        "numberOfBytes": "32"
      },
      "t_contract(IERC20)2691": {
        "encoding": "inplace",
        "label": "contract IERC20",
        "numberOfBytes": "20"
      },
      "t_contract(Solver)8870": {
        "encoding": "inplace",
        "label": "contract Solver",
        "numberOfBytes": "20"
      },
      "t_enum(IngestType)8999": {
        "encoding": "inplace",
        "label": "enum SolverLib.IngestType",
        "numberOfBytes": "1"
      },
      "t_enum(Status)9006": {
        "encoding": "inplace",
        "label": "enum SolverLib.Status",
        "numberOfBytes": "1"
      },
      "t_mapping(t_bytes32,t_array(t_address)dyn_storage)": {
        "encoding": "mapping",
        "key": "t_bytes32",
        "label": "mapping(bytes32 => address[])",
        "numberOfBytes": "32",
        "value": "t_array(t_address)dyn_storage"
      },
      "t_mapping(t_bytes32,t_array(t_bytes_storage)dyn_storage)": {
        "encoding": "mapping",
        "key": "t_bytes32",
        "label": "mapping(bytes32 => bytes[])",
        "numberOfBytes": "32",
        "value": "t_array(t_bytes_storage)dyn_storage"
      },
      "t_mapping(t_bytes32,t_uint256)": {
        "encoding": "mapping",
        "key": "t_bytes32",
        "label": "mapping(bytes32 => uint256)",
        "numberOfBytes": "32",
        "value": "t_uint256"
      },
      "t_struct(Allocation)9111_storage": {
        "encoding": "inplace",
        "label": "struct SolverLib.Allocation",
        "members": [
          {
            "astId": 9107,
            "contract": "contracts/WriterSolverV1.sol:WriterSolverV1",
            "label": "recipientAddressSlot",
            "offset": 0,
            "slot": "0",
            "type": "t_bytes32"
          },
          {
            "astId": 9110,
            "contract": "contracts/WriterSolverV1.sol:WriterSolverV1",
            "label": "recipientAmountSlots",
            "offset": 0,
            "slot": "1",
            "type": "t_array(t_bytes32)dyn_storage"
          }
        ],
        "numberOfBytes": "64"
      },
      "t_struct(Callbacks)9084_storage": {
        "encoding": "inplace",
        "label": "struct SolverLib.Callbacks",
        "members": [
          {
            "astId": 9072,
            "contract": "contracts/WriterSolverV1.sol:WriterSolverV1",
            "label": "numIncoming",
            "offset": 0,
            "slot": "0",
            "type": "t_uint256"
          },
          {
            "astId": 9074,
            "contract": "contracts/WriterSolverV1.sol:WriterSolverV1",
            "label": "numOutgoing",
            "offset": 0,
            "slot": "1",
            "type": "t_uint256"
          },
          {
            "astId": 9079,
            "contract": "contracts/WriterSolverV1.sol:WriterSolverV1",
            "label": "outgoing",
            "offset": 0,
            "slot": "2",
            "type": "t_mapping(t_bytes32,t_array(t_address)dyn_storage)"
          },
          {
            "astId": 9083,
            "contract": "contracts/WriterSolverV1.sol:WriterSolverV1",
            "label": "incoming",
            "offset": 0,
            "slot": "3",
            "type": "t_mapping(t_bytes32,t_uint256)"
          }
        ],
        "numberOfBytes": "128"
      },
      "t_struct(Condition)9041_storage": {
        "encoding": "inplace",
        "label": "struct SolverLib.Condition",
        "members": [
          {
            "astId": 9028,
            "contract": "contracts/WriterSolverV1.sol:WriterSolverV1",
            "label": "collateralToken",
            "offset": 0,
            "slot": "0",
            "type": "t_contract(IERC20)2691"
          },
          {
            "astId": 9030,
            "contract": "contracts/WriterSolverV1.sol:WriterSolverV1",
            "label": "questionId",
            "offset": 0,
            "slot": "1",
            "type": "t_bytes32"
          },
          {
            "astId": 9032,
            "contract": "contracts/WriterSolverV1.sol:WriterSolverV1",
            "label": "parentCollectionId",
            "offset": 0,
            "slot": "2",
            "type": "t_bytes32"
          },
          {
            "astId": 9034,
            "contract": "contracts/WriterSolverV1.sol:WriterSolverV1",
            "label": "conditionId",
            "offset": 0,
            "slot": "3",
            "type": "t_bytes32"
          },
          {
            "astId": 9037,
            "contract": "contracts/WriterSolverV1.sol:WriterSolverV1",
            "label": "payouts",
            "offset": 0,
            "slot": "4",
            "type": "t_array(t_uint256)dyn_storage"
          },
          {
            "astId": 9040,
            "contract": "contracts/WriterSolverV1.sol:WriterSolverV1",
            "label": "status",
            "offset": 0,
            "slot": "5",
            "type": "t_enum(Status)9006"
          }
        ],
        "numberOfBytes": "192"
      },
      "t_struct(ConditionBase)9105_storage": {
        "encoding": "inplace",
        "label": "struct SolverLib.ConditionBase",
        "members": [
          {
            "astId": 9087,
            "contract": "contracts/WriterSolverV1.sol:WriterSolverV1",
            "label": "collateralToken",
            "offset": 0,
            "slot": "0",
            "type": "t_contract(IERC20)2691"
          },
          {
            "astId": 9089,
            "contract": "contracts/WriterSolverV1.sol:WriterSolverV1",
            "label": "outcomeSlots",
            "offset": 0,
            "slot": "1",
            "type": "t_uint256"
          },
          {
            "astId": 9091,
            "contract": "contracts/WriterSolverV1.sol:WriterSolverV1",
            "label": "parentCollectionIndexSet",
            "offset": 0,
            "slot": "2",
            "type": "t_uint256"
          },
          {
            "astId": 9093,
            "contract": "contracts/WriterSolverV1.sol:WriterSolverV1",
            "label": "amountSlot",
            "offset": 0,
            "slot": "3",
            "type": "t_bytes32"
          },
          {
            "astId": 9096,
            "contract": "contracts/WriterSolverV1.sol:WriterSolverV1",
            "label": "partition",
            "offset": 0,
            "slot": "4",
            "type": "t_array(t_uint256)dyn_storage"
          },
          {
            "astId": 9100,
            "contract": "contracts/WriterSolverV1.sol:WriterSolverV1",
            "label": "allocations",
            "offset": 0,
            "slot": "5",
            "type": "t_array(t_struct(Allocation)9111_storage)dyn_storage"
          },
          {
            "astId": 9104,
            "contract": "contracts/WriterSolverV1.sol:WriterSolverV1",
            "label": "outcomeURIs",
            "offset": 0,
            "slot": "6",
            "type": "t_array(t_struct(Multihash)9013_storage)dyn_storage"
          }
        ],
        "numberOfBytes": "224"
      },
      "t_struct(Config)9060_storage": {
        "encoding": "inplace",
        "label": "struct SolverLib.Config",
        "members": [
          {
            "astId": 9044,
            "contract": "contracts/WriterSolverV1.sol:WriterSolverV1",
            "label": "implementation",
            "offset": 0,
            "slot": "0",
            "type": "t_contract(Solver)8870"
          },
          {
            "astId": 9046,
            "contract": "contracts/WriterSolverV1.sol:WriterSolverV1",
            "label": "keeper",
            "offset": 0,
            "slot": "1",
            "type": "t_address"
          },
          {
            "astId": 9048,
            "contract": "contracts/WriterSolverV1.sol:WriterSolverV1",
            "label": "arbitrator",
            "offset": 0,
            "slot": "2",
            "type": "t_address"
          },
          {
            "astId": 9050,
            "contract": "contracts/WriterSolverV1.sol:WriterSolverV1",
            "label": "timelockSeconds",
            "offset": 0,
            "slot": "3",
            "type": "t_uint256"
          },
          {
            "astId": 9052,
            "contract": "contracts/WriterSolverV1.sol:WriterSolverV1",
            "label": "data",
            "offset": 0,
            "slot": "4",
            "type": "t_bytes_storage"
          },
          {
            "astId": 9056,
            "contract": "contracts/WriterSolverV1.sol:WriterSolverV1",
            "label": "ingests",
            "offset": 0,
            "slot": "5",
            "type": "t_array(t_struct(Ingest)9025_storage)dyn_storage"
          },
          {
            "astId": 9059,
            "contract": "contracts/WriterSolverV1.sol:WriterSolverV1",
            "label": "conditionBase",
            "offset": 0,
            "slot": "6",
            "type": "t_struct(ConditionBase)9105_storage"
          }
        ],
        "numberOfBytes": "416"
      },
      "t_struct(Datas)9070_storage": {
        "encoding": "inplace",
        "label": "struct SolverLib.Datas",
        "members": [
          {
            "astId": 9065,
            "contract": "contracts/WriterSolverV1.sol:WriterSolverV1",
            "label": "slots",
            "offset": 0,
            "slot": "0",
            "type": "t_mapping(t_bytes32,t_array(t_bytes_storage)dyn_storage)"
          },
          {
            "astId": 9069,
            "contract": "contracts/WriterSolverV1.sol:WriterSolverV1",
            "label": "slotIngestIdx",
            "offset": 0,
            "slot": "1",
            "type": "t_mapping(t_bytes32,t_uint256)"
          }
        ],
        "numberOfBytes": "64"
      },
      "t_struct(Ingest)9025_storage": {
        "encoding": "inplace",
        "label": "struct SolverLib.Ingest",
        "members": [
          {
            "astId": 9015,
            "contract": "contracts/WriterSolverV1.sol:WriterSolverV1",
            "label": "executions",
            "offset": 0,
            "slot": "0",
            "type": "t_uint256"
          },
          {
            "astId": 9018,
            "contract": "contracts/WriterSolverV1.sol:WriterSolverV1",
            "label": "ingestType",
            "offset": 0,
            "slot": "1",
            "type": "t_enum(IngestType)8999"
          },
          {
            "astId": 9020,
            "contract": "contracts/WriterSolverV1.sol:WriterSolverV1",
            "label": "slot",
            "offset": 0,
            "slot": "2",
            "type": "t_bytes32"
          },
          {
            "astId": 9022,
            "contract": "contracts/WriterSolverV1.sol:WriterSolverV1",
            "label": "solverIndex",
            "offset": 0,
            "slot": "3",
            "type": "t_uint256"
          },
          {
            "astId": 9024,
            "contract": "contracts/WriterSolverV1.sol:WriterSolverV1",
            "label": "data",
            "offset": 0,
            "slot": "4",
            "type": "t_bytes_storage"
          }
        ],
        "numberOfBytes": "160"
      },
      "t_struct(Multihash)9013_storage": {
        "encoding": "inplace",
        "label": "struct SolverLib.Multihash",
        "members": [
          {
            "astId": 9008,
            "contract": "contracts/WriterSolverV1.sol:WriterSolverV1",
            "label": "digest",
            "offset": 0,
            "slot": "0",
            "type": "t_bytes32"
          },
          {
            "astId": 9010,
            "contract": "contracts/WriterSolverV1.sol:WriterSolverV1",
            "label": "hashFunction",
            "offset": 0,
            "slot": "1",
            "type": "t_uint8"
          },
          {
            "astId": 9012,
            "contract": "contracts/WriterSolverV1.sol:WriterSolverV1",
            "label": "size",
            "offset": 1,
            "slot": "1",
            "type": "t_uint8"
          }
        ],
        "numberOfBytes": "64"
      },
      "t_uint256": {
        "encoding": "inplace",
        "label": "uint256",
        "numberOfBytes": "32"
      },
      "t_uint8": {
        "encoding": "inplace",
        "label": "uint8",
        "numberOfBytes": "1"
      }
    }
  }
}