{
  "_format": "hh-sol-artifact-1",
  "contractName": "ProposalsHub",
  "sourceName": "contracts/ProposalsHub.sol",
  "abi": [
    {
      "anonymous": false,
      "inputs": [
        {
          "indexed": false,
          "internalType": "bytes32",
          "name": "id",
          "type": "bytes32"
        }
      ],
      "name": "CreateProposal",
      "type": "event"
    },
    {
      "inputs": [
        {
          "internalType": "bytes32",
          "name": "_proposalId",
          "type": "bytes32"
        },
        {
          "internalType": "address",
          "name": "_solver",
          "type": "address"
        }
      ],
      "name": "approveERC20Transfer",
      "outputs": [],
      "stateMutability": "nonpayable",
      "type": "function"
    },
    {
      "inputs": [
        {
          "internalType": "contract IERC20",
          "name": "_collateralToken",
          "type": "address"
        },
        {
          "internalType": "address",
          "name": "_solutionsHub",
          "type": "address"
        },
        {
          "internalType": "uint256",
          "name": "_fundingGoal",
          "type": "uint256"
        },
        {
          "internalType": "bytes32",
          "name": "_solutionId",
          "type": "bytes32"
        }
      ],
      "name": "createProposal",
      "outputs": [],
      "stateMutability": "nonpayable",
      "type": "function"
    },
    {
      "inputs": [
        {
          "internalType": "bytes32",
          "name": "_proposalId",
          "type": "bytes32"
        },
        {
          "internalType": "contract IERC20",
          "name": "_token",
          "type": "address"
        },
        {
          "internalType": "uint256",
          "name": "_amount",
          "type": "uint256"
        }
      ],
      "name": "defundProposal",
      "outputs": [],
      "stateMutability": "nonpayable",
      "type": "function"
    },
    {
      "inputs": [
        {
          "internalType": "bytes32",
          "name": "_proposalId",
          "type": "bytes32"
        }
      ],
      "name": "executeProposal",
      "outputs": [],
      "stateMutability": "nonpayable",
      "type": "function"
    },
    {
      "inputs": [
        {
          "internalType": "bytes32",
          "name": "_proposalId",
          "type": "bytes32"
        },
        {
          "internalType": "contract IERC20",
          "name": "_token",
          "type": "address"
        },
        {
          "internalType": "uint256",
          "name": "_amount",
          "type": "uint256"
        }
      ],
      "name": "fundProposal",
      "outputs": [],
      "stateMutability": "nonpayable",
      "type": "function"
    },
    {
      "inputs": [
        {
          "internalType": "bytes32",
          "name": "",
          "type": "bytes32"
        },
        {
          "internalType": "address",
          "name": "",
          "type": "address"
        }
      ],
      "name": "funderAmountMap",
      "outputs": [
        {
          "internalType": "uint256",
          "name": "",
          "type": "uint256"
        }
      ],
      "stateMutability": "view",
      "type": "function"
    },
    {
      "inputs": [
        {
          "internalType": "bytes32",
          "name": "_id",
          "type": "bytes32"
        }
      ],
      "name": "getProposal",
      "outputs": [
        {
          "components": [
            {
              "internalType": "bool",
              "name": "isExecuted",
              "type": "bool"
            },
            {
              "internalType": "contract IERC20",
              "name": "collateralToken",
              "type": "address"
            },
            {
              "internalType": "address",
              "name": "proposer",
              "type": "address"
            },
            {
              "internalType": "address",
              "name": "solutionsHub",
              "type": "address"
            },
            {
              "internalType": "address",
              "name": "primeSolver",
              "type": "address"
            },
            {
              "internalType": "bytes32",
              "name": "id",
              "type": "bytes32"
            },
            {
              "internalType": "bytes32",
              "name": "solutionId",
              "type": "bytes32"
            },
            {
              "internalType": "uint256",
              "name": "funding",
              "type": "uint256"
            },
            {
              "internalType": "uint256",
              "name": "fundingGoal",
              "type": "uint256"
            }
          ],
          "internalType": "struct ProposalsHub.Proposal",
          "name": "proposal",
          "type": "tuple"
        }
      ],
      "stateMutability": "view",
      "type": "function"
    },
    {
      "inputs": [
        {
          "internalType": "bytes32",
          "name": "_id",
          "type": "bytes32"
        }
      ],
      "name": "isProposal",
      "outputs": [
        {
          "internalType": "bool",
          "name": "",
          "type": "bool"
        }
      ],
      "stateMutability": "view",
      "type": "function"
    },
    {
      "inputs": [
        {
          "internalType": "address",
          "name": "operator",
          "type": "address"
        },
        {
          "internalType": "address",
          "name": "from",
          "type": "address"
        },
        {
          "internalType": "uint256[]",
          "name": "ids",
          "type": "uint256[]"
        },
        {
          "internalType": "uint256[]",
          "name": "values",
          "type": "uint256[]"
        },
        {
          "internalType": "bytes",
          "name": "data",
          "type": "bytes"
        }
      ],
      "name": "onERC1155BatchReceived",
      "outputs": [
        {
          "internalType": "bytes4",
          "name": "",
          "type": "bytes4"
        }
      ],
      "stateMutability": "nonpayable",
      "type": "function"
    },
    {
      "inputs": [
        {
          "internalType": "address",
          "name": "operator",
          "type": "address"
        },
        {
          "internalType": "address",
          "name": "from",
          "type": "address"
        },
        {
          "internalType": "uint256",
          "name": "id",
          "type": "uint256"
        },
        {
          "internalType": "uint256",
          "name": "value",
          "type": "uint256"
        },
        {
          "internalType": "bytes",
          "name": "data",
          "type": "bytes"
        }
      ],
      "name": "onERC1155Received",
      "outputs": [
        {
          "internalType": "bytes4",
          "name": "",
          "type": "bytes4"
        }
      ],
      "stateMutability": "nonpayable",
      "type": "function"
    },
    {
      "inputs": [
        {
          "internalType": "bytes32",
          "name": "",
          "type": "bytes32"
        }
      ],
      "name": "proposals",
      "outputs": [
        {
          "internalType": "bool",
          "name": "isExecuted",
          "type": "bool"
        },
        {
          "internalType": "contract IERC20",
          "name": "collateralToken",
          "type": "address"
        },
        {
          "internalType": "address",
          "name": "proposer",
          "type": "address"
        },
        {
          "internalType": "address",
          "name": "solutionsHub",
          "type": "address"
        },
        {
          "internalType": "address",
          "name": "primeSolver",
          "type": "address"
        },
        {
          "internalType": "bytes32",
          "name": "id",
          "type": "bytes32"
        },
        {
          "internalType": "bytes32",
          "name": "solutionId",
          "type": "bytes32"
        },
        {
          "internalType": "uint256",
          "name": "funding",
          "type": "uint256"
        },
        {
          "internalType": "uint256",
          "name": "fundingGoal",
          "type": "uint256"
        }
      ],
      "stateMutability": "view",
      "type": "function"
    },
    {
      "inputs": [
        {
          "internalType": "bytes32",
          "name": "_proposalId",
          "type": "bytes32"
        },
        {
          "internalType": "uint256",
          "name": "_tokenId",
          "type": "uint256"
        }
      ],
      "name": "reclaimTokens",
      "outputs": [],
      "stateMutability": "nonpayable",
      "type": "function"
    },
    {
      "inputs": [
        {
          "internalType": "bytes32",
          "name": "",
          "type": "bytes32"
        },
        {
          "internalType": "uint256",
          "name": "",
          "type": "uint256"
        }
      ],
      "name": "reclaimableTokens",
      "outputs": [
        {
          "internalType": "uint256",
          "name": "",
          "type": "uint256"
        }
      ],
      "stateMutability": "view",
      "type": "function"
    },
    {
      "inputs": [
        {
          "internalType": "uint256",
          "name": "",
          "type": "uint256"
        },
        {
          "internalType": "address",
          "name": "",
          "type": "address"
        }
      ],
      "name": "reclaimedTokens",
      "outputs": [
        {
          "internalType": "uint256",
          "name": "",
          "type": "uint256"
        }
      ],
      "stateMutability": "view",
      "type": "function"
    },
    {
      "inputs": [
        {
          "internalType": "bytes4",
          "name": "interfaceId",
          "type": "bytes4"
        }
      ],
      "name": "supportsInterface",
      "outputs": [
        {
          "internalType": "bool",
          "name": "",
          "type": "bool"
        }
      ],
      "stateMutability": "view",
      "type": "function"
    }
  ],
  "bytecode": "0x608060405234801561001057600080fd5b50611cea806100206000396000f3fe608060405234801561001057600080fd5b50600436106100f55760003560e01c806383460ba811610097578063c12639f711610066578063c12639f71461021f578063c13784f714610232578063d3f79a0514610245578063f23a6e6114610258576100f5565b806383460ba8146101c6578063980ff6c6146101d9578063b70c764c146101ec578063bc197c81146101ff576100f5565b806333c15c34116100d357806333c15c3414610160578063430694cf1461018057806353ba3f57146101a057806354dd9927146101b3576100f5565b806301ffc9a7146100fa578063116f94d01461012357806332ed5b1214610138575b600080fd5b61010d610108366004611512565b61026b565b60405161011a9190611698565b60405180910390f35b61013661013136600461153a565b6102af565b005b61014b610146366004611473565b610445565b60405161011a999897969594939291906116a3565b61017361016e36600461148b565b6104a0565b60405161011a91906116f6565b61019361018e366004611473565b6104bd565b60405161011a9190611b72565b6101736101ae3660046114f1565b610552565b6101366101c13660046114ba565b61056f565b6101736101d436600461148b565b61075f565b6101366101e7366004611473565b61077c565b6101366101fa3660046114f1565b610883565b61021261020d36600461131e565b610b29565b60405161011a919061170d565b61013661022d3660046114ba565b610b56565b61013661024036600461148b565b610d62565b61010d610253366004611473565b610fe5565b6102126102663660046113d9565b610ffc565b60006001600160e01b031982167f4e2312e00000000000000000000000000000000000000000000000000000000014806102a957506102a9826110b5565b92915050565b6000805490806102be83611c4c565b91905055506000338286856000546040516020016102e09594939291906115d7565b60408051601f19818403018152828252805160209182012060008181526001928390529290922080546001600160a01b03808b16610100027fffffffffffffffffffffff0000000000000000000000000000000000000000ff90921691909117825591810180547fffffffffffffffffffffffff00000000000000000000000000000000000000009081163317909155600282018054938a169390911683179055600480820184905560058201879055600782018890557f73c587f50000000000000000000000000000000000000000000000000000000085529294509290916373c587f5916103d49186918891016116ff565b600060405180830381600087803b1580156103ee57600080fd5b505af1158015610402573d6000803e3d6000fd5b505050507f2d231481d8c1af3958a30a257e93e0df6b089bc07ebedc0a86e7355d1aaf13388260405161043591906116f6565b60405180910390a1505050505050565b60016020819052600091825260409091208054918101546002820154600383015460048401546005850154600686015460079096015460ff8816976001600160a01b0361010090910481169796811696958116959416939089565b600460209081526000928352604080842090915290825290205481565b6104c5611226565b50600090815260016020818152604092839020835161012081018552815460ff8116151582526001600160a01b03610100918290048116948301949094529382015483169481019490945260028101548216606085015260038101549091166080840152600481015460a0840152600581015460c0840152600681015460e0840152600701549082015290565b600360209081526000928352604080842090915290825290205481565b6000838152600160205260409020600401546105a65760405162461bcd60e51b815260040161059d906119b6565b60405180910390fd5b60008381526001602052604090205460ff16156105d55760405162461bcd60e51b815260040161059d90611b15565b6000838152600160205260409020546001600160a01b0383811661010090920416146106135760405162461bcd60e51b815260040161059d90611ab8565b600081116106335760405162461bcd60e51b815260040161059d9061197f565b600083815260026020908152604080832033845290915290205481111561066c5760405162461bcd60e51b815260040161059d9061188e565b6000838152600160205260408120600601805483929061068d908490611c35565b90915550506000838152600260209081526040808320338452909152812080548392906106bb908490611c35565b90915550506040517fa9059cbb0000000000000000000000000000000000000000000000000000000081526001600160a01b0383169063a9059cbb90610707903390859060040161167f565b602060405180830381600087803b15801561072157600080fd5b505af1158015610735573d6000803e3d6000fd5b505050506040513d601f19601f820116820180604052508101906107599190611453565b50505050565b600260209081526000928352604080842090915290825290205481565b60008181526001602052604090206007810154600690910154146107b25760405162461bcd60e51b815260040161059d90611948565b60008181526001602052604090205460ff16156107e15760405162461bcd60e51b815260040161059d90611b15565b600081815260016020819052604091829020805460ff19169091178155600281015460059091015491517f60bbb9280000000000000000000000000000000000000000000000000000000081526001600160a01b03909116916360bbb9289161084e9185916004016116ff565b600060405180830381600087803b15801561086857600080fd5b505af115801561087c573d6000803e3d6000fd5b5050505050565b60008281526002602090815260408083203384529091529020546108b95760405162461bcd60e51b815260040161059d90611a24565b600082815260026020908152604080832033845282528083205485845260019092528220600601546108eb9190611c15565b6000838152600460209081526040808320338452825280832054878452600383528184208785529092528220549293509091610928908490611c15565b6109329190611c35565b90506109736040518060400160405280600e81526020017f436c61696d20616d6f756e743a20000000000000000000000000000000000000815250826110e7565b600081116109935760405162461bcd60e51b815260040161059d90611a81565b60008481526003602090815260408083208684529091529020548111156109cc5760405162461bcd60e51b815260040161059d9061178e565b6000838152600460209081526040808320338452909152812080548392906109f5908490611bfd565b909155505060008481526001602090815260408083206002015481517f5bd9e29900000000000000000000000000000000000000000000000000000000815291516001600160a01b0390911692635bd9e2999260048082019391829003018186803b158015610a6357600080fd5b505afa158015610a77573d6000803e3d6000fd5b505050506040513d601f19601f82011682018060405250810190610a9b91906112fb565b9050806001600160a01b031663f242432a303387868a604051602001610ac191906116f6565b6040516020818303038152906040526040518663ffffffff1660e01b8152600401610af095949392919061163c565b600060405180830381600087803b158015610b0a57600080fd5b505af1158015610b1e573d6000803e3d6000fd5b505050505050505050565b7fbc197c810000000000000000000000000000000000000000000000000000000098975050505050505050565b600083815260016020526040902060040154610b845760405162461bcd60e51b815260040161059d906119b6565b60008381526001602052604090205460ff1615610bb35760405162461bcd60e51b815260040161059d90611b15565b6000838152600160205260409020546001600160a01b038381166101009092041614610bf15760405162461bcd60e51b815260040161059d90611ab8565b60008111610c115760405162461bcd60e51b815260040161059d9061197f565b60008381526001602052604090206007810154600690910154610c349083611bfd565b1115610c525760405162461bcd60e51b815260040161059d906119ed565b60008381526001602052604081206006018054839290610c73908490611bfd565b9091555050600083815260026020908152604080832033845290915281208054839290610ca1908490611bfd565b90915550506040517f23b872dd0000000000000000000000000000000000000000000000000000000081526001600160a01b038316906323b872dd90610cef90339030908690600401611618565b602060405180830381600087803b158015610d0957600080fd5b505af1158015610d1d573d6000803e3d6000fd5b505050506040513d601f19601f82011682018060405250810190610d419190611453565b610d5d5760405162461bcd60e51b815260040161059d906118eb565b505050565b6000828152600160205260409020600201546001600160a01b03163314610d9b5760405162461bcd60e51b815260040161059d906117fa565b6001600160a01b038116610dc15760405162461bcd60e51b815260040161059d90611757565b600082815260016020526040808220600281015460059091015491517f191481a00000000000000000000000000000000000000000000000000000000081526001600160a01b039182169391851692849263191481a092610e269291906004016116ff565b60206040518083038186803b158015610e3e57600080fd5b505afa158015610e52573d6000803e3d6000fd5b505050506040513d601f19601f82011682018060405250810190610e7691906112fb565b6001600160a01b031614610e9c5760405162461bcd60e51b815260040161059d906117c3565b60008381526001602052604080822054905163095ea7b360e01b81526101009091046001600160a01b031691829163095ea7b391610edf9187919060040161167f565b602060405180830381600087803b158015610ef957600080fd5b505af1158015610f0d573d6000803e3d6000fd5b505050506040513d601f19601f82011682018060405250810190610f319190611453565b506000848152600160205260409081902060060154905163095ea7b360e01b81526001600160a01b0383169163095ea7b391610f7191879160040161167f565b602060405180830381600087803b158015610f8b57600080fd5b505af1158015610f9f573d6000803e3d6000fd5b505050506040513d601f19601f82011682018060405250810190610fc39190611453565b50610759604051806060016040528060228152602001611c936022913961115e565b600090815260016020526040902060040154151590565b60008061100b83850185611473565b600081815260016020526040902060040154909150811461103e5760405162461bcd60e51b815260040161059d90611831565b61107d6040518060400160405280601981526020017f5265636569766564204552433131353520546f6b656e733a2000000000000000815250876110e7565b6110888187876111d2565b507ff23a6e6100000000000000000000000000000000000000000000000000000000979650505050505050565b6001600160e01b031981167f01ffc9a70000000000000000000000000000000000000000000000000000000014919050565b61115a82826040516024016110fd929190611735565b60408051601f198184030181529190526020810180517bffffffffffffffffffffffffffffffffffffffffffffffffffffffff167f9710a9d000000000000000000000000000000000000000000000000000000000179052611205565b5050565b6111cf816040516024016111729190611722565b60408051601f198184030181529190526020810180517bffffffffffffffffffffffffffffffffffffffffffffffffffffffff167f41304fac00000000000000000000000000000000000000000000000000000000179052611205565b50565b6000838152600360209081526040808320858452909152812080548392906111fb908490611bfd565b9091555050505050565b80516a636f6e736f6c652e6c6f67602083016000808483855afa5050505050565b6040805161012081018252600080825260208201819052918101829052606081018290526080810182905260a0810182905260c0810182905260e0810182905261010081019190915290565b60008083601f840112611283578182fd5b50813567ffffffffffffffff81111561129a578182fd5b60208301915083602080830285010111156112b457600080fd5b9250929050565b60008083601f8401126112cc578182fd5b50813567ffffffffffffffff8111156112e3578182fd5b6020830191508360208285010111156112b457600080fd5b60006020828403121561130c578081fd5b815161131781611c7d565b9392505050565b60008060008060008060008060a0898b031215611339578384fd5b883561134481611c7d565b9750602089013561135481611c7d565b9650604089013567ffffffffffffffff80821115611370578586fd5b61137c8c838d01611272565b909850965060608b0135915080821115611394578586fd5b6113a08c838d01611272565b909650945060808b01359150808211156113b8578384fd5b506113c58b828c016112bb565b999c989b5096995094979396929594505050565b60008060008060008060a087890312156113f1578182fd5b86356113fc81611c7d565b9550602087013561140c81611c7d565b94506040870135935060608701359250608087013567ffffffffffffffff811115611435578283fd5b61144189828a016112bb565b979a9699509497509295939492505050565b600060208284031215611464578081fd5b81518015158114611317578182fd5b600060208284031215611484578081fd5b5035919050565b6000806040838503121561149d578182fd5b8235915060208301356114af81611c7d565b809150509250929050565b6000806000606084860312156114ce578283fd5b8335925060208401356114e081611c7d565b929592945050506040919091013590565b60008060408385031215611503578182fd5b50508035926020909101359150565b600060208284031215611523578081fd5b81356001600160e01b031981168114611317578182fd5b6000806000806080858703121561154f578384fd5b843561155a81611c7d565b9350602085013561156a81611c7d565b93969395505050506040820135916060013590565b6001600160a01b03169052565b60008151808452815b818110156115b157602081850181015186830182015201611595565b818111156115c25782602083870101525b50601f01601f19169290920160200192915050565b6bffffffffffffffffffffffff19606096871b8116825260148201959095529290941b90921660348201526048810191909152606881019190915260880190565b6001600160a01b039384168152919092166020820152604081019190915260600190565b60006001600160a01b03808816835280871660208401525084604083015283606083015260a0608083015261167460a083018461158c565b979650505050505050565b6001600160a01b03929092168252602082015260400190565b901515815260200190565b98151589526001600160a01b0397881660208a01529587166040890152938616606088015291909416608086015260a085019390935260c084019290925260e08301919091526101008201526101200190565b90815260200190565b918252602082015260400190565b6001600160e01b031991909116815260200190565b600060208252611317602083018461158c565b600060408252611748604083018561158c565b90508260208301529392505050565b6020808252600f908201527f496e76616c696420616464726573730000000000000000000000000000000000604082015260600190565b6020808252818101527f50726f706f73616c734875623a3a436c61696d20697320746f6f206c61726765604082015260600190565b60208082526018908201527f496e636f727265637420736f6c76657220616464726573730000000000000000604082015260600190565b6020808252601b908201527f6d73672e73656e646572206e6f7420736f6c7574696f6e734875620000000000604082015260600190565b6020808252602a908201527f50726f706f73616c734875623a3a44617461206973206e6f742076616c69642060408201527f70726f706f73616c496400000000000000000000000000000000000000000000606082015260800190565b60208082526025908201527f436f6d6d69747465642066756e6473206973206c6f776572207468616e20616d60408201527f6f756e742e000000000000000000000000000000000000000000000000000000606082015260800190565b60208082526022908201527f436f756c64206e6f74207472616e736665722066726f6d206d73672e73656e6460408201527f6572000000000000000000000000000000000000000000000000000000000000606082015260800190565b60208082526019908201527f50726f706f73616c206e6f742066756c6c792066756e64656400000000000000604082015260600190565b60208082526015908201527f416d6f756e742063616e6e6f74206265207a65726f0000000000000000000000604082015260600190565b60208082526017908201527f50726f706f73616c20646f6573206e6f74206578697374000000000000000000604082015260600190565b60208082526019908201527f43616e27742066756e64206d6f7265207468616e20676f616c00000000000000604082015260600190565b60208082526025908201527f50726f706f73616c734875623a3a6d73672e73656e64657220686173206e6f2060408201527f636c61696d000000000000000000000000000000000000000000000000000000606082015260800190565b60208082526018908201527f50726f706f73616c734875623a3a436c61696d20697320300000000000000000604082015260600190565b60208082526031908201527f50726f706f73616c20646f6573206e6f7420696e636c7564652074686973207460408201527f6f6b656e20746f2062652066756e646564000000000000000000000000000000606082015260800190565b60208082526027908201527f50726f706f73616c734875623a3a50726f706f73616c20616c7265616479206560408201527f7865637574656400000000000000000000000000000000000000000000000000606082015260800190565b6000610120820190508251151582526001600160a01b0360208401511660208301526040830151611ba6604084018261157f565b506060830151611bb9606084018261157f565b506080830151611bcc608084018261157f565b5060a083015160a083015260c083015160c083015260e083015160e083015261010080840151818401525092915050565b60008219821115611c1057611c10611c67565b500190565b600082611c3057634e487b7160e01b81526012600452602481fd5b500490565b600082821015611c4757611c47611c67565b500390565b6000600019821415611c6057611c60611c67565b5060010190565b634e487b7160e01b600052601160045260246000fd5b6001600160a01b03811681146111cf57600080fdfe417070726f7665642066756e64696e672066726f6d2070726f706f73616c73487562a2646970667358221220b94265daa2d3e5ea7e6db2e7039be97c02e01c107fc5f64b9707559fe1872a8c64736f6c63430008000033",
  "linkReferences": {},
  "deployedLinkReferences": {}
}