{
  "_format": "hh-sol-artifact-1",
  "contractName": "ProposalsHub",
  "sourceName": "contracts/ProposalsHub.sol",
  "abi": [
    {
      "anonymous": false,
      "inputs": [
        {
          "indexed": false,
          "internalType": "bytes32",
          "name": "id",
          "type": "bytes32"
        }
      ],
      "name": "CreateProposal",
      "type": "event"
    },
    {
      "inputs": [
        {
          "internalType": "bytes32",
          "name": "_proposalId",
          "type": "bytes32"
        },
        {
          "internalType": "address",
          "name": "_solver",
          "type": "address"
        }
      ],
      "name": "approveERC20Transfer",
      "outputs": [],
      "stateMutability": "nonpayable",
      "type": "function"
    },
    {
      "inputs": [
        {
          "internalType": "contract IERC20",
          "name": "_collateralToken",
          "type": "address"
        },
        {
          "internalType": "address",
          "name": "_solutionsHub",
          "type": "address"
        },
        {
          "internalType": "uint256",
          "name": "_fundingGoal",
          "type": "uint256"
        },
        {
          "internalType": "bytes32",
          "name": "_solutionId",
          "type": "bytes32"
        }
      ],
      "name": "createProposal",
      "outputs": [],
      "stateMutability": "nonpayable",
      "type": "function"
    },
    {
      "inputs": [
        {
          "internalType": "bytes32",
          "name": "_proposalId",
          "type": "bytes32"
        },
        {
          "internalType": "contract IERC20",
          "name": "_token",
          "type": "address"
        },
        {
          "internalType": "uint256",
          "name": "_amount",
          "type": "uint256"
        }
      ],
      "name": "defundProposal",
      "outputs": [],
      "stateMutability": "nonpayable",
      "type": "function"
    },
    {
      "inputs": [
        {
          "internalType": "bytes32",
          "name": "_proposalId",
          "type": "bytes32"
        }
      ],
      "name": "executeProposal",
      "outputs": [],
      "stateMutability": "nonpayable",
      "type": "function"
    },
    {
      "inputs": [
        {
          "internalType": "bytes32",
          "name": "_proposalId",
          "type": "bytes32"
        },
        {
          "internalType": "contract IERC20",
          "name": "_token",
          "type": "address"
        },
        {
          "internalType": "uint256",
          "name": "_amount",
          "type": "uint256"
        }
      ],
      "name": "fundProposal",
      "outputs": [],
      "stateMutability": "nonpayable",
      "type": "function"
    },
    {
      "inputs": [
        {
          "internalType": "bytes32",
          "name": "",
          "type": "bytes32"
        },
        {
          "internalType": "address",
          "name": "",
          "type": "address"
        }
      ],
      "name": "funderAmountMap",
      "outputs": [
        {
          "internalType": "uint256",
          "name": "",
          "type": "uint256"
        }
      ],
      "stateMutability": "view",
      "type": "function"
    },
    {
      "inputs": [
        {
          "internalType": "bytes32",
          "name": "_id",
          "type": "bytes32"
        }
      ],
      "name": "getProposal",
      "outputs": [
        {
          "components": [
            {
              "internalType": "bool",
              "name": "isExecuted",
              "type": "bool"
            },
            {
              "internalType": "contract IERC20",
              "name": "collateralToken",
              "type": "address"
            },
            {
              "internalType": "address",
              "name": "proposer",
              "type": "address"
            },
            {
              "internalType": "address",
              "name": "solutionsHub",
              "type": "address"
            },
            {
              "internalType": "address",
              "name": "primeSolver",
              "type": "address"
            },
            {
              "internalType": "bytes32",
              "name": "id",
              "type": "bytes32"
            },
            {
              "internalType": "bytes32",
              "name": "solutionId",
              "type": "bytes32"
            },
            {
              "internalType": "uint256",
              "name": "funding",
              "type": "uint256"
            },
            {
              "internalType": "uint256",
              "name": "fundingGoal",
              "type": "uint256"
            }
          ],
          "internalType": "struct ProposalsHub.Proposal",
          "name": "proposal",
          "type": "tuple"
        }
      ],
      "stateMutability": "view",
      "type": "function"
    },
    {
      "inputs": [
        {
          "internalType": "bytes32",
          "name": "_id",
          "type": "bytes32"
        }
      ],
      "name": "isProposal",
      "outputs": [
        {
          "internalType": "bool",
          "name": "",
          "type": "bool"
        }
      ],
      "stateMutability": "view",
      "type": "function"
    },
    {
      "inputs": [
        {
          "internalType": "address",
          "name": "operator",
          "type": "address"
        },
        {
          "internalType": "address",
          "name": "from",
          "type": "address"
        },
        {
          "internalType": "uint256[]",
          "name": "ids",
          "type": "uint256[]"
        },
        {
          "internalType": "uint256[]",
          "name": "values",
          "type": "uint256[]"
        },
        {
          "internalType": "bytes",
          "name": "data",
          "type": "bytes"
        }
      ],
      "name": "onERC1155BatchReceived",
      "outputs": [
        {
          "internalType": "bytes4",
          "name": "",
          "type": "bytes4"
        }
      ],
      "stateMutability": "nonpayable",
      "type": "function"
    },
    {
      "inputs": [
        {
          "internalType": "address",
          "name": "operator",
          "type": "address"
        },
        {
          "internalType": "address",
          "name": "from",
          "type": "address"
        },
        {
          "internalType": "uint256",
          "name": "id",
          "type": "uint256"
        },
        {
          "internalType": "uint256",
          "name": "value",
          "type": "uint256"
        },
        {
          "internalType": "bytes",
          "name": "data",
          "type": "bytes"
        }
      ],
      "name": "onERC1155Received",
      "outputs": [
        {
          "internalType": "bytes4",
          "name": "",
          "type": "bytes4"
        }
      ],
      "stateMutability": "nonpayable",
      "type": "function"
    },
    {
      "inputs": [
        {
          "internalType": "bytes32",
          "name": "",
          "type": "bytes32"
        }
      ],
      "name": "proposals",
      "outputs": [
        {
          "internalType": "bool",
          "name": "isExecuted",
          "type": "bool"
        },
        {
          "internalType": "contract IERC20",
          "name": "collateralToken",
          "type": "address"
        },
        {
          "internalType": "address",
          "name": "proposer",
          "type": "address"
        },
        {
          "internalType": "address",
          "name": "solutionsHub",
          "type": "address"
        },
        {
          "internalType": "address",
          "name": "primeSolver",
          "type": "address"
        },
        {
          "internalType": "bytes32",
          "name": "id",
          "type": "bytes32"
        },
        {
          "internalType": "bytes32",
          "name": "solutionId",
          "type": "bytes32"
        },
        {
          "internalType": "uint256",
          "name": "funding",
          "type": "uint256"
        },
        {
          "internalType": "uint256",
          "name": "fundingGoal",
          "type": "uint256"
        }
      ],
      "stateMutability": "view",
      "type": "function"
    },
    {
      "inputs": [
        {
          "internalType": "bytes32",
          "name": "_proposalId",
          "type": "bytes32"
        },
        {
          "internalType": "uint256",
          "name": "_tokenId",
          "type": "uint256"
        }
      ],
      "name": "reclaimTokens",
      "outputs": [],
      "stateMutability": "nonpayable",
      "type": "function"
    },
    {
      "inputs": [
        {
          "internalType": "bytes32",
          "name": "",
          "type": "bytes32"
        },
        {
          "internalType": "uint256",
          "name": "",
          "type": "uint256"
        }
      ],
      "name": "reclaimableTokens",
      "outputs": [
        {
          "internalType": "uint256",
          "name": "",
          "type": "uint256"
        }
      ],
      "stateMutability": "view",
      "type": "function"
    },
    {
      "inputs": [
        {
          "internalType": "uint256",
          "name": "",
          "type": "uint256"
        },
        {
          "internalType": "address",
          "name": "",
          "type": "address"
        }
      ],
      "name": "reclaimedTokens",
      "outputs": [
        {
          "internalType": "uint256",
          "name": "",
          "type": "uint256"
        }
      ],
      "stateMutability": "view",
      "type": "function"
    },
    {
      "inputs": [
        {
          "internalType": "bytes4",
          "name": "interfaceId",
          "type": "bytes4"
        }
      ],
      "name": "supportsInterface",
      "outputs": [
        {
          "internalType": "bool",
          "name": "",
          "type": "bool"
        }
      ],
      "stateMutability": "view",
      "type": "function"
    }
  ],
  "bytecode": "0x608060405234801561001057600080fd5b50611b65806100206000396000f3fe608060405234801561001057600080fd5b50600436106100f55760003560e01c806383460ba811610097578063c12639f711610066578063c12639f71461021f578063c13784f714610232578063d3f79a0514610245578063f23a6e6114610258576100f5565b806383460ba8146101c6578063980ff6c6146101d9578063b70c764c146101ec578063bc197c81146101ff576100f5565b806333c15c34116100d357806333c15c3414610160578063430694cf1461018057806353ba3f57146101a057806354dd9927146101b3576100f5565b806301ffc9a7146100fa578063116f94d01461012357806332ed5b1214610138575b600080fd5b61010d610108366004611394565b61026b565b60405161011a919061150a565b60405180910390f35b6101366101313660046113bc565b6102af565b005b61014b6101463660046112f5565b610445565b60405161011a99989796959493929190611515565b61017361016e36600461130d565b6104a0565b60405161011a9190611568565b61019361018e3660046112f5565b6104bd565b60405161011a9190611a0c565b6101736101ae366004611373565b610552565b6101366101c136600461133c565b61056f565b6101736101d436600461130d565b61075f565b6101366101e73660046112f5565b61077c565b6101366101fa366004611373565b610883565b61021261020d3660046111a0565b610aea565b60405161011a919061157f565b61013661022d36600461133c565b610b17565b61013661024036600461130d565b610d23565b61010d6102533660046112f5565b610f84565b61021261026636600461125b565b610f9b565b60006001600160e01b031982167f4e2312e00000000000000000000000000000000000000000000000000000000014806102a957506102a982611043565b92915050565b6000805490806102be83611ae6565b91905055506000338286856000546040516020016102e095949392919061140e565b60408051601f19818403018152828252805160209182012060008181526001928390529290922080546001600160a01b03808b16610100027fffffffffffffffffffffff0000000000000000000000000000000000000000ff90921691909117825591810180547fffffffffffffffffffffffff00000000000000000000000000000000000000009081163317909155600282018054938a169390911683179055600480820184905560058201879055600782018890557f73c587f50000000000000000000000000000000000000000000000000000000085529294509290916373c587f5916103d4918691889101611571565b600060405180830381600087803b1580156103ee57600080fd5b505af1158015610402573d6000803e3d6000fd5b505050507f2d231481d8c1af3958a30a257e93e0df6b089bc07ebedc0a86e7355d1aaf1338826040516104359190611568565b60405180910390a1505050505050565b60016020819052600091825260409091208054918101546002820154600383015460048401546005850154600686015460079096015460ff8816976001600160a01b0361010090910481169796811696958116959416939089565b600460209081526000928352604080842090915290825290205481565b6104c56110a8565b50600090815260016020818152604092839020835161012081018552815460ff8116151582526001600160a01b03610100918290048116948301949094529382015483169481019490945260028101548216606085015260038101549091166080840152600481015460a0840152600581015460c0840152600681015460e0840152600701549082015290565b600360209081526000928352604080842090915290825290205481565b6000838152600160205260409020600401546105a65760405162461bcd60e51b815260040161059d906117f3565b60405180910390fd5b60008381526001602052604090205460ff16156105d55760405162461bcd60e51b815260040161059d906119af565b6000838152600160205260409020546001600160a01b0383811661010090920416146106135760405162461bcd60e51b815260040161059d906118f5565b600081116106335760405162461bcd60e51b815260040161059d906117bc565b600083815260026020908152604080832033845290915290205481111561066c5760405162461bcd60e51b815260040161059d906116cb565b6000838152600160205260408120600601805483929061068d908490611acf565b90915550506000838152600260209081526040808320338452909152812080548392906106bb908490611acf565b90915550506040517fa9059cbb0000000000000000000000000000000000000000000000000000000081526001600160a01b0383169063a9059cbb9061070790339085906004016114f1565b602060405180830381600087803b15801561072157600080fd5b505af1158015610735573d6000803e3d6000fd5b505050506040513d601f19601f8201168201806040525081019061075991906112d5565b50505050565b600260209081526000928352604080842090915290825290205481565b60008181526001602052604090206007810154600690910154146107b25760405162461bcd60e51b815260040161059d90611785565b60008181526001602052604090205460ff16156107e15760405162461bcd60e51b815260040161059d906119af565b600081815260016020819052604091829020805460ff19169091178155600281015460059091015491517f60bbb9280000000000000000000000000000000000000000000000000000000081526001600160a01b03909116916360bbb9289161084e918591600401611571565b600060405180830381600087803b15801561086857600080fd5b505af115801561087c573d6000803e3d6000fd5b5050505050565b60008281526002602090815260408083203384529091529020546108b95760405162461bcd60e51b815260040161059d90611861565b600082815260026020908152604080832033845282528083205485845260019092528220600601546108eb9190611aaf565b6000838152600460209081526040808320338452825280832054878452600383528184208785529092528220549293509091610928908490611aaf565b6109329190611acf565b9050600081116109545760405162461bcd60e51b815260040161059d906118be565b600084815260036020908152604080832086845290915290205481111561098d5760405162461bcd60e51b815260040161059d906115cb565b6000838152600460209081526040808320338452909152812080548392906109b6908490611a97565b909155505060008481526001602090815260408083206002015481517f5bd9e29900000000000000000000000000000000000000000000000000000000815291516001600160a01b0390911692635bd9e2999260048082019391829003018186803b158015610a2457600080fd5b505afa158015610a38573d6000803e3d6000fd5b505050506040513d601f19601f82011682018060405250810190610a5c919061117d565b9050806001600160a01b031663f242432a303387868a604051602001610a829190611568565b6040516020818303038152906040526040518663ffffffff1660e01b8152600401610ab1959493929190611473565b600060405180830381600087803b158015610acb57600080fd5b505af1158015610adf573d6000803e3d6000fd5b505050505050505050565b7fbc197c810000000000000000000000000000000000000000000000000000000098975050505050505050565b600083815260016020526040902060040154610b455760405162461bcd60e51b815260040161059d906117f3565b60008381526001602052604090205460ff1615610b745760405162461bcd60e51b815260040161059d906119af565b6000838152600160205260409020546001600160a01b038381166101009092041614610bb25760405162461bcd60e51b815260040161059d906118f5565b60008111610bd25760405162461bcd60e51b815260040161059d906117bc565b60008381526001602052604090206007810154600690910154610bf59083611a97565b1115610c135760405162461bcd60e51b815260040161059d9061182a565b60008381526001602052604081206006018054839290610c34908490611a97565b9091555050600083815260026020908152604080832033845290915281208054839290610c62908490611a97565b90915550506040517f23b872dd0000000000000000000000000000000000000000000000000000000081526001600160a01b038316906323b872dd90610cb09033903090869060040161144f565b602060405180830381600087803b158015610cca57600080fd5b505af1158015610cde573d6000803e3d6000fd5b505050506040513d601f19601f82011682018060405250810190610d0291906112d5565b610d1e5760405162461bcd60e51b815260040161059d90611728565b505050565b6000828152600160205260409020600201546001600160a01b03163314610d5c5760405162461bcd60e51b815260040161059d90611637565b6001600160a01b038116610d825760405162461bcd60e51b815260040161059d90611594565b600082815260016020526040808220600281015460059091015491517f191481a00000000000000000000000000000000000000000000000000000000081526001600160a01b039182169391851692849263191481a092610de7929190600401611571565b60206040518083038186803b158015610dff57600080fd5b505afa158015610e13573d6000803e3d6000fd5b505050506040513d601f19601f82011682018060405250810190610e37919061117d565b6001600160a01b031614610e5d5760405162461bcd60e51b815260040161059d90611600565b60008381526001602052604080822054905163095ea7b360e01b81526101009091046001600160a01b031691829163095ea7b391610ea0918791906004016114f1565b602060405180830381600087803b158015610eba57600080fd5b505af1158015610ece573d6000803e3d6000fd5b505050506040513d601f19601f82011682018060405250810190610ef291906112d5565b506000848152600160205260409081902060060154905163095ea7b360e01b81526001600160a01b0383169163095ea7b391610f329187916004016114f1565b602060405180830381600087803b158015610f4c57600080fd5b505af1158015610f60573d6000803e3d6000fd5b505050506040513d601f19601f8201168201806040525081019061087c91906112d5565b600090815260016020526040902060040154151590565b600080610faa838501856112f5565b6000818152600160205260409020600401549091508114610fdd5760405162461bcd60e51b815260040161059d9061166e565b60008181526001602052604090205460ff1661100b5760405162461bcd60e51b815260040161059d90611952565b611016818787611075565b507ff23a6e6100000000000000000000000000000000000000000000000000000000979650505050505050565b6001600160e01b031981167f01ffc9a70000000000000000000000000000000000000000000000000000000014919050565b60008381526003602090815260408083208584529091528120805483929061109e908490611a97565b9091555050505050565b6040805161012081018252600080825260208201819052918101829052606081018290526080810182905260a0810182905260c0810182905260e0810182905261010081019190915290565b60008083601f840112611105578182fd5b50813567ffffffffffffffff81111561111c578182fd5b602083019150836020808302850101111561113657600080fd5b9250929050565b60008083601f84011261114e578182fd5b50813567ffffffffffffffff811115611165578182fd5b60208301915083602082850101111561113657600080fd5b60006020828403121561118e578081fd5b815161119981611b17565b9392505050565b60008060008060008060008060a0898b0312156111bb578384fd5b88356111c681611b17565b975060208901356111d681611b17565b9650604089013567ffffffffffffffff808211156111f2578586fd5b6111fe8c838d016110f4565b909850965060608b0135915080821115611216578586fd5b6112228c838d016110f4565b909650945060808b013591508082111561123a578384fd5b506112478b828c0161113d565b999c989b5096995094979396929594505050565b60008060008060008060a08789031215611273578182fd5b863561127e81611b17565b9550602087013561128e81611b17565b94506040870135935060608701359250608087013567ffffffffffffffff8111156112b7578283fd5b6112c389828a0161113d565b979a9699509497509295939492505050565b6000602082840312156112e6578081fd5b81518015158114611199578182fd5b600060208284031215611306578081fd5b5035919050565b6000806040838503121561131f578182fd5b82359150602083013561133181611b17565b809150509250929050565b600080600060608486031215611350578283fd5b83359250602084013561136281611b17565b929592945050506040919091013590565b60008060408385031215611385578182fd5b50508035926020909101359150565b6000602082840312156113a5578081fd5b81356001600160e01b031981168114611199578182fd5b600080600080608085870312156113d1578384fd5b84356113dc81611b17565b935060208501356113ec81611b17565b93969395505050506040820135916060013590565b6001600160a01b03169052565b6bffffffffffffffffffffffff19606096871b8116825260148201959095529290941b90921660348201526048810191909152606881019190915260880190565b6001600160a01b039384168152919092166020820152604081019190915260600190565b60006001600160a01b03808816835260208188168185015286604085015285606085015260a06080850152845191508160a0850152825b828110156114c65785810182015185820160c0015281016114aa565b828111156114d7578360c084870101525b5050601f01601f19169190910160c0019695505050505050565b6001600160a01b03929092168252602082015260400190565b901515815260200190565b98151589526001600160a01b0397881660208a01529587166040890152938616606088015291909416608086015260a085019390935260c084019290925260e08301919091526101008201526101200190565b90815260200190565b918252602082015260400190565b6001600160e01b031991909116815260200190565b6020808252600f908201527f496e76616c696420616464726573730000000000000000000000000000000000604082015260600190565b6020808252818101527f50726f706f73616c734875623a3a436c61696d20697320746f6f206c61726765604082015260600190565b60208082526018908201527f496e636f727265637420736f6c76657220616464726573730000000000000000604082015260600190565b6020808252601b908201527f6d73672e73656e646572206e6f7420736f6c7574696f6e734875620000000000604082015260600190565b6020808252602a908201527f50726f706f73616c734875623a3a44617461206973206e6f742076616c69642060408201527f70726f706f73616c496400000000000000000000000000000000000000000000606082015260800190565b60208082526025908201527f436f6d6d69747465642066756e6473206973206c6f776572207468616e20616d60408201527f6f756e742e000000000000000000000000000000000000000000000000000000606082015260800190565b60208082526022908201527f436f756c64206e6f74207472616e736665722066726f6d206d73672e73656e6460408201527f6572000000000000000000000000000000000000000000000000000000000000606082015260800190565b60208082526019908201527f50726f706f73616c206e6f742066756c6c792066756e64656400000000000000604082015260600190565b60208082526015908201527f416d6f756e742063616e6e6f74206265207a65726f0000000000000000000000604082015260600190565b60208082526017908201527f50726f706f73616c20646f6573206e6f74206578697374000000000000000000604082015260600190565b60208082526019908201527f43616e27742066756e64206d6f7265207468616e20676f616c00000000000000604082015260600190565b60208082526025908201527f50726f706f73616c734875623a3a6d73672e73656e64657220686173206e6f2060408201527f636c61696d000000000000000000000000000000000000000000000000000000606082015260800190565b60208082526018908201527f50726f706f73616c734875623a3a436c61696d20697320300000000000000000604082015260600190565b60208082526031908201527f50726f706f73616c20646f6573206e6f7420696e636c7564652074686973207460408201527f6f6b656e20746f2062652066756e646564000000000000000000000000000000606082015260800190565b6020808252602c908201527f50726f706f73616c734875623a3a50726f706f73616c20686173206e6f74206260408201527f65656e2065786563757465640000000000000000000000000000000000000000606082015260800190565b60208082526027908201527f50726f706f73616c734875623a3a50726f706f73616c20616c7265616479206560408201527f7865637574656400000000000000000000000000000000000000000000000000606082015260800190565b6000610120820190508251151582526001600160a01b0360208401511660208301526040830151611a406040840182611401565b506060830151611a536060840182611401565b506080830151611a666080840182611401565b5060a083015160a083015260c083015160c083015260e083015160e083015261010080840151818401525092915050565b60008219821115611aaa57611aaa611b01565b500190565b600082611aca57634e487b7160e01b81526012600452602481fd5b500490565b600082821015611ae157611ae1611b01565b500390565b6000600019821415611afa57611afa611b01565b5060010190565b634e487b7160e01b600052601160045260246000fd5b6001600160a01b0381168114611b2c57600080fd5b5056fea2646970667358221220900ba1683c251f5dd85fd9c77c6706fa68fc0074553e7ff4e5e37e8fdf1cd77964736f6c63430008000033",
  "linkReferences": {},
  "deployedLinkReferences": {}
}