{
  "_format": "hh-sol-artifact-1",
  "contractName": "ProposalsHub",
  "sourceName": "contracts/ProposalsHub.sol",
  "abi": [
    {
      "anonymous": false,
      "inputs": [
        {
          "indexed": false,
          "internalType": "bytes32",
          "name": "id",
          "type": "bytes32"
        }
      ],
      "name": "CreateProposal",
      "type": "event"
    },
    {
      "inputs": [
        {
          "internalType": "contract IERC20",
          "name": "_collateralToken",
          "type": "address"
        },
        {
          "internalType": "address",
          "name": "_solutionsHub",
          "type": "address"
        },
        {
          "internalType": "uint256",
          "name": "_fundingGoal",
          "type": "uint256"
        },
        {
          "internalType": "bytes32",
          "name": "_solutionId",
          "type": "bytes32"
        }
      ],
      "name": "createProposal",
      "outputs": [],
      "stateMutability": "nonpayable",
      "type": "function"
    },
    {
      "inputs": [
        {
          "internalType": "bytes32",
          "name": "_proposalId",
          "type": "bytes32"
        },
        {
          "internalType": "contract IERC20",
          "name": "_token",
          "type": "address"
        },
        {
          "internalType": "uint256",
          "name": "_amount",
          "type": "uint256"
        }
      ],
      "name": "defundProposal",
      "outputs": [],
      "stateMutability": "nonpayable",
      "type": "function"
    },
    {
      "inputs": [
        {
          "internalType": "bytes32",
          "name": "_proposalId",
          "type": "bytes32"
        }
      ],
      "name": "executeProposal",
      "outputs": [],
      "stateMutability": "nonpayable",
      "type": "function"
    },
    {
      "inputs": [
        {
          "internalType": "bytes32",
          "name": "_proposalId",
          "type": "bytes32"
        },
        {
          "internalType": "contract IERC20",
          "name": "_token",
          "type": "address"
        },
        {
          "internalType": "uint256",
          "name": "_amount",
          "type": "uint256"
        }
      ],
      "name": "fundProposal",
      "outputs": [],
      "stateMutability": "nonpayable",
      "type": "function"
    },
    {
      "inputs": [
        {
          "internalType": "bytes32",
          "name": "",
          "type": "bytes32"
        },
        {
          "internalType": "address",
          "name": "",
          "type": "address"
        }
      ],
      "name": "funderAmountMap",
      "outputs": [
        {
          "internalType": "uint256",
          "name": "",
          "type": "uint256"
        }
      ],
      "stateMutability": "view",
      "type": "function"
    },
    {
      "inputs": [
        {
          "internalType": "bytes32",
          "name": "_id",
          "type": "bytes32"
        }
      ],
      "name": "getProposal",
      "outputs": [
        {
          "components": [
            {
              "internalType": "bool",
              "name": "isExecuted",
              "type": "bool"
            },
            {
              "internalType": "contract IERC20",
              "name": "collateralToken",
              "type": "address"
            },
            {
              "internalType": "address",
              "name": "proposer",
              "type": "address"
            },
            {
              "internalType": "address",
              "name": "solutionsHub",
              "type": "address"
            },
            {
              "internalType": "address",
              "name": "primeSolver",
              "type": "address"
            },
            {
              "internalType": "bytes32",
              "name": "id",
              "type": "bytes32"
            },
            {
              "internalType": "bytes32",
              "name": "solutionId",
              "type": "bytes32"
            },
            {
              "internalType": "uint256",
              "name": "funding",
              "type": "uint256"
            },
            {
              "internalType": "uint256",
              "name": "fundingGoal",
              "type": "uint256"
            }
          ],
          "internalType": "struct ProposalsHub.Proposal",
          "name": "proposal",
          "type": "tuple"
        }
      ],
      "stateMutability": "view",
      "type": "function"
    },
    {
      "inputs": [
        {
          "internalType": "bytes32",
          "name": "_id",
          "type": "bytes32"
        }
      ],
      "name": "isProposal",
      "outputs": [
        {
          "internalType": "bool",
          "name": "",
          "type": "bool"
        }
      ],
      "stateMutability": "view",
      "type": "function"
    },
    {
      "inputs": [
        {
          "internalType": "address",
          "name": "operator",
          "type": "address"
        },
        {
          "internalType": "address",
          "name": "from",
          "type": "address"
        },
        {
          "internalType": "uint256[]",
          "name": "ids",
          "type": "uint256[]"
        },
        {
          "internalType": "uint256[]",
          "name": "values",
          "type": "uint256[]"
        },
        {
          "internalType": "bytes",
          "name": "data",
          "type": "bytes"
        }
      ],
      "name": "onERC1155BatchReceived",
      "outputs": [
        {
          "internalType": "bytes4",
          "name": "",
          "type": "bytes4"
        }
      ],
      "stateMutability": "nonpayable",
      "type": "function"
    },
    {
      "inputs": [
        {
          "internalType": "address",
          "name": "operator",
          "type": "address"
        },
        {
          "internalType": "address",
          "name": "from",
          "type": "address"
        },
        {
          "internalType": "uint256",
          "name": "id",
          "type": "uint256"
        },
        {
          "internalType": "uint256",
          "name": "value",
          "type": "uint256"
        },
        {
          "internalType": "bytes",
          "name": "data",
          "type": "bytes"
        }
      ],
      "name": "onERC1155Received",
      "outputs": [
        {
          "internalType": "bytes4",
          "name": "",
          "type": "bytes4"
        }
      ],
      "stateMutability": "nonpayable",
      "type": "function"
    },
    {
      "inputs": [
        {
          "internalType": "bytes32",
          "name": "",
          "type": "bytes32"
        }
      ],
      "name": "proposals",
      "outputs": [
        {
          "internalType": "bool",
          "name": "isExecuted",
          "type": "bool"
        },
        {
          "internalType": "contract IERC20",
          "name": "collateralToken",
          "type": "address"
        },
        {
          "internalType": "address",
          "name": "proposer",
          "type": "address"
        },
        {
          "internalType": "address",
          "name": "solutionsHub",
          "type": "address"
        },
        {
          "internalType": "address",
          "name": "primeSolver",
          "type": "address"
        },
        {
          "internalType": "bytes32",
          "name": "id",
          "type": "bytes32"
        },
        {
          "internalType": "bytes32",
          "name": "solutionId",
          "type": "bytes32"
        },
        {
          "internalType": "uint256",
          "name": "funding",
          "type": "uint256"
        },
        {
          "internalType": "uint256",
          "name": "fundingGoal",
          "type": "uint256"
        }
      ],
      "stateMutability": "view",
      "type": "function"
    },
    {
      "inputs": [
        {
          "internalType": "bytes32",
          "name": "_proposalId",
          "type": "bytes32"
        },
        {
          "internalType": "uint256",
          "name": "_tokenId",
          "type": "uint256"
        }
      ],
      "name": "reclaimTokens",
      "outputs": [],
      "stateMutability": "nonpayable",
      "type": "function"
    },
    {
      "inputs": [
        {
          "internalType": "bytes32",
          "name": "",
          "type": "bytes32"
        },
        {
          "internalType": "uint256",
          "name": "",
          "type": "uint256"
        }
      ],
      "name": "reclaimableTokens",
      "outputs": [
        {
          "internalType": "uint256",
          "name": "",
          "type": "uint256"
        }
      ],
      "stateMutability": "view",
      "type": "function"
    },
    {
      "inputs": [
        {
          "internalType": "uint256",
          "name": "",
          "type": "uint256"
        },
        {
          "internalType": "address",
          "name": "",
          "type": "address"
        }
      ],
      "name": "reclaimedTokens",
      "outputs": [
        {
          "internalType": "uint256",
          "name": "",
          "type": "uint256"
        }
      ],
      "stateMutability": "view",
      "type": "function"
    },
    {
      "inputs": [
        {
          "internalType": "bytes4",
          "name": "interfaceId",
          "type": "bytes4"
        }
      ],
      "name": "supportsInterface",
      "outputs": [
        {
          "internalType": "bool",
          "name": "",
          "type": "bool"
        }
      ],
      "stateMutability": "view",
      "type": "function"
    },
    {
      "inputs": [
        {
          "internalType": "bytes32",
          "name": "_proposalId",
          "type": "bytes32"
        },
        {
          "internalType": "address",
          "name": "_solver",
          "type": "address"
        }
      ],
      "name": "transferERC20",
      "outputs": [],
      "stateMutability": "nonpayable",
      "type": "function"
    }
  ],
  "bytecode": "0x608060405234801561001057600080fd5b50611ac2806100206000396000f3fe608060405234801561001057600080fd5b50600436106100f55760003560e01c806354dd992711610097578063bc197c8111610066578063bc197c8114610212578063c12639f714610232578063d3f79a0514610245578063f23a6e6114610258576100f5565b806354dd9927146101c657806383460ba8146101d9578063980ff6c6146101ec578063b70c764c146101ff576100f5565b806332ed5b12116100d357806332ed5b121461014b57806333c15c3414610173578063430694cf1461019357806353ba3f57146101b3576100f5565b806301ffc9a7146100fa578063116f94d0146101235780631918063f14610138575b600080fd5b61010d6101083660046112f1565b61026b565b60405161011a9190611467565b60405180910390f35b610136610131366004611319565b6102af565b005b61013661014636600461126a565b610445565b61015e610159366004611252565b61062c565b60405161011a99989796959493929190611472565b61018661018136600461126a565b610687565b60405161011a91906114c5565b6101a66101a1366004611252565b6106a4565b60405161011a9190611969565b6101866101c13660046112d0565b610739565b6101366101d4366004611299565b610756565b6101866101e736600461126a565b610924565b6101366101fa366004611252565b610941565b61013661020d3660046112d0565b610a41565b6102256102203660046110fd565b610ca8565b60405161011a91906114dc565b610136610240366004611299565b610cd5565b61010d610253366004611252565b610ee1565b6102256102663660046111b8565b610ef8565b60006001600160e01b031982167f4e2312e00000000000000000000000000000000000000000000000000000000014806102a957506102a982610fa0565b92915050565b6000805490806102be83611a43565b91905055506000338286856000546040516020016102e095949392919061136b565b60408051601f19818403018152828252805160209182012060008181526001928390529290922080546001600160a01b03808b16610100027fffffffffffffffffffffff0000000000000000000000000000000000000000ff90921691909117825591810180547fffffffffffffffffffffffff00000000000000000000000000000000000000009081163317909155600282018054938a169390911683179055600480820184905560058201879055600782018890557f73c587f50000000000000000000000000000000000000000000000000000000085529294509290916373c587f5916103d49186918891016114ce565b600060405180830381600087803b1580156103ee57600080fd5b505af1158015610402573d6000803e3d6000fd5b505050507f2d231481d8c1af3958a30a257e93e0df6b089bc07ebedc0a86e7355d1aaf13388260405161043591906114c5565b60405180910390a1505050505050565b6000828152600160205260409020600201546001600160a01b031633146104875760405162461bcd60e51b815260040161047e90611594565b60405180910390fd5b6001600160a01b0381166104ad5760405162461bcd60e51b815260040161047e906114f1565b600082815260016020526040808220600281015460059091015491517f191481a00000000000000000000000000000000000000000000000000000000081526001600160a01b039182169391851692849263191481a0926105129291906004016114ce565b60206040518083038186803b15801561052a57600080fd5b505afa15801561053e573d6000803e3d6000fd5b505050506040513d601f19601f8201168201806040525081019061056291906110da565b6001600160a01b0316146105885760405162461bcd60e51b815260040161047e9061155d565b600083815260016020526040908190208054600690910154915163a9059cbb60e01b81526101009091046001600160a01b031691829163a9059cbb916105d39187919060040161144e565b602060405180830381600087803b1580156105ed57600080fd5b505af1158015610601573d6000803e3d6000fd5b505050506040513d601f19601f820116820180604052508101906106259190611232565b5050505050565b60016020819052600091825260409091208054918101546002820154600383015460048401546005850154600686015460079096015460ff8816976001600160a01b0361010090910481169796811696958116959416939089565b600460209081526000928352604080842090915290825290205481565b6106ac611005565b50600090815260016020818152604092839020835161012081018552815460ff8116151582526001600160a01b03610100918290048116948301949094529382015483169481019490945260028101548216606085015260038101549091166080840152600481015460a0840152600581015460c0840152600681015460e0840152600701549082015290565b600360209081526000928352604080842090915290825290205481565b6000838152600160205260409020600401546107845760405162461bcd60e51b815260040161047e90611750565b60008381526001602052604090205460ff16156107b35760405162461bcd60e51b815260040161047e9061190c565b6000838152600160205260409020546001600160a01b0383811661010090920416146107f15760405162461bcd60e51b815260040161047e90611852565b600081116108115760405162461bcd60e51b815260040161047e90611719565b600083815260026020908152604080832033845290915290205481111561084a5760405162461bcd60e51b815260040161047e90611628565b6000838152600160205260408120600601805483929061086b908490611a2c565b9091555050600083815260026020908152604080832033845290915281208054839290610899908490611a2c565b909155505060405163a9059cbb60e01b81526001600160a01b0383169063a9059cbb906108cc903390859060040161144e565b602060405180830381600087803b1580156108e657600080fd5b505af11580156108fa573d6000803e3d6000fd5b505050506040513d601f19601f8201168201806040525081019061091e9190611232565b50505050565b600260209081526000928352604080842090915290825290205481565b60008181526001602052604090206007810154600690910154146109775760405162461bcd60e51b815260040161047e906116e2565b60008181526001602052604090205460ff16156109a65760405162461bcd60e51b815260040161047e9061190c565b600081815260016020819052604091829020805460ff19169091178155600281015460059091015491517f60bbb9280000000000000000000000000000000000000000000000000000000081526001600160a01b03909116916360bbb92891610a139185916004016114ce565b600060405180830381600087803b158015610a2d57600080fd5b505af1158015610625573d6000803e3d6000fd5b6000828152600260209081526040808320338452909152902054610a775760405162461bcd60e51b815260040161047e906117be565b60008281526002602090815260408083203384528252808320548584526001909252822060060154610aa99190611a0c565b6000838152600460209081526040808320338452825280832054878452600383528184208785529092528220549293509091610ae6908490611a0c565b610af09190611a2c565b905060008111610b125760405162461bcd60e51b815260040161047e9061181b565b6000848152600360209081526040808320868452909152902054811115610b4b5760405162461bcd60e51b815260040161047e90611528565b600083815260046020908152604080832033845290915281208054839290610b749084906119f4565b909155505060008481526001602090815260408083206002015481517f5bd9e29900000000000000000000000000000000000000000000000000000000815291516001600160a01b0390911692635bd9e2999260048082019391829003018186803b158015610be257600080fd5b505afa158015610bf6573d6000803e3d6000fd5b505050506040513d601f19601f82011682018060405250810190610c1a91906110da565b9050806001600160a01b031663f242432a303387868a604051602001610c4091906114c5565b6040516020818303038152906040526040518663ffffffff1660e01b8152600401610c6f9594939291906113d0565b600060405180830381600087803b158015610c8957600080fd5b505af1158015610c9d573d6000803e3d6000fd5b505050505050505050565b7fbc197c810000000000000000000000000000000000000000000000000000000098975050505050505050565b600083815260016020526040902060040154610d035760405162461bcd60e51b815260040161047e90611750565b60008381526001602052604090205460ff1615610d325760405162461bcd60e51b815260040161047e9061190c565b6000838152600160205260409020546001600160a01b038381166101009092041614610d705760405162461bcd60e51b815260040161047e90611852565b60008111610d905760405162461bcd60e51b815260040161047e90611719565b60008381526001602052604090206007810154600690910154610db390836119f4565b1115610dd15760405162461bcd60e51b815260040161047e90611787565b60008381526001602052604081206006018054839290610df29084906119f4565b9091555050600083815260026020908152604080832033845290915281208054839290610e209084906119f4565b90915550506040517f23b872dd0000000000000000000000000000000000000000000000000000000081526001600160a01b038316906323b872dd90610e6e903390309086906004016113ac565b602060405180830381600087803b158015610e8857600080fd5b505af1158015610e9c573d6000803e3d6000fd5b505050506040513d601f19601f82011682018060405250810190610ec09190611232565b610edc5760405162461bcd60e51b815260040161047e90611685565b505050565b600090815260016020526040902060040154151590565b600080610f0783850185611252565b6000818152600160205260409020600401549091508114610f3a5760405162461bcd60e51b815260040161047e906115cb565b60008181526001602052604090205460ff16610f685760405162461bcd60e51b815260040161047e906118af565b610f73818787610fd2565b507ff23a6e6100000000000000000000000000000000000000000000000000000000979650505050505050565b6001600160e01b031981167f01ffc9a70000000000000000000000000000000000000000000000000000000014919050565b600083815260036020908152604080832085845290915281208054839290610ffb9084906119f4565b9091555050505050565b6040805161012081018252600080825260208201819052918101829052606081018290526080810182905260a0810182905260c0810182905260e0810182905261010081019190915290565b60008083601f840112611062578182fd5b50813567ffffffffffffffff811115611079578182fd5b602083019150836020808302850101111561109357600080fd5b9250929050565b60008083601f8401126110ab578182fd5b50813567ffffffffffffffff8111156110c2578182fd5b60208301915083602082850101111561109357600080fd5b6000602082840312156110eb578081fd5b81516110f681611a74565b9392505050565b60008060008060008060008060a0898b031215611118578384fd5b883561112381611a74565b9750602089013561113381611a74565b9650604089013567ffffffffffffffff8082111561114f578586fd5b61115b8c838d01611051565b909850965060608b0135915080821115611173578586fd5b61117f8c838d01611051565b909650945060808b0135915080821115611197578384fd5b506111a48b828c0161109a565b999c989b5096995094979396929594505050565b60008060008060008060a087890312156111d0578182fd5b86356111db81611a74565b955060208701356111eb81611a74565b94506040870135935060608701359250608087013567ffffffffffffffff811115611214578283fd5b61122089828a0161109a565b979a9699509497509295939492505050565b600060208284031215611243578081fd5b815180151581146110f6578182fd5b600060208284031215611263578081fd5b5035919050565b6000806040838503121561127c578182fd5b82359150602083013561128e81611a74565b809150509250929050565b6000806000606084860312156112ad578283fd5b8335925060208401356112bf81611a74565b929592945050506040919091013590565b600080604083850312156112e2578182fd5b50508035926020909101359150565b600060208284031215611302578081fd5b81356001600160e01b0319811681146110f6578182fd5b6000806000806080858703121561132e578384fd5b843561133981611a74565b9350602085013561134981611a74565b93969395505050506040820135916060013590565b6001600160a01b03169052565b6bffffffffffffffffffffffff19606096871b8116825260148201959095529290941b90921660348201526048810191909152606881019190915260880190565b6001600160a01b039384168152919092166020820152604081019190915260600190565b60006001600160a01b03808816835260208188168185015286604085015285606085015260a06080850152845191508160a0850152825b828110156114235785810182015185820160c001528101611407565b82811115611434578360c084870101525b5050601f01601f19169190910160c0019695505050505050565b6001600160a01b03929092168252602082015260400190565b901515815260200190565b98151589526001600160a01b0397881660208a01529587166040890152938616606088015291909416608086015260a085019390935260c084019290925260e08301919091526101008201526101200190565b90815260200190565b918252602082015260400190565b6001600160e01b031991909116815260200190565b6020808252600f908201527f496e76616c696420616464726573730000000000000000000000000000000000604082015260600190565b6020808252818101527f50726f706f73616c734875623a3a436c61696d20697320746f6f206c61726765604082015260600190565b60208082526018908201527f496e636f727265637420736f6c76657220616464726573730000000000000000604082015260600190565b6020808252601b908201527f6d73672e73656e646572206e6f7420736f6c7574696f6e734875620000000000604082015260600190565b6020808252602a908201527f50726f706f73616c734875623a3a44617461206973206e6f742076616c69642060408201527f70726f706f73616c496400000000000000000000000000000000000000000000606082015260800190565b60208082526025908201527f436f6d6d69747465642066756e6473206973206c6f776572207468616e20616d60408201527f6f756e742e000000000000000000000000000000000000000000000000000000606082015260800190565b60208082526022908201527f436f756c64206e6f74207472616e736665722066726f6d206d73672e73656e6460408201527f6572000000000000000000000000000000000000000000000000000000000000606082015260800190565b60208082526019908201527f50726f706f73616c206e6f742066756c6c792066756e64656400000000000000604082015260600190565b60208082526015908201527f416d6f756e742063616e6e6f74206265207a65726f0000000000000000000000604082015260600190565b60208082526017908201527f50726f706f73616c20646f6573206e6f74206578697374000000000000000000604082015260600190565b60208082526019908201527f43616e27742066756e64206d6f7265207468616e20676f616c00000000000000604082015260600190565b60208082526025908201527f50726f706f73616c734875623a3a6d73672e73656e64657220686173206e6f2060408201527f636c61696d000000000000000000000000000000000000000000000000000000606082015260800190565b60208082526018908201527f50726f706f73616c734875623a3a436c61696d20697320300000000000000000604082015260600190565b60208082526031908201527f50726f706f73616c20646f6573206e6f7420696e636c7564652074686973207460408201527f6f6b656e20746f2062652066756e646564000000000000000000000000000000606082015260800190565b6020808252602c908201527f50726f706f73616c734875623a3a50726f706f73616c20686173206e6f74206260408201527f65656e2065786563757465640000000000000000000000000000000000000000606082015260800190565b60208082526027908201527f50726f706f73616c734875623a3a50726f706f73616c20616c7265616479206560408201527f7865637574656400000000000000000000000000000000000000000000000000606082015260800190565b6000610120820190508251151582526001600160a01b036020840151166020830152604083015161199d604084018261135e565b5060608301516119b0606084018261135e565b5060808301516119c3608084018261135e565b5060a083015160a083015260c083015160c083015260e083015160e083015261010080840151818401525092915050565b60008219821115611a0757611a07611a5e565b500190565b600082611a2757634e487b7160e01b81526012600452602481fd5b500490565b600082821015611a3e57611a3e611a5e565b500390565b6000600019821415611a5757611a57611a5e565b5060010190565b634e487b7160e01b600052601160045260246000fd5b6001600160a01b0381168114611a8957600080fd5b5056fea26469706673582212204e422b34e99208b1c98c21bf4bee3792da876e966ced652f18a3d89195c0ba6064736f6c63430008000033",
  "linkReferences": {},
  "deployedLinkReferences": {}
}