{
  "_format": "hh-sol-artifact-1",
  "contractName": "ProposalsHub",
  "sourceName": "contracts/ProposalsHub.sol",
  "abi": [
    {
      "inputs": [
        {
          "internalType": "contract IERC20",
          "name": "_collateralToken",
          "type": "address"
        },
        {
          "internalType": "address",
          "name": "_keeper",
          "type": "address"
        },
        {
          "internalType": "uint256",
          "name": "_fundingGoal",
          "type": "uint256"
        },
        {
          "internalType": "bytes32",
          "name": "_solutionId",
          "type": "bytes32"
        }
      ],
      "name": "createProposal",
      "outputs": [],
      "stateMutability": "nonpayable",
      "type": "function"
    },
    {
      "inputs": [
        {
          "internalType": "bytes32",
          "name": "_proposalId",
          "type": "bytes32"
        },
        {
          "internalType": "contract IERC20",
          "name": "_token",
          "type": "address"
        },
        {
          "internalType": "uint256",
          "name": "_amount",
          "type": "uint256"
        }
      ],
      "name": "defundProposal",
      "outputs": [],
      "stateMutability": "nonpayable",
      "type": "function"
    },
    {
      "inputs": [
        {
          "internalType": "bytes32",
          "name": "_proposalId",
          "type": "bytes32"
        },
        {
          "internalType": "contract IERC20",
          "name": "_token",
          "type": "address"
        },
        {
          "internalType": "uint256",
          "name": "_amount",
          "type": "uint256"
        }
      ],
      "name": "fundProposal",
      "outputs": [],
      "stateMutability": "nonpayable",
      "type": "function"
    },
    {
      "inputs": [
        {
          "internalType": "bytes32",
          "name": "",
          "type": "bytes32"
        }
      ],
      "name": "proposals",
      "outputs": [
        {
          "internalType": "bool",
          "name": "configured",
          "type": "bool"
        },
        {
          "internalType": "contract IERC20",
          "name": "collateralToken",
          "type": "address"
        },
        {
          "internalType": "address",
          "name": "proposer",
          "type": "address"
        },
        {
          "internalType": "bytes32",
          "name": "id",
          "type": "bytes32"
        },
        {
          "internalType": "bytes32",
          "name": "solutionId",
          "type": "bytes32"
        },
        {
          "internalType": "uint256",
          "name": "funding",
          "type": "uint256"
        },
        {
          "internalType": "uint256",
          "name": "fundingGoal",
          "type": "uint256"
        }
      ],
      "stateMutability": "view",
      "type": "function"
    }
  ],
  "bytecode": "0x608060405234801561001057600080fd5b50610f0d806100206000396000f3fe608060405234801561001057600080fd5b506004361061004c5760003560e01c8063116f94d01461005157806332ed5b121461006d57806354dd9927146100a3578063c12639f7146100bf575b600080fd5b61006b60048036038101906100669190610913565b6100db565b005b6100876004803603810190610082919061089b565b610206565b60405161009a9796959493929190610be8565b60405180910390f35b6100bd60048036038101906100b891906108c4565b610295565b005b6100d960048036038101906100d491906108c4565b61059a565b005b6000338585856000546040516020016100f8959493929190610b52565b60405160208183030381529060405280519060200120905060016000808282546101229190610ce8565b92505081905550600060016000838152602001908152602001600020905060008160000160006101000a81548160ff021916908315150217905550858160000160016101000a81548173ffffffffffffffffffffffffffffffffffffffff021916908373ffffffffffffffffffffffffffffffffffffffff160217905550338160010160006101000a81548173ffffffffffffffffffffffffffffffffffffffff021916908373ffffffffffffffffffffffffffffffffffffffff160217905550818160020181905550828160030181905550838160050181905550505050505050565b60016020528060005260406000206000915090508060000160009054906101000a900460ff16908060000160019054906101000a900473ffffffffffffffffffffffffffffffffffffffff16908060010160009054906101000a900473ffffffffffffffffffffffffffffffffffffffff16908060020154908060030154908060040154908060050154905087565b6000801b600160008581526020019081526020016000206002015414156102f1576040517f08c379a00000000000000000000000000000000000000000000000000000000081526004016102e890610c97565b60405180910390fd5b8173ffffffffffffffffffffffffffffffffffffffff166001600085815260200190815260200160002060000160019054906101000a900473ffffffffffffffffffffffffffffffffffffffff1673ffffffffffffffffffffffffffffffffffffffff1614610395576040517f08c379a000000000000000000000000000000000000000000000000000000000815260040161038c90610cb7565b60405180910390fd5b600081116103d8576040517f08c379a00000000000000000000000000000000000000000000000000000000081526004016103cf90610c77565b60405180910390fd5b6001600084815260200190815260200160002060060160003373ffffffffffffffffffffffffffffffffffffffff1673ffffffffffffffffffffffffffffffffffffffff1681526020019081526020016000205481111561046e576040517f08c379a000000000000000000000000000000000000000000000000000000000815260040161046590610c57565b60405180910390fd5b806001600085815260200190815260200160002060040160008282546104949190610d3e565b92505081905550806001600085815260200190815260200160002060060160003373ffffffffffffffffffffffffffffffffffffffff1673ffffffffffffffffffffffffffffffffffffffff16815260200190815260200160002060008282546104fe9190610d3e565b925050819055508173ffffffffffffffffffffffffffffffffffffffff166323b872dd3033846040518463ffffffff1660e01b815260040161054293929190610bb1565b602060405180830381600087803b15801561055c57600080fd5b505af1158015610570573d6000803e3d6000fd5b505050506040513d601f19601f820116820180604052508101906105949190610872565b50505050565b6000801b600160008581526020019081526020016000206002015414156105f6576040517f08c379a00000000000000000000000000000000000000000000000000000000081526004016105ed90610c97565b60405180910390fd5b8173ffffffffffffffffffffffffffffffffffffffff166001600085815260200190815260200160002060000160019054906101000a900473ffffffffffffffffffffffffffffffffffffffff1673ffffffffffffffffffffffffffffffffffffffff161461069a576040517f08c379a000000000000000000000000000000000000000000000000000000000815260040161069190610cb7565b60405180910390fd5b600081116106dd576040517f08c379a00000000000000000000000000000000000000000000000000000000081526004016106d490610c77565b60405180910390fd5b806001600085815260200190815260200160002060040160008282546107039190610ce8565b92505081905550806001600085815260200190815260200160002060060160003373ffffffffffffffffffffffffffffffffffffffff1673ffffffffffffffffffffffffffffffffffffffff168152602001908152602001600020600082825461076d9190610ce8565b925050819055508173ffffffffffffffffffffffffffffffffffffffff166323b872dd3330846040518463ffffffff1660e01b81526004016107b193929190610bb1565b602060405180830381600087803b1580156107cb57600080fd5b505af11580156107df573d6000803e3d6000fd5b505050506040513d601f19601f820116820180604052508101906108039190610872565b50505050565b60008135905061081881610e64565b92915050565b60008151905061082d81610e7b565b92915050565b60008135905061084281610e92565b92915050565b60008135905061085781610ea9565b92915050565b60008135905061086c81610ec0565b92915050565b60006020828403121561088457600080fd5b60006108928482850161081e565b91505092915050565b6000602082840312156108ad57600080fd5b60006108bb84828501610833565b91505092915050565b6000806000606084860312156108d957600080fd5b60006108e786828701610833565b93505060206108f886828701610848565b92505060406109098682870161085d565b9150509250925092565b6000806000806080858703121561092957600080fd5b600061093787828801610848565b945050602061094887828801610809565b93505060406109598782880161085d565b925050606061096a87828801610833565b91505092959194509250565b61097f81610d72565b82525050565b61099661099182610d72565b610dfa565b82525050565b6109a581610d84565b82525050565b6109b481610d90565b82525050565b6109c381610dd6565b82525050565b6109da6109d582610dd6565b610dfa565b82525050565b60006109ed602583610cd7565b91507f436f6d6d69747465642066756e6473206973206c6f776572207468616e20616d60008301527f6f756e742e0000000000000000000000000000000000000000000000000000006020830152604082019050919050565b6000610a53601583610cd7565b91507f416d6f756e742063616e6e6f74206265207a65726f00000000000000000000006000830152602082019050919050565b6000610a93601783610cd7565b91507f50726f706f73616c20646f6573206e6f742065786973740000000000000000006000830152602082019050919050565b6000610ad3603183610cd7565b91507f50726f706f73616c20646f6573206e6f7420696e636c7564652074686973207460008301527f6f6b656e20746f2062652066756e6465640000000000000000000000000000006020830152604082019050919050565b610b3581610dcc565b82525050565b610b4c610b4782610dcc565b610e1e565b82525050565b6000610b5e8288610985565b601482019150610b6e82876109c9565b601482019150610b7e8286610985565b601482019150610b8e8285610b3b565b602082019150610b9e8284610b3b565b6020820191508190509695505050505050565b6000606082019050610bc66000830186610976565b610bd36020830185610976565b610be06040830184610b2c565b949350505050565b600060e082019050610bfd600083018a61099c565b610c0a60208301896109ba565b610c176040830188610976565b610c2460608301876109ab565b610c3160808301866109ab565b610c3e60a0830185610b2c565b610c4b60c0830184610b2c565b98975050505050505050565b60006020820190508181036000830152610c70816109e0565b9050919050565b60006020820190508181036000830152610c9081610a46565b9050919050565b60006020820190508181036000830152610cb081610a86565b9050919050565b60006020820190508181036000830152610cd081610ac6565b9050919050565b600082825260208201905092915050565b6000610cf382610dcc565b9150610cfe83610dcc565b9250827fffffffffffffffffffffffffffffffffffffffffffffffffffffffffffffffff03821115610d3357610d32610e28565b5b828201905092915050565b6000610d4982610dcc565b9150610d5483610dcc565b925082821015610d6757610d66610e28565b5b828203905092915050565b6000610d7d82610dac565b9050919050565b60008115159050919050565b6000819050919050565b6000610da582610d72565b9050919050565b600073ffffffffffffffffffffffffffffffffffffffff82169050919050565b6000819050919050565b6000610de182610de8565b9050919050565b6000610df382610dac565b9050919050565b6000610e0582610e0c565b9050919050565b6000610e1782610e57565b9050919050565b6000819050919050565b7f4e487b7100000000000000000000000000000000000000000000000000000000600052601160045260246000fd5b60008160601b9050919050565b610e6d81610d72565b8114610e7857600080fd5b50565b610e8481610d84565b8114610e8f57600080fd5b50565b610e9b81610d90565b8114610ea657600080fd5b50565b610eb281610d9a565b8114610ebd57600080fd5b50565b610ec981610dcc565b8114610ed457600080fd5b5056fea2646970667358221220286ce53e3da284a754c44ac2bcb1521eeb2fd8d14055536424e08205c63a154964736f6c63430008000033",
  "linkReferences": {},
  "deployedLinkReferences": {}
}