{
  "_format": "hh-sol-artifact-1",
  "contractName": "ProposalsHub",
  "sourceName": "contracts/ProposalsHub.sol",
  "abi": [
    {
      "inputs": [
        {
          "internalType": "bytes32",
          "name": "_proposalId",
          "type": "bytes32"
        },
        {
          "internalType": "contract IERC20",
          "name": "_token",
          "type": "address"
        },
        {
          "internalType": "uint256",
          "name": "_amount",
          "type": "uint256"
        }
      ],
      "name": "defundProposal",
      "outputs": [],
      "stateMutability": "nonpayable",
      "type": "function"
    },
    {
      "inputs": [
        {
          "internalType": "bytes32",
          "name": "_proposalId",
          "type": "bytes32"
        },
        {
          "internalType": "contract IERC20",
          "name": "_token",
          "type": "address"
        },
        {
          "internalType": "uint256",
          "name": "_amount",
          "type": "uint256"
        }
      ],
      "name": "fundProposal",
      "outputs": [],
      "stateMutability": "nonpayable",
      "type": "function"
    },
    {
      "inputs": [
        {
          "internalType": "bytes32",
          "name": "_proposalId",
          "type": "bytes32"
        }
      ],
      "name": "initiateSolution",
      "outputs": [],
      "stateMutability": "nonpayable",
      "type": "function"
    },
    {
      "inputs": [
        {
          "internalType": "address",
          "name": "operator",
          "type": "address"
        },
        {
          "internalType": "address",
          "name": "from",
          "type": "address"
        },
        {
          "internalType": "uint256[]",
          "name": "ids",
          "type": "uint256[]"
        },
        {
          "internalType": "uint256[]",
          "name": "values",
          "type": "uint256[]"
        },
        {
          "internalType": "bytes",
          "name": "data",
          "type": "bytes"
        }
      ],
      "name": "onERC1155BatchReceived",
      "outputs": [
        {
          "internalType": "bytes4",
          "name": "",
          "type": "bytes4"
        }
      ],
      "stateMutability": "pure",
      "type": "function"
    },
    {
      "inputs": [
        {
          "internalType": "address",
          "name": "operator",
          "type": "address"
        },
        {
          "internalType": "address",
          "name": "from",
          "type": "address"
        },
        {
          "internalType": "uint256",
          "name": "id",
          "type": "uint256"
        },
        {
          "internalType": "uint256",
          "name": "value",
          "type": "uint256"
        },
        {
          "internalType": "bytes",
          "name": "data",
          "type": "bytes"
        }
      ],
      "name": "onERC1155Received",
      "outputs": [
        {
          "internalType": "bytes4",
          "name": "",
          "type": "bytes4"
        }
      ],
      "stateMutability": "pure",
      "type": "function"
    },
    {
      "inputs": [
        {
          "internalType": "bytes32",
          "name": "",
          "type": "bytes32"
        }
      ],
      "name": "proposalSolvers",
      "outputs": [
        {
          "internalType": "address",
          "name": "",
          "type": "address"
        }
      ],
      "stateMutability": "view",
      "type": "function"
    },
    {
      "inputs": [
        {
          "internalType": "bytes32",
          "name": "",
          "type": "bytes32"
        }
      ],
      "name": "proposals",
      "outputs": [
        {
          "internalType": "address",
          "name": "collateralToken",
          "type": "address"
        },
        {
          "internalType": "address",
          "name": "keeper",
          "type": "address"
        },
        {
          "internalType": "uint256",
          "name": "id",
          "type": "uint256"
        },
        {
          "internalType": "bytes32",
          "name": "solutionId",
          "type": "bytes32"
        },
        {
          "internalType": "uint256",
          "name": "funding",
          "type": "uint256"
        },
        {
          "internalType": "uint256",
          "name": "fundingGoal",
          "type": "uint256"
        }
      ],
      "stateMutability": "view",
      "type": "function"
    }
  ],
  "bytecode": "0x608060405234801561001057600080fd5b50611b65806100206000396000f3fe608060405234801561001057600080fd5b506004361061007d5760003560e01c8063bc197c811161005b578063bc197c81146100ef578063c12639f71461011f578063d6792a711461013b578063f23a6e611461016b5761007d565b806332ed5b121461008257806354dd9927146100b7578063a290db06146100d3575b600080fd5b61009c60048036038101906100979190610fe5565b61019b565b6040516100ae969594939291906115fc565b60405180910390f35b6100d160048036038101906100cc919061100e565b610217565b005b6100ed60048036038101906100e89190610fe5565b610515565b005b61010960048036038101906101049190610e5e565b610a59565b604051610116919061165d565b60405180910390f35b6101396004803603810190610134919061100e565b610a71565b005b61015560048036038101906101509190610fe5565b610cda565b60405161016291906114f2565b60405180910390f35b61018560048036038101906101809190610f2a565b610d0d565b604051610192919061165d565b60405180910390f35b60006020528060005260406000206000915090508060000160009054906101000a900473ffffffffffffffffffffffffffffffffffffffff16908060010160009054906101000a900473ffffffffffffffffffffffffffffffffffffffff16908060020154908060030154908060040154908060050154905086565b6000806000858152602001908152602001600020600201541415610270576040517f08c379a0000000000000000000000000000000000000000000000000000000008152600401610267906116b8565b60405180910390fd5b8173ffffffffffffffffffffffffffffffffffffffff1660008085815260200190815260200160002060000160009054906101000a900473ffffffffffffffffffffffffffffffffffffffff1673ffffffffffffffffffffffffffffffffffffffff1614610313576040517f08c379a000000000000000000000000000000000000000000000000000000000815260040161030a906116d8565b60405180910390fd5b60008111610356576040517f08c379a000000000000000000000000000000000000000000000000000000000815260040161034d90611698565b60405180910390fd5b60008084815260200190815260200160002060060160003373ffffffffffffffffffffffffffffffffffffffff1673ffffffffffffffffffffffffffffffffffffffff168152602001908152602001600020548111156103eb576040517f08c379a00000000000000000000000000000000000000000000000000000000081526004016103e290611678565b60405180910390fd5b806000808581526020019081526020016000206004016000828254610410919061188e565b925050819055508060008085815260200190815260200160002060060160003373ffffffffffffffffffffffffffffffffffffffff1673ffffffffffffffffffffffffffffffffffffffff1681526020019081526020016000206000828254610479919061188e565b925050819055508173ffffffffffffffffffffffffffffffffffffffff166323b872dd3033846040518463ffffffff1660e01b81526004016104bd939291906115c5565b602060405180830381600087803b1580156104d757600080fd5b505af11580156104eb573d6000803e3d6000fd5b505050506040513d601f19601f8201168201806040525081019061050f9190610fbc565b50505050565b60005b60008083815260200190815260200160002060070180549050811015610a555760008060008481526020019081526020016000206007018281548110610587577f4e487b7100000000000000000000000000000000000000000000000000000000600052603260045260246000fd5b90600052602060002090600c020160000160009054906101000a900473ffffffffffffffffffffffffffffffffffffffff1690508073ffffffffffffffffffffffffffffffffffffffff166366f701ec6000808681526020019081526020016000206007018481548110610624577f4e487b7100000000000000000000000000000000000000000000000000000000600052603260045260246000fd5b90600052602060002090600c020160010160009054906101000a900473ffffffffffffffffffffffffffffffffffffffff1660008087815260200190815260200160002060070185815481106106a3577f4e487b7100000000000000000000000000000000000000000000000000000000600052603260045260246000fd5b90600052602060002090600c020160020160009054906101000a900473ffffffffffffffffffffffffffffffffffffffff166000808881526020019081526020016000206007018681548110610722577f4e487b7100000000000000000000000000000000000000000000000000000000600052603260045260246000fd5b90600052602060002090600c0201600401546000808981526020019081526020016000206007018781548110610781577f4e487b7100000000000000000000000000000000000000000000000000000000600052603260045260246000fd5b90600052602060002090600c02016005016000808a815260200190815260200160002060070188815481106107df577f4e487b7100000000000000000000000000000000000000000000000000000000600052603260045260246000fd5b90600052602060002090600c02016006016000808b8152602001908152602001600020600701898154811061083d577f4e487b7100000000000000000000000000000000000000000000000000000000600052603260045260246000fd5b90600052602060002090600c02016007016000808c81526020019081526020016000206007018a8154811061089b577f4e487b7100000000000000000000000000000000000000000000000000000000600052603260045260246000fd5b90600052602060002090600c0201600801546000808d81526020019081526020016000206007018b815481106108fa577f4e487b7100000000000000000000000000000000000000000000000000000000600052603260045260246000fd5b90600052602060002090600c0201600901546000808e81526020019081526020016000206007018c81548110610959577f4e487b7100000000000000000000000000000000000000000000000000000000600052603260045260246000fd5b90600052602060002090600c0201600a01546000808f81526020019081526020016000206007018d815481106109b8577f4e487b7100000000000000000000000000000000000000000000000000000000600052603260045260246000fd5b90600052602060002090600c0201600b016040518b63ffffffff1660e01b81526004016109ee9a9998979695949392919061150d565b602060405180830381600087803b158015610a0857600080fd5b505af1158015610a1c573d6000803e3d6000fd5b505050506040513d601f19601f82011682018060405250810190610a409190610e35565b50508080610a4d906119e2565b915050610518565b5050565b600063bc197c8160e01b905098975050505050505050565b6000806000858152602001908152602001600020600201541415610aca576040517f08c379a0000000000000000000000000000000000000000000000000000000008152600401610ac1906116b8565b60405180910390fd5b8173ffffffffffffffffffffffffffffffffffffffff1660008085815260200190815260200160002060000160009054906101000a900473ffffffffffffffffffffffffffffffffffffffff1673ffffffffffffffffffffffffffffffffffffffff1614610b6d576040517f08c379a0000000000000000000000000000000000000000000000000000000008152600401610b64906116d8565b60405180910390fd5b60008111610bb0576040517f08c379a0000000000000000000000000000000000000000000000000000000008152600401610ba790611698565b60405180910390fd5b806000808581526020019081526020016000206004016000828254610bd59190611838565b925050819055508060008085815260200190815260200160002060060160003373ffffffffffffffffffffffffffffffffffffffff1673ffffffffffffffffffffffffffffffffffffffff1681526020019081526020016000206000828254610c3e9190611838565b925050819055508173ffffffffffffffffffffffffffffffffffffffff166323b872dd3330846040518463ffffffff1660e01b8152600401610c82939291906115c5565b602060405180830381600087803b158015610c9c57600080fd5b505af1158015610cb0573d6000803e3d6000fd5b505050506040513d601f19601f82011682018060405250810190610cd49190610fbc565b50505050565b60016020528060005260406000206000915054906101000a900473ffffffffffffffffffffffffffffffffffffffff1681565b600063f23a6e6160e01b90509695505050505050565b600081359050610d3281611abc565b92915050565b600081519050610d4781611abc565b92915050565b60008083601f840112610d5f57600080fd5b8235905067ffffffffffffffff811115610d7857600080fd5b602083019150836020820283011115610d9057600080fd5b9250929050565b600081519050610da681611ad3565b92915050565b600081359050610dbb81611aea565b92915050565b60008083601f840112610dd357600080fd5b8235905067ffffffffffffffff811115610dec57600080fd5b602083019150836001820283011115610e0457600080fd5b9250929050565b600081359050610e1a81611b01565b92915050565b600081359050610e2f81611b18565b92915050565b600060208284031215610e4757600080fd5b6000610e5584828501610d38565b91505092915050565b60008060008060008060008060a0898b031215610e7a57600080fd5b6000610e888b828c01610d23565b9850506020610e998b828c01610d23565b975050604089013567ffffffffffffffff811115610eb657600080fd5b610ec28b828c01610d4d565b9650965050606089013567ffffffffffffffff811115610ee157600080fd5b610eed8b828c01610d4d565b9450945050608089013567ffffffffffffffff811115610f0c57600080fd5b610f188b828c01610dc1565b92509250509295985092959890939650565b60008060008060008060a08789031215610f4357600080fd5b6000610f5189828a01610d23565b9650506020610f6289828a01610d23565b9550506040610f7389828a01610e20565b9450506060610f8489828a01610e20565b935050608087013567ffffffffffffffff811115610fa157600080fd5b610fad89828a01610dc1565b92509250509295509295509295565b600060208284031215610fce57600080fd5b6000610fdc84828501610d97565b91505092915050565b600060208284031215610ff757600080fd5b600061100584828501610dac565b91505092915050565b60008060006060848603121561102357600080fd5b600061103186828701610dac565b935050602061104286828701610e0b565b925050604061105386828701610e20565b9150509250925092565b600061106983836110b5565b60208301905092915050565b600061108183836110d3565b905092915050565b60006110958383611220565b905092915050565b60006110a983836114d4565b60208301905092915050565b6110be816118ec565b82525050565b6110cd816118ec565b82525050565b60006110de82611761565b6110e881856117c1565b93506110f3836116f8565b8060005b8381101561112b5761110882611a89565b611112888261105d565b975061111d8361178d565b9250506001810190506110f7565b5085935050505092915050565b60006111438261176c565b61114d81856117d2565b93508360208202850161115f8561170d565b8060005b8581101561119a5784840389528161117b8582611075565b94506111868361179a565b925060208a01995050600181019050611163565b50829750879550505050505092915050565b60006111b782611777565b6111c181856117e3565b9350836020820285016111d385611722565b8060005b8581101561120e578484038952816111ef8582611089565b94506111fa836117a7565b925060208a019950506001810190506111d7565b50829750879550505050505092915050565b600061122b82611782565b61123581856117f4565b935061124083611737565b8060005b838110156112785761125582611a9c565b61125f888261109d565b975061126a836117b4565b925050600181019050611244565b5085935050505092915050565b600061129082611782565b61129a8185611805565b93506112a583611737565b8060005b838110156112dd576112ba82611a9c565b6112c4888261109d565b97506112cf836117b4565b9250506001810190506112a9565b5085935050505092915050565b6112f38161190a565b82525050565b61130281611914565b82525050565b600081546113158161197c565b61131f8186611816565b9450600182166000811461133a576001811461134c5761137f565b60ff198316865260208601935061137f565b6113558561174c565b60005b8381101561137757815481890152600182019150602081019050611358565b808801955050505b50505092915050565b6000611395602583611827565b91507f436f6d6d69747465642066756e6473206973206c6f776572207468616e20616d60008301527f6f756e742e0000000000000000000000000000000000000000000000000000006020830152604082019050919050565b60006113fb601583611827565b91507f416d6f756e742063616e6e6f74206265207a65726f00000000000000000000006000830152602082019050919050565b600061143b601783611827565b91507f50726f706f73616c20646f6573206e6f742065786973740000000000000000006000830152602082019050919050565b600061147b603183611827565b91507f50726f706f73616c20646f6573206e6f7420696e636c7564652074686973207460008301527f6f6b656e20746f2062652066756e6465640000000000000000000000000000006020830152604082019050919050565b6114dd81611972565b82525050565b6114ec81611972565b82525050565b600060208201905061150760008301846110c4565b92915050565b600061014082019050611523600083018d6110c4565b611530602083018c6110c4565b61153d604083018b6112ea565b818103606083015261154f818a611285565b905081810360808301526115638189611138565b905081810360a083015261157781886111ac565b905061158660c08301876114e3565b61159360e08301866114e3565b6115a16101008301856114e3565b8181036101208301526115b48184611308565b90509b9a5050505050505050505050565b60006060820190506115da60008301866110c4565b6115e760208301856110c4565b6115f460408301846114e3565b949350505050565b600060c08201905061161160008301896110c4565b61161e60208301886110c4565b61162b60408301876114e3565b61163860608301866112ea565b61164560808301856114e3565b61165260a08301846114e3565b979650505050505050565b600060208201905061167260008301846112f9565b92915050565b6000602082019050818103600083015261169181611388565b9050919050565b600060208201905081810360008301526116b1816113ee565b9050919050565b600060208201905081810360008301526116d18161142e565b9050919050565b600060208201905081810360008301526116f18161146e565b9050919050565b60008190508160005260206000209050919050565b60008190508160005260206000209050919050565b60008190508160005260206000209050919050565b60008190508160005260206000209050919050565b60008190508160005260206000209050919050565b600081549050919050565b600081549050919050565b600081549050919050565b600081549050919050565b6000600182019050919050565b6000600182019050919050565b6000600182019050919050565b6000600182019050919050565b600082825260208201905092915050565b600082825260208201905092915050565b600082825260208201905092915050565b600082825260208201905092915050565b600082825260208201905092915050565b600082825260208201905092915050565b600082825260208201905092915050565b600061184382611972565b915061184e83611972565b9250827fffffffffffffffffffffffffffffffffffffffffffffffffffffffffffffffff0382111561188357611882611a2b565b5b828201905092915050565b600061189982611972565b91506118a483611972565b9250828210156118b7576118b6611a2b565b5b828203905092915050565b600073ffffffffffffffffffffffffffffffffffffffff82169050919050565b6000819050919050565b60006118f782611952565b9050919050565b60008115159050919050565b6000819050919050565b60007fffffffff0000000000000000000000000000000000000000000000000000000082169050919050565b600061194b826118ec565b9050919050565b600073ffffffffffffffffffffffffffffffffffffffff82169050919050565b6000819050919050565b6000600282049050600182168061199457607f821691505b602082108114156119a8576119a7611a5a565b5b50919050565b60006119c16119bc83611aaf565b6118c2565b9050919050565b60006119db6119d683611aaf565b6118e2565b9050919050565b60006119ed82611972565b91507fffffffffffffffffffffffffffffffffffffffffffffffffffffffffffffffff821415611a2057611a1f611a2b565b5b600182019050919050565b7f4e487b7100000000000000000000000000000000000000000000000000000000600052601160045260246000fd5b7f4e487b7100000000000000000000000000000000000000000000000000000000600052602260045260246000fd5b6000611a9582546119ae565b9050919050565b6000611aa882546119c8565b9050919050565b60008160001c9050919050565b611ac5816118ec565b8114611ad057600080fd5b50565b611adc816118fe565b8114611ae757600080fd5b50565b611af38161190a565b8114611afe57600080fd5b50565b611b0a81611940565b8114611b1557600080fd5b50565b611b2181611972565b8114611b2c57600080fd5b5056fea26469706673582212200c168548eb30f19e99a5136ca84da6e60c2cc105f83123edd2ab9b75557a297e64736f6c63430008000033",
  "linkReferences": {},
  "deployedLinkReferences": {}
}