{
  "_format": "hh-sol-artifact-1",
  "contractName": "ProposalsHub",
  "sourceName": "contracts/ProposalsHub.sol",
  "abi": [
    {
      "inputs": [
        {
          "internalType": "contract IERC20",
          "name": "_collateralToken",
          "type": "address"
        },
        {
          "internalType": "address",
          "name": "_keeper",
          "type": "address"
        },
        {
          "internalType": "uint256",
          "name": "_fundingGoal",
          "type": "uint256"
        },
        {
          "internalType": "bytes32",
          "name": "_solutionId",
          "type": "bytes32"
        }
      ],
      "name": "createProposal",
      "outputs": [],
      "stateMutability": "nonpayable",
      "type": "function"
    },
    {
      "inputs": [
        {
          "internalType": "bytes32",
          "name": "_proposalId",
          "type": "bytes32"
        },
        {
          "internalType": "contract IERC20",
          "name": "_token",
          "type": "address"
        },
        {
          "internalType": "uint256",
          "name": "_amount",
          "type": "uint256"
        }
      ],
      "name": "defundProposal",
      "outputs": [],
      "stateMutability": "nonpayable",
      "type": "function"
    },
    {
      "inputs": [
        {
          "internalType": "bytes32",
          "name": "_proposalId",
          "type": "bytes32"
        },
        {
          "internalType": "contract IERC20",
          "name": "_token",
          "type": "address"
        },
        {
          "internalType": "uint256",
          "name": "_amount",
          "type": "uint256"
        }
      ],
      "name": "fundProposal",
      "outputs": [],
      "stateMutability": "nonpayable",
      "type": "function"
    },
    {
      "inputs": [
        {
          "internalType": "address",
          "name": "operator",
          "type": "address"
        },
        {
          "internalType": "address",
          "name": "from",
          "type": "address"
        },
        {
          "internalType": "uint256[]",
          "name": "ids",
          "type": "uint256[]"
        },
        {
          "internalType": "uint256[]",
          "name": "values",
          "type": "uint256[]"
        },
        {
          "internalType": "bytes",
          "name": "data",
          "type": "bytes"
        }
      ],
      "name": "onERC1155BatchReceived",
      "outputs": [
        {
          "internalType": "bytes4",
          "name": "",
          "type": "bytes4"
        }
      ],
      "stateMutability": "pure",
      "type": "function"
    },
    {
      "inputs": [
        {
          "internalType": "address",
          "name": "operator",
          "type": "address"
        },
        {
          "internalType": "address",
          "name": "from",
          "type": "address"
        },
        {
          "internalType": "uint256",
          "name": "id",
          "type": "uint256"
        },
        {
          "internalType": "uint256",
          "name": "value",
          "type": "uint256"
        },
        {
          "internalType": "bytes",
          "name": "data",
          "type": "bytes"
        }
      ],
      "name": "onERC1155Received",
      "outputs": [
        {
          "internalType": "bytes4",
          "name": "",
          "type": "bytes4"
        }
      ],
      "stateMutability": "pure",
      "type": "function"
    },
    {
      "inputs": [
        {
          "internalType": "bytes32",
          "name": "",
          "type": "bytes32"
        }
      ],
      "name": "proposals",
      "outputs": [
        {
          "internalType": "bool",
          "name": "configured",
          "type": "bool"
        },
        {
          "internalType": "contract IERC20",
          "name": "collateralToken",
          "type": "address"
        },
        {
          "internalType": "address",
          "name": "proposer",
          "type": "address"
        },
        {
          "internalType": "bytes32",
          "name": "id",
          "type": "bytes32"
        },
        {
          "internalType": "bytes32",
          "name": "solutionId",
          "type": "bytes32"
        },
        {
          "internalType": "uint256",
          "name": "funding",
          "type": "uint256"
        },
        {
          "internalType": "uint256",
          "name": "fundingGoal",
          "type": "uint256"
        }
      ],
      "stateMutability": "view",
      "type": "function"
    }
  ],
  "bytecode": "0x608060405234801561001057600080fd5b506111f9806100206000396000f3fe608060405234801561001057600080fd5b50600436106100625760003560e01c8063116f94d01461006757806332ed5b121461008357806354dd9927146100b9578063bc197c81146100d5578063c12639f714610105578063f23a6e6114610121575b600080fd5b610081600480360381019061007c9190610ba9565b610151565b005b61009d60048036038101906100989190610b31565b61027c565b6040516100b09796959493929190610e8d565b60405180910390f35b6100d360048036038101906100ce9190610b5a565b61030b565b005b6100ef60048036038101906100ea91906109aa565b610610565b6040516100fc9190610efc565b60405180910390f35b61011f600480360381019061011a9190610b5a565b610628565b005b61013b60048036038101906101369190610a76565b610897565b6040516101489190610efc565b60405180910390f35b60003385858560005460405160200161016e959493929190610df7565b60405160208183030381529060405280519060200120905060016000808282546101989190610fa8565b92505081905550600060016000838152602001908152602001600020905060008160000160006101000a81548160ff021916908315150217905550858160000160016101000a81548173ffffffffffffffffffffffffffffffffffffffff021916908373ffffffffffffffffffffffffffffffffffffffff160217905550338160010160006101000a81548173ffffffffffffffffffffffffffffffffffffffff021916908373ffffffffffffffffffffffffffffffffffffffff160217905550818160020181905550828160030181905550838160050181905550505050505050565b60016020528060005260406000206000915090508060000160009054906101000a900460ff16908060000160019054906101000a900473ffffffffffffffffffffffffffffffffffffffff16908060010160009054906101000a900473ffffffffffffffffffffffffffffffffffffffff16908060020154908060030154908060040154908060050154905087565b6000801b60016000858152602001908152602001600020600201541415610367576040517f08c379a000000000000000000000000000000000000000000000000000000000815260040161035e90610f57565b60405180910390fd5b8173ffffffffffffffffffffffffffffffffffffffff166001600085815260200190815260200160002060000160019054906101000a900473ffffffffffffffffffffffffffffffffffffffff1673ffffffffffffffffffffffffffffffffffffffff161461040b576040517f08c379a000000000000000000000000000000000000000000000000000000000815260040161040290610f77565b60405180910390fd5b6000811161044e576040517f08c379a000000000000000000000000000000000000000000000000000000000815260040161044590610f37565b60405180910390fd5b6001600084815260200190815260200160002060060160003373ffffffffffffffffffffffffffffffffffffffff1673ffffffffffffffffffffffffffffffffffffffff168152602001908152602001600020548111156104e4576040517f08c379a00000000000000000000000000000000000000000000000000000000081526004016104db90610f17565b60405180910390fd5b8060016000858152602001908152602001600020600401600082825461050a9190610ffe565b92505081905550806001600085815260200190815260200160002060060160003373ffffffffffffffffffffffffffffffffffffffff1673ffffffffffffffffffffffffffffffffffffffff16815260200190815260200160002060008282546105749190610ffe565b925050819055508173ffffffffffffffffffffffffffffffffffffffff166323b872dd3033846040518463ffffffff1660e01b81526004016105b893929190610e56565b602060405180830381600087803b1580156105d257600080fd5b505af11580156105e6573d6000803e3d6000fd5b505050506040513d601f19601f8201168201806040525081019061060a9190610b08565b50505050565b600063bc197c8160e01b905098975050505050505050565b6000801b60016000858152602001908152602001600020600201541415610684576040517f08c379a000000000000000000000000000000000000000000000000000000000815260040161067b90610f57565b60405180910390fd5b8173ffffffffffffffffffffffffffffffffffffffff166001600085815260200190815260200160002060000160019054906101000a900473ffffffffffffffffffffffffffffffffffffffff1673ffffffffffffffffffffffffffffffffffffffff1614610728576040517f08c379a000000000000000000000000000000000000000000000000000000000815260040161071f90610f77565b60405180910390fd5b6000811161076b576040517f08c379a000000000000000000000000000000000000000000000000000000000815260040161076290610f37565b60405180910390fd5b806001600085815260200190815260200160002060040160008282546107919190610fa8565b92505081905550806001600085815260200190815260200160002060060160003373ffffffffffffffffffffffffffffffffffffffff1673ffffffffffffffffffffffffffffffffffffffff16815260200190815260200160002060008282546107fb9190610fa8565b925050819055508173ffffffffffffffffffffffffffffffffffffffff166323b872dd3330846040518463ffffffff1660e01b815260040161083f93929190610e56565b602060405180830381600087803b15801561085957600080fd5b505af115801561086d573d6000803e3d6000fd5b505050506040513d601f19601f820116820180604052508101906108919190610b08565b50505050565b600063f23a6e6160e01b90509695505050505050565b6000813590506108bc81611150565b92915050565b60008083601f8401126108d457600080fd5b8235905067ffffffffffffffff8111156108ed57600080fd5b60208301915083602082028301111561090557600080fd5b9250929050565b60008151905061091b81611167565b92915050565b6000813590506109308161117e565b92915050565b60008083601f84011261094857600080fd5b8235905067ffffffffffffffff81111561096157600080fd5b60208301915083600182028301111561097957600080fd5b9250929050565b60008135905061098f81611195565b92915050565b6000813590506109a4816111ac565b92915050565b60008060008060008060008060a0898b0312156109c657600080fd5b60006109d48b828c016108ad565b98505060206109e58b828c016108ad565b975050604089013567ffffffffffffffff811115610a0257600080fd5b610a0e8b828c016108c2565b9650965050606089013567ffffffffffffffff811115610a2d57600080fd5b610a398b828c016108c2565b9450945050608089013567ffffffffffffffff811115610a5857600080fd5b610a648b828c01610936565b92509250509295985092959890939650565b60008060008060008060a08789031215610a8f57600080fd5b6000610a9d89828a016108ad565b9650506020610aae89828a016108ad565b9550506040610abf89828a01610995565b9450506060610ad089828a01610995565b935050608087013567ffffffffffffffff811115610aed57600080fd5b610af989828a01610936565b92509250509295509295509295565b600060208284031215610b1a57600080fd5b6000610b288482850161090c565b91505092915050565b600060208284031215610b4357600080fd5b6000610b5184828501610921565b91505092915050565b600080600060608486031215610b6f57600080fd5b6000610b7d86828701610921565b9350506020610b8e86828701610980565b9250506040610b9f86828701610995565b9150509250925092565b60008060008060808587031215610bbf57600080fd5b6000610bcd87828801610980565b9450506020610bde878288016108ad565b9350506040610bef87828801610995565b9250506060610c0087828801610921565b91505092959194509250565b610c1581611032565b82525050565b610c2c610c2782611032565b6110e6565b82525050565b610c3b81611044565b82525050565b610c4a81611050565b82525050565b610c598161105a565b82525050565b610c68816110c2565b82525050565b610c7f610c7a826110c2565b6110e6565b82525050565b6000610c92602583610f97565b91507f436f6d6d69747465642066756e6473206973206c6f776572207468616e20616d60008301527f6f756e742e0000000000000000000000000000000000000000000000000000006020830152604082019050919050565b6000610cf8601583610f97565b91507f416d6f756e742063616e6e6f74206265207a65726f00000000000000000000006000830152602082019050919050565b6000610d38601783610f97565b91507f50726f706f73616c20646f6573206e6f742065786973740000000000000000006000830152602082019050919050565b6000610d78603183610f97565b91507f50726f706f73616c20646f6573206e6f7420696e636c7564652074686973207460008301527f6f6b656e20746f2062652066756e6465640000000000000000000000000000006020830152604082019050919050565b610dda816110b8565b82525050565b610df1610dec826110b8565b61110a565b82525050565b6000610e038288610c1b565b601482019150610e138287610c6e565b601482019150610e238286610c1b565b601482019150610e338285610de0565b602082019150610e438284610de0565b6020820191508190509695505050505050565b6000606082019050610e6b6000830186610c0c565b610e786020830185610c0c565b610e856040830184610dd1565b949350505050565b600060e082019050610ea2600083018a610c32565b610eaf6020830189610c5f565b610ebc6040830188610c0c565b610ec96060830187610c41565b610ed66080830186610c41565b610ee360a0830185610dd1565b610ef060c0830184610dd1565b98975050505050505050565b6000602082019050610f116000830184610c50565b92915050565b60006020820190508181036000830152610f3081610c85565b9050919050565b60006020820190508181036000830152610f5081610ceb565b9050919050565b60006020820190508181036000830152610f7081610d2b565b9050919050565b60006020820190508181036000830152610f9081610d6b565b9050919050565b600082825260208201905092915050565b6000610fb3826110b8565b9150610fbe836110b8565b9250827fffffffffffffffffffffffffffffffffffffffffffffffffffffffffffffffff03821115610ff357610ff2611114565b5b828201905092915050565b6000611009826110b8565b9150611014836110b8565b92508282101561102757611026611114565b5b828203905092915050565b600061103d82611098565b9050919050565b60008115159050919050565b6000819050919050565b60007fffffffff0000000000000000000000000000000000000000000000000000000082169050919050565b600061109182611032565b9050919050565b600073ffffffffffffffffffffffffffffffffffffffff82169050919050565b6000819050919050565b60006110cd826110d4565b9050919050565b60006110df82611098565b9050919050565b60006110f1826110f8565b9050919050565b600061110382611143565b9050919050565b6000819050919050565b7f4e487b7100000000000000000000000000000000000000000000000000000000600052601160045260246000fd5b60008160601b9050919050565b61115981611032565b811461116457600080fd5b50565b61117081611044565b811461117b57600080fd5b50565b61118781611050565b811461119257600080fd5b50565b61119e81611086565b81146111a957600080fd5b50565b6111b5816110b8565b81146111c057600080fd5b5056fea2646970667358221220654f1575cb1e5b3d27a658a1260eb713eed120dfa732605780e546a446823bf264736f6c63430008000033",
  "linkReferences": {},
  "deployedLinkReferences": {}
}