{
  "_format": "hh-sol-artifact-1",
  "contractName": "BasicSolverV1",
  "sourceName": "contracts/BasicSolverV1.sol",
  "abi": [
    {
      "anonymous": false,
      "inputs": [
        {
          "indexed": false,
          "internalType": "address",
          "name": "chainChild",
          "type": "address"
        }
      ],
      "name": "DeployedChild",
      "type": "event"
    },
    {
      "anonymous": false,
      "inputs": [
        {
          "indexed": false,
          "internalType": "address",
          "name": "solver",
          "type": "address"
        },
        {
          "indexed": false,
          "internalType": "uint256",
          "name": "solveIndex",
          "type": "uint256"
        }
      ],
      "name": "PreparedSolve",
      "type": "event"
    },
    {
      "inputs": [
        {
          "internalType": "uint256",
          "name": "_key",
          "type": "uint256"
        },
        {
          "internalType": "bytes",
          "name": "_data",
          "type": "bytes"
        }
      ],
      "name": "addData",
      "outputs": [],
      "stateMutability": "nonpayable",
      "type": "function"
    },
    {
      "inputs": [
        {
          "internalType": "uint256",
          "name": "_index",
          "type": "uint256"
        }
      ],
      "name": "addressFromChainIndex",
      "outputs": [
        {
          "internalType": "address",
          "name": "",
          "type": "address"
        }
      ],
      "stateMutability": "view",
      "type": "function"
    },
    {
      "inputs": [
        {
          "internalType": "uint256",
          "name": "_index",
          "type": "uint256"
        },
        {
          "internalType": "uint256[]",
          "name": "payouts",
          "type": "uint256[]"
        }
      ],
      "name": "arbitrate",
      "outputs": [],
      "stateMutability": "nonpayable",
      "type": "function"
    },
    {
      "inputs": [
        {
          "internalType": "uint256",
          "name": "_index",
          "type": "uint256"
        }
      ],
      "name": "arbitrateNull",
      "outputs": [],
      "stateMutability": "nonpayable",
      "type": "function"
    },
    {
      "inputs": [
        {
          "internalType": "uint256",
          "name": "_index",
          "type": "uint256"
        }
      ],
      "name": "arbitrationPending",
      "outputs": [],
      "stateMutability": "nonpayable",
      "type": "function"
    },
    {
      "inputs": [
        {
          "internalType": "uint256",
          "name": "_index",
          "type": "uint256"
        }
      ],
      "name": "arbitrationRequested",
      "outputs": [],
      "stateMutability": "nonpayable",
      "type": "function"
    },
    {
      "inputs": [],
      "name": "chainChild",
      "outputs": [
        {
          "internalType": "address",
          "name": "",
          "type": "address"
        }
      ],
      "stateMutability": "view",
      "type": "function"
    },
    {
      "inputs": [],
      "name": "chainIndex",
      "outputs": [
        {
          "internalType": "uint256",
          "name": "",
          "type": "uint256"
        }
      ],
      "stateMutability": "view",
      "type": "function"
    },
    {
      "inputs": [],
      "name": "chainParent",
      "outputs": [
        {
          "internalType": "address",
          "name": "",
          "type": "address"
        }
      ],
      "stateMutability": "view",
      "type": "function"
    },
    {
      "inputs": [
        {
          "internalType": "uint256",
          "name": "",
          "type": "uint256"
        }
      ],
      "name": "conditions",
      "outputs": [
        {
          "internalType": "contract IERC20",
          "name": "collateralToken",
          "type": "address"
        },
        {
          "internalType": "bytes32",
          "name": "questionId",
          "type": "bytes32"
        },
        {
          "internalType": "bytes32",
          "name": "parentCollectionId",
          "type": "bytes32"
        },
        {
          "internalType": "bytes32",
          "name": "conditionId",
          "type": "bytes32"
        },
        {
          "internalType": "enum SolverLib.Status",
          "name": "status",
          "type": "uint8"
        }
      ],
      "stateMutability": "view",
      "type": "function"
    },
    {
      "inputs": [],
      "name": "config",
      "outputs": [
        {
          "internalType": "contract Solver",
          "name": "implementation",
          "type": "address"
        },
        {
          "internalType": "address",
          "name": "keeper",
          "type": "address"
        },
        {
          "internalType": "address",
          "name": "arbitrator",
          "type": "address"
        },
        {
          "internalType": "uint256",
          "name": "timelockSeconds",
          "type": "uint256"
        },
        {
          "internalType": "bytes",
          "name": "data",
          "type": "bytes"
        },
        {
          "components": [
            {
              "internalType": "contract IERC20",
              "name": "collateralToken",
              "type": "address"
            },
            {
              "internalType": "uint256",
              "name": "outcomeSlots",
              "type": "uint256"
            },
            {
              "internalType": "uint256",
              "name": "parentCollectionIndexSet",
              "type": "uint256"
            },
            {
              "internalType": "uint256",
              "name": "amountSlot",
              "type": "uint256"
            },
            {
              "internalType": "uint256[]",
              "name": "partition",
              "type": "uint256[]"
            },
            {
              "internalType": "uint256[]",
              "name": "recipientAddressSlots",
              "type": "uint256[]"
            },
            {
              "internalType": "uint256[][]",
              "name": "recipientAmountSlots",
              "type": "uint256[][]"
            },
            {
              "internalType": "string",
              "name": "conditionURI",
              "type": "string"
            }
          ],
          "internalType": "struct SolverLib.ConditionBase",
          "name": "conditionBase",
          "type": "tuple"
        }
      ],
      "stateMutability": "view",
      "type": "function"
    },
    {
      "inputs": [
        {
          "internalType": "uint256",
          "name": "_index",
          "type": "uint256"
        }
      ],
      "name": "confirmPayouts",
      "outputs": [],
      "stateMutability": "nonpayable",
      "type": "function"
    },
    {
      "inputs": [
        {
          "components": [
            {
              "internalType": "contract Solver",
              "name": "implementation",
              "type": "address"
            },
            {
              "internalType": "address",
              "name": "keeper",
              "type": "address"
            },
            {
              "internalType": "address",
              "name": "arbitrator",
              "type": "address"
            },
            {
              "internalType": "uint256",
              "name": "timelockSeconds",
              "type": "uint256"
            },
            {
              "internalType": "bytes",
              "name": "data",
              "type": "bytes"
            },
            {
              "components": [
                {
                  "internalType": "uint256",
                  "name": "executions",
                  "type": "uint256"
                },
                {
                  "internalType": "enum SolverLib.IngestType",
                  "name": "ingestType",
                  "type": "uint8"
                },
                {
                  "internalType": "uint256",
                  "name": "key",
                  "type": "uint256"
                },
                {
                  "internalType": "uint256",
                  "name": "solverIndex",
                  "type": "uint256"
                },
                {
                  "internalType": "bytes",
                  "name": "data",
                  "type": "bytes"
                }
              ],
              "internalType": "struct SolverLib.Ingest[]",
              "name": "ingests",
              "type": "tuple[]"
            },
            {
              "components": [
                {
                  "internalType": "contract IERC20",
                  "name": "collateralToken",
                  "type": "address"
                },
                {
                  "internalType": "uint256",
                  "name": "outcomeSlots",
                  "type": "uint256"
                },
                {
                  "internalType": "uint256",
                  "name": "parentCollectionIndexSet",
                  "type": "uint256"
                },
                {
                  "internalType": "uint256",
                  "name": "amountSlot",
                  "type": "uint256"
                },
                {
                  "internalType": "uint256[]",
                  "name": "partition",
                  "type": "uint256[]"
                },
                {
                  "internalType": "uint256[]",
                  "name": "recipientAddressSlots",
                  "type": "uint256[]"
                },
                {
                  "internalType": "uint256[][]",
                  "name": "recipientAmountSlots",
                  "type": "uint256[][]"
                },
                {
                  "internalType": "string",
                  "name": "conditionURI",
                  "type": "string"
                }
              ],
              "internalType": "struct SolverLib.ConditionBase",
              "name": "conditionBase",
              "type": "tuple"
            }
          ],
          "internalType": "struct SolverLib.Config",
          "name": "_config",
          "type": "tuple"
        }
      ],
      "name": "deployChild",
      "outputs": [
        {
          "internalType": "contract Solver",
          "name": "_solver",
          "type": "address"
        }
      ],
      "stateMutability": "nonpayable",
      "type": "function"
    },
    {
      "inputs": [
        {
          "internalType": "uint256",
          "name": "_index",
          "type": "uint256"
        }
      ],
      "name": "executeSolve",
      "outputs": [],
      "stateMutability": "nonpayable",
      "type": "function"
    },
    {
      "inputs": [
        {
          "internalType": "uint256",
          "name": "token",
          "type": "uint256"
        }
      ],
      "name": "getCTBalance",
      "outputs": [
        {
          "internalType": "uint256",
          "name": "",
          "type": "uint256"
        }
      ],
      "stateMutability": "view",
      "type": "function"
    },
    {
      "inputs": [],
      "name": "getConditions",
      "outputs": [
        {
          "components": [
            {
              "internalType": "contract IERC20",
              "name": "collateralToken",
              "type": "address"
            },
            {
              "internalType": "bytes32",
              "name": "questionId",
              "type": "bytes32"
            },
            {
              "internalType": "bytes32",
              "name": "parentCollectionId",
              "type": "bytes32"
            },
            {
              "internalType": "bytes32",
              "name": "conditionId",
              "type": "bytes32"
            },
            {
              "internalType": "uint256[]",
              "name": "payouts",
              "type": "uint256[]"
            },
            {
              "internalType": "enum SolverLib.Status",
              "name": "status",
              "type": "uint8"
            }
          ],
          "internalType": "struct SolverLib.Condition[]",
          "name": "",
          "type": "tuple[]"
        }
      ],
      "stateMutability": "view",
      "type": "function"
    },
    {
      "inputs": [
        {
          "internalType": "uint256",
          "name": "_key",
          "type": "uint256"
        }
      ],
      "name": "getOutput",
      "outputs": [
        {
          "internalType": "bytes",
          "name": "data",
          "type": "bytes"
        }
      ],
      "stateMutability": "view",
      "type": "function"
    },
    {
      "inputs": [
        {
          "internalType": "uint256",
          "name": "_slot",
          "type": "uint256"
        }
      ],
      "name": "handleCallback",
      "outputs": [],
      "stateMutability": "nonpayable",
      "type": "function"
    },
    {
      "inputs": [],
      "name": "ingestsValid",
      "outputs": [
        {
          "internalType": "bool",
          "name": "",
          "type": "bool"
        }
      ],
      "stateMutability": "view",
      "type": "function"
    },
    {
      "inputs": [
        {
          "internalType": "address",
          "name": "_chainParent",
          "type": "address"
        },
        {
          "internalType": "uint256",
          "name": "_chainIndex",
          "type": "uint256"
        },
        {
          "components": [
            {
              "internalType": "contract Solver",
              "name": "implementation",
              "type": "address"
            },
            {
              "internalType": "address",
              "name": "keeper",
              "type": "address"
            },
            {
              "internalType": "address",
              "name": "arbitrator",
              "type": "address"
            },
            {
              "internalType": "uint256",
              "name": "timelockSeconds",
              "type": "uint256"
            },
            {
              "internalType": "bytes",
              "name": "data",
              "type": "bytes"
            },
            {
              "components": [
                {
                  "internalType": "uint256",
                  "name": "executions",
                  "type": "uint256"
                },
                {
                  "internalType": "enum SolverLib.IngestType",
                  "name": "ingestType",
                  "type": "uint8"
                },
                {
                  "internalType": "uint256",
                  "name": "key",
                  "type": "uint256"
                },
                {
                  "internalType": "uint256",
                  "name": "solverIndex",
                  "type": "uint256"
                },
                {
                  "internalType": "bytes",
                  "name": "data",
                  "type": "bytes"
                }
              ],
              "internalType": "struct SolverLib.Ingest[]",
              "name": "ingests",
              "type": "tuple[]"
            },
            {
              "components": [
                {
                  "internalType": "contract IERC20",
                  "name": "collateralToken",
                  "type": "address"
                },
                {
                  "internalType": "uint256",
                  "name": "outcomeSlots",
                  "type": "uint256"
                },
                {
                  "internalType": "uint256",
                  "name": "parentCollectionIndexSet",
                  "type": "uint256"
                },
                {
                  "internalType": "uint256",
                  "name": "amountSlot",
                  "type": "uint256"
                },
                {
                  "internalType": "uint256[]",
                  "name": "partition",
                  "type": "uint256[]"
                },
                {
                  "internalType": "uint256[]",
                  "name": "recipientAddressSlots",
                  "type": "uint256[]"
                },
                {
                  "internalType": "uint256[][]",
                  "name": "recipientAmountSlots",
                  "type": "uint256[][]"
                },
                {
                  "internalType": "string",
                  "name": "conditionURI",
                  "type": "string"
                }
              ],
              "internalType": "struct SolverLib.ConditionBase",
              "name": "conditionBase",
              "type": "tuple"
            }
          ],
          "internalType": "struct SolverLib.Config",
          "name": "_solverConfig",
          "type": "tuple"
        }
      ],
      "name": "init",
      "outputs": [],
      "stateMutability": "nonpayable",
      "type": "function"
    },
    {
      "inputs": [
        {
          "internalType": "address",
          "name": "operator",
          "type": "address"
        },
        {
          "internalType": "address",
          "name": "from",
          "type": "address"
        },
        {
          "internalType": "uint256[]",
          "name": "ids",
          "type": "uint256[]"
        },
        {
          "internalType": "uint256[]",
          "name": "values",
          "type": "uint256[]"
        },
        {
          "internalType": "bytes",
          "name": "data",
          "type": "bytes"
        }
      ],
      "name": "onERC1155BatchReceived",
      "outputs": [
        {
          "internalType": "bytes4",
          "name": "",
          "type": "bytes4"
        }
      ],
      "stateMutability": "nonpayable",
      "type": "function"
    },
    {
      "inputs": [
        {
          "internalType": "address",
          "name": "operator",
          "type": "address"
        },
        {
          "internalType": "address",
          "name": "from",
          "type": "address"
        },
        {
          "internalType": "uint256",
          "name": "id",
          "type": "uint256"
        },
        {
          "internalType": "uint256",
          "name": "value",
          "type": "uint256"
        },
        {
          "internalType": "bytes",
          "name": "data",
          "type": "bytes"
        }
      ],
      "name": "onERC1155Received",
      "outputs": [
        {
          "internalType": "bytes4",
          "name": "",
          "type": "bytes4"
        }
      ],
      "stateMutability": "nonpayable",
      "type": "function"
    },
    {
      "inputs": [
        {
          "internalType": "uint256",
          "name": "_index",
          "type": "uint256"
        }
      ],
      "name": "prepareSolve",
      "outputs": [],
      "stateMutability": "nonpayable",
      "type": "function"
    },
    {
      "inputs": [
        {
          "internalType": "uint256",
          "name": "_index",
          "type": "uint256"
        },
        {
          "internalType": "uint256[]",
          "name": "_payouts",
          "type": "uint256[]"
        }
      ],
      "name": "proposePayouts",
      "outputs": [],
      "stateMutability": "nonpayable",
      "type": "function"
    },
    {
      "inputs": [
        {
          "internalType": "contract IERC20",
          "name": "_collateralToken",
          "type": "address"
        },
        {
          "internalType": "bytes32",
          "name": "_parentCollectionId",
          "type": "bytes32"
        },
        {
          "internalType": "bytes32",
          "name": "_conditionId",
          "type": "bytes32"
        },
        {
          "internalType": "uint256[]",
          "name": "_indexSets",
          "type": "uint256[]"
        }
      ],
      "name": "redeemPosition",
      "outputs": [],
      "stateMutability": "nonpayable",
      "type": "function"
    },
    {
      "inputs": [
        {
          "internalType": "uint256",
          "name": "_slot",
          "type": "uint256"
        },
        {
          "internalType": "uint256",
          "name": "_chainIndex",
          "type": "uint256"
        }
      ],
      "name": "registerCallback",
      "outputs": [],
      "stateMutability": "nonpayable",
      "type": "function"
    },
    {
      "inputs": [
        {
          "internalType": "bytes32",
          "name": "_trackingId",
          "type": "bytes32"
        }
      ],
      "name": "setTrackingId",
      "outputs": [],
      "stateMutability": "nonpayable",
      "type": "function"
    },
    {
      "inputs": [
        {
          "internalType": "bytes4",
          "name": "interfaceId",
          "type": "bytes4"
        }
      ],
      "name": "supportsInterface",
      "outputs": [
        {
          "internalType": "bool",
          "name": "",
          "type": "bool"
        }
      ],
      "stateMutability": "view",
      "type": "function"
    },
    {
      "inputs": [],
      "name": "timelock",
      "outputs": [
        {
          "internalType": "uint256",
          "name": "",
          "type": "uint256"
        }
      ],
      "stateMutability": "view",
      "type": "function"
    },
    {
      "inputs": [],
      "name": "trackingId",
      "outputs": [
        {
          "internalType": "bytes32",
          "name": "",
          "type": "bytes32"
        }
      ],
      "stateMutability": "view",
      "type": "function"
    }
  ],
  "bytecode": "0x608060405234801561001057600080fd5b5061482f806100206000396000f3fe608060405234801561001057600080fd5b50600436106101da5760003560e01c80637c12362711610104578063a9747026116100a2578063d33219b411610071578063d33219b414610407578063d8b623161461040f578063ea8221a914610422578063f23a6e611461042a576101da565b8063a9747026146103ae578063b992db0f146103c1578063bc197c81146103d4578063c247bcb3146103f4576101da565b806387dfee57116100de57806387dfee571461036d57806399992506146103805780639f9ecd5c14610388578063a072d7b01461039b576101da565b80637c1236271461033d57806380b204b71461035257806380c2dde214610365576101da565b80633837b05e1161017c5780634e46f2231161014b5780634e46f223146102f557806355dd978b146103085780635d46fd0c1461031057806379502c5514610323576101da565b80633837b05e1461029a57806348cbb2fc146102ba5780634a77234e146102cf5780634dab5e69146102e2576101da565b80630d8d3975116101b85780630d8d39751461023057806317861f8714610243578063187825591461026357806326c5000714610276576101da565b806301ffc9a7146101df57806307c068b6146102085780630d06101a1461021d575b600080fd5b6101f26101ed366004612b86565b61043d565b6040516101ff91906135fc565b60405180910390f35b61021b610216366004612b6e565b610483565b005b61021b61022b366004612b6e565b6105cb565b61021b61023e366004612b6e565b6105f0565b610256610251366004612b6e565b61071e565b6040516101ff9190613625565b61021b610271366004612c21565b6107ee565b610289610284366004612b6e565b6108a9565b6040516101ff959493929190613672565b6102ad6102a8366004612b6e565b6108f7565b6040516101ff9190613431565b6102c26109d5565b6040516101ff9190613607565b61021b6102dd366004612b6e565b6109db565b61021b6102f0366004612b6e565b610c69565b61021b610303366004612b6e565b610d43565b6102ad610e1d565b61021b61031e366004612af7565b610e2c565b61032b610f3f565b6040516101ff969594939291906136a5565b61034561120e565b6040516101ff91906134a4565b61021b610360366004612d9b565b61133d565b6102ad611482565b61021b61037b366004612de5565b611491565b6101f26115ec565b6102ad610396366004612d48565b611699565b61021b6103a9366004612b6e565b6117f3565b61021b6103bc366004612f00565b611b38565b61021b6103cf366004612b6e565b611ba2565b6103e76103e2366004612989565b611eb8565b6040516101ff9190613610565b6102c2610402366004612b6e565b611ee5565b6102c2611f88565b61021b61041d366004612e81565b611f8e565b6102c2611fc6565b6103e7610438366004612a44565b611fcc565b60006001600160e01b031982167f4e2312e000000000000000000000000000000000000000000000000000000000148061047b575061047b82611ff8565b90505b919050565b6003546001600160a01b031633146104b65760405162461bcd60e51b81526004016104ad90613a78565b60405180910390fd5b6003600f82815481106104d957634e487b7160e01b600052603260045260246000fd5b600091825260209091206006918202016005015460ff169081111561050e57634e487b7160e01b600052602160045260246000fd5b1461052b5760405162461bcd60e51b81526004016104ad906139ad565b73__$94d7d2f22770e4b0d1a2b99fb2812308e2$__63ec7ac2f0600f838154811061056657634e487b7160e01b600052603260045260246000fd5b90600052602060002090600602016040518263ffffffff1660e01b81526004016105909190613607565b60006040518083038186803b1580156105a857600080fd5b505af41580156105bc573d6000803e3d6000fd5b505050506105c861202a565b50565b601554156105eb5760405162461bcd60e51b81526004016104ad90613bf9565b601555565b60145442116106115760405162461bcd60e51b81526004016104ad9061393f565b6002600f828154811061063457634e487b7160e01b600052603260045260246000fd5b600091825260209091206006918202016005015460ff169081111561066957634e487b7160e01b600052602160045260246000fd5b146106865760405162461bcd60e51b81526004016104ad90613ae6565b73__$94d7d2f22770e4b0d1a2b99fb2812308e2$__63696d4661600f83815481106106c157634e487b7160e01b600052603260045260246000fd5b90600052602060002090600602016040518263ffffffff1660e01b81526004016106eb9190613607565b60006040518083038186803b15801561070357600080fd5b505af4158015610717573d6000803e3d6000fd5b5050505050565b600f54600082815260196020526040902054606091146107505760405162461bcd60e51b81526004016104ad90613a41565b60008281526018602052604090208054610769906142d9565b80601f0160208091040260200160405190810160405280929190818152602001828054610795906142d9565b80156107e25780601f106107b7576101008083540402835291602001916107e2565b820191906000526020600020905b8154815290600101906020018083116107c557829003601f168201915b50505050509050919050565b6002546001600160a01b031633146108185760405162461bcd60e51b81526004016104ad90613908565b6040517f01b7037c000000000000000000000000000000000000000000000000000000008152735fbdb2315678afecb367f032d93f642f64180aa3906301b7037c906108709088908890889088908890600401613638565b600060405180830381600087803b15801561088a57600080fd5b505af115801561089e573d6000803e3d6000fd5b505050505050505050565b600f81815481106108b957600080fd5b6000918252602090912060069091020180546001820154600283015460038401546005909401546001600160a01b0390931694509092909160ff1685565b600060135482141561090a57503061047e565b60135482101561099b57601154604051631c1bd82f60e11b81526001600160a01b0390911690633837b05e90610944908590600401613607565b60206040518083038186803b15801561095c57600080fd5b505afa158015610970573d6000803e3d6000fd5b505050506040513d601f19601f82011682018060405250810190610994919061296d565b905061047e565b60135482111561047e57601254604051631c1bd82f60e11b81526001600160a01b0390911690633837b05e90610944908590600401613607565b60155481565b6002546001600160a01b03163314806109fe57506011546001600160a01b031633145b610a1a5760405162461bcd60e51b81526004016104ad90613bc2565b600f548114610a3b5760405162461bcd60e51b81526004016104ad9061389a565b601154600f80546040517f5069a07c000000000000000000000000000000000000000000000000000000008152919273__$94d7d2f22770e4b0d1a2b99fb2812308e2$__92635069a07c92610aa3926007926001600160a01b03909116913091600401613c9e565b60006040518083038186803b158015610abb57600080fd5b505af4158015610acf573d6000803e3d6000fd5b505050506040513d6000823e601f3d908101601f19168201604052610af79190810190612c89565b8154600180820184556000938452602093849020835160069093020180546001600160a01b0319166001600160a01b03909316929092178255828401519082015560408201516002820155606082015160038201556080820151805192939192610b679260048501920190612746565b5060a082015160058201805460ff19166001836006811115610b9957634e487b7160e01b600052602160045260246000fd5b02179055505050610ba8612047565b7f152ec8ae15d347b2d2a8f0858caa29bcaaa0906749a1f43e08bfe799834602403082604051610bd992919061348b565b60405180910390a16012546001600160a01b0316156105c8576012546040517f4a77234e0000000000000000000000000000000000000000000000000000000081526001600160a01b0390911690634a77234e90610c3b908490600401613607565b600060405180830381600087803b158015610c5557600080fd5b505af1158015610717573d6000803e3d6000fd5b6003546001600160a01b03163314610c935760405162461bcd60e51b81526004016104ad90613a78565b6002600f8281548110610cb657634e487b7160e01b600052603260045260246000fd5b600091825260209091206006918202016005015460ff1690811115610ceb57634e487b7160e01b600052602160045260246000fd5b14610d085760405162461bcd60e51b81526004016104ad90613b1d565b73__$94d7d2f22770e4b0d1a2b99fb2812308e2$__6324b28602600f838154811061056657634e487b7160e01b600052603260045260246000fd5b6003546001600160a01b03163314610d6d5760405162461bcd60e51b81526004016104ad90613a78565b6004600f8281548110610d9057634e487b7160e01b600052603260045260246000fd5b600091825260209091206006918202016005015460ff1690811115610dc557634e487b7160e01b600052602160045260246000fd5b14610de25760405162461bcd60e51b81526004016104ad90613b54565b73__$94d7d2f22770e4b0d1a2b99fb2812308e2$__6359111fb5600f838154811061056657634e487b7160e01b600052603260045260246000fd5b6012546001600160a01b031681565b600054610100900460ff1680610e45575060005460ff16155b610e615760405162461bcd60e51b81526004016104ad906139e4565b600054610100900460ff16158015610e8c576000805460ff1961ff0019909116610100171660011790555b3373e7f1725e7734ce288f8367e1bb143e90bb3f051214610ebf5760405162461bcd60e51b81526004016104ad906138d1565b6000610ed1604084016020850161294a565b6001600160a01b03161415610ef85760405162461bcd60e51b81526004016104ad90613aaf565b601180546001600160a01b0319166001600160a01b0386161790556013839055816001610f258282614558565b50508015610f39576000805461ff00191690555b50505050565b60018054600254600354600454600580546001600160a01b039586169694861695909316939192610f6f906142d9565b80601f0160208091040260200160405190810160405280929190818152602001828054610f9b906142d9565b8015610fe85780601f10610fbd57610100808354040283529160200191610fe8565b820191906000526020600020905b815481529060010190602001808311610fcb57829003601f168201915b505060408051610100810182526006870180546001600160a01b03168252600788015460208084019190915260088901548385015260098901546060840152600a8901805485518184028101840190965280865298999893975091955060808701945090919083018282801561107d57602002820191906000526020600020905b815481526020019060010190808311611069575b50505050508152602001600582018054806020026020016040519081016040528092919081815260200182805480156110d557602002820191906000526020600020905b8154815260200190600101908083116110c1575b5050505050815260200160068201805480602002602001604051908101604052809291908181526020016000905b8282101561116f5760008481526020908190208301805460408051828502810185019091528181529283018282801561115b57602002820191906000526020600020905b815481526020019060010190808311611147575b505050505081526020019060010190611103565b505050508152602001600782018054611187906142d9565b80601f01602080910402602001604051908101604052809291908181526020018280546111b3906142d9565b80156112005780601f106111d557610100808354040283529160200191611200565b820191906000526020600020905b8154815290600101906020018083116111e357829003601f168201915b505050505081525050905086565b6060600f805480602002602001604051908101604052809291908181526020016000905b828210156113345760008481526020908190206040805160c0810182526006860290920180546001600160a01b0316835260018101548385015260028101548383015260038101546060840152600481018054835181870281018701909452808452939491936080860193928301828280156112cd57602002820191906000526020600020905b8154815260200190600101908083116112b9575b5050509183525050600582015460209091019060ff16600681111561130257634e487b7160e01b600052602160045260246000fd5b600681111561132157634e487b7160e01b600052602160045260246000fd5b8152505081526020019060010190611232565b50505050905090565b6002546001600160a01b031633146113675760405162461bcd60e51b81526004016104ad90613908565b6001600f848154811061138a57634e487b7160e01b600052603260045260246000fd5b600091825260209091206006918202016005015460ff16908111156113bf57634e487b7160e01b600052602160045260246000fd5b146113dc5760405162461bcd60e51b81526004016104ad9061382c565b73__$94d7d2f22770e4b0d1a2b99fb2812308e2$__636a0a24f1600f858154811061141757634e487b7160e01b600052603260045260246000fd5b906000526020600020906006020184846040518463ffffffff1660e01b815260040161144593929190613cd4565b60006040518083038186803b15801561145d57600080fd5b505af4158015611471573d6000803e3d6000fd5b5050505061147d61202a565b505050565b6011546001600160a01b031681565b6003546001600160a01b031633146114bb5760405162461bcd60e51b81526004016104ad90613a78565b6004600f83815481106114de57634e487b7160e01b600052603260045260246000fd5b600091825260209091206006918202016005015460ff169081111561151357634e487b7160e01b600052602160045260246000fd5b146115305760405162461bcd60e51b81526004016104ad90613b54565b60145442116115515760405162461bcd60e51b81526004016104ad9061393f565b73__$94d7d2f22770e4b0d1a2b99fb2812308e2$__6311ca1ac0600f848154811061158c57634e487b7160e01b600052603260045260246000fd5b9060005260206000209060060201836040518363ffffffff1660e01b81526004016115b8929190613cee565b60006040518083038186803b1580156115d057600080fd5b505af41580156115e4573d6000803e3d6000fd5b505050505050565b600f546040517f5cc1f6b500000000000000000000000000000000000000000000000000000000815260009173__$94d7d2f22770e4b0d1a2b99fb2812308e2$__91635cc1f6b5916116449160069190600401613556565b60206040518083038186803b15801561165c57600080fd5b505af4158015611670573d6000803e3d6000fd5b505050506040513d601f19601f820116820180604052508101906116949190612b4e565b905090565b6002546000906001600160a01b031633146116c65760405162461bcd60e51b81526004016104ad90613b8b565b6012546001600160a01b0316156116ef5760405162461bcd60e51b81526004016104ad906137f5565b6013546040517f4dd0aa4900000000000000000000000000000000000000000000000000000000815273__$94d7d2f22770e4b0d1a2b99fb2812308e2$__91634dd0aa4991611745918691309190600401613d7a565b604080518083038186803b15801561175c57600080fd5b505af4158015611770573d6000803e3d6000fd5b505050506040513d601f19601f820116820180604052508101906117949190612abe565b601280546001600160a01b0319166001600160a01b0393841617908190556040519193507fbd2e7fbdc9b1c19997e58c63e6ea1b5a02acd8dd9fd5d76f4bb18634f7155e80926117e692911690613431565b60405180910390a1919050565b6000338260405160200161180892919061340f565b60408051601f198184030181529181528151602092830120600081815260179093529120546006805492935061186e92909190811061185757634e487b7160e01b600052603260045260246000fd5b9060005260206000209060050201600301546108f7565b6001600160a01b0316336001600160a01b03161461189e5760405162461bcd60e51b81526004016104ad90613863565b6000818152601760205260408120546006805490919081106118d057634e487b7160e01b600052603260045260246000fd5b600091825260209091206001600590920201015460ff16600281111561190657634e487b7160e01b600052602160045260246000fd5b146119235760405162461bcd60e51b81526004016104ad906137be565b60008181526017602052604090205460068054909190811061195557634e487b7160e01b600052603260045260246000fd5b60009182526020822060059091020180549161197083614321565b909155505060008181526017602052604090205460068054611b26929081106119a957634e487b7160e01b600052603260045260246000fd5b906000526020600020906005020160020154336001600160a01b03166317861f876001600501601660010160008781526020019081526020016000205481548110611a0457634e487b7160e01b600052603260045260246000fd5b90600052602060002090600502016004018054611a20906142d9565b80601f0160208091040260200160405190810160405280929190818152602001828054611a4c906142d9565b8015611a995780601f10611a6e57610100808354040283529160200191611a99565b820191906000526020600020905b815481529060010190602001808311611a7c57829003601f168201915b5050505050806020019051810190611ab19190612d83565b6040518263ffffffff1660e01b8152600401611acd9190613607565b60006040518083038186803b158015611ae557600080fd5b505afa158015611af9573d6000803e3d6000fd5b505050506040513d6000823e601f3d908101601f19168201604052611b219190810190612bae565b612400565b60009081526017602052604081205550565b611b41816108f7565b6001600160a01b0316336001600160a01b031614611b715760405162461bcd60e51b81526004016104ad90613863565b5060009081526016602090815260408220805460018101825590835291200180546001600160a01b03191633179055565b6000600f8281548110611bc557634e487b7160e01b600052603260045260246000fd5b600091825260209091206006918202016005015460ff1690811115611bfa57634e487b7160e01b600052602160045260246000fd5b14611c175760405162461bcd60e51b81526004016104ad90613c67565b611c1f6115ec565b611c3b5760405162461bcd60e51b81526004016104ad90613976565b6001600f8281548110611c5e57634e487b7160e01b600052603260045260246000fd5b906000526020600020906006020160050160006101000a81548160ff02191690836006811115611c9e57634e487b7160e01b600052602160045260246000fd5b0217905550601154600f805473__$94d7d2f22770e4b0d1a2b99fb2812308e2$__92631e85323f926001600160a01b03909116916007919086908110611cf457634e487b7160e01b600052603260045260246000fd5b60009182526020808320600a54845260189091526040909220805460069092029092019190611d22906142d9565b80601f0160208091040260200160405190810160405280929190818152602001828054611d4e906142d9565b8015611d9b5780601f10611d7057610100808354040283529160200191611d9b565b820191906000526020600020905b815481529060010190602001808311611d7e57829003601f168201915b5050505050806020019051810190611db39190612d83565b6040518563ffffffff1660e01b8152600401611dd29493929190613445565b60006040518083038186803b158015611dea57600080fd5b505af4158015611dfe573d6000803e3d6000fd5b5050505073__$94d7d2f22770e4b0d1a2b99fb2812308e2$__6336696828600f8381548110611e3d57634e487b7160e01b600052603260045260246000fd5b906000526020600020906006020160016006013060186015546040518663ffffffff1660e01b8152600401611e76959493929190613d2e565b60006040518083038186803b158015611e8e57600080fd5b505af4158015611ea2573d6000803e3d6000fd5b50505050611eaf816105c8565b6105c881612483565b7fbc197c810000000000000000000000000000000000000000000000000000000098975050505050505050565b6040517efdd58e000000000000000000000000000000000000000000000000000000008152600090735fbdb2315678afecb367f032d93f642f64180aa39062fdd58e90611f38903090869060040161348b565b60206040518083038186803b158015611f5057600080fd5b505afa158015611f64573d6000803e3d6000fd5b505050506040513d601f19601f8201168201806040525081019061047b9190612d83565b60145481565b6002546001600160a01b03163314611fb85760405162461bcd60e51b81526004016104ad90613787565b611fc28282612400565b5050565b60135481565b7ff23a6e61000000000000000000000000000000000000000000000000000000005b9695505050505050565b6001600160e01b031981167f01ffc9a70000000000000000000000000000000000000000000000000000000014919050565b600454612038906001614121565b6120429042614109565b601455565b60005b6006548110156105c8576000600680548390811061207857634e487b7160e01b600052603260045260246000fd5b600091825260209091206001600590920201015460ff1660028111156120ae57634e487b7160e01b600052602160045260246000fd5b146120f2576120ed600160050182815481106120da57634e487b7160e01b600052603260045260246000fd5b906000526020600020906005020161256c565b6123ee565b6000306001600160a01b0316633837b05e6001600501848154811061212757634e487b7160e01b600052603260045260246000fd5b9060005260206000209060050201600301546040518263ffffffff1660e01b81526004016121559190613607565b60206040518083038186803b15801561216d57600080fd5b505afa158015612181573d6000803e3d6000fd5b505050506040513d601f19601f820116820180604052508101906121a5919061296d565b9050816016600101600083600160050186815481106121d457634e487b7160e01b600052603260045260246000fd5b906000526020600020906005020160040180546121f0906142d9565b80601f016020809104026020016040519081016040528092919081815260200182805461221c906142d9565b80156122695780601f1061223e57610100808354040283529160200191612269565b820191906000526020600020905b81548152906001019060200180831161224c57829003601f168201915b50505050508060200190518101906122819190612d83565b60405160200161229292919061340f565b60405160208183030381529060405280519060200120815260200190815260200160002081905550806001600160a01b031663a9747026600160050184815481106122ed57634e487b7160e01b600052603260045260246000fd5b90600052602060002090600502016004018054612309906142d9565b80601f0160208091040260200160405190810160405280929190818152602001828054612335906142d9565b80156123825780601f1061235757610100808354040283529160200191612382565b820191906000526020600020905b81548152906001019060200180831161236557829003601f168201915b505050505080602001905181019061239a9190612d83565b6013546040518363ffffffff1660e01b81526004016123ba929190613e69565b600060405180830381600087803b1580156123d457600080fd5b505af11580156123e8573d6000803e3d6000fd5b50505050505b806123f881614321565b91505061204a565b600f5461240f90600190614140565b6000838152601960205260409020541461243b5760405162461bcd60e51b81526004016104ad90613c30565b600082815260196020526040812080549161245583614321565b90915550506000828152601860209081526040909120825161247992840190612791565b50611fc2826125d7565b6012546001600160a01b03161580159061251e5750601260009054906101000a90046001600160a01b03166001600160a01b031663999925066040518163ffffffff1660e01b815260040160206040518083038186803b1580156124e657600080fd5b505afa1580156124fa573d6000803e3d6000fd5b505050506040513d601f19601f8201168201806040525081019061251e9190612b4e565b156105c8576012546040517fb992db0f0000000000000000000000000000000000000000000000000000000081526001600160a01b039091169063b992db0f90610c3b908490600401613607565b6105c8816002015473__$94d7d2f22770e4b0d1a2b99fb2812308e2$__63b3d73707846040518263ffffffff1660e01b81526004016125ab9190613607565b60006040518083038186803b1580156125c357600080fd5b505af4158015611af9573d6000803e3d6000fd5b60005b600082815260166020526040902054811015611fc257600082815260166020526040812080548390811061261e57634e487b7160e01b600052603260045260246000fd5b6000918252602090912001546001600160a01b03161461273457600082815260166020526040902080548290811061266657634e487b7160e01b600052603260045260246000fd5b6000918252602090912001546040517fa072d7b00000000000000000000000000000000000000000000000000000000081526001600160a01b039091169063a072d7b0906126b8908590600401613607565b600060405180830381600087803b1580156126d257600080fd5b505af11580156126e6573d6000803e3d6000fd5b505050600083815260166020526040902080549091508290811061271a57634e487b7160e01b600052603260045260246000fd5b600091825260209091200180546001600160a01b03191690555b8061273e81614321565b9150506125da565b828054828255906000526020600020908101928215612781579160200282015b82811115612781578251825591602001919060010190612766565b5061278d929150612804565b5090565b82805461279d906142d9565b90600052602060002090601f0160209004810192826127bf5760008555612781565b82601f106127d857805160ff1916838001178555612781565b828001600101855582156127815791820182811115612781578251825591602001919060010190612766565b5b8082111561278d5760008155600101612805565b803561047e816147d7565b60008083601f840112612835578182fd5b50813567ffffffffffffffff81111561284c578182fd5b602083019150836020808302850101111561286657600080fd5b9250929050565b600082601f83011261287d578081fd5b8151602061289261288d83613f61565b613f37565b82815281810190858301838502870184018810156128ae578586fd5b855b858110156128cc578151845292840192908401906001016128b0565b5090979650505050505050565b60008083601f8401126128ea578182fd5b50813567ffffffffffffffff811115612901578182fd5b60208301915083602082850101111561286657600080fd5b805161047e816147d7565b80516007811061047e57600080fd5b600060e08284031215612944578081fd5b50919050565b60006020828403121561295b578081fd5b8135612966816147d7565b9392505050565b60006020828403121561297e578081fd5b8151612966816147d7565b60008060008060008060008060a0898b0312156129a4578384fd5b88356129af816147d7565b975060208901356129bf816147d7565b9650604089013567ffffffffffffffff808211156129db578586fd5b6129e78c838d01612824565b909850965060608b01359150808211156129ff578586fd5b612a0b8c838d01612824565b909650945060808b0135915080821115612a23578384fd5b50612a308b828c016128d9565b999c989b5096995094979396929594505050565b60008060008060008060a08789031215612a5c578384fd5b8635612a67816147d7565b95506020870135612a77816147d7565b94506040870135935060608701359250608087013567ffffffffffffffff811115612aa0578283fd5b612aac89828a016128d9565b979a9699509497509295939492505050565b60008060408385031215612ad0578182fd5b8251612adb816147d7565b6020840151909250612aec816147d7565b809150509250929050565b600080600060608486031215612b0b578081fd5b8335612b16816147d7565b925060208401359150604084013567ffffffffffffffff811115612b38578182fd5b612b4486828701612933565b9150509250925092565b600060208284031215612b5f578081fd5b81518015158114612966578182fd5b600060208284031215612b7f578081fd5b5035919050565b600060208284031215612b97578081fd5b81356001600160e01b031981168114612966578182fd5b600060208284031215612bbf578081fd5b815167ffffffffffffffff811115612bd5578182fd5b8201601f81018413612be5578182fd5b8051612bf361288d82613f85565b818152856020838501011115612c07578384fd5b612c188260208301602086016142ad565b95945050505050565b600080600080600060808688031215612c38578283fd5b8535612c43816147d7565b94506020860135935060408601359250606086013567ffffffffffffffff811115612c6c578182fd5b612c7888828901612824565b969995985093965092949392505050565b600060208284031215612c9a578081fd5b815167ffffffffffffffff80821115612cb1578283fd5b9083019060c08286031215612cc4578283fd5b60405160c081018181108382111715612cdf57612cdf61437e565b604052612ceb83612919565b8152602083015160208201526040830151604082015260608301516060820152608083015182811115612d1c578485fd5b612d288782860161286d565b608083015250612d3a60a08401612924565b60a082015295945050505050565b600060208284031215612d59578081fd5b813567ffffffffffffffff811115612d6f578182fd5b612d7b84828501612933565b949350505050565b600060208284031215612d94578081fd5b5051919050565b600080600060408486031215612daf578081fd5b83359250602084013567ffffffffffffffff811115612dcc578182fd5b612dd886828701612824565b9497909650939450505050565b60008060408385031215612df7578182fd5b8235915060208084013567ffffffffffffffff811115612e15578283fd5b8401601f81018613612e25578283fd5b8035612e3361288d82613f61565b81815283810190838501858402850186018a1015612e4f578687fd5b8694505b83851015612e71578035835260019490940193918501918501612e53565b5080955050505050509250929050565b60008060408385031215612e93578182fd5b82359150602083013567ffffffffffffffff811115612eb0578182fd5b8301601f81018513612ec0578182fd5b8035612ece61288d82613f85565b818152866020838501011115612ee2578384fd5b81602084016020830137908101602001929092525090939092509050565b60008060408385031215612f12578182fd5b50508035926020909101359150565b6001600160a01b03169052565b8183526020808401936000918085028201810184845b878110156128cc57848303601f19018952612f5f828861405e565b612f6a8582846130b8565b9a86019a9450505090830190600101612f44565b6000815180845260208085019450848183028601828601855b858110156128cc578383038952612faf838351613105565b98850198925090840190600101612f97565b6000815480845260208085019450848183028601858552828520855b858110156128cc578383038952612ff4838361313f565b98850198925060019182019101612fdd565b818352602080840193600091908185020181018584845b878110156130ab5782840389528135609e1988360301811261303d578687fd5b87018035855260a086820135613052816147ec565b61305e8888018261323e565b5060408281013590870152606080830135908701526080613081818401846140a6565b935082828901526130958389018583613171565b9c89019c9750505092860192505060010161301d565b5091979650505050505050565b60008284527f07ffffffffffffffffffffffffffffffffffffffffffffffffffffffffffffff8311156130e9578081fd5b6020830280836020870137939093016020019283525090919050565b6000815180845260208085019450808401835b8381101561313457815187529582019590820190600101613118565b509495945050505050565b6000815480845260208085019450838352808320835b8381101561313457815487529582019560019182019101613155565b60008284528282602086013780602084860101526020601f19601f85011685010190509392505050565b600081518084526131b38160208601602086016142ad565b601f01601f19169290920160200192915050565b600081546131d4816142d9565b8085526020600183811680156131f1576001811461320557613233565b60ff19851688840152604088019550613233565b866000528260002060005b8581101561322b5781548a8201860152908301908401613210565b890184019650505b505050505092915050565b6003811061324e5761324e614368565b9052565b6007811061324e5761324e614368565b60006101006132798461327485612819565b612f21565b6020830135602085015260408301356040850152606083013560608501526132a4608084018461405e565b8260808701526132b783870182846130b8565b925050506132c860a084018461405e565b85830360a08701526132db8382846130b8565b925050506132ec60c084018461405e565b85830360c08701526132ff838284612f2e565b9250505061331060e08401846140a6565b85830360e0870152611fee838284613171565b6000610100613336846132748554614157565b6001830154602085015260028301546040850152600383015460608501528060808501526133698185016004850161313f565b905083810360a0850152613380816005850161313f565b905083810360c08501526133978160068501612fc1565b905083810360e0850152612d7b81600785016131c7565b60006001600160a01b03825416835260018201546020840152600282015460408401526003820154606084015260c060808401526133f260c084016004840161313f565b60ff60058401541661340760a0860182613252565b509392505050565b60609290921b6bffffffffffffffffffffffff19168252601482015260340190565b6001600160a01b0391909116815260200190565b60006001600160a01b0386168252608060208301526134676080830186613323565b828103604084015261347981866133ae565b91505082606083015295945050505050565b6001600160a01b03929092168252602082015260400190565b60208082528251828201819052600091906040908185019080840286018301878501865b8381101561354857603f19898403018552815160c06001600160a01b038251168552888201518986015287820151888601526060808301518187015250608080830151828288015261351c83880182613105565b9250505060a080830151925061353481870184613252565b5095880195935050908601906001016134c8565b509098975050505050505050565b60006040808301818452808654808352606092508286019150602083818302880101898752818720875b848110156135e957605f198a840301865260a08254845260ff6001840154166135ab8686018261323e565b506002830154898501526003830154888501528060808501526135d3818501600485016131c7565b9685019693505060059190910190600101613580565b5050960196909652509295945050505050565b901515815260200190565b90815260200190565b6001600160e01b031991909116815260200190565b600060208252612966602083018461319b565b60006001600160a01b0387168252856020830152846040830152608060608301526136676080830184866130b8565b979650505050505050565b600060a0820190506001600160a01b0387168252856020830152846040830152836060830152611fee6080830184613252565b60006001600160a01b038089168352808816602084015280871660408401525084606083015260c060808301526136df60c083018561319b565b82810360a08401526101006136f5828651612f21565b602085015160208301526040850151604083015260608501516060830152608085015181608084015261372a82840182613105565b91505060a085015182820360a08401526137448282613105565b91505060c085015182820360c084015261375e8282612f7e565b91505060e085015182820360e0840152613778828261319b565b9b9a5050505050505050505050565b6020808252600a908201527f4f6e6c794b656570657200000000000000000000000000000000000000000000604082015260600190565b60208082526013908201527f496e67657374206e6f742043616c6c6261636b00000000000000000000000000604082015260600190565b60208082526010908201527f536f6c76657220686173206368696c6400000000000000000000000000000000604082015260600190565b60208082526016908201527f436f6e646974696f6e206e6f7420457865637574656400000000000000000000604082015260600190565b60208082526015908201527f6d73672e73656e646572206e6f7420736f6c7665720000000000000000000000604082015260600190565b60208082526018908201527f496e76616c696420696e64657820746f20707265706172650000000000000000604082015260600190565b6020808252600c908201527f4f6e6c7920666163746f72790000000000000000000000000000000000000000604082015260600190565b6020808252600b908201527f4f6e6c79204b6565706572000000000000000000000000000000000000000000604082015260600190565b60208082526015908201527f54696d656c6f636b207374696c6c206c6f636b65640000000000000000000000604082015260600190565b6020808252600f908201527f696e676573747320696e76616c69640000000000000000000000000000000000604082015260600190565b60208082526018908201527f4e6f74204172626974726174696f6e5265717565737465640000000000000000604082015260600190565b6020808252602e908201527f496e697469616c697a61626c653a20636f6e747261637420697320616c72656160408201527f647920696e697469616c697a6564000000000000000000000000000000000000606082015260800190565b60208082526011908201527f536c6f7420696e76616c6964207665722e000000000000000000000000000000604082015260600190565b6020808252600f908201527f4f6e6c792061726269747261746f720000000000000000000000000000000000604082015260600190565b6020808252600e908201527f4b656570657220696e76616c6964000000000000000000000000000000000000604082015260600190565b60208082526014908201527f4f7574636f6d65206e6f742070726f706f736564000000000000000000000000604082015260600190565b60208082526013908201527f4e6f74204f7574636f6d6550726f706f73656400000000000000000000000000604082015260600190565b60208082526016908201527f4e6f74204172626974726174696f6e50656e64696e6700000000000000000000604082015260600190565b6020808252600b908201527f4f6e6c79206b6565706572000000000000000000000000000000000000000000604082015260600190565b60208082526012908201527f4f6e6c79206b65657065722f706172656e740000000000000000000000000000604082015260600190565b6020808252600e908201527f547261636b696e67496420736574000000000000000000000000000000000000604082015260600190565b60208082526014908201527f536c6f742076657273696f6e20696e76616c6964000000000000000000000000604082015260600190565b6020808252600d908201527f6e6f7420496e6974696174656400000000000000000000000000000000000000604082015260600190565b600060808252613cb16080830187613323565b6001600160a01b0395861660208401529390941660408201526060015292915050565b600084825260406020830152612c186040830184866130b8565b60006040820184835260206040818501528185518084526060860191508287019350845b818110156128cc57845183529383019391830191600101613d12565b600060a08252613d4160a08301886133ae565b8281036020840152613d538188613323565b6001600160a01b039690961660408401525050606081019290925260809091015292915050565b6000606082528435613d8b816147d7565b613d986060840182612f21565b50613da560208601612819565b613db26080840182612f21565b50613dbf60408601612819565b613dcc60a0840182612f21565b50606085013560c0830152613de460808601866140a6565b60e080850152613df961014085018284613171565b915050613e0960a087018761405e565b605f198086850301610100870152613e22848385613006565b9350613e3160c08a018a6140eb565b925080868503016101208701525050613e4a8282613262565b92505050613e5b6020830185612f21565b826040830152949350505050565b918252602082015260400190565b6000808335601e19843603018112613e8d578283fd5b83018035915067ffffffffffffffff821115613ea7578283fd5b602090810192508102360382131561286657600080fd5b6000808335601e19843603018112613ed4578283fd5b83018035915067ffffffffffffffff821115613eee578283fd5b60200191503681900382131561286657600080fd5b6000823560fe19833603018112613f18578182fd5b9190910192915050565b60008235609e19833603018112613f18578182fd5b60405181810167ffffffffffffffff81118282101715613f5957613f5961437e565b604052919050565b600067ffffffffffffffff821115613f7b57613f7b61437e565b5060209081020190565b600067ffffffffffffffff821115613f9f57613f9f61437e565b50601f01601f191660200190565b60009081526020902090565b60208410801561400f57601f841160018114613fe057613fd9868561430e565b8355614009565b613fe983613fad565b613ffe6020601f880104820160018301614163565b5061400986846143e5565b50610717565b8160005260206000206020601f8701048101601f8716801561403957614039816000198401614394565b5061404c6020601f880104830182614163565b50506001856002021782555050505050565b6000808335601e19843603018112614074578283fd5b830160208101925035905067ffffffffffffffff81111561409457600080fd5b60208102360383131561286657600080fd5b6000808335601e198436030181126140bc578283fd5b830160208101925035905067ffffffffffffffff8111156140dc57600080fd5b80360383131561286657600080fd5b6000823560fe19833603018112614100578182fd5b90910192915050565b6000821982111561411c5761411c614352565b500190565b600081600019048311821515161561413b5761413b614352565b500290565b60008282101561415257614152614352565b500390565b6001600160a01b031690565b5b81811015611fc25760008155600101614164565b61418283826143a8565b818160005260208060002060005b868110156141ac57833582559282019260019182019101614190565b50505050505050565b67ffffffffffffffff8311156141cd576141cd61437e565b6141d781546142d9565b600080601f8611601f8411818117156141f6576141f386613fad565b92505b8015614225576020601f890104830160208910156142115750825b6142236020601f880104850182614163565b505b50806001811461425157600094508715614240578387013594505b61424a888661430e565b86556142a3565b601f198816945082845b8681101561427b578886013582556020958601956001909201910161425b565b508886101561429857878501356000196008601f8c16021c191681555b506001600289020186555b5050505050505050565b60005b838110156142c85781810151838201526020016142b0565b83811115610f395750506000910152565b6002810460018216806142ed57607f821691505b6020821081141561294457634e487b7160e01b600052602260045260246000fd5b600019600883021c191660029091021790565b600060001982141561433557614335614352565b5060010190565b634e487b7160e01b600052600060045260246000fd5b634e487b7160e01b600052601160045260246000fd5b634e487b7160e01b600052602160045260246000fd5b634e487b7160e01b600052604160045260246000fd5b8054600019836020036008021c1681555050565b680100000000000000008211156143c1576143c161437e565b80548282558083101561147d57816000526020600020610f39828201858301614163565b8060005260206000206143f983825461430e565b9091556000905550565b6001600160a01b0382166001600160a01b03198254161781555050565b813561442b816147d7565b6144358183614403565b5060016020808401358284015560408401356002840155606084013560038401556144636080850185613e77565b614471818360048801614178565b505061448060a0850185613e77565b61448e818360058801614178565b5050600683016144a160c0860186613e77565b680100000000000000008111156144ba576144ba61437e565b8254818455808210156144f55760008481528581208381019083015b808210156144f1576144e883836143a8565b908801906144d6565b5050505b508161450084613fad565b93506000805b83811015614535576145188386613e77565b6145248183868b61472b565b505094870194918601918701614506565b505050505050505061454a60e0830183613ebe565b610f398183600786016141b5565b8135614563816147d7565b61456d8183614403565b50600160208084013561457f816147d7565b61458b81848601614403565b506002604085013561459c816147d7565b6145a881838701614403565b50600360608601358186015560046145c36080880188613ebe565b6145d08183858b016141b5565b505060058087016145e460a08a018a613e77565b680100000000000000008111156145fd576145fd61437e565b8254818455808210156146c5577f33333333333333333333333333333333333333333333333333333333333333338082118b161561463d5761463d614352565b8083118b161561464f5761464f614352565b506000848152898120838702810190878402015b808210156146c1576146768384846147b8565b828d83015561468883848d85016147b8565b61469583848c85016147b8565b88820180546146a3816142d9565b80156146b5576146b586828486613fb9565b50505090870190614663565b5050505b508196506146d283613fad565b9550600094508492505b80831015614709576146f86146f18884613f22565b8688614744565b9587019594830194918801916146dc565b505050505050505050611fc261472260c0840184613f03565b60068301614420565b81156147395761473961433c565b610f39848483614178565b81156147525761475261433c565b82358155600181016020840135614768816147ec565b6003811061477857614778614368565b60ff1982541660ff82168117835550505060408301356002820155606083013560038201556147aa6080840184613ebe565b6107178183600486016141b5565b805460088302600019811b8086831b1681198416178455505050505050565b6001600160a01b03811681146105c857600080fd5b600381106105c857600080fdfea26469706673582212205a92152227d11d83d6f74b001034f6b51817e092934e89175fb86bd3be89136564736f6c63430008000033",
  "linkReferences": {
    "contracts/SolverLib.sol": {
      "SolverLib": [
        {
          "length": 20,
          "start": 1357
        },
        {
          "length": 20,
          "start": 1704
        },
        {
          "length": 20,
          "start": 2700
        },
        {
          "length": 20,
          "start": 3370
        },
        {
          "length": 20,
          "start": 3588
        },
        {
          "length": 20,
          "start": 5118
        },
        {
          "length": 20,
          "start": 5491
        },
        {
          "length": 20,
          "start": 5690
        },
        {
          "length": 20,
          "start": 5946
        },
        {
          "length": 20,
          "start": 7372
        },
        {
          "length": 20,
          "start": 7716
        },
        {
          "length": 20,
          "start": 9622
        }
      ]
    }
  },
  "deployedLinkReferences": {
    "contracts/SolverLib.sol": {
      "SolverLib": [
        {
          "length": 20,
          "start": 1325
        },
        {
          "length": 20,
          "start": 1672
        },
        {
          "length": 20,
          "start": 2668
        },
        {
          "length": 20,
          "start": 3338
        },
        {
          "length": 20,
          "start": 3556
        },
        {
          "length": 20,
          "start": 5086
        },
        {
          "length": 20,
          "start": 5459
        },
        {
          "length": 20,
          "start": 5658
        },
        {
          "length": 20,
          "start": 5914
        },
        {
          "length": 20,
          "start": 7340
        },
        {
          "length": 20,
          "start": 7684
        },
        {
          "length": 20,
          "start": 9590
        }
      ]
    }
  }
}