{
  "_format": "hh-sol-artifact-1",
  "contractName": "BasicSolverV1",
  "sourceName": "contracts/BasicSolverV1.sol",
  "abi": [
    {
      "inputs": [
        {
          "internalType": "uint8",
          "name": "_type",
          "type": "uint8"
        },
        {
          "internalType": "uint256",
          "name": "_key",
          "type": "uint256"
        },
        {
          "internalType": "bytes",
          "name": "_data",
          "type": "bytes"
        }
      ],
      "name": "addData",
      "outputs": [],
      "stateMutability": "nonpayable",
      "type": "function"
    },
    {
      "inputs": [
        {
          "internalType": "uint256",
          "name": "_index",
          "type": "uint256"
        }
      ],
      "name": "addressFromChainIndex",
      "outputs": [
        {
          "internalType": "address",
          "name": "_address",
          "type": "address"
        }
      ],
      "stateMutability": "view",
      "type": "function"
    },
    {
      "inputs": [
        {
          "internalType": "uint256",
          "name": "_index",
          "type": "uint256"
        },
        {
          "internalType": "uint256[]",
          "name": "payouts",
          "type": "uint256[]"
        }
      ],
      "name": "arbitrate",
      "outputs": [],
      "stateMutability": "nonpayable",
      "type": "function"
    },
    {
      "inputs": [
        {
          "internalType": "uint256",
          "name": "_index",
          "type": "uint256"
        }
      ],
      "name": "arbitrateNull",
      "outputs": [],
      "stateMutability": "nonpayable",
      "type": "function"
    },
    {
      "inputs": [
        {
          "internalType": "uint256",
          "name": "_index",
          "type": "uint256"
        }
      ],
      "name": "arbitrationPending",
      "outputs": [],
      "stateMutability": "nonpayable",
      "type": "function"
    },
    {
      "inputs": [
        {
          "internalType": "uint256",
          "name": "_index",
          "type": "uint256"
        }
      ],
      "name": "arbitrationRequested",
      "outputs": [],
      "stateMutability": "nonpayable",
      "type": "function"
    },
    {
      "inputs": [],
      "name": "chainChild",
      "outputs": [
        {
          "internalType": "address",
          "name": "",
          "type": "address"
        }
      ],
      "stateMutability": "view",
      "type": "function"
    },
    {
      "inputs": [],
      "name": "chainIndex",
      "outputs": [
        {
          "internalType": "uint256",
          "name": "",
          "type": "uint256"
        }
      ],
      "stateMutability": "view",
      "type": "function"
    },
    {
      "inputs": [],
      "name": "chainParent",
      "outputs": [
        {
          "internalType": "address",
          "name": "",
          "type": "address"
        }
      ],
      "stateMutability": "view",
      "type": "function"
    },
    {
      "inputs": [
        {
          "internalType": "uint256",
          "name": "",
          "type": "uint256"
        }
      ],
      "name": "conditions",
      "outputs": [
        {
          "internalType": "contract IERC20",
          "name": "collateralToken",
          "type": "address"
        },
        {
          "internalType": "bytes32",
          "name": "questionId",
          "type": "bytes32"
        },
        {
          "internalType": "bytes32",
          "name": "parentCollectionId",
          "type": "bytes32"
        },
        {
          "internalType": "bytes32",
          "name": "conditionId",
          "type": "bytes32"
        },
        {
          "internalType": "enum SolverLib.Status",
          "name": "status",
          "type": "uint8"
        }
      ],
      "stateMutability": "view",
      "type": "function"
    },
    {
      "inputs": [],
      "name": "config",
      "outputs": [
        {
          "internalType": "contract Solver",
          "name": "implementation",
          "type": "address"
        },
        {
          "internalType": "address",
          "name": "keeper",
          "type": "address"
        },
        {
          "internalType": "address",
          "name": "arbitrator",
          "type": "address"
        },
        {
          "internalType": "uint256",
          "name": "timelockSeconds",
          "type": "uint256"
        },
        {
          "internalType": "bytes",
          "name": "data",
          "type": "bytes"
        },
        {
          "components": [
            {
              "internalType": "contract IERC20",
              "name": "collateralToken",
              "type": "address"
            },
            {
              "internalType": "uint256",
              "name": "outcomeSlots",
              "type": "uint256"
            },
            {
              "internalType": "uint256",
              "name": "parentCollectionIndexSet",
              "type": "uint256"
            },
            {
              "internalType": "uint256",
              "name": "amountSlot",
              "type": "uint256"
            },
            {
              "internalType": "uint256[]",
              "name": "partition",
              "type": "uint256[]"
            },
            {
              "internalType": "uint256[]",
              "name": "recipientAddressSlots",
              "type": "uint256[]"
            },
            {
              "internalType": "uint256[][]",
              "name": "recipientAmountSlots",
              "type": "uint256[][]"
            },
            {
              "internalType": "string",
              "name": "conditionURI",
              "type": "string"
            }
          ],
          "internalType": "struct SolverLib.ConditionBase",
          "name": "conditionBase",
          "type": "tuple"
        }
      ],
      "stateMutability": "view",
      "type": "function"
    },
    {
      "inputs": [
        {
          "internalType": "uint256",
          "name": "_index",
          "type": "uint256"
        }
      ],
      "name": "confirmPayouts",
      "outputs": [],
      "stateMutability": "nonpayable",
      "type": "function"
    },
    {
      "inputs": [
        {
          "components": [
            {
              "internalType": "contract Solver",
              "name": "implementation",
              "type": "address"
            },
            {
              "internalType": "address",
              "name": "keeper",
              "type": "address"
            },
            {
              "internalType": "address",
              "name": "arbitrator",
              "type": "address"
            },
            {
              "internalType": "uint256",
              "name": "timelockSeconds",
              "type": "uint256"
            },
            {
              "internalType": "bytes",
              "name": "data",
              "type": "bytes"
            },
            {
              "components": [
                {
                  "internalType": "uint256",
                  "name": "executions",
                  "type": "uint256"
                },
                {
                  "internalType": "enum SolverLib.IngestType",
                  "name": "ingestType",
                  "type": "uint8"
                },
                {
                  "internalType": "uint8",
                  "name": "dataType",
                  "type": "uint8"
                },
                {
                  "internalType": "uint256",
                  "name": "key",
                  "type": "uint256"
                },
                {
                  "internalType": "uint256",
                  "name": "solverIndex",
                  "type": "uint256"
                },
                {
                  "internalType": "bytes",
                  "name": "data",
                  "type": "bytes"
                }
              ],
              "internalType": "struct SolverLib.Ingest[]",
              "name": "ingests",
              "type": "tuple[]"
            },
            {
              "components": [
                {
                  "internalType": "contract IERC20",
                  "name": "collateralToken",
                  "type": "address"
                },
                {
                  "internalType": "uint256",
                  "name": "outcomeSlots",
                  "type": "uint256"
                },
                {
                  "internalType": "uint256",
                  "name": "parentCollectionIndexSet",
                  "type": "uint256"
                },
                {
                  "internalType": "uint256",
                  "name": "amountSlot",
                  "type": "uint256"
                },
                {
                  "internalType": "uint256[]",
                  "name": "partition",
                  "type": "uint256[]"
                },
                {
                  "internalType": "uint256[]",
                  "name": "recipientAddressSlots",
                  "type": "uint256[]"
                },
                {
                  "internalType": "uint256[][]",
                  "name": "recipientAmountSlots",
                  "type": "uint256[][]"
                },
                {
                  "internalType": "string",
                  "name": "conditionURI",
                  "type": "string"
                }
              ],
              "internalType": "struct SolverLib.ConditionBase",
              "name": "conditionBase",
              "type": "tuple"
            }
          ],
          "internalType": "struct SolverLib.Config",
          "name": "_config",
          "type": "tuple"
        }
      ],
      "name": "deployChild",
      "outputs": [
        {
          "internalType": "contract Solver",
          "name": "_solver",
          "type": "address"
        }
      ],
      "stateMutability": "nonpayable",
      "type": "function"
    },
    {
      "inputs": [
        {
          "internalType": "uint256",
          "name": "_index",
          "type": "uint256"
        }
      ],
      "name": "executeSolve",
      "outputs": [],
      "stateMutability": "nonpayable",
      "type": "function"
    },
    {
      "inputs": [
        {
          "internalType": "uint256",
          "name": "token",
          "type": "uint256"
        }
      ],
      "name": "getCTBalance",
      "outputs": [
        {
          "internalType": "uint256",
          "name": "",
          "type": "uint256"
        }
      ],
      "stateMutability": "view",
      "type": "function"
    },
    {
      "inputs": [],
      "name": "getConditions",
      "outputs": [
        {
          "components": [
            {
              "internalType": "contract IERC20",
              "name": "collateralToken",
              "type": "address"
            },
            {
              "internalType": "bytes32",
              "name": "questionId",
              "type": "bytes32"
            },
            {
              "internalType": "bytes32",
              "name": "parentCollectionId",
              "type": "bytes32"
            },
            {
              "internalType": "bytes32",
              "name": "conditionId",
              "type": "bytes32"
            },
            {
              "internalType": "uint256[]",
              "name": "payouts",
              "type": "uint256[]"
            },
            {
              "internalType": "enum SolverLib.Status",
              "name": "status",
              "type": "uint8"
            }
          ],
          "internalType": "struct SolverLib.Condition[]",
          "name": "",
          "type": "tuple[]"
        }
      ],
      "stateMutability": "view",
      "type": "function"
    },
    {
      "inputs": [
        {
          "internalType": "uint256",
          "name": "_key",
          "type": "uint256"
        }
      ],
      "name": "getOutput",
      "outputs": [
        {
          "internalType": "bytes",
          "name": "data",
          "type": "bytes"
        }
      ],
      "stateMutability": "view",
      "type": "function"
    },
    {
      "inputs": [
        {
          "internalType": "uint256",
          "name": "_slot",
          "type": "uint256"
        }
      ],
      "name": "handleCallback",
      "outputs": [],
      "stateMutability": "nonpayable",
      "type": "function"
    },
    {
      "inputs": [],
      "name": "ingestsValid",
      "outputs": [
        {
          "internalType": "bool",
          "name": "",
          "type": "bool"
        }
      ],
      "stateMutability": "view",
      "type": "function"
    },
    {
      "inputs": [
        {
          "internalType": "address",
          "name": "_chainParent",
          "type": "address"
        },
        {
          "internalType": "uint256",
          "name": "_chainIndex",
          "type": "uint256"
        },
        {
          "components": [
            {
              "internalType": "contract Solver",
              "name": "implementation",
              "type": "address"
            },
            {
              "internalType": "address",
              "name": "keeper",
              "type": "address"
            },
            {
              "internalType": "address",
              "name": "arbitrator",
              "type": "address"
            },
            {
              "internalType": "uint256",
              "name": "timelockSeconds",
              "type": "uint256"
            },
            {
              "internalType": "bytes",
              "name": "data",
              "type": "bytes"
            },
            {
              "components": [
                {
                  "internalType": "uint256",
                  "name": "executions",
                  "type": "uint256"
                },
                {
                  "internalType": "enum SolverLib.IngestType",
                  "name": "ingestType",
                  "type": "uint8"
                },
                {
                  "internalType": "uint8",
                  "name": "dataType",
                  "type": "uint8"
                },
                {
                  "internalType": "uint256",
                  "name": "key",
                  "type": "uint256"
                },
                {
                  "internalType": "uint256",
                  "name": "solverIndex",
                  "type": "uint256"
                },
                {
                  "internalType": "bytes",
                  "name": "data",
                  "type": "bytes"
                }
              ],
              "internalType": "struct SolverLib.Ingest[]",
              "name": "ingests",
              "type": "tuple[]"
            },
            {
              "components": [
                {
                  "internalType": "contract IERC20",
                  "name": "collateralToken",
                  "type": "address"
                },
                {
                  "internalType": "uint256",
                  "name": "outcomeSlots",
                  "type": "uint256"
                },
                {
                  "internalType": "uint256",
                  "name": "parentCollectionIndexSet",
                  "type": "uint256"
                },
                {
                  "internalType": "uint256",
                  "name": "amountSlot",
                  "type": "uint256"
                },
                {
                  "internalType": "uint256[]",
                  "name": "partition",
                  "type": "uint256[]"
                },
                {
                  "internalType": "uint256[]",
                  "name": "recipientAddressSlots",
                  "type": "uint256[]"
                },
                {
                  "internalType": "uint256[][]",
                  "name": "recipientAmountSlots",
                  "type": "uint256[][]"
                },
                {
                  "internalType": "string",
                  "name": "conditionURI",
                  "type": "string"
                }
              ],
              "internalType": "struct SolverLib.ConditionBase",
              "name": "conditionBase",
              "type": "tuple"
            }
          ],
          "internalType": "struct SolverLib.Config",
          "name": "_solverConfig",
          "type": "tuple"
        }
      ],
      "name": "init",
      "outputs": [],
      "stateMutability": "nonpayable",
      "type": "function"
    },
    {
      "inputs": [
        {
          "internalType": "address",
          "name": "operator",
          "type": "address"
        },
        {
          "internalType": "address",
          "name": "from",
          "type": "address"
        },
        {
          "internalType": "uint256[]",
          "name": "ids",
          "type": "uint256[]"
        },
        {
          "internalType": "uint256[]",
          "name": "values",
          "type": "uint256[]"
        },
        {
          "internalType": "bytes",
          "name": "data",
          "type": "bytes"
        }
      ],
      "name": "onERC1155BatchReceived",
      "outputs": [
        {
          "internalType": "bytes4",
          "name": "",
          "type": "bytes4"
        }
      ],
      "stateMutability": "nonpayable",
      "type": "function"
    },
    {
      "inputs": [
        {
          "internalType": "address",
          "name": "operator",
          "type": "address"
        },
        {
          "internalType": "address",
          "name": "from",
          "type": "address"
        },
        {
          "internalType": "uint256",
          "name": "id",
          "type": "uint256"
        },
        {
          "internalType": "uint256",
          "name": "value",
          "type": "uint256"
        },
        {
          "internalType": "bytes",
          "name": "data",
          "type": "bytes"
        }
      ],
      "name": "onERC1155Received",
      "outputs": [
        {
          "internalType": "bytes4",
          "name": "",
          "type": "bytes4"
        }
      ],
      "stateMutability": "nonpayable",
      "type": "function"
    },
    {
      "inputs": [],
      "name": "parentPositionId",
      "outputs": [
        {
          "internalType": "uint256",
          "name": "",
          "type": "uint256"
        }
      ],
      "stateMutability": "view",
      "type": "function"
    },
    {
      "inputs": [
        {
          "internalType": "uint256",
          "name": "_index",
          "type": "uint256"
        }
      ],
      "name": "prepareSolve",
      "outputs": [],
      "stateMutability": "nonpayable",
      "type": "function"
    },
    {
      "inputs": [
        {
          "internalType": "uint256",
          "name": "_index",
          "type": "uint256"
        },
        {
          "internalType": "uint256[]",
          "name": "_payouts",
          "type": "uint256[]"
        }
      ],
      "name": "proposePayouts",
      "outputs": [],
      "stateMutability": "nonpayable",
      "type": "function"
    },
    {
      "inputs": [
        {
          "internalType": "contract IERC20",
          "name": "_collateralToken",
          "type": "address"
        },
        {
          "internalType": "bytes32",
          "name": "_parentCollectionId",
          "type": "bytes32"
        },
        {
          "internalType": "bytes32",
          "name": "_conditionId",
          "type": "bytes32"
        },
        {
          "internalType": "uint256[]",
          "name": "_indexSets",
          "type": "uint256[]"
        }
      ],
      "name": "redeemPosition",
      "outputs": [],
      "stateMutability": "nonpayable",
      "type": "function"
    },
    {
      "inputs": [
        {
          "internalType": "uint256",
          "name": "_slot",
          "type": "uint256"
        },
        {
          "internalType": "uint256",
          "name": "_chainIndex",
          "type": "uint256"
        }
      ],
      "name": "registerCallback",
      "outputs": [],
      "stateMutability": "nonpayable",
      "type": "function"
    },
    {
      "inputs": [
        {
          "internalType": "bytes32",
          "name": "_trackingId",
          "type": "bytes32"
        }
      ],
      "name": "setTrackingId",
      "outputs": [],
      "stateMutability": "nonpayable",
      "type": "function"
    },
    {
      "inputs": [
        {
          "internalType": "bytes4",
          "name": "interfaceId",
          "type": "bytes4"
        }
      ],
      "name": "supportsInterface",
      "outputs": [
        {
          "internalType": "bool",
          "name": "",
          "type": "bool"
        }
      ],
      "stateMutability": "view",
      "type": "function"
    },
    {
      "inputs": [],
      "name": "timelock",
      "outputs": [
        {
          "internalType": "uint256",
          "name": "",
          "type": "uint256"
        }
      ],
      "stateMutability": "view",
      "type": "function"
    },
    {
      "inputs": [],
      "name": "trackingId",
      "outputs": [
        {
          "internalType": "bytes32",
          "name": "",
          "type": "bytes32"
        }
      ],
      "stateMutability": "view",
      "type": "function"
    }
  ],
  "bytecode": "0x608060405234801561001057600080fd5b506148ac806100206000396000f3fe608060405234801561001057600080fd5b50600436106101e55760003560e01c806355dd978b1161010f578063a072d7b0116100a2578063c247bcb311610071578063c247bcb31461041a578063d33219b41461042d578063ea8221a914610435578063f23a6e611461043d576101e5565b8063a072d7b0146103c1578063a9747026146103d4578063b992db0f146103e7578063bc197c81146103fa576101e5565b806380b204b7116100de57806380b204b71461038b57806380c2dde21461039e57806387dfee57146103a657806399992506146103b9576101e5565b806355dd978b1461034157806376a3d61d1461034957806379502c551461035c5780637c12362714610376576101e5565b806326c500071161018757806348cbb2fc1161015657806348cbb2fc146103005780634a77234e146103085780634dab5e691461031b5780634e46f2231461032e576101e5565b806326c500071461029457806326eff66a146102b85780632b363427146102cd5780633837b05e146102e0576101e5565b80630d8d3975116101c35780630d8d39751461023b5780630fc126a21461024e57806317861f87146102615780631878255914610281576101e5565b806301ffc9a7146101ea57806307c068b6146102135780630d06101a14610228575b600080fd5b6101fd6101f8366004612bb6565b610450565b60405161020a9190613662565b60405180910390f35b610226610221366004612b9e565b610496565b005b610226610236366004612b9e565b6105de565b610226610249366004612b9e565b610603565b61022661025c366004612b27565b610731565b61027461026f366004612b9e565b610860565b60405161020a919061368b565b61022661028f366004612c51565b610930565b6102a76102a2366004612b9e565b6109eb565b60405161020a9594939291906136d8565b6102c0610a39565b60405161020a919061366d565b6102266102db366004612ed2565b610a3f565b6102f36102ee366004612b9e565b610a79565b60405161020a9190613483565b6102c0610b3b565b610226610316366004612b9e565b610b41565b610226610329366004612b9e565b610c35565b61022661033c366004612b9e565b610d0f565b6102f3610de9565b6102f3610357366004612d78565b610df8565b610364610ef0565b60405161020a9695949392919061370b565b61037e6111bf565b60405161020a91906134f6565b610226610399366004612dcb565b6112ee565b6102f361142e565b6102266103b4366004612e15565b611442565b6101fd61159d565b6102266103cf366004612b9e565b61164a565b6102266103e2366004612eb1565b6119e5565b6102266103f5366004612b9e565b611a4f565b61040d6104083660046129b9565b611d6a565b60405161020a9190613676565b6102c0610428366004612b9e565b611d97565b6102c0611e3a565b6102c0611e40565b61040d61044b366004612a74565b611e46565b60006001600160e01b031982167f4e2312e000000000000000000000000000000000000000000000000000000000148061048e575061048e82611e72565b90505b919050565b6003546001600160a01b031633146104c95760405162461bcd60e51b81526004016104c090613aa7565b60405180910390fd5b6003600f82815481106104ec57634e487b7160e01b600052603260045260246000fd5b600091825260209091206006918202016005015460ff169081111561052157634e487b7160e01b600052602160045260246000fd5b1461053e5760405162461bcd60e51b81526004016104c0906139dc565b73__$94d7d2f22770e4b0d1a2b99fb2812308e2$__63ec7ac2f0600f838154811061057957634e487b7160e01b600052603260045260246000fd5b90600052602060002090600602016040518263ffffffff1660e01b81526004016105a3919061366d565b60006040518083038186803b1580156105bb57600080fd5b505af41580156105cf573d6000803e3d6000fd5b505050506105db611ea4565b50565b601654156105fe5760405162461bcd60e51b81526004016104c090613bf1565b601655565b60145442116106245760405162461bcd60e51b81526004016104c09061396e565b6002600f828154811061064757634e487b7160e01b600052603260045260246000fd5b600091825260209091206006918202016005015460ff169081111561067c57634e487b7160e01b600052602160045260246000fd5b146106995760405162461bcd60e51b81526004016104c090613b15565b73__$94d7d2f22770e4b0d1a2b99fb2812308e2$__63696d4661600f83815481106106d457634e487b7160e01b600052603260045260246000fd5b90600052602060002090600602016040518263ffffffff1660e01b81526004016106fe919061366d565b60006040518083038186803b15801561071657600080fd5b505af415801561072a573d6000803e3d6000fd5b5050505050565b600054610100900460ff168061074a575060005460ff16155b6107665760405162461bcd60e51b81526004016104c090613a13565b600054610100900460ff16158015610791576000805460ff1961ff0019909116610100171660011790555b3373e7f1725e7734ce288f8367e1bb143e90bb3f0512146107c45760405162461bcd60e51b81526004016104c090613900565b60006107d6604084016020850161297a565b6001600160a01b031614156107fd5760405162461bcd60e51b81526004016104c090613ade565b601180547fffffffffffffffffffffff0000000000000000000000000000000000000000ff166101006001600160a01b0387160217905560138390558160016108468282614595565b5050801561085a576000805461ff00191690555b50505050565b600f546000828152601a6020526040902054606091146108925760405162461bcd60e51b81526004016104c090613a70565b600082815260196020526040902080546108ab90614316565b80601f01602080910402602001604051908101604052809291908181526020018280546108d790614316565b80156109245780601f106108f957610100808354040283529160200191610924565b820191906000526020600020905b81548152906001019060200180831161090757829003601f168201915b50505050509050919050565b6002546001600160a01b0316331461095a5760405162461bcd60e51b81526004016104c090613937565b6040517f01b7037c000000000000000000000000000000000000000000000000000000008152735fbdb2315678afecb367f032d93f642f64180aa3906301b7037c906109b2908890889088908890889060040161369e565b600060405180830381600087803b1580156109cc57600080fd5b505af11580156109e0573d6000803e3d6000fd5b505050505050505050565b600f81815481106109fb57600080fd5b6000918252602090912060069091020180546001820154600283015460038401546005909401546001600160a01b0390931694509092909160ff1685565b60155481565b6002546001600160a01b03163314610a695760405162461bcd60e51b81526004016104c0906137ed565b610a74838383611ec1565b505050565b6011546012546013546040517f9fa61fa300000000000000000000000000000000000000000000000000000000815260009373__$94d7d2f22770e4b0d1a2b99fb2812308e2$__93639fa61fa393610aeb93889330936001600160a01b03610100909204821693911691600401613e78565b60206040518083038186803b158015610b0357600080fd5b505af4158015610b17573d6000803e3d6000fd5b505050506040513d601f19601f8201168201806040525081019061048e919061299d565b60165481565b60115460ff1615610b90576002546001600160a01b0316331480610b74575060115461010090046001600160a01b031633145b610b905760405162461bcd60e51b81526004016104c090613bba565b6011805460ff19166001179055610ba5611fa2565b610bad61210d565b6012546001600160a01b0316156105db576012546040517f4a77234e0000000000000000000000000000000000000000000000000000000081526001600160a01b0390911690634a77234e90610c0790849060040161366d565b600060405180830381600087803b158015610c2157600080fd5b505af115801561072a573d6000803e3d6000fd5b6003546001600160a01b03163314610c5f5760405162461bcd60e51b81526004016104c090613aa7565b6002600f8281548110610c8257634e487b7160e01b600052603260045260246000fd5b600091825260209091206006918202016005015460ff1690811115610cb757634e487b7160e01b600052602160045260246000fd5b14610cd45760405162461bcd60e51b81526004016104c090613b4c565b73__$94d7d2f22770e4b0d1a2b99fb2812308e2$__6324b28602600f838154811061057957634e487b7160e01b600052603260045260246000fd5b6003546001600160a01b03163314610d395760405162461bcd60e51b81526004016104c090613aa7565b6004600f8281548110610d5c57634e487b7160e01b600052603260045260246000fd5b600091825260209091206006918202016005015460ff1690811115610d9157634e487b7160e01b600052602160045260246000fd5b14610dae5760405162461bcd60e51b81526004016104c090613b83565b73__$94d7d2f22770e4b0d1a2b99fb2812308e2$__6359111fb5600f838154811061057957634e487b7160e01b600052603260045260246000fd5b6012546001600160a01b031681565b6012546000906001600160a01b031615610e245760405162461bcd60e51b81526004016104c09061385b565b6013546040517f4dd0aa4900000000000000000000000000000000000000000000000000000000815273__$94d7d2f22770e4b0d1a2b99fb2812308e2$__91634dd0aa4991610e7a918691309190600401613d72565b604080518083038186803b158015610e9157600080fd5b505af4158015610ea5573d6000803e3d6000fd5b505050506040513d601f19601f82011682018060405250810190610ec99190612aee565b601280546001600160a01b0319166001600160a01b03939093169290921790915592915050565b60018054600254600354600454600580546001600160a01b039586169694861695909316939192610f2090614316565b80601f0160208091040260200160405190810160405280929190818152602001828054610f4c90614316565b8015610f995780601f10610f6e57610100808354040283529160200191610f99565b820191906000526020600020905b815481529060010190602001808311610f7c57829003601f168201915b505060408051610100810182526006870180546001600160a01b03168252600788015460208084019190915260088901548385015260098901546060840152600a8901805485518184028101840190965280865298999893975091955060808701945090919083018282801561102e57602002820191906000526020600020905b81548152602001906001019080831161101a575b505050505081526020016005820180548060200260200160405190810160405280929190818152602001828054801561108657602002820191906000526020600020905b815481526020019060010190808311611072575b5050505050815260200160068201805480602002602001604051908101604052809291908181526020016000905b828210156111205760008481526020908190208301805460408051828502810185019091528181529283018282801561110c57602002820191906000526020600020905b8154815260200190600101908083116110f8575b5050505050815260200190600101906110b4565b50505050815260200160078201805461113890614316565b80601f016020809104026020016040519081016040528092919081815260200182805461116490614316565b80156111b15780601f10611186576101008083540402835291602001916111b1565b820191906000526020600020905b81548152906001019060200180831161119457829003601f168201915b505050505081525050905086565b6060600f805480602002602001604051908101604052809291908181526020016000905b828210156112e55760008481526020908190206040805160c0810182526006860290920180546001600160a01b03168352600181015483850152600281015483830152600381015460608401526004810180548351818702810187019094528084529394919360808601939283018282801561127e57602002820191906000526020600020905b81548152602001906001019080831161126a575b5050509183525050600582015460209091019060ff1660068111156112b357634e487b7160e01b600052602160045260246000fd5b60068111156112d257634e487b7160e01b600052602160045260246000fd5b81525050815260200190600101906111e3565b50505050905090565b6002546001600160a01b031633146113185760405162461bcd60e51b81526004016104c090613937565b6001600f848154811061133b57634e487b7160e01b600052603260045260246000fd5b600091825260209091206006918202016005015460ff169081111561137057634e487b7160e01b600052602160045260246000fd5b1461138d5760405162461bcd60e51b81526004016104c090613892565b73__$94d7d2f22770e4b0d1a2b99fb2812308e2$__636a0a24f1600f85815481106113c857634e487b7160e01b600052603260045260246000fd5b906000526020600020906006020184846040518463ffffffff1660e01b81526004016113f693929190613ccc565b60006040518083038186803b15801561140e57600080fd5b505af4158015611422573d6000803e3d6000fd5b50505050610a74611ea4565b60115461010090046001600160a01b031681565b6003546001600160a01b0316331461146c5760405162461bcd60e51b81526004016104c090613aa7565b6004600f838154811061148f57634e487b7160e01b600052603260045260246000fd5b600091825260209091206006918202016005015460ff16908111156114c457634e487b7160e01b600052602160045260246000fd5b146114e15760405162461bcd60e51b81526004016104c090613b83565b60145442116115025760405162461bcd60e51b81526004016104c09061396e565b73__$94d7d2f22770e4b0d1a2b99fb2812308e2$__6311ca1ac0600f848154811061153d57634e487b7160e01b600052603260045260246000fd5b9060005260206000209060060201836040518363ffffffff1660e01b8152600401611569929190613ce6565b60006040518083038186803b15801561158157600080fd5b505af4158015611595573d6000803e3d6000fd5b505050505050565b600f546040517f5cc1f6b500000000000000000000000000000000000000000000000000000000815260009173__$94d7d2f22770e4b0d1a2b99fb2812308e2$__91635cc1f6b5916115f591600691906004016135a8565b60206040518083038186803b15801561160d57600080fd5b505af4158015611621573d6000803e3d6000fd5b505050506040513d601f19601f820116820180604052508101906116459190612b7e565b905090565b6000338260405160200161165f929190613461565b6040516020818303038152906040528051906020012090506116c860016005016018600084815260200190815260200160002054815481106116b157634e487b7160e01b600052603260045260246000fd5b906000526020600020906005020160030154610a79565b6001600160a01b0316336001600160a01b0316146116f85760405162461bcd60e51b81526004016104c0906138c9565b60008181526018602052604081205460068054909190811061172a57634e487b7160e01b600052603260045260246000fd5b600091825260209091206001600590920201015460ff16600281111561176057634e487b7160e01b600052602160045260246000fd5b1461177d5760405162461bcd60e51b81526004016104c090613824565b6000818152601860205260409020546006805490919081106117af57634e487b7160e01b600052603260045260246000fd5b6000918252602082206005909102018054916117ca8361435e565b9091555050600081815260186020526040902054600680546119d39290811061180357634e487b7160e01b600052603260045260246000fd5b906000526020600020906005020160010160019054906101000a900460ff16600160050160186000858152602001908152602001600020548154811061185957634e487b7160e01b600052603260045260246000fd5b906000526020600020906005020160020154336001600160a01b03166317861f8760016005016018600088815260200190815260200160002054815481106118b157634e487b7160e01b600052603260045260246000fd5b906000526020600020906005020160040180546118cd90614316565b80601f01602080910402602001604051908101604052809291908181526020018280546118f990614316565b80156119465780601f1061191b57610100808354040283529160200191611946565b820191906000526020600020905b81548152906001019060200180831161192957829003601f168201915b505050505080602001905181019061195e9190612db3565b6040518263ffffffff1660e01b815260040161197a919061366d565b60006040518083038186803b15801561199257600080fd5b505afa1580156119a6573d6000803e3d6000fd5b505050506040513d6000823e601f3d908101601f191682016040526119ce9190810190612bde565b611ec1565b60009081526018602052604081205550565b6119ee81610a79565b6001600160a01b0316336001600160a01b031614611a1e5760405162461bcd60e51b81526004016104c0906138c9565b5060009081526017602090815260408220805460018101825590835291200180546001600160a01b03191633179055565b6000600f8281548110611a7257634e487b7160e01b600052603260045260246000fd5b600091825260209091206006918202016005015460ff1690811115611aa757634e487b7160e01b600052602160045260246000fd5b14611ac45760405162461bcd60e51b81526004016104c090613c5f565b611acc61159d565b611ae85760405162461bcd60e51b81526004016104c0906139a5565b6001600f8281548110611b0b57634e487b7160e01b600052603260045260246000fd5b906000526020600020906006020160050160006101000a81548160ff02191690836006811115611b4b57634e487b7160e01b600052602160045260246000fd5b021790555073__$94d7d2f22770e4b0d1a2b99fb2812308e2$__631e85323f601160019054906101000a90046001600160a01b03166001600601600f8581548110611ba657634e487b7160e01b600052603260045260246000fd5b60009182526020808320600a54845260199091526040909220805460069092029092019190611bd490614316565b80601f0160208091040260200160405190810160405280929190818152602001828054611c0090614316565b8015611c4d5780601f10611c2257610100808354040283529160200191611c4d565b820191906000526020600020905b815481529060010190602001808311611c3057829003601f168201915b5050505050806020019051810190611c659190612db3565b6040518563ffffffff1660e01b8152600401611c849493929190613497565b60006040518083038186803b158015611c9c57600080fd5b505af4158015611cb0573d6000803e3d6000fd5b5050505073__$94d7d2f22770e4b0d1a2b99fb2812308e2$__6336696828600f8381548110611cef57634e487b7160e01b600052603260045260246000fd5b906000526020600020906006020160016006013060196016546040518663ffffffff1660e01b8152600401611d28959493929190613d26565b60006040518083038186803b158015611d4057600080fd5b505af4158015611d54573d6000803e3d6000fd5b50505050611d61816105db565b6105db81612408565b7fbc197c810000000000000000000000000000000000000000000000000000000098975050505050505050565b6040517efdd58e000000000000000000000000000000000000000000000000000000008152600090735fbdb2315678afecb367f032d93f642f64180aa39062fdd58e90611dea90309086906004016134dd565b60206040518083038186803b158015611e0257600080fd5b505afa158015611e16573d6000803e3d6000fd5b505050506040513d601f19601f8201168201806040525081019061048e9190612db3565b60145481565b60135481565b7ff23a6e61000000000000000000000000000000000000000000000000000000005b9695505050505050565b6001600160e01b031981167f01ffc9a70000000000000000000000000000000000000000000000000000000014919050565b600454611eb290600161415e565b611ebc9042614146565b601455565b600f54611ed09060019061417d565b6000838152601a602052604090205414611efc5760405162461bcd60e51b81526004016104c090613c28565b6000828152601a60205260408120805491611f168361435e565b909155505060008281526019602090815260409091208251611f3a92840190612776565b508260ff166004811115611f5e57634e487b7160e01b600052602160045260246000fd5b6000838152601b60205260409020805460ff19166001836004811115611f9457634e487b7160e01b600052602160045260246000fd5b0217905550610a74826124f1565b601154600f80546040517f5069a07c000000000000000000000000000000000000000000000000000000008152919273__$94d7d2f22770e4b0d1a2b99fb2812308e2$__92635069a07c9261200e926007926101009091046001600160a01b0316913091600401613c96565b60006040518083038186803b15801561202657600080fd5b505af415801561203a573d6000803e3d6000fd5b505050506040513d6000823e601f3d908101601f191682016040526120629190810190612cb9565b8154600180820184556000938452602093849020835160069093020180546001600160a01b0319166001600160a01b039093169290921782558284015190820155604082015160028201556060820151600382015560808201518051929391926120d292600485019201906127fa565b5060a082015160058201805460ff1916600183600681111561210457634e487b7160e01b600052602160045260246000fd5b02179055505050565b60005b6006548110156105db576000600680548390811061213e57634e487b7160e01b600052603260045260246000fd5b600091825260209091206001600590920201015460ff16600281111561217457634e487b7160e01b600052602160045260246000fd5b146121875761218281612664565b6123f6565b60006121b0600160050183815481106116b157634e487b7160e01b600052603260045260246000fd5b9050816018600083600160050186815481106121dc57634e487b7160e01b600052603260045260246000fd5b906000526020600020906005020160040180546121f890614316565b80601f016020809104026020016040519081016040528092919081815260200182805461222490614316565b80156122715780601f1061224657610100808354040283529160200191612271565b820191906000526020600020905b81548152906001019060200180831161225457829003601f168201915b50505050508060200190518101906122899190612db3565b60405160200161229a929190613461565b60405160208183030381529060405280519060200120815260200190815260200160002081905550806001600160a01b031663a9747026600160050184815481106122f557634e487b7160e01b600052603260045260246000fd5b9060005260206000209060050201600401805461231190614316565b80601f016020809104026020016040519081016040528092919081815260200182805461233d90614316565b801561238a5780601f1061235f5761010080835404028352916020019161238a565b820191906000526020600020905b81548152906001019060200180831161236d57829003601f168201915b50505050508060200190518101906123a29190612db3565b6013546040518363ffffffff1660e01b81526004016123c2929190613ea6565b600060405180830381600087803b1580156123dc57600080fd5b505af11580156123f0573d6000803e3d6000fd5b50505050505b806124008161435e565b915050612110565b6012546001600160a01b0316158015906124a35750601260009054906101000a90046001600160a01b03166001600160a01b031663999925066040518163ffffffff1660e01b815260040160206040518083038186803b15801561246b57600080fd5b505afa15801561247f573d6000803e3d6000fd5b505050506040513d601f19601f820116820180604052508101906124a39190612b7e565b156105db576012546040517fb992db0f0000000000000000000000000000000000000000000000000000000081526001600160a01b039091169063b992db0f90610c0790849060040161366d565b60005b60008281526017602052604090205481101561266057600082815260176020526040812080548390811061253857634e487b7160e01b600052603260045260246000fd5b6000918252602090912001546001600160a01b03161461264e57600082815260176020526040902080548290811061258057634e487b7160e01b600052603260045260246000fd5b6000918252602090912001546040517fa072d7b00000000000000000000000000000000000000000000000000000000081526001600160a01b039091169063a072d7b0906125d290859060040161366d565b600060405180830381600087803b1580156125ec57600080fd5b505af1158015612600573d6000803e3d6000fd5b505050600083815260176020526040902080549091508290811061263457634e487b7160e01b600052603260045260246000fd5b600091825260209091200180546001600160a01b03191690555b806126588161435e565b9150506124f4565b5050565b6105db6001600501828154811061268b57634e487b7160e01b600052603260045260246000fd5b906000526020600020906005020160010160019054906101000a900460ff16600160050183815481106126ce57634e487b7160e01b600052603260045260246000fd5b90600052602060002090600502016002015473__$94d7d2f22770e4b0d1a2b99fb2812308e2$__63f060d0b66001600501868154811061271e57634e487b7160e01b600052603260045260246000fd5b9060005260206000209060050201306040518363ffffffff1660e01b815260040161274a929190613e61565b60006040518083038186803b15801561276257600080fd5b505af41580156119a6573d6000803e3d6000fd5b82805461278290614316565b90600052602060002090601f0160209004810192826127a457600085556127ea565b82601f106127bd57805160ff19168380011785556127ea565b828001600101855582156127ea579182015b828111156127ea5782518255916020019190600101906127cf565b506127f6929150612834565b5090565b8280548282559060005260206000209081019282156127ea57916020028201828111156127ea5782518255916020019190600101906127cf565b5b808211156127f65760008155600101612835565b803561049181614845565b60008083601f840112612865578182fd5b50813567ffffffffffffffff81111561287c578182fd5b602083019150836020808302850101111561289657600080fd5b9250929050565b600082601f8301126128ad578081fd5b815160206128c26128bd83613f9e565b613f74565b82815281810190858301838502870184018810156128de578586fd5b855b858110156128fc578151845292840192908401906001016128e0565b5090979650505050505050565b60008083601f84011261291a578182fd5b50813567ffffffffffffffff811115612931578182fd5b60208301915083602082850101111561289657600080fd5b805161049181614845565b80516007811061049157600080fd5b600060e08284031215612974578081fd5b50919050565b60006020828403121561298b578081fd5b813561299681614845565b9392505050565b6000602082840312156129ae578081fd5b815161299681614845565b60008060008060008060008060a0898b0312156129d4578384fd5b88356129df81614845565b975060208901356129ef81614845565b9650604089013567ffffffffffffffff80821115612a0b578586fd5b612a178c838d01612854565b909850965060608b0135915080821115612a2f578586fd5b612a3b8c838d01612854565b909650945060808b0135915080821115612a53578384fd5b50612a608b828c01612909565b999c989b5096995094979396929594505050565b60008060008060008060a08789031215612a8c578384fd5b8635612a9781614845565b95506020870135612aa781614845565b94506040870135935060608701359250608087013567ffffffffffffffff811115612ad0578283fd5b612adc89828a01612909565b979a9699509497509295939492505050565b60008060408385031215612b00578182fd5b8251612b0b81614845565b6020840151909250612b1c81614845565b809150509250929050565b600080600060608486031215612b3b578081fd5b8335612b4681614845565b925060208401359150604084013567ffffffffffffffff811115612b68578182fd5b612b7486828701612963565b9150509250925092565b600060208284031215612b8f578081fd5b81518015158114612996578182fd5b600060208284031215612baf578081fd5b5035919050565b600060208284031215612bc7578081fd5b81356001600160e01b031981168114612996578182fd5b600060208284031215612bef578081fd5b815167ffffffffffffffff811115612c05578182fd5b8201601f81018413612c15578182fd5b8051612c236128bd82613fc2565b818152856020838501011115612c37578384fd5b612c488260208301602086016142ea565b95945050505050565b600080600080600060808688031215612c68578283fd5b8535612c7381614845565b94506020860135935060408601359250606086013567ffffffffffffffff811115612c9c578182fd5b612ca888828901612854565b969995985093965092949392505050565b600060208284031215612cca578081fd5b815167ffffffffffffffff80821115612ce1578283fd5b9083019060c08286031215612cf4578283fd5b60405160c081018181108382111715612d0f57612d0f6143bb565b604052612d1b83612949565b8152602083015160208201526040830151604082015260608301516060820152608083015182811115612d4c578485fd5b612d588782860161289d565b608083015250612d6a60a08401612954565b60a082015295945050505050565b600060208284031215612d89578081fd5b813567ffffffffffffffff811115612d9f578182fd5b612dab84828501612963565b949350505050565b600060208284031215612dc4578081fd5b5051919050565b600080600060408486031215612ddf578081fd5b83359250602084013567ffffffffffffffff811115612dfc578182fd5b612e0886828701612854565b9497909650939450505050565b60008060408385031215612e27578182fd5b8235915060208084013567ffffffffffffffff811115612e45578283fd5b8401601f81018613612e55578283fd5b8035612e636128bd82613f9e565b81815283810190838501858402850186018a1015612e7f578687fd5b8694505b83851015612ea1578035835260019490940193918501918501612e83565b5080955050505050509250929050565b60008060408385031215612ec3578182fd5b50508035926020909101359150565b600080600060608486031215612ee6578081fd5b8335612ef181614867565b925060208401359150604084013567ffffffffffffffff811115612f13578182fd5b8401601f81018613612f23578182fd5b8035612f316128bd82613fc2565b818152876020838501011115612f45578384fd5b8160208401602083013783602083830101528093505050509250925092565b6001600160a01b03169052565b60008284526020808501945084818502860184845b878110156128fc578383038952612f9d828861409b565b612fa8858284613103565b9a87019a9450505090840190600101612f86565b6000815180845260208085019450848183028601828601855b858110156128fc578383038952612fed838351613150565b98850198925090840190600101612fd5565b6000815480845260208085019450848183028601858552828520855b858110156128fc578383038952613032838361318a565b9885019892506001918201910161301b565b8183526020808401936000918085028201810184845b878110156128fc57848303601f1901895281353688900360be1901811261307f578687fd5b87018035845260c0858201356130948161485a565b6130a087870182613289565b506040808301356130b081614867565b60ff1690860152606082810135908601526080808301359086015260a06130d9818401846140e3565b935082828801526130ed83880185836131bc565b9c88019c9650505092850192505060010161305a565b60008284527f07ffffffffffffffffffffffffffffffffffffffffffffffffffffffffffffff831115613134578081fd5b6020830280836020870137939093016020019283525090919050565b6000815180845260208085019450808401835b8381101561317f57815187529582019590820190600101613163565b509495945050505050565b6000815480845260208085019450838352808320835b8381101561317f578154875295820195600191820191016131a0565b60008284528282602086013780602084860101526020601f19601f85011685010190509392505050565b600081518084526131fe8160208601602086016142ea565b601f01601f19169290920160200192915050565b6000815461321f81614316565b80855260206001838116801561323c57600181146132505761327e565b60ff1985168884015260408801955061327e565b866000528260002060005b858110156132765781548a820186015290830190840161325b565b890184019650505b505050505092915050565b60038110613299576132996143a5565b9052565b60078110613299576132996143a5565b60006101006132c4846132bf85612849565b612f64565b6020830135602085015260408301356040850152606083013560608501526132ef608084018461409b565b8260808701526133028387018284613103565b9250505061331360a084018461409b565b85830360a0870152613326838284613103565b9250505061333760c084018461409b565b85830360c087015261334a838284612f71565b9250505061335b60e08401846140e3565b85830360e0870152611e688382846131bc565b6000610100613381846132bf8554614194565b6001830154602085015260028301546040850152600383015460608501528060808501526133b48185016004850161318a565b905083810360a08501526133cb816005850161318a565b905083810360c08501526133e28160068501612fff565b905083810360e0850152612dab8160078501613212565b60006001600160a01b03825416835260018201546020840152600282015460408401526003820154606084015260c0608084015261343d60c084016004840161318a565b60ff60058401541661345260a086018261329d565b509392505050565b60ff169052565b60609290921b6bffffffffffffffffffffffff19168252601482015260340190565b6001600160a01b0391909116815260200190565b60006001600160a01b0386168252608060208301526134b9608083018661336e565b82810360408401526134cb81866133f9565b91505082606083015295945050505050565b6001600160a01b03929092168252602082015260400190565b60208082528251828201819052600091906040908185019080840286018301878501865b8381101561359a57603f19898403018552815160c06001600160a01b038251168552888201518986015287820151888601526060808301518187015250608080830151828288015261356e83880182613150565b9250505060a08083015192506135868187018461329d565b50958801959350509086019060010161351a565b509098975050505050505050565b60006040808301818452808654808352606092508286019150602083818302880101898752818720875b8481101561364f57605f198a840301865260c082548452600183015460ff6135fe878701828416613289565b61360f8b8701828460081c1661345a565b5050600283015488850152600383015460808501528060a085015261363981850160048501613212565b96850196935050600591909101906001016135d2565b5050960196909652509295945050505050565b901515815260200190565b90815260200190565b6001600160e01b031991909116815260200190565b60006020825261299660208301846131e6565b60006001600160a01b0387168252856020830152846040830152608060608301526136cd608083018486613103565b979650505050505050565b600060a0820190506001600160a01b0387168252856020830152846040830152836060830152611e68608083018461329d565b60006001600160a01b038089168352808816602084015280871660408401525084606083015260c0608083015261374560c08301856131e6565b82810360a084015261010061375b828651612f64565b602085015160208301526040850151604083015260608501516060830152608085015181608084015261379082840182613150565b91505060a085015182820360a08401526137aa8282613150565b91505060c085015182820360c08401526137c48282612fbc565b91505060e085015182820360e08401526137de82826131e6565b9b9a5050505050505050505050565b6020808252600a908201527f4f6e6c794b656570657200000000000000000000000000000000000000000000604082015260600190565b60208082526013908201527f496e67657374206e6f742043616c6c6261636b00000000000000000000000000604082015260600190565b60208082526010908201527f536f6c76657220686173206368696c6400000000000000000000000000000000604082015260600190565b60208082526016908201527f436f6e646974696f6e206e6f7420457865637574656400000000000000000000604082015260600190565b60208082526015908201527f6d73672e73656e646572206e6f7420736f6c7665720000000000000000000000604082015260600190565b6020808252600c908201527f4f6e6c7920666163746f72790000000000000000000000000000000000000000604082015260600190565b6020808252600b908201527f4f6e6c79204b6565706572000000000000000000000000000000000000000000604082015260600190565b60208082526015908201527f54696d656c6f636b207374696c6c206c6f636b65640000000000000000000000604082015260600190565b6020808252600f908201527f696e676573747320696e76616c69640000000000000000000000000000000000604082015260600190565b60208082526018908201527f4e6f74204172626974726174696f6e5265717565737465640000000000000000604082015260600190565b6020808252602e908201527f496e697469616c697a61626c653a20636f6e747261637420697320616c72656160408201527f647920696e697469616c697a6564000000000000000000000000000000000000606082015260800190565b60208082526011908201527f536c6f7420696e76616c6964207665722e000000000000000000000000000000604082015260600190565b6020808252600f908201527f4f6e6c792061726269747261746f720000000000000000000000000000000000604082015260600190565b6020808252600e908201527f4b656570657220696e76616c6964000000000000000000000000000000000000604082015260600190565b60208082526014908201527f4f7574636f6d65206e6f742070726f706f736564000000000000000000000000604082015260600190565b60208082526013908201527f4e6f74204f7574636f6d6550726f706f73656400000000000000000000000000604082015260600190565b60208082526016908201527f4e6f74204172626974726174696f6e50656e64696e6700000000000000000000604082015260600190565b60208082526012908201527f4f6e6c79206b65657065722f706172656e740000000000000000000000000000604082015260600190565b6020808252600e908201527f547261636b696e67496420736574000000000000000000000000000000000000604082015260600190565b60208082526014908201527f536c6f742076657273696f6e20696e76616c6964000000000000000000000000604082015260600190565b6020808252600d908201527f6e6f7420496e6974696174656400000000000000000000000000000000000000604082015260600190565b600060808252613ca9608083018761336e565b6001600160a01b0395861660208401529390941660408201526060015292915050565b600084825260406020830152612c48604083018486613103565b60006040820184835260206040818501528185518084526060860191508287019350845b818110156128fc57845183529383019391830191600101613d0a565b600060a08252613d3960a08301886133f9565b8281036020840152613d4b818861336e565b6001600160a01b039690961660408401525050606081019290925260809091015292915050565b6000606082528435613d8381614845565b613d906060840182612f64565b50613d9d60208601612849565b613daa6080840182612f64565b50613db760408601612849565b613dc460a0840182612f64565b50606085013560c0830152613ddc60808601866140e3565b60e080850152613df1610140850182846131bc565b915050613e0160a087018761409b565b605f198086850301610100870152613e1a848385613044565b9350613e2960c08a018a614128565b925080868503016101208701525050613e4282826132ad565b92505050613e536020830185612f64565b826040830152949350505050565b9182526001600160a01b0316602082015260400190565b9485526001600160a01b03938416602086015291831660408501529091166060830152608082015260a00190565b918252602082015260400190565b6000808335601e19843603018112613eca578283fd5b83018035915067ffffffffffffffff821115613ee4578283fd5b602090810192508102360382131561289657600080fd5b6000808335601e19843603018112613f11578283fd5b83018035915067ffffffffffffffff821115613f2b578283fd5b60200191503681900382131561289657600080fd5b6000823560fe19833603018112613f55578182fd5b9190910192915050565b6000823560be19833603018112613f55578182fd5b60405181810167ffffffffffffffff81118282101715613f9657613f966143bb565b604052919050565b600067ffffffffffffffff821115613fb857613fb86143bb565b5060209081020190565b600067ffffffffffffffff821115613fdc57613fdc6143bb565b50601f01601f191660200190565b60009081526020902090565b60208410801561404c57601f84116001811461401d57614016868561434b565b8355614046565b61402683613fea565b61403b6020601f8801048201600183016141a0565b506140468684614422565b5061072a565b8160005260206000206020601f8701048101601f87168015614076576140768160001984016143d1565b506140896020601f8801048301826141a0565b50506001856002021782555050505050565b6000808335601e198436030181126140b1578283fd5b830160208101925035905067ffffffffffffffff8111156140d157600080fd5b60208102360383131561289657600080fd5b6000808335601e198436030181126140f9578283fd5b830160208101925035905067ffffffffffffffff81111561411957600080fd5b80360383131561289657600080fd5b6000823560fe1983360301811261413d578182fd5b90910192915050565b600082198211156141595761415961438f565b500190565b60008160001904831182151516156141785761417861438f565b500290565b60008282101561418f5761418f61438f565b500390565b6001600160a01b031690565b5b8181101561266057600081556001016141a1565b6141bf83826143e5565b818160005260208060002060005b868110156141e9578335825592820192600191820191016141cd565b50505050505050565b67ffffffffffffffff83111561420a5761420a6143bb565b6142148154614316565b600080601f8611601f8411818117156142335761423086613fea565b92505b8015614262576020601f8901048301602089101561424e5750825b6142606020601f8801048501826141a0565b505b50806001811461428e5760009450871561427d578387013594505b614287888661434b565b86556142e0565b601f198816945082845b868110156142b85788860135825560209586019560019092019101614298565b50888610156142d557878501356000196008601f8c16021c191681555b506001600289020186555b5050505050505050565b60005b838110156143055781810151838201526020016142ed565b8381111561085a5750506000910152565b60028104600182168061432a57607f821691505b6020821081141561297457634e487b7160e01b600052602260045260246000fd5b600019600883021c191660029091021790565b60006000198214156143725761437261438f565b5060010190565b634e487b7160e01b600052600060045260246000fd5b634e487b7160e01b600052601160045260246000fd5b634e487b7160e01b600052602160045260246000fd5b634e487b7160e01b600052604160045260246000fd5b8054600019836020036008021c1681555050565b680100000000000000008211156143fe576143fe6143bb565b805482825580831015610a745781600052602060002061085a8282018583016141a0565b80600052602060002061443683825461434b565b9091556000905550565b6001600160a01b0382166001600160a01b03198254161781555050565b813561446881614845565b6144728183614440565b5060016020808401358284015560408401356002840155606084013560038401556144a06080850185613eb4565b6144ae8183600488016141b5565b50506144bd60a0850185613eb4565b6144cb8183600588016141b5565b5050600683016144de60c0860186613eb4565b680100000000000000008111156144f7576144f76143bb565b8254818455808210156145325760008481528581208381019083015b8082101561452e5761452583836143e5565b90880190614513565b5050505b508161453d84613fea565b93506000805b83811015614572576145558386613eb4565b6145618183868b614780565b505094870194918601918701614543565b505050505050505061458760e0830183613efb565b61085a8183600786016141f2565b81356145a081614845565b6145aa8183614440565b5060016020808401356145bc81614845565b6145c881848601614440565b50600260408501356145d981614845565b6145e581838701614440565b50600360608601358186015560046146006080880188613efb565b61460d8183858b016141f2565b5050600580870161462160a08a018a613eb4565b6801000000000000000081111561463a5761463a6143bb565b825481845580821015614702577f33333333333333333333333333333333333333333333333333333333333333338082118b161561467a5761467a61438f565b8083118b161561468c5761468c61438f565b506000848152898120838702810190878402015b808210156146fe576146b3838484614826565b828d8301556146c583848d8501614826565b6146d283848c8501614826565b88820180546146e081614316565b80156146f2576146f286828486613ff6565b505050908701906146a0565b5050505b5081965061470f83613fea565b9550600094508492505b808310156147465761473561472e8884613f5f565b8688614799565b958701959483019491880191614719565b50505050505050505061266061475f60c0840184613f40565b6006830161445d565b805461ff008360081b1661ff00198216178255505050565b811561478e5761478e614379565b61085a8484836141b5565b81156147a7576147a7614379565b823581556001810160208401356147bd8161485a565b600381106147cd576147cd6143a5565b60ff1982541660ff821681178355505060408401356147eb81614867565b6147f58183614768565b5050606083013560028201556080830135600382015561481860a0840184613efb565b61072a8183600486016141f2565b805460088302600019811b8086831b1681198416178455505050505050565b6001600160a01b03811681146105db57600080fd5b600381106105db57600080fd5b60ff811681146105db57600080fdfea26469706673582212205f45a84cb8bcfe3620c631a4a6e78fd625eaf07bfeb6964c26394b8d3051e51064736f6c63430008000033",
  "linkReferences": {
    "contracts/SolverLib.sol": {
      "SolverLib": [
        {
          "length": 20,
          "start": 1376
        },
        {
          "length": 20,
          "start": 1723
        },
        {
          "length": 20,
          "start": 2765
        },
        {
          "length": 20,
          "start": 3318
        },
        {
          "length": 20,
          "start": 3536
        },
        {
          "length": 20,
          "start": 3695
        },
        {
          "length": 20,
          "start": 5039
        },
        {
          "length": 20,
          "start": 5412
        },
        {
          "length": 20,
          "start": 5611
        },
        {
          "length": 20,
          "start": 7026
        },
        {
          "length": 20,
          "start": 7382
        },
        {
          "length": 20,
          "start": 8179
        },
        {
          "length": 20,
          "start": 9986
        }
      ]
    }
  },
  "deployedLinkReferences": {
    "contracts/SolverLib.sol": {
      "SolverLib": [
        {
          "length": 20,
          "start": 1344
        },
        {
          "length": 20,
          "start": 1691
        },
        {
          "length": 20,
          "start": 2733
        },
        {
          "length": 20,
          "start": 3286
        },
        {
          "length": 20,
          "start": 3504
        },
        {
          "length": 20,
          "start": 3663
        },
        {
          "length": 20,
          "start": 5007
        },
        {
          "length": 20,
          "start": 5380
        },
        {
          "length": 20,
          "start": 5579
        },
        {
          "length": 20,
          "start": 6994
        },
        {
          "length": 20,
          "start": 7350
        },
        {
          "length": 20,
          "start": 8147
        },
        {
          "length": 20,
          "start": 9954
        }
      ]
    }
  }
}