{
  "_format": "hh-sol-artifact-1",
  "contractName": "BasicSolverV1",
  "sourceName": "contracts/BasicSolverV1.sol",
  "abi": [
    {
      "inputs": [
        {
          "internalType": "uint8",
          "name": "_type",
          "type": "uint8"
        },
        {
          "internalType": "uint256",
          "name": "_key",
          "type": "uint256"
        },
        {
          "internalType": "bytes",
          "name": "_data",
          "type": "bytes"
        }
      ],
      "name": "addData",
      "outputs": [],
      "stateMutability": "nonpayable",
      "type": "function"
    },
    {
      "inputs": [
        {
          "internalType": "uint256",
          "name": "_index",
          "type": "uint256"
        }
      ],
      "name": "addressFromChainIndex",
      "outputs": [
        {
          "internalType": "address",
          "name": "_address",
          "type": "address"
        }
      ],
      "stateMutability": "view",
      "type": "function"
    },
    {
      "inputs": [
        {
          "internalType": "uint256[]",
          "name": "payouts",
          "type": "uint256[]"
        }
      ],
      "name": "arbitrate",
      "outputs": [],
      "stateMutability": "nonpayable",
      "type": "function"
    },
    {
      "inputs": [],
      "name": "arbitrateNull",
      "outputs": [],
      "stateMutability": "nonpayable",
      "type": "function"
    },
    {
      "inputs": [],
      "name": "arbitrationPending",
      "outputs": [],
      "stateMutability": "nonpayable",
      "type": "function"
    },
    {
      "inputs": [],
      "name": "arbitrationRequested",
      "outputs": [],
      "stateMutability": "nonpayable",
      "type": "function"
    },
    {
      "inputs": [],
      "name": "chainChild",
      "outputs": [
        {
          "internalType": "address",
          "name": "",
          "type": "address"
        }
      ],
      "stateMutability": "view",
      "type": "function"
    },
    {
      "inputs": [],
      "name": "chainIndex",
      "outputs": [
        {
          "internalType": "uint256",
          "name": "",
          "type": "uint256"
        }
      ],
      "stateMutability": "view",
      "type": "function"
    },
    {
      "inputs": [],
      "name": "chainParent",
      "outputs": [
        {
          "internalType": "address",
          "name": "",
          "type": "address"
        }
      ],
      "stateMutability": "view",
      "type": "function"
    },
    {
      "inputs": [
        {
          "internalType": "uint256",
          "name": "",
          "type": "uint256"
        }
      ],
      "name": "conditions",
      "outputs": [
        {
          "internalType": "contract IERC20",
          "name": "collateralToken",
          "type": "address"
        },
        {
          "internalType": "bytes32",
          "name": "questionId",
          "type": "bytes32"
        },
        {
          "internalType": "bytes32",
          "name": "parentCollectionId",
          "type": "bytes32"
        },
        {
          "internalType": "bytes32",
          "name": "conditionId",
          "type": "bytes32"
        },
        {
          "internalType": "enum SolverLib.Status",
          "name": "status",
          "type": "uint8"
        }
      ],
      "stateMutability": "view",
      "type": "function"
    },
    {
      "inputs": [],
      "name": "config",
      "outputs": [
        {
          "internalType": "contract Solver",
          "name": "implementation",
          "type": "address"
        },
        {
          "internalType": "address",
          "name": "keeper",
          "type": "address"
        },
        {
          "internalType": "address",
          "name": "arbitrator",
          "type": "address"
        },
        {
          "internalType": "uint256",
          "name": "timelockSeconds",
          "type": "uint256"
        },
        {
          "internalType": "bytes",
          "name": "data",
          "type": "bytes"
        },
        {
          "components": [
            {
              "internalType": "contract IERC20",
              "name": "collateralToken",
              "type": "address"
            },
            {
              "internalType": "uint256",
              "name": "outcomeSlots",
              "type": "uint256"
            },
            {
              "internalType": "uint256",
              "name": "parentCollectionPartitionIndex",
              "type": "uint256"
            },
            {
              "internalType": "uint256",
              "name": "amount",
              "type": "uint256"
            },
            {
              "internalType": "uint256[]",
              "name": "partition",
              "type": "uint256[]"
            },
            {
              "internalType": "uint256[]",
              "name": "recipientAddressPorts",
              "type": "uint256[]"
            },
            {
              "internalType": "uint256[][]",
              "name": "recipientAmounts",
              "type": "uint256[][]"
            },
            {
              "internalType": "string",
              "name": "metadata",
              "type": "string"
            }
          ],
          "internalType": "struct SolverLib.ConditionBase",
          "name": "conditionBase",
          "type": "tuple"
        }
      ],
      "stateMutability": "view",
      "type": "function"
    },
    {
      "inputs": [],
      "name": "confirmPayouts",
      "outputs": [],
      "stateMutability": "nonpayable",
      "type": "function"
    },
    {
      "inputs": [
        {
          "internalType": "uint256",
          "name": "_index",
          "type": "uint256"
        }
      ],
      "name": "deferredIngest",
      "outputs": [],
      "stateMutability": "nonpayable",
      "type": "function"
    },
    {
      "inputs": [
        {
          "components": [
            {
              "internalType": "contract Solver",
              "name": "implementation",
              "type": "address"
            },
            {
              "internalType": "address",
              "name": "keeper",
              "type": "address"
            },
            {
              "internalType": "address",
              "name": "arbitrator",
              "type": "address"
            },
            {
              "internalType": "uint256",
              "name": "timelockSeconds",
              "type": "uint256"
            },
            {
              "internalType": "bytes",
              "name": "data",
              "type": "bytes"
            },
            {
              "components": [
                {
                  "internalType": "uint256",
                  "name": "executions",
                  "type": "uint256"
                },
                {
                  "internalType": "bool",
                  "name": "isDeferred",
                  "type": "bool"
                },
                {
                  "internalType": "bool",
                  "name": "isConstant",
                  "type": "bool"
                },
                {
                  "internalType": "uint8",
                  "name": "port",
                  "type": "uint8"
                },
                {
                  "internalType": "uint256",
                  "name": "key",
                  "type": "uint256"
                },
                {
                  "internalType": "uint256",
                  "name": "solverIndex",
                  "type": "uint256"
                },
                {
                  "internalType": "bytes",
                  "name": "data",
                  "type": "bytes"
                }
              ],
              "internalType": "struct SolverLib.Ingest[]",
              "name": "ingests",
              "type": "tuple[]"
            },
            {
              "components": [
                {
                  "internalType": "bool",
                  "name": "executed",
                  "type": "bool"
                },
                {
                  "internalType": "bool",
                  "name": "isPort",
                  "type": "bool"
                },
                {
                  "internalType": "address",
                  "name": "to",
                  "type": "address"
                },
                {
                  "internalType": "uint256",
                  "name": "portIndex",
                  "type": "uint256"
                },
                {
                  "internalType": "uint256",
                  "name": "value",
                  "type": "uint256"
                },
                {
                  "internalType": "bytes",
                  "name": "data",
                  "type": "bytes"
                }
              ],
              "internalType": "struct SolverLib.Action[]",
              "name": "actions",
              "type": "tuple[]"
            },
            {
              "components": [
                {
                  "internalType": "contract IERC20",
                  "name": "collateralToken",
                  "type": "address"
                },
                {
                  "internalType": "uint256",
                  "name": "outcomeSlots",
                  "type": "uint256"
                },
                {
                  "internalType": "uint256",
                  "name": "parentCollectionPartitionIndex",
                  "type": "uint256"
                },
                {
                  "internalType": "uint256",
                  "name": "amount",
                  "type": "uint256"
                },
                {
                  "internalType": "uint256[]",
                  "name": "partition",
                  "type": "uint256[]"
                },
                {
                  "internalType": "uint256[]",
                  "name": "recipientAddressPorts",
                  "type": "uint256[]"
                },
                {
                  "internalType": "uint256[][]",
                  "name": "recipientAmounts",
                  "type": "uint256[][]"
                },
                {
                  "internalType": "string",
                  "name": "metadata",
                  "type": "string"
                }
              ],
              "internalType": "struct SolverLib.ConditionBase",
              "name": "conditionBase",
              "type": "tuple"
            }
          ],
          "internalType": "struct SolverLib.Config",
          "name": "_config",
          "type": "tuple"
        }
      ],
      "name": "deployChild",
      "outputs": [
        {
          "internalType": "contract Solver",
          "name": "_solver",
          "type": "address"
        }
      ],
      "stateMutability": "nonpayable",
      "type": "function"
    },
    {
      "inputs": [],
      "name": "executeSolve",
      "outputs": [],
      "stateMutability": "nonpayable",
      "type": "function"
    },
    {
      "inputs": [
        {
          "internalType": "uint256",
          "name": "_partitionIndex",
          "type": "uint256"
        }
      ],
      "name": "getCanonCollectionId",
      "outputs": [
        {
          "internalType": "bytes32",
          "name": "collectionId",
          "type": "bytes32"
        }
      ],
      "stateMutability": "view",
      "type": "function"
    },
    {
      "inputs": [],
      "name": "getConditions",
      "outputs": [
        {
          "components": [
            {
              "internalType": "contract IERC20",
              "name": "collateralToken",
              "type": "address"
            },
            {
              "internalType": "bytes32",
              "name": "questionId",
              "type": "bytes32"
            },
            {
              "internalType": "bytes32",
              "name": "parentCollectionId",
              "type": "bytes32"
            },
            {
              "internalType": "bytes32",
              "name": "conditionId",
              "type": "bytes32"
            },
            {
              "internalType": "uint256[]",
              "name": "payouts",
              "type": "uint256[]"
            },
            {
              "internalType": "enum SolverLib.Status",
              "name": "status",
              "type": "uint8"
            }
          ],
          "internalType": "struct SolverLib.Condition[]",
          "name": "",
          "type": "tuple[]"
        }
      ],
      "stateMutability": "view",
      "type": "function"
    },
    {
      "inputs": [
        {
          "internalType": "uint256",
          "name": "_key",
          "type": "uint256"
        }
      ],
      "name": "getOutput",
      "outputs": [
        {
          "internalType": "bytes",
          "name": "data",
          "type": "bytes"
        }
      ],
      "stateMutability": "view",
      "type": "function"
    },
    {
      "inputs": [],
      "name": "ingestsValid",
      "outputs": [
        {
          "internalType": "bool",
          "name": "",
          "type": "bool"
        }
      ],
      "stateMutability": "view",
      "type": "function"
    },
    {
      "inputs": [
        {
          "internalType": "address",
          "name": "_chainParent",
          "type": "address"
        },
        {
          "internalType": "uint256",
          "name": "_chainIndex",
          "type": "uint256"
        },
        {
          "components": [
            {
              "internalType": "contract Solver",
              "name": "implementation",
              "type": "address"
            },
            {
              "internalType": "address",
              "name": "keeper",
              "type": "address"
            },
            {
              "internalType": "address",
              "name": "arbitrator",
              "type": "address"
            },
            {
              "internalType": "uint256",
              "name": "timelockSeconds",
              "type": "uint256"
            },
            {
              "internalType": "bytes",
              "name": "data",
              "type": "bytes"
            },
            {
              "components": [
                {
                  "internalType": "uint256",
                  "name": "executions",
                  "type": "uint256"
                },
                {
                  "internalType": "bool",
                  "name": "isDeferred",
                  "type": "bool"
                },
                {
                  "internalType": "bool",
                  "name": "isConstant",
                  "type": "bool"
                },
                {
                  "internalType": "uint8",
                  "name": "port",
                  "type": "uint8"
                },
                {
                  "internalType": "uint256",
                  "name": "key",
                  "type": "uint256"
                },
                {
                  "internalType": "uint256",
                  "name": "solverIndex",
                  "type": "uint256"
                },
                {
                  "internalType": "bytes",
                  "name": "data",
                  "type": "bytes"
                }
              ],
              "internalType": "struct SolverLib.Ingest[]",
              "name": "ingests",
              "type": "tuple[]"
            },
            {
              "components": [
                {
                  "internalType": "bool",
                  "name": "executed",
                  "type": "bool"
                },
                {
                  "internalType": "bool",
                  "name": "isPort",
                  "type": "bool"
                },
                {
                  "internalType": "address",
                  "name": "to",
                  "type": "address"
                },
                {
                  "internalType": "uint256",
                  "name": "portIndex",
                  "type": "uint256"
                },
                {
                  "internalType": "uint256",
                  "name": "value",
                  "type": "uint256"
                },
                {
                  "internalType": "bytes",
                  "name": "data",
                  "type": "bytes"
                }
              ],
              "internalType": "struct SolverLib.Action[]",
              "name": "actions",
              "type": "tuple[]"
            },
            {
              "components": [
                {
                  "internalType": "contract IERC20",
                  "name": "collateralToken",
                  "type": "address"
                },
                {
                  "internalType": "uint256",
                  "name": "outcomeSlots",
                  "type": "uint256"
                },
                {
                  "internalType": "uint256",
                  "name": "parentCollectionPartitionIndex",
                  "type": "uint256"
                },
                {
                  "internalType": "uint256",
                  "name": "amount",
                  "type": "uint256"
                },
                {
                  "internalType": "uint256[]",
                  "name": "partition",
                  "type": "uint256[]"
                },
                {
                  "internalType": "uint256[]",
                  "name": "recipientAddressPorts",
                  "type": "uint256[]"
                },
                {
                  "internalType": "uint256[][]",
                  "name": "recipientAmounts",
                  "type": "uint256[][]"
                },
                {
                  "internalType": "string",
                  "name": "metadata",
                  "type": "string"
                }
              ],
              "internalType": "struct SolverLib.ConditionBase",
              "name": "conditionBase",
              "type": "tuple"
            }
          ],
          "internalType": "struct SolverLib.Config",
          "name": "_solverConfig",
          "type": "tuple"
        }
      ],
      "name": "init",
      "outputs": [],
      "stateMutability": "nonpayable",
      "type": "function"
    },
    {
      "inputs": [
        {
          "internalType": "address",
          "name": "operator",
          "type": "address"
        },
        {
          "internalType": "address",
          "name": "from",
          "type": "address"
        },
        {
          "internalType": "uint256[]",
          "name": "ids",
          "type": "uint256[]"
        },
        {
          "internalType": "uint256[]",
          "name": "values",
          "type": "uint256[]"
        },
        {
          "internalType": "bytes",
          "name": "data",
          "type": "bytes"
        }
      ],
      "name": "onERC1155BatchReceived",
      "outputs": [
        {
          "internalType": "bytes4",
          "name": "",
          "type": "bytes4"
        }
      ],
      "stateMutability": "nonpayable",
      "type": "function"
    },
    {
      "inputs": [
        {
          "internalType": "address",
          "name": "operator",
          "type": "address"
        },
        {
          "internalType": "address",
          "name": "from",
          "type": "address"
        },
        {
          "internalType": "uint256",
          "name": "id",
          "type": "uint256"
        },
        {
          "internalType": "uint256",
          "name": "value",
          "type": "uint256"
        },
        {
          "internalType": "bytes",
          "name": "data",
          "type": "bytes"
        }
      ],
      "name": "onERC1155Received",
      "outputs": [
        {
          "internalType": "bytes4",
          "name": "",
          "type": "bytes4"
        }
      ],
      "stateMutability": "nonpayable",
      "type": "function"
    },
    {
      "inputs": [],
      "name": "prepareSolve",
      "outputs": [],
      "stateMutability": "nonpayable",
      "type": "function"
    },
    {
      "inputs": [
        {
          "internalType": "uint256[]",
          "name": "_payouts",
          "type": "uint256[]"
        }
      ],
      "name": "proposePayouts",
      "outputs": [],
      "stateMutability": "nonpayable",
      "type": "function"
    },
    {
      "inputs": [
        {
          "internalType": "uint256",
          "name": "",
          "type": "uint256"
        }
      ],
      "name": "receivedTokens",
      "outputs": [
        {
          "internalType": "uint256",
          "name": "",
          "type": "uint256"
        }
      ],
      "stateMutability": "view",
      "type": "function"
    },
    {
      "inputs": [
        {
          "internalType": "bytes32",
          "name": "_trackingId",
          "type": "bytes32"
        }
      ],
      "name": "setTrackingId",
      "outputs": [],
      "stateMutability": "nonpayable",
      "type": "function"
    },
    {
      "inputs": [
        {
          "internalType": "bytes4",
          "name": "interfaceId",
          "type": "bytes4"
        }
      ],
      "name": "supportsInterface",
      "outputs": [
        {
          "internalType": "bool",
          "name": "",
          "type": "bool"
        }
      ],
      "stateMutability": "view",
      "type": "function"
    },
    {
      "inputs": [],
      "name": "timelock",
      "outputs": [
        {
          "internalType": "uint256",
          "name": "",
          "type": "uint256"
        }
      ],
      "stateMutability": "view",
      "type": "function"
    },
    {
      "inputs": [],
      "name": "trackingId",
      "outputs": [
        {
          "internalType": "bytes32",
          "name": "",
          "type": "bytes32"
        }
      ],
      "stateMutability": "view",
      "type": "function"
    }
  ],
  "bytecode": "0x608060405234801561001057600080fd5b506144b3806100206000396000f3fe608060405234801561001057600080fd5b50600436106101cf5760003560e01c80635bd111231161010457806399992506116100a2578063d7791e2611610071578063d7791e261461039c578063e7fd2059146103af578063ea8221a9146103c2578063f23a6e61146103ca576101cf565b80639999250614610359578063ac22905014610361578063bc197c8114610374578063d33219b414610394576101cf565b806380c2dde2116100de57806380c2dde21461032357806384dbd3911461032b57806394e056001461033e578063972a688b14610351576101cf565b80635bd11123146102ec57806379502c55146102f45780637c1236271461030e576101cf565b80632c17b91e1161017157806348cbb2fc1161014b57806348cbb2fc146102b457806348d6bc00146102c957806355dd978b146102d157806359dad0ba146102d9576101cf565b80632c17b91e146102845780633837b05e1461028c5780633a275fa2146102ac576101cf565b806317861f87116101ad57806317861f871461022557806318f792781461024557806326c500071461024d5780632b36342714610271576101cf565b806301ffc9a7146101d45780630d06101a146101fd5780630d49722d14610212575b600080fd5b6101e76101e2366004612746565b6103dd565b6040516101f49190613129565b60405180910390f35b61021061020b366004612716565b610423565b005b61021061022036600461262a565b610451565b610238610233366004612716565b6105b1565b6040516101f49190613152565b610210610681565b61026061025b366004612716565b6107db565b6040516101f4959493929190613165565b61021061027f3660046128db565b610829565b610210610865565b61029f61029a366004612716565b610a3b565b6040516101f49190612f63565b610210610afd565b6102bc610d9f565b6040516101f49190613134565b610210610da5565b61029f610ee8565b6102106102e73660046125d3565b610ef7565b610210610fb3565b6102fc61108b565b6040516101f496959493929190613198565b61031661135a565b6040516101f49190612fab565b61029f611489565b6102bc610339366004612716565b61149d565b61021061034c366004612716565b611598565b6102106117b3565b6101e761188b565b61029f61036f3660046128a0565b611938565b610387610382366004612465565b611a3d565b6040516101f4919061313d565b6102bc611a6a565b6102bc6103aa366004612716565b611a70565b6102106103bd36600461266a565b611a91565b6102bc611c00565b6103876103d8366004612520565b611c06565b60006001600160e01b031982167f4e2312e000000000000000000000000000000000000000000000000000000000148061041b575061041b82611c94565b90505b919050565b6015541561044c5760405162461bcd60e51b815260040161044390613621565b60405180910390fd5b601555565b6002546001600160a01b0316331461047b5760405162461bcd60e51b8152600401610443906133c4565b60016010805461048d90600190613b54565b815481106104ab57634e487b7160e01b600052603260045260246000fd5b600091825260209091206006918202016005015460ff16908111156104e057634e487b7160e01b600052602160045260246000fd5b146104fd5760405162461bcd60e51b815260040161044390613356565b6010805473__$94d7d2f22770e4b0d1a2b99fb2812308e2$__91636a0a24f19161052990600190613b54565b8154811061054757634e487b7160e01b600052603260045260246000fd5b906000526020600020906006020184846040518463ffffffff1660e01b8152600401610575939291906136fc565b60006040518083038186803b15801561058d57600080fd5b505af41580156105a1573d6000803e3d6000fd5b505050506105ad611cc6565b5050565b601054600082815260196020526040902054606091146105e35760405162461bcd60e51b81526004016104439061331f565b600082815260186020526040902080546105fc90613f0d565b80601f016020809104026020016040519081016040528092919081815260200182805461062890613f0d565b80156106755780601f1061064a57610100808354040283529160200191610675565b820191906000526020600020905b81548152906001019060200180831161065857829003601f168201915b50505050509050919050565b6003546001600160a01b031633146106ab5760405162461bcd60e51b8152600401610443906134a0565b6002601080546106bd90600190613b54565b815481106106db57634e487b7160e01b600052603260045260246000fd5b600091825260209091206006918202016005015460ff169081111561071057634e487b7160e01b600052602160045260246000fd5b1461072d5760405162461bcd60e51b815260040161044390613545565b6010805473__$94d7d2f22770e4b0d1a2b99fb2812308e2$__916324b286029161075990600190613b54565b8154811061077757634e487b7160e01b600052603260045260246000fd5b90600052602060002090600602016040518263ffffffff1660e01b81526004016107a19190613134565b60006040518083038186803b1580156107b957600080fd5b505af41580156107cd573d6000803e3d6000fd5b505050506107d9611cc6565b565b601081815481106107eb57600080fd5b6000918252602090912060069091020180546001820154600283015460038401546005909401546001600160a01b0390931694509092909160ff1685565b6002546001600160a01b031633146108535760405162461bcd60e51b8152600401610443906132b1565b6108608383600084611ce3565b505050565b60115460ff16156109a3576002546001600160a01b0316331480610898575060115461010090046001600160a01b031633145b6108b45760405162461bcd60e51b8152600401610443906135ea565b6005601080546108c690600190613b54565b815481106108e457634e487b7160e01b600052603260045260246000fd5b600091825260209091206006918202016005015460ff169081111561091957634e487b7160e01b600052602160045260246000fd5b1480610987575060066010805461093290600190613b54565b8154811061095057634e487b7160e01b600052603260045260246000fd5b600091825260209091206006918202016005015460ff169081111561098557634e487b7160e01b600052602160045260246000fd5b145b6109a35760405162461bcd60e51b81526004016104439061327a565b6011805460ff191660011790556109b8611dc1565b6109c0611f39565b6012546001600160a01b0316156107d957601260009054906101000a90046001600160a01b03166001600160a01b0316632c17b91e6040518163ffffffff1660e01b8152600401600060405180830381600087803b158015610a2157600080fd5b505af1158015610a35573d6000803e3d6000fd5b50505050565b6011546012546013546040517f9fa61fa300000000000000000000000000000000000000000000000000000000815260009373__$94d7d2f22770e4b0d1a2b99fb2812308e2$__93639fa61fa393610aad93889330936001600160a01b036101009092048216939116916004016138ed565b60206040518083038186803b158015610ac557600080fd5b505af4158015610ad9573d6000803e3d6000fd5b505050506040513d601f19601f8201168201806040525081019061041b9190612449565b600060108054610b0f90600190613b54565b81548110610b2d57634e487b7160e01b600052603260045260246000fd5b600091825260209091206006918202016005015460ff1690811115610b6257634e487b7160e01b600052602160045260246000fd5b14610b7f5760405162461bcd60e51b81526004016104439061368f565b610b8761188b565b610ba35760405162461bcd60e51b815260040161044390613432565b6010805460019190610bb6908390613b54565b81548110610bd457634e487b7160e01b600052603260045260246000fd5b906000526020600020906006020160050160006101000a81548160ff02191690836006811115610c1457634e487b7160e01b600052602160045260246000fd5b021790555073__$94d7d2f22770e4b0d1a2b99fb2812308e2$__6366662585601160019054906101000a90046001600160a01b0316600160070160106001601080549050610c629190613b54565b81548110610c8057634e487b7160e01b600052603260045260246000fd5b90600052602060002090600602016040518463ffffffff1660e01b8152600401610cac93929190612f77565b60006040518083038186803b158015610cc457600080fd5b505af4158015610cd8573d6000803e3d6000fd5b50506010805473__$94d7d2f22770e4b0d1a2b99fb2812308e2$__935063366968289250610d0890600190613b54565b81548110610d2657634e487b7160e01b600052603260045260246000fd5b906000526020600020906006020160016007013060186015546040518663ffffffff1660e01b8152600401610d5f959493929190613756565b60006040518083038186803b158015610d7757600080fd5b505af4158015610d8b573d6000803e3d6000fd5b50505050610d976107d9565b6107d9611f9e565b60155481565b6014544211610dc65760405162461bcd60e51b8152600401610443906133fb565b600260108054610dd890600190613b54565b81548110610df657634e487b7160e01b600052603260045260246000fd5b600091825260209091206006918202016005015460ff1690811115610e2b57634e487b7160e01b600052602160045260246000fd5b14610e485760405162461bcd60e51b81526004016104439061350e565b6010805473__$94d7d2f22770e4b0d1a2b99fb2812308e2$__9163696d466191610e7490600190613b54565b81548110610e9257634e487b7160e01b600052603260045260246000fd5b90600052602060002090600602016040518263ffffffff1660e01b8152600401610ebc9190613134565b60006040518083038186803b158015610ed457600080fd5b505af4158015610a35573d6000803e3d6000fd5b6012546001600160a01b031681565b3373e7f1725e7734ce288f8367e1bb143e90bb3f051214610f2a5760405162461bcd60e51b81526004016104439061338d565b6000610f3c6040830160208401612426565b6001600160a01b03161415610f635760405162461bcd60e51b8152600401610443906134d7565b601180547fffffffffffffffffffffff0000000000000000000000000000000000000000ff166101006001600160a01b038616021790556013829055806001610fac82826141dc565b5050505050565b6003546001600160a01b03163314610fdd5760405162461bcd60e51b8152600401610443906134a0565b600360108054610fef90600190613b54565b8154811061100d57634e487b7160e01b600052603260045260246000fd5b600091825260209091206006918202016005015460ff169081111561104257634e487b7160e01b600052602160045260246000fd5b1461105f5760405162461bcd60e51b815260040161044390613469565b6010805473__$94d7d2f22770e4b0d1a2b99fb2812308e2$__9163ec7ac2f09161075990600190613b54565b60018054600254600354600454600580546001600160a01b0395861696948616959093169391926110bb90613f0d565b80601f01602080910402602001604051908101604052809291908181526020018280546110e790613f0d565b80156111345780601f1061110957610100808354040283529160200191611134565b820191906000526020600020905b81548152906001019060200180831161111757829003601f168201915b505060408051610100810182526007870180546001600160a01b031682526008880154602080840191909152600989015483850152600a8901546060840152600b890180548551818402810184019096528086529899989397509195506080870194509091908301828280156111c957602002820191906000526020600020905b8154815260200190600101908083116111b5575b505050505081526020016005820180548060200260200160405190810160405280929190818152602001828054801561122157602002820191906000526020600020905b81548152602001906001019080831161120d575b5050505050815260200160068201805480602002602001604051908101604052809291908181526020016000905b828210156112bb576000848152602090819020830180546040805182850281018501909152818152928301828280156112a757602002820191906000526020600020905b815481526020019060010190808311611293575b50505050508152602001906001019061124f565b5050505081526020016007820180546112d390613f0d565b80601f01602080910402602001604051908101604052809291908181526020018280546112ff90613f0d565b801561134c5780601f106113215761010080835404028352916020019161134c565b820191906000526020600020905b81548152906001019060200180831161132f57829003601f168201915b505050505081525050905086565b60606010805480602002602001604051908101604052809291908181526020016000905b828210156114805760008481526020908190206040805160c0810182526006860290920180546001600160a01b03168352600181015483850152600281015483830152600381015460608401526004810180548351818702810187019094528084529394919360808601939283018282801561141957602002820191906000526020600020905b815481526020019060010190808311611405575b5050509183525050600582015460209091019060ff16600681111561144e57634e487b7160e01b600052602160045260246000fd5b600681111561146d57634e487b7160e01b600052602160045260246000fd5b815250508152602001906001019061137e565b50505050905090565b60115461010090046001600160a01b031681565b600073__$94d7d2f22770e4b0d1a2b99fb2812308e2$__630bc1c42a601060016010805490506114cd9190613b54565b815481106114eb57634e487b7160e01b600052603260045260246000fd5b90600052602060002090600602016001600701600401858154811061152057634e487b7160e01b600052603260045260246000fd5b90600052602060002001546040518363ffffffff1660e01b81526004016115489291906137a2565b60206040518083038186803b15801561156057600080fd5b505af4158015611574573d6000803e3d6000fd5b505050506040513d601f19601f8201168201806040525081019061041b919061272e565b6002546001600160a01b031633146115c25760405162461bcd60e51b8152600401610443906132b1565b60068054829081106115e457634e487b7160e01b600052603260045260246000fd5b60009182526020909120600160059092020181015460ff1615151461161b5760405162461bcd60e51b815260040161044390613658565b6117b06001600501828154811061164257634e487b7160e01b600052603260045260246000fd5b906000526020600020906005020160010160029054906101000a900460ff166001600501838154811061168557634e487b7160e01b600052603260045260246000fd5b906000526020600020906005020160020154600160050184815481106116bb57634e487b7160e01b600052603260045260246000fd5b906000526020600020906005020160010160019054906101000a900460ff1673__$94d7d2f22770e4b0d1a2b99fb2812308e2$__63f060d0b66001600501878154811061171857634e487b7160e01b600052603260045260246000fd5b9060005260206000209060050201306040518363ffffffff1660e01b81526004016117449291906138d6565b60006040518083038186803b15801561175c57600080fd5b505af4158015611770573d6000803e3d6000fd5b505050506040513d6000823e601f3d908101601f19168201604052611798919081019061276e565b8060200190518101906117ab919061276e565b611ce3565b50565b6003546001600160a01b031633146117dd5760405162461bcd60e51b8152600401610443906134a0565b6004601080546117ef90600190613b54565b8154811061180d57634e487b7160e01b600052603260045260246000fd5b600091825260209091206006918202016005015460ff169081111561184257634e487b7160e01b600052602160045260246000fd5b1461185f5760405162461bcd60e51b8152600401610443906135b3565b6010805473__$94d7d2f22770e4b0d1a2b99fb2812308e2$__916359111fb59161075990600190613b54565b6010546040517f5cc1f6b500000000000000000000000000000000000000000000000000000000815260009173__$94d7d2f22770e4b0d1a2b99fb2812308e2$__91635cc1f6b5916118e3916006919060040161305d565b60206040518083038186803b1580156118fb57600080fd5b505af415801561190f573d6000803e3d6000fd5b505050506040513d601f19601f8201168201806040525081019061193391906126fa565b905090565b6012546000906001600160a01b0316156119645760405162461bcd60e51b8152600401610443906132e8565b6013546040517f4dd0aa4900000000000000000000000000000000000000000000000000000000815273__$94d7d2f22770e4b0d1a2b99fb2812308e2$__91634dd0aa49916119ba9186913091906004016137c4565b604080518083038186803b1580156119d157600080fd5b505af41580156119e5573d6000803e3d6000fd5b505050506040513d601f19601f82011682018060405250810190611a09919061259a565b6012805473ffffffffffffffffffffffffffffffffffffffff19166001600160a01b03939093169290921790915592915050565b7fbc197c810000000000000000000000000000000000000000000000000000000098975050505050505050565b60145481565b60168181548110611a8057600080fd5b600091825260209091200154905081565b6003546001600160a01b03163314611abb5760405162461bcd60e51b8152600401610443906134a0565b600460108054611acd90600190613b54565b81548110611aeb57634e487b7160e01b600052603260045260246000fd5b600091825260209091206006918202016005015460ff1690811115611b2057634e487b7160e01b600052602160045260246000fd5b14611b3d5760405162461bcd60e51b8152600401610443906135b3565b6014544211611b5e5760405162461bcd60e51b8152600401610443906133fb565b6010805473__$94d7d2f22770e4b0d1a2b99fb2812308e2$__916311ca1ac091611b8a90600190613b54565b81548110611ba857634e487b7160e01b600052603260045260246000fd5b9060005260206000209060060201836040518363ffffffff1660e01b8152600401611bd4929190613716565b60006040518083038186803b158015611bec57600080fd5b505af4158015610fac573d6000803e3d6000fd5b60135481565b60008481526017602052604081205460ff16611c67576016805460018181019092557fd833147d7dc355ba459fc788f669e58cfaf9dc25ddcd0702e87d69c7b5124289018690556000868152601760205260409020805460ff191690911790555b507ff23a6e61000000000000000000000000000000000000000000000000000000005b9695505050505050565b6001600160e01b031981167f01ffc9a70000000000000000000000000000000000000000000000000000000014919050565b600454611cd4906001613b35565b611cde9042613b1d565b601455565b601054611cf290600190613b54565b60008481526019602052604090205414611d1e5760405162461bcd60e51b81526004016104439061357c565b6000838152601960205260408120805491611d3883613f55565b909155505060008381526018602090815260409091208251611d5c9284019061220b565b508360ff166004811115611d8057634e487b7160e01b600052602160045260246000fd5b6000848152601a60205260409020805460ff19166001836004811115611db657634e487b7160e01b600052602160045260246000fd5b021790555050505050565b601154601080546040517f5069a07c000000000000000000000000000000000000000000000000000000008152919273__$94d7d2f22770e4b0d1a2b99fb2812308e2$__92635069a07c92611e2d926008926101009091046001600160a01b03169130916004016136c6565b60006040518083038186803b158015611e4557600080fd5b505af4158015611e59573d6000803e3d6000fd5b505050506040513d6000823e601f3d908101601f19168201604052611e8191908101906127e1565b81546001808201845560009384526020938490208351600690930201805473ffffffffffffffffffffffffffffffffffffffff19166001600160a01b03909316929092178255828401519082015560408201516002820155606082015160038201556080820151805192939192611efe926004850192019061228f565b5060a082015160058201805460ff19166001836006811115611f3057634e487b7160e01b600052602160045260246000fd5b02179055505050565b60005b6006548110156117b0576006805482908110611f6857634e487b7160e01b600052603260045260246000fd5b600091825260209091206001600590920201015460ff16611f8c57611f8c8161208e565b80611f9681613f55565b915050611f3c565b6012546001600160a01b0316158015906120395750601260009054906101000a90046001600160a01b03166001600160a01b031663999925066040518163ffffffff1660e01b815260040160206040518083038186803b15801561200157600080fd5b505afa158015612015573d6000803e3d6000fd5b505050506040513d601f19601f8201168201806040525081019061203991906126fa565b156107d957601260009054906101000a90046001600160a01b03166001600160a01b0316633a275fa26040518163ffffffff1660e01b8152600401600060405180830381600087803b158015610a2157600080fd5b6117b0600160050182815481106120b557634e487b7160e01b600052603260045260246000fd5b906000526020600020906005020160010160029054906101000a900460ff16600160050183815481106120f857634e487b7160e01b600052603260045260246000fd5b9060005260206000209060050201600201546001600501848154811061212e57634e487b7160e01b600052603260045260246000fd5b906000526020600020906005020160010160019054906101000a900460ff1673__$94d7d2f22770e4b0d1a2b99fb2812308e2$__63f060d0b66001600501878154811061218b57634e487b7160e01b600052603260045260246000fd5b9060005260206000209060050201306040518363ffffffff1660e01b81526004016121b79291906138d6565b60006040518083038186803b1580156121cf57600080fd5b505af41580156121e3573d6000803e3d6000fd5b505050506040513d6000823e601f3d908101601f191682016040526117ab919081019061276e565b82805461221790613f0d565b90600052602060002090601f016020900481019282612239576000855561227f565b82601f1061225257805160ff191683800117855561227f565b8280016001018555821561227f579182015b8281111561227f578251825591602001919060010190612264565b5061228b9291506122c9565b5090565b82805482825590600052602060002090810192821561227f579160200282018281111561227f578251825591602001919060010190612264565b5b8082111561228b57600081556001016122ca565b803561041e8161444b565b60008083601f8401126122fa578182fd5b50813567ffffffffffffffff811115612311578182fd5b602083019150836020808302850101111561232b57600080fd5b9250929050565b600082601f830112612342578081fd5b8151602061235761235283613a1a565b6139f0565b8281528181019085830183850287018401881015612373578586fd5b855b8581101561239157815184529284019290840190600101612375565b5090979650505050505050565b803561041e81614460565b60008083601f8401126123ba578182fd5b50813567ffffffffffffffff8111156123d1578182fd5b60208301915083602082850101111561232b57600080fd5b805161041e8161444b565b80516007811061041e57600080fd5b60006101008284031215612415578081fd5b50919050565b803561041e8161446e565b600060208284031215612437578081fd5b81356124428161444b565b9392505050565b60006020828403121561245a578081fd5b81516124428161444b565b60008060008060008060008060a0898b031215612480578384fd5b883561248b8161444b565b9750602089013561249b8161444b565b9650604089013567ffffffffffffffff808211156124b7578586fd5b6124c38c838d016122e9565b909850965060608b01359150808211156124db578586fd5b6124e78c838d016122e9565b909650945060808b01359150808211156124ff578384fd5b5061250c8b828c016123a9565b999c989b5096995094979396929594505050565b60008060008060008060a08789031215612538578384fd5b86356125438161444b565b955060208701356125538161444b565b94506040870135935060608701359250608087013567ffffffffffffffff81111561257c578283fd5b61258889828a016123a9565b979a9699509497509295939492505050565b600080604083850312156125ac578182fd5b82516125b78161444b565b60208401519092506125c88161444b565b809150509250929050565b6000806000606084860312156125e7578081fd5b83356125f28161444b565b925060208401359150604084013567ffffffffffffffff811115612614578182fd5b61262086828701612403565b9150509250925092565b6000806020838503121561263c578182fd5b823567ffffffffffffffff811115612652578283fd5b61265e858286016122e9565b90969095509350505050565b6000602080838503121561267c578182fd5b823567ffffffffffffffff811115612692578283fd5b8301601f810185136126a2578283fd5b80356126b061235282613a1a565b81815283810190838501858402850186018910156126cc578687fd5b8694505b838510156126ee5780358352600194909401939185019185016126d0565b50979650505050505050565b60006020828403121561270b578081fd5b815161244281614460565b600060208284031215612727578081fd5b5035919050565b60006020828403121561273f578081fd5b5051919050565b600060208284031215612757578081fd5b81356001600160e01b031981168114612442578182fd5b60006020828403121561277f578081fd5b815167ffffffffffffffff811115612795578182fd5b8201601f810184136127a5578182fd5b80516127b361235282613a3e565b8181528560208385010111156127c7578384fd5b6127d8826020830160208601613ee1565b95945050505050565b6000602082840312156127f2578081fd5b815167ffffffffffffffff80821115612809578283fd5b9083019060c0828603121561281c578283fd5b60405160c08101818110838211171561283757612837613f9c565b604052612843836123e9565b8152602083015160208201526040830151604082015260608301516060820152608083015182811115612874578485fd5b61288087828601612332565b60808301525061289260a084016123f4565b60a082015295945050505050565b6000602082840312156128b1578081fd5b813567ffffffffffffffff8111156128c7578182fd5b6128d384828501612403565b949350505050565b6000806000606084860312156128ef578081fd5b83356128fa8161446e565b925060208401359150604084013567ffffffffffffffff81111561291c578182fd5b8401601f8101861361292c578182fd5b803561293a61235282613a3e565b81815287602083850101111561294e578384fd5b8160208401602083013783602083830101528093505050509250925092565b6001600160a01b03169052565b818352602080840193600091908185020181018584845b878110156129c75782840389526129a88288613a72565b6129b3868284612c01565b9a87019a9550505090840190600101612991565b5091979650505050505050565b6000815180845260208085018081965082840281019150828601855b858110156129c7578284038952612a08848351612c4e565b988501989350908401906001016129f0565b6000815480845260208085018081965082840281019150858552828520855b858110156129c7578284038952612a508483612c88565b98850198935060019182019101612a39565b818352602080840193600091908185020181018584845b878110156129c7578284038952813560be19883603018112612a99578687fd5b870160c08135612aa881614460565b1515865281870135612ab981614460565b1515868801526040612acc8382016122de565b612ad88289018261296d565b5050606082810135908701526080808301359087015260a0612afc81840184613aba565b93508282890152612b108389018583612cc0565b9c89019c97505050928601925050600101612a79565b818352602080840193600091908185020181018584845b878110156129c7578284038952813560de19883603018112612b5d578687fd5b87018035855260e086820135612b7281614460565b612b7e88880182612cba565b506040612b8c81840161239e565b612b9882890182612cba565b50506060612ba781840161241b565b612bb382890182612f5c565b50506080828101359087015260a0808301359087015260c0612bd781840184613aba565b93508282890152612beb8389018583612cc0565b9c89019c97505050928601925050600101612b3d565b60008284527f07ffffffffffffffffffffffffffffffffffffffffffffffffffffffffffffff831115612c32578081fd5b6020830280836020870137939093016020019283525090919050565b6000815180845260208085019450808401835b83811015612c7d57815187529582019590820190600101612c61565b509495945050505050565b6000815480845260208085019450838352808320835b83811015612c7d57815487529582019560019182019101612c9e565b15159052565b60008284528282602086013780602084860101526020601f19601f85011685010190509392505050565b60008151808452612d02816020860160208601613ee1565b601f01601f19169290920160200192915050565b60008154612d2381613f0d565b808552602060018381168015612d405760018114612d5457612d82565b60ff19851688840152604088019550612d82565b866000528260002060005b85811015612d7a5781548a8201860152908301908401612d5f565b890184019650505b505050505092915050565b60078110612dab57634e487b7160e01b600052602160045260246000fd5b9052565b6000610100612dc684612dc1856122de565b61296d565b602083013560208501526040830135604085015260608301356060850152612df16080840184613a72565b826080870152612e048387018284612c01565b92505050612e1560a0840184613a72565b85830360a0870152612e28838284612c01565b92505050612e3960c0840184613a72565b85830360c0870152612e4c83828461297a565b92505050612e5d60e0840184613aba565b85830360e0870152611c8a838284612cc0565b6000610100612e8384612dc18554613b6b565b600183015460208501526002830154604085015260038301546060850152806080850152612eb681850160048501612c88565b905083810360a0850152612ecd8160058501612c88565b905083810360c0850152612ee48160068501612a1a565b905083810360e08501526128d38160078501612d16565b60006001600160a01b03825416835260018201546020840152600282015460408401526003820154606084015260c06080840152612f3f60c0840160048401612c88565b60ff600584015416612f5460a0860182612d8d565b509392505050565b60ff169052565b6001600160a01b0391909116815260200190565b60006001600160a01b038516825260606020830152612f996060830185612e70565b8281036040840152611c8a8185612efb565b60208082528251828201819052600091906040908185019080840286018301878501865b8381101561304f57603f19898403018552815160c06001600160a01b038251168552888201518986015287820151888601526060808301518187015250608080830151828288015261302383880182612c4e565b9250505060a080830151925061303b81870184612d8d565b509588019593505090860190600101612fcf565b509098975050505050505050565b60006040808301818452808654808352606092508286019150602083818302880101898752818720875b8481101561311657605f198a840301865260e082548452600183015460ff6130b3878701828416612cba565b6130c48b8701828460081c16612cba565b6130d58a8701828460101c16612f5c565b505060028301546080850152600383015460a08501528060c085015261310081850160048501612d16565b9685019693505060059190910190600101613087565b5050960196909652509295945050505050565b901515815260200190565b90815260200190565b6001600160e01b031991909116815260200190565b6000602082526124426020830184612cea565b600060a0820190506001600160a01b0387168252856020830152846040830152836060830152611c8a6080830184612d8d565b60006001600160a01b038089168352808816602084015280871660408401525084606083015260c060808301526131d260c0830185612cea565b82810360a08401526101006131e882865161296d565b602085015160208301526040850151604083015260608501516060830152608085015181608084015261321d82840182612c4e565b91505060a085015182820360a08401526132378282612c4e565b91505060c085015182820360c084015261325182826129d4565b91505060e085015182820360e084015261326b8282612cea565b9b9a5050505050505050505050565b60208082526014908201527f43757272656e7420736f6c766520616374697665000000000000000000000000604082015260600190565b6020808252600a908201527f4f6e6c794b656570657200000000000000000000000000000000000000000000604082015260600190565b60208082526010908201527f536f6c76657220686173206368696c6400000000000000000000000000000000604082015260600190565b60208082526011908201527f506f727420696e76616c6964207665722e000000000000000000000000000000604082015260600190565b60208082526016908201527f436f6e646974696f6e206e6f7420457865637574656400000000000000000000604082015260600190565b6020808252600c908201527f4f6e6c7920666163746f72790000000000000000000000000000000000000000604082015260600190565b6020808252600b908201527f4f6e6c79204b6565706572000000000000000000000000000000000000000000604082015260600190565b60208082526015908201527f54696d656c6f636b207374696c6c206c6f636b65640000000000000000000000604082015260600190565b6020808252600f908201527f696e676573747320696e76616c69640000000000000000000000000000000000604082015260600190565b60208082526018908201527f4e6f74204172626974726174696f6e5265717565737465640000000000000000604082015260600190565b6020808252600f908201527f4f6e6c792061726269747261746f720000000000000000000000000000000000604082015260600190565b6020808252600e908201527f4b656570657220696e76616c6964000000000000000000000000000000000000604082015260600190565b60208082526014908201527f4f7574636f6d65206e6f742070726f706f736564000000000000000000000000604082015260600190565b60208082526013908201527f4e6f74204f7574636f6d6550726f706f73656400000000000000000000000000604082015260600190565b60208082526014908201527f506f72742076657273696f6e20696e76616c6964000000000000000000000000604082015260600190565b60208082526016908201527f4e6f74204172626974726174696f6e50656e64696e6700000000000000000000604082015260600190565b60208082526012908201527f4f6e6c79206b65657065722f706172656e740000000000000000000000000000604082015260600190565b6020808252600e908201527f547261636b696e67496420736574000000000000000000000000000000000000604082015260600190565b60208082526013908201527f496e67657374206e6f7420646566657272656400000000000000000000000000604082015260600190565b6020808252600d908201527f6e6f7420496e6974696174656400000000000000000000000000000000000000604082015260600190565b6000608082526136d96080830187612e70565b6001600160a01b0395861660208401529390941660408201526060015292915050565b6000848252604060208301526127d8604083018486612c01565b60006040820184835260206040818501528185518084526060860191508287019350845b818110156123915784518352938301939183019160010161373a565b600060a0825261376960a0830188612efb565b828103602084015261377b8188612e70565b6001600160a01b039690961660408401525050606081019290925260809091015292915050565b6000604082526137b56040830185612efb565b90508260208301529392505050565b6000606082526137da60608301612dc1876122de565b6137e6602086016122de565b6137f3608084018261296d565b50613800604086016122de565b61380d60a084018261296d565b50606085013560c08301526138256080860186613aba565b6101008060e086015261383d61016086018385612cc0565b925061384c60a0890189613a72565b9250605f19808786030183880152613865858584612b26565b945061387460c08b018b613a72565b94509250808786030161012088015261388e858585612a62565b945061389d60e08b018b613aff565b935080878603016101408801525050506138b78282612daf565b925050506138c8602083018561296d565b826040830152949350505050565b9182526001600160a01b0316602082015260400190565b9485526001600160a01b03938416602086015291831660408501529091166060830152608082015260a00190565b6000808335601e19843603018112613931578283fd5b83018035915067ffffffffffffffff82111561394b578283fd5b602090810192508102360382131561232b57600080fd5b6000808335601e19843603018112613978578283fd5b83018035915067ffffffffffffffff821115613992578283fd5b60200191503681900382131561232b57600080fd5b6000823560be198336030181126139bc578182fd5b9190910192915050565b6000823560fe198336030181126139bc578182fd5b6000823560de198336030181126139bc578182fd5b60405181810167ffffffffffffffff81118282101715613a1257613a12613f9c565b604052919050565b600067ffffffffffffffff821115613a3457613a34613f9c565b5060209081020190565b600067ffffffffffffffff821115613a5857613a58613f9c565b50601f01601f191660200190565b60009081526020902090565b6000808335601e19843603018112613a88578283fd5b830160208101925035905067ffffffffffffffff811115613aa857600080fd5b60208102360383131561232b57600080fd5b6000808335601e19843603018112613ad0578283fd5b830160208101925035905067ffffffffffffffff811115613af057600080fd5b80360383131561232b57600080fd5b6000823560fe19833603018112613b14578182fd5b90910192915050565b60008219821115613b3057613b30613f86565b500190565b6000816000190483118215151615613b4f57613b4f613f86565b500290565b600082821015613b6657613b66613f86565b500390565b6001600160a01b031690565b5b818110156105ad5760008155600101613b78565b68010000000000000000831115613ba557613ba5613f9c565b805483825580841015613c54577f3fffffffffffffffffffffffffffffffffffffffffffffffffffffffffffffff6001818311811615613be757613be7613f86565b6004828711821615613bfb57613bfb613f86565b600085815260208120909350878202810190828602015b80821015613c4e57848255613c2a858686850161442c565b613c3885866002850161442c565b613c458560038401614002565b90820190613c12565b50505050505b5081613c5f82613a66565b6000805b86811015613c9557613c7f613c7885886139a7565b83856142d2565b6020939093019260049290920191600101613c63565b50505050505050565b68010000000000000000831115613cb757613cb7613f9c565b805483825580841015613d74577f33333333333333333333333333333333333333333333333333333333333333336001818311811615613cf957613cf9613f86565b6005828711821615613d0d57613d0d613f86565b600085815260208120909350878202810190828602015b80821015613d6e57613d3785868461442c565b8484830155613d4a85866002850161442c565b613d5885866003850161442c565b613d658560048401614002565b90820190613d24565b50505050505b5081613d7f82613a66565b6000805b86811015613c9557613d9f613d9885886139db565b8385614391565b6020939093019260059290920191600101613d83565b613dbf8382613fc5565b818160005260208060002060005b86811015613c9557833582559282019260019182019101613dcd565b67ffffffffffffffff831115613e0157613e01613f9c565b613e0b8154613f0d565b600080601f8611601f841181811715613e2a57613e2786613a66565b92505b8015613e59576020601f89010483016020891015613e455750825b613e576020601f880104850182613b77565b505b508060018114613e8557600094508715613e74578387013594505b613e7e8886613f42565b8655613ed7565b601f198816945082845b86811015613eaf5788860135825560209586019560019092019101613e8f565b5088861015613ecc57878501356000196008601f8c16021c191681555b506001600289020186555b5050505050505050565b60005b83811015613efc578181015183820152602001613ee4565b83811115610a355750506000910152565b600281046001821680613f2157607f821691505b6020821081141561241557634e487b7160e01b600052602260045260246000fd5b600019600883021c191660029091021790565b6000600019821415613f6957613f69613f86565b5060010190565b634e487b7160e01b600052600060045260246000fd5b634e487b7160e01b600052601160045260246000fd5b634e487b7160e01b600052604160045260246000fd5b60008135613fbf8161444b565b92915050565b68010000000000000000821115613fde57613fde613f9c565b80548282558083101561086057816000526020600020610a35828201858301613b77565b811561401057614010613f70565b61401a8154613f0d565b801561086057601f8111600181146140355760008355610a35565b6000838152602081206140536020601f860104820160018301613b77565b50838152602081208185555550505050565b6001600160a01b03821673ffffffffffffffffffffffffffffffffffffffff198254161781555050565b60ff1981541660ff8315151681178255505050565b81356140af8161444b565b6140b98183614065565b5060016020808401358284015560408401356002840155606084013560038401556140e7608085018561391b565b6140f5818360048801613db5565b505061410460a085018561391b565b614112818360058801613db5565b50506006830161412560c086018661391b565b6801000000000000000081111561413e5761413e613f9c565b8254818455808210156141795760008481528581208381019083015b808210156141755761416c8383613fc5565b9088019061415a565b5050505b508161418484613a66565b93506000805b838110156141b95761419c838661391b565b6141a88183868b6142b9565b50509487019491860191870161418a565b50505050505050506141ce60e0830183613962565b610a35818360078601613de9565b81356141e78161444b565b6141f18183614065565b5060208201356142008161444b565b61420d8160018401614065565b5061422661421d60408401613fb2565b60028301614065565b6060820135600382015561423d6080830183613962565b61424b818360048601613de9565b505061425a60a083018361391b565b614268818360058601613c9e565b505061427760c083018361391b565b614285818360068601613b8c565b50506105ad61429760e08401846139c6565b600783016140a4565b805461ff00191691151560081b61ff0016919091179055565b81156142c7576142c7613f70565b610a35848483613db5565b81156142e0576142e0613f70565b82356142eb81614460565b6142f5818361408f565b50602083013561430481614460565b61430e81836142a0565b50604083013561431d8161444b565b81547fffffffffffffffffffff0000000000000000000000000000000000000000ffff1660109190911b75ffffffffffffffffffffffffffffffffffffffff000016178155606083013560018201556080830135600282015561438360a0840184613962565b610fac818360038601613de9565b811561439f5761439f613f70565b823581556001810160208401356143b581614460565b6143bf818361408f565b5060408401356143ce81614460565b6143d881836142a0565b5060608401356143e78161446e565b815462ff0000191660109190911b62ff0000161790556080830135600282015560a0830135600382015561441e60c0840184613962565b610fac818360048601613de9565b805460088302600019811b8086831b1681198416178455505050505050565b6001600160a01b03811681146117b057600080fd5b80151581146117b057600080fd5b60ff811681146117b057600080fdfea26469706673582212206f16d929e6394a0efd25ce13ef375c1a9b94dfd351a6cec77831a42dfb476ba564736f6c63430008000033",
  "linkReferences": {
    "contracts/SolverLib.sol": {
      "SolverLib": [
        {
          "length": 20,
          "start": 1315
        },
        {
          "length": 20,
          "start": 1875
        },
        {
          "length": 20,
          "start": 2703
        },
        {
          "length": 20,
          "start": 3131
        },
        {
          "length": 20,
          "start": 3328
        },
        {
          "length": 20,
          "start": 3694
        },
        {
          "length": 20,
          "start": 4229
        },
        {
          "length": 20,
          "start": 5313
        },
        {
          "length": 20,
          "start": 5884
        },
        {
          "length": 20,
          "start": 6277
        },
        {
          "length": 20,
          "start": 6361
        },
        {
          "length": 20,
          "start": 6575
        },
        {
          "length": 20,
          "start": 7044
        },
        {
          "length": 20,
          "start": 7698
        },
        {
          "length": 20,
          "start": 8559
        }
      ]
    }
  },
  "deployedLinkReferences": {
    "contracts/SolverLib.sol": {
      "SolverLib": [
        {
          "length": 20,
          "start": 1283
        },
        {
          "length": 20,
          "start": 1843
        },
        {
          "length": 20,
          "start": 2671
        },
        {
          "length": 20,
          "start": 3099
        },
        {
          "length": 20,
          "start": 3296
        },
        {
          "length": 20,
          "start": 3662
        },
        {
          "length": 20,
          "start": 4197
        },
        {
          "length": 20,
          "start": 5281
        },
        {
          "length": 20,
          "start": 5852
        },
        {
          "length": 20,
          "start": 6245
        },
        {
          "length": 20,
          "start": 6329
        },
        {
          "length": 20,
          "start": 6543
        },
        {
          "length": 20,
          "start": 7012
        },
        {
          "length": 20,
          "start": 7666
        },
        {
          "length": 20,
          "start": 8527
        }
      ]
    }
  }
}