{
  "_format": "hh-sol-artifact-1",
  "contractName": "BasicSolverV1",
  "sourceName": "contracts/BasicSolverV1.sol",
  "abi": [
    {
      "anonymous": false,
      "inputs": [
        {
          "indexed": false,
          "internalType": "address",
          "name": "chainChild",
          "type": "address"
        }
      ],
      "name": "DeployedChild",
      "type": "event"
    },
    {
      "anonymous": false,
      "inputs": [
        {
          "indexed": false,
          "internalType": "address",
          "name": "solver",
          "type": "address"
        },
        {
          "indexed": false,
          "internalType": "uint256",
          "name": "solveIndex",
          "type": "uint256"
        }
      ],
      "name": "PreparedSolve",
      "type": "event"
    },
    {
      "inputs": [
        {
          "internalType": "uint256",
          "name": "_slot",
          "type": "uint256"
        },
        {
          "internalType": "bytes",
          "name": "_data",
          "type": "bytes"
        }
      ],
      "name": "addData",
      "outputs": [],
      "stateMutability": "nonpayable",
      "type": "function"
    },
    {
      "inputs": [
        {
          "internalType": "uint256",
          "name": "_index",
          "type": "uint256"
        }
      ],
      "name": "addressFromChainIndex",
      "outputs": [
        {
          "internalType": "address",
          "name": "_address",
          "type": "address"
        }
      ],
      "stateMutability": "view",
      "type": "function"
    },
    {
      "inputs": [
        {
          "internalType": "uint256",
          "name": "_index",
          "type": "uint256"
        },
        {
          "internalType": "uint256[]",
          "name": "payouts",
          "type": "uint256[]"
        }
      ],
      "name": "arbitrate",
      "outputs": [],
      "stateMutability": "nonpayable",
      "type": "function"
    },
    {
      "inputs": [
        {
          "internalType": "uint256",
          "name": "_index",
          "type": "uint256"
        }
      ],
      "name": "arbitrateNull",
      "outputs": [],
      "stateMutability": "nonpayable",
      "type": "function"
    },
    {
      "inputs": [
        {
          "internalType": "uint256",
          "name": "_index",
          "type": "uint256"
        }
      ],
      "name": "arbitrationPending",
      "outputs": [],
      "stateMutability": "nonpayable",
      "type": "function"
    },
    {
      "inputs": [
        {
          "internalType": "uint256",
          "name": "_index",
          "type": "uint256"
        }
      ],
      "name": "arbitrationRequested",
      "outputs": [],
      "stateMutability": "nonpayable",
      "type": "function"
    },
    {
      "inputs": [],
      "name": "chainChild",
      "outputs": [
        {
          "internalType": "address",
          "name": "",
          "type": "address"
        }
      ],
      "stateMutability": "view",
      "type": "function"
    },
    {
      "inputs": [],
      "name": "chainIndex",
      "outputs": [
        {
          "internalType": "uint256",
          "name": "",
          "type": "uint256"
        }
      ],
      "stateMutability": "view",
      "type": "function"
    },
    {
      "inputs": [],
      "name": "chainParent",
      "outputs": [
        {
          "internalType": "address",
          "name": "",
          "type": "address"
        }
      ],
      "stateMutability": "view",
      "type": "function"
    },
    {
      "inputs": [
        {
          "internalType": "uint256",
          "name": "",
          "type": "uint256"
        }
      ],
      "name": "conditions",
      "outputs": [
        {
          "internalType": "contract IERC20",
          "name": "collateralToken",
          "type": "address"
        },
        {
          "internalType": "bytes32",
          "name": "questionId",
          "type": "bytes32"
        },
        {
          "internalType": "bytes32",
          "name": "parentCollectionId",
          "type": "bytes32"
        },
        {
          "internalType": "bytes32",
          "name": "conditionId",
          "type": "bytes32"
        },
        {
          "internalType": "enum SolverLib.Status",
          "name": "status",
          "type": "uint8"
        }
      ],
      "stateMutability": "view",
      "type": "function"
    },
    {
      "inputs": [],
      "name": "config",
      "outputs": [
        {
          "internalType": "contract Solver",
          "name": "implementation",
          "type": "address"
        },
        {
          "internalType": "address",
          "name": "keeper",
          "type": "address"
        },
        {
          "internalType": "address",
          "name": "arbitrator",
          "type": "address"
        },
        {
          "internalType": "uint256",
          "name": "timelockSeconds",
          "type": "uint256"
        },
        {
          "internalType": "bytes",
          "name": "data",
          "type": "bytes"
        },
        {
          "components": [
            {
              "internalType": "contract IERC20",
              "name": "collateralToken",
              "type": "address"
            },
            {
              "internalType": "uint256",
              "name": "outcomeSlots",
              "type": "uint256"
            },
            {
              "internalType": "uint256",
              "name": "parentCollectionIndexSet",
              "type": "uint256"
            },
            {
              "internalType": "uint256",
              "name": "amountSlot",
              "type": "uint256"
            },
            {
              "internalType": "uint256[]",
              "name": "partition",
              "type": "uint256[]"
            },
            {
              "internalType": "uint256[]",
              "name": "recipientAddressSlots",
              "type": "uint256[]"
            },
            {
              "internalType": "uint256[][]",
              "name": "recipientAmountSlots",
              "type": "uint256[][]"
            },
            {
              "internalType": "string",
              "name": "conditionURI",
              "type": "string"
            }
          ],
          "internalType": "struct SolverLib.ConditionBase",
          "name": "conditionBase",
          "type": "tuple"
        }
      ],
      "stateMutability": "view",
      "type": "function"
    },
    {
      "inputs": [
        {
          "internalType": "uint256",
          "name": "_index",
          "type": "uint256"
        }
      ],
      "name": "confirmPayouts",
      "outputs": [],
      "stateMutability": "nonpayable",
      "type": "function"
    },
    {
      "inputs": [
        {
          "components": [
            {
              "internalType": "contract Solver",
              "name": "implementation",
              "type": "address"
            },
            {
              "internalType": "address",
              "name": "keeper",
              "type": "address"
            },
            {
              "internalType": "address",
              "name": "arbitrator",
              "type": "address"
            },
            {
              "internalType": "uint256",
              "name": "timelockSeconds",
              "type": "uint256"
            },
            {
              "internalType": "bytes",
              "name": "data",
              "type": "bytes"
            },
            {
              "components": [
                {
                  "internalType": "uint256",
                  "name": "executions",
                  "type": "uint256"
                },
                {
                  "internalType": "enum SolverLib.IngestType",
                  "name": "ingestType",
                  "type": "uint8"
                },
                {
                  "internalType": "uint256",
                  "name": "slot",
                  "type": "uint256"
                },
                {
                  "internalType": "uint256",
                  "name": "solverIndex",
                  "type": "uint256"
                },
                {
                  "internalType": "bytes",
                  "name": "data",
                  "type": "bytes"
                }
              ],
              "internalType": "struct SolverLib.Ingest[]",
              "name": "ingests",
              "type": "tuple[]"
            },
            {
              "components": [
                {
                  "internalType": "contract IERC20",
                  "name": "collateralToken",
                  "type": "address"
                },
                {
                  "internalType": "uint256",
                  "name": "outcomeSlots",
                  "type": "uint256"
                },
                {
                  "internalType": "uint256",
                  "name": "parentCollectionIndexSet",
                  "type": "uint256"
                },
                {
                  "internalType": "uint256",
                  "name": "amountSlot",
                  "type": "uint256"
                },
                {
                  "internalType": "uint256[]",
                  "name": "partition",
                  "type": "uint256[]"
                },
                {
                  "internalType": "uint256[]",
                  "name": "recipientAddressSlots",
                  "type": "uint256[]"
                },
                {
                  "internalType": "uint256[][]",
                  "name": "recipientAmountSlots",
                  "type": "uint256[][]"
                },
                {
                  "internalType": "string",
                  "name": "conditionURI",
                  "type": "string"
                }
              ],
              "internalType": "struct SolverLib.ConditionBase",
              "name": "conditionBase",
              "type": "tuple"
            }
          ],
          "internalType": "struct SolverLib.Config",
          "name": "_config",
          "type": "tuple"
        }
      ],
      "name": "deployChild",
      "outputs": [
        {
          "internalType": "contract Solver",
          "name": "_solver",
          "type": "address"
        }
      ],
      "stateMutability": "nonpayable",
      "type": "function"
    },
    {
      "inputs": [
        {
          "internalType": "uint256",
          "name": "_index",
          "type": "uint256"
        }
      ],
      "name": "executeSolve",
      "outputs": [],
      "stateMutability": "nonpayable",
      "type": "function"
    },
    {
      "inputs": [
        {
          "internalType": "uint256",
          "name": "_slot",
          "type": "uint256"
        }
      ],
      "name": "getCallbackOutput",
      "outputs": [
        {
          "internalType": "bytes",
          "name": "data",
          "type": "bytes"
        }
      ],
      "stateMutability": "view",
      "type": "function"
    },
    {
      "inputs": [],
      "name": "getConditions",
      "outputs": [
        {
          "components": [
            {
              "internalType": "contract IERC20",
              "name": "collateralToken",
              "type": "address"
            },
            {
              "internalType": "bytes32",
              "name": "questionId",
              "type": "bytes32"
            },
            {
              "internalType": "bytes32",
              "name": "parentCollectionId",
              "type": "bytes32"
            },
            {
              "internalType": "bytes32",
              "name": "conditionId",
              "type": "bytes32"
            },
            {
              "internalType": "uint256[]",
              "name": "payouts",
              "type": "uint256[]"
            },
            {
              "internalType": "enum SolverLib.Status",
              "name": "status",
              "type": "uint8"
            }
          ],
          "internalType": "struct SolverLib.Condition[]",
          "name": "",
          "type": "tuple[]"
        }
      ],
      "stateMutability": "view",
      "type": "function"
    },
    {
      "inputs": [
        {
          "internalType": "uint256",
          "name": "_slot",
          "type": "uint256"
        }
      ],
      "name": "getData",
      "outputs": [
        {
          "internalType": "bytes",
          "name": "data",
          "type": "bytes"
        }
      ],
      "stateMutability": "view",
      "type": "function"
    },
    {
      "inputs": [
        {
          "internalType": "uint256",
          "name": "slot",
          "type": "uint256"
        }
      ],
      "name": "getOutgoingCallbacks",
      "outputs": [
        {
          "internalType": "address[]",
          "name": "",
          "type": "address[]"
        }
      ],
      "stateMutability": "view",
      "type": "function"
    },
    {
      "inputs": [
        {
          "internalType": "uint256",
          "name": "_slot",
          "type": "uint256"
        }
      ],
      "name": "handleCallback",
      "outputs": [],
      "stateMutability": "nonpayable",
      "type": "function"
    },
    {
      "inputs": [],
      "name": "ingestsValid",
      "outputs": [
        {
          "internalType": "bool",
          "name": "",
          "type": "bool"
        }
      ],
      "stateMutability": "view",
      "type": "function"
    },
    {
      "inputs": [
        {
          "internalType": "address",
          "name": "_chainParent",
          "type": "address"
        },
        {
          "internalType": "uint256",
          "name": "_chainIndex",
          "type": "uint256"
        },
        {
          "components": [
            {
              "internalType": "contract Solver",
              "name": "implementation",
              "type": "address"
            },
            {
              "internalType": "address",
              "name": "keeper",
              "type": "address"
            },
            {
              "internalType": "address",
              "name": "arbitrator",
              "type": "address"
            },
            {
              "internalType": "uint256",
              "name": "timelockSeconds",
              "type": "uint256"
            },
            {
              "internalType": "bytes",
              "name": "data",
              "type": "bytes"
            },
            {
              "components": [
                {
                  "internalType": "uint256",
                  "name": "executions",
                  "type": "uint256"
                },
                {
                  "internalType": "enum SolverLib.IngestType",
                  "name": "ingestType",
                  "type": "uint8"
                },
                {
                  "internalType": "uint256",
                  "name": "slot",
                  "type": "uint256"
                },
                {
                  "internalType": "uint256",
                  "name": "solverIndex",
                  "type": "uint256"
                },
                {
                  "internalType": "bytes",
                  "name": "data",
                  "type": "bytes"
                }
              ],
              "internalType": "struct SolverLib.Ingest[]",
              "name": "ingests",
              "type": "tuple[]"
            },
            {
              "components": [
                {
                  "internalType": "contract IERC20",
                  "name": "collateralToken",
                  "type": "address"
                },
                {
                  "internalType": "uint256",
                  "name": "outcomeSlots",
                  "type": "uint256"
                },
                {
                  "internalType": "uint256",
                  "name": "parentCollectionIndexSet",
                  "type": "uint256"
                },
                {
                  "internalType": "uint256",
                  "name": "amountSlot",
                  "type": "uint256"
                },
                {
                  "internalType": "uint256[]",
                  "name": "partition",
                  "type": "uint256[]"
                },
                {
                  "internalType": "uint256[]",
                  "name": "recipientAddressSlots",
                  "type": "uint256[]"
                },
                {
                  "internalType": "uint256[][]",
                  "name": "recipientAmountSlots",
                  "type": "uint256[][]"
                },
                {
                  "internalType": "string",
                  "name": "conditionURI",
                  "type": "string"
                }
              ],
              "internalType": "struct SolverLib.ConditionBase",
              "name": "conditionBase",
              "type": "tuple"
            }
          ],
          "internalType": "struct SolverLib.Config",
          "name": "_solverConfig",
          "type": "tuple"
        }
      ],
      "name": "init",
      "outputs": [],
      "stateMutability": "nonpayable",
      "type": "function"
    },
    {
      "inputs": [
        {
          "internalType": "address",
          "name": "operator",
          "type": "address"
        },
        {
          "internalType": "address",
          "name": "from",
          "type": "address"
        },
        {
          "internalType": "uint256[]",
          "name": "ids",
          "type": "uint256[]"
        },
        {
          "internalType": "uint256[]",
          "name": "values",
          "type": "uint256[]"
        },
        {
          "internalType": "bytes",
          "name": "data",
          "type": "bytes"
        }
      ],
      "name": "onERC1155BatchReceived",
      "outputs": [
        {
          "internalType": "bytes4",
          "name": "",
          "type": "bytes4"
        }
      ],
      "stateMutability": "nonpayable",
      "type": "function"
    },
    {
      "inputs": [
        {
          "internalType": "address",
          "name": "operator",
          "type": "address"
        },
        {
          "internalType": "address",
          "name": "from",
          "type": "address"
        },
        {
          "internalType": "uint256",
          "name": "id",
          "type": "uint256"
        },
        {
          "internalType": "uint256",
          "name": "value",
          "type": "uint256"
        },
        {
          "internalType": "bytes",
          "name": "data",
          "type": "bytes"
        }
      ],
      "name": "onERC1155Received",
      "outputs": [
        {
          "internalType": "bytes4",
          "name": "",
          "type": "bytes4"
        }
      ],
      "stateMutability": "nonpayable",
      "type": "function"
    },
    {
      "inputs": [
        {
          "internalType": "uint256",
          "name": "x",
          "type": "uint256"
        },
        {
          "internalType": "uint256",
          "name": "y",
          "type": "uint256"
        },
        {
          "internalType": "uint128",
          "name": "scale",
          "type": "uint128"
        }
      ],
      "name": "percentage",
      "outputs": [
        {
          "internalType": "uint256",
          "name": "",
          "type": "uint256"
        }
      ],
      "stateMutability": "pure",
      "type": "function"
    },
    {
      "inputs": [
        {
          "internalType": "uint256",
          "name": "_index",
          "type": "uint256"
        }
      ],
      "name": "prepareSolve",
      "outputs": [],
      "stateMutability": "nonpayable",
      "type": "function"
    },
    {
      "inputs": [
        {
          "internalType": "uint256",
          "name": "_index",
          "type": "uint256"
        },
        {
          "internalType": "uint256[]",
          "name": "_payouts",
          "type": "uint256[]"
        }
      ],
      "name": "proposePayouts",
      "outputs": [],
      "stateMutability": "nonpayable",
      "type": "function"
    },
    {
      "inputs": [
        {
          "internalType": "contract IERC20",
          "name": "_collateralToken",
          "type": "address"
        },
        {
          "internalType": "bytes32",
          "name": "_parentCollectionId",
          "type": "bytes32"
        },
        {
          "internalType": "bytes32",
          "name": "_conditionId",
          "type": "bytes32"
        },
        {
          "internalType": "uint256[]",
          "name": "_indexSets",
          "type": "uint256[]"
        }
      ],
      "name": "redeemPosition",
      "outputs": [],
      "stateMutability": "nonpayable",
      "type": "function"
    },
    {
      "inputs": [
        {
          "internalType": "uint256",
          "name": "_slot",
          "type": "uint256"
        },
        {
          "internalType": "uint256",
          "name": "_chainIndex",
          "type": "uint256"
        }
      ],
      "name": "registerOutgoingCallback",
      "outputs": [],
      "stateMutability": "nonpayable",
      "type": "function"
    },
    {
      "inputs": [
        {
          "internalType": "bytes32",
          "name": "_trackingId",
          "type": "bytes32"
        }
      ],
      "name": "setTrackingId",
      "outputs": [],
      "stateMutability": "nonpayable",
      "type": "function"
    },
    {
      "inputs": [
        {
          "internalType": "bytes4",
          "name": "interfaceId",
          "type": "bytes4"
        }
      ],
      "name": "supportsInterface",
      "outputs": [
        {
          "internalType": "bool",
          "name": "",
          "type": "bool"
        }
      ],
      "stateMutability": "view",
      "type": "function"
    },
    {
      "inputs": [],
      "name": "timelock",
      "outputs": [
        {
          "internalType": "uint256",
          "name": "",
          "type": "uint256"
        }
      ],
      "stateMutability": "view",
      "type": "function"
    },
    {
      "inputs": [],
      "name": "trackingId",
      "outputs": [
        {
          "internalType": "bytes32",
          "name": "",
          "type": "bytes32"
        }
      ],
      "stateMutability": "view",
      "type": "function"
    }
  ],
  "bytecode": "0x608060405234801561001057600080fd5b50614bf4806100206000396000f3fe608060405234801561001057600080fd5b50600436106101f05760003560e01c80635d46fd0c1161010f5780639f9ecd5c116100a2578063d33219b411610071578063d33219b414610450578063d8b6231614610458578063ea8221a91461046b578063f23a6e6114610473576101f0565b80639f9ecd5c146103f7578063a072d7b01461040a578063b992db0f1461041d578063bc197c8114610430576101f0565b806380c2dde2116100de57806380c2dde2146103c157806387c0b374146103c957806387dfee57146103dc57806399992506146103ef576101f0565b80635d46fd0c1461036c57806379502c551461037f5780637c1236271461039957806380b204b7146103ae576101f0565b80633837b05e116101875780634dab5e69116101565780634dab5e691461032b5780634dd828801461033e5780634e46f2231461035157806355dd978b14610364576101f0565b80633837b05e146102d05780633ee8b674146102f057806348cbb2fc146103105780634a77234e14610318576101f0565b80630d8d3975116101c35780630d8d397514610266578063187825591461027957806326c500071461028c578063341f6e3e146102b0576101f0565b80630178fe3f146101f557806301ffc9a71461021e57806307c068b61461023e5780630d06101a14610253575b600080fd5b610208610203366004612dd6565b610486565b6040516102159190613921565b60405180910390f35b61023161022c366004612dee565b610528565b60405161021591906138f8565b61025161024c366004612dd6565b61056e565b005b610251610261366004612dd6565b6106b6565b610251610274366004612dd6565b6106db565b610251610287366004612e89565b610809565b61029f61029a366004612dd6565b6108c4565b60405161021595949392919061396e565b6102c36102be366004613181565b610912565b6040516102159190613903565b6102e36102de366004612dd6565b610a3f565b60405161021591906136e0565b6103036102fe366004612dd6565b610b6d565b6040516102159190613753565b6102c3610bd8565b610251610326366004612dd6565b610bde565b610251610339366004612dd6565b610ed5565b61020861034c366004612dd6565b610faf565b61025161035f366004612dd6565b610ffa565b6102e36110d4565b61025161037a366004612d5f565b6110e3565b6103876111f6565b604051610215969594939291906139a1565b6103a16114c5565b60405161021591906137a0565b6102516103bc366004612ffb565b6115f4565b6102e3611739565b6102516103d7366004613160565b611748565b6102516103ea366004613045565b6117c7565b610231611922565b6102e3610405366004612fb0565b6119cf565b610251610418366004612dd6565b611b29565b61025161042b366004612dd6565b611e7b565b61044361043e366004612bf1565b612196565b604051610215919061390c565b6102c36121c3565b6102516104663660046130e1565b6121c9565b6102c3612201565b610443610481366004612cac565b612207565b6000818152601a602052604090208054606091906104a39061469e565b80601f01602080910402602001604051908101604052809291908181526020018280546104cf9061469e565b801561051c5780601f106104f15761010080835404028352916020019161051c565b820191906000526020600020905b8154815290600101906020018083116104ff57829003601f168201915b50505050509050919050565b60006001600160e01b031982167f4e2312e0000000000000000000000000000000000000000000000000000000001480610566575061056682612233565b90505b919050565b6003546001600160a01b031633146105a15760405162461bcd60e51b815260040161059890613d74565b60405180910390fd5b6003600f82815481106105c457634e487b7160e01b600052603260045260246000fd5b600091825260209091206006918202016005015460ff16908111156105f957634e487b7160e01b600052602160045260246000fd5b146106165760405162461bcd60e51b815260040161059890613ca9565b73__$94d7d2f22770e4b0d1a2b99fb2812308e2$__63ec7ac2f0600f838154811061065157634e487b7160e01b600052603260045260246000fd5b90600052602060002090600602016040518263ffffffff1660e01b815260040161067b9190613903565b60006040518083038186803b15801561069357600080fd5b505af41580156106a7573d6000803e3d6000fd5b505050506106b3612265565b50565b601554156106d65760405162461bcd60e51b815260040161059890613f5f565b601555565b60145442116106fc5760405162461bcd60e51b815260040161059890613c3b565b6002600f828154811061071f57634e487b7160e01b600052603260045260246000fd5b600091825260209091206006918202016005015460ff169081111561075457634e487b7160e01b600052602160045260246000fd5b146107715760405162461bcd60e51b815260040161059890613de2565b73__$94d7d2f22770e4b0d1a2b99fb2812308e2$__63696d4661600f83815481106107ac57634e487b7160e01b600052603260045260246000fd5b90600052602060002090600602016040518263ffffffff1660e01b81526004016107d69190613903565b60006040518083038186803b1580156107ee57600080fd5b505af4158015610802573d6000803e3d6000fd5b5050505050565b6002546001600160a01b031633146108335760405162461bcd60e51b815260040161059890613c04565b6040517f01b7037c000000000000000000000000000000000000000000000000000000008152735fbdb2315678afecb367f032d93f642f64180aa3906301b7037c9061088b9088908890889088908890600401613934565b600060405180830381600087803b1580156108a557600080fd5b505af11580156108b9573d6000803e3d6000fd5b505050505050505050565b600f81815481106108d457600080fd5b6000918252602090912060069091020180546001820154600283015460038401546005909401546001600160a01b0390931694509092909160ff1685565b60405163ddc2f15560e01b815260009073__$94d7d2f22770e4b0d1a2b99fb2812308e2$__9063ddc2f1559061095190879060649087906004016141cf565b60206040518083038186803b15801561096957600080fd5b505af415801561097d573d6000803e3d6000fd5b505050506040513d601f19601f820116820180604052508101906109a19190612fe3565b60405163ddc2f15560e01b815273__$94d7d2f22770e4b0d1a2b99fb2812308e2$__9063ddc2f155906109dd90879060649088906004016141cf565b60206040518083038186803b1580156109f557600080fd5b505af4158015610a09573d6000803e3d6000fd5b505050506040513d601f19601f82011682018060405250810190610a2d9190612fe3565b610a3791906144af565b949350505050565b6000601354821415610a52575030610569565b601354821015610ae357601154604051631c1bd82f60e11b81526001600160a01b0390911690633837b05e90610a8c908590600401613903565b60206040518083038186803b158015610aa457600080fd5b505afa158015610ab8573d6000803e3d6000fd5b505050506040513d601f19601f82011682018060405250810190610adc9190612bd5565b9050610569565b60135482111561056957601254604051631c1bd82f60e11b81526001600160a01b0390911690633837b05e90610b1d908590600401613903565b60206040518083038186803b158015610b3557600080fd5b505afa158015610b49573d6000803e3d6000fd5b505050506040513d601f19601f820116820180604052508101906105669190612bd5565b60008181526018602090815260409182902080548351818402810184019094528084526060939283018282801561051c57602002820191906000526020600020905b81546001600160a01b03168152600190910190602001808311610baf5750505050509050919050565b60155481565b6002546001600160a01b0316331480610c0157506011546001600160a01b031633145b610c1d5760405162461bcd60e51b815260040161059890613f28565b610c25611922565b1515600114610c465760405162461bcd60e51b815260040161059890613c72565b600f548114610c675760405162461bcd60e51b815260040161059890613b96565b60175415610c875760405162461bcd60e51b815260040161059890613e50565b60165415610ca75760405162461bcd60e51b815260040161059890613e85565b601154600f80546040517f5069a07c000000000000000000000000000000000000000000000000000000008152919273__$94d7d2f22770e4b0d1a2b99fb2812308e2$__92635069a07c92610d0f926007926001600160a01b03909116913091600401614004565b60006040518083038186803b158015610d2757600080fd5b505af4158015610d3b573d6000803e3d6000fd5b505050506040513d6000823e601f3d908101601f19168201604052610d639190810190612ef1565b8154600180820184556000938452602093849020835160069093020180546001600160a01b0319166001600160a01b03909316929092178255828401519082015560408201516002820155606082015160038201556080820151805192939192610dd392600485019201906129ae565b5060a082015160058201805460ff19166001836006811115610e0557634e487b7160e01b600052602160045260246000fd5b02179055505050610e14612282565b7f152ec8ae15d347b2d2a8f0858caa29bcaaa0906749a1f43e08bfe799834602403082604051610e4592919061373a565b60405180910390a16012546001600160a01b0316156106b3576012546040517f4a77234e0000000000000000000000000000000000000000000000000000000081526001600160a01b0390911690634a77234e90610ea7908490600401613903565b600060405180830381600087803b158015610ec157600080fd5b505af1158015610802573d6000803e3d6000fd5b6003546001600160a01b03163314610eff5760405162461bcd60e51b815260040161059890613d74565b6002600f8281548110610f2257634e487b7160e01b600052603260045260246000fd5b600091825260209091206006918202016005015460ff1690811115610f5757634e487b7160e01b600052602160045260246000fd5b14610f745760405162461bcd60e51b815260040161059890613e19565b73__$94d7d2f22770e4b0d1a2b99fb2812308e2$__6324b28602600f838154811061065157634e487b7160e01b600052603260045260246000fd5b600f546000828152601b602052604090205460609114610fe15760405162461bcd60e51b815260040161059890613d3d565b6000828152601a6020526040902080546104a39061469e565b6003546001600160a01b031633146110245760405162461bcd60e51b815260040161059890613d74565b6004600f828154811061104757634e487b7160e01b600052603260045260246000fd5b600091825260209091206006918202016005015460ff169081111561107c57634e487b7160e01b600052602160045260246000fd5b146110995760405162461bcd60e51b815260040161059890613eba565b73__$94d7d2f22770e4b0d1a2b99fb2812308e2$__6359111fb5600f838154811061065157634e487b7160e01b600052603260045260246000fd5b6012546001600160a01b031681565b600054610100900460ff16806110fc575060005460ff16155b6111185760405162461bcd60e51b815260040161059890613ce0565b600054610100900460ff16158015611143576000805460ff1961ff0019909116610100171660011790555b3373e7f1725e7734ce288f8367e1bb143e90bb3f0512146111765760405162461bcd60e51b815260040161059890613bcd565b60006111886040840160208501612bb2565b6001600160a01b031614156111af5760405162461bcd60e51b815260040161059890613dab565b601180546001600160a01b0319166001600160a01b03861617905560138390558160016111dc828261491d565b505080156111f0576000805461ff00191690555b50505050565b60018054600254600354600454600580546001600160a01b0395861696948616959093169391926112269061469e565b80601f01602080910402602001604051908101604052809291908181526020018280546112529061469e565b801561129f5780601f106112745761010080835404028352916020019161129f565b820191906000526020600020905b81548152906001019060200180831161128257829003601f168201915b505060408051610100810182526006870180546001600160a01b03168252600788015460208084019190915260088901548385015260098901546060840152600a8901805485518184028101840190965280865298999893975091955060808701945090919083018282801561133457602002820191906000526020600020905b815481526020019060010190808311611320575b505050505081526020016005820180548060200260200160405190810160405280929190818152602001828054801561138c57602002820191906000526020600020905b815481526020019060010190808311611378575b5050505050815260200160068201805480602002602001604051908101604052809291908181526020016000905b828210156114265760008481526020908190208301805460408051828502810185019091528181529283018282801561141257602002820191906000526020600020905b8154815260200190600101908083116113fe575b5050505050815260200190600101906113ba565b50505050815260200160078201805461143e9061469e565b80601f016020809104026020016040519081016040528092919081815260200182805461146a9061469e565b80156114b75780601f1061148c576101008083540402835291602001916114b7565b820191906000526020600020905b81548152906001019060200180831161149a57829003601f168201915b505050505081525050905086565b6060600f805480602002602001604051908101604052809291908181526020016000905b828210156115eb5760008481526020908190206040805160c0810182526006860290920180546001600160a01b03168352600181015483850152600281015483830152600381015460608401526004810180548351818702810187019094528084529394919360808601939283018282801561158457602002820191906000526020600020905b815481526020019060010190808311611570575b5050509183525050600582015460209091019060ff1660068111156115b957634e487b7160e01b600052602160045260246000fd5b60068111156115d857634e487b7160e01b600052602160045260246000fd5b81525050815260200190600101906114e9565b50505050905090565b6002546001600160a01b0316331461161e5760405162461bcd60e51b815260040161059890613c04565b6001600f848154811061164157634e487b7160e01b600052603260045260246000fd5b600091825260209091206006918202016005015460ff169081111561167657634e487b7160e01b600052602160045260246000fd5b146116935760405162461bcd60e51b815260040161059890613b28565b73__$94d7d2f22770e4b0d1a2b99fb2812308e2$__636a0a24f1600f85815481106116ce57634e487b7160e01b600052603260045260246000fd5b906000526020600020906006020184846040518463ffffffff1660e01b81526004016116fc9392919061403a565b60006040518083038186803b15801561171457600080fd5b505af4158015611728573d6000803e3d6000fd5b50505050611734612265565b505050565b6011546001600160a01b031681565b61175181610a3f565b6001600160a01b0316336001600160a01b0316146117815760405162461bcd60e51b815260040161059890613b5f565b6000828152601860209081526040822080546001810182559083529082200180546001600160a01b0319163317905560178054916117be836146e6565b91905055505050565b6003546001600160a01b031633146117f15760405162461bcd60e51b815260040161059890613d74565b6004600f838154811061181457634e487b7160e01b600052603260045260246000fd5b600091825260209091206006918202016005015460ff169081111561184957634e487b7160e01b600052602160045260246000fd5b146118665760405162461bcd60e51b815260040161059890613eba565b60145442116118875760405162461bcd60e51b815260040161059890613c3b565b73__$94d7d2f22770e4b0d1a2b99fb2812308e2$__6311ca1ac0600f84815481106118c257634e487b7160e01b600052603260045260246000fd5b9060005260206000209060060201836040518363ffffffff1660e01b81526004016118ee929190614054565b60006040518083038186803b15801561190657600080fd5b505af415801561191a573d6000803e3d6000fd5b505050505050565b600f546040517f5cc1f6b500000000000000000000000000000000000000000000000000000000815260009173__$94d7d2f22770e4b0d1a2b99fb2812308e2$__91635cc1f6b59161197a9160069190600401613852565b60206040518083038186803b15801561199257600080fd5b505af41580156119a6573d6000803e3d6000fd5b505050506040513d601f19601f820116820180604052508101906119ca9190612db6565b905090565b6002546000906001600160a01b031633146119fc5760405162461bcd60e51b815260040161059890613ef1565b6012546001600160a01b031615611a255760405162461bcd60e51b815260040161059890613af1565b6013546040517f4dd0aa4900000000000000000000000000000000000000000000000000000000815273__$94d7d2f22770e4b0d1a2b99fb2812308e2$__91634dd0aa4991611a7b9186913091906004016140e0565b604080518083038186803b158015611a9257600080fd5b505af4158015611aa6573d6000803e3d6000fd5b505050506040513d601f19601f82011682018060405250810190611aca9190612d26565b601280546001600160a01b0319166001600160a01b0393841617908190556040519193507fbd2e7fbdc9b1c19997e58c63e6ea1b5a02acd8dd9fd5d76f4bb18634f7155e8092611b1c929116906136e0565b60405180910390a1919050565b60003382604051602001611b3e9291906136be565b60408051601f1981840301815291815281516020928301206000818152601990935291205460068054929350611ba4929091908110611b8d57634e487b7160e01b600052603260045260246000fd5b906000526020600020906005020160030154610a3f565b6001600160a01b0316336001600160a01b031614611bd45760405162461bcd60e51b815260040161059890613b5f565b600081815260196020526040812054600680549091908110611c0657634e487b7160e01b600052603260045260246000fd5b600091825260209091206001600590920201015460ff166002811115611c3c57634e487b7160e01b600052602160045260246000fd5b14611c595760405162461bcd60e51b815260040161059890613aba565b600081815260196020526040902054600680549091908110611c8b57634e487b7160e01b600052603260045260246000fd5b600091825260208220600590910201805491611ca6836146e6565b909155505060008181526019602052604090205460068054611e5c92908110611cdf57634e487b7160e01b600052603260045260246000fd5b906000526020600020906005020160020154336001600160a01b0316634dd828806001600501601660030160008781526020019081526020016000205481548110611d3a57634e487b7160e01b600052603260045260246000fd5b90600052602060002090600502016004018054611d569061469e565b80601f0160208091040260200160405190810160405280929190818152602001828054611d829061469e565b8015611dcf5780601f10611da457610100808354040283529160200191611dcf565b820191906000526020600020905b815481529060010190602001808311611db257829003601f168201915b5050505050806020019051810190611de79190612fe3565b6040518263ffffffff1660e01b8152600401611e039190613903565b60006040518083038186803b158015611e1b57600080fd5b505afa158015611e2f573d6000803e3d6000fd5b505050506040513d6000823e601f3d908101601f19168201604052611e579190810190612e16565b612532565b600081815260196020526040812081905560168054916117be83614687565b6000600f8281548110611e9e57634e487b7160e01b600052603260045260246000fd5b600091825260209091206006918202016005015460ff1690811115611ed357634e487b7160e01b600052602160045260246000fd5b14611ef05760405162461bcd60e51b815260040161059890613fcd565b611ef8611922565b1515600114611f195760405162461bcd60e51b815260040161059890613c72565b6001600f8281548110611f3c57634e487b7160e01b600052603260045260246000fd5b906000526020600020906006020160050160006101000a81548160ff02191690836006811115611f7c57634e487b7160e01b600052602160045260246000fd5b0217905550601154600f805473__$94d7d2f22770e4b0d1a2b99fb2812308e2$__92631e85323f926001600160a01b03909116916007919086908110611fd257634e487b7160e01b600052603260045260246000fd5b60009182526020808320600a548452601a90915260409092208054600690920290920191906120009061469e565b80601f016020809104026020016040519081016040528092919081815260200182805461202c9061469e565b80156120795780601f1061204e57610100808354040283529160200191612079565b820191906000526020600020905b81548152906001019060200180831161205c57829003601f168201915b50505050508060200190518101906120919190612fe3565b6040518563ffffffff1660e01b81526004016120b094939291906136f4565b60006040518083038186803b1580156120c857600080fd5b505af41580156120dc573d6000803e3d6000fd5b5050505073__$94d7d2f22770e4b0d1a2b99fb2812308e2$__6336696828600f838154811061211b57634e487b7160e01b600052603260045260246000fd5b9060005260206000209060060201600160060130601a6015546040518663ffffffff1660e01b8152600401612154959493929190614094565b60006040518083038186803b15801561216c57600080fd5b505af4158015612180573d6000803e3d6000fd5b5050505061218d816106b3565b6106b3816125b5565b7fbc197c810000000000000000000000000000000000000000000000000000000098975050505050505050565b60145481565b6002546001600160a01b031633146121f35760405162461bcd60e51b815260040161059890613a83565b6121fd8282612532565b5050565b60135481565b7ff23a6e61000000000000000000000000000000000000000000000000000000005b9695505050505050565b6001600160e01b031981167f01ffc9a70000000000000000000000000000000000000000000000000000000014919050565b6004546122739060016144cf565b61227d9042614497565b601455565b60005b6006548110156106b357600060068054839081106122b357634e487b7160e01b600052603260045260246000fd5b600091825260209091206001600590920201015460ff1660028111156122e957634e487b7160e01b600052602160045260246000fd5b1461232d576123286001600501828154811061231557634e487b7160e01b600052603260045260246000fd5b906000526020600020906005020161269e565b612520565b6000306001600160a01b0316633837b05e6001600501848154811061236257634e487b7160e01b600052603260045260246000fd5b9060005260206000209060050201600301546040518263ffffffff1660e01b81526004016123909190613903565b60206040518083038186803b1580156123a857600080fd5b505afa1580156123bc573d6000803e3d6000fd5b505050506040513d601f19601f820116820180604052508101906123e09190612bd5565b90506123ec8183612709565b806001600160a01b03166387c0b3746001600501848154811061241f57634e487b7160e01b600052603260045260246000fd5b9060005260206000209060050201600401805461243b9061469e565b80601f01602080910402602001604051908101604052809291908181526020018280546124679061469e565b80156124b45780601f10612489576101008083540402835291602001916124b4565b820191906000526020600020905b81548152906001019060200180831161249757829003601f168201915b50505050508060200190518101906124cc9190612fe3565b6013546040518363ffffffff1660e01b81526004016124ec9291906141f7565b600060405180830381600087803b15801561250657600080fd5b505af115801561251a573d6000803e3d6000fd5b50505050505b8061252a816146e6565b915050612285565b600f54612541906001906144ee565b6000838152601b60205260409020541461256d5760405162461bcd60e51b815260040161059890613f96565b6000828152601b60205260408120805491612587836146e6565b90915550506000828152601a6020908152604090912082516125ab928401906129f9565b506121fd8261282d565b6012546001600160a01b0316158015906126505750601260009054906101000a90046001600160a01b03166001600160a01b031663999925066040518163ffffffff1660e01b815260040160206040518083038186803b15801561261857600080fd5b505afa15801561262c573d6000803e3d6000fd5b505050506040513d601f19601f820116820180604052508101906126509190612db6565b156106b3576012546040517fb992db0f0000000000000000000000000000000000000000000000000000000081526001600160a01b039091169063b992db0f90610ea7908490600401613903565b6106b3816002015473__$94d7d2f22770e4b0d1a2b99fb2812308e2$__63b3d73707846040518263ffffffff1660e01b81526004016126dd9190613903565b60006040518083038186803b1580156126f557600080fd5b505af4158015611e2f573d6000803e3d6000fd5b8060166003016000846001600501858154811061273657634e487b7160e01b600052603260045260246000fd5b906000526020600020906005020160040180546127529061469e565b80601f016020809104026020016040519081016040528092919081815260200182805461277e9061469e565b80156127cb5780601f106127a0576101008083540402835291602001916127cb565b820191906000526020600020905b8154815290600101906020018083116127ae57829003601f168201915b50505050508060200190518101906127e39190612fe3565b6040516020016127f49291906136be565b60408051601f1981840301815291815281516020928301208352908201929092520160009081209190915560168054916117be836146e6565b60005b6000828152601860205260409020548110156121fd57600082815260186020526040812080548390811061287457634e487b7160e01b600052603260045260246000fd5b6000918252602090912001546001600160a01b03161461299c5760008281526018602052604090208054829081106128bc57634e487b7160e01b600052603260045260246000fd5b6000918252602090912001546040517fa072d7b00000000000000000000000000000000000000000000000000000000081526001600160a01b039091169063a072d7b09061290e908590600401613903565b600060405180830381600087803b15801561292857600080fd5b505af115801561293c573d6000803e3d6000fd5b505050600083815260186020526040902080549091508290811061297057634e487b7160e01b600052603260045260246000fd5b6000918252602082200180546001600160a01b0319169055601780549161299683614687565b91905055505b806129a6816146e6565b915050612830565b8280548282559060005260206000209081019282156129e9579160200282015b828111156129e95782518255916020019190600101906129ce565b506129f5929150612a6c565b5090565b828054612a059061469e565b90600052602060002090601f016020900481019282612a2757600085556129e9565b82601f10612a4057805160ff19168380011785556129e9565b828001600101855582156129e957918201828111156129e95782518255916020019190600101906129ce565b5b808211156129f55760008155600101612a6d565b803561056981614b9c565b60008083601f840112612a9d578182fd5b50813567ffffffffffffffff811115612ab4578182fd5b6020830191508360208083028501011115612ace57600080fd5b9250929050565b600082601f830112612ae5578081fd5b81516020612afa612af5836142ef565b6142c5565b8281528181019085830183850287018401881015612b16578586fd5b855b85811015612b3457815184529284019290840190600101612b18565b5090979650505050505050565b60008083601f840112612b52578182fd5b50813567ffffffffffffffff811115612b69578182fd5b602083019150836020828501011115612ace57600080fd5b805161056981614b9c565b80516007811061056957600080fd5b600060e08284031215612bac578081fd5b50919050565b600060208284031215612bc3578081fd5b8135612bce81614b9c565b9392505050565b600060208284031215612be6578081fd5b8151612bce81614b9c565b60008060008060008060008060a0898b031215612c0c578384fd5b8835612c1781614b9c565b97506020890135612c2781614b9c565b9650604089013567ffffffffffffffff80821115612c43578586fd5b612c4f8c838d01612a8c565b909850965060608b0135915080821115612c67578586fd5b612c738c838d01612a8c565b909650945060808b0135915080821115612c8b578384fd5b50612c988b828c01612b41565b999c989b5096995094979396929594505050565b60008060008060008060a08789031215612cc4578384fd5b8635612ccf81614b9c565b95506020870135612cdf81614b9c565b94506040870135935060608701359250608087013567ffffffffffffffff811115612d08578283fd5b612d1489828a01612b41565b979a9699509497509295939492505050565b60008060408385031215612d38578182fd5b8251612d4381614b9c565b6020840151909250612d5481614b9c565b809150509250929050565b600080600060608486031215612d73578081fd5b8335612d7e81614b9c565b925060208401359150604084013567ffffffffffffffff811115612da0578182fd5b612dac86828701612b9b565b9150509250925092565b600060208284031215612dc7578081fd5b81518015158114612bce578182fd5b600060208284031215612de7578081fd5b5035919050565b600060208284031215612dff578081fd5b81356001600160e01b031981168114612bce578182fd5b600060208284031215612e27578081fd5b815167ffffffffffffffff811115612e3d578182fd5b8201601f81018413612e4d578182fd5b8051612e5b612af582614313565b818152856020838501011115612e6f578384fd5b612e8082602083016020860161465b565b95945050505050565b600080600080600060808688031215612ea0578283fd5b8535612eab81614b9c565b94506020860135935060408601359250606086013567ffffffffffffffff811115612ed4578182fd5b612ee088828901612a8c565b969995985093965092949392505050565b600060208284031215612f02578081fd5b815167ffffffffffffffff80821115612f19578283fd5b9083019060c08286031215612f2c578283fd5b60405160c081018181108382111715612f4757612f47614743565b604052612f5383612b81565b8152602083015160208201526040830151604082015260608301516060820152608083015182811115612f84578485fd5b612f9087828601612ad5565b608083015250612fa260a08401612b8c565b60a082015295945050505050565b600060208284031215612fc1578081fd5b813567ffffffffffffffff811115612fd7578182fd5b610a3784828501612b9b565b600060208284031215612ff4578081fd5b5051919050565b60008060006040848603121561300f578081fd5b83359250602084013567ffffffffffffffff81111561302c578182fd5b61303886828701612a8c565b9497909650939450505050565b60008060408385031215613057578182fd5b8235915060208084013567ffffffffffffffff811115613075578283fd5b8401601f81018613613085578283fd5b8035613093612af5826142ef565b81815283810190838501858402850186018a10156130af578687fd5b8694505b838510156130d15780358352600194909401939185019185016130b3565b5080955050505050509250929050565b600080604083850312156130f3578182fd5b82359150602083013567ffffffffffffffff811115613110578182fd5b8301601f81018513613120578182fd5b803561312e612af582614313565b818152866020838501011115613142578384fd5b81602084016020830137908101602001929092525090939092509050565b60008060408385031215613172578182fd5b50508035926020909101359150565b600080600060608486031215613195578081fd5b833592506020840135915060408401356fffffffffffffffffffffffffffffffff811681146131c2578182fd5b809150509250925092565b6001600160a01b03169052565b818352602080840193600091908185020181018584845b8781101561322757828403895261320882886143ec565b613213868284613367565b9a87019a95505050908401906001016131f1565b5091979650505050505050565b6000815180845260208085018081965082840281019150828601855b858110156132275782840389526132688483516133b4565b98850198935090840190600101613250565b6000815480845260208085018081965082840281019150858552828520855b858110156132275782840389526132b084836133ee565b98850198935060019182019101613299565b818352602080840193600091908185020181018584845b878110156132275782840389528135609e198836030181126132f9578687fd5b87018035855260a08682013561330e81614bb1565b61331a888801826134ed565b506040828101359087015260608083013590870152608061333d81840184614434565b935082828901526133518389018583613420565b9c89019c975050509286019250506001016132d9565b60008284527f07ffffffffffffffffffffffffffffffffffffffffffffffffffffffffffffff831115613398578081fd5b6020830280836020870137939093016020019283525090919050565b6000815180845260208085019450808401835b838110156133e3578151875295820195908201906001016133c7565b509495945050505050565b6000815480845260208085019450838352808320835b838110156133e357815487529582019560019182019101613404565b60008284528282602086013780602084860101526020601f19601f85011685010190509392505050565b6000815180845261346281602086016020860161465b565b601f01601f19169290920160200192915050565b600081546134838161469e565b8085526020600183811680156134a057600181146134b4576134e2565b60ff198516888401526040880195506134e2565b866000528260002060005b858110156134da5781548a82018601529083019084016134bf565b890184019650505b505050505092915050565b600381106134fd576134fd61472d565b9052565b600781106134fd576134fd61472d565b60006101006135288461352385612a81565b6131cd565b60208301356020850152604083013560408501526060830135606085015261355360808401846143ec565b8260808701526135668387018284613367565b9250505061357760a08401846143ec565b85830360a087015261358a838284613367565b9250505061359b60c08401846143ec565b85830360c08701526135ae8382846131da565b925050506135bf60e0840184614434565b85830360e0870152612229838284613420565b60006101006135e5846135238554614505565b600183015460208501526002830154604085015260038301546060850152806080850152613618818501600485016133ee565b905083810360a085015261362f81600585016133ee565b905083810360c0850152613646816006850161327a565b905083810360e0850152610a378160078501613476565b60006001600160a01b03825416835260018201546020840152600282015460408401526003820154606084015260c060808401526136a160c08401600484016133ee565b60ff6005840154166136b660a0860182613501565b509392505050565b60609290921b6bffffffffffffffffffffffff19168252601482015260340190565b6001600160a01b0391909116815260200190565b60006001600160a01b03861682526080602083015261371660808301866135d2565b8281036040840152613728818661365d565b91505082606083015295945050505050565b6001600160a01b03929092168252602082015260400190565b6020808252825182820181905260009190848201906040850190845b818110156137945783516001600160a01b03168352928401929184019160010161376f565b50909695505050505050565b60208082528251828201819052600091906040908185019080840286018301878501865b8381101561384457603f19898403018552815160c06001600160a01b0382511685528882015189860152878201518886015260608083015181870152506080808301518282880152613818838801826133b4565b9250505060a080830151925061383081870184613501565b5095880195935050908601906001016137c4565b509098975050505050505050565b60006040808301818452808654808352606092508286019150602083818302880101898752818720875b848110156138e557605f198a840301865260a08254845260ff6001840154166138a7868601826134ed565b506002830154898501526003830154888501528060808501526138cf81850160048501613476565b968501969350506005919091019060010161387c565b5050960196909652509295945050505050565b901515815260200190565b90815260200190565b6001600160e01b031991909116815260200190565b600060208252612bce602083018461344a565b60006001600160a01b038716825285602083015284604083015260806060830152613963608083018486613367565b979650505050505050565b600060a0820190506001600160a01b03871682528560208301528460408301528360608301526122296080830184613501565b60006001600160a01b038089168352808816602084015280871660408401525084606083015260c060808301526139db60c083018561344a565b82810360a08401526101006139f18286516131cd565b6020850151602083015260408501516040830152606085015160608301526080850151816080840152613a26828401826133b4565b91505060a085015182820360a0840152613a4082826133b4565b91505060c085015182820360c0840152613a5a8282613234565b91505060e085015182820360e0840152613a74828261344a565b9b9a5050505050505050505050565b6020808252600a908201527f4f6e6c794b656570657200000000000000000000000000000000000000000000604082015260600190565b60208082526013908201527f496e67657374206e6f742043616c6c6261636b00000000000000000000000000604082015260600190565b60208082526010908201527f536f6c76657220686173206368696c6400000000000000000000000000000000604082015260600190565b60208082526016908201527f436f6e646974696f6e206e6f7420457865637574656400000000000000000000604082015260600190565b60208082526015908201527f6d73672e73656e646572206e6f7420736f6c7665720000000000000000000000604082015260600190565b60208082526018908201527f496e76616c696420696e64657820746f20707265706172650000000000000000604082015260600190565b6020808252600c908201527f4f6e6c7920666163746f72790000000000000000000000000000000000000000604082015260600190565b6020808252600b908201527f4f6e6c79204b6565706572000000000000000000000000000000000000000000604082015260600190565b60208082526015908201527f54696d656c6f636b207374696c6c206c6f636b65640000000000000000000000604082015260600190565b6020808252600f908201527f696e676573747320696e76616c69640000000000000000000000000000000000604082015260600190565b60208082526018908201527f4e6f74204172626974726174696f6e5265717565737465640000000000000000604082015260600190565b6020808252602e908201527f496e697469616c697a61626c653a20636f6e747261637420697320616c72656160408201527f647920696e697469616c697a6564000000000000000000000000000000000000606082015260800190565b60208082526011908201527f536c6f7420696e76616c6964207665722e000000000000000000000000000000604082015260600190565b6020808252600f908201527f4f6e6c792061726269747261746f720000000000000000000000000000000000604082015260600190565b6020808252600e908201527f4b656570657220696e76616c6964000000000000000000000000000000000000604082015260600190565b60208082526014908201527f4f7574636f6d65206e6f742070726f706f736564000000000000000000000000604082015260600190565b60208082526013908201527f4e6f74204f7574636f6d6550726f706f73656400000000000000000000000000604082015260600190565b6020808252818101527f46756c66696c6c206f7574676f696e672063616c6c6261636b73206669727374604082015260600190565b6020808252818101527f46756c66696c6c20696e636f6d696e672063616c6c6261636b73206669727374604082015260600190565b60208082526016908201527f4e6f74204172626974726174696f6e50656e64696e6700000000000000000000604082015260600190565b6020808252600b908201527f4f6e6c79206b6565706572000000000000000000000000000000000000000000604082015260600190565b60208082526012908201527f4f6e6c79206b65657065722f706172656e740000000000000000000000000000604082015260600190565b6020808252600e908201527f547261636b696e67496420736574000000000000000000000000000000000000604082015260600190565b60208082526014908201527f536c6f742076657273696f6e20696e76616c6964000000000000000000000000604082015260600190565b6020808252600d908201527f6e6f7420496e6974696174656400000000000000000000000000000000000000604082015260600190565b60006080825261401760808301876135d2565b6001600160a01b0395861660208401529390941660408201526060015292915050565b600084825260406020830152612e80604083018486613367565b60006040820184835260206040818501528185518084526060860191508287019350845b81811015612b3457845183529383019391830191600101614078565b600060a082526140a760a083018861365d565b82810360208401526140b981886135d2565b6001600160a01b039690961660408401525050606081019290925260809091015292915050565b60006060825284356140f181614b9c565b6140fe60608401826131cd565b5061410b60208601612a81565b61411860808401826131cd565b5061412560408601612a81565b61413260a08401826131cd565b50606085013560c083015261414a6080860186614434565b60e08085015261415f61014085018284613420565b91505061416f60a08701876143ec565b605f1980868503016101008701526141888483856132c2565b935061419760c08a018a614479565b9250808685030161012087015250506141b08282613511565b925050506141c160208301856131cd565b826040830152949350505050565b92835260208301919091526fffffffffffffffffffffffffffffffff16604082015260600190565b918252602082015260400190565b6000808335601e1984360301811261421b578283fd5b83018035915067ffffffffffffffff821115614235578283fd5b6020908101925081023603821315612ace57600080fd5b6000808335601e19843603018112614262578283fd5b83018035915067ffffffffffffffff82111561427c578283fd5b602001915036819003821315612ace57600080fd5b6000823560fe198336030181126142a6578182fd5b9190910192915050565b60008235609e198336030181126142a6578182fd5b60405181810167ffffffffffffffff811182821017156142e7576142e7614743565b604052919050565b600067ffffffffffffffff82111561430957614309614743565b5060209081020190565b600067ffffffffffffffff82111561432d5761432d614743565b50601f01601f191660200190565b60009081526020902090565b60208410801561439d57601f84116001811461436e5761436786856146d3565b8355614397565b6143778361433b565b61438c6020601f880104820160018301614511565b5061439786846147aa565b50610802565b8160005260206000206020601f8701048101601f871680156143c7576143c7816000198401614759565b506143da6020601f880104830182614511565b50506001856002021782555050505050565b6000808335601e19843603018112614402578283fd5b830160208101925035905067ffffffffffffffff81111561442257600080fd5b602081023603831315612ace57600080fd5b6000808335601e1984360301811261444a578283fd5b830160208101925035905067ffffffffffffffff81111561446a57600080fd5b803603831315612ace57600080fd5b6000823560fe1983360301811261448e578182fd5b90910192915050565b600082198211156144aa576144aa614717565b500190565b6000826144ca57634e487b7160e01b81526012600452602481fd5b500490565b60008160001904831182151516156144e9576144e9614717565b500290565b60008282101561450057614500614717565b500390565b6001600160a01b031690565b5b818110156121fd5760008155600101614512565b614530838261476d565b818160005260208060002060005b8681101561455a5783358255928201926001918201910161453e565b50505050505050565b67ffffffffffffffff83111561457b5761457b614743565b614585815461469e565b600080601f8611601f8411818117156145a4576145a18661433b565b92505b80156145d3576020601f890104830160208910156145bf5750825b6145d16020601f880104850182614511565b505b5080600181146145ff576000945087156145ee578387013594505b6145f888866146d3565b8655614651565b601f198816945082845b868110156146295788860135825560209586019560019092019101614609565b508886101561464657878501356000196008601f8c16021c191681555b506001600289020186555b5050505050505050565b60005b8381101561467657818101518382015260200161465e565b838111156111f05750506000910152565b60008161469657614696614717565b506000190190565b6002810460018216806146b257607f821691505b60208210811415612bac57634e487b7160e01b600052602260045260246000fd5b600019600883021c191660029091021790565b60006000198214156146fa576146fa614717565b5060010190565b634e487b7160e01b600052600060045260246000fd5b634e487b7160e01b600052601160045260246000fd5b634e487b7160e01b600052602160045260246000fd5b634e487b7160e01b600052604160045260246000fd5b8054600019836020036008021c1681555050565b6801000000000000000082111561478657614786614743565b805482825580831015611734578160005260206000206111f0828201858301614511565b8060005260206000206147be8382546146d3565b9091556000905550565b6001600160a01b0382166001600160a01b03198254161781555050565b81356147f081614b9c565b6147fa81836147c8565b5060016020808401358284015560408401356002840155606084013560038401556148286080850185614205565b614836818360048801614526565b505061484560a0850185614205565b614853818360058801614526565b50506006830161486660c0860186614205565b6801000000000000000081111561487f5761487f614743565b8254818455808210156148ba5760008481528581208381019083015b808210156148b6576148ad838361476d565b9088019061489b565b5050505b50816148c58461433b565b93506000805b838110156148fa576148dd8386614205565b6148e98183868b614af0565b5050948701949186019187016148cb565b505050505050505061490f60e083018361424c565b6111f0818360078601614563565b813561492881614b9c565b61493281836147c8565b50600160208084013561494481614b9c565b614950818486016147c8565b506002604085013561496181614b9c565b61496d818387016147c8565b5060036060860135818601556004614988608088018861424c565b6149958183858b01614563565b505060058087016149a960a08a018a614205565b680100000000000000008111156149c2576149c2614743565b825481845580821015614a8a577f33333333333333333333333333333333333333333333333333333333333333338082118b1615614a0257614a02614717565b8083118b1615614a1457614a14614717565b506000848152898120838702810190878402015b80821015614a8657614a3b838484614b7d565b828d830155614a4d83848d8501614b7d565b614a5a83848c8501614b7d565b8882018054614a688161469e565b8015614a7a57614a7a86828486614347565b50505090870190614a28565b5050505b50819650614a978361433b565b9550600094508492505b80831015614ace57614abd614ab688846142b0565b8688614b09565b958701959483019491880191614aa1565b5050505050505050506121fd614ae760c0840184614291565b600683016147e5565b8115614afe57614afe614701565b6111f0848483614526565b8115614b1757614b17614701565b82358155600181016020840135614b2d81614bb1565b60038110614b3d57614b3d61472d565b60ff1982541660ff8216811783555050506040830135600282015560608301356003820155614b6f608084018461424c565b610802818360048601614563565b805460088302600019811b8086831b1681198416178455505050505050565b6001600160a01b03811681146106b357600080fd5b600381106106b357600080fdfea264697066735822122027c9f5449f4729ba766c7c22980f1e04e4d43610835f4c9f0b51cec4aeee1f9264736f6c63430008000033",
  "linkReferences": {
    "contracts/SolverLib.sol": {
      "SolverLib": [
        {
          "length": 20,
          "start": 1592
        },
        {
          "length": 20,
          "start": 1939
        },
        {
          "length": 20,
          "start": 2372
        },
        {
          "length": 20,
          "start": 2512
        },
        {
          "length": 20,
          "start": 3320
        },
        {
          "length": 20,
          "start": 3990
        },
        {
          "length": 20,
          "start": 4283
        },
        {
          "length": 20,
          "start": 5813
        },
        {
          "length": 20,
          "start": 6313
        },
        {
          "length": 20,
          "start": 6512
        },
        {
          "length": 20,
          "start": 6768
        },
        {
          "length": 20,
          "start": 8106
        },
        {
          "length": 20,
          "start": 8450
        },
        {
          "length": 20,
          "start": 9928
        }
      ]
    }
  },
  "deployedLinkReferences": {
    "contracts/SolverLib.sol": {
      "SolverLib": [
        {
          "length": 20,
          "start": 1560
        },
        {
          "length": 20,
          "start": 1907
        },
        {
          "length": 20,
          "start": 2340
        },
        {
          "length": 20,
          "start": 2480
        },
        {
          "length": 20,
          "start": 3288
        },
        {
          "length": 20,
          "start": 3958
        },
        {
          "length": 20,
          "start": 4251
        },
        {
          "length": 20,
          "start": 5781
        },
        {
          "length": 20,
          "start": 6281
        },
        {
          "length": 20,
          "start": 6480
        },
        {
          "length": 20,
          "start": 6736
        },
        {
          "length": 20,
          "start": 8074
        },
        {
          "length": 20,
          "start": 8418
        },
        {
          "length": 20,
          "start": 9896
        }
      ]
    }
  }
}