{
  "_format": "hh-sol-artifact-1",
  "contractName": "BasicSolverV1",
  "sourceName": "contracts/BasicSolverV1.sol",
  "abi": [
    {
      "anonymous": false,
      "inputs": [
        {
          "indexed": false,
          "internalType": "address",
          "name": "chainChild",
          "type": "address"
        }
      ],
      "name": "DeployedChild",
      "type": "event"
    },
    {
      "anonymous": false,
      "inputs": [
        {
          "indexed": false,
          "internalType": "address",
          "name": "solver",
          "type": "address"
        },
        {
          "indexed": false,
          "internalType": "uint256",
          "name": "solveIndex",
          "type": "uint256"
        }
      ],
      "name": "PreparedSolve",
      "type": "event"
    },
    {
      "inputs": [
        {
          "internalType": "uint256",
          "name": "_slot",
          "type": "uint256"
        },
        {
          "internalType": "bytes",
          "name": "_data",
          "type": "bytes"
        }
      ],
      "name": "addData",
      "outputs": [],
      "stateMutability": "nonpayable",
      "type": "function"
    },
    {
      "inputs": [
        {
          "internalType": "uint256",
          "name": "_index",
          "type": "uint256"
        }
      ],
      "name": "addressFromChainIndex",
      "outputs": [
        {
          "internalType": "address",
          "name": "_address",
          "type": "address"
        }
      ],
      "stateMutability": "view",
      "type": "function"
    },
    {
      "inputs": [
        {
          "internalType": "uint256",
          "name": "_index",
          "type": "uint256"
        },
        {
          "internalType": "uint256[]",
          "name": "payouts",
          "type": "uint256[]"
        }
      ],
      "name": "arbitrate",
      "outputs": [],
      "stateMutability": "nonpayable",
      "type": "function"
    },
    {
      "inputs": [
        {
          "internalType": "uint256",
          "name": "_index",
          "type": "uint256"
        }
      ],
      "name": "arbitrateNull",
      "outputs": [],
      "stateMutability": "nonpayable",
      "type": "function"
    },
    {
      "inputs": [
        {
          "internalType": "uint256",
          "name": "_index",
          "type": "uint256"
        }
      ],
      "name": "arbitrationPending",
      "outputs": [],
      "stateMutability": "nonpayable",
      "type": "function"
    },
    {
      "inputs": [
        {
          "internalType": "uint256",
          "name": "_index",
          "type": "uint256"
        }
      ],
      "name": "arbitrationRequested",
      "outputs": [],
      "stateMutability": "nonpayable",
      "type": "function"
    },
    {
      "inputs": [],
      "name": "chainChild",
      "outputs": [
        {
          "internalType": "address",
          "name": "",
          "type": "address"
        }
      ],
      "stateMutability": "view",
      "type": "function"
    },
    {
      "inputs": [],
      "name": "chainIndex",
      "outputs": [
        {
          "internalType": "uint256",
          "name": "",
          "type": "uint256"
        }
      ],
      "stateMutability": "view",
      "type": "function"
    },
    {
      "inputs": [],
      "name": "chainParent",
      "outputs": [
        {
          "internalType": "address",
          "name": "",
          "type": "address"
        }
      ],
      "stateMutability": "view",
      "type": "function"
    },
    {
      "inputs": [
        {
          "internalType": "uint256",
          "name": "",
          "type": "uint256"
        }
      ],
      "name": "conditions",
      "outputs": [
        {
          "internalType": "contract IERC20",
          "name": "collateralToken",
          "type": "address"
        },
        {
          "internalType": "bytes32",
          "name": "questionId",
          "type": "bytes32"
        },
        {
          "internalType": "bytes32",
          "name": "parentCollectionId",
          "type": "bytes32"
        },
        {
          "internalType": "bytes32",
          "name": "conditionId",
          "type": "bytes32"
        },
        {
          "internalType": "enum SolverLib.Status",
          "name": "status",
          "type": "uint8"
        }
      ],
      "stateMutability": "view",
      "type": "function"
    },
    {
      "inputs": [],
      "name": "config",
      "outputs": [
        {
          "internalType": "contract Solver",
          "name": "implementation",
          "type": "address"
        },
        {
          "internalType": "address",
          "name": "keeper",
          "type": "address"
        },
        {
          "internalType": "address",
          "name": "arbitrator",
          "type": "address"
        },
        {
          "internalType": "uint256",
          "name": "timelockSeconds",
          "type": "uint256"
        },
        {
          "internalType": "bytes",
          "name": "data",
          "type": "bytes"
        },
        {
          "components": [
            {
              "internalType": "contract IERC20",
              "name": "collateralToken",
              "type": "address"
            },
            {
              "internalType": "uint256",
              "name": "outcomeSlots",
              "type": "uint256"
            },
            {
              "internalType": "uint256",
              "name": "parentCollectionIndexSet",
              "type": "uint256"
            },
            {
              "internalType": "uint256",
              "name": "amountSlot",
              "type": "uint256"
            },
            {
              "internalType": "uint256[]",
              "name": "partition",
              "type": "uint256[]"
            },
            {
              "internalType": "uint256[]",
              "name": "recipientAddressSlots",
              "type": "uint256[]"
            },
            {
              "internalType": "uint256[][]",
              "name": "recipientAmountSlots",
              "type": "uint256[][]"
            },
            {
              "components": [
                {
                  "internalType": "bytes32",
                  "name": "digest",
                  "type": "bytes32"
                },
                {
                  "internalType": "uint8",
                  "name": "hashFunction",
                  "type": "uint8"
                },
                {
                  "internalType": "uint8",
                  "name": "size",
                  "type": "uint8"
                }
              ],
              "internalType": "struct SolverLib.Multihash[]",
              "name": "outcomeURIs",
              "type": "tuple[]"
            }
          ],
          "internalType": "struct SolverLib.ConditionBase",
          "name": "conditionBase",
          "type": "tuple"
        }
      ],
      "stateMutability": "view",
      "type": "function"
    },
    {
      "inputs": [
        {
          "internalType": "uint256",
          "name": "_index",
          "type": "uint256"
        }
      ],
      "name": "confirmPayouts",
      "outputs": [],
      "stateMutability": "nonpayable",
      "type": "function"
    },
    {
      "inputs": [
        {
          "components": [
            {
              "internalType": "contract Solver",
              "name": "implementation",
              "type": "address"
            },
            {
              "internalType": "address",
              "name": "keeper",
              "type": "address"
            },
            {
              "internalType": "address",
              "name": "arbitrator",
              "type": "address"
            },
            {
              "internalType": "uint256",
              "name": "timelockSeconds",
              "type": "uint256"
            },
            {
              "internalType": "bytes",
              "name": "data",
              "type": "bytes"
            },
            {
              "components": [
                {
                  "internalType": "uint256",
                  "name": "executions",
                  "type": "uint256"
                },
                {
                  "internalType": "enum SolverLib.IngestType",
                  "name": "ingestType",
                  "type": "uint8"
                },
                {
                  "internalType": "uint256",
                  "name": "slot",
                  "type": "uint256"
                },
                {
                  "internalType": "uint256",
                  "name": "solverIndex",
                  "type": "uint256"
                },
                {
                  "internalType": "bytes",
                  "name": "data",
                  "type": "bytes"
                }
              ],
              "internalType": "struct SolverLib.Ingest[]",
              "name": "ingests",
              "type": "tuple[]"
            },
            {
              "components": [
                {
                  "internalType": "contract IERC20",
                  "name": "collateralToken",
                  "type": "address"
                },
                {
                  "internalType": "uint256",
                  "name": "outcomeSlots",
                  "type": "uint256"
                },
                {
                  "internalType": "uint256",
                  "name": "parentCollectionIndexSet",
                  "type": "uint256"
                },
                {
                  "internalType": "uint256",
                  "name": "amountSlot",
                  "type": "uint256"
                },
                {
                  "internalType": "uint256[]",
                  "name": "partition",
                  "type": "uint256[]"
                },
                {
                  "internalType": "uint256[]",
                  "name": "recipientAddressSlots",
                  "type": "uint256[]"
                },
                {
                  "internalType": "uint256[][]",
                  "name": "recipientAmountSlots",
                  "type": "uint256[][]"
                },
                {
                  "components": [
                    {
                      "internalType": "bytes32",
                      "name": "digest",
                      "type": "bytes32"
                    },
                    {
                      "internalType": "uint8",
                      "name": "hashFunction",
                      "type": "uint8"
                    },
                    {
                      "internalType": "uint8",
                      "name": "size",
                      "type": "uint8"
                    }
                  ],
                  "internalType": "struct SolverLib.Multihash[]",
                  "name": "outcomeURIs",
                  "type": "tuple[]"
                }
              ],
              "internalType": "struct SolverLib.ConditionBase",
              "name": "conditionBase",
              "type": "tuple"
            }
          ],
          "internalType": "struct SolverLib.Config",
          "name": "_config",
          "type": "tuple"
        }
      ],
      "name": "deployChild",
      "outputs": [
        {
          "internalType": "contract Solver",
          "name": "_solver",
          "type": "address"
        }
      ],
      "stateMutability": "nonpayable",
      "type": "function"
    },
    {
      "inputs": [
        {
          "internalType": "uint256",
          "name": "_index",
          "type": "uint256"
        }
      ],
      "name": "executeSolve",
      "outputs": [],
      "stateMutability": "nonpayable",
      "type": "function"
    },
    {
      "inputs": [
        {
          "internalType": "uint256",
          "name": "_slot",
          "type": "uint256"
        }
      ],
      "name": "getCallbackOutput",
      "outputs": [
        {
          "internalType": "bytes",
          "name": "data",
          "type": "bytes"
        }
      ],
      "stateMutability": "view",
      "type": "function"
    },
    {
      "inputs": [],
      "name": "getConditions",
      "outputs": [
        {
          "components": [
            {
              "internalType": "contract IERC20",
              "name": "collateralToken",
              "type": "address"
            },
            {
              "internalType": "bytes32",
              "name": "questionId",
              "type": "bytes32"
            },
            {
              "internalType": "bytes32",
              "name": "parentCollectionId",
              "type": "bytes32"
            },
            {
              "internalType": "bytes32",
              "name": "conditionId",
              "type": "bytes32"
            },
            {
              "internalType": "uint256[]",
              "name": "payouts",
              "type": "uint256[]"
            },
            {
              "internalType": "enum SolverLib.Status",
              "name": "status",
              "type": "uint8"
            }
          ],
          "internalType": "struct SolverLib.Condition[]",
          "name": "",
          "type": "tuple[]"
        }
      ],
      "stateMutability": "view",
      "type": "function"
    },
    {
      "inputs": [
        {
          "internalType": "uint256",
          "name": "_slot",
          "type": "uint256"
        }
      ],
      "name": "getData",
      "outputs": [
        {
          "internalType": "bytes",
          "name": "data",
          "type": "bytes"
        }
      ],
      "stateMutability": "view",
      "type": "function"
    },
    {
      "inputs": [
        {
          "internalType": "uint256",
          "name": "slot",
          "type": "uint256"
        }
      ],
      "name": "getOutgoingCallbacks",
      "outputs": [
        {
          "internalType": "address[]",
          "name": "",
          "type": "address[]"
        }
      ],
      "stateMutability": "view",
      "type": "function"
    },
    {
      "inputs": [
        {
          "internalType": "uint256",
          "name": "_slot",
          "type": "uint256"
        }
      ],
      "name": "handleCallback",
      "outputs": [],
      "stateMutability": "nonpayable",
      "type": "function"
    },
    {
      "inputs": [],
      "name": "ingestsValid",
      "outputs": [
        {
          "internalType": "bool",
          "name": "",
          "type": "bool"
        }
      ],
      "stateMutability": "view",
      "type": "function"
    },
    {
      "inputs": [
        {
          "internalType": "address",
          "name": "_chainParent",
          "type": "address"
        },
        {
          "internalType": "uint256",
          "name": "_chainIndex",
          "type": "uint256"
        },
        {
          "components": [
            {
              "internalType": "contract Solver",
              "name": "implementation",
              "type": "address"
            },
            {
              "internalType": "address",
              "name": "keeper",
              "type": "address"
            },
            {
              "internalType": "address",
              "name": "arbitrator",
              "type": "address"
            },
            {
              "internalType": "uint256",
              "name": "timelockSeconds",
              "type": "uint256"
            },
            {
              "internalType": "bytes",
              "name": "data",
              "type": "bytes"
            },
            {
              "components": [
                {
                  "internalType": "uint256",
                  "name": "executions",
                  "type": "uint256"
                },
                {
                  "internalType": "enum SolverLib.IngestType",
                  "name": "ingestType",
                  "type": "uint8"
                },
                {
                  "internalType": "uint256",
                  "name": "slot",
                  "type": "uint256"
                },
                {
                  "internalType": "uint256",
                  "name": "solverIndex",
                  "type": "uint256"
                },
                {
                  "internalType": "bytes",
                  "name": "data",
                  "type": "bytes"
                }
              ],
              "internalType": "struct SolverLib.Ingest[]",
              "name": "ingests",
              "type": "tuple[]"
            },
            {
              "components": [
                {
                  "internalType": "contract IERC20",
                  "name": "collateralToken",
                  "type": "address"
                },
                {
                  "internalType": "uint256",
                  "name": "outcomeSlots",
                  "type": "uint256"
                },
                {
                  "internalType": "uint256",
                  "name": "parentCollectionIndexSet",
                  "type": "uint256"
                },
                {
                  "internalType": "uint256",
                  "name": "amountSlot",
                  "type": "uint256"
                },
                {
                  "internalType": "uint256[]",
                  "name": "partition",
                  "type": "uint256[]"
                },
                {
                  "internalType": "uint256[]",
                  "name": "recipientAddressSlots",
                  "type": "uint256[]"
                },
                {
                  "internalType": "uint256[][]",
                  "name": "recipientAmountSlots",
                  "type": "uint256[][]"
                },
                {
                  "components": [
                    {
                      "internalType": "bytes32",
                      "name": "digest",
                      "type": "bytes32"
                    },
                    {
                      "internalType": "uint8",
                      "name": "hashFunction",
                      "type": "uint8"
                    },
                    {
                      "internalType": "uint8",
                      "name": "size",
                      "type": "uint8"
                    }
                  ],
                  "internalType": "struct SolverLib.Multihash[]",
                  "name": "outcomeURIs",
                  "type": "tuple[]"
                }
              ],
              "internalType": "struct SolverLib.ConditionBase",
              "name": "conditionBase",
              "type": "tuple"
            }
          ],
          "internalType": "struct SolverLib.Config",
          "name": "_solverConfig",
          "type": "tuple"
        }
      ],
      "name": "init",
      "outputs": [],
      "stateMutability": "nonpayable",
      "type": "function"
    },
    {
      "inputs": [
        {
          "internalType": "address",
          "name": "operator",
          "type": "address"
        },
        {
          "internalType": "address",
          "name": "from",
          "type": "address"
        },
        {
          "internalType": "uint256[]",
          "name": "ids",
          "type": "uint256[]"
        },
        {
          "internalType": "uint256[]",
          "name": "values",
          "type": "uint256[]"
        },
        {
          "internalType": "bytes",
          "name": "data",
          "type": "bytes"
        }
      ],
      "name": "onERC1155BatchReceived",
      "outputs": [
        {
          "internalType": "bytes4",
          "name": "",
          "type": "bytes4"
        }
      ],
      "stateMutability": "nonpayable",
      "type": "function"
    },
    {
      "inputs": [
        {
          "internalType": "address",
          "name": "operator",
          "type": "address"
        },
        {
          "internalType": "address",
          "name": "from",
          "type": "address"
        },
        {
          "internalType": "uint256",
          "name": "id",
          "type": "uint256"
        },
        {
          "internalType": "uint256",
          "name": "value",
          "type": "uint256"
        },
        {
          "internalType": "bytes",
          "name": "data",
          "type": "bytes"
        }
      ],
      "name": "onERC1155Received",
      "outputs": [
        {
          "internalType": "bytes4",
          "name": "",
          "type": "bytes4"
        }
      ],
      "stateMutability": "nonpayable",
      "type": "function"
    },
    {
      "inputs": [
        {
          "internalType": "uint256",
          "name": "x",
          "type": "uint256"
        },
        {
          "internalType": "uint256",
          "name": "y",
          "type": "uint256"
        },
        {
          "internalType": "uint128",
          "name": "scale",
          "type": "uint128"
        }
      ],
      "name": "percentage",
      "outputs": [
        {
          "internalType": "uint256",
          "name": "",
          "type": "uint256"
        }
      ],
      "stateMutability": "pure",
      "type": "function"
    },
    {
      "inputs": [
        {
          "internalType": "uint256",
          "name": "_index",
          "type": "uint256"
        }
      ],
      "name": "prepareSolve",
      "outputs": [],
      "stateMutability": "nonpayable",
      "type": "function"
    },
    {
      "inputs": [
        {
          "internalType": "uint256",
          "name": "_index",
          "type": "uint256"
        },
        {
          "internalType": "uint256[]",
          "name": "_payouts",
          "type": "uint256[]"
        }
      ],
      "name": "proposePayouts",
      "outputs": [],
      "stateMutability": "nonpayable",
      "type": "function"
    },
    {
      "inputs": [
        {
          "internalType": "contract IERC20",
          "name": "_collateralToken",
          "type": "address"
        },
        {
          "internalType": "bytes32",
          "name": "_parentCollectionId",
          "type": "bytes32"
        },
        {
          "internalType": "bytes32",
          "name": "_conditionId",
          "type": "bytes32"
        },
        {
          "internalType": "uint256[]",
          "name": "_indexSets",
          "type": "uint256[]"
        }
      ],
      "name": "redeemPosition",
      "outputs": [],
      "stateMutability": "nonpayable",
      "type": "function"
    },
    {
      "inputs": [
        {
          "internalType": "uint256",
          "name": "_slot",
          "type": "uint256"
        },
        {
          "internalType": "uint256",
          "name": "_chainIndex",
          "type": "uint256"
        }
      ],
      "name": "registerOutgoingCallback",
      "outputs": [],
      "stateMutability": "nonpayable",
      "type": "function"
    },
    {
      "inputs": [
        {
          "internalType": "bytes32",
          "name": "_trackingId",
          "type": "bytes32"
        }
      ],
      "name": "setTrackingId",
      "outputs": [],
      "stateMutability": "nonpayable",
      "type": "function"
    },
    {
      "inputs": [
        {
          "internalType": "bytes4",
          "name": "interfaceId",
          "type": "bytes4"
        }
      ],
      "name": "supportsInterface",
      "outputs": [
        {
          "internalType": "bool",
          "name": "",
          "type": "bool"
        }
      ],
      "stateMutability": "view",
      "type": "function"
    },
    {
      "inputs": [],
      "name": "timelock",
      "outputs": [
        {
          "internalType": "uint256",
          "name": "",
          "type": "uint256"
        }
      ],
      "stateMutability": "view",
      "type": "function"
    },
    {
      "inputs": [],
      "name": "trackingId",
      "outputs": [
        {
          "internalType": "bytes32",
          "name": "",
          "type": "bytes32"
        }
      ],
      "stateMutability": "view",
      "type": "function"
    },
    {
      "inputs": [],
      "name": "uiURI",
      "outputs": [
        {
          "internalType": "bytes32",
          "name": "digest",
          "type": "bytes32"
        },
        {
          "internalType": "uint8",
          "name": "hashFunction",
          "type": "uint8"
        },
        {
          "internalType": "uint8",
          "name": "size",
          "type": "uint8"
        }
      ],
      "stateMutability": "view",
      "type": "function"
    }
  ],
  "bytecode": "0x608060405234801561001057600080fd5b50614ee1806100206000396000f3fe608060405234801561001057600080fd5b506004361061020b5760003560e01c80634e46f2231161012a57806399992506116100bd578063bc197c811161008c578063d8b6231611610071578063d8b623161461048a578063ea8221a91461049d578063f23a6e61146104a55761020b565b8063bc197c8114610462578063d33219b4146104825761020b565b80639999250614610421578063a072d7b014610429578063a5682cb01461043c578063b992db0f1461044f5761020b565b806380b204b7116100f957806380b204b7146103e057806380c2dde2146103f357806387c0b374146103fb57806387dfee571461040e5761020b565b80634e46f2231461039657806355dd978b146103a957806379502c55146103b15780637c123627146103cb5761020b565b806336fcf48c116101a2578063499f5af311610171578063499f5af31461034a5780634a77234e1461035d5780634dab5e69146103705780634dd82880146103835761020b565b806336fcf48c146102eb5780633837b05e146103025780633ee8b6741461032257806348cbb2fc146103425761020b565b80630d8d3975116101de5780630d8d397514610281578063187825591461029457806326c50007146102a7578063341f6e3e146102cb5761020b565b80630178fe3f1461021057806301ffc9a71461023957806307c068b6146102595780630d06101a1461026e575b600080fd5b61022361021e366004612de1565b6104b8565b6040516102309190613a26565b60405180910390f35b61024c610247366004612df9565b61055a565b60405161023091906139e4565b61026c610267366004612de1565b6105a0565b005b61026c61027c366004612de1565b6106e8565b61026c61028f366004612de1565b61070d565b61026c6102a2366004612e94565b61083b565b6102ba6102b5366004612de1565b6108f6565b604051610230959493929190613a73565b6102de6102d936600461318c565b610944565b60405161023091906139ef565b6102f3610a71565b604051610230939291906139f8565b610315610310366004612de1565b610a86565b6040516102309190613767565b610335610330366004612de1565b610bb4565b60405161023091906137da565b6102de610c1f565b61026c610358366004612d6a565b610c25565b61026c61036b366004612de1565b610d38565b61026c61037e366004612de1565b611006565b610223610391366004612de1565b6110e0565b61026c6103a4366004612de1565b61112b565b610315611205565b6103b9611214565b60405161023096959493929190613aa6565b6103d36114d0565b6040516102309190613827565b61026c6103ee366004613006565b6115ff565b610315611744565b61026c61040936600461316b565b611753565b61026c61041c366004613050565b6117d2565b61024c61192d565b61026c610437366004612de1565b6119da565b61031561044a366004612fbb565b611d2c565b61026c61045d366004612de1565b611e86565b610475610470366004612bfc565b6121a1565b6040516102309190613a11565b6102de6121ce565b61026c6104983660046130ec565b6121d4565b6102de61220c565b6104756104b3366004612cb7565b612212565b6000818152601b602052604090208054606091906104d59061491b565b80601f01602080910402602001604051908101604052809291908181526020018280546105019061491b565b801561054e5780601f106105235761010080835404028352916020019161054e565b820191906000526020600020905b81548152906001019060200180831161053157829003601f168201915b50505050509050919050565b60006001600160e01b031982167f4e2312e000000000000000000000000000000000000000000000000000000000148061059857506105988261223e565b90505b919050565b6005546001600160a01b031633146105d35760405162461bcd60e51b81526004016105ca90613e79565b60405180910390fd5b6003601182815481106105f657634e487b7160e01b600052603260045260246000fd5b600091825260209091206006918202016005015460ff169081111561062b57634e487b7160e01b600052602160045260246000fd5b146106485760405162461bcd60e51b81526004016105ca90613dae565b73__$94d7d2f22770e4b0d1a2b99fb2812308e2$__63ec7ac2f06011838154811061068357634e487b7160e01b600052603260045260246000fd5b90600052602060002090600602016040518263ffffffff1660e01b81526004016106ad91906139ef565b60006040518083038186803b1580156106c557600080fd5b505af41580156106d9573d6000803e3d6000fd5b505050506106e5612270565b50565b601654156107085760405162461bcd60e51b81526004016105ca90614064565b601655565b601554421161072e5760405162461bcd60e51b81526004016105ca90613d40565b60026011828154811061075157634e487b7160e01b600052603260045260246000fd5b600091825260209091206006918202016005015460ff169081111561078657634e487b7160e01b600052602160045260246000fd5b146107a35760405162461bcd60e51b81526004016105ca90613ee7565b73__$94d7d2f22770e4b0d1a2b99fb2812308e2$__63696d4661601183815481106107de57634e487b7160e01b600052603260045260246000fd5b90600052602060002090600602016040518263ffffffff1660e01b815260040161080891906139ef565b60006040518083038186803b15801561082057600080fd5b505af4158015610834573d6000803e3d6000fd5b5050505050565b6004546001600160a01b031633146108655760405162461bcd60e51b81526004016105ca90613d09565b6040517f01b7037c000000000000000000000000000000000000000000000000000000008152735fbdb2315678afecb367f032d93f642f64180aa3906301b7037c906108bd9088908890889088908890600401613a39565b600060405180830381600087803b1580156108d757600080fd5b505af11580156108eb573d6000803e3d6000fd5b505050505050505050565b6011818154811061090657600080fd5b6000918252602090912060069091020180546001820154600283015460038401546005909401546001600160a01b0390931694509092909160ff1685565b60405163ddc2f15560e01b815260009073__$94d7d2f22770e4b0d1a2b99fb2812308e2$__9063ddc2f1559061098390879060649087906004016142d4565b60206040518083038186803b15801561099b57600080fd5b505af41580156109af573d6000803e3d6000fd5b505050506040513d601f19601f820116820180604052508101906109d39190612fee565b60405163ddc2f15560e01b815273__$94d7d2f22770e4b0d1a2b99fb2812308e2$__9063ddc2f15590610a0f90879060649088906004016142d4565b60206040518083038186803b158015610a2757600080fd5b505af4158015610a3b573d6000803e3d6000fd5b505050506040513d601f19601f82011682018060405250810190610a5f9190612fee565b610a699190614643565b949350505050565b60015460025460ff8082169161010090041683565b6000601454821415610a9957503061059b565b601454821015610b2a57601254604051631c1bd82f60e11b81526001600160a01b0390911690633837b05e90610ad39085906004016139ef565b60206040518083038186803b158015610aeb57600080fd5b505afa158015610aff573d6000803e3d6000fd5b505050506040513d601f19601f82011682018060405250810190610b239190612be0565b905061059b565b60145482111561059b57601354604051631c1bd82f60e11b81526001600160a01b0390911690633837b05e90610b649085906004016139ef565b60206040518083038186803b158015610b7c57600080fd5b505afa158015610b90573d6000803e3d6000fd5b505050506040513d601f19601f820116820180604052508101906105989190612be0565b60008181526019602090815260409182902080548351818402810184019094528084526060939283018282801561054e57602002820191906000526020600020905b81546001600160a01b03168152600190910190602001808311610bf65750505050509050919050565b60165481565b600054610100900460ff1680610c3e575060005460ff16155b610c5a5760405162461bcd60e51b81526004016105ca90613de5565b600054610100900460ff16158015610c85576000805460ff1961ff0019909116610100171660011790555b3373e7f1725e7734ce288f8367e1bb143e90bb3f051214610cb85760405162461bcd60e51b81526004016105ca90613cd2565b6000610cca6040840160208501612bbd565b6001600160a01b03161415610cf15760405162461bcd60e51b81526004016105ca90613eb0565b601280546001600160a01b0319166001600160a01b0386161790556014839055816003610d1e8282614bb3565b50508015610d32576000805461ff00191690555b50505050565b6004546001600160a01b0316331480610d5b57506012546001600160a01b031633145b610d775760405162461bcd60e51b81526004016105ca9061402d565b6011548114610d985760405162461bcd60e51b81526004016105ca90613c9b565b60185415610db85760405162461bcd60e51b81526004016105ca90613f55565b60175415610dd85760405162461bcd60e51b81526004016105ca90613f8a565b601254601180546040517f5069a07c000000000000000000000000000000000000000000000000000000008152919273__$94d7d2f22770e4b0d1a2b99fb2812308e2$__92635069a07c92610e40926009926001600160a01b03909116913091600401614109565b60006040518083038186803b158015610e5857600080fd5b505af4158015610e6c573d6000803e3d6000fd5b505050506040513d6000823e601f3d908101601f19168201604052610e949190810190612efc565b8154600180820184556000938452602093849020835160069093020180546001600160a01b0319166001600160a01b03909316929092178255828401519082015560408201516002820155606082015160038201556080820151805192939192610f0492600485019201906129b9565b5060a082015160058201805460ff19166001836006811115610f3657634e487b7160e01b600052602160045260246000fd5b02179055505050610f4561228d565b7f152ec8ae15d347b2d2a8f0858caa29bcaaa0906749a1f43e08bfe799834602403082604051610f769291906137c1565b60405180910390a16013546001600160a01b0316156106e5576013546040517f4a77234e0000000000000000000000000000000000000000000000000000000081526001600160a01b0390911690634a77234e90610fd89084906004016139ef565b600060405180830381600087803b158015610ff257600080fd5b505af1158015610834573d6000803e3d6000fd5b6005546001600160a01b031633146110305760405162461bcd60e51b81526004016105ca90613e79565b60026011828154811061105357634e487b7160e01b600052603260045260246000fd5b600091825260209091206006918202016005015460ff169081111561108857634e487b7160e01b600052602160045260246000fd5b146110a55760405162461bcd60e51b81526004016105ca90613f1e565b73__$94d7d2f22770e4b0d1a2b99fb2812308e2$__6324b286026011838154811061068357634e487b7160e01b600052603260045260246000fd5b6011546000828152601c6020526040902054606091146111125760405162461bcd60e51b81526004016105ca90613e42565b6000828152601b6020526040902080546104d59061491b565b6005546001600160a01b031633146111555760405162461bcd60e51b81526004016105ca90613e79565b60046011828154811061117857634e487b7160e01b600052603260045260246000fd5b600091825260209091206006918202016005015460ff16908111156111ad57634e487b7160e01b600052602160045260246000fd5b146111ca5760405162461bcd60e51b81526004016105ca90613fbf565b73__$94d7d2f22770e4b0d1a2b99fb2812308e2$__6359111fb56011838154811061068357634e487b7160e01b600052603260045260246000fd5b6013546001600160a01b031681565b60038054600454600554600654600780546001600160a01b0395861696948616959093169391926112449061491b565b80601f01602080910402602001604051908101604052809291908181526020018280546112709061491b565b80156112bd5780601f10611292576101008083540402835291602001916112bd565b820191906000526020600020905b8154815290600101906020018083116112a057829003601f168201915b505060408051610100810182526006870180546001600160a01b03168252600788015460208084019190915260088901548385015260098901546060840152600a8901805485518184028101840190965280865298999893975091955060808701945090919083018282801561135257602002820191906000526020600020905b81548152602001906001019080831161133e575b50505050508152602001600582018054806020026020016040519081016040528092919081815260200182805480156113aa57602002820191906000526020600020905b815481526020019060010190808311611396575b5050505050815260200160068201805480602002602001604051908101604052809291908181526020016000905b828210156114445760008481526020908190208301805460408051828502810185019091528181529283018282801561143057602002820191906000526020600020905b81548152602001906001019080831161141c575b5050505050815260200190600101906113d8565b50505050815260200160078201805480602002602001604051908101604052809291908181526020016000905b828210156114c357600084815260209081902060408051606081018252600286029092018054835260019081015460ff8082168587015261010090910416918301919091529083529092019101611471565b5050505081525050905086565b60606011805480602002602001604051908101604052809291908181526020016000905b828210156115f65760008481526020908190206040805160c0810182526006860290920180546001600160a01b03168352600181015483850152600281015483830152600381015460608401526004810180548351818702810187019094528084529394919360808601939283018282801561158f57602002820191906000526020600020905b81548152602001906001019080831161157b575b5050509183525050600582015460209091019060ff1660068111156115c457634e487b7160e01b600052602160045260246000fd5b60068111156115e357634e487b7160e01b600052602160045260246000fd5b81525050815260200190600101906114f4565b50505050905090565b6004546001600160a01b031633146116295760405162461bcd60e51b81526004016105ca90613d09565b60016011848154811061164c57634e487b7160e01b600052603260045260246000fd5b600091825260209091206006918202016005015460ff169081111561168157634e487b7160e01b600052602160045260246000fd5b1461169e5760405162461bcd60e51b81526004016105ca90613c2d565b73__$94d7d2f22770e4b0d1a2b99fb2812308e2$__636a0a24f1601185815481106116d957634e487b7160e01b600052603260045260246000fd5b906000526020600020906006020184846040518463ffffffff1660e01b81526004016117079392919061413f565b60006040518083038186803b15801561171f57600080fd5b505af4158015611733573d6000803e3d6000fd5b5050505061173f612270565b505050565b6012546001600160a01b031681565b61175c81610a86565b6001600160a01b0316336001600160a01b03161461178c5760405162461bcd60e51b81526004016105ca90613c64565b6000828152601960209081526040822080546001810182559083529082200180546001600160a01b0319163317905560188054916117c983614963565b91905055505050565b6005546001600160a01b031633146117fc5760405162461bcd60e51b81526004016105ca90613e79565b60046011838154811061181f57634e487b7160e01b600052603260045260246000fd5b600091825260209091206006918202016005015460ff169081111561185457634e487b7160e01b600052602160045260246000fd5b146118715760405162461bcd60e51b81526004016105ca90613fbf565b60155442116118925760405162461bcd60e51b81526004016105ca90613d40565b73__$94d7d2f22770e4b0d1a2b99fb2812308e2$__6311ca1ac0601184815481106118cd57634e487b7160e01b600052603260045260246000fd5b9060005260206000209060060201836040518363ffffffff1660e01b81526004016118f9929190614159565b60006040518083038186803b15801561191157600080fd5b505af4158015611925573d6000803e3d6000fd5b505050505050565b6011546040517f5cc1f6b500000000000000000000000000000000000000000000000000000000815260009173__$94d7d2f22770e4b0d1a2b99fb2812308e2$__91635cc1f6b59161198591600891906004016138d9565b60206040518083038186803b15801561199d57600080fd5b505af41580156119b1573d6000803e3d6000fd5b505050506040513d601f19601f820116820180604052508101906119d59190612dc1565b905090565b600033826040516020016119ef929190613745565b60408051601f1981840301815291815281516020928301206000818152601a90935291205460088054929350611a55929091908110611a3e57634e487b7160e01b600052603260045260246000fd5b906000526020600020906005020160030154610a86565b6001600160a01b0316336001600160a01b031614611a855760405162461bcd60e51b81526004016105ca90613c64565b6000818152601a6020526040812054600880549091908110611ab757634e487b7160e01b600052603260045260246000fd5b600091825260209091206001600590920201015460ff166002811115611aed57634e487b7160e01b600052602160045260246000fd5b14611b0a5760405162461bcd60e51b81526004016105ca90613bbf565b6000818152601a6020526040902054600880549091908110611b3c57634e487b7160e01b600052603260045260246000fd5b600091825260208220600590910201805491611b5783614963565b90915550506000818152601a602052604090205460088054611d0d92908110611b9057634e487b7160e01b600052603260045260246000fd5b906000526020600020906005020160020154336001600160a01b0316634dd828806003600501601760030160008781526020019081526020016000205481548110611beb57634e487b7160e01b600052603260045260246000fd5b90600052602060002090600502016004018054611c079061491b565b80601f0160208091040260200160405190810160405280929190818152602001828054611c339061491b565b8015611c805780601f10611c5557610100808354040283529160200191611c80565b820191906000526020600020905b815481529060010190602001808311611c6357829003601f168201915b5050505050806020019051810190611c989190612fee565b6040518263ffffffff1660e01b8152600401611cb491906139ef565b60006040518083038186803b158015611ccc57600080fd5b505afa158015611ce0573d6000803e3d6000fd5b505050506040513d6000823e601f3d908101601f19168201604052611d089190810190612e21565b61253d565b6000818152601a6020526040812081905560178054916117c983614904565b6004546000906001600160a01b03163314611d595760405162461bcd60e51b81526004016105ca90613ff6565b6013546001600160a01b031615611d825760405162461bcd60e51b81526004016105ca90613bf6565b6014546040517f4dd0aa4900000000000000000000000000000000000000000000000000000000815273__$94d7d2f22770e4b0d1a2b99fb2812308e2$__91634dd0aa4991611dd89186913091906004016141e5565b604080518083038186803b158015611def57600080fd5b505af4158015611e03573d6000803e3d6000fd5b505050506040513d601f19601f82011682018060405250810190611e279190612d31565b601380546001600160a01b0319166001600160a01b0393841617908190556040519193507fbd2e7fbdc9b1c19997e58c63e6ea1b5a02acd8dd9fd5d76f4bb18634f7155e8092611e7992911690613767565b60405180910390a1919050565b600060118281548110611ea957634e487b7160e01b600052603260045260246000fd5b600091825260209091206006918202016005015460ff1690811115611ede57634e487b7160e01b600052602160045260246000fd5b14611efb5760405162461bcd60e51b81526004016105ca906140d2565b611f0361192d565b1515600114611f245760405162461bcd60e51b81526004016105ca90613d77565b600160118281548110611f4757634e487b7160e01b600052603260045260246000fd5b906000526020600020906006020160050160006101000a81548160ff02191690836006811115611f8757634e487b7160e01b600052602160045260246000fd5b02179055506012546011805473__$94d7d2f22770e4b0d1a2b99fb2812308e2$__92631e85323f926001600160a01b03909116916009919086908110611fdd57634e487b7160e01b600052603260045260246000fd5b60009182526020808320600c548452601b909152604090922080546006909202909201919061200b9061491b565b80601f01602080910402602001604051908101604052809291908181526020018280546120379061491b565b80156120845780601f1061205957610100808354040283529160200191612084565b820191906000526020600020905b81548152906001019060200180831161206757829003601f168201915b505050505080602001905181019061209c9190612fee565b6040518563ffffffff1660e01b81526004016120bb949392919061377b565b60006040518083038186803b1580156120d357600080fd5b505af41580156120e7573d6000803e3d6000fd5b5050505073__$94d7d2f22770e4b0d1a2b99fb2812308e2$__63366968286011838154811061212657634e487b7160e01b600052603260045260246000fd5b9060005260206000209060060201600360060130601b6016546040518663ffffffff1660e01b815260040161215f959493929190614199565b60006040518083038186803b15801561217757600080fd5b505af415801561218b573d6000803e3d6000fd5b50505050612198816106e5565b6106e5816125c0565b7fbc197c810000000000000000000000000000000000000000000000000000000098975050505050505050565b60155481565b6004546001600160a01b031633146121fe5760405162461bcd60e51b81526004016105ca90613b88565b612208828261253d565b5050565b60145481565b7ff23a6e61000000000000000000000000000000000000000000000000000000005b9695505050505050565b6001600160e01b031981167f01ffc9a70000000000000000000000000000000000000000000000000000000014919050565b60065461227e906001614663565b612288904261462b565b601555565b60005b6008548110156106e557600060088054839081106122be57634e487b7160e01b600052603260045260246000fd5b600091825260209091206001600590920201015460ff1660028111156122f457634e487b7160e01b600052602160045260246000fd5b14612338576123336003600501828154811061232057634e487b7160e01b600052603260045260246000fd5b90600052602060002090600502016126a9565b61252b565b6000306001600160a01b0316633837b05e6003600501848154811061236d57634e487b7160e01b600052603260045260246000fd5b9060005260206000209060050201600301546040518263ffffffff1660e01b815260040161239b91906139ef565b60206040518083038186803b1580156123b357600080fd5b505afa1580156123c7573d6000803e3d6000fd5b505050506040513d601f19601f820116820180604052508101906123eb9190612be0565b90506123f78183612714565b806001600160a01b03166387c0b3746003600501848154811061242a57634e487b7160e01b600052603260045260246000fd5b906000526020600020906005020160040180546124469061491b565b80601f01602080910402602001604051908101604052809291908181526020018280546124729061491b565b80156124bf5780601f10612494576101008083540402835291602001916124bf565b820191906000526020600020905b8154815290600101906020018083116124a257829003601f168201915b50505050508060200190518101906124d79190612fee565b6014546040518363ffffffff1660e01b81526004016124f79291906142fc565b600060405180830381600087803b15801561251157600080fd5b505af1158015612525573d6000803e3d6000fd5b50505050505b8061253581614963565b915050612290565b60115461254c90600190614682565b6000838152601c6020526040902054146125785760405162461bcd60e51b81526004016105ca9061409b565b6000828152601c6020526040812080549161259283614963565b90915550506000828152601b6020908152604090912082516125b692840190612a04565b5061220882612838565b6013546001600160a01b03161580159061265b5750601360009054906101000a90046001600160a01b03166001600160a01b031663999925066040518163ffffffff1660e01b815260040160206040518083038186803b15801561262357600080fd5b505afa158015612637573d6000803e3d6000fd5b505050506040513d601f19601f8201168201806040525081019061265b9190612dc1565b156106e5576013546040517fb992db0f0000000000000000000000000000000000000000000000000000000081526001600160a01b039091169063b992db0f90610fd89084906004016139ef565b6106e5816002015473__$94d7d2f22770e4b0d1a2b99fb2812308e2$__63b3d73707846040518263ffffffff1660e01b81526004016126e891906139ef565b60006040518083038186803b15801561270057600080fd5b505af4158015611ce0573d6000803e3d6000fd5b8060176003016000846003600501858154811061274157634e487b7160e01b600052603260045260246000fd5b9060005260206000209060050201600401805461275d9061491b565b80601f01602080910402602001604051908101604052809291908181526020018280546127899061491b565b80156127d65780601f106127ab576101008083540402835291602001916127d6565b820191906000526020600020905b8154815290600101906020018083116127b957829003601f168201915b50505050508060200190518101906127ee9190612fee565b6040516020016127ff929190613745565b60408051601f1981840301815291815281516020928301208352908201929092520160009081209190915560178054916117c983614963565b60005b60008281526019602052604090205481101561220857600082815260196020526040812080548390811061287f57634e487b7160e01b600052603260045260246000fd5b6000918252602090912001546001600160a01b0316146129a75760008281526019602052604090208054829081106128c757634e487b7160e01b600052603260045260246000fd5b6000918252602090912001546040517fa072d7b00000000000000000000000000000000000000000000000000000000081526001600160a01b039091169063a072d7b0906129199085906004016139ef565b600060405180830381600087803b15801561293357600080fd5b505af1158015612947573d6000803e3d6000fd5b505050600083815260196020526040902080549091508290811061297b57634e487b7160e01b600052603260045260246000fd5b6000918252602082200180546001600160a01b031916905560188054916129a183614904565b91905055505b806129b181614963565b91505061283b565b8280548282559060005260206000209081019282156129f4579160200282015b828111156129f45782518255916020019190600101906129d9565b50612a00929150612a77565b5090565b828054612a109061491b565b90600052602060002090601f016020900481019282612a3257600085556129f4565b82601f10612a4b57805160ff19168380011785556129f4565b828001600101855582156129f457918201828111156129f45782518255916020019190600101906129d9565b5b80821115612a005760008155600101612a78565b803561059b81614e7a565b60008083601f840112612aa8578182fd5b50813567ffffffffffffffff811115612abf578182fd5b6020830191508360208083028501011115612ad957600080fd5b9250929050565b600082601f830112612af0578081fd5b81516020612b05612b008361443b565b614411565b8281528181019085830183850287018401881015612b21578586fd5b855b85811015612b3f57815184529284019290840190600101612b23565b5090979650505050505050565b60008083601f840112612b5d578182fd5b50813567ffffffffffffffff811115612b74578182fd5b602083019150836020828501011115612ad957600080fd5b805161059b81614e7a565b80516007811061059b57600080fd5b600060e08284031215612bb7578081fd5b50919050565b600060208284031215612bce578081fd5b8135612bd981614e7a565b9392505050565b600060208284031215612bf1578081fd5b8151612bd981614e7a565b60008060008060008060008060a0898b031215612c17578384fd5b8835612c2281614e7a565b97506020890135612c3281614e7a565b9650604089013567ffffffffffffffff80821115612c4e578586fd5b612c5a8c838d01612a97565b909850965060608b0135915080821115612c72578586fd5b612c7e8c838d01612a97565b909650945060808b0135915080821115612c96578384fd5b50612ca38b828c01612b4c565b999c989b5096995094979396929594505050565b60008060008060008060a08789031215612ccf578384fd5b8635612cda81614e7a565b95506020870135612cea81614e7a565b94506040870135935060608701359250608087013567ffffffffffffffff811115612d13578283fd5b612d1f89828a01612b4c565b979a9699509497509295939492505050565b60008060408385031215612d43578182fd5b8251612d4e81614e7a565b6020840151909250612d5f81614e7a565b809150509250929050565b600080600060608486031215612d7e578081fd5b8335612d8981614e7a565b925060208401359150604084013567ffffffffffffffff811115612dab578182fd5b612db786828701612ba6565b9150509250925092565b600060208284031215612dd2578081fd5b81518015158114612bd9578182fd5b600060208284031215612df2578081fd5b5035919050565b600060208284031215612e0a578081fd5b81356001600160e01b031981168114612bd9578182fd5b600060208284031215612e32578081fd5b815167ffffffffffffffff811115612e48578182fd5b8201601f81018413612e58578182fd5b8051612e66612b008261445f565b818152856020838501011115612e7a578384fd5b612e8b8260208301602086016148d8565b95945050505050565b600080600080600060808688031215612eab578283fd5b8535612eb681614e7a565b94506020860135935060408601359250606086013567ffffffffffffffff811115612edf578182fd5b612eeb88828901612a97565b969995985093965092949392505050565b600060208284031215612f0d578081fd5b815167ffffffffffffffff80821115612f24578283fd5b9083019060c08286031215612f37578283fd5b60405160c081018181108382111715612f5257612f526149c0565b604052612f5e83612b8c565b8152602083015160208201526040830151604082015260608301516060820152608083015182811115612f8f578485fd5b612f9b87828601612ae0565b608083015250612fad60a08401612b97565b60a082015295945050505050565b600060208284031215612fcc578081fd5b813567ffffffffffffffff811115612fe2578182fd5b610a6984828501612ba6565b600060208284031215612fff578081fd5b5051919050565b60008060006040848603121561301a578081fd5b83359250602084013567ffffffffffffffff811115613037578182fd5b61304386828701612a97565b9497909650939450505050565b60008060408385031215613062578182fd5b8235915060208084013567ffffffffffffffff811115613080578283fd5b8401601f81018613613090578283fd5b803561309e612b008261443b565b81815283810190838501858402850186018a10156130ba578687fd5b8694505b838510156130dc5780358352600194909401939185019185016130be565b5080955050505050509250929050565b600080604083850312156130fe578182fd5b82359150602083013567ffffffffffffffff81111561311b578182fd5b8301601f8101851361312b578182fd5b8035613139612b008261445f565b81815286602083850101111561314d578384fd5b81602084016020830137908101602001929092525090939092509050565b6000806040838503121561317d578182fd5b50508035926020909101359150565b6000806000606084860312156131a0578081fd5b833592506020840135915060408401356fffffffffffffffffffffffffffffffff811681146131cd578182fd5b809150509250925092565b6001600160a01b03169052565b818352602080840193600091908185020181018584845b878110156132325782840389526132138288614538565b61321e868284613470565b9a87019a95505050908401906001016131fc565b5091979650505050505050565b6000815180845260208085018081965082840281019150828601855b858110156132325782840389526132738483516134bd565b9885019893509084019060010161325b565b6000815480845260208085018081965082840281019150858552828520855b858110156132325782840389526132bb84836134ec565b988501989350600191820191016132a4565b818352602080840193600091908185020181018584845b878110156132325782840389528135609e19883603018112613304578687fd5b87018035855260a08682013561331981614e8f565b61332588880182613574565b5060408281013590870152606080830135908701526080613348818401846145c8565b9350828289015261335c838901858361351e565b9c89019c975050509286019250506001016132e4565b60008284526020808501945082825b858110156133cb57813587528282013561339a81614e9c565b60ff90811688850152604090838201356133b381614e9c565b16908801526060968701969190910190600101613381565b509495945050505050565b6000815180845260208085019450808401835b838110156133cb578151805188528381015160ff908116858a01526040918201511690880152606090960195908201906001016133e9565b6000815480845260208085019450838352808320835b838110156133cb578154875260018083015460ff808216868b015260089190911c16604089015260609097019660029092019101613437565b60008284527f07ffffffffffffffffffffffffffffffffffffffffffffffffffffffffffffff8311156134a1578081fd5b6020830280836020870137939093016020019283525090919050565b6000815180845260208085019450808401835b838110156133cb578151875295820195908201906001016134d0565b6000815480845260208085019450838352808320835b838110156133cb57815487529582019560019182019101613502565b60008284528282602086013780602084860101526020601f19601f85011685010190509392505050565b600081518084526135608160208601602086016148d8565b601f01601f19169290920160200192915050565b60038110613584576135846149aa565b9052565b60078110613584576135846149aa565b60006101006135af846135aa85612a8c565b6131d8565b6020830135602085015260408301356040850152606083013560608501526135da6080840184614538565b8260808701526135ed8387018284613470565b925050506135fe60a0840184614538565b85830360a0870152613611838284613470565b9250505061362260c0840184614538565b85830360c08701526136358382846131e5565b9250505061364660e0840184614580565b85830360e0870152612234838284613372565b600061010061366c846135aa8554614699565b60018301546020850152600283015460408501526003830154606085015280608085015261369f818501600485016134ec565b905083810360a08501526136b681600585016134ec565b905083810360c08501526136cd8160068501613285565b905083810360e0850152610a698160078501613421565b60006001600160a01b03825416835260018201546020840152600282015460408401526003820154606084015260c0608084015261372860c08401600484016134ec565b60ff60058401541661373d60a0860182613588565b509392505050565b60609290921b6bffffffffffffffffffffffff19168252601482015260340190565b6001600160a01b0391909116815260200190565b60006001600160a01b03861682526080602083015261379d6080830186613659565b82810360408401526137af81866136e4565b91505082606083015295945050505050565b6001600160a01b03929092168252602082015260400190565b6020808252825182820181905260009190848201906040850190845b8181101561381b5783516001600160a01b0316835292840192918401916001016137f6565b50909695505050505050565b60208082528251828201819052600091906040908185019080840286018301878501865b838110156138cb57603f19898403018552815160c06001600160a01b038251168552888201518986015287820151888601526060808301518187015250608080830151828288015261389f838801826134bd565b9250505060a08083015192506138b781870184613588565b50958801959350509086019060010161384b565b509098975050505050505050565b60006040820160408352808554808352606092508285019150602083818302870101888652818620865b848110156139d257605f1989840301865260a082548452600160ff818501541661392f87870182613574565b5060028401546040860152600384015489860152600484018260808701528a81546139598161491b565b94880185905260c0948185168015613978576001811461398c576139b7565b60ff1983168a88015260e08a0193506139b7565b848f528a8f208f5b838110156139af5781548c82018a0152908701908c01613994565b8b0188019450505b50505098870198955050506005929092019150600101613903565b50509501959095525091949350505050565b901515815260200190565b90815260200190565b92835260ff918216602084015216604082015260600190565b6001600160e01b031991909116815260200190565b600060208252612bd96020830184613548565b60006001600160a01b038716825285602083015284604083015260806060830152613a68608083018486613470565b979650505050505050565b600060a0820190506001600160a01b03871682528560208301528460408301528360608301526122346080830184613588565b60006001600160a01b038089168352808816602084015280871660408401525084606083015260c06080830152613ae060c0830185613548565b82810360a0840152610100613af68286516131d8565b6020850151602083015260408501516040830152606085015160608301526080850151816080840152613b2b828401826134bd565b91505060a085015182820360a0840152613b4582826134bd565b91505060c085015182820360c0840152613b5f828261323f565b91505060e085015182820360e0840152613b7982826133d6565b9b9a5050505050505050505050565b6020808252600a908201527f4f6e6c794b656570657200000000000000000000000000000000000000000000604082015260600190565b60208082526013908201527f496e67657374206e6f742043616c6c6261636b00000000000000000000000000604082015260600190565b60208082526010908201527f536f6c76657220686173206368696c6400000000000000000000000000000000604082015260600190565b60208082526016908201527f436f6e646974696f6e206e6f7420457865637574656400000000000000000000604082015260600190565b60208082526015908201527f6d73672e73656e646572206e6f7420736f6c7665720000000000000000000000604082015260600190565b60208082526018908201527f496e76616c696420696e64657820746f20707265706172650000000000000000604082015260600190565b6020808252600c908201527f4f6e6c7920666163746f72790000000000000000000000000000000000000000604082015260600190565b6020808252600b908201527f4f6e6c79204b6565706572000000000000000000000000000000000000000000604082015260600190565b60208082526015908201527f54696d656c6f636b207374696c6c206c6f636b65640000000000000000000000604082015260600190565b6020808252600f908201527f696e676573747320696e76616c69640000000000000000000000000000000000604082015260600190565b60208082526018908201527f4e6f74204172626974726174696f6e5265717565737465640000000000000000604082015260600190565b6020808252602e908201527f496e697469616c697a61626c653a20636f6e747261637420697320616c72656160408201527f647920696e697469616c697a6564000000000000000000000000000000000000606082015260800190565b60208082526011908201527f536c6f7420696e76616c6964207665722e000000000000000000000000000000604082015260600190565b6020808252600f908201527f4f6e6c792061726269747261746f720000000000000000000000000000000000604082015260600190565b6020808252600e908201527f4b656570657220696e76616c6964000000000000000000000000000000000000604082015260600190565b60208082526014908201527f4f7574636f6d65206e6f742070726f706f736564000000000000000000000000604082015260600190565b60208082526013908201527f4e6f74204f7574636f6d6550726f706f73656400000000000000000000000000604082015260600190565b6020808252818101527f46756c66696c6c206f7574676f696e672063616c6c6261636b73206669727374604082015260600190565b6020808252818101527f46756c66696c6c20696e636f6d696e672063616c6c6261636b73206669727374604082015260600190565b60208082526016908201527f4e6f74204172626974726174696f6e50656e64696e6700000000000000000000604082015260600190565b6020808252600b908201527f4f6e6c79206b6565706572000000000000000000000000000000000000000000604082015260600190565b60208082526012908201527f4f6e6c79206b65657065722f706172656e740000000000000000000000000000604082015260600190565b6020808252600e908201527f547261636b696e67496420736574000000000000000000000000000000000000604082015260600190565b60208082526014908201527f536c6f742076657273696f6e20696e76616c6964000000000000000000000000604082015260600190565b6020808252600d908201527f6e6f7420496e6974696174656400000000000000000000000000000000000000604082015260600190565b60006080825261411c6080830187613659565b6001600160a01b0395861660208401529390941660408201526060015292915050565b600084825260406020830152612e8b604083018486613470565b60006040820184835260206040818501528185518084526060860191508287019350845b81811015612b3f5784518352938301939183019160010161417d565b600060a082526141ac60a08301886136e4565b82810360208401526141be8188613659565b6001600160a01b039690961660408401525050606081019290925260809091015292915050565b60006060825284356141f681614e7a565b61420360608401826131d8565b5061421060208601612a8c565b61421d60808401826131d8565b5061422a60408601612a8c565b61423760a08401826131d8565b50606085013560c083015261424f60808601866145c8565b60e0808501526142646101408501828461351e565b91505061427460a0870187614538565b605f19808685030161010087015261428d8483856132cd565b935061429c60c08a018a61460d565b9250808685030161012087015250506142b58282613598565b925050506142c660208301856131d8565b826040830152949350505050565b92835260208301919091526fffffffffffffffffffffffffffffffff16604082015260600190565b918252602082015260400190565b6000808335601e19843603018112614320578283fd5b83018035915067ffffffffffffffff82111561433a578283fd5b6020908101925081023603821315612ad957600080fd5b6000808335601e19843603018112614367578283fd5b83018035915067ffffffffffffffff821115614381578283fd5b6020019150606081023603821315612ad957600080fd5b6000808335601e198436030181126143ae578283fd5b83018035915067ffffffffffffffff8211156143c8578283fd5b602001915036819003821315612ad957600080fd5b6000823560fe198336030181126143f2578182fd5b9190910192915050565b60008235609e198336030181126143f2578182fd5b60405181810167ffffffffffffffff81118282101715614433576144336149c0565b604052919050565b600067ffffffffffffffff821115614455576144556149c0565b5060209081020190565b600067ffffffffffffffff821115614479576144796149c0565b50601f01601f191660200190565b60009081526020902090565b6020841080156144e957601f8411600181146144ba576144b38685614950565b83556144e3565b6144c383614487565b6144d86020601f8801048201600183016146a5565b506144e38684614a27565b50610834565b8160005260206000206020601f8701048101601f87168015614513576145138160001984016149d6565b506145266020601f8801048301826146a5565b50506001856002021782555050505050565b6000808335601e1984360301811261454e578283fd5b830160208101925035905067ffffffffffffffff81111561456e57600080fd5b602081023603831315612ad957600080fd5b6000808335601e19843603018112614596578283fd5b830160208101925035905067ffffffffffffffff8111156145b657600080fd5b606081023603831315612ad957600080fd5b6000808335601e198436030181126145de578283fd5b830160208101925035905067ffffffffffffffff8111156145fe57600080fd5b803603831315612ad957600080fd5b6000823560fe19833603018112614622578182fd5b90910192915050565b6000821982111561463e5761463e614994565b500190565b60008261465e57634e487b7160e01b81526012600452602481fd5b500490565b600081600019048311821515161561467d5761467d614994565b500290565b60008282101561469457614694614994565b500390565b6001600160a01b031690565b5b8181101561220857600081556001016146a6565b680100000000000000008311156146d3576146d36149c0565b80548382558084101561476b577f7fffffffffffffffffffffffffffffffffffffffffffffffffffffffffffffff600181831181161561471557614715614994565b600282871182161561472957614729614994565b600085815260208120909350878202810190828602015b808210156147655761475485868454614a45565b825584848301558282019150614740565b50505050505b508161477682614487565b6000805b868110156147a35761478d848385614e1f565b606093909301926002929092019160010161477a565b50505050505050565b6147b683826149ea565b818160005260208060002060005b868110156147a3578335825592820192600191820191016147c4565b67ffffffffffffffff8311156147f8576147f86149c0565b614802815461491b565b600080601f8611601f8411818117156148215761481e86614487565b92505b8015614850576020601f8901048301602089101561483c5750825b61484e6020601f8801048501826146a5565b505b50806001811461487c5760009450871561486b578387013594505b6148758886614950565b86556148ce565b601f198816945082845b868110156148a65788860135825560209586019560019092019101614886565b50888610156148c357878501356000196008601f8c16021c191681555b506001600289020186555b5050505050505050565b60005b838110156148f35781810151838201526020016148db565b83811115610d325750506000910152565b60008161491357614913614994565b506000190190565b60028104600182168061492f57607f821691505b60208210811415612bb757634e487b7160e01b600052602260045260246000fd5b600019600883021c191660029091021790565b600060001982141561497757614977614994565b5060010190565b634e487b7160e01b600052600060045260246000fd5b634e487b7160e01b600052601160045260246000fd5b634e487b7160e01b600052602160045260246000fd5b634e487b7160e01b600052604160045260246000fd5b8054600019836020036008021c1681555050565b68010000000000000000821115614a0357614a036149c0565b80548282558083101561173f57816000526020600020610d328282018583016146a5565b806000526020600020614a3b838254614950565b9091556000905550565b60089190910291821b60001990921b9182169119161790565b6001600160a01b0382166001600160a01b03198254161781555050565b8135614a8681614e7a565b614a908183614a5e565b506001602080840135828401556040840135600284015560608401356003840155614abe608085018561430a565b614acc8183600488016147ac565b5050614adb60a085018561430a565b614ae98183600588016147ac565b505060068301614afc60c086018661430a565b68010000000000000000811115614b1557614b156149c0565b825481845580821015614b505760008481528581208381019083015b80821015614b4c57614b4383836149ea565b90880190614b31565b5050505b5081614b5b84614487565b93506000805b83811015614b9057614b73838661430a565b614b7f8183868b614d92565b505094870194918601918701614b61565b5050505050505050614ba560e0830183614351565b610d328183600786016146ba565b8135614bbe81614e7a565b614bc88183614a5e565b506001602080840135614bda81614e7a565b614be681848601614a5e565b5060026040850135614bf781614e7a565b614c0381838701614a5e565b5060036060860135818601556004614c1e6080880188614398565b614c2b8183858b016147e0565b50506005808701614c3f60a08a018a61430a565b68010000000000000000811115614c5857614c586149c0565b825481845580821015614d2c577f33333333333333333333333333333333333333333333333333333333333333338082118b1615614c9857614c98614994565b8083118b1615614caa57614caa614994565b506000848152898120838702810190878402015b80821015614d2857614cd283848454614a45565b8255828d8301558a8201614ce884858354614a45565b815550898201614cfa84858354614a45565b90558189018054614d0a8161491b565b8015614d1c57614d1c86828486614493565b50505090870190614cbe565b5050505b50819650614d3983614487565b9550600094508492505b80831015614d7057614d5f614d5888846143fc565b8688614dab565b958701959483019491880191614d43565b505050505050505050612208614d8960c08401846143dd565b60068301614a7b565b8115614da057614da061497e565b610d328484836147ac565b8115614db957614db961497e565b82358155600181016020840135614dcf81614e8f565b60038110614ddf57614ddf6149aa565b60ff1982541660ff8216811783555050506040830135600282015560608301356003820155614e116080840184614398565b6108348183600486016147e0565b8115614e2d57614e2d61497e565b82358155600181016020840135614e4381614e9c565b815460ff191660ff91909116178082556040850135614e6181614e9c565b61ff008160081b1661ff00198316178355505050505050565b6001600160a01b03811681146106e557600080fd5b600381106106e557600080fd5b60ff811681146106e557600080fdfea26469706673582212202ea5dc327a5abe9bff1d52229878764ec16915da2ed504b9edf79f21d3a1b92e64736f6c63430008000033",
  "linkReferences": {
    "contracts/SolverLib.sol": {
      "SolverLib": [
        {
          "length": 20,
          "start": 1642
        },
        {
          "length": 20,
          "start": 1989
        },
        {
          "length": 20,
          "start": 2422
        },
        {
          "length": 20,
          "start": 2562
        },
        {
          "length": 20,
          "start": 3625
        },
        {
          "length": 20,
          "start": 4295
        },
        {
          "length": 20,
          "start": 4588
        },
        {
          "length": 20,
          "start": 5824
        },
        {
          "length": 20,
          "start": 6324
        },
        {
          "length": 20,
          "start": 6523
        },
        {
          "length": 20,
          "start": 7629
        },
        {
          "length": 20,
          "start": 8117
        },
        {
          "length": 20,
          "start": 8461
        },
        {
          "length": 20,
          "start": 9939
        }
      ]
    }
  },
  "deployedLinkReferences": {
    "contracts/SolverLib.sol": {
      "SolverLib": [
        {
          "length": 20,
          "start": 1610
        },
        {
          "length": 20,
          "start": 1957
        },
        {
          "length": 20,
          "start": 2390
        },
        {
          "length": 20,
          "start": 2530
        },
        {
          "length": 20,
          "start": 3593
        },
        {
          "length": 20,
          "start": 4263
        },
        {
          "length": 20,
          "start": 4556
        },
        {
          "length": 20,
          "start": 5792
        },
        {
          "length": 20,
          "start": 6292
        },
        {
          "length": 20,
          "start": 6491
        },
        {
          "length": 20,
          "start": 7597
        },
        {
          "length": 20,
          "start": 8085
        },
        {
          "length": 20,
          "start": 8429
        },
        {
          "length": 20,
          "start": 9907
        }
      ]
    }
  }
}