{
  "_format": "hh-sol-artifact-1",
  "contractName": "BasicSolverV1",
  "sourceName": "contracts/BasicSolverV1.sol",
  "abi": [
    {
      "anonymous": false,
      "inputs": [
        {
          "indexed": false,
          "internalType": "address",
          "name": "chainChild",
          "type": "address"
        }
      ],
      "name": "DeployedChild",
      "type": "event"
    },
    {
      "anonymous": false,
      "inputs": [
        {
          "indexed": false,
          "internalType": "address",
          "name": "solver",
          "type": "address"
        },
        {
          "indexed": false,
          "internalType": "uint256",
          "name": "solveIndex",
          "type": "uint256"
        }
      ],
      "name": "PreparedSolve",
      "type": "event"
    },
    {
      "inputs": [
        {
          "internalType": "uint256",
          "name": "_slot",
          "type": "uint256"
        },
        {
          "internalType": "bytes",
          "name": "_data",
          "type": "bytes"
        }
      ],
      "name": "addData",
      "outputs": [],
      "stateMutability": "nonpayable",
      "type": "function"
    },
    {
      "inputs": [
        {
          "internalType": "uint256",
          "name": "_index",
          "type": "uint256"
        }
      ],
      "name": "addressFromChainIndex",
      "outputs": [
        {
          "internalType": "address",
          "name": "_address",
          "type": "address"
        }
      ],
      "stateMutability": "view",
      "type": "function"
    },
    {
      "inputs": [
        {
          "internalType": "uint256",
          "name": "_index",
          "type": "uint256"
        },
        {
          "internalType": "uint256[]",
          "name": "payouts",
          "type": "uint256[]"
        }
      ],
      "name": "arbitrate",
      "outputs": [],
      "stateMutability": "nonpayable",
      "type": "function"
    },
    {
      "inputs": [
        {
          "internalType": "uint256",
          "name": "_index",
          "type": "uint256"
        }
      ],
      "name": "arbitrateNull",
      "outputs": [],
      "stateMutability": "nonpayable",
      "type": "function"
    },
    {
      "inputs": [
        {
          "internalType": "uint256",
          "name": "_index",
          "type": "uint256"
        }
      ],
      "name": "arbitrationPending",
      "outputs": [],
      "stateMutability": "nonpayable",
      "type": "function"
    },
    {
      "inputs": [
        {
          "internalType": "uint256",
          "name": "_index",
          "type": "uint256"
        }
      ],
      "name": "arbitrationRequested",
      "outputs": [],
      "stateMutability": "nonpayable",
      "type": "function"
    },
    {
      "inputs": [],
      "name": "chainChild",
      "outputs": [
        {
          "internalType": "address",
          "name": "",
          "type": "address"
        }
      ],
      "stateMutability": "view",
      "type": "function"
    },
    {
      "inputs": [],
      "name": "chainIndex",
      "outputs": [
        {
          "internalType": "uint256",
          "name": "",
          "type": "uint256"
        }
      ],
      "stateMutability": "view",
      "type": "function"
    },
    {
      "inputs": [],
      "name": "chainParent",
      "outputs": [
        {
          "internalType": "address",
          "name": "",
          "type": "address"
        }
      ],
      "stateMutability": "view",
      "type": "function"
    },
    {
      "inputs": [
        {
          "internalType": "uint256",
          "name": "",
          "type": "uint256"
        }
      ],
      "name": "conditions",
      "outputs": [
        {
          "internalType": "contract IERC20",
          "name": "collateralToken",
          "type": "address"
        },
        {
          "internalType": "bytes32",
          "name": "questionId",
          "type": "bytes32"
        },
        {
          "internalType": "bytes32",
          "name": "parentCollectionId",
          "type": "bytes32"
        },
        {
          "internalType": "bytes32",
          "name": "conditionId",
          "type": "bytes32"
        },
        {
          "internalType": "enum SolverLib.Status",
          "name": "status",
          "type": "uint8"
        }
      ],
      "stateMutability": "view",
      "type": "function"
    },
    {
      "inputs": [],
      "name": "config",
      "outputs": [
        {
          "internalType": "contract Solver",
          "name": "implementation",
          "type": "address"
        },
        {
          "internalType": "address",
          "name": "keeper",
          "type": "address"
        },
        {
          "internalType": "address",
          "name": "arbitrator",
          "type": "address"
        },
        {
          "internalType": "uint256",
          "name": "timelockSeconds",
          "type": "uint256"
        },
        {
          "internalType": "bytes",
          "name": "data",
          "type": "bytes"
        },
        {
          "components": [
            {
              "internalType": "contract IERC20",
              "name": "collateralToken",
              "type": "address"
            },
            {
              "internalType": "uint256",
              "name": "outcomeSlots",
              "type": "uint256"
            },
            {
              "internalType": "uint256",
              "name": "parentCollectionIndexSet",
              "type": "uint256"
            },
            {
              "internalType": "uint256",
              "name": "amountSlot",
              "type": "uint256"
            },
            {
              "internalType": "uint256[]",
              "name": "partition",
              "type": "uint256[]"
            },
            {
              "internalType": "uint256[]",
              "name": "recipientAddressSlots",
              "type": "uint256[]"
            },
            {
              "internalType": "uint256[][]",
              "name": "recipientAmountSlots",
              "type": "uint256[][]"
            },
            {
              "components": [
                {
                  "internalType": "bytes32",
                  "name": "digest",
                  "type": "bytes32"
                },
                {
                  "internalType": "uint8",
                  "name": "hashFunction",
                  "type": "uint8"
                },
                {
                  "internalType": "uint8",
                  "name": "size",
                  "type": "uint8"
                }
              ],
              "internalType": "struct SolverLib.Multihash[]",
              "name": "outcomeURIs",
              "type": "tuple[]"
            }
          ],
          "internalType": "struct SolverLib.ConditionBase",
          "name": "conditionBase",
          "type": "tuple"
        }
      ],
      "stateMutability": "view",
      "type": "function"
    },
    {
      "inputs": [
        {
          "internalType": "uint256",
          "name": "_index",
          "type": "uint256"
        }
      ],
      "name": "confirmPayouts",
      "outputs": [],
      "stateMutability": "nonpayable",
      "type": "function"
    },
    {
      "inputs": [
        {
          "components": [
            {
              "internalType": "contract Solver",
              "name": "implementation",
              "type": "address"
            },
            {
              "internalType": "address",
              "name": "keeper",
              "type": "address"
            },
            {
              "internalType": "address",
              "name": "arbitrator",
              "type": "address"
            },
            {
              "internalType": "uint256",
              "name": "timelockSeconds",
              "type": "uint256"
            },
            {
              "internalType": "bytes",
              "name": "data",
              "type": "bytes"
            },
            {
              "components": [
                {
                  "internalType": "uint256",
                  "name": "executions",
                  "type": "uint256"
                },
                {
                  "internalType": "enum SolverLib.IngestType",
                  "name": "ingestType",
                  "type": "uint8"
                },
                {
                  "internalType": "uint256",
                  "name": "slot",
                  "type": "uint256"
                },
                {
                  "internalType": "uint256",
                  "name": "solverIndex",
                  "type": "uint256"
                },
                {
                  "internalType": "bytes",
                  "name": "data",
                  "type": "bytes"
                }
              ],
              "internalType": "struct SolverLib.Ingest[]",
              "name": "ingests",
              "type": "tuple[]"
            },
            {
              "components": [
                {
                  "internalType": "contract IERC20",
                  "name": "collateralToken",
                  "type": "address"
                },
                {
                  "internalType": "uint256",
                  "name": "outcomeSlots",
                  "type": "uint256"
                },
                {
                  "internalType": "uint256",
                  "name": "parentCollectionIndexSet",
                  "type": "uint256"
                },
                {
                  "internalType": "uint256",
                  "name": "amountSlot",
                  "type": "uint256"
                },
                {
                  "internalType": "uint256[]",
                  "name": "partition",
                  "type": "uint256[]"
                },
                {
                  "internalType": "uint256[]",
                  "name": "recipientAddressSlots",
                  "type": "uint256[]"
                },
                {
                  "internalType": "uint256[][]",
                  "name": "recipientAmountSlots",
                  "type": "uint256[][]"
                },
                {
                  "components": [
                    {
                      "internalType": "bytes32",
                      "name": "digest",
                      "type": "bytes32"
                    },
                    {
                      "internalType": "uint8",
                      "name": "hashFunction",
                      "type": "uint8"
                    },
                    {
                      "internalType": "uint8",
                      "name": "size",
                      "type": "uint8"
                    }
                  ],
                  "internalType": "struct SolverLib.Multihash[]",
                  "name": "outcomeURIs",
                  "type": "tuple[]"
                }
              ],
              "internalType": "struct SolverLib.ConditionBase",
              "name": "conditionBase",
              "type": "tuple"
            }
          ],
          "internalType": "struct SolverLib.Config",
          "name": "_config",
          "type": "tuple"
        }
      ],
      "name": "deployChild",
      "outputs": [
        {
          "internalType": "contract Solver",
          "name": "_solver",
          "type": "address"
        }
      ],
      "stateMutability": "nonpayable",
      "type": "function"
    },
    {
      "inputs": [
        {
          "internalType": "uint256",
          "name": "_index",
          "type": "uint256"
        }
      ],
      "name": "executeSolve",
      "outputs": [],
      "stateMutability": "nonpayable",
      "type": "function"
    },
    {
      "inputs": [
        {
          "internalType": "uint256",
          "name": "_slot",
          "type": "uint256"
        }
      ],
      "name": "getCallbackOutput",
      "outputs": [
        {
          "internalType": "bytes",
          "name": "data",
          "type": "bytes"
        }
      ],
      "stateMutability": "view",
      "type": "function"
    },
    {
      "inputs": [],
      "name": "getConditions",
      "outputs": [
        {
          "components": [
            {
              "internalType": "contract IERC20",
              "name": "collateralToken",
              "type": "address"
            },
            {
              "internalType": "bytes32",
              "name": "questionId",
              "type": "bytes32"
            },
            {
              "internalType": "bytes32",
              "name": "parentCollectionId",
              "type": "bytes32"
            },
            {
              "internalType": "bytes32",
              "name": "conditionId",
              "type": "bytes32"
            },
            {
              "internalType": "uint256[]",
              "name": "payouts",
              "type": "uint256[]"
            },
            {
              "internalType": "enum SolverLib.Status",
              "name": "status",
              "type": "uint8"
            }
          ],
          "internalType": "struct SolverLib.Condition[]",
          "name": "",
          "type": "tuple[]"
        }
      ],
      "stateMutability": "view",
      "type": "function"
    },
    {
      "inputs": [
        {
          "internalType": "uint256",
          "name": "_slot",
          "type": "uint256"
        }
      ],
      "name": "getData",
      "outputs": [
        {
          "internalType": "bytes",
          "name": "data",
          "type": "bytes"
        }
      ],
      "stateMutability": "view",
      "type": "function"
    },
    {
      "inputs": [
        {
          "internalType": "uint256",
          "name": "slot",
          "type": "uint256"
        }
      ],
      "name": "getOutgoingCallbacks",
      "outputs": [
        {
          "internalType": "address[]",
          "name": "",
          "type": "address[]"
        }
      ],
      "stateMutability": "view",
      "type": "function"
    },
    {
      "inputs": [
        {
          "internalType": "uint256",
          "name": "_slot",
          "type": "uint256"
        }
      ],
      "name": "handleCallback",
      "outputs": [],
      "stateMutability": "nonpayable",
      "type": "function"
    },
    {
      "inputs": [],
      "name": "ingestsValid",
      "outputs": [
        {
          "internalType": "bool",
          "name": "",
          "type": "bool"
        }
      ],
      "stateMutability": "view",
      "type": "function"
    },
    {
      "inputs": [
        {
          "internalType": "address",
          "name": "_chainParent",
          "type": "address"
        },
        {
          "internalType": "uint256",
          "name": "_chainIndex",
          "type": "uint256"
        },
        {
          "components": [
            {
              "internalType": "contract Solver",
              "name": "implementation",
              "type": "address"
            },
            {
              "internalType": "address",
              "name": "keeper",
              "type": "address"
            },
            {
              "internalType": "address",
              "name": "arbitrator",
              "type": "address"
            },
            {
              "internalType": "uint256",
              "name": "timelockSeconds",
              "type": "uint256"
            },
            {
              "internalType": "bytes",
              "name": "data",
              "type": "bytes"
            },
            {
              "components": [
                {
                  "internalType": "uint256",
                  "name": "executions",
                  "type": "uint256"
                },
                {
                  "internalType": "enum SolverLib.IngestType",
                  "name": "ingestType",
                  "type": "uint8"
                },
                {
                  "internalType": "uint256",
                  "name": "slot",
                  "type": "uint256"
                },
                {
                  "internalType": "uint256",
                  "name": "solverIndex",
                  "type": "uint256"
                },
                {
                  "internalType": "bytes",
                  "name": "data",
                  "type": "bytes"
                }
              ],
              "internalType": "struct SolverLib.Ingest[]",
              "name": "ingests",
              "type": "tuple[]"
            },
            {
              "components": [
                {
                  "internalType": "contract IERC20",
                  "name": "collateralToken",
                  "type": "address"
                },
                {
                  "internalType": "uint256",
                  "name": "outcomeSlots",
                  "type": "uint256"
                },
                {
                  "internalType": "uint256",
                  "name": "parentCollectionIndexSet",
                  "type": "uint256"
                },
                {
                  "internalType": "uint256",
                  "name": "amountSlot",
                  "type": "uint256"
                },
                {
                  "internalType": "uint256[]",
                  "name": "partition",
                  "type": "uint256[]"
                },
                {
                  "internalType": "uint256[]",
                  "name": "recipientAddressSlots",
                  "type": "uint256[]"
                },
                {
                  "internalType": "uint256[][]",
                  "name": "recipientAmountSlots",
                  "type": "uint256[][]"
                },
                {
                  "components": [
                    {
                      "internalType": "bytes32",
                      "name": "digest",
                      "type": "bytes32"
                    },
                    {
                      "internalType": "uint8",
                      "name": "hashFunction",
                      "type": "uint8"
                    },
                    {
                      "internalType": "uint8",
                      "name": "size",
                      "type": "uint8"
                    }
                  ],
                  "internalType": "struct SolverLib.Multihash[]",
                  "name": "outcomeURIs",
                  "type": "tuple[]"
                }
              ],
              "internalType": "struct SolverLib.ConditionBase",
              "name": "conditionBase",
              "type": "tuple"
            }
          ],
          "internalType": "struct SolverLib.Config",
          "name": "_solverConfig",
          "type": "tuple"
        }
      ],
      "name": "init",
      "outputs": [],
      "stateMutability": "nonpayable",
      "type": "function"
    },
    {
      "inputs": [
        {
          "internalType": "address",
          "name": "operator",
          "type": "address"
        },
        {
          "internalType": "address",
          "name": "from",
          "type": "address"
        },
        {
          "internalType": "uint256[]",
          "name": "ids",
          "type": "uint256[]"
        },
        {
          "internalType": "uint256[]",
          "name": "values",
          "type": "uint256[]"
        },
        {
          "internalType": "bytes",
          "name": "data",
          "type": "bytes"
        }
      ],
      "name": "onERC1155BatchReceived",
      "outputs": [
        {
          "internalType": "bytes4",
          "name": "",
          "type": "bytes4"
        }
      ],
      "stateMutability": "nonpayable",
      "type": "function"
    },
    {
      "inputs": [
        {
          "internalType": "address",
          "name": "operator",
          "type": "address"
        },
        {
          "internalType": "address",
          "name": "from",
          "type": "address"
        },
        {
          "internalType": "uint256",
          "name": "id",
          "type": "uint256"
        },
        {
          "internalType": "uint256",
          "name": "value",
          "type": "uint256"
        },
        {
          "internalType": "bytes",
          "name": "data",
          "type": "bytes"
        }
      ],
      "name": "onERC1155Received",
      "outputs": [
        {
          "internalType": "bytes4",
          "name": "",
          "type": "bytes4"
        }
      ],
      "stateMutability": "nonpayable",
      "type": "function"
    },
    {
      "inputs": [
        {
          "internalType": "uint256",
          "name": "x",
          "type": "uint256"
        },
        {
          "internalType": "uint256",
          "name": "y",
          "type": "uint256"
        },
        {
          "internalType": "uint128",
          "name": "scale",
          "type": "uint128"
        }
      ],
      "name": "percentage",
      "outputs": [
        {
          "internalType": "uint256",
          "name": "",
          "type": "uint256"
        }
      ],
      "stateMutability": "pure",
      "type": "function"
    },
    {
      "inputs": [
        {
          "internalType": "uint256",
          "name": "_index",
          "type": "uint256"
        }
      ],
      "name": "prepareSolve",
      "outputs": [],
      "stateMutability": "nonpayable",
      "type": "function"
    },
    {
      "inputs": [
        {
          "internalType": "uint256",
          "name": "_index",
          "type": "uint256"
        }
      ],
      "name": "proposePayouts",
      "outputs": [],
      "stateMutability": "pure",
      "type": "function"
    },
    {
      "inputs": [
        {
          "internalType": "uint256",
          "name": "_index",
          "type": "uint256"
        },
        {
          "internalType": "uint256[]",
          "name": "_payouts",
          "type": "uint256[]"
        }
      ],
      "name": "proposePayouts",
      "outputs": [],
      "stateMutability": "nonpayable",
      "type": "function"
    },
    {
      "inputs": [
        {
          "internalType": "contract IERC20",
          "name": "_collateralToken",
          "type": "address"
        },
        {
          "internalType": "bytes32",
          "name": "_parentCollectionId",
          "type": "bytes32"
        },
        {
          "internalType": "bytes32",
          "name": "_conditionId",
          "type": "bytes32"
        },
        {
          "internalType": "uint256[]",
          "name": "_indexSets",
          "type": "uint256[]"
        }
      ],
      "name": "redeemPosition",
      "outputs": [],
      "stateMutability": "nonpayable",
      "type": "function"
    },
    {
      "inputs": [
        {
          "internalType": "uint256",
          "name": "_slot",
          "type": "uint256"
        },
        {
          "internalType": "uint256",
          "name": "_chainIndex",
          "type": "uint256"
        }
      ],
      "name": "registerOutgoingCallback",
      "outputs": [],
      "stateMutability": "nonpayable",
      "type": "function"
    },
    {
      "inputs": [
        {
          "internalType": "bytes32",
          "name": "_trackingId",
          "type": "bytes32"
        }
      ],
      "name": "setTrackingId",
      "outputs": [],
      "stateMutability": "nonpayable",
      "type": "function"
    },
    {
      "inputs": [
        {
          "internalType": "bytes4",
          "name": "interfaceId",
          "type": "bytes4"
        }
      ],
      "name": "supportsInterface",
      "outputs": [
        {
          "internalType": "bool",
          "name": "",
          "type": "bool"
        }
      ],
      "stateMutability": "view",
      "type": "function"
    },
    {
      "inputs": [],
      "name": "timelock",
      "outputs": [
        {
          "internalType": "uint256",
          "name": "",
          "type": "uint256"
        }
      ],
      "stateMutability": "view",
      "type": "function"
    },
    {
      "inputs": [],
      "name": "trackingId",
      "outputs": [
        {
          "internalType": "bytes32",
          "name": "",
          "type": "bytes32"
        }
      ],
      "stateMutability": "view",
      "type": "function"
    },
    {
      "inputs": [],
      "name": "uiURI",
      "outputs": [
        {
          "internalType": "bytes32",
          "name": "digest",
          "type": "bytes32"
        },
        {
          "internalType": "uint8",
          "name": "hashFunction",
          "type": "uint8"
        },
        {
          "internalType": "uint8",
          "name": "size",
          "type": "uint8"
        }
      ],
      "stateMutability": "view",
      "type": "function"
    }
  ],
  "bytecode": "0x608060405234801561001057600080fd5b50614f0f806100206000396000f3fe608060405234801561001057600080fd5b50600436106102265760003560e01c80634e46f2231161012a57806399992506116100bd578063bc197c811161008c578063d8b6231611610071578063d8b62316146104b8578063ea8221a9146104cb578063f23a6e61146104d357610226565b8063bc197c8114610490578063d33219b4146104b057610226565b8063999925061461044f578063a072d7b014610457578063a5682cb01461046a578063b992db0f1461047d57610226565b806380b204b7116100f957806380b204b71461040e57806380c2dde21461042157806387c0b3741461042957806387dfee571461043c57610226565b80634e46f223146103c457806355dd978b146103d757806379502c55146103df5780637c123627146103f957610226565b8063341f6e3e116101bd57806348cbb2fc1161018c5780634a77234e116101715780634a77234e1461038b5780634dab5e691461039e5780634dd82880146103b157610226565b806348cbb2fc14610370578063499f5af31461037857610226565b8063341f6e3e146102f957806336fcf48c146103195780633837b05e146103305780633ee8b6741461035057610226565b80630d8d3975116101f95780630d8d39751461029c57806318782559146102af5780631e4ddb0c146102c257806326c50007146102d557610226565b80630178fe3f1461022b57806301ffc9a71461025457806307c068b6146102745780630d06101a14610289575b600080fd5b61023e610239366004612e0f565b6104e6565b60405161024b9190613a54565b60405180910390f35b610267610262366004612e27565b610588565b60405161024b9190613a12565b610287610282366004612e0f565b6105ce565b005b610287610297366004612e0f565b610716565b6102876102aa366004612e0f565b61073b565b6102876102bd366004612ec2565b610869565b6102876102d0366004612e0f565b610713565b6102e86102e3366004612e0f565b610924565b60405161024b959493929190613aa1565b61030c6103073660046131ba565b610972565b60405161024b9190613a1d565b610321610a9f565b60405161024b93929190613a26565b61034361033e366004612e0f565b610ab4565b60405161024b9190613795565b61036361035e366004612e0f565b610be2565b60405161024b9190613808565b61030c610c4d565b610287610386366004612d98565b610c53565b610287610399366004612e0f565b610d66565b6102876103ac366004612e0f565b611034565b61023e6103bf366004612e0f565b61110e565b6102876103d2366004612e0f565b611159565b610343611233565b6103e7611242565b60405161024b96959493929190613ad4565b6104016114fe565b60405161024b9190613855565b61028761041c366004613034565b61162d565b610343611772565b610287610437366004613199565b611781565b61028761044a36600461307e565b611800565b61026761195b565b610287610465366004612e0f565b611a08565b610343610478366004612fe9565b611d5a565b61028761048b366004612e0f565b611eb4565b6104a361049e366004612c2a565b6121cf565b60405161024b9190613a3f565b61030c6121fc565b6102876104c636600461311a565b612202565b61030c61223a565b6104a36104e1366004612ce5565b612240565b6000818152601b6020526040902080546060919061050390614949565b80601f016020809104026020016040519081016040528092919081815260200182805461052f90614949565b801561057c5780601f106105515761010080835404028352916020019161057c565b820191906000526020600020905b81548152906001019060200180831161055f57829003601f168201915b50505050509050919050565b60006001600160e01b031982167f4e2312e00000000000000000000000000000000000000000000000000000000014806105c657506105c68261226c565b90505b919050565b6005546001600160a01b031633146106015760405162461bcd60e51b81526004016105f890613ea7565b60405180910390fd5b60036011828154811061062457634e487b7160e01b600052603260045260246000fd5b600091825260209091206006918202016005015460ff169081111561065957634e487b7160e01b600052602160045260246000fd5b146106765760405162461bcd60e51b81526004016105f890613ddc565b73__$94d7d2f22770e4b0d1a2b99fb2812308e2$__63ec7ac2f0601183815481106106b157634e487b7160e01b600052603260045260246000fd5b90600052602060002090600602016040518263ffffffff1660e01b81526004016106db9190613a1d565b60006040518083038186803b1580156106f357600080fd5b505af4158015610707573d6000803e3d6000fd5b5050505061071361229e565b50565b601654156107365760405162461bcd60e51b81526004016105f890614092565b601655565b601554421161075c5760405162461bcd60e51b81526004016105f890613d6e565b60026011828154811061077f57634e487b7160e01b600052603260045260246000fd5b600091825260209091206006918202016005015460ff16908111156107b457634e487b7160e01b600052602160045260246000fd5b146107d15760405162461bcd60e51b81526004016105f890613f15565b73__$94d7d2f22770e4b0d1a2b99fb2812308e2$__63696d46616011838154811061080c57634e487b7160e01b600052603260045260246000fd5b90600052602060002090600602016040518263ffffffff1660e01b81526004016108369190613a1d565b60006040518083038186803b15801561084e57600080fd5b505af4158015610862573d6000803e3d6000fd5b5050505050565b6004546001600160a01b031633146108935760405162461bcd60e51b81526004016105f890613d37565b6040517f01b7037c000000000000000000000000000000000000000000000000000000008152735fbdb2315678afecb367f032d93f642f64180aa3906301b7037c906108eb9088908890889088908890600401613a67565b600060405180830381600087803b15801561090557600080fd5b505af1158015610919573d6000803e3d6000fd5b505050505050505050565b6011818154811061093457600080fd5b6000918252602090912060069091020180546001820154600283015460038401546005909401546001600160a01b0390931694509092909160ff1685565b60405163ddc2f15560e01b815260009073__$94d7d2f22770e4b0d1a2b99fb2812308e2$__9063ddc2f155906109b19087906064908790600401614302565b60206040518083038186803b1580156109c957600080fd5b505af41580156109dd573d6000803e3d6000fd5b505050506040513d601f19601f82011682018060405250810190610a01919061301c565b60405163ddc2f15560e01b815273__$94d7d2f22770e4b0d1a2b99fb2812308e2$__9063ddc2f15590610a3d9087906064908890600401614302565b60206040518083038186803b158015610a5557600080fd5b505af4158015610a69573d6000803e3d6000fd5b505050506040513d601f19601f82011682018060405250810190610a8d919061301c565b610a979190614671565b949350505050565b60015460025460ff8082169161010090041683565b6000601454821415610ac75750306105c9565b601454821015610b5857601254604051631c1bd82f60e11b81526001600160a01b0390911690633837b05e90610b01908590600401613a1d565b60206040518083038186803b158015610b1957600080fd5b505afa158015610b2d573d6000803e3d6000fd5b505050506040513d601f19601f82011682018060405250810190610b519190612c0e565b90506105c9565b6014548211156105c957601354604051631c1bd82f60e11b81526001600160a01b0390911690633837b05e90610b92908590600401613a1d565b60206040518083038186803b158015610baa57600080fd5b505afa158015610bbe573d6000803e3d6000fd5b505050506040513d601f19601f820116820180604052508101906105c69190612c0e565b60008181526019602090815260409182902080548351818402810184019094528084526060939283018282801561057c57602002820191906000526020600020905b81546001600160a01b03168152600190910190602001808311610c245750505050509050919050565b60165481565b600054610100900460ff1680610c6c575060005460ff16155b610c885760405162461bcd60e51b81526004016105f890613e13565b600054610100900460ff16158015610cb3576000805460ff1961ff0019909116610100171660011790555b3373e7f1725e7734ce288f8367e1bb143e90bb3f051214610ce65760405162461bcd60e51b81526004016105f890613d00565b6000610cf86040840160208501612beb565b6001600160a01b03161415610d1f5760405162461bcd60e51b81526004016105f890613ede565b601280546001600160a01b0319166001600160a01b0386161790556014839055816003610d4c8282614be1565b50508015610d60576000805461ff00191690555b50505050565b6004546001600160a01b0316331480610d8957506012546001600160a01b031633145b610da55760405162461bcd60e51b81526004016105f89061405b565b6011548114610dc65760405162461bcd60e51b81526004016105f890613cc9565b60185415610de65760405162461bcd60e51b81526004016105f890613f83565b60175415610e065760405162461bcd60e51b81526004016105f890613fb8565b601254601180546040517f5069a07c000000000000000000000000000000000000000000000000000000008152919273__$94d7d2f22770e4b0d1a2b99fb2812308e2$__92635069a07c92610e6e926009926001600160a01b03909116913091600401614137565b60006040518083038186803b158015610e8657600080fd5b505af4158015610e9a573d6000803e3d6000fd5b505050506040513d6000823e601f3d908101601f19168201604052610ec29190810190612f2a565b8154600180820184556000938452602093849020835160069093020180546001600160a01b0319166001600160a01b03909316929092178255828401519082015560408201516002820155606082015160038201556080820151805192939192610f3292600485019201906129e7565b5060a082015160058201805460ff19166001836006811115610f6457634e487b7160e01b600052602160045260246000fd5b02179055505050610f736122bb565b7f152ec8ae15d347b2d2a8f0858caa29bcaaa0906749a1f43e08bfe799834602403082604051610fa49291906137ef565b60405180910390a16013546001600160a01b031615610713576013546040517f4a77234e0000000000000000000000000000000000000000000000000000000081526001600160a01b0390911690634a77234e90611006908490600401613a1d565b600060405180830381600087803b15801561102057600080fd5b505af1158015610862573d6000803e3d6000fd5b6005546001600160a01b0316331461105e5760405162461bcd60e51b81526004016105f890613ea7565b60026011828154811061108157634e487b7160e01b600052603260045260246000fd5b600091825260209091206006918202016005015460ff16908111156110b657634e487b7160e01b600052602160045260246000fd5b146110d35760405162461bcd60e51b81526004016105f890613f4c565b73__$94d7d2f22770e4b0d1a2b99fb2812308e2$__6324b28602601183815481106106b157634e487b7160e01b600052603260045260246000fd5b6011546000828152601c6020526040902054606091146111405760405162461bcd60e51b81526004016105f890613e70565b6000828152601b60205260409020805461050390614949565b6005546001600160a01b031633146111835760405162461bcd60e51b81526004016105f890613ea7565b6004601182815481106111a657634e487b7160e01b600052603260045260246000fd5b600091825260209091206006918202016005015460ff16908111156111db57634e487b7160e01b600052602160045260246000fd5b146111f85760405162461bcd60e51b81526004016105f890613fed565b73__$94d7d2f22770e4b0d1a2b99fb2812308e2$__6359111fb5601183815481106106b157634e487b7160e01b600052603260045260246000fd5b6013546001600160a01b031681565b60038054600454600554600654600780546001600160a01b03958616969486169590931693919261127290614949565b80601f016020809104026020016040519081016040528092919081815260200182805461129e90614949565b80156112eb5780601f106112c0576101008083540402835291602001916112eb565b820191906000526020600020905b8154815290600101906020018083116112ce57829003601f168201915b505060408051610100810182526006870180546001600160a01b03168252600788015460208084019190915260088901548385015260098901546060840152600a8901805485518184028101840190965280865298999893975091955060808701945090919083018282801561138057602002820191906000526020600020905b81548152602001906001019080831161136c575b50505050508152602001600582018054806020026020016040519081016040528092919081815260200182805480156113d857602002820191906000526020600020905b8154815260200190600101908083116113c4575b5050505050815260200160068201805480602002602001604051908101604052809291908181526020016000905b828210156114725760008481526020908190208301805460408051828502810185019091528181529283018282801561145e57602002820191906000526020600020905b81548152602001906001019080831161144a575b505050505081526020019060010190611406565b50505050815260200160078201805480602002602001604051908101604052809291908181526020016000905b828210156114f157600084815260209081902060408051606081018252600286029092018054835260019081015460ff808216858701526101009091041691830191909152908352909201910161149f565b5050505081525050905086565b60606011805480602002602001604051908101604052809291908181526020016000905b828210156116245760008481526020908190206040805160c0810182526006860290920180546001600160a01b0316835260018101548385015260028101548383015260038101546060840152600481018054835181870281018701909452808452939491936080860193928301828280156115bd57602002820191906000526020600020905b8154815260200190600101908083116115a9575b5050509183525050600582015460209091019060ff1660068111156115f257634e487b7160e01b600052602160045260246000fd5b600681111561161157634e487b7160e01b600052602160045260246000fd5b8152505081526020019060010190611522565b50505050905090565b6004546001600160a01b031633146116575760405162461bcd60e51b81526004016105f890613d37565b60016011848154811061167a57634e487b7160e01b600052603260045260246000fd5b600091825260209091206006918202016005015460ff16908111156116af57634e487b7160e01b600052602160045260246000fd5b146116cc5760405162461bcd60e51b81526004016105f890613c5b565b73__$94d7d2f22770e4b0d1a2b99fb2812308e2$__636a0a24f16011858154811061170757634e487b7160e01b600052603260045260246000fd5b906000526020600020906006020184846040518463ffffffff1660e01b81526004016117359392919061416d565b60006040518083038186803b15801561174d57600080fd5b505af4158015611761573d6000803e3d6000fd5b5050505061176d61229e565b505050565b6012546001600160a01b031681565b61178a81610ab4565b6001600160a01b0316336001600160a01b0316146117ba5760405162461bcd60e51b81526004016105f890613c92565b6000828152601960209081526040822080546001810182559083529082200180546001600160a01b0319163317905560188054916117f783614991565b91905055505050565b6005546001600160a01b0316331461182a5760405162461bcd60e51b81526004016105f890613ea7565b60046011838154811061184d57634e487b7160e01b600052603260045260246000fd5b600091825260209091206006918202016005015460ff169081111561188257634e487b7160e01b600052602160045260246000fd5b1461189f5760405162461bcd60e51b81526004016105f890613fed565b60155442116118c05760405162461bcd60e51b81526004016105f890613d6e565b73__$94d7d2f22770e4b0d1a2b99fb2812308e2$__6311ca1ac0601184815481106118fb57634e487b7160e01b600052603260045260246000fd5b9060005260206000209060060201836040518363ffffffff1660e01b8152600401611927929190614187565b60006040518083038186803b15801561193f57600080fd5b505af4158015611953573d6000803e3d6000fd5b505050505050565b6011546040517f5cc1f6b500000000000000000000000000000000000000000000000000000000815260009173__$94d7d2f22770e4b0d1a2b99fb2812308e2$__91635cc1f6b5916119b39160089190600401613907565b60206040518083038186803b1580156119cb57600080fd5b505af41580156119df573d6000803e3d6000fd5b505050506040513d601f19601f82011682018060405250810190611a039190612def565b905090565b60003382604051602001611a1d929190613773565b60408051601f1981840301815291815281516020928301206000818152601a90935291205460088054929350611a83929091908110611a6c57634e487b7160e01b600052603260045260246000fd5b906000526020600020906005020160030154610ab4565b6001600160a01b0316336001600160a01b031614611ab35760405162461bcd60e51b81526004016105f890613c92565b6000818152601a6020526040812054600880549091908110611ae557634e487b7160e01b600052603260045260246000fd5b600091825260209091206001600590920201015460ff166002811115611b1b57634e487b7160e01b600052602160045260246000fd5b14611b385760405162461bcd60e51b81526004016105f890613bed565b6000818152601a6020526040902054600880549091908110611b6a57634e487b7160e01b600052603260045260246000fd5b600091825260208220600590910201805491611b8583614991565b90915550506000818152601a602052604090205460088054611d3b92908110611bbe57634e487b7160e01b600052603260045260246000fd5b906000526020600020906005020160020154336001600160a01b0316634dd828806003600501601760030160008781526020019081526020016000205481548110611c1957634e487b7160e01b600052603260045260246000fd5b90600052602060002090600502016004018054611c3590614949565b80601f0160208091040260200160405190810160405280929190818152602001828054611c6190614949565b8015611cae5780601f10611c8357610100808354040283529160200191611cae565b820191906000526020600020905b815481529060010190602001808311611c9157829003601f168201915b5050505050806020019051810190611cc6919061301c565b6040518263ffffffff1660e01b8152600401611ce29190613a1d565b60006040518083038186803b158015611cfa57600080fd5b505afa158015611d0e573d6000803e3d6000fd5b505050506040513d6000823e601f3d908101601f19168201604052611d369190810190612e4f565b61256b565b6000818152601a6020526040812081905560178054916117f783614932565b6004546000906001600160a01b03163314611d875760405162461bcd60e51b81526004016105f890614024565b6013546001600160a01b031615611db05760405162461bcd60e51b81526004016105f890613c24565b6014546040517f4dd0aa4900000000000000000000000000000000000000000000000000000000815273__$94d7d2f22770e4b0d1a2b99fb2812308e2$__91634dd0aa4991611e06918691309190600401614213565b604080518083038186803b158015611e1d57600080fd5b505af4158015611e31573d6000803e3d6000fd5b505050506040513d601f19601f82011682018060405250810190611e559190612d5f565b601380546001600160a01b0319166001600160a01b0393841617908190556040519193507fbd2e7fbdc9b1c19997e58c63e6ea1b5a02acd8dd9fd5d76f4bb18634f7155e8092611ea792911690613795565b60405180910390a1919050565b600060118281548110611ed757634e487b7160e01b600052603260045260246000fd5b600091825260209091206006918202016005015460ff1690811115611f0c57634e487b7160e01b600052602160045260246000fd5b14611f295760405162461bcd60e51b81526004016105f890614100565b611f3161195b565b1515600114611f525760405162461bcd60e51b81526004016105f890613da5565b600160118281548110611f7557634e487b7160e01b600052603260045260246000fd5b906000526020600020906006020160050160006101000a81548160ff02191690836006811115611fb557634e487b7160e01b600052602160045260246000fd5b02179055506012546011805473__$94d7d2f22770e4b0d1a2b99fb2812308e2$__92631e85323f926001600160a01b0390911691600991908690811061200b57634e487b7160e01b600052603260045260246000fd5b60009182526020808320600c548452601b909152604090922080546006909202909201919061203990614949565b80601f016020809104026020016040519081016040528092919081815260200182805461206590614949565b80156120b25780601f10612087576101008083540402835291602001916120b2565b820191906000526020600020905b81548152906001019060200180831161209557829003601f168201915b50505050508060200190518101906120ca919061301c565b6040518563ffffffff1660e01b81526004016120e994939291906137a9565b60006040518083038186803b15801561210157600080fd5b505af4158015612115573d6000803e3d6000fd5b5050505073__$94d7d2f22770e4b0d1a2b99fb2812308e2$__63366968286011838154811061215457634e487b7160e01b600052603260045260246000fd5b9060005260206000209060060201600360060130601b6016546040518663ffffffff1660e01b815260040161218d9594939291906141c7565b60006040518083038186803b1580156121a557600080fd5b505af41580156121b9573d6000803e3d6000fd5b505050506121c681610713565b610713816125ee565b7fbc197c810000000000000000000000000000000000000000000000000000000098975050505050505050565b60155481565b6004546001600160a01b0316331461222c5760405162461bcd60e51b81526004016105f890613bb6565b612236828261256b565b5050565b60145481565b7ff23a6e61000000000000000000000000000000000000000000000000000000005b9695505050505050565b6001600160e01b031981167f01ffc9a70000000000000000000000000000000000000000000000000000000014919050565b6006546122ac906001614691565b6122b69042614659565b601555565b60005b60085481101561071357600060088054839081106122ec57634e487b7160e01b600052603260045260246000fd5b600091825260209091206001600590920201015460ff16600281111561232257634e487b7160e01b600052602160045260246000fd5b14612366576123616003600501828154811061234e57634e487b7160e01b600052603260045260246000fd5b90600052602060002090600502016126d7565b612559565b6000306001600160a01b0316633837b05e6003600501848154811061239b57634e487b7160e01b600052603260045260246000fd5b9060005260206000209060050201600301546040518263ffffffff1660e01b81526004016123c99190613a1d565b60206040518083038186803b1580156123e157600080fd5b505afa1580156123f5573d6000803e3d6000fd5b505050506040513d601f19601f820116820180604052508101906124199190612c0e565b90506124258183612742565b806001600160a01b03166387c0b3746003600501848154811061245857634e487b7160e01b600052603260045260246000fd5b9060005260206000209060050201600401805461247490614949565b80601f01602080910402602001604051908101604052809291908181526020018280546124a090614949565b80156124ed5780601f106124c2576101008083540402835291602001916124ed565b820191906000526020600020905b8154815290600101906020018083116124d057829003601f168201915b5050505050806020019051810190612505919061301c565b6014546040518363ffffffff1660e01b815260040161252592919061432a565b600060405180830381600087803b15801561253f57600080fd5b505af1158015612553573d6000803e3d6000fd5b50505050505b8061256381614991565b9150506122be565b60115461257a906001906146b0565b6000838152601c6020526040902054146125a65760405162461bcd60e51b81526004016105f8906140c9565b6000828152601c602052604081208054916125c083614991565b90915550506000828152601b6020908152604090912082516125e492840190612a32565b5061223682612866565b6013546001600160a01b0316158015906126895750601360009054906101000a90046001600160a01b03166001600160a01b031663999925066040518163ffffffff1660e01b815260040160206040518083038186803b15801561265157600080fd5b505afa158015612665573d6000803e3d6000fd5b505050506040513d601f19601f820116820180604052508101906126899190612def565b15610713576013546040517fb992db0f0000000000000000000000000000000000000000000000000000000081526001600160a01b039091169063b992db0f90611006908490600401613a1d565b610713816002015473__$94d7d2f22770e4b0d1a2b99fb2812308e2$__63b3d73707846040518263ffffffff1660e01b81526004016127169190613a1d565b60006040518083038186803b15801561272e57600080fd5b505af4158015611d0e573d6000803e3d6000fd5b8060176003016000846003600501858154811061276f57634e487b7160e01b600052603260045260246000fd5b9060005260206000209060050201600401805461278b90614949565b80601f01602080910402602001604051908101604052809291908181526020018280546127b790614949565b80156128045780601f106127d957610100808354040283529160200191612804565b820191906000526020600020905b8154815290600101906020018083116127e757829003601f168201915b505050505080602001905181019061281c919061301c565b60405160200161282d929190613773565b60408051601f1981840301815291815281516020928301208352908201929092520160009081209190915560178054916117f783614991565b60005b6000828152601960205260409020548110156122365760008281526019602052604081208054839081106128ad57634e487b7160e01b600052603260045260246000fd5b6000918252602090912001546001600160a01b0316146129d55760008281526019602052604090208054829081106128f557634e487b7160e01b600052603260045260246000fd5b6000918252602090912001546040517fa072d7b00000000000000000000000000000000000000000000000000000000081526001600160a01b039091169063a072d7b090612947908590600401613a1d565b600060405180830381600087803b15801561296157600080fd5b505af1158015612975573d6000803e3d6000fd5b50505060008381526019602052604090208054909150829081106129a957634e487b7160e01b600052603260045260246000fd5b6000918252602082200180546001600160a01b031916905560188054916129cf83614932565b91905055505b806129df81614991565b915050612869565b828054828255906000526020600020908101928215612a22579160200282015b82811115612a22578251825591602001919060010190612a07565b50612a2e929150612aa5565b5090565b828054612a3e90614949565b90600052602060002090601f016020900481019282612a605760008555612a22565b82601f10612a7957805160ff1916838001178555612a22565b82800160010185558215612a225791820182811115612a22578251825591602001919060010190612a07565b5b80821115612a2e5760008155600101612aa6565b80356105c981614ea8565b60008083601f840112612ad6578182fd5b50813567ffffffffffffffff811115612aed578182fd5b6020830191508360208083028501011115612b0757600080fd5b9250929050565b600082601f830112612b1e578081fd5b81516020612b33612b2e83614469565b61443f565b8281528181019085830183850287018401881015612b4f578586fd5b855b85811015612b6d57815184529284019290840190600101612b51565b5090979650505050505050565b60008083601f840112612b8b578182fd5b50813567ffffffffffffffff811115612ba2578182fd5b602083019150836020828501011115612b0757600080fd5b80516105c981614ea8565b8051600781106105c957600080fd5b600060e08284031215612be5578081fd5b50919050565b600060208284031215612bfc578081fd5b8135612c0781614ea8565b9392505050565b600060208284031215612c1f578081fd5b8151612c0781614ea8565b60008060008060008060008060a0898b031215612c45578384fd5b8835612c5081614ea8565b97506020890135612c6081614ea8565b9650604089013567ffffffffffffffff80821115612c7c578586fd5b612c888c838d01612ac5565b909850965060608b0135915080821115612ca0578586fd5b612cac8c838d01612ac5565b909650945060808b0135915080821115612cc4578384fd5b50612cd18b828c01612b7a565b999c989b5096995094979396929594505050565b60008060008060008060a08789031215612cfd578384fd5b8635612d0881614ea8565b95506020870135612d1881614ea8565b94506040870135935060608701359250608087013567ffffffffffffffff811115612d41578283fd5b612d4d89828a01612b7a565b979a9699509497509295939492505050565b60008060408385031215612d71578182fd5b8251612d7c81614ea8565b6020840151909250612d8d81614ea8565b809150509250929050565b600080600060608486031215612dac578081fd5b8335612db781614ea8565b925060208401359150604084013567ffffffffffffffff811115612dd9578182fd5b612de586828701612bd4565b9150509250925092565b600060208284031215612e00578081fd5b81518015158114612c07578182fd5b600060208284031215612e20578081fd5b5035919050565b600060208284031215612e38578081fd5b81356001600160e01b031981168114612c07578182fd5b600060208284031215612e60578081fd5b815167ffffffffffffffff811115612e76578182fd5b8201601f81018413612e86578182fd5b8051612e94612b2e8261448d565b818152856020838501011115612ea8578384fd5b612eb9826020830160208601614906565b95945050505050565b600080600080600060808688031215612ed9578283fd5b8535612ee481614ea8565b94506020860135935060408601359250606086013567ffffffffffffffff811115612f0d578182fd5b612f1988828901612ac5565b969995985093965092949392505050565b600060208284031215612f3b578081fd5b815167ffffffffffffffff80821115612f52578283fd5b9083019060c08286031215612f65578283fd5b60405160c081018181108382111715612f8057612f806149ee565b604052612f8c83612bba565b8152602083015160208201526040830151604082015260608301516060820152608083015182811115612fbd578485fd5b612fc987828601612b0e565b608083015250612fdb60a08401612bc5565b60a082015295945050505050565b600060208284031215612ffa578081fd5b813567ffffffffffffffff811115613010578182fd5b610a9784828501612bd4565b60006020828403121561302d578081fd5b5051919050565b600080600060408486031215613048578081fd5b83359250602084013567ffffffffffffffff811115613065578182fd5b61307186828701612ac5565b9497909650939450505050565b60008060408385031215613090578182fd5b8235915060208084013567ffffffffffffffff8111156130ae578283fd5b8401601f810186136130be578283fd5b80356130cc612b2e82614469565b81815283810190838501858402850186018a10156130e8578687fd5b8694505b8385101561310a5780358352600194909401939185019185016130ec565b5080955050505050509250929050565b6000806040838503121561312c578182fd5b82359150602083013567ffffffffffffffff811115613149578182fd5b8301601f81018513613159578182fd5b8035613167612b2e8261448d565b81815286602083850101111561317b578384fd5b81602084016020830137908101602001929092525090939092509050565b600080604083850312156131ab578182fd5b50508035926020909101359150565b6000806000606084860312156131ce578081fd5b833592506020840135915060408401356fffffffffffffffffffffffffffffffff811681146131fb578182fd5b809150509250925092565b6001600160a01b03169052565b818352602080840193600091908185020181018584845b878110156132605782840389526132418288614566565b61324c86828461349e565b9a87019a955050509084019060010161322a565b5091979650505050505050565b6000815180845260208085018081965082840281019150828601855b858110156132605782840389526132a18483516134eb565b98850198935090840190600101613289565b6000815480845260208085018081965082840281019150858552828520855b858110156132605782840389526132e9848361351a565b988501989350600191820191016132d2565b818352602080840193600091908185020181018584845b878110156132605782840389528135609e19883603018112613332578687fd5b87018035855260a08682013561334781614ebd565b613353888801826135a2565b5060408281013590870152606080830135908701526080613376818401846145f6565b9350828289015261338a838901858361354c565b9c89019c97505050928601925050600101613312565b60008284526020808501945082825b858110156133f95781358752828201356133c881614eca565b60ff90811688850152604090838201356133e181614eca565b169088015260609687019691909101906001016133af565b509495945050505050565b6000815180845260208085019450808401835b838110156133f9578151805188528381015160ff908116858a0152604091820151169088015260609096019590820190600101613417565b6000815480845260208085019450838352808320835b838110156133f9578154875260018083015460ff808216868b015260089190911c16604089015260609097019660029092019101613465565b60008284527f07ffffffffffffffffffffffffffffffffffffffffffffffffffffffffffffff8311156134cf578081fd5b6020830280836020870137939093016020019283525090919050565b6000815180845260208085019450808401835b838110156133f9578151875295820195908201906001016134fe565b6000815480845260208085019450838352808320835b838110156133f957815487529582019560019182019101613530565b60008284528282602086013780602084860101526020601f19601f85011685010190509392505050565b6000815180845261358e816020860160208601614906565b601f01601f19169290920160200192915050565b600381106135b2576135b26149d8565b9052565b600781106135b2576135b26149d8565b60006101006135dd846135d885612aba565b613206565b6020830135602085015260408301356040850152606083013560608501526136086080840184614566565b82608087015261361b838701828461349e565b9250505061362c60a0840184614566565b85830360a087015261363f83828461349e565b9250505061365060c0840184614566565b85830360c0870152613663838284613213565b9250505061367460e08401846145ae565b85830360e08701526122628382846133a0565b600061010061369a846135d885546146c7565b6001830154602085015260028301546040850152600383015460608501528060808501526136cd8185016004850161351a565b905083810360a08501526136e4816005850161351a565b905083810360c08501526136fb81600685016132b3565b905083810360e0850152610a97816007850161344f565b60006001600160a01b03825416835260018201546020840152600282015460408401526003820154606084015260c0608084015261375660c084016004840161351a565b60ff60058401541661376b60a08601826135b6565b509392505050565b60609290921b6bffffffffffffffffffffffff19168252601482015260340190565b6001600160a01b0391909116815260200190565b60006001600160a01b0386168252608060208301526137cb6080830186613687565b82810360408401526137dd8186613712565b91505082606083015295945050505050565b6001600160a01b03929092168252602082015260400190565b6020808252825182820181905260009190848201906040850190845b818110156138495783516001600160a01b031683529284019291840191600101613824565b50909695505050505050565b60208082528251828201819052600091906040908185019080840286018301878501865b838110156138f957603f19898403018552815160c06001600160a01b03825116855288820151898601528782015188860152606080830151818701525060808083015182828801526138cd838801826134eb565b9250505060a08083015192506138e5818701846135b6565b509588019593505090860190600101613879565b509098975050505050505050565b60006040820160408352808554808352606092508285019150602083818302870101888652818620865b84811015613a0057605f1989840301865260a082548452600160ff818501541661395d878701826135a2565b5060028401546040860152600384015489860152600484018260808701528a815461398781614949565b94880185905260c09481851680156139a657600181146139ba576139e5565b60ff1983168a88015260e08a0193506139e5565b848f528a8f208f5b838110156139dd5781548c82018a0152908701908c016139c2565b8b0188019450505b50505098870198955050506005929092019150600101613931565b50509501959095525091949350505050565b901515815260200190565b90815260200190565b92835260ff918216602084015216604082015260600190565b6001600160e01b031991909116815260200190565b600060208252612c076020830184613576565b60006001600160a01b038716825285602083015284604083015260806060830152613a9660808301848661349e565b979650505050505050565b600060a0820190506001600160a01b038716825285602083015284604083015283606083015261226260808301846135b6565b60006001600160a01b038089168352808816602084015280871660408401525084606083015260c06080830152613b0e60c0830185613576565b82810360a0840152610100613b24828651613206565b6020850151602083015260408501516040830152606085015160608301526080850151816080840152613b59828401826134eb565b91505060a085015182820360a0840152613b7382826134eb565b91505060c085015182820360c0840152613b8d828261326d565b91505060e085015182820360e0840152613ba78282613404565b9b9a5050505050505050505050565b6020808252600a908201527f4f6e6c794b656570657200000000000000000000000000000000000000000000604082015260600190565b60208082526013908201527f496e67657374206e6f742043616c6c6261636b00000000000000000000000000604082015260600190565b60208082526010908201527f536f6c76657220686173206368696c6400000000000000000000000000000000604082015260600190565b60208082526016908201527f436f6e646974696f6e206e6f7420457865637574656400000000000000000000604082015260600190565b60208082526015908201527f6d73672e73656e646572206e6f7420736f6c7665720000000000000000000000604082015260600190565b60208082526018908201527f496e76616c696420696e64657820746f20707265706172650000000000000000604082015260600190565b6020808252600c908201527f4f6e6c7920666163746f72790000000000000000000000000000000000000000604082015260600190565b6020808252600b908201527f4f6e6c79204b6565706572000000000000000000000000000000000000000000604082015260600190565b60208082526015908201527f54696d656c6f636b207374696c6c206c6f636b65640000000000000000000000604082015260600190565b6020808252600f908201527f696e676573747320696e76616c69640000000000000000000000000000000000604082015260600190565b60208082526018908201527f4e6f74204172626974726174696f6e5265717565737465640000000000000000604082015260600190565b6020808252602e908201527f496e697469616c697a61626c653a20636f6e747261637420697320616c72656160408201527f647920696e697469616c697a6564000000000000000000000000000000000000606082015260800190565b60208082526011908201527f536c6f7420696e76616c6964207665722e000000000000000000000000000000604082015260600190565b6020808252600f908201527f4f6e6c792061726269747261746f720000000000000000000000000000000000604082015260600190565b6020808252600e908201527f4b656570657220696e76616c6964000000000000000000000000000000000000604082015260600190565b60208082526014908201527f4f7574636f6d65206e6f742070726f706f736564000000000000000000000000604082015260600190565b60208082526013908201527f4e6f74204f7574636f6d6550726f706f73656400000000000000000000000000604082015260600190565b6020808252818101527f46756c66696c6c206f7574676f696e672063616c6c6261636b73206669727374604082015260600190565b6020808252818101527f46756c66696c6c20696e636f6d696e672063616c6c6261636b73206669727374604082015260600190565b60208082526016908201527f4e6f74204172626974726174696f6e50656e64696e6700000000000000000000604082015260600190565b6020808252600b908201527f4f6e6c79206b6565706572000000000000000000000000000000000000000000604082015260600190565b60208082526012908201527f4f6e6c79206b65657065722f706172656e740000000000000000000000000000604082015260600190565b6020808252600e908201527f547261636b696e67496420736574000000000000000000000000000000000000604082015260600190565b60208082526014908201527f536c6f742076657273696f6e20696e76616c6964000000000000000000000000604082015260600190565b6020808252600d908201527f6e6f7420496e6974696174656400000000000000000000000000000000000000604082015260600190565b60006080825261414a6080830187613687565b6001600160a01b0395861660208401529390941660408201526060015292915050565b600084825260406020830152612eb960408301848661349e565b60006040820184835260206040818501528185518084526060860191508287019350845b81811015612b6d578451835293830193918301916001016141ab565b600060a082526141da60a0830188613712565b82810360208401526141ec8188613687565b6001600160a01b039690961660408401525050606081019290925260809091015292915050565b600060608252843561422481614ea8565b6142316060840182613206565b5061423e60208601612aba565b61424b6080840182613206565b5061425860408601612aba565b61426560a0840182613206565b50606085013560c083015261427d60808601866145f6565b60e0808501526142926101408501828461354c565b9150506142a260a0870187614566565b605f1980868503016101008701526142bb8483856132fb565b93506142ca60c08a018a61463b565b9250808685030161012087015250506142e382826135c6565b925050506142f46020830185613206565b826040830152949350505050565b92835260208301919091526fffffffffffffffffffffffffffffffff16604082015260600190565b918252602082015260400190565b6000808335601e1984360301811261434e578283fd5b83018035915067ffffffffffffffff821115614368578283fd5b6020908101925081023603821315612b0757600080fd5b6000808335601e19843603018112614395578283fd5b83018035915067ffffffffffffffff8211156143af578283fd5b6020019150606081023603821315612b0757600080fd5b6000808335601e198436030181126143dc578283fd5b83018035915067ffffffffffffffff8211156143f6578283fd5b602001915036819003821315612b0757600080fd5b6000823560fe19833603018112614420578182fd5b9190910192915050565b60008235609e19833603018112614420578182fd5b60405181810167ffffffffffffffff81118282101715614461576144616149ee565b604052919050565b600067ffffffffffffffff821115614483576144836149ee565b5060209081020190565b600067ffffffffffffffff8211156144a7576144a76149ee565b50601f01601f191660200190565b60009081526020902090565b60208410801561451757601f8411600181146144e8576144e1868561497e565b8355614511565b6144f1836144b5565b6145066020601f8801048201600183016146d3565b506145118684614a55565b50610862565b8160005260206000206020601f8701048101601f8716801561454157614541816000198401614a04565b506145546020601f8801048301826146d3565b50506001856002021782555050505050565b6000808335601e1984360301811261457c578283fd5b830160208101925035905067ffffffffffffffff81111561459c57600080fd5b602081023603831315612b0757600080fd5b6000808335601e198436030181126145c4578283fd5b830160208101925035905067ffffffffffffffff8111156145e457600080fd5b606081023603831315612b0757600080fd5b6000808335601e1984360301811261460c578283fd5b830160208101925035905067ffffffffffffffff81111561462c57600080fd5b803603831315612b0757600080fd5b6000823560fe19833603018112614650578182fd5b90910192915050565b6000821982111561466c5761466c6149c2565b500190565b60008261468c57634e487b7160e01b81526012600452602481fd5b500490565b60008160001904831182151516156146ab576146ab6149c2565b500290565b6000828210156146c2576146c26149c2565b500390565b6001600160a01b031690565b5b8181101561223657600081556001016146d4565b68010000000000000000831115614701576147016149ee565b805483825580841015614799577f7fffffffffffffffffffffffffffffffffffffffffffffffffffffffffffffff6001818311811615614743576147436149c2565b6002828711821615614757576147576149c2565b600085815260208120909350878202810190828602015b808210156147935761478285868454614a73565b82558484830155828201915061476e565b50505050505b50816147a4826144b5565b6000805b868110156147d1576147bb848385614e4d565b60609390930192600292909201916001016147a8565b50505050505050565b6147e48382614a18565b818160005260208060002060005b868110156147d1578335825592820192600191820191016147f2565b67ffffffffffffffff831115614826576148266149ee565b6148308154614949565b600080601f8611601f84118181171561484f5761484c866144b5565b92505b801561487e576020601f8901048301602089101561486a5750825b61487c6020601f8801048501826146d3565b505b5080600181146148aa57600094508715614899578387013594505b6148a3888661497e565b86556148fc565b601f198816945082845b868110156148d457888601358255602095860195600190920191016148b4565b50888610156148f157878501356000196008601f8c16021c191681555b506001600289020186555b5050505050505050565b60005b83811015614921578181015183820152602001614909565b83811115610d605750506000910152565b600081614941576149416149c2565b506000190190565b60028104600182168061495d57607f821691505b60208210811415612be557634e487b7160e01b600052602260045260246000fd5b600019600883021c191660029091021790565b60006000198214156149a5576149a56149c2565b5060010190565b634e487b7160e01b600052600060045260246000fd5b634e487b7160e01b600052601160045260246000fd5b634e487b7160e01b600052602160045260246000fd5b634e487b7160e01b600052604160045260246000fd5b8054600019836020036008021c1681555050565b68010000000000000000821115614a3157614a316149ee565b80548282558083101561176d57816000526020600020610d608282018583016146d3565b806000526020600020614a6983825461497e565b9091556000905550565b60089190910291821b60001990921b9182169119161790565b6001600160a01b0382166001600160a01b03198254161781555050565b8135614ab481614ea8565b614abe8183614a8c565b506001602080840135828401556040840135600284015560608401356003840155614aec6080850185614338565b614afa8183600488016147da565b5050614b0960a0850185614338565b614b178183600588016147da565b505060068301614b2a60c0860186614338565b68010000000000000000811115614b4357614b436149ee565b825481845580821015614b7e5760008481528581208381019083015b80821015614b7a57614b718383614a18565b90880190614b5f565b5050505b5081614b89846144b5565b93506000805b83811015614bbe57614ba18386614338565b614bad8183868b614dc0565b505094870194918601918701614b8f565b5050505050505050614bd360e083018361437f565b610d608183600786016146e8565b8135614bec81614ea8565b614bf68183614a8c565b506001602080840135614c0881614ea8565b614c1481848601614a8c565b5060026040850135614c2581614ea8565b614c3181838701614a8c565b5060036060860135818601556004614c4c60808801886143c6565b614c598183858b0161480e565b50506005808701614c6d60a08a018a614338565b68010000000000000000811115614c8657614c866149ee565b825481845580821015614d5a577f33333333333333333333333333333333333333333333333333333333333333338082118b1615614cc657614cc66149c2565b8083118b1615614cd857614cd86149c2565b506000848152898120838702810190878402015b80821015614d5657614d0083848454614a73565b8255828d8301558a8201614d1684858354614a73565b815550898201614d2884858354614a73565b90558189018054614d3881614949565b8015614d4a57614d4a868284866144c1565b50505090870190614cec565b5050505b50819650614d67836144b5565b9550600094508492505b80831015614d9e57614d8d614d86888461442a565b8688614dd9565b958701959483019491880191614d71565b505050505050505050612236614db760c084018461440b565b60068301614aa9565b8115614dce57614dce6149ac565b610d608484836147da565b8115614de757614de76149ac565b82358155600181016020840135614dfd81614ebd565b60038110614e0d57614e0d6149d8565b60ff1982541660ff8216811783555050506040830135600282015560608301356003820155614e3f60808401846143c6565b61086281836004860161480e565b8115614e5b57614e5b6149ac565b82358155600181016020840135614e7181614eca565b815460ff191660ff91909116178082556040850135614e8f81614eca565b61ff008160081b1661ff00198316178355505050505050565b6001600160a01b038116811461071357600080fd5b6003811061071357600080fd5b60ff8116811461071357600080fdfea2646970667358221220a24ed79574414accfdc2bbda547a1836b6a7c14560ba82cd26e7fb486851cf2364736f6c63430008000033",
  "linkReferences": {
    "contracts/SolverLib.sol": {
      "SolverLib": [
        {
          "length": 20,
          "start": 1688
        },
        {
          "length": 20,
          "start": 2035
        },
        {
          "length": 20,
          "start": 2468
        },
        {
          "length": 20,
          "start": 2608
        },
        {
          "length": 20,
          "start": 3671
        },
        {
          "length": 20,
          "start": 4341
        },
        {
          "length": 20,
          "start": 4634
        },
        {
          "length": 20,
          "start": 5870
        },
        {
          "length": 20,
          "start": 6370
        },
        {
          "length": 20,
          "start": 6569
        },
        {
          "length": 20,
          "start": 7675
        },
        {
          "length": 20,
          "start": 8163
        },
        {
          "length": 20,
          "start": 8507
        },
        {
          "length": 20,
          "start": 9985
        }
      ]
    }
  },
  "deployedLinkReferences": {
    "contracts/SolverLib.sol": {
      "SolverLib": [
        {
          "length": 20,
          "start": 1656
        },
        {
          "length": 20,
          "start": 2003
        },
        {
          "length": 20,
          "start": 2436
        },
        {
          "length": 20,
          "start": 2576
        },
        {
          "length": 20,
          "start": 3639
        },
        {
          "length": 20,
          "start": 4309
        },
        {
          "length": 20,
          "start": 4602
        },
        {
          "length": 20,
          "start": 5838
        },
        {
          "length": 20,
          "start": 6338
        },
        {
          "length": 20,
          "start": 6537
        },
        {
          "length": 20,
          "start": 7643
        },
        {
          "length": 20,
          "start": 8131
        },
        {
          "length": 20,
          "start": 8475
        },
        {
          "length": 20,
          "start": 9953
        }
      ]
    }
  }
}