{
  "_format": "hh-sol-artifact-1",
  "contractName": "BasicSolverV1",
  "sourceName": "contracts/BasicSolverV1.sol",
  "abi": [
    {
      "anonymous": false,
      "inputs": [
        {
          "indexed": false,
          "internalType": "address",
          "name": "chainChild",
          "type": "address"
        }
      ],
      "name": "DeployedChild",
      "type": "event"
    },
    {
      "anonymous": false,
      "inputs": [
        {
          "indexed": false,
          "internalType": "address",
          "name": "solver",
          "type": "address"
        },
        {
          "indexed": false,
          "internalType": "uint256",
          "name": "solveIndex",
          "type": "uint256"
        }
      ],
      "name": "PreparedSolve",
      "type": "event"
    },
    {
      "inputs": [
        {
          "internalType": "uint256",
          "name": "_slot",
          "type": "uint256"
        },
        {
          "internalType": "bytes",
          "name": "_data",
          "type": "bytes"
        }
      ],
      "name": "addData",
      "outputs": [],
      "stateMutability": "nonpayable",
      "type": "function"
    },
    {
      "inputs": [
        {
          "internalType": "uint256",
          "name": "_index",
          "type": "uint256"
        }
      ],
      "name": "addressFromChainIndex",
      "outputs": [
        {
          "internalType": "address",
          "name": "_address",
          "type": "address"
        }
      ],
      "stateMutability": "view",
      "type": "function"
    },
    {
      "inputs": [
        {
          "internalType": "uint256",
          "name": "_index",
          "type": "uint256"
        },
        {
          "internalType": "uint256[]",
          "name": "payouts",
          "type": "uint256[]"
        }
      ],
      "name": "arbitrate",
      "outputs": [],
      "stateMutability": "nonpayable",
      "type": "function"
    },
    {
      "inputs": [
        {
          "internalType": "uint256",
          "name": "_index",
          "type": "uint256"
        }
      ],
      "name": "arbitrateNull",
      "outputs": [],
      "stateMutability": "nonpayable",
      "type": "function"
    },
    {
      "inputs": [
        {
          "internalType": "uint256",
          "name": "_index",
          "type": "uint256"
        }
      ],
      "name": "arbitrationPending",
      "outputs": [],
      "stateMutability": "nonpayable",
      "type": "function"
    },
    {
      "inputs": [
        {
          "internalType": "uint256",
          "name": "_index",
          "type": "uint256"
        }
      ],
      "name": "arbitrationRequested",
      "outputs": [],
      "stateMutability": "nonpayable",
      "type": "function"
    },
    {
      "inputs": [],
      "name": "chainChild",
      "outputs": [
        {
          "internalType": "address",
          "name": "",
          "type": "address"
        }
      ],
      "stateMutability": "view",
      "type": "function"
    },
    {
      "inputs": [],
      "name": "chainIndex",
      "outputs": [
        {
          "internalType": "uint256",
          "name": "",
          "type": "uint256"
        }
      ],
      "stateMutability": "view",
      "type": "function"
    },
    {
      "inputs": [],
      "name": "chainParent",
      "outputs": [
        {
          "internalType": "address",
          "name": "",
          "type": "address"
        }
      ],
      "stateMutability": "view",
      "type": "function"
    },
    {
      "inputs": [
        {
          "internalType": "uint256",
          "name": "",
          "type": "uint256"
        }
      ],
      "name": "conditions",
      "outputs": [
        {
          "internalType": "contract IERC20",
          "name": "collateralToken",
          "type": "address"
        },
        {
          "internalType": "bytes32",
          "name": "questionId",
          "type": "bytes32"
        },
        {
          "internalType": "bytes32",
          "name": "parentCollectionId",
          "type": "bytes32"
        },
        {
          "internalType": "bytes32",
          "name": "conditionId",
          "type": "bytes32"
        },
        {
          "internalType": "enum SolverLib.Status",
          "name": "status",
          "type": "uint8"
        }
      ],
      "stateMutability": "view",
      "type": "function"
    },
    {
      "inputs": [],
      "name": "config",
      "outputs": [
        {
          "internalType": "contract Solver",
          "name": "implementation",
          "type": "address"
        },
        {
          "internalType": "address",
          "name": "keeper",
          "type": "address"
        },
        {
          "internalType": "address",
          "name": "arbitrator",
          "type": "address"
        },
        {
          "internalType": "uint256",
          "name": "timelockSeconds",
          "type": "uint256"
        },
        {
          "internalType": "bytes",
          "name": "data",
          "type": "bytes"
        },
        {
          "components": [
            {
              "internalType": "contract IERC20",
              "name": "collateralToken",
              "type": "address"
            },
            {
              "internalType": "uint256",
              "name": "outcomeSlots",
              "type": "uint256"
            },
            {
              "internalType": "uint256",
              "name": "parentCollectionIndexSet",
              "type": "uint256"
            },
            {
              "internalType": "uint256",
              "name": "amountSlot",
              "type": "uint256"
            },
            {
              "internalType": "uint256[]",
              "name": "partition",
              "type": "uint256[]"
            },
            {
              "internalType": "uint256[]",
              "name": "recipientAddressSlots",
              "type": "uint256[]"
            },
            {
              "internalType": "uint256[][]",
              "name": "recipientAmountSlots",
              "type": "uint256[][]"
            },
            {
              "components": [
                {
                  "internalType": "bytes32",
                  "name": "digest",
                  "type": "bytes32"
                },
                {
                  "internalType": "uint8",
                  "name": "hashFunction",
                  "type": "uint8"
                },
                {
                  "internalType": "uint8",
                  "name": "size",
                  "type": "uint8"
                }
              ],
              "internalType": "struct SolverLib.Multihash[]",
              "name": "outcomeURIs",
              "type": "tuple[]"
            }
          ],
          "internalType": "struct SolverLib.ConditionBase",
          "name": "conditionBase",
          "type": "tuple"
        }
      ],
      "stateMutability": "view",
      "type": "function"
    },
    {
      "inputs": [
        {
          "internalType": "uint256",
          "name": "_index",
          "type": "uint256"
        }
      ],
      "name": "confirmPayouts",
      "outputs": [],
      "stateMutability": "nonpayable",
      "type": "function"
    },
    {
      "inputs": [
        {
          "components": [
            {
              "internalType": "contract Solver",
              "name": "implementation",
              "type": "address"
            },
            {
              "internalType": "address",
              "name": "keeper",
              "type": "address"
            },
            {
              "internalType": "address",
              "name": "arbitrator",
              "type": "address"
            },
            {
              "internalType": "uint256",
              "name": "timelockSeconds",
              "type": "uint256"
            },
            {
              "internalType": "bytes",
              "name": "data",
              "type": "bytes"
            },
            {
              "components": [
                {
                  "internalType": "uint256",
                  "name": "executions",
                  "type": "uint256"
                },
                {
                  "internalType": "enum SolverLib.IngestType",
                  "name": "ingestType",
                  "type": "uint8"
                },
                {
                  "internalType": "uint256",
                  "name": "slot",
                  "type": "uint256"
                },
                {
                  "internalType": "uint256",
                  "name": "solverIndex",
                  "type": "uint256"
                },
                {
                  "internalType": "bytes",
                  "name": "data",
                  "type": "bytes"
                }
              ],
              "internalType": "struct SolverLib.Ingest[]",
              "name": "ingests",
              "type": "tuple[]"
            },
            {
              "components": [
                {
                  "internalType": "contract IERC20",
                  "name": "collateralToken",
                  "type": "address"
                },
                {
                  "internalType": "uint256",
                  "name": "outcomeSlots",
                  "type": "uint256"
                },
                {
                  "internalType": "uint256",
                  "name": "parentCollectionIndexSet",
                  "type": "uint256"
                },
                {
                  "internalType": "uint256",
                  "name": "amountSlot",
                  "type": "uint256"
                },
                {
                  "internalType": "uint256[]",
                  "name": "partition",
                  "type": "uint256[]"
                },
                {
                  "internalType": "uint256[]",
                  "name": "recipientAddressSlots",
                  "type": "uint256[]"
                },
                {
                  "internalType": "uint256[][]",
                  "name": "recipientAmountSlots",
                  "type": "uint256[][]"
                },
                {
                  "components": [
                    {
                      "internalType": "bytes32",
                      "name": "digest",
                      "type": "bytes32"
                    },
                    {
                      "internalType": "uint8",
                      "name": "hashFunction",
                      "type": "uint8"
                    },
                    {
                      "internalType": "uint8",
                      "name": "size",
                      "type": "uint8"
                    }
                  ],
                  "internalType": "struct SolverLib.Multihash[]",
                  "name": "outcomeURIs",
                  "type": "tuple[]"
                }
              ],
              "internalType": "struct SolverLib.ConditionBase",
              "name": "conditionBase",
              "type": "tuple"
            }
          ],
          "internalType": "struct SolverLib.Config",
          "name": "_config",
          "type": "tuple"
        }
      ],
      "name": "deployChild",
      "outputs": [
        {
          "internalType": "contract Solver",
          "name": "_solver",
          "type": "address"
        }
      ],
      "stateMutability": "nonpayable",
      "type": "function"
    },
    {
      "inputs": [
        {
          "internalType": "uint256",
          "name": "_index",
          "type": "uint256"
        }
      ],
      "name": "executeSolve",
      "outputs": [],
      "stateMutability": "nonpayable",
      "type": "function"
    },
    {
      "inputs": [
        {
          "internalType": "uint256",
          "name": "_slot",
          "type": "uint256"
        }
      ],
      "name": "getCallbackOutput",
      "outputs": [
        {
          "internalType": "bytes",
          "name": "data",
          "type": "bytes"
        }
      ],
      "stateMutability": "view",
      "type": "function"
    },
    {
      "inputs": [],
      "name": "getConditions",
      "outputs": [
        {
          "components": [
            {
              "internalType": "contract IERC20",
              "name": "collateralToken",
              "type": "address"
            },
            {
              "internalType": "bytes32",
              "name": "questionId",
              "type": "bytes32"
            },
            {
              "internalType": "bytes32",
              "name": "parentCollectionId",
              "type": "bytes32"
            },
            {
              "internalType": "bytes32",
              "name": "conditionId",
              "type": "bytes32"
            },
            {
              "internalType": "uint256[]",
              "name": "payouts",
              "type": "uint256[]"
            },
            {
              "internalType": "enum SolverLib.Status",
              "name": "status",
              "type": "uint8"
            }
          ],
          "internalType": "struct SolverLib.Condition[]",
          "name": "",
          "type": "tuple[]"
        }
      ],
      "stateMutability": "view",
      "type": "function"
    },
    {
      "inputs": [
        {
          "internalType": "uint256",
          "name": "_slot",
          "type": "uint256"
        }
      ],
      "name": "getData",
      "outputs": [
        {
          "internalType": "bytes",
          "name": "data",
          "type": "bytes"
        }
      ],
      "stateMutability": "view",
      "type": "function"
    },
    {
      "inputs": [
        {
          "internalType": "uint256",
          "name": "slot",
          "type": "uint256"
        }
      ],
      "name": "getOutgoingCallbacks",
      "outputs": [
        {
          "internalType": "address[]",
          "name": "",
          "type": "address[]"
        }
      ],
      "stateMutability": "view",
      "type": "function"
    },
    {
      "inputs": [
        {
          "internalType": "uint256",
          "name": "_slot",
          "type": "uint256"
        }
      ],
      "name": "handleCallback",
      "outputs": [],
      "stateMutability": "nonpayable",
      "type": "function"
    },
    {
      "inputs": [],
      "name": "ingestsValid",
      "outputs": [
        {
          "internalType": "bool",
          "name": "",
          "type": "bool"
        }
      ],
      "stateMutability": "view",
      "type": "function"
    },
    {
      "inputs": [
        {
          "internalType": "address",
          "name": "_chainParent",
          "type": "address"
        },
        {
          "internalType": "uint256",
          "name": "_chainIndex",
          "type": "uint256"
        },
        {
          "components": [
            {
              "internalType": "contract Solver",
              "name": "implementation",
              "type": "address"
            },
            {
              "internalType": "address",
              "name": "keeper",
              "type": "address"
            },
            {
              "internalType": "address",
              "name": "arbitrator",
              "type": "address"
            },
            {
              "internalType": "uint256",
              "name": "timelockSeconds",
              "type": "uint256"
            },
            {
              "internalType": "bytes",
              "name": "data",
              "type": "bytes"
            },
            {
              "components": [
                {
                  "internalType": "uint256",
                  "name": "executions",
                  "type": "uint256"
                },
                {
                  "internalType": "enum SolverLib.IngestType",
                  "name": "ingestType",
                  "type": "uint8"
                },
                {
                  "internalType": "uint256",
                  "name": "slot",
                  "type": "uint256"
                },
                {
                  "internalType": "uint256",
                  "name": "solverIndex",
                  "type": "uint256"
                },
                {
                  "internalType": "bytes",
                  "name": "data",
                  "type": "bytes"
                }
              ],
              "internalType": "struct SolverLib.Ingest[]",
              "name": "ingests",
              "type": "tuple[]"
            },
            {
              "components": [
                {
                  "internalType": "contract IERC20",
                  "name": "collateralToken",
                  "type": "address"
                },
                {
                  "internalType": "uint256",
                  "name": "outcomeSlots",
                  "type": "uint256"
                },
                {
                  "internalType": "uint256",
                  "name": "parentCollectionIndexSet",
                  "type": "uint256"
                },
                {
                  "internalType": "uint256",
                  "name": "amountSlot",
                  "type": "uint256"
                },
                {
                  "internalType": "uint256[]",
                  "name": "partition",
                  "type": "uint256[]"
                },
                {
                  "internalType": "uint256[]",
                  "name": "recipientAddressSlots",
                  "type": "uint256[]"
                },
                {
                  "internalType": "uint256[][]",
                  "name": "recipientAmountSlots",
                  "type": "uint256[][]"
                },
                {
                  "components": [
                    {
                      "internalType": "bytes32",
                      "name": "digest",
                      "type": "bytes32"
                    },
                    {
                      "internalType": "uint8",
                      "name": "hashFunction",
                      "type": "uint8"
                    },
                    {
                      "internalType": "uint8",
                      "name": "size",
                      "type": "uint8"
                    }
                  ],
                  "internalType": "struct SolverLib.Multihash[]",
                  "name": "outcomeURIs",
                  "type": "tuple[]"
                }
              ],
              "internalType": "struct SolverLib.ConditionBase",
              "name": "conditionBase",
              "type": "tuple"
            }
          ],
          "internalType": "struct SolverLib.Config",
          "name": "_solverConfig",
          "type": "tuple"
        }
      ],
      "name": "init",
      "outputs": [],
      "stateMutability": "nonpayable",
      "type": "function"
    },
    {
      "inputs": [
        {
          "internalType": "address",
          "name": "operator",
          "type": "address"
        },
        {
          "internalType": "address",
          "name": "from",
          "type": "address"
        },
        {
          "internalType": "uint256[]",
          "name": "ids",
          "type": "uint256[]"
        },
        {
          "internalType": "uint256[]",
          "name": "values",
          "type": "uint256[]"
        },
        {
          "internalType": "bytes",
          "name": "data",
          "type": "bytes"
        }
      ],
      "name": "onERC1155BatchReceived",
      "outputs": [
        {
          "internalType": "bytes4",
          "name": "",
          "type": "bytes4"
        }
      ],
      "stateMutability": "nonpayable",
      "type": "function"
    },
    {
      "inputs": [
        {
          "internalType": "address",
          "name": "operator",
          "type": "address"
        },
        {
          "internalType": "address",
          "name": "from",
          "type": "address"
        },
        {
          "internalType": "uint256",
          "name": "id",
          "type": "uint256"
        },
        {
          "internalType": "uint256",
          "name": "value",
          "type": "uint256"
        },
        {
          "internalType": "bytes",
          "name": "data",
          "type": "bytes"
        }
      ],
      "name": "onERC1155Received",
      "outputs": [
        {
          "internalType": "bytes4",
          "name": "",
          "type": "bytes4"
        }
      ],
      "stateMutability": "nonpayable",
      "type": "function"
    },
    {
      "inputs": [
        {
          "internalType": "uint256",
          "name": "x",
          "type": "uint256"
        },
        {
          "internalType": "uint256",
          "name": "y",
          "type": "uint256"
        },
        {
          "internalType": "uint128",
          "name": "scale",
          "type": "uint128"
        }
      ],
      "name": "percentage",
      "outputs": [
        {
          "internalType": "uint256",
          "name": "",
          "type": "uint256"
        }
      ],
      "stateMutability": "pure",
      "type": "function"
    },
    {
      "inputs": [
        {
          "internalType": "uint256",
          "name": "_index",
          "type": "uint256"
        }
      ],
      "name": "prepareSolve",
      "outputs": [],
      "stateMutability": "nonpayable",
      "type": "function"
    },
    {
      "inputs": [
        {
          "internalType": "uint256",
          "name": "_index",
          "type": "uint256"
        },
        {
          "internalType": "uint256[]",
          "name": "_payouts",
          "type": "uint256[]"
        }
      ],
      "name": "proposePayouts",
      "outputs": [],
      "stateMutability": "nonpayable",
      "type": "function"
    },
    {
      "inputs": [
        {
          "internalType": "contract IERC20",
          "name": "_collateralToken",
          "type": "address"
        },
        {
          "internalType": "bytes32",
          "name": "_parentCollectionId",
          "type": "bytes32"
        },
        {
          "internalType": "bytes32",
          "name": "_conditionId",
          "type": "bytes32"
        },
        {
          "internalType": "uint256[]",
          "name": "_indexSets",
          "type": "uint256[]"
        }
      ],
      "name": "redeemPosition",
      "outputs": [],
      "stateMutability": "nonpayable",
      "type": "function"
    },
    {
      "inputs": [
        {
          "internalType": "uint256",
          "name": "_slot",
          "type": "uint256"
        },
        {
          "internalType": "uint256",
          "name": "_chainIndex",
          "type": "uint256"
        }
      ],
      "name": "registerOutgoingCallback",
      "outputs": [],
      "stateMutability": "nonpayable",
      "type": "function"
    },
    {
      "inputs": [
        {
          "internalType": "bytes32",
          "name": "_trackingId",
          "type": "bytes32"
        }
      ],
      "name": "setTrackingId",
      "outputs": [],
      "stateMutability": "nonpayable",
      "type": "function"
    },
    {
      "inputs": [
        {
          "internalType": "bytes4",
          "name": "interfaceId",
          "type": "bytes4"
        }
      ],
      "name": "supportsInterface",
      "outputs": [
        {
          "internalType": "bool",
          "name": "",
          "type": "bool"
        }
      ],
      "stateMutability": "view",
      "type": "function"
    },
    {
      "inputs": [
        {
          "internalType": "uint256",
          "name": "",
          "type": "uint256"
        }
      ],
      "name": "timelocks",
      "outputs": [
        {
          "internalType": "uint256",
          "name": "",
          "type": "uint256"
        }
      ],
      "stateMutability": "view",
      "type": "function"
    },
    {
      "inputs": [],
      "name": "trackingId",
      "outputs": [
        {
          "internalType": "bytes32",
          "name": "",
          "type": "bytes32"
        }
      ],
      "stateMutability": "view",
      "type": "function"
    },
    {
      "inputs": [],
      "name": "uiURI",
      "outputs": [
        {
          "internalType": "bytes32",
          "name": "digest",
          "type": "bytes32"
        },
        {
          "internalType": "uint8",
          "name": "hashFunction",
          "type": "uint8"
        },
        {
          "internalType": "uint8",
          "name": "size",
          "type": "uint8"
        }
      ],
      "stateMutability": "view",
      "type": "function"
    }
  ],
  "bytecode": "0x608060405234801561001057600080fd5b5061507f806100206000396000f3fe608060405234801561001057600080fd5b506004361061020b5760003560e01c80634dd828801161012a57806387dfee57116100bd578063b992db0f1161008c578063d8b6231611610071578063d8b6231614610495578063ea8221a9146104a8578063f23a6e61146104b05761020b565b8063b992db0f14610462578063bc197c81146104755761020b565b806387dfee57146104215780639999250614610434578063a072d7b01461043c578063a5682cb01461044f5761020b565b80637c123627116100f95780637c123627146103de57806380b204b7146103f357806380c2dde21461040657806387c0b3741461040e5761020b565b80634dd82880146103965780634e46f223146103a957806355dd978b146103bc57806379502c55146103c45761020b565b8063341f6e3e116101a257806348cbb2fc1161017157806348cbb2fc14610355578063499f5af31461035d5780634a77234e146103705780634dab5e69146103835761020b565b8063341f6e3e146102eb57806336fcf48c146102fe5780633837b05e146103155780633ee8b674146103355761020b565b80630d7e149f116101de5780630d7e149f146102815780630d8d3975146102a157806318782559146102b457806326c50007146102c75761020b565b80630178fe3f1461021057806301ffc9a71461023957806307c068b6146102595780630d06101a1461026e575b600080fd5b61022361021e366004612f50565b6104c3565b6040516102309190613b95565b60405180910390f35b61024c610247366004612f68565b610565565b6040516102309190613b53565b61026c610267366004612f50565b6105ab565b005b61026c61027c366004612f50565b6106f4565b61029461028f366004612f50565b610719565b6040516102309190613b5e565b61026c6102af366004612f50565b61073a565b61026c6102c2366004613003565b610891565b6102da6102d5366004612f50565b61094c565b604051610230959493929190613be2565b6102946102f93660046132fb565b61099a565b610306610ac7565b60405161023093929190613b67565b610328610323366004612f50565b610adc565b60405161023091906138d6565b610348610343366004612f50565b610c0a565b6040516102309190613949565b610294610c75565b61026c61036b366004612ed9565b610c7b565b61026c61037e366004612f50565b610d8e565b61026c610391366004612f50565b611095565b6102236103a4366004612f50565b61116f565b61026c6103b7366004612f50565b6111ba565b610328611294565b6103cc6112a3565b60405161023096959493929190613c15565b6103e661155f565b6040516102309190613996565b61026c610401366004613175565b61168e565b6103286117d4565b61026c61041c3660046132da565b6117e3565b61026c61042f3660046131bf565b6118ee565b61024c611a72565b61026c61044a366004612f50565b611b1f565b61032861045d36600461312a565b611e71565b61026c610470366004612f50565b611fcb565b610488610483366004612d6b565b6122e6565b6040516102309190613b80565b61026c6104a336600461325b565b612313565b610294612369565b6104886104be366004612e26565b61236f565b6000818152601b602052604090208054606091906104e090614ab9565b80601f016020809104026020016040519081016040528092919081815260200182805461050c90614ab9565b80156105595780601f1061052e57610100808354040283529160200191610559565b820191906000526020600020905b81548152906001019060200180831161053c57829003601f168201915b50505050509050919050565b60006001600160e01b031982167f4e2312e00000000000000000000000000000000000000000000000000000000014806105a357506105a38261239b565b90505b919050565b6005546001600160a01b031633146105de5760405162461bcd60e51b81526004016105d590613fe8565b60405180910390fd5b60036011828154811061060157634e487b7160e01b600052603260045260246000fd5b600091825260209091206006918202016005015460ff169081111561063657634e487b7160e01b600052602160045260246000fd5b146106535760405162461bcd60e51b81526004016105d590613f1d565b73__$94d7d2f22770e4b0d1a2b99fb2812308e2$__63ec7ac2f06011838154811061068e57634e487b7160e01b600052603260045260246000fd5b90600052602060002090600602016040518263ffffffff1660e01b81526004016106b89190613b5e565b60006040518083038186803b1580156106d057600080fd5b505af41580156106e4573d6000803e3d6000fd5b505050506106f1816123cd565b50565b601654156107145760405162461bcd60e51b81526004016105d5906141d3565b601655565b6015818154811061072957600080fd5b600091825260209091200154905081565b6015818154811061075b57634e487b7160e01b600052603260045260246000fd5b906000526020600020015442116107845760405162461bcd60e51b81526004016105d590613eaf565b6002601182815481106107a757634e487b7160e01b600052603260045260246000fd5b600091825260209091206006918202016005015460ff16908111156107dc57634e487b7160e01b600052602160045260246000fd5b146107f95760405162461bcd60e51b81526004016105d590614056565b73__$94d7d2f22770e4b0d1a2b99fb2812308e2$__63696d46616011838154811061083457634e487b7160e01b600052603260045260246000fd5b90600052602060002090600602016040518263ffffffff1660e01b815260040161085e9190613b5e565b60006040518083038186803b15801561087657600080fd5b505af415801561088a573d6000803e3d6000fd5b5050505050565b6004546001600160a01b031633146108bb5760405162461bcd60e51b81526004016105d590613e78565b6040517f01b7037c000000000000000000000000000000000000000000000000000000008152735fbdb2315678afecb367f032d93f642f64180aa3906301b7037c906109139088908890889088908890600401613ba8565b600060405180830381600087803b15801561092d57600080fd5b505af1158015610941573d6000803e3d6000fd5b505050505050505050565b6011818154811061095c57600080fd5b6000918252602090912060069091020180546001820154600283015460038401546005909401546001600160a01b0390931694509092909160ff1685565b60405163ddc2f15560e01b815260009073__$94d7d2f22770e4b0d1a2b99fb2812308e2$__9063ddc2f155906109d99087906064908790600401614472565b60206040518083038186803b1580156109f157600080fd5b505af4158015610a05573d6000803e3d6000fd5b505050506040513d601f19601f82011682018060405250810190610a29919061315d565b60405163ddc2f15560e01b815273__$94d7d2f22770e4b0d1a2b99fb2812308e2$__9063ddc2f15590610a659087906064908890600401614472565b60206040518083038186803b158015610a7d57600080fd5b505af4158015610a91573d6000803e3d6000fd5b505050506040513d601f19601f82011682018060405250810190610ab5919061315d565b610abf91906147e1565b949350505050565b60015460025460ff8082169161010090041683565b6000601454821415610aef5750306105a6565b601454821015610b8057601254604051631c1bd82f60e11b81526001600160a01b0390911690633837b05e90610b29908590600401613b5e565b60206040518083038186803b158015610b4157600080fd5b505afa158015610b55573d6000803e3d6000fd5b505050506040513d601f19601f82011682018060405250810190610b799190612d4f565b90506105a6565b6014548211156105a657601354604051631c1bd82f60e11b81526001600160a01b0390911690633837b05e90610bba908590600401613b5e565b60206040518083038186803b158015610bd257600080fd5b505afa158015610be6573d6000803e3d6000fd5b505050506040513d601f19601f820116820180604052508101906105a39190612d4f565b60008181526019602090815260409182902080548351818402810184019094528084526060939283018282801561055957602002820191906000526020600020905b81546001600160a01b03168152600190910190602001808311610c4c5750505050509050919050565b60165481565b600054610100900460ff1680610c94575060005460ff16155b610cb05760405162461bcd60e51b81526004016105d590613f54565b600054610100900460ff16158015610cdb576000805460ff1961ff0019909116610100171660011790555b3373e7f1725e7734ce288f8367e1bb143e90bb3f051214610d0e5760405162461bcd60e51b81526004016105d590613e41565b6000610d206040840160208501612d2c565b6001600160a01b03161415610d475760405162461bcd60e51b81526004016105d59061401f565b601280546001600160a01b0319166001600160a01b0386161790556014839055816003610d748282614d51565b50508015610d88576000805461ff00191690555b50505050565b60115415610dd5576004546001600160a01b0316331480610db957506012546001600160a01b031633145b610dd55760405162461bcd60e51b81526004016105d59061419c565b6011548114610df65760405162461bcd60e51b81526004016105d590613e0a565b60185415610e165760405162461bcd60e51b81526004016105d5906140c4565b60175415610e365760405162461bcd60e51b81526004016105d5906140f9565b601254601180546040517f62dae736000000000000000000000000000000000000000000000000000000008152919273__$94d7d2f22770e4b0d1a2b99fb2812308e2$__926362dae73692610e9d926009926001600160a01b0390911691906004016142af565b60006040518083038186803b158015610eb557600080fd5b505af4158015610ec9573d6000803e3d6000fd5b505050506040513d6000823e601f3d908101601f19168201604052610ef1919081019061306b565b8154600180820184556000938452602093849020835160069093020180546001600160a01b0319166001600160a01b03909316929092178255828401519082015560408201516002820155606082015160038201556080820151805192939192610f619260048501920190612b28565b5060a082015160058201805460ff19166001836006811115610f9357634e487b7160e01b600052602160045260246000fd5b0217905550506015805460018101825560009182527f55f448fdea98c4d29eb340757ef0a66cd03dbb9538908a6a81d96026b71ec475015550610fd4612415565b7f152ec8ae15d347b2d2a8f0858caa29bcaaa0906749a1f43e08bfe799834602403082604051611005929190613930565b60405180910390a16013546001600160a01b0316156106f1576013546040517f4a77234e0000000000000000000000000000000000000000000000000000000081526001600160a01b0390911690634a77234e90611067908490600401613b5e565b600060405180830381600087803b15801561108157600080fd5b505af115801561088a573d6000803e3d6000fd5b6005546001600160a01b031633146110bf5760405162461bcd60e51b81526004016105d590613fe8565b6002601182815481106110e257634e487b7160e01b600052603260045260246000fd5b600091825260209091206006918202016005015460ff169081111561111757634e487b7160e01b600052602160045260246000fd5b146111345760405162461bcd60e51b81526004016105d59061408d565b73__$94d7d2f22770e4b0d1a2b99fb2812308e2$__6324b286026011838154811061068e57634e487b7160e01b600052603260045260246000fd5b6011546000828152601c6020526040902054606091146111a15760405162461bcd60e51b81526004016105d590613fb1565b6000828152601b6020526040902080546104e090614ab9565b6005546001600160a01b031633146111e45760405162461bcd60e51b81526004016105d590613fe8565b60046011828154811061120757634e487b7160e01b600052603260045260246000fd5b600091825260209091206006918202016005015460ff169081111561123c57634e487b7160e01b600052602160045260246000fd5b146112595760405162461bcd60e51b81526004016105d59061412e565b73__$94d7d2f22770e4b0d1a2b99fb2812308e2$__6359111fb56011838154811061068e57634e487b7160e01b600052603260045260246000fd5b6013546001600160a01b031681565b60038054600454600554600654600780546001600160a01b0395861696948616959093169391926112d390614ab9565b80601f01602080910402602001604051908101604052809291908181526020018280546112ff90614ab9565b801561134c5780601f106113215761010080835404028352916020019161134c565b820191906000526020600020905b81548152906001019060200180831161132f57829003601f168201915b505060408051610100810182526006870180546001600160a01b03168252600788015460208084019190915260088901548385015260098901546060840152600a890180548551818402810184019096528086529899989397509195506080870194509091908301828280156113e157602002820191906000526020600020905b8154815260200190600101908083116113cd575b505050505081526020016005820180548060200260200160405190810160405280929190818152602001828054801561143957602002820191906000526020600020905b815481526020019060010190808311611425575b5050505050815260200160068201805480602002602001604051908101604052809291908181526020016000905b828210156114d3576000848152602090819020830180546040805182850281018501909152818152928301828280156114bf57602002820191906000526020600020905b8154815260200190600101908083116114ab575b505050505081526020019060010190611467565b50505050815260200160078201805480602002602001604051908101604052809291908181526020016000905b8282101561155257600084815260209081902060408051606081018252600286029092018054835260019081015460ff8082168587015261010090910416918301919091529083529092019101611500565b5050505081525050905086565b60606011805480602002602001604051908101604052809291908181526020016000905b828210156116855760008481526020908190206040805160c0810182526006860290920180546001600160a01b03168352600181015483850152600281015483830152600381015460608401526004810180548351818702810187019094528084529394919360808601939283018282801561161e57602002820191906000526020600020905b81548152602001906001019080831161160a575b5050509183525050600582015460209091019060ff16600681111561165357634e487b7160e01b600052602160045260246000fd5b600681111561167257634e487b7160e01b600052602160045260246000fd5b8152505081526020019060010190611583565b50505050905090565b6004546001600160a01b031633146116b85760405162461bcd60e51b81526004016105d590613e78565b6001601184815481106116db57634e487b7160e01b600052603260045260246000fd5b600091825260209091206006918202016005015460ff169081111561171057634e487b7160e01b600052602160045260246000fd5b1461172d5760405162461bcd60e51b81526004016105d590613d9c565b73__$94d7d2f22770e4b0d1a2b99fb2812308e2$__636a0a24f16011858154811061176857634e487b7160e01b600052603260045260246000fd5b906000526020600020906006020184846040518463ffffffff1660e01b8152600401611796939291906142dd565b60006040518083038186803b1580156117ae57600080fd5b505af41580156117c2573d6000803e3d6000fd5b505050506117cf836123cd565b505050565b6012546001600160a01b031681565b6117ec81610adc565b6001600160a01b0316336001600160a01b03161461181c5760405162461bcd60e51b81526004016105d590613dd3565b6000828152601c60205260409020541580159061184857506011546000838152601c6020526040902054145b156118a757604051630a072d7b60e41b8152339063a072d7b090611870908590600401613b5e565b600060405180830381600087803b15801561188a57600080fd5b505af115801561189e573d6000803e3d6000fd5b505050506118ea565b6000828152601960209081526040822080546001810182559083529082200180546001600160a01b0319163317905560188054916118e483614b01565b91905055505b5050565b6005546001600160a01b031633146119185760405162461bcd60e51b81526004016105d590613fe8565b60046011838154811061193b57634e487b7160e01b600052603260045260246000fd5b600091825260209091206006918202016005015460ff169081111561197057634e487b7160e01b600052602160045260246000fd5b1461198d5760405162461bcd60e51b81526004016105d59061412e565b601582815481106119ae57634e487b7160e01b600052603260045260246000fd5b906000526020600020015442116119d75760405162461bcd60e51b81526004016105d590613eaf565b73__$94d7d2f22770e4b0d1a2b99fb2812308e2$__6311ca1ac060118481548110611a1257634e487b7160e01b600052603260045260246000fd5b9060005260206000209060060201836040518363ffffffff1660e01b8152600401611a3e9291906142f7565b60006040518083038186803b158015611a5657600080fd5b505af4158015611a6a573d6000803e3d6000fd5b505050505050565b6011546040517f5cc1f6b500000000000000000000000000000000000000000000000000000000815260009173__$94d7d2f22770e4b0d1a2b99fb2812308e2$__91635cc1f6b591611aca9160089190600401613a48565b60206040518083038186803b158015611ae257600080fd5b505af4158015611af6573d6000803e3d6000fd5b505050506040513d601f19601f82011682018060405250810190611b1a9190612f30565b905090565b60003382604051602001611b349291906138b4565b60408051601f1981840301815291815281516020928301206000818152601a90935291205460088054929350611b9a929091908110611b8357634e487b7160e01b600052603260045260246000fd5b906000526020600020906005020160030154610adc565b6001600160a01b0316336001600160a01b031614611bca5760405162461bcd60e51b81526004016105d590613dd3565b6000818152601a6020526040812054600880549091908110611bfc57634e487b7160e01b600052603260045260246000fd5b600091825260209091206001600590920201015460ff166002811115611c3257634e487b7160e01b600052602160045260246000fd5b14611c4f5760405162461bcd60e51b81526004016105d590613d2e565b6000818152601a6020526040902054600880549091908110611c8157634e487b7160e01b600052603260045260246000fd5b600091825260208220600590910201805491611c9c83614b01565b90915550506000818152601a602052604090205460088054611e5292908110611cd557634e487b7160e01b600052603260045260246000fd5b906000526020600020906005020160020154336001600160a01b0316634dd828806003600501601760030160008781526020019081526020016000205481548110611d3057634e487b7160e01b600052603260045260246000fd5b90600052602060002090600502016004018054611d4c90614ab9565b80601f0160208091040260200160405190810160405280929190818152602001828054611d7890614ab9565b8015611dc55780601f10611d9a57610100808354040283529160200191611dc5565b820191906000526020600020905b815481529060010190602001808311611da857829003601f168201915b5050505050806020019051810190611ddd919061315d565b6040518263ffffffff1660e01b8152600401611df99190613b5e565b60006040518083038186803b158015611e1157600080fd5b505afa158015611e25573d6000803e3d6000fd5b505050506040513d6000823e601f3d908101601f19168201604052611e4d9190810190612f90565b6126c5565b6000818152601a6020526040812081905560178054916118e483614aa2565b6004546000906001600160a01b03163314611e9e5760405162461bcd60e51b81526004016105d590614165565b6013546001600160a01b031615611ec75760405162461bcd60e51b81526004016105d590613d65565b6014546040517f4dd0aa4900000000000000000000000000000000000000000000000000000000815273__$94d7d2f22770e4b0d1a2b99fb2812308e2$__91634dd0aa4991611f1d918691309190600401614383565b604080518083038186803b158015611f3457600080fd5b505af4158015611f48573d6000803e3d6000fd5b505050506040513d601f19601f82011682018060405250810190611f6c9190612ea0565b601380546001600160a01b0319166001600160a01b0393841617908190556040519193507fbd2e7fbdc9b1c19997e58c63e6ea1b5a02acd8dd9fd5d76f4bb18634f7155e8092611fbe929116906138d6565b60405180910390a1919050565b600060118281548110611fee57634e487b7160e01b600052603260045260246000fd5b600091825260209091206006918202016005015460ff169081111561202357634e487b7160e01b600052602160045260246000fd5b146120405760405162461bcd60e51b81526004016105d590614278565b612048611a72565b15156001146120695760405162461bcd60e51b81526004016105d590613ee6565b60016011828154811061208c57634e487b7160e01b600052603260045260246000fd5b906000526020600020906006020160050160006101000a81548160ff021916908360068111156120cc57634e487b7160e01b600052602160045260246000fd5b02179055506012546011805473__$94d7d2f22770e4b0d1a2b99fb2812308e2$__92631e85323f926001600160a01b0390911691600991908690811061212257634e487b7160e01b600052603260045260246000fd5b60009182526020808320600c548452601b909152604090922080546006909202909201919061215090614ab9565b80601f016020809104026020016040519081016040528092919081815260200182805461217c90614ab9565b80156121c95780601f1061219e576101008083540402835291602001916121c9565b820191906000526020600020905b8154815290600101906020018083116121ac57829003601f168201915b50505050508060200190518101906121e1919061315d565b6040518563ffffffff1660e01b815260040161220094939291906138ea565b60006040518083038186803b15801561221857600080fd5b505af415801561222c573d6000803e3d6000fd5b5050505073__$94d7d2f22770e4b0d1a2b99fb2812308e2$__63366968286011838154811061226b57634e487b7160e01b600052603260045260246000fd5b9060005260206000209060060201600360060130601b6016546040518663ffffffff1660e01b81526004016122a4959493929190614337565b60006040518083038186803b1580156122bc57600080fd5b505af41580156122d0573d6000803e3d6000fd5b505050506122dd816106f1565b6106f181612748565b7fbc197c810000000000000000000000000000000000000000000000000000000098975050505050505050565b6004546001600160a01b0316331461233d5760405162461bcd60e51b81526004016105d590613cf7565b60085482101561235f5760405162461bcd60e51b81526004016105d59061420a565b6118ea82826126c5565b60145481565b7ff23a6e61000000000000000000000000000000000000000000000000000000005b9695505050505050565b6001600160e01b031981167f01ffc9a70000000000000000000000000000000000000000000000000000000014919050565b6006546123db906001614801565b6123e590426147c9565b6015828154811061240657634e487b7160e01b600052603260045260246000fd5b60009182526020909120015550565b60005b6008548110156106f1576000600880548390811061244657634e487b7160e01b600052603260045260246000fd5b600091825260209091206001600590920201015460ff16600281111561247c57634e487b7160e01b600052602160045260246000fd5b146124c0576124bb600360050182815481106124a857634e487b7160e01b600052603260045260246000fd5b9060005260206000209060050201612831565b6126b3565b6000306001600160a01b0316633837b05e600360050184815481106124f557634e487b7160e01b600052603260045260246000fd5b9060005260206000209060050201600301546040518263ffffffff1660e01b81526004016125239190613b5e565b60206040518083038186803b15801561253b57600080fd5b505afa15801561254f573d6000803e3d6000fd5b505050506040513d601f19601f820116820180604052508101906125739190612d4f565b905061257f818361289c565b806001600160a01b03166387c0b374600360050184815481106125b257634e487b7160e01b600052603260045260246000fd5b906000526020600020906005020160040180546125ce90614ab9565b80601f01602080910402602001604051908101604052809291908181526020018280546125fa90614ab9565b80156126475780601f1061261c57610100808354040283529160200191612647565b820191906000526020600020905b81548152906001019060200180831161262a57829003601f168201915b505050505080602001905181019061265f919061315d565b6014546040518363ffffffff1660e01b815260040161267f92919061449a565b600060405180830381600087803b15801561269957600080fd5b505af11580156126ad573d6000803e3d6000fd5b50505050505b806126bd81614b01565b915050612418565b6011546126d490600190614820565b6000838152601c6020526040902054146127005760405162461bcd60e51b81526004016105d590614241565b6000828152601c6020526040812080549161271a83614b01565b90915550506000828152601b60209081526040909120825161273e92840190612b73565b506118ea826129c0565b6013546001600160a01b0316158015906127e35750601360009054906101000a90046001600160a01b03166001600160a01b031663999925066040518163ffffffff1660e01b815260040160206040518083038186803b1580156127ab57600080fd5b505afa1580156127bf573d6000803e3d6000fd5b505050506040513d601f19601f820116820180604052508101906127e39190612f30565b156106f1576013546040517fb992db0f0000000000000000000000000000000000000000000000000000000081526001600160a01b039091169063b992db0f90611067908490600401613b5e565b6106f1816002015473__$94d7d2f22770e4b0d1a2b99fb2812308e2$__63b3d73707846040518263ffffffff1660e01b81526004016128709190613b5e565b60006040518083038186803b15801561288857600080fd5b505af4158015611e25573d6000803e3d6000fd5b806017600301600084600360050185815481106128c957634e487b7160e01b600052603260045260246000fd5b906000526020600020906005020160040180546128e590614ab9565b80601f016020809104026020016040519081016040528092919081815260200182805461291190614ab9565b801561295e5780601f106129335761010080835404028352916020019161295e565b820191906000526020600020905b81548152906001019060200180831161294157829003601f168201915b5050505050806020019051810190612976919061315d565b6040516020016129879291906138b4565b60408051601f1981840301815291815281516020928301208352908201929092520160009081209190915560178054916118e483614b01565b60005b6000828152601960205260409020548110156118ea576000828152601960205260408120805483908110612a0757634e487b7160e01b600052603260045260246000fd5b6000918252602090912001546001600160a01b031614612b16576000828152601960205260409020805482908110612a4f57634e487b7160e01b600052603260045260246000fd5b600091825260209091200154604051630a072d7b60e41b81526001600160a01b039091169063a072d7b090612a88908590600401613b5e565b600060405180830381600087803b158015612aa257600080fd5b505af1158015612ab6573d6000803e3d6000fd5b5050506000838152601960205260409020805490915082908110612aea57634e487b7160e01b600052603260045260246000fd5b6000918252602082200180546001600160a01b03191690556018805491612b1083614aa2565b91905055505b80612b2081614b01565b9150506129c3565b828054828255906000526020600020908101928215612b63579160200282015b82811115612b63578251825591602001919060010190612b48565b50612b6f929150612be6565b5090565b828054612b7f90614ab9565b90600052602060002090601f016020900481019282612ba15760008555612b63565b82601f10612bba57805160ff1916838001178555612b63565b82800160010185558215612b635791820182811115612b63578251825591602001919060010190612b48565b5b80821115612b6f5760008155600101612be7565b80356105a681615018565b60008083601f840112612c17578182fd5b50813567ffffffffffffffff811115612c2e578182fd5b6020830191508360208083028501011115612c4857600080fd5b9250929050565b600082601f830112612c5f578081fd5b81516020612c74612c6f836145d9565b6145af565b8281528181019085830183850287018401881015612c90578586fd5b855b85811015612cae57815184529284019290840190600101612c92565b5090979650505050505050565b60008083601f840112612ccc578182fd5b50813567ffffffffffffffff811115612ce3578182fd5b602083019150836020828501011115612c4857600080fd5b80516105a681615018565b8051600781106105a657600080fd5b600060e08284031215612d26578081fd5b50919050565b600060208284031215612d3d578081fd5b8135612d4881615018565b9392505050565b600060208284031215612d60578081fd5b8151612d4881615018565b60008060008060008060008060a0898b031215612d86578384fd5b8835612d9181615018565b97506020890135612da181615018565b9650604089013567ffffffffffffffff80821115612dbd578586fd5b612dc98c838d01612c06565b909850965060608b0135915080821115612de1578586fd5b612ded8c838d01612c06565b909650945060808b0135915080821115612e05578384fd5b50612e128b828c01612cbb565b999c989b5096995094979396929594505050565b60008060008060008060a08789031215612e3e578384fd5b8635612e4981615018565b95506020870135612e5981615018565b94506040870135935060608701359250608087013567ffffffffffffffff811115612e82578283fd5b612e8e89828a01612cbb565b979a9699509497509295939492505050565b60008060408385031215612eb2578182fd5b8251612ebd81615018565b6020840151909250612ece81615018565b809150509250929050565b600080600060608486031215612eed578081fd5b8335612ef881615018565b925060208401359150604084013567ffffffffffffffff811115612f1a578182fd5b612f2686828701612d15565b9150509250925092565b600060208284031215612f41578081fd5b81518015158114612d48578182fd5b600060208284031215612f61578081fd5b5035919050565b600060208284031215612f79578081fd5b81356001600160e01b031981168114612d48578182fd5b600060208284031215612fa1578081fd5b815167ffffffffffffffff811115612fb7578182fd5b8201601f81018413612fc7578182fd5b8051612fd5612c6f826145fd565b818152856020838501011115612fe9578384fd5b612ffa826020830160208601614a76565b95945050505050565b60008060008060006080868803121561301a578283fd5b853561302581615018565b94506020860135935060408601359250606086013567ffffffffffffffff81111561304e578182fd5b61305a88828901612c06565b969995985093965092949392505050565b60006020828403121561307c578081fd5b815167ffffffffffffffff80821115613093578283fd5b9083019060c082860312156130a6578283fd5b60405160c0810181811083821117156130c1576130c1614b5e565b6040526130cd83612cfb565b81526020830151602082015260408301516040820152606083015160608201526080830151828111156130fe578485fd5b61310a87828601612c4f565b60808301525061311c60a08401612d06565b60a082015295945050505050565b60006020828403121561313b578081fd5b813567ffffffffffffffff811115613151578182fd5b610abf84828501612d15565b60006020828403121561316e578081fd5b5051919050565b600080600060408486031215613189578081fd5b83359250602084013567ffffffffffffffff8111156131a6578182fd5b6131b286828701612c06565b9497909650939450505050565b600080604083850312156131d1578182fd5b8235915060208084013567ffffffffffffffff8111156131ef578283fd5b8401601f810186136131ff578283fd5b803561320d612c6f826145d9565b81815283810190838501858402850186018a1015613229578687fd5b8694505b8385101561324b57803583526001949094019391850191850161322d565b5080955050505050509250929050565b6000806040838503121561326d578182fd5b82359150602083013567ffffffffffffffff81111561328a578182fd5b8301601f8101851361329a578182fd5b80356132a8612c6f826145fd565b8181528660208385010111156132bc578384fd5b81602084016020830137908101602001929092525090939092509050565b600080604083850312156132ec578182fd5b50508035926020909101359150565b60008060006060848603121561330f578081fd5b833592506020840135915060408401356fffffffffffffffffffffffffffffffff8116811461333c578182fd5b809150509250925092565b6001600160a01b03169052565b818352602080840193600091908185020181018584845b878110156133a157828403895261338282886146d6565b61338d8682846135df565b9a87019a955050509084019060010161336b565b5091979650505050505050565b6000815180845260208085018081965082840281019150828601855b858110156133a15782840389526133e284835161362c565b988501989350908401906001016133ca565b6000815480845260208085018081965082840281019150858552828520855b858110156133a157828403895261342a848361365b565b98850198935060019182019101613413565b818352602080840193600091908185020181018584845b878110156133a15782840389528135609e19883603018112613473578687fd5b87018035855260a0868201356134888161502d565b613494888801826136e3565b50604082810135908701526060808301359087015260806134b781840184614766565b935082828901526134cb838901858361368d565b9c89019c97505050928601925050600101613453565b60008284526020808501945082825b8581101561353a5781358752828201356135098161503a565b60ff90811688850152604090838201356135228161503a565b169088015260609687019691909101906001016134f0565b509495945050505050565b6000815180845260208085019450808401835b8381101561353a578151805188528381015160ff908116858a0152604091820151169088015260609096019590820190600101613558565b6000815480845260208085019450838352808320835b8381101561353a578154875260018083015460ff808216868b015260089190911c166040890152606090970196600290920191016135a6565b60008284527f07ffffffffffffffffffffffffffffffffffffffffffffffffffffffffffffff831115613610578081fd5b6020830280836020870137939093016020019283525090919050565b6000815180845260208085019450808401835b8381101561353a5781518752958201959082019060010161363f565b6000815480845260208085019450838352808320835b8381101561353a57815487529582019560019182019101613671565b60008284528282602086013780602084860101526020601f19601f85011685010190509392505050565b600081518084526136cf816020860160208601614a76565b601f01601f19169290920160200192915050565b600381106136f3576136f3614b48565b9052565b600781106136f3576136f3614b48565b600061010061371e8461371985612bfb565b613347565b60208301356020850152604083013560408501526060830135606085015261374960808401846146d6565b82608087015261375c83870182846135df565b9250505061376d60a08401846146d6565b85830360a08701526137808382846135df565b9250505061379160c08401846146d6565b85830360c08701526137a4838284613354565b925050506137b560e084018461471e565b85830360e08701526123918382846134e1565b60006101006137db846137198554614837565b60018301546020850152600283015460408501526003830154606085015280608085015261380e8185016004850161365b565b905083810360a0850152613825816005850161365b565b905083810360c085015261383c81600685016133f4565b905083810360e0850152610abf8160078501613590565b60006001600160a01b03825416835260018201546020840152600282015460408401526003820154606084015260c0608084015261389760c084016004840161365b565b60ff6005840154166138ac60a08601826136f7565b509392505050565b60609290921b6bffffffffffffffffffffffff19168252601482015260340190565b6001600160a01b0391909116815260200190565b60006001600160a01b03861682526080602083015261390c60808301866137c8565b828103604084015261391e8186613853565b91505082606083015295945050505050565b6001600160a01b03929092168252602082015260400190565b6020808252825182820181905260009190848201906040850190845b8181101561398a5783516001600160a01b031683529284019291840191600101613965565b50909695505050505050565b60208082528251828201819052600091906040908185019080840286018301878501865b83811015613a3a57603f19898403018552815160c06001600160a01b0382511685528882015189860152878201518886015260608083015181870152506080808301518282880152613a0e8388018261362c565b9250505060a0808301519250613a26818701846136f7565b5095880195935050908601906001016139ba565b509098975050505050505050565b60006040820160408352808554808352606092508285019150602083818302870101888652818620865b84811015613b4157605f1989840301865260a082548452600160ff8185015416613a9e878701826136e3565b5060028401546040860152600384015489860152600484018260808701528a8154613ac881614ab9565b94880185905260c0948185168015613ae75760018114613afb57613b26565b60ff1983168a88015260e08a019350613b26565b848f528a8f208f5b83811015613b1e5781548c82018a0152908701908c01613b03565b8b0188019450505b50505098870198955050506005929092019150600101613a72565b50509501959095525091949350505050565b901515815260200190565b90815260200190565b92835260ff918216602084015216604082015260600190565b6001600160e01b031991909116815260200190565b600060208252612d4860208301846136b7565b60006001600160a01b038716825285602083015284604083015260806060830152613bd76080830184866135df565b979650505050505050565b600060a0820190506001600160a01b038716825285602083015284604083015283606083015261239160808301846136f7565b60006001600160a01b038089168352808816602084015280871660408401525084606083015260c06080830152613c4f60c08301856136b7565b82810360a0840152610100613c65828651613347565b6020850151602083015260408501516040830152606085015160608301526080850151816080840152613c9a8284018261362c565b91505060a085015182820360a0840152613cb4828261362c565b91505060c085015182820360c0840152613cce82826133ae565b91505060e085015182820360e0840152613ce88282613545565b9b9a5050505050505050505050565b6020808252600a908201527f4f6e6c794b656570657200000000000000000000000000000000000000000000604082015260600190565b60208082526013908201527f496e67657374206e6f742043616c6c6261636b00000000000000000000000000604082015260600190565b60208082526010908201527f536f6c76657220686173206368696c6400000000000000000000000000000000604082015260600190565b60208082526016908201527f436f6e646974696f6e206e6f7420457865637574656400000000000000000000604082015260600190565b60208082526015908201527f6d73672e73656e646572206e6f7420736f6c7665720000000000000000000000604082015260600190565b60208082526018908201527f496e76616c696420696e64657820746f20707265706172650000000000000000604082015260600190565b6020808252600c908201527f4f6e6c7920666163746f72790000000000000000000000000000000000000000604082015260600190565b6020808252600b908201527f4f6e6c79204b6565706572000000000000000000000000000000000000000000604082015260600190565b60208082526015908201527f54696d656c6f636b207374696c6c206c6f636b65640000000000000000000000604082015260600190565b6020808252600f908201527f696e676573747320696e76616c69640000000000000000000000000000000000604082015260600190565b60208082526018908201527f4e6f74204172626974726174696f6e5265717565737465640000000000000000604082015260600190565b6020808252602e908201527f496e697469616c697a61626c653a20636f6e747261637420697320616c72656160408201527f647920696e697469616c697a6564000000000000000000000000000000000000606082015260800190565b60208082526011908201527f536c6f7420696e76616c6964207665722e000000000000000000000000000000604082015260600190565b6020808252600f908201527f4f6e6c792061726269747261746f720000000000000000000000000000000000604082015260600190565b6020808252600e908201527f4b656570657220696e76616c6964000000000000000000000000000000000000604082015260600190565b60208082526014908201527f4f7574636f6d65206e6f742070726f706f736564000000000000000000000000604082015260600190565b60208082526013908201527f4e6f74204f7574636f6d6550726f706f73656400000000000000000000000000604082015260600190565b6020808252818101527f46756c66696c6c206f7574676f696e672063616c6c6261636b73206669727374604082015260600190565b6020808252818101527f46756c66696c6c20696e636f6d696e672063616c6c6261636b73206669727374604082015260600190565b60208082526016908201527f4e6f74204172626974726174696f6e50656e64696e6700000000000000000000604082015260600190565b6020808252600b908201527f4f6e6c79206b6565706572000000000000000000000000000000000000000000604082015260600190565b60208082526012908201527f4f6e6c79206b65657065722f706172656e740000000000000000000000000000604082015260600190565b6020808252600e908201527f547261636b696e67496420736574000000000000000000000000000000000000604082015260600190565b60208082526017908201527f536c6f7420726573657276656420627920696e67657374000000000000000000604082015260600190565b60208082526014908201527f536c6f742076657273696f6e20696e76616c6964000000000000000000000000604082015260600190565b6020808252600d908201527f6e6f7420496e6974696174656400000000000000000000000000000000000000604082015260600190565b6000606082526142c260608301866137c8565b6001600160a01b039490941660208301525060400152919050565b600084825260406020830152612ffa6040830184866135df565b60006040820184835260206040818501528185518084526060860191508287019350845b81811015612cae5784518352938301939183019160010161431b565b600060a0825261434a60a0830188613853565b828103602084015261435c81886137c8565b6001600160a01b039690961660408401525050606081019290925260809091015292915050565b600060608252843561439481615018565b6143a16060840182613347565b506143ae60208601612bfb565b6143bb6080840182613347565b506143c860408601612bfb565b6143d560a0840182613347565b50606085013560c08301526143ed6080860186614766565b60e0808501526144026101408501828461368d565b91505061441260a08701876146d6565b605f19808685030161010087015261442b84838561343c565b935061443a60c08a018a6147ab565b9250808685030161012087015250506144538282613707565b925050506144646020830185613347565b826040830152949350505050565b92835260208301919091526fffffffffffffffffffffffffffffffff16604082015260600190565b918252602082015260400190565b6000808335601e198436030181126144be578283fd5b83018035915067ffffffffffffffff8211156144d8578283fd5b6020908101925081023603821315612c4857600080fd5b6000808335601e19843603018112614505578283fd5b83018035915067ffffffffffffffff82111561451f578283fd5b6020019150606081023603821315612c4857600080fd5b6000808335601e1984360301811261454c578182fd5b83018035915067ffffffffffffffff821115614566578283fd5b602001915036819003821315612c4857600080fd5b6000823560fe19833603018112614590578182fd5b9190910192915050565b60008235609e19833603018112614590578182fd5b60405181810167ffffffffffffffff811182821017156145d1576145d1614b5e565b604052919050565b600067ffffffffffffffff8211156145f3576145f3614b5e565b5060209081020190565b600067ffffffffffffffff82111561461757614617614b5e565b50601f01601f191660200190565b60009081526020902090565b60208410801561468757601f841160018114614658576146518685614aee565b8355614681565b61466183614625565b6146766020601f880104820160018301614843565b506146818684614bc5565b5061088a565b8160005260206000206020601f8701048101601f871680156146b1576146b1816000198401614b74565b506146c46020601f880104830182614843565b50506001856002021782555050505050565b6000808335601e198436030181126146ec578283fd5b830160208101925035905067ffffffffffffffff81111561470c57600080fd5b602081023603831315612c4857600080fd5b6000808335601e19843603018112614734578283fd5b830160208101925035905067ffffffffffffffff81111561475457600080fd5b606081023603831315612c4857600080fd5b6000808335601e1984360301811261477c578283fd5b830160208101925035905067ffffffffffffffff81111561479c57600080fd5b803603831315612c4857600080fd5b6000823560fe198336030181126147c0578182fd5b90910192915050565b600082198211156147dc576147dc614b32565b500190565b6000826147fc57634e487b7160e01b81526012600452602481fd5b500490565b600081600019048311821515161561481b5761481b614b32565b500290565b60008282101561483257614832614b32565b500390565b6001600160a01b031690565b5b818110156118ea5760008155600101614844565b6801000000000000000083111561487157614871614b5e565b805483825580841015614909577f7fffffffffffffffffffffffffffffffffffffffffffffffffffffffffffffff60018183118116156148b3576148b3614b32565b60028287118216156148c7576148c7614b32565b600085815260208120909350878202810190828602015b80821015614903576148f285868454614be3565b8255848483015582820191506148de565b50505050505b508161491482614625565b6000805b868110156149415761492b848385614fbd565b6060939093019260029290920191600101614918565b50505050505050565b6149548382614b88565b818160005260208060002060005b8681101561494157833582559282019260019182019101614962565b67ffffffffffffffff83111561499657614996614b5e565b6149a08154614ab9565b600080601f8611601f8411818117156149bf576149bc86614625565b92505b80156149ee576020601f890104830160208910156149da5750825b6149ec6020601f880104850182614843565b505b508060018114614a1a57600094508715614a09578387013594505b614a138886614aee565b8655614a6c565b601f198816945082845b86811015614a445788860135825560209586019560019092019101614a24565b5088861015614a6157878501356000196008601f8c16021c191681555b506001600289020186555b5050505050505050565b60005b83811015614a91578181015183820152602001614a79565b83811115610d885750506000910152565b600081614ab157614ab1614b32565b506000190190565b600281046001821680614acd57607f821691505b60208210811415612d2657634e487b7160e01b600052602260045260246000fd5b600019600883021c191660029091021790565b6000600019821415614b1557614b15614b32565b5060010190565b634e487b7160e01b600052600060045260246000fd5b634e487b7160e01b600052601160045260246000fd5b634e487b7160e01b600052602160045260246000fd5b634e487b7160e01b600052604160045260246000fd5b8054600019836020036008021c1681555050565b68010000000000000000821115614ba157614ba1614b5e565b8054828255808310156117cf57816000526020600020610d88828201858301614843565b806000526020600020614bd9838254614aee565b9091556000905550565b60089190910291821b60001990921b9182169119161790565b6001600160a01b0382166001600160a01b03198254161781555050565b8135614c2481615018565b614c2e8183614bfc565b506001602080840135828401556040840135600284015560608401356003840155614c5c60808501856144a8565b614c6a81836004880161494a565b5050614c7960a08501856144a8565b614c8781836005880161494a565b505060068301614c9a60c08601866144a8565b68010000000000000000811115614cb357614cb3614b5e565b825481845580821015614cee5760008481528581208381019083015b80821015614cea57614ce18383614b88565b90880190614ccf565b5050505b5081614cf984614625565b93506000805b83811015614d2e57614d1183866144a8565b614d1d8183868b614f30565b505094870194918601918701614cff565b5050505050505050614d4360e08301836144ef565b610d88818360078601614858565b8135614d5c81615018565b614d668183614bfc565b506001602080840135614d7881615018565b614d8481848601614bfc565b5060026040850135614d9581615018565b614da181838701614bfc565b5060036060860135818601556004614dbc6080880188614536565b614dc98183858b0161497e565b50506005808701614ddd60a08a018a6144a8565b68010000000000000000811115614df657614df6614b5e565b825481845580821015614eca577f33333333333333333333333333333333333333333333333333333333333333338082118b1615614e3657614e36614b32565b8083118b1615614e4857614e48614b32565b506000848152898120838702810190878402015b80821015614ec657614e7083848454614be3565b8255828d8301558a8201614e8684858354614be3565b815550898201614e9884858354614be3565b90558189018054614ea881614ab9565b8015614eba57614eba86828486614631565b50505090870190614e5c565b5050505b50819650614ed783614625565b9550600094508492505b80831015614f0e57614efd614ef6888461459a565b8688614f49565b958701959483019491880191614ee1565b5050505050505050506118ea614f2760c084018461457b565b60068301614c19565b8115614f3e57614f3e614b1c565b610d8884848361494a565b8115614f5757614f57614b1c565b82358155600181016020840135614f6d8161502d565b60038110614f7d57614f7d614b48565b60ff1982541660ff8216811783555050506040830135600282015560608301356003820155614faf6080840184614536565b61088a81836004860161497e565b8115614fcb57614fcb614b1c565b82358155600181016020840135614fe18161503a565b815460ff191660ff91909116178082556040850135614fff8161503a565b61ff008160081b1661ff00198316178355505050505050565b6001600160a01b03811681146106f157600080fd5b600381106106f157600080fd5b60ff811681146106f157600080fdfea2646970667358221220d5d3c94406226346778521ef68e9e4a0ad471a8a29f305a5e5293c78a83587eb64736f6c63430008000033",
  "linkReferences": {
    "contracts/SolverLib.sol": {
      "SolverLib": [
        {
          "length": 20,
          "start": 1653
        },
        {
          "length": 20,
          "start": 2075
        },
        {
          "length": 20,
          "start": 2508
        },
        {
          "length": 20,
          "start": 2648
        },
        {
          "length": 20,
          "start": 3719
        },
        {
          "length": 20,
          "start": 4438
        },
        {
          "length": 20,
          "start": 4731
        },
        {
          "length": 20,
          "start": 5967
        },
        {
          "length": 20,
          "start": 6649
        },
        {
          "length": 20,
          "start": 6848
        },
        {
          "length": 20,
          "start": 7954
        },
        {
          "length": 20,
          "start": 8442
        },
        {
          "length": 20,
          "start": 8786
        },
        {
          "length": 20,
          "start": 10331
        }
      ]
    }
  },
  "deployedLinkReferences": {
    "contracts/SolverLib.sol": {
      "SolverLib": [
        {
          "length": 20,
          "start": 1621
        },
        {
          "length": 20,
          "start": 2043
        },
        {
          "length": 20,
          "start": 2476
        },
        {
          "length": 20,
          "start": 2616
        },
        {
          "length": 20,
          "start": 3687
        },
        {
          "length": 20,
          "start": 4406
        },
        {
          "length": 20,
          "start": 4699
        },
        {
          "length": 20,
          "start": 5935
        },
        {
          "length": 20,
          "start": 6617
        },
        {
          "length": 20,
          "start": 6816
        },
        {
          "length": 20,
          "start": 7922
        },
        {
          "length": 20,
          "start": 8410
        },
        {
          "length": 20,
          "start": 8754
        },
        {
          "length": 20,
          "start": 10299
        }
      ]
    }
  }
}