{
  "_format": "hh-sol-artifact-1",
  "contractName": "BasicSolverV1",
  "sourceName": "contracts/BasicSolverV1.sol",
  "abi": [
    {
      "inputs": [
        {
          "internalType": "uint8",
          "name": "_type",
          "type": "uint8"
        },
        {
          "internalType": "uint256",
          "name": "_key",
          "type": "uint256"
        },
        {
          "internalType": "bytes",
          "name": "_data",
          "type": "bytes"
        }
      ],
      "name": "addData",
      "outputs": [],
      "stateMutability": "nonpayable",
      "type": "function"
    },
    {
      "inputs": [
        {
          "internalType": "uint256",
          "name": "_index",
          "type": "uint256"
        }
      ],
      "name": "addressFromChainIndex",
      "outputs": [
        {
          "internalType": "address",
          "name": "_address",
          "type": "address"
        }
      ],
      "stateMutability": "view",
      "type": "function"
    },
    {
      "inputs": [
        {
          "internalType": "uint256[]",
          "name": "payouts",
          "type": "uint256[]"
        }
      ],
      "name": "arbitrate",
      "outputs": [],
      "stateMutability": "nonpayable",
      "type": "function"
    },
    {
      "inputs": [],
      "name": "arbitrateNull",
      "outputs": [],
      "stateMutability": "nonpayable",
      "type": "function"
    },
    {
      "inputs": [],
      "name": "arbitrationPending",
      "outputs": [],
      "stateMutability": "nonpayable",
      "type": "function"
    },
    {
      "inputs": [],
      "name": "arbitrationRequested",
      "outputs": [],
      "stateMutability": "nonpayable",
      "type": "function"
    },
    {
      "inputs": [],
      "name": "chainChild",
      "outputs": [
        {
          "internalType": "address",
          "name": "",
          "type": "address"
        }
      ],
      "stateMutability": "view",
      "type": "function"
    },
    {
      "inputs": [],
      "name": "chainIndex",
      "outputs": [
        {
          "internalType": "uint256",
          "name": "",
          "type": "uint256"
        }
      ],
      "stateMutability": "view",
      "type": "function"
    },
    {
      "inputs": [],
      "name": "chainParent",
      "outputs": [
        {
          "internalType": "address",
          "name": "",
          "type": "address"
        }
      ],
      "stateMutability": "view",
      "type": "function"
    },
    {
      "inputs": [
        {
          "internalType": "uint256",
          "name": "",
          "type": "uint256"
        }
      ],
      "name": "conditions",
      "outputs": [
        {
          "internalType": "contract IERC20",
          "name": "collateralToken",
          "type": "address"
        },
        {
          "internalType": "bytes32",
          "name": "questionId",
          "type": "bytes32"
        },
        {
          "internalType": "bytes32",
          "name": "parentCollectionId",
          "type": "bytes32"
        },
        {
          "internalType": "bytes32",
          "name": "conditionId",
          "type": "bytes32"
        },
        {
          "internalType": "enum SolverLib.Status",
          "name": "status",
          "type": "uint8"
        }
      ],
      "stateMutability": "view",
      "type": "function"
    },
    {
      "inputs": [],
      "name": "config",
      "outputs": [
        {
          "internalType": "contract Solver",
          "name": "implementation",
          "type": "address"
        },
        {
          "internalType": "address",
          "name": "keeper",
          "type": "address"
        },
        {
          "internalType": "address",
          "name": "arbitrator",
          "type": "address"
        },
        {
          "internalType": "uint256",
          "name": "timelockSeconds",
          "type": "uint256"
        },
        {
          "internalType": "bytes",
          "name": "data",
          "type": "bytes"
        },
        {
          "components": [
            {
              "internalType": "contract IERC20",
              "name": "collateralToken",
              "type": "address"
            },
            {
              "internalType": "uint256",
              "name": "outcomeSlots",
              "type": "uint256"
            },
            {
              "internalType": "uint256",
              "name": "parentCollectionPartitionIndex",
              "type": "uint256"
            },
            {
              "internalType": "uint256",
              "name": "amount",
              "type": "uint256"
            },
            {
              "internalType": "uint256[]",
              "name": "partition",
              "type": "uint256[]"
            },
            {
              "internalType": "uint256[]",
              "name": "recipientAddressSlots",
              "type": "uint256[]"
            },
            {
              "internalType": "uint256[][]",
              "name": "recipientAmountSlots",
              "type": "uint256[][]"
            },
            {
              "internalType": "string",
              "name": "conditionURI",
              "type": "string"
            }
          ],
          "internalType": "struct SolverLib.ConditionBase",
          "name": "conditionBase",
          "type": "tuple"
        }
      ],
      "stateMutability": "view",
      "type": "function"
    },
    {
      "inputs": [],
      "name": "confirmPayouts",
      "outputs": [],
      "stateMutability": "nonpayable",
      "type": "function"
    },
    {
      "inputs": [
        {
          "components": [
            {
              "internalType": "contract Solver",
              "name": "implementation",
              "type": "address"
            },
            {
              "internalType": "address",
              "name": "keeper",
              "type": "address"
            },
            {
              "internalType": "address",
              "name": "arbitrator",
              "type": "address"
            },
            {
              "internalType": "uint256",
              "name": "timelockSeconds",
              "type": "uint256"
            },
            {
              "internalType": "bytes",
              "name": "data",
              "type": "bytes"
            },
            {
              "components": [
                {
                  "internalType": "uint256",
                  "name": "executions",
                  "type": "uint256"
                },
                {
                  "internalType": "bool",
                  "name": "isDeferred",
                  "type": "bool"
                },
                {
                  "internalType": "bool",
                  "name": "isConstant",
                  "type": "bool"
                },
                {
                  "internalType": "uint8",
                  "name": "dataType",
                  "type": "uint8"
                },
                {
                  "internalType": "uint256",
                  "name": "key",
                  "type": "uint256"
                },
                {
                  "internalType": "uint256",
                  "name": "solverIndex",
                  "type": "uint256"
                },
                {
                  "internalType": "bytes",
                  "name": "data",
                  "type": "bytes"
                }
              ],
              "internalType": "struct SolverLib.Ingest[]",
              "name": "ingests",
              "type": "tuple[]"
            },
            {
              "components": [
                {
                  "internalType": "contract IERC20",
                  "name": "collateralToken",
                  "type": "address"
                },
                {
                  "internalType": "uint256",
                  "name": "outcomeSlots",
                  "type": "uint256"
                },
                {
                  "internalType": "uint256",
                  "name": "parentCollectionPartitionIndex",
                  "type": "uint256"
                },
                {
                  "internalType": "uint256",
                  "name": "amount",
                  "type": "uint256"
                },
                {
                  "internalType": "uint256[]",
                  "name": "partition",
                  "type": "uint256[]"
                },
                {
                  "internalType": "uint256[]",
                  "name": "recipientAddressSlots",
                  "type": "uint256[]"
                },
                {
                  "internalType": "uint256[][]",
                  "name": "recipientAmountSlots",
                  "type": "uint256[][]"
                },
                {
                  "internalType": "string",
                  "name": "conditionURI",
                  "type": "string"
                }
              ],
              "internalType": "struct SolverLib.ConditionBase",
              "name": "conditionBase",
              "type": "tuple"
            }
          ],
          "internalType": "struct SolverLib.Config",
          "name": "_config",
          "type": "tuple"
        }
      ],
      "name": "deployChild",
      "outputs": [
        {
          "internalType": "contract Solver",
          "name": "_solver",
          "type": "address"
        }
      ],
      "stateMutability": "nonpayable",
      "type": "function"
    },
    {
      "inputs": [],
      "name": "executeSolve",
      "outputs": [],
      "stateMutability": "nonpayable",
      "type": "function"
    },
    {
      "inputs": [
        {
          "internalType": "uint256",
          "name": "_partitionIndex",
          "type": "uint256"
        }
      ],
      "name": "getCollectionId",
      "outputs": [
        {
          "internalType": "bytes32",
          "name": "collectionId",
          "type": "bytes32"
        }
      ],
      "stateMutability": "view",
      "type": "function"
    },
    {
      "inputs": [],
      "name": "getConditions",
      "outputs": [
        {
          "components": [
            {
              "internalType": "contract IERC20",
              "name": "collateralToken",
              "type": "address"
            },
            {
              "internalType": "bytes32",
              "name": "questionId",
              "type": "bytes32"
            },
            {
              "internalType": "bytes32",
              "name": "parentCollectionId",
              "type": "bytes32"
            },
            {
              "internalType": "bytes32",
              "name": "conditionId",
              "type": "bytes32"
            },
            {
              "internalType": "uint256[]",
              "name": "payouts",
              "type": "uint256[]"
            },
            {
              "internalType": "enum SolverLib.Status",
              "name": "status",
              "type": "uint8"
            }
          ],
          "internalType": "struct SolverLib.Condition[]",
          "name": "",
          "type": "tuple[]"
        }
      ],
      "stateMutability": "view",
      "type": "function"
    },
    {
      "inputs": [
        {
          "internalType": "uint256",
          "name": "_key",
          "type": "uint256"
        }
      ],
      "name": "getOutput",
      "outputs": [
        {
          "internalType": "bytes",
          "name": "data",
          "type": "bytes"
        }
      ],
      "stateMutability": "view",
      "type": "function"
    },
    {
      "inputs": [
        {
          "internalType": "uint256",
          "name": "_slot",
          "type": "uint256"
        }
      ],
      "name": "handleCallback",
      "outputs": [],
      "stateMutability": "nonpayable",
      "type": "function"
    },
    {
      "inputs": [],
      "name": "ingestsValid",
      "outputs": [
        {
          "internalType": "bool",
          "name": "",
          "type": "bool"
        }
      ],
      "stateMutability": "view",
      "type": "function"
    },
    {
      "inputs": [
        {
          "internalType": "address",
          "name": "_chainParent",
          "type": "address"
        },
        {
          "internalType": "uint256",
          "name": "_chainIndex",
          "type": "uint256"
        },
        {
          "components": [
            {
              "internalType": "contract Solver",
              "name": "implementation",
              "type": "address"
            },
            {
              "internalType": "address",
              "name": "keeper",
              "type": "address"
            },
            {
              "internalType": "address",
              "name": "arbitrator",
              "type": "address"
            },
            {
              "internalType": "uint256",
              "name": "timelockSeconds",
              "type": "uint256"
            },
            {
              "internalType": "bytes",
              "name": "data",
              "type": "bytes"
            },
            {
              "components": [
                {
                  "internalType": "uint256",
                  "name": "executions",
                  "type": "uint256"
                },
                {
                  "internalType": "bool",
                  "name": "isDeferred",
                  "type": "bool"
                },
                {
                  "internalType": "bool",
                  "name": "isConstant",
                  "type": "bool"
                },
                {
                  "internalType": "uint8",
                  "name": "dataType",
                  "type": "uint8"
                },
                {
                  "internalType": "uint256",
                  "name": "key",
                  "type": "uint256"
                },
                {
                  "internalType": "uint256",
                  "name": "solverIndex",
                  "type": "uint256"
                },
                {
                  "internalType": "bytes",
                  "name": "data",
                  "type": "bytes"
                }
              ],
              "internalType": "struct SolverLib.Ingest[]",
              "name": "ingests",
              "type": "tuple[]"
            },
            {
              "components": [
                {
                  "internalType": "contract IERC20",
                  "name": "collateralToken",
                  "type": "address"
                },
                {
                  "internalType": "uint256",
                  "name": "outcomeSlots",
                  "type": "uint256"
                },
                {
                  "internalType": "uint256",
                  "name": "parentCollectionPartitionIndex",
                  "type": "uint256"
                },
                {
                  "internalType": "uint256",
                  "name": "amount",
                  "type": "uint256"
                },
                {
                  "internalType": "uint256[]",
                  "name": "partition",
                  "type": "uint256[]"
                },
                {
                  "internalType": "uint256[]",
                  "name": "recipientAddressSlots",
                  "type": "uint256[]"
                },
                {
                  "internalType": "uint256[][]",
                  "name": "recipientAmountSlots",
                  "type": "uint256[][]"
                },
                {
                  "internalType": "string",
                  "name": "conditionURI",
                  "type": "string"
                }
              ],
              "internalType": "struct SolverLib.ConditionBase",
              "name": "conditionBase",
              "type": "tuple"
            }
          ],
          "internalType": "struct SolverLib.Config",
          "name": "_solverConfig",
          "type": "tuple"
        }
      ],
      "name": "init",
      "outputs": [],
      "stateMutability": "nonpayable",
      "type": "function"
    },
    {
      "inputs": [
        {
          "internalType": "address",
          "name": "operator",
          "type": "address"
        },
        {
          "internalType": "address",
          "name": "from",
          "type": "address"
        },
        {
          "internalType": "uint256[]",
          "name": "ids",
          "type": "uint256[]"
        },
        {
          "internalType": "uint256[]",
          "name": "values",
          "type": "uint256[]"
        },
        {
          "internalType": "bytes",
          "name": "data",
          "type": "bytes"
        }
      ],
      "name": "onERC1155BatchReceived",
      "outputs": [
        {
          "internalType": "bytes4",
          "name": "",
          "type": "bytes4"
        }
      ],
      "stateMutability": "nonpayable",
      "type": "function"
    },
    {
      "inputs": [
        {
          "internalType": "address",
          "name": "operator",
          "type": "address"
        },
        {
          "internalType": "address",
          "name": "from",
          "type": "address"
        },
        {
          "internalType": "uint256",
          "name": "id",
          "type": "uint256"
        },
        {
          "internalType": "uint256",
          "name": "value",
          "type": "uint256"
        },
        {
          "internalType": "bytes",
          "name": "data",
          "type": "bytes"
        }
      ],
      "name": "onERC1155Received",
      "outputs": [
        {
          "internalType": "bytes4",
          "name": "",
          "type": "bytes4"
        }
      ],
      "stateMutability": "nonpayable",
      "type": "function"
    },
    {
      "inputs": [],
      "name": "prepareSolve",
      "outputs": [],
      "stateMutability": "nonpayable",
      "type": "function"
    },
    {
      "inputs": [
        {
          "internalType": "uint256[]",
          "name": "_payouts",
          "type": "uint256[]"
        }
      ],
      "name": "proposePayouts",
      "outputs": [],
      "stateMutability": "nonpayable",
      "type": "function"
    },
    {
      "inputs": [
        {
          "internalType": "contract IERC20",
          "name": "_collateralToken",
          "type": "address"
        },
        {
          "internalType": "bytes32",
          "name": "_parentCollectionId",
          "type": "bytes32"
        },
        {
          "internalType": "bytes32",
          "name": "_conditionId",
          "type": "bytes32"
        },
        {
          "internalType": "uint256[]",
          "name": "_indexSets",
          "type": "uint256[]"
        }
      ],
      "name": "redeemPosition",
      "outputs": [],
      "stateMutability": "nonpayable",
      "type": "function"
    },
    {
      "inputs": [
        {
          "internalType": "uint256",
          "name": "_slot",
          "type": "uint256"
        },
        {
          "internalType": "uint256",
          "name": "_chainIndex",
          "type": "uint256"
        }
      ],
      "name": "registerCallback",
      "outputs": [],
      "stateMutability": "nonpayable",
      "type": "function"
    },
    {
      "inputs": [
        {
          "internalType": "bytes32",
          "name": "_trackingId",
          "type": "bytes32"
        }
      ],
      "name": "setTrackingId",
      "outputs": [],
      "stateMutability": "nonpayable",
      "type": "function"
    },
    {
      "inputs": [
        {
          "internalType": "bytes4",
          "name": "interfaceId",
          "type": "bytes4"
        }
      ],
      "name": "supportsInterface",
      "outputs": [
        {
          "internalType": "bool",
          "name": "",
          "type": "bool"
        }
      ],
      "stateMutability": "view",
      "type": "function"
    },
    {
      "inputs": [],
      "name": "timelock",
      "outputs": [
        {
          "internalType": "uint256",
          "name": "",
          "type": "uint256"
        }
      ],
      "stateMutability": "view",
      "type": "function"
    },
    {
      "inputs": [],
      "name": "trackingId",
      "outputs": [
        {
          "internalType": "bytes32",
          "name": "",
          "type": "bytes32"
        }
      ],
      "stateMutability": "view",
      "type": "function"
    }
  ],
  "bytecode": "0x608060405234801561001057600080fd5b50614cfb806100206000396000f3fe608060405234801561001057600080fd5b50600436106101da5760003560e01c80635bd1112311610104578063a072d7b0116100a2578063e7fd205911610071578063e7fd2059146103ba578063ea8221a9146103cd578063f23a6e61146103d5578063f43d3269146103e8576101da565b8063a072d7b01461036c578063a97470261461037f578063bc197c8114610392578063d33219b4146103b2576101da565b80637c123627116100de5780637c1236271461033f57806380c2dde214610354578063972a688b1461035c5780639999250614610364576101da565b80635bd111231461030a57806368e014c51461031257806379502c5514610325576101da565b806326c500071161017c5780633a275fa21161014b5780633a275fa2146102dd57806348cbb2fc146102e557806348d6bc00146102fa57806355dd978b14610302576101da565b806326c500071461028b5780632b363427146102af5780632c17b91e146102c25780633837b05e146102ca576101da565b806317861f87116101b857806317861f871461023057806317f9447f14610250578063187825591461027057806318f7927814610283576101da565b806301ffc9a7146101df5780630d06101a146102085780630d49722d1461021d575b600080fd5b6101f26101ed366004613074565b6103fb565b6040516101ff9190613a1c565b60405180910390f35b61021b610216366004613044565b610441565b005b61021b61022b366004612f58565b61046f565b61024361023e366004613044565b6105cf565b6040516101ff9190613a45565b61026361025e366004613236565b61069f565b6040516101ff9190613856565b61021b61027e36600461310f565b610797565b61021b610852565b61029e610299366004613044565b6109ac565b6040516101ff959493929190613a92565b61021b6102bd366004613292565b6109fa565b61021b610a34565b6102636102d8366004613044565b610c4b565b61021b610d0d565b6102ed611095565b6040516101ff9190613a27565b61021b61109b565b6102636111de565b61021b6111ed565b6102ed610320366004613044565b6112c5565b61032d6113c0565b6040516101ff96959493929190613ac5565b61034761168f565b6040516101ff919061389e565b6102636117be565b61021b6117d2565b6101f26118aa565b61021b61037a366004613044565b611957565b61021b61038d366004613271565b611cdd565b6103a56103a0366004612d93565b611d47565b6040516101ff9190613a30565b6102ed611e93565b61021b6103c8366004612f98565b611e99565b6102ed61200f565b6103a56103e3366004612e4e565b612015565b61021b6103f6366004612f01565b612041565b60006001600160e01b031982167f4e2312e000000000000000000000000000000000000000000000000000000000148061043957506104398261216f565b90505b919050565b6015541561046a5760405162461bcd60e51b815260040161046190613fcd565b60405180910390fd5b601555565b6002546001600160a01b031633146104995760405162461bcd60e51b815260040161046190613d4a565b6001600f80546104ab906001906145a3565b815481106104c957634e487b7160e01b600052603260045260246000fd5b600091825260209091206006918202016005015460ff16908111156104fe57634e487b7160e01b600052602160045260246000fd5b1461051b5760405162461bcd60e51b815260040161046190613ca5565b600f805473__$94d7d2f22770e4b0d1a2b99fb2812308e2$__91636a0a24f191610547906001906145a3565b8154811061056557634e487b7160e01b600052603260045260246000fd5b906000526020600020906006020184846040518463ffffffff1660e01b8152600401610593939291906140df565b60006040518083038186803b1580156105ab57600080fd5b505af41580156105bf573d6000803e3d6000fd5b505050506105cb6121a1565b5050565b600f54600082815260196020526040902054606091146106015760405162461bcd60e51b815260040161046190613c6e565b6000828152601860205260409020805461061a9061473c565b80601f01602080910402602001604051908101604052809291908181526020018280546106469061473c565b80156106935780601f1061066857610100808354040283529160200191610693565b820191906000526020600020905b81548152906001019060200180831161067657829003601f168201915b50505050509050919050565b6012546000906001600160a01b0316156106cb5760405162461bcd60e51b815260040161046190613c37565b6013546040517f4dd0aa4900000000000000000000000000000000000000000000000000000000815273__$94d7d2f22770e4b0d1a2b99fb2812308e2$__91634dd0aa4991610721918691309190600401614198565b604080518083038186803b15801561073857600080fd5b505af415801561074c573d6000803e3d6000fd5b505050506040513d601f19601f820116820180604052508101906107709190612ec8565b601280546001600160a01b0319166001600160a01b03939093169290921790915592915050565b6002546001600160a01b031633146107c15760405162461bcd60e51b815260040161046190613d4a565b6040517f01b7037c000000000000000000000000000000000000000000000000000000008152735fbdb2315678afecb367f032d93f642f64180aa3906301b7037c906108199088908890889088908890600401613a58565b600060405180830381600087803b15801561083357600080fd5b505af1158015610847573d6000803e3d6000fd5b505050505050505050565b6003546001600160a01b0316331461087c5760405162461bcd60e51b815260040161046190613e83565b6002600f805461088e906001906145a3565b815481106108ac57634e487b7160e01b600052603260045260246000fd5b600091825260209091206006918202016005015460ff16908111156108e157634e487b7160e01b600052602160045260246000fd5b146108fe5760405162461bcd60e51b815260040161046190613f28565b600f805473__$94d7d2f22770e4b0d1a2b99fb2812308e2$__916324b286029161092a906001906145a3565b8154811061094857634e487b7160e01b600052603260045260246000fd5b90600052602060002090600602016040518263ffffffff1660e01b81526004016109729190613a27565b60006040518083038186803b15801561098a57600080fd5b505af415801561099e573d6000803e3d6000fd5b505050506109aa6121a1565b565b600f81815481106109bc57600080fd5b6000918252602090912060069091020180546001820154600283015460038401546005909401546001600160a01b0390931694509092909160ff1685565b6002546001600160a01b03163314610a245760405162461bcd60e51b815260040161046190613c00565b610a2f8383836121be565b505050565b610a756040518060400160405280601981526020017f70726570617265536f6c766520636861696e496e6465783a200000000000000081525060135461229f565b60115460ff1615610bb3576002546001600160a01b0316331480610aa8575060115461010090046001600160a01b031633145b610ac45760405162461bcd60e51b815260040161046190613f96565b6005600f8054610ad6906001906145a3565b81548110610af457634e487b7160e01b600052603260045260246000fd5b600091825260209091206006918202016005015460ff1690811115610b2957634e487b7160e01b600052602160045260246000fd5b1480610b9757506006600f8054610b42906001906145a3565b81548110610b6057634e487b7160e01b600052603260045260246000fd5b600091825260209091206006918202016005015460ff1690811115610b9557634e487b7160e01b600052602160045260246000fd5b145b610bb35760405162461bcd60e51b815260040161046190613bc9565b6011805460ff19166001179055610bc8612312565b610bd06124bb565b6012546001600160a01b0316156109aa57601260009054906101000a90046001600160a01b03166001600160a01b0316632c17b91e6040518163ffffffff1660e01b8152600401600060405180830381600087803b158015610c3157600080fd5b505af1158015610c45573d6000803e3d6000fd5b50505050565b6011546012546013546040517f9fa61fa300000000000000000000000000000000000000000000000000000000815260009373__$94d7d2f22770e4b0d1a2b99fb2812308e2$__93639fa61fa393610cbd93889330936001600160a01b0361010090920482169391169160040161429e565b60206040518083038186803b158015610cd557600080fd5b505af4158015610ce9573d6000803e3d6000fd5b505050506040513d601f19601f820116820180604052508101906104399190612d77565b610db26040518060400160405280601f81526020017f65786563757465536f6c766520636f6e646974696f6e207374617475733a2000815250600f6001600f80549050610d5a91906145a3565b81548110610d7857634e487b7160e01b600052603260045260246000fd5b600091825260209091206006918202016005015460ff1690811115610dad57634e487b7160e01b600052602160045260246000fd5b61229f565b6000600f8054610dc4906001906145a3565b81548110610de257634e487b7160e01b600052603260045260246000fd5b600091825260209091206006918202016005015460ff1690811115610e1757634e487b7160e01b600052602160045260246000fd5b14610e345760405162461bcd60e51b815260040161046190614072565b610e3c6118aa565b610e585760405162461bcd60e51b815260040161046190613db8565b600f805460019190610e6b9083906145a3565b81548110610e8957634e487b7160e01b600052603260045260246000fd5b906000526020600020906006020160050160006101000a81548160ff02191690836006811115610ec957634e487b7160e01b600052602160045260246000fd5b0217905550610f0f6040518060400160405280602081526020017f53706c697474696e6720706f736974696f6e2066726f6d20536f6c766572202381525060135461229f565b73__$94d7d2f22770e4b0d1a2b99fb2812308e2$__6366662585601160019054906101000a90046001600160a01b03166001600601600f6001600f80549050610f5891906145a3565b81548110610f7657634e487b7160e01b600052603260045260246000fd5b90600052602060002090600602016040518463ffffffff1660e01b8152600401610fa29392919061386a565b60006040518083038186803b158015610fba57600080fd5b505af4158015610fce573d6000803e3d6000fd5b5050600f805473__$94d7d2f22770e4b0d1a2b99fb2812308e2$__935063366968289250610ffe906001906145a3565b8154811061101c57634e487b7160e01b600052603260045260246000fd5b906000526020600020906006020160016006013060186015546040518663ffffffff1660e01b8152600401611055959493929190614139565b60006040518083038186803b15801561106d57600080fd5b505af4158015611081573d6000803e3d6000fd5b5050505061108d6109aa565b6109aa612769565b60155481565b60145442116110bc5760405162461bcd60e51b815260040161046190613d81565b6002600f80546110ce906001906145a3565b815481106110ec57634e487b7160e01b600052603260045260246000fd5b600091825260209091206006918202016005015460ff169081111561112157634e487b7160e01b600052602160045260246000fd5b1461113e5760405162461bcd60e51b815260040161046190613ef1565b600f805473__$94d7d2f22770e4b0d1a2b99fb2812308e2$__9163696d46619161116a906001906145a3565b8154811061118857634e487b7160e01b600052603260045260246000fd5b90600052602060002090600602016040518263ffffffff1660e01b81526004016111b29190613a27565b60006040518083038186803b1580156111ca57600080fd5b505af4158015610c45573d6000803e3d6000fd5b6012546001600160a01b031681565b6003546001600160a01b031633146112175760405162461bcd60e51b815260040161046190613e83565b6003600f8054611229906001906145a3565b8154811061124757634e487b7160e01b600052603260045260246000fd5b600091825260209091206006918202016005015460ff169081111561127c57634e487b7160e01b600052602160045260246000fd5b146112995760405162461bcd60e51b815260040161046190613def565b600f805473__$94d7d2f22770e4b0d1a2b99fb2812308e2$__9163ec7ac2f09161092a906001906145a3565b600073__$94d7d2f22770e4b0d1a2b99fb2812308e2$__63b1adb6f6600f6001600f805490506112f591906145a3565b8154811061131357634e487b7160e01b600052603260045260246000fd5b90600052602060002090600602016001600601600401858154811061134857634e487b7160e01b600052603260045260246000fd5b90600052602060002001546040518363ffffffff1660e01b8152600401611370929190614185565b60206040518083038186803b15801561138857600080fd5b505af415801561139c573d6000803e3d6000fd5b505050506040513d601f19601f82011682018060405250810190610439919061305c565b60018054600254600354600454600580546001600160a01b0395861696948616959093169391926113f09061473c565b80601f016020809104026020016040519081016040528092919081815260200182805461141c9061473c565b80156114695780601f1061143e57610100808354040283529160200191611469565b820191906000526020600020905b81548152906001019060200180831161144c57829003601f168201915b505060408051610100810182526006870180546001600160a01b03168252600788015460208084019190915260088901548385015260098901546060840152600a890180548551818402810184019096528086529899989397509195506080870194509091908301828280156114fe57602002820191906000526020600020905b8154815260200190600101908083116114ea575b505050505081526020016005820180548060200260200160405190810160405280929190818152602001828054801561155657602002820191906000526020600020905b815481526020019060010190808311611542575b5050505050815260200160068201805480602002602001604051908101604052809291908181526020016000905b828210156115f0576000848152602090819020830180546040805182850281018501909152818152928301828280156115dc57602002820191906000526020600020905b8154815260200190600101908083116115c8575b505050505081526020019060010190611584565b5050505081526020016007820180546116089061473c565b80601f01602080910402602001604051908101604052809291908181526020018280546116349061473c565b80156116815780601f1061165657610100808354040283529160200191611681565b820191906000526020600020905b81548152906001019060200180831161166457829003601f168201915b505050505081525050905086565b6060600f805480602002602001604051908101604052809291908181526020016000905b828210156117b55760008481526020908190206040805160c0810182526006860290920180546001600160a01b03168352600181015483850152600281015483830152600381015460608401526004810180548351818702810187019094528084529394919360808601939283018282801561174e57602002820191906000526020600020905b81548152602001906001019080831161173a575b5050509183525050600582015460209091019060ff16600681111561178357634e487b7160e01b600052602160045260246000fd5b60068111156117a257634e487b7160e01b600052602160045260246000fd5b81525050815260200190600101906116b3565b50505050905090565b60115461010090046001600160a01b031681565b6003546001600160a01b031633146117fc5760405162461bcd60e51b815260040161046190613e83565b6004600f805461180e906001906145a3565b8154811061182c57634e487b7160e01b600052603260045260246000fd5b600091825260209091206006918202016005015460ff169081111561186157634e487b7160e01b600052602160045260246000fd5b1461187e5760405162461bcd60e51b815260040161046190613f5f565b600f805473__$94d7d2f22770e4b0d1a2b99fb2812308e2$__916359111fb59161092a906001906145a3565b600f546040517f5cc1f6b500000000000000000000000000000000000000000000000000000000815260009173__$94d7d2f22770e4b0d1a2b99fb2812308e2$__91635cc1f6b5916119029160069190600401613950565b60206040518083038186803b15801561191a57600080fd5b505af415801561192e573d6000803e3d6000fd5b505050506040513d601f19601f820116820180604052508101906119529190613028565b905090565b6119966040518060400160405280601481526020017f726563656976696e672063616c6c6261636b3a200000000000000000000000008152508261229f565b600081815260176020526040902054600680546119e1929081106119ca57634e487b7160e01b600052603260045260246000fd5b906000526020600020906005020160030154610c4b565b6001600160a01b0316336001600160a01b031614611a115760405162461bcd60e51b815260040161046190613cdc565b600081815260176020526040902054600680549091908110611a4357634e487b7160e01b600052603260045260246000fd5b600091825260209091206001600590920201015460ff16611a765760405162461bcd60e51b815260040161046190614004565b600081815260176020526040902054600680549091908110611aa857634e487b7160e01b600052603260045260246000fd5b600091825260208220600590910201805491611ac383614784565b909155505060008181526017602052604090205460068054611ccc92908110611afc57634e487b7160e01b600052603260045260246000fd5b906000526020600020906005020160010160029054906101000a900460ff166001600501601760008581526020019081526020016000205481548110611b5257634e487b7160e01b600052603260045260246000fd5b906000526020600020906005020160020154336001600160a01b03166317861f876001600501601760008881526020019081526020016000205481548110611baa57634e487b7160e01b600052603260045260246000fd5b90600052602060002090600502016004018054611bc69061473c565b80601f0160208091040260200160405190810160405280929190818152602001828054611bf29061473c565b8015611c3f5780601f10611c1457610100808354040283529160200191611c3f565b820191906000526020600020905b815481529060010190602001808311611c2257829003601f168201915b5050505050806020019051810190611c57919061305c565b6040518263ffffffff1660e01b8152600401611c739190613a27565b60006040518083038186803b158015611c8b57600080fd5b505afa158015611c9f573d6000803e3d6000fd5b505050506040513d6000823e601f3d908101601f19168201604052611cc7919081019061309c565b6121be565b600090815260176020526040812055565b611ce681610c4b565b6001600160a01b0316336001600160a01b031614611d165760405162461bcd60e51b815260040161046190613cdc565b5060009081526016602090815260408220805460018101825590835291200180546001600160a01b03191633179055565b6000805b86811015611e6457611d946040518060400160405280600c81526020017f636861696e496e6465783a20000000000000000000000000000000000000000081525060135461229f565b611df96040518060400160405280601081526020017f726563656976656420746f6b656e3a2000000000000000000000000000000000815250898984818110611ded57634e487b7160e01b600052603260045260246000fd5b9050602002013561229f565b611e526040518060400160405280601181526020017f726563656976656420616d6f756e743a20000000000000000000000000000000815250878784818110611ded57634e487b7160e01b600052603260045260246000fd5b80611e5c81614784565b915050611d4b565b507fbc197c81000000000000000000000000000000000000000000000000000000009998505050505050505050565b60145481565b6003546001600160a01b03163314611ec35760405162461bcd60e51b815260040161046190613e83565b6004600f8054611ed5906001906145a3565b81548110611ef357634e487b7160e01b600052603260045260246000fd5b600091825260209091206006918202016005015460ff1690811115611f2857634e487b7160e01b600052602160045260246000fd5b14611f455760405162461bcd60e51b815260040161046190613f5f565b6014544211611f665760405162461bcd60e51b815260040161046190613d81565b600f805473__$94d7d2f22770e4b0d1a2b99fb2812308e2$__916311ca1ac091611f92906001906145a3565b81548110611fb057634e487b7160e01b600052603260045260246000fd5b9060005260206000209060060201836040518363ffffffff1660e01b8152600401611fdc9291906140f9565b60006040518083038186803b158015611ff457600080fd5b505af4158015612008573d6000803e3d6000fd5b5050505050565b60135481565b7ff23a6e61000000000000000000000000000000000000000000000000000000005b9695505050505050565b600054610100900460ff168061205a575060005460ff16155b6120765760405162461bcd60e51b815260040161046190613e26565b600054610100900460ff161580156120a1576000805460ff1961ff0019909116610100171660011790555b3373e7f1725e7734ce288f8367e1bb143e90bb3f0512146120d45760405162461bcd60e51b815260040161046190613d13565b60006120e66040840160208501612d54565b6001600160a01b0316141561210d5760405162461bcd60e51b815260040161046190613eba565b601180547fffffffffffffffffffffff0000000000000000000000000000000000000000ff166101006001600160a01b03871602179055601383905581600161215682826149c5565b50508015610c45576000805461ff001916905550505050565b6001600160e01b031981167f01ffc9a70000000000000000000000000000000000000000000000000000000014919050565b6004546121af906001614584565b6121b9904261456c565b601455565b600f546121cd906001906145a3565b600083815260196020526040902054146121f95760405162461bcd60e51b81526004016104619061403b565b600082815260196020526040812080549161221383614784565b90915550506000828152601860209081526040909120825161223792840190612b3a565b508260ff16600481111561225b57634e487b7160e01b600052602160045260246000fd5b6000838152601a60205260409020805460ff1916600183600481111561229157634e487b7160e01b600052602160045260246000fd5b0217905550610a2f82612859565b6105cb82826040516024016122b5929190613ba7565b60408051601f198184030181529190526020810180517bffffffffffffffffffffffffffffffffffffffffffffffffffffffff167f9710a9d000000000000000000000000000000000000000000000000000000000179052612a07565b601154600f80546040517f5069a07c000000000000000000000000000000000000000000000000000000008152919273__$94d7d2f22770e4b0d1a2b99fb2812308e2$__92635069a07c9261237e926007926101009091046001600160a01b03169130916004016140a9565b60006040518083038186803b15801561239657600080fd5b505af41580156123aa573d6000803e3d6000fd5b505050506040513d6000823e601f3d908101601f191682016040526123d29190810190613177565b8154600180820184556000938452602093849020835160069093020180546001600160a01b0319166001600160a01b039093169290921782558284015190820155604082015160028201556060820151600382015560808201518051929391926124429260048501920190612bbe565b5060a082015160058201805460ff1916600183600681111561247457634e487b7160e01b600052602160045260246000fd5b02179055505060408051808201909152601181527f416464656420636f6e646974696f6e20230000000000000000000000000000006020820152600f546109aa925061229f565b60005b6006548110156127665760068054829081106124ea57634e487b7160e01b600052603260045260246000fd5b600091825260209091206001600590920201015460ff166125135761250e81612a28565b612754565b80601760006001600501848154811061253c57634e487b7160e01b600052603260045260246000fd5b906000526020600020906005020160040180546125589061473c565b80601f01602080910402602001604051908101604052809291908181526020018280546125849061473c565b80156125d15780601f106125a6576101008083540402835291602001916125d1565b820191906000526020600020905b8154815290600101906020018083116125b457829003601f168201915b50505050508060200190518101906125e9919061305c565b815260200190815260200160002081905550612622600160050182815481106119ca57634e487b7160e01b600052603260045260246000fd5b6001600160a01b031663a97470266001600501838154811061265457634e487b7160e01b600052603260045260246000fd5b906000526020600020906005020160040180546126709061473c565b80601f016020809104026020016040519081016040528092919081815260200182805461269c9061473c565b80156126e95780601f106126be576101008083540402835291602001916126e9565b820191906000526020600020905b8154815290600101906020018083116126cc57829003601f168201915b5050505050806020019051810190612701919061305c565b6013546040518363ffffffff1660e01b81526004016127219291906142cc565b600060405180830381600087803b15801561273b57600080fd5b505af115801561274f573d6000803e3d6000fd5b505050505b8061275e81614784565b9150506124be565b50565b6012546001600160a01b0316158015906128045750601260009054906101000a90046001600160a01b03166001600160a01b031663999925066040518163ffffffff1660e01b815260040160206040518083038186803b1580156127cc57600080fd5b505afa1580156127e0573d6000803e3d6000fd5b505050506040513d601f19601f820116820180604052508101906128049190613028565b156109aa57601260009054906101000a90046001600160a01b03166001600160a01b0316633a275fa26040518163ffffffff1660e01b8152600401600060405180830381600087803b158015610c3157600080fd5b60005b6000828152601660205260409020548110156105cb5760008281526016602052604081208054839081106128a057634e487b7160e01b600052603260045260246000fd5b6000918252602090912001546001600160a01b0316146129f5576128f96040518060400160405280601281526020017f73656e64696e672063616c6c6261636b3a2000000000000000000000000000008152508361229f565b600082815260166020526040902080548290811061292757634e487b7160e01b600052603260045260246000fd5b6000918252602090912001546040517fa072d7b00000000000000000000000000000000000000000000000000000000081526001600160a01b039091169063a072d7b090612979908590600401613a27565b600060405180830381600087803b15801561299357600080fd5b505af11580156129a7573d6000803e3d6000fd5b50505060008381526016602052604090208054909150829081106129db57634e487b7160e01b600052603260045260246000fd5b600091825260209091200180546001600160a01b03191690555b806129ff81614784565b91505061285c565b80516a636f6e736f6c652e6c6f67602083016000808483855afa5050505050565b61276660016005018281548110612a4f57634e487b7160e01b600052603260045260246000fd5b906000526020600020906005020160010160029054906101000a900460ff1660016005018381548110612a9257634e487b7160e01b600052603260045260246000fd5b90600052602060002090600502016002015473__$94d7d2f22770e4b0d1a2b99fb2812308e2$__63f060d0b660016005018681548110612ae257634e487b7160e01b600052603260045260246000fd5b9060005260206000209060050201306040518363ffffffff1660e01b8152600401612b0e929190614287565b60006040518083038186803b158015612b2657600080fd5b505af4158015611c9f573d6000803e3d6000fd5b828054612b469061473c565b90600052602060002090601f016020900481019282612b685760008555612bae565b82601f10612b8157805160ff1916838001178555612bae565b82800160010185558215612bae579182015b82811115612bae578251825591602001919060010190612b93565b50612bba929150612bf8565b5090565b828054828255906000526020600020908101928215612bae5791602002820182811115612bae578251825591602001919060010190612b93565b5b80821115612bba5760008155600101612bf9565b803561043c81614c93565b60008083601f840112612c29578182fd5b50813567ffffffffffffffff811115612c40578182fd5b6020830191508360208083028501011115612c5a57600080fd5b9250929050565b600082601f830112612c71578081fd5b81516020612c86612c81836143c4565b61439a565b8281528181019085830183850287018401881015612ca2578586fd5b855b85811015612cc057815184529284019290840190600101612ca4565b5090979650505050505050565b803561043c81614ca8565b60008083601f840112612ce9578182fd5b50813567ffffffffffffffff811115612d00578182fd5b602083019150836020828501011115612c5a57600080fd5b805161043c81614c93565b80516007811061043c57600080fd5b600060e08284031215612d43578081fd5b50919050565b803561043c81614cb6565b600060208284031215612d65578081fd5b8135612d7081614c93565b9392505050565b600060208284031215612d88578081fd5b8151612d7081614c93565b60008060008060008060008060a0898b031215612dae578384fd5b8835612db981614c93565b97506020890135612dc981614c93565b9650604089013567ffffffffffffffff80821115612de5578586fd5b612df18c838d01612c18565b909850965060608b0135915080821115612e09578586fd5b612e158c838d01612c18565b909650945060808b0135915080821115612e2d578384fd5b50612e3a8b828c01612cd8565b999c989b5096995094979396929594505050565b60008060008060008060a08789031215612e66578384fd5b8635612e7181614c93565b95506020870135612e8181614c93565b94506040870135935060608701359250608087013567ffffffffffffffff811115612eaa578283fd5b612eb689828a01612cd8565b979a9699509497509295939492505050565b60008060408385031215612eda578182fd5b8251612ee581614c93565b6020840151909250612ef681614c93565b809150509250929050565b600080600060608486031215612f15578081fd5b8335612f2081614c93565b925060208401359150604084013567ffffffffffffffff811115612f42578182fd5b612f4e86828701612d32565b9150509250925092565b60008060208385031215612f6a578182fd5b823567ffffffffffffffff811115612f80578283fd5b612f8c85828601612c18565b90969095509350505050565b60006020808385031215612faa578182fd5b823567ffffffffffffffff811115612fc0578283fd5b8301601f81018513612fd0578283fd5b8035612fde612c81826143c4565b8181528381019083850185840285018601891015612ffa578687fd5b8694505b8385101561301c578035835260019490940193918501918501612ffe565b50979650505050505050565b600060208284031215613039578081fd5b8151612d7081614ca8565b600060208284031215613055578081fd5b5035919050565b60006020828403121561306d578081fd5b5051919050565b600060208284031215613085578081fd5b81356001600160e01b031981168114612d70578182fd5b6000602082840312156130ad578081fd5b815167ffffffffffffffff8111156130c3578182fd5b8201601f810184136130d3578182fd5b80516130e1612c81826143e8565b8181528560208385010111156130f5578384fd5b613106826020830160208601614710565b95945050505050565b600080600080600060808688031215613126578283fd5b853561313181614c93565b94506020860135935060408601359250606086013567ffffffffffffffff81111561315a578182fd5b61316688828901612c18565b969995985093965092949392505050565b600060208284031215613188578081fd5b815167ffffffffffffffff8082111561319f578283fd5b9083019060c082860312156131b2578283fd5b60405160c0810181811083821117156131cd576131cd6147cb565b6040526131d983612d18565b815260208301516020820152604083015160408201526060830151606082015260808301518281111561320a578485fd5b61321687828601612c61565b60808301525061322860a08401612d23565b60a082015295945050505050565b600060208284031215613247578081fd5b813567ffffffffffffffff81111561325d578182fd5b61326984828501612d32565b949350505050565b60008060408385031215613283578182fd5b50508035926020909101359150565b6000806000606084860312156132a6578081fd5b83356132b181614cb6565b925060208401359150604084013567ffffffffffffffff8111156132d3578182fd5b8401601f810186136132e3578182fd5b80356132f1612c81826143e8565b818152876020838501011115613305578384fd5b8160208401602083013783602083830101528093505050509250925092565b6001600160a01b03169052565b818352602080840193600091908185020181018584845b8781101561337e57828403895261335f82886144c1565b61336a8682846134f4565b9a87019a9550505090840190600101613348565b5091979650505050505050565b6000815180845260208085018081965082840281019150828601855b8581101561337e5782840389526133bf848351613541565b988501989350908401906001016133a7565b6000815480845260208085018081965082840281019150858552828520855b8581101561337e578284038952613407848361357b565b988501989350600191820191016133f0565b818352602080840193600091908185020181018584845b8781101561337e578284038952813560de19883603018112613450578687fd5b87018035855260e08682013561346581614ca8565b613471888801826135ad565b50604061347f818401612ccd565b61348b828901826135ad565b5050606061349a818401612d49565b6134a68289018261384f565b50506080828101359087015260a0808301359087015260c06134ca81840184614509565b935082828901526134de83890185836135b3565b9c89019c97505050928601925050600101613430565b60008284527f07ffffffffffffffffffffffffffffffffffffffffffffffffffffffffffffff831115613525578081fd5b6020830280836020870137939093016020019283525090919050565b6000815180845260208085019450808401835b8381101561357057815187529582019590820190600101613554565b509495945050505050565b6000815480845260208085019450838352808320835b8381101561357057815487529582019560019182019101613591565b15159052565b60008284528282602086013780602084860101526020601f19601f85011685010190509392505050565b600081518084526135f5816020860160208601614710565b601f01601f19169290920160200192915050565b600081546136168161473c565b808552602060018381168015613633576001811461364757613675565b60ff19851688840152604088019550613675565b866000528260002060005b8581101561366d5781548a8201860152908301908401613652565b890184019650505b505050505092915050565b6007811061369e57634e487b7160e01b600052602160045260246000fd5b9052565b60006101006136b9846136b485612c0d565b613324565b6020830135602085015260408301356040850152606083013560608501526136e460808401846144c1565b8260808701526136f783870182846134f4565b9250505061370860a08401846144c1565b85830360a087015261371b8382846134f4565b9250505061372c60c08401846144c1565b85830360c087015261373f838284613331565b9250505061375060e0840184614509565b85830360e08701526120378382846135b3565b6000610100613776846136b485546145ba565b6001830154602085015260028301546040850152600383015460608501528060808501526137a98185016004850161357b565b905083810360a08501526137c0816005850161357b565b905083810360c08501526137d781600685016133d1565b905083810360e08501526132698160078501613609565b60006001600160a01b03825416835260018201546020840152600282015460408401526003820154606084015260c0608084015261383260c084016004840161357b565b60ff60058401541661384760a0860182613680565b509392505050565b60ff169052565b6001600160a01b0391909116815260200190565b60006001600160a01b03851682526060602083015261388c6060830185613763565b828103604084015261203781856137ee565b60208082528251828201819052600091906040908185019080840286018301878501865b8381101561394257603f19898403018552815160c06001600160a01b038251168552888201518986015287820151888601526060808301518187015250608080830151828288015261391683880182613541565b9250505060a080830151925061392e81870184613680565b5095880195935050908601906001016138c2565b509098975050505050505050565b60006040808301818452808654808352606092508286019150602083818302880101898752818720875b84811015613a0957605f198a840301865260e082548452600183015460ff6139a68787018284166135ad565b6139b78b8701828460081c166135ad565b6139c88a8701828460101c1661384f565b505060028301546080850152600383015460a08501528060c08501526139f381850160048501613609565b968501969350506005919091019060010161397a565b5050960196909652509295945050505050565b901515815260200190565b90815260200190565b6001600160e01b031991909116815260200190565b600060208252612d7060208301846135dd565b60006001600160a01b038716825285602083015284604083015260806060830152613a876080830184866134f4565b979650505050505050565b600060a0820190506001600160a01b03871682528560208301528460408301528360608301526120376080830184613680565b60006001600160a01b038089168352808816602084015280871660408401525084606083015260c06080830152613aff60c08301856135dd565b82810360a0840152610100613b15828651613324565b6020850151602083015260408501516040830152606085015160608301526080850151816080840152613b4a82840182613541565b91505060a085015182820360a0840152613b648282613541565b91505060c085015182820360c0840152613b7e828261338b565b91505060e085015182820360e0840152613b9882826135dd565b9b9a5050505050505050505050565b600060408252613bba60408301856135dd565b90508260208301529392505050565b60208082526014908201527f43757272656e7420736f6c766520616374697665000000000000000000000000604082015260600190565b6020808252600a908201527f4f6e6c794b656570657200000000000000000000000000000000000000000000604082015260600190565b60208082526010908201527f536f6c76657220686173206368696c6400000000000000000000000000000000604082015260600190565b60208082526011908201527f506f727420696e76616c6964207665722e000000000000000000000000000000604082015260600190565b60208082526016908201527f436f6e646974696f6e206e6f7420457865637574656400000000000000000000604082015260600190565b60208082526015908201527f6d73672e73656e646572206e6f7420736f6c7665720000000000000000000000604082015260600190565b6020808252600c908201527f4f6e6c7920666163746f72790000000000000000000000000000000000000000604082015260600190565b6020808252600b908201527f4f6e6c79204b6565706572000000000000000000000000000000000000000000604082015260600190565b60208082526015908201527f54696d656c6f636b207374696c6c206c6f636b65640000000000000000000000604082015260600190565b6020808252600f908201527f696e676573747320696e76616c69640000000000000000000000000000000000604082015260600190565b60208082526018908201527f4e6f74204172626974726174696f6e5265717565737465640000000000000000604082015260600190565b6020808252602e908201527f496e697469616c697a61626c653a20636f6e747261637420697320616c72656160408201527f647920696e697469616c697a6564000000000000000000000000000000000000606082015260800190565b6020808252600f908201527f4f6e6c792061726269747261746f720000000000000000000000000000000000604082015260600190565b6020808252600e908201527f4b656570657220696e76616c6964000000000000000000000000000000000000604082015260600190565b60208082526014908201527f4f7574636f6d65206e6f742070726f706f736564000000000000000000000000604082015260600190565b60208082526013908201527f4e6f74204f7574636f6d6550726f706f73656400000000000000000000000000604082015260600190565b60208082526016908201527f4e6f74204172626974726174696f6e50656e64696e6700000000000000000000604082015260600190565b60208082526012908201527f4f6e6c79206b65657065722f706172656e740000000000000000000000000000604082015260600190565b6020808252600e908201527f547261636b696e67496420736574000000000000000000000000000000000000604082015260600190565b60208082526013908201527f496e67657374206e6f7420646566657272656400000000000000000000000000604082015260600190565b60208082526014908201527f536c6f742076657273696f6e20696e76616c6964000000000000000000000000604082015260600190565b6020808252600d908201527f6e6f7420496e6974696174656400000000000000000000000000000000000000604082015260600190565b6000608082526140bc6080830187613763565b6001600160a01b0395861660208401529390941660408201526060015292915050565b6000848252604060208301526131066040830184866134f4565b60006040820184835260206040818501528185518084526060860191508287019350845b81811015612cc05784518352938301939183019160010161411d565b600060a0825261414c60a08301886137ee565b828103602084015261415e8188613763565b6001600160a01b039690961660408401525050606081019290925260809091015292915050565b600060408252613bba60408301856137ee565b60006060825284356141a981614c93565b6141b66060840182613324565b506141c360208601612c0d565b6141d06080840182613324565b506141dd60408601612c0d565b6141ea60a0840182613324565b50606085013560c08301526142026080860186614509565b60e080850152614217610140850182846135b3565b91505061422760a08701876144c1565b605f198086850301610100870152614240848385613419565b935061424f60c08a018a61454e565b92508086850301610120870152505061426882826136a2565b925050506142796020830185613324565b826040830152949350505050565b9182526001600160a01b0316602082015260400190565b9485526001600160a01b03938416602086015291831660408501529091166060830152608082015260a00190565b918252602082015260400190565b6000808335601e198436030181126142f0578283fd5b83018035915067ffffffffffffffff82111561430a578283fd5b6020908101925081023603821315612c5a57600080fd5b6000808335601e19843603018112614337578283fd5b83018035915067ffffffffffffffff821115614351578283fd5b602001915036819003821315612c5a57600080fd5b6000823560fe1983360301811261437b578182fd5b9190910192915050565b6000823560de1983360301811261437b578182fd5b60405181810167ffffffffffffffff811182821017156143bc576143bc6147cb565b604052919050565b600067ffffffffffffffff8211156143de576143de6147cb565b5060209081020190565b600067ffffffffffffffff821115614402576144026147cb565b50601f01601f191660200190565b60009081526020902090565b60208410801561447257601f8411600181146144435761443c8685614771565b835561446c565b61444c83614410565b6144616020601f8801048201600183016145c6565b5061446c8684614852565b50612008565b8160005260206000206020601f8701048101601f8716801561449c5761449c8160001984016147e1565b506144af6020601f8801048301826145c6565b50506001856002021782555050505050565b6000808335601e198436030181126144d7578283fd5b830160208101925035905067ffffffffffffffff8111156144f757600080fd5b602081023603831315612c5a57600080fd5b6000808335601e1984360301811261451f578283fd5b830160208101925035905067ffffffffffffffff81111561453f57600080fd5b803603831315612c5a57600080fd5b6000823560fe19833603018112614563578182fd5b90910192915050565b6000821982111561457f5761457f6147b5565b500190565b600081600019048311821515161561459e5761459e6147b5565b500290565b6000828210156145b5576145b56147b5565b500390565b6001600160a01b031690565b5b818110156105cb57600081556001016145c7565b6145e58382614815565b818160005260208060002060005b8681101561460f578335825592820192600191820191016145f3565b50505050505050565b67ffffffffffffffff831115614630576146306147cb565b61463a815461473c565b600080601f8611601f8411818117156146595761465686614410565b92505b8015614688576020601f890104830160208910156146745750825b6146866020601f8801048501826145c6565b505b5080600181146146b4576000945087156146a3578387013594505b6146ad8886614771565b8655614706565b601f198816945082845b868110156146de57888601358255602095860195600190920191016146be565b50888610156146fb57878501356000196008601f8c16021c191681555b506001600289020186555b5050505050505050565b60005b8381101561472b578181015183820152602001614713565b83811115610c455750506000910152565b60028104600182168061475057607f821691505b60208210811415612d4357634e487b7160e01b600052602260045260246000fd5b600019600883021c191660029091021790565b6000600019821415614798576147986147b5565b5060010190565b634e487b7160e01b600052600060045260246000fd5b634e487b7160e01b600052601160045260246000fd5b634e487b7160e01b600052604160045260246000fd5b8054600019836020036008021c1681555050565b6000813561480281614ca8565b92915050565b6000813561480281614cb6565b6801000000000000000082111561482e5761482e6147cb565b805482825580831015610a2f57816000526020600020610c458282018583016145c6565b806000526020600020614866838254614771565b9091556000905550565b6001600160a01b0382166001600160a01b03198254161781555050565b813561489881614c93565b6148a28183614870565b5060016020808401358284015560408401356002840155606084013560038401556148d060808501856142da565b6148de8183600488016145db565b50506148ed60a08501856142da565b6148fb8183600588016145db565b50506006830161490e60c08601866142da565b68010000000000000000811115614927576149276147cb565b8254818455808210156149625760008481528581208381019083015b8082101561495e576149558383614815565b90880190614943565b5050505b508161496d84614410565b93506000805b838110156149a25761498583866142da565b6149918183868b614bcb565b505094870194918601918701614973565b50505050505050506149b760e0830183614321565b610c45818360078601614618565b81356149d081614c93565b6149da8183614870565b5060016020808401356149ec81614c93565b6149f881848601614870565b5060026040850135614a0981614c93565b614a1581838701614870565b5060036060860135818601556004614a306080880188614321565b614a3d8183858b01614618565b50506005808701614a5160a08a018a6142da565b68010000000000000000811115614a6a57614a6a6147cb565b825481845580821015614b32577f33333333333333333333333333333333333333333333333333333333333333338082118b1615614aaa57614aaa6147b5565b8083118b1615614abc57614abc6147b5565b506000848152898120838702810190878402015b80821015614b2e57614ae3838484614c74565b828d830155614af583848d8501614c74565b614b0283848c8501614c74565b8882018054614b108161473c565b8015614b2257614b228682848661441c565b50505090870190614ad0565b5050505b50819650614b3f83614410565b9550600094508492505b80831015614b7657614b65614b5e8884614385565b8688614be4565b958701959483019491880191614b49565b5050505050505050506105cb614b8f60c0840184614366565b6006830161488d565b805461ff00191691151560081b61ff0016919091179055565b805462ff00008360101b1662ff0000198216178255505050565b8115614bd957614bd961479f565b610c458484836145db565b8115614bf257614bf261479f565b82358155600181016020840135614c0881614ca8565b815490151560ff1660ff1991909116178155614c2f614c29604086016147f5565b82614b98565b614c44614c3e60608601614808565b82614bb1565b506080830135600282015560a08301356003820155614c6660c0840184614321565b612008818360048601614618565b805460088302600019811b8086831b1681198416178455505050505050565b6001600160a01b038116811461276657600080fd5b801515811461276657600080fd5b60ff8116811461276657600080fdfea26469706673582212204350df5ae7d77659721afffad3c7947a493495c684db5bc0b96305e37618940664736f6c63430008000033",
  "linkReferences": {
    "contracts/SolverLib.sol": {
      "SolverLib": [
        {
          "length": 20,
          "start": 1345
        },
        {
          "length": 20,
          "start": 1814
        },
        {
          "length": 20,
          "start": 2340
        },
        {
          "length": 20,
          "start": 3231
        },
        {
          "length": 20,
          "start": 3889
        },
        {
          "length": 20,
          "start": 4086
        },
        {
          "length": 20,
          "start": 4452
        },
        {
          "length": 20,
          "start": 4799
        },
        {
          "length": 20,
          "start": 4841
        },
        {
          "length": 20,
          "start": 6308
        },
        {
          "length": 20,
          "start": 6392
        },
        {
          "length": 20,
          "start": 8076
        },
        {
          "length": 20,
          "start": 9059
        },
        {
          "length": 20,
          "start": 10950
        }
      ]
    }
  },
  "deployedLinkReferences": {
    "contracts/SolverLib.sol": {
      "SolverLib": [
        {
          "length": 20,
          "start": 1313
        },
        {
          "length": 20,
          "start": 1782
        },
        {
          "length": 20,
          "start": 2308
        },
        {
          "length": 20,
          "start": 3199
        },
        {
          "length": 20,
          "start": 3857
        },
        {
          "length": 20,
          "start": 4054
        },
        {
          "length": 20,
          "start": 4420
        },
        {
          "length": 20,
          "start": 4767
        },
        {
          "length": 20,
          "start": 4809
        },
        {
          "length": 20,
          "start": 6276
        },
        {
          "length": 20,
          "start": 6360
        },
        {
          "length": 20,
          "start": 8044
        },
        {
          "length": 20,
          "start": 9027
        },
        {
          "length": 20,
          "start": 10918
        }
      ]
    }
  }
}