{
  "_format": "hh-sol-artifact-1",
  "contractName": "ProposalsHub",
  "sourceName": "contracts/ProposalsHub.sol",
  "abi": [
    {
      "inputs": [
        {
          "internalType": "address",
          "name": "_ctfAddress",
          "type": "address"
        }
      ],
      "stateMutability": "nonpayable",
      "type": "constructor"
    },
    {
      "anonymous": false,
      "inputs": [
        {
          "indexed": false,
          "internalType": "bytes32",
          "name": "id",
          "type": "bytes32"
        }
      ],
      "name": "CreateProposal",
      "type": "event"
    },
    {
      "anonymous": false,
      "inputs": [
        {
          "indexed": false,
          "internalType": "bytes32",
          "name": "id",
          "type": "bytes32"
        }
      ],
      "name": "ExecuteProposal",
      "type": "event"
    },
    {
      "inputs": [],
      "name": "conditionalTokens",
      "outputs": [
        {
          "internalType": "contract IConditionalTokens",
          "name": "",
          "type": "address"
        }
      ],
      "stateMutability": "view",
      "type": "function"
    },
    {
      "inputs": [
        {
          "internalType": "bytes32",
          "name": "solutionId",
          "type": "bytes32"
        },
        {
          "internalType": "contract IERC20",
          "name": "collateralToken",
          "type": "address"
        },
        {
          "internalType": "contract IIPFSSolutionsHub",
          "name": "ipfsSolutionsHub",
          "type": "address"
        },
        {
          "internalType": "uint256",
          "name": "fundingGoal",
          "type": "uint256"
        },
        {
          "components": [
            {
              "internalType": "contract Solver",
              "name": "implementation",
              "type": "address"
            },
            {
              "internalType": "address",
              "name": "keeper",
              "type": "address"
            },
            {
              "internalType": "address",
              "name": "arbitrator",
              "type": "address"
            },
            {
              "internalType": "uint256",
              "name": "timelockSeconds",
              "type": "uint256"
            },
            {
              "internalType": "bytes",
              "name": "data",
              "type": "bytes"
            },
            {
              "components": [
                {
                  "internalType": "uint256",
                  "name": "executions",
                  "type": "uint256"
                },
                {
                  "internalType": "enum SolverLib.IngestType",
                  "name": "ingestType",
                  "type": "uint8"
                },
                {
                  "internalType": "bytes32",
                  "name": "slot",
                  "type": "bytes32"
                },
                {
                  "internalType": "uint256",
                  "name": "solverIndex",
                  "type": "uint256"
                },
                {
                  "internalType": "bytes",
                  "name": "data",
                  "type": "bytes"
                }
              ],
              "internalType": "struct SolverLib.Ingest[]",
              "name": "ingests",
              "type": "tuple[]"
            },
            {
              "components": [
                {
                  "internalType": "contract IERC20",
                  "name": "collateralToken",
                  "type": "address"
                },
                {
                  "internalType": "uint256",
                  "name": "outcomeSlots",
                  "type": "uint256"
                },
                {
                  "internalType": "uint256",
                  "name": "parentCollectionIndexSet",
                  "type": "uint256"
                },
                {
                  "internalType": "bytes32",
                  "name": "amountSlot",
                  "type": "bytes32"
                },
                {
                  "internalType": "uint256[]",
                  "name": "partition",
                  "type": "uint256[]"
                },
                {
                  "components": [
                    {
                      "internalType": "bytes32",
                      "name": "recipientAddressSlot",
                      "type": "bytes32"
                    },
                    {
                      "internalType": "bytes32[]",
                      "name": "recipientAmountSlots",
                      "type": "bytes32[]"
                    }
                  ],
                  "internalType": "struct SolverLib.Allocation[]",
                  "name": "allocations",
                  "type": "tuple[]"
                },
                {
                  "components": [
                    {
                      "internalType": "bytes32",
                      "name": "digest",
                      "type": "bytes32"
                    },
                    {
                      "internalType": "uint8",
                      "name": "hashFunction",
                      "type": "uint8"
                    },
                    {
                      "internalType": "uint8",
                      "name": "size",
                      "type": "uint8"
                    }
                  ],
                  "internalType": "struct SolverLib.Multihash[]",
                  "name": "outcomeURIs",
                  "type": "tuple[]"
                }
              ],
              "internalType": "struct SolverLib.ConditionBase",
              "name": "conditionBase",
              "type": "tuple"
            }
          ],
          "internalType": "struct SolverLib.Config[]",
          "name": "solverConfigs",
          "type": "tuple[]"
        },
        {
          "components": [
            {
              "internalType": "bytes32",
              "name": "digest",
              "type": "bytes32"
            },
            {
              "internalType": "uint8",
              "name": "hashFunction",
              "type": "uint8"
            },
            {
              "internalType": "uint8",
              "name": "size",
              "type": "uint8"
            }
          ],
          "internalType": "struct SolverLib.Multihash",
          "name": "solverConfigsCID",
          "type": "tuple"
        }
      ],
      "name": "createIPFSSolutionAndProposal",
      "outputs": [
        {
          "internalType": "bytes32",
          "name": "solutionID",
          "type": "bytes32"
        },
        {
          "internalType": "bytes32",
          "name": "proposalID",
          "type": "bytes32"
        }
      ],
      "stateMutability": "nonpayable",
      "type": "function"
    },
    {
      "inputs": [
        {
          "internalType": "contract IERC20",
          "name": "collateralToken",
          "type": "address"
        },
        {
          "internalType": "address",
          "name": "solutionsHub",
          "type": "address"
        },
        {
          "internalType": "uint256",
          "name": "fundingGoal",
          "type": "uint256"
        },
        {
          "internalType": "bytes32",
          "name": "solutionId",
          "type": "bytes32"
        }
      ],
      "name": "createProposal",
      "outputs": [
        {
          "internalType": "bytes32",
          "name": "proposalId",
          "type": "bytes32"
        }
      ],
      "stateMutability": "nonpayable",
      "type": "function"
    },
    {
      "inputs": [
        {
          "internalType": "bytes32",
          "name": "proposalId",
          "type": "bytes32"
        },
        {
          "internalType": "contract IERC20",
          "name": "token",
          "type": "address"
        },
        {
          "internalType": "uint256",
          "name": "amount",
          "type": "uint256"
        }
      ],
      "name": "defundProposal",
      "outputs": [],
      "stateMutability": "nonpayable",
      "type": "function"
    },
    {
      "inputs": [
        {
          "internalType": "bytes32",
          "name": "proposalId",
          "type": "bytes32"
        },
        {
          "components": [
            {
              "internalType": "contract Solver",
              "name": "implementation",
              "type": "address"
            },
            {
              "internalType": "address",
              "name": "keeper",
              "type": "address"
            },
            {
              "internalType": "address",
              "name": "arbitrator",
              "type": "address"
            },
            {
              "internalType": "uint256",
              "name": "timelockSeconds",
              "type": "uint256"
            },
            {
              "internalType": "bytes",
              "name": "data",
              "type": "bytes"
            },
            {
              "components": [
                {
                  "internalType": "uint256",
                  "name": "executions",
                  "type": "uint256"
                },
                {
                  "internalType": "enum SolverLib.IngestType",
                  "name": "ingestType",
                  "type": "uint8"
                },
                {
                  "internalType": "bytes32",
                  "name": "slot",
                  "type": "bytes32"
                },
                {
                  "internalType": "uint256",
                  "name": "solverIndex",
                  "type": "uint256"
                },
                {
                  "internalType": "bytes",
                  "name": "data",
                  "type": "bytes"
                }
              ],
              "internalType": "struct SolverLib.Ingest[]",
              "name": "ingests",
              "type": "tuple[]"
            },
            {
              "components": [
                {
                  "internalType": "contract IERC20",
                  "name": "collateralToken",
                  "type": "address"
                },
                {
                  "internalType": "uint256",
                  "name": "outcomeSlots",
                  "type": "uint256"
                },
                {
                  "internalType": "uint256",
                  "name": "parentCollectionIndexSet",
                  "type": "uint256"
                },
                {
                  "internalType": "bytes32",
                  "name": "amountSlot",
                  "type": "bytes32"
                },
                {
                  "internalType": "uint256[]",
                  "name": "partition",
                  "type": "uint256[]"
                },
                {
                  "components": [
                    {
                      "internalType": "bytes32",
                      "name": "recipientAddressSlot",
                      "type": "bytes32"
                    },
                    {
                      "internalType": "bytes32[]",
                      "name": "recipientAmountSlots",
                      "type": "bytes32[]"
                    }
                  ],
                  "internalType": "struct SolverLib.Allocation[]",
                  "name": "allocations",
                  "type": "tuple[]"
                },
                {
                  "components": [
                    {
                      "internalType": "bytes32",
                      "name": "digest",
                      "type": "bytes32"
                    },
                    {
                      "internalType": "uint8",
                      "name": "hashFunction",
                      "type": "uint8"
                    },
                    {
                      "internalType": "uint8",
                      "name": "size",
                      "type": "uint8"
                    }
                  ],
                  "internalType": "struct SolverLib.Multihash[]",
                  "name": "outcomeURIs",
                  "type": "tuple[]"
                }
              ],
              "internalType": "struct SolverLib.ConditionBase",
              "name": "conditionBase",
              "type": "tuple"
            }
          ],
          "internalType": "struct SolverLib.Config[]",
          "name": "solverConfigs",
          "type": "tuple[]"
        }
      ],
      "name": "executeIPFSProposal",
      "outputs": [],
      "stateMutability": "nonpayable",
      "type": "function"
    },
    {
      "inputs": [
        {
          "internalType": "bytes32",
          "name": "proposalId",
          "type": "bytes32"
        }
      ],
      "name": "executeProposal",
      "outputs": [],
      "stateMutability": "nonpayable",
      "type": "function"
    },
    {
      "inputs": [
        {
          "internalType": "bytes32",
          "name": "proposalId",
          "type": "bytes32"
        },
        {
          "internalType": "contract IERC20",
          "name": "token",
          "type": "address"
        },
        {
          "internalType": "uint256",
          "name": "amount",
          "type": "uint256"
        }
      ],
      "name": "fundProposal",
      "outputs": [],
      "stateMutability": "nonpayable",
      "type": "function"
    },
    {
      "inputs": [
        {
          "internalType": "bytes32",
          "name": "",
          "type": "bytes32"
        },
        {
          "internalType": "address",
          "name": "",
          "type": "address"
        }
      ],
      "name": "funderAmountMap",
      "outputs": [
        {
          "internalType": "uint256",
          "name": "",
          "type": "uint256"
        }
      ],
      "stateMutability": "view",
      "type": "function"
    },
    {
      "inputs": [
        {
          "internalType": "bytes32",
          "name": "id",
          "type": "bytes32"
        }
      ],
      "name": "getContext",
      "outputs": [
        {
          "components": [
            {
              "internalType": "bytes32",
              "name": "digest",
              "type": "bytes32"
            },
            {
              "internalType": "uint8",
              "name": "hashFunction",
              "type": "uint8"
            },
            {
              "internalType": "uint8",
              "name": "size",
              "type": "uint8"
            }
          ],
          "internalType": "struct SolverLib.Multihash",
          "name": "",
          "type": "tuple"
        }
      ],
      "stateMutability": "view",
      "type": "function"
    },
    {
      "inputs": [
        {
          "internalType": "bytes32",
          "name": "id",
          "type": "bytes32"
        }
      ],
      "name": "getProposal",
      "outputs": [
        {
          "components": [
            {
              "internalType": "bool",
              "name": "isExecuted",
              "type": "bool"
            },
            {
              "internalType": "contract IERC20",
              "name": "collateralToken",
              "type": "address"
            },
            {
              "internalType": "address",
              "name": "proposer",
              "type": "address"
            },
            {
              "internalType": "address",
              "name": "solutionsHub",
              "type": "address"
            },
            {
              "internalType": "bytes32",
              "name": "id",
              "type": "bytes32"
            },
            {
              "internalType": "bytes32",
              "name": "solutionId",
              "type": "bytes32"
            },
            {
              "internalType": "uint256",
              "name": "funding",
              "type": "uint256"
            },
            {
              "internalType": "uint256",
              "name": "fundingGoal",
              "type": "uint256"
            },
            {
              "components": [
                {
                  "internalType": "bytes32",
                  "name": "digest",
                  "type": "bytes32"
                },
                {
                  "internalType": "uint8",
                  "name": "hashFunction",
                  "type": "uint8"
                },
                {
                  "internalType": "uint8",
                  "name": "size",
                  "type": "uint8"
                }
              ],
              "internalType": "struct SolverLib.Multihash",
              "name": "context",
              "type": "tuple"
            }
          ],
          "internalType": "struct ProposalsHub.Proposal",
          "name": "proposal",
          "type": "tuple"
        }
      ],
      "stateMutability": "view",
      "type": "function"
    },
    {
      "inputs": [
        {
          "internalType": "bytes32",
          "name": "id",
          "type": "bytes32"
        }
      ],
      "name": "isProposal",
      "outputs": [
        {
          "internalType": "bool",
          "name": "",
          "type": "bool"
        }
      ],
      "stateMutability": "view",
      "type": "function"
    },
    {
      "inputs": [
        {
          "internalType": "address",
          "name": "operator",
          "type": "address"
        },
        {
          "internalType": "address",
          "name": "from",
          "type": "address"
        },
        {
          "internalType": "uint256[]",
          "name": "ids",
          "type": "uint256[]"
        },
        {
          "internalType": "uint256[]",
          "name": "values",
          "type": "uint256[]"
        },
        {
          "internalType": "bytes",
          "name": "data",
          "type": "bytes"
        }
      ],
      "name": "onERC1155BatchReceived",
      "outputs": [
        {
          "internalType": "bytes4",
          "name": "",
          "type": "bytes4"
        }
      ],
      "stateMutability": "nonpayable",
      "type": "function"
    },
    {
      "inputs": [
        {
          "internalType": "address",
          "name": "operator",
          "type": "address"
        },
        {
          "internalType": "address",
          "name": "from",
          "type": "address"
        },
        {
          "internalType": "uint256",
          "name": "id",
          "type": "uint256"
        },
        {
          "internalType": "uint256",
          "name": "value",
          "type": "uint256"
        },
        {
          "internalType": "bytes",
          "name": "data",
          "type": "bytes"
        }
      ],
      "name": "onERC1155Received",
      "outputs": [
        {
          "internalType": "bytes4",
          "name": "",
          "type": "bytes4"
        }
      ],
      "stateMutability": "nonpayable",
      "type": "function"
    },
    {
      "inputs": [
        {
          "internalType": "bytes32",
          "name": "",
          "type": "bytes32"
        }
      ],
      "name": "proposals",
      "outputs": [
        {
          "internalType": "bool",
          "name": "isExecuted",
          "type": "bool"
        },
        {
          "internalType": "contract IERC20",
          "name": "collateralToken",
          "type": "address"
        },
        {
          "internalType": "address",
          "name": "proposer",
          "type": "address"
        },
        {
          "internalType": "address",
          "name": "solutionsHub",
          "type": "address"
        },
        {
          "internalType": "bytes32",
          "name": "id",
          "type": "bytes32"
        },
        {
          "internalType": "bytes32",
          "name": "solutionId",
          "type": "bytes32"
        },
        {
          "internalType": "uint256",
          "name": "funding",
          "type": "uint256"
        },
        {
          "internalType": "uint256",
          "name": "fundingGoal",
          "type": "uint256"
        },
        {
          "components": [
            {
              "internalType": "bytes32",
              "name": "digest",
              "type": "bytes32"
            },
            {
              "internalType": "uint8",
              "name": "hashFunction",
              "type": "uint8"
            },
            {
              "internalType": "uint8",
              "name": "size",
              "type": "uint8"
            }
          ],
          "internalType": "struct SolverLib.Multihash",
          "name": "context",
          "type": "tuple"
        }
      ],
      "stateMutability": "view",
      "type": "function"
    },
    {
      "inputs": [
        {
          "internalType": "bytes32",
          "name": "proposalId",
          "type": "bytes32"
        },
        {
          "internalType": "uint256",
          "name": "tokenId",
          "type": "uint256"
        }
      ],
      "name": "reclaimTokens",
      "outputs": [],
      "stateMutability": "nonpayable",
      "type": "function"
    },
    {
      "inputs": [
        {
          "internalType": "bytes32",
          "name": "",
          "type": "bytes32"
        },
        {
          "internalType": "uint256",
          "name": "",
          "type": "uint256"
        }
      ],
      "name": "reclaimableTokens",
      "outputs": [
        {
          "internalType": "uint256",
          "name": "",
          "type": "uint256"
        }
      ],
      "stateMutability": "view",
      "type": "function"
    },
    {
      "inputs": [
        {
          "internalType": "uint256",
          "name": "",
          "type": "uint256"
        },
        {
          "internalType": "address",
          "name": "",
          "type": "address"
        }
      ],
      "name": "reclaimedTokens",
      "outputs": [
        {
          "internalType": "uint256",
          "name": "",
          "type": "uint256"
        }
      ],
      "stateMutability": "view",
      "type": "function"
    },
    {
      "inputs": [
        {
          "internalType": "bytes4",
          "name": "interfaceId",
          "type": "bytes4"
        }
      ],
      "name": "supportsInterface",
      "outputs": [
        {
          "internalType": "bool",
          "name": "",
          "type": "bool"
        }
      ],
      "stateMutability": "view",
      "type": "function"
    },
    {
      "inputs": [
        {
          "internalType": "bytes32",
          "name": "_proposalId",
          "type": "bytes32"
        },
        {
          "internalType": "address",
          "name": "_solver",
          "type": "address"
        }
      ],
      "name": "transferERC20",
      "outputs": [],
      "stateMutability": "nonpayable",
      "type": "function"
    }
  ],
  "bytecode": "0x60a060405234801561001057600080fd5b506040516200233a3803806200233a83398101604081905261003191610046565b60601b6001600160601b031916608052610074565b600060208284031215610057578081fd5b81516001600160a01b038116811461006d578182fd5b9392505050565b60805160601c6122a06200009a60003960008181610b1f0152610dad01526122a06000f3fe608060405234801561001057600080fd5b50600436106100f15760003560e01c806301ffc9a7146100f6578063116f94d01461011f5780631918063f1461013f57806329b2be011461015457806332c8506e1461017457806332ed5b121461018757806333c15c34146101af578063430694cf146101c25780634c68aeec146101e257806353ba3f571461020357806354dd9927146102165780635bd9e2991461022957806383460ba81461023e578063980ff6c614610251578063b70c764c14610264578063bc197c8114610277578063c12639f714610297578063d3f79a05146102aa578063f23a6e61146102bd575b600080fd5b610109610104366004611648565b6102d0565b6040516101169190611b77565b60405180910390f35b61013261012d366004611670565b6102fd565b6040516101169190611bd5565b61015261014d3660046114e3565b61044a565b005b6101676101623660046114b3565b610611565b6040516101169190612026565b610152610182366004611512565b61065f565b61019a6101953660046114b3565b610787565b60405161011699989796959493929190611b82565b6101326101bd3660046114e3565b61080c565b6101d56101d03660046114b3565b610829565b604051610116919061203a565b6101f56101f036600461155b565b6108e5565b604051610116929190611bde565b610132610211366004611627565b61098a565b6101526102243660046115f0565b6109a7565b610231610b1d565b6040516101169190611c5b565b61013261024c3660046114e3565b610b41565b61015261025f3660046114b3565b610b5e565b610152610272366004611627565b610c71565b61028a610285366004611360565b610e56565b6040516101169190611c46565b6101526102a53660046115f0565b610f51565b6101096102b83660046114b3565b611144565b61028a6102cb36600461141a565b61115b565b60006001600160e01b03198216630271189760e51b14806102f557506102f5826111ec565b90505b919050565b60008054818061030c83612201565b91905055503382868560005460405160200161032c959493929190611a81565b60408051601f19818403018152828252805160209182012060008181526001928390529290922080546001600160a01b03808b1661010002610100600160a81b031990921691909117825591810180546001600160a01b03199081163317909155600282018054938a169390911683179055600381018390556004808201879055600682018890556373c587f560e01b85529294509290916373c587f5916103d8918691889101611bde565b600060405180830381600087803b1580156103f257600080fd5b505af1158015610406573d6000803e3d6000fd5b505050507f2d231481d8c1af3958a30a257e93e0df6b089bc07ebedc0a86e7355d1aaf1338826040516104399190611bd5565b60405180910390a150949350505050565b6000828152600160205260409020600201546001600160a01b0316331461048c5760405162461bcd60e51b815260040161048390611cff565b60405180910390fd5b6001600160a01b0381166104b25760405162461bcd60e51b815260040161048390611c6f565b6000828152600160205260408082206002810154600491820154925162c8a40d60e51b81526001600160a01b038087169592169363191481a0936104f893919201611bde565b60206040518083038186803b15801561051057600080fd5b505afa158015610524573d6000803e3d6000fd5b505050506040513d601f19601f82011682018060405250810190610548919061133d565b6001600160a01b03161461056e5760405162461bcd60e51b815260040161048390611ccd565b600082815260016020526040908190208054600590910154915163a9059cbb60e01b81526101009091046001600160a01b031691829163a9059cbb916105b991869190600401611b5e565b602060405180830381600087803b1580156105d357600080fd5b505af11580156105e7573d6000803e3d6000fd5b505050506040513d601f19601f8201168201806040525081019061060b9190611493565b50505050565b610619611238565b5060009081526001602090815260409182902082516060810184526007820154815260089091015460ff8082169383019390935261010090049091169181019190915290565b6000838152600160205260409020600681015460059091015410156106965760405162461bcd60e51b815260040161048390611e05565b60008381526001602052604090205460ff16156106c55760405162461bcd60e51b815260040161048390611fdf565b6000838152600160205260409081902060028101546004918201549251632034967b60e21b81526001600160a01b03909116926380d259ec9261070f928892918891889101611bec565b600060405180830381600087803b15801561072957600080fd5b505af115801561073d573d6000803e3d6000fd5b505050600084815260016020819052604091829020805460ff191690911790555160008051602061224b833981519152915061077a908590611bd5565b60405180910390a1505050565b600160208181526000928352604092839020805492810154600282015460038301546004840154600585015460068601548951606081018b526007880154815260089097015460ff818116998901999099526101009081900489169a88019a909a52968816986001600160a01b03980488169794851696939094169491939092909189565b600460209081526000928352604080842090915290825290205481565b610831611258565b50600090815260016020818152604092839020835161012081018552815460ff808216151583526001600160a01b036101009283900481168487015295840154861683880152600284015490951660608084019190915260038401546080840152600484015460a0840152600584015460c0840152600684015460e0840152865190810187526007840154815260089093015480861694840194909452928390049093169381019390935281019190915290565b600080866001600160a01b0316635f49a4348a8a8888886040518663ffffffff1660e01b815260040161091c959493929190611c0c565b602060405180830381600087803b15801561093657600080fd5b505af115801561094a573d6000803e3d6000fd5b505050506040513d601f19601f8201168201806040525081019061096e91906114cb565b915061097c8888888c6102fd565b905097509795505050505050565b600360209081526000928352604080842090915290825290205481565b6000838152600160205260409020600301546109d55760405162461bcd60e51b815260040161048390611e67565b60008381526001602052604090205460ff1615610a045760405162461bcd60e51b815260040161048390611fdf565b6000838152600160205260409020546001600160a01b038381166101009092041614610a425760405162461bcd60e51b815260040161048390611f42565b60008111610a625760405162461bcd60e51b815260040161048390611e38565b6000838152600260209081526040808320338452909152902054811115610a9b5760405162461bcd60e51b815260040161048390611d7e565b60008381526001602052604081206005018054839290610abc9084906121ea565b9091555050600083815260026020908152604080832033845290915281208054839290610aea9084906121ea565b909155505060405163a9059cbb60e01b81526001600160a01b0383169063a9059cbb906105b99033908590600401611b5e565b7f000000000000000000000000000000000000000000000000000000000000000081565b600260209081526000928352604080842090915290825290205481565b600081815260016020526040902060068101546005909101541015610b955760405162461bcd60e51b815260040161048390611e05565b60008181526001602052604090205460ff1615610bc45760405162461bcd60e51b815260040161048390611fdf565b600081815260016020819052604091829020805460ff1916909117815560028101546004918201549251630c17772560e31b81526001600160a01b03909116926360bbb92892610c179286929101611bde565b600060405180830381600087803b158015610c3157600080fd5b505af1158015610c45573d6000803e3d6000fd5b5050505060008051602061224b83398151915281604051610c669190611bd5565b60405180910390a150565b6000828152600260209081526040808320338452909152902054610ca75760405162461bcd60e51b815260040161048390611ecb565b60008281526002602090815260408083203384528252808320548584526001909252822060050154610cd991906121ca565b6000838152600460209081526040808320338452825280832054878452600383528184208785529092528220549293509091610d169084906121ca565b610d2091906121ea565b905060008111610d425760405162461bcd60e51b815260040161048390611f10565b6000848152600360209081526040808320868452909152902054811115610d7b5760405162461bcd60e51b815260040161048390611c98565b600083815260046020908152604080832033845290915281208054839290610da49084906121b2565b925050819055507f00000000000000000000000000000000000000000000000000000000000000006001600160a01b031663f242432a3033868589604051602001610def9190611bd5565b6040516020818303038152906040526040518663ffffffff1660e01b8152600401610e1e959493929190611ae1565b600060405180830381600087803b158015610e3857600080fd5b505af1158015610e4c573d6000803e3d6000fd5b5050505050505050565b600080610e65838501856114b3565b6000818152600160205260409020600301549091508114610e985760405162461bcd60e51b815260040161048390611d34565b60008181526001602052604090205460ff16610ec65760405162461bcd60e51b815260040161048390611f93565b60005b87811015610f3a57610f28828a8a84818110610ef557634e487b7160e01b600052603260045260246000fd5b90506020020135898985818110610f1c57634e487b7160e01b600052603260045260246000fd5b90506020020135611205565b80610f3281612201565b915050610ec9565b5063bc197c8160e01b9a9950505050505050505050565b600083815260016020526040902060030154610f7f5760405162461bcd60e51b815260040161048390611e67565b60008381526001602052604090205460ff1615610fae5760405162461bcd60e51b815260040161048390611fdf565b6000838152600160205260409020546001600160a01b038381166101009092041614610fec5760405162461bcd60e51b815260040161048390611f42565b6000811161100c5760405162461bcd60e51b815260040161048390611e38565b6000838152600160205260409020600681015460059091015461102f90836121b2565b111561104d5760405162461bcd60e51b815260040161048390611e98565b6000838152600160205260408120600501805483929061106e9084906121b2565b909155505060008381526002602090815260408083203384529091528120805483929061109c9084906121b2565b90915550506040516323b872dd60e01b81526001600160a01b038316906323b872dd906110d190339030908690600401611abd565b602060405180830381600087803b1580156110eb57600080fd5b505af11580156110ff573d6000803e3d6000fd5b505050506040513d601f19601f820116820180604052508101906111239190611493565b61113f5760405162461bcd60e51b815260040161048390611dc3565b505050565b600090815260016020526040902060030154151590565b60008061116a838501856114b3565b600081815260016020526040902060030154909150811461119d5760405162461bcd60e51b815260040161048390611d34565b60008181526001602052604090205460ff166111cb5760405162461bcd60e51b815260040161048390611f93565b6111d6818787611205565b5063f23a6e6160e01b90505b9695505050505050565b6001600160e01b031981166301ffc9a760e01b14919050565b60008381526003602090815260408083208584529091528120805483929061122e9084906121b2565b9091555050505050565b604080516060810182526000808252602082018190529181019190915290565b6040805161012081018252600080825260208201819052918101829052606081018290526080810182905260a0810182905260c0810182905260e081019190915261010081016112a6611238565b905290565b80356102f881612232565b60008083601f8401126112c7578182fd5b5081356001600160401b038111156112dd578182fd5b60208301915083602080830285010111156112f757600080fd5b9250929050565b60008083601f84011261130f578182fd5b5081356001600160401b03811115611325578182fd5b6020830191508360208285010111156112f757600080fd5b60006020828403121561134e578081fd5b815161135981612232565b9392505050565b60008060008060008060008060a0898b03121561137b578384fd5b883561138681612232565b9750602089013561139681612232565b965060408901356001600160401b03808211156113b1578586fd5b6113bd8c838d016112b6565b909850965060608b01359150808211156113d5578586fd5b6113e18c838d016112b6565b909650945060808b01359150808211156113f9578384fd5b506114068b828c016112fe565b999c989b5096995094979396929594505050565b60008060008060008060a08789031215611432578182fd5b863561143d81612232565b9550602087013561144d81612232565b9450604087013593506060870135925060808701356001600160401b03811115611475578283fd5b61148189828a016112fe565b979a9699509497509295939492505050565b6000602082840312156114a4578081fd5b81518015158114611359578182fd5b6000602082840312156114c4578081fd5b5035919050565b6000602082840312156114dc578081fd5b5051919050565b600080604083850312156114f5578182fd5b82359150602083013561150781612232565b809150509250929050565b600080600060408486031215611526578283fd5b8335925060208401356001600160401b03811115611542578283fd5b61154e868287016112b6565b9497909650939450505050565b6000806000806000806000878903610100811215611577578182fd5b88359750602089013561158981612232565b9650604089013561159981612232565b95506060890135945060808901356001600160401b038111156115ba578283fd5b6115c68b828c016112b6565b9095509350506060609f19820112156115dd578182fd5b5060a08801905092959891949750929550565b600080600060608486031215611604578081fd5b83359250602084013561161681612232565b929592945050506040919091013590565b60008060408385031215611639578182fd5b50508035926020909101359150565b600060208284031215611659578081fd5b81356001600160e01b031981168114611359578182fd5b60008060008060808587031215611685578182fd5b843561169081612232565b935060208501356116a081612232565b93969395505050506040820135916060013590565b6001600160a01b03169052565b81835260006001600160fb1b038311156116da578081fd5b6020830280836020870137939093016020019283525090919050565b818352602080840193600091908185020181018584845b878110156117f95782840389526117248288612194565b60e0813561173181612232565b61173b87826116b5565b506117478783016112ab565b611753888801826116b5565b5060406117618184016112ab565b61176d828901826116b5565b505060608281013590870152608061178781840184612150565b83838a0152611799848a0182846118e2565b935050505060a06117ac818401846120c2565b888403838a01526117be848284611806565b935050505060c06117d181840184612194565b925086820381880152506117e5818361190c565b9a87019a955050509084019060010161170d565b5091979650505050505050565b818352602080840193600091908185020181018584845b878110156117f95782840389528135609e1988360301811261183d578687fd5b87018035855260a08682013560048110611855578889fd5b868801526040828101359087015260608083013590870152608061187b81840184612150565b9350828289015261188f83890185836118e2565b9c89019c9750505092860192505060010161181d565b600082845260208401935081815b848110156118d8576118c58683611a1f565b60609586019591909101906001016118b3565b5093949350505050565b60008284528282602086013780602084860101526020601f19601f85011685010190509392505050565b6000813561191981612232565b6001600160a01b0316835260208281013581850152604080840135818601526060808501359086015261194f60808501856120c2565b60e0608088015261196460e0880182846116c2565b91505061197460a08601866120c2565b87830360a08901528083528483018582028401860183885b848110156119eb57868303601f19018452813536879003603e190181126119b1578a8bfd5b8601803584526119c38a8201826120c2565b9150898b8601526119d78a860183836116c2565b958b0195945050509088019060010161198c565b50506119fa60c08a018a612109565b9750955089810360c08b0152611a118188886118a5565b9a9950505050505050505050565b80358252602081013560ff8116808214611a3857600080fd5b602084015250604081013560ff8116808214611a5357600080fd5b80604085015250505050565b8051825260ff602082015116602083015260ff60408201511660408301525050565b6001600160601b0319606096871b8116825260148201959095529290941b90921660348201526048810191909152606881019190915260880190565b6001600160a01b039384168152919092166020820152604081019190915260600190565b600060018060a01b03808816835260208188168185015286604085015285606085015260a06080850152845191508160a0850152825b82811015611b335785810182015185820160c001528101611b17565b82811115611b44578360c084870101525b5050601f01601f19169190910160c0019695505050505050565b6001600160a01b03929092168252602082015260400190565b901515815260200190565b89151581526001600160a01b0389811660208301528881166040830152871660608201526080810186905260a0810185905260c0810184905260e081018390526101608101611a11610100830184611a5f565b90815260200190565b918252602082015260400190565b6000858252846020830152606060408301526111e26060830184866116f6565b8581526001600160a01b038516602082015260c060408201819052600090611c3790830185876116f6565b90506111e26060830184611a1f565b6001600160e01b031991909116815260200190565b6001600160a01b0391909116815260200190565b6020808252600f908201526e496e76616c6964206164647265737360881b604082015260600190565b6020808252818101527f50726f706f73616c734875623a3a436c61696d20697320746f6f206c61726765604082015260600190565b602080825260189082015277496e636f727265637420736f6c766572206164647265737360401b604082015260600190565b6020808252601b908201527a36b9b39739b2b73232b9103737ba1039b7b63aba34b7b739a43ab160291b604082015260600190565b6020808252602a908201527f50726f706f73616c734875623a3a44617461206973206e6f742076616c6964206040820152691c1c9bdc1bdcd85b125960b21b606082015260800190565b60208082526025908201527f436f6d6d69747465642066756e6473206973206c6f776572207468616e20616d60408201526437bab73a1760d91b606082015260800190565b60208082526022908201527f436f756c64206e6f74207472616e736665722066726f6d206d73672e73656e6460408201526132b960f11b606082015260800190565b602080825260199082015278141c9bdc1bdcd85b081b9bdd08199d5b1b1e48199d5b991959603a1b604082015260600190565b602080825260159082015274416d6f756e742063616e6e6f74206265207a65726f60581b604082015260600190565b602080825260179082015276141c9bdc1bdcd85b08191bd95cc81b9bdd08195e1a5cdd604a1b604082015260600190565b60208082526019908201527810d85b89dd08199d5b99081b5bdc99481d1a185b8819dbd85b603a1b604082015260600190565b60208082526025908201527f50726f706f73616c734875623a3a6d73672e73656e64657220686173206e6f20604082015264636c61696d60d81b606082015260800190565b602080825260189082015277050726f706f73616c734875623a3a436c61696d20697320360441b604082015260600190565b60208082526031908201527f50726f706f73616c20646f6573206e6f7420696e636c756465207468697320746040820152701bdad95b881d1bc8189948199d5b991959607a1b606082015260800190565b6020808252602c908201527f50726f706f73616c734875623a3a50726f706f73616c20686173206e6f74206260408201526b19595b88195e1958dd5d195960a21b606082015260800190565b60208082526027908201527f50726f706f73616c734875623a3a50726f706f73616c20616c726561647920656040820152661e1958dd5d195960ca1b606082015260800190565b606081016120348284611a5f565b92915050565b8151151581526020808301516001600160a01b03169082015260408083015161016083019161206b908401826116b5565b50606083015161207e60608401826116b5565b506080830151608083015260a083015160a083015260c083015160c083015260e083015160e0830152610100808401516120ba82850182611a5f565b505092915050565b6000808335601e198436030181126120d8578283fd5b83016020810192503590506001600160401b038111156120f757600080fd5b6020810236038313156112f757600080fd5b6000808335601e1984360301811261211f578283fd5b83016020810192503590506001600160401b0381111561213e57600080fd5b6060810236038313156112f757600080fd5b6000808335601e19843603018112612166578283fd5b83016020810192503590506001600160401b0381111561218557600080fd5b8036038313156112f757600080fd5b6000823560de198336030181126121a9578182fd5b90910192915050565b600082198211156121c5576121c561221c565b500190565b6000826121e557634e487b7160e01b81526012600452602481fd5b500490565b6000828210156121fc576121fc61221c565b500390565b60006000198214156122155761221561221c565b5060010190565b634e487b7160e01b600052601160045260246000fd5b6001600160a01b038116811461224757600080fd5b5056fe3a5a0357f01e19a1531e65bfe13d63c64c9ae8f03d8c26ae74b1e2929a4f3966a2646970667358221220b9645d8878e099ee8000b36f17b01872ebe57b6eb152bf8a58e3cf46cdc4256464736f6c63430008000033",
  "linkReferences": {},
  "deployedLinkReferences": {}
}