{
  "_format": "hh-sol-artifact-1",
  "contractName": "ProposalsHub",
  "sourceName": "contracts/ProposalsHub.sol",
  "abi": [
    {
      "inputs": [
        {
          "internalType": "address",
          "name": "_ctfAddress",
          "type": "address"
        }
      ],
      "stateMutability": "nonpayable",
      "type": "constructor"
    },
    {
      "anonymous": false,
      "inputs": [
        {
          "indexed": false,
          "internalType": "bytes32",
          "name": "id",
          "type": "bytes32"
        }
      ],
      "name": "CreateProposal",
      "type": "event"
    },
    {
      "anonymous": false,
      "inputs": [
        {
          "indexed": false,
          "internalType": "bytes32",
          "name": "id",
          "type": "bytes32"
        },
        {
          "indexed": false,
          "internalType": "uint256",
          "name": "amount",
          "type": "uint256"
        },
        {
          "indexed": false,
          "internalType": "address",
          "name": "from",
          "type": "address"
        }
      ],
      "name": "DefundProposal",
      "type": "event"
    },
    {
      "anonymous": false,
      "inputs": [
        {
          "indexed": false,
          "internalType": "bytes32",
          "name": "id",
          "type": "bytes32"
        }
      ],
      "name": "ExecuteProposal",
      "type": "event"
    },
    {
      "anonymous": false,
      "inputs": [
        {
          "indexed": false,
          "internalType": "bytes32",
          "name": "id",
          "type": "bytes32"
        },
        {
          "indexed": false,
          "internalType": "uint256",
          "name": "amount",
          "type": "uint256"
        },
        {
          "indexed": false,
          "internalType": "address",
          "name": "from",
          "type": "address"
        }
      ],
      "name": "FundProposal",
      "type": "event"
    },
    {
      "inputs": [],
      "name": "conditionalTokens",
      "outputs": [
        {
          "internalType": "contract IConditionalTokens",
          "name": "",
          "type": "address"
        }
      ],
      "stateMutability": "view",
      "type": "function"
    },
    {
      "inputs": [
        {
          "internalType": "bytes32",
          "name": "solutionId",
          "type": "bytes32"
        },
        {
          "internalType": "contract IERC20",
          "name": "collateralToken",
          "type": "address"
        },
        {
          "internalType": "contract IIPFSSolutionsHub",
          "name": "ipfsSolutionsHub",
          "type": "address"
        },
        {
          "internalType": "uint256",
          "name": "fundingGoal",
          "type": "uint256"
        },
        {
          "components": [
            {
              "internalType": "contract Solver",
              "name": "implementation",
              "type": "address"
            },
            {
              "internalType": "address",
              "name": "keeper",
              "type": "address"
            },
            {
              "internalType": "address",
              "name": "arbitrator",
              "type": "address"
            },
            {
              "internalType": "uint256",
              "name": "timelockSeconds",
              "type": "uint256"
            },
            {
              "internalType": "bytes",
              "name": "data",
              "type": "bytes"
            },
            {
              "components": [
                {
                  "internalType": "uint256",
                  "name": "executions",
                  "type": "uint256"
                },
                {
                  "internalType": "enum SolverLib.IngestType",
                  "name": "ingestType",
                  "type": "uint8"
                },
                {
                  "internalType": "bytes32",
                  "name": "slot",
                  "type": "bytes32"
                },
                {
                  "internalType": "uint256",
                  "name": "solverIndex",
                  "type": "uint256"
                },
                {
                  "internalType": "bytes",
                  "name": "data",
                  "type": "bytes"
                }
              ],
              "internalType": "struct SolverLib.Ingest[]",
              "name": "ingests",
              "type": "tuple[]"
            },
            {
              "components": [
                {
                  "internalType": "contract IERC20",
                  "name": "collateralToken",
                  "type": "address"
                },
                {
                  "internalType": "uint256",
                  "name": "outcomeSlots",
                  "type": "uint256"
                },
                {
                  "internalType": "uint256",
                  "name": "parentCollectionIndexSet",
                  "type": "uint256"
                },
                {
                  "internalType": "bytes32",
                  "name": "amountSlot",
                  "type": "bytes32"
                },
                {
                  "internalType": "uint256[]",
                  "name": "partition",
                  "type": "uint256[]"
                },
                {
                  "components": [
                    {
                      "internalType": "bytes32",
                      "name": "recipientAddressSlot",
                      "type": "bytes32"
                    },
                    {
                      "internalType": "bytes32[]",
                      "name": "recipientAmountSlots",
                      "type": "bytes32[]"
                    }
                  ],
                  "internalType": "struct SolverLib.Allocation[]",
                  "name": "allocations",
                  "type": "tuple[]"
                },
                {
                  "components": [
                    {
                      "internalType": "bytes32",
                      "name": "digest",
                      "type": "bytes32"
                    },
                    {
                      "internalType": "uint8",
                      "name": "hashFunction",
                      "type": "uint8"
                    },
                    {
                      "internalType": "uint8",
                      "name": "size",
                      "type": "uint8"
                    }
                  ],
                  "internalType": "struct SolverLib.Multihash[]",
                  "name": "outcomeURIs",
                  "type": "tuple[]"
                }
              ],
              "internalType": "struct SolverLib.ConditionBase",
              "name": "conditionBase",
              "type": "tuple"
            }
          ],
          "internalType": "struct SolverLib.Config[]",
          "name": "solverConfigs",
          "type": "tuple[]"
        },
        {
          "components": [
            {
              "internalType": "bytes32",
              "name": "digest",
              "type": "bytes32"
            },
            {
              "internalType": "uint8",
              "name": "hashFunction",
              "type": "uint8"
            },
            {
              "internalType": "uint8",
              "name": "size",
              "type": "uint8"
            }
          ],
          "internalType": "struct SolverLib.Multihash",
          "name": "solverConfigsCID",
          "type": "tuple"
        }
      ],
      "name": "createIPFSSolutionAndProposal",
      "outputs": [
        {
          "internalType": "bytes32",
          "name": "solutionID",
          "type": "bytes32"
        },
        {
          "internalType": "bytes32",
          "name": "proposalID",
          "type": "bytes32"
        }
      ],
      "stateMutability": "nonpayable",
      "type": "function"
    },
    {
      "inputs": [
        {
          "internalType": "contract IERC20",
          "name": "collateralToken",
          "type": "address"
        },
        {
          "internalType": "address",
          "name": "solutionsHub",
          "type": "address"
        },
        {
          "internalType": "uint256",
          "name": "fundingGoal",
          "type": "uint256"
        },
        {
          "internalType": "bytes32",
          "name": "solutionId",
          "type": "bytes32"
        }
      ],
      "name": "createProposal",
      "outputs": [
        {
          "internalType": "bytes32",
          "name": "proposalId",
          "type": "bytes32"
        }
      ],
      "stateMutability": "nonpayable",
      "type": "function"
    },
    {
      "inputs": [
        {
          "internalType": "bytes32",
          "name": "proposalId",
          "type": "bytes32"
        },
        {
          "internalType": "contract IERC20",
          "name": "token",
          "type": "address"
        },
        {
          "internalType": "uint256",
          "name": "amount",
          "type": "uint256"
        }
      ],
      "name": "defundProposal",
      "outputs": [],
      "stateMutability": "nonpayable",
      "type": "function"
    },
    {
      "inputs": [
        {
          "internalType": "bytes32",
          "name": "proposalId",
          "type": "bytes32"
        },
        {
          "components": [
            {
              "internalType": "contract Solver",
              "name": "implementation",
              "type": "address"
            },
            {
              "internalType": "address",
              "name": "keeper",
              "type": "address"
            },
            {
              "internalType": "address",
              "name": "arbitrator",
              "type": "address"
            },
            {
              "internalType": "uint256",
              "name": "timelockSeconds",
              "type": "uint256"
            },
            {
              "internalType": "bytes",
              "name": "data",
              "type": "bytes"
            },
            {
              "components": [
                {
                  "internalType": "uint256",
                  "name": "executions",
                  "type": "uint256"
                },
                {
                  "internalType": "enum SolverLib.IngestType",
                  "name": "ingestType",
                  "type": "uint8"
                },
                {
                  "internalType": "bytes32",
                  "name": "slot",
                  "type": "bytes32"
                },
                {
                  "internalType": "uint256",
                  "name": "solverIndex",
                  "type": "uint256"
                },
                {
                  "internalType": "bytes",
                  "name": "data",
                  "type": "bytes"
                }
              ],
              "internalType": "struct SolverLib.Ingest[]",
              "name": "ingests",
              "type": "tuple[]"
            },
            {
              "components": [
                {
                  "internalType": "contract IERC20",
                  "name": "collateralToken",
                  "type": "address"
                },
                {
                  "internalType": "uint256",
                  "name": "outcomeSlots",
                  "type": "uint256"
                },
                {
                  "internalType": "uint256",
                  "name": "parentCollectionIndexSet",
                  "type": "uint256"
                },
                {
                  "internalType": "bytes32",
                  "name": "amountSlot",
                  "type": "bytes32"
                },
                {
                  "internalType": "uint256[]",
                  "name": "partition",
                  "type": "uint256[]"
                },
                {
                  "components": [
                    {
                      "internalType": "bytes32",
                      "name": "recipientAddressSlot",
                      "type": "bytes32"
                    },
                    {
                      "internalType": "bytes32[]",
                      "name": "recipientAmountSlots",
                      "type": "bytes32[]"
                    }
                  ],
                  "internalType": "struct SolverLib.Allocation[]",
                  "name": "allocations",
                  "type": "tuple[]"
                },
                {
                  "components": [
                    {
                      "internalType": "bytes32",
                      "name": "digest",
                      "type": "bytes32"
                    },
                    {
                      "internalType": "uint8",
                      "name": "hashFunction",
                      "type": "uint8"
                    },
                    {
                      "internalType": "uint8",
                      "name": "size",
                      "type": "uint8"
                    }
                  ],
                  "internalType": "struct SolverLib.Multihash[]",
                  "name": "outcomeURIs",
                  "type": "tuple[]"
                }
              ],
              "internalType": "struct SolverLib.ConditionBase",
              "name": "conditionBase",
              "type": "tuple"
            }
          ],
          "internalType": "struct SolverLib.Config[]",
          "name": "solverConfigs",
          "type": "tuple[]"
        }
      ],
      "name": "executeIPFSProposal",
      "outputs": [],
      "stateMutability": "nonpayable",
      "type": "function"
    },
    {
      "inputs": [
        {
          "internalType": "bytes32",
          "name": "proposalId",
          "type": "bytes32"
        }
      ],
      "name": "executeProposal",
      "outputs": [],
      "stateMutability": "nonpayable",
      "type": "function"
    },
    {
      "inputs": [
        {
          "internalType": "bytes32",
          "name": "proposalId",
          "type": "bytes32"
        },
        {
          "internalType": "contract IERC20",
          "name": "token",
          "type": "address"
        },
        {
          "internalType": "uint256",
          "name": "amount",
          "type": "uint256"
        }
      ],
      "name": "fundProposal",
      "outputs": [],
      "stateMutability": "nonpayable",
      "type": "function"
    },
    {
      "inputs": [
        {
          "internalType": "bytes32",
          "name": "",
          "type": "bytes32"
        },
        {
          "internalType": "address",
          "name": "",
          "type": "address"
        }
      ],
      "name": "funderAmountMap",
      "outputs": [
        {
          "internalType": "uint256",
          "name": "",
          "type": "uint256"
        }
      ],
      "stateMutability": "view",
      "type": "function"
    },
    {
      "inputs": [
        {
          "internalType": "bytes32",
          "name": "id",
          "type": "bytes32"
        }
      ],
      "name": "getContext",
      "outputs": [
        {
          "components": [
            {
              "internalType": "bytes32",
              "name": "digest",
              "type": "bytes32"
            },
            {
              "internalType": "uint8",
              "name": "hashFunction",
              "type": "uint8"
            },
            {
              "internalType": "uint8",
              "name": "size",
              "type": "uint8"
            }
          ],
          "internalType": "struct SolverLib.Multihash",
          "name": "",
          "type": "tuple"
        }
      ],
      "stateMutability": "view",
      "type": "function"
    },
    {
      "inputs": [
        {
          "internalType": "bytes32",
          "name": "id",
          "type": "bytes32"
        }
      ],
      "name": "getProposal",
      "outputs": [
        {
          "components": [
            {
              "internalType": "bool",
              "name": "isExecuted",
              "type": "bool"
            },
            {
              "internalType": "contract IERC20",
              "name": "collateralToken",
              "type": "address"
            },
            {
              "internalType": "address",
              "name": "proposer",
              "type": "address"
            },
            {
              "internalType": "address",
              "name": "solutionsHub",
              "type": "address"
            },
            {
              "internalType": "bytes32",
              "name": "id",
              "type": "bytes32"
            },
            {
              "internalType": "bytes32",
              "name": "solutionId",
              "type": "bytes32"
            },
            {
              "internalType": "uint256",
              "name": "funding",
              "type": "uint256"
            },
            {
              "internalType": "uint256",
              "name": "fundingGoal",
              "type": "uint256"
            },
            {
              "components": [
                {
                  "internalType": "bytes32",
                  "name": "digest",
                  "type": "bytes32"
                },
                {
                  "internalType": "uint8",
                  "name": "hashFunction",
                  "type": "uint8"
                },
                {
                  "internalType": "uint8",
                  "name": "size",
                  "type": "uint8"
                }
              ],
              "internalType": "struct SolverLib.Multihash",
              "name": "context",
              "type": "tuple"
            }
          ],
          "internalType": "struct ProposalsHub.Proposal",
          "name": "proposal",
          "type": "tuple"
        }
      ],
      "stateMutability": "view",
      "type": "function"
    },
    {
      "inputs": [
        {
          "internalType": "bytes32",
          "name": "id",
          "type": "bytes32"
        }
      ],
      "name": "isProposal",
      "outputs": [
        {
          "internalType": "bool",
          "name": "",
          "type": "bool"
        }
      ],
      "stateMutability": "view",
      "type": "function"
    },
    {
      "inputs": [
        {
          "internalType": "address",
          "name": "operator",
          "type": "address"
        },
        {
          "internalType": "address",
          "name": "from",
          "type": "address"
        },
        {
          "internalType": "uint256[]",
          "name": "ids",
          "type": "uint256[]"
        },
        {
          "internalType": "uint256[]",
          "name": "values",
          "type": "uint256[]"
        },
        {
          "internalType": "bytes",
          "name": "data",
          "type": "bytes"
        }
      ],
      "name": "onERC1155BatchReceived",
      "outputs": [
        {
          "internalType": "bytes4",
          "name": "",
          "type": "bytes4"
        }
      ],
      "stateMutability": "nonpayable",
      "type": "function"
    },
    {
      "inputs": [
        {
          "internalType": "address",
          "name": "operator",
          "type": "address"
        },
        {
          "internalType": "address",
          "name": "from",
          "type": "address"
        },
        {
          "internalType": "uint256",
          "name": "id",
          "type": "uint256"
        },
        {
          "internalType": "uint256",
          "name": "value",
          "type": "uint256"
        },
        {
          "internalType": "bytes",
          "name": "data",
          "type": "bytes"
        }
      ],
      "name": "onERC1155Received",
      "outputs": [
        {
          "internalType": "bytes4",
          "name": "",
          "type": "bytes4"
        }
      ],
      "stateMutability": "nonpayable",
      "type": "function"
    },
    {
      "inputs": [
        {
          "internalType": "bytes32",
          "name": "",
          "type": "bytes32"
        }
      ],
      "name": "proposals",
      "outputs": [
        {
          "internalType": "bool",
          "name": "isExecuted",
          "type": "bool"
        },
        {
          "internalType": "contract IERC20",
          "name": "collateralToken",
          "type": "address"
        },
        {
          "internalType": "address",
          "name": "proposer",
          "type": "address"
        },
        {
          "internalType": "address",
          "name": "solutionsHub",
          "type": "address"
        },
        {
          "internalType": "bytes32",
          "name": "id",
          "type": "bytes32"
        },
        {
          "internalType": "bytes32",
          "name": "solutionId",
          "type": "bytes32"
        },
        {
          "internalType": "uint256",
          "name": "funding",
          "type": "uint256"
        },
        {
          "internalType": "uint256",
          "name": "fundingGoal",
          "type": "uint256"
        },
        {
          "components": [
            {
              "internalType": "bytes32",
              "name": "digest",
              "type": "bytes32"
            },
            {
              "internalType": "uint8",
              "name": "hashFunction",
              "type": "uint8"
            },
            {
              "internalType": "uint8",
              "name": "size",
              "type": "uint8"
            }
          ],
          "internalType": "struct SolverLib.Multihash",
          "name": "context",
          "type": "tuple"
        }
      ],
      "stateMutability": "view",
      "type": "function"
    },
    {
      "inputs": [
        {
          "internalType": "bytes32",
          "name": "proposalId",
          "type": "bytes32"
        },
        {
          "internalType": "uint256",
          "name": "tokenId",
          "type": "uint256"
        }
      ],
      "name": "reclaimTokens",
      "outputs": [],
      "stateMutability": "nonpayable",
      "type": "function"
    },
    {
      "inputs": [
        {
          "internalType": "bytes32",
          "name": "",
          "type": "bytes32"
        },
        {
          "internalType": "uint256",
          "name": "",
          "type": "uint256"
        }
      ],
      "name": "reclaimableTokens",
      "outputs": [
        {
          "internalType": "uint256",
          "name": "",
          "type": "uint256"
        }
      ],
      "stateMutability": "view",
      "type": "function"
    },
    {
      "inputs": [
        {
          "internalType": "uint256",
          "name": "",
          "type": "uint256"
        },
        {
          "internalType": "address",
          "name": "",
          "type": "address"
        }
      ],
      "name": "reclaimedTokens",
      "outputs": [
        {
          "internalType": "uint256",
          "name": "",
          "type": "uint256"
        }
      ],
      "stateMutability": "view",
      "type": "function"
    },
    {
      "inputs": [
        {
          "internalType": "bytes4",
          "name": "interfaceId",
          "type": "bytes4"
        }
      ],
      "name": "supportsInterface",
      "outputs": [
        {
          "internalType": "bool",
          "name": "",
          "type": "bool"
        }
      ],
      "stateMutability": "view",
      "type": "function"
    },
    {
      "inputs": [
        {
          "internalType": "bytes32",
          "name": "_proposalId",
          "type": "bytes32"
        },
        {
          "internalType": "address",
          "name": "_solver",
          "type": "address"
        }
      ],
      "name": "transferERC20",
      "outputs": [],
      "stateMutability": "nonpayable",
      "type": "function"
    }
  ],
  "bytecode": "0x60a06040523480156200001157600080fd5b50604051620025833803806200258383398101604081905262000034916200004a565b60601b6001600160601b0319166080526200007a565b6000602082840312156200005c578081fd5b81516001600160a01b038116811462000073578182fd5b9392505050565b60805160601c6124e3620000a060003960008181610cde0152610f6c01526124e36000f3fe608060405234801561001057600080fd5b50600436106100f15760003560e01c806301ffc9a7146100f6578063116f94d01461011f5780631918063f1461013f57806329b2be011461015457806332c8506e1461017457806332ed5b121461018757806333c15c34146101af578063430694cf146101c25780634c68aeec146101e257806353ba3f571461020357806354dd9927146102165780635bd9e2991461022957806383460ba81461023e578063980ff6c614610251578063b70c764c14610264578063bc197c8114610277578063c12639f714610297578063d3f79a05146102aa578063f23a6e61146102bd575b600080fd5b610109610104366004611835565b6102d0565b6040516101169190611d78565b60405180910390f35b61013261012d36600461185d565b6102fd565b6040516101169190611dd6565b61015261014d3660046116d0565b61044a565b005b6101676101623660046116a0565b610611565b6040516101169190612269565b6101526101823660046116ff565b61065f565b61019a6101953660046116a0565b610787565b60405161011699989796959493929190611d83565b6101326101bd3660046116d0565b61080c565b6101d56101d03660046116a0565b610829565b604051610116919061227d565b6101f56101f0366004611748565b6108e5565b604051610116929190611ddf565b610132610211366004611814565b61098a565b6101526102243660046117dd565b6109a7565b610231610cdc565b6040516101169190611caa565b61013261024c3660046116d0565b610d00565b61015261025f3660046116a0565b610d1d565b610152610272366004611814565b610e30565b61028a61028536600461154d565b611015565b6040516101169190611e66565b6101526102a53660046117dd565b611110565b6101096102b83660046116a0565b611331565b61028a6102cb366004611607565b611348565b60006001600160e01b03198216630271189760e51b14806102f557506102f5826113d9565b90505b919050565b60008054818061030c83612444565b91905055503382868560005460405160200161032c959493929190611c6e565b60408051601f19818403018152828252805160209182012060008181526001928390529290922080546001600160a01b03808b1661010002610100600160a81b031990921691909117825591810180546001600160a01b03199081163317909155600282018054938a169390911683179055600381018390556004808201879055600682018890556373c587f560e01b85529294509290916373c587f5916103d8918691889101611ddf565b600060405180830381600087803b1580156103f257600080fd5b505af1158015610406573d6000803e3d6000fd5b505050507f2d231481d8c1af3958a30a257e93e0df6b089bc07ebedc0a86e7355d1aaf1338826040516104399190611dd6565b60405180910390a150949350505050565b6000828152600160205260409020600201546001600160a01b0316331461048c5760405162461bcd60e51b815260040161048390611f0b565b60405180910390fd5b6001600160a01b0381166104b25760405162461bcd60e51b815260040161048390611e7b565b6000828152600160205260408082206002810154600491820154925162c8a40d60e51b81526001600160a01b038087169592169363191481a0936104f893919201611ddf565b60206040518083038186803b15801561051057600080fd5b505afa158015610524573d6000803e3d6000fd5b505050506040513d601f19601f82011682018060405250810190610548919061152a565b6001600160a01b03161461056e5760405162461bcd60e51b815260040161048390611ed9565b600082815260016020526040908190208054600590910154915163a9059cbb60e01b81526101009091046001600160a01b031691829163a9059cbb916105b991869190600401611d5f565b602060405180830381600087803b1580156105d357600080fd5b505af11580156105e7573d6000803e3d6000fd5b505050506040513d601f19601f8201168201806040525081019061060b9190611680565b50505050565b610619611425565b5060009081526001602090815260409182902082516060810184526007820154815260089091015460ff8082169383019390935261010090049091169181019190915290565b6000838152600160205260409020600681015460059091015410156106965760405162461bcd60e51b815260040161048390612011565b60008381526001602052604090205460ff16156106c55760405162461bcd60e51b815260040161048390612222565b6000838152600160205260409081902060028101546004918201549251632034967b60e21b81526001600160a01b03909116926380d259ec9261070f928892918891889101611ded565b600060405180830381600087803b15801561072957600080fd5b505af115801561073d573d6000803e3d6000fd5b505050600084815260016020819052604091829020805460ff191690911790555160008051602061248e833981519152915061077a908590611dd6565b60405180910390a1505050565b600160208181526000928352604092839020805492810154600282015460038301546004840154600585015460068601548951606081018b526007880154815260089097015460ff818116998901999099526101009081900489169a88019a909a52968816986001600160a01b03980488169794851696939094169491939092909189565b600460209081526000928352604080842090915290825290205481565b610831611445565b50600090815260016020818152604092839020835161012081018552815460ff808216151583526001600160a01b036101009283900481168487015295840154861683880152600284015490951660608084019190915260038401546080840152600484015460a0840152600584015460c0840152600684015460e0840152865190810187526007840154815260089093015480861694840194909452928390049093169381019390935281019190915290565b600080866001600160a01b0316635f49a4348a8a8888886040518663ffffffff1660e01b815260040161091c959493929190611e0d565b602060405180830381600087803b15801561093657600080fd5b505af115801561094a573d6000803e3d6000fd5b505050506040513d601f19601f8201168201806040525081019061096e91906116b8565b915061097c8888888c6102fd565b905097509795505050505050565b600360209081526000928352604080842090915290825290205481565b6000838152600160205260409020600301546109d55760405162461bcd60e51b815260040161048390612073565b60008381526001602052604090205460ff1615610a045760405162461bcd60e51b815260040161048390612222565b6000838152600160205260409020546001600160a01b038381166101009092041614610a425760405162461bcd60e51b81526004016104839061214e565b60008111610a625760405162461bcd60e51b815260040161048390612044565b6000838152600260209081526040808320338452909152902054811115610a9b5760405162461bcd60e51b815260040161048390611f8a565b6040516370a0823160e01b81526000906001600160a01b038416906370a0823190610aca903090600401611caa565b60206040518083038186803b158015610ae257600080fd5b505afa158015610af6573d6000803e3d6000fd5b505050506040513d601f19601f82011682018060405250810190610b1a91906116b8565b905081600160008681526020019081526020016000206005016000828254610b42919061242d565b9091555050600084815260026020908152604080832033845290915281208054849290610b7090849061242d565b909155505060405163a9059cbb60e01b81526001600160a01b0384169063a9059cbb90610ba39033908690600401611d5f565b602060405180830381600087803b158015610bbd57600080fd5b505af1158015610bd1573d6000803e3d6000fd5b505050506040513d601f19601f82011682018060405250810190610bf59190611680565b506040516370a0823160e01b815282906001600160a01b038516906370a0823190610c24903090600401611caa565b60206040518083038186803b158015610c3c57600080fd5b505afa158015610c50573d6000803e3d6000fd5b505050506040513d601f19601f82011682018060405250810190610c7491906116b8565b610c7e908361242d565b14610c9b5760405162461bcd60e51b81526004016104839061219f565b7fe2ab43d60bbb163b7fad7413086cd6c1ee0e0a59a9625e4945a10f1b6a167ff9848333604051610cce93929190611e47565b60405180910390a150505050565b7f000000000000000000000000000000000000000000000000000000000000000081565b600260209081526000928352604080842090915290825290205481565b600081815260016020526040902060068101546005909101541015610d545760405162461bcd60e51b815260040161048390612011565b60008181526001602052604090205460ff1615610d835760405162461bcd60e51b815260040161048390612222565b600081815260016020819052604091829020805460ff1916909117815560028101546004918201549251630c17772560e31b81526001600160a01b03909116926360bbb92892610dd69286929101611ddf565b600060405180830381600087803b158015610df057600080fd5b505af1158015610e04573d6000803e3d6000fd5b5050505060008051602061248e83398151915281604051610e259190611dd6565b60405180910390a150565b6000828152600260209081526040808320338452909152902054610e665760405162461bcd60e51b8152600401610483906120d7565b60008281526002602090815260408083203384528252808320548584526001909252822060050154610e98919061240d565b6000838152600460209081526040808320338452825280832054878452600383528184208785529092528220549293509091610ed590849061240d565b610edf919061242d565b905060008111610f015760405162461bcd60e51b81526004016104839061211c565b6000848152600360209081526040808320868452909152902054811115610f3a5760405162461bcd60e51b815260040161048390611ea4565b600083815260046020908152604080832033845290915281208054839290610f639084906123f5565b925050819055507f00000000000000000000000000000000000000000000000000000000000000006001600160a01b031663f242432a3033868589604051602001610fae9190611dd6565b6040516020818303038152906040526040518663ffffffff1660e01b8152600401610fdd959493929190611ce2565b600060405180830381600087803b158015610ff757600080fd5b505af115801561100b573d6000803e3d6000fd5b5050505050505050565b600080611024838501856116a0565b60008181526001602052604090206003015490915081146110575760405162461bcd60e51b815260040161048390611f40565b60008181526001602052604090205460ff166110855760405162461bcd60e51b8152600401610483906121d6565b60005b878110156110f9576110e7828a8a848181106110b457634e487b7160e01b600052603260045260246000fd5b905060200201358989858181106110db57634e487b7160e01b600052603260045260246000fd5b905060200201356113f2565b806110f181612444565b915050611088565b5063bc197c8160e01b9a9950505050505050505050565b60008381526001602052604090206003015461113e5760405162461bcd60e51b815260040161048390612073565b60008381526001602052604090205460ff161561116d5760405162461bcd60e51b815260040161048390612222565b6000838152600160205260409020546001600160a01b0383811661010090920416146111ab5760405162461bcd60e51b81526004016104839061214e565b600081116111cb5760405162461bcd60e51b815260040161048390612044565b600083815260016020526040902060068101546005909101546111ee90836123f5565b111561120c5760405162461bcd60e51b8152600401610483906120a4565b6000838152600160205260408120600501805483929061122d9084906123f5565b909155505060008381526002602090815260408083203384529091528120805483929061125b9084906123f5565b90915550506040516323b872dd60e01b81526001600160a01b038316906323b872dd9061129090339030908690600401611cbe565b602060405180830381600087803b1580156112aa57600080fd5b505af11580156112be573d6000803e3d6000fd5b505050506040513d601f19601f820116820180604052508101906112e29190611680565b6112fe5760405162461bcd60e51b815260040161048390611fcf565b7f82999597cf961179ae8200cb30fa0dcf5559a734cfd867ccd187c5dd6946c41383823360405161077a93929190611e47565b600090815260016020526040902060030154151590565b600080611357838501856116a0565b600081815260016020526040902060030154909150811461138a5760405162461bcd60e51b815260040161048390611f40565b60008181526001602052604090205460ff166113b85760405162461bcd60e51b8152600401610483906121d6565b6113c38187876113f2565b5063f23a6e6160e01b90505b9695505050505050565b6001600160e01b031981166301ffc9a760e01b14919050565b60008381526003602090815260408083208584529091528120805483929061141b9084906123f5565b9091555050505050565b604080516060810182526000808252602082018190529181019190915290565b6040805161012081018252600080825260208201819052918101829052606081018290526080810182905260a0810182905260c0810182905260e08101919091526101008101611493611425565b905290565b80356102f881612475565b60008083601f8401126114b4578182fd5b5081356001600160401b038111156114ca578182fd5b60208301915083602080830285010111156114e457600080fd5b9250929050565b60008083601f8401126114fc578182fd5b5081356001600160401b03811115611512578182fd5b6020830191508360208285010111156114e457600080fd5b60006020828403121561153b578081fd5b815161154681612475565b9392505050565b60008060008060008060008060a0898b031215611568578384fd5b883561157381612475565b9750602089013561158381612475565b965060408901356001600160401b038082111561159e578586fd5b6115aa8c838d016114a3565b909850965060608b01359150808211156115c2578586fd5b6115ce8c838d016114a3565b909650945060808b01359150808211156115e6578384fd5b506115f38b828c016114eb565b999c989b5096995094979396929594505050565b60008060008060008060a0878903121561161f578182fd5b863561162a81612475565b9550602087013561163a81612475565b9450604087013593506060870135925060808701356001600160401b03811115611662578283fd5b61166e89828a016114eb565b979a9699509497509295939492505050565b600060208284031215611691578081fd5b81518015158114611546578182fd5b6000602082840312156116b1578081fd5b5035919050565b6000602082840312156116c9578081fd5b5051919050565b600080604083850312156116e2578182fd5b8235915060208301356116f481612475565b809150509250929050565b600080600060408486031215611713578283fd5b8335925060208401356001600160401b0381111561172f578283fd5b61173b868287016114a3565b9497909650939450505050565b6000806000806000806000878903610100811215611764578182fd5b88359750602089013561177681612475565b9650604089013561178681612475565b95506060890135945060808901356001600160401b038111156117a7578283fd5b6117b38b828c016114a3565b9095509350506060609f19820112156117ca578182fd5b5060a08801905092959891949750929550565b6000806000606084860312156117f1578081fd5b83359250602084013561180381612475565b929592945050506040919091013590565b60008060408385031215611826578182fd5b50508035926020909101359150565b600060208284031215611846578081fd5b81356001600160e01b031981168114611546578182fd5b60008060008060808587031215611872578182fd5b843561187d81612475565b9350602085013561188d81612475565b93969395505050506040820135916060013590565b6001600160a01b03169052565b81835260006001600160fb1b038311156118c7578081fd5b6020830280836020870137939093016020019283525090919050565b818352602080840193600091908185020181018584845b878110156119e657828403895261191182886123d7565b60e0813561191e81612475565b61192887826118a2565b50611934878301611498565b611940888801826118a2565b50604061194e818401611498565b61195a828901826118a2565b505060608281013590870152608061197481840184612393565b83838a0152611986848a018284611acf565b935050505060a061199981840184612305565b888403838a01526119ab8482846119f3565b935050505060c06119be818401846123d7565b925086820381880152506119d28183611af9565b9a87019a95505050908401906001016118fa565b5091979650505050505050565b818352602080840193600091908185020181018584845b878110156119e65782840389528135609e19883603018112611a2a578687fd5b87018035855260a08682013560048110611a42578889fd5b8688015260408281013590870152606080830135908701526080611a6881840184612393565b93508282890152611a7c8389018583611acf565b9c89019c97505050928601925050600101611a0a565b600082845260208401935081815b84811015611ac557611ab28683611c0c565b6060958601959190910190600101611aa0565b5093949350505050565b60008284528282602086013780602084860101526020601f19601f85011685010190509392505050565b60008135611b0681612475565b6001600160a01b03168352602082810135818501526040808401358186015260608085013590860152611b3c6080850185612305565b60e06080880152611b5160e0880182846118af565b915050611b6160a0860186612305565b87830360a08901528083528483018582028401860183885b84811015611bd857868303601f19018452813536879003603e19018112611b9e578a8bfd5b860180358452611bb08a820182612305565b9150898b860152611bc48a860183836118af565b958b01959450505090880190600101611b79565b5050611be760c08a018a61234c565b9750955089810360c08b0152611bfe818888611a92565b9a9950505050505050505050565b80358252602081013560ff8116808214611c2557600080fd5b602084015250604081013560ff8116808214611c4057600080fd5b80604085015250505050565b8051825260ff602082015116602083015260ff60408201511660408301525050565b6001600160601b0319606096871b8116825260148201959095529290941b90921660348201526048810191909152606881019190915260880190565b6001600160a01b0391909116815260200190565b6001600160a01b039384168152919092166020820152604081019190915260600190565b600060018060a01b03808816835260208188168185015286604085015285606085015260a06080850152845191508160a0850152825b82811015611d345785810182015185820160c001528101611d18565b82811115611d45578360c084870101525b5050601f01601f19169190910160c0019695505050505050565b6001600160a01b03929092168252602082015260400190565b901515815260200190565b89151581526001600160a01b0389811660208301528881166040830152871660608201526080810186905260a0810185905260c0810184905260e081018390526101608101611bfe610100830184611c4c565b90815260200190565b918252602082015260400190565b6000858252846020830152606060408301526113cf6060830184866118e3565b8581526001600160a01b038516602082015260c060408201819052600090611e3890830185876118e3565b90506113cf6060830184611c0c565b92835260208301919091526001600160a01b0316604082015260600190565b6001600160e01b031991909116815260200190565b6020808252600f908201526e496e76616c6964206164647265737360881b604082015260600190565b6020808252818101527f50726f706f73616c734875623a3a436c61696d20697320746f6f206c61726765604082015260600190565b602080825260189082015277496e636f727265637420736f6c766572206164647265737360401b604082015260600190565b6020808252601b908201527a36b9b39739b2b73232b9103737ba1039b7b63aba34b7b739a43ab160291b604082015260600190565b6020808252602a908201527f50726f706f73616c734875623a3a44617461206973206e6f742076616c6964206040820152691c1c9bdc1bdcd85b125960b21b606082015260800190565b60208082526025908201527f436f6d6d69747465642066756e6473206973206c6f776572207468616e20616d60408201526437bab73a1760d91b606082015260800190565b60208082526022908201527f436f756c64206e6f74207472616e736665722066726f6d206d73672e73656e6460408201526132b960f11b606082015260800190565b602080825260199082015278141c9bdc1bdcd85b081b9bdd08199d5b1b1e48199d5b991959603a1b604082015260600190565b602080825260159082015274416d6f756e742063616e6e6f74206265207a65726f60581b604082015260600190565b602080825260179082015276141c9bdc1bdcd85b08191bd95cc81b9bdd08195e1a5cdd604a1b604082015260600190565b60208082526019908201527810d85b89dd08199d5b99081b5bdc99481d1a185b8819dbd85b603a1b604082015260600190565b60208082526025908201527f50726f706f73616c734875623a3a6d73672e73656e64657220686173206e6f20604082015264636c61696d60d81b606082015260800190565b602080825260189082015277050726f706f73616c734875623a3a436c61696d20697320360441b604082015260600190565b60208082526031908201527f50726f706f73616c20646f6573206e6f7420696e636c756465207468697320746040820152701bdad95b881d1bc8189948199d5b991959607a1b606082015260800190565b6020808252601e908201527f4265666f726520616e642061667465722062616c616e63652077726f6e670000604082015260600190565b6020808252602c908201527f50726f706f73616c734875623a3a50726f706f73616c20686173206e6f74206260408201526b19595b88195e1958dd5d195960a21b606082015260800190565b60208082526027908201527f50726f706f73616c734875623a3a50726f706f73616c20616c726561647920656040820152661e1958dd5d195960ca1b606082015260800190565b606081016122778284611c4c565b92915050565b8151151581526020808301516001600160a01b0316908201526040808301516101608301916122ae908401826118a2565b5060608301516122c160608401826118a2565b506080830151608083015260a083015160a083015260c083015160c083015260e083015160e0830152610100808401516122fd82850182611c4c565b505092915050565b6000808335601e1984360301811261231b578283fd5b83016020810192503590506001600160401b0381111561233a57600080fd5b6020810236038313156114e457600080fd5b6000808335601e19843603018112612362578283fd5b83016020810192503590506001600160401b0381111561238157600080fd5b6060810236038313156114e457600080fd5b6000808335601e198436030181126123a9578283fd5b83016020810192503590506001600160401b038111156123c857600080fd5b8036038313156114e457600080fd5b6000823560de198336030181126123ec578182fd5b90910192915050565b600082198211156124085761240861245f565b500190565b60008261242857634e487b7160e01b81526012600452602481fd5b500490565b60008282101561243f5761243f61245f565b500390565b60006000198214156124585761245861245f565b5060010190565b634e487b7160e01b600052601160045260246000fd5b6001600160a01b038116811461248a57600080fd5b5056fe3a5a0357f01e19a1531e65bfe13d63c64c9ae8f03d8c26ae74b1e2929a4f3966a2646970667358221220862fb213e329c4fb4f212cfaff7ca162735cdb9b6d4777a99b57a7286ed1167164736f6c63430008000033",
  "linkReferences": {},
  "deployedLinkReferences": {}
}