{
  "_format": "hh-sol-artifact-1",
  "contractName": "ProposalsHub",
  "sourceName": "contracts/ProposalsHub.sol",
  "abi": [
    {
      "inputs": [
        {
          "internalType": "address",
          "name": "_ctfAddress",
          "type": "address"
        }
      ],
      "stateMutability": "nonpayable",
      "type": "constructor"
    },
    {
      "anonymous": false,
      "inputs": [
        {
          "indexed": true,
          "internalType": "bytes32",
          "name": "id",
          "type": "bytes32"
        }
      ],
      "name": "CreateProposal",
      "type": "event"
    },
    {
      "anonymous": false,
      "inputs": [
        {
          "indexed": true,
          "internalType": "bytes32",
          "name": "id",
          "type": "bytes32"
        },
        {
          "indexed": false,
          "internalType": "uint256",
          "name": "amount",
          "type": "uint256"
        },
        {
          "indexed": false,
          "internalType": "address",
          "name": "to",
          "type": "address"
        }
      ],
      "name": "DefundProposal",
      "type": "event"
    },
    {
      "anonymous": false,
      "inputs": [
        {
          "indexed": true,
          "internalType": "bytes32",
          "name": "id",
          "type": "bytes32"
        }
      ],
      "name": "ExecuteProposal",
      "type": "event"
    },
    {
      "anonymous": false,
      "inputs": [
        {
          "indexed": true,
          "internalType": "bytes32",
          "name": "id",
          "type": "bytes32"
        },
        {
          "indexed": false,
          "internalType": "uint256",
          "name": "amount",
          "type": "uint256"
        },
        {
          "indexed": false,
          "internalType": "address",
          "name": "from",
          "type": "address"
        }
      ],
      "name": "FundProposal",
      "type": "event"
    },
    {
      "inputs": [],
      "name": "conditionalTokens",
      "outputs": [
        {
          "internalType": "contract IConditionalTokens",
          "name": "",
          "type": "address"
        }
      ],
      "stateMutability": "view",
      "type": "function"
    },
    {
      "inputs": [
        {
          "internalType": "bytes32",
          "name": "solutionId",
          "type": "bytes32"
        },
        {
          "internalType": "contract IERC20",
          "name": "collateralToken",
          "type": "address"
        },
        {
          "internalType": "contract IIPFSSolutionsHub",
          "name": "ipfsSolutionsHub",
          "type": "address"
        },
        {
          "internalType": "uint256",
          "name": "fundingGoal",
          "type": "uint256"
        },
        {
          "components": [
            {
              "internalType": "contract Solver",
              "name": "implementation",
              "type": "address"
            },
            {
              "internalType": "address",
              "name": "keeper",
              "type": "address"
            },
            {
              "internalType": "address",
              "name": "arbitrator",
              "type": "address"
            },
            {
              "internalType": "uint256",
              "name": "timelockSeconds",
              "type": "uint256"
            },
            {
              "internalType": "bytes",
              "name": "data",
              "type": "bytes"
            },
            {
              "components": [
                {
                  "internalType": "uint256",
                  "name": "executions",
                  "type": "uint256"
                },
                {
                  "internalType": "enum SolverLib.IngestType",
                  "name": "ingestType",
                  "type": "uint8"
                },
                {
                  "internalType": "bytes32",
                  "name": "slot",
                  "type": "bytes32"
                },
                {
                  "internalType": "uint256",
                  "name": "solverIndex",
                  "type": "uint256"
                },
                {
                  "internalType": "bytes",
                  "name": "data",
                  "type": "bytes"
                }
              ],
              "internalType": "struct SolverLib.Ingest[]",
              "name": "ingests",
              "type": "tuple[]"
            },
            {
              "components": [
                {
                  "internalType": "contract IERC20",
                  "name": "collateralToken",
                  "type": "address"
                },
                {
                  "internalType": "uint256",
                  "name": "outcomeSlots",
                  "type": "uint256"
                },
                {
                  "internalType": "uint256",
                  "name": "parentCollectionIndexSet",
                  "type": "uint256"
                },
                {
                  "internalType": "bytes32",
                  "name": "amountSlot",
                  "type": "bytes32"
                },
                {
                  "internalType": "uint256[]",
                  "name": "partition",
                  "type": "uint256[]"
                },
                {
                  "components": [
                    {
                      "internalType": "bytes32",
                      "name": "recipientAddressSlot",
                      "type": "bytes32"
                    },
                    {
                      "internalType": "bytes32[]",
                      "name": "recipientAmountSlots",
                      "type": "bytes32[]"
                    }
                  ],
                  "internalType": "struct SolverLib.Allocation[]",
                  "name": "allocations",
                  "type": "tuple[]"
                },
                {
                  "components": [
                    {
                      "internalType": "bytes32",
                      "name": "digest",
                      "type": "bytes32"
                    },
                    {
                      "internalType": "uint8",
                      "name": "hashFunction",
                      "type": "uint8"
                    },
                    {
                      "internalType": "uint8",
                      "name": "size",
                      "type": "uint8"
                    }
                  ],
                  "internalType": "struct SolverLib.Multihash[]",
                  "name": "outcomeURIs",
                  "type": "tuple[]"
                }
              ],
              "internalType": "struct SolverLib.ConditionBase",
              "name": "conditionBase",
              "type": "tuple"
            }
          ],
          "internalType": "struct SolverLib.Config[]",
          "name": "solverConfigs",
          "type": "tuple[]"
        },
        {
          "components": [
            {
              "internalType": "bytes32",
              "name": "digest",
              "type": "bytes32"
            },
            {
              "internalType": "uint8",
              "name": "hashFunction",
              "type": "uint8"
            },
            {
              "internalType": "uint8",
              "name": "size",
              "type": "uint8"
            }
          ],
          "internalType": "struct SolverLib.Multihash",
          "name": "solverConfigsCID",
          "type": "tuple"
        },
        {
          "components": [
            {
              "internalType": "bytes32",
              "name": "digest",
              "type": "bytes32"
            },
            {
              "internalType": "uint8",
              "name": "hashFunction",
              "type": "uint8"
            },
            {
              "internalType": "uint8",
              "name": "size",
              "type": "uint8"
            }
          ],
          "internalType": "struct SolverLib.Multihash",
          "name": "metadataCID",
          "type": "tuple"
        }
      ],
      "name": "createIPFSSolutionAndProposal",
      "outputs": [
        {
          "internalType": "bytes32",
          "name": "solutionID",
          "type": "bytes32"
        },
        {
          "internalType": "bytes32",
          "name": "proposalID",
          "type": "bytes32"
        }
      ],
      "stateMutability": "nonpayable",
      "type": "function"
    },
    {
      "inputs": [
        {
          "internalType": "contract IERC20",
          "name": "collateralToken",
          "type": "address"
        },
        {
          "internalType": "address",
          "name": "solutionsHub",
          "type": "address"
        },
        {
          "internalType": "uint256",
          "name": "fundingGoal",
          "type": "uint256"
        },
        {
          "internalType": "bytes32",
          "name": "solutionId",
          "type": "bytes32"
        },
        {
          "components": [
            {
              "internalType": "bytes32",
              "name": "digest",
              "type": "bytes32"
            },
            {
              "internalType": "uint8",
              "name": "hashFunction",
              "type": "uint8"
            },
            {
              "internalType": "uint8",
              "name": "size",
              "type": "uint8"
            }
          ],
          "internalType": "struct SolverLib.Multihash",
          "name": "metadataCID",
          "type": "tuple"
        }
      ],
      "name": "createProposal",
      "outputs": [
        {
          "internalType": "bytes32",
          "name": "proposalId",
          "type": "bytes32"
        }
      ],
      "stateMutability": "nonpayable",
      "type": "function"
    },
    {
      "inputs": [
        {
          "internalType": "bytes32",
          "name": "proposalId",
          "type": "bytes32"
        },
        {
          "internalType": "contract IERC20",
          "name": "token",
          "type": "address"
        },
        {
          "internalType": "uint256",
          "name": "amount",
          "type": "uint256"
        }
      ],
      "name": "defundProposal",
      "outputs": [],
      "stateMutability": "nonpayable",
      "type": "function"
    },
    {
      "inputs": [
        {
          "internalType": "bytes32",
          "name": "proposalId",
          "type": "bytes32"
        },
        {
          "components": [
            {
              "internalType": "contract Solver",
              "name": "implementation",
              "type": "address"
            },
            {
              "internalType": "address",
              "name": "keeper",
              "type": "address"
            },
            {
              "internalType": "address",
              "name": "arbitrator",
              "type": "address"
            },
            {
              "internalType": "uint256",
              "name": "timelockSeconds",
              "type": "uint256"
            },
            {
              "internalType": "bytes",
              "name": "data",
              "type": "bytes"
            },
            {
              "components": [
                {
                  "internalType": "uint256",
                  "name": "executions",
                  "type": "uint256"
                },
                {
                  "internalType": "enum SolverLib.IngestType",
                  "name": "ingestType",
                  "type": "uint8"
                },
                {
                  "internalType": "bytes32",
                  "name": "slot",
                  "type": "bytes32"
                },
                {
                  "internalType": "uint256",
                  "name": "solverIndex",
                  "type": "uint256"
                },
                {
                  "internalType": "bytes",
                  "name": "data",
                  "type": "bytes"
                }
              ],
              "internalType": "struct SolverLib.Ingest[]",
              "name": "ingests",
              "type": "tuple[]"
            },
            {
              "components": [
                {
                  "internalType": "contract IERC20",
                  "name": "collateralToken",
                  "type": "address"
                },
                {
                  "internalType": "uint256",
                  "name": "outcomeSlots",
                  "type": "uint256"
                },
                {
                  "internalType": "uint256",
                  "name": "parentCollectionIndexSet",
                  "type": "uint256"
                },
                {
                  "internalType": "bytes32",
                  "name": "amountSlot",
                  "type": "bytes32"
                },
                {
                  "internalType": "uint256[]",
                  "name": "partition",
                  "type": "uint256[]"
                },
                {
                  "components": [
                    {
                      "internalType": "bytes32",
                      "name": "recipientAddressSlot",
                      "type": "bytes32"
                    },
                    {
                      "internalType": "bytes32[]",
                      "name": "recipientAmountSlots",
                      "type": "bytes32[]"
                    }
                  ],
                  "internalType": "struct SolverLib.Allocation[]",
                  "name": "allocations",
                  "type": "tuple[]"
                },
                {
                  "components": [
                    {
                      "internalType": "bytes32",
                      "name": "digest",
                      "type": "bytes32"
                    },
                    {
                      "internalType": "uint8",
                      "name": "hashFunction",
                      "type": "uint8"
                    },
                    {
                      "internalType": "uint8",
                      "name": "size",
                      "type": "uint8"
                    }
                  ],
                  "internalType": "struct SolverLib.Multihash[]",
                  "name": "outcomeURIs",
                  "type": "tuple[]"
                }
              ],
              "internalType": "struct SolverLib.ConditionBase",
              "name": "conditionBase",
              "type": "tuple"
            }
          ],
          "internalType": "struct SolverLib.Config[]",
          "name": "solverConfigs",
          "type": "tuple[]"
        }
      ],
      "name": "executeIPFSProposal",
      "outputs": [],
      "stateMutability": "nonpayable",
      "type": "function"
    },
    {
      "inputs": [
        {
          "internalType": "bytes32",
          "name": "proposalId",
          "type": "bytes32"
        }
      ],
      "name": "executeProposal",
      "outputs": [],
      "stateMutability": "nonpayable",
      "type": "function"
    },
    {
      "inputs": [
        {
          "internalType": "bytes32",
          "name": "proposalId",
          "type": "bytes32"
        },
        {
          "internalType": "contract IERC20",
          "name": "token",
          "type": "address"
        },
        {
          "internalType": "uint256",
          "name": "amount",
          "type": "uint256"
        }
      ],
      "name": "fundProposal",
      "outputs": [],
      "stateMutability": "nonpayable",
      "type": "function"
    },
    {
      "inputs": [
        {
          "internalType": "bytes32",
          "name": "",
          "type": "bytes32"
        },
        {
          "internalType": "address",
          "name": "",
          "type": "address"
        }
      ],
      "name": "funderAmountMap",
      "outputs": [
        {
          "internalType": "uint256",
          "name": "",
          "type": "uint256"
        }
      ],
      "stateMutability": "view",
      "type": "function"
    },
    {
      "inputs": [
        {
          "internalType": "bytes32",
          "name": "id",
          "type": "bytes32"
        }
      ],
      "name": "getMetadataCID",
      "outputs": [
        {
          "components": [
            {
              "internalType": "bytes32",
              "name": "digest",
              "type": "bytes32"
            },
            {
              "internalType": "uint8",
              "name": "hashFunction",
              "type": "uint8"
            },
            {
              "internalType": "uint8",
              "name": "size",
              "type": "uint8"
            }
          ],
          "internalType": "struct SolverLib.Multihash",
          "name": "",
          "type": "tuple"
        }
      ],
      "stateMutability": "view",
      "type": "function"
    },
    {
      "inputs": [
        {
          "internalType": "bytes32",
          "name": "id",
          "type": "bytes32"
        }
      ],
      "name": "getProposal",
      "outputs": [
        {
          "components": [
            {
              "internalType": "bool",
              "name": "isExecuted",
              "type": "bool"
            },
            {
              "internalType": "contract IERC20",
              "name": "collateralToken",
              "type": "address"
            },
            {
              "internalType": "address",
              "name": "proposer",
              "type": "address"
            },
            {
              "internalType": "address",
              "name": "solutionsHub",
              "type": "address"
            },
            {
              "internalType": "bytes32",
              "name": "id",
              "type": "bytes32"
            },
            {
              "internalType": "bytes32",
              "name": "solutionId",
              "type": "bytes32"
            },
            {
              "internalType": "uint256",
              "name": "funding",
              "type": "uint256"
            },
            {
              "internalType": "uint256",
              "name": "fundingGoal",
              "type": "uint256"
            },
            {
              "components": [
                {
                  "internalType": "bytes32",
                  "name": "digest",
                  "type": "bytes32"
                },
                {
                  "internalType": "uint8",
                  "name": "hashFunction",
                  "type": "uint8"
                },
                {
                  "internalType": "uint8",
                  "name": "size",
                  "type": "uint8"
                }
              ],
              "internalType": "struct SolverLib.Multihash",
              "name": "metadataCID",
              "type": "tuple"
            }
          ],
          "internalType": "struct ProposalsHub.Proposal",
          "name": "proposal",
          "type": "tuple"
        }
      ],
      "stateMutability": "view",
      "type": "function"
    },
    {
      "inputs": [
        {
          "internalType": "bytes32",
          "name": "id",
          "type": "bytes32"
        }
      ],
      "name": "isProposal",
      "outputs": [
        {
          "internalType": "bool",
          "name": "",
          "type": "bool"
        }
      ],
      "stateMutability": "view",
      "type": "function"
    },
    {
      "inputs": [
        {
          "internalType": "address",
          "name": "operator",
          "type": "address"
        },
        {
          "internalType": "address",
          "name": "from",
          "type": "address"
        },
        {
          "internalType": "uint256[]",
          "name": "ids",
          "type": "uint256[]"
        },
        {
          "internalType": "uint256[]",
          "name": "values",
          "type": "uint256[]"
        },
        {
          "internalType": "bytes",
          "name": "data",
          "type": "bytes"
        }
      ],
      "name": "onERC1155BatchReceived",
      "outputs": [
        {
          "internalType": "bytes4",
          "name": "",
          "type": "bytes4"
        }
      ],
      "stateMutability": "nonpayable",
      "type": "function"
    },
    {
      "inputs": [
        {
          "internalType": "address",
          "name": "operator",
          "type": "address"
        },
        {
          "internalType": "address",
          "name": "from",
          "type": "address"
        },
        {
          "internalType": "uint256",
          "name": "id",
          "type": "uint256"
        },
        {
          "internalType": "uint256",
          "name": "value",
          "type": "uint256"
        },
        {
          "internalType": "bytes",
          "name": "data",
          "type": "bytes"
        }
      ],
      "name": "onERC1155Received",
      "outputs": [
        {
          "internalType": "bytes4",
          "name": "",
          "type": "bytes4"
        }
      ],
      "stateMutability": "nonpayable",
      "type": "function"
    },
    {
      "inputs": [
        {
          "internalType": "bytes32",
          "name": "",
          "type": "bytes32"
        }
      ],
      "name": "proposals",
      "outputs": [
        {
          "internalType": "bool",
          "name": "isExecuted",
          "type": "bool"
        },
        {
          "internalType": "contract IERC20",
          "name": "collateralToken",
          "type": "address"
        },
        {
          "internalType": "address",
          "name": "proposer",
          "type": "address"
        },
        {
          "internalType": "address",
          "name": "solutionsHub",
          "type": "address"
        },
        {
          "internalType": "bytes32",
          "name": "id",
          "type": "bytes32"
        },
        {
          "internalType": "bytes32",
          "name": "solutionId",
          "type": "bytes32"
        },
        {
          "internalType": "uint256",
          "name": "funding",
          "type": "uint256"
        },
        {
          "internalType": "uint256",
          "name": "fundingGoal",
          "type": "uint256"
        },
        {
          "components": [
            {
              "internalType": "bytes32",
              "name": "digest",
              "type": "bytes32"
            },
            {
              "internalType": "uint8",
              "name": "hashFunction",
              "type": "uint8"
            },
            {
              "internalType": "uint8",
              "name": "size",
              "type": "uint8"
            }
          ],
          "internalType": "struct SolverLib.Multihash",
          "name": "metadataCID",
          "type": "tuple"
        }
      ],
      "stateMutability": "view",
      "type": "function"
    },
    {
      "inputs": [
        {
          "internalType": "bytes32",
          "name": "proposalId",
          "type": "bytes32"
        },
        {
          "internalType": "uint256",
          "name": "tokenId",
          "type": "uint256"
        }
      ],
      "name": "reclaimTokens",
      "outputs": [],
      "stateMutability": "nonpayable",
      "type": "function"
    },
    {
      "inputs": [
        {
          "internalType": "bytes32",
          "name": "",
          "type": "bytes32"
        },
        {
          "internalType": "uint256",
          "name": "",
          "type": "uint256"
        }
      ],
      "name": "reclaimableTokens",
      "outputs": [
        {
          "internalType": "uint256",
          "name": "",
          "type": "uint256"
        }
      ],
      "stateMutability": "view",
      "type": "function"
    },
    {
      "inputs": [
        {
          "internalType": "uint256",
          "name": "",
          "type": "uint256"
        },
        {
          "internalType": "address",
          "name": "",
          "type": "address"
        }
      ],
      "name": "reclaimedTokens",
      "outputs": [
        {
          "internalType": "uint256",
          "name": "",
          "type": "uint256"
        }
      ],
      "stateMutability": "view",
      "type": "function"
    },
    {
      "inputs": [
        {
          "internalType": "bytes4",
          "name": "interfaceId",
          "type": "bytes4"
        }
      ],
      "name": "supportsInterface",
      "outputs": [
        {
          "internalType": "bool",
          "name": "",
          "type": "bool"
        }
      ],
      "stateMutability": "view",
      "type": "function"
    },
    {
      "inputs": [
        {
          "internalType": "bytes32",
          "name": "_proposalId",
          "type": "bytes32"
        },
        {
          "internalType": "address",
          "name": "_solver",
          "type": "address"
        }
      ],
      "name": "transferERC20",
      "outputs": [],
      "stateMutability": "nonpayable",
      "type": "function"
    }
  ],
  "bytecode": "0x60a06040523480156200001157600080fd5b506040516200260a3803806200260a83398101604081905262000034916200004a565b60601b6001600160601b0319166080526200007a565b6000602082840312156200005c578081fd5b81516001600160a01b038116811462000073578182fd5b9392505050565b60805160601c61256a620000a060003960008181610a8e0152610f66015261256a6000f3fe608060405234801561001057600080fd5b50600436106100f15760003560e01c806301ffc9a7146100f65780631918063f1461011f57806332c8506e1461013457806332ed5b121461014757806333c15c341461016f578063430694cf1461018f57806353ba3f57146101af57806354dd9927146101c25780635bd9e299146101d55780635d7dec6f146101ea57806383460ba8146101fd578063980ff6c614610210578063aaa4f33214610223578063aaf7a21414610243578063b70c764c14610264578063bc197c8114610277578063c12639f714610297578063d3f79a05146102aa578063f23a6e61146102bd575b600080fd5b61010961010436600461185d565b6102d0565b6040516101169190611dac565b60405180910390f35b61013261012d3660046116ef565b6102fd565b005b61013261014236600461171e565b6104c4565b61015a6101553660046116bf565b6105dd565b60405161011699989796959493929190611db7565b61018261017d3660046116ef565b610662565b6040516101169190611e0a565b6101a261019d3660046116bf565b61067f565b6040516101169190612292565b6101826101bd36600461183c565b61073b565b6101326101d0366004611805565b610758565b6101dd610a8c565b6040516101169190611cde565b6101826101f8366004611885565b610ab0565b61018261020b3660046116ef565b610c11565b61013261021e3660046116bf565b610c2e565b6102366102313660046116bf565b610d35565b604051610116919061227e565b610256610251366004611767565b610d83565b604051610116929190611e13565b61013261027236600461183c565b610e2a565b61028a61028536600461156c565b61100f565b6040516101169190611e7b565b6101326102a5366004611805565b61110a565b6101096102b83660046116bf565b611339565b61028a6102cb366004611626565b611350565b60006001600160e01b03198216630271189760e51b14806102f557506102f5826113e1565b90505b919050565b6000828152600160205260409020600201546001600160a01b0316331461033f5760405162461bcd60e51b815260040161033690611f20565b60405180910390fd5b6001600160a01b0381166103655760405162461bcd60e51b815260040161033690611e90565b6000828152600160205260408082206002810154600491820154925162c8a40d60e51b81526001600160a01b038087169592169363191481a0936103ab93919201611e13565b60206040518083038186803b1580156103c357600080fd5b505afa1580156103d7573d6000803e3d6000fd5b505050506040513d601f19601f820116820180604052508101906103fb9190611549565b6001600160a01b0316146104215760405162461bcd60e51b815260040161033690611eee565b600082815260016020526040908190208054600590910154915163a9059cbb60e01b81526101009091046001600160a01b031691829163a9059cbb9161046c91869190600401611d93565b602060405180830381600087803b15801561048657600080fd5b505af115801561049a573d6000803e3d6000fd5b505050506040513d601f19601f820116820180604052508101906104be919061169f565b50505050565b6000838152600160205260409020600681015460059091015410156104fb5760405162461bcd60e51b815260040161033690612026565b60008381526001602052604090205460ff161561052a5760405162461bcd60e51b815260040161033690612237565b6000838152600160205260409081902060028101546004918201549251632034967b60e21b81526001600160a01b03909116926380d259ec92610574928892918891889101611e21565b600060405180830381600087803b15801561058e57600080fd5b505af11580156105a2573d6000803e3d6000fd5b5050506000848152600160208190526040808320805460ff1916909217909155518592506000805160206125158339815191529190a2505050565b600160208181526000928352604092839020805492810154600282015460038301546004840154600585015460068601548951606081018b526007880154815260089097015460ff818116998901999099526101009081900489169a88019a909a52968816986001600160a01b03980488169794851696939094169491939092909189565b600460209081526000928352604080842090915290825290205481565b61068761142d565b50600090815260016020818152604092839020835161012081018552815460ff808216151583526001600160a01b036101009283900481168487015295840154861683880152600284015490951660608084019190915260038401546080840152600484015460a0840152600584015460c0840152600684015460e0840152865190810187526007840154815260089093015480861694840194909452928390049093169381019390935281019190915290565b600360209081526000928352604080842090915290825290205481565b6000838152600160205260409020600301546107865760405162461bcd60e51b815260040161033690612088565b60008381526001602052604090205460ff16156107b55760405162461bcd60e51b815260040161033690612237565b6000838152600160205260409020546001600160a01b0383811661010090920416146107f35760405162461bcd60e51b815260040161033690612163565b600081116108135760405162461bcd60e51b815260040161033690612059565b600083815260026020908152604080832033845290915290205481111561084c5760405162461bcd60e51b815260040161033690611f9f565b6040516370a0823160e01b81526000906001600160a01b038416906370a082319061087b903090600401611cde565b60206040518083038186803b15801561089357600080fd5b505afa1580156108a7573d6000803e3d6000fd5b505050506040513d601f19601f820116820180604052508101906108cb91906116d7565b9050816001600086815260200190815260200160002060050160008282546108f39190612459565b9091555050600084815260026020908152604080832033845290915281208054849290610921908490612459565b909155505060405163a9059cbb60e01b81526001600160a01b0384169063a9059cbb906109549033908690600401611d93565b602060405180830381600087803b15801561096e57600080fd5b505af1158015610982573d6000803e3d6000fd5b505050506040513d601f19601f820116820180604052508101906109a6919061169f565b506040516370a0823160e01b815282906001600160a01b038516906370a08231906109d5903090600401611cde565b60206040518083038186803b1580156109ed57600080fd5b505afa158015610a01573d6000803e3d6000fd5b505050506040513d601f19601f82011682018060405250810190610a2591906116d7565b610a2f9083612459565b14610a4c5760405162461bcd60e51b8152600401610336906121b4565b837fe2ab43d60bbb163b7fad7413086cd6c1ee0e0a59a9625e4945a10f1b6a167ff98333604051610a7e92919061231a565b60405180910390a250505050565b7f000000000000000000000000000000000000000000000000000000000000000081565b600080548180610abf83612470565b919050555033838786600054604051602001610adf959493929190611ca2565b60408051601f19818403018152918152815160209283012060008181526001938490529190912080546001600160a01b03808b1661010002610100600160a81b031990921691909117825592810180546001600160a01b03199081163317909155600282018054948a16949091169390931790925560038201819055600482018590556006820186905591508260078201610b7a82826124a1565b50506040516373c587f560e01b81526001600160a01b038716906373c587f590610baa9085908890600401611e13565b600060405180830381600087803b158015610bc457600080fd5b505af1158015610bd8573d6000803e3d6000fd5b50506040518492507f2d231481d8c1af3958a30a257e93e0df6b089bc07ebedc0a86e7355d1aaf13389150600090a25095945050505050565b600260209081526000928352604080842090915290825290205481565b600081815260016020526040902060068101546005909101541015610c655760405162461bcd60e51b815260040161033690612026565b60008181526001602052604090205460ff1615610c945760405162461bcd60e51b815260040161033690612237565b600081815260016020819052604091829020805460ff1916909117815560028101546004918201549251630c17772560e31b81526001600160a01b03909116926360bbb92892610ce79286929101611e13565b600060405180830381600087803b158015610d0157600080fd5b505af1158015610d15573d6000803e3d6000fd5b50506040518392506000805160206125158339815191529150600090a250565b610d3d611480565b5060009081526001602090815260409182902082516060810184526007820154815260089091015460ff8082169383019390935261010090049091169181019190915290565b600080876001600160a01b0316635f49a4348b8b8989896040518663ffffffff1660e01b8152600401610dba959493929190611e41565b602060405180830381600087803b158015610dd457600080fd5b505af1158015610de8573d6000803e3d6000fd5b505050506040513d601f19601f82011682018060405250810190610e0c91906116d7565b9150610e1b8989898d87610ab0565b90509850989650505050505050565b6000828152600260209081526040808320338452909152902054610e605760405162461bcd60e51b8152600401610336906120ec565b60008281526002602090815260408083203384528252808320548584526001909252822060050154610e929190612439565b6000838152600460209081526040808320338452825280832054878452600383528184208785529092528220549293509091610ecf908490612439565b610ed99190612459565b905060008111610efb5760405162461bcd60e51b815260040161033690612131565b6000848152600360209081526040808320868452909152902054811115610f345760405162461bcd60e51b815260040161033690611eb9565b600083815260046020908152604080832033845290915281208054839290610f5d908490612421565b925050819055507f00000000000000000000000000000000000000000000000000000000000000006001600160a01b031663f242432a3033868589604051602001610fa89190611e0a565b6040516020818303038152906040526040518663ffffffff1660e01b8152600401610fd7959493929190611d16565b600060405180830381600087803b158015610ff157600080fd5b505af1158015611005573d6000803e3d6000fd5b5050505050505050565b60008061101e838501856116bf565b60008181526001602052604090206003015490915081146110515760405162461bcd60e51b815260040161033690611f55565b60008181526001602052604090205460ff1661107f5760405162461bcd60e51b8152600401610336906121eb565b60005b878110156110f3576110e1828a8a848181106110ae57634e487b7160e01b600052603260045260246000fd5b905060200201358989858181106110d557634e487b7160e01b600052603260045260246000fd5b905060200201356113fa565b806110eb81612470565b915050611082565b5063bc197c8160e01b9a9950505050505050505050565b6000838152600160205260409020600301546111385760405162461bcd60e51b815260040161033690612088565b60008381526001602052604090205460ff16156111675760405162461bcd60e51b815260040161033690612237565b6000838152600160205260409020546001600160a01b0383811661010090920416146111a55760405162461bcd60e51b815260040161033690612163565b600081116111c55760405162461bcd60e51b815260040161033690612059565b600083815260016020526040902060068101546005909101546111e89083612421565b11156112065760405162461bcd60e51b8152600401610336906120b9565b6040516323b872dd60e01b81526001600160a01b038316906323b872dd9061123690339030908690600401611cf2565b602060405180830381600087803b15801561125057600080fd5b505af1158015611264573d6000803e3d6000fd5b505050506040513d601f19601f82011682018060405250810190611288919061169f565b6112a45760405162461bcd60e51b815260040161033690611fe4565b600083815260016020526040812060050180548392906112c5908490612421565b90915550506000838152600260209081526040808320338452909152812080548392906112f3908490612421565b92505081905550827f82999597cf961179ae8200cb30fa0dcf5559a734cfd867ccd187c5dd6946c413823360405161132c92919061231a565b60405180910390a2505050565b600090815260016020526040902060030154151590565b60008061135f838501856116bf565b60008181526001602052604090206003015490915081146113925760405162461bcd60e51b815260040161033690611f55565b60008181526001602052604090205460ff166113c05760405162461bcd60e51b8152600401610336906121eb565b6113cb8187876113fa565b5063f23a6e6160e01b90505b9695505050505050565b6001600160e01b031981166301ffc9a760e01b14919050565b600083815260036020908152604080832085845290915281208054839290611423908490612421565b9091555050505050565b6040805161012081018252600080825260208201819052918101829052606081018290526080810182905260a0810182905260c0810182905260e0810191909152610100810161147b611480565b905290565b604080516060810182526000808252602082018190529181019190915290565b80356102f8816124ed565b60008083601f8401126114bc578182fd5b5081356001600160401b038111156114d2578182fd5b60208301915083602080830285010111156114ec57600080fd5b9250929050565b60008083601f840112611504578182fd5b5081356001600160401b0381111561151a578182fd5b6020830191508360208285010111156114ec57600080fd5b600060608284031215611543578081fd5b50919050565b60006020828403121561155a578081fd5b8151611565816124ed565b9392505050565b60008060008060008060008060a0898b031215611587578384fd5b8835611592816124ed565b975060208901356115a2816124ed565b965060408901356001600160401b03808211156115bd578586fd5b6115c98c838d016114ab565b909850965060608b01359150808211156115e1578586fd5b6115ed8c838d016114ab565b909650945060808b0135915080821115611605578384fd5b506116128b828c016114f3565b999c989b5096995094979396929594505050565b60008060008060008060a0878903121561163e578182fd5b8635611649816124ed565b95506020870135611659816124ed565b9450604087013593506060870135925060808701356001600160401b03811115611681578283fd5b61168d89828a016114f3565b979a9699509497509295939492505050565b6000602082840312156116b0578081fd5b81518015158114611565578182fd5b6000602082840312156116d0578081fd5b5035919050565b6000602082840312156116e8578081fd5b5051919050565b60008060408385031215611701578182fd5b823591506020830135611713816124ed565b809150509250929050565b600080600060408486031215611732578283fd5b8335925060208401356001600160401b0381111561174e578283fd5b61175a868287016114ab565b9497909650939450505050565b600080600080600080600080610160898b031215611783578182fd5b883597506020890135611795816124ed565b965060408901356117a5816124ed565b95506060890135945060808901356001600160401b038111156117c6578283fd5b6117d28b828c016114ab565b90955093506117e690508a60a08b01611532565b91506117f68a6101008b01611532565b90509295985092959890939650565b600080600060608486031215611819578081fd5b83359250602084013561182b816124ed565b929592945050506040919091013590565b6000806040838503121561184e578182fd5b50508035926020909101359150565b60006020828403121561186e578081fd5b81356001600160e01b031981168114611565578182fd5b600080600080600060e0868803121561189c578283fd5b85356118a7816124ed565b945060208601356118b7816124ed565b935060408601359250606086013591506118d48760808801611532565b90509295509295909350565b6001600160a01b03169052565b81835260006001600160fb1b03831115611905578081fd5b6020830280836020870137939093016020019283525090919050565b818352602080840193600091908185020181018584845b87811015611a2457828403895261194f8288612403565b60e0813561195c816124ed565b61196687826118e0565b506119728783016114a0565b61197e888801826118e0565b50604061198c8184016114a0565b611998828901826118e0565b50506060828101359087015260806119b2818401846123bf565b83838a01526119c4848a018284611b0d565b935050505060a06119d781840184612331565b888403838a01526119e9848284611a31565b935050505060c06119fc81840184612403565b92508682038188015250611a108183611b37565b9a87019a9550505090840190600101611938565b5091979650505050505050565b818352602080840193600091908185020181018584845b87811015611a245782840389528135609e19883603018112611a68578687fd5b87018035855260a08682013560048110611a80578889fd5b8688015260408281013590870152606080830135908701526080611aa6818401846123bf565b93508282890152611aba8389018583611b0d565b9c89019c97505050928601925050600101611a48565b600082845260208401935081815b84811015611b0357611af08683611c4a565b6060958601959190910190600101611ade565b5093949350505050565b60008284528282602086013780602084860101526020601f19601f85011685010190509392505050565b60008135611b44816124ed565b6001600160a01b03168352602082810135818501526040808401358186015260608085013590860152611b7a6080850185612331565b60e06080880152611b8f60e0880182846118ed565b915050611b9f60a0860186612331565b87830360a08901528083528483018582028401860183885b84811015611c1657868303601f19018452813536879003603e19018112611bdc578a8bfd5b860180358452611bee8a820182612331565b9150898b860152611c028a860183836118ed565b958b01959450505090880190600101611bb7565b5050611c2560c08a018a612378565b9750955089810360c08b0152611c3c818888611ad0565b9a9950505050505050505050565b803582526020810135611c5c81612505565b60ff1660208301526040810135611c7281612505565b60ff81166040840152505050565b8051825260ff602082015116602083015260ff60408201511660408301525050565b6001600160601b0319606096871b8116825260148201959095529290941b90921660348201526048810191909152606881019190915260880190565b6001600160a01b0391909116815260200190565b6001600160a01b039384168152919092166020820152604081019190915260600190565b600060018060a01b03808816835260208188168185015286604085015285606085015260a06080850152845191508160a0850152825b82811015611d685785810182015185820160c001528101611d4c565b82811115611d79578360c084870101525b5050601f01601f19169190910160c0019695505050505050565b6001600160a01b03929092168252602082015260400190565b901515815260200190565b89151581526001600160a01b0389811660208301528881166040830152871660608201526080810186905260a0810185905260c0810184905260e081018390526101608101611c3c610100830184611c80565b90815260200190565b918252602082015260400190565b6000858252846020830152606060408301526113d7606083018486611921565b8581526001600160a01b038516602082015260c060408201819052600090611e6c9083018587611921565b90506113d76060830184611c4a565b6001600160e01b031991909116815260200190565b6020808252600f908201526e496e76616c6964206164647265737360881b604082015260600190565b6020808252818101527f50726f706f73616c734875623a3a436c61696d20697320746f6f206c61726765604082015260600190565b602080825260189082015277496e636f727265637420736f6c766572206164647265737360401b604082015260600190565b6020808252601b908201527a36b9b39739b2b73232b9103737ba1039b7b63aba34b7b739a43ab160291b604082015260600190565b6020808252602a908201527f50726f706f73616c734875623a3a44617461206973206e6f742076616c6964206040820152691c1c9bdc1bdcd85b125960b21b606082015260800190565b60208082526025908201527f436f6d6d69747465642066756e6473206973206c6f776572207468616e20616d60408201526437bab73a1760d91b606082015260800190565b60208082526022908201527f436f756c64206e6f74207472616e736665722066726f6d206d73672e73656e6460408201526132b960f11b606082015260800190565b602080825260199082015278141c9bdc1bdcd85b081b9bdd08199d5b1b1e48199d5b991959603a1b604082015260600190565b602080825260159082015274416d6f756e742063616e6e6f74206265207a65726f60581b604082015260600190565b602080825260179082015276141c9bdc1bdcd85b08191bd95cc81b9bdd08195e1a5cdd604a1b604082015260600190565b60208082526019908201527810d85b89dd08199d5b99081b5bdc99481d1a185b8819dbd85b603a1b604082015260600190565b60208082526025908201527f50726f706f73616c734875623a3a6d73672e73656e64657220686173206e6f20604082015264636c61696d60d81b606082015260800190565b602080825260189082015277050726f706f73616c734875623a3a436c61696d20697320360441b604082015260600190565b60208082526031908201527f50726f706f73616c20646f6573206e6f7420696e636c756465207468697320746040820152701bdad95b881d1bc8189948199d5b991959607a1b606082015260800190565b6020808252601e908201527f4265666f726520616e642061667465722062616c616e63652077726f6e670000604082015260600190565b6020808252602c908201527f50726f706f73616c734875623a3a50726f706f73616c20686173206e6f74206260408201526b19595b88195e1958dd5d195960a21b606082015260800190565b60208082526027908201527f50726f706f73616c734875623a3a50726f706f73616c20616c726561647920656040820152661e1958dd5d195960ca1b606082015260800190565b6060810161228c8284611c80565b92915050565b8151151581526020808301516001600160a01b0316908201526040808301516101608301916122c3908401826118e0565b5060608301516122d660608401826118e0565b506080830151608083015260a083015160a083015260c083015160c083015260e083015160e08301526101008084015161231282850182611c80565b505092915050565b9182526001600160a01b0316602082015260400190565b6000808335601e19843603018112612347578283fd5b83016020810192503590506001600160401b0381111561236657600080fd5b6020810236038313156114ec57600080fd5b6000808335601e1984360301811261238e578283fd5b83016020810192503590506001600160401b038111156123ad57600080fd5b6060810236038313156114ec57600080fd5b6000808335601e198436030181126123d5578283fd5b83016020810192503590506001600160401b038111156123f457600080fd5b8036038313156114ec57600080fd5b6000823560de19833603018112612418578182fd5b90910192915050565b600082198211156124345761243461248b565b500190565b60008261245457634e487b7160e01b81526012600452602481fd5b500490565b60008282101561246b5761246b61248b565b500390565b60006000198214156124845761248461248b565b5060010190565b634e487b7160e01b600052601160045260246000fd5b813581556001810160208301356124b781612505565b815460ff191660ff919091161780825560408401356124d581612505565b61ff008160081b1661ff001983161783555050505050565b6001600160a01b038116811461250257600080fd5b50565b60ff8116811461250257600080fdfe3a5a0357f01e19a1531e65bfe13d63c64c9ae8f03d8c26ae74b1e2929a4f3966a264697066735822122084dc5af30c57fd4fc616eab550cf34c7f43e70cfe6d3ab54ebb8838c941c644e64736f6c63430008000033",
  "linkReferences": {},
  "deployedLinkReferences": {}
}