{
  "_format": "hh-sol-artifact-1",
  "contractName": "ProposalsHub",
  "sourceName": "contracts/ProposalsHub.sol",
  "abi": [
    {
      "inputs": [
        {
          "internalType": "address",
          "name": "_ctfAddress",
          "type": "address"
        }
      ],
      "stateMutability": "nonpayable",
      "type": "constructor"
    },
    {
      "anonymous": false,
      "inputs": [
        {
          "indexed": false,
          "internalType": "bytes32",
          "name": "id",
          "type": "bytes32"
        }
      ],
      "name": "CreateProposal",
      "type": "event"
    },
    {
      "anonymous": false,
      "inputs": [
        {
          "indexed": false,
          "internalType": "bytes32",
          "name": "id",
          "type": "bytes32"
        }
      ],
      "name": "ExecuteProposal",
      "type": "event"
    },
    {
      "inputs": [],
      "name": "conditionalTokens",
      "outputs": [
        {
          "internalType": "contract IConditionalTokens",
          "name": "",
          "type": "address"
        }
      ],
      "stateMutability": "view",
      "type": "function"
    },
    {
      "inputs": [
        {
          "internalType": "contract IERC20",
          "name": "collateralToken",
          "type": "address"
        },
        {
          "internalType": "address",
          "name": "solutionsHub",
          "type": "address"
        },
        {
          "internalType": "uint256",
          "name": "fundingGoal",
          "type": "uint256"
        },
        {
          "internalType": "bytes32",
          "name": "solutionId",
          "type": "bytes32"
        }
      ],
      "name": "createProposal",
      "outputs": [],
      "stateMutability": "nonpayable",
      "type": "function"
    },
    {
      "inputs": [
        {
          "internalType": "bytes32",
          "name": "proposalId",
          "type": "bytes32"
        },
        {
          "internalType": "contract IERC20",
          "name": "token",
          "type": "address"
        },
        {
          "internalType": "uint256",
          "name": "amount",
          "type": "uint256"
        }
      ],
      "name": "defundProposal",
      "outputs": [],
      "stateMutability": "nonpayable",
      "type": "function"
    },
    {
      "inputs": [
        {
          "internalType": "bytes32",
          "name": "proposalId",
          "type": "bytes32"
        },
        {
          "components": [
            {
              "internalType": "contract Solver",
              "name": "implementation",
              "type": "address"
            },
            {
              "internalType": "address",
              "name": "keeper",
              "type": "address"
            },
            {
              "internalType": "address",
              "name": "arbitrator",
              "type": "address"
            },
            {
              "internalType": "uint256",
              "name": "timelockSeconds",
              "type": "uint256"
            },
            {
              "internalType": "bytes",
              "name": "data",
              "type": "bytes"
            },
            {
              "components": [
                {
                  "internalType": "uint256",
                  "name": "executions",
                  "type": "uint256"
                },
                {
                  "internalType": "enum SolverLib.IngestType",
                  "name": "ingestType",
                  "type": "uint8"
                },
                {
                  "internalType": "bytes32",
                  "name": "slot",
                  "type": "bytes32"
                },
                {
                  "internalType": "uint256",
                  "name": "solverIndex",
                  "type": "uint256"
                },
                {
                  "internalType": "bytes",
                  "name": "data",
                  "type": "bytes"
                }
              ],
              "internalType": "struct SolverLib.Ingest[]",
              "name": "ingests",
              "type": "tuple[]"
            },
            {
              "components": [
                {
                  "internalType": "contract IERC20",
                  "name": "collateralToken",
                  "type": "address"
                },
                {
                  "internalType": "uint256",
                  "name": "outcomeSlots",
                  "type": "uint256"
                },
                {
                  "internalType": "uint256",
                  "name": "parentCollectionIndexSet",
                  "type": "uint256"
                },
                {
                  "internalType": "bytes32",
                  "name": "amountSlot",
                  "type": "bytes32"
                },
                {
                  "internalType": "uint256[]",
                  "name": "partition",
                  "type": "uint256[]"
                },
                {
                  "components": [
                    {
                      "internalType": "bytes32",
                      "name": "recipientAddressSlot",
                      "type": "bytes32"
                    },
                    {
                      "internalType": "bytes32[]",
                      "name": "recipientAmountSlots",
                      "type": "bytes32[]"
                    }
                  ],
                  "internalType": "struct SolverLib.Allocation[]",
                  "name": "allocations",
                  "type": "tuple[]"
                },
                {
                  "components": [
                    {
                      "internalType": "bytes32",
                      "name": "digest",
                      "type": "bytes32"
                    },
                    {
                      "internalType": "uint8",
                      "name": "hashFunction",
                      "type": "uint8"
                    },
                    {
                      "internalType": "uint8",
                      "name": "size",
                      "type": "uint8"
                    }
                  ],
                  "internalType": "struct SolverLib.Multihash[]",
                  "name": "outcomeURIs",
                  "type": "tuple[]"
                }
              ],
              "internalType": "struct SolverLib.ConditionBase",
              "name": "conditionBase",
              "type": "tuple"
            }
          ],
          "internalType": "struct SolverLib.Config[]",
          "name": "solverConfigs",
          "type": "tuple[]"
        }
      ],
      "name": "executeIPFSProposal",
      "outputs": [],
      "stateMutability": "nonpayable",
      "type": "function"
    },
    {
      "inputs": [
        {
          "internalType": "bytes32",
          "name": "proposalId",
          "type": "bytes32"
        }
      ],
      "name": "executeProposal",
      "outputs": [],
      "stateMutability": "nonpayable",
      "type": "function"
    },
    {
      "inputs": [
        {
          "internalType": "bytes32",
          "name": "proposalId",
          "type": "bytes32"
        },
        {
          "internalType": "contract IERC20",
          "name": "token",
          "type": "address"
        },
        {
          "internalType": "uint256",
          "name": "amount",
          "type": "uint256"
        }
      ],
      "name": "fundProposal",
      "outputs": [],
      "stateMutability": "nonpayable",
      "type": "function"
    },
    {
      "inputs": [
        {
          "internalType": "bytes32",
          "name": "",
          "type": "bytes32"
        },
        {
          "internalType": "address",
          "name": "",
          "type": "address"
        }
      ],
      "name": "funderAmountMap",
      "outputs": [
        {
          "internalType": "uint256",
          "name": "",
          "type": "uint256"
        }
      ],
      "stateMutability": "view",
      "type": "function"
    },
    {
      "inputs": [
        {
          "internalType": "bytes32",
          "name": "id",
          "type": "bytes32"
        }
      ],
      "name": "getContext",
      "outputs": [
        {
          "components": [
            {
              "internalType": "bytes32",
              "name": "digest",
              "type": "bytes32"
            },
            {
              "internalType": "uint8",
              "name": "hashFunction",
              "type": "uint8"
            },
            {
              "internalType": "uint8",
              "name": "size",
              "type": "uint8"
            }
          ],
          "internalType": "struct SolverLib.Multihash",
          "name": "",
          "type": "tuple"
        }
      ],
      "stateMutability": "view",
      "type": "function"
    },
    {
      "inputs": [
        {
          "internalType": "bytes32",
          "name": "id",
          "type": "bytes32"
        }
      ],
      "name": "getProposal",
      "outputs": [
        {
          "components": [
            {
              "internalType": "bool",
              "name": "isExecuted",
              "type": "bool"
            },
            {
              "internalType": "contract IERC20",
              "name": "collateralToken",
              "type": "address"
            },
            {
              "internalType": "address",
              "name": "proposer",
              "type": "address"
            },
            {
              "internalType": "address",
              "name": "solutionsHub",
              "type": "address"
            },
            {
              "internalType": "bytes32",
              "name": "id",
              "type": "bytes32"
            },
            {
              "internalType": "bytes32",
              "name": "solutionId",
              "type": "bytes32"
            },
            {
              "internalType": "uint256",
              "name": "funding",
              "type": "uint256"
            },
            {
              "internalType": "uint256",
              "name": "fundingGoal",
              "type": "uint256"
            },
            {
              "components": [
                {
                  "internalType": "bytes32",
                  "name": "digest",
                  "type": "bytes32"
                },
                {
                  "internalType": "uint8",
                  "name": "hashFunction",
                  "type": "uint8"
                },
                {
                  "internalType": "uint8",
                  "name": "size",
                  "type": "uint8"
                }
              ],
              "internalType": "struct SolverLib.Multihash",
              "name": "context",
              "type": "tuple"
            }
          ],
          "internalType": "struct ProposalsHub.Proposal",
          "name": "proposal",
          "type": "tuple"
        }
      ],
      "stateMutability": "view",
      "type": "function"
    },
    {
      "inputs": [
        {
          "internalType": "bytes32",
          "name": "id",
          "type": "bytes32"
        }
      ],
      "name": "isProposal",
      "outputs": [
        {
          "internalType": "bool",
          "name": "",
          "type": "bool"
        }
      ],
      "stateMutability": "view",
      "type": "function"
    },
    {
      "inputs": [
        {
          "internalType": "address",
          "name": "operator",
          "type": "address"
        },
        {
          "internalType": "address",
          "name": "from",
          "type": "address"
        },
        {
          "internalType": "uint256[]",
          "name": "ids",
          "type": "uint256[]"
        },
        {
          "internalType": "uint256[]",
          "name": "values",
          "type": "uint256[]"
        },
        {
          "internalType": "bytes",
          "name": "data",
          "type": "bytes"
        }
      ],
      "name": "onERC1155BatchReceived",
      "outputs": [
        {
          "internalType": "bytes4",
          "name": "",
          "type": "bytes4"
        }
      ],
      "stateMutability": "nonpayable",
      "type": "function"
    },
    {
      "inputs": [
        {
          "internalType": "address",
          "name": "operator",
          "type": "address"
        },
        {
          "internalType": "address",
          "name": "from",
          "type": "address"
        },
        {
          "internalType": "uint256",
          "name": "id",
          "type": "uint256"
        },
        {
          "internalType": "uint256",
          "name": "value",
          "type": "uint256"
        },
        {
          "internalType": "bytes",
          "name": "data",
          "type": "bytes"
        }
      ],
      "name": "onERC1155Received",
      "outputs": [
        {
          "internalType": "bytes4",
          "name": "",
          "type": "bytes4"
        }
      ],
      "stateMutability": "nonpayable",
      "type": "function"
    },
    {
      "inputs": [
        {
          "internalType": "bytes32",
          "name": "",
          "type": "bytes32"
        }
      ],
      "name": "proposals",
      "outputs": [
        {
          "internalType": "bool",
          "name": "isExecuted",
          "type": "bool"
        },
        {
          "internalType": "contract IERC20",
          "name": "collateralToken",
          "type": "address"
        },
        {
          "internalType": "address",
          "name": "proposer",
          "type": "address"
        },
        {
          "internalType": "address",
          "name": "solutionsHub",
          "type": "address"
        },
        {
          "internalType": "bytes32",
          "name": "id",
          "type": "bytes32"
        },
        {
          "internalType": "bytes32",
          "name": "solutionId",
          "type": "bytes32"
        },
        {
          "internalType": "uint256",
          "name": "funding",
          "type": "uint256"
        },
        {
          "internalType": "uint256",
          "name": "fundingGoal",
          "type": "uint256"
        },
        {
          "components": [
            {
              "internalType": "bytes32",
              "name": "digest",
              "type": "bytes32"
            },
            {
              "internalType": "uint8",
              "name": "hashFunction",
              "type": "uint8"
            },
            {
              "internalType": "uint8",
              "name": "size",
              "type": "uint8"
            }
          ],
          "internalType": "struct SolverLib.Multihash",
          "name": "context",
          "type": "tuple"
        }
      ],
      "stateMutability": "view",
      "type": "function"
    },
    {
      "inputs": [
        {
          "internalType": "bytes32",
          "name": "proposalId",
          "type": "bytes32"
        },
        {
          "internalType": "uint256",
          "name": "tokenId",
          "type": "uint256"
        }
      ],
      "name": "reclaimTokens",
      "outputs": [],
      "stateMutability": "nonpayable",
      "type": "function"
    },
    {
      "inputs": [
        {
          "internalType": "bytes32",
          "name": "",
          "type": "bytes32"
        },
        {
          "internalType": "uint256",
          "name": "",
          "type": "uint256"
        }
      ],
      "name": "reclaimableTokens",
      "outputs": [
        {
          "internalType": "uint256",
          "name": "",
          "type": "uint256"
        }
      ],
      "stateMutability": "view",
      "type": "function"
    },
    {
      "inputs": [
        {
          "internalType": "uint256",
          "name": "",
          "type": "uint256"
        },
        {
          "internalType": "address",
          "name": "",
          "type": "address"
        }
      ],
      "name": "reclaimedTokens",
      "outputs": [
        {
          "internalType": "uint256",
          "name": "",
          "type": "uint256"
        }
      ],
      "stateMutability": "view",
      "type": "function"
    },
    {
      "inputs": [
        {
          "internalType": "bytes4",
          "name": "interfaceId",
          "type": "bytes4"
        }
      ],
      "name": "supportsInterface",
      "outputs": [
        {
          "internalType": "bool",
          "name": "",
          "type": "bool"
        }
      ],
      "stateMutability": "view",
      "type": "function"
    },
    {
      "inputs": [
        {
          "internalType": "bytes32",
          "name": "_proposalId",
          "type": "bytes32"
        },
        {
          "internalType": "address",
          "name": "_solver",
          "type": "address"
        }
      ],
      "name": "transferERC20",
      "outputs": [],
      "stateMutability": "nonpayable",
      "type": "function"
    }
  ],
  "bytecode": "0x60a060405234801561001057600080fd5b50604051620023c6380380620023c683398101604081905261003191610046565b60601b6001600160601b031916608052610074565b600060208284031215610057578081fd5b81516001600160a01b038116811461006d578182fd5b9392505050565b60805160601c61232c6200009a60003960008181610b450152610dfe015261232c6000f3fe608060405234801561001057600080fd5b50600436106101365760003560e01c806354dd9927116100b2578063b70c764c11610081578063c12639f711610066578063c12639f7146102bb578063d3f79a05146102ce578063f23a6e61146102e157610136565b8063b70c764c14610288578063bc197c811461029b57610136565b806354dd99271461023a5780635bd9e2991461024d57806383460ba814610262578063980ff6c61461027557610136565b806332c8506e1161010957806333c15c34116100ee57806333c15c34146101e7578063430694cf1461020757806353ba3f571461022757610136565b806332c8506e146101ac57806332ed5b12146101bf57610136565b806301ffc9a71461013b578063116f94d0146101645780631918063f1461017957806329b2be011461018c575b600080fd5b61014e610149366004611653565b6102f4565b60405161015b9190611a8e565b60405180910390f35b61017761017236600461167b565b61033a565b005b610177610187366004611582565b6104d0565b61019f61019a36600461156a565b6106b1565b60405161015b91906120cc565b6101776101ba3660046115b1565b6106ff565b6101d26101cd36600461156a565b610852565b60405161015b99989796959493929190611a99565b6101fa6101f5366004611582565b6108d7565b60405161015b9190611aec565b61021a61021536600461156a565b6108f4565b60405161015b91906120e0565b6101fa610235366004611632565b6109b0565b6101776102483660046115fb565b6109cd565b610255610b43565b60405161015b9190611c40565b6101fa610270366004611582565b610b67565b61017761028336600461156a565b610b84565b610177610296366004611632565b610cc2565b6102ae6102a9366004611415565b610ea7565b60405161015b9190611c2b565b6101776102c93660046115fb565b610fbb565b61014e6102dc36600461156a565b6111c7565b6102ae6102ef3660046114d0565b6111de565b60006001600160e01b031982167f4e2312e0000000000000000000000000000000000000000000000000000000001480610332575061033282611286565b90505b919050565b600080549080610349836122ad565b919050555060003382868560005460405160200161036b959493929190611992565b60408051601f19818403018152828252805160209182012060008181526001928390529290922080546001600160a01b03808b16610100027fffffffffffffffffffffff0000000000000000000000000000000000000000ff90921691909117825591810180547fffffffffffffffffffffffff00000000000000000000000000000000000000009081163317909155600282018054938a169390911683179055600381018390556004808201879055600682018890557f73c587f50000000000000000000000000000000000000000000000000000000085529294509290916373c587f59161045f918691889101611af5565b600060405180830381600087803b15801561047957600080fd5b505af115801561048d573d6000803e3d6000fd5b505050507f2d231481d8c1af3958a30a257e93e0df6b089bc07ebedc0a86e7355d1aaf1338826040516104c09190611aec565b60405180910390a1505050505050565b6000828152600160205260409020600201546001600160a01b031633146105125760405162461bcd60e51b815260040161050990611cf7565b60405180910390fd5b6001600160a01b0381166105385760405162461bcd60e51b815260040161050990611c54565b600082815260016020526040808220600281015460049182015492517f191481a00000000000000000000000000000000000000000000000000000000081526001600160a01b038087169592169363191481a09361059893919201611af5565b60206040518083038186803b1580156105b057600080fd5b505afa1580156105c4573d6000803e3d6000fd5b505050506040513d601f19601f820116820180604052508101906105e891906113f2565b6001600160a01b03161461060e5760405162461bcd60e51b815260040161050990611cc0565b600082815260016020526040908190208054600590910154915163a9059cbb60e01b81526101009091046001600160a01b031691829163a9059cbb9161065991869190600401611a75565b602060405180830381600087803b15801561067357600080fd5b505af1158015610687573d6000803e3d6000fd5b505050506040513d601f19601f820116820180604052508101906106ab919061154a565b50505050565b6106b96112eb565b5060009081526001602090815260409182902082516060810184526007820154815260089091015460ff8082169383019390935261010090049091169181019190915290565b6000838152600160205260409020600681015460059091015410156107365760405162461bcd60e51b815260040161050990611e45565b60008381526001602052604090205460ff16156107655760405162461bcd60e51b81526004016105099061206f565b60008381526001602052604090819020600281015460049182015492517f80d259ec0000000000000000000000000000000000000000000000000000000081526001600160a01b03909116926380d259ec926107c8928892918891889101611b03565b600060405180830381600087803b1580156107e257600080fd5b505af11580156107f6573d6000803e3d6000fd5b505050600084815260016020819052604091829020805460ff19169091179055517f3a5a0357f01e19a1531e65bfe13d63c64c9ae8f03d8c26ae74b1e2929a4f39669150610845908590611aec565b60405180910390a1505050565b600160208181526000928352604092839020805492810154600282015460038301546004840154600585015460068601548951606081018b526007880154815260089097015460ff818116998901999099526101009081900489169a88019a909a52968816986001600160a01b03980488169794851696939094169491939092909189565b600460209081526000928352604080842090915290825290205481565b6108fc61130b565b50600090815260016020818152604092839020835161012081018552815460ff808216151583526001600160a01b036101009283900481168487015295840154861683880152600284015490951660608084019190915260038401546080840152600484015460a0840152600584015460c0840152600684015460e0840152865190810187526007840154815260089093015480861694840194909452928390049093169381019390935281019190915290565b600360209081526000928352604080842090915290825290205481565b6000838152600160205260409020600301546109fb5760405162461bcd60e51b815260040161050990611eb3565b60008381526001602052604090205460ff1615610a2a5760405162461bcd60e51b81526004016105099061206f565b6000838152600160205260409020546001600160a01b038381166101009092041614610a685760405162461bcd60e51b815260040161050990611fb5565b60008111610a885760405162461bcd60e51b815260040161050990611e7c565b6000838152600260209081526040808320338452909152902054811115610ac15760405162461bcd60e51b815260040161050990611d8b565b60008381526001602052604081206005018054839290610ae2908490612296565b9091555050600083815260026020908152604080832033845290915281208054839290610b10908490612296565b909155505060405163a9059cbb60e01b81526001600160a01b0383169063a9059cbb906106599033908590600401611a75565b7f000000000000000000000000000000000000000000000000000000000000000081565b600260209081526000928352604080842090915290825290205481565b600081815260016020526040902060068101546005909101541015610bbb5760405162461bcd60e51b815260040161050990611e45565b60008181526001602052604090205460ff1615610bea5760405162461bcd60e51b81526004016105099061206f565b600081815260016020819052604091829020805460ff19169091178155600281015460049182015492517f60bbb9280000000000000000000000000000000000000000000000000000000081526001600160a01b03909116926360bbb92892610c569286929101611af5565b600060405180830381600087803b158015610c7057600080fd5b505af1158015610c84573d6000803e3d6000fd5b505050507f3a5a0357f01e19a1531e65bfe13d63c64c9ae8f03d8c26ae74b1e2929a4f396681604051610cb79190611aec565b60405180910390a150565b6000828152600260209081526040808320338452909152902054610cf85760405162461bcd60e51b815260040161050990611f21565b60008281526002602090815260408083203384528252808320548584526001909252822060050154610d2a9190612276565b6000838152600460209081526040808320338452825280832054878452600383528184208785529092528220549293509091610d67908490612276565b610d719190612296565b905060008111610d935760405162461bcd60e51b815260040161050990611f7e565b6000848152600360209081526040808320868452909152902054811115610dcc5760405162461bcd60e51b815260040161050990611c8b565b600083815260046020908152604080832033845290915281208054839290610df590849061225e565b925050819055507f00000000000000000000000000000000000000000000000000000000000000006001600160a01b031663f242432a3033868589604051602001610e409190611aec565b6040516020818303038152906040526040518663ffffffff1660e01b8152600401610e6f9594939291906119f7565b600060405180830381600087803b158015610e8957600080fd5b505af1158015610e9d573d6000803e3d6000fd5b5050505050505050565b600080610eb68385018561156a565b6000818152600160205260409020600301549091508114610ee95760405162461bcd60e51b815260040161050990611d2e565b60008181526001602052604090205460ff16610f175760405162461bcd60e51b815260040161050990612012565b60005b87811015610f8b57610f79828a8a84818110610f4657634e487b7160e01b600052603260045260246000fd5b90506020020135898985818110610f6d57634e487b7160e01b600052603260045260246000fd5b905060200201356112b8565b80610f83816122ad565b915050610f1a565b507fbc197c81000000000000000000000000000000000000000000000000000000009a9950505050505050505050565b600083815260016020526040902060030154610fe95760405162461bcd60e51b815260040161050990611eb3565b60008381526001602052604090205460ff16156110185760405162461bcd60e51b81526004016105099061206f565b6000838152600160205260409020546001600160a01b0383811661010090920416146110565760405162461bcd60e51b815260040161050990611fb5565b600081116110765760405162461bcd60e51b815260040161050990611e7c565b60008381526001602052604090206006810154600590910154611099908361225e565b11156110b75760405162461bcd60e51b815260040161050990611eea565b600083815260016020526040812060050180548392906110d890849061225e565b909155505060008381526002602090815260408083203384529091528120805483929061110690849061225e565b90915550506040517f23b872dd0000000000000000000000000000000000000000000000000000000081526001600160a01b038316906323b872dd90611154903390309086906004016119d3565b602060405180830381600087803b15801561116e57600080fd5b505af1158015611182573d6000803e3d6000fd5b505050506040513d601f19601f820116820180604052508101906111a6919061154a565b6111c25760405162461bcd60e51b815260040161050990611de8565b505050565b600090815260016020526040902060030154151590565b6000806111ed8385018561156a565b60008181526001602052604090206003015490915081146112205760405162461bcd60e51b815260040161050990611d2e565b60008181526001602052604090205460ff1661124e5760405162461bcd60e51b815260040161050990612012565b6112598187876112b8565b507ff23a6e6100000000000000000000000000000000000000000000000000000000979650505050505050565b6001600160e01b031981167f01ffc9a70000000000000000000000000000000000000000000000000000000014919050565b6000838152600360209081526040808320858452909152812080548392906112e190849061225e565b9091555050505050565b604080516060810182526000808252602082018190529181019190915290565b6040805161012081018252600080825260208201819052918101829052606081018290526080810182905260a0810182905260c0810182905260e081019190915261010081016113596112eb565b905290565b8035610335816122de565b60008083601f84011261137a578182fd5b50813567ffffffffffffffff811115611391578182fd5b60208301915083602080830285010111156113ab57600080fd5b9250929050565b60008083601f8401126113c3578182fd5b50813567ffffffffffffffff8111156113da578182fd5b6020830191508360208285010111156113ab57600080fd5b600060208284031215611403578081fd5b815161140e816122de565b9392505050565b60008060008060008060008060a0898b031215611430578384fd5b883561143b816122de565b9750602089013561144b816122de565b9650604089013567ffffffffffffffff80821115611467578586fd5b6114738c838d01611369565b909850965060608b013591508082111561148b578586fd5b6114978c838d01611369565b909650945060808b01359150808211156114af578384fd5b506114bc8b828c016113b2565b999c989b5096995094979396929594505050565b60008060008060008060a087890312156114e8578182fd5b86356114f3816122de565b95506020870135611503816122de565b94506040870135935060608701359250608087013567ffffffffffffffff81111561152c578283fd5b61153889828a016113b2565b979a9699509497509295939492505050565b60006020828403121561155b578081fd5b8151801515811461140e578182fd5b60006020828403121561157b578081fd5b5035919050565b60008060408385031215611594578182fd5b8235915060208301356115a6816122de565b809150509250929050565b6000806000604084860312156115c5578283fd5b83359250602084013567ffffffffffffffff8111156115e2578283fd5b6115ee86828701611369565b9497909650939450505050565b60008060006060848603121561160f578283fd5b833592506020840135611621816122de565b929592945050506040919091013590565b60008060408385031215611644578182fd5b50508035926020909101359150565b600060208284031215611664578081fd5b81356001600160e01b03198116811461140e578182fd5b60008060008060808587031215611690578182fd5b843561169b816122de565b935060208501356116ab816122de565b93969395505050506040820135916060013590565b6001600160a01b03169052565b60008284527f07ffffffffffffffffffffffffffffffffffffffffffffffffffffffffffffff8311156116fe578081fd5b6020830280836020870137939093016020019283525090919050565b818352602080840193600091908185020181018584845b878110156117b95782840389528135609e19883603018112611751578687fd5b87018035855260a08682013560048110611769578889fd5b868801526040828101359087015260608083013590870152608061178f818401846121fb565b935082828901526117a38389018583611833565b9c89019c97505050928601925050600101611731565b5091979650505050505050565b60008284526020808501945082825b8581101561182857813587528282013560ff8082168083146117f5578687fd5b89860152604091508382013590811690818114611810578687fd5b509088015260609687019691909101906001016117d5565b509495945050505050565b60008284528282602086013780602084860101526020601f19601f85011685010190509392505050565b6000813561186a816122de565b6001600160a01b031683526020828101358185015260408084013581860152606080850135908601526118a0608085018561216b565b60e060808801526118b560e0880182846116cd565b9150506118c560a086018661216b565b87830360a08901528083528483018582028401860183885b8481101561193c57868303601f19018452813536879003603e19018112611902578a8bfd5b8601803584526119148a82018261216b565b9150898b8601526119288a860183836116cd565b958b019594505050908801906001016118dd565b505061194b60c08a018a6121b3565b9750955089810360c08b01526119628188886117c6565b9a9950505050505050505050565b8051825260ff602082015116602083015260ff60408201511660408301525050565b6bffffffffffffffffffffffff19606096871b8116825260148201959095529290941b90921660348201526048810191909152606881019190915260880190565b6001600160a01b039384168152919092166020820152604081019190915260600190565b60006001600160a01b03808816835260208188168185015286604085015285606085015260a06080850152845191508160a0850152825b82811015611a4a5785810182015185820160c001528101611a2e565b82811115611a5b578360c084870101525b5050601f01601f19169190910160c0019695505050505050565b6001600160a01b03929092168252602082015260400190565b901515815260200190565b89151581526001600160a01b0389811660208301528881166040830152871660608201526080810186905260a0810185905260c0810184905260e081018390526101608101611962610100830184611970565b90815260200190565b918252602082015260400190565b8481526020808201859052606060408084018290528382018590526000926080918286018783028701840189875b8a811015611c1957898303607f19018452611b4c828d612240565b60e08135611b59816122de565b611b6386826116c0565b50611b6f88830161135e565b611b7b898701826116c0565b50611b8787830161135e565b611b93888701826116c0565b50898201358a860152611ba8898301836121fb565b828b880152611bba8388018284611833565b9250505060a0611bcc8184018461216b565b87840383890152611bde84828461171a565b935050505060c0611bf181840184612240565b92508582038187015250611c05818361185d565b958801959450505090850190600101611b31565b50909c9b505050505050505050505050565b6001600160e01b031991909116815260200190565b6001600160a01b0391909116815260200190565b6020808252600f908201527f496e76616c696420616464726573730000000000000000000000000000000000604082015260600190565b6020808252818101527f50726f706f73616c734875623a3a436c61696d20697320746f6f206c61726765604082015260600190565b60208082526018908201527f496e636f727265637420736f6c76657220616464726573730000000000000000604082015260600190565b6020808252601b908201527f6d73672e73656e646572206e6f7420736f6c7574696f6e734875620000000000604082015260600190565b6020808252602a908201527f50726f706f73616c734875623a3a44617461206973206e6f742076616c69642060408201527f70726f706f73616c496400000000000000000000000000000000000000000000606082015260800190565b60208082526025908201527f436f6d6d69747465642066756e6473206973206c6f776572207468616e20616d60408201527f6f756e742e000000000000000000000000000000000000000000000000000000606082015260800190565b60208082526022908201527f436f756c64206e6f74207472616e736665722066726f6d206d73672e73656e6460408201527f6572000000000000000000000000000000000000000000000000000000000000606082015260800190565b60208082526019908201527f50726f706f73616c206e6f742066756c6c792066756e64656400000000000000604082015260600190565b60208082526015908201527f416d6f756e742063616e6e6f74206265207a65726f0000000000000000000000604082015260600190565b60208082526017908201527f50726f706f73616c20646f6573206e6f74206578697374000000000000000000604082015260600190565b60208082526019908201527f43616e27742066756e64206d6f7265207468616e20676f616c00000000000000604082015260600190565b60208082526025908201527f50726f706f73616c734875623a3a6d73672e73656e64657220686173206e6f2060408201527f636c61696d000000000000000000000000000000000000000000000000000000606082015260800190565b60208082526018908201527f50726f706f73616c734875623a3a436c61696d20697320300000000000000000604082015260600190565b60208082526031908201527f50726f706f73616c20646f6573206e6f7420696e636c7564652074686973207460408201527f6f6b656e20746f2062652066756e646564000000000000000000000000000000606082015260800190565b6020808252602c908201527f50726f706f73616c734875623a3a50726f706f73616c20686173206e6f74206260408201527f65656e2065786563757465640000000000000000000000000000000000000000606082015260800190565b60208082526027908201527f50726f706f73616c734875623a3a50726f706f73616c20616c7265616479206560408201527f7865637574656400000000000000000000000000000000000000000000000000606082015260800190565b606081016120da8284611970565b92915050565b6000610160820190508251151582526001600160a01b036020840151166020830152604083015161211460408401826116c0565b50606083015161212760608401826116c0565b506080830151608083015260a083015160a083015260c083015160c083015260e083015160e08301526101008084015161216382850182611970565b505092915050565b6000808335601e19843603018112612181578283fd5b830160208101925035905067ffffffffffffffff8111156121a157600080fd5b6020810236038313156113ab57600080fd5b6000808335601e198436030181126121c9578283fd5b830160208101925035905067ffffffffffffffff8111156121e957600080fd5b6060810236038313156113ab57600080fd5b6000808335601e19843603018112612211578283fd5b830160208101925035905067ffffffffffffffff81111561223157600080fd5b8036038313156113ab57600080fd5b6000823560de19833603018112612255578182fd5b90910192915050565b60008219821115612271576122716122c8565b500190565b60008261229157634e487b7160e01b81526012600452602481fd5b500490565b6000828210156122a8576122a86122c8565b500390565b60006000198214156122c1576122c16122c8565b5060010190565b634e487b7160e01b600052601160045260246000fd5b6001600160a01b03811681146122f357600080fd5b5056fea26469706673582212206ba1d90b321edf4e9978600b49a8aa7819c323bfc7e5ddacbcdb6130faaefa9064736f6c63430008000033",
  "linkReferences": {},
  "deployedLinkReferences": {}
}