{
  "_format": "hh-sol-artifact-1",
  "contractName": "ProposalsHub",
  "sourceName": "contracts/ProposalsHub.sol",
  "abi": [
    {
      "inputs": [
        {
          "internalType": "address",
          "name": "_ctfAddress",
          "type": "address"
        }
      ],
      "stateMutability": "nonpayable",
      "type": "constructor"
    },
    {
      "anonymous": false,
      "inputs": [
        {
          "indexed": true,
          "internalType": "bytes32",
          "name": "id",
          "type": "bytes32"
        }
      ],
      "name": "CreateProposal",
      "type": "event"
    },
    {
      "anonymous": false,
      "inputs": [
        {
          "indexed": true,
          "internalType": "bytes32",
          "name": "id",
          "type": "bytes32"
        },
        {
          "indexed": false,
          "internalType": "uint256",
          "name": "amount",
          "type": "uint256"
        },
        {
          "indexed": false,
          "internalType": "address",
          "name": "to",
          "type": "address"
        }
      ],
      "name": "DefundProposal",
      "type": "event"
    },
    {
      "anonymous": false,
      "inputs": [
        {
          "indexed": true,
          "internalType": "bytes32",
          "name": "id",
          "type": "bytes32"
        }
      ],
      "name": "ExecuteProposal",
      "type": "event"
    },
    {
      "anonymous": false,
      "inputs": [
        {
          "indexed": true,
          "internalType": "bytes32",
          "name": "id",
          "type": "bytes32"
        },
        {
          "indexed": false,
          "internalType": "uint256",
          "name": "amount",
          "type": "uint256"
        },
        {
          "indexed": false,
          "internalType": "address",
          "name": "from",
          "type": "address"
        }
      ],
      "name": "FundProposal",
      "type": "event"
    },
    {
      "inputs": [],
      "name": "conditionalTokens",
      "outputs": [
        {
          "internalType": "contract IConditionalTokens",
          "name": "",
          "type": "address"
        }
      ],
      "stateMutability": "view",
      "type": "function"
    },
    {
      "inputs": [
        {
          "internalType": "bytes32",
          "name": "baseId",
          "type": "bytes32"
        },
        {
          "internalType": "contract IERC20",
          "name": "collateralToken",
          "type": "address"
        },
        {
          "internalType": "contract IIPFSSolutionsHub",
          "name": "ipfsSolutionsHub",
          "type": "address"
        },
        {
          "internalType": "uint256",
          "name": "fundingGoal",
          "type": "uint256"
        },
        {
          "components": [
            {
              "internalType": "contract Solver",
              "name": "implementation",
              "type": "address"
            },
            {
              "internalType": "address",
              "name": "keeper",
              "type": "address"
            },
            {
              "internalType": "address",
              "name": "arbitrator",
              "type": "address"
            },
            {
              "internalType": "uint256",
              "name": "timelockSeconds",
              "type": "uint256"
            },
            {
              "internalType": "bytes",
              "name": "data",
              "type": "bytes"
            },
            {
              "components": [
                {
                  "internalType": "uint256",
                  "name": "executions",
                  "type": "uint256"
                },
                {
                  "internalType": "enum SolverLib.IngestType",
                  "name": "ingestType",
                  "type": "uint8"
                },
                {
                  "internalType": "bytes32",
                  "name": "slot",
                  "type": "bytes32"
                },
                {
                  "internalType": "uint256",
                  "name": "solverIndex",
                  "type": "uint256"
                },
                {
                  "internalType": "bytes",
                  "name": "data",
                  "type": "bytes"
                }
              ],
              "internalType": "struct SolverLib.Ingest[]",
              "name": "ingests",
              "type": "tuple[]"
            },
            {
              "components": [
                {
                  "internalType": "contract IERC20",
                  "name": "collateralToken",
                  "type": "address"
                },
                {
                  "internalType": "uint256",
                  "name": "outcomeSlots",
                  "type": "uint256"
                },
                {
                  "internalType": "uint256",
                  "name": "parentCollectionIndexSet",
                  "type": "uint256"
                },
                {
                  "internalType": "bytes32",
                  "name": "amountSlot",
                  "type": "bytes32"
                },
                {
                  "internalType": "uint256[]",
                  "name": "partition",
                  "type": "uint256[]"
                },
                {
                  "components": [
                    {
                      "internalType": "bytes32",
                      "name": "recipientAddressSlot",
                      "type": "bytes32"
                    },
                    {
                      "internalType": "bytes32[]",
                      "name": "recipientAmountSlots",
                      "type": "bytes32[]"
                    }
                  ],
                  "internalType": "struct SolverLib.Allocation[]",
                  "name": "allocations",
                  "type": "tuple[]"
                },
                {
                  "components": [
                    {
                      "internalType": "bytes32",
                      "name": "digest",
                      "type": "bytes32"
                    },
                    {
                      "internalType": "uint8",
                      "name": "hashFunction",
                      "type": "uint8"
                    },
                    {
                      "internalType": "uint8",
                      "name": "size",
                      "type": "uint8"
                    }
                  ],
                  "internalType": "struct SolverLib.Multihash[]",
                  "name": "outcomeURIs",
                  "type": "tuple[]"
                }
              ],
              "internalType": "struct SolverLib.ConditionBase",
              "name": "conditionBase",
              "type": "tuple"
            }
          ],
          "internalType": "struct SolverLib.Config[]",
          "name": "solverConfigs",
          "type": "tuple[]"
        },
        {
          "components": [
            {
              "internalType": "bytes32",
              "name": "digest",
              "type": "bytes32"
            },
            {
              "internalType": "uint8",
              "name": "hashFunction",
              "type": "uint8"
            },
            {
              "internalType": "uint8",
              "name": "size",
              "type": "uint8"
            }
          ],
          "internalType": "struct SolverLib.Multihash",
          "name": "solverConfigsCID",
          "type": "tuple"
        },
        {
          "components": [
            {
              "internalType": "bytes32",
              "name": "digest",
              "type": "bytes32"
            },
            {
              "internalType": "uint8",
              "name": "hashFunction",
              "type": "uint8"
            },
            {
              "internalType": "uint8",
              "name": "size",
              "type": "uint8"
            }
          ],
          "internalType": "struct SolverLib.Multihash",
          "name": "metadataCID",
          "type": "tuple"
        }
      ],
      "name": "createIPFSSolutionAndProposal",
      "outputs": [
        {
          "internalType": "bytes32",
          "name": "solutionId",
          "type": "bytes32"
        },
        {
          "internalType": "bytes32",
          "name": "proposalId",
          "type": "bytes32"
        }
      ],
      "stateMutability": "nonpayable",
      "type": "function"
    },
    {
      "inputs": [
        {
          "internalType": "contract IERC20",
          "name": "collateralToken",
          "type": "address"
        },
        {
          "internalType": "address",
          "name": "solutionsHub",
          "type": "address"
        },
        {
          "internalType": "uint256",
          "name": "fundingGoal",
          "type": "uint256"
        },
        {
          "internalType": "bytes32",
          "name": "baseId",
          "type": "bytes32"
        },
        {
          "components": [
            {
              "internalType": "bytes32",
              "name": "digest",
              "type": "bytes32"
            },
            {
              "internalType": "uint8",
              "name": "hashFunction",
              "type": "uint8"
            },
            {
              "internalType": "uint8",
              "name": "size",
              "type": "uint8"
            }
          ],
          "internalType": "struct SolverLib.Multihash",
          "name": "metadataCID",
          "type": "tuple"
        }
      ],
      "name": "createProposal",
      "outputs": [
        {
          "internalType": "bytes32",
          "name": "solutionId",
          "type": "bytes32"
        },
        {
          "internalType": "bytes32",
          "name": "proposalId",
          "type": "bytes32"
        }
      ],
      "stateMutability": "nonpayable",
      "type": "function"
    },
    {
      "inputs": [
        {
          "internalType": "bytes32",
          "name": "proposalId",
          "type": "bytes32"
        },
        {
          "internalType": "contract IERC20",
          "name": "token",
          "type": "address"
        },
        {
          "internalType": "uint256",
          "name": "amount",
          "type": "uint256"
        }
      ],
      "name": "defundProposal",
      "outputs": [],
      "stateMutability": "nonpayable",
      "type": "function"
    },
    {
      "inputs": [
        {
          "internalType": "bytes32",
          "name": "proposalId",
          "type": "bytes32"
        },
        {
          "components": [
            {
              "internalType": "contract Solver",
              "name": "implementation",
              "type": "address"
            },
            {
              "internalType": "address",
              "name": "keeper",
              "type": "address"
            },
            {
              "internalType": "address",
              "name": "arbitrator",
              "type": "address"
            },
            {
              "internalType": "uint256",
              "name": "timelockSeconds",
              "type": "uint256"
            },
            {
              "internalType": "bytes",
              "name": "data",
              "type": "bytes"
            },
            {
              "components": [
                {
                  "internalType": "uint256",
                  "name": "executions",
                  "type": "uint256"
                },
                {
                  "internalType": "enum SolverLib.IngestType",
                  "name": "ingestType",
                  "type": "uint8"
                },
                {
                  "internalType": "bytes32",
                  "name": "slot",
                  "type": "bytes32"
                },
                {
                  "internalType": "uint256",
                  "name": "solverIndex",
                  "type": "uint256"
                },
                {
                  "internalType": "bytes",
                  "name": "data",
                  "type": "bytes"
                }
              ],
              "internalType": "struct SolverLib.Ingest[]",
              "name": "ingests",
              "type": "tuple[]"
            },
            {
              "components": [
                {
                  "internalType": "contract IERC20",
                  "name": "collateralToken",
                  "type": "address"
                },
                {
                  "internalType": "uint256",
                  "name": "outcomeSlots",
                  "type": "uint256"
                },
                {
                  "internalType": "uint256",
                  "name": "parentCollectionIndexSet",
                  "type": "uint256"
                },
                {
                  "internalType": "bytes32",
                  "name": "amountSlot",
                  "type": "bytes32"
                },
                {
                  "internalType": "uint256[]",
                  "name": "partition",
                  "type": "uint256[]"
                },
                {
                  "components": [
                    {
                      "internalType": "bytes32",
                      "name": "recipientAddressSlot",
                      "type": "bytes32"
                    },
                    {
                      "internalType": "bytes32[]",
                      "name": "recipientAmountSlots",
                      "type": "bytes32[]"
                    }
                  ],
                  "internalType": "struct SolverLib.Allocation[]",
                  "name": "allocations",
                  "type": "tuple[]"
                },
                {
                  "components": [
                    {
                      "internalType": "bytes32",
                      "name": "digest",
                      "type": "bytes32"
                    },
                    {
                      "internalType": "uint8",
                      "name": "hashFunction",
                      "type": "uint8"
                    },
                    {
                      "internalType": "uint8",
                      "name": "size",
                      "type": "uint8"
                    }
                  ],
                  "internalType": "struct SolverLib.Multihash[]",
                  "name": "outcomeURIs",
                  "type": "tuple[]"
                }
              ],
              "internalType": "struct SolverLib.ConditionBase",
              "name": "conditionBase",
              "type": "tuple"
            }
          ],
          "internalType": "struct SolverLib.Config[]",
          "name": "solverConfigs",
          "type": "tuple[]"
        }
      ],
      "name": "executeIPFSProposal",
      "outputs": [],
      "stateMutability": "nonpayable",
      "type": "function"
    },
    {
      "inputs": [
        {
          "internalType": "bytes32",
          "name": "proposalId",
          "type": "bytes32"
        },
        {
          "internalType": "contract IERC20",
          "name": "token",
          "type": "address"
        },
        {
          "internalType": "uint256",
          "name": "amount",
          "type": "uint256"
        }
      ],
      "name": "fundProposal",
      "outputs": [],
      "stateMutability": "nonpayable",
      "type": "function"
    },
    {
      "inputs": [
        {
          "internalType": "bytes32",
          "name": "",
          "type": "bytes32"
        },
        {
          "internalType": "address",
          "name": "",
          "type": "address"
        }
      ],
      "name": "funderAmountMap",
      "outputs": [
        {
          "internalType": "uint256",
          "name": "",
          "type": "uint256"
        }
      ],
      "stateMutability": "view",
      "type": "function"
    },
    {
      "inputs": [
        {
          "internalType": "bytes32",
          "name": "id",
          "type": "bytes32"
        }
      ],
      "name": "getMetadataCID",
      "outputs": [
        {
          "components": [
            {
              "internalType": "bytes32",
              "name": "digest",
              "type": "bytes32"
            },
            {
              "internalType": "uint8",
              "name": "hashFunction",
              "type": "uint8"
            },
            {
              "internalType": "uint8",
              "name": "size",
              "type": "uint8"
            }
          ],
          "internalType": "struct SolverLib.Multihash",
          "name": "",
          "type": "tuple"
        }
      ],
      "stateMutability": "view",
      "type": "function"
    },
    {
      "inputs": [
        {
          "internalType": "bytes32",
          "name": "id",
          "type": "bytes32"
        }
      ],
      "name": "getProposal",
      "outputs": [
        {
          "components": [
            {
              "internalType": "bool",
              "name": "isExecuted",
              "type": "bool"
            },
            {
              "internalType": "contract IERC20",
              "name": "collateralToken",
              "type": "address"
            },
            {
              "internalType": "address",
              "name": "proposer",
              "type": "address"
            },
            {
              "internalType": "address",
              "name": "solutionsHub",
              "type": "address"
            },
            {
              "internalType": "bytes32",
              "name": "id",
              "type": "bytes32"
            },
            {
              "internalType": "bytes32",
              "name": "solutionId",
              "type": "bytes32"
            },
            {
              "internalType": "uint256",
              "name": "funding",
              "type": "uint256"
            },
            {
              "internalType": "uint256",
              "name": "fundingGoal",
              "type": "uint256"
            },
            {
              "components": [
                {
                  "internalType": "bytes32",
                  "name": "digest",
                  "type": "bytes32"
                },
                {
                  "internalType": "uint8",
                  "name": "hashFunction",
                  "type": "uint8"
                },
                {
                  "internalType": "uint8",
                  "name": "size",
                  "type": "uint8"
                }
              ],
              "internalType": "struct SolverLib.Multihash",
              "name": "metadataCID",
              "type": "tuple"
            }
          ],
          "internalType": "struct ProposalsHub.Proposal",
          "name": "proposal",
          "type": "tuple"
        }
      ],
      "stateMutability": "view",
      "type": "function"
    },
    {
      "inputs": [
        {
          "internalType": "bytes32",
          "name": "id",
          "type": "bytes32"
        }
      ],
      "name": "isProposal",
      "outputs": [
        {
          "internalType": "bool",
          "name": "",
          "type": "bool"
        }
      ],
      "stateMutability": "view",
      "type": "function"
    },
    {
      "inputs": [
        {
          "internalType": "address",
          "name": "operator",
          "type": "address"
        },
        {
          "internalType": "address",
          "name": "from",
          "type": "address"
        },
        {
          "internalType": "uint256[]",
          "name": "ids",
          "type": "uint256[]"
        },
        {
          "internalType": "uint256[]",
          "name": "values",
          "type": "uint256[]"
        },
        {
          "internalType": "bytes",
          "name": "data",
          "type": "bytes"
        }
      ],
      "name": "onERC1155BatchReceived",
      "outputs": [
        {
          "internalType": "bytes4",
          "name": "",
          "type": "bytes4"
        }
      ],
      "stateMutability": "nonpayable",
      "type": "function"
    },
    {
      "inputs": [
        {
          "internalType": "address",
          "name": "operator",
          "type": "address"
        },
        {
          "internalType": "address",
          "name": "from",
          "type": "address"
        },
        {
          "internalType": "uint256",
          "name": "id",
          "type": "uint256"
        },
        {
          "internalType": "uint256",
          "name": "value",
          "type": "uint256"
        },
        {
          "internalType": "bytes",
          "name": "data",
          "type": "bytes"
        }
      ],
      "name": "onERC1155Received",
      "outputs": [
        {
          "internalType": "bytes4",
          "name": "",
          "type": "bytes4"
        }
      ],
      "stateMutability": "nonpayable",
      "type": "function"
    },
    {
      "inputs": [
        {
          "internalType": "bytes32",
          "name": "",
          "type": "bytes32"
        }
      ],
      "name": "proposals",
      "outputs": [
        {
          "internalType": "bool",
          "name": "isExecuted",
          "type": "bool"
        },
        {
          "internalType": "contract IERC20",
          "name": "collateralToken",
          "type": "address"
        },
        {
          "internalType": "address",
          "name": "proposer",
          "type": "address"
        },
        {
          "internalType": "address",
          "name": "solutionsHub",
          "type": "address"
        },
        {
          "internalType": "bytes32",
          "name": "id",
          "type": "bytes32"
        },
        {
          "internalType": "bytes32",
          "name": "solutionId",
          "type": "bytes32"
        },
        {
          "internalType": "uint256",
          "name": "funding",
          "type": "uint256"
        },
        {
          "internalType": "uint256",
          "name": "fundingGoal",
          "type": "uint256"
        },
        {
          "components": [
            {
              "internalType": "bytes32",
              "name": "digest",
              "type": "bytes32"
            },
            {
              "internalType": "uint8",
              "name": "hashFunction",
              "type": "uint8"
            },
            {
              "internalType": "uint8",
              "name": "size",
              "type": "uint8"
            }
          ],
          "internalType": "struct SolverLib.Multihash",
          "name": "metadataCID",
          "type": "tuple"
        }
      ],
      "stateMutability": "view",
      "type": "function"
    },
    {
      "inputs": [
        {
          "internalType": "bytes32",
          "name": "proposalId",
          "type": "bytes32"
        },
        {
          "internalType": "uint256",
          "name": "tokenId",
          "type": "uint256"
        }
      ],
      "name": "reclaimTokens",
      "outputs": [],
      "stateMutability": "nonpayable",
      "type": "function"
    },
    {
      "inputs": [
        {
          "internalType": "bytes32",
          "name": "",
          "type": "bytes32"
        },
        {
          "internalType": "uint256",
          "name": "",
          "type": "uint256"
        }
      ],
      "name": "reclaimableTokens",
      "outputs": [
        {
          "internalType": "uint256",
          "name": "",
          "type": "uint256"
        }
      ],
      "stateMutability": "view",
      "type": "function"
    },
    {
      "inputs": [
        {
          "internalType": "uint256",
          "name": "",
          "type": "uint256"
        },
        {
          "internalType": "address",
          "name": "",
          "type": "address"
        }
      ],
      "name": "reclaimedTokens",
      "outputs": [
        {
          "internalType": "uint256",
          "name": "",
          "type": "uint256"
        }
      ],
      "stateMutability": "view",
      "type": "function"
    },
    {
      "inputs": [
        {
          "internalType": "bytes4",
          "name": "interfaceId",
          "type": "bytes4"
        }
      ],
      "name": "supportsInterface",
      "outputs": [
        {
          "internalType": "bool",
          "name": "",
          "type": "bool"
        }
      ],
      "stateMutability": "view",
      "type": "function"
    },
    {
      "inputs": [
        {
          "internalType": "bytes32",
          "name": "proposalId",
          "type": "bytes32"
        },
        {
          "internalType": "address",
          "name": "solver",
          "type": "address"
        }
      ],
      "name": "transferERC20",
      "outputs": [],
      "stateMutability": "nonpayable",
      "type": "function"
    }
  ],
  "bytecode": "0x60a06040523480156200001157600080fd5b50604051620028553803806200285583398101604081905262000034916200004a565b60601b6001600160601b0319166080526200007a565b6000602082840312156200005c578081fd5b81516001600160a01b038116811462000073578182fd5b9392505050565b60805160601c6127b5620000a060003960008181610bfa015261106001526127b56000f3fe608060405234801561001057600080fd5b50600436106100e65760003560e01c806301ffc9a7146100eb5780631918063f1461011457806332c8506e1461012957806332ed5b121461013c57806333c15c3414610164578063430694cf1461018457806353ba3f57146101a457806354dd9927146101b75780635bd9e299146101ca5780635d7dec6f146101df57806383460ba814610200578063aaa4f33214610213578063aaf7a21414610233578063b70c764c14610246578063bc197c8114610259578063c12639f714610279578063d3f79a051461028c578063f23a6e611461029f575b600080fd5b6100fe6100f9366004611a71565b6102b2565b60405161010b9190611fa8565b60405180910390f35b610127610122366004611903565b6102df565b005b610127610137366004611932565b610603565b61014f61014a3660046118d3565b61072e565b60405161010b99989796959493929190611fb3565b610177610172366004611903565b6107b3565b60405161010b9190612006565b6101976101923660046118d3565b6107d0565b60405161010b91906124fd565b6101776101b2366004611a50565b61088c565b6101276101c5366004611a19565b6108a9565b6101d2610bf8565b60405161010b9190611eda565b6101f26101ed366004611a99565b610c1c565b60405161010b929190611ecc565b61017761020e366004611903565b610e32565b6102266102213660046118d3565b610e4f565b60405161010b91906124e9565b6101f261024136600461197b565b610e9d565b610127610254366004611a50565b610f24565b61026c610267366004611780565b611109565b60405161010b9190612088565b610127610287366004611a19565b611204565b6100fe61029a3660046118d3565b61154d565b61026c6102ad36600461183a565b611564565b60006001600160e01b03198216630271189760e51b14806102d757506102d7826115f5565b90505b919050565b6000828152600160205260409020600201546001600160a01b031633146103215760405162461bcd60e51b815260040161031890612156565b60405180910390fd5b6001600160a01b0381166103475760405162461bcd60e51b81526004016103189061209d565b6000828152600160205260408082206002810154600491820154925162c8a40d60e51b81526001600160a01b038087169592169363191481a09361038d93919201611ecc565b60206040518083038186803b1580156103a557600080fd5b505afa1580156103b9573d6000803e3d6000fd5b505050506040513d601f19601f820116820180604052508101906103dd919061175d565b6001600160a01b0316146104035760405162461bcd60e51b815260040161031890612124565b6000828152600160205260408082205490516370a0823160e01b81526101009091046001600160a01b0316919082906370a0823190610446903090600401611eda565b60206040518083038186803b15801561045e57600080fd5b505afa158015610472573d6000803e3d6000fd5b505050506040513d601f19601f8201168201806040525081019061049691906118eb565b6000858152600160205260409081902060050154905163a9059cbb60e01b81529192506001600160a01b0384169163a9059cbb916104d991879190600401611f8f565b602060405180830381600087803b1580156104f357600080fd5b505af1158015610507573d6000803e3d6000fd5b505050506040513d601f19601f8201168201806040525081019061052b91906118b3565b6105475760405162461bcd60e51b8152600401610318906120fb565b600084815260016020526040908190206006015490516370a0823160e01b81526001600160a01b038416906370a0823190610586903090600401611eda565b60206040518083038186803b15801561059e57600080fd5b505afa1580156105b2573d6000803e3d6000fd5b505050506040513d601f19601f820116820180604052508101906105d691906118eb565b6105e090836126c4565b146105fd5760405162461bcd60e51b81526004016103189061221a565b50505050565b60008381526001602052604090206006810154600590910154101561063a5760405162461bcd60e51b815260040161031890612291565b60008381526001602052604090205460ff16156106695760405162461bcd60e51b8152600401610318906124a2565b6000838152600160205260409081902060028101546004918201549251632034967b60e21b81526001600160a01b03909116926380d259ec926106b392889291889188910161200f565b600060405180830381600087803b1580156106cd57600080fd5b505af11580156106e1573d6000803e3d6000fd5b5050506000848152600160208190526040808320805460ff1916909217909155518592507f3a5a0357f01e19a1531e65bfe13d63c64c9ae8f03d8c26ae74b1e2929a4f39669190a2505050565b600160208181526000928352604092839020805492810154600282015460038301546004840154600585015460068601548951606081018b526007880154815260089097015460ff818116998901999099526101009081900489169a88019a909a52968816986001600160a01b03980488169794851696939094169491939092909189565b600460209081526000928352604080842090915290825290205481565b6107d8611641565b50600090815260016020818152604092839020835161012081018552815460ff808216151583526001600160a01b036101009283900481168487015295840154861683880152600284015490951660608084019190915260038401546080840152600484015460a0840152600584015460c0840152600684015460e0840152865190810187526007840154815260089093015480861694840194909452928390049093169381019390935281019190915290565b600360209081526000928352604080842090915290825290205481565b6000838152600160205260409020600301546108d75760405162461bcd60e51b8152600401610318906122f3565b60008381526001602052604090205460ff16156109065760405162461bcd60e51b8152600401610318906124a2565b6000838152600160205260409020546001600160a01b0383811661010090920416146109445760405162461bcd60e51b8152600401610318906123ce565b600081116109645760405162461bcd60e51b8152600401610318906122c4565b600083815260026020908152604080832033845290915290205481111561099d5760405162461bcd60e51b8152600401610318906121d5565b6040516370a0823160e01b81526000906001600160a01b038416906370a08231906109cc903090600401611eda565b60206040518083038186803b1580156109e457600080fd5b505afa1580156109f8573d6000803e3d6000fd5b505050506040513d601f19601f82011682018060405250810190610a1c91906118eb565b905081600160008681526020019081526020016000206005016000828254610a4491906126c4565b9091555050600084815260026020908152604080832033845290915281208054849290610a729084906126c4565b909155505060405163a9059cbb60e01b81526001600160a01b0384169063a9059cbb90610aa59033908690600401611f8f565b602060405180830381600087803b158015610abf57600080fd5b505af1158015610ad3573d6000803e3d6000fd5b505050506040513d601f19601f82011682018060405250810190610af791906118b3565b610b135760405162461bcd60e51b8152600401610318906120fb565b6040516370a0823160e01b815282906001600160a01b038516906370a0823190610b41903090600401611eda565b60206040518083038186803b158015610b5957600080fd5b505afa158015610b6d573d6000803e3d6000fd5b505050506040513d601f19601f82011682018060405250810190610b9191906118eb565b610b9b90836126c4565b14610bb85760405162461bcd60e51b81526004016103189061241f565b837fe2ab43d60bbb163b7fad7413086cd6c1ee0e0a59a9625e4945a10f1b6a167ff98333604051610bea929190612585565b60405180910390a250505050565b7f000000000000000000000000000000000000000000000000000000000000000081565b6000805481908180610c2d836126db565b90915550506001600160a01b03861663c4e3983f8580610c4e6001436126c4565b40600054604051602001610c6493929190611eb6565b604051602081830303815290604052805190602001206040518363ffffffff1660e01b8152600401610c97929190611ecc565b602060405180830381600087803b158015610cb157600080fd5b505af1158015610cc5573d6000803e3d6000fd5b505050506040513d601f19601f82011682018060405250810190610ce991906118eb565b915081600054604051602001610d00929190611ecc565b60408051601f198184030181528282528051602091820120600081815260019092529190206003810182905563a2440b9d60e01b8352909250906001600160a01b0388169063a2440b9d90610d5d90859087908d9060040161202f565b600060405180830381600087803b158015610d7757600080fd5b505af1158015610d8b573d6000803e3d6000fd5b505082546001600160a01b03808c1661010002610100600160a81b03199092169190911784556001840180546001600160a01b03199081163317909155600285018054928c1692909116919091179055505060048101839055600681018690558360078201610dfa828261270c565b505060405182907f2d231481d8c1af3958a30a257e93e0df6b089bc07ebedc0a86e7355d1aaf133890600090a2509550959350505050565b600260209081526000928352604080842090915290825290205481565b610e57611694565b5060009081526001602090815260409182902082516060810184526007820154815260089091015460ff8082169383019390935261010090049091169181019190915290565b600080876001600160a01b031663fa1a84c78b8b8989896040518663ffffffff1660e01b8152600401610ed495949392919061204e565b600060405180830381600087803b158015610eee57600080fd5b505af1158015610f02573d6000803e3d6000fd5b50505050610f138989898d87610c1c565b909b909a5098505050505050505050565b6000828152600260209081526040808320338452909152902054610f5a5760405162461bcd60e51b815260040161031890612357565b60008281526002602090815260408083203384528252808320548584526001909252822060050154610f8c91906126a4565b6000838152600460209081526040808320338452825280832054878452600383528184208785529092528220549293509091610fc99084906126a4565b610fd391906126c4565b905060008111610ff55760405162461bcd60e51b81526004016103189061239c565b600084815260036020908152604080832086845290915290205481111561102e5760405162461bcd60e51b8152600401610318906120c6565b60008381526004602090815260408083203384529091528120805483929061105790849061268c565b925050819055507f00000000000000000000000000000000000000000000000000000000000000006001600160a01b031663f242432a30338685896040516020016110a29190612006565b6040516020818303038152906040526040518663ffffffff1660e01b81526004016110d1959493929190611f12565b600060405180830381600087803b1580156110eb57600080fd5b505af11580156110ff573d6000803e3d6000fd5b5050505050505050565b600080611118838501856118d3565b600081815260016020526040902060030154909150811461114b5760405162461bcd60e51b81526004016103189061218b565b60008181526001602052604090205460ff166111795760405162461bcd60e51b815260040161031890612456565b60005b878110156111ed576111db828a8a848181106111a857634e487b7160e01b600052603260045260246000fd5b905060200201358989858181106111cf57634e487b7160e01b600052603260045260246000fd5b9050602002013561160e565b806111e5816126db565b91505061117c565b5063bc197c8160e01b9a9950505050505050505050565b6000838152600160205260409020600301546112325760405162461bcd60e51b8152600401610318906122f3565b60008381526001602052604090205460ff16156112615760405162461bcd60e51b8152600401610318906124a2565b6000838152600160205260409020546001600160a01b03838116610100909204161461129f5760405162461bcd60e51b8152600401610318906123ce565b600081116112bf5760405162461bcd60e51b8152600401610318906122c4565b600083815260016020526040902060068101546005909101546112e2908361268c565b11156113005760405162461bcd60e51b815260040161031890612324565b6040516370a0823160e01b81526000906001600160a01b038416906370a082319061132f903090600401611eda565b60206040518083038186803b15801561134757600080fd5b505afa15801561135b573d6000803e3d6000fd5b505050506040513d601f19601f8201168201806040525081019061137f91906118eb565b6040516323b872dd60e01b81529091506001600160a01b038416906323b872dd906113b290339030908790600401611eee565b602060405180830381600087803b1580156113cc57600080fd5b505af11580156113e0573d6000803e3d6000fd5b505050506040513d601f19601f8201168201806040525081019061140491906118b3565b6114205760405162461bcd60e51b81526004016103189061224f565b8181846001600160a01b03166370a08231306040518263ffffffff1660e01b815260040161144e9190611eda565b60206040518083038186803b15801561146657600080fd5b505afa15801561147a573d6000803e3d6000fd5b505050506040513d601f19601f8201168201806040525081019061149e91906118eb565b6114a891906126c4565b146114c55760405162461bcd60e51b81526004016103189061221a565b600084815260016020526040812060050180548492906114e690849061268c565b909155505060008481526002602090815260408083203384529091528120805484929061151490849061268c565b92505081905550837f82999597cf961179ae8200cb30fa0dcf5559a734cfd867ccd187c5dd6946c4138333604051610bea929190612585565b600090815260016020526040902060030154151590565b600080611573838501856118d3565b60008181526001602052604090206003015490915081146115a65760405162461bcd60e51b81526004016103189061218b565b60008181526001602052604090205460ff166115d45760405162461bcd60e51b815260040161031890612456565b6115df81878761160e565b5063f23a6e6160e01b90505b9695505050505050565b6001600160e01b031981166301ffc9a760e01b14919050565b60008381526003602090815260408083208584529091528120805483929061163790849061268c565b9091555050505050565b6040805161012081018252600080825260208201819052918101829052606081018290526080810182905260a0810182905260c0810182905260e0810191909152610100810161168f611694565b905290565b604080516060810182526000808252602082018190529181019190915290565b80356102da81612758565b60008083601f8401126116d0578182fd5b5081356001600160401b038111156116e6578182fd5b602083019150836020808302850101111561170057600080fd5b9250929050565b60008083601f840112611718578182fd5b5081356001600160401b0381111561172e578182fd5b60208301915083602082850101111561170057600080fd5b600060608284031215611757578081fd5b50919050565b60006020828403121561176e578081fd5b815161177981612758565b9392505050565b60008060008060008060008060a0898b03121561179b578384fd5b88356117a681612758565b975060208901356117b681612758565b965060408901356001600160401b03808211156117d1578586fd5b6117dd8c838d016116bf565b909850965060608b01359150808211156117f5578586fd5b6118018c838d016116bf565b909650945060808b0135915080821115611819578384fd5b506118268b828c01611707565b999c989b5096995094979396929594505050565b60008060008060008060a08789031215611852578182fd5b863561185d81612758565b9550602087013561186d81612758565b9450604087013593506060870135925060808701356001600160401b03811115611895578283fd5b6118a189828a01611707565b979a9699509497509295939492505050565b6000602082840312156118c4578081fd5b81518015158114611779578182fd5b6000602082840312156118e4578081fd5b5035919050565b6000602082840312156118fc578081fd5b5051919050565b60008060408385031215611915578182fd5b82359150602083013561192781612758565b809150509250929050565b600080600060408486031215611946578283fd5b8335925060208401356001600160401b03811115611962578283fd5b61196e868287016116bf565b9497909650939450505050565b600080600080600080600080610160898b031215611997578182fd5b8835975060208901356119a981612758565b965060408901356119b981612758565b95506060890135945060808901356001600160401b038111156119da578283fd5b6119e68b828c016116bf565b90955093506119fa90508a60a08b01611746565b9150611a0a8a6101008b01611746565b90509295985092959890939650565b600080600060608486031215611a2d578081fd5b833592506020840135611a3f81612758565b929592945050506040919091013590565b60008060408385031215611a62578182fd5b50508035926020909101359150565b600060208284031215611a82578081fd5b81356001600160e01b031981168114611779578182fd5b600080600080600060e08688031215611ab0578283fd5b8535611abb81612758565b94506020860135611acb81612758565b93506040860135925060608601359150611ae88760808801611746565b90509295509295909350565b6001600160a01b03169052565b81835260006001600160fb1b03831115611b19578081fd5b6020830280836020870137939093016020019283525090919050565b818352602080840193600091908185020181018584845b87811015611c38578284038952611b63828861266e565b60e08135611b7081612758565b611b7a8782611af4565b50611b868783016116b4565b611b9288880182611af4565b506040611ba08184016116b4565b611bac82890182611af4565b5050606082810135908701526080611bc68184018461262a565b83838a0152611bd8848a018284611d21565b935050505060a0611beb8184018461259c565b888403838a0152611bfd848284611c45565b935050505060c0611c108184018461266e565b92508682038188015250611c248183611d4b565b9a87019a9550505090840190600101611b4c565b5091979650505050505050565b818352602080840193600091908185020181018584845b87811015611c385782840389528135609e19883603018112611c7c578687fd5b87018035855260a08682013560048110611c94578889fd5b8688015260408281013590870152606080830135908701526080611cba8184018461262a565b93508282890152611cce8389018583611d21565b9c89019c97505050928601925050600101611c5c565b600082845260208401935081815b84811015611d1757611d048683611e5e565b6060958601959190910190600101611cf2565b5093949350505050565b60008284528282602086013780602084860101526020601f19601f85011685010190509392505050565b60008135611d5881612758565b6001600160a01b03168352602082810135818501526040808401358186015260608085013590860152611d8e608085018561259c565b60e06080880152611da360e088018284611b01565b915050611db360a086018661259c565b87830360a08901528083528483018582028401860183885b84811015611e2a57868303601f19018452813536879003603e19018112611df0578a8bfd5b860180358452611e028a82018261259c565b9150898b860152611e168a86018383611b01565b958b01959450505090880190600101611dcb565b5050611e3960c08a018a6125e3565b9750955089810360c08b0152611e50818888611ce4565b9a9950505050505050505050565b803582526020810135611e7081612770565b60ff1660208301526040810135611e8681612770565b60ff81166040840152505050565b8051825260ff602082015116602083015260ff60408201511660408301525050565b9283526020830191909152604082015260600190565b918252602082015260400190565b6001600160a01b0391909116815260200190565b6001600160a01b039384168152919092166020820152604081019190915260600190565b600060018060a01b03808816835260208188168185015286604085015285606085015260a06080850152845191508160a0850152825b82811015611f645785810182015185820160c001528101611f48565b82811115611f75578360c084870101525b5050601f01601f19169190910160c0019695505050505050565b6001600160a01b03929092168252602082015260400190565b901515815260200190565b89151581526001600160a01b0389811660208301528881166040830152871660608201526080810186905260a0810185905260c0810184905260e081018390526101608101611e50610100830184611e94565b90815260200190565b6000858252846020830152606060408301526115eb606083018486611b35565b92835260208301919091526001600160a01b0316604082015260600190565b8581526001600160a01b038516602082015260c0604082018190526000906120799083018587611b35565b90506115eb6060830184611e5e565b6001600160e01b031991909116815260200190565b6020808252600f908201526e496e76616c6964206164647265737360881b604082015260600190565b6020808252818101527f50726f706f73616c734875623a3a436c61696d20697320746f6f206c61726765604082015260600190565b6020808252600f908201526e151c985b9cd9995c8819985a5b1959608a1b604082015260600190565b602080825260189082015277496e636f727265637420736f6c766572206164647265737360401b604082015260600190565b6020808252601b908201527a36b9b39739b2b73232b9103737ba1039b7b63aba34b7b739a43ab160291b604082015260600190565b6020808252602a908201527f50726f706f73616c734875623a3a44617461206973206e6f742076616c6964206040820152691c1c9bdc1bdcd85b125960b21b606082015260800190565b60208082526025908201527f436f6d6d69747465642066756e6473206973206c6f776572207468616e20616d60408201526437bab73a1760d91b606082015260800190565b6020808252818101527f496e636f72726563742062616c616e6365206166746572207472616e73666572604082015260600190565b60208082526022908201527f436f756c64206e6f74207472616e736665722066726f6d206d73672e73656e6460408201526132b960f11b606082015260800190565b602080825260199082015278141c9bdc1bdcd85b081b9bdd08199d5b1b1e48199d5b991959603a1b604082015260600190565b602080825260159082015274416d6f756e742063616e6e6f74206265207a65726f60581b604082015260600190565b602080825260179082015276141c9bdc1bdcd85b08191bd95cc81b9bdd08195e1a5cdd604a1b604082015260600190565b60208082526019908201527810d85b89dd08199d5b99081b5bdc99481d1a185b8819dbd85b603a1b604082015260600190565b60208082526025908201527f50726f706f73616c734875623a3a6d73672e73656e64657220686173206e6f20604082015264636c61696d60d81b606082015260800190565b602080825260189082015277050726f706f73616c734875623a3a436c61696d20697320360441b604082015260600190565b60208082526031908201527f50726f706f73616c20646f6573206e6f7420696e636c756465207468697320746040820152701bdad95b881d1bc8189948199d5b991959607a1b606082015260800190565b6020808252601e908201527f4265666f726520616e642061667465722062616c616e63652077726f6e670000604082015260600190565b6020808252602c908201527f50726f706f73616c734875623a3a50726f706f73616c20686173206e6f74206260408201526b19595b88195e1958dd5d195960a21b606082015260800190565b60208082526027908201527f50726f706f73616c734875623a3a50726f706f73616c20616c726561647920656040820152661e1958dd5d195960ca1b606082015260800190565b606081016124f78284611e94565b92915050565b8151151581526020808301516001600160a01b03169082015260408083015161016083019161252e90840182611af4565b5060608301516125416060840182611af4565b506080830151608083015260a083015160a083015260c083015160c083015260e083015160e08301526101008084015161257d82850182611e94565b505092915050565b9182526001600160a01b0316602082015260400190565b6000808335601e198436030181126125b2578283fd5b83016020810192503590506001600160401b038111156125d157600080fd5b60208102360383131561170057600080fd5b6000808335601e198436030181126125f9578283fd5b83016020810192503590506001600160401b0381111561261857600080fd5b60608102360383131561170057600080fd5b6000808335601e19843603018112612640578283fd5b83016020810192503590506001600160401b0381111561265f57600080fd5b80360383131561170057600080fd5b6000823560de19833603018112612683578182fd5b90910192915050565b6000821982111561269f5761269f6126f6565b500190565b6000826126bf57634e487b7160e01b81526012600452602481fd5b500490565b6000828210156126d6576126d66126f6565b500390565b60006000198214156126ef576126ef6126f6565b5060010190565b634e487b7160e01b600052601160045260246000fd5b8135815560018101602083013561272281612770565b815460ff191660ff9190911617808255604084013561274081612770565b61ff008160081b1661ff001983161783555050505050565b6001600160a01b038116811461276d57600080fd5b50565b60ff8116811461276d57600080fdfea2646970667358221220896d5e9fdc10cd8ee5496aead6024815f3fcc833dc6b5d61a592c8dd05a9c6d164736f6c63430008000033",
  "linkReferences": {},
  "deployedLinkReferences": {}
}