{
  "_format": "hh-sol-artifact-1",
  "contractName": "ProposalsHub",
  "sourceName": "contracts/ProposalsHub.sol",
  "abi": [
    {
      "inputs": [
        {
          "internalType": "address",
          "name": "_ctfAddress",
          "type": "address"
        }
      ],
      "stateMutability": "nonpayable",
      "type": "constructor"
    },
    {
      "anonymous": false,
      "inputs": [
        {
          "indexed": false,
          "internalType": "bytes32",
          "name": "id",
          "type": "bytes32"
        }
      ],
      "name": "CreateProposal",
      "type": "event"
    },
    {
      "anonymous": false,
      "inputs": [
        {
          "indexed": false,
          "internalType": "bytes32",
          "name": "id",
          "type": "bytes32"
        },
        {
          "indexed": false,
          "internalType": "uint256",
          "name": "amount",
          "type": "uint256"
        },
        {
          "indexed": false,
          "internalType": "address",
          "name": "from",
          "type": "address"
        }
      ],
      "name": "DefundProposal",
      "type": "event"
    },
    {
      "anonymous": false,
      "inputs": [
        {
          "indexed": false,
          "internalType": "bytes32",
          "name": "id",
          "type": "bytes32"
        }
      ],
      "name": "ExecuteProposal",
      "type": "event"
    },
    {
      "anonymous": false,
      "inputs": [
        {
          "indexed": false,
          "internalType": "bytes32",
          "name": "id",
          "type": "bytes32"
        },
        {
          "indexed": false,
          "internalType": "uint256",
          "name": "amount",
          "type": "uint256"
        },
        {
          "indexed": false,
          "internalType": "address",
          "name": "from",
          "type": "address"
        }
      ],
      "name": "FundProposal",
      "type": "event"
    },
    {
      "inputs": [],
      "name": "conditionalTokens",
      "outputs": [
        {
          "internalType": "contract IConditionalTokens",
          "name": "",
          "type": "address"
        }
      ],
      "stateMutability": "view",
      "type": "function"
    },
    {
      "inputs": [
        {
          "internalType": "bytes32",
          "name": "solutionId",
          "type": "bytes32"
        },
        {
          "internalType": "contract IERC20",
          "name": "collateralToken",
          "type": "address"
        },
        {
          "internalType": "contract IIPFSSolutionsHub",
          "name": "ipfsSolutionsHub",
          "type": "address"
        },
        {
          "internalType": "uint256",
          "name": "fundingGoal",
          "type": "uint256"
        },
        {
          "components": [
            {
              "internalType": "contract Solver",
              "name": "implementation",
              "type": "address"
            },
            {
              "internalType": "address",
              "name": "keeper",
              "type": "address"
            },
            {
              "internalType": "address",
              "name": "arbitrator",
              "type": "address"
            },
            {
              "internalType": "uint256",
              "name": "timelockSeconds",
              "type": "uint256"
            },
            {
              "internalType": "bytes",
              "name": "data",
              "type": "bytes"
            },
            {
              "components": [
                {
                  "internalType": "uint256",
                  "name": "executions",
                  "type": "uint256"
                },
                {
                  "internalType": "enum SolverLib.IngestType",
                  "name": "ingestType",
                  "type": "uint8"
                },
                {
                  "internalType": "bytes32",
                  "name": "slot",
                  "type": "bytes32"
                },
                {
                  "internalType": "uint256",
                  "name": "solverIndex",
                  "type": "uint256"
                },
                {
                  "internalType": "bytes",
                  "name": "data",
                  "type": "bytes"
                }
              ],
              "internalType": "struct SolverLib.Ingest[]",
              "name": "ingests",
              "type": "tuple[]"
            },
            {
              "components": [
                {
                  "internalType": "contract IERC20",
                  "name": "collateralToken",
                  "type": "address"
                },
                {
                  "internalType": "uint256",
                  "name": "outcomeSlots",
                  "type": "uint256"
                },
                {
                  "internalType": "uint256",
                  "name": "parentCollectionIndexSet",
                  "type": "uint256"
                },
                {
                  "internalType": "bytes32",
                  "name": "amountSlot",
                  "type": "bytes32"
                },
                {
                  "internalType": "uint256[]",
                  "name": "partition",
                  "type": "uint256[]"
                },
                {
                  "components": [
                    {
                      "internalType": "bytes32",
                      "name": "recipientAddressSlot",
                      "type": "bytes32"
                    },
                    {
                      "internalType": "bytes32[]",
                      "name": "recipientAmountSlots",
                      "type": "bytes32[]"
                    }
                  ],
                  "internalType": "struct SolverLib.Allocation[]",
                  "name": "allocations",
                  "type": "tuple[]"
                },
                {
                  "components": [
                    {
                      "internalType": "bytes32",
                      "name": "digest",
                      "type": "bytes32"
                    },
                    {
                      "internalType": "uint8",
                      "name": "hashFunction",
                      "type": "uint8"
                    },
                    {
                      "internalType": "uint8",
                      "name": "size",
                      "type": "uint8"
                    }
                  ],
                  "internalType": "struct SolverLib.Multihash[]",
                  "name": "outcomeURIs",
                  "type": "tuple[]"
                }
              ],
              "internalType": "struct SolverLib.ConditionBase",
              "name": "conditionBase",
              "type": "tuple"
            }
          ],
          "internalType": "struct SolverLib.Config[]",
          "name": "solverConfigs",
          "type": "tuple[]"
        },
        {
          "components": [
            {
              "internalType": "bytes32",
              "name": "digest",
              "type": "bytes32"
            },
            {
              "internalType": "uint8",
              "name": "hashFunction",
              "type": "uint8"
            },
            {
              "internalType": "uint8",
              "name": "size",
              "type": "uint8"
            }
          ],
          "internalType": "struct SolverLib.Multihash",
          "name": "solverConfigsCID",
          "type": "tuple"
        },
        {
          "components": [
            {
              "internalType": "bytes32",
              "name": "digest",
              "type": "bytes32"
            },
            {
              "internalType": "uint8",
              "name": "hashFunction",
              "type": "uint8"
            },
            {
              "internalType": "uint8",
              "name": "size",
              "type": "uint8"
            }
          ],
          "internalType": "struct SolverLib.Multihash",
          "name": "metadataCID",
          "type": "tuple"
        }
      ],
      "name": "createIPFSSolutionAndProposal",
      "outputs": [
        {
          "internalType": "bytes32",
          "name": "solutionID",
          "type": "bytes32"
        },
        {
          "internalType": "bytes32",
          "name": "proposalID",
          "type": "bytes32"
        }
      ],
      "stateMutability": "nonpayable",
      "type": "function"
    },
    {
      "inputs": [
        {
          "internalType": "contract IERC20",
          "name": "collateralToken",
          "type": "address"
        },
        {
          "internalType": "address",
          "name": "solutionsHub",
          "type": "address"
        },
        {
          "internalType": "uint256",
          "name": "fundingGoal",
          "type": "uint256"
        },
        {
          "internalType": "bytes32",
          "name": "solutionId",
          "type": "bytes32"
        },
        {
          "components": [
            {
              "internalType": "bytes32",
              "name": "digest",
              "type": "bytes32"
            },
            {
              "internalType": "uint8",
              "name": "hashFunction",
              "type": "uint8"
            },
            {
              "internalType": "uint8",
              "name": "size",
              "type": "uint8"
            }
          ],
          "internalType": "struct SolverLib.Multihash",
          "name": "metadataCID",
          "type": "tuple"
        }
      ],
      "name": "createProposal",
      "outputs": [
        {
          "internalType": "bytes32",
          "name": "proposalId",
          "type": "bytes32"
        }
      ],
      "stateMutability": "nonpayable",
      "type": "function"
    },
    {
      "inputs": [
        {
          "internalType": "bytes32",
          "name": "proposalId",
          "type": "bytes32"
        },
        {
          "internalType": "contract IERC20",
          "name": "token",
          "type": "address"
        },
        {
          "internalType": "uint256",
          "name": "amount",
          "type": "uint256"
        }
      ],
      "name": "defundProposal",
      "outputs": [],
      "stateMutability": "nonpayable",
      "type": "function"
    },
    {
      "inputs": [
        {
          "internalType": "bytes32",
          "name": "proposalId",
          "type": "bytes32"
        },
        {
          "components": [
            {
              "internalType": "contract Solver",
              "name": "implementation",
              "type": "address"
            },
            {
              "internalType": "address",
              "name": "keeper",
              "type": "address"
            },
            {
              "internalType": "address",
              "name": "arbitrator",
              "type": "address"
            },
            {
              "internalType": "uint256",
              "name": "timelockSeconds",
              "type": "uint256"
            },
            {
              "internalType": "bytes",
              "name": "data",
              "type": "bytes"
            },
            {
              "components": [
                {
                  "internalType": "uint256",
                  "name": "executions",
                  "type": "uint256"
                },
                {
                  "internalType": "enum SolverLib.IngestType",
                  "name": "ingestType",
                  "type": "uint8"
                },
                {
                  "internalType": "bytes32",
                  "name": "slot",
                  "type": "bytes32"
                },
                {
                  "internalType": "uint256",
                  "name": "solverIndex",
                  "type": "uint256"
                },
                {
                  "internalType": "bytes",
                  "name": "data",
                  "type": "bytes"
                }
              ],
              "internalType": "struct SolverLib.Ingest[]",
              "name": "ingests",
              "type": "tuple[]"
            },
            {
              "components": [
                {
                  "internalType": "contract IERC20",
                  "name": "collateralToken",
                  "type": "address"
                },
                {
                  "internalType": "uint256",
                  "name": "outcomeSlots",
                  "type": "uint256"
                },
                {
                  "internalType": "uint256",
                  "name": "parentCollectionIndexSet",
                  "type": "uint256"
                },
                {
                  "internalType": "bytes32",
                  "name": "amountSlot",
                  "type": "bytes32"
                },
                {
                  "internalType": "uint256[]",
                  "name": "partition",
                  "type": "uint256[]"
                },
                {
                  "components": [
                    {
                      "internalType": "bytes32",
                      "name": "recipientAddressSlot",
                      "type": "bytes32"
                    },
                    {
                      "internalType": "bytes32[]",
                      "name": "recipientAmountSlots",
                      "type": "bytes32[]"
                    }
                  ],
                  "internalType": "struct SolverLib.Allocation[]",
                  "name": "allocations",
                  "type": "tuple[]"
                },
                {
                  "components": [
                    {
                      "internalType": "bytes32",
                      "name": "digest",
                      "type": "bytes32"
                    },
                    {
                      "internalType": "uint8",
                      "name": "hashFunction",
                      "type": "uint8"
                    },
                    {
                      "internalType": "uint8",
                      "name": "size",
                      "type": "uint8"
                    }
                  ],
                  "internalType": "struct SolverLib.Multihash[]",
                  "name": "outcomeURIs",
                  "type": "tuple[]"
                }
              ],
              "internalType": "struct SolverLib.ConditionBase",
              "name": "conditionBase",
              "type": "tuple"
            }
          ],
          "internalType": "struct SolverLib.Config[]",
          "name": "solverConfigs",
          "type": "tuple[]"
        }
      ],
      "name": "executeIPFSProposal",
      "outputs": [],
      "stateMutability": "nonpayable",
      "type": "function"
    },
    {
      "inputs": [
        {
          "internalType": "bytes32",
          "name": "proposalId",
          "type": "bytes32"
        }
      ],
      "name": "executeProposal",
      "outputs": [],
      "stateMutability": "nonpayable",
      "type": "function"
    },
    {
      "inputs": [
        {
          "internalType": "bytes32",
          "name": "proposalId",
          "type": "bytes32"
        },
        {
          "internalType": "contract IERC20",
          "name": "token",
          "type": "address"
        },
        {
          "internalType": "uint256",
          "name": "amount",
          "type": "uint256"
        }
      ],
      "name": "fundProposal",
      "outputs": [],
      "stateMutability": "nonpayable",
      "type": "function"
    },
    {
      "inputs": [
        {
          "internalType": "bytes32",
          "name": "",
          "type": "bytes32"
        },
        {
          "internalType": "address",
          "name": "",
          "type": "address"
        }
      ],
      "name": "funderAmountMap",
      "outputs": [
        {
          "internalType": "uint256",
          "name": "",
          "type": "uint256"
        }
      ],
      "stateMutability": "view",
      "type": "function"
    },
    {
      "inputs": [
        {
          "internalType": "bytes32",
          "name": "id",
          "type": "bytes32"
        }
      ],
      "name": "getMetadataCID",
      "outputs": [
        {
          "components": [
            {
              "internalType": "bytes32",
              "name": "digest",
              "type": "bytes32"
            },
            {
              "internalType": "uint8",
              "name": "hashFunction",
              "type": "uint8"
            },
            {
              "internalType": "uint8",
              "name": "size",
              "type": "uint8"
            }
          ],
          "internalType": "struct SolverLib.Multihash",
          "name": "",
          "type": "tuple"
        }
      ],
      "stateMutability": "view",
      "type": "function"
    },
    {
      "inputs": [
        {
          "internalType": "bytes32",
          "name": "id",
          "type": "bytes32"
        }
      ],
      "name": "getProposal",
      "outputs": [
        {
          "components": [
            {
              "internalType": "bool",
              "name": "isExecuted",
              "type": "bool"
            },
            {
              "internalType": "contract IERC20",
              "name": "collateralToken",
              "type": "address"
            },
            {
              "internalType": "address",
              "name": "proposer",
              "type": "address"
            },
            {
              "internalType": "address",
              "name": "solutionsHub",
              "type": "address"
            },
            {
              "internalType": "bytes32",
              "name": "id",
              "type": "bytes32"
            },
            {
              "internalType": "bytes32",
              "name": "solutionId",
              "type": "bytes32"
            },
            {
              "internalType": "uint256",
              "name": "funding",
              "type": "uint256"
            },
            {
              "internalType": "uint256",
              "name": "fundingGoal",
              "type": "uint256"
            },
            {
              "components": [
                {
                  "internalType": "bytes32",
                  "name": "digest",
                  "type": "bytes32"
                },
                {
                  "internalType": "uint8",
                  "name": "hashFunction",
                  "type": "uint8"
                },
                {
                  "internalType": "uint8",
                  "name": "size",
                  "type": "uint8"
                }
              ],
              "internalType": "struct SolverLib.Multihash",
              "name": "metadataCID",
              "type": "tuple"
            }
          ],
          "internalType": "struct ProposalsHub.Proposal",
          "name": "proposal",
          "type": "tuple"
        }
      ],
      "stateMutability": "view",
      "type": "function"
    },
    {
      "inputs": [
        {
          "internalType": "bytes32",
          "name": "id",
          "type": "bytes32"
        }
      ],
      "name": "isProposal",
      "outputs": [
        {
          "internalType": "bool",
          "name": "",
          "type": "bool"
        }
      ],
      "stateMutability": "view",
      "type": "function"
    },
    {
      "inputs": [
        {
          "internalType": "address",
          "name": "operator",
          "type": "address"
        },
        {
          "internalType": "address",
          "name": "from",
          "type": "address"
        },
        {
          "internalType": "uint256[]",
          "name": "ids",
          "type": "uint256[]"
        },
        {
          "internalType": "uint256[]",
          "name": "values",
          "type": "uint256[]"
        },
        {
          "internalType": "bytes",
          "name": "data",
          "type": "bytes"
        }
      ],
      "name": "onERC1155BatchReceived",
      "outputs": [
        {
          "internalType": "bytes4",
          "name": "",
          "type": "bytes4"
        }
      ],
      "stateMutability": "nonpayable",
      "type": "function"
    },
    {
      "inputs": [
        {
          "internalType": "address",
          "name": "operator",
          "type": "address"
        },
        {
          "internalType": "address",
          "name": "from",
          "type": "address"
        },
        {
          "internalType": "uint256",
          "name": "id",
          "type": "uint256"
        },
        {
          "internalType": "uint256",
          "name": "value",
          "type": "uint256"
        },
        {
          "internalType": "bytes",
          "name": "data",
          "type": "bytes"
        }
      ],
      "name": "onERC1155Received",
      "outputs": [
        {
          "internalType": "bytes4",
          "name": "",
          "type": "bytes4"
        }
      ],
      "stateMutability": "nonpayable",
      "type": "function"
    },
    {
      "inputs": [
        {
          "internalType": "bytes32",
          "name": "",
          "type": "bytes32"
        }
      ],
      "name": "proposals",
      "outputs": [
        {
          "internalType": "bool",
          "name": "isExecuted",
          "type": "bool"
        },
        {
          "internalType": "contract IERC20",
          "name": "collateralToken",
          "type": "address"
        },
        {
          "internalType": "address",
          "name": "proposer",
          "type": "address"
        },
        {
          "internalType": "address",
          "name": "solutionsHub",
          "type": "address"
        },
        {
          "internalType": "bytes32",
          "name": "id",
          "type": "bytes32"
        },
        {
          "internalType": "bytes32",
          "name": "solutionId",
          "type": "bytes32"
        },
        {
          "internalType": "uint256",
          "name": "funding",
          "type": "uint256"
        },
        {
          "internalType": "uint256",
          "name": "fundingGoal",
          "type": "uint256"
        },
        {
          "components": [
            {
              "internalType": "bytes32",
              "name": "digest",
              "type": "bytes32"
            },
            {
              "internalType": "uint8",
              "name": "hashFunction",
              "type": "uint8"
            },
            {
              "internalType": "uint8",
              "name": "size",
              "type": "uint8"
            }
          ],
          "internalType": "struct SolverLib.Multihash",
          "name": "metadataCID",
          "type": "tuple"
        }
      ],
      "stateMutability": "view",
      "type": "function"
    },
    {
      "inputs": [
        {
          "internalType": "bytes32",
          "name": "proposalId",
          "type": "bytes32"
        },
        {
          "internalType": "uint256",
          "name": "tokenId",
          "type": "uint256"
        }
      ],
      "name": "reclaimTokens",
      "outputs": [],
      "stateMutability": "nonpayable",
      "type": "function"
    },
    {
      "inputs": [
        {
          "internalType": "bytes32",
          "name": "",
          "type": "bytes32"
        },
        {
          "internalType": "uint256",
          "name": "",
          "type": "uint256"
        }
      ],
      "name": "reclaimableTokens",
      "outputs": [
        {
          "internalType": "uint256",
          "name": "",
          "type": "uint256"
        }
      ],
      "stateMutability": "view",
      "type": "function"
    },
    {
      "inputs": [
        {
          "internalType": "uint256",
          "name": "",
          "type": "uint256"
        },
        {
          "internalType": "address",
          "name": "",
          "type": "address"
        }
      ],
      "name": "reclaimedTokens",
      "outputs": [
        {
          "internalType": "uint256",
          "name": "",
          "type": "uint256"
        }
      ],
      "stateMutability": "view",
      "type": "function"
    },
    {
      "inputs": [
        {
          "internalType": "bytes4",
          "name": "interfaceId",
          "type": "bytes4"
        }
      ],
      "name": "supportsInterface",
      "outputs": [
        {
          "internalType": "bool",
          "name": "",
          "type": "bool"
        }
      ],
      "stateMutability": "view",
      "type": "function"
    },
    {
      "inputs": [
        {
          "internalType": "bytes32",
          "name": "_proposalId",
          "type": "bytes32"
        },
        {
          "internalType": "address",
          "name": "_solver",
          "type": "address"
        }
      ],
      "name": "transferERC20",
      "outputs": [],
      "stateMutability": "nonpayable",
      "type": "function"
    }
  ],
  "bytecode": "0x60a06040523480156200001157600080fd5b506040516200262c3803806200262c83398101604081905262000034916200004a565b60601b6001600160601b0319166080526200007a565b6000602082840312156200005c578081fd5b81516001600160a01b038116811462000073578182fd5b9392505050565b60805160601c61258c620000a060003960008181610a9e0152610f8e015261258c6000f3fe608060405234801561001057600080fd5b50600436106100f15760003560e01c806301ffc9a7146100f65780631918063f1461011f57806332c8506e1461013457806332ed5b121461014757806333c15c341461016f578063430694cf1461018f57806353ba3f57146101af57806354dd9927146101c25780635bd9e299146101d55780635d7dec6f146101ea57806383460ba8146101fd578063980ff6c614610210578063aaa4f33214610223578063aaf7a21414610243578063b70c764c14610264578063bc197c8114610277578063c12639f714610297578063d3f79a05146102aa578063f23a6e61146102bd575b600080fd5b610109610104366004611877565b6102d0565b6040516101169190611dc6565b60405180910390f35b61013261012d366004611709565b6102fd565b005b610132610142366004611738565b6104c4565b61015a6101553660046116d9565b6105ec565b60405161011699989796959493929190611dd1565b61018261017d366004611709565b610671565b6040516101169190611e24565b6101a261019d3660046116d9565b61068e565b60405161011691906122cb565b6101826101bd366004611856565b61074a565b6101326101d036600461181f565b610767565b6101dd610a9c565b6040516101169190611cf8565b6101826101f836600461189f565b610ac0565b61018261020b366004611709565b610c2d565b61013261021e3660046116d9565b610c4a565b6102366102313660046116d9565b610d5d565b60405161011691906122b7565b610256610251366004611781565b610dab565b604051610116929190611e2d565b610132610272366004611856565b610e52565b61028a610285366004611586565b611037565b6040516101169190611eb4565b6101326102a536600461181f565b611132565b6101096102b83660046116d9565b611353565b61028a6102cb366004611640565b61136a565b60006001600160e01b03198216630271189760e51b14806102f557506102f5826113fb565b90505b919050565b6000828152600160205260409020600201546001600160a01b0316331461033f5760405162461bcd60e51b815260040161033690611f59565b60405180910390fd5b6001600160a01b0381166103655760405162461bcd60e51b815260040161033690611ec9565b6000828152600160205260408082206002810154600491820154925162c8a40d60e51b81526001600160a01b038087169592169363191481a0936103ab93919201611e2d565b60206040518083038186803b1580156103c357600080fd5b505afa1580156103d7573d6000803e3d6000fd5b505050506040513d601f19601f820116820180604052508101906103fb9190611563565b6001600160a01b0316146104215760405162461bcd60e51b815260040161033690611f27565b600082815260016020526040908190208054600590910154915163a9059cbb60e01b81526101009091046001600160a01b031691829163a9059cbb9161046c91869190600401611dad565b602060405180830381600087803b15801561048657600080fd5b505af115801561049a573d6000803e3d6000fd5b505050506040513d601f19601f820116820180604052508101906104be91906116b9565b50505050565b6000838152600160205260409020600681015460059091015410156104fb5760405162461bcd60e51b81526004016103369061205f565b60008381526001602052604090205460ff161561052a5760405162461bcd60e51b815260040161033690612270565b6000838152600160205260409081902060028101546004918201549251632034967b60e21b81526001600160a01b03909116926380d259ec92610574928892918891889101611e3b565b600060405180830381600087803b15801561058e57600080fd5b505af11580156105a2573d6000803e3d6000fd5b505050600084815260016020819052604091829020805460ff191690911790555160008051602061253783398151915291506105df908590611e24565b60405180910390a1505050565b600160208181526000928352604092839020805492810154600282015460038301546004840154600585015460068601548951606081018b526007880154815260089097015460ff818116998901999099526101009081900489169a88019a909a52968816986001600160a01b03980488169794851696939094169491939092909189565b600460209081526000928352604080842090915290825290205481565b610696611447565b50600090815260016020818152604092839020835161012081018552815460ff808216151583526001600160a01b036101009283900481168487015295840154861683880152600284015490951660608084019190915260038401546080840152600484015460a0840152600584015460c0840152600684015460e0840152865190810187526007840154815260089093015480861694840194909452928390049093169381019390935281019190915290565b600360209081526000928352604080842090915290825290205481565b6000838152600160205260409020600301546107955760405162461bcd60e51b8152600401610336906120c1565b60008381526001602052604090205460ff16156107c45760405162461bcd60e51b815260040161033690612270565b6000838152600160205260409020546001600160a01b0383811661010090920416146108025760405162461bcd60e51b81526004016103369061219c565b600081116108225760405162461bcd60e51b815260040161033690612092565b600083815260026020908152604080832033845290915290205481111561085b5760405162461bcd60e51b815260040161033690611fd8565b6040516370a0823160e01b81526000906001600160a01b038416906370a082319061088a903090600401611cf8565b60206040518083038186803b1580156108a257600080fd5b505afa1580156108b6573d6000803e3d6000fd5b505050506040513d601f19601f820116820180604052508101906108da91906116f1565b905081600160008681526020019081526020016000206005016000828254610902919061247b565b909155505060008481526002602090815260408083203384529091528120805484929061093090849061247b565b909155505060405163a9059cbb60e01b81526001600160a01b0384169063a9059cbb906109639033908690600401611dad565b602060405180830381600087803b15801561097d57600080fd5b505af1158015610991573d6000803e3d6000fd5b505050506040513d601f19601f820116820180604052508101906109b591906116b9565b506040516370a0823160e01b815282906001600160a01b038516906370a08231906109e4903090600401611cf8565b60206040518083038186803b1580156109fc57600080fd5b505afa158015610a10573d6000803e3d6000fd5b505050506040513d601f19601f82011682018060405250810190610a3491906116f1565b610a3e908361247b565b14610a5b5760405162461bcd60e51b8152600401610336906121ed565b7fe2ab43d60bbb163b7fad7413086cd6c1ee0e0a59a9625e4945a10f1b6a167ff9848333604051610a8e93929190611e95565b60405180910390a150505050565b7f000000000000000000000000000000000000000000000000000000000000000081565b600080548180610acf83612492565b919050555033838786600054604051602001610aef959493929190611cbc565b60408051601f19818403018152918152815160209283012060008181526001938490529190912080546001600160a01b03808b1661010002610100600160a81b031990921691909117825592810180546001600160a01b03199081163317909155600282018054948a16949091169390931790925560038201819055600482018590556006820186905591508260078201610b8a82826124c3565b50506040516373c587f560e01b81526001600160a01b038716906373c587f590610bba9085908890600401611e2d565b600060405180830381600087803b158015610bd457600080fd5b505af1158015610be8573d6000803e3d6000fd5b505050507f2d231481d8c1af3958a30a257e93e0df6b089bc07ebedc0a86e7355d1aaf133882604051610c1b9190611e24565b60405180910390a15095945050505050565b600260209081526000928352604080842090915290825290205481565b600081815260016020526040902060068101546005909101541015610c815760405162461bcd60e51b81526004016103369061205f565b60008181526001602052604090205460ff1615610cb05760405162461bcd60e51b815260040161033690612270565b600081815260016020819052604091829020805460ff1916909117815560028101546004918201549251630c17772560e31b81526001600160a01b03909116926360bbb92892610d039286929101611e2d565b600060405180830381600087803b158015610d1d57600080fd5b505af1158015610d31573d6000803e3d6000fd5b5050505060008051602061253783398151915281604051610d529190611e24565b60405180910390a150565b610d6561149a565b5060009081526001602090815260409182902082516060810184526007820154815260089091015460ff8082169383019390935261010090049091169181019190915290565b600080876001600160a01b0316635f49a4348b8b8989896040518663ffffffff1660e01b8152600401610de2959493929190611e5b565b602060405180830381600087803b158015610dfc57600080fd5b505af1158015610e10573d6000803e3d6000fd5b505050506040513d601f19601f82011682018060405250810190610e3491906116f1565b9150610e438989898d87610ac0565b90509850989650505050505050565b6000828152600260209081526040808320338452909152902054610e885760405162461bcd60e51b815260040161033690612125565b60008281526002602090815260408083203384528252808320548584526001909252822060050154610eba919061245b565b6000838152600460209081526040808320338452825280832054878452600383528184208785529092528220549293509091610ef790849061245b565b610f01919061247b565b905060008111610f235760405162461bcd60e51b81526004016103369061216a565b6000848152600360209081526040808320868452909152902054811115610f5c5760405162461bcd60e51b815260040161033690611ef2565b600083815260046020908152604080832033845290915281208054839290610f85908490612443565b925050819055507f00000000000000000000000000000000000000000000000000000000000000006001600160a01b031663f242432a3033868589604051602001610fd09190611e24565b6040516020818303038152906040526040518663ffffffff1660e01b8152600401610fff959493929190611d30565b600060405180830381600087803b15801561101957600080fd5b505af115801561102d573d6000803e3d6000fd5b5050505050505050565b600080611046838501856116d9565b60008181526001602052604090206003015490915081146110795760405162461bcd60e51b815260040161033690611f8e565b60008181526001602052604090205460ff166110a75760405162461bcd60e51b815260040161033690612224565b60005b8781101561111b57611109828a8a848181106110d657634e487b7160e01b600052603260045260246000fd5b905060200201358989858181106110fd57634e487b7160e01b600052603260045260246000fd5b90506020020135611414565b8061111381612492565b9150506110aa565b5063bc197c8160e01b9a9950505050505050505050565b6000838152600160205260409020600301546111605760405162461bcd60e51b8152600401610336906120c1565b60008381526001602052604090205460ff161561118f5760405162461bcd60e51b815260040161033690612270565b6000838152600160205260409020546001600160a01b0383811661010090920416146111cd5760405162461bcd60e51b81526004016103369061219c565b600081116111ed5760405162461bcd60e51b815260040161033690612092565b600083815260016020526040902060068101546005909101546112109083612443565b111561122e5760405162461bcd60e51b8152600401610336906120f2565b6000838152600160205260408120600501805483929061124f908490612443565b909155505060008381526002602090815260408083203384529091528120805483929061127d908490612443565b90915550506040516323b872dd60e01b81526001600160a01b038316906323b872dd906112b290339030908690600401611d0c565b602060405180830381600087803b1580156112cc57600080fd5b505af11580156112e0573d6000803e3d6000fd5b505050506040513d601f19601f8201168201806040525081019061130491906116b9565b6113205760405162461bcd60e51b81526004016103369061201d565b7f82999597cf961179ae8200cb30fa0dcf5559a734cfd867ccd187c5dd6946c4138382336040516105df93929190611e95565b600090815260016020526040902060030154151590565b600080611379838501856116d9565b60008181526001602052604090206003015490915081146113ac5760405162461bcd60e51b815260040161033690611f8e565b60008181526001602052604090205460ff166113da5760405162461bcd60e51b815260040161033690612224565b6113e5818787611414565b5063f23a6e6160e01b90505b9695505050505050565b6001600160e01b031981166301ffc9a760e01b14919050565b60008381526003602090815260408083208584529091528120805483929061143d908490612443565b9091555050505050565b6040805161012081018252600080825260208201819052918101829052606081018290526080810182905260a0810182905260c0810182905260e0810191909152610100810161149561149a565b905290565b604080516060810182526000808252602082018190529181019190915290565b80356102f88161250f565b60008083601f8401126114d6578182fd5b5081356001600160401b038111156114ec578182fd5b602083019150836020808302850101111561150657600080fd5b9250929050565b60008083601f84011261151e578182fd5b5081356001600160401b03811115611534578182fd5b60208301915083602082850101111561150657600080fd5b60006060828403121561155d578081fd5b50919050565b600060208284031215611574578081fd5b815161157f8161250f565b9392505050565b60008060008060008060008060a0898b0312156115a1578384fd5b88356115ac8161250f565b975060208901356115bc8161250f565b965060408901356001600160401b03808211156115d7578586fd5b6115e38c838d016114c5565b909850965060608b01359150808211156115fb578586fd5b6116078c838d016114c5565b909650945060808b013591508082111561161f578384fd5b5061162c8b828c0161150d565b999c989b5096995094979396929594505050565b60008060008060008060a08789031215611658578182fd5b86356116638161250f565b955060208701356116738161250f565b9450604087013593506060870135925060808701356001600160401b0381111561169b578283fd5b6116a789828a0161150d565b979a9699509497509295939492505050565b6000602082840312156116ca578081fd5b8151801515811461157f578182fd5b6000602082840312156116ea578081fd5b5035919050565b600060208284031215611702578081fd5b5051919050565b6000806040838503121561171b578182fd5b82359150602083013561172d8161250f565b809150509250929050565b60008060006040848603121561174c578283fd5b8335925060208401356001600160401b03811115611768578283fd5b611774868287016114c5565b9497909650939450505050565b600080600080600080600080610160898b03121561179d578182fd5b8835975060208901356117af8161250f565b965060408901356117bf8161250f565b95506060890135945060808901356001600160401b038111156117e0578283fd5b6117ec8b828c016114c5565b909550935061180090508a60a08b0161154c565b91506118108a6101008b0161154c565b90509295985092959890939650565b600080600060608486031215611833578081fd5b8335925060208401356118458161250f565b929592945050506040919091013590565b60008060408385031215611868578182fd5b50508035926020909101359150565b600060208284031215611888578081fd5b81356001600160e01b03198116811461157f578182fd5b600080600080600060e086880312156118b6578283fd5b85356118c18161250f565b945060208601356118d18161250f565b935060408601359250606086013591506118ee876080880161154c565b90509295509295909350565b6001600160a01b03169052565b81835260006001600160fb1b0383111561191f578081fd5b6020830280836020870137939093016020019283525090919050565b818352602080840193600091908185020181018584845b87811015611a3e5782840389526119698288612425565b60e081356119768161250f565b61198087826118fa565b5061198c8783016114ba565b611998888801826118fa565b5060406119a68184016114ba565b6119b2828901826118fa565b50506060828101359087015260806119cc818401846123e1565b83838a01526119de848a018284611b27565b935050505060a06119f181840184612353565b888403838a0152611a03848284611a4b565b935050505060c0611a1681840184612425565b92508682038188015250611a2a8183611b51565b9a87019a9550505090840190600101611952565b5091979650505050505050565b818352602080840193600091908185020181018584845b87811015611a3e5782840389528135609e19883603018112611a82578687fd5b87018035855260a08682013560048110611a9a578889fd5b8688015260408281013590870152606080830135908701526080611ac0818401846123e1565b93508282890152611ad48389018583611b27565b9c89019c97505050928601925050600101611a62565b600082845260208401935081815b84811015611b1d57611b0a8683611c64565b6060958601959190910190600101611af8565b5093949350505050565b60008284528282602086013780602084860101526020601f19601f85011685010190509392505050565b60008135611b5e8161250f565b6001600160a01b03168352602082810135818501526040808401358186015260608085013590860152611b946080850185612353565b60e06080880152611ba960e088018284611907565b915050611bb960a0860186612353565b87830360a08901528083528483018582028401860183885b84811015611c3057868303601f19018452813536879003603e19018112611bf6578a8bfd5b860180358452611c088a820182612353565b9150898b860152611c1c8a86018383611907565b958b01959450505090880190600101611bd1565b5050611c3f60c08a018a61239a565b9750955089810360c08b0152611c56818888611aea565b9a9950505050505050505050565b803582526020810135611c7681612527565b60ff1660208301526040810135611c8c81612527565b60ff81166040840152505050565b8051825260ff602082015116602083015260ff60408201511660408301525050565b6001600160601b0319606096871b8116825260148201959095529290941b90921660348201526048810191909152606881019190915260880190565b6001600160a01b0391909116815260200190565b6001600160a01b039384168152919092166020820152604081019190915260600190565b600060018060a01b03808816835260208188168185015286604085015285606085015260a06080850152845191508160a0850152825b82811015611d825785810182015185820160c001528101611d66565b82811115611d93578360c084870101525b5050601f01601f19169190910160c0019695505050505050565b6001600160a01b03929092168252602082015260400190565b901515815260200190565b89151581526001600160a01b0389811660208301528881166040830152871660608201526080810186905260a0810185905260c0810184905260e081018390526101608101611c56610100830184611c9a565b90815260200190565b918252602082015260400190565b6000858252846020830152606060408301526113f160608301848661193b565b8581526001600160a01b038516602082015260c060408201819052600090611e86908301858761193b565b90506113f16060830184611c64565b92835260208301919091526001600160a01b0316604082015260600190565b6001600160e01b031991909116815260200190565b6020808252600f908201526e496e76616c6964206164647265737360881b604082015260600190565b6020808252818101527f50726f706f73616c734875623a3a436c61696d20697320746f6f206c61726765604082015260600190565b602080825260189082015277496e636f727265637420736f6c766572206164647265737360401b604082015260600190565b6020808252601b908201527a36b9b39739b2b73232b9103737ba1039b7b63aba34b7b739a43ab160291b604082015260600190565b6020808252602a908201527f50726f706f73616c734875623a3a44617461206973206e6f742076616c6964206040820152691c1c9bdc1bdcd85b125960b21b606082015260800190565b60208082526025908201527f436f6d6d69747465642066756e6473206973206c6f776572207468616e20616d60408201526437bab73a1760d91b606082015260800190565b60208082526022908201527f436f756c64206e6f74207472616e736665722066726f6d206d73672e73656e6460408201526132b960f11b606082015260800190565b602080825260199082015278141c9bdc1bdcd85b081b9bdd08199d5b1b1e48199d5b991959603a1b604082015260600190565b602080825260159082015274416d6f756e742063616e6e6f74206265207a65726f60581b604082015260600190565b602080825260179082015276141c9bdc1bdcd85b08191bd95cc81b9bdd08195e1a5cdd604a1b604082015260600190565b60208082526019908201527810d85b89dd08199d5b99081b5bdc99481d1a185b8819dbd85b603a1b604082015260600190565b60208082526025908201527f50726f706f73616c734875623a3a6d73672e73656e64657220686173206e6f20604082015264636c61696d60d81b606082015260800190565b602080825260189082015277050726f706f73616c734875623a3a436c61696d20697320360441b604082015260600190565b60208082526031908201527f50726f706f73616c20646f6573206e6f7420696e636c756465207468697320746040820152701bdad95b881d1bc8189948199d5b991959607a1b606082015260800190565b6020808252601e908201527f4265666f726520616e642061667465722062616c616e63652077726f6e670000604082015260600190565b6020808252602c908201527f50726f706f73616c734875623a3a50726f706f73616c20686173206e6f74206260408201526b19595b88195e1958dd5d195960a21b606082015260800190565b60208082526027908201527f50726f706f73616c734875623a3a50726f706f73616c20616c726561647920656040820152661e1958dd5d195960ca1b606082015260800190565b606081016122c58284611c9a565b92915050565b8151151581526020808301516001600160a01b0316908201526040808301516101608301916122fc908401826118fa565b50606083015161230f60608401826118fa565b506080830151608083015260a083015160a083015260c083015160c083015260e083015160e08301526101008084015161234b82850182611c9a565b505092915050565b6000808335601e19843603018112612369578283fd5b83016020810192503590506001600160401b0381111561238857600080fd5b60208102360383131561150657600080fd5b6000808335601e198436030181126123b0578283fd5b83016020810192503590506001600160401b038111156123cf57600080fd5b60608102360383131561150657600080fd5b6000808335601e198436030181126123f7578283fd5b83016020810192503590506001600160401b0381111561241657600080fd5b80360383131561150657600080fd5b6000823560de1983360301811261243a578182fd5b90910192915050565b60008219821115612456576124566124ad565b500190565b60008261247657634e487b7160e01b81526012600452602481fd5b500490565b60008282101561248d5761248d6124ad565b500390565b60006000198214156124a6576124a66124ad565b5060010190565b634e487b7160e01b600052601160045260246000fd5b813581556001810160208301356124d981612527565b815460ff191660ff919091161780825560408401356124f781612527565b61ff008160081b1661ff001983161783555050505050565b6001600160a01b038116811461252457600080fd5b50565b60ff8116811461252457600080fdfe3a5a0357f01e19a1531e65bfe13d63c64c9ae8f03d8c26ae74b1e2929a4f3966a2646970667358221220ef66d20050b8f911b7b5cca7da9134a84d2b2ad4106d7143fa6d353c2086284564736f6c63430008000033",
  "linkReferences": {},
  "deployedLinkReferences": {}
}