{
  "_format": "hh-sol-artifact-1",
  "contractName": "ProposalsHub",
  "sourceName": "contracts/ProposalsHub.sol",
  "abi": [
    {
      "inputs": [
        {
          "internalType": "address",
          "name": "_ctfAddress",
          "type": "address"
        }
      ],
      "stateMutability": "nonpayable",
      "type": "constructor"
    },
    {
      "anonymous": false,
      "inputs": [
        {
          "indexed": false,
          "internalType": "bytes32",
          "name": "id",
          "type": "bytes32"
        }
      ],
      "name": "CreateProposal",
      "type": "event"
    },
    {
      "anonymous": false,
      "inputs": [
        {
          "indexed": false,
          "internalType": "bytes32",
          "name": "id",
          "type": "bytes32"
        }
      ],
      "name": "ExecuteProposal",
      "type": "event"
    },
    {
      "inputs": [],
      "name": "conditionalTokens",
      "outputs": [
        {
          "internalType": "contract IConditionalTokens",
          "name": "",
          "type": "address"
        }
      ],
      "stateMutability": "view",
      "type": "function"
    },
    {
      "inputs": [
        {
          "internalType": "contract IERC20",
          "name": "collateralToken",
          "type": "address"
        },
        {
          "internalType": "address",
          "name": "solutionsHub",
          "type": "address"
        },
        {
          "internalType": "uint256",
          "name": "fundingGoal",
          "type": "uint256"
        },
        {
          "internalType": "bytes32",
          "name": "solutionId",
          "type": "bytes32"
        }
      ],
      "name": "createProposal",
      "outputs": [],
      "stateMutability": "nonpayable",
      "type": "function"
    },
    {
      "inputs": [
        {
          "internalType": "bytes32",
          "name": "proposalId",
          "type": "bytes32"
        },
        {
          "internalType": "contract IERC20",
          "name": "token",
          "type": "address"
        },
        {
          "internalType": "uint256",
          "name": "amount",
          "type": "uint256"
        }
      ],
      "name": "defundProposal",
      "outputs": [],
      "stateMutability": "nonpayable",
      "type": "function"
    },
    {
      "inputs": [
        {
          "internalType": "bytes32",
          "name": "proposalId",
          "type": "bytes32"
        },
        {
          "components": [
            {
              "internalType": "contract Solver",
              "name": "implementation",
              "type": "address"
            },
            {
              "internalType": "address",
              "name": "keeper",
              "type": "address"
            },
            {
              "internalType": "address",
              "name": "arbitrator",
              "type": "address"
            },
            {
              "internalType": "uint256",
              "name": "timelockSeconds",
              "type": "uint256"
            },
            {
              "internalType": "bytes",
              "name": "data",
              "type": "bytes"
            },
            {
              "components": [
                {
                  "internalType": "uint256",
                  "name": "executions",
                  "type": "uint256"
                },
                {
                  "internalType": "enum SolverLib.IngestType",
                  "name": "ingestType",
                  "type": "uint8"
                },
                {
                  "internalType": "bytes32",
                  "name": "slot",
                  "type": "bytes32"
                },
                {
                  "internalType": "uint256",
                  "name": "solverIndex",
                  "type": "uint256"
                },
                {
                  "internalType": "bytes",
                  "name": "data",
                  "type": "bytes"
                }
              ],
              "internalType": "struct SolverLib.Ingest[]",
              "name": "ingests",
              "type": "tuple[]"
            },
            {
              "components": [
                {
                  "internalType": "contract IERC20",
                  "name": "collateralToken",
                  "type": "address"
                },
                {
                  "internalType": "uint256",
                  "name": "outcomeSlots",
                  "type": "uint256"
                },
                {
                  "internalType": "uint256",
                  "name": "parentCollectionIndexSet",
                  "type": "uint256"
                },
                {
                  "internalType": "bytes32",
                  "name": "amountSlot",
                  "type": "bytes32"
                },
                {
                  "internalType": "uint256[]",
                  "name": "partition",
                  "type": "uint256[]"
                },
                {
                  "components": [
                    {
                      "internalType": "bytes32",
                      "name": "recipientAddressSlot",
                      "type": "bytes32"
                    },
                    {
                      "internalType": "bytes32[]",
                      "name": "recipientAmountSlots",
                      "type": "bytes32[]"
                    }
                  ],
                  "internalType": "struct SolverLib.Allocation[]",
                  "name": "allocations",
                  "type": "tuple[]"
                },
                {
                  "components": [
                    {
                      "internalType": "bytes32",
                      "name": "digest",
                      "type": "bytes32"
                    },
                    {
                      "internalType": "uint8",
                      "name": "hashFunction",
                      "type": "uint8"
                    },
                    {
                      "internalType": "uint8",
                      "name": "size",
                      "type": "uint8"
                    }
                  ],
                  "internalType": "struct SolverLib.Multihash[]",
                  "name": "outcomeURIs",
                  "type": "tuple[]"
                }
              ],
              "internalType": "struct SolverLib.ConditionBase",
              "name": "conditionBase",
              "type": "tuple"
            }
          ],
          "internalType": "struct SolverLib.Config[]",
          "name": "solverConfigs",
          "type": "tuple[]"
        }
      ],
      "name": "executeIPFSProposal",
      "outputs": [],
      "stateMutability": "nonpayable",
      "type": "function"
    },
    {
      "inputs": [
        {
          "internalType": "bytes32",
          "name": "proposalId",
          "type": "bytes32"
        }
      ],
      "name": "executeProposal",
      "outputs": [],
      "stateMutability": "nonpayable",
      "type": "function"
    },
    {
      "inputs": [
        {
          "internalType": "bytes32",
          "name": "proposalId",
          "type": "bytes32"
        },
        {
          "internalType": "contract IERC20",
          "name": "token",
          "type": "address"
        },
        {
          "internalType": "uint256",
          "name": "amount",
          "type": "uint256"
        }
      ],
      "name": "fundProposal",
      "outputs": [],
      "stateMutability": "nonpayable",
      "type": "function"
    },
    {
      "inputs": [
        {
          "internalType": "bytes32",
          "name": "",
          "type": "bytes32"
        },
        {
          "internalType": "address",
          "name": "",
          "type": "address"
        }
      ],
      "name": "funderAmountMap",
      "outputs": [
        {
          "internalType": "uint256",
          "name": "",
          "type": "uint256"
        }
      ],
      "stateMutability": "view",
      "type": "function"
    },
    {
      "inputs": [
        {
          "internalType": "bytes32",
          "name": "id",
          "type": "bytes32"
        }
      ],
      "name": "getContext",
      "outputs": [
        {
          "components": [
            {
              "internalType": "bytes32",
              "name": "digest",
              "type": "bytes32"
            },
            {
              "internalType": "uint8",
              "name": "hashFunction",
              "type": "uint8"
            },
            {
              "internalType": "uint8",
              "name": "size",
              "type": "uint8"
            }
          ],
          "internalType": "struct SolverLib.Multihash",
          "name": "",
          "type": "tuple"
        }
      ],
      "stateMutability": "view",
      "type": "function"
    },
    {
      "inputs": [
        {
          "internalType": "bytes32",
          "name": "id",
          "type": "bytes32"
        }
      ],
      "name": "getProposal",
      "outputs": [
        {
          "components": [
            {
              "internalType": "bool",
              "name": "isExecuted",
              "type": "bool"
            },
            {
              "internalType": "contract IERC20",
              "name": "collateralToken",
              "type": "address"
            },
            {
              "internalType": "address",
              "name": "proposer",
              "type": "address"
            },
            {
              "internalType": "address",
              "name": "solutionsHub",
              "type": "address"
            },
            {
              "internalType": "bytes32",
              "name": "id",
              "type": "bytes32"
            },
            {
              "internalType": "bytes32",
              "name": "solutionId",
              "type": "bytes32"
            },
            {
              "internalType": "uint256",
              "name": "funding",
              "type": "uint256"
            },
            {
              "internalType": "uint256",
              "name": "fundingGoal",
              "type": "uint256"
            },
            {
              "components": [
                {
                  "internalType": "bytes32",
                  "name": "digest",
                  "type": "bytes32"
                },
                {
                  "internalType": "uint8",
                  "name": "hashFunction",
                  "type": "uint8"
                },
                {
                  "internalType": "uint8",
                  "name": "size",
                  "type": "uint8"
                }
              ],
              "internalType": "struct SolverLib.Multihash",
              "name": "context",
              "type": "tuple"
            }
          ],
          "internalType": "struct ProposalsHub.Proposal",
          "name": "proposal",
          "type": "tuple"
        }
      ],
      "stateMutability": "view",
      "type": "function"
    },
    {
      "inputs": [
        {
          "internalType": "bytes32",
          "name": "id",
          "type": "bytes32"
        }
      ],
      "name": "isProposal",
      "outputs": [
        {
          "internalType": "bool",
          "name": "",
          "type": "bool"
        }
      ],
      "stateMutability": "view",
      "type": "function"
    },
    {
      "inputs": [
        {
          "internalType": "address",
          "name": "operator",
          "type": "address"
        },
        {
          "internalType": "address",
          "name": "from",
          "type": "address"
        },
        {
          "internalType": "uint256[]",
          "name": "ids",
          "type": "uint256[]"
        },
        {
          "internalType": "uint256[]",
          "name": "values",
          "type": "uint256[]"
        },
        {
          "internalType": "bytes",
          "name": "data",
          "type": "bytes"
        }
      ],
      "name": "onERC1155BatchReceived",
      "outputs": [
        {
          "internalType": "bytes4",
          "name": "",
          "type": "bytes4"
        }
      ],
      "stateMutability": "nonpayable",
      "type": "function"
    },
    {
      "inputs": [
        {
          "internalType": "address",
          "name": "operator",
          "type": "address"
        },
        {
          "internalType": "address",
          "name": "from",
          "type": "address"
        },
        {
          "internalType": "uint256",
          "name": "id",
          "type": "uint256"
        },
        {
          "internalType": "uint256",
          "name": "value",
          "type": "uint256"
        },
        {
          "internalType": "bytes",
          "name": "data",
          "type": "bytes"
        }
      ],
      "name": "onERC1155Received",
      "outputs": [
        {
          "internalType": "bytes4",
          "name": "",
          "type": "bytes4"
        }
      ],
      "stateMutability": "nonpayable",
      "type": "function"
    },
    {
      "inputs": [
        {
          "internalType": "bytes32",
          "name": "",
          "type": "bytes32"
        }
      ],
      "name": "proposals",
      "outputs": [
        {
          "internalType": "bool",
          "name": "isExecuted",
          "type": "bool"
        },
        {
          "internalType": "contract IERC20",
          "name": "collateralToken",
          "type": "address"
        },
        {
          "internalType": "address",
          "name": "proposer",
          "type": "address"
        },
        {
          "internalType": "address",
          "name": "solutionsHub",
          "type": "address"
        },
        {
          "internalType": "bytes32",
          "name": "id",
          "type": "bytes32"
        },
        {
          "internalType": "bytes32",
          "name": "solutionId",
          "type": "bytes32"
        },
        {
          "internalType": "uint256",
          "name": "funding",
          "type": "uint256"
        },
        {
          "internalType": "uint256",
          "name": "fundingGoal",
          "type": "uint256"
        },
        {
          "components": [
            {
              "internalType": "bytes32",
              "name": "digest",
              "type": "bytes32"
            },
            {
              "internalType": "uint8",
              "name": "hashFunction",
              "type": "uint8"
            },
            {
              "internalType": "uint8",
              "name": "size",
              "type": "uint8"
            }
          ],
          "internalType": "struct SolverLib.Multihash",
          "name": "context",
          "type": "tuple"
        }
      ],
      "stateMutability": "view",
      "type": "function"
    },
    {
      "inputs": [
        {
          "internalType": "bytes32",
          "name": "proposalId",
          "type": "bytes32"
        },
        {
          "internalType": "uint256",
          "name": "tokenId",
          "type": "uint256"
        }
      ],
      "name": "reclaimTokens",
      "outputs": [],
      "stateMutability": "nonpayable",
      "type": "function"
    },
    {
      "inputs": [
        {
          "internalType": "bytes32",
          "name": "",
          "type": "bytes32"
        },
        {
          "internalType": "uint256",
          "name": "",
          "type": "uint256"
        }
      ],
      "name": "reclaimableTokens",
      "outputs": [
        {
          "internalType": "uint256",
          "name": "",
          "type": "uint256"
        }
      ],
      "stateMutability": "view",
      "type": "function"
    },
    {
      "inputs": [
        {
          "internalType": "uint256",
          "name": "",
          "type": "uint256"
        },
        {
          "internalType": "address",
          "name": "",
          "type": "address"
        }
      ],
      "name": "reclaimedTokens",
      "outputs": [
        {
          "internalType": "uint256",
          "name": "",
          "type": "uint256"
        }
      ],
      "stateMutability": "view",
      "type": "function"
    },
    {
      "inputs": [
        {
          "internalType": "bytes4",
          "name": "interfaceId",
          "type": "bytes4"
        }
      ],
      "name": "supportsInterface",
      "outputs": [
        {
          "internalType": "bool",
          "name": "",
          "type": "bool"
        }
      ],
      "stateMutability": "view",
      "type": "function"
    },
    {
      "inputs": [
        {
          "internalType": "bytes32",
          "name": "_proposalId",
          "type": "bytes32"
        },
        {
          "internalType": "address",
          "name": "_solver",
          "type": "address"
        }
      ],
      "name": "transferERC20",
      "outputs": [],
      "stateMutability": "nonpayable",
      "type": "function"
    }
  ],
  "bytecode": "0x60a060405234801561001057600080fd5b50604051620021763803806200217683398101604081905261003191610046565b60601b6001600160601b031916608052610074565b600060208284031215610057578081fd5b81516001600160a01b038116811461006d578182fd5b9392505050565b60805160601c6120dc6200009a60003960008181610a4f0152610cdd01526120dc6000f3fe608060405234801561001057600080fd5b50600436106100e65760003560e01c806301ffc9a7146100eb578063116f94d0146101145780631918063f1461012957806329b2be011461013c57806332c8506e1461015c57806332ed5b121461016f57806333c15c3414610197578063430694cf146101b757806353ba3f57146101d757806354dd9927146101ea5780635bd9e299146101fd57806383460ba814610212578063980ff6c614610225578063b70c764c14610238578063bc197c811461024b578063c12639f71461026b578063d3f79a051461027e578063f23a6e6114610291575b600080fd5b6100fe6100f93660046114c9565b6102a4565b60405161010b91906118e5565b60405180910390f35b6101276101223660046114f1565b6102d1565b005b6101276101373660046113f9565b61041f565b61014f61014a3660046113e1565b6105e6565b60405161010b9190611e62565b61012761016a366004611428565b610634565b61018261017d3660046113e1565b61075c565b60405161010b999897969594939291906118f0565b6101aa6101a53660046113f9565b6107e1565b60405161010b9190611943565b6101ca6101c53660046113e1565b6107fe565b60405161010b9190611e76565b6101aa6101e53660046114a8565b6108ba565b6101276101f8366004611471565b6108d7565b610205610a4d565b60405161010b9190611a97565b6101aa6102203660046113f9565b610a71565b6101276102333660046113e1565b610a8e565b6101276102463660046114a8565b610ba1565b61025e61025936600461128e565b610d86565b60405161010b9190611a82565b610127610279366004611471565b610e81565b6100fe61028c3660046113e1565b611074565b61025e61029f366004611348565b61108b565b60006001600160e01b03198216630271189760e51b14806102c957506102c98261111a565b90505b919050565b6000805490806102e08361203d565b91905055506000338286856000546040516020016103029594939291906117ef565b60408051601f19818403018152828252805160209182012060008181526001928390529290922080546001600160a01b03808b1661010002610100600160a81b031990921691909117825591810180546001600160a01b03199081163317909155600282018054938a169390911683179055600381018390556004808201879055600682018890556373c587f560e01b85529294509290916373c587f5916103ae91869188910161194c565b600060405180830381600087803b1580156103c857600080fd5b505af11580156103dc573d6000803e3d6000fd5b505050507f2d231481d8c1af3958a30a257e93e0df6b089bc07ebedc0a86e7355d1aaf13388260405161040f9190611943565b60405180910390a1505050505050565b6000828152600160205260409020600201546001600160a01b031633146104615760405162461bcd60e51b815260040161045890611b3b565b60405180910390fd5b6001600160a01b0381166104875760405162461bcd60e51b815260040161045890611aab565b6000828152600160205260408082206002810154600491820154925162c8a40d60e51b81526001600160a01b038087169592169363191481a0936104cd9391920161194c565b60206040518083038186803b1580156104e557600080fd5b505afa1580156104f9573d6000803e3d6000fd5b505050506040513d601f19601f8201168201806040525081019061051d919061126b565b6001600160a01b0316146105435760405162461bcd60e51b815260040161045890611b09565b600082815260016020526040908190208054600590910154915163a9059cbb60e01b81526101009091046001600160a01b031691829163a9059cbb9161058e918691906004016118cc565b602060405180830381600087803b1580156105a857600080fd5b505af11580156105bc573d6000803e3d6000fd5b505050506040513d601f19601f820116820180604052508101906105e091906113c1565b50505050565b6105ee611166565b5060009081526001602090815260409182902082516060810184526007820154815260089091015460ff8082169383019390935261010090049091169181019190915290565b60008381526001602052604090206006810154600590910154101561066b5760405162461bcd60e51b815260040161045890611c41565b60008381526001602052604090205460ff161561069a5760405162461bcd60e51b815260040161045890611e1b565b6000838152600160205260409081902060028101546004918201549251632034967b60e21b81526001600160a01b03909116926380d259ec926106e492889291889188910161195a565b600060405180830381600087803b1580156106fe57600080fd5b505af1158015610712573d6000803e3d6000fd5b505050600084815260016020819052604091829020805460ff1916909117905551600080516020612087833981519152915061074f908590611943565b60405180910390a1505050565b600160208181526000928352604092839020805492810154600282015460038301546004840154600585015460068601548951606081018b526007880154815260089097015460ff818116998901999099526101009081900489169a88019a909a52968816986001600160a01b03980488169794851696939094169491939092909189565b600460209081526000928352604080842090915290825290205481565b610806611186565b50600090815260016020818152604092839020835161012081018552815460ff808216151583526001600160a01b036101009283900481168487015295840154861683880152600284015490951660608084019190915260038401546080840152600484015460a0840152600584015460c0840152600684015460e0840152865190810187526007840154815260089093015480861694840194909452928390049093169381019390935281019190915290565b600360209081526000928352604080842090915290825290205481565b6000838152600160205260409020600301546109055760405162461bcd60e51b815260040161045890611ca3565b60008381526001602052604090205460ff16156109345760405162461bcd60e51b815260040161045890611e1b565b6000838152600160205260409020546001600160a01b0383811661010090920416146109725760405162461bcd60e51b815260040161045890611d7e565b600081116109925760405162461bcd60e51b815260040161045890611c74565b60008381526002602090815260408083203384529091529020548111156109cb5760405162461bcd60e51b815260040161045890611bba565b600083815260016020526040812060050180548392906109ec908490612026565b9091555050600083815260026020908152604080832033845290915281208054839290610a1a908490612026565b909155505060405163a9059cbb60e01b81526001600160a01b0383169063a9059cbb9061058e90339085906004016118cc565b7f000000000000000000000000000000000000000000000000000000000000000081565b600260209081526000928352604080842090915290825290205481565b600081815260016020526040902060068101546005909101541015610ac55760405162461bcd60e51b815260040161045890611c41565b60008181526001602052604090205460ff1615610af45760405162461bcd60e51b815260040161045890611e1b565b600081815260016020819052604091829020805460ff1916909117815560028101546004918201549251630c17772560e31b81526001600160a01b03909116926360bbb92892610b47928692910161194c565b600060405180830381600087803b158015610b6157600080fd5b505af1158015610b75573d6000803e3d6000fd5b5050505060008051602061208783398151915281604051610b969190611943565b60405180910390a150565b6000828152600260209081526040808320338452909152902054610bd75760405162461bcd60e51b815260040161045890611d07565b60008281526002602090815260408083203384528252808320548584526001909252822060050154610c099190612006565b6000838152600460209081526040808320338452825280832054878452600383528184208785529092528220549293509091610c46908490612006565b610c509190612026565b905060008111610c725760405162461bcd60e51b815260040161045890611d4c565b6000848152600360209081526040808320868452909152902054811115610cab5760405162461bcd60e51b815260040161045890611ad4565b600083815260046020908152604080832033845290915281208054839290610cd4908490611fee565b925050819055507f00000000000000000000000000000000000000000000000000000000000000006001600160a01b031663f242432a3033868589604051602001610d1f9190611943565b6040516020818303038152906040526040518663ffffffff1660e01b8152600401610d4e95949392919061184f565b600060405180830381600087803b158015610d6857600080fd5b505af1158015610d7c573d6000803e3d6000fd5b5050505050505050565b600080610d95838501856113e1565b6000818152600160205260409020600301549091508114610dc85760405162461bcd60e51b815260040161045890611b70565b60008181526001602052604090205460ff16610df65760405162461bcd60e51b815260040161045890611dcf565b60005b87811015610e6a57610e58828a8a84818110610e2557634e487b7160e01b600052603260045260246000fd5b90506020020135898985818110610e4c57634e487b7160e01b600052603260045260246000fd5b90506020020135611133565b80610e628161203d565b915050610df9565b5063bc197c8160e01b9a9950505050505050505050565b600083815260016020526040902060030154610eaf5760405162461bcd60e51b815260040161045890611ca3565b60008381526001602052604090205460ff1615610ede5760405162461bcd60e51b815260040161045890611e1b565b6000838152600160205260409020546001600160a01b038381166101009092041614610f1c5760405162461bcd60e51b815260040161045890611d7e565b60008111610f3c5760405162461bcd60e51b815260040161045890611c74565b60008381526001602052604090206006810154600590910154610f5f9083611fee565b1115610f7d5760405162461bcd60e51b815260040161045890611cd4565b60008381526001602052604081206005018054839290610f9e908490611fee565b9091555050600083815260026020908152604080832033845290915281208054839290610fcc908490611fee565b90915550506040516323b872dd60e01b81526001600160a01b038316906323b872dd906110019033903090869060040161182b565b602060405180830381600087803b15801561101b57600080fd5b505af115801561102f573d6000803e3d6000fd5b505050506040513d601f19601f8201168201806040525081019061105391906113c1565b61106f5760405162461bcd60e51b815260040161045890611bff565b505050565b600090815260016020526040902060030154151590565b60008061109a838501856113e1565b60008181526001602052604090206003015490915081146110cd5760405162461bcd60e51b815260040161045890611b70565b60008181526001602052604090205460ff166110fb5760405162461bcd60e51b815260040161045890611dcf565b611106818787611133565b5063f23a6e6160e01b979650505050505050565b6001600160e01b031981166301ffc9a760e01b14919050565b60008381526003602090815260408083208584529091528120805483929061115c908490611fee565b9091555050505050565b604080516060810182526000808252602082018190529181019190915290565b6040805161012081018252600080825260208201819052918101829052606081018290526080810182905260a0810182905260c0810182905260e081019190915261010081016111d4611166565b905290565b80356102cc8161206e565b60008083601f8401126111f5578182fd5b5081356001600160401b0381111561120b578182fd5b602083019150836020808302850101111561122557600080fd5b9250929050565b60008083601f84011261123d578182fd5b5081356001600160401b03811115611253578182fd5b60208301915083602082850101111561122557600080fd5b60006020828403121561127c578081fd5b81516112878161206e565b9392505050565b60008060008060008060008060a0898b0312156112a9578384fd5b88356112b48161206e565b975060208901356112c48161206e565b965060408901356001600160401b03808211156112df578586fd5b6112eb8c838d016111e4565b909850965060608b0135915080821115611303578586fd5b61130f8c838d016111e4565b909650945060808b0135915080821115611327578384fd5b506113348b828c0161122c565b999c989b5096995094979396929594505050565b60008060008060008060a08789031215611360578182fd5b863561136b8161206e565b9550602087013561137b8161206e565b9450604087013593506060870135925060808701356001600160401b038111156113a3578283fd5b6113af89828a0161122c565b979a9699509497509295939492505050565b6000602082840312156113d2578081fd5b81518015158114611287578182fd5b6000602082840312156113f2578081fd5b5035919050565b6000806040838503121561140b578182fd5b82359150602083013561141d8161206e565b809150509250929050565b60008060006040848603121561143c578283fd5b8335925060208401356001600160401b03811115611458578283fd5b611464868287016111e4565b9497909650939450505050565b600080600060608486031215611485578283fd5b8335925060208401356114978161206e565b929592945050506040919091013590565b600080604083850312156114ba578182fd5b50508035926020909101359150565b6000602082840312156114da578081fd5b81356001600160e01b031981168114611287578182fd5b60008060008060808587031215611506578182fd5b84356115118161206e565b935060208501356115218161206e565b93969395505050506040820135916060013590565b6001600160a01b03169052565b81835260006001600160fb1b0383111561155b578081fd5b6020830280836020870137939093016020019283525090919050565b818352602080840193600091908185020181018584845b878110156116165782840389528135609e198836030181126115ae578687fd5b87018035855260a086820135600481106115c6578889fd5b86880152604082810135908701526060808301359087015260806115ec81840184611f8c565b935082828901526116008389018583611690565b9c89019c9750505092860192505060010161158e565b5091979650505050505050565b60008284526020808501945082825b8581101561168557813587528282013560ff808216808314611652578687fd5b8986015260409150838201359081169081811461166d578687fd5b50908801526060968701969190910190600101611632565b509495945050505050565b60008284528282602086013780602084860101526020601f19601f85011685010190509392505050565b600081356116c78161206e565b6001600160a01b031683526020828101358185015260408084013581860152606080850135908601526116fd6080850185611efe565b60e0608088015261171260e088018284611543565b91505061172260a0860186611efe565b87830360a08901528083528483018582028401860183885b8481101561179957868303601f19018452813536879003603e1901811261175f578a8bfd5b8601803584526117718a820182611efe565b9150898b8601526117858a86018383611543565b958b0195945050509088019060010161173a565b50506117a860c08a018a611f45565b9750955089810360c08b01526117bf818888611623565b9a9950505050505050505050565b8051825260ff602082015116602083015260ff60408201511660408301525050565b6001600160601b0319606096871b8116825260148201959095529290941b90921660348201526048810191909152606881019190915260880190565b6001600160a01b039384168152919092166020820152604081019190915260600190565b600060018060a01b03808816835260208188168185015286604085015285606085015260a06080850152845191508160a0850152825b828110156118a15785810182015185820160c001528101611885565b828111156118b2578360c084870101525b5050601f01601f19169190910160c0019695505050505050565b6001600160a01b03929092168252602082015260400190565b901515815260200190565b89151581526001600160a01b0389811660208301528881166040830152871660608201526080810186905260a0810185905260c0810184905260e0810183905261016081016117bf6101008301846117cd565b90815260200190565b918252602082015260400190565b8481526020808201859052606060408084018290528382018590526000926080918286018783028701840189875b8a811015611a7057898303607f190184526119a3828d611fd0565b60e081356119b08161206e565b6119ba8682611536565b506119c68883016111d9565b6119d289870182611536565b506119de8783016111d9565b6119ea88870182611536565b50898201358a8601526119ff89830183611f8c565b828b880152611a118388018284611690565b9250505060a0611a2381840184611efe565b87840383890152611a35848284611577565b935050505060c0611a4881840184611fd0565b92508582038187015250611a5c81836116ba565b958801959450505090850190600101611988565b50909c9b505050505050505050505050565b6001600160e01b031991909116815260200190565b6001600160a01b0391909116815260200190565b6020808252600f908201526e496e76616c6964206164647265737360881b604082015260600190565b6020808252818101527f50726f706f73616c734875623a3a436c61696d20697320746f6f206c61726765604082015260600190565b602080825260189082015277496e636f727265637420736f6c766572206164647265737360401b604082015260600190565b6020808252601b908201527a36b9b39739b2b73232b9103737ba1039b7b63aba34b7b739a43ab160291b604082015260600190565b6020808252602a908201527f50726f706f73616c734875623a3a44617461206973206e6f742076616c6964206040820152691c1c9bdc1bdcd85b125960b21b606082015260800190565b60208082526025908201527f436f6d6d69747465642066756e6473206973206c6f776572207468616e20616d60408201526437bab73a1760d91b606082015260800190565b60208082526022908201527f436f756c64206e6f74207472616e736665722066726f6d206d73672e73656e6460408201526132b960f11b606082015260800190565b602080825260199082015278141c9bdc1bdcd85b081b9bdd08199d5b1b1e48199d5b991959603a1b604082015260600190565b602080825260159082015274416d6f756e742063616e6e6f74206265207a65726f60581b604082015260600190565b602080825260179082015276141c9bdc1bdcd85b08191bd95cc81b9bdd08195e1a5cdd604a1b604082015260600190565b60208082526019908201527810d85b89dd08199d5b99081b5bdc99481d1a185b8819dbd85b603a1b604082015260600190565b60208082526025908201527f50726f706f73616c734875623a3a6d73672e73656e64657220686173206e6f20604082015264636c61696d60d81b606082015260800190565b602080825260189082015277050726f706f73616c734875623a3a436c61696d20697320360441b604082015260600190565b60208082526031908201527f50726f706f73616c20646f6573206e6f7420696e636c756465207468697320746040820152701bdad95b881d1bc8189948199d5b991959607a1b606082015260800190565b6020808252602c908201527f50726f706f73616c734875623a3a50726f706f73616c20686173206e6f74206260408201526b19595b88195e1958dd5d195960a21b606082015260800190565b60208082526027908201527f50726f706f73616c734875623a3a50726f706f73616c20616c726561647920656040820152661e1958dd5d195960ca1b606082015260800190565b60608101611e7082846117cd565b92915050565b8151151581526020808301516001600160a01b031690820152604080830151610160830191611ea790840182611536565b506060830151611eba6060840182611536565b506080830151608083015260a083015160a083015260c083015160c083015260e083015160e083015261010080840151611ef6828501826117cd565b505092915050565b6000808335601e19843603018112611f14578283fd5b83016020810192503590506001600160401b03811115611f3357600080fd5b60208102360383131561122557600080fd5b6000808335601e19843603018112611f5b578283fd5b83016020810192503590506001600160401b03811115611f7a57600080fd5b60608102360383131561122557600080fd5b6000808335601e19843603018112611fa2578283fd5b83016020810192503590506001600160401b03811115611fc157600080fd5b80360383131561122557600080fd5b6000823560de19833603018112611fe5578182fd5b90910192915050565b6000821982111561200157612001612058565b500190565b60008261202157634e487b7160e01b81526012600452602481fd5b500490565b60008282101561203857612038612058565b500390565b600060001982141561205157612051612058565b5060010190565b634e487b7160e01b600052601160045260246000fd5b6001600160a01b038116811461208357600080fd5b5056fe3a5a0357f01e19a1531e65bfe13d63c64c9ae8f03d8c26ae74b1e2929a4f3966a26469706673582212206c919b17804fce1b06e4ef4a807627d0c08baa8f37a3d132b24d2168cc18b5d564736f6c63430008000033",
  "linkReferences": {},
  "deployedLinkReferences": {}
}