{
  "_format": "hh-sol-artifact-1",
  "contractName": "BasicArbitrator",
  "sourceName": "contracts/BasicArbitrator.sol",
  "abi": [
    {
      "inputs": [],
      "stateMutability": "nonpayable",
      "type": "constructor"
    },
    {
      "anonymous": false,
      "inputs": [
        {
          "indexed": false,
          "internalType": "uint8",
          "name": "version",
          "type": "uint8"
        }
      ],
      "name": "Initialized",
      "type": "event"
    },
    {
      "anonymous": false,
      "inputs": [
        {
          "indexed": true,
          "internalType": "address",
          "name": "previousOwner",
          "type": "address"
        },
        {
          "indexed": true,
          "internalType": "address",
          "name": "newOwner",
          "type": "address"
        }
      ],
      "name": "OwnershipTransferred",
      "type": "event"
    },
    {
      "anonymous": false,
      "inputs": [
        {
          "indexed": true,
          "internalType": "address",
          "name": "to",
          "type": "address"
        },
        {
          "indexed": false,
          "internalType": "uint256",
          "name": "amount",
          "type": "uint256"
        }
      ],
      "name": "Withdrawal",
      "type": "event"
    },
    {
      "inputs": [
        {
          "internalType": "bytes32",
          "name": "disputeId",
          "type": "bytes32"
        },
        {
          "internalType": "uint256",
          "name": "choice",
          "type": "uint256"
        }
      ],
      "name": "arbitrate",
      "outputs": [],
      "stateMutability": "nonpayable",
      "type": "function"
    },
    {
      "inputs": [
        {
          "internalType": "bytes32",
          "name": "disputeId",
          "type": "bytes32"
        }
      ],
      "name": "arbitrateNull",
      "outputs": [],
      "stateMutability": "nonpayable",
      "type": "function"
    },
    {
      "inputs": [
        {
          "internalType": "address",
          "name": "",
          "type": "address"
        }
      ],
      "name": "balances",
      "outputs": [
        {
          "internalType": "uint256",
          "name": "",
          "type": "uint256"
        }
      ],
      "stateMutability": "view",
      "type": "function"
    },
    {
      "inputs": [
        {
          "internalType": "bytes32",
          "name": "disputeId",
          "type": "bytes32"
        }
      ],
      "name": "claimLapse",
      "outputs": [],
      "stateMutability": "nonpayable",
      "type": "function"
    },
    {
      "inputs": [
        {
          "internalType": "bytes32",
          "name": "disputeId",
          "type": "bytes32"
        },
        {
          "internalType": "uint256",
          "name": "extraTime",
          "type": "uint256"
        }
      ],
      "name": "extendLapse",
      "outputs": [],
      "stateMutability": "nonpayable",
      "type": "function"
    },
    {
      "inputs": [],
      "name": "fee",
      "outputs": [
        {
          "internalType": "uint256",
          "name": "",
          "type": "uint256"
        }
      ],
      "stateMutability": "view",
      "type": "function"
    },
    {
      "inputs": [
        {
          "internalType": "bytes32",
          "name": "disputeId",
          "type": "bytes32"
        }
      ],
      "name": "getDispute",
      "outputs": [
        {
          "components": [
            {
              "internalType": "contract ISolver",
              "name": "solver",
              "type": "address"
            },
            {
              "internalType": "uint256",
              "name": "conditionIndex",
              "type": "uint256"
            },
            {
              "internalType": "uint256",
              "name": "fee",
              "type": "uint256"
            },
            {
              "internalType": "uint256",
              "name": "lapse",
              "type": "uint256"
            },
            {
              "internalType": "bytes32",
              "name": "id",
              "type": "bytes32"
            },
            {
              "internalType": "address[]",
              "name": "disputers",
              "type": "address[]"
            },
            {
              "internalType": "uint256[][]",
              "name": "choices",
              "type": "uint256[][]"
            }
          ],
          "internalType": "struct BasicArbitrator.Dispute",
          "name": "dispute",
          "type": "tuple"
        }
      ],
      "stateMutability": "view",
      "type": "function"
    },
    {
      "inputs": [
        {
          "internalType": "bytes32",
          "name": "disputeId",
          "type": "bytes32"
        }
      ],
      "name": "getFee",
      "outputs": [
        {
          "internalType": "uint256",
          "name": "",
          "type": "uint256"
        }
      ],
      "stateMutability": "view",
      "type": "function"
    },
    {
      "inputs": [
        {
          "internalType": "bytes32",
          "name": "disputeId",
          "type": "bytes32"
        }
      ],
      "name": "getTimelock",
      "outputs": [
        {
          "internalType": "uint256",
          "name": "timelock",
          "type": "uint256"
        }
      ],
      "stateMutability": "view",
      "type": "function"
    },
    {
      "inputs": [
        {
          "internalType": "bytes",
          "name": "initParams",
          "type": "bytes"
        }
      ],
      "name": "init",
      "outputs": [],
      "stateMutability": "nonpayable",
      "type": "function"
    },
    {
      "inputs": [
        {
          "internalType": "bytes32",
          "name": "disputeId",
          "type": "bytes32"
        }
      ],
      "name": "isLapsed",
      "outputs": [
        {
          "internalType": "bool",
          "name": "",
          "type": "bool"
        }
      ],
      "stateMutability": "view",
      "type": "function"
    },
    {
      "inputs": [],
      "name": "lapse",
      "outputs": [
        {
          "internalType": "uint256",
          "name": "",
          "type": "uint256"
        }
      ],
      "stateMutability": "view",
      "type": "function"
    },
    {
      "inputs": [],
      "name": "owner",
      "outputs": [
        {
          "internalType": "address",
          "name": "",
          "type": "address"
        }
      ],
      "stateMutability": "view",
      "type": "function"
    },
    {
      "inputs": [],
      "name": "renounceOwnership",
      "outputs": [],
      "stateMutability": "nonpayable",
      "type": "function"
    },
    {
      "inputs": [
        {
          "internalType": "contract ISolver",
          "name": "solver",
          "type": "address"
        },
        {
          "internalType": "uint256",
          "name": "conditionIndex",
          "type": "uint256"
        },
        {
          "internalType": "uint256[]",
          "name": "desiredOutcome",
          "type": "uint256[]"
        }
      ],
      "name": "requestArbitration",
      "outputs": [],
      "stateMutability": "payable",
      "type": "function"
    },
    {
      "inputs": [
        {
          "internalType": "uint256",
          "name": "_fee",
          "type": "uint256"
        }
      ],
      "name": "setFee",
      "outputs": [],
      "stateMutability": "nonpayable",
      "type": "function"
    },
    {
      "inputs": [
        {
          "internalType": "uint256",
          "name": "_lapse",
          "type": "uint256"
        }
      ],
      "name": "setLapse",
      "outputs": [],
      "stateMutability": "nonpayable",
      "type": "function"
    },
    {
      "inputs": [
        {
          "internalType": "address",
          "name": "newOwner",
          "type": "address"
        }
      ],
      "name": "transferOwnership",
      "outputs": [],
      "stateMutability": "nonpayable",
      "type": "function"
    },
    {
      "inputs": [],
      "name": "withdraw",
      "outputs": [],
      "stateMutability": "nonpayable",
      "type": "function"
    },
    {
      "stateMutability": "payable",
      "type": "receive"
    }
  ],
  "bytecode": "0x60806040523480156200001157600080fd5b5060016065556200002162000027565b62000140565b6200003360ff62000036565b50565b60008054610100900460ff16156200009f578160ff1660011480156200006f57506200006d30620000e360201b620017691760201c565b155b620000975760405162461bcd60e51b81526004016200008e90620000f2565b60405180910390fd5b506000919050565b60005460ff808416911610620000c95760405162461bcd60e51b81526004016200008e90620000f2565b506000805460ff191660ff92909216919091179055600190565b6001600160a01b03163b151590565b6020808252602e908201527f496e697469616c697a61626c653a20636f6e747261637420697320616c72656160408201526d191e481a5b9a5d1a585b1a5e995960921b606082015260800190565b61234880620001506000396000f3fe6080604052600436106100e85760003560e01c8063136ba6aa14610136578063222cdce11461016c57806327e235e31461018e5780633ccfd60b146101c95780634ddf47d4146101de5780635746c245146101fe57806369fe0e2d1461021e578063715018a61461023e57806379a55806146102535780637f6e7d2f146102735780638da5cb5b14610289578063b126bd32146102b6578063cb2e7212146102d6578063ddca3f43146102f6578063e5f3d3a51461030c578063ed1b5b001461032c578063f2fde38b1461035c578063f5e35bb81461037c578063fb45d1341461038f57600080fd5b366101315734606860006100fa6103af565b6001600160a01b03166001600160a01b0316815260200190815260200160002060008282546101299190611bdd565b925050819055005b600080fd5b34801561014257600080fd5b50610156610151366004611bf5565b6103be565b6040516101639190611c8d565b60405180910390f35b34801561017857600080fd5b5061018c610187366004611d3e565b610558565b005b34801561019a57600080fd5b506101bb6101a9366004611d75565b60686020526000908152604090205481565b604051908152602001610163565b3480156101d557600080fd5b5061018c61060a565b3480156101ea57600080fd5b5061018c6101f9366004611d99565b61079a565b34801561020a57600080fd5b5061018c610219366004611bf5565b61083e565b34801561022a57600080fd5b5061018c610239366004611bf5565b6108bb565b34801561024a57600080fd5b5061018c6108ef565b34801561025f57600080fd5b506101bb61026e366004611bf5565b61092a565b34801561027f57600080fd5b506101bb60675481565b34801561029557600080fd5b5061029e6103af565b6040516001600160a01b039091168152602001610163565b3480156102c257600080fd5b5061018c6102d1366004611bf5565b6109af565b3480156102e257600080fd5b5061018c6102f1366004611d3e565b610b55565b34801561030257600080fd5b506101bb60665481565b34801561031857600080fd5b506101bb610327366004611bf5565b610dd5565b34801561033857600080fd5b5061034c610347366004611bf5565b610e0f565b6040519015158152602001610163565b34801561036857600080fd5b5061018c610377366004611d75565b610e3e565b61018c61038a366004611e0a565b610ede565b34801561039b57600080fd5b5061018c6103aa366004611bf5565b61140b565b6033546001600160a01b031690565b61040a6040518060e0016040528060006001600160a01b031681526020016000815260200160008152602001600081526020016000801916815260200160608152602001606081525090565b600082815260696020908152604091829020825160e08101845281546001600160a01b0316815260018201548184015260028201548185015260038201546060820152600482015460808201526005820180548551818602810186019096528086529194929360a086019392908301828280156104b057602002820191906000526020600020905b81546001600160a01b03168152600190910190602001808311610492575b5050505050815260200160068201805480602002602001604051908101604052809291908181526020016000905b8282101561054a5760008481526020908190208301805460408051828502810185019091528181529283018282801561053657602002820191906000526020600020905b815481526020019060010190808311610522575b5050505050815260200190600101906104de565b505050915250909392505050565b336105616103af565b6001600160a01b0316146105905760405162461bcd60e51b815260040161058790611e95565b60405180910390fd5b6000828152606960205260409020600401546105e05760405162461bcd60e51b815260206004820152600f60248201526e496e76616c6964206469737075746560881b6044820152606401610587565b60008281526069602052604081206003018054839290610601908490611bdd565b90915550505050565b60026065540361065c5760405162461bcd60e51b815260206004820152601f60248201527f5265656e7472616e637947756172643a207265656e7472616e742063616c6c006044820152606401610587565b6002606555336000908152606860205260409020546106aa5760405162461bcd60e51b815260206004820152600a6024820152694e6f2062616c616e636560b01b6044820152606401610587565b3360009081526068602052604081208054918291906106c98380611eca565b90915550506040516000908190339084908381818185875af1925050503d8060008114610712576040519150601f19603f3d011682016040523d82523d6000602084013e610717565b606091505b50915091508161075b5760405162461bcd60e51b815260206004820152600f60248201526e151c985b9cd9995c8819985a5b1959608a1b6044820152606401610587565b60405183815233907f7fcf532c15f0a6db0bd6d0e038bea71d30d808c7d98cb3bf7268a95bf5081b659060200160405180910390a25050600160655550565b60006107a66001611778565b905080156107be576000805461ff0019166101001790555b600080806107ce85870187611ee1565b60668290556067819055919450925090506107e7611807565b6107f083610e3e565b5050508015610839576000805461ff0019169055604051600181527f7f26b83ff96e1f2b6a682f133852f6798a09c465da95921460cefb38474024989060200160405180910390a15b505050565b336108476103af565b6001600160a01b03161461086d5760405162461bcd60e51b815260040161058790611e95565b600081116108b65760405162461bcd60e51b81526020600482015260166024820152754c617073652063616e6e6f742062652030206461797360501b6044820152606401610587565b606755565b336108c46103af565b6001600160a01b0316146108ea5760405162461bcd60e51b815260040161058790611e95565b606655565b336108f86103af565b6001600160a01b03161461091e5760405162461bcd60e51b815260040161058790611e95565b6109286000611836565b565b60008181526069602052604080822080546001909101549151630d7e149f60e01b815260048101929092526001600160a01b031690630d7e149f90602401602060405180830381865afa158015610985573d6000803e3d6000fd5b505050506040513d601f19601f820116820180604052508101906109a99190611f16565b92915050565b336109b86103af565b6001600160a01b0316146109de5760405162461bcd60e51b815260040161058790611e95565b60008181526069602052604090206004810154829190610a105760405162461bcd60e51b815260040161058790611f2f565b80546001820154604051632e31150760e11b815260048101919091526003916001600160a01b031690635c622a0e90602401602060405180830381865afa158015610a5f573d6000803e3d6000fd5b505050506040513d601f19601f82011682018060405250810190610a839190611f7d565b6005811115610a9457610a94611f58565b14610ab15760405162461bcd60e51b815260040161058790611f98565b60008381526069602052604090819020805460018201549251634e46f22360e01b815291926001600160a01b0390911691634e46f22391610af89160040190815260200190565b600060405180830381600087803b158015610b1257600080fd5b505af1158015610b26573d6000803e3d6000fd5b50505050610b3384611888565b610b41600582016000611ad3565b610b4f600682016000611af1565b50505050565b33610b5e6103af565b6001600160a01b031614610b845760405162461bcd60e51b815260040161058790611e95565b60008281526069602052604090206004810154839190610bb65760405162461bcd60e51b815260040161058790611f2f565b80546001820154604051632e31150760e11b815260048101919091526003916001600160a01b031690635c622a0e90602401602060405180830381865afa158015610c05573d6000803e3d6000fd5b505050506040513d601f19601f82011682018060405250810190610c299190611f7d565b6005811115610c3a57610c3a611f58565b14610c575760405162461bcd60e51b815260040161058790611f98565b600084815260696020526040902060048101548514610c885760405162461bcd60e51b815260040161058790611f2f565b80546001820154604051630d7e149f60e01b81526001600160a01b0390921691630d7e149f91610cbe9160040190815260200190565b602060405180830381865afa158015610cdb573d6000803e3d6000fd5b505050506040513d601f19601f82011682018060405250810190610cff9190611f16565b4211610d3a5760405162461bcd60e51b815260206004820152600a602482015269151a5b595b1bd8dad95960b21b6044820152606401610587565b805460018201546006830180546001600160a01b03909316926387dfee5792919088908110610d6b57610d6b611fcb565b906000526020600020016040518363ffffffff1660e01b8152600401610d92929190612021565b600060405180830381600087803b158015610dac57600080fd5b505af1158015610dc0573d6000803e3d6000fd5b50505050610dce858561190f565b5050505050565b60008181526069602052604081206004015415610e02575060009081526069602052604090206002015490565b505060665490565b919050565b6000610e1a8261092a565b600083815260696020526040902060030154610e369190611bdd565b421192915050565b33610e476103af565b6001600160a01b031614610e6d5760405162461bcd60e51b815260040161058790611e95565b6001600160a01b038116610ed25760405162461bcd60e51b815260206004820152602660248201527f4f776e61626c653a206e6577206f776e657220697320746865207a65726f206160448201526564647265737360d01b6064820152608401610587565b610edb81611836565b50565b6000846001600160a01b0316636cc6cde16040518163ffffffff1660e01b8152600401602060405180830381865afa158015610f1e573d6000803e3d6000fd5b505050506040513d601f19601f82011682018060405250810190610f429190612042565b90506001600160a01b0381163014610f8f5760405162461bcd60e51b815260206004820152601060248201526f2bb937b7339030b93134ba3930ba37b960811b6044820152606401610587565b604051632e31150760e11b8152600481018590526000906001600160a01b03871690635c622a0e90602401602060405180830381865afa158015610fd7573d6000803e3d6000fd5b505050506040513d601f19601f82011682018060405250810190610ffb9190611f7d565b9050600281600581111561101157611011611f58565b148061102e5750600381600581111561102c5761102c611f58565b145b61108b5760405162461bcd60e51b815260206004820152602860248201527f436f6e646974696f6e2073746174757320696e76616c696420666f722061726260448201526734ba3930ba34b7b760c11b6064820152608401610587565b604051630d7e149f60e01b8152600481018690526001600160a01b03871690630d7e149f90602401602060405180830381865afa1580156110d0573d6000803e3d6000fd5b505050506040513d601f19601f820116820180604052508101906110f49190611f16565b42106111355760405162461bcd60e51b815260206004820152601060248201526f151a5b595b1bd8dac8195b185c1cd95960821b6044820152606401610587565b604080516001600160a01b038816602082015290810186905260009060600160405160208183030381529060405280519060200120905061117581610dd5565b3410156111b75760405162461bcd60e51b815260206004820152601060248201526f496e73756666696369656e742066656560801b6044820152606401610587565b6066546111c49034611eca565b33600090815260686020526040812080549091906111e3908490611bdd565b90915550506000818152606960205260409020600481015461136157600481810183905581546001600160a01b0319166001600160a01b038a16908117835560018301899055606654600284015560675460038401556040805163aced166160e01b81529051600585019363aced1661928082019260209290918290030181865afa158015611276573d6000803e3d6000fd5b505050506040513d601f19601f8201168201806040525081019061129a9190612042565b81546001810183556000928352602083200180546001600160a01b0319166001600160a01b0392831617905560405163f24fc90360e01b8152600481018a9052908a169063f24fc90390602401600060405180830381865afa158015611304573d6000803e3d6000fd5b505050506040513d6000823e601f3d908101601f1916820160405261132c91908101906120cd565b60808101516006840180546001810182556000918252602091829020835194955061135e949101929190910190611b0f565b50505b600581018054600181810183556000928352602080842090920180546001600160a01b031916331790556006840180549182018155835291206113a691018787611b5a565b50604051634dab5e6960e01b8152600481018890526001600160a01b03891690634dab5e6990602401600060405180830381600087803b1580156113e957600080fd5b505af11580156113fd573d6000803e3d6000fd5b505050505050505050505050565b6000818152606960205260409020600481015482919061143d5760405162461bcd60e51b815260040161058790611f2f565b80546001820154604051632e31150760e11b815260048101919091526003916001600160a01b031690635c622a0e90602401602060405180830381865afa15801561148c573d6000803e3d6000fd5b505050506040513d601f19601f820116820180604052508101906114b09190611f7d565b60058111156114c1576114c1611f58565b146114de5760405162461bcd60e51b815260040161058790611f98565b6000838152606960209081526040808320815160e08101835281546001600160a01b0316815260018201548185015260028201548184015260038201546060820152600482015460808201526005820180548451818702810187019095528085529194929360a086019390929083018282801561158457602002820191906000526020600020905b81546001600160a01b03168152600190910190602001808311611566575b5050505050815260200160068201805480602002602001604051908101604052809291908181526020016000905b8282101561161e5760008481526020908190208301805460408051828502810185019091528181529283018282801561160a57602002820191906000526020600020905b8154815260200190600101908083116115f6575b5050505050815260200190600101906115b2565b5050505081525050905061163184610e0f565b61166a5760405162461bcd60e51b815260206004820152600a602482015269139bdd081b185c1cd95960b21b6044820152606401610587565b60008481526069602090815260408083205491840151905163f24fc90360e01b81526001600160a01b039092169163f24fc903916116ae9160040190815260200190565b600060405180830381865afa1580156116cb573d6000803e3d6000fd5b505050506040513d6000823e601f3d908101601f191682016040526116f391908101906120cd565b8251602084015160808301516040516387dfee5760e01b81529394506001600160a01b03909216926387dfee579261172e92916004016121e0565b600060405180830381600087803b15801561174857600080fd5b505af115801561175c573d6000803e3d6000fd5b50505050610dce85611888565b6001600160a01b03163b151590565b60008054610100900460ff16156117c6578160ff1660011480156117a257506117a030611769565b155b6117be5760405162461bcd60e51b81526004016105879061222e565b506000919050565b60005460ff8084169116106117ed5760405162461bcd60e51b81526004016105879061222e565b506000805460ff191660ff92909216919091179055600190565b600054610100900460ff1661182e5760405162461bcd60e51b81526004016105879061227c565b610928611aa3565b603380546001600160a01b038381166001600160a01b0319831681179093556040519116919082907f8be0079c531659141344cd1fd0a4f28419497f9722a3daafe3b4186f6b6457e090600090a35050565b600081815260696020526040902060015b6005820154811015610839578160020154606860008460050184815481106118c3576118c3611fcb565b60009182526020808320909101546001600160a01b03168352820192909252604001812080549091906118f7908490611bdd565b90915550819050611907816122c7565b915050611899565b6000828152606960205260408120600581015490919061193190600190611eca565b826002015461194091906122e0565b905060015b6005830154811015611a5b5782600601848154811061196657611966611fcb565b9060005260206000200160405160200161198091906122ff565b604051602081830303815290604052805190602001208360060182815481106119ab576119ab611fcb565b906000526020600020016040516020016119c591906122ff565b6040516020818303038152906040528051906020012003611a49578260020154606860008560050184815481106119fe576119fe611fcb565b60009182526020808320909101546001600160a01b0316835282019290925260400181208054909190611a32908490611bdd565b90915550506002830154611a469083611eca565b91505b80611a53816122c7565b915050611945565b508060686000611a696103af565b6001600160a01b03166001600160a01b031681526020019081526020016000206000828254611a989190611bdd565b909155505050505050565b600054610100900460ff16611aca5760405162461bcd60e51b81526004016105879061227c565b61092833611836565b5080546000825590600052602060002090810190610edb9190611b95565b5080546000825590600052602060002090810190610edb9190611baa565b828054828255906000526020600020908101928215611b4a579160200282015b82811115611b4a578251825591602001919060010190611b2f565b50611b56929150611b95565b5090565b828054828255906000526020600020908101928215611b4a579160200282015b82811115611b4a578235825591602001919060010190611b7a565b5b80821115611b565760008155600101611b96565b80821115611b56576000611bbe8282611ad3565b50600101611baa565b634e487b7160e01b600052601160045260246000fd5b60008219821115611bf057611bf0611bc7565b500190565b600060208284031215611c0757600080fd5b5035919050565b600082825180855260208086019550808260051b8401018186016000805b85811015611c7f57868403601f19018a52825180518086529086019086860190845b81811015611c6a57835183529288019291880191600101611c4e565b50509a86019a94505091840191600101611c2c565b509198975050505050505050565b60006020808352610100830160018060a01b0380865116838601528286015160408601526040860151606086015260608601516080860152608086015160a086015260a086015160e060c0870152828151808552610120880191508583019450600092505b80831015611d1457845184168252938501936001929092019190850190611cf2565b5060c0880151878203601f190160e08901529450611d328186611c0e565b98975050505050505050565b60008060408385031215611d5157600080fd5b50508035926020909101359150565b6001600160a01b0381168114610edb57600080fd5b600060208284031215611d8757600080fd5b8135611d9281611d60565b9392505050565b60008060208385031215611dac57600080fd5b82356001600160401b0380821115611dc357600080fd5b818501915085601f830112611dd757600080fd5b813581811115611de657600080fd5b866020828501011115611df857600080fd5b60209290920196919550909350505050565b60008060008060608587031215611e2057600080fd5b8435611e2b81611d60565b93506020850135925060408501356001600160401b0380821115611e4e57600080fd5b818701915087601f830112611e6257600080fd5b813581811115611e7157600080fd5b8860208260051b8501011115611e8657600080fd5b95989497505060200194505050565b6020808252818101527f4f776e61626c653a2063616c6c6572206973206e6f7420746865206f776e6572604082015260600190565b600082821015611edc57611edc611bc7565b500390565b600080600060608486031215611ef657600080fd5b8335611f0181611d60565b95602085013595506040909401359392505050565b600060208284031215611f2857600080fd5b5051919050565b6020808252600f908201526e496e76616c6964204469737075746560881b604082015260600190565b634e487b7160e01b600052602160045260246000fd5b805160068110610e0a57600080fd5b600060208284031215611f8f57600080fd5b611d9282611f6e565b602080825260199082015278105c989a5d1c985d1a5bdb881b9bdd081c995c5d595cdd1959603a1b604082015260600190565b634e487b7160e01b600052603260045260246000fd5b6000815480845260208085019450836000528060002060005b8381101561201657815487529582019560019182019101611ffa565b509495945050505050565b82815260406020820152600061203a6040830184611fe1565b949350505050565b60006020828403121561205457600080fd5b8151611d9281611d60565b634e487b7160e01b600052604160045260246000fd5b60405160c081016001600160401b03811182821017156120975761209761205f565b60405290565b604051601f8201601f191681016001600160401b03811182821017156120c5576120c561205f565b604052919050565b600060208083850312156120e057600080fd5b82516001600160401b03808211156120f757600080fd5b9084019060c0828703121561210b57600080fd5b612113612075565b825161211e81611d60565b808252508383015184820152604083015160408201526060830151606082015260808301518281111561215057600080fd5b8301601f8101881361216157600080fd5b8051838111156121735761217361205f565b8060051b935061218486850161209d565b818152938201860193868101908a86111561219e57600080fd5b928701925b858410156121bc578351825292870192908701906121a3565b6080850152506121d191505060a08401611f6e565b60a08201529695505050505050565b6000604082018483526020604081850152818551808452606086019150828701935060005b8181101561222157845183529383019391830191600101612205565b5090979650505050505050565b6020808252602e908201527f496e697469616c697a61626c653a20636f6e747261637420697320616c72656160408201526d191e481a5b9a5d1a585b1a5e995960921b606082015260800190565b6020808252602b908201527f496e697469616c697a61626c653a20636f6e7472616374206973206e6f74206960408201526a6e697469616c697a696e6760a81b606082015260800190565b6000600182016122d9576122d9611bc7565b5060010190565b60008160001904831182151516156122fa576122fa611bc7565b500290565b602081526000611d926020830184611fe156fea2646970667358221220cb4b7e06b04cc59b9716b0fce733fe1ecb57588e0d57736b6e27fef0921a85ff64736f6c634300080d0033",
  "linkReferences": {},
  "deployedLinkReferences": {}
}