{
  "_format": "hh-sol-artifact-1",
  "contractName": "BasicArbitrator",
  "sourceName": "contracts/BasicArbitrator.sol",
  "abi": [
    {
      "inputs": [],
      "stateMutability": "nonpayable",
      "type": "constructor"
    },
    {
      "anonymous": false,
      "inputs": [
        {
          "indexed": false,
          "internalType": "uint8",
          "name": "version",
          "type": "uint8"
        }
      ],
      "name": "Initialized",
      "type": "event"
    },
    {
      "anonymous": false,
      "inputs": [
        {
          "indexed": true,
          "internalType": "address",
          "name": "previousOwner",
          "type": "address"
        },
        {
          "indexed": true,
          "internalType": "address",
          "name": "newOwner",
          "type": "address"
        }
      ],
      "name": "OwnershipTransferred",
      "type": "event"
    },
    {
      "anonymous": false,
      "inputs": [
        {
          "indexed": false,
          "internalType": "address",
          "name": "account",
          "type": "address"
        }
      ],
      "name": "Paused",
      "type": "event"
    },
    {
      "anonymous": false,
      "inputs": [
        {
          "indexed": false,
          "internalType": "address",
          "name": "account",
          "type": "address"
        }
      ],
      "name": "Unpaused",
      "type": "event"
    },
    {
      "anonymous": false,
      "inputs": [
        {
          "indexed": true,
          "internalType": "address",
          "name": "to",
          "type": "address"
        },
        {
          "indexed": false,
          "internalType": "uint256",
          "name": "amount",
          "type": "uint256"
        }
      ],
      "name": "Withdrawal",
      "type": "event"
    },
    {
      "inputs": [
        {
          "internalType": "bytes32",
          "name": "disputeId",
          "type": "bytes32"
        },
        {
          "internalType": "uint256",
          "name": "choice",
          "type": "uint256"
        }
      ],
      "name": "arbitrate",
      "outputs": [],
      "stateMutability": "nonpayable",
      "type": "function"
    },
    {
      "inputs": [
        {
          "internalType": "bytes32",
          "name": "disputeId",
          "type": "bytes32"
        }
      ],
      "name": "arbitrateNull",
      "outputs": [],
      "stateMutability": "nonpayable",
      "type": "function"
    },
    {
      "inputs": [
        {
          "internalType": "address",
          "name": "",
          "type": "address"
        }
      ],
      "name": "balances",
      "outputs": [
        {
          "internalType": "uint256",
          "name": "",
          "type": "uint256"
        }
      ],
      "stateMutability": "view",
      "type": "function"
    },
    {
      "inputs": [
        {
          "internalType": "bytes32",
          "name": "disputeId",
          "type": "bytes32"
        }
      ],
      "name": "claimLapse",
      "outputs": [],
      "stateMutability": "nonpayable",
      "type": "function"
    },
    {
      "inputs": [
        {
          "internalType": "bytes32",
          "name": "disputeId",
          "type": "bytes32"
        },
        {
          "internalType": "uint256",
          "name": "extraTime",
          "type": "uint256"
        }
      ],
      "name": "extendLapse",
      "outputs": [],
      "stateMutability": "nonpayable",
      "type": "function"
    },
    {
      "inputs": [],
      "name": "fee",
      "outputs": [
        {
          "internalType": "uint256",
          "name": "",
          "type": "uint256"
        }
      ],
      "stateMutability": "view",
      "type": "function"
    },
    {
      "inputs": [
        {
          "internalType": "bytes32",
          "name": "disputeId",
          "type": "bytes32"
        }
      ],
      "name": "getDispute",
      "outputs": [
        {
          "components": [
            {
              "internalType": "contract ISolver",
              "name": "solver",
              "type": "address"
            },
            {
              "internalType": "uint256",
              "name": "conditionIndex",
              "type": "uint256"
            },
            {
              "internalType": "uint256",
              "name": "fee",
              "type": "uint256"
            },
            {
              "internalType": "uint256",
              "name": "lapse",
              "type": "uint256"
            },
            {
              "internalType": "bytes32",
              "name": "id",
              "type": "bytes32"
            },
            {
              "internalType": "address[]",
              "name": "disputers",
              "type": "address[]"
            },
            {
              "internalType": "uint256[][]",
              "name": "choices",
              "type": "uint256[][]"
            }
          ],
          "internalType": "struct BasicArbitrator.Dispute",
          "name": "dispute",
          "type": "tuple"
        }
      ],
      "stateMutability": "view",
      "type": "function"
    },
    {
      "inputs": [
        {
          "internalType": "bytes32",
          "name": "disputeId",
          "type": "bytes32"
        }
      ],
      "name": "getFee",
      "outputs": [
        {
          "internalType": "uint256",
          "name": "",
          "type": "uint256"
        }
      ],
      "stateMutability": "view",
      "type": "function"
    },
    {
      "inputs": [
        {
          "internalType": "bytes32",
          "name": "disputeId",
          "type": "bytes32"
        }
      ],
      "name": "getTimelock",
      "outputs": [
        {
          "internalType": "uint256",
          "name": "timelock",
          "type": "uint256"
        }
      ],
      "stateMutability": "view",
      "type": "function"
    },
    {
      "inputs": [
        {
          "internalType": "bytes",
          "name": "initParams",
          "type": "bytes"
        }
      ],
      "name": "init",
      "outputs": [],
      "stateMutability": "nonpayable",
      "type": "function"
    },
    {
      "inputs": [
        {
          "internalType": "bytes32",
          "name": "disputeId",
          "type": "bytes32"
        }
      ],
      "name": "isLapsed",
      "outputs": [
        {
          "internalType": "bool",
          "name": "",
          "type": "bool"
        }
      ],
      "stateMutability": "view",
      "type": "function"
    },
    {
      "inputs": [],
      "name": "lapse",
      "outputs": [
        {
          "internalType": "uint256",
          "name": "",
          "type": "uint256"
        }
      ],
      "stateMutability": "view",
      "type": "function"
    },
    {
      "inputs": [],
      "name": "owner",
      "outputs": [
        {
          "internalType": "address",
          "name": "",
          "type": "address"
        }
      ],
      "stateMutability": "view",
      "type": "function"
    },
    {
      "inputs": [],
      "name": "paused",
      "outputs": [
        {
          "internalType": "bool",
          "name": "",
          "type": "bool"
        }
      ],
      "stateMutability": "view",
      "type": "function"
    },
    {
      "inputs": [],
      "name": "renounceOwnership",
      "outputs": [],
      "stateMutability": "nonpayable",
      "type": "function"
    },
    {
      "inputs": [
        {
          "internalType": "contract ISolver",
          "name": "solver",
          "type": "address"
        },
        {
          "internalType": "uint256",
          "name": "conditionIndex",
          "type": "uint256"
        },
        {
          "internalType": "uint256[]",
          "name": "desiredOutcome",
          "type": "uint256[]"
        }
      ],
      "name": "requestArbitration",
      "outputs": [],
      "stateMutability": "payable",
      "type": "function"
    },
    {
      "inputs": [
        {
          "internalType": "uint256",
          "name": "_fee",
          "type": "uint256"
        }
      ],
      "name": "setFee",
      "outputs": [],
      "stateMutability": "nonpayable",
      "type": "function"
    },
    {
      "inputs": [
        {
          "internalType": "uint256",
          "name": "_lapse",
          "type": "uint256"
        }
      ],
      "name": "setLapse",
      "outputs": [],
      "stateMutability": "nonpayable",
      "type": "function"
    },
    {
      "inputs": [
        {
          "internalType": "address",
          "name": "newOwner",
          "type": "address"
        }
      ],
      "name": "transferOwnership",
      "outputs": [],
      "stateMutability": "nonpayable",
      "type": "function"
    },
    {
      "inputs": [],
      "name": "withdraw",
      "outputs": [],
      "stateMutability": "nonpayable",
      "type": "function"
    },
    {
      "stateMutability": "payable",
      "type": "receive"
    }
  ],
  "bytecode": "0x60806040523480156200001157600080fd5b5060016065556200002162000027565b62000140565b6200003360ff62000036565b50565b60008054610100900460ff16156200009f578160ff1660011480156200006f57506200006d30620000e360201b620017881760201c565b155b620000975760405162461bcd60e51b81526004016200008e90620000f2565b60405180910390fd5b506000919050565b60005460ff808416911610620000c95760405162461bcd60e51b81526004016200008e90620000f2565b506000805460ff191660ff92909216919091179055600190565b6001600160a01b03163b151590565b6020808252602e908201527f496e697469616c697a61626c653a20636f6e747261637420697320616c72656160408201526d191e481a5b9a5d1a585b1a5e995960921b606082015260800190565b61236780620001506000396000f3fe6080604052600436106100f35760003560e01c8063136ba6aa14610141578063222cdce11461017757806327e235e3146101995780633ccfd60b146101d45780634ddf47d4146101e95780635746c245146102095780635c975abb1461022957806369fe0e2d1461024d578063715018a61461026d57806379a55806146102825780637f6e7d2f146102a25780638da5cb5b146102b8578063b126bd32146102e5578063cb2e721214610305578063ddca3f4314610325578063e5f3d3a51461033b578063ed1b5b001461035b578063f2fde38b1461037b578063f5e35bb81461039b578063fb45d134146103ae57600080fd5b3661013c5734609a60006101056103ce565b6001600160a01b03166001600160a01b0316815260200190815260200160002060008282546101349190611bfc565b925050819055005b600080fd5b34801561014d57600080fd5b5061016161015c366004611c14565b6103dd565b60405161016e9190611cac565b60405180910390f35b34801561018357600080fd5b50610197610192366004611d5d565b610577565b005b3480156101a557600080fd5b506101c66101b4366004611d94565b609a6020526000908152604090205481565b60405190815260200161016e565b3480156101e057600080fd5b50610197610629565b3480156101f557600080fd5b50610197610204366004611db8565b6107b9565b34801561021557600080fd5b50610197610224366004611c14565b61085d565b34801561023557600080fd5b5060665460ff165b604051901515815260200161016e565b34801561025957600080fd5b50610197610268366004611c14565b6108da565b34801561027957600080fd5b5061019761090e565b34801561028e57600080fd5b506101c661029d366004611c14565b610949565b3480156102ae57600080fd5b506101c660995481565b3480156102c457600080fd5b506102cd6103ce565b6040516001600160a01b03909116815260200161016e565b3480156102f157600080fd5b50610197610300366004611c14565b6109ce565b34801561031157600080fd5b50610197610320366004611d5d565b610b74565b34801561033157600080fd5b506101c660985481565b34801561034757600080fd5b506101c6610356366004611c14565b610df4565b34801561036757600080fd5b5061023d610376366004611c14565b610e2e565b34801561038757600080fd5b50610197610396366004611d94565b610e5d565b6101976103a9366004611e29565b610efd565b3480156103ba57600080fd5b506101976103c9366004611c14565b61142a565b6033546001600160a01b031690565b6104296040518060e0016040528060006001600160a01b031681526020016000815260200160008152602001600081526020016000801916815260200160608152602001606081525090565b6000828152609b6020908152604091829020825160e08101845281546001600160a01b0316815260018201548184015260028201548185015260038201546060820152600482015460808201526005820180548551818602810186019096528086529194929360a086019392908301828280156104cf57602002820191906000526020600020905b81546001600160a01b031681526001909101906020018083116104b1575b5050505050815260200160068201805480602002602001604051908101604052809291908181526020016000905b828210156105695760008481526020908190208301805460408051828502810185019091528181529283018282801561055557602002820191906000526020600020905b815481526020019060010190808311610541575b5050505050815260200190600101906104fd565b505050915250909392505050565b336105806103ce565b6001600160a01b0316146105af5760405162461bcd60e51b81526004016105a690611eb4565b60405180910390fd5b6000828152609b60205260409020600401546105ff5760405162461bcd60e51b815260206004820152600f60248201526e496e76616c6964206469737075746560881b60448201526064016105a6565b6000828152609b602052604081206003018054839290610620908490611bfc565b90915550505050565b60026065540361067b5760405162461bcd60e51b815260206004820152601f60248201527f5265656e7472616e637947756172643a207265656e7472616e742063616c6c0060448201526064016105a6565b6002606555336000908152609a60205260409020546106c95760405162461bcd60e51b815260206004820152600a6024820152694e6f2062616c616e636560b01b60448201526064016105a6565b336000908152609a602052604081208054918291906106e88380611ee9565b90915550506040516000908190339084908381818185875af1925050503d8060008114610731576040519150601f19603f3d011682016040523d82523d6000602084013e610736565b606091505b50915091508161077a5760405162461bcd60e51b815260206004820152600f60248201526e151c985b9cd9995c8819985a5b1959608a1b60448201526064016105a6565b60405183815233907f7fcf532c15f0a6db0bd6d0e038bea71d30d808c7d98cb3bf7268a95bf5081b659060200160405180910390a25050600160655550565b60006107c56001611797565b905080156107dd576000805461ff0019166101001790555b600080806107ed85870187611f00565b6098829055609981905591945092509050610806611826565b61080f83610e5d565b5050508015610858576000805461ff0019169055604051600181527f7f26b83ff96e1f2b6a682f133852f6798a09c465da95921460cefb38474024989060200160405180910390a15b505050565b336108666103ce565b6001600160a01b03161461088c5760405162461bcd60e51b81526004016105a690611eb4565b600081116108d55760405162461bcd60e51b81526020600482015260166024820152754c617073652063616e6e6f742062652030206461797360501b60448201526064016105a6565b609955565b336108e36103ce565b6001600160a01b0316146109095760405162461bcd60e51b81526004016105a690611eb4565b609855565b336109176103ce565b6001600160a01b03161461093d5760405162461bcd60e51b81526004016105a690611eb4565b6109476000611855565b565b6000818152609b602052604080822080546001909101549151630d7e149f60e01b815260048101929092526001600160a01b031690630d7e149f90602401602060405180830381865afa1580156109a4573d6000803e3d6000fd5b505050506040513d601f19601f820116820180604052508101906109c89190611f35565b92915050565b336109d76103ce565b6001600160a01b0316146109fd5760405162461bcd60e51b81526004016105a690611eb4565b6000818152609b602052604090206004810154829190610a2f5760405162461bcd60e51b81526004016105a690611f4e565b80546001820154604051632e31150760e11b815260048101919091526003916001600160a01b031690635c622a0e90602401602060405180830381865afa158015610a7e573d6000803e3d6000fd5b505050506040513d601f19601f82011682018060405250810190610aa29190611f9c565b6005811115610ab357610ab3611f77565b14610ad05760405162461bcd60e51b81526004016105a690611fb7565b6000838152609b602052604090819020805460018201549251634e46f22360e01b815291926001600160a01b0390911691634e46f22391610b179160040190815260200190565b600060405180830381600087803b158015610b3157600080fd5b505af1158015610b45573d6000803e3d6000fd5b50505050610b52846118a7565b610b60600582016000611af2565b610b6e600682016000611b10565b50505050565b33610b7d6103ce565b6001600160a01b031614610ba35760405162461bcd60e51b81526004016105a690611eb4565b6000828152609b602052604090206004810154839190610bd55760405162461bcd60e51b81526004016105a690611f4e565b80546001820154604051632e31150760e11b815260048101919091526003916001600160a01b031690635c622a0e90602401602060405180830381865afa158015610c24573d6000803e3d6000fd5b505050506040513d601f19601f82011682018060405250810190610c489190611f9c565b6005811115610c5957610c59611f77565b14610c765760405162461bcd60e51b81526004016105a690611fb7565b6000848152609b6020526040902060048101548514610ca75760405162461bcd60e51b81526004016105a690611f4e565b80546001820154604051630d7e149f60e01b81526001600160a01b0390921691630d7e149f91610cdd9160040190815260200190565b602060405180830381865afa158015610cfa573d6000803e3d6000fd5b505050506040513d601f19601f82011682018060405250810190610d1e9190611f35565b4211610d595760405162461bcd60e51b815260206004820152600a602482015269151a5b595b1bd8dad95960b21b60448201526064016105a6565b805460018201546006830180546001600160a01b03909316926387dfee5792919088908110610d8a57610d8a611fea565b906000526020600020016040518363ffffffff1660e01b8152600401610db1929190612040565b600060405180830381600087803b158015610dcb57600080fd5b505af1158015610ddf573d6000803e3d6000fd5b50505050610ded858561192e565b5050505050565b6000818152609b602052604081206004015415610e2157506000908152609b602052604090206002015490565b505060985490565b919050565b6000610e3982610949565b6000838152609b6020526040902060030154610e559190611bfc565b421192915050565b33610e666103ce565b6001600160a01b031614610e8c5760405162461bcd60e51b81526004016105a690611eb4565b6001600160a01b038116610ef15760405162461bcd60e51b815260206004820152602660248201527f4f776e61626c653a206e6577206f776e657220697320746865207a65726f206160448201526564647265737360d01b60648201526084016105a6565b610efa81611855565b50565b6000846001600160a01b0316636cc6cde16040518163ffffffff1660e01b8152600401602060405180830381865afa158015610f3d573d6000803e3d6000fd5b505050506040513d601f19601f82011682018060405250810190610f619190612061565b90506001600160a01b0381163014610fae5760405162461bcd60e51b815260206004820152601060248201526f2bb937b7339030b93134ba3930ba37b960811b60448201526064016105a6565b604051632e31150760e11b8152600481018590526000906001600160a01b03871690635c622a0e90602401602060405180830381865afa158015610ff6573d6000803e3d6000fd5b505050506040513d601f19601f8201168201806040525081019061101a9190611f9c565b9050600281600581111561103057611030611f77565b148061104d5750600381600581111561104b5761104b611f77565b145b6110aa5760405162461bcd60e51b815260206004820152602860248201527f436f6e646974696f6e2073746174757320696e76616c696420666f722061726260448201526734ba3930ba34b7b760c11b60648201526084016105a6565b604051630d7e149f60e01b8152600481018690526001600160a01b03871690630d7e149f90602401602060405180830381865afa1580156110ef573d6000803e3d6000fd5b505050506040513d601f19601f820116820180604052508101906111139190611f35565b42106111545760405162461bcd60e51b815260206004820152601060248201526f151a5b595b1bd8dac8195b185c1cd95960821b60448201526064016105a6565b604080516001600160a01b038816602082015290810186905260009060600160405160208183030381529060405280519060200120905061119481610df4565b3410156111d65760405162461bcd60e51b815260206004820152601060248201526f496e73756666696369656e742066656560801b60448201526064016105a6565b6098546111e39034611ee9565b336000908152609a602052604081208054909190611202908490611bfc565b90915550506000818152609b60205260409020600481015461138057600481810183905581546001600160a01b0319166001600160a01b038a16908117835560018301899055609854600284015560995460038401556040805163aced166160e01b81529051600585019363aced1661928082019260209290918290030181865afa158015611295573d6000803e3d6000fd5b505050506040513d601f19601f820116820180604052508101906112b99190612061565b81546001810183556000928352602083200180546001600160a01b0319166001600160a01b0392831617905560405163f24fc90360e01b8152600481018a9052908a169063f24fc90390602401600060405180830381865afa158015611323573d6000803e3d6000fd5b505050506040513d6000823e601f3d908101601f1916820160405261134b91908101906120ec565b60808101516006840180546001810182556000918252602091829020835194955061137d949101929190910190611b2e565b50505b600581018054600181810183556000928352602080842090920180546001600160a01b031916331790556006840180549182018155835291206113c591018787611b79565b50604051634dab5e6960e01b8152600481018890526001600160a01b03891690634dab5e6990602401600060405180830381600087803b15801561140857600080fd5b505af115801561141c573d6000803e3d6000fd5b505050505050505050505050565b6000818152609b60205260409020600481015482919061145c5760405162461bcd60e51b81526004016105a690611f4e565b80546001820154604051632e31150760e11b815260048101919091526003916001600160a01b031690635c622a0e90602401602060405180830381865afa1580156114ab573d6000803e3d6000fd5b505050506040513d601f19601f820116820180604052508101906114cf9190611f9c565b60058111156114e0576114e0611f77565b146114fd5760405162461bcd60e51b81526004016105a690611fb7565b6000838152609b60209081526040808320815160e08101835281546001600160a01b0316815260018201548185015260028201548184015260038201546060820152600482015460808201526005820180548451818702810187019095528085529194929360a08601939092908301828280156115a357602002820191906000526020600020905b81546001600160a01b03168152600190910190602001808311611585575b5050505050815260200160068201805480602002602001604051908101604052809291908181526020016000905b8282101561163d5760008481526020908190208301805460408051828502810185019091528181529283018282801561162957602002820191906000526020600020905b815481526020019060010190808311611615575b5050505050815260200190600101906115d1565b5050505081525050905061165084610e2e565b6116895760405162461bcd60e51b815260206004820152600a602482015269139bdd081b185c1cd95960b21b60448201526064016105a6565b6000848152609b602090815260408083205491840151905163f24fc90360e01b81526001600160a01b039092169163f24fc903916116cd9160040190815260200190565b600060405180830381865afa1580156116ea573d6000803e3d6000fd5b505050506040513d6000823e601f3d908101601f1916820160405261171291908101906120ec565b8251602084015160808301516040516387dfee5760e01b81529394506001600160a01b03909216926387dfee579261174d92916004016121ff565b600060405180830381600087803b15801561176757600080fd5b505af115801561177b573d6000803e3d6000fd5b50505050610ded856118a7565b6001600160a01b03163b151590565b60008054610100900460ff16156117e5578160ff1660011480156117c157506117bf30611788565b155b6117dd5760405162461bcd60e51b81526004016105a69061224d565b506000919050565b60005460ff80841691161061180c5760405162461bcd60e51b81526004016105a69061224d565b506000805460ff191660ff92909216919091179055600190565b600054610100900460ff1661184d5760405162461bcd60e51b81526004016105a69061229b565b610947611ac2565b603380546001600160a01b038381166001600160a01b0319831681179093556040519116919082907f8be0079c531659141344cd1fd0a4f28419497f9722a3daafe3b4186f6b6457e090600090a35050565b6000818152609b6020526040902060015b6005820154811015610858578160020154609a60008460050184815481106118e2576118e2611fea565b60009182526020808320909101546001600160a01b0316835282019290925260400181208054909190611916908490611bfc565b90915550819050611926816122e6565b9150506118b8565b6000828152609b60205260408120600581015490919061195090600190611ee9565b826002015461195f91906122ff565b905060015b6005830154811015611a7a5782600601848154811061198557611985611fea565b9060005260206000200160405160200161199f919061231e565b604051602081830303815290604052805190602001208360060182815481106119ca576119ca611fea565b906000526020600020016040516020016119e4919061231e565b6040516020818303038152906040528051906020012003611a68578260020154609a6000856005018481548110611a1d57611a1d611fea565b60009182526020808320909101546001600160a01b0316835282019290925260400181208054909190611a51908490611bfc565b90915550506002830154611a659083611ee9565b91505b80611a72816122e6565b915050611964565b5080609a6000611a886103ce565b6001600160a01b03166001600160a01b031681526020019081526020016000206000828254611ab79190611bfc565b909155505050505050565b600054610100900460ff16611ae95760405162461bcd60e51b81526004016105a69061229b565b61094733611855565b5080546000825590600052602060002090810190610efa9190611bb4565b5080546000825590600052602060002090810190610efa9190611bc9565b828054828255906000526020600020908101928215611b69579160200282015b82811115611b69578251825591602001919060010190611b4e565b50611b75929150611bb4565b5090565b828054828255906000526020600020908101928215611b69579160200282015b82811115611b69578235825591602001919060010190611b99565b5b80821115611b755760008155600101611bb5565b80821115611b75576000611bdd8282611af2565b50600101611bc9565b634e487b7160e01b600052601160045260246000fd5b60008219821115611c0f57611c0f611be6565b500190565b600060208284031215611c2657600080fd5b5035919050565b600082825180855260208086019550808260051b8401018186016000805b85811015611c9e57868403601f19018a52825180518086529086019086860190845b81811015611c8957835183529288019291880191600101611c6d565b50509a86019a94505091840191600101611c4b565b509198975050505050505050565b60006020808352610100830160018060a01b0380865116838601528286015160408601526040860151606086015260608601516080860152608086015160a086015260a086015160e060c0870152828151808552610120880191508583019450600092505b80831015611d3357845184168252938501936001929092019190850190611d11565b5060c0880151878203601f190160e08901529450611d518186611c2d565b98975050505050505050565b60008060408385031215611d7057600080fd5b50508035926020909101359150565b6001600160a01b0381168114610efa57600080fd5b600060208284031215611da657600080fd5b8135611db181611d7f565b9392505050565b60008060208385031215611dcb57600080fd5b82356001600160401b0380821115611de257600080fd5b818501915085601f830112611df657600080fd5b813581811115611e0557600080fd5b866020828501011115611e1757600080fd5b60209290920196919550909350505050565b60008060008060608587031215611e3f57600080fd5b8435611e4a81611d7f565b93506020850135925060408501356001600160401b0380821115611e6d57600080fd5b818701915087601f830112611e8157600080fd5b813581811115611e9057600080fd5b8860208260051b8501011115611ea557600080fd5b95989497505060200194505050565b6020808252818101527f4f776e61626c653a2063616c6c6572206973206e6f7420746865206f776e6572604082015260600190565b600082821015611efb57611efb611be6565b500390565b600080600060608486031215611f1557600080fd5b8335611f2081611d7f565b95602085013595506040909401359392505050565b600060208284031215611f4757600080fd5b5051919050565b6020808252600f908201526e496e76616c6964204469737075746560881b604082015260600190565b634e487b7160e01b600052602160045260246000fd5b805160068110610e2957600080fd5b600060208284031215611fae57600080fd5b611db182611f8d565b602080825260199082015278105c989a5d1c985d1a5bdb881b9bdd081c995c5d595cdd1959603a1b604082015260600190565b634e487b7160e01b600052603260045260246000fd5b6000815480845260208085019450836000528060002060005b8381101561203557815487529582019560019182019101612019565b509495945050505050565b8281526040602082015260006120596040830184612000565b949350505050565b60006020828403121561207357600080fd5b8151611db181611d7f565b634e487b7160e01b600052604160045260246000fd5b60405160c081016001600160401b03811182821017156120b6576120b661207e565b60405290565b604051601f8201601f191681016001600160401b03811182821017156120e4576120e461207e565b604052919050565b600060208083850312156120ff57600080fd5b82516001600160401b038082111561211657600080fd5b9084019060c0828703121561212a57600080fd5b612132612094565b825161213d81611d7f565b808252508383015184820152604083015160408201526060830151606082015260808301518281111561216f57600080fd5b8301601f8101881361218057600080fd5b8051838111156121925761219261207e565b8060051b93506121a38685016120bc565b818152938201860193868101908a8611156121bd57600080fd5b928701925b858410156121db578351825292870192908701906121c2565b6080850152506121f091505060a08401611f8d565b60a08201529695505050505050565b6000604082018483526020604081850152818551808452606086019150828701935060005b8181101561224057845183529383019391830191600101612224565b5090979650505050505050565b6020808252602e908201527f496e697469616c697a61626c653a20636f6e747261637420697320616c72656160408201526d191e481a5b9a5d1a585b1a5e995960921b606082015260800190565b6020808252602b908201527f496e697469616c697a61626c653a20636f6e7472616374206973206e6f74206960408201526a6e697469616c697a696e6760a81b606082015260800190565b6000600182016122f8576122f8611be6565b5060010190565b600081600019048311821515161561231957612319611be6565b500290565b602081526000611db1602083018461200056fea2646970667358221220fe0715d38d27e194ff26096db5c840cf16fdda73ef02c39db35d8582949172ee64736f6c634300080d0033",
  "linkReferences": {},
  "deployedLinkReferences": {}
}