{
  "_format": "hh-sol-artifact-1",
  "contractName": "BasicArbitrator",
  "sourceName": "contracts/BasicArbitrator.sol",
  "abi": [
    {
      "inputs": [
        {
          "internalType": "uint256",
          "name": "_fee",
          "type": "uint256"
        },
        {
          "internalType": "address",
          "name": "_newOwner",
          "type": "address"
        }
      ],
      "stateMutability": "nonpayable",
      "type": "constructor"
    },
    {
      "anonymous": false,
      "inputs": [
        {
          "indexed": true,
          "internalType": "address",
          "name": "previousOwner",
          "type": "address"
        },
        {
          "indexed": true,
          "internalType": "address",
          "name": "newOwner",
          "type": "address"
        }
      ],
      "name": "OwnershipTransferred",
      "type": "event"
    },
    {
      "inputs": [
        {
          "internalType": "bytes32",
          "name": "disputeId",
          "type": "bytes32"
        },
        {
          "internalType": "uint256",
          "name": "choice",
          "type": "uint256"
        }
      ],
      "name": "arbitrate",
      "outputs": [],
      "stateMutability": "nonpayable",
      "type": "function"
    },
    {
      "inputs": [
        {
          "internalType": "bytes32",
          "name": "disputeId",
          "type": "bytes32"
        }
      ],
      "name": "arbitrateNull",
      "outputs": [],
      "stateMutability": "nonpayable",
      "type": "function"
    },
    {
      "inputs": [
        {
          "internalType": "address",
          "name": "",
          "type": "address"
        }
      ],
      "name": "balances",
      "outputs": [
        {
          "internalType": "uint256",
          "name": "",
          "type": "uint256"
        }
      ],
      "stateMutability": "view",
      "type": "function"
    },
    {
      "inputs": [
        {
          "internalType": "bytes32",
          "name": "",
          "type": "bytes32"
        }
      ],
      "name": "disputes",
      "outputs": [
        {
          "internalType": "contract ISolver",
          "name": "solver",
          "type": "address"
        },
        {
          "internalType": "uint256",
          "name": "conditionIndex",
          "type": "uint256"
        },
        {
          "internalType": "uint256",
          "name": "fee",
          "type": "uint256"
        },
        {
          "internalType": "bytes32",
          "name": "id",
          "type": "bytes32"
        }
      ],
      "stateMutability": "view",
      "type": "function"
    },
    {
      "inputs": [],
      "name": "fee",
      "outputs": [
        {
          "internalType": "uint256",
          "name": "",
          "type": "uint256"
        }
      ],
      "stateMutability": "view",
      "type": "function"
    },
    {
      "inputs": [
        {
          "internalType": "bytes32",
          "name": "disputeId",
          "type": "bytes32"
        }
      ],
      "name": "getFee",
      "outputs": [
        {
          "internalType": "uint256",
          "name": "",
          "type": "uint256"
        }
      ],
      "stateMutability": "view",
      "type": "function"
    },
    {
      "inputs": [],
      "name": "owner",
      "outputs": [
        {
          "internalType": "address",
          "name": "",
          "type": "address"
        }
      ],
      "stateMutability": "view",
      "type": "function"
    },
    {
      "inputs": [],
      "name": "renounceOwnership",
      "outputs": [],
      "stateMutability": "nonpayable",
      "type": "function"
    },
    {
      "inputs": [
        {
          "internalType": "contract ISolver",
          "name": "solver",
          "type": "address"
        },
        {
          "internalType": "uint256",
          "name": "conditionIndex",
          "type": "uint256"
        },
        {
          "internalType": "uint256[]",
          "name": "desiredOutcome",
          "type": "uint256[]"
        }
      ],
      "name": "requestArbitration",
      "outputs": [],
      "stateMutability": "payable",
      "type": "function"
    },
    {
      "inputs": [
        {
          "internalType": "uint256",
          "name": "_fee",
          "type": "uint256"
        }
      ],
      "name": "setFee",
      "outputs": [],
      "stateMutability": "nonpayable",
      "type": "function"
    },
    {
      "inputs": [
        {
          "internalType": "bytes32",
          "name": "disputeId",
          "type": "bytes32"
        }
      ],
      "name": "timelock",
      "outputs": [
        {
          "internalType": "uint256",
          "name": "timelock",
          "type": "uint256"
        }
      ],
      "stateMutability": "view",
      "type": "function"
    },
    {
      "inputs": [
        {
          "internalType": "address",
          "name": "newOwner",
          "type": "address"
        }
      ],
      "name": "transferOwnership",
      "outputs": [],
      "stateMutability": "nonpayable",
      "type": "function"
    },
    {
      "inputs": [],
      "name": "withdraw",
      "outputs": [],
      "stateMutability": "nonpayable",
      "type": "function"
    },
    {
      "stateMutability": "payable",
      "type": "receive"
    }
  ],
  "bytecode": "0x60806040523480156200001157600080fd5b50604051620017df380380620017df83398101604081905262000034916200014d565b620000486200004262000064565b62000068565b6001805560028290556200005c81620000b8565b505062000205565b3390565b600080546001600160a01b038381166001600160a01b0319831681178455604051919092169283917f8be0079c531659141344cd1fd0a4f28419497f9722a3daafe3b4186f6b6457e09190a35050565b620000c262000064565b6001600160a01b0316620000d56200013e565b6001600160a01b031614620001075760405162461bcd60e51b8152600401620000fe90620001d0565b60405180910390fd5b6001600160a01b038116620001305760405162461bcd60e51b8152600401620000fe906200018a565b6200013b8162000068565b50565b6000546001600160a01b031690565b6000806040838503121562000160578182fd5b825160208401519092506001600160a01b03811681146200017f578182fd5b809150509250929050565b60208082526026908201527f4f776e61626c653a206e6577206f776e657220697320746865207a65726f206160408201526564647265737360d01b606082015260800190565b6020808252818101527f4f776e61626c653a2063616c6c6572206973206e6f7420746865206f776e6572604082015260600190565b6115ca80620002156000396000f3fe6080604052600436106100a65760003560e01c806311be1997146100f357806327e235e31461012c5780633ccfd60b146101595780635da05f371461017057806369fe0e2d14610190578063715018a6146101b05780638da5cb5b146101c5578063b126bd32146101e7578063cb2e721214610207578063ddca3f4314610227578063e5f3d3a51461023c578063f2fde38b1461025c578063f5e35bb81461027c576100ee565b366100ee5734600460006100b861028f565b6001600160a01b03166001600160a01b0316815260200190815260200160002060008282546100e79190611500565b9091555050005b600080fd5b3480156100ff57600080fd5b5061011361010e3660046110ca565b61029e565b604051610123949392919061123f565b60405180910390f35b34801561013857600080fd5b5061014c61014736600461106b565b6102d1565b60405161012391906114d6565b34801561016557600080fd5b5061016e6102e3565b005b34801561017c57600080fd5b5061014c61018b3660046110ca565b6103ed565b34801561019c57600080fd5b5061016e6101ab3660046110ca565b610485565b3480156101bc57600080fd5b5061016e6104c9565b3480156101d157600080fd5b506101da61028f565b60405161012391906111ff565b3480156101f357600080fd5b5061016e6102023660046110ca565b610514565b34801561021357600080fd5b5061016e6102223660046110e2565b6106c1565b34801561023357600080fd5b5061014c61094d565b34801561024857600080fd5b5061014c6102573660046110ca565b610953565b34801561026857600080fd5b5061016e61027736600461106b565b61098c565b61016e61028a366004611103565b6109fd565b6000546001600160a01b031690565b600360208190526000918252604090912080546001820154600283015492909301546001600160a01b0390911692919084565b60046020526000908152604090205481565b6002600154141561030f5760405162461bcd60e51b81526004016103069061149f565b60405180910390fd5b6002600155336000908152600460205260409020546103405760405162461bcd60e51b815260040161030690611331565b33600090815260046020526040812080549182919061035f8380611537565b92505081905550600080336001600160a01b031683604051610380906111fc565b60006040518083038185875af1925050503d80600081146103bd576040519150601f19603f3d011682016040523d82523d6000602084013e6103c2565b606091505b5091509150816103e45760405162461bcd60e51b815260040161030690611308565b50506001805550565b60008181526003602052604080822080546001909101549151630d7e149f60e01b81526001600160a01b0390911691630d7e149f9161042f91906004016114d6565b60206040518083038186803b15801561044757600080fd5b505afa15801561045b573d6000803e3d6000fd5b505050506040513d601f19601f8201168201806040525081019061047f91906111a7565b92915050565b61048d610e04565b6001600160a01b031661049e61028f565b6001600160a01b0316146104c45760405162461bcd60e51b8152600401610306906113c7565b600255565b6104d1610e04565b6001600160a01b03166104e261028f565b6001600160a01b0316146105085760405162461bcd60e51b8152600401610306906113c7565b6105126000610e08565b565b61051c610e04565b6001600160a01b031661052d61028f565b6001600160a01b0316146105535760405162461bcd60e51b8152600401610306906113c7565b6000818152600360208190526040909120829181546001830154604051632e31150760e11b81526001600160a01b0390921691635c622a0e91610598916004016114d6565b60206040518083038186803b1580156105b057600080fd5b505afa1580156105c4573d6000803e3d6000fd5b505050506040513d601f19601f820116820180604052508101906105e89190611188565b600581111561060757634e487b7160e01b600052602160045260246000fd5b146106245760405162461bcd60e51b815260040161030690611265565b60008381526003602081905260409091209081015484146106575760405162461bcd60e51b815260040161030690611476565b80546001820154604051634e46f22360e01b81526001600160a01b0390921691634e46f22391610689916004016114d6565b600060405180830381600087803b1580156106a357600080fd5b505af11580156106b7573d6000803e3d6000fd5b5050505050505050565b6106c9610e04565b6001600160a01b03166106da61028f565b6001600160a01b0316146107005760405162461bcd60e51b8152600401610306906113c7565b6000828152600360208190526040909120839181546001830154604051632e31150760e11b81526001600160a01b0390921691635c622a0e91610745916004016114d6565b60206040518083038186803b15801561075d57600080fd5b505afa158015610771573d6000803e3d6000fd5b505050506040513d601f19601f820116820180604052508101906107959190611188565b60058111156107b457634e487b7160e01b600052602160045260246000fd5b146107d15760405162461bcd60e51b815260040161030690611265565b60008481526003602081905260409091209081015485146108045760405162461bcd60e51b815260040161030690611476565b80546001820154604051630d7e149f60e01b81526001600160a01b0390921691630d7e149f91610836916004016114d6565b60206040518083038186803b15801561084e57600080fd5b505afa158015610862573d6000803e3d6000fd5b505050506040513d601f19601f8201168201806040525081019061088691906111a7565b42116108a45760405162461bcd60e51b815260040161030690611452565b805460018201546005830180546001600160a01b03909316926387dfee57929190889081106108e357634e487b7160e01b600052603260045260246000fd5b906000526020600020016040518363ffffffff1660e01b815260040161090a9291906114df565b600060405180830381600087803b15801561092457600080fd5b505af1158015610938573d6000803e3d6000fd5b505050506109468585610e58565b5050505050565b60025481565b600081815260036020819052604082200154156109825750600081815260036020526040902060020154610987565b506002545b919050565b610994610e04565b6001600160a01b03166109a561028f565b6001600160a01b0316146109cb5760405162461bcd60e51b8152600401610306906113c7565b6001600160a01b0381166109f15760405162461bcd60e51b8152600401610306906112c2565b6109fa81610e08565b50565b6000846001600160a01b0316636cc6cde16040518163ffffffff1660e01b815260040160206040518083038186803b158015610a3857600080fd5b505afa158015610a4c573d6000803e3d6000fd5b505050506040513d601f19601f82011682018060405250810190610a70919061108e565b90506001600160a01b0381163014610a9a5760405162461bcd60e51b815260040161030690611298565b604051630d7e149f60e01b81526001600160a01b03861690630d7e149f90610ac69087906004016114d6565b60206040518083038186803b158015610ade57600080fd5b505afa158015610af2573d6000803e3d6000fd5b505050506040513d601f19601f82011682018060405250810190610b1691906111a7565b4210610b345760405162461bcd60e51b8152600401610306906113fc565b604051630a0db41760e31b81526001600160a01b0386169063506da0b890610b629033908890600401611213565b60206040518083038186803b158015610b7a57600080fd5b505afa158015610b8e573d6000803e3d6000fd5b505050506040513d601f19601f82011682018060405250810190610bb291906110aa565b610bce5760405162461bcd60e51b815260040161030690611429565b604051632e31150760e11b81526000906001600160a01b03871690635c622a0e90610bfd9088906004016114d6565b60206040518083038186803b158015610c1557600080fd5b505afa158015610c29573d6000803e3d6000fd5b505050506040513d601f19601f82011682018060405250810190610c4d9190611188565b90506002816005811115610c7157634e487b7160e01b600052602160045260246000fd5b1480610c9c57506003816005811115610c9a57634e487b7160e01b600052602160045260246000fd5b145b610cb85760405162461bcd60e51b815260040161030690611355565b60008686604051602001610ccd929190611213565b604051602081830303815290604052805190602001209050610cee81610953565b341015610d0d5760405162461bcd60e51b81526004016103069061139d565b600081815260036020819052604090912090810154610d56576003810182905580546001600160a01b0319166001600160a01b0389161781556001810187905560028054908201555b600481018054600181810183556000928352602080842090920180546001600160a01b03191633179055600584018054918201815583529120610d9b9101878761100b565b50604051634dab5e6960e01b81526001600160a01b03891690634dab5e6990610dc8908a906004016114d6565b600060405180830381600087803b158015610de257600080fd5b505af1158015610df6573d6000803e3d6000fd5b505050505050505050505050565b3390565b600080546001600160a01b038381166001600160a01b0319831681178455604051919092169283917f8be0079c531659141344cd1fd0a4f28419497f9722a3daafe3b4186f6b6457e09190a35050565b600082815260036020526040812060048101546002820154919291610e7d9190611518565b905060005b6004830154811015610fc357826005018481548110610eb157634e487b7160e01b600052603260045260246000fd5b90600052602060002001604051602001610ecb919061122c565b60405160208183030381529060405280519060200120836005018281548110610f0457634e487b7160e01b600052603260045260246000fd5b90600052602060002001604051602001610f1e919061122c565b604051602081830303815290604052805190602001201415610fb157826002015460046000856004018481548110610f6657634e487b7160e01b600052603260045260246000fd5b60009182526020808320909101546001600160a01b0316835282019290925260400181208054909190610f9a908490611500565b90915550506002830154610fae9083611537565b91505b80610fbb8161154e565b915050610e82565b508060046000610fd161028f565b6001600160a01b03166001600160a01b0316815260200190815260200160002060008282546110009190611500565b909155505050505050565b828054828255906000526020600020908101928215611046579160200282015b8281111561104657823582559160200191906001019061102b565b50611052929150611056565b5090565b5b808211156110525760008155600101611057565b60006020828403121561107c578081fd5b81356110878161157f565b9392505050565b60006020828403121561109f578081fd5b81516110878161157f565b6000602082840312156110bb578081fd5b81518015158114611087578182fd5b6000602082840312156110db578081fd5b5035919050565b600080604083850312156110f4578081fd5b50508035926020909101359150565b60008060008060608587031215611118578182fd5b84356111238161157f565b93506020850135925060408501356001600160401b0380821115611145578384fd5b818701915087601f830112611158578384fd5b813581811115611166578485fd5b8860208083028501011115611179578485fd5b95989497505060200194505050565b600060208284031215611199578081fd5b815160068110611087578182fd5b6000602082840312156111b8578081fd5b5051919050565b6000815480845260208085019450838352808320835b838110156111f1578154875295820195600191820191016111d5565b509495945050505050565b90565b6001600160a01b0391909116815260200190565b6001600160a01b03929092168252602082015260400190565b60006020825261108760208301846111bf565b6001600160a01b0394909416845260208401929092526040830152606082015260800190565b602080825260199082015278105c989a5d1c985d1a5bdb881b9bdd081c995c5d595cdd1959603a1b604082015260600190565b60208082526010908201526f2bb937b7339030b93134ba3930ba37b960811b604082015260600190565b60208082526026908201527f4f776e61626c653a206e6577206f776e657220697320746865207a65726f206160408201526564647265737360d01b606082015260800190565b6020808252600f908201526e151c985b9cd9995c8819985a5b1959608a1b604082015260600190565b6020808252600a90820152694e6f2062616c616e636560b01b604082015260600190565b60208082526028908201527f436f6e646974696f6e2073746174757320696e76616c696420666f722061726260408201526734ba3930ba34b7b760c11b606082015260800190565b60208082526010908201526f496e73756666696369656e742066656560801b604082015260600190565b6020808252818101527f4f776e61626c653a2063616c6c6572206973206e6f7420746865206f776e6572604082015260600190565b6020808252601390820152724d75737420626520696e2074696d656c6f636b60681b604082015260600190565b6020808252600f908201526e4f6e6c7920726563697069656e747360881b604082015260600190565b6020808252600a9082015269151a5b595b1bd8dad95960b21b604082015260600190565b6020808252600f908201526e496e76616c6964204469737075746560881b604082015260600190565b6020808252601f908201527f5265656e7472616e637947756172643a207265656e7472616e742063616c6c00604082015260600190565b90815260200190565b6000838252604060208301526114f860408301846111bf565b949350505050565b6000821982111561151357611513611569565b500190565b600081600019048311821515161561153257611532611569565b500290565b60008282101561154957611549611569565b500390565b600060001982141561156257611562611569565b5060010190565b634e487b7160e01b600052601160045260246000fd5b6001600160a01b03811681146109fa57600080fdfea2646970667358221220f2a3231c9188a47f528dab580d8d7097d9f169f30504986b0a1e739d0bc4ec6b64736f6c63430008000033",
  "linkReferences": {},
  "deployedLinkReferences": {}
}