{
  "_format": "hh-sol-artifact-1",
  "contractName": "BasicArbitrator",
  "sourceName": "contracts/BasicArbitrator.sol",
  "abi": [
    {
      "inputs": [],
      "stateMutability": "nonpayable",
      "type": "constructor"
    },
    {
      "anonymous": false,
      "inputs": [
        {
          "indexed": false,
          "internalType": "uint8",
          "name": "version",
          "type": "uint8"
        }
      ],
      "name": "Initialized",
      "type": "event"
    },
    {
      "anonymous": false,
      "inputs": [
        {
          "indexed": true,
          "internalType": "address",
          "name": "previousOwner",
          "type": "address"
        },
        {
          "indexed": true,
          "internalType": "address",
          "name": "newOwner",
          "type": "address"
        }
      ],
      "name": "OwnershipTransferred",
      "type": "event"
    },
    {
      "anonymous": false,
      "inputs": [
        {
          "indexed": true,
          "internalType": "address",
          "name": "to",
          "type": "address"
        },
        {
          "indexed": false,
          "internalType": "uint256",
          "name": "amount",
          "type": "uint256"
        }
      ],
      "name": "Withdrawal",
      "type": "event"
    },
    {
      "inputs": [
        {
          "internalType": "bytes32",
          "name": "disputeId",
          "type": "bytes32"
        },
        {
          "internalType": "uint256",
          "name": "choice",
          "type": "uint256"
        }
      ],
      "name": "arbitrate",
      "outputs": [],
      "stateMutability": "nonpayable",
      "type": "function"
    },
    {
      "inputs": [
        {
          "internalType": "bytes32",
          "name": "disputeId",
          "type": "bytes32"
        }
      ],
      "name": "arbitrateNull",
      "outputs": [],
      "stateMutability": "nonpayable",
      "type": "function"
    },
    {
      "inputs": [
        {
          "internalType": "address",
          "name": "",
          "type": "address"
        }
      ],
      "name": "balances",
      "outputs": [
        {
          "internalType": "uint256",
          "name": "",
          "type": "uint256"
        }
      ],
      "stateMutability": "view",
      "type": "function"
    },
    {
      "inputs": [
        {
          "internalType": "bytes32",
          "name": "disputeId",
          "type": "bytes32"
        }
      ],
      "name": "claimLapse",
      "outputs": [],
      "stateMutability": "nonpayable",
      "type": "function"
    },
    {
      "inputs": [
        {
          "internalType": "bytes32",
          "name": "disputeId",
          "type": "bytes32"
        },
        {
          "internalType": "uint256",
          "name": "extraTime",
          "type": "uint256"
        }
      ],
      "name": "extendLapse",
      "outputs": [],
      "stateMutability": "nonpayable",
      "type": "function"
    },
    {
      "inputs": [],
      "name": "fee",
      "outputs": [
        {
          "internalType": "uint256",
          "name": "",
          "type": "uint256"
        }
      ],
      "stateMutability": "view",
      "type": "function"
    },
    {
      "inputs": [
        {
          "internalType": "bytes32",
          "name": "disputeId",
          "type": "bytes32"
        }
      ],
      "name": "getDispute",
      "outputs": [
        {
          "components": [
            {
              "internalType": "contract ISolver",
              "name": "solver",
              "type": "address"
            },
            {
              "internalType": "uint256",
              "name": "conditionIndex",
              "type": "uint256"
            },
            {
              "internalType": "uint256",
              "name": "fee",
              "type": "uint256"
            },
            {
              "internalType": "uint256",
              "name": "lapse",
              "type": "uint256"
            },
            {
              "internalType": "bytes32",
              "name": "id",
              "type": "bytes32"
            },
            {
              "internalType": "address[]",
              "name": "disputers",
              "type": "address[]"
            },
            {
              "internalType": "uint256[][]",
              "name": "choices",
              "type": "uint256[][]"
            }
          ],
          "internalType": "struct BasicArbitrator.Dispute",
          "name": "dispute",
          "type": "tuple"
        }
      ],
      "stateMutability": "view",
      "type": "function"
    },
    {
      "inputs": [
        {
          "internalType": "bytes32",
          "name": "disputeId",
          "type": "bytes32"
        }
      ],
      "name": "getFee",
      "outputs": [
        {
          "internalType": "uint256",
          "name": "",
          "type": "uint256"
        }
      ],
      "stateMutability": "view",
      "type": "function"
    },
    {
      "inputs": [
        {
          "internalType": "bytes32",
          "name": "disputeId",
          "type": "bytes32"
        }
      ],
      "name": "getTimelock",
      "outputs": [
        {
          "internalType": "uint256",
          "name": "timelock",
          "type": "uint256"
        }
      ],
      "stateMutability": "view",
      "type": "function"
    },
    {
      "inputs": [],
      "name": "hideArbitrator",
      "outputs": [],
      "stateMutability": "nonpayable",
      "type": "function"
    },
    {
      "inputs": [
        {
          "internalType": "bytes",
          "name": "initParams",
          "type": "bytes"
        }
      ],
      "name": "init",
      "outputs": [],
      "stateMutability": "nonpayable",
      "type": "function"
    },
    {
      "inputs": [
        {
          "internalType": "bytes32",
          "name": "disputeId",
          "type": "bytes32"
        }
      ],
      "name": "isLapsed",
      "outputs": [
        {
          "internalType": "bool",
          "name": "",
          "type": "bool"
        }
      ],
      "stateMutability": "view",
      "type": "function"
    },
    {
      "inputs": [],
      "name": "lapse",
      "outputs": [
        {
          "internalType": "uint256",
          "name": "",
          "type": "uint256"
        }
      ],
      "stateMutability": "view",
      "type": "function"
    },
    {
      "inputs": [],
      "name": "owner",
      "outputs": [
        {
          "internalType": "address",
          "name": "",
          "type": "address"
        }
      ],
      "stateMutability": "view",
      "type": "function"
    },
    {
      "inputs": [],
      "name": "renounceOwnership",
      "outputs": [],
      "stateMutability": "nonpayable",
      "type": "function"
    },
    {
      "inputs": [
        {
          "internalType": "contract ISolver",
          "name": "solver",
          "type": "address"
        },
        {
          "internalType": "uint256",
          "name": "conditionIndex",
          "type": "uint256"
        },
        {
          "internalType": "uint256[]",
          "name": "desiredOutcome",
          "type": "uint256[]"
        }
      ],
      "name": "requestArbitration",
      "outputs": [],
      "stateMutability": "payable",
      "type": "function"
    },
    {
      "inputs": [
        {
          "internalType": "uint256",
          "name": "_fee",
          "type": "uint256"
        }
      ],
      "name": "setFee",
      "outputs": [],
      "stateMutability": "nonpayable",
      "type": "function"
    },
    {
      "inputs": [
        {
          "internalType": "uint256",
          "name": "_lapse",
          "type": "uint256"
        }
      ],
      "name": "setLapse",
      "outputs": [],
      "stateMutability": "nonpayable",
      "type": "function"
    },
    {
      "inputs": [
        {
          "internalType": "address",
          "name": "newOwner",
          "type": "address"
        }
      ],
      "name": "transferOwnership",
      "outputs": [],
      "stateMutability": "nonpayable",
      "type": "function"
    },
    {
      "inputs": [],
      "name": "unhideArbitrator",
      "outputs": [],
      "stateMutability": "nonpayable",
      "type": "function"
    },
    {
      "inputs": [],
      "name": "withdraw",
      "outputs": [],
      "stateMutability": "nonpayable",
      "type": "function"
    },
    {
      "stateMutability": "payable",
      "type": "receive"
    }
  ],
  "bytecode": "0x60806040523480156200001157600080fd5b5060016065556200002162000027565b62000140565b6200003360ff62000036565b50565b60008054610100900460ff16156200009f578160ff1660011480156200006f57506200006d30620000e360201b6200188d1760201c565b155b620000975760405162461bcd60e51b81526004016200008e90620000f2565b60405180910390fd5b506000919050565b60005460ff808416911610620000c95760405162461bcd60e51b81526004016200008e90620000f2565b506000805460ff191660ff92909216919091179055600190565b6001600160a01b03163b151590565b6020808252602e908201527f496e697469616c697a61626c653a20636f6e747261637420697320616c72656160408201526d191e481a5b9a5d1a585b1a5e995960921b606082015260800190565b6124bc80620001506000396000f3fe6080604052600436106100fe5760003560e01c8063136ba6aa1461014c578063222cdce11461018257806327e235e3146101a45780633ccfd60b146101df5780634ddf47d4146101f45780635746c2451461021457806369fe0e2d14610234578063715018a61461025457806379a55806146102695780637f6e7d2f146102895780638da5cb5b1461029f578063b126bd32146102cc578063bb7dd2fc146102ec578063c5c102ac14610301578063cb2e721214610316578063ddca3f4314610336578063e5f3d3a51461034c578063ed1b5b001461036c578063f2fde38b1461039c578063f5e35bb8146103bc578063fb45d134146103cf57600080fd5b366101475734606960006101106103ef565b6001600160a01b03166001600160a01b03168152602001908152602001600020600082825461013f9190611d51565b925050819055005b600080fd5b34801561015857600080fd5b5061016c610167366004611d69565b6103fe565b6040516101799190611e01565b60405180910390f35b34801561018e57600080fd5b506101a261019d366004611eb2565b610598565b005b3480156101b057600080fd5b506101d16101bf366004611ee9565b60696020526000908152604090205481565b604051908152602001610179565b3480156101eb57600080fd5b506101a261064a565b34801561020057600080fd5b506101a261020f366004611f0d565b6107da565b34801561022057600080fd5b506101a261022f366004611d69565b610890565b34801561024057600080fd5b506101a261024f366004611d69565b61090d565b34801561026057600080fd5b506101a2610941565b34801561027557600080fd5b506101d1610284366004611d69565b61097c565b34801561029557600080fd5b506101d160685481565b3480156102ab57600080fd5b506102b46103ef565b6040516001600160a01b039091168152602001610179565b3480156102d857600080fd5b506101a26102e7366004611d69565b610a01565b3480156102f857600080fd5b506101a2610ba7565b34801561030d57600080fd5b506101a2610c3a565b34801561032257600080fd5b506101a2610331366004611eb2565b610c71565b34801561034257600080fd5b506101d160675481565b34801561035857600080fd5b506101d1610367366004611d69565b610ef1565b34801561037857600080fd5b5061038c610387366004611d69565b610f2b565b6040519015158152602001610179565b3480156103a857600080fd5b506101a26103b7366004611ee9565b610f5a565b6101a26103ca366004611f7e565b610ffa565b3480156103db57600080fd5b506101a26103ea366004611d69565b611527565b6033546001600160a01b031690565b61044a6040518060e0016040528060006001600160a01b031681526020016000815260200160008152602001600081526020016000801916815260200160608152602001606081525090565b6000828152606a6020908152604091829020825160e08101845281546001600160a01b0316815260018201548184015260028201548185015260038201546060820152600482015460808201526005820180548551818602810186019096528086529194929360a086019392908301828280156104f057602002820191906000526020600020905b81546001600160a01b031681526001909101906020018083116104d2575b5050505050815260200160068201805480602002602001604051908101604052809291908181526020016000905b8282101561058a5760008481526020908190208301805460408051828502810185019091528181529283018282801561057657602002820191906000526020600020905b815481526020019060010190808311610562575b50505050508152602001906001019061051e565b505050915250909392505050565b336105a16103ef565b6001600160a01b0316146105d05760405162461bcd60e51b81526004016105c790612009565b60405180910390fd5b6000828152606a60205260409020600401546106205760405162461bcd60e51b815260206004820152600f60248201526e496e76616c6964206469737075746560881b60448201526064016105c7565b6000828152606a602052604081206003018054839290610641908490611d51565b90915550505050565b60026065540361069c5760405162461bcd60e51b815260206004820152601f60248201527f5265656e7472616e637947756172643a207265656e7472616e742063616c6c0060448201526064016105c7565b6002606555336000908152606960205260409020546106ea5760405162461bcd60e51b815260206004820152600a6024820152694e6f2062616c616e636560b01b60448201526064016105c7565b336000908152606960205260408120805491829190610709838061203e565b90915550506040516000908190339084908381818185875af1925050503d8060008114610752576040519150601f19603f3d011682016040523d82523d6000602084013e610757565b606091505b50915091508161079b5760405162461bcd60e51b815260206004820152600f60248201526e151c985b9cd9995c8819985a5b1959608a1b60448201526064016105c7565b60405183815233907f7fcf532c15f0a6db0bd6d0e038bea71d30d808c7d98cb3bf7268a95bf5081b659060200160405180910390a25050600160655550565b60006107e6600161189c565b905080156107fe576000805461ff0019166101001790555b6000808061080e85870187612055565b606680546001600160a01b03191633179055606782905560688190559194509250905061083961192b565b61084283610f5a565b505050801561088b576000805461ff0019169055604051600181527f7f26b83ff96e1f2b6a682f133852f6798a09c465da95921460cefb38474024989060200160405180910390a15b505050565b336108996103ef565b6001600160a01b0316146108bf5760405162461bcd60e51b81526004016105c790612009565b600081116109085760405162461bcd60e51b81526020600482015260166024820152754c617073652063616e6e6f742062652030206461797360501b60448201526064016105c7565b606855565b336109166103ef565b6001600160a01b03161461093c5760405162461bcd60e51b81526004016105c790612009565b606755565b3361094a6103ef565b6001600160a01b0316146109705760405162461bcd60e51b81526004016105c790612009565b61097a600061195a565b565b6000818152606a602052604080822080546001909101549151630d7e149f60e01b815260048101929092526001600160a01b031690630d7e149f90602401602060405180830381865afa1580156109d7573d6000803e3d6000fd5b505050506040513d601f19601f820116820180604052508101906109fb919061208a565b92915050565b33610a0a6103ef565b6001600160a01b031614610a305760405162461bcd60e51b81526004016105c790612009565b6000818152606a602052604090206004810154829190610a625760405162461bcd60e51b81526004016105c7906120a3565b80546001820154604051632e31150760e11b815260048101919091526003916001600160a01b031690635c622a0e90602401602060405180830381865afa158015610ab1573d6000803e3d6000fd5b505050506040513d601f19601f82011682018060405250810190610ad591906120f1565b6005811115610ae657610ae66120cc565b14610b035760405162461bcd60e51b81526004016105c79061210c565b6000838152606a602052604090819020805460018201549251634e46f22360e01b815291926001600160a01b0390911691634e46f22391610b4a9160040190815260200190565b600060405180830381600087803b158015610b6457600080fd5b505af1158015610b78573d6000803e3d6000fd5b50505050610b85846119ac565b610b93600582016000611c47565b610ba1600682016000611c65565b50505050565b33610bb06103ef565b6001600160a01b031614610bd65760405162461bcd60e51b81526004016105c790612009565b606660009054906101000a90046001600160a01b03166001600160a01b031663bb7dd2fc6040518163ffffffff1660e01b8152600401600060405180830381600087803b158015610c2657600080fd5b505af1158015610ba1573d6000803e3d6000fd5b33610c436103ef565b6001600160a01b031614610c695760405162461bcd60e51b81526004016105c790612009565b61097a611a33565b33610c7a6103ef565b6001600160a01b031614610ca05760405162461bcd60e51b81526004016105c790612009565b6000828152606a602052604090206004810154839190610cd25760405162461bcd60e51b81526004016105c7906120a3565b80546001820154604051632e31150760e11b815260048101919091526003916001600160a01b031690635c622a0e90602401602060405180830381865afa158015610d21573d6000803e3d6000fd5b505050506040513d601f19601f82011682018060405250810190610d4591906120f1565b6005811115610d5657610d566120cc565b14610d735760405162461bcd60e51b81526004016105c79061210c565b6000848152606a6020526040902060048101548514610da45760405162461bcd60e51b81526004016105c7906120a3565b80546001820154604051630d7e149f60e01b81526001600160a01b0390921691630d7e149f91610dda9160040190815260200190565b602060405180830381865afa158015610df7573d6000803e3d6000fd5b505050506040513d601f19601f82011682018060405250810190610e1b919061208a565b4211610e565760405162461bcd60e51b815260206004820152600a602482015269151a5b595b1bd8dad95960b21b60448201526064016105c7565b805460018201546006830180546001600160a01b03909316926387dfee5792919088908110610e8757610e8761213f565b906000526020600020016040518363ffffffff1660e01b8152600401610eae929190612195565b600060405180830381600087803b158015610ec857600080fd5b505af1158015610edc573d6000803e3d6000fd5b50505050610eea8585611a83565b5050505050565b6000818152606a602052604081206004015415610f1e57506000908152606a602052604090206002015490565b505060675490565b919050565b6000610f368261097c565b6000838152606a6020526040902060030154610f529190611d51565b421192915050565b33610f636103ef565b6001600160a01b031614610f895760405162461bcd60e51b81526004016105c790612009565b6001600160a01b038116610fee5760405162461bcd60e51b815260206004820152602660248201527f4f776e61626c653a206e6577206f776e657220697320746865207a65726f206160448201526564647265737360d01b60648201526084016105c7565b610ff78161195a565b50565b6000846001600160a01b0316636cc6cde16040518163ffffffff1660e01b8152600401602060405180830381865afa15801561103a573d6000803e3d6000fd5b505050506040513d601f19601f8201168201806040525081019061105e91906121b6565b90506001600160a01b03811630146110ab5760405162461bcd60e51b815260206004820152601060248201526f2bb937b7339030b93134ba3930ba37b960811b60448201526064016105c7565b604051632e31150760e11b8152600481018590526000906001600160a01b03871690635c622a0e90602401602060405180830381865afa1580156110f3573d6000803e3d6000fd5b505050506040513d601f19601f8201168201806040525081019061111791906120f1565b9050600281600581111561112d5761112d6120cc565b148061114a57506003816005811115611148576111486120cc565b145b6111a75760405162461bcd60e51b815260206004820152602860248201527f436f6e646974696f6e2073746174757320696e76616c696420666f722061726260448201526734ba3930ba34b7b760c11b60648201526084016105c7565b604051630d7e149f60e01b8152600481018690526001600160a01b03871690630d7e149f90602401602060405180830381865afa1580156111ec573d6000803e3d6000fd5b505050506040513d601f19601f82011682018060405250810190611210919061208a565b42106112515760405162461bcd60e51b815260206004820152601060248201526f151a5b595b1bd8dac8195b185c1cd95960821b60448201526064016105c7565b604080516001600160a01b038816602082015290810186905260009060600160405160208183030381529060405280519060200120905061129181610ef1565b3410156112d35760405162461bcd60e51b815260206004820152601060248201526f496e73756666696369656e742066656560801b60448201526064016105c7565b6067546112e0903461203e565b33600090815260696020526040812080549091906112ff908490611d51565b90915550506000818152606a60205260409020600481015461147d57600481810183905581546001600160a01b0319166001600160a01b038a16908117835560018301899055606754600284015560685460038401556040805163aced166160e01b81529051600585019363aced1661928082019260209290918290030181865afa158015611392573d6000803e3d6000fd5b505050506040513d601f19601f820116820180604052508101906113b691906121b6565b81546001810183556000928352602083200180546001600160a01b0319166001600160a01b0392831617905560405163f24fc90360e01b8152600481018a9052908a169063f24fc90390602401600060405180830381865afa158015611420573d6000803e3d6000fd5b505050506040513d6000823e601f3d908101601f191682016040526114489190810190612241565b60808101516006840180546001810182556000918252602091829020835194955061147a949101929190910190611c83565b50505b600581018054600181810183556000928352602080842090920180546001600160a01b031916331790556006840180549182018155835291206114c291018787611cce565b50604051634dab5e6960e01b8152600481018890526001600160a01b03891690634dab5e6990602401600060405180830381600087803b15801561150557600080fd5b505af1158015611519573d6000803e3d6000fd5b505050505050505050505050565b6000818152606a6020526040902060048101548291906115595760405162461bcd60e51b81526004016105c7906120a3565b80546001820154604051632e31150760e11b815260048101919091526003916001600160a01b031690635c622a0e90602401602060405180830381865afa1580156115a8573d6000803e3d6000fd5b505050506040513d601f19601f820116820180604052508101906115cc91906120f1565b60058111156115dd576115dd6120cc565b146115fa5760405162461bcd60e51b81526004016105c79061210c565b6000838152606a60209081526040808320815160e08101835281546001600160a01b0316815260018201548185015260028201548184015260038201546060820152600482015460808201526005820180548451818702810187019095528085529194929360a08601939092908301828280156116a057602002820191906000526020600020905b81546001600160a01b03168152600190910190602001808311611682575b5050505050815260200160068201805480602002602001604051908101604052809291908181526020016000905b8282101561173a5760008481526020908190208301805460408051828502810185019091528181529283018282801561172657602002820191906000526020600020905b815481526020019060010190808311611712575b5050505050815260200190600101906116ce565b5050505081525050905061174d84610f2b565b6117865760405162461bcd60e51b815260206004820152600a602482015269139bdd081b185c1cd95960b21b60448201526064016105c7565b6000848152606a602090815260408083205491840151905163f24fc90360e01b81526001600160a01b039092169163f24fc903916117ca9160040190815260200190565b600060405180830381865afa1580156117e7573d6000803e3d6000fd5b505050506040513d6000823e601f3d908101601f1916820160405261180f9190810190612241565b8251602084015160808301516040516387dfee5760e01b81529394506001600160a01b03909216926387dfee579261184a9291600401612354565b600060405180830381600087803b15801561186457600080fd5b505af1158015611878573d6000803e3d6000fd5b50505050611885856119ac565b610eea611a33565b6001600160a01b03163b151590565b60008054610100900460ff16156118ea578160ff1660011480156118c657506118c43061188d565b155b6118e25760405162461bcd60e51b81526004016105c7906123a2565b506000919050565b60005460ff8084169116106119115760405162461bcd60e51b81526004016105c7906123a2565b506000805460ff191660ff92909216919091179055600190565b600054610100900460ff166119525760405162461bcd60e51b81526004016105c7906123f0565b61097a611c17565b603380546001600160a01b038381166001600160a01b0319831681179093556040519116919082907f8be0079c531659141344cd1fd0a4f28419497f9722a3daafe3b4186f6b6457e090600090a35050565b6000818152606a6020526040902060015b600582015481101561088b578160020154606960008460050184815481106119e7576119e761213f565b60009182526020808320909101546001600160a01b0316835282019290925260400181208054909190611a1b908490611d51565b90915550819050611a2b8161243b565b9150506119bd565b606660009054906101000a90046001600160a01b03166001600160a01b031663c5c102ac6040518163ffffffff1660e01b8152600401600060405180830381600087803b158015610c2657600080fd5b6000828152606a602052604081206005810154909190611aa59060019061203e565b8260020154611ab49190612454565b905060015b6005830154811015611bcf57826006018481548110611ada57611ada61213f565b90600052602060002001604051602001611af49190612473565b60405160208183030381529060405280519060200120836006018281548110611b1f57611b1f61213f565b90600052602060002001604051602001611b399190612473565b6040516020818303038152906040528051906020012003611bbd57826002015460696000856005018481548110611b7257611b7261213f565b60009182526020808320909101546001600160a01b0316835282019290925260400181208054909190611ba6908490611d51565b90915550506002830154611bba908361203e565b91505b80611bc78161243b565b915050611ab9565b508060696000611bdd6103ef565b6001600160a01b03166001600160a01b031681526020019081526020016000206000828254611c0c9190611d51565b909155505050505050565b600054610100900460ff16611c3e5760405162461bcd60e51b81526004016105c7906123f0565b61097a3361195a565b5080546000825590600052602060002090810190610ff79190611d09565b5080546000825590600052602060002090810190610ff79190611d1e565b828054828255906000526020600020908101928215611cbe579160200282015b82811115611cbe578251825591602001919060010190611ca3565b50611cca929150611d09565b5090565b828054828255906000526020600020908101928215611cbe579160200282015b82811115611cbe578235825591602001919060010190611cee565b5b80821115611cca5760008155600101611d0a565b80821115611cca576000611d328282611c47565b50600101611d1e565b634e487b7160e01b600052601160045260246000fd5b60008219821115611d6457611d64611d3b565b500190565b600060208284031215611d7b57600080fd5b5035919050565b600082825180855260208086019550808260051b8401018186016000805b85811015611df357868403601f19018a52825180518086529086019086860190845b81811015611dde57835183529288019291880191600101611dc2565b50509a86019a94505091840191600101611da0565b509198975050505050505050565b60006020808352610100830160018060a01b0380865116838601528286015160408601526040860151606086015260608601516080860152608086015160a086015260a086015160e060c0870152828151808552610120880191508583019450600092505b80831015611e8857845184168252938501936001929092019190850190611e66565b5060c0880151878203601f190160e08901529450611ea68186611d82565b98975050505050505050565b60008060408385031215611ec557600080fd5b50508035926020909101359150565b6001600160a01b0381168114610ff757600080fd5b600060208284031215611efb57600080fd5b8135611f0681611ed4565b9392505050565b60008060208385031215611f2057600080fd5b82356001600160401b0380821115611f3757600080fd5b818501915085601f830112611f4b57600080fd5b813581811115611f5a57600080fd5b866020828501011115611f6c57600080fd5b60209290920196919550909350505050565b60008060008060608587031215611f9457600080fd5b8435611f9f81611ed4565b93506020850135925060408501356001600160401b0380821115611fc257600080fd5b818701915087601f830112611fd657600080fd5b813581811115611fe557600080fd5b8860208260051b8501011115611ffa57600080fd5b95989497505060200194505050565b6020808252818101527f4f776e61626c653a2063616c6c6572206973206e6f7420746865206f776e6572604082015260600190565b60008282101561205057612050611d3b565b500390565b60008060006060848603121561206a57600080fd5b833561207581611ed4565b95602085013595506040909401359392505050565b60006020828403121561209c57600080fd5b5051919050565b6020808252600f908201526e496e76616c6964204469737075746560881b604082015260600190565b634e487b7160e01b600052602160045260246000fd5b805160068110610f2657600080fd5b60006020828403121561210357600080fd5b611f06826120e2565b602080825260199082015278105c989a5d1c985d1a5bdb881b9bdd081c995c5d595cdd1959603a1b604082015260600190565b634e487b7160e01b600052603260045260246000fd5b6000815480845260208085019450836000528060002060005b8381101561218a5781548752958201956001918201910161216e565b509495945050505050565b8281526040602082015260006121ae6040830184612155565b949350505050565b6000602082840312156121c857600080fd5b8151611f0681611ed4565b634e487b7160e01b600052604160045260246000fd5b60405160c081016001600160401b038111828210171561220b5761220b6121d3565b60405290565b604051601f8201601f191681016001600160401b0381118282101715612239576122396121d3565b604052919050565b6000602080838503121561225457600080fd5b82516001600160401b038082111561226b57600080fd5b9084019060c0828703121561227f57600080fd5b6122876121e9565b825161229281611ed4565b80825250838301518482015260408301516040820152606083015160608201526080830151828111156122c457600080fd5b8301601f810188136122d557600080fd5b8051838111156122e7576122e76121d3565b8060051b93506122f8868501612211565b818152938201860193868101908a86111561231257600080fd5b928701925b8584101561233057835182529287019290870190612317565b60808501525061234591505060a084016120e2565b60a08201529695505050505050565b6000604082018483526020604081850152818551808452606086019150828701935060005b8181101561239557845183529383019391830191600101612379565b5090979650505050505050565b6020808252602e908201527f496e697469616c697a61626c653a20636f6e747261637420697320616c72656160408201526d191e481a5b9a5d1a585b1a5e995960921b606082015260800190565b6020808252602b908201527f496e697469616c697a61626c653a20636f6e7472616374206973206e6f74206960408201526a6e697469616c697a696e6760a81b606082015260800190565b60006001820161244d5761244d611d3b565b5060010190565b600081600019048311821515161561246e5761246e611d3b565b500290565b602081526000611f06602083018461215556fea26469706673582212205fe2cc3ab675b9c570e2d82140362952b56fd0c2fdac0bc21b98fcc4133ed10064736f6c634300080d0033",
  "linkReferences": {},
  "deployedLinkReferences": {}
}