{
  "_format": "hh-sol-artifact-1",
  "contractName": "SolverFactory",
  "sourceName": "contracts/SolverFactory.sol",
  "abi": [
    {
      "inputs": [
        {
          "internalType": "address",
          "name": "_ctfAddress",
          "type": "address"
        }
      ],
      "stateMutability": "nonpayable",
      "type": "constructor"
    },
    {
      "anonymous": false,
      "inputs": [
        {
          "indexed": false,
          "internalType": "address",
          "name": "newSolverAddress",
          "type": "address"
        }
      ],
      "name": "SolverCreated",
      "type": "event"
    },
    {
      "inputs": [
        {
          "internalType": "address",
          "name": "chainParent",
          "type": "address"
        },
        {
          "internalType": "uint256",
          "name": "chainIndex",
          "type": "uint256"
        },
        {
          "components": [
            {
              "internalType": "contract Solver",
              "name": "implementation",
              "type": "address"
            },
            {
              "internalType": "address",
              "name": "keeper",
              "type": "address"
            },
            {
              "internalType": "address",
              "name": "arbitrator",
              "type": "address"
            },
            {
              "internalType": "uint256",
              "name": "timelockSeconds",
              "type": "uint256"
            },
            {
              "internalType": "bytes",
              "name": "data",
              "type": "bytes"
            },
            {
              "components": [
                {
                  "internalType": "uint256",
                  "name": "executions",
                  "type": "uint256"
                },
                {
                  "internalType": "enum SolverLib.IngestType",
                  "name": "ingestType",
                  "type": "uint8"
                },
                {
                  "internalType": "bytes32",
                  "name": "slot",
                  "type": "bytes32"
                },
                {
                  "internalType": "uint256",
                  "name": "solverIndex",
                  "type": "uint256"
                },
                {
                  "internalType": "bytes",
                  "name": "data",
                  "type": "bytes"
                }
              ],
              "internalType": "struct SolverLib.Ingest[]",
              "name": "ingests",
              "type": "tuple[]"
            },
            {
              "components": [
                {
                  "internalType": "contract IERC20",
                  "name": "collateralToken",
                  "type": "address"
                },
                {
                  "internalType": "uint256",
                  "name": "outcomeSlots",
                  "type": "uint256"
                },
                {
                  "internalType": "uint256",
                  "name": "parentCollectionIndexSet",
                  "type": "uint256"
                },
                {
                  "internalType": "bytes32",
                  "name": "amountSlot",
                  "type": "bytes32"
                },
                {
                  "internalType": "uint256[]",
                  "name": "partition",
                  "type": "uint256[]"
                },
                {
                  "components": [
                    {
                      "internalType": "bytes32",
                      "name": "recipientAddressSlot",
                      "type": "bytes32"
                    },
                    {
                      "internalType": "bytes32[]",
                      "name": "recipientAmountSlots",
                      "type": "bytes32[]"
                    }
                  ],
                  "internalType": "struct SolverLib.Allocation[]",
                  "name": "allocations",
                  "type": "tuple[]"
                },
                {
                  "components": [
                    {
                      "internalType": "bytes32",
                      "name": "digest",
                      "type": "bytes32"
                    },
                    {
                      "internalType": "uint8",
                      "name": "hashFunction",
                      "type": "uint8"
                    },
                    {
                      "internalType": "uint8",
                      "name": "size",
                      "type": "uint8"
                    }
                  ],
                  "internalType": "struct SolverLib.Multihash[]",
                  "name": "outcomeURIs",
                  "type": "tuple[]"
                }
              ],
              "internalType": "struct SolverLib.ConditionBase",
              "name": "conditionBase",
              "type": "tuple"
            }
          ],
          "internalType": "struct SolverLib.Config",
          "name": "solverConfig",
          "type": "tuple"
        }
      ],
      "name": "createSolver",
      "outputs": [
        {
          "internalType": "address",
          "name": "",
          "type": "address"
        }
      ],
      "stateMutability": "nonpayable",
      "type": "function"
    },
    {
      "inputs": [
        {
          "internalType": "uint256",
          "name": "",
          "type": "uint256"
        }
      ],
      "name": "solvers",
      "outputs": [
        {
          "internalType": "address",
          "name": "",
          "type": "address"
        }
      ],
      "stateMutability": "view",
      "type": "function"
    }
  ],
  "bytecode": "0x60a060405234801561001057600080fd5b506040516109a33803806109a383398101604081905261002f91610044565b60601b6001600160601b031916608052610072565b600060208284031215610055578081fd5b81516001600160a01b038116811461006b578182fd5b9392505050565b60805160601c610913610090600039600061014601526109136000f3fe608060405234801561001057600080fd5b50600436106100365760003560e01c80637bdf86231461003b57806392ce765e14610064575b600080fd5b61004e6100493660046102d7565b610077565b60405161005b9190610603565b60405180910390f35b61004e610072366004610356565b61022e565b6000806100876020840184610333565b6001600160a01b031614156100b75760405162461bcd60e51b81526004016100ae9061074d565b60405180910390fd5b6001600160a01b0384161580156100cc575082155b806100ea57506001600160a01b038416158015906100ea5750600083115b6101065760405162461bcd60e51b81526004016100ae9061079a565b600061011d6101186020850185610333565b610258565b604051638bc3a08f60e01b81529091506001600160a01b03821690638bc3a08f906101749033907f0000000000000000000000000000000000000000000000000000000000000000908a908a908a90600401610617565b600060405180830381600087803b15801561018e57600080fd5b505af11580156101a2573d6000803e3d6000fd5b5050600080546001810182559080527f290decd9548b62a8d60345a988386fc84ba6bc95484008f6362f93160ef3e5630180546001600160a01b0319166001600160a01b03851617905550506040517ff209a592917f50f3a35587a0febcddc6d39633e81c51e5a8e4c0a4b1da8532859061021e908390610603565b60405180910390a1949350505050565b6000818154811061023e57600080fd5b6000918252602090912001546001600160a01b0316905081565b6000604051733d602d80600a3d3981f3363d3d373d3d3d363d7360601b81528260601b60148201526e5af43d82803e903d91602b57fd5bf360881b60288201526037816000f09150506001600160a01b0381166102c75760405162461bcd60e51b81526004016100ae9061071d565b919050565b80356102c7816108c5565b6000806000606084860312156102eb578283fd5b83356102f6816108c5565b92506020840135915060408401356001600160401b03811115610317578182fd5b840160e08187031215610328578182fd5b809150509250925092565b600060208284031215610344578081fd5b813561034f816108c5565b9392505050565b600060208284031215610367578081fd5b5035919050565b6001600160a01b03169052565b81835260006001600160fb1b03831115610393578081fd5b6020830280836020870137939093016020019283525090919050565b60008284526020808501945084818502860184845b8781101561044c5783830389528135609e198836030181126103e4578687fd5b87018035845260a086820135600481106103fc578889fd5b858801526040828101359086015260608083013590860152608061042281840184610863565b9350828288015261043683880185836104c6565b9c89019c965050509286019250506001016103c4565b5090979650505050505050565b60008284526020808501945082825b858110156104bb57813587528282013560ff808216808314610488578687fd5b898601526040915083820135908116908181146104a3578687fd5b50908801526060968701969190910190600101610468565b509495945050505050565b60008284528282602086013780602084860101526020601f19601f85011685010190509392505050565b600081356104fd816108c5565b6001600160a01b0316835260208281013581850152604080840135818601526060808501359086015261053360808501856107ce565b60e0608088015261054860e08801828461037b565b91505061055860a08601866107ce565b87830360a08901528083528483018582028401860183885b848110156105cf57868303601f19018452813536879003603e19018112610595578a8bfd5b8601803584526105a78a8201826107ce565b9150898b8601526105bb8a8601838361037b565b958b01959450505090880190600101610570565b50506105de60c08a018a61081c565b9750955089810360c08b01526105f5818888610459565b9a9950505050505050505050565b6001600160a01b0391909116815260200190565b6001600160a01b0386811682528581166020830152841660408201526060810183905260a060808201526000823561064e816108c5565b61065b60a084018261036e565b50610668602084016102cc565b61067560c084018261036e565b50610682604084016102cc565b61068f60e084018261036e565b5060608301356101008301526106a86080840184610863565b60e06101208501526106bf610180850182846104c6565b9150506106cf60a08501856107ce565b609f1980868503016101408701526106e88483856103af565b93506106f760c08801886108a7565b92508086850301610160870152505061071082826104f0565b9998505050505050505050565b602080825260169082015275115490cc4c4d8dce8818dc99585d194819985a5b195960521b604082015260600190565b6020808252602d908201527f536f6c766572466163746f72793a3a496e76616c696420696d706c656d656e7460408201526c6174696f6e206164647265737360981b606082015260800190565b6020808252601a9082015279092dcecc2d8d2c840c6d0c2d2dc40e0c2e4cadce85ed2dcc8caf60331b604082015260600190565b6000808335601e198436030181126107e4578283fd5b83016020810192503590506001600160401b0381111561080357600080fd5b60208102360383131561081557600080fd5b9250929050565b6000808335601e19843603018112610832578283fd5b83016020810192503590506001600160401b0381111561085157600080fd5b60608102360383131561081557600080fd5b6000808335601e19843603018112610879578283fd5b83016020810192503590506001600160401b0381111561089857600080fd5b80360383131561081557600080fd5b6000823560de198336030181126108bc578182fd5b90910192915050565b6001600160a01b03811681146108da57600080fd5b5056fea26469706673582212208884e8488025aa4264333e775431cc04c7f113a758d9275a89bcaa894c7b4de464736f6c63430008000033",
  "linkReferences": {},
  "deployedLinkReferences": {}
}