{
  "_format": "hh-sol-artifact-1",
  "contractName": "ERC1155Rescue",
  "sourceName": "contracts/solvers/ERC1155Rescue.sol",
  "abi": [
    {
      "inputs": [
        {
          "internalType": "contract ConditionalTokens",
          "name": "_ctf",
          "type": "address"
        }
      ],
      "stateMutability": "nonpayable",
      "type": "constructor"
    },
    {
      "anonymous": false,
      "inputs": [
        {
          "indexed": true,
          "internalType": "bytes32",
          "name": "id",
          "type": "bytes32"
        },
        {
          "indexed": true,
          "internalType": "address",
          "name": "recipient",
          "type": "address"
        },
        {
          "indexed": false,
          "internalType": "uint256[]",
          "name": "tokenIds",
          "type": "uint256[]"
        },
        {
          "indexed": false,
          "internalType": "uint256[]",
          "name": "amounts",
          "type": "uint256[]"
        }
      ],
      "name": "ReceivedBag",
      "type": "event"
    },
    {
      "anonymous": false,
      "inputs": [
        {
          "indexed": true,
          "internalType": "bytes32",
          "name": "id",
          "type": "bytes32"
        },
        {
          "indexed": true,
          "internalType": "address",
          "name": "to",
          "type": "address"
        },
        {
          "indexed": false,
          "internalType": "uint256[]",
          "name": "tokenIds",
          "type": "uint256[]"
        },
        {
          "indexed": false,
          "internalType": "uint256[]",
          "name": "amounts",
          "type": "uint256[]"
        }
      ],
      "name": "RescuedBag",
      "type": "event"
    },
    {
      "inputs": [
        {
          "internalType": "address",
          "name": "solver",
          "type": "address"
        },
        {
          "internalType": "uint256[]",
          "name": "tokenIds",
          "type": "uint256[]"
        },
        {
          "internalType": "uint256[]",
          "name": "tokenAmounts",
          "type": "uint256[]"
        }
      ],
      "name": "getBagId",
      "outputs": [
        {
          "internalType": "bytes32",
          "name": "",
          "type": "bytes32"
        }
      ],
      "stateMutability": "pure",
      "type": "function"
    },
    {
      "inputs": [
        {
          "internalType": "address",
          "name": "operator",
          "type": "address"
        },
        {
          "internalType": "address",
          "name": "from",
          "type": "address"
        },
        {
          "internalType": "uint256[]",
          "name": "ids",
          "type": "uint256[]"
        },
        {
          "internalType": "uint256[]",
          "name": "values",
          "type": "uint256[]"
        },
        {
          "internalType": "bytes",
          "name": "data",
          "type": "bytes"
        }
      ],
      "name": "onERC1155BatchReceived",
      "outputs": [
        {
          "internalType": "bytes4",
          "name": "",
          "type": "bytes4"
        }
      ],
      "stateMutability": "nonpayable",
      "type": "function"
    },
    {
      "inputs": [
        {
          "internalType": "address",
          "name": "operator",
          "type": "address"
        },
        {
          "internalType": "address",
          "name": "from",
          "type": "address"
        },
        {
          "internalType": "uint256",
          "name": "id",
          "type": "uint256"
        },
        {
          "internalType": "uint256",
          "name": "value",
          "type": "uint256"
        },
        {
          "internalType": "bytes",
          "name": "data",
          "type": "bytes"
        }
      ],
      "name": "onERC1155Received",
      "outputs": [
        {
          "internalType": "bytes4",
          "name": "",
          "type": "bytes4"
        }
      ],
      "stateMutability": "nonpayable",
      "type": "function"
    },
    {
      "inputs": [
        {
          "internalType": "bytes32",
          "name": "bagId",
          "type": "bytes32"
        },
        {
          "internalType": "address",
          "name": "to",
          "type": "address"
        }
      ],
      "name": "rescueBag",
      "outputs": [],
      "stateMutability": "nonpayable",
      "type": "function"
    },
    {
      "inputs": [
        {
          "internalType": "bytes4",
          "name": "interfaceId",
          "type": "bytes4"
        }
      ],
      "name": "supportsInterface",
      "outputs": [
        {
          "internalType": "bool",
          "name": "",
          "type": "bool"
        }
      ],
      "stateMutability": "view",
      "type": "function"
    }
  ],
  "bytecode": "0x608060405234801561001057600080fd5b50604051610adf380380610adf83398101604081905261002f91610054565b600080546001600160a01b0319166001600160a01b0392909216919091179055610084565b60006020828403121561006657600080fd5b81516001600160a01b038116811461007d57600080fd5b9392505050565b610a4c806100936000396000f3fe608060405234801561001057600080fd5b50600436106100575760003560e01c806301ffc9a71461005c5780635463511414610084578063bc197c8114610099578063d0761d69146100c5578063f23a6e61146100e6575b600080fd5b61006f61006a366004610567565b6100f4565b60405190151581526020015b60405180910390f35b6100976100923660046105b0565b61012b565b005b6100ac6100a736600461066c565b61032f565b6040516001600160e01b0319909116815260200161007b565b6100d86100d336600461072a565b6104cb565b60405190815260200161007b565b6100ac6100573660046107ac565b60006001600160e01b03198216630271189760e51b148061012557506301ffc9a760e01b6001600160e01b03198316145b92915050565b6000828152600160205260409020805461010090046001600160a01b0316331461019c5760405162461bcd60e51b815260206004820181905260248201527f455243313135355265736375653a3a4f6e6c79204f4720726563697069656e7460448201526064015b60405180910390fd5b828160010154146101ee5760405162461bcd60e51b815260206004820152601c60248201527b115490cc4c4d4d54995cd8dd594e8e925b9d985b1a5908189859d25960221b6044820152606401610193565b805460ff16156102395760405162461bcd60e51b8152602060048201526016602482015275115490cc4c4d4d54995cd8dd594e8e94995cd8dd595960521b6044820152606401610193565b805460ff1916600117815560005460028201546040516001600160a01b0390921691632eb2c2d691309186916003870191600488019161027f9160200190815260200190565b6040516020818303038152906040526040518663ffffffff1660e01b81526004016102ae959493929190610867565b600060405180830381600087803b1580156102c857600080fd5b505af11580156102dc573d6000803e3d6000fd5b50505050816001600160a01b0316837fc9c5ef7d3df69ecd4f57f7cae440442bfe7fd56a74480379bab510b80bcec9b783600301846004016040516103229291906108fc565b60405180910390a3505050565b6000876001600160a01b0316896001600160a01b0316146103925760405162461bcd60e51b815260206004820152601f60248201527f455243313135355265736375653a3a6f70657261746f7220213d2066726f6d006044820152606401610193565b60006103a189898989896104cb565b600081815260016020819052604090912090810154919250908290036104135760405162461bcd60e51b815260206004820152602160248201527f455243313135355265736375653a3a42616720616c72656164792065786973746044820152607360f81b6064820152608401610193565b60018101829055610428600382018a8a610507565b50610437600482018888610507565b506104448486018661092a565b60028301558154610100600160a81b0319166101006001600160a01b039283168102919091178084556040519190049091169083907f061faab0d6d1561f0e5efc80e54a81f87a21af21a40980f6efd0841bfaaf6184906104ac908d908d908d908d9061098c565b60405180910390a35063bc197c8160e01b9a9950505050505050505050565b600085858585856040516020016104e69594939291906109eb565b60405160208183030381529060405280519060200120905095945050505050565b828054828255906000526020600020908101928215610542579160200282015b82811115610542578235825591602001919060010190610527565b5061054e929150610552565b5090565b5b8082111561054e5760008155600101610553565b60006020828403121561057957600080fd5b81356001600160e01b03198116811461059157600080fd5b9392505050565b6001600160a01b03811681146105ad57600080fd5b50565b600080604083850312156105c357600080fd5b8235915060208301356105d581610598565b809150509250929050565b60008083601f8401126105f257600080fd5b5081356001600160401b0381111561060957600080fd5b6020830191508360208260051b850101111561062457600080fd5b9250929050565b60008083601f84011261063d57600080fd5b5081356001600160401b0381111561065457600080fd5b60208301915083602082850101111561062457600080fd5b60008060008060008060008060a0898b03121561068857600080fd5b883561069381610598565b975060208901356106a381610598565b965060408901356001600160401b03808211156106bf57600080fd5b6106cb8c838d016105e0565b909850965060608b01359150808211156106e457600080fd5b6106f08c838d016105e0565b909650945060808b013591508082111561070957600080fd5b506107168b828c0161062b565b999c989b5096995094979396929594505050565b60008060008060006060868803121561074257600080fd5b853561074d81610598565b945060208601356001600160401b038082111561076957600080fd5b61077589838a016105e0565b9096509450604088013591508082111561078e57600080fd5b5061079b888289016105e0565b969995985093965092949392505050565b60008060008060008060a087890312156107c557600080fd5b86356107d081610598565b955060208701356107e081610598565b9450604087013593506060870135925060808701356001600160401b0381111561080957600080fd5b61081589828a0161062b565b979a9699509497509295939492505050565b6000815480845260208085019450836000528060002060005b8381101561085c57815487529582019560019182019101610840565b509495945050505050565b600060018060a01b03808816835260208188168185015260a0604085015261089260a0850188610827565b915083820360608501526108a68287610827565b91508382036080850152845180835260005b818110156108d35786810183015184820184015282016108b8565b818111156108e45760008383860101525b50601f01601f19169190910101979650505050505050565b60408152600061090f6040830185610827565b82810360208401526109218185610827565b95945050505050565b6000806040838503121561093d57600080fd5b823561094881610598565b946020939093013593505050565b81835260006001600160fb1b0383111561096f57600080fd5b8260051b8083602087013760009401602001938452509192915050565b6040815260006109a0604083018688610956565b82810360208401526109b3818587610956565b979650505050505050565b60006001600160fb1b038311156109d457600080fd5b8260051b8083863760009401938452509192915050565b606086901b6001600160601b031916815260006109b3610a0f6014840187896109be565b84866109be56fea26469706673582212209968098ba051c9d6fd0ec37b37c8e872bc0f6120150c3f35ef1474937eb80e4a64736f6c634300080e0033",
  "linkReferences": {},
  "deployedLinkReferences": {}
}